{
  "_format": "hh-sol-artifact-1",
  "contractName": "CosmicIslandLandUpgradeable",
  "sourceName": "contracts/upgradeable/ERC721/CosmicIslandLandUpgradeable.sol",
  "abi": [
    {
      "inputs": [],
      "stateMutability": "nonpayable",
      "type": "constructor"
    },
    {
      "anonymous": false,
      "inputs": [
        {
          "indexed": true,
          "internalType": "address",
          "name": "owner",
          "type": "address"
        },
        {
          "indexed": true,
          "internalType": "address",
          "name": "approved",
          "type": "address"
        },
        {
          "indexed": true,
          "internalType": "uint256",
          "name": "tokenId",
          "type": "uint256"
        }
      ],
      "name": "Approval",
      "type": "event"
    },
    {
      "anonymous": false,
      "inputs": [
        {
          "indexed": true,
          "internalType": "address",
          "name": "owner",
          "type": "address"
        },
        {
          "indexed": true,
          "internalType": "address",
          "name": "operator",
          "type": "address"
        },
        {
          "indexed": false,
          "internalType": "bool",
          "name": "approved",
          "type": "bool"
        }
      ],
      "name": "ApprovalForAll",
      "type": "event"
    },
    {
      "anonymous": false,
      "inputs": [
        {
          "indexed": false,
          "internalType": "uint8",
          "name": "version",
          "type": "uint8"
        }
      ],
      "name": "Initialized",
      "type": "event"
    },
    {
      "anonymous": false,
      "inputs": [
        {
          "indexed": false,
          "internalType": "address",
          "name": "account",
          "type": "address"
        }
      ],
      "name": "Paused",
      "type": "event"
    },
    {
      "anonymous": false,
      "inputs": [
        {
          "indexed": true,
          "internalType": "bytes32",
          "name": "role",
          "type": "bytes32"
        },
        {
          "indexed": true,
          "internalType": "bytes32",
          "name": "previousAdminRole",
          "type": "bytes32"
        },
        {
          "indexed": true,
          "internalType": "bytes32",
          "name": "newAdminRole",
          "type": "bytes32"
        }
      ],
      "name": "RoleAdminChanged",
      "type": "event"
    },
    {
      "anonymous": false,
      "inputs": [
        {
          "indexed": true,
          "internalType": "bytes32",
          "name": "role",
          "type": "bytes32"
        },
        {
          "indexed": true,
          "internalType": "address",
          "name": "account",
          "type": "address"
        },
        {
          "indexed": true,
          "internalType": "address",
          "name": "sender",
          "type": "address"
        }
      ],
      "name": "RoleGranted",
      "type": "event"
    },
    {
      "anonymous": false,
      "inputs": [
        {
          "indexed": true,
          "internalType": "bytes32",
          "name": "role",
          "type": "bytes32"
        },
        {
          "indexed": true,
          "internalType": "address",
          "name": "account",
          "type": "address"
        },
        {
          "indexed": true,
          "internalType": "address",
          "name": "sender",
          "type": "address"
        }
      ],
      "name": "RoleRevoked",
      "type": "event"
    },
    {
      "anonymous": false,
      "inputs": [
        {
          "indexed": true,
          "internalType": "uint256",
          "name": "tokenId",
          "type": "uint256"
        },
        {
          "indexed": false,
          "internalType": "uint256",
          "name": "customId",
          "type": "uint256"
        },
        {
          "indexed": false,
          "internalType": "string",
          "name": "value",
          "type": "string"
        }
      ],
      "name": "TextUpdated",
      "type": "event"
    },
    {
      "anonymous": false,
      "inputs": [
        {
          "indexed": true,
          "internalType": "address",
          "name": "from",
          "type": "address"
        },
        {
          "indexed": true,
          "internalType": "address",
          "name": "to",
          "type": "address"
        },
        {
          "indexed": true,
          "internalType": "uint256",
          "name": "tokenId",
          "type": "uint256"
        }
      ],
      "name": "Transfer",
      "type": "event"
    },
    {
      "anonymous": false,
      "inputs": [
        {
          "indexed": false,
          "internalType": "address",
          "name": "account",
          "type": "address"
        }
      ],
      "name": "Unpaused",
      "type": "event"
    },
    {
      "anonymous": false,
      "inputs": [
        {
          "indexed": true,
          "internalType": "uint256",
          "name": "tokenId",
          "type": "uint256"
        },
        {
          "indexed": false,
          "internalType": "uint256",
          "name": "treeId",
          "type": "uint256"
        },
        {
          "indexed": false,
          "internalType": "uint256",
          "name": "skillId",
          "type": "uint256"
        },
        {
          "indexed": false,
          "internalType": "uint256",
          "name": "value",
          "type": "uint256"
        }
      ],
      "name": "ValueUpdated",
      "type": "event"
    },
    {
      "inputs": [],
      "name": "ADMIN_ROLE",
      "outputs": [
        {
          "internalType": "bytes32",
          "name": "",
          "type": "bytes32"
        }
      ],
      "stateMutability": "view",
      "type": "function"
    },
    {
      "inputs": [],
      "name": "CONTRACT_ROLE",
      "outputs": [
        {
          "internalType": "bytes32",
          "name": "",
          "type": "bytes32"
        }
      ],
      "stateMutability": "view",
      "type": "function"
    },
    {
      "inputs": [],
      "name": "DEFAULT_ADMIN_ROLE",
      "outputs": [
        {
          "internalType": "bytes32",
          "name": "",
          "type": "bytes32"
        }
      ],
      "stateMutability": "view",
      "type": "function"
    },
    {
      "inputs": [],
      "name": "MINTER_ROLE",
      "outputs": [
        {
          "internalType": "bytes32",
          "name": "",
          "type": "bytes32"
        }
      ],
      "stateMutability": "view",
      "type": "function"
    },
    {
      "inputs": [
        {
          "internalType": "address",
          "name": "to",
          "type": "address"
        },
        {
          "internalType": "uint256",
          "name": "tokenId",
          "type": "uint256"
        }
      ],
      "name": "approve",
      "outputs": [],
      "stateMutability": "nonpayable",
      "type": "function"
    },
    {
      "inputs": [
        {
          "internalType": "address",
          "name": "owner",
          "type": "address"
        }
      ],
      "name": "balanceOf",
      "outputs": [
        {
          "internalType": "uint256",
          "name": "",
          "type": "uint256"
        }
      ],
      "stateMutability": "view",
      "type": "function"
    },
    {
      "inputs": [
        {
          "internalType": "address",
          "name": "to",
          "type": "address"
        },
        {
          "internalType": "uint256[]",
          "name": "tokenIds",
          "type": "uint256[]"
        }
      ],
      "name": "batchMint",
      "outputs": [],
      "stateMutability": "nonpayable",
      "type": "function"
    },
    {
      "inputs": [
        {
          "internalType": "uint256[]",
          "name": "tokenIds",
          "type": "uint256[]"
        }
      ],
      "name": "batchTokenURI",
      "outputs": [
        {
          "internalType": "string[]",
          "name": "",
          "type": "string[]"
        }
      ],
      "stateMutability": "view",
      "type": "function"
    },
    {
      "inputs": [
        {
          "internalType": "address",
          "name": "from",
          "type": "address"
        },
        {
          "internalType": "address",
          "name": "to",
          "type": "address"
        },
        {
          "internalType": "uint256[]",
          "name": "tokenIds",
          "type": "uint256[]"
        }
      ],
      "name": "batchTransferFrom",
      "outputs": [],
      "stateMutability": "nonpayable",
      "type": "function"
    },
    {
      "inputs": [
        {
          "internalType": "uint256",
          "name": "tokenId",
          "type": "uint256"
        }
      ],
      "name": "burn",
      "outputs": [],
      "stateMutability": "nonpayable",
      "type": "function"
    },
    {
      "inputs": [],
      "name": "getAllTokenIds",
      "outputs": [
        {
          "internalType": "uint256[]",
          "name": "",
          "type": "uint256[]"
        }
      ],
      "stateMutability": "view",
      "type": "function"
    },
    {
      "inputs": [
        {
          "internalType": "uint256",
          "name": "tokenId",
          "type": "uint256"
        }
      ],
      "name": "getApproved",
      "outputs": [
        {
          "internalType": "address",
          "name": "",
          "type": "address"
        }
      ],
      "stateMutability": "view",
      "type": "function"
    },
    {
      "inputs": [
        {
          "internalType": "bytes32",
          "name": "role",
          "type": "bytes32"
        }
      ],
      "name": "getRoleAdmin",
      "outputs": [
        {
          "internalType": "bytes32",
          "name": "",
          "type": "bytes32"
        }
      ],
      "stateMutability": "view",
      "type": "function"
    },
    {
      "inputs": [
        {
          "internalType": "bytes32",
          "name": "role",
          "type": "bytes32"
        },
        {
          "internalType": "uint256",
          "name": "index",
          "type": "uint256"
        }
      ],
      "name": "getRoleMember",
      "outputs": [
        {
          "internalType": "address",
          "name": "",
          "type": "address"
        }
      ],
      "stateMutability": "view",
      "type": "function"
    },
    {
      "inputs": [
        {
          "internalType": "bytes32",
          "name": "role",
          "type": "bytes32"
        }
      ],
      "name": "getRoleMemberCount",
      "outputs": [
        {
          "internalType": "uint256",
          "name": "",
          "type": "uint256"
        }
      ],
      "stateMutability": "view",
      "type": "function"
    },
    {
      "inputs": [
        {
          "internalType": "uint256",
          "name": "tokenId",
          "type": "uint256"
        },
        {
          "internalType": "uint256",
          "name": "treeId",
          "type": "uint256"
        },
        {
          "internalType": "uint256",
          "name": "skillId",
          "type": "uint256"
        }
      ],
      "name": "getSkill",
      "outputs": [
        {
          "internalType": "uint256",
          "name": "value",
          "type": "uint256"
        }
      ],
      "stateMutability": "view",
      "type": "function"
    },
    {
      "inputs": [
        {
          "internalType": "uint256",
          "name": "tokenId",
          "type": "uint256"
        },
        {
          "internalType": "uint256",
          "name": "treeId",
          "type": "uint256"
        },
        {
          "internalType": "uint256[]",
          "name": "skillIds",
          "type": "uint256[]"
        }
      ],
      "name": "getSkillsByTree",
      "outputs": [
        {
          "internalType": "uint256[]",
          "name": "",
          "type": "uint256[]"
        }
      ],
      "stateMutability": "view",
      "type": "function"
    },
    {
      "inputs": [
        {
          "internalType": "uint256",
          "name": "tokenId",
          "type": "uint256"
        },
        {
          "internalType": "uint256",
          "name": "customId",
          "type": "uint256"
        }
      ],
      "name": "getString",
      "outputs": [
        {
          "internalType": "string",
          "name": "value",
          "type": "string"
        }
      ],
      "stateMutability": "view",
      "type": "function"
    },
    {
      "inputs": [
        {
          "internalType": "uint256[]",
          "name": "tokenIds",
          "type": "uint256[]"
        },
        {
          "internalType": "uint256",
          "name": "customId",
          "type": "uint256"
        }
      ],
      "name": "getStringOfTokens",
      "outputs": [
        {
          "internalType": "string[]",
          "name": "",
          "type": "string[]"
        }
      ],
      "stateMutability": "view",
      "type": "function"
    },
    {
      "inputs": [
        {
          "internalType": "uint256",
          "name": "tokenId",
          "type": "uint256"
        },
        {
          "internalType": "uint256[]",
          "name": "customIds",
          "type": "uint256[]"
        }
      ],
      "name": "getStrings",
      "outputs": [
        {
          "internalType": "string[]",
          "name": "",
          "type": "string[]"
        }
      ],
      "stateMutability": "view",
      "type": "function"
    },
    {
      "inputs": [
        {
          "internalType": "bytes32",
          "name": "role",
          "type": "bytes32"
        },
        {
          "internalType": "address",
          "name": "account",
          "type": "address"
        }
      ],
      "name": "grantRole",
      "outputs": [],
      "stateMutability": "nonpayable",
      "type": "function"
    },
    {
      "inputs": [
        {
          "internalType": "bytes32",
          "name": "role",
          "type": "bytes32"
        },
        {
          "internalType": "address",
          "name": "account",
          "type": "address"
        }
      ],
      "name": "hasRole",
      "outputs": [
        {
          "internalType": "bool",
          "name": "",
          "type": "bool"
        }
      ],
      "stateMutability": "view",
      "type": "function"
    },
    {
      "inputs": [],
      "name": "imageBaseURI",
      "outputs": [
        {
          "internalType": "string",
          "name": "",
          "type": "string"
        }
      ],
      "stateMutability": "view",
      "type": "function"
    },
    {
      "inputs": [],
      "name": "initialize",
      "outputs": [],
      "stateMutability": "nonpayable",
      "type": "function"
    },
    {
      "inputs": [
        {
          "internalType": "address",
          "name": "owner",
          "type": "address"
        },
        {
          "internalType": "address",
          "name": "operator",
          "type": "address"
        }
      ],
      "name": "isApprovedForAll",
      "outputs": [
        {
          "internalType": "bool",
          "name": "",
          "type": "bool"
        }
      ],
      "stateMutability": "view",
      "type": "function"
    },
    {
      "inputs": [
        {
          "internalType": "address",
          "name": "to",
          "type": "address"
        },
        {
          "internalType": "uint256",
          "name": "tokenId",
          "type": "uint256"
        }
      ],
      "name": "mint",
      "outputs": [],
      "stateMutability": "nonpayable",
      "type": "function"
    },
    {
      "inputs": [],
      "name": "name",
      "outputs": [
        {
          "internalType": "string",
          "name": "",
          "type": "string"
        }
      ],
      "stateMutability": "view",
      "type": "function"
    },
    {
      "inputs": [
        {
          "internalType": "uint256",
          "name": "tokenId",
          "type": "uint256"
        }
      ],
      "name": "ownerOf",
      "outputs": [
        {
          "internalType": "address",
          "name": "",
          "type": "address"
        }
      ],
      "stateMutability": "view",
      "type": "function"
    },
    {
      "inputs": [],
      "name": "pause",
      "outputs": [],
      "stateMutability": "nonpayable",
      "type": "function"
    },
    {
      "inputs": [],
      "name": "paused",
      "outputs": [
        {
          "internalType": "bool",
          "name": "",
          "type": "bool"
        }
      ],
      "stateMutability": "view",
      "type": "function"
    },
    {
      "inputs": [
        {
          "internalType": "bytes32",
          "name": "role",
          "type": "bytes32"
        },
        {
          "internalType": "address",
          "name": "account",
          "type": "address"
        }
      ],
      "name": "renounceRole",
      "outputs": [],
      "stateMutability": "nonpayable",
      "type": "function"
    },
    {
      "inputs": [
        {
          "internalType": "bytes32",
          "name": "role",
          "type": "bytes32"
        },
        {
          "internalType": "address",
          "name": "account",
          "type": "address"
        }
      ],
      "name": "revokeRole",
      "outputs": [],
      "stateMutability": "nonpayable",
      "type": "function"
    },
    {
      "inputs": [
        {
          "internalType": "address",
          "name": "from",
          "type": "address"
        },
        {
          "internalType": "address",
          "name": "to",
          "type": "address"
        },
        {
          "internalType": "uint256",
          "name": "tokenId",
          "type": "uint256"
        }
      ],
      "name": "safeTransferFrom",
      "outputs": [],
      "stateMutability": "nonpayable",
      "type": "function"
    },
    {
      "inputs": [
        {
          "internalType": "address",
          "name": "from",
          "type": "address"
        },
        {
          "internalType": "address",
          "name": "to",
          "type": "address"
        },
        {
          "internalType": "uint256",
          "name": "tokenId",
          "type": "uint256"
        },
        {
          "internalType": "bytes",
          "name": "data",
          "type": "bytes"
        }
      ],
      "name": "safeTransferFrom",
      "outputs": [],
      "stateMutability": "nonpayable",
      "type": "function"
    },
    {
      "inputs": [
        {
          "internalType": "address",
          "name": "operator",
          "type": "address"
        },
        {
          "internalType": "bool",
          "name": "approved",
          "type": "bool"
        }
      ],
      "name": "setApprovalForAll",
      "outputs": [],
      "stateMutability": "nonpayable",
      "type": "function"
    },
    {
      "inputs": [
        {
          "internalType": "string",
          "name": "_imageBaseURI",
          "type": "string"
        }
      ],
      "name": "setImageBaseURI",
      "outputs": [],
      "stateMutability": "nonpayable",
      "type": "function"
    },
    {
      "inputs": [
        {
          "internalType": "uint256",
          "name": "tokenId",
          "type": "uint256"
        },
        {
          "internalType": "uint256",
          "name": "attrId",
          "type": "uint256"
        },
        {
          "internalType": "uint256",
          "name": "value",
          "type": "uint256"
        }
      ],
      "name": "setTokenURI",
      "outputs": [],
      "stateMutability": "nonpayable",
      "type": "function"
    },
    {
      "inputs": [
        {
          "internalType": "uint256[]",
          "name": "tokenIds",
          "type": "uint256[]"
        },
        {
          "internalType": "uint256[]",
          "name": "attrIds",
          "type": "uint256[]"
        },
        {
          "internalType": "uint256[]",
          "name": "values",
          "type": "uint256[]"
        }
      ],
      "name": "setTokenURIs",
      "outputs": [],
      "stateMutability": "nonpayable",
      "type": "function"
    },
    {
      "inputs": [
        {
          "internalType": "bytes4",
          "name": "interfaceId",
          "type": "bytes4"
        }
      ],
      "name": "supportsInterface",
      "outputs": [
        {
          "internalType": "bool",
          "name": "",
          "type": "bool"
        }
      ],
      "stateMutability": "view",
      "type": "function"
    },
    {
      "inputs": [],
      "name": "symbol",
      "outputs": [
        {
          "internalType": "string",
          "name": "",
          "type": "string"
        }
      ],
      "stateMutability": "view",
      "type": "function"
    },
    {
      "inputs": [
        {
          "internalType": "uint256",
          "name": "index",
          "type": "uint256"
        }
      ],
      "name": "tokenByIndex",
      "outputs": [
        {
          "internalType": "uint256",
          "name": "",
          "type": "uint256"
        }
      ],
      "stateMutability": "view",
      "type": "function"
    },
    {
      "inputs": [
        {
          "internalType": "address",
          "name": "owner",
          "type": "address"
        },
        {
          "internalType": "uint256",
          "name": "index",
          "type": "uint256"
        }
      ],
      "name": "tokenOfOwnerByIndex",
      "outputs": [
        {
          "internalType": "uint256",
          "name": "",
          "type": "uint256"
        }
      ],
      "stateMutability": "view",
      "type": "function"
    },
    {
      "inputs": [
        {
          "internalType": "uint256",
          "name": "tokenId",
          "type": "uint256"
        }
      ],
      "name": "tokenURI",
      "outputs": [
        {
          "internalType": "string",
          "name": "",
          "type": "string"
        }
      ],
      "stateMutability": "view",
      "type": "function"
    },
    {
      "inputs": [
        {
          "internalType": "address",
          "name": "owner",
          "type": "address"
        }
      ],
      "name": "tokensOfOwner",
      "outputs": [
        {
          "internalType": "uint256[]",
          "name": "",
          "type": "uint256[]"
        }
      ],
      "stateMutability": "view",
      "type": "function"
    },
    {
      "inputs": [],
      "name": "totalSupply",
      "outputs": [
        {
          "internalType": "uint256",
          "name": "",
          "type": "uint256"
        }
      ],
      "stateMutability": "view",
      "type": "function"
    },
    {
      "inputs": [
        {
          "internalType": "address",
          "name": "from",
          "type": "address"
        },
        {
          "internalType": "address",
          "name": "to",
          "type": "address"
        },
        {
          "internalType": "uint256",
          "name": "tokenId",
          "type": "uint256"
        }
      ],
      "name": "transferFrom",
      "outputs": [],
      "stateMutability": "nonpayable",
      "type": "function"
    },
    {
      "inputs": [],
      "name": "unpause",
      "outputs": [],
      "stateMutability": "nonpayable",
      "type": "function"
    },
    {
      "inputs": [
        {
          "internalType": "uint256",
          "name": "tokenId",
          "type": "uint256"
        },
        {
          "internalType": "uint256",
          "name": "treeId",
          "type": "uint256"
        },
        {
          "internalType": "uint256",
          "name": "skillId",
          "type": "uint256"
        },
        {
          "internalType": "uint256",
          "name": "value",
          "type": "uint256"
        }
      ],
      "name": "updateSkill",
      "outputs": [],
      "stateMutability": "nonpayable",
      "type": "function"
    },
    {
      "inputs": [
        {
          "internalType": "uint256",
          "name": "tokenId",
          "type": "uint256"
        },
        {
          "internalType": "uint256",
          "name": "customId",
          "type": "uint256"
        },
        {
          "internalType": "string",
          "name": "value",
          "type": "string"
        }
      ],
      "name": "updateString",
      "outputs": [],
      "stateMutability": "nonpayable",
      "type": "function"
    }
  ],
  "bytecode": "0x60806040523480156200001157600080fd5b506200001c62000022565b620000e4565b600054610100900460ff16156200008f5760405162461bcd60e51b815260206004820152602760248201527f496e697469616c697a61626c653a20636f6e747261637420697320696e697469604482015266616c697a696e6760c81b606482015260840160405180910390fd5b60005460ff9081161015620000e2576000805460ff191660ff9081179091556040519081527f7f26b83ff96e1f2b6a682f133852f6798a09c465da95921460cefb38474024989060200160405180910390a15b565b613ea580620000f46000396000f3fe608060405234801561001057600080fd5b50600436106102bb5760003560e01c806370a0823111610182578063b5afb120116100e9578063d5391393116100a2578063e3a829fe1161007c578063e3a829fe1461065a578063e985e9c51461066d578063ed0af209146106a9578063f3993d11146106bc57600080fd5b8063d53913931461061f578063d547741f14610634578063dd69f3f71461064757600080fd5b8063b5afb120146105b8578063b88d4fde146105cb578063bdbed722146105de578063c7e05590146105e6578063c87b56dd146105f9578063ca15c8731461060c57600080fd5b80639010d07c1161013b5780639010d07c1461055c57806391d148541461056f57806395d89b41146105825780639e8afe471461058a578063a217fddf1461059d578063a22cb465146105a557600080fd5b806370a08231146104fc57806375b238fc1461050f57806377645839146105245780638129fc1c1461052c5780638456cb59146105345780638462151c1461053c57600080fd5b806336568abe116102265780634684d7e9116101df5780634684d7e9146104915780634f6ccce7146104a45780635c975abb146104b75780636352211e146104c35780636cfa24cc146104d65780636d94f13a146104e957600080fd5b806336568abe1461040a5780633f4ba83a1461041d57806340c10f191461042557806342842e0e1461043857806342966c681461044b5780634594762a1461045e57600080fd5b806318160ddd1161027857806318160ddd1461038557806323b872dd1461038d578063248a9ca3146103a05780632f2ff15d146103c45780632f745c59146103d7578063352b7533146103ea57600080fd5b806301ffc9a7146102c057806303fe46ab146102e857806306fdde031461031d578063079be49314610332578063081812fc14610345578063095ea7b314610370575b600080fd5b6102d36102ce36600461302d565b6106cf565b60405190151581526020015b60405180910390f35b61030f7f364d3d7565c7a8300c96fd53e065d19b65848d7b23b3191adcd55621c744223c81565b6040519081526020016102df565b6103256106e0565b6040516102df91906130a2565b6103256103403660046130b5565b610772565b6103586103533660046130d7565b610821565b6040516001600160a01b0390911681526020016102df565b61038361037e36600461310c565b610848565b005b60995461030f565b61038361039b366004613136565b610963565b61030f6103ae3660046130d7565b600090815261015f602052604090206001015490565b6103836103d2366004613172565b610995565b61030f6103e536600461310c565b6109bb565b6103fd6103f8366004613263565b610a51565b6040516102df91906132a7565b610383610418366004613172565b610baf565b610383610c2d565b61038361043336600461310c565b610c50565b610383610446366004613136565b610c72565b6103836104593660046130d7565b610c8d565b61030f61046c366004613309565b600092835261025c602090815260408085209385529281528284209184525290205490565b61038361049f366004613335565b610cc8565b61030f6104b23660046130d7565b610d27565b61012d5460ff166102d3565b6103586104d13660046130d7565b610dba565b6103836104e43660046133f9565b610e1a565b6103fd6104f736600461342d565b610e45565b61030f61050a366004613461565b610efd565b61030f600080516020613e5083398151915281565b610325610f83565b610383611011565b6103836111c7565b61054f61054a366004613461565b6111e7565b6040516102df919061347c565b61035861056a3660046130b5565b611280565b6102d361057d366004613172565b6112a0565b6103256112cc565b6103fd6105983660046134c0565b6112db565b61030f600081565b6103836105b33660046134f0565b611431565b6103836105c636600461352c565b61143c565b6103836105d936600461355e565b6114d3565b61054f611505565b61054f6105f43660046135d9565b6115ef565b6103256106073660046130d7565b6116c4565b61030f61061a3660046130d7565b6117ed565b61030f600080516020613e3083398151915281565b610383610642366004613172565b611805565b610383610655366004613628565b61182b565b610383610668366004613309565b6118de565b6102d361067b3660046136a5565b6001600160a01b039182166000908152606a6020908152604080832093909416825291909152205460ff1690565b6103836106b73660046136cf565b611914565b6103836106ca366004613714565b6119a7565b60006106da826119e9565b92915050565b6060606580546106ef9061375b565b80601f016020809104026020016040519081016040528092919081815260200182805461071b9061375b565b80156107685780601f1061073d57610100808354040283529160200191610768565b820191906000526020600020905b81548152906001019060200180831161074b57829003601f168201915b5050505050905090565b600082815261025d60209081526040808320848452909152902080546060919061079b9061375b565b80601f01602080910402602001604051908101604052809291908181526020018280546107c79061375b565b80156108145780601f106107e957610100808354040283529160200191610814565b820191906000526020600020905b8154815290600101906020018083116107f757829003601f168201915b5050505050905092915050565b600061082c826119f4565b506000908152606960205260409020546001600160a01b031690565b600061085382610dba565b9050806001600160a01b0316836001600160a01b031614156108c65760405162461bcd60e51b815260206004820152602160248201527f4552433732313a20617070726f76616c20746f2063757272656e74206f776e656044820152603960f91b60648201526084015b60405180910390fd5b336001600160a01b03821614806108e257506108e2813361067b565b6109545760405162461bcd60e51b815260206004820152603e60248201527f4552433732313a20617070726f76652063616c6c6572206973206e6f7420746f60448201527f6b656e206f776e6572206e6f7220617070726f76656420666f7220616c6c000060648201526084016108bd565b61095e8383611a44565b505050565b61096e335b82611ab2565b61098a5760405162461bcd60e51b81526004016108bd90613796565b61095e838383611b31565b600082815261015f60205260409020600101546109b181611cd8565b61095e8383611ce2565b60006109c683610efd565b8210610a285760405162461bcd60e51b815260206004820152602b60248201527f455243373231456e756d657261626c653a206f776e657220696e646578206f7560448201526a74206f6620626f756e647360a81b60648201526084016108bd565b506001600160a01b03919091166000908152609760209081526040808320938352929052205490565b6060600083516001600160401b03811115610a6e57610a6e61319e565b604051908082528060200260200182016040528015610aa157816020015b6060815260200190600190039081610a8c5790505b50905060005b8451811015610ba75761025d6000868381518110610ac757610ac76137e4565b6020026020010151815260200190815260200160002060008581526020019081526020016000208054610af99061375b565b80601f0160208091040260200160405190810160405280929190818152602001828054610b259061375b565b8015610b725780601f10610b4757610100808354040283529160200191610b72565b820191906000526020600020905b815481529060010190602001808311610b5557829003601f168201915b5050505050828281518110610b8957610b896137e4565b60200260200101819052508080610b9f90613810565b915050610aa7565b509392505050565b6001600160a01b0381163314610c1f5760405162461bcd60e51b815260206004820152602f60248201527f416363657373436f6e74726f6c3a2063616e206f6e6c792072656e6f756e636560448201526e103937b632b9903337b91039b2b63360891b60648201526084016108bd565b610c298282611d05565b5050565b600080516020613e50833981519152610c4581611cd8565b610c4d611d28565b50565b600080516020613e30833981519152610c6881611cd8565b61095e8383611d7b565b61095e838383604051806020016040528060008152506114d3565b610c9633610968565b610cb25760405162461bcd60e51b81526004016108bd90613796565b610cbe6101f582611d95565b50610c4d81611da1565b600080516020613e30833981519152610ce081611cd8565b60005b8251811015610d2157610d0f84848381518110610d0257610d026137e4565b6020026020010151611d7b565b80610d1981613810565b915050610ce3565b50505050565b6000610d3260995490565b8210610d955760405162461bcd60e51b815260206004820152602c60248201527f455243373231456e756d657261626c653a20676c6f62616c20696e646578206f60448201526b7574206f6620626f756e647360a01b60648201526084016108bd565b60998281548110610da857610da86137e4565b90600052602060002001549050919050565b6000818152606760205260408120546001600160a01b0316806106da5760405162461bcd60e51b8152602060048201526018602482015277115490cdcc8c4e881a5b9d985b1a59081d1bdad95b88125160421b60448201526064016108bd565b600080516020613e50833981519152610e3281611cd8565b815161095e9060fc906020850190612f48565b6060600082516001600160401b03811115610e6257610e6261319e565b604051908082528060200260200182016040528015610e9557816020015b6060815260200190600190039081610e805790505b50905060005b8351811015610ef657610ec6848281518110610eb957610eb96137e4565b60200260200101516116c4565b828281518110610ed857610ed86137e4565b60200260200101819052508080610eee90613810565b915050610e9b565b5092915050565b60006001600160a01b038216610f675760405162461bcd60e51b815260206004820152602960248201527f4552433732313a2061646472657373207a65726f206973206e6f7420612076616044820152683634b21037bbb732b960b91b60648201526084016108bd565b506001600160a01b031660009081526068602052604090205490565b60fc8054610f909061375b565b80601f0160208091040260200160405190810160405280929190818152602001828054610fbc9061375b565b80156110095780601f10610fde57610100808354040283529160200191611009565b820191906000526020600020905b815481529060010190602001808311610fec57829003601f168201915b505050505081565b600054610100900460ff16158080156110315750600054600160ff909116105b8061104b5750303b15801561104b575060005460ff166001145b6110ae5760405162461bcd60e51b815260206004820152602e60248201527f496e697469616c697a61626c653a20636f6e747261637420697320616c72656160448201526d191e481a5b9a5d1a585b1a5e995960921b60648201526084016108bd565b6000805460ff1916600117905580156110d1576000805461ff0019166101001790555b61111c6040518060400160405280600c81526020016b10dbdcdb5a58d25cdb185b9960a21b8152506040518060400160405280600581526020016410d310539160da1b815250611de1565b611124611e12565b61112c611e43565b611134611e6a565b61113c611e43565b611144611e12565b61114f600033611ce2565b611167600080516020613e5083398151915233611ce2565b61117f600080516020613e3083398151915233611ce2565b8015610c4d576000805461ff0019169055604051600181527f7f26b83ff96e1f2b6a682f133852f6798a09c465da95921460cefb38474024989060200160405180910390a150565b600080516020613e508339815191526111df81611cd8565b610c4d611e99565b606060006111f483610efd565b90506000816001600160401b038111156112105761121061319e565b604051908082528060200260200182016040528015611239578160200160208202803683370190505b50905060005b82811015610ba75761125185826109bb565b828281518110611263576112636137e4565b60209081029190910101528061127881613810565b91505061123f565b6000828152610191602052604081206112999083611ed7565b9392505050565b600091825261015f602090815260408084206001600160a01b0393909316845291905290205460ff1690565b6060606680546106ef9061375b565b6060600082516001600160401b038111156112f8576112f861319e565b60405190808252806020026020018201604052801561132b57816020015b60608152602001906001900390816113165790505b50905060005b8351811015610ba75761025d60008681526020019081526020016000206000858381518110611362576113626137e4565b6020026020010151815260200190815260200160002080546113839061375b565b80601f01602080910402602001604051908101604052809291908181526020018280546113af9061375b565b80156113fc5780601f106113d1576101008083540402835291602001916113fc565b820191906000526020600020905b8154815290600101906020018083116113df57829003601f168201915b5050505050828281518110611413576114136137e4565b6020026020010181905250808061142990613810565b915050611331565b610c29338383611ee3565b7f364d3d7565c7a8300c96fd53e065d19b65848d7b23b3191adcd55621c744223c61146681611cd8565b600085815261025c602090815260408083208784528252808320868452825291829020849055815186815290810185905290810183905285907fc3bdb5f4a3cbb68ce4ebe3dda3660f3067add044dc5be3a047d818fd416663699060600160405180910390a25050505050565b6114dd3383611ab2565b6114f95760405162461bcd60e51b81526004016108bd90613796565b610d2184848484611fb2565b6060600060015b6127108110156115445761151f81611fe5565b15611532578161152e81613810565b9250505b8061153c81613810565b91505061150c565b506000816001600160401b0381111561155f5761155f61319e565b604051908082528060200260200182016040528015611588578160200160208202803683370190505b509050600060015b6127108110156115e6576115a381611fe5565b156115d457808383815181106115bb576115bb6137e4565b6020908102919091010152816115d081613810565b9250505b806115de81613810565b915050611590565b50909392505050565b6060600082516001600160401b0381111561160c5761160c61319e565b604051908082528060200260200182016040528015611635578160200160208202803683370190505b50905060005b83518110156116bb57600086815261025c6020908152604080832088845290915281208551909190869084908110611675576116756137e4565b602002602001015181526020019081526020016000205482828151811061169e5761169e6137e4565b6020908102919091010152806116b381613810565b91505061163b565b50949350505050565b600081815261025b60209081526040808320838052909152808220546001835281832054600284529183205460609391929160fc61170187611ff0565b604051602001611712929190613847565b6040516020818303038152906040529050600061172e87611ff0565b826040516020016117409291906138ee565b6040516020818303038152906040529050600061175c86611ff0565b61176586611ff0565b61176e86611ff0565b604051602001611780939291906139b8565b6040516020818303038152906040529050600082826040516020016117a6929190613b1f565b60405160208183030381529060405290506117c0816120ed565b6040516020016117d09190613b6c565b604051602081830303815290604052975050505050505050919050565b6000818152610191602052604081206106da90612240565b600082815261015f602052604090206001015461182181611cd8565b61095e8383611d05565b600080516020613e5083398151915261184381611cd8565b60005b84518110156118d757828181518110611861576118616137e4565b602002602001015161025b6000878481518110611880576118806137e4565b6020026020010151815260200190815260200160002060008684815181106118aa576118aa6137e4565b602002602001015181526020019081526020016000208190555080806118cf90613810565b915050611846565b5050505050565b600080516020613e508339815191526118f681611cd8565b50600092835261025b60209081526040808520938552929052912055565b7f364d3d7565c7a8300c96fd53e065d19b65848d7b23b3191adcd55621c744223c61193e81611cd8565b600084815261025d602090815260408083208684528252909120835161196692850190612f48565b50837fbf91c112c44cd8e958afe3106b290f594b5e23b83fcc88bdb9ac5da7f00be5698484604051611999929190613bb1565b60405180910390a250505050565b60005b8151811015610d21576119d784848484815181106119ca576119ca6137e4565b6020026020010151610963565b806119e181613810565b9150506119aa565b60006106da8261224a565b6119fd81611fe5565b610c4d5760405162461bcd60e51b8152602060048201526018602482015277115490cdcc8c4e881a5b9d985b1a59081d1bdad95b88125160421b60448201526064016108bd565b600081815260696020526040902080546001600160a01b0319166001600160a01b0384169081179091558190611a7982610dba565b6001600160a01b03167f8c5be1e5ebec7d5bd14f71427d1e84f3dd0314c0f7b2291e5b200ac8c7c3b92560405160405180910390a45050565b600080611abe83610dba565b9050806001600160a01b0316846001600160a01b03161480611b0557506001600160a01b038082166000908152606a602090815260408083209388168352929052205460ff165b80611b295750836001600160a01b0316611b1e84610821565b6001600160a01b0316145b949350505050565b826001600160a01b0316611b4482610dba565b6001600160a01b031614611ba85760405162461bcd60e51b815260206004820152602560248201527f4552433732313a207472616e736665722066726f6d20696e636f72726563742060448201526437bbb732b960d91b60648201526084016108bd565b6001600160a01b038216611c0a5760405162461bcd60e51b8152602060048201526024808201527f4552433732313a207472616e7366657220746f20746865207a65726f206164646044820152637265737360e01b60648201526084016108bd565b611c1583838361226f565b611c20600082611a44565b6001600160a01b0383166000908152606860205260408120805460019290611c49908490613bca565b90915550506001600160a01b0382166000908152606860205260408120805460019290611c77908490613be1565b909155505060008181526067602052604080822080546001600160a01b0319166001600160a01b0386811691821790925591518493918716917fddf252ad1be2c89b69c2b068fc378daa952ba7f163c4a11628f55a4df523b3ef91a4505050565b610c4d8133612322565b611cec8282612386565b60008281526101916020526040902061095e908261240d565b611d0f8282612422565b60008281526101916020526040902061095e908261248a565b611d3061249f565b61012d805460ff191690557f5db9ee0a495bf2e6ff9c91a7834c1ba4fdd244a5e8aa4e537bd38aeae4b073aa335b6040516001600160a01b03909116815260200160405180910390a1565b610c298282604051806020016040528060008152506124e9565b6000611299838361251c565b611daa8161256b565b600081815260fb602052604090208054611dc39061375b565b159050610c4d57600081815260fb60205260408120610c4d91612fcc565b600054610100900460ff16611e085760405162461bcd60e51b81526004016108bd90613bf9565b610c298282612612565b600054610100900460ff16611e395760405162461bcd60e51b81526004016108bd90613bf9565b611e41611e43565b565b600054610100900460ff16611e415760405162461bcd60e51b81526004016108bd90613bf9565b600054610100900460ff16611e915760405162461bcd60e51b81526004016108bd90613bf9565b611e41612660565b611ea1612694565b61012d805460ff191660011790557f62e78cea01bee320cd4e420270b5ea74000d11b0c9f74754ebdbfc544b05a258611d5e3390565b600061129983836126db565b816001600160a01b0316836001600160a01b03161415611f455760405162461bcd60e51b815260206004820152601960248201527f4552433732313a20617070726f766520746f2063616c6c65720000000000000060448201526064016108bd565b6001600160a01b038381166000818152606a6020908152604080832094871680845294825291829020805460ff191686151590811790915591519182527f17307eab39ab6107e8899845ad3d59bd9653f200f220920489ca2b5937696c31910160405180910390a3505050565b611fbd848484611b31565b611fc984848484612705565b610d215760405162461bcd60e51b81526004016108bd90613c44565b60006106da82612812565b6060816120145750506040805180820190915260018152600360fc1b602082015290565b8160005b811561203e578061202881613810565b91506120379050600a83613cac565b9150612018565b6000816001600160401b038111156120585761205861319e565b6040519080825280601f01601f191660200182016040528015612082576020820181803683370190505b5090505b8415611b2957612097600183613bca565b91506120a4600a86613cc0565b6120af906030613be1565b60f81b8183815181106120c4576120c46137e4565b60200101906001600160f81b031916908160001a9053506120e6600a86613cac565b9450612086565b606081516000141561210d57505060408051602081019091526000815290565b6000604051806060016040528060408152602001613df0604091399050600060038451600261213c9190613be1565b6121469190613cac565b612151906004613cd4565b6001600160401b038111156121685761216861319e565b6040519080825280601f01601f191660200182016040528015612192576020820181803683370190505b509050600182016020820185865187015b808210156121fe576003820191508151603f8160121c168501518453600184019350603f81600c1c168501518453600184019350603f8160061c168501518453600184019350603f81168501518453506001830192506121a3565b505060038651066001811461221a576002811461222d57612235565b603d6001830353603d6002830353612235565b603d60018303535b509195945050505050565b60006106da825490565b60006001600160e01b03198216635a05180f60e01b14806106da57506106da8261283e565b612277612694565b8261228461025982612863565b156122c75760405162461bcd60e51b8152602060048201526013602482015272426c61636b6c6973746564206164647265737360681b60448201526064016108bd565b826122d461025982612863565b156123175760405162461bcd60e51b8152602060048201526013602482015272426c61636b6c6973746564206164647265737360681b60448201526064016108bd565b6118d7858585612885565b61232c82826112a0565b610c2957612344816001600160a01b03166014612890565b61234f836020612890565b604051602001612360929190613cf3565b60408051601f198184030181529082905262461bcd60e51b82526108bd916004016130a2565b61239082826112a0565b610c2957600082815261015f602090815260408083206001600160a01b03851684529091529020805460ff191660011790556123c93390565b6001600160a01b0316816001600160a01b0316837f2f8788117e7eff1d82e926ec794901d17c78024a50270940304540a733656f0d60405160405180910390a45050565b6000611299836001600160a01b03841661251c565b61242c82826112a0565b15610c2957600082815261015f602090815260408083206001600160a01b0385168085529252808320805460ff1916905551339285917ff6391f5c32d9c69d2a47ea670b442974b53935d1edc7fd64eb21e047a839171b9190a45050565b6000611299836001600160a01b038416612a2b565b61012d5460ff16611e415760405162461bcd60e51b815260206004820152601460248201527314185d5cd8589b194e881b9bdd081c185d5cd95960621b60448201526064016108bd565b6124f38383612b1e565b6125006000848484612705565b61095e5760405162461bcd60e51b81526004016108bd90613c44565b6000818152600183016020526040812054612563575081546001818101845560008481526020808220909301849055845484825282860190935260409020919091556106da565b5060006106da565b600061257682610dba565b90506125848160008461226f565b61258f600083611a44565b6001600160a01b03811660009081526068602052604081208054600192906125b8908490613bca565b909155505060008281526067602052604080822080546001600160a01b0319169055518391906001600160a01b038416907fddf252ad1be2c89b69c2b068fc378daa952ba7f163c4a11628f55a4df523b3ef908390a45050565b600054610100900460ff166126395760405162461bcd60e51b81526004016108bd90613bf9565b815161264c906065906020850190612f48565b50805161095e906066906020840190612f48565b600054610100900460ff166126875760405162461bcd60e51b81526004016108bd90613bf9565b61012d805460ff19169055565b61012d5460ff1615611e415760405162461bcd60e51b815260206004820152601060248201526f14185d5cd8589b194e881c185d5cd95960821b60448201526064016108bd565b60008260000182815481106126f2576126f26137e4565b9060005260206000200154905092915050565b60006001600160a01b0384163b1561280757604051630a85bd0160e11b81526001600160a01b0385169063150b7a0290612749903390899088908890600401613d68565b602060405180830381600087803b15801561276357600080fd5b505af1925050508015612793575060408051601f3d908101601f1916820190925261279091810190613da5565b60015b6127ed573d8080156127c1576040519150601f19603f3d011682016040523d82523d6000602084013e6127c6565b606091505b5080516127e55760405162461bcd60e51b81526004016108bd90613c44565b805181602001fd5b6001600160e01b031916630a85bd0160e11b149050611b29565b506001949350505050565b6000818152606760205260408120546001600160a01b03161515806106da57506106da6101f583612c5d565b60006001600160e01b03198216637965db0b60e01b14806106da57506106da82612c75565b6001600160a01b03811660009081526001830160205260408120541515611299565b61095e838383612c80565b6060600061289f836002613cd4565b6128aa906002613be1565b6001600160401b038111156128c1576128c161319e565b6040519080825280601f01601f1916602001820160405280156128eb576020820181803683370190505b509050600360fc1b81600081518110612906576129066137e4565b60200101906001600160f81b031916908160001a905350600f60fb1b81600181518110612935576129356137e4565b60200101906001600160f81b031916908160001a9053506000612959846002613cd4565b612964906001613be1565b90505b60018111156129dc576f181899199a1a9b1b9c1cb0b131b232b360811b85600f1660108110612998576129986137e4565b1a60f81b8282815181106129ae576129ae6137e4565b60200101906001600160f81b031916908160001a90535060049490941c936129d581613dc2565b9050612967565b5083156112995760405162461bcd60e51b815260206004820181905260248201527f537472696e67733a20686578206c656e67746820696e73756666696369656e7460448201526064016108bd565b60008181526001830160205260408120548015612b14576000612a4f600183613bca565b8554909150600090612a6390600190613bca565b9050818114612ac8576000866000018281548110612a8357612a836137e4565b9060005260206000200154905080876000018481548110612aa657612aa66137e4565b6000918252602080832090910192909255918252600188019052604090208390555b8554869080612ad957612ad9613dd9565b6001900381819060005260206000200160009055905585600101600086815260200190815260200160002060009055600193505050506106da565b60009150506106da565b6001600160a01b038216612b745760405162461bcd60e51b815260206004820181905260248201527f4552433732313a206d696e7420746f20746865207a65726f206164647265737360448201526064016108bd565b612b7d81611fe5565b15612bca5760405162461bcd60e51b815260206004820152601c60248201527f4552433732313a20746f6b656e20616c7265616479206d696e7465640000000060448201526064016108bd565b612bd66000838361226f565b6001600160a01b0382166000908152606860205260408120805460019290612bff908490613be1565b909155505060008181526067602052604080822080546001600160a01b0319166001600160a01b03861690811790915590518392907fddf252ad1be2c89b69c2b068fc378daa952ba7f163c4a11628f55a4df523b3ef908290a45050565b60008181526001830160205260408120541515611299565b60006106da82612c8b565b61095e838383612cb0565b60006001600160e01b0319821663780e9d6360e01b14806106da57506106da82612d68565b6001600160a01b038316612d0b57612d0681609980546000838152609a60205260408120829055600182018355919091527f72a152ddfb8e864297c917af52ea6c1c68aead0fee1a62673fcc7e0c94979d000155565b612d2e565b816001600160a01b0316836001600160a01b031614612d2e57612d2e8382612db8565b6001600160a01b038216612d455761095e81612e55565b826001600160a01b0316826001600160a01b03161461095e5761095e8282612f04565b60006001600160e01b031982166380ac58cd60e01b1480612d9957506001600160e01b03198216635b5e139f60e01b145b806106da57506301ffc9a760e01b6001600160e01b03198316146106da565b60006001612dc584610efd565b612dcf9190613bca565b600083815260986020526040902054909150808214612e22576001600160a01b03841660009081526097602090815260408083208584528252808320548484528184208190558352609890915290208190555b5060009182526098602090815260408084208490556001600160a01b039094168352609781528383209183525290812055565b609954600090612e6790600190613bca565b6000838152609a602052604081205460998054939450909284908110612e8f57612e8f6137e4565b906000526020600020015490508060998381548110612eb057612eb06137e4565b6000918252602080832090910192909255828152609a90915260408082208490558582528120556099805480612ee857612ee8613dd9565b6001900381819060005260206000200160009055905550505050565b6000612f0f83610efd565b6001600160a01b039093166000908152609760209081526040808320868452825280832085905593825260989052919091209190915550565b828054612f549061375b565b90600052602060002090601f016020900481019282612f765760008555612fbc565b82601f10612f8f57805160ff1916838001178555612fbc565b82800160010185558215612fbc579182015b82811115612fbc578251825591602001919060010190612fa1565b50612fc8929150613002565b5090565b508054612fd89061375b565b6000825580601f10612fe8575050565b601f016020900490600052602060002090810190610c4d91905b5b80821115612fc85760008155600101613003565b6001600160e01b031981168114610c4d57600080fd5b60006020828403121561303f57600080fd5b813561129981613017565b60005b8381101561306557818101518382015260200161304d565b83811115610d215750506000910152565b6000815180845261308e81602086016020860161304a565b601f01601f19169290920160200192915050565b6020815260006112996020830184613076565b600080604083850312156130c857600080fd5b50508035926020909101359150565b6000602082840312156130e957600080fd5b5035919050565b80356001600160a01b038116811461310757600080fd5b919050565b6000806040838503121561311f57600080fd5b613128836130f0565b946020939093013593505050565b60008060006060848603121561314b57600080fd5b613154846130f0565b9250613162602085016130f0565b9150604084013590509250925092565b6000806040838503121561318557600080fd5b82359150613195602084016130f0565b90509250929050565b634e487b7160e01b600052604160045260246000fd5b604051601f8201601f191681016001600160401b03811182821017156131dc576131dc61319e565b604052919050565b600082601f8301126131f557600080fd5b813560206001600160401b038211156132105761321061319e565b8160051b61321f8282016131b4565b928352848101820192828101908785111561323957600080fd5b83870192505b848310156132585782358252918301919083019061323f565b979650505050505050565b6000806040838503121561327657600080fd5b82356001600160401b0381111561328c57600080fd5b613298858286016131e4565b95602094909401359450505050565b6000602080830181845280855180835260408601915060408160051b870101925083870160005b828110156132fc57603f198886030184526132ea858351613076565b945092850192908501906001016132ce565b5092979650505050505050565b60008060006060848603121561331e57600080fd5b505081359360208301359350604090920135919050565b6000806040838503121561334857600080fd5b613351836130f0565b915060208301356001600160401b0381111561336c57600080fd5b613378858286016131e4565b9150509250929050565b60006001600160401b0383111561339b5761339b61319e565b6133ae601f8401601f19166020016131b4565b90508281528383830111156133c257600080fd5b828260208301376000602084830101529392505050565b600082601f8301126133ea57600080fd5b61129983833560208501613382565b60006020828403121561340b57600080fd5b81356001600160401b0381111561342157600080fd5b611b29848285016133d9565b60006020828403121561343f57600080fd5b81356001600160401b0381111561345557600080fd5b611b29848285016131e4565b60006020828403121561347357600080fd5b611299826130f0565b6020808252825182820181905260009190848201906040850190845b818110156134b457835183529284019291840191600101613498565b50909695505050505050565b600080604083850312156134d357600080fd5b8235915060208301356001600160401b0381111561336c57600080fd5b6000806040838503121561350357600080fd5b61350c836130f0565b91506020830135801515811461352157600080fd5b809150509250929050565b6000806000806080858703121561354257600080fd5b5050823594602084013594506040840135936060013592509050565b6000806000806080858703121561357457600080fd5b61357d856130f0565b935061358b602086016130f0565b92506040850135915060608501356001600160401b038111156135ad57600080fd5b8501601f810187136135be57600080fd5b6135cd87823560208401613382565b91505092959194509250565b6000806000606084860312156135ee57600080fd5b833592506020840135915060408401356001600160401b0381111561361257600080fd5b61361e868287016131e4565b9150509250925092565b60008060006060848603121561363d57600080fd5b83356001600160401b038082111561365457600080fd5b613660878388016131e4565b9450602086013591508082111561367657600080fd5b613682878388016131e4565b9350604086013591508082111561369857600080fd5b5061361e868287016131e4565b600080604083850312156136b857600080fd5b6136c1836130f0565b9150613195602084016130f0565b6000806000606084860312156136e457600080fd5b833592506020840135915060408401356001600160401b0381111561370857600080fd5b61361e868287016133d9565b60008060006060848603121561372957600080fd5b613732846130f0565b9250613740602085016130f0565b915060408401356001600160401b0381111561361257600080fd5b600181811c9082168061376f57607f821691505b6020821081141561379057634e487b7160e01b600052602260045260246000fd5b50919050565b6020808252602e908201527f4552433732313a2063616c6c6572206973206e6f7420746f6b656e206f776e6560408201526d1c881b9bdc88185c1c1c9bdd995960921b606082015260800190565b634e487b7160e01b600052603260045260246000fd5b634e487b7160e01b600052601160045260246000fd5b6000600019821415613824576138246137fa565b5060010190565b6000815161383d81856020860161304a565b9290920192915050565b600080845481600182811c91508083168061386357607f831692505b602080841082141561388357634e487b7160e01b86526022600452602486fd5b81801561389757600181146138a8576138d5565b60ff198616895284890196506138d5565b60008b81526020902060005b868110156138cd5781548b8201529085019083016138b4565b505084890196505b5050505050506138e5818561382b565b95945050505050565b7f226e616d65223a2022436f736d69632049736c616e64204c616e6420506c6f74815261202360f01b60208201526000835161393181602285016020880161304a565b6201116160ed1b60229184019182018190527f226465736372697074696f6e223a20224c616e6420706c6f74206f6e20436f7360258301526c036b4b19024b9b630b73211161609d1b6045830152691134b6b0b3b2911d101160b11b605283015284516139a581605c85016020890161304a565b605c920191820152605f01949350505050565b6e2261747472696275746573223a205b60881b81526000607b60f81b80600f8401527f2274726169745f74797065223a20226c61746974756465222c200000000000006010840152680113b30b63ab2911d160bd1b80602a8501528651613a26816033870160208b0161304a565b80850190506203e96160ed1b60338201528260368201527f2274726169745f74797065223a20226c6f6e676974756465222c200000000000603782015281605282015286519250613a7e83605b830160208a0161304a565b613b13613b06613af9613af3613ade613ab5613aa8605b8a8901016203e96160ed1b815260030190565b607b60f81b815260010190565b7f2274726169745f74797065223a2022726567696f6e222c200000000000000000815260180190565b680113b30b63ab2911d160bd1b815260090190565b8961382b565b607d60f81b815260010190565b605d60f81b815260010190565b98975050505050505050565b607b60f81b815260008351613b3b81600185016020880161304a565b835190830190613b5281600184016020880161304a565b607d60f81b60019290910191820152600201949350505050565b7f646174613a6170706c69636174696f6e2f6a736f6e3b6261736536342c000000815260008251613ba481601d85016020870161304a565b91909101601d0192915050565b828152604060208201526000611b296040830184613076565b600082821015613bdc57613bdc6137fa565b500390565b60008219821115613bf457613bf46137fa565b500190565b6020808252602b908201527f496e697469616c697a61626c653a20636f6e7472616374206973206e6f74206960408201526a6e697469616c697a696e6760a81b606082015260800190565b60208082526032908201527f4552433732313a207472616e7366657220746f206e6f6e20455243373231526560408201527131b2b4bb32b91034b6b83632b6b2b73a32b960711b606082015260800190565b634e487b7160e01b600052601260045260246000fd5b600082613cbb57613cbb613c96565b500490565b600082613ccf57613ccf613c96565b500690565b6000816000190483118215151615613cee57613cee6137fa565b500290565b7f416363657373436f6e74726f6c3a206163636f756e7420000000000000000000815260008351613d2b81601785016020880161304a565b7001034b99036b4b9b9b4b733903937b6329607d1b6017918401918201528351613d5c81602884016020880161304a565b01602801949350505050565b6001600160a01b0385811682528416602082015260408101839052608060608201819052600090613d9b90830184613076565b9695505050505050565b600060208284031215613db757600080fd5b815161129981613017565b600081613dd157613dd16137fa565b506000190190565b634e487b7160e01b600052603160045260246000fdfe4142434445464748494a4b4c4d4e4f505152535455565758595a6162636465666768696a6b6c6d6e6f707172737475767778797a303132333435363738392b2f9f2df0fed2c77648de5860a4cc508cd0818c85b8b8a1ab4ceeef8d981c8956a6a49807205ce4d355092ef5a8a18f56e8913cf4a201fbe287825b095693c21775a26469706673582212206554de230abec0357fa6cb68e425b84ffa255d72effda5644456b28e865dc36c64736f6c63430008090033",
  "linkReferences": {},
  "deployedLinkReferences": {}
}