{
  "_format": "hh-sol-artifact-1",
  "contractName": "CosmicIslandLandUpgradeable",
  "sourceName": "contracts/upgradeable/ERC721/CosmicIslandLandUpgradeable.sol",
  "abi": [
    {
      "inputs": [],
      "stateMutability": "nonpayable",
      "type": "constructor"
    },
    {
      "anonymous": false,
      "inputs": [
        {
          "indexed": true,
          "internalType": "address",
          "name": "owner",
          "type": "address"
        },
        {
          "indexed": true,
          "internalType": "address",
          "name": "approved",
          "type": "address"
        },
        {
          "indexed": true,
          "internalType": "uint256",
          "name": "tokenId",
          "type": "uint256"
        }
      ],
      "name": "Approval",
      "type": "event"
    },
    {
      "anonymous": false,
      "inputs": [
        {
          "indexed": true,
          "internalType": "address",
          "name": "owner",
          "type": "address"
        },
        {
          "indexed": true,
          "internalType": "address",
          "name": "operator",
          "type": "address"
        },
        {
          "indexed": false,
          "internalType": "bool",
          "name": "approved",
          "type": "bool"
        }
      ],
      "name": "ApprovalForAll",
      "type": "event"
    },
    {
      "anonymous": false,
      "inputs": [
        {
          "indexed": false,
          "internalType": "uint8",
          "name": "version",
          "type": "uint8"
        }
      ],
      "name": "Initialized",
      "type": "event"
    },
    {
      "anonymous": false,
      "inputs": [
        {
          "indexed": false,
          "internalType": "address",
          "name": "account",
          "type": "address"
        }
      ],
      "name": "Paused",
      "type": "event"
    },
    {
      "anonymous": false,
      "inputs": [
        {
          "indexed": true,
          "internalType": "bytes32",
          "name": "role",
          "type": "bytes32"
        },
        {
          "indexed": true,
          "internalType": "bytes32",
          "name": "previousAdminRole",
          "type": "bytes32"
        },
        {
          "indexed": true,
          "internalType": "bytes32",
          "name": "newAdminRole",
          "type": "bytes32"
        }
      ],
      "name": "RoleAdminChanged",
      "type": "event"
    },
    {
      "anonymous": false,
      "inputs": [
        {
          "indexed": true,
          "internalType": "bytes32",
          "name": "role",
          "type": "bytes32"
        },
        {
          "indexed": true,
          "internalType": "address",
          "name": "account",
          "type": "address"
        },
        {
          "indexed": true,
          "internalType": "address",
          "name": "sender",
          "type": "address"
        }
      ],
      "name": "RoleGranted",
      "type": "event"
    },
    {
      "anonymous": false,
      "inputs": [
        {
          "indexed": true,
          "internalType": "bytes32",
          "name": "role",
          "type": "bytes32"
        },
        {
          "indexed": true,
          "internalType": "address",
          "name": "account",
          "type": "address"
        },
        {
          "indexed": true,
          "internalType": "address",
          "name": "sender",
          "type": "address"
        }
      ],
      "name": "RoleRevoked",
      "type": "event"
    },
    {
      "anonymous": false,
      "inputs": [
        {
          "indexed": true,
          "internalType": "uint256",
          "name": "tokenId",
          "type": "uint256"
        },
        {
          "indexed": false,
          "internalType": "uint256",
          "name": "customId",
          "type": "uint256"
        },
        {
          "indexed": false,
          "internalType": "string",
          "name": "value",
          "type": "string"
        }
      ],
      "name": "TextUpdated",
      "type": "event"
    },
    {
      "anonymous": false,
      "inputs": [
        {
          "indexed": true,
          "internalType": "address",
          "name": "from",
          "type": "address"
        },
        {
          "indexed": true,
          "internalType": "address",
          "name": "to",
          "type": "address"
        },
        {
          "indexed": true,
          "internalType": "uint256",
          "name": "tokenId",
          "type": "uint256"
        }
      ],
      "name": "Transfer",
      "type": "event"
    },
    {
      "anonymous": false,
      "inputs": [
        {
          "indexed": false,
          "internalType": "address",
          "name": "account",
          "type": "address"
        }
      ],
      "name": "Unpaused",
      "type": "event"
    },
    {
      "anonymous": false,
      "inputs": [
        {
          "indexed": true,
          "internalType": "uint256",
          "name": "tokenId",
          "type": "uint256"
        },
        {
          "indexed": false,
          "internalType": "uint256",
          "name": "treeId",
          "type": "uint256"
        },
        {
          "indexed": false,
          "internalType": "uint256",
          "name": "skillId",
          "type": "uint256"
        },
        {
          "indexed": false,
          "internalType": "uint256",
          "name": "value",
          "type": "uint256"
        }
      ],
      "name": "ValueUpdated",
      "type": "event"
    },
    {
      "inputs": [],
      "name": "ADMIN_ROLE",
      "outputs": [
        {
          "internalType": "bytes32",
          "name": "",
          "type": "bytes32"
        }
      ],
      "stateMutability": "view",
      "type": "function"
    },
    {
      "inputs": [],
      "name": "CONTRACT_ROLE",
      "outputs": [
        {
          "internalType": "bytes32",
          "name": "",
          "type": "bytes32"
        }
      ],
      "stateMutability": "view",
      "type": "function"
    },
    {
      "inputs": [],
      "name": "DEFAULT_ADMIN_ROLE",
      "outputs": [
        {
          "internalType": "bytes32",
          "name": "",
          "type": "bytes32"
        }
      ],
      "stateMutability": "view",
      "type": "function"
    },
    {
      "inputs": [],
      "name": "MINTER_ROLE",
      "outputs": [
        {
          "internalType": "bytes32",
          "name": "",
          "type": "bytes32"
        }
      ],
      "stateMutability": "view",
      "type": "function"
    },
    {
      "inputs": [
        {
          "internalType": "address",
          "name": "to",
          "type": "address"
        },
        {
          "internalType": "uint256",
          "name": "tokenId",
          "type": "uint256"
        }
      ],
      "name": "approve",
      "outputs": [],
      "stateMutability": "nonpayable",
      "type": "function"
    },
    {
      "inputs": [
        {
          "internalType": "address",
          "name": "owner",
          "type": "address"
        }
      ],
      "name": "balanceOf",
      "outputs": [
        {
          "internalType": "uint256",
          "name": "",
          "type": "uint256"
        }
      ],
      "stateMutability": "view",
      "type": "function"
    },
    {
      "inputs": [
        {
          "internalType": "address",
          "name": "to",
          "type": "address"
        },
        {
          "internalType": "uint256[]",
          "name": "tokenIds",
          "type": "uint256[]"
        }
      ],
      "name": "batchMint",
      "outputs": [],
      "stateMutability": "nonpayable",
      "type": "function"
    },
    {
      "inputs": [
        {
          "internalType": "uint256[]",
          "name": "tokenIds",
          "type": "uint256[]"
        }
      ],
      "name": "batchTokenURI",
      "outputs": [
        {
          "internalType": "string[]",
          "name": "",
          "type": "string[]"
        }
      ],
      "stateMutability": "view",
      "type": "function"
    },
    {
      "inputs": [
        {
          "internalType": "uint256",
          "name": "tokenId",
          "type": "uint256"
        }
      ],
      "name": "burn",
      "outputs": [],
      "stateMutability": "nonpayable",
      "type": "function"
    },
    {
      "inputs": [
        {
          "internalType": "uint256",
          "name": "tokenId",
          "type": "uint256"
        }
      ],
      "name": "getApproved",
      "outputs": [
        {
          "internalType": "address",
          "name": "",
          "type": "address"
        }
      ],
      "stateMutability": "view",
      "type": "function"
    },
    {
      "inputs": [
        {
          "internalType": "bytes32",
          "name": "role",
          "type": "bytes32"
        }
      ],
      "name": "getRoleAdmin",
      "outputs": [
        {
          "internalType": "bytes32",
          "name": "",
          "type": "bytes32"
        }
      ],
      "stateMutability": "view",
      "type": "function"
    },
    {
      "inputs": [
        {
          "internalType": "bytes32",
          "name": "role",
          "type": "bytes32"
        },
        {
          "internalType": "uint256",
          "name": "index",
          "type": "uint256"
        }
      ],
      "name": "getRoleMember",
      "outputs": [
        {
          "internalType": "address",
          "name": "",
          "type": "address"
        }
      ],
      "stateMutability": "view",
      "type": "function"
    },
    {
      "inputs": [
        {
          "internalType": "bytes32",
          "name": "role",
          "type": "bytes32"
        }
      ],
      "name": "getRoleMemberCount",
      "outputs": [
        {
          "internalType": "uint256",
          "name": "",
          "type": "uint256"
        }
      ],
      "stateMutability": "view",
      "type": "function"
    },
    {
      "inputs": [
        {
          "internalType": "uint256",
          "name": "tokenId",
          "type": "uint256"
        },
        {
          "internalType": "uint256",
          "name": "treeId",
          "type": "uint256"
        },
        {
          "internalType": "uint256",
          "name": "skillId",
          "type": "uint256"
        }
      ],
      "name": "getSkill",
      "outputs": [
        {
          "internalType": "uint256",
          "name": "value",
          "type": "uint256"
        }
      ],
      "stateMutability": "view",
      "type": "function"
    },
    {
      "inputs": [
        {
          "internalType": "uint256",
          "name": "tokenId",
          "type": "uint256"
        },
        {
          "internalType": "uint256",
          "name": "treeId",
          "type": "uint256"
        },
        {
          "internalType": "uint256[]",
          "name": "skillIds",
          "type": "uint256[]"
        }
      ],
      "name": "getSkillsByTree",
      "outputs": [
        {
          "internalType": "uint256[]",
          "name": "",
          "type": "uint256[]"
        }
      ],
      "stateMutability": "view",
      "type": "function"
    },
    {
      "inputs": [
        {
          "internalType": "uint256",
          "name": "tokenId",
          "type": "uint256"
        },
        {
          "internalType": "uint256",
          "name": "customId",
          "type": "uint256"
        }
      ],
      "name": "getString",
      "outputs": [
        {
          "internalType": "string",
          "name": "value",
          "type": "string"
        }
      ],
      "stateMutability": "view",
      "type": "function"
    },
    {
      "inputs": [
        {
          "internalType": "uint256[]",
          "name": "tokenIds",
          "type": "uint256[]"
        },
        {
          "internalType": "uint256",
          "name": "customId",
          "type": "uint256"
        }
      ],
      "name": "getStringOfTokens",
      "outputs": [
        {
          "internalType": "string[]",
          "name": "",
          "type": "string[]"
        }
      ],
      "stateMutability": "view",
      "type": "function"
    },
    {
      "inputs": [
        {
          "internalType": "uint256",
          "name": "tokenId",
          "type": "uint256"
        },
        {
          "internalType": "uint256[]",
          "name": "customIds",
          "type": "uint256[]"
        }
      ],
      "name": "getStrings",
      "outputs": [
        {
          "internalType": "string[]",
          "name": "",
          "type": "string[]"
        }
      ],
      "stateMutability": "view",
      "type": "function"
    },
    {
      "inputs": [
        {
          "internalType": "bytes32",
          "name": "role",
          "type": "bytes32"
        },
        {
          "internalType": "address",
          "name": "account",
          "type": "address"
        }
      ],
      "name": "grantRole",
      "outputs": [],
      "stateMutability": "nonpayable",
      "type": "function"
    },
    {
      "inputs": [
        {
          "internalType": "bytes32",
          "name": "role",
          "type": "bytes32"
        },
        {
          "internalType": "address",
          "name": "account",
          "type": "address"
        }
      ],
      "name": "hasRole",
      "outputs": [
        {
          "internalType": "bool",
          "name": "",
          "type": "bool"
        }
      ],
      "stateMutability": "view",
      "type": "function"
    },
    {
      "inputs": [],
      "name": "imageBaseURI",
      "outputs": [
        {
          "internalType": "string",
          "name": "",
          "type": "string"
        }
      ],
      "stateMutability": "view",
      "type": "function"
    },
    {
      "inputs": [],
      "name": "initialize",
      "outputs": [],
      "stateMutability": "nonpayable",
      "type": "function"
    },
    {
      "inputs": [
        {
          "internalType": "address",
          "name": "owner",
          "type": "address"
        },
        {
          "internalType": "address",
          "name": "operator",
          "type": "address"
        }
      ],
      "name": "isApprovedForAll",
      "outputs": [
        {
          "internalType": "bool",
          "name": "",
          "type": "bool"
        }
      ],
      "stateMutability": "view",
      "type": "function"
    },
    {
      "inputs": [
        {
          "internalType": "address",
          "name": "to",
          "type": "address"
        },
        {
          "internalType": "uint256",
          "name": "tokenId",
          "type": "uint256"
        }
      ],
      "name": "mint",
      "outputs": [],
      "stateMutability": "nonpayable",
      "type": "function"
    },
    {
      "inputs": [],
      "name": "name",
      "outputs": [
        {
          "internalType": "string",
          "name": "",
          "type": "string"
        }
      ],
      "stateMutability": "view",
      "type": "function"
    },
    {
      "inputs": [
        {
          "internalType": "uint256",
          "name": "tokenId",
          "type": "uint256"
        }
      ],
      "name": "ownerOf",
      "outputs": [
        {
          "internalType": "address",
          "name": "",
          "type": "address"
        }
      ],
      "stateMutability": "view",
      "type": "function"
    },
    {
      "inputs": [],
      "name": "pause",
      "outputs": [],
      "stateMutability": "nonpayable",
      "type": "function"
    },
    {
      "inputs": [],
      "name": "paused",
      "outputs": [
        {
          "internalType": "bool",
          "name": "",
          "type": "bool"
        }
      ],
      "stateMutability": "view",
      "type": "function"
    },
    {
      "inputs": [
        {
          "internalType": "bytes32",
          "name": "role",
          "type": "bytes32"
        },
        {
          "internalType": "address",
          "name": "account",
          "type": "address"
        }
      ],
      "name": "renounceRole",
      "outputs": [],
      "stateMutability": "nonpayable",
      "type": "function"
    },
    {
      "inputs": [
        {
          "internalType": "bytes32",
          "name": "role",
          "type": "bytes32"
        },
        {
          "internalType": "address",
          "name": "account",
          "type": "address"
        }
      ],
      "name": "revokeRole",
      "outputs": [],
      "stateMutability": "nonpayable",
      "type": "function"
    },
    {
      "inputs": [
        {
          "internalType": "address",
          "name": "from",
          "type": "address"
        },
        {
          "internalType": "address",
          "name": "to",
          "type": "address"
        },
        {
          "internalType": "uint256",
          "name": "tokenId",
          "type": "uint256"
        }
      ],
      "name": "safeTransferFrom",
      "outputs": [],
      "stateMutability": "nonpayable",
      "type": "function"
    },
    {
      "inputs": [
        {
          "internalType": "address",
          "name": "from",
          "type": "address"
        },
        {
          "internalType": "address",
          "name": "to",
          "type": "address"
        },
        {
          "internalType": "uint256",
          "name": "tokenId",
          "type": "uint256"
        },
        {
          "internalType": "bytes",
          "name": "data",
          "type": "bytes"
        }
      ],
      "name": "safeTransferFrom",
      "outputs": [],
      "stateMutability": "nonpayable",
      "type": "function"
    },
    {
      "inputs": [
        {
          "internalType": "address",
          "name": "operator",
          "type": "address"
        },
        {
          "internalType": "bool",
          "name": "approved",
          "type": "bool"
        }
      ],
      "name": "setApprovalForAll",
      "outputs": [],
      "stateMutability": "nonpayable",
      "type": "function"
    },
    {
      "inputs": [
        {
          "internalType": "string",
          "name": "_imageBaseURI",
          "type": "string"
        }
      ],
      "name": "setImageBaseURI",
      "outputs": [],
      "stateMutability": "nonpayable",
      "type": "function"
    },
    {
      "inputs": [
        {
          "internalType": "uint256",
          "name": "tokenId",
          "type": "uint256"
        },
        {
          "internalType": "uint256",
          "name": "attrId",
          "type": "uint256"
        },
        {
          "internalType": "uint256",
          "name": "value",
          "type": "uint256"
        }
      ],
      "name": "setTokenURI",
      "outputs": [],
      "stateMutability": "nonpayable",
      "type": "function"
    },
    {
      "inputs": [
        {
          "internalType": "uint256[]",
          "name": "tokenIds",
          "type": "uint256[]"
        },
        {
          "internalType": "uint256[]",
          "name": "attrIds",
          "type": "uint256[]"
        },
        {
          "internalType": "uint256[]",
          "name": "values",
          "type": "uint256[]"
        }
      ],
      "name": "setTokenURIs",
      "outputs": [],
      "stateMutability": "nonpayable",
      "type": "function"
    },
    {
      "inputs": [
        {
          "internalType": "bytes4",
          "name": "interfaceId",
          "type": "bytes4"
        }
      ],
      "name": "supportsInterface",
      "outputs": [
        {
          "internalType": "bool",
          "name": "",
          "type": "bool"
        }
      ],
      "stateMutability": "view",
      "type": "function"
    },
    {
      "inputs": [],
      "name": "symbol",
      "outputs": [
        {
          "internalType": "string",
          "name": "",
          "type": "string"
        }
      ],
      "stateMutability": "view",
      "type": "function"
    },
    {
      "inputs": [
        {
          "internalType": "uint256",
          "name": "index",
          "type": "uint256"
        }
      ],
      "name": "tokenByIndex",
      "outputs": [
        {
          "internalType": "uint256",
          "name": "",
          "type": "uint256"
        }
      ],
      "stateMutability": "view",
      "type": "function"
    },
    {
      "inputs": [
        {
          "internalType": "address",
          "name": "owner",
          "type": "address"
        },
        {
          "internalType": "uint256",
          "name": "index",
          "type": "uint256"
        }
      ],
      "name": "tokenOfOwnerByIndex",
      "outputs": [
        {
          "internalType": "uint256",
          "name": "",
          "type": "uint256"
        }
      ],
      "stateMutability": "view",
      "type": "function"
    },
    {
      "inputs": [
        {
          "internalType": "uint256",
          "name": "tokenId",
          "type": "uint256"
        }
      ],
      "name": "tokenURI",
      "outputs": [
        {
          "internalType": "string",
          "name": "",
          "type": "string"
        }
      ],
      "stateMutability": "view",
      "type": "function"
    },
    {
      "inputs": [
        {
          "internalType": "address",
          "name": "owner",
          "type": "address"
        }
      ],
      "name": "tokensOfOwner",
      "outputs": [
        {
          "internalType": "uint256[]",
          "name": "",
          "type": "uint256[]"
        }
      ],
      "stateMutability": "view",
      "type": "function"
    },
    {
      "inputs": [],
      "name": "totalSupply",
      "outputs": [
        {
          "internalType": "uint256",
          "name": "",
          "type": "uint256"
        }
      ],
      "stateMutability": "view",
      "type": "function"
    },
    {
      "inputs": [
        {
          "internalType": "address",
          "name": "from",
          "type": "address"
        },
        {
          "internalType": "address",
          "name": "to",
          "type": "address"
        },
        {
          "internalType": "uint256",
          "name": "tokenId",
          "type": "uint256"
        }
      ],
      "name": "transferFrom",
      "outputs": [],
      "stateMutability": "nonpayable",
      "type": "function"
    },
    {
      "inputs": [],
      "name": "unpause",
      "outputs": [],
      "stateMutability": "nonpayable",
      "type": "function"
    },
    {
      "inputs": [
        {
          "internalType": "uint256",
          "name": "tokenId",
          "type": "uint256"
        },
        {
          "internalType": "uint256",
          "name": "treeId",
          "type": "uint256"
        },
        {
          "internalType": "uint256",
          "name": "skillId",
          "type": "uint256"
        },
        {
          "internalType": "uint256",
          "name": "value",
          "type": "uint256"
        }
      ],
      "name": "updateSkill",
      "outputs": [],
      "stateMutability": "nonpayable",
      "type": "function"
    },
    {
      "inputs": [
        {
          "internalType": "uint256",
          "name": "tokenId",
          "type": "uint256"
        },
        {
          "internalType": "uint256",
          "name": "customId",
          "type": "uint256"
        },
        {
          "internalType": "string",
          "name": "value",
          "type": "string"
        }
      ],
      "name": "updateString",
      "outputs": [],
      "stateMutability": "nonpayable",
      "type": "function"
    }
  ],
  "bytecode": "0x60806040523480156200001157600080fd5b506200001c62000022565b620000e4565b600054610100900460ff16156200008f5760405162461bcd60e51b815260206004820152602760248201527f496e697469616c697a61626c653a20636f6e747261637420697320696e697469604482015266616c697a696e6760c81b606482015260840160405180910390fd5b60005460ff9081161015620000e2576000805460ff191660ff9081179091556040519081527f7f26b83ff96e1f2b6a682f133852f6798a09c465da95921460cefb38474024989060200160405180910390a15b565b613cf180620000f46000396000f3fe608060405234801561001057600080fd5b50600436106102955760003560e01c80636d94f13a11610167578063a22cb465116100ce578063d539139311610087578063d5391393146105f1578063d547741f14610606578063dd69f3f714610619578063e3a829fe1461062c578063e985e9c51461063f578063ed0af2091461067b57600080fd5b8063a22cb4651461057f578063b5afb12014610592578063b88d4fde146105a5578063c7e05590146105b8578063c87b56dd146105cb578063ca15c873146105de57600080fd5b80638462151c116101205780638462151c146105165780639010d07c1461053657806391d148541461054957806395d89b411461055c5780639e8afe4714610564578063a217fddf1461057757600080fd5b80636d94f13a146104c357806370a08231146104d657806375b238fc146104e957806377645839146104fe5780638129fc1c146105065780638456cb591461050e57600080fd5b8063352b75331161020b5780634594762a116101c45780634594762a146104385780634684d7e91461046b5780634f6ccce71461047e5780635c975abb146104915780636352211e1461049d5780636cfa24cc146104b057600080fd5b8063352b7533146103c457806336568abe146103e45780633f4ba83a146103f757806340c10f19146103ff57806342842e0e1461041257806342966c681461042557600080fd5b8063095ea7b31161025d578063095ea7b31461034a57806318160ddd1461035f57806323b872dd14610367578063248a9ca31461037a5780632f2ff15d1461039e5780632f745c59146103b157600080fd5b806301ffc9a71461029a57806303fe46ab146102c257806306fdde03146102f7578063079be4931461030c578063081812fc1461031f575b600080fd5b6102ad6102a8366004612ec0565b61068e565b60405190151581526020015b60405180910390f35b6102e97f364d3d7565c7a8300c96fd53e065d19b65848d7b23b3191adcd55621c744223c81565b6040519081526020016102b9565b6102ff61069f565b6040516102b99190612f35565b6102ff61031a366004612f48565b610731565b61033261032d366004612f6a565b6107e0565b6040516001600160a01b0390911681526020016102b9565b61035d610358366004612f9f565b610807565b005b6099546102e9565b61035d610375366004612fc9565b610922565b6102e9610388366004612f6a565b600090815261015f602052604090206001015490565b61035d6103ac366004613005565b610954565b6102e96103bf366004612f9f565b61097a565b6103d76103d23660046130f6565b610a10565b6040516102b9919061313a565b61035d6103f2366004613005565b610b6e565b61035d610bec565b61035d61040d366004612f9f565b610c0f565b61035d610420366004612fc9565b610c31565b61035d610433366004612f6a565b610c4c565b6102e961044636600461319c565b600092835261025c602090815260408085209385529281528284209184525290205490565b61035d6104793660046131c8565b610c87565b6102e961048c366004612f6a565b610ce6565b61012d5460ff166102ad565b6103326104ab366004612f6a565b610d79565b61035d6104be36600461328c565b610dd9565b6103d76104d13660046132c0565b610e04565b6102e96104e43660046132f4565b610ebc565b6102e9600080516020613c9c83398151915281565b6102ff610f42565b61035d610fd0565b61035d611186565b6105296105243660046132f4565b6111a6565b6040516102b9919061330f565b610332610544366004612f48565b61123f565b6102ad610557366004613005565b61125f565b6102ff61128b565b6103d7610572366004613353565b61129a565b6102e9600081565b61035d61058d366004613383565b6113f0565b61035d6105a03660046133bf565b6113fb565b61035d6105b33660046133f1565b611492565b6105296105c636600461346c565b6114c4565b6102ff6105d9366004612f6a565b611599565b6102e96105ec366004612f6a565b6116c2565b6102e9600080516020613c7c83398151915281565b61035d610614366004613005565b6116da565b61035d6106273660046134bb565b611700565b61035d61063a36600461319c565b6117b3565b6102ad61064d366004613538565b6001600160a01b039182166000908152606a6020908152604080832093909416825291909152205460ff1690565b61035d610689366004613562565b6117e9565b60006106998261187c565b92915050565b6060606580546106ae906135a7565b80601f01602080910402602001604051908101604052809291908181526020018280546106da906135a7565b80156107275780601f106106fc57610100808354040283529160200191610727565b820191906000526020600020905b81548152906001019060200180831161070a57829003601f168201915b5050505050905090565b600082815261025d60209081526040808320848452909152902080546060919061075a906135a7565b80601f0160208091040260200160405190810160405280929190818152602001828054610786906135a7565b80156107d35780601f106107a8576101008083540402835291602001916107d3565b820191906000526020600020905b8154815290600101906020018083116107b657829003601f168201915b5050505050905092915050565b60006107eb82611887565b506000908152606960205260409020546001600160a01b031690565b600061081282610d79565b9050806001600160a01b0316836001600160a01b031614156108855760405162461bcd60e51b815260206004820152602160248201527f4552433732313a20617070726f76616c20746f2063757272656e74206f776e656044820152603960f91b60648201526084015b60405180910390fd5b336001600160a01b03821614806108a157506108a1813361064d565b6109135760405162461bcd60e51b815260206004820152603e60248201527f4552433732313a20617070726f76652063616c6c6572206973206e6f7420746f60448201527f6b656e206f776e6572206e6f7220617070726f76656420666f7220616c6c0000606482015260840161087c565b61091d83836118d7565b505050565b61092d335b82611945565b6109495760405162461bcd60e51b815260040161087c906135e2565b61091d8383836119c4565b600082815261015f602052604090206001015461097081611b6b565b61091d8383611b75565b600061098583610ebc565b82106109e75760405162461bcd60e51b815260206004820152602b60248201527f455243373231456e756d657261626c653a206f776e657220696e646578206f7560448201526a74206f6620626f756e647360a81b606482015260840161087c565b506001600160a01b03919091166000908152609760209081526040808320938352929052205490565b6060600083516001600160401b03811115610a2d57610a2d613031565b604051908082528060200260200182016040528015610a6057816020015b6060815260200190600190039081610a4b5790505b50905060005b8451811015610b665761025d6000868381518110610a8657610a86613630565b6020026020010151815260200190815260200160002060008581526020019081526020016000208054610ab8906135a7565b80601f0160208091040260200160405190810160405280929190818152602001828054610ae4906135a7565b8015610b315780601f10610b0657610100808354040283529160200191610b31565b820191906000526020600020905b815481529060010190602001808311610b1457829003601f168201915b5050505050828281518110610b4857610b48613630565b60200260200101819052508080610b5e9061365c565b915050610a66565b509392505050565b6001600160a01b0381163314610bde5760405162461bcd60e51b815260206004820152602f60248201527f416363657373436f6e74726f6c3a2063616e206f6e6c792072656e6f756e636560448201526e103937b632b9903337b91039b2b63360891b606482015260840161087c565b610be88282611b98565b5050565b600080516020613c9c833981519152610c0481611b6b565b610c0c611bbb565b50565b600080516020613c7c833981519152610c2781611b6b565b61091d8383611c0e565b61091d83838360405180602001604052806000815250611492565b610c5533610927565b610c715760405162461bcd60e51b815260040161087c906135e2565b610c7d6101f582611c28565b50610c0c81611c34565b600080516020613c7c833981519152610c9f81611b6b565b60005b8251811015610ce057610cce84848381518110610cc157610cc1613630565b6020026020010151611c0e565b80610cd88161365c565b915050610ca2565b50505050565b6000610cf160995490565b8210610d545760405162461bcd60e51b815260206004820152602c60248201527f455243373231456e756d657261626c653a20676c6f62616c20696e646578206f60448201526b7574206f6620626f756e647360a01b606482015260840161087c565b60998281548110610d6757610d67613630565b90600052602060002001549050919050565b6000818152606760205260408120546001600160a01b0316806106995760405162461bcd60e51b8152602060048201526018602482015277115490cdcc8c4e881a5b9d985b1a59081d1bdad95b88125160421b604482015260640161087c565b600080516020613c9c833981519152610df181611b6b565b815161091d9060fc906020850190612ddb565b6060600082516001600160401b03811115610e2157610e21613031565b604051908082528060200260200182016040528015610e5457816020015b6060815260200190600190039081610e3f5790505b50905060005b8351811015610eb557610e85848281518110610e7857610e78613630565b6020026020010151611599565b828281518110610e9757610e97613630565b60200260200101819052508080610ead9061365c565b915050610e5a565b5092915050565b60006001600160a01b038216610f265760405162461bcd60e51b815260206004820152602960248201527f4552433732313a2061646472657373207a65726f206973206e6f7420612076616044820152683634b21037bbb732b960b91b606482015260840161087c565b506001600160a01b031660009081526068602052604090205490565b60fc8054610f4f906135a7565b80601f0160208091040260200160405190810160405280929190818152602001828054610f7b906135a7565b8015610fc85780601f10610f9d57610100808354040283529160200191610fc8565b820191906000526020600020905b815481529060010190602001808311610fab57829003601f168201915b505050505081565b600054610100900460ff1615808015610ff05750600054600160ff909116105b8061100a5750303b15801561100a575060005460ff166001145b61106d5760405162461bcd60e51b815260206004820152602e60248201527f496e697469616c697a61626c653a20636f6e747261637420697320616c72656160448201526d191e481a5b9a5d1a585b1a5e995960921b606482015260840161087c565b6000805460ff191660011790558015611090576000805461ff0019166101001790555b6110db6040518060400160405280600c81526020016b10dbdcdb5a58d25cdb185b9960a21b8152506040518060400160405280600581526020016410d310539160da1b815250611c74565b6110e3611ca5565b6110eb611cd6565b6110f3611cfd565b6110fb611cd6565b611103611ca5565b61110e600033611b75565b611126600080516020613c9c83398151915233611b75565b61113e600080516020613c7c83398151915233611b75565b8015610c0c576000805461ff0019169055604051600181527f7f26b83ff96e1f2b6a682f133852f6798a09c465da95921460cefb38474024989060200160405180910390a150565b600080516020613c9c83398151915261119e81611b6b565b610c0c611d2c565b606060006111b383610ebc565b90506000816001600160401b038111156111cf576111cf613031565b6040519080825280602002602001820160405280156111f8578160200160208202803683370190505b50905060005b82811015610b6657611210858261097a565b82828151811061122257611222613630565b6020908102919091010152806112378161365c565b9150506111fe565b6000828152610191602052604081206112589083611d6a565b9392505050565b600091825261015f602090815260408084206001600160a01b0393909316845291905290205460ff1690565b6060606680546106ae906135a7565b6060600082516001600160401b038111156112b7576112b7613031565b6040519080825280602002602001820160405280156112ea57816020015b60608152602001906001900390816112d55790505b50905060005b8351811015610b665761025d6000868152602001908152602001600020600085838151811061132157611321613630565b602002602001015181526020019081526020016000208054611342906135a7565b80601f016020809104026020016040519081016040528092919081815260200182805461136e906135a7565b80156113bb5780601f10611390576101008083540402835291602001916113bb565b820191906000526020600020905b81548152906001019060200180831161139e57829003601f168201915b50505050508282815181106113d2576113d2613630565b602002602001018190525080806113e89061365c565b9150506112f0565b610be8338383611d76565b7f364d3d7565c7a8300c96fd53e065d19b65848d7b23b3191adcd55621c744223c61142581611b6b565b600085815261025c602090815260408083208784528252808320868452825291829020849055815186815290810185905290810183905285907fc3bdb5f4a3cbb68ce4ebe3dda3660f3067add044dc5be3a047d818fd416663699060600160405180910390a25050505050565b61149c3383611945565b6114b85760405162461bcd60e51b815260040161087c906135e2565b610ce084848484611e45565b6060600082516001600160401b038111156114e1576114e1613031565b60405190808252806020026020018201604052801561150a578160200160208202803683370190505b50905060005b835181101561159057600086815261025c602090815260408083208884529091528120855190919086908490811061154a5761154a613630565b602002602001015181526020019081526020016000205482828151811061157357611573613630565b6020908102919091010152806115888161365c565b915050611510565b50949350505050565b600081815261025b60209081526040808320838052909152808220546001835281832054600284529183205460609391929160fc6115d687611e78565b6040516020016115e7929190613693565b6040516020818303038152906040529050600061160387611e78565b8260405160200161161592919061373a565b6040516020818303038152906040529050600061163186611e78565b61163a86611e78565b61164386611e78565b60405160200161165593929190613804565b60405160208183030381529060405290506000828260405160200161167b92919061396b565b604051602081830303815290604052905061169581611f75565b6040516020016116a591906139b8565b604051602081830303815290604052975050505050505050919050565b600081815261019160205260408120610699906120c8565b600082815261015f60205260409020600101546116f681611b6b565b61091d8383611b98565b600080516020613c9c83398151915261171881611b6b565b60005b84518110156117ac5782818151811061173657611736613630565b602002602001015161025b600087848151811061175557611755613630565b60200260200101518152602001908152602001600020600086848151811061177f5761177f613630565b602002602001015181526020019081526020016000208190555080806117a49061365c565b91505061171b565b5050505050565b600080516020613c9c8339815191526117cb81611b6b565b50600092835261025b60209081526040808520938552929052912055565b7f364d3d7565c7a8300c96fd53e065d19b65848d7b23b3191adcd55621c744223c61181381611b6b565b600084815261025d602090815260408083208684528252909120835161183b92850190612ddb565b50837fbf91c112c44cd8e958afe3106b290f594b5e23b83fcc88bdb9ac5da7f00be569848460405161186e9291906139fd565b60405180910390a250505050565b6000610699826120d2565b611890816120f7565b610c0c5760405162461bcd60e51b8152602060048201526018602482015277115490cdcc8c4e881a5b9d985b1a59081d1bdad95b88125160421b604482015260640161087c565b600081815260696020526040902080546001600160a01b0319166001600160a01b038416908117909155819061190c82610d79565b6001600160a01b03167f8c5be1e5ebec7d5bd14f71427d1e84f3dd0314c0f7b2291e5b200ac8c7c3b92560405160405180910390a45050565b60008061195183610d79565b9050806001600160a01b0316846001600160a01b0316148061199857506001600160a01b038082166000908152606a602090815260408083209388168352929052205460ff165b806119bc5750836001600160a01b03166119b1846107e0565b6001600160a01b0316145b949350505050565b826001600160a01b03166119d782610d79565b6001600160a01b031614611a3b5760405162461bcd60e51b815260206004820152602560248201527f4552433732313a207472616e736665722066726f6d20696e636f72726563742060448201526437bbb732b960d91b606482015260840161087c565b6001600160a01b038216611a9d5760405162461bcd60e51b8152602060048201526024808201527f4552433732313a207472616e7366657220746f20746865207a65726f206164646044820152637265737360e01b606482015260840161087c565b611aa8838383612102565b611ab36000826118d7565b6001600160a01b0383166000908152606860205260408120805460019290611adc908490613a16565b90915550506001600160a01b0382166000908152606860205260408120805460019290611b0a908490613a2d565b909155505060008181526067602052604080822080546001600160a01b0319166001600160a01b0386811691821790925591518493918716917fddf252ad1be2c89b69c2b068fc378daa952ba7f163c4a11628f55a4df523b3ef91a4505050565b610c0c81336121b5565b611b7f8282612219565b60008281526101916020526040902061091d90826122a0565b611ba282826122b5565b60008281526101916020526040902061091d908261231d565b611bc3612332565b61012d805460ff191690557f5db9ee0a495bf2e6ff9c91a7834c1ba4fdd244a5e8aa4e537bd38aeae4b073aa335b6040516001600160a01b03909116815260200160405180910390a1565b610be882826040518060200160405280600081525061237c565b600061125883836123af565b611c3d816123fe565b600081815260fb602052604090208054611c56906135a7565b159050610c0c57600081815260fb60205260408120610c0c91612e5f565b600054610100900460ff16611c9b5760405162461bcd60e51b815260040161087c90613a45565b610be882826124a5565b600054610100900460ff16611ccc5760405162461bcd60e51b815260040161087c90613a45565b611cd4611cd6565b565b600054610100900460ff16611cd45760405162461bcd60e51b815260040161087c90613a45565b600054610100900460ff16611d245760405162461bcd60e51b815260040161087c90613a45565b611cd46124f3565b611d34612527565b61012d805460ff191660011790557f62e78cea01bee320cd4e420270b5ea74000d11b0c9f74754ebdbfc544b05a258611bf13390565b6000611258838361256e565b816001600160a01b0316836001600160a01b03161415611dd85760405162461bcd60e51b815260206004820152601960248201527f4552433732313a20617070726f766520746f2063616c6c657200000000000000604482015260640161087c565b6001600160a01b038381166000818152606a6020908152604080832094871680845294825291829020805460ff191686151590811790915591519182527f17307eab39ab6107e8899845ad3d59bd9653f200f220920489ca2b5937696c31910160405180910390a3505050565b611e508484846119c4565b611e5c84848484612598565b610ce05760405162461bcd60e51b815260040161087c90613a90565b606081611e9c5750506040805180820190915260018152600360fc1b602082015290565b8160005b8115611ec65780611eb08161365c565b9150611ebf9050600a83613af8565b9150611ea0565b6000816001600160401b03811115611ee057611ee0613031565b6040519080825280601f01601f191660200182016040528015611f0a576020820181803683370190505b5090505b84156119bc57611f1f600183613a16565b9150611f2c600a86613b0c565b611f37906030613a2d565b60f81b818381518110611f4c57611f4c613630565b60200101906001600160f81b031916908160001a905350611f6e600a86613af8565b9450611f0e565b6060815160001415611f9557505060408051602081019091526000815290565b6000604051806060016040528060408152602001613c3c6040913990506000600384516002611fc49190613a2d565b611fce9190613af8565b611fd9906004613b20565b6001600160401b03811115611ff057611ff0613031565b6040519080825280601f01601f19166020018201604052801561201a576020820181803683370190505b509050600182016020820185865187015b80821015612086576003820191508151603f8160121c168501518453600184019350603f81600c1c168501518453600184019350603f8160061c168501518453600184019350603f811685015184535060018301925061202b565b50506003865106600181146120a257600281146120b5576120bd565b603d6001830353603d60028303536120bd565b603d60018303535b509195945050505050565b6000610699825490565b60006001600160e01b03198216635a05180f60e01b14806106995750610699826126a5565b6000610699826126ca565b61210a612527565b82612117610259826126f6565b1561215a5760405162461bcd60e51b8152602060048201526013602482015272426c61636b6c6973746564206164647265737360681b604482015260640161087c565b82612167610259826126f6565b156121aa5760405162461bcd60e51b8152602060048201526013602482015272426c61636b6c6973746564206164647265737360681b604482015260640161087c565b6117ac858585612718565b6121bf828261125f565b610be8576121d7816001600160a01b03166014612723565b6121e2836020612723565b6040516020016121f3929190613b3f565b60408051601f198184030181529082905262461bcd60e51b825261087c91600401612f35565b612223828261125f565b610be857600082815261015f602090815260408083206001600160a01b03851684529091529020805460ff1916600117905561225c3390565b6001600160a01b0316816001600160a01b0316837f2f8788117e7eff1d82e926ec794901d17c78024a50270940304540a733656f0d60405160405180910390a45050565b6000611258836001600160a01b0384166123af565b6122bf828261125f565b15610be857600082815261015f602090815260408083206001600160a01b0385168085529252808320805460ff1916905551339285917ff6391f5c32d9c69d2a47ea670b442974b53935d1edc7fd64eb21e047a839171b9190a45050565b6000611258836001600160a01b0384166128be565b61012d5460ff16611cd45760405162461bcd60e51b815260206004820152601460248201527314185d5cd8589b194e881b9bdd081c185d5cd95960621b604482015260640161087c565b61238683836129b1565b6123936000848484612598565b61091d5760405162461bcd60e51b815260040161087c90613a90565b60008181526001830160205260408120546123f657508154600181810184556000848152602080822090930184905584548482528286019093526040902091909155610699565b506000610699565b600061240982610d79565b905061241781600084612102565b6124226000836118d7565b6001600160a01b038116600090815260686020526040812080546001929061244b908490613a16565b909155505060008281526067602052604080822080546001600160a01b0319169055518391906001600160a01b038416907fddf252ad1be2c89b69c2b068fc378daa952ba7f163c4a11628f55a4df523b3ef908390a45050565b600054610100900460ff166124cc5760405162461bcd60e51b815260040161087c90613a45565b81516124df906065906020850190612ddb565b50805161091d906066906020840190612ddb565b600054610100900460ff1661251a5760405162461bcd60e51b815260040161087c90613a45565b61012d805460ff19169055565b61012d5460ff1615611cd45760405162461bcd60e51b815260206004820152601060248201526f14185d5cd8589b194e881c185d5cd95960821b604482015260640161087c565b600082600001828154811061258557612585613630565b9060005260206000200154905092915050565b60006001600160a01b0384163b1561269a57604051630a85bd0160e11b81526001600160a01b0385169063150b7a02906125dc903390899088908890600401613bb4565b602060405180830381600087803b1580156125f657600080fd5b505af1925050508015612626575060408051601f3d908101601f1916820190925261262391810190613bf1565b60015b612680573d808015612654576040519150601f19603f3d011682016040523d82523d6000602084013e612659565b606091505b5080516126785760405162461bcd60e51b815260040161087c90613a90565b805181602001fd5b6001600160e01b031916630a85bd0160e11b1490506119bc565b506001949350505050565b60006001600160e01b03198216637965db0b60e01b1480610699575061069982612af0565b6000818152606760205260408120546001600160a01b031615158061069957506106996101f583612afb565b6001600160a01b03811660009081526001830160205260408120541515611258565b61091d838383612b13565b60606000612732836002613b20565b61273d906002613a2d565b6001600160401b0381111561275457612754613031565b6040519080825280601f01601f19166020018201604052801561277e576020820181803683370190505b509050600360fc1b8160008151811061279957612799613630565b60200101906001600160f81b031916908160001a905350600f60fb1b816001815181106127c8576127c8613630565b60200101906001600160f81b031916908160001a90535060006127ec846002613b20565b6127f7906001613a2d565b90505b600181111561286f576f181899199a1a9b1b9c1cb0b131b232b360811b85600f166010811061282b5761282b613630565b1a60f81b82828151811061284157612841613630565b60200101906001600160f81b031916908160001a90535060049490941c9361286881613c0e565b90506127fa565b5083156112585760405162461bcd60e51b815260206004820181905260248201527f537472696e67733a20686578206c656e67746820696e73756666696369656e74604482015260640161087c565b600081815260018301602052604081205480156129a75760006128e2600183613a16565b85549091506000906128f690600190613a16565b905081811461295b57600086600001828154811061291657612916613630565b906000526020600020015490508087600001848154811061293957612939613630565b6000918252602080832090910192909255918252600188019052604090208390555b855486908061296c5761296c613c25565b600190038181906000526020600020016000905590558560010160008681526020019081526020016000206000905560019350505050610699565b6000915050610699565b6001600160a01b038216612a075760405162461bcd60e51b815260206004820181905260248201527f4552433732313a206d696e7420746f20746865207a65726f2061646472657373604482015260640161087c565b612a10816120f7565b15612a5d5760405162461bcd60e51b815260206004820152601c60248201527f4552433732313a20746f6b656e20616c7265616479206d696e74656400000000604482015260640161087c565b612a6960008383612102565b6001600160a01b0382166000908152606860205260408120805460019290612a92908490613a2d565b909155505060008181526067602052604080822080546001600160a01b0319166001600160a01b03861690811790915590518392907fddf252ad1be2c89b69c2b068fc378daa952ba7f163c4a11628f55a4df523b3ef908290a45050565b600061069982612b1e565b60008181526001830160205260408120541515611258565b61091d838383612b43565b60006001600160e01b0319821663780e9d6360e01b1480610699575061069982612bfb565b6001600160a01b038316612b9e57612b9981609980546000838152609a60205260408120829055600182018355919091527f72a152ddfb8e864297c917af52ea6c1c68aead0fee1a62673fcc7e0c94979d000155565b612bc1565b816001600160a01b0316836001600160a01b031614612bc157612bc18382612c4b565b6001600160a01b038216612bd85761091d81612ce8565b826001600160a01b0316826001600160a01b03161461091d5761091d8282612d97565b60006001600160e01b031982166380ac58cd60e01b1480612c2c57506001600160e01b03198216635b5e139f60e01b145b8061069957506301ffc9a760e01b6001600160e01b0319831614610699565b60006001612c5884610ebc565b612c629190613a16565b600083815260986020526040902054909150808214612cb5576001600160a01b03841660009081526097602090815260408083208584528252808320548484528184208190558352609890915290208190555b5060009182526098602090815260408084208490556001600160a01b039094168352609781528383209183525290812055565b609954600090612cfa90600190613a16565b6000838152609a602052604081205460998054939450909284908110612d2257612d22613630565b906000526020600020015490508060998381548110612d4357612d43613630565b6000918252602080832090910192909255828152609a90915260408082208490558582528120556099805480612d7b57612d7b613c25565b6001900381819060005260206000200160009055905550505050565b6000612da283610ebc565b6001600160a01b039093166000908152609760209081526040808320868452825280832085905593825260989052919091209190915550565b828054612de7906135a7565b90600052602060002090601f016020900481019282612e095760008555612e4f565b82601f10612e2257805160ff1916838001178555612e4f565b82800160010185558215612e4f579182015b82811115612e4f578251825591602001919060010190612e34565b50612e5b929150612e95565b5090565b508054612e6b906135a7565b6000825580601f10612e7b575050565b601f016020900490600052602060002090810190610c0c91905b5b80821115612e5b5760008155600101612e96565b6001600160e01b031981168114610c0c57600080fd5b600060208284031215612ed257600080fd5b813561125881612eaa565b60005b83811015612ef8578181015183820152602001612ee0565b83811115610ce05750506000910152565b60008151808452612f21816020860160208601612edd565b601f01601f19169290920160200192915050565b6020815260006112586020830184612f09565b60008060408385031215612f5b57600080fd5b50508035926020909101359150565b600060208284031215612f7c57600080fd5b5035919050565b80356001600160a01b0381168114612f9a57600080fd5b919050565b60008060408385031215612fb257600080fd5b612fbb83612f83565b946020939093013593505050565b600080600060608486031215612fde57600080fd5b612fe784612f83565b9250612ff560208501612f83565b9150604084013590509250925092565b6000806040838503121561301857600080fd5b8235915061302860208401612f83565b90509250929050565b634e487b7160e01b600052604160045260246000fd5b604051601f8201601f191681016001600160401b038111828210171561306f5761306f613031565b604052919050565b600082601f83011261308857600080fd5b813560206001600160401b038211156130a3576130a3613031565b8160051b6130b2828201613047565b92835284810182019282810190878511156130cc57600080fd5b83870192505b848310156130eb578235825291830191908301906130d2565b979650505050505050565b6000806040838503121561310957600080fd5b82356001600160401b0381111561311f57600080fd5b61312b85828601613077565b95602094909401359450505050565b6000602080830181845280855180835260408601915060408160051b870101925083870160005b8281101561318f57603f1988860301845261317d858351612f09565b94509285019290850190600101613161565b5092979650505050505050565b6000806000606084860312156131b157600080fd5b505081359360208301359350604090920135919050565b600080604083850312156131db57600080fd5b6131e483612f83565b915060208301356001600160401b038111156131ff57600080fd5b61320b85828601613077565b9150509250929050565b60006001600160401b0383111561322e5761322e613031565b613241601f8401601f1916602001613047565b905082815283838301111561325557600080fd5b828260208301376000602084830101529392505050565b600082601f83011261327d57600080fd5b61125883833560208501613215565b60006020828403121561329e57600080fd5b81356001600160401b038111156132b457600080fd5b6119bc8482850161326c565b6000602082840312156132d257600080fd5b81356001600160401b038111156132e857600080fd5b6119bc84828501613077565b60006020828403121561330657600080fd5b61125882612f83565b6020808252825182820181905260009190848201906040850190845b818110156133475783518352928401929184019160010161332b565b50909695505050505050565b6000806040838503121561336657600080fd5b8235915060208301356001600160401b038111156131ff57600080fd5b6000806040838503121561339657600080fd5b61339f83612f83565b9150602083013580151581146133b457600080fd5b809150509250929050565b600080600080608085870312156133d557600080fd5b5050823594602084013594506040840135936060013592509050565b6000806000806080858703121561340757600080fd5b61341085612f83565b935061341e60208601612f83565b92506040850135915060608501356001600160401b0381111561344057600080fd5b8501601f8101871361345157600080fd5b61346087823560208401613215565b91505092959194509250565b60008060006060848603121561348157600080fd5b833592506020840135915060408401356001600160401b038111156134a557600080fd5b6134b186828701613077565b9150509250925092565b6000806000606084860312156134d057600080fd5b83356001600160401b03808211156134e757600080fd5b6134f387838801613077565b9450602086013591508082111561350957600080fd5b61351587838801613077565b9350604086013591508082111561352b57600080fd5b506134b186828701613077565b6000806040838503121561354b57600080fd5b61355483612f83565b915061302860208401612f83565b60008060006060848603121561357757600080fd5b833592506020840135915060408401356001600160401b0381111561359b57600080fd5b6134b18682870161326c565b600181811c908216806135bb57607f821691505b602082108114156135dc57634e487b7160e01b600052602260045260246000fd5b50919050565b6020808252602e908201527f4552433732313a2063616c6c6572206973206e6f7420746f6b656e206f776e6560408201526d1c881b9bdc88185c1c1c9bdd995960921b606082015260800190565b634e487b7160e01b600052603260045260246000fd5b634e487b7160e01b600052601160045260246000fd5b600060001982141561367057613670613646565b5060010190565b60008151613689818560208601612edd565b9290920192915050565b600080845481600182811c9150808316806136af57607f831692505b60208084108214156136cf57634e487b7160e01b86526022600452602486fd5b8180156136e357600181146136f457613721565b60ff19861689528489019650613721565b60008b81526020902060005b868110156137195781548b820152908501908301613700565b505084890196505b5050505050506137318185613677565b95945050505050565b7f226e616d65223a2022436f736d69632049736c616e64204c616e6420506c6f74815261202360f01b60208201526000835161377d816022850160208801612edd565b6201116160ed1b60229184019182018190527f226465736372697074696f6e223a20224c616e6420706c6f74206f6e20436f7360258301526c036b4b19024b9b630b73211161609d1b6045830152691134b6b0b3b2911d101160b11b605283015284516137f181605c850160208901612edd565b605c920191820152605f01949350505050565b6e2261747472696275746573223a205b60881b81526000607b60f81b80600f8401527f2274726169745f74797065223a20226c61746974756465222c200000000000006010840152680113b30b63ab2911d160bd1b80602a8501528651613872816033870160208b01612edd565b80850190506203e96160ed1b60338201528260368201527f2274726169745f74797065223a20226c6f6e676974756465222c2000000000006037820152816052820152865192506138ca83605b830160208a01612edd565b61395f61395261394561393f61392a6139016138f4605b8a8901016203e96160ed1b815260030190565b607b60f81b815260010190565b7f2274726169745f74797065223a2022726567696f6e222c200000000000000000815260180190565b680113b30b63ab2911d160bd1b815260090190565b89613677565b607d60f81b815260010190565b605d60f81b815260010190565b98975050505050505050565b607b60f81b815260008351613987816001850160208801612edd565b83519083019061399e816001840160208801612edd565b607d60f81b60019290910191820152600201949350505050565b7f646174613a6170706c69636174696f6e2f6a736f6e3b6261736536342c0000008152600082516139f081601d850160208701612edd565b91909101601d0192915050565b8281526040602082015260006119bc6040830184612f09565b600082821015613a2857613a28613646565b500390565b60008219821115613a4057613a40613646565b500190565b6020808252602b908201527f496e697469616c697a61626c653a20636f6e7472616374206973206e6f74206960408201526a6e697469616c697a696e6760a81b606082015260800190565b60208082526032908201527f4552433732313a207472616e7366657220746f206e6f6e20455243373231526560408201527131b2b4bb32b91034b6b83632b6b2b73a32b960711b606082015260800190565b634e487b7160e01b600052601260045260246000fd5b600082613b0757613b07613ae2565b500490565b600082613b1b57613b1b613ae2565b500690565b6000816000190483118215151615613b3a57613b3a613646565b500290565b7f416363657373436f6e74726f6c3a206163636f756e7420000000000000000000815260008351613b77816017850160208801612edd565b7001034b99036b4b9b9b4b733903937b6329607d1b6017918401918201528351613ba8816028840160208801612edd565b01602801949350505050565b6001600160a01b0385811682528416602082015260408101839052608060608201819052600090613be790830184612f09565b9695505050505050565b600060208284031215613c0357600080fd5b815161125881612eaa565b600081613c1d57613c1d613646565b506000190190565b634e487b7160e01b600052603160045260246000fdfe4142434445464748494a4b4c4d4e4f505152535455565758595a6162636465666768696a6b6c6d6e6f707172737475767778797a303132333435363738392b2f9f2df0fed2c77648de5860a4cc508cd0818c85b8b8a1ab4ceeef8d981c8956a6a49807205ce4d355092ef5a8a18f56e8913cf4a201fbe287825b095693c21775a2646970667358221220587ee8c41f3aee28dc21fa16e135b0180d7f64d90db151fbcf512d830a16d96364736f6c63430008090033",
  "linkReferences": {},
  "deployedLinkReferences": {}
}