{
  "_format": "hh-sol-artifact-1",
  "contractName": "CosmicIslandLandUpgradeable",
  "sourceName": "contracts/upgradeable/ERC721/CosmicIslandLandUpgradeable.sol",
  "abi": [
    {
      "inputs": [],
      "stateMutability": "nonpayable",
      "type": "constructor"
    },
    {
      "anonymous": false,
      "inputs": [
        {
          "indexed": true,
          "internalType": "address",
          "name": "owner",
          "type": "address"
        },
        {
          "indexed": true,
          "internalType": "address",
          "name": "approved",
          "type": "address"
        },
        {
          "indexed": true,
          "internalType": "uint256",
          "name": "tokenId",
          "type": "uint256"
        }
      ],
      "name": "Approval",
      "type": "event"
    },
    {
      "anonymous": false,
      "inputs": [
        {
          "indexed": true,
          "internalType": "address",
          "name": "owner",
          "type": "address"
        },
        {
          "indexed": true,
          "internalType": "address",
          "name": "operator",
          "type": "address"
        },
        {
          "indexed": false,
          "internalType": "bool",
          "name": "approved",
          "type": "bool"
        }
      ],
      "name": "ApprovalForAll",
      "type": "event"
    },
    {
      "anonymous": false,
      "inputs": [
        {
          "indexed": false,
          "internalType": "uint8",
          "name": "version",
          "type": "uint8"
        }
      ],
      "name": "Initialized",
      "type": "event"
    },
    {
      "anonymous": false,
      "inputs": [
        {
          "indexed": false,
          "internalType": "address",
          "name": "account",
          "type": "address"
        }
      ],
      "name": "Paused",
      "type": "event"
    },
    {
      "anonymous": false,
      "inputs": [
        {
          "indexed": true,
          "internalType": "bytes32",
          "name": "role",
          "type": "bytes32"
        },
        {
          "indexed": true,
          "internalType": "bytes32",
          "name": "previousAdminRole",
          "type": "bytes32"
        },
        {
          "indexed": true,
          "internalType": "bytes32",
          "name": "newAdminRole",
          "type": "bytes32"
        }
      ],
      "name": "RoleAdminChanged",
      "type": "event"
    },
    {
      "anonymous": false,
      "inputs": [
        {
          "indexed": true,
          "internalType": "bytes32",
          "name": "role",
          "type": "bytes32"
        },
        {
          "indexed": true,
          "internalType": "address",
          "name": "account",
          "type": "address"
        },
        {
          "indexed": true,
          "internalType": "address",
          "name": "sender",
          "type": "address"
        }
      ],
      "name": "RoleGranted",
      "type": "event"
    },
    {
      "anonymous": false,
      "inputs": [
        {
          "indexed": true,
          "internalType": "bytes32",
          "name": "role",
          "type": "bytes32"
        },
        {
          "indexed": true,
          "internalType": "address",
          "name": "account",
          "type": "address"
        },
        {
          "indexed": true,
          "internalType": "address",
          "name": "sender",
          "type": "address"
        }
      ],
      "name": "RoleRevoked",
      "type": "event"
    },
    {
      "anonymous": false,
      "inputs": [
        {
          "indexed": true,
          "internalType": "uint256",
          "name": "tokenId",
          "type": "uint256"
        },
        {
          "indexed": false,
          "internalType": "uint256",
          "name": "customId",
          "type": "uint256"
        },
        {
          "indexed": false,
          "internalType": "string",
          "name": "value",
          "type": "string"
        }
      ],
      "name": "TextUpdated",
      "type": "event"
    },
    {
      "anonymous": false,
      "inputs": [
        {
          "indexed": true,
          "internalType": "address",
          "name": "from",
          "type": "address"
        },
        {
          "indexed": true,
          "internalType": "address",
          "name": "to",
          "type": "address"
        },
        {
          "indexed": true,
          "internalType": "uint256",
          "name": "tokenId",
          "type": "uint256"
        }
      ],
      "name": "Transfer",
      "type": "event"
    },
    {
      "anonymous": false,
      "inputs": [
        {
          "indexed": false,
          "internalType": "address",
          "name": "account",
          "type": "address"
        }
      ],
      "name": "Unpaused",
      "type": "event"
    },
    {
      "anonymous": false,
      "inputs": [
        {
          "indexed": true,
          "internalType": "uint256",
          "name": "tokenId",
          "type": "uint256"
        },
        {
          "indexed": false,
          "internalType": "uint256",
          "name": "treeId",
          "type": "uint256"
        },
        {
          "indexed": false,
          "internalType": "uint256",
          "name": "skillId",
          "type": "uint256"
        },
        {
          "indexed": false,
          "internalType": "uint256",
          "name": "value",
          "type": "uint256"
        }
      ],
      "name": "ValueUpdated",
      "type": "event"
    },
    {
      "inputs": [],
      "name": "ADMIN_ROLE",
      "outputs": [
        {
          "internalType": "bytes32",
          "name": "",
          "type": "bytes32"
        }
      ],
      "stateMutability": "view",
      "type": "function"
    },
    {
      "inputs": [],
      "name": "CONTRACT_ROLE",
      "outputs": [
        {
          "internalType": "bytes32",
          "name": "",
          "type": "bytes32"
        }
      ],
      "stateMutability": "view",
      "type": "function"
    },
    {
      "inputs": [],
      "name": "DEFAULT_ADMIN_ROLE",
      "outputs": [
        {
          "internalType": "bytes32",
          "name": "",
          "type": "bytes32"
        }
      ],
      "stateMutability": "view",
      "type": "function"
    },
    {
      "inputs": [],
      "name": "MINTER_ROLE",
      "outputs": [
        {
          "internalType": "bytes32",
          "name": "",
          "type": "bytes32"
        }
      ],
      "stateMutability": "view",
      "type": "function"
    },
    {
      "inputs": [
        {
          "internalType": "address",
          "name": "to",
          "type": "address"
        },
        {
          "internalType": "uint256",
          "name": "tokenId",
          "type": "uint256"
        }
      ],
      "name": "approve",
      "outputs": [],
      "stateMutability": "nonpayable",
      "type": "function"
    },
    {
      "inputs": [
        {
          "internalType": "address",
          "name": "owner",
          "type": "address"
        }
      ],
      "name": "balanceOf",
      "outputs": [
        {
          "internalType": "uint256",
          "name": "",
          "type": "uint256"
        }
      ],
      "stateMutability": "view",
      "type": "function"
    },
    {
      "inputs": [
        {
          "internalType": "address",
          "name": "to",
          "type": "address"
        },
        {
          "internalType": "uint256[]",
          "name": "tokenIds",
          "type": "uint256[]"
        }
      ],
      "name": "batchMint",
      "outputs": [],
      "stateMutability": "nonpayable",
      "type": "function"
    },
    {
      "inputs": [
        {
          "internalType": "uint256[]",
          "name": "tokenIds",
          "type": "uint256[]"
        }
      ],
      "name": "batchTokenURI",
      "outputs": [
        {
          "internalType": "string[]",
          "name": "",
          "type": "string[]"
        }
      ],
      "stateMutability": "view",
      "type": "function"
    },
    {
      "inputs": [
        {
          "internalType": "address",
          "name": "from",
          "type": "address"
        },
        {
          "internalType": "address",
          "name": "to",
          "type": "address"
        },
        {
          "internalType": "uint256[]",
          "name": "tokenIds",
          "type": "uint256[]"
        }
      ],
      "name": "batchTransferFrom",
      "outputs": [],
      "stateMutability": "nonpayable",
      "type": "function"
    },
    {
      "inputs": [
        {
          "internalType": "uint256",
          "name": "tokenId",
          "type": "uint256"
        }
      ],
      "name": "burn",
      "outputs": [],
      "stateMutability": "nonpayable",
      "type": "function"
    },
    {
      "inputs": [],
      "name": "getAllTokenIds",
      "outputs": [
        {
          "internalType": "uint256[]",
          "name": "",
          "type": "uint256[]"
        }
      ],
      "stateMutability": "view",
      "type": "function"
    },
    {
      "inputs": [
        {
          "internalType": "uint256",
          "name": "tokenId",
          "type": "uint256"
        }
      ],
      "name": "getApproved",
      "outputs": [
        {
          "internalType": "address",
          "name": "",
          "type": "address"
        }
      ],
      "stateMutability": "view",
      "type": "function"
    },
    {
      "inputs": [
        {
          "internalType": "bytes32",
          "name": "role",
          "type": "bytes32"
        }
      ],
      "name": "getRoleAdmin",
      "outputs": [
        {
          "internalType": "bytes32",
          "name": "",
          "type": "bytes32"
        }
      ],
      "stateMutability": "view",
      "type": "function"
    },
    {
      "inputs": [
        {
          "internalType": "bytes32",
          "name": "role",
          "type": "bytes32"
        },
        {
          "internalType": "uint256",
          "name": "index",
          "type": "uint256"
        }
      ],
      "name": "getRoleMember",
      "outputs": [
        {
          "internalType": "address",
          "name": "",
          "type": "address"
        }
      ],
      "stateMutability": "view",
      "type": "function"
    },
    {
      "inputs": [
        {
          "internalType": "bytes32",
          "name": "role",
          "type": "bytes32"
        }
      ],
      "name": "getRoleMemberCount",
      "outputs": [
        {
          "internalType": "uint256",
          "name": "",
          "type": "uint256"
        }
      ],
      "stateMutability": "view",
      "type": "function"
    },
    {
      "inputs": [
        {
          "internalType": "uint256",
          "name": "tokenId",
          "type": "uint256"
        },
        {
          "internalType": "uint256",
          "name": "treeId",
          "type": "uint256"
        },
        {
          "internalType": "uint256",
          "name": "skillId",
          "type": "uint256"
        }
      ],
      "name": "getSkill",
      "outputs": [
        {
          "internalType": "uint256",
          "name": "value",
          "type": "uint256"
        }
      ],
      "stateMutability": "view",
      "type": "function"
    },
    {
      "inputs": [
        {
          "internalType": "uint256",
          "name": "tokenId",
          "type": "uint256"
        },
        {
          "internalType": "uint256",
          "name": "treeId",
          "type": "uint256"
        },
        {
          "internalType": "uint256[]",
          "name": "skillIds",
          "type": "uint256[]"
        }
      ],
      "name": "getSkillsByTree",
      "outputs": [
        {
          "internalType": "uint256[]",
          "name": "",
          "type": "uint256[]"
        }
      ],
      "stateMutability": "view",
      "type": "function"
    },
    {
      "inputs": [
        {
          "internalType": "uint256",
          "name": "tokenId",
          "type": "uint256"
        },
        {
          "internalType": "uint256",
          "name": "customId",
          "type": "uint256"
        }
      ],
      "name": "getString",
      "outputs": [
        {
          "internalType": "string",
          "name": "value",
          "type": "string"
        }
      ],
      "stateMutability": "view",
      "type": "function"
    },
    {
      "inputs": [
        {
          "internalType": "uint256[]",
          "name": "tokenIds",
          "type": "uint256[]"
        },
        {
          "internalType": "uint256",
          "name": "customId",
          "type": "uint256"
        }
      ],
      "name": "getStringOfTokens",
      "outputs": [
        {
          "internalType": "string[]",
          "name": "",
          "type": "string[]"
        }
      ],
      "stateMutability": "view",
      "type": "function"
    },
    {
      "inputs": [
        {
          "internalType": "uint256",
          "name": "tokenId",
          "type": "uint256"
        },
        {
          "internalType": "uint256[]",
          "name": "customIds",
          "type": "uint256[]"
        }
      ],
      "name": "getStrings",
      "outputs": [
        {
          "internalType": "string[]",
          "name": "",
          "type": "string[]"
        }
      ],
      "stateMutability": "view",
      "type": "function"
    },
    {
      "inputs": [
        {
          "internalType": "bytes32",
          "name": "role",
          "type": "bytes32"
        },
        {
          "internalType": "address",
          "name": "account",
          "type": "address"
        }
      ],
      "name": "grantRole",
      "outputs": [],
      "stateMutability": "nonpayable",
      "type": "function"
    },
    {
      "inputs": [
        {
          "internalType": "bytes32",
          "name": "role",
          "type": "bytes32"
        },
        {
          "internalType": "address",
          "name": "account",
          "type": "address"
        }
      ],
      "name": "hasRole",
      "outputs": [
        {
          "internalType": "bool",
          "name": "",
          "type": "bool"
        }
      ],
      "stateMutability": "view",
      "type": "function"
    },
    {
      "inputs": [],
      "name": "imageBaseURI",
      "outputs": [
        {
          "internalType": "string",
          "name": "",
          "type": "string"
        }
      ],
      "stateMutability": "view",
      "type": "function"
    },
    {
      "inputs": [],
      "name": "initialize",
      "outputs": [],
      "stateMutability": "nonpayable",
      "type": "function"
    },
    {
      "inputs": [
        {
          "internalType": "address",
          "name": "owner",
          "type": "address"
        },
        {
          "internalType": "address",
          "name": "operator",
          "type": "address"
        }
      ],
      "name": "isApprovedForAll",
      "outputs": [
        {
          "internalType": "bool",
          "name": "",
          "type": "bool"
        }
      ],
      "stateMutability": "view",
      "type": "function"
    },
    {
      "inputs": [
        {
          "internalType": "address",
          "name": "to",
          "type": "address"
        },
        {
          "internalType": "uint256",
          "name": "tokenId",
          "type": "uint256"
        }
      ],
      "name": "mint",
      "outputs": [],
      "stateMutability": "nonpayable",
      "type": "function"
    },
    {
      "inputs": [],
      "name": "name",
      "outputs": [
        {
          "internalType": "string",
          "name": "",
          "type": "string"
        }
      ],
      "stateMutability": "view",
      "type": "function"
    },
    {
      "inputs": [
        {
          "internalType": "uint256",
          "name": "tokenId",
          "type": "uint256"
        }
      ],
      "name": "ownerOf",
      "outputs": [
        {
          "internalType": "address",
          "name": "",
          "type": "address"
        }
      ],
      "stateMutability": "view",
      "type": "function"
    },
    {
      "inputs": [],
      "name": "pause",
      "outputs": [],
      "stateMutability": "nonpayable",
      "type": "function"
    },
    {
      "inputs": [],
      "name": "paused",
      "outputs": [
        {
          "internalType": "bool",
          "name": "",
          "type": "bool"
        }
      ],
      "stateMutability": "view",
      "type": "function"
    },
    {
      "inputs": [
        {
          "internalType": "bytes32",
          "name": "role",
          "type": "bytes32"
        },
        {
          "internalType": "address",
          "name": "account",
          "type": "address"
        }
      ],
      "name": "renounceRole",
      "outputs": [],
      "stateMutability": "nonpayable",
      "type": "function"
    },
    {
      "inputs": [
        {
          "internalType": "bytes32",
          "name": "role",
          "type": "bytes32"
        },
        {
          "internalType": "address",
          "name": "account",
          "type": "address"
        }
      ],
      "name": "revokeRole",
      "outputs": [],
      "stateMutability": "nonpayable",
      "type": "function"
    },
    {
      "inputs": [
        {
          "internalType": "address",
          "name": "from",
          "type": "address"
        },
        {
          "internalType": "address",
          "name": "to",
          "type": "address"
        },
        {
          "internalType": "uint256",
          "name": "tokenId",
          "type": "uint256"
        }
      ],
      "name": "safeTransferFrom",
      "outputs": [],
      "stateMutability": "nonpayable",
      "type": "function"
    },
    {
      "inputs": [
        {
          "internalType": "address",
          "name": "from",
          "type": "address"
        },
        {
          "internalType": "address",
          "name": "to",
          "type": "address"
        },
        {
          "internalType": "uint256",
          "name": "tokenId",
          "type": "uint256"
        },
        {
          "internalType": "bytes",
          "name": "data",
          "type": "bytes"
        }
      ],
      "name": "safeTransferFrom",
      "outputs": [],
      "stateMutability": "nonpayable",
      "type": "function"
    },
    {
      "inputs": [
        {
          "internalType": "address",
          "name": "operator",
          "type": "address"
        },
        {
          "internalType": "bool",
          "name": "approved",
          "type": "bool"
        }
      ],
      "name": "setApprovalForAll",
      "outputs": [],
      "stateMutability": "nonpayable",
      "type": "function"
    },
    {
      "inputs": [
        {
          "internalType": "string",
          "name": "_imageBaseURI",
          "type": "string"
        }
      ],
      "name": "setImageBaseURI",
      "outputs": [],
      "stateMutability": "nonpayable",
      "type": "function"
    },
    {
      "inputs": [
        {
          "internalType": "uint256",
          "name": "tokenId",
          "type": "uint256"
        },
        {
          "internalType": "uint256",
          "name": "attrId",
          "type": "uint256"
        },
        {
          "internalType": "uint256",
          "name": "value",
          "type": "uint256"
        }
      ],
      "name": "setTokenURI",
      "outputs": [],
      "stateMutability": "nonpayable",
      "type": "function"
    },
    {
      "inputs": [
        {
          "internalType": "uint256[]",
          "name": "tokenIds",
          "type": "uint256[]"
        },
        {
          "internalType": "uint256[]",
          "name": "attrIds",
          "type": "uint256[]"
        },
        {
          "internalType": "uint256[]",
          "name": "values",
          "type": "uint256[]"
        }
      ],
      "name": "setTokenURIs",
      "outputs": [],
      "stateMutability": "nonpayable",
      "type": "function"
    },
    {
      "inputs": [
        {
          "internalType": "bytes4",
          "name": "interfaceId",
          "type": "bytes4"
        }
      ],
      "name": "supportsInterface",
      "outputs": [
        {
          "internalType": "bool",
          "name": "",
          "type": "bool"
        }
      ],
      "stateMutability": "view",
      "type": "function"
    },
    {
      "inputs": [],
      "name": "symbol",
      "outputs": [
        {
          "internalType": "string",
          "name": "",
          "type": "string"
        }
      ],
      "stateMutability": "view",
      "type": "function"
    },
    {
      "inputs": [
        {
          "internalType": "uint256",
          "name": "index",
          "type": "uint256"
        }
      ],
      "name": "tokenByIndex",
      "outputs": [
        {
          "internalType": "uint256",
          "name": "",
          "type": "uint256"
        }
      ],
      "stateMutability": "view",
      "type": "function"
    },
    {
      "inputs": [
        {
          "internalType": "address",
          "name": "owner",
          "type": "address"
        },
        {
          "internalType": "uint256",
          "name": "index",
          "type": "uint256"
        }
      ],
      "name": "tokenOfOwnerByIndex",
      "outputs": [
        {
          "internalType": "uint256",
          "name": "",
          "type": "uint256"
        }
      ],
      "stateMutability": "view",
      "type": "function"
    },
    {
      "inputs": [
        {
          "internalType": "uint256",
          "name": "tokenId",
          "type": "uint256"
        }
      ],
      "name": "tokenURI",
      "outputs": [
        {
          "internalType": "string",
          "name": "",
          "type": "string"
        }
      ],
      "stateMutability": "view",
      "type": "function"
    },
    {
      "inputs": [
        {
          "internalType": "address",
          "name": "owner",
          "type": "address"
        }
      ],
      "name": "tokensOfOwner",
      "outputs": [
        {
          "internalType": "uint256[]",
          "name": "",
          "type": "uint256[]"
        }
      ],
      "stateMutability": "view",
      "type": "function"
    },
    {
      "inputs": [],
      "name": "totalSupply",
      "outputs": [
        {
          "internalType": "uint256",
          "name": "",
          "type": "uint256"
        }
      ],
      "stateMutability": "view",
      "type": "function"
    },
    {
      "inputs": [
        {
          "internalType": "address",
          "name": "from",
          "type": "address"
        },
        {
          "internalType": "address",
          "name": "to",
          "type": "address"
        },
        {
          "internalType": "uint256",
          "name": "tokenId",
          "type": "uint256"
        }
      ],
      "name": "transferFrom",
      "outputs": [],
      "stateMutability": "nonpayable",
      "type": "function"
    },
    {
      "inputs": [],
      "name": "unpause",
      "outputs": [],
      "stateMutability": "nonpayable",
      "type": "function"
    },
    {
      "inputs": [
        {
          "internalType": "uint256",
          "name": "tokenId",
          "type": "uint256"
        },
        {
          "internalType": "uint256",
          "name": "treeId",
          "type": "uint256"
        },
        {
          "internalType": "uint256",
          "name": "skillId",
          "type": "uint256"
        },
        {
          "internalType": "uint256",
          "name": "value",
          "type": "uint256"
        }
      ],
      "name": "updateSkill",
      "outputs": [],
      "stateMutability": "nonpayable",
      "type": "function"
    },
    {
      "inputs": [
        {
          "internalType": "uint256",
          "name": "tokenId",
          "type": "uint256"
        },
        {
          "internalType": "uint256",
          "name": "customId",
          "type": "uint256"
        },
        {
          "internalType": "string",
          "name": "value",
          "type": "string"
        }
      ],
      "name": "updateString",
      "outputs": [],
      "stateMutability": "nonpayable",
      "type": "function"
    }
  ],
  "bytecode": "0x60806040523480156200001157600080fd5b506200001c62000022565b620000e4565b600054610100900460ff16156200008f5760405162461bcd60e51b815260206004820152602760248201527f496e697469616c697a61626c653a20636f6e747261637420697320696e697469604482015266616c697a696e6760c81b606482015260840160405180910390fd5b60005460ff9081161015620000e2576000805460ff191660ff9081179091556040519081527f7f26b83ff96e1f2b6a682f133852f6798a09c465da95921460cefb38474024989060200160405180910390a15b565b613f3580620000f46000396000f3fe608060405234801561001057600080fd5b50600436106102bb5760003560e01c806370a0823111610182578063b5afb120116100e9578063d5391393116100a2578063e3a829fe1161007c578063e3a829fe1461065a578063e985e9c51461066d578063ed0af209146106a9578063f3993d11146106bc57600080fd5b8063d53913931461061f578063d547741f14610634578063dd69f3f71461064757600080fd5b8063b5afb120146105b8578063b88d4fde146105cb578063bdbed722146105de578063c7e05590146105e6578063c87b56dd146105f9578063ca15c8731461060c57600080fd5b80639010d07c1161013b5780639010d07c1461055c57806391d148541461056f57806395d89b41146105825780639e8afe471461058a578063a217fddf1461059d578063a22cb465146105a557600080fd5b806370a08231146104fc57806375b238fc1461050f57806377645839146105245780638129fc1c1461052c5780638456cb59146105345780638462151c1461053c57600080fd5b806336568abe116102265780634684d7e9116101df5780634684d7e9146104915780634f6ccce7146104a45780635c975abb146104b75780636352211e146104c35780636cfa24cc146104d65780636d94f13a146104e957600080fd5b806336568abe1461040a5780633f4ba83a1461041d57806340c10f191461042557806342842e0e1461043857806342966c681461044b5780634594762a1461045e57600080fd5b806318160ddd1161027857806318160ddd1461038557806323b872dd1461038d578063248a9ca3146103a05780632f2ff15d146103c45780632f745c59146103d7578063352b7533146103ea57600080fd5b806301ffc9a7146102c057806303fe46ab146102e857806306fdde031461031d578063079be49314610332578063081812fc14610345578063095ea7b314610370575b600080fd5b6102d36102ce366004612f99565b6106cf565b60405190151581526020015b60405180910390f35b61030f7f364d3d7565c7a8300c96fd53e065d19b65848d7b23b3191adcd55621c744223c81565b6040519081526020016102df565b6103256106e0565b6040516102df9190613006565b610325610340366004613019565b610772565b61035861035336600461303b565b610821565b6040516001600160a01b0390911681526020016102df565b61038361037e366004613070565b610848565b005b60995461030f565b61038361039b36600461309a565b610962565b61030f6103ae36600461303b565b600090815261015f602052604090206001015490565b6103836103d23660046130d6565b610994565b61030f6103e5366004613070565b6109ba565b6103fd6103f83660046131c7565b610a50565b6040516102df919061320b565b6103836104183660046130d6565b610bae565b610383610c2c565b610383610433366004613070565b610c4f565b61038361044636600461309a565b610c71565b61038361045936600461303b565b610c8c565b61030f61046c36600461326d565b600092835261025c602090815260408085209385529281528284209184525290205490565b61038361049f366004613299565b610cc7565b61030f6104b236600461303b565b610d26565b61012d5460ff166102d3565b6103586104d136600461303b565b610db9565b6103836104e436600461335d565b610e19565b6103fd6104f7366004613391565b610e3d565b61030f61050a3660046133c5565b610ef5565b61030f600080516020613ee083398151915281565b610325610f7b565b610383611009565b6103836111bf565b61054f61054a3660046133c5565b6111df565b6040516102df91906133e0565b61035861056a366004613019565b611278565b6102d361057d3660046130d6565b611298565b6103256112c4565b6103fd610598366004613424565b6112d3565b61030f600081565b6103836105b3366004613454565b611429565b6103836105c6366004613490565b611434565b6103836105d93660046134c2565b6114cb565b61054f6114fd565b61054f6105f436600461353d565b6115e7565b61032561060736600461303b565b6116bc565b61030f61061a36600461303b565b611806565b61030f600080516020613ec083398151915281565b6103836106423660046130d6565b61181e565b61038361065536600461358c565b611844565b61038361066836600461326d565b6118f7565b6102d361067b366004613609565b6001600160a01b039182166000908152606a6020908152604080832093909416825291909152205460ff1690565b6103836106b7366004613633565b61192d565b6103836106ca366004613678565b6119bc565b60006106da826119fe565b92915050565b6060606580546106ef906136bf565b80601f016020809104026020016040519081016040528092919081815260200182805461071b906136bf565b80156107685780601f1061073d57610100808354040283529160200191610768565b820191906000526020600020905b81548152906001019060200180831161074b57829003601f168201915b5050505050905090565b600082815261025d60209081526040808320848452909152902080546060919061079b906136bf565b80601f01602080910402602001604051908101604052809291908181526020018280546107c7906136bf565b80156108145780601f106107e957610100808354040283529160200191610814565b820191906000526020600020905b8154815290600101906020018083116107f757829003601f168201915b5050505050905092915050565b600061082c82611a09565b506000908152606960205260409020546001600160a01b031690565b600061085382610db9565b9050806001600160a01b0316836001600160a01b0316036108c55760405162461bcd60e51b815260206004820152602160248201527f4552433732313a20617070726f76616c20746f2063757272656e74206f776e656044820152603960f91b60648201526084015b60405180910390fd5b336001600160a01b03821614806108e157506108e1813361067b565b6109535760405162461bcd60e51b815260206004820152603e60248201527f4552433732313a20617070726f76652063616c6c6572206973206e6f7420746f60448201527f6b656e206f776e6572206e6f7220617070726f76656420666f7220616c6c000060648201526084016108bc565b61095d8383611a59565b505050565b61096d335b82611ac7565b6109895760405162461bcd60e51b81526004016108bc906136f9565b61095d838383611b46565b600082815261015f60205260409020600101546109b081611ced565b61095d8383611cf7565b60006109c583610ef5565b8210610a275760405162461bcd60e51b815260206004820152602b60248201527f455243373231456e756d657261626c653a206f776e657220696e646578206f7560448201526a74206f6620626f756e647360a81b60648201526084016108bc565b506001600160a01b03919091166000908152609760209081526040808320938352929052205490565b6060600083516001600160401b03811115610a6d57610a6d613102565b604051908082528060200260200182016040528015610aa057816020015b6060815260200190600190039081610a8b5790505b50905060005b8451811015610ba65761025d6000868381518110610ac657610ac6613747565b6020026020010151815260200190815260200160002060008581526020019081526020016000208054610af8906136bf565b80601f0160208091040260200160405190810160405280929190818152602001828054610b24906136bf565b8015610b715780601f10610b4657610100808354040283529160200191610b71565b820191906000526020600020905b815481529060010190602001808311610b5457829003601f168201915b5050505050828281518110610b8857610b88613747565b60200260200101819052508080610b9e90613773565b915050610aa6565b509392505050565b6001600160a01b0381163314610c1e5760405162461bcd60e51b815260206004820152602f60248201527f416363657373436f6e74726f6c3a2063616e206f6e6c792072656e6f756e636560448201526e103937b632b9903337b91039b2b63360891b60648201526084016108bc565b610c288282611d1a565b5050565b600080516020613ee0833981519152610c4481611ced565b610c4c611d3d565b50565b600080516020613ec0833981519152610c6781611ced565b61095d8383611d90565b61095d838383604051806020016040528060008152506114cb565b610c9533610967565b610cb15760405162461bcd60e51b81526004016108bc906136f9565b610cbd6101f582611daa565b50610c4c81611db6565b600080516020613ec0833981519152610cdf81611ced565b60005b8251811015610d2057610d0e84848381518110610d0157610d01613747565b6020026020010151611d90565b80610d1881613773565b915050610ce2565b50505050565b6000610d3160995490565b8210610d945760405162461bcd60e51b815260206004820152602c60248201527f455243373231456e756d657261626c653a20676c6f62616c20696e646578206f60448201526b7574206f6620626f756e647360a01b60648201526084016108bc565b60998281548110610da757610da7613747565b90600052602060002001549050919050565b6000818152606760205260408120546001600160a01b0316806106da5760405162461bcd60e51b8152602060048201526018602482015277115490cdcc8c4e881a5b9d985b1a59081d1bdad95b88125160421b60448201526064016108bc565b600080516020613ee0833981519152610e3181611ced565b60fc61095d83826137da565b6060600082516001600160401b03811115610e5a57610e5a613102565b604051908082528060200260200182016040528015610e8d57816020015b6060815260200190600190039081610e785790505b50905060005b8351811015610eee57610ebe848281518110610eb157610eb1613747565b60200260200101516116bc565b828281518110610ed057610ed0613747565b60200260200101819052508080610ee690613773565b915050610e93565b5092915050565b60006001600160a01b038216610f5f5760405162461bcd60e51b815260206004820152602960248201527f4552433732313a2061646472657373207a65726f206973206e6f7420612076616044820152683634b21037bbb732b960b91b60648201526084016108bc565b506001600160a01b031660009081526068602052604090205490565b60fc8054610f88906136bf565b80601f0160208091040260200160405190810160405280929190818152602001828054610fb4906136bf565b80156110015780601f10610fd657610100808354040283529160200191611001565b820191906000526020600020905b815481529060010190602001808311610fe457829003601f168201915b505050505081565b600054610100900460ff16158080156110295750600054600160ff909116105b806110435750303b158015611043575060005460ff166001145b6110a65760405162461bcd60e51b815260206004820152602e60248201527f496e697469616c697a61626c653a20636f6e747261637420697320616c72656160448201526d191e481a5b9a5d1a585b1a5e995960921b60648201526084016108bc565b6000805460ff1916600117905580156110c9576000805461ff0019166101001790555b6111146040518060400160405280600c81526020016b10dbdcdb5a58d25cdb185b9960a21b8152506040518060400160405280600581526020016410d310539160da1b815250611df6565b61111c611e27565b611124611e58565b61112c611e7f565b611134611e58565b61113c611e27565b611147600033611cf7565b61115f600080516020613ee083398151915233611cf7565b611177600080516020613ec083398151915233611cf7565b8015610c4c576000805461ff0019169055604051600181527f7f26b83ff96e1f2b6a682f133852f6798a09c465da95921460cefb38474024989060200160405180910390a150565b600080516020613ee08339815191526111d781611ced565b610c4c611eae565b606060006111ec83610ef5565b90506000816001600160401b0381111561120857611208613102565b604051908082528060200260200182016040528015611231578160200160208202803683370190505b50905060005b82811015610ba65761124985826109ba565b82828151811061125b5761125b613747565b60209081029190910101528061127081613773565b915050611237565b6000828152610191602052604081206112919083611eec565b9392505050565b600091825261015f602090815260408084206001600160a01b0393909316845291905290205460ff1690565b6060606680546106ef906136bf565b6060600082516001600160401b038111156112f0576112f0613102565b60405190808252806020026020018201604052801561132357816020015b606081526020019060019003908161130e5790505b50905060005b8351811015610ba65761025d6000868152602001908152602001600020600085838151811061135a5761135a613747565b60200260200101518152602001908152602001600020805461137b906136bf565b80601f01602080910402602001604051908101604052809291908181526020018280546113a7906136bf565b80156113f45780601f106113c9576101008083540402835291602001916113f4565b820191906000526020600020905b8154815290600101906020018083116113d757829003601f168201915b505050505082828151811061140b5761140b613747565b6020026020010181905250808061142190613773565b915050611329565b610c28338383611ef8565b7f364d3d7565c7a8300c96fd53e065d19b65848d7b23b3191adcd55621c744223c61145e81611ced565b600085815261025c602090815260408083208784528252808320868452825291829020849055815186815290810185905290810183905285907fc3bdb5f4a3cbb68ce4ebe3dda3660f3067add044dc5be3a047d818fd416663699060600160405180910390a25050505050565b6114d53383611ac7565b6114f15760405162461bcd60e51b81526004016108bc906136f9565b610d2084848484611fc6565b6060600060015b61271081101561153c5761151781611ff9565b1561152a578161152681613773565b9250505b8061153481613773565b915050611504565b506000816001600160401b0381111561155757611557613102565b604051908082528060200260200182016040528015611580578160200160208202803683370190505b509050600060015b6127108110156115de5761159b81611ff9565b156115cc57808383815181106115b3576115b3613747565b6020908102919091010152816115c881613773565b9250505b806115d681613773565b915050611588565b50909392505050565b6060600082516001600160401b0381111561160457611604613102565b60405190808252806020026020018201604052801561162d578160200160208202803683370190505b50905060005b83518110156116b357600086815261025c602090815260408083208884529091528120855190919086908490811061166d5761166d613747565b602002602001015181526020019081526020016000205482828151811061169657611696613747565b6020908102919091010152806116ab81613773565b915050611633565b50949350505050565b600081815261025b60209081526040808320838052909152808220546001835281832054600284529183205460609391929160fc6116f987612004565b60405160200161170a9291906138b5565b6040516020818303038152906040529050600061172687610db9565b9050600061173388612004565b83611746846001600160a01b0316612104565b6040516020016117589392919061393c565b6040516020818303038152906040529050600061177487612004565b61177d87612004565b61178687612004565b60405160200161179893929190613a51565b6040516020818303038152906040529050600082826040516020016117be929190613bb8565b60405160208183030381529060405290506117d88161211a565b6040516020016117e89190613c05565b60405160208183030381529060405298505050505050505050919050565b6000818152610191602052604081206106da9061226c565b600082815261015f602052604090206001015461183a81611ced565b61095d8383611d1a565b600080516020613ee083398151915261185c81611ced565b60005b84518110156118f05782818151811061187a5761187a613747565b602002602001015161025b600087848151811061189957611899613747565b6020026020010151815260200190815260200160002060008684815181106118c3576118c3613747565b602002602001015181526020019081526020016000208190555080806118e890613773565b91505061185f565b5050505050565b600080516020613ee083398151915261190f81611ced565b50600092835261025b60209081526040808520938552929052912055565b7f364d3d7565c7a8300c96fd53e065d19b65848d7b23b3191adcd55621c744223c61195781611ced565b600084815261025d60209081526040808320868452909152902061197b83826137da565b50837fbf91c112c44cd8e958afe3106b290f594b5e23b83fcc88bdb9ac5da7f00be56984846040516119ae929190613c4a565b60405180910390a250505050565b60005b8151811015610d20576119ec84848484815181106119df576119df613747565b6020026020010151610962565b806119f681613773565b9150506119bf565b60006106da82612276565b611a1281611ff9565b610c4c5760405162461bcd60e51b8152602060048201526018602482015277115490cdcc8c4e881a5b9d985b1a59081d1bdad95b88125160421b60448201526064016108bc565b600081815260696020526040902080546001600160a01b0319166001600160a01b0384169081179091558190611a8e82610db9565b6001600160a01b03167f8c5be1e5ebec7d5bd14f71427d1e84f3dd0314c0f7b2291e5b200ac8c7c3b92560405160405180910390a45050565b600080611ad383610db9565b9050806001600160a01b0316846001600160a01b03161480611b1a57506001600160a01b038082166000908152606a602090815260408083209388168352929052205460ff165b80611b3e5750836001600160a01b0316611b3384610821565b6001600160a01b0316145b949350505050565b826001600160a01b0316611b5982610db9565b6001600160a01b031614611bbd5760405162461bcd60e51b815260206004820152602560248201527f4552433732313a207472616e736665722066726f6d20696e636f72726563742060448201526437bbb732b960d91b60648201526084016108bc565b6001600160a01b038216611c1f5760405162461bcd60e51b8152602060048201526024808201527f4552433732313a207472616e7366657220746f20746865207a65726f206164646044820152637265737360e01b60648201526084016108bc565b611c2a83838361229b565b611c35600082611a59565b6001600160a01b0383166000908152606860205260408120805460019290611c5e908490613c63565b90915550506001600160a01b0382166000908152606860205260408120805460019290611c8c908490613c76565b909155505060008181526067602052604080822080546001600160a01b0319166001600160a01b0386811691821790925591518493918716917fddf252ad1be2c89b69c2b068fc378daa952ba7f163c4a11628f55a4df523b3ef91a4505050565b610c4c813361234e565b611d0182826123b2565b60008281526101916020526040902061095d9082612439565b611d24828261244e565b60008281526101916020526040902061095d90826124b6565b611d456124cb565b61012d805460ff191690557f5db9ee0a495bf2e6ff9c91a7834c1ba4fdd244a5e8aa4e537bd38aeae4b073aa335b6040516001600160a01b03909116815260200160405180910390a1565b610c28828260405180602001604052806000815250612515565b60006112918383612548565b611dbf81612597565b600081815260fb602052604090208054611dd8906136bf565b159050610c4c57600081815260fb60205260408120610c4c91612f35565b600054610100900460ff16611e1d5760405162461bcd60e51b81526004016108bc90613c89565b610c28828261263e565b600054610100900460ff16611e4e5760405162461bcd60e51b81526004016108bc90613c89565b611e56611e58565b565b600054610100900460ff16611e565760405162461bcd60e51b81526004016108bc90613c89565b600054610100900460ff16611ea65760405162461bcd60e51b81526004016108bc90613c89565b611e5661267e565b611eb66126b2565b61012d805460ff191660011790557f62e78cea01bee320cd4e420270b5ea74000d11b0c9f74754ebdbfc544b05a258611d733390565b600061129183836126f9565b816001600160a01b0316836001600160a01b031603611f595760405162461bcd60e51b815260206004820152601960248201527f4552433732313a20617070726f766520746f2063616c6c65720000000000000060448201526064016108bc565b6001600160a01b038381166000818152606a6020908152604080832094871680845294825291829020805460ff191686151590811790915591519182527f17307eab39ab6107e8899845ad3d59bd9653f200f220920489ca2b5937696c31910160405180910390a3505050565b611fd1848484611b46565b611fdd84848484612723565b610d205760405162461bcd60e51b81526004016108bc90613cd4565b60006106da82612824565b60608160000361202b5750506040805180820190915260018152600360fc1b602082015290565b8160005b8115612055578061203f81613773565b915061204e9050600a83613d3c565b915061202f565b6000816001600160401b0381111561206f5761206f613102565b6040519080825280601f01601f191660200182016040528015612099576020820181803683370190505b5090505b8415611b3e576120ae600183613c63565b91506120bb600a86613d50565b6120c6906030613c76565b60f81b8183815181106120db576120db613747565b60200101906001600160f81b031916908160001a9053506120fd600a86613d3c565b945061209d565b60606106da6001600160a01b0383166014612843565b6060815160000361213957505060408051602081019091526000815290565b6000604051806060016040528060408152602001613e8060409139905060006003845160026121689190613c76565b6121729190613d3c565b61217d906004613d64565b6001600160401b0381111561219457612194613102565b6040519080825280601f01601f1916602001820160405280156121be576020820181803683370190505b509050600182016020820185865187015b8082101561222a576003820191508151603f8160121c168501518453600184019350603f81600c1c168501518453600184019350603f8160061c168501518453600184019350603f81168501518453506001830192506121cf565b5050600386510660018114612246576002811461225957612261565b603d6001830353603d6002830353612261565b603d60018303535b509195945050505050565b60006106da825490565b60006001600160e01b03198216635a05180f60e01b14806106da57506106da826129de565b6122a36126b2565b826122b061025982612a03565b156122f35760405162461bcd60e51b8152602060048201526013602482015272426c61636b6c6973746564206164647265737360681b60448201526064016108bc565b8261230061025982612a03565b156123435760405162461bcd60e51b8152602060048201526013602482015272426c61636b6c6973746564206164647265737360681b60448201526064016108bc565b6118f0858585612a25565b6123588282611298565b610c2857612370816001600160a01b03166014612843565b61237b836020612843565b60405160200161238c929190613d83565b60408051601f198184030181529082905262461bcd60e51b82526108bc91600401613006565b6123bc8282611298565b610c2857600082815261015f602090815260408083206001600160a01b03851684529091529020805460ff191660011790556123f53390565b6001600160a01b0316816001600160a01b0316837f2f8788117e7eff1d82e926ec794901d17c78024a50270940304540a733656f0d60405160405180910390a45050565b6000611291836001600160a01b038416612548565b6124588282611298565b15610c2857600082815261015f602090815260408083206001600160a01b0385168085529252808320805460ff1916905551339285917ff6391f5c32d9c69d2a47ea670b442974b53935d1edc7fd64eb21e047a839171b9190a45050565b6000611291836001600160a01b038416612a30565b61012d5460ff16611e565760405162461bcd60e51b815260206004820152601460248201527314185d5cd8589b194e881b9bdd081c185d5cd95960621b60448201526064016108bc565b61251f8383612b23565b61252c6000848484612723565b61095d5760405162461bcd60e51b81526004016108bc90613cd4565b600081815260018301602052604081205461258f575081546001818101845560008481526020808220909301849055845484825282860190935260409020919091556106da565b5060006106da565b60006125a282610db9565b90506125b08160008461229b565b6125bb600083611a59565b6001600160a01b03811660009081526068602052604081208054600192906125e4908490613c63565b909155505060008281526067602052604080822080546001600160a01b0319169055518391906001600160a01b038416907fddf252ad1be2c89b69c2b068fc378daa952ba7f163c4a11628f55a4df523b3ef908390a45050565b600054610100900460ff166126655760405162461bcd60e51b81526004016108bc90613c89565b606561267183826137da565b50606661095d82826137da565b600054610100900460ff166126a55760405162461bcd60e51b81526004016108bc90613c89565b61012d805460ff19169055565b61012d5460ff1615611e565760405162461bcd60e51b815260206004820152601060248201526f14185d5cd8589b194e881c185d5cd95960821b60448201526064016108bc565b600082600001828154811061271057612710613747565b9060005260206000200154905092915050565b60006001600160a01b0384163b1561281957604051630a85bd0160e11b81526001600160a01b0385169063150b7a0290612767903390899088908890600401613df8565b6020604051808303816000875af19250505080156127a2575060408051601f3d908101601f1916820190925261279f91810190613e35565b60015b6127ff573d8080156127d0576040519150601f19603f3d011682016040523d82523d6000602084013e6127d5565b606091505b5080516000036127f75760405162461bcd60e51b81526004016108bc90613cd4565b805181602001fd5b6001600160e01b031916630a85bd0160e11b149050611b3e565b506001949350505050565b6000818152606760205260408120546001600160a01b031615156106da565b60606000612852836002613d64565b61285d906002613c76565b6001600160401b0381111561287457612874613102565b6040519080825280601f01601f19166020018201604052801561289e576020820181803683370190505b509050600360fc1b816000815181106128b9576128b9613747565b60200101906001600160f81b031916908160001a905350600f60fb1b816001815181106128e8576128e8613747565b60200101906001600160f81b031916908160001a905350600061290c846002613d64565b612917906001613c76565b90505b600181111561298f576f181899199a1a9b1b9c1cb0b131b232b360811b85600f166010811061294b5761294b613747565b1a60f81b82828151811061296157612961613747565b60200101906001600160f81b031916908160001a90535060049490941c9361298881613e52565b905061291a565b5083156112915760405162461bcd60e51b815260206004820181905260248201527f537472696e67733a20686578206c656e67746820696e73756666696369656e7460448201526064016108bc565b60006001600160e01b03198216637965db0b60e01b14806106da57506106da82612c62565b6001600160a01b03811660009081526001830160205260408120541515611291565b61095d838383612c6d565b60008181526001830160205260408120548015612b19576000612a54600183613c63565b8554909150600090612a6890600190613c63565b9050818114612acd576000866000018281548110612a8857612a88613747565b9060005260206000200154905080876000018481548110612aab57612aab613747565b6000918252602080832090910192909255918252600188019052604090208390555b8554869080612ade57612ade613e69565b6001900381819060005260206000200160009055905585600101600086815260200190815260200160002060009055600193505050506106da565b60009150506106da565b6001600160a01b038216612b795760405162461bcd60e51b815260206004820181905260248201527f4552433732313a206d696e7420746f20746865207a65726f206164647265737360448201526064016108bc565b612b8281611ff9565b15612bcf5760405162461bcd60e51b815260206004820152601c60248201527f4552433732313a20746f6b656e20616c7265616479206d696e7465640000000060448201526064016108bc565b612bdb6000838361229b565b6001600160a01b0382166000908152606860205260408120805460019290612c04908490613c76565b909155505060008181526067602052604080822080546001600160a01b0319166001600160a01b03861690811790915590518392907fddf252ad1be2c89b69c2b068fc378daa952ba7f163c4a11628f55a4df523b3ef908290a45050565b60006106da82612c78565b61095d838383612c9d565b60006001600160e01b0319821663780e9d6360e01b14806106da57506106da82612d55565b6001600160a01b038316612cf857612cf381609980546000838152609a60205260408120829055600182018355919091527f72a152ddfb8e864297c917af52ea6c1c68aead0fee1a62673fcc7e0c94979d000155565b612d1b565b816001600160a01b0316836001600160a01b031614612d1b57612d1b8382612da5565b6001600160a01b038216612d325761095d81612e42565b826001600160a01b0316826001600160a01b03161461095d5761095d8282612ef1565b60006001600160e01b031982166380ac58cd60e01b1480612d8657506001600160e01b03198216635b5e139f60e01b145b806106da57506301ffc9a760e01b6001600160e01b03198316146106da565b60006001612db284610ef5565b612dbc9190613c63565b600083815260986020526040902054909150808214612e0f576001600160a01b03841660009081526097602090815260408083208584528252808320548484528184208190558352609890915290208190555b5060009182526098602090815260408084208490556001600160a01b039094168352609781528383209183525290812055565b609954600090612e5490600190613c63565b6000838152609a602052604081205460998054939450909284908110612e7c57612e7c613747565b906000526020600020015490508060998381548110612e9d57612e9d613747565b6000918252602080832090910192909255828152609a90915260408082208490558582528120556099805480612ed557612ed5613e69565b6001900381819060005260206000200160009055905550505050565b6000612efc83610ef5565b6001600160a01b039093166000908152609760209081526040808320868452825280832085905593825260989052919091209190915550565b508054612f41906136bf565b6000825580601f10612f51575050565b601f016020900490600052602060002090810190610c4c91905b80821115612f7f5760008155600101612f6b565b5090565b6001600160e01b031981168114610c4c57600080fd5b600060208284031215612fab57600080fd5b813561129181612f83565b60005b83811015612fd1578181015183820152602001612fb9565b50506000910152565b60008151808452612ff2816020860160208601612fb6565b601f01601f19169290920160200192915050565b6020815260006112916020830184612fda565b6000806040838503121561302c57600080fd5b50508035926020909101359150565b60006020828403121561304d57600080fd5b5035919050565b80356001600160a01b038116811461306b57600080fd5b919050565b6000806040838503121561308357600080fd5b61308c83613054565b946020939093013593505050565b6000806000606084860312156130af57600080fd5b6130b884613054565b92506130c660208501613054565b9150604084013590509250925092565b600080604083850312156130e957600080fd5b823591506130f960208401613054565b90509250929050565b634e487b7160e01b600052604160045260246000fd5b604051601f8201601f191681016001600160401b038111828210171561314057613140613102565b604052919050565b600082601f83011261315957600080fd5b813560206001600160401b0382111561317457613174613102565b8160051b613183828201613118565b928352848101820192828101908785111561319d57600080fd5b83870192505b848310156131bc578235825291830191908301906131a3565b979650505050505050565b600080604083850312156131da57600080fd5b82356001600160401b038111156131f057600080fd5b6131fc85828601613148565b95602094909401359450505050565b6000602080830181845280855180835260408601915060408160051b870101925083870160005b8281101561326057603f1988860301845261324e858351612fda565b94509285019290850190600101613232565b5092979650505050505050565b60008060006060848603121561328257600080fd5b505081359360208301359350604090920135919050565b600080604083850312156132ac57600080fd5b6132b583613054565b915060208301356001600160401b038111156132d057600080fd5b6132dc85828601613148565b9150509250929050565b60006001600160401b038311156132ff576132ff613102565b613312601f8401601f1916602001613118565b905082815283838301111561332657600080fd5b828260208301376000602084830101529392505050565b600082601f83011261334e57600080fd5b611291838335602085016132e6565b60006020828403121561336f57600080fd5b81356001600160401b0381111561338557600080fd5b611b3e8482850161333d565b6000602082840312156133a357600080fd5b81356001600160401b038111156133b957600080fd5b611b3e84828501613148565b6000602082840312156133d757600080fd5b61129182613054565b6020808252825182820181905260009190848201906040850190845b81811015613418578351835292840192918401916001016133fc565b50909695505050505050565b6000806040838503121561343757600080fd5b8235915060208301356001600160401b038111156132d057600080fd5b6000806040838503121561346757600080fd5b61347083613054565b91506020830135801515811461348557600080fd5b809150509250929050565b600080600080608085870312156134a657600080fd5b5050823594602084013594506040840135936060013592509050565b600080600080608085870312156134d857600080fd5b6134e185613054565b93506134ef60208601613054565b92506040850135915060608501356001600160401b0381111561351157600080fd5b8501601f8101871361352257600080fd5b613531878235602084016132e6565b91505092959194509250565b60008060006060848603121561355257600080fd5b833592506020840135915060408401356001600160401b0381111561357657600080fd5b61358286828701613148565b9150509250925092565b6000806000606084860312156135a157600080fd5b83356001600160401b03808211156135b857600080fd5b6135c487838801613148565b945060208601359150808211156135da57600080fd5b6135e687838801613148565b935060408601359150808211156135fc57600080fd5b5061358286828701613148565b6000806040838503121561361c57600080fd5b61362583613054565b91506130f960208401613054565b60008060006060848603121561364857600080fd5b833592506020840135915060408401356001600160401b0381111561366c57600080fd5b6135828682870161333d565b60008060006060848603121561368d57600080fd5b61369684613054565b92506136a460208501613054565b915060408401356001600160401b0381111561357657600080fd5b600181811c908216806136d357607f821691505b6020821081036136f357634e487b7160e01b600052602260045260246000fd5b50919050565b6020808252602e908201527f4552433732313a2063616c6c6572206973206e6f7420746f6b656e206f776e6560408201526d1c881b9bdc88185c1c1c9bdd995960921b606082015260800190565b634e487b7160e01b600052603260045260246000fd5b634e487b7160e01b600052601160045260246000fd5b6000600182016137855761378561375d565b5060010190565b601f82111561095d57600081815260208120601f850160051c810160208610156137b35750805b601f850160051c820191505b818110156137d2578281556001016137bf565b505050505050565b81516001600160401b038111156137f3576137f3613102565b6138078161380184546136bf565b8461378c565b602080601f83116001811461383c57600084156138245750858301515b600019600386901b1c1916600185901b1785556137d2565b600085815260208120601f198616915b8281101561386b5788860151825594840194600190910190840161384c565b50858210156138895787850151600019600388901b60f8161c191681555b5050505050600190811b01905550565b600081516138ab818560208601612fb6565b9290920192915050565b60008084546138c3816136bf565b600182811680156138db57600181146138f05761391f565b60ff198416875282151583028701945061391f565b8860005260208060002060005b858110156139165781548a8201529084019082016138fd565b50505082870194505b505050508351613933818360208801612fb6565b01949350505050565b7f226e616d65223a22436f736d69632049736c616e64204c616e6420506c6f74208152602360f81b60208201526000845161397e816021850160208901612fb6565b61088b60f21b60219184019182018190527f226465736372697074696f6e223a224c616e6420706c6f74206f6e20436f736d60238301526a1a58c8125cdb185b99088b60aa1b6043830152681134b6b0b3b2911d1160b91b604e83015285516139ee816057850160208a01612fb6565b6057920191820152681137bbb732b9111d1160b91b60598201528351613a1b816062840160208801612fb6565b6131bc613a3560628385010161088b60f21b815260020190565b6f089d1e5c19488e88915490cdcc8c488b60821b815260100190565b6e2261747472696275746573223a205b60881b81526000607b60f81b80600f8401527f2274726169745f74797065223a20226c61746974756465222c200000000000006010840152680113b30b63ab2911d160bd1b80602a8501528651613abf816033870160208b01612fb6565b80850190506203e96160ed1b60338201528260368201527f2274726169745f74797065223a20226c6f6e676974756465222c200000000000603782015281605282015286519250613b1783605b830160208a01612fb6565b613bac613b9f613b92613b8c613b77613b4e613b41605b8a8901016203e96160ed1b815260030190565b607b60f81b815260010190565b7f2274726169745f74797065223a2022726567696f6e222c200000000000000000815260180190565b680113b30b63ab2911d160bd1b815260090190565b89613899565b607d60f81b815260010190565b605d60f81b815260010190565b98975050505050505050565b607b60f81b815260008351613bd4816001850160208801612fb6565b835190830190613beb816001840160208801612fb6565b607d60f81b60019290910191820152600201949350505050565b7f646174613a6170706c69636174696f6e2f6a736f6e3b6261736536342c000000815260008251613c3d81601d850160208701612fb6565b91909101601d0192915050565b828152604060208201526000611b3e6040830184612fda565b818103818111156106da576106da61375d565b808201808211156106da576106da61375d565b6020808252602b908201527f496e697469616c697a61626c653a20636f6e7472616374206973206e6f74206960408201526a6e697469616c697a696e6760a81b606082015260800190565b60208082526032908201527f4552433732313a207472616e7366657220746f206e6f6e20455243373231526560408201527131b2b4bb32b91034b6b83632b6b2b73a32b960711b606082015260800190565b634e487b7160e01b600052601260045260246000fd5b600082613d4b57613d4b613d26565b500490565b600082613d5f57613d5f613d26565b500690565b6000816000190483118215151615613d7e57613d7e61375d565b500290565b7f416363657373436f6e74726f6c3a206163636f756e7420000000000000000000815260008351613dbb816017850160208801612fb6565b7001034b99036b4b9b9b4b733903937b6329607d1b6017918401918201528351613dec816028840160208801612fb6565b01602801949350505050565b6001600160a01b0385811682528416602082015260408101839052608060608201819052600090613e2b90830184612fda565b9695505050505050565b600060208284031215613e4757600080fd5b815161129181612f83565b600081613e6157613e6161375d565b506000190190565b634e487b7160e01b600052603160045260246000fdfe4142434445464748494a4b4c4d4e4f505152535455565758595a6162636465666768696a6b6c6d6e6f707172737475767778797a303132333435363738392b2f9f2df0fed2c77648de5860a4cc508cd0818c85b8b8a1ab4ceeef8d981c8956a6a49807205ce4d355092ef5a8a18f56e8913cf4a201fbe287825b095693c21775a2646970667358221220ad047d41d21121edbdc4ae0524d3d3426ce2c1f3a61db303b418b00598722b7f64736f6c63430008100033",
  "linkReferences": {},
  "deployedLinkReferences": {}
}