{
  "_format": "hh-sol-artifact-1",
  "contractName": "TestWizards2D",
  "sourceName": "contracts/static/ERC721/TestWizards2D.sol",
  "abi": [
    {
      "inputs": [],
      "stateMutability": "nonpayable",
      "type": "constructor"
    },
    {
      "anonymous": false,
      "inputs": [
        {
          "indexed": true,
          "internalType": "address",
          "name": "owner",
          "type": "address"
        },
        {
          "indexed": true,
          "internalType": "address",
          "name": "approved",
          "type": "address"
        },
        {
          "indexed": true,
          "internalType": "uint256",
          "name": "tokenId",
          "type": "uint256"
        }
      ],
      "name": "Approval",
      "type": "event"
    },
    {
      "anonymous": false,
      "inputs": [
        {
          "indexed": true,
          "internalType": "address",
          "name": "owner",
          "type": "address"
        },
        {
          "indexed": true,
          "internalType": "address",
          "name": "operator",
          "type": "address"
        },
        {
          "indexed": false,
          "internalType": "bool",
          "name": "approved",
          "type": "bool"
        }
      ],
      "name": "ApprovalForAll",
      "type": "event"
    },
    {
      "anonymous": false,
      "inputs": [
        {
          "indexed": true,
          "internalType": "bytes32",
          "name": "role",
          "type": "bytes32"
        },
        {
          "indexed": true,
          "internalType": "bytes32",
          "name": "previousAdminRole",
          "type": "bytes32"
        },
        {
          "indexed": true,
          "internalType": "bytes32",
          "name": "newAdminRole",
          "type": "bytes32"
        }
      ],
      "name": "RoleAdminChanged",
      "type": "event"
    },
    {
      "anonymous": false,
      "inputs": [
        {
          "indexed": true,
          "internalType": "bytes32",
          "name": "role",
          "type": "bytes32"
        },
        {
          "indexed": true,
          "internalType": "address",
          "name": "account",
          "type": "address"
        },
        {
          "indexed": true,
          "internalType": "address",
          "name": "sender",
          "type": "address"
        }
      ],
      "name": "RoleGranted",
      "type": "event"
    },
    {
      "anonymous": false,
      "inputs": [
        {
          "indexed": true,
          "internalType": "bytes32",
          "name": "role",
          "type": "bytes32"
        },
        {
          "indexed": true,
          "internalType": "address",
          "name": "account",
          "type": "address"
        },
        {
          "indexed": true,
          "internalType": "address",
          "name": "sender",
          "type": "address"
        }
      ],
      "name": "RoleRevoked",
      "type": "event"
    },
    {
      "anonymous": false,
      "inputs": [
        {
          "indexed": false,
          "internalType": "uint256",
          "name": "tokenId",
          "type": "uint256"
        },
        {
          "indexed": false,
          "internalType": "address",
          "name": "owner",
          "type": "address"
        },
        {
          "indexed": false,
          "internalType": "uint256",
          "name": "first_encounter",
          "type": "uint256"
        }
      ],
      "name": "TokenMinted",
      "type": "event"
    },
    {
      "anonymous": false,
      "inputs": [
        {
          "indexed": true,
          "internalType": "address",
          "name": "from",
          "type": "address"
        },
        {
          "indexed": true,
          "internalType": "address",
          "name": "to",
          "type": "address"
        },
        {
          "indexed": true,
          "internalType": "uint256",
          "name": "tokenId",
          "type": "uint256"
        }
      ],
      "name": "Transfer",
      "type": "event"
    },
    {
      "inputs": [],
      "name": "ADMIN_ROLE",
      "outputs": [
        {
          "internalType": "bytes32",
          "name": "",
          "type": "bytes32"
        }
      ],
      "stateMutability": "view",
      "type": "function"
    },
    {
      "inputs": [],
      "name": "CURRENT_PRICE",
      "outputs": [
        {
          "internalType": "uint256",
          "name": "",
          "type": "uint256"
        }
      ],
      "stateMutability": "view",
      "type": "function"
    },
    {
      "inputs": [],
      "name": "DEFAULT_ADMIN_ROLE",
      "outputs": [
        {
          "internalType": "bytes32",
          "name": "",
          "type": "bytes32"
        }
      ],
      "stateMutability": "view",
      "type": "function"
    },
    {
      "inputs": [],
      "name": "MAX_PURCHASE",
      "outputs": [
        {
          "internalType": "uint256",
          "name": "",
          "type": "uint256"
        }
      ],
      "stateMutability": "view",
      "type": "function"
    },
    {
      "inputs": [],
      "name": "MAX_TOKENS",
      "outputs": [
        {
          "internalType": "uint256",
          "name": "",
          "type": "uint256"
        }
      ],
      "stateMutability": "view",
      "type": "function"
    },
    {
      "inputs": [],
      "name": "MINTER_ROLE",
      "outputs": [
        {
          "internalType": "bytes32",
          "name": "",
          "type": "bytes32"
        }
      ],
      "stateMutability": "view",
      "type": "function"
    },
    {
      "inputs": [],
      "name": "PROVENANCE",
      "outputs": [
        {
          "internalType": "string",
          "name": "",
          "type": "string"
        }
      ],
      "stateMutability": "view",
      "type": "function"
    },
    {
      "inputs": [
        {
          "internalType": "address",
          "name": "to",
          "type": "address"
        },
        {
          "internalType": "uint256",
          "name": "tokenId",
          "type": "uint256"
        }
      ],
      "name": "approve",
      "outputs": [],
      "stateMutability": "nonpayable",
      "type": "function"
    },
    {
      "inputs": [
        {
          "internalType": "address",
          "name": "owner",
          "type": "address"
        }
      ],
      "name": "balanceOf",
      "outputs": [
        {
          "internalType": "uint256",
          "name": "",
          "type": "uint256"
        }
      ],
      "stateMutability": "view",
      "type": "function"
    },
    {
      "inputs": [
        {
          "internalType": "uint256",
          "name": "tokenId",
          "type": "uint256"
        }
      ],
      "name": "getApproved",
      "outputs": [
        {
          "internalType": "address",
          "name": "",
          "type": "address"
        }
      ],
      "stateMutability": "view",
      "type": "function"
    },
    {
      "inputs": [
        {
          "internalType": "uint256",
          "name": "tokenId",
          "type": "uint256"
        }
      ],
      "name": "getComicWizardDetail",
      "outputs": [
        {
          "components": [
            {
              "internalType": "uint256",
              "name": "first_encounter",
              "type": "uint256"
            }
          ],
          "internalType": "struct TestWizards2D.ComicWizardDetail",
          "name": "detail",
          "type": "tuple"
        }
      ],
      "stateMutability": "view",
      "type": "function"
    },
    {
      "inputs": [
        {
          "internalType": "bytes32",
          "name": "role",
          "type": "bytes32"
        }
      ],
      "name": "getRoleAdmin",
      "outputs": [
        {
          "internalType": "bytes32",
          "name": "",
          "type": "bytes32"
        }
      ],
      "stateMutability": "view",
      "type": "function"
    },
    {
      "inputs": [
        {
          "internalType": "bytes32",
          "name": "role",
          "type": "bytes32"
        },
        {
          "internalType": "address",
          "name": "account",
          "type": "address"
        }
      ],
      "name": "grantRole",
      "outputs": [],
      "stateMutability": "nonpayable",
      "type": "function"
    },
    {
      "inputs": [
        {
          "internalType": "bytes32",
          "name": "role",
          "type": "bytes32"
        },
        {
          "internalType": "address",
          "name": "account",
          "type": "address"
        }
      ],
      "name": "hasRole",
      "outputs": [
        {
          "internalType": "bool",
          "name": "",
          "type": "bool"
        }
      ],
      "stateMutability": "view",
      "type": "function"
    },
    {
      "inputs": [
        {
          "internalType": "address",
          "name": "owner",
          "type": "address"
        },
        {
          "internalType": "address",
          "name": "operator",
          "type": "address"
        }
      ],
      "name": "isApprovedForAll",
      "outputs": [
        {
          "internalType": "bool",
          "name": "",
          "type": "bool"
        }
      ],
      "stateMutability": "view",
      "type": "function"
    },
    {
      "inputs": [
        {
          "internalType": "uint256",
          "name": "numberOfTokens",
          "type": "uint256"
        }
      ],
      "name": "mintComicWizard",
      "outputs": [],
      "stateMutability": "payable",
      "type": "function"
    },
    {
      "inputs": [
        {
          "internalType": "uint256",
          "name": "tokenId",
          "type": "uint256"
        }
      ],
      "name": "mintTokenId",
      "outputs": [],
      "stateMutability": "nonpayable",
      "type": "function"
    },
    {
      "inputs": [],
      "name": "name",
      "outputs": [
        {
          "internalType": "string",
          "name": "",
          "type": "string"
        }
      ],
      "stateMutability": "view",
      "type": "function"
    },
    {
      "inputs": [
        {
          "internalType": "uint256",
          "name": "tokenId",
          "type": "uint256"
        }
      ],
      "name": "ownerOf",
      "outputs": [
        {
          "internalType": "address",
          "name": "",
          "type": "address"
        }
      ],
      "stateMutability": "view",
      "type": "function"
    },
    {
      "inputs": [
        {
          "internalType": "bytes32",
          "name": "role",
          "type": "bytes32"
        },
        {
          "internalType": "address",
          "name": "account",
          "type": "address"
        }
      ],
      "name": "renounceRole",
      "outputs": [],
      "stateMutability": "nonpayable",
      "type": "function"
    },
    {
      "inputs": [],
      "name": "reserveTokens",
      "outputs": [],
      "stateMutability": "nonpayable",
      "type": "function"
    },
    {
      "inputs": [
        {
          "internalType": "bytes32",
          "name": "role",
          "type": "bytes32"
        },
        {
          "internalType": "address",
          "name": "account",
          "type": "address"
        }
      ],
      "name": "revokeRole",
      "outputs": [],
      "stateMutability": "nonpayable",
      "type": "function"
    },
    {
      "inputs": [
        {
          "internalType": "address",
          "name": "from",
          "type": "address"
        },
        {
          "internalType": "address",
          "name": "to",
          "type": "address"
        },
        {
          "internalType": "uint256",
          "name": "tokenId",
          "type": "uint256"
        }
      ],
      "name": "safeTransferFrom",
      "outputs": [],
      "stateMutability": "nonpayable",
      "type": "function"
    },
    {
      "inputs": [
        {
          "internalType": "address",
          "name": "from",
          "type": "address"
        },
        {
          "internalType": "address",
          "name": "to",
          "type": "address"
        },
        {
          "internalType": "uint256",
          "name": "tokenId",
          "type": "uint256"
        },
        {
          "internalType": "bytes",
          "name": "data",
          "type": "bytes"
        }
      ],
      "name": "safeTransferFrom",
      "outputs": [],
      "stateMutability": "nonpayable",
      "type": "function"
    },
    {
      "inputs": [],
      "name": "saleIsActive",
      "outputs": [
        {
          "internalType": "bool",
          "name": "",
          "type": "bool"
        }
      ],
      "stateMutability": "view",
      "type": "function"
    },
    {
      "inputs": [
        {
          "internalType": "address",
          "name": "operator",
          "type": "address"
        },
        {
          "internalType": "bool",
          "name": "approved",
          "type": "bool"
        }
      ],
      "name": "setApprovalForAll",
      "outputs": [],
      "stateMutability": "nonpayable",
      "type": "function"
    },
    {
      "inputs": [
        {
          "internalType": "string",
          "name": "BaseURI",
          "type": "string"
        }
      ],
      "name": "setBaseURI",
      "outputs": [],
      "stateMutability": "nonpayable",
      "type": "function"
    },
    {
      "inputs": [
        {
          "internalType": "uint256",
          "name": "currentPrice",
          "type": "uint256"
        }
      ],
      "name": "setCurrentPrice",
      "outputs": [],
      "stateMutability": "nonpayable",
      "type": "function"
    },
    {
      "inputs": [
        {
          "internalType": "uint256",
          "name": "maxTokens",
          "type": "uint256"
        }
      ],
      "name": "setMaxTokens",
      "outputs": [],
      "stateMutability": "nonpayable",
      "type": "function"
    },
    {
      "inputs": [
        {
          "internalType": "string",
          "name": "provenanceHash",
          "type": "string"
        }
      ],
      "name": "setProvenanceHash",
      "outputs": [],
      "stateMutability": "nonpayable",
      "type": "function"
    },
    {
      "inputs": [
        {
          "internalType": "bool",
          "name": "newState",
          "type": "bool"
        }
      ],
      "name": "setSaleState",
      "outputs": [],
      "stateMutability": "nonpayable",
      "type": "function"
    },
    {
      "inputs": [
        {
          "internalType": "bytes4",
          "name": "interfaceId",
          "type": "bytes4"
        }
      ],
      "name": "supportsInterface",
      "outputs": [
        {
          "internalType": "bool",
          "name": "",
          "type": "bool"
        }
      ],
      "stateMutability": "view",
      "type": "function"
    },
    {
      "inputs": [],
      "name": "symbol",
      "outputs": [
        {
          "internalType": "string",
          "name": "",
          "type": "string"
        }
      ],
      "stateMutability": "view",
      "type": "function"
    },
    {
      "inputs": [
        {
          "internalType": "uint256",
          "name": "index",
          "type": "uint256"
        }
      ],
      "name": "tokenByIndex",
      "outputs": [
        {
          "internalType": "uint256",
          "name": "",
          "type": "uint256"
        }
      ],
      "stateMutability": "view",
      "type": "function"
    },
    {
      "inputs": [
        {
          "internalType": "address",
          "name": "owner",
          "type": "address"
        },
        {
          "internalType": "uint256",
          "name": "index",
          "type": "uint256"
        }
      ],
      "name": "tokenOfOwnerByIndex",
      "outputs": [
        {
          "internalType": "uint256",
          "name": "",
          "type": "uint256"
        }
      ],
      "stateMutability": "view",
      "type": "function"
    },
    {
      "inputs": [
        {
          "internalType": "uint256",
          "name": "tokenId",
          "type": "uint256"
        }
      ],
      "name": "tokenURI",
      "outputs": [
        {
          "internalType": "string",
          "name": "",
          "type": "string"
        }
      ],
      "stateMutability": "view",
      "type": "function"
    },
    {
      "inputs": [],
      "name": "totalSupply",
      "outputs": [
        {
          "internalType": "uint256",
          "name": "",
          "type": "uint256"
        }
      ],
      "stateMutability": "view",
      "type": "function"
    },
    {
      "inputs": [
        {
          "internalType": "address",
          "name": "from",
          "type": "address"
        },
        {
          "internalType": "address",
          "name": "to",
          "type": "address"
        },
        {
          "internalType": "uint256",
          "name": "tokenId",
          "type": "uint256"
        }
      ],
      "name": "transferFrom",
      "outputs": [],
      "stateMutability": "nonpayable",
      "type": "function"
    },
    {
      "inputs": [],
      "name": "withdraw",
      "outputs": [],
      "stateMutability": "nonpayable",
      "type": "function"
    }
  ],
  "bytecode": "0x60a06040819052600060808190526200001b91600c9162000231565b506014600d55612710600e556001600f8190556010805460ff191690911790553480156200004857600080fd5b50604080518082018252601681527f436f736d69632057697a6172647320324420546573740000000000000000000060208083019182528351808501909452600d84526c151154d515d25690549114cc91609a1b908401528151919291620000b39160009162000231565b508051620000c990600190602084019062000231565b50620000db9150600090503362000141565b620000f660008051602062002b318339815191523362000141565b6200011160008051602062002b118339815191523362000141565b6200013b60008051602062002b1183398151915260008051602062002b31833981519152620001e6565b62000314565b6000828152600a602090815260408083206001600160a01b038516845290915290205460ff16620001e2576000828152600a602090815260408083206001600160a01b03851684529091529020805460ff19166001179055620001a13390565b6001600160a01b0316816001600160a01b0316837f2f8788117e7eff1d82e926ec794901d17c78024a50270940304540a733656f0d60405160405180910390a45b5050565b6000828152600a6020526040808220600101805490849055905190918391839186917fbd79b86ffe0ab8e8776151514217cd7cacd52c909f66475c3af44e129f0b00ff9190a4505050565b8280546200023f90620002d7565b90600052602060002090601f016020900481019282620002635760008555620002ae565b82601f106200027e57805160ff1916838001178555620002ae565b82800160010185558215620002ae579182015b82811115620002ae57825182559160200191906001019062000291565b50620002bc929150620002c0565b5090565b5b80821115620002bc5760008155600101620002c1565b600181811c90821680620002ec57607f821691505b602082108114156200030e57634e487b7160e01b600052602260045260246000fd5b50919050565b6127ed80620003246000396000f3fe60806040526004361061022f5760003560e01c80634f6ccce71161012e578063a22cb465116100ab578063d547741f1161006f578063d547741f1461068e578063e985e9c5146106ae578063eb8d2444146106f7578063f47c84c514610711578063f957403a1461072757600080fd5b8063a22cb465146105da578063b88d4fde146105fa578063c4e370951461061a578063c87b56dd1461063a578063d53913931461065a57600080fd5b80637146bd08116100f25780637146bd081461055857806375b238fc1461056e57806391d148541461059057806395d89b41146105b0578063a217fddf146105c557600080fd5b80634f6ccce7146104c357806355f804b3146104e35780636352211e146105035780636373a6b11461052357806370a082311461053857600080fd5b806323b872dd116101bc5780632f745c59116101805780632f745c591461043857806336568abe146104585780633ccfd60b1461047857806342842e0e1461048d5780634b369a61146104ad57600080fd5b806323b872dd146103935780632429467b146103b3578063248a9ca3146103d357806327ac36c4146104035780632f2ff15d1461041857600080fd5b8063095ea7b311610203578063095ea7b3146102f2578063109695231461031457806311e776fe1461033457806318160ddd1461035457806318b200711461037357600080fd5b8062a340bb1461023457806301ffc9a71461026857806306fdde0314610298578063081812fc146102ba575b600080fd5b34801561024057600080fd5b5061025461024f36600461216e565b61073a565b604051905181526020015b60405180910390f35b34801561027457600080fd5b5061028861028336600461219d565b6107cb565b604051901515815260200161025f565b3480156102a457600080fd5b506102ad6107dc565b60405161025f9190612212565b3480156102c657600080fd5b506102da6102d536600461216e565b61086e565b6040516001600160a01b03909116815260200161025f565b3480156102fe57600080fd5b5061031261030d366004612241565b610895565b005b34801561032057600080fd5b5061031261032f3660046122f7565b6109ab565b34801561034057600080fd5b5061031261034f36600461216e565b6109d6565b34801561036057600080fd5b506008545b60405190815260200161025f565b34801561037f57600080fd5b5061031261038e36600461216e565b6109f4565b34801561039f57600080fd5b506103126103ae366004612340565b610a12565b3480156103bf57600080fd5b506103126103ce36600461216e565b610a43565b3480156103df57600080fd5b506103656103ee36600461216e565b6000908152600a602052604090206001015490565b34801561040f57600080fd5b50610312610b34565b34801561042457600080fd5b5061031261043336600461237c565b610bdc565b34801561044457600080fd5b50610365610453366004612241565b610c01565b34801561046457600080fd5b5061031261047336600461237c565b610c97565b34801561048457600080fd5b50610312610d15565b34801561049957600080fd5b506103126104a8366004612340565b610d5c565b3480156104b957600080fd5b50610365600f5481565b3480156104cf57600080fd5b506103656104de36600461216e565b610d77565b3480156104ef57600080fd5b506103126104fe3660046122f7565b610e0a565b34801561050f57600080fd5b506102da61051e36600461216e565b610e35565b34801561052f57600080fd5b506102ad610e95565b34801561054457600080fd5b506103656105533660046123a8565b610f23565b34801561056457600080fd5b50610365600d5481565b34801561057a57600080fd5b5061036560008051602061279883398151915281565b34801561059c57600080fd5b506102886105ab36600461237c565b610fa9565b3480156105bc57600080fd5b506102ad610fd4565b3480156105d157600080fd5b50610365600081565b3480156105e657600080fd5b506103126105f53660046123d3565b610fe3565b34801561060657600080fd5b506103126106153660046123fd565b610fee565b34801561062657600080fd5b50610312610635366004612479565b611020565b34801561064657600080fd5b506102ad61065536600461216e565b61104c565b34801561066657600080fd5b506103657f9f2df0fed2c77648de5860a4cc508cd0818c85b8b8a1ab4ceeef8d981c8956a681565b34801561069a57600080fd5b506103126106a936600461237c565b6110b3565b3480156106ba57600080fd5b506102886106c9366004612494565b6001600160a01b03918216600090815260056020908152604080832093909416825291909152205460ff1690565b34801561070357600080fd5b506010546102889060ff1681565b34801561071d57600080fd5b50610365600e5481565b61031261073536600461216e565b6110d8565b6040805160208101909152600081526000828152600260205260409020546001600160a01b03166107a95760405162461bcd60e51b8152602060048201526014602482015273151bdad95b881dd85cc81b9bdd081b5a5b9d195960621b60448201526064015b60405180910390fd5b506000908152600b602090815260409182902082519182019092529054815290565b60006107d68261132c565b92915050565b6060600080546107eb906124be565b80601f0160208091040260200160405190810160405280929190818152602001828054610817906124be565b80156108645780601f1061083957610100808354040283529160200191610864565b820191906000526020600020905b81548152906001019060200180831161084757829003601f168201915b5050505050905090565b600061087982611351565b506000908152600460205260409020546001600160a01b031690565b60006108a082610e35565b9050806001600160a01b0316836001600160a01b0316141561090e5760405162461bcd60e51b815260206004820152602160248201527f4552433732313a20617070726f76616c20746f2063757272656e74206f776e656044820152603960f91b60648201526084016107a0565b336001600160a01b038216148061092a575061092a81336106c9565b61099c5760405162461bcd60e51b815260206004820152603e60248201527f4552433732313a20617070726f76652063616c6c6572206973206e6f7420746f60448201527f6b656e206f776e6572206e6f7220617070726f76656420666f7220616c6c000060648201526084016107a0565b6109a683836113b3565b505050565b6000805160206127988339815191526109c381611421565b81516109a690600c9060208501906120d5565b6000805160206127988339815191526109ee81611421565b50600e55565b600080516020612798833981519152610a0c81611421565b50600f55565b610a1c338261142b565b610a385760405162461bcd60e51b81526004016107a0906124f9565b6109a68383836114aa565b7f9f2df0fed2c77648de5860a4cc508cd0818c85b8b8a1ab4ceeef8d981c8956a6610a6d81611421565b6000828152600260205260409020546001600160a01b031615610ac55760405162461bcd60e51b815260206004820152601060248201526f151bdad95b881dd85cc81b5a5b9d195960821b60448201526064016107a0565b42610ad03384611651565b60408051602080820183528382526000868152600b82528390209151909155815185815233918101919091529081018290527f2d03118aa776f7008445f6ca8490a6782ede2db364d741513555ba656ab1879f9060600160405180910390a1505050565b600080516020612798833981519152610b4c81611421565b60016000425b60328311610bd657610b6e6001610b6860085490565b9061166b565b9150600e548211610bc457610b833383611651565b604080518381523360208201529081018290527f2d03118aa776f7008445f6ca8490a6782ede2db364d741513555ba656ab1879f9060600160405180910390a15b82610bce8161255d565b935050610b52565b50505050565b6000828152600a6020526040902060010154610bf781611421565b6109a68383611677565b6000610c0c83610f23565b8210610c6e5760405162461bcd60e51b815260206004820152602b60248201527f455243373231456e756d657261626c653a206f776e657220696e646578206f7560448201526a74206f6620626f756e647360a81b60648201526084016107a0565b506001600160a01b03919091166000908152600660209081526040808320938352929052205490565b6001600160a01b0381163314610d075760405162461bcd60e51b815260206004820152602f60248201527f416363657373436f6e74726f6c3a2063616e206f6e6c792072656e6f756e636560448201526e103937b632b9903337b91039b2b63360891b60648201526084016107a0565b610d1182826116fd565b5050565b600080516020612798833981519152610d2d81611421565b6040514790339082156108fc029083906000818181858888f193505050501580156109a6573d6000803e3d6000fd5b6109a683838360405180602001604052806000815250610fee565b6000610d8260085490565b8210610de55760405162461bcd60e51b815260206004820152602c60248201527f455243373231456e756d657261626c653a20676c6f62616c20696e646578206f60448201526b7574206f6620626f756e647360a01b60648201526084016107a0565b60088281548110610df857610df8612578565b90600052602060002001549050919050565b600080516020612798833981519152610e2281611421565b81516109a69060119060208501906120d5565b6000818152600260205260408120546001600160a01b0316806107d65760405162461bcd60e51b8152602060048201526018602482015277115490cdcc8c4e881a5b9d985b1a59081d1bdad95b88125160421b60448201526064016107a0565b600c8054610ea2906124be565b80601f0160208091040260200160405190810160405280929190818152602001828054610ece906124be565b8015610f1b5780601f10610ef057610100808354040283529160200191610f1b565b820191906000526020600020905b815481529060010190602001808311610efe57829003601f168201915b505050505081565b60006001600160a01b038216610f8d5760405162461bcd60e51b815260206004820152602960248201527f4552433732313a2061646472657373207a65726f206973206e6f7420612076616044820152683634b21037bbb732b960b91b60648201526084016107a0565b506001600160a01b031660009081526003602052604090205490565b6000918252600a602090815260408084206001600160a01b0393909316845291905290205460ff1690565b6060600180546107eb906124be565b610d11338383611764565b610ff8338361142b565b6110145760405162461bcd60e51b81526004016107a0906124f9565b610bd684848484611833565b60008051602061279883398151915261103881611421565b506010805460ff1916911515919091179055565b606061105782611351565b6000611061611866565b9050600081511161108157604051806020016040528060008152506110ac565b8061108b84611875565b60405160200161109c92919061258e565b6040516020818303038152906040525b9392505050565b6000828152600a60205260409020600101546110ce81611421565b6109a683836116fd565b7f9f2df0fed2c77648de5860a4cc508cd0818c85b8b8a1ab4ceeef8d981c8956a661110281611421565b60105460ff166111545760405162461bcd60e51b815260206004820152601f60248201527f4d696e74206973206e6f7420617661696c61626c65207269676874206e6f770060448201526064016107a0565b600d548211156111b05760405162461bcd60e51b815260206004820152602160248201527f43616e206f6e6c79206d696e7420323020746f6b656e7320617420612074696d6044820152606560f81b60648201526084016107a0565b600e546111c083610b6860085490565b11156112265760405162461bcd60e51b815260206004820152602f60248201527f507572636861736520776f756c6420657863656564206d617820737570706c7960448201526e081bd98810dbdb5a58d5da5e985c99608a1b60648201526084016107a0565b600f5434906112359084611973565b11156112835760405162461bcd60e51b815260206004820152601960248201527f56616c75652073656e74206973206e6f7420636f72726563740000000000000060448201526064016107a0565b42600060015b8481116113255761129e6001610b6860085490565b9150600e548211611313576112b33383611651565b60408051602080820183528582526000858152600b82528390209151909155815184815233918101919091529081018490527f2d03118aa776f7008445f6ca8490a6782ede2db364d741513555ba656ab1879f9060600160405180910390a15b8061131d8161255d565b915050611289565b5050505050565b60006001600160e01b03198216637965db0b60e01b14806107d657506107d68261197f565b6000818152600260205260409020546001600160a01b03166113b05760405162461bcd60e51b8152602060048201526018602482015277115490cdcc8c4e881a5b9d985b1a59081d1bdad95b88125160421b60448201526064016107a0565b50565b600081815260046020526040902080546001600160a01b0319166001600160a01b03841690811790915581906113e882610e35565b6001600160a01b03167f8c5be1e5ebec7d5bd14f71427d1e84f3dd0314c0f7b2291e5b200ac8c7c3b92560405160405180910390a45050565b6113b081336119a4565b60008061143783610e35565b9050806001600160a01b0316846001600160a01b0316148061147e57506001600160a01b0380821660009081526005602090815260408083209388168352929052205460ff165b806114a25750836001600160a01b03166114978461086e565b6001600160a01b0316145b949350505050565b826001600160a01b03166114bd82610e35565b6001600160a01b0316146115215760405162461bcd60e51b815260206004820152602560248201527f4552433732313a207472616e736665722066726f6d20696e636f72726563742060448201526437bbb732b960d91b60648201526084016107a0565b6001600160a01b0382166115835760405162461bcd60e51b8152602060048201526024808201527f4552433732313a207472616e7366657220746f20746865207a65726f206164646044820152637265737360e01b60648201526084016107a0565b61158e838383611a08565b6115996000826113b3565b6001600160a01b03831660009081526003602052604081208054600192906115c29084906125bd565b90915550506001600160a01b03821660009081526003602052604081208054600192906115f09084906125d4565b909155505060008181526002602052604080822080546001600160a01b0319166001600160a01b0386811691821790925591518493918716917fddf252ad1be2c89b69c2b068fc378daa952ba7f163c4a11628f55a4df523b3ef91a4505050565b610d11828260405180602001604052806000815250611a13565b60006110ac82846125d4565b6116818282610fa9565b610d11576000828152600a602090815260408083206001600160a01b03851684529091529020805460ff191660011790556116b93390565b6001600160a01b0316816001600160a01b0316837f2f8788117e7eff1d82e926ec794901d17c78024a50270940304540a733656f0d60405160405180910390a45050565b6117078282610fa9565b15610d11576000828152600a602090815260408083206001600160a01b0385168085529252808320805460ff1916905551339285917ff6391f5c32d9c69d2a47ea670b442974b53935d1edc7fd64eb21e047a839171b9190a45050565b816001600160a01b0316836001600160a01b031614156117c65760405162461bcd60e51b815260206004820152601960248201527f4552433732313a20617070726f766520746f2063616c6c65720000000000000060448201526064016107a0565b6001600160a01b03838116600081815260056020908152604080832094871680845294825291829020805460ff191686151590811790915591519182527f17307eab39ab6107e8899845ad3d59bd9653f200f220920489ca2b5937696c31910160405180910390a3505050565b61183e8484846114aa565b61184a84848484611a46565b610bd65760405162461bcd60e51b81526004016107a0906125ec565b6060601180546107eb906124be565b6060816118995750506040805180820190915260018152600360fc1b602082015290565b8160005b81156118c357806118ad8161255d565b91506118bc9050600a83612654565b915061189d565b60008167ffffffffffffffff8111156118de576118de61226b565b6040519080825280601f01601f191660200182016040528015611908576020820181803683370190505b5090505b84156114a25761191d6001836125bd565b915061192a600a86612668565b6119359060306125d4565b60f81b81838151811061194a5761194a612578565b60200101906001600160f81b031916908160001a90535061196c600a86612654565b945061190c565b60006110ac828461267c565b60006001600160e01b0319821663780e9d6360e01b14806107d657506107d682611b53565b6119ae8282610fa9565b610d11576119c6816001600160a01b03166014611ba3565b6119d1836020611ba3565b6040516020016119e292919061269b565b60408051601f198184030181529082905262461bcd60e51b82526107a091600401612212565b6109a6838383611d3f565b611a1d8383611df7565b611a2a6000848484611a46565b6109a65760405162461bcd60e51b81526004016107a0906125ec565b60006001600160a01b0384163b15611b4857604051630a85bd0160e11b81526001600160a01b0385169063150b7a0290611a8a903390899088908890600401612710565b602060405180830381600087803b158015611aa457600080fd5b505af1925050508015611ad4575060408051601f3d908101601f19168201909252611ad19181019061274d565b60015b611b2e573d808015611b02576040519150601f19603f3d011682016040523d82523d6000602084013e611b07565b606091505b508051611b265760405162461bcd60e51b81526004016107a0906125ec565b805181602001fd5b6001600160e01b031916630a85bd0160e11b1490506114a2565b506001949350505050565b60006001600160e01b031982166380ac58cd60e01b1480611b8457506001600160e01b03198216635b5e139f60e01b145b806107d657506301ffc9a760e01b6001600160e01b03198316146107d6565b60606000611bb283600261267c565b611bbd9060026125d4565b67ffffffffffffffff811115611bd557611bd561226b565b6040519080825280601f01601f191660200182016040528015611bff576020820181803683370190505b509050600360fc1b81600081518110611c1a57611c1a612578565b60200101906001600160f81b031916908160001a905350600f60fb1b81600181518110611c4957611c49612578565b60200101906001600160f81b031916908160001a9053506000611c6d84600261267c565b611c789060016125d4565b90505b6001811115611cf0576f181899199a1a9b1b9c1cb0b131b232b360811b85600f1660108110611cac57611cac612578565b1a60f81b828281518110611cc257611cc2612578565b60200101906001600160f81b031916908160001a90535060049490941c93611ce98161276a565b9050611c7b565b5083156110ac5760405162461bcd60e51b815260206004820181905260248201527f537472696e67733a20686578206c656e67746820696e73756666696369656e7460448201526064016107a0565b6001600160a01b038316611d9a57611d9581600880546000838152600960205260408120829055600182018355919091527ff3f7a9fe364faab93b216da50a3214154f22a0a2b415b23a84c8169e8b636ee30155565b611dbd565b816001600160a01b0316836001600160a01b031614611dbd57611dbd8382611f45565b6001600160a01b038216611dd4576109a681611fe2565b826001600160a01b0316826001600160a01b0316146109a6576109a68282612091565b6001600160a01b038216611e4d5760405162461bcd60e51b815260206004820181905260248201527f4552433732313a206d696e7420746f20746865207a65726f206164647265737360448201526064016107a0565b6000818152600260205260409020546001600160a01b031615611eb25760405162461bcd60e51b815260206004820152601c60248201527f4552433732313a20746f6b656e20616c7265616479206d696e7465640000000060448201526064016107a0565b611ebe60008383611a08565b6001600160a01b0382166000908152600360205260408120805460019290611ee79084906125d4565b909155505060008181526002602052604080822080546001600160a01b0319166001600160a01b03861690811790915590518392907fddf252ad1be2c89b69c2b068fc378daa952ba7f163c4a11628f55a4df523b3ef908290a45050565b60006001611f5284610f23565b611f5c91906125bd565b600083815260076020526040902054909150808214611faf576001600160a01b03841660009081526006602090815260408083208584528252808320548484528184208190558352600790915290208190555b5060009182526007602090815260408084208490556001600160a01b039094168352600681528383209183525290812055565b600854600090611ff4906001906125bd565b6000838152600960205260408120546008805493945090928490811061201c5761201c612578565b90600052602060002001549050806008838154811061203d5761203d612578565b600091825260208083209091019290925582815260099091526040808220849055858252812055600880548061207557612075612781565b6001900381819060005260206000200160009055905550505050565b600061209c83610f23565b6001600160a01b039093166000908152600660209081526040808320868452825280832085905593825260079052919091209190915550565b8280546120e1906124be565b90600052602060002090601f0160209004810192826121035760008555612149565b82601f1061211c57805160ff1916838001178555612149565b82800160010185558215612149579182015b8281111561214957825182559160200191906001019061212e565b50612155929150612159565b5090565b5b80821115612155576000815560010161215a565b60006020828403121561218057600080fd5b5035919050565b6001600160e01b0319811681146113b057600080fd5b6000602082840312156121af57600080fd5b81356110ac81612187565b60005b838110156121d55781810151838201526020016121bd565b83811115610bd65750506000910152565b600081518084526121fe8160208601602086016121ba565b601f01601f19169290920160200192915050565b6020815260006110ac60208301846121e6565b80356001600160a01b038116811461223c57600080fd5b919050565b6000806040838503121561225457600080fd5b61225d83612225565b946020939093013593505050565b634e487b7160e01b600052604160045260246000fd5b600067ffffffffffffffff8084111561229c5761229c61226b565b604051601f8501601f19908116603f011681019082821181831017156122c4576122c461226b565b816040528093508581528686860111156122dd57600080fd5b858560208301376000602087830101525050509392505050565b60006020828403121561230957600080fd5b813567ffffffffffffffff81111561232057600080fd5b8201601f8101841361233157600080fd5b6114a284823560208401612281565b60008060006060848603121561235557600080fd5b61235e84612225565b925061236c60208501612225565b9150604084013590509250925092565b6000806040838503121561238f57600080fd5b8235915061239f60208401612225565b90509250929050565b6000602082840312156123ba57600080fd5b6110ac82612225565b8035801515811461223c57600080fd5b600080604083850312156123e657600080fd5b6123ef83612225565b915061239f602084016123c3565b6000806000806080858703121561241357600080fd5b61241c85612225565b935061242a60208601612225565b925060408501359150606085013567ffffffffffffffff81111561244d57600080fd5b8501601f8101871361245e57600080fd5b61246d87823560208401612281565b91505092959194509250565b60006020828403121561248b57600080fd5b6110ac826123c3565b600080604083850312156124a757600080fd5b6124b083612225565b915061239f60208401612225565b600181811c908216806124d257607f821691505b602082108114156124f357634e487b7160e01b600052602260045260246000fd5b50919050565b6020808252602e908201527f4552433732313a2063616c6c6572206973206e6f7420746f6b656e206f776e6560408201526d1c881b9bdc88185c1c1c9bdd995960921b606082015260800190565b634e487b7160e01b600052601160045260246000fd5b600060001982141561257157612571612547565b5060010190565b634e487b7160e01b600052603260045260246000fd5b600083516125a08184602088016121ba565b8351908301906125b48183602088016121ba565b01949350505050565b6000828210156125cf576125cf612547565b500390565b600082198211156125e7576125e7612547565b500190565b60208082526032908201527f4552433732313a207472616e7366657220746f206e6f6e20455243373231526560408201527131b2b4bb32b91034b6b83632b6b2b73a32b960711b606082015260800190565b634e487b7160e01b600052601260045260246000fd5b6000826126635761266361263e565b500490565b6000826126775761267761263e565b500690565b600081600019048311821515161561269657612696612547565b500290565b7f416363657373436f6e74726f6c3a206163636f756e74200000000000000000008152600083516126d38160178501602088016121ba565b7001034b99036b4b9b9b4b733903937b6329607d1b60179184019182015283516127048160288401602088016121ba565b01602801949350505050565b6001600160a01b0385811682528416602082015260408101839052608060608201819052600090612743908301846121e6565b9695505050505050565b60006020828403121561275f57600080fd5b81516110ac81612187565b60008161277957612779612547565b506000190190565b634e487b7160e01b600052603160045260246000fdfea49807205ce4d355092ef5a8a18f56e8913cf4a201fbe287825b095693c21775a2646970667358221220dbc267a819dbebd5cd6f641e476f2c11ec2fa3e8bba9c23ba1ac0ed196a03ed864736f6c634300080900339f2df0fed2c77648de5860a4cc508cd0818c85b8b8a1ab4ceeef8d981c8956a6a49807205ce4d355092ef5a8a18f56e8913cf4a201fbe287825b095693c21775",
  "linkReferences": {},
  "deployedLinkReferences": {}
}