{
  "_format": "hh-sol-artifact-1",
  "contractName": "CosmicElvesTicketUpgradeable",
  "sourceName": "contracts/upgradeable/ERC721/CosmicElvesTicketUpgradeable.sol",
  "abi": [
    {
      "inputs": [],
      "stateMutability": "nonpayable",
      "type": "constructor"
    },
    {
      "inputs": [
        {
          "internalType": "address",
          "name": "have",
          "type": "address"
        },
        {
          "internalType": "address",
          "name": "want",
          "type": "address"
        }
      ],
      "name": "OnlyCoordinatorCanFulfill",
      "type": "error"
    },
    {
      "anonymous": false,
      "inputs": [
        {
          "indexed": true,
          "internalType": "address",
          "name": "owner",
          "type": "address"
        },
        {
          "indexed": true,
          "internalType": "address",
          "name": "approved",
          "type": "address"
        },
        {
          "indexed": true,
          "internalType": "uint256",
          "name": "tokenId",
          "type": "uint256"
        }
      ],
      "name": "Approval",
      "type": "event"
    },
    {
      "anonymous": false,
      "inputs": [
        {
          "indexed": true,
          "internalType": "address",
          "name": "owner",
          "type": "address"
        },
        {
          "indexed": true,
          "internalType": "address",
          "name": "operator",
          "type": "address"
        },
        {
          "indexed": false,
          "internalType": "bool",
          "name": "approved",
          "type": "bool"
        }
      ],
      "name": "ApprovalForAll",
      "type": "event"
    },
    {
      "anonymous": false,
      "inputs": [
        {
          "indexed": false,
          "internalType": "uint8",
          "name": "version",
          "type": "uint8"
        }
      ],
      "name": "Initialized",
      "type": "event"
    },
    {
      "anonymous": false,
      "inputs": [
        {
          "indexed": false,
          "internalType": "address",
          "name": "account",
          "type": "address"
        }
      ],
      "name": "Paused",
      "type": "event"
    },
    {
      "anonymous": false,
      "inputs": [
        {
          "indexed": true,
          "internalType": "bytes32",
          "name": "role",
          "type": "bytes32"
        },
        {
          "indexed": true,
          "internalType": "bytes32",
          "name": "previousAdminRole",
          "type": "bytes32"
        },
        {
          "indexed": true,
          "internalType": "bytes32",
          "name": "newAdminRole",
          "type": "bytes32"
        }
      ],
      "name": "RoleAdminChanged",
      "type": "event"
    },
    {
      "anonymous": false,
      "inputs": [
        {
          "indexed": true,
          "internalType": "bytes32",
          "name": "role",
          "type": "bytes32"
        },
        {
          "indexed": true,
          "internalType": "address",
          "name": "account",
          "type": "address"
        },
        {
          "indexed": true,
          "internalType": "address",
          "name": "sender",
          "type": "address"
        }
      ],
      "name": "RoleGranted",
      "type": "event"
    },
    {
      "anonymous": false,
      "inputs": [
        {
          "indexed": true,
          "internalType": "bytes32",
          "name": "role",
          "type": "bytes32"
        },
        {
          "indexed": true,
          "internalType": "address",
          "name": "account",
          "type": "address"
        },
        {
          "indexed": true,
          "internalType": "address",
          "name": "sender",
          "type": "address"
        }
      ],
      "name": "RoleRevoked",
      "type": "event"
    },
    {
      "anonymous": false,
      "inputs": [
        {
          "indexed": true,
          "internalType": "address",
          "name": "from",
          "type": "address"
        },
        {
          "indexed": true,
          "internalType": "address",
          "name": "to",
          "type": "address"
        },
        {
          "indexed": true,
          "internalType": "uint256",
          "name": "tokenId",
          "type": "uint256"
        }
      ],
      "name": "Transfer",
      "type": "event"
    },
    {
      "anonymous": false,
      "inputs": [
        {
          "indexed": false,
          "internalType": "address",
          "name": "account",
          "type": "address"
        }
      ],
      "name": "Unpaused",
      "type": "event"
    },
    {
      "inputs": [],
      "name": "ADMIN_ROLE",
      "outputs": [
        {
          "internalType": "bytes32",
          "name": "",
          "type": "bytes32"
        }
      ],
      "stateMutability": "view",
      "type": "function"
    },
    {
      "inputs": [],
      "name": "DEFAULT_ADMIN_ROLE",
      "outputs": [
        {
          "internalType": "bytes32",
          "name": "",
          "type": "bytes32"
        }
      ],
      "stateMutability": "view",
      "type": "function"
    },
    {
      "inputs": [],
      "name": "MINTER_ROLE",
      "outputs": [
        {
          "internalType": "bytes32",
          "name": "",
          "type": "bytes32"
        }
      ],
      "stateMutability": "view",
      "type": "function"
    },
    {
      "inputs": [
        {
          "internalType": "address",
          "name": "_address",
          "type": "address"
        }
      ],
      "name": "addBlacklist",
      "outputs": [],
      "stateMutability": "nonpayable",
      "type": "function"
    },
    {
      "inputs": [
        {
          "internalType": "address",
          "name": "_address",
          "type": "address"
        }
      ],
      "name": "adminCheckPendingMintDataOf",
      "outputs": [
        {
          "components": [
            {
              "internalType": "uint256[]",
              "name": "ids",
              "type": "uint256[]"
            },
            {
              "internalType": "uint256",
              "name": "requestId",
              "type": "uint256"
            },
            {
              "internalType": "uint256[]",
              "name": "words",
              "type": "uint256[]"
            }
          ],
          "internalType": "struct CosmicElvesTicketUpgradeable.PendingMint",
          "name": "",
          "type": "tuple"
        }
      ],
      "stateMutability": "view",
      "type": "function"
    },
    {
      "inputs": [
        {
          "internalType": "address",
          "name": "to",
          "type": "address"
        },
        {
          "internalType": "uint256",
          "name": "tokenId",
          "type": "uint256"
        }
      ],
      "name": "approve",
      "outputs": [],
      "stateMutability": "nonpayable",
      "type": "function"
    },
    {
      "inputs": [
        {
          "internalType": "address",
          "name": "owner",
          "type": "address"
        }
      ],
      "name": "balanceOf",
      "outputs": [
        {
          "internalType": "uint256",
          "name": "",
          "type": "uint256"
        }
      ],
      "stateMutability": "view",
      "type": "function"
    },
    {
      "inputs": [
        {
          "internalType": "uint256[]",
          "name": "tokenIds",
          "type": "uint256[]"
        }
      ],
      "name": "batchDiscountOf",
      "outputs": [
        {
          "internalType": "uint256[]",
          "name": "",
          "type": "uint256[]"
        }
      ],
      "stateMutability": "view",
      "type": "function"
    },
    {
      "inputs": [
        {
          "internalType": "address",
          "name": "to",
          "type": "address"
        },
        {
          "internalType": "uint256[]",
          "name": "ids",
          "type": "uint256[]"
        }
      ],
      "name": "batchMint",
      "outputs": [],
      "stateMutability": "nonpayable",
      "type": "function"
    },
    {
      "inputs": [
        {
          "internalType": "uint256[]",
          "name": "tokenIds",
          "type": "uint256[]"
        }
      ],
      "name": "batchTokenURI",
      "outputs": [
        {
          "internalType": "string[]",
          "name": "",
          "type": "string[]"
        }
      ],
      "stateMutability": "view",
      "type": "function"
    },
    {
      "inputs": [
        {
          "internalType": "uint256",
          "name": "tokenId",
          "type": "uint256"
        }
      ],
      "name": "burn",
      "outputs": [],
      "stateMutability": "nonpayable",
      "type": "function"
    },
    {
      "inputs": [],
      "name": "cap",
      "outputs": [
        {
          "internalType": "uint256",
          "name": "",
          "type": "uint256"
        }
      ],
      "stateMutability": "view",
      "type": "function"
    },
    {
      "inputs": [
        {
          "internalType": "uint256",
          "name": "tokenId",
          "type": "uint256"
        }
      ],
      "name": "discountOf",
      "outputs": [
        {
          "internalType": "uint256",
          "name": "discount",
          "type": "uint256"
        }
      ],
      "stateMutability": "view",
      "type": "function"
    },
    {
      "inputs": [
        {
          "internalType": "uint256",
          "name": "tokenId",
          "type": "uint256"
        }
      ],
      "name": "getApproved",
      "outputs": [
        {
          "internalType": "address",
          "name": "",
          "type": "address"
        }
      ],
      "stateMutability": "view",
      "type": "function"
    },
    {
      "inputs": [
        {
          "internalType": "bytes32",
          "name": "role",
          "type": "bytes32"
        }
      ],
      "name": "getRoleAdmin",
      "outputs": [
        {
          "internalType": "bytes32",
          "name": "",
          "type": "bytes32"
        }
      ],
      "stateMutability": "view",
      "type": "function"
    },
    {
      "inputs": [
        {
          "internalType": "bytes32",
          "name": "role",
          "type": "bytes32"
        },
        {
          "internalType": "uint256",
          "name": "index",
          "type": "uint256"
        }
      ],
      "name": "getRoleMember",
      "outputs": [
        {
          "internalType": "address",
          "name": "",
          "type": "address"
        }
      ],
      "stateMutability": "view",
      "type": "function"
    },
    {
      "inputs": [
        {
          "internalType": "bytes32",
          "name": "role",
          "type": "bytes32"
        }
      ],
      "name": "getRoleMemberCount",
      "outputs": [
        {
          "internalType": "uint256",
          "name": "",
          "type": "uint256"
        }
      ],
      "stateMutability": "view",
      "type": "function"
    },
    {
      "inputs": [
        {
          "internalType": "bytes32",
          "name": "role",
          "type": "bytes32"
        },
        {
          "internalType": "address",
          "name": "account",
          "type": "address"
        }
      ],
      "name": "grantRole",
      "outputs": [],
      "stateMutability": "nonpayable",
      "type": "function"
    },
    {
      "inputs": [
        {
          "internalType": "bytes32",
          "name": "role",
          "type": "bytes32"
        },
        {
          "internalType": "address",
          "name": "account",
          "type": "address"
        }
      ],
      "name": "hasRole",
      "outputs": [
        {
          "internalType": "bool",
          "name": "",
          "type": "bool"
        }
      ],
      "stateMutability": "view",
      "type": "function"
    },
    {
      "inputs": [],
      "name": "imageBaseURI",
      "outputs": [
        {
          "internalType": "string",
          "name": "",
          "type": "string"
        }
      ],
      "stateMutability": "view",
      "type": "function"
    },
    {
      "inputs": [],
      "name": "initialize",
      "outputs": [],
      "stateMutability": "nonpayable",
      "type": "function"
    },
    {
      "inputs": [
        {
          "internalType": "address",
          "name": "owner",
          "type": "address"
        },
        {
          "internalType": "address",
          "name": "operator",
          "type": "address"
        }
      ],
      "name": "isApprovedForAll",
      "outputs": [
        {
          "internalType": "bool",
          "name": "",
          "type": "bool"
        }
      ],
      "stateMutability": "view",
      "type": "function"
    },
    {
      "inputs": [],
      "name": "lastTokenId",
      "outputs": [
        {
          "internalType": "uint256",
          "name": "",
          "type": "uint256"
        }
      ],
      "stateMutability": "view",
      "type": "function"
    },
    {
      "inputs": [
        {
          "internalType": "address",
          "name": "to",
          "type": "address"
        },
        {
          "internalType": "uint256",
          "name": "id",
          "type": "uint256"
        }
      ],
      "name": "mint",
      "outputs": [],
      "stateMutability": "nonpayable",
      "type": "function"
    },
    {
      "inputs": [
        {
          "internalType": "uint256",
          "name": "count",
          "type": "uint256"
        }
      ],
      "name": "mint",
      "outputs": [],
      "stateMutability": "nonpayable",
      "type": "function"
    },
    {
      "inputs": [],
      "name": "name",
      "outputs": [
        {
          "internalType": "string",
          "name": "",
          "type": "string"
        }
      ],
      "stateMutability": "view",
      "type": "function"
    },
    {
      "inputs": [
        {
          "internalType": "uint256",
          "name": "tokenId",
          "type": "uint256"
        }
      ],
      "name": "ownerOf",
      "outputs": [
        {
          "internalType": "address",
          "name": "",
          "type": "address"
        }
      ],
      "stateMutability": "view",
      "type": "function"
    },
    {
      "inputs": [],
      "name": "pause",
      "outputs": [],
      "stateMutability": "nonpayable",
      "type": "function"
    },
    {
      "inputs": [],
      "name": "paused",
      "outputs": [
        {
          "internalType": "bool",
          "name": "",
          "type": "bool"
        }
      ],
      "stateMutability": "view",
      "type": "function"
    },
    {
      "inputs": [],
      "name": "price",
      "outputs": [
        {
          "internalType": "uint256",
          "name": "",
          "type": "uint256"
        }
      ],
      "stateMutability": "view",
      "type": "function"
    },
    {
      "inputs": [
        {
          "internalType": "uint256",
          "name": "requestId",
          "type": "uint256"
        },
        {
          "internalType": "uint256[]",
          "name": "randomWords",
          "type": "uint256[]"
        }
      ],
      "name": "rawFulfillRandomWords",
      "outputs": [],
      "stateMutability": "nonpayable",
      "type": "function"
    },
    {
      "inputs": [
        {
          "internalType": "address",
          "name": "_address",
          "type": "address"
        }
      ],
      "name": "removeBlacklist",
      "outputs": [],
      "stateMutability": "nonpayable",
      "type": "function"
    },
    {
      "inputs": [
        {
          "internalType": "bytes32",
          "name": "role",
          "type": "bytes32"
        },
        {
          "internalType": "address",
          "name": "account",
          "type": "address"
        }
      ],
      "name": "renounceRole",
      "outputs": [],
      "stateMutability": "nonpayable",
      "type": "function"
    },
    {
      "inputs": [],
      "name": "reveal",
      "outputs": [],
      "stateMutability": "nonpayable",
      "type": "function"
    },
    {
      "inputs": [
        {
          "internalType": "address",
          "name": "_address",
          "type": "address"
        }
      ],
      "name": "revealsPendingOf",
      "outputs": [
        {
          "internalType": "uint256[]",
          "name": "",
          "type": "uint256[]"
        },
        {
          "internalType": "bool",
          "name": "",
          "type": "bool"
        }
      ],
      "stateMutability": "view",
      "type": "function"
    },
    {
      "inputs": [
        {
          "internalType": "bytes32",
          "name": "role",
          "type": "bytes32"
        },
        {
          "internalType": "address",
          "name": "account",
          "type": "address"
        }
      ],
      "name": "revokeRole",
      "outputs": [],
      "stateMutability": "nonpayable",
      "type": "function"
    },
    {
      "inputs": [
        {
          "internalType": "address",
          "name": "from",
          "type": "address"
        },
        {
          "internalType": "address",
          "name": "to",
          "type": "address"
        },
        {
          "internalType": "uint256",
          "name": "tokenId",
          "type": "uint256"
        }
      ],
      "name": "safeTransferFrom",
      "outputs": [],
      "stateMutability": "nonpayable",
      "type": "function"
    },
    {
      "inputs": [
        {
          "internalType": "address",
          "name": "from",
          "type": "address"
        },
        {
          "internalType": "address",
          "name": "to",
          "type": "address"
        },
        {
          "internalType": "uint256",
          "name": "tokenId",
          "type": "uint256"
        },
        {
          "internalType": "bytes",
          "name": "data",
          "type": "bytes"
        }
      ],
      "name": "safeTransferFrom",
      "outputs": [],
      "stateMutability": "nonpayable",
      "type": "function"
    },
    {
      "inputs": [
        {
          "internalType": "address",
          "name": "operator",
          "type": "address"
        },
        {
          "internalType": "bool",
          "name": "approved",
          "type": "bool"
        }
      ],
      "name": "setApprovalForAll",
      "outputs": [],
      "stateMutability": "nonpayable",
      "type": "function"
    },
    {
      "inputs": [
        {
          "internalType": "uint256",
          "name": "_cap",
          "type": "uint256"
        }
      ],
      "name": "setCap",
      "outputs": [],
      "stateMutability": "nonpayable",
      "type": "function"
    },
    {
      "inputs": [
        {
          "internalType": "uint256[]",
          "name": "tokenIds",
          "type": "uint256[]"
        },
        {
          "internalType": "uint256[]",
          "name": "discounts",
          "type": "uint256[]"
        }
      ],
      "name": "setDiscountsOf",
      "outputs": [],
      "stateMutability": "nonpayable",
      "type": "function"
    },
    {
      "inputs": [
        {
          "internalType": "string",
          "name": "_imageBaseURI",
          "type": "string"
        }
      ],
      "name": "setImageBaseURI",
      "outputs": [],
      "stateMutability": "nonpayable",
      "type": "function"
    },
    {
      "inputs": [
        {
          "internalType": "uint256",
          "name": "_price",
          "type": "uint256"
        }
      ],
      "name": "setTicketPrice",
      "outputs": [],
      "stateMutability": "nonpayable",
      "type": "function"
    },
    {
      "inputs": [
        {
          "internalType": "bytes4",
          "name": "interfaceId",
          "type": "bytes4"
        }
      ],
      "name": "supportsInterface",
      "outputs": [
        {
          "internalType": "bool",
          "name": "",
          "type": "bool"
        }
      ],
      "stateMutability": "view",
      "type": "function"
    },
    {
      "inputs": [],
      "name": "symbol",
      "outputs": [
        {
          "internalType": "string",
          "name": "",
          "type": "string"
        }
      ],
      "stateMutability": "view",
      "type": "function"
    },
    {
      "inputs": [
        {
          "internalType": "uint256",
          "name": "index",
          "type": "uint256"
        }
      ],
      "name": "tokenByIndex",
      "outputs": [
        {
          "internalType": "uint256",
          "name": "",
          "type": "uint256"
        }
      ],
      "stateMutability": "view",
      "type": "function"
    },
    {
      "inputs": [
        {
          "internalType": "address",
          "name": "owner",
          "type": "address"
        },
        {
          "internalType": "uint256",
          "name": "index",
          "type": "uint256"
        }
      ],
      "name": "tokenOfOwnerByIndex",
      "outputs": [
        {
          "internalType": "uint256",
          "name": "",
          "type": "uint256"
        }
      ],
      "stateMutability": "view",
      "type": "function"
    },
    {
      "inputs": [
        {
          "internalType": "uint256",
          "name": "tokenId",
          "type": "uint256"
        }
      ],
      "name": "tokenURI",
      "outputs": [
        {
          "internalType": "string",
          "name": "",
          "type": "string"
        }
      ],
      "stateMutability": "view",
      "type": "function"
    },
    {
      "inputs": [
        {
          "internalType": "address",
          "name": "_address",
          "type": "address"
        }
      ],
      "name": "tokensAndDiscountsOfOwner",
      "outputs": [
        {
          "internalType": "uint256[]",
          "name": "tokens",
          "type": "uint256[]"
        },
        {
          "internalType": "uint256[]",
          "name": "discounts",
          "type": "uint256[]"
        }
      ],
      "stateMutability": "view",
      "type": "function"
    },
    {
      "inputs": [
        {
          "internalType": "address",
          "name": "owner",
          "type": "address"
        }
      ],
      "name": "tokensOfOwner",
      "outputs": [
        {
          "internalType": "uint256[]",
          "name": "",
          "type": "uint256[]"
        }
      ],
      "stateMutability": "view",
      "type": "function"
    },
    {
      "inputs": [],
      "name": "totalSupply",
      "outputs": [
        {
          "internalType": "uint256",
          "name": "",
          "type": "uint256"
        }
      ],
      "stateMutability": "view",
      "type": "function"
    },
    {
      "inputs": [
        {
          "internalType": "address",
          "name": "from",
          "type": "address"
        },
        {
          "internalType": "address",
          "name": "to",
          "type": "address"
        },
        {
          "internalType": "uint256",
          "name": "tokenId",
          "type": "uint256"
        }
      ],
      "name": "transferFrom",
      "outputs": [],
      "stateMutability": "nonpayable",
      "type": "function"
    },
    {
      "inputs": [],
      "name": "treasury",
      "outputs": [
        {
          "internalType": "address",
          "name": "",
          "type": "address"
        }
      ],
      "stateMutability": "view",
      "type": "function"
    },
    {
      "inputs": [],
      "name": "unpause",
      "outputs": [],
      "stateMutability": "nonpayable",
      "type": "function"
    }
  ],
  "bytecode": "0x60806040523480156200001157600080fd5b506200001c62000022565b620000e4565b600054610100900460ff16156200008f5760405162461bcd60e51b815260206004820152602760248201527f496e697469616c697a61626c653a20636f6e747261637420697320696e697469604482015266616c697a696e6760c81b606482015260840160405180910390fd5b60005460ff9081161015620000e2576000805460ff191660ff9081179091556040519081527f7f26b83ff96e1f2b6a682f133852f6798a09c465da95921460cefb38474024989060200160405180910390a15b565b61463180620000f46000396000f3fe608060405234801561001057600080fd5b50600436106103425760003560e01c80636d94f13a116101b8578063a0712d6811610104578063ca15c873116100a2578063da1391421161007c578063da13914214610720578063e985e9c514610733578063eb91e6511461076f578063f84ddf0b1461078257600080fd5b8063ca15c873146106e5578063d5391393146106f8578063d547741f1461070d57600080fd5b8063a475b5dd116100de578063a475b5dd14610696578063ad8f9ad61461069e578063b88d4fde146106bf578063c87b56dd146106d257600080fd5b8063a0712d6814610668578063a217fddf1461067b578063a22cb4651461068357600080fd5b80638456cb591161017157806391d148541161014b57806391d148541461063057806395d89b41146106435780639cfe42da1461064b578063a035b1fe1461065e57600080fd5b80638456cb59146106025780638462151c1461060a5780639010d07c1461061d57600080fd5b80636d94f13a1461058a57806370a08231146105aa57806375b238fc146105bd57806377645839146105d25780638129fc1c146105da57806382b08a90146105e257600080fd5b8063355274ea1161029257806347786d37116102305780635c975abb1161020a5780635c975abb1461054457806361d027b3146105505780636352211e146105645780636cfa24cc1461057757600080fd5b806347786d371461050b57806349299d6e1461051e5780634f6ccce71461053157600080fd5b806340c10f191161026c57806340c10f19146104bf57806342842e0e146104d257806342966c68146104e55780634684d7e9146104f857600080fd5b8063355274ea1461049a57806336568abe146104a45780633f4ba83a146104b757600080fd5b806318160ddd116102ff57806323b872dd116102d957806323b872dd1461043d578063248a9ca3146104505780632f2ff15d146104745780632f745c591461048757600080fd5b806318160ddd146103f85780631e9d71011461040a5780631fe543e31461042a57600080fd5b806301ffc9a71461034757806306fdde031461036f578063081812fc14610384578063095ea7b3146103af578063131b71b0146103c457806315981650146103e5575b600080fd5b61035a6103553660046137f1565b61078a565b60405190151581526020015b60405180910390f35b61037761079b565b6040516103669190613866565b610397610392366004613879565b61082d565b6040516001600160a01b039091168152602001610366565b6103c26103bd3660046138ae565b610854565b005b6103d76103d23660046138d8565b610896565b60405161036692919061392e565b6103c26103f3366004613879565b6108bd565b60ca545b604051908152602001610366565b61041d610418366004613a21565b6108dc565b6040516103669190613a55565b6103c2610438366004613a68565b610989565b6103c261044b366004613aae565b6109e2565b6103fc61045e366004613879565b6000908152610190602052604090206001015490565b6103c2610482366004613aea565b610a14565b6103fc6104953660046138ae565b610a3a565b6103fc6102995481565b6103c26104b2366004613aea565b610ad0565b6103c2610b4a565b6103c26104cd3660046138ae565b610b6d565b6103c26104e0366004613aae565b610b97565b6103c26104f3366004613879565b610bb2565b6103c2610506366004613b16565b610bed565b6103c2610519366004613879565b610c54565b6103fc61052c366004613879565b610c73565b6103fc61053f366004613879565b610d42565b61012c5460ff1661035a565b61029754610397906001600160a01b031681565b610397610572366004613879565b610dd5565b6103c2610585366004613ba4565b610e35565b61059d610598366004613a21565b610e61565b6040516103669190613bec565b6103fc6105b83660046138d8565b610f12565b6103fc6000805160206145dc83398151915281565b610377610f98565b6103c2611027565b6105f56105f03660046138d8565b6112c2565b6040516103669190613c4e565b6103c26113dd565b61041d6106183660046138d8565b6113fd565b61039761062b366004613c91565b61149e565b61035a61063e366004613aea565b6114be565b6103776114ea565b6103c26106593660046138d8565b6114f9565b6103fc6102985481565b6103c2610676366004613879565b61151d565b6103fc600081565b6103c2610691366004613cc1565b6117a9565b6103c26117dd565b6106b16106ac3660046138d8565b611a61565b604051610366929190613cf8565b6103c26106cd366004613d1c565b611adf565b6103776106e0366004613879565b611b11565b6103fc6106f3366004613879565b611c3b565b6103fc6000805160206145bc83398151915281565b6103c261071b366004613aea565b611c53565b6103c261072e366004613d97565b611c79565b61035a610741366004613df0565b6001600160a01b039182166000908152609b6020908152604080832093909416825291909152205460ff1690565b6103c261077d3660046138d8565b611dd5565b6103fc611df9565b600061079582611e0a565b92915050565b6060609680546107aa90613e1a565b80601f01602080910402602001604051908101604052809291908181526020018280546107d690613e1a565b80156108235780601f106107f857610100808354040283529160200191610823565b820191906000526020600020905b81548152906001019060200180831161080657829003601f168201915b5050505050905090565b600061083882611e15565b506000908152609a60205260409020546001600160a01b031690565b8161086161028c82611e65565b156108875760405162461bcd60e51b815260040161087e90613e4f565b60405180910390fd5b6108918383611e87565b505050565b60608060006108a4846113fd565b905060006108b1826108dc565b91959194509092505050565b6000805160206145dc8339815191526108d581611f98565b5061029855565b6060600082516001600160401b038111156108f9576108f961395c565b604051908082528060200260200182016040528015610922578160200160208202803683370190505b50905060005b83518110156109825761095384828151811061094657610946613e7c565b6020026020010151610c73565b82828151811061096557610965613e7c565b60209081029190910101528061097a81613ea8565b915050610928565b5092915050565b6000546201000090046001600160a01b031633146109d45760005460405163073e64fd60e21b8152336004820152620100009091046001600160a01b0316602482015260440161087e565b6109de8282611fa2565b5050565b6109ed335b82611fdc565b610a095760405162461bcd60e51b815260040161087e90613ec3565b61089183838361205b565b60008281526101906020526040902060010154610a3081611f98565b6108918383612202565b6000610a4583610f12565b8210610aa75760405162461bcd60e51b815260206004820152602b60248201527f455243373231456e756d657261626c653a206f776e657220696e646578206f7560448201526a74206f6620626f756e647360a81b606482015260840161087e565b506001600160a01b0391909116600090815260c860209081526040808320938352929052205490565b6001600160a01b0381163314610b405760405162461bcd60e51b815260206004820152602f60248201527f416363657373436f6e74726f6c3a2063616e206f6e6c792072656e6f756e636560448201526e103937b632b9903337b91039b2b63360891b606482015260840161087e565b6109de8282612225565b6000805160206145dc833981519152610b6281611f98565b610b6a612248565b50565b610b7561229b565b6000805160206145bc833981519152610b8d81611f98565b61089183836122e4565b61089183838360405180602001604052806000815250611adf565b610bbb336109e7565b610bd75760405162461bcd60e51b815260040161087e90613ec3565b610be36101f4826122fe565b50610b6a8161230a565b610bf561229b565b6000805160206145bc833981519152610c0d81611f98565b60005b8251811015610c4e57610c3c84848381518110610c2f57610c2f613e7c565b60200260200101516122e4565b80610c4681613ea8565b915050610c10565b50505050565b6000805160206145dc833981519152610c6c81611f98565b5061029955565b6000610c7e826123b1565b610cd65760405162461bcd60e51b8152602060048201526024808201527f446973636f756e7420717565727920666f72206e6f6e6578697374656e74207460448201526337b5b2b760e11b606482015260840161087e565b610ce261028e836123d9565b15610cef57506005919050565b610cfb610290836123d9565b15610d085750600a919050565b610d14610292836123d9565b15610d215750600f919050565b610d2d610294836123d9565b15610d3a57506014919050565b506000919050565b6000610d4d60ca5490565b8210610db05760405162461bcd60e51b815260206004820152602c60248201527f455243373231456e756d657261626c653a20676c6f62616c20696e646578206f60448201526b7574206f6620626f756e647360a01b606482015260840161087e565b60ca8281548110610dc357610dc3613e7c565b90600052602060002001549050919050565b6000818152609860205260408120546001600160a01b0316806107955760405162461bcd60e51b8152602060048201526018602482015277115490cdcc8c4e881a5b9d985b1a59081d1bdad95b88125160421b604482015260640161087e565b6000805160206145dc833981519152610e4d81611f98565b81516108919061029a9060208501906136ea565b6060600082516001600160401b03811115610e7e57610e7e61395c565b604051908082528060200260200182016040528015610eb157816020015b6060815260200190600190039081610e9c5790505b50905060005b835181101561098257610ee2848281518110610ed557610ed5613e7c565b6020026020010151611b11565b828281518110610ef457610ef4613e7c565b60200260200101819052508080610f0a90613ea8565b915050610eb7565b60006001600160a01b038216610f7c5760405162461bcd60e51b815260206004820152602960248201527f4552433732313a2061646472657373207a65726f206973206e6f7420612076616044820152683634b21037bbb732b960b91b606482015260840161087e565b506001600160a01b031660009081526099602052604090205490565b61029a8054610fa690613e1a565b80601f0160208091040260200160405190810160405280929190818152602001828054610fd290613e1a565b801561101f5780601f10610ff45761010080835404028352916020019161101f565b820191906000526020600020905b81548152906001019060200180831161100257829003601f168201915b505050505081565b600054610100900460ff16158080156110475750600054600160ff909116105b806110615750303b158015611061575060005460ff166001145b6110c45760405162461bcd60e51b815260206004820152602e60248201527f496e697469616c697a61626c653a20636f6e747261637420697320616c72656160448201526d191e481a5b9a5d1a585b1a5e995960921b606482015260840161087e565b6000805460ff1916600117905580156110e7576000805461ff0019166101001790555b6111336040518060400160405280600b81526020016a115b1d995cd51a58dad95d60aa1b8152506040518060400160405280600781526020016611551250d2d15560ca1b8152506123f1565b61113b612422565b611143612449565b61114b612422565b611153612422565b73d5d517abe5cf79b7e95ec98db0f0277788aff6347f83250c5584ffa93feb6ee082981c5ebe484c865196750b39835ad4f13780435d601b600361119984848484612478565b6111a4600033612202565b6111bc6000805160206145dc83398151915233612202565b6111d46000805160206145bc83398151915233612202565b61029680546001600160a01b031990811673b97ef9ef8734c71904d8002f8b6bc66dd9c48a6e17909155610297805490911673d2578a0b2631e591890f28499e9e8d73f21e58951790556298968061029855611388610299556040805160608101909152603080825261454c6020830139805161125a9161029a916020909101906136ea565b5061036761126861028b5490565b10156112765761036761028b555b505050508015610b6a576000805461ff0019169055604051600181527f7f26b83ff96e1f2b6a682f133852f6798a09c465da95921460cefb38474024989060200160405180910390a150565b6112e660405180606001604052806060815260200160008152602001606081525090565b6000805160206145dc8339815191526112fe81611f98565b6001600160a01b038316600090815261028960209081526040918290208251815460809381028201840190945260608101848152909391928492849184018282801561136957602002820191906000526020600020905b815481526020019060010190808311611355575b5050505050815260200160018201548152602001600282018054806020026020016040519081016040528092919081815260200182805480156113cb57602002820191906000526020600020905b8154815260200190600101908083116113b7575b50505050508152505091505b50919050565b6000805160206145dc8339815191526113f581611f98565b610b6a6124bc565b6060600061140a83610f12565b90506000816001600160401b038111156114265761142661395c565b60405190808252806020026020018201604052801561144f578160200160208202803683370190505b50905060005b82811015611496576114678582610a3a565b82828151811061147957611479613e7c565b60209081029190910101528061148e81613ea8565b915050611455565b509392505050565b60008281526101c2602052604081206114b790836124fa565b9392505050565b6000918252610190602090815260408084206001600160a01b0393909316845291905290205460ff1690565b6060609780546107aa90613e1a565b6000805160206145dc83398151915261151181611f98565b61089161028c83612506565b61152561229b565b336000908152610289602052604090206001810154156115875760405162461bcd60e51b815260206004820152601960248201527f4578697374696e67206d696e7420696e2070726f677265737300000000000000604482015260640161087e565b600a8211156115ce5760405162461bcd60e51b815260206004820152601360248201527213585e1a5b5d5b480c4c081c195c881b5a5b9d606a1b604482015260640161087e565b60006115da61028b5490565b90506102995481106116195760405162461bcd60e51b815260206004820152600860248201526714dbdb19081bdd5d60c21b604482015260640161087e565b610299546116278483613f11565b11156116755760405162461bcd60e51b815260206004820152601b60248201527f496e73756666696369656e742072656d61696e696e67204e4654730000000000604482015260640161087e565b610296546001600160a01b03166323b872dd3361029754610298546001600160a01b03909116906116a7908890613f29565b6040516001600160e01b031960e086901b1681526001600160a01b0393841660048201529290911660248301526044820152606401602060405180830381600087803b1580156116f657600080fd5b505af115801561170a573d6000803e3d6000fd5b505050506040513d601f19601f8201168201806040525081019061172e9190613f48565b506117388361251b565b60018301819055600090815261028a6020526040812080546001600160a01b031916331790555b83811015610c4e5761177661028b80546001019055565b8261178161028b5490565b81546001810183556000928352602090922090910155806117a181613ea8565b91505061175f565b816117b661028c82611e65565b156117d35760405162461bcd60e51b815260040161087e90613e4f565b61089183836125f3565b3360009081526102896020526040902060018101546118305760405162461bcd60e51b815260206004820152600f60248201526e139bc81c195b991a5b99c81b5a5b9d608a1b604482015260640161087e565b60028101546118795760405162461bcd60e51b8152602060048201526015602482015274526573756c7473207374696c6c2070656e64696e6760581b604482015260640161087e565b60005b8154811015611a0d5760006103e883600201838154811061189f5761189f613e7c565b90600052602060002001546118b49190613f7b565b90506103de81106118f9576118f38360000183815481106118d7576118d7613e7c565b90600052602060002001546102946122fe90919063ffffffff16565b506119d1565b6103b6811015801561190c57506103de81105b15611945576118f383600001838154811061192957611929613e7c565b90600052602060002001546102926122fe90919063ffffffff16565b6102ee811015801561195857506103b681105b15611991576118f383600001838154811061197557611975613e7c565b90600052602060002001546102906122fe90919063ffffffff16565b6102ee8110156119d1576119cf8360000183815481106119b3576119b3613e7c565b906000526020600020015461028e6122fe90919063ffffffff16565b505b6119fa338460000184815481106119ea576119ea613e7c565b90600052602060002001546122e4565b5080611a0581613ea8565b91505061187c565b506001810154600090815261028a6020908152604080832080546001600160a01b0319169055338352610289909152812090611a49828261376e565b6001820160009055600282016000610891919061376e565b6001600160a01b0381166000908152610289602090815260408083206002810154815483518186028101860190945280845260609594929391151592849190830182828015611acf57602002820191906000526020600020905b815481526020019060010190808311611abb575b5050505050915091509150915091565b611ae93383611fdc565b611b055760405162461bcd60e51b815260040161087e90613ec3565b610c4e848484846125fe565b60606000611b1e83610c73565b90506000611b2b82612631565b604051602001611b3b9190613fab565b6040516020818303038152906040529050600061029a611b5a84612631565b604051602001611b6b929190613fd0565b60405160208183030381529060405290506000611b878461272e565b90506000611b9487612631565b8384604051602001611ba89392919061406e565b604051602081830303815290604052905060008483604051602001611bce929190614193565b604051602081830303815290604052905060008282604051602001611bf4929190614292565b6040516020818303038152906040529050611c0e816127f2565b604051602001611c1e91906142df565b604051602081830303815290604052975050505050505050919050565b60008181526101c26020526040812061079590612945565b60008281526101906020526040902060010154611c6f81611f98565b6108918383612225565b6000805160206145dc833981519152611c9181611f98565b60005b8351811015610c4e57828181518110611caf57611caf613e7c565b602002602001015160141415611cf357611ced848281518110611cd457611cd4613e7c565b60200260200101516102946122fe90919063ffffffff16565b50611dc3565b828181518110611d0557611d05613e7c565b6020026020010151600f1415611d4357611ced848281518110611d2a57611d2a613e7c565b60200260200101516102926122fe90919063ffffffff16565b828181518110611d5557611d55613e7c565b6020026020010151600a1415611d9357611ced848281518110611d7a57611d7a613e7c565b60200260200101516102906122fe90919063ffffffff16565b611dc1848281518110611da857611da8613e7c565b602002602001015161028e6122fe90919063ffffffff16565b505b80611dcd81613ea8565b915050611c94565b6000805160206145dc833981519152611ded81611f98565b61089161028c8361294f565b6000611e0561028b5490565b905090565b600061079582612964565b611e1e81612989565b610b6a5760405162461bcd60e51b8152602060048201526018602482015277115490cdcc8c4e881a5b9d985b1a59081d1bdad95b88125160421b604482015260640161087e565b6001600160a01b038116600090815260018301602052604081205415156114b7565b6000611e9282610dd5565b9050806001600160a01b0316836001600160a01b03161415611f005760405162461bcd60e51b815260206004820152602160248201527f4552433732313a20617070726f76616c20746f2063757272656e74206f776e656044820152603960f91b606482015260840161087e565b336001600160a01b0382161480611f1c5750611f1c8133610741565b611f8e5760405162461bcd60e51b815260206004820152603e60248201527f4552433732313a20617070726f76652063616c6c6572206973206e6f7420746f60448201527f6b656e206f776e6572206e6f7220617070726f76656420666f7220616c6c0000606482015260840161087e565b6108918383612994565b610b6a8133612a02565b600082815261028a60209081526040808320546001600160a01b03168352610289825290912082516108919260029092019184019061378c565b600080611fe883610dd5565b9050806001600160a01b0316846001600160a01b0316148061202f57506001600160a01b038082166000908152609b602090815260408083209388168352929052205460ff165b806120535750836001600160a01b03166120488461082d565b6001600160a01b0316145b949350505050565b826001600160a01b031661206e82610dd5565b6001600160a01b0316146120d25760405162461bcd60e51b815260206004820152602560248201527f4552433732313a207472616e736665722066726f6d20696e636f72726563742060448201526437bbb732b960d91b606482015260840161087e565b6001600160a01b0382166121345760405162461bcd60e51b8152602060048201526024808201527f4552433732313a207472616e7366657220746f20746865207a65726f206164646044820152637265737360e01b606482015260840161087e565b61213f838383612a66565b61214a600082612994565b6001600160a01b0383166000908152609960205260408120805460019290612173908490614324565b90915550506001600160a01b03821660009081526099602052604081208054600192906121a1908490613f11565b909155505060008181526098602052604080822080546001600160a01b0319166001600160a01b0386811691821790925591518493918716917fddf252ad1be2c89b69c2b068fc378daa952ba7f163c4a11628f55a4df523b3ef91a4505050565b61220c8282612ad4565b60008281526101c2602052604090206108919082612506565b61222f8282612b5b565b60008281526101c260205260409020610891908261294f565b612250612bc3565b61012c805460ff191690557f5db9ee0a495bf2e6ff9c91a7834c1ba4fdd244a5e8aa4e537bd38aeae4b073aa335b6040516001600160a01b03909116815260200160405180910390a1565b61012c5460ff16156122e25760405162461bcd60e51b815260206004820152601060248201526f14185d5cd8589b194e881c185d5cd95960821b604482015260640161087e565b565b6109de828260405180602001604052806000815250612c0d565b60006114b78383612c40565b600061231582610dd5565b905061232381600084612a66565b61232e600083612994565b6001600160a01b0381166000908152609960205260408120805460019290612357908490614324565b909155505060008281526098602052604080822080546001600160a01b0319169055518391906001600160a01b038416907fddf252ad1be2c89b69c2b068fc378daa952ba7f163c4a11628f55a4df523b3ef908390a45050565b6000818152609860205260408120546001600160a01b031615158061079557506107956101f4835b600081815260018301602052604081205415156114b7565b600054610100900460ff166124185760405162461bcd60e51b815260040161087e9061433b565b6109de8282612c8f565b600054610100900460ff166122e25760405162461bcd60e51b815260040161087e9061433b565b600054610100900460ff166124705760405162461bcd60e51b815260040161087e9061433b565b6122e2612cdd565b600054610100900460ff1661249f5760405162461bcd60e51b815260040161087e9061433b565b6124a7612422565b6124b084612d11565b610c4e84848484612d41565b6124c461229b565b61012c805460ff191660011790557f62e78cea01bee320cd4e420270b5ea74000d11b0c9f74754ebdbfc544b05a25861227e3390565b60006114b78383612dc3565b60006114b7836001600160a01b038416612c40565b60008061252a83614e20614386565b61253790620186a06143b2565b610258546102595461025a546040516305d3b1d360e41b815260048101929092526001600160401b0381166024830152600160401b900461ffff16604482015263ffffffff8084166064830152861660848201529192506001600160a01b031690635d3b1d309060a401602060405180830381600087803b1580156125bb57600080fd5b505af11580156125cf573d6000803e3d6000fd5b505050506040513d601f19601f820116820180604052508101906114b791906143da565b6109de338383612ded565b61260984848461205b565b61261584848484612ebc565b610c4e5760405162461bcd60e51b815260040161087e906143f3565b6060816126555750506040805180820190915260018152600360fc1b602082015290565b8160005b811561267f578061266981613ea8565b91506126789050600a83614445565b9150612659565b6000816001600160401b038111156126995761269961395c565b6040519080825280601f01601f1916602001820160405280156126c3576020820181803683370190505b5090505b8415612053576126d8600183614324565b91506126e5600a86613f7b565b6126f0906030613f11565b60f81b81838151811061270557612705613e7c565b60200101906001600160f81b031916908160001a905350612727600a86614445565b94506126c7565b6060816014141561275a5750506040805180820190915260058152640313a3130360dc1b602082015290565b81600f1415612783575050604080518082019091526004815263313a323560e01b602082015290565b81600a14156127ab575050604080518082019091526003815262313a3560e81b602082015290565b81600514156127d3575050604080518082019091526003815262333a3160e81b602082015290565b50506040805180820190915260038152620303a360ec1b602082015290565b606081516000141561281257505060408051602081019091526000815290565b600060405180606001604052806040815260200161457c60409139905060006003845160026128419190613f11565b61284b9190614445565b612856906004613f29565b6001600160401b0381111561286d5761286d61395c565b6040519080825280601f01601f191660200182016040528015612897576020820181803683370190505b509050600182016020820185865187015b80821015612903576003820191508151603f8160121c168501518453600184019350603f81600c1c168501518453600184019350603f8160061c168501518453600184019350603f81168501518453506001830192506128a8565b505060038651066001811461291f57600281146129325761293a565b603d6001830353603d600283035361293a565b603d60018303535b509195945050505050565b6000610795825490565b60006114b7836001600160a01b038416612fc9565b60006001600160e01b03198216635a05180f60e01b14806107955750610795826130bc565b6000610795826123b1565b6000818152609a6020526040902080546001600160a01b0319166001600160a01b03841690811790915581906129c982610dd5565b6001600160a01b03167f8c5be1e5ebec7d5bd14f71427d1e84f3dd0314c0f7b2291e5b200ac8c7c3b92560405160405180910390a45050565b612a0c82826114be565b6109de57612a24816001600160a01b031660146130e1565b612a2f8360206130e1565b604051602001612a40929190614459565b60408051601f198184030181529082905262461bcd60e51b825261087e91600401613866565b612a6e61229b565b82612a7b61028c82611e65565b15612a985760405162461bcd60e51b815260040161087e90613e4f565b82612aa561028c82611e65565b15612ac25760405162461bcd60e51b815260040161087e90613e4f565b612acd85858561327c565b5050505050565b612ade82826114be565b6109de576000828152610190602090815260408083206001600160a01b03851684529091529020805460ff19166001179055612b173390565b6001600160a01b0316816001600160a01b0316837f2f8788117e7eff1d82e926ec794901d17c78024a50270940304540a733656f0d60405160405180910390a45050565b612b6582826114be565b156109de576000828152610190602090815260408083206001600160a01b0385168085529252808320805460ff1916905551339285917ff6391f5c32d9c69d2a47ea670b442974b53935d1edc7fd64eb21e047a839171b9190a45050565b61012c5460ff166122e25760405162461bcd60e51b815260206004820152601460248201527314185d5cd8589b194e881b9bdd081c185d5cd95960621b604482015260640161087e565b612c178383613287565b612c246000848484612ebc565b6108915760405162461bcd60e51b815260040161087e906143f3565b6000818152600183016020526040812054612c8757508154600181810184556000848152602080822090930184905584548482528286019093526040902091909155610795565b506000610795565b600054610100900460ff16612cb65760405162461bcd60e51b815260040161087e9061433b565b8151612cc99060969060208501906136ea565b5080516108919060979060208401906136ea565b600054610100900460ff16612d045760405162461bcd60e51b815260040161087e9061433b565b61012c805460ff19169055565b600054610100900460ff16612d385760405162461bcd60e51b815260040161087e9061433b565b610b6a816133c6565b600054610100900460ff16612d685760405162461bcd60e51b815260040161087e9061433b565b61025880546001600160a01b039095166001600160a01b03199095169490941790935561025a80546102599390935561ffff909316600160401b0269ffffffffffffffffffff199092166001600160401b0390911617179055565b6000826000018281548110612dda57612dda613e7c565b9060005260206000200154905092915050565b816001600160a01b0316836001600160a01b03161415612e4f5760405162461bcd60e51b815260206004820152601960248201527f4552433732313a20617070726f766520746f2063616c6c657200000000000000604482015260640161087e565b6001600160a01b038381166000818152609b6020908152604080832094871680845294825291829020805460ff191686151590811790915591519182527f17307eab39ab6107e8899845ad3d59bd9653f200f220920489ca2b5937696c31910160405180910390a3505050565b60006001600160a01b0384163b15612fbe57604051630a85bd0160e11b81526001600160a01b0385169063150b7a0290612f009033908990889088906004016144ce565b602060405180830381600087803b158015612f1a57600080fd5b505af1925050508015612f4a575060408051601f3d908101601f19168201909252612f4791810190614501565b60015b612fa4573d808015612f78576040519150601f19603f3d011682016040523d82523d6000602084013e612f7d565b606091505b508051612f9c5760405162461bcd60e51b815260040161087e906143f3565b805181602001fd5b6001600160e01b031916630a85bd0160e11b149050612053565b506001949350505050565b600081815260018301602052604081205480156130b2576000612fed600183614324565b855490915060009061300190600190614324565b905081811461306657600086600001828154811061302157613021613e7c565b906000526020600020015490508087600001848154811061304457613044613e7c565b6000918252602080832090910192909255918252600188019052604090208390555b85548690806130775761307761451e565b600190038181906000526020600020016000905590558560010160008681526020019081526020016000206000905560019350505050610795565b6000915050610795565b60006001600160e01b03198216637965db0b60e01b1480610795575061079582613417565b606060006130f0836002613f29565b6130fb906002613f11565b6001600160401b038111156131125761311261395c565b6040519080825280601f01601f19166020018201604052801561313c576020820181803683370190505b509050600360fc1b8160008151811061315757613157613e7c565b60200101906001600160f81b031916908160001a905350600f60fb1b8160018151811061318657613186613e7c565b60200101906001600160f81b031916908160001a90535060006131aa846002613f29565b6131b5906001613f11565b90505b600181111561322d576f181899199a1a9b1b9c1cb0b131b232b360811b85600f16601081106131e9576131e9613e7c565b1a60f81b8282815181106131ff576131ff613e7c565b60200101906001600160f81b031916908160001a90535060049490941c9361322681614534565b90506131b8565b5083156114b75760405162461bcd60e51b815260206004820181905260248201527f537472696e67733a20686578206c656e67746820696e73756666696369656e74604482015260640161087e565b610891838383613422565b6001600160a01b0382166132dd5760405162461bcd60e51b815260206004820181905260248201527f4552433732313a206d696e7420746f20746865207a65726f2061646472657373604482015260640161087e565b6132e681612989565b156133335760405162461bcd60e51b815260206004820152601c60248201527f4552433732313a20746f6b656e20616c7265616479206d696e74656400000000604482015260640161087e565b61333f60008383612a66565b6001600160a01b0382166000908152609960205260408120805460019290613368908490613f11565b909155505060008181526098602052604080822080546001600160a01b0319166001600160a01b03861690811790915590518392907fddf252ad1be2c89b69c2b068fc378daa952ba7f163c4a11628f55a4df523b3ef908290a45050565b600054610100900460ff166133ed5760405162461bcd60e51b815260040161087e9061433b565b600080546001600160a01b03909216620100000262010000600160b01b0319909216919091179055565b60006107958261342d565b610891838383613452565b60006001600160e01b0319821663780e9d6360e01b148061079557506107958261350a565b6001600160a01b0383166134ad576134a88160ca8054600083815260cb60205260408120829055600182018355919091527f42d72674974f694b5f5159593243114d38a5c39c89d6b62fee061ff523240ee10155565b6134d0565b816001600160a01b0316836001600160a01b0316146134d0576134d0838261355a565b6001600160a01b0382166134e757610891816135f7565b826001600160a01b0316826001600160a01b0316146108915761089182826136a6565b60006001600160e01b031982166380ac58cd60e01b148061353b57506001600160e01b03198216635b5e139f60e01b145b8061079557506301ffc9a760e01b6001600160e01b0319831614610795565b6000600161356784610f12565b6135719190614324565b600083815260c960205260409020549091508082146135c4576001600160a01b038416600090815260c860209081526040808320858452825280832054848452818420819055835260c990915290208190555b50600091825260c9602090815260408084208490556001600160a01b03909416835260c881528383209183525290812055565b60ca5460009061360990600190614324565b600083815260cb602052604081205460ca805493945090928490811061363157613631613e7c565b906000526020600020015490508060ca838154811061365257613652613e7c565b600091825260208083209091019290925582815260cb909152604080822084905585825281205560ca80548061368a5761368a61451e565b6001900381819060005260206000200160009055905550505050565b60006136b183610f12565b6001600160a01b03909316600090815260c860209081526040808320868452825280832085905593825260c99052919091209190915550565b8280546136f690613e1a565b90600052602060002090601f016020900481019282613718576000855561375e565b82601f1061373157805160ff191683800117855561375e565b8280016001018555821561375e579182015b8281111561375e578251825591602001919060010190613743565b5061376a9291506137c6565b5090565b5080546000825590600052602060002090810190610b6a91906137c6565b82805482825590600052602060002090810192821561375e579160200282018281111561375e578251825591602001919060010190613743565b5b8082111561376a57600081556001016137c7565b6001600160e01b031981168114610b6a57600080fd5b60006020828403121561380357600080fd5b81356114b7816137db565b60005b83811015613829578181015183820152602001613811565b83811115610c4e5750506000910152565b6000815180845261385281602086016020860161380e565b601f01601f19169290920160200192915050565b6020815260006114b7602083018461383a565b60006020828403121561388b57600080fd5b5035919050565b80356001600160a01b03811681146138a957600080fd5b919050565b600080604083850312156138c157600080fd5b6138ca83613892565b946020939093013593505050565b6000602082840312156138ea57600080fd5b6114b782613892565b600081518084526020808501945080840160005b8381101561392357815187529582019590820190600101613907565b509495945050505050565b60408152600061394160408301856138f3565b828103602084015261395381856138f3565b95945050505050565b634e487b7160e01b600052604160045260246000fd5b604051601f8201601f191681016001600160401b038111828210171561399a5761399a61395c565b604052919050565b600082601f8301126139b357600080fd5b813560206001600160401b038211156139ce576139ce61395c565b8160051b6139dd828201613972565b92835284810182019282810190878511156139f757600080fd5b83870192505b84831015613a16578235825291830191908301906139fd565b979650505050505050565b600060208284031215613a3357600080fd5b81356001600160401b03811115613a4957600080fd5b612053848285016139a2565b6020815260006114b760208301846138f3565b60008060408385031215613a7b57600080fd5b8235915060208301356001600160401b03811115613a9857600080fd5b613aa4858286016139a2565b9150509250929050565b600080600060608486031215613ac357600080fd5b613acc84613892565b9250613ada60208501613892565b9150604084013590509250925092565b60008060408385031215613afd57600080fd5b82359150613b0d60208401613892565b90509250929050565b60008060408385031215613b2957600080fd5b613b3283613892565b915060208301356001600160401b03811115613a9857600080fd5b60006001600160401b03831115613b6657613b6661395c565b613b79601f8401601f1916602001613972565b9050828152838383011115613b8d57600080fd5b828260208301376000602084830101529392505050565b600060208284031215613bb657600080fd5b81356001600160401b03811115613bcc57600080fd5b8201601f81018413613bdd57600080fd5b61205384823560208401613b4d565b6000602080830181845280855180835260408601915060408160051b870101925083870160005b82811015613c4157603f19888603018452613c2f85835161383a565b94509285019290850190600101613c13565b5092979650505050505050565b602081526000825160606020840152613c6a60808401826138f3565b9050602084015160408401526040840151601f1984830301606085015261395382826138f3565b60008060408385031215613ca457600080fd5b50508035926020909101359150565b8015158114610b6a57600080fd5b60008060408385031215613cd457600080fd5b613cdd83613892565b91506020830135613ced81613cb3565b809150509250929050565b604081526000613d0b60408301856138f3565b905082151560208301529392505050565b60008060008060808587031215613d3257600080fd5b613d3b85613892565b9350613d4960208601613892565b92506040850135915060608501356001600160401b03811115613d6b57600080fd5b8501601f81018713613d7c57600080fd5b613d8b87823560208401613b4d565b91505092959194509250565b60008060408385031215613daa57600080fd5b82356001600160401b0380821115613dc157600080fd5b613dcd868387016139a2565b93506020850135915080821115613de357600080fd5b50613aa4858286016139a2565b60008060408385031215613e0357600080fd5b613e0c83613892565b9150613b0d60208401613892565b600181811c90821680613e2e57607f821691505b602082108114156113d757634e487b7160e01b600052602260045260246000fd5b602080825260139082015272426c61636b6c6973746564206164647265737360681b604082015260600190565b634e487b7160e01b600052603260045260246000fd5b634e487b7160e01b600052601160045260246000fd5b6000600019821415613ebc57613ebc613e92565b5060010190565b6020808252602e908201527f4552433732313a2063616c6c6572206973206e6f7420746f6b656e206f776e6560408201526d1c881b9bdc88185c1c1c9bdd995960921b606082015260800190565b60008219821115613f2457613f24613e92565b500190565b6000816000190483118215151615613f4357613f43613e92565b500290565b600060208284031215613f5a57600080fd5b81516114b781613cb3565b634e487b7160e01b600052601260045260246000fd5b600082613f8a57613f8a613f65565b500690565b60008151613fa181856020860161380e565b9290920192915050565b60008251613fbd81846020870161380e565b602560f81b920191825250600101919050565b600080845481600182811c915080831680613fec57607f831692505b602080841082141561400c57634e487b7160e01b86526022600452602486fd5b81801561402057600181146140315761405e565b60ff1986168952848901965061405e565b60008b81526020902060005b868110156140565781548b82015290850190830161403d565b505084890196505b5050505050506139538185613f8f565b7f226e616d65223a2022436f736d696320456c76657320446973636f756e74205481526669636b6574202360c81b6020820152600084516140b681602785016020890161380e565b61088b60f21b60279184019182018190527f226465736372697074696f6e223a20223720646179207265736572766520646960298301527f73636f756e74207469636b65742076616c696420666f72203120436f736d696360498301526508115b19888b60d21b6069830152691134b6b0b3b2911d101160b11b606f8301528551614148816079850160208a0161380e565b6079920191820152711130b734b6b0ba34b7b72fbab936111d101160711b607b82015261418961417b608d830186613f8f565b61088b60f21b815260020190565b9695505050505050565b6e2261747472696275746573223a205b60881b81526000607b60f81b80600f8401527f2274726169745f74797065223a2022646973636f756e74222c00000000000000601084015269113b30b63ab2911d101160b11b8060298501528551614202816033870160208a0161380e565b601160f91b603391860191820152611f4b60f21b6034820152603681019290925274089d1c985a5d17dd1e5c19488e88089bd9191cc88b605a1b6037830152604c820181905284519161425c83605683016020890161380e565b613a16614285614278605686850101601160f91b815260010190565b607d60f81b815260010190565b605d60f81b815260010190565b607b60f81b8152600083516142ae81600185016020880161380e565b8351908301906142c581600184016020880161380e565b607d60f81b60019290910191820152600201949350505050565b7f646174613a6170706c69636174696f6e2f6a736f6e3b6261736536342c00000081526000825161431781601d85016020870161380e565b91909101601d0192915050565b60008282101561433657614336613e92565b500390565b6020808252602b908201527f496e697469616c697a61626c653a20636f6e7472616374206973206e6f74206960408201526a6e697469616c697a696e6760a81b606082015260800190565b600063ffffffff808316818516818304811182151516156143a9576143a9613e92565b02949350505050565b600063ffffffff8083168185168083038211156143d1576143d1613e92565b01949350505050565b6000602082840312156143ec57600080fd5b5051919050565b60208082526032908201527f4552433732313a207472616e7366657220746f206e6f6e20455243373231526560408201527131b2b4bb32b91034b6b83632b6b2b73a32b960711b606082015260800190565b60008261445457614454613f65565b500490565b7f416363657373436f6e74726f6c3a206163636f756e742000000000000000000081526000835161449181601785016020880161380e565b7001034b99036b4b9b9b4b733903937b6329607d1b60179184019182015283516144c281602884016020880161380e565b01602801949350505050565b6001600160a01b03858116825284166020820152604081018390526080606082018190526000906141899083018461383a565b60006020828403121561451357600080fd5b81516114b7816137db565b634e487b7160e01b600052603160045260246000fd5b60008161454357614543613e92565b50600019019056fe68747470733a2f2f696d616765732e636f736d6963756e6976657273652e6f6e652f656c7665732d7469636b6574732f4142434445464748494a4b4c4d4e4f505152535455565758595a6162636465666768696a6b6c6d6e6f707172737475767778797a303132333435363738392b2f9f2df0fed2c77648de5860a4cc508cd0818c85b8b8a1ab4ceeef8d981c8956a6a49807205ce4d355092ef5a8a18f56e8913cf4a201fbe287825b095693c21775a26469706673582212207e68a5bc7c6b0a53ef25d8a4603221d367d6e66fa6954d35c004b00e0696a0aa64736f6c63430008090033",
  "linkReferences": {},
  "deployedLinkReferences": {}
}