{
  "_format": "hh-sol-artifact-1",
  "contractName": "CosmicElvesTicketUpgradeable",
  "sourceName": "contracts/upgradeable/ERC721/CosmicElvesTicketUpgradeable.sol",
  "abi": [
    {
      "inputs": [],
      "stateMutability": "nonpayable",
      "type": "constructor"
    },
    {
      "inputs": [
        {
          "internalType": "address",
          "name": "have",
          "type": "address"
        },
        {
          "internalType": "address",
          "name": "want",
          "type": "address"
        }
      ],
      "name": "OnlyCoordinatorCanFulfill",
      "type": "error"
    },
    {
      "anonymous": false,
      "inputs": [
        {
          "indexed": true,
          "internalType": "address",
          "name": "owner",
          "type": "address"
        },
        {
          "indexed": true,
          "internalType": "address",
          "name": "approved",
          "type": "address"
        },
        {
          "indexed": true,
          "internalType": "uint256",
          "name": "tokenId",
          "type": "uint256"
        }
      ],
      "name": "Approval",
      "type": "event"
    },
    {
      "anonymous": false,
      "inputs": [
        {
          "indexed": true,
          "internalType": "address",
          "name": "owner",
          "type": "address"
        },
        {
          "indexed": true,
          "internalType": "address",
          "name": "operator",
          "type": "address"
        },
        {
          "indexed": false,
          "internalType": "bool",
          "name": "approved",
          "type": "bool"
        }
      ],
      "name": "ApprovalForAll",
      "type": "event"
    },
    {
      "anonymous": false,
      "inputs": [
        {
          "indexed": false,
          "internalType": "uint8",
          "name": "version",
          "type": "uint8"
        }
      ],
      "name": "Initialized",
      "type": "event"
    },
    {
      "anonymous": false,
      "inputs": [
        {
          "indexed": false,
          "internalType": "address",
          "name": "account",
          "type": "address"
        }
      ],
      "name": "Paused",
      "type": "event"
    },
    {
      "anonymous": false,
      "inputs": [
        {
          "indexed": true,
          "internalType": "bytes32",
          "name": "role",
          "type": "bytes32"
        },
        {
          "indexed": true,
          "internalType": "bytes32",
          "name": "previousAdminRole",
          "type": "bytes32"
        },
        {
          "indexed": true,
          "internalType": "bytes32",
          "name": "newAdminRole",
          "type": "bytes32"
        }
      ],
      "name": "RoleAdminChanged",
      "type": "event"
    },
    {
      "anonymous": false,
      "inputs": [
        {
          "indexed": true,
          "internalType": "bytes32",
          "name": "role",
          "type": "bytes32"
        },
        {
          "indexed": true,
          "internalType": "address",
          "name": "account",
          "type": "address"
        },
        {
          "indexed": true,
          "internalType": "address",
          "name": "sender",
          "type": "address"
        }
      ],
      "name": "RoleGranted",
      "type": "event"
    },
    {
      "anonymous": false,
      "inputs": [
        {
          "indexed": true,
          "internalType": "bytes32",
          "name": "role",
          "type": "bytes32"
        },
        {
          "indexed": true,
          "internalType": "address",
          "name": "account",
          "type": "address"
        },
        {
          "indexed": true,
          "internalType": "address",
          "name": "sender",
          "type": "address"
        }
      ],
      "name": "RoleRevoked",
      "type": "event"
    },
    {
      "anonymous": false,
      "inputs": [
        {
          "indexed": true,
          "internalType": "address",
          "name": "from",
          "type": "address"
        },
        {
          "indexed": true,
          "internalType": "address",
          "name": "to",
          "type": "address"
        },
        {
          "indexed": true,
          "internalType": "uint256",
          "name": "tokenId",
          "type": "uint256"
        }
      ],
      "name": "Transfer",
      "type": "event"
    },
    {
      "anonymous": false,
      "inputs": [
        {
          "indexed": false,
          "internalType": "address",
          "name": "account",
          "type": "address"
        }
      ],
      "name": "Unpaused",
      "type": "event"
    },
    {
      "inputs": [],
      "name": "ADMIN_ROLE",
      "outputs": [
        {
          "internalType": "bytes32",
          "name": "",
          "type": "bytes32"
        }
      ],
      "stateMutability": "view",
      "type": "function"
    },
    {
      "inputs": [],
      "name": "DEFAULT_ADMIN_ROLE",
      "outputs": [
        {
          "internalType": "bytes32",
          "name": "",
          "type": "bytes32"
        }
      ],
      "stateMutability": "view",
      "type": "function"
    },
    {
      "inputs": [],
      "name": "MINTER_ROLE",
      "outputs": [
        {
          "internalType": "bytes32",
          "name": "",
          "type": "bytes32"
        }
      ],
      "stateMutability": "view",
      "type": "function"
    },
    {
      "inputs": [
        {
          "internalType": "address",
          "name": "_address",
          "type": "address"
        }
      ],
      "name": "addBlacklist",
      "outputs": [],
      "stateMutability": "nonpayable",
      "type": "function"
    },
    {
      "inputs": [
        {
          "internalType": "address",
          "name": "to",
          "type": "address"
        },
        {
          "internalType": "uint256",
          "name": "tokenId",
          "type": "uint256"
        }
      ],
      "name": "approve",
      "outputs": [],
      "stateMutability": "nonpayable",
      "type": "function"
    },
    {
      "inputs": [
        {
          "internalType": "address",
          "name": "owner",
          "type": "address"
        }
      ],
      "name": "balanceOf",
      "outputs": [
        {
          "internalType": "uint256",
          "name": "",
          "type": "uint256"
        }
      ],
      "stateMutability": "view",
      "type": "function"
    },
    {
      "inputs": [
        {
          "internalType": "uint256[]",
          "name": "tokenIds",
          "type": "uint256[]"
        }
      ],
      "name": "batchDiscountOf",
      "outputs": [
        {
          "internalType": "uint256[]",
          "name": "",
          "type": "uint256[]"
        }
      ],
      "stateMutability": "view",
      "type": "function"
    },
    {
      "inputs": [
        {
          "internalType": "address",
          "name": "to",
          "type": "address"
        },
        {
          "internalType": "uint256[]",
          "name": "ids",
          "type": "uint256[]"
        }
      ],
      "name": "batchMint",
      "outputs": [],
      "stateMutability": "nonpayable",
      "type": "function"
    },
    {
      "inputs": [
        {
          "internalType": "uint256",
          "name": "tokenId",
          "type": "uint256"
        }
      ],
      "name": "burn",
      "outputs": [],
      "stateMutability": "nonpayable",
      "type": "function"
    },
    {
      "inputs": [],
      "name": "cap",
      "outputs": [
        {
          "internalType": "uint256",
          "name": "",
          "type": "uint256"
        }
      ],
      "stateMutability": "view",
      "type": "function"
    },
    {
      "inputs": [
        {
          "internalType": "uint256",
          "name": "tokenId",
          "type": "uint256"
        }
      ],
      "name": "discountOf",
      "outputs": [
        {
          "internalType": "uint256",
          "name": "discount",
          "type": "uint256"
        }
      ],
      "stateMutability": "view",
      "type": "function"
    },
    {
      "inputs": [
        {
          "internalType": "uint256",
          "name": "tokenId",
          "type": "uint256"
        }
      ],
      "name": "getApproved",
      "outputs": [
        {
          "internalType": "address",
          "name": "",
          "type": "address"
        }
      ],
      "stateMutability": "view",
      "type": "function"
    },
    {
      "inputs": [
        {
          "internalType": "bytes32",
          "name": "role",
          "type": "bytes32"
        }
      ],
      "name": "getRoleAdmin",
      "outputs": [
        {
          "internalType": "bytes32",
          "name": "",
          "type": "bytes32"
        }
      ],
      "stateMutability": "view",
      "type": "function"
    },
    {
      "inputs": [
        {
          "internalType": "bytes32",
          "name": "role",
          "type": "bytes32"
        },
        {
          "internalType": "uint256",
          "name": "index",
          "type": "uint256"
        }
      ],
      "name": "getRoleMember",
      "outputs": [
        {
          "internalType": "address",
          "name": "",
          "type": "address"
        }
      ],
      "stateMutability": "view",
      "type": "function"
    },
    {
      "inputs": [
        {
          "internalType": "bytes32",
          "name": "role",
          "type": "bytes32"
        }
      ],
      "name": "getRoleMemberCount",
      "outputs": [
        {
          "internalType": "uint256",
          "name": "",
          "type": "uint256"
        }
      ],
      "stateMutability": "view",
      "type": "function"
    },
    {
      "inputs": [
        {
          "internalType": "bytes32",
          "name": "role",
          "type": "bytes32"
        },
        {
          "internalType": "address",
          "name": "account",
          "type": "address"
        }
      ],
      "name": "grantRole",
      "outputs": [],
      "stateMutability": "nonpayable",
      "type": "function"
    },
    {
      "inputs": [
        {
          "internalType": "bytes32",
          "name": "role",
          "type": "bytes32"
        },
        {
          "internalType": "address",
          "name": "account",
          "type": "address"
        }
      ],
      "name": "hasRole",
      "outputs": [
        {
          "internalType": "bool",
          "name": "",
          "type": "bool"
        }
      ],
      "stateMutability": "view",
      "type": "function"
    },
    {
      "inputs": [],
      "name": "imageBaseURI",
      "outputs": [
        {
          "internalType": "string",
          "name": "",
          "type": "string"
        }
      ],
      "stateMutability": "view",
      "type": "function"
    },
    {
      "inputs": [],
      "name": "initialize",
      "outputs": [],
      "stateMutability": "nonpayable",
      "type": "function"
    },
    {
      "inputs": [
        {
          "internalType": "address",
          "name": "owner",
          "type": "address"
        },
        {
          "internalType": "address",
          "name": "operator",
          "type": "address"
        }
      ],
      "name": "isApprovedForAll",
      "outputs": [
        {
          "internalType": "bool",
          "name": "",
          "type": "bool"
        }
      ],
      "stateMutability": "view",
      "type": "function"
    },
    {
      "inputs": [
        {
          "internalType": "address",
          "name": "to",
          "type": "address"
        },
        {
          "internalType": "uint256",
          "name": "id",
          "type": "uint256"
        }
      ],
      "name": "mint",
      "outputs": [],
      "stateMutability": "nonpayable",
      "type": "function"
    },
    {
      "inputs": [
        {
          "internalType": "uint256",
          "name": "count",
          "type": "uint256"
        }
      ],
      "name": "mint",
      "outputs": [],
      "stateMutability": "nonpayable",
      "type": "function"
    },
    {
      "inputs": [],
      "name": "name",
      "outputs": [
        {
          "internalType": "string",
          "name": "",
          "type": "string"
        }
      ],
      "stateMutability": "view",
      "type": "function"
    },
    {
      "inputs": [
        {
          "internalType": "uint256",
          "name": "tokenId",
          "type": "uint256"
        }
      ],
      "name": "ownerOf",
      "outputs": [
        {
          "internalType": "address",
          "name": "",
          "type": "address"
        }
      ],
      "stateMutability": "view",
      "type": "function"
    },
    {
      "inputs": [],
      "name": "pause",
      "outputs": [],
      "stateMutability": "nonpayable",
      "type": "function"
    },
    {
      "inputs": [],
      "name": "paused",
      "outputs": [
        {
          "internalType": "bool",
          "name": "",
          "type": "bool"
        }
      ],
      "stateMutability": "view",
      "type": "function"
    },
    {
      "inputs": [],
      "name": "price",
      "outputs": [
        {
          "internalType": "uint256",
          "name": "",
          "type": "uint256"
        }
      ],
      "stateMutability": "view",
      "type": "function"
    },
    {
      "inputs": [
        {
          "internalType": "uint256",
          "name": "requestId",
          "type": "uint256"
        },
        {
          "internalType": "uint256[]",
          "name": "randomWords",
          "type": "uint256[]"
        }
      ],
      "name": "rawFulfillRandomWords",
      "outputs": [],
      "stateMutability": "nonpayable",
      "type": "function"
    },
    {
      "inputs": [
        {
          "internalType": "address",
          "name": "_address",
          "type": "address"
        }
      ],
      "name": "removeBlacklist",
      "outputs": [],
      "stateMutability": "nonpayable",
      "type": "function"
    },
    {
      "inputs": [
        {
          "internalType": "bytes32",
          "name": "role",
          "type": "bytes32"
        },
        {
          "internalType": "address",
          "name": "account",
          "type": "address"
        }
      ],
      "name": "renounceRole",
      "outputs": [],
      "stateMutability": "nonpayable",
      "type": "function"
    },
    {
      "inputs": [],
      "name": "reveal",
      "outputs": [],
      "stateMutability": "nonpayable",
      "type": "function"
    },
    {
      "inputs": [
        {
          "internalType": "bytes32",
          "name": "role",
          "type": "bytes32"
        },
        {
          "internalType": "address",
          "name": "account",
          "type": "address"
        }
      ],
      "name": "revokeRole",
      "outputs": [],
      "stateMutability": "nonpayable",
      "type": "function"
    },
    {
      "inputs": [
        {
          "internalType": "address",
          "name": "from",
          "type": "address"
        },
        {
          "internalType": "address",
          "name": "to",
          "type": "address"
        },
        {
          "internalType": "uint256",
          "name": "tokenId",
          "type": "uint256"
        }
      ],
      "name": "safeTransferFrom",
      "outputs": [],
      "stateMutability": "nonpayable",
      "type": "function"
    },
    {
      "inputs": [
        {
          "internalType": "address",
          "name": "from",
          "type": "address"
        },
        {
          "internalType": "address",
          "name": "to",
          "type": "address"
        },
        {
          "internalType": "uint256",
          "name": "tokenId",
          "type": "uint256"
        },
        {
          "internalType": "bytes",
          "name": "data",
          "type": "bytes"
        }
      ],
      "name": "safeTransferFrom",
      "outputs": [],
      "stateMutability": "nonpayable",
      "type": "function"
    },
    {
      "inputs": [
        {
          "internalType": "address",
          "name": "operator",
          "type": "address"
        },
        {
          "internalType": "bool",
          "name": "approved",
          "type": "bool"
        }
      ],
      "name": "setApprovalForAll",
      "outputs": [],
      "stateMutability": "nonpayable",
      "type": "function"
    },
    {
      "inputs": [
        {
          "internalType": "uint256",
          "name": "_cap",
          "type": "uint256"
        }
      ],
      "name": "setCap",
      "outputs": [],
      "stateMutability": "nonpayable",
      "type": "function"
    },
    {
      "inputs": [
        {
          "internalType": "uint256[]",
          "name": "tokenIds",
          "type": "uint256[]"
        },
        {
          "internalType": "uint256[]",
          "name": "discounts",
          "type": "uint256[]"
        }
      ],
      "name": "setDiscountsOf",
      "outputs": [],
      "stateMutability": "nonpayable",
      "type": "function"
    },
    {
      "inputs": [
        {
          "internalType": "string",
          "name": "_imageBaseURI",
          "type": "string"
        }
      ],
      "name": "setImageBaseURI",
      "outputs": [],
      "stateMutability": "nonpayable",
      "type": "function"
    },
    {
      "inputs": [
        {
          "internalType": "uint256",
          "name": "_price",
          "type": "uint256"
        }
      ],
      "name": "setTicketPrice",
      "outputs": [],
      "stateMutability": "nonpayable",
      "type": "function"
    },
    {
      "inputs": [
        {
          "internalType": "bytes4",
          "name": "interfaceId",
          "type": "bytes4"
        }
      ],
      "name": "supportsInterface",
      "outputs": [
        {
          "internalType": "bool",
          "name": "",
          "type": "bool"
        }
      ],
      "stateMutability": "view",
      "type": "function"
    },
    {
      "inputs": [],
      "name": "symbol",
      "outputs": [
        {
          "internalType": "string",
          "name": "",
          "type": "string"
        }
      ],
      "stateMutability": "view",
      "type": "function"
    },
    {
      "inputs": [
        {
          "internalType": "uint256",
          "name": "index",
          "type": "uint256"
        }
      ],
      "name": "tokenByIndex",
      "outputs": [
        {
          "internalType": "uint256",
          "name": "",
          "type": "uint256"
        }
      ],
      "stateMutability": "view",
      "type": "function"
    },
    {
      "inputs": [
        {
          "internalType": "address",
          "name": "owner",
          "type": "address"
        },
        {
          "internalType": "uint256",
          "name": "index",
          "type": "uint256"
        }
      ],
      "name": "tokenOfOwnerByIndex",
      "outputs": [
        {
          "internalType": "uint256",
          "name": "",
          "type": "uint256"
        }
      ],
      "stateMutability": "view",
      "type": "function"
    },
    {
      "inputs": [
        {
          "internalType": "uint256",
          "name": "tokenId",
          "type": "uint256"
        }
      ],
      "name": "tokenURI",
      "outputs": [
        {
          "internalType": "string",
          "name": "",
          "type": "string"
        }
      ],
      "stateMutability": "view",
      "type": "function"
    },
    {
      "inputs": [
        {
          "internalType": "address",
          "name": "_address",
          "type": "address"
        }
      ],
      "name": "tokensAndDiscountsOfOwner",
      "outputs": [
        {
          "internalType": "uint256[]",
          "name": "tokens",
          "type": "uint256[]"
        },
        {
          "internalType": "uint256[]",
          "name": "discounts",
          "type": "uint256[]"
        }
      ],
      "stateMutability": "view",
      "type": "function"
    },
    {
      "inputs": [
        {
          "internalType": "address",
          "name": "owner",
          "type": "address"
        }
      ],
      "name": "tokensOfOwner",
      "outputs": [
        {
          "internalType": "uint256[]",
          "name": "",
          "type": "uint256[]"
        }
      ],
      "stateMutability": "view",
      "type": "function"
    },
    {
      "inputs": [],
      "name": "totalSupply",
      "outputs": [
        {
          "internalType": "uint256",
          "name": "",
          "type": "uint256"
        }
      ],
      "stateMutability": "view",
      "type": "function"
    },
    {
      "inputs": [
        {
          "internalType": "address",
          "name": "from",
          "type": "address"
        },
        {
          "internalType": "address",
          "name": "to",
          "type": "address"
        },
        {
          "internalType": "uint256",
          "name": "tokenId",
          "type": "uint256"
        }
      ],
      "name": "transferFrom",
      "outputs": [],
      "stateMutability": "nonpayable",
      "type": "function"
    },
    {
      "inputs": [],
      "name": "treasury",
      "outputs": [
        {
          "internalType": "address",
          "name": "",
          "type": "address"
        }
      ],
      "stateMutability": "view",
      "type": "function"
    },
    {
      "inputs": [],
      "name": "unpause",
      "outputs": [],
      "stateMutability": "nonpayable",
      "type": "function"
    }
  ],
  "bytecode": "0x60806040523480156200001157600080fd5b506200001c62000022565b620000e4565b600054610100900460ff16156200008f5760405162461bcd60e51b815260206004820152602760248201527f496e697469616c697a61626c653a20636f6e747261637420697320696e697469604482015266616c697a696e6760c81b606482015260840160405180910390fd5b60005460ff9081161015620000e2576000805460ff191660ff9081179091556040519081527f7f26b83ff96e1f2b6a682f133852f6798a09c465da95921460cefb38474024989060200160405180910390a15b565b61422e80620000f46000396000f3fe608060405234801561001057600080fd5b50600436106102d65760003560e01c80636352211e11610182578063a035b1fe116100e9578063c87b56dd116100a2578063d547741f1161007c578063d547741f14610640578063da13914214610653578063e985e9c514610666578063eb91e651146106a257600080fd5b8063c87b56dd14610605578063ca15c87314610618578063d53913931461062b57600080fd5b8063a035b1fe146105b2578063a0712d68146105bc578063a217fddf146105cf578063a22cb465146105d7578063a475b5dd146105ea578063b88d4fde146105f257600080fd5b80638456cb591161013b5780638456cb59146105565780638462151c1461055e5780639010d07c1461057157806391d148541461058457806395d89b41146105975780639cfe42da1461059f57600080fd5b80636352211e146104f85780636cfa24cc1461050b57806370a082311461051e57806375b238fc1461053157806377645839146105465780638129fc1c1461054e57600080fd5b80632f745c591161024157806342966c68116101fa57806349299d6e116101d457806349299d6e146104b25780634f6ccce7146104c55780635c975abb146104d857806361d027b3146104e457600080fd5b806342966c68146104795780634684d7e91461048c57806347786d371461049f57600080fd5b80632f745c591461041b578063355274ea1461042e57806336568abe146104385780633f4ba83a1461044b57806340c10f191461045357806342842e0e1461046657600080fd5b806318160ddd1161029357806318160ddd1461038c5780631e9d71011461039e5780631fe543e3146103be57806323b872dd146103d1578063248a9ca3146103e45780632f2ff15d1461040857600080fd5b806301ffc9a7146102db57806306fdde0314610303578063081812fc14610318578063095ea7b314610343578063131b71b0146103585780631598165014610379575b600080fd5b6102ee6102e93660046134b7565b6106b5565b60405190151581526020015b60405180910390f35b61030b6106c6565b6040516102fa919061352c565b61032b61032636600461353f565b610758565b6040516001600160a01b0390911681526020016102fa565b610356610351366004613574565b61077f565b005b61036b61036636600461359e565b6107c1565b6040516102fa9291906135f4565b61035661038736600461353f565b6107e8565b60ca545b6040519081526020016102fa565b6103b16103ac3660046136e7565b610807565b6040516102fa919061371b565b6103566103cc36600461372e565b6108b4565b6103566103df366004613774565b61090d565b6103906103f236600461353f565b6000908152610190602052604090206001015490565b6103566104163660046137b0565b61093f565b610390610429366004613574565b610965565b6103906102995481565b6103566104463660046137b0565b6109fb565b610356610a75565b610356610461366004613574565b610a98565b610356610474366004613774565b610ac2565b61035661048736600461353f565b610add565b61035661049a3660046137dc565b610b18565b6103566104ad36600461353f565b610b7f565b6103906104c036600461353f565b610b9e565b6103906104d336600461353f565b610c6d565b61012c5460ff166102ee565b6102975461032b906001600160a01b031681565b61032b61050636600461353f565b610d00565b61035661051936600461386a565b610d60565b61039061052c36600461359e565b610d8c565b6103906000805160206141d983398151915281565b61030b610e12565b610356610ea1565b61035661113c565b6103b161056c36600461359e565b61115c565b61032b61057f3660046138b2565b6111fd565b6102ee6105923660046137b0565b61121d565b61030b611249565b6103566105ad36600461359e565b611258565b6103906102985481565b6103566105ca36600461353f565b61127c565b610390600081565b6103566105e53660046138e2565b61150a565b61035661153e565b610356610600366004613919565b611793565b61030b61061336600461353f565b6117c5565b61039061062636600461353f565b6118ef565b6103906000805160206141b983398151915281565b61035661064e3660046137b0565b611907565b610356610661366004613994565b61192d565b6102ee6106743660046139ed565b6001600160a01b039182166000908152609b6020908152604080832093909416825291909152205460ff1690565b6103566106b036600461359e565b611a89565b60006106c082611aad565b92915050565b6060609680546106d590613a17565b80601f016020809104026020016040519081016040528092919081815260200182805461070190613a17565b801561074e5780601f106107235761010080835404028352916020019161074e565b820191906000526020600020905b81548152906001019060200180831161073157829003601f168201915b5050505050905090565b600061076382611ab8565b506000908152609a60205260409020546001600160a01b031690565b8161078c61028c82611b08565b156107b25760405162461bcd60e51b81526004016107a990613a4c565b60405180910390fd5b6107bc8383611b2a565b505050565b60608060006107cf8461115c565b905060006107dc82610807565b91959194509092505050565b6000805160206141d983398151915261080081611c3b565b5061029855565b6060600082516001600160401b0381111561082457610824613622565b60405190808252806020026020018201604052801561084d578160200160208202803683370190505b50905060005b83518110156108ad5761087e84828151811061087157610871613a79565b6020026020010151610b9e565b82828151811061089057610890613a79565b6020908102919091010152806108a581613aa5565b915050610853565b5092915050565b6000546201000090046001600160a01b031633146108ff5760005460405163073e64fd60e21b8152336004820152620100009091046001600160a01b031660248201526044016107a9565b6109098282611c45565b5050565b610918335b82611c7f565b6109345760405162461bcd60e51b81526004016107a990613ac0565b6107bc838383611cfe565b6000828152610190602052604090206001015461095b81611c3b565b6107bc8383611ea5565b600061097083610d8c565b82106109d25760405162461bcd60e51b815260206004820152602b60248201527f455243373231456e756d657261626c653a206f776e657220696e646578206f7560448201526a74206f6620626f756e647360a81b60648201526084016107a9565b506001600160a01b0391909116600090815260c860209081526040808320938352929052205490565b6001600160a01b0381163314610a6b5760405162461bcd60e51b815260206004820152602f60248201527f416363657373436f6e74726f6c3a2063616e206f6e6c792072656e6f756e636560448201526e103937b632b9903337b91039b2b63360891b60648201526084016107a9565b6109098282611ec8565b6000805160206141d9833981519152610a8d81611c3b565b610a95611eeb565b50565b610aa0611f3e565b6000805160206141b9833981519152610ab881611c3b565b6107bc8383611f87565b6107bc83838360405180602001604052806000815250611793565b610ae633610912565b610b025760405162461bcd60e51b81526004016107a990613ac0565b610b0e6101f482611fa1565b50610a9581611fad565b610b20611f3e565b6000805160206141b9833981519152610b3881611c3b565b60005b8251811015610b7957610b6784848381518110610b5a57610b5a613a79565b6020026020010151611f87565b80610b7181613aa5565b915050610b3b565b50505050565b6000805160206141d9833981519152610b9781611c3b565b5061029955565b6000610ba982612054565b610c015760405162461bcd60e51b8152602060048201526024808201527f446973636f756e7420717565727920666f72206e6f6e6578697374656e74207460448201526337b5b2b760e11b60648201526084016107a9565b610c0d61028e8361207c565b15610c1a57506005919050565b610c266102908361207c565b15610c335750600a919050565b610c3f6102928361207c565b15610c4c5750600f919050565b610c586102948361207c565b15610c6557506014919050565b506000919050565b6000610c7860ca5490565b8210610cdb5760405162461bcd60e51b815260206004820152602c60248201527f455243373231456e756d657261626c653a20676c6f62616c20696e646578206f60448201526b7574206f6620626f756e647360a01b60648201526084016107a9565b60ca8281548110610cee57610cee613a79565b90600052602060002001549050919050565b6000818152609860205260408120546001600160a01b0316806106c05760405162461bcd60e51b8152602060048201526018602482015277115490cdcc8c4e881a5b9d985b1a59081d1bdad95b88125160421b60448201526064016107a9565b6000805160206141d9833981519152610d7881611c3b565b81516107bc9061029a9060208501906133b0565b60006001600160a01b038216610df65760405162461bcd60e51b815260206004820152602960248201527f4552433732313a2061646472657373207a65726f206973206e6f7420612076616044820152683634b21037bbb732b960b91b60648201526084016107a9565b506001600160a01b031660009081526099602052604090205490565b61029a8054610e2090613a17565b80601f0160208091040260200160405190810160405280929190818152602001828054610e4c90613a17565b8015610e995780601f10610e6e57610100808354040283529160200191610e99565b820191906000526020600020905b815481529060010190602001808311610e7c57829003601f168201915b505050505081565b600054610100900460ff1615808015610ec15750600054600160ff909116105b80610edb5750303b158015610edb575060005460ff166001145b610f3e5760405162461bcd60e51b815260206004820152602e60248201527f496e697469616c697a61626c653a20636f6e747261637420697320616c72656160448201526d191e481a5b9a5d1a585b1a5e995960921b60648201526084016107a9565b6000805460ff191660011790558015610f61576000805461ff0019166101001790555b610fad6040518060400160405280600b81526020016a115b1d995cd51a58dad95d60aa1b8152506040518060400160405280600781526020016611551250d2d15560ca1b815250612094565b610fb56120c5565b610fbd6120ec565b610fc56120c5565b610fcd6120c5565b73d5d517abe5cf79b7e95ec98db0f0277788aff6347f83250c5584ffa93feb6ee082981c5ebe484c865196750b39835ad4f13780435d601b60036110138484848461211b565b61101e600033611ea5565b6110366000805160206141d983398151915233611ea5565b61104e6000805160206141b983398151915233611ea5565b61029680546001600160a01b031990811673b97ef9ef8734c71904d8002f8b6bc66dd9c48a6e17909155610297805490911673d2578a0b2631e591890f28499e9e8d73f21e589517905562989680610298556113886102995560408051606081019091526030808252614149602083013980516110d49161029a916020909101906133b0565b506103676110e261028b5490565b10156110f05761036761028b555b505050508015610a95576000805461ff0019169055604051600181527f7f26b83ff96e1f2b6a682f133852f6798a09c465da95921460cefb38474024989060200160405180910390a150565b6000805160206141d983398151915261115481611c3b565b610a9561215f565b6060600061116983610d8c565b90506000816001600160401b0381111561118557611185613622565b6040519080825280602002602001820160405280156111ae578160200160208202803683370190505b50905060005b828110156111f5576111c68582610965565b8282815181106111d8576111d8613a79565b6020908102919091010152806111ed81613aa5565b9150506111b4565b509392505050565b60008281526101c260205260408120611216908361219d565b9392505050565b6000918252610190602090815260408084206001600160a01b0393909316845291905290205460ff1690565b6060609780546106d590613a17565b6000805160206141d983398151915261127081611c3b565b6107bc61028c836121a9565b611284611f3e565b336000908152610289602052604090206001810154156112e65760405162461bcd60e51b815260206004820152601960248201527f4578697374696e67206d696e7420696e2070726f67726573730000000000000060448201526064016107a9565b6101f482111561132f5760405162461bcd60e51b815260206004820152601460248201527313585e1a5b5d5b480d4c0c081c195c881b5a5b9d60621b60448201526064016107a9565b600061133b61028b5490565b905061029954811061137a5760405162461bcd60e51b815260206004820152600860248201526714dbdb19081bdd5d60c21b60448201526064016107a9565b610299546113888483613b0e565b11156113d65760405162461bcd60e51b815260206004820152601b60248201527f496e73756666696369656e742072656d61696e696e67204e465473000000000060448201526064016107a9565b610296546001600160a01b03166323b872dd3361029754610298546001600160a01b0390911690611408908890613b26565b6040516001600160e01b031960e086901b1681526001600160a01b0393841660048201529290911660248301526044820152606401602060405180830381600087803b15801561145757600080fd5b505af115801561146b573d6000803e3d6000fd5b505050506040513d601f19601f8201168201806040525081019061148f9190613b45565b50611499836121be565b60018301819055600090815261028a6020526040812080546001600160a01b031916331790555b83811015610b79576114d761028b80546001019055565b826114e261028b5490565b815460018101835560009283526020909220909101558061150281613aa5565b9150506114c0565b8161151761028c82611b08565b156115345760405162461bcd60e51b81526004016107a990613a4c565b6107bc83836122b9565b3360009081526102896020526040902060018101546115915760405162461bcd60e51b815260206004820152600f60248201526e139bc81c195b991a5b99c81b5a5b9d608a1b60448201526064016107a9565b60028101546115da5760405162461bcd60e51b8152602060048201526015602482015274526573756c7473207374696c6c2070656e64696e6760581b60448201526064016107a9565b60005b815481101561173f5760006103e883600201838154811061160057611600613a79565b90600052602060002001546116159190613b78565b90506103de811061165457610b7983600001838154811061163857611638613a79565b9060005260206000200154610294611fa190919063ffffffff16565b6103b6811061169157610b7983600001838154811061167557611675613a79565b9060005260206000200154610292611fa190919063ffffffff16565b6102ee81106116ce57610b798360000183815481106116b2576116b2613a79565b9060005260206000200154610290611fa190919063ffffffff16565b6117028360000183815481106116e6576116e6613a79565b906000526020600020015461028e611fa190919063ffffffff16565b5061172c3384600001848154811061171c5761171c613a79565b9060005260206000200154611f87565b508061173781613aa5565b9150506115dd565b506001810154600090815261028a6020908152604080832080546001600160a01b031916905533835261028990915281209061177b8282613434565b60018201600090556002820160006107bc9190613434565b61179d3383611c7f565b6117b95760405162461bcd60e51b81526004016107a990613ac0565b610b79848484846122c4565b606060006117d283610b9e565b905060006117df826122f7565b6040516020016117ef9190613ba8565b6040516020818303038152906040529050600061029a61180e846122f7565b60405160200161181f929190613bcd565b6040516020818303038152906040529050600061183b846123f4565b90506000611848876122f7565b838460405160200161185c93929190613c6b565b604051602081830303815290604052905060008483604051602001611882929190613d90565b6040516020818303038152906040529050600082826040516020016118a8929190613e8f565b60405160208183030381529060405290506118c2816124b8565b6040516020016118d29190613edc565b604051602081830303815290604052975050505050505050919050565b60008181526101c2602052604081206106c09061260b565b6000828152610190602052604090206001015461192381611c3b565b6107bc8383611ec8565b6000805160206141d983398151915261194581611c3b565b60005b8351811015610b795782818151811061196357611963613a79565b6020026020010151601414156119a7576119a184828151811061198857611988613a79565b6020026020010151610294611fa190919063ffffffff16565b50611a77565b8281815181106119b9576119b9613a79565b6020026020010151600f14156119f7576119a18482815181106119de576119de613a79565b6020026020010151610292611fa190919063ffffffff16565b828181518110611a0957611a09613a79565b6020026020010151600a1415611a47576119a1848281518110611a2e57611a2e613a79565b6020026020010151610290611fa190919063ffffffff16565b611a75848281518110611a5c57611a5c613a79565b602002602001015161028e611fa190919063ffffffff16565b505b80611a8181613aa5565b915050611948565b6000805160206141d9833981519152611aa181611c3b565b6107bc61028c83612615565b60006106c08261262a565b611ac18161264f565b610a955760405162461bcd60e51b8152602060048201526018602482015277115490cdcc8c4e881a5b9d985b1a59081d1bdad95b88125160421b60448201526064016107a9565b6001600160a01b03811660009081526001830160205260408120541515611216565b6000611b3582610d00565b9050806001600160a01b0316836001600160a01b03161415611ba35760405162461bcd60e51b815260206004820152602160248201527f4552433732313a20617070726f76616c20746f2063757272656e74206f776e656044820152603960f91b60648201526084016107a9565b336001600160a01b0382161480611bbf5750611bbf8133610674565b611c315760405162461bcd60e51b815260206004820152603e60248201527f4552433732313a20617070726f76652063616c6c6572206973206e6f7420746f60448201527f6b656e206f776e6572206e6f7220617070726f76656420666f7220616c6c000060648201526084016107a9565b6107bc838361265a565b610a9581336126c8565b600082815261028a60209081526040808320546001600160a01b03168352610289825290912082516107bc92600290920191840190613452565b600080611c8b83610d00565b9050806001600160a01b0316846001600160a01b03161480611cd257506001600160a01b038082166000908152609b602090815260408083209388168352929052205460ff165b80611cf65750836001600160a01b0316611ceb84610758565b6001600160a01b0316145b949350505050565b826001600160a01b0316611d1182610d00565b6001600160a01b031614611d755760405162461bcd60e51b815260206004820152602560248201527f4552433732313a207472616e736665722066726f6d20696e636f72726563742060448201526437bbb732b960d91b60648201526084016107a9565b6001600160a01b038216611dd75760405162461bcd60e51b8152602060048201526024808201527f4552433732313a207472616e7366657220746f20746865207a65726f206164646044820152637265737360e01b60648201526084016107a9565b611de283838361272c565b611ded60008261265a565b6001600160a01b0383166000908152609960205260408120805460019290611e16908490613f21565b90915550506001600160a01b0382166000908152609960205260408120805460019290611e44908490613b0e565b909155505060008181526098602052604080822080546001600160a01b0319166001600160a01b0386811691821790925591518493918716917fddf252ad1be2c89b69c2b068fc378daa952ba7f163c4a11628f55a4df523b3ef91a4505050565b611eaf828261279a565b60008281526101c2602052604090206107bc90826121a9565b611ed28282612821565b60008281526101c2602052604090206107bc9082612615565b611ef3612889565b61012c805460ff191690557f5db9ee0a495bf2e6ff9c91a7834c1ba4fdd244a5e8aa4e537bd38aeae4b073aa335b6040516001600160a01b03909116815260200160405180910390a1565b61012c5460ff1615611f855760405162461bcd60e51b815260206004820152601060248201526f14185d5cd8589b194e881c185d5cd95960821b60448201526064016107a9565b565b6109098282604051806020016040528060008152506128d3565b60006112168383612906565b6000611fb882610d00565b9050611fc68160008461272c565b611fd160008361265a565b6001600160a01b0381166000908152609960205260408120805460019290611ffa908490613f21565b909155505060008281526098602052604080822080546001600160a01b0319169055518391906001600160a01b038416907fddf252ad1be2c89b69c2b068fc378daa952ba7f163c4a11628f55a4df523b3ef908390a45050565b6000818152609860205260408120546001600160a01b03161515806106c057506106c06101f4835b60008181526001830160205260408120541515611216565b600054610100900460ff166120bb5760405162461bcd60e51b81526004016107a990613f38565b6109098282612955565b600054610100900460ff16611f855760405162461bcd60e51b81526004016107a990613f38565b600054610100900460ff166121135760405162461bcd60e51b81526004016107a990613f38565b611f856129a3565b600054610100900460ff166121425760405162461bcd60e51b81526004016107a990613f38565b61214a6120c5565b612153846129d7565b610b7984848484612a07565b612167611f3e565b61012c805460ff191660011790557f62e78cea01bee320cd4e420270b5ea74000d11b0c9f74754ebdbfc544b05a258611f213390565b60006112168383612a89565b6000611216836001600160a01b038416612906565b60006000805160206141d98339815191526121d881611c3b565b60006121e684614e20613f83565b6121f390620186a0613faf565b610258546102595461025a546040516305d3b1d360e41b815260048101929092526001600160401b0381166024830152600160401b900461ffff16604482015263ffffffff8084166064830152871660848201529192506001600160a01b031690635d3b1d309060a401602060405180830381600087803b15801561227757600080fd5b505af115801561228b573d6000803e3d6000fd5b505050506040513d601f19601f820116820180604052508101906122af9190613fd7565b9250505b50919050565b610909338383612ab3565b6122cf848484611cfe565b6122db84848484612b82565b610b795760405162461bcd60e51b81526004016107a990613ff0565b60608161231b5750506040805180820190915260018152600360fc1b602082015290565b8160005b8115612345578061232f81613aa5565b915061233e9050600a83614042565b915061231f565b6000816001600160401b0381111561235f5761235f613622565b6040519080825280601f01601f191660200182016040528015612389576020820181803683370190505b5090505b8415611cf65761239e600183613f21565b91506123ab600a86613b78565b6123b6906030613b0e565b60f81b8183815181106123cb576123cb613a79565b60200101906001600160f81b031916908160001a9053506123ed600a86614042565b945061238d565b606081601414156124205750506040805180820190915260058152640313a3130360dc1b602082015290565b81600f1415612449575050604080518082019091526004815263313a323560e01b602082015290565b81600a1415612471575050604080518082019091526003815262313a3560e81b602082015290565b8160051415612499575050604080518082019091526003815262333a3160e81b602082015290565b50506040805180820190915260038152620303a360ec1b602082015290565b60608151600014156124d857505060408051602081019091526000815290565b600060405180606001604052806040815260200161417960409139905060006003845160026125079190613b0e565b6125119190614042565b61251c906004613b26565b6001600160401b0381111561253357612533613622565b6040519080825280601f01601f19166020018201604052801561255d576020820181803683370190505b509050600182016020820185865187015b808210156125c9576003820191508151603f8160121c168501518453600184019350603f81600c1c168501518453600184019350603f8160061c168501518453600184019350603f811685015184535060018301925061256e565b50506003865106600181146125e557600281146125f857612600565b603d6001830353603d6002830353612600565b603d60018303535b509195945050505050565b60006106c0825490565b6000611216836001600160a01b038416612c8f565b60006001600160e01b03198216635a05180f60e01b14806106c057506106c082612d82565b60006106c082612054565b6000818152609a6020526040902080546001600160a01b0319166001600160a01b038416908117909155819061268f82610d00565b6001600160a01b03167f8c5be1e5ebec7d5bd14f71427d1e84f3dd0314c0f7b2291e5b200ac8c7c3b92560405160405180910390a45050565b6126d2828261121d565b610909576126ea816001600160a01b03166014612da7565b6126f5836020612da7565b604051602001612706929190614056565b60408051601f198184030181529082905262461bcd60e51b82526107a99160040161352c565b612734611f3e565b8261274161028c82611b08565b1561275e5760405162461bcd60e51b81526004016107a990613a4c565b8261276b61028c82611b08565b156127885760405162461bcd60e51b81526004016107a990613a4c565b612793858585612f42565b5050505050565b6127a4828261121d565b610909576000828152610190602090815260408083206001600160a01b03851684529091529020805460ff191660011790556127dd3390565b6001600160a01b0316816001600160a01b0316837f2f8788117e7eff1d82e926ec794901d17c78024a50270940304540a733656f0d60405160405180910390a45050565b61282b828261121d565b15610909576000828152610190602090815260408083206001600160a01b0385168085529252808320805460ff1916905551339285917ff6391f5c32d9c69d2a47ea670b442974b53935d1edc7fd64eb21e047a839171b9190a45050565b61012c5460ff16611f855760405162461bcd60e51b815260206004820152601460248201527314185d5cd8589b194e881b9bdd081c185d5cd95960621b60448201526064016107a9565b6128dd8383612f4d565b6128ea6000848484612b82565b6107bc5760405162461bcd60e51b81526004016107a990613ff0565b600081815260018301602052604081205461294d575081546001818101845560008481526020808220909301849055845484825282860190935260409020919091556106c0565b5060006106c0565b600054610100900460ff1661297c5760405162461bcd60e51b81526004016107a990613f38565b815161298f9060969060208501906133b0565b5080516107bc9060979060208401906133b0565b600054610100900460ff166129ca5760405162461bcd60e51b81526004016107a990613f38565b61012c805460ff19169055565b600054610100900460ff166129fe5760405162461bcd60e51b81526004016107a990613f38565b610a958161308c565b600054610100900460ff16612a2e5760405162461bcd60e51b81526004016107a990613f38565b61025880546001600160a01b039095166001600160a01b03199095169490941790935561025a80546102599390935561ffff909316600160401b0269ffffffffffffffffffff199092166001600160401b0390911617179055565b6000826000018281548110612aa057612aa0613a79565b9060005260206000200154905092915050565b816001600160a01b0316836001600160a01b03161415612b155760405162461bcd60e51b815260206004820152601960248201527f4552433732313a20617070726f766520746f2063616c6c65720000000000000060448201526064016107a9565b6001600160a01b038381166000818152609b6020908152604080832094871680845294825291829020805460ff191686151590811790915591519182527f17307eab39ab6107e8899845ad3d59bd9653f200f220920489ca2b5937696c31910160405180910390a3505050565b60006001600160a01b0384163b15612c8457604051630a85bd0160e11b81526001600160a01b0385169063150b7a0290612bc69033908990889088906004016140cb565b602060405180830381600087803b158015612be057600080fd5b505af1925050508015612c10575060408051601f3d908101601f19168201909252612c0d918101906140fe565b60015b612c6a573d808015612c3e576040519150601f19603f3d011682016040523d82523d6000602084013e612c43565b606091505b508051612c625760405162461bcd60e51b81526004016107a990613ff0565b805181602001fd5b6001600160e01b031916630a85bd0160e11b149050611cf6565b506001949350505050565b60008181526001830160205260408120548015612d78576000612cb3600183613f21565b8554909150600090612cc790600190613f21565b9050818114612d2c576000866000018281548110612ce757612ce7613a79565b9060005260206000200154905080876000018481548110612d0a57612d0a613a79565b6000918252602080832090910192909255918252600188019052604090208390555b8554869080612d3d57612d3d61411b565b6001900381819060005260206000200160009055905585600101600086815260200190815260200160002060009055600193505050506106c0565b60009150506106c0565b60006001600160e01b03198216637965db0b60e01b14806106c057506106c0826130dd565b60606000612db6836002613b26565b612dc1906002613b0e565b6001600160401b03811115612dd857612dd8613622565b6040519080825280601f01601f191660200182016040528015612e02576020820181803683370190505b509050600360fc1b81600081518110612e1d57612e1d613a79565b60200101906001600160f81b031916908160001a905350600f60fb1b81600181518110612e4c57612e4c613a79565b60200101906001600160f81b031916908160001a9053506000612e70846002613b26565b612e7b906001613b0e565b90505b6001811115612ef3576f181899199a1a9b1b9c1cb0b131b232b360811b85600f1660108110612eaf57612eaf613a79565b1a60f81b828281518110612ec557612ec5613a79565b60200101906001600160f81b031916908160001a90535060049490941c93612eec81614131565b9050612e7e565b5083156112165760405162461bcd60e51b815260206004820181905260248201527f537472696e67733a20686578206c656e67746820696e73756666696369656e7460448201526064016107a9565b6107bc8383836130e8565b6001600160a01b038216612fa35760405162461bcd60e51b815260206004820181905260248201527f4552433732313a206d696e7420746f20746865207a65726f206164647265737360448201526064016107a9565b612fac8161264f565b15612ff95760405162461bcd60e51b815260206004820152601c60248201527f4552433732313a20746f6b656e20616c7265616479206d696e7465640000000060448201526064016107a9565b6130056000838361272c565b6001600160a01b038216600090815260996020526040812080546001929061302e908490613b0e565b909155505060008181526098602052604080822080546001600160a01b0319166001600160a01b03861690811790915590518392907fddf252ad1be2c89b69c2b068fc378daa952ba7f163c4a11628f55a4df523b3ef908290a45050565b600054610100900460ff166130b35760405162461bcd60e51b81526004016107a990613f38565b600080546001600160a01b03909216620100000262010000600160b01b0319909216919091179055565b60006106c0826130f3565b6107bc838383613118565b60006001600160e01b0319821663780e9d6360e01b14806106c057506106c0826131d0565b6001600160a01b0383166131735761316e8160ca8054600083815260cb60205260408120829055600182018355919091527f42d72674974f694b5f5159593243114d38a5c39c89d6b62fee061ff523240ee10155565b613196565b816001600160a01b0316836001600160a01b031614613196576131968382613220565b6001600160a01b0382166131ad576107bc816132bd565b826001600160a01b0316826001600160a01b0316146107bc576107bc828261336c565b60006001600160e01b031982166380ac58cd60e01b148061320157506001600160e01b03198216635b5e139f60e01b145b806106c057506301ffc9a760e01b6001600160e01b03198316146106c0565b6000600161322d84610d8c565b6132379190613f21565b600083815260c9602052604090205490915080821461328a576001600160a01b038416600090815260c860209081526040808320858452825280832054848452818420819055835260c990915290208190555b50600091825260c9602090815260408084208490556001600160a01b03909416835260c881528383209183525290812055565b60ca546000906132cf90600190613f21565b600083815260cb602052604081205460ca80549394509092849081106132f7576132f7613a79565b906000526020600020015490508060ca838154811061331857613318613a79565b600091825260208083209091019290925582815260cb909152604080822084905585825281205560ca8054806133505761335061411b565b6001900381819060005260206000200160009055905550505050565b600061337783610d8c565b6001600160a01b03909316600090815260c860209081526040808320868452825280832085905593825260c99052919091209190915550565b8280546133bc90613a17565b90600052602060002090601f0160209004810192826133de5760008555613424565b82601f106133f757805160ff1916838001178555613424565b82800160010185558215613424579182015b82811115613424578251825591602001919060010190613409565b5061343092915061348c565b5090565b5080546000825590600052602060002090810190610a95919061348c565b8280548282559060005260206000209081019282156134245791602002820182811115613424578251825591602001919060010190613409565b5b80821115613430576000815560010161348d565b6001600160e01b031981168114610a9557600080fd5b6000602082840312156134c957600080fd5b8135611216816134a1565b60005b838110156134ef5781810151838201526020016134d7565b83811115610b795750506000910152565b600081518084526135188160208601602086016134d4565b601f01601f19169290920160200192915050565b6020815260006112166020830184613500565b60006020828403121561355157600080fd5b5035919050565b80356001600160a01b038116811461356f57600080fd5b919050565b6000806040838503121561358757600080fd5b61359083613558565b946020939093013593505050565b6000602082840312156135b057600080fd5b61121682613558565b600081518084526020808501945080840160005b838110156135e9578151875295820195908201906001016135cd565b509495945050505050565b60408152600061360760408301856135b9565b828103602084015261361981856135b9565b95945050505050565b634e487b7160e01b600052604160045260246000fd5b604051601f8201601f191681016001600160401b038111828210171561366057613660613622565b604052919050565b600082601f83011261367957600080fd5b813560206001600160401b0382111561369457613694613622565b8160051b6136a3828201613638565b92835284810182019282810190878511156136bd57600080fd5b83870192505b848310156136dc578235825291830191908301906136c3565b979650505050505050565b6000602082840312156136f957600080fd5b81356001600160401b0381111561370f57600080fd5b611cf684828501613668565b60208152600061121660208301846135b9565b6000806040838503121561374157600080fd5b8235915060208301356001600160401b0381111561375e57600080fd5b61376a85828601613668565b9150509250929050565b60008060006060848603121561378957600080fd5b61379284613558565b92506137a060208501613558565b9150604084013590509250925092565b600080604083850312156137c357600080fd5b823591506137d360208401613558565b90509250929050565b600080604083850312156137ef57600080fd5b6137f883613558565b915060208301356001600160401b0381111561375e57600080fd5b60006001600160401b0383111561382c5761382c613622565b61383f601f8401601f1916602001613638565b905082815283838301111561385357600080fd5b828260208301376000602084830101529392505050565b60006020828403121561387c57600080fd5b81356001600160401b0381111561389257600080fd5b8201601f810184136138a357600080fd5b611cf684823560208401613813565b600080604083850312156138c557600080fd5b50508035926020909101359150565b8015158114610a9557600080fd5b600080604083850312156138f557600080fd5b6138fe83613558565b9150602083013561390e816138d4565b809150509250929050565b6000806000806080858703121561392f57600080fd5b61393885613558565b935061394660208601613558565b92506040850135915060608501356001600160401b0381111561396857600080fd5b8501601f8101871361397957600080fd5b61398887823560208401613813565b91505092959194509250565b600080604083850312156139a757600080fd5b82356001600160401b03808211156139be57600080fd5b6139ca86838701613668565b935060208501359150808211156139e057600080fd5b5061376a85828601613668565b60008060408385031215613a0057600080fd5b613a0983613558565b91506137d360208401613558565b600181811c90821680613a2b57607f821691505b602082108114156122b357634e487b7160e01b600052602260045260246000fd5b602080825260139082015272426c61636b6c6973746564206164647265737360681b604082015260600190565b634e487b7160e01b600052603260045260246000fd5b634e487b7160e01b600052601160045260246000fd5b6000600019821415613ab957613ab9613a8f565b5060010190565b6020808252602e908201527f4552433732313a2063616c6c6572206973206e6f7420746f6b656e206f776e6560408201526d1c881b9bdc88185c1c1c9bdd995960921b606082015260800190565b60008219821115613b2157613b21613a8f565b500190565b6000816000190483118215151615613b4057613b40613a8f565b500290565b600060208284031215613b5757600080fd5b8151611216816138d4565b634e487b7160e01b600052601260045260246000fd5b600082613b8757613b87613b62565b500690565b60008151613b9e8185602086016134d4565b9290920192915050565b60008251613bba8184602087016134d4565b602560f81b920191825250600101919050565b600080845481600182811c915080831680613be957607f831692505b6020808410821415613c0957634e487b7160e01b86526022600452602486fd5b818015613c1d5760018114613c2e57613c5b565b60ff19861689528489019650613c5b565b60008b81526020902060005b86811015613c535781548b820152908501908301613c3a565b505084890196505b5050505050506136198185613b8c565b7f226e616d65223a2022436f736d696320456c76657320446973636f756e74205481526669636b6574202360c81b602082015260008451613cb38160278501602089016134d4565b61088b60f21b60279184019182018190527f226465736372697074696f6e223a20223720646179207265736572766520646960298301527f73636f756e74207469636b65742076616c696420666f72203120436f736d696360498301526508115b19888b60d21b6069830152691134b6b0b3b2911d101160b11b606f8301528551613d45816079850160208a016134d4565b6079920191820152711130b734b6b0ba34b7b72fbab936111d101160711b607b820152613d86613d78608d830186613b8c565b61088b60f21b815260020190565b9695505050505050565b6e2261747472696275746573223a205b60881b81526000607b60f81b80600f8401527f2274726169745f74797065223a2022646973636f756e74222c00000000000000601084015269113b30b63ab2911d101160b11b8060298501528551613dff816033870160208a016134d4565b601160f91b603391860191820152611f4b60f21b6034820152603681019290925274089d1c985a5d17dd1e5c19488e88089bd9191cc88b605a1b6037830152604c8201819052845191613e598360568301602089016134d4565b6136dc613e82613e75605686850101601160f91b815260010190565b607d60f81b815260010190565b605d60f81b815260010190565b607b60f81b815260008351613eab8160018501602088016134d4565b835190830190613ec28160018401602088016134d4565b607d60f81b60019290910191820152600201949350505050565b7f646174613a6170706c69636174696f6e2f6a736f6e3b6261736536342c000000815260008251613f1481601d8501602087016134d4565b91909101601d0192915050565b600082821015613f3357613f33613a8f565b500390565b6020808252602b908201527f496e697469616c697a61626c653a20636f6e7472616374206973206e6f74206960408201526a6e697469616c697a696e6760a81b606082015260800190565b600063ffffffff80831681851681830481118215151615613fa657613fa6613a8f565b02949350505050565b600063ffffffff808316818516808303821115613fce57613fce613a8f565b01949350505050565b600060208284031215613fe957600080fd5b5051919050565b60208082526032908201527f4552433732313a207472616e7366657220746f206e6f6e20455243373231526560408201527131b2b4bb32b91034b6b83632b6b2b73a32b960711b606082015260800190565b60008261405157614051613b62565b500490565b7f416363657373436f6e74726f6c3a206163636f756e742000000000000000000081526000835161408e8160178501602088016134d4565b7001034b99036b4b9b9b4b733903937b6329607d1b60179184019182015283516140bf8160288401602088016134d4565b01602801949350505050565b6001600160a01b0385811682528416602082015260408101839052608060608201819052600090613d8690830184613500565b60006020828403121561411057600080fd5b8151611216816134a1565b634e487b7160e01b600052603160045260246000fd5b60008161414057614140613a8f565b50600019019056fe68747470733a2f2f696d616765732e636f736d6963756e6976657273652e6f6e652f656c7665732d7469636b6574732f4142434445464748494a4b4c4d4e4f505152535455565758595a6162636465666768696a6b6c6d6e6f707172737475767778797a303132333435363738392b2f9f2df0fed2c77648de5860a4cc508cd0818c85b8b8a1ab4ceeef8d981c8956a6a49807205ce4d355092ef5a8a18f56e8913cf4a201fbe287825b095693c21775a264697066735822122032e56d1a0bc58a63371b0e8fa9c5e268c4b54369a53143386485d1dc1f50ffa264736f6c63430008090033",
  "linkReferences": {},
  "deployedLinkReferences": {}
}