{
  "_format": "hh-sol-artifact-1",
  "contractName": "CosmicElvesTicketUpgradeable",
  "sourceName": "contracts/upgradeable/ERC721/CosmicElvesTicketUpgradeable.sol",
  "abi": [
    {
      "inputs": [],
      "stateMutability": "nonpayable",
      "type": "constructor"
    },
    {
      "inputs": [
        {
          "internalType": "address",
          "name": "have",
          "type": "address"
        },
        {
          "internalType": "address",
          "name": "want",
          "type": "address"
        }
      ],
      "name": "OnlyCoordinatorCanFulfill",
      "type": "error"
    },
    {
      "anonymous": false,
      "inputs": [
        {
          "indexed": true,
          "internalType": "address",
          "name": "owner",
          "type": "address"
        },
        {
          "indexed": true,
          "internalType": "address",
          "name": "approved",
          "type": "address"
        },
        {
          "indexed": true,
          "internalType": "uint256",
          "name": "tokenId",
          "type": "uint256"
        }
      ],
      "name": "Approval",
      "type": "event"
    },
    {
      "anonymous": false,
      "inputs": [
        {
          "indexed": true,
          "internalType": "address",
          "name": "owner",
          "type": "address"
        },
        {
          "indexed": true,
          "internalType": "address",
          "name": "operator",
          "type": "address"
        },
        {
          "indexed": false,
          "internalType": "bool",
          "name": "approved",
          "type": "bool"
        }
      ],
      "name": "ApprovalForAll",
      "type": "event"
    },
    {
      "anonymous": false,
      "inputs": [
        {
          "indexed": false,
          "internalType": "uint8",
          "name": "version",
          "type": "uint8"
        }
      ],
      "name": "Initialized",
      "type": "event"
    },
    {
      "anonymous": false,
      "inputs": [
        {
          "indexed": false,
          "internalType": "address",
          "name": "account",
          "type": "address"
        }
      ],
      "name": "Paused",
      "type": "event"
    },
    {
      "anonymous": false,
      "inputs": [
        {
          "indexed": true,
          "internalType": "bytes32",
          "name": "role",
          "type": "bytes32"
        },
        {
          "indexed": true,
          "internalType": "bytes32",
          "name": "previousAdminRole",
          "type": "bytes32"
        },
        {
          "indexed": true,
          "internalType": "bytes32",
          "name": "newAdminRole",
          "type": "bytes32"
        }
      ],
      "name": "RoleAdminChanged",
      "type": "event"
    },
    {
      "anonymous": false,
      "inputs": [
        {
          "indexed": true,
          "internalType": "bytes32",
          "name": "role",
          "type": "bytes32"
        },
        {
          "indexed": true,
          "internalType": "address",
          "name": "account",
          "type": "address"
        },
        {
          "indexed": true,
          "internalType": "address",
          "name": "sender",
          "type": "address"
        }
      ],
      "name": "RoleGranted",
      "type": "event"
    },
    {
      "anonymous": false,
      "inputs": [
        {
          "indexed": true,
          "internalType": "bytes32",
          "name": "role",
          "type": "bytes32"
        },
        {
          "indexed": true,
          "internalType": "address",
          "name": "account",
          "type": "address"
        },
        {
          "indexed": true,
          "internalType": "address",
          "name": "sender",
          "type": "address"
        }
      ],
      "name": "RoleRevoked",
      "type": "event"
    },
    {
      "anonymous": false,
      "inputs": [
        {
          "indexed": true,
          "internalType": "address",
          "name": "from",
          "type": "address"
        },
        {
          "indexed": true,
          "internalType": "address",
          "name": "to",
          "type": "address"
        },
        {
          "indexed": true,
          "internalType": "uint256",
          "name": "tokenId",
          "type": "uint256"
        }
      ],
      "name": "Transfer",
      "type": "event"
    },
    {
      "anonymous": false,
      "inputs": [
        {
          "indexed": false,
          "internalType": "address",
          "name": "account",
          "type": "address"
        }
      ],
      "name": "Unpaused",
      "type": "event"
    },
    {
      "inputs": [],
      "name": "ADMIN_ROLE",
      "outputs": [
        {
          "internalType": "bytes32",
          "name": "",
          "type": "bytes32"
        }
      ],
      "stateMutability": "view",
      "type": "function"
    },
    {
      "inputs": [],
      "name": "DEFAULT_ADMIN_ROLE",
      "outputs": [
        {
          "internalType": "bytes32",
          "name": "",
          "type": "bytes32"
        }
      ],
      "stateMutability": "view",
      "type": "function"
    },
    {
      "inputs": [],
      "name": "MINTER_ROLE",
      "outputs": [
        {
          "internalType": "bytes32",
          "name": "",
          "type": "bytes32"
        }
      ],
      "stateMutability": "view",
      "type": "function"
    },
    {
      "inputs": [
        {
          "internalType": "address",
          "name": "_address",
          "type": "address"
        }
      ],
      "name": "addBlacklist",
      "outputs": [],
      "stateMutability": "nonpayable",
      "type": "function"
    },
    {
      "inputs": [
        {
          "internalType": "address",
          "name": "_address",
          "type": "address"
        }
      ],
      "name": "adminCheckPendingMintDataOf",
      "outputs": [
        {
          "components": [
            {
              "internalType": "uint256[]",
              "name": "ids",
              "type": "uint256[]"
            },
            {
              "internalType": "uint256",
              "name": "requestId",
              "type": "uint256"
            },
            {
              "internalType": "uint256[]",
              "name": "words",
              "type": "uint256[]"
            }
          ],
          "internalType": "struct CosmicElvesTicketUpgradeable.PendingMint",
          "name": "",
          "type": "tuple"
        }
      ],
      "stateMutability": "view",
      "type": "function"
    },
    {
      "inputs": [
        {
          "internalType": "address",
          "name": "_address",
          "type": "address"
        }
      ],
      "name": "adminGetNewRandomnessFor",
      "outputs": [],
      "stateMutability": "nonpayable",
      "type": "function"
    },
    {
      "inputs": [
        {
          "internalType": "address",
          "name": "to",
          "type": "address"
        },
        {
          "internalType": "uint256",
          "name": "tokenId",
          "type": "uint256"
        }
      ],
      "name": "approve",
      "outputs": [],
      "stateMutability": "nonpayable",
      "type": "function"
    },
    {
      "inputs": [
        {
          "internalType": "address",
          "name": "owner",
          "type": "address"
        }
      ],
      "name": "balanceOf",
      "outputs": [
        {
          "internalType": "uint256",
          "name": "",
          "type": "uint256"
        }
      ],
      "stateMutability": "view",
      "type": "function"
    },
    {
      "inputs": [
        {
          "internalType": "uint256[]",
          "name": "tokenIds",
          "type": "uint256[]"
        }
      ],
      "name": "batchDiscountOf",
      "outputs": [
        {
          "internalType": "uint256[]",
          "name": "",
          "type": "uint256[]"
        }
      ],
      "stateMutability": "view",
      "type": "function"
    },
    {
      "inputs": [
        {
          "internalType": "address",
          "name": "to",
          "type": "address"
        },
        {
          "internalType": "uint256[]",
          "name": "ids",
          "type": "uint256[]"
        }
      ],
      "name": "batchMint",
      "outputs": [],
      "stateMutability": "nonpayable",
      "type": "function"
    },
    {
      "inputs": [
        {
          "internalType": "uint256[]",
          "name": "tokenIds",
          "type": "uint256[]"
        }
      ],
      "name": "batchTokenURI",
      "outputs": [
        {
          "internalType": "string[]",
          "name": "",
          "type": "string[]"
        }
      ],
      "stateMutability": "view",
      "type": "function"
    },
    {
      "inputs": [
        {
          "internalType": "address",
          "name": "from",
          "type": "address"
        },
        {
          "internalType": "address",
          "name": "to",
          "type": "address"
        },
        {
          "internalType": "uint256[]",
          "name": "tokenIds",
          "type": "uint256[]"
        }
      ],
      "name": "batchTransferFrom",
      "outputs": [],
      "stateMutability": "nonpayable",
      "type": "function"
    },
    {
      "inputs": [
        {
          "internalType": "uint256",
          "name": "tokenId",
          "type": "uint256"
        }
      ],
      "name": "burn",
      "outputs": [],
      "stateMutability": "nonpayable",
      "type": "function"
    },
    {
      "inputs": [],
      "name": "cap",
      "outputs": [
        {
          "internalType": "uint256",
          "name": "",
          "type": "uint256"
        }
      ],
      "stateMutability": "view",
      "type": "function"
    },
    {
      "inputs": [
        {
          "internalType": "uint256",
          "name": "tokenId",
          "type": "uint256"
        }
      ],
      "name": "discountOf",
      "outputs": [
        {
          "internalType": "uint256",
          "name": "discount",
          "type": "uint256"
        }
      ],
      "stateMutability": "view",
      "type": "function"
    },
    {
      "inputs": [],
      "name": "getAllTokenIds",
      "outputs": [
        {
          "internalType": "uint256[]",
          "name": "",
          "type": "uint256[]"
        }
      ],
      "stateMutability": "view",
      "type": "function"
    },
    {
      "inputs": [
        {
          "internalType": "uint256",
          "name": "tokenId",
          "type": "uint256"
        }
      ],
      "name": "getApproved",
      "outputs": [
        {
          "internalType": "address",
          "name": "",
          "type": "address"
        }
      ],
      "stateMutability": "view",
      "type": "function"
    },
    {
      "inputs": [
        {
          "internalType": "bytes32",
          "name": "role",
          "type": "bytes32"
        }
      ],
      "name": "getRoleAdmin",
      "outputs": [
        {
          "internalType": "bytes32",
          "name": "",
          "type": "bytes32"
        }
      ],
      "stateMutability": "view",
      "type": "function"
    },
    {
      "inputs": [
        {
          "internalType": "bytes32",
          "name": "role",
          "type": "bytes32"
        },
        {
          "internalType": "uint256",
          "name": "index",
          "type": "uint256"
        }
      ],
      "name": "getRoleMember",
      "outputs": [
        {
          "internalType": "address",
          "name": "",
          "type": "address"
        }
      ],
      "stateMutability": "view",
      "type": "function"
    },
    {
      "inputs": [
        {
          "internalType": "bytes32",
          "name": "role",
          "type": "bytes32"
        }
      ],
      "name": "getRoleMemberCount",
      "outputs": [
        {
          "internalType": "uint256",
          "name": "",
          "type": "uint256"
        }
      ],
      "stateMutability": "view",
      "type": "function"
    },
    {
      "inputs": [
        {
          "internalType": "bytes32",
          "name": "role",
          "type": "bytes32"
        },
        {
          "internalType": "address",
          "name": "account",
          "type": "address"
        }
      ],
      "name": "grantRole",
      "outputs": [],
      "stateMutability": "nonpayable",
      "type": "function"
    },
    {
      "inputs": [
        {
          "internalType": "bytes32",
          "name": "role",
          "type": "bytes32"
        },
        {
          "internalType": "address",
          "name": "account",
          "type": "address"
        }
      ],
      "name": "hasRole",
      "outputs": [
        {
          "internalType": "bool",
          "name": "",
          "type": "bool"
        }
      ],
      "stateMutability": "view",
      "type": "function"
    },
    {
      "inputs": [],
      "name": "imageBaseURI",
      "outputs": [
        {
          "internalType": "string",
          "name": "",
          "type": "string"
        }
      ],
      "stateMutability": "view",
      "type": "function"
    },
    {
      "inputs": [],
      "name": "initialize",
      "outputs": [],
      "stateMutability": "nonpayable",
      "type": "function"
    },
    {
      "inputs": [
        {
          "internalType": "address",
          "name": "owner",
          "type": "address"
        },
        {
          "internalType": "address",
          "name": "operator",
          "type": "address"
        }
      ],
      "name": "isApprovedForAll",
      "outputs": [
        {
          "internalType": "bool",
          "name": "",
          "type": "bool"
        }
      ],
      "stateMutability": "view",
      "type": "function"
    },
    {
      "inputs": [],
      "name": "lastTokenId",
      "outputs": [
        {
          "internalType": "uint256",
          "name": "",
          "type": "uint256"
        }
      ],
      "stateMutability": "view",
      "type": "function"
    },
    {
      "inputs": [
        {
          "internalType": "address",
          "name": "to",
          "type": "address"
        },
        {
          "internalType": "uint256",
          "name": "id",
          "type": "uint256"
        }
      ],
      "name": "mint",
      "outputs": [],
      "stateMutability": "nonpayable",
      "type": "function"
    },
    {
      "inputs": [
        {
          "internalType": "uint256",
          "name": "count",
          "type": "uint256"
        }
      ],
      "name": "mint",
      "outputs": [],
      "stateMutability": "nonpayable",
      "type": "function"
    },
    {
      "inputs": [],
      "name": "name",
      "outputs": [
        {
          "internalType": "string",
          "name": "",
          "type": "string"
        }
      ],
      "stateMutability": "view",
      "type": "function"
    },
    {
      "inputs": [
        {
          "internalType": "uint256",
          "name": "tokenId",
          "type": "uint256"
        }
      ],
      "name": "ownerOf",
      "outputs": [
        {
          "internalType": "address",
          "name": "",
          "type": "address"
        }
      ],
      "stateMutability": "view",
      "type": "function"
    },
    {
      "inputs": [
        {
          "internalType": "uint256",
          "name": "count",
          "type": "uint256"
        }
      ],
      "name": "partialReveal",
      "outputs": [],
      "stateMutability": "nonpayable",
      "type": "function"
    },
    {
      "inputs": [
        {
          "internalType": "address",
          "name": "_address",
          "type": "address"
        },
        {
          "internalType": "uint256",
          "name": "count",
          "type": "uint256"
        }
      ],
      "name": "partialRevealFor",
      "outputs": [],
      "stateMutability": "nonpayable",
      "type": "function"
    },
    {
      "inputs": [],
      "name": "pause",
      "outputs": [],
      "stateMutability": "nonpayable",
      "type": "function"
    },
    {
      "inputs": [],
      "name": "paused",
      "outputs": [
        {
          "internalType": "bool",
          "name": "",
          "type": "bool"
        }
      ],
      "stateMutability": "view",
      "type": "function"
    },
    {
      "inputs": [],
      "name": "price",
      "outputs": [
        {
          "internalType": "uint256",
          "name": "",
          "type": "uint256"
        }
      ],
      "stateMutability": "view",
      "type": "function"
    },
    {
      "inputs": [
        {
          "internalType": "uint256",
          "name": "requestId",
          "type": "uint256"
        },
        {
          "internalType": "uint256[]",
          "name": "randomWords",
          "type": "uint256[]"
        }
      ],
      "name": "rawFulfillRandomWords",
      "outputs": [],
      "stateMutability": "nonpayable",
      "type": "function"
    },
    {
      "inputs": [
        {
          "internalType": "address",
          "name": "_address",
          "type": "address"
        }
      ],
      "name": "removeBlacklist",
      "outputs": [],
      "stateMutability": "nonpayable",
      "type": "function"
    },
    {
      "inputs": [
        {
          "internalType": "bytes32",
          "name": "role",
          "type": "bytes32"
        },
        {
          "internalType": "address",
          "name": "account",
          "type": "address"
        }
      ],
      "name": "renounceRole",
      "outputs": [],
      "stateMutability": "nonpayable",
      "type": "function"
    },
    {
      "inputs": [],
      "name": "reveal",
      "outputs": [],
      "stateMutability": "nonpayable",
      "type": "function"
    },
    {
      "inputs": [
        {
          "internalType": "address",
          "name": "_address",
          "type": "address"
        }
      ],
      "name": "revealsPendingOf",
      "outputs": [
        {
          "internalType": "uint256[]",
          "name": "",
          "type": "uint256[]"
        },
        {
          "internalType": "bool",
          "name": "",
          "type": "bool"
        }
      ],
      "stateMutability": "view",
      "type": "function"
    },
    {
      "inputs": [
        {
          "internalType": "bytes32",
          "name": "role",
          "type": "bytes32"
        },
        {
          "internalType": "address",
          "name": "account",
          "type": "address"
        }
      ],
      "name": "revokeRole",
      "outputs": [],
      "stateMutability": "nonpayable",
      "type": "function"
    },
    {
      "inputs": [
        {
          "internalType": "address",
          "name": "from",
          "type": "address"
        },
        {
          "internalType": "address",
          "name": "to",
          "type": "address"
        },
        {
          "internalType": "uint256",
          "name": "tokenId",
          "type": "uint256"
        }
      ],
      "name": "safeTransferFrom",
      "outputs": [],
      "stateMutability": "nonpayable",
      "type": "function"
    },
    {
      "inputs": [
        {
          "internalType": "address",
          "name": "from",
          "type": "address"
        },
        {
          "internalType": "address",
          "name": "to",
          "type": "address"
        },
        {
          "internalType": "uint256",
          "name": "tokenId",
          "type": "uint256"
        },
        {
          "internalType": "bytes",
          "name": "data",
          "type": "bytes"
        }
      ],
      "name": "safeTransferFrom",
      "outputs": [],
      "stateMutability": "nonpayable",
      "type": "function"
    },
    {
      "inputs": [
        {
          "internalType": "address",
          "name": "operator",
          "type": "address"
        },
        {
          "internalType": "bool",
          "name": "approved",
          "type": "bool"
        }
      ],
      "name": "setApprovalForAll",
      "outputs": [],
      "stateMutability": "nonpayable",
      "type": "function"
    },
    {
      "inputs": [
        {
          "internalType": "uint256",
          "name": "_cap",
          "type": "uint256"
        }
      ],
      "name": "setCap",
      "outputs": [],
      "stateMutability": "nonpayable",
      "type": "function"
    },
    {
      "inputs": [
        {
          "internalType": "uint256[]",
          "name": "tokenIds",
          "type": "uint256[]"
        },
        {
          "internalType": "uint256[]",
          "name": "discounts",
          "type": "uint256[]"
        }
      ],
      "name": "setDiscountsOf",
      "outputs": [],
      "stateMutability": "nonpayable",
      "type": "function"
    },
    {
      "inputs": [
        {
          "internalType": "string",
          "name": "_imageBaseURI",
          "type": "string"
        }
      ],
      "name": "setImageBaseURI",
      "outputs": [],
      "stateMutability": "nonpayable",
      "type": "function"
    },
    {
      "inputs": [
        {
          "internalType": "uint256",
          "name": "_price",
          "type": "uint256"
        }
      ],
      "name": "setTicketPrice",
      "outputs": [],
      "stateMutability": "nonpayable",
      "type": "function"
    },
    {
      "inputs": [
        {
          "internalType": "bytes4",
          "name": "interfaceId",
          "type": "bytes4"
        }
      ],
      "name": "supportsInterface",
      "outputs": [
        {
          "internalType": "bool",
          "name": "",
          "type": "bool"
        }
      ],
      "stateMutability": "view",
      "type": "function"
    },
    {
      "inputs": [],
      "name": "symbol",
      "outputs": [
        {
          "internalType": "string",
          "name": "",
          "type": "string"
        }
      ],
      "stateMutability": "view",
      "type": "function"
    },
    {
      "inputs": [
        {
          "internalType": "uint256",
          "name": "index",
          "type": "uint256"
        }
      ],
      "name": "tokenByIndex",
      "outputs": [
        {
          "internalType": "uint256",
          "name": "",
          "type": "uint256"
        }
      ],
      "stateMutability": "view",
      "type": "function"
    },
    {
      "inputs": [
        {
          "internalType": "address",
          "name": "owner",
          "type": "address"
        },
        {
          "internalType": "uint256",
          "name": "index",
          "type": "uint256"
        }
      ],
      "name": "tokenOfOwnerByIndex",
      "outputs": [
        {
          "internalType": "uint256",
          "name": "",
          "type": "uint256"
        }
      ],
      "stateMutability": "view",
      "type": "function"
    },
    {
      "inputs": [
        {
          "internalType": "uint256",
          "name": "tokenId",
          "type": "uint256"
        }
      ],
      "name": "tokenURI",
      "outputs": [
        {
          "internalType": "string",
          "name": "",
          "type": "string"
        }
      ],
      "stateMutability": "view",
      "type": "function"
    },
    {
      "inputs": [
        {
          "internalType": "address",
          "name": "_address",
          "type": "address"
        }
      ],
      "name": "tokensAndDiscountsOfOwner",
      "outputs": [
        {
          "internalType": "uint256[]",
          "name": "tokens",
          "type": "uint256[]"
        },
        {
          "internalType": "uint256[]",
          "name": "discounts",
          "type": "uint256[]"
        }
      ],
      "stateMutability": "view",
      "type": "function"
    },
    {
      "inputs": [
        {
          "internalType": "address",
          "name": "owner",
          "type": "address"
        }
      ],
      "name": "tokensOfOwner",
      "outputs": [
        {
          "internalType": "uint256[]",
          "name": "",
          "type": "uint256[]"
        }
      ],
      "stateMutability": "view",
      "type": "function"
    },
    {
      "inputs": [],
      "name": "totalSupply",
      "outputs": [
        {
          "internalType": "uint256",
          "name": "",
          "type": "uint256"
        }
      ],
      "stateMutability": "view",
      "type": "function"
    },
    {
      "inputs": [
        {
          "internalType": "address",
          "name": "from",
          "type": "address"
        },
        {
          "internalType": "address",
          "name": "to",
          "type": "address"
        },
        {
          "internalType": "uint256",
          "name": "tokenId",
          "type": "uint256"
        }
      ],
      "name": "transferFrom",
      "outputs": [],
      "stateMutability": "nonpayable",
      "type": "function"
    },
    {
      "inputs": [],
      "name": "treasury",
      "outputs": [
        {
          "internalType": "address",
          "name": "",
          "type": "address"
        }
      ],
      "stateMutability": "view",
      "type": "function"
    },
    {
      "inputs": [],
      "name": "unpause",
      "outputs": [],
      "stateMutability": "nonpayable",
      "type": "function"
    }
  ],
  "bytecode": "0x60806040523480156200001157600080fd5b506200001c62000022565b620000e4565b600054610100900460ff16156200008f5760405162461bcd60e51b815260206004820152602760248201527f496e697469616c697a61626c653a20636f6e747261637420697320696e697469604482015266616c697a696e6760c81b606482015260840160405180910390fd5b60005460ff9081161015620000e2576000805460ff191660ff9081179091556040519081527f7f26b83ff96e1f2b6a682f133852f6798a09c465da95921460cefb38474024989060200160405180910390a15b565b614d1f80620000f46000396000f3fe608060405234801561001057600080fd5b50600436106103995760003560e01c806375b238fc116101e9578063a475b5dd1161010f578063d5391393116100ad578063eb91e6511161007c578063eb91e651146107f4578063f16a582514610807578063f3993d111461081a578063f84ddf0b1461082d57600080fd5b8063d53913931461077d578063d547741f14610792578063da139142146107a5578063e985e9c5146107b857600080fd5b8063bdbed722116100e9578063bdbed7221461073c578063c87b56dd14610744578063ca122fb014610757578063ca15c8731461076a57600080fd5b8063a475b5dd14610700578063ad8f9ad614610708578063b88d4fde1461072957600080fd5b806391d1485411610187578063a035b1fe11610156578063a035b1fe146106c8578063a0712d68146106d2578063a217fddf146106e5578063a22cb465146106ed57600080fd5b806391d148541461068757806395d89b411461069a5780639af4cb22146106a25780639cfe42da146106b557600080fd5b806382b08a90116101c357806382b08a90146106395780638456cb59146106595780638462151c146106615780639010d07c1461067457600080fd5b806375b238fc1461061457806377645839146106295780638129fc1c1461063157600080fd5b806336568abe116102ce57806349299d6e1161026c5780636352211e1161023b5780636352211e146105bb5780636cfa24cc146105ce5780636d94f13a146105e157806370a082311461060157600080fd5b806349299d6e146105755780634f6ccce7146105885780635c975abb1461059b57806361d027b3146105a757600080fd5b806342842e0e116102a857806342842e0e1461052957806342966c681461053c5780634684d7e91461054f57806347786d371461056257600080fd5b806336568abe146104fb5780633f4ba83a1461050e57806340c10f191461051657600080fd5b80631e9d71011161033b578063248a9ca311610315578063248a9ca3146104a75780632f2ff15d146104cb5780632f745c59146104de578063355274ea146104f157600080fd5b80631e9d7101146104615780631fe543e31461048157806323b872dd1461049457600080fd5b8063095ea7b311610377578063095ea7b314610406578063131b71b01461041b578063159816501461043c57806318160ddd1461044f57600080fd5b806301ffc9a71461039e57806306fdde03146103c6578063081812fc146103db575b600080fd5b6103b16103ac366004613e82565b610835565b60405190151581526020015b60405180910390f35b6103ce610846565b6040516103bd9190613ef7565b6103ee6103e9366004613f0a565b6108d8565b6040516001600160a01b0390911681526020016103bd565b610419610414366004613f3f565b6108ff565b005b61042e610429366004613f69565b610941565b6040516103bd929190613fbf565b61041961044a366004613f0a565b610968565b60ca545b6040519081526020016103bd565b61047461046f3660046140b2565b610987565b6040516103bd91906140e6565b61041961048f3660046140f9565b610a34565b6104196104a236600461413f565b610a8d565b6104536104b5366004613f0a565b6000908152610190602052604090206001015490565b6104196104d936600461417b565b610abf565b6104536104ec366004613f3f565b610ae5565b6104536102995481565b61041961050936600461417b565b610b7b565b610419610bf5565b610419610524366004613f3f565b610c18565b61041961053736600461413f565b610c42565b61041961054a366004613f0a565b610c5d565b61041961055d3660046141a7565b610c98565b610419610570366004613f0a565b610cff565b610453610583366004613f0a565b610d1e565b610453610596366004613f0a565b610ded565b61012c5460ff166103b1565b610297546103ee906001600160a01b031681565b6103ee6105c9366004613f0a565b610e80565b6104196105dc366004614235565b610ee0565b6105f46105ef3660046140b2565b610f0c565b6040516103bd919061427d565b61045361060f366004613f69565b610fbd565b610453600080516020614cca83398151915281565b6103ce611043565b6104196110d2565b61064c610647366004613f69565b61136d565b6040516103bd91906142df565b610419611488565b61047461066f366004613f69565b6114a8565b6103ee610682366004614322565b611549565b6103b161069536600461417b565b611569565b6103ce611595565b6104196106b0366004613f0a565b6115a4565b6104196106c3366004613f69565b6115ae565b6104536102985481565b6104196106e0366004613f0a565b6115d2565b610453600081565b6104196106fb366004614352565b61186a565b61041961189e565b61071b610716366004613f69565b611b22565b6040516103bd929190614389565b6104196107373660046143ad565b611ba0565b610474611bd2565b6103ce610752366004613f0a565b611cbc565b610419610765366004613f69565b611de6565b610453610778366004613f0a565b611f0f565b610453600080516020614caa83398151915281565b6104196107a036600461417b565b611f27565b6104196107b3366004614428565b611f4d565b6103b16107c6366004614481565b6001600160a01b039182166000908152609b6020908152604080832093909416825291909152205460ff1690565b610419610802366004613f69565b6120a9565b610419610815366004613f3f565b6120cd565b6104196108283660046144ab565b6120e2565b610453612124565b600061084082612135565b92915050565b60606096805461085590614508565b80601f016020809104026020016040519081016040528092919081815260200182805461088190614508565b80156108ce5780601f106108a3576101008083540402835291602001916108ce565b820191906000526020600020905b8154815290600101906020018083116108b157829003601f168201915b5050505050905090565b60006108e382612140565b506000908152609a60205260409020546001600160a01b031690565b8161090c61028c82612190565b156109325760405162461bcd60e51b81526004016109299061453d565b60405180910390fd5b61093c83836121b2565b505050565b606080600061094f846114a8565b9050600061095c82610987565b91959194509092505050565b600080516020614cca833981519152610980816122c3565b5061029855565b6060600082516001600160401b038111156109a4576109a4613fed565b6040519080825280602002602001820160405280156109cd578160200160208202803683370190505b50905060005b8351811015610a2d576109fe8482815181106109f1576109f161456a565b6020026020010151610d1e565b828281518110610a1057610a1061456a565b602090810291909101015280610a2581614596565b9150506109d3565b5092915050565b6000546201000090046001600160a01b03163314610a7f5760005460405163073e64fd60e21b8152336004820152620100009091046001600160a01b03166024820152604401610929565b610a8982826122cd565b5050565b610a98335b82612364565b610ab45760405162461bcd60e51b8152600401610929906145b1565b61093c8383836123e3565b60008281526101906020526040902060010154610adb816122c3565b61093c838361258a565b6000610af083610fbd565b8210610b525760405162461bcd60e51b815260206004820152602b60248201527f455243373231456e756d657261626c653a206f776e657220696e646578206f7560448201526a74206f6620626f756e647360a81b6064820152608401610929565b506001600160a01b0391909116600090815260c860209081526040808320938352929052205490565b6001600160a01b0381163314610beb5760405162461bcd60e51b815260206004820152602f60248201527f416363657373436f6e74726f6c3a2063616e206f6e6c792072656e6f756e636560448201526e103937b632b9903337b91039b2b63360891b6064820152608401610929565b610a8982826125ad565b600080516020614cca833981519152610c0d816122c3565b610c156125d0565b50565b610c20612623565b600080516020614caa833981519152610c38816122c3565b61093c838361266c565b61093c83838360405180602001604052806000815250611ba0565b610c6633610a92565b610c825760405162461bcd60e51b8152600401610929906145b1565b610c8e6101f482612686565b50610c1581612692565b610ca0612623565b600080516020614caa833981519152610cb8816122c3565b60005b8251811015610cf957610ce784848381518110610cda57610cda61456a565b602002602001015161266c565b80610cf181614596565b915050610cbb565b50505050565b600080516020614cca833981519152610d17816122c3565b5061029955565b6000610d2982612739565b610d815760405162461bcd60e51b8152602060048201526024808201527f446973636f756e7420717565727920666f72206e6f6e6578697374656e74207460448201526337b5b2b760e11b6064820152608401610929565b610d8d61028e83612761565b15610d9a57506005919050565b610da661029083612761565b15610db35750600a919050565b610dbf61029283612761565b15610dcc5750600f919050565b610dd861029483612761565b15610de557506014919050565b506000919050565b6000610df860ca5490565b8210610e5b5760405162461bcd60e51b815260206004820152602c60248201527f455243373231456e756d657261626c653a20676c6f62616c20696e646578206f60448201526b7574206f6620626f756e647360a01b6064820152608401610929565b60ca8281548110610e6e57610e6e61456a565b90600052602060002001549050919050565b6000818152609860205260408120546001600160a01b0316806108405760405162461bcd60e51b8152602060048201526018602482015277115490cdcc8c4e881a5b9d985b1a59081d1bdad95b88125160421b6044820152606401610929565b600080516020614cca833981519152610ef8816122c3565b815161093c9061029a906020850190613d7b565b6060600082516001600160401b03811115610f2957610f29613fed565b604051908082528060200260200182016040528015610f5c57816020015b6060815260200190600190039081610f475790505b50905060005b8351811015610a2d57610f8d848281518110610f8057610f8061456a565b6020026020010151611cbc565b828281518110610f9f57610f9f61456a565b60200260200101819052508080610fb590614596565b915050610f62565b60006001600160a01b0382166110275760405162461bcd60e51b815260206004820152602960248201527f4552433732313a2061646472657373207a65726f206973206e6f7420612076616044820152683634b21037bbb732b960b91b6064820152608401610929565b506001600160a01b031660009081526099602052604090205490565b61029a805461105190614508565b80601f016020809104026020016040519081016040528092919081815260200182805461107d90614508565b80156110ca5780601f1061109f576101008083540402835291602001916110ca565b820191906000526020600020905b8154815290600101906020018083116110ad57829003601f168201915b505050505081565b600054610100900460ff16158080156110f25750600054600160ff909116105b8061110c5750303b15801561110c575060005460ff166001145b61116f5760405162461bcd60e51b815260206004820152602e60248201527f496e697469616c697a61626c653a20636f6e747261637420697320616c72656160448201526d191e481a5b9a5d1a585b1a5e995960921b6064820152608401610929565b6000805460ff191660011790558015611192576000805461ff0019166101001790555b6111de6040518060400160405280600b81526020016a115b1d995cd51a58dad95d60aa1b8152506040518060400160405280600781526020016611551250d2d15560ca1b815250612779565b6111e66127aa565b6111ee6127d1565b6111f66127aa565b6111fe6127aa565b73d5d517abe5cf79b7e95ec98db0f0277788aff6347f83250c5584ffa93feb6ee082981c5ebe484c865196750b39835ad4f13780435d601b600361124484848484612800565b61124f60003361258a565b611267600080516020614cca8339815191523361258a565b61127f600080516020614caa8339815191523361258a565b61029680546001600160a01b031990811673b97ef9ef8734c71904d8002f8b6bc66dd9c48a6e17909155610297805490911673d2578a0b2631e591890f28499e9e8d73f21e589517905562989680610298556113886102995560408051606081019091526030808252614c3a602083013980516113059161029a91602090910190613d7b565b5061036761131361028b5490565b10156113215761036761028b555b505050508015610c15576000805461ff0019169055604051600181527f7f26b83ff96e1f2b6a682f133852f6798a09c465da95921460cefb38474024989060200160405180910390a150565b61139160405180606001604052806060815260200160008152602001606081525090565b600080516020614cca8339815191526113a9816122c3565b6001600160a01b038316600090815261028960209081526040918290208251815460809381028201840190945260608101848152909391928492849184018282801561141457602002820191906000526020600020905b815481526020019060010190808311611400575b50505050508152602001600182015481526020016002820180548060200260200160405190810160405280929190818152602001828054801561147657602002820191906000526020600020905b815481526020019060010190808311611462575b50505050508152505091505b50919050565b600080516020614cca8339815191526114a0816122c3565b610c15612844565b606060006114b583610fbd565b90506000816001600160401b038111156114d1576114d1613fed565b6040519080825280602002602001820160405280156114fa578160200160208202803683370190505b50905060005b82811015611541576115128582610ae5565b8282815181106115245761152461456a565b60209081029190910101528061153981614596565b915050611500565b509392505050565b60008281526101c2602052604081206115629083612882565b9392505050565b6000918252610190602090815260408084206001600160a01b0393909316845291905290205460ff1690565b60606097805461085590614508565b610c15338261288e565b600080516020614cca8339815191526115c6816122c3565b61093c61028c83612b97565b6115da612623565b63630aa1f042106115ea57600080fd5b336000908152610289602052604090206001810154156116485760405162461bcd60e51b81526020600482015260196024820152784578697374696e67206d696e7420696e2070726f677265737360381b6044820152606401610929565b600a82111561168f5760405162461bcd60e51b815260206004820152601360248201527213585e1a5b5d5b480c4c081c195c881b5a5b9d606a1b6044820152606401610929565b600061169b61028b5490565b90506102995481106116da5760405162461bcd60e51b815260206004820152600860248201526714dbdb19081bdd5d60c21b6044820152606401610929565b610299546116e884836145ff565b11156117365760405162461bcd60e51b815260206004820152601b60248201527f496e73756666696369656e742072656d61696e696e67204e46547300000000006044820152606401610929565b610296546001600160a01b03166323b872dd3361029754610298546001600160a01b0390911690611768908890614617565b6040516001600160e01b031960e086901b1681526001600160a01b0393841660048201529290911660248301526044820152606401602060405180830381600087803b1580156117b757600080fd5b505af11580156117cb573d6000803e3d6000fd5b505050506040513d601f19601f820116820180604052508101906117ef9190614636565b506117f983612bac565b60018301819055600090815261028a6020526040812080546001600160a01b031916331790555b83811015610cf95761183761028b80546001019055565b8261184261028b5490565b815460018101835560009283526020909220909101558061186281614596565b915050611820565b8161187761028c82612190565b156118945760405162461bcd60e51b81526004016109299061453d565b61093c8383612c84565b3360009081526102896020526040902060018101546118f15760405162461bcd60e51b815260206004820152600f60248201526e139bc81c195b991a5b99c81b5a5b9d608a1b6044820152606401610929565b600281015461193a5760405162461bcd60e51b8152602060048201526015602482015274526573756c7473207374696c6c2070656e64696e6760581b6044820152606401610929565b60005b8154811015611ace5760006103e88360020183815481106119605761196061456a565b90600052602060002001546119759190614669565b90506103de81106119ba576119b48360000183815481106119985761199861456a565b906000526020600020015461029461268690919063ffffffff16565b50611a92565b6103b681101580156119cd57506103de81105b15611a06576119b48360000183815481106119ea576119ea61456a565b906000526020600020015461029261268690919063ffffffff16565b6102ee8110158015611a1957506103b681105b15611a52576119b4836000018381548110611a3657611a3661456a565b906000526020600020015461029061268690919063ffffffff16565b6102ee811015611a9257611a90836000018381548110611a7457611a7461456a565b906000526020600020015461028e61268690919063ffffffff16565b505b611abb33846000018481548110611aab57611aab61456a565b906000526020600020015461266c565b5080611ac681614596565b91505061193d565b506001810154600090815261028a6020908152604080832080546001600160a01b0319169055338352610289909152812090611b0a8282613dff565b600182016000905560028201600061093c9190613dff565b6001600160a01b0381166000908152610289602090815260408083206002810154815483518186028101860190945280845260609594929391151592849190830182828015611b9057602002820191906000526020600020905b815481526020019060010190808311611b7c575b5050505050915091509150915091565b611baa3383612364565b611bc65760405162461bcd60e51b8152600401610929906145b1565b610cf984848484612c8f565b6060600060015b612710811015611c1157611bec81612cc2565b15611bff5781611bfb81614596565b9250505b80611c0981614596565b915050611bd9565b506000816001600160401b03811115611c2c57611c2c613fed565b604051908082528060200260200182016040528015611c55578160200160208202803683370190505b509050600060015b612710811015611cb357611c7081612cc2565b15611ca15780838381518110611c8857611c8861456a565b602090810291909101015281611c9d81614596565b9250505b80611cab81614596565b915050611c5d565b50909392505050565b60606000611cc983610d1e565b90506000611cd682612ccd565b604051602001611ce69190614699565b6040516020818303038152906040529050600061029a611d0584612ccd565b604051602001611d169291906146be565b60405160208183030381529060405290506000611d3284612dca565b90506000611d3f87612ccd565b8384604051602001611d539392919061475c565b604051602081830303815290604052905060008483604051602001611d79929190614881565b604051602081830303815290604052905060008282604051602001611d9f929190614980565b6040516020818303038152906040529050611db981612e8e565b604051602001611dc991906149cd565b604051602081830303815290604052975050505050505050919050565b600080516020614cca833981519152611dfe816122c3565b6001600160a01b0382166000908152610289602052604090206001810154611e645760405162461bcd60e51b81526020600482015260196024820152784578697374696e67206d696e7420696e2070726f677265737360381b6044820152606401610929565b8054611ea95760405162461bcd60e51b81526020600482015260146024820152734e6f20746f6b656e204944732070656e64696e6760601b6044820152606401610929565b6001810154600090815261028a6020526040902080546001600160a01b0319169055611ed56005612bac565b6001909101819055600090815261028a6020526040902080546001600160a01b039093166001600160a01b03199093169290921790915550565b60008181526101c26020526040812061084090612fe1565b60008281526101906020526040902060010154611f43816122c3565b61093c83836125ad565b600080516020614cca833981519152611f65816122c3565b60005b8351811015610cf957828181518110611f8357611f8361456a565b602002602001015160141415611fc757611fc1848281518110611fa857611fa861456a565b602002602001015161029461268690919063ffffffff16565b50612097565b828181518110611fd957611fd961456a565b6020026020010151600f141561201757611fc1848281518110611ffe57611ffe61456a565b602002602001015161029261268690919063ffffffff16565b8281815181106120295761202961456a565b6020026020010151600a141561206757611fc184828151811061204e5761204e61456a565b602002602001015161029061268690919063ffffffff16565b61209584828151811061207c5761207c61456a565b602002602001015161028e61268690919063ffffffff16565b505b806120a181614596565b915050611f68565b600080516020614cca8339815191526120c1816122c3565b61093c61028c83612feb565b60006120d8816122c3565b61093c838361288e565b60005b8151811015610cf95761211284848484815181106121055761210561456a565b6020026020010151610a8d565b8061211c81614596565b9150506120e5565b600061213061028b5490565b905090565b600061084082613000565b61214981612cc2565b610c155760405162461bcd60e51b8152602060048201526018602482015277115490cdcc8c4e881a5b9d985b1a59081d1bdad95b88125160421b6044820152606401610929565b6001600160a01b03811660009081526001830160205260408120541515611562565b60006121bd82610e80565b9050806001600160a01b0316836001600160a01b0316141561222b5760405162461bcd60e51b815260206004820152602160248201527f4552433732313a20617070726f76616c20746f2063757272656e74206f776e656044820152603960f91b6064820152608401610929565b336001600160a01b0382161480612247575061224781336107c6565b6122b95760405162461bcd60e51b815260206004820152603e60248201527f4552433732313a20617070726f76652063616c6c6572206973206e6f7420746f60448201527f6b656e206f776e6572206e6f7220617070726f76656420666f7220616c6c00006064820152608401610929565b61093c8383613025565b610c158133613093565b600082815261028a60209081526040808320546001600160a01b0316835261028990915290206002810154612311578151610cf99060028301906020850190613e1d565b60005b8251811015610cf957816002018382815181106123335761233361456a565b602090810291909101810151825460018101845560009384529190922001558061235c81614596565b915050612314565b60008061237083610e80565b9050806001600160a01b0316846001600160a01b031614806123b757506001600160a01b038082166000908152609b602090815260408083209388168352929052205460ff165b806123db5750836001600160a01b03166123d0846108d8565b6001600160a01b0316145b949350505050565b826001600160a01b03166123f682610e80565b6001600160a01b03161461245a5760405162461bcd60e51b815260206004820152602560248201527f4552433732313a207472616e736665722066726f6d20696e636f72726563742060448201526437bbb732b960d91b6064820152608401610929565b6001600160a01b0382166124bc5760405162461bcd60e51b8152602060048201526024808201527f4552433732313a207472616e7366657220746f20746865207a65726f206164646044820152637265737360e01b6064820152608401610929565b6124c78383836130f7565b6124d2600082613025565b6001600160a01b03831660009081526099602052604081208054600192906124fb908490614a12565b90915550506001600160a01b03821660009081526099602052604081208054600192906125299084906145ff565b909155505060008181526098602052604080822080546001600160a01b0319166001600160a01b0386811691821790925591518493918716917fddf252ad1be2c89b69c2b068fc378daa952ba7f163c4a11628f55a4df523b3ef91a4505050565b6125948282613165565b60008281526101c26020526040902061093c9082612b97565b6125b782826131ec565b60008281526101c26020526040902061093c9082612feb565b6125d8613254565b61012c805460ff191690557f5db9ee0a495bf2e6ff9c91a7834c1ba4fdd244a5e8aa4e537bd38aeae4b073aa335b6040516001600160a01b03909116815260200160405180910390a1565b61012c5460ff161561266a5760405162461bcd60e51b815260206004820152601060248201526f14185d5cd8589b194e881c185d5cd95960821b6044820152606401610929565b565b610a8982826040518060200160405280600081525061329e565b600061156283836132d1565b600061269d82610e80565b90506126ab816000846130f7565b6126b6600083613025565b6001600160a01b03811660009081526099602052604081208054600192906126df908490614a12565b909155505060008281526098602052604080822080546001600160a01b0319169055518391906001600160a01b038416907fddf252ad1be2c89b69c2b068fc378daa952ba7f163c4a11628f55a4df523b3ef908390a45050565b6000818152609860205260408120546001600160a01b031615158061084057506108406101f4835b60008181526001830160205260408120541515611562565b600054610100900460ff166127a05760405162461bcd60e51b815260040161092990614a29565b610a898282613320565b600054610100900460ff1661266a5760405162461bcd60e51b815260040161092990614a29565b600054610100900460ff166127f85760405162461bcd60e51b815260040161092990614a29565b61266a61336e565b600054610100900460ff166128275760405162461bcd60e51b815260040161092990614a29565b61282f6127aa565b612838846133a2565b610cf9848484846133d2565b61284c612623565b61012c805460ff191660011790557f62e78cea01bee320cd4e420270b5ea74000d11b0c9f74754ebdbfc544b05a2586126063390565b60006115628383613454565b6001600160a01b03821660009081526102896020526040902060018101546128ea5760405162461bcd60e51b815260206004820152600f60248201526e139bc81c195b991a5b99c81b5a5b9d608a1b6044820152606401610929565b60028101546129335760405162461bcd60e51b8152602060048201526015602482015274526573756c7473207374696c6c2070656e64696e6760581b6044820152606401610929565b600060608060005b8454811015612ae1578581106129d8578460000181815481106129605761296061456a565b906000526020600020015483858151811061297d5761297d61456a565b60200260200101818152505084600201818154811061299e5761299e61456a565b90600052602060002001548285815181106129bb576129bb61456a565b6020908102919091010152836129d081614596565b945050612acf565b60006103e88660020183815481106129f2576129f261456a565b9060005260206000200154612a079190614669565b90506103de8110612a3057612a2a8660000183815481106119985761199861456a565b50612ab4565b6103b68110158015612a4357506103de81105b15612a6057612a2a8660000183815481106119ea576119ea61456a565b6102ee8110158015612a7357506103b681105b15612a9057612a2a866000018381548110611a3657611a3661456a565b6102ee811015612ab457612ab2866000018381548110611a7457611a7461456a565b505b612acd88876000018481548110611aab57611aab61456a565b505b80612ad981614596565b91505061293b565b50815115612b3057612af4846000613dff565b8151612b069085906020850190613e1d565b50612b15600285016000613dff565b8051612b2a9060028601906020840190613e1d565b50612b8f565b6001840154600090815261028a6020908152604080832080546001600160a01b03191690556001600160a01b0389168352610289909152812090612b748282613dff565b6001820160009055600282016000612b8c9190613dff565b50505b505050505050565b6000611562836001600160a01b0384166132d1565b600080612bbb83614e20614a74565b612bc890620186a0614aa0565b610258546102595461025a546040516305d3b1d360e41b815260048101929092526001600160401b0381166024830152600160401b900461ffff16604482015263ffffffff8084166064830152861660848201529192506001600160a01b031690635d3b1d309060a401602060405180830381600087803b158015612c4c57600080fd5b505af1158015612c60573d6000803e3d6000fd5b505050506040513d601f19601f820116820180604052508101906115629190614ac8565b610a8933838361347e565b612c9a8484846123e3565b612ca68484848461354d565b610cf95760405162461bcd60e51b815260040161092990614ae1565b600061084082612739565b606081612cf15750506040805180820190915260018152600360fc1b602082015290565b8160005b8115612d1b5780612d0581614596565b9150612d149050600a83614b33565b9150612cf5565b6000816001600160401b03811115612d3557612d35613fed565b6040519080825280601f01601f191660200182016040528015612d5f576020820181803683370190505b5090505b84156123db57612d74600183614a12565b9150612d81600a86614669565b612d8c9060306145ff565b60f81b818381518110612da157612da161456a565b60200101906001600160f81b031916908160001a905350612dc3600a86614b33565b9450612d63565b60608160141415612df65750506040805180820190915260058152640313a3130360dc1b602082015290565b81600f1415612e1f575050604080518082019091526004815263313a323560e01b602082015290565b81600a1415612e47575050604080518082019091526003815262313a3560e81b602082015290565b8160051415612e6f575050604080518082019091526003815262333a3160e81b602082015290565b50506040805180820190915260038152620303a360ec1b602082015290565b6060815160001415612eae57505060408051602081019091526000815290565b6000604051806060016040528060408152602001614c6a6040913990506000600384516002612edd91906145ff565b612ee79190614b33565b612ef2906004614617565b6001600160401b03811115612f0957612f09613fed565b6040519080825280601f01601f191660200182016040528015612f33576020820181803683370190505b509050600182016020820185865187015b80821015612f9f576003820191508151603f8160121c168501518453600184019350603f81600c1c168501518453600184019350603f8160061c168501518453600184019350603f8116850151845350600183019250612f44565b5050600386510660018114612fbb5760028114612fce57612fd6565b603d6001830353603d6002830353612fd6565b603d60018303535b509195945050505050565b6000610840825490565b6000611562836001600160a01b03841661365a565b60006001600160e01b03198216635a05180f60e01b148061084057506108408261374d565b6000818152609a6020526040902080546001600160a01b0319166001600160a01b038416908117909155819061305a82610e80565b6001600160a01b03167f8c5be1e5ebec7d5bd14f71427d1e84f3dd0314c0f7b2291e5b200ac8c7c3b92560405160405180910390a45050565b61309d8282611569565b610a89576130b5816001600160a01b03166014613772565b6130c0836020613772565b6040516020016130d1929190614b47565b60408051601f198184030181529082905262461bcd60e51b825261092991600401613ef7565b6130ff612623565b8261310c61028c82612190565b156131295760405162461bcd60e51b81526004016109299061453d565b8261313661028c82612190565b156131535760405162461bcd60e51b81526004016109299061453d565b61315e85858561390d565b5050505050565b61316f8282611569565b610a89576000828152610190602090815260408083206001600160a01b03851684529091529020805460ff191660011790556131a83390565b6001600160a01b0316816001600160a01b0316837f2f8788117e7eff1d82e926ec794901d17c78024a50270940304540a733656f0d60405160405180910390a45050565b6131f68282611569565b15610a89576000828152610190602090815260408083206001600160a01b0385168085529252808320805460ff1916905551339285917ff6391f5c32d9c69d2a47ea670b442974b53935d1edc7fd64eb21e047a839171b9190a45050565b61012c5460ff1661266a5760405162461bcd60e51b815260206004820152601460248201527314185d5cd8589b194e881b9bdd081c185d5cd95960621b6044820152606401610929565b6132a88383613918565b6132b5600084848461354d565b61093c5760405162461bcd60e51b815260040161092990614ae1565b600081815260018301602052604081205461331857508154600181810184556000848152602080822090930184905584548482528286019093526040902091909155610840565b506000610840565b600054610100900460ff166133475760405162461bcd60e51b815260040161092990614a29565b815161335a906096906020850190613d7b565b50805161093c906097906020840190613d7b565b600054610100900460ff166133955760405162461bcd60e51b815260040161092990614a29565b61012c805460ff19169055565b600054610100900460ff166133c95760405162461bcd60e51b815260040161092990614a29565b610c1581613a57565b600054610100900460ff166133f95760405162461bcd60e51b815260040161092990614a29565b61025880546001600160a01b039095166001600160a01b03199095169490941790935561025a80546102599390935561ffff909316600160401b0269ffffffffffffffffffff199092166001600160401b0390911617179055565b600082600001828154811061346b5761346b61456a565b9060005260206000200154905092915050565b816001600160a01b0316836001600160a01b031614156134e05760405162461bcd60e51b815260206004820152601960248201527f4552433732313a20617070726f766520746f2063616c6c6572000000000000006044820152606401610929565b6001600160a01b038381166000818152609b6020908152604080832094871680845294825291829020805460ff191686151590811790915591519182527f17307eab39ab6107e8899845ad3d59bd9653f200f220920489ca2b5937696c31910160405180910390a3505050565b60006001600160a01b0384163b1561364f57604051630a85bd0160e11b81526001600160a01b0385169063150b7a0290613591903390899088908890600401614bbc565b602060405180830381600087803b1580156135ab57600080fd5b505af19250505080156135db575060408051601f3d908101601f191682019092526135d891810190614bef565b60015b613635573d808015613609576040519150601f19603f3d011682016040523d82523d6000602084013e61360e565b606091505b50805161362d5760405162461bcd60e51b815260040161092990614ae1565b805181602001fd5b6001600160e01b031916630a85bd0160e11b1490506123db565b506001949350505050565b6000818152600183016020526040812054801561374357600061367e600183614a12565b855490915060009061369290600190614a12565b90508181146136f75760008660000182815481106136b2576136b261456a565b90600052602060002001549050808760000184815481106136d5576136d561456a565b6000918252602080832090910192909255918252600188019052604090208390555b855486908061370857613708614c0c565b600190038181906000526020600020016000905590558560010160008681526020019081526020016000206000905560019350505050610840565b6000915050610840565b60006001600160e01b03198216637965db0b60e01b1480610840575061084082613aa8565b60606000613781836002614617565b61378c9060026145ff565b6001600160401b038111156137a3576137a3613fed565b6040519080825280601f01601f1916602001820160405280156137cd576020820181803683370190505b509050600360fc1b816000815181106137e8576137e861456a565b60200101906001600160f81b031916908160001a905350600f60fb1b816001815181106138175761381761456a565b60200101906001600160f81b031916908160001a905350600061383b846002614617565b6138469060016145ff565b90505b60018111156138be576f181899199a1a9b1b9c1cb0b131b232b360811b85600f166010811061387a5761387a61456a565b1a60f81b8282815181106138905761389061456a565b60200101906001600160f81b031916908160001a90535060049490941c936138b781614c22565b9050613849565b5083156115625760405162461bcd60e51b815260206004820181905260248201527f537472696e67733a20686578206c656e67746820696e73756666696369656e746044820152606401610929565b61093c838383613ab3565b6001600160a01b03821661396e5760405162461bcd60e51b815260206004820181905260248201527f4552433732313a206d696e7420746f20746865207a65726f20616464726573736044820152606401610929565b61397781612cc2565b156139c45760405162461bcd60e51b815260206004820152601c60248201527f4552433732313a20746f6b656e20616c7265616479206d696e746564000000006044820152606401610929565b6139d0600083836130f7565b6001600160a01b03821660009081526099602052604081208054600192906139f99084906145ff565b909155505060008181526098602052604080822080546001600160a01b0319166001600160a01b03861690811790915590518392907fddf252ad1be2c89b69c2b068fc378daa952ba7f163c4a11628f55a4df523b3ef908290a45050565b600054610100900460ff16613a7e5760405162461bcd60e51b815260040161092990614a29565b600080546001600160a01b03909216620100000262010000600160b01b0319909216919091179055565b600061084082613abe565b61093c838383613ae3565b60006001600160e01b0319821663780e9d6360e01b1480610840575061084082613b9b565b6001600160a01b038316613b3e57613b398160ca8054600083815260cb60205260408120829055600182018355919091527f42d72674974f694b5f5159593243114d38a5c39c89d6b62fee061ff523240ee10155565b613b61565b816001600160a01b0316836001600160a01b031614613b6157613b618382613beb565b6001600160a01b038216613b785761093c81613c88565b826001600160a01b0316826001600160a01b03161461093c5761093c8282613d37565b60006001600160e01b031982166380ac58cd60e01b1480613bcc57506001600160e01b03198216635b5e139f60e01b145b8061084057506301ffc9a760e01b6001600160e01b0319831614610840565b60006001613bf884610fbd565b613c029190614a12565b600083815260c96020526040902054909150808214613c55576001600160a01b038416600090815260c860209081526040808320858452825280832054848452818420819055835260c990915290208190555b50600091825260c9602090815260408084208490556001600160a01b03909416835260c881528383209183525290812055565b60ca54600090613c9a90600190614a12565b600083815260cb602052604081205460ca8054939450909284908110613cc257613cc261456a565b906000526020600020015490508060ca8381548110613ce357613ce361456a565b600091825260208083209091019290925582815260cb909152604080822084905585825281205560ca805480613d1b57613d1b614c0c565b6001900381819060005260206000200160009055905550505050565b6000613d4283610fbd565b6001600160a01b03909316600090815260c860209081526040808320868452825280832085905593825260c99052919091209190915550565b828054613d8790614508565b90600052602060002090601f016020900481019282613da95760008555613def565b82601f10613dc257805160ff1916838001178555613def565b82800160010185558215613def579182015b82811115613def578251825591602001919060010190613dd4565b50613dfb929150613e57565b5090565b5080546000825590600052602060002090810190610c159190613e57565b828054828255906000526020600020908101928215613def5791602002820182811115613def578251825591602001919060010190613dd4565b5b80821115613dfb5760008155600101613e58565b6001600160e01b031981168114610c1557600080fd5b600060208284031215613e9457600080fd5b813561156281613e6c565b60005b83811015613eba578181015183820152602001613ea2565b83811115610cf95750506000910152565b60008151808452613ee3816020860160208601613e9f565b601f01601f19169290920160200192915050565b6020815260006115626020830184613ecb565b600060208284031215613f1c57600080fd5b5035919050565b80356001600160a01b0381168114613f3a57600080fd5b919050565b60008060408385031215613f5257600080fd5b613f5b83613f23565b946020939093013593505050565b600060208284031215613f7b57600080fd5b61156282613f23565b600081518084526020808501945080840160005b83811015613fb457815187529582019590820190600101613f98565b509495945050505050565b604081526000613fd26040830185613f84565b8281036020840152613fe48185613f84565b95945050505050565b634e487b7160e01b600052604160045260246000fd5b604051601f8201601f191681016001600160401b038111828210171561402b5761402b613fed565b604052919050565b600082601f83011261404457600080fd5b813560206001600160401b0382111561405f5761405f613fed565b8160051b61406e828201614003565b928352848101820192828101908785111561408857600080fd5b83870192505b848310156140a75782358252918301919083019061408e565b979650505050505050565b6000602082840312156140c457600080fd5b81356001600160401b038111156140da57600080fd5b6123db84828501614033565b6020815260006115626020830184613f84565b6000806040838503121561410c57600080fd5b8235915060208301356001600160401b0381111561412957600080fd5b61413585828601614033565b9150509250929050565b60008060006060848603121561415457600080fd5b61415d84613f23565b925061416b60208501613f23565b9150604084013590509250925092565b6000806040838503121561418e57600080fd5b8235915061419e60208401613f23565b90509250929050565b600080604083850312156141ba57600080fd5b6141c383613f23565b915060208301356001600160401b0381111561412957600080fd5b60006001600160401b038311156141f7576141f7613fed565b61420a601f8401601f1916602001614003565b905082815283838301111561421e57600080fd5b828260208301376000602084830101529392505050565b60006020828403121561424757600080fd5b81356001600160401b0381111561425d57600080fd5b8201601f8101841361426e57600080fd5b6123db848235602084016141de565b6000602080830181845280855180835260408601915060408160051b870101925083870160005b828110156142d257603f198886030184526142c0858351613ecb565b945092850192908501906001016142a4565b5092979650505050505050565b6020815260008251606060208401526142fb6080840182613f84565b9050602084015160408401526040840151601f19848303016060850152613fe48282613f84565b6000806040838503121561433557600080fd5b50508035926020909101359150565b8015158114610c1557600080fd5b6000806040838503121561436557600080fd5b61436e83613f23565b9150602083013561437e81614344565b809150509250929050565b60408152600061439c6040830185613f84565b905082151560208301529392505050565b600080600080608085870312156143c357600080fd5b6143cc85613f23565b93506143da60208601613f23565b92506040850135915060608501356001600160401b038111156143fc57600080fd5b8501601f8101871361440d57600080fd5b61441c878235602084016141de565b91505092959194509250565b6000806040838503121561443b57600080fd5b82356001600160401b038082111561445257600080fd5b61445e86838701614033565b9350602085013591508082111561447457600080fd5b5061413585828601614033565b6000806040838503121561449457600080fd5b61449d83613f23565b915061419e60208401613f23565b6000806000606084860312156144c057600080fd5b6144c984613f23565b92506144d760208501613f23565b915060408401356001600160401b038111156144f257600080fd5b6144fe86828701614033565b9150509250925092565b600181811c9082168061451c57607f821691505b6020821081141561148257634e487b7160e01b600052602260045260246000fd5b602080825260139082015272426c61636b6c6973746564206164647265737360681b604082015260600190565b634e487b7160e01b600052603260045260246000fd5b634e487b7160e01b600052601160045260246000fd5b60006000198214156145aa576145aa614580565b5060010190565b6020808252602e908201527f4552433732313a2063616c6c6572206973206e6f7420746f6b656e206f776e6560408201526d1c881b9bdc88185c1c1c9bdd995960921b606082015260800190565b6000821982111561461257614612614580565b500190565b600081600019048311821515161561463157614631614580565b500290565b60006020828403121561464857600080fd5b815161156281614344565b634e487b7160e01b600052601260045260246000fd5b60008261467857614678614653565b500690565b6000815161468f818560208601613e9f565b9290920192915050565b600082516146ab818460208701613e9f565b602560f81b920191825250600101919050565b600080845481600182811c9150808316806146da57607f831692505b60208084108214156146fa57634e487b7160e01b86526022600452602486fd5b81801561470e576001811461471f5761474c565b60ff1986168952848901965061474c565b60008b81526020902060005b868110156147445781548b82015290850190830161472b565b505084890196505b505050505050613fe4818561467d565b7f226e616d65223a2022436f736d696320456c76657320446973636f756e74205481526669636b6574202360c81b6020820152600084516147a4816027850160208901613e9f565b61088b60f21b60279184019182018190527f226465736372697074696f6e223a20223720646179207265736572766520646960298301527f73636f756e74207469636b65742076616c696420666f72203120436f736d696360498301526508115b19888b60d21b6069830152691134b6b0b3b2911d101160b11b606f8301528551614836816079850160208a01613e9f565b6079920191820152711130b734b6b0ba34b7b72fbab936111d101160711b607b820152614877614869608d83018661467d565b61088b60f21b815260020190565b9695505050505050565b6e2261747472696275746573223a205b60881b81526000607b60f81b80600f8401527f2274726169745f74797065223a2022646973636f756e74222c00000000000000601084015269113b30b63ab2911d101160b11b80602985015285516148f0816033870160208a01613e9f565b601160f91b603391860191820152611f4b60f21b6034820152603681019290925274089d1c985a5d17dd1e5c19488e88089bd9191cc88b605a1b6037830152604c820181905284519161494a836056830160208901613e9f565b6140a7614973614966605686850101601160f91b815260010190565b607d60f81b815260010190565b605d60f81b815260010190565b607b60f81b81526000835161499c816001850160208801613e9f565b8351908301906149b3816001840160208801613e9f565b607d60f81b60019290910191820152600201949350505050565b7f646174613a6170706c69636174696f6e2f6a736f6e3b6261736536342c000000815260008251614a0581601d850160208701613e9f565b91909101601d0192915050565b600082821015614a2457614a24614580565b500390565b6020808252602b908201527f496e697469616c697a61626c653a20636f6e7472616374206973206e6f74206960408201526a6e697469616c697a696e6760a81b606082015260800190565b600063ffffffff80831681851681830481118215151615614a9757614a97614580565b02949350505050565b600063ffffffff808316818516808303821115614abf57614abf614580565b01949350505050565b600060208284031215614ada57600080fd5b5051919050565b60208082526032908201527f4552433732313a207472616e7366657220746f206e6f6e20455243373231526560408201527131b2b4bb32b91034b6b83632b6b2b73a32b960711b606082015260800190565b600082614b4257614b42614653565b500490565b7f416363657373436f6e74726f6c3a206163636f756e7420000000000000000000815260008351614b7f816017850160208801613e9f565b7001034b99036b4b9b9b4b733903937b6329607d1b6017918401918201528351614bb0816028840160208801613e9f565b01602801949350505050565b6001600160a01b038581168252841660208201526040810183905260806060820181905260009061487790830184613ecb565b600060208284031215614c0157600080fd5b815161156281613e6c565b634e487b7160e01b600052603160045260246000fd5b600081614c3157614c31614580565b50600019019056fe68747470733a2f2f696d616765732e636f736d6963756e6976657273652e6f6e652f656c7665732d7469636b6574732f4142434445464748494a4b4c4d4e4f505152535455565758595a6162636465666768696a6b6c6d6e6f707172737475767778797a303132333435363738392b2f9f2df0fed2c77648de5860a4cc508cd0818c85b8b8a1ab4ceeef8d981c8956a6a49807205ce4d355092ef5a8a18f56e8913cf4a201fbe287825b095693c21775a26469706673582212208f9d5cdb11990457a82d567eaa44f4fff4e5127d9e87a844e6deb26dec7604e864736f6c63430008090033",
  "linkReferences": {},
  "deployedLinkReferences": {}
}