{
  "_format": "hh-sol-artifact-1",
  "contractName": "CosmicElvesTicketUpgradeable",
  "sourceName": "contracts/upgradeable/ERC721/CosmicElvesTicketUpgradeable.sol",
  "abi": [
    {
      "inputs": [],
      "stateMutability": "nonpayable",
      "type": "constructor"
    },
    {
      "anonymous": false,
      "inputs": [
        {
          "indexed": true,
          "internalType": "address",
          "name": "owner",
          "type": "address"
        },
        {
          "indexed": true,
          "internalType": "address",
          "name": "approved",
          "type": "address"
        },
        {
          "indexed": true,
          "internalType": "uint256",
          "name": "tokenId",
          "type": "uint256"
        }
      ],
      "name": "Approval",
      "type": "event"
    },
    {
      "anonymous": false,
      "inputs": [
        {
          "indexed": true,
          "internalType": "address",
          "name": "owner",
          "type": "address"
        },
        {
          "indexed": true,
          "internalType": "address",
          "name": "operator",
          "type": "address"
        },
        {
          "indexed": false,
          "internalType": "bool",
          "name": "approved",
          "type": "bool"
        }
      ],
      "name": "ApprovalForAll",
      "type": "event"
    },
    {
      "anonymous": false,
      "inputs": [
        {
          "indexed": false,
          "internalType": "uint8",
          "name": "version",
          "type": "uint8"
        }
      ],
      "name": "Initialized",
      "type": "event"
    },
    {
      "anonymous": false,
      "inputs": [
        {
          "indexed": false,
          "internalType": "address",
          "name": "account",
          "type": "address"
        }
      ],
      "name": "Paused",
      "type": "event"
    },
    {
      "anonymous": false,
      "inputs": [
        {
          "indexed": true,
          "internalType": "bytes32",
          "name": "role",
          "type": "bytes32"
        },
        {
          "indexed": true,
          "internalType": "bytes32",
          "name": "previousAdminRole",
          "type": "bytes32"
        },
        {
          "indexed": true,
          "internalType": "bytes32",
          "name": "newAdminRole",
          "type": "bytes32"
        }
      ],
      "name": "RoleAdminChanged",
      "type": "event"
    },
    {
      "anonymous": false,
      "inputs": [
        {
          "indexed": true,
          "internalType": "bytes32",
          "name": "role",
          "type": "bytes32"
        },
        {
          "indexed": true,
          "internalType": "address",
          "name": "account",
          "type": "address"
        },
        {
          "indexed": true,
          "internalType": "address",
          "name": "sender",
          "type": "address"
        }
      ],
      "name": "RoleGranted",
      "type": "event"
    },
    {
      "anonymous": false,
      "inputs": [
        {
          "indexed": true,
          "internalType": "bytes32",
          "name": "role",
          "type": "bytes32"
        },
        {
          "indexed": true,
          "internalType": "address",
          "name": "account",
          "type": "address"
        },
        {
          "indexed": true,
          "internalType": "address",
          "name": "sender",
          "type": "address"
        }
      ],
      "name": "RoleRevoked",
      "type": "event"
    },
    {
      "anonymous": false,
      "inputs": [
        {
          "indexed": true,
          "internalType": "address",
          "name": "from",
          "type": "address"
        },
        {
          "indexed": true,
          "internalType": "address",
          "name": "to",
          "type": "address"
        },
        {
          "indexed": true,
          "internalType": "uint256",
          "name": "tokenId",
          "type": "uint256"
        }
      ],
      "name": "Transfer",
      "type": "event"
    },
    {
      "anonymous": false,
      "inputs": [
        {
          "indexed": false,
          "internalType": "address",
          "name": "account",
          "type": "address"
        }
      ],
      "name": "Unpaused",
      "type": "event"
    },
    {
      "inputs": [],
      "name": "DEFAULT_ADMIN_ROLE",
      "outputs": [
        {
          "internalType": "bytes32",
          "name": "",
          "type": "bytes32"
        }
      ],
      "stateMutability": "view",
      "type": "function"
    },
    {
      "inputs": [],
      "name": "PAUSER_ROLE",
      "outputs": [
        {
          "internalType": "bytes32",
          "name": "",
          "type": "bytes32"
        }
      ],
      "stateMutability": "view",
      "type": "function"
    },
    {
      "inputs": [],
      "name": "UPDATER_ROLE",
      "outputs": [
        {
          "internalType": "bytes32",
          "name": "",
          "type": "bytes32"
        }
      ],
      "stateMutability": "view",
      "type": "function"
    },
    {
      "inputs": [
        {
          "internalType": "address",
          "name": "_address",
          "type": "address"
        }
      ],
      "name": "addBlacklist",
      "outputs": [],
      "stateMutability": "nonpayable",
      "type": "function"
    },
    {
      "inputs": [
        {
          "internalType": "address",
          "name": "to",
          "type": "address"
        },
        {
          "internalType": "uint256",
          "name": "tokenId",
          "type": "uint256"
        }
      ],
      "name": "approve",
      "outputs": [],
      "stateMutability": "nonpayable",
      "type": "function"
    },
    {
      "inputs": [
        {
          "internalType": "address",
          "name": "owner",
          "type": "address"
        }
      ],
      "name": "balanceOf",
      "outputs": [
        {
          "internalType": "uint256",
          "name": "",
          "type": "uint256"
        }
      ],
      "stateMutability": "view",
      "type": "function"
    },
    {
      "inputs": [
        {
          "internalType": "uint256[]",
          "name": "tokenIds",
          "type": "uint256[]"
        }
      ],
      "name": "batchDiscountOf",
      "outputs": [
        {
          "internalType": "uint256[]",
          "name": "",
          "type": "uint256[]"
        }
      ],
      "stateMutability": "view",
      "type": "function"
    },
    {
      "inputs": [
        {
          "internalType": "address",
          "name": "to",
          "type": "address"
        },
        {
          "internalType": "uint256",
          "name": "amount",
          "type": "uint256"
        }
      ],
      "name": "batchMint",
      "outputs": [],
      "stateMutability": "nonpayable",
      "type": "function"
    },
    {
      "inputs": [
        {
          "internalType": "uint256",
          "name": "tokenId",
          "type": "uint256"
        }
      ],
      "name": "burn",
      "outputs": [],
      "stateMutability": "nonpayable",
      "type": "function"
    },
    {
      "inputs": [],
      "name": "cap",
      "outputs": [
        {
          "internalType": "uint256",
          "name": "",
          "type": "uint256"
        }
      ],
      "stateMutability": "view",
      "type": "function"
    },
    {
      "inputs": [
        {
          "internalType": "uint256",
          "name": "tokenId",
          "type": "uint256"
        }
      ],
      "name": "discountOf",
      "outputs": [
        {
          "internalType": "uint256",
          "name": "discount",
          "type": "uint256"
        }
      ],
      "stateMutability": "view",
      "type": "function"
    },
    {
      "inputs": [
        {
          "internalType": "uint256",
          "name": "tokenId",
          "type": "uint256"
        }
      ],
      "name": "getApproved",
      "outputs": [
        {
          "internalType": "address",
          "name": "",
          "type": "address"
        }
      ],
      "stateMutability": "view",
      "type": "function"
    },
    {
      "inputs": [
        {
          "internalType": "bytes32",
          "name": "role",
          "type": "bytes32"
        }
      ],
      "name": "getRoleAdmin",
      "outputs": [
        {
          "internalType": "bytes32",
          "name": "",
          "type": "bytes32"
        }
      ],
      "stateMutability": "view",
      "type": "function"
    },
    {
      "inputs": [
        {
          "internalType": "bytes32",
          "name": "role",
          "type": "bytes32"
        },
        {
          "internalType": "address",
          "name": "account",
          "type": "address"
        }
      ],
      "name": "grantRole",
      "outputs": [],
      "stateMutability": "nonpayable",
      "type": "function"
    },
    {
      "inputs": [
        {
          "internalType": "bytes32",
          "name": "role",
          "type": "bytes32"
        },
        {
          "internalType": "address",
          "name": "account",
          "type": "address"
        }
      ],
      "name": "hasRole",
      "outputs": [
        {
          "internalType": "bool",
          "name": "",
          "type": "bool"
        }
      ],
      "stateMutability": "view",
      "type": "function"
    },
    {
      "inputs": [],
      "name": "imageBaseURI",
      "outputs": [
        {
          "internalType": "string",
          "name": "",
          "type": "string"
        }
      ],
      "stateMutability": "view",
      "type": "function"
    },
    {
      "inputs": [],
      "name": "initialize",
      "outputs": [],
      "stateMutability": "nonpayable",
      "type": "function"
    },
    {
      "inputs": [
        {
          "internalType": "address",
          "name": "owner",
          "type": "address"
        },
        {
          "internalType": "address",
          "name": "operator",
          "type": "address"
        }
      ],
      "name": "isApprovedForAll",
      "outputs": [
        {
          "internalType": "bool",
          "name": "",
          "type": "bool"
        }
      ],
      "stateMutability": "view",
      "type": "function"
    },
    {
      "inputs": [
        {
          "internalType": "address",
          "name": "to",
          "type": "address"
        }
      ],
      "name": "mint",
      "outputs": [],
      "stateMutability": "nonpayable",
      "type": "function"
    },
    {
      "inputs": [],
      "name": "name",
      "outputs": [
        {
          "internalType": "string",
          "name": "",
          "type": "string"
        }
      ],
      "stateMutability": "view",
      "type": "function"
    },
    {
      "inputs": [
        {
          "internalType": "uint256",
          "name": "tokenId",
          "type": "uint256"
        }
      ],
      "name": "ownerOf",
      "outputs": [
        {
          "internalType": "address",
          "name": "",
          "type": "address"
        }
      ],
      "stateMutability": "view",
      "type": "function"
    },
    {
      "inputs": [],
      "name": "pause",
      "outputs": [],
      "stateMutability": "nonpayable",
      "type": "function"
    },
    {
      "inputs": [],
      "name": "paused",
      "outputs": [
        {
          "internalType": "bool",
          "name": "",
          "type": "bool"
        }
      ],
      "stateMutability": "view",
      "type": "function"
    },
    {
      "inputs": [],
      "name": "price",
      "outputs": [
        {
          "internalType": "uint256",
          "name": "",
          "type": "uint256"
        }
      ],
      "stateMutability": "view",
      "type": "function"
    },
    {
      "inputs": [
        {
          "internalType": "address",
          "name": "_address",
          "type": "address"
        }
      ],
      "name": "removeBlacklist",
      "outputs": [],
      "stateMutability": "nonpayable",
      "type": "function"
    },
    {
      "inputs": [
        {
          "internalType": "bytes32",
          "name": "role",
          "type": "bytes32"
        },
        {
          "internalType": "address",
          "name": "account",
          "type": "address"
        }
      ],
      "name": "renounceRole",
      "outputs": [],
      "stateMutability": "nonpayable",
      "type": "function"
    },
    {
      "inputs": [
        {
          "internalType": "bytes32",
          "name": "role",
          "type": "bytes32"
        },
        {
          "internalType": "address",
          "name": "account",
          "type": "address"
        }
      ],
      "name": "revokeRole",
      "outputs": [],
      "stateMutability": "nonpayable",
      "type": "function"
    },
    {
      "inputs": [
        {
          "internalType": "address",
          "name": "from",
          "type": "address"
        },
        {
          "internalType": "address",
          "name": "to",
          "type": "address"
        },
        {
          "internalType": "uint256",
          "name": "tokenId",
          "type": "uint256"
        }
      ],
      "name": "safeTransferFrom",
      "outputs": [],
      "stateMutability": "nonpayable",
      "type": "function"
    },
    {
      "inputs": [
        {
          "internalType": "address",
          "name": "from",
          "type": "address"
        },
        {
          "internalType": "address",
          "name": "to",
          "type": "address"
        },
        {
          "internalType": "uint256",
          "name": "tokenId",
          "type": "uint256"
        },
        {
          "internalType": "bytes",
          "name": "_data",
          "type": "bytes"
        }
      ],
      "name": "safeTransferFrom",
      "outputs": [],
      "stateMutability": "nonpayable",
      "type": "function"
    },
    {
      "inputs": [
        {
          "internalType": "address",
          "name": "operator",
          "type": "address"
        },
        {
          "internalType": "bool",
          "name": "approved",
          "type": "bool"
        }
      ],
      "name": "setApprovalForAll",
      "outputs": [],
      "stateMutability": "nonpayable",
      "type": "function"
    },
    {
      "inputs": [
        {
          "internalType": "uint256",
          "name": "_cap",
          "type": "uint256"
        }
      ],
      "name": "setCap",
      "outputs": [],
      "stateMutability": "nonpayable",
      "type": "function"
    },
    {
      "inputs": [
        {
          "internalType": "string",
          "name": "_imageBaseURI",
          "type": "string"
        }
      ],
      "name": "setImageBaseURI",
      "outputs": [],
      "stateMutability": "nonpayable",
      "type": "function"
    },
    {
      "inputs": [
        {
          "internalType": "uint256",
          "name": "time",
          "type": "uint256"
        }
      ],
      "name": "setStartTime",
      "outputs": [],
      "stateMutability": "nonpayable",
      "type": "function"
    },
    {
      "inputs": [
        {
          "internalType": "uint256",
          "name": "_price",
          "type": "uint256"
        }
      ],
      "name": "setTicketPrice",
      "outputs": [],
      "stateMutability": "nonpayable",
      "type": "function"
    },
    {
      "inputs": [],
      "name": "startTime",
      "outputs": [
        {
          "internalType": "uint256",
          "name": "",
          "type": "uint256"
        }
      ],
      "stateMutability": "view",
      "type": "function"
    },
    {
      "inputs": [
        {
          "internalType": "bytes4",
          "name": "interfaceId",
          "type": "bytes4"
        }
      ],
      "name": "supportsInterface",
      "outputs": [
        {
          "internalType": "bool",
          "name": "",
          "type": "bool"
        }
      ],
      "stateMutability": "view",
      "type": "function"
    },
    {
      "inputs": [],
      "name": "symbol",
      "outputs": [
        {
          "internalType": "string",
          "name": "",
          "type": "string"
        }
      ],
      "stateMutability": "view",
      "type": "function"
    },
    {
      "inputs": [
        {
          "internalType": "uint256",
          "name": "index",
          "type": "uint256"
        }
      ],
      "name": "tokenByIndex",
      "outputs": [
        {
          "internalType": "uint256",
          "name": "",
          "type": "uint256"
        }
      ],
      "stateMutability": "view",
      "type": "function"
    },
    {
      "inputs": [
        {
          "internalType": "address",
          "name": "owner",
          "type": "address"
        },
        {
          "internalType": "uint256",
          "name": "index",
          "type": "uint256"
        }
      ],
      "name": "tokenOfOwnerByIndex",
      "outputs": [
        {
          "internalType": "uint256",
          "name": "",
          "type": "uint256"
        }
      ],
      "stateMutability": "view",
      "type": "function"
    },
    {
      "inputs": [
        {
          "internalType": "uint256",
          "name": "tokenId",
          "type": "uint256"
        }
      ],
      "name": "tokenURI",
      "outputs": [
        {
          "internalType": "string",
          "name": "",
          "type": "string"
        }
      ],
      "stateMutability": "view",
      "type": "function"
    },
    {
      "inputs": [
        {
          "internalType": "address",
          "name": "_address",
          "type": "address"
        }
      ],
      "name": "tokensAndDiscountsOfOwner",
      "outputs": [
        {
          "internalType": "uint256[]",
          "name": "tokens",
          "type": "uint256[]"
        },
        {
          "internalType": "uint256[]",
          "name": "discounts",
          "type": "uint256[]"
        }
      ],
      "stateMutability": "view",
      "type": "function"
    },
    {
      "inputs": [
        {
          "internalType": "address",
          "name": "_address",
          "type": "address"
        }
      ],
      "name": "tokensOfOwner",
      "outputs": [
        {
          "internalType": "uint256[]",
          "name": "",
          "type": "uint256[]"
        }
      ],
      "stateMutability": "view",
      "type": "function"
    },
    {
      "inputs": [],
      "name": "totalSupply",
      "outputs": [
        {
          "internalType": "uint256",
          "name": "",
          "type": "uint256"
        }
      ],
      "stateMutability": "view",
      "type": "function"
    },
    {
      "inputs": [
        {
          "internalType": "address",
          "name": "from",
          "type": "address"
        },
        {
          "internalType": "address",
          "name": "to",
          "type": "address"
        },
        {
          "internalType": "uint256",
          "name": "tokenId",
          "type": "uint256"
        }
      ],
      "name": "transferFrom",
      "outputs": [],
      "stateMutability": "nonpayable",
      "type": "function"
    },
    {
      "inputs": [],
      "name": "treasuryAddress",
      "outputs": [
        {
          "internalType": "address",
          "name": "",
          "type": "address"
        }
      ],
      "stateMutability": "view",
      "type": "function"
    },
    {
      "inputs": [],
      "name": "unpause",
      "outputs": [],
      "stateMutability": "nonpayable",
      "type": "function"
    },
    {
      "inputs": [],
      "name": "usdc",
      "outputs": [
        {
          "internalType": "contract IERC20Upgradeable",
          "name": "",
          "type": "address"
        }
      ],
      "stateMutability": "view",
      "type": "function"
    }
  ],
  "bytecode": "0x608060405234801561001057600080fd5b50613ad5806100206000396000f3fe608060405234801561001057600080fd5b50600436106102955760003560e01c80634f6ccce71161016757806395d89b41116100ce578063c5f956af11610087578063c5f956af1461059e578063c87b56dd146105b2578063d547741f146105c5578063e63ab1e9146105d8578063e985e9c5146105ed578063eb91e6511461062957600080fd5b806395d89b411461054b5780639cfe42da14610553578063a035b1fe14610566578063a217fddf14610570578063a22cb46514610578578063b88d4fde1461058b57600080fd5b80637764583911610120578063776458391461050357806378e979251461050b5780638129fc1c146105155780638456cb591461051d5780638462151c1461052557806391d148541461053857600080fd5b80634f6ccce7146104995780635c975abb146104ac5780636352211e146104b75780636a627842146104ca5780636cfa24cc146104dd57806370a08231146104f057600080fd5b80632f745c591161020b57806342842e0e116101c457806342842e0e1461042557806342966c681461043857806343508b051461044b57806347786d371461045e57806347e633801461047157806349299d6e1461048657600080fd5b80632f745c59146103c6578063355274ea146103d957806336568abe146103e35780633e0a322d146103f65780633e413bee146104095780633f4ba83a1461041d57600080fd5b8063159816501161025d578063159816501461033857806318160ddd1461034b5780631e9d71011461035d57806323b872dd1461037d578063248a9ca3146103905780632f2ff15d146103b357600080fd5b806301ffc9a71461029a57806306fdde03146102c2578063081812fc146102d7578063095ea7b314610302578063131b71b014610317575b600080fd5b6102ad6102a8366004612f5f565b61063c565b60405190151581526020015b60405180910390f35b6102ca61064d565b6040516102b99190612fd4565b6102ea6102e5366004612fe7565b6106df565b6040516001600160a01b0390911681526020016102b9565b610315610310366004613017565b610779565b005b61032a610325366004613041565b6107b2565b6040516102b9929190613097565b610315610346366004612fe7565b6107d9565b6099545b6040519081526020016102b9565b61037061036b36600461310c565b6107f8565b6040516102b991906131b2565b61031561038b3660046131c5565b6108a6565b61034f61039e366004612fe7565b600090815260fb602052604090206001015490565b6103156103c1366004613201565b6108d8565b61034f6103d4366004613017565b6108fd565b61034f61016c5481565b6103156103f1366004613201565b610993565b610315610404366004612fe7565b610a11565b610168546102ea906001600160a01b031681565b610315610a30565b6103156104333660046131c5565b610a53565b610315610446366004612fe7565b610a6e565b610315610459366004613017565b610ae5565b61031561046c366004612fe7565b610d7e565b61034f600080516020613a2083398151915281565b61034f610494366004612fe7565b610d9d565b61034f6104a7366004612fe7565b610e79565b60c95460ff166102ad565b6102ea6104c5366004612fe7565b610f0c565b6103156104d8366004613041565b610f83565b6103156104eb366004613285565b611210565b61034f6104fe366004613041565b61123c565b6102ca6112c3565b61034f61016b5481565b610315611352565b61031561150c565b610370610533366004613041565b61152c565b6102ad610546366004613201565b6115ce565b6102ca6115f9565b610315610561366004613041565b611608565b61034f61016a5481565b61034f600081565b6103156105863660046132dc565b61162c565b610315610599366004613313565b611660565b610169546102ea906001600160a01b031681565b6102ca6105c0366004612fe7565b611692565b6103156105d3366004613201565b611760565b61034f600080516020613a8083398151915281565b6102ad6105fb36600461338f565b6001600160a01b039182166000908152606a6020908152604080832093909416825291909152205460ff1690565b610315610637366004613041565b611785565b6000610647826117a9565b92915050565b60606065805461065c906133b9565b80601f0160208091040260200160405190810160405280929190818152602001828054610688906133b9565b80156106d55780601f106106aa576101008083540402835291602001916106d5565b820191906000526020600020905b8154815290600101906020018083116106b857829003601f168201915b5050505050905090565b6000818152606760205260408120546001600160a01b031661075d5760405162461bcd60e51b815260206004820152602c60248201527f4552433732313a20617070726f76656420717565727920666f72206e6f6e657860448201526b34b9ba32b73a103a37b5b2b760a11b60648201526084015b60405180910390fd5b506000908152606960205260409020546001600160a01b031690565b8161078661016e826117ce565b156107a35760405162461bcd60e51b8152600401610754906133f4565b6107ad83836117f3565b505050565b60608060006107c08461152c565b905060006107cd826107f8565b91959194509092505050565b600080516020613a208339815191526107f181611904565b5061016a55565b60606000825167ffffffffffffffff811115610816576108166130c5565b60405190808252806020026020018201604052801561083f578160200160208202803683370190505b50905060005b835181101561089f5761087084828151811061086357610863613421565b6020026020010151610d9d565b82828151811061088257610882613421565b6020908102919091010152806108978161344d565b915050610845565b5092915050565b6108b1335b8261190e565b6108cd5760405162461bcd60e51b815260040161075490613468565b6107ad838383611a05565b600082815260fb60205260409020600101546108f381611904565b6107ad8383611bac565b60006109088361123c565b821061096a5760405162461bcd60e51b815260206004820152602b60248201527f455243373231456e756d657261626c653a206f776e657220696e646578206f7560448201526a74206f6620626f756e647360a81b6064820152608401610754565b506001600160a01b03919091166000908152609760209081526040808320938352929052205490565b6001600160a01b0381163314610a035760405162461bcd60e51b815260206004820152602f60248201527f416363657373436f6e74726f6c3a2063616e206f6e6c792072656e6f756e636560448201526e103937b632b9903337b91039b2b63360891b6064820152608401610754565b610a0d8282611c32565b5050565b600080516020613a20833981519152610a2981611904565b5061016b55565b600080516020613a80833981519152610a4881611904565b610a50611c99565b50565b6107ad83838360405180602001604052806000815250611660565b610a77336108ab565b610adc5760405162461bcd60e51b815260206004820152603060248201527f4552433732314275726e61626c653a2063616c6c6572206973206e6f74206f7760448201526f1b995c881b9bdc88185c1c1c9bdd995960821b6064820152608401610754565b610a5081611d2c565b60008161016a54610af691906134b9565b6101685490915081906001600160a01b031663dd62ed3e336040516001600160e01b031960e084901b1681526001600160a01b03909116600482015230602482015260440160206040518083038186803b158015610b5357600080fd5b505afa158015610b67573d6000803e3d6000fd5b505050506040513d601f19601f82011682018060405250810190610b8b91906134d8565b1015610bd95760405162461bcd60e51b815260206004820152601c60248201527f496e73756666696369656e7420315553444320616c6c6f77616e6365000000006044820152606401610754565b6101685481906001600160a01b03166370a08231336040516001600160e01b031960e084901b1681526001600160a01b03909116600482015260240160206040518083038186803b158015610c2d57600080fd5b505afa158015610c41573d6000803e3d6000fd5b505050506040513d601f19601f82011682018060405250810190610c6591906134d8565b1015610cb35760405162461bcd60e51b815260206004820152601a60248201527f496e73756666696369656e742031555344432062616c616e63650000000000006044820152606401610754565b610168546001600160a01b03166323b872dd336101695460405160e084901b6001600160e01b03191681526001600160a01b0392831660048201529116602482015260448101849052606401602060405180830381600087803b158015610d1957600080fd5b505af1158015610d2d573d6000803e3d6000fd5b505050506040513d601f19601f82011682018060405250810190610d5191906134f1565b5060005b82811015610d7857610d6684611dd3565b80610d708161344d565b915050610d55565b50505050565b600080516020613a20833981519152610d9681611904565b5061016c55565b6000818152606760205260408120546001600160a01b0316610e0d5760405162461bcd60e51b8152602060048201526024808201527f446973636f756e7420717565727920666f72206e6f6e6578697374656e74207460448201526337b5b2b760e11b6064820152608401610754565b610e1961016083611e93565b15610e2657506005919050565b610e3261016283611e93565b15610e3f5750600a919050565b610e4b61016483611e93565b15610e585750600f919050565b610e6461016683611e93565b15610e7157506014919050565b506000919050565b6000610e8460995490565b8210610ee75760405162461bcd60e51b815260206004820152602c60248201527f455243373231456e756d657261626c653a20676c6f62616c20696e646578206f60448201526b7574206f6620626f756e647360a01b6064820152608401610754565b60998281548110610efa57610efa613421565b90600052602060002001549050919050565b6000818152606760205260408120546001600160a01b0316806106475760405162461bcd60e51b815260206004820152602960248201527f4552433732313a206f776e657220717565727920666f72206e6f6e657869737460448201526832b73a103a37b5b2b760b91b6064820152608401610754565b60c95460ff1615610fa65760405162461bcd60e51b81526004016107549061350e565b61016a54610168546001600160a01b031663dd62ed3e336040516001600160e01b031960e084901b1681526001600160a01b03909116600482015230602482015260440160206040518083038186803b15801561100257600080fd5b505afa158015611016573d6000803e3d6000fd5b505050506040513d601f19601f8201168201806040525081019061103a91906134d8565b10156110885760405162461bcd60e51b815260206004820152601c60248201527f496e73756666696369656e7420315553444320616c6c6f77616e6365000000006044820152606401610754565b61016a54610168546001600160a01b03166370a08231336040516001600160e01b031960e084901b1681526001600160a01b03909116600482015260240160206040518083038186803b1580156110de57600080fd5b505afa1580156110f2573d6000803e3d6000fd5b505050506040513d601f19601f8201168201806040525081019061111691906134d8565b10156111645760405162461bcd60e51b815260206004820152601a60248201527f496e73756666696369656e742031555344432062616c616e63650000000000006044820152606401610754565b610168546001600160a01b03166323b872dd336101695461016a5460405160e085901b6001600160e01b03191681526001600160a01b0393841660048201529290911660248301526044820152606401602060405180830381600087803b1580156111ce57600080fd5b505af11580156111e2573d6000803e3d6000fd5b505050506040513d601f19601f8201168201806040525081019061120691906134f1565b50610a5081611dd3565b600080516020613a2083398151915261122881611904565b81516107ad9061016d906020850190612e92565b60006001600160a01b0382166112a75760405162461bcd60e51b815260206004820152602a60248201527f4552433732313a2062616c616e636520717565727920666f7220746865207a65604482015269726f206164647265737360b01b6064820152608401610754565b506001600160a01b031660009081526068602052604090205490565b61016d80546112d1906133b9565b80601f01602080910402602001604051908101604052809291908181526020018280546112fd906133b9565b801561134a5780601f1061131f5761010080835404028352916020019161134a565b820191906000526020600020905b81548152906001019060200180831161132d57829003601f168201915b505050505081565b600061135e6001611eab565b90508015611376576000805461ff0019166101001790555b6113c26040518060400160405280600b81526020016a115b1d995cd51a58dad95d60aa1b8152506040518060400160405280600781526020016611551250d2d15560ca1b815250611f30565b6113ca611f61565b6113d2611f8a565b6113da611f61565b6113e2611f61565b6113ed600033611bac565b611405600080516020613a8083398151915233611bac565b61141d600080516020613a2083398151915233611bac565b61016880546001600160a01b031990811673985458e523db3d53125813ed68c274899e9dfab41790915561016980549091167362efb2caf1f3ee645ff23b004b6e88a9a929b5631790556362a2cfd061016b556298968061016a5561138861016c55604080516060810190915260308082526139f0602083013980516114ac9161016d91602090910190612e92565b5061015f546114c4576114c461015f80546001019055565b8015610a50576000805461ff0019169055604051600181527f7f26b83ff96e1f2b6a682f133852f6798a09c465da95921460cefb38474024989060200160405180910390a150565b600080516020613a8083398151915261152481611904565b610a50611fb9565b606060006115398361123c565b905060008167ffffffffffffffff811115611556576115566130c5565b60405190808252806020026020018201604052801561157f578160200160208202803683370190505b50905060005b828110156115c65761159785826108fd565b8282815181106115a9576115a9613421565b6020908102919091010152806115be8161344d565b915050611585565b509392505050565b600091825260fb602090815260408084206001600160a01b0393909316845291905290205460ff1690565b60606066805461065c906133b9565b600080516020613a2083398151915261162081611904565b6107ad61016e83612011565b8161163961016e826117ce565b156116565760405162461bcd60e51b8152600401610754906133f4565b6107ad8383612026565b61166a338361190e565b6116865760405162461bcd60e51b815260040161075490613468565b610d7884848484612031565b6060600061169f83610d9d565b905060006116ac82612064565b6040516020016116bc9190613554565b6040516020818303038152906040529050600061016d6116db84612064565b6040516020016116ec929190613579565b6040516020818303038152906040529050600061170886612064565b828460405160200161171c93929190613617565b604051602081830303815290604052905061173681612162565b6040516020016117469190613756565b604051602081830303815290604052945050505050919050565b600082815260fb602052604090206001015461177b81611904565b6107ad8383611c32565b600080516020613a2083398151915261179d81611904565b6107ad61016e836122b6565b60006001600160e01b03198216637965db0b60e01b14806106475750610647826122cb565b6001600160a01b038116600090815260018301602052604081205415155b9392505050565b60006117fe82610f0c565b9050806001600160a01b0316836001600160a01b0316141561186c5760405162461bcd60e51b815260206004820152602160248201527f4552433732313a20617070726f76616c20746f2063757272656e74206f776e656044820152603960f91b6064820152608401610754565b336001600160a01b0382161480611888575061188881336105fb565b6118fa5760405162461bcd60e51b815260206004820152603860248201527f4552433732313a20617070726f76652063616c6c6572206973206e6f74206f7760448201527f6e6572206e6f7220617070726f76656420666f7220616c6c00000000000000006064820152608401610754565b6107ad83836122f0565b610a50813361235e565b6000818152606760205260408120546001600160a01b03166119875760405162461bcd60e51b815260206004820152602c60248201527f4552433732313a206f70657261746f7220717565727920666f72206e6f6e657860448201526b34b9ba32b73a103a37b5b2b760a11b6064820152608401610754565b600061199283610f0c565b9050806001600160a01b0316846001600160a01b031614806119d957506001600160a01b038082166000908152606a602090815260408083209388168352929052205460ff165b806119fd5750836001600160a01b03166119f2846106df565b6001600160a01b0316145b949350505050565b826001600160a01b0316611a1882610f0c565b6001600160a01b031614611a7c5760405162461bcd60e51b815260206004820152602560248201527f4552433732313a207472616e736665722066726f6d20696e636f72726563742060448201526437bbb732b960d91b6064820152608401610754565b6001600160a01b038216611ade5760405162461bcd60e51b8152602060048201526024808201527f4552433732313a207472616e7366657220746f20746865207a65726f206164646044820152637265737360e01b6064820152608401610754565b611ae98383836123c2565b611af46000826122f0565b6001600160a01b0383166000908152606860205260408120805460019290611b1d90849061379b565b90915550506001600160a01b0382166000908152606860205260408120805460019290611b4b9084906137b2565b909155505060008181526067602052604080822080546001600160a01b0319166001600160a01b0386811691821790925591518493918716917fddf252ad1be2c89b69c2b068fc378daa952ba7f163c4a11628f55a4df523b3ef91a4505050565b611bb682826115ce565b610a0d57600082815260fb602090815260408083206001600160a01b03851684529091529020805460ff19166001179055611bee3390565b6001600160a01b0316816001600160a01b0316837f2f8788117e7eff1d82e926ec794901d17c78024a50270940304540a733656f0d60405160405180910390a45050565b611c3c82826115ce565b15610a0d57600082815260fb602090815260408083206001600160a01b0385168085529252808320805460ff1916905551339285917ff6391f5c32d9c69d2a47ea670b442974b53935d1edc7fd64eb21e047a839171b9190a45050565b60c95460ff16611ce25760405162461bcd60e51b815260206004820152601460248201527314185d5cd8589b194e881b9bdd081c185d5cd95960621b6044820152606401610754565b60c9805460ff191690557f5db9ee0a495bf2e6ff9c91a7834c1ba4fdd244a5e8aa4e537bd38aeae4b073aa335b6040516001600160a01b03909116815260200160405180910390a1565b6000611d3782610f0c565b9050611d45816000846123c2565b611d506000836122f0565b6001600160a01b0381166000908152606860205260408120805460019290611d7990849061379b565b909155505060008281526067602052604080822080546001600160a01b0319169055518391906001600160a01b038416907fddf252ad1be2c89b69c2b068fc378daa952ba7f163c4a11628f55a4df523b3ef908390a45050565b6000611ddf61015f5490565b90504261016b541115611e345760405162461bcd60e51b815260206004820152601860248201527f4d696e7420686173206e6f7420737461727465642079657400000000000000006044820152606401610754565b61016c548110611e715760405162461bcd60e51b815260206004820152600860248201526714dbdb19081bdd5d60c21b6044820152606401610754565b611e8061015f80546001019055565b611e8a828261244b565b610a0d81612465565b600081815260018301602052604081205415156117ec565b60008054610100900460ff1615611eea578160ff166001148015611ece5750303b155b610e715760405162461bcd60e51b8152600401610754906137ca565b60005460ff808416911610611f115760405162461bcd60e51b8152600401610754906137ca565b506000805460ff191660ff92909216919091179055600190565b919050565b600054610100900460ff16611f575760405162461bcd60e51b815260040161075490613818565b610a0d828261250a565b600054610100900460ff16611f885760405162461bcd60e51b815260040161075490613818565b565b600054610100900460ff16611fb15760405162461bcd60e51b815260040161075490613818565b611f88612558565b60c95460ff1615611fdc5760405162461bcd60e51b81526004016107549061350e565b60c9805460ff191660011790557f62e78cea01bee320cd4e420270b5ea74000d11b0c9f74754ebdbfc544b05a258611d0f3390565b60006117ec836001600160a01b03841661258b565b610a0d3383836125da565b61203c848484611a05565b612048848484846126a9565b610d785760405162461bcd60e51b815260040161075490613863565b6060816120885750506040805180820190915260018152600360fc1b602082015290565b8160005b81156120b2578061209c8161344d565b91506120ab9050600a836138cb565b915061208c565b60008167ffffffffffffffff8111156120cd576120cd6130c5565b6040519080825280601f01601f1916602001820160405280156120f7576020820181803683370190505b5090505b84156119fd5761210c60018361379b565b9150612119600a866138df565b6121249060306137b2565b60f81b81838151811061213957612139613421565b60200101906001600160f81b031916908160001a90535061215b600a866138cb565b94506120fb565b606081516000141561218257505060408051602081019091526000815290565b6000604051806060016040528060408152602001613a4060409139905060006003845160026121b191906137b2565b6121bb91906138cb565b6121c69060046134b9565b67ffffffffffffffff8111156121de576121de6130c5565b6040519080825280601f01601f191660200182016040528015612208576020820181803683370190505b509050600182016020820185865187015b80821015612274576003820191508151603f8160121c168501518453600184019350603f81600c1c168501518453600184019350603f8160061c168501518453600184019350603f8116850151845350600183019250612219565b505060038651066001811461229057600281146122a3576122ab565b603d6001830353603d60028303536122ab565b603d60018303535b509195945050505050565b60006117ec836001600160a01b0384166127b6565b60006001600160e01b0319821663780e9d6360e01b14806106475750610647826128a9565b600081815260696020526040902080546001600160a01b0319166001600160a01b038416908117909155819061232582610f0c565b6001600160a01b03167f8c5be1e5ebec7d5bd14f71427d1e84f3dd0314c0f7b2291e5b200ac8c7c3b92560405160405180910390a45050565b61236882826115ce565b610a0d57612380816001600160a01b031660146128f9565b61238b8360206128f9565b60405160200161239c9291906138f3565b60408051601f198184030181529082905262461bcd60e51b825261075491600401612fd4565b60c95460ff16156123e55760405162461bcd60e51b81526004016107549061350e565b826123f261016e826117ce565b1561240f5760405162461bcd60e51b8152600401610754906133f4565b8261241c61016e826117ce565b156124395760405162461bcd60e51b8152600401610754906133f4565b612444858585612a95565b5050505050565b610a0d828260405180602001604052806000815250612b4d565b600061246f612b80565b604080516020810183905290810184905243606082015242608082015290915060009060a00160408051601f198184030181529190528051602090910120905060006124bd6103e8836138df565b90506103de81106124d45761244461016685612ba8565b6103b681106124e95761244461016485612ba8565b6102ee81106124fe5761244461016285612ba8565b61244461016085612ba8565b600054610100900460ff166125315760405162461bcd60e51b815260040161075490613818565b8151612544906065906020850190612e92565b5080516107ad906066906020840190612e92565b600054610100900460ff1661257f5760405162461bcd60e51b815260040161075490613818565b60c9805460ff19169055565b60008181526001830160205260408120546125d257508154600181810184556000848152602080822090930184905584548482528286019093526040902091909155610647565b506000610647565b816001600160a01b0316836001600160a01b0316141561263c5760405162461bcd60e51b815260206004820152601960248201527f4552433732313a20617070726f766520746f2063616c6c6572000000000000006044820152606401610754565b6001600160a01b038381166000818152606a6020908152604080832094871680845294825291829020805460ff191686151590811790915591519182527f17307eab39ab6107e8899845ad3d59bd9653f200f220920489ca2b5937696c31910160405180910390a3505050565b60006001600160a01b0384163b156127ab57604051630a85bd0160e11b81526001600160a01b0385169063150b7a02906126ed903390899088908890600401613968565b602060405180830381600087803b15801561270757600080fd5b505af1925050508015612737575060408051601f3d908101601f19168201909252612734918101906139a5565b60015b612791573d808015612765576040519150601f19603f3d011682016040523d82523d6000602084013e61276a565b606091505b5080516127895760405162461bcd60e51b815260040161075490613863565b805181602001fd5b6001600160e01b031916630a85bd0160e11b1490506119fd565b506001949350505050565b6000818152600183016020526040812054801561289f5760006127da60018361379b565b85549091506000906127ee9060019061379b565b905081811461285357600086600001828154811061280e5761280e613421565b906000526020600020015490508087600001848154811061283157612831613421565b6000918252602080832090910192909255918252600188019052604090208390555b8554869080612864576128646139c2565b600190038181906000526020600020016000905590558560010160008681526020019081526020016000206000905560019350505050610647565b6000915050610647565b60006001600160e01b031982166380ac58cd60e01b14806128da57506001600160e01b03198216635b5e139f60e01b145b8061064757506301ffc9a760e01b6001600160e01b0319831614610647565b606060006129088360026134b9565b6129139060026137b2565b67ffffffffffffffff81111561292b5761292b6130c5565b6040519080825280601f01601f191660200182016040528015612955576020820181803683370190505b509050600360fc1b8160008151811061297057612970613421565b60200101906001600160f81b031916908160001a905350600f60fb1b8160018151811061299f5761299f613421565b60200101906001600160f81b031916908160001a90535060006129c38460026134b9565b6129ce9060016137b2565b90505b6001811115612a46576f181899199a1a9b1b9c1cb0b131b232b360811b85600f1660108110612a0257612a02613421565b1a60f81b828281518110612a1857612a18613421565b60200101906001600160f81b031916908160001a90535060049490941c93612a3f816139d8565b90506129d1565b5083156117ec5760405162461bcd60e51b815260206004820181905260248201527f537472696e67733a20686578206c656e67746820696e73756666696369656e746044820152606401610754565b6001600160a01b038316612af057612aeb81609980546000838152609a60205260408120829055600182018355919091527f72a152ddfb8e864297c917af52ea6c1c68aead0fee1a62673fcc7e0c94979d000155565b612b13565b816001600160a01b0316836001600160a01b031614612b1357612b138382612bb4565b6001600160a01b038216612b2a576107ad81612c51565b826001600160a01b0316826001600160a01b0316146107ad576107ad8282612d00565b612b578383612d44565b612b6460008484846126a9565b6107ad5760405162461bcd60e51b815260040161075490613863565b6000612b8a612f16565b438152604051602081818460ff600019fa612ba157fe5b5192915050565b60006117ec838361258b565b60006001612bc18461123c565b612bcb919061379b565b600083815260986020526040902054909150808214612c1e576001600160a01b03841660009081526097602090815260408083208584528252808320548484528184208190558352609890915290208190555b5060009182526098602090815260408084208490556001600160a01b039094168352609781528383209183525290812055565b609954600090612c639060019061379b565b6000838152609a602052604081205460998054939450909284908110612c8b57612c8b613421565b906000526020600020015490508060998381548110612cac57612cac613421565b6000918252602080832090910192909255828152609a90915260408082208490558582528120556099805480612ce457612ce46139c2565b6001900381819060005260206000200160009055905550505050565b6000612d0b8361123c565b6001600160a01b039093166000908152609760209081526040808320868452825280832085905593825260989052919091209190915550565b6001600160a01b038216612d9a5760405162461bcd60e51b815260206004820181905260248201527f4552433732313a206d696e7420746f20746865207a65726f20616464726573736044820152606401610754565b6000818152606760205260409020546001600160a01b031615612dff5760405162461bcd60e51b815260206004820152601c60248201527f4552433732313a20746f6b656e20616c7265616479206d696e746564000000006044820152606401610754565b612e0b600083836123c2565b6001600160a01b0382166000908152606860205260408120805460019290612e349084906137b2565b909155505060008181526067602052604080822080546001600160a01b0319166001600160a01b03861690811790915590518392907fddf252ad1be2c89b69c2b068fc378daa952ba7f163c4a11628f55a4df523b3ef908290a45050565b828054612e9e906133b9565b90600052602060002090601f016020900481019282612ec05760008555612f06565b82601f10612ed957805160ff1916838001178555612f06565b82800160010185558215612f06579182015b82811115612f06578251825591602001919060010190612eeb565b50612f12929150612f34565b5090565b60405180602001604052806001906020820280368337509192915050565b5b80821115612f125760008155600101612f35565b6001600160e01b031981168114610a5057600080fd5b600060208284031215612f7157600080fd5b81356117ec81612f49565b60005b83811015612f97578181015183820152602001612f7f565b83811115610d785750506000910152565b60008151808452612fc0816020860160208601612f7c565b601f01601f19169290920160200192915050565b6020815260006117ec6020830184612fa8565b600060208284031215612ff957600080fd5b5035919050565b80356001600160a01b0381168114611f2b57600080fd5b6000806040838503121561302a57600080fd5b61303383613000565b946020939093013593505050565b60006020828403121561305357600080fd5b6117ec82613000565b600081518084526020808501945080840160005b8381101561308c57815187529582019590820190600101613070565b509495945050505050565b6040815260006130aa604083018561305c565b82810360208401526130bc818561305c565b95945050505050565b634e487b7160e01b600052604160045260246000fd5b604051601f8201601f1916810167ffffffffffffffff81118282101715613104576131046130c5565b604052919050565b6000602080838503121561311f57600080fd5b823567ffffffffffffffff8082111561313757600080fd5b818501915085601f83011261314b57600080fd5b81358181111561315d5761315d6130c5565b8060051b915061316e8483016130db565b818152918301840191848101908884111561318857600080fd5b938501935b838510156131a65784358252938501939085019061318d565b98975050505050505050565b6020815260006117ec602083018461305c565b6000806000606084860312156131da57600080fd5b6131e384613000565b92506131f160208501613000565b9150604084013590509250925092565b6000806040838503121561321457600080fd5b8235915061322460208401613000565b90509250929050565b600067ffffffffffffffff831115613247576132476130c5565b61325a601f8401601f19166020016130db565b905082815283838301111561326e57600080fd5b828260208301376000602084830101529392505050565b60006020828403121561329757600080fd5b813567ffffffffffffffff8111156132ae57600080fd5b8201601f810184136132bf57600080fd5b6119fd8482356020840161322d565b8015158114610a5057600080fd5b600080604083850312156132ef57600080fd5b6132f883613000565b91506020830135613308816132ce565b809150509250929050565b6000806000806080858703121561332957600080fd5b61333285613000565b935061334060208601613000565b925060408501359150606085013567ffffffffffffffff81111561336357600080fd5b8501601f8101871361337457600080fd5b6133838782356020840161322d565b91505092959194509250565b600080604083850312156133a257600080fd5b6133ab83613000565b915061322460208401613000565b600181811c908216806133cd57607f821691505b602082108114156133ee57634e487b7160e01b600052602260045260246000fd5b50919050565b602080825260139082015272426c61636b6c6973746564206164647265737360681b604082015260600190565b634e487b7160e01b600052603260045260246000fd5b634e487b7160e01b600052601160045260246000fd5b600060001982141561346157613461613437565b5060010190565b60208082526031908201527f4552433732313a207472616e736665722063616c6c6572206973206e6f74206f6040820152701ddb995c881b9bdc88185c1c1c9bdd9959607a1b606082015260800190565b60008160001904831182151516156134d3576134d3613437565b500290565b6000602082840312156134ea57600080fd5b5051919050565b60006020828403121561350357600080fd5b81516117ec816132ce565b60208082526010908201526f14185d5cd8589b194e881c185d5cd95960821b604082015260600190565b6000815161354a818560208601612f7c565b9290920192915050565b60008251613566818460208701612f7c565b602560f81b920191825250600101919050565b600080845481600182811c91508083168061359557607f831692505b60208084108214156135b557634e487b7160e01b86526022600452602486fd5b8180156135c957600181146135da57613607565b60ff19861689528489019650613607565b60008b81526020902060005b868110156135ff5781548b8201529085019083016135e6565b505084890196505b5050505050506130bc8185613538565b6000607b60f81b8083527f226e616d65223a2022436f736d696320456c76657320446973636f756e74205460018401526669636b6574202360c81b6021840152855161366a816028860160208a01612f7c565b61088b60f21b6028918501918201819052691134b6b0b3b2911d101160b11b602a83015286516136a1816034850160208b01612f7c565b60349201918201526e2261747472696275746573223a205b60881b60368201526045810182905261374b61373d61373061372361371d613707604687017f2274726169745f74797065223a2022646973636f756e74222c00000000000000815260190190565b69113b30b63ab2911d101160b11b8152600a0190565b89613538565b601160f91b815260010190565b607d60f81b815260010190565b615d7d60f01b815260020190565b979650505050505050565b7f646174613a6170706c69636174696f6e2f6a736f6e3b6261736536342c00000081526000825161378e81601d850160208701612f7c565b91909101601d0192915050565b6000828210156137ad576137ad613437565b500390565b600082198211156137c5576137c5613437565b500190565b6020808252602e908201527f496e697469616c697a61626c653a20636f6e747261637420697320616c72656160408201526d191e481a5b9a5d1a585b1a5e995960921b606082015260800190565b6020808252602b908201527f496e697469616c697a61626c653a20636f6e7472616374206973206e6f74206960408201526a6e697469616c697a696e6760a81b606082015260800190565b60208082526032908201527f4552433732313a207472616e7366657220746f206e6f6e20455243373231526560408201527131b2b4bb32b91034b6b83632b6b2b73a32b960711b606082015260800190565b634e487b7160e01b600052601260045260246000fd5b6000826138da576138da6138b5565b500490565b6000826138ee576138ee6138b5565b500690565b7f416363657373436f6e74726f6c3a206163636f756e742000000000000000000081526000835161392b816017850160208801612f7c565b7001034b99036b4b9b9b4b733903937b6329607d1b601791840191820152835161395c816028840160208801612f7c565b01602801949350505050565b6001600160a01b038581168252841660208201526040810183905260806060820181905260009061399b90830184612fa8565b9695505050505050565b6000602082840312156139b757600080fd5b81516117ec81612f49565b634e487b7160e01b600052603160045260246000fd5b6000816139e7576139e7613437565b50600019019056fe68747470733a2f2f696d616765732e636f736d6963756e6976657273652e6f6e652f656c7665732d7469636b6574732f73e573f9566d61418a34d5de3ff49360f9c51fec37f7486551670290f6285dab4142434445464748494a4b4c4d4e4f505152535455565758595a6162636465666768696a6b6c6d6e6f707172737475767778797a303132333435363738392b2f65d7a28e3265b37a6474929f336521b332c1681b933f6cb9f3376673440d862aa2646970667358221220a4c4bf9f0c3f18191e3505b1c8012ad34050dc5aca795d5c67a4adc2be09570d64736f6c63430008090033",
  "linkReferences": {},
  "deployedLinkReferences": {}
}