{
  "_format": "hh-sol-artifact-1",
  "contractName": "CosmicElvesTicketUpgradeable",
  "sourceName": "contracts/upgradeable/ERC721/CosmicElvesTicketUpgradeable.sol",
  "abi": [
    {
      "inputs": [],
      "stateMutability": "nonpayable",
      "type": "constructor"
    },
    {
      "anonymous": false,
      "inputs": [
        {
          "indexed": true,
          "internalType": "address",
          "name": "owner",
          "type": "address"
        },
        {
          "indexed": true,
          "internalType": "address",
          "name": "approved",
          "type": "address"
        },
        {
          "indexed": true,
          "internalType": "uint256",
          "name": "tokenId",
          "type": "uint256"
        }
      ],
      "name": "Approval",
      "type": "event"
    },
    {
      "anonymous": false,
      "inputs": [
        {
          "indexed": true,
          "internalType": "address",
          "name": "owner",
          "type": "address"
        },
        {
          "indexed": true,
          "internalType": "address",
          "name": "operator",
          "type": "address"
        },
        {
          "indexed": false,
          "internalType": "bool",
          "name": "approved",
          "type": "bool"
        }
      ],
      "name": "ApprovalForAll",
      "type": "event"
    },
    {
      "anonymous": false,
      "inputs": [
        {
          "indexed": false,
          "internalType": "uint8",
          "name": "version",
          "type": "uint8"
        }
      ],
      "name": "Initialized",
      "type": "event"
    },
    {
      "anonymous": false,
      "inputs": [
        {
          "indexed": false,
          "internalType": "address",
          "name": "account",
          "type": "address"
        }
      ],
      "name": "Paused",
      "type": "event"
    },
    {
      "anonymous": false,
      "inputs": [
        {
          "indexed": true,
          "internalType": "bytes32",
          "name": "role",
          "type": "bytes32"
        },
        {
          "indexed": true,
          "internalType": "bytes32",
          "name": "previousAdminRole",
          "type": "bytes32"
        },
        {
          "indexed": true,
          "internalType": "bytes32",
          "name": "newAdminRole",
          "type": "bytes32"
        }
      ],
      "name": "RoleAdminChanged",
      "type": "event"
    },
    {
      "anonymous": false,
      "inputs": [
        {
          "indexed": true,
          "internalType": "bytes32",
          "name": "role",
          "type": "bytes32"
        },
        {
          "indexed": true,
          "internalType": "address",
          "name": "account",
          "type": "address"
        },
        {
          "indexed": true,
          "internalType": "address",
          "name": "sender",
          "type": "address"
        }
      ],
      "name": "RoleGranted",
      "type": "event"
    },
    {
      "anonymous": false,
      "inputs": [
        {
          "indexed": true,
          "internalType": "bytes32",
          "name": "role",
          "type": "bytes32"
        },
        {
          "indexed": true,
          "internalType": "address",
          "name": "account",
          "type": "address"
        },
        {
          "indexed": true,
          "internalType": "address",
          "name": "sender",
          "type": "address"
        }
      ],
      "name": "RoleRevoked",
      "type": "event"
    },
    {
      "anonymous": false,
      "inputs": [
        {
          "indexed": true,
          "internalType": "address",
          "name": "from",
          "type": "address"
        },
        {
          "indexed": true,
          "internalType": "address",
          "name": "to",
          "type": "address"
        },
        {
          "indexed": true,
          "internalType": "uint256",
          "name": "tokenId",
          "type": "uint256"
        }
      ],
      "name": "Transfer",
      "type": "event"
    },
    {
      "anonymous": false,
      "inputs": [
        {
          "indexed": false,
          "internalType": "address",
          "name": "account",
          "type": "address"
        }
      ],
      "name": "Unpaused",
      "type": "event"
    },
    {
      "inputs": [],
      "name": "DEFAULT_ADMIN_ROLE",
      "outputs": [
        {
          "internalType": "bytes32",
          "name": "",
          "type": "bytes32"
        }
      ],
      "stateMutability": "view",
      "type": "function"
    },
    {
      "inputs": [],
      "name": "PAUSER_ROLE",
      "outputs": [
        {
          "internalType": "bytes32",
          "name": "",
          "type": "bytes32"
        }
      ],
      "stateMutability": "view",
      "type": "function"
    },
    {
      "inputs": [],
      "name": "UPDATER_ROLE",
      "outputs": [
        {
          "internalType": "bytes32",
          "name": "",
          "type": "bytes32"
        }
      ],
      "stateMutability": "view",
      "type": "function"
    },
    {
      "inputs": [
        {
          "internalType": "address",
          "name": "_address",
          "type": "address"
        }
      ],
      "name": "addBlacklist",
      "outputs": [],
      "stateMutability": "nonpayable",
      "type": "function"
    },
    {
      "inputs": [
        {
          "internalType": "address",
          "name": "to",
          "type": "address"
        },
        {
          "internalType": "uint256",
          "name": "tokenId",
          "type": "uint256"
        }
      ],
      "name": "approve",
      "outputs": [],
      "stateMutability": "nonpayable",
      "type": "function"
    },
    {
      "inputs": [
        {
          "internalType": "address",
          "name": "owner",
          "type": "address"
        }
      ],
      "name": "balanceOf",
      "outputs": [
        {
          "internalType": "uint256",
          "name": "",
          "type": "uint256"
        }
      ],
      "stateMutability": "view",
      "type": "function"
    },
    {
      "inputs": [
        {
          "internalType": "uint256[]",
          "name": "tokenIds",
          "type": "uint256[]"
        }
      ],
      "name": "batchDiscountOf",
      "outputs": [
        {
          "internalType": "uint256[]",
          "name": "",
          "type": "uint256[]"
        }
      ],
      "stateMutability": "view",
      "type": "function"
    },
    {
      "inputs": [
        {
          "internalType": "address",
          "name": "to",
          "type": "address"
        },
        {
          "internalType": "uint256",
          "name": "amount",
          "type": "uint256"
        }
      ],
      "name": "batchMint",
      "outputs": [],
      "stateMutability": "nonpayable",
      "type": "function"
    },
    {
      "inputs": [
        {
          "internalType": "uint256",
          "name": "tokenId",
          "type": "uint256"
        }
      ],
      "name": "burn",
      "outputs": [],
      "stateMutability": "nonpayable",
      "type": "function"
    },
    {
      "inputs": [],
      "name": "cap",
      "outputs": [
        {
          "internalType": "uint256",
          "name": "",
          "type": "uint256"
        }
      ],
      "stateMutability": "view",
      "type": "function"
    },
    {
      "inputs": [
        {
          "internalType": "uint256",
          "name": "tokenId",
          "type": "uint256"
        }
      ],
      "name": "discountOf",
      "outputs": [
        {
          "internalType": "uint256",
          "name": "discount",
          "type": "uint256"
        }
      ],
      "stateMutability": "view",
      "type": "function"
    },
    {
      "inputs": [
        {
          "internalType": "uint256",
          "name": "tokenId",
          "type": "uint256"
        }
      ],
      "name": "getApproved",
      "outputs": [
        {
          "internalType": "address",
          "name": "",
          "type": "address"
        }
      ],
      "stateMutability": "view",
      "type": "function"
    },
    {
      "inputs": [
        {
          "internalType": "bytes32",
          "name": "role",
          "type": "bytes32"
        }
      ],
      "name": "getRoleAdmin",
      "outputs": [
        {
          "internalType": "bytes32",
          "name": "",
          "type": "bytes32"
        }
      ],
      "stateMutability": "view",
      "type": "function"
    },
    {
      "inputs": [
        {
          "internalType": "bytes32",
          "name": "role",
          "type": "bytes32"
        },
        {
          "internalType": "address",
          "name": "account",
          "type": "address"
        }
      ],
      "name": "grantRole",
      "outputs": [],
      "stateMutability": "nonpayable",
      "type": "function"
    },
    {
      "inputs": [
        {
          "internalType": "bytes32",
          "name": "role",
          "type": "bytes32"
        },
        {
          "internalType": "address",
          "name": "account",
          "type": "address"
        }
      ],
      "name": "hasRole",
      "outputs": [
        {
          "internalType": "bool",
          "name": "",
          "type": "bool"
        }
      ],
      "stateMutability": "view",
      "type": "function"
    },
    {
      "inputs": [],
      "name": "imageBaseURI",
      "outputs": [
        {
          "internalType": "string",
          "name": "",
          "type": "string"
        }
      ],
      "stateMutability": "view",
      "type": "function"
    },
    {
      "inputs": [],
      "name": "initialize",
      "outputs": [],
      "stateMutability": "nonpayable",
      "type": "function"
    },
    {
      "inputs": [
        {
          "internalType": "address",
          "name": "owner",
          "type": "address"
        },
        {
          "internalType": "address",
          "name": "operator",
          "type": "address"
        }
      ],
      "name": "isApprovedForAll",
      "outputs": [
        {
          "internalType": "bool",
          "name": "",
          "type": "bool"
        }
      ],
      "stateMutability": "view",
      "type": "function"
    },
    {
      "inputs": [
        {
          "internalType": "address",
          "name": "to",
          "type": "address"
        }
      ],
      "name": "mint",
      "outputs": [],
      "stateMutability": "nonpayable",
      "type": "function"
    },
    {
      "inputs": [],
      "name": "name",
      "outputs": [
        {
          "internalType": "string",
          "name": "",
          "type": "string"
        }
      ],
      "stateMutability": "view",
      "type": "function"
    },
    {
      "inputs": [
        {
          "internalType": "uint256",
          "name": "tokenId",
          "type": "uint256"
        }
      ],
      "name": "ownerOf",
      "outputs": [
        {
          "internalType": "address",
          "name": "",
          "type": "address"
        }
      ],
      "stateMutability": "view",
      "type": "function"
    },
    {
      "inputs": [],
      "name": "pause",
      "outputs": [],
      "stateMutability": "nonpayable",
      "type": "function"
    },
    {
      "inputs": [],
      "name": "paused",
      "outputs": [
        {
          "internalType": "bool",
          "name": "",
          "type": "bool"
        }
      ],
      "stateMutability": "view",
      "type": "function"
    },
    {
      "inputs": [],
      "name": "price",
      "outputs": [
        {
          "internalType": "uint256",
          "name": "",
          "type": "uint256"
        }
      ],
      "stateMutability": "view",
      "type": "function"
    },
    {
      "inputs": [
        {
          "internalType": "address",
          "name": "_address",
          "type": "address"
        }
      ],
      "name": "removeBlacklist",
      "outputs": [],
      "stateMutability": "nonpayable",
      "type": "function"
    },
    {
      "inputs": [
        {
          "internalType": "bytes32",
          "name": "role",
          "type": "bytes32"
        },
        {
          "internalType": "address",
          "name": "account",
          "type": "address"
        }
      ],
      "name": "renounceRole",
      "outputs": [],
      "stateMutability": "nonpayable",
      "type": "function"
    },
    {
      "inputs": [
        {
          "internalType": "bytes32",
          "name": "role",
          "type": "bytes32"
        },
        {
          "internalType": "address",
          "name": "account",
          "type": "address"
        }
      ],
      "name": "revokeRole",
      "outputs": [],
      "stateMutability": "nonpayable",
      "type": "function"
    },
    {
      "inputs": [
        {
          "internalType": "address",
          "name": "from",
          "type": "address"
        },
        {
          "internalType": "address",
          "name": "to",
          "type": "address"
        },
        {
          "internalType": "uint256",
          "name": "tokenId",
          "type": "uint256"
        }
      ],
      "name": "safeTransferFrom",
      "outputs": [],
      "stateMutability": "nonpayable",
      "type": "function"
    },
    {
      "inputs": [
        {
          "internalType": "address",
          "name": "from",
          "type": "address"
        },
        {
          "internalType": "address",
          "name": "to",
          "type": "address"
        },
        {
          "internalType": "uint256",
          "name": "tokenId",
          "type": "uint256"
        },
        {
          "internalType": "bytes",
          "name": "_data",
          "type": "bytes"
        }
      ],
      "name": "safeTransferFrom",
      "outputs": [],
      "stateMutability": "nonpayable",
      "type": "function"
    },
    {
      "inputs": [
        {
          "internalType": "address",
          "name": "operator",
          "type": "address"
        },
        {
          "internalType": "bool",
          "name": "approved",
          "type": "bool"
        }
      ],
      "name": "setApprovalForAll",
      "outputs": [],
      "stateMutability": "nonpayable",
      "type": "function"
    },
    {
      "inputs": [
        {
          "internalType": "uint256",
          "name": "_cap",
          "type": "uint256"
        }
      ],
      "name": "setCap",
      "outputs": [],
      "stateMutability": "nonpayable",
      "type": "function"
    },
    {
      "inputs": [
        {
          "internalType": "string",
          "name": "_imageBaseURI",
          "type": "string"
        }
      ],
      "name": "setImageBaseURI",
      "outputs": [],
      "stateMutability": "nonpayable",
      "type": "function"
    },
    {
      "inputs": [
        {
          "internalType": "uint256",
          "name": "time",
          "type": "uint256"
        }
      ],
      "name": "setStartTime",
      "outputs": [],
      "stateMutability": "nonpayable",
      "type": "function"
    },
    {
      "inputs": [
        {
          "internalType": "uint256",
          "name": "_price",
          "type": "uint256"
        }
      ],
      "name": "setTicketPrice",
      "outputs": [],
      "stateMutability": "nonpayable",
      "type": "function"
    },
    {
      "inputs": [],
      "name": "startTime",
      "outputs": [
        {
          "internalType": "uint256",
          "name": "",
          "type": "uint256"
        }
      ],
      "stateMutability": "view",
      "type": "function"
    },
    {
      "inputs": [
        {
          "internalType": "bytes4",
          "name": "interfaceId",
          "type": "bytes4"
        }
      ],
      "name": "supportsInterface",
      "outputs": [
        {
          "internalType": "bool",
          "name": "",
          "type": "bool"
        }
      ],
      "stateMutability": "view",
      "type": "function"
    },
    {
      "inputs": [],
      "name": "symbol",
      "outputs": [
        {
          "internalType": "string",
          "name": "",
          "type": "string"
        }
      ],
      "stateMutability": "view",
      "type": "function"
    },
    {
      "inputs": [
        {
          "internalType": "uint256",
          "name": "index",
          "type": "uint256"
        }
      ],
      "name": "tokenByIndex",
      "outputs": [
        {
          "internalType": "uint256",
          "name": "",
          "type": "uint256"
        }
      ],
      "stateMutability": "view",
      "type": "function"
    },
    {
      "inputs": [
        {
          "internalType": "address",
          "name": "owner",
          "type": "address"
        },
        {
          "internalType": "uint256",
          "name": "index",
          "type": "uint256"
        }
      ],
      "name": "tokenOfOwnerByIndex",
      "outputs": [
        {
          "internalType": "uint256",
          "name": "",
          "type": "uint256"
        }
      ],
      "stateMutability": "view",
      "type": "function"
    },
    {
      "inputs": [
        {
          "internalType": "uint256",
          "name": "tokenId",
          "type": "uint256"
        }
      ],
      "name": "tokenURI",
      "outputs": [
        {
          "internalType": "string",
          "name": "",
          "type": "string"
        }
      ],
      "stateMutability": "view",
      "type": "function"
    },
    {
      "inputs": [
        {
          "internalType": "address",
          "name": "_address",
          "type": "address"
        }
      ],
      "name": "tokensAndDiscountsOfOwner",
      "outputs": [
        {
          "internalType": "uint256[]",
          "name": "tokens",
          "type": "uint256[]"
        },
        {
          "internalType": "uint256[]",
          "name": "discounts",
          "type": "uint256[]"
        }
      ],
      "stateMutability": "view",
      "type": "function"
    },
    {
      "inputs": [
        {
          "internalType": "address",
          "name": "_address",
          "type": "address"
        }
      ],
      "name": "tokensOfOwner",
      "outputs": [
        {
          "internalType": "uint256[]",
          "name": "",
          "type": "uint256[]"
        }
      ],
      "stateMutability": "view",
      "type": "function"
    },
    {
      "inputs": [],
      "name": "totalSupply",
      "outputs": [
        {
          "internalType": "uint256",
          "name": "",
          "type": "uint256"
        }
      ],
      "stateMutability": "view",
      "type": "function"
    },
    {
      "inputs": [
        {
          "internalType": "address",
          "name": "from",
          "type": "address"
        },
        {
          "internalType": "address",
          "name": "to",
          "type": "address"
        },
        {
          "internalType": "uint256",
          "name": "tokenId",
          "type": "uint256"
        }
      ],
      "name": "transferFrom",
      "outputs": [],
      "stateMutability": "nonpayable",
      "type": "function"
    },
    {
      "inputs": [],
      "name": "treasuryAddress",
      "outputs": [
        {
          "internalType": "address",
          "name": "",
          "type": "address"
        }
      ],
      "stateMutability": "view",
      "type": "function"
    },
    {
      "inputs": [],
      "name": "unpause",
      "outputs": [],
      "stateMutability": "nonpayable",
      "type": "function"
    },
    {
      "inputs": [],
      "name": "usdc",
      "outputs": [
        {
          "internalType": "contract IERC20Upgradeable",
          "name": "",
          "type": "address"
        }
      ],
      "stateMutability": "view",
      "type": "function"
    }
  ],
  "bytecode": "0x608060405234801561001057600080fd5b50613b1d806100206000396000f3fe608060405234801561001057600080fd5b50600436106102955760003560e01c80634f6ccce71161016757806395d89b41116100ce578063c5f956af11610087578063c5f956af1461059e578063c87b56dd146105b2578063d547741f146105c5578063e63ab1e9146105d8578063e985e9c5146105ed578063eb91e6511461062957600080fd5b806395d89b411461054b5780639cfe42da14610553578063a035b1fe14610566578063a217fddf14610570578063a22cb46514610578578063b88d4fde1461058b57600080fd5b80637764583911610120578063776458391461050357806378e979251461050b5780638129fc1c146105155780638456cb591461051d5780638462151c1461052557806391d148541461053857600080fd5b80634f6ccce7146104995780635c975abb146104ac5780636352211e146104b75780636a627842146104ca5780636cfa24cc146104dd57806370a08231146104f057600080fd5b80632f745c591161020b57806342842e0e116101c457806342842e0e1461042557806342966c681461043857806343508b051461044b57806347786d371461045e57806347e633801461047157806349299d6e1461048657600080fd5b80632f745c59146103c6578063355274ea146103d957806336568abe146103e35780633e0a322d146103f65780633e413bee146104095780633f4ba83a1461041d57600080fd5b8063159816501161025d578063159816501461033857806318160ddd1461034b5780631e9d71011461035d57806323b872dd1461037d578063248a9ca3146103905780632f2ff15d146103b357600080fd5b806301ffc9a71461029a57806306fdde03146102c2578063081812fc146102d7578063095ea7b314610302578063131b71b014610317575b600080fd5b6102ad6102a8366004612fa7565b61063c565b60405190151581526020015b60405180910390f35b6102ca61064d565b6040516102b9919061301c565b6102ea6102e536600461302f565b6106df565b6040516001600160a01b0390911681526020016102b9565b61031561031036600461305f565b610779565b005b61032a610325366004613089565b6107b2565b6040516102b99291906130df565b61031561034636600461302f565b6107d9565b6099545b6040519081526020016102b9565b61037061036b366004613154565b6107f8565b6040516102b991906131fa565b61031561038b36600461320d565b6108a6565b61034f61039e36600461302f565b600090815260fb602052604090206001015490565b6103156103c1366004613249565b6108d8565b61034f6103d436600461305f565b6108fd565b61034f61016c5481565b6103156103f1366004613249565b610993565b61031561040436600461302f565b610a11565b610168546102ea906001600160a01b031681565b610315610a30565b61031561043336600461320d565b610a53565b61031561044636600461302f565b610a6e565b61031561045936600461305f565b610ae5565b61031561046c36600461302f565b610d97565b61034f600080516020613a6883398151915281565b61034f61049436600461302f565b610db6565b61034f6104a736600461302f565b610e92565b60c95460ff166102ad565b6102ea6104c536600461302f565b610f25565b6103156104d8366004613089565b610f9c565b6103156104eb3660046132cd565b611241565b61034f6104fe366004613089565b61126d565b6102ca6112f4565b61034f61016b5481565b610315611383565b61031561153d565b610370610533366004613089565b61155d565b6102ad610546366004613249565b6115ff565b6102ca61162a565b610315610561366004613089565b611639565b61034f61016a5481565b61034f600081565b610315610586366004613324565b61165d565b61031561059936600461335b565b611691565b610169546102ea906001600160a01b031681565b6102ca6105c036600461302f565b6116c9565b6103156105d3366004613249565b611797565b61034f600080516020613ac883398151915281565b6102ad6105fb3660046133d7565b6001600160a01b039182166000908152606a6020908152604080832093909416825291909152205460ff1690565b610315610637366004613089565b6117bc565b6000610647826117e0565b92915050565b60606065805461065c90613401565b80601f016020809104026020016040519081016040528092919081815260200182805461068890613401565b80156106d55780601f106106aa576101008083540402835291602001916106d5565b820191906000526020600020905b8154815290600101906020018083116106b857829003601f168201915b5050505050905090565b6000818152606760205260408120546001600160a01b031661075d5760405162461bcd60e51b815260206004820152602c60248201527f4552433732313a20617070726f76656420717565727920666f72206e6f6e657860448201526b34b9ba32b73a103a37b5b2b760a11b60648201526084015b60405180910390fd5b506000908152606960205260409020546001600160a01b031690565b8161078661016e82611805565b156107a35760405162461bcd60e51b81526004016107549061343c565b6107ad838361182a565b505050565b60608060006107c08461155d565b905060006107cd826107f8565b91959194509092505050565b600080516020613a688339815191526107f18161193b565b5061016a55565b60606000825167ffffffffffffffff8111156108165761081661310d565b60405190808252806020026020018201604052801561083f578160200160208202803683370190505b50905060005b835181101561089f5761087084828151811061086357610863613469565b6020026020010151610db6565b82828151811061088257610882613469565b60209081029190910101528061089781613495565b915050610845565b5092915050565b6108b1335b82611945565b6108cd5760405162461bcd60e51b8152600401610754906134b0565b6107ad838383611a3c565b600082815260fb60205260409020600101546108f38161193b565b6107ad8383611be3565b60006109088361126d565b821061096a5760405162461bcd60e51b815260206004820152602b60248201527f455243373231456e756d657261626c653a206f776e657220696e646578206f7560448201526a74206f6620626f756e647360a81b6064820152608401610754565b506001600160a01b03919091166000908152609760209081526040808320938352929052205490565b6001600160a01b0381163314610a035760405162461bcd60e51b815260206004820152602f60248201527f416363657373436f6e74726f6c3a2063616e206f6e6c792072656e6f756e636560448201526e103937b632b9903337b91039b2b63360891b6064820152608401610754565b610a0d8282611c69565b5050565b600080516020613a68833981519152610a298161193b565b5061016b55565b600080516020613ac8833981519152610a488161193b565b610a50611cd0565b50565b6107ad83838360405180602001604052806000815250611691565b610a77336108ab565b610adc5760405162461bcd60e51b815260206004820152603060248201527f4552433732314275726e61626c653a2063616c6c6572206973206e6f74206f7760448201526f1b995c881b9bdc88185c1c1c9bdd995960821b6064820152608401610754565b610a5081611d63565b600080516020613a68833981519152610afd8161193b565b60008261016a54610b0e9190613501565b6101685490915081906001600160a01b031663dd62ed3e336040516001600160e01b031960e084901b1681526001600160a01b03909116600482015230602482015260440160206040518083038186803b158015610b6b57600080fd5b505afa158015610b7f573d6000803e3d6000fd5b505050506040513d601f19601f82011682018060405250810190610ba39190613520565b1015610bf15760405162461bcd60e51b815260206004820152601c60248201527f496e73756666696369656e7420315553444320616c6c6f77616e6365000000006044820152606401610754565b6101685481906001600160a01b03166370a08231336040516001600160e01b031960e084901b1681526001600160a01b03909116600482015260240160206040518083038186803b158015610c4557600080fd5b505afa158015610c59573d6000803e3d6000fd5b505050506040513d601f19601f82011682018060405250810190610c7d9190613520565b1015610ccb5760405162461bcd60e51b815260206004820152601a60248201527f496e73756666696369656e742031555344432062616c616e63650000000000006044820152606401610754565b610168546001600160a01b03166323b872dd336101695460405160e084901b6001600160e01b03191681526001600160a01b0392831660048201529116602482015260448101849052606401602060405180830381600087803b158015610d3157600080fd5b505af1158015610d45573d6000803e3d6000fd5b505050506040513d601f19601f82011682018060405250810190610d699190613539565b5060005b83811015610d9057610d7e85611e0a565b80610d8881613495565b915050610d6d565b5050505050565b600080516020613a68833981519152610daf8161193b565b5061016c55565b6000818152606760205260408120546001600160a01b0316610e265760405162461bcd60e51b8152602060048201526024808201527f446973636f756e7420717565727920666f72206e6f6e6578697374656e74207460448201526337b5b2b760e11b6064820152608401610754565b610e3261016083611ee2565b15610e3f57506005919050565b610e4b61016283611ee2565b15610e585750600a919050565b610e6461016483611ee2565b15610e715750600f919050565b610e7d61016683611ee2565b15610e8a57506014919050565b506000919050565b6000610e9d60995490565b8210610f005760405162461bcd60e51b815260206004820152602c60248201527f455243373231456e756d657261626c653a20676c6f62616c20696e646578206f60448201526b7574206f6620626f756e647360a01b6064820152608401610754565b60998281548110610f1357610f13613469565b90600052602060002001549050919050565b6000818152606760205260408120546001600160a01b0316806106475760405162461bcd60e51b815260206004820152602960248201527f4552433732313a206f776e657220717565727920666f72206e6f6e657869737460448201526832b73a103a37b5b2b760b91b6064820152608401610754565b60c95460ff1615610fbf5760405162461bcd60e51b815260040161075490613556565b600080516020613a68833981519152610fd78161193b565b61016a54610168546001600160a01b031663dd62ed3e336040516001600160e01b031960e084901b1681526001600160a01b03909116600482015230602482015260440160206040518083038186803b15801561103357600080fd5b505afa158015611047573d6000803e3d6000fd5b505050506040513d601f19601f8201168201806040525081019061106b9190613520565b10156110b95760405162461bcd60e51b815260206004820152601c60248201527f496e73756666696369656e7420315553444320616c6c6f77616e6365000000006044820152606401610754565b61016a54610168546001600160a01b03166370a08231336040516001600160e01b031960e084901b1681526001600160a01b03909116600482015260240160206040518083038186803b15801561110f57600080fd5b505afa158015611123573d6000803e3d6000fd5b505050506040513d601f19601f820116820180604052508101906111479190613520565b10156111955760405162461bcd60e51b815260206004820152601a60248201527f496e73756666696369656e742031555344432062616c616e63650000000000006044820152606401610754565b610168546001600160a01b03166323b872dd336101695461016a5460405160e085901b6001600160e01b03191681526001600160a01b0393841660048201529290911660248301526044820152606401602060405180830381600087803b1580156111ff57600080fd5b505af1158015611213573d6000803e3d6000fd5b505050506040513d601f19601f820116820180604052508101906112379190613539565b50610a0d82611e0a565b600080516020613a688339815191526112598161193b565b81516107ad9061016d906020850190612eda565b60006001600160a01b0382166112d85760405162461bcd60e51b815260206004820152602a60248201527f4552433732313a2062616c616e636520717565727920666f7220746865207a65604482015269726f206164647265737360b01b6064820152608401610754565b506001600160a01b031660009081526068602052604090205490565b61016d805461130290613401565b80601f016020809104026020016040519081016040528092919081815260200182805461132e90613401565b801561137b5780601f106113505761010080835404028352916020019161137b565b820191906000526020600020905b81548152906001019060200180831161135e57829003601f168201915b505050505081565b600061138f6001611efa565b905080156113a7576000805461ff0019166101001790555b6113f36040518060400160405280600b81526020016a115b1d995cd51a58dad95d60aa1b8152506040518060400160405280600781526020016611551250d2d15560ca1b815250611f7f565b6113fb611fb0565b611403611fd9565b61140b611fb0565b611413611fb0565b61141e600033611be3565b611436600080516020613ac883398151915233611be3565b61144e600080516020613a6883398151915233611be3565b61016880546001600160a01b031990811673985458e523db3d53125813ed68c274899e9dfab41790915561016980549091167362efb2caf1f3ee645ff23b004b6e88a9a929b5631790556362a2cfd061016b556298968061016a5561138861016c5560408051606081019091526030808252613a38602083013980516114dd9161016d91602090910190612eda565b5061015f546114f5576114f561015f80546001019055565b8015610a50576000805461ff0019169055604051600181527f7f26b83ff96e1f2b6a682f133852f6798a09c465da95921460cefb38474024989060200160405180910390a150565b600080516020613ac88339815191526115558161193b565b610a50612008565b6060600061156a8361126d565b905060008167ffffffffffffffff8111156115875761158761310d565b6040519080825280602002602001820160405280156115b0578160200160208202803683370190505b50905060005b828110156115f7576115c885826108fd565b8282815181106115da576115da613469565b6020908102919091010152806115ef81613495565b9150506115b6565b509392505050565b600091825260fb602090815260408084206001600160a01b0393909316845291905290205460ff1690565b60606066805461065c90613401565b600080516020613a688339815191526116518161193b565b6107ad61016e83612060565b8161166a61016e82611805565b156116875760405162461bcd60e51b81526004016107549061343c565b6107ad8383612075565b61169b3383611945565b6116b75760405162461bcd60e51b8152600401610754906134b0565b6116c384848484612080565b50505050565b606060006116d683610db6565b905060006116e3826120b3565b6040516020016116f3919061359c565b6040516020818303038152906040529050600061016d611712846120b3565b6040516020016117239291906135c1565b6040516020818303038152906040529050600061173f866120b3565b82846040516020016117539392919061365f565b604051602081830303815290604052905061176d816121b1565b60405160200161177d919061379e565b604051602081830303815290604052945050505050919050565b600082815260fb60205260409020600101546117b28161193b565b6107ad8383611c69565b600080516020613a688339815191526117d48161193b565b6107ad61016e83612305565b60006001600160e01b03198216637965db0b60e01b148061064757506106478261231a565b6001600160a01b038116600090815260018301602052604081205415155b9392505050565b600061183582610f25565b9050806001600160a01b0316836001600160a01b031614156118a35760405162461bcd60e51b815260206004820152602160248201527f4552433732313a20617070726f76616c20746f2063757272656e74206f776e656044820152603960f91b6064820152608401610754565b336001600160a01b03821614806118bf57506118bf81336105fb565b6119315760405162461bcd60e51b815260206004820152603860248201527f4552433732313a20617070726f76652063616c6c6572206973206e6f74206f7760448201527f6e6572206e6f7220617070726f76656420666f7220616c6c00000000000000006064820152608401610754565b6107ad838361233f565b610a5081336123ad565b6000818152606760205260408120546001600160a01b03166119be5760405162461bcd60e51b815260206004820152602c60248201527f4552433732313a206f70657261746f7220717565727920666f72206e6f6e657860448201526b34b9ba32b73a103a37b5b2b760a11b6064820152608401610754565b60006119c983610f25565b9050806001600160a01b0316846001600160a01b03161480611a1057506001600160a01b038082166000908152606a602090815260408083209388168352929052205460ff165b80611a345750836001600160a01b0316611a29846106df565b6001600160a01b0316145b949350505050565b826001600160a01b0316611a4f82610f25565b6001600160a01b031614611ab35760405162461bcd60e51b815260206004820152602560248201527f4552433732313a207472616e736665722066726f6d20696e636f72726563742060448201526437bbb732b960d91b6064820152608401610754565b6001600160a01b038216611b155760405162461bcd60e51b8152602060048201526024808201527f4552433732313a207472616e7366657220746f20746865207a65726f206164646044820152637265737360e01b6064820152608401610754565b611b20838383612411565b611b2b60008261233f565b6001600160a01b0383166000908152606860205260408120805460019290611b549084906137e3565b90915550506001600160a01b0382166000908152606860205260408120805460019290611b829084906137fa565b909155505060008181526067602052604080822080546001600160a01b0319166001600160a01b0386811691821790925591518493918716917fddf252ad1be2c89b69c2b068fc378daa952ba7f163c4a11628f55a4df523b3ef91a4505050565b611bed82826115ff565b610a0d57600082815260fb602090815260408083206001600160a01b03851684529091529020805460ff19166001179055611c253390565b6001600160a01b0316816001600160a01b0316837f2f8788117e7eff1d82e926ec794901d17c78024a50270940304540a733656f0d60405160405180910390a45050565b611c7382826115ff565b15610a0d57600082815260fb602090815260408083206001600160a01b0385168085529252808320805460ff1916905551339285917ff6391f5c32d9c69d2a47ea670b442974b53935d1edc7fd64eb21e047a839171b9190a45050565b60c95460ff16611d195760405162461bcd60e51b815260206004820152601460248201527314185d5cd8589b194e881b9bdd081c185d5cd95960621b6044820152606401610754565b60c9805460ff191690557f5db9ee0a495bf2e6ff9c91a7834c1ba4fdd244a5e8aa4e537bd38aeae4b073aa335b6040516001600160a01b03909116815260200160405180910390a1565b6000611d6e82610f25565b9050611d7c81600084612411565b611d8760008361233f565b6001600160a01b0381166000908152606860205260408120805460019290611db09084906137e3565b909155505060008281526067602052604080822080546001600160a01b0319169055518391906001600160a01b038416907fddf252ad1be2c89b69c2b068fc378daa952ba7f163c4a11628f55a4df523b3ef908390a45050565b600080516020613a68833981519152611e228161193b565b6000611e2e61015f5490565b90504261016b541115611e835760405162461bcd60e51b815260206004820152601860248201527f4d696e7420686173206e6f7420737461727465642079657400000000000000006044820152606401610754565b61016c548110611ec05760405162461bcd60e51b815260206004820152600860248201526714dbdb19081bdd5d60c21b6044820152606401610754565b611ecf61015f80546001019055565b611ed98382612493565b6107ad816124ad565b60008181526001830160205260408120541515611823565b60008054610100900460ff1615611f39578160ff166001148015611f1d5750303b155b610e8a5760405162461bcd60e51b815260040161075490613812565b60005460ff808416911610611f605760405162461bcd60e51b815260040161075490613812565b506000805460ff191660ff92909216919091179055600190565b919050565b600054610100900460ff16611fa65760405162461bcd60e51b815260040161075490613860565b610a0d8282612552565b600054610100900460ff16611fd75760405162461bcd60e51b815260040161075490613860565b565b600054610100900460ff166120005760405162461bcd60e51b815260040161075490613860565b611fd76125a0565b60c95460ff161561202b5760405162461bcd60e51b815260040161075490613556565b60c9805460ff191660011790557f62e78cea01bee320cd4e420270b5ea74000d11b0c9f74754ebdbfc544b05a258611d463390565b6000611823836001600160a01b0384166125d3565b610a0d338383612622565b61208b848484611a3c565b612097848484846126f1565b6116c35760405162461bcd60e51b8152600401610754906138ab565b6060816120d75750506040805180820190915260018152600360fc1b602082015290565b8160005b811561210157806120eb81613495565b91506120fa9050600a83613913565b91506120db565b60008167ffffffffffffffff81111561211c5761211c61310d565b6040519080825280601f01601f191660200182016040528015612146576020820181803683370190505b5090505b8415611a345761215b6001836137e3565b9150612168600a86613927565b6121739060306137fa565b60f81b81838151811061218857612188613469565b60200101906001600160f81b031916908160001a9053506121aa600a86613913565b945061214a565b60608151600014156121d157505060408051602081019091526000815290565b6000604051806060016040528060408152602001613a88604091399050600060038451600261220091906137fa565b61220a9190613913565b612215906004613501565b67ffffffffffffffff81111561222d5761222d61310d565b6040519080825280601f01601f191660200182016040528015612257576020820181803683370190505b509050600182016020820185865187015b808210156122c3576003820191508151603f8160121c168501518453600184019350603f81600c1c168501518453600184019350603f8160061c168501518453600184019350603f8116850151845350600183019250612268565b50506003865106600181146122df57600281146122f2576122fa565b603d6001830353603d60028303536122fa565b603d60018303535b509195945050505050565b6000611823836001600160a01b0384166127fe565b60006001600160e01b0319821663780e9d6360e01b14806106475750610647826128f1565b600081815260696020526040902080546001600160a01b0319166001600160a01b038416908117909155819061237482610f25565b6001600160a01b03167f8c5be1e5ebec7d5bd14f71427d1e84f3dd0314c0f7b2291e5b200ac8c7c3b92560405160405180910390a45050565b6123b782826115ff565b610a0d576123cf816001600160a01b03166014612941565b6123da836020612941565b6040516020016123eb92919061393b565b60408051601f198184030181529082905262461bcd60e51b82526107549160040161301c565b60c95460ff16156124345760405162461bcd60e51b815260040161075490613556565b8261244161016e82611805565b1561245e5760405162461bcd60e51b81526004016107549061343c565b8261246b61016e82611805565b156124885760405162461bcd60e51b81526004016107549061343c565b610d90858585612add565b610a0d828260405180602001604052806000815250612b95565b60006124b7612bc8565b604080516020810183905290810184905243606082015242608082015290915060009060a00160408051601f198184030181529190528051602090910120905060006125056103e883613927565b90506103de811061251c57610d9061016685612bf0565b6103b6811061253157610d9061016485612bf0565b6102ee811061254657610d9061016285612bf0565b610d9061016085612bf0565b600054610100900460ff166125795760405162461bcd60e51b815260040161075490613860565b815161258c906065906020850190612eda565b5080516107ad906066906020840190612eda565b600054610100900460ff166125c75760405162461bcd60e51b815260040161075490613860565b60c9805460ff19169055565b600081815260018301602052604081205461261a57508154600181810184556000848152602080822090930184905584548482528286019093526040902091909155610647565b506000610647565b816001600160a01b0316836001600160a01b031614156126845760405162461bcd60e51b815260206004820152601960248201527f4552433732313a20617070726f766520746f2063616c6c6572000000000000006044820152606401610754565b6001600160a01b038381166000818152606a6020908152604080832094871680845294825291829020805460ff191686151590811790915591519182527f17307eab39ab6107e8899845ad3d59bd9653f200f220920489ca2b5937696c31910160405180910390a3505050565b60006001600160a01b0384163b156127f357604051630a85bd0160e11b81526001600160a01b0385169063150b7a02906127359033908990889088906004016139b0565b602060405180830381600087803b15801561274f57600080fd5b505af192505050801561277f575060408051601f3d908101601f1916820190925261277c918101906139ed565b60015b6127d9573d8080156127ad576040519150601f19603f3d011682016040523d82523d6000602084013e6127b2565b606091505b5080516127d15760405162461bcd60e51b8152600401610754906138ab565b805181602001fd5b6001600160e01b031916630a85bd0160e11b149050611a34565b506001949350505050565b600081815260018301602052604081205480156128e75760006128226001836137e3565b8554909150600090612836906001906137e3565b905081811461289b57600086600001828154811061285657612856613469565b906000526020600020015490508087600001848154811061287957612879613469565b6000918252602080832090910192909255918252600188019052604090208390555b85548690806128ac576128ac613a0a565b600190038181906000526020600020016000905590558560010160008681526020019081526020016000206000905560019350505050610647565b6000915050610647565b60006001600160e01b031982166380ac58cd60e01b148061292257506001600160e01b03198216635b5e139f60e01b145b8061064757506301ffc9a760e01b6001600160e01b0319831614610647565b60606000612950836002613501565b61295b9060026137fa565b67ffffffffffffffff8111156129735761297361310d565b6040519080825280601f01601f19166020018201604052801561299d576020820181803683370190505b509050600360fc1b816000815181106129b8576129b8613469565b60200101906001600160f81b031916908160001a905350600f60fb1b816001815181106129e7576129e7613469565b60200101906001600160f81b031916908160001a9053506000612a0b846002613501565b612a169060016137fa565b90505b6001811115612a8e576f181899199a1a9b1b9c1cb0b131b232b360811b85600f1660108110612a4a57612a4a613469565b1a60f81b828281518110612a6057612a60613469565b60200101906001600160f81b031916908160001a90535060049490941c93612a8781613a20565b9050612a19565b5083156118235760405162461bcd60e51b815260206004820181905260248201527f537472696e67733a20686578206c656e67746820696e73756666696369656e746044820152606401610754565b6001600160a01b038316612b3857612b3381609980546000838152609a60205260408120829055600182018355919091527f72a152ddfb8e864297c917af52ea6c1c68aead0fee1a62673fcc7e0c94979d000155565b612b5b565b816001600160a01b0316836001600160a01b031614612b5b57612b5b8382612bfc565b6001600160a01b038216612b72576107ad81612c99565b826001600160a01b0316826001600160a01b0316146107ad576107ad8282612d48565b612b9f8383612d8c565b612bac60008484846126f1565b6107ad5760405162461bcd60e51b8152600401610754906138ab565b6000612bd2612f5e565b438152604051602081818460ff600019fa612be957fe5b5192915050565b600061182383836125d3565b60006001612c098461126d565b612c1391906137e3565b600083815260986020526040902054909150808214612c66576001600160a01b03841660009081526097602090815260408083208584528252808320548484528184208190558352609890915290208190555b5060009182526098602090815260408084208490556001600160a01b039094168352609781528383209183525290812055565b609954600090612cab906001906137e3565b6000838152609a602052604081205460998054939450909284908110612cd357612cd3613469565b906000526020600020015490508060998381548110612cf457612cf4613469565b6000918252602080832090910192909255828152609a90915260408082208490558582528120556099805480612d2c57612d2c613a0a565b6001900381819060005260206000200160009055905550505050565b6000612d538361126d565b6001600160a01b039093166000908152609760209081526040808320868452825280832085905593825260989052919091209190915550565b6001600160a01b038216612de25760405162461bcd60e51b815260206004820181905260248201527f4552433732313a206d696e7420746f20746865207a65726f20616464726573736044820152606401610754565b6000818152606760205260409020546001600160a01b031615612e475760405162461bcd60e51b815260206004820152601c60248201527f4552433732313a20746f6b656e20616c7265616479206d696e746564000000006044820152606401610754565b612e5360008383612411565b6001600160a01b0382166000908152606860205260408120805460019290612e7c9084906137fa565b909155505060008181526067602052604080822080546001600160a01b0319166001600160a01b03861690811790915590518392907fddf252ad1be2c89b69c2b068fc378daa952ba7f163c4a11628f55a4df523b3ef908290a45050565b828054612ee690613401565b90600052602060002090601f016020900481019282612f085760008555612f4e565b82601f10612f2157805160ff1916838001178555612f4e565b82800160010185558215612f4e579182015b82811115612f4e578251825591602001919060010190612f33565b50612f5a929150612f7c565b5090565b60405180602001604052806001906020820280368337509192915050565b5b80821115612f5a5760008155600101612f7d565b6001600160e01b031981168114610a5057600080fd5b600060208284031215612fb957600080fd5b813561182381612f91565b60005b83811015612fdf578181015183820152602001612fc7565b838111156116c35750506000910152565b60008151808452613008816020860160208601612fc4565b601f01601f19169290920160200192915050565b6020815260006118236020830184612ff0565b60006020828403121561304157600080fd5b5035919050565b80356001600160a01b0381168114611f7a57600080fd5b6000806040838503121561307257600080fd5b61307b83613048565b946020939093013593505050565b60006020828403121561309b57600080fd5b61182382613048565b600081518084526020808501945080840160005b838110156130d4578151875295820195908201906001016130b8565b509495945050505050565b6040815260006130f260408301856130a4565b828103602084015261310481856130a4565b95945050505050565b634e487b7160e01b600052604160045260246000fd5b604051601f8201601f1916810167ffffffffffffffff8111828210171561314c5761314c61310d565b604052919050565b6000602080838503121561316757600080fd5b823567ffffffffffffffff8082111561317f57600080fd5b818501915085601f83011261319357600080fd5b8135818111156131a5576131a561310d565b8060051b91506131b6848301613123565b81815291830184019184810190888411156131d057600080fd5b938501935b838510156131ee578435825293850193908501906131d5565b98975050505050505050565b60208152600061182360208301846130a4565b60008060006060848603121561322257600080fd5b61322b84613048565b925061323960208501613048565b9150604084013590509250925092565b6000806040838503121561325c57600080fd5b8235915061326c60208401613048565b90509250929050565b600067ffffffffffffffff83111561328f5761328f61310d565b6132a2601f8401601f1916602001613123565b90508281528383830111156132b657600080fd5b828260208301376000602084830101529392505050565b6000602082840312156132df57600080fd5b813567ffffffffffffffff8111156132f657600080fd5b8201601f8101841361330757600080fd5b611a3484823560208401613275565b8015158114610a5057600080fd5b6000806040838503121561333757600080fd5b61334083613048565b9150602083013561335081613316565b809150509250929050565b6000806000806080858703121561337157600080fd5b61337a85613048565b935061338860208601613048565b925060408501359150606085013567ffffffffffffffff8111156133ab57600080fd5b8501601f810187136133bc57600080fd5b6133cb87823560208401613275565b91505092959194509250565b600080604083850312156133ea57600080fd5b6133f383613048565b915061326c60208401613048565b600181811c9082168061341557607f821691505b6020821081141561343657634e487b7160e01b600052602260045260246000fd5b50919050565b602080825260139082015272426c61636b6c6973746564206164647265737360681b604082015260600190565b634e487b7160e01b600052603260045260246000fd5b634e487b7160e01b600052601160045260246000fd5b60006000198214156134a9576134a961347f565b5060010190565b60208082526031908201527f4552433732313a207472616e736665722063616c6c6572206973206e6f74206f6040820152701ddb995c881b9bdc88185c1c1c9bdd9959607a1b606082015260800190565b600081600019048311821515161561351b5761351b61347f565b500290565b60006020828403121561353257600080fd5b5051919050565b60006020828403121561354b57600080fd5b815161182381613316565b60208082526010908201526f14185d5cd8589b194e881c185d5cd95960821b604082015260600190565b60008151613592818560208601612fc4565b9290920192915050565b600082516135ae818460208701612fc4565b602560f81b920191825250600101919050565b600080845481600182811c9150808316806135dd57607f831692505b60208084108214156135fd57634e487b7160e01b86526022600452602486fd5b81801561361157600181146136225761364f565b60ff1986168952848901965061364f565b60008b81526020902060005b868110156136475781548b82015290850190830161362e565b505084890196505b5050505050506131048185613580565b6000607b60f81b8083527f226e616d65223a2022436f736d696320456c76657320446973636f756e74205460018401526669636b6574202360c81b602184015285516136b2816028860160208a01612fc4565b61088b60f21b6028918501918201819052691134b6b0b3b2911d101160b11b602a83015286516136e9816034850160208b01612fc4565b60349201918201526e2261747472696275746573223a205b60881b60368201526045810182905261379361378561377861376b61376561374f604687017f2274726169745f74797065223a2022646973636f756e74222c00000000000000815260190190565b69113b30b63ab2911d101160b11b8152600a0190565b89613580565b601160f91b815260010190565b607d60f81b815260010190565b615d7d60f01b815260020190565b979650505050505050565b7f646174613a6170706c69636174696f6e2f6a736f6e3b6261736536342c0000008152600082516137d681601d850160208701612fc4565b91909101601d0192915050565b6000828210156137f5576137f561347f565b500390565b6000821982111561380d5761380d61347f565b500190565b6020808252602e908201527f496e697469616c697a61626c653a20636f6e747261637420697320616c72656160408201526d191e481a5b9a5d1a585b1a5e995960921b606082015260800190565b6020808252602b908201527f496e697469616c697a61626c653a20636f6e7472616374206973206e6f74206960408201526a6e697469616c697a696e6760a81b606082015260800190565b60208082526032908201527f4552433732313a207472616e7366657220746f206e6f6e20455243373231526560408201527131b2b4bb32b91034b6b83632b6b2b73a32b960711b606082015260800190565b634e487b7160e01b600052601260045260246000fd5b600082613922576139226138fd565b500490565b600082613936576139366138fd565b500690565b7f416363657373436f6e74726f6c3a206163636f756e7420000000000000000000815260008351613973816017850160208801612fc4565b7001034b99036b4b9b9b4b733903937b6329607d1b60179184019182015283516139a4816028840160208801612fc4565b01602801949350505050565b6001600160a01b03858116825284166020820152604081018390526080606082018190526000906139e390830184612ff0565b9695505050505050565b6000602082840312156139ff57600080fd5b815161182381612f91565b634e487b7160e01b600052603160045260246000fd5b600081613a2f57613a2f61347f565b50600019019056fe68747470733a2f2f696d616765732e636f736d6963756e6976657273652e6f6e652f656c7665732d7469636b6574732f73e573f9566d61418a34d5de3ff49360f9c51fec37f7486551670290f6285dab4142434445464748494a4b4c4d4e4f505152535455565758595a6162636465666768696a6b6c6d6e6f707172737475767778797a303132333435363738392b2f65d7a28e3265b37a6474929f336521b332c1681b933f6cb9f3376673440d862aa2646970667358221220917550ecdda2255a3054994167d90b4f7f71468e9ddfe48085c5a5f885b6621564736f6c63430008090033",
  "linkReferences": {},
  "deployedLinkReferences": {}
}