{
  "_format": "hh-sol-artifact-1",
  "contractName": "CosmicElvesTicketUpgradeable",
  "sourceName": "contracts/upgradeable/ERC721/CosmicElvesTicketUpgradeable.sol",
  "abi": [
    {
      "inputs": [],
      "stateMutability": "nonpayable",
      "type": "constructor"
    },
    {
      "anonymous": false,
      "inputs": [
        {
          "indexed": true,
          "internalType": "address",
          "name": "owner",
          "type": "address"
        },
        {
          "indexed": true,
          "internalType": "address",
          "name": "approved",
          "type": "address"
        },
        {
          "indexed": true,
          "internalType": "uint256",
          "name": "tokenId",
          "type": "uint256"
        }
      ],
      "name": "Approval",
      "type": "event"
    },
    {
      "anonymous": false,
      "inputs": [
        {
          "indexed": true,
          "internalType": "address",
          "name": "owner",
          "type": "address"
        },
        {
          "indexed": true,
          "internalType": "address",
          "name": "operator",
          "type": "address"
        },
        {
          "indexed": false,
          "internalType": "bool",
          "name": "approved",
          "type": "bool"
        }
      ],
      "name": "ApprovalForAll",
      "type": "event"
    },
    {
      "anonymous": false,
      "inputs": [
        {
          "indexed": false,
          "internalType": "address",
          "name": "account",
          "type": "address"
        }
      ],
      "name": "Paused",
      "type": "event"
    },
    {
      "anonymous": false,
      "inputs": [
        {
          "indexed": true,
          "internalType": "bytes32",
          "name": "role",
          "type": "bytes32"
        },
        {
          "indexed": true,
          "internalType": "bytes32",
          "name": "previousAdminRole",
          "type": "bytes32"
        },
        {
          "indexed": true,
          "internalType": "bytes32",
          "name": "newAdminRole",
          "type": "bytes32"
        }
      ],
      "name": "RoleAdminChanged",
      "type": "event"
    },
    {
      "anonymous": false,
      "inputs": [
        {
          "indexed": true,
          "internalType": "bytes32",
          "name": "role",
          "type": "bytes32"
        },
        {
          "indexed": true,
          "internalType": "address",
          "name": "account",
          "type": "address"
        },
        {
          "indexed": true,
          "internalType": "address",
          "name": "sender",
          "type": "address"
        }
      ],
      "name": "RoleGranted",
      "type": "event"
    },
    {
      "anonymous": false,
      "inputs": [
        {
          "indexed": true,
          "internalType": "bytes32",
          "name": "role",
          "type": "bytes32"
        },
        {
          "indexed": true,
          "internalType": "address",
          "name": "account",
          "type": "address"
        },
        {
          "indexed": true,
          "internalType": "address",
          "name": "sender",
          "type": "address"
        }
      ],
      "name": "RoleRevoked",
      "type": "event"
    },
    {
      "anonymous": false,
      "inputs": [
        {
          "indexed": true,
          "internalType": "address",
          "name": "from",
          "type": "address"
        },
        {
          "indexed": true,
          "internalType": "address",
          "name": "to",
          "type": "address"
        },
        {
          "indexed": true,
          "internalType": "uint256",
          "name": "tokenId",
          "type": "uint256"
        }
      ],
      "name": "Transfer",
      "type": "event"
    },
    {
      "anonymous": false,
      "inputs": [
        {
          "indexed": false,
          "internalType": "address",
          "name": "account",
          "type": "address"
        }
      ],
      "name": "Unpaused",
      "type": "event"
    },
    {
      "inputs": [],
      "name": "DEFAULT_ADMIN_ROLE",
      "outputs": [
        {
          "internalType": "bytes32",
          "name": "",
          "type": "bytes32"
        }
      ],
      "stateMutability": "view",
      "type": "function"
    },
    {
      "inputs": [],
      "name": "PAUSER_ROLE",
      "outputs": [
        {
          "internalType": "bytes32",
          "name": "",
          "type": "bytes32"
        }
      ],
      "stateMutability": "view",
      "type": "function"
    },
    {
      "inputs": [],
      "name": "UPDATER_ROLE",
      "outputs": [
        {
          "internalType": "bytes32",
          "name": "",
          "type": "bytes32"
        }
      ],
      "stateMutability": "view",
      "type": "function"
    },
    {
      "inputs": [
        {
          "internalType": "address",
          "name": "to",
          "type": "address"
        },
        {
          "internalType": "uint256",
          "name": "tokenId",
          "type": "uint256"
        }
      ],
      "name": "approve",
      "outputs": [],
      "stateMutability": "nonpayable",
      "type": "function"
    },
    {
      "inputs": [
        {
          "internalType": "address",
          "name": "owner",
          "type": "address"
        }
      ],
      "name": "balanceOf",
      "outputs": [
        {
          "internalType": "uint256",
          "name": "",
          "type": "uint256"
        }
      ],
      "stateMutability": "view",
      "type": "function"
    },
    {
      "inputs": [
        {
          "internalType": "uint256[]",
          "name": "tokenIds",
          "type": "uint256[]"
        }
      ],
      "name": "batchDiscountOf",
      "outputs": [
        {
          "internalType": "uint256[]",
          "name": "",
          "type": "uint256[]"
        }
      ],
      "stateMutability": "view",
      "type": "function"
    },
    {
      "inputs": [
        {
          "internalType": "address",
          "name": "to",
          "type": "address"
        },
        {
          "internalType": "uint256",
          "name": "amount",
          "type": "uint256"
        }
      ],
      "name": "batchMint",
      "outputs": [],
      "stateMutability": "nonpayable",
      "type": "function"
    },
    {
      "inputs": [
        {
          "internalType": "uint256",
          "name": "tokenId",
          "type": "uint256"
        }
      ],
      "name": "burn",
      "outputs": [],
      "stateMutability": "nonpayable",
      "type": "function"
    },
    {
      "inputs": [
        {
          "internalType": "uint256",
          "name": "tokenId",
          "type": "uint256"
        }
      ],
      "name": "discountOf",
      "outputs": [
        {
          "internalType": "uint256",
          "name": "discount",
          "type": "uint256"
        }
      ],
      "stateMutability": "view",
      "type": "function"
    },
    {
      "inputs": [
        {
          "internalType": "uint256",
          "name": "tokenId",
          "type": "uint256"
        }
      ],
      "name": "getApproved",
      "outputs": [
        {
          "internalType": "address",
          "name": "",
          "type": "address"
        }
      ],
      "stateMutability": "view",
      "type": "function"
    },
    {
      "inputs": [
        {
          "internalType": "bytes32",
          "name": "role",
          "type": "bytes32"
        }
      ],
      "name": "getRoleAdmin",
      "outputs": [
        {
          "internalType": "bytes32",
          "name": "",
          "type": "bytes32"
        }
      ],
      "stateMutability": "view",
      "type": "function"
    },
    {
      "inputs": [
        {
          "internalType": "bytes32",
          "name": "role",
          "type": "bytes32"
        },
        {
          "internalType": "address",
          "name": "account",
          "type": "address"
        }
      ],
      "name": "grantRole",
      "outputs": [],
      "stateMutability": "nonpayable",
      "type": "function"
    },
    {
      "inputs": [
        {
          "internalType": "bytes32",
          "name": "role",
          "type": "bytes32"
        },
        {
          "internalType": "address",
          "name": "account",
          "type": "address"
        }
      ],
      "name": "hasRole",
      "outputs": [
        {
          "internalType": "bool",
          "name": "",
          "type": "bool"
        }
      ],
      "stateMutability": "view",
      "type": "function"
    },
    {
      "inputs": [],
      "name": "imageBaseURI",
      "outputs": [
        {
          "internalType": "string",
          "name": "",
          "type": "string"
        }
      ],
      "stateMutability": "view",
      "type": "function"
    },
    {
      "inputs": [],
      "name": "initialize",
      "outputs": [],
      "stateMutability": "nonpayable",
      "type": "function"
    },
    {
      "inputs": [
        {
          "internalType": "address",
          "name": "owner",
          "type": "address"
        },
        {
          "internalType": "address",
          "name": "operator",
          "type": "address"
        }
      ],
      "name": "isApprovedForAll",
      "outputs": [
        {
          "internalType": "bool",
          "name": "",
          "type": "bool"
        }
      ],
      "stateMutability": "view",
      "type": "function"
    },
    {
      "inputs": [
        {
          "internalType": "address",
          "name": "to",
          "type": "address"
        }
      ],
      "name": "mint",
      "outputs": [],
      "stateMutability": "nonpayable",
      "type": "function"
    },
    {
      "inputs": [],
      "name": "mintPaymentToken",
      "outputs": [
        {
          "internalType": "contract IERC20Upgradeable",
          "name": "",
          "type": "address"
        }
      ],
      "stateMutability": "view",
      "type": "function"
    },
    {
      "inputs": [],
      "name": "name",
      "outputs": [
        {
          "internalType": "string",
          "name": "",
          "type": "string"
        }
      ],
      "stateMutability": "view",
      "type": "function"
    },
    {
      "inputs": [
        {
          "internalType": "uint256",
          "name": "tokenId",
          "type": "uint256"
        }
      ],
      "name": "ownerOf",
      "outputs": [
        {
          "internalType": "address",
          "name": "",
          "type": "address"
        }
      ],
      "stateMutability": "view",
      "type": "function"
    },
    {
      "inputs": [],
      "name": "pause",
      "outputs": [],
      "stateMutability": "nonpayable",
      "type": "function"
    },
    {
      "inputs": [],
      "name": "paused",
      "outputs": [
        {
          "internalType": "bool",
          "name": "",
          "type": "bool"
        }
      ],
      "stateMutability": "view",
      "type": "function"
    },
    {
      "inputs": [
        {
          "internalType": "bytes32",
          "name": "role",
          "type": "bytes32"
        },
        {
          "internalType": "address",
          "name": "account",
          "type": "address"
        }
      ],
      "name": "renounceRole",
      "outputs": [],
      "stateMutability": "nonpayable",
      "type": "function"
    },
    {
      "inputs": [
        {
          "internalType": "bytes32",
          "name": "role",
          "type": "bytes32"
        },
        {
          "internalType": "address",
          "name": "account",
          "type": "address"
        }
      ],
      "name": "revokeRole",
      "outputs": [],
      "stateMutability": "nonpayable",
      "type": "function"
    },
    {
      "inputs": [
        {
          "internalType": "address",
          "name": "from",
          "type": "address"
        },
        {
          "internalType": "address",
          "name": "to",
          "type": "address"
        },
        {
          "internalType": "uint256",
          "name": "tokenId",
          "type": "uint256"
        }
      ],
      "name": "safeTransferFrom",
      "outputs": [],
      "stateMutability": "nonpayable",
      "type": "function"
    },
    {
      "inputs": [
        {
          "internalType": "address",
          "name": "from",
          "type": "address"
        },
        {
          "internalType": "address",
          "name": "to",
          "type": "address"
        },
        {
          "internalType": "uint256",
          "name": "tokenId",
          "type": "uint256"
        },
        {
          "internalType": "bytes",
          "name": "_data",
          "type": "bytes"
        }
      ],
      "name": "safeTransferFrom",
      "outputs": [],
      "stateMutability": "nonpayable",
      "type": "function"
    },
    {
      "inputs": [
        {
          "internalType": "address",
          "name": "operator",
          "type": "address"
        },
        {
          "internalType": "bool",
          "name": "approved",
          "type": "bool"
        }
      ],
      "name": "setApprovalForAll",
      "outputs": [],
      "stateMutability": "nonpayable",
      "type": "function"
    },
    {
      "inputs": [
        {
          "internalType": "uint256",
          "name": "time",
          "type": "uint256"
        }
      ],
      "name": "setStartTime",
      "outputs": [],
      "stateMutability": "nonpayable",
      "type": "function"
    },
    {
      "inputs": [
        {
          "internalType": "uint256",
          "name": "price",
          "type": "uint256"
        }
      ],
      "name": "setTicketPrice",
      "outputs": [],
      "stateMutability": "nonpayable",
      "type": "function"
    },
    {
      "inputs": [
        {
          "internalType": "uint256",
          "name": "total",
          "type": "uint256"
        }
      ],
      "name": "setTotalTickets",
      "outputs": [],
      "stateMutability": "nonpayable",
      "type": "function"
    },
    {
      "inputs": [],
      "name": "startTime",
      "outputs": [
        {
          "internalType": "uint256",
          "name": "",
          "type": "uint256"
        }
      ],
      "stateMutability": "view",
      "type": "function"
    },
    {
      "inputs": [
        {
          "internalType": "bytes4",
          "name": "interfaceId",
          "type": "bytes4"
        }
      ],
      "name": "supportsInterface",
      "outputs": [
        {
          "internalType": "bool",
          "name": "",
          "type": "bool"
        }
      ],
      "stateMutability": "view",
      "type": "function"
    },
    {
      "inputs": [],
      "name": "symbol",
      "outputs": [
        {
          "internalType": "string",
          "name": "",
          "type": "string"
        }
      ],
      "stateMutability": "view",
      "type": "function"
    },
    {
      "inputs": [],
      "name": "ticketPrice",
      "outputs": [
        {
          "internalType": "uint256",
          "name": "",
          "type": "uint256"
        }
      ],
      "stateMutability": "view",
      "type": "function"
    },
    {
      "inputs": [
        {
          "internalType": "uint256",
          "name": "index",
          "type": "uint256"
        }
      ],
      "name": "tokenByIndex",
      "outputs": [
        {
          "internalType": "uint256",
          "name": "",
          "type": "uint256"
        }
      ],
      "stateMutability": "view",
      "type": "function"
    },
    {
      "inputs": [
        {
          "internalType": "address",
          "name": "owner",
          "type": "address"
        },
        {
          "internalType": "uint256",
          "name": "index",
          "type": "uint256"
        }
      ],
      "name": "tokenOfOwnerByIndex",
      "outputs": [
        {
          "internalType": "uint256",
          "name": "",
          "type": "uint256"
        }
      ],
      "stateMutability": "view",
      "type": "function"
    },
    {
      "inputs": [
        {
          "internalType": "uint256",
          "name": "tokenId",
          "type": "uint256"
        }
      ],
      "name": "tokenURI",
      "outputs": [
        {
          "internalType": "string",
          "name": "",
          "type": "string"
        }
      ],
      "stateMutability": "view",
      "type": "function"
    },
    {
      "inputs": [
        {
          "internalType": "address",
          "name": "_address",
          "type": "address"
        }
      ],
      "name": "tokensAndDiscountsOfOwner",
      "outputs": [
        {
          "internalType": "uint256[]",
          "name": "tokens",
          "type": "uint256[]"
        },
        {
          "internalType": "uint256[]",
          "name": "discounts",
          "type": "uint256[]"
        }
      ],
      "stateMutability": "view",
      "type": "function"
    },
    {
      "inputs": [
        {
          "internalType": "address",
          "name": "_address",
          "type": "address"
        }
      ],
      "name": "tokensOfOwner",
      "outputs": [
        {
          "internalType": "uint256[]",
          "name": "",
          "type": "uint256[]"
        }
      ],
      "stateMutability": "view",
      "type": "function"
    },
    {
      "inputs": [],
      "name": "totalSupply",
      "outputs": [
        {
          "internalType": "uint256",
          "name": "",
          "type": "uint256"
        }
      ],
      "stateMutability": "view",
      "type": "function"
    },
    {
      "inputs": [],
      "name": "totalTickets",
      "outputs": [
        {
          "internalType": "uint256",
          "name": "",
          "type": "uint256"
        }
      ],
      "stateMutability": "view",
      "type": "function"
    },
    {
      "inputs": [
        {
          "internalType": "address",
          "name": "from",
          "type": "address"
        },
        {
          "internalType": "address",
          "name": "to",
          "type": "address"
        },
        {
          "internalType": "uint256",
          "name": "tokenId",
          "type": "uint256"
        }
      ],
      "name": "transferFrom",
      "outputs": [],
      "stateMutability": "nonpayable",
      "type": "function"
    },
    {
      "inputs": [],
      "name": "treasuryAddress",
      "outputs": [
        {
          "internalType": "address",
          "name": "",
          "type": "address"
        }
      ],
      "stateMutability": "view",
      "type": "function"
    },
    {
      "inputs": [],
      "name": "unpause",
      "outputs": [],
      "stateMutability": "nonpayable",
      "type": "function"
    }
  ],
  "bytecode": "0x608060405234801561001057600080fd5b506136db806100206000396000f3fe608060405234801561001057600080fd5b50600436106102745760003560e01c80635c975abb11610151578063a217fddf116100c3578063c5f956af11610087578063c5f956af14610551578063c87b56dd14610565578063d547741f14610578578063dd11247e1461058b578063e63ab1e914610595578063e985e9c5146105aa57600080fd5b8063a217fddf146104fc578063a22cb46514610504578063ae890c0a14610517578063b88d4fde1461052a578063c176fedd1461053d57600080fd5b806378e979251161011557806378e97925146104b45780638129fc1c146104be5780638456cb59146104c65780638462151c146104ce57806391d14854146104e157806395d89b41146104f457600080fd5b80635c975abb146104685780636352211e146104735780636a6278421461048657806370a082311461049957806377645839146104ac57600080fd5b80632f2ff15d116101ea57806342842e0e116101ae57806342842e0e146103f457806342966c681461040757806343508b051461041a57806347e633801461042d57806349299d6e146104425780634f6ccce71461045557600080fd5b80632f2ff15d146103a05780632f745c59146103b357806336568abe146103c65780633e0a322d146103d95780633f4ba83a146103ec57600080fd5b8063131b71b01161023c578063131b71b01461030e578063159816501461032f57806318160ddd146103425780631e9d71011461034a57806323b872dd1461036a578063248a9ca31461037d57600080fd5b806301ffc9a71461027957806306fdde03146102a1578063081812fc146102b6578063095ea7b3146102e15780631209b1f6146102f6575b600080fd5b61028c610287366004612c5b565b6105e6565b60405190151581526020015b60405180910390f35b6102a96105f7565b6040516102989190612cd0565b6102c96102c4366004612ce3565b610689565b6040516001600160a01b039091168152602001610298565b6102f46102ef366004612d18565b610723565b005b61030061016a5481565b604051908152602001610298565b61032161031c366004612d42565b610839565b604051610298929190612d98565b6102f461033d366004612ce3565b61095e565b609954610300565b61035d610358366004612e0d565b61097e565b6040516102989190612eb3565b6102f4610378366004612ec6565b610a1f565b61030061038b366004612ce3565b600090815260fb602052604090206001015490565b6102f46103ae366004612f02565b610a51565b6103006103c1366004612d18565b610a77565b6102f46103d4366004612f02565b610b0d565b6102f46103e7366004612ce3565b610b8b565b6102f4610bab565b6102f4610402366004612ec6565b610bcf565b6102f4610415366004612ce3565b610bea565b6102f4610428366004612d18565b610c61565b61030060008051602061362683398151915281565b610300610450366004612ce3565b610c87565b610300610463366004612ce3565b610db0565b60c95460ff1661028c565b6102c9610481366004612ce3565b610e43565b6102f4610494366004612d42565b610eba565b6103006104a7366004612d42565b611124565b6102a96111ab565b61030061016b5481565b6102f461123a565b6102f4611445565b61035d6104dc366004612d42565b611466565b61028c6104ef366004612f02565b611508565b6102a9611533565b610300600081565b6102f4610512366004612f3c565b611542565b6102f4610525366004612ce3565b61154d565b6102f4610538366004612f73565b61156d565b610168546102c9906001600160a01b031681565b610169546102c9906001600160a01b031681565b6102a9610573366004612ce3565b6115a5565b6102f4610586366004612f02565b6116ac565b61030061016c5481565b61030060008051602061368683398151915281565b61028c6105b8366004613033565b6001600160a01b039182166000908152606a6020908152604080832093909416825291909152205460ff1690565b60006105f1826116d2565b92915050565b6060606580546106069061305d565b80601f01602080910402602001604051908101604052809291908181526020018280546106329061305d565b801561067f5780601f106106545761010080835404028352916020019161067f565b820191906000526020600020905b81548152906001019060200180831161066257829003601f168201915b5050505050905090565b6000818152606760205260408120546001600160a01b03166107075760405162461bcd60e51b815260206004820152602c60248201527f4552433732313a20617070726f76656420717565727920666f72206e6f6e657860448201526b34b9ba32b73a103a37b5b2b760a11b60648201526084015b60405180910390fd5b506000908152606960205260409020546001600160a01b031690565b600061072e82610e43565b9050806001600160a01b0316836001600160a01b0316141561079c5760405162461bcd60e51b815260206004820152602160248201527f4552433732313a20617070726f76616c20746f2063757272656e74206f776e656044820152603960f91b60648201526084016106fe565b336001600160a01b03821614806107b857506107b881336105b8565b61082a5760405162461bcd60e51b815260206004820152603860248201527f4552433732313a20617070726f76652063616c6c6572206973206e6f74206f7760448201527f6e6572206e6f7220617070726f76656420666f7220616c6c000000000000000060648201526084016106fe565b61083483836116f7565b505050565b606080600061084784611124565b90508067ffffffffffffffff81111561086257610862612dc6565b60405190808252806020026020018201604052801561088b578160200160208202803683370190505b5092508067ffffffffffffffff8111156108a7576108a7612dc6565b6040519080825280602002602001820160405280156108d0578160200160208202803683370190505b50915060005b81811015610957576108e88582610a77565b8482815181106108fa576108fa613098565b60200260200101818152505061092884828151811061091b5761091b613098565b6020026020010151610c87565b83828151811061093a5761093a613098565b60209081029190910101528061094f816130c4565b9150506108d6565b5050915091565b6000805160206136268339815191526109778133611765565b5061016a55565b60606000825167ffffffffffffffff81111561099c5761099c612dc6565b6040519080825280602002602001820160405280156109c5578160200160208202803683370190505b50905060005b8351811015610a18576109e984828151811061091b5761091b613098565b8282815181106109fb576109fb613098565b602090810291909101015280610a10816130c4565b9150506109cb565b5092915050565b610a2a335b826117c9565b610a465760405162461bcd60e51b81526004016106fe906130df565b6108348383836118c0565b600082815260fb6020526040902060010154610a6d8133611765565b6108348383611a67565b6000610a8283611124565b8210610ae45760405162461bcd60e51b815260206004820152602b60248201527f455243373231456e756d657261626c653a206f776e657220696e646578206f7560448201526a74206f6620626f756e647360a81b60648201526084016106fe565b506001600160a01b03919091166000908152609760209081526040808320938352929052205490565b6001600160a01b0381163314610b7d5760405162461bcd60e51b815260206004820152602f60248201527f416363657373436f6e74726f6c3a2063616e206f6e6c792072656e6f756e636560448201526e103937b632b9903337b91039b2b63360891b60648201526084016106fe565b610b878282611aed565b5050565b600080516020613626833981519152610ba48133611765565b5061016b55565b600080516020613686833981519152610bc48133611765565b610bcc611b54565b50565b6108348383836040518060200160405280600081525061156d565b610bf333610a24565b610c585760405162461bcd60e51b815260206004820152603060248201527f4552433732314275726e61626c653a2063616c6c6572206973206e6f74206f7760448201526f1b995c881b9bdc88185c1c1c9bdd995960821b60648201526084016106fe565b610bcc81611be7565b60005b8181101561083457610c7583610eba565b80610c7f816130c4565b915050610c64565b6000818152606760205260408120546001600160a01b0316610cf75760405162461bcd60e51b8152602060048201526024808201527f446973636f756e7420717565727920666f72206e6f6e6578697374656e74207460448201526337b5b2b760e11b60648201526084016106fe565b61016c5461015f5414610d445760405162461bcd60e51b81526020600482015260156024820152744d696e74696e67206973207374696c6c206c69766560581b60448201526064016106fe565b610d5061016083611c8e565b15610d5d57506005919050565b610d6961016283611c8e565b15610d765750600a919050565b610d8261016483611c8e565b15610d8f5750600f919050565b610d9b61016683611c8e565b15610da857506014919050565b506000919050565b6000610dbb60995490565b8210610e1e5760405162461bcd60e51b815260206004820152602c60248201527f455243373231456e756d657261626c653a20676c6f62616c20696e646578206f60448201526b7574206f6620626f756e647360a01b60648201526084016106fe565b60998281548110610e3157610e31613098565b90600052602060002001549050919050565b6000818152606760205260408120546001600160a01b0316806105f15760405162461bcd60e51b815260206004820152602960248201527f4552433732313a206f776e657220717565727920666f72206e6f6e657869737460448201526832b73a103a37b5b2b760b91b60648201526084016106fe565b61016a54610168546001600160a01b031663dd62ed3e336040516001600160e01b031960e084901b1681526001600160a01b03909116600482015230602482015260440160206040518083038186803b158015610f1657600080fd5b505afa158015610f2a573d6000803e3d6000fd5b505050506040513d601f19601f82011682018060405250810190610f4e9190613130565b1015610f9c5760405162461bcd60e51b815260206004820152601c60248201527f496e73756666696369656e7420315553444320616c6c6f77616e63650000000060448201526064016106fe565b61016a54610168546001600160a01b03166370a08231336040516001600160e01b031960e084901b1681526001600160a01b03909116600482015260240160206040518083038186803b158015610ff257600080fd5b505afa158015611006573d6000803e3d6000fd5b505050506040513d601f19601f8201168201806040525081019061102a9190613130565b10156110785760405162461bcd60e51b815260206004820152601a60248201527f496e73756666696369656e742031555344432062616c616e636500000000000060448201526064016106fe565b610168546001600160a01b03166323b872dd336101695461016a5460405160e085901b6001600160e01b03191681526001600160a01b0393841660048201529290911660248301526044820152606401602060405180830381600087803b1580156110e257600080fd5b505af11580156110f6573d6000803e3d6000fd5b505050506040513d601f19601f8201168201806040525081019061111a9190613149565b50610bcc81611ca9565b60006001600160a01b03821661118f5760405162461bcd60e51b815260206004820152602a60248201527f4552433732313a2062616c616e636520717565727920666f7220746865207a65604482015269726f206164647265737360b01b60648201526084016106fe565b506001600160a01b031660009081526068602052604090205490565b61016d80546111b99061305d565b80601f01602080910402602001604051908101604052809291908181526020018280546111e59061305d565b80156112325780601f1061120757610100808354040283529160200191611232565b820191906000526020600020905b81548152906001019060200180831161121557829003601f168201915b505050505081565b600054610100900460ff166112555760005460ff1615611259565b303b155b6112bc5760405162461bcd60e51b815260206004820152602e60248201527f496e697469616c697a61626c653a20636f6e747261637420697320616c72656160448201526d191e481a5b9a5d1a585b1a5e995960921b60648201526084016106fe565b600054610100900460ff161580156112de576000805461ffff19166101011790555b61132a6040518060400160405280600b81526020016a115b1d995cd51a58dad95d60aa1b8152506040518060400160405280600781526020016611551250d2d15560ca1b815250611d69565b611332611d9a565b61133a611dc3565b611342611d9a565b61134a611d9a565b611355600033611a67565b61136d60008051602061368683398151915233611a67565b61138560008051602061362683398151915233611a67565b61016880546001600160a01b031990811673985458e523db3d53125813ed68c274899e9dfab41790915561016980549091167362efb2caf1f3ee645ff23b004b6e88a9a929b56317905563628b855061016b55678ac7230489e8000061016a5561138861016c55604080516060810190915260378082526135ef602083013980516114199161016d91602090910190612b8e565b5061015f546114315761143161015f80546001019055565b8015610bcc576000805461ff001916905550565b60008051602061368683398151915261145e8133611765565b610bcc611df2565b6060600061147383611124565b905060008167ffffffffffffffff81111561149057611490612dc6565b6040519080825280602002602001820160405280156114b9578160200160208202803683370190505b50905060005b82811015611500576114d18582610a77565b8282815181106114e3576114e3613098565b6020908102919091010152806114f8816130c4565b9150506114bf565b509392505050565b600091825260fb602090815260408084206001600160a01b0393909316845291905290205460ff1690565b6060606680546106069061305d565b610b87338383611e6d565b6000805160206136268339815191526115668133611765565b5061016c55565b61157733836117c9565b6115935760405162461bcd60e51b81526004016106fe906130df565b61159f84848484611f3c565b50505050565b606060006115b283610c87565b9050600061016c546115c461015f5490565b146115ee576040518060400160405280600781526020016670656e64696e6760c81b815250611617565b6115f782611f6f565b6040516020016116079190613182565b6040516020818303038152906040525b9050600061016d61162784611f6f565b6040516020016116389291906131a7565b6040516020818303038152906040529050600061165486611f6f565b828460405160200161166893929190613245565b60405160208183030381529060405290506116828161206d565b6040516020016116929190613384565b604051602081830303815290604052945050505050919050565b600082815260fb60205260409020600101546116c88133611765565b6108348383611aed565b60006001600160e01b03198216637965db0b60e01b14806105f157506105f1826121c1565b600081815260696020526040902080546001600160a01b0319166001600160a01b038416908117909155819061172c82610e43565b6001600160a01b03167f8c5be1e5ebec7d5bd14f71427d1e84f3dd0314c0f7b2291e5b200ac8c7c3b92560405160405180910390a45050565b61176f8282611508565b610b8757611787816001600160a01b031660146121e6565b6117928360206121e6565b6040516020016117a39291906133c9565b60408051601f198184030181529082905262461bcd60e51b82526106fe91600401612cd0565b6000818152606760205260408120546001600160a01b03166118425760405162461bcd60e51b815260206004820152602c60248201527f4552433732313a206f70657261746f7220717565727920666f72206e6f6e657860448201526b34b9ba32b73a103a37b5b2b760a11b60648201526084016106fe565b600061184d83610e43565b9050806001600160a01b0316846001600160a01b031614806118885750836001600160a01b031661187d84610689565b6001600160a01b0316145b806118b857506001600160a01b038082166000908152606a602090815260408083209388168352929052205460ff165b949350505050565b826001600160a01b03166118d382610e43565b6001600160a01b0316146119375760405162461bcd60e51b815260206004820152602560248201527f4552433732313a207472616e736665722066726f6d20696e636f72726563742060448201526437bbb732b960d91b60648201526084016106fe565b6001600160a01b0382166119995760405162461bcd60e51b8152602060048201526024808201527f4552433732313a207472616e7366657220746f20746865207a65726f206164646044820152637265737360e01b60648201526084016106fe565b6119a4838383612382565b6119af6000826116f7565b6001600160a01b03831660009081526068602052604081208054600192906119d890849061343e565b90915550506001600160a01b0382166000908152606860205260408120805460019290611a06908490613455565b909155505060008181526067602052604080822080546001600160a01b0319166001600160a01b0386811691821790925591518493918716917fddf252ad1be2c89b69c2b068fc378daa952ba7f163c4a11628f55a4df523b3ef91a4505050565b611a718282611508565b610b8757600082815260fb602090815260408083206001600160a01b03851684529091529020805460ff19166001179055611aa93390565b6001600160a01b0316816001600160a01b0316837f2f8788117e7eff1d82e926ec794901d17c78024a50270940304540a733656f0d60405160405180910390a45050565b611af78282611508565b15610b8757600082815260fb602090815260408083206001600160a01b0385168085529252808320805460ff1916905551339285917ff6391f5c32d9c69d2a47ea670b442974b53935d1edc7fd64eb21e047a839171b9190a45050565b60c95460ff16611b9d5760405162461bcd60e51b815260206004820152601460248201527314185d5cd8589b194e881b9bdd081c185d5cd95960621b60448201526064016106fe565b60c9805460ff191690557f5db9ee0a495bf2e6ff9c91a7834c1ba4fdd244a5e8aa4e537bd38aeae4b073aa335b6040516001600160a01b03909116815260200160405180910390a1565b6000611bf282610e43565b9050611c0081600084612382565b611c0b6000836116f7565b6001600160a01b0381166000908152606860205260408120805460019290611c3490849061343e565b909155505060008281526067602052604080822080546001600160a01b0319169055518391906001600160a01b038416907fddf252ad1be2c89b69c2b068fc378daa952ba7f163c4a11628f55a4df523b3ef908390a45050565b600081815260018301602052604081205415155b9392505050565b6000611cb561015f5490565b90504261016b541015611d0a5760405162461bcd60e51b815260206004820152601860248201527f4d696e7420686173206e6f74207374617274656420796574000000000000000060448201526064016106fe565b61016c548110611d475760405162461bcd60e51b815260206004820152600860248201526714dbdb19081bdd5d60c21b60448201526064016106fe565b611d5661015f80546001019055565b611d6082826123d3565b610b87816123ed565b600054610100900460ff16611d905760405162461bcd60e51b81526004016106fe9061346d565b610b87828261255a565b600054610100900460ff16611dc15760405162461bcd60e51b81526004016106fe9061346d565b565b600054610100900460ff16611dea5760405162461bcd60e51b81526004016106fe9061346d565b611dc16125a8565b60c95460ff1615611e385760405162461bcd60e51b815260206004820152601060248201526f14185d5cd8589b194e881c185d5cd95960821b60448201526064016106fe565b60c9805460ff191660011790557f62e78cea01bee320cd4e420270b5ea74000d11b0c9f74754ebdbfc544b05a258611bca3390565b816001600160a01b0316836001600160a01b03161415611ecf5760405162461bcd60e51b815260206004820152601960248201527f4552433732313a20617070726f766520746f2063616c6c65720000000000000060448201526064016106fe565b6001600160a01b038381166000818152606a6020908152604080832094871680845294825291829020805460ff191686151590811790915591519182527f17307eab39ab6107e8899845ad3d59bd9653f200f220920489ca2b5937696c31910160405180910390a3505050565b611f478484846118c0565b611f53848484846125db565b61159f5760405162461bcd60e51b81526004016106fe906134b8565b606081611f935750506040805180820190915260018152600360fc1b602082015290565b8160005b8115611fbd5780611fa7816130c4565b9150611fb69050600a83613520565b9150611f97565b60008167ffffffffffffffff811115611fd857611fd8612dc6565b6040519080825280601f01601f191660200182016040528015612002576020820181803683370190505b5090505b84156118b85761201760018361343e565b9150612024600a86613534565b61202f906030613455565b60f81b81838151811061204457612044613098565b60200101906001600160f81b031916908160001a905350612066600a86613520565b9450612006565b606081516000141561208d57505060408051602081019091526000815290565b600060405180606001604052806040815260200161364660409139905060006003845160026120bc9190613455565b6120c69190613520565b6120d1906004613548565b67ffffffffffffffff8111156120e9576120e9612dc6565b6040519080825280601f01601f191660200182016040528015612113576020820181803683370190505b509050600182016020820185865187015b8082101561217f576003820191508151603f8160121c168501518453600184019350603f81600c1c168501518453600184019350603f8160061c168501518453600184019350603f8116850151845350600183019250612124565b505060038651066001811461219b57600281146121ae576121b6565b603d6001830353603d60028303536121b6565b603d60018303535b509195945050505050565b60006001600160e01b0319821663780e9d6360e01b14806105f157506105f1826126e8565b606060006121f5836002613548565b612200906002613455565b67ffffffffffffffff81111561221857612218612dc6565b6040519080825280601f01601f191660200182016040528015612242576020820181803683370190505b509050600360fc1b8160008151811061225d5761225d613098565b60200101906001600160f81b031916908160001a905350600f60fb1b8160018151811061228c5761228c613098565b60200101906001600160f81b031916908160001a90535060006122b0846002613548565b6122bb906001613455565b90505b6001811115612333576f181899199a1a9b1b9c1cb0b131b232b360811b85600f16601081106122ef576122ef613098565b1a60f81b82828151811061230557612305613098565b60200101906001600160f81b031916908160001a90535060049490941c9361232c81613567565b90506122be565b508315611ca25760405162461bcd60e51b815260206004820181905260248201527f537472696e67733a20686578206c656e67746820696e73756666696369656e7460448201526064016106fe565b60c95460ff16156123c85760405162461bcd60e51b815260206004820152601060248201526f14185d5cd8589b194e881c185d5cd95960821b60448201526064016106fe565b610834838383612738565b610b878282604051806020016040528060008152506127f0565b60006123f7612823565b604080516020810183905290810184905243606082015242608082015290915060009060a00160408051601f198184030181529190528051602090910120905060006124456103e883613534565b90506103de811061247b57603261245d61016661284b565b10156124765761246f61016685612855565b5050505050565b506103dd5b6103b6811015801561248e57506103de81105b156124b75760c86124a061016461284b565b10156124b25761246f61016485612855565b506103b55b6102ee81101580156124ca57506103b681105b156124ef576103e86124dd61016261284b565b10156124ef5761246f61016285612855565b610ea66124fd61016061284b565b101561250f5761246f61016085612855565b6103e861251d61016261284b565b101561252f5761246f61016285612855565b60c861253c61016461284b565b101561254e5761246f61016485612855565b61246f61016685612855565b600054610100900460ff166125815760405162461bcd60e51b81526004016106fe9061346d565b8151612594906065906020850190612b8e565b508051610834906066906020840190612b8e565b600054610100900460ff166125cf5760405162461bcd60e51b81526004016106fe9061346d565b60c9805460ff19169055565b60006001600160a01b0384163b156126dd57604051630a85bd0160e11b81526001600160a01b0385169063150b7a029061261f90339089908890889060040161357e565b602060405180830381600087803b15801561263957600080fd5b505af1925050508015612669575060408051601f3d908101601f19168201909252612666918101906135bb565b60015b6126c3573d808015612697576040519150601f19603f3d011682016040523d82523d6000602084013e61269c565b606091505b5080516126bb5760405162461bcd60e51b81526004016106fe906134b8565b805181602001fd5b6001600160e01b031916630a85bd0160e11b1490506118b8565b506001949350505050565b60006001600160e01b031982166380ac58cd60e01b148061271957506001600160e01b03198216635b5e139f60e01b145b806105f157506301ffc9a760e01b6001600160e01b03198316146105f1565b6001600160a01b0383166127935761278e81609980546000838152609a60205260408120829055600182018355919091527f72a152ddfb8e864297c917af52ea6c1c68aead0fee1a62673fcc7e0c94979d000155565b6127b6565b816001600160a01b0316836001600160a01b0316146127b6576127b68382612861565b6001600160a01b0382166127cd57610834816128fe565b826001600160a01b0316826001600160a01b0316146108345761083482826129ad565b6127fa83836129f1565b61280760008484846125db565b6108345760405162461bcd60e51b81526004016106fe906134b8565b600061282d612c12565b438152604051602081818460ff600019fa61284457fe5b5192915050565b60006105f1825490565b6000611ca28383612b3f565b6000600161286e84611124565b612878919061343e565b6000838152609860205260409020549091508082146128cb576001600160a01b03841660009081526097602090815260408083208584528252808320548484528184208190558352609890915290208190555b5060009182526098602090815260408084208490556001600160a01b039094168352609781528383209183525290812055565b6099546000906129109060019061343e565b6000838152609a60205260408120546099805493945090928490811061293857612938613098565b90600052602060002001549050806099838154811061295957612959613098565b6000918252602080832090910192909255828152609a90915260408082208490558582528120556099805480612991576129916135d8565b6001900381819060005260206000200160009055905550505050565b60006129b883611124565b6001600160a01b039093166000908152609760209081526040808320868452825280832085905593825260989052919091209190915550565b6001600160a01b038216612a475760405162461bcd60e51b815260206004820181905260248201527f4552433732313a206d696e7420746f20746865207a65726f206164647265737360448201526064016106fe565b6000818152606760205260409020546001600160a01b031615612aac5760405162461bcd60e51b815260206004820152601c60248201527f4552433732313a20746f6b656e20616c7265616479206d696e7465640000000060448201526064016106fe565b612ab860008383612382565b6001600160a01b0382166000908152606860205260408120805460019290612ae1908490613455565b909155505060008181526067602052604080822080546001600160a01b0319166001600160a01b03861690811790915590518392907fddf252ad1be2c89b69c2b068fc378daa952ba7f163c4a11628f55a4df523b3ef908290a45050565b6000818152600183016020526040812054612b86575081546001818101845560008481526020808220909301849055845484825282860190935260409020919091556105f1565b5060006105f1565b828054612b9a9061305d565b90600052602060002090601f016020900481019282612bbc5760008555612c02565b82601f10612bd557805160ff1916838001178555612c02565b82800160010185558215612c02579182015b82811115612c02578251825591602001919060010190612be7565b50612c0e929150612c30565b5090565b60405180602001604052806001906020820280368337509192915050565b5b80821115612c0e5760008155600101612c31565b6001600160e01b031981168114610bcc57600080fd5b600060208284031215612c6d57600080fd5b8135611ca281612c45565b60005b83811015612c93578181015183820152602001612c7b565b8381111561159f5750506000910152565b60008151808452612cbc816020860160208601612c78565b601f01601f19169290920160200192915050565b602081526000611ca26020830184612ca4565b600060208284031215612cf557600080fd5b5035919050565b80356001600160a01b0381168114612d1357600080fd5b919050565b60008060408385031215612d2b57600080fd5b612d3483612cfc565b946020939093013593505050565b600060208284031215612d5457600080fd5b611ca282612cfc565b600081518084526020808501945080840160005b83811015612d8d57815187529582019590820190600101612d71565b509495945050505050565b604081526000612dab6040830185612d5d565b8281036020840152612dbd8185612d5d565b95945050505050565b634e487b7160e01b600052604160045260246000fd5b604051601f8201601f1916810167ffffffffffffffff81118282101715612e0557612e05612dc6565b604052919050565b60006020808385031215612e2057600080fd5b823567ffffffffffffffff80821115612e3857600080fd5b818501915085601f830112612e4c57600080fd5b813581811115612e5e57612e5e612dc6565b8060051b9150612e6f848301612ddc565b8181529183018401918481019088841115612e8957600080fd5b938501935b83851015612ea757843582529385019390850190612e8e565b98975050505050505050565b602081526000611ca26020830184612d5d565b600080600060608486031215612edb57600080fd5b612ee484612cfc565b9250612ef260208501612cfc565b9150604084013590509250925092565b60008060408385031215612f1557600080fd5b82359150612f2560208401612cfc565b90509250929050565b8015158114610bcc57600080fd5b60008060408385031215612f4f57600080fd5b612f5883612cfc565b91506020830135612f6881612f2e565b809150509250929050565b60008060008060808587031215612f8957600080fd5b612f9285612cfc565b93506020612fa1818701612cfc565b935060408601359250606086013567ffffffffffffffff80821115612fc557600080fd5b818801915088601f830112612fd957600080fd5b813581811115612feb57612feb612dc6565b612ffd601f8201601f19168501612ddc565b9150808252898482850101111561301357600080fd5b808484018584013760008482840101525080935050505092959194509250565b6000806040838503121561304657600080fd5b61304f83612cfc565b9150612f2560208401612cfc565b600181811c9082168061307157607f821691505b6020821081141561309257634e487b7160e01b600052602260045260246000fd5b50919050565b634e487b7160e01b600052603260045260246000fd5b634e487b7160e01b600052601160045260246000fd5b60006000198214156130d8576130d86130ae565b5060010190565b60208082526031908201527f4552433732313a207472616e736665722063616c6c6572206973206e6f74206f6040820152701ddb995c881b9bdc88185c1c1c9bdd9959607a1b606082015260800190565b60006020828403121561314257600080fd5b5051919050565b60006020828403121561315b57600080fd5b8151611ca281612f2e565b60008151613178818560208601612c78565b9290920192915050565b60008251613194818460208701612c78565b602560f81b920191825250600101919050565b600080845481600182811c9150808316806131c357607f831692505b60208084108214156131e357634e487b7160e01b86526022600452602486fd5b8180156131f7576001811461320857613235565b60ff19861689528489019650613235565b60008b81526020902060005b8681101561322d5781548b820152908501908301613214565b505084890196505b505050505050612dbd8185613166565b6000607b60f81b8083527f226e616d65223a2022436f736d696320456c76657320446973636f756e74205460018401526669636b6574202360c81b60218401528551613298816028860160208a01612c78565b61088b60f21b6028918501918201819052691134b6b0b3b2911d101160b11b602a83015286516132cf816034850160208b01612c78565b60349201918201526e2261747472696275746573223a205b60881b60368201526045810182905261337961336b61335e61335161334b613335604687017f2274726169745f74797065223a2022646973636f756e74222c00000000000000815260190190565b69113b30b63ab2911d101160b11b8152600a0190565b89613166565b601160f91b815260010190565b607d60f81b815260010190565b615d7d60f01b815260020190565b979650505050505050565b7f646174613a6170706c69636174696f6e2f6a736f6e3b6261736536342c0000008152600082516133bc81601d850160208701612c78565b91909101601d0192915050565b7f416363657373436f6e74726f6c3a206163636f756e7420000000000000000000815260008351613401816017850160208801612c78565b7001034b99036b4b9b9b4b733903937b6329607d1b6017918401918201528351613432816028840160208801612c78565b01602801949350505050565b600082821015613450576134506130ae565b500390565b60008219821115613468576134686130ae565b500190565b6020808252602b908201527f496e697469616c697a61626c653a20636f6e7472616374206973206e6f74206960408201526a6e697469616c697a696e6760a81b606082015260800190565b60208082526032908201527f4552433732313a207472616e7366657220746f206e6f6e20455243373231526560408201527131b2b4bb32b91034b6b83632b6b2b73a32b960711b606082015260800190565b634e487b7160e01b600052601260045260246000fd5b60008261352f5761352f61350a565b500490565b6000826135435761354361350a565b500690565b6000816000190483118215151615613562576135626130ae565b500290565b600081613576576135766130ae565b506000190190565b6001600160a01b03858116825284166020820152604081018390526080606082018190526000906135b190830184612ca4565b9695505050505050565b6000602082840312156135cd57600080fd5b8151611ca281612c45565b634e487b7160e01b600052603160045260246000fdfe68747470733a2f2f696d616765732e636f736d6963756e6976657273652e6f6e652f636f736d69632d656c7665732d7469636b6574732f73e573f9566d61418a34d5de3ff49360f9c51fec37f7486551670290f6285dab4142434445464748494a4b4c4d4e4f505152535455565758595a6162636465666768696a6b6c6d6e6f707172737475767778797a303132333435363738392b2f65d7a28e3265b37a6474929f336521b332c1681b933f6cb9f3376673440d862aa264697066735822122032cd4b0f3c31bccda5ce62c3a753039aa61099307a202df89d9910af90d0a5e464736f6c63430008090033",
  "linkReferences": {},
  "deployedLinkReferences": {}
}