{
  "_format": "hh-sol-artifact-1",
  "contractName": "CosmicElvesTicketUpgradeable",
  "sourceName": "contracts/upgradeable/ERC721/CosmicElvesTicketUpgradeable.sol",
  "abi": [
    {
      "inputs": [],
      "stateMutability": "nonpayable",
      "type": "constructor"
    },
    {
      "anonymous": false,
      "inputs": [
        {
          "indexed": true,
          "internalType": "address",
          "name": "owner",
          "type": "address"
        },
        {
          "indexed": true,
          "internalType": "address",
          "name": "approved",
          "type": "address"
        },
        {
          "indexed": true,
          "internalType": "uint256",
          "name": "tokenId",
          "type": "uint256"
        }
      ],
      "name": "Approval",
      "type": "event"
    },
    {
      "anonymous": false,
      "inputs": [
        {
          "indexed": true,
          "internalType": "address",
          "name": "owner",
          "type": "address"
        },
        {
          "indexed": true,
          "internalType": "address",
          "name": "operator",
          "type": "address"
        },
        {
          "indexed": false,
          "internalType": "bool",
          "name": "approved",
          "type": "bool"
        }
      ],
      "name": "ApprovalForAll",
      "type": "event"
    },
    {
      "anonymous": false,
      "inputs": [
        {
          "indexed": false,
          "internalType": "uint8",
          "name": "version",
          "type": "uint8"
        }
      ],
      "name": "Initialized",
      "type": "event"
    },
    {
      "anonymous": false,
      "inputs": [
        {
          "indexed": false,
          "internalType": "address",
          "name": "account",
          "type": "address"
        }
      ],
      "name": "Paused",
      "type": "event"
    },
    {
      "anonymous": false,
      "inputs": [
        {
          "indexed": true,
          "internalType": "bytes32",
          "name": "role",
          "type": "bytes32"
        },
        {
          "indexed": true,
          "internalType": "bytes32",
          "name": "previousAdminRole",
          "type": "bytes32"
        },
        {
          "indexed": true,
          "internalType": "bytes32",
          "name": "newAdminRole",
          "type": "bytes32"
        }
      ],
      "name": "RoleAdminChanged",
      "type": "event"
    },
    {
      "anonymous": false,
      "inputs": [
        {
          "indexed": true,
          "internalType": "bytes32",
          "name": "role",
          "type": "bytes32"
        },
        {
          "indexed": true,
          "internalType": "address",
          "name": "account",
          "type": "address"
        },
        {
          "indexed": true,
          "internalType": "address",
          "name": "sender",
          "type": "address"
        }
      ],
      "name": "RoleGranted",
      "type": "event"
    },
    {
      "anonymous": false,
      "inputs": [
        {
          "indexed": true,
          "internalType": "bytes32",
          "name": "role",
          "type": "bytes32"
        },
        {
          "indexed": true,
          "internalType": "address",
          "name": "account",
          "type": "address"
        },
        {
          "indexed": true,
          "internalType": "address",
          "name": "sender",
          "type": "address"
        }
      ],
      "name": "RoleRevoked",
      "type": "event"
    },
    {
      "anonymous": false,
      "inputs": [
        {
          "indexed": true,
          "internalType": "address",
          "name": "from",
          "type": "address"
        },
        {
          "indexed": true,
          "internalType": "address",
          "name": "to",
          "type": "address"
        },
        {
          "indexed": true,
          "internalType": "uint256",
          "name": "tokenId",
          "type": "uint256"
        }
      ],
      "name": "Transfer",
      "type": "event"
    },
    {
      "anonymous": false,
      "inputs": [
        {
          "indexed": false,
          "internalType": "address",
          "name": "account",
          "type": "address"
        }
      ],
      "name": "Unpaused",
      "type": "event"
    },
    {
      "inputs": [],
      "name": "DEFAULT_ADMIN_ROLE",
      "outputs": [
        {
          "internalType": "bytes32",
          "name": "",
          "type": "bytes32"
        }
      ],
      "stateMutability": "view",
      "type": "function"
    },
    {
      "inputs": [],
      "name": "PAUSER_ROLE",
      "outputs": [
        {
          "internalType": "bytes32",
          "name": "",
          "type": "bytes32"
        }
      ],
      "stateMutability": "view",
      "type": "function"
    },
    {
      "inputs": [],
      "name": "UPDATER_ROLE",
      "outputs": [
        {
          "internalType": "bytes32",
          "name": "",
          "type": "bytes32"
        }
      ],
      "stateMutability": "view",
      "type": "function"
    },
    {
      "inputs": [
        {
          "internalType": "address",
          "name": "_address",
          "type": "address"
        }
      ],
      "name": "addBlacklist",
      "outputs": [],
      "stateMutability": "nonpayable",
      "type": "function"
    },
    {
      "inputs": [
        {
          "internalType": "address",
          "name": "to",
          "type": "address"
        },
        {
          "internalType": "uint256",
          "name": "tokenId",
          "type": "uint256"
        }
      ],
      "name": "approve",
      "outputs": [],
      "stateMutability": "nonpayable",
      "type": "function"
    },
    {
      "inputs": [
        {
          "internalType": "address",
          "name": "owner",
          "type": "address"
        }
      ],
      "name": "balanceOf",
      "outputs": [
        {
          "internalType": "uint256",
          "name": "",
          "type": "uint256"
        }
      ],
      "stateMutability": "view",
      "type": "function"
    },
    {
      "inputs": [
        {
          "internalType": "uint256[]",
          "name": "tokenIds",
          "type": "uint256[]"
        }
      ],
      "name": "batchDiscountOf",
      "outputs": [
        {
          "internalType": "uint256[]",
          "name": "",
          "type": "uint256[]"
        }
      ],
      "stateMutability": "view",
      "type": "function"
    },
    {
      "inputs": [
        {
          "internalType": "address",
          "name": "to",
          "type": "address"
        },
        {
          "internalType": "uint256",
          "name": "amount",
          "type": "uint256"
        }
      ],
      "name": "batchMint",
      "outputs": [],
      "stateMutability": "nonpayable",
      "type": "function"
    },
    {
      "inputs": [
        {
          "internalType": "uint256",
          "name": "tokenId",
          "type": "uint256"
        }
      ],
      "name": "burn",
      "outputs": [],
      "stateMutability": "nonpayable",
      "type": "function"
    },
    {
      "inputs": [],
      "name": "cap",
      "outputs": [
        {
          "internalType": "uint256",
          "name": "",
          "type": "uint256"
        }
      ],
      "stateMutability": "view",
      "type": "function"
    },
    {
      "inputs": [
        {
          "internalType": "uint256",
          "name": "tokenId",
          "type": "uint256"
        }
      ],
      "name": "discountOf",
      "outputs": [
        {
          "internalType": "uint256",
          "name": "discount",
          "type": "uint256"
        }
      ],
      "stateMutability": "view",
      "type": "function"
    },
    {
      "inputs": [
        {
          "internalType": "uint256",
          "name": "tokenId",
          "type": "uint256"
        }
      ],
      "name": "getApproved",
      "outputs": [
        {
          "internalType": "address",
          "name": "",
          "type": "address"
        }
      ],
      "stateMutability": "view",
      "type": "function"
    },
    {
      "inputs": [
        {
          "internalType": "bytes32",
          "name": "role",
          "type": "bytes32"
        }
      ],
      "name": "getRoleAdmin",
      "outputs": [
        {
          "internalType": "bytes32",
          "name": "",
          "type": "bytes32"
        }
      ],
      "stateMutability": "view",
      "type": "function"
    },
    {
      "inputs": [
        {
          "internalType": "bytes32",
          "name": "role",
          "type": "bytes32"
        },
        {
          "internalType": "address",
          "name": "account",
          "type": "address"
        }
      ],
      "name": "grantRole",
      "outputs": [],
      "stateMutability": "nonpayable",
      "type": "function"
    },
    {
      "inputs": [
        {
          "internalType": "bytes32",
          "name": "role",
          "type": "bytes32"
        },
        {
          "internalType": "address",
          "name": "account",
          "type": "address"
        }
      ],
      "name": "hasRole",
      "outputs": [
        {
          "internalType": "bool",
          "name": "",
          "type": "bool"
        }
      ],
      "stateMutability": "view",
      "type": "function"
    },
    {
      "inputs": [],
      "name": "imageBaseURI",
      "outputs": [
        {
          "internalType": "string",
          "name": "",
          "type": "string"
        }
      ],
      "stateMutability": "view",
      "type": "function"
    },
    {
      "inputs": [],
      "name": "initialize",
      "outputs": [],
      "stateMutability": "nonpayable",
      "type": "function"
    },
    {
      "inputs": [
        {
          "internalType": "address",
          "name": "owner",
          "type": "address"
        },
        {
          "internalType": "address",
          "name": "operator",
          "type": "address"
        }
      ],
      "name": "isApprovedForAll",
      "outputs": [
        {
          "internalType": "bool",
          "name": "",
          "type": "bool"
        }
      ],
      "stateMutability": "view",
      "type": "function"
    },
    {
      "inputs": [
        {
          "internalType": "address",
          "name": "to",
          "type": "address"
        }
      ],
      "name": "mint",
      "outputs": [],
      "stateMutability": "nonpayable",
      "type": "function"
    },
    {
      "inputs": [],
      "name": "name",
      "outputs": [
        {
          "internalType": "string",
          "name": "",
          "type": "string"
        }
      ],
      "stateMutability": "view",
      "type": "function"
    },
    {
      "inputs": [
        {
          "internalType": "uint256",
          "name": "tokenId",
          "type": "uint256"
        }
      ],
      "name": "ownerOf",
      "outputs": [
        {
          "internalType": "address",
          "name": "",
          "type": "address"
        }
      ],
      "stateMutability": "view",
      "type": "function"
    },
    {
      "inputs": [],
      "name": "pause",
      "outputs": [],
      "stateMutability": "nonpayable",
      "type": "function"
    },
    {
      "inputs": [],
      "name": "paused",
      "outputs": [
        {
          "internalType": "bool",
          "name": "",
          "type": "bool"
        }
      ],
      "stateMutability": "view",
      "type": "function"
    },
    {
      "inputs": [],
      "name": "price",
      "outputs": [
        {
          "internalType": "uint256",
          "name": "",
          "type": "uint256"
        }
      ],
      "stateMutability": "view",
      "type": "function"
    },
    {
      "inputs": [
        {
          "internalType": "address",
          "name": "_address",
          "type": "address"
        }
      ],
      "name": "removeBlacklist",
      "outputs": [],
      "stateMutability": "nonpayable",
      "type": "function"
    },
    {
      "inputs": [
        {
          "internalType": "bytes32",
          "name": "role",
          "type": "bytes32"
        },
        {
          "internalType": "address",
          "name": "account",
          "type": "address"
        }
      ],
      "name": "renounceRole",
      "outputs": [],
      "stateMutability": "nonpayable",
      "type": "function"
    },
    {
      "inputs": [
        {
          "internalType": "bytes32",
          "name": "role",
          "type": "bytes32"
        },
        {
          "internalType": "address",
          "name": "account",
          "type": "address"
        }
      ],
      "name": "revokeRole",
      "outputs": [],
      "stateMutability": "nonpayable",
      "type": "function"
    },
    {
      "inputs": [
        {
          "internalType": "address",
          "name": "from",
          "type": "address"
        },
        {
          "internalType": "address",
          "name": "to",
          "type": "address"
        },
        {
          "internalType": "uint256",
          "name": "tokenId",
          "type": "uint256"
        }
      ],
      "name": "safeTransferFrom",
      "outputs": [],
      "stateMutability": "nonpayable",
      "type": "function"
    },
    {
      "inputs": [
        {
          "internalType": "address",
          "name": "from",
          "type": "address"
        },
        {
          "internalType": "address",
          "name": "to",
          "type": "address"
        },
        {
          "internalType": "uint256",
          "name": "tokenId",
          "type": "uint256"
        },
        {
          "internalType": "bytes",
          "name": "_data",
          "type": "bytes"
        }
      ],
      "name": "safeTransferFrom",
      "outputs": [],
      "stateMutability": "nonpayable",
      "type": "function"
    },
    {
      "inputs": [
        {
          "internalType": "address",
          "name": "operator",
          "type": "address"
        },
        {
          "internalType": "bool",
          "name": "approved",
          "type": "bool"
        }
      ],
      "name": "setApprovalForAll",
      "outputs": [],
      "stateMutability": "nonpayable",
      "type": "function"
    },
    {
      "inputs": [
        {
          "internalType": "uint256",
          "name": "_cap",
          "type": "uint256"
        }
      ],
      "name": "setCap",
      "outputs": [],
      "stateMutability": "nonpayable",
      "type": "function"
    },
    {
      "inputs": [
        {
          "internalType": "uint256",
          "name": "time",
          "type": "uint256"
        }
      ],
      "name": "setStartTime",
      "outputs": [],
      "stateMutability": "nonpayable",
      "type": "function"
    },
    {
      "inputs": [
        {
          "internalType": "uint256",
          "name": "_price",
          "type": "uint256"
        }
      ],
      "name": "setTicketPrice",
      "outputs": [],
      "stateMutability": "nonpayable",
      "type": "function"
    },
    {
      "inputs": [],
      "name": "startTime",
      "outputs": [
        {
          "internalType": "uint256",
          "name": "",
          "type": "uint256"
        }
      ],
      "stateMutability": "view",
      "type": "function"
    },
    {
      "inputs": [
        {
          "internalType": "bytes4",
          "name": "interfaceId",
          "type": "bytes4"
        }
      ],
      "name": "supportsInterface",
      "outputs": [
        {
          "internalType": "bool",
          "name": "",
          "type": "bool"
        }
      ],
      "stateMutability": "view",
      "type": "function"
    },
    {
      "inputs": [],
      "name": "symbol",
      "outputs": [
        {
          "internalType": "string",
          "name": "",
          "type": "string"
        }
      ],
      "stateMutability": "view",
      "type": "function"
    },
    {
      "inputs": [
        {
          "internalType": "uint256",
          "name": "index",
          "type": "uint256"
        }
      ],
      "name": "tokenByIndex",
      "outputs": [
        {
          "internalType": "uint256",
          "name": "",
          "type": "uint256"
        }
      ],
      "stateMutability": "view",
      "type": "function"
    },
    {
      "inputs": [
        {
          "internalType": "address",
          "name": "owner",
          "type": "address"
        },
        {
          "internalType": "uint256",
          "name": "index",
          "type": "uint256"
        }
      ],
      "name": "tokenOfOwnerByIndex",
      "outputs": [
        {
          "internalType": "uint256",
          "name": "",
          "type": "uint256"
        }
      ],
      "stateMutability": "view",
      "type": "function"
    },
    {
      "inputs": [
        {
          "internalType": "uint256",
          "name": "tokenId",
          "type": "uint256"
        }
      ],
      "name": "tokenURI",
      "outputs": [
        {
          "internalType": "string",
          "name": "",
          "type": "string"
        }
      ],
      "stateMutability": "view",
      "type": "function"
    },
    {
      "inputs": [
        {
          "internalType": "address",
          "name": "_address",
          "type": "address"
        }
      ],
      "name": "tokensAndDiscountsOfOwner",
      "outputs": [
        {
          "internalType": "uint256[]",
          "name": "tokens",
          "type": "uint256[]"
        },
        {
          "internalType": "uint256[]",
          "name": "discounts",
          "type": "uint256[]"
        }
      ],
      "stateMutability": "view",
      "type": "function"
    },
    {
      "inputs": [
        {
          "internalType": "address",
          "name": "_address",
          "type": "address"
        }
      ],
      "name": "tokensOfOwner",
      "outputs": [
        {
          "internalType": "uint256[]",
          "name": "",
          "type": "uint256[]"
        }
      ],
      "stateMutability": "view",
      "type": "function"
    },
    {
      "inputs": [],
      "name": "totalSupply",
      "outputs": [
        {
          "internalType": "uint256",
          "name": "",
          "type": "uint256"
        }
      ],
      "stateMutability": "view",
      "type": "function"
    },
    {
      "inputs": [
        {
          "internalType": "address",
          "name": "from",
          "type": "address"
        },
        {
          "internalType": "address",
          "name": "to",
          "type": "address"
        },
        {
          "internalType": "uint256",
          "name": "tokenId",
          "type": "uint256"
        }
      ],
      "name": "transferFrom",
      "outputs": [],
      "stateMutability": "nonpayable",
      "type": "function"
    },
    {
      "inputs": [],
      "name": "treasuryAddress",
      "outputs": [
        {
          "internalType": "address",
          "name": "",
          "type": "address"
        }
      ],
      "stateMutability": "view",
      "type": "function"
    },
    {
      "inputs": [],
      "name": "unpause",
      "outputs": [],
      "stateMutability": "nonpayable",
      "type": "function"
    },
    {
      "inputs": [],
      "name": "usdc",
      "outputs": [
        {
          "internalType": "contract IERC20Upgradeable",
          "name": "",
          "type": "address"
        }
      ],
      "stateMutability": "view",
      "type": "function"
    }
  ],
  "bytecode": "0x608060405234801561001057600080fd5b506137e3806100206000396000f3fe608060405234801561001057600080fd5b506004361061028a5760003560e01c80634f6ccce71161015c57806395d89b41116100ce578063c5f956af11610087578063c5f956af14610580578063c87b56dd14610594578063d547741f146105a7578063e63ab1e9146105ba578063e985e9c5146105cf578063eb91e6511461060b57600080fd5b806395d89b411461052d5780639cfe42da14610535578063a035b1fe14610548578063a217fddf14610552578063a22cb4651461055a578063b88d4fde1461056d57600080fd5b8063776458391161012057806377645839146104e557806378e97925146104ed5780638129fc1c146104f75780638456cb59146104ff5780638462151c1461050757806391d148541461051a57600080fd5b80634f6ccce71461048e5780635c975abb146104a15780636352211e146104ac5780636a627842146104bf57806370a08231146104d257600080fd5b80632f745c591161020057806342842e0e116101b957806342842e0e1461041a57806342966c681461042d57806343508b051461044057806347786d371461045357806347e633801461046657806349299d6e1461047b57600080fd5b80632f745c59146103bb578063355274ea146103ce57806336568abe146103d85780633e0a322d146103eb5780633e413bee146103fe5780633f4ba83a1461041257600080fd5b80631598165011610252578063159816501461032d57806318160ddd146103405780631e9d71011461035257806323b872dd14610372578063248a9ca3146103855780632f2ff15d146103a857600080fd5b806301ffc9a71461028f57806306fdde03146102b7578063081812fc146102cc578063095ea7b3146102f7578063131b71b01461030c575b600080fd5b6102a261029d366004612cb0565b61061e565b60405190151581526020015b60405180910390f35b6102bf61062f565b6040516102ae9190612d25565b6102df6102da366004612d38565b6106c1565b6040516001600160a01b0390911681526020016102ae565b61030a610305366004612d68565b61075b565b005b61031f61031a366004612d92565b610794565b6040516102ae929190612de8565b61030a61033b366004612d38565b6107b2565b6099545b6040519081526020016102ae565b610365610360366004612e5d565b6107d1565b6040516102ae9190612f03565b61030a610380366004612f16565b61087f565b610344610393366004612d38565b600090815260fb602052604090206001015490565b61030a6103b6366004612f52565b6108b1565b6103446103c9366004612d68565b6108d6565b61034461016c5481565b61030a6103e6366004612f52565b61096c565b61030a6103f9366004612d38565b6109ea565b610168546102df906001600160a01b031681565b61030a610a09565b61030a610428366004612f16565b610a2c565b61030a61043b366004612d38565b610a47565b61030a61044e366004612d68565b610abe565b61030a610461366004612d38565b610ae4565b6103446000805160206136f783398151915281565b610344610489366004612d38565b610b03565b61034461049c366004612d38565b610bdf565b60c95460ff166102a2565b6102df6104ba366004612d38565b610c72565b61030a6104cd366004612d92565b610ce9565b6103446104e0366004612d92565b610f76565b6102bf610ffd565b61034461016b5481565b61030a61108c565b61030a611246565b610365610515366004612d92565b611266565b6102a2610528366004612f52565b611308565b6102bf611333565b61030a610543366004612d92565b611342565b61034461016a5481565b610344600081565b61030a610568366004612f8c565b611366565b61030a61057b366004612fc3565b61139a565b610169546102df906001600160a01b031681565b6102bf6105a2366004612d38565b6113d2565b61030a6105b5366004612f52565b6114a0565b61034460008051602061375783398151915281565b6102a26105dd366004613083565b6001600160a01b039182166000908152606a6020908152604080832093909416825291909152205460ff1690565b61030a610619366004612d92565b6114c5565b6000610629826114e9565b92915050565b60606065805461063e906130ad565b80601f016020809104026020016040519081016040528092919081815260200182805461066a906130ad565b80156106b75780601f1061068c576101008083540402835291602001916106b7565b820191906000526020600020905b81548152906001019060200180831161069a57829003601f168201915b5050505050905090565b6000818152606760205260408120546001600160a01b031661073f5760405162461bcd60e51b815260206004820152602c60248201527f4552433732313a20617070726f76656420717565727920666f72206e6f6e657860448201526b34b9ba32b73a103a37b5b2b760a11b60648201526084015b60405180910390fd5b506000908152606960205260409020546001600160a01b031690565b8161076861016e8261150e565b156107855760405162461bcd60e51b8152600401610736906130e8565b61078f8383611533565b505050565b6060806107a083611266565b91506107ab826107d1565b9050915091565b6000805160206136f78339815191526107ca81611644565b5061016a55565b60606000825167ffffffffffffffff8111156107ef576107ef612e16565b604051908082528060200260200182016040528015610818578160200160208202803683370190505b50905060005b83518110156108785761084984828151811061083c5761083c613115565b6020026020010151610b03565b82828151811061085b5761085b613115565b60209081029190910101528061087081613141565b91505061081e565b5092915050565b61088a335b8261164e565b6108a65760405162461bcd60e51b81526004016107369061315c565b61078f838383611745565b600082815260fb60205260409020600101546108cc81611644565b61078f83836118ec565b60006108e183610f76565b82106109435760405162461bcd60e51b815260206004820152602b60248201527f455243373231456e756d657261626c653a206f776e657220696e646578206f7560448201526a74206f6620626f756e647360a81b6064820152608401610736565b506001600160a01b03919091166000908152609760209081526040808320938352929052205490565b6001600160a01b03811633146109dc5760405162461bcd60e51b815260206004820152602f60248201527f416363657373436f6e74726f6c3a2063616e206f6e6c792072656e6f756e636560448201526e103937b632b9903337b91039b2b63360891b6064820152608401610736565b6109e68282611972565b5050565b6000805160206136f7833981519152610a0281611644565b5061016b55565b600080516020613757833981519152610a2181611644565b610a296119d9565b50565b61078f8383836040518060200160405280600081525061139a565b610a5033610884565b610ab55760405162461bcd60e51b815260206004820152603060248201527f4552433732314275726e61626c653a2063616c6c6572206973206e6f74206f7760448201526f1b995c881b9bdc88185c1c1c9bdd995960821b6064820152608401610736565b610a2981611a6c565b60005b8181101561078f57610ad283610ce9565b80610adc81613141565b915050610ac1565b6000805160206136f7833981519152610afc81611644565b5061016c55565b6000818152606760205260408120546001600160a01b0316610b735760405162461bcd60e51b8152602060048201526024808201527f446973636f756e7420717565727920666f72206e6f6e6578697374656e74207460448201526337b5b2b760e11b6064820152608401610736565b610b7f61016083611b13565b15610b8c57506005919050565b610b9861016283611b13565b15610ba55750600a919050565b610bb161016483611b13565b15610bbe5750600f919050565b610bca61016683611b13565b15610bd757506014919050565b506000919050565b6000610bea60995490565b8210610c4d5760405162461bcd60e51b815260206004820152602c60248201527f455243373231456e756d657261626c653a20676c6f62616c20696e646578206f60448201526b7574206f6620626f756e647360a01b6064820152608401610736565b60998281548110610c6057610c60613115565b90600052602060002001549050919050565b6000818152606760205260408120546001600160a01b0316806106295760405162461bcd60e51b815260206004820152602960248201527f4552433732313a206f776e657220717565727920666f72206e6f6e657869737460448201526832b73a103a37b5b2b760b91b6064820152608401610736565b60c95460ff1615610d0c5760405162461bcd60e51b8152600401610736906131ad565b61016a54610168546001600160a01b031663dd62ed3e336040516001600160e01b031960e084901b1681526001600160a01b03909116600482015230602482015260440160206040518083038186803b158015610d6857600080fd5b505afa158015610d7c573d6000803e3d6000fd5b505050506040513d601f19601f82011682018060405250810190610da091906131d7565b1015610dee5760405162461bcd60e51b815260206004820152601c60248201527f496e73756666696369656e7420315553444320616c6c6f77616e6365000000006044820152606401610736565b61016a54610168546001600160a01b03166370a08231336040516001600160e01b031960e084901b1681526001600160a01b03909116600482015260240160206040518083038186803b158015610e4457600080fd5b505afa158015610e58573d6000803e3d6000fd5b505050506040513d601f19601f82011682018060405250810190610e7c91906131d7565b1015610eca5760405162461bcd60e51b815260206004820152601a60248201527f496e73756666696369656e742031555344432062616c616e63650000000000006044820152606401610736565b610168546001600160a01b03166323b872dd336101695461016a5460405160e085901b6001600160e01b03191681526001600160a01b0393841660048201529290911660248301526044820152606401602060405180830381600087803b158015610f3457600080fd5b505af1158015610f48573d6000803e3d6000fd5b505050506040513d601f19601f82011682018060405250810190610f6c91906131f0565b50610a2981611b2b565b60006001600160a01b038216610fe15760405162461bcd60e51b815260206004820152602a60248201527f4552433732313a2062616c616e636520717565727920666f7220746865207a65604482015269726f206164647265737360b01b6064820152608401610736565b506001600160a01b031660009081526068602052604090205490565b61016d805461100b906130ad565b80601f0160208091040260200160405190810160405280929190818152602001828054611037906130ad565b80156110845780601f1061105957610100808354040283529160200191611084565b820191906000526020600020905b81548152906001019060200180831161106757829003601f168201915b505050505081565b60006110986001611bfc565b905080156110b0576000805461ff0019166101001790555b6110fc6040518060400160405280600b81526020016a115b1d995cd51a58dad95d60aa1b8152506040518060400160405280600781526020016611551250d2d15560ca1b815250611c81565b611104611cb2565b61110c611cdb565b611114611cb2565b61111c611cb2565b6111276000336118ec565b61113f600080516020613757833981519152336118ec565b6111576000805160206136f7833981519152336118ec565b61016880546001600160a01b031990811673985458e523db3d53125813ed68c274899e9dfab41790915561016980549091167362efb2caf1f3ee645ff23b004b6e88a9a929b5631790556362a2cfd061016b556298968061016a5561138861016c5560408051606081019091526037808252613777602083013980516111e69161016d91602090910190612be3565b5061015f546111fe576111fe61015f80546001019055565b8015610a29576000805461ff0019169055604051600181527f7f26b83ff96e1f2b6a682f133852f6798a09c465da95921460cefb38474024989060200160405180910390a150565b60008051602061375783398151915261125e81611644565b610a29611d0a565b6060600061127383610f76565b905060008167ffffffffffffffff81111561129057611290612e16565b6040519080825280602002602001820160405280156112b9578160200160208202803683370190505b50905060005b82811015611300576112d185826108d6565b8282815181106112e3576112e3613115565b6020908102919091010152806112f881613141565b9150506112bf565b509392505050565b600091825260fb602090815260408084206001600160a01b0393909316845291905290205460ff1690565b60606066805461063e906130ad565b6000805160206136f783398151915261135a81611644565b61078f61016e83611d62565b8161137361016e8261150e565b156113905760405162461bcd60e51b8152600401610736906130e8565b61078f8383611d77565b6113a4338361164e565b6113c05760405162461bcd60e51b81526004016107369061315c565b6113cc84848484611d82565b50505050565b606060006113df83610b03565b905060006113ec82611db5565b6040516020016113fc9190613229565b6040516020818303038152906040529050600061016d61141b84611db5565b60405160200161142c92919061324e565b6040516020818303038152906040529050600061144886611db5565b828460405160200161145c939291906132ff565b604051602081830303815290604052905061147681611eb3565b604051602001611486919061343e565b604051602081830303815290604052945050505050919050565b600082815260fb60205260409020600101546114bb81611644565b61078f8383611972565b6000805160206136f78339815191526114dd81611644565b61078f61016e83612007565b60006001600160e01b03198216637965db0b60e01b148061062957506106298261201c565b6001600160a01b038116600090815260018301602052604081205415155b9392505050565b600061153e82610c72565b9050806001600160a01b0316836001600160a01b031614156115ac5760405162461bcd60e51b815260206004820152602160248201527f4552433732313a20617070726f76616c20746f2063757272656e74206f776e656044820152603960f91b6064820152608401610736565b336001600160a01b03821614806115c857506115c881336105dd565b61163a5760405162461bcd60e51b815260206004820152603860248201527f4552433732313a20617070726f76652063616c6c6572206973206e6f74206f7760448201527f6e6572206e6f7220617070726f76656420666f7220616c6c00000000000000006064820152608401610736565b61078f8383612041565b610a2981336120af565b6000818152606760205260408120546001600160a01b03166116c75760405162461bcd60e51b815260206004820152602c60248201527f4552433732313a206f70657261746f7220717565727920666f72206e6f6e657860448201526b34b9ba32b73a103a37b5b2b760a11b6064820152608401610736565b60006116d283610c72565b9050806001600160a01b0316846001600160a01b0316148061171957506001600160a01b038082166000908152606a602090815260408083209388168352929052205460ff165b8061173d5750836001600160a01b0316611732846106c1565b6001600160a01b0316145b949350505050565b826001600160a01b031661175882610c72565b6001600160a01b0316146117bc5760405162461bcd60e51b815260206004820152602560248201527f4552433732313a207472616e736665722066726f6d20696e636f72726563742060448201526437bbb732b960d91b6064820152608401610736565b6001600160a01b03821661181e5760405162461bcd60e51b8152602060048201526024808201527f4552433732313a207472616e7366657220746f20746865207a65726f206164646044820152637265737360e01b6064820152608401610736565b611829838383612113565b611834600082612041565b6001600160a01b038316600090815260686020526040812080546001929061185d908490613483565b90915550506001600160a01b038216600090815260686020526040812080546001929061188b90849061349a565b909155505060008181526067602052604080822080546001600160a01b0319166001600160a01b0386811691821790925591518493918716917fddf252ad1be2c89b69c2b068fc378daa952ba7f163c4a11628f55a4df523b3ef91a4505050565b6118f68282611308565b6109e657600082815260fb602090815260408083206001600160a01b03851684529091529020805460ff1916600117905561192e3390565b6001600160a01b0316816001600160a01b0316837f2f8788117e7eff1d82e926ec794901d17c78024a50270940304540a733656f0d60405160405180910390a45050565b61197c8282611308565b156109e657600082815260fb602090815260408083206001600160a01b0385168085529252808320805460ff1916905551339285917ff6391f5c32d9c69d2a47ea670b442974b53935d1edc7fd64eb21e047a839171b9190a45050565b60c95460ff16611a225760405162461bcd60e51b815260206004820152601460248201527314185d5cd8589b194e881b9bdd081c185d5cd95960621b6044820152606401610736565b60c9805460ff191690557f5db9ee0a495bf2e6ff9c91a7834c1ba4fdd244a5e8aa4e537bd38aeae4b073aa335b6040516001600160a01b03909116815260200160405180910390a1565b6000611a7782610c72565b9050611a8581600084612113565b611a90600083612041565b6001600160a01b0381166000908152606860205260408120805460019290611ab9908490613483565b909155505060008281526067602052604080822080546001600160a01b0319169055518391906001600160a01b038416907fddf252ad1be2c89b69c2b068fc378daa952ba7f163c4a11628f55a4df523b3ef908390a45050565b6000818152600183016020526040812054151561152c565b6000611b3761015f5490565b90504261016b54101580611b515750611b51600033611308565b611b9d5760405162461bcd60e51b815260206004820152601860248201527f4d696e7420686173206e6f7420737461727465642079657400000000000000006044820152606401610736565b61016c548110611bda5760405162461bcd60e51b815260206004820152600860248201526714dbdb19081bdd5d60c21b6044820152606401610736565b611be961015f80546001019055565b611bf3828261219c565b6109e6816121b6565b60008054610100900460ff1615611c3b578160ff166001148015611c1f5750303b155b610bd75760405162461bcd60e51b8152600401610736906134b2565b60005460ff808416911610611c625760405162461bcd60e51b8152600401610736906134b2565b506000805460ff191660ff92909216919091179055600190565b919050565b600054610100900460ff16611ca85760405162461bcd60e51b815260040161073690613500565b6109e6828261225b565b600054610100900460ff16611cd95760405162461bcd60e51b815260040161073690613500565b565b600054610100900460ff16611d025760405162461bcd60e51b815260040161073690613500565b611cd96122a9565b60c95460ff1615611d2d5760405162461bcd60e51b8152600401610736906131ad565b60c9805460ff191660011790557f62e78cea01bee320cd4e420270b5ea74000d11b0c9f74754ebdbfc544b05a258611a4f3390565b600061152c836001600160a01b0384166122dc565b6109e633838361232b565b611d8d848484611745565b611d99848484846123fa565b6113cc5760405162461bcd60e51b81526004016107369061354b565b606081611dd95750506040805180820190915260018152600360fc1b602082015290565b8160005b8115611e035780611ded81613141565b9150611dfc9050600a836135b3565b9150611ddd565b60008167ffffffffffffffff811115611e1e57611e1e612e16565b6040519080825280601f01601f191660200182016040528015611e48576020820181803683370190505b5090505b841561173d57611e5d600183613483565b9150611e6a600a866135c7565b611e7590603061349a565b60f81b818381518110611e8a57611e8a613115565b60200101906001600160f81b031916908160001a905350611eac600a866135b3565b9450611e4c565b6060815160001415611ed357505060408051602081019091526000815290565b60006040518060600160405280604081526020016137176040913990506000600384516002611f02919061349a565b611f0c91906135b3565b611f179060046135db565b67ffffffffffffffff811115611f2f57611f2f612e16565b6040519080825280601f01601f191660200182016040528015611f59576020820181803683370190505b509050600182016020820185865187015b80821015611fc5576003820191508151603f8160121c168501518453600184019350603f81600c1c168501518453600184019350603f8160061c168501518453600184019350603f8116850151845350600183019250611f6a565b5050600386510660018114611fe15760028114611ff457611ffc565b603d6001830353603d6002830353611ffc565b603d60018303535b509195945050505050565b600061152c836001600160a01b038416612507565b60006001600160e01b0319821663780e9d6360e01b14806106295750610629826125fa565b600081815260696020526040902080546001600160a01b0319166001600160a01b038416908117909155819061207682610c72565b6001600160a01b03167f8c5be1e5ebec7d5bd14f71427d1e84f3dd0314c0f7b2291e5b200ac8c7c3b92560405160405180910390a45050565b6120b98282611308565b6109e6576120d1816001600160a01b0316601461264a565b6120dc83602061264a565b6040516020016120ed9291906135fa565b60408051601f198184030181529082905262461bcd60e51b825261073691600401612d25565b60c95460ff16156121365760405162461bcd60e51b8152600401610736906131ad565b8261214361016e8261150e565b156121605760405162461bcd60e51b8152600401610736906130e8565b8261216d61016e8261150e565b1561218a5760405162461bcd60e51b8152600401610736906130e8565b6121958585856127e6565b5050505050565b6109e682826040518060200160405280600081525061289e565b60006121c06128d1565b604080516020810183905290810184905243606082015242608082015290915060009060a00160408051601f1981840301815291905280516020909101209050600061220e6103e8836135c7565b90506103de811061222557612195610166856128f9565b6103b6811061223a57612195610164856128f9565b6102ee811061224f57612195610162856128f9565b612195610160856128f9565b600054610100900460ff166122825760405162461bcd60e51b815260040161073690613500565b8151612295906065906020850190612be3565b50805161078f906066906020840190612be3565b600054610100900460ff166122d05760405162461bcd60e51b815260040161073690613500565b60c9805460ff19169055565b600081815260018301602052604081205461232357508154600181810184556000848152602080822090930184905584548482528286019093526040902091909155610629565b506000610629565b816001600160a01b0316836001600160a01b0316141561238d5760405162461bcd60e51b815260206004820152601960248201527f4552433732313a20617070726f766520746f2063616c6c6572000000000000006044820152606401610736565b6001600160a01b038381166000818152606a6020908152604080832094871680845294825291829020805460ff191686151590811790915591519182527f17307eab39ab6107e8899845ad3d59bd9653f200f220920489ca2b5937696c31910160405180910390a3505050565b60006001600160a01b0384163b156124fc57604051630a85bd0160e11b81526001600160a01b0385169063150b7a029061243e90339089908890889060040161366f565b602060405180830381600087803b15801561245857600080fd5b505af1925050508015612488575060408051601f3d908101601f19168201909252612485918101906136ac565b60015b6124e2573d8080156124b6576040519150601f19603f3d011682016040523d82523d6000602084013e6124bb565b606091505b5080516124da5760405162461bcd60e51b81526004016107369061354b565b805181602001fd5b6001600160e01b031916630a85bd0160e11b14905061173d565b506001949350505050565b600081815260018301602052604081205480156125f057600061252b600183613483565b855490915060009061253f90600190613483565b90508181146125a457600086600001828154811061255f5761255f613115565b906000526020600020015490508087600001848154811061258257612582613115565b6000918252602080832090910192909255918252600188019052604090208390555b85548690806125b5576125b56136c9565b600190038181906000526020600020016000905590558560010160008681526020019081526020016000206000905560019350505050610629565b6000915050610629565b60006001600160e01b031982166380ac58cd60e01b148061262b57506001600160e01b03198216635b5e139f60e01b145b8061062957506301ffc9a760e01b6001600160e01b0319831614610629565b606060006126598360026135db565b61266490600261349a565b67ffffffffffffffff81111561267c5761267c612e16565b6040519080825280601f01601f1916602001820160405280156126a6576020820181803683370190505b509050600360fc1b816000815181106126c1576126c1613115565b60200101906001600160f81b031916908160001a905350600f60fb1b816001815181106126f0576126f0613115565b60200101906001600160f81b031916908160001a90535060006127148460026135db565b61271f90600161349a565b90505b6001811115612797576f181899199a1a9b1b9c1cb0b131b232b360811b85600f166010811061275357612753613115565b1a60f81b82828151811061276957612769613115565b60200101906001600160f81b031916908160001a90535060049490941c93612790816136df565b9050612722565b50831561152c5760405162461bcd60e51b815260206004820181905260248201527f537472696e67733a20686578206c656e67746820696e73756666696369656e746044820152606401610736565b6001600160a01b0383166128415761283c81609980546000838152609a60205260408120829055600182018355919091527f72a152ddfb8e864297c917af52ea6c1c68aead0fee1a62673fcc7e0c94979d000155565b612864565b816001600160a01b0316836001600160a01b031614612864576128648382612905565b6001600160a01b03821661287b5761078f816129a2565b826001600160a01b0316826001600160a01b03161461078f5761078f8282612a51565b6128a88383612a95565b6128b560008484846123fa565b61078f5760405162461bcd60e51b81526004016107369061354b565b60006128db612c67565b438152604051602081818460ff600019fa6128f257fe5b5192915050565b600061152c83836122dc565b6000600161291284610f76565b61291c9190613483565b60008381526098602052604090205490915080821461296f576001600160a01b03841660009081526097602090815260408083208584528252808320548484528184208190558352609890915290208190555b5060009182526098602090815260408084208490556001600160a01b039094168352609781528383209183525290812055565b6099546000906129b490600190613483565b6000838152609a6020526040812054609980549394509092849081106129dc576129dc613115565b9060005260206000200154905080609983815481106129fd576129fd613115565b6000918252602080832090910192909255828152609a90915260408082208490558582528120556099805480612a3557612a356136c9565b6001900381819060005260206000200160009055905550505050565b6000612a5c83610f76565b6001600160a01b039093166000908152609760209081526040808320868452825280832085905593825260989052919091209190915550565b6001600160a01b038216612aeb5760405162461bcd60e51b815260206004820181905260248201527f4552433732313a206d696e7420746f20746865207a65726f20616464726573736044820152606401610736565b6000818152606760205260409020546001600160a01b031615612b505760405162461bcd60e51b815260206004820152601c60248201527f4552433732313a20746f6b656e20616c7265616479206d696e746564000000006044820152606401610736565b612b5c60008383612113565b6001600160a01b0382166000908152606860205260408120805460019290612b8590849061349a565b909155505060008181526067602052604080822080546001600160a01b0319166001600160a01b03861690811790915590518392907fddf252ad1be2c89b69c2b068fc378daa952ba7f163c4a11628f55a4df523b3ef908290a45050565b828054612bef906130ad565b90600052602060002090601f016020900481019282612c115760008555612c57565b82601f10612c2a57805160ff1916838001178555612c57565b82800160010185558215612c57579182015b82811115612c57578251825591602001919060010190612c3c565b50612c63929150612c85565b5090565b60405180602001604052806001906020820280368337509192915050565b5b80821115612c635760008155600101612c86565b6001600160e01b031981168114610a2957600080fd5b600060208284031215612cc257600080fd5b813561152c81612c9a565b60005b83811015612ce8578181015183820152602001612cd0565b838111156113cc5750506000910152565b60008151808452612d11816020860160208601612ccd565b601f01601f19169290920160200192915050565b60208152600061152c6020830184612cf9565b600060208284031215612d4a57600080fd5b5035919050565b80356001600160a01b0381168114611c7c57600080fd5b60008060408385031215612d7b57600080fd5b612d8483612d51565b946020939093013593505050565b600060208284031215612da457600080fd5b61152c82612d51565b600081518084526020808501945080840160005b83811015612ddd57815187529582019590820190600101612dc1565b509495945050505050565b604081526000612dfb6040830185612dad565b8281036020840152612e0d8185612dad565b95945050505050565b634e487b7160e01b600052604160045260246000fd5b604051601f8201601f1916810167ffffffffffffffff81118282101715612e5557612e55612e16565b604052919050565b60006020808385031215612e7057600080fd5b823567ffffffffffffffff80821115612e8857600080fd5b818501915085601f830112612e9c57600080fd5b813581811115612eae57612eae612e16565b8060051b9150612ebf848301612e2c565b8181529183018401918481019088841115612ed957600080fd5b938501935b83851015612ef757843582529385019390850190612ede565b98975050505050505050565b60208152600061152c6020830184612dad565b600080600060608486031215612f2b57600080fd5b612f3484612d51565b9250612f4260208501612d51565b9150604084013590509250925092565b60008060408385031215612f6557600080fd5b82359150612f7560208401612d51565b90509250929050565b8015158114610a2957600080fd5b60008060408385031215612f9f57600080fd5b612fa883612d51565b91506020830135612fb881612f7e565b809150509250929050565b60008060008060808587031215612fd957600080fd5b612fe285612d51565b93506020612ff1818701612d51565b935060408601359250606086013567ffffffffffffffff8082111561301557600080fd5b818801915088601f83011261302957600080fd5b81358181111561303b5761303b612e16565b61304d601f8201601f19168501612e2c565b9150808252898482850101111561306357600080fd5b808484018584013760008482840101525080935050505092959194509250565b6000806040838503121561309657600080fd5b61309f83612d51565b9150612f7560208401612d51565b600181811c908216806130c157607f821691505b602082108114156130e257634e487b7160e01b600052602260045260246000fd5b50919050565b602080825260139082015272426c61636b6c6973746564206164647265737360681b604082015260600190565b634e487b7160e01b600052603260045260246000fd5b634e487b7160e01b600052601160045260246000fd5b60006000198214156131555761315561312b565b5060010190565b60208082526031908201527f4552433732313a207472616e736665722063616c6c6572206973206e6f74206f6040820152701ddb995c881b9bdc88185c1c1c9bdd9959607a1b606082015260800190565b60208082526010908201526f14185d5cd8589b194e881c185d5cd95960821b604082015260600190565b6000602082840312156131e957600080fd5b5051919050565b60006020828403121561320257600080fd5b815161152c81612f7e565b6000815161321f818560208601612ccd565b9290920192915050565b6000825161323b818460208701612ccd565b602560f81b920191825250600101919050565b600080845481600182811c91508083168061326a57607f831692505b602080841082141561328a57634e487b7160e01b86526022600452602486fd5b81801561329e57600181146132af576132dc565b60ff198616895284890196506132dc565b60008b81526020902060005b868110156132d45781548b8201529085019083016132bb565b505084890196505b505050505050612e0d6132ef828661320d565b630b9b5c0d60e21b815260040190565b6000607b60f81b8083527f226e616d65223a2022436f736d696320456c76657320446973636f756e74205460018401526669636b6574202360c81b60218401528551613352816028860160208a01612ccd565b61088b60f21b6028918501918201819052691134b6b0b3b2911d101160b11b602a8301528651613389816034850160208b01612ccd565b60349201918201526e2261747472696275746573223a205b60881b60368201526045810182905261343361342561341861340b6134056133ef604687017f2274726169745f74797065223a2022646973636f756e74222c00000000000000815260190190565b69113b30b63ab2911d101160b11b8152600a0190565b8961320d565b601160f91b815260010190565b607d60f81b815260010190565b615d7d60f01b815260020190565b979650505050505050565b7f646174613a6170706c69636174696f6e2f6a736f6e3b6261736536342c00000081526000825161347681601d850160208701612ccd565b91909101601d0192915050565b6000828210156134955761349561312b565b500390565b600082198211156134ad576134ad61312b565b500190565b6020808252602e908201527f496e697469616c697a61626c653a20636f6e747261637420697320616c72656160408201526d191e481a5b9a5d1a585b1a5e995960921b606082015260800190565b6020808252602b908201527f496e697469616c697a61626c653a20636f6e7472616374206973206e6f74206960408201526a6e697469616c697a696e6760a81b606082015260800190565b60208082526032908201527f4552433732313a207472616e7366657220746f206e6f6e20455243373231526560408201527131b2b4bb32b91034b6b83632b6b2b73a32b960711b606082015260800190565b634e487b7160e01b600052601260045260246000fd5b6000826135c2576135c261359d565b500490565b6000826135d6576135d661359d565b500690565b60008160001904831182151516156135f5576135f561312b565b500290565b7f416363657373436f6e74726f6c3a206163636f756e7420000000000000000000815260008351613632816017850160208801612ccd565b7001034b99036b4b9b9b4b733903937b6329607d1b6017918401918201528351613663816028840160208801612ccd565b01602801949350505050565b6001600160a01b03858116825284166020820152604081018390526080606082018190526000906136a290830184612cf9565b9695505050505050565b6000602082840312156136be57600080fd5b815161152c81612c9a565b634e487b7160e01b600052603160045260246000fd5b6000816136ee576136ee61312b565b50600019019056fe73e573f9566d61418a34d5de3ff49360f9c51fec37f7486551670290f6285dab4142434445464748494a4b4c4d4e4f505152535455565758595a6162636465666768696a6b6c6d6e6f707172737475767778797a303132333435363738392b2f65d7a28e3265b37a6474929f336521b332c1681b933f6cb9f3376673440d862a68747470733a2f2f696d616765732d6469726563742e636f736d6963756e6976657273652e6f6e652f656c7665732d7469636b6574732fa26469706673582212201e4926cc9585885e4ae360e4c546ff6b8a1d3b5c3a81b4b95b569fe8a76f4ef264736f6c63430008090033",
  "linkReferences": {},
  "deployedLinkReferences": {}
}