{
  "_format": "hh-sol-artifact-1",
  "contractName": "CosmicElvesTicketUpgradeable",
  "sourceName": "contracts/upgradeable/ERC721/CosmicElvesTicketUpgradeable.sol",
  "abi": [
    {
      "inputs": [],
      "stateMutability": "nonpayable",
      "type": "constructor"
    },
    {
      "anonymous": false,
      "inputs": [
        {
          "indexed": true,
          "internalType": "address",
          "name": "owner",
          "type": "address"
        },
        {
          "indexed": true,
          "internalType": "address",
          "name": "approved",
          "type": "address"
        },
        {
          "indexed": true,
          "internalType": "uint256",
          "name": "tokenId",
          "type": "uint256"
        }
      ],
      "name": "Approval",
      "type": "event"
    },
    {
      "anonymous": false,
      "inputs": [
        {
          "indexed": true,
          "internalType": "address",
          "name": "owner",
          "type": "address"
        },
        {
          "indexed": true,
          "internalType": "address",
          "name": "operator",
          "type": "address"
        },
        {
          "indexed": false,
          "internalType": "bool",
          "name": "approved",
          "type": "bool"
        }
      ],
      "name": "ApprovalForAll",
      "type": "event"
    },
    {
      "anonymous": false,
      "inputs": [
        {
          "indexed": false,
          "internalType": "uint8",
          "name": "version",
          "type": "uint8"
        }
      ],
      "name": "Initialized",
      "type": "event"
    },
    {
      "anonymous": false,
      "inputs": [
        {
          "indexed": false,
          "internalType": "address",
          "name": "account",
          "type": "address"
        }
      ],
      "name": "Paused",
      "type": "event"
    },
    {
      "anonymous": false,
      "inputs": [
        {
          "indexed": true,
          "internalType": "bytes32",
          "name": "role",
          "type": "bytes32"
        },
        {
          "indexed": true,
          "internalType": "bytes32",
          "name": "previousAdminRole",
          "type": "bytes32"
        },
        {
          "indexed": true,
          "internalType": "bytes32",
          "name": "newAdminRole",
          "type": "bytes32"
        }
      ],
      "name": "RoleAdminChanged",
      "type": "event"
    },
    {
      "anonymous": false,
      "inputs": [
        {
          "indexed": true,
          "internalType": "bytes32",
          "name": "role",
          "type": "bytes32"
        },
        {
          "indexed": true,
          "internalType": "address",
          "name": "account",
          "type": "address"
        },
        {
          "indexed": true,
          "internalType": "address",
          "name": "sender",
          "type": "address"
        }
      ],
      "name": "RoleGranted",
      "type": "event"
    },
    {
      "anonymous": false,
      "inputs": [
        {
          "indexed": true,
          "internalType": "bytes32",
          "name": "role",
          "type": "bytes32"
        },
        {
          "indexed": true,
          "internalType": "address",
          "name": "account",
          "type": "address"
        },
        {
          "indexed": true,
          "internalType": "address",
          "name": "sender",
          "type": "address"
        }
      ],
      "name": "RoleRevoked",
      "type": "event"
    },
    {
      "anonymous": false,
      "inputs": [
        {
          "indexed": true,
          "internalType": "address",
          "name": "from",
          "type": "address"
        },
        {
          "indexed": true,
          "internalType": "address",
          "name": "to",
          "type": "address"
        },
        {
          "indexed": true,
          "internalType": "uint256",
          "name": "tokenId",
          "type": "uint256"
        }
      ],
      "name": "Transfer",
      "type": "event"
    },
    {
      "anonymous": false,
      "inputs": [
        {
          "indexed": false,
          "internalType": "address",
          "name": "account",
          "type": "address"
        }
      ],
      "name": "Unpaused",
      "type": "event"
    },
    {
      "inputs": [],
      "name": "DEFAULT_ADMIN_ROLE",
      "outputs": [
        {
          "internalType": "bytes32",
          "name": "",
          "type": "bytes32"
        }
      ],
      "stateMutability": "view",
      "type": "function"
    },
    {
      "inputs": [],
      "name": "PAUSER_ROLE",
      "outputs": [
        {
          "internalType": "bytes32",
          "name": "",
          "type": "bytes32"
        }
      ],
      "stateMutability": "view",
      "type": "function"
    },
    {
      "inputs": [],
      "name": "UPDATER_ROLE",
      "outputs": [
        {
          "internalType": "bytes32",
          "name": "",
          "type": "bytes32"
        }
      ],
      "stateMutability": "view",
      "type": "function"
    },
    {
      "inputs": [
        {
          "internalType": "address",
          "name": "_address",
          "type": "address"
        }
      ],
      "name": "addBlacklist",
      "outputs": [],
      "stateMutability": "nonpayable",
      "type": "function"
    },
    {
      "inputs": [
        {
          "internalType": "address",
          "name": "to",
          "type": "address"
        },
        {
          "internalType": "uint256",
          "name": "tokenId",
          "type": "uint256"
        }
      ],
      "name": "approve",
      "outputs": [],
      "stateMutability": "nonpayable",
      "type": "function"
    },
    {
      "inputs": [
        {
          "internalType": "address",
          "name": "owner",
          "type": "address"
        }
      ],
      "name": "balanceOf",
      "outputs": [
        {
          "internalType": "uint256",
          "name": "",
          "type": "uint256"
        }
      ],
      "stateMutability": "view",
      "type": "function"
    },
    {
      "inputs": [
        {
          "internalType": "uint256[]",
          "name": "tokenIds",
          "type": "uint256[]"
        }
      ],
      "name": "batchDiscountOf",
      "outputs": [
        {
          "internalType": "uint256[]",
          "name": "",
          "type": "uint256[]"
        }
      ],
      "stateMutability": "view",
      "type": "function"
    },
    {
      "inputs": [
        {
          "internalType": "address",
          "name": "to",
          "type": "address"
        },
        {
          "internalType": "uint256",
          "name": "amount",
          "type": "uint256"
        }
      ],
      "name": "batchMint",
      "outputs": [],
      "stateMutability": "nonpayable",
      "type": "function"
    },
    {
      "inputs": [
        {
          "internalType": "uint256",
          "name": "tokenId",
          "type": "uint256"
        }
      ],
      "name": "burn",
      "outputs": [],
      "stateMutability": "nonpayable",
      "type": "function"
    },
    {
      "inputs": [],
      "name": "cap",
      "outputs": [
        {
          "internalType": "uint256",
          "name": "",
          "type": "uint256"
        }
      ],
      "stateMutability": "view",
      "type": "function"
    },
    {
      "inputs": [
        {
          "internalType": "uint256",
          "name": "tokenId",
          "type": "uint256"
        }
      ],
      "name": "discountOf",
      "outputs": [
        {
          "internalType": "uint256",
          "name": "discount",
          "type": "uint256"
        }
      ],
      "stateMutability": "view",
      "type": "function"
    },
    {
      "inputs": [
        {
          "internalType": "uint256",
          "name": "tokenId",
          "type": "uint256"
        }
      ],
      "name": "getApproved",
      "outputs": [
        {
          "internalType": "address",
          "name": "",
          "type": "address"
        }
      ],
      "stateMutability": "view",
      "type": "function"
    },
    {
      "inputs": [
        {
          "internalType": "bytes32",
          "name": "role",
          "type": "bytes32"
        }
      ],
      "name": "getRoleAdmin",
      "outputs": [
        {
          "internalType": "bytes32",
          "name": "",
          "type": "bytes32"
        }
      ],
      "stateMutability": "view",
      "type": "function"
    },
    {
      "inputs": [
        {
          "internalType": "bytes32",
          "name": "role",
          "type": "bytes32"
        },
        {
          "internalType": "address",
          "name": "account",
          "type": "address"
        }
      ],
      "name": "grantRole",
      "outputs": [],
      "stateMutability": "nonpayable",
      "type": "function"
    },
    {
      "inputs": [
        {
          "internalType": "bytes32",
          "name": "role",
          "type": "bytes32"
        },
        {
          "internalType": "address",
          "name": "account",
          "type": "address"
        }
      ],
      "name": "hasRole",
      "outputs": [
        {
          "internalType": "bool",
          "name": "",
          "type": "bool"
        }
      ],
      "stateMutability": "view",
      "type": "function"
    },
    {
      "inputs": [],
      "name": "imageBaseURI",
      "outputs": [
        {
          "internalType": "string",
          "name": "",
          "type": "string"
        }
      ],
      "stateMutability": "view",
      "type": "function"
    },
    {
      "inputs": [],
      "name": "initialize",
      "outputs": [],
      "stateMutability": "nonpayable",
      "type": "function"
    },
    {
      "inputs": [
        {
          "internalType": "address",
          "name": "owner",
          "type": "address"
        },
        {
          "internalType": "address",
          "name": "operator",
          "type": "address"
        }
      ],
      "name": "isApprovedForAll",
      "outputs": [
        {
          "internalType": "bool",
          "name": "",
          "type": "bool"
        }
      ],
      "stateMutability": "view",
      "type": "function"
    },
    {
      "inputs": [
        {
          "internalType": "address",
          "name": "to",
          "type": "address"
        }
      ],
      "name": "mint",
      "outputs": [],
      "stateMutability": "nonpayable",
      "type": "function"
    },
    {
      "inputs": [],
      "name": "name",
      "outputs": [
        {
          "internalType": "string",
          "name": "",
          "type": "string"
        }
      ],
      "stateMutability": "view",
      "type": "function"
    },
    {
      "inputs": [
        {
          "internalType": "uint256",
          "name": "tokenId",
          "type": "uint256"
        }
      ],
      "name": "ownerOf",
      "outputs": [
        {
          "internalType": "address",
          "name": "",
          "type": "address"
        }
      ],
      "stateMutability": "view",
      "type": "function"
    },
    {
      "inputs": [],
      "name": "pause",
      "outputs": [],
      "stateMutability": "nonpayable",
      "type": "function"
    },
    {
      "inputs": [],
      "name": "paused",
      "outputs": [
        {
          "internalType": "bool",
          "name": "",
          "type": "bool"
        }
      ],
      "stateMutability": "view",
      "type": "function"
    },
    {
      "inputs": [],
      "name": "price",
      "outputs": [
        {
          "internalType": "uint256",
          "name": "",
          "type": "uint256"
        }
      ],
      "stateMutability": "view",
      "type": "function"
    },
    {
      "inputs": [
        {
          "internalType": "address",
          "name": "_address",
          "type": "address"
        }
      ],
      "name": "removeBlacklist",
      "outputs": [],
      "stateMutability": "nonpayable",
      "type": "function"
    },
    {
      "inputs": [
        {
          "internalType": "bytes32",
          "name": "role",
          "type": "bytes32"
        },
        {
          "internalType": "address",
          "name": "account",
          "type": "address"
        }
      ],
      "name": "renounceRole",
      "outputs": [],
      "stateMutability": "nonpayable",
      "type": "function"
    },
    {
      "inputs": [
        {
          "internalType": "bytes32",
          "name": "role",
          "type": "bytes32"
        },
        {
          "internalType": "address",
          "name": "account",
          "type": "address"
        }
      ],
      "name": "revokeRole",
      "outputs": [],
      "stateMutability": "nonpayable",
      "type": "function"
    },
    {
      "inputs": [
        {
          "internalType": "address",
          "name": "from",
          "type": "address"
        },
        {
          "internalType": "address",
          "name": "to",
          "type": "address"
        },
        {
          "internalType": "uint256",
          "name": "tokenId",
          "type": "uint256"
        }
      ],
      "name": "safeTransferFrom",
      "outputs": [],
      "stateMutability": "nonpayable",
      "type": "function"
    },
    {
      "inputs": [
        {
          "internalType": "address",
          "name": "from",
          "type": "address"
        },
        {
          "internalType": "address",
          "name": "to",
          "type": "address"
        },
        {
          "internalType": "uint256",
          "name": "tokenId",
          "type": "uint256"
        },
        {
          "internalType": "bytes",
          "name": "_data",
          "type": "bytes"
        }
      ],
      "name": "safeTransferFrom",
      "outputs": [],
      "stateMutability": "nonpayable",
      "type": "function"
    },
    {
      "inputs": [
        {
          "internalType": "address",
          "name": "operator",
          "type": "address"
        },
        {
          "internalType": "bool",
          "name": "approved",
          "type": "bool"
        }
      ],
      "name": "setApprovalForAll",
      "outputs": [],
      "stateMutability": "nonpayable",
      "type": "function"
    },
    {
      "inputs": [
        {
          "internalType": "uint256",
          "name": "_cap",
          "type": "uint256"
        }
      ],
      "name": "setCap",
      "outputs": [],
      "stateMutability": "nonpayable",
      "type": "function"
    },
    {
      "inputs": [
        {
          "internalType": "uint256",
          "name": "time",
          "type": "uint256"
        }
      ],
      "name": "setStartTime",
      "outputs": [],
      "stateMutability": "nonpayable",
      "type": "function"
    },
    {
      "inputs": [
        {
          "internalType": "uint256",
          "name": "_price",
          "type": "uint256"
        }
      ],
      "name": "setTicketPrice",
      "outputs": [],
      "stateMutability": "nonpayable",
      "type": "function"
    },
    {
      "inputs": [],
      "name": "startTime",
      "outputs": [
        {
          "internalType": "uint256",
          "name": "",
          "type": "uint256"
        }
      ],
      "stateMutability": "view",
      "type": "function"
    },
    {
      "inputs": [
        {
          "internalType": "bytes4",
          "name": "interfaceId",
          "type": "bytes4"
        }
      ],
      "name": "supportsInterface",
      "outputs": [
        {
          "internalType": "bool",
          "name": "",
          "type": "bool"
        }
      ],
      "stateMutability": "view",
      "type": "function"
    },
    {
      "inputs": [],
      "name": "symbol",
      "outputs": [
        {
          "internalType": "string",
          "name": "",
          "type": "string"
        }
      ],
      "stateMutability": "view",
      "type": "function"
    },
    {
      "inputs": [
        {
          "internalType": "uint256",
          "name": "index",
          "type": "uint256"
        }
      ],
      "name": "tokenByIndex",
      "outputs": [
        {
          "internalType": "uint256",
          "name": "",
          "type": "uint256"
        }
      ],
      "stateMutability": "view",
      "type": "function"
    },
    {
      "inputs": [
        {
          "internalType": "address",
          "name": "owner",
          "type": "address"
        },
        {
          "internalType": "uint256",
          "name": "index",
          "type": "uint256"
        }
      ],
      "name": "tokenOfOwnerByIndex",
      "outputs": [
        {
          "internalType": "uint256",
          "name": "",
          "type": "uint256"
        }
      ],
      "stateMutability": "view",
      "type": "function"
    },
    {
      "inputs": [
        {
          "internalType": "uint256",
          "name": "tokenId",
          "type": "uint256"
        }
      ],
      "name": "tokenURI",
      "outputs": [
        {
          "internalType": "string",
          "name": "",
          "type": "string"
        }
      ],
      "stateMutability": "view",
      "type": "function"
    },
    {
      "inputs": [
        {
          "internalType": "address",
          "name": "_address",
          "type": "address"
        }
      ],
      "name": "tokensAndDiscountsOfOwner",
      "outputs": [
        {
          "internalType": "uint256[]",
          "name": "tokens",
          "type": "uint256[]"
        },
        {
          "internalType": "uint256[]",
          "name": "discounts",
          "type": "uint256[]"
        }
      ],
      "stateMutability": "view",
      "type": "function"
    },
    {
      "inputs": [
        {
          "internalType": "address",
          "name": "_address",
          "type": "address"
        }
      ],
      "name": "tokensOfOwner",
      "outputs": [
        {
          "internalType": "uint256[]",
          "name": "",
          "type": "uint256[]"
        }
      ],
      "stateMutability": "view",
      "type": "function"
    },
    {
      "inputs": [],
      "name": "totalSupply",
      "outputs": [
        {
          "internalType": "uint256",
          "name": "",
          "type": "uint256"
        }
      ],
      "stateMutability": "view",
      "type": "function"
    },
    {
      "inputs": [
        {
          "internalType": "address",
          "name": "from",
          "type": "address"
        },
        {
          "internalType": "address",
          "name": "to",
          "type": "address"
        },
        {
          "internalType": "uint256",
          "name": "tokenId",
          "type": "uint256"
        }
      ],
      "name": "transferFrom",
      "outputs": [],
      "stateMutability": "nonpayable",
      "type": "function"
    },
    {
      "inputs": [],
      "name": "treasuryAddress",
      "outputs": [
        {
          "internalType": "address",
          "name": "",
          "type": "address"
        }
      ],
      "stateMutability": "view",
      "type": "function"
    },
    {
      "inputs": [],
      "name": "unpause",
      "outputs": [],
      "stateMutability": "nonpayable",
      "type": "function"
    },
    {
      "inputs": [],
      "name": "usdc",
      "outputs": [
        {
          "internalType": "contract IERC20Upgradeable",
          "name": "",
          "type": "address"
        }
      ],
      "stateMutability": "view",
      "type": "function"
    }
  ],
  "bytecode": "0x608060405234801561001057600080fd5b50613928806100206000396000f3fe608060405234801561001057600080fd5b506004361061028a5760003560e01c80634f6ccce71161015c57806395d89b41116100ce578063c5f956af11610087578063c5f956af14610580578063c87b56dd14610594578063d547741f146105a7578063e63ab1e9146105ba578063e985e9c5146105cf578063eb91e6511461060b57600080fd5b806395d89b411461052d5780639cfe42da14610535578063a035b1fe14610548578063a217fddf14610552578063a22cb4651461055a578063b88d4fde1461056d57600080fd5b8063776458391161012057806377645839146104e557806378e97925146104ed5780638129fc1c146104f75780638456cb59146104ff5780638462151c1461050757806391d148541461051a57600080fd5b80634f6ccce71461048e5780635c975abb146104a15780636352211e146104ac5780636a627842146104bf57806370a08231146104d257600080fd5b80632f745c591161020057806342842e0e116101b957806342842e0e1461041a57806342966c681461042d57806343508b051461044057806347786d371461045357806347e633801461046657806349299d6e1461047b57600080fd5b80632f745c59146103bb578063355274ea146103ce57806336568abe146103d85780633e0a322d146103eb5780633e413bee146103fe5780633f4ba83a1461041257600080fd5b80631598165011610252578063159816501461032d57806318160ddd146103405780631e9d71011461035257806323b872dd14610372578063248a9ca3146103855780632f2ff15d146103a857600080fd5b806301ffc9a71461028f57806306fdde03146102b7578063081812fc146102cc578063095ea7b3146102f7578063131b71b01461030c575b600080fd5b6102a261029d366004612df5565b61061e565b60405190151581526020015b60405180910390f35b6102bf61062f565b6040516102ae9190612e6a565b6102df6102da366004612e7d565b6106c1565b6040516001600160a01b0390911681526020016102ae565b61030a610305366004612ead565b61075b565b005b61031f61031a366004612ed7565b610794565b6040516102ae929190612f2d565b61030a61033b366004612e7d565b6107b2565b6099545b6040519081526020016102ae565b610365610360366004612fa2565b6107d1565b6040516102ae9190613048565b61030a61038036600461305b565b61087f565b610344610393366004612e7d565b600090815260fb602052604090206001015490565b61030a6103b6366004613097565b6108b1565b6103446103c9366004612ead565b6108d6565b61034461016c5481565b61030a6103e6366004613097565b61096c565b61030a6103f9366004612e7d565b6109ea565b610168546102df906001600160a01b031681565b61030a610a09565b61030a61042836600461305b565b610a2c565b61030a61043b366004612e7d565b610a47565b61030a61044e366004612ead565b610abe565b61030a610461366004612e7d565b610ae4565b61034460008051602061387383398151915281565b610344610489366004612e7d565b610b03565b61034461049c366004612e7d565b610c2c565b60c95460ff166102a2565b6102df6104ba366004612e7d565b610cbf565b61030a6104cd366004612ed7565b610d36565b6103446104e0366004612ed7565b610fc3565b6102bf61104a565b61034461016b5481565b61030a6110d9565b61030a611298565b610365610515366004612ed7565b6112b8565b6102a2610528366004613097565b61135a565b6102bf611385565b61030a610543366004612ed7565b611394565b61034461016a5481565b610344600081565b61030a6105683660046130d1565b6113b8565b61030a61057b366004613108565b6113ec565b610169546102df906001600160a01b031681565b6102bf6105a2366004612e7d565b611424565b61030a6105b5366004613097565b61152b565b6103446000805160206138d383398151915281565b6102a26105dd3660046131c8565b6001600160a01b039182166000908152606a6020908152604080832093909416825291909152205460ff1690565b61030a610619366004612ed7565b611550565b600061062982611574565b92915050565b60606065805461063e906131f2565b80601f016020809104026020016040519081016040528092919081815260200182805461066a906131f2565b80156106b75780601f1061068c576101008083540402835291602001916106b7565b820191906000526020600020905b81548152906001019060200180831161069a57829003601f168201915b5050505050905090565b6000818152606760205260408120546001600160a01b031661073f5760405162461bcd60e51b815260206004820152602c60248201527f4552433732313a20617070726f76656420717565727920666f72206e6f6e657860448201526b34b9ba32b73a103a37b5b2b760a11b60648201526084015b60405180910390fd5b506000908152606960205260409020546001600160a01b031690565b8161076861016e82611599565b156107855760405162461bcd60e51b81526004016107369061322d565b61078f83836115be565b505050565b6060806107a0836112b8565b91506107ab826107d1565b9050915091565b6000805160206138738339815191526107ca816116cf565b5061016a55565b60606000825167ffffffffffffffff8111156107ef576107ef612f5b565b604051908082528060200260200182016040528015610818578160200160208202803683370190505b50905060005b83518110156108785761084984828151811061083c5761083c61325a565b6020026020010151610b03565b82828151811061085b5761085b61325a565b60209081029190910101528061087081613286565b91505061081e565b5092915050565b61088a335b826116d9565b6108a65760405162461bcd60e51b8152600401610736906132a1565b61078f8383836117d0565b600082815260fb60205260409020600101546108cc816116cf565b61078f8383611977565b60006108e183610fc3565b82106109435760405162461bcd60e51b815260206004820152602b60248201527f455243373231456e756d657261626c653a206f776e657220696e646578206f7560448201526a74206f6620626f756e647360a81b6064820152608401610736565b506001600160a01b03919091166000908152609760209081526040808320938352929052205490565b6001600160a01b03811633146109dc5760405162461bcd60e51b815260206004820152602f60248201527f416363657373436f6e74726f6c3a2063616e206f6e6c792072656e6f756e636560448201526e103937b632b9903337b91039b2b63360891b6064820152608401610736565b6109e682826119fd565b5050565b600080516020613873833981519152610a02816116cf565b5061016b55565b6000805160206138d3833981519152610a21816116cf565b610a29611a64565b50565b61078f838383604051806020016040528060008152506113ec565b610a5033610884565b610ab55760405162461bcd60e51b815260206004820152603060248201527f4552433732314275726e61626c653a2063616c6c6572206973206e6f74206f7760448201526f1b995c881b9bdc88185c1c1c9bdd995960821b6064820152608401610736565b610a2981611af7565b60005b8181101561078f57610ad283610d36565b80610adc81613286565b915050610ac1565b600080516020613873833981519152610afc816116cf565b5061016c55565b6000818152606760205260408120546001600160a01b0316610b735760405162461bcd60e51b8152602060048201526024808201527f446973636f756e7420717565727920666f72206e6f6e6578697374656e74207460448201526337b5b2b760e11b6064820152608401610736565b61016c5461015f5414610bc05760405162461bcd60e51b81526020600482015260156024820152744d696e74696e67206973207374696c6c206c69766560581b6044820152606401610736565b610bcc61016083611b9e565b15610bd957506005919050565b610be561016283611b9e565b15610bf25750600a919050565b610bfe61016483611b9e565b15610c0b5750600f919050565b610c1761016683611b9e565b15610c2457506014919050565b506000919050565b6000610c3760995490565b8210610c9a5760405162461bcd60e51b815260206004820152602c60248201527f455243373231456e756d657261626c653a20676c6f62616c20696e646578206f60448201526b7574206f6620626f756e647360a01b6064820152608401610736565b60998281548110610cad57610cad61325a565b90600052602060002001549050919050565b6000818152606760205260408120546001600160a01b0316806106295760405162461bcd60e51b815260206004820152602960248201527f4552433732313a206f776e657220717565727920666f72206e6f6e657869737460448201526832b73a103a37b5b2b760b91b6064820152608401610736565b60c95460ff1615610d595760405162461bcd60e51b8152600401610736906132f2565b61016a54610168546001600160a01b031663dd62ed3e336040516001600160e01b031960e084901b1681526001600160a01b03909116600482015230602482015260440160206040518083038186803b158015610db557600080fd5b505afa158015610dc9573d6000803e3d6000fd5b505050506040513d601f19601f82011682018060405250810190610ded919061331c565b1015610e3b5760405162461bcd60e51b815260206004820152601c60248201527f496e73756666696369656e7420315553444320616c6c6f77616e6365000000006044820152606401610736565b61016a54610168546001600160a01b03166370a08231336040516001600160e01b031960e084901b1681526001600160a01b03909116600482015260240160206040518083038186803b158015610e9157600080fd5b505afa158015610ea5573d6000803e3d6000fd5b505050506040513d601f19601f82011682018060405250810190610ec9919061331c565b1015610f175760405162461bcd60e51b815260206004820152601a60248201527f496e73756666696369656e742031555344432062616c616e63650000000000006044820152606401610736565b610168546001600160a01b03166323b872dd336101695461016a5460405160e085901b6001600160e01b03191681526001600160a01b0393841660048201529290911660248301526044820152606401602060405180830381600087803b158015610f8157600080fd5b505af1158015610f95573d6000803e3d6000fd5b505050506040513d601f19601f82011682018060405250810190610fb99190613335565b50610a2981611bb6565b60006001600160a01b03821661102e5760405162461bcd60e51b815260206004820152602a60248201527f4552433732313a2062616c616e636520717565727920666f7220746865207a65604482015269726f206164647265737360b01b6064820152608401610736565b506001600160a01b031660009081526068602052604090205490565b61016d8054611058906131f2565b80601f0160208091040260200160405190810160405280929190818152602001828054611084906131f2565b80156110d15780601f106110a6576101008083540402835291602001916110d1565b820191906000526020600020905b8154815290600101906020018083116110b457829003601f168201915b505050505081565b60006110e56001611c76565b905080156110fd576000805461ff0019166101001790555b6111496040518060400160405280600b81526020016a115b1d995cd51a58dad95d60aa1b8152506040518060400160405280600781526020016611551250d2d15560ca1b815250611cfb565b611151611d2c565b611159611d55565b611161611d2c565b611169611d2c565b611174600033611977565b61118c6000805160206138d383398151915233611977565b6111a460008051602061387383398151915233611977565b61016880546001600160a01b031990811673985458e523db3d53125813ed68c274899e9dfab41790915561016980549091167362efb2caf1f3ee645ff23b004b6e88a9a929b56317905563628b855061016b55678ac7230489e8000061016a5561138861016c556040805160608101909152603780825261383c602083013980516112389161016d91602090910190612d28565b5061015f546112505761125061015f80546001019055565b8015610a29576000805461ff0019169055604051600181527f7f26b83ff96e1f2b6a682f133852f6798a09c465da95921460cefb38474024989060200160405180910390a150565b6000805160206138d38339815191526112b0816116cf565b610a29611d84565b606060006112c583610fc3565b905060008167ffffffffffffffff8111156112e2576112e2612f5b565b60405190808252806020026020018201604052801561130b578160200160208202803683370190505b50905060005b828110156113525761132385826108d6565b8282815181106113355761133561325a565b60209081029190910101528061134a81613286565b915050611311565b509392505050565b600091825260fb602090815260408084206001600160a01b0393909316845291905290205460ff1690565b60606066805461063e906131f2565b6000805160206138738339815191526113ac816116cf565b61078f61016e83611ddc565b816113c561016e82611599565b156113e25760405162461bcd60e51b81526004016107369061322d565b61078f8383611df1565b6113f633836116d9565b6114125760405162461bcd60e51b8152600401610736906132a1565b61141e84848484611dfc565b50505050565b6060600061143183610b03565b9050600061016c5461144361015f5490565b1461146d576040518060400160405280600781526020016670656e64696e6760c81b815250611496565b61147682611e2f565b604051602001611486919061336e565b6040516020818303038152906040525b9050600061016d6114a684611e2f565b6040516020016114b7929190613393565b604051602081830303815290604052905060006114d386611e2f565b82846040516020016114e793929190613444565b604051602081830303815290604052905061150181611f2d565b6040516020016115119190613583565b604051602081830303815290604052945050505050919050565b600082815260fb6020526040902060010154611546816116cf565b61078f83836119fd565b600080516020613873833981519152611568816116cf565b61078f61016e83612081565b60006001600160e01b03198216637965db0b60e01b1480610629575061062982612096565b6001600160a01b038116600090815260018301602052604081205415155b9392505050565b60006115c982610cbf565b9050806001600160a01b0316836001600160a01b031614156116375760405162461bcd60e51b815260206004820152602160248201527f4552433732313a20617070726f76616c20746f2063757272656e74206f776e656044820152603960f91b6064820152608401610736565b336001600160a01b0382161480611653575061165381336105dd565b6116c55760405162461bcd60e51b815260206004820152603860248201527f4552433732313a20617070726f76652063616c6c6572206973206e6f74206f7760448201527f6e6572206e6f7220617070726f76656420666f7220616c6c00000000000000006064820152608401610736565b61078f83836120bb565b610a298133612129565b6000818152606760205260408120546001600160a01b03166117525760405162461bcd60e51b815260206004820152602c60248201527f4552433732313a206f70657261746f7220717565727920666f72206e6f6e657860448201526b34b9ba32b73a103a37b5b2b760a11b6064820152608401610736565b600061175d83610cbf565b9050806001600160a01b0316846001600160a01b031614806117a457506001600160a01b038082166000908152606a602090815260408083209388168352929052205460ff165b806117c85750836001600160a01b03166117bd846106c1565b6001600160a01b0316145b949350505050565b826001600160a01b03166117e382610cbf565b6001600160a01b0316146118475760405162461bcd60e51b815260206004820152602560248201527f4552433732313a207472616e736665722066726f6d20696e636f72726563742060448201526437bbb732b960d91b6064820152608401610736565b6001600160a01b0382166118a95760405162461bcd60e51b8152602060048201526024808201527f4552433732313a207472616e7366657220746f20746865207a65726f206164646044820152637265737360e01b6064820152608401610736565b6118b483838361218d565b6118bf6000826120bb565b6001600160a01b03831660009081526068602052604081208054600192906118e89084906135c8565b90915550506001600160a01b03821660009081526068602052604081208054600192906119169084906135df565b909155505060008181526067602052604080822080546001600160a01b0319166001600160a01b0386811691821790925591518493918716917fddf252ad1be2c89b69c2b068fc378daa952ba7f163c4a11628f55a4df523b3ef91a4505050565b611981828261135a565b6109e657600082815260fb602090815260408083206001600160a01b03851684529091529020805460ff191660011790556119b93390565b6001600160a01b0316816001600160a01b0316837f2f8788117e7eff1d82e926ec794901d17c78024a50270940304540a733656f0d60405160405180910390a45050565b611a07828261135a565b156109e657600082815260fb602090815260408083206001600160a01b0385168085529252808320805460ff1916905551339285917ff6391f5c32d9c69d2a47ea670b442974b53935d1edc7fd64eb21e047a839171b9190a45050565b60c95460ff16611aad5760405162461bcd60e51b815260206004820152601460248201527314185d5cd8589b194e881b9bdd081c185d5cd95960621b6044820152606401610736565b60c9805460ff191690557f5db9ee0a495bf2e6ff9c91a7834c1ba4fdd244a5e8aa4e537bd38aeae4b073aa335b6040516001600160a01b03909116815260200160405180910390a1565b6000611b0282610cbf565b9050611b108160008461218d565b611b1b6000836120bb565b6001600160a01b0381166000908152606860205260408120805460019290611b449084906135c8565b909155505060008281526067602052604080822080546001600160a01b0319169055518391906001600160a01b038416907fddf252ad1be2c89b69c2b068fc378daa952ba7f163c4a11628f55a4df523b3ef908390a45050565b600081815260018301602052604081205415156115b7565b6000611bc261015f5490565b90504261016b541015611c175760405162461bcd60e51b815260206004820152601860248201527f4d696e7420686173206e6f7420737461727465642079657400000000000000006044820152606401610736565b61016c548110611c545760405162461bcd60e51b815260206004820152600860248201526714dbdb19081bdd5d60c21b6044820152606401610736565b611c6361015f80546001019055565b611c6d8282612216565b6109e681612230565b60008054610100900460ff1615611cb5578160ff166001148015611c995750303b155b610c245760405162461bcd60e51b8152600401610736906135f7565b60005460ff808416911610611cdc5760405162461bcd60e51b8152600401610736906135f7565b506000805460ff191660ff92909216919091179055600190565b919050565b600054610100900460ff16611d225760405162461bcd60e51b815260040161073690613645565b6109e68282612396565b600054610100900460ff16611d535760405162461bcd60e51b815260040161073690613645565b565b600054610100900460ff16611d7c5760405162461bcd60e51b815260040161073690613645565b611d536123e4565b60c95460ff1615611da75760405162461bcd60e51b8152600401610736906132f2565b60c9805460ff191660011790557f62e78cea01bee320cd4e420270b5ea74000d11b0c9f74754ebdbfc544b05a258611ada3390565b60006115b7836001600160a01b038416612417565b6109e6338383612466565b611e078484846117d0565b611e1384848484612535565b61141e5760405162461bcd60e51b815260040161073690613690565b606081611e535750506040805180820190915260018152600360fc1b602082015290565b8160005b8115611e7d5780611e6781613286565b9150611e769050600a836136f8565b9150611e57565b60008167ffffffffffffffff811115611e9857611e98612f5b565b6040519080825280601f01601f191660200182016040528015611ec2576020820181803683370190505b5090505b84156117c857611ed76001836135c8565b9150611ee4600a8661370c565b611eef9060306135df565b60f81b818381518110611f0457611f0461325a565b60200101906001600160f81b031916908160001a905350611f26600a866136f8565b9450611ec6565b6060815160001415611f4d57505060408051602081019091526000815290565b60006040518060600160405280604081526020016138936040913990506000600384516002611f7c91906135df565b611f8691906136f8565b611f91906004613720565b67ffffffffffffffff811115611fa957611fa9612f5b565b6040519080825280601f01601f191660200182016040528015611fd3576020820181803683370190505b509050600182016020820185865187015b8082101561203f576003820191508151603f8160121c168501518453600184019350603f81600c1c168501518453600184019350603f8160061c168501518453600184019350603f8116850151845350600183019250611fe4565b505060038651066001811461205b576002811461206e57612076565b603d6001830353603d6002830353612076565b603d60018303535b509195945050505050565b60006115b7836001600160a01b038416612642565b60006001600160e01b0319821663780e9d6360e01b1480610629575061062982612735565b600081815260696020526040902080546001600160a01b0319166001600160a01b03841690811790915581906120f082610cbf565b6001600160a01b03167f8c5be1e5ebec7d5bd14f71427d1e84f3dd0314c0f7b2291e5b200ac8c7c3b92560405160405180910390a45050565b612133828261135a565b6109e65761214b816001600160a01b03166014612785565b612156836020612785565b60405160200161216792919061373f565b60408051601f198184030181529082905262461bcd60e51b825261073691600401612e6a565b60c95460ff16156121b05760405162461bcd60e51b8152600401610736906132f2565b826121bd61016e82611599565b156121da5760405162461bcd60e51b81526004016107369061322d565b826121e761016e82611599565b156122045760405162461bcd60e51b81526004016107369061322d565b61220f858585612921565b5050505050565b6109e68282604051806020016040528060008152506129d9565b600061223a612a0c565b604080516020810183905290810184905243606082015242608082015290915060009060a00160408051601f198184030181529190528051602090910120905060006122886103e88361370c565b90506103de81106122b75760326122a0610166612a34565b10156122b25761220f61016685612a3e565b506103dd5b6103b681101580156122ca57506103de81105b156122f35760c86122dc610164612a34565b10156122ee5761220f61016485612a3e565b506103b55b6102ee811015801561230657506103b681105b1561232b576103e8612319610162612a34565b101561232b5761220f61016285612a3e565b610ea6612339610160612a34565b101561234b5761220f61016085612a3e565b6103e8612359610162612a34565b101561236b5761220f61016285612a3e565b60c8612378610164612a34565b101561238a5761220f61016485612a3e565b61220f61016685612a3e565b600054610100900460ff166123bd5760405162461bcd60e51b815260040161073690613645565b81516123d0906065906020850190612d28565b50805161078f906066906020840190612d28565b600054610100900460ff1661240b5760405162461bcd60e51b815260040161073690613645565b60c9805460ff19169055565b600081815260018301602052604081205461245e57508154600181810184556000848152602080822090930184905584548482528286019093526040902091909155610629565b506000610629565b816001600160a01b0316836001600160a01b031614156124c85760405162461bcd60e51b815260206004820152601960248201527f4552433732313a20617070726f766520746f2063616c6c6572000000000000006044820152606401610736565b6001600160a01b038381166000818152606a6020908152604080832094871680845294825291829020805460ff191686151590811790915591519182527f17307eab39ab6107e8899845ad3d59bd9653f200f220920489ca2b5937696c31910160405180910390a3505050565b60006001600160a01b0384163b1561263757604051630a85bd0160e11b81526001600160a01b0385169063150b7a02906125799033908990889088906004016137b4565b602060405180830381600087803b15801561259357600080fd5b505af19250505080156125c3575060408051601f3d908101601f191682019092526125c0918101906137f1565b60015b61261d573d8080156125f1576040519150601f19603f3d011682016040523d82523d6000602084013e6125f6565b606091505b5080516126155760405162461bcd60e51b815260040161073690613690565b805181602001fd5b6001600160e01b031916630a85bd0160e11b1490506117c8565b506001949350505050565b6000818152600183016020526040812054801561272b5760006126666001836135c8565b855490915060009061267a906001906135c8565b90508181146126df57600086600001828154811061269a5761269a61325a565b90600052602060002001549050808760000184815481106126bd576126bd61325a565b6000918252602080832090910192909255918252600188019052604090208390555b85548690806126f0576126f061380e565b600190038181906000526020600020016000905590558560010160008681526020019081526020016000206000905560019350505050610629565b6000915050610629565b60006001600160e01b031982166380ac58cd60e01b148061276657506001600160e01b03198216635b5e139f60e01b145b8061062957506301ffc9a760e01b6001600160e01b0319831614610629565b60606000612794836002613720565b61279f9060026135df565b67ffffffffffffffff8111156127b7576127b7612f5b565b6040519080825280601f01601f1916602001820160405280156127e1576020820181803683370190505b509050600360fc1b816000815181106127fc576127fc61325a565b60200101906001600160f81b031916908160001a905350600f60fb1b8160018151811061282b5761282b61325a565b60200101906001600160f81b031916908160001a905350600061284f846002613720565b61285a9060016135df565b90505b60018111156128d2576f181899199a1a9b1b9c1cb0b131b232b360811b85600f166010811061288e5761288e61325a565b1a60f81b8282815181106128a4576128a461325a565b60200101906001600160f81b031916908160001a90535060049490941c936128cb81613824565b905061285d565b5083156115b75760405162461bcd60e51b815260206004820181905260248201527f537472696e67733a20686578206c656e67746820696e73756666696369656e746044820152606401610736565b6001600160a01b03831661297c5761297781609980546000838152609a60205260408120829055600182018355919091527f72a152ddfb8e864297c917af52ea6c1c68aead0fee1a62673fcc7e0c94979d000155565b61299f565b816001600160a01b0316836001600160a01b03161461299f5761299f8382612a4a565b6001600160a01b0382166129b65761078f81612ae7565b826001600160a01b0316826001600160a01b03161461078f5761078f8282612b96565b6129e38383612bda565b6129f06000848484612535565b61078f5760405162461bcd60e51b815260040161073690613690565b6000612a16612dac565b438152604051602081818460ff600019fa612a2d57fe5b5192915050565b6000610629825490565b60006115b78383612417565b60006001612a5784610fc3565b612a6191906135c8565b600083815260986020526040902054909150808214612ab4576001600160a01b03841660009081526097602090815260408083208584528252808320548484528184208190558352609890915290208190555b5060009182526098602090815260408084208490556001600160a01b039094168352609781528383209183525290812055565b609954600090612af9906001906135c8565b6000838152609a602052604081205460998054939450909284908110612b2157612b2161325a565b906000526020600020015490508060998381548110612b4257612b4261325a565b6000918252602080832090910192909255828152609a90915260408082208490558582528120556099805480612b7a57612b7a61380e565b6001900381819060005260206000200160009055905550505050565b6000612ba183610fc3565b6001600160a01b039093166000908152609760209081526040808320868452825280832085905593825260989052919091209190915550565b6001600160a01b038216612c305760405162461bcd60e51b815260206004820181905260248201527f4552433732313a206d696e7420746f20746865207a65726f20616464726573736044820152606401610736565b6000818152606760205260409020546001600160a01b031615612c955760405162461bcd60e51b815260206004820152601c60248201527f4552433732313a20746f6b656e20616c7265616479206d696e746564000000006044820152606401610736565b612ca16000838361218d565b6001600160a01b0382166000908152606860205260408120805460019290612cca9084906135df565b909155505060008181526067602052604080822080546001600160a01b0319166001600160a01b03861690811790915590518392907fddf252ad1be2c89b69c2b068fc378daa952ba7f163c4a11628f55a4df523b3ef908290a45050565b828054612d34906131f2565b90600052602060002090601f016020900481019282612d565760008555612d9c565b82601f10612d6f57805160ff1916838001178555612d9c565b82800160010185558215612d9c579182015b82811115612d9c578251825591602001919060010190612d81565b50612da8929150612dca565b5090565b60405180602001604052806001906020820280368337509192915050565b5b80821115612da85760008155600101612dcb565b6001600160e01b031981168114610a2957600080fd5b600060208284031215612e0757600080fd5b81356115b781612ddf565b60005b83811015612e2d578181015183820152602001612e15565b8381111561141e5750506000910152565b60008151808452612e56816020860160208601612e12565b601f01601f19169290920160200192915050565b6020815260006115b76020830184612e3e565b600060208284031215612e8f57600080fd5b5035919050565b80356001600160a01b0381168114611cf657600080fd5b60008060408385031215612ec057600080fd5b612ec983612e96565b946020939093013593505050565b600060208284031215612ee957600080fd5b6115b782612e96565b600081518084526020808501945080840160005b83811015612f2257815187529582019590820190600101612f06565b509495945050505050565b604081526000612f406040830185612ef2565b8281036020840152612f528185612ef2565b95945050505050565b634e487b7160e01b600052604160045260246000fd5b604051601f8201601f1916810167ffffffffffffffff81118282101715612f9a57612f9a612f5b565b604052919050565b60006020808385031215612fb557600080fd5b823567ffffffffffffffff80821115612fcd57600080fd5b818501915085601f830112612fe157600080fd5b813581811115612ff357612ff3612f5b565b8060051b9150613004848301612f71565b818152918301840191848101908884111561301e57600080fd5b938501935b8385101561303c57843582529385019390850190613023565b98975050505050505050565b6020815260006115b76020830184612ef2565b60008060006060848603121561307057600080fd5b61307984612e96565b925061308760208501612e96565b9150604084013590509250925092565b600080604083850312156130aa57600080fd5b823591506130ba60208401612e96565b90509250929050565b8015158114610a2957600080fd5b600080604083850312156130e457600080fd5b6130ed83612e96565b915060208301356130fd816130c3565b809150509250929050565b6000806000806080858703121561311e57600080fd5b61312785612e96565b93506020613136818701612e96565b935060408601359250606086013567ffffffffffffffff8082111561315a57600080fd5b818801915088601f83011261316e57600080fd5b81358181111561318057613180612f5b565b613192601f8201601f19168501612f71565b915080825289848285010111156131a857600080fd5b808484018584013760008482840101525080935050505092959194509250565b600080604083850312156131db57600080fd5b6131e483612e96565b91506130ba60208401612e96565b600181811c9082168061320657607f821691505b6020821081141561322757634e487b7160e01b600052602260045260246000fd5b50919050565b602080825260139082015272426c61636b6c6973746564206164647265737360681b604082015260600190565b634e487b7160e01b600052603260045260246000fd5b634e487b7160e01b600052601160045260246000fd5b600060001982141561329a5761329a613270565b5060010190565b60208082526031908201527f4552433732313a207472616e736665722063616c6c6572206973206e6f74206f6040820152701ddb995c881b9bdc88185c1c1c9bdd9959607a1b606082015260800190565b60208082526010908201526f14185d5cd8589b194e881c185d5cd95960821b604082015260600190565b60006020828403121561332e57600080fd5b5051919050565b60006020828403121561334757600080fd5b81516115b7816130c3565b60008151613364818560208601612e12565b9290920192915050565b60008251613380818460208701612e12565b602560f81b920191825250600101919050565b600080845481600182811c9150808316806133af57607f831692505b60208084108214156133cf57634e487b7160e01b86526022600452602486fd5b8180156133e357600181146133f457613421565b60ff19861689528489019650613421565b60008b81526020902060005b868110156134195781548b820152908501908301613400565b505084890196505b505050505050612f526134348286613352565b630b9b5c0d60e21b815260040190565b6000607b60f81b8083527f226e616d65223a2022436f736d696320456c76657320446973636f756e74205460018401526669636b6574202360c81b60218401528551613497816028860160208a01612e12565b61088b60f21b6028918501918201819052691134b6b0b3b2911d101160b11b602a83015286516134ce816034850160208b01612e12565b60349201918201526e2261747472696275746573223a205b60881b60368201526045810182905261357861356a61355d61355061354a613534604687017f2274726169745f74797065223a2022646973636f756e74222c00000000000000815260190190565b69113b30b63ab2911d101160b11b8152600a0190565b89613352565b601160f91b815260010190565b607d60f81b815260010190565b615d7d60f01b815260020190565b979650505050505050565b7f646174613a6170706c69636174696f6e2f6a736f6e3b6261736536342c0000008152600082516135bb81601d850160208701612e12565b91909101601d0192915050565b6000828210156135da576135da613270565b500390565b600082198211156135f2576135f2613270565b500190565b6020808252602e908201527f496e697469616c697a61626c653a20636f6e747261637420697320616c72656160408201526d191e481a5b9a5d1a585b1a5e995960921b606082015260800190565b6020808252602b908201527f496e697469616c697a61626c653a20636f6e7472616374206973206e6f74206960408201526a6e697469616c697a696e6760a81b606082015260800190565b60208082526032908201527f4552433732313a207472616e7366657220746f206e6f6e20455243373231526560408201527131b2b4bb32b91034b6b83632b6b2b73a32b960711b606082015260800190565b634e487b7160e01b600052601260045260246000fd5b600082613707576137076136e2565b500490565b60008261371b5761371b6136e2565b500690565b600081600019048311821515161561373a5761373a613270565b500290565b7f416363657373436f6e74726f6c3a206163636f756e7420000000000000000000815260008351613777816017850160208801612e12565b7001034b99036b4b9b9b4b733903937b6329607d1b60179184019182015283516137a8816028840160208801612e12565b01602801949350505050565b6001600160a01b03858116825284166020820152604081018390526080606082018190526000906137e790830184612e3e565b9695505050505050565b60006020828403121561380357600080fd5b81516115b781612ddf565b634e487b7160e01b600052603160045260246000fd5b60008161383357613833613270565b50600019019056fe68747470733a2f2f696d616765732e636f736d6963756e6976657273652e6f6e652f636f736d69632d656c7665732d7469636b6574732f73e573f9566d61418a34d5de3ff49360f9c51fec37f7486551670290f6285dab4142434445464748494a4b4c4d4e4f505152535455565758595a6162636465666768696a6b6c6d6e6f707172737475767778797a303132333435363738392b2f65d7a28e3265b37a6474929f336521b332c1681b933f6cb9f3376673440d862aa2646970667358221220f04b0fa9e81a035c76ce3def5d8918c07b84deb508be57a73e59c7bdc6ea006864736f6c63430008090033",
  "linkReferences": {},
  "deployedLinkReferences": {}
}