{
  "_format": "hh-sol-artifact-1",
  "contractName": "CosmicBadges",
  "sourceName": "contracts/upgradeable/ERC1155/CosmicBadges.sol",
  "abi": [
    {
      "inputs": [],
      "stateMutability": "nonpayable",
      "type": "constructor"
    },
    {
      "anonymous": false,
      "inputs": [
        {
          "indexed": true,
          "internalType": "address",
          "name": "account",
          "type": "address"
        },
        {
          "indexed": true,
          "internalType": "address",
          "name": "operator",
          "type": "address"
        },
        {
          "indexed": false,
          "internalType": "bool",
          "name": "approved",
          "type": "bool"
        }
      ],
      "name": "ApprovalForAll",
      "type": "event"
    },
    {
      "anonymous": false,
      "inputs": [
        {
          "indexed": false,
          "internalType": "uint8",
          "name": "version",
          "type": "uint8"
        }
      ],
      "name": "Initialized",
      "type": "event"
    },
    {
      "anonymous": false,
      "inputs": [
        {
          "indexed": true,
          "internalType": "uint256",
          "name": "tokenId",
          "type": "uint256"
        },
        {
          "indexed": false,
          "internalType": "uint256",
          "name": "attributeId",
          "type": "uint256"
        },
        {
          "indexed": false,
          "internalType": "string",
          "name": "name",
          "type": "string"
        }
      ],
      "name": "NameUpdated",
      "type": "event"
    },
    {
      "anonymous": false,
      "inputs": [
        {
          "indexed": true,
          "internalType": "uint256",
          "name": "tokenId",
          "type": "uint256"
        },
        {
          "indexed": false,
          "internalType": "uint256[]",
          "name": "attributeIds",
          "type": "uint256[]"
        },
        {
          "indexed": false,
          "internalType": "string[]",
          "name": "names",
          "type": "string[]"
        }
      ],
      "name": "NamesUpdated",
      "type": "event"
    },
    {
      "anonymous": false,
      "inputs": [
        {
          "indexed": false,
          "internalType": "address",
          "name": "account",
          "type": "address"
        }
      ],
      "name": "Paused",
      "type": "event"
    },
    {
      "anonymous": false,
      "inputs": [
        {
          "indexed": true,
          "internalType": "bytes32",
          "name": "role",
          "type": "bytes32"
        },
        {
          "indexed": true,
          "internalType": "bytes32",
          "name": "previousAdminRole",
          "type": "bytes32"
        },
        {
          "indexed": true,
          "internalType": "bytes32",
          "name": "newAdminRole",
          "type": "bytes32"
        }
      ],
      "name": "RoleAdminChanged",
      "type": "event"
    },
    {
      "anonymous": false,
      "inputs": [
        {
          "indexed": true,
          "internalType": "bytes32",
          "name": "role",
          "type": "bytes32"
        },
        {
          "indexed": true,
          "internalType": "address",
          "name": "account",
          "type": "address"
        },
        {
          "indexed": true,
          "internalType": "address",
          "name": "sender",
          "type": "address"
        }
      ],
      "name": "RoleGranted",
      "type": "event"
    },
    {
      "anonymous": false,
      "inputs": [
        {
          "indexed": true,
          "internalType": "bytes32",
          "name": "role",
          "type": "bytes32"
        },
        {
          "indexed": true,
          "internalType": "address",
          "name": "account",
          "type": "address"
        },
        {
          "indexed": true,
          "internalType": "address",
          "name": "sender",
          "type": "address"
        }
      ],
      "name": "RoleRevoked",
      "type": "event"
    },
    {
      "anonymous": false,
      "inputs": [
        {
          "indexed": true,
          "internalType": "address",
          "name": "operator",
          "type": "address"
        },
        {
          "indexed": true,
          "internalType": "address",
          "name": "from",
          "type": "address"
        },
        {
          "indexed": true,
          "internalType": "address",
          "name": "to",
          "type": "address"
        },
        {
          "indexed": false,
          "internalType": "uint256[]",
          "name": "ids",
          "type": "uint256[]"
        },
        {
          "indexed": false,
          "internalType": "uint256[]",
          "name": "values",
          "type": "uint256[]"
        }
      ],
      "name": "TransferBatch",
      "type": "event"
    },
    {
      "anonymous": false,
      "inputs": [
        {
          "indexed": true,
          "internalType": "address",
          "name": "operator",
          "type": "address"
        },
        {
          "indexed": true,
          "internalType": "address",
          "name": "from",
          "type": "address"
        },
        {
          "indexed": true,
          "internalType": "address",
          "name": "to",
          "type": "address"
        },
        {
          "indexed": false,
          "internalType": "uint256",
          "name": "id",
          "type": "uint256"
        },
        {
          "indexed": false,
          "internalType": "uint256",
          "name": "value",
          "type": "uint256"
        }
      ],
      "name": "TransferSingle",
      "type": "event"
    },
    {
      "anonymous": false,
      "inputs": [
        {
          "indexed": false,
          "internalType": "string",
          "name": "value",
          "type": "string"
        },
        {
          "indexed": true,
          "internalType": "uint256",
          "name": "id",
          "type": "uint256"
        }
      ],
      "name": "URI",
      "type": "event"
    },
    {
      "anonymous": false,
      "inputs": [
        {
          "indexed": false,
          "internalType": "address",
          "name": "account",
          "type": "address"
        }
      ],
      "name": "Unpaused",
      "type": "event"
    },
    {
      "anonymous": false,
      "inputs": [
        {
          "indexed": true,
          "internalType": "uint256",
          "name": "tokenId",
          "type": "uint256"
        },
        {
          "indexed": false,
          "internalType": "uint256",
          "name": "attributeId",
          "type": "uint256"
        },
        {
          "indexed": false,
          "internalType": "uint256",
          "name": "value",
          "type": "uint256"
        }
      ],
      "name": "ValueUpdated",
      "type": "event"
    },
    {
      "anonymous": false,
      "inputs": [
        {
          "indexed": true,
          "internalType": "uint256",
          "name": "tokenId",
          "type": "uint256"
        },
        {
          "indexed": false,
          "internalType": "uint256[]",
          "name": "attributeIds",
          "type": "uint256[]"
        },
        {
          "indexed": false,
          "internalType": "uint256[]",
          "name": "values",
          "type": "uint256[]"
        }
      ],
      "name": "ValuesUpdated",
      "type": "event"
    },
    {
      "inputs": [],
      "name": "ADMIN_ROLE",
      "outputs": [
        {
          "internalType": "bytes32",
          "name": "",
          "type": "bytes32"
        }
      ],
      "stateMutability": "view",
      "type": "function"
    },
    {
      "inputs": [],
      "name": "CONTRACT_ROLE",
      "outputs": [
        {
          "internalType": "bytes32",
          "name": "",
          "type": "bytes32"
        }
      ],
      "stateMutability": "view",
      "type": "function"
    },
    {
      "inputs": [],
      "name": "DEFAULT_ADMIN_ROLE",
      "outputs": [
        {
          "internalType": "bytes32",
          "name": "",
          "type": "bytes32"
        }
      ],
      "stateMutability": "view",
      "type": "function"
    },
    {
      "inputs": [],
      "name": "MINTER_ROLE",
      "outputs": [
        {
          "internalType": "bytes32",
          "name": "",
          "type": "bytes32"
        }
      ],
      "stateMutability": "view",
      "type": "function"
    },
    {
      "inputs": [],
      "name": "SOULBOUND_WHITELIST_ROLE",
      "outputs": [
        {
          "internalType": "bytes32",
          "name": "",
          "type": "bytes32"
        }
      ],
      "stateMutability": "view",
      "type": "function"
    },
    {
      "inputs": [],
      "name": "activeIds",
      "outputs": [
        {
          "internalType": "uint256[]",
          "name": "",
          "type": "uint256[]"
        }
      ],
      "stateMutability": "view",
      "type": "function"
    },
    {
      "inputs": [
        {
          "internalType": "address",
          "name": "account",
          "type": "address"
        },
        {
          "internalType": "uint256",
          "name": "id",
          "type": "uint256"
        }
      ],
      "name": "balanceOf",
      "outputs": [
        {
          "internalType": "uint256",
          "name": "",
          "type": "uint256"
        }
      ],
      "stateMutability": "view",
      "type": "function"
    },
    {
      "inputs": [
        {
          "internalType": "address[]",
          "name": "accounts",
          "type": "address[]"
        },
        {
          "internalType": "uint256[]",
          "name": "ids",
          "type": "uint256[]"
        }
      ],
      "name": "balanceOfBatch",
      "outputs": [
        {
          "internalType": "uint256[]",
          "name": "",
          "type": "uint256[]"
        }
      ],
      "stateMutability": "view",
      "type": "function"
    },
    {
      "inputs": [
        {
          "internalType": "uint256",
          "name": "tokenId",
          "type": "uint256"
        },
        {
          "internalType": "uint256[]",
          "name": "attributeIds",
          "type": "uint256[]"
        }
      ],
      "name": "batchGetAttribute",
      "outputs": [
        {
          "internalType": "uint256[]",
          "name": "",
          "type": "uint256[]"
        }
      ],
      "stateMutability": "view",
      "type": "function"
    },
    {
      "inputs": [
        {
          "internalType": "uint256",
          "name": "tokenId",
          "type": "uint256"
        },
        {
          "internalType": "uint256[]",
          "name": "attributeIds",
          "type": "uint256[]"
        },
        {
          "internalType": "uint256[]",
          "name": "values",
          "type": "uint256[]"
        }
      ],
      "name": "batchSetAttribute",
      "outputs": [],
      "stateMutability": "nonpayable",
      "type": "function"
    },
    {
      "inputs": [
        {
          "internalType": "uint256",
          "name": "tokenId",
          "type": "uint256"
        },
        {
          "internalType": "uint256[]",
          "name": "attributeIds",
          "type": "uint256[]"
        },
        {
          "internalType": "string[]",
          "name": "names",
          "type": "string[]"
        }
      ],
      "name": "batchSetAttributeName",
      "outputs": [],
      "stateMutability": "nonpayable",
      "type": "function"
    },
    {
      "inputs": [
        {
          "internalType": "uint256[]",
          "name": "tokenIds",
          "type": "uint256[]"
        }
      ],
      "name": "batchTokenURI",
      "outputs": [
        {
          "internalType": "string[]",
          "name": "",
          "type": "string[]"
        }
      ],
      "stateMutability": "view",
      "type": "function"
    },
    {
      "inputs": [
        {
          "internalType": "uint256[]",
          "name": "tokenIds",
          "type": "uint256[]"
        }
      ],
      "name": "batchUri",
      "outputs": [
        {
          "internalType": "string[]",
          "name": "",
          "type": "string[]"
        }
      ],
      "stateMutability": "view",
      "type": "function"
    },
    {
      "inputs": [
        {
          "internalType": "address",
          "name": "account",
          "type": "address"
        },
        {
          "internalType": "uint256",
          "name": "id",
          "type": "uint256"
        },
        {
          "internalType": "uint256",
          "name": "value",
          "type": "uint256"
        }
      ],
      "name": "burn",
      "outputs": [],
      "stateMutability": "nonpayable",
      "type": "function"
    },
    {
      "inputs": [
        {
          "internalType": "address",
          "name": "from",
          "type": "address"
        },
        {
          "internalType": "uint256[]",
          "name": "ids",
          "type": "uint256[]"
        },
        {
          "internalType": "uint256[]",
          "name": "amounts",
          "type": "uint256[]"
        }
      ],
      "name": "burnBatch",
      "outputs": [],
      "stateMutability": "nonpayable",
      "type": "function"
    },
    {
      "inputs": [
        {
          "internalType": "uint256",
          "name": "id",
          "type": "uint256"
        }
      ],
      "name": "exists",
      "outputs": [
        {
          "internalType": "bool",
          "name": "",
          "type": "bool"
        }
      ],
      "stateMutability": "view",
      "type": "function"
    },
    {
      "inputs": [
        {
          "internalType": "uint256",
          "name": "tokenId",
          "type": "uint256"
        },
        {
          "internalType": "uint256",
          "name": "attributeId",
          "type": "uint256"
        }
      ],
      "name": "getAttribute",
      "outputs": [
        {
          "internalType": "uint256",
          "name": "",
          "type": "uint256"
        }
      ],
      "stateMutability": "view",
      "type": "function"
    },
    {
      "inputs": [],
      "name": "getBlacklisted",
      "outputs": [
        {
          "internalType": "address[]",
          "name": "",
          "type": "address[]"
        }
      ],
      "stateMutability": "view",
      "type": "function"
    },
    {
      "inputs": [
        {
          "internalType": "bytes32",
          "name": "role",
          "type": "bytes32"
        }
      ],
      "name": "getRoleAdmin",
      "outputs": [
        {
          "internalType": "bytes32",
          "name": "",
          "type": "bytes32"
        }
      ],
      "stateMutability": "view",
      "type": "function"
    },
    {
      "inputs": [
        {
          "internalType": "bytes32",
          "name": "role",
          "type": "bytes32"
        },
        {
          "internalType": "uint256",
          "name": "index",
          "type": "uint256"
        }
      ],
      "name": "getRoleMember",
      "outputs": [
        {
          "internalType": "address",
          "name": "",
          "type": "address"
        }
      ],
      "stateMutability": "view",
      "type": "function"
    },
    {
      "inputs": [
        {
          "internalType": "bytes32",
          "name": "role",
          "type": "bytes32"
        }
      ],
      "name": "getRoleMemberCount",
      "outputs": [
        {
          "internalType": "uint256",
          "name": "",
          "type": "uint256"
        }
      ],
      "stateMutability": "view",
      "type": "function"
    },
    {
      "inputs": [
        {
          "internalType": "bytes32",
          "name": "role",
          "type": "bytes32"
        },
        {
          "internalType": "address",
          "name": "account",
          "type": "address"
        }
      ],
      "name": "grantRole",
      "outputs": [],
      "stateMutability": "nonpayable",
      "type": "function"
    },
    {
      "inputs": [
        {
          "internalType": "bytes32",
          "name": "role",
          "type": "bytes32"
        },
        {
          "internalType": "address",
          "name": "account",
          "type": "address"
        }
      ],
      "name": "hasRole",
      "outputs": [
        {
          "internalType": "bool",
          "name": "",
          "type": "bool"
        }
      ],
      "stateMutability": "view",
      "type": "function"
    },
    {
      "inputs": [],
      "name": "imageBaseURI",
      "outputs": [
        {
          "internalType": "string",
          "name": "",
          "type": "string"
        }
      ],
      "stateMutability": "view",
      "type": "function"
    },
    {
      "inputs": [],
      "name": "initialize",
      "outputs": [],
      "stateMutability": "nonpayable",
      "type": "function"
    },
    {
      "inputs": [
        {
          "internalType": "address",
          "name": "account",
          "type": "address"
        },
        {
          "internalType": "address",
          "name": "operator",
          "type": "address"
        }
      ],
      "name": "isApprovedForAll",
      "outputs": [
        {
          "internalType": "bool",
          "name": "",
          "type": "bool"
        }
      ],
      "stateMutability": "view",
      "type": "function"
    },
    {
      "inputs": [
        {
          "internalType": "address",
          "name": "user",
          "type": "address"
        }
      ],
      "name": "isBlacklisted",
      "outputs": [
        {
          "internalType": "bool",
          "name": "",
          "type": "bool"
        }
      ],
      "stateMutability": "view",
      "type": "function"
    },
    {
      "inputs": [
        {
          "internalType": "address",
          "name": "account",
          "type": "address"
        },
        {
          "internalType": "uint256",
          "name": "id",
          "type": "uint256"
        },
        {
          "internalType": "uint256",
          "name": "amount",
          "type": "uint256"
        },
        {
          "internalType": "bytes",
          "name": "data",
          "type": "bytes"
        }
      ],
      "name": "mint",
      "outputs": [],
      "stateMutability": "nonpayable",
      "type": "function"
    },
    {
      "inputs": [
        {
          "internalType": "address",
          "name": "to",
          "type": "address"
        },
        {
          "internalType": "uint256[]",
          "name": "ids",
          "type": "uint256[]"
        },
        {
          "internalType": "uint256[]",
          "name": "amounts",
          "type": "uint256[]"
        },
        {
          "internalType": "bytes",
          "name": "data",
          "type": "bytes"
        }
      ],
      "name": "mintBatch",
      "outputs": [],
      "stateMutability": "nonpayable",
      "type": "function"
    },
    {
      "inputs": [
        {
          "internalType": "uint256",
          "name": "id",
          "type": "uint256"
        },
        {
          "internalType": "address[]",
          "name": "to",
          "type": "address[]"
        },
        {
          "internalType": "uint256[]",
          "name": "amounts",
          "type": "uint256[]"
        }
      ],
      "name": "mintBatchOf",
      "outputs": [],
      "stateMutability": "nonpayable",
      "type": "function"
    },
    {
      "inputs": [],
      "name": "name",
      "outputs": [
        {
          "internalType": "string",
          "name": "",
          "type": "string"
        }
      ],
      "stateMutability": "view",
      "type": "function"
    },
    {
      "inputs": [],
      "name": "pause",
      "outputs": [],
      "stateMutability": "nonpayable",
      "type": "function"
    },
    {
      "inputs": [],
      "name": "paused",
      "outputs": [
        {
          "internalType": "bool",
          "name": "",
          "type": "bool"
        }
      ],
      "stateMutability": "view",
      "type": "function"
    },
    {
      "inputs": [
        {
          "internalType": "bytes32",
          "name": "role",
          "type": "bytes32"
        },
        {
          "internalType": "address",
          "name": "account",
          "type": "address"
        }
      ],
      "name": "renounceRole",
      "outputs": [],
      "stateMutability": "nonpayable",
      "type": "function"
    },
    {
      "inputs": [
        {
          "internalType": "bytes32",
          "name": "role",
          "type": "bytes32"
        },
        {
          "internalType": "address",
          "name": "account",
          "type": "address"
        }
      ],
      "name": "revokeRole",
      "outputs": [],
      "stateMutability": "nonpayable",
      "type": "function"
    },
    {
      "inputs": [
        {
          "internalType": "address",
          "name": "from",
          "type": "address"
        },
        {
          "internalType": "address",
          "name": "to",
          "type": "address"
        },
        {
          "internalType": "uint256[]",
          "name": "ids",
          "type": "uint256[]"
        },
        {
          "internalType": "uint256[]",
          "name": "amounts",
          "type": "uint256[]"
        },
        {
          "internalType": "bytes",
          "name": "data",
          "type": "bytes"
        }
      ],
      "name": "safeBatchTransferFrom",
      "outputs": [],
      "stateMutability": "nonpayable",
      "type": "function"
    },
    {
      "inputs": [
        {
          "internalType": "address",
          "name": "from",
          "type": "address"
        },
        {
          "internalType": "address",
          "name": "to",
          "type": "address"
        },
        {
          "internalType": "uint256",
          "name": "id",
          "type": "uint256"
        },
        {
          "internalType": "uint256",
          "name": "amount",
          "type": "uint256"
        },
        {
          "internalType": "bytes",
          "name": "data",
          "type": "bytes"
        }
      ],
      "name": "safeTransferFrom",
      "outputs": [],
      "stateMutability": "nonpayable",
      "type": "function"
    },
    {
      "inputs": [
        {
          "internalType": "address",
          "name": "operator",
          "type": "address"
        },
        {
          "internalType": "bool",
          "name": "approved",
          "type": "bool"
        }
      ],
      "name": "setApprovalForAll",
      "outputs": [],
      "stateMutability": "nonpayable",
      "type": "function"
    },
    {
      "inputs": [
        {
          "internalType": "uint256",
          "name": "tokenId",
          "type": "uint256"
        },
        {
          "internalType": "uint256",
          "name": "attributeId",
          "type": "uint256"
        },
        {
          "internalType": "uint256",
          "name": "value",
          "type": "uint256"
        }
      ],
      "name": "setAttribute",
      "outputs": [],
      "stateMutability": "nonpayable",
      "type": "function"
    },
    {
      "inputs": [
        {
          "internalType": "uint256",
          "name": "tokenId",
          "type": "uint256"
        },
        {
          "internalType": "uint256",
          "name": "attributeId",
          "type": "uint256"
        },
        {
          "internalType": "string",
          "name": "name",
          "type": "string"
        }
      ],
      "name": "setAttributeName",
      "outputs": [],
      "stateMutability": "nonpayable",
      "type": "function"
    },
    {
      "inputs": [
        {
          "internalType": "uint256",
          "name": "tokenId",
          "type": "uint256"
        }
      ],
      "name": "setSoulbound",
      "outputs": [],
      "stateMutability": "nonpayable",
      "type": "function"
    },
    {
      "inputs": [
        {
          "internalType": "bytes4",
          "name": "interfaceId",
          "type": "bytes4"
        }
      ],
      "name": "supportsInterface",
      "outputs": [
        {
          "internalType": "bool",
          "name": "",
          "type": "bool"
        }
      ],
      "stateMutability": "view",
      "type": "function"
    },
    {
      "inputs": [],
      "name": "symbol",
      "outputs": [
        {
          "internalType": "string",
          "name": "",
          "type": "string"
        }
      ],
      "stateMutability": "view",
      "type": "function"
    },
    {
      "inputs": [
        {
          "internalType": "uint256",
          "name": "tokenId",
          "type": "uint256"
        }
      ],
      "name": "tokenURI",
      "outputs": [
        {
          "internalType": "string",
          "name": "",
          "type": "string"
        }
      ],
      "stateMutability": "view",
      "type": "function"
    },
    {
      "inputs": [
        {
          "internalType": "address",
          "name": "owner",
          "type": "address"
        }
      ],
      "name": "tokensOf",
      "outputs": [
        {
          "internalType": "uint256[]",
          "name": "tokenIds",
          "type": "uint256[]"
        },
        {
          "internalType": "uint256[]",
          "name": "balances",
          "type": "uint256[]"
        }
      ],
      "stateMutability": "view",
      "type": "function"
    },
    {
      "inputs": [
        {
          "internalType": "uint256",
          "name": "id",
          "type": "uint256"
        }
      ],
      "name": "totalSupply",
      "outputs": [
        {
          "internalType": "uint256",
          "name": "",
          "type": "uint256"
        }
      ],
      "stateMutability": "view",
      "type": "function"
    },
    {
      "inputs": [],
      "name": "unpause",
      "outputs": [],
      "stateMutability": "nonpayable",
      "type": "function"
    },
    {
      "inputs": [
        {
          "internalType": "uint256",
          "name": "tokenId",
          "type": "uint256"
        }
      ],
      "name": "unsetSoulbound",
      "outputs": [],
      "stateMutability": "nonpayable",
      "type": "function"
    },
    {
      "inputs": [
        {
          "internalType": "uint256",
          "name": "tokenId",
          "type": "uint256"
        }
      ],
      "name": "uri",
      "outputs": [
        {
          "internalType": "string",
          "name": "",
          "type": "string"
        }
      ],
      "stateMutability": "view",
      "type": "function"
    }
  ],
  "bytecode": "0x60806040523480156200001157600080fd5b506200001c62000022565b620000e4565b600054610100900460ff16156200008f5760405162461bcd60e51b815260206004820152602760248201527f496e697469616c697a61626c653a20636f6e747261637420697320696e697469604482015266616c697a696e6760c81b606482015260840160405180910390fd5b60005460ff9081161015620000e2576000805460ff191660ff9081179091556040519081527f7f26b83ff96e1f2b6a682f133852f6798a09c465da95921460cefb38474024989060200160405180910390a15b565b614b0780620000f46000396000f3fe608060405234801561001057600080fd5b50600436106102ba5760003560e01c80638456cb5911610182578063bd85b039116100e9578063d5391393116100a2578063f242432a1161007c578063f242432a1461066b578063f5298aca1461067e578063fd5eea4e14610691578063fe575a87146106a457600080fd5b8063d539139314610607578063d547741f1461061c578063e985e9c51461062f57600080fd5b8063bd85b03914610593578063c385ce25146105a6578063c87b56dd146105b9578063ca15c873146105cc578063ce3675ad146105df578063d179191a146105f457600080fd5b8063994a95be1161013b578063994a95be14610535578063a17d79ec14610548578063a217fddf1461055d578063a22cb46514610565578063b0fe60d514610578578063b198ce461461058b57600080fd5b80638456cb59146104c157806387be85d3146104c95780639010d07c146104dc57806391d148541461050757806395d89b411461051a57806396c45e2f1461052257600080fd5b80634f558e7911610226578063731133e9116101df578063731133e91461046357806375b238fc146104765780637685945e1461048b578063776458391461049e5780637d7a6d13146104a65780638129fc1c146104b957600080fd5b80634f558e79146103de57806358870da1146103f15780635a3f2672146104045780635c975abb146104255780636b20c454146104305780636d94f13a1461044357600080fd5b8063248a9ca311610278578063248a9ca31461035a5780632eb2c2d61461037d5780632f2ff15d1461039057806336568abe146103a35780633f4ba83a146103b65780634e1273f4146103be57600080fd5b8062fdd58e146102bf57806301ffc9a7146102e557806303fe46ab1461030857806306fdde031461031d5780630e89341c146103325780631f7fdffa14610345575b600080fd5b6102d26102cd3660046136a1565b6106b7565b6040519081526020015b60405180910390f35b6102f86102f33660046136e1565b610752565b60405190151581526020016102dc565b6102d2600080516020614ab283398151915281565b61032561075d565b6040516102dc919061374e565b610325610340366004613761565b6107ec565b6103586103533660046138c3565b610944565b005b6102d2610368366004613761565b60009081526097602052604090206001015490565b61035861038b36600461395b565b61096f565b61035861039e366004613a04565b6109b4565b6103586103b1366004613a04565b6109de565b610358610a5c565b6103d16103cc366004613a9d565b610a7f565b6040516102dc9190613b3b565b6102f86103ec366004613761565b610ba8565b6103586103ff366004613b4e565b610bbb565b610417610412366004613b9d565b610c38565b6040516102dc929190613bb8565b60fb5460ff166102f8565b61035861043e366004613be6565b610cfd565b610456610451366004613c4f565b610d26565b6040516102dc9190613cd8565b610358610471366004613ceb565b610d31565b6102d2600080516020614a9283398151915281565b6102d2610499366004613d3f565b610d55565b610325610d75565b6103586104b4366004613d61565b610d83565b610358610e47565b610358611048565b6103586104d7366004613d94565b611068565b6104ef6104ea366004613d3f565b6110eb565b6040516001600160a01b0390911681526020016102dc565b6102f8610515366004613a04565b611103565b61032561112e565b610358610530366004613761565b61113c565b6103d1610543366004613dd3565b611179565b6102d2600080516020614a7283398151915281565b6102d2600081565b610358610573366004613e0f565b61123c565b610456610586366004613c4f565b611247565b6103d16112ff565b6102d26105a1366004613761565b61139d565b6103586105b4366004613761565b6113b4565b6103256105c7366004613761565b6113f0565b6102d26105da366004613761565b6113fb565b6105e7611412565b6040516102dc9190613e4b565b610358610602366004613e98565b611424565b6102d2600080516020614a5283398151915281565b61035861062a366004613a04565b6114f2565b6102f861063d366004613f83565b6001600160a01b03918216600090815260666020908152604080832093909416825291909152205460ff1690565b610358610679366004613fad565b611517565b61035861068c366004614011565b61155c565b61035861069f366004614044565b61159f565b6102f86106b2366004613b9d565b61160a565b60006001600160a01b0383166107275760405162461bcd60e51b815260206004820152602a60248201527f455243313135353a2061646472657373207a65726f206973206e6f742061207660448201526930b634b21037bbb732b960b11b60648201526084015b60405180910390fd5b5060008181526065602090815260408083206001600160a01b03861684529091529020545b92915050565b600061074c82611618565b61028b805461076b90614070565b80601f016020809104026020016040519081016040528092919081815260200182805461079790614070565b80156107e45780601f106107b9576101008083540402835291602001916107e4565b820191906000526020600020905b8154815290600101906020018083116107c757829003601f168201915b505050505081565b606060006107fc836103e861163d565b9050600061080c846103e961163d565b905060608061081a866116ec565b81519194509250600091506001600160401b0381111561083c5761083c61377a565b60405190808252806020026020018201604052801561089157816020015b61087e60405180606001604052806060815260200160608152602001600081525090565b81526020019060019003908161085a5790505b50905060005b835181101561092c5760405180606001604052808483815181106108bd576108bd6140aa565b602002602001015181526020016040518060200160405280600081525081526020018583815181106108f1576108f16140aa565b602002602001015181525082828151811061090e5761090e6140aa565b60200260200101819052508080610924906140d6565b915050610897565b5061093987868684611953565b979650505050505050565b600080516020614a5283398151915261095c8161199f565b610968858585856119a9565b5050505050565b6001600160a01b03851633148061098b575061098b853361063d565b6109a75760405162461bcd60e51b815260040161071e906140ef565b6109688585858585611b04565b6000828152609760205260409020600101546109cf8161199f565b6109d98383611cb1565b505050565b6001600160a01b0381163314610a4e5760405162461bcd60e51b815260206004820152602f60248201527f416363657373436f6e74726f6c3a2063616e206f6e6c792072656e6f756e636560448201526e103937b632b9903337b91039b2b63360891b606482015260840161071e565b610a588282611cd3565b5050565b600080516020614a92833981519152610a748161199f565b610a7c611cf5565b50565b60608151835114610ae45760405162461bcd60e51b815260206004820152602960248201527f455243313135353a206163636f756e747320616e6420696473206c656e677468604482015268040dad2e6dac2e8c6d60bb1b606482015260840161071e565b600083516001600160401b03811115610aff57610aff61377a565b604051908082528060200260200182016040528015610b28578160200160208202803683370190505b50905060005b8451811015610ba057610b73858281518110610b4c57610b4c6140aa565b6020026020010151858381518110610b6657610b666140aa565b60200260200101516106b7565b828281518110610b8557610b856140aa565b6020908102919091010152610b99816140d6565b9050610b2e565b509392505050565b600080610bb48361139d565b1192915050565b600080516020614ab2833981519152610bd38161199f565b60008481526101f8602090815260408083208684529091529020610bf78382614184565b50837ffdbb964a9a1d2ac903ed7ebf85795be6728c27e96237552b2805596c759e08818484604051610c2a929190614243565b60405180910390a250505050565b6001600160a01b0381166000908152610164602052604090206060908190610c5f90611d47565b915081516001600160401b03811115610c7a57610c7a61377a565b604051908082528060200260200182016040528015610ca3578160200160208202803683370190505b50905060005b8251811015610cf757610cc884848381518110610b6657610b666140aa565b828281518110610cda57610cda6140aa565b602090810291909101015280610cef816140d6565b915050610ca9565b50915091565b600080516020614a92833981519152610d158161199f565b610d20848484611d54565b50505050565b606061074c82611247565b600080516020614a52833981519152610d498161199f565b61096885858585611ef3565b60008281526101f760205260408120610d6e9083611fde565b9392505050565b610228805461076b90614070565b600080516020614ab2833981519152610d9b8161199f565b60005b8351811015610e1457610e01848281518110610dbc57610dbc6140aa565b6020026020010151848381518110610dd657610dd66140aa565b60200260200101516101f76000898152602001908152602001600020611fea9092919063ffffffff16565b5080610e0c816140d6565b915050610d9e565b50837f383bcccfd5e9b61afe7e6832ca2201fe34d7766a9bbf90fb7152082ddbcd342b8484604051610c2a929190613bb8565b600054610100900460ff1615808015610e675750600054600160ff909116105b80610e815750303b158015610e81575060005460ff166001145b610ee45760405162461bcd60e51b815260206004820152602e60248201527f496e697469616c697a61626c653a20636f6e747261637420697320616c72656160448201526d191e481a5b9a5d1a585b1a5e995960921b606482015260840161071e565b6000805460ff191660011790558015610f07576000805461ff0019166101001790555b610f1f60405180602001604052806000815250611ff7565b610f27612027565b610f2f612050565b610f37612027565b610f3f612027565b610f47612027565b610f4f61207f565b610f706040518060600160405280602f8152602001614a23602f91396120de565b610f78612112565b610fc56040518060400160405280600d81526020016c436f736d69632042616467657360981b8152506040518060400160405280600681526020016542414447455360d01b815250612159565b610fd0600033611cb1565b610fe8600080516020614a9283398151915233611cb1565b611000600080516020614a5283398151915233611cb1565b8015610a7c576000805461ff0019169055604051600181527f7f26b83ff96e1f2b6a682f133852f6798a09c465da95921460cefb38474024989060200160405180910390a150565b600080516020614a928339815191526110608161199f565b610a7c61219b565b600080516020614a528339815191526110808161199f565b60005b8351811015610968576110d98482815181106110a1576110a16140aa565b6020026020010151868584815181106110bc576110bc6140aa565b602002602001015160405180602001604052806000815250611ef3565b806110e3816140d6565b915050611083565b600082815260c960205260408120610d6e90836121d8565b60009182526097602090815260408084206001600160a01b0393909316845291905290205460ff1690565b61028c805461076b90614070565b600080516020614a928339815191526111548161199f565b600882901c600090815261025a602052604090208054600160ff85161b191690555050565b6060600082516001600160401b038111156111965761119661377a565b6040519080825280602002602001820160405280156111bf578160200160208202803683370190505b50905060005b8351811015610ba05761120d8482815181106111e3576111e36140aa565b60200260200101516101f76000888152602001908152602001600020611fde90919063ffffffff16565b82828151811061121f5761121f6140aa565b602090810291909101015280611234816140d6565b9150506111c5565b610a583383836121e4565b6060600082516001600160401b038111156112645761126461377a565b60405190808252806020026020018201604052801561129757816020015b60608152602001906001900390816112825790505b50905060005b83518110156112f8576112c88482815181106112bb576112bb6140aa565b60200260200101516113f0565b8282815181106112da576112da6140aa565b602002602001018190525080806112f0906140d6565b91505061129d565b5092915050565b6060600061130e61015f6122c4565b90506000816001600160401b0381111561132a5761132a61377a565b604051908082528060200260200182016040528015611353578160200160208202803683370190505b50905060005b828110156112f85761136d61015f826122cf565b50828281518110611380576113806140aa565b602090810291909101015280611395816140d6565b915050611359565b6000806113ac61015f846122ed565b949350505050565b600080516020614a928339815191526113cc8161199f565b600882901c600090815261025a602052604090208054600160ff85161b1790555050565b606061074c826107ec565b600081815260c96020526040812061074c906122fc565b606061141f610193611d47565b905090565b600080516020614ab283398151915261143c8161199f565b60005b83518110156114bf5782818151811061145a5761145a6140aa565b60200260200101516101f86000878152602001908152602001600020600086848151811061148a5761148a6140aa565b6020026020010151815260200190815260200160002090816114ac9190614184565b50806114b7816140d6565b91505061143f565b50837f9d69ed3cc764cf4f579cfc28312dded7bb202f17cc77aa4d0eb3f8bbaecd88e38484604051610c2a92919061425c565b60008281526097602052604090206001015461150d8161199f565b6109d98383611cd3565b6001600160a01b0385163314806115335750611533853361063d565b61154f5760405162461bcd60e51b815260040161071e906140ef565b6109688585858585612306565b6001600160a01b0383163314806115785750611578833361063d565b6115945760405162461bcd60e51b815260040161071e906140ef565b6109d9838383612442565b600080516020614ab28339815191526115b78161199f565b60008481526101f7602052604090206115d1908484611fea565b50604080518481526020810184905285917f5cb4c5f05283d5a84da3f9f1b0fe8b00d7ea8e1fb833812b52114799bdf1acc79101610c2a565b600061074c6101938361255e565b60006001600160e01b03198216635a05180f60e01b148061074c575061074c82612580565b60008281526101f860209081526040808320848452909152902080546060919061166690614070565b80601f016020809104026020016040519081016040528092919081815260200182805461169290614070565b80156116df5780601f106116b4576101008083540402835291602001916116df565b820191906000526020600020905b8154815290600101906020018083116116c257829003601f168201915b5050505050905092915050565b6060806060600061170f6101f760008781526020019081526020016000206122c4565b90506000816001600160401b0381111561172b5761172b61377a565b604051908082528060200260200182016040528015611754578160200160208202803683370190505b5090506000826001600160401b038111156117715761177161377a565b60405190808252806020026020018201604052801561179a578160200160208202803683370190505b5090506000836001600160401b038111156117b7576117b761377a565b6040519080825280602002602001820160405280156117ea57816020015b60608152602001906001900390816117d55790505b50905060005b848110156119445760008981526101f76020526040902061181190826122cf565b858381518110611823576118236140aa565b6020026020010185848151811061183c5761183c6140aa565b60200260200101828152508281525050506101f860008a81526020019081526020016000206000858381518110611875576118756140aa565b60200260200101518152602001908152602001600020805461189690614070565b80601f01602080910402602001604051908101604052809291908181526020018280546118c290614070565b801561190f5780601f106118e45761010080835404028352916020019161190f565b820191906000526020600020905b8154815290600101906020018083116118f257829003601f168201915b5050505050828281518110611926576119266140aa565b6020026020010181905250808061193c906140d6565b9150506117f0565b50919790965090945092505050565b606060006119628686866125a5565b9050600061196f8461260f565b90508181604051602001611984929190614281565b60405160208183030381529060405292505050949350505050565b610a7c81336127a2565b6001600160a01b0384166119cf5760405162461bcd60e51b815260040161071e906142ce565b81518351146119f05760405162461bcd60e51b815260040161071e9061430f565b33611a0081600087878787612806565b60005b8451811015611a9c57838181518110611a1e57611a1e6140aa565b602002602001015160656000878481518110611a3c57611a3c6140aa565b602002602001015181526020019081526020016000206000886001600160a01b03166001600160a01b031681526020019081526020016000206000828254611a849190614357565b90915550819050611a94816140d6565b915050611a03565b50846001600160a01b031660006001600160a01b0316826001600160a01b03167f4a39dc06d4c0dbc64b70af90fd698a233a518aa5d07e595d983b8c0526c8f7fb8787604051611aed929190613bb8565b60405180910390a46109688160008787878761290e565b8151835114611b255760405162461bcd60e51b815260040161071e9061430f565b6001600160a01b038416611b4b5760405162461bcd60e51b815260040161071e9061436a565b33611b5a818787878787612806565b60005b8451811015611c43576000858281518110611b7a57611b7a6140aa565b602002602001015190506000858381518110611b9857611b986140aa565b60209081029190910181015160008481526065835260408082206001600160a01b038e168352909352919091205490915081811015611be95760405162461bcd60e51b815260040161071e906143af565b60008381526065602090815260408083206001600160a01b038e8116855292528083208585039055908b16825281208054849290611c28908490614357565b9250508190555050505080611c3c906140d6565b9050611b5d565b50846001600160a01b0316866001600160a01b0316826001600160a01b03167f4a39dc06d4c0dbc64b70af90fd698a233a518aa5d07e595d983b8c0526c8f7fb8787604051611c93929190613bb8565b60405180910390a4611ca981878787878761290e565b505050505050565b611cbb8282612a69565b600082815260c9602052604090206109d99082612aef565b611cdd8282612b04565b600082815260c9602052604090206109d99082612b6b565b611cfd612b80565b60fb805460ff191690557f5db9ee0a495bf2e6ff9c91a7834c1ba4fdd244a5e8aa4e537bd38aeae4b073aa335b6040516001600160a01b03909116815260200160405180910390a1565b60606000610d6e83612bc9565b6001600160a01b038316611d7a5760405162461bcd60e51b815260040161071e906143f9565b8051825114611d9b5760405162461bcd60e51b815260040161071e9061430f565b6000339050611dbe81856000868660405180602001604052806000815250612806565b60005b8351811015611e86576000848281518110611dde57611dde6140aa565b602002602001015190506000848381518110611dfc57611dfc6140aa565b60209081029190910181015160008481526065835260408082206001600160a01b038c168352909352919091205490915081811015611e4d5760405162461bcd60e51b815260040161071e9061443c565b60009283526065602090815260408085206001600160a01b038b1686529091529092209103905580611e7e816140d6565b915050611dc1565b5060006001600160a01b0316846001600160a01b0316826001600160a01b03167f4a39dc06d4c0dbc64b70af90fd698a233a518aa5d07e595d983b8c0526c8f7fb8686604051611ed7929190613bb8565b60405180910390a4604080516020810190915260009052610d20565b6001600160a01b038416611f195760405162461bcd60e51b815260040161071e906142ce565b336000611f2585612c25565b90506000611f3285612c25565b9050611f4383600089858589612806565b60008681526065602090815260408083206001600160a01b038b16845290915281208054879290611f75908490614357565b909155505060408051878152602081018790526001600160a01b03808a1692600092918716917fc3d58168c5ae7397731d063d5bbf3d657854427343f4c083240f7aacaa2d0f62910160405180910390a4611fd583600089898989612c70565b50505050505050565b6000610d6e8383612d2b565b60006113ac848484612d9b565b600054610100900460ff1661201e5760405162461bcd60e51b815260040161071e90614480565b610a7c81612db8565b600054610100900460ff1661204e5760405162461bcd60e51b815260040161071e90614480565b565b600054610100900460ff166120775760405162461bcd60e51b815260040161071e90614480565b61204e612de8565b600054610100900460ff166120a65760405162461bcd60e51b815260040161071e90614480565b6120ae612027565b6120c6600080516020614a9283398151915233611cb1565b61204e600080516020614a7283398151915233611cb1565b600054610100900460ff166121055760405162461bcd60e51b815260040161071e90614480565b610228610a588282614184565b600054610100900460ff166121395760405162461bcd60e51b815260040161071e90614480565b612141612027565b61204e600080516020614ab283398151915233611cb1565b600054610100900460ff166121805760405162461bcd60e51b815260040161071e90614480565b61028b61218d8382614184565b5061028c6109d98282614184565b6121a3612e1b565b60fb805460ff191660011790557f62e78cea01bee320cd4e420270b5ea74000d11b0c9f74754ebdbfc544b05a258611d2a3390565b6000610d6e8383612e61565b816001600160a01b0316836001600160a01b0316036122575760405162461bcd60e51b815260206004820152602960248201527f455243313135353a2073657474696e6720617070726f76616c20737461747573604482015268103337b91039b2b63360b91b606482015260840161071e565b6001600160a01b03838116600081815260666020908152604080832094871680845294825291829020805460ff191686151590811790915591519182527f17307eab39ab6107e8899845ad3d59bd9653f200f220920489ca2b5937696c31910160405180910390a3505050565b600061074c82612e8b565b60008080806122de8686612e96565b909450925050505b9250929050565b60008080806122de8686612ec1565b600061074c825490565b6001600160a01b03841661232c5760405162461bcd60e51b815260040161071e9061436a565b33600061233885612c25565b9050600061234585612c25565b9050612355838989858589612806565b60008681526065602090815260408083206001600160a01b038c168452909152902054858110156123985760405162461bcd60e51b815260040161071e906143af565b60008781526065602090815260408083206001600160a01b038d8116855292528083208985039055908a168252812080548892906123d7908490614357565b909155505060408051888152602081018890526001600160a01b03808b16928c821692918816917fc3d58168c5ae7397731d063d5bbf3d657854427343f4c083240f7aacaa2d0f62910160405180910390a4612437848a8a8a8a8a612c70565b505050505050505050565b6001600160a01b0383166124685760405162461bcd60e51b815260040161071e906143f9565b33600061247484612c25565b9050600061248184612c25565b90506124a183876000858560405180602001604052806000815250612806565b60008581526065602090815260408083206001600160a01b038a168452909152902054848110156124e45760405162461bcd60e51b815260040161071e9061443c565b60008681526065602090815260408083206001600160a01b038b81168086529184528285208a8703905582518b81529384018a90529092908816917fc3d58168c5ae7397731d063d5bbf3d657854427343f4c083240f7aacaa2d0f62910160405180910390a4604080516020810190915260009052611fd5565b6001600160a01b03811660009081526001830160205260408120541515610d6e565b60006001600160e01b03198216637965db0b60e01b148061074c575061074c82612efb565b606060006102286125b586612f4b565b6040516020016125c69291906144cb565b6040516020818303038152906040529050836125e186612f4b565b84836040516020016125f69493929190614552565b6040516020818303038152906040529150509392505050565b60408051602081019091526000808252606091905b83518110156127795760006001855161263d9190614637565b821461266257604051806040016040528060018152602001600b60fa1b815250612673565b604051806020016040528060008152505b90506000858381518110612689576126896140aa565b602002602001015160200151516000146126df578583815181106126af576126af6140aa565b6020026020010151602001516040516020016126cb919061464a565b6040516020818303038152906040526126f0565b604051806020016040528060008152505b9050600084878581518110612707576127076140aa565b6020026020010151600001518361273a8a8881518110612729576127296140aa565b602002602001015160400151612f4b565b8660405160200161274f959493929190614690565b60405160208183030381529060405290508094505050508080612771906140d6565b915050612624565b508060405160200161278b919061474b565b604051602081830303815290604052915050919050565b6127ac8282611103565b610a58576127c4816001600160a01b0316601461304b565b6127cf83602061304b565b6040516020016127e092919061478d565b60408051601f198184030181529082905262461bcd60e51b825261071e9160040161374e565b61280e612e1b565b82858560005b83518110156128ff5761284b848281518110612832576128326140aa565b602002602001015161025a6131e690919063ffffffff16565b158061285e57506001600160a01b038316155b8061287057506001600160a01b038216155b8061288e575061288e600080516020614a7283398151915284611103565b806128ac57506128ac600080516020614a7283398151915283611103565b6128ed5760405162461bcd60e51b8152602060048201526012602482015271151bdad95b881a5cc81cdbdd5b189bdd5b9960721b604482015260640161071e565b806128f7816140d6565b915050612814565b5061243789898989898961320a565b6001600160a01b0384163b15611ca95760405163bc197c8160e01b81526001600160a01b0385169063bc197c81906129529089908990889088908890600401614802565b6020604051808303816000875af192505050801561298d575060408051601f3d908101601f1916820190925261298a91810190614854565b60015b612a3957612999614871565b806308c379a0036129d257506129ad61488d565b806129b857506129d4565b8060405162461bcd60e51b815260040161071e919061374e565b505b60405162461bcd60e51b815260206004820152603460248201527f455243313135353a207472616e7366657220746f206e6f6e20455243313135356044820152732932b1b2b4bb32b91034b6b83632b6b2b73a32b960611b606482015260840161071e565b6001600160e01b0319811663bc197c8160e01b14611fd55760405162461bcd60e51b815260040161071e90614916565b612a738282611103565b610a585760008281526097602090815260408083206001600160a01b03851684529091529020805460ff19166001179055612aab3390565b6001600160a01b0316816001600160a01b0316837f2f8788117e7eff1d82e926ec794901d17c78024a50270940304540a733656f0d60405160405180910390a45050565b6000610d6e836001600160a01b038416613440565b612b0e8282611103565b15610a585760008281526097602090815260408083206001600160a01b0385168085529252808320805460ff1916905551339285917ff6391f5c32d9c69d2a47ea670b442974b53935d1edc7fd64eb21e047a839171b9190a45050565b6000610d6e836001600160a01b03841661348f565b60fb5460ff1661204e5760405162461bcd60e51b815260206004820152601460248201527314185d5cd8589b194e881b9bdd081c185d5cd95960621b604482015260640161071e565b606081600001805480602002602001604051908101604052809291908181526020018280548015612c1957602002820191906000526020600020905b815481526020019060010190808311612c05575b50505050509050919050565b60408051600180825281830190925260609160009190602080830190803683370190505090508281600081518110612c5f57612c5f6140aa565b602090810291909101015292915050565b6001600160a01b0384163b15611ca95760405163f23a6e6160e01b81526001600160a01b0385169063f23a6e6190612cb4908990899088908890889060040161495e565b6020604051808303816000875af1925050508015612cef575060408051601f3d908101601f19168201909252612cec91810190614854565b60015b612cfb57612999614871565b6001600160e01b0319811663f23a6e6160e01b14611fd55760405162461bcd60e51b815260040161071e90614916565b600081815260028301602052604081205480151580612d4f5750612d4f8484613582565b610d6e5760405162461bcd60e51b815260206004820152601e60248201527f456e756d657261626c654d61703a206e6f6e6578697374656e74206b65790000604482015260640161071e565b600082815260028401602052604081208290556113ac848461358e565b600054610100900460ff16612ddf5760405162461bcd60e51b815260040161071e90614480565b610a7c8161359a565b600054610100900460ff16612e0f5760405162461bcd60e51b815260040161071e90614480565b60fb805460ff19169055565b60fb5460ff161561204e5760405162461bcd60e51b815260206004820152601060248201526f14185d5cd8589b194e881c185d5cd95960821b604482015260640161071e565b6000826000018281548110612e7857612e786140aa565b9060005260206000200154905092915050565b600061074c826122fc565b60008080612ea485856121d8565b600081815260029690960160205260409095205494959350505050565b6000818152600283016020526040812054819080612ef057612ee38585613582565b9250600091506122e69050565b6001925090506122e6565b60006001600160e01b03198216636cdb3d1360e11b1480612f2c57506001600160e01b031982166303a24d0760e21b145b8061074c57506301ffc9a760e01b6001600160e01b031983161461074c565b606081600003612f725750506040805180820190915260018152600360fc1b602082015290565b8160005b8115612f9c5780612f86816140d6565b9150612f959050600a836149ae565b9150612f76565b6000816001600160401b03811115612fb657612fb661377a565b6040519080825280601f01601f191660200182016040528015612fe0576020820181803683370190505b5090505b84156113ac57612ff5600183614637565b9150613002600a866149c2565b61300d906030614357565b60f81b818381518110613022576130226140aa565b60200101906001600160f81b031916908160001a905350613044600a866149ae565b9450612fe4565b6060600061305a8360026149d6565b613065906002614357565b6001600160401b0381111561307c5761307c61377a565b6040519080825280601f01601f1916602001820160405280156130a6576020820181803683370190505b509050600360fc1b816000815181106130c1576130c16140aa565b60200101906001600160f81b031916908160001a905350600f60fb1b816001815181106130f0576130f06140aa565b60200101906001600160f81b031916908160001a90535060006131148460026149d6565b61311f906001614357565b90505b6001811115613197576f181899199a1a9b1b9c1cb0b131b232b360811b85600f1660108110613153576131536140aa565b1a60f81b828281518110613169576131696140aa565b60200101906001600160f81b031916908160001a90535060049490941c93613190816149f5565b9050613122565b508315610d6e5760405162461bcd60e51b815260206004820181905260248201527f537472696e67733a20686578206c656e67746820696e73756666696369656e74604482015260640161071e565b600881901c600090815260208390526040902054600160ff83161b16151592915050565b6001600160a01b0385166132bb5760005b83518110156132b957600061325485838151811061323b5761323b6140aa565b602002602001015161015f6122ed90919063ffffffff16565b9050809150506132a685838151811061326f5761326f6140aa565b6020026020010151858481518110613289576132896140aa565b60200260200101518361329c9190614357565b61015f9190611fea565b5050806132b2906140d6565b905061321b565b505b6001600160a01b0384166133b15760005b83518110156133af5760008482815181106132e9576132e96140aa565b602002602001015190506000848381518110613307576133076140aa565b6020026020010151905060006133288361015f611fde90919063ffffffff16565b90508181101561338b5760405162461bcd60e51b815260206004820152602860248201527f455243313135353a206275726e20616d6f756e74206578636565647320746f74604482015267616c537570706c7960c01b606482015260840161071e565b61339a61015f84848403611fea565b50505050806133a8906140d6565b90506132cc565b505b60005b835181101561342d576133fa868583815181106133d3576133d36140aa565b60200260200101518584815181106133ed576133ed6140aa565b60200260200101516135a6565b61341d85858381518110613410576134106140aa565b60200260200101516135fb565b613426816140d6565b90506133b4565b506134378561363d565b611ca98461363d565b60008181526001830160205260408120546134875750815460018181018455600084815260208082209093018490558454848252828601909352604090209190915561074c565b50600061074c565b600081815260018301602052604081205480156135785760006134b3600183614637565b85549091506000906134c790600190614637565b905081811461352c5760008660000182815481106134e7576134e76140aa565b906000526020600020015490508087600001848154811061350a5761350a6140aa565b6000918252602080832090910192909255918252600188019052604090208390555b855486908061353d5761353d614a0c565b60019003818190600052602060002001600090559055856001016000868152602001908152602001600020600090556001935050505061074c565b600091505061074c565b6000610d6e8383613661565b6000610d6e8383613440565b6067610a588282614184565b6001600160a01b0383166135b957505050565b60006135c584846106b7565b90506135d18282614637565b600003610d20576001600160a01b0384166000908152610164602052604090206109689084613679565b6001600160a01b03821661360d575050565b6001600160a01b038216600090815261016460205260409020613630908261358e565b506109d961016283612aef565b606061364882610c38565b508051909150600003610a58576109d961016283612b6b565b60008181526001830160205260408120541515610d6e565b6000610d6e838361348f565b80356001600160a01b038116811461369c57600080fd5b919050565b600080604083850312156136b457600080fd5b6136bd83613685565b946020939093013593505050565b6001600160e01b031981168114610a7c57600080fd5b6000602082840312156136f357600080fd5b8135610d6e816136cb565b60005b83811015613719578181015183820152602001613701565b50506000910152565b6000815180845261373a8160208601602086016136fe565b601f01601f19169290920160200192915050565b602081526000610d6e6020830184613722565b60006020828403121561377357600080fd5b5035919050565b634e487b7160e01b600052604160045260246000fd5b601f8201601f191681016001600160401b03811182821017156137b5576137b561377a565b6040525050565b60006001600160401b038211156137d5576137d561377a565b5060051b60200190565b600082601f8301126137f057600080fd5b813560206137fd826137bc565b60405161380a8282613790565b83815260059390931b850182019282810191508684111561382a57600080fd5b8286015b84811015613845578035835291830191830161382e565b509695505050505050565b600082601f83011261386157600080fd5b81356001600160401b0381111561387a5761387a61377a565b604051613891601f8301601f191660200182613790565b8181528460208386010111156138a657600080fd5b816020850160208301376000918101602001919091529392505050565b600080600080608085870312156138d957600080fd5b6138e285613685565b935060208501356001600160401b03808211156138fe57600080fd5b61390a888389016137df565b9450604087013591508082111561392057600080fd5b61392c888389016137df565b9350606087013591508082111561394257600080fd5b5061394f87828801613850565b91505092959194509250565b600080600080600060a0868803121561397357600080fd5b61397c86613685565b945061398a60208701613685565b935060408601356001600160401b03808211156139a657600080fd5b6139b289838a016137df565b945060608801359150808211156139c857600080fd5b6139d489838a016137df565b935060808801359150808211156139ea57600080fd5b506139f788828901613850565b9150509295509295909350565b60008060408385031215613a1757600080fd5b82359150613a2760208401613685565b90509250929050565b600082601f830112613a4157600080fd5b81356020613a4e826137bc565b604051613a5b8282613790565b83815260059390931b8501820192828101915086841115613a7b57600080fd5b8286015b8481101561384557613a9081613685565b8352918301918301613a7f565b60008060408385031215613ab057600080fd5b82356001600160401b0380821115613ac757600080fd5b613ad386838701613a30565b93506020850135915080821115613ae957600080fd5b50613af6858286016137df565b9150509250929050565b600081518084526020808501945080840160005b83811015613b3057815187529582019590820190600101613b14565b509495945050505050565b602081526000610d6e6020830184613b00565b600080600060608486031215613b6357600080fd5b833592506020840135915060408401356001600160401b03811115613b8757600080fd5b613b9386828701613850565b9150509250925092565b600060208284031215613baf57600080fd5b610d6e82613685565b604081526000613bcb6040830185613b00565b8281036020840152613bdd8185613b00565b95945050505050565b600080600060608486031215613bfb57600080fd5b613c0484613685565b925060208401356001600160401b0380821115613c2057600080fd5b613c2c878388016137df565b93506040860135915080821115613c4257600080fd5b50613b93868287016137df565b600060208284031215613c6157600080fd5b81356001600160401b03811115613c7757600080fd5b6113ac848285016137df565b600081518084526020808501808196508360051b8101915082860160005b85811015613ccb578284038952613cb9848351613722565b98850198935090840190600101613ca1565b5091979650505050505050565b602081526000610d6e6020830184613c83565b60008060008060808587031215613d0157600080fd5b613d0a85613685565b9350602085013592506040850135915060608501356001600160401b03811115613d3357600080fd5b61394f87828801613850565b60008060408385031215613d5257600080fd5b50508035926020909101359150565b600080600060608486031215613d7657600080fd5b8335925060208401356001600160401b0380821115613c2057600080fd5b600080600060608486031215613da957600080fd5b8335925060208401356001600160401b0380821115613dc757600080fd5b613c2c87838801613a30565b60008060408385031215613de657600080fd5b8235915060208301356001600160401b03811115613e0357600080fd5b613af6858286016137df565b60008060408385031215613e2257600080fd5b613e2b83613685565b915060208301358015158114613e4057600080fd5b809150509250929050565b6020808252825182820181905260009190848201906040850190845b81811015613e8c5783516001600160a01b031683529284019291840191600101613e67565b50909695505050505050565b600080600060608486031215613ead57600080fd5b833592506020808501356001600160401b0380821115613ecc57600080fd5b613ed8888389016137df565b94506040870135915080821115613eee57600080fd5b818701915087601f830112613f0257600080fd5b8135613f0d816137bc565b604051613f1a8282613790565b82815260059290921b840185019185810191508a831115613f3a57600080fd5b8585015b83811015613f7257803585811115613f565760008081fd5b613f648d89838a0101613850565b845250918601918601613f3e565b508096505050505050509250925092565b60008060408385031215613f9657600080fd5b613f9f83613685565b9150613a2760208401613685565b600080600080600060a08688031215613fc557600080fd5b613fce86613685565b9450613fdc60208701613685565b9350604086013592506060860135915060808601356001600160401b0381111561400557600080fd5b6139f788828901613850565b60008060006060848603121561402657600080fd5b61402f84613685565b95602085013595506040909401359392505050565b60008060006060848603121561405957600080fd5b505081359360208301359350604090920135919050565b600181811c9082168061408457607f821691505b6020821081036140a457634e487b7160e01b600052602260045260246000fd5b50919050565b634e487b7160e01b600052603260045260246000fd5b634e487b7160e01b600052601160045260246000fd5b6000600182016140e8576140e86140c0565b5060010190565b6020808252602f908201527f455243313135353a2063616c6c6572206973206e6f7420746f6b656e206f776e60408201526e195c881b9bdc88185c1c1c9bdd9959608a1b606082015260800190565b601f8211156109d957600081815260208120601f850160051c810160208610156141655750805b601f850160051c820191505b81811015611ca957828155600101614171565b81516001600160401b0381111561419d5761419d61377a565b6141b1816141ab8454614070565b8461413e565b602080601f8311600181146141e657600084156141ce5750858301515b600019600386901b1c1916600185901b178555611ca9565b600085815260208120601f198616915b82811015614215578886015182559484019460019091019084016141f6565b50858210156142335787850151600019600388901b60f8161c191681555b5050505050600190811b01905550565b8281526040602082015260006113ac6040830184613722565b60408152600061426f6040830185613b00565b8281036020840152613bdd8185613c83565b607b60f81b81526000835161429d8160018501602088016136fe565b8351908301906142b48160018401602088016136fe565b607d60f81b60019290910191820152600201949350505050565b60208082526021908201527f455243313135353a206d696e7420746f20746865207a65726f206164647265736040820152607360f81b606082015260800190565b60208082526028908201527f455243313135353a2069647320616e6420616d6f756e7473206c656e677468206040820152670dad2e6dac2e8c6d60c31b606082015260800190565b8082018082111561074c5761074c6140c0565b60208082526025908201527f455243313135353a207472616e7366657220746f20746865207a65726f206164604082015264647265737360d81b606082015260800190565b6020808252602a908201527f455243313135353a20696e73756666696369656e742062616c616e636520666f60408201526939103a3930b739b332b960b11b606082015260800190565b60208082526023908201527f455243313135353a206275726e2066726f6d20746865207a65726f206164647260408201526265737360e81b606082015260800190565b60208082526024908201527f455243313135353a206275726e20616d6f756e7420657863656564732062616c604082015263616e636560e01b606082015260800190565b6020808252602b908201527f496e697469616c697a61626c653a20636f6e7472616374206973206e6f74206960408201526a6e697469616c697a696e6760a81b606082015260800190565b60008084546144d981614070565b600182811680156144f1576001811461450657614535565b60ff1984168752821515830287019450614535565b8860005260208060002060005b8581101561452c5781548a820152908401908201614513565b50505082870194505b5050505083516145498183602088016136fe565b01949350505050565b67113730b6b2911d1160c11b81528451600090614576816008850160208a016136fe565b6201116160ed1b60089184019182018190526a113a37b5b2b724b2111d1160a91b600b83015286516145af816016850160208b016136fe565b601692019182018190526f113232b9b1b934b83a34b7b7111d101160811b601983015285516145e5816029850160208a016136fe565b6029920191820152691134b6b0b3b2911d101160b11b602c82015283516146138160368401602088016136fe565b61462b6036828401016201116160ed1b815260030190565b98975050505050505050565b8181038181111561074c5761074c6140c0565b703d913234b9b83630bcafba3cb832911d1160791b815281516000906146778160118501602087016136fe565b61088b60f21b6011939091019283015250601301919050565b600086516146a2818460208b016136fe565b6e3d913a3930b4ba2fba3cb832911d1160891b90830190815286516146ce81600f840160208b016136fe565b61088b60f21b600f929091019182015285516146f1816011840160208a016136fe565b67113b30b63ab2911d60c11b60119290910191820152845161471a8160198401602089016136fe565b607d60f81b60199290910191820152835161473c81601a8401602088016136fe565b01601a01979650505050505050565b6d2261747472696275746573223a5b60901b8152815160009061477581600e8501602087016136fe565b605d60f81b600e939091019283015250600f01919050565b7f416363657373436f6e74726f6c3a206163636f756e74200000000000000000008152600083516147c58160178501602088016136fe565b7001034b99036b4b9b9b4b733903937b6329607d1b60179184019182015283516147f68160288401602088016136fe565b01602801949350505050565b6001600160a01b0386811682528516602082015260a06040820181905260009061482e90830186613b00565b82810360608401526148408186613b00565b9050828103608084015261462b8185613722565b60006020828403121561486657600080fd5b8151610d6e816136cb565b600060033d111561488a5760046000803e5060005160e01c5b90565b600060443d101561489b5790565b6040516003193d81016004833e81513d6001600160401b0381602484011181841117156148ca57505050505090565b82850191508151818111156148e25750505050505090565b843d87010160208285010111156148fc5750505050505090565b61490b60208286010187613790565b509095945050505050565b60208082526028908201527f455243313135353a204552433131353552656365697665722072656a656374656040820152676420746f6b656e7360c01b606082015260800190565b6001600160a01b03868116825285166020820152604081018490526060810183905260a06080820181905260009061093990830184613722565b634e487b7160e01b600052601260045260246000fd5b6000826149bd576149bd614998565b500490565b6000826149d1576149d1614998565b500690565b60008160001904831182151516156149f0576149f06140c0565b500290565b600081614a0457614a046140c0565b506000190190565b634e487b7160e01b600052603160045260246000fdfe68747470733a2f2f696d616765732e636f736d6963756e6976657273652e696f2f636f736d69632d6261646765732f9f2df0fed2c77648de5860a4cc508cd0818c85b8b8a1ab4ceeef8d981c8956a6f01ee2eb8c5679535f9dfef3543570e280865ec756856c5772fe3e6718c5c074a49807205ce4d355092ef5a8a18f56e8913cf4a201fbe287825b095693c21775364d3d7565c7a8300c96fd53e065d19b65848d7b23b3191adcd55621c744223ca26469706673582212201d82135426319cfc266efcbddc5e61147e508829bd35c98adc3992281fdc9db164736f6c63430008100033",
  "linkReferences": {},
  "deployedLinkReferences": {}
}