{
  "_format": "hh-sol-artifact-1",
  "contractName": "CosmicBadges",
  "sourceName": "contracts/upgradeable/ERC1155/CosmicBadges.sol",
  "abi": [
    {
      "inputs": [],
      "stateMutability": "nonpayable",
      "type": "constructor"
    },
    {
      "anonymous": false,
      "inputs": [
        {
          "indexed": true,
          "internalType": "address",
          "name": "account",
          "type": "address"
        },
        {
          "indexed": true,
          "internalType": "address",
          "name": "operator",
          "type": "address"
        },
        {
          "indexed": false,
          "internalType": "bool",
          "name": "approved",
          "type": "bool"
        }
      ],
      "name": "ApprovalForAll",
      "type": "event"
    },
    {
      "anonymous": false,
      "inputs": [
        {
          "indexed": false,
          "internalType": "uint8",
          "name": "version",
          "type": "uint8"
        }
      ],
      "name": "Initialized",
      "type": "event"
    },
    {
      "anonymous": false,
      "inputs": [
        {
          "indexed": true,
          "internalType": "uint256",
          "name": "tokenId",
          "type": "uint256"
        },
        {
          "indexed": false,
          "internalType": "uint256",
          "name": "attributeId",
          "type": "uint256"
        },
        {
          "indexed": false,
          "internalType": "string",
          "name": "name",
          "type": "string"
        }
      ],
      "name": "NameUpdated",
      "type": "event"
    },
    {
      "anonymous": false,
      "inputs": [
        {
          "indexed": true,
          "internalType": "uint256",
          "name": "tokenId",
          "type": "uint256"
        },
        {
          "indexed": false,
          "internalType": "uint256[]",
          "name": "attributeIds",
          "type": "uint256[]"
        },
        {
          "indexed": false,
          "internalType": "string[]",
          "name": "names",
          "type": "string[]"
        }
      ],
      "name": "NamesUpdated",
      "type": "event"
    },
    {
      "anonymous": false,
      "inputs": [
        {
          "indexed": false,
          "internalType": "address",
          "name": "account",
          "type": "address"
        }
      ],
      "name": "Paused",
      "type": "event"
    },
    {
      "anonymous": false,
      "inputs": [
        {
          "indexed": true,
          "internalType": "bytes32",
          "name": "role",
          "type": "bytes32"
        },
        {
          "indexed": true,
          "internalType": "bytes32",
          "name": "previousAdminRole",
          "type": "bytes32"
        },
        {
          "indexed": true,
          "internalType": "bytes32",
          "name": "newAdminRole",
          "type": "bytes32"
        }
      ],
      "name": "RoleAdminChanged",
      "type": "event"
    },
    {
      "anonymous": false,
      "inputs": [
        {
          "indexed": true,
          "internalType": "bytes32",
          "name": "role",
          "type": "bytes32"
        },
        {
          "indexed": true,
          "internalType": "address",
          "name": "account",
          "type": "address"
        },
        {
          "indexed": true,
          "internalType": "address",
          "name": "sender",
          "type": "address"
        }
      ],
      "name": "RoleGranted",
      "type": "event"
    },
    {
      "anonymous": false,
      "inputs": [
        {
          "indexed": true,
          "internalType": "bytes32",
          "name": "role",
          "type": "bytes32"
        },
        {
          "indexed": true,
          "internalType": "address",
          "name": "account",
          "type": "address"
        },
        {
          "indexed": true,
          "internalType": "address",
          "name": "sender",
          "type": "address"
        }
      ],
      "name": "RoleRevoked",
      "type": "event"
    },
    {
      "anonymous": false,
      "inputs": [
        {
          "indexed": true,
          "internalType": "address",
          "name": "operator",
          "type": "address"
        },
        {
          "indexed": true,
          "internalType": "address",
          "name": "from",
          "type": "address"
        },
        {
          "indexed": true,
          "internalType": "address",
          "name": "to",
          "type": "address"
        },
        {
          "indexed": false,
          "internalType": "uint256[]",
          "name": "ids",
          "type": "uint256[]"
        },
        {
          "indexed": false,
          "internalType": "uint256[]",
          "name": "values",
          "type": "uint256[]"
        }
      ],
      "name": "TransferBatch",
      "type": "event"
    },
    {
      "anonymous": false,
      "inputs": [
        {
          "indexed": true,
          "internalType": "address",
          "name": "operator",
          "type": "address"
        },
        {
          "indexed": true,
          "internalType": "address",
          "name": "from",
          "type": "address"
        },
        {
          "indexed": true,
          "internalType": "address",
          "name": "to",
          "type": "address"
        },
        {
          "indexed": false,
          "internalType": "uint256",
          "name": "id",
          "type": "uint256"
        },
        {
          "indexed": false,
          "internalType": "uint256",
          "name": "value",
          "type": "uint256"
        }
      ],
      "name": "TransferSingle",
      "type": "event"
    },
    {
      "anonymous": false,
      "inputs": [
        {
          "indexed": false,
          "internalType": "string",
          "name": "value",
          "type": "string"
        },
        {
          "indexed": true,
          "internalType": "uint256",
          "name": "id",
          "type": "uint256"
        }
      ],
      "name": "URI",
      "type": "event"
    },
    {
      "anonymous": false,
      "inputs": [
        {
          "indexed": false,
          "internalType": "address",
          "name": "account",
          "type": "address"
        }
      ],
      "name": "Unpaused",
      "type": "event"
    },
    {
      "anonymous": false,
      "inputs": [
        {
          "indexed": true,
          "internalType": "uint256",
          "name": "tokenId",
          "type": "uint256"
        },
        {
          "indexed": false,
          "internalType": "uint256",
          "name": "attributeId",
          "type": "uint256"
        },
        {
          "indexed": false,
          "internalType": "uint256",
          "name": "value",
          "type": "uint256"
        }
      ],
      "name": "ValueUpdated",
      "type": "event"
    },
    {
      "anonymous": false,
      "inputs": [
        {
          "indexed": true,
          "internalType": "uint256",
          "name": "tokenId",
          "type": "uint256"
        },
        {
          "indexed": false,
          "internalType": "uint256[]",
          "name": "attributeIds",
          "type": "uint256[]"
        },
        {
          "indexed": false,
          "internalType": "uint256[]",
          "name": "values",
          "type": "uint256[]"
        }
      ],
      "name": "ValuesUpdated",
      "type": "event"
    },
    {
      "inputs": [],
      "name": "ADMIN_ROLE",
      "outputs": [
        {
          "internalType": "bytes32",
          "name": "",
          "type": "bytes32"
        }
      ],
      "stateMutability": "view",
      "type": "function"
    },
    {
      "inputs": [],
      "name": "CONTRACT_ROLE",
      "outputs": [
        {
          "internalType": "bytes32",
          "name": "",
          "type": "bytes32"
        }
      ],
      "stateMutability": "view",
      "type": "function"
    },
    {
      "inputs": [],
      "name": "DEFAULT_ADMIN_ROLE",
      "outputs": [
        {
          "internalType": "bytes32",
          "name": "",
          "type": "bytes32"
        }
      ],
      "stateMutability": "view",
      "type": "function"
    },
    {
      "inputs": [],
      "name": "MINTER_ROLE",
      "outputs": [
        {
          "internalType": "bytes32",
          "name": "",
          "type": "bytes32"
        }
      ],
      "stateMutability": "view",
      "type": "function"
    },
    {
      "inputs": [],
      "name": "SOULBOUND_WHITELIST_ROLE",
      "outputs": [
        {
          "internalType": "bytes32",
          "name": "",
          "type": "bytes32"
        }
      ],
      "stateMutability": "view",
      "type": "function"
    },
    {
      "inputs": [],
      "name": "activeIds",
      "outputs": [
        {
          "internalType": "uint256[]",
          "name": "",
          "type": "uint256[]"
        }
      ],
      "stateMutability": "view",
      "type": "function"
    },
    {
      "inputs": [
        {
          "internalType": "address",
          "name": "account",
          "type": "address"
        },
        {
          "internalType": "uint256",
          "name": "id",
          "type": "uint256"
        }
      ],
      "name": "balanceOf",
      "outputs": [
        {
          "internalType": "uint256",
          "name": "",
          "type": "uint256"
        }
      ],
      "stateMutability": "view",
      "type": "function"
    },
    {
      "inputs": [
        {
          "internalType": "address[]",
          "name": "accounts",
          "type": "address[]"
        },
        {
          "internalType": "uint256[]",
          "name": "ids",
          "type": "uint256[]"
        }
      ],
      "name": "balanceOfBatch",
      "outputs": [
        {
          "internalType": "uint256[]",
          "name": "",
          "type": "uint256[]"
        }
      ],
      "stateMutability": "view",
      "type": "function"
    },
    {
      "inputs": [
        {
          "internalType": "uint256",
          "name": "tokenId",
          "type": "uint256"
        },
        {
          "internalType": "uint256[]",
          "name": "attributeIds",
          "type": "uint256[]"
        }
      ],
      "name": "batchGetAttribute",
      "outputs": [
        {
          "internalType": "uint256[]",
          "name": "",
          "type": "uint256[]"
        }
      ],
      "stateMutability": "view",
      "type": "function"
    },
    {
      "inputs": [
        {
          "internalType": "uint256",
          "name": "tokenId",
          "type": "uint256"
        },
        {
          "internalType": "uint256[]",
          "name": "attributeIds",
          "type": "uint256[]"
        },
        {
          "internalType": "uint256[]",
          "name": "values",
          "type": "uint256[]"
        }
      ],
      "name": "batchSetAttribute",
      "outputs": [],
      "stateMutability": "nonpayable",
      "type": "function"
    },
    {
      "inputs": [
        {
          "internalType": "uint256",
          "name": "tokenId",
          "type": "uint256"
        },
        {
          "internalType": "uint256[]",
          "name": "attributeIds",
          "type": "uint256[]"
        },
        {
          "internalType": "string[]",
          "name": "names",
          "type": "string[]"
        }
      ],
      "name": "batchSetAttributeName",
      "outputs": [],
      "stateMutability": "nonpayable",
      "type": "function"
    },
    {
      "inputs": [
        {
          "internalType": "uint256[]",
          "name": "tokenIds",
          "type": "uint256[]"
        }
      ],
      "name": "batchTokenURI",
      "outputs": [
        {
          "internalType": "string[]",
          "name": "",
          "type": "string[]"
        }
      ],
      "stateMutability": "view",
      "type": "function"
    },
    {
      "inputs": [
        {
          "internalType": "uint256[]",
          "name": "tokenIds",
          "type": "uint256[]"
        }
      ],
      "name": "batchUri",
      "outputs": [
        {
          "internalType": "string[]",
          "name": "",
          "type": "string[]"
        }
      ],
      "stateMutability": "view",
      "type": "function"
    },
    {
      "inputs": [
        {
          "internalType": "address",
          "name": "account",
          "type": "address"
        },
        {
          "internalType": "uint256",
          "name": "id",
          "type": "uint256"
        },
        {
          "internalType": "uint256",
          "name": "value",
          "type": "uint256"
        }
      ],
      "name": "burn",
      "outputs": [],
      "stateMutability": "nonpayable",
      "type": "function"
    },
    {
      "inputs": [
        {
          "internalType": "address",
          "name": "account",
          "type": "address"
        },
        {
          "internalType": "uint256[]",
          "name": "ids",
          "type": "uint256[]"
        },
        {
          "internalType": "uint256[]",
          "name": "values",
          "type": "uint256[]"
        }
      ],
      "name": "burnBatch",
      "outputs": [],
      "stateMutability": "nonpayable",
      "type": "function"
    },
    {
      "inputs": [
        {
          "internalType": "uint256",
          "name": "id",
          "type": "uint256"
        }
      ],
      "name": "exists",
      "outputs": [
        {
          "internalType": "bool",
          "name": "",
          "type": "bool"
        }
      ],
      "stateMutability": "view",
      "type": "function"
    },
    {
      "inputs": [
        {
          "internalType": "uint256",
          "name": "tokenId",
          "type": "uint256"
        },
        {
          "internalType": "uint256",
          "name": "attributeId",
          "type": "uint256"
        }
      ],
      "name": "getAttribute",
      "outputs": [
        {
          "internalType": "uint256",
          "name": "",
          "type": "uint256"
        }
      ],
      "stateMutability": "view",
      "type": "function"
    },
    {
      "inputs": [],
      "name": "getBlacklisted",
      "outputs": [
        {
          "internalType": "address[]",
          "name": "",
          "type": "address[]"
        }
      ],
      "stateMutability": "view",
      "type": "function"
    },
    {
      "inputs": [
        {
          "internalType": "bytes32",
          "name": "role",
          "type": "bytes32"
        }
      ],
      "name": "getRoleAdmin",
      "outputs": [
        {
          "internalType": "bytes32",
          "name": "",
          "type": "bytes32"
        }
      ],
      "stateMutability": "view",
      "type": "function"
    },
    {
      "inputs": [
        {
          "internalType": "bytes32",
          "name": "role",
          "type": "bytes32"
        },
        {
          "internalType": "uint256",
          "name": "index",
          "type": "uint256"
        }
      ],
      "name": "getRoleMember",
      "outputs": [
        {
          "internalType": "address",
          "name": "",
          "type": "address"
        }
      ],
      "stateMutability": "view",
      "type": "function"
    },
    {
      "inputs": [
        {
          "internalType": "bytes32",
          "name": "role",
          "type": "bytes32"
        }
      ],
      "name": "getRoleMemberCount",
      "outputs": [
        {
          "internalType": "uint256",
          "name": "",
          "type": "uint256"
        }
      ],
      "stateMutability": "view",
      "type": "function"
    },
    {
      "inputs": [
        {
          "internalType": "bytes32",
          "name": "role",
          "type": "bytes32"
        },
        {
          "internalType": "address",
          "name": "account",
          "type": "address"
        }
      ],
      "name": "grantRole",
      "outputs": [],
      "stateMutability": "nonpayable",
      "type": "function"
    },
    {
      "inputs": [
        {
          "internalType": "bytes32",
          "name": "role",
          "type": "bytes32"
        },
        {
          "internalType": "address",
          "name": "account",
          "type": "address"
        }
      ],
      "name": "hasRole",
      "outputs": [
        {
          "internalType": "bool",
          "name": "",
          "type": "bool"
        }
      ],
      "stateMutability": "view",
      "type": "function"
    },
    {
      "inputs": [],
      "name": "imageBaseURI",
      "outputs": [
        {
          "internalType": "string",
          "name": "",
          "type": "string"
        }
      ],
      "stateMutability": "view",
      "type": "function"
    },
    {
      "inputs": [],
      "name": "initialize",
      "outputs": [],
      "stateMutability": "nonpayable",
      "type": "function"
    },
    {
      "inputs": [
        {
          "internalType": "address",
          "name": "account",
          "type": "address"
        },
        {
          "internalType": "address",
          "name": "operator",
          "type": "address"
        }
      ],
      "name": "isApprovedForAll",
      "outputs": [
        {
          "internalType": "bool",
          "name": "",
          "type": "bool"
        }
      ],
      "stateMutability": "view",
      "type": "function"
    },
    {
      "inputs": [
        {
          "internalType": "address",
          "name": "user",
          "type": "address"
        }
      ],
      "name": "isBlacklisted",
      "outputs": [
        {
          "internalType": "bool",
          "name": "",
          "type": "bool"
        }
      ],
      "stateMutability": "view",
      "type": "function"
    },
    {
      "inputs": [
        {
          "internalType": "address",
          "name": "account",
          "type": "address"
        },
        {
          "internalType": "uint256",
          "name": "id",
          "type": "uint256"
        },
        {
          "internalType": "uint256",
          "name": "amount",
          "type": "uint256"
        },
        {
          "internalType": "bytes",
          "name": "data",
          "type": "bytes"
        }
      ],
      "name": "mint",
      "outputs": [],
      "stateMutability": "nonpayable",
      "type": "function"
    },
    {
      "inputs": [
        {
          "internalType": "address",
          "name": "to",
          "type": "address"
        },
        {
          "internalType": "uint256[]",
          "name": "ids",
          "type": "uint256[]"
        },
        {
          "internalType": "uint256[]",
          "name": "amounts",
          "type": "uint256[]"
        },
        {
          "internalType": "bytes",
          "name": "data",
          "type": "bytes"
        }
      ],
      "name": "mintBatch",
      "outputs": [],
      "stateMutability": "nonpayable",
      "type": "function"
    },
    {
      "inputs": [
        {
          "internalType": "uint256",
          "name": "id",
          "type": "uint256"
        },
        {
          "internalType": "address[]",
          "name": "to",
          "type": "address[]"
        },
        {
          "internalType": "uint256[]",
          "name": "amounts",
          "type": "uint256[]"
        }
      ],
      "name": "mintBatchOf",
      "outputs": [],
      "stateMutability": "nonpayable",
      "type": "function"
    },
    {
      "inputs": [],
      "name": "name",
      "outputs": [
        {
          "internalType": "string",
          "name": "",
          "type": "string"
        }
      ],
      "stateMutability": "view",
      "type": "function"
    },
    {
      "inputs": [],
      "name": "pause",
      "outputs": [],
      "stateMutability": "nonpayable",
      "type": "function"
    },
    {
      "inputs": [],
      "name": "paused",
      "outputs": [
        {
          "internalType": "bool",
          "name": "",
          "type": "bool"
        }
      ],
      "stateMutability": "view",
      "type": "function"
    },
    {
      "inputs": [
        {
          "internalType": "bytes32",
          "name": "role",
          "type": "bytes32"
        },
        {
          "internalType": "address",
          "name": "account",
          "type": "address"
        }
      ],
      "name": "renounceRole",
      "outputs": [],
      "stateMutability": "nonpayable",
      "type": "function"
    },
    {
      "inputs": [
        {
          "internalType": "bytes32",
          "name": "role",
          "type": "bytes32"
        },
        {
          "internalType": "address",
          "name": "account",
          "type": "address"
        }
      ],
      "name": "revokeRole",
      "outputs": [],
      "stateMutability": "nonpayable",
      "type": "function"
    },
    {
      "inputs": [
        {
          "internalType": "address",
          "name": "from",
          "type": "address"
        },
        {
          "internalType": "address",
          "name": "to",
          "type": "address"
        },
        {
          "internalType": "uint256[]",
          "name": "ids",
          "type": "uint256[]"
        },
        {
          "internalType": "uint256[]",
          "name": "amounts",
          "type": "uint256[]"
        },
        {
          "internalType": "bytes",
          "name": "data",
          "type": "bytes"
        }
      ],
      "name": "safeBatchTransferFrom",
      "outputs": [],
      "stateMutability": "nonpayable",
      "type": "function"
    },
    {
      "inputs": [
        {
          "internalType": "address",
          "name": "from",
          "type": "address"
        },
        {
          "internalType": "address",
          "name": "to",
          "type": "address"
        },
        {
          "internalType": "uint256",
          "name": "id",
          "type": "uint256"
        },
        {
          "internalType": "uint256",
          "name": "amount",
          "type": "uint256"
        },
        {
          "internalType": "bytes",
          "name": "data",
          "type": "bytes"
        }
      ],
      "name": "safeTransferFrom",
      "outputs": [],
      "stateMutability": "nonpayable",
      "type": "function"
    },
    {
      "inputs": [
        {
          "internalType": "address",
          "name": "operator",
          "type": "address"
        },
        {
          "internalType": "bool",
          "name": "approved",
          "type": "bool"
        }
      ],
      "name": "setApprovalForAll",
      "outputs": [],
      "stateMutability": "nonpayable",
      "type": "function"
    },
    {
      "inputs": [
        {
          "internalType": "uint256",
          "name": "tokenId",
          "type": "uint256"
        },
        {
          "internalType": "uint256",
          "name": "attributeId",
          "type": "uint256"
        },
        {
          "internalType": "uint256",
          "name": "value",
          "type": "uint256"
        }
      ],
      "name": "setAttribute",
      "outputs": [],
      "stateMutability": "nonpayable",
      "type": "function"
    },
    {
      "inputs": [
        {
          "internalType": "uint256",
          "name": "tokenId",
          "type": "uint256"
        },
        {
          "internalType": "uint256",
          "name": "attributeId",
          "type": "uint256"
        },
        {
          "internalType": "string",
          "name": "name",
          "type": "string"
        }
      ],
      "name": "setAttributeName",
      "outputs": [],
      "stateMutability": "nonpayable",
      "type": "function"
    },
    {
      "inputs": [
        {
          "internalType": "uint256",
          "name": "tokenId",
          "type": "uint256"
        }
      ],
      "name": "setSoulbound",
      "outputs": [],
      "stateMutability": "nonpayable",
      "type": "function"
    },
    {
      "inputs": [
        {
          "internalType": "bytes4",
          "name": "interfaceId",
          "type": "bytes4"
        }
      ],
      "name": "supportsInterface",
      "outputs": [
        {
          "internalType": "bool",
          "name": "",
          "type": "bool"
        }
      ],
      "stateMutability": "view",
      "type": "function"
    },
    {
      "inputs": [],
      "name": "symbol",
      "outputs": [
        {
          "internalType": "string",
          "name": "",
          "type": "string"
        }
      ],
      "stateMutability": "view",
      "type": "function"
    },
    {
      "inputs": [
        {
          "internalType": "uint256",
          "name": "tokenId",
          "type": "uint256"
        }
      ],
      "name": "tokenURI",
      "outputs": [
        {
          "internalType": "string",
          "name": "",
          "type": "string"
        }
      ],
      "stateMutability": "view",
      "type": "function"
    },
    {
      "inputs": [
        {
          "internalType": "address",
          "name": "owner",
          "type": "address"
        }
      ],
      "name": "tokensOf",
      "outputs": [
        {
          "internalType": "uint256[]",
          "name": "tokenIds",
          "type": "uint256[]"
        },
        {
          "internalType": "uint256[]",
          "name": "balances",
          "type": "uint256[]"
        }
      ],
      "stateMutability": "view",
      "type": "function"
    },
    {
      "inputs": [
        {
          "internalType": "uint256",
          "name": "id",
          "type": "uint256"
        }
      ],
      "name": "totalSupply",
      "outputs": [
        {
          "internalType": "uint256",
          "name": "",
          "type": "uint256"
        }
      ],
      "stateMutability": "view",
      "type": "function"
    },
    {
      "inputs": [],
      "name": "unpause",
      "outputs": [],
      "stateMutability": "nonpayable",
      "type": "function"
    },
    {
      "inputs": [
        {
          "internalType": "uint256",
          "name": "tokenId",
          "type": "uint256"
        }
      ],
      "name": "unsetSoulbound",
      "outputs": [],
      "stateMutability": "nonpayable",
      "type": "function"
    },
    {
      "inputs": [
        {
          "internalType": "uint256",
          "name": "tokenId",
          "type": "uint256"
        }
      ],
      "name": "uri",
      "outputs": [
        {
          "internalType": "string",
          "name": "",
          "type": "string"
        }
      ],
      "stateMutability": "view",
      "type": "function"
    }
  ],
  "bytecode": "0x60806040523480156200001157600080fd5b506200001c62000022565b620000e4565b600054610100900460ff16156200008f5760405162461bcd60e51b815260206004820152602760248201527f496e697469616c697a61626c653a20636f6e747261637420697320696e697469604482015266616c697a696e6760c81b606482015260840160405180910390fd5b60005460ff9081161015620000e2576000805460ff191660ff9081179091556040519081527f7f26b83ff96e1f2b6a682f133852f6798a09c465da95921460cefb38474024989060200160405180910390a15b565b614b3c80620000f46000396000f3fe608060405234801561001057600080fd5b50600436106102ba5760003560e01c80638456cb5911610182578063bd85b039116100e9578063d5391393116100a2578063f242432a1161007c578063f242432a1461066b578063f5298aca1461067e578063fd5eea4e14610691578063fe575a87146106a457600080fd5b8063d539139314610607578063d547741f1461061c578063e985e9c51461062f57600080fd5b8063bd85b03914610593578063c385ce25146105a6578063c87b56dd146105b9578063ca15c873146105cc578063ce3675ad146105df578063d179191a146105f457600080fd5b8063994a95be1161013b578063994a95be14610535578063a17d79ec14610548578063a217fddf1461055d578063a22cb46514610565578063b0fe60d514610578578063b198ce461461058b57600080fd5b80638456cb59146104c157806387be85d3146104c95780639010d07c146104dc57806391d148541461050757806395d89b411461051a57806396c45e2f1461052257600080fd5b80634f558e7911610226578063731133e9116101df578063731133e91461046357806375b238fc146104765780637685945e1461048b578063776458391461049e5780637d7a6d13146104a65780638129fc1c146104b957600080fd5b80634f558e79146103de57806358870da1146103f15780635a3f2672146104045780635c975abb146104255780636b20c454146104305780636d94f13a1461044357600080fd5b8063248a9ca311610278578063248a9ca31461035a5780632eb2c2d61461037d5780632f2ff15d1461039057806336568abe146103a35780633f4ba83a146103b65780634e1273f4146103be57600080fd5b8062fdd58e146102bf57806301ffc9a7146102e557806303fe46ab1461030857806306fdde031461031d5780630e89341c146103325780631f7fdffa14610345575b600080fd5b6102d26102cd366004613794565b6106b7565b6040519081526020015b60405180910390f35b6102f86102f33660046137d4565b610752565b60405190151581526020016102dc565b6102d2600080516020614ae783398151915281565b61032561075d565b6040516102dc9190613849565b61032561034036600461385c565b6107ec565b6103586103533660046139be565b610944565b005b6102d261036836600461385c565b60009081526097602052604090206001015490565b61035861038b366004613a56565b61096f565b61035861039e366004613aff565b6109b4565b6103586103b1366004613aff565b6109de565b610358610a5c565b6103d16103cc366004613b98565b610a7f565b6040516102dc9190613c36565b6102f86103ec36600461385c565b610ba8565b6103586103ff366004613c49565b610bbb565b610417610412366004613c98565b610c3c565b6040516102dc929190613cb3565b60fb5460ff166102f8565b61035861043e366004613ce1565b610d01565b610456610451366004613d4a565b610d44565b6040516102dc9190613dd3565b610358610471366004613de6565b610d4f565b6102d2600080516020614ac783398151915281565b6102d2610499366004613e3a565b610d73565b610325610d93565b6103586104b4366004613e5c565b610da1565b610358610e65565b610358611066565b6103586104d7366004613e8f565b611086565b6104ef6104ea366004613e3a565b611109565b6040516001600160a01b0390911681526020016102dc565b6102f8610515366004613aff565b611121565b61032561114c565b61035861053036600461385c565b61115a565b6103d1610543366004613ece565b611197565b6102d2600080516020614aa783398151915281565b6102d2600081565b610358610573366004613f0a565b61125a565b610456610586366004613d4a565b611265565b6103d161131d565b6102d26105a136600461385c565b6113bb565b6103586105b436600461385c565b6113d2565b6103256105c736600461385c565b61140e565b6102d26105da36600461385c565b611419565b6105e7611430565b6040516102dc9190613f46565b610358610602366004613f93565b611442565b6102d2600080516020614a8783398151915281565b61035861062a366004613aff565b611517565b6102f861063d36600461407e565b6001600160a01b03918216600090815260666020908152604080832093909416825291909152205460ff1690565b6103586106793660046140a8565b61153c565b61035861068c36600461410c565b611581565b61035861069f36600461413f565b6115c4565b6102f86106b2366004613c98565b61162f565b60006001600160a01b0383166107275760405162461bcd60e51b815260206004820152602a60248201527f455243313135353a2061646472657373207a65726f206973206e6f742061207660448201526930b634b21037bbb732b960b11b60648201526084015b60405180910390fd5b5060008181526065602090815260408083206001600160a01b03861684529091529020545b92915050565b600061074c8261163d565b61028b805461076b9061416b565b80601f01602080910402602001604051908101604052809291908181526020018280546107979061416b565b80156107e45780601f106107b9576101008083540402835291602001916107e4565b820191906000526020600020905b8154815290600101906020018083116107c757829003601f168201915b505050505081565b606060006107fc836103e8611662565b9050600061080c846103e9611662565b905060608061081a86611711565b81519194509250600091506001600160401b0381111561083c5761083c613875565b60405190808252806020026020018201604052801561089157816020015b61087e60405180606001604052806060815260200160608152602001600081525090565b81526020019060019003908161085a5790505b50905060005b835181101561092c5760405180606001604052808483815181106108bd576108bd6141a6565b602002602001015181526020016040518060200160405280600081525081526020018583815181106108f1576108f16141a6565b602002602001015181525082828151811061090e5761090e6141a6565b60200260200101819052508080610924906141d2565b915050610897565b5061093987868684611978565b979650505050505050565b600080516020614a8783398151915261095c816119c4565b610968858585856119ce565b5050505050565b6001600160a01b03851633148061098b575061098b853361063d565b6109a75760405162461bcd60e51b815260040161071e906141ed565b6109688585858585611b29565b6000828152609760205260409020600101546109cf816119c4565b6109d98383611cd6565b505050565b6001600160a01b0381163314610a4e5760405162461bcd60e51b815260206004820152602f60248201527f416363657373436f6e74726f6c3a2063616e206f6e6c792072656e6f756e636560448201526e103937b632b9903337b91039b2b63360891b606482015260840161071e565b610a588282611cf8565b5050565b600080516020614ac7833981519152610a74816119c4565b610a7c611d1a565b50565b60608151835114610ae45760405162461bcd60e51b815260206004820152602960248201527f455243313135353a206163636f756e747320616e6420696473206c656e677468604482015268040dad2e6dac2e8c6d60bb1b606482015260840161071e565b600083516001600160401b03811115610aff57610aff613875565b604051908082528060200260200182016040528015610b28578160200160208202803683370190505b50905060005b8451811015610ba057610b73858281518110610b4c57610b4c6141a6565b6020026020010151858381518110610b6657610b666141a6565b60200260200101516106b7565b828281518110610b8557610b856141a6565b6020908102919091010152610b99816141d2565b9050610b2e565b509392505050565b600080610bb4836113bb565b1192915050565b600080516020614ae7833981519152610bd3816119c4565b60008481526101f86020908152604080832086845282529091208351610bfb928501906136df565b50837ffdbb964a9a1d2ac903ed7ebf85795be6728c27e96237552b2805596c759e08818484604051610c2e92919061423c565b60405180910390a250505050565b6001600160a01b0381166000908152610164602052604090206060908190610c6390611d6c565b915081516001600160401b03811115610c7e57610c7e613875565b604051908082528060200260200182016040528015610ca7578160200160208202803683370190505b50905060005b8251811015610cfb57610ccc84848381518110610b6657610b666141a6565b828281518110610cde57610cde6141a6565b602090810291909101015280610cf3816141d2565b915050610cad565b50915091565b6001600160a01b038316331480610d1d5750610d1d833361063d565b610d395760405162461bcd60e51b815260040161071e906141ed565b6109d9838383611d79565b606061074c82611265565b600080516020614a87833981519152610d67816119c4565b61096885858585611f1a565b60008281526101f760205260408120610d8c9083612005565b9392505050565b610228805461076b9061416b565b600080516020614ae7833981519152610db9816119c4565b60005b8351811015610e3257610e1f848281518110610dda57610dda6141a6565b6020026020010151848381518110610df457610df46141a6565b60200260200101516101f760008981526020019081526020016000206120119092919063ffffffff16565b5080610e2a816141d2565b915050610dbc565b50837f383bcccfd5e9b61afe7e6832ca2201fe34d7766a9bbf90fb7152082ddbcd342b8484604051610c2e929190613cb3565b600054610100900460ff1615808015610e855750600054600160ff909116105b80610e9f5750303b158015610e9f575060005460ff166001145b610f025760405162461bcd60e51b815260206004820152602e60248201527f496e697469616c697a61626c653a20636f6e747261637420697320616c72656160448201526d191e481a5b9a5d1a585b1a5e995960921b606482015260840161071e565b6000805460ff191660011790558015610f25576000805461ff0019166101001790555b610f3d6040518060200160405280600081525061201e565b610f4561204e565b610f4d612077565b610f5561204e565b610f5d61204e565b610f6561204e565b610f6d6120a6565b610f8e6040518060600160405280602f8152602001614a58602f9139612105565b610f96612140565b610fe36040518060400160405280600d81526020016c436f736d69632042616467657360981b8152506040518060400160405280600681526020016542414447455360d01b815250612187565b610fee600033611cd6565b611006600080516020614ac783398151915233611cd6565b61101e600080516020614a8783398151915233611cd6565b8015610a7c576000805461ff0019169055604051600181527f7f26b83ff96e1f2b6a682f133852f6798a09c465da95921460cefb38474024989060200160405180910390a150565b600080516020614ac783398151915261107e816119c4565b610a7c6121d7565b600080516020614a8783398151915261109e816119c4565b60005b8351811015610968576110f78482815181106110bf576110bf6141a6565b6020026020010151868584815181106110da576110da6141a6565b602002602001015160405180602001604052806000815250611f1a565b80611101816141d2565b9150506110a1565b600082815260c960205260408120610d8c9083612214565b60009182526097602090815260408084206001600160a01b0393909316845291905290205460ff1690565b61028c805461076b9061416b565b600080516020614ac7833981519152611172816119c4565b600882901c600090815261025a602052604090208054600160ff85161b191690555050565b6060600082516001600160401b038111156111b4576111b4613875565b6040519080825280602002602001820160405280156111dd578160200160208202803683370190505b50905060005b8351811015610ba05761122b848281518110611201576112016141a6565b60200260200101516101f7600088815260200190815260200160002061200590919063ffffffff16565b82828151811061123d5761123d6141a6565b602090810291909101015280611252816141d2565b9150506111e3565b610a58338383612220565b6060600082516001600160401b0381111561128257611282613875565b6040519080825280602002602001820160405280156112b557816020015b60608152602001906001900390816112a05790505b50905060005b8351811015611316576112e68482815181106112d9576112d96141a6565b602002602001015161140e565b8282815181106112f8576112f86141a6565b6020026020010181905250808061130e906141d2565b9150506112bb565b5092915050565b6060600061132c61015f612301565b90506000816001600160401b0381111561134857611348613875565b604051908082528060200260200182016040528015611371578160200160208202803683370190505b50905060005b828110156113165761138b61015f8261230c565b5082828151811061139e5761139e6141a6565b6020908102919091010152806113b3816141d2565b915050611377565b6000806113ca61015f8461232a565b949350505050565b600080516020614ac78339815191526113ea816119c4565b600882901c600090815261025a602052604090208054600160ff85161b1790555050565b606061074c826107ec565b600081815260c96020526040812061074c90612339565b606061143d610193611d6c565b905090565b600080516020614ae783398151915261145a816119c4565b60005b83518110156114e457828181518110611478576114786141a6565b60200260200101516101f8600087815260200190815260200160002060008684815181106114a8576114a86141a6565b6020026020010151815260200190815260200160002090805190602001906114d19291906136df565b50806114dc816141d2565b91505061145d565b50837f9d69ed3cc764cf4f579cfc28312dded7bb202f17cc77aa4d0eb3f8bbaecd88e38484604051610c2e929190614255565b600082815260976020526040902060010154611532816119c4565b6109d98383611cf8565b6001600160a01b0385163314806115585750611558853361063d565b6115745760405162461bcd60e51b815260040161071e906141ed565b6109688585858585612343565b6001600160a01b03831633148061159d575061159d833361063d565b6115b95760405162461bcd60e51b815260040161071e906141ed565b6109d983838361247f565b600080516020614ae78339815191526115dc816119c4565b60008481526101f7602052604090206115f6908484612011565b50604080518481526020810184905285917f5cb4c5f05283d5a84da3f9f1b0fe8b00d7ea8e1fb833812b52114799bdf1acc79101610c2e565b600061074c6101938361259b565b60006001600160e01b03198216635a05180f60e01b148061074c575061074c826125bd565b60008281526101f860209081526040808320848452909152902080546060919061168b9061416b565b80601f01602080910402602001604051908101604052809291908181526020018280546116b79061416b565b80156117045780601f106116d957610100808354040283529160200191611704565b820191906000526020600020905b8154815290600101906020018083116116e757829003601f168201915b5050505050905092915050565b606080606060006117346101f76000878152602001908152602001600020612301565b90506000816001600160401b0381111561175057611750613875565b604051908082528060200260200182016040528015611779578160200160208202803683370190505b5090506000826001600160401b0381111561179657611796613875565b6040519080825280602002602001820160405280156117bf578160200160208202803683370190505b5090506000836001600160401b038111156117dc576117dc613875565b60405190808252806020026020018201604052801561180f57816020015b60608152602001906001900390816117fa5790505b50905060005b848110156119695760008981526101f760205260409020611836908261230c565b858381518110611848576118486141a6565b60200260200101858481518110611861576118616141a6565b60200260200101828152508281525050506101f860008a8152602001908152602001600020600085838151811061189a5761189a6141a6565b6020026020010151815260200190815260200160002080546118bb9061416b565b80601f01602080910402602001604051908101604052809291908181526020018280546118e79061416b565b80156119345780601f1061190957610100808354040283529160200191611934565b820191906000526020600020905b81548152906001019060200180831161191757829003601f168201915b505050505082828151811061194b5761194b6141a6565b60200260200101819052508080611961906141d2565b915050611815565b50919790965090945092505050565b606060006119878686866125e2565b905060006119948461264c565b905081816040516020016119a9929190614296565b60405160208183030381529060405292505050949350505050565b610a7c81336127df565b6001600160a01b0384166119f45760405162461bcd60e51b815260040161071e906142e3565b8151835114611a155760405162461bcd60e51b815260040161071e90614324565b33611a2581600087878787612843565b60005b8451811015611ac157838181518110611a4357611a436141a6565b602002602001015160656000878481518110611a6157611a616141a6565b602002602001015181526020019081526020016000206000886001600160a01b03166001600160a01b031681526020019081526020016000206000828254611aa9919061436c565b90915550819050611ab9816141d2565b915050611a28565b50846001600160a01b031660006001600160a01b0316826001600160a01b03167f4a39dc06d4c0dbc64b70af90fd698a233a518aa5d07e595d983b8c0526c8f7fb8787604051611b12929190613cb3565b60405180910390a46109688160008787878761294b565b8151835114611b4a5760405162461bcd60e51b815260040161071e90614324565b6001600160a01b038416611b705760405162461bcd60e51b815260040161071e90614384565b33611b7f818787878787612843565b60005b8451811015611c68576000858281518110611b9f57611b9f6141a6565b602002602001015190506000858381518110611bbd57611bbd6141a6565b60209081029190910181015160008481526065835260408082206001600160a01b038e168352909352919091205490915081811015611c0e5760405162461bcd60e51b815260040161071e906143c9565b60008381526065602090815260408083206001600160a01b038e8116855292528083208585039055908b16825281208054849290611c4d90849061436c565b9250508190555050505080611c61906141d2565b9050611b82565b50846001600160a01b0316866001600160a01b0316826001600160a01b03167f4a39dc06d4c0dbc64b70af90fd698a233a518aa5d07e595d983b8c0526c8f7fb8787604051611cb8929190613cb3565b60405180910390a4611cce81878787878761294b565b505050505050565b611ce08282612ab6565b600082815260c9602052604090206109d99082612b3c565b611d028282612b51565b600082815260c9602052604090206109d99082612bb8565b611d22612bcd565b60fb805460ff191690557f5db9ee0a495bf2e6ff9c91a7834c1ba4fdd244a5e8aa4e537bd38aeae4b073aa335b6040516001600160a01b03909116815260200160405180910390a1565b60606000610d8c83612c16565b6001600160a01b038316611d9f5760405162461bcd60e51b815260040161071e90614413565b8051825114611dc05760405162461bcd60e51b815260040161071e90614324565b6000339050611de381856000868660405180602001604052806000815250612843565b60005b8351811015611eab576000848281518110611e0357611e036141a6565b602002602001015190506000848381518110611e2157611e216141a6565b60209081029190910181015160008481526065835260408082206001600160a01b038c168352909352919091205490915081811015611e725760405162461bcd60e51b815260040161071e90614456565b60009283526065602090815260408085206001600160a01b038b1686529091529092209103905580611ea3816141d2565b915050611de6565b5060006001600160a01b0316846001600160a01b0316826001600160a01b03167f4a39dc06d4c0dbc64b70af90fd698a233a518aa5d07e595d983b8c0526c8f7fb8686604051611efc929190613cb3565b60405180910390a46040805160208101909152600090525b50505050565b6001600160a01b038416611f405760405162461bcd60e51b815260040161071e906142e3565b336000611f4c85612c72565b90506000611f5985612c72565b9050611f6a83600089858589612843565b60008681526065602090815260408083206001600160a01b038b16845290915281208054879290611f9c90849061436c565b909155505060408051878152602081018790526001600160a01b03808a1692600092918716917fc3d58168c5ae7397731d063d5bbf3d657854427343f4c083240f7aacaa2d0f62910160405180910390a4611ffc83600089898989612cbd565b50505050505050565b6000610d8c8383612d87565b60006113ca848484612df7565b600054610100900460ff166120455760405162461bcd60e51b815260040161071e9061449a565b610a7c81612e14565b600054610100900460ff166120755760405162461bcd60e51b815260040161071e9061449a565b565b600054610100900460ff1661209e5760405162461bcd60e51b815260040161071e9061449a565b612075612e44565b600054610100900460ff166120cd5760405162461bcd60e51b815260040161071e9061449a565b6120d561204e565b6120ed600080516020614ac783398151915233611cd6565b612075600080516020614aa783398151915233611cd6565b600054610100900460ff1661212c5760405162461bcd60e51b815260040161071e9061449a565b8051610a58906102289060208401906136df565b600054610100900460ff166121675760405162461bcd60e51b815260040161071e9061449a565b61216f61204e565b612075600080516020614ae783398151915233611cd6565b600054610100900460ff166121ae5760405162461bcd60e51b815260040161071e9061449a565b81516121c29061028b9060208501906136df565b5080516109d99061028c9060208401906136df565b6121df612e77565b60fb805460ff191660011790557f62e78cea01bee320cd4e420270b5ea74000d11b0c9f74754ebdbfc544b05a258611d4f3390565b6000610d8c8383612ebd565b816001600160a01b0316836001600160a01b031614156122945760405162461bcd60e51b815260206004820152602960248201527f455243313135353a2073657474696e6720617070726f76616c20737461747573604482015268103337b91039b2b63360b91b606482015260840161071e565b6001600160a01b03838116600081815260666020908152604080832094871680845294825291829020805460ff191686151590811790915591519182527f17307eab39ab6107e8899845ad3d59bd9653f200f220920489ca2b5937696c31910160405180910390a3505050565b600061074c82612ee7565b600080808061231b8686612ef2565b909450925050505b9250929050565b600080808061231b8686612f1d565b600061074c825490565b6001600160a01b0384166123695760405162461bcd60e51b815260040161071e90614384565b33600061237585612c72565b9050600061238285612c72565b9050612392838989858589612843565b60008681526065602090815260408083206001600160a01b038c168452909152902054858110156123d55760405162461bcd60e51b815260040161071e906143c9565b60008781526065602090815260408083206001600160a01b038d8116855292528083208985039055908a1682528120805488929061241490849061436c565b909155505060408051888152602081018890526001600160a01b03808b16928c821692918816917fc3d58168c5ae7397731d063d5bbf3d657854427343f4c083240f7aacaa2d0f62910160405180910390a4612474848a8a8a8a8a612cbd565b505050505050505050565b6001600160a01b0383166124a55760405162461bcd60e51b815260040161071e90614413565b3360006124b184612c72565b905060006124be84612c72565b90506124de83876000858560405180602001604052806000815250612843565b60008581526065602090815260408083206001600160a01b038a168452909152902054848110156125215760405162461bcd60e51b815260040161071e90614456565b60008681526065602090815260408083206001600160a01b038b81168086529184528285208a8703905582518b81529384018a90529092908816917fc3d58168c5ae7397731d063d5bbf3d657854427343f4c083240f7aacaa2d0f62910160405180910390a4604080516020810190915260009052611ffc565b6001600160a01b03811660009081526001830160205260408120541515610d8c565b60006001600160e01b03198216637965db0b60e01b148061074c575061074c82612f57565b606060006102286125f286612fa7565b6040516020016126039291906144e5565b60405160208183030381529060405290508361261e86612fa7565b84836040516020016126339493929190614583565b6040516020818303038152906040529150509392505050565b60408051602081019091526000808252606091905b83518110156127b65760006001855161267a9190614668565b821461269f57604051806040016040528060018152602001600b60fa1b8152506126b0565b604051806020016040528060008152505b905060008583815181106126c6576126c66141a6565b6020026020010151602001515160001461271c578583815181106126ec576126ec6141a6565b602002602001015160200151604051602001612708919061467f565b60405160208183030381529060405261272d565b604051806020016040528060008152505b9050600084878581518110612744576127446141a6565b602002602001015160000151836127778a8881518110612766576127666141a6565b602002602001015160400151612fa7565b8660405160200161278c9594939291906146c5565b604051602081830303815290604052905080945050505080806127ae906141d2565b915050612661565b50806040516020016127c89190614780565b604051602081830303815290604052915050919050565b6127e98282611121565b610a5857612801816001600160a01b031660146130a4565b61280c8360206130a4565b60405160200161281d9291906147c2565b60408051601f198184030181529082905262461bcd60e51b825261071e91600401613849565b61284b612e77565b82858560005b835181101561293c5761288884828151811061286f5761286f6141a6565b602002602001015161025a61323f90919063ffffffff16565b158061289b57506001600160a01b038316155b806128ad57506001600160a01b038216155b806128cb57506128cb600080516020614aa783398151915284611121565b806128e957506128e9600080516020614aa783398151915283611121565b61292a5760405162461bcd60e51b8152602060048201526012602482015271151bdad95b881a5cc81cdbdd5b189bdd5b9960721b604482015260640161071e565b80612934816141d2565b915050612851565b50612474898989898989613263565b6001600160a01b0384163b15611cce5760405163bc197c8160e01b81526001600160a01b0385169063bc197c819061298f9089908990889088908890600401614837565b602060405180830381600087803b1580156129a957600080fd5b505af19250505080156129d9575060408051601f3d908101601f191682019092526129d691810190614889565b60015b612a86576129e56148a6565b806308c379a01415612a1f57506129fa6148c2565b80612a055750612a21565b8060405162461bcd60e51b815260040161071e9190613849565b505b60405162461bcd60e51b815260206004820152603460248201527f455243313135353a207472616e7366657220746f206e6f6e20455243313135356044820152732932b1b2b4bb32b91034b6b83632b6b2b73a32b960611b606482015260840161071e565b6001600160e01b0319811663bc197c8160e01b14611ffc5760405162461bcd60e51b815260040161071e9061494b565b612ac08282611121565b610a585760008281526097602090815260408083206001600160a01b03851684529091529020805460ff19166001179055612af83390565b6001600160a01b0316816001600160a01b0316837f2f8788117e7eff1d82e926ec794901d17c78024a50270940304540a733656f0d60405160405180910390a45050565b6000610d8c836001600160a01b038416613499565b612b5b8282611121565b15610a585760008281526097602090815260408083206001600160a01b0385168085529252808320805460ff1916905551339285917ff6391f5c32d9c69d2a47ea670b442974b53935d1edc7fd64eb21e047a839171b9190a45050565b6000610d8c836001600160a01b0384166134e8565b60fb5460ff166120755760405162461bcd60e51b815260206004820152601460248201527314185d5cd8589b194e881b9bdd081c185d5cd95960621b604482015260640161071e565b606081600001805480602002602001604051908101604052809291908181526020018280548015612c6657602002820191906000526020600020905b815481526020019060010190808311612c52575b50505050509050919050565b60408051600180825281830190925260609160009190602080830190803683370190505090508281600081518110612cac57612cac6141a6565b602090810291909101015292915050565b6001600160a01b0384163b15611cce5760405163f23a6e6160e01b81526001600160a01b0385169063f23a6e6190612d019089908990889088908890600401614993565b602060405180830381600087803b158015612d1b57600080fd5b505af1925050508015612d4b575060408051601f3d908101601f19168201909252612d4891810190614889565b60015b612d57576129e56148a6565b6001600160e01b0319811663f23a6e6160e01b14611ffc5760405162461bcd60e51b815260040161071e9061494b565b600081815260028301602052604081205480151580612dab5750612dab84846135db565b610d8c5760405162461bcd60e51b815260206004820152601e60248201527f456e756d657261626c654d61703a206e6f6e6578697374656e74206b65790000604482015260640161071e565b600082815260028401602052604081208290556113ca84846135e7565b600054610100900460ff16612e3b5760405162461bcd60e51b815260040161071e9061449a565b610a7c816135f3565b600054610100900460ff16612e6b5760405162461bcd60e51b815260040161071e9061449a565b60fb805460ff19169055565b60fb5460ff16156120755760405162461bcd60e51b815260206004820152601060248201526f14185d5cd8589b194e881c185d5cd95960821b604482015260640161071e565b6000826000018281548110612ed457612ed46141a6565b9060005260206000200154905092915050565b600061074c82612339565b60008080612f008585612214565b600081815260029690960160205260409095205494959350505050565b6000818152600283016020526040812054819080612f4c57612f3f85856135db565b9250600091506123239050565b600192509050612323565b60006001600160e01b03198216636cdb3d1360e11b1480612f8857506001600160e01b031982166303a24d0760e21b145b8061074c57506301ffc9a760e01b6001600160e01b031983161461074c565b606081612fcb5750506040805180820190915260018152600360fc1b602082015290565b8160005b8115612ff55780612fdf816141d2565b9150612fee9050600a836149e3565b9150612fcf565b6000816001600160401b0381111561300f5761300f613875565b6040519080825280601f01601f191660200182016040528015613039576020820181803683370190505b5090505b84156113ca5761304e600183614668565b915061305b600a866149f7565b61306690603061436c565b60f81b81838151811061307b5761307b6141a6565b60200101906001600160f81b031916908160001a90535061309d600a866149e3565b945061303d565b606060006130b3836002614a0b565b6130be90600261436c565b6001600160401b038111156130d5576130d5613875565b6040519080825280601f01601f1916602001820160405280156130ff576020820181803683370190505b509050600360fc1b8160008151811061311a5761311a6141a6565b60200101906001600160f81b031916908160001a905350600f60fb1b81600181518110613149576131496141a6565b60200101906001600160f81b031916908160001a905350600061316d846002614a0b565b61317890600161436c565b90505b60018111156131f0576f181899199a1a9b1b9c1cb0b131b232b360811b85600f16601081106131ac576131ac6141a6565b1a60f81b8282815181106131c2576131c26141a6565b60200101906001600160f81b031916908160001a90535060049490941c936131e981614a2a565b905061317b565b508315610d8c5760405162461bcd60e51b815260206004820181905260248201527f537472696e67733a20686578206c656e67746820696e73756666696369656e74604482015260640161071e565b600881901c600090815260208390526040902054600160ff83161b16151592915050565b6001600160a01b0385166133145760005b83518110156133125760006132ad858381518110613294576132946141a6565b602002602001015161015f61232a90919063ffffffff16565b9050809150506132ff8583815181106132c8576132c86141a6565b60200260200101518584815181106132e2576132e26141a6565b6020026020010151836132f5919061436c565b61015f9190612011565b50508061330b906141d2565b9050613274565b505b6001600160a01b03841661340a5760005b8351811015613408576000848281518110613342576133426141a6565b602002602001015190506000848381518110613360576133606141a6565b6020026020010151905060006133818361015f61200590919063ffffffff16565b9050818110156133e45760405162461bcd60e51b815260206004820152602860248201527f455243313135353a206275726e20616d6f756e74206578636565647320746f74604482015267616c537570706c7960c01b606482015260840161071e565b6133f361015f84848403612011565b5050505080613401906141d2565b9050613325565b505b60005b8351811015613486576134538685838151811061342c5761342c6141a6565b6020026020010151858481518110613446576134466141a6565b6020026020010151613606565b61347685858381518110613469576134696141a6565b6020026020010151613658565b61347f816141d2565b905061340d565b506134908561369a565b611cce8461369a565b60008181526001830160205260408120546134e05750815460018181018455600084815260208082209093018490558454848252828601909352604090209190915561074c565b50600061074c565b600081815260018301602052604081205480156135d157600061350c600183614668565b855490915060009061352090600190614668565b9050818114613585576000866000018281548110613540576135406141a6565b9060005260206000200154905080876000018481548110613563576135636141a6565b6000918252602080832090910192909255918252600188019052604090208390555b855486908061359657613596614a41565b60019003818190600052602060002001600090559055856001016000868152602001908152602001600020600090556001935050505061074c565b600091505061074c565b6000610d8c83836136bb565b6000610d8c8383613499565b8051610a589060679060208401906136df565b6001600160a01b03831661361957505050565b600061362584846106b7565b90506136318282614668565b611f14576001600160a01b03841660009081526101646020526040902061096890846136d3565b6001600160a01b03821661366a575050565b6001600160a01b03821660009081526101646020526040902061368d90826135e7565b506109d961016283612b3c565b60606136a582610c3c565b508051909150610a58576109d961016283612bb8565b60008181526001830160205260408120541515610d8c565b6000610d8c83836134e8565b8280546136eb9061416b565b90600052602060002090601f01602090048101928261370d5760008555613753565b82601f1061372657805160ff1916838001178555613753565b82800160010185558215613753579182015b82811115613753578251825591602001919060010190613738565b5061375f929150613763565b5090565b5b8082111561375f5760008155600101613764565b80356001600160a01b038116811461378f57600080fd5b919050565b600080604083850312156137a757600080fd5b6137b083613778565b946020939093013593505050565b6001600160e01b031981168114610a7c57600080fd5b6000602082840312156137e657600080fd5b8135610d8c816137be565b60005b8381101561380c5781810151838201526020016137f4565b83811115611f145750506000910152565b600081518084526138358160208601602086016137f1565b601f01601f19169290920160200192915050565b602081526000610d8c602083018461381d565b60006020828403121561386e57600080fd5b5035919050565b634e487b7160e01b600052604160045260246000fd5b601f8201601f191681016001600160401b03811182821017156138b0576138b0613875565b6040525050565b60006001600160401b038211156138d0576138d0613875565b5060051b60200190565b600082601f8301126138eb57600080fd5b813560206138f8826138b7565b604051613905828261388b565b83815260059390931b850182019282810191508684111561392557600080fd5b8286015b848110156139405780358352918301918301613929565b509695505050505050565b600082601f83011261395c57600080fd5b81356001600160401b0381111561397557613975613875565b60405161398c601f8301601f19166020018261388b565b8181528460208386010111156139a157600080fd5b816020850160208301376000918101602001919091529392505050565b600080600080608085870312156139d457600080fd5b6139dd85613778565b935060208501356001600160401b03808211156139f957600080fd5b613a05888389016138da565b94506040870135915080821115613a1b57600080fd5b613a27888389016138da565b93506060870135915080821115613a3d57600080fd5b50613a4a8782880161394b565b91505092959194509250565b600080600080600060a08688031215613a6e57600080fd5b613a7786613778565b9450613a8560208701613778565b935060408601356001600160401b0380821115613aa157600080fd5b613aad89838a016138da565b94506060880135915080821115613ac357600080fd5b613acf89838a016138da565b93506080880135915080821115613ae557600080fd5b50613af28882890161394b565b9150509295509295909350565b60008060408385031215613b1257600080fd5b82359150613b2260208401613778565b90509250929050565b600082601f830112613b3c57600080fd5b81356020613b49826138b7565b604051613b56828261388b565b83815260059390931b8501820192828101915086841115613b7657600080fd5b8286015b8481101561394057613b8b81613778565b8352918301918301613b7a565b60008060408385031215613bab57600080fd5b82356001600160401b0380821115613bc257600080fd5b613bce86838701613b2b565b93506020850135915080821115613be457600080fd5b50613bf1858286016138da565b9150509250929050565b600081518084526020808501945080840160005b83811015613c2b57815187529582019590820190600101613c0f565b509495945050505050565b602081526000610d8c6020830184613bfb565b600080600060608486031215613c5e57600080fd5b833592506020840135915060408401356001600160401b03811115613c8257600080fd5b613c8e8682870161394b565b9150509250925092565b600060208284031215613caa57600080fd5b610d8c82613778565b604081526000613cc66040830185613bfb565b8281036020840152613cd88185613bfb565b95945050505050565b600080600060608486031215613cf657600080fd5b613cff84613778565b925060208401356001600160401b0380821115613d1b57600080fd5b613d27878388016138da565b93506040860135915080821115613d3d57600080fd5b50613c8e868287016138da565b600060208284031215613d5c57600080fd5b81356001600160401b03811115613d7257600080fd5b6113ca848285016138da565b600081518084526020808501808196508360051b8101915082860160005b85811015613dc6578284038952613db484835161381d565b98850198935090840190600101613d9c565b5091979650505050505050565b602081526000610d8c6020830184613d7e565b60008060008060808587031215613dfc57600080fd5b613e0585613778565b9350602085013592506040850135915060608501356001600160401b03811115613e2e57600080fd5b613a4a8782880161394b565b60008060408385031215613e4d57600080fd5b50508035926020909101359150565b600080600060608486031215613e7157600080fd5b8335925060208401356001600160401b0380821115613d1b57600080fd5b600080600060608486031215613ea457600080fd5b8335925060208401356001600160401b0380821115613ec257600080fd5b613d2787838801613b2b565b60008060408385031215613ee157600080fd5b8235915060208301356001600160401b03811115613efe57600080fd5b613bf1858286016138da565b60008060408385031215613f1d57600080fd5b613f2683613778565b915060208301358015158114613f3b57600080fd5b809150509250929050565b6020808252825182820181905260009190848201906040850190845b81811015613f875783516001600160a01b031683529284019291840191600101613f62565b50909695505050505050565b600080600060608486031215613fa857600080fd5b833592506020808501356001600160401b0380821115613fc757600080fd5b613fd3888389016138da565b94506040870135915080821115613fe957600080fd5b818701915087601f830112613ffd57600080fd5b8135614008816138b7565b604051614015828261388b565b82815260059290921b840185019185810191508a83111561403557600080fd5b8585015b8381101561406d578035858111156140515760008081fd5b61405f8d89838a010161394b565b845250918601918601614039565b508096505050505050509250925092565b6000806040838503121561409157600080fd5b61409a83613778565b9150613b2260208401613778565b600080600080600060a086880312156140c057600080fd5b6140c986613778565b94506140d760208701613778565b9350604086013592506060860135915060808601356001600160401b0381111561410057600080fd5b613af28882890161394b565b60008060006060848603121561412157600080fd5b61412a84613778565b95602085013595506040909401359392505050565b60008060006060848603121561415457600080fd5b505081359360208301359350604090920135919050565b600181811c9082168061417f57607f821691505b602082108114156141a057634e487b7160e01b600052602260045260246000fd5b50919050565b634e487b7160e01b600052603260045260246000fd5b634e487b7160e01b600052601160045260246000fd5b60006000198214156141e6576141e66141bc565b5060010190565b6020808252602f908201527f455243313135353a2063616c6c6572206973206e6f7420746f6b656e206f776e60408201526e195c881b9bdc88185c1c1c9bdd9959608a1b606082015260800190565b8281526040602082015260006113ca604083018461381d565b6040815260006142686040830185613bfb565b8281036020840152613cd88185613d7e565b6000815161428c8185602086016137f1565b9290920192915050565b607b60f81b8152600083516142b28160018501602088016137f1565b8351908301906142c98160018401602088016137f1565b607d60f81b60019290910191820152600201949350505050565b60208082526021908201527f455243313135353a206d696e7420746f20746865207a65726f206164647265736040820152607360f81b606082015260800190565b60208082526028908201527f455243313135353a2069647320616e6420616d6f756e7473206c656e677468206040820152670dad2e6dac2e8c6d60c31b606082015260800190565b6000821982111561437f5761437f6141bc565b500190565b60208082526025908201527f455243313135353a207472616e7366657220746f20746865207a65726f206164604082015264647265737360d81b606082015260800190565b6020808252602a908201527f455243313135353a20696e73756666696369656e742062616c616e636520666f60408201526939103a3930b739b332b960b11b606082015260800190565b60208082526023908201527f455243313135353a206275726e2066726f6d20746865207a65726f206164647260408201526265737360e81b606082015260800190565b60208082526024908201527f455243313135353a206275726e20616d6f756e7420657863656564732062616c604082015263616e636560e01b606082015260800190565b6020808252602b908201527f496e697469616c697a61626c653a20636f6e7472616374206973206e6f74206960408201526a6e697469616c697a696e6760a81b606082015260800190565b600080845481600182811c91508083168061450157607f831692505b602080841082141561452157634e487b7160e01b86526022600452602486fd5b818015614535576001811461454657614573565b60ff19861689528489019650614573565b60008b81526020902060005b8681101561456b5781548b820152908501908301614552565b505084890196505b505050505050613cd8818561427a565b67113730b6b2911d1160c11b815284516000906145a7816008850160208a016137f1565b6201116160ed1b60089184019182018190526a113a37b5b2b724b2111d1160a91b600b83015286516145e0816016850160208b016137f1565b601692019182018190526f113232b9b1b934b83a34b7b7111d101160811b60198301528551614616816029850160208a016137f1565b6029920191820152691134b6b0b3b2911d101160b11b602c82015283516146448160368401602088016137f1565b61465c6036828401016201116160ed1b815260030190565b98975050505050505050565b60008282101561467a5761467a6141bc565b500390565b703d913234b9b83630bcafba3cb832911d1160791b815281516000906146ac8160118501602087016137f1565b61088b60f21b6011939091019283015250601301919050565b600086516146d7818460208b016137f1565b6e3d913a3930b4ba2fba3cb832911d1160891b908301908152865161470381600f840160208b016137f1565b61088b60f21b600f92909101918201528551614726816011840160208a016137f1565b67113b30b63ab2911d60c11b60119290910191820152845161474f8160198401602089016137f1565b607d60f81b60199290910191820152835161477181601a8401602088016137f1565b01601a01979650505050505050565b6d2261747472696275746573223a5b60901b815281516000906147aa81600e8501602087016137f1565b605d60f81b600e939091019283015250600f01919050565b7f416363657373436f6e74726f6c3a206163636f756e74200000000000000000008152600083516147fa8160178501602088016137f1565b7001034b99036b4b9b9b4b733903937b6329607d1b601791840191820152835161482b8160288401602088016137f1565b01602801949350505050565b6001600160a01b0386811682528516602082015260a06040820181905260009061486390830186613bfb565b82810360608401526148758186613bfb565b9050828103608084015261465c818561381d565b60006020828403121561489b57600080fd5b8151610d8c816137be565b600060033d11156148bf5760046000803e5060005160e01c5b90565b600060443d10156148d05790565b6040516003193d81016004833e81513d6001600160401b0381602484011181841117156148ff57505050505090565b82850191508151818111156149175750505050505090565b843d87010160208285010111156149315750505050505090565b6149406020828601018761388b565b509095945050505050565b60208082526028908201527f455243313135353a204552433131353552656365697665722072656a656374656040820152676420746f6b656e7360c01b606082015260800190565b6001600160a01b03868116825285166020820152604081018490526060810183905260a0608082018190526000906109399083018461381d565b634e487b7160e01b600052601260045260246000fd5b6000826149f2576149f26149cd565b500490565b600082614a0657614a066149cd565b500690565b6000816000190483118215151615614a2557614a256141bc565b500290565b600081614a3957614a396141bc565b506000190190565b634e487b7160e01b600052603160045260246000fdfe68747470733a2f2f696d616765732e636f736d6963756e6976657273652e696f2f636f736d69632d6261646765732f9f2df0fed2c77648de5860a4cc508cd0818c85b8b8a1ab4ceeef8d981c8956a6f01ee2eb8c5679535f9dfef3543570e280865ec756856c5772fe3e6718c5c074a49807205ce4d355092ef5a8a18f56e8913cf4a201fbe287825b095693c21775364d3d7565c7a8300c96fd53e065d19b65848d7b23b3191adcd55621c744223ca26469706673582212206ddc90faf3fe98544ec8b9619e6556975baa24babe1291362f8e1d35b2a0b8f664736f6c63430008090033",
  "linkReferences": {},
  "deployedLinkReferences": {}
}