{
  "_format": "hh-sol-artifact-1",
  "contractName": "CosmicBadges",
  "sourceName": "contracts/upgradeable/ERC1155/CosmicBadges.sol",
  "abi": [
    {
      "inputs": [],
      "stateMutability": "nonpayable",
      "type": "constructor"
    },
    {
      "anonymous": false,
      "inputs": [
        {
          "indexed": true,
          "internalType": "address",
          "name": "account",
          "type": "address"
        },
        {
          "indexed": true,
          "internalType": "address",
          "name": "operator",
          "type": "address"
        },
        {
          "indexed": false,
          "internalType": "bool",
          "name": "approved",
          "type": "bool"
        }
      ],
      "name": "ApprovalForAll",
      "type": "event"
    },
    {
      "anonymous": false,
      "inputs": [
        {
          "indexed": false,
          "internalType": "uint8",
          "name": "version",
          "type": "uint8"
        }
      ],
      "name": "Initialized",
      "type": "event"
    },
    {
      "anonymous": false,
      "inputs": [
        {
          "indexed": true,
          "internalType": "uint256",
          "name": "tokenId",
          "type": "uint256"
        },
        {
          "indexed": false,
          "internalType": "uint256",
          "name": "attributeId",
          "type": "uint256"
        },
        {
          "indexed": false,
          "internalType": "string",
          "name": "name",
          "type": "string"
        }
      ],
      "name": "NameUpdated",
      "type": "event"
    },
    {
      "anonymous": false,
      "inputs": [
        {
          "indexed": true,
          "internalType": "uint256",
          "name": "tokenId",
          "type": "uint256"
        },
        {
          "indexed": false,
          "internalType": "uint256[]",
          "name": "attributeIds",
          "type": "uint256[]"
        },
        {
          "indexed": false,
          "internalType": "string[]",
          "name": "names",
          "type": "string[]"
        }
      ],
      "name": "NamesUpdated",
      "type": "event"
    },
    {
      "anonymous": false,
      "inputs": [
        {
          "indexed": false,
          "internalType": "address",
          "name": "account",
          "type": "address"
        }
      ],
      "name": "Paused",
      "type": "event"
    },
    {
      "anonymous": false,
      "inputs": [
        {
          "indexed": true,
          "internalType": "bytes32",
          "name": "role",
          "type": "bytes32"
        },
        {
          "indexed": true,
          "internalType": "bytes32",
          "name": "previousAdminRole",
          "type": "bytes32"
        },
        {
          "indexed": true,
          "internalType": "bytes32",
          "name": "newAdminRole",
          "type": "bytes32"
        }
      ],
      "name": "RoleAdminChanged",
      "type": "event"
    },
    {
      "anonymous": false,
      "inputs": [
        {
          "indexed": true,
          "internalType": "bytes32",
          "name": "role",
          "type": "bytes32"
        },
        {
          "indexed": true,
          "internalType": "address",
          "name": "account",
          "type": "address"
        },
        {
          "indexed": true,
          "internalType": "address",
          "name": "sender",
          "type": "address"
        }
      ],
      "name": "RoleGranted",
      "type": "event"
    },
    {
      "anonymous": false,
      "inputs": [
        {
          "indexed": true,
          "internalType": "bytes32",
          "name": "role",
          "type": "bytes32"
        },
        {
          "indexed": true,
          "internalType": "address",
          "name": "account",
          "type": "address"
        },
        {
          "indexed": true,
          "internalType": "address",
          "name": "sender",
          "type": "address"
        }
      ],
      "name": "RoleRevoked",
      "type": "event"
    },
    {
      "anonymous": false,
      "inputs": [
        {
          "indexed": true,
          "internalType": "address",
          "name": "operator",
          "type": "address"
        },
        {
          "indexed": true,
          "internalType": "address",
          "name": "from",
          "type": "address"
        },
        {
          "indexed": true,
          "internalType": "address",
          "name": "to",
          "type": "address"
        },
        {
          "indexed": false,
          "internalType": "uint256[]",
          "name": "ids",
          "type": "uint256[]"
        },
        {
          "indexed": false,
          "internalType": "uint256[]",
          "name": "values",
          "type": "uint256[]"
        }
      ],
      "name": "TransferBatch",
      "type": "event"
    },
    {
      "anonymous": false,
      "inputs": [
        {
          "indexed": true,
          "internalType": "address",
          "name": "operator",
          "type": "address"
        },
        {
          "indexed": true,
          "internalType": "address",
          "name": "from",
          "type": "address"
        },
        {
          "indexed": true,
          "internalType": "address",
          "name": "to",
          "type": "address"
        },
        {
          "indexed": false,
          "internalType": "uint256",
          "name": "id",
          "type": "uint256"
        },
        {
          "indexed": false,
          "internalType": "uint256",
          "name": "value",
          "type": "uint256"
        }
      ],
      "name": "TransferSingle",
      "type": "event"
    },
    {
      "anonymous": false,
      "inputs": [
        {
          "indexed": false,
          "internalType": "string",
          "name": "value",
          "type": "string"
        },
        {
          "indexed": true,
          "internalType": "uint256",
          "name": "id",
          "type": "uint256"
        }
      ],
      "name": "URI",
      "type": "event"
    },
    {
      "anonymous": false,
      "inputs": [
        {
          "indexed": false,
          "internalType": "address",
          "name": "account",
          "type": "address"
        }
      ],
      "name": "Unpaused",
      "type": "event"
    },
    {
      "anonymous": false,
      "inputs": [
        {
          "indexed": true,
          "internalType": "uint256",
          "name": "tokenId",
          "type": "uint256"
        },
        {
          "indexed": false,
          "internalType": "uint256",
          "name": "attributeId",
          "type": "uint256"
        },
        {
          "indexed": false,
          "internalType": "uint256",
          "name": "value",
          "type": "uint256"
        }
      ],
      "name": "ValueUpdated",
      "type": "event"
    },
    {
      "anonymous": false,
      "inputs": [
        {
          "indexed": true,
          "internalType": "uint256",
          "name": "tokenId",
          "type": "uint256"
        },
        {
          "indexed": false,
          "internalType": "uint256[]",
          "name": "attributeIds",
          "type": "uint256[]"
        },
        {
          "indexed": false,
          "internalType": "uint256[]",
          "name": "values",
          "type": "uint256[]"
        }
      ],
      "name": "ValuesUpdated",
      "type": "event"
    },
    {
      "inputs": [],
      "name": "ADMIN_ROLE",
      "outputs": [
        {
          "internalType": "bytes32",
          "name": "",
          "type": "bytes32"
        }
      ],
      "stateMutability": "view",
      "type": "function"
    },
    {
      "inputs": [],
      "name": "CONTRACT_ROLE",
      "outputs": [
        {
          "internalType": "bytes32",
          "name": "",
          "type": "bytes32"
        }
      ],
      "stateMutability": "view",
      "type": "function"
    },
    {
      "inputs": [],
      "name": "DEFAULT_ADMIN_ROLE",
      "outputs": [
        {
          "internalType": "bytes32",
          "name": "",
          "type": "bytes32"
        }
      ],
      "stateMutability": "view",
      "type": "function"
    },
    {
      "inputs": [],
      "name": "MINTER_ROLE",
      "outputs": [
        {
          "internalType": "bytes32",
          "name": "",
          "type": "bytes32"
        }
      ],
      "stateMutability": "view",
      "type": "function"
    },
    {
      "inputs": [],
      "name": "SOULBOUND_WHITELIST_ROLE",
      "outputs": [
        {
          "internalType": "bytes32",
          "name": "",
          "type": "bytes32"
        }
      ],
      "stateMutability": "view",
      "type": "function"
    },
    {
      "inputs": [],
      "name": "activeIds",
      "outputs": [
        {
          "internalType": "uint256[]",
          "name": "",
          "type": "uint256[]"
        }
      ],
      "stateMutability": "view",
      "type": "function"
    },
    {
      "inputs": [
        {
          "internalType": "address",
          "name": "account",
          "type": "address"
        },
        {
          "internalType": "uint256",
          "name": "id",
          "type": "uint256"
        }
      ],
      "name": "balanceOf",
      "outputs": [
        {
          "internalType": "uint256",
          "name": "",
          "type": "uint256"
        }
      ],
      "stateMutability": "view",
      "type": "function"
    },
    {
      "inputs": [],
      "name": "balanceOfAll",
      "outputs": [
        {
          "internalType": "address[]",
          "name": "owners",
          "type": "address[]"
        },
        {
          "internalType": "uint256[][]",
          "name": "tokenIds",
          "type": "uint256[][]"
        },
        {
          "internalType": "uint256[][]",
          "name": "balances",
          "type": "uint256[][]"
        }
      ],
      "stateMutability": "view",
      "type": "function"
    },
    {
      "inputs": [
        {
          "internalType": "address[]",
          "name": "accounts",
          "type": "address[]"
        },
        {
          "internalType": "uint256[]",
          "name": "ids",
          "type": "uint256[]"
        }
      ],
      "name": "balanceOfBatch",
      "outputs": [
        {
          "internalType": "uint256[]",
          "name": "",
          "type": "uint256[]"
        }
      ],
      "stateMutability": "view",
      "type": "function"
    },
    {
      "inputs": [
        {
          "internalType": "uint256",
          "name": "tokenId",
          "type": "uint256"
        },
        {
          "internalType": "uint256[]",
          "name": "attributeIds",
          "type": "uint256[]"
        }
      ],
      "name": "batchGetAttribute",
      "outputs": [
        {
          "internalType": "uint256[]",
          "name": "",
          "type": "uint256[]"
        }
      ],
      "stateMutability": "view",
      "type": "function"
    },
    {
      "inputs": [
        {
          "internalType": "uint256",
          "name": "tokenId",
          "type": "uint256"
        },
        {
          "internalType": "uint256[]",
          "name": "attributeIds",
          "type": "uint256[]"
        },
        {
          "internalType": "uint256[]",
          "name": "values",
          "type": "uint256[]"
        }
      ],
      "name": "batchSetAttribute",
      "outputs": [],
      "stateMutability": "nonpayable",
      "type": "function"
    },
    {
      "inputs": [
        {
          "internalType": "uint256",
          "name": "tokenId",
          "type": "uint256"
        },
        {
          "internalType": "uint256[]",
          "name": "attributeIds",
          "type": "uint256[]"
        },
        {
          "internalType": "string[]",
          "name": "names",
          "type": "string[]"
        }
      ],
      "name": "batchSetAttributeName",
      "outputs": [],
      "stateMutability": "nonpayable",
      "type": "function"
    },
    {
      "inputs": [
        {
          "internalType": "uint256[]",
          "name": "tokenIds",
          "type": "uint256[]"
        },
        {
          "internalType": "uint256[]",
          "name": "attributeIds",
          "type": "uint256[]"
        },
        {
          "internalType": "string[]",
          "name": "names",
          "type": "string[]"
        }
      ],
      "name": "batchSetAttributeNames",
      "outputs": [],
      "stateMutability": "nonpayable",
      "type": "function"
    },
    {
      "inputs": [
        {
          "internalType": "uint256[]",
          "name": "tokenIds",
          "type": "uint256[]"
        }
      ],
      "name": "batchTokenURI",
      "outputs": [
        {
          "internalType": "string[]",
          "name": "",
          "type": "string[]"
        }
      ],
      "stateMutability": "view",
      "type": "function"
    },
    {
      "inputs": [
        {
          "internalType": "uint256[]",
          "name": "tokenIds",
          "type": "uint256[]"
        }
      ],
      "name": "batchUri",
      "outputs": [
        {
          "internalType": "string[]",
          "name": "",
          "type": "string[]"
        }
      ],
      "stateMutability": "view",
      "type": "function"
    },
    {
      "inputs": [
        {
          "internalType": "address",
          "name": "account",
          "type": "address"
        },
        {
          "internalType": "uint256",
          "name": "id",
          "type": "uint256"
        },
        {
          "internalType": "uint256",
          "name": "value",
          "type": "uint256"
        }
      ],
      "name": "burn",
      "outputs": [],
      "stateMutability": "nonpayable",
      "type": "function"
    },
    {
      "inputs": [
        {
          "internalType": "address",
          "name": "from",
          "type": "address"
        },
        {
          "internalType": "uint256[]",
          "name": "ids",
          "type": "uint256[]"
        },
        {
          "internalType": "uint256[]",
          "name": "amounts",
          "type": "uint256[]"
        }
      ],
      "name": "burnBatch",
      "outputs": [],
      "stateMutability": "nonpayable",
      "type": "function"
    },
    {
      "inputs": [
        {
          "internalType": "uint256",
          "name": "id",
          "type": "uint256"
        }
      ],
      "name": "exists",
      "outputs": [
        {
          "internalType": "bool",
          "name": "",
          "type": "bool"
        }
      ],
      "stateMutability": "view",
      "type": "function"
    },
    {
      "inputs": [
        {
          "internalType": "uint256",
          "name": "tokenId",
          "type": "uint256"
        },
        {
          "internalType": "uint256",
          "name": "attributeId",
          "type": "uint256"
        }
      ],
      "name": "getAttribute",
      "outputs": [
        {
          "internalType": "uint256",
          "name": "",
          "type": "uint256"
        }
      ],
      "stateMutability": "view",
      "type": "function"
    },
    {
      "inputs": [],
      "name": "getBlacklisted",
      "outputs": [
        {
          "internalType": "address[]",
          "name": "",
          "type": "address[]"
        }
      ],
      "stateMutability": "view",
      "type": "function"
    },
    {
      "inputs": [
        {
          "internalType": "bytes32",
          "name": "role",
          "type": "bytes32"
        }
      ],
      "name": "getRoleAdmin",
      "outputs": [
        {
          "internalType": "bytes32",
          "name": "",
          "type": "bytes32"
        }
      ],
      "stateMutability": "view",
      "type": "function"
    },
    {
      "inputs": [
        {
          "internalType": "bytes32",
          "name": "role",
          "type": "bytes32"
        },
        {
          "internalType": "uint256",
          "name": "index",
          "type": "uint256"
        }
      ],
      "name": "getRoleMember",
      "outputs": [
        {
          "internalType": "address",
          "name": "",
          "type": "address"
        }
      ],
      "stateMutability": "view",
      "type": "function"
    },
    {
      "inputs": [
        {
          "internalType": "bytes32",
          "name": "role",
          "type": "bytes32"
        }
      ],
      "name": "getRoleMemberCount",
      "outputs": [
        {
          "internalType": "uint256",
          "name": "",
          "type": "uint256"
        }
      ],
      "stateMutability": "view",
      "type": "function"
    },
    {
      "inputs": [
        {
          "internalType": "bytes32",
          "name": "role",
          "type": "bytes32"
        },
        {
          "internalType": "address",
          "name": "account",
          "type": "address"
        }
      ],
      "name": "grantRole",
      "outputs": [],
      "stateMutability": "nonpayable",
      "type": "function"
    },
    {
      "inputs": [
        {
          "internalType": "bytes32",
          "name": "role",
          "type": "bytes32"
        },
        {
          "internalType": "address",
          "name": "account",
          "type": "address"
        }
      ],
      "name": "hasRole",
      "outputs": [
        {
          "internalType": "bool",
          "name": "",
          "type": "bool"
        }
      ],
      "stateMutability": "view",
      "type": "function"
    },
    {
      "inputs": [],
      "name": "imageBaseURI",
      "outputs": [
        {
          "internalType": "string",
          "name": "",
          "type": "string"
        }
      ],
      "stateMutability": "view",
      "type": "function"
    },
    {
      "inputs": [],
      "name": "initialize",
      "outputs": [],
      "stateMutability": "nonpayable",
      "type": "function"
    },
    {
      "inputs": [
        {
          "internalType": "address",
          "name": "account",
          "type": "address"
        },
        {
          "internalType": "address",
          "name": "operator",
          "type": "address"
        }
      ],
      "name": "isApprovedForAll",
      "outputs": [
        {
          "internalType": "bool",
          "name": "",
          "type": "bool"
        }
      ],
      "stateMutability": "view",
      "type": "function"
    },
    {
      "inputs": [
        {
          "internalType": "address",
          "name": "user",
          "type": "address"
        }
      ],
      "name": "isBlacklisted",
      "outputs": [
        {
          "internalType": "bool",
          "name": "",
          "type": "bool"
        }
      ],
      "stateMutability": "view",
      "type": "function"
    },
    {
      "inputs": [
        {
          "internalType": "uint256",
          "name": "tokenId",
          "type": "uint256"
        }
      ],
      "name": "isSoulbound",
      "outputs": [
        {
          "internalType": "bool",
          "name": "",
          "type": "bool"
        }
      ],
      "stateMutability": "view",
      "type": "function"
    },
    {
      "inputs": [
        {
          "internalType": "address",
          "name": "account",
          "type": "address"
        },
        {
          "internalType": "uint256",
          "name": "id",
          "type": "uint256"
        },
        {
          "internalType": "uint256",
          "name": "amount",
          "type": "uint256"
        },
        {
          "internalType": "bytes",
          "name": "data",
          "type": "bytes"
        }
      ],
      "name": "mint",
      "outputs": [],
      "stateMutability": "nonpayable",
      "type": "function"
    },
    {
      "inputs": [
        {
          "internalType": "address",
          "name": "to",
          "type": "address"
        },
        {
          "internalType": "uint256[]",
          "name": "ids",
          "type": "uint256[]"
        },
        {
          "internalType": "uint256[]",
          "name": "amounts",
          "type": "uint256[]"
        },
        {
          "internalType": "bytes",
          "name": "data",
          "type": "bytes"
        }
      ],
      "name": "mintBatch",
      "outputs": [],
      "stateMutability": "nonpayable",
      "type": "function"
    },
    {
      "inputs": [
        {
          "internalType": "uint256",
          "name": "id",
          "type": "uint256"
        },
        {
          "internalType": "address[]",
          "name": "to",
          "type": "address[]"
        },
        {
          "internalType": "uint256[]",
          "name": "amounts",
          "type": "uint256[]"
        }
      ],
      "name": "mintBatchOf",
      "outputs": [],
      "stateMutability": "nonpayable",
      "type": "function"
    },
    {
      "inputs": [],
      "name": "name",
      "outputs": [
        {
          "internalType": "string",
          "name": "",
          "type": "string"
        }
      ],
      "stateMutability": "view",
      "type": "function"
    },
    {
      "inputs": [],
      "name": "pause",
      "outputs": [],
      "stateMutability": "nonpayable",
      "type": "function"
    },
    {
      "inputs": [],
      "name": "paused",
      "outputs": [
        {
          "internalType": "bool",
          "name": "",
          "type": "bool"
        }
      ],
      "stateMutability": "view",
      "type": "function"
    },
    {
      "inputs": [
        {
          "internalType": "bytes32",
          "name": "role",
          "type": "bytes32"
        },
        {
          "internalType": "address",
          "name": "account",
          "type": "address"
        }
      ],
      "name": "renounceRole",
      "outputs": [],
      "stateMutability": "nonpayable",
      "type": "function"
    },
    {
      "inputs": [
        {
          "internalType": "bytes32",
          "name": "role",
          "type": "bytes32"
        },
        {
          "internalType": "address",
          "name": "account",
          "type": "address"
        }
      ],
      "name": "revokeRole",
      "outputs": [],
      "stateMutability": "nonpayable",
      "type": "function"
    },
    {
      "inputs": [
        {
          "internalType": "address",
          "name": "from",
          "type": "address"
        },
        {
          "internalType": "address",
          "name": "to",
          "type": "address"
        },
        {
          "internalType": "uint256[]",
          "name": "ids",
          "type": "uint256[]"
        },
        {
          "internalType": "uint256[]",
          "name": "amounts",
          "type": "uint256[]"
        },
        {
          "internalType": "bytes",
          "name": "data",
          "type": "bytes"
        }
      ],
      "name": "safeBatchTransferFrom",
      "outputs": [],
      "stateMutability": "nonpayable",
      "type": "function"
    },
    {
      "inputs": [
        {
          "internalType": "address",
          "name": "from",
          "type": "address"
        },
        {
          "internalType": "address",
          "name": "to",
          "type": "address"
        },
        {
          "internalType": "uint256",
          "name": "id",
          "type": "uint256"
        },
        {
          "internalType": "uint256",
          "name": "amount",
          "type": "uint256"
        },
        {
          "internalType": "bytes",
          "name": "data",
          "type": "bytes"
        }
      ],
      "name": "safeTransferFrom",
      "outputs": [],
      "stateMutability": "nonpayable",
      "type": "function"
    },
    {
      "inputs": [
        {
          "internalType": "address",
          "name": "operator",
          "type": "address"
        },
        {
          "internalType": "bool",
          "name": "approved",
          "type": "bool"
        }
      ],
      "name": "setApprovalForAll",
      "outputs": [],
      "stateMutability": "nonpayable",
      "type": "function"
    },
    {
      "inputs": [
        {
          "internalType": "uint256",
          "name": "tokenId",
          "type": "uint256"
        },
        {
          "internalType": "uint256",
          "name": "attributeId",
          "type": "uint256"
        },
        {
          "internalType": "uint256",
          "name": "value",
          "type": "uint256"
        }
      ],
      "name": "setAttribute",
      "outputs": [],
      "stateMutability": "nonpayable",
      "type": "function"
    },
    {
      "inputs": [
        {
          "internalType": "uint256",
          "name": "tokenId",
          "type": "uint256"
        },
        {
          "internalType": "uint256",
          "name": "attributeId",
          "type": "uint256"
        },
        {
          "internalType": "string",
          "name": "name",
          "type": "string"
        }
      ],
      "name": "setAttributeName",
      "outputs": [],
      "stateMutability": "nonpayable",
      "type": "function"
    },
    {
      "inputs": [
        {
          "internalType": "uint256",
          "name": "tokenId",
          "type": "uint256"
        }
      ],
      "name": "setSoulbound",
      "outputs": [],
      "stateMutability": "nonpayable",
      "type": "function"
    },
    {
      "inputs": [
        {
          "internalType": "bytes4",
          "name": "interfaceId",
          "type": "bytes4"
        }
      ],
      "name": "supportsInterface",
      "outputs": [
        {
          "internalType": "bool",
          "name": "",
          "type": "bool"
        }
      ],
      "stateMutability": "view",
      "type": "function"
    },
    {
      "inputs": [],
      "name": "symbol",
      "outputs": [
        {
          "internalType": "string",
          "name": "",
          "type": "string"
        }
      ],
      "stateMutability": "view",
      "type": "function"
    },
    {
      "inputs": [
        {
          "internalType": "address",
          "name": "owner",
          "type": "address"
        }
      ],
      "name": "tokensOf",
      "outputs": [
        {
          "internalType": "uint256[]",
          "name": "tokenIds",
          "type": "uint256[]"
        },
        {
          "internalType": "uint256[]",
          "name": "balances",
          "type": "uint256[]"
        }
      ],
      "stateMutability": "view",
      "type": "function"
    },
    {
      "inputs": [
        {
          "internalType": "uint256",
          "name": "id",
          "type": "uint256"
        }
      ],
      "name": "totalSupply",
      "outputs": [
        {
          "internalType": "uint256",
          "name": "",
          "type": "uint256"
        }
      ],
      "stateMutability": "view",
      "type": "function"
    },
    {
      "inputs": [],
      "name": "unpause",
      "outputs": [],
      "stateMutability": "nonpayable",
      "type": "function"
    },
    {
      "inputs": [
        {
          "internalType": "uint256",
          "name": "tokenId",
          "type": "uint256"
        }
      ],
      "name": "unsetSoulbound",
      "outputs": [],
      "stateMutability": "nonpayable",
      "type": "function"
    },
    {
      "inputs": [
        {
          "internalType": "uint256",
          "name": "tokenId",
          "type": "uint256"
        }
      ],
      "name": "uri",
      "outputs": [
        {
          "internalType": "string",
          "name": "",
          "type": "string"
        }
      ],
      "stateMutability": "view",
      "type": "function"
    }
  ],
  "bytecode": "0x60806040523480156200001157600080fd5b506200001c62000022565b620000e4565b600054610100900460ff16156200008f5760405162461bcd60e51b815260206004820152602760248201527f496e697469616c697a61626c653a20636f6e747261637420697320696e697469604482015266616c697a696e6760c81b606482015260840160405180910390fd5b60005460ff9081161015620000e2576000805460ff191660ff9081179091556040519081527f7f26b83ff96e1f2b6a682f133852f6798a09c465da95921460cefb38474024989060200160405180910390a15b565b61522480620000f46000396000f3fe608060405234801561001057600080fd5b50600436106102f05760003560e01c80638129fc1c1161019d578063b198ce46116100e9578063d5391393116100a2578063f242432a1161007c578063f242432a146106cb578063f5298aca146106de578063fd5eea4e146106f1578063fe575a871461070457600080fd5b8063d539139314610667578063d547741f1461067c578063e985e9c51461068f57600080fd5b8063b198ce46146105fe578063bd85b03914610606578063c385ce2514610619578063ca15c8731461062c578063ce3675ad1461063f578063d179191a1461065457600080fd5b806395d89b4111610156578063a17d79ec11610130578063a17d79ec146105bb578063a217fddf146105d0578063a22cb465146105d8578063b0fe60d5146105eb57600080fd5b806395d89b411461058d57806396c45e2f14610595578063994a95be146105a857600080fd5b80638129fc1c146105195780638456cb591461052157806387be85d3146105295780639010d07c1461053c578063911ec4701461056757806391d148541461057a57600080fd5b80633f4ba83a1161025c5780636b20c4541161021557806375b238fc116101ef57806375b238fc146104d65780637685945e146104eb57806377645839146104fe5780637d7a6d131461050657600080fd5b80636b20c454146104905780636d94f13a146104a3578063731133e9146104c357600080fd5b80633f4ba83a146104165780634e1273f41461041e5780634f558e791461043e57806358870da1146104515780635a3f2672146104645780635c975abb1461048557600080fd5b8063208e509f116102ae578063208e509f1461039057806321e5548c146103a7578063248a9ca3146103ba5780632eb2c2d6146103dd5780632f2ff15d146103f057806336568abe1461040357600080fd5b8062fdd58e146102f557806301ffc9a71461031b57806303fe46ab1461033e57806306fdde03146103535780630e89341c146103685780631f7fdffa1461037b575b600080fd5b610308610303366004613a9c565b610717565b6040519081526020015b60405180910390f35b61032e610329366004613adc565b6107b2565b6040519015158152602001610312565b6103086000805160206151cf83398151915281565b61035b6107bd565b6040516103129190613b49565b61035b610376366004613b5c565b61084c565b61038e610389366004613cbe565b6109b4565b005b6103986109df565b60405161031293929190613e1f565b61038e6103b5366004613ea6565b610b10565b6103086103c8366004613b5c565b60009081526097602052604090206001015490565b61038e6103eb366004613f3f565b610bd6565b61038e6103fe366004613fe8565b610c1b565b61038e610411366004613fe8565b610c45565b61038e610cc3565b61043161042c366004614081565b610ce6565b60405161031291906140e4565b61032e61044c366004613b5c565b610e0f565b61038e61045f3660046140f7565b610e22565b610477610472366004614146565b610e9f565b604051610312929190614161565b60fb5460ff1661032e565b61038e61049e36600461418f565b610f64565b6104b66104b13660046141f8565b610f8d565b6040516103129190614274565b61038e6104d1366004614287565b610f98565b6103086000805160206151af83398151915281565b6103086104f93660046142db565b610fbc565b61035b610fdc565b61038e6105143660046142fd565b610fea565b61038e6110ae565b61038e6112af565b61038e610537366004614330565b6112cf565b61054f61054a3660046142db565b611352565b6040516001600160a01b039091168152602001610312565b61032e610575366004613b5c565b61136a565b61032e610588366004613fe8565b61138e565b61035b6113b9565b61038e6105a3366004613b5c565b6113c7565b6104316105b636600461436f565b611404565b61030860008051602061518f83398151915281565b610308600081565b61038e6105e63660046143ab565b6114c7565b6104b66105f93660046141f8565b6114d2565b61043161158a565b610308610614366004613b5c565b611628565b61038e610627366004613b5c565b61163f565b61030861063a366004613b5c565b61167b565b610647611692565b60405161031291906143e7565b61038e6106623660046143fa565b6116a4565b61030860008051602061516f83398151915281565b61038e61068a366004613fe8565b611772565b61032e61069d3660046144e5565b6001600160a01b03918216600090815260666020908152604080832093909416825291909152205460ff1690565b61038e6106d936600461450f565b611797565b61038e6106ec366004614573565b6117dc565b61038e6106ff3660046145a6565b61181f565b61032e610712366004614146565b61188a565b60006001600160a01b0383166107875760405162461bcd60e51b815260206004820152602a60248201527f455243313135353a2061646472657373207a65726f206973206e6f742061207660448201526930b634b21037bbb732b960b11b60648201526084015b60405180910390fd5b5060008181526065602090815260408083206001600160a01b03861684529091529020545b92915050565b60006107ac82611898565b61028b80546107cb906145d2565b80601f01602080910402602001604051908101604052809291908181526020018280546107f7906145d2565b80156108445780601f1061081957610100808354040283529160200191610844565b820191906000526020600020905b81548152906001019060200180831161082757829003601f168201915b505050505081565b6060600061085c836103e86118bd565b9050600061086c846103e96118bd565b905060608061087a8661196c565b81519194509250600091506001600160401b0381111561089c5761089c613b75565b6040519080825280602002602001820160405280156108f157816020015b6108de60405180606001604052806060815260200160608152602001606081525090565b8152602001906001900390816108ba5790505b50905060005b835181101561099457604051806060016040528084838151811061091d5761091d61460c565b602002602001015181526020016040518060200160405280600081525081526020016109618684815181106109545761095461460c565b6020026020010151611bd3565b8152508282815181106109765761097661460c565b6020026020010181905250808061098c90614638565b9150506108f7565b506109a96109a488878785611cd3565b611d1f565b979650505050505050565b60008051602061516f8339815191526109cc81611d50565b6109d885858585611d5a565b5050505050565b60608060606109ef610162611eb5565b925082516001600160401b03811115610a0a57610a0a613b75565b604051908082528060200260200182016040528015610a3d57816020015b6060815260200190600190039081610a285790505b50915082516001600160401b03811115610a5957610a59613b75565b604051908082528060200260200182016040528015610a8c57816020015b6060815260200190600190039081610a775790505b50905060005b8351811015610b0a57610abd848281518110610ab057610ab061460c565b6020026020010151610e9f565b848381518110610acf57610acf61460c565b60200260200101848481518110610ae857610ae861460c565b6020026020010182905282905250508080610b0290614638565b915050610a92565b50909192565b6000805160206151cf833981519152610b2881611d50565b60005b86811015610bcc57838382818110610b4557610b4561460c565b9050602002810190610b579190614651565b6101f860008b8b86818110610b6e57610b6e61460c565b9050602002013581526020019081526020016000206000898986818110610b9757610b9761460c565b9050602002013581526020019081526020016000209182610bb99291906146dd565b5080610bc481614638565b915050610b2b565b5050505050505050565b6001600160a01b038516331480610bf25750610bf2853361069d565b610c0e5760405162461bcd60e51b815260040161077e9061479c565b6109d88585858585611ec2565b600082815260976020526040902060010154610c3681611d50565b610c40838361206f565b505050565b6001600160a01b0381163314610cb55760405162461bcd60e51b815260206004820152602f60248201527f416363657373436f6e74726f6c3a2063616e206f6e6c792072656e6f756e636560448201526e103937b632b9903337b91039b2b63360891b606482015260840161077e565b610cbf8282612091565b5050565b6000805160206151af833981519152610cdb81611d50565b610ce36120b3565b50565b60608151835114610d4b5760405162461bcd60e51b815260206004820152602960248201527f455243313135353a206163636f756e747320616e6420696473206c656e677468604482015268040dad2e6dac2e8c6d60bb1b606482015260840161077e565b600083516001600160401b03811115610d6657610d66613b75565b604051908082528060200260200182016040528015610d8f578160200160208202803683370190505b50905060005b8451811015610e0757610dda858281518110610db357610db361460c565b6020026020010151858381518110610dcd57610dcd61460c565b6020026020010151610717565b828281518110610dec57610dec61460c565b6020908102919091010152610e0081614638565b9050610d95565b509392505050565b600080610e1b83611628565b1192915050565b6000805160206151cf833981519152610e3a81611d50565b60008481526101f8602090815260408083208684529091529020610e5e83826147eb565b50837ffdbb964a9a1d2ac903ed7ebf85795be6728c27e96237552b2805596c759e08818484604051610e919291906148aa565b60405180910390a250505050565b6001600160a01b0381166000908152610164602052604090206060908190610ec690611eb5565b915081516001600160401b03811115610ee157610ee1613b75565b604051908082528060200260200182016040528015610f0a578160200160208202803683370190505b50905060005b8251811015610f5e57610f2f84848381518110610dcd57610dcd61460c565b828281518110610f4157610f4161460c565b602090810291909101015280610f5681614638565b915050610f10565b50915091565b6000805160206151af833981519152610f7c81611d50565b610f87848484612105565b50505050565b60606107ac826114d2565b60008051602061516f833981519152610fb081611d50565b6109d8858585856122a4565b60008281526101f760205260408120610fd5908361238f565b9392505050565b61022880546107cb906145d2565b6000805160206151cf83398151915261100281611d50565b60005b835181101561107b576110688482815181106110235761102361460c565b602002602001015184838151811061103d5761103d61460c565b60200260200101516101f7600089815260200190815260200160002061239b9092919063ffffffff16565b508061107381614638565b915050611005565b50837f383bcccfd5e9b61afe7e6832ca2201fe34d7766a9bbf90fb7152082ddbcd342b8484604051610e91929190614161565b600054610100900460ff16158080156110ce5750600054600160ff909116105b806110e85750303b1580156110e8575060005460ff166001145b61114b5760405162461bcd60e51b815260206004820152602e60248201527f496e697469616c697a61626c653a20636f6e747261637420697320616c72656160448201526d191e481a5b9a5d1a585b1a5e995960921b606482015260840161077e565b6000805460ff19166001179055801561116e576000805461ff0019166101001790555b611186604051806020016040528060008152506123a8565b61118e6123d8565b611196612401565b61119e6123d8565b6111a66123d8565b6111ae6123d8565b6111b6612430565b6111d76040518060600160405280602f8152602001615100602f913961248f565b6111df6124c3565b61122c6040518060400160405280600d81526020016c436f736d69632042616467657360981b8152506040518060400160405280600681526020016542414447455360d01b81525061250a565b61123760003361206f565b61124f6000805160206151af8339815191523361206f565b61126760008051602061516f8339815191523361206f565b8015610ce3576000805461ff0019169055604051600181527f7f26b83ff96e1f2b6a682f133852f6798a09c465da95921460cefb38474024989060200160405180910390a150565b6000805160206151af8339815191526112c781611d50565b610ce361254c565b60008051602061516f8339815191526112e781611d50565b60005b83518110156109d8576113408482815181106113085761130861460c565b6020026020010151868584815181106113235761132361460c565b6020026020010151604051806020016040528060008152506122a4565b8061134a81614638565b9150506112ea565b600082815260c960205260408120610fd59083612589565b600881901c600090815261025a6020526040812054600160ff84161b1615156107ac565b60009182526097602090815260408084206001600160a01b0393909316845291905290205460ff1690565b61028c80546107cb906145d2565b6000805160206151af8339815191526113df81611d50565b600882901c600090815261025a602052604090208054600160ff85161b191690555050565b6060600082516001600160401b0381111561142157611421613b75565b60405190808252806020026020018201604052801561144a578160200160208202803683370190505b50905060005b8351811015610e075761149884828151811061146e5761146e61460c565b60200260200101516101f7600088815260200190815260200160002061238f90919063ffffffff16565b8282815181106114aa576114aa61460c565b6020908102919091010152806114bf81614638565b915050611450565b610cbf3383836125b9565b6060600082516001600160401b038111156114ef576114ef613b75565b60405190808252806020026020018201604052801561152257816020015b606081526020019060019003908161150d5790505b50905060005b8351811015611583576115538482815181106115465761154661460c565b602002602001015161084c565b8282815181106115655761156561460c565b6020026020010181905250808061157b90614638565b915050611528565b5092915050565b6060600061159961015f612699565b90506000816001600160401b038111156115b5576115b5613b75565b6040519080825280602002602001820160405280156115de578160200160208202803683370190505b50905060005b82811015611583576115f861015f826126a4565b5082828151811061160b5761160b61460c565b60209081029190910101528061162081614638565b9150506115e4565b60008061163761015f846126c2565b949350505050565b6000805160206151af83398151915261165781611d50565b600882901c600090815261025a602052604090208054600160ff85161b1790555050565b600081815260c9602052604081206107ac906126d1565b606061169f610193611eb5565b905090565b6000805160206151cf8339815191526116bc81611d50565b60005b835181101561173f578281815181106116da576116da61460c565b60200260200101516101f86000878152602001908152602001600020600086848151811061170a5761170a61460c565b60200260200101518152602001908152602001600020908161172c91906147eb565b508061173781614638565b9150506116bf565b50837f9d69ed3cc764cf4f579cfc28312dded7bb202f17cc77aa4d0eb3f8bbaecd88e38484604051610e919291906148c3565b60008281526097602052604090206001015461178d81611d50565b610c408383612091565b6001600160a01b0385163314806117b357506117b3853361069d565b6117cf5760405162461bcd60e51b815260040161077e9061479c565b6109d885858585856126db565b6001600160a01b0383163314806117f857506117f8833361069d565b6118145760405162461bcd60e51b815260040161077e9061479c565b610c40838383612817565b6000805160206151cf83398151915261183781611d50565b60008481526101f76020526040902061185190848461239b565b50604080518481526020810184905285917f5cb4c5f05283d5a84da3f9f1b0fe8b00d7ea8e1fb833812b52114799bdf1acc79101610e91565b60006107ac61019383612933565b60006001600160e01b03198216635a05180f60e01b14806107ac57506107ac82612955565b60008281526101f86020908152604080832084845290915290208054606091906118e6906145d2565b80601f0160208091040260200160405190810160405280929190818152602001828054611912906145d2565b801561195f5780601f106119345761010080835404028352916020019161195f565b820191906000526020600020905b81548152906001019060200180831161194257829003601f168201915b5050505050905092915050565b6060806060600061198f6101f76000878152602001908152602001600020612699565b90506000816001600160401b038111156119ab576119ab613b75565b6040519080825280602002602001820160405280156119d4578160200160208202803683370190505b5090506000826001600160401b038111156119f1576119f1613b75565b604051908082528060200260200182016040528015611a1a578160200160208202803683370190505b5090506000836001600160401b03811115611a3757611a37613b75565b604051908082528060200260200182016040528015611a6a57816020015b6060815260200190600190039081611a555790505b50905060005b84811015611bc45760008981526101f760205260409020611a9190826126a4565b858381518110611aa357611aa361460c565b60200260200101858481518110611abc57611abc61460c565b60200260200101828152508281525050506101f860008a81526020019081526020016000206000858381518110611af557611af561460c565b602002602001015181526020019081526020016000208054611b16906145d2565b80601f0160208091040260200160405190810160405280929190818152602001828054611b42906145d2565b8015611b8f5780601f10611b6457610100808354040283529160200191611b8f565b820191906000526020600020905b815481529060010190602001808311611b7257829003601f168201915b5050505050828281518110611ba657611ba661460c565b60200260200101819052508080611bbc90614638565b915050611a70565b50919790965090945092505050565b606081600003611bfa5750506040805180820190915260018152600360fc1b602082015290565b8160005b8115611c245780611c0e81614638565b9150611c1d9050600a836148fe565b9150611bfe565b6000816001600160401b03811115611c3e57611c3e613b75565b6040519080825280601f01601f191660200182016040528015611c68576020820181803683370190505b5090505b841561163757611c7d600183614912565b9150611c8a600a86614925565b611c95906030614939565b60f81b818381518110611caa57611caa61460c565b60200101906001600160f81b031916908160001a905350611ccc600a866148fe565b9450611c6c565b60606000611ce286868661297a565b90506000611cef846129e4565b90508181604051602001611d04929190614968565b60405160208183030381529060405292505050949350505050565b6060611d2a82612b6f565b604051602001611d3a91906149b5565b6040516020818303038152906040529050919050565b610ce38133612cc1565b6001600160a01b038416611d805760405162461bcd60e51b815260040161077e906149fa565b8151835114611da15760405162461bcd60e51b815260040161077e90614a3b565b33611db181600087878787612d25565b60005b8451811015611e4d57838181518110611dcf57611dcf61460c565b602002602001015160656000878481518110611ded57611ded61460c565b602002602001015181526020019081526020016000206000886001600160a01b03166001600160a01b031681526020019081526020016000206000828254611e359190614939565b90915550819050611e4581614638565b915050611db4565b50846001600160a01b031660006001600160a01b0316826001600160a01b03167f4a39dc06d4c0dbc64b70af90fd698a233a518aa5d07e595d983b8c0526c8f7fb8787604051611e9e929190614161565b60405180910390a46109d881600087878787612e2d565b60606000610fd583612f88565b8151835114611ee35760405162461bcd60e51b815260040161077e90614a3b565b6001600160a01b038416611f095760405162461bcd60e51b815260040161077e90614a83565b33611f18818787878787612d25565b60005b8451811015612001576000858281518110611f3857611f3861460c565b602002602001015190506000858381518110611f5657611f5661460c565b60209081029190910181015160008481526065835260408082206001600160a01b038e168352909352919091205490915081811015611fa75760405162461bcd60e51b815260040161077e90614ac8565b60008381526065602090815260408083206001600160a01b038e8116855292528083208585039055908b16825281208054849290611fe6908490614939565b9250508190555050505080611ffa90614638565b9050611f1b565b50846001600160a01b0316866001600160a01b0316826001600160a01b03167f4a39dc06d4c0dbc64b70af90fd698a233a518aa5d07e595d983b8c0526c8f7fb8787604051612051929190614161565b60405180910390a4612067818787878787612e2d565b505050505050565b6120798282612fe4565b600082815260c960205260409020610c40908261306a565b61209b828261307f565b600082815260c960205260409020610c4090826130e6565b6120bb6130fb565b60fb805460ff191690557f5db9ee0a495bf2e6ff9c91a7834c1ba4fdd244a5e8aa4e537bd38aeae4b073aa335b6040516001600160a01b03909116815260200160405180910390a1565b6001600160a01b03831661212b5760405162461bcd60e51b815260040161077e90614b12565b805182511461214c5760405162461bcd60e51b815260040161077e90614a3b565b600033905061216f81856000868660405180602001604052806000815250612d25565b60005b835181101561223757600084828151811061218f5761218f61460c565b6020026020010151905060008483815181106121ad576121ad61460c565b60209081029190910181015160008481526065835260408082206001600160a01b038c1683529093529190912054909150818110156121fe5760405162461bcd60e51b815260040161077e90614b55565b60009283526065602090815260408085206001600160a01b038b168652909152909220910390558061222f81614638565b915050612172565b5060006001600160a01b0316846001600160a01b0316826001600160a01b03167f4a39dc06d4c0dbc64b70af90fd698a233a518aa5d07e595d983b8c0526c8f7fb8686604051612288929190614161565b60405180910390a4604080516020810190915260009052610f87565b6001600160a01b0384166122ca5760405162461bcd60e51b815260040161077e906149fa565b3360006122d685613144565b905060006122e385613144565b90506122f483600089858589612d25565b60008681526065602090815260408083206001600160a01b038b16845290915281208054879290612326908490614939565b909155505060408051878152602081018790526001600160a01b03808a1692600092918716917fc3d58168c5ae7397731d063d5bbf3d657854427343f4c083240f7aacaa2d0f62910160405180910390a46123868360008989898961318f565b50505050505050565b6000610fd5838361324a565b60006116378484846132ba565b600054610100900460ff166123cf5760405162461bcd60e51b815260040161077e90614b99565b610ce3816132d7565b600054610100900460ff166123ff5760405162461bcd60e51b815260040161077e90614b99565b565b600054610100900460ff166124285760405162461bcd60e51b815260040161077e90614b99565b6123ff613307565b600054610100900460ff166124575760405162461bcd60e51b815260040161077e90614b99565b61245f6123d8565b6124776000805160206151af8339815191523361206f565b6123ff60008051602061518f8339815191523361206f565b600054610100900460ff166124b65760405162461bcd60e51b815260040161077e90614b99565b610228610cbf82826147eb565b600054610100900460ff166124ea5760405162461bcd60e51b815260040161077e90614b99565b6124f26123d8565b6123ff6000805160206151cf8339815191523361206f565b600054610100900460ff166125315760405162461bcd60e51b815260040161077e90614b99565b61028b61253e83826147eb565b5061028c610c4082826147eb565b61255461333a565b60fb805460ff191660011790557f62e78cea01bee320cd4e420270b5ea74000d11b0c9f74754ebdbfc544b05a2586120e83390565b6000610fd58383613380565b600881901c600090815260208390526040902054600160ff83161b16151592915050565b816001600160a01b0316836001600160a01b03160361262c5760405162461bcd60e51b815260206004820152602960248201527f455243313135353a2073657474696e6720617070726f76616c20737461747573604482015268103337b91039b2b63360b91b606482015260840161077e565b6001600160a01b03838116600081815260666020908152604080832094871680845294825291829020805460ff191686151590811790915591519182527f17307eab39ab6107e8899845ad3d59bd9653f200f220920489ca2b5937696c31910160405180910390a3505050565b60006107ac826133aa565b60008080806126b386866133b5565b909450925050505b9250929050565b60008080806126b386866133e0565b60006107ac825490565b6001600160a01b0384166127015760405162461bcd60e51b815260040161077e90614a83565b33600061270d85613144565b9050600061271a85613144565b905061272a838989858589612d25565b60008681526065602090815260408083206001600160a01b038c1684529091529020548581101561276d5760405162461bcd60e51b815260040161077e90614ac8565b60008781526065602090815260408083206001600160a01b038d8116855292528083208985039055908a168252812080548892906127ac908490614939565b909155505060408051888152602081018890526001600160a01b03808b16928c821692918816917fc3d58168c5ae7397731d063d5bbf3d657854427343f4c083240f7aacaa2d0f62910160405180910390a461280c848a8a8a8a8a61318f565b505050505050505050565b6001600160a01b03831661283d5760405162461bcd60e51b815260040161077e90614b12565b33600061284984613144565b9050600061285684613144565b905061287683876000858560405180602001604052806000815250612d25565b60008581526065602090815260408083206001600160a01b038a168452909152902054848110156128b95760405162461bcd60e51b815260040161077e90614b55565b60008681526065602090815260408083206001600160a01b038b81168086529184528285208a8703905582518b81529384018a90529092908816917fc3d58168c5ae7397731d063d5bbf3d657854427343f4c083240f7aacaa2d0f62910160405180910390a4604080516020810190915260009052612386565b6001600160a01b03811660009081526001830160205260408120541515610fd5565b60006001600160e01b03198216637965db0b60e01b14806107ac57506107ac8261341a565b6060600061022861298a86611bd3565b60405160200161299b929190614be4565b6040516020818303038152906040529050836129b686611bd3565b84836040516020016129cb9493929190614c6b565b6040516020818303038152906040529150509392505050565b60408051602081019091526000808252606091905b8351811015612b4657600060018551612a129190614912565b8214612a3757604051806040016040528060018152602001600b60fa1b815250612a48565b604051806020016040528060008152505b90506000858381518110612a5e57612a5e61460c565b60200260200101516020015151600014612ab457858381518110612a8457612a8461460c565b602002602001015160200151604051602001612aa09190614d58565b604051602081830303815290604052612ac5565b604051806020016040528060008152505b9050600084878581518110612adc57612adc61460c565b60200260200101516000015183898781518110612afb57612afb61460c565b60200260200101516040015186604051602001612b1c959493929190614d9d565b60405160208183030381529060405290508094505050508080612b3e90614638565b9150506129f9565b5080604051602001612b589190614e5a565b604051602081830303815290604052915050919050565b60608151600003612b8e57505060408051602081019091526000815290565b600060405180606001604052806040815260200161512f6040913990506000600384516002612bbd9190614939565b612bc791906148fe565b612bd2906004614e9c565b6001600160401b03811115612be957612be9613b75565b6040519080825280601f01601f191660200182016040528015612c13576020820181803683370190505b509050600182016020820185865187015b80821015612c7f576003820191508151603f8160121c168501518453600184019350603f81600c1c168501518453600184019350603f8160061c168501518453600184019350603f8116850151845350600183019250612c24565b5050600386510660018114612c9b5760028114612cae57612cb6565b603d6001830353603d6002830353612cb6565b603d60018303535b509195945050505050565b612ccb828261138e565b610cbf57612ce3816001600160a01b0316601461346a565b612cee83602061346a565b604051602001612cff929190614ebb565b60408051601f198184030181529082905262461bcd60e51b825261077e91600401613b49565b612d2d61333a565b82858560005b8351811015612e1e57612d6a848281518110612d5157612d5161460c565b602002602001015161025a61259590919063ffffffff16565b1580612d7d57506001600160a01b038316155b80612d8f57506001600160a01b038216155b80612dad5750612dad60008051602061518f8339815191528461138e565b80612dcb5750612dcb60008051602061518f8339815191528361138e565b612e0c5760405162461bcd60e51b8152602060048201526012602482015271151bdad95b881a5cc81cdbdd5b189bdd5b9960721b604482015260640161077e565b80612e1681614638565b915050612d33565b5061280c898989898989613605565b6001600160a01b0384163b156120675760405163bc197c8160e01b81526001600160a01b0385169063bc197c8190612e719089908990889088908890600401614f30565b6020604051808303816000875af1925050508015612eac575060408051601f3d908101601f19168201909252612ea991810190614f8e565b60015b612f5857612eb8614fab565b806308c379a003612ef15750612ecc614fc7565b80612ed75750612ef3565b8060405162461bcd60e51b815260040161077e9190613b49565b505b60405162461bcd60e51b815260206004820152603460248201527f455243313135353a207472616e7366657220746f206e6f6e20455243313135356044820152732932b1b2b4bb32b91034b6b83632b6b2b73a32b960611b606482015260840161077e565b6001600160e01b0319811663bc197c8160e01b146123865760405162461bcd60e51b815260040161077e90615050565b606081600001805480602002602001604051908101604052809291908181526020018280548015612fd857602002820191906000526020600020905b815481526020019060010190808311612fc4575b50505050509050919050565b612fee828261138e565b610cbf5760008281526097602090815260408083206001600160a01b03851684529091529020805460ff191660011790556130263390565b6001600160a01b0316816001600160a01b0316837f2f8788117e7eff1d82e926ec794901d17c78024a50270940304540a733656f0d60405160405180910390a45050565b6000610fd5836001600160a01b03841661383b565b613089828261138e565b15610cbf5760008281526097602090815260408083206001600160a01b0385168085529252808320805460ff1916905551339285917ff6391f5c32d9c69d2a47ea670b442974b53935d1edc7fd64eb21e047a839171b9190a45050565b6000610fd5836001600160a01b03841661388a565b60fb5460ff166123ff5760405162461bcd60e51b815260206004820152601460248201527314185d5cd8589b194e881b9bdd081c185d5cd95960621b604482015260640161077e565b6040805160018082528183019092526060916000919060208083019080368337019050509050828160008151811061317e5761317e61460c565b602090810291909101015292915050565b6001600160a01b0384163b156120675760405163f23a6e6160e01b81526001600160a01b0385169063f23a6e61906131d39089908990889088908890600401615098565b6020604051808303816000875af192505050801561320e575060408051601f3d908101601f1916820190925261320b91810190614f8e565b60015b61321a57612eb8614fab565b6001600160e01b0319811663f23a6e6160e01b146123865760405162461bcd60e51b815260040161077e90615050565b60008181526002830160205260408120548015158061326e575061326e848461397d565b610fd55760405162461bcd60e51b815260206004820152601e60248201527f456e756d657261626c654d61703a206e6f6e6578697374656e74206b65790000604482015260640161077e565b600082815260028401602052604081208290556116378484613989565b600054610100900460ff166132fe5760405162461bcd60e51b815260040161077e90614b99565b610ce381613995565b600054610100900460ff1661332e5760405162461bcd60e51b815260040161077e90614b99565b60fb805460ff19169055565b60fb5460ff16156123ff5760405162461bcd60e51b815260206004820152601060248201526f14185d5cd8589b194e881c185d5cd95960821b604482015260640161077e565b60008260000182815481106133975761339761460c565b9060005260206000200154905092915050565b60006107ac826126d1565b600080806133c38585612589565b600081815260029690960160205260409095205494959350505050565b600081815260028301602052604081205481908061340f57613402858561397d565b9250600091506126bb9050565b6001925090506126bb565b60006001600160e01b03198216636cdb3d1360e11b148061344b57506001600160e01b031982166303a24d0760e21b145b806107ac57506301ffc9a760e01b6001600160e01b03198316146107ac565b60606000613479836002614e9c565b613484906002614939565b6001600160401b0381111561349b5761349b613b75565b6040519080825280601f01601f1916602001820160405280156134c5576020820181803683370190505b509050600360fc1b816000815181106134e0576134e061460c565b60200101906001600160f81b031916908160001a905350600f60fb1b8160018151811061350f5761350f61460c565b60200101906001600160f81b031916908160001a9053506000613533846002614e9c565b61353e906001614939565b90505b60018111156135b6576f181899199a1a9b1b9c1cb0b131b232b360811b85600f16601081106135725761357261460c565b1a60f81b8282815181106135885761358861460c565b60200101906001600160f81b031916908160001a90535060049490941c936135af816150d2565b9050613541565b508315610fd55760405162461bcd60e51b815260206004820181905260248201527f537472696e67733a20686578206c656e67746820696e73756666696369656e74604482015260640161077e565b6001600160a01b0385166136b65760005b83518110156136b457600061364f8583815181106136365761363661460c565b602002602001015161015f6126c290919063ffffffff16565b9050809150506136a185838151811061366a5761366a61460c565b60200260200101518584815181106136845761368461460c565b6020026020010151836136979190614939565b61015f919061239b565b5050806136ad90614638565b9050613616565b505b6001600160a01b0384166137ac5760005b83518110156137aa5760008482815181106136e4576136e461460c565b6020026020010151905060008483815181106137025761370261460c565b6020026020010151905060006137238361015f61238f90919063ffffffff16565b9050818110156137865760405162461bcd60e51b815260206004820152602860248201527f455243313135353a206275726e20616d6f756e74206578636565647320746f74604482015267616c537570706c7960c01b606482015260840161077e565b61379561015f8484840361239b565b50505050806137a390614638565b90506136c7565b505b60005b8351811015613828576137f5868583815181106137ce576137ce61460c565b60200260200101518584815181106137e8576137e861460c565b60200260200101516139a1565b6138188585838151811061380b5761380b61460c565b60200260200101516139f6565b61382181614638565b90506137af565b5061383285613a38565b61206784613a38565b6000818152600183016020526040812054613882575081546001818101845560008481526020808220909301849055845484825282860190935260409020919091556107ac565b5060006107ac565b600081815260018301602052604081205480156139735760006138ae600183614912565b85549091506000906138c290600190614912565b90508181146139275760008660000182815481106138e2576138e261460c565b90600052602060002001549050808760000184815481106139055761390561460c565b6000918252602080832090910192909255918252600188019052604090208390555b8554869080613938576139386150e9565b6001900381819060005260206000200160009055905585600101600086815260200190815260200160002060009055600193505050506107ac565b60009150506107ac565b6000610fd58383613a5c565b6000610fd5838361383b565b6067610cbf82826147eb565b6001600160a01b0383166139b457505050565b60006139c08484610717565b90506139cc8282614912565b600003610f87576001600160a01b0384166000908152610164602052604090206109d89084613a74565b6001600160a01b038216613a08575050565b6001600160a01b038216600090815261016460205260409020613a2b9082613989565b50610c406101628361306a565b6060613a4382610e9f565b508051909150600003610cbf57610c40610162836130e6565b60008181526001830160205260408120541515610fd5565b6000610fd5838361388a565b80356001600160a01b0381168114613a9757600080fd5b919050565b60008060408385031215613aaf57600080fd5b613ab883613a80565b946020939093013593505050565b6001600160e01b031981168114610ce357600080fd5b600060208284031215613aee57600080fd5b8135610fd581613ac6565b60005b83811015613b14578181015183820152602001613afc565b50506000910152565b60008151808452613b35816020860160208601613af9565b601f01601f19169290920160200192915050565b602081526000610fd56020830184613b1d565b600060208284031215613b6e57600080fd5b5035919050565b634e487b7160e01b600052604160045260246000fd5b601f8201601f191681016001600160401b0381118282101715613bb057613bb0613b75565b6040525050565b60006001600160401b03821115613bd057613bd0613b75565b5060051b60200190565b600082601f830112613beb57600080fd5b81356020613bf882613bb7565b604051613c058282613b8b565b83815260059390931b8501820192828101915086841115613c2557600080fd5b8286015b84811015613c405780358352918301918301613c29565b509695505050505050565b600082601f830112613c5c57600080fd5b81356001600160401b03811115613c7557613c75613b75565b604051613c8c601f8301601f191660200182613b8b565b818152846020838601011115613ca157600080fd5b816020850160208301376000918101602001919091529392505050565b60008060008060808587031215613cd457600080fd5b613cdd85613a80565b935060208501356001600160401b0380821115613cf957600080fd5b613d0588838901613bda565b94506040870135915080821115613d1b57600080fd5b613d2788838901613bda565b93506060870135915080821115613d3d57600080fd5b50613d4a87828801613c4b565b91505092959194509250565b600081518084526020808501945080840160005b83811015613d8f5781516001600160a01b031687529582019590820190600101613d6a565b509495945050505050565b600081518084526020808501945080840160005b83811015613d8f57815187529582019590820190600101613dae565b600081518084526020808501808196508360051b8101915082860160005b85811015613e12578284038952613e00848351613d9a565b98850198935090840190600101613de8565b5091979650505050505050565b606081526000613e326060830186613d56565b8281036020840152613e448186613dca565b90508281036040840152613e588185613dca565b9695505050505050565b60008083601f840112613e7457600080fd5b5081356001600160401b03811115613e8b57600080fd5b6020830191508360208260051b85010111156126bb57600080fd5b60008060008060008060608789031215613ebf57600080fd5b86356001600160401b0380821115613ed657600080fd5b613ee28a838b01613e62565b90985096506020890135915080821115613efb57600080fd5b613f078a838b01613e62565b90965094506040890135915080821115613f2057600080fd5b50613f2d89828a01613e62565b979a9699509497509295939492505050565b600080600080600060a08688031215613f5757600080fd5b613f6086613a80565b9450613f6e60208701613a80565b935060408601356001600160401b0380821115613f8a57600080fd5b613f9689838a01613bda565b94506060880135915080821115613fac57600080fd5b613fb889838a01613bda565b93506080880135915080821115613fce57600080fd5b50613fdb88828901613c4b565b9150509295509295909350565b60008060408385031215613ffb57600080fd5b8235915061400b60208401613a80565b90509250929050565b600082601f83011261402557600080fd5b8135602061403282613bb7565b60405161403f8282613b8b565b83815260059390931b850182019282810191508684111561405f57600080fd5b8286015b84811015613c405761407481613a80565b8352918301918301614063565b6000806040838503121561409457600080fd5b82356001600160401b03808211156140ab57600080fd5b6140b786838701614014565b935060208501359150808211156140cd57600080fd5b506140da85828601613bda565b9150509250929050565b602081526000610fd56020830184613d9a565b60008060006060848603121561410c57600080fd5b833592506020840135915060408401356001600160401b0381111561413057600080fd5b61413c86828701613c4b565b9150509250925092565b60006020828403121561415857600080fd5b610fd582613a80565b6040815260006141746040830185613d9a565b82810360208401526141868185613d9a565b95945050505050565b6000806000606084860312156141a457600080fd5b6141ad84613a80565b925060208401356001600160401b03808211156141c957600080fd5b6141d587838801613bda565b935060408601359150808211156141eb57600080fd5b5061413c86828701613bda565b60006020828403121561420a57600080fd5b81356001600160401b0381111561422057600080fd5b61163784828501613bda565b600081518084526020808501808196508360051b8101915082860160005b85811015613e12578284038952614262848351613b1d565b9885019893509084019060010161424a565b602081526000610fd5602083018461422c565b6000806000806080858703121561429d57600080fd5b6142a685613a80565b9350602085013592506040850135915060608501356001600160401b038111156142cf57600080fd5b613d4a87828801613c4b565b600080604083850312156142ee57600080fd5b50508035926020909101359150565b60008060006060848603121561431257600080fd5b8335925060208401356001600160401b03808211156141c957600080fd5b60008060006060848603121561434557600080fd5b8335925060208401356001600160401b038082111561436357600080fd5b6141d587838801614014565b6000806040838503121561438257600080fd5b8235915060208301356001600160401b0381111561439f57600080fd5b6140da85828601613bda565b600080604083850312156143be57600080fd5b6143c783613a80565b9150602083013580151581146143dc57600080fd5b809150509250929050565b602081526000610fd56020830184613d56565b60008060006060848603121561440f57600080fd5b833592506020808501356001600160401b038082111561442e57600080fd5b61443a88838901613bda565b9450604087013591508082111561445057600080fd5b818701915087601f83011261446457600080fd5b813561446f81613bb7565b60405161447c8282613b8b565b82815260059290921b840185019185810191508a83111561449c57600080fd5b8585015b838110156144d4578035858111156144b85760008081fd5b6144c68d89838a0101613c4b565b8452509186019186016144a0565b508096505050505050509250925092565b600080604083850312156144f857600080fd5b61450183613a80565b915061400b60208401613a80565b600080600080600060a0868803121561452757600080fd5b61453086613a80565b945061453e60208701613a80565b9350604086013592506060860135915060808601356001600160401b0381111561456757600080fd5b613fdb88828901613c4b565b60008060006060848603121561458857600080fd5b61459184613a80565b95602085013595506040909401359392505050565b6000806000606084860312156145bb57600080fd5b505081359360208301359350604090920135919050565b600181811c908216806145e657607f821691505b60208210810361460657634e487b7160e01b600052602260045260246000fd5b50919050565b634e487b7160e01b600052603260045260246000fd5b634e487b7160e01b600052601160045260246000fd5b60006001820161464a5761464a614622565b5060010190565b6000808335601e1984360301811261466857600080fd5b8301803591506001600160401b0382111561468257600080fd5b6020019150368190038213156126bb57600080fd5b601f821115610c4057600081815260208120601f850160051c810160208610156146be5750805b601f850160051c820191505b81811015612067578281556001016146ca565b6001600160401b038311156146f4576146f4613b75565b6147088361470283546145d2565b83614697565b6000601f84116001811461473c57600085156147245750838201355b600019600387901b1c1916600186901b1783556109d8565b600083815260209020601f19861690835b8281101561476d578685013582556020948501946001909201910161474d565b508682101561478a5760001960f88860031b161c19848701351681555b505060018560011b0183555050505050565b6020808252602f908201527f455243313135353a2063616c6c6572206973206e6f7420746f6b656e206f776e60408201526e195c881b9bdc88185c1c1c9bdd9959608a1b606082015260800190565b81516001600160401b0381111561480457614804613b75565b6148188161481284546145d2565b84614697565b602080601f83116001811461484d57600084156148355750858301515b600019600386901b1c1916600185901b178555612067565b600085815260208120601f198616915b8281101561487c5788860151825594840194600190910190840161485d565b508582101561489a5787850151600019600388901b60f8161c191681555b5050505050600190811b01905550565b8281526040602082015260006116376040830184613b1d565b6040815260006148d66040830185613d9a565b8281036020840152614186818561422c565b634e487b7160e01b600052601260045260246000fd5b60008261490d5761490d6148e8565b500490565b818103818111156107ac576107ac614622565b600082614934576149346148e8565b500690565b808201808211156107ac576107ac614622565b6000815161495e818560208601613af9565b9290920192915050565b607b60f81b815260008351614984816001850160208801613af9565b83519083019061499b816001840160208801613af9565b607d60f81b60019290910191820152600201949350505050565b7f646174613a6170706c69636174696f6e2f6a736f6e3b6261736536342c0000008152600082516149ed81601d850160208701613af9565b91909101601d0192915050565b60208082526021908201527f455243313135353a206d696e7420746f20746865207a65726f206164647265736040820152607360f81b606082015260800190565b60208082526028908201527f455243313135353a2069647320616e6420616d6f756e7473206c656e677468206040820152670dad2e6dac2e8c6d60c31b606082015260800190565b60208082526025908201527f455243313135353a207472616e7366657220746f20746865207a65726f206164604082015264647265737360d81b606082015260800190565b6020808252602a908201527f455243313135353a20696e73756666696369656e742062616c616e636520666f60408201526939103a3930b739b332b960b11b606082015260800190565b60208082526023908201527f455243313135353a206275726e2066726f6d20746865207a65726f206164647260408201526265737360e81b606082015260800190565b60208082526024908201527f455243313135353a206275726e20616d6f756e7420657863656564732062616c604082015263616e636560e01b606082015260800190565b6020808252602b908201527f496e697469616c697a61626c653a20636f6e7472616374206973206e6f74206960408201526a6e697469616c697a696e6760a81b606082015260800190565b6000808454614bf2816145d2565b60018281168015614c0a5760018114614c1f57614c4e565b60ff1984168752821515830287019450614c4e565b8860005260208060002060005b85811015614c455781548a820152908401908201614c2c565b50505082870194505b505050508351614c62818360208801613af9565b01949350505050565b67113730b6b2911d1160c11b81528451600090614c8f816008850160208a01613af9565b61088b60f21b600891840191820181905269113a37b5b2b724b2111d60b11b600a8301528651614cc6816014850160208b01613af9565b600b60fa1b601493909101928301526e113232b9b1b934b83a34b7b7111d1160891b60158301528551614d00816024850160208a01613af9565b6024920191820152681134b6b0b3b2911d1160b91b60268201526109a9614d3b614d2d602f84018761494c565b61088b60f21b815260020190565b70089d1e5c19488e88915490cc4c4d4d488b607a1b815260110190565b6f113234b9b83630bcafba3cb832911d1160811b81528151600090614d84816010850160208701613af9565b61088b60f21b6010939091019283015250601201919050565b60008651614daf818460208b01613af9565b6e3d913a3930b4ba2fba3cb832911d1160891b9083019081528651614ddb81600f840160208b01613af9565b61088b60f21b600f92909101918201528551614dfe816011840160208a01613af9565b68113b30b63ab2911d1160b91b601192909101918201528451614e2881601a840160208901613af9565b61227d60f01b601a92909101918201528351614e4b81601c840160208801613af9565b01601c01979650505050505050565b6d2261747472696275746573223a5b60901b81528151600090614e8481600e850160208701613af9565b605d60f81b600e939091019283015250600f01919050565b6000816000190483118215151615614eb657614eb6614622565b500290565b7f416363657373436f6e74726f6c3a206163636f756e7420000000000000000000815260008351614ef3816017850160208801613af9565b7001034b99036b4b9b9b4b733903937b6329607d1b6017918401918201528351614f24816028840160208801613af9565b01602801949350505050565b6001600160a01b0386811682528516602082015260a060408201819052600090614f5c90830186613d9a565b8281036060840152614f6e8186613d9a565b90508281036080840152614f828185613b1d565b98975050505050505050565b600060208284031215614fa057600080fd5b8151610fd581613ac6565b600060033d1115614fc45760046000803e5060005160e01c5b90565b600060443d1015614fd55790565b6040516003193d81016004833e81513d6001600160401b03816024840111818411171561500457505050505090565b828501915081518181111561501c5750505050505090565b843d87010160208285010111156150365750505050505090565b61504560208286010187613b8b565b509095945050505050565b60208082526028908201527f455243313135353a204552433131353552656365697665722072656a656374656040820152676420746f6b656e7360c01b606082015260800190565b6001600160a01b03868116825285166020820152604081018490526060810183905260a0608082018190526000906109a990830184613b1d565b6000816150e1576150e1614622565b506000190190565b634e487b7160e01b600052603160045260246000fdfe68747470733a2f2f696d616765732e636f736d6963756e6976657273652e696f2f636f736d69632d6261646765732f4142434445464748494a4b4c4d4e4f505152535455565758595a6162636465666768696a6b6c6d6e6f707172737475767778797a303132333435363738392b2f9f2df0fed2c77648de5860a4cc508cd0818c85b8b8a1ab4ceeef8d981c8956a6f01ee2eb8c5679535f9dfef3543570e280865ec756856c5772fe3e6718c5c074a49807205ce4d355092ef5a8a18f56e8913cf4a201fbe287825b095693c21775364d3d7565c7a8300c96fd53e065d19b65848d7b23b3191adcd55621c744223ca26469706673582212208af1606ae3fe7dd5b3bea361d479f074a5dc0c12f9db19953e9153da2efd00e764736f6c63430008100033",
  "linkReferences": {},
  "deployedLinkReferences": {}
}