{
  "_format": "hh-sol-artifact-1",
  "contractName": "CosmicBadges",
  "sourceName": "contracts/upgradeable/ERC1155/CosmicBadges.sol",
  "abi": [
    {
      "inputs": [],
      "stateMutability": "nonpayable",
      "type": "constructor"
    },
    {
      "anonymous": false,
      "inputs": [
        {
          "indexed": true,
          "internalType": "address",
          "name": "account",
          "type": "address"
        },
        {
          "indexed": true,
          "internalType": "address",
          "name": "operator",
          "type": "address"
        },
        {
          "indexed": false,
          "internalType": "bool",
          "name": "approved",
          "type": "bool"
        }
      ],
      "name": "ApprovalForAll",
      "type": "event"
    },
    {
      "anonymous": false,
      "inputs": [
        {
          "indexed": false,
          "internalType": "uint8",
          "name": "version",
          "type": "uint8"
        }
      ],
      "name": "Initialized",
      "type": "event"
    },
    {
      "anonymous": false,
      "inputs": [
        {
          "indexed": true,
          "internalType": "uint256",
          "name": "tokenId",
          "type": "uint256"
        },
        {
          "indexed": false,
          "internalType": "uint256",
          "name": "attributeId",
          "type": "uint256"
        },
        {
          "indexed": false,
          "internalType": "string",
          "name": "name",
          "type": "string"
        }
      ],
      "name": "NameUpdated",
      "type": "event"
    },
    {
      "anonymous": false,
      "inputs": [
        {
          "indexed": true,
          "internalType": "uint256",
          "name": "tokenId",
          "type": "uint256"
        },
        {
          "indexed": false,
          "internalType": "uint256[]",
          "name": "attributeIds",
          "type": "uint256[]"
        },
        {
          "indexed": false,
          "internalType": "string[]",
          "name": "names",
          "type": "string[]"
        }
      ],
      "name": "NamesUpdated",
      "type": "event"
    },
    {
      "anonymous": false,
      "inputs": [
        {
          "indexed": false,
          "internalType": "address",
          "name": "account",
          "type": "address"
        }
      ],
      "name": "Paused",
      "type": "event"
    },
    {
      "anonymous": false,
      "inputs": [
        {
          "indexed": true,
          "internalType": "bytes32",
          "name": "role",
          "type": "bytes32"
        },
        {
          "indexed": true,
          "internalType": "bytes32",
          "name": "previousAdminRole",
          "type": "bytes32"
        },
        {
          "indexed": true,
          "internalType": "bytes32",
          "name": "newAdminRole",
          "type": "bytes32"
        }
      ],
      "name": "RoleAdminChanged",
      "type": "event"
    },
    {
      "anonymous": false,
      "inputs": [
        {
          "indexed": true,
          "internalType": "bytes32",
          "name": "role",
          "type": "bytes32"
        },
        {
          "indexed": true,
          "internalType": "address",
          "name": "account",
          "type": "address"
        },
        {
          "indexed": true,
          "internalType": "address",
          "name": "sender",
          "type": "address"
        }
      ],
      "name": "RoleGranted",
      "type": "event"
    },
    {
      "anonymous": false,
      "inputs": [
        {
          "indexed": true,
          "internalType": "bytes32",
          "name": "role",
          "type": "bytes32"
        },
        {
          "indexed": true,
          "internalType": "address",
          "name": "account",
          "type": "address"
        },
        {
          "indexed": true,
          "internalType": "address",
          "name": "sender",
          "type": "address"
        }
      ],
      "name": "RoleRevoked",
      "type": "event"
    },
    {
      "anonymous": false,
      "inputs": [
        {
          "indexed": true,
          "internalType": "address",
          "name": "operator",
          "type": "address"
        },
        {
          "indexed": true,
          "internalType": "address",
          "name": "from",
          "type": "address"
        },
        {
          "indexed": true,
          "internalType": "address",
          "name": "to",
          "type": "address"
        },
        {
          "indexed": false,
          "internalType": "uint256[]",
          "name": "ids",
          "type": "uint256[]"
        },
        {
          "indexed": false,
          "internalType": "uint256[]",
          "name": "values",
          "type": "uint256[]"
        }
      ],
      "name": "TransferBatch",
      "type": "event"
    },
    {
      "anonymous": false,
      "inputs": [
        {
          "indexed": true,
          "internalType": "address",
          "name": "operator",
          "type": "address"
        },
        {
          "indexed": true,
          "internalType": "address",
          "name": "from",
          "type": "address"
        },
        {
          "indexed": true,
          "internalType": "address",
          "name": "to",
          "type": "address"
        },
        {
          "indexed": false,
          "internalType": "uint256",
          "name": "id",
          "type": "uint256"
        },
        {
          "indexed": false,
          "internalType": "uint256",
          "name": "value",
          "type": "uint256"
        }
      ],
      "name": "TransferSingle",
      "type": "event"
    },
    {
      "anonymous": false,
      "inputs": [
        {
          "indexed": false,
          "internalType": "string",
          "name": "value",
          "type": "string"
        },
        {
          "indexed": true,
          "internalType": "uint256",
          "name": "id",
          "type": "uint256"
        }
      ],
      "name": "URI",
      "type": "event"
    },
    {
      "anonymous": false,
      "inputs": [
        {
          "indexed": false,
          "internalType": "address",
          "name": "account",
          "type": "address"
        }
      ],
      "name": "Unpaused",
      "type": "event"
    },
    {
      "anonymous": false,
      "inputs": [
        {
          "indexed": true,
          "internalType": "uint256",
          "name": "tokenId",
          "type": "uint256"
        },
        {
          "indexed": false,
          "internalType": "uint256",
          "name": "attributeId",
          "type": "uint256"
        },
        {
          "indexed": false,
          "internalType": "uint256",
          "name": "value",
          "type": "uint256"
        }
      ],
      "name": "ValueUpdated",
      "type": "event"
    },
    {
      "anonymous": false,
      "inputs": [
        {
          "indexed": true,
          "internalType": "uint256",
          "name": "tokenId",
          "type": "uint256"
        },
        {
          "indexed": false,
          "internalType": "uint256[]",
          "name": "attributeIds",
          "type": "uint256[]"
        },
        {
          "indexed": false,
          "internalType": "uint256[]",
          "name": "values",
          "type": "uint256[]"
        }
      ],
      "name": "ValuesUpdated",
      "type": "event"
    },
    {
      "inputs": [],
      "name": "ADMIN_ROLE",
      "outputs": [
        {
          "internalType": "bytes32",
          "name": "",
          "type": "bytes32"
        }
      ],
      "stateMutability": "view",
      "type": "function"
    },
    {
      "inputs": [],
      "name": "CONTRACT_ROLE",
      "outputs": [
        {
          "internalType": "bytes32",
          "name": "",
          "type": "bytes32"
        }
      ],
      "stateMutability": "view",
      "type": "function"
    },
    {
      "inputs": [],
      "name": "DEFAULT_ADMIN_ROLE",
      "outputs": [
        {
          "internalType": "bytes32",
          "name": "",
          "type": "bytes32"
        }
      ],
      "stateMutability": "view",
      "type": "function"
    },
    {
      "inputs": [],
      "name": "MINTER_ROLE",
      "outputs": [
        {
          "internalType": "bytes32",
          "name": "",
          "type": "bytes32"
        }
      ],
      "stateMutability": "view",
      "type": "function"
    },
    {
      "inputs": [],
      "name": "SOULBOUND_WHITELIST_ROLE",
      "outputs": [
        {
          "internalType": "bytes32",
          "name": "",
          "type": "bytes32"
        }
      ],
      "stateMutability": "view",
      "type": "function"
    },
    {
      "inputs": [],
      "name": "activeIds",
      "outputs": [
        {
          "internalType": "uint256[]",
          "name": "",
          "type": "uint256[]"
        }
      ],
      "stateMutability": "view",
      "type": "function"
    },
    {
      "inputs": [
        {
          "internalType": "address",
          "name": "account",
          "type": "address"
        },
        {
          "internalType": "uint256",
          "name": "id",
          "type": "uint256"
        }
      ],
      "name": "balanceOf",
      "outputs": [
        {
          "internalType": "uint256",
          "name": "",
          "type": "uint256"
        }
      ],
      "stateMutability": "view",
      "type": "function"
    },
    {
      "inputs": [],
      "name": "balanceOfAll",
      "outputs": [
        {
          "internalType": "address[]",
          "name": "owners",
          "type": "address[]"
        },
        {
          "internalType": "uint256[][]",
          "name": "tokenIds",
          "type": "uint256[][]"
        },
        {
          "internalType": "uint256[][]",
          "name": "balances",
          "type": "uint256[][]"
        }
      ],
      "stateMutability": "view",
      "type": "function"
    },
    {
      "inputs": [
        {
          "internalType": "address[]",
          "name": "accounts",
          "type": "address[]"
        },
        {
          "internalType": "uint256[]",
          "name": "ids",
          "type": "uint256[]"
        }
      ],
      "name": "balanceOfBatch",
      "outputs": [
        {
          "internalType": "uint256[]",
          "name": "",
          "type": "uint256[]"
        }
      ],
      "stateMutability": "view",
      "type": "function"
    },
    {
      "inputs": [
        {
          "internalType": "uint256",
          "name": "tokenId",
          "type": "uint256"
        },
        {
          "internalType": "uint256[]",
          "name": "attributeIds",
          "type": "uint256[]"
        }
      ],
      "name": "batchGetAttribute",
      "outputs": [
        {
          "internalType": "uint256[]",
          "name": "",
          "type": "uint256[]"
        }
      ],
      "stateMutability": "view",
      "type": "function"
    },
    {
      "inputs": [
        {
          "internalType": "uint256",
          "name": "tokenId",
          "type": "uint256"
        },
        {
          "internalType": "uint256[]",
          "name": "attributeIds",
          "type": "uint256[]"
        },
        {
          "internalType": "uint256[]",
          "name": "values",
          "type": "uint256[]"
        }
      ],
      "name": "batchSetAttribute",
      "outputs": [],
      "stateMutability": "nonpayable",
      "type": "function"
    },
    {
      "inputs": [
        {
          "internalType": "uint256",
          "name": "tokenId",
          "type": "uint256"
        },
        {
          "internalType": "uint256[]",
          "name": "attributeIds",
          "type": "uint256[]"
        },
        {
          "internalType": "string[]",
          "name": "names",
          "type": "string[]"
        }
      ],
      "name": "batchSetAttributeName",
      "outputs": [],
      "stateMutability": "nonpayable",
      "type": "function"
    },
    {
      "inputs": [
        {
          "internalType": "uint256[]",
          "name": "tokenIds",
          "type": "uint256[]"
        }
      ],
      "name": "batchTokenURI",
      "outputs": [
        {
          "internalType": "string[]",
          "name": "",
          "type": "string[]"
        }
      ],
      "stateMutability": "view",
      "type": "function"
    },
    {
      "inputs": [
        {
          "internalType": "uint256[]",
          "name": "tokenIds",
          "type": "uint256[]"
        }
      ],
      "name": "batchUri",
      "outputs": [
        {
          "internalType": "string[]",
          "name": "",
          "type": "string[]"
        }
      ],
      "stateMutability": "view",
      "type": "function"
    },
    {
      "inputs": [
        {
          "internalType": "address",
          "name": "account",
          "type": "address"
        },
        {
          "internalType": "uint256",
          "name": "id",
          "type": "uint256"
        },
        {
          "internalType": "uint256",
          "name": "value",
          "type": "uint256"
        }
      ],
      "name": "burn",
      "outputs": [],
      "stateMutability": "nonpayable",
      "type": "function"
    },
    {
      "inputs": [
        {
          "internalType": "address",
          "name": "from",
          "type": "address"
        },
        {
          "internalType": "uint256[]",
          "name": "ids",
          "type": "uint256[]"
        },
        {
          "internalType": "uint256[]",
          "name": "amounts",
          "type": "uint256[]"
        }
      ],
      "name": "burnBatch",
      "outputs": [],
      "stateMutability": "nonpayable",
      "type": "function"
    },
    {
      "inputs": [
        {
          "internalType": "uint256",
          "name": "id",
          "type": "uint256"
        }
      ],
      "name": "exists",
      "outputs": [
        {
          "internalType": "bool",
          "name": "",
          "type": "bool"
        }
      ],
      "stateMutability": "view",
      "type": "function"
    },
    {
      "inputs": [
        {
          "internalType": "uint256",
          "name": "tokenId",
          "type": "uint256"
        },
        {
          "internalType": "uint256",
          "name": "attributeId",
          "type": "uint256"
        }
      ],
      "name": "getAttribute",
      "outputs": [
        {
          "internalType": "uint256",
          "name": "",
          "type": "uint256"
        }
      ],
      "stateMutability": "view",
      "type": "function"
    },
    {
      "inputs": [],
      "name": "getBlacklisted",
      "outputs": [
        {
          "internalType": "address[]",
          "name": "",
          "type": "address[]"
        }
      ],
      "stateMutability": "view",
      "type": "function"
    },
    {
      "inputs": [
        {
          "internalType": "bytes32",
          "name": "role",
          "type": "bytes32"
        }
      ],
      "name": "getRoleAdmin",
      "outputs": [
        {
          "internalType": "bytes32",
          "name": "",
          "type": "bytes32"
        }
      ],
      "stateMutability": "view",
      "type": "function"
    },
    {
      "inputs": [
        {
          "internalType": "bytes32",
          "name": "role",
          "type": "bytes32"
        },
        {
          "internalType": "uint256",
          "name": "index",
          "type": "uint256"
        }
      ],
      "name": "getRoleMember",
      "outputs": [
        {
          "internalType": "address",
          "name": "",
          "type": "address"
        }
      ],
      "stateMutability": "view",
      "type": "function"
    },
    {
      "inputs": [
        {
          "internalType": "bytes32",
          "name": "role",
          "type": "bytes32"
        }
      ],
      "name": "getRoleMemberCount",
      "outputs": [
        {
          "internalType": "uint256",
          "name": "",
          "type": "uint256"
        }
      ],
      "stateMutability": "view",
      "type": "function"
    },
    {
      "inputs": [
        {
          "internalType": "bytes32",
          "name": "role",
          "type": "bytes32"
        },
        {
          "internalType": "address",
          "name": "account",
          "type": "address"
        }
      ],
      "name": "grantRole",
      "outputs": [],
      "stateMutability": "nonpayable",
      "type": "function"
    },
    {
      "inputs": [
        {
          "internalType": "bytes32",
          "name": "role",
          "type": "bytes32"
        },
        {
          "internalType": "address",
          "name": "account",
          "type": "address"
        }
      ],
      "name": "hasRole",
      "outputs": [
        {
          "internalType": "bool",
          "name": "",
          "type": "bool"
        }
      ],
      "stateMutability": "view",
      "type": "function"
    },
    {
      "inputs": [],
      "name": "imageBaseURI",
      "outputs": [
        {
          "internalType": "string",
          "name": "",
          "type": "string"
        }
      ],
      "stateMutability": "view",
      "type": "function"
    },
    {
      "inputs": [],
      "name": "initialize",
      "outputs": [],
      "stateMutability": "nonpayable",
      "type": "function"
    },
    {
      "inputs": [
        {
          "internalType": "address",
          "name": "account",
          "type": "address"
        },
        {
          "internalType": "address",
          "name": "operator",
          "type": "address"
        }
      ],
      "name": "isApprovedForAll",
      "outputs": [
        {
          "internalType": "bool",
          "name": "",
          "type": "bool"
        }
      ],
      "stateMutability": "view",
      "type": "function"
    },
    {
      "inputs": [
        {
          "internalType": "address",
          "name": "user",
          "type": "address"
        }
      ],
      "name": "isBlacklisted",
      "outputs": [
        {
          "internalType": "bool",
          "name": "",
          "type": "bool"
        }
      ],
      "stateMutability": "view",
      "type": "function"
    },
    {
      "inputs": [
        {
          "internalType": "uint256",
          "name": "tokenId",
          "type": "uint256"
        }
      ],
      "name": "isSoulbound",
      "outputs": [
        {
          "internalType": "bool",
          "name": "",
          "type": "bool"
        }
      ],
      "stateMutability": "view",
      "type": "function"
    },
    {
      "inputs": [
        {
          "internalType": "address",
          "name": "account",
          "type": "address"
        },
        {
          "internalType": "uint256",
          "name": "id",
          "type": "uint256"
        },
        {
          "internalType": "uint256",
          "name": "amount",
          "type": "uint256"
        },
        {
          "internalType": "bytes",
          "name": "data",
          "type": "bytes"
        }
      ],
      "name": "mint",
      "outputs": [],
      "stateMutability": "nonpayable",
      "type": "function"
    },
    {
      "inputs": [
        {
          "internalType": "address",
          "name": "to",
          "type": "address"
        },
        {
          "internalType": "uint256[]",
          "name": "ids",
          "type": "uint256[]"
        },
        {
          "internalType": "uint256[]",
          "name": "amounts",
          "type": "uint256[]"
        },
        {
          "internalType": "bytes",
          "name": "data",
          "type": "bytes"
        }
      ],
      "name": "mintBatch",
      "outputs": [],
      "stateMutability": "nonpayable",
      "type": "function"
    },
    {
      "inputs": [
        {
          "internalType": "uint256",
          "name": "id",
          "type": "uint256"
        },
        {
          "internalType": "address[]",
          "name": "to",
          "type": "address[]"
        },
        {
          "internalType": "uint256[]",
          "name": "amounts",
          "type": "uint256[]"
        }
      ],
      "name": "mintBatchOf",
      "outputs": [],
      "stateMutability": "nonpayable",
      "type": "function"
    },
    {
      "inputs": [],
      "name": "name",
      "outputs": [
        {
          "internalType": "string",
          "name": "",
          "type": "string"
        }
      ],
      "stateMutability": "view",
      "type": "function"
    },
    {
      "inputs": [],
      "name": "pause",
      "outputs": [],
      "stateMutability": "nonpayable",
      "type": "function"
    },
    {
      "inputs": [],
      "name": "paused",
      "outputs": [
        {
          "internalType": "bool",
          "name": "",
          "type": "bool"
        }
      ],
      "stateMutability": "view",
      "type": "function"
    },
    {
      "inputs": [
        {
          "internalType": "bytes32",
          "name": "role",
          "type": "bytes32"
        },
        {
          "internalType": "address",
          "name": "account",
          "type": "address"
        }
      ],
      "name": "renounceRole",
      "outputs": [],
      "stateMutability": "nonpayable",
      "type": "function"
    },
    {
      "inputs": [
        {
          "internalType": "bytes32",
          "name": "role",
          "type": "bytes32"
        },
        {
          "internalType": "address",
          "name": "account",
          "type": "address"
        }
      ],
      "name": "revokeRole",
      "outputs": [],
      "stateMutability": "nonpayable",
      "type": "function"
    },
    {
      "inputs": [
        {
          "internalType": "address",
          "name": "from",
          "type": "address"
        },
        {
          "internalType": "address",
          "name": "to",
          "type": "address"
        },
        {
          "internalType": "uint256[]",
          "name": "ids",
          "type": "uint256[]"
        },
        {
          "internalType": "uint256[]",
          "name": "amounts",
          "type": "uint256[]"
        },
        {
          "internalType": "bytes",
          "name": "data",
          "type": "bytes"
        }
      ],
      "name": "safeBatchTransferFrom",
      "outputs": [],
      "stateMutability": "nonpayable",
      "type": "function"
    },
    {
      "inputs": [
        {
          "internalType": "address",
          "name": "from",
          "type": "address"
        },
        {
          "internalType": "address",
          "name": "to",
          "type": "address"
        },
        {
          "internalType": "uint256",
          "name": "id",
          "type": "uint256"
        },
        {
          "internalType": "uint256",
          "name": "amount",
          "type": "uint256"
        },
        {
          "internalType": "bytes",
          "name": "data",
          "type": "bytes"
        }
      ],
      "name": "safeTransferFrom",
      "outputs": [],
      "stateMutability": "nonpayable",
      "type": "function"
    },
    {
      "inputs": [
        {
          "internalType": "address",
          "name": "operator",
          "type": "address"
        },
        {
          "internalType": "bool",
          "name": "approved",
          "type": "bool"
        }
      ],
      "name": "setApprovalForAll",
      "outputs": [],
      "stateMutability": "nonpayable",
      "type": "function"
    },
    {
      "inputs": [
        {
          "internalType": "uint256",
          "name": "tokenId",
          "type": "uint256"
        },
        {
          "internalType": "uint256",
          "name": "attributeId",
          "type": "uint256"
        },
        {
          "internalType": "uint256",
          "name": "value",
          "type": "uint256"
        }
      ],
      "name": "setAttribute",
      "outputs": [],
      "stateMutability": "nonpayable",
      "type": "function"
    },
    {
      "inputs": [
        {
          "internalType": "uint256",
          "name": "tokenId",
          "type": "uint256"
        },
        {
          "internalType": "uint256",
          "name": "attributeId",
          "type": "uint256"
        },
        {
          "internalType": "string",
          "name": "name",
          "type": "string"
        }
      ],
      "name": "setAttributeName",
      "outputs": [],
      "stateMutability": "nonpayable",
      "type": "function"
    },
    {
      "inputs": [
        {
          "internalType": "uint256",
          "name": "tokenId",
          "type": "uint256"
        }
      ],
      "name": "setSoulbound",
      "outputs": [],
      "stateMutability": "nonpayable",
      "type": "function"
    },
    {
      "inputs": [
        {
          "internalType": "bytes4",
          "name": "interfaceId",
          "type": "bytes4"
        }
      ],
      "name": "supportsInterface",
      "outputs": [
        {
          "internalType": "bool",
          "name": "",
          "type": "bool"
        }
      ],
      "stateMutability": "view",
      "type": "function"
    },
    {
      "inputs": [],
      "name": "symbol",
      "outputs": [
        {
          "internalType": "string",
          "name": "",
          "type": "string"
        }
      ],
      "stateMutability": "view",
      "type": "function"
    },
    {
      "inputs": [
        {
          "internalType": "address",
          "name": "owner",
          "type": "address"
        }
      ],
      "name": "tokensOf",
      "outputs": [
        {
          "internalType": "uint256[]",
          "name": "tokenIds",
          "type": "uint256[]"
        },
        {
          "internalType": "uint256[]",
          "name": "balances",
          "type": "uint256[]"
        }
      ],
      "stateMutability": "view",
      "type": "function"
    },
    {
      "inputs": [
        {
          "internalType": "uint256",
          "name": "id",
          "type": "uint256"
        }
      ],
      "name": "totalSupply",
      "outputs": [
        {
          "internalType": "uint256",
          "name": "",
          "type": "uint256"
        }
      ],
      "stateMutability": "view",
      "type": "function"
    },
    {
      "inputs": [],
      "name": "unpause",
      "outputs": [],
      "stateMutability": "nonpayable",
      "type": "function"
    },
    {
      "inputs": [
        {
          "internalType": "uint256",
          "name": "tokenId",
          "type": "uint256"
        }
      ],
      "name": "unsetSoulbound",
      "outputs": [],
      "stateMutability": "nonpayable",
      "type": "function"
    },
    {
      "inputs": [
        {
          "internalType": "uint256",
          "name": "tokenId",
          "type": "uint256"
        }
      ],
      "name": "uri",
      "outputs": [
        {
          "internalType": "string",
          "name": "",
          "type": "string"
        }
      ],
      "stateMutability": "view",
      "type": "function"
    }
  ],
  "bytecode": "0x60806040523480156200001157600080fd5b506200001c62000022565b620000e4565b600054610100900460ff16156200008f5760405162461bcd60e51b815260206004820152602760248201527f496e697469616c697a61626c653a20636f6e747261637420697320696e697469604482015266616c697a696e6760c81b606482015260840160405180910390fd5b60005460ff9081161015620000e2576000805460ff191660ff9081179091556040519081527f7f26b83ff96e1f2b6a682f133852f6798a09c465da95921460cefb38474024989060200160405180910390a15b565b614f4d80620000f46000396000f3fe608060405234801561001057600080fd5b50600436106102d55760003560e01c80638456cb5911610182578063b198ce46116100e9578063d5391393116100a2578063f242432a1161007c578063f242432a1461069d578063f5298aca146106b0578063fd5eea4e146106c3578063fe575a87146106d657600080fd5b8063d539139314610639578063d547741f1461064e578063e985e9c51461066157600080fd5b8063b198ce46146105d0578063bd85b039146105d8578063c385ce25146105eb578063ca15c873146105fe578063ce3675ad14610611578063d179191a1461062657600080fd5b806396c45e2f1161013b57806396c45e2f14610567578063994a95be1461057a578063a17d79ec1461058d578063a217fddf146105a2578063a22cb465146105aa578063b0fe60d5146105bd57600080fd5b80638456cb59146104f357806387be85d3146104fb5780639010d07c1461050e578063911ec4701461053957806391d148541461054c57806395d89b411461055f57600080fd5b80634e1273f4116102415780636d94f13a116101fa5780637685945e116101d45780637685945e146104bd57806377645839146104d05780637d7a6d13146104d85780638129fc1c146104eb57600080fd5b80636d94f13a14610475578063731133e91461049557806375b238fc146104a857600080fd5b80634e1273f4146103f05780634f558e791461041057806358870da1146104235780635a3f2672146104365780635c975abb146104575780636b20c4541461046257600080fd5b8063208e509f11610293578063208e509f14610375578063248a9ca31461038c5780632eb2c2d6146103af5780632f2ff15d146103c257806336568abe146103d55780633f4ba83a146103e857600080fd5b8062fdd58e146102da57806301ffc9a71461030057806303fe46ab1461032357806306fdde03146103385780630e89341c1461034d5780631f7fdffa14610360575b600080fd5b6102ed6102e83660046139a8565b6106e9565b6040519081526020015b60405180910390f35b61031361030e3660046139e8565b610784565b60405190151581526020016102f7565b6102ed600080516020614ef883398151915281565b61034061078f565b6040516102f79190613a55565b61034061035b366004613a68565b61081e565b61037361036e366004613bca565b61097e565b005b61037d6109a9565b6040516102f793929190613d2b565b6102ed61039a366004613a68565b60009081526097602052604090206001015490565b6103736103bd366004613d6e565b610ada565b6103736103d0366004613e17565b610b1f565b6103736103e3366004613e17565b610b49565b610373610bc7565b6104036103fe366004613eb0565b610bea565b6040516102f79190613f13565b61031361041e366004613a68565b610d13565b610373610431366004613f26565b610d26565b610449610444366004613f75565b610da3565b6040516102f7929190613f90565b60fb5460ff16610313565b610373610470366004613fbe565b610e68565b610488610483366004614027565b610e91565b6040516102f791906140a3565b6103736104a33660046140b6565b610e9c565b6102ed600080516020614ed883398151915281565b6102ed6104cb36600461410a565b610ec0565b610340610ee0565b6103736104e636600461412c565b610eee565b610373610fb2565b6103736111b3565b61037361050936600461415f565b6111d3565b61052161051c36600461410a565b611256565b6040516001600160a01b0390911681526020016102f7565b610313610547366004613a68565b61126e565b61031361055a366004613e17565b611292565b6103406112bd565b610373610575366004613a68565b6112cb565b61040361058836600461419e565b611308565b6102ed600080516020614eb883398151915281565b6102ed600081565b6103736105b83660046141da565b6113cb565b6104886105cb366004614027565b6113d6565b61040361148e565b6102ed6105e6366004613a68565b61152c565b6103736105f9366004613a68565b611543565b6102ed61060c366004613a68565b61157f565b610619611596565b6040516102f79190614216565b610373610634366004614229565b6115a8565b6102ed600080516020614e9883398151915281565b61037361065c366004613e17565b611676565b61031361066f366004614314565b6001600160a01b03918216600090815260666020908152604080832093909416825291909152205460ff1690565b6103736106ab36600461433e565b61169b565b6103736106be3660046143a2565b6116e0565b6103736106d13660046143d5565b611723565b6103136106e4366004613f75565b61178e565b60006001600160a01b0383166107595760405162461bcd60e51b815260206004820152602a60248201527f455243313135353a2061646472657373207a65726f206973206e6f742061207660448201526930b634b21037bbb732b960b11b60648201526084015b60405180910390fd5b5060008181526065602090815260408083206001600160a01b03861684529091529020545b92915050565b600061077e8261179c565b61028b805461079d90614401565b80601f01602080910402602001604051908101604052809291908181526020018280546107c990614401565b80156108165780601f106107eb57610100808354040283529160200191610816565b820191906000526020600020905b8154815290600101906020018083116107f957829003601f168201915b505050505081565b6060600061082e836103e86117c1565b9050600061083e846103e96117c1565b905060608061084c86611870565b81519194509250600091506001600160401b0381111561086e5761086e613a81565b6040519080825280602002602001820160405280156108c357816020015b6108b060405180606001604052806060815260200160608152602001600081525090565b81526020019060019003908161088c5790505b50905060005b835181101561095e5760405180606001604052808483815181106108ef576108ef61443b565b602002602001015181526020016040518060200160405280600081525081526020018583815181106109235761092361443b565b60200260200101518152508282815181106109405761094061443b565b6020026020010181905250808061095690614467565b9150506108c9565b5061097361096e88878785611ad7565b611b23565b979650505050505050565b600080516020614e9883398151915261099681611b54565b6109a285858585611b5e565b5050505050565b60608060606109b9610162611cb9565b925082516001600160401b038111156109d4576109d4613a81565b604051908082528060200260200182016040528015610a0757816020015b60608152602001906001900390816109f25790505b50915082516001600160401b03811115610a2357610a23613a81565b604051908082528060200260200182016040528015610a5657816020015b6060815260200190600190039081610a415790505b50905060005b8351811015610ad457610a87848281518110610a7a57610a7a61443b565b6020026020010151610da3565b848381518110610a9957610a9961443b565b60200260200101848481518110610ab257610ab261443b565b6020026020010182905282905250508080610acc90614467565b915050610a5c565b50909192565b6001600160a01b038516331480610af65750610af6853361066f565b610b125760405162461bcd60e51b815260040161075090614480565b6109a28585858585611cc6565b600082815260976020526040902060010154610b3a81611b54565b610b448383611e73565b505050565b6001600160a01b0381163314610bb95760405162461bcd60e51b815260206004820152602f60248201527f416363657373436f6e74726f6c3a2063616e206f6e6c792072656e6f756e636560448201526e103937b632b9903337b91039b2b63360891b6064820152608401610750565b610bc38282611e95565b5050565b600080516020614ed8833981519152610bdf81611b54565b610be7611eb7565b50565b60608151835114610c4f5760405162461bcd60e51b815260206004820152602960248201527f455243313135353a206163636f756e747320616e6420696473206c656e677468604482015268040dad2e6dac2e8c6d60bb1b6064820152608401610750565b600083516001600160401b03811115610c6a57610c6a613a81565b604051908082528060200260200182016040528015610c93578160200160208202803683370190505b50905060005b8451811015610d0b57610cde858281518110610cb757610cb761443b565b6020026020010151858381518110610cd157610cd161443b565b60200260200101516106e9565b828281518110610cf057610cf061443b565b6020908102919091010152610d0481614467565b9050610c99565b509392505050565b600080610d1f8361152c565b1192915050565b600080516020614ef8833981519152610d3e81611b54565b60008481526101f8602090815260408083208684529091529020610d628382614515565b50837ffdbb964a9a1d2ac903ed7ebf85795be6728c27e96237552b2805596c759e08818484604051610d959291906145d4565b60405180910390a250505050565b6001600160a01b0381166000908152610164602052604090206060908190610dca90611cb9565b915081516001600160401b03811115610de557610de5613a81565b604051908082528060200260200182016040528015610e0e578160200160208202803683370190505b50905060005b8251811015610e6257610e3384848381518110610cd157610cd161443b565b828281518110610e4557610e4561443b565b602090810291909101015280610e5a81614467565b915050610e14565b50915091565b600080516020614ed8833981519152610e8081611b54565b610e8b848484611f09565b50505050565b606061077e826113d6565b600080516020614e98833981519152610eb481611b54565b6109a2858585856120a8565b60008281526101f760205260408120610ed99083612193565b9392505050565b610228805461079d90614401565b600080516020614ef8833981519152610f0681611b54565b60005b8351811015610f7f57610f6c848281518110610f2757610f2761443b565b6020026020010151848381518110610f4157610f4161443b565b60200260200101516101f7600089815260200190815260200160002061219f9092919063ffffffff16565b5080610f7781614467565b915050610f09565b50837f383bcccfd5e9b61afe7e6832ca2201fe34d7766a9bbf90fb7152082ddbcd342b8484604051610d95929190613f90565b600054610100900460ff1615808015610fd25750600054600160ff909116105b80610fec5750303b158015610fec575060005460ff166001145b61104f5760405162461bcd60e51b815260206004820152602e60248201527f496e697469616c697a61626c653a20636f6e747261637420697320616c72656160448201526d191e481a5b9a5d1a585b1a5e995960921b6064820152608401610750565b6000805460ff191660011790558015611072576000805461ff0019166101001790555b61108a604051806020016040528060008152506121ac565b6110926121dc565b61109a612205565b6110a26121dc565b6110aa6121dc565b6110b26121dc565b6110ba612234565b6110db6040518060600160405280602f8152602001614e29602f9139612293565b6110e36122c7565b6111306040518060400160405280600d81526020016c436f736d69632042616467657360981b8152506040518060400160405280600681526020016542414447455360d01b81525061230e565b61113b600033611e73565b611153600080516020614ed883398151915233611e73565b61116b600080516020614e9883398151915233611e73565b8015610be7576000805461ff0019169055604051600181527f7f26b83ff96e1f2b6a682f133852f6798a09c465da95921460cefb38474024989060200160405180910390a150565b600080516020614ed88339815191526111cb81611b54565b610be7612350565b600080516020614e988339815191526111eb81611b54565b60005b83518110156109a25761124484828151811061120c5761120c61443b565b6020026020010151868584815181106112275761122761443b565b6020026020010151604051806020016040528060008152506120a8565b8061124e81614467565b9150506111ee565b600082815260c960205260408120610ed9908361238d565b600881901c600090815261025a6020526040812054600160ff84161b16151561077e565b60009182526097602090815260408084206001600160a01b0393909316845291905290205460ff1690565b61028c805461079d90614401565b600080516020614ed88339815191526112e381611b54565b600882901c600090815261025a602052604090208054600160ff85161b191690555050565b6060600082516001600160401b0381111561132557611325613a81565b60405190808252806020026020018201604052801561134e578160200160208202803683370190505b50905060005b8351811015610d0b5761139c8482815181106113725761137261443b565b60200260200101516101f7600088815260200190815260200160002061219390919063ffffffff16565b8282815181106113ae576113ae61443b565b6020908102919091010152806113c381614467565b915050611354565b610bc33383836123bd565b6060600082516001600160401b038111156113f3576113f3613a81565b60405190808252806020026020018201604052801561142657816020015b60608152602001906001900390816114115790505b50905060005b83518110156114875761145784828151811061144a5761144a61443b565b602002602001015161081e565b8282815181106114695761146961443b565b6020026020010181905250808061147f90614467565b91505061142c565b5092915050565b6060600061149d61015f61249d565b90506000816001600160401b038111156114b9576114b9613a81565b6040519080825280602002602001820160405280156114e2578160200160208202803683370190505b50905060005b82811015611487576114fc61015f826124a8565b5082828151811061150f5761150f61443b565b60209081029190910101528061152481614467565b9150506114e8565b60008061153b61015f846124c6565b949350505050565b600080516020614ed883398151915261155b81611b54565b600882901c600090815261025a602052604090208054600160ff85161b1790555050565b600081815260c96020526040812061077e906124d5565b60606115a3610193611cb9565b905090565b600080516020614ef88339815191526115c081611b54565b60005b8351811015611643578281815181106115de576115de61443b565b60200260200101516101f86000878152602001908152602001600020600086848151811061160e5761160e61443b565b6020026020010151815260200190815260200160002090816116309190614515565b508061163b81614467565b9150506115c3565b50837f9d69ed3cc764cf4f579cfc28312dded7bb202f17cc77aa4d0eb3f8bbaecd88e38484604051610d959291906145ed565b60008281526097602052604090206001015461169181611b54565b610b448383611e95565b6001600160a01b0385163314806116b757506116b7853361066f565b6116d35760405162461bcd60e51b815260040161075090614480565b6109a285858585856124df565b6001600160a01b0383163314806116fc57506116fc833361066f565b6117185760405162461bcd60e51b815260040161075090614480565b610b4483838361261b565b600080516020614ef883398151915261173b81611b54565b60008481526101f76020526040902061175590848461219f565b50604080518481526020810184905285917f5cb4c5f05283d5a84da3f9f1b0fe8b00d7ea8e1fb833812b52114799bdf1acc79101610d95565b600061077e61019383612737565b60006001600160e01b03198216635a05180f60e01b148061077e575061077e82612759565b60008281526101f86020908152604080832084845290915290208054606091906117ea90614401565b80601f016020809104026020016040519081016040528092919081815260200182805461181690614401565b80156118635780601f1061183857610100808354040283529160200191611863565b820191906000526020600020905b81548152906001019060200180831161184657829003601f168201915b5050505050905092915050565b606080606060006118936101f7600087815260200190815260200160002061249d565b90506000816001600160401b038111156118af576118af613a81565b6040519080825280602002602001820160405280156118d8578160200160208202803683370190505b5090506000826001600160401b038111156118f5576118f5613a81565b60405190808252806020026020018201604052801561191e578160200160208202803683370190505b5090506000836001600160401b0381111561193b5761193b613a81565b60405190808252806020026020018201604052801561196e57816020015b60608152602001906001900390816119595790505b50905060005b84811015611ac85760008981526101f76020526040902061199590826124a8565b8583815181106119a7576119a761443b565b602002602001018584815181106119c0576119c061443b565b60200260200101828152508281525050506101f860008a815260200190815260200160002060008583815181106119f9576119f961443b565b602002602001015181526020019081526020016000208054611a1a90614401565b80601f0160208091040260200160405190810160405280929190818152602001828054611a4690614401565b8015611a935780601f10611a6857610100808354040283529160200191611a93565b820191906000526020600020905b815481529060010190602001808311611a7657829003601f168201915b5050505050828281518110611aaa57611aaa61443b565b60200260200101819052508080611ac090614467565b915050611974565b50919790965090945092505050565b60606000611ae686868661277e565b90506000611af3846127e8565b90508181604051602001611b0892919061462e565b60405160208183030381529060405292505050949350505050565b6060611b2e8261297b565b604051602001611b3e919061467b565b6040516020818303038152906040529050919050565b610be78133612acd565b6001600160a01b038416611b845760405162461bcd60e51b8152600401610750906146c0565b8151835114611ba55760405162461bcd60e51b815260040161075090614701565b33611bb581600087878787612b31565b60005b8451811015611c5157838181518110611bd357611bd361443b565b602002602001015160656000878481518110611bf157611bf161443b565b602002602001015181526020019081526020016000206000886001600160a01b03166001600160a01b031681526020019081526020016000206000828254611c399190614749565b90915550819050611c4981614467565b915050611bb8565b50846001600160a01b031660006001600160a01b0316826001600160a01b03167f4a39dc06d4c0dbc64b70af90fd698a233a518aa5d07e595d983b8c0526c8f7fb8787604051611ca2929190613f90565b60405180910390a46109a281600087878787612c39565b60606000610ed983612d94565b8151835114611ce75760405162461bcd60e51b815260040161075090614701565b6001600160a01b038416611d0d5760405162461bcd60e51b81526004016107509061475c565b33611d1c818787878787612b31565b60005b8451811015611e05576000858281518110611d3c57611d3c61443b565b602002602001015190506000858381518110611d5a57611d5a61443b565b60209081029190910181015160008481526065835260408082206001600160a01b038e168352909352919091205490915081811015611dab5760405162461bcd60e51b8152600401610750906147a1565b60008381526065602090815260408083206001600160a01b038e8116855292528083208585039055908b16825281208054849290611dea908490614749565b9250508190555050505080611dfe90614467565b9050611d1f565b50846001600160a01b0316866001600160a01b0316826001600160a01b03167f4a39dc06d4c0dbc64b70af90fd698a233a518aa5d07e595d983b8c0526c8f7fb8787604051611e55929190613f90565b60405180910390a4611e6b818787878787612c39565b505050505050565b611e7d8282612df0565b600082815260c960205260409020610b449082612e76565b611e9f8282612e8b565b600082815260c960205260409020610b449082612ef2565b611ebf612f07565b60fb805460ff191690557f5db9ee0a495bf2e6ff9c91a7834c1ba4fdd244a5e8aa4e537bd38aeae4b073aa335b6040516001600160a01b03909116815260200160405180910390a1565b6001600160a01b038316611f2f5760405162461bcd60e51b8152600401610750906147eb565b8051825114611f505760405162461bcd60e51b815260040161075090614701565b6000339050611f7381856000868660405180602001604052806000815250612b31565b60005b835181101561203b576000848281518110611f9357611f9361443b565b602002602001015190506000848381518110611fb157611fb161443b565b60209081029190910181015160008481526065835260408082206001600160a01b038c1683529093529190912054909150818110156120025760405162461bcd60e51b81526004016107509061482e565b60009283526065602090815260408085206001600160a01b038b168652909152909220910390558061203381614467565b915050611f76565b5060006001600160a01b0316846001600160a01b0316826001600160a01b03167f4a39dc06d4c0dbc64b70af90fd698a233a518aa5d07e595d983b8c0526c8f7fb868660405161208c929190613f90565b60405180910390a4604080516020810190915260009052610e8b565b6001600160a01b0384166120ce5760405162461bcd60e51b8152600401610750906146c0565b3360006120da85612f50565b905060006120e785612f50565b90506120f883600089858589612b31565b60008681526065602090815260408083206001600160a01b038b1684529091528120805487929061212a908490614749565b909155505060408051878152602081018790526001600160a01b03808a1692600092918716917fc3d58168c5ae7397731d063d5bbf3d657854427343f4c083240f7aacaa2d0f62910160405180910390a461218a83600089898989612f9b565b50505050505050565b6000610ed98383613056565b600061153b8484846130c6565b600054610100900460ff166121d35760405162461bcd60e51b815260040161075090614872565b610be7816130e3565b600054610100900460ff166122035760405162461bcd60e51b815260040161075090614872565b565b600054610100900460ff1661222c5760405162461bcd60e51b815260040161075090614872565b612203613113565b600054610100900460ff1661225b5760405162461bcd60e51b815260040161075090614872565b6122636121dc565b61227b600080516020614ed883398151915233611e73565b612203600080516020614eb883398151915233611e73565b600054610100900460ff166122ba5760405162461bcd60e51b815260040161075090614872565b610228610bc38282614515565b600054610100900460ff166122ee5760405162461bcd60e51b815260040161075090614872565b6122f66121dc565b612203600080516020614ef883398151915233611e73565b600054610100900460ff166123355760405162461bcd60e51b815260040161075090614872565b61028b6123428382614515565b5061028c610b448282614515565b612358613146565b60fb805460ff191660011790557f62e78cea01bee320cd4e420270b5ea74000d11b0c9f74754ebdbfc544b05a258611eec3390565b6000610ed9838361318c565b600881901c600090815260208390526040902054600160ff83161b16151592915050565b816001600160a01b0316836001600160a01b0316036124305760405162461bcd60e51b815260206004820152602960248201527f455243313135353a2073657474696e6720617070726f76616c20737461747573604482015268103337b91039b2b63360b91b6064820152608401610750565b6001600160a01b03838116600081815260666020908152604080832094871680845294825291829020805460ff191686151590811790915591519182527f17307eab39ab6107e8899845ad3d59bd9653f200f220920489ca2b5937696c31910160405180910390a3505050565b600061077e826131b6565b60008080806124b786866131c1565b909450925050505b9250929050565b60008080806124b786866131ec565b600061077e825490565b6001600160a01b0384166125055760405162461bcd60e51b81526004016107509061475c565b33600061251185612f50565b9050600061251e85612f50565b905061252e838989858589612b31565b60008681526065602090815260408083206001600160a01b038c168452909152902054858110156125715760405162461bcd60e51b8152600401610750906147a1565b60008781526065602090815260408083206001600160a01b038d8116855292528083208985039055908a168252812080548892906125b0908490614749565b909155505060408051888152602081018890526001600160a01b03808b16928c821692918816917fc3d58168c5ae7397731d063d5bbf3d657854427343f4c083240f7aacaa2d0f62910160405180910390a4612610848a8a8a8a8a612f9b565b505050505050505050565b6001600160a01b0383166126415760405162461bcd60e51b8152600401610750906147eb565b33600061264d84612f50565b9050600061265a84612f50565b905061267a83876000858560405180602001604052806000815250612b31565b60008581526065602090815260408083206001600160a01b038a168452909152902054848110156126bd5760405162461bcd60e51b81526004016107509061482e565b60008681526065602090815260408083206001600160a01b038b81168086529184528285208a8703905582518b81529384018a90529092908816917fc3d58168c5ae7397731d063d5bbf3d657854427343f4c083240f7aacaa2d0f62910160405180910390a460408051602081019091526000905261218a565b6001600160a01b03811660009081526001830160205260408120541515610ed9565b60006001600160e01b03198216637965db0b60e01b148061077e575061077e82613226565b6060600061022861278e86613276565b60405160200161279f9291906148bd565b6040516020818303038152906040529050836127ba86613276565b84836040516020016127cf9493929190614944565b6040516020818303038152906040529150509392505050565b60408051602081019091526000808252606091905b8351811015612952576000600185516128169190614a31565b821461283b57604051806040016040528060018152602001600b60fa1b81525061284c565b604051806020016040528060008152505b905060008583815181106128625761286261443b565b602002602001015160200151516000146128b8578583815181106128885761288861443b565b6020026020010151602001516040516020016128a49190614a44565b6040516020818303038152906040526128c9565b604051806020016040528060008152505b90506000848785815181106128e0576128e061443b565b602002602001015160000151836129138a88815181106129025761290261443b565b602002602001015160400151613276565b86604051602001612928959493929190614a8a565b6040516020818303038152906040529050809450505050808061294a90614467565b9150506127fd565b50806040516020016129649190614b45565b604051602081830303815290604052915050919050565b6060815160000361299a57505060408051602081019091526000815290565b6000604051806060016040528060408152602001614e5860409139905060006003845160026129c99190614749565b6129d39190614b9d565b6129de906004614bb1565b6001600160401b038111156129f5576129f5613a81565b6040519080825280601f01601f191660200182016040528015612a1f576020820181803683370190505b509050600182016020820185865187015b80821015612a8b576003820191508151603f8160121c168501518453600184019350603f81600c1c168501518453600184019350603f8160061c168501518453600184019350603f8116850151845350600183019250612a30565b5050600386510660018114612aa75760028114612aba57612ac2565b603d6001830353603d6002830353612ac2565b603d60018303535b509195945050505050565b612ad78282611292565b610bc357612aef816001600160a01b03166014613376565b612afa836020613376565b604051602001612b0b929190614bd0565b60408051601f198184030181529082905262461bcd60e51b825261075091600401613a55565b612b39613146565b82858560005b8351811015612c2a57612b76848281518110612b5d57612b5d61443b565b602002602001015161025a61239990919063ffffffff16565b1580612b8957506001600160a01b038316155b80612b9b57506001600160a01b038216155b80612bb95750612bb9600080516020614eb883398151915284611292565b80612bd75750612bd7600080516020614eb883398151915283611292565b612c185760405162461bcd60e51b8152602060048201526012602482015271151bdad95b881a5cc81cdbdd5b189bdd5b9960721b6044820152606401610750565b80612c2281614467565b915050612b3f565b50612610898989898989613511565b6001600160a01b0384163b15611e6b5760405163bc197c8160e01b81526001600160a01b0385169063bc197c8190612c7d9089908990889088908890600401614c45565b6020604051808303816000875af1925050508015612cb8575060408051601f3d908101601f19168201909252612cb591810190614ca3565b60015b612d6457612cc4614cc0565b806308c379a003612cfd5750612cd8614cdc565b80612ce35750612cff565b8060405162461bcd60e51b81526004016107509190613a55565b505b60405162461bcd60e51b815260206004820152603460248201527f455243313135353a207472616e7366657220746f206e6f6e20455243313135356044820152732932b1b2b4bb32b91034b6b83632b6b2b73a32b960611b6064820152608401610750565b6001600160e01b0319811663bc197c8160e01b1461218a5760405162461bcd60e51b815260040161075090614d65565b606081600001805480602002602001604051908101604052809291908181526020018280548015612de457602002820191906000526020600020905b815481526020019060010190808311612dd0575b50505050509050919050565b612dfa8282611292565b610bc35760008281526097602090815260408083206001600160a01b03851684529091529020805460ff19166001179055612e323390565b6001600160a01b0316816001600160a01b0316837f2f8788117e7eff1d82e926ec794901d17c78024a50270940304540a733656f0d60405160405180910390a45050565b6000610ed9836001600160a01b038416613747565b612e958282611292565b15610bc35760008281526097602090815260408083206001600160a01b0385168085529252808320805460ff1916905551339285917ff6391f5c32d9c69d2a47ea670b442974b53935d1edc7fd64eb21e047a839171b9190a45050565b6000610ed9836001600160a01b038416613796565b60fb5460ff166122035760405162461bcd60e51b815260206004820152601460248201527314185d5cd8589b194e881b9bdd081c185d5cd95960621b6044820152606401610750565b60408051600180825281830190925260609160009190602080830190803683370190505090508281600081518110612f8a57612f8a61443b565b602090810291909101015292915050565b6001600160a01b0384163b15611e6b5760405163f23a6e6160e01b81526001600160a01b0385169063f23a6e6190612fdf9089908990889088908890600401614dad565b6020604051808303816000875af192505050801561301a575060408051601f3d908101601f1916820190925261301791810190614ca3565b60015b61302657612cc4614cc0565b6001600160e01b0319811663f23a6e6160e01b1461218a5760405162461bcd60e51b815260040161075090614d65565b60008181526002830160205260408120548015158061307a575061307a8484613889565b610ed95760405162461bcd60e51b815260206004820152601e60248201527f456e756d657261626c654d61703a206e6f6e6578697374656e74206b657900006044820152606401610750565b6000828152600284016020526040812082905561153b8484613895565b600054610100900460ff1661310a5760405162461bcd60e51b815260040161075090614872565b610be7816138a1565b600054610100900460ff1661313a5760405162461bcd60e51b815260040161075090614872565b60fb805460ff19169055565b60fb5460ff16156122035760405162461bcd60e51b815260206004820152601060248201526f14185d5cd8589b194e881c185d5cd95960821b6044820152606401610750565b60008260000182815481106131a3576131a361443b565b9060005260206000200154905092915050565b600061077e826124d5565b600080806131cf858561238d565b600081815260029690960160205260409095205494959350505050565b600081815260028301602052604081205481908061321b5761320e8585613889565b9250600091506124bf9050565b6001925090506124bf565b60006001600160e01b03198216636cdb3d1360e11b148061325757506001600160e01b031982166303a24d0760e21b145b8061077e57506301ffc9a760e01b6001600160e01b031983161461077e565b60608160000361329d5750506040805180820190915260018152600360fc1b602082015290565b8160005b81156132c757806132b181614467565b91506132c09050600a83614b9d565b91506132a1565b6000816001600160401b038111156132e1576132e1613a81565b6040519080825280601f01601f19166020018201604052801561330b576020820181803683370190505b5090505b841561153b57613320600183614a31565b915061332d600a86614de7565b613338906030614749565b60f81b81838151811061334d5761334d61443b565b60200101906001600160f81b031916908160001a90535061336f600a86614b9d565b945061330f565b60606000613385836002614bb1565b613390906002614749565b6001600160401b038111156133a7576133a7613a81565b6040519080825280601f01601f1916602001820160405280156133d1576020820181803683370190505b509050600360fc1b816000815181106133ec576133ec61443b565b60200101906001600160f81b031916908160001a905350600f60fb1b8160018151811061341b5761341b61443b565b60200101906001600160f81b031916908160001a905350600061343f846002614bb1565b61344a906001614749565b90505b60018111156134c2576f181899199a1a9b1b9c1cb0b131b232b360811b85600f166010811061347e5761347e61443b565b1a60f81b8282815181106134945761349461443b565b60200101906001600160f81b031916908160001a90535060049490941c936134bb81614dfb565b905061344d565b508315610ed95760405162461bcd60e51b815260206004820181905260248201527f537472696e67733a20686578206c656e67746820696e73756666696369656e746044820152606401610750565b6001600160a01b0385166135c25760005b83518110156135c057600061355b8583815181106135425761354261443b565b602002602001015161015f6124c690919063ffffffff16565b9050809150506135ad8583815181106135765761357661443b565b60200260200101518584815181106135905761359061443b565b6020026020010151836135a39190614749565b61015f919061219f565b5050806135b990614467565b9050613522565b505b6001600160a01b0384166136b85760005b83518110156136b65760008482815181106135f0576135f061443b565b60200260200101519050600084838151811061360e5761360e61443b565b60200260200101519050600061362f8361015f61219390919063ffffffff16565b9050818110156136925760405162461bcd60e51b815260206004820152602860248201527f455243313135353a206275726e20616d6f756e74206578636565647320746f74604482015267616c537570706c7960c01b6064820152608401610750565b6136a161015f8484840361219f565b50505050806136af90614467565b90506135d3565b505b60005b835181101561373457613701868583815181106136da576136da61443b565b60200260200101518584815181106136f4576136f461443b565b60200260200101516138ad565b613724858583815181106137175761371761443b565b6020026020010151613902565b61372d81614467565b90506136bb565b5061373e85613944565b611e6b84613944565b600081815260018301602052604081205461378e5750815460018181018455600084815260208082209093018490558454848252828601909352604090209190915561077e565b50600061077e565b6000818152600183016020526040812054801561387f5760006137ba600183614a31565b85549091506000906137ce90600190614a31565b90508181146138335760008660000182815481106137ee576137ee61443b565b90600052602060002001549050808760000184815481106138115761381161443b565b6000918252602080832090910192909255918252600188019052604090208390555b855486908061384457613844614e12565b60019003818190600052602060002001600090559055856001016000868152602001908152602001600020600090556001935050505061077e565b600091505061077e565b6000610ed98383613968565b6000610ed98383613747565b6067610bc38282614515565b6001600160a01b0383166138c057505050565b60006138cc84846106e9565b90506138d88282614a31565b600003610e8b576001600160a01b0384166000908152610164602052604090206109a29084613980565b6001600160a01b038216613914575050565b6001600160a01b0382166000908152610164602052604090206139379082613895565b50610b4461016283612e76565b606061394f82610da3565b508051909150600003610bc357610b4461016283612ef2565b60008181526001830160205260408120541515610ed9565b6000610ed98383613796565b80356001600160a01b03811681146139a357600080fd5b919050565b600080604083850312156139bb57600080fd5b6139c48361398c565b946020939093013593505050565b6001600160e01b031981168114610be757600080fd5b6000602082840312156139fa57600080fd5b8135610ed9816139d2565b60005b83811015613a20578181015183820152602001613a08565b50506000910152565b60008151808452613a41816020860160208601613a05565b601f01601f19169290920160200192915050565b602081526000610ed96020830184613a29565b600060208284031215613a7a57600080fd5b5035919050565b634e487b7160e01b600052604160045260246000fd5b601f8201601f191681016001600160401b0381118282101715613abc57613abc613a81565b6040525050565b60006001600160401b03821115613adc57613adc613a81565b5060051b60200190565b600082601f830112613af757600080fd5b81356020613b0482613ac3565b604051613b118282613a97565b83815260059390931b8501820192828101915086841115613b3157600080fd5b8286015b84811015613b4c5780358352918301918301613b35565b509695505050505050565b600082601f830112613b6857600080fd5b81356001600160401b03811115613b8157613b81613a81565b604051613b98601f8301601f191660200182613a97565b818152846020838601011115613bad57600080fd5b816020850160208301376000918101602001919091529392505050565b60008060008060808587031215613be057600080fd5b613be98561398c565b935060208501356001600160401b0380821115613c0557600080fd5b613c1188838901613ae6565b94506040870135915080821115613c2757600080fd5b613c3388838901613ae6565b93506060870135915080821115613c4957600080fd5b50613c5687828801613b57565b91505092959194509250565b600081518084526020808501945080840160005b83811015613c9b5781516001600160a01b031687529582019590820190600101613c76565b509495945050505050565b600081518084526020808501945080840160005b83811015613c9b57815187529582019590820190600101613cba565b600081518084526020808501808196508360051b8101915082860160005b85811015613d1e578284038952613d0c848351613ca6565b98850198935090840190600101613cf4565b5091979650505050505050565b606081526000613d3e6060830186613c62565b8281036020840152613d508186613cd6565b90508281036040840152613d648185613cd6565b9695505050505050565b600080600080600060a08688031215613d8657600080fd5b613d8f8661398c565b9450613d9d6020870161398c565b935060408601356001600160401b0380821115613db957600080fd5b613dc589838a01613ae6565b94506060880135915080821115613ddb57600080fd5b613de789838a01613ae6565b93506080880135915080821115613dfd57600080fd5b50613e0a88828901613b57565b9150509295509295909350565b60008060408385031215613e2a57600080fd5b82359150613e3a6020840161398c565b90509250929050565b600082601f830112613e5457600080fd5b81356020613e6182613ac3565b604051613e6e8282613a97565b83815260059390931b8501820192828101915086841115613e8e57600080fd5b8286015b84811015613b4c57613ea38161398c565b8352918301918301613e92565b60008060408385031215613ec357600080fd5b82356001600160401b0380821115613eda57600080fd5b613ee686838701613e43565b93506020850135915080821115613efc57600080fd5b50613f0985828601613ae6565b9150509250929050565b602081526000610ed96020830184613ca6565b600080600060608486031215613f3b57600080fd5b833592506020840135915060408401356001600160401b03811115613f5f57600080fd5b613f6b86828701613b57565b9150509250925092565b600060208284031215613f8757600080fd5b610ed98261398c565b604081526000613fa36040830185613ca6565b8281036020840152613fb58185613ca6565b95945050505050565b600080600060608486031215613fd357600080fd5b613fdc8461398c565b925060208401356001600160401b0380821115613ff857600080fd5b61400487838801613ae6565b9350604086013591508082111561401a57600080fd5b50613f6b86828701613ae6565b60006020828403121561403957600080fd5b81356001600160401b0381111561404f57600080fd5b61153b84828501613ae6565b600081518084526020808501808196508360051b8101915082860160005b85811015613d1e578284038952614091848351613a29565b98850198935090840190600101614079565b602081526000610ed9602083018461405b565b600080600080608085870312156140cc57600080fd5b6140d58561398c565b9350602085013592506040850135915060608501356001600160401b038111156140fe57600080fd5b613c5687828801613b57565b6000806040838503121561411d57600080fd5b50508035926020909101359150565b60008060006060848603121561414157600080fd5b8335925060208401356001600160401b0380821115613ff857600080fd5b60008060006060848603121561417457600080fd5b8335925060208401356001600160401b038082111561419257600080fd5b61400487838801613e43565b600080604083850312156141b157600080fd5b8235915060208301356001600160401b038111156141ce57600080fd5b613f0985828601613ae6565b600080604083850312156141ed57600080fd5b6141f68361398c565b91506020830135801515811461420b57600080fd5b809150509250929050565b602081526000610ed96020830184613c62565b60008060006060848603121561423e57600080fd5b833592506020808501356001600160401b038082111561425d57600080fd5b61426988838901613ae6565b9450604087013591508082111561427f57600080fd5b818701915087601f83011261429357600080fd5b813561429e81613ac3565b6040516142ab8282613a97565b82815260059290921b840185019185810191508a8311156142cb57600080fd5b8585015b83811015614303578035858111156142e75760008081fd5b6142f58d89838a0101613b57565b8452509186019186016142cf565b508096505050505050509250925092565b6000806040838503121561432757600080fd5b6143308361398c565b9150613e3a6020840161398c565b600080600080600060a0868803121561435657600080fd5b61435f8661398c565b945061436d6020870161398c565b9350604086013592506060860135915060808601356001600160401b0381111561439657600080fd5b613e0a88828901613b57565b6000806000606084860312156143b757600080fd5b6143c08461398c565b95602085013595506040909401359392505050565b6000806000606084860312156143ea57600080fd5b505081359360208301359350604090920135919050565b600181811c9082168061441557607f821691505b60208210810361443557634e487b7160e01b600052602260045260246000fd5b50919050565b634e487b7160e01b600052603260045260246000fd5b634e487b7160e01b600052601160045260246000fd5b60006001820161447957614479614451565b5060010190565b6020808252602f908201527f455243313135353a2063616c6c6572206973206e6f7420746f6b656e206f776e60408201526e195c881b9bdc88185c1c1c9bdd9959608a1b606082015260800190565b601f821115610b4457600081815260208120601f850160051c810160208610156144f65750805b601f850160051c820191505b81811015611e6b57828155600101614502565b81516001600160401b0381111561452e5761452e613a81565b6145428161453c8454614401565b846144cf565b602080601f831160018114614577576000841561455f5750858301515b600019600386901b1c1916600185901b178555611e6b565b600085815260208120601f198616915b828110156145a657888601518255948401946001909101908401614587565b50858210156145c45787850151600019600388901b60f8161c191681555b5050505050600190811b01905550565b82815260406020820152600061153b6040830184613a29565b6040815260006146006040830185613ca6565b8281036020840152613fb5818561405b565b60008151614624818560208601613a05565b9290920192915050565b607b60f81b81526000835161464a816001850160208801613a05565b835190830190614661816001840160208801613a05565b607d60f81b60019290910191820152600201949350505050565b7f646174613a6170706c69636174696f6e2f6a736f6e3b6261736536342c0000008152600082516146b381601d850160208701613a05565b91909101601d0192915050565b60208082526021908201527f455243313135353a206d696e7420746f20746865207a65726f206164647265736040820152607360f81b606082015260800190565b60208082526028908201527f455243313135353a2069647320616e6420616d6f756e7473206c656e677468206040820152670dad2e6dac2e8c6d60c31b606082015260800190565b8082018082111561077e5761077e614451565b60208082526025908201527f455243313135353a207472616e7366657220746f20746865207a65726f206164604082015264647265737360d81b606082015260800190565b6020808252602a908201527f455243313135353a20696e73756666696369656e742062616c616e636520666f60408201526939103a3930b739b332b960b11b606082015260800190565b60208082526023908201527f455243313135353a206275726e2066726f6d20746865207a65726f206164647260408201526265737360e81b606082015260800190565b60208082526024908201527f455243313135353a206275726e20616d6f756e7420657863656564732062616c604082015263616e636560e01b606082015260800190565b6020808252602b908201527f496e697469616c697a61626c653a20636f6e7472616374206973206e6f74206960408201526a6e697469616c697a696e6760a81b606082015260800190565b60008084546148cb81614401565b600182811680156148e357600181146148f857614927565b60ff1984168752821515830287019450614927565b8860005260208060002060005b8581101561491e5781548a820152908401908201614905565b50505082870194505b50505050835161493b818360208801613a05565b01949350505050565b67113730b6b2911d1160c11b81528451600090614968816008850160208a01613a05565b61088b60f21b600891840191820181905269113a37b5b2b724b2111d60b11b600a830152865161499f816014850160208b01613a05565b600b60fa1b601493909101928301526e113232b9b1b934b83a34b7b7111d1160891b601583015285516149d9816024850160208a01613a05565b6024920191820152681134b6b0b3b2911d1160b91b6026820152610973614a14614a06602f840187614612565b61088b60f21b815260020190565b70089d1e5c19488e88915490cc4c4d4d488b607a1b815260110190565b8181038181111561077e5761077e614451565b703d913234b9b83630bcafba3cb832911d1160791b81528151600090614a71816011850160208701613a05565b61088b60f21b6011939091019283015250601301919050565b60008651614a9c818460208b01613a05565b6e3d913a3930b4ba2fba3cb832911d1160891b9083019081528651614ac881600f840160208b01613a05565b61088b60f21b600f92909101918201528551614aeb816011840160208a01613a05565b67113b30b63ab2911d60c11b601192909101918201528451614b14816019840160208901613a05565b607d60f81b601992909101918201528351614b3681601a840160208801613a05565b01601a01979650505050505050565b6d2261747472696275746573223a5b60901b81528151600090614b6f81600e850160208701613a05565b605d60f81b600e939091019283015250600f01919050565b634e487b7160e01b600052601260045260246000fd5b600082614bac57614bac614b87565b500490565b6000816000190483118215151615614bcb57614bcb614451565b500290565b7f416363657373436f6e74726f6c3a206163636f756e7420000000000000000000815260008351614c08816017850160208801613a05565b7001034b99036b4b9b9b4b733903937b6329607d1b6017918401918201528351614c39816028840160208801613a05565b01602801949350505050565b6001600160a01b0386811682528516602082015260a060408201819052600090614c7190830186613ca6565b8281036060840152614c838186613ca6565b90508281036080840152614c978185613a29565b98975050505050505050565b600060208284031215614cb557600080fd5b8151610ed9816139d2565b600060033d1115614cd95760046000803e5060005160e01c5b90565b600060443d1015614cea5790565b6040516003193d81016004833e81513d6001600160401b038160248401118184111715614d1957505050505090565b8285019150815181811115614d315750505050505090565b843d8701016020828501011115614d4b5750505050505090565b614d5a60208286010187613a97565b509095945050505050565b60208082526028908201527f455243313135353a204552433131353552656365697665722072656a656374656040820152676420746f6b656e7360c01b606082015260800190565b6001600160a01b03868116825285166020820152604081018490526060810183905260a06080820181905260009061097390830184613a29565b600082614df657614df6614b87565b500690565b600081614e0a57614e0a614451565b506000190190565b634e487b7160e01b600052603160045260246000fdfe68747470733a2f2f696d616765732e636f736d6963756e6976657273652e696f2f636f736d69632d6261646765732f4142434445464748494a4b4c4d4e4f505152535455565758595a6162636465666768696a6b6c6d6e6f707172737475767778797a303132333435363738392b2f9f2df0fed2c77648de5860a4cc508cd0818c85b8b8a1ab4ceeef8d981c8956a6f01ee2eb8c5679535f9dfef3543570e280865ec756856c5772fe3e6718c5c074a49807205ce4d355092ef5a8a18f56e8913cf4a201fbe287825b095693c21775364d3d7565c7a8300c96fd53e065d19b65848d7b23b3191adcd55621c744223ca2646970667358221220e9e6431e2b574bfc88003a49a83d9661d0a00409a0c30f23485a1579d36d0d9f64736f6c63430008100033",
  "linkReferences": {},
  "deployedLinkReferences": {}
}