{
  "_format": "hh-sol-artifact-1",
  "contractName": "CosmicBadges",
  "sourceName": "contracts/upgradeable/ERC1155/CosmicBadges.sol",
  "abi": [
    {
      "inputs": [],
      "stateMutability": "nonpayable",
      "type": "constructor"
    },
    {
      "anonymous": false,
      "inputs": [
        {
          "indexed": true,
          "internalType": "address",
          "name": "account",
          "type": "address"
        },
        {
          "indexed": true,
          "internalType": "address",
          "name": "operator",
          "type": "address"
        },
        {
          "indexed": false,
          "internalType": "bool",
          "name": "approved",
          "type": "bool"
        }
      ],
      "name": "ApprovalForAll",
      "type": "event"
    },
    {
      "anonymous": false,
      "inputs": [
        {
          "indexed": false,
          "internalType": "uint8",
          "name": "version",
          "type": "uint8"
        }
      ],
      "name": "Initialized",
      "type": "event"
    },
    {
      "anonymous": false,
      "inputs": [
        {
          "indexed": true,
          "internalType": "uint256",
          "name": "tokenId",
          "type": "uint256"
        },
        {
          "indexed": false,
          "internalType": "uint256",
          "name": "attributeId",
          "type": "uint256"
        },
        {
          "indexed": false,
          "internalType": "string",
          "name": "name",
          "type": "string"
        }
      ],
      "name": "NameUpdated",
      "type": "event"
    },
    {
      "anonymous": false,
      "inputs": [
        {
          "indexed": true,
          "internalType": "uint256",
          "name": "tokenId",
          "type": "uint256"
        },
        {
          "indexed": false,
          "internalType": "uint256[]",
          "name": "attributeIds",
          "type": "uint256[]"
        },
        {
          "indexed": false,
          "internalType": "string[]",
          "name": "names",
          "type": "string[]"
        }
      ],
      "name": "NamesUpdated",
      "type": "event"
    },
    {
      "anonymous": false,
      "inputs": [
        {
          "indexed": false,
          "internalType": "address",
          "name": "account",
          "type": "address"
        }
      ],
      "name": "Paused",
      "type": "event"
    },
    {
      "anonymous": false,
      "inputs": [
        {
          "indexed": true,
          "internalType": "bytes32",
          "name": "role",
          "type": "bytes32"
        },
        {
          "indexed": true,
          "internalType": "bytes32",
          "name": "previousAdminRole",
          "type": "bytes32"
        },
        {
          "indexed": true,
          "internalType": "bytes32",
          "name": "newAdminRole",
          "type": "bytes32"
        }
      ],
      "name": "RoleAdminChanged",
      "type": "event"
    },
    {
      "anonymous": false,
      "inputs": [
        {
          "indexed": true,
          "internalType": "bytes32",
          "name": "role",
          "type": "bytes32"
        },
        {
          "indexed": true,
          "internalType": "address",
          "name": "account",
          "type": "address"
        },
        {
          "indexed": true,
          "internalType": "address",
          "name": "sender",
          "type": "address"
        }
      ],
      "name": "RoleGranted",
      "type": "event"
    },
    {
      "anonymous": false,
      "inputs": [
        {
          "indexed": true,
          "internalType": "bytes32",
          "name": "role",
          "type": "bytes32"
        },
        {
          "indexed": true,
          "internalType": "address",
          "name": "account",
          "type": "address"
        },
        {
          "indexed": true,
          "internalType": "address",
          "name": "sender",
          "type": "address"
        }
      ],
      "name": "RoleRevoked",
      "type": "event"
    },
    {
      "anonymous": false,
      "inputs": [
        {
          "indexed": true,
          "internalType": "address",
          "name": "operator",
          "type": "address"
        },
        {
          "indexed": true,
          "internalType": "address",
          "name": "from",
          "type": "address"
        },
        {
          "indexed": true,
          "internalType": "address",
          "name": "to",
          "type": "address"
        },
        {
          "indexed": false,
          "internalType": "uint256[]",
          "name": "ids",
          "type": "uint256[]"
        },
        {
          "indexed": false,
          "internalType": "uint256[]",
          "name": "values",
          "type": "uint256[]"
        }
      ],
      "name": "TransferBatch",
      "type": "event"
    },
    {
      "anonymous": false,
      "inputs": [
        {
          "indexed": true,
          "internalType": "address",
          "name": "operator",
          "type": "address"
        },
        {
          "indexed": true,
          "internalType": "address",
          "name": "from",
          "type": "address"
        },
        {
          "indexed": true,
          "internalType": "address",
          "name": "to",
          "type": "address"
        },
        {
          "indexed": false,
          "internalType": "uint256",
          "name": "id",
          "type": "uint256"
        },
        {
          "indexed": false,
          "internalType": "uint256",
          "name": "value",
          "type": "uint256"
        }
      ],
      "name": "TransferSingle",
      "type": "event"
    },
    {
      "anonymous": false,
      "inputs": [
        {
          "indexed": false,
          "internalType": "string",
          "name": "value",
          "type": "string"
        },
        {
          "indexed": true,
          "internalType": "uint256",
          "name": "id",
          "type": "uint256"
        }
      ],
      "name": "URI",
      "type": "event"
    },
    {
      "anonymous": false,
      "inputs": [
        {
          "indexed": false,
          "internalType": "address",
          "name": "account",
          "type": "address"
        }
      ],
      "name": "Unpaused",
      "type": "event"
    },
    {
      "anonymous": false,
      "inputs": [
        {
          "indexed": true,
          "internalType": "uint256",
          "name": "tokenId",
          "type": "uint256"
        },
        {
          "indexed": false,
          "internalType": "uint256",
          "name": "attributeId",
          "type": "uint256"
        },
        {
          "indexed": false,
          "internalType": "uint256",
          "name": "value",
          "type": "uint256"
        }
      ],
      "name": "ValueUpdated",
      "type": "event"
    },
    {
      "anonymous": false,
      "inputs": [
        {
          "indexed": true,
          "internalType": "uint256",
          "name": "tokenId",
          "type": "uint256"
        },
        {
          "indexed": false,
          "internalType": "uint256[]",
          "name": "attributeIds",
          "type": "uint256[]"
        },
        {
          "indexed": false,
          "internalType": "uint256[]",
          "name": "values",
          "type": "uint256[]"
        }
      ],
      "name": "ValuesUpdated",
      "type": "event"
    },
    {
      "inputs": [],
      "name": "ADMIN_ROLE",
      "outputs": [
        {
          "internalType": "bytes32",
          "name": "",
          "type": "bytes32"
        }
      ],
      "stateMutability": "view",
      "type": "function"
    },
    {
      "inputs": [],
      "name": "CONTRACT_ROLE",
      "outputs": [
        {
          "internalType": "bytes32",
          "name": "",
          "type": "bytes32"
        }
      ],
      "stateMutability": "view",
      "type": "function"
    },
    {
      "inputs": [],
      "name": "DEFAULT_ADMIN_ROLE",
      "outputs": [
        {
          "internalType": "bytes32",
          "name": "",
          "type": "bytes32"
        }
      ],
      "stateMutability": "view",
      "type": "function"
    },
    {
      "inputs": [],
      "name": "MINTER_ROLE",
      "outputs": [
        {
          "internalType": "bytes32",
          "name": "",
          "type": "bytes32"
        }
      ],
      "stateMutability": "view",
      "type": "function"
    },
    {
      "inputs": [],
      "name": "SOULBOUND_WHITELIST_ROLE",
      "outputs": [
        {
          "internalType": "bytes32",
          "name": "",
          "type": "bytes32"
        }
      ],
      "stateMutability": "view",
      "type": "function"
    },
    {
      "inputs": [],
      "name": "activeIds",
      "outputs": [
        {
          "internalType": "uint256[]",
          "name": "",
          "type": "uint256[]"
        }
      ],
      "stateMutability": "view",
      "type": "function"
    },
    {
      "inputs": [
        {
          "internalType": "address",
          "name": "account",
          "type": "address"
        },
        {
          "internalType": "uint256",
          "name": "id",
          "type": "uint256"
        }
      ],
      "name": "balanceOf",
      "outputs": [
        {
          "internalType": "uint256",
          "name": "",
          "type": "uint256"
        }
      ],
      "stateMutability": "view",
      "type": "function"
    },
    {
      "inputs": [],
      "name": "balanceOfAll",
      "outputs": [
        {
          "internalType": "address[]",
          "name": "owners",
          "type": "address[]"
        },
        {
          "internalType": "uint256[][]",
          "name": "tokenIds",
          "type": "uint256[][]"
        },
        {
          "internalType": "uint256[][]",
          "name": "balances",
          "type": "uint256[][]"
        }
      ],
      "stateMutability": "view",
      "type": "function"
    },
    {
      "inputs": [
        {
          "internalType": "address[]",
          "name": "accounts",
          "type": "address[]"
        },
        {
          "internalType": "uint256[]",
          "name": "ids",
          "type": "uint256[]"
        }
      ],
      "name": "balanceOfBatch",
      "outputs": [
        {
          "internalType": "uint256[]",
          "name": "",
          "type": "uint256[]"
        }
      ],
      "stateMutability": "view",
      "type": "function"
    },
    {
      "inputs": [
        {
          "internalType": "uint256",
          "name": "tokenId",
          "type": "uint256"
        },
        {
          "internalType": "uint256[]",
          "name": "attributeIds",
          "type": "uint256[]"
        }
      ],
      "name": "batchGetAttribute",
      "outputs": [
        {
          "internalType": "uint256[]",
          "name": "",
          "type": "uint256[]"
        }
      ],
      "stateMutability": "view",
      "type": "function"
    },
    {
      "inputs": [
        {
          "internalType": "uint256",
          "name": "tokenId",
          "type": "uint256"
        },
        {
          "internalType": "uint256[]",
          "name": "attributeIds",
          "type": "uint256[]"
        },
        {
          "internalType": "uint256[]",
          "name": "values",
          "type": "uint256[]"
        }
      ],
      "name": "batchSetAttribute",
      "outputs": [],
      "stateMutability": "nonpayable",
      "type": "function"
    },
    {
      "inputs": [
        {
          "internalType": "uint256",
          "name": "tokenId",
          "type": "uint256"
        },
        {
          "internalType": "uint256[]",
          "name": "attributeIds",
          "type": "uint256[]"
        },
        {
          "internalType": "string[]",
          "name": "names",
          "type": "string[]"
        }
      ],
      "name": "batchSetAttributeName",
      "outputs": [],
      "stateMutability": "nonpayable",
      "type": "function"
    },
    {
      "inputs": [
        {
          "internalType": "uint256[]",
          "name": "tokenIds",
          "type": "uint256[]"
        }
      ],
      "name": "batchTokenURI",
      "outputs": [
        {
          "internalType": "string[]",
          "name": "",
          "type": "string[]"
        }
      ],
      "stateMutability": "view",
      "type": "function"
    },
    {
      "inputs": [
        {
          "internalType": "uint256[]",
          "name": "tokenIds",
          "type": "uint256[]"
        }
      ],
      "name": "batchUri",
      "outputs": [
        {
          "internalType": "string[]",
          "name": "",
          "type": "string[]"
        }
      ],
      "stateMutability": "view",
      "type": "function"
    },
    {
      "inputs": [
        {
          "internalType": "address",
          "name": "account",
          "type": "address"
        },
        {
          "internalType": "uint256",
          "name": "id",
          "type": "uint256"
        },
        {
          "internalType": "uint256",
          "name": "value",
          "type": "uint256"
        }
      ],
      "name": "burn",
      "outputs": [],
      "stateMutability": "nonpayable",
      "type": "function"
    },
    {
      "inputs": [
        {
          "internalType": "address",
          "name": "from",
          "type": "address"
        },
        {
          "internalType": "uint256[]",
          "name": "ids",
          "type": "uint256[]"
        },
        {
          "internalType": "uint256[]",
          "name": "amounts",
          "type": "uint256[]"
        }
      ],
      "name": "burnBatch",
      "outputs": [],
      "stateMutability": "nonpayable",
      "type": "function"
    },
    {
      "inputs": [
        {
          "internalType": "uint256",
          "name": "id",
          "type": "uint256"
        }
      ],
      "name": "exists",
      "outputs": [
        {
          "internalType": "bool",
          "name": "",
          "type": "bool"
        }
      ],
      "stateMutability": "view",
      "type": "function"
    },
    {
      "inputs": [
        {
          "internalType": "uint256",
          "name": "tokenId",
          "type": "uint256"
        },
        {
          "internalType": "uint256",
          "name": "attributeId",
          "type": "uint256"
        }
      ],
      "name": "getAttribute",
      "outputs": [
        {
          "internalType": "uint256",
          "name": "",
          "type": "uint256"
        }
      ],
      "stateMutability": "view",
      "type": "function"
    },
    {
      "inputs": [],
      "name": "getBlacklisted",
      "outputs": [
        {
          "internalType": "address[]",
          "name": "",
          "type": "address[]"
        }
      ],
      "stateMutability": "view",
      "type": "function"
    },
    {
      "inputs": [
        {
          "internalType": "bytes32",
          "name": "role",
          "type": "bytes32"
        }
      ],
      "name": "getRoleAdmin",
      "outputs": [
        {
          "internalType": "bytes32",
          "name": "",
          "type": "bytes32"
        }
      ],
      "stateMutability": "view",
      "type": "function"
    },
    {
      "inputs": [
        {
          "internalType": "bytes32",
          "name": "role",
          "type": "bytes32"
        },
        {
          "internalType": "uint256",
          "name": "index",
          "type": "uint256"
        }
      ],
      "name": "getRoleMember",
      "outputs": [
        {
          "internalType": "address",
          "name": "",
          "type": "address"
        }
      ],
      "stateMutability": "view",
      "type": "function"
    },
    {
      "inputs": [
        {
          "internalType": "bytes32",
          "name": "role",
          "type": "bytes32"
        }
      ],
      "name": "getRoleMemberCount",
      "outputs": [
        {
          "internalType": "uint256",
          "name": "",
          "type": "uint256"
        }
      ],
      "stateMutability": "view",
      "type": "function"
    },
    {
      "inputs": [
        {
          "internalType": "bytes32",
          "name": "role",
          "type": "bytes32"
        },
        {
          "internalType": "address",
          "name": "account",
          "type": "address"
        }
      ],
      "name": "grantRole",
      "outputs": [],
      "stateMutability": "nonpayable",
      "type": "function"
    },
    {
      "inputs": [
        {
          "internalType": "bytes32",
          "name": "role",
          "type": "bytes32"
        },
        {
          "internalType": "address",
          "name": "account",
          "type": "address"
        }
      ],
      "name": "hasRole",
      "outputs": [
        {
          "internalType": "bool",
          "name": "",
          "type": "bool"
        }
      ],
      "stateMutability": "view",
      "type": "function"
    },
    {
      "inputs": [],
      "name": "imageBaseURI",
      "outputs": [
        {
          "internalType": "string",
          "name": "",
          "type": "string"
        }
      ],
      "stateMutability": "view",
      "type": "function"
    },
    {
      "inputs": [],
      "name": "initialize",
      "outputs": [],
      "stateMutability": "nonpayable",
      "type": "function"
    },
    {
      "inputs": [
        {
          "internalType": "address",
          "name": "account",
          "type": "address"
        },
        {
          "internalType": "address",
          "name": "operator",
          "type": "address"
        }
      ],
      "name": "isApprovedForAll",
      "outputs": [
        {
          "internalType": "bool",
          "name": "",
          "type": "bool"
        }
      ],
      "stateMutability": "view",
      "type": "function"
    },
    {
      "inputs": [
        {
          "internalType": "address",
          "name": "user",
          "type": "address"
        }
      ],
      "name": "isBlacklisted",
      "outputs": [
        {
          "internalType": "bool",
          "name": "",
          "type": "bool"
        }
      ],
      "stateMutability": "view",
      "type": "function"
    },
    {
      "inputs": [
        {
          "internalType": "address",
          "name": "account",
          "type": "address"
        },
        {
          "internalType": "uint256",
          "name": "id",
          "type": "uint256"
        },
        {
          "internalType": "uint256",
          "name": "amount",
          "type": "uint256"
        },
        {
          "internalType": "bytes",
          "name": "data",
          "type": "bytes"
        }
      ],
      "name": "mint",
      "outputs": [],
      "stateMutability": "nonpayable",
      "type": "function"
    },
    {
      "inputs": [
        {
          "internalType": "address",
          "name": "to",
          "type": "address"
        },
        {
          "internalType": "uint256[]",
          "name": "ids",
          "type": "uint256[]"
        },
        {
          "internalType": "uint256[]",
          "name": "amounts",
          "type": "uint256[]"
        },
        {
          "internalType": "bytes",
          "name": "data",
          "type": "bytes"
        }
      ],
      "name": "mintBatch",
      "outputs": [],
      "stateMutability": "nonpayable",
      "type": "function"
    },
    {
      "inputs": [
        {
          "internalType": "uint256",
          "name": "id",
          "type": "uint256"
        },
        {
          "internalType": "address[]",
          "name": "to",
          "type": "address[]"
        },
        {
          "internalType": "uint256[]",
          "name": "amounts",
          "type": "uint256[]"
        }
      ],
      "name": "mintBatchOf",
      "outputs": [],
      "stateMutability": "nonpayable",
      "type": "function"
    },
    {
      "inputs": [],
      "name": "name",
      "outputs": [
        {
          "internalType": "string",
          "name": "",
          "type": "string"
        }
      ],
      "stateMutability": "view",
      "type": "function"
    },
    {
      "inputs": [],
      "name": "pause",
      "outputs": [],
      "stateMutability": "nonpayable",
      "type": "function"
    },
    {
      "inputs": [],
      "name": "paused",
      "outputs": [
        {
          "internalType": "bool",
          "name": "",
          "type": "bool"
        }
      ],
      "stateMutability": "view",
      "type": "function"
    },
    {
      "inputs": [
        {
          "internalType": "bytes32",
          "name": "role",
          "type": "bytes32"
        },
        {
          "internalType": "address",
          "name": "account",
          "type": "address"
        }
      ],
      "name": "renounceRole",
      "outputs": [],
      "stateMutability": "nonpayable",
      "type": "function"
    },
    {
      "inputs": [
        {
          "internalType": "bytes32",
          "name": "role",
          "type": "bytes32"
        },
        {
          "internalType": "address",
          "name": "account",
          "type": "address"
        }
      ],
      "name": "revokeRole",
      "outputs": [],
      "stateMutability": "nonpayable",
      "type": "function"
    },
    {
      "inputs": [
        {
          "internalType": "address",
          "name": "from",
          "type": "address"
        },
        {
          "internalType": "address",
          "name": "to",
          "type": "address"
        },
        {
          "internalType": "uint256[]",
          "name": "ids",
          "type": "uint256[]"
        },
        {
          "internalType": "uint256[]",
          "name": "amounts",
          "type": "uint256[]"
        },
        {
          "internalType": "bytes",
          "name": "data",
          "type": "bytes"
        }
      ],
      "name": "safeBatchTransferFrom",
      "outputs": [],
      "stateMutability": "nonpayable",
      "type": "function"
    },
    {
      "inputs": [
        {
          "internalType": "address",
          "name": "from",
          "type": "address"
        },
        {
          "internalType": "address",
          "name": "to",
          "type": "address"
        },
        {
          "internalType": "uint256",
          "name": "id",
          "type": "uint256"
        },
        {
          "internalType": "uint256",
          "name": "amount",
          "type": "uint256"
        },
        {
          "internalType": "bytes",
          "name": "data",
          "type": "bytes"
        }
      ],
      "name": "safeTransferFrom",
      "outputs": [],
      "stateMutability": "nonpayable",
      "type": "function"
    },
    {
      "inputs": [
        {
          "internalType": "address",
          "name": "operator",
          "type": "address"
        },
        {
          "internalType": "bool",
          "name": "approved",
          "type": "bool"
        }
      ],
      "name": "setApprovalForAll",
      "outputs": [],
      "stateMutability": "nonpayable",
      "type": "function"
    },
    {
      "inputs": [
        {
          "internalType": "uint256",
          "name": "tokenId",
          "type": "uint256"
        },
        {
          "internalType": "uint256",
          "name": "attributeId",
          "type": "uint256"
        },
        {
          "internalType": "uint256",
          "name": "value",
          "type": "uint256"
        }
      ],
      "name": "setAttribute",
      "outputs": [],
      "stateMutability": "nonpayable",
      "type": "function"
    },
    {
      "inputs": [
        {
          "internalType": "uint256",
          "name": "tokenId",
          "type": "uint256"
        },
        {
          "internalType": "uint256",
          "name": "attributeId",
          "type": "uint256"
        },
        {
          "internalType": "string",
          "name": "name",
          "type": "string"
        }
      ],
      "name": "setAttributeName",
      "outputs": [],
      "stateMutability": "nonpayable",
      "type": "function"
    },
    {
      "inputs": [
        {
          "internalType": "uint256",
          "name": "tokenId",
          "type": "uint256"
        }
      ],
      "name": "setSoulbound",
      "outputs": [],
      "stateMutability": "nonpayable",
      "type": "function"
    },
    {
      "inputs": [
        {
          "internalType": "bytes4",
          "name": "interfaceId",
          "type": "bytes4"
        }
      ],
      "name": "supportsInterface",
      "outputs": [
        {
          "internalType": "bool",
          "name": "",
          "type": "bool"
        }
      ],
      "stateMutability": "view",
      "type": "function"
    },
    {
      "inputs": [],
      "name": "symbol",
      "outputs": [
        {
          "internalType": "string",
          "name": "",
          "type": "string"
        }
      ],
      "stateMutability": "view",
      "type": "function"
    },
    {
      "inputs": [
        {
          "internalType": "uint256",
          "name": "tokenId",
          "type": "uint256"
        }
      ],
      "name": "tokenURI",
      "outputs": [
        {
          "internalType": "string",
          "name": "",
          "type": "string"
        }
      ],
      "stateMutability": "view",
      "type": "function"
    },
    {
      "inputs": [
        {
          "internalType": "address",
          "name": "owner",
          "type": "address"
        }
      ],
      "name": "tokensOf",
      "outputs": [
        {
          "internalType": "uint256[]",
          "name": "tokenIds",
          "type": "uint256[]"
        },
        {
          "internalType": "uint256[]",
          "name": "balances",
          "type": "uint256[]"
        }
      ],
      "stateMutability": "view",
      "type": "function"
    },
    {
      "inputs": [
        {
          "internalType": "uint256",
          "name": "id",
          "type": "uint256"
        }
      ],
      "name": "totalSupply",
      "outputs": [
        {
          "internalType": "uint256",
          "name": "",
          "type": "uint256"
        }
      ],
      "stateMutability": "view",
      "type": "function"
    },
    {
      "inputs": [],
      "name": "unpause",
      "outputs": [],
      "stateMutability": "nonpayable",
      "type": "function"
    },
    {
      "inputs": [
        {
          "internalType": "uint256",
          "name": "tokenId",
          "type": "uint256"
        }
      ],
      "name": "unsetSoulbound",
      "outputs": [],
      "stateMutability": "nonpayable",
      "type": "function"
    },
    {
      "inputs": [
        {
          "internalType": "uint256",
          "name": "tokenId",
          "type": "uint256"
        }
      ],
      "name": "uri",
      "outputs": [
        {
          "internalType": "string",
          "name": "",
          "type": "string"
        }
      ],
      "stateMutability": "view",
      "type": "function"
    }
  ],
  "bytecode": "0x60806040523480156200001157600080fd5b506200001c62000022565b620000e4565b600054610100900460ff16156200008f5760405162461bcd60e51b815260206004820152602760248201527f496e697469616c697a61626c653a20636f6e747261637420697320696e697469604482015266616c697a696e6760c81b606482015260840160405180910390fd5b60005460ff9081161015620000e2576000805460ff191660ff9081179091556040519081527f7f26b83ff96e1f2b6a682f133852f6798a09c465da95921460cefb38474024989060200160405180910390a15b565b614d2480620000f46000396000f3fe608060405234801561001057600080fd5b50600436106102d55760003560e01c80638456cb5911610182578063bd85b039116100e9578063d5391393116100a2578063f242432a1161007c578063f242432a1461069d578063f5298aca146106b0578063fd5eea4e146106c3578063fe575a87146106d657600080fd5b8063d539139314610639578063d547741f1461064e578063e985e9c51461066157600080fd5b8063bd85b039146105c5578063c385ce25146105d8578063c87b56dd146105eb578063ca15c873146105fe578063ce3675ad14610611578063d179191a1461062657600080fd5b8063994a95be1161013b578063994a95be14610567578063a17d79ec1461057a578063a217fddf1461058f578063a22cb46514610597578063b0fe60d5146105aa578063b198ce46146105bd57600080fd5b80638456cb59146104f357806387be85d3146104fb5780639010d07c1461050e57806391d148541461053957806395d89b411461054c57806396c45e2f1461055457600080fd5b80634e1273f4116102415780636d94f13a116101fa5780637685945e116101d45780637685945e146104bd57806377645839146104d05780637d7a6d13146104d85780638129fc1c146104eb57600080fd5b80636d94f13a14610475578063731133e91461049557806375b238fc146104a857600080fd5b80634e1273f4146103f05780634f558e791461041057806358870da1146104235780635a3f2672146104365780635c975abb146104575780636b20c4541461046257600080fd5b8063208e509f11610293578063208e509f14610375578063248a9ca31461038c5780632eb2c2d6146103af5780632f2ff15d146103c257806336568abe146103d55780633f4ba83a146103e857600080fd5b8062fdd58e146102da57806301ffc9a71461030057806303fe46ab1461032357806306fdde03146103385780630e89341c1461034d5780631f7fdffa14610360575b600080fd5b6102ed6102e8366004613804565b6106e9565b6040519081526020015b60405180910390f35b61031361030e366004613844565b610784565b60405190151581526020016102f7565b6102ed600080516020614ccf83398151915281565b61034061078f565b6040516102f791906138b1565b61034061035b3660046138c4565b61081e565b61037361036e366004613a26565b610976565b005b61037d6109a1565b6040516102f793929190613b87565b6102ed61039a3660046138c4565b60009081526097602052604090206001015490565b6103736103bd366004613bca565b610ad2565b6103736103d0366004613c73565b610b17565b6103736103e3366004613c73565b610b41565b610373610bbf565b6104036103fe366004613d0c565b610be2565b6040516102f79190613d6f565b61031361041e3660046138c4565b610d0b565b610373610431366004613d82565b610d1e565b610449610444366004613dd1565b610d9b565b6040516102f7929190613dec565b60fb5460ff16610313565b610373610470366004613e1a565b610e60565b610488610483366004613e83565b610e89565b6040516102f79190613eff565b6103736104a3366004613f12565b610e94565b6102ed600080516020614caf83398151915281565b6102ed6104cb366004613f66565b610eb8565b610340610ed8565b6103736104e6366004613f88565b610ee6565b610373610faa565b6103736111ab565b610373610509366004613fbb565b6111cb565b61052161051c366004613f66565b61124e565b6040516001600160a01b0390911681526020016102f7565b610313610547366004613c73565b611266565b610340611291565b6103736105623660046138c4565b61129f565b610403610575366004613ffa565b6112dc565b6102ed600080516020614c8f83398151915281565b6102ed600081565b6103736105a5366004614036565b61139f565b6104886105b8366004613e83565b6113aa565b610403611462565b6102ed6105d33660046138c4565b611500565b6103736105e63660046138c4565b611517565b6103406105f93660046138c4565b611553565b6102ed61060c3660046138c4565b61155e565b610619611575565b6040516102f79190614072565b610373610634366004614085565b611587565b6102ed600080516020614c6f83398151915281565b61037361065c366004613c73565b611655565b61031361066f366004614170565b6001600160a01b03918216600090815260666020908152604080832093909416825291909152205460ff1690565b6103736106ab36600461419a565b61167a565b6103736106be3660046141fe565b6116bf565b6103736106d1366004614231565b611702565b6103136106e4366004613dd1565b61176d565b60006001600160a01b0383166107595760405162461bcd60e51b815260206004820152602a60248201527f455243313135353a2061646472657373207a65726f206973206e6f742061207660448201526930b634b21037bbb732b960b11b60648201526084015b60405180910390fd5b5060008181526065602090815260408083206001600160a01b03861684529091529020545b92915050565b600061077e8261177b565b61028b805461079d9061425d565b80601f01602080910402602001604051908101604052809291908181526020018280546107c99061425d565b80156108165780601f106107eb57610100808354040283529160200191610816565b820191906000526020600020905b8154815290600101906020018083116107f957829003601f168201915b505050505081565b6060600061082e836103e86117a0565b9050600061083e846103e96117a0565b905060608061084c8661184f565b81519194509250600091506001600160401b0381111561086e5761086e6138dd565b6040519080825280602002602001820160405280156108c357816020015b6108b060405180606001604052806060815260200160608152602001600081525090565b81526020019060019003908161088c5790505b50905060005b835181101561095e5760405180606001604052808483815181106108ef576108ef614297565b6020026020010151815260200160405180602001604052806000815250815260200185838151811061092357610923614297565b602002602001015181525082828151811061094057610940614297565b60200260200101819052508080610956906142c3565b9150506108c9565b5061096b87868684611ab6565b979650505050505050565b600080516020614c6f83398151915261098e81611b02565b61099a85858585611b0c565b5050505050565b60608060606109b1610162611c67565b925082516001600160401b038111156109cc576109cc6138dd565b6040519080825280602002602001820160405280156109ff57816020015b60608152602001906001900390816109ea5790505b50915082516001600160401b03811115610a1b57610a1b6138dd565b604051908082528060200260200182016040528015610a4e57816020015b6060815260200190600190039081610a395790505b50905060005b8351811015610acc57610a7f848281518110610a7257610a72614297565b6020026020010151610d9b565b848381518110610a9157610a91614297565b60200260200101848481518110610aaa57610aaa614297565b6020026020010182905282905250508080610ac4906142c3565b915050610a54565b50909192565b6001600160a01b038516331480610aee5750610aee853361066f565b610b0a5760405162461bcd60e51b8152600401610750906142dc565b61099a8585858585611c74565b600082815260976020526040902060010154610b3281611b02565b610b3c8383611e21565b505050565b6001600160a01b0381163314610bb15760405162461bcd60e51b815260206004820152602f60248201527f416363657373436f6e74726f6c3a2063616e206f6e6c792072656e6f756e636560448201526e103937b632b9903337b91039b2b63360891b6064820152608401610750565b610bbb8282611e43565b5050565b600080516020614caf833981519152610bd781611b02565b610bdf611e65565b50565b60608151835114610c475760405162461bcd60e51b815260206004820152602960248201527f455243313135353a206163636f756e747320616e6420696473206c656e677468604482015268040dad2e6dac2e8c6d60bb1b6064820152608401610750565b600083516001600160401b03811115610c6257610c626138dd565b604051908082528060200260200182016040528015610c8b578160200160208202803683370190505b50905060005b8451811015610d0357610cd6858281518110610caf57610caf614297565b6020026020010151858381518110610cc957610cc9614297565b60200260200101516106e9565b828281518110610ce857610ce8614297565b6020908102919091010152610cfc816142c3565b9050610c91565b509392505050565b600080610d1783611500565b1192915050565b600080516020614ccf833981519152610d3681611b02565b60008481526101f8602090815260408083208684529091529020610d5a8382614371565b50837ffdbb964a9a1d2ac903ed7ebf85795be6728c27e96237552b2805596c759e08818484604051610d8d929190614430565b60405180910390a250505050565b6001600160a01b0381166000908152610164602052604090206060908190610dc290611c67565b915081516001600160401b03811115610ddd57610ddd6138dd565b604051908082528060200260200182016040528015610e06578160200160208202803683370190505b50905060005b8251811015610e5a57610e2b84848381518110610cc957610cc9614297565b828281518110610e3d57610e3d614297565b602090810291909101015280610e52816142c3565b915050610e0c565b50915091565b600080516020614caf833981519152610e7881611b02565b610e83848484611eb7565b50505050565b606061077e826113aa565b600080516020614c6f833981519152610eac81611b02565b61099a85858585612056565b60008281526101f760205260408120610ed19083612141565b9392505050565b610228805461079d9061425d565b600080516020614ccf833981519152610efe81611b02565b60005b8351811015610f7757610f64848281518110610f1f57610f1f614297565b6020026020010151848381518110610f3957610f39614297565b60200260200101516101f7600089815260200190815260200160002061214d9092919063ffffffff16565b5080610f6f816142c3565b915050610f01565b50837f383bcccfd5e9b61afe7e6832ca2201fe34d7766a9bbf90fb7152082ddbcd342b8484604051610d8d929190613dec565b600054610100900460ff1615808015610fca5750600054600160ff909116105b80610fe45750303b158015610fe4575060005460ff166001145b6110475760405162461bcd60e51b815260206004820152602e60248201527f496e697469616c697a61626c653a20636f6e747261637420697320616c72656160448201526d191e481a5b9a5d1a585b1a5e995960921b6064820152608401610750565b6000805460ff19166001179055801561106a576000805461ff0019166101001790555b6110826040518060200160405280600081525061215a565b61108a61218a565b6110926121b3565b61109a61218a565b6110a261218a565b6110aa61218a565b6110b26121e2565b6110d36040518060600160405280602f8152602001614c40602f9139612241565b6110db612275565b6111286040518060400160405280600d81526020016c436f736d69632042616467657360981b8152506040518060400160405280600681526020016542414447455360d01b8152506122bc565b611133600033611e21565b61114b600080516020614caf83398151915233611e21565b611163600080516020614c6f83398151915233611e21565b8015610bdf576000805461ff0019169055604051600181527f7f26b83ff96e1f2b6a682f133852f6798a09c465da95921460cefb38474024989060200160405180910390a150565b600080516020614caf8339815191526111c381611b02565b610bdf6122fe565b600080516020614c6f8339815191526111e381611b02565b60005b835181101561099a5761123c84828151811061120457611204614297565b60200260200101518685848151811061121f5761121f614297565b602002602001015160405180602001604052806000815250612056565b80611246816142c3565b9150506111e6565b600082815260c960205260408120610ed1908361233b565b60009182526097602090815260408084206001600160a01b0393909316845291905290205460ff1690565b61028c805461079d9061425d565b600080516020614caf8339815191526112b781611b02565b600882901c600090815261025a602052604090208054600160ff85161b191690555050565b6060600082516001600160401b038111156112f9576112f96138dd565b604051908082528060200260200182016040528015611322578160200160208202803683370190505b50905060005b8351811015610d035761137084828151811061134657611346614297565b60200260200101516101f7600088815260200190815260200160002061214190919063ffffffff16565b82828151811061138257611382614297565b602090810291909101015280611397816142c3565b915050611328565b610bbb338383612347565b6060600082516001600160401b038111156113c7576113c76138dd565b6040519080825280602002602001820160405280156113fa57816020015b60608152602001906001900390816113e55790505b50905060005b835181101561145b5761142b84828151811061141e5761141e614297565b6020026020010151611553565b82828151811061143d5761143d614297565b60200260200101819052508080611453906142c3565b915050611400565b5092915050565b6060600061147161015f612427565b90506000816001600160401b0381111561148d5761148d6138dd565b6040519080825280602002602001820160405280156114b6578160200160208202803683370190505b50905060005b8281101561145b576114d061015f82612432565b508282815181106114e3576114e3614297565b6020908102919091010152806114f8816142c3565b9150506114bc565b60008061150f61015f84612450565b949350505050565b600080516020614caf83398151915261152f81611b02565b600882901c600090815261025a602052604090208054600160ff85161b1790555050565b606061077e8261081e565b600081815260c96020526040812061077e9061245f565b6060611582610193611c67565b905090565b600080516020614ccf83398151915261159f81611b02565b60005b8351811015611622578281815181106115bd576115bd614297565b60200260200101516101f8600087815260200190815260200160002060008684815181106115ed576115ed614297565b60200260200101518152602001908152602001600020908161160f9190614371565b508061161a816142c3565b9150506115a2565b50837f9d69ed3cc764cf4f579cfc28312dded7bb202f17cc77aa4d0eb3f8bbaecd88e38484604051610d8d929190614449565b60008281526097602052604090206001015461167081611b02565b610b3c8383611e43565b6001600160a01b0385163314806116965750611696853361066f565b6116b25760405162461bcd60e51b8152600401610750906142dc565b61099a8585858585612469565b6001600160a01b0383163314806116db57506116db833361066f565b6116f75760405162461bcd60e51b8152600401610750906142dc565b610b3c8383836125a5565b600080516020614ccf83398151915261171a81611b02565b60008481526101f76020526040902061173490848461214d565b50604080518481526020810184905285917f5cb4c5f05283d5a84da3f9f1b0fe8b00d7ea8e1fb833812b52114799bdf1acc79101610d8d565b600061077e610193836126c1565b60006001600160e01b03198216635a05180f60e01b148061077e575061077e826126e3565b60008281526101f86020908152604080832084845290915290208054606091906117c99061425d565b80601f01602080910402602001604051908101604052809291908181526020018280546117f59061425d565b80156118425780601f1061181757610100808354040283529160200191611842565b820191906000526020600020905b81548152906001019060200180831161182557829003601f168201915b5050505050905092915050565b606080606060006118726101f76000878152602001908152602001600020612427565b90506000816001600160401b0381111561188e5761188e6138dd565b6040519080825280602002602001820160405280156118b7578160200160208202803683370190505b5090506000826001600160401b038111156118d4576118d46138dd565b6040519080825280602002602001820160405280156118fd578160200160208202803683370190505b5090506000836001600160401b0381111561191a5761191a6138dd565b60405190808252806020026020018201604052801561194d57816020015b60608152602001906001900390816119385790505b50905060005b84811015611aa75760008981526101f7602052604090206119749082612432565b85838151811061198657611986614297565b6020026020010185848151811061199f5761199f614297565b60200260200101828152508281525050506101f860008a815260200190815260200160002060008583815181106119d8576119d8614297565b6020026020010151815260200190815260200160002080546119f99061425d565b80601f0160208091040260200160405190810160405280929190818152602001828054611a259061425d565b8015611a725780601f10611a4757610100808354040283529160200191611a72565b820191906000526020600020905b815481529060010190602001808311611a5557829003601f168201915b5050505050828281518110611a8957611a89614297565b60200260200101819052508080611a9f906142c3565b915050611953565b50919790965090945092505050565b60606000611ac5868686612708565b90506000611ad284612772565b90508181604051602001611ae792919061448a565b60405160208183030381529060405292505050949350505050565b610bdf8133612905565b6001600160a01b038416611b325760405162461bcd60e51b8152600401610750906144d7565b8151835114611b535760405162461bcd60e51b815260040161075090614518565b33611b6381600087878787612969565b60005b8451811015611bff57838181518110611b8157611b81614297565b602002602001015160656000878481518110611b9f57611b9f614297565b602002602001015181526020019081526020016000206000886001600160a01b03166001600160a01b031681526020019081526020016000206000828254611be79190614560565b90915550819050611bf7816142c3565b915050611b66565b50846001600160a01b031660006001600160a01b0316826001600160a01b03167f4a39dc06d4c0dbc64b70af90fd698a233a518aa5d07e595d983b8c0526c8f7fb8787604051611c50929190613dec565b60405180910390a461099a81600087878787612a71565b60606000610ed183612bcc565b8151835114611c955760405162461bcd60e51b815260040161075090614518565b6001600160a01b038416611cbb5760405162461bcd60e51b815260040161075090614573565b33611cca818787878787612969565b60005b8451811015611db3576000858281518110611cea57611cea614297565b602002602001015190506000858381518110611d0857611d08614297565b60209081029190910181015160008481526065835260408082206001600160a01b038e168352909352919091205490915081811015611d595760405162461bcd60e51b8152600401610750906145b8565b60008381526065602090815260408083206001600160a01b038e8116855292528083208585039055908b16825281208054849290611d98908490614560565b9250508190555050505080611dac906142c3565b9050611ccd565b50846001600160a01b0316866001600160a01b0316826001600160a01b03167f4a39dc06d4c0dbc64b70af90fd698a233a518aa5d07e595d983b8c0526c8f7fb8787604051611e03929190613dec565b60405180910390a4611e19818787878787612a71565b505050505050565b611e2b8282612c28565b600082815260c960205260409020610b3c9082612cae565b611e4d8282612cc3565b600082815260c960205260409020610b3c9082612d2a565b611e6d612d3f565b60fb805460ff191690557f5db9ee0a495bf2e6ff9c91a7834c1ba4fdd244a5e8aa4e537bd38aeae4b073aa335b6040516001600160a01b03909116815260200160405180910390a1565b6001600160a01b038316611edd5760405162461bcd60e51b815260040161075090614602565b8051825114611efe5760405162461bcd60e51b815260040161075090614518565b6000339050611f2181856000868660405180602001604052806000815250612969565b60005b8351811015611fe9576000848281518110611f4157611f41614297565b602002602001015190506000848381518110611f5f57611f5f614297565b60209081029190910181015160008481526065835260408082206001600160a01b038c168352909352919091205490915081811015611fb05760405162461bcd60e51b815260040161075090614645565b60009283526065602090815260408085206001600160a01b038b1686529091529092209103905580611fe1816142c3565b915050611f24565b5060006001600160a01b0316846001600160a01b0316826001600160a01b03167f4a39dc06d4c0dbc64b70af90fd698a233a518aa5d07e595d983b8c0526c8f7fb868660405161203a929190613dec565b60405180910390a4604080516020810190915260009052610e83565b6001600160a01b03841661207c5760405162461bcd60e51b8152600401610750906144d7565b33600061208885612d88565b9050600061209585612d88565b90506120a683600089858589612969565b60008681526065602090815260408083206001600160a01b038b168452909152812080548792906120d8908490614560565b909155505060408051878152602081018790526001600160a01b03808a1692600092918716917fc3d58168c5ae7397731d063d5bbf3d657854427343f4c083240f7aacaa2d0f62910160405180910390a461213883600089898989612dd3565b50505050505050565b6000610ed18383612e8e565b600061150f848484612efe565b600054610100900460ff166121815760405162461bcd60e51b815260040161075090614689565b610bdf81612f1b565b600054610100900460ff166121b15760405162461bcd60e51b815260040161075090614689565b565b600054610100900460ff166121da5760405162461bcd60e51b815260040161075090614689565b6121b1612f4b565b600054610100900460ff166122095760405162461bcd60e51b815260040161075090614689565b61221161218a565b612229600080516020614caf83398151915233611e21565b6121b1600080516020614c8f83398151915233611e21565b600054610100900460ff166122685760405162461bcd60e51b815260040161075090614689565b610228610bbb8282614371565b600054610100900460ff1661229c5760405162461bcd60e51b815260040161075090614689565b6122a461218a565b6121b1600080516020614ccf83398151915233611e21565b600054610100900460ff166122e35760405162461bcd60e51b815260040161075090614689565b61028b6122f08382614371565b5061028c610b3c8282614371565b612306612f7e565b60fb805460ff191660011790557f62e78cea01bee320cd4e420270b5ea74000d11b0c9f74754ebdbfc544b05a258611e9a3390565b6000610ed18383612fc4565b816001600160a01b0316836001600160a01b0316036123ba5760405162461bcd60e51b815260206004820152602960248201527f455243313135353a2073657474696e6720617070726f76616c20737461747573604482015268103337b91039b2b63360b91b6064820152608401610750565b6001600160a01b03838116600081815260666020908152604080832094871680845294825291829020805460ff191686151590811790915591519182527f17307eab39ab6107e8899845ad3d59bd9653f200f220920489ca2b5937696c31910160405180910390a3505050565b600061077e82612fee565b60008080806124418686612ff9565b909450925050505b9250929050565b60008080806124418686613024565b600061077e825490565b6001600160a01b03841661248f5760405162461bcd60e51b815260040161075090614573565b33600061249b85612d88565b905060006124a885612d88565b90506124b8838989858589612969565b60008681526065602090815260408083206001600160a01b038c168452909152902054858110156124fb5760405162461bcd60e51b8152600401610750906145b8565b60008781526065602090815260408083206001600160a01b038d8116855292528083208985039055908a1682528120805488929061253a908490614560565b909155505060408051888152602081018890526001600160a01b03808b16928c821692918816917fc3d58168c5ae7397731d063d5bbf3d657854427343f4c083240f7aacaa2d0f62910160405180910390a461259a848a8a8a8a8a612dd3565b505050505050505050565b6001600160a01b0383166125cb5760405162461bcd60e51b815260040161075090614602565b3360006125d784612d88565b905060006125e484612d88565b905061260483876000858560405180602001604052806000815250612969565b60008581526065602090815260408083206001600160a01b038a168452909152902054848110156126475760405162461bcd60e51b815260040161075090614645565b60008681526065602090815260408083206001600160a01b038b81168086529184528285208a8703905582518b81529384018a90529092908816917fc3d58168c5ae7397731d063d5bbf3d657854427343f4c083240f7aacaa2d0f62910160405180910390a4604080516020810190915260009052612138565b6001600160a01b03811660009081526001830160205260408120541515610ed1565b60006001600160e01b03198216637965db0b60e01b148061077e575061077e8261305e565b60606000610228612718866130ae565b6040516020016127299291906146d4565b604051602081830303815290604052905083612744866130ae565b8483604051602001612759949392919061475b565b6040516020818303038152906040529150509392505050565b60408051602081019091526000808252606091905b83518110156128dc576000600185516127a09190614848565b82146127c557604051806040016040528060018152602001600b60fa1b8152506127d6565b604051806020016040528060008152505b905060008583815181106127ec576127ec614297565b602002602001015160200151516000146128425785838151811061281257612812614297565b60200260200101516020015160405160200161282e919061485b565b604051602081830303815290604052612853565b604051806020016040528060008152505b905060008487858151811061286a5761286a614297565b6020026020010151600001518361289d8a888151811061288c5761288c614297565b6020026020010151604001516130ae565b866040516020016128b29594939291906148a1565b604051602081830303815290604052905080945050505080806128d4906142c3565b915050612787565b50806040516020016128ee919061495c565b604051602081830303815290604052915050919050565b61290f8282611266565b610bbb57612927816001600160a01b031660146131ae565b6129328360206131ae565b60405160200161294392919061499e565b60408051601f198184030181529082905262461bcd60e51b8252610750916004016138b1565b612971612f7e565b82858560005b8351811015612a62576129ae84828151811061299557612995614297565b602002602001015161025a61334990919063ffffffff16565b15806129c157506001600160a01b038316155b806129d357506001600160a01b038216155b806129f157506129f1600080516020614c8f83398151915284611266565b80612a0f5750612a0f600080516020614c8f83398151915283611266565b612a505760405162461bcd60e51b8152602060048201526012602482015271151bdad95b881a5cc81cdbdd5b189bdd5b9960721b6044820152606401610750565b80612a5a816142c3565b915050612977565b5061259a89898989898961336d565b6001600160a01b0384163b15611e195760405163bc197c8160e01b81526001600160a01b0385169063bc197c8190612ab59089908990889088908890600401614a13565b6020604051808303816000875af1925050508015612af0575060408051601f3d908101601f19168201909252612aed91810190614a71565b60015b612b9c57612afc614a8e565b806308c379a003612b355750612b10614aaa565b80612b1b5750612b37565b8060405162461bcd60e51b815260040161075091906138b1565b505b60405162461bcd60e51b815260206004820152603460248201527f455243313135353a207472616e7366657220746f206e6f6e20455243313135356044820152732932b1b2b4bb32b91034b6b83632b6b2b73a32b960611b6064820152608401610750565b6001600160e01b0319811663bc197c8160e01b146121385760405162461bcd60e51b815260040161075090614b33565b606081600001805480602002602001604051908101604052809291908181526020018280548015612c1c57602002820191906000526020600020905b815481526020019060010190808311612c08575b50505050509050919050565b612c328282611266565b610bbb5760008281526097602090815260408083206001600160a01b03851684529091529020805460ff19166001179055612c6a3390565b6001600160a01b0316816001600160a01b0316837f2f8788117e7eff1d82e926ec794901d17c78024a50270940304540a733656f0d60405160405180910390a45050565b6000610ed1836001600160a01b0384166135a3565b612ccd8282611266565b15610bbb5760008281526097602090815260408083206001600160a01b0385168085529252808320805460ff1916905551339285917ff6391f5c32d9c69d2a47ea670b442974b53935d1edc7fd64eb21e047a839171b9190a45050565b6000610ed1836001600160a01b0384166135f2565b60fb5460ff166121b15760405162461bcd60e51b815260206004820152601460248201527314185d5cd8589b194e881b9bdd081c185d5cd95960621b6044820152606401610750565b60408051600180825281830190925260609160009190602080830190803683370190505090508281600081518110612dc257612dc2614297565b602090810291909101015292915050565b6001600160a01b0384163b15611e195760405163f23a6e6160e01b81526001600160a01b0385169063f23a6e6190612e179089908990889088908890600401614b7b565b6020604051808303816000875af1925050508015612e52575060408051601f3d908101601f19168201909252612e4f91810190614a71565b60015b612e5e57612afc614a8e565b6001600160e01b0319811663f23a6e6160e01b146121385760405162461bcd60e51b815260040161075090614b33565b600081815260028301602052604081205480151580612eb25750612eb284846136e5565b610ed15760405162461bcd60e51b815260206004820152601e60248201527f456e756d657261626c654d61703a206e6f6e6578697374656e74206b657900006044820152606401610750565b6000828152600284016020526040812082905561150f84846136f1565b600054610100900460ff16612f425760405162461bcd60e51b815260040161075090614689565b610bdf816136fd565b600054610100900460ff16612f725760405162461bcd60e51b815260040161075090614689565b60fb805460ff19169055565b60fb5460ff16156121b15760405162461bcd60e51b815260206004820152601060248201526f14185d5cd8589b194e881c185d5cd95960821b6044820152606401610750565b6000826000018281548110612fdb57612fdb614297565b9060005260206000200154905092915050565b600061077e8261245f565b60008080613007858561233b565b600081815260029690960160205260409095205494959350505050565b60008181526002830160205260408120548190806130535761304685856136e5565b9250600091506124499050565b600192509050612449565b60006001600160e01b03198216636cdb3d1360e11b148061308f57506001600160e01b031982166303a24d0760e21b145b8061077e57506301ffc9a760e01b6001600160e01b031983161461077e565b6060816000036130d55750506040805180820190915260018152600360fc1b602082015290565b8160005b81156130ff57806130e9816142c3565b91506130f89050600a83614bcb565b91506130d9565b6000816001600160401b03811115613119576131196138dd565b6040519080825280601f01601f191660200182016040528015613143576020820181803683370190505b5090505b841561150f57613158600183614848565b9150613165600a86614bdf565b613170906030614560565b60f81b81838151811061318557613185614297565b60200101906001600160f81b031916908160001a9053506131a7600a86614bcb565b9450613147565b606060006131bd836002614bf3565b6131c8906002614560565b6001600160401b038111156131df576131df6138dd565b6040519080825280601f01601f191660200182016040528015613209576020820181803683370190505b509050600360fc1b8160008151811061322457613224614297565b60200101906001600160f81b031916908160001a905350600f60fb1b8160018151811061325357613253614297565b60200101906001600160f81b031916908160001a9053506000613277846002614bf3565b613282906001614560565b90505b60018111156132fa576f181899199a1a9b1b9c1cb0b131b232b360811b85600f16601081106132b6576132b6614297565b1a60f81b8282815181106132cc576132cc614297565b60200101906001600160f81b031916908160001a90535060049490941c936132f381614c12565b9050613285565b508315610ed15760405162461bcd60e51b815260206004820181905260248201527f537472696e67733a20686578206c656e67746820696e73756666696369656e746044820152606401610750565b600881901c600090815260208390526040902054600160ff83161b16151592915050565b6001600160a01b03851661341e5760005b835181101561341c5760006133b785838151811061339e5761339e614297565b602002602001015161015f61245090919063ffffffff16565b9050809150506134098583815181106133d2576133d2614297565b60200260200101518584815181106133ec576133ec614297565b6020026020010151836133ff9190614560565b61015f919061214d565b505080613415906142c3565b905061337e565b505b6001600160a01b0384166135145760005b835181101561351257600084828151811061344c5761344c614297565b60200260200101519050600084838151811061346a5761346a614297565b60200260200101519050600061348b8361015f61214190919063ffffffff16565b9050818110156134ee5760405162461bcd60e51b815260206004820152602860248201527f455243313135353a206275726e20616d6f756e74206578636565647320746f74604482015267616c537570706c7960c01b6064820152608401610750565b6134fd61015f8484840361214d565b505050508061350b906142c3565b905061342f565b505b60005b83518110156135905761355d8685838151811061353657613536614297565b602002602001015185848151811061355057613550614297565b6020026020010151613709565b6135808585838151811061357357613573614297565b602002602001015161375e565b613589816142c3565b9050613517565b5061359a856137a0565b611e19846137a0565b60008181526001830160205260408120546135ea5750815460018181018455600084815260208082209093018490558454848252828601909352604090209190915561077e565b50600061077e565b600081815260018301602052604081205480156136db576000613616600183614848565b855490915060009061362a90600190614848565b905081811461368f57600086600001828154811061364a5761364a614297565b906000526020600020015490508087600001848154811061366d5761366d614297565b6000918252602080832090910192909255918252600188019052604090208390555b85548690806136a0576136a0614c29565b60019003818190600052602060002001600090559055856001016000868152602001908152602001600020600090556001935050505061077e565b600091505061077e565b6000610ed183836137c4565b6000610ed183836135a3565b6067610bbb8282614371565b6001600160a01b03831661371c57505050565b600061372884846106e9565b90506137348282614848565b600003610e83576001600160a01b03841660009081526101646020526040902061099a90846137dc565b6001600160a01b038216613770575050565b6001600160a01b03821660009081526101646020526040902061379390826136f1565b50610b3c61016283612cae565b60606137ab82610d9b565b508051909150600003610bbb57610b3c61016283612d2a565b60008181526001830160205260408120541515610ed1565b6000610ed183836135f2565b80356001600160a01b03811681146137ff57600080fd5b919050565b6000806040838503121561381757600080fd5b613820836137e8565b946020939093013593505050565b6001600160e01b031981168114610bdf57600080fd5b60006020828403121561385657600080fd5b8135610ed18161382e565b60005b8381101561387c578181015183820152602001613864565b50506000910152565b6000815180845261389d816020860160208601613861565b601f01601f19169290920160200192915050565b602081526000610ed16020830184613885565b6000602082840312156138d657600080fd5b5035919050565b634e487b7160e01b600052604160045260246000fd5b601f8201601f191681016001600160401b0381118282101715613918576139186138dd565b6040525050565b60006001600160401b03821115613938576139386138dd565b5060051b60200190565b600082601f83011261395357600080fd5b813560206139608261391f565b60405161396d82826138f3565b83815260059390931b850182019282810191508684111561398d57600080fd5b8286015b848110156139a85780358352918301918301613991565b509695505050505050565b600082601f8301126139c457600080fd5b81356001600160401b038111156139dd576139dd6138dd565b6040516139f4601f8301601f1916602001826138f3565b818152846020838601011115613a0957600080fd5b816020850160208301376000918101602001919091529392505050565b60008060008060808587031215613a3c57600080fd5b613a45856137e8565b935060208501356001600160401b0380821115613a6157600080fd5b613a6d88838901613942565b94506040870135915080821115613a8357600080fd5b613a8f88838901613942565b93506060870135915080821115613aa557600080fd5b50613ab2878288016139b3565b91505092959194509250565b600081518084526020808501945080840160005b83811015613af75781516001600160a01b031687529582019590820190600101613ad2565b509495945050505050565b600081518084526020808501945080840160005b83811015613af757815187529582019590820190600101613b16565b600081518084526020808501808196508360051b8101915082860160005b85811015613b7a578284038952613b68848351613b02565b98850198935090840190600101613b50565b5091979650505050505050565b606081526000613b9a6060830186613abe565b8281036020840152613bac8186613b32565b90508281036040840152613bc08185613b32565b9695505050505050565b600080600080600060a08688031215613be257600080fd5b613beb866137e8565b9450613bf9602087016137e8565b935060408601356001600160401b0380821115613c1557600080fd5b613c2189838a01613942565b94506060880135915080821115613c3757600080fd5b613c4389838a01613942565b93506080880135915080821115613c5957600080fd5b50613c66888289016139b3565b9150509295509295909350565b60008060408385031215613c8657600080fd5b82359150613c96602084016137e8565b90509250929050565b600082601f830112613cb057600080fd5b81356020613cbd8261391f565b604051613cca82826138f3565b83815260059390931b8501820192828101915086841115613cea57600080fd5b8286015b848110156139a857613cff816137e8565b8352918301918301613cee565b60008060408385031215613d1f57600080fd5b82356001600160401b0380821115613d3657600080fd5b613d4286838701613c9f565b93506020850135915080821115613d5857600080fd5b50613d6585828601613942565b9150509250929050565b602081526000610ed16020830184613b02565b600080600060608486031215613d9757600080fd5b833592506020840135915060408401356001600160401b03811115613dbb57600080fd5b613dc7868287016139b3565b9150509250925092565b600060208284031215613de357600080fd5b610ed1826137e8565b604081526000613dff6040830185613b02565b8281036020840152613e118185613b02565b95945050505050565b600080600060608486031215613e2f57600080fd5b613e38846137e8565b925060208401356001600160401b0380821115613e5457600080fd5b613e6087838801613942565b93506040860135915080821115613e7657600080fd5b50613dc786828701613942565b600060208284031215613e9557600080fd5b81356001600160401b03811115613eab57600080fd5b61150f84828501613942565b600081518084526020808501808196508360051b8101915082860160005b85811015613b7a578284038952613eed848351613885565b98850198935090840190600101613ed5565b602081526000610ed16020830184613eb7565b60008060008060808587031215613f2857600080fd5b613f31856137e8565b9350602085013592506040850135915060608501356001600160401b03811115613f5a57600080fd5b613ab2878288016139b3565b60008060408385031215613f7957600080fd5b50508035926020909101359150565b600080600060608486031215613f9d57600080fd5b8335925060208401356001600160401b0380821115613e5457600080fd5b600080600060608486031215613fd057600080fd5b8335925060208401356001600160401b0380821115613fee57600080fd5b613e6087838801613c9f565b6000806040838503121561400d57600080fd5b8235915060208301356001600160401b0381111561402a57600080fd5b613d6585828601613942565b6000806040838503121561404957600080fd5b614052836137e8565b91506020830135801515811461406757600080fd5b809150509250929050565b602081526000610ed16020830184613abe565b60008060006060848603121561409a57600080fd5b833592506020808501356001600160401b03808211156140b957600080fd5b6140c588838901613942565b945060408701359150808211156140db57600080fd5b818701915087601f8301126140ef57600080fd5b81356140fa8161391f565b60405161410782826138f3565b82815260059290921b840185019185810191508a83111561412757600080fd5b8585015b8381101561415f578035858111156141435760008081fd5b6141518d89838a01016139b3565b84525091860191860161412b565b508096505050505050509250925092565b6000806040838503121561418357600080fd5b61418c836137e8565b9150613c96602084016137e8565b600080600080600060a086880312156141b257600080fd5b6141bb866137e8565b94506141c9602087016137e8565b9350604086013592506060860135915060808601356001600160401b038111156141f257600080fd5b613c66888289016139b3565b60008060006060848603121561421357600080fd5b61421c846137e8565b95602085013595506040909401359392505050565b60008060006060848603121561424657600080fd5b505081359360208301359350604090920135919050565b600181811c9082168061427157607f821691505b60208210810361429157634e487b7160e01b600052602260045260246000fd5b50919050565b634e487b7160e01b600052603260045260246000fd5b634e487b7160e01b600052601160045260246000fd5b6000600182016142d5576142d56142ad565b5060010190565b6020808252602f908201527f455243313135353a2063616c6c6572206973206e6f7420746f6b656e206f776e60408201526e195c881b9bdc88185c1c1c9bdd9959608a1b606082015260800190565b601f821115610b3c57600081815260208120601f850160051c810160208610156143525750805b601f850160051c820191505b81811015611e195782815560010161435e565b81516001600160401b0381111561438a5761438a6138dd565b61439e81614398845461425d565b8461432b565b602080601f8311600181146143d357600084156143bb5750858301515b600019600386901b1c1916600185901b178555611e19565b600085815260208120601f198616915b82811015614402578886015182559484019460019091019084016143e3565b50858210156144205787850151600019600388901b60f8161c191681555b5050505050600190811b01905550565b82815260406020820152600061150f6040830184613885565b60408152600061445c6040830185613b02565b8281036020840152613e118185613eb7565b60008151614480818560208601613861565b9290920192915050565b607b60f81b8152600083516144a6816001850160208801613861565b8351908301906144bd816001840160208801613861565b607d60f81b60019290910191820152600201949350505050565b60208082526021908201527f455243313135353a206d696e7420746f20746865207a65726f206164647265736040820152607360f81b606082015260800190565b60208082526028908201527f455243313135353a2069647320616e6420616d6f756e7473206c656e677468206040820152670dad2e6dac2e8c6d60c31b606082015260800190565b8082018082111561077e5761077e6142ad565b60208082526025908201527f455243313135353a207472616e7366657220746f20746865207a65726f206164604082015264647265737360d81b606082015260800190565b6020808252602a908201527f455243313135353a20696e73756666696369656e742062616c616e636520666f60408201526939103a3930b739b332b960b11b606082015260800190565b60208082526023908201527f455243313135353a206275726e2066726f6d20746865207a65726f206164647260408201526265737360e81b606082015260800190565b60208082526024908201527f455243313135353a206275726e20616d6f756e7420657863656564732062616c604082015263616e636560e01b606082015260800190565b6020808252602b908201527f496e697469616c697a61626c653a20636f6e7472616374206973206e6f74206960408201526a6e697469616c697a696e6760a81b606082015260800190565b60008084546146e28161425d565b600182811680156146fa576001811461470f5761473e565b60ff198416875282151583028701945061473e565b8860005260208060002060005b858110156147355781548a82015290840190820161471c565b50505082870194505b505050508351614752818360208801613861565b01949350505050565b67113730b6b2911d1160c11b8152845160009061477f816008850160208a01613861565b61088b60f21b600891840191820181905269113a37b5b2b724b2111d60b11b600a83015286516147b6816014850160208b01613861565b600b60fa1b601493909101928301526e113232b9b1b934b83a34b7b7111d1160891b601583015285516147f0816024850160208a01613861565b6024920191820152681134b6b0b3b2911d1160b91b602682015261096b61482b61481d602f84018761446e565b61088b60f21b815260020190565b70089d1e5c19488e88915490cc4c4d4d488b607a1b815260110190565b8181038181111561077e5761077e6142ad565b703d913234b9b83630bcafba3cb832911d1160791b81528151600090614888816011850160208701613861565b61088b60f21b6011939091019283015250601301919050565b600086516148b3818460208b01613861565b6e3d913a3930b4ba2fba3cb832911d1160891b90830190815286516148df81600f840160208b01613861565b61088b60f21b600f92909101918201528551614902816011840160208a01613861565b67113b30b63ab2911d60c11b60119290910191820152845161492b816019840160208901613861565b607d60f81b60199290910191820152835161494d81601a840160208801613861565b01601a01979650505050505050565b6d2261747472696275746573223a5b60901b8152815160009061498681600e850160208701613861565b605d60f81b600e939091019283015250600f01919050565b7f416363657373436f6e74726f6c3a206163636f756e74200000000000000000008152600083516149d6816017850160208801613861565b7001034b99036b4b9b9b4b733903937b6329607d1b6017918401918201528351614a07816028840160208801613861565b01602801949350505050565b6001600160a01b0386811682528516602082015260a060408201819052600090614a3f90830186613b02565b8281036060840152614a518186613b02565b90508281036080840152614a658185613885565b98975050505050505050565b600060208284031215614a8357600080fd5b8151610ed18161382e565b600060033d1115614aa75760046000803e5060005160e01c5b90565b600060443d1015614ab85790565b6040516003193d81016004833e81513d6001600160401b038160248401118184111715614ae757505050505090565b8285019150815181811115614aff5750505050505090565b843d8701016020828501011115614b195750505050505090565b614b28602082860101876138f3565b509095945050505050565b60208082526028908201527f455243313135353a204552433131353552656365697665722072656a656374656040820152676420746f6b656e7360c01b606082015260800190565b6001600160a01b03868116825285166020820152604081018490526060810183905260a06080820181905260009061096b90830184613885565b634e487b7160e01b600052601260045260246000fd5b600082614bda57614bda614bb5565b500490565b600082614bee57614bee614bb5565b500690565b6000816000190483118215151615614c0d57614c0d6142ad565b500290565b600081614c2157614c216142ad565b506000190190565b634e487b7160e01b600052603160045260246000fdfe68747470733a2f2f696d616765732e636f736d6963756e6976657273652e696f2f636f736d69632d6261646765732f9f2df0fed2c77648de5860a4cc508cd0818c85b8b8a1ab4ceeef8d981c8956a6f01ee2eb8c5679535f9dfef3543570e280865ec756856c5772fe3e6718c5c074a49807205ce4d355092ef5a8a18f56e8913cf4a201fbe287825b095693c21775364d3d7565c7a8300c96fd53e065d19b65848d7b23b3191adcd55621c744223ca2646970667358221220a330b687caffa3118f968049c782a82c95e7eed4e7a891dd1ac4b4412796f58b64736f6c63430008100033",
  "linkReferences": {},
  "deployedLinkReferences": {}
}