{
  "_format": "hh-sol-artifact-1",
  "contractName": "BobaTeleportL1",
  "sourceName": "contracts/upgradeable/npc/BobaTeleporter/BobaTeleportL1.sol",
  "abi": [
    {
      "inputs": [],
      "stateMutability": "nonpayable",
      "type": "constructor"
    },
    {
      "inputs": [
        {
          "internalType": "uint256",
          "name": "array1",
          "type": "uint256"
        },
        {
          "internalType": "uint256",
          "name": "array2",
          "type": "uint256"
        },
        {
          "internalType": "uint256",
          "name": "array3",
          "type": "uint256"
        }
      ],
      "name": "ArrayLengthMismatch",
      "type": "error"
    },
    {
      "inputs": [
        {
          "internalType": "uint256",
          "name": "sent",
          "type": "uint256"
        },
        {
          "internalType": "uint256",
          "name": "need",
          "type": "uint256"
        }
      ],
      "name": "InsufficientTeleportFee",
      "type": "error"
    },
    {
      "inputs": [
        {
          "internalType": "address",
          "name": "wallet",
          "type": "address"
        },
        {
          "internalType": "address",
          "name": "token",
          "type": "address"
        },
        {
          "internalType": "uint256",
          "name": "id",
          "type": "uint256"
        },
        {
          "internalType": "uint256",
          "name": "balance",
          "type": "uint256"
        }
      ],
      "name": "InvalidAssetToMaterialize",
      "type": "error"
    },
    {
      "inputs": [],
      "name": "NoAssetToMaterialize",
      "type": "error"
    },
    {
      "anonymous": false,
      "inputs": [
        {
          "indexed": false,
          "internalType": "address",
          "name": "previousAdmin",
          "type": "address"
        },
        {
          "indexed": false,
          "internalType": "address",
          "name": "newAdmin",
          "type": "address"
        }
      ],
      "name": "AdminChanged",
      "type": "event"
    },
    {
      "anonymous": false,
      "inputs": [
        {
          "indexed": true,
          "internalType": "address",
          "name": "wallet",
          "type": "address"
        },
        {
          "indexed": true,
          "internalType": "address",
          "name": "token",
          "type": "address"
        },
        {
          "indexed": false,
          "internalType": "uint256",
          "name": "id",
          "type": "uint256"
        },
        {
          "indexed": false,
          "internalType": "uint256",
          "name": "amount",
          "type": "uint256"
        }
      ],
      "name": "AssetMaterialized",
      "type": "event"
    },
    {
      "anonymous": false,
      "inputs": [
        {
          "indexed": true,
          "internalType": "address",
          "name": "beacon",
          "type": "address"
        }
      ],
      "name": "BeaconUpgraded",
      "type": "event"
    },
    {
      "anonymous": false,
      "inputs": [
        {
          "indexed": false,
          "internalType": "uint8",
          "name": "version",
          "type": "uint8"
        }
      ],
      "name": "Initialized",
      "type": "event"
    },
    {
      "anonymous": false,
      "inputs": [
        {
          "indexed": false,
          "internalType": "address",
          "name": "account",
          "type": "address"
        }
      ],
      "name": "Paused",
      "type": "event"
    },
    {
      "anonymous": false,
      "inputs": [
        {
          "indexed": true,
          "internalType": "bytes32",
          "name": "role",
          "type": "bytes32"
        },
        {
          "indexed": true,
          "internalType": "bytes32",
          "name": "previousAdminRole",
          "type": "bytes32"
        },
        {
          "indexed": true,
          "internalType": "bytes32",
          "name": "newAdminRole",
          "type": "bytes32"
        }
      ],
      "name": "RoleAdminChanged",
      "type": "event"
    },
    {
      "anonymous": false,
      "inputs": [
        {
          "indexed": true,
          "internalType": "bytes32",
          "name": "role",
          "type": "bytes32"
        },
        {
          "indexed": true,
          "internalType": "address",
          "name": "account",
          "type": "address"
        },
        {
          "indexed": true,
          "internalType": "address",
          "name": "sender",
          "type": "address"
        }
      ],
      "name": "RoleGranted",
      "type": "event"
    },
    {
      "anonymous": false,
      "inputs": [
        {
          "indexed": true,
          "internalType": "bytes32",
          "name": "role",
          "type": "bytes32"
        },
        {
          "indexed": true,
          "internalType": "address",
          "name": "account",
          "type": "address"
        },
        {
          "indexed": true,
          "internalType": "address",
          "name": "sender",
          "type": "address"
        }
      ],
      "name": "RoleRevoked",
      "type": "event"
    },
    {
      "anonymous": false,
      "inputs": [
        {
          "indexed": false,
          "internalType": "address",
          "name": "account",
          "type": "address"
        }
      ],
      "name": "Unpaused",
      "type": "event"
    },
    {
      "anonymous": false,
      "inputs": [
        {
          "indexed": true,
          "internalType": "address",
          "name": "implementation",
          "type": "address"
        }
      ],
      "name": "Upgraded",
      "type": "event"
    },
    {
      "inputs": [],
      "name": "ADMIN_ROLE",
      "outputs": [
        {
          "internalType": "bytes32",
          "name": "",
          "type": "bytes32"
        }
      ],
      "stateMutability": "view",
      "type": "function"
    },
    {
      "inputs": [],
      "name": "BADGES",
      "outputs": [
        {
          "internalType": "address",
          "name": "",
          "type": "address"
        }
      ],
      "stateMutability": "view",
      "type": "function"
    },
    {
      "inputs": [],
      "name": "BUNDLES",
      "outputs": [
        {
          "internalType": "address",
          "name": "",
          "type": "address"
        }
      ],
      "stateMutability": "view",
      "type": "function"
    },
    {
      "inputs": [],
      "name": "COMPONENTS",
      "outputs": [
        {
          "internalType": "address",
          "name": "",
          "type": "address"
        }
      ],
      "stateMutability": "view",
      "type": "function"
    },
    {
      "inputs": [],
      "name": "DEFAULT_ADMIN_ROLE",
      "outputs": [
        {
          "internalType": "bytes32",
          "name": "",
          "type": "bytes32"
        }
      ],
      "stateMutability": "view",
      "type": "function"
    },
    {
      "inputs": [],
      "name": "ELVES",
      "outputs": [
        {
          "internalType": "address",
          "name": "",
          "type": "address"
        }
      ],
      "stateMutability": "view",
      "type": "function"
    },
    {
      "inputs": [],
      "name": "MAGIC",
      "outputs": [
        {
          "internalType": "address",
          "name": "",
          "type": "address"
        }
      ],
      "stateMutability": "view",
      "type": "function"
    },
    {
      "inputs": [],
      "name": "POTIONS",
      "outputs": [
        {
          "internalType": "address",
          "name": "",
          "type": "address"
        }
      ],
      "stateMutability": "view",
      "type": "function"
    },
    {
      "inputs": [],
      "name": "RAW_RESOURCES",
      "outputs": [
        {
          "internalType": "address",
          "name": "",
          "type": "address"
        }
      ],
      "stateMutability": "view",
      "type": "function"
    },
    {
      "inputs": [],
      "name": "REFINED_RESOURCES",
      "outputs": [
        {
          "internalType": "address",
          "name": "",
          "type": "address"
        }
      ],
      "stateMutability": "view",
      "type": "function"
    },
    {
      "inputs": [],
      "name": "SKINS",
      "outputs": [
        {
          "internalType": "address",
          "name": "",
          "type": "address"
        }
      ],
      "stateMutability": "view",
      "type": "function"
    },
    {
      "inputs": [],
      "name": "TOOLS",
      "outputs": [
        {
          "internalType": "address",
          "name": "",
          "type": "address"
        }
      ],
      "stateMutability": "view",
      "type": "function"
    },
    {
      "inputs": [
        {
          "internalType": "address",
          "name": "wallet",
          "type": "address"
        },
        {
          "internalType": "address[]",
          "name": "assets",
          "type": "address[]"
        },
        {
          "internalType": "uint256[]",
          "name": "ids",
          "type": "uint256[]"
        },
        {
          "internalType": "uint256[]",
          "name": "amounts",
          "type": "uint256[]"
        },
        {
          "internalType": "uint256",
          "name": "fee",
          "type": "uint256"
        }
      ],
      "name": "addTeleportedAssets",
      "outputs": [],
      "stateMutability": "nonpayable",
      "type": "function"
    },
    {
      "inputs": [
        {
          "internalType": "address",
          "name": "wallet",
          "type": "address"
        },
        {
          "internalType": "uint256[]",
          "name": "elvesIds",
          "type": "uint256[]"
        },
        {
          "internalType": "uint256[]",
          "name": "toolsIds",
          "type": "uint256[]"
        }
      ],
      "name": "adminMaterializeNFTsAndMagic",
      "outputs": [],
      "stateMutability": "nonpayable",
      "type": "function"
    },
    {
      "inputs": [
        {
          "internalType": "address",
          "name": "wallet",
          "type": "address"
        }
      ],
      "name": "adminMaterializeResources",
      "outputs": [],
      "stateMutability": "nonpayable",
      "type": "function"
    },
    {
      "inputs": [
        {
          "internalType": "address",
          "name": "wallet",
          "type": "address"
        }
      ],
      "name": "adminMaterializeTokens",
      "outputs": [],
      "stateMutability": "nonpayable",
      "type": "function"
    },
    {
      "inputs": [
        {
          "internalType": "bytes32",
          "name": "role",
          "type": "bytes32"
        }
      ],
      "name": "getRoleAdmin",
      "outputs": [
        {
          "internalType": "bytes32",
          "name": "",
          "type": "bytes32"
        }
      ],
      "stateMutability": "view",
      "type": "function"
    },
    {
      "inputs": [
        {
          "internalType": "bytes32",
          "name": "role",
          "type": "bytes32"
        },
        {
          "internalType": "address",
          "name": "account",
          "type": "address"
        }
      ],
      "name": "grantRole",
      "outputs": [],
      "stateMutability": "nonpayable",
      "type": "function"
    },
    {
      "inputs": [
        {
          "internalType": "bytes32",
          "name": "role",
          "type": "bytes32"
        },
        {
          "internalType": "address",
          "name": "account",
          "type": "address"
        }
      ],
      "name": "hasRole",
      "outputs": [
        {
          "internalType": "bool",
          "name": "",
          "type": "bool"
        }
      ],
      "stateMutability": "view",
      "type": "function"
    },
    {
      "inputs": [],
      "name": "initialize",
      "outputs": [],
      "stateMutability": "nonpayable",
      "type": "function"
    },
    {
      "inputs": [
        {
          "internalType": "uint256[]",
          "name": "elvesIds",
          "type": "uint256[]"
        },
        {
          "internalType": "uint256[]",
          "name": "toolsIds",
          "type": "uint256[]"
        }
      ],
      "name": "materializeNFTsAndMagic",
      "outputs": [],
      "stateMutability": "payable",
      "type": "function"
    },
    {
      "inputs": [],
      "name": "materializeResources",
      "outputs": [],
      "stateMutability": "nonpayable",
      "type": "function"
    },
    {
      "inputs": [],
      "name": "materializeTokens",
      "outputs": [],
      "stateMutability": "nonpayable",
      "type": "function"
    },
    {
      "inputs": [
        {
          "internalType": "address",
          "name": "wallet",
          "type": "address"
        },
        {
          "internalType": "address",
          "name": "token",
          "type": "address"
        },
        {
          "internalType": "uint256",
          "name": "id",
          "type": "uint256"
        }
      ],
      "name": "materialized",
      "outputs": [
        {
          "internalType": "uint256",
          "name": "balance",
          "type": "uint256"
        }
      ],
      "stateMutability": "view",
      "type": "function"
    },
    {
      "inputs": [],
      "name": "pause",
      "outputs": [],
      "stateMutability": "nonpayable",
      "type": "function"
    },
    {
      "inputs": [],
      "name": "paused",
      "outputs": [
        {
          "internalType": "bool",
          "name": "",
          "type": "bool"
        }
      ],
      "stateMutability": "view",
      "type": "function"
    },
    {
      "inputs": [],
      "name": "proxiableUUID",
      "outputs": [
        {
          "internalType": "bytes32",
          "name": "",
          "type": "bytes32"
        }
      ],
      "stateMutability": "view",
      "type": "function"
    },
    {
      "inputs": [
        {
          "internalType": "bytes32",
          "name": "role",
          "type": "bytes32"
        },
        {
          "internalType": "address",
          "name": "account",
          "type": "address"
        }
      ],
      "name": "renounceRole",
      "outputs": [],
      "stateMutability": "nonpayable",
      "type": "function"
    },
    {
      "inputs": [
        {
          "internalType": "bytes32",
          "name": "role",
          "type": "bytes32"
        },
        {
          "internalType": "address",
          "name": "account",
          "type": "address"
        }
      ],
      "name": "revokeRole",
      "outputs": [],
      "stateMutability": "nonpayable",
      "type": "function"
    },
    {
      "inputs": [
        {
          "internalType": "bytes4",
          "name": "interfaceId",
          "type": "bytes4"
        }
      ],
      "name": "supportsInterface",
      "outputs": [
        {
          "internalType": "bool",
          "name": "",
          "type": "bool"
        }
      ],
      "stateMutability": "view",
      "type": "function"
    },
    {
      "inputs": [],
      "name": "unpause",
      "outputs": [],
      "stateMutability": "nonpayable",
      "type": "function"
    },
    {
      "inputs": [
        {
          "internalType": "address",
          "name": "newImplementation",
          "type": "address"
        }
      ],
      "name": "upgradeTo",
      "outputs": [],
      "stateMutability": "nonpayable",
      "type": "function"
    },
    {
      "inputs": [
        {
          "internalType": "address",
          "name": "newImplementation",
          "type": "address"
        },
        {
          "internalType": "bytes",
          "name": "data",
          "type": "bytes"
        }
      ],
      "name": "upgradeToAndCall",
      "outputs": [],
      "stateMutability": "payable",
      "type": "function"
    }
  ],
  "bytecode": "0x60a0604052306080523480156200001557600080fd5b506200002062000026565b620000e7565b600054610100900460ff1615620000935760405162461bcd60e51b815260206004820152602760248201527f496e697469616c697a61626c653a20636f6e747261637420697320696e697469604482015266616c697a696e6760c81b606482015260840160405180910390fd5b60005460ff90811614620000e5576000805460ff191660ff9081179091556040519081527f7f26b83ff96e1f2b6a682f133852f6798a09c465da95921460cefb38474024989060200160405180910390a15b565b608051612cfd6200011f600039600081816107bf015281816107ff015281816108be015281816108fe01526109b80152612cfd6000f3fe6080604052600436106101ee5760003560e01c80635c975abb1161010d578063a217fddf116100a0578063c33d3fb01161006f578063c33d3fb014610584578063d23e03c7146105a5578063d547741f146105ba578063fa31a5e2146105da578063ffc7c857146105fb57600080fd5b8063a217fddf1461050e578063a2e64c4214610523578063a94821a314610543578063b448a41e1461056457600080fd5b806375b238fc116100dc57806375b238fc146104a25780638129fc1c146104c45780638456cb59146104d957806391d14854146104ee57600080fd5b80635c975abb146104335780635e41813d1461044b5780636bd7d64d1461046c578063720b57511461048d57600080fd5b80632f2ff15d1161018557806342f739a31161015457806342f739a3146103ac5780634f1ef286146103eb57806351338ff1146103fe57806352d1902d1461041e57600080fd5b80632f2ff15d1461033757806336568abe146103575780633659cfe6146103775780633f4ba83a1461039757600080fd5b80630fb703ca116101c15780630fb703ca146102a457806312b03a7f146102c557806313d01f7b146102e6578063248a9ca3146102f957600080fd5b806301ffc9a7146101f35780630b3a252d146102285780630de154931461024a5780630e2c159c14610283575b600080fd5b3480156101ff57600080fd5b5061021361020e3660046125df565b61061c565b60405190151581526020015b60405180910390f35b34801561023457600080fd5b50610248610243366004612625565b610653565b005b34801561025657600080fd5b506101615461026b906001600160a01b031681565b6040516001600160a01b03909116815260200161021f565b34801561028f57600080fd5b506101665461026b906001600160a01b031681565b3480156102b057600080fd5b506101675461026b906001600160a01b031681565b3480156102d157600080fd5b506101685461026b906001600160a01b031681565b6102486102f436600461268c565b6106b0565b34801561030557600080fd5b506103296103143660046126f8565b60009081526097602052604090206001015490565b60405190815260200161021f565b34801561034357600080fd5b50610248610352366004612711565b61070c565b34801561036357600080fd5b50610248610372366004612711565b610736565b34801561038357600080fd5b50610248610392366004612625565b6107b5565b3480156103a357600080fd5b50610248610894565b3480156103b857600080fd5b506103296103c736600461273d565b61016960209081526000938452604080852082529284528284209052825290205481565b6102486103f936600461278f565b6108b4565b34801561040a57600080fd5b50610248610419366004612625565b610980565b34801561042a57600080fd5b506103296109ab565b34801561043f57600080fd5b5060335460ff16610213565b34801561045757600080fd5b5061015f5461026b906001600160a01b031681565b34801561047857600080fd5b506101625461026b906001600160a01b031681565b34801561049957600080fd5b50610248610a5e565b3480156104ae57600080fd5b50610329600080516020612ca883398151915281565b3480156104d057600080fd5b50610248610ab2565b3480156104e557600080fd5b50610248610d3f565b3480156104fa57600080fd5b50610213610509366004612711565b610d5f565b34801561051a57600080fd5b50610329600081565b34801561052f57600080fd5b5061024861053e366004612851565b610d8a565b34801561054f57600080fd5b506101645461026b906001600160a01b031681565b34801561057057600080fd5b5061024861057f3660046128d2565b610def565b34801561059057600080fd5b506101605461026b906001600160a01b031681565b3480156105b157600080fd5b50610248610f63565b3480156105c657600080fd5b506102486105d5366004612711565b610f87565b3480156105e657600080fd5b506101635461026b906001600160a01b031681565b34801561060757600080fd5b506101655461026b906001600160a01b031681565b60006001600160e01b03198216637965db0b60e01b148061064d57506301ffc9a760e01b6001600160e01b03198316145b92915050565b600080516020612ca883398151915261066b81610fac565b610673610fb6565b600061067e8361100f565b9050806000036106a1576040516366659e2760e11b815260040160405180910390fd5b506106ac600160c955565b5050565b6106b861118f565b6106c0610fb6565b6106c9336111d5565b60006106d8338686868661127f565b9050806000036106fb576040516366659e2760e11b815260040160405180910390fd5b50610706600160c955565b50505050565b60008281526097602052604090206001015461072781610fac565b61073183836117bb565b505050565b6001600160a01b03811633146107ab5760405162461bcd60e51b815260206004820152602f60248201527f416363657373436f6e74726f6c3a2063616e206f6e6c792072656e6f756e636560448201526e103937b632b9903337b91039b2b63360891b60648201526084015b60405180910390fd5b6106ac8282611841565b6001600160a01b037f00000000000000000000000000000000000000000000000000000000000000001630036107fd5760405162461bcd60e51b81526004016107a290612984565b7f00000000000000000000000000000000000000000000000000000000000000006001600160a01b0316610846600080516020612c61833981519152546001600160a01b031690565b6001600160a01b03161461086c5760405162461bcd60e51b81526004016107a2906129d0565b610875816118a8565b60408051600080825260208201909252610891918391906118b3565b50565b600080516020612ca88339815191526108ac81610fac565b610891611a1e565b6001600160a01b037f00000000000000000000000000000000000000000000000000000000000000001630036108fc5760405162461bcd60e51b81526004016107a290612984565b7f00000000000000000000000000000000000000000000000000000000000000006001600160a01b0316610945600080516020612c61833981519152546001600160a01b031690565b6001600160a01b03161461096b5760405162461bcd60e51b81526004016107a2906129d0565b610974826118a8565b6106ac828260016118b3565b600080516020612ca883398151915261099881610fac565b6109a0610fb6565b600061067e83611a70565b6000306001600160a01b037f00000000000000000000000000000000000000000000000000000000000000001614610a4b5760405162461bcd60e51b815260206004820152603860248201527f555550535570677261646561626c653a206d757374206e6f742062652063616c60448201527f6c6564207468726f7567682064656c656761746563616c6c000000000000000060648201526084016107a2565b50600080516020612c6183398151915290565b610a6661118f565b610a6e610fb6565b610a77336111d5565b6000610a8233611a70565b905080600003610aa5576040516366659e2760e11b815260040160405180910390fd5b50610ab0600160c955565b565b600054610100900460ff1615808015610ad25750600054600160ff909116105b80610aec5750303b158015610aec575060005460ff166001145b610b4f5760405162461bcd60e51b815260206004820152602e60248201527f496e697469616c697a61626c653a20636f6e747261637420697320616c72656160448201526d191e481a5b9a5d1a585b1a5e995960921b60648201526084016107a2565b6000805460ff191660011790558015610b72576000805461ff0019166101001790555b610b7a611ff2565b610b82612021565b610b8a612021565b610b92612048565b610b9d6000336117bb565b610bb5600080516020612ca8833981519152336117bb565b61015f80546001600160a01b0319908116739a8e0217cd870783c3f2317985c57bf5709691531790915561016080548216739a337a6f883de95f49e05cd7d801d475a40a9c70179055610161805482167339ad4aafa177f59ed7356ffdbbf36a840075b7a61790556101628054821673cb9e8c619cf2c27781dad8f6e5b27febb4f1d89c179055610163805482167354ec1799cafa5685f0f1a16537b74c02589b7fce1790556101648054821673f31dc5f3a6d0af979fc3d8ad7a216e2ea49a1cb11790556101658054821673eacf75f43674a85eae7679e4a67c7fef004cc7cb17905561016680548216731a356b2b223eb5eb4221a956c67634b7d5c72910179055610167805482167304ab0f76de2d5ba63082193c66e8ce571a32454e17905561016880549091167303a37a09be3e90be403e263238c1acb14a341def1790558015610891576000805461ff0019169055604051600181527f7f26b83ff96e1f2b6a682f133852f6798a09c465da95921460cefb38474024989060200160405180910390a150565b600080516020612ca8833981519152610d5781610fac565b610891612077565b60009182526097602090815260408084206001600160a01b0393909316845291905290205460ff1690565b600080516020612ca8833981519152610da281610fac565b610daa610fb6565b6000610db9878787878761127f565b905080600003610ddc576040516366659e2760e11b815260040160405180910390fd5b50610de7600160c955565b505050505050565b600080516020612ca8833981519152610e0781610fac565b868514801590610e175750868314155b15610e4657604051630584026f60e41b81526004810188905260248101869052604481018490526064016107a2565b60005b87811015610f1957848482818110610e6357610e63612a1c565b9050602002013561016960008c6001600160a01b03166001600160a01b0316815260200190815260200160002060008b8b85818110610ea457610ea4612a1c565b9050602002016020810190610eb99190612625565b6001600160a01b03166001600160a01b031681526020019081526020016000206000898985818110610eed57610eed612a1c565b905060200201358152602001908152602001600020819055508080610f1190612a48565b915050610e49565b506001600160a01b038916600090815261016960209081526040808320838052825280832090915281208054849290610f53908490612a61565b9091555050505050505050505050565b610f6b61118f565b610f73610fb6565b610f7c336111d5565b6000610a823361100f565b600082815260976020526040902060010154610fa281610fac565b6107318383611841565b61089181336120b4565b600260c954036110085760405162461bcd60e51b815260206004820152601f60248201527f5265656e7472616e637947756172643a207265656e7472616e742063616c6c0060448201526064016107a2565b600260c955565b61016554600090819081906001600160a01b0316815b60b481101561117e57611039600582612a74565b60041461116c576110498161210d565b61105f57610164546001600160a01b031661106d565b610165546001600160a01b03165b6001600160a01b0380881660009081526101696020908152604080832093851683529281528282208583529052205494509150831561116c576001600160a01b03808716600090815261016960209081526040808320938616808452938252808320858452909152808220919091555163731133e960e01b81526001945063731133e99061110390899085908990600401612a96565b600060405180830381600087803b15801561111d57600080fd5b505af1158015611131573d6000803e3d6000fd5b505060408051848152602081018890526001600160a01b0380871694508a169250600080516020612c41833981519152910160405180910390a35b8061117681612a48565b915050611025565b5090949350505050565b600160c955565b60335460ff1615610ab05760405162461bcd60e51b815260206004820152601060248201526f14185d5cd8589b194e881c185d5cd95960821b60448201526064016107a2565b6001600160a01b0381166000908152610169602090815260408083208380528252808320909152902054341015611254576001600160a01b038116600090815261016960209081526040808320838052825280832090915290819020549051630a94872360e11b815234600482015260248101919091526044016107a2565b6001600160a01b03166000908152610169602090815260408083208380528252808320909152812055565b6001600160a01b0380861660009081526101696020908152604080832061015f549094168352928152828220828052905290812054819080156113a0576001600160a01b0388811660008181526101696020908152604080832061015f805487168552908352818420848052909252808320839055905490516394d008ef60e01b815260048101939093526024830185905260606044840152606483019190915260019450909116906394d008ef90608401600060405180830381600087803b15801561134b57600080fd5b505af115801561135f573d6000803e3d6000fd5b505061015f546040805160008152602081018690526001600160a01b039283169450918c169250600080516020612c41833981519152910160405180910390a35b85156115c9576001915060005b868110156115c7576001600160a01b03808a16600090815261016960209081526040808320610160549094168352929052908120908989848181106113f4576113f4612a1c565b90506020020135815260200190815260200160002054600003611474576101605489906001600160a01b031689898481811061143257611432612a1c565b6040516307716c8360e31b81526001600160a01b03958616600482015294909316602485015250602090910201356044820152600060648201526084016107a2565b6001600160a01b03808a16600090815261016960209081526040808320610160549094168352929052908120818a8a858181106114b3576114b3612a1c565b6020908102929092013583525081019190915260400160002055610160546001600160a01b03166340c10f198a8a8a858181106114f2576114f2612a1c565b6040516001600160e01b031960e087901b1681526001600160a01b0390941660048501526020029190910135602483015250604401600060405180830381600087803b15801561154157600080fd5b505af1158015611555573d6000803e3d6000fd5b5050610160546001600160a01b0390811692508b169050600080516020612c418339815191528a8a8581811061158d5761158d612a1c565b9050602002013560016040516115ad929190918252602082015260400190565b60405180910390a3806115bf81612a48565b9150506113ad565b505b83156117b0576001915060005b848110156117ae576001600160a01b03808a166000908152610169602090815260408083206101615490941683529290529081209087878481811061161d5761161d612a1c565b9050602002013581526020019081526020016000205460000361165b576101615489906001600160a01b031687878481811061143257611432612a1c565b6001600160a01b03808a16600090815261016960209081526040808320610160549094168352929052908120818a8a8581811061169a5761169a612a1c565b6020908102929092013583525081019190915260400160002055610161546001600160a01b03166340c10f198a8888858181106116d9576116d9612a1c565b6040516001600160e01b031960e087901b1681526001600160a01b0390941660048501526020029190910135602483015250604401600060405180830381600087803b15801561172857600080fd5b505af115801561173c573d6000803e3d6000fd5b5050610161546001600160a01b0390811692508b169050600080516020612c4183398151915288888581811061177457611774612a1c565b905060200201356001604051611794929190918252602082015260400190565b60405180910390a3806117a681612a48565b9150506115d6565b505b509695505050505050565b6117c58282610d5f565b6106ac5760008281526097602090815260408083206001600160a01b03851684529091529020805460ff191660011790556117fd3390565b6001600160a01b0316816001600160a01b0316837f2f8788117e7eff1d82e926ec794901d17c78024a50270940304540a733656f0d60405160405180910390a45050565b61184b8282610d5f565b156106ac5760008281526097602090815260408083206001600160a01b0385168085529252808320805460ff1916905551339285917ff6391f5c32d9c69d2a47ea670b442974b53935d1edc7fd64eb21e047a839171b9190a45050565b60006106ac81610fac565b7f4910fdfa16fed3260ed0e7147f7cc6da11a60208b5b9406d12a635614ffd91435460ff16156118e65761073183612143565b826001600160a01b03166352d1902d6040518163ffffffff1660e01b8152600401602060405180830381865afa925050508015611940575060408051601f3d908101601f1916820190925261193d91810190612ac6565b60015b6119a35760405162461bcd60e51b815260206004820152602e60248201527f45524331393637557067726164653a206e657720696d706c656d656e7461746960448201526d6f6e206973206e6f74205555505360901b60648201526084016107a2565b600080516020612c618339815191528114611a125760405162461bcd60e51b815260206004820152602960248201527f45524331393637557067726164653a20756e737570706f727465642070726f786044820152681a58589b195555525160ba1b60648201526084016107a2565b506107318383836121df565b611a26612204565b6033805460ff191690557f5db9ee0a495bf2e6ff9c91a7834c1ba4fdd244a5e8aa4e537bd38aeae4b073aa335b6040516001600160a01b03909116815260200160405180910390a1565b6000806000805b600c811015611fea576004811015611b97576001600160a01b038086166000908152610169602090815260408083206101635490941683529281528282208483529052205492508215611b97576001600160a01b038086166000908152610169602090815260408083206101638054861685529083528184208685529092528083209290925554905163731133e960e01b81526001945091169063731133e990611b2990889085908890600401612a96565b600060405180830381600087803b158015611b4357600080fd5b505af1158015611b57573d6000803e3d6000fd5b50506101635460408051858152602081018890526001600160a01b0392831694509189169250600080516020612c41833981519152910160405180910390a35b6007811015611dbc576001600160a01b038086166000908152610169602090815260408083206101675490941683529281528282208483529052205492508215611cae576001600160a01b038086166000908152610169602090815260408083206101678054861685529083528184208685529092528083209290925554905163731133e960e01b81526001945091169063731133e990611c4090889085908890600401612a96565b600060405180830381600087803b158015611c5a57600080fd5b505af1158015611c6e573d6000803e3d6000fd5b50506101675460408051858152602081018890526001600160a01b0392831694509189169250600080516020612c41833981519152910160405180910390a35b6001600160a01b038086166000908152610169602090815260408083206101685490941683529281528282208483529052205492508215611dbc576001600160a01b038086166000908152610169602090815260408083206101688054861685529083528184208685529092528083209290925554905163731133e960e01b81526001945091169063731133e990611d4e90889085908890600401612a96565b600060405180830381600087803b158015611d6857600080fd5b505af1158015611d7c573d6000803e3d6000fd5b50506101685460408051858152602081018890526001600160a01b0392831694509189169250600080516020612c41833981519152910160405180910390a35b6001600160a01b038086166000908152610169602090815260408083206101625490941683529281528282208483529052205492508215611eca576001600160a01b038086166000908152610169602090815260408083206101628054861685529083528184208685529092528083209290925554905163731133e960e01b81526001945091169063731133e990611e5c90889085908890600401612a96565b600060405180830381600087803b158015611e7657600080fd5b505af1158015611e8a573d6000803e3d6000fd5b50506101625460408051858152602081018890526001600160a01b0392831694509189169250600080516020612c41833981519152910160405180910390a35b6001600160a01b038086166000908152610169602090815260408083206101665490941683529281528282208483529052205492508215611fd8576001600160a01b038086166000908152610169602090815260408083206101668054861685529083528184208685529092528083209290925554905163731133e960e01b81526001945091169063731133e990611f6a90889085908890600401612a96565b600060405180830381600087803b158015611f8457600080fd5b505af1158015611f98573d6000803e3d6000fd5b50506101665460408051858152602081018890526001600160a01b0392831694509189169250600080516020612c41833981519152910160405180910390a35b80611fe281612a48565b915050611a77565b509392505050565b600054610100900460ff166120195760405162461bcd60e51b81526004016107a290612adf565b610ab061224d565b600054610100900460ff16610ab05760405162461bcd60e51b81526004016107a290612adf565b600054610100900460ff1661206f5760405162461bcd60e51b81526004016107a290612adf565b610ab0612280565b61207f61118f565b6033805460ff191660011790557f62e78cea01bee320cd4e420270b5ea74000d11b0c9f74754ebdbfc544b05a258611a533390565b6120be8282610d5f565b6106ac576120cb816122a7565b6120d68360206122b9565b6040516020016120e7929190612b4e565b60408051601f198184030181529082905262461bcd60e51b82526107a291600401612bc3565b6000603c82108061212a57506069821015801561212a5750607882105b8061064d57506096821015801561064d57505060a51190565b6001600160a01b0381163b6121b05760405162461bcd60e51b815260206004820152602d60248201527f455243313936373a206e657720696d706c656d656e746174696f6e206973206e60448201526c1bdd08184818dbdb9d1c9858dd609a1b60648201526084016107a2565b600080516020612c6183398151915280546001600160a01b0319166001600160a01b0392909216919091179055565b6121e88361245c565b6000825111806121f55750805b1561073157610706838361249c565b60335460ff16610ab05760405162461bcd60e51b815260206004820152601460248201527314185d5cd8589b194e881b9bdd081c185d5cd95960621b60448201526064016107a2565b600054610100900460ff166122745760405162461bcd60e51b81526004016107a290612adf565b6033805460ff19169055565b600054610100900460ff166111885760405162461bcd60e51b81526004016107a290612adf565b606061064d6001600160a01b03831660145b606060006122c8836002612bf6565b6122d3906002612a61565b67ffffffffffffffff8111156122eb576122eb612779565b6040519080825280601f01601f191660200182016040528015612315576020820181803683370190505b509050600360fc1b8160008151811061233057612330612a1c565b60200101906001600160f81b031916908160001a905350600f60fb1b8160018151811061235f5761235f612a1c565b60200101906001600160f81b031916908160001a9053506000612383846002612bf6565b61238e906001612a61565b90505b6001811115612406576f181899199a1a9b1b9c1cb0b131b232b360811b85600f16601081106123c2576123c2612a1c565b1a60f81b8282815181106123d8576123d8612a1c565b60200101906001600160f81b031916908160001a90535060049490941c936123ff81612c0d565b9050612391565b5083156124555760405162461bcd60e51b815260206004820181905260248201527f537472696e67733a20686578206c656e67746820696e73756666696369656e7460448201526064016107a2565b9392505050565b61246581612143565b6040516001600160a01b038216907fbc7cd75a20ee27fd9adebab32041f755214dbc6bffa90cc0225b39da2e5c2d3b90600090a250565b60606124558383604051806060016040528060278152602001612c81602791396060600080856001600160a01b0316856040516124d99190612c24565b600060405180830381855af49150503d8060008114612514576040519150601f19603f3d011682016040523d82523d6000602084013e612519565b606091505b509150915061252a86838387612534565b9695505050505050565b606083156125a357825160000361259c576001600160a01b0385163b61259c5760405162461bcd60e51b815260206004820152601d60248201527f416464726573733a2063616c6c20746f206e6f6e2d636f6e747261637400000060448201526064016107a2565b50816125ad565b6125ad83836125b5565b949350505050565b8151156125c55781518083602001fd5b8060405162461bcd60e51b81526004016107a29190612bc3565b6000602082840312156125f157600080fd5b81356001600160e01b03198116811461245557600080fd5b80356001600160a01b038116811461262057600080fd5b919050565b60006020828403121561263757600080fd5b61245582612609565b60008083601f84011261265257600080fd5b50813567ffffffffffffffff81111561266a57600080fd5b6020830191508360208260051b850101111561268557600080fd5b9250929050565b600080600080604085870312156126a257600080fd5b843567ffffffffffffffff808211156126ba57600080fd5b6126c688838901612640565b909650945060208701359150808211156126df57600080fd5b506126ec87828801612640565b95989497509550505050565b60006020828403121561270a57600080fd5b5035919050565b6000806040838503121561272457600080fd5b8235915061273460208401612609565b90509250929050565b60008060006060848603121561275257600080fd5b61275b84612609565b925061276960208501612609565b9150604084013590509250925092565b634e487b7160e01b600052604160045260246000fd5b600080604083850312156127a257600080fd5b6127ab83612609565b9150602083013567ffffffffffffffff808211156127c857600080fd5b818501915085601f8301126127dc57600080fd5b8135818111156127ee576127ee612779565b604051601f8201601f19908116603f0116810190838211818310171561281657612816612779565b8160405282815288602084870101111561282f57600080fd5b8260208601602083013760006020848301015280955050505050509250929050565b60008060008060006060868803121561286957600080fd5b61287286612609565b9450602086013567ffffffffffffffff8082111561288f57600080fd5b61289b89838a01612640565b909650945060408801359150808211156128b457600080fd5b506128c188828901612640565b969995985093965092949392505050565b60008060008060008060008060a0898b0312156128ee57600080fd5b6128f789612609565b9750602089013567ffffffffffffffff8082111561291457600080fd5b6129208c838d01612640565b909950975060408b013591508082111561293957600080fd5b6129458c838d01612640565b909750955060608b013591508082111561295e57600080fd5b5061296b8b828c01612640565b999c989b50969995989497949560800135949350505050565b6020808252602c908201527f46756e6374696f6e206d7573742062652063616c6c6564207468726f7567682060408201526b19195b1959d85d1958d85b1b60a21b606082015260800190565b6020808252602c908201527f46756e6374696f6e206d7573742062652063616c6c6564207468726f7567682060408201526b6163746976652070726f787960a01b606082015260800190565b634e487b7160e01b600052603260045260246000fd5b634e487b7160e01b600052601160045260246000fd5b600060018201612a5a57612a5a612a32565b5060010190565b8082018082111561064d5761064d612a32565b600082612a9157634e487b7160e01b600052601260045260246000fd5b500690565b6001600160a01b039390931683526020830191909152604082015260806060820181905260009082015260a00190565b600060208284031215612ad857600080fd5b5051919050565b6020808252602b908201527f496e697469616c697a61626c653a20636f6e7472616374206973206e6f74206960408201526a6e697469616c697a696e6760a81b606082015260800190565b60005b83811015612b45578181015183820152602001612b2d565b50506000910152565b7f416363657373436f6e74726f6c3a206163636f756e7420000000000000000000815260008351612b86816017850160208801612b2a565b7001034b99036b4b9b9b4b733903937b6329607d1b6017918401918201528351612bb7816028840160208801612b2a565b01602801949350505050565b6020815260008251806020840152612be2816040850160208701612b2a565b601f01601f19169190910160400192915050565b808202811582820484141761064d5761064d612a32565b600081612c1c57612c1c612a32565b506000190190565b60008251612c36818460208701612b2a565b919091019291505056feb12b5b2ec0b805414ef95da437881e90a6dc8e3915eadb4d48df0c08e5762a99360894a13ba1a3210667c828492db98dca3e2076cc3735a920a3ca505d382bbc416464726573733a206c6f772d6c6576656c2064656c65676174652063616c6c206661696c6564a49807205ce4d355092ef5a8a18f56e8913cf4a201fbe287825b095693c21775a2646970667358221220e377e76aeb0fd02d4538f4f855115e1d5386b6effb73e0a1cd898928ac2ea9bf64736f6c63430008140033",
  "linkReferences": {},
  "deployedLinkReferences": {}
}