{
  "_format": "hh-sol-artifact-1",
  "contractName": "BobaTeleportL2",
  "sourceName": "contracts/upgradeable/npc/BobaTeleporter/BobaTeleportL2.sol",
  "abi": [
    {
      "inputs": [],
      "stateMutability": "nonpayable",
      "type": "constructor"
    },
    {
      "inputs": [],
      "name": "NoAssetToTeleport",
      "type": "error"
    },
    {
      "anonymous": false,
      "inputs": [
        {
          "indexed": false,
          "internalType": "address",
          "name": "previousAdmin",
          "type": "address"
        },
        {
          "indexed": false,
          "internalType": "address",
          "name": "newAdmin",
          "type": "address"
        }
      ],
      "name": "AdminChanged",
      "type": "event"
    },
    {
      "anonymous": false,
      "inputs": [
        {
          "indexed": true,
          "internalType": "address",
          "name": "wallet",
          "type": "address"
        },
        {
          "indexed": true,
          "internalType": "address",
          "name": "token",
          "type": "address"
        },
        {
          "indexed": false,
          "internalType": "uint256",
          "name": "id",
          "type": "uint256"
        },
        {
          "indexed": false,
          "internalType": "uint256",
          "name": "amounts",
          "type": "uint256"
        }
      ],
      "name": "AssetTeleported",
      "type": "event"
    },
    {
      "anonymous": false,
      "inputs": [
        {
          "indexed": true,
          "internalType": "address",
          "name": "beacon",
          "type": "address"
        }
      ],
      "name": "BeaconUpgraded",
      "type": "event"
    },
    {
      "anonymous": false,
      "inputs": [
        {
          "indexed": false,
          "internalType": "uint8",
          "name": "version",
          "type": "uint8"
        }
      ],
      "name": "Initialized",
      "type": "event"
    },
    {
      "anonymous": false,
      "inputs": [
        {
          "indexed": false,
          "internalType": "address",
          "name": "account",
          "type": "address"
        }
      ],
      "name": "Paused",
      "type": "event"
    },
    {
      "anonymous": false,
      "inputs": [
        {
          "indexed": true,
          "internalType": "bytes32",
          "name": "role",
          "type": "bytes32"
        },
        {
          "indexed": true,
          "internalType": "bytes32",
          "name": "previousAdminRole",
          "type": "bytes32"
        },
        {
          "indexed": true,
          "internalType": "bytes32",
          "name": "newAdminRole",
          "type": "bytes32"
        }
      ],
      "name": "RoleAdminChanged",
      "type": "event"
    },
    {
      "anonymous": false,
      "inputs": [
        {
          "indexed": true,
          "internalType": "bytes32",
          "name": "role",
          "type": "bytes32"
        },
        {
          "indexed": true,
          "internalType": "address",
          "name": "account",
          "type": "address"
        },
        {
          "indexed": true,
          "internalType": "address",
          "name": "sender",
          "type": "address"
        }
      ],
      "name": "RoleGranted",
      "type": "event"
    },
    {
      "anonymous": false,
      "inputs": [
        {
          "indexed": true,
          "internalType": "bytes32",
          "name": "role",
          "type": "bytes32"
        },
        {
          "indexed": true,
          "internalType": "address",
          "name": "account",
          "type": "address"
        },
        {
          "indexed": true,
          "internalType": "address",
          "name": "sender",
          "type": "address"
        }
      ],
      "name": "RoleRevoked",
      "type": "event"
    },
    {
      "anonymous": false,
      "inputs": [
        {
          "indexed": false,
          "internalType": "address",
          "name": "account",
          "type": "address"
        }
      ],
      "name": "Unpaused",
      "type": "event"
    },
    {
      "anonymous": false,
      "inputs": [
        {
          "indexed": true,
          "internalType": "address",
          "name": "implementation",
          "type": "address"
        }
      ],
      "name": "Upgraded",
      "type": "event"
    },
    {
      "inputs": [],
      "name": "ADMIN_ROLE",
      "outputs": [
        {
          "internalType": "bytes32",
          "name": "",
          "type": "bytes32"
        }
      ],
      "stateMutability": "view",
      "type": "function"
    },
    {
      "inputs": [],
      "name": "BADGES",
      "outputs": [
        {
          "internalType": "address",
          "name": "",
          "type": "address"
        }
      ],
      "stateMutability": "view",
      "type": "function"
    },
    {
      "inputs": [],
      "name": "BUNDLES",
      "outputs": [
        {
          "internalType": "address",
          "name": "",
          "type": "address"
        }
      ],
      "stateMutability": "view",
      "type": "function"
    },
    {
      "inputs": [],
      "name": "COMPONENTS",
      "outputs": [
        {
          "internalType": "address",
          "name": "",
          "type": "address"
        }
      ],
      "stateMutability": "view",
      "type": "function"
    },
    {
      "inputs": [],
      "name": "DEFAULT_ADMIN_ROLE",
      "outputs": [
        {
          "internalType": "bytes32",
          "name": "",
          "type": "bytes32"
        }
      ],
      "stateMutability": "view",
      "type": "function"
    },
    {
      "inputs": [],
      "name": "ELVES",
      "outputs": [
        {
          "internalType": "address",
          "name": "",
          "type": "address"
        }
      ],
      "stateMutability": "view",
      "type": "function"
    },
    {
      "inputs": [],
      "name": "MAGIC",
      "outputs": [
        {
          "internalType": "address",
          "name": "",
          "type": "address"
        }
      ],
      "stateMutability": "view",
      "type": "function"
    },
    {
      "inputs": [],
      "name": "POTIONS",
      "outputs": [
        {
          "internalType": "address",
          "name": "",
          "type": "address"
        }
      ],
      "stateMutability": "view",
      "type": "function"
    },
    {
      "inputs": [],
      "name": "RAW_RESOURCES",
      "outputs": [
        {
          "internalType": "address",
          "name": "",
          "type": "address"
        }
      ],
      "stateMutability": "view",
      "type": "function"
    },
    {
      "inputs": [],
      "name": "REFINED_RESOURCES",
      "outputs": [
        {
          "internalType": "address",
          "name": "",
          "type": "address"
        }
      ],
      "stateMutability": "view",
      "type": "function"
    },
    {
      "inputs": [],
      "name": "SKINS",
      "outputs": [
        {
          "internalType": "address",
          "name": "",
          "type": "address"
        }
      ],
      "stateMutability": "view",
      "type": "function"
    },
    {
      "inputs": [],
      "name": "TOOLS",
      "outputs": [
        {
          "internalType": "address",
          "name": "",
          "type": "address"
        }
      ],
      "stateMutability": "view",
      "type": "function"
    },
    {
      "inputs": [
        {
          "internalType": "address",
          "name": "wallet",
          "type": "address"
        }
      ],
      "name": "adminTeleportNFTsAndMagic",
      "outputs": [],
      "stateMutability": "nonpayable",
      "type": "function"
    },
    {
      "inputs": [
        {
          "internalType": "address",
          "name": "wallet",
          "type": "address"
        }
      ],
      "name": "adminTeleportResources",
      "outputs": [],
      "stateMutability": "nonpayable",
      "type": "function"
    },
    {
      "inputs": [
        {
          "internalType": "address",
          "name": "wallet",
          "type": "address"
        }
      ],
      "name": "adminTeleportTokens",
      "outputs": [],
      "stateMutability": "nonpayable",
      "type": "function"
    },
    {
      "inputs": [
        {
          "internalType": "bytes32",
          "name": "role",
          "type": "bytes32"
        }
      ],
      "name": "getRoleAdmin",
      "outputs": [
        {
          "internalType": "bytes32",
          "name": "",
          "type": "bytes32"
        }
      ],
      "stateMutability": "view",
      "type": "function"
    },
    {
      "inputs": [
        {
          "internalType": "bytes32",
          "name": "role",
          "type": "bytes32"
        },
        {
          "internalType": "address",
          "name": "account",
          "type": "address"
        }
      ],
      "name": "grantRole",
      "outputs": [],
      "stateMutability": "nonpayable",
      "type": "function"
    },
    {
      "inputs": [
        {
          "internalType": "bytes32",
          "name": "role",
          "type": "bytes32"
        },
        {
          "internalType": "address",
          "name": "account",
          "type": "address"
        }
      ],
      "name": "hasRole",
      "outputs": [
        {
          "internalType": "bool",
          "name": "",
          "type": "bool"
        }
      ],
      "stateMutability": "view",
      "type": "function"
    },
    {
      "inputs": [],
      "name": "initialize",
      "outputs": [],
      "stateMutability": "nonpayable",
      "type": "function"
    },
    {
      "inputs": [],
      "name": "pause",
      "outputs": [],
      "stateMutability": "nonpayable",
      "type": "function"
    },
    {
      "inputs": [],
      "name": "paused",
      "outputs": [
        {
          "internalType": "bool",
          "name": "",
          "type": "bool"
        }
      ],
      "stateMutability": "view",
      "type": "function"
    },
    {
      "inputs": [],
      "name": "proxiableUUID",
      "outputs": [
        {
          "internalType": "bytes32",
          "name": "",
          "type": "bytes32"
        }
      ],
      "stateMutability": "view",
      "type": "function"
    },
    {
      "inputs": [
        {
          "internalType": "bytes32",
          "name": "role",
          "type": "bytes32"
        },
        {
          "internalType": "address",
          "name": "account",
          "type": "address"
        }
      ],
      "name": "renounceRole",
      "outputs": [],
      "stateMutability": "nonpayable",
      "type": "function"
    },
    {
      "inputs": [
        {
          "internalType": "bytes32",
          "name": "role",
          "type": "bytes32"
        },
        {
          "internalType": "address",
          "name": "account",
          "type": "address"
        }
      ],
      "name": "revokeRole",
      "outputs": [],
      "stateMutability": "nonpayable",
      "type": "function"
    },
    {
      "inputs": [
        {
          "internalType": "bytes4",
          "name": "interfaceId",
          "type": "bytes4"
        }
      ],
      "name": "supportsInterface",
      "outputs": [
        {
          "internalType": "bool",
          "name": "",
          "type": "bool"
        }
      ],
      "stateMutability": "view",
      "type": "function"
    },
    {
      "inputs": [],
      "name": "teleportNFTsAndMagic",
      "outputs": [],
      "stateMutability": "nonpayable",
      "type": "function"
    },
    {
      "inputs": [],
      "name": "teleportResources",
      "outputs": [],
      "stateMutability": "nonpayable",
      "type": "function"
    },
    {
      "inputs": [],
      "name": "teleportTokens",
      "outputs": [],
      "stateMutability": "nonpayable",
      "type": "function"
    },
    {
      "inputs": [],
      "name": "unpause",
      "outputs": [],
      "stateMutability": "nonpayable",
      "type": "function"
    },
    {
      "inputs": [
        {
          "internalType": "address",
          "name": "newImplementation",
          "type": "address"
        }
      ],
      "name": "upgradeTo",
      "outputs": [],
      "stateMutability": "nonpayable",
      "type": "function"
    },
    {
      "inputs": [
        {
          "internalType": "address",
          "name": "newImplementation",
          "type": "address"
        },
        {
          "internalType": "bytes",
          "name": "data",
          "type": "bytes"
        }
      ],
      "name": "upgradeToAndCall",
      "outputs": [],
      "stateMutability": "payable",
      "type": "function"
    }
  ],
  "bytecode": "0x60a0604052306080523480156200001557600080fd5b506200002062000026565b620000e7565b600054610100900460ff1615620000935760405162461bcd60e51b815260206004820152602760248201527f496e697469616c697a61626c653a20636f6e747261637420697320696e697469604482015266616c697a696e6760c81b606482015260840160405180910390fd5b60005460ff90811614620000e5576000805460ff191660ff9081179091556040519081527f7f26b83ff96e1f2b6a682f133852f6798a09c465da95921460cefb38474024989060200160405180910390a15b565b6080516127e86200011f6000396000818161073b0152818161077b0152818161083a0152818161087a015261090901526127e86000f3fe6080604052600436106101d85760003560e01c80635e41813d11610102578063a84db9d311610095578063d547741f11610064578063d547741f14610532578063fa31a5e214610552578063ff8ac7df14610573578063ffc7c8571461058857600080fd5b8063a84db9d3146104b0578063a94821a3146104d0578063a9ca8acc146104f1578063c33d3fb01461051157600080fd5b80638456cb59116100d15780638456cb591461045157806391d1485414610466578063a217fddf14610486578063a2b7542c1461049b57600080fd5b80635e41813d146103d85780636bd7d64d146103f957806375b238fc1461041a5780638129fc1c1461043c57600080fd5b8063248a9ca31161017a5780633f4ba83a116101495780633f4ba83a146103835780634f1ef2861461039857806352d1902d146103ab5780635c975abb146103c057600080fd5b8063248a9ca3146102e55780632f2ff15d1461032357806336568abe146103435780633659cfe61461036357600080fd5b80630de15493116101b65780630de15493146102495780630e2c159c146102825780630fb703ca146102a357806312b03a7f146102c457600080fd5b806301ffc9a7146101dd57806309ed557b146102125780630c833aec14610234575b600080fd5b3480156101e957600080fd5b506101fd6101f8366004612245565b6105a9565b60405190151581526020015b60405180910390f35b34801561021e57600080fd5b5061023261022d36600461228b565b6105e0565b005b34801561024057600080fd5b5061023261063d565b34801561025557600080fd5b506101615461026a906001600160a01b031681565b6040516001600160a01b039091168152602001610209565b34801561028e57600080fd5b506101665461026a906001600160a01b031681565b3480156102af57600080fd5b506101675461026a906001600160a01b031681565b3480156102d057600080fd5b506101685461026a906001600160a01b031681565b3480156102f157600080fd5b506103156103003660046122a6565b60009081526097602052604090206001015490565b604051908152602001610209565b34801561032f57600080fd5b5061023261033e3660046122bf565b610688565b34801561034f57600080fd5b5061023261035e3660046122bf565b6106b2565b34801561036f57600080fd5b5061023261037e36600461228b565b610731565b34801561038f57600080fd5b50610232610810565b6102326103a6366004612332565b610830565b3480156103b757600080fd5b506103156108fc565b3480156103cc57600080fd5b5060335460ff166101fd565b3480156103e457600080fd5b5061015f5461026a906001600160a01b031681565b34801561040557600080fd5b506101625461026a906001600160a01b031681565b34801561042657600080fd5b5061031560008051602061279383398151915281565b34801561044857600080fd5b506102326109af565b34801561045d57600080fd5b50610232610c3c565b34801561047257600080fd5b506101fd6104813660046122bf565b610c5c565b34801561049257600080fd5b50610315600081565b3480156104a757600080fd5b50610232610c87565b3480156104bc57600080fd5b506102326104cb36600461228b565b610ca2565b3480156104dc57600080fd5b506101645461026a906001600160a01b031681565b3480156104fd57600080fd5b5061023261050c36600461228b565b610ccd565b34801561051d57600080fd5b506101605461026a906001600160a01b031681565b34801561053e57600080fd5b5061023261054d3660046122bf565b610cf8565b34801561055e57600080fd5b506101635461026a906001600160a01b031681565b34801561057f57600080fd5b50610232610d1d565b34801561059457600080fd5b506101655461026a906001600160a01b031681565b60006001600160e01b03198216637965db0b60e01b14806105da57506301ffc9a760e01b6001600160e01b03198316145b92915050565b6000805160206127938339815191526105f881610d38565b610600610d42565b600061060b83610d9b565b90508060000361062e57604051633706b6d560e11b815260040160405180910390fd5b50610639600160c955565b5050565b61064561138d565b61064d610d42565b6000610658336113d3565b90508060000361067b57604051633706b6d560e11b815260040160405180910390fd5b50610686600160c955565b565b6000828152609760205260409020600101546106a381610d38565b6106ad8383611565565b505050565b6001600160a01b03811633146107275760405162461bcd60e51b815260206004820152602f60248201527f416363657373436f6e74726f6c3a2063616e206f6e6c792072656e6f756e636560448201526e103937b632b9903337b91039b2b63360891b60648201526084015b60405180910390fd5b61063982826115eb565b6001600160a01b037f00000000000000000000000000000000000000000000000000000000000000001630036107795760405162461bcd60e51b815260040161071e906123d8565b7f00000000000000000000000000000000000000000000000000000000000000006001600160a01b03166107c260008051602061274c833981519152546001600160a01b031690565b6001600160a01b0316146107e85760405162461bcd60e51b815260040161071e90612424565b6107f181611652565b6040805160008082526020820190925261080d9183919061165d565b50565b60008051602061279383398151915261082881610d38565b61080d6117c8565b6001600160a01b037f00000000000000000000000000000000000000000000000000000000000000001630036108785760405162461bcd60e51b815260040161071e906123d8565b7f00000000000000000000000000000000000000000000000000000000000000006001600160a01b03166108c160008051602061274c833981519152546001600160a01b031690565b6001600160a01b0316146108e75760405162461bcd60e51b815260040161071e90612424565b6108f082611652565b6106398282600161165d565b6000306001600160a01b037f0000000000000000000000000000000000000000000000000000000000000000161461099c5760405162461bcd60e51b815260206004820152603860248201527f555550535570677261646561626c653a206d757374206e6f742062652063616c60448201527f6c6564207468726f7567682064656c656761746563616c6c0000000000000000606482015260840161071e565b5060008051602061274c83398151915290565b600054610100900460ff16158080156109cf5750600054600160ff909116105b806109e95750303b1580156109e9575060005460ff166001145b610a4c5760405162461bcd60e51b815260206004820152602e60248201527f496e697469616c697a61626c653a20636f6e747261637420697320616c72656160448201526d191e481a5b9a5d1a585b1a5e995960921b606482015260840161071e565b6000805460ff191660011790558015610a6f576000805461ff0019166101001790555b610a7761181a565b610a7f611849565b610a87611849565b610a8f611870565b610a9a600033611565565b610ab260008051602061279383398151915233611565565b61015f80546001600160a01b031990811673245b4c64271e91c9fb6be1971a0208dd92efebde17909155610160805482167309692b3a53eb7870f00b342444e4f42e259e799917905561016180548216730458b679c30aa4b8622742ea9fb2a44660c4a2a11790556101628054821673753492646d652987bc20b3e8c72c7a9be8809f5d1790556101638054821673146d129f1aebae23422d1f4613c75ffe4087329c1790556101648054821673ce953d1a6be7331eef06ec9ac8a4a22a4f2bdfb017905561016580548216734f82dfbeed2aa0686eb26ddba7a075406b4c6a6717905561016680548216739402adcfb075155c245862a23f713c15e9cd71c7179055610167805482167369938433cb243721978986a5b3c981a6819702121790556101688054909116739e2aa514325e67d3ba78e575caf6f90fbc628069179055801561080d576000805461ff0019169055604051600181527f7f26b83ff96e1f2b6a682f133852f6798a09c465da95921460cefb38474024989060200160405180910390a150565b600080516020612793833981519152610c5481610d38565b61080d61189f565b60009182526097602090815260408084206001600160a01b0393909316845291905290205460ff1690565b610c8f61138d565b610c97610d42565b6000610658336118dc565b600080516020612793833981519152610cba81610d38565b610cc2610d42565b600061060b836113d3565b600080516020612793833981519152610ce581610d38565b610ced610d42565b600061060b836118dc565b600082815260976020526040902060010154610d1381610d38565b6106ad83836115eb565b610d2561138d565b610d2d610d42565b600061065833610d9b565b61080d8133611d14565b600260c95403610d945760405162461bcd60e51b815260206004820152601f60248201527f5265656e7472616e637947756172643a207265656e7472616e742063616c6c00604482015260640161071e565b600260c955565b6000806000805b600c81101561137e576004811015610ed75761016354604051627eeac760e11b81526001600160a01b038781166004830152602482018490529091169062fdd58e90604401602060405180830381865afa158015610e04573d6000803e3d6000fd5b505050506040513d601f19601f82011682018060405250810190610e289190612470565b92508215610ed75761016354604051632f86b59760e21b8152600193506001600160a01b039091169063be1ad65c90610e6990889085908890600401612489565b600060405180830381600087803b158015610e8357600080fd5b505af1158015610e97573d6000803e3d6000fd5b50506101635460408051858152602081018890526001600160a01b039283169450918916925060008051602061272c833981519152910160405180910390a35b60078110156111265761016754604051627eeac760e11b81526001600160a01b038781166004830152602482018490529091169062fdd58e90604401602060405180830381865afa158015610f30573d6000803e3d6000fd5b505050506040513d601f19601f82011682018060405250810190610f549190612470565b925082156110035761016754604051632f86b59760e21b8152600193506001600160a01b039091169063be1ad65c90610f9590889085908890600401612489565b600060405180830381600087803b158015610faf57600080fd5b505af1158015610fc3573d6000803e3d6000fd5b50506101675460408051858152602081018890526001600160a01b039283169450918916925060008051602061272c833981519152910160405180910390a35b61016854604051627eeac760e11b81526001600160a01b038781166004830152602482018490529091169062fdd58e90604401602060405180830381865afa158015611053573d6000803e3d6000fd5b505050506040513d601f19601f820116820180604052508101906110779190612470565b925082156111265761016854604051632f86b59760e21b8152600193506001600160a01b039091169063be1ad65c906110b890889085908890600401612489565b600060405180830381600087803b1580156110d257600080fd5b505af11580156110e6573d6000803e3d6000fd5b50506101685460408051858152602081018890526001600160a01b039283169450918916925060008051602061272c833981519152910160405180910390a35b61016254604051627eeac760e11b81526001600160a01b038781166004830152602482018490529091169062fdd58e90604401602060405180830381865afa158015611176573d6000803e3d6000fd5b505050506040513d601f19601f8201168201806040525081019061119a9190612470565b925082156112495761016254604051632f86b59760e21b8152600193506001600160a01b039091169063be1ad65c906111db90889085908890600401612489565b600060405180830381600087803b1580156111f557600080fd5b505af1158015611209573d6000803e3d6000fd5b50506101625460408051858152602081018890526001600160a01b039283169450918916925060008051602061272c833981519152910160405180910390a35b61016654604051627eeac760e11b81526001600160a01b038781166004830152602482018490529091169062fdd58e90604401602060405180830381865afa158015611299573d6000803e3d6000fd5b505050506040513d601f19601f820116820180604052508101906112bd9190612470565b9250821561136c5761016654604051632f86b59760e21b8152600193506001600160a01b039091169063be1ad65c906112fe90889085908890600401612489565b600060405180830381600087803b15801561131857600080fd5b505af115801561132c573d6000803e3d6000fd5b50506101665460408051858152602081018890526001600160a01b039283169450918916925060008051602061272c833981519152910160405180910390a35b80611376816124c0565b915050610da2565b509392505050565b600160c955565b60335460ff16156106865760405162461bcd60e51b815260206004820152601060248201526f14185d5cd8589b194e881c185d5cd95960821b604482015260640161071e565b61016554600090819081906001600160a01b0316815b60b481101561155b576113fd6005826124d9565b6004146115495761140d81611d6d565b61142357610164546001600160a01b0316611431565b610165546001600160a01b03165b604051627eeac760e11b81526001600160a01b038881166004830152602482018490529193509083169062fdd58e90604401602060405180830381865afa158015611480573d6000803e3d6000fd5b505050506040513d601f19601f820116820180604052508101906114a49190612470565b9350831561154957604051632f86b59760e21b8152600193506001600160a01b0383169063be1ad65c906114e090899085908990600401612489565b600060405180830381600087803b1580156114fa57600080fd5b505af115801561150e573d6000803e3d6000fd5b505060408051848152602081018890526001600160a01b0380871694508a16925060008051602061272c833981519152910160405180910390a35b80611553816124c0565b9150506113e9565b5090949350505050565b61156f8282610c5c565b6106395760008281526097602090815260408083206001600160a01b03851684529091529020805460ff191660011790556115a73390565b6001600160a01b0316816001600160a01b0316837f2f8788117e7eff1d82e926ec794901d17c78024a50270940304540a733656f0d60405160405180910390a45050565b6115f58282610c5c565b156106395760008281526097602090815260408083206001600160a01b0385168085529252808320805460ff1916905551339285917ff6391f5c32d9c69d2a47ea670b442974b53935d1edc7fd64eb21e047a839171b9190a45050565b600061063981610d38565b7f4910fdfa16fed3260ed0e7147f7cc6da11a60208b5b9406d12a635614ffd91435460ff1615611690576106ad83611da3565b826001600160a01b03166352d1902d6040518163ffffffff1660e01b8152600401602060405180830381865afa9250505080156116ea575060408051601f3d908101601f191682019092526116e791810190612470565b60015b61174d5760405162461bcd60e51b815260206004820152602e60248201527f45524331393637557067726164653a206e657720696d706c656d656e7461746960448201526d6f6e206973206e6f74205555505360901b606482015260840161071e565b60008051602061274c83398151915281146117bc5760405162461bcd60e51b815260206004820152602960248201527f45524331393637557067726164653a20756e737570706f727465642070726f786044820152681a58589b195555525160ba1b606482015260840161071e565b506106ad838383611e3f565b6117d0611e6a565b6033805460ff191690557f5db9ee0a495bf2e6ff9c91a7834c1ba4fdd244a5e8aa4e537bd38aeae4b073aa335b6040516001600160a01b03909116815260200160405180910390a1565b600054610100900460ff166118415760405162461bcd60e51b815260040161071e906124fb565b610686611eb3565b600054610100900460ff166106865760405162461bcd60e51b815260040161071e906124fb565b600054610100900460ff166118975760405162461bcd60e51b815260040161071e906124fb565b610686611ee6565b6118a761138d565b6033805460ff191660011790557f62e78cea01bee320cd4e420270b5ea74000d11b0c9f74754ebdbfc544b05a2586117fd3390565b61015f546040516370a0823160e01b81526001600160a01b03838116600483015260009283928392909116906370a0823190602401602060405180830381865afa15801561192e573d6000803e3d6000fd5b505050506040513d601f19601f820116820180604052508101906119529190612470565b90508015611a025761015f546040516304ddf0a560e01b81526001600160a01b0386811660048301526024820184905260019450909116906304ddf0a590604401600060405180830381600087803b1580156119ad57600080fd5b505af11580156119c1573d6000803e3d6000fd5b505061015f546040805160008152602081018690526001600160a01b039283169450918816925060008051602061272c833981519152910160405180910390a35b61016054604051632118854760e21b81526001600160a01b0386811660048301526000921690638462151c90602401600060405180830381865afa158015611a4e573d6000803e3d6000fd5b505050506040513d6000823e601f3d908101601f19168201604052611a769190810190612546565b805190915015611b87576001925060005b8151811015611b85576101605482516001600160a01b03909116906389832beb90849084908110611aba57611aba6125ec565b60200260200101516040518263ffffffff1660e01b8152600401611ae091815260200190565b600060405180830381600087803b158015611afa57600080fd5b505af1158015611b0e573d6000803e3d6000fd5b50506101605484516001600160a01b039182169350908916915060008051602061272c83398151915290859085908110611b4a57611b4a6125ec565b60200260200101516001604051611b6b929190918252602082015260400190565b60405180910390a380611b7d816124c0565b915050611a87565b505b61016154604051632118854760e21b81526001600160a01b03878116600483015290911690638462151c90602401600060405180830381865afa158015611bd2573d6000803e3d6000fd5b505050506040513d6000823e601f3d908101601f19168201604052611bfa9190810190612546565b805190915015611d0b576001925060005b8151811015611d09576101615482516001600160a01b03909116906389832beb90849084908110611c3e57611c3e6125ec565b60200260200101516040518263ffffffff1660e01b8152600401611c6491815260200190565b600060405180830381600087803b158015611c7e57600080fd5b505af1158015611c92573d6000803e3d6000fd5b50506101615484516001600160a01b039182169350908916915060008051602061272c83398151915290859085908110611cce57611cce6125ec565b60200260200101516001604051611cef929190918252602082015260400190565b60405180910390a380611d01816124c0565b915050611c0b565b505b50909392505050565b611d1e8282610c5c565b61063957611d2b81611f0d565b611d36836020611f1f565b604051602001611d47929190612626565b60408051601f198184030181529082905262461bcd60e51b825261071e9160040161269b565b6000603c821080611d8a575060698210158015611d8a5750607882105b806105da5750609682101580156105da57505060a51190565b6001600160a01b0381163b611e105760405162461bcd60e51b815260206004820152602d60248201527f455243313936373a206e657720696d706c656d656e746174696f6e206973206e60448201526c1bdd08184818dbdb9d1c9858dd609a1b606482015260840161071e565b60008051602061274c83398151915280546001600160a01b0319166001600160a01b0392909216919091179055565b611e48836120c2565b600082511180611e555750805b156106ad57611e648383612102565b50505050565b60335460ff166106865760405162461bcd60e51b815260206004820152601460248201527314185d5cd8589b194e881b9bdd081c185d5cd95960621b604482015260640161071e565b600054610100900460ff16611eda5760405162461bcd60e51b815260040161071e906124fb565b6033805460ff19169055565b600054610100900460ff166113865760405162461bcd60e51b815260040161071e906124fb565b60606105da6001600160a01b03831660145b60606000611f2e8360026126ce565b611f399060026126e5565b67ffffffffffffffff811115611f5157611f516122eb565b6040519080825280601f01601f191660200182016040528015611f7b576020820181803683370190505b509050600360fc1b81600081518110611f9657611f966125ec565b60200101906001600160f81b031916908160001a905350600f60fb1b81600181518110611fc557611fc56125ec565b60200101906001600160f81b031916908160001a9053506000611fe98460026126ce565b611ff49060016126e5565b90505b600181111561206c576f181899199a1a9b1b9c1cb0b131b232b360811b85600f1660108110612028576120286125ec565b1a60f81b82828151811061203e5761203e6125ec565b60200101906001600160f81b031916908160001a90535060049490941c93612065816126f8565b9050611ff7565b5083156120bb5760405162461bcd60e51b815260206004820181905260248201527f537472696e67733a20686578206c656e67746820696e73756666696369656e74604482015260640161071e565b9392505050565b6120cb81611da3565b6040516001600160a01b038216907fbc7cd75a20ee27fd9adebab32041f755214dbc6bffa90cc0225b39da2e5c2d3b90600090a250565b60606120bb838360405180606001604052806027815260200161276c602791396060600080856001600160a01b03168560405161213f919061270f565b600060405180830381855af49150503d806000811461217a576040519150601f19603f3d011682016040523d82523d6000602084013e61217f565b606091505b50915091506121908683838761219a565b9695505050505050565b60608315612209578251600003612202576001600160a01b0385163b6122025760405162461bcd60e51b815260206004820152601d60248201527f416464726573733a2063616c6c20746f206e6f6e2d636f6e7472616374000000604482015260640161071e565b5081612213565b612213838361221b565b949350505050565b81511561222b5781518083602001fd5b8060405162461bcd60e51b815260040161071e919061269b565b60006020828403121561225757600080fd5b81356001600160e01b0319811681146120bb57600080fd5b80356001600160a01b038116811461228657600080fd5b919050565b60006020828403121561229d57600080fd5b6120bb8261226f565b6000602082840312156122b857600080fd5b5035919050565b600080604083850312156122d257600080fd5b823591506122e26020840161226f565b90509250929050565b634e487b7160e01b600052604160045260246000fd5b604051601f8201601f1916810167ffffffffffffffff8111828210171561232a5761232a6122eb565b604052919050565b6000806040838503121561234557600080fd5b61234e8361226f565b915060208084013567ffffffffffffffff8082111561236c57600080fd5b818601915086601f83011261238057600080fd5b813581811115612392576123926122eb565b6123a4601f8201601f19168501612301565b915080825287848285010111156123ba57600080fd5b80848401858401376000848284010152508093505050509250929050565b6020808252602c908201527f46756e6374696f6e206d7573742062652063616c6c6564207468726f7567682060408201526b19195b1959d85d1958d85b1b60a21b606082015260800190565b6020808252602c908201527f46756e6374696f6e206d7573742062652063616c6c6564207468726f7567682060408201526b6163746976652070726f787960a01b606082015260800190565b60006020828403121561248257600080fd5b5051919050565b6001600160a01b039390931683526020830191909152604082015260600190565b634e487b7160e01b600052601160045260246000fd5b6000600182016124d2576124d26124aa565b5060010190565b6000826124f657634e487b7160e01b600052601260045260246000fd5b500690565b6020808252602b908201527f496e697469616c697a61626c653a20636f6e7472616374206973206e6f74206960408201526a6e697469616c697a696e6760a81b606082015260800190565b6000602080838503121561255957600080fd5b825167ffffffffffffffff8082111561257157600080fd5b818501915085601f83011261258557600080fd5b815181811115612597576125976122eb565b8060051b91506125a8848301612301565b81815291830184019184810190888411156125c257600080fd5b938501935b838510156125e0578451825293850193908501906125c7565b98975050505050505050565b634e487b7160e01b600052603260045260246000fd5b60005b8381101561261d578181015183820152602001612605565b50506000910152565b7f416363657373436f6e74726f6c3a206163636f756e742000000000000000000081526000835161265e816017850160208801612602565b7001034b99036b4b9b9b4b733903937b6329607d1b601791840191820152835161268f816028840160208801612602565b01602801949350505050565b60208152600082518060208401526126ba816040850160208701612602565b601f01601f19169190910160400192915050565b80820281158282048414176105da576105da6124aa565b808201808211156105da576105da6124aa565b600081612707576127076124aa565b506000190190565b60008251612721818460208701612602565b919091019291505056febd5d26733fa7745db1b0c51b51b53a8c676522120455d0ea9208deab1f94da22360894a13ba1a3210667c828492db98dca3e2076cc3735a920a3ca505d382bbc416464726573733a206c6f772d6c6576656c2064656c65676174652063616c6c206661696c6564a49807205ce4d355092ef5a8a18f56e8913cf4a201fbe287825b095693c21775a264697066735822122068c7c1206aec09188f11c252e3428435acb6035e7ac3cdf78c335ff3c8a7547364736f6c63430008140033",
  "linkReferences": {},
  "deployedLinkReferences": {}
}