{
  "_format": "hh-sol-artifact-1",
  "contractName": "UEQueryHelper",
  "sourceName": "contracts/upgradeable/utils/UEQueryHelper.sol",
  "abi": [
    {
      "inputs": [],
      "stateMutability": "nonpayable",
      "type": "constructor"
    },
    {
      "anonymous": false,
      "inputs": [
        {
          "indexed": false,
          "internalType": "uint8",
          "name": "version",
          "type": "uint8"
        }
      ],
      "name": "Initialized",
      "type": "event"
    },
    {
      "inputs": [],
      "name": "ELVES",
      "outputs": [
        {
          "internalType": "contract ICosmicElves",
          "name": "",
          "type": "address"
        }
      ],
      "stateMutability": "view",
      "type": "function"
    },
    {
      "inputs": [],
      "name": "getAllElves",
      "outputs": [
        {
          "internalType": "string[]",
          "name": "",
          "type": "string[]"
        }
      ],
      "stateMutability": "view",
      "type": "function"
    },
    {
      "inputs": [],
      "name": "initialize",
      "outputs": [],
      "stateMutability": "nonpayable",
      "type": "function"
    }
  ],
  "bytecode": "0x608060405234801561001057600080fd5b5061001961001e565b6100de565b600054610100900460ff161561008a5760405162461bcd60e51b815260206004820152602760248201527f496e697469616c697a61626c653a20636f6e747261637420697320696e697469604482015266616c697a696e6760c81b606482015260840160405180910390fd5b60005460ff90811610156100dc576000805460ff191660ff9081179091556040519081527f7f26b83ff96e1f2b6a682f133852f6798a09c465da95921460cefb38474024989060200160405180910390a15b565b6105ce806100ed6000396000f3fe608060405234801561001057600080fd5b50600436106100415760003560e01c80638129fc1c14610046578063b1ec5e1514610050578063c33d3fb01461006e575b600080fd5b61004e6100a1565b005b6100586101ae565b60405161006591906102d5565b60405180910390f35b610089739a337a6f883de95f49e05cd7d801d475a40a9c7081565b6040516001600160a01b039091168152602001610065565b600054610100900460ff16158080156100c15750600054600160ff909116105b806100db5750303b1580156100db575060005460ff166001145b6101425760405162461bcd60e51b815260206004820152602e60248201527f496e697469616c697a61626c653a20636f6e747261637420697320616c72656160448201526d191e481a5b9a5d1a585b1a5e995960921b606482015260840160405180910390fd5b6000805460ff191660011790558015610165576000805461ff0019166101001790555b80156101ab576000805461ff0019169055604051600181527f7f26b83ff96e1f2b6a682f133852f6798a09c465da95921460cefb38474024989060200160405180910390a15b50565b60606000739a337a6f883de95f49e05cd7d801d475a40a9c706001600160a01b031663bdbed7226040518163ffffffff1660e01b8152600401600060405180830381865afa158015610204573d6000803e3d6000fd5b505050506040513d6000823e601f3d908101601f1916820160405261022c91908101906103ba565b6040516336ca789d60e11b8152909150739a337a6f883de95f49e05cd7d801d475a40a9c7090636d94f13a90610266908490600401610450565b600060405180830381865afa158015610283573d6000803e3d6000fd5b505050506040513d6000823e601f3d908101601f191682016040526102ab9190810190610494565b91505090565b60005b838110156102cc5781810151838201526020016102b4565b50506000910152565b6000602080830181845280855180835260408601915060408160051b870101925083870160005b8281101561034257878503603f1901845281518051808752610323818989018a85016102b1565b601f01601f1916959095018601945092850192908501906001016102fc565b5092979650505050505050565b634e487b7160e01b600052604160045260246000fd5b604051601f8201601f1916810167ffffffffffffffff8111828210171561038e5761038e61034f565b604052919050565b600067ffffffffffffffff8211156103b0576103b061034f565b5060051b60200190565b600060208083850312156103cd57600080fd5b825167ffffffffffffffff8111156103e457600080fd5b8301601f810185136103f557600080fd5b805161040861040382610396565b610365565b81815260059190911b8201830190838101908783111561042757600080fd5b928401925b828410156104455783518252928401929084019061042c565b979650505050505050565b6020808252825182820181905260009190848201906040850190845b818110156104885783518352928401929184019160010161046c565b50909695505050505050565b600060208083850312156104a757600080fd5b825167ffffffffffffffff808211156104bf57600080fd5b8185019150601f86818401126104d457600080fd5b82516104e261040382610396565b81815260059190911b8401850190858101908983111561050157600080fd5b8686015b8381101561058a5780518681111561051d5760008081fd5b8701603f81018c1361052f5760008081fd5b888101516040888211156105455761054561034f565b610556828901601f19168c01610365565b8281528e8284860101111561056b5760008081fd5b61057a838d83018487016102b1565b8652505050918701918701610505565b50999850505050505050505056fea2646970667358221220e47702c179fc0e65bee19d330ba7e95d10c2abe8b1b43746f29e38ba82c8c1d064736f6c63430008100033",
  "linkReferences": {},
  "deployedLinkReferences": {}
}