{
  "_format": "hh-sol-artifact-1",
  "contractName": "UEQueryHelper",
  "sourceName": "contracts/upgradeable/utils/UEQueryHelper.sol",
  "abi": [
    {
      "inputs": [],
      "stateMutability": "nonpayable",
      "type": "constructor"
    },
    {
      "anonymous": false,
      "inputs": [
        {
          "indexed": false,
          "internalType": "uint8",
          "name": "version",
          "type": "uint8"
        }
      ],
      "name": "Initialized",
      "type": "event"
    },
    {
      "inputs": [],
      "name": "ELVES",
      "outputs": [
        {
          "internalType": "contract ICosmicElves",
          "name": "",
          "type": "address"
        }
      ],
      "stateMutability": "view",
      "type": "function"
    },
    {
      "inputs": [],
      "name": "getAllElves",
      "outputs": [
        {
          "internalType": "string[]",
          "name": "",
          "type": "string[]"
        }
      ],
      "stateMutability": "view",
      "type": "function"
    },
    {
      "inputs": [],
      "name": "initialize",
      "outputs": [],
      "stateMutability": "nonpayable",
      "type": "function"
    }
  ],
  "bytecode": "0x608060405234801561001057600080fd5b5061001961001e565b6100de565b600054610100900460ff161561008a5760405162461bcd60e51b815260206004820152602760248201527f496e697469616c697a61626c653a20636f6e747261637420697320696e697469604482015266616c697a696e6760c81b606482015260840160405180910390fd5b60005460ff90811610156100dc576000805460ff191660ff9081179091556040519081527f7f26b83ff96e1f2b6a682f133852f6798a09c465da95921460cefb38474024989060200160405180910390a15b565b6105f8806100ed6000396000f3fe608060405234801561001057600080fd5b50600436106100415760003560e01c80638129fc1c14610046578063b1ec5e1514610050578063c33d3fb01461006e575b600080fd5b61004e6100a1565b005b6100586101ae565b60405161006591906102ff565b60405180910390f35b610089739a337a6f883de95f49e05cd7d801d475a40a9c7081565b6040516001600160a01b039091168152602001610065565b600054610100900460ff16158080156100c15750600054600160ff909116105b806100db5750303b1580156100db575060005460ff166001145b6101425760405162461bcd60e51b815260206004820152602e60248201527f496e697469616c697a61626c653a20636f6e747261637420697320616c72656160448201526d191e481a5b9a5d1a585b1a5e995960921b606482015260840160405180910390fd5b6000805460ff191660011790558015610165576000805461ff0019166101001790555b80156101ab576000805461ff0019169055604051600181527f7f26b83ff96e1f2b6a682f133852f6798a09c465da95921460cefb38474024989060200160405180910390a15b50565b60606000739a337a6f883de95f49e05cd7d801d475a40a9c706001600160a01b031663bdbed7226040518163ffffffff1660e01b815260040160006040518083038186803b1580156101ff57600080fd5b505afa158015610213573d6000803e3d6000fd5b505050506040513d6000823e601f3d908101601f1916820160405261023b91908101906103e4565b6040516336ca789d60e11b8152909150739a337a6f883de95f49e05cd7d801d475a40a9c7090636d94f13a9061027590849060040161047a565b60006040518083038186803b15801561028d57600080fd5b505afa1580156102a1573d6000803e3d6000fd5b505050506040513d6000823e601f3d908101601f191682016040526102c991908101906104be565b91505090565b60005b838110156102ea5781810151838201526020016102d2565b838111156102f9576000848401525b50505050565b6000602080830181845280855180835260408601915060408160051b870101925083870160005b8281101561036c57878503603f190184528151805180875261034d818989018a85016102cf565b601f01601f191695909501860194509285019290850190600101610326565b5092979650505050505050565b634e487b7160e01b600052604160045260246000fd5b604051601f8201601f1916810167ffffffffffffffff811182821017156103b8576103b8610379565b604052919050565b600067ffffffffffffffff8211156103da576103da610379565b5060051b60200190565b600060208083850312156103f757600080fd5b825167ffffffffffffffff81111561040e57600080fd5b8301601f8101851361041f57600080fd5b805161043261042d826103c0565b61038f565b81815260059190911b8201830190838101908783111561045157600080fd5b928401925b8284101561046f57835182529284019290840190610456565b979650505050505050565b6020808252825182820181905260009190848201906040850190845b818110156104b257835183529284019291840191600101610496565b50909695505050505050565b600060208083850312156104d157600080fd5b825167ffffffffffffffff808211156104e957600080fd5b8185019150601f86818401126104fe57600080fd5b825161050c61042d826103c0565b81815260059190911b8401850190858101908983111561052b57600080fd5b8686015b838110156105b4578051868111156105475760008081fd5b8701603f81018c136105595760008081fd5b8881015160408882111561056f5761056f610379565b610580828901601f19168c0161038f565b8281528e828486010111156105955760008081fd5b6105a4838d83018487016102cf565b865250505091870191870161052f565b50999850505050505050505056fea2646970667358221220e5360e171370386d4440711389eb3cc432f1868191b03154f0b22478e0cde45964736f6c63430008090033",
  "linkReferences": {},
  "deployedLinkReferences": {}
}