{
  "_format": "hh-sol-artifact-1",
  "contractName": "CosmicElves",
  "sourceName": "contracts/upgradeable/ERC721/CosmicElves.sol",
  "abi": [
    {
      "inputs": [],
      "stateMutability": "nonpayable",
      "type": "constructor"
    },
    {
      "anonymous": false,
      "inputs": [
        {
          "indexed": true,
          "internalType": "address",
          "name": "owner",
          "type": "address"
        },
        {
          "indexed": true,
          "internalType": "address",
          "name": "approved",
          "type": "address"
        },
        {
          "indexed": true,
          "internalType": "uint256",
          "name": "tokenId",
          "type": "uint256"
        }
      ],
      "name": "Approval",
      "type": "event"
    },
    {
      "anonymous": false,
      "inputs": [
        {
          "indexed": true,
          "internalType": "address",
          "name": "owner",
          "type": "address"
        },
        {
          "indexed": true,
          "internalType": "address",
          "name": "operator",
          "type": "address"
        },
        {
          "indexed": false,
          "internalType": "bool",
          "name": "approved",
          "type": "bool"
        }
      ],
      "name": "ApprovalForAll",
      "type": "event"
    },
    {
      "anonymous": false,
      "inputs": [
        {
          "indexed": false,
          "internalType": "uint8",
          "name": "version",
          "type": "uint8"
        }
      ],
      "name": "Initialized",
      "type": "event"
    },
    {
      "anonymous": false,
      "inputs": [
        {
          "indexed": false,
          "internalType": "address",
          "name": "account",
          "type": "address"
        }
      ],
      "name": "Paused",
      "type": "event"
    },
    {
      "anonymous": false,
      "inputs": [
        {
          "indexed": true,
          "internalType": "bytes32",
          "name": "role",
          "type": "bytes32"
        },
        {
          "indexed": true,
          "internalType": "bytes32",
          "name": "previousAdminRole",
          "type": "bytes32"
        },
        {
          "indexed": true,
          "internalType": "bytes32",
          "name": "newAdminRole",
          "type": "bytes32"
        }
      ],
      "name": "RoleAdminChanged",
      "type": "event"
    },
    {
      "anonymous": false,
      "inputs": [
        {
          "indexed": true,
          "internalType": "bytes32",
          "name": "role",
          "type": "bytes32"
        },
        {
          "indexed": true,
          "internalType": "address",
          "name": "account",
          "type": "address"
        },
        {
          "indexed": true,
          "internalType": "address",
          "name": "sender",
          "type": "address"
        }
      ],
      "name": "RoleGranted",
      "type": "event"
    },
    {
      "anonymous": false,
      "inputs": [
        {
          "indexed": true,
          "internalType": "bytes32",
          "name": "role",
          "type": "bytes32"
        },
        {
          "indexed": true,
          "internalType": "address",
          "name": "account",
          "type": "address"
        },
        {
          "indexed": true,
          "internalType": "address",
          "name": "sender",
          "type": "address"
        }
      ],
      "name": "RoleRevoked",
      "type": "event"
    },
    {
      "anonymous": false,
      "inputs": [
        {
          "indexed": true,
          "internalType": "uint256",
          "name": "tokenId",
          "type": "uint256"
        },
        {
          "indexed": false,
          "internalType": "uint256",
          "name": "customId",
          "type": "uint256"
        },
        {
          "indexed": false,
          "internalType": "string",
          "name": "value",
          "type": "string"
        }
      ],
      "name": "TextUpdated",
      "type": "event"
    },
    {
      "anonymous": false,
      "inputs": [
        {
          "indexed": true,
          "internalType": "address",
          "name": "from",
          "type": "address"
        },
        {
          "indexed": true,
          "internalType": "address",
          "name": "to",
          "type": "address"
        },
        {
          "indexed": true,
          "internalType": "uint256",
          "name": "tokenId",
          "type": "uint256"
        }
      ],
      "name": "Transfer",
      "type": "event"
    },
    {
      "anonymous": false,
      "inputs": [
        {
          "indexed": false,
          "internalType": "address",
          "name": "account",
          "type": "address"
        }
      ],
      "name": "Unpaused",
      "type": "event"
    },
    {
      "anonymous": false,
      "inputs": [
        {
          "indexed": true,
          "internalType": "uint256",
          "name": "tokenId",
          "type": "uint256"
        },
        {
          "indexed": false,
          "internalType": "uint256",
          "name": "treeId",
          "type": "uint256"
        },
        {
          "indexed": false,
          "internalType": "uint256",
          "name": "skillId",
          "type": "uint256"
        },
        {
          "indexed": false,
          "internalType": "uint256",
          "name": "value",
          "type": "uint256"
        }
      ],
      "name": "ValueUpdated",
      "type": "event"
    },
    {
      "inputs": [],
      "name": "ADMIN_ROLE",
      "outputs": [
        {
          "internalType": "bytes32",
          "name": "",
          "type": "bytes32"
        }
      ],
      "stateMutability": "view",
      "type": "function"
    },
    {
      "inputs": [],
      "name": "CONTRACT_ROLE",
      "outputs": [
        {
          "internalType": "bytes32",
          "name": "",
          "type": "bytes32"
        }
      ],
      "stateMutability": "view",
      "type": "function"
    },
    {
      "inputs": [],
      "name": "DEFAULT_ADMIN_ROLE",
      "outputs": [
        {
          "internalType": "bytes32",
          "name": "",
          "type": "bytes32"
        }
      ],
      "stateMutability": "view",
      "type": "function"
    },
    {
      "inputs": [],
      "name": "MINTER_ROLE",
      "outputs": [
        {
          "internalType": "bytes32",
          "name": "",
          "type": "bytes32"
        }
      ],
      "stateMutability": "view",
      "type": "function"
    },
    {
      "inputs": [
        {
          "internalType": "address",
          "name": "to",
          "type": "address"
        },
        {
          "internalType": "uint256",
          "name": "tokenId",
          "type": "uint256"
        }
      ],
      "name": "approve",
      "outputs": [],
      "stateMutability": "nonpayable",
      "type": "function"
    },
    {
      "inputs": [
        {
          "internalType": "address",
          "name": "owner",
          "type": "address"
        }
      ],
      "name": "balanceOf",
      "outputs": [
        {
          "internalType": "uint256",
          "name": "",
          "type": "uint256"
        }
      ],
      "stateMutability": "view",
      "type": "function"
    },
    {
      "inputs": [
        {
          "internalType": "address",
          "name": "to",
          "type": "address"
        },
        {
          "internalType": "uint256[]",
          "name": "tokenIds",
          "type": "uint256[]"
        }
      ],
      "name": "batchMint",
      "outputs": [],
      "stateMutability": "nonpayable",
      "type": "function"
    },
    {
      "inputs": [
        {
          "internalType": "uint256",
          "name": "treeId",
          "type": "uint256"
        },
        {
          "internalType": "uint256[]",
          "name": "skillIds",
          "type": "uint256[]"
        },
        {
          "internalType": "string[]",
          "name": "names",
          "type": "string[]"
        }
      ],
      "name": "batchSetSkillName",
      "outputs": [],
      "stateMutability": "nonpayable",
      "type": "function"
    },
    {
      "inputs": [
        {
          "internalType": "uint256[]",
          "name": "tokenIds",
          "type": "uint256[]"
        }
      ],
      "name": "batchTokenURI",
      "outputs": [
        {
          "internalType": "string[]",
          "name": "",
          "type": "string[]"
        }
      ],
      "stateMutability": "view",
      "type": "function"
    },
    {
      "inputs": [
        {
          "internalType": "uint256[]",
          "name": "tokenIds",
          "type": "uint256[]"
        }
      ],
      "name": "batchTokenURIJSON",
      "outputs": [
        {
          "internalType": "string[]",
          "name": "",
          "type": "string[]"
        }
      ],
      "stateMutability": "view",
      "type": "function"
    },
    {
      "inputs": [
        {
          "internalType": "address",
          "name": "from",
          "type": "address"
        },
        {
          "internalType": "address",
          "name": "to",
          "type": "address"
        },
        {
          "internalType": "uint256[]",
          "name": "tokenIds",
          "type": "uint256[]"
        }
      ],
      "name": "batchTransferFrom",
      "outputs": [],
      "stateMutability": "nonpayable",
      "type": "function"
    },
    {
      "inputs": [
        {
          "internalType": "uint256[]",
          "name": "tokenIds",
          "type": "uint256[]"
        },
        {
          "internalType": "uint256[]",
          "name": "treeIds",
          "type": "uint256[]"
        },
        {
          "internalType": "uint256[]",
          "name": "skillIds",
          "type": "uint256[]"
        },
        {
          "internalType": "uint256[]",
          "name": "values",
          "type": "uint256[]"
        }
      ],
      "name": "batchUpdateSkills",
      "outputs": [],
      "stateMutability": "nonpayable",
      "type": "function"
    },
    {
      "inputs": [
        {
          "internalType": "uint256",
          "name": "tokenId",
          "type": "uint256"
        },
        {
          "internalType": "uint256",
          "name": "treeId",
          "type": "uint256"
        },
        {
          "internalType": "uint256[]",
          "name": "skillIds",
          "type": "uint256[]"
        },
        {
          "internalType": "uint256[]",
          "name": "values",
          "type": "uint256[]"
        }
      ],
      "name": "batchUpdateSkillsOfToken",
      "outputs": [],
      "stateMutability": "nonpayable",
      "type": "function"
    },
    {
      "inputs": [],
      "name": "bridgeContract",
      "outputs": [
        {
          "internalType": "address",
          "name": "",
          "type": "address"
        }
      ],
      "stateMutability": "view",
      "type": "function"
    },
    {
      "inputs": [
        {
          "internalType": "uint256",
          "name": "tokenId",
          "type": "uint256"
        }
      ],
      "name": "bridgeExtraData",
      "outputs": [
        {
          "internalType": "bytes",
          "name": "",
          "type": "bytes"
        }
      ],
      "stateMutability": "view",
      "type": "function"
    },
    {
      "inputs": [
        {
          "internalType": "uint256",
          "name": "tokenId",
          "type": "uint256"
        }
      ],
      "name": "burn",
      "outputs": [],
      "stateMutability": "nonpayable",
      "type": "function"
    },
    {
      "inputs": [],
      "name": "getAllTokenIds",
      "outputs": [
        {
          "internalType": "uint256[]",
          "name": "",
          "type": "uint256[]"
        }
      ],
      "stateMutability": "view",
      "type": "function"
    },
    {
      "inputs": [
        {
          "internalType": "uint256",
          "name": "tokenId",
          "type": "uint256"
        }
      ],
      "name": "getApproved",
      "outputs": [
        {
          "internalType": "address",
          "name": "",
          "type": "address"
        }
      ],
      "stateMutability": "view",
      "type": "function"
    },
    {
      "inputs": [],
      "name": "getBlacklisted",
      "outputs": [
        {
          "internalType": "address[]",
          "name": "",
          "type": "address[]"
        }
      ],
      "stateMutability": "view",
      "type": "function"
    },
    {
      "inputs": [
        {
          "internalType": "bytes32",
          "name": "role",
          "type": "bytes32"
        }
      ],
      "name": "getRoleAdmin",
      "outputs": [
        {
          "internalType": "bytes32",
          "name": "",
          "type": "bytes32"
        }
      ],
      "stateMutability": "view",
      "type": "function"
    },
    {
      "inputs": [
        {
          "internalType": "bytes32",
          "name": "role",
          "type": "bytes32"
        },
        {
          "internalType": "uint256",
          "name": "index",
          "type": "uint256"
        }
      ],
      "name": "getRoleMember",
      "outputs": [
        {
          "internalType": "address",
          "name": "",
          "type": "address"
        }
      ],
      "stateMutability": "view",
      "type": "function"
    },
    {
      "inputs": [
        {
          "internalType": "bytes32",
          "name": "role",
          "type": "bytes32"
        }
      ],
      "name": "getRoleMemberCount",
      "outputs": [
        {
          "internalType": "uint256",
          "name": "",
          "type": "uint256"
        }
      ],
      "stateMutability": "view",
      "type": "function"
    },
    {
      "inputs": [
        {
          "internalType": "uint256",
          "name": "tokenId",
          "type": "uint256"
        },
        {
          "internalType": "uint256",
          "name": "treeId",
          "type": "uint256"
        },
        {
          "internalType": "uint256",
          "name": "skillId",
          "type": "uint256"
        }
      ],
      "name": "getSkill",
      "outputs": [
        {
          "internalType": "uint256",
          "name": "",
          "type": "uint256"
        }
      ],
      "stateMutability": "view",
      "type": "function"
    },
    {
      "inputs": [
        {
          "internalType": "uint256",
          "name": "treeId",
          "type": "uint256"
        },
        {
          "internalType": "uint256",
          "name": "skillId",
          "type": "uint256"
        }
      ],
      "name": "getSkillName",
      "outputs": [
        {
          "internalType": "string",
          "name": "",
          "type": "string"
        }
      ],
      "stateMutability": "view",
      "type": "function"
    },
    {
      "inputs": [
        {
          "internalType": "uint256",
          "name": "tokenId",
          "type": "uint256"
        },
        {
          "internalType": "uint256",
          "name": "treeId",
          "type": "uint256"
        },
        {
          "internalType": "uint256[]",
          "name": "skillIds",
          "type": "uint256[]"
        }
      ],
      "name": "getSkillsByTree",
      "outputs": [
        {
          "internalType": "uint256[]",
          "name": "",
          "type": "uint256[]"
        }
      ],
      "stateMutability": "view",
      "type": "function"
    },
    {
      "inputs": [
        {
          "internalType": "uint256",
          "name": "tokenId",
          "type": "uint256"
        },
        {
          "internalType": "uint256",
          "name": "customId",
          "type": "uint256"
        }
      ],
      "name": "getString",
      "outputs": [
        {
          "internalType": "string",
          "name": "",
          "type": "string"
        }
      ],
      "stateMutability": "view",
      "type": "function"
    },
    {
      "inputs": [
        {
          "internalType": "uint256[]",
          "name": "tokenIds",
          "type": "uint256[]"
        },
        {
          "internalType": "uint256",
          "name": "customId",
          "type": "uint256"
        }
      ],
      "name": "getStringOfTokens",
      "outputs": [
        {
          "internalType": "string[]",
          "name": "",
          "type": "string[]"
        }
      ],
      "stateMutability": "view",
      "type": "function"
    },
    {
      "inputs": [
        {
          "internalType": "uint256",
          "name": "tokenId",
          "type": "uint256"
        },
        {
          "internalType": "uint256[]",
          "name": "customIds",
          "type": "uint256[]"
        }
      ],
      "name": "getStrings",
      "outputs": [
        {
          "internalType": "string[]",
          "name": "",
          "type": "string[]"
        }
      ],
      "stateMutability": "view",
      "type": "function"
    },
    {
      "inputs": [
        {
          "internalType": "bytes32",
          "name": "role",
          "type": "bytes32"
        },
        {
          "internalType": "address",
          "name": "account",
          "type": "address"
        }
      ],
      "name": "grantRole",
      "outputs": [],
      "stateMutability": "nonpayable",
      "type": "function"
    },
    {
      "inputs": [
        {
          "internalType": "bytes32",
          "name": "role",
          "type": "bytes32"
        },
        {
          "internalType": "address",
          "name": "account",
          "type": "address"
        }
      ],
      "name": "hasRole",
      "outputs": [
        {
          "internalType": "bool",
          "name": "",
          "type": "bool"
        }
      ],
      "stateMutability": "view",
      "type": "function"
    },
    {
      "inputs": [],
      "name": "imageBaseURI",
      "outputs": [
        {
          "internalType": "string",
          "name": "",
          "type": "string"
        }
      ],
      "stateMutability": "view",
      "type": "function"
    },
    {
      "inputs": [],
      "name": "initialize",
      "outputs": [],
      "stateMutability": "nonpayable",
      "type": "function"
    },
    {
      "inputs": [
        {
          "internalType": "address",
          "name": "owner",
          "type": "address"
        },
        {
          "internalType": "address",
          "name": "operator",
          "type": "address"
        }
      ],
      "name": "isApprovedForAll",
      "outputs": [
        {
          "internalType": "bool",
          "name": "",
          "type": "bool"
        }
      ],
      "stateMutability": "view",
      "type": "function"
    },
    {
      "inputs": [
        {
          "internalType": "address",
          "name": "user",
          "type": "address"
        }
      ],
      "name": "isBlacklisted",
      "outputs": [
        {
          "internalType": "bool",
          "name": "",
          "type": "bool"
        }
      ],
      "stateMutability": "view",
      "type": "function"
    },
    {
      "inputs": [
        {
          "internalType": "address",
          "name": "to",
          "type": "address"
        },
        {
          "internalType": "uint256",
          "name": "tokenId",
          "type": "uint256"
        }
      ],
      "name": "mint",
      "outputs": [],
      "stateMutability": "nonpayable",
      "type": "function"
    },
    {
      "inputs": [
        {
          "internalType": "address",
          "name": "to",
          "type": "address"
        },
        {
          "internalType": "uint256",
          "name": "tokenId",
          "type": "uint256"
        },
        {
          "internalType": "bytes",
          "name": "data",
          "type": "bytes"
        }
      ],
      "name": "mint",
      "outputs": [],
      "stateMutability": "nonpayable",
      "type": "function"
    },
    {
      "inputs": [],
      "name": "name",
      "outputs": [
        {
          "internalType": "string",
          "name": "",
          "type": "string"
        }
      ],
      "stateMutability": "view",
      "type": "function"
    },
    {
      "inputs": [
        {
          "internalType": "uint256",
          "name": "tokenId",
          "type": "uint256"
        }
      ],
      "name": "ownerOf",
      "outputs": [
        {
          "internalType": "address",
          "name": "",
          "type": "address"
        }
      ],
      "stateMutability": "view",
      "type": "function"
    },
    {
      "inputs": [],
      "name": "pause",
      "outputs": [],
      "stateMutability": "nonpayable",
      "type": "function"
    },
    {
      "inputs": [],
      "name": "paused",
      "outputs": [
        {
          "internalType": "bool",
          "name": "",
          "type": "bool"
        }
      ],
      "stateMutability": "view",
      "type": "function"
    },
    {
      "inputs": [
        {
          "internalType": "bytes32",
          "name": "role",
          "type": "bytes32"
        },
        {
          "internalType": "address",
          "name": "account",
          "type": "address"
        }
      ],
      "name": "renounceRole",
      "outputs": [],
      "stateMutability": "nonpayable",
      "type": "function"
    },
    {
      "inputs": [
        {
          "internalType": "bytes32",
          "name": "role",
          "type": "bytes32"
        },
        {
          "internalType": "address",
          "name": "account",
          "type": "address"
        }
      ],
      "name": "revokeRole",
      "outputs": [],
      "stateMutability": "nonpayable",
      "type": "function"
    },
    {
      "inputs": [
        {
          "internalType": "address",
          "name": "from",
          "type": "address"
        },
        {
          "internalType": "address",
          "name": "to",
          "type": "address"
        },
        {
          "internalType": "uint256",
          "name": "tokenId",
          "type": "uint256"
        }
      ],
      "name": "safeTransferFrom",
      "outputs": [],
      "stateMutability": "nonpayable",
      "type": "function"
    },
    {
      "inputs": [
        {
          "internalType": "address",
          "name": "from",
          "type": "address"
        },
        {
          "internalType": "address",
          "name": "to",
          "type": "address"
        },
        {
          "internalType": "uint256",
          "name": "tokenId",
          "type": "uint256"
        },
        {
          "internalType": "bytes",
          "name": "data",
          "type": "bytes"
        }
      ],
      "name": "safeTransferFrom",
      "outputs": [],
      "stateMutability": "nonpayable",
      "type": "function"
    },
    {
      "inputs": [
        {
          "internalType": "address",
          "name": "operator",
          "type": "address"
        },
        {
          "internalType": "bool",
          "name": "approved",
          "type": "bool"
        }
      ],
      "name": "setApprovalForAll",
      "outputs": [],
      "stateMutability": "nonpayable",
      "type": "function"
    },
    {
      "inputs": [
        {
          "internalType": "address",
          "name": "_bridgeContract",
          "type": "address"
        }
      ],
      "name": "setBridgeContract",
      "outputs": [],
      "stateMutability": "nonpayable",
      "type": "function"
    },
    {
      "inputs": [
        {
          "internalType": "string",
          "name": "_imageBaseURI",
          "type": "string"
        }
      ],
      "name": "setImageBaseURI",
      "outputs": [],
      "stateMutability": "nonpayable",
      "type": "function"
    },
    {
      "inputs": [
        {
          "internalType": "uint256",
          "name": "treeId",
          "type": "uint256"
        },
        {
          "internalType": "uint256",
          "name": "skillId",
          "type": "uint256"
        },
        {
          "internalType": "string",
          "name": "name",
          "type": "string"
        }
      ],
      "name": "setSkillName",
      "outputs": [],
      "stateMutability": "nonpayable",
      "type": "function"
    },
    {
      "inputs": [
        {
          "internalType": "bytes4",
          "name": "interfaceId",
          "type": "bytes4"
        }
      ],
      "name": "supportsInterface",
      "outputs": [
        {
          "internalType": "bool",
          "name": "",
          "type": "bool"
        }
      ],
      "stateMutability": "view",
      "type": "function"
    },
    {
      "inputs": [],
      "name": "symbol",
      "outputs": [
        {
          "internalType": "string",
          "name": "",
          "type": "string"
        }
      ],
      "stateMutability": "view",
      "type": "function"
    },
    {
      "inputs": [
        {
          "internalType": "uint256",
          "name": "index",
          "type": "uint256"
        }
      ],
      "name": "tokenByIndex",
      "outputs": [
        {
          "internalType": "uint256",
          "name": "",
          "type": "uint256"
        }
      ],
      "stateMutability": "view",
      "type": "function"
    },
    {
      "inputs": [
        {
          "internalType": "address",
          "name": "owner",
          "type": "address"
        },
        {
          "internalType": "uint256",
          "name": "index",
          "type": "uint256"
        }
      ],
      "name": "tokenOfOwnerByIndex",
      "outputs": [
        {
          "internalType": "uint256",
          "name": "",
          "type": "uint256"
        }
      ],
      "stateMutability": "view",
      "type": "function"
    },
    {
      "inputs": [
        {
          "internalType": "uint256",
          "name": "tokenId",
          "type": "uint256"
        }
      ],
      "name": "tokenURI",
      "outputs": [
        {
          "internalType": "string",
          "name": "",
          "type": "string"
        }
      ],
      "stateMutability": "view",
      "type": "function"
    },
    {
      "inputs": [
        {
          "internalType": "uint256",
          "name": "tokenId",
          "type": "uint256"
        }
      ],
      "name": "tokenURIJSON",
      "outputs": [
        {
          "internalType": "string",
          "name": "",
          "type": "string"
        }
      ],
      "stateMutability": "view",
      "type": "function"
    },
    {
      "inputs": [
        {
          "internalType": "address",
          "name": "owner",
          "type": "address"
        }
      ],
      "name": "tokensOfOwner",
      "outputs": [
        {
          "internalType": "uint256[]",
          "name": "",
          "type": "uint256[]"
        }
      ],
      "stateMutability": "view",
      "type": "function"
    },
    {
      "inputs": [],
      "name": "totalSupply",
      "outputs": [
        {
          "internalType": "uint256",
          "name": "",
          "type": "uint256"
        }
      ],
      "stateMutability": "view",
      "type": "function"
    },
    {
      "inputs": [
        {
          "internalType": "address",
          "name": "from",
          "type": "address"
        },
        {
          "internalType": "address",
          "name": "to",
          "type": "address"
        },
        {
          "internalType": "uint256",
          "name": "tokenId",
          "type": "uint256"
        }
      ],
      "name": "transferFrom",
      "outputs": [],
      "stateMutability": "nonpayable",
      "type": "function"
    },
    {
      "inputs": [],
      "name": "unpause",
      "outputs": [],
      "stateMutability": "nonpayable",
      "type": "function"
    },
    {
      "inputs": [
        {
          "internalType": "uint256",
          "name": "tokenId",
          "type": "uint256"
        },
        {
          "internalType": "uint256",
          "name": "treeId",
          "type": "uint256"
        },
        {
          "internalType": "uint256",
          "name": "skillId",
          "type": "uint256"
        },
        {
          "internalType": "uint256",
          "name": "value",
          "type": "uint256"
        }
      ],
      "name": "updateSkill",
      "outputs": [],
      "stateMutability": "nonpayable",
      "type": "function"
    },
    {
      "inputs": [
        {
          "internalType": "uint256",
          "name": "tokenId",
          "type": "uint256"
        },
        {
          "internalType": "uint256",
          "name": "customId",
          "type": "uint256"
        },
        {
          "internalType": "string",
          "name": "value",
          "type": "string"
        }
      ],
      "name": "updateString",
      "outputs": [],
      "stateMutability": "nonpayable",
      "type": "function"
    }
  ],
  "bytecode": "0x60806040523480156200001157600080fd5b506200001c62000022565b620000e4565b600054610100900460ff16156200008f5760405162461bcd60e51b815260206004820152602760248201527f496e697469616c697a61626c653a20636f6e747261637420697320696e697469604482015266616c697a696e6760c81b606482015260840160405180910390fd5b60005460ff9081161015620000e2576000805460ff191660ff9081179091556040519081527f7f26b83ff96e1f2b6a682f133852f6798a09c465da95921460cefb38474024989060200160405180910390a15b565b61533c80620000f46000396000f3fe608060405234801561001057600080fd5b50600436106103a45760003560e01c806377645839116101e9578063bdbed7221161010f578063d547741f116100ad578063ed0af2091161007c578063ed0af2091461082d578063f3993d1114610840578063fe459f5c14610853578063fe575a871461086657600080fd5b8063d547741f146107b8578063de10c72d146107cb578063e2862b6b146107de578063e985e9c5146107f157600080fd5b8063ca15c873116100e9578063ca15c87314610767578063cd5965831461077a578063ce3675ad1461078e578063d5391393146107a357600080fd5b8063bdbed72214610739578063c7e0559014610741578063c87b56dd1461075457600080fd5b806394d008ef11610187578063a217fddf11610156578063a217fddf146106f8578063a22cb46514610700578063b5afb12014610713578063b88d4fde1461072657600080fd5b806394d008ef146106b757806395d89b41146106ca5780639b9284f9146106d25780639e8afe47146106e557600080fd5b80638456cb59116101c35780638456cb59146106695780638462151c146106715780639010d07c1461069157806391d14854146106a457600080fd5b806377645839146106465780637efa19021461064e5780638129fc1c1461066157600080fd5b806336568abe116102ce5780634b5f4fe61161026c5780636cfa24cc1161023b5780636cfa24cc146105f85780636d94f13a1461060b57806370a082311461061e57806375b238fc1461063157600080fd5b80634b5f4fe6146105b45780634f6ccce7146105c75780635c975abb146105da5780636352211e146105e557600080fd5b806342842e0e116102a857806342842e0e1461054857806342966c681461055b5780634594762a1461056e5780634684d7e9146105a157600080fd5b806336568abe1461051a5780633f4ba83a1461052d57806340c10f191461053557600080fd5b80630b26cf66116103465780632c303493116103155780632c303493146104c15780632f2ff15d146104e15780632f745c59146104f4578063352b75331461050757600080fd5b80630b26cf661461046f57806318160ddd1461048257806323b872dd1461048b578063248a9ca31461049e57600080fd5b806306fdde031161038257806306fdde0314610414578063079be4931461041c578063081812fc1461042f578063095ea7b31461045a57600080fd5b806301ffc9a7146103a957806303fe46ab146103d157806306b67444146103f4575b600080fd5b6103bc6103b7366004613f0c565b610879565b60405190151581526020015b60405180910390f35b6103e66000805160206152e783398151915281565b6040519081526020016103c8565b610407610402366004613f29565b6108a4565b6040516103c89190613f9b565b610407610953565b61040761042a366004613f29565b6109e5565b61044261043d366004613fae565b610a0e565b6040516001600160a01b0390911681526020016103c8565b61046d610468366004613fe3565b610a35565b005b61046d61047d36600461400d565b610b4f565b610194546103e6565b61046d610499366004614028565b610b8b565b6103e66104ac366004613fae565b600090815260fb602052604090206001015490565b6104d46104cf366004614160565b610bbd565b6040516103c89190614194565b61046d6104ef3660046141f6565b610c75565b6103e6610502366004613fe3565b610c9a565b6104d4610515366004614222565b610d31565b61046d6105283660046141f6565b610e8f565b61046d610f0d565b61046d610543366004613fe3565b610f30565b61046d610556366004614028565b610f52565b61046d610569366004613fae565b610f6d565b6103e661057c366004614266565b6000928352610228602090815260408085209385529281528284209184525290205490565b61046d6105af366004614292565b610f76565b61046d6105c236600461434e565b610fd5565b6103e66105d5366004613fae565b611018565b60975460ff166103bc565b6104426105f3366004613fae565b6110ad565b61046d61060636600461439d565b61110d565b6104d46106193660046143d1565b611132565b6103e661062c36600461400d565b6111e0565b6103e66000805160206152c783398151915281565b610407611266565b61046d61065c366004614445565b6112f5565b61046d6113d3565b61046d611591565b61068461067f36600461400d565b6115b1565b6040516103c8919061452c565b61044261069f366004613f29565b61164a565b6103bc6106b23660046141f6565b61166a565b61046d6106c536600461453f565b611695565b610407611816565b6104076106e0366004613fae565b611825565b6104d46106f336600461457f565b611993565b6103e6600081565b61046d61070e3660046145af565b611ae9565b61046d6107213660046145eb565b611af4565b61046d61073436600461461d565b611b79565b610684611bab565b61068461074f366004614678565b611c44565b610407610762366004613fae565b611d19565b6103e6610775366004613fae565b611d24565b6102bd54610442906001600160a01b031681565b610796611d3c565b6040516103c891906146bd565b6103e66000805160206152a783398151915281565b61046d6107c63660046141f6565b611d4e565b61046d6107d936600461470a565b611d73565b61046d6107ec3660046147ea565b611e0e565b6103bc6107ff366004614825565b6001600160a01b039182166000908152606a6020908152604080832093909416825291909152205460ff1690565b61046d61083b36600461434e565b611eb2565b61046d61084e36600461484f565b611f2f565b610407610861366004613fae565b611f71565b6103bc61087436600461400d565b612302565b60006001600160e01b0319821663808d85fd60e01b148061089e575061089e82612310565b92915050565b60008281526102296020908152604080832084845290915290208054606091906108cd90614896565b80601f01602080910402602001604051908101604052809291908181526020018280546108f990614896565b80156109465780601f1061091b57610100808354040283529160200191610946565b820191906000526020600020905b81548152906001019060200180831161092957829003601f168201915b5050505050905092915050565b60606065805461096290614896565b80601f016020809104026020016040519081016040528092919081815260200182805461098e90614896565b80156109db5780601f106109b0576101008083540402835291602001916109db565b820191906000526020600020905b8154815290600101906020018083116109be57829003601f168201915b5050505050905090565b600082815261022a6020908152604080832084845290915290208054606091906108cd90614896565b6000610a198261231b565b506000908152606960205260409020546001600160a01b031690565b6000610a40826110ad565b9050806001600160a01b0316836001600160a01b031603610ab25760405162461bcd60e51b815260206004820152602160248201527f4552433732313a20617070726f76616c20746f2063757272656e74206f776e656044820152603960f91b60648201526084015b60405180910390fd5b336001600160a01b0382161480610ace5750610ace81336107ff565b610b405760405162461bcd60e51b815260206004820152603d60248201527f4552433732313a20617070726f76652063616c6c6572206973206e6f7420746f60448201527f6b656e206f776e6572206f7220617070726f76656420666f7220616c6c0000006064820152608401610aa9565b610b4a838361236b565b505050565b6000805160206152c7833981519152610b67816123d9565b506102bd80546001600160a01b0319166001600160a01b0392909216919091179055565b610b96335b826123e3565b610bb25760405162461bcd60e51b8152600401610aa9906148d0565b610b4a838383612462565b6060600082516001600160401b03811115610bda57610bda614064565b604051908082528060200260200182016040528015610c0d57816020015b6060815260200190600190039081610bf85790505b50905060005b8351811015610c6e57610c3e848281518110610c3157610c3161491d565b6020026020010151611f71565b828281518110610c5057610c5061491d565b60200260200101819052508080610c6690614949565b915050610c13565b5092915050565b600082815260fb6020526040902060010154610c90816123d9565b610b4a83836125d3565b6000610ca5836111e0565b8210610d075760405162461bcd60e51b815260206004820152602b60248201527f455243373231456e756d657261626c653a206f776e657220696e646578206f7560448201526a74206f6620626f756e647360a81b6064820152608401610aa9565b506001600160a01b0391909116600090815261019260209081526040808320938352929052205490565b6060600083516001600160401b03811115610d4e57610d4e614064565b604051908082528060200260200182016040528015610d8157816020015b6060815260200190600190039081610d6c5790505b50905060005b8451811015610e875761022a6000868381518110610da757610da761491d565b6020026020010151815260200190815260200160002060008581526020019081526020016000208054610dd990614896565b80601f0160208091040260200160405190810160405280929190818152602001828054610e0590614896565b8015610e525780601f10610e2757610100808354040283529160200191610e52565b820191906000526020600020905b815481529060010190602001808311610e3557829003601f168201915b5050505050828281518110610e6957610e6961491d565b60200260200101819052508080610e7f90614949565b915050610d87565b509392505050565b6001600160a01b0381163314610eff5760405162461bcd60e51b815260206004820152602f60248201527f416363657373436f6e74726f6c3a2063616e206f6e6c792072656e6f756e636560448201526e103937b632b9903337b91039b2b63360891b6064820152608401610aa9565b610f0982826125f6565b5050565b6000805160206152c7833981519152610f25816123d9565b610f2d612619565b50565b6000805160206152a7833981519152610f48816123d9565b610b4a838361266b565b610b4a83838360405180602001604052806000815250611b79565b610f2d81612685565b6000805160206152a7833981519152610f8e816123d9565b60005b8251811015610fcf57610fbd84848381518110610fb057610fb061491d565b602002602001015161266b565b80610fc781614949565b915050610f91565b50505050565b6000805160206152e7833981519152610fed816123d9565b600084815261022960209081526040808320868452909152902061101183826149a8565b5050505050565b60006110246101945490565b82106110875760405162461bcd60e51b815260206004820152602c60248201527f455243373231456e756d657261626c653a20676c6f62616c20696e646578206f60448201526b7574206f6620626f756e647360a01b6064820152608401610aa9565b610194828154811061109b5761109b61491d565b90600052602060002001549050919050565b6000818152606760205260408120546001600160a01b03168061089e5760405162461bcd60e51b8152602060048201526018602482015277115490cdcc8c4e881a5b9d985b1a59081d1bdad95b88125160421b6044820152606401610aa9565b6000805160206152c7833981519152611125816123d9565b6101f6610b4a83826149a8565b60606000826001600160401b0381111561114e5761114e614064565b60405190808252806020026020018201604052801561118157816020015b606081526020019060019003908161116c5790505b50905060005b83811015610e87576111b08585838181106111a4576111a461491d565b90506020020135611d19565b8282815181106111c2576111c261491d565b602002602001018190525080806111d890614949565b915050611187565b60006001600160a01b03821661124a5760405162461bcd60e51b815260206004820152602960248201527f4552433732313a2061646472657373207a65726f206973206e6f7420612076616044820152683634b21037bbb732b960b91b6064820152608401610aa9565b506001600160a01b031660009081526068602052604090205490565b6101f6805461127490614896565b80601f01602080910402602001604051908101604052809291908181526020018280546112a090614896565b80156112ed5780601f106112c2576101008083540402835291602001916112ed565b820191906000526020600020905b8154815290600101906020018083116112d057829003601f168201915b505050505081565b6000805160206152e783398151915261130d816123d9565b60005b85518110156113cb5782818151811061132b5761132b61491d565b6020026020010151610228600088848151811061134a5761134a61491d565b6020026020010151815260200190815260200160002060008784815181106113745761137461491d565b60200260200101518152602001908152602001600020600086848151811061139e5761139e61491d565b602002602001015181526020019081526020016000208190555080806113c390614949565b915050611310565b505050505050565b600054610100900460ff16158080156113f35750600054600160ff909116105b8061140d5750303b15801561140d575060005460ff166001145b6114705760405162461bcd60e51b815260206004820152602e60248201527f496e697469616c697a61626c653a20636f6e747261637420697320616c72656160448201526d191e481a5b9a5d1a585b1a5e995960921b6064820152608401610aa9565b6000805460ff191660011790558015611493576000805461ff0019166101001790555b6114de6040518060400160405280600c81526020016b436f736d696320456c76657360a01b81525060405180604001604052806005815260200164454c56455360d81b815250612707565b6114e6612738565b6114ee612769565b6114f6612790565b6114fe612769565b611506612738565b61150e6127bf565b6115196000336125d3565b6115316000805160206152c7833981519152336125d3565b6115496000805160206152a7833981519152336125d3565b8015610f2d576000805461ff0019169055604051600181527f7f26b83ff96e1f2b6a682f133852f6798a09c465da95921460cefb38474024989060200160405180910390a150565b6000805160206152c78339815191526115a9816123d9565b610f2d6127ee565b606060006115be836111e0565b90506000816001600160401b038111156115da576115da614064565b604051908082528060200260200182016040528015611603578160200160208202803683370190505b50905060005b82811015610e875761161b8582610c9a565b82828151811061162d5761162d61491d565b60209081029190910101528061164281614949565b915050611609565b600082815261012d60205260408120611663908361282b565b9392505050565b600091825260fb602090815260408084206001600160a01b0393909316845291905290205460ff1690565b6000805160206152a78339815191526116ad816123d9565b6000828060200190518101906116c39190614ac2565b60408051600b8082526101808201909252919250600091906020820161016080368337505060408051600380825260808201909252929350600092915060208201606080368337505060408051600c8082526101a082019092529293506000929150602082016101808036833701905050905060005b600c8110156117c557808282815181106117555761175561491d565b602002602001018181525050600b81101561178a578084828151811061177d5761177d61491d565b6020026020010181815250505b60038110156117b357808382815181106117a6576117a661491d565b6020026020010181815250505b806117bd81614949565b915050611739565b506117d0888861266b565b6117e1876000858760000151611e0e565b6117f2876003848760200151611e0e565b611803876001838760400151611e0e565b61180c87612837565b5050505050505050565b60606066805461096290614896565b60408051600b8082526101808201909252606091600091906020820161016080368337505060408051600380825260808201909252929350600092915060208201606080368337505060408051600c8082526101a082019092529293506000929150602082016101808036833701905050905060005b600c81101561192757808282815181106118b7576118b761491d565b602002602001018181525050600b8110156118ec57808482815181106118df576118df61491d565b6020026020010181815250505b600381101561191557808382815181106119085761190861491d565b6020026020010181815250505b8061191f81614949565b91505061189b565b506000604051806060016040528061194188600088611c44565b815260200161195288600387611c44565b815260200161196388600186611c44565b8152509050806040516020016119799190614b76565b604051602081830303815290604052945050505050919050565b6060600082516001600160401b038111156119b0576119b0614064565b6040519080825280602002602001820160405280156119e357816020015b60608152602001906001900390816119ce5790505b50905060005b8351811015610e875761022a60008681526020019081526020016000206000858381518110611a1a57611a1a61491d565b602002602001015181526020019081526020016000208054611a3b90614896565b80601f0160208091040260200160405190810160405280929190818152602001828054611a6790614896565b8015611ab45780601f10611a8957610100808354040283529160200191611ab4565b820191906000526020600020905b815481529060010190602001808311611a9757829003601f168201915b5050505050828281518110611acb57611acb61491d565b60200260200101819052508080611ae190614949565b9150506119e9565b610f09338383612843565b6000805160206152e7833981519152611b0c816123d9565b6000858152610228602090815260408083208784528252808320868452825291829020849055815186815290810185905290810183905285907fc3bdb5f4a3cbb68ce4ebe3dda3660f3067add044dc5be3a047d818fd416663699060600160405180910390a25050505050565b611b8333836123e3565b611b9f5760405162461bcd60e51b8152600401610aa9906148d0565b610fcf84848484612911565b60606000611bb96101945490565b90506000816001600160401b03811115611bd557611bd5614064565b604051908082528060200260200182016040528015611bfe578160200160208202803683370190505b50905060005b82811015610c6e57611c1581611018565b828281518110611c2757611c2761491d565b602090810291909101015280611c3c81614949565b915050611c04565b6060600082516001600160401b03811115611c6157611c61614064565b604051908082528060200260200182016040528015611c8a578160200160208202803683370190505b50905060005b8351811015611d105760008681526102286020908152604080832088845290915281208551909190869084908110611cca57611cca61491d565b6020026020010151815260200190815260200160002054828281518110611cf357611cf361491d565b602090810291909101015280611d0881614949565b915050611c90565b50949350505050565b606061089e82612944565b600081815261012d6020526040812061089e90612957565b6060611d49610259612961565b905090565b600082815260fb6020526040902060010154611d69816123d9565b610b4a83836125f6565b6000805160206152e7833981519152611d8b816123d9565b60005b835181101561101157828181518110611da957611da961491d565b602002602001015161022960008781526020019081526020016000206000868481518110611dd957611dd961491d565b602002602001015181526020019081526020016000209081611dfb91906149a8565b5080611e0681614949565b915050611d8e565b6000805160206152e7833981519152611e26816123d9565b60005b83518110156113cb57828181518110611e4457611e4461491d565b6020026020010151610228600088815260200190815260200160002060008781526020019081526020016000206000868481518110611e8557611e8561491d565b60200260200101518152602001908152602001600020819055508080611eaa90614949565b915050611e29565b6000805160206152e7833981519152611eca816123d9565b600084815261022a602090815260408083208684529091529020611eee83826149a8565b50837fbf91c112c44cd8e958afe3106b290f594b5e23b83fcc88bdb9ac5da7f00be5698484604051611f21929190614bd7565b60405180910390a250505050565b60005b8151811015610fcf57611f5f8484848481518110611f5257611f5261491d565b6020026020010151610b8b565b80611f6981614949565b915050611f32565b60008181526102286020908152604080832083805282528083209091528120546060918115611fbe576040518060400160405280600681526020016546656d616c6560d01b815250611fdc565b604051806040016040528060048152602001634d616c6560e01b8152505b611fe58561296e565b604051602001611ff6929190614c0c565b60408051808303601f19018152601a8084526103608401909252925060009190816020015b61204860405180608001604052806060815260200160608152602001606081526020016000151581525090565b81526020019060019003908161201b5790505090506000831561206c57600b61206f565b60005b60ff16905060005b600b8110156121295760405180608001604052806120966000846108a4565b8152604080516020818101835260008252830152016120ed846120bb856103e8614c60565b6120c59190614c60565b60008b81526102286020908152604080832083805282528083208884529091529020546108a4565b81526020016000151581525083828151811061210b5761210b61491d565b6020026020010181905250808061212190614949565b915050612077565b5060005b600381101561221757604051806080016040528061214c6003846108a4565b81526040805160208181018352600082528301520161218d896003856000928352610228602090815260408085209385529281528284209184525290205490565b156121b457604051806040016040528060048152602001635472756560e01b8152506121d3565b6040518060400160405280600581526020016446616c736560d81b8152505b81526000602090910152836121e983600b614c60565b815181106121f9576121f961491d565b6020026020010181905250808061220f90614949565b91505061212d565b5060005b600c8110156122c757604051806080016040528061223a6001846108a4565b81526040805160208181018352600082528301520161228361227e8a6001866000928352610228602090815260408085209385529281528284209184525290205490565b61296e565b815260016020909101528361229983600e614c60565b815181106122a9576122a961491d565b602002602001018190525080806122bf90614949565b91505061221b565b506122f886846040518060400160405280600c81526020016b209021b7b9b6b4b19022b63360a11b81525085612a00565b9695505050505050565b600061089e61025983612a5a565b600061089e82612a7c565b61232481612aa1565b610f2d5760405162461bcd60e51b8152602060048201526018602482015277115490cdcc8c4e881a5b9d985b1a59081d1bdad95b88125160421b6044820152606401610aa9565b600081815260696020526040902080546001600160a01b0319166001600160a01b03841690811790915581906123a0826110ad565b6001600160a01b03167f8c5be1e5ebec7d5bd14f71427d1e84f3dd0314c0f7b2291e5b200ac8c7c3b92560405160405180910390a45050565b610f2d8133612aac565b6000806123ef836110ad565b9050806001600160a01b0316846001600160a01b0316148061243657506001600160a01b038082166000908152606a602090815260408083209388168352929052205460ff165b8061245a5750836001600160a01b031661244f84610a0e565b6001600160a01b0316145b949350505050565b826001600160a01b0316612475826110ad565b6001600160a01b03161461249b5760405162461bcd60e51b8152600401610aa990614c73565b6001600160a01b0382166124fd5760405162461bcd60e51b8152602060048201526024808201527f4552433732313a207472616e7366657220746f20746865207a65726f206164646044820152637265737360e01b6064820152608401610aa9565b61250a8383836001612b05565b826001600160a01b031661251d826110ad565b6001600160a01b0316146125435760405162461bcd60e51b8152600401610aa990614c73565b600081815260696020908152604080832080546001600160a01b03199081169091556001600160a01b0387811680865260688552838620805460001901905590871680865283862080546001019055868652606790945282852080549092168417909155905184937fddf252ad1be2c89b69c2b068fc378daa952ba7f163c4a11628f55a4df523b3ef91a4505050565b6125dd8282612bb9565b600082815261012d60205260409020610b4a9082612c3f565b6126008282612c54565b600082815261012d60205260409020610b4a9082612cbb565b612621612cd0565b6097805460ff191690557f5db9ee0a495bf2e6ff9c91a7834c1ba4fdd244a5e8aa4e537bd38aeae4b073aa335b6040516001600160a01b03909116815260200160405180910390a1565b610f09828260405180602001604052806000815250612d19565b61268e33610b90565b6126f15760405162461bcd60e51b815260206004820152602e60248201527f4552433732313a2063616c6c6572206973206e6f7420746f6b656e206f776e6560448201526d1c881b9bdc88185c1c1c9bdd995960921b6064820152608401610aa9565b6126fd61015f82612d4c565b50610f2d81612d58565b600054610100900460ff1661272e5760405162461bcd60e51b8152600401610aa990614cb8565b610f098282612dfb565b600054610100900460ff1661275f5760405162461bcd60e51b8152600401610aa990614cb8565b612767612769565b565b600054610100900460ff166127675760405162461bcd60e51b8152600401610aa990614cb8565b600054610100900460ff166127b75760405162461bcd60e51b8152600401610aa990614cb8565b612767612e3b565b600054610100900460ff166127e65760405162461bcd60e51b8152600401610aa990614cb8565b612767612e6e565b6127f6612eb5565b6097805460ff191660011790557f62e78cea01bee320cd4e420270b5ea74000d11b0c9f74754ebdbfc544b05a25861264e3390565b60006116638383612efb565b610f0961015f82612f25565b816001600160a01b0316836001600160a01b0316036128a45760405162461bcd60e51b815260206004820152601960248201527f4552433732313a20617070726f766520746f2063616c6c6572000000000000006044820152606401610aa9565b6001600160a01b038381166000818152606a6020908152604080832094871680845294825291829020805460ff191686151590811790915591519182527f17307eab39ab6107e8899845ad3d59bd9653f200f220920489ca2b5937696c31910160405180910390a3505050565b61291c848484612462565b61292884848484612f31565b610fcf5760405162461bcd60e51b8152600401610aa990614d03565b606061089e61295283611f71565b61302f565b600061089e825490565b6060600061166383613060565b6060600061297b836130bc565b60010190506000816001600160401b0381111561299a5761299a614064565b6040519080825280601f01601f1916602001820160405280156129c4576020820181803683370190505b5090508181016020015b600019016f181899199a1a9b1b9c1cb0b131b232b360811b600a86061a8153600a85049450846129ce57509392505050565b60606000612a0d866110ad565b905060006101f6612a1d88613194565b604051602001612a2e929190614d55565b6040516020818303038152906040529050612a4f878388848960028a61319f565b979650505050505050565b6001600160a01b03811660009081526001830160205260408120541515611663565b60006001600160e01b0319821663780e9d6360e01b148061089e575061089e826131eb565b600061089e826131f6565b612ab6828261166a565b610f0957612ac381613215565b612ace836020613227565b604051602001612adf929190614ddc565b60408051601f198184030181529082905262461bcd60e51b8252610aa991600401613f9b565b612b0d612eb5565b83612b1a61025982612a5a565b15612b5d5760405162461bcd60e51b8152602060048201526013602482015272426c61636b6c6973746564206164647265737360681b6044820152606401610aa9565b83612b6a61025982612a5a565b15612bad5760405162461bcd60e51b8152602060048201526013602482015272426c61636b6c6973746564206164647265737360681b6044820152606401610aa9565b6113cb868686866133c2565b612bc3828261166a565b610f0957600082815260fb602090815260408083206001600160a01b03851684529091529020805460ff19166001179055612bfb3390565b6001600160a01b0316816001600160a01b0316837f2f8788117e7eff1d82e926ec794901d17c78024a50270940304540a733656f0d60405160405180910390a45050565b6000611663836001600160a01b0384166133ce565b612c5e828261166a565b15610f0957600082815260fb602090815260408083206001600160a01b0385168085529252808320805460ff1916905551339285917ff6391f5c32d9c69d2a47ea670b442974b53935d1edc7fd64eb21e047a839171b9190a45050565b6000611663836001600160a01b03841661341d565b60975460ff166127675760405162461bcd60e51b815260206004820152601460248201527314185d5cd8589b194e881b9bdd081c185d5cd95960621b6044820152606401610aa9565b612d238383613510565b612d306000848484612f31565b610b4a5760405162461bcd60e51b8152600401610aa990614d03565b600061166383836133ce565b6000612d63826110ad565b9050612d73816000846001612b05565b612d7c826110ad565b600083815260696020908152604080832080546001600160a01b03199081169091556001600160a01b0385168085526068845282852080546000190190558785526067909352818420805490911690555192935084927fddf252ad1be2c89b69c2b068fc378daa952ba7f163c4a11628f55a4df523b3ef908390a45050565b600054610100900460ff16612e225760405162461bcd60e51b8152600401610aa990614cb8565b6065612e2e83826149a8565b506066610b4a82826149a8565b600054610100900460ff16612e625760405162461bcd60e51b8152600401610aa990614cb8565b6097805460ff19169055565b600054610100900460ff16612e955760405162461bcd60e51b8152600401610aa990614cb8565b612e9d612769565b6127676000805160206152e7833981519152336125d3565b60975460ff16156127675760405162461bcd60e51b815260206004820152601060248201526f14185d5cd8589b194e881c185d5cd95960821b6044820152606401610aa9565b6000826000018281548110612f1257612f1261491d565b9060005260206000200154905092915050565b6000611663838361341d565b60006001600160a01b0384163b1561302757604051630a85bd0160e11b81526001600160a01b0385169063150b7a0290612f75903390899088908890600401614e51565b6020604051808303816000875af1925050508015612fb0575060408051601f3d908101601f19168201909252612fad91810190614e84565b60015b61300d573d808015612fde576040519150601f19603f3d011682016040523d82523d6000602084013e612fe3565b606091505b5080516000036130055760405162461bcd60e51b8152600401610aa990614d03565b805181602001fd5b6001600160e01b031916630a85bd0160e11b14905061245a565b50600161245a565b606061303a8261368b565b60405160200161304a9190614ea1565b6040516020818303038152906040529050919050565b6060816000018054806020026020016040519081016040528092919081815260200182805480156130b057602002820191906000526020600020905b81548152602001906001019080831161309c575b50505050509050919050565b60008072184f03e93ff9f4daa797ed6e38ed64bf6a1f0160401b83106130fb5772184f03e93ff9f4daa797ed6e38ed64bf6a1f0160401b830492506040015b6d04ee2d6d415b85acef81000000008310613127576d04ee2d6d415b85acef8100000000830492506020015b662386f26fc10000831061314557662386f26fc10000830492506010015b6305f5e100831061315d576305f5e100830492506008015b612710831061317157612710830492506004015b60648310613183576064830492506002015b600a831061089e5760010192915050565b606061089e8261296e565b606060006131b18989898989896137dd565b9050806131bd84613847565b6040516020016131ce929190614ee6565b604051602081830303815290604052915050979650505050505050565b600061089e82613a52565b6000818152606760205260408120546001600160a01b0316151561089e565b606061089e6001600160a01b03831660145b60606000613236836002614f33565b613241906002614c60565b6001600160401b0381111561325857613258614064565b6040519080825280601f01601f191660200182016040528015613282576020820181803683370190505b509050600360fc1b8160008151811061329d5761329d61491d565b60200101906001600160f81b031916908160001a905350600f60fb1b816001815181106132cc576132cc61491d565b60200101906001600160f81b031916908160001a90535060006132f0846002614f33565b6132fb906001614c60565b90505b6001811115613373576f181899199a1a9b1b9c1cb0b131b232b360811b85600f166010811061332f5761332f61491d565b1a60f81b8282815181106133455761334561491d565b60200101906001600160f81b031916908160001a90535060049490941c9361336c81614f4a565b90506132fe565b5083156116635760405162461bcd60e51b815260206004820181905260248201527f537472696e67733a20686578206c656e67746820696e73756666696369656e746044820152606401610aa9565b610fcf84848484613a77565b60008181526001830160205260408120546134155750815460018181018455600084815260208082209093018490558454848252828601909352604090209190915561089e565b50600061089e565b60008181526001830160205260408120548015613506576000613441600183614f61565b855490915060009061345590600190614f61565b90508181146134ba5760008660000182815481106134755761347561491d565b90600052602060002001549050808760000184815481106134985761349861491d565b6000918252602080832090910192909255918252600188019052604090208390555b85548690806134cb576134cb614f74565b60019003818190600052602060002001600090559055856001016000868152602001908152602001600020600090556001935050505061089e565b600091505061089e565b6001600160a01b0382166135665760405162461bcd60e51b815260206004820181905260248201527f4552433732313a206d696e7420746f20746865207a65726f20616464726573736044820152606401610aa9565b61356f81612aa1565b156135bc5760405162461bcd60e51b815260206004820152601c60248201527f4552433732313a20746f6b656e20616c7265616479206d696e746564000000006044820152606401610aa9565b6135ca600083836001612b05565b6135d381612aa1565b156136205760405162461bcd60e51b815260206004820152601c60248201527f4552433732313a20746f6b656e20616c7265616479206d696e746564000000006044820152606401610aa9565b6001600160a01b038216600081815260686020908152604080832080546001019055848352606790915280822080546001600160a01b0319168417905551839291907fddf252ad1be2c89b69c2b068fc378daa952ba7f163c4a11628f55a4df523b3ef908290a45050565b606081516000036136aa57505060408051602081019091526000815290565b600060405180606001604052806040815260200161526760409139905060006003845160026136d99190614c60565b6136e39190614f8a565b6136ee906004614f33565b6001600160401b0381111561370557613705614064565b6040519080825280601f01601f19166020018201604052801561372f576020820181803683370190505b509050600182016020820185865187015b8082101561379b576003820191508151603f8160121c168501518453600184019350603f81600c1c168501518453600184019350603f8160061c168501518453600184019350603f8116850151845350600183019250613740565b50506003865106600181146137b757600281146137ca576137d2565b603d6001830353603d60028303536137d2565b603d60018303535b509195945050505050565b6060846137e98861296e565b84866137fd8a6001600160a01b0316613215565b61381787600281111561381257613812614fac565b613bb2565b60405160200161382c96959493929190614fc2565b60405160208183030381529060405290509695505050505050565b60408051602081019091526000808252606091905b8351811015613a29576000600185516138759190614f61565b821461389a57604051806040016040528060018152602001600b60fa1b8152506138ab565b604051806020016040528060008152505b905060008583815181106138c1576138c161491d565b6020026020010151606001516138f057604051806040016040528060018152602001601160f91b815250613901565b604051806020016040528060008152505b90506000818785815181106139185761391861491d565b60200260200101516040015183604051602001613937939291906150e1565b6040516020818303038152906040529050600087858151811061395c5761395c61491d565b602002602001015160200151516000146139b2578785815181106139825761398261491d565b60200260200101516020015160405160200161399e9190615124565b6040516020818303038152906040526139c3565b604051806020016040528060008152505b90506000868987815181106139da576139da61491d565b6020026020010151600001518385886040516020016139fd959493929190615169565b604051602081830303815290604052905080965050505050508080613a2190614949565b91505061385c565b5080604051602001613a3b9190615224565b604051602081830303815290604052915050919050565b60006001600160e01b03198216635a05180f60e01b148061089e575061089e82613c50565b613a8384848484613c75565b6001811115613af25760405162461bcd60e51b815260206004820152603560248201527f455243373231456e756d657261626c653a20636f6e7365637574697665207472604482015274185b9cd9995c9cc81b9bdd081cdd5c1c1bdc9d1959605a1b6064820152608401610aa9565b816001600160a01b038516613b5057613b4b816101948054600083815261019560205260408120829055600182018355919091527fa6f1ac7ad7b125ba5a5e1c96b00ad6914f90a503b1ac3d85a9dadbb4c639df920155565b613b73565b836001600160a01b0316856001600160a01b031614613b7357613b738582613c81565b6001600160a01b038416613b8f57613b8a81613d23565b611011565b846001600160a01b0316846001600160a01b031614611011576110118482613dd8565b60606002826002811115613bc857613bc8614fac565b14613c2e576001826002811115613be157613be1614fac565b14613c095760405180604001604052806005815260200164045524332360dc1b81525061089e565b604051806040016040528060078152602001664552433131353560c81b81525061089e565b505060408051808201909152600681526545524337323160d01b602082015290565b60006001600160e01b03198216637965db0b60e01b148061089e575061089e82613e1e565b610fcf84848484613e6e565b60006001613c8e846111e0565b613c989190614f61565b60008381526101936020526040902054909150808214613cee576001600160a01b038416600090815261019260209081526040808320858452825280832054848452818420819055835261019390915290208190555b506000918252610193602090815260408084208490556001600160a01b03909416835261019281528383209183525290812055565b61019454600090613d3690600190614f61565b600083815261019560205260408120546101948054939450909284908110613d6057613d6061491d565b90600052602060002001549050806101948381548110613d8257613d8261491d565b60009182526020808320909101929092558281526101959091526040808220849055858252812055610194805480613dbc57613dbc614f74565b6001900381819060005260206000200160009055905550505050565b6000613de3836111e0565b6001600160a01b0390931660009081526101926020908152604080832086845282528083208590559382526101939052919091209190915550565b60006001600160e01b031982166380ac58cd60e01b1480613e4f57506001600160e01b03198216635b5e139f60e01b145b8061089e57506301ffc9a760e01b6001600160e01b031983161461089e565b6001811115610fcf576001600160a01b03841615613eb4576001600160a01b03841660009081526068602052604081208054839290613eae908490614f61565b90915550505b6001600160a01b03831615610fcf576001600160a01b03831660009081526068602052604081208054839290613eeb908490614c60565b909155505050505050565b6001600160e01b031981168114610f2d57600080fd5b600060208284031215613f1e57600080fd5b813561166381613ef6565b60008060408385031215613f3c57600080fd5b50508035926020909101359150565b60005b83811015613f66578181015183820152602001613f4e565b50506000910152565b60008151808452613f87816020860160208601613f4b565b601f01601f19169290920160200192915050565b6020815260006116636020830184613f6f565b600060208284031215613fc057600080fd5b5035919050565b80356001600160a01b0381168114613fde57600080fd5b919050565b60008060408385031215613ff657600080fd5b613fff83613fc7565b946020939093013593505050565b60006020828403121561401f57600080fd5b61166382613fc7565b60008060006060848603121561403d57600080fd5b61404684613fc7565b925061405460208501613fc7565b9150604084013590509250925092565b634e487b7160e01b600052604160045260246000fd5b604051606081016001600160401b038111828210171561409c5761409c614064565b60405290565b604051601f8201601f191681016001600160401b03811182821017156140ca576140ca614064565b604052919050565b60006001600160401b038211156140eb576140eb614064565b5060051b60200190565b600082601f83011261410657600080fd5b8135602061411b614116836140d2565b6140a2565b82815260059290921b8401810191818101908684111561413a57600080fd5b8286015b84811015614155578035835291830191830161413e565b509695505050505050565b60006020828403121561417257600080fd5b81356001600160401b0381111561418857600080fd5b61245a848285016140f5565b6000602080830181845280855180835260408601915060408160051b870101925083870160005b828110156141e957603f198886030184526141d7858351613f6f565b945092850192908501906001016141bb565b5092979650505050505050565b6000806040838503121561420957600080fd5b8235915061421960208401613fc7565b90509250929050565b6000806040838503121561423557600080fd5b82356001600160401b0381111561424b57600080fd5b614257858286016140f5565b95602094909401359450505050565b60008060006060848603121561427b57600080fd5b505081359360208301359350604090920135919050565b600080604083850312156142a557600080fd5b6142ae83613fc7565b915060208301356001600160401b038111156142c957600080fd5b6142d5858286016140f5565b9150509250929050565b600082601f8301126142f057600080fd5b81356001600160401b0381111561430957614309614064565b61431c601f8201601f19166020016140a2565b81815284602083860101111561433157600080fd5b816020850160208301376000918101602001919091529392505050565b60008060006060848603121561436357600080fd5b833592506020840135915060408401356001600160401b0381111561438757600080fd5b614393868287016142df565b9150509250925092565b6000602082840312156143af57600080fd5b81356001600160401b038111156143c557600080fd5b61245a848285016142df565b600080602083850312156143e457600080fd5b82356001600160401b03808211156143fb57600080fd5b818501915085601f83011261440f57600080fd5b81358181111561441e57600080fd5b8660208260051b850101111561443357600080fd5b60209290920196919550909350505050565b6000806000806080858703121561445b57600080fd5b84356001600160401b038082111561447257600080fd5b61447e888389016140f5565b9550602087013591508082111561449457600080fd5b6144a0888389016140f5565b945060408701359150808211156144b657600080fd5b6144c2888389016140f5565b935060608701359150808211156144d857600080fd5b506144e5878288016140f5565b91505092959194509250565b600081518084526020808501945080840160005b8381101561452157815187529582019590820190600101614505565b509495945050505050565b60208152600061166360208301846144f1565b60008060006060848603121561455457600080fd5b61455d84613fc7565b92506020840135915060408401356001600160401b0381111561438757600080fd5b6000806040838503121561459257600080fd5b8235915060208301356001600160401b038111156142c957600080fd5b600080604083850312156145c257600080fd5b6145cb83613fc7565b9150602083013580151581146145e057600080fd5b809150509250929050565b6000806000806080858703121561460157600080fd5b5050823594602084013594506040840135936060013592509050565b6000806000806080858703121561463357600080fd5b61463c85613fc7565b935061464a60208601613fc7565b92506040850135915060608501356001600160401b0381111561466c57600080fd5b6144e5878288016142df565b60008060006060848603121561468d57600080fd5b833592506020840135915060408401356001600160401b038111156146b157600080fd5b614393868287016140f5565b6020808252825182820181905260009190848201906040850190845b818110156146fe5783516001600160a01b0316835292840192918401916001016146d9565b50909695505050505050565b60008060006060848603121561471f57600080fd5b833592506020808501356001600160401b038082111561473e57600080fd5b61474a888389016140f5565b9450604087013591508082111561476057600080fd5b818701915087601f83011261477457600080fd5b8135614782614116826140d2565b81815260059190911b8301840190848101908a8311156147a157600080fd5b8585015b838110156147d9578035858111156147bd5760008081fd5b6147cb8d89838a01016142df565b8452509186019186016147a5565b508096505050505050509250925092565b6000806000806080858703121561480057600080fd5b843593506020850135925060408501356001600160401b03808211156144b657600080fd5b6000806040838503121561483857600080fd5b61484183613fc7565b915061421960208401613fc7565b60008060006060848603121561486457600080fd5b61486d84613fc7565b925061487b60208501613fc7565b915060408401356001600160401b038111156146b157600080fd5b600181811c908216806148aa57607f821691505b6020821081036148ca57634e487b7160e01b600052602260045260246000fd5b50919050565b6020808252602d908201527f4552433732313a2063616c6c6572206973206e6f7420746f6b656e206f776e6560408201526c1c881bdc88185c1c1c9bdd9959609a1b606082015260800190565b634e487b7160e01b600052603260045260246000fd5b634e487b7160e01b600052601160045260246000fd5b60006001820161495b5761495b614933565b5060010190565b601f821115610b4a57600081815260208120601f850160051c810160208610156149895750805b601f850160051c820191505b818110156113cb57828155600101614995565b81516001600160401b038111156149c1576149c1614064565b6149d5816149cf8454614896565b84614962565b602080601f831160018114614a0a57600084156149f25750858301515b600019600386901b1c1916600185901b1785556113cb565b600085815260208120601f198616915b82811015614a3957888601518255948401946001909101908401614a1a565b5085821015614a575787850151600019600388901b60f8161c191681555b5050505050600190811b01905550565b600082601f830112614a7857600080fd5b81516020614a88614116836140d2565b82815260059290921b84018101918181019086841115614aa757600080fd5b8286015b848110156141555780518352918301918301614aab565b600060208284031215614ad457600080fd5b81516001600160401b0380821115614aeb57600080fd5b9083019060608286031215614aff57600080fd5b614b0761407a565b825182811115614b1657600080fd5b614b2287828601614a67565b825250602083015182811115614b3757600080fd5b614b4387828601614a67565b602083015250604083015182811115614b5b57600080fd5b614b6787828601614a67565b60408301525095945050505050565b602081526000825160606020840152614b9260808401826144f1565b90506020840151601f1980858403016040860152614bb083836144f1565b9250604086015191508085840301606086015250614bce82826144f1565b95945050505050565b82815260406020820152600061245a6040830184613f6f565b60008151614c02818560208601613f4b565b9290920192915050565b66021b7b9b6b4b1960cd1b815260008351614c2e816007850160208801613f4b565b6520456c66202360d01b6007918401918201528351614c5481600d840160208801613f4b565b01600d01949350505050565b8082018082111561089e5761089e614933565b60208082526025908201527f4552433732313a207472616e736665722066726f6d20696e636f72726563742060408201526437bbb732b960d91b606082015260800190565b6020808252602b908201527f496e697469616c697a61626c653a20636f6e7472616374206973206e6f74206960408201526a6e697469616c697a696e6760a81b606082015260800190565b60208082526032908201527f4552433732313a207472616e7366657220746f206e6f6e20455243373231526560408201527131b2b4bb32b91034b6b83632b6b2b73a32b960711b606082015260800190565b6000808454614d6381614896565b60018281168015614d7b5760018114614d9057614dbf565b60ff1984168752821515830287019450614dbf565b8860005260208060002060005b85811015614db65781548a820152908401908201614d9d565b50505082870194505b505050508351614dd3818360208801613f4b565b01949350505050565b7f416363657373436f6e74726f6c3a206163636f756e7420000000000000000000815260008351614e14816017850160208801613f4b565b7001034b99036b4b9b9b4b733903937b6329607d1b6017918401918201528351614e45816028840160208801613f4b565b01602801949350505050565b6001600160a01b03858116825284166020820152604081018390526080606082018190526000906122f890830184613f6f565b600060208284031215614e9657600080fd5b815161166381613ef6565b7f646174613a6170706c69636174696f6e2f6a736f6e3b6261736536342c000000815260008251614ed981601d850160208701613f4b565b91909101601d0192915050565b607b60f81b815260008351614f02816001850160208801613f4b565b835190830190614f19816001840160208801613f4b565b607d60f81b60019290910191820152600201949350505050565b808202811582820484141761089e5761089e614933565b600081614f5957614f59614933565b506000190190565b8181038181111561089e5761089e614933565b634e487b7160e01b600052603160045260246000fd5b600082614fa757634e487b7160e01b600052601260045260246000fd5b500490565b634e487b7160e01b600052602160045260246000fd5b67113730b6b2911d1160c11b81528651600090614fe6816008850160208c01613f4b565b61088b60f21b60089184019182018190526a113a37b5b2b724b2111d1160a91b600a830152885161501e816015850160208d01613f4b565b601592019182018190526e113232b9b1b934b83a34b7b7111d1160891b60178301528751615053816026850160208c01613f4b565b60269201918201526150d46150916150ce6150ba826150b461509f8261508b60288a01681134b6b0b3b2911d1160b91b815260090190565b8e614bf0565b61088b60f21b815260020190565b681137bbb732b9111d1160b91b815260090190565b8a614bf0565b67113a3cb832911d1160c11b815260080190565b86614bf0565b9998505050505050505050565b600084516150f3818460208901613f4b565b845190830190615107818360208901613f4b565b845191019061511a818360208801613f4b565b0195945050505050565b6f113234b9b83630bcafba3cb832911d1160811b81528151600090615150816010850160208701613f4b565b61088b60f21b6010939091019283015250601201919050565b6000865161517b818460208b01613f4b565b6e3d913a3930b4ba2fba3cb832911d1160891b90830190815286516151a781600f840160208b01613f4b565b61088b60f21b600f929091019182015285516151ca816011840160208a01613f4b565b67113b30b63ab2911d60c11b6011929091019182015284516151f3816019840160208901613f4b565b607d60f81b60199290910191820152835161521581601a840160208801613f4b565b01601a01979650505050505050565b6d2261747472696275746573223a5b60901b8152815160009061524e81600e850160208701613f4b565b605d60f81b600e939091019283015250600f0191905056fe4142434445464748494a4b4c4d4e4f505152535455565758595a6162636465666768696a6b6c6d6e6f707172737475767778797a303132333435363738392b2f9f2df0fed2c77648de5860a4cc508cd0818c85b8b8a1ab4ceeef8d981c8956a6a49807205ce4d355092ef5a8a18f56e8913cf4a201fbe287825b095693c21775364d3d7565c7a8300c96fd53e065d19b65848d7b23b3191adcd55621c744223ca26469706673582212200ae923285f9f7ddf03b5c21727e1fb3d0f72687f19b69cad215c0c34fdcbf3e964736f6c63430008110033",
  "linkReferences": {},
  "deployedLinkReferences": {}
}