{
  "_format": "hh-sol-artifact-1",
  "contractName": "CosmicElves",
  "sourceName": "contracts/upgradeable/ERC721/CosmicElves.sol",
  "abi": [
    {
      "inputs": [],
      "stateMutability": "nonpayable",
      "type": "constructor"
    },
    {
      "anonymous": false,
      "inputs": [
        {
          "indexed": true,
          "internalType": "address",
          "name": "owner",
          "type": "address"
        },
        {
          "indexed": true,
          "internalType": "address",
          "name": "approved",
          "type": "address"
        },
        {
          "indexed": true,
          "internalType": "uint256",
          "name": "tokenId",
          "type": "uint256"
        }
      ],
      "name": "Approval",
      "type": "event"
    },
    {
      "anonymous": false,
      "inputs": [
        {
          "indexed": true,
          "internalType": "address",
          "name": "owner",
          "type": "address"
        },
        {
          "indexed": true,
          "internalType": "address",
          "name": "operator",
          "type": "address"
        },
        {
          "indexed": false,
          "internalType": "bool",
          "name": "approved",
          "type": "bool"
        }
      ],
      "name": "ApprovalForAll",
      "type": "event"
    },
    {
      "anonymous": false,
      "inputs": [
        {
          "indexed": false,
          "internalType": "uint8",
          "name": "version",
          "type": "uint8"
        }
      ],
      "name": "Initialized",
      "type": "event"
    },
    {
      "anonymous": false,
      "inputs": [
        {
          "indexed": false,
          "internalType": "address",
          "name": "account",
          "type": "address"
        }
      ],
      "name": "Paused",
      "type": "event"
    },
    {
      "anonymous": false,
      "inputs": [
        {
          "indexed": true,
          "internalType": "bytes32",
          "name": "role",
          "type": "bytes32"
        },
        {
          "indexed": true,
          "internalType": "bytes32",
          "name": "previousAdminRole",
          "type": "bytes32"
        },
        {
          "indexed": true,
          "internalType": "bytes32",
          "name": "newAdminRole",
          "type": "bytes32"
        }
      ],
      "name": "RoleAdminChanged",
      "type": "event"
    },
    {
      "anonymous": false,
      "inputs": [
        {
          "indexed": true,
          "internalType": "bytes32",
          "name": "role",
          "type": "bytes32"
        },
        {
          "indexed": true,
          "internalType": "address",
          "name": "account",
          "type": "address"
        },
        {
          "indexed": true,
          "internalType": "address",
          "name": "sender",
          "type": "address"
        }
      ],
      "name": "RoleGranted",
      "type": "event"
    },
    {
      "anonymous": false,
      "inputs": [
        {
          "indexed": true,
          "internalType": "bytes32",
          "name": "role",
          "type": "bytes32"
        },
        {
          "indexed": true,
          "internalType": "address",
          "name": "account",
          "type": "address"
        },
        {
          "indexed": true,
          "internalType": "address",
          "name": "sender",
          "type": "address"
        }
      ],
      "name": "RoleRevoked",
      "type": "event"
    },
    {
      "anonymous": false,
      "inputs": [
        {
          "indexed": true,
          "internalType": "uint256",
          "name": "tokenId",
          "type": "uint256"
        },
        {
          "indexed": false,
          "internalType": "uint256",
          "name": "customId",
          "type": "uint256"
        },
        {
          "indexed": false,
          "internalType": "string",
          "name": "value",
          "type": "string"
        }
      ],
      "name": "TextUpdated",
      "type": "event"
    },
    {
      "anonymous": false,
      "inputs": [
        {
          "indexed": true,
          "internalType": "address",
          "name": "from",
          "type": "address"
        },
        {
          "indexed": true,
          "internalType": "address",
          "name": "to",
          "type": "address"
        },
        {
          "indexed": true,
          "internalType": "uint256",
          "name": "tokenId",
          "type": "uint256"
        }
      ],
      "name": "Transfer",
      "type": "event"
    },
    {
      "anonymous": false,
      "inputs": [
        {
          "indexed": false,
          "internalType": "address",
          "name": "account",
          "type": "address"
        }
      ],
      "name": "Unpaused",
      "type": "event"
    },
    {
      "anonymous": false,
      "inputs": [
        {
          "indexed": true,
          "internalType": "uint256",
          "name": "tokenId",
          "type": "uint256"
        },
        {
          "indexed": false,
          "internalType": "uint256",
          "name": "treeId",
          "type": "uint256"
        },
        {
          "indexed": false,
          "internalType": "uint256",
          "name": "skillId",
          "type": "uint256"
        },
        {
          "indexed": false,
          "internalType": "uint256",
          "name": "value",
          "type": "uint256"
        }
      ],
      "name": "ValueUpdated",
      "type": "event"
    },
    {
      "inputs": [],
      "name": "ADMIN_ROLE",
      "outputs": [
        {
          "internalType": "bytes32",
          "name": "",
          "type": "bytes32"
        }
      ],
      "stateMutability": "view",
      "type": "function"
    },
    {
      "inputs": [],
      "name": "CONTRACT_ROLE",
      "outputs": [
        {
          "internalType": "bytes32",
          "name": "",
          "type": "bytes32"
        }
      ],
      "stateMutability": "view",
      "type": "function"
    },
    {
      "inputs": [],
      "name": "DEFAULT_ADMIN_ROLE",
      "outputs": [
        {
          "internalType": "bytes32",
          "name": "",
          "type": "bytes32"
        }
      ],
      "stateMutability": "view",
      "type": "function"
    },
    {
      "inputs": [],
      "name": "MINTER_ROLE",
      "outputs": [
        {
          "internalType": "bytes32",
          "name": "",
          "type": "bytes32"
        }
      ],
      "stateMutability": "view",
      "type": "function"
    },
    {
      "inputs": [
        {
          "internalType": "address",
          "name": "to",
          "type": "address"
        },
        {
          "internalType": "uint256",
          "name": "tokenId",
          "type": "uint256"
        }
      ],
      "name": "approve",
      "outputs": [],
      "stateMutability": "nonpayable",
      "type": "function"
    },
    {
      "inputs": [
        {
          "internalType": "address",
          "name": "owner",
          "type": "address"
        }
      ],
      "name": "balanceOf",
      "outputs": [
        {
          "internalType": "uint256",
          "name": "",
          "type": "uint256"
        }
      ],
      "stateMutability": "view",
      "type": "function"
    },
    {
      "inputs": [
        {
          "internalType": "address",
          "name": "to",
          "type": "address"
        },
        {
          "internalType": "uint256[]",
          "name": "tokenIds",
          "type": "uint256[]"
        }
      ],
      "name": "batchMint",
      "outputs": [],
      "stateMutability": "nonpayable",
      "type": "function"
    },
    {
      "inputs": [
        {
          "internalType": "uint256",
          "name": "treeId",
          "type": "uint256"
        },
        {
          "internalType": "uint256[]",
          "name": "skillIds",
          "type": "uint256[]"
        },
        {
          "internalType": "string[]",
          "name": "names",
          "type": "string[]"
        }
      ],
      "name": "batchSetSkillName",
      "outputs": [],
      "stateMutability": "nonpayable",
      "type": "function"
    },
    {
      "inputs": [
        {
          "internalType": "uint256[]",
          "name": "tokenIds",
          "type": "uint256[]"
        }
      ],
      "name": "batchTokenURI",
      "outputs": [
        {
          "internalType": "string[]",
          "name": "",
          "type": "string[]"
        }
      ],
      "stateMutability": "view",
      "type": "function"
    },
    {
      "inputs": [
        {
          "internalType": "uint256[]",
          "name": "tokenIds",
          "type": "uint256[]"
        }
      ],
      "name": "batchTokenURIJSON",
      "outputs": [
        {
          "internalType": "string[]",
          "name": "",
          "type": "string[]"
        }
      ],
      "stateMutability": "view",
      "type": "function"
    },
    {
      "inputs": [
        {
          "internalType": "address",
          "name": "from",
          "type": "address"
        },
        {
          "internalType": "address",
          "name": "to",
          "type": "address"
        },
        {
          "internalType": "uint256[]",
          "name": "tokenIds",
          "type": "uint256[]"
        }
      ],
      "name": "batchTransferFrom",
      "outputs": [],
      "stateMutability": "nonpayable",
      "type": "function"
    },
    {
      "inputs": [
        {
          "internalType": "uint256[]",
          "name": "tokenIds",
          "type": "uint256[]"
        },
        {
          "internalType": "uint256[]",
          "name": "treeIds",
          "type": "uint256[]"
        },
        {
          "internalType": "uint256[]",
          "name": "skillIds",
          "type": "uint256[]"
        },
        {
          "internalType": "uint256[]",
          "name": "values",
          "type": "uint256[]"
        }
      ],
      "name": "batchUpdateSkills",
      "outputs": [],
      "stateMutability": "nonpayable",
      "type": "function"
    },
    {
      "inputs": [
        {
          "internalType": "uint256",
          "name": "tokenId",
          "type": "uint256"
        },
        {
          "internalType": "uint256",
          "name": "treeId",
          "type": "uint256"
        },
        {
          "internalType": "uint256[]",
          "name": "skillIds",
          "type": "uint256[]"
        },
        {
          "internalType": "uint256[]",
          "name": "values",
          "type": "uint256[]"
        }
      ],
      "name": "batchUpdateSkillsOfToken",
      "outputs": [],
      "stateMutability": "nonpayable",
      "type": "function"
    },
    {
      "inputs": [
        {
          "internalType": "uint256",
          "name": "tokenId",
          "type": "uint256"
        }
      ],
      "name": "burn",
      "outputs": [],
      "stateMutability": "nonpayable",
      "type": "function"
    },
    {
      "inputs": [],
      "name": "getAllTokenIds",
      "outputs": [
        {
          "internalType": "uint256[]",
          "name": "",
          "type": "uint256[]"
        }
      ],
      "stateMutability": "view",
      "type": "function"
    },
    {
      "inputs": [
        {
          "internalType": "uint256",
          "name": "tokenId",
          "type": "uint256"
        }
      ],
      "name": "getApproved",
      "outputs": [
        {
          "internalType": "address",
          "name": "",
          "type": "address"
        }
      ],
      "stateMutability": "view",
      "type": "function"
    },
    {
      "inputs": [],
      "name": "getBlacklisted",
      "outputs": [
        {
          "internalType": "address[]",
          "name": "",
          "type": "address[]"
        }
      ],
      "stateMutability": "view",
      "type": "function"
    },
    {
      "inputs": [
        {
          "internalType": "bytes32",
          "name": "role",
          "type": "bytes32"
        }
      ],
      "name": "getRoleAdmin",
      "outputs": [
        {
          "internalType": "bytes32",
          "name": "",
          "type": "bytes32"
        }
      ],
      "stateMutability": "view",
      "type": "function"
    },
    {
      "inputs": [
        {
          "internalType": "bytes32",
          "name": "role",
          "type": "bytes32"
        },
        {
          "internalType": "uint256",
          "name": "index",
          "type": "uint256"
        }
      ],
      "name": "getRoleMember",
      "outputs": [
        {
          "internalType": "address",
          "name": "",
          "type": "address"
        }
      ],
      "stateMutability": "view",
      "type": "function"
    },
    {
      "inputs": [
        {
          "internalType": "bytes32",
          "name": "role",
          "type": "bytes32"
        }
      ],
      "name": "getRoleMemberCount",
      "outputs": [
        {
          "internalType": "uint256",
          "name": "",
          "type": "uint256"
        }
      ],
      "stateMutability": "view",
      "type": "function"
    },
    {
      "inputs": [
        {
          "internalType": "uint256",
          "name": "tokenId",
          "type": "uint256"
        },
        {
          "internalType": "uint256",
          "name": "treeId",
          "type": "uint256"
        },
        {
          "internalType": "uint256",
          "name": "skillId",
          "type": "uint256"
        }
      ],
      "name": "getSkill",
      "outputs": [
        {
          "internalType": "uint256",
          "name": "",
          "type": "uint256"
        }
      ],
      "stateMutability": "view",
      "type": "function"
    },
    {
      "inputs": [
        {
          "internalType": "uint256",
          "name": "treeId",
          "type": "uint256"
        },
        {
          "internalType": "uint256",
          "name": "skillId",
          "type": "uint256"
        }
      ],
      "name": "getSkillName",
      "outputs": [
        {
          "internalType": "string",
          "name": "",
          "type": "string"
        }
      ],
      "stateMutability": "view",
      "type": "function"
    },
    {
      "inputs": [
        {
          "internalType": "uint256",
          "name": "tokenId",
          "type": "uint256"
        },
        {
          "internalType": "uint256",
          "name": "treeId",
          "type": "uint256"
        },
        {
          "internalType": "uint256[]",
          "name": "skillIds",
          "type": "uint256[]"
        }
      ],
      "name": "getSkillsByTree",
      "outputs": [
        {
          "internalType": "uint256[]",
          "name": "",
          "type": "uint256[]"
        }
      ],
      "stateMutability": "view",
      "type": "function"
    },
    {
      "inputs": [
        {
          "internalType": "uint256",
          "name": "tokenId",
          "type": "uint256"
        },
        {
          "internalType": "uint256",
          "name": "customId",
          "type": "uint256"
        }
      ],
      "name": "getString",
      "outputs": [
        {
          "internalType": "string",
          "name": "",
          "type": "string"
        }
      ],
      "stateMutability": "view",
      "type": "function"
    },
    {
      "inputs": [
        {
          "internalType": "uint256[]",
          "name": "tokenIds",
          "type": "uint256[]"
        },
        {
          "internalType": "uint256",
          "name": "customId",
          "type": "uint256"
        }
      ],
      "name": "getStringOfTokens",
      "outputs": [
        {
          "internalType": "string[]",
          "name": "",
          "type": "string[]"
        }
      ],
      "stateMutability": "view",
      "type": "function"
    },
    {
      "inputs": [
        {
          "internalType": "uint256",
          "name": "tokenId",
          "type": "uint256"
        },
        {
          "internalType": "uint256[]",
          "name": "customIds",
          "type": "uint256[]"
        }
      ],
      "name": "getStrings",
      "outputs": [
        {
          "internalType": "string[]",
          "name": "",
          "type": "string[]"
        }
      ],
      "stateMutability": "view",
      "type": "function"
    },
    {
      "inputs": [
        {
          "internalType": "bytes32",
          "name": "role",
          "type": "bytes32"
        },
        {
          "internalType": "address",
          "name": "account",
          "type": "address"
        }
      ],
      "name": "grantRole",
      "outputs": [],
      "stateMutability": "nonpayable",
      "type": "function"
    },
    {
      "inputs": [
        {
          "internalType": "bytes32",
          "name": "role",
          "type": "bytes32"
        },
        {
          "internalType": "address",
          "name": "account",
          "type": "address"
        }
      ],
      "name": "hasRole",
      "outputs": [
        {
          "internalType": "bool",
          "name": "",
          "type": "bool"
        }
      ],
      "stateMutability": "view",
      "type": "function"
    },
    {
      "inputs": [],
      "name": "imageBaseURI",
      "outputs": [
        {
          "internalType": "string",
          "name": "",
          "type": "string"
        }
      ],
      "stateMutability": "view",
      "type": "function"
    },
    {
      "inputs": [],
      "name": "initialize",
      "outputs": [],
      "stateMutability": "nonpayable",
      "type": "function"
    },
    {
      "inputs": [
        {
          "internalType": "address",
          "name": "owner",
          "type": "address"
        },
        {
          "internalType": "address",
          "name": "operator",
          "type": "address"
        }
      ],
      "name": "isApprovedForAll",
      "outputs": [
        {
          "internalType": "bool",
          "name": "",
          "type": "bool"
        }
      ],
      "stateMutability": "view",
      "type": "function"
    },
    {
      "inputs": [
        {
          "internalType": "address",
          "name": "user",
          "type": "address"
        }
      ],
      "name": "isBlacklisted",
      "outputs": [
        {
          "internalType": "bool",
          "name": "",
          "type": "bool"
        }
      ],
      "stateMutability": "view",
      "type": "function"
    },
    {
      "inputs": [
        {
          "internalType": "address",
          "name": "to",
          "type": "address"
        },
        {
          "internalType": "uint256",
          "name": "tokenId",
          "type": "uint256"
        }
      ],
      "name": "mint",
      "outputs": [],
      "stateMutability": "nonpayable",
      "type": "function"
    },
    {
      "inputs": [],
      "name": "name",
      "outputs": [
        {
          "internalType": "string",
          "name": "",
          "type": "string"
        }
      ],
      "stateMutability": "view",
      "type": "function"
    },
    {
      "inputs": [
        {
          "internalType": "uint256",
          "name": "tokenId",
          "type": "uint256"
        }
      ],
      "name": "ownerOf",
      "outputs": [
        {
          "internalType": "address",
          "name": "",
          "type": "address"
        }
      ],
      "stateMutability": "view",
      "type": "function"
    },
    {
      "inputs": [],
      "name": "pause",
      "outputs": [],
      "stateMutability": "nonpayable",
      "type": "function"
    },
    {
      "inputs": [],
      "name": "paused",
      "outputs": [
        {
          "internalType": "bool",
          "name": "",
          "type": "bool"
        }
      ],
      "stateMutability": "view",
      "type": "function"
    },
    {
      "inputs": [
        {
          "internalType": "bytes32",
          "name": "role",
          "type": "bytes32"
        },
        {
          "internalType": "address",
          "name": "account",
          "type": "address"
        }
      ],
      "name": "renounceRole",
      "outputs": [],
      "stateMutability": "nonpayable",
      "type": "function"
    },
    {
      "inputs": [
        {
          "internalType": "bytes32",
          "name": "role",
          "type": "bytes32"
        },
        {
          "internalType": "address",
          "name": "account",
          "type": "address"
        }
      ],
      "name": "revokeRole",
      "outputs": [],
      "stateMutability": "nonpayable",
      "type": "function"
    },
    {
      "inputs": [
        {
          "internalType": "address",
          "name": "from",
          "type": "address"
        },
        {
          "internalType": "address",
          "name": "to",
          "type": "address"
        },
        {
          "internalType": "uint256",
          "name": "tokenId",
          "type": "uint256"
        }
      ],
      "name": "safeTransferFrom",
      "outputs": [],
      "stateMutability": "nonpayable",
      "type": "function"
    },
    {
      "inputs": [
        {
          "internalType": "address",
          "name": "from",
          "type": "address"
        },
        {
          "internalType": "address",
          "name": "to",
          "type": "address"
        },
        {
          "internalType": "uint256",
          "name": "tokenId",
          "type": "uint256"
        },
        {
          "internalType": "bytes",
          "name": "data",
          "type": "bytes"
        }
      ],
      "name": "safeTransferFrom",
      "outputs": [],
      "stateMutability": "nonpayable",
      "type": "function"
    },
    {
      "inputs": [
        {
          "internalType": "address",
          "name": "operator",
          "type": "address"
        },
        {
          "internalType": "bool",
          "name": "approved",
          "type": "bool"
        }
      ],
      "name": "setApprovalForAll",
      "outputs": [],
      "stateMutability": "nonpayable",
      "type": "function"
    },
    {
      "inputs": [
        {
          "internalType": "string",
          "name": "_imageBaseURI",
          "type": "string"
        }
      ],
      "name": "setImageBaseURI",
      "outputs": [],
      "stateMutability": "nonpayable",
      "type": "function"
    },
    {
      "inputs": [
        {
          "internalType": "uint256",
          "name": "treeId",
          "type": "uint256"
        },
        {
          "internalType": "uint256",
          "name": "skillId",
          "type": "uint256"
        },
        {
          "internalType": "string",
          "name": "name",
          "type": "string"
        }
      ],
      "name": "setSkillName",
      "outputs": [],
      "stateMutability": "nonpayable",
      "type": "function"
    },
    {
      "inputs": [
        {
          "internalType": "bytes4",
          "name": "interfaceId",
          "type": "bytes4"
        }
      ],
      "name": "supportsInterface",
      "outputs": [
        {
          "internalType": "bool",
          "name": "",
          "type": "bool"
        }
      ],
      "stateMutability": "view",
      "type": "function"
    },
    {
      "inputs": [],
      "name": "symbol",
      "outputs": [
        {
          "internalType": "string",
          "name": "",
          "type": "string"
        }
      ],
      "stateMutability": "view",
      "type": "function"
    },
    {
      "inputs": [
        {
          "internalType": "uint256",
          "name": "index",
          "type": "uint256"
        }
      ],
      "name": "tokenByIndex",
      "outputs": [
        {
          "internalType": "uint256",
          "name": "",
          "type": "uint256"
        }
      ],
      "stateMutability": "view",
      "type": "function"
    },
    {
      "inputs": [
        {
          "internalType": "address",
          "name": "owner",
          "type": "address"
        },
        {
          "internalType": "uint256",
          "name": "index",
          "type": "uint256"
        }
      ],
      "name": "tokenOfOwnerByIndex",
      "outputs": [
        {
          "internalType": "uint256",
          "name": "",
          "type": "uint256"
        }
      ],
      "stateMutability": "view",
      "type": "function"
    },
    {
      "inputs": [
        {
          "internalType": "uint256",
          "name": "tokenId",
          "type": "uint256"
        }
      ],
      "name": "tokenURI",
      "outputs": [
        {
          "internalType": "string",
          "name": "",
          "type": "string"
        }
      ],
      "stateMutability": "view",
      "type": "function"
    },
    {
      "inputs": [
        {
          "internalType": "uint256",
          "name": "tokenId",
          "type": "uint256"
        }
      ],
      "name": "tokenURIJSON",
      "outputs": [
        {
          "internalType": "string",
          "name": "",
          "type": "string"
        }
      ],
      "stateMutability": "view",
      "type": "function"
    },
    {
      "inputs": [
        {
          "internalType": "address",
          "name": "owner",
          "type": "address"
        }
      ],
      "name": "tokensOfOwner",
      "outputs": [
        {
          "internalType": "uint256[]",
          "name": "",
          "type": "uint256[]"
        }
      ],
      "stateMutability": "view",
      "type": "function"
    },
    {
      "inputs": [],
      "name": "totalSupply",
      "outputs": [
        {
          "internalType": "uint256",
          "name": "",
          "type": "uint256"
        }
      ],
      "stateMutability": "view",
      "type": "function"
    },
    {
      "inputs": [
        {
          "internalType": "address",
          "name": "from",
          "type": "address"
        },
        {
          "internalType": "address",
          "name": "to",
          "type": "address"
        },
        {
          "internalType": "uint256",
          "name": "tokenId",
          "type": "uint256"
        }
      ],
      "name": "transferFrom",
      "outputs": [],
      "stateMutability": "nonpayable",
      "type": "function"
    },
    {
      "inputs": [],
      "name": "unpause",
      "outputs": [],
      "stateMutability": "nonpayable",
      "type": "function"
    },
    {
      "inputs": [
        {
          "internalType": "uint256",
          "name": "tokenId",
          "type": "uint256"
        },
        {
          "internalType": "uint256",
          "name": "treeId",
          "type": "uint256"
        },
        {
          "internalType": "uint256",
          "name": "skillId",
          "type": "uint256"
        },
        {
          "internalType": "uint256",
          "name": "value",
          "type": "uint256"
        }
      ],
      "name": "updateSkill",
      "outputs": [],
      "stateMutability": "nonpayable",
      "type": "function"
    },
    {
      "inputs": [
        {
          "internalType": "uint256",
          "name": "tokenId",
          "type": "uint256"
        },
        {
          "internalType": "uint256",
          "name": "customId",
          "type": "uint256"
        },
        {
          "internalType": "string",
          "name": "value",
          "type": "string"
        }
      ],
      "name": "updateString",
      "outputs": [],
      "stateMutability": "nonpayable",
      "type": "function"
    }
  ],
  "bytecode": "0x60806040523480156200001157600080fd5b506200001c62000022565b620000e4565b600054610100900460ff16156200008f5760405162461bcd60e51b815260206004820152602760248201527f496e697469616c697a61626c653a20636f6e747261637420697320696e697469604482015266616c697a696e6760c81b606482015260840160405180910390fd5b60005460ff9081161015620000e2576000805460ff191660ff9081179091556040519081527f7f26b83ff96e1f2b6a682f133852f6798a09c465da95921460cefb38474024989060200160405180910390a15b565b614bfb80620000f46000396000f3fe608060405234801561001057600080fd5b50600436106103785760003560e01c806375b238fc116101d3578063bdbed72211610104578063de10c72d116100a2578063ed0af2091161007c578063ed0af209146107b4578063f3993d11146107c7578063fe459f5c146107da578063fe575a87146107ed57600080fd5b8063de10c72d14610752578063e2862b6b14610765578063e985e9c51461077857600080fd5b8063ca15c873116100de578063ca15c87314610702578063ce3675ad14610715578063d53913931461072a578063d547741f1461073f57600080fd5b8063bdbed722146106d4578063c7e05590146106dc578063c87b56dd146106ef57600080fd5b806391d1485411610171578063a217fddf1161014b578063a217fddf14610693578063a22cb4651461069b578063b5afb120146106ae578063b88d4fde146106c157600080fd5b806391d148541461066557806395d89b41146106785780639e8afe471461068057600080fd5b80638129fc1c116101ad5780638129fc1c146106225780638456cb591461062a5780638462151c146106325780639010d07c1461065257600080fd5b806375b238fc146105f257806377645839146106075780637efa19021461060f57600080fd5b806336568abe116102ad5780634b5f4fe61161024b5780636352211e116102255780636352211e146105a65780636cfa24cc146105b95780636d94f13a146105cc57806370a08231146105df57600080fd5b80634b5f4fe6146105755780634f6ccce7146105885780635c975abb1461059b57600080fd5b806342842e0e1161028757806342842e0e1461050957806342966c681461051c5780634594762a1461052f5780634684d7e91461056257600080fd5b806336568abe146104db5780633f4ba83a146104ee57806340c10f19146104f657600080fd5b806318160ddd1161031a5780632c303493116102f45780632c303493146104825780632f2ff15d146104a25780632f745c59146104b5578063352b7533146104c857600080fd5b806318160ddd1461044357806323b872dd1461044c578063248a9ca31461045f57600080fd5b806306fdde031161035657806306fdde03146103e8578063079be493146103f0578063081812fc14610403578063095ea7b31461042e57600080fd5b806301ffc9a71461037d57806303fe46ab146103a557806306b67444146103c8575b600080fd5b61039061038b3660046139bd565b610800565b60405190151581526020015b60405180910390f35b6103ba600080516020614ba683398151915281565b60405190815260200161039c565b6103db6103d63660046139da565b610811565b60405161039c9190613a4c565b6103db6108c0565b6103db6103fe3660046139da565b610952565b610416610411366004613a5f565b61097b565b6040516001600160a01b03909116815260200161039c565b61044161043c366004613a94565b6109a2565b005b610194546103ba565b61044161045a366004613abe565b610abc565b6103ba61046d366004613a5f565b600090815260fb602052604090206001015490565b610495610490366004613bce565b610aee565b60405161039c9190613c02565b6104416104b0366004613c64565b610ba6565b6103ba6104c3366004613a94565b610bcb565b6104956104d6366004613c90565b610c62565b6104416104e9366004613c64565b610dc0565b610441610e3e565b610441610504366004613a94565b610e61565b610441610517366004613abe565b610e83565b61044161052a366004613a5f565b610e9e565b6103ba61053d366004613cd4565b6000928352610228602090815260408085209385529281528284209184525290205490565b610441610570366004613d00565b610ed9565b610441610583366004613dc4565b610f38565b6103ba610596366004613a5f565b610f7b565b60975460ff16610390565b6104166105b4366004613a5f565b611010565b6104416105c7366004613e13565b611070565b6104956105da366004613e47565b611095565b6103ba6105ed366004613ebb565b611143565b6103ba600080516020614b8683398151915281565b6103db6111c9565b61044161061d366004613ed6565b611258565b610441611336565b6104416114f4565b610645610640366004613ebb565b611514565b60405161039c9190613f82565b6104166106603660046139da565b6115ad565b610390610673366004613c64565b6115cd565b6103db6115f8565b61049561068e366004613fc6565b611607565b6103ba600081565b6104416106a9366004613ff6565b61175d565b6104416106bc366004614032565b611768565b6104416106cf366004614064565b6117ed565b61064561181f565b6106456106ea3660046140d3565b611909565b6103db6106fd366004613a5f565b6119de565b6103ba610710366004613a5f565b6119e9565b61071d611a01565b60405161039c9190614118565b6103ba600080516020614b6683398151915281565b61044161074d366004613c64565b611a13565b610441610760366004614159565b611a38565b610441610773366004614239565b611ad3565b610390610786366004614274565b6001600160a01b039182166000908152606a6020908152604080832093909416825291909152205460ff1690565b6104416107c2366004613dc4565b611b77565b6104416107d536600461429e565b611bf4565b6103db6107e8366004613a5f565b611c36565b6103906107fb366004613ebb565b611fc1565b600061080b82611fcf565b92915050565b600082815261022960209081526040808320848452909152902080546060919061083a906142e5565b80601f0160208091040260200160405190810160405280929190818152602001828054610866906142e5565b80156108b35780601f10610888576101008083540402835291602001916108b3565b820191906000526020600020905b81548152906001019060200180831161089657829003601f168201915b5050505050905092915050565b6060606580546108cf906142e5565b80601f01602080910402602001604051908101604052809291908181526020018280546108fb906142e5565b80156109485780601f1061091d57610100808354040283529160200191610948565b820191906000526020600020905b81548152906001019060200180831161092b57829003601f168201915b5050505050905090565b600082815261022a60209081526040808320848452909152902080546060919061083a906142e5565b600061098682611fda565b506000908152606960205260409020546001600160a01b031690565b60006109ad82611010565b9050806001600160a01b0316836001600160a01b031603610a1f5760405162461bcd60e51b815260206004820152602160248201527f4552433732313a20617070726f76616c20746f2063757272656e74206f776e656044820152603960f91b60648201526084015b60405180910390fd5b336001600160a01b0382161480610a3b5750610a3b8133610786565b610aad5760405162461bcd60e51b815260206004820152603e60248201527f4552433732313a20617070726f76652063616c6c6572206973206e6f7420746f60448201527f6b656e206f776e6572206e6f7220617070726f76656420666f7220616c6c00006064820152608401610a16565b610ab7838361202a565b505050565b610ac7335b82612098565b610ae35760405162461bcd60e51b8152600401610a169061431f565b610ab7838383612117565b6060600082516001600160401b03811115610b0b57610b0b613afa565b604051908082528060200260200182016040528015610b3e57816020015b6060815260200190600190039081610b295790505b50905060005b8351811015610b9f57610b6f848281518110610b6257610b6261436d565b6020026020010151611c36565b828281518110610b8157610b8161436d565b60200260200101819052508080610b9790614399565b915050610b44565b5092915050565b600082815260fb6020526040902060010154610bc1816122be565b610ab783836122c8565b6000610bd683611143565b8210610c385760405162461bcd60e51b815260206004820152602b60248201527f455243373231456e756d657261626c653a206f776e657220696e646578206f7560448201526a74206f6620626f756e647360a81b6064820152608401610a16565b506001600160a01b0391909116600090815261019260209081526040808320938352929052205490565b6060600083516001600160401b03811115610c7f57610c7f613afa565b604051908082528060200260200182016040528015610cb257816020015b6060815260200190600190039081610c9d5790505b50905060005b8451811015610db85761022a6000868381518110610cd857610cd861436d565b6020026020010151815260200190815260200160002060008581526020019081526020016000208054610d0a906142e5565b80601f0160208091040260200160405190810160405280929190818152602001828054610d36906142e5565b8015610d835780601f10610d5857610100808354040283529160200191610d83565b820191906000526020600020905b815481529060010190602001808311610d6657829003601f168201915b5050505050828281518110610d9a57610d9a61436d565b60200260200101819052508080610db090614399565b915050610cb8565b509392505050565b6001600160a01b0381163314610e305760405162461bcd60e51b815260206004820152602f60248201527f416363657373436f6e74726f6c3a2063616e206f6e6c792072656e6f756e636560448201526e103937b632b9903337b91039b2b63360891b6064820152608401610a16565b610e3a82826122eb565b5050565b600080516020614b86833981519152610e56816122be565b610e5e61230e565b50565b600080516020614b66833981519152610e79816122be565b610ab78383612360565b610ab7838383604051806020016040528060008152506117ed565b610ea733610ac1565b610ec35760405162461bcd60e51b8152600401610a169061431f565b610ecf61015f8261237a565b50610e5e81612386565b600080516020614b66833981519152610ef1816122be565b60005b8251811015610f3257610f2084848381518110610f1357610f1361436d565b6020026020010151612360565b80610f2a81614399565b915050610ef4565b50505050565b600080516020614ba6833981519152610f50816122be565b6000848152610229602090815260408083208684529091529020610f7483826143f8565b5050505050565b6000610f876101945490565b8210610fea5760405162461bcd60e51b815260206004820152602c60248201527f455243373231456e756d657261626c653a20676c6f62616c20696e646578206f60448201526b7574206f6620626f756e647360a01b6064820152608401610a16565b6101948281548110610ffe57610ffe61436d565b90600052602060002001549050919050565b6000818152606760205260408120546001600160a01b03168061080b5760405162461bcd60e51b8152602060048201526018602482015277115490cdcc8c4e881a5b9d985b1a59081d1bdad95b88125160421b6044820152606401610a16565b600080516020614b86833981519152611088816122be565b6101f6610ab783826143f8565b60606000826001600160401b038111156110b1576110b1613afa565b6040519080825280602002602001820160405280156110e457816020015b60608152602001906001900390816110cf5790505b50905060005b83811015610db8576111138585838181106111075761110761436d565b905060200201356119de565b8282815181106111255761112561436d565b6020026020010181905250808061113b90614399565b9150506110ea565b60006001600160a01b0382166111ad5760405162461bcd60e51b815260206004820152602960248201527f4552433732313a2061646472657373207a65726f206973206e6f7420612076616044820152683634b21037bbb732b960b91b6064820152608401610a16565b506001600160a01b031660009081526068602052604090205490565b6101f680546111d7906142e5565b80601f0160208091040260200160405190810160405280929190818152602001828054611203906142e5565b80156112505780601f1061122557610100808354040283529160200191611250565b820191906000526020600020905b81548152906001019060200180831161123357829003601f168201915b505050505081565b600080516020614ba6833981519152611270816122be565b60005b855181101561132e5782818151811061128e5761128e61436d565b602002602001015161022860008884815181106112ad576112ad61436d565b6020026020010151815260200190815260200160002060008784815181106112d7576112d761436d565b6020026020010151815260200190815260200160002060008684815181106113015761130161436d565b6020026020010151815260200190815260200160002081905550808061132690614399565b915050611273565b505050505050565b600054610100900460ff16158080156113565750600054600160ff909116105b806113705750303b158015611370575060005460ff166001145b6113d35760405162461bcd60e51b815260206004820152602e60248201527f496e697469616c697a61626c653a20636f6e747261637420697320616c72656160448201526d191e481a5b9a5d1a585b1a5e995960921b6064820152608401610a16565b6000805460ff1916600117905580156113f6576000805461ff0019166101001790555b6114416040518060400160405280600c81526020016b436f736d696320456c76657360a01b81525060405180604001604052806005815260200164454c56455360d81b81525061242d565b61144961245e565b61145161248f565b6114596124b6565b61146161248f565b61146961245e565b6114716124e5565b61147c6000336122c8565b611494600080516020614b86833981519152336122c8565b6114ac600080516020614b66833981519152336122c8565b8015610e5e576000805461ff0019169055604051600181527f7f26b83ff96e1f2b6a682f133852f6798a09c465da95921460cefb38474024989060200160405180910390a150565b600080516020614b8683398151915261150c816122be565b610e5e612514565b6060600061152183611143565b90506000816001600160401b0381111561153d5761153d613afa565b604051908082528060200260200182016040528015611566578160200160208202803683370190505b50905060005b82811015610db85761157e8582610bcb565b8282815181106115905761159061436d565b6020908102919091010152806115a581614399565b91505061156c565b600082815261012d602052604081206115c69083612551565b9392505050565b600091825260fb602090815260408084206001600160a01b0393909316845291905290205460ff1690565b6060606680546108cf906142e5565b6060600082516001600160401b0381111561162457611624613afa565b60405190808252806020026020018201604052801561165757816020015b60608152602001906001900390816116425790505b50905060005b8351811015610db85761022a6000868152602001908152602001600020600085838151811061168e5761168e61436d565b6020026020010151815260200190815260200160002080546116af906142e5565b80601f01602080910402602001604051908101604052809291908181526020018280546116db906142e5565b80156117285780601f106116fd57610100808354040283529160200191611728565b820191906000526020600020905b81548152906001019060200180831161170b57829003601f168201915b505050505082828151811061173f5761173f61436d565b6020026020010181905250808061175590614399565b91505061165d565b610e3a33838361255d565b600080516020614ba6833981519152611780816122be565b6000858152610228602090815260408083208784528252808320868452825291829020849055815186815290810185905290810183905285907fc3bdb5f4a3cbb68ce4ebe3dda3660f3067add044dc5be3a047d818fd416663699060600160405180910390a25050505050565b6117f73383612098565b6118135760405162461bcd60e51b8152600401610a169061431f565b610f328484848461262b565b6060600060015b61271081101561185e576118398161265e565b1561184c578161184881614399565b9250505b8061185681614399565b915050611826565b506000816001600160401b0381111561187957611879613afa565b6040519080825280602002602001820160405280156118a2578160200160208202803683370190505b509050600060015b612710811015611900576118bd8161265e565b156118ee57808383815181106118d5576118d561436d565b6020908102919091010152816118ea81614399565b9250505b806118f881614399565b9150506118aa565b50909392505050565b6060600082516001600160401b0381111561192657611926613afa565b60405190808252806020026020018201604052801561194f578160200160208202803683370190505b50905060005b83518110156119d5576000868152610228602090815260408083208884529091528120855190919086908490811061198f5761198f61436d565b60200260200101518152602001908152602001600020548282815181106119b8576119b861436d565b6020908102919091010152806119cd81614399565b915050611955565b50949350505050565b606061080b82612669565b600081815261012d6020526040812061080b9061267c565b6060611a0e610259612686565b905090565b600082815260fb6020526040902060010154611a2e816122be565b610ab783836122eb565b600080516020614ba6833981519152611a50816122be565b60005b8351811015610f7457828181518110611a6e57611a6e61436d565b602002602001015161022960008781526020019081526020016000206000868481518110611a9e57611a9e61436d565b602002602001015181526020019081526020016000209081611ac091906143f8565b5080611acb81614399565b915050611a53565b600080516020614ba6833981519152611aeb816122be565b60005b835181101561132e57828181518110611b0957611b0961436d565b6020026020010151610228600088815260200190815260200160002060008781526020019081526020016000206000868481518110611b4a57611b4a61436d565b60200260200101518152602001908152602001600020819055508080611b6f90614399565b915050611aee565b600080516020614ba6833981519152611b8f816122be565b600084815261022a602090815260408083208684529091529020611bb383826143f8565b50837fbf91c112c44cd8e958afe3106b290f594b5e23b83fcc88bdb9ac5da7f00be5698484604051611be69291906144b7565b60405180910390a250505050565b60005b8151811015610f3257611c248484848481518110611c1757611c1761436d565b6020026020010151610abc565b80611c2e81614399565b915050611bf7565b60008181526102286020908152604080832083805282528083209091528120546060918115611c83576040518060400160405280600681526020016546656d616c6560d01b815250611ca1565b604051806040016040528060048152602001634d616c6560e01b8152505b611caa85612693565b604051602001611cbb9291906144ec565b60408051808303601f19018152601a8084526103608401909252925060009190816020015b611d0d60405180608001604052806060815260200160608152602001606081526020016000151581525090565b815260200190600190039081611ce057905050905060008315611d3157600b611d34565b60005b60ff16905060005b600b811015611de8576040518060800160405280611d5b600084610811565b815260408051602081810183526000825283015201611dac611d7f846103e8614540565b60008b81526102286020908152604080832083805282528083208884529091529020546103d69087614540565b815260200160001515815250838281518110611dca57611dca61436d565b60200260200101819052508080611de090614399565b915050611d3c565b5060005b6003811015611ed6576040518060800160405280611e0b600384610811565b815260408051602081810183526000825283015201611e4c896003856000928352610228602090815260408085209385529281528284209184525290205490565b15611e7357604051806040016040528060048152602001635472756560e01b815250611e92565b6040518060400160405280600581526020016446616c736560d81b8152505b8152600060209091015283611ea883600b614540565b81518110611eb857611eb861436d565b60200260200101819052508080611ece90614399565b915050611dec565b5060005b600c811015611f86576040518060800160405280611ef9600184610811565b815260408051602081810183526000825283015201611f42611f3d8a6001866000928352610228602090815260408085209385529281528284209184525290205490565b612693565b8152600160209091015283611f5883600e614540565b81518110611f6857611f6861436d565b60200260200101819052508080611f7e90614399565b915050611eda565b50611fb786846040518060400160405280600c81526020016b209021b7b9b6b4b19022b63360a11b81525085612793565b9695505050505050565b600061080b610259836127ed565b600061080b8261280f565b611fe38161265e565b610e5e5760405162461bcd60e51b8152602060048201526018602482015277115490cdcc8c4e881a5b9d985b1a59081d1bdad95b88125160421b6044820152606401610a16565b600081815260696020526040902080546001600160a01b0319166001600160a01b038416908117909155819061205f82611010565b6001600160a01b03167f8c5be1e5ebec7d5bd14f71427d1e84f3dd0314c0f7b2291e5b200ac8c7c3b92560405160405180910390a45050565b6000806120a483611010565b9050806001600160a01b0316846001600160a01b031614806120eb57506001600160a01b038082166000908152606a602090815260408083209388168352929052205460ff165b8061210f5750836001600160a01b03166121048461097b565b6001600160a01b0316145b949350505050565b826001600160a01b031661212a82611010565b6001600160a01b03161461218e5760405162461bcd60e51b815260206004820152602560248201527f4552433732313a207472616e736665722066726f6d20696e636f72726563742060448201526437bbb732b960d91b6064820152608401610a16565b6001600160a01b0382166121f05760405162461bcd60e51b8152602060048201526024808201527f4552433732313a207472616e7366657220746f20746865207a65726f206164646044820152637265737360e01b6064820152608401610a16565b6121fb838383612834565b61220660008261202a565b6001600160a01b038316600090815260686020526040812080546001929061222f908490614553565b90915550506001600160a01b038216600090815260686020526040812080546001929061225d908490614540565b909155505060008181526067602052604080822080546001600160a01b0319166001600160a01b0386811691821790925591518493918716917fddf252ad1be2c89b69c2b068fc378daa952ba7f163c4a11628f55a4df523b3ef91a4505050565b610e5e81336128e7565b6122d2828261294b565b600082815261012d60205260409020610ab790826129d1565b6122f582826129e6565b600082815261012d60205260409020610ab79082612a4d565b612316612a62565b6097805460ff191690557f5db9ee0a495bf2e6ff9c91a7834c1ba4fdd244a5e8aa4e537bd38aeae4b073aa335b6040516001600160a01b03909116815260200160405180910390a1565b610e3a828260405180602001604052806000815250612aab565b60006115c68383612ade565b600061239182611010565b905061239f81600084612834565b6123aa60008361202a565b6001600160a01b03811660009081526068602052604081208054600192906123d3908490614553565b909155505060008281526067602052604080822080546001600160a01b0319169055518391906001600160a01b038416907fddf252ad1be2c89b69c2b068fc378daa952ba7f163c4a11628f55a4df523b3ef908390a45050565b600054610100900460ff166124545760405162461bcd60e51b8152600401610a1690614566565b610e3a8282612b2d565b600054610100900460ff166124855760405162461bcd60e51b8152600401610a1690614566565b61248d61248f565b565b600054610100900460ff1661248d5760405162461bcd60e51b8152600401610a1690614566565b600054610100900460ff166124dd5760405162461bcd60e51b8152600401610a1690614566565b61248d612b6d565b600054610100900460ff1661250c5760405162461bcd60e51b8152600401610a1690614566565b61248d612ba0565b61251c612be7565b6097805460ff191660011790557f62e78cea01bee320cd4e420270b5ea74000d11b0c9f74754ebdbfc544b05a2586123433390565b60006115c68383612c2d565b816001600160a01b0316836001600160a01b0316036125be5760405162461bcd60e51b815260206004820152601960248201527f4552433732313a20617070726f766520746f2063616c6c6572000000000000006044820152606401610a16565b6001600160a01b038381166000818152606a6020908152604080832094871680845294825291829020805460ff191686151590811790915591519182527f17307eab39ab6107e8899845ad3d59bd9653f200f220920489ca2b5937696c31910160405180910390a3505050565b612636848484612117565b61264284848484612c57565b610f325760405162461bcd60e51b8152600401610a16906145b1565b600061080b82612d55565b606061080b61267783611c36565b612d74565b600061080b825490565b606060006115c683612da5565b6060816000036126ba5750506040805180820190915260018152600360fc1b602082015290565b8160005b81156126e457806126ce81614399565b91506126dd9050600a83614619565b91506126be565b6000816001600160401b038111156126fe576126fe613afa565b6040519080825280601f01601f191660200182016040528015612728576020820181803683370190505b5090505b841561210f5761273d600183614553565b915061274a600a8661462d565b612755906030614540565b60f81b81838151811061276a5761276a61436d565b60200101906001600160f81b031916908160001a90535061278c600a86614619565b945061272c565b606060006127a086611010565b905060006101f66127b088612e01565b6040516020016127c1929190614641565b60405160208183030381529060405290506127e2878388848960028a612e0c565b979650505050505050565b6001600160a01b038116600090815260018301602052604081205415156115c6565b60006001600160e01b0319821663780e9d6360e01b148061080b575061080b82612e58565b61283c612be7565b82612849610259826127ed565b1561288c5760405162461bcd60e51b8152602060048201526013602482015272426c61636b6c6973746564206164647265737360681b6044820152606401610a16565b82612899610259826127ed565b156128dc5760405162461bcd60e51b8152602060048201526013602482015272426c61636b6c6973746564206164647265737360681b6044820152606401610a16565b610f74858585612e63565b6128f182826115cd565b610e3a57612909816001600160a01b03166014612e6e565b612914836020612e6e565b6040516020016129259291906146c8565b60408051601f198184030181529082905262461bcd60e51b8252610a1691600401613a4c565b61295582826115cd565b610e3a57600082815260fb602090815260408083206001600160a01b03851684529091529020805460ff1916600117905561298d3390565b6001600160a01b0316816001600160a01b0316837f2f8788117e7eff1d82e926ec794901d17c78024a50270940304540a733656f0d60405160405180910390a45050565b60006115c6836001600160a01b038416612ade565b6129f082826115cd565b15610e3a57600082815260fb602090815260408083206001600160a01b0385168085529252808320805460ff1916905551339285917ff6391f5c32d9c69d2a47ea670b442974b53935d1edc7fd64eb21e047a839171b9190a45050565b60006115c6836001600160a01b038416613009565b60975460ff1661248d5760405162461bcd60e51b815260206004820152601460248201527314185d5cd8589b194e881b9bdd081c185d5cd95960621b6044820152606401610a16565b612ab583836130fc565b612ac26000848484612c57565b610ab75760405162461bcd60e51b8152600401610a16906145b1565b6000818152600183016020526040812054612b255750815460018181018455600084815260208082209093018490558454848252828601909352604090209190915561080b565b50600061080b565b600054610100900460ff16612b545760405162461bcd60e51b8152600401610a1690614566565b6065612b6083826143f8565b506066610ab782826143f8565b600054610100900460ff16612b945760405162461bcd60e51b8152600401610a1690614566565b6097805460ff19169055565b600054610100900460ff16612bc75760405162461bcd60e51b8152600401610a1690614566565b612bcf61248f565b61248d600080516020614ba6833981519152336122c8565b60975460ff161561248d5760405162461bcd60e51b815260206004820152601060248201526f14185d5cd8589b194e881c185d5cd95960821b6044820152606401610a16565b6000826000018281548110612c4457612c4461436d565b9060005260206000200154905092915050565b60006001600160a01b0384163b15612d4d57604051630a85bd0160e11b81526001600160a01b0385169063150b7a0290612c9b90339089908890889060040161473d565b6020604051808303816000875af1925050508015612cd6575060408051601f3d908101601f19168201909252612cd391810190614770565b60015b612d33573d808015612d04576040519150601f19603f3d011682016040523d82523d6000602084013e612d09565b606091505b508051600003612d2b5760405162461bcd60e51b8152600401610a16906145b1565b805181602001fd5b6001600160e01b031916630a85bd0160e11b14905061210f565b50600161210f565b6000818152606760205260408120546001600160a01b0316151561080b565b6060612d7f8261323b565b604051602001612d8f919061478d565b6040516020818303038152906040529050919050565b606081600001805480602002602001604051908101604052809291908181526020018280548015612df557602002820191906000526020600020905b815481526020019060010190808311612de1575b50505050509050919050565b606061080b82612693565b60606000612e1e89898989898961338d565b905080612e2a846133f7565b604051602001612e3b9291906147d2565b604051602081830303815290604052915050979650505050505050565b600061080b82613602565b610ab7838383613627565b60606000612e7d83600261481f565b612e88906002614540565b6001600160401b03811115612e9f57612e9f613afa565b6040519080825280601f01601f191660200182016040528015612ec9576020820181803683370190505b509050600360fc1b81600081518110612ee457612ee461436d565b60200101906001600160f81b031916908160001a905350600f60fb1b81600181518110612f1357612f1361436d565b60200101906001600160f81b031916908160001a9053506000612f3784600261481f565b612f42906001614540565b90505b6001811115612fba576f181899199a1a9b1b9c1cb0b131b232b360811b85600f1660108110612f7657612f7661436d565b1a60f81b828281518110612f8c57612f8c61436d565b60200101906001600160f81b031916908160001a90535060049490941c93612fb38161483e565b9050612f45565b5083156115c65760405162461bcd60e51b815260206004820181905260248201527f537472696e67733a20686578206c656e67746820696e73756666696369656e746044820152606401610a16565b600081815260018301602052604081205480156130f257600061302d600183614553565b855490915060009061304190600190614553565b90508181146130a65760008660000182815481106130615761306161436d565b90600052602060002001549050808760000184815481106130845761308461436d565b6000918252602080832090910192909255918252600188019052604090208390555b85548690806130b7576130b7614855565b60019003818190600052602060002001600090559055856001016000868152602001908152602001600020600090556001935050505061080b565b600091505061080b565b6001600160a01b0382166131525760405162461bcd60e51b815260206004820181905260248201527f4552433732313a206d696e7420746f20746865207a65726f20616464726573736044820152606401610a16565b61315b8161265e565b156131a85760405162461bcd60e51b815260206004820152601c60248201527f4552433732313a20746f6b656e20616c7265616479206d696e746564000000006044820152606401610a16565b6131b460008383612834565b6001600160a01b03821660009081526068602052604081208054600192906131dd908490614540565b909155505060008181526067602052604080822080546001600160a01b0319166001600160a01b03861690811790915590518392907fddf252ad1be2c89b69c2b068fc378daa952ba7f163c4a11628f55a4df523b3ef908290a45050565b6060815160000361325a57505060408051602081019091526000815290565b6000604051806060016040528060408152602001614b2660409139905060006003845160026132899190614540565b6132939190614619565b61329e90600461481f565b6001600160401b038111156132b5576132b5613afa565b6040519080825280601f01601f1916602001820160405280156132df576020820181803683370190505b509050600182016020820185865187015b8082101561334b576003820191508151603f8160121c168501518453600184019350603f81600c1c168501518453600184019350603f8160061c168501518453600184019350603f81168501518453506001830192506132f0565b5050600386510660018114613367576002811461337a57613382565b603d6001830353603d6002830353613382565b603d60018303535b509195945050505050565b60608461339988612693565b84866133ad8a6001600160a01b03166136e1565b6133c78760028111156133c2576133c261486b565b6136f7565b6040516020016133dc96959493929190614881565b60405160208183030381529060405290509695505050505050565b60408051602081019091526000808252606091905b83518110156135d9576000600185516134259190614553565b821461344a57604051806040016040528060018152602001600b60fa1b81525061345b565b604051806020016040528060008152505b905060008583815181106134715761347161436d565b6020026020010151606001516134a057604051806040016040528060018152602001601160f91b8152506134b1565b604051806020016040528060008152505b90506000818785815181106134c8576134c861436d565b602002602001015160400151836040516020016134e7939291906149a0565b6040516020818303038152906040529050600087858151811061350c5761350c61436d565b60200260200101516020015151600014613562578785815181106135325761353261436d565b60200260200101516020015160405160200161354e91906149e3565b604051602081830303815290604052613573565b604051806020016040528060008152505b905060008689878151811061358a5761358a61436d565b6020026020010151600001518385886040516020016135ad959493929190614a28565b6040516020818303038152906040529050809650505050505080806135d190614399565b91505061340c565b50806040516020016135eb9190614ae3565b604051602081830303815290604052915050919050565b60006001600160e01b03198216635a05180f60e01b148061080b575061080b82613795565b6001600160a01b0383166136845761367f816101948054600083815261019560205260408120829055600182018355919091527fa6f1ac7ad7b125ba5a5e1c96b00ad6914f90a503b1ac3d85a9dadbb4c639df920155565b6136a7565b816001600160a01b0316836001600160a01b0316146136a7576136a783826137ba565b6001600160a01b0382166136be57610ab78161385c565b826001600160a01b0316826001600160a01b031614610ab757610ab78282613911565b606061080b6001600160a01b0383166014612e6e565b6060600282600281111561370d5761370d61486b565b146137735760018260028111156137265761372661486b565b1461374e5760405180604001604052806005815260200164045524332360dc1b81525061080b565b604051806040016040528060078152602001664552433131353560c81b81525061080b565b505060408051808201909152600681526545524337323160d01b602082015290565b60006001600160e01b03198216637965db0b60e01b148061080b575061080b82613957565b600060016137c784611143565b6137d19190614553565b60008381526101936020526040902054909150808214613827576001600160a01b038416600090815261019260209081526040808320858452825280832054848452818420819055835261019390915290208190555b506000918252610193602090815260408084208490556001600160a01b03909416835261019281528383209183525290812055565b6101945460009061386f90600190614553565b6000838152610195602052604081205461019480549394509092849081106138995761389961436d565b906000526020600020015490508061019483815481106138bb576138bb61436d565b600091825260208083209091019290925582815261019590915260408082208490558582528120556101948054806138f5576138f5614855565b6001900381819060005260206000200160009055905550505050565b600061391c83611143565b6001600160a01b0390931660009081526101926020908152604080832086845282528083208590559382526101939052919091209190915550565b60006001600160e01b031982166380ac58cd60e01b148061398857506001600160e01b03198216635b5e139f60e01b145b8061080b57506301ffc9a760e01b6001600160e01b031983161461080b565b6001600160e01b031981168114610e5e57600080fd5b6000602082840312156139cf57600080fd5b81356115c6816139a7565b600080604083850312156139ed57600080fd5b50508035926020909101359150565b60005b83811015613a175781810151838201526020016139ff565b50506000910152565b60008151808452613a388160208601602086016139fc565b601f01601f19169290920160200192915050565b6020815260006115c66020830184613a20565b600060208284031215613a7157600080fd5b5035919050565b80356001600160a01b0381168114613a8f57600080fd5b919050565b60008060408385031215613aa757600080fd5b613ab083613a78565b946020939093013593505050565b600080600060608486031215613ad357600080fd5b613adc84613a78565b9250613aea60208501613a78565b9150604084013590509250925092565b634e487b7160e01b600052604160045260246000fd5b604051601f8201601f191681016001600160401b0381118282101715613b3857613b38613afa565b604052919050565b60006001600160401b03821115613b5957613b59613afa565b5060051b60200190565b600082601f830112613b7457600080fd5b81356020613b89613b8483613b40565b613b10565b82815260059290921b84018101918181019086841115613ba857600080fd5b8286015b84811015613bc35780358352918301918301613bac565b509695505050505050565b600060208284031215613be057600080fd5b81356001600160401b03811115613bf657600080fd5b61210f84828501613b63565b6000602080830181845280855180835260408601915060408160051b870101925083870160005b82811015613c5757603f19888603018452613c45858351613a20565b94509285019290850190600101613c29565b5092979650505050505050565b60008060408385031215613c7757600080fd5b82359150613c8760208401613a78565b90509250929050565b60008060408385031215613ca357600080fd5b82356001600160401b03811115613cb957600080fd5b613cc585828601613b63565b95602094909401359450505050565b600080600060608486031215613ce957600080fd5b505081359360208301359350604090920135919050565b60008060408385031215613d1357600080fd5b613d1c83613a78565b915060208301356001600160401b03811115613d3757600080fd5b613d4385828601613b63565b9150509250929050565b60006001600160401b03831115613d6657613d66613afa565b613d79601f8401601f1916602001613b10565b9050828152838383011115613d8d57600080fd5b828260208301376000602084830101529392505050565b600082601f830112613db557600080fd5b6115c683833560208501613d4d565b600080600060608486031215613dd957600080fd5b833592506020840135915060408401356001600160401b03811115613dfd57600080fd5b613e0986828701613da4565b9150509250925092565b600060208284031215613e2557600080fd5b81356001600160401b03811115613e3b57600080fd5b61210f84828501613da4565b60008060208385031215613e5a57600080fd5b82356001600160401b0380821115613e7157600080fd5b818501915085601f830112613e8557600080fd5b813581811115613e9457600080fd5b8660208260051b8501011115613ea957600080fd5b60209290920196919550909350505050565b600060208284031215613ecd57600080fd5b6115c682613a78565b60008060008060808587031215613eec57600080fd5b84356001600160401b0380821115613f0357600080fd5b613f0f88838901613b63565b95506020870135915080821115613f2557600080fd5b613f3188838901613b63565b94506040870135915080821115613f4757600080fd5b613f5388838901613b63565b93506060870135915080821115613f6957600080fd5b50613f7687828801613b63565b91505092959194509250565b6020808252825182820181905260009190848201906040850190845b81811015613fba57835183529284019291840191600101613f9e565b50909695505050505050565b60008060408385031215613fd957600080fd5b8235915060208301356001600160401b03811115613d3757600080fd5b6000806040838503121561400957600080fd5b61401283613a78565b91506020830135801515811461402757600080fd5b809150509250929050565b6000806000806080858703121561404857600080fd5b5050823594602084013594506040840135936060013592509050565b6000806000806080858703121561407a57600080fd5b61408385613a78565b935061409160208601613a78565b92506040850135915060608501356001600160401b038111156140b357600080fd5b8501601f810187136140c457600080fd5b613f7687823560208401613d4d565b6000806000606084860312156140e857600080fd5b833592506020840135915060408401356001600160401b0381111561410c57600080fd5b613e0986828701613b63565b6020808252825182820181905260009190848201906040850190845b81811015613fba5783516001600160a01b031683529284019291840191600101614134565b60008060006060848603121561416e57600080fd5b833592506020808501356001600160401b038082111561418d57600080fd5b61419988838901613b63565b945060408701359150808211156141af57600080fd5b818701915087601f8301126141c357600080fd5b81356141d1613b8482613b40565b81815260059190911b8301840190848101908a8311156141f057600080fd5b8585015b838110156142285780358581111561420c5760008081fd5b61421a8d89838a0101613da4565b8452509186019186016141f4565b508096505050505050509250925092565b6000806000806080858703121561424f57600080fd5b843593506020850135925060408501356001600160401b0380821115613f4757600080fd5b6000806040838503121561428757600080fd5b61429083613a78565b9150613c8760208401613a78565b6000806000606084860312156142b357600080fd5b6142bc84613a78565b92506142ca60208501613a78565b915060408401356001600160401b0381111561410c57600080fd5b600181811c908216806142f957607f821691505b60208210810361431957634e487b7160e01b600052602260045260246000fd5b50919050565b6020808252602e908201527f4552433732313a2063616c6c6572206973206e6f7420746f6b656e206f776e6560408201526d1c881b9bdc88185c1c1c9bdd995960921b606082015260800190565b634e487b7160e01b600052603260045260246000fd5b634e487b7160e01b600052601160045260246000fd5b6000600182016143ab576143ab614383565b5060010190565b601f821115610ab757600081815260208120601f850160051c810160208610156143d95750805b601f850160051c820191505b8181101561132e578281556001016143e5565b81516001600160401b0381111561441157614411613afa565b6144258161441f84546142e5565b846143b2565b602080601f83116001811461445a57600084156144425750858301515b600019600386901b1c1916600185901b17855561132e565b600085815260208120601f198616915b828110156144895788860151825594840194600190910190840161446a565b50858210156144a75787850151600019600388901b60f8161c191681555b5050505050600190811b01905550565b82815260406020820152600061210f6040830184613a20565b600081516144e28185602086016139fc565b9290920192915050565b66021b7b9b6b4b1960cd1b81526000835161450e8160078501602088016139fc565b6520456c66202360d01b600791840191820152835161453481600d8401602088016139fc565b01600d01949350505050565b8082018082111561080b5761080b614383565b8181038181111561080b5761080b614383565b6020808252602b908201527f496e697469616c697a61626c653a20636f6e7472616374206973206e6f74206960408201526a6e697469616c697a696e6760a81b606082015260800190565b60208082526032908201527f4552433732313a207472616e7366657220746f206e6f6e20455243373231526560408201527131b2b4bb32b91034b6b83632b6b2b73a32b960711b606082015260800190565b634e487b7160e01b600052601260045260246000fd5b60008261462857614628614603565b500490565b60008261463c5761463c614603565b500690565b600080845461464f816142e5565b60018281168015614667576001811461467c576146ab565b60ff19841687528215158302870194506146ab565b8860005260208060002060005b858110156146a25781548a820152908401908201614689565b50505082870194505b5050505083516146bf8183602088016139fc565b01949350505050565b7f416363657373436f6e74726f6c3a206163636f756e74200000000000000000008152600083516147008160178501602088016139fc565b7001034b99036b4b9b9b4b733903937b6329607d1b60179184019182015283516147318160288401602088016139fc565b01602801949350505050565b6001600160a01b0385811682528416602082015260408101839052608060608201819052600090611fb790830184613a20565b60006020828403121561478257600080fd5b81516115c6816139a7565b7f646174613a6170706c69636174696f6e2f6a736f6e3b6261736536342c0000008152600082516147c581601d8501602087016139fc565b91909101601d0192915050565b607b60f81b8152600083516147ee8160018501602088016139fc565b8351908301906148058160018401602088016139fc565b607d60f81b60019290910191820152600201949350505050565b600081600019048311821515161561483957614839614383565b500290565b60008161484d5761484d614383565b506000190190565b634e487b7160e01b600052603160045260246000fd5b634e487b7160e01b600052602160045260246000fd5b67113730b6b2911d1160c11b815286516000906148a5816008850160208c016139fc565b61088b60f21b60089184019182018190526a113a37b5b2b724b2111d1160a91b600a83015288516148dd816015850160208d016139fc565b601592019182018190526e113232b9b1b934b83a34b7b7111d1160891b60178301528751614912816026850160208c016139fc565b602692019182015261499361495061498d6149798261497361495e8261494a60288a01681134b6b0b3b2911d1160b91b815260090190565b8e6144d0565b61088b60f21b815260020190565b681137bbb732b9111d1160b91b815260090190565b8a6144d0565b67113a3cb832911d1160c11b815260080190565b866144d0565b9998505050505050505050565b600084516149b28184602089016139fc565b8451908301906149c68183602089016139fc565b84519101906149d98183602088016139fc565b0195945050505050565b6f113234b9b83630bcafba3cb832911d1160811b81528151600090614a0f8160108501602087016139fc565b61088b60f21b6010939091019283015250601201919050565b60008651614a3a818460208b016139fc565b6e3d913a3930b4ba2fba3cb832911d1160891b9083019081528651614a6681600f840160208b016139fc565b61088b60f21b600f92909101918201528551614a89816011840160208a016139fc565b67113b30b63ab2911d60c11b601192909101918201528451614ab28160198401602089016139fc565b607d60f81b601992909101918201528351614ad481601a8401602088016139fc565b01601a01979650505050505050565b6d2261747472696275746573223a5b60901b81528151600090614b0d81600e8501602087016139fc565b605d60f81b600e939091019283015250600f0191905056fe4142434445464748494a4b4c4d4e4f505152535455565758595a6162636465666768696a6b6c6d6e6f707172737475767778797a303132333435363738392b2f9f2df0fed2c77648de5860a4cc508cd0818c85b8b8a1ab4ceeef8d981c8956a6a49807205ce4d355092ef5a8a18f56e8913cf4a201fbe287825b095693c21775364d3d7565c7a8300c96fd53e065d19b65848d7b23b3191adcd55621c744223ca2646970667358221220adfc3706eafeaf4165d751f79073f7a7144215b50886dc599b6896705da54df564736f6c63430008100033",
  "linkReferences": {},
  "deployedLinkReferences": {}
}