{
  "_format": "hh-sol-artifact-1",
  "contractName": "CosmicElves",
  "sourceName": "contracts/upgradeable/ERC721/CosmicElves.sol",
  "abi": [
    {
      "inputs": [],
      "stateMutability": "nonpayable",
      "type": "constructor"
    },
    {
      "anonymous": false,
      "inputs": [
        {
          "indexed": true,
          "internalType": "address",
          "name": "owner",
          "type": "address"
        },
        {
          "indexed": true,
          "internalType": "address",
          "name": "approved",
          "type": "address"
        },
        {
          "indexed": true,
          "internalType": "uint256",
          "name": "tokenId",
          "type": "uint256"
        }
      ],
      "name": "Approval",
      "type": "event"
    },
    {
      "anonymous": false,
      "inputs": [
        {
          "indexed": true,
          "internalType": "address",
          "name": "owner",
          "type": "address"
        },
        {
          "indexed": true,
          "internalType": "address",
          "name": "operator",
          "type": "address"
        },
        {
          "indexed": false,
          "internalType": "bool",
          "name": "approved",
          "type": "bool"
        }
      ],
      "name": "ApprovalForAll",
      "type": "event"
    },
    {
      "anonymous": false,
      "inputs": [
        {
          "indexed": false,
          "internalType": "uint8",
          "name": "version",
          "type": "uint8"
        }
      ],
      "name": "Initialized",
      "type": "event"
    },
    {
      "anonymous": false,
      "inputs": [
        {
          "indexed": false,
          "internalType": "address",
          "name": "account",
          "type": "address"
        }
      ],
      "name": "Paused",
      "type": "event"
    },
    {
      "anonymous": false,
      "inputs": [
        {
          "indexed": true,
          "internalType": "bytes32",
          "name": "role",
          "type": "bytes32"
        },
        {
          "indexed": true,
          "internalType": "bytes32",
          "name": "previousAdminRole",
          "type": "bytes32"
        },
        {
          "indexed": true,
          "internalType": "bytes32",
          "name": "newAdminRole",
          "type": "bytes32"
        }
      ],
      "name": "RoleAdminChanged",
      "type": "event"
    },
    {
      "anonymous": false,
      "inputs": [
        {
          "indexed": true,
          "internalType": "bytes32",
          "name": "role",
          "type": "bytes32"
        },
        {
          "indexed": true,
          "internalType": "address",
          "name": "account",
          "type": "address"
        },
        {
          "indexed": true,
          "internalType": "address",
          "name": "sender",
          "type": "address"
        }
      ],
      "name": "RoleGranted",
      "type": "event"
    },
    {
      "anonymous": false,
      "inputs": [
        {
          "indexed": true,
          "internalType": "bytes32",
          "name": "role",
          "type": "bytes32"
        },
        {
          "indexed": true,
          "internalType": "address",
          "name": "account",
          "type": "address"
        },
        {
          "indexed": true,
          "internalType": "address",
          "name": "sender",
          "type": "address"
        }
      ],
      "name": "RoleRevoked",
      "type": "event"
    },
    {
      "anonymous": false,
      "inputs": [
        {
          "indexed": true,
          "internalType": "uint256",
          "name": "tokenId",
          "type": "uint256"
        },
        {
          "indexed": false,
          "internalType": "uint256",
          "name": "customId",
          "type": "uint256"
        },
        {
          "indexed": false,
          "internalType": "string",
          "name": "value",
          "type": "string"
        }
      ],
      "name": "TextUpdated",
      "type": "event"
    },
    {
      "anonymous": false,
      "inputs": [
        {
          "indexed": true,
          "internalType": "address",
          "name": "from",
          "type": "address"
        },
        {
          "indexed": true,
          "internalType": "address",
          "name": "to",
          "type": "address"
        },
        {
          "indexed": true,
          "internalType": "uint256",
          "name": "tokenId",
          "type": "uint256"
        }
      ],
      "name": "Transfer",
      "type": "event"
    },
    {
      "anonymous": false,
      "inputs": [
        {
          "indexed": false,
          "internalType": "address",
          "name": "account",
          "type": "address"
        }
      ],
      "name": "Unpaused",
      "type": "event"
    },
    {
      "anonymous": false,
      "inputs": [
        {
          "indexed": true,
          "internalType": "uint256",
          "name": "tokenId",
          "type": "uint256"
        },
        {
          "indexed": false,
          "internalType": "uint256",
          "name": "treeId",
          "type": "uint256"
        },
        {
          "indexed": false,
          "internalType": "uint256",
          "name": "skillId",
          "type": "uint256"
        },
        {
          "indexed": false,
          "internalType": "uint256",
          "name": "value",
          "type": "uint256"
        }
      ],
      "name": "ValueUpdated",
      "type": "event"
    },
    {
      "inputs": [],
      "name": "ADMIN_ROLE",
      "outputs": [
        {
          "internalType": "bytes32",
          "name": "",
          "type": "bytes32"
        }
      ],
      "stateMutability": "view",
      "type": "function"
    },
    {
      "inputs": [],
      "name": "CONTRACT_ROLE",
      "outputs": [
        {
          "internalType": "bytes32",
          "name": "",
          "type": "bytes32"
        }
      ],
      "stateMutability": "view",
      "type": "function"
    },
    {
      "inputs": [],
      "name": "DEFAULT_ADMIN_ROLE",
      "outputs": [
        {
          "internalType": "bytes32",
          "name": "",
          "type": "bytes32"
        }
      ],
      "stateMutability": "view",
      "type": "function"
    },
    {
      "inputs": [],
      "name": "MINTER_ROLE",
      "outputs": [
        {
          "internalType": "bytes32",
          "name": "",
          "type": "bytes32"
        }
      ],
      "stateMutability": "view",
      "type": "function"
    },
    {
      "inputs": [
        {
          "internalType": "address",
          "name": "to",
          "type": "address"
        },
        {
          "internalType": "uint256",
          "name": "tokenId",
          "type": "uint256"
        }
      ],
      "name": "approve",
      "outputs": [],
      "stateMutability": "nonpayable",
      "type": "function"
    },
    {
      "inputs": [
        {
          "internalType": "address",
          "name": "owner",
          "type": "address"
        }
      ],
      "name": "balanceOf",
      "outputs": [
        {
          "internalType": "uint256",
          "name": "",
          "type": "uint256"
        }
      ],
      "stateMutability": "view",
      "type": "function"
    },
    {
      "inputs": [
        {
          "internalType": "address",
          "name": "to",
          "type": "address"
        },
        {
          "internalType": "uint256[]",
          "name": "tokenIds",
          "type": "uint256[]"
        }
      ],
      "name": "batchMint",
      "outputs": [],
      "stateMutability": "nonpayable",
      "type": "function"
    },
    {
      "inputs": [
        {
          "internalType": "uint256[]",
          "name": "tokenIds",
          "type": "uint256[]"
        }
      ],
      "name": "batchTokenURI",
      "outputs": [
        {
          "internalType": "string[]",
          "name": "",
          "type": "string[]"
        }
      ],
      "stateMutability": "view",
      "type": "function"
    },
    {
      "inputs": [
        {
          "internalType": "address",
          "name": "from",
          "type": "address"
        },
        {
          "internalType": "address",
          "name": "to",
          "type": "address"
        },
        {
          "internalType": "uint256[]",
          "name": "tokenIds",
          "type": "uint256[]"
        }
      ],
      "name": "batchTransferFrom",
      "outputs": [],
      "stateMutability": "nonpayable",
      "type": "function"
    },
    {
      "inputs": [
        {
          "internalType": "uint256[]",
          "name": "tokenIds",
          "type": "uint256[]"
        },
        {
          "internalType": "uint256[]",
          "name": "treeIds",
          "type": "uint256[]"
        },
        {
          "internalType": "uint256[]",
          "name": "skillIds",
          "type": "uint256[]"
        },
        {
          "internalType": "uint256[]",
          "name": "values",
          "type": "uint256[]"
        }
      ],
      "name": "batchUpdateSkills",
      "outputs": [],
      "stateMutability": "nonpayable",
      "type": "function"
    },
    {
      "inputs": [
        {
          "internalType": "uint256",
          "name": "tokenId",
          "type": "uint256"
        },
        {
          "internalType": "uint256",
          "name": "treeId",
          "type": "uint256"
        },
        {
          "internalType": "uint256[]",
          "name": "skillIds",
          "type": "uint256[]"
        },
        {
          "internalType": "uint256[]",
          "name": "values",
          "type": "uint256[]"
        }
      ],
      "name": "batchUpdateSkillsOfToken",
      "outputs": [],
      "stateMutability": "nonpayable",
      "type": "function"
    },
    {
      "inputs": [
        {
          "internalType": "uint256",
          "name": "tokenId",
          "type": "uint256"
        }
      ],
      "name": "burn",
      "outputs": [],
      "stateMutability": "nonpayable",
      "type": "function"
    },
    {
      "inputs": [],
      "name": "getAllTokenIds",
      "outputs": [
        {
          "internalType": "uint256[]",
          "name": "",
          "type": "uint256[]"
        }
      ],
      "stateMutability": "view",
      "type": "function"
    },
    {
      "inputs": [
        {
          "internalType": "uint256",
          "name": "tokenId",
          "type": "uint256"
        }
      ],
      "name": "getApproved",
      "outputs": [
        {
          "internalType": "address",
          "name": "",
          "type": "address"
        }
      ],
      "stateMutability": "view",
      "type": "function"
    },
    {
      "inputs": [],
      "name": "getBlacklisted",
      "outputs": [
        {
          "internalType": "address[]",
          "name": "",
          "type": "address[]"
        }
      ],
      "stateMutability": "view",
      "type": "function"
    },
    {
      "inputs": [
        {
          "internalType": "bytes32",
          "name": "role",
          "type": "bytes32"
        }
      ],
      "name": "getRoleAdmin",
      "outputs": [
        {
          "internalType": "bytes32",
          "name": "",
          "type": "bytes32"
        }
      ],
      "stateMutability": "view",
      "type": "function"
    },
    {
      "inputs": [
        {
          "internalType": "bytes32",
          "name": "role",
          "type": "bytes32"
        },
        {
          "internalType": "uint256",
          "name": "index",
          "type": "uint256"
        }
      ],
      "name": "getRoleMember",
      "outputs": [
        {
          "internalType": "address",
          "name": "",
          "type": "address"
        }
      ],
      "stateMutability": "view",
      "type": "function"
    },
    {
      "inputs": [
        {
          "internalType": "bytes32",
          "name": "role",
          "type": "bytes32"
        }
      ],
      "name": "getRoleMemberCount",
      "outputs": [
        {
          "internalType": "uint256",
          "name": "",
          "type": "uint256"
        }
      ],
      "stateMutability": "view",
      "type": "function"
    },
    {
      "inputs": [
        {
          "internalType": "uint256",
          "name": "tokenId",
          "type": "uint256"
        },
        {
          "internalType": "uint256",
          "name": "treeId",
          "type": "uint256"
        },
        {
          "internalType": "uint256",
          "name": "skillId",
          "type": "uint256"
        }
      ],
      "name": "getSkill",
      "outputs": [
        {
          "internalType": "uint256",
          "name": "",
          "type": "uint256"
        }
      ],
      "stateMutability": "view",
      "type": "function"
    },
    {
      "inputs": [
        {
          "internalType": "uint256",
          "name": "treeId",
          "type": "uint256"
        },
        {
          "internalType": "uint256",
          "name": "skillId",
          "type": "uint256"
        }
      ],
      "name": "getSkillName",
      "outputs": [
        {
          "internalType": "string",
          "name": "",
          "type": "string"
        }
      ],
      "stateMutability": "view",
      "type": "function"
    },
    {
      "inputs": [
        {
          "internalType": "uint256",
          "name": "tokenId",
          "type": "uint256"
        },
        {
          "internalType": "uint256",
          "name": "treeId",
          "type": "uint256"
        },
        {
          "internalType": "uint256[]",
          "name": "skillIds",
          "type": "uint256[]"
        }
      ],
      "name": "getSkillsByTree",
      "outputs": [
        {
          "internalType": "uint256[]",
          "name": "",
          "type": "uint256[]"
        }
      ],
      "stateMutability": "view",
      "type": "function"
    },
    {
      "inputs": [
        {
          "internalType": "uint256",
          "name": "tokenId",
          "type": "uint256"
        },
        {
          "internalType": "uint256",
          "name": "customId",
          "type": "uint256"
        }
      ],
      "name": "getString",
      "outputs": [
        {
          "internalType": "string",
          "name": "",
          "type": "string"
        }
      ],
      "stateMutability": "view",
      "type": "function"
    },
    {
      "inputs": [
        {
          "internalType": "uint256[]",
          "name": "tokenIds",
          "type": "uint256[]"
        },
        {
          "internalType": "uint256",
          "name": "customId",
          "type": "uint256"
        }
      ],
      "name": "getStringOfTokens",
      "outputs": [
        {
          "internalType": "string[]",
          "name": "",
          "type": "string[]"
        }
      ],
      "stateMutability": "view",
      "type": "function"
    },
    {
      "inputs": [
        {
          "internalType": "uint256",
          "name": "tokenId",
          "type": "uint256"
        },
        {
          "internalType": "uint256[]",
          "name": "customIds",
          "type": "uint256[]"
        }
      ],
      "name": "getStrings",
      "outputs": [
        {
          "internalType": "string[]",
          "name": "",
          "type": "string[]"
        }
      ],
      "stateMutability": "view",
      "type": "function"
    },
    {
      "inputs": [
        {
          "internalType": "bytes32",
          "name": "role",
          "type": "bytes32"
        },
        {
          "internalType": "address",
          "name": "account",
          "type": "address"
        }
      ],
      "name": "grantRole",
      "outputs": [],
      "stateMutability": "nonpayable",
      "type": "function"
    },
    {
      "inputs": [
        {
          "internalType": "bytes32",
          "name": "role",
          "type": "bytes32"
        },
        {
          "internalType": "address",
          "name": "account",
          "type": "address"
        }
      ],
      "name": "hasRole",
      "outputs": [
        {
          "internalType": "bool",
          "name": "",
          "type": "bool"
        }
      ],
      "stateMutability": "view",
      "type": "function"
    },
    {
      "inputs": [],
      "name": "imageBaseURI",
      "outputs": [
        {
          "internalType": "string",
          "name": "",
          "type": "string"
        }
      ],
      "stateMutability": "view",
      "type": "function"
    },
    {
      "inputs": [],
      "name": "initialize",
      "outputs": [],
      "stateMutability": "nonpayable",
      "type": "function"
    },
    {
      "inputs": [
        {
          "internalType": "address",
          "name": "owner",
          "type": "address"
        },
        {
          "internalType": "address",
          "name": "operator",
          "type": "address"
        }
      ],
      "name": "isApprovedForAll",
      "outputs": [
        {
          "internalType": "bool",
          "name": "",
          "type": "bool"
        }
      ],
      "stateMutability": "view",
      "type": "function"
    },
    {
      "inputs": [
        {
          "internalType": "address",
          "name": "user",
          "type": "address"
        }
      ],
      "name": "isBlacklisted",
      "outputs": [
        {
          "internalType": "bool",
          "name": "",
          "type": "bool"
        }
      ],
      "stateMutability": "view",
      "type": "function"
    },
    {
      "inputs": [
        {
          "internalType": "address",
          "name": "to",
          "type": "address"
        },
        {
          "internalType": "uint256",
          "name": "tokenId",
          "type": "uint256"
        }
      ],
      "name": "mint",
      "outputs": [],
      "stateMutability": "nonpayable",
      "type": "function"
    },
    {
      "inputs": [],
      "name": "name",
      "outputs": [
        {
          "internalType": "string",
          "name": "",
          "type": "string"
        }
      ],
      "stateMutability": "view",
      "type": "function"
    },
    {
      "inputs": [
        {
          "internalType": "uint256",
          "name": "tokenId",
          "type": "uint256"
        }
      ],
      "name": "ownerOf",
      "outputs": [
        {
          "internalType": "address",
          "name": "",
          "type": "address"
        }
      ],
      "stateMutability": "view",
      "type": "function"
    },
    {
      "inputs": [],
      "name": "pause",
      "outputs": [],
      "stateMutability": "nonpayable",
      "type": "function"
    },
    {
      "inputs": [],
      "name": "paused",
      "outputs": [
        {
          "internalType": "bool",
          "name": "",
          "type": "bool"
        }
      ],
      "stateMutability": "view",
      "type": "function"
    },
    {
      "inputs": [
        {
          "internalType": "bytes32",
          "name": "role",
          "type": "bytes32"
        },
        {
          "internalType": "address",
          "name": "account",
          "type": "address"
        }
      ],
      "name": "renounceRole",
      "outputs": [],
      "stateMutability": "nonpayable",
      "type": "function"
    },
    {
      "inputs": [
        {
          "internalType": "bytes32",
          "name": "role",
          "type": "bytes32"
        },
        {
          "internalType": "address",
          "name": "account",
          "type": "address"
        }
      ],
      "name": "revokeRole",
      "outputs": [],
      "stateMutability": "nonpayable",
      "type": "function"
    },
    {
      "inputs": [
        {
          "internalType": "address",
          "name": "from",
          "type": "address"
        },
        {
          "internalType": "address",
          "name": "to",
          "type": "address"
        },
        {
          "internalType": "uint256",
          "name": "tokenId",
          "type": "uint256"
        }
      ],
      "name": "safeTransferFrom",
      "outputs": [],
      "stateMutability": "nonpayable",
      "type": "function"
    },
    {
      "inputs": [
        {
          "internalType": "address",
          "name": "from",
          "type": "address"
        },
        {
          "internalType": "address",
          "name": "to",
          "type": "address"
        },
        {
          "internalType": "uint256",
          "name": "tokenId",
          "type": "uint256"
        },
        {
          "internalType": "bytes",
          "name": "data",
          "type": "bytes"
        }
      ],
      "name": "safeTransferFrom",
      "outputs": [],
      "stateMutability": "nonpayable",
      "type": "function"
    },
    {
      "inputs": [
        {
          "internalType": "address",
          "name": "operator",
          "type": "address"
        },
        {
          "internalType": "bool",
          "name": "approved",
          "type": "bool"
        }
      ],
      "name": "setApprovalForAll",
      "outputs": [],
      "stateMutability": "nonpayable",
      "type": "function"
    },
    {
      "inputs": [
        {
          "internalType": "string",
          "name": "_imageBaseURI",
          "type": "string"
        }
      ],
      "name": "setImageBaseURI",
      "outputs": [],
      "stateMutability": "nonpayable",
      "type": "function"
    },
    {
      "inputs": [
        {
          "internalType": "uint256",
          "name": "treeId",
          "type": "uint256"
        },
        {
          "internalType": "uint256",
          "name": "skillId",
          "type": "uint256"
        },
        {
          "internalType": "string",
          "name": "name",
          "type": "string"
        }
      ],
      "name": "setSkillName",
      "outputs": [],
      "stateMutability": "nonpayable",
      "type": "function"
    },
    {
      "inputs": [
        {
          "internalType": "bytes4",
          "name": "interfaceId",
          "type": "bytes4"
        }
      ],
      "name": "supportsInterface",
      "outputs": [
        {
          "internalType": "bool",
          "name": "",
          "type": "bool"
        }
      ],
      "stateMutability": "view",
      "type": "function"
    },
    {
      "inputs": [],
      "name": "symbol",
      "outputs": [
        {
          "internalType": "string",
          "name": "",
          "type": "string"
        }
      ],
      "stateMutability": "view",
      "type": "function"
    },
    {
      "inputs": [
        {
          "internalType": "uint256",
          "name": "index",
          "type": "uint256"
        }
      ],
      "name": "tokenByIndex",
      "outputs": [
        {
          "internalType": "uint256",
          "name": "",
          "type": "uint256"
        }
      ],
      "stateMutability": "view",
      "type": "function"
    },
    {
      "inputs": [
        {
          "internalType": "address",
          "name": "owner",
          "type": "address"
        },
        {
          "internalType": "uint256",
          "name": "index",
          "type": "uint256"
        }
      ],
      "name": "tokenOfOwnerByIndex",
      "outputs": [
        {
          "internalType": "uint256",
          "name": "",
          "type": "uint256"
        }
      ],
      "stateMutability": "view",
      "type": "function"
    },
    {
      "inputs": [
        {
          "internalType": "uint256",
          "name": "tokenId",
          "type": "uint256"
        }
      ],
      "name": "tokenURI",
      "outputs": [
        {
          "internalType": "string",
          "name": "",
          "type": "string"
        }
      ],
      "stateMutability": "view",
      "type": "function"
    },
    {
      "inputs": [
        {
          "internalType": "address",
          "name": "owner",
          "type": "address"
        }
      ],
      "name": "tokensOfOwner",
      "outputs": [
        {
          "internalType": "uint256[]",
          "name": "",
          "type": "uint256[]"
        }
      ],
      "stateMutability": "view",
      "type": "function"
    },
    {
      "inputs": [],
      "name": "totalSupply",
      "outputs": [
        {
          "internalType": "uint256",
          "name": "",
          "type": "uint256"
        }
      ],
      "stateMutability": "view",
      "type": "function"
    },
    {
      "inputs": [
        {
          "internalType": "address",
          "name": "from",
          "type": "address"
        },
        {
          "internalType": "address",
          "name": "to",
          "type": "address"
        },
        {
          "internalType": "uint256",
          "name": "tokenId",
          "type": "uint256"
        }
      ],
      "name": "transferFrom",
      "outputs": [],
      "stateMutability": "nonpayable",
      "type": "function"
    },
    {
      "inputs": [],
      "name": "unpause",
      "outputs": [],
      "stateMutability": "nonpayable",
      "type": "function"
    },
    {
      "inputs": [
        {
          "internalType": "uint256",
          "name": "tokenId",
          "type": "uint256"
        },
        {
          "internalType": "uint256",
          "name": "treeId",
          "type": "uint256"
        },
        {
          "internalType": "uint256",
          "name": "skillId",
          "type": "uint256"
        },
        {
          "internalType": "uint256",
          "name": "value",
          "type": "uint256"
        }
      ],
      "name": "updateSkill",
      "outputs": [],
      "stateMutability": "nonpayable",
      "type": "function"
    },
    {
      "inputs": [
        {
          "internalType": "uint256",
          "name": "tokenId",
          "type": "uint256"
        },
        {
          "internalType": "uint256",
          "name": "customId",
          "type": "uint256"
        },
        {
          "internalType": "string",
          "name": "value",
          "type": "string"
        }
      ],
      "name": "updateString",
      "outputs": [],
      "stateMutability": "nonpayable",
      "type": "function"
    }
  ],
  "bytecode": "0x60806040523480156200001157600080fd5b506200001c62000022565b620000e4565b600054610100900460ff16156200008f5760405162461bcd60e51b815260206004820152602760248201527f496e697469616c697a61626c653a20636f6e747261637420697320696e697469604482015266616c697a696e6760c81b606482015260840160405180910390fd5b60005460ff9081161015620000e2576000805460ff191660ff9081179091556040519081527f7f26b83ff96e1f2b6a682f133852f6798a09c465da95921460cefb38474024989060200160405180910390a15b565b6143b280620000f46000396000f3fe608060405234801561001057600080fd5b50600436106103275760003560e01c806370a08231116101b8578063b5afb12011610104578063d5391393116100a2578063e985e9c51161007c578063e985e9c514610701578063ed0af2091461073d578063f3993d1114610750578063fe575a871461076357600080fd5b8063d5391393146106c6578063d547741f146106db578063e2862b6b146106ee57600080fd5b8063c7e05590116100de578063c7e0559014610678578063c87b56dd1461068b578063ca15c8731461069e578063ce3675ad146106b157600080fd5b8063b5afb1201461064a578063b88d4fde1461065d578063bdbed7221461067057600080fd5b80638462151c1161017157806395d89b411161014b57806395d89b41146106145780639e8afe471461061c578063a217fddf1461062f578063a22cb4651461063757600080fd5b80638462151c146105ce5780639010d07c146105ee57806391d148541461060157600080fd5b806370a082311461057b57806375b238fc1461058e57806377645839146105a35780637efa1902146105ab5780638129fc1c146105be5780638456cb59146105c657600080fd5b806336568abe116102775780634684d7e9116102305780635c975abb1161020a5780635c975abb146105375780636352211e146105425780636cfa24cc146105555780636d94f13a1461056857600080fd5b80634684d7e9146104fe5780634b5f4fe6146105115780634f6ccce71461052457600080fd5b806336568abe146104775780633f4ba83a1461048a57806340c10f191461049257806342842e0e146104a557806342966c68146104b85780634594762a146104cb57600080fd5b8063095ea7b3116102e4578063248a9ca3116102be578063248a9ca31461040e5780632f2ff15d146104315780632f745c5914610444578063352b75331461045757600080fd5b8063095ea7b3146103dd57806318160ddd146103f257806323b872dd146103fb57600080fd5b806301ffc9a71461032c57806303fe46ab1461035457806306b674441461037757806306fdde0314610397578063079be4931461039f578063081812fc146103b2575b600080fd5b61033f61033a366004613467565b610776565b60405190151581526020015b60405180910390f35b61036960008051602061435d83398151915281565b60405190815260200161034b565b61038a610385366004613484565b610787565b60405161034b91906134fe565b61038a610836565b61038a6103ad366004613484565b6108c8565b6103c56103c0366004613511565b6108f1565b6040516001600160a01b03909116815260200161034b565b6103f06103eb366004613546565b610918565b005b61019454610369565b6103f0610409366004613570565b610a33565b61036961041c366004613511565b600090815260fb602052604090206001015490565b6103f061043f3660046135ac565b610a65565b610369610452366004613546565b610a8a565b61046a61046536600461369d565b610b21565b60405161034b91906136e1565b6103f06104853660046135ac565b610c7f565b6103f0610cfd565b6103f06104a0366004613546565b610d20565b6103f06104b3366004613570565b610d42565b6103f06104c6366004613511565b610d5d565b6103696104d9366004613743565b6000928352610228602090815260408085209385529281528284209184525290205490565b6103f061050c36600461376f565b610d98565b6103f061051f366004613833565b610df7565b610369610532366004613511565b610e3e565b60975460ff1661033f565b6103c5610550366004613511565b610ed3565b6103f0610563366004613882565b610f33565b61046a6105763660046138b6565b610f54565b6103696105893660046138ea565b61100c565b61036960008051602061433d83398151915281565b61038a611092565b6103f06105b9366004613905565b611121565b6103f06111ff565b6103f06113bd565b6105e16105dc3660046138ea565b6113dd565b60405161034b91906139b1565b6103c56105fc366004613484565b611476565b61033f61060f3660046135ac565b611496565b61038a6114c1565b61046a61062a3660046139f5565b6114d0565b610369600081565b6103f0610645366004613a25565b611626565b6103f0610658366004613a61565b611631565b6103f061066b366004613a93565b6116b6565b6105e16116e8565b6105e1610686366004613b02565b6117d2565b61038a610699366004613511565b6118a7565b6103696106ac366004613511565b611a72565b6106b9611a8a565b60405161034b9190613b47565b61036960008051602061431d83398151915281565b6103f06106e93660046135ac565b611a9c565b6103f06106fc366004613b88565b611ac1565b61033f61070f366004613bc3565b6001600160a01b039182166000908152606a6020908152604080832093909416825291909152205460ff1690565b6103f061074b366004613833565b611b65565b6103f061075e366004613bed565b611be6565b61033f6107713660046138ea565b611c28565b600061078182611c36565b92915050565b60008281526102296020908152604080832084845290915290208054606091906107b090613c34565b80601f01602080910402602001604051908101604052809291908181526020018280546107dc90613c34565b80156108295780601f106107fe57610100808354040283529160200191610829565b820191906000526020600020905b81548152906001019060200180831161080c57829003601f168201915b5050505050905092915050565b60606065805461084590613c34565b80601f016020809104026020016040519081016040528092919081815260200182805461087190613c34565b80156108be5780601f10610893576101008083540402835291602001916108be565b820191906000526020600020905b8154815290600101906020018083116108a157829003601f168201915b5050505050905090565b600082815261022a6020908152604080832084845290915290208054606091906107b090613c34565b60006108fc82611c41565b506000908152606960205260409020546001600160a01b031690565b600061092382610ed3565b9050806001600160a01b0316836001600160a01b031614156109965760405162461bcd60e51b815260206004820152602160248201527f4552433732313a20617070726f76616c20746f2063757272656e74206f776e656044820152603960f91b60648201526084015b60405180910390fd5b336001600160a01b03821614806109b257506109b2813361070f565b610a245760405162461bcd60e51b815260206004820152603e60248201527f4552433732313a20617070726f76652063616c6c6572206973206e6f7420746f60448201527f6b656e206f776e6572206e6f7220617070726f76656420666f7220616c6c0000606482015260840161098d565b610a2e8383611c91565b505050565b610a3e335b82611cff565b610a5a5760405162461bcd60e51b815260040161098d90613c6f565b610a2e838383611d7e565b600082815260fb6020526040902060010154610a8081611f25565b610a2e8383611f2f565b6000610a958361100c565b8210610af75760405162461bcd60e51b815260206004820152602b60248201527f455243373231456e756d657261626c653a206f776e657220696e646578206f7560448201526a74206f6620626f756e647360a81b606482015260840161098d565b506001600160a01b0391909116600090815261019260209081526040808320938352929052205490565b6060600083516001600160401b03811115610b3e57610b3e6135d8565b604051908082528060200260200182016040528015610b7157816020015b6060815260200190600190039081610b5c5790505b50905060005b8451811015610c775761022a6000868381518110610b9757610b97613cbd565b6020026020010151815260200190815260200160002060008581526020019081526020016000208054610bc990613c34565b80601f0160208091040260200160405190810160405280929190818152602001828054610bf590613c34565b8015610c425780601f10610c1757610100808354040283529160200191610c42565b820191906000526020600020905b815481529060010190602001808311610c2557829003601f168201915b5050505050828281518110610c5957610c59613cbd565b60200260200101819052508080610c6f90613ce9565b915050610b77565b509392505050565b6001600160a01b0381163314610cef5760405162461bcd60e51b815260206004820152602f60248201527f416363657373436f6e74726f6c3a2063616e206f6e6c792072656e6f756e636560448201526e103937b632b9903337b91039b2b63360891b606482015260840161098d565b610cf98282611f52565b5050565b60008051602061433d833981519152610d1581611f25565b610d1d611f75565b50565b60008051602061431d833981519152610d3881611f25565b610a2e8383611fc7565b610a2e838383604051806020016040528060008152506116b6565b610d6633610a38565b610d825760405162461bcd60e51b815260040161098d90613c6f565b610d8e61015f82611fe1565b50610d1d81611fed565b60008051602061431d833981519152610db081611f25565b60005b8251811015610df157610ddf84848381518110610dd257610dd2613cbd565b6020026020010151611fc7565b80610de981613ce9565b915050610db3565b50505050565b60008051602061435d833981519152610e0f81611f25565b60008481526102296020908152604080832086845282529091208351610e37928501906133b8565b5050505050565b6000610e4a6101945490565b8210610ead5760405162461bcd60e51b815260206004820152602c60248201527f455243373231456e756d657261626c653a20676c6f62616c20696e646578206f60448201526b7574206f6620626f756e647360a01b606482015260840161098d565b6101948281548110610ec157610ec1613cbd565b90600052602060002001549050919050565b6000818152606760205260408120546001600160a01b0316806107815760405162461bcd60e51b8152602060048201526018602482015277115490cdcc8c4e881a5b9d985b1a59081d1bdad95b88125160421b604482015260640161098d565b60008051602061433d833981519152610f4b81611f25565b610cf982612094565b6060600082516001600160401b03811115610f7157610f716135d8565b604051908082528060200260200182016040528015610fa457816020015b6060815260200190600190039081610f8f5790505b50905060005b835181101561100557610fd5848281518110610fc857610fc8613cbd565b60200260200101516118a7565b828281518110610fe757610fe7613cbd565b60200260200101819052508080610ffd90613ce9565b915050610faa565b5092915050565b60006001600160a01b0382166110765760405162461bcd60e51b815260206004820152602960248201527f4552433732313a2061646472657373207a65726f206973206e6f7420612076616044820152683634b21037bbb732b960b91b606482015260840161098d565b506001600160a01b031660009081526068602052604090205490565b6101f680546110a090613c34565b80601f01602080910402602001604051908101604052809291908181526020018280546110cc90613c34565b80156111195780601f106110ee57610100808354040283529160200191611119565b820191906000526020600020905b8154815290600101906020018083116110fc57829003601f168201915b505050505081565b60008051602061435d83398151915261113981611f25565b60005b85518110156111f75782818151811061115757611157613cbd565b6020026020010151610228600088848151811061117657611176613cbd565b6020026020010151815260200190815260200160002060008784815181106111a0576111a0613cbd565b6020026020010151815260200190815260200160002060008684815181106111ca576111ca613cbd565b602002602001015181526020019081526020016000208190555080806111ef90613ce9565b91505061113c565b505050505050565b600054610100900460ff161580801561121f5750600054600160ff909116105b806112395750303b158015611239575060005460ff166001145b61129c5760405162461bcd60e51b815260206004820152602e60248201527f496e697469616c697a61626c653a20636f6e747261637420697320616c72656160448201526d191e481a5b9a5d1a585b1a5e995960921b606482015260840161098d565b6000805460ff1916600117905580156112bf576000805461ff0019166101001790555b61130a6040518060400160405280600c81526020016b436f736d696320456c76657360a01b81525060405180604001604052806005815260200164454c56455360d81b8152506120a8565b6113126120d9565b61131a61210a565b611322612131565b61132a61210a565b6113326120d9565b61133a612160565b611345600033611f2f565b61135d60008051602061433d83398151915233611f2f565b61137560008051602061431d83398151915233611f2f565b8015610d1d576000805461ff0019169055604051600181527f7f26b83ff96e1f2b6a682f133852f6798a09c465da95921460cefb38474024989060200160405180910390a150565b60008051602061433d8339815191526113d581611f25565b610d1d61218f565b606060006113ea8361100c565b90506000816001600160401b03811115611406576114066135d8565b60405190808252806020026020018201604052801561142f578160200160208202803683370190505b50905060005b82811015610c77576114478582610a8a565b82828151811061145957611459613cbd565b60209081029190910101528061146e81613ce9565b915050611435565b600082815261012d6020526040812061148f90836121cc565b9392505050565b600091825260fb602090815260408084206001600160a01b0393909316845291905290205460ff1690565b60606066805461084590613c34565b6060600082516001600160401b038111156114ed576114ed6135d8565b60405190808252806020026020018201604052801561152057816020015b606081526020019060019003908161150b5790505b50905060005b8351811015610c775761022a6000868152602001908152602001600020600085838151811061155757611557613cbd565b60200260200101518152602001908152602001600020805461157890613c34565b80601f01602080910402602001604051908101604052809291908181526020018280546115a490613c34565b80156115f15780601f106115c6576101008083540402835291602001916115f1565b820191906000526020600020905b8154815290600101906020018083116115d457829003601f168201915b505050505082828151811061160857611608613cbd565b6020026020010181905250808061161e90613ce9565b915050611526565b610cf93383836121d8565b60008051602061435d83398151915261164981611f25565b6000858152610228602090815260408083208784528252808320868452825291829020849055815186815290810185905290810183905285907fc3bdb5f4a3cbb68ce4ebe3dda3660f3067add044dc5be3a047d818fd416663699060600160405180910390a25050505050565b6116c03383611cff565b6116dc5760405162461bcd60e51b815260040161098d90613c6f565b610df1848484846122a7565b6060600060015b61271081101561172757611702816122da565b15611715578161171181613ce9565b9250505b8061171f81613ce9565b9150506116ef565b506000816001600160401b03811115611742576117426135d8565b60405190808252806020026020018201604052801561176b578160200160208202803683370190505b509050600060015b6127108110156117c957611786816122da565b156117b7578083838151811061179e5761179e613cbd565b6020908102919091010152816117b381613ce9565b9250505b806117c181613ce9565b915050611773565b50909392505050565b6060600082516001600160401b038111156117ef576117ef6135d8565b604051908082528060200260200182016040528015611818578160200160208202803683370190505b50905060005b835181101561189e576000868152610228602090815260408083208884529091528120855190919086908490811061185857611858613cbd565b602002602001015181526020019081526020016000205482828151811061188157611881613cbd565b60209081029190910101528061189681613ce9565b91505061181e565b50949350505050565b600081815261022860209081526040808320838052825280832090915281205460609190156118f4576040518060400160405280600681526020016546656d616c6560d01b815250611912565b604051806040016040528060048152602001634d616c6560e01b8152505b90506000816040516020016119279190613d20565b60408051808303601f19018152600b8084526101808401909252925060009190816020015b61197960405180608001604052806060815260200160608152602001606081526020016000151581525090565b81526020019060019003908161194c57905050905060005b600b811015611a2d5760405180608001604052806119b0600084610787565b815260408051602081810183526000808352818501929092528a8252610228815282822082805281528282208683529052819020549101906119f1906122e5565b815260200160001515815250828281518110611a0f57611a0f613cbd565b60200260200101819052508080611a2590613ce9565b915050611991565b50611a698583611a3e8860006108c8565b6040518060400160405280600c81526020016b209021b7b9b6b4b19022b63360a11b815250856123e2565b95945050505050565b600081815261012d6020526040812061078190612430565b6060611a9761025961243a565b905090565b600082815260fb6020526040902060010154611ab781611f25565b610a2e8383611f52565b60008051602061435d833981519152611ad981611f25565b60005b83518110156111f757828181518110611af757611af7613cbd565b6020026020010151610228600088815260200190815260200160002060008781526020019081526020016000206000868481518110611b3857611b38613cbd565b60200260200101518152602001908152602001600020819055508080611b5d90613ce9565b915050611adc565b60008051602061435d833981519152611b7d81611f25565b600084815261022a6020908152604080832086845282529091208351611ba5928501906133b8565b50837fbf91c112c44cd8e958afe3106b290f594b5e23b83fcc88bdb9ac5da7f00be5698484604051611bd8929190613d5d565b60405180910390a250505050565b60005b8151811015610df157611c168484848481518110611c0957611c09613cbd565b6020026020010151610a33565b80611c2081613ce9565b915050611be9565b600061078161025983612447565b600061078182612469565b611c4a816122da565b610d1d5760405162461bcd60e51b8152602060048201526018602482015277115490cdcc8c4e881a5b9d985b1a59081d1bdad95b88125160421b604482015260640161098d565b600081815260696020526040902080546001600160a01b0319166001600160a01b0384169081179091558190611cc682610ed3565b6001600160a01b03167f8c5be1e5ebec7d5bd14f71427d1e84f3dd0314c0f7b2291e5b200ac8c7c3b92560405160405180910390a45050565b600080611d0b83610ed3565b9050806001600160a01b0316846001600160a01b03161480611d5257506001600160a01b038082166000908152606a602090815260408083209388168352929052205460ff165b80611d765750836001600160a01b0316611d6b846108f1565b6001600160a01b0316145b949350505050565b826001600160a01b0316611d9182610ed3565b6001600160a01b031614611df55760405162461bcd60e51b815260206004820152602560248201527f4552433732313a207472616e736665722066726f6d20696e636f72726563742060448201526437bbb732b960d91b606482015260840161098d565b6001600160a01b038216611e575760405162461bcd60e51b8152602060048201526024808201527f4552433732313a207472616e7366657220746f20746865207a65726f206164646044820152637265737360e01b606482015260840161098d565b611e6283838361248e565b611e6d600082611c91565b6001600160a01b0383166000908152606860205260408120805460019290611e96908490613d76565b90915550506001600160a01b0382166000908152606860205260408120805460019290611ec4908490613d8d565b909155505060008181526067602052604080822080546001600160a01b0319166001600160a01b0386811691821790925591518493918716917fddf252ad1be2c89b69c2b068fc378daa952ba7f163c4a11628f55a4df523b3ef91a4505050565b610d1d8133612541565b611f3982826125a5565b600082815261012d60205260409020610a2e908261262b565b611f5c8282612640565b600082815261012d60205260409020610a2e90826126a7565b611f7d6126bc565b6097805460ff191690557f5db9ee0a495bf2e6ff9c91a7834c1ba4fdd244a5e8aa4e537bd38aeae4b073aa335b6040516001600160a01b03909116815260200160405180910390a1565b610cf9828260405180602001604052806000815250612705565b600061148f8383612738565b6000611ff882610ed3565b90506120068160008461248e565b612011600083611c91565b6001600160a01b038116600090815260686020526040812080546001929061203a908490613d76565b909155505060008281526067602052604080822080546001600160a01b0319169055518391906001600160a01b038416907fddf252ad1be2c89b69c2b068fc378daa952ba7f163c4a11628f55a4df523b3ef908390a45050565b8051610cf9906101f69060208401906133b8565b600054610100900460ff166120cf5760405162461bcd60e51b815260040161098d90613da5565b610cf98282612787565b600054610100900460ff166121005760405162461bcd60e51b815260040161098d90613da5565b61210861210a565b565b600054610100900460ff166121085760405162461bcd60e51b815260040161098d90613da5565b600054610100900460ff166121585760405162461bcd60e51b815260040161098d90613da5565b6121086127d5565b600054610100900460ff166121875760405162461bcd60e51b815260040161098d90613da5565b612108612808565b61219761284f565b6097805460ff191660011790557f62e78cea01bee320cd4e420270b5ea74000d11b0c9f74754ebdbfc544b05a258611faa3390565b600061148f8383612895565b816001600160a01b0316836001600160a01b0316141561223a5760405162461bcd60e51b815260206004820152601960248201527f4552433732313a20617070726f766520746f2063616c6c657200000000000000604482015260640161098d565b6001600160a01b038381166000818152606a6020908152604080832094871680845294825291829020805460ff191686151590811790915591519182527f17307eab39ab6107e8899845ad3d59bd9653f200f220920489ca2b5937696c31910160405180910390a3505050565b6122b2848484611d7e565b6122be848484846128bf565b610df15760405162461bcd60e51b815260040161098d90613df0565b6000610781826129cc565b6060816123095750506040805180820190915260018152600360fc1b602082015290565b8160005b8115612333578061231d81613ce9565b915061232c9050600a83613e58565b915061230d565b6000816001600160401b0381111561234d5761234d6135d8565b6040519080825280601f01601f191660200182016040528015612377576020820181803683370190505b5090505b8415611d765761238c600183613d76565b9150612399600a86613e6c565b6123a4906030613d8d565b60f81b8183815181106123b9576123b9613cbd565b60200101906001600160f81b031916908160001a9053506123db600a86613e58565b945061237b565b606060006123f2878787876129f8565b905060006123ff84612a65565b90508181604051602001612414929190613e80565b6040516020818303038152906040529250505095945050505050565b6000610781825490565b6060600061148f83612c70565b6001600160a01b0381166000908152600183016020526040812054151561148f565b60006001600160e01b0319821663780e9d6360e01b1480610781575061078182612ccc565b61249661284f565b826124a361025982612447565b156124e65760405162461bcd60e51b8152602060048201526013602482015272426c61636b6c6973746564206164647265737360681b604482015260640161098d565b826124f361025982612447565b156125365760405162461bcd60e51b8152602060048201526013602482015272426c61636b6c6973746564206164647265737360681b604482015260640161098d565b610e37858585612cd7565b61254b8282611496565b610cf957612563816001600160a01b03166014612ce2565b61256e836020612ce2565b60405160200161257f929190613ecd565b60408051601f198184030181529082905262461bcd60e51b825261098d916004016134fe565b6125af8282611496565b610cf957600082815260fb602090815260408083206001600160a01b03851684529091529020805460ff191660011790556125e73390565b6001600160a01b0316816001600160a01b0316837f2f8788117e7eff1d82e926ec794901d17c78024a50270940304540a733656f0d60405160405180910390a45050565b600061148f836001600160a01b038416612738565b61264a8282611496565b15610cf957600082815260fb602090815260408083206001600160a01b0385168085529252808320805460ff1916905551339285917ff6391f5c32d9c69d2a47ea670b442974b53935d1edc7fd64eb21e047a839171b9190a45050565b600061148f836001600160a01b038416612e7d565b60975460ff166121085760405162461bcd60e51b815260206004820152601460248201527314185d5cd8589b194e881b9bdd081c185d5cd95960621b604482015260640161098d565b61270f8383612f70565b61271c60008484846128bf565b610a2e5760405162461bcd60e51b815260040161098d90613df0565b600081815260018301602052604081205461277f57508154600181810184556000848152602080822090930184905584548482528286019093526040902091909155610781565b506000610781565b600054610100900460ff166127ae5760405162461bcd60e51b815260040161098d90613da5565b81516127c19060659060208501906133b8565b508051610a2e9060669060208401906133b8565b600054610100900460ff166127fc5760405162461bcd60e51b815260040161098d90613da5565b6097805460ff19169055565b600054610100900460ff1661282f5760405162461bcd60e51b815260040161098d90613da5565b61283761210a565b61210860008051602061435d83398151915233611f2f565b60975460ff16156121085760405162461bcd60e51b815260206004820152601060248201526f14185d5cd8589b194e881c185d5cd95960821b604482015260640161098d565b60008260000182815481106128ac576128ac613cbd565b9060005260206000200154905092915050565b60006001600160a01b0384163b156129c157604051630a85bd0160e11b81526001600160a01b0385169063150b7a0290612903903390899088908890600401613f42565b602060405180830381600087803b15801561291d57600080fd5b505af192505050801561294d575060408051601f3d908101601f1916820190925261294a91810190613f7f565b60015b6129a7573d80801561297b576040519150601f19603f3d011682016040523d82523d6000602084013e612980565b606091505b50805161299f5760405162461bcd60e51b815260040161098d90613df0565b805181602001fd5b6001600160e01b031916630a85bd0160e11b149050611d76565b506001949350505050565b6000818152606760205260408120546001600160a01b0316151580610781575061078161015f836130af565b606060006101f6612a08876122e5565b604051602001612a19929190613f9c565b604051602081830303815290604052905084612a34876122e5565b858584604051602001612a4b95949392919061403a565b604051602081830303815290604052915050949350505050565b60408051602081019091526000808252606091905b8351811015612c4757600060018551612a939190613d76565b8214612ab857604051806040016040528060018152602001600b60fa1b815250612ac9565b604051806020016040528060008152505b90506000858381518110612adf57612adf613cbd565b602002602001015160600151612b0e57604051806040016040528060018152602001601160f91b815250612b1f565b604051806020016040528060008152505b9050600081878581518110612b3657612b36613cbd565b60200260200101516040015183604051602001612b559392919061414a565b60405160208183030381529060405290506000878581518110612b7a57612b7a613cbd565b60200260200101516020015151600014612bd057878581518110612ba057612ba0613cbd565b602002602001015160200151604051602001612bbc919061418d565b604051602081830303815290604052612be1565b604051806020016040528060008152505b9050600086898781518110612bf857612bf8613cbd565b602002602001015160000151838588604051602001612c1b9594939291906141d3565b604051602081830303815290604052905080965050505050508080612c3f90613ce9565b915050612a7a565b5080604051602001612c59919061428e565b604051602081830303815290604052915050919050565b606081600001805480602002602001604051908101604052809291908181526020018280548015612cc057602002820191906000526020600020905b815481526020019060010190808311612cac575b50505050509050919050565b6000610781826130c7565b610a2e8383836130ec565b60606000612cf18360026142d0565b612cfc906002613d8d565b6001600160401b03811115612d1357612d136135d8565b6040519080825280601f01601f191660200182016040528015612d3d576020820181803683370190505b509050600360fc1b81600081518110612d5857612d58613cbd565b60200101906001600160f81b031916908160001a905350600f60fb1b81600181518110612d8757612d87613cbd565b60200101906001600160f81b031916908160001a9053506000612dab8460026142d0565b612db6906001613d8d565b90505b6001811115612e2e576f181899199a1a9b1b9c1cb0b131b232b360811b85600f1660108110612dea57612dea613cbd565b1a60f81b828281518110612e0057612e00613cbd565b60200101906001600160f81b031916908160001a90535060049490941c93612e27816142ef565b9050612db9565b50831561148f5760405162461bcd60e51b815260206004820181905260248201527f537472696e67733a20686578206c656e67746820696e73756666696369656e74604482015260640161098d565b60008181526001830160205260408120548015612f66576000612ea1600183613d76565b8554909150600090612eb590600190613d76565b9050818114612f1a576000866000018281548110612ed557612ed5613cbd565b9060005260206000200154905080876000018481548110612ef857612ef8613cbd565b6000918252602080832090910192909255918252600188019052604090208390555b8554869080612f2b57612f2b614306565b600190038181906000526020600020016000905590558560010160008681526020019081526020016000206000905560019350505050610781565b6000915050610781565b6001600160a01b038216612fc65760405162461bcd60e51b815260206004820181905260248201527f4552433732313a206d696e7420746f20746865207a65726f2061646472657373604482015260640161098d565b612fcf816122da565b1561301c5760405162461bcd60e51b815260206004820152601c60248201527f4552433732313a20746f6b656e20616c7265616479206d696e74656400000000604482015260640161098d565b6130286000838361248e565b6001600160a01b0382166000908152606860205260408120805460019290613051908490613d8d565b909155505060008181526067602052604080822080546001600160a01b0319166001600160a01b03861690811790915590518392907fddf252ad1be2c89b69c2b068fc378daa952ba7f163c4a11628f55a4df523b3ef908290a45050565b6000818152600183016020526040812054151561148f565b60006001600160e01b03198216635a05180f60e01b14806107815750610781826131a6565b6001600160a01b03831661314957613144816101948054600083815261019560205260408120829055600182018355919091527fa6f1ac7ad7b125ba5a5e1c96b00ad6914f90a503b1ac3d85a9dadbb4c639df920155565b61316c565b816001600160a01b0316836001600160a01b03161461316c5761316c83826131cb565b6001600160a01b03821661318357610a2e8161326d565b826001600160a01b0316826001600160a01b031614610a2e57610a2e8282613322565b60006001600160e01b03198216637965db0b60e01b1480610781575061078182613368565b600060016131d88461100c565b6131e29190613d76565b60008381526101936020526040902054909150808214613238576001600160a01b038416600090815261019260209081526040808320858452825280832054848452818420819055835261019390915290208190555b506000918252610193602090815260408084208490556001600160a01b03909416835261019281528383209183525290812055565b6101945460009061328090600190613d76565b6000838152610195602052604081205461019480549394509092849081106132aa576132aa613cbd565b906000526020600020015490508061019483815481106132cc576132cc613cbd565b6000918252602080832090910192909255828152610195909152604080822084905585825281205561019480548061330657613306614306565b6001900381819060005260206000200160009055905550505050565b600061332d8361100c565b6001600160a01b0390931660009081526101926020908152604080832086845282528083208590559382526101939052919091209190915550565b60006001600160e01b031982166380ac58cd60e01b148061339957506001600160e01b03198216635b5e139f60e01b145b8061078157506301ffc9a760e01b6001600160e01b0319831614610781565b8280546133c490613c34565b90600052602060002090601f0160209004810192826133e6576000855561342c565b82601f106133ff57805160ff191683800117855561342c565b8280016001018555821561342c579182015b8281111561342c578251825591602001919060010190613411565b5061343892915061343c565b5090565b5b80821115613438576000815560010161343d565b6001600160e01b031981168114610d1d57600080fd5b60006020828403121561347957600080fd5b813561148f81613451565b6000806040838503121561349757600080fd5b50508035926020909101359150565b60005b838110156134c15781810151838201526020016134a9565b83811115610df15750506000910152565b600081518084526134ea8160208601602086016134a6565b601f01601f19169290920160200192915050565b60208152600061148f60208301846134d2565b60006020828403121561352357600080fd5b5035919050565b80356001600160a01b038116811461354157600080fd5b919050565b6000806040838503121561355957600080fd5b6135628361352a565b946020939093013593505050565b60008060006060848603121561358557600080fd5b61358e8461352a565b925061359c6020850161352a565b9150604084013590509250925092565b600080604083850312156135bf57600080fd5b823591506135cf6020840161352a565b90509250929050565b634e487b7160e01b600052604160045260246000fd5b604051601f8201601f191681016001600160401b0381118282101715613616576136166135d8565b604052919050565b600082601f83011261362f57600080fd5b813560206001600160401b0382111561364a5761364a6135d8565b8160051b6136598282016135ee565b928352848101820192828101908785111561367357600080fd5b83870192505b8483101561369257823582529183019190830190613679565b979650505050505050565b600080604083850312156136b057600080fd5b82356001600160401b038111156136c657600080fd5b6136d28582860161361e565b95602094909401359450505050565b6000602080830181845280855180835260408601915060408160051b870101925083870160005b8281101561373657603f198886030184526137248583516134d2565b94509285019290850190600101613708565b5092979650505050505050565b60008060006060848603121561375857600080fd5b505081359360208301359350604090920135919050565b6000806040838503121561378257600080fd5b61378b8361352a565b915060208301356001600160401b038111156137a657600080fd5b6137b28582860161361e565b9150509250929050565b60006001600160401b038311156137d5576137d56135d8565b6137e8601f8401601f19166020016135ee565b90508281528383830111156137fc57600080fd5b828260208301376000602084830101529392505050565b600082601f83011261382457600080fd5b61148f838335602085016137bc565b60008060006060848603121561384857600080fd5b833592506020840135915060408401356001600160401b0381111561386c57600080fd5b61387886828701613813565b9150509250925092565b60006020828403121561389457600080fd5b81356001600160401b038111156138aa57600080fd5b611d7684828501613813565b6000602082840312156138c857600080fd5b81356001600160401b038111156138de57600080fd5b611d768482850161361e565b6000602082840312156138fc57600080fd5b61148f8261352a565b6000806000806080858703121561391b57600080fd5b84356001600160401b038082111561393257600080fd5b61393e8883890161361e565b9550602087013591508082111561395457600080fd5b6139608883890161361e565b9450604087013591508082111561397657600080fd5b6139828883890161361e565b9350606087013591508082111561399857600080fd5b506139a58782880161361e565b91505092959194509250565b6020808252825182820181905260009190848201906040850190845b818110156139e9578351835292840192918401916001016139cd565b50909695505050505050565b60008060408385031215613a0857600080fd5b8235915060208301356001600160401b038111156137a657600080fd5b60008060408385031215613a3857600080fd5b613a418361352a565b915060208301358015158114613a5657600080fd5b809150509250929050565b60008060008060808587031215613a7757600080fd5b5050823594602084013594506040840135936060013592509050565b60008060008060808587031215613aa957600080fd5b613ab28561352a565b9350613ac06020860161352a565b92506040850135915060608501356001600160401b03811115613ae257600080fd5b8501601f81018713613af357600080fd5b6139a5878235602084016137bc565b600080600060608486031215613b1757600080fd5b833592506020840135915060408401356001600160401b03811115613b3b57600080fd5b6138788682870161361e565b6020808252825182820181905260009190848201906040850190845b818110156139e95783516001600160a01b031683529284019291840191600101613b63565b60008060008060808587031215613b9e57600080fd5b843593506020850135925060408501356001600160401b038082111561397657600080fd5b60008060408385031215613bd657600080fd5b613bdf8361352a565b91506135cf6020840161352a565b600080600060608486031215613c0257600080fd5b613c0b8461352a565b9250613c196020850161352a565b915060408401356001600160401b03811115613b3b57600080fd5b600181811c90821680613c4857607f821691505b60208210811415613c6957634e487b7160e01b600052602260045260246000fd5b50919050565b6020808252602e908201527f4552433732313a2063616c6c6572206973206e6f7420746f6b656e206f776e6560408201526d1c881b9bdc88185c1c1c9bdd995960921b606082015260800190565b634e487b7160e01b600052603260045260246000fd5b634e487b7160e01b600052601160045260246000fd5b6000600019821415613cfd57613cfd613cd3565b5060010190565b60008151613d168185602086016134a6565b9290920192915050565b66021b7b9b6b4b1960cd1b815260008251613d428160078501602087016134a6565b631022b63360e11b6007939091019283015250600b01919050565b828152604060208201526000611d7660408301846134d2565b600082821015613d8857613d88613cd3565b500390565b60008219821115613da057613da0613cd3565b500190565b6020808252602b908201527f496e697469616c697a61626c653a20636f6e7472616374206973206e6f74206960408201526a6e697469616c697a696e6760a81b606082015260800190565b60208082526032908201527f4552433732313a207472616e7366657220746f206e6f6e20455243373231526560408201527131b2b4bb32b91034b6b83632b6b2b73a32b960711b606082015260800190565b634e487b7160e01b600052601260045260246000fd5b600082613e6757613e67613e42565b500490565b600082613e7b57613e7b613e42565b500690565b607b60f81b815260008351613e9c8160018501602088016134a6565b835190830190613eb38160018401602088016134a6565b607d60f81b60019290910191820152600201949350505050565b7f416363657373436f6e74726f6c3a206163636f756e7420000000000000000000815260008351613f058160178501602088016134a6565b7001034b99036b4b9b9b4b733903937b6329607d1b6017918401918201528351613f368160288401602088016134a6565b01602801949350505050565b6001600160a01b0385811682528416602082015260408101839052608060608201819052600090613f75908301846134d2565b9695505050505050565b600060208284031215613f9157600080fd5b815161148f81613451565b600080845481600182811c915080831680613fb857607f831692505b6020808410821415613fd857634e487b7160e01b86526022600452602486fd5b818015613fec5760018114613ffd5761402a565b60ff1986168952848901965061402a565b60008b81526020902060005b868110156140225781548b820152908501908301614009565b505084890196505b505050505050611a698185613d04565b67113730b6b2911d1160c11b8152855160009061405e816008850160208b016134a6565b61202360f01b600891840191820152865161408081600a840160208b016134a6565b6201116160ed1b600a929091019182018190526d1131bab9ba37b6a730b6b2911d1160911b600d83015286516140bd81601b850160208b016134a6565b601b9201918201526f113232b9b1b934b83a34b7b7111d101160811b601e82015284516140f181602e8401602089016134a6565b61413d61412e614128614112602e858701016201116160ed1b815260030190565b691134b6b0b3b2911d101160b11b8152600a0190565b87613d04565b6201116160ed1b815260030190565b9998505050505050505050565b6000845161415c8184602089016134a6565b8451908301906141708183602089016134a6565b84519101906141838183602088016134a6565b0195945050505050565b703d913234b9b83630bcafba3cb832911d1160791b815281516000906141ba8160118501602087016134a6565b61088b60f21b6011939091019283015250601301919050565b600086516141e5818460208b016134a6565b6e3d913a3930b4ba2fba3cb832911d1160891b908301908152865161421181600f840160208b016134a6565b61088b60f21b600f92909101918201528551614234816011840160208a016134a6565b67113b30b63ab2911d60c11b60119290910191820152845161425d8160198401602089016134a6565b607d60f81b60199290910191820152835161427f81601a8401602088016134a6565b01601a01979650505050505050565b6d2261747472696275746573223a5b60901b815281516000906142b881600e8501602087016134a6565b605d60f81b600e939091019283015250600f01919050565b60008160001904831182151516156142ea576142ea613cd3565b500290565b6000816142fe576142fe613cd3565b506000190190565b634e487b7160e01b600052603160045260246000fdfe9f2df0fed2c77648de5860a4cc508cd0818c85b8b8a1ab4ceeef8d981c8956a6a49807205ce4d355092ef5a8a18f56e8913cf4a201fbe287825b095693c21775364d3d7565c7a8300c96fd53e065d19b65848d7b23b3191adcd55621c744223ca2646970667358221220fbc844307fe8e068987ea297f55ca755cbc164b743b40c2eb03c0224551d88c764736f6c63430008090033",
  "linkReferences": {},
  "deployedLinkReferences": {}
}