{
  "_format": "hh-sol-artifact-1",
  "contractName": "CosmicElves",
  "sourceName": "contracts/upgradeable/ERC721/CosmicElves.sol",
  "abi": [
    {
      "inputs": [],
      "stateMutability": "nonpayable",
      "type": "constructor"
    },
    {
      "anonymous": false,
      "inputs": [
        {
          "indexed": true,
          "internalType": "address",
          "name": "owner",
          "type": "address"
        },
        {
          "indexed": true,
          "internalType": "address",
          "name": "approved",
          "type": "address"
        },
        {
          "indexed": true,
          "internalType": "uint256",
          "name": "tokenId",
          "type": "uint256"
        }
      ],
      "name": "Approval",
      "type": "event"
    },
    {
      "anonymous": false,
      "inputs": [
        {
          "indexed": true,
          "internalType": "address",
          "name": "owner",
          "type": "address"
        },
        {
          "indexed": true,
          "internalType": "address",
          "name": "operator",
          "type": "address"
        },
        {
          "indexed": false,
          "internalType": "bool",
          "name": "approved",
          "type": "bool"
        }
      ],
      "name": "ApprovalForAll",
      "type": "event"
    },
    {
      "anonymous": false,
      "inputs": [
        {
          "indexed": false,
          "internalType": "uint8",
          "name": "version",
          "type": "uint8"
        }
      ],
      "name": "Initialized",
      "type": "event"
    },
    {
      "anonymous": false,
      "inputs": [
        {
          "indexed": false,
          "internalType": "address",
          "name": "account",
          "type": "address"
        }
      ],
      "name": "Paused",
      "type": "event"
    },
    {
      "anonymous": false,
      "inputs": [
        {
          "indexed": true,
          "internalType": "bytes32",
          "name": "role",
          "type": "bytes32"
        },
        {
          "indexed": true,
          "internalType": "bytes32",
          "name": "previousAdminRole",
          "type": "bytes32"
        },
        {
          "indexed": true,
          "internalType": "bytes32",
          "name": "newAdminRole",
          "type": "bytes32"
        }
      ],
      "name": "RoleAdminChanged",
      "type": "event"
    },
    {
      "anonymous": false,
      "inputs": [
        {
          "indexed": true,
          "internalType": "bytes32",
          "name": "role",
          "type": "bytes32"
        },
        {
          "indexed": true,
          "internalType": "address",
          "name": "account",
          "type": "address"
        },
        {
          "indexed": true,
          "internalType": "address",
          "name": "sender",
          "type": "address"
        }
      ],
      "name": "RoleGranted",
      "type": "event"
    },
    {
      "anonymous": false,
      "inputs": [
        {
          "indexed": true,
          "internalType": "bytes32",
          "name": "role",
          "type": "bytes32"
        },
        {
          "indexed": true,
          "internalType": "address",
          "name": "account",
          "type": "address"
        },
        {
          "indexed": true,
          "internalType": "address",
          "name": "sender",
          "type": "address"
        }
      ],
      "name": "RoleRevoked",
      "type": "event"
    },
    {
      "anonymous": false,
      "inputs": [
        {
          "indexed": true,
          "internalType": "uint256",
          "name": "tokenId",
          "type": "uint256"
        },
        {
          "indexed": false,
          "internalType": "uint256",
          "name": "customId",
          "type": "uint256"
        },
        {
          "indexed": false,
          "internalType": "string",
          "name": "value",
          "type": "string"
        }
      ],
      "name": "TextUpdated",
      "type": "event"
    },
    {
      "anonymous": false,
      "inputs": [
        {
          "indexed": true,
          "internalType": "address",
          "name": "from",
          "type": "address"
        },
        {
          "indexed": true,
          "internalType": "address",
          "name": "to",
          "type": "address"
        },
        {
          "indexed": true,
          "internalType": "uint256",
          "name": "tokenId",
          "type": "uint256"
        }
      ],
      "name": "Transfer",
      "type": "event"
    },
    {
      "anonymous": false,
      "inputs": [
        {
          "indexed": false,
          "internalType": "address",
          "name": "account",
          "type": "address"
        }
      ],
      "name": "Unpaused",
      "type": "event"
    },
    {
      "anonymous": false,
      "inputs": [
        {
          "indexed": true,
          "internalType": "uint256",
          "name": "tokenId",
          "type": "uint256"
        },
        {
          "indexed": false,
          "internalType": "uint256",
          "name": "treeId",
          "type": "uint256"
        },
        {
          "indexed": false,
          "internalType": "uint256",
          "name": "skillId",
          "type": "uint256"
        },
        {
          "indexed": false,
          "internalType": "uint256",
          "name": "value",
          "type": "uint256"
        }
      ],
      "name": "ValueUpdated",
      "type": "event"
    },
    {
      "inputs": [],
      "name": "ADMIN_ROLE",
      "outputs": [
        {
          "internalType": "bytes32",
          "name": "",
          "type": "bytes32"
        }
      ],
      "stateMutability": "view",
      "type": "function"
    },
    {
      "inputs": [],
      "name": "CONTRACT_ROLE",
      "outputs": [
        {
          "internalType": "bytes32",
          "name": "",
          "type": "bytes32"
        }
      ],
      "stateMutability": "view",
      "type": "function"
    },
    {
      "inputs": [],
      "name": "DEFAULT_ADMIN_ROLE",
      "outputs": [
        {
          "internalType": "bytes32",
          "name": "",
          "type": "bytes32"
        }
      ],
      "stateMutability": "view",
      "type": "function"
    },
    {
      "inputs": [],
      "name": "MINTER_ROLE",
      "outputs": [
        {
          "internalType": "bytes32",
          "name": "",
          "type": "bytes32"
        }
      ],
      "stateMutability": "view",
      "type": "function"
    },
    {
      "inputs": [
        {
          "internalType": "address",
          "name": "to",
          "type": "address"
        },
        {
          "internalType": "uint256",
          "name": "tokenId",
          "type": "uint256"
        }
      ],
      "name": "approve",
      "outputs": [],
      "stateMutability": "nonpayable",
      "type": "function"
    },
    {
      "inputs": [
        {
          "internalType": "address",
          "name": "owner",
          "type": "address"
        }
      ],
      "name": "balanceOf",
      "outputs": [
        {
          "internalType": "uint256",
          "name": "",
          "type": "uint256"
        }
      ],
      "stateMutability": "view",
      "type": "function"
    },
    {
      "inputs": [
        {
          "internalType": "address",
          "name": "to",
          "type": "address"
        },
        {
          "internalType": "uint256[]",
          "name": "tokenIds",
          "type": "uint256[]"
        }
      ],
      "name": "batchMint",
      "outputs": [],
      "stateMutability": "nonpayable",
      "type": "function"
    },
    {
      "inputs": [
        {
          "internalType": "uint256[]",
          "name": "tokenIds",
          "type": "uint256[]"
        }
      ],
      "name": "batchTokenURI",
      "outputs": [
        {
          "internalType": "string[]",
          "name": "",
          "type": "string[]"
        }
      ],
      "stateMutability": "view",
      "type": "function"
    },
    {
      "inputs": [
        {
          "internalType": "uint256[]",
          "name": "tokenIds",
          "type": "uint256[]"
        }
      ],
      "name": "batchTokenURIJSON",
      "outputs": [
        {
          "internalType": "string[]",
          "name": "",
          "type": "string[]"
        }
      ],
      "stateMutability": "view",
      "type": "function"
    },
    {
      "inputs": [
        {
          "internalType": "address",
          "name": "from",
          "type": "address"
        },
        {
          "internalType": "address",
          "name": "to",
          "type": "address"
        },
        {
          "internalType": "uint256[]",
          "name": "tokenIds",
          "type": "uint256[]"
        }
      ],
      "name": "batchTransferFrom",
      "outputs": [],
      "stateMutability": "nonpayable",
      "type": "function"
    },
    {
      "inputs": [
        {
          "internalType": "uint256[]",
          "name": "tokenIds",
          "type": "uint256[]"
        },
        {
          "internalType": "uint256[]",
          "name": "treeIds",
          "type": "uint256[]"
        },
        {
          "internalType": "uint256[]",
          "name": "skillIds",
          "type": "uint256[]"
        },
        {
          "internalType": "uint256[]",
          "name": "values",
          "type": "uint256[]"
        }
      ],
      "name": "batchUpdateSkills",
      "outputs": [],
      "stateMutability": "nonpayable",
      "type": "function"
    },
    {
      "inputs": [
        {
          "internalType": "uint256",
          "name": "tokenId",
          "type": "uint256"
        },
        {
          "internalType": "uint256",
          "name": "treeId",
          "type": "uint256"
        },
        {
          "internalType": "uint256[]",
          "name": "skillIds",
          "type": "uint256[]"
        },
        {
          "internalType": "uint256[]",
          "name": "values",
          "type": "uint256[]"
        }
      ],
      "name": "batchUpdateSkillsOfToken",
      "outputs": [],
      "stateMutability": "nonpayable",
      "type": "function"
    },
    {
      "inputs": [
        {
          "internalType": "uint256",
          "name": "tokenId",
          "type": "uint256"
        }
      ],
      "name": "burn",
      "outputs": [],
      "stateMutability": "nonpayable",
      "type": "function"
    },
    {
      "inputs": [],
      "name": "getAllTokenIds",
      "outputs": [
        {
          "internalType": "uint256[]",
          "name": "",
          "type": "uint256[]"
        }
      ],
      "stateMutability": "view",
      "type": "function"
    },
    {
      "inputs": [
        {
          "internalType": "uint256",
          "name": "tokenId",
          "type": "uint256"
        }
      ],
      "name": "getApproved",
      "outputs": [
        {
          "internalType": "address",
          "name": "",
          "type": "address"
        }
      ],
      "stateMutability": "view",
      "type": "function"
    },
    {
      "inputs": [],
      "name": "getBlacklisted",
      "outputs": [
        {
          "internalType": "address[]",
          "name": "",
          "type": "address[]"
        }
      ],
      "stateMutability": "view",
      "type": "function"
    },
    {
      "inputs": [
        {
          "internalType": "bytes32",
          "name": "role",
          "type": "bytes32"
        }
      ],
      "name": "getRoleAdmin",
      "outputs": [
        {
          "internalType": "bytes32",
          "name": "",
          "type": "bytes32"
        }
      ],
      "stateMutability": "view",
      "type": "function"
    },
    {
      "inputs": [
        {
          "internalType": "bytes32",
          "name": "role",
          "type": "bytes32"
        },
        {
          "internalType": "uint256",
          "name": "index",
          "type": "uint256"
        }
      ],
      "name": "getRoleMember",
      "outputs": [
        {
          "internalType": "address",
          "name": "",
          "type": "address"
        }
      ],
      "stateMutability": "view",
      "type": "function"
    },
    {
      "inputs": [
        {
          "internalType": "bytes32",
          "name": "role",
          "type": "bytes32"
        }
      ],
      "name": "getRoleMemberCount",
      "outputs": [
        {
          "internalType": "uint256",
          "name": "",
          "type": "uint256"
        }
      ],
      "stateMutability": "view",
      "type": "function"
    },
    {
      "inputs": [
        {
          "internalType": "uint256",
          "name": "tokenId",
          "type": "uint256"
        },
        {
          "internalType": "uint256",
          "name": "treeId",
          "type": "uint256"
        },
        {
          "internalType": "uint256",
          "name": "skillId",
          "type": "uint256"
        }
      ],
      "name": "getSkill",
      "outputs": [
        {
          "internalType": "uint256",
          "name": "",
          "type": "uint256"
        }
      ],
      "stateMutability": "view",
      "type": "function"
    },
    {
      "inputs": [
        {
          "internalType": "uint256",
          "name": "treeId",
          "type": "uint256"
        },
        {
          "internalType": "uint256",
          "name": "skillId",
          "type": "uint256"
        }
      ],
      "name": "getSkillName",
      "outputs": [
        {
          "internalType": "string",
          "name": "",
          "type": "string"
        }
      ],
      "stateMutability": "view",
      "type": "function"
    },
    {
      "inputs": [
        {
          "internalType": "uint256",
          "name": "tokenId",
          "type": "uint256"
        },
        {
          "internalType": "uint256",
          "name": "treeId",
          "type": "uint256"
        },
        {
          "internalType": "uint256[]",
          "name": "skillIds",
          "type": "uint256[]"
        }
      ],
      "name": "getSkillsByTree",
      "outputs": [
        {
          "internalType": "uint256[]",
          "name": "",
          "type": "uint256[]"
        }
      ],
      "stateMutability": "view",
      "type": "function"
    },
    {
      "inputs": [
        {
          "internalType": "uint256",
          "name": "tokenId",
          "type": "uint256"
        },
        {
          "internalType": "uint256",
          "name": "customId",
          "type": "uint256"
        }
      ],
      "name": "getString",
      "outputs": [
        {
          "internalType": "string",
          "name": "",
          "type": "string"
        }
      ],
      "stateMutability": "view",
      "type": "function"
    },
    {
      "inputs": [
        {
          "internalType": "uint256[]",
          "name": "tokenIds",
          "type": "uint256[]"
        },
        {
          "internalType": "uint256",
          "name": "customId",
          "type": "uint256"
        }
      ],
      "name": "getStringOfTokens",
      "outputs": [
        {
          "internalType": "string[]",
          "name": "",
          "type": "string[]"
        }
      ],
      "stateMutability": "view",
      "type": "function"
    },
    {
      "inputs": [
        {
          "internalType": "uint256",
          "name": "tokenId",
          "type": "uint256"
        },
        {
          "internalType": "uint256[]",
          "name": "customIds",
          "type": "uint256[]"
        }
      ],
      "name": "getStrings",
      "outputs": [
        {
          "internalType": "string[]",
          "name": "",
          "type": "string[]"
        }
      ],
      "stateMutability": "view",
      "type": "function"
    },
    {
      "inputs": [
        {
          "internalType": "bytes32",
          "name": "role",
          "type": "bytes32"
        },
        {
          "internalType": "address",
          "name": "account",
          "type": "address"
        }
      ],
      "name": "grantRole",
      "outputs": [],
      "stateMutability": "nonpayable",
      "type": "function"
    },
    {
      "inputs": [
        {
          "internalType": "bytes32",
          "name": "role",
          "type": "bytes32"
        },
        {
          "internalType": "address",
          "name": "account",
          "type": "address"
        }
      ],
      "name": "hasRole",
      "outputs": [
        {
          "internalType": "bool",
          "name": "",
          "type": "bool"
        }
      ],
      "stateMutability": "view",
      "type": "function"
    },
    {
      "inputs": [],
      "name": "imageBaseURI",
      "outputs": [
        {
          "internalType": "string",
          "name": "",
          "type": "string"
        }
      ],
      "stateMutability": "view",
      "type": "function"
    },
    {
      "inputs": [],
      "name": "initialize",
      "outputs": [],
      "stateMutability": "nonpayable",
      "type": "function"
    },
    {
      "inputs": [
        {
          "internalType": "address",
          "name": "owner",
          "type": "address"
        },
        {
          "internalType": "address",
          "name": "operator",
          "type": "address"
        }
      ],
      "name": "isApprovedForAll",
      "outputs": [
        {
          "internalType": "bool",
          "name": "",
          "type": "bool"
        }
      ],
      "stateMutability": "view",
      "type": "function"
    },
    {
      "inputs": [
        {
          "internalType": "address",
          "name": "user",
          "type": "address"
        }
      ],
      "name": "isBlacklisted",
      "outputs": [
        {
          "internalType": "bool",
          "name": "",
          "type": "bool"
        }
      ],
      "stateMutability": "view",
      "type": "function"
    },
    {
      "inputs": [
        {
          "internalType": "address",
          "name": "to",
          "type": "address"
        },
        {
          "internalType": "uint256",
          "name": "tokenId",
          "type": "uint256"
        }
      ],
      "name": "mint",
      "outputs": [],
      "stateMutability": "nonpayable",
      "type": "function"
    },
    {
      "inputs": [],
      "name": "name",
      "outputs": [
        {
          "internalType": "string",
          "name": "",
          "type": "string"
        }
      ],
      "stateMutability": "view",
      "type": "function"
    },
    {
      "inputs": [
        {
          "internalType": "uint256",
          "name": "tokenId",
          "type": "uint256"
        }
      ],
      "name": "ownerOf",
      "outputs": [
        {
          "internalType": "address",
          "name": "",
          "type": "address"
        }
      ],
      "stateMutability": "view",
      "type": "function"
    },
    {
      "inputs": [],
      "name": "pause",
      "outputs": [],
      "stateMutability": "nonpayable",
      "type": "function"
    },
    {
      "inputs": [],
      "name": "paused",
      "outputs": [
        {
          "internalType": "bool",
          "name": "",
          "type": "bool"
        }
      ],
      "stateMutability": "view",
      "type": "function"
    },
    {
      "inputs": [
        {
          "internalType": "bytes32",
          "name": "role",
          "type": "bytes32"
        },
        {
          "internalType": "address",
          "name": "account",
          "type": "address"
        }
      ],
      "name": "renounceRole",
      "outputs": [],
      "stateMutability": "nonpayable",
      "type": "function"
    },
    {
      "inputs": [
        {
          "internalType": "bytes32",
          "name": "role",
          "type": "bytes32"
        },
        {
          "internalType": "address",
          "name": "account",
          "type": "address"
        }
      ],
      "name": "revokeRole",
      "outputs": [],
      "stateMutability": "nonpayable",
      "type": "function"
    },
    {
      "inputs": [
        {
          "internalType": "address",
          "name": "from",
          "type": "address"
        },
        {
          "internalType": "address",
          "name": "to",
          "type": "address"
        },
        {
          "internalType": "uint256",
          "name": "tokenId",
          "type": "uint256"
        }
      ],
      "name": "safeTransferFrom",
      "outputs": [],
      "stateMutability": "nonpayable",
      "type": "function"
    },
    {
      "inputs": [
        {
          "internalType": "address",
          "name": "from",
          "type": "address"
        },
        {
          "internalType": "address",
          "name": "to",
          "type": "address"
        },
        {
          "internalType": "uint256",
          "name": "tokenId",
          "type": "uint256"
        },
        {
          "internalType": "bytes",
          "name": "data",
          "type": "bytes"
        }
      ],
      "name": "safeTransferFrom",
      "outputs": [],
      "stateMutability": "nonpayable",
      "type": "function"
    },
    {
      "inputs": [
        {
          "internalType": "address",
          "name": "operator",
          "type": "address"
        },
        {
          "internalType": "bool",
          "name": "approved",
          "type": "bool"
        }
      ],
      "name": "setApprovalForAll",
      "outputs": [],
      "stateMutability": "nonpayable",
      "type": "function"
    },
    {
      "inputs": [
        {
          "internalType": "string",
          "name": "_imageBaseURI",
          "type": "string"
        }
      ],
      "name": "setImageBaseURI",
      "outputs": [],
      "stateMutability": "nonpayable",
      "type": "function"
    },
    {
      "inputs": [
        {
          "internalType": "uint256",
          "name": "treeId",
          "type": "uint256"
        },
        {
          "internalType": "uint256",
          "name": "skillId",
          "type": "uint256"
        },
        {
          "internalType": "string",
          "name": "name",
          "type": "string"
        }
      ],
      "name": "setSkillName",
      "outputs": [],
      "stateMutability": "nonpayable",
      "type": "function"
    },
    {
      "inputs": [
        {
          "internalType": "bytes4",
          "name": "interfaceId",
          "type": "bytes4"
        }
      ],
      "name": "supportsInterface",
      "outputs": [
        {
          "internalType": "bool",
          "name": "",
          "type": "bool"
        }
      ],
      "stateMutability": "view",
      "type": "function"
    },
    {
      "inputs": [],
      "name": "symbol",
      "outputs": [
        {
          "internalType": "string",
          "name": "",
          "type": "string"
        }
      ],
      "stateMutability": "view",
      "type": "function"
    },
    {
      "inputs": [
        {
          "internalType": "uint256",
          "name": "index",
          "type": "uint256"
        }
      ],
      "name": "tokenByIndex",
      "outputs": [
        {
          "internalType": "uint256",
          "name": "",
          "type": "uint256"
        }
      ],
      "stateMutability": "view",
      "type": "function"
    },
    {
      "inputs": [
        {
          "internalType": "address",
          "name": "owner",
          "type": "address"
        },
        {
          "internalType": "uint256",
          "name": "index",
          "type": "uint256"
        }
      ],
      "name": "tokenOfOwnerByIndex",
      "outputs": [
        {
          "internalType": "uint256",
          "name": "",
          "type": "uint256"
        }
      ],
      "stateMutability": "view",
      "type": "function"
    },
    {
      "inputs": [
        {
          "internalType": "uint256",
          "name": "tokenId",
          "type": "uint256"
        }
      ],
      "name": "tokenURI",
      "outputs": [
        {
          "internalType": "string",
          "name": "",
          "type": "string"
        }
      ],
      "stateMutability": "view",
      "type": "function"
    },
    {
      "inputs": [
        {
          "internalType": "uint256",
          "name": "tokenId",
          "type": "uint256"
        }
      ],
      "name": "tokenURIJSON",
      "outputs": [
        {
          "internalType": "string",
          "name": "",
          "type": "string"
        }
      ],
      "stateMutability": "view",
      "type": "function"
    },
    {
      "inputs": [
        {
          "internalType": "address",
          "name": "owner",
          "type": "address"
        }
      ],
      "name": "tokensOfOwner",
      "outputs": [
        {
          "internalType": "uint256[]",
          "name": "",
          "type": "uint256[]"
        }
      ],
      "stateMutability": "view",
      "type": "function"
    },
    {
      "inputs": [],
      "name": "totalSupply",
      "outputs": [
        {
          "internalType": "uint256",
          "name": "",
          "type": "uint256"
        }
      ],
      "stateMutability": "view",
      "type": "function"
    },
    {
      "inputs": [
        {
          "internalType": "address",
          "name": "from",
          "type": "address"
        },
        {
          "internalType": "address",
          "name": "to",
          "type": "address"
        },
        {
          "internalType": "uint256",
          "name": "tokenId",
          "type": "uint256"
        }
      ],
      "name": "transferFrom",
      "outputs": [],
      "stateMutability": "nonpayable",
      "type": "function"
    },
    {
      "inputs": [],
      "name": "unpause",
      "outputs": [],
      "stateMutability": "nonpayable",
      "type": "function"
    },
    {
      "inputs": [
        {
          "internalType": "uint256",
          "name": "tokenId",
          "type": "uint256"
        },
        {
          "internalType": "uint256",
          "name": "treeId",
          "type": "uint256"
        },
        {
          "internalType": "uint256",
          "name": "skillId",
          "type": "uint256"
        },
        {
          "internalType": "uint256",
          "name": "value",
          "type": "uint256"
        }
      ],
      "name": "updateSkill",
      "outputs": [],
      "stateMutability": "nonpayable",
      "type": "function"
    },
    {
      "inputs": [
        {
          "internalType": "uint256",
          "name": "tokenId",
          "type": "uint256"
        },
        {
          "internalType": "uint256",
          "name": "customId",
          "type": "uint256"
        },
        {
          "internalType": "string",
          "name": "value",
          "type": "string"
        }
      ],
      "name": "updateString",
      "outputs": [],
      "stateMutability": "nonpayable",
      "type": "function"
    }
  ],
  "bytecode": "0x60806040523480156200001157600080fd5b506200001c62000022565b620000e4565b600054610100900460ff16156200008f5760405162461bcd60e51b815260206004820152602760248201527f496e697469616c697a61626c653a20636f6e747261637420697320696e697469604482015266616c697a696e6760c81b606482015260840160405180910390fd5b60005460ff9081161015620000e2576000805460ff191660ff9081179091556040519081527f7f26b83ff96e1f2b6a682f133852f6798a09c465da95921460cefb38474024989060200160405180910390a15b565b61472580620000f46000396000f3fe608060405234801561001057600080fd5b506004361061035d5760003560e01c806370a08231116101d3578063b88d4fde11610104578063d547741f116100a2578063ed0af2091161007c578063ed0af20914610786578063f3993d1114610799578063fe459f5c146107ac578063fe575a87146107bf57600080fd5b8063d547741f14610724578063e2862b6b14610737578063e985e9c51461074a57600080fd5b8063c87b56dd116100de578063c87b56dd146106d4578063ca15c873146106e7578063ce3675ad146106fa578063d53913931461070f57600080fd5b8063b88d4fde146106a6578063bdbed722146106b9578063c7e05590146106c157600080fd5b80639010d07c116101715780639e8afe471161014b5780639e8afe4714610665578063a217fddf14610678578063a22cb46514610680578063b5afb1201461069357600080fd5b80639010d07c1461063757806391d148541461064a57806395d89b411461065d57600080fd5b80637efa1902116101ad5780637efa1902146105f45780638129fc1c146106075780638456cb591461060f5780638462151c1461061757600080fd5b806370a08231146105c457806375b238fc146105d757806377645839146105ec57600080fd5b8063352b7533116102ad5780634684d7e91161024b5780635c975abb116102255780635c975abb146105805780636352211e1461058b5780636cfa24cc1461059e5780636d94f13a146105b157600080fd5b80634684d7e9146105475780634b5f4fe61461055a5780634f6ccce71461056d57600080fd5b806340c10f191161028757806340c10f19146104db57806342842e0e146104ee57806342966c68146105015780634594762a1461051457600080fd5b8063352b7533146104ad57806336568abe146104c05780633f4ba83a146104d357600080fd5b8063095ea7b31161031a578063248a9ca3116102f4578063248a9ca3146104445780632c303493146104675780632f2ff15d146104875780632f745c591461049a57600080fd5b8063095ea7b31461041357806318160ddd1461042857806323b872dd1461043157600080fd5b806301ffc9a71461036257806303fe46ab1461038a57806306b67444146103ad57806306fdde03146103cd578063079be493146103d5578063081812fc146103e8575b600080fd5b61037561037036600461365b565b6107d2565b60405190151581526020015b60405180910390f35b61039f6000805160206146d083398151915281565b604051908152602001610381565b6103c06103bb366004613678565b6107e3565b60405161038191906136ea565b6103c0610892565b6103c06103e3366004613678565b610924565b6103fb6103f63660046136fd565b61094d565b6040516001600160a01b039091168152602001610381565b610426610421366004613732565b610974565b005b6101945461039f565b61042661043f36600461375c565b610a8e565b61039f6104523660046136fd565b600090815260fb602052604090206001015490565b61047a61047536600461385d565b610ac0565b6040516103819190613891565b6104266104953660046138f3565b610b78565b61039f6104a8366004613732565b610b9d565b61047a6104bb36600461391f565b610c34565b6104266104ce3660046138f3565b610d92565b610426610e10565b6104266104e9366004613732565b610e33565b6104266104fc36600461375c565b610e55565b61042661050f3660046136fd565b610e70565b61039f610522366004613963565b6000928352610228602090815260408085209385529281528284209184525290205490565b61042661055536600461398f565b610eab565b610426610568366004613a53565b610f0a565b61039f61057b3660046136fd565b610f4d565b60975460ff16610375565b6103fb6105993660046136fd565b610fe2565b6104266105ac366004613aa2565b611042565b61047a6105bf36600461385d565b611063565b61039f6105d2366004613ad6565b611114565b61039f6000805160206146b083398151915281565b6103c061119a565b610426610602366004613af1565b611229565b610426611307565b6104266114c5565b61062a610625366004613ad6565b6114e5565b6040516103819190613b9d565b6103fb610645366004613678565b61157e565b6103756106583660046138f3565b61159e565b6103c06115c9565b61047a610673366004613be1565b6115d8565b61039f600081565b61042661068e366004613c11565b61172e565b6104266106a1366004613c4d565b611739565b6104266106b4366004613c7f565b6117be565b61062a6117f0565b61062a6106cf366004613cee565b6118da565b6103c06106e23660046136fd565b6119af565b61039f6106f53660046136fd565b6119c2565b6107026119da565b6040516103819190613d33565b61039f60008051602061469083398151915281565b6104266107323660046138f3565b6119ec565b610426610745366004613d74565b611a11565b610375610758366004613daf565b6001600160a01b039182166000908152606a6020908152604080832093909416825291909152205460ff1690565b610426610794366004613a53565b611ab5565b6104266107a7366004613dd9565b611b32565b6103c06107ba3660046136fd565b611b74565b6103756107cd366004613ad6565b611d3f565b60006107dd82611d4d565b92915050565b600082815261022960209081526040808320848452909152902080546060919061080c90613e20565b80601f016020809104026020016040519081016040528092919081815260200182805461083890613e20565b80156108855780601f1061085a57610100808354040283529160200191610885565b820191906000526020600020905b81548152906001019060200180831161086857829003601f168201915b5050505050905092915050565b6060606580546108a190613e20565b80601f01602080910402602001604051908101604052809291908181526020018280546108cd90613e20565b801561091a5780601f106108ef5761010080835404028352916020019161091a565b820191906000526020600020905b8154815290600101906020018083116108fd57829003601f168201915b5050505050905090565b600082815261022a60209081526040808320848452909152902080546060919061080c90613e20565b600061095882611d58565b506000908152606960205260409020546001600160a01b031690565b600061097f82610fe2565b9050806001600160a01b0316836001600160a01b0316036109f15760405162461bcd60e51b815260206004820152602160248201527f4552433732313a20617070726f76616c20746f2063757272656e74206f776e656044820152603960f91b60648201526084015b60405180910390fd5b336001600160a01b0382161480610a0d5750610a0d8133610758565b610a7f5760405162461bcd60e51b815260206004820152603e60248201527f4552433732313a20617070726f76652063616c6c6572206973206e6f7420746f60448201527f6b656e206f776e6572206e6f7220617070726f76656420666f7220616c6c000060648201526084016109e8565b610a898383611da8565b505050565b610a99335b82611e16565b610ab55760405162461bcd60e51b81526004016109e890613e5a565b610a89838383611e95565b6060600082516001600160401b03811115610add57610add613798565b604051908082528060200260200182016040528015610b1057816020015b6060815260200190600190039081610afb5790505b50905060005b8351811015610b7157610b41848281518110610b3457610b34613ea8565b6020026020010151611b74565b828281518110610b5357610b53613ea8565b60200260200101819052508080610b6990613ed4565b915050610b16565b5092915050565b600082815260fb6020526040902060010154610b938161203c565b610a898383612046565b6000610ba883611114565b8210610c0a5760405162461bcd60e51b815260206004820152602b60248201527f455243373231456e756d657261626c653a206f776e657220696e646578206f7560448201526a74206f6620626f756e647360a81b60648201526084016109e8565b506001600160a01b0391909116600090815261019260209081526040808320938352929052205490565b6060600083516001600160401b03811115610c5157610c51613798565b604051908082528060200260200182016040528015610c8457816020015b6060815260200190600190039081610c6f5790505b50905060005b8451811015610d8a5761022a6000868381518110610caa57610caa613ea8565b6020026020010151815260200190815260200160002060008581526020019081526020016000208054610cdc90613e20565b80601f0160208091040260200160405190810160405280929190818152602001828054610d0890613e20565b8015610d555780601f10610d2a57610100808354040283529160200191610d55565b820191906000526020600020905b815481529060010190602001808311610d3857829003601f168201915b5050505050828281518110610d6c57610d6c613ea8565b60200260200101819052508080610d8290613ed4565b915050610c8a565b509392505050565b6001600160a01b0381163314610e025760405162461bcd60e51b815260206004820152602f60248201527f416363657373436f6e74726f6c3a2063616e206f6e6c792072656e6f756e636560448201526e103937b632b9903337b91039b2b63360891b60648201526084016109e8565b610e0c8282612069565b5050565b6000805160206146b0833981519152610e288161203c565b610e3061208c565b50565b600080516020614690833981519152610e4b8161203c565b610a8983836120de565b610a89838383604051806020016040528060008152506117be565b610e7933610a93565b610e955760405162461bcd60e51b81526004016109e890613e5a565b610ea161015f826120f8565b50610e3081612104565b600080516020614690833981519152610ec38161203c565b60005b8251811015610f0457610ef284848381518110610ee557610ee5613ea8565b60200260200101516120de565b80610efc81613ed4565b915050610ec6565b50505050565b6000805160206146d0833981519152610f228161203c565b6000848152610229602090815260408083208684529091529020610f468382613f33565b5050505050565b6000610f596101945490565b8210610fbc5760405162461bcd60e51b815260206004820152602c60248201527f455243373231456e756d657261626c653a20676c6f62616c20696e646578206f60448201526b7574206f6620626f756e647360a01b60648201526084016109e8565b6101948281548110610fd057610fd0613ea8565b90600052602060002001549050919050565b6000818152606760205260408120546001600160a01b0316806107dd5760405162461bcd60e51b8152602060048201526018602482015277115490cdcc8c4e881a5b9d985b1a59081d1bdad95b88125160421b60448201526064016109e8565b6000805160206146b083398151915261105a8161203c565b610e0c826121ab565b6060600082516001600160401b0381111561108057611080613798565b6040519080825280602002602001820160405280156110b357816020015b606081526020019060019003908161109e5790505b50905060005b8351811015610b71576110e48482815181106110d7576110d7613ea8565b60200260200101516119af565b8282815181106110f6576110f6613ea8565b6020026020010181905250808061110c90613ed4565b9150506110b9565b60006001600160a01b03821661117e5760405162461bcd60e51b815260206004820152602960248201527f4552433732313a2061646472657373207a65726f206973206e6f7420612076616044820152683634b21037bbb732b960b91b60648201526084016109e8565b506001600160a01b031660009081526068602052604090205490565b6101f680546111a890613e20565b80601f01602080910402602001604051908101604052809291908181526020018280546111d490613e20565b80156112215780601f106111f657610100808354040283529160200191611221565b820191906000526020600020905b81548152906001019060200180831161120457829003601f168201915b505050505081565b6000805160206146d08339815191526112418161203c565b60005b85518110156112ff5782818151811061125f5761125f613ea8565b6020026020010151610228600088848151811061127e5761127e613ea8565b6020026020010151815260200190815260200160002060008784815181106112a8576112a8613ea8565b6020026020010151815260200190815260200160002060008684815181106112d2576112d2613ea8565b602002602001015181526020019081526020016000208190555080806112f790613ed4565b915050611244565b505050505050565b600054610100900460ff16158080156113275750600054600160ff909116105b806113415750303b158015611341575060005460ff166001145b6113a45760405162461bcd60e51b815260206004820152602e60248201527f496e697469616c697a61626c653a20636f6e747261637420697320616c72656160448201526d191e481a5b9a5d1a585b1a5e995960921b60648201526084016109e8565b6000805460ff1916600117905580156113c7576000805461ff0019166101001790555b6114126040518060400160405280600c81526020016b436f736d696320456c76657360a01b81525060405180604001604052806005815260200164454c56455360d81b8152506121b8565b61141a6121e9565b61142261221a565b61142a612241565b61143261221a565b61143a6121e9565b611442612270565b61144d600033612046565b6114656000805160206146b083398151915233612046565b61147d60008051602061469083398151915233612046565b8015610e30576000805461ff0019169055604051600181527f7f26b83ff96e1f2b6a682f133852f6798a09c465da95921460cefb38474024989060200160405180910390a150565b6000805160206146b08339815191526114dd8161203c565b610e3061229f565b606060006114f283611114565b90506000816001600160401b0381111561150e5761150e613798565b604051908082528060200260200182016040528015611537578160200160208202803683370190505b50905060005b82811015610d8a5761154f8582610b9d565b82828151811061156157611561613ea8565b60209081029190910101528061157681613ed4565b91505061153d565b600082815261012d6020526040812061159790836122dc565b9392505050565b600091825260fb602090815260408084206001600160a01b0393909316845291905290205460ff1690565b6060606680546108a190613e20565b6060600082516001600160401b038111156115f5576115f5613798565b60405190808252806020026020018201604052801561162857816020015b60608152602001906001900390816116135790505b50905060005b8351811015610d8a5761022a6000868152602001908152602001600020600085838151811061165f5761165f613ea8565b60200260200101518152602001908152602001600020805461168090613e20565b80601f01602080910402602001604051908101604052809291908181526020018280546116ac90613e20565b80156116f95780601f106116ce576101008083540402835291602001916116f9565b820191906000526020600020905b8154815290600101906020018083116116dc57829003601f168201915b505050505082828151811061171057611710613ea8565b6020026020010181905250808061172690613ed4565b91505061162e565b610e0c3383836122e8565b6000805160206146d08339815191526117518161203c565b6000858152610228602090815260408083208784528252808320868452825291829020849055815186815290810185905290810183905285907fc3bdb5f4a3cbb68ce4ebe3dda3660f3067add044dc5be3a047d818fd416663699060600160405180910390a25050505050565b6117c83383611e16565b6117e45760405162461bcd60e51b81526004016109e890613e5a565b610f04848484846123b6565b6060600060015b61271081101561182f5761180a816123e9565b1561181d578161181981613ed4565b9250505b8061182781613ed4565b9150506117f7565b506000816001600160401b0381111561184a5761184a613798565b604051908082528060200260200182016040528015611873578160200160208202803683370190505b509050600060015b6127108110156118d15761188e816123e9565b156118bf57808383815181106118a6576118a6613ea8565b6020908102919091010152816118bb81613ed4565b9250505b806118c981613ed4565b91505061187b565b50909392505050565b6060600082516001600160401b038111156118f7576118f7613798565b604051908082528060200260200182016040528015611920578160200160208202803683370190505b50905060005b83518110156119a6576000868152610228602090815260408083208884529091528120855190919086908490811061196057611960613ea8565b602002602001015181526020019081526020016000205482828151811061198957611989613ea8565b60209081029190910101528061199e81613ed4565b915050611926565b50949350505050565b60606107dd6119bd83611b74565b6123f4565b600081815261012d602052604081206107dd90612425565b60606119e761025961242f565b905090565b600082815260fb6020526040902060010154611a078161203c565b610a898383612069565b6000805160206146d0833981519152611a298161203c565b60005b83518110156112ff57828181518110611a4757611a47613ea8565b6020026020010151610228600088815260200190815260200160002060008781526020019081526020016000206000868481518110611a8857611a88613ea8565b60200260200101518152602001908152602001600020819055508080611aad90613ed4565b915050611a2c565b6000805160206146d0833981519152611acd8161203c565b600084815261022a602090815260408083208684529091529020611af18382613f33565b50837fbf91c112c44cd8e958afe3106b290f594b5e23b83fcc88bdb9ac5da7f00be5698484604051611b24929190613ff2565b60405180910390a250505050565b60005b8151811015610f0457611b628484848481518110611b5557611b55613ea8565b6020026020010151610a8e565b80611b6c81613ed4565b915050611b35565b60008181526102286020908152604080832083805282528083209091528120546060919015611bc1576040518060400160405280600681526020016546656d616c6560d01b815250611bdf565b604051806040016040528060048152602001634d616c6560e01b8152505b9050600081604051602001611bf49190614027565b60408051808303601f19018152600b8084526101808401909252925060009190816020015b611c4660405180608001604052806060815260200160608152602001606081526020016000151581525090565b815260200190600190039081611c1957905050905060005b600b811015611cfa576040518060800160405280611c7d6000846107e3565b815260408051602081810183526000808352818501929092528a825261022881528282208280528152828220868352905281902054910190611cbe9061243c565b815260200160001515815250828281518110611cdc57611cdc613ea8565b60200260200101819052508080611cf290613ed4565b915050611c5e565b50611d368583611d0b886000610924565b6040518060400160405280600c81526020016b209021b7b9b6b4b19022b63360a11b8152508561253c565b95945050505050565b60006107dd6102598361258a565b60006107dd826125ac565b611d61816123e9565b610e305760405162461bcd60e51b8152602060048201526018602482015277115490cdcc8c4e881a5b9d985b1a59081d1bdad95b88125160421b60448201526064016109e8565b600081815260696020526040902080546001600160a01b0319166001600160a01b0384169081179091558190611ddd82610fe2565b6001600160a01b03167f8c5be1e5ebec7d5bd14f71427d1e84f3dd0314c0f7b2291e5b200ac8c7c3b92560405160405180910390a45050565b600080611e2283610fe2565b9050806001600160a01b0316846001600160a01b03161480611e6957506001600160a01b038082166000908152606a602090815260408083209388168352929052205460ff165b80611e8d5750836001600160a01b0316611e828461094d565b6001600160a01b0316145b949350505050565b826001600160a01b0316611ea882610fe2565b6001600160a01b031614611f0c5760405162461bcd60e51b815260206004820152602560248201527f4552433732313a207472616e736665722066726f6d20696e636f72726563742060448201526437bbb732b960d91b60648201526084016109e8565b6001600160a01b038216611f6e5760405162461bcd60e51b8152602060048201526024808201527f4552433732313a207472616e7366657220746f20746865207a65726f206164646044820152637265737360e01b60648201526084016109e8565b611f798383836125d1565b611f84600082611da8565b6001600160a01b0383166000908152606860205260408120805460019290611fad908490614064565b90915550506001600160a01b0382166000908152606860205260408120805460019290611fdb908490614077565b909155505060008181526067602052604080822080546001600160a01b0319166001600160a01b0386811691821790925591518493918716917fddf252ad1be2c89b69c2b068fc378daa952ba7f163c4a11628f55a4df523b3ef91a4505050565b610e308133612684565b61205082826126e8565b600082815261012d60205260409020610a89908261276e565b6120738282612783565b600082815261012d60205260409020610a8990826127ea565b6120946127ff565b6097805460ff191690557f5db9ee0a495bf2e6ff9c91a7834c1ba4fdd244a5e8aa4e537bd38aeae4b073aa335b6040516001600160a01b03909116815260200160405180910390a1565b610e0c828260405180602001604052806000815250612848565b6000611597838361287b565b600061210f82610fe2565b905061211d816000846125d1565b612128600083611da8565b6001600160a01b0381166000908152606860205260408120805460019290612151908490614064565b909155505060008281526067602052604080822080546001600160a01b0319169055518391906001600160a01b038416907fddf252ad1be2c89b69c2b068fc378daa952ba7f163c4a11628f55a4df523b3ef908390a45050565b6101f6610e0c8282613f33565b600054610100900460ff166121df5760405162461bcd60e51b81526004016109e89061408a565b610e0c82826128ca565b600054610100900460ff166122105760405162461bcd60e51b81526004016109e89061408a565b61221861221a565b565b600054610100900460ff166122185760405162461bcd60e51b81526004016109e89061408a565b600054610100900460ff166122685760405162461bcd60e51b81526004016109e89061408a565b61221861290a565b600054610100900460ff166122975760405162461bcd60e51b81526004016109e89061408a565b61221861293d565b6122a7612984565b6097805460ff191660011790557f62e78cea01bee320cd4e420270b5ea74000d11b0c9f74754ebdbfc544b05a2586120c13390565b600061159783836129ca565b816001600160a01b0316836001600160a01b0316036123495760405162461bcd60e51b815260206004820152601960248201527f4552433732313a20617070726f766520746f2063616c6c65720000000000000060448201526064016109e8565b6001600160a01b038381166000818152606a6020908152604080832094871680845294825291829020805460ff191686151590811790915591519182527f17307eab39ab6107e8899845ad3d59bd9653f200f220920489ca2b5937696c31910160405180910390a3505050565b6123c1848484611e95565b6123cd848484846129f4565b610f045760405162461bcd60e51b81526004016109e8906140d5565b60006107dd82612af5565b60606123ff82612b14565b60405160200161240f9190614127565b6040516020818303038152906040529050919050565b60006107dd825490565b6060600061159783612c66565b6060816000036124635750506040805180820190915260018152600360fc1b602082015290565b8160005b811561248d578061247781613ed4565b91506124869050600a83614182565b9150612467565b6000816001600160401b038111156124a7576124a7613798565b6040519080825280601f01601f1916602001820160405280156124d1576020820181803683370190505b5090505b8415611e8d576124e6600183614064565b91506124f3600a86614196565b6124fe906030614077565b60f81b81838151811061251357612513613ea8565b60200101906001600160f81b031916908160001a905350612535600a86614182565b94506124d5565b6060600061254c87878787612cc2565b9050600061255984612d50565b9050818160405160200161256e9291906141aa565b6040516020818303038152906040529250505095945050505050565b6001600160a01b03811660009081526001830160205260408120541515611597565b60006001600160e01b0319821663780e9d6360e01b14806107dd57506107dd82612f5b565b6125d9612984565b826125e66102598261258a565b156126295760405162461bcd60e51b8152602060048201526013602482015272426c61636b6c6973746564206164647265737360681b60448201526064016109e8565b826126366102598261258a565b156126795760405162461bcd60e51b8152602060048201526013602482015272426c61636b6c6973746564206164647265737360681b60448201526064016109e8565b610f46858585612f66565b61268e828261159e565b610e0c576126a6816001600160a01b03166014612f71565b6126b1836020612f71565b6040516020016126c29291906141f7565b60408051601f198184030181529082905262461bcd60e51b82526109e8916004016136ea565b6126f2828261159e565b610e0c57600082815260fb602090815260408083206001600160a01b03851684529091529020805460ff1916600117905561272a3390565b6001600160a01b0316816001600160a01b0316837f2f8788117e7eff1d82e926ec794901d17c78024a50270940304540a733656f0d60405160405180910390a45050565b6000611597836001600160a01b03841661287b565b61278d828261159e565b15610e0c57600082815260fb602090815260408083206001600160a01b0385168085529252808320805460ff1916905551339285917ff6391f5c32d9c69d2a47ea670b442974b53935d1edc7fd64eb21e047a839171b9190a45050565b6000611597836001600160a01b03841661310c565b60975460ff166122185760405162461bcd60e51b815260206004820152601460248201527314185d5cd8589b194e881b9bdd081c185d5cd95960621b60448201526064016109e8565b61285283836131ff565b61285f60008484846129f4565b610a895760405162461bcd60e51b81526004016109e8906140d5565b60008181526001830160205260408120546128c2575081546001818101845560008481526020808220909301849055845484825282860190935260409020919091556107dd565b5060006107dd565b600054610100900460ff166128f15760405162461bcd60e51b81526004016109e89061408a565b60656128fd8382613f33565b506066610a898282613f33565b600054610100900460ff166129315760405162461bcd60e51b81526004016109e89061408a565b6097805460ff19169055565b600054610100900460ff166129645760405162461bcd60e51b81526004016109e89061408a565b61296c61221a565b6122186000805160206146d083398151915233612046565b60975460ff16156122185760405162461bcd60e51b815260206004820152601060248201526f14185d5cd8589b194e881c185d5cd95960821b60448201526064016109e8565b60008260000182815481106129e1576129e1613ea8565b9060005260206000200154905092915050565b60006001600160a01b0384163b15612aea57604051630a85bd0160e11b81526001600160a01b0385169063150b7a0290612a3890339089908890889060040161426c565b6020604051808303816000875af1925050508015612a73575060408051601f3d908101601f19168201909252612a70918101906142a9565b60015b612ad0573d808015612aa1576040519150601f19603f3d011682016040523d82523d6000602084013e612aa6565b606091505b508051600003612ac85760405162461bcd60e51b81526004016109e8906140d5565b805181602001fd5b6001600160e01b031916630a85bd0160e11b149050611e8d565b506001949350505050565b6000818152606760205260408120546001600160a01b031615156107dd565b60608151600003612b3357505060408051602081019091526000815290565b60006040518060600160405280604081526020016146506040913990506000600384516002612b629190614077565b612b6c9190614182565b612b779060046142c6565b6001600160401b03811115612b8e57612b8e613798565b6040519080825280601f01601f191660200182016040528015612bb8576020820181803683370190505b509050600182016020820185865187015b80821015612c24576003820191508151603f8160121c168501518453600184019350603f81600c1c168501518453600184019350603f8160061c168501518453600184019350603f8116850151845350600183019250612bc9565b5050600386510660018114612c405760028114612c5357612c5b565b603d6001830353603d6002830353612c5b565b603d60018303535b509195945050505050565b606081600001805480602002602001604051908101604052809291908181526020018280548015612cb657602002820191906000526020600020905b815481526020019060010190808311612ca2575b50505050509050919050565b606060006101f6612cd28761243c565b604051602001612ce39291906142e5565b60405160208183030381529060405290506000612cff87610fe2565b905085612d0b8861243c565b868685612d20866001600160a01b031661333e565b604051602001612d359695949392919061436c565b60405160208183030381529060405292505050949350505050565b60408051602081019091526000808252606091905b8351811015612f3257600060018551612d7e9190614064565b8214612da357604051806040016040528060018152602001600b60fa1b815250612db4565b604051806020016040528060008152505b90506000858381518110612dca57612dca613ea8565b602002602001015160600151612df957604051806040016040528060018152602001601160f91b815250612e0a565b604051806020016040528060008152505b9050600081878581518110612e2157612e21613ea8565b60200260200101516040015183604051602001612e409392919061449c565b60405160208183030381529060405290506000878581518110612e6557612e65613ea8565b60200260200101516020015151600014612ebb57878581518110612e8b57612e8b613ea8565b602002602001015160200151604051602001612ea791906144df565b604051602081830303815290604052612ecc565b604051806020016040528060008152505b9050600086898781518110612ee357612ee3613ea8565b602002602001015160000151838588604051602001612f06959493929190614525565b604051602081830303815290604052905080965050505050508080612f2a90613ed4565b915050612d65565b5080604051602001612f4491906145e0565b604051602081830303815290604052915050919050565b60006107dd82613354565b610a89838383613379565b60606000612f808360026142c6565b612f8b906002614077565b6001600160401b03811115612fa257612fa2613798565b6040519080825280601f01601f191660200182016040528015612fcc576020820181803683370190505b509050600360fc1b81600081518110612fe757612fe7613ea8565b60200101906001600160f81b031916908160001a905350600f60fb1b8160018151811061301657613016613ea8565b60200101906001600160f81b031916908160001a905350600061303a8460026142c6565b613045906001614077565b90505b60018111156130bd576f181899199a1a9b1b9c1cb0b131b232b360811b85600f166010811061307957613079613ea8565b1a60f81b82828151811061308f5761308f613ea8565b60200101906001600160f81b031916908160001a90535060049490941c936130b681614622565b9050613048565b5083156115975760405162461bcd60e51b815260206004820181905260248201527f537472696e67733a20686578206c656e67746820696e73756666696369656e7460448201526064016109e8565b600081815260018301602052604081205480156131f5576000613130600183614064565b855490915060009061314490600190614064565b90508181146131a957600086600001828154811061316457613164613ea8565b906000526020600020015490508087600001848154811061318757613187613ea8565b6000918252602080832090910192909255918252600188019052604090208390555b85548690806131ba576131ba614639565b6001900381819060005260206000200160009055905585600101600086815260200190815260200160002060009055600193505050506107dd565b60009150506107dd565b6001600160a01b0382166132555760405162461bcd60e51b815260206004820181905260248201527f4552433732313a206d696e7420746f20746865207a65726f206164647265737360448201526064016109e8565b61325e816123e9565b156132ab5760405162461bcd60e51b815260206004820152601c60248201527f4552433732313a20746f6b656e20616c7265616479206d696e7465640000000060448201526064016109e8565b6132b7600083836125d1565b6001600160a01b03821660009081526068602052604081208054600192906132e0908490614077565b909155505060008181526067602052604080822080546001600160a01b0319166001600160a01b03861690811790915590518392907fddf252ad1be2c89b69c2b068fc378daa952ba7f163c4a11628f55a4df523b3ef908290a45050565b60606107dd6001600160a01b0383166014612f71565b60006001600160e01b03198216635a05180f60e01b14806107dd57506107dd82613433565b6001600160a01b0383166133d6576133d1816101948054600083815261019560205260408120829055600182018355919091527fa6f1ac7ad7b125ba5a5e1c96b00ad6914f90a503b1ac3d85a9dadbb4c639df920155565b6133f9565b816001600160a01b0316836001600160a01b0316146133f9576133f98382613458565b6001600160a01b03821661341057610a89816134fa565b826001600160a01b0316826001600160a01b031614610a8957610a8982826135af565b60006001600160e01b03198216637965db0b60e01b14806107dd57506107dd826135f5565b6000600161346584611114565b61346f9190614064565b600083815261019360205260409020549091508082146134c5576001600160a01b038416600090815261019260209081526040808320858452825280832054848452818420819055835261019390915290208190555b506000918252610193602090815260408084208490556001600160a01b03909416835261019281528383209183525290812055565b6101945460009061350d90600190614064565b60008381526101956020526040812054610194805493945090928490811061353757613537613ea8565b9060005260206000200154905080610194838154811061355957613559613ea8565b6000918252602080832090910192909255828152610195909152604080822084905585825281205561019480548061359357613593614639565b6001900381819060005260206000200160009055905550505050565b60006135ba83611114565b6001600160a01b0390931660009081526101926020908152604080832086845282528083208590559382526101939052919091209190915550565b60006001600160e01b031982166380ac58cd60e01b148061362657506001600160e01b03198216635b5e139f60e01b145b806107dd57506301ffc9a760e01b6001600160e01b03198316146107dd565b6001600160e01b031981168114610e3057600080fd5b60006020828403121561366d57600080fd5b813561159781613645565b6000806040838503121561368b57600080fd5b50508035926020909101359150565b60005b838110156136b557818101518382015260200161369d565b50506000910152565b600081518084526136d681602086016020860161369a565b601f01601f19169290920160200192915050565b60208152600061159760208301846136be565b60006020828403121561370f57600080fd5b5035919050565b80356001600160a01b038116811461372d57600080fd5b919050565b6000806040838503121561374557600080fd5b61374e83613716565b946020939093013593505050565b60008060006060848603121561377157600080fd5b61377a84613716565b925061378860208501613716565b9150604084013590509250925092565b634e487b7160e01b600052604160045260246000fd5b604051601f8201601f191681016001600160401b03811182821017156137d6576137d6613798565b604052919050565b600082601f8301126137ef57600080fd5b813560206001600160401b0382111561380a5761380a613798565b8160051b6138198282016137ae565b928352848101820192828101908785111561383357600080fd5b83870192505b8483101561385257823582529183019190830190613839565b979650505050505050565b60006020828403121561386f57600080fd5b81356001600160401b0381111561388557600080fd5b611e8d848285016137de565b6000602080830181845280855180835260408601915060408160051b870101925083870160005b828110156138e657603f198886030184526138d48583516136be565b945092850192908501906001016138b8565b5092979650505050505050565b6000806040838503121561390657600080fd5b8235915061391660208401613716565b90509250929050565b6000806040838503121561393257600080fd5b82356001600160401b0381111561394857600080fd5b613954858286016137de565b95602094909401359450505050565b60008060006060848603121561397857600080fd5b505081359360208301359350604090920135919050565b600080604083850312156139a257600080fd5b6139ab83613716565b915060208301356001600160401b038111156139c657600080fd5b6139d2858286016137de565b9150509250929050565b60006001600160401b038311156139f5576139f5613798565b613a08601f8401601f19166020016137ae565b9050828152838383011115613a1c57600080fd5b828260208301376000602084830101529392505050565b600082601f830112613a4457600080fd5b611597838335602085016139dc565b600080600060608486031215613a6857600080fd5b833592506020840135915060408401356001600160401b03811115613a8c57600080fd5b613a9886828701613a33565b9150509250925092565b600060208284031215613ab457600080fd5b81356001600160401b03811115613aca57600080fd5b611e8d84828501613a33565b600060208284031215613ae857600080fd5b61159782613716565b60008060008060808587031215613b0757600080fd5b84356001600160401b0380821115613b1e57600080fd5b613b2a888389016137de565b95506020870135915080821115613b4057600080fd5b613b4c888389016137de565b94506040870135915080821115613b6257600080fd5b613b6e888389016137de565b93506060870135915080821115613b8457600080fd5b50613b91878288016137de565b91505092959194509250565b6020808252825182820181905260009190848201906040850190845b81811015613bd557835183529284019291840191600101613bb9565b50909695505050505050565b60008060408385031215613bf457600080fd5b8235915060208301356001600160401b038111156139c657600080fd5b60008060408385031215613c2457600080fd5b613c2d83613716565b915060208301358015158114613c4257600080fd5b809150509250929050565b60008060008060808587031215613c6357600080fd5b5050823594602084013594506040840135936060013592509050565b60008060008060808587031215613c9557600080fd5b613c9e85613716565b9350613cac60208601613716565b92506040850135915060608501356001600160401b03811115613cce57600080fd5b8501601f81018713613cdf57600080fd5b613b91878235602084016139dc565b600080600060608486031215613d0357600080fd5b833592506020840135915060408401356001600160401b03811115613d2757600080fd5b613a98868287016137de565b6020808252825182820181905260009190848201906040850190845b81811015613bd55783516001600160a01b031683529284019291840191600101613d4f565b60008060008060808587031215613d8a57600080fd5b843593506020850135925060408501356001600160401b0380821115613b6257600080fd5b60008060408385031215613dc257600080fd5b613dcb83613716565b915061391660208401613716565b600080600060608486031215613dee57600080fd5b613df784613716565b9250613e0560208501613716565b915060408401356001600160401b03811115613d2757600080fd5b600181811c90821680613e3457607f821691505b602082108103613e5457634e487b7160e01b600052602260045260246000fd5b50919050565b6020808252602e908201527f4552433732313a2063616c6c6572206973206e6f7420746f6b656e206f776e6560408201526d1c881b9bdc88185c1c1c9bdd995960921b606082015260800190565b634e487b7160e01b600052603260045260246000fd5b634e487b7160e01b600052601160045260246000fd5b600060018201613ee657613ee6613ebe565b5060010190565b601f821115610a8957600081815260208120601f850160051c81016020861015613f145750805b601f850160051c820191505b818110156112ff57828155600101613f20565b81516001600160401b03811115613f4c57613f4c613798565b613f6081613f5a8454613e20565b84613eed565b602080601f831160018114613f955760008415613f7d5750858301515b600019600386901b1c1916600185901b1785556112ff565b600085815260208120601f198616915b82811015613fc457888601518255948401946001909101908401613fa5565b5085821015613fe25787850151600019600388901b60f8161c191681555b5050505050600190811b01905550565b828152604060208201526000611e8d60408301846136be565b6000815161401d81856020860161369a565b9290920192915050565b66021b7b9b6b4b1960cd1b81526000825161404981600785016020870161369a565b631022b63360e11b6007939091019283015250600b01919050565b818103818111156107dd576107dd613ebe565b808201808211156107dd576107dd613ebe565b6020808252602b908201527f496e697469616c697a61626c653a20636f6e7472616374206973206e6f74206960408201526a6e697469616c697a696e6760a81b606082015260800190565b60208082526032908201527f4552433732313a207472616e7366657220746f206e6f6e20455243373231526560408201527131b2b4bb32b91034b6b83632b6b2b73a32b960711b606082015260800190565b7f646174613a6170706c69636174696f6e2f6a736f6e3b6261736536342c00000081526000825161415f81601d85016020870161369a565b91909101601d0192915050565b634e487b7160e01b600052601260045260246000fd5b6000826141915761419161416c565b500490565b6000826141a5576141a561416c565b500690565b607b60f81b8152600083516141c681600185016020880161369a565b8351908301906141dd81600184016020880161369a565b607d60f81b60019290910191820152600201949350505050565b7f416363657373436f6e74726f6c3a206163636f756e742000000000000000000081526000835161422f81601785016020880161369a565b7001034b99036b4b9b9b4b733903937b6329607d1b601791840191820152835161426081602884016020880161369a565b01602801949350505050565b6001600160a01b038581168252841660208201526040810183905260806060820181905260009061429f908301846136be565b9695505050505050565b6000602082840312156142bb57600080fd5b815161159781613645565b60008160001904831182151516156142e0576142e0613ebe565b500290565b60008084546142f381613e20565b6001828116801561430b57600181146143205761434f565b60ff198416875282151583028701945061434f565b8860005260208060002060005b858110156143465781548a82015290840190820161432d565b50505082870194505b50505050835161436381836020880161369a565b01949350505050565b67113730b6b2911d1160c11b81528651600090614390816008850160208c0161369a565b61202360f01b60089184019182015287516143b281600a840160208c0161369a565b61088b60f21b600a929091019182018190526d1131bab9ba37b6a730b6b2911d1160911b600c83015287516143ee81601a850160208c0161369a565b601a9201918201526e113232b9b1b934b83a34b7b7111d1160891b601c82015261448f61447361442f61446d6144588261445261443d82602b8a018f61400b565b61088b60f21b815260020190565b681134b6b0b3b2911d1160b91b815260090190565b8b61400b565b681137bbb732b9111d1160b91b815260090190565b8761400b565b6f089d1e5c19488e88915490cdcc8c488b60821b815260100190565b9998505050505050505050565b600084516144ae81846020890161369a565b8451908301906144c281836020890161369a565b84519101906144d581836020880161369a565b0195945050505050565b703d913234b9b83630bcafba3cb832911d1160791b8152815160009061450c81601185016020870161369a565b61088b60f21b6011939091019283015250601301919050565b60008651614537818460208b0161369a565b6e3d913a3930b4ba2fba3cb832911d1160891b908301908152865161456381600f840160208b0161369a565b61088b60f21b600f92909101918201528551614586816011840160208a0161369a565b67113b30b63ab2911d60c11b6011929091019182015284516145af81601984016020890161369a565b607d60f81b6019929091019182015283516145d181601a84016020880161369a565b01601a01979650505050505050565b6d2261747472696275746573223a5b60901b8152815160009061460a81600e85016020870161369a565b605d60f81b600e939091019283015250600f01919050565b60008161463157614631613ebe565b506000190190565b634e487b7160e01b600052603160045260246000fdfe4142434445464748494a4b4c4d4e4f505152535455565758595a6162636465666768696a6b6c6d6e6f707172737475767778797a303132333435363738392b2f9f2df0fed2c77648de5860a4cc508cd0818c85b8b8a1ab4ceeef8d981c8956a6a49807205ce4d355092ef5a8a18f56e8913cf4a201fbe287825b095693c21775364d3d7565c7a8300c96fd53e065d19b65848d7b23b3191adcd55621c744223ca26469706673582212202dc3c7a288032b86faec01bb69fd68147020bcb9c4988527bc3c6641c5ce604664736f6c63430008100033",
  "linkReferences": {},
  "deployedLinkReferences": {}
}