{
  "_format": "hh-sol-artifact-1",
  "contractName": "CosmicElves",
  "sourceName": "contracts/upgradeable/ERC721/CosmicElves.sol",
  "abi": [
    {
      "inputs": [],
      "stateMutability": "nonpayable",
      "type": "constructor"
    },
    {
      "anonymous": false,
      "inputs": [
        {
          "indexed": true,
          "internalType": "address",
          "name": "owner",
          "type": "address"
        },
        {
          "indexed": true,
          "internalType": "address",
          "name": "approved",
          "type": "address"
        },
        {
          "indexed": true,
          "internalType": "uint256",
          "name": "tokenId",
          "type": "uint256"
        }
      ],
      "name": "Approval",
      "type": "event"
    },
    {
      "anonymous": false,
      "inputs": [
        {
          "indexed": true,
          "internalType": "address",
          "name": "owner",
          "type": "address"
        },
        {
          "indexed": true,
          "internalType": "address",
          "name": "operator",
          "type": "address"
        },
        {
          "indexed": false,
          "internalType": "bool",
          "name": "approved",
          "type": "bool"
        }
      ],
      "name": "ApprovalForAll",
      "type": "event"
    },
    {
      "anonymous": false,
      "inputs": [
        {
          "indexed": false,
          "internalType": "uint8",
          "name": "version",
          "type": "uint8"
        }
      ],
      "name": "Initialized",
      "type": "event"
    },
    {
      "anonymous": false,
      "inputs": [
        {
          "indexed": false,
          "internalType": "address",
          "name": "account",
          "type": "address"
        }
      ],
      "name": "Paused",
      "type": "event"
    },
    {
      "anonymous": false,
      "inputs": [
        {
          "indexed": true,
          "internalType": "bytes32",
          "name": "role",
          "type": "bytes32"
        },
        {
          "indexed": true,
          "internalType": "bytes32",
          "name": "previousAdminRole",
          "type": "bytes32"
        },
        {
          "indexed": true,
          "internalType": "bytes32",
          "name": "newAdminRole",
          "type": "bytes32"
        }
      ],
      "name": "RoleAdminChanged",
      "type": "event"
    },
    {
      "anonymous": false,
      "inputs": [
        {
          "indexed": true,
          "internalType": "bytes32",
          "name": "role",
          "type": "bytes32"
        },
        {
          "indexed": true,
          "internalType": "address",
          "name": "account",
          "type": "address"
        },
        {
          "indexed": true,
          "internalType": "address",
          "name": "sender",
          "type": "address"
        }
      ],
      "name": "RoleGranted",
      "type": "event"
    },
    {
      "anonymous": false,
      "inputs": [
        {
          "indexed": true,
          "internalType": "bytes32",
          "name": "role",
          "type": "bytes32"
        },
        {
          "indexed": true,
          "internalType": "address",
          "name": "account",
          "type": "address"
        },
        {
          "indexed": true,
          "internalType": "address",
          "name": "sender",
          "type": "address"
        }
      ],
      "name": "RoleRevoked",
      "type": "event"
    },
    {
      "anonymous": false,
      "inputs": [
        {
          "indexed": true,
          "internalType": "uint256",
          "name": "tokenId",
          "type": "uint256"
        },
        {
          "indexed": false,
          "internalType": "uint256",
          "name": "customId",
          "type": "uint256"
        },
        {
          "indexed": false,
          "internalType": "string",
          "name": "value",
          "type": "string"
        }
      ],
      "name": "TextUpdated",
      "type": "event"
    },
    {
      "anonymous": false,
      "inputs": [
        {
          "indexed": true,
          "internalType": "address",
          "name": "from",
          "type": "address"
        },
        {
          "indexed": true,
          "internalType": "address",
          "name": "to",
          "type": "address"
        },
        {
          "indexed": true,
          "internalType": "uint256",
          "name": "tokenId",
          "type": "uint256"
        }
      ],
      "name": "Transfer",
      "type": "event"
    },
    {
      "anonymous": false,
      "inputs": [
        {
          "indexed": false,
          "internalType": "address",
          "name": "account",
          "type": "address"
        }
      ],
      "name": "Unpaused",
      "type": "event"
    },
    {
      "anonymous": false,
      "inputs": [
        {
          "indexed": true,
          "internalType": "uint256",
          "name": "tokenId",
          "type": "uint256"
        },
        {
          "indexed": false,
          "internalType": "uint256",
          "name": "treeId",
          "type": "uint256"
        },
        {
          "indexed": false,
          "internalType": "uint256",
          "name": "skillId",
          "type": "uint256"
        },
        {
          "indexed": false,
          "internalType": "uint256",
          "name": "value",
          "type": "uint256"
        }
      ],
      "name": "ValueUpdated",
      "type": "event"
    },
    {
      "inputs": [],
      "name": "ADMIN_ROLE",
      "outputs": [
        {
          "internalType": "bytes32",
          "name": "",
          "type": "bytes32"
        }
      ],
      "stateMutability": "view",
      "type": "function"
    },
    {
      "inputs": [],
      "name": "CONTRACT_ROLE",
      "outputs": [
        {
          "internalType": "bytes32",
          "name": "",
          "type": "bytes32"
        }
      ],
      "stateMutability": "view",
      "type": "function"
    },
    {
      "inputs": [],
      "name": "DEFAULT_ADMIN_ROLE",
      "outputs": [
        {
          "internalType": "bytes32",
          "name": "",
          "type": "bytes32"
        }
      ],
      "stateMutability": "view",
      "type": "function"
    },
    {
      "inputs": [],
      "name": "MINTER_ROLE",
      "outputs": [
        {
          "internalType": "bytes32",
          "name": "",
          "type": "bytes32"
        }
      ],
      "stateMutability": "view",
      "type": "function"
    },
    {
      "inputs": [
        {
          "internalType": "address",
          "name": "to",
          "type": "address"
        },
        {
          "internalType": "uint256",
          "name": "tokenId",
          "type": "uint256"
        }
      ],
      "name": "approve",
      "outputs": [],
      "stateMutability": "nonpayable",
      "type": "function"
    },
    {
      "inputs": [
        {
          "internalType": "address",
          "name": "owner",
          "type": "address"
        }
      ],
      "name": "balanceOf",
      "outputs": [
        {
          "internalType": "uint256",
          "name": "",
          "type": "uint256"
        }
      ],
      "stateMutability": "view",
      "type": "function"
    },
    {
      "inputs": [
        {
          "internalType": "address",
          "name": "to",
          "type": "address"
        },
        {
          "internalType": "uint256[]",
          "name": "tokenIds",
          "type": "uint256[]"
        }
      ],
      "name": "batchMint",
      "outputs": [],
      "stateMutability": "nonpayable",
      "type": "function"
    },
    {
      "inputs": [
        {
          "internalType": "uint256[]",
          "name": "tokenIds",
          "type": "uint256[]"
        }
      ],
      "name": "batchTokenURI",
      "outputs": [
        {
          "internalType": "string[]",
          "name": "",
          "type": "string[]"
        }
      ],
      "stateMutability": "view",
      "type": "function"
    },
    {
      "inputs": [
        {
          "internalType": "address",
          "name": "from",
          "type": "address"
        },
        {
          "internalType": "address",
          "name": "to",
          "type": "address"
        },
        {
          "internalType": "uint256[]",
          "name": "tokenIds",
          "type": "uint256[]"
        }
      ],
      "name": "batchTransferFrom",
      "outputs": [],
      "stateMutability": "nonpayable",
      "type": "function"
    },
    {
      "inputs": [
        {
          "internalType": "uint256[]",
          "name": "tokenIds",
          "type": "uint256[]"
        },
        {
          "internalType": "uint256[]",
          "name": "treeIds",
          "type": "uint256[]"
        },
        {
          "internalType": "uint256[]",
          "name": "skillIds",
          "type": "uint256[]"
        },
        {
          "internalType": "uint256[]",
          "name": "values",
          "type": "uint256[]"
        }
      ],
      "name": "batchUpdateSkills",
      "outputs": [],
      "stateMutability": "nonpayable",
      "type": "function"
    },
    {
      "inputs": [
        {
          "internalType": "uint256",
          "name": "tokenId",
          "type": "uint256"
        },
        {
          "internalType": "uint256",
          "name": "treeId",
          "type": "uint256"
        },
        {
          "internalType": "uint256[]",
          "name": "skillIds",
          "type": "uint256[]"
        },
        {
          "internalType": "uint256[]",
          "name": "values",
          "type": "uint256[]"
        }
      ],
      "name": "batchUpdateSkillsOfToken",
      "outputs": [],
      "stateMutability": "nonpayable",
      "type": "function"
    },
    {
      "inputs": [
        {
          "internalType": "uint256",
          "name": "tokenId",
          "type": "uint256"
        }
      ],
      "name": "burn",
      "outputs": [],
      "stateMutability": "nonpayable",
      "type": "function"
    },
    {
      "inputs": [],
      "name": "getAllTokenIds",
      "outputs": [
        {
          "internalType": "uint256[]",
          "name": "",
          "type": "uint256[]"
        }
      ],
      "stateMutability": "view",
      "type": "function"
    },
    {
      "inputs": [
        {
          "internalType": "uint256",
          "name": "tokenId",
          "type": "uint256"
        }
      ],
      "name": "getApproved",
      "outputs": [
        {
          "internalType": "address",
          "name": "",
          "type": "address"
        }
      ],
      "stateMutability": "view",
      "type": "function"
    },
    {
      "inputs": [],
      "name": "getBlacklisted",
      "outputs": [
        {
          "internalType": "address[]",
          "name": "",
          "type": "address[]"
        }
      ],
      "stateMutability": "view",
      "type": "function"
    },
    {
      "inputs": [
        {
          "internalType": "bytes32",
          "name": "role",
          "type": "bytes32"
        }
      ],
      "name": "getRoleAdmin",
      "outputs": [
        {
          "internalType": "bytes32",
          "name": "",
          "type": "bytes32"
        }
      ],
      "stateMutability": "view",
      "type": "function"
    },
    {
      "inputs": [
        {
          "internalType": "bytes32",
          "name": "role",
          "type": "bytes32"
        },
        {
          "internalType": "uint256",
          "name": "index",
          "type": "uint256"
        }
      ],
      "name": "getRoleMember",
      "outputs": [
        {
          "internalType": "address",
          "name": "",
          "type": "address"
        }
      ],
      "stateMutability": "view",
      "type": "function"
    },
    {
      "inputs": [
        {
          "internalType": "bytes32",
          "name": "role",
          "type": "bytes32"
        }
      ],
      "name": "getRoleMemberCount",
      "outputs": [
        {
          "internalType": "uint256",
          "name": "",
          "type": "uint256"
        }
      ],
      "stateMutability": "view",
      "type": "function"
    },
    {
      "inputs": [
        {
          "internalType": "uint256",
          "name": "tokenId",
          "type": "uint256"
        },
        {
          "internalType": "uint256",
          "name": "treeId",
          "type": "uint256"
        },
        {
          "internalType": "uint256",
          "name": "skillId",
          "type": "uint256"
        }
      ],
      "name": "getSkill",
      "outputs": [
        {
          "internalType": "uint256",
          "name": "",
          "type": "uint256"
        }
      ],
      "stateMutability": "view",
      "type": "function"
    },
    {
      "inputs": [
        {
          "internalType": "uint256",
          "name": "treeId",
          "type": "uint256"
        },
        {
          "internalType": "uint256",
          "name": "skillId",
          "type": "uint256"
        }
      ],
      "name": "getSkillName",
      "outputs": [
        {
          "internalType": "string",
          "name": "",
          "type": "string"
        }
      ],
      "stateMutability": "view",
      "type": "function"
    },
    {
      "inputs": [
        {
          "internalType": "uint256",
          "name": "tokenId",
          "type": "uint256"
        },
        {
          "internalType": "uint256",
          "name": "treeId",
          "type": "uint256"
        },
        {
          "internalType": "uint256[]",
          "name": "skillIds",
          "type": "uint256[]"
        }
      ],
      "name": "getSkillsByTree",
      "outputs": [
        {
          "internalType": "uint256[]",
          "name": "",
          "type": "uint256[]"
        }
      ],
      "stateMutability": "view",
      "type": "function"
    },
    {
      "inputs": [
        {
          "internalType": "uint256",
          "name": "tokenId",
          "type": "uint256"
        },
        {
          "internalType": "uint256",
          "name": "customId",
          "type": "uint256"
        }
      ],
      "name": "getString",
      "outputs": [
        {
          "internalType": "string",
          "name": "",
          "type": "string"
        }
      ],
      "stateMutability": "view",
      "type": "function"
    },
    {
      "inputs": [
        {
          "internalType": "uint256[]",
          "name": "tokenIds",
          "type": "uint256[]"
        },
        {
          "internalType": "uint256",
          "name": "customId",
          "type": "uint256"
        }
      ],
      "name": "getStringOfTokens",
      "outputs": [
        {
          "internalType": "string[]",
          "name": "",
          "type": "string[]"
        }
      ],
      "stateMutability": "view",
      "type": "function"
    },
    {
      "inputs": [
        {
          "internalType": "uint256",
          "name": "tokenId",
          "type": "uint256"
        },
        {
          "internalType": "uint256[]",
          "name": "customIds",
          "type": "uint256[]"
        }
      ],
      "name": "getStrings",
      "outputs": [
        {
          "internalType": "string[]",
          "name": "",
          "type": "string[]"
        }
      ],
      "stateMutability": "view",
      "type": "function"
    },
    {
      "inputs": [
        {
          "internalType": "bytes32",
          "name": "role",
          "type": "bytes32"
        },
        {
          "internalType": "address",
          "name": "account",
          "type": "address"
        }
      ],
      "name": "grantRole",
      "outputs": [],
      "stateMutability": "nonpayable",
      "type": "function"
    },
    {
      "inputs": [
        {
          "internalType": "bytes32",
          "name": "role",
          "type": "bytes32"
        },
        {
          "internalType": "address",
          "name": "account",
          "type": "address"
        }
      ],
      "name": "hasRole",
      "outputs": [
        {
          "internalType": "bool",
          "name": "",
          "type": "bool"
        }
      ],
      "stateMutability": "view",
      "type": "function"
    },
    {
      "inputs": [],
      "name": "imageBaseURI",
      "outputs": [
        {
          "internalType": "string",
          "name": "",
          "type": "string"
        }
      ],
      "stateMutability": "view",
      "type": "function"
    },
    {
      "inputs": [],
      "name": "initialize",
      "outputs": [],
      "stateMutability": "nonpayable",
      "type": "function"
    },
    {
      "inputs": [
        {
          "internalType": "address",
          "name": "owner",
          "type": "address"
        },
        {
          "internalType": "address",
          "name": "operator",
          "type": "address"
        }
      ],
      "name": "isApprovedForAll",
      "outputs": [
        {
          "internalType": "bool",
          "name": "",
          "type": "bool"
        }
      ],
      "stateMutability": "view",
      "type": "function"
    },
    {
      "inputs": [
        {
          "internalType": "address",
          "name": "user",
          "type": "address"
        }
      ],
      "name": "isBlacklisted",
      "outputs": [
        {
          "internalType": "bool",
          "name": "",
          "type": "bool"
        }
      ],
      "stateMutability": "view",
      "type": "function"
    },
    {
      "inputs": [
        {
          "internalType": "address",
          "name": "to",
          "type": "address"
        },
        {
          "internalType": "uint256",
          "name": "tokenId",
          "type": "uint256"
        }
      ],
      "name": "mint",
      "outputs": [],
      "stateMutability": "nonpayable",
      "type": "function"
    },
    {
      "inputs": [],
      "name": "name",
      "outputs": [
        {
          "internalType": "string",
          "name": "",
          "type": "string"
        }
      ],
      "stateMutability": "view",
      "type": "function"
    },
    {
      "inputs": [
        {
          "internalType": "uint256",
          "name": "tokenId",
          "type": "uint256"
        }
      ],
      "name": "ownerOf",
      "outputs": [
        {
          "internalType": "address",
          "name": "",
          "type": "address"
        }
      ],
      "stateMutability": "view",
      "type": "function"
    },
    {
      "inputs": [],
      "name": "pause",
      "outputs": [],
      "stateMutability": "nonpayable",
      "type": "function"
    },
    {
      "inputs": [],
      "name": "paused",
      "outputs": [
        {
          "internalType": "bool",
          "name": "",
          "type": "bool"
        }
      ],
      "stateMutability": "view",
      "type": "function"
    },
    {
      "inputs": [
        {
          "internalType": "bytes32",
          "name": "role",
          "type": "bytes32"
        },
        {
          "internalType": "address",
          "name": "account",
          "type": "address"
        }
      ],
      "name": "renounceRole",
      "outputs": [],
      "stateMutability": "nonpayable",
      "type": "function"
    },
    {
      "inputs": [
        {
          "internalType": "bytes32",
          "name": "role",
          "type": "bytes32"
        },
        {
          "internalType": "address",
          "name": "account",
          "type": "address"
        }
      ],
      "name": "revokeRole",
      "outputs": [],
      "stateMutability": "nonpayable",
      "type": "function"
    },
    {
      "inputs": [
        {
          "internalType": "address",
          "name": "from",
          "type": "address"
        },
        {
          "internalType": "address",
          "name": "to",
          "type": "address"
        },
        {
          "internalType": "uint256",
          "name": "tokenId",
          "type": "uint256"
        }
      ],
      "name": "safeTransferFrom",
      "outputs": [],
      "stateMutability": "nonpayable",
      "type": "function"
    },
    {
      "inputs": [
        {
          "internalType": "address",
          "name": "from",
          "type": "address"
        },
        {
          "internalType": "address",
          "name": "to",
          "type": "address"
        },
        {
          "internalType": "uint256",
          "name": "tokenId",
          "type": "uint256"
        },
        {
          "internalType": "bytes",
          "name": "data",
          "type": "bytes"
        }
      ],
      "name": "safeTransferFrom",
      "outputs": [],
      "stateMutability": "nonpayable",
      "type": "function"
    },
    {
      "inputs": [
        {
          "internalType": "address",
          "name": "operator",
          "type": "address"
        },
        {
          "internalType": "bool",
          "name": "approved",
          "type": "bool"
        }
      ],
      "name": "setApprovalForAll",
      "outputs": [],
      "stateMutability": "nonpayable",
      "type": "function"
    },
    {
      "inputs": [
        {
          "internalType": "string",
          "name": "_imageBaseURI",
          "type": "string"
        }
      ],
      "name": "setImageBaseURI",
      "outputs": [],
      "stateMutability": "nonpayable",
      "type": "function"
    },
    {
      "inputs": [
        {
          "internalType": "uint256",
          "name": "treeId",
          "type": "uint256"
        },
        {
          "internalType": "uint256",
          "name": "skillId",
          "type": "uint256"
        },
        {
          "internalType": "string",
          "name": "name",
          "type": "string"
        }
      ],
      "name": "setSkillName",
      "outputs": [],
      "stateMutability": "nonpayable",
      "type": "function"
    },
    {
      "inputs": [
        {
          "internalType": "bytes4",
          "name": "interfaceId",
          "type": "bytes4"
        }
      ],
      "name": "supportsInterface",
      "outputs": [
        {
          "internalType": "bool",
          "name": "",
          "type": "bool"
        }
      ],
      "stateMutability": "view",
      "type": "function"
    },
    {
      "inputs": [],
      "name": "symbol",
      "outputs": [
        {
          "internalType": "string",
          "name": "",
          "type": "string"
        }
      ],
      "stateMutability": "view",
      "type": "function"
    },
    {
      "inputs": [
        {
          "internalType": "uint256",
          "name": "index",
          "type": "uint256"
        }
      ],
      "name": "tokenByIndex",
      "outputs": [
        {
          "internalType": "uint256",
          "name": "",
          "type": "uint256"
        }
      ],
      "stateMutability": "view",
      "type": "function"
    },
    {
      "inputs": [
        {
          "internalType": "address",
          "name": "owner",
          "type": "address"
        },
        {
          "internalType": "uint256",
          "name": "index",
          "type": "uint256"
        }
      ],
      "name": "tokenOfOwnerByIndex",
      "outputs": [
        {
          "internalType": "uint256",
          "name": "",
          "type": "uint256"
        }
      ],
      "stateMutability": "view",
      "type": "function"
    },
    {
      "inputs": [
        {
          "internalType": "uint256",
          "name": "tokenId",
          "type": "uint256"
        }
      ],
      "name": "tokenURI",
      "outputs": [
        {
          "internalType": "string",
          "name": "",
          "type": "string"
        }
      ],
      "stateMutability": "view",
      "type": "function"
    },
    {
      "inputs": [
        {
          "internalType": "address",
          "name": "owner",
          "type": "address"
        }
      ],
      "name": "tokensOfOwner",
      "outputs": [
        {
          "internalType": "uint256[]",
          "name": "",
          "type": "uint256[]"
        }
      ],
      "stateMutability": "view",
      "type": "function"
    },
    {
      "inputs": [],
      "name": "totalSupply",
      "outputs": [
        {
          "internalType": "uint256",
          "name": "",
          "type": "uint256"
        }
      ],
      "stateMutability": "view",
      "type": "function"
    },
    {
      "inputs": [
        {
          "internalType": "address",
          "name": "from",
          "type": "address"
        },
        {
          "internalType": "address",
          "name": "to",
          "type": "address"
        },
        {
          "internalType": "uint256",
          "name": "tokenId",
          "type": "uint256"
        }
      ],
      "name": "transferFrom",
      "outputs": [],
      "stateMutability": "nonpayable",
      "type": "function"
    },
    {
      "inputs": [],
      "name": "unpause",
      "outputs": [],
      "stateMutability": "nonpayable",
      "type": "function"
    },
    {
      "inputs": [
        {
          "internalType": "uint256",
          "name": "tokenId",
          "type": "uint256"
        },
        {
          "internalType": "uint256",
          "name": "treeId",
          "type": "uint256"
        },
        {
          "internalType": "uint256",
          "name": "skillId",
          "type": "uint256"
        },
        {
          "internalType": "uint256",
          "name": "value",
          "type": "uint256"
        }
      ],
      "name": "updateSkill",
      "outputs": [],
      "stateMutability": "nonpayable",
      "type": "function"
    },
    {
      "inputs": [
        {
          "internalType": "uint256",
          "name": "tokenId",
          "type": "uint256"
        },
        {
          "internalType": "uint256",
          "name": "customId",
          "type": "uint256"
        },
        {
          "internalType": "string",
          "name": "value",
          "type": "string"
        }
      ],
      "name": "updateString",
      "outputs": [],
      "stateMutability": "nonpayable",
      "type": "function"
    }
  ],
  "bytecode": "0x60806040523480156200001157600080fd5b506200001c62000022565b620000e4565b600054610100900460ff16156200008f5760405162461bcd60e51b815260206004820152602760248201527f496e697469616c697a61626c653a20636f6e747261637420697320696e697469604482015266616c697a696e6760c81b606482015260840160405180910390fd5b60005460ff9081161015620000e2576000805460ff191660ff9081179091556040519081527f7f26b83ff96e1f2b6a682f133852f6798a09c465da95921460cefb38474024989060200160405180910390a15b565b61440180620000f46000396000f3fe608060405234801561001057600080fd5b50600436106103275760003560e01c806370a08231116101b8578063b5afb12011610104578063d5391393116100a2578063e985e9c51161007c578063e985e9c514610701578063ed0af2091461073d578063f3993d1114610750578063fe575a871461076357600080fd5b8063d5391393146106c6578063d547741f146106db578063e2862b6b146106ee57600080fd5b8063c7e05590116100de578063c7e0559014610678578063c87b56dd1461068b578063ca15c8731461069e578063ce3675ad146106b157600080fd5b8063b5afb1201461064a578063b88d4fde1461065d578063bdbed7221461067057600080fd5b80638462151c1161017157806395d89b411161014b57806395d89b41146106145780639e8afe471461061c578063a217fddf1461062f578063a22cb4651461063757600080fd5b80638462151c146105ce5780639010d07c146105ee57806391d148541461060157600080fd5b806370a082311461057b57806375b238fc1461058e57806377645839146105a35780637efa1902146105ab5780638129fc1c146105be5780638456cb59146105c657600080fd5b806336568abe116102775780634684d7e9116102305780635c975abb1161020a5780635c975abb146105375780636352211e146105425780636cfa24cc146105555780636d94f13a1461056857600080fd5b80634684d7e9146104fe5780634b5f4fe6146105115780634f6ccce71461052457600080fd5b806336568abe146104775780633f4ba83a1461048a57806340c10f191461049257806342842e0e146104a557806342966c68146104b85780634594762a146104cb57600080fd5b8063095ea7b3116102e4578063248a9ca3116102be578063248a9ca31461040e5780632f2ff15d146104315780632f745c5914610444578063352b75331461045757600080fd5b8063095ea7b3146103dd57806318160ddd146103f257806323b872dd146103fb57600080fd5b806301ffc9a71461032c57806303fe46ab1461035457806306b674441461037757806306fdde0314610397578063079be4931461039f578063081812fc146103b2575b600080fd5b61033f61033a3660046133b8565b610776565b60405190151581526020015b60405180910390f35b6103696000805160206143ac83398151915281565b60405190815260200161034b565b61038a6103853660046133d5565b610787565b60405161034b9190613447565b61038a610836565b61038a6103ad3660046133d5565b6108c8565b6103c56103c036600461345a565b6108f1565b6040516001600160a01b03909116815260200161034b565b6103f06103eb36600461348f565b610918565b005b61019454610369565b6103f06104093660046134b9565b610a32565b61036961041c36600461345a565b600090815260fb602052604090206001015490565b6103f061043f3660046134f5565b610a64565b61036961045236600461348f565b610a89565b61046a6104653660046135e6565b610b20565b60405161034b919061362a565b6103f06104853660046134f5565b610c7e565b6103f0610cfc565b6103f06104a036600461348f565b610d1f565b6103f06104b33660046134b9565b610d41565b6103f06104c636600461345a565b610d5c565b6103696104d936600461368c565b6000928352610228602090815260408085209385529281528284209184525290205490565b6103f061050c3660046136b8565b610d97565b6103f061051f36600461377c565b610df6565b61036961053236600461345a565b610e39565b60975460ff1661033f565b6103c561055036600461345a565b610ece565b6103f06105633660046137cb565b610f2e565b61046a6105763660046137ff565b610f4f565b610369610589366004613833565b611007565b61036960008051602061438c83398151915281565b61038a61108d565b6103f06105b936600461384e565b61111c565b6103f06111fa565b6103f06113b8565b6105e16105dc366004613833565b6113d8565b60405161034b91906138fa565b6103c56105fc3660046133d5565b611471565b61033f61060f3660046134f5565b611491565b61038a6114bc565b61046a61062a36600461393e565b6114cb565b610369600081565b6103f061064536600461396e565b611621565b6103f06106583660046139aa565b61162c565b6103f061066b3660046139dc565b6116b1565b6105e16116e3565b6105e1610686366004613a4b565b6117cd565b61038a61069936600461345a565b6118a2565b6103696106ac36600461345a565b611a6d565b6106b9611a85565b60405161034b9190613a90565b61036960008051602061436c83398151915281565b6103f06106e93660046134f5565b611a97565b6103f06106fc366004613ad1565b611abc565b61033f61070f366004613b0c565b6001600160a01b039182166000908152606a6020908152604080832093909416825291909152205460ff1690565b6103f061074b36600461377c565b611b60565b6103f061075e366004613b36565b611bdd565b61033f610771366004613833565b611c1f565b600061078182611c2d565b92915050565b60008281526102296020908152604080832084845290915290208054606091906107b090613b7d565b80601f01602080910402602001604051908101604052809291908181526020018280546107dc90613b7d565b80156108295780601f106107fe57610100808354040283529160200191610829565b820191906000526020600020905b81548152906001019060200180831161080c57829003601f168201915b5050505050905092915050565b60606065805461084590613b7d565b80601f016020809104026020016040519081016040528092919081815260200182805461087190613b7d565b80156108be5780601f10610893576101008083540402835291602001916108be565b820191906000526020600020905b8154815290600101906020018083116108a157829003601f168201915b5050505050905090565b600082815261022a6020908152604080832084845290915290208054606091906107b090613b7d565b60006108fc82611c38565b506000908152606960205260409020546001600160a01b031690565b600061092382610ece565b9050806001600160a01b0316836001600160a01b0316036109955760405162461bcd60e51b815260206004820152602160248201527f4552433732313a20617070726f76616c20746f2063757272656e74206f776e656044820152603960f91b60648201526084015b60405180910390fd5b336001600160a01b03821614806109b157506109b1813361070f565b610a235760405162461bcd60e51b815260206004820152603e60248201527f4552433732313a20617070726f76652063616c6c6572206973206e6f7420746f60448201527f6b656e206f776e6572206e6f7220617070726f76656420666f7220616c6c0000606482015260840161098c565b610a2d8383611c88565b505050565b610a3d335b82611cf6565b610a595760405162461bcd60e51b815260040161098c90613bb7565b610a2d838383611d75565b600082815260fb6020526040902060010154610a7f81611f1c565b610a2d8383611f26565b6000610a9483611007565b8210610af65760405162461bcd60e51b815260206004820152602b60248201527f455243373231456e756d657261626c653a206f776e657220696e646578206f7560448201526a74206f6620626f756e647360a81b606482015260840161098c565b506001600160a01b0391909116600090815261019260209081526040808320938352929052205490565b6060600083516001600160401b03811115610b3d57610b3d613521565b604051908082528060200260200182016040528015610b7057816020015b6060815260200190600190039081610b5b5790505b50905060005b8451811015610c765761022a6000868381518110610b9657610b96613c05565b6020026020010151815260200190815260200160002060008581526020019081526020016000208054610bc890613b7d565b80601f0160208091040260200160405190810160405280929190818152602001828054610bf490613b7d565b8015610c415780601f10610c1657610100808354040283529160200191610c41565b820191906000526020600020905b815481529060010190602001808311610c2457829003601f168201915b5050505050828281518110610c5857610c58613c05565b60200260200101819052508080610c6e90613c31565b915050610b76565b509392505050565b6001600160a01b0381163314610cee5760405162461bcd60e51b815260206004820152602f60248201527f416363657373436f6e74726f6c3a2063616e206f6e6c792072656e6f756e636560448201526e103937b632b9903337b91039b2b63360891b606482015260840161098c565b610cf88282611f49565b5050565b60008051602061438c833981519152610d1481611f1c565b610d1c611f6c565b50565b60008051602061436c833981519152610d3781611f1c565b610a2d8383611fbe565b610a2d838383604051806020016040528060008152506116b1565b610d6533610a37565b610d815760405162461bcd60e51b815260040161098c90613bb7565b610d8d61015f82611fd8565b50610d1c81611fe4565b60008051602061436c833981519152610daf81611f1c565b60005b8251811015610df057610dde84848381518110610dd157610dd1613c05565b6020026020010151611fbe565b80610de881613c31565b915050610db2565b50505050565b6000805160206143ac833981519152610e0e81611f1c565b6000848152610229602090815260408083208684529091529020610e328382613c90565b5050505050565b6000610e456101945490565b8210610ea85760405162461bcd60e51b815260206004820152602c60248201527f455243373231456e756d657261626c653a20676c6f62616c20696e646578206f60448201526b7574206f6620626f756e647360a01b606482015260840161098c565b6101948281548110610ebc57610ebc613c05565b90600052602060002001549050919050565b6000818152606760205260408120546001600160a01b0316806107815760405162461bcd60e51b8152602060048201526018602482015277115490cdcc8c4e881a5b9d985b1a59081d1bdad95b88125160421b604482015260640161098c565b60008051602061438c833981519152610f4681611f1c565b610cf88261208b565b6060600082516001600160401b03811115610f6c57610f6c613521565b604051908082528060200260200182016040528015610f9f57816020015b6060815260200190600190039081610f8a5790505b50905060005b835181101561100057610fd0848281518110610fc357610fc3613c05565b60200260200101516118a2565b828281518110610fe257610fe2613c05565b60200260200101819052508080610ff890613c31565b915050610fa5565b5092915050565b60006001600160a01b0382166110715760405162461bcd60e51b815260206004820152602960248201527f4552433732313a2061646472657373207a65726f206973206e6f7420612076616044820152683634b21037bbb732b960b91b606482015260840161098c565b506001600160a01b031660009081526068602052604090205490565b6101f6805461109b90613b7d565b80601f01602080910402602001604051908101604052809291908181526020018280546110c790613b7d565b80156111145780601f106110e957610100808354040283529160200191611114565b820191906000526020600020905b8154815290600101906020018083116110f757829003601f168201915b505050505081565b6000805160206143ac83398151915261113481611f1c565b60005b85518110156111f25782818151811061115257611152613c05565b6020026020010151610228600088848151811061117157611171613c05565b60200260200101518152602001908152602001600020600087848151811061119b5761119b613c05565b6020026020010151815260200190815260200160002060008684815181106111c5576111c5613c05565b602002602001015181526020019081526020016000208190555080806111ea90613c31565b915050611137565b505050505050565b600054610100900460ff161580801561121a5750600054600160ff909116105b806112345750303b158015611234575060005460ff166001145b6112975760405162461bcd60e51b815260206004820152602e60248201527f496e697469616c697a61626c653a20636f6e747261637420697320616c72656160448201526d191e481a5b9a5d1a585b1a5e995960921b606482015260840161098c565b6000805460ff1916600117905580156112ba576000805461ff0019166101001790555b6113056040518060400160405280600c81526020016b436f736d696320456c76657360a01b81525060405180604001604052806005815260200164454c56455360d81b815250612098565b61130d6120c9565b6113156120fa565b61131d612121565b6113256120fa565b61132d6120c9565b611335612150565b611340600033611f26565b61135860008051602061438c83398151915233611f26565b61137060008051602061436c83398151915233611f26565b8015610d1c576000805461ff0019169055604051600181527f7f26b83ff96e1f2b6a682f133852f6798a09c465da95921460cefb38474024989060200160405180910390a150565b60008051602061438c8339815191526113d081611f1c565b610d1c61217f565b606060006113e583611007565b90506000816001600160401b0381111561140157611401613521565b60405190808252806020026020018201604052801561142a578160200160208202803683370190505b50905060005b82811015610c76576114428582610a89565b82828151811061145457611454613c05565b60209081029190910101528061146981613c31565b915050611430565b600082815261012d6020526040812061148a90836121bc565b9392505050565b600091825260fb602090815260408084206001600160a01b0393909316845291905290205460ff1690565b60606066805461084590613b7d565b6060600082516001600160401b038111156114e8576114e8613521565b60405190808252806020026020018201604052801561151b57816020015b60608152602001906001900390816115065790505b50905060005b8351811015610c765761022a6000868152602001908152602001600020600085838151811061155257611552613c05565b60200260200101518152602001908152602001600020805461157390613b7d565b80601f016020809104026020016040519081016040528092919081815260200182805461159f90613b7d565b80156115ec5780601f106115c1576101008083540402835291602001916115ec565b820191906000526020600020905b8154815290600101906020018083116115cf57829003601f168201915b505050505082828151811061160357611603613c05565b6020026020010181905250808061161990613c31565b915050611521565b610cf83383836121c8565b6000805160206143ac83398151915261164481611f1c565b6000858152610228602090815260408083208784528252808320868452825291829020849055815186815290810185905290810183905285907fc3bdb5f4a3cbb68ce4ebe3dda3660f3067add044dc5be3a047d818fd416663699060600160405180910390a25050505050565b6116bb3383611cf6565b6116d75760405162461bcd60e51b815260040161098c90613bb7565b610df084848484612296565b6060600060015b612710811015611722576116fd816122c9565b15611710578161170c81613c31565b9250505b8061171a81613c31565b9150506116ea565b506000816001600160401b0381111561173d5761173d613521565b604051908082528060200260200182016040528015611766578160200160208202803683370190505b509050600060015b6127108110156117c457611781816122c9565b156117b2578083838151811061179957611799613c05565b6020908102919091010152816117ae81613c31565b9250505b806117bc81613c31565b91505061176e565b50909392505050565b6060600082516001600160401b038111156117ea576117ea613521565b604051908082528060200260200182016040528015611813578160200160208202803683370190505b50905060005b8351811015611899576000868152610228602090815260408083208884529091528120855190919086908490811061185357611853613c05565b602002602001015181526020019081526020016000205482828151811061187c5761187c613c05565b60209081029190910101528061189181613c31565b915050611819565b50949350505050565b600081815261022860209081526040808320838052825280832090915281205460609190156118ef576040518060400160405280600681526020016546656d616c6560d01b81525061190d565b604051806040016040528060048152602001634d616c6560e01b8152505b90506000816040516020016119229190613d6b565b60408051808303601f19018152600b8084526101808401909252925060009190816020015b61197460405180608001604052806060815260200160608152602001606081526020016000151581525090565b81526020019060019003908161194757905050905060005b600b811015611a285760405180608001604052806119ab600084610787565b815260408051602081810183526000808352818501929092528a8252610228815282822082805281528282208683529052819020549101906119ec906122d4565b815260200160001515815250828281518110611a0a57611a0a613c05565b60200260200101819052508080611a2090613c31565b91505061198c565b50611a648583611a398860006108c8565b6040518060400160405280600c81526020016b209021b7b9b6b4b19022b63360a11b815250856123d4565b95945050505050565b600081815261012d6020526040812061078190612422565b6060611a9261025961242c565b905090565b600082815260fb6020526040902060010154611ab281611f1c565b610a2d8383611f49565b6000805160206143ac833981519152611ad481611f1c565b60005b83518110156111f257828181518110611af257611af2613c05565b6020026020010151610228600088815260200190815260200160002060008781526020019081526020016000206000868481518110611b3357611b33613c05565b60200260200101518152602001908152602001600020819055508080611b5890613c31565b915050611ad7565b6000805160206143ac833981519152611b7881611f1c565b600084815261022a602090815260408083208684529091529020611b9c8382613c90565b50837fbf91c112c44cd8e958afe3106b290f594b5e23b83fcc88bdb9ac5da7f00be5698484604051611bcf929190613da8565b60405180910390a250505050565b60005b8151811015610df057611c0d8484848481518110611c0057611c00613c05565b6020026020010151610a32565b80611c1781613c31565b915050611be0565b600061078161025983612439565b60006107818261245b565b611c41816122c9565b610d1c5760405162461bcd60e51b8152602060048201526018602482015277115490cdcc8c4e881a5b9d985b1a59081d1bdad95b88125160421b604482015260640161098c565b600081815260696020526040902080546001600160a01b0319166001600160a01b0384169081179091558190611cbd82610ece565b6001600160a01b03167f8c5be1e5ebec7d5bd14f71427d1e84f3dd0314c0f7b2291e5b200ac8c7c3b92560405160405180910390a45050565b600080611d0283610ece565b9050806001600160a01b0316846001600160a01b03161480611d4957506001600160a01b038082166000908152606a602090815260408083209388168352929052205460ff165b80611d6d5750836001600160a01b0316611d62846108f1565b6001600160a01b0316145b949350505050565b826001600160a01b0316611d8882610ece565b6001600160a01b031614611dec5760405162461bcd60e51b815260206004820152602560248201527f4552433732313a207472616e736665722066726f6d20696e636f72726563742060448201526437bbb732b960d91b606482015260840161098c565b6001600160a01b038216611e4e5760405162461bcd60e51b8152602060048201526024808201527f4552433732313a207472616e7366657220746f20746865207a65726f206164646044820152637265737360e01b606482015260840161098c565b611e59838383612480565b611e64600082611c88565b6001600160a01b0383166000908152606860205260408120805460019290611e8d908490613dc1565b90915550506001600160a01b0382166000908152606860205260408120805460019290611ebb908490613dd4565b909155505060008181526067602052604080822080546001600160a01b0319166001600160a01b0386811691821790925591518493918716917fddf252ad1be2c89b69c2b068fc378daa952ba7f163c4a11628f55a4df523b3ef91a4505050565b610d1c8133612533565b611f308282612597565b600082815261012d60205260409020610a2d908261261d565b611f538282612632565b600082815261012d60205260409020610a2d9082612699565b611f746126ae565b6097805460ff191690557f5db9ee0a495bf2e6ff9c91a7834c1ba4fdd244a5e8aa4e537bd38aeae4b073aa335b6040516001600160a01b03909116815260200160405180910390a1565b610cf88282604051806020016040528060008152506126f7565b600061148a838361272a565b6000611fef82610ece565b9050611ffd81600084612480565b612008600083611c88565b6001600160a01b0381166000908152606860205260408120805460019290612031908490613dc1565b909155505060008281526067602052604080822080546001600160a01b0319169055518391906001600160a01b038416907fddf252ad1be2c89b69c2b068fc378daa952ba7f163c4a11628f55a4df523b3ef908390a45050565b6101f6610cf88282613c90565b600054610100900460ff166120bf5760405162461bcd60e51b815260040161098c90613de7565b610cf88282612779565b600054610100900460ff166120f05760405162461bcd60e51b815260040161098c90613de7565b6120f86120fa565b565b600054610100900460ff166120f85760405162461bcd60e51b815260040161098c90613de7565b600054610100900460ff166121485760405162461bcd60e51b815260040161098c90613de7565b6120f86127b9565b600054610100900460ff166121775760405162461bcd60e51b815260040161098c90613de7565b6120f86127ec565b612187612833565b6097805460ff191660011790557f62e78cea01bee320cd4e420270b5ea74000d11b0c9f74754ebdbfc544b05a258611fa13390565b600061148a8383612879565b816001600160a01b0316836001600160a01b0316036122295760405162461bcd60e51b815260206004820152601960248201527f4552433732313a20617070726f766520746f2063616c6c657200000000000000604482015260640161098c565b6001600160a01b038381166000818152606a6020908152604080832094871680845294825291829020805460ff191686151590811790915591519182527f17307eab39ab6107e8899845ad3d59bd9653f200f220920489ca2b5937696c31910160405180910390a3505050565b6122a1848484611d75565b6122ad848484846128a3565b610df05760405162461bcd60e51b815260040161098c90613e32565b6000610781826129a4565b6060816000036122fb5750506040805180820190915260018152600360fc1b602082015290565b8160005b8115612325578061230f81613c31565b915061231e9050600a83613e9a565b91506122ff565b6000816001600160401b0381111561233f5761233f613521565b6040519080825280601f01601f191660200182016040528015612369576020820181803683370190505b5090505b8415611d6d5761237e600183613dc1565b915061238b600a86613eae565b612396906030613dd4565b60f81b8183815181106123ab576123ab613c05565b60200101906001600160f81b031916908160001a9053506123cd600a86613e9a565b945061236d565b606060006123e4878787876129c3565b905060006123f184612a51565b90508181604051602001612406929190613ec2565b6040516020818303038152906040529250505095945050505050565b6000610781825490565b6060600061148a83612c5c565b6001600160a01b0381166000908152600183016020526040812054151561148a565b60006001600160e01b0319821663780e9d6360e01b1480610781575061078182612cb8565b612488612833565b8261249561025982612439565b156124d85760405162461bcd60e51b8152602060048201526013602482015272426c61636b6c6973746564206164647265737360681b604482015260640161098c565b826124e561025982612439565b156125285760405162461bcd60e51b8152602060048201526013602482015272426c61636b6c6973746564206164647265737360681b604482015260640161098c565b610e32858585612cc3565b61253d8282611491565b610cf857612555816001600160a01b03166014612cce565b612560836020612cce565b604051602001612571929190613f0f565b60408051601f198184030181529082905262461bcd60e51b825261098c91600401613447565b6125a18282611491565b610cf857600082815260fb602090815260408083206001600160a01b03851684529091529020805460ff191660011790556125d93390565b6001600160a01b0316816001600160a01b0316837f2f8788117e7eff1d82e926ec794901d17c78024a50270940304540a733656f0d60405160405180910390a45050565b600061148a836001600160a01b03841661272a565b61263c8282611491565b15610cf857600082815260fb602090815260408083206001600160a01b0385168085529252808320805460ff1916905551339285917ff6391f5c32d9c69d2a47ea670b442974b53935d1edc7fd64eb21e047a839171b9190a45050565b600061148a836001600160a01b038416612e69565b60975460ff166120f85760405162461bcd60e51b815260206004820152601460248201527314185d5cd8589b194e881b9bdd081c185d5cd95960621b604482015260640161098c565b6127018383612f5c565b61270e60008484846128a3565b610a2d5760405162461bcd60e51b815260040161098c90613e32565b600081815260018301602052604081205461277157508154600181810184556000848152602080822090930184905584548482528286019093526040902091909155610781565b506000610781565b600054610100900460ff166127a05760405162461bcd60e51b815260040161098c90613de7565b60656127ac8382613c90565b506066610a2d8282613c90565b600054610100900460ff166127e05760405162461bcd60e51b815260040161098c90613de7565b6097805460ff19169055565b600054610100900460ff166128135760405162461bcd60e51b815260040161098c90613de7565b61281b6120fa565b6120f86000805160206143ac83398151915233611f26565b60975460ff16156120f85760405162461bcd60e51b815260206004820152601060248201526f14185d5cd8589b194e881c185d5cd95960821b604482015260640161098c565b600082600001828154811061289057612890613c05565b9060005260206000200154905092915050565b60006001600160a01b0384163b1561299957604051630a85bd0160e11b81526001600160a01b0385169063150b7a02906128e7903390899088908890600401613f84565b6020604051808303816000875af1925050508015612922575060408051601f3d908101601f1916820190925261291f91810190613fc1565b60015b61297f573d808015612950576040519150601f19603f3d011682016040523d82523d6000602084013e612955565b606091505b5080516000036129775760405162461bcd60e51b815260040161098c90613e32565b805181602001fd5b6001600160e01b031916630a85bd0160e11b149050611d6d565b506001949350505050565b6000818152606760205260408120546001600160a01b03161515610781565b606060006101f66129d3876122d4565b6040516020016129e4929190613fde565b60405160208183030381529060405290506000612a0087610ece565b905085612a0c886122d4565b868685612a21866001600160a01b031661309b565b604051602001612a3696959493929190614065565b60405160208183030381529060405292505050949350505050565b60408051602081019091526000808252606091905b8351811015612c3357600060018551612a7f9190613dc1565b8214612aa457604051806040016040528060018152602001600b60fa1b815250612ab5565b604051806020016040528060008152505b90506000858381518110612acb57612acb613c05565b602002602001015160600151612afa57604051806040016040528060018152602001601160f91b815250612b0b565b604051806020016040528060008152505b9050600081878581518110612b2257612b22613c05565b60200260200101516040015183604051602001612b4193929190614199565b60405160208183030381529060405290506000878581518110612b6657612b66613c05565b60200260200101516020015151600014612bbc57878581518110612b8c57612b8c613c05565b602002602001015160200151604051602001612ba891906141dc565b604051602081830303815290604052612bcd565b604051806020016040528060008152505b9050600086898781518110612be457612be4613c05565b602002602001015160000151838588604051602001612c07959493929190614222565b604051602081830303815290604052905080965050505050508080612c2b90613c31565b915050612a66565b5080604051602001612c4591906142dd565b604051602081830303815290604052915050919050565b606081600001805480602002602001604051908101604052809291908181526020018280548015612cac57602002820191906000526020600020905b815481526020019060010190808311612c98575b50505050509050919050565b6000610781826130b1565b610a2d8383836130d6565b60606000612cdd83600261431f565b612ce8906002613dd4565b6001600160401b03811115612cff57612cff613521565b6040519080825280601f01601f191660200182016040528015612d29576020820181803683370190505b509050600360fc1b81600081518110612d4457612d44613c05565b60200101906001600160f81b031916908160001a905350600f60fb1b81600181518110612d7357612d73613c05565b60200101906001600160f81b031916908160001a9053506000612d9784600261431f565b612da2906001613dd4565b90505b6001811115612e1a576f181899199a1a9b1b9c1cb0b131b232b360811b85600f1660108110612dd657612dd6613c05565b1a60f81b828281518110612dec57612dec613c05565b60200101906001600160f81b031916908160001a90535060049490941c93612e138161433e565b9050612da5565b50831561148a5760405162461bcd60e51b815260206004820181905260248201527f537472696e67733a20686578206c656e67746820696e73756666696369656e74604482015260640161098c565b60008181526001830160205260408120548015612f52576000612e8d600183613dc1565b8554909150600090612ea190600190613dc1565b9050818114612f06576000866000018281548110612ec157612ec1613c05565b9060005260206000200154905080876000018481548110612ee457612ee4613c05565b6000918252602080832090910192909255918252600188019052604090208390555b8554869080612f1757612f17614355565b600190038181906000526020600020016000905590558560010160008681526020019081526020016000206000905560019350505050610781565b6000915050610781565b6001600160a01b038216612fb25760405162461bcd60e51b815260206004820181905260248201527f4552433732313a206d696e7420746f20746865207a65726f2061646472657373604482015260640161098c565b612fbb816122c9565b156130085760405162461bcd60e51b815260206004820152601c60248201527f4552433732313a20746f6b656e20616c7265616479206d696e74656400000000604482015260640161098c565b61301460008383612480565b6001600160a01b038216600090815260686020526040812080546001929061303d908490613dd4565b909155505060008181526067602052604080822080546001600160a01b0319166001600160a01b03861690811790915590518392907fddf252ad1be2c89b69c2b068fc378daa952ba7f163c4a11628f55a4df523b3ef908290a45050565b60606107816001600160a01b0383166014612cce565b60006001600160e01b03198216635a05180f60e01b1480610781575061078182613190565b6001600160a01b0383166131335761312e816101948054600083815261019560205260408120829055600182018355919091527fa6f1ac7ad7b125ba5a5e1c96b00ad6914f90a503b1ac3d85a9dadbb4c639df920155565b613156565b816001600160a01b0316836001600160a01b0316146131565761315683826131b5565b6001600160a01b03821661316d57610a2d81613257565b826001600160a01b0316826001600160a01b031614610a2d57610a2d828261330c565b60006001600160e01b03198216637965db0b60e01b1480610781575061078182613352565b600060016131c284611007565b6131cc9190613dc1565b60008381526101936020526040902054909150808214613222576001600160a01b038416600090815261019260209081526040808320858452825280832054848452818420819055835261019390915290208190555b506000918252610193602090815260408084208490556001600160a01b03909416835261019281528383209183525290812055565b6101945460009061326a90600190613dc1565b60008381526101956020526040812054610194805493945090928490811061329457613294613c05565b906000526020600020015490508061019483815481106132b6576132b6613c05565b600091825260208083209091019290925582815261019590915260408082208490558582528120556101948054806132f0576132f0614355565b6001900381819060005260206000200160009055905550505050565b600061331783611007565b6001600160a01b0390931660009081526101926020908152604080832086845282528083208590559382526101939052919091209190915550565b60006001600160e01b031982166380ac58cd60e01b148061338357506001600160e01b03198216635b5e139f60e01b145b8061078157506301ffc9a760e01b6001600160e01b0319831614610781565b6001600160e01b031981168114610d1c57600080fd5b6000602082840312156133ca57600080fd5b813561148a816133a2565b600080604083850312156133e857600080fd5b50508035926020909101359150565b60005b838110156134125781810151838201526020016133fa565b50506000910152565b600081518084526134338160208601602086016133f7565b601f01601f19169290920160200192915050565b60208152600061148a602083018461341b565b60006020828403121561346c57600080fd5b5035919050565b80356001600160a01b038116811461348a57600080fd5b919050565b600080604083850312156134a257600080fd5b6134ab83613473565b946020939093013593505050565b6000806000606084860312156134ce57600080fd5b6134d784613473565b92506134e560208501613473565b9150604084013590509250925092565b6000806040838503121561350857600080fd5b8235915061351860208401613473565b90509250929050565b634e487b7160e01b600052604160045260246000fd5b604051601f8201601f191681016001600160401b038111828210171561355f5761355f613521565b604052919050565b600082601f83011261357857600080fd5b813560206001600160401b0382111561359357613593613521565b8160051b6135a2828201613537565b92835284810182019282810190878511156135bc57600080fd5b83870192505b848310156135db578235825291830191908301906135c2565b979650505050505050565b600080604083850312156135f957600080fd5b82356001600160401b0381111561360f57600080fd5b61361b85828601613567565b95602094909401359450505050565b6000602080830181845280855180835260408601915060408160051b870101925083870160005b8281101561367f57603f1988860301845261366d85835161341b565b94509285019290850190600101613651565b5092979650505050505050565b6000806000606084860312156136a157600080fd5b505081359360208301359350604090920135919050565b600080604083850312156136cb57600080fd5b6136d483613473565b915060208301356001600160401b038111156136ef57600080fd5b6136fb85828601613567565b9150509250929050565b60006001600160401b0383111561371e5761371e613521565b613731601f8401601f1916602001613537565b905082815283838301111561374557600080fd5b828260208301376000602084830101529392505050565b600082601f83011261376d57600080fd5b61148a83833560208501613705565b60008060006060848603121561379157600080fd5b833592506020840135915060408401356001600160401b038111156137b557600080fd5b6137c18682870161375c565b9150509250925092565b6000602082840312156137dd57600080fd5b81356001600160401b038111156137f357600080fd5b611d6d8482850161375c565b60006020828403121561381157600080fd5b81356001600160401b0381111561382757600080fd5b611d6d84828501613567565b60006020828403121561384557600080fd5b61148a82613473565b6000806000806080858703121561386457600080fd5b84356001600160401b038082111561387b57600080fd5b61388788838901613567565b9550602087013591508082111561389d57600080fd5b6138a988838901613567565b945060408701359150808211156138bf57600080fd5b6138cb88838901613567565b935060608701359150808211156138e157600080fd5b506138ee87828801613567565b91505092959194509250565b6020808252825182820181905260009190848201906040850190845b8181101561393257835183529284019291840191600101613916565b50909695505050505050565b6000806040838503121561395157600080fd5b8235915060208301356001600160401b038111156136ef57600080fd5b6000806040838503121561398157600080fd5b61398a83613473565b91506020830135801515811461399f57600080fd5b809150509250929050565b600080600080608085870312156139c057600080fd5b5050823594602084013594506040840135936060013592509050565b600080600080608085870312156139f257600080fd5b6139fb85613473565b9350613a0960208601613473565b92506040850135915060608501356001600160401b03811115613a2b57600080fd5b8501601f81018713613a3c57600080fd5b6138ee87823560208401613705565b600080600060608486031215613a6057600080fd5b833592506020840135915060408401356001600160401b03811115613a8457600080fd5b6137c186828701613567565b6020808252825182820181905260009190848201906040850190845b818110156139325783516001600160a01b031683529284019291840191600101613aac565b60008060008060808587031215613ae757600080fd5b843593506020850135925060408501356001600160401b03808211156138bf57600080fd5b60008060408385031215613b1f57600080fd5b613b2883613473565b915061351860208401613473565b600080600060608486031215613b4b57600080fd5b613b5484613473565b9250613b6260208501613473565b915060408401356001600160401b03811115613a8457600080fd5b600181811c90821680613b9157607f821691505b602082108103613bb157634e487b7160e01b600052602260045260246000fd5b50919050565b6020808252602e908201527f4552433732313a2063616c6c6572206973206e6f7420746f6b656e206f776e6560408201526d1c881b9bdc88185c1c1c9bdd995960921b606082015260800190565b634e487b7160e01b600052603260045260246000fd5b634e487b7160e01b600052601160045260246000fd5b600060018201613c4357613c43613c1b565b5060010190565b601f821115610a2d57600081815260208120601f850160051c81016020861015613c715750805b601f850160051c820191505b818110156111f257828155600101613c7d565b81516001600160401b03811115613ca957613ca9613521565b613cbd81613cb78454613b7d565b84613c4a565b602080601f831160018114613cf25760008415613cda5750858301515b600019600386901b1c1916600185901b1785556111f2565b600085815260208120601f198616915b82811015613d2157888601518255948401946001909101908401613d02565b5085821015613d3f5787850151600019600388901b60f8161c191681555b5050505050600190811b01905550565b60008151613d618185602086016133f7565b9290920192915050565b66021b7b9b6b4b1960cd1b815260008251613d8d8160078501602087016133f7565b631022b63360e11b6007939091019283015250600b01919050565b828152604060208201526000611d6d604083018461341b565b8181038181111561078157610781613c1b565b8082018082111561078157610781613c1b565b6020808252602b908201527f496e697469616c697a61626c653a20636f6e7472616374206973206e6f74206960408201526a6e697469616c697a696e6760a81b606082015260800190565b60208082526032908201527f4552433732313a207472616e7366657220746f206e6f6e20455243373231526560408201527131b2b4bb32b91034b6b83632b6b2b73a32b960711b606082015260800190565b634e487b7160e01b600052601260045260246000fd5b600082613ea957613ea9613e84565b500490565b600082613ebd57613ebd613e84565b500690565b607b60f81b815260008351613ede8160018501602088016133f7565b835190830190613ef58160018401602088016133f7565b607d60f81b60019290910191820152600201949350505050565b7f416363657373436f6e74726f6c3a206163636f756e7420000000000000000000815260008351613f478160178501602088016133f7565b7001034b99036b4b9b9b4b733903937b6329607d1b6017918401918201528351613f788160288401602088016133f7565b01602801949350505050565b6001600160a01b0385811682528416602082015260408101839052608060608201819052600090613fb79083018461341b565b9695505050505050565b600060208284031215613fd357600080fd5b815161148a816133a2565b6000808454613fec81613b7d565b60018281168015614004576001811461401957614048565b60ff1984168752821515830287019450614048565b8860005260208060002060005b8581101561403f5781548a820152908401908201614026565b50505082870194505b50505050835161405c8183602088016133f7565b01949350505050565b67113730b6b2911d1160c11b81528651600090614089816008850160208c016133f7565b61202360f01b60089184019182015287516140ab81600a840160208c016133f7565b61088b60f21b600a929091019182018190526d1131bab9ba37b6a730b6b2911d1160911b600c83015287516140e781601a850160208c016133f7565b601a9201918201526f113232b9b1b934b83a34b7b7111d101160811b601c82015261418c61416f6141296141696141538261414d61413782602c8a018f613d4f565b61088b60f21b815260020190565b691134b6b0b3b2911d101160b11b8152600a0190565b8b613d4f565b691137bbb732b9111d101160b11b8152600a0190565b87613d4f565b70089d1e5c19488e8808915490cdcc8c488b607a1b815260110190565b9998505050505050505050565b600084516141ab8184602089016133f7565b8451908301906141bf8183602089016133f7565b84519101906141d28183602088016133f7565b0195945050505050565b703d913234b9b83630bcafba3cb832911d1160791b815281516000906142098160118501602087016133f7565b61088b60f21b6011939091019283015250601301919050565b60008651614234818460208b016133f7565b6e3d913a3930b4ba2fba3cb832911d1160891b908301908152865161426081600f840160208b016133f7565b61088b60f21b600f92909101918201528551614283816011840160208a016133f7565b67113b30b63ab2911d60c11b6011929091019182015284516142ac8160198401602089016133f7565b607d60f81b6019929091019182015283516142ce81601a8401602088016133f7565b01601a01979650505050505050565b6d2261747472696275746573223a5b60901b8152815160009061430781600e8501602087016133f7565b605d60f81b600e939091019283015250600f01919050565b600081600019048311821515161561433957614339613c1b565b500290565b60008161434d5761434d613c1b565b506000190190565b634e487b7160e01b600052603160045260246000fdfe9f2df0fed2c77648de5860a4cc508cd0818c85b8b8a1ab4ceeef8d981c8956a6a49807205ce4d355092ef5a8a18f56e8913cf4a201fbe287825b095693c21775364d3d7565c7a8300c96fd53e065d19b65848d7b23b3191adcd55621c744223ca2646970667358221220f5bf4af535cafc4f55d295f045c547f7ff952fef4275e74c51ec78616e32c1ad64736f6c63430008100033",
  "linkReferences": {},
  "deployedLinkReferences": {}
}