{
  "_format": "hh-sol-artifact-1",
  "contractName": "CosmicElves",
  "sourceName": "contracts/upgradeable/ERC721/CosmicElves.sol",
  "abi": [
    {
      "inputs": [],
      "stateMutability": "nonpayable",
      "type": "constructor"
    },
    {
      "anonymous": false,
      "inputs": [
        {
          "indexed": true,
          "internalType": "address",
          "name": "owner",
          "type": "address"
        },
        {
          "indexed": true,
          "internalType": "address",
          "name": "approved",
          "type": "address"
        },
        {
          "indexed": true,
          "internalType": "uint256",
          "name": "tokenId",
          "type": "uint256"
        }
      ],
      "name": "Approval",
      "type": "event"
    },
    {
      "anonymous": false,
      "inputs": [
        {
          "indexed": true,
          "internalType": "address",
          "name": "owner",
          "type": "address"
        },
        {
          "indexed": true,
          "internalType": "address",
          "name": "operator",
          "type": "address"
        },
        {
          "indexed": false,
          "internalType": "bool",
          "name": "approved",
          "type": "bool"
        }
      ],
      "name": "ApprovalForAll",
      "type": "event"
    },
    {
      "anonymous": false,
      "inputs": [
        {
          "indexed": false,
          "internalType": "uint8",
          "name": "version",
          "type": "uint8"
        }
      ],
      "name": "Initialized",
      "type": "event"
    },
    {
      "anonymous": false,
      "inputs": [
        {
          "indexed": false,
          "internalType": "address",
          "name": "account",
          "type": "address"
        }
      ],
      "name": "Paused",
      "type": "event"
    },
    {
      "anonymous": false,
      "inputs": [
        {
          "indexed": true,
          "internalType": "bytes32",
          "name": "role",
          "type": "bytes32"
        },
        {
          "indexed": true,
          "internalType": "bytes32",
          "name": "previousAdminRole",
          "type": "bytes32"
        },
        {
          "indexed": true,
          "internalType": "bytes32",
          "name": "newAdminRole",
          "type": "bytes32"
        }
      ],
      "name": "RoleAdminChanged",
      "type": "event"
    },
    {
      "anonymous": false,
      "inputs": [
        {
          "indexed": true,
          "internalType": "bytes32",
          "name": "role",
          "type": "bytes32"
        },
        {
          "indexed": true,
          "internalType": "address",
          "name": "account",
          "type": "address"
        },
        {
          "indexed": true,
          "internalType": "address",
          "name": "sender",
          "type": "address"
        }
      ],
      "name": "RoleGranted",
      "type": "event"
    },
    {
      "anonymous": false,
      "inputs": [
        {
          "indexed": true,
          "internalType": "bytes32",
          "name": "role",
          "type": "bytes32"
        },
        {
          "indexed": true,
          "internalType": "address",
          "name": "account",
          "type": "address"
        },
        {
          "indexed": true,
          "internalType": "address",
          "name": "sender",
          "type": "address"
        }
      ],
      "name": "RoleRevoked",
      "type": "event"
    },
    {
      "anonymous": false,
      "inputs": [
        {
          "indexed": true,
          "internalType": "uint256",
          "name": "tokenId",
          "type": "uint256"
        },
        {
          "indexed": false,
          "internalType": "uint256",
          "name": "customId",
          "type": "uint256"
        },
        {
          "indexed": false,
          "internalType": "string",
          "name": "value",
          "type": "string"
        }
      ],
      "name": "TextUpdated",
      "type": "event"
    },
    {
      "anonymous": false,
      "inputs": [
        {
          "indexed": true,
          "internalType": "address",
          "name": "from",
          "type": "address"
        },
        {
          "indexed": true,
          "internalType": "address",
          "name": "to",
          "type": "address"
        },
        {
          "indexed": true,
          "internalType": "uint256",
          "name": "tokenId",
          "type": "uint256"
        }
      ],
      "name": "Transfer",
      "type": "event"
    },
    {
      "anonymous": false,
      "inputs": [
        {
          "indexed": false,
          "internalType": "address",
          "name": "account",
          "type": "address"
        }
      ],
      "name": "Unpaused",
      "type": "event"
    },
    {
      "anonymous": false,
      "inputs": [
        {
          "indexed": true,
          "internalType": "uint256",
          "name": "tokenId",
          "type": "uint256"
        },
        {
          "indexed": false,
          "internalType": "uint256",
          "name": "treeId",
          "type": "uint256"
        },
        {
          "indexed": false,
          "internalType": "uint256",
          "name": "skillId",
          "type": "uint256"
        },
        {
          "indexed": false,
          "internalType": "uint256",
          "name": "value",
          "type": "uint256"
        }
      ],
      "name": "ValueUpdated",
      "type": "event"
    },
    {
      "inputs": [],
      "name": "ADMIN_ROLE",
      "outputs": [
        {
          "internalType": "bytes32",
          "name": "",
          "type": "bytes32"
        }
      ],
      "stateMutability": "view",
      "type": "function"
    },
    {
      "inputs": [],
      "name": "CONTRACT_ROLE",
      "outputs": [
        {
          "internalType": "bytes32",
          "name": "",
          "type": "bytes32"
        }
      ],
      "stateMutability": "view",
      "type": "function"
    },
    {
      "inputs": [],
      "name": "DEFAULT_ADMIN_ROLE",
      "outputs": [
        {
          "internalType": "bytes32",
          "name": "",
          "type": "bytes32"
        }
      ],
      "stateMutability": "view",
      "type": "function"
    },
    {
      "inputs": [],
      "name": "MINTER_ROLE",
      "outputs": [
        {
          "internalType": "bytes32",
          "name": "",
          "type": "bytes32"
        }
      ],
      "stateMutability": "view",
      "type": "function"
    },
    {
      "inputs": [
        {
          "internalType": "address",
          "name": "to",
          "type": "address"
        },
        {
          "internalType": "uint256",
          "name": "tokenId",
          "type": "uint256"
        }
      ],
      "name": "approve",
      "outputs": [],
      "stateMutability": "nonpayable",
      "type": "function"
    },
    {
      "inputs": [
        {
          "internalType": "address",
          "name": "owner",
          "type": "address"
        }
      ],
      "name": "balanceOf",
      "outputs": [
        {
          "internalType": "uint256",
          "name": "",
          "type": "uint256"
        }
      ],
      "stateMutability": "view",
      "type": "function"
    },
    {
      "inputs": [
        {
          "internalType": "address",
          "name": "to",
          "type": "address"
        },
        {
          "internalType": "uint256[]",
          "name": "tokenIds",
          "type": "uint256[]"
        }
      ],
      "name": "batchMint",
      "outputs": [],
      "stateMutability": "nonpayable",
      "type": "function"
    },
    {
      "inputs": [
        {
          "internalType": "uint256",
          "name": "treeId",
          "type": "uint256"
        },
        {
          "internalType": "uint256[]",
          "name": "skillIds",
          "type": "uint256[]"
        },
        {
          "internalType": "string[]",
          "name": "names",
          "type": "string[]"
        }
      ],
      "name": "batchSetSkillName",
      "outputs": [],
      "stateMutability": "nonpayable",
      "type": "function"
    },
    {
      "inputs": [
        {
          "internalType": "uint256[]",
          "name": "tokenIds",
          "type": "uint256[]"
        }
      ],
      "name": "batchTokenURI",
      "outputs": [
        {
          "internalType": "string[]",
          "name": "",
          "type": "string[]"
        }
      ],
      "stateMutability": "view",
      "type": "function"
    },
    {
      "inputs": [
        {
          "internalType": "uint256[]",
          "name": "tokenIds",
          "type": "uint256[]"
        }
      ],
      "name": "batchTokenURIJSON",
      "outputs": [
        {
          "internalType": "string[]",
          "name": "",
          "type": "string[]"
        }
      ],
      "stateMutability": "view",
      "type": "function"
    },
    {
      "inputs": [
        {
          "internalType": "address",
          "name": "from",
          "type": "address"
        },
        {
          "internalType": "address",
          "name": "to",
          "type": "address"
        },
        {
          "internalType": "uint256[]",
          "name": "tokenIds",
          "type": "uint256[]"
        }
      ],
      "name": "batchTransferFrom",
      "outputs": [],
      "stateMutability": "nonpayable",
      "type": "function"
    },
    {
      "inputs": [
        {
          "internalType": "uint256[]",
          "name": "tokenIds",
          "type": "uint256[]"
        },
        {
          "internalType": "uint256[]",
          "name": "treeIds",
          "type": "uint256[]"
        },
        {
          "internalType": "uint256[]",
          "name": "skillIds",
          "type": "uint256[]"
        },
        {
          "internalType": "uint256[]",
          "name": "values",
          "type": "uint256[]"
        }
      ],
      "name": "batchUpdateSkills",
      "outputs": [],
      "stateMutability": "nonpayable",
      "type": "function"
    },
    {
      "inputs": [
        {
          "internalType": "uint256",
          "name": "tokenId",
          "type": "uint256"
        },
        {
          "internalType": "uint256",
          "name": "treeId",
          "type": "uint256"
        },
        {
          "internalType": "uint256[]",
          "name": "skillIds",
          "type": "uint256[]"
        },
        {
          "internalType": "uint256[]",
          "name": "values",
          "type": "uint256[]"
        }
      ],
      "name": "batchUpdateSkillsOfToken",
      "outputs": [],
      "stateMutability": "nonpayable",
      "type": "function"
    },
    {
      "inputs": [],
      "name": "bridgeContract",
      "outputs": [
        {
          "internalType": "address",
          "name": "",
          "type": "address"
        }
      ],
      "stateMutability": "view",
      "type": "function"
    },
    {
      "inputs": [
        {
          "internalType": "uint256",
          "name": "tokenId",
          "type": "uint256"
        }
      ],
      "name": "bridgeExtraData",
      "outputs": [
        {
          "internalType": "bytes",
          "name": "",
          "type": "bytes"
        }
      ],
      "stateMutability": "view",
      "type": "function"
    },
    {
      "inputs": [
        {
          "internalType": "uint256",
          "name": "tokenId",
          "type": "uint256"
        }
      ],
      "name": "burn",
      "outputs": [],
      "stateMutability": "nonpayable",
      "type": "function"
    },
    {
      "inputs": [],
      "name": "getAllTokenIds",
      "outputs": [
        {
          "internalType": "uint256[]",
          "name": "",
          "type": "uint256[]"
        }
      ],
      "stateMutability": "view",
      "type": "function"
    },
    {
      "inputs": [
        {
          "internalType": "uint256",
          "name": "tokenId",
          "type": "uint256"
        }
      ],
      "name": "getApproved",
      "outputs": [
        {
          "internalType": "address",
          "name": "",
          "type": "address"
        }
      ],
      "stateMutability": "view",
      "type": "function"
    },
    {
      "inputs": [],
      "name": "getBlacklisted",
      "outputs": [
        {
          "internalType": "address[]",
          "name": "",
          "type": "address[]"
        }
      ],
      "stateMutability": "view",
      "type": "function"
    },
    {
      "inputs": [
        {
          "internalType": "bytes32",
          "name": "role",
          "type": "bytes32"
        }
      ],
      "name": "getRoleAdmin",
      "outputs": [
        {
          "internalType": "bytes32",
          "name": "",
          "type": "bytes32"
        }
      ],
      "stateMutability": "view",
      "type": "function"
    },
    {
      "inputs": [
        {
          "internalType": "bytes32",
          "name": "role",
          "type": "bytes32"
        },
        {
          "internalType": "uint256",
          "name": "index",
          "type": "uint256"
        }
      ],
      "name": "getRoleMember",
      "outputs": [
        {
          "internalType": "address",
          "name": "",
          "type": "address"
        }
      ],
      "stateMutability": "view",
      "type": "function"
    },
    {
      "inputs": [
        {
          "internalType": "bytes32",
          "name": "role",
          "type": "bytes32"
        }
      ],
      "name": "getRoleMemberCount",
      "outputs": [
        {
          "internalType": "uint256",
          "name": "",
          "type": "uint256"
        }
      ],
      "stateMutability": "view",
      "type": "function"
    },
    {
      "inputs": [
        {
          "internalType": "uint256",
          "name": "tokenId",
          "type": "uint256"
        },
        {
          "internalType": "uint256",
          "name": "treeId",
          "type": "uint256"
        },
        {
          "internalType": "uint256",
          "name": "skillId",
          "type": "uint256"
        }
      ],
      "name": "getSkill",
      "outputs": [
        {
          "internalType": "uint256",
          "name": "",
          "type": "uint256"
        }
      ],
      "stateMutability": "view",
      "type": "function"
    },
    {
      "inputs": [
        {
          "internalType": "uint256",
          "name": "treeId",
          "type": "uint256"
        },
        {
          "internalType": "uint256",
          "name": "skillId",
          "type": "uint256"
        }
      ],
      "name": "getSkillName",
      "outputs": [
        {
          "internalType": "string",
          "name": "",
          "type": "string"
        }
      ],
      "stateMutability": "view",
      "type": "function"
    },
    {
      "inputs": [
        {
          "internalType": "uint256",
          "name": "tokenId",
          "type": "uint256"
        },
        {
          "internalType": "uint256",
          "name": "treeId",
          "type": "uint256"
        },
        {
          "internalType": "uint256[]",
          "name": "skillIds",
          "type": "uint256[]"
        }
      ],
      "name": "getSkillsByTree",
      "outputs": [
        {
          "internalType": "uint256[]",
          "name": "",
          "type": "uint256[]"
        }
      ],
      "stateMutability": "view",
      "type": "function"
    },
    {
      "inputs": [
        {
          "internalType": "uint256",
          "name": "tokenId",
          "type": "uint256"
        },
        {
          "internalType": "uint256",
          "name": "customId",
          "type": "uint256"
        }
      ],
      "name": "getString",
      "outputs": [
        {
          "internalType": "string",
          "name": "",
          "type": "string"
        }
      ],
      "stateMutability": "view",
      "type": "function"
    },
    {
      "inputs": [
        {
          "internalType": "uint256[]",
          "name": "tokenIds",
          "type": "uint256[]"
        },
        {
          "internalType": "uint256",
          "name": "customId",
          "type": "uint256"
        }
      ],
      "name": "getStringOfTokens",
      "outputs": [
        {
          "internalType": "string[]",
          "name": "",
          "type": "string[]"
        }
      ],
      "stateMutability": "view",
      "type": "function"
    },
    {
      "inputs": [
        {
          "internalType": "uint256",
          "name": "tokenId",
          "type": "uint256"
        },
        {
          "internalType": "uint256[]",
          "name": "customIds",
          "type": "uint256[]"
        }
      ],
      "name": "getStrings",
      "outputs": [
        {
          "internalType": "string[]",
          "name": "",
          "type": "string[]"
        }
      ],
      "stateMutability": "view",
      "type": "function"
    },
    {
      "inputs": [
        {
          "internalType": "bytes32",
          "name": "role",
          "type": "bytes32"
        },
        {
          "internalType": "address",
          "name": "account",
          "type": "address"
        }
      ],
      "name": "grantRole",
      "outputs": [],
      "stateMutability": "nonpayable",
      "type": "function"
    },
    {
      "inputs": [
        {
          "internalType": "bytes32",
          "name": "role",
          "type": "bytes32"
        },
        {
          "internalType": "address",
          "name": "account",
          "type": "address"
        }
      ],
      "name": "hasRole",
      "outputs": [
        {
          "internalType": "bool",
          "name": "",
          "type": "bool"
        }
      ],
      "stateMutability": "view",
      "type": "function"
    },
    {
      "inputs": [],
      "name": "imageBaseURI",
      "outputs": [
        {
          "internalType": "string",
          "name": "",
          "type": "string"
        }
      ],
      "stateMutability": "view",
      "type": "function"
    },
    {
      "inputs": [],
      "name": "initialize",
      "outputs": [],
      "stateMutability": "nonpayable",
      "type": "function"
    },
    {
      "inputs": [
        {
          "internalType": "address",
          "name": "owner",
          "type": "address"
        },
        {
          "internalType": "address",
          "name": "operator",
          "type": "address"
        }
      ],
      "name": "isApprovedForAll",
      "outputs": [
        {
          "internalType": "bool",
          "name": "",
          "type": "bool"
        }
      ],
      "stateMutability": "view",
      "type": "function"
    },
    {
      "inputs": [
        {
          "internalType": "address",
          "name": "user",
          "type": "address"
        }
      ],
      "name": "isBlacklisted",
      "outputs": [
        {
          "internalType": "bool",
          "name": "",
          "type": "bool"
        }
      ],
      "stateMutability": "view",
      "type": "function"
    },
    {
      "inputs": [
        {
          "internalType": "address",
          "name": "to",
          "type": "address"
        },
        {
          "internalType": "uint256",
          "name": "tokenId",
          "type": "uint256"
        }
      ],
      "name": "mint",
      "outputs": [],
      "stateMutability": "nonpayable",
      "type": "function"
    },
    {
      "inputs": [
        {
          "internalType": "address",
          "name": "to",
          "type": "address"
        },
        {
          "internalType": "uint256",
          "name": "tokenId",
          "type": "uint256"
        },
        {
          "internalType": "bytes",
          "name": "data",
          "type": "bytes"
        }
      ],
      "name": "mint",
      "outputs": [],
      "stateMutability": "nonpayable",
      "type": "function"
    },
    {
      "inputs": [],
      "name": "name",
      "outputs": [
        {
          "internalType": "string",
          "name": "",
          "type": "string"
        }
      ],
      "stateMutability": "view",
      "type": "function"
    },
    {
      "inputs": [
        {
          "internalType": "uint256",
          "name": "tokenId",
          "type": "uint256"
        }
      ],
      "name": "ownerOf",
      "outputs": [
        {
          "internalType": "address",
          "name": "",
          "type": "address"
        }
      ],
      "stateMutability": "view",
      "type": "function"
    },
    {
      "inputs": [],
      "name": "pause",
      "outputs": [],
      "stateMutability": "nonpayable",
      "type": "function"
    },
    {
      "inputs": [],
      "name": "paused",
      "outputs": [
        {
          "internalType": "bool",
          "name": "",
          "type": "bool"
        }
      ],
      "stateMutability": "view",
      "type": "function"
    },
    {
      "inputs": [
        {
          "internalType": "bytes32",
          "name": "role",
          "type": "bytes32"
        },
        {
          "internalType": "address",
          "name": "account",
          "type": "address"
        }
      ],
      "name": "renounceRole",
      "outputs": [],
      "stateMutability": "nonpayable",
      "type": "function"
    },
    {
      "inputs": [
        {
          "internalType": "bytes32",
          "name": "role",
          "type": "bytes32"
        },
        {
          "internalType": "address",
          "name": "account",
          "type": "address"
        }
      ],
      "name": "revokeRole",
      "outputs": [],
      "stateMutability": "nonpayable",
      "type": "function"
    },
    {
      "inputs": [
        {
          "internalType": "address",
          "name": "from",
          "type": "address"
        },
        {
          "internalType": "address",
          "name": "to",
          "type": "address"
        },
        {
          "internalType": "uint256",
          "name": "tokenId",
          "type": "uint256"
        }
      ],
      "name": "safeTransferFrom",
      "outputs": [],
      "stateMutability": "nonpayable",
      "type": "function"
    },
    {
      "inputs": [
        {
          "internalType": "address",
          "name": "from",
          "type": "address"
        },
        {
          "internalType": "address",
          "name": "to",
          "type": "address"
        },
        {
          "internalType": "uint256",
          "name": "tokenId",
          "type": "uint256"
        },
        {
          "internalType": "bytes",
          "name": "data",
          "type": "bytes"
        }
      ],
      "name": "safeTransferFrom",
      "outputs": [],
      "stateMutability": "nonpayable",
      "type": "function"
    },
    {
      "inputs": [
        {
          "internalType": "address",
          "name": "operator",
          "type": "address"
        },
        {
          "internalType": "bool",
          "name": "approved",
          "type": "bool"
        }
      ],
      "name": "setApprovalForAll",
      "outputs": [],
      "stateMutability": "nonpayable",
      "type": "function"
    },
    {
      "inputs": [
        {
          "internalType": "address",
          "name": "_bridgeContract",
          "type": "address"
        }
      ],
      "name": "setBridgeContract",
      "outputs": [],
      "stateMutability": "nonpayable",
      "type": "function"
    },
    {
      "inputs": [
        {
          "internalType": "string",
          "name": "_imageBaseURI",
          "type": "string"
        }
      ],
      "name": "setImageBaseURI",
      "outputs": [],
      "stateMutability": "nonpayable",
      "type": "function"
    },
    {
      "inputs": [
        {
          "internalType": "uint256",
          "name": "treeId",
          "type": "uint256"
        },
        {
          "internalType": "uint256",
          "name": "skillId",
          "type": "uint256"
        },
        {
          "internalType": "string",
          "name": "name",
          "type": "string"
        }
      ],
      "name": "setSkillName",
      "outputs": [],
      "stateMutability": "nonpayable",
      "type": "function"
    },
    {
      "inputs": [
        {
          "internalType": "bytes4",
          "name": "interfaceId",
          "type": "bytes4"
        }
      ],
      "name": "supportsInterface",
      "outputs": [
        {
          "internalType": "bool",
          "name": "",
          "type": "bool"
        }
      ],
      "stateMutability": "view",
      "type": "function"
    },
    {
      "inputs": [],
      "name": "symbol",
      "outputs": [
        {
          "internalType": "string",
          "name": "",
          "type": "string"
        }
      ],
      "stateMutability": "view",
      "type": "function"
    },
    {
      "inputs": [
        {
          "internalType": "uint256",
          "name": "index",
          "type": "uint256"
        }
      ],
      "name": "tokenByIndex",
      "outputs": [
        {
          "internalType": "uint256",
          "name": "",
          "type": "uint256"
        }
      ],
      "stateMutability": "view",
      "type": "function"
    },
    {
      "inputs": [
        {
          "internalType": "address",
          "name": "owner",
          "type": "address"
        },
        {
          "internalType": "uint256",
          "name": "index",
          "type": "uint256"
        }
      ],
      "name": "tokenOfOwnerByIndex",
      "outputs": [
        {
          "internalType": "uint256",
          "name": "",
          "type": "uint256"
        }
      ],
      "stateMutability": "view",
      "type": "function"
    },
    {
      "inputs": [
        {
          "internalType": "uint256",
          "name": "tokenId",
          "type": "uint256"
        }
      ],
      "name": "tokenURI",
      "outputs": [
        {
          "internalType": "string",
          "name": "",
          "type": "string"
        }
      ],
      "stateMutability": "view",
      "type": "function"
    },
    {
      "inputs": [
        {
          "internalType": "uint256",
          "name": "tokenId",
          "type": "uint256"
        }
      ],
      "name": "tokenURIJSON",
      "outputs": [
        {
          "internalType": "string",
          "name": "",
          "type": "string"
        }
      ],
      "stateMutability": "view",
      "type": "function"
    },
    {
      "inputs": [
        {
          "internalType": "address",
          "name": "owner",
          "type": "address"
        }
      ],
      "name": "tokensOfOwner",
      "outputs": [
        {
          "internalType": "uint256[]",
          "name": "",
          "type": "uint256[]"
        }
      ],
      "stateMutability": "view",
      "type": "function"
    },
    {
      "inputs": [],
      "name": "totalSupply",
      "outputs": [
        {
          "internalType": "uint256",
          "name": "",
          "type": "uint256"
        }
      ],
      "stateMutability": "view",
      "type": "function"
    },
    {
      "inputs": [
        {
          "internalType": "address",
          "name": "from",
          "type": "address"
        },
        {
          "internalType": "address",
          "name": "to",
          "type": "address"
        },
        {
          "internalType": "uint256",
          "name": "tokenId",
          "type": "uint256"
        }
      ],
      "name": "transferFrom",
      "outputs": [],
      "stateMutability": "nonpayable",
      "type": "function"
    },
    {
      "inputs": [],
      "name": "unpause",
      "outputs": [],
      "stateMutability": "nonpayable",
      "type": "function"
    },
    {
      "inputs": [
        {
          "internalType": "uint256",
          "name": "tokenId",
          "type": "uint256"
        },
        {
          "internalType": "uint256",
          "name": "treeId",
          "type": "uint256"
        },
        {
          "internalType": "uint256",
          "name": "skillId",
          "type": "uint256"
        },
        {
          "internalType": "uint256",
          "name": "value",
          "type": "uint256"
        }
      ],
      "name": "updateSkill",
      "outputs": [],
      "stateMutability": "nonpayable",
      "type": "function"
    },
    {
      "inputs": [
        {
          "internalType": "uint256",
          "name": "tokenId",
          "type": "uint256"
        },
        {
          "internalType": "uint256",
          "name": "customId",
          "type": "uint256"
        },
        {
          "internalType": "string",
          "name": "value",
          "type": "string"
        }
      ],
      "name": "updateString",
      "outputs": [],
      "stateMutability": "nonpayable",
      "type": "function"
    }
  ],
  "bytecode": "0x60806040523480156200001157600080fd5b506200001c62000022565b620000e4565b600054610100900460ff16156200008f5760405162461bcd60e51b815260206004820152602760248201527f496e697469616c697a61626c653a20636f6e747261637420697320696e697469604482015266616c697a696e6760c81b606482015260840160405180910390fd5b60005460ff9081161015620000e2576000805460ff191660ff9081179091556040519081527f7f26b83ff96e1f2b6a682f133852f6798a09c465da95921460cefb38474024989060200160405180910390a15b565b61538d80620000f46000396000f3fe608060405234801561001057600080fd5b50600436106103a45760003560e01c806377645839116101e9578063bdbed7221161010f578063d547741f116100ad578063ed0af2091161007c578063ed0af2091461082d578063f3993d1114610840578063fe459f5c14610853578063fe575a871461086657600080fd5b8063d547741f146107b8578063de10c72d146107cb578063e2862b6b146107de578063e985e9c5146107f157600080fd5b8063ca15c873116100e9578063ca15c87314610767578063cd5965831461077a578063ce3675ad1461078e578063d5391393146107a357600080fd5b8063bdbed72214610739578063c7e0559014610741578063c87b56dd1461075457600080fd5b806394d008ef11610187578063a217fddf11610156578063a217fddf146106f8578063a22cb46514610700578063b5afb12014610713578063b88d4fde1461072657600080fd5b806394d008ef146106b757806395d89b41146106ca5780639b9284f9146106d25780639e8afe47146106e557600080fd5b80638456cb59116101c35780638456cb59146106695780638462151c146106715780639010d07c1461069157806391d14854146106a457600080fd5b806377645839146106465780637efa19021461064e5780638129fc1c1461066157600080fd5b806336568abe116102ce5780634b5f4fe61161026c5780636cfa24cc1161023b5780636cfa24cc146105f85780636d94f13a1461060b57806370a082311461061e57806375b238fc1461063157600080fd5b80634b5f4fe6146105b45780634f6ccce7146105c75780635c975abb146105da5780636352211e146105e557600080fd5b806342842e0e116102a857806342842e0e1461054857806342966c681461055b5780634594762a1461056e5780634684d7e9146105a157600080fd5b806336568abe1461051a5780633f4ba83a1461052d57806340c10f191461053557600080fd5b80630b26cf66116103465780632c303493116103155780632c303493146104c15780632f2ff15d146104e15780632f745c59146104f4578063352b75331461050757600080fd5b80630b26cf661461046f57806318160ddd1461048257806323b872dd1461048b578063248a9ca31461049e57600080fd5b806306fdde031161038257806306fdde0314610414578063079be4931461041c578063081812fc1461042f578063095ea7b31461045a57600080fd5b806301ffc9a7146103a957806303fe46ab146103d157806306b67444146103f4575b600080fd5b6103bc6103b7366004613f5d565b610879565b60405190151581526020015b60405180910390f35b6103e660008051602061533883398151915281565b6040519081526020016103c8565b610407610402366004613f7a565b6108a4565b6040516103c89190613fec565b610407610953565b61040761042a366004613f7a565b6109e5565b61044261043d366004613fff565b610a0e565b6040516001600160a01b0390911681526020016103c8565b61046d610468366004614034565b610a35565b005b61046d61047d36600461405e565b610b4f565b610194546103e6565b61046d610499366004614079565b610b8b565b6103e66104ac366004613fff565b600090815260fb602052604090206001015490565b6104d46104cf3660046141b1565b610bbd565b6040516103c891906141e5565b61046d6104ef366004614247565b610c75565b6103e6610502366004614034565b610c9a565b6104d4610515366004614273565b610d31565b61046d610528366004614247565b610e8f565b61046d610f0d565b61046d610543366004614034565b610f30565b61046d610556366004614079565b610f52565b61046d610569366004613fff565b610f6d565b6103e661057c3660046142b7565b6000928352610228602090815260408085209385529281528284209184525290205490565b61046d6105af3660046142e3565b610f76565b61046d6105c236600461439f565b610fd5565b6103e66105d5366004613fff565b611018565b60975460ff166103bc565b6104426105f3366004613fff565b6110ad565b61046d6106063660046143ee565b61110d565b6104d4610619366004614422565b611132565b6103e661062c36600461405e565b6111e0565b6103e660008051602061531883398151915281565b610407611266565b61046d61065c366004614496565b6112f5565b61046d6113d3565b61046d611591565b61068461067f36600461405e565b6115b1565b6040516103c8919061457d565b61044261069f366004613f7a565b61164a565b6103bc6106b2366004614247565b61166a565b61046d6106c5366004614590565b611695565b610407611816565b6104076106e0366004613fff565b611825565b6104d46106f33660046145d0565b611993565b6103e6600081565b61046d61070e366004614600565b611ae9565b61046d61072136600461463c565b611af4565b61046d61073436600461466e565b611b79565b610684611bab565b61068461074f3660046146c9565b611c95565b610407610762366004613fff565b611d6a565b6103e6610775366004613fff565b611d75565b6102bd54610442906001600160a01b031681565b610796611d8d565b6040516103c8919061470e565b6103e66000805160206152f883398151915281565b61046d6107c6366004614247565b611d9f565b61046d6107d936600461475b565b611dc4565b61046d6107ec36600461483b565b611e5f565b6103bc6107ff366004614876565b6001600160a01b039182166000908152606a6020908152604080832093909416825291909152205460ff1690565b61046d61083b36600461439f565b611f03565b61046d61084e3660046148a0565b611f80565b610407610861366004613fff565b611fc2565b6103bc61087436600461405e565b612353565b60006001600160e01b0319821663808d85fd60e01b148061089e575061089e82612361565b92915050565b60008281526102296020908152604080832084845290915290208054606091906108cd906148e7565b80601f01602080910402602001604051908101604052809291908181526020018280546108f9906148e7565b80156109465780601f1061091b57610100808354040283529160200191610946565b820191906000526020600020905b81548152906001019060200180831161092957829003601f168201915b5050505050905092915050565b606060658054610962906148e7565b80601f016020809104026020016040519081016040528092919081815260200182805461098e906148e7565b80156109db5780601f106109b0576101008083540402835291602001916109db565b820191906000526020600020905b8154815290600101906020018083116109be57829003601f168201915b5050505050905090565b600082815261022a6020908152604080832084845290915290208054606091906108cd906148e7565b6000610a198261236c565b506000908152606960205260409020546001600160a01b031690565b6000610a40826110ad565b9050806001600160a01b0316836001600160a01b031603610ab25760405162461bcd60e51b815260206004820152602160248201527f4552433732313a20617070726f76616c20746f2063757272656e74206f776e656044820152603960f91b60648201526084015b60405180910390fd5b336001600160a01b0382161480610ace5750610ace81336107ff565b610b405760405162461bcd60e51b815260206004820152603d60248201527f4552433732313a20617070726f76652063616c6c6572206973206e6f7420746f60448201527f6b656e206f776e6572206f7220617070726f76656420666f7220616c6c0000006064820152608401610aa9565b610b4a83836123bc565b505050565b600080516020615318833981519152610b678161242a565b506102bd80546001600160a01b0319166001600160a01b0392909216919091179055565b610b96335b82612434565b610bb25760405162461bcd60e51b8152600401610aa990614921565b610b4a8383836124b3565b6060600082516001600160401b03811115610bda57610bda6140b5565b604051908082528060200260200182016040528015610c0d57816020015b6060815260200190600190039081610bf85790505b50905060005b8351811015610c6e57610c3e848281518110610c3157610c3161496e565b6020026020010151611fc2565b828281518110610c5057610c5061496e565b60200260200101819052508080610c669061499a565b915050610c13565b5092915050565b600082815260fb6020526040902060010154610c908161242a565b610b4a8383612624565b6000610ca5836111e0565b8210610d075760405162461bcd60e51b815260206004820152602b60248201527f455243373231456e756d657261626c653a206f776e657220696e646578206f7560448201526a74206f6620626f756e647360a81b6064820152608401610aa9565b506001600160a01b0391909116600090815261019260209081526040808320938352929052205490565b6060600083516001600160401b03811115610d4e57610d4e6140b5565b604051908082528060200260200182016040528015610d8157816020015b6060815260200190600190039081610d6c5790505b50905060005b8451811015610e875761022a6000868381518110610da757610da761496e565b6020026020010151815260200190815260200160002060008581526020019081526020016000208054610dd9906148e7565b80601f0160208091040260200160405190810160405280929190818152602001828054610e05906148e7565b8015610e525780601f10610e2757610100808354040283529160200191610e52565b820191906000526020600020905b815481529060010190602001808311610e3557829003601f168201915b5050505050828281518110610e6957610e6961496e565b60200260200101819052508080610e7f9061499a565b915050610d87565b509392505050565b6001600160a01b0381163314610eff5760405162461bcd60e51b815260206004820152602f60248201527f416363657373436f6e74726f6c3a2063616e206f6e6c792072656e6f756e636560448201526e103937b632b9903337b91039b2b63360891b6064820152608401610aa9565b610f098282612647565b5050565b600080516020615318833981519152610f258161242a565b610f2d61266a565b50565b6000805160206152f8833981519152610f488161242a565b610b4a83836126bc565b610b4a83838360405180602001604052806000815250611b79565b610f2d816126d6565b6000805160206152f8833981519152610f8e8161242a565b60005b8251811015610fcf57610fbd84848381518110610fb057610fb061496e565b60200260200101516126bc565b80610fc78161499a565b915050610f91565b50505050565b600080516020615338833981519152610fed8161242a565b600084815261022960209081526040808320868452909152902061101183826149f9565b5050505050565b60006110246101945490565b82106110875760405162461bcd60e51b815260206004820152602c60248201527f455243373231456e756d657261626c653a20676c6f62616c20696e646578206f60448201526b7574206f6620626f756e647360a01b6064820152608401610aa9565b610194828154811061109b5761109b61496e565b90600052602060002001549050919050565b6000818152606760205260408120546001600160a01b03168061089e5760405162461bcd60e51b8152602060048201526018602482015277115490cdcc8c4e881a5b9d985b1a59081d1bdad95b88125160421b6044820152606401610aa9565b6000805160206153188339815191526111258161242a565b6101f6610b4a83826149f9565b60606000826001600160401b0381111561114e5761114e6140b5565b60405190808252806020026020018201604052801561118157816020015b606081526020019060019003908161116c5790505b50905060005b83811015610e87576111b08585838181106111a4576111a461496e565b90506020020135611d6a565b8282815181106111c2576111c261496e565b602002602001018190525080806111d89061499a565b915050611187565b60006001600160a01b03821661124a5760405162461bcd60e51b815260206004820152602960248201527f4552433732313a2061646472657373207a65726f206973206e6f7420612076616044820152683634b21037bbb732b960b91b6064820152608401610aa9565b506001600160a01b031660009081526068602052604090205490565b6101f68054611274906148e7565b80601f01602080910402602001604051908101604052809291908181526020018280546112a0906148e7565b80156112ed5780601f106112c2576101008083540402835291602001916112ed565b820191906000526020600020905b8154815290600101906020018083116112d057829003601f168201915b505050505081565b60008051602061533883398151915261130d8161242a565b60005b85518110156113cb5782818151811061132b5761132b61496e565b6020026020010151610228600088848151811061134a5761134a61496e565b6020026020010151815260200190815260200160002060008784815181106113745761137461496e565b60200260200101518152602001908152602001600020600086848151811061139e5761139e61496e565b602002602001015181526020019081526020016000208190555080806113c39061499a565b915050611310565b505050505050565b600054610100900460ff16158080156113f35750600054600160ff909116105b8061140d5750303b15801561140d575060005460ff166001145b6114705760405162461bcd60e51b815260206004820152602e60248201527f496e697469616c697a61626c653a20636f6e747261637420697320616c72656160448201526d191e481a5b9a5d1a585b1a5e995960921b6064820152608401610aa9565b6000805460ff191660011790558015611493576000805461ff0019166101001790555b6114de6040518060400160405280600c81526020016b436f736d696320456c76657360a01b81525060405180604001604052806005815260200164454c56455360d81b815250612758565b6114e6612789565b6114ee6127ba565b6114f66127e1565b6114fe6127ba565b611506612789565b61150e612810565b611519600033612624565b61153160008051602061531883398151915233612624565b6115496000805160206152f883398151915233612624565b8015610f2d576000805461ff0019169055604051600181527f7f26b83ff96e1f2b6a682f133852f6798a09c465da95921460cefb38474024989060200160405180910390a150565b6000805160206153188339815191526115a98161242a565b610f2d61283f565b606060006115be836111e0565b90506000816001600160401b038111156115da576115da6140b5565b604051908082528060200260200182016040528015611603578160200160208202803683370190505b50905060005b82811015610e875761161b8582610c9a565b82828151811061162d5761162d61496e565b6020908102919091010152806116428161499a565b915050611609565b600082815261012d60205260408120611663908361287c565b9392505050565b600091825260fb602090815260408084206001600160a01b0393909316845291905290205460ff1690565b6000805160206152f88339815191526116ad8161242a565b6000828060200190518101906116c39190614b13565b60408051600b8082526101808201909252919250600091906020820161016080368337505060408051600380825260808201909252929350600092915060208201606080368337505060408051600c8082526101a082019092529293506000929150602082016101808036833701905050905060005b600c8110156117c557808282815181106117555761175561496e565b602002602001018181525050600b81101561178a578084828151811061177d5761177d61496e565b6020026020010181815250505b60038110156117b357808382815181106117a6576117a661496e565b6020026020010181815250505b806117bd8161499a565b915050611739565b506117d088886126bc565b6117e1876000858760000151611e5f565b6117f2876003848760200151611e5f565b611803876001838760400151611e5f565b61180c87612888565b5050505050505050565b606060668054610962906148e7565b60408051600b8082526101808201909252606091600091906020820161016080368337505060408051600380825260808201909252929350600092915060208201606080368337505060408051600c8082526101a082019092529293506000929150602082016101808036833701905050905060005b600c81101561192757808282815181106118b7576118b761496e565b602002602001018181525050600b8110156118ec57808482815181106118df576118df61496e565b6020026020010181815250505b600381101561191557808382815181106119085761190861496e565b6020026020010181815250505b8061191f8161499a565b91505061189b565b506000604051806060016040528061194188600088611c95565b815260200161195288600387611c95565b815260200161196388600186611c95565b8152509050806040516020016119799190614bc7565b604051602081830303815290604052945050505050919050565b6060600082516001600160401b038111156119b0576119b06140b5565b6040519080825280602002602001820160405280156119e357816020015b60608152602001906001900390816119ce5790505b50905060005b8351811015610e875761022a60008681526020019081526020016000206000858381518110611a1a57611a1a61496e565b602002602001015181526020019081526020016000208054611a3b906148e7565b80601f0160208091040260200160405190810160405280929190818152602001828054611a67906148e7565b8015611ab45780601f10611a8957610100808354040283529160200191611ab4565b820191906000526020600020905b815481529060010190602001808311611a9757829003601f168201915b5050505050828281518110611acb57611acb61496e565b60200260200101819052508080611ae19061499a565b9150506119e9565b610f09338383612894565b600080516020615338833981519152611b0c8161242a565b6000858152610228602090815260408083208784528252808320868452825291829020849055815186815290810185905290810183905285907fc3bdb5f4a3cbb68ce4ebe3dda3660f3067add044dc5be3a047d818fd416663699060600160405180910390a25050505050565b611b833383612434565b611b9f5760405162461bcd60e51b8152600401610aa990614921565b610fcf84848484612962565b6060600060015b612710811015611bea57611bc581612995565b15611bd85781611bd48161499a565b9250505b80611be28161499a565b915050611bb2565b506000816001600160401b03811115611c0557611c056140b5565b604051908082528060200260200182016040528015611c2e578160200160208202803683370190505b509050600060015b612710811015611c8c57611c4981612995565b15611c7a5780838381518110611c6157611c6161496e565b602090810291909101015281611c768161499a565b9250505b80611c848161499a565b915050611c36565b50909392505050565b6060600082516001600160401b03811115611cb257611cb26140b5565b604051908082528060200260200182016040528015611cdb578160200160208202803683370190505b50905060005b8351811015611d615760008681526102286020908152604080832088845290915281208551909190869084908110611d1b57611d1b61496e565b6020026020010151815260200190815260200160002054828281518110611d4457611d4461496e565b602090810291909101015280611d598161499a565b915050611ce1565b50949350505050565b606061089e826129a0565b600081815261012d6020526040812061089e906129b3565b6060611d9a6102596129bd565b905090565b600082815260fb6020526040902060010154611dba8161242a565b610b4a8383612647565b600080516020615338833981519152611ddc8161242a565b60005b835181101561101157828181518110611dfa57611dfa61496e565b602002602001015161022960008781526020019081526020016000206000868481518110611e2a57611e2a61496e565b602002602001015181526020019081526020016000209081611e4c91906149f9565b5080611e578161499a565b915050611ddf565b600080516020615338833981519152611e778161242a565b60005b83518110156113cb57828181518110611e9557611e9561496e565b6020026020010151610228600088815260200190815260200160002060008781526020019081526020016000206000868481518110611ed657611ed661496e565b60200260200101518152602001908152602001600020819055508080611efb9061499a565b915050611e7a565b600080516020615338833981519152611f1b8161242a565b600084815261022a602090815260408083208684529091529020611f3f83826149f9565b50837fbf91c112c44cd8e958afe3106b290f594b5e23b83fcc88bdb9ac5da7f00be5698484604051611f72929190614c28565b60405180910390a250505050565b60005b8151811015610fcf57611fb08484848481518110611fa357611fa361496e565b6020026020010151610b8b565b80611fba8161499a565b915050611f83565b6000818152610228602090815260408083208380528252808320909152812054606091811561200f576040518060400160405280600681526020016546656d616c6560d01b81525061202d565b604051806040016040528060048152602001634d616c6560e01b8152505b612036856129ca565b604051602001612047929190614c5d565b60408051808303601f19018152601a8084526103608401909252925060009190816020015b61209960405180608001604052806060815260200160608152602001606081526020016000151581525090565b81526020019060019003908161206c579050509050600083156120bd57600b6120c0565b60005b60ff16905060005b600b81101561217a5760405180608001604052806120e76000846108a4565b81526040805160208181018352600082528301520161213e8461210c856103e8614cb1565b6121169190614cb1565b60008b81526102286020908152604080832083805282528083208884529091529020546108a4565b81526020016000151581525083828151811061215c5761215c61496e565b602002602001018190525080806121729061499a565b9150506120c8565b5060005b600381101561226857604051806080016040528061219d6003846108a4565b8152604080516020818101835260008252830152016121de896003856000928352610228602090815260408085209385529281528284209184525290205490565b1561220557604051806040016040528060048152602001635472756560e01b815250612224565b6040518060400160405280600581526020016446616c736560d81b8152505b815260006020909101528361223a83600b614cb1565b8151811061224a5761224a61496e565b602002602001018190525080806122609061499a565b91505061217e565b5060005b600c81101561231857604051806080016040528061228b6001846108a4565b8152604080516020818101835260008252830152016122d46122cf8a6001866000928352610228602090815260408085209385529281528284209184525290205490565b6129ca565b81526001602090910152836122ea83600e614cb1565b815181106122fa576122fa61496e565b602002602001018190525080806123109061499a565b91505061226c565b5061234986846040518060400160405280600c81526020016b209021b7b9b6b4b19022b63360a11b81525085612a5c565b9695505050505050565b600061089e61025983612ab6565b600061089e82612ad8565b61237581612995565b610f2d5760405162461bcd60e51b8152602060048201526018602482015277115490cdcc8c4e881a5b9d985b1a59081d1bdad95b88125160421b6044820152606401610aa9565b600081815260696020526040902080546001600160a01b0319166001600160a01b03841690811790915581906123f1826110ad565b6001600160a01b03167f8c5be1e5ebec7d5bd14f71427d1e84f3dd0314c0f7b2291e5b200ac8c7c3b92560405160405180910390a45050565b610f2d8133612afd565b600080612440836110ad565b9050806001600160a01b0316846001600160a01b0316148061248757506001600160a01b038082166000908152606a602090815260408083209388168352929052205460ff165b806124ab5750836001600160a01b03166124a084610a0e565b6001600160a01b0316145b949350505050565b826001600160a01b03166124c6826110ad565b6001600160a01b0316146124ec5760405162461bcd60e51b8152600401610aa990614cc4565b6001600160a01b03821661254e5760405162461bcd60e51b8152602060048201526024808201527f4552433732313a207472616e7366657220746f20746865207a65726f206164646044820152637265737360e01b6064820152608401610aa9565b61255b8383836001612b56565b826001600160a01b031661256e826110ad565b6001600160a01b0316146125945760405162461bcd60e51b8152600401610aa990614cc4565b600081815260696020908152604080832080546001600160a01b03199081169091556001600160a01b0387811680865260688552838620805460001901905590871680865283862080546001019055868652606790945282852080549092168417909155905184937fddf252ad1be2c89b69c2b068fc378daa952ba7f163c4a11628f55a4df523b3ef91a4505050565b61262e8282612c0a565b600082815261012d60205260409020610b4a9082612c90565b6126518282612ca5565b600082815261012d60205260409020610b4a9082612d0c565b612672612d21565b6097805460ff191690557f5db9ee0a495bf2e6ff9c91a7834c1ba4fdd244a5e8aa4e537bd38aeae4b073aa335b6040516001600160a01b03909116815260200160405180910390a1565b610f09828260405180602001604052806000815250612d6a565b6126df33610b90565b6127425760405162461bcd60e51b815260206004820152602e60248201527f4552433732313a2063616c6c6572206973206e6f7420746f6b656e206f776e6560448201526d1c881b9bdc88185c1c1c9bdd995960921b6064820152608401610aa9565b61274e61015f82612d9d565b50610f2d81612da9565b600054610100900460ff1661277f5760405162461bcd60e51b8152600401610aa990614d09565b610f098282612e4c565b600054610100900460ff166127b05760405162461bcd60e51b8152600401610aa990614d09565b6127b86127ba565b565b600054610100900460ff166127b85760405162461bcd60e51b8152600401610aa990614d09565b600054610100900460ff166128085760405162461bcd60e51b8152600401610aa990614d09565b6127b8612e8c565b600054610100900460ff166128375760405162461bcd60e51b8152600401610aa990614d09565b6127b8612ebf565b612847612f06565b6097805460ff191660011790557f62e78cea01bee320cd4e420270b5ea74000d11b0c9f74754ebdbfc544b05a25861269f3390565b60006116638383612f4c565b610f0961015f82612f76565b816001600160a01b0316836001600160a01b0316036128f55760405162461bcd60e51b815260206004820152601960248201527f4552433732313a20617070726f766520746f2063616c6c6572000000000000006044820152606401610aa9565b6001600160a01b038381166000818152606a6020908152604080832094871680845294825291829020805460ff191686151590811790915591519182527f17307eab39ab6107e8899845ad3d59bd9653f200f220920489ca2b5937696c31910160405180910390a3505050565b61296d8484846124b3565b61297984848484612f82565b610fcf5760405162461bcd60e51b8152600401610aa990614d54565b600061089e82613080565b606061089e6129ae83611fc2565b61309f565b600061089e825490565b60606000611663836130d0565b606060006129d78361312c565b60010190506000816001600160401b038111156129f6576129f66140b5565b6040519080825280601f01601f191660200182016040528015612a20576020820181803683370190505b5090508181016020015b600019016f181899199a1a9b1b9c1cb0b131b232b360811b600a86061a8153600a8504945084612a2a57509392505050565b60606000612a69866110ad565b905060006101f6612a7988613204565b604051602001612a8a929190614da6565b6040516020818303038152906040529050612aab878388848960028a61320f565b979650505050505050565b6001600160a01b03811660009081526001830160205260408120541515611663565b60006001600160e01b0319821663780e9d6360e01b148061089e575061089e8261325b565b612b07828261166a565b610f0957612b1481613266565b612b1f836020613278565b604051602001612b30929190614e2d565b60408051601f198184030181529082905262461bcd60e51b8252610aa991600401613fec565b612b5e612f06565b83612b6b61025982612ab6565b15612bae5760405162461bcd60e51b8152602060048201526013602482015272426c61636b6c6973746564206164647265737360681b6044820152606401610aa9565b83612bbb61025982612ab6565b15612bfe5760405162461bcd60e51b8152602060048201526013602482015272426c61636b6c6973746564206164647265737360681b6044820152606401610aa9565b6113cb86868686613413565b612c14828261166a565b610f0957600082815260fb602090815260408083206001600160a01b03851684529091529020805460ff19166001179055612c4c3390565b6001600160a01b0316816001600160a01b0316837f2f8788117e7eff1d82e926ec794901d17c78024a50270940304540a733656f0d60405160405180910390a45050565b6000611663836001600160a01b03841661341f565b612caf828261166a565b15610f0957600082815260fb602090815260408083206001600160a01b0385168085529252808320805460ff1916905551339285917ff6391f5c32d9c69d2a47ea670b442974b53935d1edc7fd64eb21e047a839171b9190a45050565b6000611663836001600160a01b03841661346e565b60975460ff166127b85760405162461bcd60e51b815260206004820152601460248201527314185d5cd8589b194e881b9bdd081c185d5cd95960621b6044820152606401610aa9565b612d748383613561565b612d816000848484612f82565b610b4a5760405162461bcd60e51b8152600401610aa990614d54565b6000611663838361341f565b6000612db4826110ad565b9050612dc4816000846001612b56565b612dcd826110ad565b600083815260696020908152604080832080546001600160a01b03199081169091556001600160a01b0385168085526068845282852080546000190190558785526067909352818420805490911690555192935084927fddf252ad1be2c89b69c2b068fc378daa952ba7f163c4a11628f55a4df523b3ef908390a45050565b600054610100900460ff16612e735760405162461bcd60e51b8152600401610aa990614d09565b6065612e7f83826149f9565b506066610b4a82826149f9565b600054610100900460ff16612eb35760405162461bcd60e51b8152600401610aa990614d09565b6097805460ff19169055565b600054610100900460ff16612ee65760405162461bcd60e51b8152600401610aa990614d09565b612eee6127ba565b6127b860008051602061533883398151915233612624565b60975460ff16156127b85760405162461bcd60e51b815260206004820152601060248201526f14185d5cd8589b194e881c185d5cd95960821b6044820152606401610aa9565b6000826000018281548110612f6357612f6361496e565b9060005260206000200154905092915050565b6000611663838361346e565b60006001600160a01b0384163b1561307857604051630a85bd0160e11b81526001600160a01b0385169063150b7a0290612fc6903390899088908890600401614ea2565b6020604051808303816000875af1925050508015613001575060408051601f3d908101601f19168201909252612ffe91810190614ed5565b60015b61305e573d80801561302f576040519150601f19603f3d011682016040523d82523d6000602084013e613034565b606091505b5080516000036130565760405162461bcd60e51b8152600401610aa990614d54565b805181602001fd5b6001600160e01b031916630a85bd0160e11b1490506124ab565b5060016124ab565b6000818152606760205260408120546001600160a01b0316151561089e565b60606130aa826136dc565b6040516020016130ba9190614ef2565b6040516020818303038152906040529050919050565b60608160000180548060200260200160405190810160405280929190818152602001828054801561312057602002820191906000526020600020905b81548152602001906001019080831161310c575b50505050509050919050565b60008072184f03e93ff9f4daa797ed6e38ed64bf6a1f0160401b831061316b5772184f03e93ff9f4daa797ed6e38ed64bf6a1f0160401b830492506040015b6d04ee2d6d415b85acef81000000008310613197576d04ee2d6d415b85acef8100000000830492506020015b662386f26fc1000083106131b557662386f26fc10000830492506010015b6305f5e10083106131cd576305f5e100830492506008015b61271083106131e157612710830492506004015b606483106131f3576064830492506002015b600a831061089e5760010192915050565b606061089e826129ca565b6060600061322189898989898961382e565b90508061322d84613898565b60405160200161323e929190614f37565b604051602081830303815290604052915050979650505050505050565b600061089e82613aa3565b606061089e6001600160a01b03831660145b60606000613287836002614f84565b613292906002614cb1565b6001600160401b038111156132a9576132a96140b5565b6040519080825280601f01601f1916602001820160405280156132d3576020820181803683370190505b509050600360fc1b816000815181106132ee576132ee61496e565b60200101906001600160f81b031916908160001a905350600f60fb1b8160018151811061331d5761331d61496e565b60200101906001600160f81b031916908160001a9053506000613341846002614f84565b61334c906001614cb1565b90505b60018111156133c4576f181899199a1a9b1b9c1cb0b131b232b360811b85600f16601081106133805761338061496e565b1a60f81b8282815181106133965761339661496e565b60200101906001600160f81b031916908160001a90535060049490941c936133bd81614f9b565b905061334f565b5083156116635760405162461bcd60e51b815260206004820181905260248201527f537472696e67733a20686578206c656e67746820696e73756666696369656e746044820152606401610aa9565b610fcf84848484613ac8565b60008181526001830160205260408120546134665750815460018181018455600084815260208082209093018490558454848252828601909352604090209190915561089e565b50600061089e565b60008181526001830160205260408120548015613557576000613492600183614fb2565b85549091506000906134a690600190614fb2565b905081811461350b5760008660000182815481106134c6576134c661496e565b90600052602060002001549050808760000184815481106134e9576134e961496e565b6000918252602080832090910192909255918252600188019052604090208390555b855486908061351c5761351c614fc5565b60019003818190600052602060002001600090559055856001016000868152602001908152602001600020600090556001935050505061089e565b600091505061089e565b6001600160a01b0382166135b75760405162461bcd60e51b815260206004820181905260248201527f4552433732313a206d696e7420746f20746865207a65726f20616464726573736044820152606401610aa9565b6135c081612995565b1561360d5760405162461bcd60e51b815260206004820152601c60248201527f4552433732313a20746f6b656e20616c7265616479206d696e746564000000006044820152606401610aa9565b61361b600083836001612b56565b61362481612995565b156136715760405162461bcd60e51b815260206004820152601c60248201527f4552433732313a20746f6b656e20616c7265616479206d696e746564000000006044820152606401610aa9565b6001600160a01b038216600081815260686020908152604080832080546001019055848352606790915280822080546001600160a01b0319168417905551839291907fddf252ad1be2c89b69c2b068fc378daa952ba7f163c4a11628f55a4df523b3ef908290a45050565b606081516000036136fb57505060408051602081019091526000815290565b60006040518060600160405280604081526020016152b8604091399050600060038451600261372a9190614cb1565b6137349190614fdb565b61373f906004614f84565b6001600160401b03811115613756576137566140b5565b6040519080825280601f01601f191660200182016040528015613780576020820181803683370190505b509050600182016020820185865187015b808210156137ec576003820191508151603f8160121c168501518453600184019350603f81600c1c168501518453600184019350603f8160061c168501518453600184019350603f8116850151845350600183019250613791565b5050600386510660018114613808576002811461381b57613823565b603d6001830353603d6002830353613823565b603d60018303535b509195945050505050565b60608461383a886129ca565b848661384e8a6001600160a01b0316613266565b61386887600281111561386357613863614ffd565b613c03565b60405160200161387d96959493929190615013565b60405160208183030381529060405290509695505050505050565b60408051602081019091526000808252606091905b8351811015613a7a576000600185516138c69190614fb2565b82146138eb57604051806040016040528060018152602001600b60fa1b8152506138fc565b604051806020016040528060008152505b905060008583815181106139125761391261496e565b60200260200101516060015161394157604051806040016040528060018152602001601160f91b815250613952565b604051806020016040528060008152505b90506000818785815181106139695761396961496e565b6020026020010151604001518360405160200161398893929190615132565b604051602081830303815290604052905060008785815181106139ad576139ad61496e565b60200260200101516020015151600014613a03578785815181106139d3576139d361496e565b6020026020010151602001516040516020016139ef9190615175565b604051602081830303815290604052613a14565b604051806020016040528060008152505b9050600086898781518110613a2b57613a2b61496e565b602002602001015160000151838588604051602001613a4e9594939291906151ba565b604051602081830303815290604052905080965050505050508080613a729061499a565b9150506138ad565b5080604051602001613a8c9190615275565b604051602081830303815290604052915050919050565b60006001600160e01b03198216635a05180f60e01b148061089e575061089e82613ca1565b613ad484848484613cc6565b6001811115613b435760405162461bcd60e51b815260206004820152603560248201527f455243373231456e756d657261626c653a20636f6e7365637574697665207472604482015274185b9cd9995c9cc81b9bdd081cdd5c1c1bdc9d1959605a1b6064820152608401610aa9565b816001600160a01b038516613ba157613b9c816101948054600083815261019560205260408120829055600182018355919091527fa6f1ac7ad7b125ba5a5e1c96b00ad6914f90a503b1ac3d85a9dadbb4c639df920155565b613bc4565b836001600160a01b0316856001600160a01b031614613bc457613bc48582613cd2565b6001600160a01b038416613be057613bdb81613d74565b611011565b846001600160a01b0316846001600160a01b031614611011576110118482613e29565b60606002826002811115613c1957613c19614ffd565b14613c7f576001826002811115613c3257613c32614ffd565b14613c5a5760405180604001604052806005815260200164045524332360dc1b81525061089e565b604051806040016040528060078152602001664552433131353560c81b81525061089e565b505060408051808201909152600681526545524337323160d01b602082015290565b60006001600160e01b03198216637965db0b60e01b148061089e575061089e82613e6f565b610fcf84848484613ebf565b60006001613cdf846111e0565b613ce99190614fb2565b60008381526101936020526040902054909150808214613d3f576001600160a01b038416600090815261019260209081526040808320858452825280832054848452818420819055835261019390915290208190555b506000918252610193602090815260408084208490556001600160a01b03909416835261019281528383209183525290812055565b61019454600090613d8790600190614fb2565b600083815261019560205260408120546101948054939450909284908110613db157613db161496e565b90600052602060002001549050806101948381548110613dd357613dd361496e565b60009182526020808320909101929092558281526101959091526040808220849055858252812055610194805480613e0d57613e0d614fc5565b6001900381819060005260206000200160009055905550505050565b6000613e34836111e0565b6001600160a01b0390931660009081526101926020908152604080832086845282528083208590559382526101939052919091209190915550565b60006001600160e01b031982166380ac58cd60e01b1480613ea057506001600160e01b03198216635b5e139f60e01b145b8061089e57506301ffc9a760e01b6001600160e01b031983161461089e565b6001811115610fcf576001600160a01b03841615613f05576001600160a01b03841660009081526068602052604081208054839290613eff908490614fb2565b90915550505b6001600160a01b03831615610fcf576001600160a01b03831660009081526068602052604081208054839290613f3c908490614cb1565b909155505050505050565b6001600160e01b031981168114610f2d57600080fd5b600060208284031215613f6f57600080fd5b813561166381613f47565b60008060408385031215613f8d57600080fd5b50508035926020909101359150565b60005b83811015613fb7578181015183820152602001613f9f565b50506000910152565b60008151808452613fd8816020860160208601613f9c565b601f01601f19169290920160200192915050565b6020815260006116636020830184613fc0565b60006020828403121561401157600080fd5b5035919050565b80356001600160a01b038116811461402f57600080fd5b919050565b6000806040838503121561404757600080fd5b61405083614018565b946020939093013593505050565b60006020828403121561407057600080fd5b61166382614018565b60008060006060848603121561408e57600080fd5b61409784614018565b92506140a560208501614018565b9150604084013590509250925092565b634e487b7160e01b600052604160045260246000fd5b604051606081016001600160401b03811182821017156140ed576140ed6140b5565b60405290565b604051601f8201601f191681016001600160401b038111828210171561411b5761411b6140b5565b604052919050565b60006001600160401b0382111561413c5761413c6140b5565b5060051b60200190565b600082601f83011261415757600080fd5b8135602061416c61416783614123565b6140f3565b82815260059290921b8401810191818101908684111561418b57600080fd5b8286015b848110156141a6578035835291830191830161418f565b509695505050505050565b6000602082840312156141c357600080fd5b81356001600160401b038111156141d957600080fd5b6124ab84828501614146565b6000602080830181845280855180835260408601915060408160051b870101925083870160005b8281101561423a57603f19888603018452614228858351613fc0565b9450928501929085019060010161420c565b5092979650505050505050565b6000806040838503121561425a57600080fd5b8235915061426a60208401614018565b90509250929050565b6000806040838503121561428657600080fd5b82356001600160401b0381111561429c57600080fd5b6142a885828601614146565b95602094909401359450505050565b6000806000606084860312156142cc57600080fd5b505081359360208301359350604090920135919050565b600080604083850312156142f657600080fd5b6142ff83614018565b915060208301356001600160401b0381111561431a57600080fd5b61432685828601614146565b9150509250929050565b600082601f83011261434157600080fd5b81356001600160401b0381111561435a5761435a6140b5565b61436d601f8201601f19166020016140f3565b81815284602083860101111561438257600080fd5b816020850160208301376000918101602001919091529392505050565b6000806000606084860312156143b457600080fd5b833592506020840135915060408401356001600160401b038111156143d857600080fd5b6143e486828701614330565b9150509250925092565b60006020828403121561440057600080fd5b81356001600160401b0381111561441657600080fd5b6124ab84828501614330565b6000806020838503121561443557600080fd5b82356001600160401b038082111561444c57600080fd5b818501915085601f83011261446057600080fd5b81358181111561446f57600080fd5b8660208260051b850101111561448457600080fd5b60209290920196919550909350505050565b600080600080608085870312156144ac57600080fd5b84356001600160401b03808211156144c357600080fd5b6144cf88838901614146565b955060208701359150808211156144e557600080fd5b6144f188838901614146565b9450604087013591508082111561450757600080fd5b61451388838901614146565b9350606087013591508082111561452957600080fd5b5061453687828801614146565b91505092959194509250565b600081518084526020808501945080840160005b8381101561457257815187529582019590820190600101614556565b509495945050505050565b6020815260006116636020830184614542565b6000806000606084860312156145a557600080fd5b6145ae84614018565b92506020840135915060408401356001600160401b038111156143d857600080fd5b600080604083850312156145e357600080fd5b8235915060208301356001600160401b0381111561431a57600080fd5b6000806040838503121561461357600080fd5b61461c83614018565b91506020830135801515811461463157600080fd5b809150509250929050565b6000806000806080858703121561465257600080fd5b5050823594602084013594506040840135936060013592509050565b6000806000806080858703121561468457600080fd5b61468d85614018565b935061469b60208601614018565b92506040850135915060608501356001600160401b038111156146bd57600080fd5b61453687828801614330565b6000806000606084860312156146de57600080fd5b833592506020840135915060408401356001600160401b0381111561470257600080fd5b6143e486828701614146565b6020808252825182820181905260009190848201906040850190845b8181101561474f5783516001600160a01b03168352928401929184019160010161472a565b50909695505050505050565b60008060006060848603121561477057600080fd5b833592506020808501356001600160401b038082111561478f57600080fd5b61479b88838901614146565b945060408701359150808211156147b157600080fd5b818701915087601f8301126147c557600080fd5b81356147d361416782614123565b81815260059190911b8301840190848101908a8311156147f257600080fd5b8585015b8381101561482a5780358581111561480e5760008081fd5b61481c8d89838a0101614330565b8452509186019186016147f6565b508096505050505050509250925092565b6000806000806080858703121561485157600080fd5b843593506020850135925060408501356001600160401b038082111561450757600080fd5b6000806040838503121561488957600080fd5b61489283614018565b915061426a60208401614018565b6000806000606084860312156148b557600080fd5b6148be84614018565b92506148cc60208501614018565b915060408401356001600160401b0381111561470257600080fd5b600181811c908216806148fb57607f821691505b60208210810361491b57634e487b7160e01b600052602260045260246000fd5b50919050565b6020808252602d908201527f4552433732313a2063616c6c6572206973206e6f7420746f6b656e206f776e6560408201526c1c881bdc88185c1c1c9bdd9959609a1b606082015260800190565b634e487b7160e01b600052603260045260246000fd5b634e487b7160e01b600052601160045260246000fd5b6000600182016149ac576149ac614984565b5060010190565b601f821115610b4a57600081815260208120601f850160051c810160208610156149da5750805b601f850160051c820191505b818110156113cb578281556001016149e6565b81516001600160401b03811115614a1257614a126140b5565b614a2681614a2084546148e7565b846149b3565b602080601f831160018114614a5b5760008415614a435750858301515b600019600386901b1c1916600185901b1785556113cb565b600085815260208120601f198616915b82811015614a8a57888601518255948401946001909101908401614a6b565b5085821015614aa85787850151600019600388901b60f8161c191681555b5050505050600190811b01905550565b600082601f830112614ac957600080fd5b81516020614ad961416783614123565b82815260059290921b84018101918181019086841115614af857600080fd5b8286015b848110156141a65780518352918301918301614afc565b600060208284031215614b2557600080fd5b81516001600160401b0380821115614b3c57600080fd5b9083019060608286031215614b5057600080fd5b614b586140cb565b825182811115614b6757600080fd5b614b7387828601614ab8565b825250602083015182811115614b8857600080fd5b614b9487828601614ab8565b602083015250604083015182811115614bac57600080fd5b614bb887828601614ab8565b60408301525095945050505050565b602081526000825160606020840152614be36080840182614542565b90506020840151601f1980858403016040860152614c018383614542565b9250604086015191508085840301606086015250614c1f8282614542565b95945050505050565b8281526040602082015260006124ab6040830184613fc0565b60008151614c53818560208601613f9c565b9290920192915050565b66021b7b9b6b4b1960cd1b815260008351614c7f816007850160208801613f9c565b6520456c66202360d01b6007918401918201528351614ca581600d840160208801613f9c565b01600d01949350505050565b8082018082111561089e5761089e614984565b60208082526025908201527f4552433732313a207472616e736665722066726f6d20696e636f72726563742060408201526437bbb732b960d91b606082015260800190565b6020808252602b908201527f496e697469616c697a61626c653a20636f6e7472616374206973206e6f74206960408201526a6e697469616c697a696e6760a81b606082015260800190565b60208082526032908201527f4552433732313a207472616e7366657220746f206e6f6e20455243373231526560408201527131b2b4bb32b91034b6b83632b6b2b73a32b960711b606082015260800190565b6000808454614db4816148e7565b60018281168015614dcc5760018114614de157614e10565b60ff1984168752821515830287019450614e10565b8860005260208060002060005b85811015614e075781548a820152908401908201614dee565b50505082870194505b505050508351614e24818360208801613f9c565b01949350505050565b7f416363657373436f6e74726f6c3a206163636f756e7420000000000000000000815260008351614e65816017850160208801613f9c565b7001034b99036b4b9b9b4b733903937b6329607d1b6017918401918201528351614e96816028840160208801613f9c565b01602801949350505050565b6001600160a01b038581168252841660208201526040810183905260806060820181905260009061234990830184613fc0565b600060208284031215614ee757600080fd5b815161166381613f47565b7f646174613a6170706c69636174696f6e2f6a736f6e3b6261736536342c000000815260008251614f2a81601d850160208701613f9c565b91909101601d0192915050565b607b60f81b815260008351614f53816001850160208801613f9c565b835190830190614f6a816001840160208801613f9c565b607d60f81b60019290910191820152600201949350505050565b808202811582820484141761089e5761089e614984565b600081614faa57614faa614984565b506000190190565b8181038181111561089e5761089e614984565b634e487b7160e01b600052603160045260246000fd5b600082614ff857634e487b7160e01b600052601260045260246000fd5b500490565b634e487b7160e01b600052602160045260246000fd5b67113730b6b2911d1160c11b81528651600090615037816008850160208c01613f9c565b61088b60f21b60089184019182018190526a113a37b5b2b724b2111d1160a91b600a830152885161506f816015850160208d01613f9c565b601592019182018190526e113232b9b1b934b83a34b7b7111d1160891b601783015287516150a4816026850160208c01613f9c565b60269201918201526151256150e261511f61510b826151056150f0826150dc60288a01681134b6b0b3b2911d1160b91b815260090190565b8e614c41565b61088b60f21b815260020190565b681137bbb732b9111d1160b91b815260090190565b8a614c41565b67113a3cb832911d1160c11b815260080190565b86614c41565b9998505050505050505050565b60008451615144818460208901613f9c565b845190830190615158818360208901613f9c565b845191019061516b818360208801613f9c565b0195945050505050565b6f113234b9b83630bcafba3cb832911d1160811b815281516000906151a1816010850160208701613f9c565b61088b60f21b6010939091019283015250601201919050565b600086516151cc818460208b01613f9c565b6e3d913a3930b4ba2fba3cb832911d1160891b90830190815286516151f881600f840160208b01613f9c565b61088b60f21b600f9290910191820152855161521b816011840160208a01613f9c565b67113b30b63ab2911d60c11b601192909101918201528451615244816019840160208901613f9c565b607d60f81b60199290910191820152835161526681601a840160208801613f9c565b01601a01979650505050505050565b6d2261747472696275746573223a5b60901b8152815160009061529f81600e850160208701613f9c565b605d60f81b600e939091019283015250600f0191905056fe4142434445464748494a4b4c4d4e4f505152535455565758595a6162636465666768696a6b6c6d6e6f707172737475767778797a303132333435363738392b2f9f2df0fed2c77648de5860a4cc508cd0818c85b8b8a1ab4ceeef8d981c8956a6a49807205ce4d355092ef5a8a18f56e8913cf4a201fbe287825b095693c21775364d3d7565c7a8300c96fd53e065d19b65848d7b23b3191adcd55621c744223ca2646970667358221220b73939c4a8f9d174b91f2ebe830fe07735b5a24fddc692ba131a840809392f3f64736f6c63430008110033",
  "linkReferences": {},
  "deployedLinkReferences": {}
}