{
  "_format": "hh-sol-artifact-1",
  "contractName": "Cosmic",
  "sourceName": "contracts/static/ERC20/Cosmic.sol",
  "abi": [
    {
      "inputs": [],
      "stateMutability": "nonpayable",
      "type": "constructor"
    },
    {
      "anonymous": false,
      "inputs": [
        {
          "indexed": true,
          "internalType": "address",
          "name": "owner",
          "type": "address"
        },
        {
          "indexed": true,
          "internalType": "address",
          "name": "spender",
          "type": "address"
        },
        {
          "indexed": false,
          "internalType": "uint256",
          "name": "value",
          "type": "uint256"
        }
      ],
      "name": "Approval",
      "type": "event"
    },
    {
      "anonymous": false,
      "inputs": [
        {
          "indexed": true,
          "internalType": "address",
          "name": "previousOwner",
          "type": "address"
        },
        {
          "indexed": true,
          "internalType": "address",
          "name": "newOwner",
          "type": "address"
        }
      ],
      "name": "OwnershipTransferred",
      "type": "event"
    },
    {
      "anonymous": false,
      "inputs": [
        {
          "indexed": false,
          "internalType": "address",
          "name": "account",
          "type": "address"
        }
      ],
      "name": "Paused",
      "type": "event"
    },
    {
      "anonymous": false,
      "inputs": [
        {
          "indexed": true,
          "internalType": "address",
          "name": "from",
          "type": "address"
        },
        {
          "indexed": true,
          "internalType": "address",
          "name": "to",
          "type": "address"
        },
        {
          "indexed": false,
          "internalType": "uint256",
          "name": "value",
          "type": "uint256"
        }
      ],
      "name": "Transfer",
      "type": "event"
    },
    {
      "anonymous": false,
      "inputs": [
        {
          "indexed": false,
          "internalType": "address",
          "name": "account",
          "type": "address"
        }
      ],
      "name": "Unpaused",
      "type": "event"
    },
    {
      "inputs": [
        {
          "internalType": "address",
          "name": "owner",
          "type": "address"
        },
        {
          "internalType": "address",
          "name": "spender",
          "type": "address"
        }
      ],
      "name": "allowance",
      "outputs": [
        {
          "internalType": "uint256",
          "name": "",
          "type": "uint256"
        }
      ],
      "stateMutability": "view",
      "type": "function"
    },
    {
      "inputs": [
        {
          "internalType": "address",
          "name": "spender",
          "type": "address"
        },
        {
          "internalType": "uint256",
          "name": "amount",
          "type": "uint256"
        }
      ],
      "name": "approve",
      "outputs": [
        {
          "internalType": "bool",
          "name": "",
          "type": "bool"
        }
      ],
      "stateMutability": "nonpayable",
      "type": "function"
    },
    {
      "inputs": [
        {
          "internalType": "address",
          "name": "account",
          "type": "address"
        }
      ],
      "name": "balanceOf",
      "outputs": [
        {
          "internalType": "uint256",
          "name": "",
          "type": "uint256"
        }
      ],
      "stateMutability": "view",
      "type": "function"
    },
    {
      "inputs": [
        {
          "internalType": "uint256",
          "name": "amount",
          "type": "uint256"
        }
      ],
      "name": "burn",
      "outputs": [],
      "stateMutability": "nonpayable",
      "type": "function"
    },
    {
      "inputs": [
        {
          "internalType": "address",
          "name": "account",
          "type": "address"
        },
        {
          "internalType": "uint256",
          "name": "amount",
          "type": "uint256"
        }
      ],
      "name": "burnFrom",
      "outputs": [],
      "stateMutability": "nonpayable",
      "type": "function"
    },
    {
      "inputs": [],
      "name": "burnSync",
      "outputs": [
        {
          "internalType": "uint256",
          "name": "",
          "type": "uint256"
        }
      ],
      "stateMutability": "nonpayable",
      "type": "function"
    },
    {
      "inputs": [],
      "name": "cap",
      "outputs": [
        {
          "internalType": "uint256",
          "name": "",
          "type": "uint256"
        }
      ],
      "stateMutability": "view",
      "type": "function"
    },
    {
      "inputs": [],
      "name": "decimals",
      "outputs": [
        {
          "internalType": "uint8",
          "name": "",
          "type": "uint8"
        }
      ],
      "stateMutability": "view",
      "type": "function"
    },
    {
      "inputs": [
        {
          "internalType": "address",
          "name": "spender",
          "type": "address"
        },
        {
          "internalType": "uint256",
          "name": "subtractedValue",
          "type": "uint256"
        }
      ],
      "name": "decreaseAllowance",
      "outputs": [
        {
          "internalType": "bool",
          "name": "",
          "type": "bool"
        }
      ],
      "stateMutability": "nonpayable",
      "type": "function"
    },
    {
      "inputs": [
        {
          "internalType": "address",
          "name": "spender",
          "type": "address"
        },
        {
          "internalType": "uint256",
          "name": "addedValue",
          "type": "uint256"
        }
      ],
      "name": "increaseAllowance",
      "outputs": [
        {
          "internalType": "bool",
          "name": "",
          "type": "bool"
        }
      ],
      "stateMutability": "nonpayable",
      "type": "function"
    },
    {
      "inputs": [],
      "name": "leftToUpgrade",
      "outputs": [
        {
          "internalType": "uint256",
          "name": "",
          "type": "uint256"
        }
      ],
      "stateMutability": "view",
      "type": "function"
    },
    {
      "inputs": [],
      "name": "missingBurn",
      "outputs": [
        {
          "internalType": "uint256",
          "name": "",
          "type": "uint256"
        }
      ],
      "stateMutability": "view",
      "type": "function"
    },
    {
      "inputs": [],
      "name": "name",
      "outputs": [
        {
          "internalType": "string",
          "name": "",
          "type": "string"
        }
      ],
      "stateMutability": "view",
      "type": "function"
    },
    {
      "inputs": [],
      "name": "owner",
      "outputs": [
        {
          "internalType": "address",
          "name": "",
          "type": "address"
        }
      ],
      "stateMutability": "view",
      "type": "function"
    },
    {
      "inputs": [],
      "name": "pause",
      "outputs": [],
      "stateMutability": "nonpayable",
      "type": "function"
    },
    {
      "inputs": [],
      "name": "paused",
      "outputs": [
        {
          "internalType": "bool",
          "name": "",
          "type": "bool"
        }
      ],
      "stateMutability": "view",
      "type": "function"
    },
    {
      "inputs": [],
      "name": "renounceOwnership",
      "outputs": [],
      "stateMutability": "nonpayable",
      "type": "function"
    },
    {
      "inputs": [],
      "name": "symbol",
      "outputs": [
        {
          "internalType": "string",
          "name": "",
          "type": "string"
        }
      ],
      "stateMutability": "view",
      "type": "function"
    },
    {
      "inputs": [],
      "name": "totalBurned",
      "outputs": [
        {
          "internalType": "uint256",
          "name": "",
          "type": "uint256"
        }
      ],
      "stateMutability": "view",
      "type": "function"
    },
    {
      "inputs": [],
      "name": "totalSupply",
      "outputs": [
        {
          "internalType": "uint256",
          "name": "",
          "type": "uint256"
        }
      ],
      "stateMutability": "view",
      "type": "function"
    },
    {
      "inputs": [],
      "name": "totalUpgraded",
      "outputs": [
        {
          "internalType": "uint256",
          "name": "",
          "type": "uint256"
        }
      ],
      "stateMutability": "view",
      "type": "function"
    },
    {
      "inputs": [
        {
          "internalType": "address",
          "name": "to",
          "type": "address"
        },
        {
          "internalType": "uint256",
          "name": "amount",
          "type": "uint256"
        }
      ],
      "name": "transfer",
      "outputs": [
        {
          "internalType": "bool",
          "name": "",
          "type": "bool"
        }
      ],
      "stateMutability": "nonpayable",
      "type": "function"
    },
    {
      "inputs": [
        {
          "internalType": "address",
          "name": "from",
          "type": "address"
        },
        {
          "internalType": "address",
          "name": "to",
          "type": "address"
        },
        {
          "internalType": "uint256",
          "name": "amount",
          "type": "uint256"
        }
      ],
      "name": "transferFrom",
      "outputs": [
        {
          "internalType": "bool",
          "name": "",
          "type": "bool"
        }
      ],
      "stateMutability": "nonpayable",
      "type": "function"
    },
    {
      "inputs": [
        {
          "internalType": "address",
          "name": "newOwner",
          "type": "address"
        }
      ],
      "name": "transferOwnership",
      "outputs": [],
      "stateMutability": "nonpayable",
      "type": "function"
    },
    {
      "inputs": [],
      "name": "unpause",
      "outputs": [],
      "stateMutability": "nonpayable",
      "type": "function"
    },
    {
      "inputs": [],
      "name": "upgradeAll",
      "outputs": [],
      "stateMutability": "nonpayable",
      "type": "function"
    }
  ],
  "bytecode": "0x60a06040523480156200001157600080fd5b506b033b2e3c9fd0803ce800000060405180604001604052806006815260200165436f736d696360d01b81525060405180604001604052806006815260200165434f534d494360d01b8152508160039080519060200190620000759291906200074f565b5080516200008b9060049060208401906200074f565b50505060008111620000e45760405162461bcd60e51b815260206004820152601560248201527f45524332304361707065643a206361702069732030000000000000000000000060448201526064015b60405180910390fd5b6080526005805460ff19169055620000fc3362000112565b60016006556200010b6200016c565b50620008b9565b600580546001600160a01b03838116610100818102610100600160a81b031985161790945560405193909204169182907f8be0079c531659141344cd1fd0a4f28419497f9722a3daafe3b4186f6b6457e090600090a35050565b600060026006541415620001c35760405162461bcd60e51b815260206004820152601f60248201527f5265656e7472616e637947756172643a207265656e7472616e742063616c6c006044820152606401620000db565b6002600655620001d26200026c565b6000620001de620002b6565b905060008111620002325760405162461bcd60e51b815260206004820152601560248201527f4e6f206f6c6420434f534d494320746f206275726e00000000000000000000006044820152606401620000db565b6200023e338262000360565b62000249816200037b565b80600760008282546200025d91906200080b565b90915550506001600655919050565b60055460ff1615620002b45760405162461bcd60e51b815260206004820152601060248201526f14185d5cd8589b194e881c185d5cd95960821b6044820152606401620000db565b565b6007546040516370a0823160e01b815260016004820152600091906200034f90736008c8769bfacd92251ba838382e7e5637c7e74d906370a082319060240160206040518083038186803b1580156200030e57600080fd5b505afa15801562000323573d6000803e3d6000fd5b505050506040513d601f19601f8201168201806040525081019062000349919062000826565b620003ad565b6200035b919062000840565b905090565b620003778282620003c560201b62000b7d1760201c565b5050565b62000391816200045160201b62000c0e1760201c565b8060086000828254620003a591906200080b565b909155505050565b6000620003bf82633b9aca006200085a565b92915050565b60805181620003de6200046060201b6200040e1760201c565b620003ea91906200080b565b11156200043a5760405162461bcd60e51b815260206004820152601960248201527f45524332304361707065643a20636170206578636565646564000000000000006044820152606401620000db565b6200037782826200046660201b62000c181760201c565b6200045d338262000548565b50565b60025490565b6001600160a01b038216620004be5760405162461bcd60e51b815260206004820152601f60248201527f45524332303a206d696e7420746f20746865207a65726f2061646472657373006044820152606401620000db565b620004cc60008383620006ad565b8060026000828254620004e091906200080b565b90915550506001600160a01b038216600090815260208190526040812080548392906200050f9084906200080b565b90915550506040518181526001600160a01b038316906000906000805160206200225c8339815191529060200160405180910390a35050565b6001600160a01b038216620005aa5760405162461bcd60e51b815260206004820152602160248201527f45524332303a206275726e2066726f6d20746865207a65726f206164647265736044820152607360f81b6064820152608401620000db565b620005b882600083620006ad565b6001600160a01b038216600090815260208190526040902054818110156200062e5760405162461bcd60e51b815260206004820152602260248201527f45524332303a206275726e20616d6f756e7420657863656564732062616c616e604482015261636560f01b6064820152608401620000db565b6001600160a01b03831660009081526020819052604081208383039055600280548492906200065f90849062000840565b90915550506040518281526000906001600160a01b038516906000805160206200225c8339815191529060200160405180910390a3620006a8836000846001600160e01b038416565b505050565b620006b76200026c565b620006a8838383620006cf60201b62000d031760201c565b620006e7838383620006a860201b62000d691760201c565b60055460ff1615620006a85760405162461bcd60e51b815260206004820152602a60248201527f45524332305061757361626c653a20746f6b656e207472616e736665722077686044820152691a5b19481c185d5cd95960b21b6064820152608401620000db565b8280546200075d906200087c565b90600052602060002090601f016020900481019282620007815760008555620007cc565b82601f106200079c57805160ff1916838001178555620007cc565b82800160010185558215620007cc579182015b82811115620007cc578251825591602001919060010190620007af565b50620007da929150620007de565b5090565b5b80821115620007da5760008155600101620007df565b634e487b7160e01b600052601160045260246000fd5b60008219821115620008215762000821620007f5565b500190565b6000602082840312156200083957600080fd5b5051919050565b600082821015620008555762000855620007f5565b500390565b6000816000190483118215151615620008775762000877620007f5565b500290565b600181811c908216806200089157607f821691505b60208210811415620008b357634e487b7160e01b600052602260045260246000fd5b50919050565b608051611980620008dc6000396000818161020a0152610b7f01526119806000f3fe608060405234801561001057600080fd5b506004361061018e5760003560e01c8063715018a6116100de578063a457c2d711610097578063c752ff6211610071578063c752ff621461032c578063d89135cd14610335578063dd62ed3e1461033e578063f2fde38b1461035157600080fd5b8063a457c2d7146102fe578063a9059cbb14610311578063c26c0a501461032457600080fd5b8063715018a6146102a257806379cc6790146102aa5780638456cb59146102bd5780638da5cb5b146102c5578063936c9af6146102ee57806395d89b41146102f657600080fd5b8063395093511161014b5780634fb08c0f116101255780634fb08c0f1461025e5780635c975abb1461026657806363832b121461027157806370a082311461027957600080fd5b8063395093511461022e5780633f4ba83a1461024157806342966c681461024b57600080fd5b806306fdde0314610193578063095ea7b3146101b157806318160ddd146101d457806323b872dd146101e6578063313ce567146101f9578063355274ea14610208575b600080fd5b61019b610364565b6040516101a89190611738565b60405180910390f35b6101c46101bf366004611787565b6103f6565b60405190151581526020016101a8565b6002545b6040519081526020016101a8565b6101c46101f43660046117b1565b610414565b604051601281526020016101a8565b7f00000000000000000000000000000000000000000000000000000000000000006101d8565b6101c461023c366004611787565b61043a565b61024961045c565b005b6102496102593660046117ed565b61046e565b6101d8610491565b60055460ff166101c4565b610249610581565b6101d8610287366004611806565b6001600160a01b031660009081526020819052604090205490565b610249610839565b6102496102b8366004611787565b61084b565b610249610870565b60055461010090046001600160a01b03166040516001600160a01b0390911681526020016101a8565b6101d8610880565b61019b61099e565b6101c461030c366004611787565b6109ad565b6101c461031f366004611787565b610a33565b6101d8610a41565b6101d860075481565b6101d860085481565b6101d861034c366004611821565b610ad9565b61024961035f366004611806565b610b04565b60606003805461037390611854565b80601f016020809104026020016040519081016040528092919081815260200182805461039f90611854565b80156103ec5780601f106103c1576101008083540402835291602001916103ec565b820191906000526020600020905b8154815290600101906020018083116103cf57829003601f168201915b5050505050905090565b600033610404818585610d6e565b5060019392505050565b60025490565b600033610422858285610e92565b61042d858585610f0c565b60019150505b9392505050565b60003361040481858561044d8383610ad9565b61045791906118a5565b610d6e565b6104646110e5565b61046c611145565b565b61047781610c0e565b806008600082825461048991906118a5565b909155505050565b6000600260065414156104eb5760405162461bcd60e51b815260206004820152601f60248201527f5265656e7472616e637947756172643a207265656e7472616e742063616c6c0060448201526064015b60405180910390fd5b60026006556104f8611197565b6000610502610a41565b90506000811161054c5760405162461bcd60e51b815260206004820152601560248201527427379037b6321021a7a9a6a4a1903a3790313ab93760591b60448201526064016104e2565b610557335b826111dd565b6105608161046e565b806007600082825461057291906118a5565b90915550506001600655919050565b600260065414156105d45760405162461bcd60e51b815260206004820152601f60248201527f5265656e7472616e637947756172643a207265656e7472616e742063616c6c0060448201526064016104e2565b60026006556105e1611197565b6000736008c8769bfacd92251ba838382e7e5637c7e74d6370a08231336040516001600160e01b031960e084901b1681526001600160a01b03909116600482015260240160206040518083038186803b15801561063d57600080fd5b505afa158015610651573d6000803e3d6000fd5b505050506040513d601f19601f8201168201806040525081019061067591906118bd565b9050600081116106c75760405162461bcd60e51b815260206004820152601860248201527f4e6f206f6c6420434f534d494320746f2075706772616465000000000000000060448201526064016104e2565b6040516370a0823160e01b815260016004820152600090736008c8769bfacd92251ba838382e7e5637c7e74d906370a082319060240160206040518083038186803b15801561071557600080fd5b505afa158015610729573d6000803e3d6000fd5b505050506040513d601f19601f8201168201806040525081019061074d91906118bd565b9050610770736008c8769bfacd92251ba838382e7e5637c7e74d336001856111e7565b6040516370a0823160e01b815260016004820152600090736008c8769bfacd92251ba838382e7e5637c7e74d906370a082319060240160206040518083038186803b1580156107be57600080fd5b505afa1580156107d2573d6000803e3d6000fd5b505050506040513d601f19601f820116820180604052508101906107f691906118bd565b9050600061080c61080784846118d6565b611241565b905061081733610551565b806007600082825461082991906118a5565b9091555050600160065550505050565b6108416110e5565b61046c6000611257565b61085582826112b1565b806008600082825461086791906118a5565b90915550505050565b6108786110e5565b61046c6112c6565b6040516370a0823160e01b81526001600482015260009061099990736008c8769bfacd92251ba838382e7e5637c7e74d906370a082319060240160206040518083038186803b1580156108d257600080fd5b505afa1580156108e6573d6000803e3d6000fd5b505050506040513d601f19601f8201168201806040525081019061090a91906118bd565b736008c8769bfacd92251ba838382e7e5637c7e74d6001600160a01b03166318160ddd6040518163ffffffff1660e01b815260040160206040518083038186803b15801561095757600080fd5b505afa15801561096b573d6000803e3d6000fd5b505050506040513d601f19601f8201168201806040525081019061098f91906118bd565b61080791906118d6565b905090565b60606004805461037390611854565b600033816109bb8286610ad9565b905083811015610a1b5760405162461bcd60e51b815260206004820152602560248201527f45524332303a2064656372656173656420616c6c6f77616e63652062656c6f77604482015264207a65726f60d81b60648201526084016104e2565b610a288286868403610d6e565b506001949350505050565b600033610404818585610f0c565b6007546040516370a0823160e01b81526001600482015260009190610acf90736008c8769bfacd92251ba838382e7e5637c7e74d906370a082319060240160206040518083038186803b158015610a9757600080fd5b505afa158015610aab573d6000803e3d6000fd5b505050506040513d601f19601f8201168201806040525081019061080791906118bd565b61099991906118d6565b6001600160a01b03918216600090815260016020908152604080832093909416825291909152205490565b610b0c6110e5565b6001600160a01b038116610b715760405162461bcd60e51b815260206004820152602660248201527f4f776e61626c653a206e6577206f776e657220697320746865207a65726f206160448201526564647265737360d01b60648201526084016104e2565b610b7a81611257565b50565b7f000000000000000000000000000000000000000000000000000000000000000081610ba860025490565b610bb291906118a5565b1115610c005760405162461bcd60e51b815260206004820152601960248201527f45524332304361707065643a206361702065786365656465640000000000000060448201526064016104e2565b610c0a8282610c18565b5050565b610b7a3382611303565b6001600160a01b038216610c6e5760405162461bcd60e51b815260206004820152601f60248201527f45524332303a206d696e7420746f20746865207a65726f20616464726573730060448201526064016104e2565b610c7a6000838361145d565b8060026000828254610c8c91906118a5565b90915550506001600160a01b03821660009081526020819052604081208054839290610cb99084906118a5565b90915550506040518181526001600160a01b038316906000907fddf252ad1be2c89b69c2b068fc378daa952ba7f163c4a11628f55a4df523b3ef9060200160405180910390a35050565b60055460ff1615610d695760405162461bcd60e51b815260206004820152602a60248201527f45524332305061757361626c653a20746f6b656e207472616e736665722077686044820152691a5b19481c185d5cd95960b21b60648201526084016104e2565b505050565b6001600160a01b038316610dd05760405162461bcd60e51b8152602060048201526024808201527f45524332303a20617070726f76652066726f6d20746865207a65726f206164646044820152637265737360e01b60648201526084016104e2565b6001600160a01b038216610e315760405162461bcd60e51b815260206004820152602260248201527f45524332303a20617070726f766520746f20746865207a65726f206164647265604482015261737360f01b60648201526084016104e2565b6001600160a01b0383811660008181526001602090815260408083209487168084529482529182902085905590518481527f8c5be1e5ebec7d5bd14f71427d1e84f3dd0314c0f7b2291e5b200ac8c7c3b925910160405180910390a3505050565b6000610e9e8484610ad9565b90506000198114610f065781811015610ef95760405162461bcd60e51b815260206004820152601d60248201527f45524332303a20696e73756666696369656e7420616c6c6f77616e636500000060448201526064016104e2565b610f068484848403610d6e565b50505050565b6001600160a01b038316610f705760405162461bcd60e51b815260206004820152602560248201527f45524332303a207472616e736665722066726f6d20746865207a65726f206164604482015264647265737360d81b60648201526084016104e2565b6001600160a01b038216610fd25760405162461bcd60e51b815260206004820152602360248201527f45524332303a207472616e7366657220746f20746865207a65726f206164647260448201526265737360e81b60648201526084016104e2565b610fdd83838361145d565b6001600160a01b038316600090815260208190526040902054818110156110555760405162461bcd60e51b815260206004820152602660248201527f45524332303a207472616e7366657220616d6f756e7420657863656564732062604482015265616c616e636560d01b60648201526084016104e2565b6001600160a01b0380851660009081526020819052604080822085850390559185168152908120805484929061108c9084906118a5565b92505081905550826001600160a01b0316846001600160a01b03167fddf252ad1be2c89b69c2b068fc378daa952ba7f163c4a11628f55a4df523b3ef846040516110d891815260200190565b60405180910390a3610f06565b6005546001600160a01b0361010090910416331461046c5760405162461bcd60e51b815260206004820181905260248201527f4f776e61626c653a2063616c6c6572206973206e6f7420746865206f776e657260448201526064016104e2565b61114d611470565b6005805460ff191690557f5db9ee0a495bf2e6ff9c91a7834c1ba4fdd244a5e8aa4e537bd38aeae4b073aa335b6040516001600160a01b03909116815260200160405180910390a1565b60055460ff161561046c5760405162461bcd60e51b815260206004820152601060248201526f14185d5cd8589b194e881c185d5cd95960821b60448201526064016104e2565b610c0a8282610b7d565b604080516001600160a01b0385811660248301528416604482015260648082018490528251808303909101815260849091019091526020810180516001600160e01b03166323b872dd60e01b179052610f069085906114b9565b600061125182633b9aca006118ed565b92915050565b600580546001600160a01b03838116610100818102610100600160a81b031985161790945560405193909204169182907f8be0079c531659141344cd1fd0a4f28419497f9722a3daafe3b4186f6b6457e090600090a35050565b6112bc823383610e92565b610c0a8282611303565b6112ce611197565b6005805460ff191660011790557f62e78cea01bee320cd4e420270b5ea74000d11b0c9f74754ebdbfc544b05a25861117a3390565b6001600160a01b0382166113635760405162461bcd60e51b815260206004820152602160248201527f45524332303a206275726e2066726f6d20746865207a65726f206164647265736044820152607360f81b60648201526084016104e2565b61136f8260008361145d565b6001600160a01b038216600090815260208190526040902054818110156113e35760405162461bcd60e51b815260206004820152602260248201527f45524332303a206275726e20616d6f756e7420657863656564732062616c616e604482015261636560f01b60648201526084016104e2565b6001600160a01b03831660009081526020819052604081208383039055600280548492906114129084906118d6565b90915550506040518281526000906001600160a01b038516907fddf252ad1be2c89b69c2b068fc378daa952ba7f163c4a11628f55a4df523b3ef9060200160405180910390a3505050565b611465611197565b610d69838383610d03565b60055460ff1661046c5760405162461bcd60e51b815260206004820152601460248201527314185d5cd8589b194e881b9bdd081c185d5cd95960621b60448201526064016104e2565b600061150e826040518060400160405280602081526020017f5361666545524332303a206c6f772d6c6576656c2063616c6c206661696c6564815250856001600160a01b031661158b9092919063ffffffff16565b805190915015610d69578080602001905181019061152c919061190c565b610d695760405162461bcd60e51b815260206004820152602a60248201527f5361666545524332303a204552433230206f7065726174696f6e20646964206e6044820152691bdd081cdd58d8d9595960b21b60648201526084016104e2565b606061159a84846000856115a2565b949350505050565b6060824710156116035760405162461bcd60e51b815260206004820152602660248201527f416464726573733a20696e73756666696369656e742062616c616e636520666f6044820152651c8818d85b1b60d21b60648201526084016104e2565b6001600160a01b0385163b61165a5760405162461bcd60e51b815260206004820152601d60248201527f416464726573733a2063616c6c20746f206e6f6e2d636f6e747261637400000060448201526064016104e2565b600080866001600160a01b03168587604051611676919061192e565b60006040518083038185875af1925050503d80600081146116b3576040519150601f19603f3d011682016040523d82523d6000602084013e6116b8565b606091505b50915091506116c88282866116d3565b979650505050505050565b606083156116e2575081610433565b8251156116f25782518084602001fd5b8160405162461bcd60e51b81526004016104e29190611738565b60005b8381101561172757818101518382015260200161170f565b83811115610f065750506000910152565b602081526000825180602084015261175781604085016020870161170c565b601f01601f19169190910160400192915050565b80356001600160a01b038116811461178257600080fd5b919050565b6000806040838503121561179a57600080fd5b6117a38361176b565b946020939093013593505050565b6000806000606084860312156117c657600080fd5b6117cf8461176b565b92506117dd6020850161176b565b9150604084013590509250925092565b6000602082840312156117ff57600080fd5b5035919050565b60006020828403121561181857600080fd5b6104338261176b565b6000806040838503121561183457600080fd5b61183d8361176b565b915061184b6020840161176b565b90509250929050565b600181811c9082168061186857607f821691505b6020821081141561188957634e487b7160e01b600052602260045260246000fd5b50919050565b634e487b7160e01b600052601160045260246000fd5b600082198211156118b8576118b861188f565b500190565b6000602082840312156118cf57600080fd5b5051919050565b6000828210156118e8576118e861188f565b500390565b60008160001904831182151516156119075761190761188f565b500290565b60006020828403121561191e57600080fd5b8151801515811461043357600080fd5b6000825161194081846020870161170c565b919091019291505056fea26469706673582212207618d5cd253a3be48244d0f9e60ab2f37b7bf5ae6d0feeef94baf3352d53936964736f6c63430008090033ddf252ad1be2c89b69c2b068fc378daa952ba7f163c4a11628f55a4df523b3ef",
  "linkReferences": {},
  "deployedLinkReferences": {}
}