{
  "_format": "hh-sol-artifact-1",
  "contractName": "Cosmic",
  "sourceName": "contracts/static/ERC20/Cosmic.sol",
  "abi": [
    {
      "inputs": [],
      "stateMutability": "nonpayable",
      "type": "constructor"
    },
    {
      "anonymous": false,
      "inputs": [
        {
          "indexed": true,
          "internalType": "address",
          "name": "owner",
          "type": "address"
        },
        {
          "indexed": true,
          "internalType": "address",
          "name": "spender",
          "type": "address"
        },
        {
          "indexed": false,
          "internalType": "uint256",
          "name": "value",
          "type": "uint256"
        }
      ],
      "name": "Approval",
      "type": "event"
    },
    {
      "anonymous": false,
      "inputs": [
        {
          "indexed": true,
          "internalType": "address",
          "name": "previousOwner",
          "type": "address"
        },
        {
          "indexed": true,
          "internalType": "address",
          "name": "newOwner",
          "type": "address"
        }
      ],
      "name": "OwnershipTransferred",
      "type": "event"
    },
    {
      "anonymous": false,
      "inputs": [
        {
          "indexed": false,
          "internalType": "address",
          "name": "account",
          "type": "address"
        }
      ],
      "name": "Paused",
      "type": "event"
    },
    {
      "anonymous": false,
      "inputs": [
        {
          "indexed": true,
          "internalType": "address",
          "name": "from",
          "type": "address"
        },
        {
          "indexed": true,
          "internalType": "address",
          "name": "to",
          "type": "address"
        },
        {
          "indexed": false,
          "internalType": "uint256",
          "name": "value",
          "type": "uint256"
        }
      ],
      "name": "Transfer",
      "type": "event"
    },
    {
      "anonymous": false,
      "inputs": [
        {
          "indexed": false,
          "internalType": "address",
          "name": "account",
          "type": "address"
        }
      ],
      "name": "Unpaused",
      "type": "event"
    },
    {
      "inputs": [
        {
          "internalType": "address",
          "name": "owner",
          "type": "address"
        },
        {
          "internalType": "address",
          "name": "spender",
          "type": "address"
        }
      ],
      "name": "allowance",
      "outputs": [
        {
          "internalType": "uint256",
          "name": "",
          "type": "uint256"
        }
      ],
      "stateMutability": "view",
      "type": "function"
    },
    {
      "inputs": [
        {
          "internalType": "address",
          "name": "spender",
          "type": "address"
        },
        {
          "internalType": "uint256",
          "name": "amount",
          "type": "uint256"
        }
      ],
      "name": "approve",
      "outputs": [
        {
          "internalType": "bool",
          "name": "",
          "type": "bool"
        }
      ],
      "stateMutability": "nonpayable",
      "type": "function"
    },
    {
      "inputs": [
        {
          "internalType": "address",
          "name": "account",
          "type": "address"
        }
      ],
      "name": "balanceOf",
      "outputs": [
        {
          "internalType": "uint256",
          "name": "",
          "type": "uint256"
        }
      ],
      "stateMutability": "view",
      "type": "function"
    },
    {
      "inputs": [
        {
          "internalType": "uint256",
          "name": "amount",
          "type": "uint256"
        }
      ],
      "name": "burn",
      "outputs": [],
      "stateMutability": "nonpayable",
      "type": "function"
    },
    {
      "inputs": [
        {
          "internalType": "address",
          "name": "account",
          "type": "address"
        },
        {
          "internalType": "uint256",
          "name": "amount",
          "type": "uint256"
        }
      ],
      "name": "burnFrom",
      "outputs": [],
      "stateMutability": "nonpayable",
      "type": "function"
    },
    {
      "inputs": [],
      "name": "burnSync",
      "outputs": [
        {
          "internalType": "uint256",
          "name": "",
          "type": "uint256"
        }
      ],
      "stateMutability": "nonpayable",
      "type": "function"
    },
    {
      "inputs": [],
      "name": "cap",
      "outputs": [
        {
          "internalType": "uint256",
          "name": "",
          "type": "uint256"
        }
      ],
      "stateMutability": "view",
      "type": "function"
    },
    {
      "inputs": [],
      "name": "decimals",
      "outputs": [
        {
          "internalType": "uint8",
          "name": "",
          "type": "uint8"
        }
      ],
      "stateMutability": "view",
      "type": "function"
    },
    {
      "inputs": [
        {
          "internalType": "address",
          "name": "spender",
          "type": "address"
        },
        {
          "internalType": "uint256",
          "name": "subtractedValue",
          "type": "uint256"
        }
      ],
      "name": "decreaseAllowance",
      "outputs": [
        {
          "internalType": "bool",
          "name": "",
          "type": "bool"
        }
      ],
      "stateMutability": "nonpayable",
      "type": "function"
    },
    {
      "inputs": [
        {
          "internalType": "address",
          "name": "spender",
          "type": "address"
        },
        {
          "internalType": "uint256",
          "name": "addedValue",
          "type": "uint256"
        }
      ],
      "name": "increaseAllowance",
      "outputs": [
        {
          "internalType": "bool",
          "name": "",
          "type": "bool"
        }
      ],
      "stateMutability": "nonpayable",
      "type": "function"
    },
    {
      "inputs": [],
      "name": "leftToUpgrade",
      "outputs": [
        {
          "internalType": "uint256",
          "name": "",
          "type": "uint256"
        }
      ],
      "stateMutability": "view",
      "type": "function"
    },
    {
      "inputs": [],
      "name": "missingBurn",
      "outputs": [
        {
          "internalType": "uint256",
          "name": "",
          "type": "uint256"
        }
      ],
      "stateMutability": "view",
      "type": "function"
    },
    {
      "inputs": [],
      "name": "name",
      "outputs": [
        {
          "internalType": "string",
          "name": "",
          "type": "string"
        }
      ],
      "stateMutability": "view",
      "type": "function"
    },
    {
      "inputs": [],
      "name": "owner",
      "outputs": [
        {
          "internalType": "address",
          "name": "",
          "type": "address"
        }
      ],
      "stateMutability": "view",
      "type": "function"
    },
    {
      "inputs": [],
      "name": "pause",
      "outputs": [],
      "stateMutability": "nonpayable",
      "type": "function"
    },
    {
      "inputs": [],
      "name": "paused",
      "outputs": [
        {
          "internalType": "bool",
          "name": "",
          "type": "bool"
        }
      ],
      "stateMutability": "view",
      "type": "function"
    },
    {
      "inputs": [],
      "name": "renounceOwnership",
      "outputs": [],
      "stateMutability": "nonpayable",
      "type": "function"
    },
    {
      "inputs": [],
      "name": "symbol",
      "outputs": [
        {
          "internalType": "string",
          "name": "",
          "type": "string"
        }
      ],
      "stateMutability": "view",
      "type": "function"
    },
    {
      "inputs": [],
      "name": "totalBurned",
      "outputs": [
        {
          "internalType": "uint256",
          "name": "",
          "type": "uint256"
        }
      ],
      "stateMutability": "view",
      "type": "function"
    },
    {
      "inputs": [],
      "name": "totalSupply",
      "outputs": [
        {
          "internalType": "uint256",
          "name": "",
          "type": "uint256"
        }
      ],
      "stateMutability": "view",
      "type": "function"
    },
    {
      "inputs": [],
      "name": "totalUpgraded",
      "outputs": [
        {
          "internalType": "uint256",
          "name": "",
          "type": "uint256"
        }
      ],
      "stateMutability": "view",
      "type": "function"
    },
    {
      "inputs": [
        {
          "internalType": "address",
          "name": "to",
          "type": "address"
        },
        {
          "internalType": "uint256",
          "name": "amount",
          "type": "uint256"
        }
      ],
      "name": "transfer",
      "outputs": [
        {
          "internalType": "bool",
          "name": "",
          "type": "bool"
        }
      ],
      "stateMutability": "nonpayable",
      "type": "function"
    },
    {
      "inputs": [
        {
          "internalType": "address",
          "name": "from",
          "type": "address"
        },
        {
          "internalType": "address",
          "name": "to",
          "type": "address"
        },
        {
          "internalType": "uint256",
          "name": "amount",
          "type": "uint256"
        }
      ],
      "name": "transferFrom",
      "outputs": [
        {
          "internalType": "bool",
          "name": "",
          "type": "bool"
        }
      ],
      "stateMutability": "nonpayable",
      "type": "function"
    },
    {
      "inputs": [
        {
          "internalType": "address",
          "name": "newOwner",
          "type": "address"
        }
      ],
      "name": "transferOwnership",
      "outputs": [],
      "stateMutability": "nonpayable",
      "type": "function"
    },
    {
      "inputs": [],
      "name": "unpause",
      "outputs": [],
      "stateMutability": "nonpayable",
      "type": "function"
    },
    {
      "inputs": [],
      "name": "upgradeAll",
      "outputs": [],
      "stateMutability": "nonpayable",
      "type": "function"
    }
  ],
  "bytecode": "0x60a06040523480156200001157600080fd5b506b033b2e3c9fd0803ce800000060405180604001604052806006815260200165436f736d696360d01b81525060405180604001604052806006815260200165434f534d494360d01b81525081600390805190602001906200007592919062000771565b5080516200008b90600490602084019062000771565b50505060008111620000e45760405162461bcd60e51b815260206004820152601560248201527f45524332304361707065643a206361702069732030000000000000000000000060448201526064015b60405180910390fd5b6080526005805460ff19169055620000fc3362000112565b60016006556200010b6200016c565b50620008db565b600580546001600160a01b03838116610100818102610100600160a81b031985161790945560405193909204169182907f8be0079c531659141344cd1fd0a4f28419497f9722a3daafe3b4186f6b6457e090600090a35050565b600060026006541415620001c35760405162461bcd60e51b815260206004820152601f60248201527f5265656e7472616e637947756172643a207265656e7472616e742063616c6c006044820152606401620000db565b600260065560055460ff1615620002105760405162461bcd60e51b815260206004820152601060248201526f14185d5cd8589b194e881c185d5cd95960821b6044820152606401620000db565b60006200021c620002aa565b905060008111620002705760405162461bcd60e51b815260206004820152601560248201527f4e6f206f6c6420434f534d494320746f206275726e00000000000000000000006044820152606401620000db565b6200027c338262000344565b62000287816200035f565b80600760008282546200029b91906200082d565b90915550506001600655919050565b6007546040516370a0823160e01b815260016004820152600091906200033390736008c8769bfacd92251ba838382e7e5637c7e74d906370a0823190602401602060405180830381865afa15801562000307573d6000803e3d6000fd5b505050506040513d601f19601f820116820180604052508101906200032d919062000848565b62000391565b6200033f919062000862565b905090565b6200035b8282620003a960201b62000bfd1760201c565b5050565b62000375816200043560201b62000c8e1760201c565b80600860008282546200038991906200082d565b909155505050565b6000620003a382633b9aca006200087c565b92915050565b60805181620003c26200044460201b6200040e1760201c565b620003ce91906200082d565b11156200041e5760405162461bcd60e51b815260206004820152601960248201527f45524332304361707065643a20636170206578636565646564000000000000006044820152606401620000db565b6200035b82826200044a60201b62000c981760201c565b6200044133826200052c565b50565b60025490565b6001600160a01b038216620004a25760405162461bcd60e51b815260206004820152601f60248201527f45524332303a206d696e7420746f20746865207a65726f2061646472657373006044820152606401620000db565b620004b06000838362000691565b8060026000828254620004c491906200082d565b90915550506001600160a01b03821660009081526020819052604081208054839290620004f39084906200082d565b90915550506040518181526001600160a01b03831690600090600080516020620022e58339815191529060200160405180910390a35050565b6001600160a01b0382166200058e5760405162461bcd60e51b815260206004820152602160248201527f45524332303a206275726e2066726f6d20746865207a65726f206164647265736044820152607360f81b6064820152608401620000db565b6200059c8260008362000691565b6001600160a01b03821660009081526020819052604090205481811015620006125760405162461bcd60e51b815260206004820152602260248201527f45524332303a206275726e20616d6f756e7420657863656564732062616c616e604482015261636560f01b6064820152608401620000db565b6001600160a01b03831660009081526020819052604081208383039055600280548492906200064390849062000862565b90915550506040518281526000906001600160a01b03851690600080516020620022e58339815191529060200160405180910390a36200068c836000846001600160e01b038416565b505050565b60055460ff1615620006d95760405162461bcd60e51b815260206004820152601060248201526f14185d5cd8589b194e881c185d5cd95960821b6044820152606401620000db565b6200068c838383620006f160201b62000d831760201c565b620007098383836200068c60201b62000de91760201c565b60055460ff16156200068c5760405162461bcd60e51b815260206004820152602a60248201527f45524332305061757361626c653a20746f6b656e207472616e736665722077686044820152691a5b19481c185d5cd95960b21b6064820152608401620000db565b8280546200077f906200089e565b90600052602060002090601f016020900481019282620007a35760008555620007ee565b82601f10620007be57805160ff1916838001178555620007ee565b82800160010185558215620007ee579182015b82811115620007ee578251825591602001919060010190620007d1565b50620007fc92915062000800565b5090565b5b80821115620007fc576000815560010162000801565b634e487b7160e01b600052601160045260246000fd5b6000821982111562000843576200084362000817565b500190565b6000602082840312156200085b57600080fd5b5051919050565b60008282101562000877576200087762000817565b500390565b600081600019048311821515161562000899576200089962000817565b500290565b600181811c90821680620008b357607f821691505b60208210811415620008d557634e487b7160e01b600052602260045260246000fd5b50919050565b6080516119e7620008fe6000396000818161020a0152610bff01526119e76000f3fe608060405234801561001057600080fd5b506004361061018e5760003560e01c8063715018a6116100de578063a457c2d711610097578063c752ff6211610071578063c752ff621461032c578063d89135cd14610335578063dd62ed3e1461033e578063f2fde38b1461035157600080fd5b8063a457c2d7146102fe578063a9059cbb14610311578063c26c0a501461032457600080fd5b8063715018a6146102a257806379cc6790146102aa5780638456cb59146102bd5780638da5cb5b146102c5578063936c9af6146102ee57806395d89b41146102f657600080fd5b8063395093511161014b5780634fb08c0f116101255780634fb08c0f1461025e5780635c975abb1461026657806363832b121461027157806370a082311461027957600080fd5b8063395093511461022e5780633f4ba83a1461024157806342966c681461024b57600080fd5b806306fdde0314610193578063095ea7b3146101b157806318160ddd146101d457806323b872dd146101e6578063313ce567146101f9578063355274ea14610208575b600080fd5b61019b610364565b6040516101a89190611740565b60405180910390f35b6101c46101bf36600461178f565b6103f6565b60405190151581526020016101a8565b6002545b6040519081526020016101a8565b6101c46101f43660046117b9565b610414565b604051601281526020016101a8565b7f00000000000000000000000000000000000000000000000000000000000000006101d8565b6101c461023c36600461178f565b61043a565b61024961045c565b005b6102496102593660046117f5565b61049f565b6101d86104c2565b60055460ff166101c4565b6102496105c8565b6101d861028736600461180e565b6001600160a01b031660009081526020819052604090205490565b61024961086e565b6102496102b836600461178f565b6108a8565b6102496108cd565b60055461010090046001600160a01b03166040516001600160a01b0390911681526020016101a8565b6101d8610905565b61019b610a05565b6101c461030c36600461178f565b610a14565b6101c461031f36600461178f565b610a9a565b6101d8610aa8565b6101d860075481565b6101d860085481565b6101d861034c366004611829565b610b31565b61024961035f36600461180e565b610b5c565b6060600380546103739061185c565b80601f016020809104026020016040519081016040528092919081815260200182805461039f9061185c565b80156103ec5780601f106103c1576101008083540402835291602001916103ec565b820191906000526020600020905b8154815290600101906020018083116103cf57829003601f168201915b5050505050905090565b600033610404818585610dee565b5060019392505050565b60025490565b600033610422858285610f12565b61042d858585610f8c565b60019150505b9392505050565b60003361040481858561044d8383610b31565b61045791906118ad565b610dee565b6005546001600160a01b036101009091041633146104955760405162461bcd60e51b815260040161048c906118c5565b60405180910390fd5b61049d611165565b565b6104a881610c8e565b80600860008282546104ba91906118ad565b909155505050565b6000600260065414156105175760405162461bcd60e51b815260206004820152601f60248201527f5265656e7472616e637947756172643a207265656e7472616e742063616c6c00604482015260640161048c565b600260065560055460ff161561053f5760405162461bcd60e51b815260040161048c906118fa565b6000610549610aa8565b9050600081116105935760405162461bcd60e51b815260206004820152601560248201527427379037b6321021a7a9a6a4a1903a3790313ab93760591b604482015260640161048c565b61059e335b826111f8565b6105a78161049f565b80600760008282546105b991906118ad565b90915550506001600655919050565b6002600654141561061b5760405162461bcd60e51b815260206004820152601f60248201527f5265656e7472616e637947756172643a207265656e7472616e742063616c6c00604482015260640161048c565b600260065560055460ff16156106435760405162461bcd60e51b815260040161048c906118fa565b6000736008c8769bfacd92251ba838382e7e5637c7e74d6370a08231336040516001600160e01b031960e084901b1681526001600160a01b039091166004820152602401602060405180830381865afa1580156106a4573d6000803e3d6000fd5b505050506040513d601f19601f820116820180604052508101906106c89190611924565b90506000811161071a5760405162461bcd60e51b815260206004820152601860248201527f4e6f206f6c6420434f534d494320746f20757067726164650000000000000000604482015260640161048c565b6040516370a0823160e01b815260016004820152600090736008c8769bfacd92251ba838382e7e5637c7e74d906370a0823190602401602060405180830381865afa15801561076d573d6000803e3d6000fd5b505050506040513d601f19601f820116820180604052508101906107919190611924565b90506107b4736008c8769bfacd92251ba838382e7e5637c7e74d33600185611202565b6040516370a0823160e01b815260016004820152600090736008c8769bfacd92251ba838382e7e5637c7e74d906370a0823190602401602060405180830381865afa158015610807573d6000803e3d6000fd5b505050506040513d601f19601f8201168201806040525081019061082b9190611924565b9050600061084161083c848461193d565b61125c565b905061084c33610598565b806007600082825461085e91906118ad565b9091555050600160065550505050565b6005546001600160a01b0361010090910416331461089e5760405162461bcd60e51b815260040161048c906118c5565b61049d6000611272565b6108b282826112cc565b80600860008282546108c491906118ad565b90915550505050565b6005546001600160a01b036101009091041633146108fd5760405162461bcd60e51b815260040161048c906118c5565b61049d6112e1565b6040516370a0823160e01b815260016004820152600090610a0090736008c8769bfacd92251ba838382e7e5637c7e74d906370a0823190602401602060405180830381865afa15801561095c573d6000803e3d6000fd5b505050506040513d601f19601f820116820180604052508101906109809190611924565b736008c8769bfacd92251ba838382e7e5637c7e74d6001600160a01b03166318160ddd6040518163ffffffff1660e01b8152600401602060405180830381865afa1580156109d2573d6000803e3d6000fd5b505050506040513d601f19601f820116820180604052508101906109f69190611924565b61083c919061193d565b905090565b6060600480546103739061185c565b60003381610a228286610b31565b905083811015610a825760405162461bcd60e51b815260206004820152602560248201527f45524332303a2064656372656173656420616c6c6f77616e63652062656c6f77604482015264207a65726f60d81b606482015260840161048c565b610a8f8286868403610dee565b506001949350505050565b600033610404818585610f8c565b6007546040516370a0823160e01b81526001600482015260009190610b2790736008c8769bfacd92251ba838382e7e5637c7e74d906370a0823190602401602060405180830381865afa158015610b03573d6000803e3d6000fd5b505050506040513d601f19601f8201168201806040525081019061083c9190611924565b610a00919061193d565b6001600160a01b03918216600090815260016020908152604080832093909416825291909152205490565b6005546001600160a01b03610100909104163314610b8c5760405162461bcd60e51b815260040161048c906118c5565b6001600160a01b038116610bf15760405162461bcd60e51b815260206004820152602660248201527f4f776e61626c653a206e6577206f776e657220697320746865207a65726f206160448201526564647265737360d01b606482015260840161048c565b610bfa81611272565b50565b7f000000000000000000000000000000000000000000000000000000000000000081610c2860025490565b610c3291906118ad565b1115610c805760405162461bcd60e51b815260206004820152601960248201527f45524332304361707065643a2063617020657863656564656400000000000000604482015260640161048c565b610c8a8282610c98565b5050565b610bfa3382611339565b6001600160a01b038216610cee5760405162461bcd60e51b815260206004820152601f60248201527f45524332303a206d696e7420746f20746865207a65726f206164647265737300604482015260640161048c565b610cfa60008383611493565b8060026000828254610d0c91906118ad565b90915550506001600160a01b03821660009081526020819052604081208054839290610d399084906118ad565b90915550506040518181526001600160a01b038316906000907fddf252ad1be2c89b69c2b068fc378daa952ba7f163c4a11628f55a4df523b3ef9060200160405180910390a35050565b60055460ff1615610de95760405162461bcd60e51b815260206004820152602a60248201527f45524332305061757361626c653a20746f6b656e207472616e736665722077686044820152691a5b19481c185d5cd95960b21b606482015260840161048c565b505050565b6001600160a01b038316610e505760405162461bcd60e51b8152602060048201526024808201527f45524332303a20617070726f76652066726f6d20746865207a65726f206164646044820152637265737360e01b606482015260840161048c565b6001600160a01b038216610eb15760405162461bcd60e51b815260206004820152602260248201527f45524332303a20617070726f766520746f20746865207a65726f206164647265604482015261737360f01b606482015260840161048c565b6001600160a01b0383811660008181526001602090815260408083209487168084529482529182902085905590518481527f8c5be1e5ebec7d5bd14f71427d1e84f3dd0314c0f7b2291e5b200ac8c7c3b925910160405180910390a3505050565b6000610f1e8484610b31565b90506000198114610f865781811015610f795760405162461bcd60e51b815260206004820152601d60248201527f45524332303a20696e73756666696369656e7420616c6c6f77616e6365000000604482015260640161048c565b610f868484848403610dee565b50505050565b6001600160a01b038316610ff05760405162461bcd60e51b815260206004820152602560248201527f45524332303a207472616e736665722066726f6d20746865207a65726f206164604482015264647265737360d81b606482015260840161048c565b6001600160a01b0382166110525760405162461bcd60e51b815260206004820152602360248201527f45524332303a207472616e7366657220746f20746865207a65726f206164647260448201526265737360e81b606482015260840161048c565b61105d838383611493565b6001600160a01b038316600090815260208190526040902054818110156110d55760405162461bcd60e51b815260206004820152602660248201527f45524332303a207472616e7366657220616d6f756e7420657863656564732062604482015265616c616e636560d01b606482015260840161048c565b6001600160a01b0380851660009081526020819052604080822085850390559185168152908120805484929061110c9084906118ad565b92505081905550826001600160a01b0316846001600160a01b03167fddf252ad1be2c89b69c2b068fc378daa952ba7f163c4a11628f55a4df523b3ef8460405161115891815260200190565b60405180910390a3610f86565b60055460ff166111ae5760405162461bcd60e51b815260206004820152601460248201527314185d5cd8589b194e881b9bdd081c185d5cd95960621b604482015260640161048c565b6005805460ff191690557f5db9ee0a495bf2e6ff9c91a7834c1ba4fdd244a5e8aa4e537bd38aeae4b073aa335b6040516001600160a01b03909116815260200160405180910390a1565b610c8a8282610bfd565b604080516001600160a01b0385811660248301528416604482015260648082018490528251808303909101815260849091019091526020810180516001600160e01b03166323b872dd60e01b179052610f869085906114c1565b600061126c82633b9aca00611954565b92915050565b600580546001600160a01b03838116610100818102610100600160a81b031985161790945560405193909204169182907f8be0079c531659141344cd1fd0a4f28419497f9722a3daafe3b4186f6b6457e090600090a35050565b6112d7823383610f12565b610c8a8282611339565b60055460ff16156113045760405162461bcd60e51b815260040161048c906118fa565b6005805460ff191660011790557f62e78cea01bee320cd4e420270b5ea74000d11b0c9f74754ebdbfc544b05a2586111db3390565b6001600160a01b0382166113995760405162461bcd60e51b815260206004820152602160248201527f45524332303a206275726e2066726f6d20746865207a65726f206164647265736044820152607360f81b606482015260840161048c565b6113a582600083611493565b6001600160a01b038216600090815260208190526040902054818110156114195760405162461bcd60e51b815260206004820152602260248201527f45524332303a206275726e20616d6f756e7420657863656564732062616c616e604482015261636560f01b606482015260840161048c565b6001600160a01b038316600090815260208190526040812083830390556002805484929061144890849061193d565b90915550506040518281526000906001600160a01b038516907fddf252ad1be2c89b69c2b068fc378daa952ba7f163c4a11628f55a4df523b3ef9060200160405180910390a3505050565b60055460ff16156114b65760405162461bcd60e51b815260040161048c906118fa565b610de9838383610d83565b6000611516826040518060400160405280602081526020017f5361666545524332303a206c6f772d6c6576656c2063616c6c206661696c6564815250856001600160a01b03166115939092919063ffffffff16565b805190915015610de957808060200190518101906115349190611973565b610de95760405162461bcd60e51b815260206004820152602a60248201527f5361666545524332303a204552433230206f7065726174696f6e20646964206e6044820152691bdd081cdd58d8d9595960b21b606482015260840161048c565b60606115a284846000856115aa565b949350505050565b60608247101561160b5760405162461bcd60e51b815260206004820152602660248201527f416464726573733a20696e73756666696369656e742062616c616e636520666f6044820152651c8818d85b1b60d21b606482015260840161048c565b6001600160a01b0385163b6116625760405162461bcd60e51b815260206004820152601d60248201527f416464726573733a2063616c6c20746f206e6f6e2d636f6e7472616374000000604482015260640161048c565b600080866001600160a01b0316858760405161167e9190611995565b60006040518083038185875af1925050503d80600081146116bb576040519150601f19603f3d011682016040523d82523d6000602084013e6116c0565b606091505b50915091506116d08282866116db565b979650505050505050565b606083156116ea575081610433565b8251156116fa5782518084602001fd5b8160405162461bcd60e51b815260040161048c9190611740565b60005b8381101561172f578181015183820152602001611717565b83811115610f865750506000910152565b602081526000825180602084015261175f816040850160208701611714565b601f01601f19169190910160400192915050565b80356001600160a01b038116811461178a57600080fd5b919050565b600080604083850312156117a257600080fd5b6117ab83611773565b946020939093013593505050565b6000806000606084860312156117ce57600080fd5b6117d784611773565b92506117e560208501611773565b9150604084013590509250925092565b60006020828403121561180757600080fd5b5035919050565b60006020828403121561182057600080fd5b61043382611773565b6000806040838503121561183c57600080fd5b61184583611773565b915061185360208401611773565b90509250929050565b600181811c9082168061187057607f821691505b6020821081141561189157634e487b7160e01b600052602260045260246000fd5b50919050565b634e487b7160e01b600052601160045260246000fd5b600082198211156118c0576118c0611897565b500190565b6020808252818101527f4f776e61626c653a2063616c6c6572206973206e6f7420746865206f776e6572604082015260600190565b60208082526010908201526f14185d5cd8589b194e881c185d5cd95960821b604082015260600190565b60006020828403121561193657600080fd5b5051919050565b60008282101561194f5761194f611897565b500390565b600081600019048311821515161561196e5761196e611897565b500290565b60006020828403121561198557600080fd5b8151801515811461043357600080fd5b600082516119a7818460208701611714565b919091019291505056fea26469706673582212201c53d4cb670f7a089895be1b4ebd6ac4b7030ae63825adb783849c0e5e5c21ca64736f6c634300080b0033ddf252ad1be2c89b69c2b068fc378daa952ba7f163c4a11628f55a4df523b3ef",
  "linkReferences": {},
  "deployedLinkReferences": {}
}