{
  "_format": "hh-sol-artifact-1",
  "contractName": "DoCTrader",
  "sourceName": "contracts/upgradeable/npc/DoCTrader/DoCTrader.sol",
  "abi": [
    {
      "inputs": [],
      "stateMutability": "nonpayable",
      "type": "constructor"
    },
    {
      "anonymous": false,
      "inputs": [
        {
          "indexed": false,
          "internalType": "address",
          "name": "previousAdmin",
          "type": "address"
        },
        {
          "indexed": false,
          "internalType": "address",
          "name": "newAdmin",
          "type": "address"
        }
      ],
      "name": "AdminChanged",
      "type": "event"
    },
    {
      "anonymous": false,
      "inputs": [
        {
          "indexed": true,
          "internalType": "address",
          "name": "beacon",
          "type": "address"
        }
      ],
      "name": "BeaconUpgraded",
      "type": "event"
    },
    {
      "anonymous": false,
      "inputs": [
        {
          "indexed": false,
          "internalType": "uint8",
          "name": "version",
          "type": "uint8"
        }
      ],
      "name": "Initialized",
      "type": "event"
    },
    {
      "anonymous": false,
      "inputs": [
        {
          "indexed": false,
          "internalType": "address",
          "name": "account",
          "type": "address"
        }
      ],
      "name": "Paused",
      "type": "event"
    },
    {
      "anonymous": false,
      "inputs": [
        {
          "indexed": true,
          "internalType": "bytes32",
          "name": "role",
          "type": "bytes32"
        },
        {
          "indexed": true,
          "internalType": "bytes32",
          "name": "previousAdminRole",
          "type": "bytes32"
        },
        {
          "indexed": true,
          "internalType": "bytes32",
          "name": "newAdminRole",
          "type": "bytes32"
        }
      ],
      "name": "RoleAdminChanged",
      "type": "event"
    },
    {
      "anonymous": false,
      "inputs": [
        {
          "indexed": true,
          "internalType": "bytes32",
          "name": "role",
          "type": "bytes32"
        },
        {
          "indexed": true,
          "internalType": "address",
          "name": "account",
          "type": "address"
        },
        {
          "indexed": true,
          "internalType": "address",
          "name": "sender",
          "type": "address"
        }
      ],
      "name": "RoleGranted",
      "type": "event"
    },
    {
      "anonymous": false,
      "inputs": [
        {
          "indexed": true,
          "internalType": "bytes32",
          "name": "role",
          "type": "bytes32"
        },
        {
          "indexed": true,
          "internalType": "address",
          "name": "account",
          "type": "address"
        },
        {
          "indexed": true,
          "internalType": "address",
          "name": "sender",
          "type": "address"
        }
      ],
      "name": "RoleRevoked",
      "type": "event"
    },
    {
      "anonymous": false,
      "inputs": [
        {
          "indexed": false,
          "internalType": "address",
          "name": "account",
          "type": "address"
        }
      ],
      "name": "Unpaused",
      "type": "event"
    },
    {
      "anonymous": false,
      "inputs": [
        {
          "indexed": true,
          "internalType": "address",
          "name": "implementation",
          "type": "address"
        }
      ],
      "name": "Upgraded",
      "type": "event"
    },
    {
      "inputs": [],
      "name": "DEFAULT_ADMIN_ROLE",
      "outputs": [
        {
          "internalType": "bytes32",
          "name": "",
          "type": "bytes32"
        }
      ],
      "stateMutability": "view",
      "type": "function"
    },
    {
      "inputs": [
        {
          "components": [
            {
              "components": [
                {
                  "internalType": "enum DoCTrader.TokenType",
                  "name": "tokenType",
                  "type": "uint8"
                },
                {
                  "internalType": "enum DoCTrader.Location",
                  "name": "location",
                  "type": "uint8"
                },
                {
                  "internalType": "address",
                  "name": "_address",
                  "type": "address"
                },
                {
                  "internalType": "uint256",
                  "name": "id",
                  "type": "uint256"
                },
                {
                  "internalType": "uint256",
                  "name": "quantity",
                  "type": "uint256"
                }
              ],
              "internalType": "struct DoCTrader.Token",
              "name": "cost",
              "type": "tuple"
            },
            {
              "components": [
                {
                  "internalType": "enum DoCTrader.TokenType",
                  "name": "tokenType",
                  "type": "uint8"
                },
                {
                  "internalType": "enum DoCTrader.Location",
                  "name": "location",
                  "type": "uint8"
                },
                {
                  "internalType": "address",
                  "name": "_address",
                  "type": "address"
                },
                {
                  "internalType": "uint256",
                  "name": "id",
                  "type": "uint256"
                },
                {
                  "internalType": "uint256",
                  "name": "quantity",
                  "type": "uint256"
                }
              ],
              "internalType": "struct DoCTrader.Token",
              "name": "details",
              "type": "tuple"
            }
          ],
          "internalType": "struct DoCTrader.Item",
          "name": "_item",
          "type": "tuple"
        }
      ],
      "name": "addShopItem",
      "outputs": [],
      "stateMutability": "nonpayable",
      "type": "function"
    },
    {
      "inputs": [
        {
          "internalType": "uint256",
          "name": "id",
          "type": "uint256"
        },
        {
          "internalType": "uint256",
          "name": "quantity",
          "type": "uint256"
        }
      ],
      "name": "breakdownResource",
      "outputs": [],
      "stateMutability": "nonpayable",
      "type": "function"
    },
    {
      "inputs": [
        {
          "internalType": "uint256",
          "name": "id",
          "type": "uint256"
        }
      ],
      "name": "buyItem",
      "outputs": [],
      "stateMutability": "nonpayable",
      "type": "function"
    },
    {
      "inputs": [
        {
          "internalType": "uint256",
          "name": "professionId",
          "type": "uint256"
        }
      ],
      "name": "buyTool",
      "outputs": [],
      "stateMutability": "nonpayable",
      "type": "function"
    },
    {
      "inputs": [
        {
          "internalType": "bytes32",
          "name": "role",
          "type": "bytes32"
        }
      ],
      "name": "getRoleAdmin",
      "outputs": [
        {
          "internalType": "bytes32",
          "name": "",
          "type": "bytes32"
        }
      ],
      "stateMutability": "view",
      "type": "function"
    },
    {
      "inputs": [
        {
          "internalType": "bytes32",
          "name": "role",
          "type": "bytes32"
        },
        {
          "internalType": "uint256",
          "name": "index",
          "type": "uint256"
        }
      ],
      "name": "getRoleMember",
      "outputs": [
        {
          "internalType": "address",
          "name": "",
          "type": "address"
        }
      ],
      "stateMutability": "view",
      "type": "function"
    },
    {
      "inputs": [
        {
          "internalType": "bytes32",
          "name": "role",
          "type": "bytes32"
        }
      ],
      "name": "getRoleMemberCount",
      "outputs": [
        {
          "internalType": "uint256",
          "name": "",
          "type": "uint256"
        }
      ],
      "stateMutability": "view",
      "type": "function"
    },
    {
      "inputs": [
        {
          "internalType": "bytes32",
          "name": "role",
          "type": "bytes32"
        },
        {
          "internalType": "address",
          "name": "account",
          "type": "address"
        }
      ],
      "name": "grantRole",
      "outputs": [],
      "stateMutability": "nonpayable",
      "type": "function"
    },
    {
      "inputs": [
        {
          "internalType": "bytes32",
          "name": "role",
          "type": "bytes32"
        },
        {
          "internalType": "address",
          "name": "account",
          "type": "address"
        }
      ],
      "name": "hasRole",
      "outputs": [
        {
          "internalType": "bool",
          "name": "",
          "type": "bool"
        }
      ],
      "stateMutability": "view",
      "type": "function"
    },
    {
      "inputs": [],
      "name": "initialize",
      "outputs": [],
      "stateMutability": "nonpayable",
      "type": "function"
    },
    {
      "inputs": [],
      "name": "paused",
      "outputs": [
        {
          "internalType": "bool",
          "name": "",
          "type": "bool"
        }
      ],
      "stateMutability": "view",
      "type": "function"
    },
    {
      "inputs": [],
      "name": "proxiableUUID",
      "outputs": [
        {
          "internalType": "bytes32",
          "name": "",
          "type": "bytes32"
        }
      ],
      "stateMutability": "view",
      "type": "function"
    },
    {
      "inputs": [
        {
          "internalType": "uint256",
          "name": "id",
          "type": "uint256"
        }
      ],
      "name": "removeShopItem",
      "outputs": [],
      "stateMutability": "nonpayable",
      "type": "function"
    },
    {
      "inputs": [
        {
          "internalType": "bytes32",
          "name": "role",
          "type": "bytes32"
        },
        {
          "internalType": "address",
          "name": "account",
          "type": "address"
        }
      ],
      "name": "renounceRole",
      "outputs": [],
      "stateMutability": "nonpayable",
      "type": "function"
    },
    {
      "inputs": [
        {
          "internalType": "uint256",
          "name": "tokenId",
          "type": "uint256"
        }
      ],
      "name": "repairTool",
      "outputs": [],
      "stateMutability": "nonpayable",
      "type": "function"
    },
    {
      "inputs": [
        {
          "internalType": "bytes32",
          "name": "role",
          "type": "bytes32"
        },
        {
          "internalType": "address",
          "name": "account",
          "type": "address"
        }
      ],
      "name": "revokeRole",
      "outputs": [],
      "stateMutability": "nonpayable",
      "type": "function"
    },
    {
      "inputs": [
        {
          "internalType": "address",
          "name": "_treasury",
          "type": "address"
        }
      ],
      "name": "setTreasury",
      "outputs": [],
      "stateMutability": "nonpayable",
      "type": "function"
    },
    {
      "inputs": [
        {
          "internalType": "uint256",
          "name": "id",
          "type": "uint256"
        }
      ],
      "name": "shopItem",
      "outputs": [
        {
          "components": [
            {
              "components": [
                {
                  "internalType": "enum DoCTrader.TokenType",
                  "name": "tokenType",
                  "type": "uint8"
                },
                {
                  "internalType": "enum DoCTrader.Location",
                  "name": "location",
                  "type": "uint8"
                },
                {
                  "internalType": "address",
                  "name": "_address",
                  "type": "address"
                },
                {
                  "internalType": "uint256",
                  "name": "id",
                  "type": "uint256"
                },
                {
                  "internalType": "uint256",
                  "name": "quantity",
                  "type": "uint256"
                }
              ],
              "internalType": "struct DoCTrader.Token",
              "name": "cost",
              "type": "tuple"
            },
            {
              "components": [
                {
                  "internalType": "enum DoCTrader.TokenType",
                  "name": "tokenType",
                  "type": "uint8"
                },
                {
                  "internalType": "enum DoCTrader.Location",
                  "name": "location",
                  "type": "uint8"
                },
                {
                  "internalType": "address",
                  "name": "_address",
                  "type": "address"
                },
                {
                  "internalType": "uint256",
                  "name": "id",
                  "type": "uint256"
                },
                {
                  "internalType": "uint256",
                  "name": "quantity",
                  "type": "uint256"
                }
              ],
              "internalType": "struct DoCTrader.Token",
              "name": "details",
              "type": "tuple"
            }
          ],
          "internalType": "struct DoCTrader.Item",
          "name": "item",
          "type": "tuple"
        }
      ],
      "stateMutability": "view",
      "type": "function"
    },
    {
      "inputs": [],
      "name": "shopItems",
      "outputs": [
        {
          "internalType": "uint256[]",
          "name": "ids",
          "type": "uint256[]"
        },
        {
          "components": [
            {
              "components": [
                {
                  "internalType": "enum DoCTrader.TokenType",
                  "name": "tokenType",
                  "type": "uint8"
                },
                {
                  "internalType": "enum DoCTrader.Location",
                  "name": "location",
                  "type": "uint8"
                },
                {
                  "internalType": "address",
                  "name": "_address",
                  "type": "address"
                },
                {
                  "internalType": "uint256",
                  "name": "id",
                  "type": "uint256"
                },
                {
                  "internalType": "uint256",
                  "name": "quantity",
                  "type": "uint256"
                }
              ],
              "internalType": "struct DoCTrader.Token",
              "name": "cost",
              "type": "tuple"
            },
            {
              "components": [
                {
                  "internalType": "enum DoCTrader.TokenType",
                  "name": "tokenType",
                  "type": "uint8"
                },
                {
                  "internalType": "enum DoCTrader.Location",
                  "name": "location",
                  "type": "uint8"
                },
                {
                  "internalType": "address",
                  "name": "_address",
                  "type": "address"
                },
                {
                  "internalType": "uint256",
                  "name": "id",
                  "type": "uint256"
                },
                {
                  "internalType": "uint256",
                  "name": "quantity",
                  "type": "uint256"
                }
              ],
              "internalType": "struct DoCTrader.Token",
              "name": "details",
              "type": "tuple"
            }
          ],
          "internalType": "struct DoCTrader.Item[]",
          "name": "items",
          "type": "tuple[]"
        }
      ],
      "stateMutability": "view",
      "type": "function"
    },
    {
      "inputs": [
        {
          "internalType": "bytes4",
          "name": "interfaceId",
          "type": "bytes4"
        }
      ],
      "name": "supportsInterface",
      "outputs": [
        {
          "internalType": "bool",
          "name": "",
          "type": "bool"
        }
      ],
      "stateMutability": "view",
      "type": "function"
    },
    {
      "inputs": [
        {
          "internalType": "uint256",
          "name": "id",
          "type": "uint256"
        }
      ],
      "name": "tradeResource",
      "outputs": [],
      "stateMutability": "nonpayable",
      "type": "function"
    },
    {
      "inputs": [],
      "name": "treasury",
      "outputs": [
        {
          "internalType": "address",
          "name": "",
          "type": "address"
        }
      ],
      "stateMutability": "view",
      "type": "function"
    },
    {
      "inputs": [
        {
          "internalType": "uint256",
          "name": "id",
          "type": "uint256"
        },
        {
          "components": [
            {
              "components": [
                {
                  "internalType": "enum DoCTrader.TokenType",
                  "name": "tokenType",
                  "type": "uint8"
                },
                {
                  "internalType": "enum DoCTrader.Location",
                  "name": "location",
                  "type": "uint8"
                },
                {
                  "internalType": "address",
                  "name": "_address",
                  "type": "address"
                },
                {
                  "internalType": "uint256",
                  "name": "id",
                  "type": "uint256"
                },
                {
                  "internalType": "uint256",
                  "name": "quantity",
                  "type": "uint256"
                }
              ],
              "internalType": "struct DoCTrader.Token",
              "name": "cost",
              "type": "tuple"
            },
            {
              "components": [
                {
                  "internalType": "enum DoCTrader.TokenType",
                  "name": "tokenType",
                  "type": "uint8"
                },
                {
                  "internalType": "enum DoCTrader.Location",
                  "name": "location",
                  "type": "uint8"
                },
                {
                  "internalType": "address",
                  "name": "_address",
                  "type": "address"
                },
                {
                  "internalType": "uint256",
                  "name": "id",
                  "type": "uint256"
                },
                {
                  "internalType": "uint256",
                  "name": "quantity",
                  "type": "uint256"
                }
              ],
              "internalType": "struct DoCTrader.Token",
              "name": "details",
              "type": "tuple"
            }
          ],
          "internalType": "struct DoCTrader.Item",
          "name": "_item",
          "type": "tuple"
        }
      ],
      "name": "updateShopItem",
      "outputs": [],
      "stateMutability": "nonpayable",
      "type": "function"
    },
    {
      "inputs": [
        {
          "internalType": "address",
          "name": "newImplementation",
          "type": "address"
        }
      ],
      "name": "upgradeTo",
      "outputs": [],
      "stateMutability": "nonpayable",
      "type": "function"
    },
    {
      "inputs": [
        {
          "internalType": "address",
          "name": "newImplementation",
          "type": "address"
        },
        {
          "internalType": "bytes",
          "name": "data",
          "type": "bytes"
        }
      ],
      "name": "upgradeToAndCall",
      "outputs": [],
      "stateMutability": "payable",
      "type": "function"
    }
  ],
  "bytecode": "0x60a0604052306080523480156200001557600080fd5b506200002062000026565b620000e8565b600054610100900460ff1615620000935760405162461bcd60e51b815260206004820152602760248201527f496e697469616c697a61626c653a20636f6e747261637420697320696e697469604482015266616c697a696e6760c81b606482015260840160405180910390fd5b60005460ff9081161015620000e6576000805460ff191660ff9081179091556040519081527f7f26b83ff96e1f2b6a682f133852f6798a09c465da95921460cefb38474024989060200160405180910390a15b565b6080516139626200012060003960008181610b6901528181610ba901528181610f6801528181610fa8015261103701526139626000f3fe6080604052600436106101815760003560e01c806370149748116100d1578063d547741f1161008a578063e7e1f31511610064578063e7e1f3151461046e578063e7fb74c71461048e578063ed41a2e0146104ae578063f0f44260146104ce57600080fd5b8063d547741f1461040e578063d54e92de1461042e578063dc557faf1461044e57600080fd5b806370149748146103575780638129fc1c146103845780639010d07c1461039957806391d14854146103b9578063a217fddf146103d9578063ca15c873146103ee57600080fd5b80633659cfe61161013e5780634f1ef286116101185780634f1ef286146102de57806352d1902d146102f15780635c975abb1461030657806361d027b31461031e57600080fd5b80633659cfe61461027e5780633f2ce0931461029e5780634c77e1cb146102be57600080fd5b806301ffc9a71461018657806308514a41146101bb578063248a9ca3146101de5780632f2ff15d1461021c5780633524f16c1461023e57806336568abe1461025e575b600080fd5b34801561019257600080fd5b506101a66101a1366004612ed2565b6104ee565b60405190151581526020015b60405180910390f35b3480156101c757600080fd5b506101d0610519565b6040516101b2929190612f85565b3480156101ea57600080fd5b5061020e6101f936600461300b565b60009081526097602052604090206001015490565b6040519081526020016101b2565b34801561022857600080fd5b5061023c610237366004613039565b610759565b005b34801561024a57600080fd5b5061023c61025936600461300b565b610783565b34801561026a57600080fd5b5061023c610279366004613039565b610ae1565b34801561028a57600080fd5b5061023c610299366004613069565b610b5f565b3480156102aa57600080fd5b5061023c6102b9366004613086565b610c3e565b3480156102ca57600080fd5b5061023c6102d936600461300b565b610dfe565b61023c6102ec366004613117565b610f5e565b3480156102fd57600080fd5b5061020e61102a565b34801561031257600080fd5b5060335460ff166101a6565b34801561032a57600080fd5b5061018d5461033f906001600160a01b031681565b6040516001600160a01b0390911681526020016101b2565b34801561036357600080fd5b5061037761037236600461300b565b6110dd565b6040516101b291906131aa565b34801561039057600080fd5b5061023c6112b8565b3480156103a557600080fd5b5061033f6103b4366004613086565b6113e9565b3480156103c557600080fd5b506101a66103d4366004613039565b611408565b3480156103e557600080fd5b5061020e600081565b3480156103fa57600080fd5b5061020e61040936600461300b565b611433565b34801561041a57600080fd5b5061023c610429366004613039565b61144a565b34801561043a57600080fd5b5061023c6104493660046132ad565b61146f565b34801561045a57600080fd5b5061023c61046936600461300b565b611718565b34801561047a57600080fd5b5061023c61048936600461300b565b61186a565b34801561049a57600080fd5b5061023c6104a936600461300b565b61192b565b3480156104ba57600080fd5b5061023c6104c93660046132db565b612191565b3480156104da57600080fd5b5061023c6104e9366004613069565b6121dc565b60006001600160e01b03198216635a05180f60e01b1480610513575061051382612289565b92915050565b60608061052761018f6122be565b9150815167ffffffffffffffff811115610543576105436130a8565b60405190808252806020026020018201604052801561057c57816020015b610569612e74565b8152602001906001900390816105615790505b50905060005b82518110156107545761018e60008483815181106105a2576105a26132f8565b60209081029190910181015182528101919091526040908101600020815160e081018352815490928391908201908390829060ff1660028111156105e8576105e8612efc565b60028111156105f9576105f9612efc565b81528154602090910190610100900460ff16600381111561061c5761061c612efc565b600381111561062d5761062d612efc565b81526020016000820160029054906101000a90046001600160a01b03166001600160a01b03166001600160a01b03168152602001600182015481526020016002820154815250508152602001600382016040518060a00160405290816000820160009054906101000a900460ff1660028111156106ac576106ac612efc565b60028111156106bd576106bd612efc565b81528154602090910190610100900460ff1660038111156106e0576106e0612efc565b60038111156106f1576106f1612efc565b815281546201000090046001600160a01b03166020820152600182015460408201526002909101546060909101529052508251839083908110610736576107366132f8565b6020026020010181905250808061074c90613324565b915050610582565b509091565b600082815260976020526040902060010154610774816122cb565b61077e83836122d5565b505050565b61078b6122f7565b6000730458b679c30aa4b8622742ea9fb2a44660c4a2a16040516331a9108f60e11b81526004810184905290915033906001600160a01b03831690636352211e90602401602060405180830381865afa1580156107ec573d6000803e3d6000fd5b505050506040513d601f19601f82011682018060405250810190610810919061333d565b6001600160a01b03161461085f5760405162461bcd60e51b81526020600482015260116024820152702a3930b232b91d1d2737ba1037bbb732b960791b60448201526064015b60405180910390fd5b604051639b9284f960e01b8152600481018390526000906001600160a01b03831690639b9284f990602401600060405180830381865afa1580156108a7573d6000803e3d6000fd5b505050506040513d6000823e601f3d908101601f191682016040526108cf919081019061337e565b8060200190518101906108e291906133ec565b90506000816040015160048111156108fc576108fc612efc565b905060008160031461092d5781600214610926578160011461091f57600a610930565b600f610930565b601e610930565b60325b60ff169050808360200151106109885760405162461bcd60e51b815260206004820152601e60248201527f5472616465723a3a546f6f6c206174206d6178206475726162696c69747900006044820152606401610856565b600083602001518261099a9190613452565b9050600081836109ab866032613465565b6109b59190613492565b6109bf9190613465565b905060006109ce836005613465565b905060006109dc83836134a6565b6109ee90670de0b6b3a7640000613465565b61018d546040516323b872dd60e01b815291925073245b4c64271e91c9fb6be1971a0208dd92efebde916323b872dd91610a389133916001600160a01b03169086906004016134b9565b6020604051808303816000875af1158015610a57573d6000803e3d6000fd5b505050506040513d601f19601f82011682018060405250810190610a7b91906134dd565b5060405163b958050360e01b8152600481018a90526001600160a01b0389169063b958050390602401600060405180830381600087803b158015610abe57600080fd5b505af1158015610ad2573d6000803e3d6000fd5b50505050505050505050505050565b6001600160a01b0381163314610b515760405162461bcd60e51b815260206004820152602f60248201527f416363657373436f6e74726f6c3a2063616e206f6e6c792072656e6f756e636560448201526e103937b632b9903337b91039b2b63360891b6064820152608401610856565b610b5b828261233f565b5050565b6001600160a01b037f0000000000000000000000000000000000000000000000000000000000000000163003610ba75760405162461bcd60e51b8152600401610856906134ff565b7f00000000000000000000000000000000000000000000000000000000000000006001600160a01b0316610bf06000805160206138c6833981519152546001600160a01b031690565b6001600160a01b031614610c165760405162461bcd60e51b81526004016108569061354b565b610c1f81612361565b60408051600080825260208201909252610c3b91839190612378565b50565b610c466122f7565b6000610c53600584613597565b905080600003610cbe5760405162461bcd60e51b815260206004820152603060248201527f5472616465723a3a5265736f7572636520697320616c7265616479206174207460448201526f6865206c6f776573742072617269747960801b6064820152608401610856565b6000610cc9846124e3565b610ce75773ce953d1a6be7331eef06ec9ac8a4a22a4f2bdfb0610cfd565b734f82dfbeed2aa0686eb26ddba7a075406b4c6a675b604051637a94c56560e11b815233600482015260248101869052604481018590529091506001600160a01b0382169063f5298aca90606401600060405180830381600087803b158015610d4f57600080fd5b505af1158015610d63573d6000803e3d6000fd5b505050506000836001610d769190613465565b610d7f86612519565b610d8991906134a6565b90506001600160a01b03821663731133e933610da6600189613452565b846040518463ffffffff1660e01b8152600401610dc5939291906135ab565b600060405180830381600087803b158015610ddf57600080fd5b505af1158015610df3573d6000803e3d6000fd5b505050505050505050565b610e066122f7565b61018d546040516323b872dd60e01b815273245b4c64271e91c9fb6be1971a0208dd92efebde916323b872dd91610e589133916001600160a01b0390911690680d8d726b7177a80000906004016134b9565b6020604051808303816000875af1158015610e77573d6000803e3d6000fd5b505050506040513d601f19601f82011682018060405250810190610e9b91906134dd565b50730458b679c30aa4b8622742ea9fb2a44660c4a2a16001600160a01b031663b510391f3360405180606001604052808581526020016000815260200160006004811115610eeb57610eeb612efc565b9052604051610efd91906020016135db565b6040516020818303038152906040526040518363ffffffff1660e01b8152600401610f2992919061363c565b600060405180830381600087803b158015610f4357600080fd5b505af1158015610f57573d6000803e3d6000fd5b5050505050565b6001600160a01b037f0000000000000000000000000000000000000000000000000000000000000000163003610fa65760405162461bcd60e51b8152600401610856906134ff565b7f00000000000000000000000000000000000000000000000000000000000000006001600160a01b0316610fef6000805160206138c6833981519152546001600160a01b031690565b6001600160a01b0316146110155760405162461bcd60e51b81526004016108569061354b565b61101e82612361565b610b5b82826001612378565b6000306001600160a01b037f000000000000000000000000000000000000000000000000000000000000000016146110ca5760405162461bcd60e51b815260206004820152603860248201527f555550535570677261646561626c653a206d757374206e6f742062652063616c60448201527f6c6564207468726f7567682064656c656761746563616c6c00000000000000006064820152608401610856565b506000805160206138c683398151915290565b6110e5612e74565b6110f161018f83612592565b61113d5760405162461bcd60e51b815260206004820152601760248201527f5472616465723a3a4e6f6e2d6578697374656e742069640000000000000000006044820152606401610856565b600082815261018e602052604090819020815160e081018352815490928391908201908390829060ff16600281111561117857611178612efc565b600281111561118957611189612efc565b81528154602090910190610100900460ff1660038111156111ac576111ac612efc565b60038111156111bd576111bd612efc565b81526020016000820160029054906101000a90046001600160a01b03166001600160a01b03166001600160a01b03168152602001600182015481526020016002820154815250508152602001600382016040518060a00160405290816000820160009054906101000a900460ff16600281111561123c5761123c612efc565b600281111561124d5761124d612efc565b81528154602090910190610100900460ff16600381111561127057611270612efc565b600381111561128157611281612efc565b815281546201000090046001600160a01b031660208201526001820154604082015260029091015460609091015290525092915050565b600054610100900460ff16158080156112d85750600054600160ff909116105b806112f25750303b1580156112f2575060005460ff166001145b6113555760405162461bcd60e51b815260206004820152602e60248201527f496e697469616c697a61626c653a20636f6e747261637420697320616c72656160448201526d191e481a5b9a5d1a585b1a5e995960921b6064820152608401610856565b6000805460ff191660011790558015611378576000805461ff0019166101001790555b6113806125aa565b6113886125d9565b6113906126d3565b61018d80546001600160a01b03191690558015610c3b576000805461ff0019169055604051600181527f7f26b83ff96e1f2b6a682f133852f6798a09c465da95921460cefb38474024989060200160405180910390a150565b600082815260c96020526040812061140190836126fa565b9392505050565b60009182526097602090815260408084206001600160a01b0393909316845291905290205460ff1690565b600081815260c96020526040812061051390612706565b600082815260976020526040902060010154611465816122cb565b61077e838361233f565b61148660008051602061390d8339815191526122cb565b61149261018f83612592565b6114de5760405162461bcd60e51b815260206004820152601c60248201527f5472616465723a3a4e6f6e2d6578697374656e74206974656d206964000000006044820152606401610856565b6040805160e08101825282515190918291908201908190600281111561150657611506612efc565b8152602001846000015160200151600381111561152557611525612efc565b81526020018460000151604001516001600160a01b03168152602001846000015160600151815260200184600001516080015181525081526020016040518060a00160405280846020015160000151600281111561158557611585612efc565b815260200184602001516020015160038111156115a4576115a4612efc565b8152602085810180516040908101516001600160a01b031683850152815160609081015182860152915160800151919093015291909252600085815261018e90915220815180518254839190829060ff1916600183600281111561160a5761160a612efc565b021790555060208201518154829061ff00191661010083600381111561163257611632612efc565b0217905550604082015181546001600160a01b03909116620100000262010000600160b01b0319909116178155606082015160018083019190915560809092015160029182015560208401518051600385018054929490939192849260ff19909116919084908111156116a7576116a7612efc565b021790555060208201518154829061ff0019166101008360038111156116cf576116cf612efc565b0217905550604082015181546001600160a01b03909116620100000262010000600160b01b03199091161781556060820151600182015560809091015160029091015550505050565b6117206122f7565b600061172d600583613597565b9050600061173a836124e3565b6117585773ce953d1a6be7331eef06ec9ac8a4a22a4f2bdfb061176e565b734f82dfbeed2aa0686eb26ddba7a075406b4c6a675b9050600061177b84612519565b9050600061178a846003613452565b6117958360016134a6565b61179f919061374c565b6117aa836018613465565b6117b49190613465565b604051637a94c56560e11b815233600482015260248101879052604481018290529091506001600160a01b0384169063f5298aca90606401600060405180830381600087803b15801561180657600080fd5b505af115801561181a573d6000803e3d6000fd5b505050506118397369938433cb243721978986a5b3c981a68197021290565b6001600160a01b031663731133e933600360016040518463ffffffff1660e01b8152600401610dc5939291906135ab565b61188160008051602061390d8339815191526122cb565b61188d61018f82612592565b6118d95760405162461bcd60e51b815260206004820152601c60248201527f5472616465723a3a4e6f6e2d6578697374656e74206974656d206964000000006044820152606401610856565b6118e561018f82612710565b50600090815261018e6020526040812080546001600160b01b03199081168255600182018390556002820183905560038201805490911690556004810182905560050155565b6119336122f7565b61193f61018f82612592565b61198b5760405162461bcd60e51b815260206004820152601b60248201527f5472616465723a3a496e76616c6964206974656d206f7074696f6e00000000006044820152606401610856565b600081815261018e6020526040808220815160e081018352815490928391908201908390829060ff1660028111156119c5576119c5612efc565b60028111156119d6576119d6612efc565b81528154602090910190610100900460ff1660038111156119f9576119f9612efc565b6003811115611a0a57611a0a612efc565b81526020016000820160029054906101000a90046001600160a01b03166001600160a01b03166001600160a01b03168152602001600182015481526020016002820154815250508152602001600382016040518060a00160405290816000820160009054906101000a900460ff166002811115611a8957611a89612efc565b6002811115611a9a57611a9a612efc565b81528154602090910190610100900460ff166003811115611abd57611abd612efc565b6003811115611ace57611ace612efc565b815281546201000090046001600160a01b0316602082015260018201546040820152600290910154606090910152905250905060008151516002811115611b1757611b17612efc565b03611ca85780516040015160018251602001516003811115611b3b57611b3b612efc565b03611bad57815160800151604051632770a7eb60e21b815233600482015260248101919091526001600160a01b03821690639dc29fac906044015b600060405180830381600087803b158015611b9057600080fd5b505af1158015611ba4573d6000803e3d6000fd5b50505050611ca2565b60008251602001516003811115611bc657611bc6612efc565b03611c4f5761018d548251608001516040516323b872dd60e01b81526001600160a01b03848116936323b872dd93611c06933393909216916004016134b9565b6020604051808303816000875af1158015611c25573d6000803e3d6000fd5b505050506040513d601f19601f82011682018060405250810190611c4991906134dd565b50611ca2565b60405162461bcd60e51b815260206004820152602260248201527f5472616465723a3a496e76616c6964206974656d20636f7374206c6f6361746960448201526137b760f11b6064820152608401610856565b50611dd8565b60018151516002811115611cbe57611cbe612efc565b03611d905780516040015160018251602001516003811115611ce257611ce2612efc565b03611d2d5781516060810151608090910151604051637a94c56560e11b8152336004820152602481019290925260448201526001600160a01b0382169063f5298aca90606401611b76565b60008251602001516003811115611d4657611d46612efc565b03611c4f5761018d5482516060810151608090910151604051637921219560e11b81526001600160a01b038086169463f242432a94611b7694339492909316929091600401613758565b60405162461bcd60e51b815260206004820152601e60248201527f5472616465723a3a496e76616c6964206974656d20636f7374207479706500006044820152606401610856565b60006020820151516002811115611df157611df1612efc565b03611ff35760208181015160408101519101516002906003811115611e1857611e18612efc565b03611e9b576020820151608001516040516394d008ef60e01b8152336004820152602481019190915260606044820152600060648201526001600160a01b038216906394d008ef906084015b600060405180830381600087803b158015611e7e57600080fd5b505af1158015611e92573d6000803e3d6000fd5b50505050505050565b60008260200151602001516003811115611eb757611eb7612efc565b03611f445761018d546020830151608001516040516323b872dd60e01b81526001600160a01b03808516936323b872dd93611efb93919092169133916004016134b9565b6020604051808303816000875af1158015611f1a573d6000803e3d6000fd5b505050506040513d601f19601f82011682018060405250810190611f3e91906134dd565b50505050565b60038260200151602001516003811115611f6057611f60612efc565b03611f9d576020820151608001516040516323b872dd60e01b81526001600160a01b038316916323b872dd91611efb9130913391906004016134b9565b60405162461bcd60e51b815260206004820152602560248201527f5472616465723a3a496e76616c6964206974656d2064657461696c73206c6f6360448201526430ba34b7b760d91b6064820152608401610856565b6001602082015151600281111561200c5761200c612efc565b0361213f576020818101516040810151910151600290600381111561203357612033612efc565b03612076576020820151606081015160809091015160405163731133e960e01b81526001600160a01b0384169263731133e992611e6492339291906004016135ab565b6000826020015160200151600381111561209257612092612efc565b036120de5761018d5460208301516060810151608090910151604051637921219560e11b81526001600160a01b038581169463f242432a94611e64949290911692339290600401613758565b600382602001516020015160038111156120fa576120fa612efc565b03611f9d5760208201516060810151608090910151604051637921219560e11b81526001600160a01b0384169263f242432a92611e6492309233929091600401613758565b60405162461bcd60e51b815260206004820152602160248201527f5472616465723a3a496e76616c6964206974656d2064657461696c73207479706044820152606560f81b6064820152608401610856565b6121a860008051602061390d8339815191526122cb565b60006121b46101915490565b90506121c561019180546001019055565b6121d161018f8261271c565b50610b5b818361146f565b6121f360008051602061390d8339815191526122cb565b6001600160a01b0381161580159061221a575061018d546001600160a01b03828116911614155b6122665760405162461bcd60e51b815260206004820181905260248201527f5472616465723a3a496e76616c696420747265617375727920616464726573736044820152606401610856565b61018d80546001600160a01b0319166001600160a01b0392909216919091179055565b60006001600160e01b03198216637965db0b60e01b148061051357506301ffc9a760e01b6001600160e01b0319831614610513565b6060600061140183612728565b610c3b8133612784565b6122df82826127dd565b600082815260c96020526040902061077e9082612863565b60335460ff161561233d5760405162461bcd60e51b815260206004820152601060248201526f14185d5cd8589b194e881c185d5cd95960821b6044820152606401610856565b565b6123498282612878565b600082815260c96020526040902061077e90826128df565b610c3b60008051602061390d8339815191526122cb565b7f4910fdfa16fed3260ed0e7147f7cc6da11a60208b5b9406d12a635614ffd91435460ff16156123ab5761077e836128f4565b826001600160a01b03166352d1902d6040518163ffffffff1660e01b8152600401602060405180830381865afa925050508015612405575060408051601f3d908101601f1916820190925261240291810190613790565b60015b6124685760405162461bcd60e51b815260206004820152602e60248201527f45524331393637557067726164653a206e657720696d706c656d656e7461746960448201526d6f6e206973206e6f74205555505360901b6064820152608401610856565b6000805160206138c683398151915281146124d75760405162461bcd60e51b815260206004820152602960248201527f45524331393637557067726164653a20756e737570706f727465642070726f786044820152681a58589b195555525160ba1b6064820152608401610856565b5061077e838383612990565b6000603c8210806125005750606982101580156125005750607882105b8061051357506096821015801561051357505060a51190565b60006078821015801561252c5750608782105b61258657607882101580156125415750609682105b61257f57604b82101580156125565750606982105b8061256d575060a5821015801561256d575060b482105b612578576002612589565b6001612589565b6003612589565b60045b60ff1692915050565b60008181526001830160205260408120541515611401565b600054610100900460ff166125d15760405162461bcd60e51b8152600401610856906137a9565b61233d6129b5565b600054610100900460ff166126005760405162461bcd60e51b8152600401610856906137a9565b6126086126d3565b6126136000336122d5565b61262b60008051602061390d833981519152336122d5565b6126557f364d3d7565c7a8300c96fd53e065d19b65848d7b23b3191adcd55621c744223c336122d5565b61267f7f9f2df0fed2c77648de5860a4cc508cd0818c85b8b8a1ab4ceeef8d981c8956a6336122d5565b6126a97ff18b77e1ef402111bacb54bd5e03494cbdba92fbd1bd3bbcc1ce77e69b42ea6c336122d5565b61233d7f52ba824bfabc2bcfcdf7f0edbb486ebb05e1836c90e78047efeb949990f72e5f336122d5565b600054610100900460ff1661233d5760405162461bcd60e51b8152600401610856906137a9565b600061140183836129e8565b6000610513825490565b60006114018383612a12565b60006114018383612b05565b60608160000180548060200260200160405190810160405280929190818152602001828054801561277857602002820191906000526020600020905b815481526020019060010190808311612764575b50505050509050919050565b61278e8282611408565b610b5b5761279b81612b54565b6127a6836020612b66565b6040516020016127b79291906137f4565b60408051601f198184030181529082905262461bcd60e51b825261085691600401613869565b6127e78282611408565b610b5b5760008281526097602090815260408083206001600160a01b03851684529091529020805460ff1916600117905561281f3390565b6001600160a01b0316816001600160a01b0316837f2f8788117e7eff1d82e926ec794901d17c78024a50270940304540a733656f0d60405160405180910390a45050565b6000611401836001600160a01b038416612b05565b6128828282611408565b15610b5b5760008281526097602090815260408083206001600160a01b0385168085529252808320805460ff1916905551339285917ff6391f5c32d9c69d2a47ea670b442974b53935d1edc7fd64eb21e047a839171b9190a45050565b6000611401836001600160a01b038416612a12565b6001600160a01b0381163b6129615760405162461bcd60e51b815260206004820152602d60248201527f455243313936373a206e657720696d706c656d656e746174696f6e206973206e60448201526c1bdd08184818dbdb9d1c9858dd609a1b6064820152608401610856565b6000805160206138c683398151915280546001600160a01b0319166001600160a01b0392909216919091179055565b61299983612d02565b6000825111806129a65750805b1561077e57611f3e8383612d42565b600054610100900460ff166129dc5760405162461bcd60e51b8152600401610856906137a9565b6033805460ff19169055565b60008260000182815481106129ff576129ff6132f8565b9060005260206000200154905092915050565b60008181526001830160205260408120548015612afb576000612a36600183613452565b8554909150600090612a4a90600190613452565b9050818114612aaf576000866000018281548110612a6a57612a6a6132f8565b9060005260206000200154905080876000018481548110612a8d57612a8d6132f8565b6000918252602080832090910192909255918252600188019052604090208390555b8554869080612ac057612ac061387c565b600190038181906000526020600020016000905590558560010160008681526020019081526020016000206000905560019350505050610513565b6000915050610513565b6000818152600183016020526040812054612b4c57508154600181810184556000848152602080822090930184905584548482528286019093526040902091909155610513565b506000610513565b60606105136001600160a01b03831660145b60606000612b75836002613465565b612b809060026134a6565b67ffffffffffffffff811115612b9857612b986130a8565b6040519080825280601f01601f191660200182016040528015612bc2576020820181803683370190505b509050600360fc1b81600081518110612bdd57612bdd6132f8565b60200101906001600160f81b031916908160001a905350600f60fb1b81600181518110612c0c57612c0c6132f8565b60200101906001600160f81b031916908160001a9053506000612c30846002613465565b612c3b9060016134a6565b90505b6001811115612cb3576f181899199a1a9b1b9c1cb0b131b232b360811b85600f1660108110612c6f57612c6f6132f8565b1a60f81b828281518110612c8557612c856132f8565b60200101906001600160f81b031916908160001a90535060049490941c93612cac81613892565b9050612c3e565b5083156114015760405162461bcd60e51b815260206004820181905260248201527f537472696e67733a20686578206c656e67746820696e73756666696369656e746044820152606401610856565b612d0b816128f4565b6040516001600160a01b038216907fbc7cd75a20ee27fd9adebab32041f755214dbc6bffa90cc0225b39da2e5c2d3b90600090a250565b60606001600160a01b0383163b612daa5760405162461bcd60e51b815260206004820152602660248201527f416464726573733a2064656c65676174652063616c6c20746f206e6f6e2d636f6044820152651b9d1c9858dd60d21b6064820152608401610856565b600080846001600160a01b031684604051612dc591906138a9565b600060405180830381855af49150503d8060008114612e00576040519150601f19603f3d011682016040523d82523d6000602084013e612e05565b606091505b5091509150612e2d82826040518060600160405280602781526020016138e660279139612e36565b95945050505050565b60608315612e45575081611401565b6114018383815115612e5a5781518083602001fd5b8060405162461bcd60e51b81526004016108569190613869565b6040518060400160405280612e87612e99565b8152602001612e94612e99565b905290565b6040805160a0810190915280600081526020016000815260200160006001600160a01b0316815260200160008152602001600081525090565b600060208284031215612ee457600080fd5b81356001600160e01b03198116811461140157600080fd5b634e487b7160e01b600052602160045260246000fd5b805160038110612f2457612f24612efc565b8252602081015160048110612f3b57612f3b612efc565b60208301526040818101516001600160a01b03169083015260608082015190830152608090810151910152565b612f73828251612f12565b602081015161077e60a0840182612f12565b604080825283519082018190526000906020906060840190828701845b82811015612fbe57815184529284019290840190600101612fa2565b5050508381038285015284518082528583019183019060005b81811015612ffe57612fea838551612f68565b928401926101409290920191600101612fd7565b5090979650505050505050565b60006020828403121561301d57600080fd5b5035919050565b6001600160a01b0381168114610c3b57600080fd5b6000806040838503121561304c57600080fd5b82359150602083013561305e81613024565b809150509250929050565b60006020828403121561307b57600080fd5b813561140181613024565b6000806040838503121561309957600080fd5b50508035926020909101359150565b634e487b7160e01b600052604160045260246000fd5b604051601f8201601f1916810167ffffffffffffffff811182821017156130e7576130e76130a8565b604052919050565b600067ffffffffffffffff821115613109576131096130a8565b50601f01601f191660200190565b6000806040838503121561312a57600080fd5b823561313581613024565b9150602083013567ffffffffffffffff81111561315157600080fd5b8301601f8101851361316257600080fd5b8035613175613170826130ef565b6130be565b81815286602083850101111561318a57600080fd5b816020840160208301376000602083830101528093505050509250929050565b61014081016105138284612f68565b600060a082840312156131cb57600080fd5b60405160a0810181811067ffffffffffffffff821117156131ee576131ee6130a8565b60405290508082356003811061320357600080fd5b815260208301356004811061321757600080fd5b6020820152604083013561322a81613024565b8060408301525060608301356060820152608083013560808201525092915050565b6000610140828403121561325f57600080fd5b6040516040810181811067ffffffffffffffff82111715613282576132826130a8565b60405290508061329284846131b9565b81526132a18460a085016131b9565b60208201525092915050565b60008061016083850312156132c157600080fd5b823591506132d2846020850161324c565b90509250929050565b600061014082840312156132ee57600080fd5b611401838361324c565b634e487b7160e01b600052603260045260246000fd5b634e487b7160e01b600052601160045260246000fd5b6000600182016133365761333661330e565b5060010190565b60006020828403121561334f57600080fd5b815161140181613024565b60005b8381101561337557818101518382015260200161335d565b50506000910152565b60006020828403121561339057600080fd5b815167ffffffffffffffff8111156133a757600080fd5b8201601f810184136133b857600080fd5b80516133c6613170826130ef565b8181528560208385010111156133db57600080fd5b612e2d82602083016020860161335a565b6000606082840312156133fe57600080fd5b6040516060810181811067ffffffffffffffff82111715613421576134216130a8565b8060405250825181526020830151602082015260408301516005811061344657600080fd5b60408201529392505050565b818103818111156105135761051361330e565b80820281158282048414176105135761051361330e565b634e487b7160e01b600052601260045260246000fd5b6000826134a1576134a161347c565b500490565b808201808211156105135761051361330e565b6001600160a01b039384168152919092166020820152604081019190915260600190565b6000602082840312156134ef57600080fd5b8151801515811461140157600080fd5b6020808252602c908201527f46756e6374696f6e206d7573742062652063616c6c6564207468726f7567682060408201526b19195b1959d85d1958d85b1b60a21b606082015260800190565b6020808252602c908201527f46756e6374696f6e206d7573742062652063616c6c6564207468726f7567682060408201526b6163746976652070726f787960a01b606082015260800190565b6000826135a6576135a661347c565b500690565b6001600160a01b039390931683526020830191909152604082015260806060820181905260009082015260a00190565b8151815260208083015190820152604082015160608201906005811061360357613603612efc565b8060408401525092915050565b6000815180845261362881602086016020860161335a565b601f01601f19169290920160200192915050565b6001600160a01b038316815260406020820181905260009061366090830184613610565b949350505050565b600181815b808511156136a35781600019048211156136895761368961330e565b8085161561369657918102915b93841c939080029061366d565b509250929050565b6000826136ba57506001610513565b816136c757506000610513565b81600181146136dd57600281146136e757613703565b6001915050610513565b60ff8411156136f8576136f861330e565b50506001821b610513565b5060208310610133831016604e8410600b8410161715613726575081810a610513565b6137308383613668565b80600019048211156137445761374461330e565b029392505050565b600061140183836136ab565b6001600160a01b0394851681529290931660208301526040820152606081019190915260a06080820181905260009082015260c00190565b6000602082840312156137a257600080fd5b5051919050565b6020808252602b908201527f496e697469616c697a61626c653a20636f6e7472616374206973206e6f74206960408201526a6e697469616c697a696e6760a81b606082015260800190565b7f416363657373436f6e74726f6c3a206163636f756e742000000000000000000081526000835161382c81601785016020880161335a565b7001034b99036b4b9b9b4b733903937b6329607d1b601791840191820152835161385d81602884016020880161335a565b01602801949350505050565b6020815260006114016020830184613610565b634e487b7160e01b600052603160045260246000fd5b6000816138a1576138a161330e565b506000190190565b600082516138bb81846020870161335a565b919091019291505056fe360894a13ba1a3210667c828492db98dca3e2076cc3735a920a3ca505d382bbc416464726573733a206c6f772d6c6576656c2064656c65676174652063616c6c206661696c6564a49807205ce4d355092ef5a8a18f56e8913cf4a201fbe287825b095693c21775a2646970667358221220c5e66e000605315e0ffb84494673688e992e55f487424b3fdb6c45b4ee485af064736f6c63430008110033",
  "linkReferences": {},
  "deployedLinkReferences": {}
}