{
  "_format": "hh-sol-artifact-1",
  "contractName": "DoCTrader",
  "sourceName": "contracts/upgradeable/npc/DoCTrader/DoCTrader.sol",
  "abi": [
    {
      "inputs": [],
      "stateMutability": "nonpayable",
      "type": "constructor"
    },
    {
      "anonymous": false,
      "inputs": [
        {
          "indexed": false,
          "internalType": "address",
          "name": "previousAdmin",
          "type": "address"
        },
        {
          "indexed": false,
          "internalType": "address",
          "name": "newAdmin",
          "type": "address"
        }
      ],
      "name": "AdminChanged",
      "type": "event"
    },
    {
      "anonymous": false,
      "inputs": [
        {
          "indexed": true,
          "internalType": "address",
          "name": "beacon",
          "type": "address"
        }
      ],
      "name": "BeaconUpgraded",
      "type": "event"
    },
    {
      "anonymous": false,
      "inputs": [
        {
          "indexed": false,
          "internalType": "uint8",
          "name": "version",
          "type": "uint8"
        }
      ],
      "name": "Initialized",
      "type": "event"
    },
    {
      "anonymous": false,
      "inputs": [
        {
          "indexed": false,
          "internalType": "address",
          "name": "account",
          "type": "address"
        }
      ],
      "name": "Paused",
      "type": "event"
    },
    {
      "anonymous": false,
      "inputs": [
        {
          "indexed": true,
          "internalType": "bytes32",
          "name": "role",
          "type": "bytes32"
        },
        {
          "indexed": true,
          "internalType": "bytes32",
          "name": "previousAdminRole",
          "type": "bytes32"
        },
        {
          "indexed": true,
          "internalType": "bytes32",
          "name": "newAdminRole",
          "type": "bytes32"
        }
      ],
      "name": "RoleAdminChanged",
      "type": "event"
    },
    {
      "anonymous": false,
      "inputs": [
        {
          "indexed": true,
          "internalType": "bytes32",
          "name": "role",
          "type": "bytes32"
        },
        {
          "indexed": true,
          "internalType": "address",
          "name": "account",
          "type": "address"
        },
        {
          "indexed": true,
          "internalType": "address",
          "name": "sender",
          "type": "address"
        }
      ],
      "name": "RoleGranted",
      "type": "event"
    },
    {
      "anonymous": false,
      "inputs": [
        {
          "indexed": true,
          "internalType": "bytes32",
          "name": "role",
          "type": "bytes32"
        },
        {
          "indexed": true,
          "internalType": "address",
          "name": "account",
          "type": "address"
        },
        {
          "indexed": true,
          "internalType": "address",
          "name": "sender",
          "type": "address"
        }
      ],
      "name": "RoleRevoked",
      "type": "event"
    },
    {
      "anonymous": false,
      "inputs": [
        {
          "indexed": false,
          "internalType": "address",
          "name": "account",
          "type": "address"
        }
      ],
      "name": "Unpaused",
      "type": "event"
    },
    {
      "anonymous": false,
      "inputs": [
        {
          "indexed": true,
          "internalType": "address",
          "name": "implementation",
          "type": "address"
        }
      ],
      "name": "Upgraded",
      "type": "event"
    },
    {
      "inputs": [],
      "name": "DEFAULT_ADMIN_ROLE",
      "outputs": [
        {
          "internalType": "bytes32",
          "name": "",
          "type": "bytes32"
        }
      ],
      "stateMutability": "view",
      "type": "function"
    },
    {
      "inputs": [
        {
          "components": [
            {
              "components": [
                {
                  "internalType": "enum DoCTrader.TokenType",
                  "name": "tokenType",
                  "type": "uint8"
                },
                {
                  "internalType": "enum DoCTrader.Location",
                  "name": "location",
                  "type": "uint8"
                },
                {
                  "internalType": "address",
                  "name": "_address",
                  "type": "address"
                },
                {
                  "internalType": "uint256",
                  "name": "id",
                  "type": "uint256"
                },
                {
                  "internalType": "uint256",
                  "name": "quantity",
                  "type": "uint256"
                }
              ],
              "internalType": "struct DoCTrader.Token",
              "name": "cost",
              "type": "tuple"
            },
            {
              "components": [
                {
                  "internalType": "enum DoCTrader.TokenType",
                  "name": "tokenType",
                  "type": "uint8"
                },
                {
                  "internalType": "enum DoCTrader.Location",
                  "name": "location",
                  "type": "uint8"
                },
                {
                  "internalType": "address",
                  "name": "_address",
                  "type": "address"
                },
                {
                  "internalType": "uint256",
                  "name": "id",
                  "type": "uint256"
                },
                {
                  "internalType": "uint256",
                  "name": "quantity",
                  "type": "uint256"
                }
              ],
              "internalType": "struct DoCTrader.Token",
              "name": "details",
              "type": "tuple"
            }
          ],
          "internalType": "struct DoCTrader.Item",
          "name": "_item",
          "type": "tuple"
        }
      ],
      "name": "addShopItem",
      "outputs": [],
      "stateMutability": "nonpayable",
      "type": "function"
    },
    {
      "inputs": [
        {
          "internalType": "uint256",
          "name": "id",
          "type": "uint256"
        },
        {
          "internalType": "uint256",
          "name": "quantity",
          "type": "uint256"
        }
      ],
      "name": "breakdownResource",
      "outputs": [],
      "stateMutability": "nonpayable",
      "type": "function"
    },
    {
      "inputs": [
        {
          "internalType": "uint256",
          "name": "id",
          "type": "uint256"
        }
      ],
      "name": "buyItem",
      "outputs": [],
      "stateMutability": "nonpayable",
      "type": "function"
    },
    {
      "inputs": [
        {
          "internalType": "uint256",
          "name": "professionId",
          "type": "uint256"
        }
      ],
      "name": "buyTool",
      "outputs": [],
      "stateMutability": "nonpayable",
      "type": "function"
    },
    {
      "inputs": [
        {
          "internalType": "bytes32",
          "name": "role",
          "type": "bytes32"
        }
      ],
      "name": "getRoleAdmin",
      "outputs": [
        {
          "internalType": "bytes32",
          "name": "",
          "type": "bytes32"
        }
      ],
      "stateMutability": "view",
      "type": "function"
    },
    {
      "inputs": [
        {
          "internalType": "bytes32",
          "name": "role",
          "type": "bytes32"
        },
        {
          "internalType": "uint256",
          "name": "index",
          "type": "uint256"
        }
      ],
      "name": "getRoleMember",
      "outputs": [
        {
          "internalType": "address",
          "name": "",
          "type": "address"
        }
      ],
      "stateMutability": "view",
      "type": "function"
    },
    {
      "inputs": [
        {
          "internalType": "bytes32",
          "name": "role",
          "type": "bytes32"
        }
      ],
      "name": "getRoleMemberCount",
      "outputs": [
        {
          "internalType": "uint256",
          "name": "",
          "type": "uint256"
        }
      ],
      "stateMutability": "view",
      "type": "function"
    },
    {
      "inputs": [
        {
          "internalType": "bytes32",
          "name": "role",
          "type": "bytes32"
        },
        {
          "internalType": "address",
          "name": "account",
          "type": "address"
        }
      ],
      "name": "grantRole",
      "outputs": [],
      "stateMutability": "nonpayable",
      "type": "function"
    },
    {
      "inputs": [
        {
          "internalType": "bytes32",
          "name": "role",
          "type": "bytes32"
        },
        {
          "internalType": "address",
          "name": "account",
          "type": "address"
        }
      ],
      "name": "hasRole",
      "outputs": [
        {
          "internalType": "bool",
          "name": "",
          "type": "bool"
        }
      ],
      "stateMutability": "view",
      "type": "function"
    },
    {
      "inputs": [],
      "name": "initialize",
      "outputs": [],
      "stateMutability": "nonpayable",
      "type": "function"
    },
    {
      "inputs": [
        {
          "internalType": "bytes[]",
          "name": "data",
          "type": "bytes[]"
        }
      ],
      "name": "multicall",
      "outputs": [
        {
          "internalType": "bytes[]",
          "name": "results",
          "type": "bytes[]"
        }
      ],
      "stateMutability": "nonpayable",
      "type": "function"
    },
    {
      "inputs": [],
      "name": "paused",
      "outputs": [
        {
          "internalType": "bool",
          "name": "",
          "type": "bool"
        }
      ],
      "stateMutability": "view",
      "type": "function"
    },
    {
      "inputs": [],
      "name": "proxiableUUID",
      "outputs": [
        {
          "internalType": "bytes32",
          "name": "",
          "type": "bytes32"
        }
      ],
      "stateMutability": "view",
      "type": "function"
    },
    {
      "inputs": [
        {
          "internalType": "uint256",
          "name": "id",
          "type": "uint256"
        }
      ],
      "name": "removeShopItem",
      "outputs": [],
      "stateMutability": "nonpayable",
      "type": "function"
    },
    {
      "inputs": [
        {
          "internalType": "bytes32",
          "name": "role",
          "type": "bytes32"
        },
        {
          "internalType": "address",
          "name": "account",
          "type": "address"
        }
      ],
      "name": "renounceRole",
      "outputs": [],
      "stateMutability": "nonpayable",
      "type": "function"
    },
    {
      "inputs": [
        {
          "internalType": "uint256",
          "name": "tokenId",
          "type": "uint256"
        }
      ],
      "name": "repairTool",
      "outputs": [],
      "stateMutability": "nonpayable",
      "type": "function"
    },
    {
      "inputs": [
        {
          "internalType": "bytes32",
          "name": "role",
          "type": "bytes32"
        },
        {
          "internalType": "address",
          "name": "account",
          "type": "address"
        }
      ],
      "name": "revokeRole",
      "outputs": [],
      "stateMutability": "nonpayable",
      "type": "function"
    },
    {
      "inputs": [
        {
          "internalType": "address",
          "name": "_treasury",
          "type": "address"
        }
      ],
      "name": "setTreasury",
      "outputs": [],
      "stateMutability": "nonpayable",
      "type": "function"
    },
    {
      "inputs": [
        {
          "internalType": "uint256",
          "name": "id",
          "type": "uint256"
        }
      ],
      "name": "shopItem",
      "outputs": [
        {
          "components": [
            {
              "components": [
                {
                  "internalType": "enum DoCTrader.TokenType",
                  "name": "tokenType",
                  "type": "uint8"
                },
                {
                  "internalType": "enum DoCTrader.Location",
                  "name": "location",
                  "type": "uint8"
                },
                {
                  "internalType": "address",
                  "name": "_address",
                  "type": "address"
                },
                {
                  "internalType": "uint256",
                  "name": "id",
                  "type": "uint256"
                },
                {
                  "internalType": "uint256",
                  "name": "quantity",
                  "type": "uint256"
                }
              ],
              "internalType": "struct DoCTrader.Token",
              "name": "cost",
              "type": "tuple"
            },
            {
              "components": [
                {
                  "internalType": "enum DoCTrader.TokenType",
                  "name": "tokenType",
                  "type": "uint8"
                },
                {
                  "internalType": "enum DoCTrader.Location",
                  "name": "location",
                  "type": "uint8"
                },
                {
                  "internalType": "address",
                  "name": "_address",
                  "type": "address"
                },
                {
                  "internalType": "uint256",
                  "name": "id",
                  "type": "uint256"
                },
                {
                  "internalType": "uint256",
                  "name": "quantity",
                  "type": "uint256"
                }
              ],
              "internalType": "struct DoCTrader.Token",
              "name": "details",
              "type": "tuple"
            }
          ],
          "internalType": "struct DoCTrader.Item",
          "name": "item",
          "type": "tuple"
        }
      ],
      "stateMutability": "view",
      "type": "function"
    },
    {
      "inputs": [],
      "name": "shopItems",
      "outputs": [
        {
          "internalType": "uint256[]",
          "name": "ids",
          "type": "uint256[]"
        },
        {
          "components": [
            {
              "components": [
                {
                  "internalType": "enum DoCTrader.TokenType",
                  "name": "tokenType",
                  "type": "uint8"
                },
                {
                  "internalType": "enum DoCTrader.Location",
                  "name": "location",
                  "type": "uint8"
                },
                {
                  "internalType": "address",
                  "name": "_address",
                  "type": "address"
                },
                {
                  "internalType": "uint256",
                  "name": "id",
                  "type": "uint256"
                },
                {
                  "internalType": "uint256",
                  "name": "quantity",
                  "type": "uint256"
                }
              ],
              "internalType": "struct DoCTrader.Token",
              "name": "cost",
              "type": "tuple"
            },
            {
              "components": [
                {
                  "internalType": "enum DoCTrader.TokenType",
                  "name": "tokenType",
                  "type": "uint8"
                },
                {
                  "internalType": "enum DoCTrader.Location",
                  "name": "location",
                  "type": "uint8"
                },
                {
                  "internalType": "address",
                  "name": "_address",
                  "type": "address"
                },
                {
                  "internalType": "uint256",
                  "name": "id",
                  "type": "uint256"
                },
                {
                  "internalType": "uint256",
                  "name": "quantity",
                  "type": "uint256"
                }
              ],
              "internalType": "struct DoCTrader.Token",
              "name": "details",
              "type": "tuple"
            }
          ],
          "internalType": "struct DoCTrader.Item[]",
          "name": "items",
          "type": "tuple[]"
        }
      ],
      "stateMutability": "view",
      "type": "function"
    },
    {
      "inputs": [
        {
          "internalType": "bytes4",
          "name": "interfaceId",
          "type": "bytes4"
        }
      ],
      "name": "supportsInterface",
      "outputs": [
        {
          "internalType": "bool",
          "name": "",
          "type": "bool"
        }
      ],
      "stateMutability": "view",
      "type": "function"
    },
    {
      "inputs": [
        {
          "internalType": "uint256",
          "name": "id",
          "type": "uint256"
        }
      ],
      "name": "tradeResource",
      "outputs": [],
      "stateMutability": "nonpayable",
      "type": "function"
    },
    {
      "inputs": [],
      "name": "treasury",
      "outputs": [
        {
          "internalType": "address",
          "name": "",
          "type": "address"
        }
      ],
      "stateMutability": "view",
      "type": "function"
    },
    {
      "inputs": [
        {
          "internalType": "uint256",
          "name": "id",
          "type": "uint256"
        },
        {
          "components": [
            {
              "components": [
                {
                  "internalType": "enum DoCTrader.TokenType",
                  "name": "tokenType",
                  "type": "uint8"
                },
                {
                  "internalType": "enum DoCTrader.Location",
                  "name": "location",
                  "type": "uint8"
                },
                {
                  "internalType": "address",
                  "name": "_address",
                  "type": "address"
                },
                {
                  "internalType": "uint256",
                  "name": "id",
                  "type": "uint256"
                },
                {
                  "internalType": "uint256",
                  "name": "quantity",
                  "type": "uint256"
                }
              ],
              "internalType": "struct DoCTrader.Token",
              "name": "cost",
              "type": "tuple"
            },
            {
              "components": [
                {
                  "internalType": "enum DoCTrader.TokenType",
                  "name": "tokenType",
                  "type": "uint8"
                },
                {
                  "internalType": "enum DoCTrader.Location",
                  "name": "location",
                  "type": "uint8"
                },
                {
                  "internalType": "address",
                  "name": "_address",
                  "type": "address"
                },
                {
                  "internalType": "uint256",
                  "name": "id",
                  "type": "uint256"
                },
                {
                  "internalType": "uint256",
                  "name": "quantity",
                  "type": "uint256"
                }
              ],
              "internalType": "struct DoCTrader.Token",
              "name": "details",
              "type": "tuple"
            }
          ],
          "internalType": "struct DoCTrader.Item",
          "name": "_item",
          "type": "tuple"
        }
      ],
      "name": "updateShopItem",
      "outputs": [],
      "stateMutability": "nonpayable",
      "type": "function"
    },
    {
      "inputs": [
        {
          "internalType": "address",
          "name": "newImplementation",
          "type": "address"
        }
      ],
      "name": "upgradeTo",
      "outputs": [],
      "stateMutability": "nonpayable",
      "type": "function"
    },
    {
      "inputs": [
        {
          "internalType": "address",
          "name": "newImplementation",
          "type": "address"
        },
        {
          "internalType": "bytes",
          "name": "data",
          "type": "bytes"
        }
      ],
      "name": "upgradeToAndCall",
      "outputs": [],
      "stateMutability": "payable",
      "type": "function"
    }
  ],
  "bytecode": "0x60a0604052306080523480156200001557600080fd5b506200002062000026565b620000e8565b600054610100900460ff1615620000935760405162461bcd60e51b815260206004820152602760248201527f496e697469616c697a61626c653a20636f6e747261637420697320696e697469604482015266616c697a696e6760c81b606482015260840160405180910390fd5b60005460ff9081161015620000e6576000805460ff191660ff9081179091556040519081527f7f26b83ff96e1f2b6a682f133852f6798a09c465da95921460cefb38474024989060200160405180910390a15b565b608051613bd16200012060003960008181610bb101528181610bf101528181610fb001528181610ff0015261107f0152613bd16000f3fe60806040526004361061019c5760003560e01c806370149748116100ec578063d547741f1161008a578063e7e1f31511610064578063e7e1f315146104b6578063e7fb74c7146104d6578063ed41a2e0146104f6578063f0f442601461051657600080fd5b8063d547741f14610456578063d54e92de14610476578063dc557faf1461049657600080fd5b806391d14854116100c657806391d14854146103d4578063a217fddf146103f4578063ac9650d814610409578063ca15c8731461043657600080fd5b806370149748146103725780638129fc1c1461039f5780639010d07c146103b457600080fd5b80633659cfe6116101595780634f1ef286116101335780634f1ef286146102f957806352d1902d1461030c5780635c975abb1461032157806361d027b31461033957600080fd5b80633659cfe6146102995780633f2ce093146102b95780634c77e1cb146102d957600080fd5b806301ffc9a7146101a157806308514a41146101d6578063248a9ca3146101f95780632f2ff15d146102375780633524f16c1461025957806336568abe14610279575b600080fd5b3480156101ad57600080fd5b506101c16101bc36600461301c565b610536565b60405190151581526020015b60405180910390f35b3480156101e257600080fd5b506101eb610561565b6040516101cd9291906130cf565b34801561020557600080fd5b50610229610214366004613155565b60009081526097602052604090206001015490565b6040519081526020016101cd565b34801561024357600080fd5b50610257610252366004613183565b6107a1565b005b34801561026557600080fd5b50610257610274366004613155565b6107cb565b34801561028557600080fd5b50610257610294366004613183565b610b29565b3480156102a557600080fd5b506102576102b43660046131b3565b610ba7565b3480156102c557600080fd5b506102576102d43660046131d0565b610c86565b3480156102e557600080fd5b506102576102f4366004613155565b610e46565b610257610307366004613261565b610fa6565b34801561031857600080fd5b50610229611072565b34801561032d57600080fd5b5060335460ff166101c1565b34801561034557600080fd5b506101bf5461035a906001600160a01b031681565b6040516001600160a01b0390911681526020016101cd565b34801561037e57600080fd5b5061039261038d366004613155565b611125565b6040516101cd91906132f4565b3480156103ab57600080fd5b50610257611300565b3480156103c057600080fd5b5061035a6103cf3660046131d0565b611439565b3480156103e057600080fd5b506101c16103ef366004613183565b611458565b34801561040057600080fd5b50610229600081565b34801561041557600080fd5b50610429610424366004613303565b611483565b6040516101cd91906133c8565b34801561044257600080fd5b50610229610451366004613155565b611578565b34801561046257600080fd5b50610257610471366004613183565b61158f565b34801561048257600080fd5b5061025761049136600461351e565b6115b4565b3480156104a257600080fd5b506102576104b1366004613155565b61185d565b3480156104c257600080fd5b506102576104d1366004613155565b6119af565b3480156104e257600080fd5b506102576104f1366004613155565b611a70565b34801561050257600080fd5b5061025761051136600461354c565b6122d6565b34801561052257600080fd5b506102576105313660046131b3565b612321565b60006001600160e01b03198216635a05180f60e01b148061055b575061055b826123ce565b92915050565b60608061056f6101c1612403565b9150815167ffffffffffffffff81111561058b5761058b6131f2565b6040519080825280602002602001820160405280156105c457816020015b6105b1612fbe565b8152602001906001900390816105a95790505b50905060005b825181101561079c576101c060008483815181106105ea576105ea613569565b60209081029190910181015182528101919091526040908101600020815160e081018352815490928391908201908390829060ff16600281111561063057610630613046565b600281111561064157610641613046565b81528154602090910190610100900460ff16600381111561066457610664613046565b600381111561067557610675613046565b81526020016000820160029054906101000a90046001600160a01b03166001600160a01b03166001600160a01b03168152602001600182015481526020016002820154815250508152602001600382016040518060a00160405290816000820160009054906101000a900460ff1660028111156106f4576106f4613046565b600281111561070557610705613046565b81528154602090910190610100900460ff16600381111561072857610728613046565b600381111561073957610739613046565b815281546201000090046001600160a01b0316602082015260018201546040820152600290910154606090910152905250825183908390811061077e5761077e613569565b6020026020010181905250808061079490613595565b9150506105ca565b509091565b6000828152609760205260409020600101546107bc81612410565b6107c6838361241a565b505050565b6107d361243c565b6000730458b679c30aa4b8622742ea9fb2a44660c4a2a16040516331a9108f60e11b81526004810184905290915033906001600160a01b03831690636352211e90602401602060405180830381865afa158015610834573d6000803e3d6000fd5b505050506040513d601f19601f8201168201806040525081019061085891906135ae565b6001600160a01b0316146108a75760405162461bcd60e51b81526020600482015260116024820152702a3930b232b91d1d2737ba1037bbb732b960791b60448201526064015b60405180910390fd5b604051639b9284f960e01b8152600481018390526000906001600160a01b03831690639b9284f990602401600060405180830381865afa1580156108ef573d6000803e3d6000fd5b505050506040513d6000823e601f3d908101601f1916820160405261091791908101906135cb565b80602001905181019061092a9190613639565b905060008160400151600481111561094457610944613046565b9050600081600314610975578160021461096e578160011461096757600a610978565b600f610978565b601e610978565b60325b60ff169050808360200151106109d05760405162461bcd60e51b815260206004820152601e60248201527f5472616465723a3a546f6f6c206174206d6178206475726162696c6974790000604482015260640161089e565b60008360200151826109e2919061369f565b9050600081836109f38660326136b2565b6109fd91906136df565b610a0791906136b2565b90506000610a168360056136b2565b90506000610a2483836136f3565b610a3690670de0b6b3a76400006136b2565b6101bf546040516323b872dd60e01b815291925073245b4c64271e91c9fb6be1971a0208dd92efebde916323b872dd91610a809133916001600160a01b0316908690600401613706565b6020604051808303816000875af1158015610a9f573d6000803e3d6000fd5b505050506040513d601f19601f82011682018060405250810190610ac3919061372a565b5060405163b958050360e01b8152600481018a90526001600160a01b0389169063b958050390602401600060405180830381600087803b158015610b0657600080fd5b505af1158015610b1a573d6000803e3d6000fd5b50505050505050505050505050565b6001600160a01b0381163314610b995760405162461bcd60e51b815260206004820152602f60248201527f416363657373436f6e74726f6c3a2063616e206f6e6c792072656e6f756e636560448201526e103937b632b9903337b91039b2b63360891b606482015260840161089e565b610ba38282612484565b5050565b6001600160a01b037f0000000000000000000000000000000000000000000000000000000000000000163003610bef5760405162461bcd60e51b815260040161089e9061374c565b7f00000000000000000000000000000000000000000000000000000000000000006001600160a01b0316610c38600080516020613b35833981519152546001600160a01b031690565b6001600160a01b031614610c5e5760405162461bcd60e51b815260040161089e90613798565b610c67816124a6565b60408051600080825260208201909252610c83918391906124bd565b50565b610c8e61243c565b6000610c9b6005846137e4565b905080600003610d065760405162461bcd60e51b815260206004820152603060248201527f5472616465723a3a5265736f7572636520697320616c7265616479206174207460448201526f6865206c6f776573742072617269747960801b606482015260840161089e565b6000610d1184612628565b610d2f5773ce953d1a6be7331eef06ec9ac8a4a22a4f2bdfb0610d45565b734f82dfbeed2aa0686eb26ddba7a075406b4c6a675b604051637a94c56560e11b815233600482015260248101869052604481018590529091506001600160a01b0382169063f5298aca90606401600060405180830381600087803b158015610d9757600080fd5b505af1158015610dab573d6000803e3d6000fd5b505050506000836001610dbe91906136b2565b610dc78661265e565b610dd191906136f3565b90506001600160a01b03821663731133e933610dee60018961369f565b846040518463ffffffff1660e01b8152600401610e0d939291906137f8565b600060405180830381600087803b158015610e2757600080fd5b505af1158015610e3b573d6000803e3d6000fd5b505050505050505050565b610e4e61243c565b6101bf546040516323b872dd60e01b815273245b4c64271e91c9fb6be1971a0208dd92efebde916323b872dd91610ea09133916001600160a01b0390911690680d8d726b7177a8000090600401613706565b6020604051808303816000875af1158015610ebf573d6000803e3d6000fd5b505050506040513d601f19601f82011682018060405250810190610ee3919061372a565b50730458b679c30aa4b8622742ea9fb2a44660c4a2a16001600160a01b031663b510391f3360405180606001604052808581526020016000815260200160006004811115610f3357610f33613046565b9052604051610f459190602001613828565b6040516020818303038152906040526040518363ffffffff1660e01b8152600401610f7192919061385d565b600060405180830381600087803b158015610f8b57600080fd5b505af1158015610f9f573d6000803e3d6000fd5b5050505050565b6001600160a01b037f0000000000000000000000000000000000000000000000000000000000000000163003610fee5760405162461bcd60e51b815260040161089e9061374c565b7f00000000000000000000000000000000000000000000000000000000000000006001600160a01b0316611037600080516020613b35833981519152546001600160a01b031690565b6001600160a01b03161461105d5760405162461bcd60e51b815260040161089e90613798565b611066826124a6565b610ba3828260016124bd565b6000306001600160a01b037f000000000000000000000000000000000000000000000000000000000000000016146111125760405162461bcd60e51b815260206004820152603860248201527f555550535570677261646561626c653a206d757374206e6f742062652063616c60448201527f6c6564207468726f7567682064656c656761746563616c6c0000000000000000606482015260840161089e565b50600080516020613b3583398151915290565b61112d612fbe565b6111396101c1836126d7565b6111855760405162461bcd60e51b815260206004820152601760248201527f5472616465723a3a4e6f6e2d6578697374656e74206964000000000000000000604482015260640161089e565b60008281526101c0602052604090819020815160e081018352815490928391908201908390829060ff1660028111156111c0576111c0613046565b60028111156111d1576111d1613046565b81528154602090910190610100900460ff1660038111156111f4576111f4613046565b600381111561120557611205613046565b81526020016000820160029054906101000a90046001600160a01b03166001600160a01b03166001600160a01b03168152602001600182015481526020016002820154815250508152602001600382016040518060a00160405290816000820160009054906101000a900460ff16600281111561128457611284613046565b600281111561129557611295613046565b81528154602090910190610100900460ff1660038111156112b8576112b8613046565b60038111156112c9576112c9613046565b815281546201000090046001600160a01b031660208201526001820154604082015260029091015460609091015290525092915050565b600054610100900460ff16158080156113205750600054600160ff909116105b8061133a5750303b15801561133a575060005460ff166001145b61139d5760405162461bcd60e51b815260206004820152602e60248201527f496e697469616c697a61626c653a20636f6e747261637420697320616c72656160448201526d191e481a5b9a5d1a585b1a5e995960921b606482015260840161089e565b6000805460ff1916600117905580156113c0576000805461ff0019166101001790555b6113c86126ef565b6113d061271e565b6113d8612818565b6113e0612818565b6101bf80546001600160a01b03191690558015610c83576000805461ff0019169055604051600181527f7f26b83ff96e1f2b6a682f133852f6798a09c465da95921460cefb38474024989060200160405180910390a150565b600082815260c960205260408120611451908361283f565b9392505050565b60009182526097602090815260408084206001600160a01b0393909316845291905290205460ff1690565b60608167ffffffffffffffff81111561149e5761149e6131f2565b6040519080825280602002602001820160405280156114d157816020015b60608152602001906001900390816114bc5790505b50905060005b8281101561157157611541308585848181106114f5576114f5613569565b90506020028101906115079190613889565b8080601f01602080910402602001604051908101604052809392919081815260200183838082843760009201919091525061284b92505050565b82828151811061155357611553613569565b6020026020010181905250808061156990613595565b9150506114d7565b5092915050565b600081815260c96020526040812061055b9061293f565b6000828152609760205260409020600101546115aa81612410565b6107c68383612484565b6115cb600080516020613b7c833981519152612410565b6115d76101c1836126d7565b6116235760405162461bcd60e51b815260206004820152601c60248201527f5472616465723a3a4e6f6e2d6578697374656e74206974656d20696400000000604482015260640161089e565b6040805160e08101825282515190918291908201908190600281111561164b5761164b613046565b8152602001846000015160200151600381111561166a5761166a613046565b81526020018460000151604001516001600160a01b03168152602001846000015160600151815260200184600001516080015181525081526020016040518060a0016040528084602001516000015160028111156116ca576116ca613046565b815260200184602001516020015160038111156116e9576116e9613046565b8152602085810180516040908101516001600160a01b03168385015281516060908101518286015291516080015191909301529190925260008581526101c090915220815180518254839190829060ff1916600183600281111561174f5761174f613046565b021790555060208201518154829061ff00191661010083600381111561177757611777613046565b0217905550604082015181546001600160a01b03909116620100000262010000600160b01b0319909116178155606082015160018083019190915560809092015160029182015560208401518051600385018054929490939192849260ff19909116919084908111156117ec576117ec613046565b021790555060208201518154829061ff00191661010083600381111561181457611814613046565b0217905550604082015181546001600160a01b03909116620100000262010000600160b01b03199091161781556060820151600182015560809091015160029091015550505050565b61186561243c565b60006118726005836137e4565b9050600061187f83612628565b61189d5773ce953d1a6be7331eef06ec9ac8a4a22a4f2bdfb06118b3565b734f82dfbeed2aa0686eb26ddba7a075406b4c6a675b905060006118c08461265e565b905060006118cf84600361369f565b6118da8360016136f3565b6118e491906139bb565b6118ef8360186136b2565b6118f991906136b2565b604051637a94c56560e11b815233600482015260248101879052604481018290529091506001600160a01b0384169063f5298aca90606401600060405180830381600087803b15801561194b57600080fd5b505af115801561195f573d6000803e3d6000fd5b5050505061197e7369938433cb243721978986a5b3c981a68197021290565b6001600160a01b031663731133e933600360016040518463ffffffff1660e01b8152600401610e0d939291906137f8565b6119c6600080516020613b7c833981519152612410565b6119d26101c1826126d7565b611a1e5760405162461bcd60e51b815260206004820152601c60248201527f5472616465723a3a4e6f6e2d6578697374656e74206974656d20696400000000604482015260640161089e565b611a2a6101c182612949565b5060009081526101c06020526040812080546001600160b01b03199081168255600182018390556002820183905560038201805490911690556004810182905560050155565b611a7861243c565b611a846101c1826126d7565b611ad05760405162461bcd60e51b815260206004820152601b60248201527f5472616465723a3a496e76616c6964206974656d206f7074696f6e0000000000604482015260640161089e565b60008181526101c06020526040808220815160e081018352815490928391908201908390829060ff166002811115611b0a57611b0a613046565b6002811115611b1b57611b1b613046565b81528154602090910190610100900460ff166003811115611b3e57611b3e613046565b6003811115611b4f57611b4f613046565b81526020016000820160029054906101000a90046001600160a01b03166001600160a01b03166001600160a01b03168152602001600182015481526020016002820154815250508152602001600382016040518060a00160405290816000820160009054906101000a900460ff166002811115611bce57611bce613046565b6002811115611bdf57611bdf613046565b81528154602090910190610100900460ff166003811115611c0257611c02613046565b6003811115611c1357611c13613046565b815281546201000090046001600160a01b0316602082015260018201546040820152600290910154606090910152905250905060008151516002811115611c5c57611c5c613046565b03611ded5780516040015160018251602001516003811115611c8057611c80613046565b03611cf257815160800151604051632770a7eb60e21b815233600482015260248101919091526001600160a01b03821690639dc29fac906044015b600060405180830381600087803b158015611cd557600080fd5b505af1158015611ce9573d6000803e3d6000fd5b50505050611de7565b60008251602001516003811115611d0b57611d0b613046565b03611d94576101bf548251608001516040516323b872dd60e01b81526001600160a01b03848116936323b872dd93611d4b93339390921691600401613706565b6020604051808303816000875af1158015611d6a573d6000803e3d6000fd5b505050506040513d601f19601f82011682018060405250810190611d8e919061372a565b50611de7565b60405162461bcd60e51b815260206004820152602260248201527f5472616465723a3a496e76616c6964206974656d20636f7374206c6f6361746960448201526137b760f11b606482015260840161089e565b50611f1d565b60018151516002811115611e0357611e03613046565b03611ed55780516040015160018251602001516003811115611e2757611e27613046565b03611e725781516060810151608090910151604051637a94c56560e11b8152336004820152602481019290925260448201526001600160a01b0382169063f5298aca90606401611cbb565b60008251602001516003811115611e8b57611e8b613046565b03611d94576101bf5482516060810151608090910151604051637921219560e11b81526001600160a01b038086169463f242432a94611cbb943394929093169290916004016139c7565b60405162461bcd60e51b815260206004820152601e60248201527f5472616465723a3a496e76616c6964206974656d20636f737420747970650000604482015260640161089e565b60006020820151516002811115611f3657611f36613046565b036121385760208181015160408101519101516002906003811115611f5d57611f5d613046565b03611fe0576020820151608001516040516394d008ef60e01b8152336004820152602481019190915260606044820152600060648201526001600160a01b038216906394d008ef906084015b600060405180830381600087803b158015611fc357600080fd5b505af1158015611fd7573d6000803e3d6000fd5b50505050505050565b60008260200151602001516003811115611ffc57611ffc613046565b03612089576101bf546020830151608001516040516323b872dd60e01b81526001600160a01b03808516936323b872dd936120409391909216913391600401613706565b6020604051808303816000875af115801561205f573d6000803e3d6000fd5b505050506040513d601f19601f82011682018060405250810190612083919061372a565b50505050565b600382602001516020015160038111156120a5576120a5613046565b036120e2576020820151608001516040516323b872dd60e01b81526001600160a01b038316916323b872dd91612040913091339190600401613706565b60405162461bcd60e51b815260206004820152602560248201527f5472616465723a3a496e76616c6964206974656d2064657461696c73206c6f6360448201526430ba34b7b760d91b606482015260840161089e565b6001602082015151600281111561215157612151613046565b03612284576020818101516040810151910151600290600381111561217857612178613046565b036121bb576020820151606081015160809091015160405163731133e960e01b81526001600160a01b0384169263731133e992611fa992339291906004016137f8565b600082602001516020015160038111156121d7576121d7613046565b03612223576101bf5460208301516060810151608090910151604051637921219560e11b81526001600160a01b038581169463f242432a94611fa99492909116923392906004016139c7565b6003826020015160200151600381111561223f5761223f613046565b036120e25760208201516060810151608090910151604051637921219560e11b81526001600160a01b0384169263f242432a92611fa9923092339290916004016139c7565b60405162461bcd60e51b815260206004820152602160248201527f5472616465723a3a496e76616c6964206974656d2064657461696c73207479706044820152606560f81b606482015260840161089e565b6122ed600080516020613b7c833981519152612410565b60006122f96101c35490565b905061230a6101c380546001019055565b6123166101c182612955565b50610ba381836115b4565b612338600080516020613b7c833981519152612410565b6001600160a01b0381161580159061235f57506101bf546001600160a01b03828116911614155b6123ab5760405162461bcd60e51b815260206004820181905260248201527f5472616465723a3a496e76616c69642074726561737572792061646472657373604482015260640161089e565b6101bf80546001600160a01b0319166001600160a01b0392909216919091179055565b60006001600160e01b03198216637965db0b60e01b148061055b57506301ffc9a760e01b6001600160e01b031983161461055b565b6060600061145183612961565b610c8381336129bd565b6124248282612a16565b600082815260c9602052604090206107c69082612a9c565b60335460ff16156124825760405162461bcd60e51b815260206004820152601060248201526f14185d5cd8589b194e881c185d5cd95960821b604482015260640161089e565b565b61248e8282612ab1565b600082815260c9602052604090206107c69082612b18565b610c83600080516020613b7c833981519152612410565b7f4910fdfa16fed3260ed0e7147f7cc6da11a60208b5b9406d12a635614ffd91435460ff16156124f0576107c683612b2d565b826001600160a01b03166352d1902d6040518163ffffffff1660e01b8152600401602060405180830381865afa92505050801561254a575060408051601f3d908101601f19168201909252612547918101906139ff565b60015b6125ad5760405162461bcd60e51b815260206004820152602e60248201527f45524331393637557067726164653a206e657720696d706c656d656e7461746960448201526d6f6e206973206e6f74205555505360901b606482015260840161089e565b600080516020613b35833981519152811461261c5760405162461bcd60e51b815260206004820152602960248201527f45524331393637557067726164653a20756e737570706f727465642070726f786044820152681a58589b195555525160ba1b606482015260840161089e565b506107c6838383612bc9565b6000603c8210806126455750606982101580156126455750607882105b8061055b57506096821015801561055b57505060a51190565b6000607882101580156126715750608782105b6126cb57607882101580156126865750609682105b6126c457604b821015801561269b5750606982105b806126b2575060a582101580156126b2575060b482105b6126bd5760026126ce565b60016126ce565b60036126ce565b60045b60ff1692915050565b60008181526001830160205260408120541515611451565b600054610100900460ff166127165760405162461bcd60e51b815260040161089e90613a18565b612482612bee565b600054610100900460ff166127455760405162461bcd60e51b815260040161089e90613a18565b61274d612818565b61275860003361241a565b612770600080516020613b7c8339815191523361241a565b61279a7f364d3d7565c7a8300c96fd53e065d19b65848d7b23b3191adcd55621c744223c3361241a565b6127c47f9f2df0fed2c77648de5860a4cc508cd0818c85b8b8a1ab4ceeef8d981c8956a63361241a565b6127ee7ff18b77e1ef402111bacb54bd5e03494cbdba92fbd1bd3bbcc1ce77e69b42ea6c3361241a565b6124827f52ba824bfabc2bcfcdf7f0edbb486ebb05e1836c90e78047efeb949990f72e5f3361241a565b600054610100900460ff166124825760405162461bcd60e51b815260040161089e90613a18565b60006114518383612c21565b60606001600160a01b0383163b6128b35760405162461bcd60e51b815260206004820152602660248201527f416464726573733a2064656c65676174652063616c6c20746f206e6f6e2d636f6044820152651b9d1c9858dd60d21b606482015260840161089e565b600080846001600160a01b0316846040516128ce9190613a63565b600060405180830381855af49150503d8060008114612909576040519150601f19603f3d011682016040523d82523d6000602084013e61290e565b606091505b50915091506129368282604051806060016040528060278152602001613b5560279139612c4b565b95945050505050565b600061055b825490565b60006114518383612c64565b60006114518383612d57565b6060816000018054806020026020016040519081016040528092919081815260200182805480156129b157602002820191906000526020600020905b81548152602001906001019080831161299d575b50505050509050919050565b6129c78282611458565b610ba3576129d481612da6565b6129df836020612db8565b6040516020016129f0929190613a7f565b60408051601f198184030181529082905262461bcd60e51b825261089e91600401613af4565b612a208282611458565b610ba35760008281526097602090815260408083206001600160a01b03851684529091529020805460ff19166001179055612a583390565b6001600160a01b0316816001600160a01b0316837f2f8788117e7eff1d82e926ec794901d17c78024a50270940304540a733656f0d60405160405180910390a45050565b6000611451836001600160a01b038416612d57565b612abb8282611458565b15610ba35760008281526097602090815260408083206001600160a01b0385168085529252808320805460ff1916905551339285917ff6391f5c32d9c69d2a47ea670b442974b53935d1edc7fd64eb21e047a839171b9190a45050565b6000611451836001600160a01b038416612c64565b6001600160a01b0381163b612b9a5760405162461bcd60e51b815260206004820152602d60248201527f455243313936373a206e657720696d706c656d656e746174696f6e206973206e60448201526c1bdd08184818dbdb9d1c9858dd609a1b606482015260840161089e565b600080516020613b3583398151915280546001600160a01b0319166001600160a01b0392909216919091179055565b612bd283612f54565b600082511180612bdf5750805b156107c657612083838361284b565b600054610100900460ff16612c155760405162461bcd60e51b815260040161089e90613a18565b6033805460ff19169055565b6000826000018281548110612c3857612c38613569565b9060005260206000200154905092915050565b60608315612c5a575081611451565b6114518383612f94565b60008181526001830160205260408120548015612d4d576000612c8860018361369f565b8554909150600090612c9c9060019061369f565b9050818114612d01576000866000018281548110612cbc57612cbc613569565b9060005260206000200154905080876000018481548110612cdf57612cdf613569565b6000918252602080832090910192909255918252600188019052604090208390555b8554869080612d1257612d12613b07565b60019003818190600052602060002001600090559055856001016000868152602001908152602001600020600090556001935050505061055b565b600091505061055b565b6000818152600183016020526040812054612d9e5750815460018181018455600084815260208082209093018490558454848252828601909352604090209190915561055b565b50600061055b565b606061055b6001600160a01b03831660145b60606000612dc78360026136b2565b612dd29060026136f3565b67ffffffffffffffff811115612dea57612dea6131f2565b6040519080825280601f01601f191660200182016040528015612e14576020820181803683370190505b509050600360fc1b81600081518110612e2f57612e2f613569565b60200101906001600160f81b031916908160001a905350600f60fb1b81600181518110612e5e57612e5e613569565b60200101906001600160f81b031916908160001a9053506000612e828460026136b2565b612e8d9060016136f3565b90505b6001811115612f05576f181899199a1a9b1b9c1cb0b131b232b360811b85600f1660108110612ec157612ec1613569565b1a60f81b828281518110612ed757612ed7613569565b60200101906001600160f81b031916908160001a90535060049490941c93612efe81613b1d565b9050612e90565b5083156114515760405162461bcd60e51b815260206004820181905260248201527f537472696e67733a20686578206c656e67746820696e73756666696369656e74604482015260640161089e565b612f5d81612b2d565b6040516001600160a01b038216907fbc7cd75a20ee27fd9adebab32041f755214dbc6bffa90cc0225b39da2e5c2d3b90600090a250565b815115612fa45781518083602001fd5b8060405162461bcd60e51b815260040161089e9190613af4565b6040518060400160405280612fd1612fe3565b8152602001612fde612fe3565b905290565b6040805160a0810190915280600081526020016000815260200160006001600160a01b0316815260200160008152602001600081525090565b60006020828403121561302e57600080fd5b81356001600160e01b03198116811461145157600080fd5b634e487b7160e01b600052602160045260246000fd5b80516003811061306e5761306e613046565b825260208101516004811061308557613085613046565b60208301526040818101516001600160a01b03169083015260608082015190830152608090810151910152565b6130bd82825161305c565b60208101516107c660a084018261305c565b604080825283519082018190526000906020906060840190828701845b82811015613108578151845292840192908401906001016130ec565b5050508381038285015284518082528583019183019060005b81811015613148576131348385516130b2565b928401926101409290920191600101613121565b5090979650505050505050565b60006020828403121561316757600080fd5b5035919050565b6001600160a01b0381168114610c8357600080fd5b6000806040838503121561319657600080fd5b8235915060208301356131a88161316e565b809150509250929050565b6000602082840312156131c557600080fd5b81356114518161316e565b600080604083850312156131e357600080fd5b50508035926020909101359150565b634e487b7160e01b600052604160045260246000fd5b604051601f8201601f1916810167ffffffffffffffff81118282101715613231576132316131f2565b604052919050565b600067ffffffffffffffff821115613253576132536131f2565b50601f01601f191660200190565b6000806040838503121561327457600080fd5b823561327f8161316e565b9150602083013567ffffffffffffffff81111561329b57600080fd5b8301601f810185136132ac57600080fd5b80356132bf6132ba82613239565b613208565b8181528660208385010111156132d457600080fd5b816020840160208301376000602083830101528093505050509250929050565b610140810161055b82846130b2565b6000806020838503121561331657600080fd5b823567ffffffffffffffff8082111561332e57600080fd5b818501915085601f83011261334257600080fd5b81358181111561335157600080fd5b8660208260051b850101111561336657600080fd5b60209290920196919550909350505050565b60005b8381101561339357818101518382015260200161337b565b50506000910152565b600081518084526133b4816020860160208601613378565b601f01601f19169290920160200192915050565b6000602080830181845280855180835260408601915060408160051b870101925083870160005b8281101561341d57603f1988860301845261340b85835161339c565b945092850192908501906001016133ef565b5092979650505050505050565b600060a0828403121561343c57600080fd5b60405160a0810181811067ffffffffffffffff8211171561345f5761345f6131f2565b60405290508082356003811061347457600080fd5b815260208301356004811061348857600080fd5b6020820152604083013561349b8161316e565b8060408301525060608301356060820152608083013560808201525092915050565b600061014082840312156134d057600080fd5b6040516040810181811067ffffffffffffffff821117156134f3576134f36131f2565b604052905080613503848461342a565b81526135128460a0850161342a565b60208201525092915050565b600080610160838503121561353257600080fd5b8235915061354384602085016134bd565b90509250929050565b6000610140828403121561355f57600080fd5b61145183836134bd565b634e487b7160e01b600052603260045260246000fd5b634e487b7160e01b600052601160045260246000fd5b6000600182016135a7576135a761357f565b5060010190565b6000602082840312156135c057600080fd5b81516114518161316e565b6000602082840312156135dd57600080fd5b815167ffffffffffffffff8111156135f457600080fd5b8201601f8101841361360557600080fd5b80516136136132ba82613239565b81815285602083850101111561362857600080fd5b612936826020830160208601613378565b60006060828403121561364b57600080fd5b6040516060810181811067ffffffffffffffff8211171561366e5761366e6131f2565b8060405250825181526020830151602082015260408301516005811061369357600080fd5b60408201529392505050565b8181038181111561055b5761055b61357f565b808202811582820484141761055b5761055b61357f565b634e487b7160e01b600052601260045260246000fd5b6000826136ee576136ee6136c9565b500490565b8082018082111561055b5761055b61357f565b6001600160a01b039384168152919092166020820152604081019190915260600190565b60006020828403121561373c57600080fd5b8151801515811461145157600080fd5b6020808252602c908201527f46756e6374696f6e206d7573742062652063616c6c6564207468726f7567682060408201526b19195b1959d85d1958d85b1b60a21b606082015260800190565b6020808252602c908201527f46756e6374696f6e206d7573742062652063616c6c6564207468726f7567682060408201526b6163746976652070726f787960a01b606082015260800190565b6000826137f3576137f36136c9565b500690565b6001600160a01b039390931683526020830191909152604082015260806060820181905260009082015260a00190565b8151815260208083015190820152604082015160608201906005811061385057613850613046565b8060408401525092915050565b6001600160a01b03831681526040602082018190526000906138819083018461339c565b949350505050565b6000808335601e198436030181126138a057600080fd5b83018035915067ffffffffffffffff8211156138bb57600080fd5b6020019150368190038213156138d057600080fd5b9250929050565b600181815b808511156139125781600019048211156138f8576138f861357f565b8085161561390557918102915b93841c93908002906138dc565b509250929050565b6000826139295750600161055b565b816139365750600061055b565b816001811461394c576002811461395657613972565b600191505061055b565b60ff8411156139675761396761357f565b50506001821b61055b565b5060208310610133831016604e8410600b8410161715613995575081810a61055b565b61399f83836138d7565b80600019048211156139b3576139b361357f565b029392505050565b6000611451838361391a565b6001600160a01b0394851681529290931660208301526040820152606081019190915260a06080820181905260009082015260c00190565b600060208284031215613a1157600080fd5b5051919050565b6020808252602b908201527f496e697469616c697a61626c653a20636f6e7472616374206973206e6f74206960408201526a6e697469616c697a696e6760a81b606082015260800190565b60008251613a75818460208701613378565b9190910192915050565b7f416363657373436f6e74726f6c3a206163636f756e7420000000000000000000815260008351613ab7816017850160208801613378565b7001034b99036b4b9b9b4b733903937b6329607d1b6017918401918201528351613ae8816028840160208801613378565b01602801949350505050565b602081526000611451602083018461339c565b634e487b7160e01b600052603160045260246000fd5b600081613b2c57613b2c61357f565b50600019019056fe360894a13ba1a3210667c828492db98dca3e2076cc3735a920a3ca505d382bbc416464726573733a206c6f772d6c6576656c2064656c65676174652063616c6c206661696c6564a49807205ce4d355092ef5a8a18f56e8913cf4a201fbe287825b095693c21775a2646970667358221220080c102222b10ad64206917a1efbefb9fdde40fc027d697de4a8ddc0d169859a64736f6c63430008110033",
  "linkReferences": {},
  "deployedLinkReferences": {}
}