{
  "_format": "hh-sol-artifact-1",
  "contractName": "CosmicBundles",
  "sourceName": "contracts/upgradeable/ERC1155/CosmicBundles.sol",
  "abi": [
    {
      "inputs": [],
      "stateMutability": "nonpayable",
      "type": "constructor"
    },
    {
      "anonymous": false,
      "inputs": [
        {
          "indexed": true,
          "internalType": "address",
          "name": "account",
          "type": "address"
        },
        {
          "indexed": true,
          "internalType": "address",
          "name": "operator",
          "type": "address"
        },
        {
          "indexed": false,
          "internalType": "bool",
          "name": "approved",
          "type": "bool"
        }
      ],
      "name": "ApprovalForAll",
      "type": "event"
    },
    {
      "anonymous": false,
      "inputs": [
        {
          "indexed": false,
          "internalType": "uint8",
          "name": "version",
          "type": "uint8"
        }
      ],
      "name": "Initialized",
      "type": "event"
    },
    {
      "anonymous": false,
      "inputs": [
        {
          "indexed": true,
          "internalType": "uint256",
          "name": "tokenId",
          "type": "uint256"
        },
        {
          "indexed": false,
          "internalType": "uint256",
          "name": "attributeId",
          "type": "uint256"
        },
        {
          "indexed": false,
          "internalType": "string",
          "name": "name",
          "type": "string"
        }
      ],
      "name": "NameUpdated",
      "type": "event"
    },
    {
      "anonymous": false,
      "inputs": [
        {
          "indexed": true,
          "internalType": "uint256",
          "name": "tokenId",
          "type": "uint256"
        },
        {
          "indexed": false,
          "internalType": "uint256[]",
          "name": "attributeIds",
          "type": "uint256[]"
        },
        {
          "indexed": false,
          "internalType": "string[]",
          "name": "names",
          "type": "string[]"
        }
      ],
      "name": "NamesUpdated",
      "type": "event"
    },
    {
      "anonymous": false,
      "inputs": [
        {
          "indexed": false,
          "internalType": "address",
          "name": "account",
          "type": "address"
        }
      ],
      "name": "Paused",
      "type": "event"
    },
    {
      "anonymous": false,
      "inputs": [
        {
          "indexed": true,
          "internalType": "bytes32",
          "name": "role",
          "type": "bytes32"
        },
        {
          "indexed": true,
          "internalType": "bytes32",
          "name": "previousAdminRole",
          "type": "bytes32"
        },
        {
          "indexed": true,
          "internalType": "bytes32",
          "name": "newAdminRole",
          "type": "bytes32"
        }
      ],
      "name": "RoleAdminChanged",
      "type": "event"
    },
    {
      "anonymous": false,
      "inputs": [
        {
          "indexed": true,
          "internalType": "bytes32",
          "name": "role",
          "type": "bytes32"
        },
        {
          "indexed": true,
          "internalType": "address",
          "name": "account",
          "type": "address"
        },
        {
          "indexed": true,
          "internalType": "address",
          "name": "sender",
          "type": "address"
        }
      ],
      "name": "RoleGranted",
      "type": "event"
    },
    {
      "anonymous": false,
      "inputs": [
        {
          "indexed": true,
          "internalType": "bytes32",
          "name": "role",
          "type": "bytes32"
        },
        {
          "indexed": true,
          "internalType": "address",
          "name": "account",
          "type": "address"
        },
        {
          "indexed": true,
          "internalType": "address",
          "name": "sender",
          "type": "address"
        }
      ],
      "name": "RoleRevoked",
      "type": "event"
    },
    {
      "anonymous": false,
      "inputs": [
        {
          "indexed": true,
          "internalType": "address",
          "name": "operator",
          "type": "address"
        },
        {
          "indexed": true,
          "internalType": "address",
          "name": "from",
          "type": "address"
        },
        {
          "indexed": true,
          "internalType": "address",
          "name": "to",
          "type": "address"
        },
        {
          "indexed": false,
          "internalType": "uint256[]",
          "name": "ids",
          "type": "uint256[]"
        },
        {
          "indexed": false,
          "internalType": "uint256[]",
          "name": "values",
          "type": "uint256[]"
        }
      ],
      "name": "TransferBatch",
      "type": "event"
    },
    {
      "anonymous": false,
      "inputs": [
        {
          "indexed": true,
          "internalType": "address",
          "name": "operator",
          "type": "address"
        },
        {
          "indexed": true,
          "internalType": "address",
          "name": "from",
          "type": "address"
        },
        {
          "indexed": true,
          "internalType": "address",
          "name": "to",
          "type": "address"
        },
        {
          "indexed": false,
          "internalType": "uint256",
          "name": "id",
          "type": "uint256"
        },
        {
          "indexed": false,
          "internalType": "uint256",
          "name": "value",
          "type": "uint256"
        }
      ],
      "name": "TransferSingle",
      "type": "event"
    },
    {
      "anonymous": false,
      "inputs": [
        {
          "indexed": false,
          "internalType": "string",
          "name": "value",
          "type": "string"
        },
        {
          "indexed": true,
          "internalType": "uint256",
          "name": "id",
          "type": "uint256"
        }
      ],
      "name": "URI",
      "type": "event"
    },
    {
      "anonymous": false,
      "inputs": [
        {
          "indexed": false,
          "internalType": "address",
          "name": "account",
          "type": "address"
        }
      ],
      "name": "Unpaused",
      "type": "event"
    },
    {
      "anonymous": false,
      "inputs": [
        {
          "indexed": true,
          "internalType": "uint256",
          "name": "tokenId",
          "type": "uint256"
        },
        {
          "indexed": false,
          "internalType": "uint256",
          "name": "attributeId",
          "type": "uint256"
        },
        {
          "indexed": false,
          "internalType": "uint256",
          "name": "value",
          "type": "uint256"
        }
      ],
      "name": "ValueUpdated",
      "type": "event"
    },
    {
      "anonymous": false,
      "inputs": [
        {
          "indexed": true,
          "internalType": "uint256",
          "name": "tokenId",
          "type": "uint256"
        },
        {
          "indexed": false,
          "internalType": "uint256[]",
          "name": "attributeIds",
          "type": "uint256[]"
        },
        {
          "indexed": false,
          "internalType": "uint256[]",
          "name": "values",
          "type": "uint256[]"
        }
      ],
      "name": "ValuesUpdated",
      "type": "event"
    },
    {
      "inputs": [],
      "name": "ADMIN_ROLE",
      "outputs": [
        {
          "internalType": "bytes32",
          "name": "",
          "type": "bytes32"
        }
      ],
      "stateMutability": "view",
      "type": "function"
    },
    {
      "inputs": [],
      "name": "CONTRACT_ROLE",
      "outputs": [
        {
          "internalType": "bytes32",
          "name": "",
          "type": "bytes32"
        }
      ],
      "stateMutability": "view",
      "type": "function"
    },
    {
      "inputs": [],
      "name": "DEFAULT_ADMIN_ROLE",
      "outputs": [
        {
          "internalType": "bytes32",
          "name": "",
          "type": "bytes32"
        }
      ],
      "stateMutability": "view",
      "type": "function"
    },
    {
      "inputs": [],
      "name": "MINTER_ROLE",
      "outputs": [
        {
          "internalType": "bytes32",
          "name": "",
          "type": "bytes32"
        }
      ],
      "stateMutability": "view",
      "type": "function"
    },
    {
      "inputs": [],
      "name": "SOULBOUND_WHITELIST_ROLE",
      "outputs": [
        {
          "internalType": "bytes32",
          "name": "",
          "type": "bytes32"
        }
      ],
      "stateMutability": "view",
      "type": "function"
    },
    {
      "inputs": [],
      "name": "activeIds",
      "outputs": [
        {
          "internalType": "uint256[]",
          "name": "",
          "type": "uint256[]"
        }
      ],
      "stateMutability": "view",
      "type": "function"
    },
    {
      "inputs": [
        {
          "internalType": "address",
          "name": "account",
          "type": "address"
        },
        {
          "internalType": "uint256",
          "name": "id",
          "type": "uint256"
        }
      ],
      "name": "balanceOf",
      "outputs": [
        {
          "internalType": "uint256",
          "name": "",
          "type": "uint256"
        }
      ],
      "stateMutability": "view",
      "type": "function"
    },
    {
      "inputs": [],
      "name": "balanceOfAll",
      "outputs": [
        {
          "internalType": "address[]",
          "name": "owners",
          "type": "address[]"
        },
        {
          "internalType": "uint256[][]",
          "name": "tokenIds",
          "type": "uint256[][]"
        },
        {
          "internalType": "uint256[][]",
          "name": "balances",
          "type": "uint256[][]"
        }
      ],
      "stateMutability": "view",
      "type": "function"
    },
    {
      "inputs": [
        {
          "internalType": "address[]",
          "name": "accounts",
          "type": "address[]"
        },
        {
          "internalType": "uint256[]",
          "name": "ids",
          "type": "uint256[]"
        }
      ],
      "name": "balanceOfBatch",
      "outputs": [
        {
          "internalType": "uint256[]",
          "name": "",
          "type": "uint256[]"
        }
      ],
      "stateMutability": "view",
      "type": "function"
    },
    {
      "inputs": [
        {
          "internalType": "uint256",
          "name": "tokenId",
          "type": "uint256"
        },
        {
          "internalType": "uint256[]",
          "name": "attributeIds",
          "type": "uint256[]"
        }
      ],
      "name": "batchGetAttribute",
      "outputs": [
        {
          "internalType": "uint256[]",
          "name": "",
          "type": "uint256[]"
        }
      ],
      "stateMutability": "view",
      "type": "function"
    },
    {
      "inputs": [
        {
          "internalType": "uint256",
          "name": "tokenId",
          "type": "uint256"
        },
        {
          "internalType": "uint256[]",
          "name": "attributeIds",
          "type": "uint256[]"
        },
        {
          "internalType": "uint256[]",
          "name": "values",
          "type": "uint256[]"
        }
      ],
      "name": "batchSetAttribute",
      "outputs": [],
      "stateMutability": "nonpayable",
      "type": "function"
    },
    {
      "inputs": [
        {
          "internalType": "uint256",
          "name": "tokenId",
          "type": "uint256"
        },
        {
          "internalType": "uint256[]",
          "name": "attributeIds",
          "type": "uint256[]"
        },
        {
          "internalType": "string[]",
          "name": "names",
          "type": "string[]"
        }
      ],
      "name": "batchSetAttributeName",
      "outputs": [],
      "stateMutability": "nonpayable",
      "type": "function"
    },
    {
      "inputs": [
        {
          "internalType": "uint256[]",
          "name": "tokenIds",
          "type": "uint256[]"
        },
        {
          "internalType": "uint256[]",
          "name": "attributeIds",
          "type": "uint256[]"
        },
        {
          "internalType": "string[]",
          "name": "names",
          "type": "string[]"
        }
      ],
      "name": "batchSetAttributeNames",
      "outputs": [],
      "stateMutability": "nonpayable",
      "type": "function"
    },
    {
      "inputs": [
        {
          "internalType": "uint256[]",
          "name": "tokenIds",
          "type": "uint256[]"
        }
      ],
      "name": "batchTokenURI",
      "outputs": [
        {
          "internalType": "string[]",
          "name": "",
          "type": "string[]"
        }
      ],
      "stateMutability": "view",
      "type": "function"
    },
    {
      "inputs": [
        {
          "internalType": "uint256[]",
          "name": "tokenIds",
          "type": "uint256[]"
        }
      ],
      "name": "batchUri",
      "outputs": [
        {
          "internalType": "string[]",
          "name": "",
          "type": "string[]"
        }
      ],
      "stateMutability": "view",
      "type": "function"
    },
    {
      "inputs": [],
      "name": "bridgeContract",
      "outputs": [
        {
          "internalType": "address",
          "name": "",
          "type": "address"
        }
      ],
      "stateMutability": "view",
      "type": "function"
    },
    {
      "inputs": [
        {
          "internalType": "uint256",
          "name": "id",
          "type": "uint256"
        },
        {
          "internalType": "uint256",
          "name": "amount",
          "type": "uint256"
        }
      ],
      "name": "bridgeExtraData",
      "outputs": [
        {
          "internalType": "bytes",
          "name": "",
          "type": "bytes"
        }
      ],
      "stateMutability": "view",
      "type": "function"
    },
    {
      "inputs": [
        {
          "internalType": "address",
          "name": "account",
          "type": "address"
        },
        {
          "internalType": "uint256",
          "name": "id",
          "type": "uint256"
        },
        {
          "internalType": "uint256",
          "name": "amount",
          "type": "uint256"
        }
      ],
      "name": "burn",
      "outputs": [],
      "stateMutability": "nonpayable",
      "type": "function"
    },
    {
      "inputs": [
        {
          "internalType": "address",
          "name": "from",
          "type": "address"
        },
        {
          "internalType": "uint256[]",
          "name": "ids",
          "type": "uint256[]"
        },
        {
          "internalType": "uint256[]",
          "name": "amounts",
          "type": "uint256[]"
        }
      ],
      "name": "burnBatch",
      "outputs": [],
      "stateMutability": "nonpayable",
      "type": "function"
    },
    {
      "inputs": [
        {
          "internalType": "uint256",
          "name": "id",
          "type": "uint256"
        }
      ],
      "name": "exists",
      "outputs": [
        {
          "internalType": "bool",
          "name": "",
          "type": "bool"
        }
      ],
      "stateMutability": "view",
      "type": "function"
    },
    {
      "inputs": [
        {
          "internalType": "uint256",
          "name": "tokenId",
          "type": "uint256"
        },
        {
          "internalType": "uint256",
          "name": "attributeId",
          "type": "uint256"
        }
      ],
      "name": "getAttribute",
      "outputs": [
        {
          "internalType": "uint256",
          "name": "",
          "type": "uint256"
        }
      ],
      "stateMutability": "view",
      "type": "function"
    },
    {
      "inputs": [],
      "name": "getBlacklisted",
      "outputs": [
        {
          "internalType": "address[]",
          "name": "",
          "type": "address[]"
        }
      ],
      "stateMutability": "view",
      "type": "function"
    },
    {
      "inputs": [
        {
          "internalType": "bytes32",
          "name": "role",
          "type": "bytes32"
        }
      ],
      "name": "getRoleAdmin",
      "outputs": [
        {
          "internalType": "bytes32",
          "name": "",
          "type": "bytes32"
        }
      ],
      "stateMutability": "view",
      "type": "function"
    },
    {
      "inputs": [
        {
          "internalType": "bytes32",
          "name": "role",
          "type": "bytes32"
        },
        {
          "internalType": "uint256",
          "name": "index",
          "type": "uint256"
        }
      ],
      "name": "getRoleMember",
      "outputs": [
        {
          "internalType": "address",
          "name": "",
          "type": "address"
        }
      ],
      "stateMutability": "view",
      "type": "function"
    },
    {
      "inputs": [
        {
          "internalType": "bytes32",
          "name": "role",
          "type": "bytes32"
        }
      ],
      "name": "getRoleMemberCount",
      "outputs": [
        {
          "internalType": "uint256",
          "name": "",
          "type": "uint256"
        }
      ],
      "stateMutability": "view",
      "type": "function"
    },
    {
      "inputs": [
        {
          "internalType": "bytes32",
          "name": "role",
          "type": "bytes32"
        },
        {
          "internalType": "address",
          "name": "account",
          "type": "address"
        }
      ],
      "name": "grantRole",
      "outputs": [],
      "stateMutability": "nonpayable",
      "type": "function"
    },
    {
      "inputs": [
        {
          "internalType": "bytes32",
          "name": "role",
          "type": "bytes32"
        },
        {
          "internalType": "address",
          "name": "account",
          "type": "address"
        }
      ],
      "name": "hasRole",
      "outputs": [
        {
          "internalType": "bool",
          "name": "",
          "type": "bool"
        }
      ],
      "stateMutability": "view",
      "type": "function"
    },
    {
      "inputs": [],
      "name": "imageBaseURI",
      "outputs": [
        {
          "internalType": "string",
          "name": "",
          "type": "string"
        }
      ],
      "stateMutability": "view",
      "type": "function"
    },
    {
      "inputs": [],
      "name": "initialize",
      "outputs": [],
      "stateMutability": "nonpayable",
      "type": "function"
    },
    {
      "inputs": [
        {
          "internalType": "address",
          "name": "account",
          "type": "address"
        },
        {
          "internalType": "address",
          "name": "operator",
          "type": "address"
        }
      ],
      "name": "isApprovedForAll",
      "outputs": [
        {
          "internalType": "bool",
          "name": "",
          "type": "bool"
        }
      ],
      "stateMutability": "view",
      "type": "function"
    },
    {
      "inputs": [
        {
          "internalType": "address",
          "name": "user",
          "type": "address"
        }
      ],
      "name": "isBlacklisted",
      "outputs": [
        {
          "internalType": "bool",
          "name": "",
          "type": "bool"
        }
      ],
      "stateMutability": "view",
      "type": "function"
    },
    {
      "inputs": [
        {
          "internalType": "uint256",
          "name": "tokenId",
          "type": "uint256"
        }
      ],
      "name": "isSoulbound",
      "outputs": [
        {
          "internalType": "bool",
          "name": "",
          "type": "bool"
        }
      ],
      "stateMutability": "view",
      "type": "function"
    },
    {
      "inputs": [
        {
          "internalType": "address",
          "name": "account",
          "type": "address"
        },
        {
          "internalType": "uint256",
          "name": "id",
          "type": "uint256"
        },
        {
          "internalType": "uint256",
          "name": "amount",
          "type": "uint256"
        },
        {
          "internalType": "bytes",
          "name": "data",
          "type": "bytes"
        }
      ],
      "name": "mint",
      "outputs": [],
      "stateMutability": "nonpayable",
      "type": "function"
    },
    {
      "inputs": [
        {
          "internalType": "address",
          "name": "to",
          "type": "address"
        },
        {
          "internalType": "uint256[]",
          "name": "ids",
          "type": "uint256[]"
        },
        {
          "internalType": "uint256[]",
          "name": "amounts",
          "type": "uint256[]"
        },
        {
          "internalType": "bytes",
          "name": "data",
          "type": "bytes"
        }
      ],
      "name": "mintBatch",
      "outputs": [],
      "stateMutability": "nonpayable",
      "type": "function"
    },
    {
      "inputs": [
        {
          "internalType": "uint256",
          "name": "id",
          "type": "uint256"
        },
        {
          "internalType": "address[]",
          "name": "to",
          "type": "address[]"
        },
        {
          "internalType": "uint256[]",
          "name": "amounts",
          "type": "uint256[]"
        }
      ],
      "name": "mintBatchOf",
      "outputs": [],
      "stateMutability": "nonpayable",
      "type": "function"
    },
    {
      "inputs": [],
      "name": "name",
      "outputs": [
        {
          "internalType": "string",
          "name": "",
          "type": "string"
        }
      ],
      "stateMutability": "view",
      "type": "function"
    },
    {
      "inputs": [],
      "name": "pause",
      "outputs": [],
      "stateMutability": "nonpayable",
      "type": "function"
    },
    {
      "inputs": [],
      "name": "paused",
      "outputs": [
        {
          "internalType": "bool",
          "name": "",
          "type": "bool"
        }
      ],
      "stateMutability": "view",
      "type": "function"
    },
    {
      "inputs": [
        {
          "internalType": "bytes32",
          "name": "role",
          "type": "bytes32"
        },
        {
          "internalType": "address",
          "name": "account",
          "type": "address"
        }
      ],
      "name": "renounceRole",
      "outputs": [],
      "stateMutability": "nonpayable",
      "type": "function"
    },
    {
      "inputs": [
        {
          "internalType": "bytes32",
          "name": "role",
          "type": "bytes32"
        },
        {
          "internalType": "address",
          "name": "account",
          "type": "address"
        }
      ],
      "name": "revokeRole",
      "outputs": [],
      "stateMutability": "nonpayable",
      "type": "function"
    },
    {
      "inputs": [
        {
          "internalType": "address",
          "name": "from",
          "type": "address"
        },
        {
          "internalType": "address",
          "name": "to",
          "type": "address"
        },
        {
          "internalType": "uint256[]",
          "name": "ids",
          "type": "uint256[]"
        },
        {
          "internalType": "uint256[]",
          "name": "amounts",
          "type": "uint256[]"
        },
        {
          "internalType": "bytes",
          "name": "data",
          "type": "bytes"
        }
      ],
      "name": "safeBatchTransferFrom",
      "outputs": [],
      "stateMutability": "nonpayable",
      "type": "function"
    },
    {
      "inputs": [
        {
          "internalType": "address",
          "name": "from",
          "type": "address"
        },
        {
          "internalType": "address",
          "name": "to",
          "type": "address"
        },
        {
          "internalType": "uint256",
          "name": "id",
          "type": "uint256"
        },
        {
          "internalType": "uint256",
          "name": "amount",
          "type": "uint256"
        },
        {
          "internalType": "bytes",
          "name": "data",
          "type": "bytes"
        }
      ],
      "name": "safeTransferFrom",
      "outputs": [],
      "stateMutability": "nonpayable",
      "type": "function"
    },
    {
      "inputs": [
        {
          "internalType": "address",
          "name": "operator",
          "type": "address"
        },
        {
          "internalType": "bool",
          "name": "approved",
          "type": "bool"
        }
      ],
      "name": "setApprovalForAll",
      "outputs": [],
      "stateMutability": "nonpayable",
      "type": "function"
    },
    {
      "inputs": [
        {
          "internalType": "uint256",
          "name": "tokenId",
          "type": "uint256"
        },
        {
          "internalType": "uint256",
          "name": "attributeId",
          "type": "uint256"
        },
        {
          "internalType": "uint256",
          "name": "value",
          "type": "uint256"
        }
      ],
      "name": "setAttribute",
      "outputs": [],
      "stateMutability": "nonpayable",
      "type": "function"
    },
    {
      "inputs": [
        {
          "internalType": "uint256",
          "name": "tokenId",
          "type": "uint256"
        },
        {
          "internalType": "uint256",
          "name": "attributeId",
          "type": "uint256"
        },
        {
          "internalType": "string",
          "name": "name",
          "type": "string"
        }
      ],
      "name": "setAttributeName",
      "outputs": [],
      "stateMutability": "nonpayable",
      "type": "function"
    },
    {
      "inputs": [
        {
          "internalType": "address",
          "name": "_bridgeContract",
          "type": "address"
        }
      ],
      "name": "setBridgeContract",
      "outputs": [],
      "stateMutability": "nonpayable",
      "type": "function"
    },
    {
      "inputs": [
        {
          "internalType": "uint256",
          "name": "tokenId",
          "type": "uint256"
        }
      ],
      "name": "setSoulbound",
      "outputs": [],
      "stateMutability": "nonpayable",
      "type": "function"
    },
    {
      "inputs": [
        {
          "internalType": "bytes4",
          "name": "interfaceId",
          "type": "bytes4"
        }
      ],
      "name": "supportsInterface",
      "outputs": [
        {
          "internalType": "bool",
          "name": "",
          "type": "bool"
        }
      ],
      "stateMutability": "view",
      "type": "function"
    },
    {
      "inputs": [],
      "name": "symbol",
      "outputs": [
        {
          "internalType": "string",
          "name": "",
          "type": "string"
        }
      ],
      "stateMutability": "view",
      "type": "function"
    },
    {
      "inputs": [
        {
          "internalType": "address",
          "name": "owner",
          "type": "address"
        }
      ],
      "name": "tokensOf",
      "outputs": [
        {
          "internalType": "uint256[]",
          "name": "tokenIds",
          "type": "uint256[]"
        },
        {
          "internalType": "uint256[]",
          "name": "balances",
          "type": "uint256[]"
        }
      ],
      "stateMutability": "view",
      "type": "function"
    },
    {
      "inputs": [
        {
          "internalType": "uint256",
          "name": "id",
          "type": "uint256"
        }
      ],
      "name": "totalSupply",
      "outputs": [
        {
          "internalType": "uint256",
          "name": "",
          "type": "uint256"
        }
      ],
      "stateMutability": "view",
      "type": "function"
    },
    {
      "inputs": [],
      "name": "unpause",
      "outputs": [],
      "stateMutability": "nonpayable",
      "type": "function"
    },
    {
      "inputs": [
        {
          "internalType": "uint256",
          "name": "tokenId",
          "type": "uint256"
        }
      ],
      "name": "unsetSoulbound",
      "outputs": [],
      "stateMutability": "nonpayable",
      "type": "function"
    },
    {
      "inputs": [
        {
          "internalType": "uint256",
          "name": "tokenId",
          "type": "uint256"
        }
      ],
      "name": "uri",
      "outputs": [
        {
          "internalType": "string",
          "name": "",
          "type": "string"
        }
      ],
      "stateMutability": "view",
      "type": "function"
    }
  ],
  "bytecode": "0x60806040523480156200001157600080fd5b506200001c62000022565b620000e4565b600054610100900460ff16156200008f5760405162461bcd60e51b815260206004820152602760248201527f496e697469616c697a61626c653a20636f6e747261637420697320696e697469604482015266616c697a696e6760c81b606482015260840160405180910390fd5b60005460ff9081161015620000e2576000805460ff191660ff9081179091556040519081527f7f26b83ff96e1f2b6a682f133852f6798a09c465da95921460cefb38474024989060200160405180910390a15b565b6153b080620000f46000396000f3fe608060405234801561001057600080fd5b50600436106103415760003560e01c80638456cb59116101b8578063bd85b03911610104578063d547741f116100a2578063f5298aca1161007c578063f5298aca14610756578063fb95ac2d14610769578063fd5eea4e1461078b578063fe575a871461079e57600080fd5b8063d547741f146106f4578063e985e9c514610707578063f242432a1461074357600080fd5b8063cd596583116100de578063cd596583146106a3578063ce3675ad146106b7578063d179191a146106cc578063d5391393146106df57600080fd5b8063bd85b0391461066a578063c385ce251461067d578063ca15c8731461069057600080fd5b806396c45e2f11610171578063a217fddf1161014b578063a217fddf14610634578063a22cb4651461063c578063b0fe60d51461064f578063b198ce461461066257600080fd5b806396c45e2f146105f9578063994a95be1461060c578063a17d79ec1461061f57600080fd5b80638456cb591461058557806387be85d31461058d5780639010d07c146105a0578063911ec470146105cb57806391d14854146105de57806395d89b41146105f157600080fd5b80633f4ba83a116102925780636d94f13a116102305780637685945e1161020a5780637685945e1461054f57806377645839146105625780637d7a6d131461056a5780638129fc1c1461057d57600080fd5b80636d94f13a14610507578063731133e91461052757806375b238fc1461053a57600080fd5b806358870da11161026c57806358870da1146104b55780635a3f2672146104c85780635c975abb146104e95780636b20c454146104f457600080fd5b80633f4ba83a1461047a5780634e1273f4146104825780634f558e79146104a257600080fd5b80631f7fdffa116102ff578063248a9ca3116102d9578063248a9ca31461041e5780632eb2c2d6146104415780632f2ff15d1461045457806336568abe1461046757600080fd5b80631f7fdffa146103e1578063208e509f146103f457806321e5548c1461040b57600080fd5b8062fdd58e1461034657806301ffc9a71461036c57806303fe46ab1461038f57806306fdde03146103a45780630b26cf66146103b95780630e89341c146103ce575b600080fd5b610359610354366004613c4c565b6107b1565b6040519081526020015b60405180910390f35b61037f61037a366004613c8c565b61084c565b6040519015158152602001610363565b61035960008051602061535b83398151915281565b6103ac610871565b6040516103639190613cf9565b6103cc6103c7366004613d0c565b610900565b005b6103ac6103dc366004613d27565b61093c565b6103cc6103ef366004613e89565b610aa4565b6103fc610acf565b60405161036393929190613fea565b6103cc610419366004614071565b610c00565b61035961042c366004613d27565b60009081526097602052604090206001015490565b6103cc61044f36600461410a565b610cc6565b6103cc6104623660046141b3565b610d0b565b6103cc6104753660046141b3565b610d35565b6103cc610db3565b61049561049036600461424c565b610dd6565b60405161036391906142af565b61037f6104b0366004613d27565b610eff565b6103cc6104c33660046142c2565b610f12565b6104db6104d6366004613d0c565b610f8f565b604051610363929190614311565b60fb5460ff1661037f565b6103cc61050236600461433f565b611054565b61051a6105153660046143a8565b61107d565b6040516103639190614424565b6103cc610535366004614437565b611088565b61035960008051602061533b83398151915281565b61035961055d36600461448b565b6110ac565b6103ac6110cc565b6103cc6105783660046144ad565b6110da565b6103cc61119e565b6103cc6113a1565b6103cc61059b3660046144e0565b6113c1565b6105b36105ae36600461448b565b611444565b6040516001600160a01b039091168152602001610363565b61037f6105d9366004613d27565b61145c565b61037f6105ec3660046141b3565b611480565b6103ac6114ab565b6103cc610607366004613d27565b6114b9565b61049561061a36600461451f565b6114f6565b61035960008051602061531b83398151915281565b610359600081565b6103cc61064a36600461455b565b6115b9565b61051a61065d3660046143a8565b6115c4565b61049561167c565b610359610678366004613d27565b61171a565b6103cc61068b366004613d27565b611731565b61035961069e366004613d27565b61176d565b6102bd546105b3906001600160a01b031681565b6106bf611784565b6040516103639190614597565b6103cc6106da3660046145aa565b611796565b6103596000805160206152cb83398151915281565b6103cc6107023660046141b3565b611864565b61037f610715366004614695565b6001600160a01b03918216600090815260666020908152604080832093909416825291909152205460ff1690565b6103cc6107513660046146bf565b611889565b6103cc610764366004614723565b6118ce565b6103ac61077736600461448b565b505060408051602081019091526000815290565b6103cc610799366004614756565b6118d9565b61037f6107ac366004613d0c565b611944565b60006001600160a01b0383166108215760405162461bcd60e51b815260206004820152602a60248201527f455243313135353a2061646472657373207a65726f206973206e6f742061207660448201526930b634b21037bbb732b960b11b60648201526084015b60405180910390fd5b5060008181526065602090815260408083206001600160a01b03861684529091529020545b92915050565b600063b0f4708d60e01b6001600160e01b031983161480610846575061084682611952565b61028b805461087f90614782565b80601f01602080910402602001604051908101604052809291908181526020018280546108ab90614782565b80156108f85780601f106108cd576101008083540402835291602001916108f8565b820191906000526020600020905b8154815290600101906020018083116108db57829003601f168201915b505050505081565b60008051602061533b83398151915261091881611977565b506102bd80546001600160a01b0319166001600160a01b0392909216919091179055565b6060600061094c836103e8611981565b9050600061095c846103e9611981565b905060608061096a86611a30565b81519194509250600091506001600160401b0381111561098c5761098c613d40565b6040519080825280602002602001820160405280156109e157816020015b6109ce60405180606001604052806060815260200160608152602001606081525090565b8152602001906001900390816109aa5790505b50905060005b8351811015610a84576040518060600160405280848381518110610a0d57610a0d6147bc565b60200260200101518152602001604051806020016040528060008152508152602001610a51868481518110610a4457610a446147bc565b6020026020010151611c97565b815250828281518110610a6657610a666147bc565b60200260200101819052508080610a7c906147e8565b9150506109e7565b50610a99610a9488878785611d29565b611d75565b979650505050505050565b6000805160206152cb833981519152610abc81611977565b610ac885858585611da6565b5050505050565b6060806060610adf610162611f01565b925082516001600160401b03811115610afa57610afa613d40565b604051908082528060200260200182016040528015610b2d57816020015b6060815260200190600190039081610b185790505b50915082516001600160401b03811115610b4957610b49613d40565b604051908082528060200260200182016040528015610b7c57816020015b6060815260200190600190039081610b675790505b50905060005b8351811015610bfa57610bad848281518110610ba057610ba06147bc565b6020026020010151610f8f565b848381518110610bbf57610bbf6147bc565b60200260200101848481518110610bd857610bd86147bc565b6020026020010182905282905250508080610bf2906147e8565b915050610b82565b50909192565b60008051602061535b833981519152610c1881611977565b60005b86811015610cbc57838382818110610c3557610c356147bc565b9050602002810190610c479190614801565b6101f860008b8b86818110610c5e57610c5e6147bc565b9050602002013581526020019081526020016000206000898986818110610c8757610c876147bc565b9050602002013581526020019081526020016000209182610ca992919061488d565b5080610cb4816147e8565b915050610c1b565b5050505050505050565b6001600160a01b038516331480610ce25750610ce28533610715565b610cfe5760405162461bcd60e51b81526004016108189061494c565b610ac88585858585611f0e565b600082815260976020526040902060010154610d2681611977565b610d3083836120bb565b505050565b6001600160a01b0381163314610da55760405162461bcd60e51b815260206004820152602f60248201527f416363657373436f6e74726f6c3a2063616e206f6e6c792072656e6f756e636560448201526e103937b632b9903337b91039b2b63360891b6064820152608401610818565b610daf82826120dd565b5050565b60008051602061533b833981519152610dcb81611977565b610dd36120ff565b50565b60608151835114610e3b5760405162461bcd60e51b815260206004820152602960248201527f455243313135353a206163636f756e747320616e6420696473206c656e677468604482015268040dad2e6dac2e8c6d60bb1b6064820152608401610818565b600083516001600160401b03811115610e5657610e56613d40565b604051908082528060200260200182016040528015610e7f578160200160208202803683370190505b50905060005b8451811015610ef757610eca858281518110610ea357610ea36147bc565b6020026020010151858381518110610ebd57610ebd6147bc565b60200260200101516107b1565b828281518110610edc57610edc6147bc565b6020908102919091010152610ef0816147e8565b9050610e85565b509392505050565b600080610f0b8361171a565b1192915050565b60008051602061535b833981519152610f2a81611977565b60008481526101f8602090815260408083208684529091529020610f4e838261499a565b50837ffdbb964a9a1d2ac903ed7ebf85795be6728c27e96237552b2805596c759e08818484604051610f81929190614a59565b60405180910390a250505050565b6001600160a01b0381166000908152610164602052604090206060908190610fb690611f01565b915081516001600160401b03811115610fd157610fd1613d40565b604051908082528060200260200182016040528015610ffa578160200160208202803683370190505b50905060005b825181101561104e5761101f84848381518110610ebd57610ebd6147bc565b828281518110611031576110316147bc565b602090810291909101015280611046816147e8565b915050611000565b50915091565b60008051602061533b83398151915261106c81611977565b611077848484612151565b50505050565b6060610846826115c4565b6000805160206152cb8339815191526110a081611977565b610ac8858585856122f0565b60008281526101f7602052604081206110c590836123db565b9392505050565b610228805461087f90614782565b60008051602061535b8339815191526110f281611977565b60005b835181101561116b57611158848281518110611113576111136147bc565b602002602001015184838151811061112d5761112d6147bc565b60200260200101516101f760008981526020019081526020016000206123e79092919063ffffffff16565b5080611163816147e8565b9150506110f5565b50837f383bcccfd5e9b61afe7e6832ca2201fe34d7766a9bbf90fb7152082ddbcd342b8484604051610f81929190614311565b600054610100900460ff16158080156111be5750600054600160ff909116105b806111d85750303b1580156111d8575060005460ff166001145b61123b5760405162461bcd60e51b815260206004820152602e60248201527f496e697469616c697a61626c653a20636f6e747261637420697320616c72656160448201526d191e481a5b9a5d1a585b1a5e995960921b6064820152608401610818565b6000805460ff19166001179055801561125e576000805461ff0019166101001790555b611276604051806020016040528060008152506123f4565b61127e612424565b61128661244d565b61128e612424565b611296612424565b61129e612424565b6112a661247c565b6112c76040518060600160405280603081526020016152eb603091396124db565b6112cf61250f565b61131e6040518060400160405280600e81526020016d436f736d69632042756e646c657360901b8152506040518060400160405280600781526020016642554e444c455360c81b815250612556565b6113296000336120bb565b61134160008051602061533b833981519152336120bb565b6113596000805160206152cb833981519152336120bb565b8015610dd3576000805461ff0019169055604051600181527f7f26b83ff96e1f2b6a682f133852f6798a09c465da95921460cefb38474024989060200160405180910390a150565b60008051602061533b8339815191526113b981611977565b610dd3612598565b6000805160206152cb8339815191526113d981611977565b60005b8351811015610ac8576114328482815181106113fa576113fa6147bc565b602002602001015186858481518110611415576114156147bc565b6020026020010151604051806020016040528060008152506122f0565b8061143c816147e8565b9150506113dc565b600082815260c9602052604081206110c590836125d5565b600881901c600090815261025a6020526040812054600160ff84161b161515610846565b60009182526097602090815260408084206001600160a01b0393909316845291905290205460ff1690565b61028c805461087f90614782565b60008051602061533b8339815191526114d181611977565b600882901c600090815261025a602052604090208054600160ff85161b191690555050565b6060600082516001600160401b0381111561151357611513613d40565b60405190808252806020026020018201604052801561153c578160200160208202803683370190505b50905060005b8351811015610ef75761158a848281518110611560576115606147bc565b60200260200101516101f760008881526020019081526020016000206123db90919063ffffffff16565b82828151811061159c5761159c6147bc565b6020908102919091010152806115b1816147e8565b915050611542565b610daf338383612605565b6060600082516001600160401b038111156115e1576115e1613d40565b60405190808252806020026020018201604052801561161457816020015b60608152602001906001900390816115ff5790505b50905060005b835181101561167557611645848281518110611638576116386147bc565b602002602001015161093c565b828281518110611657576116576147bc565b6020026020010181905250808061166d906147e8565b91505061161a565b5092915050565b6060600061168b61015f6126e5565b90506000816001600160401b038111156116a7576116a7613d40565b6040519080825280602002602001820160405280156116d0578160200160208202803683370190505b50905060005b82811015611675576116ea61015f826126f0565b508282815181106116fd576116fd6147bc565b602090810291909101015280611712816147e8565b9150506116d6565b60008061172961015f8461270e565b949350505050565b60008051602061533b83398151915261174981611977565b600882901c600090815261025a602052604090208054600160ff85161b1790555050565b600081815260c9602052604081206108469061271d565b6060611791610193611f01565b905090565b60008051602061535b8339815191526117ae81611977565b60005b8351811015611831578281815181106117cc576117cc6147bc565b60200260200101516101f8600087815260200190815260200160002060008684815181106117fc576117fc6147bc565b60200260200101518152602001908152602001600020908161181e919061499a565b5080611829816147e8565b9150506117b1565b50837f9d69ed3cc764cf4f579cfc28312dded7bb202f17cc77aa4d0eb3f8bbaecd88e38484604051610f81929190614a72565b60008281526097602052604090206001015461187f81611977565b610d3083836120dd565b6001600160a01b0385163314806118a557506118a58533610715565b6118c15760405162461bcd60e51b81526004016108189061494c565b610ac88585858585612727565b610d30838383612863565b60008051602061535b8339815191526118f181611977565b60008481526101f76020526040902061190b9084846123e7565b50604080518481526020810184905285917f5cb4c5f05283d5a84da3f9f1b0fe8b00d7ea8e1fb833812b52114799bdf1acc79101610f81565b6000610846610193836128a6565b60006001600160e01b03198216635a05180f60e01b14806108465750610846826128c8565b610dd381336128ed565b60008281526101f86020908152604080832084845290915290208054606091906119aa90614782565b80601f01602080910402602001604051908101604052809291908181526020018280546119d690614782565b8015611a235780601f106119f857610100808354040283529160200191611a23565b820191906000526020600020905b815481529060010190602001808311611a0657829003601f168201915b5050505050905092915050565b60608060606000611a536101f760008781526020019081526020016000206126e5565b90506000816001600160401b03811115611a6f57611a6f613d40565b604051908082528060200260200182016040528015611a98578160200160208202803683370190505b5090506000826001600160401b03811115611ab557611ab5613d40565b604051908082528060200260200182016040528015611ade578160200160208202803683370190505b5090506000836001600160401b03811115611afb57611afb613d40565b604051908082528060200260200182016040528015611b2e57816020015b6060815260200190600190039081611b195790505b50905060005b84811015611c885760008981526101f760205260409020611b5590826126f0565b858381518110611b6757611b676147bc565b60200260200101858481518110611b8057611b806147bc565b60200260200101828152508281525050506101f860008a81526020019081526020016000206000858381518110611bb957611bb96147bc565b602002602001015181526020019081526020016000208054611bda90614782565b80601f0160208091040260200160405190810160405280929190818152602001828054611c0690614782565b8015611c535780601f10611c2857610100808354040283529160200191611c53565b820191906000526020600020905b815481529060010190602001808311611c3657829003601f168201915b5050505050828281518110611c6a57611c6a6147bc565b60200260200101819052508080611c80906147e8565b915050611b34565b50919790965090945092505050565b60606000611ca483612946565b60010190506000816001600160401b03811115611cc357611cc3613d40565b6040519080825280601f01601f191660200182016040528015611ced576020820181803683370190505b5090508181016020015b600019016f181899199a1a9b1b9c1cb0b131b232b360811b600a86061a8153600a8504945084611cf757509392505050565b60606000611d38868686612a1e565b90506000611d4584612a88565b90508181604051602001611d5a929190614ab3565b60405160208183030381529060405292505050949350505050565b6060611d8082612c13565b604051602001611d909190614b00565b6040516020818303038152906040529050919050565b6001600160a01b038416611dcc5760405162461bcd60e51b815260040161081890614b45565b8151835114611ded5760405162461bcd60e51b815260040161081890614b86565b33611dfd81600087878787612d65565b60005b8451811015611e9957838181518110611e1b57611e1b6147bc565b602002602001015160656000878481518110611e3957611e396147bc565b602002602001015181526020019081526020016000206000886001600160a01b03166001600160a01b031681526020019081526020016000206000828254611e819190614bce565b90915550819050611e91816147e8565b915050611e00565b50846001600160a01b031660006001600160a01b0316826001600160a01b03167f4a39dc06d4c0dbc64b70af90fd698a233a518aa5d07e595d983b8c0526c8f7fb8787604051611eea929190614311565b60405180910390a4610ac881600087878787612e6d565b606060006110c583612fc8565b8151835114611f2f5760405162461bcd60e51b815260040161081890614b86565b6001600160a01b038416611f555760405162461bcd60e51b815260040161081890614be1565b33611f64818787878787612d65565b60005b845181101561204d576000858281518110611f8457611f846147bc565b602002602001015190506000858381518110611fa257611fa26147bc565b60209081029190910181015160008481526065835260408082206001600160a01b038e168352909352919091205490915081811015611ff35760405162461bcd60e51b815260040161081890614c26565b60008381526065602090815260408083206001600160a01b038e8116855292528083208585039055908b16825281208054849290612032908490614bce565b9250508190555050505080612046906147e8565b9050611f67565b50846001600160a01b0316866001600160a01b0316826001600160a01b03167f4a39dc06d4c0dbc64b70af90fd698a233a518aa5d07e595d983b8c0526c8f7fb878760405161209d929190614311565b60405180910390a46120b3818787878787612e6d565b505050505050565b6120c58282613024565b600082815260c960205260409020610d3090826130aa565b6120e782826130bf565b600082815260c960205260409020610d309082613126565b61210761313b565b60fb805460ff191690557f5db9ee0a495bf2e6ff9c91a7834c1ba4fdd244a5e8aa4e537bd38aeae4b073aa335b6040516001600160a01b03909116815260200160405180910390a1565b6001600160a01b0383166121775760405162461bcd60e51b815260040161081890614c70565b80518251146121985760405162461bcd60e51b815260040161081890614b86565b60003390506121bb81856000868660405180602001604052806000815250612d65565b60005b83518110156122835760008482815181106121db576121db6147bc565b6020026020010151905060008483815181106121f9576121f96147bc565b60209081029190910181015160008481526065835260408082206001600160a01b038c16835290935291909120549091508181101561224a5760405162461bcd60e51b815260040161081890614cb3565b60009283526065602090815260408085206001600160a01b038b168652909152909220910390558061227b816147e8565b9150506121be565b5060006001600160a01b0316846001600160a01b0316826001600160a01b03167f4a39dc06d4c0dbc64b70af90fd698a233a518aa5d07e595d983b8c0526c8f7fb86866040516122d4929190614311565b60405180910390a4604080516020810190915260009052611077565b6001600160a01b0384166123165760405162461bcd60e51b815260040161081890614b45565b33600061232285613184565b9050600061232f85613184565b905061234083600089858589612d65565b60008681526065602090815260408083206001600160a01b038b16845290915281208054879290612372908490614bce565b909155505060408051878152602081018790526001600160a01b03808a1692600092918716917fc3d58168c5ae7397731d063d5bbf3d657854427343f4c083240f7aacaa2d0f62910160405180910390a46123d2836000898989896131cf565b50505050505050565b60006110c5838361328a565b60006117298484846132fa565b600054610100900460ff1661241b5760405162461bcd60e51b815260040161081890614cf7565b610dd381613317565b600054610100900460ff1661244b5760405162461bcd60e51b815260040161081890614cf7565b565b600054610100900460ff166124745760405162461bcd60e51b815260040161081890614cf7565b61244b613347565b600054610100900460ff166124a35760405162461bcd60e51b815260040161081890614cf7565b6124ab612424565b6124c360008051602061533b833981519152336120bb565b61244b60008051602061531b833981519152336120bb565b600054610100900460ff166125025760405162461bcd60e51b815260040161081890614cf7565b610228610daf828261499a565b600054610100900460ff166125365760405162461bcd60e51b815260040161081890614cf7565b61253e612424565b61244b60008051602061535b833981519152336120bb565b600054610100900460ff1661257d5760405162461bcd60e51b815260040161081890614cf7565b61028b61258a838261499a565b5061028c610d30828261499a565b6125a061337a565b60fb805460ff191660011790557f62e78cea01bee320cd4e420270b5ea74000d11b0c9f74754ebdbfc544b05a2586121343390565b60006110c583836133c0565b600881901c600090815260208390526040902054600160ff83161b16151592915050565b816001600160a01b0316836001600160a01b0316036126785760405162461bcd60e51b815260206004820152602960248201527f455243313135353a2073657474696e6720617070726f76616c20737461747573604482015268103337b91039b2b63360b91b6064820152608401610818565b6001600160a01b03838116600081815260666020908152604080832094871680845294825291829020805460ff191686151590811790915591519182527f17307eab39ab6107e8899845ad3d59bd9653f200f220920489ca2b5937696c31910160405180910390a3505050565b6000610846826133ea565b60008080806126ff86866133f5565b909450925050505b9250929050565b60008080806126ff8686613420565b6000610846825490565b6001600160a01b03841661274d5760405162461bcd60e51b815260040161081890614be1565b33600061275985613184565b9050600061276685613184565b9050612776838989858589612d65565b60008681526065602090815260408083206001600160a01b038c168452909152902054858110156127b95760405162461bcd60e51b815260040161081890614c26565b60008781526065602090815260408083206001600160a01b038d8116855292528083208985039055908a168252812080548892906127f8908490614bce565b909155505060408051888152602081018890526001600160a01b03808b16928c821692918816917fc3d58168c5ae7397731d063d5bbf3d657854427343f4c083240f7aacaa2d0f62910160405180910390a4612858848a8a8a8a8a6131cf565b505050505050505050565b6001600160a01b03831633148061287f575061287f8333610715565b61289b5760405162461bcd60e51b81526004016108189061494c565b610d3083838361345a565b6001600160a01b038116600090815260018301602052604081205415156110c5565b60006001600160e01b03198216637965db0b60e01b1480610846575061084682613576565b6128f78282611480565b610daf57612904816135c6565b61290f8360206135d8565b604051602001612920929190614d42565b60408051601f198184030181529082905262461bcd60e51b825261081891600401613cf9565b60008072184f03e93ff9f4daa797ed6e38ed64bf6a1f0160401b83106129855772184f03e93ff9f4daa797ed6e38ed64bf6a1f0160401b830492506040015b6d04ee2d6d415b85acef810000000083106129b1576d04ee2d6d415b85acef8100000000830492506020015b662386f26fc1000083106129cf57662386f26fc10000830492506010015b6305f5e10083106129e7576305f5e100830492506008015b61271083106129fb57612710830492506004015b60648310612a0d576064830492506002015b600a83106108465760010192915050565b60606000610228612a2e86611c97565b604051602001612a3f929190614db7565b604051602081830303815290604052905083612a5a86611c97565b8483604051602001612a6f9493929190614e3e565b6040516020818303038152906040529150509392505050565b60408051602081019091526000808252606091905b8351811015612bea57600060018551612ab69190614f2b565b8214612adb57604051806040016040528060018152602001600b60fa1b815250612aec565b604051806020016040528060008152505b90506000858381518110612b0257612b026147bc565b60200260200101516020015151600014612b5857858381518110612b2857612b286147bc565b602002602001015160200151604051602001612b449190614f3e565b604051602081830303815290604052612b69565b604051806020016040528060008152505b9050600084878581518110612b8057612b806147bc565b60200260200101516000015183898781518110612b9f57612b9f6147bc565b60200260200101516040015186604051602001612bc0959493929190614f83565b60405160208183030381529060405290508094505050508080612be2906147e8565b915050612a9d565b5080604051602001612bfc9190615040565b604051602081830303815290604052915050919050565b60608151600003612c3257505060408051602081019091526000815290565b600060405180606001604052806040815260200161528b6040913990506000600384516002612c619190614bce565b612c6b9190615082565b612c769060046150a4565b6001600160401b03811115612c8d57612c8d613d40565b6040519080825280601f01601f191660200182016040528015612cb7576020820181803683370190505b509050600182016020820185865187015b80821015612d23576003820191508151603f8160121c168501518453600184019350603f81600c1c168501518453600184019350603f8160061c168501518453600184019350603f8116850151845350600183019250612cc8565b5050600386510660018114612d3f5760028114612d5257612d5a565b603d6001830353603d6002830353612d5a565b603d60018303535b509195945050505050565b612d6d61337a565b82858560005b8351811015612e5e57612daa848281518110612d9157612d916147bc565b602002602001015161025a6125e190919063ffffffff16565b1580612dbd57506001600160a01b038316155b80612dcf57506001600160a01b038216155b80612ded5750612ded60008051602061531b83398151915284611480565b80612e0b5750612e0b60008051602061531b83398151915283611480565b612e4c5760405162461bcd60e51b8152602060048201526012602482015271151bdad95b881a5cc81cdbdd5b189bdd5b9960721b6044820152606401610818565b80612e56816147e8565b915050612d73565b50612858898989898989613773565b6001600160a01b0384163b156120b35760405163bc197c8160e01b81526001600160a01b0385169063bc197c8190612eb190899089908890889088906004016150bb565b6020604051808303816000875af1925050508015612eec575060408051601f3d908101601f19168201909252612ee991810190615119565b60015b612f9857612ef8615136565b806308c379a003612f315750612f0c615152565b80612f175750612f33565b8060405162461bcd60e51b81526004016108189190613cf9565b505b60405162461bcd60e51b815260206004820152603460248201527f455243313135353a207472616e7366657220746f206e6f6e2d455243313135356044820152732932b1b2b4bb32b91034b6b83632b6b2b73a32b960611b6064820152608401610818565b6001600160e01b0319811663bc197c8160e01b146123d25760405162461bcd60e51b8152600401610818906151db565b60608160000180548060200260200160405190810160405280929190818152602001828054801561301857602002820191906000526020600020905b815481526020019060010190808311613004575b50505050509050919050565b61302e8282611480565b610daf5760008281526097602090815260408083206001600160a01b03851684529091529020805460ff191660011790556130663390565b6001600160a01b0316816001600160a01b0316837f2f8788117e7eff1d82e926ec794901d17c78024a50270940304540a733656f0d60405160405180910390a45050565b60006110c5836001600160a01b0384166139c6565b6130c98282611480565b15610daf5760008281526097602090815260408083206001600160a01b0385168085529252808320805460ff1916905551339285917ff6391f5c32d9c69d2a47ea670b442974b53935d1edc7fd64eb21e047a839171b9190a45050565b60006110c5836001600160a01b038416613a15565b60fb5460ff1661244b5760405162461bcd60e51b815260206004820152601460248201527314185d5cd8589b194e881b9bdd081c185d5cd95960621b6044820152606401610818565b604080516001808252818301909252606091600091906020808301908036833701905050905082816000815181106131be576131be6147bc565b602090810291909101015292915050565b6001600160a01b0384163b156120b35760405163f23a6e6160e01b81526001600160a01b0385169063f23a6e61906132139089908990889088908890600401615223565b6020604051808303816000875af192505050801561324e575060408051601f3d908101601f1916820190925261324b91810190615119565b60015b61325a57612ef8615136565b6001600160e01b0319811663f23a6e6160e01b146123d25760405162461bcd60e51b8152600401610818906151db565b6000818152600283016020526040812054801515806132ae57506132ae8484613b08565b6110c55760405162461bcd60e51b815260206004820152601e60248201527f456e756d657261626c654d61703a206e6f6e6578697374656e74206b657900006044820152606401610818565b600082815260028401602052604081208290556117298484613b14565b600054610100900460ff1661333e5760405162461bcd60e51b815260040161081890614cf7565b610dd381613b20565b600054610100900460ff1661336e5760405162461bcd60e51b815260040161081890614cf7565b60fb805460ff19169055565b60fb5460ff161561244b5760405162461bcd60e51b815260206004820152601060248201526f14185d5cd8589b194e881c185d5cd95960821b6044820152606401610818565b60008260000182815481106133d7576133d76147bc565b9060005260206000200154905092915050565b60006108468261271d565b6000808061340385856125d5565b600081815260029690960160205260409095205494959350505050565b600081815260028301602052604081205481908061344f576134428585613b08565b9250600091506127079050565b600192509050612707565b6001600160a01b0383166134805760405162461bcd60e51b815260040161081890614c70565b33600061348c84613184565b9050600061349984613184565b90506134b983876000858560405180602001604052806000815250612d65565b60008581526065602090815260408083206001600160a01b038a168452909152902054848110156134fc5760405162461bcd60e51b815260040161081890614cb3565b60008681526065602090815260408083206001600160a01b038b81168086529184528285208a8703905582518b81529384018a90529092908816917fc3d58168c5ae7397731d063d5bbf3d657854427343f4c083240f7aacaa2d0f62910160405180910390a46040805160208101909152600090526123d2565b60006001600160e01b03198216636cdb3d1360e11b14806135a757506001600160e01b031982166303a24d0760e21b145b8061084657506301ffc9a760e01b6001600160e01b0319831614610846565b60606108466001600160a01b03831660145b606060006135e78360026150a4565b6135f2906002614bce565b6001600160401b0381111561360957613609613d40565b6040519080825280601f01601f191660200182016040528015613633576020820181803683370190505b509050600360fc1b8160008151811061364e5761364e6147bc565b60200101906001600160f81b031916908160001a905350600f60fb1b8160018151811061367d5761367d6147bc565b60200101906001600160f81b031916908160001a90535060006136a18460026150a4565b6136ac906001614bce565b90505b6001811115613724576f181899199a1a9b1b9c1cb0b131b232b360811b85600f16601081106136e0576136e06147bc565b1a60f81b8282815181106136f6576136f66147bc565b60200101906001600160f81b031916908160001a90535060049490941c9361371d8161525d565b90506136af565b5083156110c55760405162461bcd60e51b815260206004820181905260248201527f537472696e67733a20686578206c656e67746820696e73756666696369656e746044820152606401610818565b6001600160a01b0385166138245760005b83518110156138225760006137bd8583815181106137a4576137a46147bc565b602002602001015161015f61270e90919063ffffffff16565b90508091505061380f8583815181106137d8576137d86147bc565b60200260200101518584815181106137f2576137f26147bc565b6020026020010151836138059190614bce565b61015f91906123e7565b50508061381b906147e8565b9050613784565b505b6001600160a01b0384166139375760005b8351811015613935576000848281518110613852576138526147bc565b602002602001015190506000848381518110613870576138706147bc565b6020026020010151905060006138918361015f6123db90919063ffffffff16565b9050818110156138f45760405162461bcd60e51b815260206004820152602860248201527f455243313135353a206275726e20616d6f756e74206578636565647320746f74604482015267616c537570706c7960c01b6064820152608401610818565b8181036000036139105761390a61015f84613b2c565b50613921565b61391f61015f848484036123e7565b505b5050508061392e906147e8565b9050613835565b505b60005b83518110156139b35761398086858381518110613959576139596147bc565b6020026020010151858481518110613973576139736147bc565b6020026020010151613b38565b6139a385858381518110613996576139966147bc565b6020026020010151613b8d565b6139ac816147e8565b905061393a565b506139bd85613bcf565b6120b384613bcf565b6000818152600183016020526040812054613a0d57508154600181810184556000848152602080822090930184905584548482528286019093526040902091909155610846565b506000610846565b60008181526001830160205260408120548015613afe576000613a39600183614f2b565b8554909150600090613a4d90600190614f2b565b9050818114613ab2576000866000018281548110613a6d57613a6d6147bc565b9060005260206000200154905080876000018481548110613a9057613a906147bc565b6000918252602080832090910192909255918252600188019052604090208390555b8554869080613ac357613ac3615274565b600190038181906000526020600020016000905590558560010160008681526020019081526020016000206000905560019350505050610846565b6000915050610846565b60006110c58383613bf3565b60006110c583836139c6565b6067610daf828261499a565b60006110c58383613c0b565b6001600160a01b038316613b4b57505050565b6000613b5784846107b1565b9050613b638282614f2b565b600003611077576001600160a01b038416600090815261016460205260409020610ac89084613c24565b6001600160a01b038216613b9f575050565b6001600160a01b038216600090815261016460205260409020613bc29082613b14565b50610d30610162836130aa565b6060613bda82610f8f565b508051909150600003610daf57610d3061016283613126565b600081815260018301602052604081205415156110c5565b600081815260028301602052604081208190556110c583835b60006110c58383613a15565b80356001600160a01b0381168114613c4757600080fd5b919050565b60008060408385031215613c5f57600080fd5b613c6883613c30565b946020939093013593505050565b6001600160e01b031981168114610dd357600080fd5b600060208284031215613c9e57600080fd5b81356110c581613c76565b60005b83811015613cc4578181015183820152602001613cac565b50506000910152565b60008151808452613ce5816020860160208601613ca9565b601f01601f19169290920160200192915050565b6020815260006110c56020830184613ccd565b600060208284031215613d1e57600080fd5b6110c582613c30565b600060208284031215613d3957600080fd5b5035919050565b634e487b7160e01b600052604160045260246000fd5b601f8201601f191681016001600160401b0381118282101715613d7b57613d7b613d40565b6040525050565b60006001600160401b03821115613d9b57613d9b613d40565b5060051b60200190565b600082601f830112613db657600080fd5b81356020613dc382613d82565b604051613dd08282613d56565b83815260059390931b8501820192828101915086841115613df057600080fd5b8286015b84811015613e0b5780358352918301918301613df4565b509695505050505050565b600082601f830112613e2757600080fd5b81356001600160401b03811115613e4057613e40613d40565b604051613e57601f8301601f191660200182613d56565b818152846020838601011115613e6c57600080fd5b816020850160208301376000918101602001919091529392505050565b60008060008060808587031215613e9f57600080fd5b613ea885613c30565b935060208501356001600160401b0380821115613ec457600080fd5b613ed088838901613da5565b94506040870135915080821115613ee657600080fd5b613ef288838901613da5565b93506060870135915080821115613f0857600080fd5b50613f1587828801613e16565b91505092959194509250565b600081518084526020808501945080840160005b83811015613f5a5781516001600160a01b031687529582019590820190600101613f35565b509495945050505050565b600081518084526020808501945080840160005b83811015613f5a57815187529582019590820190600101613f79565b600081518084526020808501808196508360051b8101915082860160005b85811015613fdd578284038952613fcb848351613f65565b98850198935090840190600101613fb3565b5091979650505050505050565b606081526000613ffd6060830186613f21565b828103602084015261400f8186613f95565b905082810360408401526140238185613f95565b9695505050505050565b60008083601f84011261403f57600080fd5b5081356001600160401b0381111561405657600080fd5b6020830191508360208260051b850101111561270757600080fd5b6000806000806000806060878903121561408a57600080fd5b86356001600160401b03808211156140a157600080fd5b6140ad8a838b0161402d565b909850965060208901359150808211156140c657600080fd5b6140d28a838b0161402d565b909650945060408901359150808211156140eb57600080fd5b506140f889828a0161402d565b979a9699509497509295939492505050565b600080600080600060a0868803121561412257600080fd5b61412b86613c30565b945061413960208701613c30565b935060408601356001600160401b038082111561415557600080fd5b61416189838a01613da5565b9450606088013591508082111561417757600080fd5b61418389838a01613da5565b9350608088013591508082111561419957600080fd5b506141a688828901613e16565b9150509295509295909350565b600080604083850312156141c657600080fd5b823591506141d660208401613c30565b90509250929050565b600082601f8301126141f057600080fd5b813560206141fd82613d82565b60405161420a8282613d56565b83815260059390931b850182019282810191508684111561422a57600080fd5b8286015b84811015613e0b5761423f81613c30565b835291830191830161422e565b6000806040838503121561425f57600080fd5b82356001600160401b038082111561427657600080fd5b614282868387016141df565b9350602085013591508082111561429857600080fd5b506142a585828601613da5565b9150509250929050565b6020815260006110c56020830184613f65565b6000806000606084860312156142d757600080fd5b833592506020840135915060408401356001600160401b038111156142fb57600080fd5b61430786828701613e16565b9150509250925092565b6040815260006143246040830185613f65565b82810360208401526143368185613f65565b95945050505050565b60008060006060848603121561435457600080fd5b61435d84613c30565b925060208401356001600160401b038082111561437957600080fd5b61438587838801613da5565b9350604086013591508082111561439b57600080fd5b5061430786828701613da5565b6000602082840312156143ba57600080fd5b81356001600160401b038111156143d057600080fd5b61172984828501613da5565b600081518084526020808501808196508360051b8101915082860160005b85811015613fdd578284038952614412848351613ccd565b988501989350908401906001016143fa565b6020815260006110c560208301846143dc565b6000806000806080858703121561444d57600080fd5b61445685613c30565b9350602085013592506040850135915060608501356001600160401b0381111561447f57600080fd5b613f1587828801613e16565b6000806040838503121561449e57600080fd5b50508035926020909101359150565b6000806000606084860312156144c257600080fd5b8335925060208401356001600160401b038082111561437957600080fd5b6000806000606084860312156144f557600080fd5b8335925060208401356001600160401b038082111561451357600080fd5b614385878388016141df565b6000806040838503121561453257600080fd5b8235915060208301356001600160401b0381111561454f57600080fd5b6142a585828601613da5565b6000806040838503121561456e57600080fd5b61457783613c30565b91506020830135801515811461458c57600080fd5b809150509250929050565b6020815260006110c56020830184613f21565b6000806000606084860312156145bf57600080fd5b833592506020808501356001600160401b03808211156145de57600080fd5b6145ea88838901613da5565b9450604087013591508082111561460057600080fd5b818701915087601f83011261461457600080fd5b813561461f81613d82565b60405161462c8282613d56565b82815260059290921b840185019185810191508a83111561464c57600080fd5b8585015b83811015614684578035858111156146685760008081fd5b6146768d89838a0101613e16565b845250918601918601614650565b508096505050505050509250925092565b600080604083850312156146a857600080fd5b6146b183613c30565b91506141d660208401613c30565b600080600080600060a086880312156146d757600080fd5b6146e086613c30565b94506146ee60208701613c30565b9350604086013592506060860135915060808601356001600160401b0381111561471757600080fd5b6141a688828901613e16565b60008060006060848603121561473857600080fd5b61474184613c30565b95602085013595506040909401359392505050565b60008060006060848603121561476b57600080fd5b505081359360208301359350604090920135919050565b600181811c9082168061479657607f821691505b6020821081036147b657634e487b7160e01b600052602260045260246000fd5b50919050565b634e487b7160e01b600052603260045260246000fd5b634e487b7160e01b600052601160045260246000fd5b6000600182016147fa576147fa6147d2565b5060010190565b6000808335601e1984360301811261481857600080fd5b8301803591506001600160401b0382111561483257600080fd5b60200191503681900382131561270757600080fd5b601f821115610d3057600081815260208120601f850160051c8101602086101561486e5750805b601f850160051c820191505b818110156120b35782815560010161487a565b6001600160401b038311156148a4576148a4613d40565b6148b8836148b28354614782565b83614847565b6000601f8411600181146148ec57600085156148d45750838201355b600019600387901b1c1916600186901b178355610ac8565b600083815260209020601f19861690835b8281101561491d57868501358255602094850194600190920191016148fd565b508682101561493a5760001960f88860031b161c19848701351681555b505060018560011b0183555050505050565b6020808252602e908201527f455243313135353a2063616c6c6572206973206e6f7420746f6b656e206f776e60408201526d195c881bdc88185c1c1c9bdd995960921b606082015260800190565b81516001600160401b038111156149b3576149b3613d40565b6149c7816149c18454614782565b84614847565b602080601f8311600181146149fc57600084156149e45750858301515b600019600386901b1c1916600185901b1785556120b3565b600085815260208120601f198616915b82811015614a2b57888601518255948401946001909101908401614a0c565b5085821015614a495787850151600019600388901b60f8161c191681555b5050505050600190811b01905550565b8281526040602082015260006117296040830184613ccd565b604081526000614a856040830185613f65565b828103602084015261433681856143dc565b60008151614aa9818560208601613ca9565b9290920192915050565b607b60f81b815260008351614acf816001850160208801613ca9565b835190830190614ae6816001840160208801613ca9565b607d60f81b60019290910191820152600201949350505050565b7f646174613a6170706c69636174696f6e2f6a736f6e3b6261736536342c000000815260008251614b3881601d850160208701613ca9565b91909101601d0192915050565b60208082526021908201527f455243313135353a206d696e7420746f20746865207a65726f206164647265736040820152607360f81b606082015260800190565b60208082526028908201527f455243313135353a2069647320616e6420616d6f756e7473206c656e677468206040820152670dad2e6dac2e8c6d60c31b606082015260800190565b80820180821115610846576108466147d2565b60208082526025908201527f455243313135353a207472616e7366657220746f20746865207a65726f206164604082015264647265737360d81b606082015260800190565b6020808252602a908201527f455243313135353a20696e73756666696369656e742062616c616e636520666f60408201526939103a3930b739b332b960b11b606082015260800190565b60208082526023908201527f455243313135353a206275726e2066726f6d20746865207a65726f206164647260408201526265737360e81b606082015260800190565b60208082526024908201527f455243313135353a206275726e20616d6f756e7420657863656564732062616c604082015263616e636560e01b606082015260800190565b6020808252602b908201527f496e697469616c697a61626c653a20636f6e7472616374206973206e6f74206960408201526a6e697469616c697a696e6760a81b606082015260800190565b7f416363657373436f6e74726f6c3a206163636f756e7420000000000000000000815260008351614d7a816017850160208801613ca9565b7001034b99036b4b9b9b4b733903937b6329607d1b6017918401918201528351614dab816028840160208801613ca9565b01602801949350505050565b6000808454614dc581614782565b60018281168015614ddd5760018114614df257614e21565b60ff1984168752821515830287019450614e21565b8860005260208060002060005b85811015614e185781548a820152908401908201614dff565b50505082870194505b505050508351614e35818360208801613ca9565b01949350505050565b67113730b6b2911d1160c11b81528451600090614e62816008850160208a01613ca9565b61088b60f21b600891840191820181905269113a37b5b2b724b2111d60b11b600a8301528651614e99816014850160208b01613ca9565b600b60fa1b601493909101928301526e113232b9b1b934b83a34b7b7111d1160891b60158301528551614ed3816024850160208a01613ca9565b6024920191820152681134b6b0b3b2911d1160b91b6026820152610a99614f0e614f00602f840187614a97565b61088b60f21b815260020190565b70089d1e5c19488e88915490cc4c4d4d488b607a1b815260110190565b81810381811115610846576108466147d2565b6f113234b9b83630bcafba3cb832911d1160811b81528151600090614f6a816010850160208701613ca9565b61088b60f21b6010939091019283015250601201919050565b60008651614f95818460208b01613ca9565b6e3d913a3930b4ba2fba3cb832911d1160891b9083019081528651614fc181600f840160208b01613ca9565b61088b60f21b600f92909101918201528551614fe4816011840160208a01613ca9565b68113b30b63ab2911d1160b91b60119290910191820152845161500e81601a840160208901613ca9565b61227d60f01b601a9290910191820152835161503181601c840160208801613ca9565b01601c01979650505050505050565b6d2261747472696275746573223a5b60901b8152815160009061506a81600e850160208701613ca9565b605d60f81b600e939091019283015250600f01919050565b60008261509f57634e487b7160e01b600052601260045260246000fd5b500490565b8082028115828204841417610846576108466147d2565b6001600160a01b0386811682528516602082015260a0604082018190526000906150e790830186613f65565b82810360608401526150f98186613f65565b9050828103608084015261510d8185613ccd565b98975050505050505050565b60006020828403121561512b57600080fd5b81516110c581613c76565b600060033d111561514f5760046000803e5060005160e01c5b90565b600060443d10156151605790565b6040516003193d81016004833e81513d6001600160401b03816024840111818411171561518f57505050505090565b82850191508151818111156151a75750505050505090565b843d87010160208285010111156151c15750505050505090565b6151d060208286010187613d56565b509095945050505050565b60208082526028908201527f455243313135353a204552433131353552656365697665722072656a656374656040820152676420746f6b656e7360c01b606082015260800190565b6001600160a01b03868116825285166020820152604081018490526060810183905260a060808201819052600090610a9990830184613ccd565b60008161526c5761526c6147d2565b506000190190565b634e487b7160e01b600052603160045260246000fdfe4142434445464748494a4b4c4d4e4f505152535455565758595a6162636465666768696a6b6c6d6e6f707172737475767778797a303132333435363738392b2f9f2df0fed2c77648de5860a4cc508cd0818c85b8b8a1ab4ceeef8d981c8956a668747470733a2f2f696d616765732e636f736d6963756e6976657273652e696f2f636f736d69632d62756e646c65732ff01ee2eb8c5679535f9dfef3543570e280865ec756856c5772fe3e6718c5c074a49807205ce4d355092ef5a8a18f56e8913cf4a201fbe287825b095693c21775364d3d7565c7a8300c96fd53e065d19b65848d7b23b3191adcd55621c744223ca2646970667358221220a3aa46bd8c0b9ed85fe775a85ef70eea36363bea336cafb48a51838f26546cf864736f6c63430008110033",
  "linkReferences": {},
  "deployedLinkReferences": {}
}