{
  "_format": "hh-sol-artifact-1",
  "contractName": "CosmicIslandLand",
  "sourceName": "contracts/upgradeable/ERC721/CosmicIslandLand.sol",
  "abi": [
    {
      "inputs": [],
      "stateMutability": "nonpayable",
      "type": "constructor"
    },
    {
      "anonymous": false,
      "inputs": [
        {
          "indexed": true,
          "internalType": "address",
          "name": "owner",
          "type": "address"
        },
        {
          "indexed": true,
          "internalType": "address",
          "name": "approved",
          "type": "address"
        },
        {
          "indexed": true,
          "internalType": "uint256",
          "name": "tokenId",
          "type": "uint256"
        }
      ],
      "name": "Approval",
      "type": "event"
    },
    {
      "anonymous": false,
      "inputs": [
        {
          "indexed": true,
          "internalType": "address",
          "name": "owner",
          "type": "address"
        },
        {
          "indexed": true,
          "internalType": "address",
          "name": "operator",
          "type": "address"
        },
        {
          "indexed": false,
          "internalType": "bool",
          "name": "approved",
          "type": "bool"
        }
      ],
      "name": "ApprovalForAll",
      "type": "event"
    },
    {
      "anonymous": false,
      "inputs": [
        {
          "indexed": false,
          "internalType": "uint8",
          "name": "version",
          "type": "uint8"
        }
      ],
      "name": "Initialized",
      "type": "event"
    },
    {
      "anonymous": false,
      "inputs": [
        {
          "indexed": false,
          "internalType": "address",
          "name": "account",
          "type": "address"
        }
      ],
      "name": "Paused",
      "type": "event"
    },
    {
      "anonymous": false,
      "inputs": [
        {
          "indexed": true,
          "internalType": "bytes32",
          "name": "role",
          "type": "bytes32"
        },
        {
          "indexed": true,
          "internalType": "bytes32",
          "name": "previousAdminRole",
          "type": "bytes32"
        },
        {
          "indexed": true,
          "internalType": "bytes32",
          "name": "newAdminRole",
          "type": "bytes32"
        }
      ],
      "name": "RoleAdminChanged",
      "type": "event"
    },
    {
      "anonymous": false,
      "inputs": [
        {
          "indexed": true,
          "internalType": "bytes32",
          "name": "role",
          "type": "bytes32"
        },
        {
          "indexed": true,
          "internalType": "address",
          "name": "account",
          "type": "address"
        },
        {
          "indexed": true,
          "internalType": "address",
          "name": "sender",
          "type": "address"
        }
      ],
      "name": "RoleGranted",
      "type": "event"
    },
    {
      "anonymous": false,
      "inputs": [
        {
          "indexed": true,
          "internalType": "bytes32",
          "name": "role",
          "type": "bytes32"
        },
        {
          "indexed": true,
          "internalType": "address",
          "name": "account",
          "type": "address"
        },
        {
          "indexed": true,
          "internalType": "address",
          "name": "sender",
          "type": "address"
        }
      ],
      "name": "RoleRevoked",
      "type": "event"
    },
    {
      "anonymous": false,
      "inputs": [
        {
          "indexed": true,
          "internalType": "uint256",
          "name": "tokenId",
          "type": "uint256"
        },
        {
          "indexed": false,
          "internalType": "uint256",
          "name": "customId",
          "type": "uint256"
        },
        {
          "indexed": false,
          "internalType": "string",
          "name": "value",
          "type": "string"
        }
      ],
      "name": "TextUpdated",
      "type": "event"
    },
    {
      "anonymous": false,
      "inputs": [
        {
          "indexed": true,
          "internalType": "address",
          "name": "from",
          "type": "address"
        },
        {
          "indexed": true,
          "internalType": "address",
          "name": "to",
          "type": "address"
        },
        {
          "indexed": true,
          "internalType": "uint256",
          "name": "tokenId",
          "type": "uint256"
        }
      ],
      "name": "Transfer",
      "type": "event"
    },
    {
      "anonymous": false,
      "inputs": [
        {
          "indexed": false,
          "internalType": "address",
          "name": "account",
          "type": "address"
        }
      ],
      "name": "Unpaused",
      "type": "event"
    },
    {
      "anonymous": false,
      "inputs": [
        {
          "indexed": true,
          "internalType": "uint256",
          "name": "tokenId",
          "type": "uint256"
        },
        {
          "indexed": false,
          "internalType": "uint256",
          "name": "treeId",
          "type": "uint256"
        },
        {
          "indexed": false,
          "internalType": "uint256",
          "name": "skillId",
          "type": "uint256"
        },
        {
          "indexed": false,
          "internalType": "uint256",
          "name": "value",
          "type": "uint256"
        }
      ],
      "name": "ValueUpdated",
      "type": "event"
    },
    {
      "inputs": [],
      "name": "ADMIN_ROLE",
      "outputs": [
        {
          "internalType": "bytes32",
          "name": "",
          "type": "bytes32"
        }
      ],
      "stateMutability": "view",
      "type": "function"
    },
    {
      "inputs": [],
      "name": "CONTRACT_ROLE",
      "outputs": [
        {
          "internalType": "bytes32",
          "name": "",
          "type": "bytes32"
        }
      ],
      "stateMutability": "view",
      "type": "function"
    },
    {
      "inputs": [],
      "name": "DEFAULT_ADMIN_ROLE",
      "outputs": [
        {
          "internalType": "bytes32",
          "name": "",
          "type": "bytes32"
        }
      ],
      "stateMutability": "view",
      "type": "function"
    },
    {
      "inputs": [],
      "name": "MINTER_ROLE",
      "outputs": [
        {
          "internalType": "bytes32",
          "name": "",
          "type": "bytes32"
        }
      ],
      "stateMutability": "view",
      "type": "function"
    },
    {
      "inputs": [
        {
          "internalType": "address",
          "name": "to",
          "type": "address"
        },
        {
          "internalType": "uint256",
          "name": "tokenId",
          "type": "uint256"
        }
      ],
      "name": "approve",
      "outputs": [],
      "stateMutability": "nonpayable",
      "type": "function"
    },
    {
      "inputs": [
        {
          "internalType": "address",
          "name": "owner",
          "type": "address"
        }
      ],
      "name": "balanceOf",
      "outputs": [
        {
          "internalType": "uint256",
          "name": "",
          "type": "uint256"
        }
      ],
      "stateMutability": "view",
      "type": "function"
    },
    {
      "inputs": [
        {
          "internalType": "address",
          "name": "to",
          "type": "address"
        },
        {
          "internalType": "uint256[]",
          "name": "tokenIds",
          "type": "uint256[]"
        }
      ],
      "name": "batchMint",
      "outputs": [],
      "stateMutability": "nonpayable",
      "type": "function"
    },
    {
      "inputs": [
        {
          "internalType": "uint256[]",
          "name": "tokenIds",
          "type": "uint256[]"
        }
      ],
      "name": "batchTokenURI",
      "outputs": [
        {
          "internalType": "string[]",
          "name": "",
          "type": "string[]"
        }
      ],
      "stateMutability": "view",
      "type": "function"
    },
    {
      "inputs": [
        {
          "internalType": "uint256[]",
          "name": "tokenIds",
          "type": "uint256[]"
        }
      ],
      "name": "batchTokenURIJSON",
      "outputs": [
        {
          "internalType": "string[]",
          "name": "",
          "type": "string[]"
        }
      ],
      "stateMutability": "view",
      "type": "function"
    },
    {
      "inputs": [
        {
          "internalType": "address",
          "name": "from",
          "type": "address"
        },
        {
          "internalType": "address",
          "name": "to",
          "type": "address"
        },
        {
          "internalType": "uint256[]",
          "name": "tokenIds",
          "type": "uint256[]"
        }
      ],
      "name": "batchTransferFrom",
      "outputs": [],
      "stateMutability": "nonpayable",
      "type": "function"
    },
    {
      "inputs": [
        {
          "internalType": "uint256",
          "name": "tokenId",
          "type": "uint256"
        }
      ],
      "name": "burn",
      "outputs": [],
      "stateMutability": "nonpayable",
      "type": "function"
    },
    {
      "inputs": [],
      "name": "getAllTokenIds",
      "outputs": [
        {
          "internalType": "uint256[]",
          "name": "",
          "type": "uint256[]"
        }
      ],
      "stateMutability": "view",
      "type": "function"
    },
    {
      "inputs": [
        {
          "internalType": "uint256",
          "name": "tokenId",
          "type": "uint256"
        }
      ],
      "name": "getApproved",
      "outputs": [
        {
          "internalType": "address",
          "name": "",
          "type": "address"
        }
      ],
      "stateMutability": "view",
      "type": "function"
    },
    {
      "inputs": [
        {
          "internalType": "bytes32",
          "name": "role",
          "type": "bytes32"
        }
      ],
      "name": "getRoleAdmin",
      "outputs": [
        {
          "internalType": "bytes32",
          "name": "",
          "type": "bytes32"
        }
      ],
      "stateMutability": "view",
      "type": "function"
    },
    {
      "inputs": [
        {
          "internalType": "bytes32",
          "name": "role",
          "type": "bytes32"
        },
        {
          "internalType": "uint256",
          "name": "index",
          "type": "uint256"
        }
      ],
      "name": "getRoleMember",
      "outputs": [
        {
          "internalType": "address",
          "name": "",
          "type": "address"
        }
      ],
      "stateMutability": "view",
      "type": "function"
    },
    {
      "inputs": [
        {
          "internalType": "bytes32",
          "name": "role",
          "type": "bytes32"
        }
      ],
      "name": "getRoleMemberCount",
      "outputs": [
        {
          "internalType": "uint256",
          "name": "",
          "type": "uint256"
        }
      ],
      "stateMutability": "view",
      "type": "function"
    },
    {
      "inputs": [
        {
          "internalType": "uint256",
          "name": "tokenId",
          "type": "uint256"
        },
        {
          "internalType": "uint256",
          "name": "treeId",
          "type": "uint256"
        },
        {
          "internalType": "uint256",
          "name": "skillId",
          "type": "uint256"
        }
      ],
      "name": "getSkill",
      "outputs": [
        {
          "internalType": "uint256",
          "name": "value",
          "type": "uint256"
        }
      ],
      "stateMutability": "view",
      "type": "function"
    },
    {
      "inputs": [
        {
          "internalType": "uint256",
          "name": "tokenId",
          "type": "uint256"
        },
        {
          "internalType": "uint256",
          "name": "treeId",
          "type": "uint256"
        },
        {
          "internalType": "uint256[]",
          "name": "skillIds",
          "type": "uint256[]"
        }
      ],
      "name": "getSkillsByTree",
      "outputs": [
        {
          "internalType": "uint256[]",
          "name": "",
          "type": "uint256[]"
        }
      ],
      "stateMutability": "view",
      "type": "function"
    },
    {
      "inputs": [
        {
          "internalType": "uint256",
          "name": "tokenId",
          "type": "uint256"
        },
        {
          "internalType": "uint256",
          "name": "customId",
          "type": "uint256"
        }
      ],
      "name": "getString",
      "outputs": [
        {
          "internalType": "string",
          "name": "value",
          "type": "string"
        }
      ],
      "stateMutability": "view",
      "type": "function"
    },
    {
      "inputs": [
        {
          "internalType": "uint256[]",
          "name": "tokenIds",
          "type": "uint256[]"
        },
        {
          "internalType": "uint256",
          "name": "customId",
          "type": "uint256"
        }
      ],
      "name": "getStringOfTokens",
      "outputs": [
        {
          "internalType": "string[]",
          "name": "",
          "type": "string[]"
        }
      ],
      "stateMutability": "view",
      "type": "function"
    },
    {
      "inputs": [
        {
          "internalType": "uint256",
          "name": "tokenId",
          "type": "uint256"
        },
        {
          "internalType": "uint256[]",
          "name": "customIds",
          "type": "uint256[]"
        }
      ],
      "name": "getStrings",
      "outputs": [
        {
          "internalType": "string[]",
          "name": "",
          "type": "string[]"
        }
      ],
      "stateMutability": "view",
      "type": "function"
    },
    {
      "inputs": [
        {
          "internalType": "bytes32",
          "name": "role",
          "type": "bytes32"
        },
        {
          "internalType": "address",
          "name": "account",
          "type": "address"
        }
      ],
      "name": "grantRole",
      "outputs": [],
      "stateMutability": "nonpayable",
      "type": "function"
    },
    {
      "inputs": [
        {
          "internalType": "bytes32",
          "name": "role",
          "type": "bytes32"
        },
        {
          "internalType": "address",
          "name": "account",
          "type": "address"
        }
      ],
      "name": "hasRole",
      "outputs": [
        {
          "internalType": "bool",
          "name": "",
          "type": "bool"
        }
      ],
      "stateMutability": "view",
      "type": "function"
    },
    {
      "inputs": [],
      "name": "imageBaseURI",
      "outputs": [
        {
          "internalType": "string",
          "name": "",
          "type": "string"
        }
      ],
      "stateMutability": "view",
      "type": "function"
    },
    {
      "inputs": [],
      "name": "initialize",
      "outputs": [],
      "stateMutability": "nonpayable",
      "type": "function"
    },
    {
      "inputs": [
        {
          "internalType": "address",
          "name": "owner",
          "type": "address"
        },
        {
          "internalType": "address",
          "name": "operator",
          "type": "address"
        }
      ],
      "name": "isApprovedForAll",
      "outputs": [
        {
          "internalType": "bool",
          "name": "",
          "type": "bool"
        }
      ],
      "stateMutability": "view",
      "type": "function"
    },
    {
      "inputs": [
        {
          "internalType": "address",
          "name": "to",
          "type": "address"
        },
        {
          "internalType": "uint256",
          "name": "tokenId",
          "type": "uint256"
        }
      ],
      "name": "mint",
      "outputs": [],
      "stateMutability": "nonpayable",
      "type": "function"
    },
    {
      "inputs": [],
      "name": "name",
      "outputs": [
        {
          "internalType": "string",
          "name": "",
          "type": "string"
        }
      ],
      "stateMutability": "view",
      "type": "function"
    },
    {
      "inputs": [
        {
          "internalType": "uint256",
          "name": "tokenId",
          "type": "uint256"
        }
      ],
      "name": "ownerOf",
      "outputs": [
        {
          "internalType": "address",
          "name": "",
          "type": "address"
        }
      ],
      "stateMutability": "view",
      "type": "function"
    },
    {
      "inputs": [],
      "name": "pause",
      "outputs": [],
      "stateMutability": "nonpayable",
      "type": "function"
    },
    {
      "inputs": [],
      "name": "paused",
      "outputs": [
        {
          "internalType": "bool",
          "name": "",
          "type": "bool"
        }
      ],
      "stateMutability": "view",
      "type": "function"
    },
    {
      "inputs": [
        {
          "internalType": "bytes32",
          "name": "role",
          "type": "bytes32"
        },
        {
          "internalType": "address",
          "name": "account",
          "type": "address"
        }
      ],
      "name": "renounceRole",
      "outputs": [],
      "stateMutability": "nonpayable",
      "type": "function"
    },
    {
      "inputs": [
        {
          "internalType": "bytes32",
          "name": "role",
          "type": "bytes32"
        },
        {
          "internalType": "address",
          "name": "account",
          "type": "address"
        }
      ],
      "name": "revokeRole",
      "outputs": [],
      "stateMutability": "nonpayable",
      "type": "function"
    },
    {
      "inputs": [
        {
          "internalType": "address",
          "name": "from",
          "type": "address"
        },
        {
          "internalType": "address",
          "name": "to",
          "type": "address"
        },
        {
          "internalType": "uint256",
          "name": "tokenId",
          "type": "uint256"
        }
      ],
      "name": "safeTransferFrom",
      "outputs": [],
      "stateMutability": "nonpayable",
      "type": "function"
    },
    {
      "inputs": [
        {
          "internalType": "address",
          "name": "from",
          "type": "address"
        },
        {
          "internalType": "address",
          "name": "to",
          "type": "address"
        },
        {
          "internalType": "uint256",
          "name": "tokenId",
          "type": "uint256"
        },
        {
          "internalType": "bytes",
          "name": "data",
          "type": "bytes"
        }
      ],
      "name": "safeTransferFrom",
      "outputs": [],
      "stateMutability": "nonpayable",
      "type": "function"
    },
    {
      "inputs": [
        {
          "internalType": "address",
          "name": "operator",
          "type": "address"
        },
        {
          "internalType": "bool",
          "name": "approved",
          "type": "bool"
        }
      ],
      "name": "setApprovalForAll",
      "outputs": [],
      "stateMutability": "nonpayable",
      "type": "function"
    },
    {
      "inputs": [
        {
          "internalType": "string",
          "name": "_imageBaseURI",
          "type": "string"
        }
      ],
      "name": "setImageBaseURI",
      "outputs": [],
      "stateMutability": "nonpayable",
      "type": "function"
    },
    {
      "inputs": [
        {
          "internalType": "uint256",
          "name": "tokenId",
          "type": "uint256"
        },
        {
          "internalType": "uint256",
          "name": "attrId",
          "type": "uint256"
        },
        {
          "internalType": "uint256",
          "name": "value",
          "type": "uint256"
        }
      ],
      "name": "setTokenURI",
      "outputs": [],
      "stateMutability": "nonpayable",
      "type": "function"
    },
    {
      "inputs": [
        {
          "internalType": "uint256[]",
          "name": "tokenIds",
          "type": "uint256[]"
        },
        {
          "internalType": "uint256[]",
          "name": "attrIds",
          "type": "uint256[]"
        },
        {
          "internalType": "uint256[]",
          "name": "values",
          "type": "uint256[]"
        }
      ],
      "name": "setTokenURIs",
      "outputs": [],
      "stateMutability": "nonpayable",
      "type": "function"
    },
    {
      "inputs": [
        {
          "internalType": "bytes4",
          "name": "interfaceId",
          "type": "bytes4"
        }
      ],
      "name": "supportsInterface",
      "outputs": [
        {
          "internalType": "bool",
          "name": "",
          "type": "bool"
        }
      ],
      "stateMutability": "view",
      "type": "function"
    },
    {
      "inputs": [],
      "name": "symbol",
      "outputs": [
        {
          "internalType": "string",
          "name": "",
          "type": "string"
        }
      ],
      "stateMutability": "view",
      "type": "function"
    },
    {
      "inputs": [
        {
          "internalType": "uint256",
          "name": "index",
          "type": "uint256"
        }
      ],
      "name": "tokenByIndex",
      "outputs": [
        {
          "internalType": "uint256",
          "name": "",
          "type": "uint256"
        }
      ],
      "stateMutability": "view",
      "type": "function"
    },
    {
      "inputs": [
        {
          "internalType": "address",
          "name": "owner",
          "type": "address"
        },
        {
          "internalType": "uint256",
          "name": "index",
          "type": "uint256"
        }
      ],
      "name": "tokenOfOwnerByIndex",
      "outputs": [
        {
          "internalType": "uint256",
          "name": "",
          "type": "uint256"
        }
      ],
      "stateMutability": "view",
      "type": "function"
    },
    {
      "inputs": [
        {
          "internalType": "uint256",
          "name": "tokenId",
          "type": "uint256"
        }
      ],
      "name": "tokenURI",
      "outputs": [
        {
          "internalType": "string",
          "name": "",
          "type": "string"
        }
      ],
      "stateMutability": "view",
      "type": "function"
    },
    {
      "inputs": [
        {
          "internalType": "uint256",
          "name": "tokenId",
          "type": "uint256"
        }
      ],
      "name": "tokenURIJSON",
      "outputs": [
        {
          "internalType": "string",
          "name": "",
          "type": "string"
        }
      ],
      "stateMutability": "view",
      "type": "function"
    },
    {
      "inputs": [
        {
          "internalType": "address",
          "name": "owner",
          "type": "address"
        }
      ],
      "name": "tokensOfOwner",
      "outputs": [
        {
          "internalType": "uint256[]",
          "name": "",
          "type": "uint256[]"
        }
      ],
      "stateMutability": "view",
      "type": "function"
    },
    {
      "inputs": [],
      "name": "totalSupply",
      "outputs": [
        {
          "internalType": "uint256",
          "name": "",
          "type": "uint256"
        }
      ],
      "stateMutability": "view",
      "type": "function"
    },
    {
      "inputs": [
        {
          "internalType": "address",
          "name": "from",
          "type": "address"
        },
        {
          "internalType": "address",
          "name": "to",
          "type": "address"
        },
        {
          "internalType": "uint256",
          "name": "tokenId",
          "type": "uint256"
        }
      ],
      "name": "transferFrom",
      "outputs": [],
      "stateMutability": "nonpayable",
      "type": "function"
    },
    {
      "inputs": [],
      "name": "unpause",
      "outputs": [],
      "stateMutability": "nonpayable",
      "type": "function"
    },
    {
      "inputs": [
        {
          "internalType": "uint256",
          "name": "tokenId",
          "type": "uint256"
        },
        {
          "internalType": "uint256",
          "name": "treeId",
          "type": "uint256"
        },
        {
          "internalType": "uint256",
          "name": "skillId",
          "type": "uint256"
        },
        {
          "internalType": "uint256",
          "name": "value",
          "type": "uint256"
        }
      ],
      "name": "updateSkill",
      "outputs": [],
      "stateMutability": "nonpayable",
      "type": "function"
    },
    {
      "inputs": [
        {
          "internalType": "uint256",
          "name": "tokenId",
          "type": "uint256"
        },
        {
          "internalType": "uint256",
          "name": "customId",
          "type": "uint256"
        },
        {
          "internalType": "string",
          "name": "value",
          "type": "string"
        }
      ],
      "name": "updateString",
      "outputs": [],
      "stateMutability": "nonpayable",
      "type": "function"
    }
  ],
  "bytecode": "0x60806040523480156200001157600080fd5b506200001c62000022565b620000e4565b600054610100900460ff16156200008f5760405162461bcd60e51b815260206004820152602760248201527f496e697469616c697a61626c653a20636f6e747261637420697320696e697469604482015266616c697a696e6760c81b606482015260840160405180910390fd5b60005460ff9081161015620000e2576000805460ff191660ff9081179091556040519081527f7f26b83ff96e1f2b6a682f133852f6798a09c465da95921460cefb38474024989060200160405180910390a15b565b61405980620000f46000396000f3fe608060405234801561001057600080fd5b50600436106102f15760003560e01c806370a082311161019d578063b88d4fde116100e9578063d547741f116100a2578063e985e9c51161007c578063e985e9c5146106b6578063ed0af209146106f2578063f3993d1114610705578063fe459f5c1461071857600080fd5b8063d547741f1461067d578063dd69f3f714610690578063e3a829fe146106a357600080fd5b8063b88d4fde14610614578063bdbed72214610627578063c7e055901461062f578063c87b56dd14610642578063ca15c87314610655578063d53913931461066857600080fd5b80639010d07c116101565780639e8afe47116101305780639e8afe47146105d3578063a217fddf146105e6578063a22cb465146105ee578063b5afb1201461060157600080fd5b80639010d07c146105a557806391d14854146105b857806395d89b41146105cb57600080fd5b806370a082311461054557806375b238fc14610558578063776458391461056d5780638129fc1c146105755780638456cb591461057d5780638462151c1461058557600080fd5b8063352b75331161025c5780634594762a116102155780635c975abb116101ef5780635c975abb146105005780636352211e1461050c5780636cfa24cc1461051f5780636d94f13a1461053257600080fd5b80634594762a146104a75780634684d7e9146104da5780634f6ccce7146104ed57600080fd5b8063352b75331461044057806336568abe146104535780633f4ba83a1461046657806340c10f191461046e57806342842e0e1461048157806342966c681461049457600080fd5b806318160ddd116102ae57806318160ddd146103bb57806323b872dd146103c3578063248a9ca3146103d65780632c303493146103fa5780632f2ff15d1461041a5780632f745c591461042d57600080fd5b806301ffc9a7146102f657806303fe46ab1461031e57806306fdde0314610353578063079be49314610368578063081812fc1461037b578063095ea7b3146103a6575b600080fd5b6103096103043660046130bd565b61072b565b60405190151581526020015b60405180910390f35b6103457f364d3d7565c7a8300c96fd53e065d19b65848d7b23b3191adcd55621c744223c81565b604051908152602001610315565b61035b61073c565b604051610315919061312a565b61035b61037636600461313d565b6107ce565b61038e61038936600461315f565b61087d565b6040516001600160a01b039091168152602001610315565b6103b96103b4366004613194565b6108a4565b005b609954610345565b6103b96103d13660046131be565b6109be565b6103456103e436600461315f565b600090815261015f602052604090206001015490565b61040d6104083660046132bf565b6109f0565b60405161031591906132f3565b6103b9610428366004613355565b610aa8565b61034561043b366004613194565b610ace565b61040d61044e366004613381565b610b64565b6103b9610461366004613355565b610cc2565b6103b9610d40565b6103b961047c366004613194565b610d63565b6103b961048f3660046131be565b610d85565b6103b96104a236600461315f565b610da0565b6103456104b53660046133c5565b600092835261025c602090815260408085209385529281528284209184525290205490565b6103b96104e83660046133f1565b610ddb565b6103456104fb36600461315f565b610e3a565b61012d5460ff16610309565b61038e61051a36600461315f565b610ecd565b6103b961052d3660046134b5565b610f2d565b61040d6105403660046132bf565b610f51565b6103456105533660046134e9565b611002565b61034560008051602061400483398151915281565b61035b611088565b6103b9611116565b6103b96112cc565b6105986105933660046134e9565b6112ec565b6040516103159190613504565b61038e6105b336600461313d565b611385565b6103096105c6366004613355565b6113a5565b61035b6113d1565b61040d6105e1366004613548565b6113e0565b610345600081565b6103b96105fc366004613578565b611536565b6103b961060f3660046135b4565b611541565b6103b96106223660046135e6565b6115d8565b61059861160a565b61059861063d366004613661565b6116f4565b61035b61065036600461315f565b6117c9565b61034561066336600461315f565b6117dc565b610345600080516020613fe483398151915281565b6103b961068b366004613355565b6117f4565b6103b961069e3660046136b0565b61181a565b6103b96106b13660046133c5565b6118cd565b6103096106c436600461372d565b6001600160a01b039182166000908152606a6020908152604080832093909416825291909152205460ff1690565b6103b9610700366004613757565b611903565b6103b961071336600461379c565b611992565b61035b61072636600461315f565b6119d4565b600061073682611af1565b92915050565b60606065805461074b906137e3565b80601f0160208091040260200160405190810160405280929190818152602001828054610777906137e3565b80156107c45780601f10610799576101008083540402835291602001916107c4565b820191906000526020600020905b8154815290600101906020018083116107a757829003601f168201915b5050505050905090565b600082815261025d6020908152604080832084845290915290208054606091906107f7906137e3565b80601f0160208091040260200160405190810160405280929190818152602001828054610823906137e3565b80156108705780601f1061084557610100808354040283529160200191610870565b820191906000526020600020905b81548152906001019060200180831161085357829003601f168201915b5050505050905092915050565b600061088882611afc565b506000908152606960205260409020546001600160a01b031690565b60006108af82610ecd565b9050806001600160a01b0316836001600160a01b0316036109215760405162461bcd60e51b815260206004820152602160248201527f4552433732313a20617070726f76616c20746f2063757272656e74206f776e656044820152603960f91b60648201526084015b60405180910390fd5b336001600160a01b038216148061093d575061093d81336106c4565b6109af5760405162461bcd60e51b815260206004820152603e60248201527f4552433732313a20617070726f76652063616c6c6572206973206e6f7420746f60448201527f6b656e206f776e6572206e6f7220617070726f76656420666f7220616c6c00006064820152608401610918565b6109b98383611b4c565b505050565b6109c9335b82611bba565b6109e55760405162461bcd60e51b81526004016109189061381d565b6109b9838383611c39565b6060600082516001600160401b03811115610a0d57610a0d6131fa565b604051908082528060200260200182016040528015610a4057816020015b6060815260200190600190039081610a2b5790505b50905060005b8351811015610aa157610a71848281518110610a6457610a6461386b565b60200260200101516119d4565b828281518110610a8357610a8361386b565b60200260200101819052508080610a9990613897565b915050610a46565b5092915050565b600082815261015f6020526040902060010154610ac481611de0565b6109b98383611dea565b6000610ad983611002565b8210610b3b5760405162461bcd60e51b815260206004820152602b60248201527f455243373231456e756d657261626c653a206f776e657220696e646578206f7560448201526a74206f6620626f756e647360a81b6064820152608401610918565b506001600160a01b03919091166000908152609760209081526040808320938352929052205490565b6060600083516001600160401b03811115610b8157610b816131fa565b604051908082528060200260200182016040528015610bb457816020015b6060815260200190600190039081610b9f5790505b50905060005b8451811015610cba5761025d6000868381518110610bda57610bda61386b565b6020026020010151815260200190815260200160002060008581526020019081526020016000208054610c0c906137e3565b80601f0160208091040260200160405190810160405280929190818152602001828054610c38906137e3565b8015610c855780601f10610c5a57610100808354040283529160200191610c85565b820191906000526020600020905b815481529060010190602001808311610c6857829003601f168201915b5050505050828281518110610c9c57610c9c61386b565b60200260200101819052508080610cb290613897565b915050610bba565b509392505050565b6001600160a01b0381163314610d325760405162461bcd60e51b815260206004820152602f60248201527f416363657373436f6e74726f6c3a2063616e206f6e6c792072656e6f756e636560448201526e103937b632b9903337b91039b2b63360891b6064820152608401610918565b610d3c8282611e0d565b5050565b600080516020614004833981519152610d5881611de0565b610d60611e30565b50565b600080516020613fe4833981519152610d7b81611de0565b6109b98383611e83565b6109b9838383604051806020016040528060008152506115d8565b610da9336109c3565b610dc55760405162461bcd60e51b81526004016109189061381d565b610dd16101f582611e9d565b50610d6081611ea9565b600080516020613fe4833981519152610df381611de0565b60005b8251811015610e3457610e2284848381518110610e1557610e1561386b565b6020026020010151611e83565b80610e2c81613897565b915050610df6565b50505050565b6000610e4560995490565b8210610ea85760405162461bcd60e51b815260206004820152602c60248201527f455243373231456e756d657261626c653a20676c6f62616c20696e646578206f60448201526b7574206f6620626f756e647360a01b6064820152608401610918565b60998281548110610ebb57610ebb61386b565b90600052602060002001549050919050565b6000818152606760205260408120546001600160a01b0316806107365760405162461bcd60e51b8152602060048201526018602482015277115490cdcc8c4e881a5b9d985b1a59081d1bdad95b88125160421b6044820152606401610918565b600080516020614004833981519152610f4581611de0565b60fc6109b983826138fe565b6060600082516001600160401b03811115610f6e57610f6e6131fa565b604051908082528060200260200182016040528015610fa157816020015b6060815260200190600190039081610f8c5790505b50905060005b8351811015610aa157610fd2848281518110610fc557610fc561386b565b60200260200101516117c9565b828281518110610fe457610fe461386b565b60200260200101819052508080610ffa90613897565b915050610fa7565b60006001600160a01b03821661106c5760405162461bcd60e51b815260206004820152602960248201527f4552433732313a2061646472657373207a65726f206973206e6f7420612076616044820152683634b21037bbb732b960b91b6064820152608401610918565b506001600160a01b031660009081526068602052604090205490565b60fc8054611095906137e3565b80601f01602080910402602001604051908101604052809291908181526020018280546110c1906137e3565b801561110e5780601f106110e35761010080835404028352916020019161110e565b820191906000526020600020905b8154815290600101906020018083116110f157829003601f168201915b505050505081565b600054610100900460ff16158080156111365750600054600160ff909116105b806111505750303b158015611150575060005460ff166001145b6111b35760405162461bcd60e51b815260206004820152602e60248201527f496e697469616c697a61626c653a20636f6e747261637420697320616c72656160448201526d191e481a5b9a5d1a585b1a5e995960921b6064820152608401610918565b6000805460ff1916600117905580156111d6576000805461ff0019166101001790555b6112216040518060400160405280600c81526020016b10dbdcdb5a58d25cdb185b9960a21b8152506040518060400160405280600581526020016410d310539160da1b815250611ee9565b611229611f1a565b611231611f4b565b611239611f72565b611241611f4b565b611249611f1a565b611254600033611dea565b61126c60008051602061400483398151915233611dea565b611284600080516020613fe483398151915233611dea565b8015610d60576000805461ff0019169055604051600181527f7f26b83ff96e1f2b6a682f133852f6798a09c465da95921460cefb38474024989060200160405180910390a150565b6000805160206140048339815191526112e481611de0565b610d60611fa1565b606060006112f983611002565b90506000816001600160401b03811115611315576113156131fa565b60405190808252806020026020018201604052801561133e578160200160208202803683370190505b50905060005b82811015610cba576113568582610ace565b8282815181106113685761136861386b565b60209081029190910101528061137d81613897565b915050611344565b60008281526101916020526040812061139e9083611fdf565b9392505050565b600091825261015f602090815260408084206001600160a01b0393909316845291905290205460ff1690565b60606066805461074b906137e3565b6060600082516001600160401b038111156113fd576113fd6131fa565b60405190808252806020026020018201604052801561143057816020015b606081526020019060019003908161141b5790505b50905060005b8351811015610cba5761025d600086815260200190815260200160002060008583815181106114675761146761386b565b602002602001015181526020019081526020016000208054611488906137e3565b80601f01602080910402602001604051908101604052809291908181526020018280546114b4906137e3565b80156115015780601f106114d657610100808354040283529160200191611501565b820191906000526020600020905b8154815290600101906020018083116114e457829003601f168201915b50505050508282815181106115185761151861386b565b6020026020010181905250808061152e90613897565b915050611436565b610d3c338383611feb565b7f364d3d7565c7a8300c96fd53e065d19b65848d7b23b3191adcd55621c744223c61156b81611de0565b600085815261025c602090815260408083208784528252808320868452825291829020849055815186815290810185905290810183905285907fc3bdb5f4a3cbb68ce4ebe3dda3660f3067add044dc5be3a047d818fd416663699060600160405180910390a25050505050565b6115e23383611bba565b6115fe5760405162461bcd60e51b81526004016109189061381d565b610e34848484846120b9565b6060600060015b61271081101561164957611624816120ec565b15611637578161163381613897565b9250505b8061164181613897565b915050611611565b506000816001600160401b03811115611664576116646131fa565b60405190808252806020026020018201604052801561168d578160200160208202803683370190505b509050600060015b6127108110156116eb576116a8816120ec565b156116d957808383815181106116c0576116c061386b565b6020908102919091010152816116d581613897565b9250505b806116e381613897565b915050611695565b50909392505050565b6060600082516001600160401b03811115611711576117116131fa565b60405190808252806020026020018201604052801561173a578160200160208202803683370190505b50905060005b83518110156117c057600086815261025c602090815260408083208884529091528120855190919086908490811061177a5761177a61386b565b60200260200101518152602001908152602001600020548282815181106117a3576117a361386b565b6020908102919091010152806117b881613897565b915050611740565b50949350505050565b60606107366117d7836119d4565b6120f7565b60008181526101916020526040812061073690612128565b600082815261015f602052604090206001015461181081611de0565b6109b98383611e0d565b60008051602061400483398151915261183281611de0565b60005b84518110156118c6578281815181106118505761185061386b565b602002602001015161025b600087848151811061186f5761186f61386b565b6020026020010151815260200190815260200160002060008684815181106118995761189961386b565b602002602001015181526020019081526020016000208190555080806118be90613897565b915050611835565b5050505050565b6000805160206140048339815191526118e581611de0565b50600092835261025b60209081526040808520938552929052912055565b7f364d3d7565c7a8300c96fd53e065d19b65848d7b23b3191adcd55621c744223c61192d81611de0565b600084815261025d60209081526040808320868452909152902061195183826138fe565b50837fbf91c112c44cd8e958afe3106b290f594b5e23b83fcc88bdb9ac5da7f00be56984846040516119849291906139bd565b60405180910390a250505050565b60005b8151811015610e34576119c284848484815181106119b5576119b561386b565b60200260200101516109be565b806119cc81613897565b915050611995565b600081815261025b60209081526040808320838052909152808220546001835281832054600284529183205460609391929160fc611a1187612132565b604051602001611a229291906139f2565b60405160208183030381529060405290506000611a3e87610ecd565b90506000611a4b88612132565b83611a5e846001600160a01b0316612232565b604051602001611a7093929190613a79565b60405160208183030381529060405290506000611a8c87612132565b611a9587612132565b611a9e87612132565b604051602001611ab093929190613b8e565b60405160208183030381529060405290508181604051602001611ad4929190613cf5565b604051602081830303815290604052975050505050505050919050565b600061073682612248565b611b05816120ec565b610d605760405162461bcd60e51b8152602060048201526018602482015277115490cdcc8c4e881a5b9d985b1a59081d1bdad95b88125160421b6044820152606401610918565b600081815260696020526040902080546001600160a01b0319166001600160a01b0384169081179091558190611b8182610ecd565b6001600160a01b03167f8c5be1e5ebec7d5bd14f71427d1e84f3dd0314c0f7b2291e5b200ac8c7c3b92560405160405180910390a45050565b600080611bc683610ecd565b9050806001600160a01b0316846001600160a01b03161480611c0d57506001600160a01b038082166000908152606a602090815260408083209388168352929052205460ff165b80611c315750836001600160a01b0316611c268461087d565b6001600160a01b0316145b949350505050565b826001600160a01b0316611c4c82610ecd565b6001600160a01b031614611cb05760405162461bcd60e51b815260206004820152602560248201527f4552433732313a207472616e736665722066726f6d20696e636f72726563742060448201526437bbb732b960d91b6064820152608401610918565b6001600160a01b038216611d125760405162461bcd60e51b8152602060048201526024808201527f4552433732313a207472616e7366657220746f20746865207a65726f206164646044820152637265737360e01b6064820152608401610918565b611d1d83838361226d565b611d28600082611b4c565b6001600160a01b0383166000908152606860205260408120805460019290611d51908490613d42565b90915550506001600160a01b0382166000908152606860205260408120805460019290611d7f908490613d55565b909155505060008181526067602052604080822080546001600160a01b0319166001600160a01b0386811691821790925591518493918716917fddf252ad1be2c89b69c2b068fc378daa952ba7f163c4a11628f55a4df523b3ef91a4505050565b610d608133612320565b611df48282612384565b6000828152610191602052604090206109b9908261240b565b611e178282612420565b6000828152610191602052604090206109b99082612488565b611e3861249d565b61012d805460ff191690557f5db9ee0a495bf2e6ff9c91a7834c1ba4fdd244a5e8aa4e537bd38aeae4b073aa335b6040516001600160a01b03909116815260200160405180910390a1565b610d3c8282604051806020016040528060008152506124e7565b600061139e838361251a565b611eb281612569565b600081815260fb602052604090208054611ecb906137e3565b159050610d6057600081815260fb60205260408120610d6091613059565b600054610100900460ff16611f105760405162461bcd60e51b815260040161091890613d68565b610d3c8282612610565b600054610100900460ff16611f415760405162461bcd60e51b815260040161091890613d68565b611f49611f4b565b565b600054610100900460ff16611f495760405162461bcd60e51b815260040161091890613d68565b600054610100900460ff16611f995760405162461bcd60e51b815260040161091890613d68565b611f49612650565b611fa9612684565b61012d805460ff191660011790557f62e78cea01bee320cd4e420270b5ea74000d11b0c9f74754ebdbfc544b05a258611e663390565b600061139e83836126cb565b816001600160a01b0316836001600160a01b03160361204c5760405162461bcd60e51b815260206004820152601960248201527f4552433732313a20617070726f766520746f2063616c6c6572000000000000006044820152606401610918565b6001600160a01b038381166000818152606a6020908152604080832094871680845294825291829020805460ff191686151590811790915591519182527f17307eab39ab6107e8899845ad3d59bd9653f200f220920489ca2b5937696c31910160405180910390a3505050565b6120c4848484611c39565b6120d0848484846126f5565b610e345760405162461bcd60e51b815260040161091890613db3565b6000610736826127f6565b606061210282612815565b6040516020016121129190613e05565b6040516020818303038152906040529050919050565b6000610736825490565b6060816000036121595750506040805180820190915260018152600360fc1b602082015290565b8160005b8115612183578061216d81613897565b915061217c9050600a83613e60565b915061215d565b6000816001600160401b0381111561219d5761219d6131fa565b6040519080825280601f01601f1916602001820160405280156121c7576020820181803683370190505b5090505b8415611c31576121dc600183613d42565b91506121e9600a86613e74565b6121f4906030613d55565b60f81b8183815181106122095761220961386b565b60200101906001600160f81b031916908160001a90535061222b600a86613e60565b94506121cb565b60606107366001600160a01b0383166014612967565b60006001600160e01b03198216635a05180f60e01b1480610736575061073682612b02565b612275612684565b8261228261025982612b27565b156122c55760405162461bcd60e51b8152602060048201526013602482015272426c61636b6c6973746564206164647265737360681b6044820152606401610918565b826122d261025982612b27565b156123155760405162461bcd60e51b8152602060048201526013602482015272426c61636b6c6973746564206164647265737360681b6044820152606401610918565b6118c6858585612b49565b61232a82826113a5565b610d3c57612342816001600160a01b03166014612967565b61234d836020612967565b60405160200161235e929190613e88565b60408051601f198184030181529082905262461bcd60e51b82526109189160040161312a565b61238e82826113a5565b610d3c57600082815261015f602090815260408083206001600160a01b03851684529091529020805460ff191660011790556123c73390565b6001600160a01b0316816001600160a01b0316837f2f8788117e7eff1d82e926ec794901d17c78024a50270940304540a733656f0d60405160405180910390a45050565b600061139e836001600160a01b03841661251a565b61242a82826113a5565b15610d3c57600082815261015f602090815260408083206001600160a01b0385168085529252808320805460ff1916905551339285917ff6391f5c32d9c69d2a47ea670b442974b53935d1edc7fd64eb21e047a839171b9190a45050565b600061139e836001600160a01b038416612b54565b61012d5460ff16611f495760405162461bcd60e51b815260206004820152601460248201527314185d5cd8589b194e881b9bdd081c185d5cd95960621b6044820152606401610918565b6124f18383612c47565b6124fe60008484846126f5565b6109b95760405162461bcd60e51b815260040161091890613db3565b600081815260018301602052604081205461256157508154600181810184556000848152602080822090930184905584548482528286019093526040902091909155610736565b506000610736565b600061257482610ecd565b90506125828160008461226d565b61258d600083611b4c565b6001600160a01b03811660009081526068602052604081208054600192906125b6908490613d42565b909155505060008281526067602052604080822080546001600160a01b0319169055518391906001600160a01b038416907fddf252ad1be2c89b69c2b068fc378daa952ba7f163c4a11628f55a4df523b3ef908390a45050565b600054610100900460ff166126375760405162461bcd60e51b815260040161091890613d68565b606561264383826138fe565b5060666109b982826138fe565b600054610100900460ff166126775760405162461bcd60e51b815260040161091890613d68565b61012d805460ff19169055565b61012d5460ff1615611f495760405162461bcd60e51b815260206004820152601060248201526f14185d5cd8589b194e881c185d5cd95960821b6044820152606401610918565b60008260000182815481106126e2576126e261386b565b9060005260206000200154905092915050565b60006001600160a01b0384163b156127eb57604051630a85bd0160e11b81526001600160a01b0385169063150b7a0290612739903390899088908890600401613efd565b6020604051808303816000875af1925050508015612774575060408051601f3d908101601f1916820190925261277191810190613f3a565b60015b6127d1573d8080156127a2576040519150601f19603f3d011682016040523d82523d6000602084013e6127a7565b606091505b5080516000036127c95760405162461bcd60e51b815260040161091890613db3565b805181602001fd5b6001600160e01b031916630a85bd0160e11b149050611c31565b506001949350505050565b6000818152606760205260408120546001600160a01b03161515610736565b6060815160000361283457505060408051602081019091526000815290565b6000604051806060016040528060408152602001613fa460409139905060006003845160026128639190613d55565b61286d9190613e60565b612878906004613f57565b6001600160401b0381111561288f5761288f6131fa565b6040519080825280601f01601f1916602001820160405280156128b9576020820181803683370190505b509050600182016020820185865187015b80821015612925576003820191508151603f8160121c168501518453600184019350603f81600c1c168501518453600184019350603f8160061c168501518453600184019350603f81168501518453506001830192506128ca565b505060038651066001811461294157600281146129545761295c565b603d6001830353603d600283035361295c565b603d60018303535b509195945050505050565b60606000612976836002613f57565b612981906002613d55565b6001600160401b03811115612998576129986131fa565b6040519080825280601f01601f1916602001820160405280156129c2576020820181803683370190505b509050600360fc1b816000815181106129dd576129dd61386b565b60200101906001600160f81b031916908160001a905350600f60fb1b81600181518110612a0c57612a0c61386b565b60200101906001600160f81b031916908160001a9053506000612a30846002613f57565b612a3b906001613d55565b90505b6001811115612ab3576f181899199a1a9b1b9c1cb0b131b232b360811b85600f1660108110612a6f57612a6f61386b565b1a60f81b828281518110612a8557612a8561386b565b60200101906001600160f81b031916908160001a90535060049490941c93612aac81613f76565b9050612a3e565b50831561139e5760405162461bcd60e51b815260206004820181905260248201527f537472696e67733a20686578206c656e67746820696e73756666696369656e746044820152606401610918565b60006001600160e01b03198216637965db0b60e01b1480610736575061073682612d86565b6001600160a01b0381166000908152600183016020526040812054151561139e565b6109b9838383612d91565b60008181526001830160205260408120548015612c3d576000612b78600183613d42565b8554909150600090612b8c90600190613d42565b9050818114612bf1576000866000018281548110612bac57612bac61386b565b9060005260206000200154905080876000018481548110612bcf57612bcf61386b565b6000918252602080832090910192909255918252600188019052604090208390555b8554869080612c0257612c02613f8d565b600190038181906000526020600020016000905590558560010160008681526020019081526020016000206000905560019350505050610736565b6000915050610736565b6001600160a01b038216612c9d5760405162461bcd60e51b815260206004820181905260248201527f4552433732313a206d696e7420746f20746865207a65726f20616464726573736044820152606401610918565b612ca6816120ec565b15612cf35760405162461bcd60e51b815260206004820152601c60248201527f4552433732313a20746f6b656e20616c7265616479206d696e746564000000006044820152606401610918565b612cff6000838361226d565b6001600160a01b0382166000908152606860205260408120805460019290612d28908490613d55565b909155505060008181526067602052604080822080546001600160a01b0319166001600160a01b03861690811790915590518392907fddf252ad1be2c89b69c2b068fc378daa952ba7f163c4a11628f55a4df523b3ef908290a45050565b600061073682612d9c565b6109b9838383612dc1565b60006001600160e01b0319821663780e9d6360e01b1480610736575061073682612e79565b6001600160a01b038316612e1c57612e1781609980546000838152609a60205260408120829055600182018355919091527f72a152ddfb8e864297c917af52ea6c1c68aead0fee1a62673fcc7e0c94979d000155565b612e3f565b816001600160a01b0316836001600160a01b031614612e3f57612e3f8382612ec9565b6001600160a01b038216612e56576109b981612f66565b826001600160a01b0316826001600160a01b0316146109b9576109b98282613015565b60006001600160e01b031982166380ac58cd60e01b1480612eaa57506001600160e01b03198216635b5e139f60e01b145b8061073657506301ffc9a760e01b6001600160e01b0319831614610736565b60006001612ed684611002565b612ee09190613d42565b600083815260986020526040902054909150808214612f33576001600160a01b03841660009081526097602090815260408083208584528252808320548484528184208190558352609890915290208190555b5060009182526098602090815260408084208490556001600160a01b039094168352609781528383209183525290812055565b609954600090612f7890600190613d42565b6000838152609a602052604081205460998054939450909284908110612fa057612fa061386b565b906000526020600020015490508060998381548110612fc157612fc161386b565b6000918252602080832090910192909255828152609a90915260408082208490558582528120556099805480612ff957612ff9613f8d565b6001900381819060005260206000200160009055905550505050565b600061302083611002565b6001600160a01b039093166000908152609760209081526040808320868452825280832085905593825260989052919091209190915550565b508054613065906137e3565b6000825580601f10613075575050565b601f016020900490600052602060002090810190610d6091905b808211156130a3576000815560010161308f565b5090565b6001600160e01b031981168114610d6057600080fd5b6000602082840312156130cf57600080fd5b813561139e816130a7565b60005b838110156130f55781810151838201526020016130dd565b50506000910152565b600081518084526131168160208601602086016130da565b601f01601f19169290920160200192915050565b60208152600061139e60208301846130fe565b6000806040838503121561315057600080fd5b50508035926020909101359150565b60006020828403121561317157600080fd5b5035919050565b80356001600160a01b038116811461318f57600080fd5b919050565b600080604083850312156131a757600080fd5b6131b083613178565b946020939093013593505050565b6000806000606084860312156131d357600080fd5b6131dc84613178565b92506131ea60208501613178565b9150604084013590509250925092565b634e487b7160e01b600052604160045260246000fd5b604051601f8201601f191681016001600160401b0381118282101715613238576132386131fa565b604052919050565b600082601f83011261325157600080fd5b813560206001600160401b0382111561326c5761326c6131fa565b8160051b61327b828201613210565b928352848101820192828101908785111561329557600080fd5b83870192505b848310156132b45782358252918301919083019061329b565b979650505050505050565b6000602082840312156132d157600080fd5b81356001600160401b038111156132e757600080fd5b611c3184828501613240565b6000602080830181845280855180835260408601915060408160051b870101925083870160005b8281101561334857603f198886030184526133368583516130fe565b9450928501929085019060010161331a565b5092979650505050505050565b6000806040838503121561336857600080fd5b8235915061337860208401613178565b90509250929050565b6000806040838503121561339457600080fd5b82356001600160401b038111156133aa57600080fd5b6133b685828601613240565b95602094909401359450505050565b6000806000606084860312156133da57600080fd5b505081359360208301359350604090920135919050565b6000806040838503121561340457600080fd5b61340d83613178565b915060208301356001600160401b0381111561342857600080fd5b61343485828601613240565b9150509250929050565b60006001600160401b03831115613457576134576131fa565b61346a601f8401601f1916602001613210565b905082815283838301111561347e57600080fd5b828260208301376000602084830101529392505050565b600082601f8301126134a657600080fd5b61139e8383356020850161343e565b6000602082840312156134c757600080fd5b81356001600160401b038111156134dd57600080fd5b611c3184828501613495565b6000602082840312156134fb57600080fd5b61139e82613178565b6020808252825182820181905260009190848201906040850190845b8181101561353c57835183529284019291840191600101613520565b50909695505050505050565b6000806040838503121561355b57600080fd5b8235915060208301356001600160401b0381111561342857600080fd5b6000806040838503121561358b57600080fd5b61359483613178565b9150602083013580151581146135a957600080fd5b809150509250929050565b600080600080608085870312156135ca57600080fd5b5050823594602084013594506040840135936060013592509050565b600080600080608085870312156135fc57600080fd5b61360585613178565b935061361360208601613178565b92506040850135915060608501356001600160401b0381111561363557600080fd5b8501601f8101871361364657600080fd5b6136558782356020840161343e565b91505092959194509250565b60008060006060848603121561367657600080fd5b833592506020840135915060408401356001600160401b0381111561369a57600080fd5b6136a686828701613240565b9150509250925092565b6000806000606084860312156136c557600080fd5b83356001600160401b03808211156136dc57600080fd5b6136e887838801613240565b945060208601359150808211156136fe57600080fd5b61370a87838801613240565b9350604086013591508082111561372057600080fd5b506136a686828701613240565b6000806040838503121561374057600080fd5b61374983613178565b915061337860208401613178565b60008060006060848603121561376c57600080fd5b833592506020840135915060408401356001600160401b0381111561379057600080fd5b6136a686828701613495565b6000806000606084860312156137b157600080fd5b6137ba84613178565b92506137c860208501613178565b915060408401356001600160401b0381111561369a57600080fd5b600181811c908216806137f757607f821691505b60208210810361381757634e487b7160e01b600052602260045260246000fd5b50919050565b6020808252602e908201527f4552433732313a2063616c6c6572206973206e6f7420746f6b656e206f776e6560408201526d1c881b9bdc88185c1c1c9bdd995960921b606082015260800190565b634e487b7160e01b600052603260045260246000fd5b634e487b7160e01b600052601160045260246000fd5b6000600182016138a9576138a9613881565b5060010190565b601f8211156109b957600081815260208120601f850160051c810160208610156138d75750805b601f850160051c820191505b818110156138f6578281556001016138e3565b505050505050565b81516001600160401b03811115613917576139176131fa565b61392b8161392584546137e3565b846138b0565b602080601f83116001811461396057600084156139485750858301515b600019600386901b1c1916600185901b1785556138f6565b600085815260208120601f198616915b8281101561398f57888601518255948401946001909101908401613970565b50858210156139ad5787850151600019600388901b60f8161c191681555b5050505050600190811b01905550565b828152604060208201526000611c3160408301846130fe565b600081516139e88185602086016130da565b9290920192915050565b6000808454613a00816137e3565b60018281168015613a185760018114613a2d57613a5c565b60ff1984168752821515830287019450613a5c565b8860005260208060002060005b85811015613a535781548a820152908401908201613a3a565b50505082870194505b505050508351613a708183602088016130da565b01949350505050565b7f226e616d65223a22436f736d69632049736c616e64204c616e6420506c6f74208152602360f81b602082015260008451613abb8160218501602089016130da565b61088b60f21b60219184019182018190527f226465736372697074696f6e223a224c616e6420706c6f74206f6e20436f736d60238301526a1a58c8125cdb185b99088b60aa1b6043830152681134b6b0b3b2911d1160b91b604e8301528551613b2b816057850160208a016130da565b6057920191820152681137bbb732b9111d1160b91b60598201528351613b588160628401602088016130da565b6132b4613b7260628385010161088b60f21b815260020190565b6f089d1e5c19488e88915490cdcc8c488b60821b815260100190565b6e2261747472696275746573223a205b60881b81526000607b60f81b80600f8401527f2274726169745f74797065223a20226c61746974756465222c200000000000006010840152680113b30b63ab2911d160bd1b80602a8501528651613bfc816033870160208b016130da565b80850190506203e96160ed1b60338201528260368201527f2274726169745f74797065223a20226c6f6e676974756465222c200000000000603782015281605282015286519250613c5483605b830160208a016130da565b613ce9613cdc613ccf613cc9613cb4613c8b613c7e605b8a8901016203e96160ed1b815260030190565b607b60f81b815260010190565b7f2274726169745f74797065223a2022726567696f6e222c200000000000000000815260180190565b680113b30b63ab2911d160bd1b815260090190565b896139d6565b607d60f81b815260010190565b605d60f81b815260010190565b98975050505050505050565b607b60f81b815260008351613d118160018501602088016130da565b835190830190613d288160018401602088016130da565b607d60f81b60019290910191820152600201949350505050565b8181038181111561073657610736613881565b8082018082111561073657610736613881565b6020808252602b908201527f496e697469616c697a61626c653a20636f6e7472616374206973206e6f74206960408201526a6e697469616c697a696e6760a81b606082015260800190565b60208082526032908201527f4552433732313a207472616e7366657220746f206e6f6e20455243373231526560408201527131b2b4bb32b91034b6b83632b6b2b73a32b960711b606082015260800190565b7f646174613a6170706c69636174696f6e2f6a736f6e3b6261736536342c000000815260008251613e3d81601d8501602087016130da565b91909101601d0192915050565b634e487b7160e01b600052601260045260246000fd5b600082613e6f57613e6f613e4a565b500490565b600082613e8357613e83613e4a565b500690565b7f416363657373436f6e74726f6c3a206163636f756e7420000000000000000000815260008351613ec08160178501602088016130da565b7001034b99036b4b9b9b4b733903937b6329607d1b6017918401918201528351613ef18160288401602088016130da565b01602801949350505050565b6001600160a01b0385811682528416602082015260408101839052608060608201819052600090613f30908301846130fe565b9695505050505050565b600060208284031215613f4c57600080fd5b815161139e816130a7565b6000816000190483118215151615613f7157613f71613881565b500290565b600081613f8557613f85613881565b506000190190565b634e487b7160e01b600052603160045260246000fdfe4142434445464748494a4b4c4d4e4f505152535455565758595a6162636465666768696a6b6c6d6e6f707172737475767778797a303132333435363738392b2f9f2df0fed2c77648de5860a4cc508cd0818c85b8b8a1ab4ceeef8d981c8956a6a49807205ce4d355092ef5a8a18f56e8913cf4a201fbe287825b095693c21775a264697066735822122014534f8d96d4b6a30f177ccdd6b7dbae76e4649a9d5ce23f37046f1bc0f3463e64736f6c63430008100033",
  "linkReferences": {},
  "deployedLinkReferences": {}
}