{
  "_format": "hh-sol-artifact-1",
  "contractName": "CosmicIslandLand",
  "sourceName": "contracts/upgradeable/ERC721/CosmicIslandLand.sol",
  "abi": [
    {
      "inputs": [],
      "stateMutability": "nonpayable",
      "type": "constructor"
    },
    {
      "anonymous": false,
      "inputs": [
        {
          "indexed": true,
          "internalType": "address",
          "name": "owner",
          "type": "address"
        },
        {
          "indexed": true,
          "internalType": "address",
          "name": "approved",
          "type": "address"
        },
        {
          "indexed": true,
          "internalType": "uint256",
          "name": "tokenId",
          "type": "uint256"
        }
      ],
      "name": "Approval",
      "type": "event"
    },
    {
      "anonymous": false,
      "inputs": [
        {
          "indexed": true,
          "internalType": "address",
          "name": "owner",
          "type": "address"
        },
        {
          "indexed": true,
          "internalType": "address",
          "name": "operator",
          "type": "address"
        },
        {
          "indexed": false,
          "internalType": "bool",
          "name": "approved",
          "type": "bool"
        }
      ],
      "name": "ApprovalForAll",
      "type": "event"
    },
    {
      "anonymous": false,
      "inputs": [
        {
          "indexed": false,
          "internalType": "uint8",
          "name": "version",
          "type": "uint8"
        }
      ],
      "name": "Initialized",
      "type": "event"
    },
    {
      "anonymous": false,
      "inputs": [
        {
          "indexed": false,
          "internalType": "address",
          "name": "account",
          "type": "address"
        }
      ],
      "name": "Paused",
      "type": "event"
    },
    {
      "anonymous": false,
      "inputs": [
        {
          "indexed": true,
          "internalType": "bytes32",
          "name": "role",
          "type": "bytes32"
        },
        {
          "indexed": true,
          "internalType": "bytes32",
          "name": "previousAdminRole",
          "type": "bytes32"
        },
        {
          "indexed": true,
          "internalType": "bytes32",
          "name": "newAdminRole",
          "type": "bytes32"
        }
      ],
      "name": "RoleAdminChanged",
      "type": "event"
    },
    {
      "anonymous": false,
      "inputs": [
        {
          "indexed": true,
          "internalType": "bytes32",
          "name": "role",
          "type": "bytes32"
        },
        {
          "indexed": true,
          "internalType": "address",
          "name": "account",
          "type": "address"
        },
        {
          "indexed": true,
          "internalType": "address",
          "name": "sender",
          "type": "address"
        }
      ],
      "name": "RoleGranted",
      "type": "event"
    },
    {
      "anonymous": false,
      "inputs": [
        {
          "indexed": true,
          "internalType": "bytes32",
          "name": "role",
          "type": "bytes32"
        },
        {
          "indexed": true,
          "internalType": "address",
          "name": "account",
          "type": "address"
        },
        {
          "indexed": true,
          "internalType": "address",
          "name": "sender",
          "type": "address"
        }
      ],
      "name": "RoleRevoked",
      "type": "event"
    },
    {
      "anonymous": false,
      "inputs": [
        {
          "indexed": true,
          "internalType": "uint256",
          "name": "tokenId",
          "type": "uint256"
        },
        {
          "indexed": false,
          "internalType": "uint256",
          "name": "customId",
          "type": "uint256"
        },
        {
          "indexed": false,
          "internalType": "string",
          "name": "value",
          "type": "string"
        }
      ],
      "name": "TextUpdated",
      "type": "event"
    },
    {
      "anonymous": false,
      "inputs": [
        {
          "indexed": true,
          "internalType": "address",
          "name": "from",
          "type": "address"
        },
        {
          "indexed": true,
          "internalType": "address",
          "name": "to",
          "type": "address"
        },
        {
          "indexed": true,
          "internalType": "uint256",
          "name": "tokenId",
          "type": "uint256"
        }
      ],
      "name": "Transfer",
      "type": "event"
    },
    {
      "anonymous": false,
      "inputs": [
        {
          "indexed": false,
          "internalType": "address",
          "name": "account",
          "type": "address"
        }
      ],
      "name": "Unpaused",
      "type": "event"
    },
    {
      "anonymous": false,
      "inputs": [
        {
          "indexed": true,
          "internalType": "uint256",
          "name": "tokenId",
          "type": "uint256"
        },
        {
          "indexed": false,
          "internalType": "uint256",
          "name": "treeId",
          "type": "uint256"
        },
        {
          "indexed": false,
          "internalType": "uint256",
          "name": "skillId",
          "type": "uint256"
        },
        {
          "indexed": false,
          "internalType": "uint256",
          "name": "value",
          "type": "uint256"
        }
      ],
      "name": "ValueUpdated",
      "type": "event"
    },
    {
      "inputs": [],
      "name": "ADMIN_ROLE",
      "outputs": [
        {
          "internalType": "bytes32",
          "name": "",
          "type": "bytes32"
        }
      ],
      "stateMutability": "view",
      "type": "function"
    },
    {
      "inputs": [],
      "name": "CONTRACT_ROLE",
      "outputs": [
        {
          "internalType": "bytes32",
          "name": "",
          "type": "bytes32"
        }
      ],
      "stateMutability": "view",
      "type": "function"
    },
    {
      "inputs": [],
      "name": "DEFAULT_ADMIN_ROLE",
      "outputs": [
        {
          "internalType": "bytes32",
          "name": "",
          "type": "bytes32"
        }
      ],
      "stateMutability": "view",
      "type": "function"
    },
    {
      "inputs": [],
      "name": "MINTER_ROLE",
      "outputs": [
        {
          "internalType": "bytes32",
          "name": "",
          "type": "bytes32"
        }
      ],
      "stateMutability": "view",
      "type": "function"
    },
    {
      "inputs": [
        {
          "internalType": "address",
          "name": "from",
          "type": "address"
        },
        {
          "internalType": "address[]",
          "name": "accounts",
          "type": "address[]"
        },
        {
          "internalType": "uint256[]",
          "name": "tokenIds",
          "type": "uint256[]"
        }
      ],
      "name": "adminRescue",
      "outputs": [],
      "stateMutability": "nonpayable",
      "type": "function"
    },
    {
      "inputs": [
        {
          "internalType": "address",
          "name": "to",
          "type": "address"
        },
        {
          "internalType": "uint256",
          "name": "tokenId",
          "type": "uint256"
        }
      ],
      "name": "approve",
      "outputs": [],
      "stateMutability": "nonpayable",
      "type": "function"
    },
    {
      "inputs": [
        {
          "internalType": "address",
          "name": "owner",
          "type": "address"
        }
      ],
      "name": "balanceOf",
      "outputs": [
        {
          "internalType": "uint256",
          "name": "",
          "type": "uint256"
        }
      ],
      "stateMutability": "view",
      "type": "function"
    },
    {
      "inputs": [
        {
          "internalType": "address",
          "name": "to",
          "type": "address"
        },
        {
          "internalType": "uint256[]",
          "name": "tokenIds",
          "type": "uint256[]"
        }
      ],
      "name": "batchMint",
      "outputs": [],
      "stateMutability": "nonpayable",
      "type": "function"
    },
    {
      "inputs": [
        {
          "internalType": "uint256[]",
          "name": "tokenIds",
          "type": "uint256[]"
        }
      ],
      "name": "batchTokenURI",
      "outputs": [
        {
          "internalType": "string[]",
          "name": "",
          "type": "string[]"
        }
      ],
      "stateMutability": "view",
      "type": "function"
    },
    {
      "inputs": [
        {
          "internalType": "uint256[]",
          "name": "tokenIds",
          "type": "uint256[]"
        }
      ],
      "name": "batchTokenURIJSON",
      "outputs": [
        {
          "internalType": "string[]",
          "name": "",
          "type": "string[]"
        }
      ],
      "stateMutability": "view",
      "type": "function"
    },
    {
      "inputs": [
        {
          "internalType": "address",
          "name": "from",
          "type": "address"
        },
        {
          "internalType": "address",
          "name": "to",
          "type": "address"
        },
        {
          "internalType": "uint256[]",
          "name": "tokenIds",
          "type": "uint256[]"
        }
      ],
      "name": "batchTransferFrom",
      "outputs": [],
      "stateMutability": "nonpayable",
      "type": "function"
    },
    {
      "inputs": [],
      "name": "bridgeContract",
      "outputs": [
        {
          "internalType": "address",
          "name": "",
          "type": "address"
        }
      ],
      "stateMutability": "view",
      "type": "function"
    },
    {
      "inputs": [
        {
          "internalType": "uint256",
          "name": "tokenId",
          "type": "uint256"
        }
      ],
      "name": "bridgeExtraData",
      "outputs": [
        {
          "internalType": "bytes",
          "name": "",
          "type": "bytes"
        }
      ],
      "stateMutability": "view",
      "type": "function"
    },
    {
      "inputs": [
        {
          "internalType": "uint256",
          "name": "tokenId",
          "type": "uint256"
        }
      ],
      "name": "burn",
      "outputs": [],
      "stateMutability": "nonpayable",
      "type": "function"
    },
    {
      "inputs": [],
      "name": "getAllTokenIds",
      "outputs": [
        {
          "internalType": "uint256[]",
          "name": "",
          "type": "uint256[]"
        }
      ],
      "stateMutability": "view",
      "type": "function"
    },
    {
      "inputs": [
        {
          "internalType": "uint256",
          "name": "tokenId",
          "type": "uint256"
        }
      ],
      "name": "getApproved",
      "outputs": [
        {
          "internalType": "address",
          "name": "",
          "type": "address"
        }
      ],
      "stateMutability": "view",
      "type": "function"
    },
    {
      "inputs": [
        {
          "internalType": "bytes32",
          "name": "role",
          "type": "bytes32"
        }
      ],
      "name": "getRoleAdmin",
      "outputs": [
        {
          "internalType": "bytes32",
          "name": "",
          "type": "bytes32"
        }
      ],
      "stateMutability": "view",
      "type": "function"
    },
    {
      "inputs": [
        {
          "internalType": "bytes32",
          "name": "role",
          "type": "bytes32"
        },
        {
          "internalType": "uint256",
          "name": "index",
          "type": "uint256"
        }
      ],
      "name": "getRoleMember",
      "outputs": [
        {
          "internalType": "address",
          "name": "",
          "type": "address"
        }
      ],
      "stateMutability": "view",
      "type": "function"
    },
    {
      "inputs": [
        {
          "internalType": "bytes32",
          "name": "role",
          "type": "bytes32"
        }
      ],
      "name": "getRoleMemberCount",
      "outputs": [
        {
          "internalType": "uint256",
          "name": "",
          "type": "uint256"
        }
      ],
      "stateMutability": "view",
      "type": "function"
    },
    {
      "inputs": [
        {
          "internalType": "uint256",
          "name": "tokenId",
          "type": "uint256"
        },
        {
          "internalType": "uint256",
          "name": "treeId",
          "type": "uint256"
        },
        {
          "internalType": "uint256",
          "name": "skillId",
          "type": "uint256"
        }
      ],
      "name": "getSkill",
      "outputs": [
        {
          "internalType": "uint256",
          "name": "value",
          "type": "uint256"
        }
      ],
      "stateMutability": "view",
      "type": "function"
    },
    {
      "inputs": [
        {
          "internalType": "uint256",
          "name": "tokenId",
          "type": "uint256"
        },
        {
          "internalType": "uint256",
          "name": "treeId",
          "type": "uint256"
        },
        {
          "internalType": "uint256[]",
          "name": "skillIds",
          "type": "uint256[]"
        }
      ],
      "name": "getSkillsByTree",
      "outputs": [
        {
          "internalType": "uint256[]",
          "name": "",
          "type": "uint256[]"
        }
      ],
      "stateMutability": "view",
      "type": "function"
    },
    {
      "inputs": [
        {
          "internalType": "uint256",
          "name": "tokenId",
          "type": "uint256"
        },
        {
          "internalType": "uint256",
          "name": "customId",
          "type": "uint256"
        }
      ],
      "name": "getString",
      "outputs": [
        {
          "internalType": "string",
          "name": "value",
          "type": "string"
        }
      ],
      "stateMutability": "view",
      "type": "function"
    },
    {
      "inputs": [
        {
          "internalType": "uint256[]",
          "name": "tokenIds",
          "type": "uint256[]"
        },
        {
          "internalType": "uint256",
          "name": "customId",
          "type": "uint256"
        }
      ],
      "name": "getStringOfTokens",
      "outputs": [
        {
          "internalType": "string[]",
          "name": "",
          "type": "string[]"
        }
      ],
      "stateMutability": "view",
      "type": "function"
    },
    {
      "inputs": [
        {
          "internalType": "uint256",
          "name": "tokenId",
          "type": "uint256"
        },
        {
          "internalType": "uint256[]",
          "name": "customIds",
          "type": "uint256[]"
        }
      ],
      "name": "getStrings",
      "outputs": [
        {
          "internalType": "string[]",
          "name": "",
          "type": "string[]"
        }
      ],
      "stateMutability": "view",
      "type": "function"
    },
    {
      "inputs": [
        {
          "internalType": "bytes32",
          "name": "role",
          "type": "bytes32"
        },
        {
          "internalType": "address",
          "name": "account",
          "type": "address"
        }
      ],
      "name": "grantRole",
      "outputs": [],
      "stateMutability": "nonpayable",
      "type": "function"
    },
    {
      "inputs": [
        {
          "internalType": "bytes32",
          "name": "role",
          "type": "bytes32"
        },
        {
          "internalType": "address",
          "name": "account",
          "type": "address"
        }
      ],
      "name": "hasRole",
      "outputs": [
        {
          "internalType": "bool",
          "name": "",
          "type": "bool"
        }
      ],
      "stateMutability": "view",
      "type": "function"
    },
    {
      "inputs": [],
      "name": "imageBaseURI",
      "outputs": [
        {
          "internalType": "string",
          "name": "",
          "type": "string"
        }
      ],
      "stateMutability": "view",
      "type": "function"
    },
    {
      "inputs": [],
      "name": "initialize",
      "outputs": [],
      "stateMutability": "nonpayable",
      "type": "function"
    },
    {
      "inputs": [
        {
          "internalType": "address",
          "name": "owner",
          "type": "address"
        },
        {
          "internalType": "address",
          "name": "operator",
          "type": "address"
        }
      ],
      "name": "isApprovedForAll",
      "outputs": [
        {
          "internalType": "bool",
          "name": "",
          "type": "bool"
        }
      ],
      "stateMutability": "view",
      "type": "function"
    },
    {
      "inputs": [
        {
          "internalType": "address",
          "name": "to",
          "type": "address"
        },
        {
          "internalType": "uint256",
          "name": "tokenId",
          "type": "uint256"
        }
      ],
      "name": "mint",
      "outputs": [],
      "stateMutability": "nonpayable",
      "type": "function"
    },
    {
      "inputs": [
        {
          "internalType": "address",
          "name": "to",
          "type": "address"
        },
        {
          "internalType": "uint256",
          "name": "tokenId",
          "type": "uint256"
        },
        {
          "internalType": "bytes",
          "name": "data",
          "type": "bytes"
        }
      ],
      "name": "mint",
      "outputs": [],
      "stateMutability": "nonpayable",
      "type": "function"
    },
    {
      "inputs": [],
      "name": "name",
      "outputs": [
        {
          "internalType": "string",
          "name": "",
          "type": "string"
        }
      ],
      "stateMutability": "view",
      "type": "function"
    },
    {
      "inputs": [
        {
          "internalType": "uint256",
          "name": "tokenId",
          "type": "uint256"
        }
      ],
      "name": "ownerOf",
      "outputs": [
        {
          "internalType": "address",
          "name": "",
          "type": "address"
        }
      ],
      "stateMutability": "view",
      "type": "function"
    },
    {
      "inputs": [],
      "name": "pause",
      "outputs": [],
      "stateMutability": "nonpayable",
      "type": "function"
    },
    {
      "inputs": [],
      "name": "paused",
      "outputs": [
        {
          "internalType": "bool",
          "name": "",
          "type": "bool"
        }
      ],
      "stateMutability": "view",
      "type": "function"
    },
    {
      "inputs": [
        {
          "internalType": "bytes32",
          "name": "role",
          "type": "bytes32"
        },
        {
          "internalType": "address",
          "name": "account",
          "type": "address"
        }
      ],
      "name": "renounceRole",
      "outputs": [],
      "stateMutability": "nonpayable",
      "type": "function"
    },
    {
      "inputs": [
        {
          "internalType": "bytes32",
          "name": "role",
          "type": "bytes32"
        },
        {
          "internalType": "address",
          "name": "account",
          "type": "address"
        }
      ],
      "name": "revokeRole",
      "outputs": [],
      "stateMutability": "nonpayable",
      "type": "function"
    },
    {
      "inputs": [
        {
          "internalType": "address",
          "name": "from",
          "type": "address"
        },
        {
          "internalType": "address",
          "name": "to",
          "type": "address"
        },
        {
          "internalType": "uint256",
          "name": "tokenId",
          "type": "uint256"
        }
      ],
      "name": "safeTransferFrom",
      "outputs": [],
      "stateMutability": "nonpayable",
      "type": "function"
    },
    {
      "inputs": [
        {
          "internalType": "address",
          "name": "from",
          "type": "address"
        },
        {
          "internalType": "address",
          "name": "to",
          "type": "address"
        },
        {
          "internalType": "uint256",
          "name": "tokenId",
          "type": "uint256"
        },
        {
          "internalType": "bytes",
          "name": "data",
          "type": "bytes"
        }
      ],
      "name": "safeTransferFrom",
      "outputs": [],
      "stateMutability": "nonpayable",
      "type": "function"
    },
    {
      "inputs": [
        {
          "internalType": "address",
          "name": "operator",
          "type": "address"
        },
        {
          "internalType": "bool",
          "name": "approved",
          "type": "bool"
        }
      ],
      "name": "setApprovalForAll",
      "outputs": [],
      "stateMutability": "nonpayable",
      "type": "function"
    },
    {
      "inputs": [
        {
          "internalType": "string",
          "name": "_imageBaseURI",
          "type": "string"
        }
      ],
      "name": "setImageBaseURI",
      "outputs": [],
      "stateMutability": "nonpayable",
      "type": "function"
    },
    {
      "inputs": [
        {
          "internalType": "uint256",
          "name": "tokenId",
          "type": "uint256"
        },
        {
          "internalType": "uint256",
          "name": "attrId",
          "type": "uint256"
        },
        {
          "internalType": "uint256",
          "name": "value",
          "type": "uint256"
        }
      ],
      "name": "setTokenURI",
      "outputs": [],
      "stateMutability": "nonpayable",
      "type": "function"
    },
    {
      "inputs": [
        {
          "internalType": "uint256[]",
          "name": "tokenIds",
          "type": "uint256[]"
        },
        {
          "internalType": "uint256[]",
          "name": "attrIds",
          "type": "uint256[]"
        },
        {
          "internalType": "uint256[]",
          "name": "values",
          "type": "uint256[]"
        }
      ],
      "name": "setTokenURIs",
      "outputs": [],
      "stateMutability": "nonpayable",
      "type": "function"
    },
    {
      "inputs": [
        {
          "internalType": "bytes4",
          "name": "interfaceId",
          "type": "bytes4"
        }
      ],
      "name": "supportsInterface",
      "outputs": [
        {
          "internalType": "bool",
          "name": "",
          "type": "bool"
        }
      ],
      "stateMutability": "view",
      "type": "function"
    },
    {
      "inputs": [],
      "name": "symbol",
      "outputs": [
        {
          "internalType": "string",
          "name": "",
          "type": "string"
        }
      ],
      "stateMutability": "view",
      "type": "function"
    },
    {
      "inputs": [
        {
          "internalType": "uint256",
          "name": "index",
          "type": "uint256"
        }
      ],
      "name": "tokenByIndex",
      "outputs": [
        {
          "internalType": "uint256",
          "name": "",
          "type": "uint256"
        }
      ],
      "stateMutability": "view",
      "type": "function"
    },
    {
      "inputs": [
        {
          "internalType": "address",
          "name": "owner",
          "type": "address"
        },
        {
          "internalType": "uint256",
          "name": "index",
          "type": "uint256"
        }
      ],
      "name": "tokenOfOwnerByIndex",
      "outputs": [
        {
          "internalType": "uint256",
          "name": "",
          "type": "uint256"
        }
      ],
      "stateMutability": "view",
      "type": "function"
    },
    {
      "inputs": [
        {
          "internalType": "uint256",
          "name": "tokenId",
          "type": "uint256"
        }
      ],
      "name": "tokenURI",
      "outputs": [
        {
          "internalType": "string",
          "name": "",
          "type": "string"
        }
      ],
      "stateMutability": "view",
      "type": "function"
    },
    {
      "inputs": [
        {
          "internalType": "uint256",
          "name": "tokenId",
          "type": "uint256"
        }
      ],
      "name": "tokenURIJSON",
      "outputs": [
        {
          "internalType": "string",
          "name": "",
          "type": "string"
        }
      ],
      "stateMutability": "view",
      "type": "function"
    },
    {
      "inputs": [
        {
          "internalType": "address",
          "name": "owner",
          "type": "address"
        }
      ],
      "name": "tokensOfOwner",
      "outputs": [
        {
          "internalType": "uint256[]",
          "name": "",
          "type": "uint256[]"
        }
      ],
      "stateMutability": "view",
      "type": "function"
    },
    {
      "inputs": [],
      "name": "totalSupply",
      "outputs": [
        {
          "internalType": "uint256",
          "name": "",
          "type": "uint256"
        }
      ],
      "stateMutability": "view",
      "type": "function"
    },
    {
      "inputs": [
        {
          "internalType": "address",
          "name": "from",
          "type": "address"
        },
        {
          "internalType": "address",
          "name": "to",
          "type": "address"
        },
        {
          "internalType": "uint256",
          "name": "tokenId",
          "type": "uint256"
        }
      ],
      "name": "transferFrom",
      "outputs": [],
      "stateMutability": "nonpayable",
      "type": "function"
    },
    {
      "inputs": [],
      "name": "unpause",
      "outputs": [],
      "stateMutability": "nonpayable",
      "type": "function"
    },
    {
      "inputs": [
        {
          "internalType": "uint256",
          "name": "tokenId",
          "type": "uint256"
        },
        {
          "internalType": "uint256",
          "name": "treeId",
          "type": "uint256"
        },
        {
          "internalType": "uint256",
          "name": "skillId",
          "type": "uint256"
        },
        {
          "internalType": "uint256",
          "name": "value",
          "type": "uint256"
        }
      ],
      "name": "updateSkill",
      "outputs": [],
      "stateMutability": "nonpayable",
      "type": "function"
    },
    {
      "inputs": [
        {
          "internalType": "uint256",
          "name": "tokenId",
          "type": "uint256"
        },
        {
          "internalType": "uint256",
          "name": "customId",
          "type": "uint256"
        },
        {
          "internalType": "string",
          "name": "value",
          "type": "string"
        }
      ],
      "name": "updateString",
      "outputs": [],
      "stateMutability": "nonpayable",
      "type": "function"
    }
  ],
  "bytecode": "0x60806040523480156200001157600080fd5b506200001c62000022565b620000e4565b600054610100900460ff16156200008f5760405162461bcd60e51b815260206004820152602760248201527f496e697469616c697a61626c653a20636f6e747261637420697320696e697469604482015266616c697a696e6760c81b606482015260840160405180910390fd5b60005460ff9081161015620000e2576000805460ff191660ff9081179091556040519081527f7f26b83ff96e1f2b6a682f133852f6798a09c465da95921460cefb38474024989060200160405180910390a15b565b61451180620000f46000396000f3fe608060405234801561001057600080fd5b506004361061035d5760003560e01c806377645839116101d3578063b88d4fde11610104578063d547741f116100a2578063e985e9c51161007c578063e985e9c51461077d578063ed0af209146107b9578063f3993d11146107cc578063fe459f5c146107df57600080fd5b8063d547741f14610744578063dd69f3f714610757578063e3a829fe1461076a57600080fd5b8063c87b56dd116100de578063c87b56dd146106f5578063ca15c87314610708578063cd5965831461071b578063d53913931461072f57600080fd5b8063b88d4fde146106c7578063bdbed722146106da578063c7e05590146106e257600080fd5b806394d008ef116101715780639e8afe471161014b5780639e8afe4714610686578063a217fddf14610699578063a22cb465146106a1578063b5afb120146106b457600080fd5b806394d008ef1461064a57806395d89b411461065d5780639b9284f91461066557600080fd5b80638462151c116101ad5780638462151c146105f15780638a79ecbd146106115780639010d07c1461062457806391d148541461063757600080fd5b806377645839146105d95780638129fc1c146105e15780638456cb59146105e957600080fd5b806336568abe116102ad5780634f6ccce71161024b5780636cfa24cc116102255780636cfa24cc1461058b5780636d94f13a1461059e57806370a08231146105b157806375b238fc146105c457600080fd5b80634f6ccce7146105595780635c975abb1461056c5780636352211e1461057857600080fd5b806342842e0e1161028757806342842e0e146104ed57806342966c68146105005780634594762a146105135780634684d7e91461054657600080fd5b806336568abe146104bf5780633f4ba83a146104d257806340c10f19146104da57600080fd5b806318160ddd1161031a5780632c303493116102f45780632c303493146104665780632f2ff15d146104865780632f745c5914610499578063352b7533146104ac57600080fd5b806318160ddd1461042757806323b872dd1461042f578063248a9ca31461044257600080fd5b806301ffc9a71461036257806303fe46ab1461038a57806306fdde03146103bf578063079be493146103d4578063081812fc146103e7578063095ea7b314610412575b600080fd5b610375610370366004613458565b6107f2565b60405190151581526020015b60405180910390f35b6103b17f364d3d7565c7a8300c96fd53e065d19b65848d7b23b3191adcd55621c744223c81565b604051908152602001610381565b6103c761081d565b60405161038191906134c5565b6103c76103e23660046134d8565b6108af565b6103fa6103f53660046134fa565b61095e565b6040516001600160a01b039091168152602001610381565b61042561042036600461352f565b610985565b005b6099546103b1565b61042561043d366004613559565b610a9f565b6103b16104503660046134fa565b600090815261015f602052604090206001015490565b610479610474366004613669565b610ad1565b604051610381919061369d565b6104256104943660046136ff565b610b89565b6103b16104a736600461352f565b610baf565b6104796104ba36600461372b565b610c45565b6104256104cd3660046136ff565b610da3565b610425610e21565b6104256104e836600461352f565b610e44565b6104256104fb366004613559565b610e66565b61042561050e3660046134fa565b610e81565b6103b161052136600461376f565b600092835261025c602090815260408085209385529281528284209184525290205490565b61042561055436600461379b565b610e8a565b6103b16105673660046134fa565b610ee9565b61012d5460ff16610375565b6103fa6105863660046134fa565b610f7c565b610425610599366004613857565b610fdc565b6104796105ac366004613669565b611000565b6103b16105bf36600461388b565b6110b1565b6103b16000805160206144bc83398151915281565b6103c7611137565b6104256111c5565b61042561137b565b6106046105ff36600461388b565b61139b565b60405161038191906138a6565b61042561061f3660046138ea565b611434565b6103fa6106323660046134d8565b61153f565b6103756106453660046136ff565b61155f565b6104256106583660046139bb565b61158b565b6103c76115b6565b6103c76106733660046134fa565b5060408051602081019091526000815290565b610479610694366004613a07565b6115c5565b6103b1600081565b6104256106af366004613a37565b61171b565b6104256106c2366004613a73565b611726565b6104256106d5366004613aa5565b6117bd565b6106046117ef565b6106046106f0366004613b0c565b611887565b6103c76107033660046134fa565b61195c565b6103b16107163660046134fa565b61196f565b61025e546103fa906001600160a01b031681565b6103b160008051602061449c83398151915281565b6104256107523660046136ff565b611987565b610425610765366004613b51565b6119ad565b61042561077836600461376f565b611a59565b61037561078b366004613bce565b6001600160a01b039182166000908152606a6020908152604080832093909416825291909152205460ff1690565b6104256107c7366004613bf8565b611a8f565b6104256107da366004613c31565b611b1e565b6103c76107ed3660046134fa565b611b60565b60006001600160e01b0319821663808d85fd60e01b1480610817575061081782611c7d565b92915050565b60606065805461082c90613c78565b80601f016020809104026020016040519081016040528092919081815260200182805461085890613c78565b80156108a55780601f1061087a576101008083540402835291602001916108a5565b820191906000526020600020905b81548152906001019060200180831161088857829003601f168201915b5050505050905090565b600082815261025d6020908152604080832084845290915290208054606091906108d890613c78565b80601f016020809104026020016040519081016040528092919081815260200182805461090490613c78565b80156109515780601f1061092657610100808354040283529160200191610951565b820191906000526020600020905b81548152906001019060200180831161093457829003601f168201915b5050505050905092915050565b600061096982611c88565b506000908152606960205260409020546001600160a01b031690565b600061099082610f7c565b9050806001600160a01b0316836001600160a01b031603610a025760405162461bcd60e51b815260206004820152602160248201527f4552433732313a20617070726f76616c20746f2063757272656e74206f776e656044820152603960f91b60648201526084015b60405180910390fd5b336001600160a01b0382161480610a1e5750610a1e813361078b565b610a905760405162461bcd60e51b815260206004820152603d60248201527f4552433732313a20617070726f76652063616c6c6572206973206e6f7420746f60448201527f6b656e206f776e6572206f7220617070726f76656420666f7220616c6c00000060648201526084016109f9565b610a9a8383611cd8565b505050565b610aaa335b82611d46565b610ac65760405162461bcd60e51b81526004016109f990613cb2565b610a9a838383611dc5565b6060600082516001600160401b03811115610aee57610aee613595565b604051908082528060200260200182016040528015610b2157816020015b6060815260200190600190039081610b0c5790505b50905060005b8351811015610b8257610b52848281518110610b4557610b45613cff565b6020026020010151611b60565b828281518110610b6457610b64613cff565b60200260200101819052508080610b7a90613d2b565b915050610b27565b5092915050565b600082815261015f6020526040902060010154610ba581611f36565b610a9a8383611f40565b6000610bba836110b1565b8210610c1c5760405162461bcd60e51b815260206004820152602b60248201527f455243373231456e756d657261626c653a206f776e657220696e646578206f7560448201526a74206f6620626f756e647360a81b60648201526084016109f9565b506001600160a01b03919091166000908152609760209081526040808320938352929052205490565b6060600083516001600160401b03811115610c6257610c62613595565b604051908082528060200260200182016040528015610c9557816020015b6060815260200190600190039081610c805790505b50905060005b8451811015610d9b5761025d6000868381518110610cbb57610cbb613cff565b6020026020010151815260200190815260200160002060008581526020019081526020016000208054610ced90613c78565b80601f0160208091040260200160405190810160405280929190818152602001828054610d1990613c78565b8015610d665780601f10610d3b57610100808354040283529160200191610d66565b820191906000526020600020905b815481529060010190602001808311610d4957829003601f168201915b5050505050828281518110610d7d57610d7d613cff565b60200260200101819052508080610d9390613d2b565b915050610c9b565b509392505050565b6001600160a01b0381163314610e135760405162461bcd60e51b815260206004820152602f60248201527f416363657373436f6e74726f6c3a2063616e206f6e6c792072656e6f756e636560448201526e103937b632b9903337b91039b2b63360891b60648201526084016109f9565b610e1d8282611f63565b5050565b6000805160206144bc833981519152610e3981611f36565b610e41611f86565b50565b60008051602061449c833981519152610e5c81611f36565b610a9a8383611fd9565b610a9a838383604051806020016040528060008152506117bd565b610e4181611ff3565b60008051602061449c833981519152610ea281611f36565b60005b8251811015610ee357610ed184848381518110610ec457610ec4613cff565b6020026020010151611fd9565b80610edb81613d2b565b915050610ea5565b50505050565b6000610ef460995490565b8210610f575760405162461bcd60e51b815260206004820152602c60248201527f455243373231456e756d657261626c653a20676c6f62616c20696e646578206f60448201526b7574206f6620626f756e647360a01b60648201526084016109f9565b60998281548110610f6a57610f6a613cff565b90600052602060002001549050919050565b6000818152606760205260408120546001600160a01b0316806108175760405162461bcd60e51b8152602060048201526018602482015277115490cdcc8c4e881a5b9d985b1a59081d1bdad95b88125160421b60448201526064016109f9565b6000805160206144bc833981519152610ff481611f36565b60fc610a9a8382613d8a565b6060600082516001600160401b0381111561101d5761101d613595565b60405190808252806020026020018201604052801561105057816020015b606081526020019060019003908161103b5790505b50905060005b8351811015610b825761108184828151811061107457611074613cff565b602002602001015161195c565b82828151811061109357611093613cff565b602002602001018190525080806110a990613d2b565b915050611056565b60006001600160a01b03821661111b5760405162461bcd60e51b815260206004820152602960248201527f4552433732313a2061646472657373207a65726f206973206e6f7420612076616044820152683634b21037bbb732b960b91b60648201526084016109f9565b506001600160a01b031660009081526068602052604090205490565b60fc805461114490613c78565b80601f016020809104026020016040519081016040528092919081815260200182805461117090613c78565b80156111bd5780601f10611192576101008083540402835291602001916111bd565b820191906000526020600020905b8154815290600101906020018083116111a057829003601f168201915b505050505081565b600054610100900460ff16158080156111e55750600054600160ff909116105b806111ff5750303b1580156111ff575060005460ff166001145b6112625760405162461bcd60e51b815260206004820152602e60248201527f496e697469616c697a61626c653a20636f6e747261637420697320616c72656160448201526d191e481a5b9a5d1a585b1a5e995960921b60648201526084016109f9565b6000805460ff191660011790558015611285576000805461ff0019166101001790555b6112d06040518060400160405280600c81526020016b10dbdcdb5a58d25cdb185b9960a21b8152506040518060400160405280600581526020016410d310539160da1b815250612075565b6112d86120a6565b6112e06120d7565b6112e86120fe565b6112f06120d7565b6112f86120a6565b611303600033611f40565b61131b6000805160206144bc83398151915233611f40565b61133360008051602061449c83398151915233611f40565b8015610e41576000805461ff0019169055604051600181527f7f26b83ff96e1f2b6a682f133852f6798a09c465da95921460cefb38474024989060200160405180910390a150565b6000805160206144bc83398151915261139381611f36565b610e4161212d565b606060006113a8836110b1565b90506000816001600160401b038111156113c4576113c4613595565b6040519080825280602002602001820160405280156113ed578160200160208202803683370190505b50905060005b82811015610d9b576114058582610baf565b82828151811061141757611417613cff565b60209081029190910101528061142c81613d2b565b9150506113f3565b6000805160206144bc83398151915261144c81611f36565b60008351116114945760405162461bcd60e51b81526020600482015260146024820152734163636f756e747320617272617920656d70747960601b60448201526064016109f9565b81518351146114dd5760405162461bcd60e51b8152602060048201526015602482015274082e4e4c2f240d8cadccee8d040dad2e6dac2e8c6d605b1b60448201526064016109f9565b60005b835181101561153857611526858583815181106114ff576114ff613cff565b602002602001015185848151811061151957611519613cff565b6020026020010151611dc5565b8061153081613d2b565b9150506114e0565b5050505050565b600082815261019160205260408120611558908361216b565b9392505050565b600091825261015f602090815260408084206001600160a01b0393909316845291905290205460ff1690565b60008051602061449c8339815191526115a381611f36565b6115ad8484611fd9565b610ee383612177565b60606066805461082c90613c78565b6060600082516001600160401b038111156115e2576115e2613595565b60405190808252806020026020018201604052801561161557816020015b60608152602001906001900390816116005790505b50905060005b8351811015610d9b5761025d6000868152602001908152602001600020600085838151811061164c5761164c613cff565b60200260200101518152602001908152602001600020805461166d90613c78565b80601f016020809104026020016040519081016040528092919081815260200182805461169990613c78565b80156116e65780601f106116bb576101008083540402835291602001916116e6565b820191906000526020600020905b8154815290600101906020018083116116c957829003601f168201915b50505050508282815181106116fd576116fd613cff565b6020026020010181905250808061171390613d2b565b91505061161b565b610e1d338383612183565b7f364d3d7565c7a8300c96fd53e065d19b65848d7b23b3191adcd55621c744223c61175081611f36565b600085815261025c602090815260408083208784528252808320868452825291829020849055815186815290810185905290810183905285907fc3bdb5f4a3cbb68ce4ebe3dda3660f3067add044dc5be3a047d818fd416663699060600160405180910390a25050505050565b6117c73383611d46565b6117e35760405162461bcd60e51b81526004016109f990613cb2565b610ee384848484612251565b606060006117fc60995490565b90506000816001600160401b0381111561181857611818613595565b604051908082528060200260200182016040528015611841578160200160208202803683370190505b50905060005b82811015610b825761185881610ee9565b82828151811061186a5761186a613cff565b60209081029190910101528061187f81613d2b565b915050611847565b6060600082516001600160401b038111156118a4576118a4613595565b6040519080825280602002602001820160405280156118cd578160200160208202803683370190505b50905060005b835181101561195357600086815261025c602090815260408083208884529091528120855190919086908490811061190d5761190d613cff565b602002602001015181526020019081526020016000205482828151811061193657611936613cff565b60209081029190910101528061194b81613d2b565b9150506118d3565b50949350505050565b606061081761196a83611b60565b612284565b600081815261019160205260408120610817906122b5565b600082815261015f60205260409020600101546119a381611f36565b610a9a8383611f63565b6000805160206144bc8339815191526119c581611f36565b60005b8451811015611538578281815181106119e3576119e3613cff565b602002602001015161025b6000878481518110611a0257611a02613cff565b602002602001015181526020019081526020016000206000868481518110611a2c57611a2c613cff565b60200260200101518152602001908152602001600020819055508080611a5190613d2b565b9150506119c8565b6000805160206144bc833981519152611a7181611f36565b50600092835261025b60209081526040808520938552929052912055565b7f364d3d7565c7a8300c96fd53e065d19b65848d7b23b3191adcd55621c744223c611ab981611f36565b600084815261025d602090815260408083208684529091529020611add8382613d8a565b50837fbf91c112c44cd8e958afe3106b290f594b5e23b83fcc88bdb9ac5da7f00be5698484604051611b10929190613e49565b60405180910390a250505050565b60005b8151811015610ee357611b4e8484848481518110611b4157611b41613cff565b6020026020010151610a9f565b80611b5881613d2b565b915050611b21565b600081815261025b60209081526040808320838052909152808220546001835281832054600284529183205460609391929160fc611b9d876122bf565b604051602001611bae929190613e7e565b60405160208183030381529060405290506000611bca87610f7c565b90506000611bd7886122bf565b83611bea846001600160a01b0316612351565b604051602001611bfc93929190613f05565b60405160208183030381529060405290506000611c18876122bf565b611c21876122bf565b611c2a876122bf565b604051602001611c3c93929190614025565b60405160208183030381529060405290508181604051602001611c6092919061418c565b604051602081830303815290604052975050505050505050919050565b600061081782612367565b611c918161238c565b610e415760405162461bcd60e51b8152602060048201526018602482015277115490cdcc8c4e881a5b9d985b1a59081d1bdad95b88125160421b60448201526064016109f9565b600081815260696020526040902080546001600160a01b0319166001600160a01b0384169081179091558190611d0d82610f7c565b6001600160a01b03167f8c5be1e5ebec7d5bd14f71427d1e84f3dd0314c0f7b2291e5b200ac8c7c3b92560405160405180910390a45050565b600080611d5283610f7c565b9050806001600160a01b0316846001600160a01b03161480611d9957506001600160a01b038082166000908152606a602090815260408083209388168352929052205460ff165b80611dbd5750836001600160a01b0316611db28461095e565b6001600160a01b0316145b949350505050565b826001600160a01b0316611dd882610f7c565b6001600160a01b031614611dfe5760405162461bcd60e51b81526004016109f9906141d9565b6001600160a01b038216611e605760405162461bcd60e51b8152602060048201526024808201527f4552433732313a207472616e7366657220746f20746865207a65726f206164646044820152637265737360e01b60648201526084016109f9565b611e6d8383836001612397565b826001600160a01b0316611e8082610f7c565b6001600160a01b031614611ea65760405162461bcd60e51b81526004016109f9906141d9565b600081815260696020908152604080832080546001600160a01b03199081169091556001600160a01b0387811680865260688552838620805460001901905590871680865283862080546001019055868652606790945282852080549092168417909155905184937fddf252ad1be2c89b69c2b068fc378daa952ba7f163c4a11628f55a4df523b3ef91a4505050565b610e418133612453565b611f4a82826124ac565b600082815261019160205260409020610a9a9082612533565b611f6d8282612548565b600082815261019160205260409020610a9a90826125b0565b611f8e6125c5565b61012d805460ff191690557f5db9ee0a495bf2e6ff9c91a7834c1ba4fdd244a5e8aa4e537bd38aeae4b073aa335b6040516001600160a01b03909116815260200160405180910390a1565b610e1d82826040518060200160405280600081525061260f565b611ffc33610aa4565b61205f5760405162461bcd60e51b815260206004820152602e60248201527f4552433732313a2063616c6c6572206973206e6f7420746f6b656e206f776e6560448201526d1c881b9bdc88185c1c1c9bdd995960921b60648201526084016109f9565b61206b6101f582612642565b50610e418161264e565b600054610100900460ff1661209c5760405162461bcd60e51b81526004016109f99061421e565b610e1d828261268e565b600054610100900460ff166120cd5760405162461bcd60e51b81526004016109f99061421e565b6120d56120d7565b565b600054610100900460ff166120d55760405162461bcd60e51b81526004016109f99061421e565b600054610100900460ff166121255760405162461bcd60e51b81526004016109f99061421e565b6120d56126ce565b612135612702565b61012d805460ff191660011790557f62e78cea01bee320cd4e420270b5ea74000d11b0c9f74754ebdbfc544b05a258611fbc3390565b60006115588383612749565b610e1d6101f582612773565b816001600160a01b0316836001600160a01b0316036121e45760405162461bcd60e51b815260206004820152601960248201527f4552433732313a20617070726f766520746f2063616c6c65720000000000000060448201526064016109f9565b6001600160a01b038381166000818152606a6020908152604080832094871680845294825291829020805460ff191686151590811790915591519182527f17307eab39ab6107e8899845ad3d59bd9653f200f220920489ca2b5937696c31910160405180910390a3505050565b61225c848484611dc5565b6122688484848461277f565b610ee35760405162461bcd60e51b81526004016109f990614269565b606061228f82612880565b60405160200161229f91906142bb565b6040516020818303038152906040529050919050565b6000610817825490565b606060006122cc836129d2565b60010190506000816001600160401b038111156122eb576122eb613595565b6040519080825280601f01601f191660200182016040528015612315576020820181803683370190505b5090508181016020015b600019016f181899199a1a9b1b9c1cb0b131b232b360811b600a86061a8153600a850494508461231f57509392505050565b60606108176001600160a01b0383166014612aaa565b60006001600160e01b03198216635a05180f60e01b1480610817575061081782612c45565b600061081782612c6a565b61239f612702565b836123ac61025982612c89565b156123ef5760405162461bcd60e51b8152602060048201526013602482015272426c61636b6c6973746564206164647265737360681b60448201526064016109f9565b836123fc61025982612c89565b1561243f5760405162461bcd60e51b8152602060048201526013602482015272426c61636b6c6973746564206164647265737360681b60448201526064016109f9565b61244b86868686612cab565b505050505050565b61245d828261155f565b610e1d5761246a81612351565b612475836020612aaa565b604051602001612486929190614300565b60408051601f198184030181529082905262461bcd60e51b82526109f9916004016134c5565b6124b6828261155f565b610e1d57600082815261015f602090815260408083206001600160a01b03851684529091529020805460ff191660011790556124ef3390565b6001600160a01b0316816001600160a01b0316837f2f8788117e7eff1d82e926ec794901d17c78024a50270940304540a733656f0d60405160405180910390a45050565b6000611558836001600160a01b038416612cb7565b612552828261155f565b15610e1d57600082815261015f602090815260408083206001600160a01b0385168085529252808320805460ff1916905551339285917ff6391f5c32d9c69d2a47ea670b442974b53935d1edc7fd64eb21e047a839171b9190a45050565b6000611558836001600160a01b038416612d06565b61012d5460ff166120d55760405162461bcd60e51b815260206004820152601460248201527314185d5cd8589b194e881b9bdd081c185d5cd95960621b60448201526064016109f9565b6126198383612df9565b612626600084848461277f565b610a9a5760405162461bcd60e51b81526004016109f990614269565b60006115588383612cb7565b61265781612f74565b600081815260fb60205260409020805461267090613c78565b159050610e4157600081815260fb60205260408120610e41916133f4565b600054610100900460ff166126b55760405162461bcd60e51b81526004016109f99061421e565b60656126c18382613d8a565b506066610a9a8282613d8a565b600054610100900460ff166126f55760405162461bcd60e51b81526004016109f99061421e565b61012d805460ff19169055565b61012d5460ff16156120d55760405162461bcd60e51b815260206004820152601060248201526f14185d5cd8589b194e881c185d5cd95960821b60448201526064016109f9565b600082600001828154811061276057612760613cff565b9060005260206000200154905092915050565b60006115588383612d06565b60006001600160a01b0384163b1561287557604051630a85bd0160e11b81526001600160a01b0385169063150b7a02906127c3903390899088908890600401614375565b6020604051808303816000875af19250505080156127fe575060408051601f3d908101601f191682019092526127fb918101906143b2565b60015b61285b573d80801561282c576040519150601f19603f3d011682016040523d82523d6000602084013e612831565b606091505b5080516000036128535760405162461bcd60e51b81526004016109f990614269565b805181602001fd5b6001600160e01b031916630a85bd0160e11b149050611dbd565b506001949350505050565b6060815160000361289f57505060408051602081019091526000815290565b600060405180606001604052806040815260200161445c60409139905060006003845160026128ce91906143cf565b6128d891906143e2565b6128e3906004614404565b6001600160401b038111156128fa576128fa613595565b6040519080825280601f01601f191660200182016040528015612924576020820181803683370190505b509050600182016020820185865187015b80821015612990576003820191508151603f8160121c168501518453600184019350603f81600c1c168501518453600184019350603f8160061c168501518453600184019350603f8116850151845350600183019250612935565b50506003865106600181146129ac57600281146129bf576129c7565b603d6001830353603d60028303536129c7565b603d60018303535b509195945050505050565b60008072184f03e93ff9f4daa797ed6e38ed64bf6a1f0160401b8310612a115772184f03e93ff9f4daa797ed6e38ed64bf6a1f0160401b830492506040015b6d04ee2d6d415b85acef81000000008310612a3d576d04ee2d6d415b85acef8100000000830492506020015b662386f26fc100008310612a5b57662386f26fc10000830492506010015b6305f5e1008310612a73576305f5e100830492506008015b6127108310612a8757612710830492506004015b60648310612a99576064830492506002015b600a83106108175760010192915050565b60606000612ab9836002614404565b612ac49060026143cf565b6001600160401b03811115612adb57612adb613595565b6040519080825280601f01601f191660200182016040528015612b05576020820181803683370190505b509050600360fc1b81600081518110612b2057612b20613cff565b60200101906001600160f81b031916908160001a905350600f60fb1b81600181518110612b4f57612b4f613cff565b60200101906001600160f81b031916908160001a9053506000612b73846002614404565b612b7e9060016143cf565b90505b6001811115612bf6576f181899199a1a9b1b9c1cb0b131b232b360811b85600f1660108110612bb257612bb2613cff565b1a60f81b828281518110612bc857612bc8613cff565b60200101906001600160f81b031916908160001a90535060049490941c93612bef8161441b565b9050612b81565b5083156115585760405162461bcd60e51b815260206004820181905260248201527f537472696e67733a20686578206c656e67746820696e73756666696369656e7460448201526064016109f9565b60006001600160e01b03198216637965db0b60e01b1480610817575061081782613017565b6000818152606760205260408120546001600160a01b03161515610817565b6001600160a01b03811660009081526001830160205260408120541515611558565b610ee384848484613022565b6000818152600183016020526040812054612cfe57508154600181810184556000848152602080822090930184905584548482528286019093526040902091909155610817565b506000610817565b60008181526001830160205260408120548015612def576000612d2a600183614432565b8554909150600090612d3e90600190614432565b9050818114612da3576000866000018281548110612d5e57612d5e613cff565b9060005260206000200154905080876000018481548110612d8157612d81613cff565b6000918252602080832090910192909255918252600188019052604090208390555b8554869080612db457612db4614445565b600190038181906000526020600020016000905590558560010160008681526020019081526020016000206000905560019350505050610817565b6000915050610817565b6001600160a01b038216612e4f5760405162461bcd60e51b815260206004820181905260248201527f4552433732313a206d696e7420746f20746865207a65726f206164647265737360448201526064016109f9565b612e588161238c565b15612ea55760405162461bcd60e51b815260206004820152601c60248201527f4552433732313a20746f6b656e20616c7265616479206d696e7465640000000060448201526064016109f9565b612eb3600083836001612397565b612ebc8161238c565b15612f095760405162461bcd60e51b815260206004820152601c60248201527f4552433732313a20746f6b656e20616c7265616479206d696e7465640000000060448201526064016109f9565b6001600160a01b038216600081815260686020908152604080832080546001019055848352606790915280822080546001600160a01b0319168417905551839291907fddf252ad1be2c89b69c2b068fc378daa952ba7f163c4a11628f55a4df523b3ef908290a45050565b6000612f7f82610f7c565b9050612f8f816000846001612397565b612f9882610f7c565b600083815260696020908152604080832080546001600160a01b03199081169091556001600160a01b0385168085526068845282852080546000190190558785526067909352818420805490911690555192935084927fddf252ad1be2c89b69c2b068fc378daa952ba7f163c4a11628f55a4df523b3ef908390a45050565b60006108178261302e565b610ee384848484613053565b60006001600160e01b0319821663780e9d6360e01b148061081757506108178261318c565b61305f848484846131dc565b60018111156130ce5760405162461bcd60e51b815260206004820152603560248201527f455243373231456e756d657261626c653a20636f6e7365637574697665207472604482015274185b9cd9995c9cc81b9bdd081cdd5c1c1bdc9d1959605a1b60648201526084016109f9565b816001600160a01b03851661312a5761312581609980546000838152609a60205260408120829055600182018355919091527f72a152ddfb8e864297c917af52ea6c1c68aead0fee1a62673fcc7e0c94979d000155565b61314d565b836001600160a01b0316856001600160a01b03161461314d5761314d8582613264565b6001600160a01b0384166131695761316481613301565b611538565b846001600160a01b0316846001600160a01b0316146115385761153884826133b0565b60006001600160e01b031982166380ac58cd60e01b14806131bd57506001600160e01b03198216635b5e139f60e01b145b8061081757506301ffc9a760e01b6001600160e01b0319831614610817565b6001811115610ee3576001600160a01b03841615613222576001600160a01b0384166000908152606860205260408120805483929061321c908490614432565b90915550505b6001600160a01b03831615610ee3576001600160a01b038316600090815260686020526040812080548392906132599084906143cf565b909155505050505050565b60006001613271846110b1565b61327b9190614432565b6000838152609860205260409020549091508082146132ce576001600160a01b03841660009081526097602090815260408083208584528252808320548484528184208190558352609890915290208190555b5060009182526098602090815260408084208490556001600160a01b039094168352609781528383209183525290812055565b60995460009061331390600190614432565b6000838152609a60205260408120546099805493945090928490811061333b5761333b613cff565b90600052602060002001549050806099838154811061335c5761335c613cff565b6000918252602080832090910192909255828152609a9091526040808220849055858252812055609980548061339457613394614445565b6001900381819060005260206000200160009055905550505050565b60006133bb836110b1565b6001600160a01b039093166000908152609760209081526040808320868452825280832085905593825260989052919091209190915550565b50805461340090613c78565b6000825580601f10613410575050565b601f016020900490600052602060002090810190610e4191905b8082111561343e576000815560010161342a565b5090565b6001600160e01b031981168114610e4157600080fd5b60006020828403121561346a57600080fd5b813561155881613442565b60005b83811015613490578181015183820152602001613478565b50506000910152565b600081518084526134b1816020860160208601613475565b601f01601f19169290920160200192915050565b6020815260006115586020830184613499565b600080604083850312156134eb57600080fd5b50508035926020909101359150565b60006020828403121561350c57600080fd5b5035919050565b80356001600160a01b038116811461352a57600080fd5b919050565b6000806040838503121561354257600080fd5b61354b83613513565b946020939093013593505050565b60008060006060848603121561356e57600080fd5b61357784613513565b925061358560208501613513565b9150604084013590509250925092565b634e487b7160e01b600052604160045260246000fd5b604051601f8201601f191681016001600160401b03811182821017156135d3576135d3613595565b604052919050565b60006001600160401b038211156135f4576135f4613595565b5060051b60200190565b600082601f83011261360f57600080fd5b8135602061362461361f836135db565b6135ab565b82815260059290921b8401810191818101908684111561364357600080fd5b8286015b8481101561365e5780358352918301918301613647565b509695505050505050565b60006020828403121561367b57600080fd5b81356001600160401b0381111561369157600080fd5b611dbd848285016135fe565b6000602080830181845280855180835260408601915060408160051b870101925083870160005b828110156136f257603f198886030184526136e0858351613499565b945092850192908501906001016136c4565b5092979650505050505050565b6000806040838503121561371257600080fd5b8235915061372260208401613513565b90509250929050565b6000806040838503121561373e57600080fd5b82356001600160401b0381111561375457600080fd5b613760858286016135fe565b95602094909401359450505050565b60008060006060848603121561378457600080fd5b505081359360208301359350604090920135919050565b600080604083850312156137ae57600080fd5b6137b783613513565b915060208301356001600160401b038111156137d257600080fd5b6137de858286016135fe565b9150509250929050565b600082601f8301126137f957600080fd5b81356001600160401b0381111561381257613812613595565b613825601f8201601f19166020016135ab565b81815284602083860101111561383a57600080fd5b816020850160208301376000918101602001919091529392505050565b60006020828403121561386957600080fd5b81356001600160401b0381111561387f57600080fd5b611dbd848285016137e8565b60006020828403121561389d57600080fd5b61155882613513565b6020808252825182820181905260009190848201906040850190845b818110156138de578351835292840192918401916001016138c2565b50909695505050505050565b6000806000606084860312156138ff57600080fd5b61390884613513565b92506020808501356001600160401b038082111561392557600080fd5b818701915087601f83011261393957600080fd5b813561394761361f826135db565b81815260059190911b8301840190848101908a83111561396657600080fd5b938501935b8285101561398b5761397c85613513565b8252938501939085019061396b565b9650505060408701359250808311156139a357600080fd5b50506139b1868287016135fe565b9150509250925092565b6000806000606084860312156139d057600080fd5b6139d984613513565b92506020840135915060408401356001600160401b038111156139fb57600080fd5b6139b1868287016137e8565b60008060408385031215613a1a57600080fd5b8235915060208301356001600160401b038111156137d257600080fd5b60008060408385031215613a4a57600080fd5b613a5383613513565b915060208301358015158114613a6857600080fd5b809150509250929050565b60008060008060808587031215613a8957600080fd5b5050823594602084013594506040840135936060013592509050565b60008060008060808587031215613abb57600080fd5b613ac485613513565b9350613ad260208601613513565b92506040850135915060608501356001600160401b03811115613af457600080fd5b613b00878288016137e8565b91505092959194509250565b600080600060608486031215613b2157600080fd5b833592506020840135915060408401356001600160401b03811115613b4557600080fd5b6139b1868287016135fe565b600080600060608486031215613b6657600080fd5b83356001600160401b0380821115613b7d57600080fd5b613b89878388016135fe565b94506020860135915080821115613b9f57600080fd5b613bab878388016135fe565b93506040860135915080821115613bc157600080fd5b506139b1868287016135fe565b60008060408385031215613be157600080fd5b613bea83613513565b915061372260208401613513565b600080600060608486031215613c0d57600080fd5b833592506020840135915060408401356001600160401b038111156139fb57600080fd5b600080600060608486031215613c4657600080fd5b613c4f84613513565b9250613c5d60208501613513565b915060408401356001600160401b03811115613b4557600080fd5b600181811c90821680613c8c57607f821691505b602082108103613cac57634e487b7160e01b600052602260045260246000fd5b50919050565b6020808252602d908201527f4552433732313a2063616c6c6572206973206e6f7420746f6b656e206f776e6560408201526c1c881bdc88185c1c1c9bdd9959609a1b606082015260800190565b634e487b7160e01b600052603260045260246000fd5b634e487b7160e01b600052601160045260246000fd5b600060018201613d3d57613d3d613d15565b5060010190565b601f821115610a9a57600081815260208120601f850160051c81016020861015613d6b5750805b601f850160051c820191505b8181101561244b57828155600101613d77565b81516001600160401b03811115613da357613da3613595565b613db781613db18454613c78565b84613d44565b602080601f831160018114613dec5760008415613dd45750858301515b600019600386901b1c1916600185901b17855561244b565b600085815260208120601f198616915b82811015613e1b57888601518255948401946001909101908401613dfc565b5085821015613e395787850151600019600388901b60f8161c191681555b5050505050600190811b01905550565b828152604060208201526000611dbd6040830184613499565b60008151613e74818560208601613475565b9290920192915050565b6000808454613e8c81613c78565b60018281168015613ea45760018114613eb957613ee8565b60ff1984168752821515830287019450613ee8565b8860005260208060002060005b85811015613edf5781548a820152908401908201613ec6565b50505082870194505b505050508351613efc818360208801613475565b01949350505050565b7f226e616d65223a22436f736d69632049736c616e64204c616e6420506c6f74208152602360f81b602082015260008451613f47816021850160208901613475565b61088b60f21b60219184019182018190527f226465736372697074696f6e223a224c616e6420706c6f74206f6e20436f736d60238301526a1a58c8125cdb185b99088b60aa1b6043830152681134b6b0b3b2911d1160b91b604e8301528551613fb7816057850160208a01613475565b6057920191820152681137bbb732b9111d1160b91b60598201528351613fe4816062840160208801613475565b61401a613ffe60628385010161088b60f21b815260020190565b6f089d1e5c19488e88915490cdcc8c488b60821b815260100190565b979650505050505050565b6e2261747472696275746573223a205b60881b81526000607b60f81b80600f8401527f2274726169745f74797065223a20226c61746974756465222c200000000000006010840152680113b30b63ab2911d160bd1b80602a8501528651614093816033870160208b01613475565b80850190506203e96160ed1b60338201528260368201527f2274726169745f74797065223a20226c6f6e676974756465222c2000000000006037820152816052820152865192506140eb83605b830160208a01613475565b61418061417361416661416061414b614122614115605b8a8901016203e96160ed1b815260030190565b607b60f81b815260010190565b7f2274726169745f74797065223a2022726567696f6e222c200000000000000000815260180190565b680113b30b63ab2911d160bd1b815260090190565b89613e62565b607d60f81b815260010190565b605d60f81b815260010190565b98975050505050505050565b607b60f81b8152600083516141a8816001850160208801613475565b8351908301906141bf816001840160208801613475565b607d60f81b60019290910191820152600201949350505050565b60208082526025908201527f4552433732313a207472616e736665722066726f6d20696e636f72726563742060408201526437bbb732b960d91b606082015260800190565b6020808252602b908201527f496e697469616c697a61626c653a20636f6e7472616374206973206e6f74206960408201526a6e697469616c697a696e6760a81b606082015260800190565b60208082526032908201527f4552433732313a207472616e7366657220746f206e6f6e20455243373231526560408201527131b2b4bb32b91034b6b83632b6b2b73a32b960711b606082015260800190565b7f646174613a6170706c69636174696f6e2f6a736f6e3b6261736536342c0000008152600082516142f381601d850160208701613475565b91909101601d0192915050565b7f416363657373436f6e74726f6c3a206163636f756e7420000000000000000000815260008351614338816017850160208801613475565b7001034b99036b4b9b9b4b733903937b6329607d1b6017918401918201528351614369816028840160208801613475565b01602801949350505050565b6001600160a01b03858116825284166020820152604081018390526080606082018190526000906143a890830184613499565b9695505050505050565b6000602082840312156143c457600080fd5b815161155881613442565b8082018082111561081757610817613d15565b6000826143ff57634e487b7160e01b600052601260045260246000fd5b500490565b808202811582820484141761081757610817613d15565b60008161442a5761442a613d15565b506000190190565b8181038181111561081757610817613d15565b634e487b7160e01b600052603160045260246000fdfe4142434445464748494a4b4c4d4e4f505152535455565758595a6162636465666768696a6b6c6d6e6f707172737475767778797a303132333435363738392b2f9f2df0fed2c77648de5860a4cc508cd0818c85b8b8a1ab4ceeef8d981c8956a6a49807205ce4d355092ef5a8a18f56e8913cf4a201fbe287825b095693c21775a26469706673582212208c3cd94d34f7d019cfd16333fca991e630c25c3adc35374717d7d2396dc6121664736f6c63430008110033",
  "linkReferences": {},
  "deployedLinkReferences": {}
}