{
  "_format": "hh-sol-artifact-1",
  "contractName": "CosmicIslandLand",
  "sourceName": "contracts/upgradeable/ERC721/CosmicIslandLand.sol",
  "abi": [
    {
      "inputs": [],
      "stateMutability": "nonpayable",
      "type": "constructor"
    },
    {
      "anonymous": false,
      "inputs": [
        {
          "indexed": true,
          "internalType": "address",
          "name": "owner",
          "type": "address"
        },
        {
          "indexed": true,
          "internalType": "address",
          "name": "approved",
          "type": "address"
        },
        {
          "indexed": true,
          "internalType": "uint256",
          "name": "tokenId",
          "type": "uint256"
        }
      ],
      "name": "Approval",
      "type": "event"
    },
    {
      "anonymous": false,
      "inputs": [
        {
          "indexed": true,
          "internalType": "address",
          "name": "owner",
          "type": "address"
        },
        {
          "indexed": true,
          "internalType": "address",
          "name": "operator",
          "type": "address"
        },
        {
          "indexed": false,
          "internalType": "bool",
          "name": "approved",
          "type": "bool"
        }
      ],
      "name": "ApprovalForAll",
      "type": "event"
    },
    {
      "anonymous": false,
      "inputs": [
        {
          "indexed": false,
          "internalType": "uint8",
          "name": "version",
          "type": "uint8"
        }
      ],
      "name": "Initialized",
      "type": "event"
    },
    {
      "anonymous": false,
      "inputs": [
        {
          "indexed": false,
          "internalType": "address",
          "name": "account",
          "type": "address"
        }
      ],
      "name": "Paused",
      "type": "event"
    },
    {
      "anonymous": false,
      "inputs": [
        {
          "indexed": true,
          "internalType": "bytes32",
          "name": "role",
          "type": "bytes32"
        },
        {
          "indexed": true,
          "internalType": "bytes32",
          "name": "previousAdminRole",
          "type": "bytes32"
        },
        {
          "indexed": true,
          "internalType": "bytes32",
          "name": "newAdminRole",
          "type": "bytes32"
        }
      ],
      "name": "RoleAdminChanged",
      "type": "event"
    },
    {
      "anonymous": false,
      "inputs": [
        {
          "indexed": true,
          "internalType": "bytes32",
          "name": "role",
          "type": "bytes32"
        },
        {
          "indexed": true,
          "internalType": "address",
          "name": "account",
          "type": "address"
        },
        {
          "indexed": true,
          "internalType": "address",
          "name": "sender",
          "type": "address"
        }
      ],
      "name": "RoleGranted",
      "type": "event"
    },
    {
      "anonymous": false,
      "inputs": [
        {
          "indexed": true,
          "internalType": "bytes32",
          "name": "role",
          "type": "bytes32"
        },
        {
          "indexed": true,
          "internalType": "address",
          "name": "account",
          "type": "address"
        },
        {
          "indexed": true,
          "internalType": "address",
          "name": "sender",
          "type": "address"
        }
      ],
      "name": "RoleRevoked",
      "type": "event"
    },
    {
      "anonymous": false,
      "inputs": [
        {
          "indexed": true,
          "internalType": "uint256",
          "name": "tokenId",
          "type": "uint256"
        },
        {
          "indexed": false,
          "internalType": "uint256",
          "name": "customId",
          "type": "uint256"
        },
        {
          "indexed": false,
          "internalType": "string",
          "name": "value",
          "type": "string"
        }
      ],
      "name": "TextUpdated",
      "type": "event"
    },
    {
      "anonymous": false,
      "inputs": [
        {
          "indexed": true,
          "internalType": "address",
          "name": "from",
          "type": "address"
        },
        {
          "indexed": true,
          "internalType": "address",
          "name": "to",
          "type": "address"
        },
        {
          "indexed": true,
          "internalType": "uint256",
          "name": "tokenId",
          "type": "uint256"
        }
      ],
      "name": "Transfer",
      "type": "event"
    },
    {
      "anonymous": false,
      "inputs": [
        {
          "indexed": false,
          "internalType": "address",
          "name": "account",
          "type": "address"
        }
      ],
      "name": "Unpaused",
      "type": "event"
    },
    {
      "anonymous": false,
      "inputs": [
        {
          "indexed": true,
          "internalType": "uint256",
          "name": "tokenId",
          "type": "uint256"
        },
        {
          "indexed": false,
          "internalType": "uint256",
          "name": "treeId",
          "type": "uint256"
        },
        {
          "indexed": false,
          "internalType": "uint256",
          "name": "skillId",
          "type": "uint256"
        },
        {
          "indexed": false,
          "internalType": "uint256",
          "name": "value",
          "type": "uint256"
        }
      ],
      "name": "ValueUpdated",
      "type": "event"
    },
    {
      "inputs": [],
      "name": "ADMIN_ROLE",
      "outputs": [
        {
          "internalType": "bytes32",
          "name": "",
          "type": "bytes32"
        }
      ],
      "stateMutability": "view",
      "type": "function"
    },
    {
      "inputs": [],
      "name": "CONTRACT_ROLE",
      "outputs": [
        {
          "internalType": "bytes32",
          "name": "",
          "type": "bytes32"
        }
      ],
      "stateMutability": "view",
      "type": "function"
    },
    {
      "inputs": [],
      "name": "DEFAULT_ADMIN_ROLE",
      "outputs": [
        {
          "internalType": "bytes32",
          "name": "",
          "type": "bytes32"
        }
      ],
      "stateMutability": "view",
      "type": "function"
    },
    {
      "inputs": [],
      "name": "MINTER_ROLE",
      "outputs": [
        {
          "internalType": "bytes32",
          "name": "",
          "type": "bytes32"
        }
      ],
      "stateMutability": "view",
      "type": "function"
    },
    {
      "inputs": [
        {
          "internalType": "address",
          "name": "to",
          "type": "address"
        },
        {
          "internalType": "uint256",
          "name": "tokenId",
          "type": "uint256"
        }
      ],
      "name": "approve",
      "outputs": [],
      "stateMutability": "nonpayable",
      "type": "function"
    },
    {
      "inputs": [
        {
          "internalType": "address",
          "name": "owner",
          "type": "address"
        }
      ],
      "name": "balanceOf",
      "outputs": [
        {
          "internalType": "uint256",
          "name": "",
          "type": "uint256"
        }
      ],
      "stateMutability": "view",
      "type": "function"
    },
    {
      "inputs": [
        {
          "internalType": "address",
          "name": "to",
          "type": "address"
        },
        {
          "internalType": "uint256[]",
          "name": "tokenIds",
          "type": "uint256[]"
        }
      ],
      "name": "batchMint",
      "outputs": [],
      "stateMutability": "nonpayable",
      "type": "function"
    },
    {
      "inputs": [
        {
          "internalType": "uint256[]",
          "name": "tokenIds",
          "type": "uint256[]"
        }
      ],
      "name": "batchTokenURI",
      "outputs": [
        {
          "internalType": "string[]",
          "name": "",
          "type": "string[]"
        }
      ],
      "stateMutability": "view",
      "type": "function"
    },
    {
      "inputs": [
        {
          "internalType": "uint256[]",
          "name": "tokenIds",
          "type": "uint256[]"
        }
      ],
      "name": "batchTokenURIJSON",
      "outputs": [
        {
          "internalType": "string[]",
          "name": "",
          "type": "string[]"
        }
      ],
      "stateMutability": "view",
      "type": "function"
    },
    {
      "inputs": [
        {
          "internalType": "address",
          "name": "from",
          "type": "address"
        },
        {
          "internalType": "address",
          "name": "to",
          "type": "address"
        },
        {
          "internalType": "uint256[]",
          "name": "tokenIds",
          "type": "uint256[]"
        }
      ],
      "name": "batchTransferFrom",
      "outputs": [],
      "stateMutability": "nonpayable",
      "type": "function"
    },
    {
      "inputs": [],
      "name": "bridgeContract",
      "outputs": [
        {
          "internalType": "address",
          "name": "",
          "type": "address"
        }
      ],
      "stateMutability": "view",
      "type": "function"
    },
    {
      "inputs": [
        {
          "internalType": "uint256",
          "name": "tokenId",
          "type": "uint256"
        }
      ],
      "name": "bridgeExtraData",
      "outputs": [
        {
          "internalType": "bytes",
          "name": "",
          "type": "bytes"
        }
      ],
      "stateMutability": "view",
      "type": "function"
    },
    {
      "inputs": [
        {
          "internalType": "uint256",
          "name": "tokenId",
          "type": "uint256"
        }
      ],
      "name": "burn",
      "outputs": [],
      "stateMutability": "nonpayable",
      "type": "function"
    },
    {
      "inputs": [],
      "name": "getAllTokenIds",
      "outputs": [
        {
          "internalType": "uint256[]",
          "name": "",
          "type": "uint256[]"
        }
      ],
      "stateMutability": "view",
      "type": "function"
    },
    {
      "inputs": [
        {
          "internalType": "uint256",
          "name": "tokenId",
          "type": "uint256"
        }
      ],
      "name": "getApproved",
      "outputs": [
        {
          "internalType": "address",
          "name": "",
          "type": "address"
        }
      ],
      "stateMutability": "view",
      "type": "function"
    },
    {
      "inputs": [
        {
          "internalType": "bytes32",
          "name": "role",
          "type": "bytes32"
        }
      ],
      "name": "getRoleAdmin",
      "outputs": [
        {
          "internalType": "bytes32",
          "name": "",
          "type": "bytes32"
        }
      ],
      "stateMutability": "view",
      "type": "function"
    },
    {
      "inputs": [
        {
          "internalType": "bytes32",
          "name": "role",
          "type": "bytes32"
        },
        {
          "internalType": "uint256",
          "name": "index",
          "type": "uint256"
        }
      ],
      "name": "getRoleMember",
      "outputs": [
        {
          "internalType": "address",
          "name": "",
          "type": "address"
        }
      ],
      "stateMutability": "view",
      "type": "function"
    },
    {
      "inputs": [
        {
          "internalType": "bytes32",
          "name": "role",
          "type": "bytes32"
        }
      ],
      "name": "getRoleMemberCount",
      "outputs": [
        {
          "internalType": "uint256",
          "name": "",
          "type": "uint256"
        }
      ],
      "stateMutability": "view",
      "type": "function"
    },
    {
      "inputs": [
        {
          "internalType": "uint256",
          "name": "tokenId",
          "type": "uint256"
        },
        {
          "internalType": "uint256",
          "name": "treeId",
          "type": "uint256"
        },
        {
          "internalType": "uint256",
          "name": "skillId",
          "type": "uint256"
        }
      ],
      "name": "getSkill",
      "outputs": [
        {
          "internalType": "uint256",
          "name": "value",
          "type": "uint256"
        }
      ],
      "stateMutability": "view",
      "type": "function"
    },
    {
      "inputs": [
        {
          "internalType": "uint256",
          "name": "tokenId",
          "type": "uint256"
        },
        {
          "internalType": "uint256",
          "name": "treeId",
          "type": "uint256"
        },
        {
          "internalType": "uint256[]",
          "name": "skillIds",
          "type": "uint256[]"
        }
      ],
      "name": "getSkillsByTree",
      "outputs": [
        {
          "internalType": "uint256[]",
          "name": "",
          "type": "uint256[]"
        }
      ],
      "stateMutability": "view",
      "type": "function"
    },
    {
      "inputs": [
        {
          "internalType": "uint256",
          "name": "tokenId",
          "type": "uint256"
        },
        {
          "internalType": "uint256",
          "name": "customId",
          "type": "uint256"
        }
      ],
      "name": "getString",
      "outputs": [
        {
          "internalType": "string",
          "name": "value",
          "type": "string"
        }
      ],
      "stateMutability": "view",
      "type": "function"
    },
    {
      "inputs": [
        {
          "internalType": "uint256[]",
          "name": "tokenIds",
          "type": "uint256[]"
        },
        {
          "internalType": "uint256",
          "name": "customId",
          "type": "uint256"
        }
      ],
      "name": "getStringOfTokens",
      "outputs": [
        {
          "internalType": "string[]",
          "name": "",
          "type": "string[]"
        }
      ],
      "stateMutability": "view",
      "type": "function"
    },
    {
      "inputs": [
        {
          "internalType": "uint256",
          "name": "tokenId",
          "type": "uint256"
        },
        {
          "internalType": "uint256[]",
          "name": "customIds",
          "type": "uint256[]"
        }
      ],
      "name": "getStrings",
      "outputs": [
        {
          "internalType": "string[]",
          "name": "",
          "type": "string[]"
        }
      ],
      "stateMutability": "view",
      "type": "function"
    },
    {
      "inputs": [
        {
          "internalType": "bytes32",
          "name": "role",
          "type": "bytes32"
        },
        {
          "internalType": "address",
          "name": "account",
          "type": "address"
        }
      ],
      "name": "grantRole",
      "outputs": [],
      "stateMutability": "nonpayable",
      "type": "function"
    },
    {
      "inputs": [
        {
          "internalType": "bytes32",
          "name": "role",
          "type": "bytes32"
        },
        {
          "internalType": "address",
          "name": "account",
          "type": "address"
        }
      ],
      "name": "hasRole",
      "outputs": [
        {
          "internalType": "bool",
          "name": "",
          "type": "bool"
        }
      ],
      "stateMutability": "view",
      "type": "function"
    },
    {
      "inputs": [],
      "name": "imageBaseURI",
      "outputs": [
        {
          "internalType": "string",
          "name": "",
          "type": "string"
        }
      ],
      "stateMutability": "view",
      "type": "function"
    },
    {
      "inputs": [],
      "name": "initialize",
      "outputs": [],
      "stateMutability": "nonpayable",
      "type": "function"
    },
    {
      "inputs": [
        {
          "internalType": "address",
          "name": "owner",
          "type": "address"
        },
        {
          "internalType": "address",
          "name": "operator",
          "type": "address"
        }
      ],
      "name": "isApprovedForAll",
      "outputs": [
        {
          "internalType": "bool",
          "name": "",
          "type": "bool"
        }
      ],
      "stateMutability": "view",
      "type": "function"
    },
    {
      "inputs": [
        {
          "internalType": "address",
          "name": "to",
          "type": "address"
        },
        {
          "internalType": "uint256",
          "name": "tokenId",
          "type": "uint256"
        }
      ],
      "name": "mint",
      "outputs": [],
      "stateMutability": "nonpayable",
      "type": "function"
    },
    {
      "inputs": [
        {
          "internalType": "address",
          "name": "to",
          "type": "address"
        },
        {
          "internalType": "uint256",
          "name": "tokenId",
          "type": "uint256"
        },
        {
          "internalType": "bytes",
          "name": "data",
          "type": "bytes"
        }
      ],
      "name": "mint",
      "outputs": [],
      "stateMutability": "nonpayable",
      "type": "function"
    },
    {
      "inputs": [],
      "name": "name",
      "outputs": [
        {
          "internalType": "string",
          "name": "",
          "type": "string"
        }
      ],
      "stateMutability": "view",
      "type": "function"
    },
    {
      "inputs": [
        {
          "internalType": "uint256",
          "name": "tokenId",
          "type": "uint256"
        }
      ],
      "name": "ownerOf",
      "outputs": [
        {
          "internalType": "address",
          "name": "",
          "type": "address"
        }
      ],
      "stateMutability": "view",
      "type": "function"
    },
    {
      "inputs": [],
      "name": "pause",
      "outputs": [],
      "stateMutability": "nonpayable",
      "type": "function"
    },
    {
      "inputs": [],
      "name": "paused",
      "outputs": [
        {
          "internalType": "bool",
          "name": "",
          "type": "bool"
        }
      ],
      "stateMutability": "view",
      "type": "function"
    },
    {
      "inputs": [
        {
          "internalType": "bytes32",
          "name": "role",
          "type": "bytes32"
        },
        {
          "internalType": "address",
          "name": "account",
          "type": "address"
        }
      ],
      "name": "renounceRole",
      "outputs": [],
      "stateMutability": "nonpayable",
      "type": "function"
    },
    {
      "inputs": [
        {
          "internalType": "bytes32",
          "name": "role",
          "type": "bytes32"
        },
        {
          "internalType": "address",
          "name": "account",
          "type": "address"
        }
      ],
      "name": "revokeRole",
      "outputs": [],
      "stateMutability": "nonpayable",
      "type": "function"
    },
    {
      "inputs": [
        {
          "internalType": "address",
          "name": "from",
          "type": "address"
        },
        {
          "internalType": "address",
          "name": "to",
          "type": "address"
        },
        {
          "internalType": "uint256",
          "name": "tokenId",
          "type": "uint256"
        }
      ],
      "name": "safeTransferFrom",
      "outputs": [],
      "stateMutability": "nonpayable",
      "type": "function"
    },
    {
      "inputs": [
        {
          "internalType": "address",
          "name": "from",
          "type": "address"
        },
        {
          "internalType": "address",
          "name": "to",
          "type": "address"
        },
        {
          "internalType": "uint256",
          "name": "tokenId",
          "type": "uint256"
        },
        {
          "internalType": "bytes",
          "name": "data",
          "type": "bytes"
        }
      ],
      "name": "safeTransferFrom",
      "outputs": [],
      "stateMutability": "nonpayable",
      "type": "function"
    },
    {
      "inputs": [
        {
          "internalType": "address",
          "name": "operator",
          "type": "address"
        },
        {
          "internalType": "bool",
          "name": "approved",
          "type": "bool"
        }
      ],
      "name": "setApprovalForAll",
      "outputs": [],
      "stateMutability": "nonpayable",
      "type": "function"
    },
    {
      "inputs": [
        {
          "internalType": "string",
          "name": "_imageBaseURI",
          "type": "string"
        }
      ],
      "name": "setImageBaseURI",
      "outputs": [],
      "stateMutability": "nonpayable",
      "type": "function"
    },
    {
      "inputs": [
        {
          "internalType": "uint256",
          "name": "tokenId",
          "type": "uint256"
        },
        {
          "internalType": "uint256",
          "name": "attrId",
          "type": "uint256"
        },
        {
          "internalType": "uint256",
          "name": "value",
          "type": "uint256"
        }
      ],
      "name": "setTokenURI",
      "outputs": [],
      "stateMutability": "nonpayable",
      "type": "function"
    },
    {
      "inputs": [
        {
          "internalType": "uint256[]",
          "name": "tokenIds",
          "type": "uint256[]"
        },
        {
          "internalType": "uint256[]",
          "name": "attrIds",
          "type": "uint256[]"
        },
        {
          "internalType": "uint256[]",
          "name": "values",
          "type": "uint256[]"
        }
      ],
      "name": "setTokenURIs",
      "outputs": [],
      "stateMutability": "nonpayable",
      "type": "function"
    },
    {
      "inputs": [
        {
          "internalType": "bytes4",
          "name": "interfaceId",
          "type": "bytes4"
        }
      ],
      "name": "supportsInterface",
      "outputs": [
        {
          "internalType": "bool",
          "name": "",
          "type": "bool"
        }
      ],
      "stateMutability": "view",
      "type": "function"
    },
    {
      "inputs": [],
      "name": "symbol",
      "outputs": [
        {
          "internalType": "string",
          "name": "",
          "type": "string"
        }
      ],
      "stateMutability": "view",
      "type": "function"
    },
    {
      "inputs": [
        {
          "internalType": "uint256",
          "name": "index",
          "type": "uint256"
        }
      ],
      "name": "tokenByIndex",
      "outputs": [
        {
          "internalType": "uint256",
          "name": "",
          "type": "uint256"
        }
      ],
      "stateMutability": "view",
      "type": "function"
    },
    {
      "inputs": [
        {
          "internalType": "address",
          "name": "owner",
          "type": "address"
        },
        {
          "internalType": "uint256",
          "name": "index",
          "type": "uint256"
        }
      ],
      "name": "tokenOfOwnerByIndex",
      "outputs": [
        {
          "internalType": "uint256",
          "name": "",
          "type": "uint256"
        }
      ],
      "stateMutability": "view",
      "type": "function"
    },
    {
      "inputs": [
        {
          "internalType": "uint256",
          "name": "tokenId",
          "type": "uint256"
        }
      ],
      "name": "tokenURI",
      "outputs": [
        {
          "internalType": "string",
          "name": "",
          "type": "string"
        }
      ],
      "stateMutability": "view",
      "type": "function"
    },
    {
      "inputs": [
        {
          "internalType": "uint256",
          "name": "tokenId",
          "type": "uint256"
        }
      ],
      "name": "tokenURIJSON",
      "outputs": [
        {
          "internalType": "string",
          "name": "",
          "type": "string"
        }
      ],
      "stateMutability": "view",
      "type": "function"
    },
    {
      "inputs": [
        {
          "internalType": "address",
          "name": "owner",
          "type": "address"
        }
      ],
      "name": "tokensOfOwner",
      "outputs": [
        {
          "internalType": "uint256[]",
          "name": "",
          "type": "uint256[]"
        }
      ],
      "stateMutability": "view",
      "type": "function"
    },
    {
      "inputs": [],
      "name": "totalSupply",
      "outputs": [
        {
          "internalType": "uint256",
          "name": "",
          "type": "uint256"
        }
      ],
      "stateMutability": "view",
      "type": "function"
    },
    {
      "inputs": [
        {
          "internalType": "address",
          "name": "from",
          "type": "address"
        },
        {
          "internalType": "address",
          "name": "to",
          "type": "address"
        },
        {
          "internalType": "uint256",
          "name": "tokenId",
          "type": "uint256"
        }
      ],
      "name": "transferFrom",
      "outputs": [],
      "stateMutability": "nonpayable",
      "type": "function"
    },
    {
      "inputs": [],
      "name": "unpause",
      "outputs": [],
      "stateMutability": "nonpayable",
      "type": "function"
    },
    {
      "inputs": [
        {
          "internalType": "uint256",
          "name": "tokenId",
          "type": "uint256"
        },
        {
          "internalType": "uint256",
          "name": "treeId",
          "type": "uint256"
        },
        {
          "internalType": "uint256",
          "name": "skillId",
          "type": "uint256"
        },
        {
          "internalType": "uint256",
          "name": "value",
          "type": "uint256"
        }
      ],
      "name": "updateSkill",
      "outputs": [],
      "stateMutability": "nonpayable",
      "type": "function"
    },
    {
      "inputs": [
        {
          "internalType": "uint256",
          "name": "tokenId",
          "type": "uint256"
        },
        {
          "internalType": "uint256",
          "name": "customId",
          "type": "uint256"
        },
        {
          "internalType": "string",
          "name": "value",
          "type": "string"
        }
      ],
      "name": "updateString",
      "outputs": [],
      "stateMutability": "nonpayable",
      "type": "function"
    }
  ],
  "bytecode": "0x60806040523480156200001157600080fd5b506200001c62000022565b620000e4565b600054610100900460ff16156200008f5760405162461bcd60e51b815260206004820152602760248201527f496e697469616c697a61626c653a20636f6e747261637420697320696e697469604482015266616c697a696e6760c81b606482015260840160405180910390fd5b60005460ff9081161015620000e2576000805460ff191660ff9081179091556040519081527f7f26b83ff96e1f2b6a682f133852f6798a09c465da95921460cefb38474024989060200160405180910390a15b565b61435080620000f46000396000f3fe608060405234801561001057600080fd5b50600436106103425760003560e01c806377645839116101b8578063b88d4fde11610104578063d547741f116100a2578063e985e9c51161007c578063e985e9c51461074f578063ed0af2091461078b578063f3993d111461079e578063fe459f5c146107b157600080fd5b8063d547741f14610716578063dd69f3f714610729578063e3a829fe1461073c57600080fd5b8063c87b56dd116100de578063c87b56dd146106c7578063ca15c873146106da578063cd596583146106ed578063d53913931461070157600080fd5b8063b88d4fde14610699578063bdbed722146106ac578063c7e05590146106b457600080fd5b806394d008ef116101715780639e8afe471161014b5780639e8afe4714610658578063a217fddf1461066b578063a22cb46514610673578063b5afb1201461068657600080fd5b806394d008ef1461061c57806395d89b411461062f5780639b9284f91461063757600080fd5b806377645839146105be5780638129fc1c146105c65780638456cb59146105ce5780638462151c146105d65780639010d07c146105f657806391d148541461060957600080fd5b806336568abe116102925780634f6ccce7116102305780636cfa24cc1161020a5780636cfa24cc146105705780636d94f13a1461058357806370a082311461059657806375b238fc146105a957600080fd5b80634f6ccce71461053e5780635c975abb146105515780636352211e1461055d57600080fd5b806342842e0e1161026c57806342842e0e146104d257806342966c68146104e55780634594762a146104f85780634684d7e91461052b57600080fd5b806336568abe146104a45780633f4ba83a146104b757806340c10f19146104bf57600080fd5b806318160ddd116102ff5780632c303493116102d95780632c3034931461044b5780632f2ff15d1461046b5780632f745c591461047e578063352b75331461049157600080fd5b806318160ddd1461040c57806323b872dd14610414578063248a9ca31461042757600080fd5b806301ffc9a71461034757806303fe46ab1461036f57806306fdde03146103a4578063079be493146103b9578063081812fc146103cc578063095ea7b3146103f7575b600080fd5b61035a610355366004613378565b6107c4565b60405190151581526020015b60405180910390f35b6103967f364d3d7565c7a8300c96fd53e065d19b65848d7b23b3191adcd55621c744223c81565b604051908152602001610366565b6103ac6107ef565b60405161036691906133e5565b6103ac6103c73660046133f8565b610881565b6103df6103da36600461341a565b610930565b6040516001600160a01b039091168152602001610366565b61040a61040536600461344f565b610957565b005b609954610396565b61040a610422366004613479565b610a71565b61039661043536600461341a565b600090815261015f602052604090206001015490565b61045e61045936600461357a565b610aa3565b60405161036691906135ae565b61040a610479366004613610565b610b5b565b61039661048c36600461344f565b610b81565b61045e61049f36600461363c565b610c17565b61040a6104b2366004613610565b610d75565b61040a610df3565b61040a6104cd36600461344f565b610e16565b61040a6104e0366004613479565b610e38565b61040a6104f336600461341a565b610e53565b610396610506366004613680565b600092835261025c602090815260408085209385529281528284209184525290205490565b61040a6105393660046136ac565b610e5c565b61039661054c36600461341a565b610ebb565b61012d5460ff1661035a565b6103df61056b36600461341a565b610f4e565b61040a61057e366004613768565b610fae565b61045e61059136600461357a565b610fd2565b6103966105a436600461379c565b611083565b6103966000805160206142fb83398151915281565b6103ac611109565b61040a611197565b61040a61134d565b6105e96105e436600461379c565b61136d565b60405161036691906137b7565b6103df6106043660046133f8565b611406565b61035a610617366004613610565b611426565b61040a61062a3660046137fb565b611452565b6103ac61147d565b6103ac61064536600461341a565b5060408051602081019091526000815290565b61045e610666366004613851565b61148c565b610396600081565b61040a610681366004613881565b6115e2565b61040a6106943660046138bd565b6115ed565b61040a6106a73660046138ef565b611684565b6105e96116b6565b6105e96106c2366004613956565b6117a0565b6103ac6106d536600461341a565b611875565b6103966106e836600461341a565b611888565b61025e546103df906001600160a01b031681565b6103966000805160206142db83398151915281565b61040a610724366004613610565b6118a0565b61040a61073736600461399b565b6118c6565b61040a61074a366004613680565b611979565b61035a61075d366004613a18565b6001600160a01b039182166000908152606a6020908152604080832093909416825291909152205460ff1690565b61040a610799366004613a42565b6119af565b61040a6107ac366004613a7b565b611a3e565b6103ac6107bf36600461341a565b611a80565b60006001600160e01b0319821663808d85fd60e01b14806107e957506107e982611b9d565b92915050565b6060606580546107fe90613ac2565b80601f016020809104026020016040519081016040528092919081815260200182805461082a90613ac2565b80156108775780601f1061084c57610100808354040283529160200191610877565b820191906000526020600020905b81548152906001019060200180831161085a57829003601f168201915b5050505050905090565b600082815261025d6020908152604080832084845290915290208054606091906108aa90613ac2565b80601f01602080910402602001604051908101604052809291908181526020018280546108d690613ac2565b80156109235780601f106108f857610100808354040283529160200191610923565b820191906000526020600020905b81548152906001019060200180831161090657829003601f168201915b5050505050905092915050565b600061093b82611ba8565b506000908152606960205260409020546001600160a01b031690565b600061096282610f4e565b9050806001600160a01b0316836001600160a01b0316036109d45760405162461bcd60e51b815260206004820152602160248201527f4552433732313a20617070726f76616c20746f2063757272656e74206f776e656044820152603960f91b60648201526084015b60405180910390fd5b336001600160a01b03821614806109f057506109f0813361075d565b610a625760405162461bcd60e51b815260206004820152603d60248201527f4552433732313a20617070726f76652063616c6c6572206973206e6f7420746f60448201527f6b656e206f776e6572206f7220617070726f76656420666f7220616c6c00000060648201526084016109cb565b610a6c8383611bf8565b505050565b610a7c335b82611c66565b610a985760405162461bcd60e51b81526004016109cb90613afc565b610a6c838383611ce5565b6060600082516001600160401b03811115610ac057610ac06134b5565b604051908082528060200260200182016040528015610af357816020015b6060815260200190600190039081610ade5790505b50905060005b8351811015610b5457610b24848281518110610b1757610b17613b49565b6020026020010151611a80565b828281518110610b3657610b36613b49565b60200260200101819052508080610b4c90613b75565b915050610af9565b5092915050565b600082815261015f6020526040902060010154610b7781611e56565b610a6c8383611e60565b6000610b8c83611083565b8210610bee5760405162461bcd60e51b815260206004820152602b60248201527f455243373231456e756d657261626c653a206f776e657220696e646578206f7560448201526a74206f6620626f756e647360a81b60648201526084016109cb565b506001600160a01b03919091166000908152609760209081526040808320938352929052205490565b6060600083516001600160401b03811115610c3457610c346134b5565b604051908082528060200260200182016040528015610c6757816020015b6060815260200190600190039081610c525790505b50905060005b8451811015610d6d5761025d6000868381518110610c8d57610c8d613b49565b6020026020010151815260200190815260200160002060008581526020019081526020016000208054610cbf90613ac2565b80601f0160208091040260200160405190810160405280929190818152602001828054610ceb90613ac2565b8015610d385780601f10610d0d57610100808354040283529160200191610d38565b820191906000526020600020905b815481529060010190602001808311610d1b57829003601f168201915b5050505050828281518110610d4f57610d4f613b49565b60200260200101819052508080610d6590613b75565b915050610c6d565b509392505050565b6001600160a01b0381163314610de55760405162461bcd60e51b815260206004820152602f60248201527f416363657373436f6e74726f6c3a2063616e206f6e6c792072656e6f756e636560448201526e103937b632b9903337b91039b2b63360891b60648201526084016109cb565b610def8282611e83565b5050565b6000805160206142fb833981519152610e0b81611e56565b610e13611ea6565b50565b6000805160206142db833981519152610e2e81611e56565b610a6c8383611ef9565b610a6c83838360405180602001604052806000815250611684565b610e1381611f13565b6000805160206142db833981519152610e7481611e56565b60005b8251811015610eb557610ea384848381518110610e9657610e96613b49565b6020026020010151611ef9565b80610ead81613b75565b915050610e77565b50505050565b6000610ec660995490565b8210610f295760405162461bcd60e51b815260206004820152602c60248201527f455243373231456e756d657261626c653a20676c6f62616c20696e646578206f60448201526b7574206f6620626f756e647360a01b60648201526084016109cb565b60998281548110610f3c57610f3c613b49565b90600052602060002001549050919050565b6000818152606760205260408120546001600160a01b0316806107e95760405162461bcd60e51b8152602060048201526018602482015277115490cdcc8c4e881a5b9d985b1a59081d1bdad95b88125160421b60448201526064016109cb565b6000805160206142fb833981519152610fc681611e56565b60fc610a6c8382613bd4565b6060600082516001600160401b03811115610fef57610fef6134b5565b60405190808252806020026020018201604052801561102257816020015b606081526020019060019003908161100d5790505b50905060005b8351811015610b545761105384828151811061104657611046613b49565b6020026020010151611875565b82828151811061106557611065613b49565b6020026020010181905250808061107b90613b75565b915050611028565b60006001600160a01b0382166110ed5760405162461bcd60e51b815260206004820152602960248201527f4552433732313a2061646472657373207a65726f206973206e6f7420612076616044820152683634b21037bbb732b960b91b60648201526084016109cb565b506001600160a01b031660009081526068602052604090205490565b60fc805461111690613ac2565b80601f016020809104026020016040519081016040528092919081815260200182805461114290613ac2565b801561118f5780601f106111645761010080835404028352916020019161118f565b820191906000526020600020905b81548152906001019060200180831161117257829003601f168201915b505050505081565b600054610100900460ff16158080156111b75750600054600160ff909116105b806111d15750303b1580156111d1575060005460ff166001145b6112345760405162461bcd60e51b815260206004820152602e60248201527f496e697469616c697a61626c653a20636f6e747261637420697320616c72656160448201526d191e481a5b9a5d1a585b1a5e995960921b60648201526084016109cb565b6000805460ff191660011790558015611257576000805461ff0019166101001790555b6112a26040518060400160405280600c81526020016b10dbdcdb5a58d25cdb185b9960a21b8152506040518060400160405280600581526020016410d310539160da1b815250611f95565b6112aa611fc6565b6112b2611ff7565b6112ba61201e565b6112c2611ff7565b6112ca611fc6565b6112d5600033611e60565b6112ed6000805160206142fb83398151915233611e60565b6113056000805160206142db83398151915233611e60565b8015610e13576000805461ff0019169055604051600181527f7f26b83ff96e1f2b6a682f133852f6798a09c465da95921460cefb38474024989060200160405180910390a150565b6000805160206142fb83398151915261136581611e56565b610e1361204d565b6060600061137a83611083565b90506000816001600160401b03811115611396576113966134b5565b6040519080825280602002602001820160405280156113bf578160200160208202803683370190505b50905060005b82811015610d6d576113d78582610b81565b8282815181106113e9576113e9613b49565b6020908102919091010152806113fe81613b75565b9150506113c5565b60008281526101916020526040812061141f908361208b565b9392505050565b600091825261015f602090815260408084206001600160a01b0393909316845291905290205460ff1690565b6000805160206142db83398151915261146a81611e56565b6114748484611ef9565b610eb583612097565b6060606680546107fe90613ac2565b6060600082516001600160401b038111156114a9576114a96134b5565b6040519080825280602002602001820160405280156114dc57816020015b60608152602001906001900390816114c75790505b50905060005b8351811015610d6d5761025d6000868152602001908152602001600020600085838151811061151357611513613b49565b60200260200101518152602001908152602001600020805461153490613ac2565b80601f016020809104026020016040519081016040528092919081815260200182805461156090613ac2565b80156115ad5780601f10611582576101008083540402835291602001916115ad565b820191906000526020600020905b81548152906001019060200180831161159057829003601f168201915b50505050508282815181106115c4576115c4613b49565b602002602001018190525080806115da90613b75565b9150506114e2565b610def3383836120a3565b7f364d3d7565c7a8300c96fd53e065d19b65848d7b23b3191adcd55621c744223c61161781611e56565b600085815261025c602090815260408083208784528252808320868452825291829020849055815186815290810185905290810183905285907fc3bdb5f4a3cbb68ce4ebe3dda3660f3067add044dc5be3a047d818fd416663699060600160405180910390a25050505050565b61168e3383611c66565b6116aa5760405162461bcd60e51b81526004016109cb90613afc565b610eb584848484612171565b6060600060015b6127108110156116f5576116d0816121a4565b156116e357816116df81613b75565b9250505b806116ed81613b75565b9150506116bd565b506000816001600160401b03811115611710576117106134b5565b604051908082528060200260200182016040528015611739578160200160208202803683370190505b509050600060015b61271081101561179757611754816121a4565b15611785578083838151811061176c5761176c613b49565b60209081029190910101528161178181613b75565b9250505b8061178f81613b75565b915050611741565b50909392505050565b6060600082516001600160401b038111156117bd576117bd6134b5565b6040519080825280602002602001820160405280156117e6578160200160208202803683370190505b50905060005b835181101561186c57600086815261025c602090815260408083208884529091528120855190919086908490811061182657611826613b49565b602002602001015181526020019081526020016000205482828151811061184f5761184f613b49565b60209081029190910101528061186481613b75565b9150506117ec565b50949350505050565b60606107e961188383611a80565b6121af565b6000818152610191602052604081206107e9906121e0565b600082815261015f60205260409020600101546118bc81611e56565b610a6c8383611e83565b6000805160206142fb8339815191526118de81611e56565b60005b8451811015611972578281815181106118fc576118fc613b49565b602002602001015161025b600087848151811061191b5761191b613b49565b60200260200101518152602001908152602001600020600086848151811061194557611945613b49565b6020026020010151815260200190815260200160002081905550808061196a90613b75565b9150506118e1565b5050505050565b6000805160206142fb83398151915261199181611e56565b50600092835261025b60209081526040808520938552929052912055565b7f364d3d7565c7a8300c96fd53e065d19b65848d7b23b3191adcd55621c744223c6119d981611e56565b600084815261025d6020908152604080832086845290915290206119fd8382613bd4565b50837fbf91c112c44cd8e958afe3106b290f594b5e23b83fcc88bdb9ac5da7f00be5698484604051611a30929190613c93565b60405180910390a250505050565b60005b8151811015610eb557611a6e8484848481518110611a6157611a61613b49565b6020026020010151610a71565b80611a7881613b75565b915050611a41565b600081815261025b60209081526040808320838052909152808220546001835281832054600284529183205460609391929160fc611abd876121ea565b604051602001611ace929190613cc8565b60405160208183030381529060405290506000611aea87610f4e565b90506000611af7886121ea565b83611b0a846001600160a01b031661227c565b604051602001611b1c93929190613d4f565b60405160208183030381529060405290506000611b38876121ea565b611b41876121ea565b611b4a876121ea565b604051602001611b5c93929190613e64565b60405160208183030381529060405290508181604051602001611b80929190613fcb565b604051602081830303815290604052975050505050505050919050565b60006107e982612292565b611bb1816121a4565b610e135760405162461bcd60e51b8152602060048201526018602482015277115490cdcc8c4e881a5b9d985b1a59081d1bdad95b88125160421b60448201526064016109cb565b600081815260696020526040902080546001600160a01b0319166001600160a01b0384169081179091558190611c2d82610f4e565b6001600160a01b03167f8c5be1e5ebec7d5bd14f71427d1e84f3dd0314c0f7b2291e5b200ac8c7c3b92560405160405180910390a45050565b600080611c7283610f4e565b9050806001600160a01b0316846001600160a01b03161480611cb957506001600160a01b038082166000908152606a602090815260408083209388168352929052205460ff165b80611cdd5750836001600160a01b0316611cd284610930565b6001600160a01b0316145b949350505050565b826001600160a01b0316611cf882610f4e565b6001600160a01b031614611d1e5760405162461bcd60e51b81526004016109cb90614018565b6001600160a01b038216611d805760405162461bcd60e51b8152602060048201526024808201527f4552433732313a207472616e7366657220746f20746865207a65726f206164646044820152637265737360e01b60648201526084016109cb565b611d8d83838360016122b7565b826001600160a01b0316611da082610f4e565b6001600160a01b031614611dc65760405162461bcd60e51b81526004016109cb90614018565b600081815260696020908152604080832080546001600160a01b03199081169091556001600160a01b0387811680865260688552838620805460001901905590871680865283862080546001019055868652606790945282852080549092168417909155905184937fddf252ad1be2c89b69c2b068fc378daa952ba7f163c4a11628f55a4df523b3ef91a4505050565b610e138133612373565b611e6a82826123cc565b600082815261019160205260409020610a6c9082612453565b611e8d8282612468565b600082815261019160205260409020610a6c90826124d0565b611eae6124e5565b61012d805460ff191690557f5db9ee0a495bf2e6ff9c91a7834c1ba4fdd244a5e8aa4e537bd38aeae4b073aa335b6040516001600160a01b03909116815260200160405180910390a1565b610def82826040518060200160405280600081525061252f565b611f1c33610a76565b611f7f5760405162461bcd60e51b815260206004820152602e60248201527f4552433732313a2063616c6c6572206973206e6f7420746f6b656e206f776e6560448201526d1c881b9bdc88185c1c1c9bdd995960921b60648201526084016109cb565b611f8b6101f582612562565b50610e138161256e565b600054610100900460ff16611fbc5760405162461bcd60e51b81526004016109cb9061405d565b610def82826125ae565b600054610100900460ff16611fed5760405162461bcd60e51b81526004016109cb9061405d565b611ff5611ff7565b565b600054610100900460ff16611ff55760405162461bcd60e51b81526004016109cb9061405d565b600054610100900460ff166120455760405162461bcd60e51b81526004016109cb9061405d565b611ff56125ee565b612055612622565b61012d805460ff191660011790557f62e78cea01bee320cd4e420270b5ea74000d11b0c9f74754ebdbfc544b05a258611edc3390565b600061141f8383612669565b610def6101f582612693565b816001600160a01b0316836001600160a01b0316036121045760405162461bcd60e51b815260206004820152601960248201527f4552433732313a20617070726f766520746f2063616c6c65720000000000000060448201526064016109cb565b6001600160a01b038381166000818152606a6020908152604080832094871680845294825291829020805460ff191686151590811790915591519182527f17307eab39ab6107e8899845ad3d59bd9653f200f220920489ca2b5937696c31910160405180910390a3505050565b61217c848484611ce5565b6121888484848461269f565b610eb55760405162461bcd60e51b81526004016109cb906140a8565b60006107e9826127a0565b60606121ba826127bf565b6040516020016121ca91906140fa565b6040516020818303038152906040529050919050565b60006107e9825490565b606060006121f783612911565b60010190506000816001600160401b03811115612216576122166134b5565b6040519080825280601f01601f191660200182016040528015612240576020820181803683370190505b5090508181016020015b600019016f181899199a1a9b1b9c1cb0b131b232b360811b600a86061a8153600a850494508461224a57509392505050565b60606107e96001600160a01b03831660146129e9565b60006001600160e01b03198216635a05180f60e01b14806107e957506107e982612b84565b6122bf612622565b836122cc61025982612ba9565b1561230f5760405162461bcd60e51b8152602060048201526013602482015272426c61636b6c6973746564206164647265737360681b60448201526064016109cb565b8361231c61025982612ba9565b1561235f5760405162461bcd60e51b8152602060048201526013602482015272426c61636b6c6973746564206164647265737360681b60448201526064016109cb565b61236b86868686612bcb565b505050505050565b61237d8282611426565b610def5761238a8161227c565b6123958360206129e9565b6040516020016123a692919061413f565b60408051601f198184030181529082905262461bcd60e51b82526109cb916004016133e5565b6123d68282611426565b610def57600082815261015f602090815260408083206001600160a01b03851684529091529020805460ff1916600117905561240f3390565b6001600160a01b0316816001600160a01b0316837f2f8788117e7eff1d82e926ec794901d17c78024a50270940304540a733656f0d60405160405180910390a45050565b600061141f836001600160a01b038416612bd7565b6124728282611426565b15610def57600082815261015f602090815260408083206001600160a01b0385168085529252808320805460ff1916905551339285917ff6391f5c32d9c69d2a47ea670b442974b53935d1edc7fd64eb21e047a839171b9190a45050565b600061141f836001600160a01b038416612c26565b61012d5460ff16611ff55760405162461bcd60e51b815260206004820152601460248201527314185d5cd8589b194e881b9bdd081c185d5cd95960621b60448201526064016109cb565b6125398383612d19565b612546600084848461269f565b610a6c5760405162461bcd60e51b81526004016109cb906140a8565b600061141f8383612bd7565b61257781612e94565b600081815260fb60205260409020805461259090613ac2565b159050610e1357600081815260fb60205260408120610e1391613314565b600054610100900460ff166125d55760405162461bcd60e51b81526004016109cb9061405d565b60656125e18382613bd4565b506066610a6c8282613bd4565b600054610100900460ff166126155760405162461bcd60e51b81526004016109cb9061405d565b61012d805460ff19169055565b61012d5460ff1615611ff55760405162461bcd60e51b815260206004820152601060248201526f14185d5cd8589b194e881c185d5cd95960821b60448201526064016109cb565b600082600001828154811061268057612680613b49565b9060005260206000200154905092915050565b600061141f8383612c26565b60006001600160a01b0384163b1561279557604051630a85bd0160e11b81526001600160a01b0385169063150b7a02906126e39033908990889088906004016141b4565b6020604051808303816000875af192505050801561271e575060408051601f3d908101601f1916820190925261271b918101906141f1565b60015b61277b573d80801561274c576040519150601f19603f3d011682016040523d82523d6000602084013e612751565b606091505b5080516000036127735760405162461bcd60e51b81526004016109cb906140a8565b805181602001fd5b6001600160e01b031916630a85bd0160e11b149050611cdd565b506001949350505050565b6000818152606760205260408120546001600160a01b031615156107e9565b606081516000036127de57505060408051602081019091526000815290565b600060405180606001604052806040815260200161429b604091399050600060038451600261280d919061420e565b6128179190614221565b612822906004614243565b6001600160401b03811115612839576128396134b5565b6040519080825280601f01601f191660200182016040528015612863576020820181803683370190505b509050600182016020820185865187015b808210156128cf576003820191508151603f8160121c168501518453600184019350603f81600c1c168501518453600184019350603f8160061c168501518453600184019350603f8116850151845350600183019250612874565b50506003865106600181146128eb57600281146128fe57612906565b603d6001830353603d6002830353612906565b603d60018303535b509195945050505050565b60008072184f03e93ff9f4daa797ed6e38ed64bf6a1f0160401b83106129505772184f03e93ff9f4daa797ed6e38ed64bf6a1f0160401b830492506040015b6d04ee2d6d415b85acef8100000000831061297c576d04ee2d6d415b85acef8100000000830492506020015b662386f26fc10000831061299a57662386f26fc10000830492506010015b6305f5e10083106129b2576305f5e100830492506008015b61271083106129c657612710830492506004015b606483106129d8576064830492506002015b600a83106107e95760010192915050565b606060006129f8836002614243565b612a0390600261420e565b6001600160401b03811115612a1a57612a1a6134b5565b6040519080825280601f01601f191660200182016040528015612a44576020820181803683370190505b509050600360fc1b81600081518110612a5f57612a5f613b49565b60200101906001600160f81b031916908160001a905350600f60fb1b81600181518110612a8e57612a8e613b49565b60200101906001600160f81b031916908160001a9053506000612ab2846002614243565b612abd90600161420e565b90505b6001811115612b35576f181899199a1a9b1b9c1cb0b131b232b360811b85600f1660108110612af157612af1613b49565b1a60f81b828281518110612b0757612b07613b49565b60200101906001600160f81b031916908160001a90535060049490941c93612b2e8161425a565b9050612ac0565b50831561141f5760405162461bcd60e51b815260206004820181905260248201527f537472696e67733a20686578206c656e67746820696e73756666696369656e7460448201526064016109cb565b60006001600160e01b03198216637965db0b60e01b14806107e957506107e982612f37565b6001600160a01b0381166000908152600183016020526040812054151561141f565b610eb584848484612f42565b6000818152600183016020526040812054612c1e575081546001818101845560008481526020808220909301849055845484825282860190935260409020919091556107e9565b5060006107e9565b60008181526001830160205260408120548015612d0f576000612c4a600183614271565b8554909150600090612c5e90600190614271565b9050818114612cc3576000866000018281548110612c7e57612c7e613b49565b9060005260206000200154905080876000018481548110612ca157612ca1613b49565b6000918252602080832090910192909255918252600188019052604090208390555b8554869080612cd457612cd4614284565b6001900381819060005260206000200160009055905585600101600086815260200190815260200160002060009055600193505050506107e9565b60009150506107e9565b6001600160a01b038216612d6f5760405162461bcd60e51b815260206004820181905260248201527f4552433732313a206d696e7420746f20746865207a65726f206164647265737360448201526064016109cb565b612d78816121a4565b15612dc55760405162461bcd60e51b815260206004820152601c60248201527f4552433732313a20746f6b656e20616c7265616479206d696e7465640000000060448201526064016109cb565b612dd36000838360016122b7565b612ddc816121a4565b15612e295760405162461bcd60e51b815260206004820152601c60248201527f4552433732313a20746f6b656e20616c7265616479206d696e7465640000000060448201526064016109cb565b6001600160a01b038216600081815260686020908152604080832080546001019055848352606790915280822080546001600160a01b0319168417905551839291907fddf252ad1be2c89b69c2b068fc378daa952ba7f163c4a11628f55a4df523b3ef908290a45050565b6000612e9f82610f4e565b9050612eaf8160008460016122b7565b612eb882610f4e565b600083815260696020908152604080832080546001600160a01b03199081169091556001600160a01b0385168085526068845282852080546000190190558785526067909352818420805490911690555192935084927fddf252ad1be2c89b69c2b068fc378daa952ba7f163c4a11628f55a4df523b3ef908390a45050565b60006107e982612f4e565b610eb584848484612f73565b60006001600160e01b0319821663780e9d6360e01b14806107e957506107e9826130ac565b612f7f848484846130fc565b6001811115612fee5760405162461bcd60e51b815260206004820152603560248201527f455243373231456e756d657261626c653a20636f6e7365637574697665207472604482015274185b9cd9995c9cc81b9bdd081cdd5c1c1bdc9d1959605a1b60648201526084016109cb565b816001600160a01b03851661304a5761304581609980546000838152609a60205260408120829055600182018355919091527f72a152ddfb8e864297c917af52ea6c1c68aead0fee1a62673fcc7e0c94979d000155565b61306d565b836001600160a01b0316856001600160a01b03161461306d5761306d8582613184565b6001600160a01b0384166130895761308481613221565b611972565b846001600160a01b0316846001600160a01b0316146119725761197284826132d0565b60006001600160e01b031982166380ac58cd60e01b14806130dd57506001600160e01b03198216635b5e139f60e01b145b806107e957506301ffc9a760e01b6001600160e01b03198316146107e9565b6001811115610eb5576001600160a01b03841615613142576001600160a01b0384166000908152606860205260408120805483929061313c908490614271565b90915550505b6001600160a01b03831615610eb5576001600160a01b0383166000908152606860205260408120805483929061317990849061420e565b909155505050505050565b6000600161319184611083565b61319b9190614271565b6000838152609860205260409020549091508082146131ee576001600160a01b03841660009081526097602090815260408083208584528252808320548484528184208190558352609890915290208190555b5060009182526098602090815260408084208490556001600160a01b039094168352609781528383209183525290812055565b60995460009061323390600190614271565b6000838152609a60205260408120546099805493945090928490811061325b5761325b613b49565b90600052602060002001549050806099838154811061327c5761327c613b49565b6000918252602080832090910192909255828152609a909152604080822084905585825281205560998054806132b4576132b4614284565b6001900381819060005260206000200160009055905550505050565b60006132db83611083565b6001600160a01b039093166000908152609760209081526040808320868452825280832085905593825260989052919091209190915550565b50805461332090613ac2565b6000825580601f10613330575050565b601f016020900490600052602060002090810190610e1391905b8082111561335e576000815560010161334a565b5090565b6001600160e01b031981168114610e1357600080fd5b60006020828403121561338a57600080fd5b813561141f81613362565b60005b838110156133b0578181015183820152602001613398565b50506000910152565b600081518084526133d1816020860160208601613395565b601f01601f19169290920160200192915050565b60208152600061141f60208301846133b9565b6000806040838503121561340b57600080fd5b50508035926020909101359150565b60006020828403121561342c57600080fd5b5035919050565b80356001600160a01b038116811461344a57600080fd5b919050565b6000806040838503121561346257600080fd5b61346b83613433565b946020939093013593505050565b60008060006060848603121561348e57600080fd5b61349784613433565b92506134a560208501613433565b9150604084013590509250925092565b634e487b7160e01b600052604160045260246000fd5b604051601f8201601f191681016001600160401b03811182821017156134f3576134f36134b5565b604052919050565b600082601f83011261350c57600080fd5b813560206001600160401b03821115613527576135276134b5565b8160051b6135368282016134cb565b928352848101820192828101908785111561355057600080fd5b83870192505b8483101561356f57823582529183019190830190613556565b979650505050505050565b60006020828403121561358c57600080fd5b81356001600160401b038111156135a257600080fd5b611cdd848285016134fb565b6000602080830181845280855180835260408601915060408160051b870101925083870160005b8281101561360357603f198886030184526135f18583516133b9565b945092850192908501906001016135d5565b5092979650505050505050565b6000806040838503121561362357600080fd5b8235915061363360208401613433565b90509250929050565b6000806040838503121561364f57600080fd5b82356001600160401b0381111561366557600080fd5b613671858286016134fb565b95602094909401359450505050565b60008060006060848603121561369557600080fd5b505081359360208301359350604090920135919050565b600080604083850312156136bf57600080fd5b6136c883613433565b915060208301356001600160401b038111156136e357600080fd5b6136ef858286016134fb565b9150509250929050565b600082601f83011261370a57600080fd5b81356001600160401b03811115613723576137236134b5565b613736601f8201601f19166020016134cb565b81815284602083860101111561374b57600080fd5b816020850160208301376000918101602001919091529392505050565b60006020828403121561377a57600080fd5b81356001600160401b0381111561379057600080fd5b611cdd848285016136f9565b6000602082840312156137ae57600080fd5b61141f82613433565b6020808252825182820181905260009190848201906040850190845b818110156137ef578351835292840192918401916001016137d3565b50909695505050505050565b60008060006060848603121561381057600080fd5b61381984613433565b92506020840135915060408401356001600160401b0381111561383b57600080fd5b613847868287016136f9565b9150509250925092565b6000806040838503121561386457600080fd5b8235915060208301356001600160401b038111156136e357600080fd5b6000806040838503121561389457600080fd5b61389d83613433565b9150602083013580151581146138b257600080fd5b809150509250929050565b600080600080608085870312156138d357600080fd5b5050823594602084013594506040840135936060013592509050565b6000806000806080858703121561390557600080fd5b61390e85613433565b935061391c60208601613433565b92506040850135915060608501356001600160401b0381111561393e57600080fd5b61394a878288016136f9565b91505092959194509250565b60008060006060848603121561396b57600080fd5b833592506020840135915060408401356001600160401b0381111561398f57600080fd5b613847868287016134fb565b6000806000606084860312156139b057600080fd5b83356001600160401b03808211156139c757600080fd5b6139d3878388016134fb565b945060208601359150808211156139e957600080fd5b6139f5878388016134fb565b93506040860135915080821115613a0b57600080fd5b50613847868287016134fb565b60008060408385031215613a2b57600080fd5b613a3483613433565b915061363360208401613433565b600080600060608486031215613a5757600080fd5b833592506020840135915060408401356001600160401b0381111561383b57600080fd5b600080600060608486031215613a9057600080fd5b613a9984613433565b9250613aa760208501613433565b915060408401356001600160401b0381111561398f57600080fd5b600181811c90821680613ad657607f821691505b602082108103613af657634e487b7160e01b600052602260045260246000fd5b50919050565b6020808252602d908201527f4552433732313a2063616c6c6572206973206e6f7420746f6b656e206f776e6560408201526c1c881bdc88185c1c1c9bdd9959609a1b606082015260800190565b634e487b7160e01b600052603260045260246000fd5b634e487b7160e01b600052601160045260246000fd5b600060018201613b8757613b87613b5f565b5060010190565b601f821115610a6c57600081815260208120601f850160051c81016020861015613bb55750805b601f850160051c820191505b8181101561236b57828155600101613bc1565b81516001600160401b03811115613bed57613bed6134b5565b613c0181613bfb8454613ac2565b84613b8e565b602080601f831160018114613c365760008415613c1e5750858301515b600019600386901b1c1916600185901b17855561236b565b600085815260208120601f198616915b82811015613c6557888601518255948401946001909101908401613c46565b5085821015613c835787850151600019600388901b60f8161c191681555b5050505050600190811b01905550565b828152604060208201526000611cdd60408301846133b9565b60008151613cbe818560208601613395565b9290920192915050565b6000808454613cd681613ac2565b60018281168015613cee5760018114613d0357613d32565b60ff1984168752821515830287019450613d32565b8860005260208060002060005b85811015613d295781548a820152908401908201613d10565b50505082870194505b505050508351613d46818360208801613395565b01949350505050565b7f226e616d65223a22436f736d69632049736c616e64204c616e6420506c6f74208152602360f81b602082015260008451613d91816021850160208901613395565b61088b60f21b60219184019182018190527f226465736372697074696f6e223a224c616e6420706c6f74206f6e20436f736d60238301526a1a58c8125cdb185b99088b60aa1b6043830152681134b6b0b3b2911d1160b91b604e8301528551613e01816057850160208a01613395565b6057920191820152681137bbb732b9111d1160b91b60598201528351613e2e816062840160208801613395565b61356f613e4860628385010161088b60f21b815260020190565b6f089d1e5c19488e88915490cdcc8c488b60821b815260100190565b6e2261747472696275746573223a205b60881b81526000607b60f81b80600f8401527f2274726169745f74797065223a20226c61746974756465222c200000000000006010840152680113b30b63ab2911d160bd1b80602a8501528651613ed2816033870160208b01613395565b80850190506203e96160ed1b60338201528260368201527f2274726169745f74797065223a20226c6f6e676974756465222c200000000000603782015281605282015286519250613f2a83605b830160208a01613395565b613fbf613fb2613fa5613f9f613f8a613f61613f54605b8a8901016203e96160ed1b815260030190565b607b60f81b815260010190565b7f2274726169745f74797065223a2022726567696f6e222c200000000000000000815260180190565b680113b30b63ab2911d160bd1b815260090190565b89613cac565b607d60f81b815260010190565b605d60f81b815260010190565b98975050505050505050565b607b60f81b815260008351613fe7816001850160208801613395565b835190830190613ffe816001840160208801613395565b607d60f81b60019290910191820152600201949350505050565b60208082526025908201527f4552433732313a207472616e736665722066726f6d20696e636f72726563742060408201526437bbb732b960d91b606082015260800190565b6020808252602b908201527f496e697469616c697a61626c653a20636f6e7472616374206973206e6f74206960408201526a6e697469616c697a696e6760a81b606082015260800190565b60208082526032908201527f4552433732313a207472616e7366657220746f206e6f6e20455243373231526560408201527131b2b4bb32b91034b6b83632b6b2b73a32b960711b606082015260800190565b7f646174613a6170706c69636174696f6e2f6a736f6e3b6261736536342c00000081526000825161413281601d850160208701613395565b91909101601d0192915050565b7f416363657373436f6e74726f6c3a206163636f756e7420000000000000000000815260008351614177816017850160208801613395565b7001034b99036b4b9b9b4b733903937b6329607d1b60179184019182015283516141a8816028840160208801613395565b01602801949350505050565b6001600160a01b03858116825284166020820152604081018390526080606082018190526000906141e7908301846133b9565b9695505050505050565b60006020828403121561420357600080fd5b815161141f81613362565b808201808211156107e9576107e9613b5f565b60008261423e57634e487b7160e01b600052601260045260246000fd5b500490565b80820281158282048414176107e9576107e9613b5f565b60008161426957614269613b5f565b506000190190565b818103818111156107e9576107e9613b5f565b634e487b7160e01b600052603160045260246000fdfe4142434445464748494a4b4c4d4e4f505152535455565758595a6162636465666768696a6b6c6d6e6f707172737475767778797a303132333435363738392b2f9f2df0fed2c77648de5860a4cc508cd0818c85b8b8a1ab4ceeef8d981c8956a6a49807205ce4d355092ef5a8a18f56e8913cf4a201fbe287825b095693c21775a2646970667358221220e1014a648a00916a437eebeda6fd61dbccbd8d24113ea8f7d75a19f3555fa32064736f6c63430008110033",
  "linkReferences": {},
  "deployedLinkReferences": {}
}