{
  "_format": "hh-sol-artifact-1",
  "contractName": "StakingRewardsClaimAvalanche",
  "sourceName": "contracts/upgradeable/npc/ProfessionStaking/Avalanche/StakingRewardsClaimAvalanche.sol",
  "abi": [
    {
      "inputs": [],
      "stateMutability": "nonpayable",
      "type": "constructor"
    },
    {
      "anonymous": false,
      "inputs": [
        {
          "indexed": true,
          "internalType": "address",
          "name": "from",
          "type": "address"
        },
        {
          "indexed": false,
          "internalType": "uint256",
          "name": "tokenID",
          "type": "uint256"
        },
        {
          "indexed": false,
          "internalType": "uint256",
          "name": "chestId",
          "type": "uint256"
        }
      ],
      "name": "ChestClaimed",
      "type": "event"
    },
    {
      "anonymous": false,
      "inputs": [
        {
          "indexed": false,
          "internalType": "uint8",
          "name": "version",
          "type": "uint8"
        }
      ],
      "name": "Initialized",
      "type": "event"
    },
    {
      "anonymous": false,
      "inputs": [
        {
          "indexed": false,
          "internalType": "address",
          "name": "account",
          "type": "address"
        }
      ],
      "name": "Paused",
      "type": "event"
    },
    {
      "anonymous": false,
      "inputs": [
        {
          "indexed": true,
          "internalType": "bytes32",
          "name": "role",
          "type": "bytes32"
        },
        {
          "indexed": true,
          "internalType": "bytes32",
          "name": "previousAdminRole",
          "type": "bytes32"
        },
        {
          "indexed": true,
          "internalType": "bytes32",
          "name": "newAdminRole",
          "type": "bytes32"
        }
      ],
      "name": "RoleAdminChanged",
      "type": "event"
    },
    {
      "anonymous": false,
      "inputs": [
        {
          "indexed": true,
          "internalType": "bytes32",
          "name": "role",
          "type": "bytes32"
        },
        {
          "indexed": true,
          "internalType": "address",
          "name": "account",
          "type": "address"
        },
        {
          "indexed": true,
          "internalType": "address",
          "name": "sender",
          "type": "address"
        }
      ],
      "name": "RoleGranted",
      "type": "event"
    },
    {
      "anonymous": false,
      "inputs": [
        {
          "indexed": true,
          "internalType": "bytes32",
          "name": "role",
          "type": "bytes32"
        },
        {
          "indexed": true,
          "internalType": "address",
          "name": "account",
          "type": "address"
        },
        {
          "indexed": true,
          "internalType": "address",
          "name": "sender",
          "type": "address"
        }
      ],
      "name": "RoleRevoked",
      "type": "event"
    },
    {
      "anonymous": false,
      "inputs": [
        {
          "indexed": false,
          "internalType": "address",
          "name": "account",
          "type": "address"
        }
      ],
      "name": "Unpaused",
      "type": "event"
    },
    {
      "inputs": [],
      "name": "ADMIN_ROLE",
      "outputs": [
        {
          "internalType": "bytes32",
          "name": "",
          "type": "bytes32"
        }
      ],
      "stateMutability": "view",
      "type": "function"
    },
    {
      "inputs": [],
      "name": "BUNDLES",
      "outputs": [
        {
          "internalType": "contract ICosmicBundles",
          "name": "",
          "type": "address"
        }
      ],
      "stateMutability": "view",
      "type": "function"
    },
    {
      "inputs": [],
      "name": "CONTRACT_ROLE",
      "outputs": [
        {
          "internalType": "bytes32",
          "name": "",
          "type": "bytes32"
        }
      ],
      "stateMutability": "view",
      "type": "function"
    },
    {
      "inputs": [],
      "name": "DEFAULT_ADMIN_ROLE",
      "outputs": [
        {
          "internalType": "bytes32",
          "name": "",
          "type": "bytes32"
        }
      ],
      "stateMutability": "view",
      "type": "function"
    },
    {
      "inputs": [],
      "name": "WIZARDS",
      "outputs": [
        {
          "internalType": "contract ICosmicWizards",
          "name": "",
          "type": "address"
        }
      ],
      "stateMutability": "view",
      "type": "function"
    },
    {
      "inputs": [
        {
          "internalType": "uint256[]",
          "name": "tokenIds",
          "type": "uint256[]"
        }
      ],
      "name": "batchClaim",
      "outputs": [],
      "stateMutability": "nonpayable",
      "type": "function"
    },
    {
      "inputs": [
        {
          "internalType": "uint256[]",
          "name": "tokenIds",
          "type": "uint256[]"
        },
        {
          "internalType": "address[]",
          "name": "owners",
          "type": "address[]"
        }
      ],
      "name": "batchStakedClaim",
      "outputs": [],
      "stateMutability": "nonpayable",
      "type": "function"
    },
    {
      "inputs": [
        {
          "internalType": "uint256",
          "name": "tokenId",
          "type": "uint256"
        }
      ],
      "name": "checkEligibility",
      "outputs": [
        {
          "internalType": "address",
          "name": "owner",
          "type": "address"
        },
        {
          "internalType": "uint256",
          "name": "points",
          "type": "uint256"
        },
        {
          "internalType": "uint256",
          "name": "claimed",
          "type": "uint256"
        }
      ],
      "stateMutability": "view",
      "type": "function"
    },
    {
      "inputs": [
        {
          "internalType": "uint256",
          "name": "tokenId",
          "type": "uint256"
        }
      ],
      "name": "claim",
      "outputs": [],
      "stateMutability": "nonpayable",
      "type": "function"
    },
    {
      "inputs": [
        {
          "internalType": "bytes32",
          "name": "role",
          "type": "bytes32"
        }
      ],
      "name": "getRoleAdmin",
      "outputs": [
        {
          "internalType": "bytes32",
          "name": "",
          "type": "bytes32"
        }
      ],
      "stateMutability": "view",
      "type": "function"
    },
    {
      "inputs": [
        {
          "internalType": "bytes32",
          "name": "role",
          "type": "bytes32"
        },
        {
          "internalType": "uint256",
          "name": "index",
          "type": "uint256"
        }
      ],
      "name": "getRoleMember",
      "outputs": [
        {
          "internalType": "address",
          "name": "",
          "type": "address"
        }
      ],
      "stateMutability": "view",
      "type": "function"
    },
    {
      "inputs": [
        {
          "internalType": "bytes32",
          "name": "role",
          "type": "bytes32"
        }
      ],
      "name": "getRoleMemberCount",
      "outputs": [
        {
          "internalType": "uint256",
          "name": "",
          "type": "uint256"
        }
      ],
      "stateMutability": "view",
      "type": "function"
    },
    {
      "inputs": [
        {
          "internalType": "bytes32",
          "name": "role",
          "type": "bytes32"
        },
        {
          "internalType": "address",
          "name": "account",
          "type": "address"
        }
      ],
      "name": "grantRole",
      "outputs": [],
      "stateMutability": "nonpayable",
      "type": "function"
    },
    {
      "inputs": [
        {
          "internalType": "bytes32",
          "name": "role",
          "type": "bytes32"
        },
        {
          "internalType": "address",
          "name": "account",
          "type": "address"
        }
      ],
      "name": "hasRole",
      "outputs": [
        {
          "internalType": "bool",
          "name": "",
          "type": "bool"
        }
      ],
      "stateMutability": "view",
      "type": "function"
    },
    {
      "inputs": [],
      "name": "initialize",
      "outputs": [],
      "stateMutability": "nonpayable",
      "type": "function"
    },
    {
      "inputs": [],
      "name": "pause",
      "outputs": [],
      "stateMutability": "nonpayable",
      "type": "function"
    },
    {
      "inputs": [],
      "name": "paused",
      "outputs": [
        {
          "internalType": "bool",
          "name": "",
          "type": "bool"
        }
      ],
      "stateMutability": "view",
      "type": "function"
    },
    {
      "inputs": [
        {
          "internalType": "bytes32",
          "name": "role",
          "type": "bytes32"
        },
        {
          "internalType": "address",
          "name": "account",
          "type": "address"
        }
      ],
      "name": "renounceRole",
      "outputs": [],
      "stateMutability": "nonpayable",
      "type": "function"
    },
    {
      "inputs": [
        {
          "internalType": "bytes32",
          "name": "role",
          "type": "bytes32"
        },
        {
          "internalType": "address",
          "name": "account",
          "type": "address"
        }
      ],
      "name": "revokeRole",
      "outputs": [],
      "stateMutability": "nonpayable",
      "type": "function"
    },
    {
      "inputs": [
        {
          "internalType": "uint256",
          "name": "tokenId",
          "type": "uint256"
        },
        {
          "internalType": "address",
          "name": "owner",
          "type": "address"
        }
      ],
      "name": "stakedClaim",
      "outputs": [],
      "stateMutability": "nonpayable",
      "type": "function"
    },
    {
      "inputs": [
        {
          "internalType": "bytes4",
          "name": "interfaceId",
          "type": "bytes4"
        }
      ],
      "name": "supportsInterface",
      "outputs": [
        {
          "internalType": "bool",
          "name": "",
          "type": "bool"
        }
      ],
      "stateMutability": "view",
      "type": "function"
    },
    {
      "inputs": [],
      "name": "unpause",
      "outputs": [],
      "stateMutability": "nonpayable",
      "type": "function"
    }
  ],
  "bytecode": "0x608060405234801561001057600080fd5b5061001961001e565b6100de565b600054610100900460ff161561008a5760405162461bcd60e51b815260206004820152602760248201527f496e697469616c697a61626c653a20636f6e747261637420697320696e697469604482015266616c697a696e6760c81b606482015260840160405180910390fd5b60005460ff90811610156100dc576000805460ff191660ff9081179091556040519081527f7f26b83ff96e1f2b6a682f133852f6798a09c465da95921460cefb38474024989060200160405180910390a15b565b611dca806100ed6000396000f3fe608060405234801561001057600080fd5b50600436106101425760003560e01c806375b238fc116100b857806391d148541161007c57806391d14854146102e6578063a217fddf146102f9578063bc29278214610301578063ca15c87314610314578063cba3dfff14610327578063d547741f1461033a57600080fd5b806375b238fc146102765780637b39fed61461028b5780638129fc1c146102c35780638456cb59146102cb5780639010d07c146102d357600080fd5b8063319835281161010a578063319835281461020f57806336568abe14610222578063379607f5146102355780633f4ba83a146102485780635c975abb1461025057806364dd3be01461025b57600080fd5b806301ffc9a71461014757806303fe46ab1461016f5780630fb703ca146101a4578063248a9ca3146101d75780632f2ff15d146101fa575b600080fd5b61015a6101553660046117b3565b61034d565b60405190151581526020015b60405180910390f35b6101967f9f2df0fed2c77648de5860a4cc508cd0818c85b8b8a1ab4ceeef8d981c8956a681565b604051908152602001610166565b6101bf7304ab0f76de2d5ba63082193c66e8ce571a32454e81565b6040516001600160a01b039091168152602001610166565b6101966101e53660046117dd565b60009081526097602052604090206001015490565b61020d61020836600461180b565b610378565b005b61020d61021d366004611911565b6103a2565b61020d61023036600461180b565b610404565b61020d6102433660046117dd565b610487565b61020d61086e565b60335460ff1661015a565b6101bf73bf20c23d25fca8aa4e7946496250d67872691af281565b610196600080516020611d7583398151915281565b61029e6102993660046117dd565b610891565b604080516001600160a01b039094168452602084019290925290820152606001610166565b61020d6109a3565b61020d610b08565b6101bf6102e13660046119d5565b610b28565b61015a6102f436600461180b565b610b47565b610196600081565b61020d61030f3660046119f7565b610b72565b6101966103223660046117dd565b610bba565b61020d61033536600461180b565b610bd1565b61020d61034836600461180b565b611006565b60006001600160e01b03198216635a05180f60e01b148061037257506103728261102b565b92915050565b60008281526097602052604090206001015461039381611060565b61039d838361106a565b505050565b6103aa61108c565b60005b825181101561039d576103f28382815181106103cb576103cb611a34565b60200260200101518383815181106103e5576103e5611a34565b6020026020010151610bd1565b806103fc81611a60565b9150506103ad565b6001600160a01b03811633146104795760405162461bcd60e51b815260206004820152602f60248201527f416363657373436f6e74726f6c3a2063616e206f6e6c792072656e6f756e636560448201526e103937b632b9903337b91039b2b63360891b60648201526084015b60405180910390fd5b61048382826110d4565b5050565b61048f61108c565b600080600061049d84610891565b92509250925060148210156104c45760405162461bcd60e51b815260040161047090611a79565b600281106104e45760405162461bcd60e51b815260040161047090611aba565b8015806104fc57508060011480156104fc5750816028145b6105185760405162461bcd60e51b815260040161047090611afc565b735202e45eba7f58e350aa58b59deb64a668654006196001600160a01b038416016105855760405162461bcd60e51b815260206004820181905260248201527f5265776172647320436c61696d3a2043616e6e6f74206265206f6e2073616c656044820152606401610470565b7371e9e186dcfb6fd1ba018df46d21e7aa10969ad0196001600160a01b038416016106075760405162461bcd60e51b815260206004820152602c60248201527f5265776172647320436c61696d3a2043616e6e6f7420626520696e207374616b60448201526b1a5b99c818dbdb9d1c9858dd60a21b6064820152608401610470565b60148210158015610616575080155b156107375760405163731133e960e01b81527304ab0f76de2d5ba63082193c66e8ce571a32454e9063731133e990610658908690600090600190600401611b4b565b600060405180830381600087803b15801561067257600080fd5b505af1158015610686573d6000803e3d6000fd5b50506040516305ad7d8960e51b81526004810187905260026024820152600060448201526001606482015273bf20c23d25fca8aa4e7946496250d67872691af2925063b5afb1209150608401600060405180830381600087803b1580156106ec57600080fd5b505af1158015610700573d6000803e3d6000fd5b505060408051878152600060208201526001600160a01b0387169350600080516020611d5583398151915292500160405180910390a25b816028148015610748575060018111155b156108685760405163731133e960e01b81527304ab0f76de2d5ba63082193c66e8ce571a32454e9063731133e9906107899086906001908190600401611b4b565b600060405180830381600087803b1580156107a357600080fd5b505af11580156107b7573d6000803e3d6000fd5b50506040516305ad7d8960e51b81526004810187905260026024820181905260006044830152606482015273bf20c23d25fca8aa4e7946496250d67872691af2925063b5afb1209150608401600060405180830381600087803b15801561081d57600080fd5b505af1158015610831573d6000803e3d6000fd5b505060408051878152600160208201526001600160a01b0387169350600080516020611d5583398151915292500160405180910390a25b50505050565b600080516020611d7583398151915261088681611060565b61088e6110f6565b50565b600080600061089f84611148565b6040516322ca3b1560e11b815260048101869052600260248201526000604482015290925073bf20c23d25fca8aa4e7946496250d67872691af290634594762a90606401602060405180830381865afa158015610900573d6000803e3d6000fd5b505050506040513d601f19601f820116820180604052508101906109249190611b7b565b6040516331a9108f60e11b81526004810186905290915073bf20c23d25fca8aa4e7946496250d67872691af290636352211e90602401602060405180830381865afa158015610977573d6000803e3d6000fd5b505050506040513d601f19601f8201168201806040525081019061099b9190611b94565b949193509150565b600054610100900460ff16158080156109c35750600054600160ff909116105b806109dd5750303b1580156109dd575060005460ff166001145b610a405760405162461bcd60e51b815260206004820152602e60248201527f496e697469616c697a61626c653a20636f6e747261637420697320616c72656160448201526d191e481a5b9a5d1a585b1a5e995960921b6064820152608401610470565b6000805460ff191660011790558015610a63576000805461ff0019166101001790555b610a6b611204565b610a73611233565b610a7e60003361106a565b610a96600080516020611d758339815191523361106a565b610ac07f9f2df0fed2c77648de5860a4cc508cd0818c85b8b8a1ab4ceeef8d981c8956a63361106a565b801561088e576000805461ff0019169055604051600181527f7f26b83ff96e1f2b6a682f133852f6798a09c465da95921460cefb38474024989060200160405180910390a150565b600080516020611d75833981519152610b2081611060565b61088e61125a565b600082815260c960205260408120610b409083611297565b9392505050565b60009182526097602090815260408084206001600160a01b0393909316845291905290205460ff1690565b610b7a61108c565b60005b815181101561048357610ba8828281518110610b9b57610b9b611a34565b6020026020010151610487565b80610bb281611a60565b915050610b7d565b600081815260c960205260408120610372906112a3565b610bd961108c565b600080610be584610891565b604051631697425b60e21b8152600481018890526001600160a01b038716602482015291945092507371e9e186dcfb6fd1ba018df46d21e7aa10969ad191508190635a5d096c90604401602060405180830381865afa158015610c4c573d6000803e3d6000fd5b505050506040513d601f19601f82011682018060405250810190610c709190611bb1565b610cbc5760405162461bcd60e51b815260206004820181905260248201527f5265776172647320436c61696d3a204e6f74207374616b696e67204f776e65726044820152606401610470565b6014831015610cdd5760405162461bcd60e51b815260040161047090611a79565b60028210610cfd5760405162461bcd60e51b815260040161047090611aba565b811580610d155750816001148015610d155750826028145b610d315760405162461bcd60e51b815260040161047090611afc565b735202e45eba7f58e350aa58b59deb64a668654006196001600160a01b03851601610d9e5760405162461bcd60e51b815260206004820181905260248201527f5265776172647320436c61696d3a2043616e6e6f74206265206f6e2073616c656044820152606401610470565b60148310158015610dad575081155b15610ece5760405163731133e960e01b81527304ab0f76de2d5ba63082193c66e8ce571a32454e9063731133e990610def908790600090600190600401611b4b565b600060405180830381600087803b158015610e0957600080fd5b505af1158015610e1d573d6000803e3d6000fd5b50506040516305ad7d8960e51b81526004810188905260026024820152600060448201526001606482015273bf20c23d25fca8aa4e7946496250d67872691af2925063b5afb1209150608401600060405180830381600087803b158015610e8357600080fd5b505af1158015610e97573d6000803e3d6000fd5b505060408051888152600060208201526001600160a01b0388169350600080516020611d5583398151915292500160405180910390a25b826028148015610edf575060018211155b15610fff5760405163731133e960e01b81527304ab0f76de2d5ba63082193c66e8ce571a32454e9063731133e990610f209087906001908190600401611b4b565b600060405180830381600087803b158015610f3a57600080fd5b505af1158015610f4e573d6000803e3d6000fd5b50506040516305ad7d8960e51b81526004810188905260026024820181905260006044830152606482015273bf20c23d25fca8aa4e7946496250d67872691af2925063b5afb1209150608401600060405180830381600087803b158015610fb457600080fd5b505af1158015610fc8573d6000803e3d6000fd5b505060408051888152600160208201526001600160a01b0388169350600080516020611d5583398151915292500160405180910390a25b5050505050565b60008281526097602052604090206001015461102181611060565b61039d83836110d4565b60006001600160e01b03198216637965db0b60e01b148061037257506301ffc9a760e01b6001600160e01b0319831614610372565b61088e81336112ad565b6110748282611306565b600082815260c96020526040902061039d908261138c565b60335460ff16156110d25760405162461bcd60e51b815260206004820152601060248201526f14185d5cd8589b194e881c185d5cd95960821b6044820152606401610470565b565b6110de82826113a1565b600082815260c96020526040902061039d9082611408565b6110fe61141d565b6033805460ff191690557f5db9ee0a495bf2e6ff9c91a7834c1ba4fdd244a5e8aa4e537bd38aeae4b073aa335b6040516001600160a01b03909116815260200160405180910390a1565b600080805b600c8110156111fd576040516322ca3b1560e11b815260048101859052600160248201526044810182905260009073bf20c23d25fca8aa4e7946496250d67872691af290634594762a90606401602060405180830381865afa1580156111b7573d6000803e3d6000fd5b505050506040513d601f19601f820116820180604052508101906111db9190611b7b565b90506111e78184611bd3565b92505080806111f590611a60565b91505061114d565b5092915050565b600054610100900460ff1661122b5760405162461bcd60e51b815260040161047090611be6565b6110d2611466565b600054610100900460ff166110d25760405162461bcd60e51b815260040161047090611be6565b61126261108c565b6033805460ff191660011790557f62e78cea01bee320cd4e420270b5ea74000d11b0c9f74754ebdbfc544b05a25861112b3390565b6000610b408383611499565b6000610372825490565b6112b78282610b47565b610483576112c4816114c3565b6112cf8360206114d5565b6040516020016112e0929190611c55565b60408051601f198184030181529082905262461bcd60e51b825261047091600401611cca565b6113108282610b47565b6104835760008281526097602090815260408083206001600160a01b03851684529091529020805460ff191660011790556113483390565b6001600160a01b0316816001600160a01b0316837f2f8788117e7eff1d82e926ec794901d17c78024a50270940304540a733656f0d60405160405180910390a45050565b6000610b40836001600160a01b038416611671565b6113ab8282610b47565b156104835760008281526097602090815260408083206001600160a01b0385168085529252808320805460ff1916905551339285917ff6391f5c32d9c69d2a47ea670b442974b53935d1edc7fd64eb21e047a839171b9190a45050565b6000610b40836001600160a01b0384166116c0565b60335460ff166110d25760405162461bcd60e51b815260206004820152601460248201527314185d5cd8589b194e881b9bdd081c185d5cd95960621b6044820152606401610470565b600054610100900460ff1661148d5760405162461bcd60e51b815260040161047090611be6565b6033805460ff19169055565b60008260000182815481106114b0576114b0611a34565b9060005260206000200154905092915050565b60606103726001600160a01b03831660145b606060006114e4836002611cfd565b6114ef906002611bd3565b67ffffffffffffffff8111156115075761150761183b565b6040519080825280601f01601f191660200182016040528015611531576020820181803683370190505b509050600360fc1b8160008151811061154c5761154c611a34565b60200101906001600160f81b031916908160001a905350600f60fb1b8160018151811061157b5761157b611a34565b60200101906001600160f81b031916908160001a905350600061159f846002611cfd565b6115aa906001611bd3565b90505b6001811115611622576f181899199a1a9b1b9c1cb0b131b232b360811b85600f16601081106115de576115de611a34565b1a60f81b8282815181106115f4576115f4611a34565b60200101906001600160f81b031916908160001a90535060049490941c9361161b81611d14565b90506115ad565b508315610b405760405162461bcd60e51b815260206004820181905260248201527f537472696e67733a20686578206c656e67746820696e73756666696369656e746044820152606401610470565b60008181526001830160205260408120546116b857508154600181810184556000848152602080822090930184905584548482528286019093526040902091909155610372565b506000610372565b600081815260018301602052604081205480156117a95760006116e4600183611d2b565b85549091506000906116f890600190611d2b565b905081811461175d57600086600001828154811061171857611718611a34565b906000526020600020015490508087600001848154811061173b5761173b611a34565b6000918252602080832090910192909255918252600188019052604090208390555b855486908061176e5761176e611d3e565b600190038181906000526020600020016000905590558560010160008681526020019081526020016000206000905560019350505050610372565b6000915050610372565b6000602082840312156117c557600080fd5b81356001600160e01b031981168114610b4057600080fd5b6000602082840312156117ef57600080fd5b5035919050565b6001600160a01b038116811461088e57600080fd5b6000806040838503121561181e57600080fd5b823591506020830135611830816117f6565b809150509250929050565b634e487b7160e01b600052604160045260246000fd5b604051601f8201601f1916810167ffffffffffffffff8111828210171561187a5761187a61183b565b604052919050565b600067ffffffffffffffff82111561189c5761189c61183b565b5060051b60200190565b600082601f8301126118b757600080fd5b813560206118cc6118c783611882565b611851565b82815260059290921b840181019181810190868411156118eb57600080fd5b8286015b8481101561190657803583529183019183016118ef565b509695505050505050565b6000806040838503121561192457600080fd5b823567ffffffffffffffff8082111561193c57600080fd5b611948868387016118a6565b935060209150818501358181111561195f57600080fd5b85019050601f8101861361197257600080fd5b80356119806118c782611882565b81815260059190911b8201830190838101908883111561199f57600080fd5b928401925b828410156119c65783356119b7816117f6565b825292840192908401906119a4565b80955050505050509250929050565b600080604083850312156119e857600080fd5b50508035926020909101359150565b600060208284031215611a0957600080fd5b813567ffffffffffffffff811115611a2057600080fd5b611a2c848285016118a6565b949350505050565b634e487b7160e01b600052603260045260246000fd5b634e487b7160e01b600052601160045260246000fd5b600060018201611a7257611a72611a4a565b5060010190565b60208082526021908201527f5265776172647320436c61696d3a20496e73756666696369656e74206c6576656040820152601b60fa1b606082015260800190565b60208082526022908201527f5265776172647320436c61696d3a20416c6c207265776172647320636c61696d604082015261195960f21b606082015260800190565b6020808252602f908201527f5265776172647320436c61696d3a20456c696769626c6520726577617264732060408201526e185b1c9958591e4818db185a5b5959608a1b606082015260800190565b6001600160a01b039390931683526020830191909152604082015260806060820181905260009082015260a00190565b600060208284031215611b8d57600080fd5b5051919050565b600060208284031215611ba657600080fd5b8151610b40816117f6565b600060208284031215611bc357600080fd5b81518015158114610b4057600080fd5b8082018082111561037257610372611a4a565b6020808252602b908201527f496e697469616c697a61626c653a20636f6e7472616374206973206e6f74206960408201526a6e697469616c697a696e6760a81b606082015260800190565b60005b83811015611c4c578181015183820152602001611c34565b50506000910152565b7f416363657373436f6e74726f6c3a206163636f756e7420000000000000000000815260008351611c8d816017850160208801611c31565b7001034b99036b4b9b9b4b733903937b6329607d1b6017918401918201528351611cbe816028840160208801611c31565b01602801949350505050565b6020815260008251806020840152611ce9816040850160208701611c31565b601f01601f19169190910160400192915050565b808202811582820484141761037257610372611a4a565b600081611d2357611d23611a4a565b506000190190565b8181038181111561037257610372611a4a565b634e487b7160e01b600052603160045260246000fdfe7434004d53c9f03e85b02b5aead1f05871822d0e07eb252ccd7028060907de63a49807205ce4d355092ef5a8a18f56e8913cf4a201fbe287825b095693c21775a26469706673582212207978413e7c35ba45ccf11443c6371b815b5137b6c98482e1b1538b248bb710eb64736f6c63430008110033",
  "linkReferences": {},
  "deployedLinkReferences": {}
}