{
  "_format": "hh-sol-artifact-1",
  "contractName": "ElvenAdventures",
  "sourceName": "contracts/upgradeable/npc/ProfessionStaking/Boba/ElvenAdventures.sol",
  "abi": [
    {
      "inputs": [],
      "stateMutability": "nonpayable",
      "type": "constructor"
    },
    {
      "anonymous": false,
      "inputs": [
        {
          "indexed": false,
          "internalType": "address",
          "name": "previousAdmin",
          "type": "address"
        },
        {
          "indexed": false,
          "internalType": "address",
          "name": "newAdmin",
          "type": "address"
        }
      ],
      "name": "AdminChanged",
      "type": "event"
    },
    {
      "anonymous": false,
      "inputs": [
        {
          "indexed": true,
          "internalType": "address",
          "name": "beacon",
          "type": "address"
        }
      ],
      "name": "BeaconUpgraded",
      "type": "event"
    },
    {
      "anonymous": false,
      "inputs": [
        {
          "indexed": true,
          "internalType": "address",
          "name": "from",
          "type": "address"
        },
        {
          "indexed": false,
          "internalType": "uint256",
          "name": "tokenId",
          "type": "uint256"
        }
      ],
      "name": "BeganAdventure",
      "type": "event"
    },
    {
      "anonymous": false,
      "inputs": [
        {
          "indexed": true,
          "internalType": "address",
          "name": "from",
          "type": "address"
        },
        {
          "indexed": false,
          "internalType": "uint256",
          "name": "tokenId",
          "type": "uint256"
        },
        {
          "indexed": false,
          "internalType": "uint256",
          "name": "skillId",
          "type": "uint256"
        },
        {
          "indexed": false,
          "internalType": "uint256",
          "name": "level",
          "type": "uint256"
        },
        {
          "indexed": false,
          "internalType": "uint256",
          "name": "completeAt",
          "type": "uint256"
        }
      ],
      "name": "BeganQuest",
      "type": "event"
    },
    {
      "anonymous": false,
      "inputs": [
        {
          "indexed": true,
          "internalType": "address",
          "name": "from",
          "type": "address"
        },
        {
          "indexed": false,
          "internalType": "uint256",
          "name": "tokenId",
          "type": "uint256"
        },
        {
          "indexed": false,
          "internalType": "uint256",
          "name": "skillId",
          "type": "uint256"
        }
      ],
      "name": "CancelledQuest",
      "type": "event"
    },
    {
      "anonymous": false,
      "inputs": [
        {
          "indexed": true,
          "internalType": "address",
          "name": "from",
          "type": "address"
        },
        {
          "indexed": false,
          "internalType": "uint256",
          "name": "tokenId",
          "type": "uint256"
        }
      ],
      "name": "FinishedAdventure",
      "type": "event"
    },
    {
      "anonymous": false,
      "inputs": [
        {
          "indexed": true,
          "internalType": "address",
          "name": "from",
          "type": "address"
        },
        {
          "indexed": false,
          "internalType": "uint256",
          "name": "tokenId",
          "type": "uint256"
        },
        {
          "indexed": false,
          "internalType": "uint256",
          "name": "skillId",
          "type": "uint256"
        },
        {
          "indexed": false,
          "internalType": "uint256",
          "name": "level",
          "type": "uint256"
        }
      ],
      "name": "FinishedQuest",
      "type": "event"
    },
    {
      "anonymous": false,
      "inputs": [
        {
          "indexed": false,
          "internalType": "uint8",
          "name": "version",
          "type": "uint8"
        }
      ],
      "name": "Initialized",
      "type": "event"
    },
    {
      "anonymous": false,
      "inputs": [
        {
          "indexed": false,
          "internalType": "address",
          "name": "account",
          "type": "address"
        }
      ],
      "name": "Paused",
      "type": "event"
    },
    {
      "anonymous": false,
      "inputs": [
        {
          "indexed": true,
          "internalType": "bytes32",
          "name": "role",
          "type": "bytes32"
        },
        {
          "indexed": true,
          "internalType": "bytes32",
          "name": "previousAdminRole",
          "type": "bytes32"
        },
        {
          "indexed": true,
          "internalType": "bytes32",
          "name": "newAdminRole",
          "type": "bytes32"
        }
      ],
      "name": "RoleAdminChanged",
      "type": "event"
    },
    {
      "anonymous": false,
      "inputs": [
        {
          "indexed": true,
          "internalType": "bytes32",
          "name": "role",
          "type": "bytes32"
        },
        {
          "indexed": true,
          "internalType": "address",
          "name": "account",
          "type": "address"
        },
        {
          "indexed": true,
          "internalType": "address",
          "name": "sender",
          "type": "address"
        }
      ],
      "name": "RoleGranted",
      "type": "event"
    },
    {
      "anonymous": false,
      "inputs": [
        {
          "indexed": true,
          "internalType": "bytes32",
          "name": "role",
          "type": "bytes32"
        },
        {
          "indexed": true,
          "internalType": "address",
          "name": "account",
          "type": "address"
        },
        {
          "indexed": true,
          "internalType": "address",
          "name": "sender",
          "type": "address"
        }
      ],
      "name": "RoleRevoked",
      "type": "event"
    },
    {
      "anonymous": false,
      "inputs": [
        {
          "indexed": true,
          "internalType": "address",
          "name": "from",
          "type": "address"
        },
        {
          "indexed": false,
          "internalType": "uint256",
          "name": "tokenId",
          "type": "uint256"
        }
      ],
      "name": "UnlockedAdventures",
      "type": "event"
    },
    {
      "anonymous": false,
      "inputs": [
        {
          "indexed": false,
          "internalType": "address",
          "name": "account",
          "type": "address"
        }
      ],
      "name": "Unpaused",
      "type": "event"
    },
    {
      "anonymous": false,
      "inputs": [
        {
          "indexed": true,
          "internalType": "address",
          "name": "implementation",
          "type": "address"
        }
      ],
      "name": "Upgraded",
      "type": "event"
    },
    {
      "inputs": [],
      "name": "DEFAULT_ADMIN_ROLE",
      "outputs": [
        {
          "internalType": "bytes32",
          "name": "",
          "type": "bytes32"
        }
      ],
      "stateMutability": "view",
      "type": "function"
    },
    {
      "inputs": [
        {
          "internalType": "uint256",
          "name": "tokenId",
          "type": "uint256"
        }
      ],
      "name": "abandonQuest",
      "outputs": [],
      "stateMutability": "nonpayable",
      "type": "function"
    },
    {
      "inputs": [
        {
          "internalType": "uint256[]",
          "name": "tokenIds",
          "type": "uint256[]"
        }
      ],
      "name": "batchAbandonQuest",
      "outputs": [],
      "stateMutability": "nonpayable",
      "type": "function"
    },
    {
      "inputs": [
        {
          "internalType": "uint256[]",
          "name": "tokenIds",
          "type": "uint256[]"
        }
      ],
      "name": "batchBeginAdventure",
      "outputs": [],
      "stateMutability": "nonpayable",
      "type": "function"
    },
    {
      "inputs": [
        {
          "internalType": "uint256[]",
          "name": "tokenIds",
          "type": "uint256[]"
        }
      ],
      "name": "batchFinishAdventure",
      "outputs": [],
      "stateMutability": "nonpayable",
      "type": "function"
    },
    {
      "inputs": [
        {
          "internalType": "uint256[]",
          "name": "tokenIds",
          "type": "uint256[]"
        }
      ],
      "name": "batchFinishQuest",
      "outputs": [],
      "stateMutability": "nonpayable",
      "type": "function"
    },
    {
      "inputs": [
        {
          "internalType": "uint256[]",
          "name": "levels",
          "type": "uint256[]"
        },
        {
          "internalType": "uint256[]",
          "name": "time",
          "type": "uint256[]"
        }
      ],
      "name": "batchSetQuestTime",
      "outputs": [],
      "stateMutability": "nonpayable",
      "type": "function"
    },
    {
      "inputs": [
        {
          "internalType": "uint256[]",
          "name": "tokenIds",
          "type": "uint256[]"
        },
        {
          "internalType": "uint256[]",
          "name": "skillIds",
          "type": "uint256[]"
        }
      ],
      "name": "batchStartQuest",
      "outputs": [],
      "stateMutability": "nonpayable",
      "type": "function"
    },
    {
      "inputs": [
        {
          "internalType": "uint256[]",
          "name": "tokenIds",
          "type": "uint256[]"
        }
      ],
      "name": "batchUnlockAdventures",
      "outputs": [],
      "stateMutability": "nonpayable",
      "type": "function"
    },
    {
      "inputs": [
        {
          "internalType": "uint256",
          "name": "tokenId",
          "type": "uint256"
        }
      ],
      "name": "beginAdventure",
      "outputs": [],
      "stateMutability": "nonpayable",
      "type": "function"
    },
    {
      "inputs": [
        {
          "internalType": "uint256",
          "name": "tokenId",
          "type": "uint256"
        }
      ],
      "name": "finishAdventure",
      "outputs": [],
      "stateMutability": "nonpayable",
      "type": "function"
    },
    {
      "inputs": [
        {
          "internalType": "uint256",
          "name": "tokenId",
          "type": "uint256"
        }
      ],
      "name": "finishQuest",
      "outputs": [],
      "stateMutability": "nonpayable",
      "type": "function"
    },
    {
      "inputs": [
        {
          "internalType": "uint256",
          "name": "tokenId",
          "type": "uint256"
        }
      ],
      "name": "getAllowedSkillChoices",
      "outputs": [
        {
          "internalType": "uint256[]",
          "name": "",
          "type": "uint256[]"
        }
      ],
      "stateMutability": "view",
      "type": "function"
    },
    {
      "inputs": [
        {
          "internalType": "uint256",
          "name": "tokenId",
          "type": "uint256"
        }
      ],
      "name": "getQuest",
      "outputs": [
        {
          "components": [
            {
              "internalType": "uint256",
              "name": "level",
              "type": "uint256"
            },
            {
              "internalType": "uint256",
              "name": "skillId",
              "type": "uint256"
            },
            {
              "internalType": "uint256",
              "name": "completeAt",
              "type": "uint256"
            }
          ],
          "internalType": "struct IElvenAdventures.Quest",
          "name": "",
          "type": "tuple"
        }
      ],
      "stateMutability": "view",
      "type": "function"
    },
    {
      "inputs": [
        {
          "internalType": "uint256[]",
          "name": "tokenIds",
          "type": "uint256[]"
        }
      ],
      "name": "getQuests",
      "outputs": [
        {
          "components": [
            {
              "internalType": "uint256",
              "name": "level",
              "type": "uint256"
            },
            {
              "internalType": "uint256",
              "name": "skillId",
              "type": "uint256"
            },
            {
              "internalType": "uint256",
              "name": "completeAt",
              "type": "uint256"
            }
          ],
          "internalType": "struct IElvenAdventures.Quest[]",
          "name": "",
          "type": "tuple[]"
        }
      ],
      "stateMutability": "view",
      "type": "function"
    },
    {
      "inputs": [
        {
          "internalType": "bytes32",
          "name": "role",
          "type": "bytes32"
        }
      ],
      "name": "getRoleAdmin",
      "outputs": [
        {
          "internalType": "bytes32",
          "name": "",
          "type": "bytes32"
        }
      ],
      "stateMutability": "view",
      "type": "function"
    },
    {
      "inputs": [
        {
          "internalType": "bytes32",
          "name": "role",
          "type": "bytes32"
        },
        {
          "internalType": "uint256",
          "name": "index",
          "type": "uint256"
        }
      ],
      "name": "getRoleMember",
      "outputs": [
        {
          "internalType": "address",
          "name": "",
          "type": "address"
        }
      ],
      "stateMutability": "view",
      "type": "function"
    },
    {
      "inputs": [
        {
          "internalType": "bytes32",
          "name": "role",
          "type": "bytes32"
        }
      ],
      "name": "getRoleMemberCount",
      "outputs": [
        {
          "internalType": "uint256",
          "name": "",
          "type": "uint256"
        }
      ],
      "stateMutability": "view",
      "type": "function"
    },
    {
      "inputs": [
        {
          "internalType": "bytes32",
          "name": "role",
          "type": "bytes32"
        },
        {
          "internalType": "address",
          "name": "account",
          "type": "address"
        }
      ],
      "name": "grantRole",
      "outputs": [],
      "stateMutability": "nonpayable",
      "type": "function"
    },
    {
      "inputs": [
        {
          "internalType": "bytes32",
          "name": "role",
          "type": "bytes32"
        },
        {
          "internalType": "address",
          "name": "account",
          "type": "address"
        }
      ],
      "name": "hasRole",
      "outputs": [
        {
          "internalType": "bool",
          "name": "",
          "type": "bool"
        }
      ],
      "stateMutability": "view",
      "type": "function"
    },
    {
      "inputs": [],
      "name": "initialize",
      "outputs": [],
      "stateMutability": "nonpayable",
      "type": "function"
    },
    {
      "inputs": [],
      "name": "pause",
      "outputs": [],
      "stateMutability": "nonpayable",
      "type": "function"
    },
    {
      "inputs": [],
      "name": "paused",
      "outputs": [
        {
          "internalType": "bool",
          "name": "",
          "type": "bool"
        }
      ],
      "stateMutability": "view",
      "type": "function"
    },
    {
      "inputs": [],
      "name": "proxiableUUID",
      "outputs": [
        {
          "internalType": "bytes32",
          "name": "",
          "type": "bytes32"
        }
      ],
      "stateMutability": "view",
      "type": "function"
    },
    {
      "inputs": [
        {
          "internalType": "bytes32",
          "name": "role",
          "type": "bytes32"
        },
        {
          "internalType": "address",
          "name": "account",
          "type": "address"
        }
      ],
      "name": "renounceRole",
      "outputs": [],
      "stateMutability": "nonpayable",
      "type": "function"
    },
    {
      "inputs": [
        {
          "internalType": "bytes32",
          "name": "role",
          "type": "bytes32"
        },
        {
          "internalType": "address",
          "name": "account",
          "type": "address"
        }
      ],
      "name": "revokeRole",
      "outputs": [],
      "stateMutability": "nonpayable",
      "type": "function"
    },
    {
      "inputs": [
        {
          "internalType": "uint256",
          "name": "level",
          "type": "uint256"
        },
        {
          "internalType": "uint256",
          "name": "time",
          "type": "uint256"
        }
      ],
      "name": "setQuestTime",
      "outputs": [],
      "stateMutability": "nonpayable",
      "type": "function"
    },
    {
      "inputs": [
        {
          "internalType": "uint256[]",
          "name": "levels",
          "type": "uint256[]"
        },
        {
          "components": [
            {
              "internalType": "address",
              "name": "_address",
              "type": "address"
            },
            {
              "internalType": "uint256",
              "name": "id",
              "type": "uint256"
            },
            {
              "internalType": "uint256",
              "name": "amount",
              "type": "uint256"
            },
            {
              "internalType": "enum IElvenAdventures.TokenType",
              "name": "tokenType",
              "type": "uint8"
            }
          ],
          "internalType": "struct IElvenAdventures.Reward[]",
          "name": "rewards",
          "type": "tuple[]"
        }
      ],
      "name": "setRewards",
      "outputs": [],
      "stateMutability": "nonpayable",
      "type": "function"
    },
    {
      "inputs": [
        {
          "internalType": "uint256",
          "name": "tokenId",
          "type": "uint256"
        },
        {
          "internalType": "uint256",
          "name": "skillId",
          "type": "uint256"
        }
      ],
      "name": "startQuest",
      "outputs": [],
      "stateMutability": "nonpayable",
      "type": "function"
    },
    {
      "inputs": [
        {
          "internalType": "bytes4",
          "name": "interfaceId",
          "type": "bytes4"
        }
      ],
      "name": "supportsInterface",
      "outputs": [
        {
          "internalType": "bool",
          "name": "",
          "type": "bool"
        }
      ],
      "stateMutability": "view",
      "type": "function"
    },
    {
      "inputs": [
        {
          "internalType": "uint256",
          "name": "tokenId",
          "type": "uint256"
        }
      ],
      "name": "unlockAdventures",
      "outputs": [],
      "stateMutability": "nonpayable",
      "type": "function"
    },
    {
      "inputs": [],
      "name": "unpause",
      "outputs": [],
      "stateMutability": "nonpayable",
      "type": "function"
    },
    {
      "inputs": [
        {
          "internalType": "address",
          "name": "newImplementation",
          "type": "address"
        }
      ],
      "name": "upgradeTo",
      "outputs": [],
      "stateMutability": "nonpayable",
      "type": "function"
    },
    {
      "inputs": [
        {
          "internalType": "address",
          "name": "newImplementation",
          "type": "address"
        },
        {
          "internalType": "bytes",
          "name": "data",
          "type": "bytes"
        }
      ],
      "name": "upgradeToAndCall",
      "outputs": [],
      "stateMutability": "payable",
      "type": "function"
    }
  ],
  "bytecode": "0x60a0604052306080523480156200001557600080fd5b506200002062000026565b620000e8565b600054610100900460ff1615620000935760405162461bcd60e51b815260206004820152602760248201527f496e697469616c697a61626c653a20636f6e747261637420697320696e697469604482015266616c697a696e6760c81b606482015260840160405180910390fd5b60005460ff9081161015620000e6576000805460ff191660ff9081179091556040519081527f7f26b83ff96e1f2b6a682f133852f6798a09c465da95921460cefb38474024989060200160405180910390a15b565b608051613efa620001206000396000818161111001528181611150015281816112c90152818161130901526114c20152613efa6000f3fe6080604052600436106101f95760003560e01c80638129fc1c1161010d578063a269b092116100a0578063c3c33b401161006f578063c3c33b40146105c6578063ca15c873146105e6578063d547741f14610606578063dbf0cc7a14610626578063f4a7c37f1461064657600080fd5b8063a269b09214610546578063a3f0cab414610566578063b4adffe614610586578063b77c6572146105a657600080fd5b806392289409116100dc57806392289409146104d157806393682447146104f1578063996f324414610511578063a217fddf1461053157600080fd5b80638129fc1c1461044f5780638456cb59146104645780639010d07c1461047957806391d14854146104b157600080fd5b80633659cfe6116101905780634f1ef2861161015f5780634f1ef286146103b55780634fb8eea4146103c857806352d1902d146103f55780635c975abb1461040a57806360a973581461042257600080fd5b80633659cfe6146103335780633f4ba83a1461035357806346d4ecc41461036857806349f86f341461038857600080fd5b8063248a9ca3116101cc578063248a9ca3146102955780632beee287146102d35780632f2ff15d146102f357806336568abe1461031357600080fd5b806301ffc9a7146101fe57806302a329f2146102335780631094f152146102555780631d91467114610275575b600080fd5b34801561020a57600080fd5b5061021e610219366004613582565b610666565b60405190151581526020015b60405180910390f35b34801561023f57600080fd5b5061025361024e3660046135ac565b610691565b005b34801561026157600080fd5b506102536102703660046135ac565b6108a0565b34801561028157600080fd5b506102536102903660046135ac565b610b90565b3480156102a157600080fd5b506102c56102b03660046135ac565b60009081526097602052604090206001015490565b60405190815260200161022a565b3480156102df57600080fd5b506102536102ee366004613611565b610f47565b3480156102ff57600080fd5b5061025361030e3660046136c0565b61105e565b34801561031f57600080fd5b5061025361032e3660046136c0565b611088565b34801561033f57600080fd5b5061025361034e3660046136f0565b611106565b34801561035f57600080fd5b506102536111e5565b34801561037457600080fd5b5061025361038336600461370d565b611206565b34801561039457600080fd5b506103a86103a33660046135ac565b611261565b60405161022a919061374f565b6102536103c3366004613786565b6112bf565b3480156103d457600080fd5b506103e86103e336600461370d565b61138b565b60405161022a919061384a565b34801561040157600080fd5b506102c56114b5565b34801561041657600080fd5b5060335460ff1661021e565b34801561042e57600080fd5b5061044261043d3660046135ac565b611568565b60405161022a91906138ac565b34801561045b57600080fd5b5061025361187d565b34801561047057600080fd5b506102536119bb565b34801561048557600080fd5b506104996104943660046138e4565b6119da565b6040516001600160a01b03909116815260200161022a565b3480156104bd57600080fd5b5061021e6104cc3660046136c0565b6119f9565b3480156104dd57600080fd5b506102536104ec36600461370d565b611a24565b3480156104fd57600080fd5b5061025361050c366004613906565b611a7f565b34801561051d57600080fd5b5061025361052c366004613906565b611b5d565b34801561053d57600080fd5b506102c5600081565b34801561055257600080fd5b5061025361056136600461370d565b611c46565b34801561057257600080fd5b5061025361058136600461370d565b611ca1565b34801561059257600080fd5b506102536105a13660046138e4565b611cfc565b3480156105b257600080fd5b506102536105c13660046135ac565b611d20565b3480156105d257600080fd5b506102536105e13660046138e4565b611f57565b3480156105f257600080fd5b506102c56106013660046135ac565b6123c0565b34801561061257600080fd5b506102536106213660046136c0565b6123d7565b34801561063257600080fd5b506102536106413660046135ac565b6123fc565b34801561065257600080fd5b5061025361066136600461370d565b612630565b60006001600160e01b03198216635a05180f60e01b148061068b575061068b8261268b565b92915050565b61018d546040516331a9108f60e11b815260048101839052829133916001600160a01b0390911690636352211e90602401602060405180830381865afa1580156106df573d6000803e3d6000fd5b505050506040513d601f19601f820116820180604052508101906107039190613972565b6001600160a01b0316146107325760405162461bcd60e51b81526004016107299061398f565b60405180910390fd5b61018d546040516322ca3b1560e11b81526004810183905260006024820152606560448201526001600160a01b0390911690634594762a90606401602060405180830381865afa15801561078a573d6000803e3d6000fd5b505050506040513d601f19601f820116820180604052508101906107ae91906139c6565b6001146107cd5760405162461bcd60e51b8152600401610729906139df565b61018d546040516305ad7d8960e51b8152600481018490526000602482018190526065604483015260648201526001600160a01b039091169063b5afb12090608401600060405180830381600087803b15801561082957600080fd5b505af115801561083d573d6000803e3d6000fd5b505050600083815261019260205260408082208281556001810183905560020191909155513391507f1c2c58611eb0c9f7697b84d542033dd68380ec55ac39c2359486e147b19eb257906108949085815260200190565b60405180910390a25050565b61018d546040516331a9108f60e11b815260048101839052829133916001600160a01b0390911690636352211e90602401602060405180830381865afa1580156108ee573d6000803e3d6000fd5b505050506040513d601f19601f820116820180604052508101906109129190613972565b6001600160a01b0316146109385760405162461bcd60e51b81526004016107299061398f565b61018d546040516322ca3b1560e11b81526004810183905260006024820152606560448201526001600160a01b0390911690634594762a90606401602060405180830381865afa158015610990573d6000803e3d6000fd5b505050506040513d601f19601f820116820180604052508101906109b491906139c6565b6001146109d35760405162461bcd60e51b8152600401610729906139df565b6000828152610192602052604090206002810154610a335760405162461bcd60e51b815260206004820152601d60248201527f456c76656e416476656e74757265733a3a4e6f74207175657374696e670000006044820152606401610729565b4281600201541115610a985760405162461bcd60e51b815260206004820152602860248201527f456c76656e416476656e74757265733a3a5175657374207374696c6c20696e2060448201526770726f677265737360c01b6064820152608401610729565b61018d5460018281015483546040516305ad7d8960e51b8152600481018890526024810193909352604483019190915260648201526001600160a01b039091169063b5afb12090608401600060405180830381600087803b158015610afc57600080fd5b505af1158015610b10573d6000803e3d6000fd5b50505050610b26816000015482600101546126c0565b6001810154815460408051868152602081019390935282015233907fd7cf191fa3edc02ed8b3973c2a61502e7b2ed8f3be2b1989c37556b1b9bd798c906060015b60405180910390a250506000908152610192602052604081208181556001810182905560020155565b610b986128db565b61018d546040516331a9108f60e11b815260048101839052829133916001600160a01b0390911690636352211e90602401602060405180830381865afa158015610be6573d6000803e3d6000fd5b505050506040513d601f19601f82011682018060405250810190610c0a9190613972565b6001600160a01b031614610c305760405162461bcd60e51b81526004016107299061398f565b61018d546040516322ca3b1560e11b81526004810183905260006024820152606560448201526001600160a01b0390911690634594762a90606401602060405180830381865afa158015610c88573d6000803e3d6000fd5b505050506040513d601f19601f82011682018060405250810190610cac91906139c6565b15610d0a5760405162461bcd60e51b815260206004820152602860248201527f456c76656e416476656e74757265733a3a416c7265616479206f6e20616e20616044820152676476656e7475726560c01b6064820152608401610729565b61018d546040516331a9108f60e11b815260048101849052839133916001600160a01b0390911690636352211e90602401602060405180830381865afa158015610d58573d6000803e3d6000fd5b505050506040513d601f19601f82011682018060405250810190610d7c9190613972565b6001600160a01b031614610da25760405162461bcd60e51b81526004016107299061398f565b61018d546040516322ca3b1560e11b815260048101839052600060248201526064604482018190526001600160a01b0390921691634594762a9101602060405180830381865afa158015610dfa573d6000803e3d6000fd5b505050506040513d601f19601f82011682018060405250810190610e1e91906139c6565b600114610e825760405162461bcd60e51b815260206004820152602c60248201527f456c76656e416476656e74757265733a3a416476656e7475726573206172652060448201526b1b9bdd081d5b9b1bd8dad95960a21b6064820152608401610729565b610e99600080516020613ea5833981519152612921565b61018d546040516305ad7d8960e51b8152600481018590526000602482015260656044820152600160648201526001600160a01b039091169063b5afb12090608401600060405180830381600087803b158015610ef557600080fd5b505af1158015610f09573d6000803e3d6000fd5b50506040518581523392507f263709ec8d842c34bbcd1c44d993c5fbd80332b008cbb37c447ba8af03cbf225915060200160405180910390a2505050565b610f5e600080516020613ea5833981519152612921565b82610f7b5760405162461bcd60e51b815260040161072990613a23565b828114610fe75760405162461bcd60e51b815260206004820152603460248201527f456c76656e416476656e74757265733a3a4c6576656c20636f756e74206d75736044820152731d081b585d18da081c995dd85c990818dbdd5b9d60621b6064820152608401610729565b60005b838110156110575782828281811061100457611004613a75565b905060800201610193600087878581811061102157611021613a75565b90506020020135815260200190815260200160002081816110429190613aa1565b5081905061104f81613b1d565b915050610fea565b5050505050565b60008281526097602052604090206001015461107981612921565b611083838361292b565b505050565b6001600160a01b03811633146110f85760405162461bcd60e51b815260206004820152602f60248201527f416363657373436f6e74726f6c3a2063616e206f6e6c792072656e6f756e636560448201526e103937b632b9903337b91039b2b63360891b6064820152608401610729565b611102828261294d565b5050565b6001600160a01b037f000000000000000000000000000000000000000000000000000000000000000016300361114e5760405162461bcd60e51b815260040161072990613b36565b7f00000000000000000000000000000000000000000000000000000000000000006001600160a01b0316611197600080516020613e5e833981519152546001600160a01b031690565b6001600160a01b0316146111bd5760405162461bcd60e51b815260040161072990613b82565b6111c68161296f565b604080516000808252602082019092526111e291839190612979565b50565b6111fc600080516020613ea5833981519152612921565b611204612ae4565b565b806112235760405162461bcd60e51b815260040161072990613bce565b60005b818110156110835761124f83838381811061124357611243613a75565b90506020020135610691565b8061125981613b1d565b915050611226565b61128560405180606001604052806000815260200160008152602001600081525090565b5060009081526101926020908152604091829020825160608101845281548152600182015492810192909252600201549181019190915290565b6001600160a01b037f00000000000000000000000000000000000000000000000000000000000000001630036113075760405162461bcd60e51b815260040161072990613b36565b7f00000000000000000000000000000000000000000000000000000000000000006001600160a01b0316611350600080516020613e5e833981519152546001600160a01b031690565b6001600160a01b0316146113765760405162461bcd60e51b815260040161072990613b82565b61137f8261296f565b61110282826001612979565b6060816113aa5760405162461bcd60e51b815260040161072990613bce565b60008267ffffffffffffffff8111156113c5576113c5613770565b60405190808252806020026020018201604052801561141a57816020015b61140760405180606001604052806000815260200160008152602001600081525090565b8152602001906001900390816113e35790505b50905060005b838110156114ad57610192600086868481811061143f5761143f613a75565b905060200201358152602001908152602001600020604051806060016040529081600082015481526020016001820154815260200160028201548152505082828151811061148f5761148f613a75565b602002602001018190525080806114a590613b1d565b915050611420565b509392505050565b6000306001600160a01b037f000000000000000000000000000000000000000000000000000000000000000016146115555760405162461bcd60e51b815260206004820152603860248201527f555550535570677261646561626c653a206d757374206e6f742062652063616c60448201527f6c6564207468726f7567682064656c656761746563616c6c00000000000000006064820152608401610729565b50600080516020613e5e83398151915290565b60408051600c8082526101a0820190925260609160009190602082016101808036833701905050905060005b600c8110156115cd57808282815181106115b0576115b0613a75565b6020908102919091010152806115c581613b1d565b915050611594565b506115d6613563565b60008060005b600c8110156116e35761018d546040516322ca3b1560e11b81526004810189905260016024820152604481018390526001600160a01b0390911690634594762a90606401602060405180830381865afa15801561163d573d6000803e3d6000fd5b505050506040513d601f19601f8201168201806040525081019061166191906139c6565b8482600c811061167357611673613a75565b602002015260008482600c811061168c5761168c613a75565b602002015111156116a557826116a181613b1d565b9350505b8381600c81106116b7576116b7613a75565b60200201516014036116d157816116cd81613b1d565b9250505b806116db81613b1d565b9150506115dc565b50816000036116f6575091949350505050565b8060020361170a5750606095945050505050565b60408051600b808252610180820190925260009160208201610160803683370190505090506000805b600c8110156118705783600114801561174c5750846001145b801561176c57508581600c811061176557611765613a75565b6020020151155b156117b65786818151811061178357611783613a75565b602002602001015183838151811061179d5761179d613a75565b6020908102919091010152816117b281613b1d565b9250505b60008682600c81106117ca576117ca613a75565b60200201511180156117f2575060148682600c81106117eb576117eb613a75565b6020020151105b1561185e576040805160018082528183019092526000916020808301908036833701905050905087828151811061182b5761182b613a75565b60200260200101518160008151811061184657611846613a75565b60209081029190910101529998505050505050505050565b8061186881613b1d565b915050611733565b5090979650505050505050565b600054610100900460ff161580801561189d5750600054600160ff909116105b806118b75750303b1580156118b7575060005460ff166001145b61191a5760405162461bcd60e51b815260206004820152602e60248201527f496e697469616c697a61626c653a20636f6e747261637420697320616c72656160448201526d191e481a5b9a5d1a585b1a5e995960921b6064820152608401610729565b6000805460ff19166001179055801561193d576000805461ff0019166101001790555b611945612b36565b61194d612b65565b611955612c35565b61018d80546001600160a01b031990811690915561018e8054909116905580156111e2576000805461ff0019169055604051600181527f7f26b83ff96e1f2b6a682f133852f6798a09c465da95921460cefb38474024989060200160405180910390a150565b6119d2600080516020613ea5833981519152612921565b611204612c5c565b600082815260c9602052604081206119f29083612c99565b9392505050565b60009182526097602090815260408084206001600160a01b0393909316845291905290205460ff1690565b80611a415760405162461bcd60e51b815260040161072990613bce565b60005b8181101561108357611a6d838383818110611a6157611a61613a75565b90506020020135611d20565b80611a7781613b1d565b915050611a44565b82611a9c5760405162461bcd60e51b815260040161072990613a23565b828114611b065760405162461bcd60e51b815260206004820152603260248201527f456c76656e416476656e74757265733a3a4c6576656c20636f756e74206d75736044820152711d081b585d18da081d1a5b594818dbdd5b9d60721b6064820152608401610729565b60005b8381101561105757611b4b858583818110611b2657611b26613a75565b90506020020135848484818110611b3f57611b3f613a75565b90506020020135611cfc565b80611b5581613b1d565b915050611b09565b82611b7a5760405162461bcd60e51b815260040161072990613bce565b828114611bef5760405162461bcd60e51b815260206004820152603960248201527f456c76656e416476656e74757265733a3a546f6b656e20496420636f756e742060448201527f6d757374206d6174636820536b696c6c20496420636f756e74000000000000006064820152608401610729565b60005b8381101561105757611c34858583818110611c0f57611c0f613a75565b90506020020135848484818110611c2857611c28613a75565b90506020020135611f57565b80611c3e81613b1d565b915050611bf2565b80611c635760405162461bcd60e51b815260040161072990613bce565b60005b8181101561108357611c8f838383818110611c8357611c83613a75565b90506020020135610b90565b80611c9981613b1d565b915050611c66565b80611cbe5760405162461bcd60e51b815260040161072990613bce565b60005b8181101561108357611cea838383818110611cde57611cde613a75565b905060200201356123fc565b80611cf481613b1d565b915050611cc1565b611d13600080516020613ea5833981519152612921565b61108361018f8383612ca5565b611d286128db565b611d3f600080516020613ea5833981519152612921565b61018d546040516322ca3b1560e11b815260048101839052600060248201526064604482018190526001600160a01b0390921691634594762a9101602060405180830381865afa158015611d97573d6000803e3d6000fd5b505050506040513d601f19601f82011682018060405250810190611dbb91906139c6565b15611e255760405162461bcd60e51b815260206004820152603460248201527f456c76656e416476656e74757265733a3a416476656e747572657320616c726560448201527330b23c903ab73637b1b5b2b2103337b91022b63360611b6064820152608401610729565b61018e546040516323b872dd60e01b81523360048201523060248201526801158e460913d0000060448201526001600160a01b03909116906323b872dd906064016020604051808303816000875af1158015611e85573d6000803e3d6000fd5b505050506040513d601f19601f82011682018060405250810190611ea99190613c23565b5061018d546040516305ad7d8960e51b815260048101839052600060248201526064604482018190526001908201526001600160a01b039091169063b5afb12090608401600060405180830381600087803b158015611f0757600080fd5b505af1158015611f1b573d6000803e3d6000fd5b50506040518381523392507ff76b41b3ad8d77d5272eaf82aea73cf79bc169164e1d0d562fc412a0dc846593915060200160405180910390a250565b611f5f6128db565b61018d546040516331a9108f60e11b815260048101849052839133916001600160a01b0390911690636352211e90602401602060405180830381865afa158015611fad573d6000803e3d6000fd5b505050506040513d601f19601f82011682018060405250810190611fd19190613972565b6001600160a01b031614611ff75760405162461bcd60e51b81526004016107299061398f565b61018d546040516322ca3b1560e11b81526004810183905260006024820152606560448201526001600160a01b0390911690634594762a90606401602060405180830381865afa15801561204f573d6000803e3d6000fd5b505050506040513d601f19601f8201168201806040525081019061207391906139c6565b6001146120925760405162461bcd60e51b8152600401610729906139df565b6000838152610192602052604090206002810154156121095760405162461bcd60e51b815260206004820152602d60248201527f456c76656e416476656e74757265733a3a517565737420697320616c7265616460448201526c7920696e2070726f677265737360981b6064820152608401610729565b6121138484612cba565b61216b5760405162461bcd60e51b8152602060048201526024808201527f456c76656e416476656e74757265733a3a496e76616c696420717565737420736044820152631ada5b1b60e21b6064820152608401610729565b61018d546040516322ca3b1560e11b81526004810186905260016024820152604481018590526000916001600160a01b031690634594762a90606401602060405180830381865afa1580156121c4573d6000803e3d6000fd5b505050506040513d601f19601f820116820180604052508101906121e891906139c6565b9050601381111561225a5760405162461bcd60e51b815260206004820152603660248201527f456c76656e416476656e74757265733a3a45786365656473206d6178696d756d604482015275081cdada5b1b081b195d995b08199bdc881c5d595cdd60521b6064820152608401610729565b600061227361226a836001613c45565b61018f90612d63565b61018e546040516323b872dd60e01b8152336004820152306024820152680340aad21b3b70000060448201529192506001600160a01b0316906323b872dd906064016020604051808303816000875af11580156122d4573d6000803e3d6000fd5b505050506040513d601f19601f820116820180604052508101906122f89190613c23565b5060405180606001604052808360016123119190613c45565b8152602081018790526040016123278342613c45565b9052600087815261019260209081526040918290208351815590830151600180830191909155929091015160029091015533907f1df85d5371cf8f4fa88fbebdce2c4643f789cfb9cfe5a8d294f54ba07555e9e3908890889061238b908790613c45565b6123958642613c45565b60408051948552602085019390935291830152606082015260800160405180910390a2505050505050565b600081815260c96020526040812061068b90612d6f565b6000828152609760205260409020600101546123f281612921565b611083838361294d565b61018d546040516331a9108f60e11b815260048101839052829133916001600160a01b0390911690636352211e90602401602060405180830381865afa15801561244a573d6000803e3d6000fd5b505050506040513d601f19601f8201168201806040525081019061246e9190613972565b6001600160a01b0316146124945760405162461bcd60e51b81526004016107299061398f565b61018d546040516322ca3b1560e11b81526004810183905260006024820152606560448201526001600160a01b0390911690634594762a90606401602060405180830381865afa1580156124ec573d6000803e3d6000fd5b505050506040513d601f19601f8201168201806040525081019061251091906139c6565b60011461252f5760405162461bcd60e51b8152600401610729906139df565b600082815261019260205260409020600281015461258f5760405162461bcd60e51b815260206004820152601d60248201527f456c76656e416476656e74757265733a3a4e6f74207175657374696e670000006044820152606401610729565b428160020154116125f25760405162461bcd60e51b815260206004820152602760248201527f456c76656e416476656e74757265733a3a517565737420616c726561647920636044820152666f6d706c65746560c81b6064820152608401610729565b600181015460405133917f305299efa35a6f9e8169e7133814f3bc0a0d613fd7bae7cc379b11318cca56e991610b6791878252602082015260400190565b8061264d5760405162461bcd60e51b815260040161072990613bce565b60005b818110156110835761267983838381811061266d5761266d613a75565b905060200201356108a0565b8061268381613b1d565b915050612650565b60006001600160e01b03198216637965db0b60e01b148061068b57506301ffc9a760e01b6001600160e01b031983161461068b565b60008281526101936020526040812090600382015460ff1660028111156126e9576126e9613a8b565b036127705761018e54600282015460405163a9059cbb60e01b815233600482015260248101919091526001600160a01b039091169063a9059cbb906044016020604051808303816000875af1158015612746573d6000803e3d6000fd5b505050506040513d601f19601f8201168201806040525081019061276a9190613c23565b50505050565b6002600382015460ff16600281111561278b5761278b613a8b565b03612836576040805160608101825283815260006020808301919091526002828401528354925191926001600160a01b03169163b510391f9133916127d291869101613c58565b6040516020818303038152906040526040518363ffffffff1660e01b81526004016127fe929190613ceb565b600060405180830381600087803b15801561281857600080fd5b505af115801561282c573d6000803e3d6000fd5b5050505050505050565b600181015460118490036128615761284f83600f613d0f565b61285a906003613c45565b905061288a565b8360130361287f5761287483600f613d0f565b61285a906008613c45565b8360140361288a5750815b8154600283015460405163731133e960e01b815233600482015260248101849052604481019190915260806064820152600060848201526001600160a01b039091169063731133e99060a4016127fe565b60335460ff16156112045760405162461bcd60e51b815260206004820152601060248201526f14185d5cd8589b194e881c185d5cd95960821b6044820152606401610729565b6111e28133612d79565b6129358282612ddd565b600082815260c9602052604090206110839082612e63565b6129578282612e78565b600082815260c9602052604090206110839082612edf565b6111e26000612921565b7f4910fdfa16fed3260ed0e7147f7cc6da11a60208b5b9406d12a635614ffd91435460ff16156129ac5761108383612ef4565b826001600160a01b03166352d1902d6040518163ffffffff1660e01b8152600401602060405180830381865afa925050508015612a06575060408051601f3d908101601f19168201909252612a03918101906139c6565b60015b612a695760405162461bcd60e51b815260206004820152602e60248201527f45524331393637557067726164653a206e657720696d706c656d656e7461746960448201526d6f6e206973206e6f74205555505360901b6064820152608401610729565b600080516020613e5e8339815191528114612ad85760405162461bcd60e51b815260206004820152602960248201527f45524331393637557067726164653a20756e737570706f727465642070726f786044820152681a58589b195555525160ba1b6064820152608401610729565b50611083838383612f90565b612aec612fb5565b6033805460ff191690557f5db9ee0a495bf2e6ff9c91a7834c1ba4fdd244a5e8aa4e537bd38aeae4b073aa335b6040516001600160a01b03909116815260200160405180910390a1565b600054610100900460ff16612b5d5760405162461bcd60e51b815260040161072990613d2e565b611204612ffe565b600054610100900460ff16612b8c5760405162461bcd60e51b815260040161072990613d2e565b612b94612c35565b612b9f60003361292b565b612bb7600080516020613ea58339815191523361292b565b612be17f364d3d7565c7a8300c96fd53e065d19b65848d7b23b3191adcd55621c744223c3361292b565b612c0b7f9f2df0fed2c77648de5860a4cc508cd0818c85b8b8a1ab4ceeef8d981c8956a63361292b565b6112047ff18b77e1ef402111bacb54bd5e03494cbdba92fbd1bd3bbcc1ce77e69b42ea6c3361292b565b600054610100900460ff166112045760405162461bcd60e51b815260040161072990613d2e565b612c646128db565b6033805460ff191660011790557f62e78cea01bee320cd4e420270b5ea74000d11b0c9f74754ebdbfc544b05a258612b193390565b60006119f28383613031565b6000612cb284848461305b565b949350505050565b600080612cc684611568565b90506000815111612d0f5760405162461bcd60e51b81526020600482015260136024820152724e6f2071756573747320617661696c61626c6560681b6044820152606401610729565b60005b8151811015612d585783828281518110612d2e57612d2e613a75565b602002602001015103612d465760019250505061068b565b80612d5081613b1d565b915050612d12565b506000949350505050565b60006119f28383613078565b600061068b825490565b612d8382826119f9565b61110257612d9b816001600160a01b031660146130e8565b612da68360206130e8565b604051602001612db7929190613d79565b60408051601f198184030181529082905262461bcd60e51b825261072991600401613dee565b612de782826119f9565b6111025760008281526097602090815260408083206001600160a01b03851684529091529020805460ff19166001179055612e1f3390565b6001600160a01b0316816001600160a01b0316837f2f8788117e7eff1d82e926ec794901d17c78024a50270940304540a733656f0d60405160405180910390a45050565b60006119f2836001600160a01b038416613284565b612e8282826119f9565b156111025760008281526097602090815260408083206001600160a01b0385168085529252808320805460ff1916905551339285917ff6391f5c32d9c69d2a47ea670b442974b53935d1edc7fd64eb21e047a839171b9190a45050565b60006119f2836001600160a01b0384166132d3565b6001600160a01b0381163b612f615760405162461bcd60e51b815260206004820152602d60248201527f455243313936373a206e657720696d706c656d656e746174696f6e206973206e60448201526c1bdd08184818dbdb9d1c9858dd609a1b6064820152608401610729565b600080516020613e5e83398151915280546001600160a01b0319166001600160a01b0392909216919091179055565b612f99836133c6565b600082511180612fa65750805b156110835761276a8383613406565b60335460ff166112045760405162461bcd60e51b815260206004820152601460248201527314185d5cd8589b194e881b9bdd081c185d5cd95960621b6044820152606401610729565b600054610100900460ff166130255760405162461bcd60e51b815260040161072990613d2e565b6033805460ff19169055565b600082600001828154811061304857613048613a75565b9060005260206000200154905092915050565b60008281526002840160205260408120829055612cb284846134fa565b60008181526002830160205260408120548015158061309c575061309c8484613506565b6119f25760405162461bcd60e51b815260206004820152601e60248201527f456e756d657261626c654d61703a206e6f6e6578697374656e74206b657900006044820152606401610729565b606060006130f7836002613d0f565b613102906002613c45565b67ffffffffffffffff81111561311a5761311a613770565b6040519080825280601f01601f191660200182016040528015613144576020820181803683370190505b509050600360fc1b8160008151811061315f5761315f613a75565b60200101906001600160f81b031916908160001a905350600f60fb1b8160018151811061318e5761318e613a75565b60200101906001600160f81b031916908160001a90535060006131b2846002613d0f565b6131bd906001613c45565b90505b6001811115613235576f181899199a1a9b1b9c1cb0b131b232b360811b85600f16601081106131f1576131f1613a75565b1a60f81b82828151811061320757613207613a75565b60200101906001600160f81b031916908160001a90535060049490941c9361322e81613e01565b90506131c0565b5083156119f25760405162461bcd60e51b815260206004820181905260248201527f537472696e67733a20686578206c656e67746820696e73756666696369656e746044820152606401610729565b60008181526001830160205260408120546132cb5750815460018181018455600084815260208082209093018490558454848252828601909352604090209190915561068b565b50600061068b565b600081815260018301602052604081205480156133bc5760006132f7600183613e18565b855490915060009061330b90600190613e18565b905081811461337057600086600001828154811061332b5761332b613a75565b906000526020600020015490508087600001848154811061334e5761334e613a75565b6000918252602080832090910192909255918252600188019052604090208390555b855486908061338157613381613e2b565b60019003818190600052602060002001600090559055856001016000868152602001908152602001600020600090556001935050505061068b565b600091505061068b565b6133cf81612ef4565b6040516001600160a01b038216907fbc7cd75a20ee27fd9adebab32041f755214dbc6bffa90cc0225b39da2e5c2d3b90600090a250565b60606001600160a01b0383163b61346e5760405162461bcd60e51b815260206004820152602660248201527f416464726573733a2064656c65676174652063616c6c20746f206e6f6e2d636f6044820152651b9d1c9858dd60d21b6064820152608401610729565b600080846001600160a01b0316846040516134899190613e41565b600060405180830381855af49150503d80600081146134c4576040519150601f19603f3d011682016040523d82523d6000602084013e6134c9565b606091505b50915091506134f18282604051806060016040528060278152602001613e7e60279139613512565b95945050505050565b60006119f28383613284565b60006119f2838361354b565b606083156135215750816119f2565b8251156135315782518084602001fd5b8160405162461bcd60e51b81526004016107299190613dee565b600081815260018301602052604081205415156119f2565b604051806101800160405280600c906020820280368337509192915050565b60006020828403121561359457600080fd5b81356001600160e01b0319811681146119f257600080fd5b6000602082840312156135be57600080fd5b5035919050565b60008083601f8401126135d757600080fd5b50813567ffffffffffffffff8111156135ef57600080fd5b6020830191508360208260051b850101111561360a57600080fd5b9250929050565b6000806000806040858703121561362757600080fd5b843567ffffffffffffffff8082111561363f57600080fd5b61364b888389016135c5565b9096509450602087013591508082111561366457600080fd5b818701915087601f83011261367857600080fd5b81358181111561368757600080fd5b8860208260071b850101111561369c57600080fd5b95989497505060200194505050565b6001600160a01b03811681146111e257600080fd5b600080604083850312156136d357600080fd5b8235915060208301356136e5816136ab565b809150509250929050565b60006020828403121561370257600080fd5b81356119f2816136ab565b6000806020838503121561372057600080fd5b823567ffffffffffffffff81111561373757600080fd5b613743858286016135c5565b90969095509350505050565b8151815260208083015190820152604080830151908201526060810161068b565b634e487b7160e01b600052604160045260246000fd5b6000806040838503121561379957600080fd5b82356137a4816136ab565b9150602083013567ffffffffffffffff808211156137c157600080fd5b818501915085601f8301126137d557600080fd5b8135818111156137e7576137e7613770565b604051601f8201601f19908116603f0116810190838211818310171561380f5761380f613770565b8160405282815288602084870101111561382857600080fd5b8260208601602083013760006020848301015280955050505050509250929050565b6020808252825182820181905260009190848201906040850190845b818110156138a05761388d8385518051825260208082015190830152604090810151910152565b9284019260609290920191600101613866565b50909695505050505050565b6020808252825182820181905260009190848201906040850190845b818110156138a0578351835292840192918401916001016138c8565b600080604083850312156138f757600080fd5b50508035926020909101359150565b6000806000806040858703121561391c57600080fd5b843567ffffffffffffffff8082111561393457600080fd5b613940888389016135c5565b9096509450602087013591508082111561395957600080fd5b50613966878288016135c5565b95989497509550505050565b60006020828403121561398457600080fd5b81516119f2816136ab565b6020808252601a908201527f456c76656e416476656e74757265733a3a4e6f74206f776e6572000000000000604082015260600190565b6000602082840312156139d857600080fd5b5051919050565b60208082526024908201527f456c76656e416476656e74757265733a3a4e6f74206f6e20616e20616476656e6040820152637475726560e01b606082015260800190565b60208082526032908201527f456c76656e416476656e74757265733a3a4c6576656c206172726179206d7573604082015271074206265206c6172676572207468616e20360741b606082015260800190565b634e487b7160e01b600052603260045260246000fd5b634e487b7160e01b600052602160045260246000fd5b8135613aac816136ab565b81546001600160a01b0319166001600160a01b039190911617815560208201356001820155604082013560028201556003808201906060840135908110613af257600080fd5b60ff1982541660ff8216811783555050505050565b634e487b7160e01b600052601160045260246000fd5b600060018201613b2f57613b2f613b07565b5060010190565b6020808252602c908201527f46756e6374696f6e206d7573742062652063616c6c6564207468726f7567682060408201526b19195b1959d85d1958d85b1b60a21b606082015260800190565b6020808252602c908201527f46756e6374696f6e206d7573742062652063616c6c6564207468726f7567682060408201526b6163746976652070726f787960a01b606082015260800190565b60208082526035908201527f456c76656e416476656e74757265733a3a546f6b656e2049442061727261792060408201527406d757374206265206c6172676572207468616e203605c1b606082015260800190565b600060208284031215613c3557600080fd5b815180151581146119f257600080fd5b8082018082111561068b5761068b613b07565b81518152602080830151908201526040820151606082019060058110613c8e57634e487b7160e01b600052602160045260246000fd5b8060408401525092915050565b60005b83811015613cb6578181015183820152602001613c9e565b50506000910152565b60008151808452613cd7816020860160208601613c9b565b601f01601f19169290920160200192915050565b6001600160a01b0383168152604060208201819052600090612cb290830184613cbf565b6000816000190483118215151615613d2957613d29613b07565b500290565b6020808252602b908201527f496e697469616c697a61626c653a20636f6e7472616374206973206e6f74206960408201526a6e697469616c697a696e6760a81b606082015260800190565b7f416363657373436f6e74726f6c3a206163636f756e7420000000000000000000815260008351613db1816017850160208801613c9b565b7001034b99036b4b9b9b4b733903937b6329607d1b6017918401918201528351613de2816028840160208801613c9b565b01602801949350505050565b6020815260006119f26020830184613cbf565b600081613e1057613e10613b07565b506000190190565b8181038181111561068b5761068b613b07565b634e487b7160e01b600052603160045260246000fd5b60008251613e53818460208701613c9b565b919091019291505056fe360894a13ba1a3210667c828492db98dca3e2076cc3735a920a3ca505d382bbc416464726573733a206c6f772d6c6576656c2064656c65676174652063616c6c206661696c6564a49807205ce4d355092ef5a8a18f56e8913cf4a201fbe287825b095693c21775a2646970667358221220ddfd5f9266974331d7e936d09712fff935ff0df29e0ebd59d87f44625c4440f664736f6c63430008100033",
  "linkReferences": {},
  "deployedLinkReferences": {}
}