{
  "_format": "hh-sol-artifact-1",
  "contractName": "ElvenAdventures",
  "sourceName": "contracts/upgradeable/npc/ProfessionStaking/Boba/ElvenAdventures.sol",
  "abi": [
    {
      "inputs": [],
      "stateMutability": "nonpayable",
      "type": "constructor"
    },
    {
      "anonymous": false,
      "inputs": [
        {
          "indexed": false,
          "internalType": "address",
          "name": "previousAdmin",
          "type": "address"
        },
        {
          "indexed": false,
          "internalType": "address",
          "name": "newAdmin",
          "type": "address"
        }
      ],
      "name": "AdminChanged",
      "type": "event"
    },
    {
      "anonymous": false,
      "inputs": [
        {
          "indexed": true,
          "internalType": "address",
          "name": "beacon",
          "type": "address"
        }
      ],
      "name": "BeaconUpgraded",
      "type": "event"
    },
    {
      "anonymous": false,
      "inputs": [
        {
          "indexed": true,
          "internalType": "address",
          "name": "from",
          "type": "address"
        },
        {
          "indexed": false,
          "internalType": "uint256",
          "name": "tokenId",
          "type": "uint256"
        }
      ],
      "name": "BeganAdventure",
      "type": "event"
    },
    {
      "anonymous": false,
      "inputs": [
        {
          "indexed": true,
          "internalType": "address",
          "name": "from",
          "type": "address"
        },
        {
          "indexed": false,
          "internalType": "uint256",
          "name": "tokenId",
          "type": "uint256"
        },
        {
          "indexed": false,
          "internalType": "uint256",
          "name": "skillId",
          "type": "uint256"
        },
        {
          "indexed": false,
          "internalType": "uint256",
          "name": "level",
          "type": "uint256"
        },
        {
          "indexed": false,
          "internalType": "uint256",
          "name": "completeAt",
          "type": "uint256"
        }
      ],
      "name": "BeganQuest",
      "type": "event"
    },
    {
      "anonymous": false,
      "inputs": [
        {
          "indexed": true,
          "internalType": "address",
          "name": "from",
          "type": "address"
        },
        {
          "indexed": false,
          "internalType": "uint256",
          "name": "tokenId",
          "type": "uint256"
        },
        {
          "indexed": false,
          "internalType": "uint256",
          "name": "skillId",
          "type": "uint256"
        }
      ],
      "name": "CancelledQuest",
      "type": "event"
    },
    {
      "anonymous": false,
      "inputs": [
        {
          "indexed": true,
          "internalType": "address",
          "name": "from",
          "type": "address"
        },
        {
          "indexed": false,
          "internalType": "uint256",
          "name": "tokenId",
          "type": "uint256"
        }
      ],
      "name": "FinishedAdventure",
      "type": "event"
    },
    {
      "anonymous": false,
      "inputs": [
        {
          "indexed": true,
          "internalType": "address",
          "name": "from",
          "type": "address"
        },
        {
          "indexed": false,
          "internalType": "uint256",
          "name": "tokenId",
          "type": "uint256"
        },
        {
          "indexed": false,
          "internalType": "uint256",
          "name": "skillId",
          "type": "uint256"
        },
        {
          "indexed": false,
          "internalType": "uint256",
          "name": "level",
          "type": "uint256"
        }
      ],
      "name": "FinishedQuest",
      "type": "event"
    },
    {
      "anonymous": false,
      "inputs": [
        {
          "indexed": false,
          "internalType": "uint8",
          "name": "version",
          "type": "uint8"
        }
      ],
      "name": "Initialized",
      "type": "event"
    },
    {
      "anonymous": false,
      "inputs": [
        {
          "indexed": false,
          "internalType": "address",
          "name": "account",
          "type": "address"
        }
      ],
      "name": "Paused",
      "type": "event"
    },
    {
      "anonymous": false,
      "inputs": [
        {
          "indexed": true,
          "internalType": "bytes32",
          "name": "role",
          "type": "bytes32"
        },
        {
          "indexed": true,
          "internalType": "bytes32",
          "name": "previousAdminRole",
          "type": "bytes32"
        },
        {
          "indexed": true,
          "internalType": "bytes32",
          "name": "newAdminRole",
          "type": "bytes32"
        }
      ],
      "name": "RoleAdminChanged",
      "type": "event"
    },
    {
      "anonymous": false,
      "inputs": [
        {
          "indexed": true,
          "internalType": "bytes32",
          "name": "role",
          "type": "bytes32"
        },
        {
          "indexed": true,
          "internalType": "address",
          "name": "account",
          "type": "address"
        },
        {
          "indexed": true,
          "internalType": "address",
          "name": "sender",
          "type": "address"
        }
      ],
      "name": "RoleGranted",
      "type": "event"
    },
    {
      "anonymous": false,
      "inputs": [
        {
          "indexed": true,
          "internalType": "bytes32",
          "name": "role",
          "type": "bytes32"
        },
        {
          "indexed": true,
          "internalType": "address",
          "name": "account",
          "type": "address"
        },
        {
          "indexed": true,
          "internalType": "address",
          "name": "sender",
          "type": "address"
        }
      ],
      "name": "RoleRevoked",
      "type": "event"
    },
    {
      "anonymous": false,
      "inputs": [
        {
          "indexed": true,
          "internalType": "address",
          "name": "from",
          "type": "address"
        },
        {
          "indexed": false,
          "internalType": "uint256",
          "name": "tokenId",
          "type": "uint256"
        }
      ],
      "name": "UnlockedAdventures",
      "type": "event"
    },
    {
      "anonymous": false,
      "inputs": [
        {
          "indexed": false,
          "internalType": "address",
          "name": "account",
          "type": "address"
        }
      ],
      "name": "Unpaused",
      "type": "event"
    },
    {
      "anonymous": false,
      "inputs": [
        {
          "indexed": true,
          "internalType": "address",
          "name": "implementation",
          "type": "address"
        }
      ],
      "name": "Upgraded",
      "type": "event"
    },
    {
      "inputs": [],
      "name": "DEFAULT_ADMIN_ROLE",
      "outputs": [
        {
          "internalType": "bytes32",
          "name": "",
          "type": "bytes32"
        }
      ],
      "stateMutability": "view",
      "type": "function"
    },
    {
      "inputs": [
        {
          "internalType": "uint256",
          "name": "tokenId",
          "type": "uint256"
        }
      ],
      "name": "abandonQuest",
      "outputs": [],
      "stateMutability": "nonpayable",
      "type": "function"
    },
    {
      "inputs": [
        {
          "internalType": "uint256[]",
          "name": "tokenIds",
          "type": "uint256[]"
        }
      ],
      "name": "batchAbandonQuest",
      "outputs": [],
      "stateMutability": "nonpayable",
      "type": "function"
    },
    {
      "inputs": [
        {
          "internalType": "uint256[]",
          "name": "tokenIds",
          "type": "uint256[]"
        }
      ],
      "name": "batchBeginAdventure",
      "outputs": [],
      "stateMutability": "nonpayable",
      "type": "function"
    },
    {
      "inputs": [
        {
          "internalType": "uint256[]",
          "name": "tokenIds",
          "type": "uint256[]"
        }
      ],
      "name": "batchFinishAdventure",
      "outputs": [],
      "stateMutability": "nonpayable",
      "type": "function"
    },
    {
      "inputs": [
        {
          "internalType": "uint256[]",
          "name": "tokenIds",
          "type": "uint256[]"
        }
      ],
      "name": "batchFinishQuest",
      "outputs": [],
      "stateMutability": "nonpayable",
      "type": "function"
    },
    {
      "inputs": [
        {
          "internalType": "uint256[]",
          "name": "levels",
          "type": "uint256[]"
        },
        {
          "internalType": "uint256[]",
          "name": "time",
          "type": "uint256[]"
        }
      ],
      "name": "batchSetQuestTime",
      "outputs": [],
      "stateMutability": "nonpayable",
      "type": "function"
    },
    {
      "inputs": [
        {
          "internalType": "uint256[]",
          "name": "tokenIds",
          "type": "uint256[]"
        }
      ],
      "name": "batchStartQuest",
      "outputs": [],
      "stateMutability": "nonpayable",
      "type": "function"
    },
    {
      "inputs": [
        {
          "internalType": "uint256[]",
          "name": "tokenIds",
          "type": "uint256[]"
        }
      ],
      "name": "batchUnlockAdventures",
      "outputs": [],
      "stateMutability": "nonpayable",
      "type": "function"
    },
    {
      "inputs": [
        {
          "internalType": "uint256",
          "name": "tokenId",
          "type": "uint256"
        }
      ],
      "name": "beginAdventure",
      "outputs": [],
      "stateMutability": "nonpayable",
      "type": "function"
    },
    {
      "inputs": [
        {
          "internalType": "uint256",
          "name": "tokenId",
          "type": "uint256"
        }
      ],
      "name": "finishAdventure",
      "outputs": [],
      "stateMutability": "nonpayable",
      "type": "function"
    },
    {
      "inputs": [
        {
          "internalType": "uint256",
          "name": "tokenId",
          "type": "uint256"
        }
      ],
      "name": "finishQuest",
      "outputs": [],
      "stateMutability": "nonpayable",
      "type": "function"
    },
    {
      "inputs": [
        {
          "internalType": "uint256",
          "name": "tokenId",
          "type": "uint256"
        }
      ],
      "name": "getAllowedSkillChoices",
      "outputs": [
        {
          "internalType": "uint256[]",
          "name": "",
          "type": "uint256[]"
        }
      ],
      "stateMutability": "view",
      "type": "function"
    },
    {
      "inputs": [
        {
          "internalType": "uint256",
          "name": "tokenId",
          "type": "uint256"
        }
      ],
      "name": "getQuest",
      "outputs": [
        {
          "components": [
            {
              "internalType": "uint256",
              "name": "level",
              "type": "uint256"
            },
            {
              "internalType": "uint256",
              "name": "skillId",
              "type": "uint256"
            },
            {
              "internalType": "uint256",
              "name": "completeAt",
              "type": "uint256"
            }
          ],
          "internalType": "struct IElvenAdventures.Quest",
          "name": "",
          "type": "tuple"
        }
      ],
      "stateMutability": "view",
      "type": "function"
    },
    {
      "inputs": [
        {
          "internalType": "uint256[]",
          "name": "tokenIds",
          "type": "uint256[]"
        }
      ],
      "name": "getQuests",
      "outputs": [
        {
          "components": [
            {
              "internalType": "uint256",
              "name": "level",
              "type": "uint256"
            },
            {
              "internalType": "uint256",
              "name": "skillId",
              "type": "uint256"
            },
            {
              "internalType": "uint256",
              "name": "completeAt",
              "type": "uint256"
            }
          ],
          "internalType": "struct IElvenAdventures.Quest[]",
          "name": "",
          "type": "tuple[]"
        }
      ],
      "stateMutability": "view",
      "type": "function"
    },
    {
      "inputs": [
        {
          "internalType": "uint256[]",
          "name": "tokenIds",
          "type": "uint256[]"
        }
      ],
      "name": "getQuestsArray",
      "outputs": [
        {
          "internalType": "uint256[]",
          "name": "",
          "type": "uint256[]"
        },
        {
          "internalType": "uint256[]",
          "name": "levels",
          "type": "uint256[]"
        },
        {
          "internalType": "uint256[]",
          "name": "skillIds",
          "type": "uint256[]"
        },
        {
          "internalType": "uint256[]",
          "name": "completeAts",
          "type": "uint256[]"
        }
      ],
      "stateMutability": "view",
      "type": "function"
    },
    {
      "inputs": [
        {
          "internalType": "bytes32",
          "name": "role",
          "type": "bytes32"
        }
      ],
      "name": "getRoleAdmin",
      "outputs": [
        {
          "internalType": "bytes32",
          "name": "",
          "type": "bytes32"
        }
      ],
      "stateMutability": "view",
      "type": "function"
    },
    {
      "inputs": [
        {
          "internalType": "bytes32",
          "name": "role",
          "type": "bytes32"
        },
        {
          "internalType": "uint256",
          "name": "index",
          "type": "uint256"
        }
      ],
      "name": "getRoleMember",
      "outputs": [
        {
          "internalType": "address",
          "name": "",
          "type": "address"
        }
      ],
      "stateMutability": "view",
      "type": "function"
    },
    {
      "inputs": [
        {
          "internalType": "bytes32",
          "name": "role",
          "type": "bytes32"
        }
      ],
      "name": "getRoleMemberCount",
      "outputs": [
        {
          "internalType": "uint256",
          "name": "",
          "type": "uint256"
        }
      ],
      "stateMutability": "view",
      "type": "function"
    },
    {
      "inputs": [
        {
          "internalType": "bytes32",
          "name": "role",
          "type": "bytes32"
        },
        {
          "internalType": "address",
          "name": "account",
          "type": "address"
        }
      ],
      "name": "grantRole",
      "outputs": [],
      "stateMutability": "nonpayable",
      "type": "function"
    },
    {
      "inputs": [
        {
          "internalType": "bytes32",
          "name": "role",
          "type": "bytes32"
        },
        {
          "internalType": "address",
          "name": "account",
          "type": "address"
        }
      ],
      "name": "hasRole",
      "outputs": [
        {
          "internalType": "bool",
          "name": "",
          "type": "bool"
        }
      ],
      "stateMutability": "view",
      "type": "function"
    },
    {
      "inputs": [],
      "name": "initialize",
      "outputs": [],
      "stateMutability": "nonpayable",
      "type": "function"
    },
    {
      "inputs": [],
      "name": "pause",
      "outputs": [],
      "stateMutability": "nonpayable",
      "type": "function"
    },
    {
      "inputs": [],
      "name": "paused",
      "outputs": [
        {
          "internalType": "bool",
          "name": "",
          "type": "bool"
        }
      ],
      "stateMutability": "view",
      "type": "function"
    },
    {
      "inputs": [],
      "name": "proxiableUUID",
      "outputs": [
        {
          "internalType": "bytes32",
          "name": "",
          "type": "bytes32"
        }
      ],
      "stateMutability": "view",
      "type": "function"
    },
    {
      "inputs": [
        {
          "internalType": "bytes32",
          "name": "role",
          "type": "bytes32"
        },
        {
          "internalType": "address",
          "name": "account",
          "type": "address"
        }
      ],
      "name": "renounceRole",
      "outputs": [],
      "stateMutability": "nonpayable",
      "type": "function"
    },
    {
      "inputs": [
        {
          "internalType": "bytes32",
          "name": "role",
          "type": "bytes32"
        },
        {
          "internalType": "address",
          "name": "account",
          "type": "address"
        }
      ],
      "name": "revokeRole",
      "outputs": [],
      "stateMutability": "nonpayable",
      "type": "function"
    },
    {
      "inputs": [],
      "name": "setLateInit",
      "outputs": [],
      "stateMutability": "nonpayable",
      "type": "function"
    },
    {
      "inputs": [
        {
          "internalType": "uint256",
          "name": "level",
          "type": "uint256"
        },
        {
          "internalType": "uint256",
          "name": "time",
          "type": "uint256"
        }
      ],
      "name": "setQuestTime",
      "outputs": [],
      "stateMutability": "nonpayable",
      "type": "function"
    },
    {
      "inputs": [
        {
          "internalType": "uint256",
          "name": "level",
          "type": "uint256"
        },
        {
          "internalType": "address",
          "name": "_address",
          "type": "address"
        }
      ],
      "name": "setRewardAddressFor",
      "outputs": [],
      "stateMutability": "nonpayable",
      "type": "function"
    },
    {
      "inputs": [
        {
          "internalType": "uint256[]",
          "name": "levels",
          "type": "uint256[]"
        },
        {
          "components": [
            {
              "internalType": "address",
              "name": "_address",
              "type": "address"
            },
            {
              "internalType": "uint256",
              "name": "id",
              "type": "uint256"
            },
            {
              "internalType": "uint256",
              "name": "amount",
              "type": "uint256"
            },
            {
              "internalType": "enum IElvenAdventures.TokenType",
              "name": "tokenType",
              "type": "uint8"
            }
          ],
          "internalType": "struct IElvenAdventures.Reward[]",
          "name": "rewards",
          "type": "tuple[]"
        }
      ],
      "name": "setRewards",
      "outputs": [],
      "stateMutability": "nonpayable",
      "type": "function"
    },
    {
      "inputs": [
        {
          "internalType": "uint256",
          "name": "tokenId",
          "type": "uint256"
        },
        {
          "internalType": "uint256",
          "name": "skillId",
          "type": "uint256"
        }
      ],
      "name": "startQuest",
      "outputs": [],
      "stateMutability": "nonpayable",
      "type": "function"
    },
    {
      "inputs": [
        {
          "internalType": "bytes4",
          "name": "interfaceId",
          "type": "bytes4"
        }
      ],
      "name": "supportsInterface",
      "outputs": [
        {
          "internalType": "bool",
          "name": "",
          "type": "bool"
        }
      ],
      "stateMutability": "view",
      "type": "function"
    },
    {
      "inputs": [
        {
          "internalType": "uint256",
          "name": "tokenId",
          "type": "uint256"
        }
      ],
      "name": "unlockAdventures",
      "outputs": [],
      "stateMutability": "nonpayable",
      "type": "function"
    },
    {
      "inputs": [],
      "name": "unpause",
      "outputs": [],
      "stateMutability": "nonpayable",
      "type": "function"
    },
    {
      "inputs": [
        {
          "internalType": "address",
          "name": "newImplementation",
          "type": "address"
        }
      ],
      "name": "upgradeTo",
      "outputs": [],
      "stateMutability": "nonpayable",
      "type": "function"
    },
    {
      "inputs": [
        {
          "internalType": "address",
          "name": "newImplementation",
          "type": "address"
        },
        {
          "internalType": "bytes",
          "name": "data",
          "type": "bytes"
        }
      ],
      "name": "upgradeToAndCall",
      "outputs": [],
      "stateMutability": "payable",
      "type": "function"
    }
  ],
  "bytecode": "0x60a0604052306080523480156200001557600080fd5b506200002062000026565b620000e8565b600054610100900460ff1615620000935760405162461bcd60e51b815260206004820152602760248201527f496e697469616c697a61626c653a20636f6e747261637420697320696e697469604482015266616c697a696e6760c81b606482015260840160405180910390fd5b60005460ff9081161015620000e6576000805460ff191660ff9081179091556040519081527f7f26b83ff96e1f2b6a682f133852f6798a09c465da95921460cefb38474024989060200160405180910390a15b565b6080516145876200012060003960008181611180015281816111c00152818161133901528181611379015261153201526145876000f3fe60806040526004361061021a5760003560e01c806378c8e73111610123578063a3f0cab4116100ab578063d547741f1161006f578063d547741f1461064d578063dbf0cc7a1461066d578063f4a7c37f1461068d578063fd440f02146106ad578063fe39ff72146106cd57600080fd5b8063a3f0cab4146105ad578063b4adffe6146105cd578063b77c6572146105ed578063c3c33b401461060d578063ca15c8731461062d57600080fd5b806391d14854116100f257806391d148541461051857806392289409146105385780639368244714610558578063a217fddf14610578578063a269b0921461058d57600080fd5b806378c8e731146104855780638129fc1c146104b65780638456cb59146104cb5780639010d07c146104e057600080fd5b80633f4ba83a116101a65780634fb8eea4116101755780634fb8eea4146103e957806352d1902d146104165780635b37e0ab1461042b5780635c975abb1461044057806360a973581461045857600080fd5b80633f4ba83a1461037457806346d4ecc41461038957806349f86f34146103a95780634f1ef286146103d657600080fd5b8063248a9ca3116101ed578063248a9ca3146102b65780632beee287146102f45780632f2ff15d1461031457806336568abe146103345780633659cfe61461035457600080fd5b806301ffc9a71461021f57806302a329f2146102545780631094f152146102765780631d91467114610296575b600080fd5b34801561022b57600080fd5b5061023f61023a366004613b87565b6106ed565b60405190151581526020015b60405180910390f35b34801561026057600080fd5b5061027461026f366004613bb1565b610718565b005b34801561028257600080fd5b50610274610291366004613bb1565b610927565b3480156102a257600080fd5b506102746102b1366004613bb1565b610c17565b3480156102c257600080fd5b506102e66102d1366004613bb1565b60009081526097602052604090206001015490565b60405190815260200161024b565b34801561030057600080fd5b5061027461030f366004613c16565b610fb7565b34801561032057600080fd5b5061027461032f366004613cc5565b6110ce565b34801561034057600080fd5b5061027461034f366004613cc5565b6110f8565b34801561036057600080fd5b5061027461036f366004613cf5565b611176565b34801561038057600080fd5b50610274611255565b34801561039557600080fd5b506102746103a4366004613d12565b611276565b3480156103b557600080fd5b506103c96103c4366004613bb1565b6112d1565b60405161024b9190613d54565b6102746103e4366004613d8b565b61132f565b3480156103f557600080fd5b50610409610404366004613d12565b6113fb565b60405161024b9190613e4f565b34801561042257600080fd5b506102e6611525565b34801561043757600080fd5b506102746115d8565b34801561044c57600080fd5b5060335460ff1661023f565b34801561046457600080fd5b50610478610473366004613bb1565b61162d565b60405161024b9190613eec565b34801561049157600080fd5b506104a56104a0366004613d12565b611942565b60405161024b959493929190613eff565b3480156104c257600080fd5b50610274611b23565b3480156104d757600080fd5b50610274611c8d565b3480156104ec57600080fd5b506105006104fb366004613f79565b611cac565b6040516001600160a01b03909116815260200161024b565b34801561052457600080fd5b5061023f610533366004613cc5565b611ccb565b34801561054457600080fd5b50610274610553366004613d12565b611cf6565b34801561056457600080fd5b50610274610573366004613f9b565b611d51565b34801561058457600080fd5b506102e6600081565b34801561059957600080fd5b506102746105a8366004613d12565b611e2f565b3480156105b957600080fd5b506102746105c8366004613d12565b611e8a565b3480156105d957600080fd5b506102746105e8366004613f79565b611ee5565b3480156105f957600080fd5b50610274610608366004613bb1565b611f09565b34801561061957600080fd5b50610274610628366004613f79565b612136565b34801561063957600080fd5b506102e6610648366004613bb1565b61227d565b34801561065957600080fd5b50610274610668366004613cc5565b612294565b34801561067957600080fd5b50610274610688366004613bb1565b6122b9565b34801561069957600080fd5b506102746106a8366004613d12565b6124ed565b3480156106b957600080fd5b506102746106c8366004613d12565b612548565b3480156106d957600080fd5b506102746106e8366004613cc5565b612647565b60006001600160e01b03198216635a05180f60e01b1480610712575061071282612799565b92915050565b61018d546040516331a9108f60e11b815260048101839052829133916001600160a01b0390911690636352211e90602401602060405180830381865afa158015610766573d6000803e3d6000fd5b505050506040513d601f19601f8201168201806040525081019061078a9190614007565b6001600160a01b0316146107b95760405162461bcd60e51b81526004016107b090614024565b60405180910390fd5b61018d546040516322ca3b1560e11b81526004810183905260036024820152600160448201526001600160a01b0390911690634594762a90606401602060405180830381865afa158015610811573d6000803e3d6000fd5b505050506040513d601f19601f82011682018060405250810190610835919061405b565b6001146108545760405162461bcd60e51b81526004016107b090614074565b61018d546040516305ad7d8960e51b8152600481018490526003602482015260016044820152600060648201526001600160a01b039091169063b5afb12090608401600060405180830381600087803b1580156108b057600080fd5b505af11580156108c4573d6000803e3d6000fd5b505050600083815261019260205260408082208281556001810183905560020191909155513391507f1c2c58611eb0c9f7697b84d542033dd68380ec55ac39c2359486e147b19eb2579061091b9085815260200190565b60405180910390a25050565b61018d546040516331a9108f60e11b815260048101839052829133916001600160a01b0390911690636352211e90602401602060405180830381865afa158015610975573d6000803e3d6000fd5b505050506040513d601f19601f820116820180604052508101906109999190614007565b6001600160a01b0316146109bf5760405162461bcd60e51b81526004016107b090614024565b61018d546040516322ca3b1560e11b81526004810183905260036024820152600160448201526001600160a01b0390911690634594762a90606401602060405180830381865afa158015610a17573d6000803e3d6000fd5b505050506040513d601f19601f82011682018060405250810190610a3b919061405b565b600114610a5a5760405162461bcd60e51b81526004016107b090614074565b6000828152610192602052604090206002810154610aba5760405162461bcd60e51b815260206004820152601d60248201527f456c76656e416476656e74757265733a3a4e6f74207175657374696e6700000060448201526064016107b0565b4281600201541115610b1f5760405162461bcd60e51b815260206004820152602860248201527f456c76656e416476656e74757265733a3a5175657374207374696c6c20696e2060448201526770726f677265737360c01b60648201526084016107b0565b61018d5460018281015483546040516305ad7d8960e51b8152600481018890526024810193909352604483019190915260648201526001600160a01b039091169063b5afb12090608401600060405180830381600087803b158015610b8357600080fd5b505af1158015610b97573d6000803e3d6000fd5b50505050610bad816000015482600101546127ce565b6001810154815460408051868152602081019390935282015233907fd7cf191fa3edc02ed8b3973c2a61502e7b2ed8f3be2b1989c37556b1b9bd798c906060015b60405180910390a250506000908152610192602052604081208181556001810182905560020155565b610c1f612ac0565b61018d546040516331a9108f60e11b815260048101839052829133916001600160a01b0390911690636352211e90602401602060405180830381865afa158015610c6d573d6000803e3d6000fd5b505050506040513d601f19601f82011682018060405250810190610c919190614007565b6001600160a01b031614610cb75760405162461bcd60e51b81526004016107b090614024565b61018d546040516322ca3b1560e11b81526004810183905260036024820152600160448201526001600160a01b0390911690634594762a90606401602060405180830381865afa158015610d0f573d6000803e3d6000fd5b505050506040513d601f19601f82011682018060405250810190610d33919061405b565b15610d915760405162461bcd60e51b815260206004820152602860248201527f456c76656e416476656e74757265733a3a416c7265616479206f6e20616e20616044820152676476656e7475726560c01b60648201526084016107b0565b61018d546040516331a9108f60e11b815260048101849052839133916001600160a01b0390911690636352211e90602401602060405180830381865afa158015610ddf573d6000803e3d6000fd5b505050506040513d601f19601f82011682018060405250810190610e039190614007565b6001600160a01b031614610e295760405162461bcd60e51b81526004016107b090614024565b61018d546040516322ca3b1560e11b81526004810183905260036024820152600060448201526001600160a01b0390911690634594762a90606401602060405180830381865afa158015610e81573d6000803e3d6000fd5b505050506040513d601f19601f82011682018060405250810190610ea5919061405b565b600114610f095760405162461bcd60e51b815260206004820152602c60248201527f456c76656e416476656e74757265733a3a416476656e7475726573206172652060448201526b1b9bdd081d5b9b1bd8dad95960a21b60648201526084016107b0565b61018d546040516305ad7d8960e51b8152600481018590526003602482015260016044820181905260648201526001600160a01b039091169063b5afb12090608401600060405180830381600087803b158015610f6557600080fd5b505af1158015610f79573d6000803e3d6000fd5b50506040518581523392507f263709ec8d842c34bbcd1c44d993c5fbd80332b008cbb37c447ba8af03cbf225915060200160405180910390a2505050565b610fce600080516020614532833981519152612b06565b82610feb5760405162461bcd60e51b81526004016107b0906140b8565b8281146110575760405162461bcd60e51b815260206004820152603460248201527f456c76656e416476656e74757265733a3a4c6576656c20636f756e74206d75736044820152731d081b585d18da081c995dd85c990818dbdd5b9d60621b60648201526084016107b0565b60005b838110156110c7578282828181106110745761107461410a565b90506080020161019360008787858181106110915761109161410a565b90506020020135815260200190815260200160002081816110b29190614136565b508190506110bf816141b2565b91505061105a565b5050505050565b6000828152609760205260409020600101546110e981612b06565b6110f38383612b10565b505050565b6001600160a01b03811633146111685760405162461bcd60e51b815260206004820152602f60248201527f416363657373436f6e74726f6c3a2063616e206f6e6c792072656e6f756e636560448201526e103937b632b9903337b91039b2b63360891b60648201526084016107b0565b6111728282612b32565b5050565b6001600160a01b037f00000000000000000000000000000000000000000000000000000000000000001630036111be5760405162461bcd60e51b81526004016107b0906141cb565b7f00000000000000000000000000000000000000000000000000000000000000006001600160a01b03166112076000805160206144eb833981519152546001600160a01b031690565b6001600160a01b03161461122d5760405162461bcd60e51b81526004016107b090614217565b61123681612b54565b6040805160008082526020820190925261125291839190612b5e565b50565b61126c600080516020614532833981519152612b06565b611274612cc9565b565b806112935760405162461bcd60e51b81526004016107b090614263565b60005b818110156110f3576112bf8383838181106112b3576112b361410a565b90506020020135610718565b806112c9816141b2565b915050611296565b6112f560405180606001604052806000815260200160008152602001600081525090565b5060009081526101926020908152604091829020825160608101845281548152600182015492810192909252600201549181019190915290565b6001600160a01b037f00000000000000000000000000000000000000000000000000000000000000001630036113775760405162461bcd60e51b81526004016107b0906141cb565b7f00000000000000000000000000000000000000000000000000000000000000006001600160a01b03166113c06000805160206144eb833981519152546001600160a01b031690565b6001600160a01b0316146113e65760405162461bcd60e51b81526004016107b090614217565b6113ef82612b54565b61117282826001612b5e565b60608161141a5760405162461bcd60e51b81526004016107b090614263565b60008267ffffffffffffffff81111561143557611435613d75565b60405190808252806020026020018201604052801561148a57816020015b61147760405180606001604052806000815260200160008152602001600081525090565b8152602001906001900390816114535790505b50905060005b8381101561151d5761019260008686848181106114af576114af61410a565b90506020020135815260200190815260200160002060405180606001604052908160008201548152602001600182015481526020016002820154815250508282815181106114ff576114ff61410a565b60200260200101819052508080611515906141b2565b915050611490565b509392505050565b6000306001600160a01b037f000000000000000000000000000000000000000000000000000000000000000016146115c55760405162461bcd60e51b815260206004820152603860248201527f555550535570677261646561626c653a206d757374206e6f742062652063616c60448201527f6c6564207468726f7567682064656c656761746563616c6c000000000000000060648201526084016107b0565b506000805160206144eb83398151915290565b6115ef600080516020614532833981519152612b06565b61160e601173ce953d1a6be7331eef06ec9ac8a4a22a4f2bdfb0612647565b6112746013734f82dfbeed2aa0686eb26ddba7a075406b4c6a67612647565b60408051600c8082526101a0820190925260609160009190602082016101808036833701905050905060005b600c81101561169257808282815181106116755761167561410a565b60209081029190910101528061168a816141b2565b915050611659565b5061169b613b68565b60008060005b600c8110156117a85761018d546040516322ca3b1560e11b81526004810189905260016024820152604481018390526001600160a01b0390911690634594762a90606401602060405180830381865afa158015611702573d6000803e3d6000fd5b505050506040513d601f19601f82011682018060405250810190611726919061405b565b8482600c81106117385761173861410a565b602002015260008482600c81106117515761175161410a565b6020020151111561176a5782611766816141b2565b9350505b8381600c811061177c5761177c61410a565b60200201516014036117965781611792816141b2565b9250505b806117a0816141b2565b9150506116a1565b50816000036117bb575091949350505050565b806002036117cf5750606095945050505050565b60408051600b808252610180820190925260009160208201610160803683370190505090506000805b600c811015611935578360011480156118115750846001145b801561183157508581600c811061182a5761182a61410a565b6020020151155b1561187b578681815181106118485761184861410a565b60200260200101518383815181106118625761186261410a565b602090810291909101015281611877816141b2565b9250505b60008682600c811061188f5761188f61410a565b60200201511180156118b7575060148682600c81106118b0576118b061410a565b6020020151105b1561192357604080516001808252818301909252600091602080830190803683370190505090508782815181106118f0576118f061410a565b60200260200101518160008151811061190b5761190b61410a565b60209081029190910101529998505050505050505050565b8061192d816141b2565b9150506117f8565b5090979650505050505050565b36600060608080856119665760405162461bcd60e51b81526004016107b090614263565b8567ffffffffffffffff81111561197f5761197f613d75565b6040519080825280602002602001820160405280156119a8578160200160208202803683370190505b5092508567ffffffffffffffff8111156119c4576119c4613d75565b6040519080825280602002602001820160405280156119ed578160200160208202803683370190505b5091508567ffffffffffffffff811115611a0957611a09613d75565b604051908082528060200260200182016040528015611a32578160200160208202803683370190505b50905060005b86811015611b1457600061019260008a8a85818110611a5957611a5961410a565b905060200201358152602001908152602001600020604051806060016040529081600082015481526020016001820154815260200160028201548152505090508060000151858381518110611ab057611ab061410a565b6020026020010181815250508060200151848381518110611ad357611ad361410a565b6020026020010181815250508060400151838381518110611af657611af661410a565b60209081029190910101525080611b0c816141b2565b915050611a38565b50959694959194909350909150565b600054610100900460ff1615808015611b435750600054600160ff909116105b80611b5d5750303b158015611b5d575060005460ff166001145b611bc05760405162461bcd60e51b815260206004820152602e60248201527f496e697469616c697a61626c653a20636f6e747261637420697320616c72656160448201526d191e481a5b9a5d1a585b1a5e995960921b60648201526084016107b0565b6000805460ff191660011790558015611be3576000805461ff0019166101001790555b611beb612d1b565b611bf3612d4a565b611bfb612e44565b61018d80546001600160a01b03199081167309692b3a53eb7870f00b342444e4f42e259e79991790915561018e805490911673245b4c64271e91c9fb6be1971a0208dd92efebde1790558015611252576000805461ff0019169055604051600181527f7f26b83ff96e1f2b6a682f133852f6798a09c465da95921460cefb38474024989060200160405180910390a150565b611ca4600080516020614532833981519152612b06565b611274612e6b565b600082815260c960205260408120611cc49083612ea8565b9392505050565b60009182526097602090815260408084206001600160a01b0393909316845291905290205460ff1690565b80611d135760405162461bcd60e51b81526004016107b090614263565b60005b818110156110f357611d3f838383818110611d3357611d3361410a565b90506020020135611f09565b80611d49816141b2565b915050611d16565b82611d6e5760405162461bcd60e51b81526004016107b0906140b8565b828114611dd85760405162461bcd60e51b815260206004820152603260248201527f456c76656e416476656e74757265733a3a4c6576656c20636f756e74206d75736044820152711d081b585d18da081d1a5b594818dbdd5b9d60721b60648201526084016107b0565b60005b838110156110c757611e1d858583818110611df857611df861410a565b90506020020135848484818110611e1157611e1161410a565b90506020020135611ee5565b80611e27816141b2565b915050611ddb565b80611e4c5760405162461bcd60e51b81526004016107b090614263565b60005b818110156110f357611e78838383818110611e6c57611e6c61410a565b90506020020135610c17565b80611e82816141b2565b915050611e4f565b80611ea75760405162461bcd60e51b81526004016107b090614263565b60005b818110156110f357611ed3838383818110611ec757611ec761410a565b905060200201356122b9565b80611edd816141b2565b915050611eaa565b611efc600080516020614532833981519152612b06565b6110f361018f8383612eb4565b611f11612ac0565b61018d546040516322ca3b1560e11b81526004810183905260036024820152600060448201526001600160a01b0390911690634594762a90606401602060405180830381865afa158015611f69573d6000803e3d6000fd5b505050506040513d601f19601f82011682018060405250810190611f8d919061405b565b15611ff75760405162461bcd60e51b815260206004820152603460248201527f456c76656e416476656e74757265733a3a416476656e747572657320616c726560448201527330b23c903ab73637b1b5b2b2103337b91022b63360611b60648201526084016107b0565b61200033612ec9565b61208a5761018e546040516323b872dd60e01b81523360048201523060248201526801158e460913d0000060448201526001600160a01b03909116906323b872dd906064016020604051808303816000875af1158015612064573d6000803e3d6000fd5b505050506040513d601f19601f8201168201806040525081019061208891906142b8565b505b61018d546040516305ad7d8960e51b8152600481018390526003602482015260006044820152600160648201526001600160a01b039091169063b5afb12090608401600060405180830381600087803b1580156120e657600080fd5b505af11580156120fa573d6000803e3d6000fd5b50506040518381523392507ff76b41b3ad8d77d5272eaf82aea73cf79bc169164e1d0d562fc412a0dc846593915060200160405180910390a250565b61213e612ac0565b61018d546040516331a9108f60e11b815260048101849052839133916001600160a01b0390911690636352211e90602401602060405180830381865afa15801561218c573d6000803e3d6000fd5b505050506040513d601f19601f820116820180604052508101906121b09190614007565b6001600160a01b0316146121d65760405162461bcd60e51b81526004016107b090614024565b61018d546040516322ca3b1560e11b81526004810183905260036024820152600160448201526001600160a01b0390911690634594762a90606401602060405180830381865afa15801561222e573d6000803e3d6000fd5b505050506040513d601f19601f82011682018060405250810190612252919061405b565b6001146122715760405162461bcd60e51b81526004016107b090614074565b6110f383836000612ed5565b600081815260c96020526040812061071290613278565b6000828152609760205260409020600101546122af81612b06565b6110f38383612b32565b61018d546040516331a9108f60e11b815260048101839052829133916001600160a01b0390911690636352211e90602401602060405180830381865afa158015612307573d6000803e3d6000fd5b505050506040513d601f19601f8201168201806040525081019061232b9190614007565b6001600160a01b0316146123515760405162461bcd60e51b81526004016107b090614024565b61018d546040516322ca3b1560e11b81526004810183905260036024820152600160448201526001600160a01b0390911690634594762a90606401602060405180830381865afa1580156123a9573d6000803e3d6000fd5b505050506040513d601f19601f820116820180604052508101906123cd919061405b565b6001146123ec5760405162461bcd60e51b81526004016107b090614074565b600082815261019260205260409020600281015461244c5760405162461bcd60e51b815260206004820152601d60248201527f456c76656e416476656e74757265733a3a4e6f74207175657374696e6700000060448201526064016107b0565b428160020154116124af5760405162461bcd60e51b815260206004820152602760248201527f456c76656e416476656e74757265733a3a517565737420616c726561647920636044820152666f6d706c65746560c81b60648201526084016107b0565b600181015460405133917f305299efa35a6f9e8169e7133814f3bc0a0d613fd7bae7cc379b11318cca56e991610bee91878252602082015260400190565b8061250a5760405162461bcd60e51b81526004016107b090614263565b60005b818110156110f35761253683838381811061252a5761252a61410a565b90506020020135610927565b80612540816141b2565b91505061250d565b806125655760405162461bcd60e51b81526004016107b090614263565b60005b818110156110f35760006125938484848181106125875761258761410a565b9050602002013561162d565b905080516001146125f65760405162461bcd60e51b815260206004820152602760248201527f456c76656e416476656e74757265733a3a496e76616c6964206f7074696f6e73604482015266040d8cadccee8d60cb1b60648201526084016107b0565b61263484848481811061260b5761260b61410a565b90506020020135826000815181106126255761262561410a565b60200260200101516001612ed5565b508061263f816141b2565b915050612568565b61265e600080516020614532833981519152612b06565b600082116126ae5760405162461bcd60e51b815260206004820152601e60248201527f456c76656e416476656e74757265733a3a496e76616c6964204c6576656c000060448201526064016107b0565b6001600160a01b0381166127045760405162461bcd60e51b815260206004820181905260248201527f456c76656e416476656e74757265733a3a496e76616c6964204164647265737360448201526064016107b0565b60008281526101936020526040902080546001600160a01b03166127785760405162461bcd60e51b815260206004820152602560248201527f456c76656e416476656e74757265733a3a4c6576656c206e6f7420636f6e666960448201526419dd5c995960da1b60648201526084016107b0565b80546001600160a01b0319166001600160a01b039290921691909117905550565b60006001600160e01b03198216637965db0b60e01b148061071257506301ffc9a760e01b6001600160e01b0319831614610712565b600082815261019360205260408120805490916001600160a01b0390911690600383015460ff16600281111561280657612806614120565b0361288d5761018e54600283015460405163a9059cbb60e01b815233600482015260248101919091526001600160a01b039091169063a9059cbb906044016020604051808303816000875af1158015612863573d6000803e3d6000fd5b505050506040513d601f19601f8201168201806040525081019061288791906142b8565b50612aba565b6002600383015460ff1660028111156128a8576128a8614120565b036129565760408051606081018252848152601e602082015260009181016002905283546040519192506001600160a01b03169063b510391f9033906128f29085906020016142da565b6040516020818303038152906040526040518363ffffffff1660e01b815260040161291e92919061436d565b600060405180830381600087803b15801561293857600080fd5b505af115801561294c573d6000803e3d6000fd5b5050505050612aba565b600182015460118590036129c85761296f84600f614391565b61297a9060036143a8565b905061298581613282565b156129c35760136000526101936020527fe2dcd09c3d3ec96a4bdac575228926e022a2a5870cb64a627f0ab97090f2434d546001600160a01b031691505b612a3d565b84601303612a32576129db84600f614391565b6129e69060086143a8565b90506129f181613282565b6129c35760116000526101936020527f90acb2ac82b57a9255c9cf384063e43c195b9685a4a8e38ce7fe8761eaf169d1546001600160a01b03169150612a3d565b84601403612a3d5750825b600283015460405163731133e960e01b815233600482015260248101839052604481019190915260806064820152600060848201526001600160a01b0383169063731133e99060a401600060405180830381600087803b158015612aa057600080fd5b505af1158015612ab4573d6000803e3d6000fd5b50505050505b50505050565b60335460ff16156112745760405162461bcd60e51b815260206004820152601060248201526f14185d5cd8589b194e881c185d5cd95960821b60448201526064016107b0565b61125281336132b8565b612b1a8282613311565b600082815260c9602052604090206110f39082613397565b612b3c82826133ac565b600082815260c9602052604090206110f39082613413565b6112526000612b06565b7f4910fdfa16fed3260ed0e7147f7cc6da11a60208b5b9406d12a635614ffd91435460ff1615612b91576110f383613428565b826001600160a01b03166352d1902d6040518163ffffffff1660e01b8152600401602060405180830381865afa925050508015612beb575060408051601f3d908101601f19168201909252612be89181019061405b565b60015b612c4e5760405162461bcd60e51b815260206004820152602e60248201527f45524331393637557067726164653a206e657720696d706c656d656e7461746960448201526d6f6e206973206e6f74205555505360901b60648201526084016107b0565b6000805160206144eb8339815191528114612cbd5760405162461bcd60e51b815260206004820152602960248201527f45524331393637557067726164653a20756e737570706f727465642070726f786044820152681a58589b195555525160ba1b60648201526084016107b0565b506110f38383836134c4565b612cd16134e9565b6033805460ff191690557f5db9ee0a495bf2e6ff9c91a7834c1ba4fdd244a5e8aa4e537bd38aeae4b073aa335b6040516001600160a01b03909116815260200160405180910390a1565b600054610100900460ff16612d425760405162461bcd60e51b81526004016107b0906143bb565b611274613532565b600054610100900460ff16612d715760405162461bcd60e51b81526004016107b0906143bb565b612d79612e44565b612d84600033612b10565b612d9c60008051602061453283398151915233612b10565b612dc67f364d3d7565c7a8300c96fd53e065d19b65848d7b23b3191adcd55621c744223c33612b10565b612df07f9f2df0fed2c77648de5860a4cc508cd0818c85b8b8a1ab4ceeef8d981c8956a633612b10565b612e1a7ff18b77e1ef402111bacb54bd5e03494cbdba92fbd1bd3bbcc1ce77e69b42ea6c33612b10565b6112747f52ba824bfabc2bcfcdf7f0edbb486ebb05e1836c90e78047efeb949990f72e5f33612b10565b600054610100900460ff166112745760405162461bcd60e51b81526004016107b0906143bb565b612e73612ac0565b6033805460ff191660011790557f62e78cea01bee320cd4e420270b5ea74000d11b0c9f74754ebdbfc544b05a258612cfe3390565b6000611cc48383613565565b6000612ec184848461358f565b949350505050565b60006107128183611ccb565b600083815261019260205260409020600281015415612f4c5760405162461bcd60e51b815260206004820152602d60248201527f456c76656e416476656e74757265733a3a517565737420697320616c7265616460448201526c7920696e2070726f677265737360981b60648201526084016107b0565b612f5684846135ac565b612fae5760405162461bcd60e51b8152602060048201526024808201527f456c76656e416476656e74757265733a3a496e76616c696420717565737420736044820152631ada5b1b60e21b60648201526084016107b0565b61018d546040516322ca3b1560e11b81526004810186905260016024820152604481018590526000916001600160a01b031690634594762a90606401602060405180830381865afa158015613007573d6000803e3d6000fd5b505050506040513d601f19601f8201168201806040525081019061302b919061405b565b9050601381111561309d5760405162461bcd60e51b815260206004820152603660248201527f456c76656e416476656e74757265733a3a45786365656473206d6178696d756d604482015275081cdada5b1b081b195d995b08199bdc881c5d595cdd60521b60648201526084016107b0565b821561310357600081116131035760405162461bcd60e51b815260206004820152602760248201527f456c76656e416476656e74757265733a3a50726f66657373696f6e206e6f74206044820152661cdd185c9d195960ca1b60648201526084016107b0565b600061311c6131138360016143a8565b61018f90613655565b905061312733612ec9565b6131b15761018e546040516323b872dd60e01b8152336004820152306024820152680340aad21b3b70000060448201526001600160a01b03909116906323b872dd906064016020604051808303816000875af115801561318b573d6000803e3d6000fd5b505050506040513d601f19601f820116820180604052508101906131af91906142b8565b505b60405180606001604052808360016131c991906143a8565b8152602081018790526040016131df83426143a8565b9052600087815261019260209081526040918290208351815590830151600180830191909155929091015160029091015533907f1df85d5371cf8f4fa88fbebdce2c4643f789cfb9cfe5a8d294f54ba07555e9e390889088906132439087906143a8565b61324d86426143a8565b60408051948552602085019390935291830152606082015260800160405180910390a2505050505050565b6000610712825490565b6000603c82108061329f57506069821015801561329f5750607882105b8061071257506096821015801561071257505060a51190565b6132c28282611ccb565b611172576132cf81613661565b6132da836020613673565b6040516020016132eb929190614406565b60408051601f198184030181529082905262461bcd60e51b82526107b09160040161447b565b61331b8282611ccb565b6111725760008281526097602090815260408083206001600160a01b03851684529091529020805460ff191660011790556133533390565b6001600160a01b0316816001600160a01b0316837f2f8788117e7eff1d82e926ec794901d17c78024a50270940304540a733656f0d60405160405180910390a45050565b6000611cc4836001600160a01b03841661380f565b6133b68282611ccb565b156111725760008281526097602090815260408083206001600160a01b0385168085529252808320805460ff1916905551339285917ff6391f5c32d9c69d2a47ea670b442974b53935d1edc7fd64eb21e047a839171b9190a45050565b6000611cc4836001600160a01b03841661385e565b6001600160a01b0381163b6134955760405162461bcd60e51b815260206004820152602d60248201527f455243313936373a206e657720696d706c656d656e746174696f6e206973206e60448201526c1bdd08184818dbdb9d1c9858dd609a1b60648201526084016107b0565b6000805160206144eb83398151915280546001600160a01b0319166001600160a01b0392909216919091179055565b6134cd83613951565b6000825111806134da5750805b156110f357612aba8383613991565b60335460ff166112745760405162461bcd60e51b815260206004820152601460248201527314185d5cd8589b194e881b9bdd081c185d5cd95960621b60448201526064016107b0565b600054610100900460ff166135595760405162461bcd60e51b81526004016107b0906143bb565b6033805460ff19169055565b600082600001828154811061357c5761357c61410a565b9060005260206000200154905092915050565b60008281526002840160205260408120829055612ec18484613a85565b6000806135b88461162d565b905060008151116136015760405162461bcd60e51b81526020600482015260136024820152724e6f2071756573747320617661696c61626c6560681b60448201526064016107b0565b60005b815181101561364a57838282815181106136205761362061410a565b60200260200101510361363857600192505050610712565b80613642816141b2565b915050613604565b506000949350505050565b6000611cc48383613a91565b60606107126001600160a01b03831660145b60606000613682836002614391565b61368d9060026143a8565b67ffffffffffffffff8111156136a5576136a5613d75565b6040519080825280601f01601f1916602001820160405280156136cf576020820181803683370190505b509050600360fc1b816000815181106136ea576136ea61410a565b60200101906001600160f81b031916908160001a905350600f60fb1b816001815181106137195761371961410a565b60200101906001600160f81b031916908160001a905350600061373d846002614391565b6137489060016143a8565b90505b60018111156137c0576f181899199a1a9b1b9c1cb0b131b232b360811b85600f166010811061377c5761377c61410a565b1a60f81b8282815181106137925761379261410a565b60200101906001600160f81b031916908160001a90535060049490941c936137b98161448e565b905061374b565b508315611cc45760405162461bcd60e51b815260206004820181905260248201527f537472696e67733a20686578206c656e67746820696e73756666696369656e7460448201526064016107b0565b600081815260018301602052604081205461385657508154600181810184556000848152602080822090930184905584548482528286019093526040902091909155610712565b506000610712565b600081815260018301602052604081205480156139475760006138826001836144a5565b8554909150600090613896906001906144a5565b90508181146138fb5760008660000182815481106138b6576138b661410a565b90600052602060002001549050808760000184815481106138d9576138d961410a565b6000918252602080832090910192909255918252600188019052604090208390555b855486908061390c5761390c6144b8565b600190038181906000526020600020016000905590558560010160008681526020019081526020016000206000905560019350505050610712565b6000915050610712565b61395a81613428565b6040516001600160a01b038216907fbc7cd75a20ee27fd9adebab32041f755214dbc6bffa90cc0225b39da2e5c2d3b90600090a250565b60606001600160a01b0383163b6139f95760405162461bcd60e51b815260206004820152602660248201527f416464726573733a2064656c65676174652063616c6c20746f206e6f6e2d636f6044820152651b9d1c9858dd60d21b60648201526084016107b0565b600080846001600160a01b031684604051613a1491906144ce565b600060405180830381855af49150503d8060008114613a4f576040519150601f19603f3d011682016040523d82523d6000602084013e613a54565b606091505b5091509150613a7c828260405180606001604052806027815260200161450b60279139613b01565b95945050505050565b6000611cc4838361380f565b600081815260028301602052604081205480151580613ab55750613ab58484613b1a565b611cc45760405162461bcd60e51b815260206004820152601e60248201527f456e756d657261626c654d61703a206e6f6e6578697374656e74206b6579000060448201526064016107b0565b60608315613b10575081611cc4565b611cc48383613b26565b6000611cc48383613b50565b815115613b365781518083602001fd5b8060405162461bcd60e51b81526004016107b0919061447b565b60008181526001830160205260408120541515611cc4565b604051806101800160405280600c906020820280368337509192915050565b600060208284031215613b9957600080fd5b81356001600160e01b031981168114611cc457600080fd5b600060208284031215613bc357600080fd5b5035919050565b60008083601f840112613bdc57600080fd5b50813567ffffffffffffffff811115613bf457600080fd5b6020830191508360208260051b8501011115613c0f57600080fd5b9250929050565b60008060008060408587031215613c2c57600080fd5b843567ffffffffffffffff80821115613c4457600080fd5b613c5088838901613bca565b90965094506020870135915080821115613c6957600080fd5b818701915087601f830112613c7d57600080fd5b813581811115613c8c57600080fd5b8860208260071b8501011115613ca157600080fd5b95989497505060200194505050565b6001600160a01b038116811461125257600080fd5b60008060408385031215613cd857600080fd5b823591506020830135613cea81613cb0565b809150509250929050565b600060208284031215613d0757600080fd5b8135611cc481613cb0565b60008060208385031215613d2557600080fd5b823567ffffffffffffffff811115613d3c57600080fd5b613d4885828601613bca565b90969095509350505050565b81518152602080830151908201526040808301519082015260608101610712565b634e487b7160e01b600052604160045260246000fd5b60008060408385031215613d9e57600080fd5b8235613da981613cb0565b9150602083013567ffffffffffffffff80821115613dc657600080fd5b818501915085601f830112613dda57600080fd5b813581811115613dec57613dec613d75565b604051601f8201601f19908116603f01168101908382118183101715613e1457613e14613d75565b81604052828152886020848701011115613e2d57600080fd5b8260208601602083013760006020848301015280955050505050509250929050565b6020808252825182820181905260009190848201906040850190845b81811015613ea557613e928385518051825260208082015190830152604090810151910152565b9284019260609290920191600101613e6b565b50909695505050505050565b600081518084526020808501945080840160005b83811015613ee157815187529582019590820190600101613ec5565b509495945050505050565b602081526000611cc46020830184613eb1565b6080808252810185905260006001600160fb1b03861115613f1f57600080fd5b8560051b808860a0850137820182810360a09081016020850152613f4590820187613eb1565b90508281036040840152613f598186613eb1565b90508281036060840152613f6d8185613eb1565b98975050505050505050565b60008060408385031215613f8c57600080fd5b50508035926020909101359150565b60008060008060408587031215613fb157600080fd5b843567ffffffffffffffff80821115613fc957600080fd5b613fd588838901613bca565b90965094506020870135915080821115613fee57600080fd5b50613ffb87828801613bca565b95989497509550505050565b60006020828403121561401957600080fd5b8151611cc481613cb0565b6020808252601a908201527f456c76656e416476656e74757265733a3a4e6f74206f776e6572000000000000604082015260600190565b60006020828403121561406d57600080fd5b5051919050565b60208082526024908201527f456c76656e416476656e74757265733a3a4e6f74206f6e20616e20616476656e6040820152637475726560e01b606082015260800190565b60208082526032908201527f456c76656e416476656e74757265733a3a4c6576656c206172726179206d7573604082015271074206265206c6172676572207468616e20360741b606082015260800190565b634e487b7160e01b600052603260045260246000fd5b634e487b7160e01b600052602160045260246000fd5b813561414181613cb0565b81546001600160a01b0319166001600160a01b03919091161781556020820135600182015560408201356002820155600380820190606084013590811061418757600080fd5b60ff1982541660ff8216811783555050505050565b634e487b7160e01b600052601160045260246000fd5b6000600182016141c4576141c461419c565b5060010190565b6020808252602c908201527f46756e6374696f6e206d7573742062652063616c6c6564207468726f7567682060408201526b19195b1959d85d1958d85b1b60a21b606082015260800190565b6020808252602c908201527f46756e6374696f6e206d7573742062652063616c6c6564207468726f7567682060408201526b6163746976652070726f787960a01b606082015260800190565b60208082526035908201527f456c76656e416476656e74757265733a3a546f6b656e2049442061727261792060408201527406d757374206265206c6172676572207468616e203605c1b606082015260800190565b6000602082840312156142ca57600080fd5b81518015158114611cc457600080fd5b8151815260208083015190820152604082015160608201906005811061431057634e487b7160e01b600052602160045260246000fd5b8060408401525092915050565b60005b83811015614338578181015183820152602001614320565b50506000910152565b6000815180845261435981602086016020860161431d565b601f01601f19169290920160200192915050565b6001600160a01b0383168152604060208201819052600090612ec190830184614341565b80820281158282048414176107125761071261419c565b808201808211156107125761071261419c565b6020808252602b908201527f496e697469616c697a61626c653a20636f6e7472616374206973206e6f74206960408201526a6e697469616c697a696e6760a81b606082015260800190565b7f416363657373436f6e74726f6c3a206163636f756e742000000000000000000081526000835161443e81601785016020880161431d565b7001034b99036b4b9b9b4b733903937b6329607d1b601791840191820152835161446f81602884016020880161431d565b01602801949350505050565b602081526000611cc46020830184614341565b60008161449d5761449d61419c565b506000190190565b818103818111156107125761071261419c565b634e487b7160e01b600052603160045260246000fd5b600082516144e081846020870161431d565b919091019291505056fe360894a13ba1a3210667c828492db98dca3e2076cc3735a920a3ca505d382bbc416464726573733a206c6f772d6c6576656c2064656c65676174652063616c6c206661696c6564a49807205ce4d355092ef5a8a18f56e8913cf4a201fbe287825b095693c21775a26469706673582212207790370727149b4c7b5ce1e98f36260a6fe46843fa8362bae6cfce1a51e94f2a64736f6c63430008110033",
  "linkReferences": {},
  "deployedLinkReferences": {}
}