{
  "_format": "hh-sol-artifact-1",
  "contractName": "Magic",
  "sourceName": "contracts/upgradeable/ERC20/MAGIC/Magic.sol",
  "abi": [
    {
      "inputs": [],
      "stateMutability": "nonpayable",
      "type": "constructor"
    },
    {
      "anonymous": false,
      "inputs": [
        {
          "indexed": true,
          "internalType": "address",
          "name": "owner",
          "type": "address"
        },
        {
          "indexed": true,
          "internalType": "address",
          "name": "spender",
          "type": "address"
        },
        {
          "indexed": false,
          "internalType": "uint256",
          "name": "value",
          "type": "uint256"
        }
      ],
      "name": "Approval",
      "type": "event"
    },
    {
      "anonymous": false,
      "inputs": [
        {
          "indexed": false,
          "internalType": "uint8",
          "name": "version",
          "type": "uint8"
        }
      ],
      "name": "Initialized",
      "type": "event"
    },
    {
      "anonymous": false,
      "inputs": [
        {
          "indexed": false,
          "internalType": "address",
          "name": "account",
          "type": "address"
        }
      ],
      "name": "Paused",
      "type": "event"
    },
    {
      "anonymous": false,
      "inputs": [
        {
          "indexed": true,
          "internalType": "bytes32",
          "name": "role",
          "type": "bytes32"
        },
        {
          "indexed": true,
          "internalType": "bytes32",
          "name": "previousAdminRole",
          "type": "bytes32"
        },
        {
          "indexed": true,
          "internalType": "bytes32",
          "name": "newAdminRole",
          "type": "bytes32"
        }
      ],
      "name": "RoleAdminChanged",
      "type": "event"
    },
    {
      "anonymous": false,
      "inputs": [
        {
          "indexed": true,
          "internalType": "bytes32",
          "name": "role",
          "type": "bytes32"
        },
        {
          "indexed": true,
          "internalType": "address",
          "name": "account",
          "type": "address"
        },
        {
          "indexed": true,
          "internalType": "address",
          "name": "sender",
          "type": "address"
        }
      ],
      "name": "RoleGranted",
      "type": "event"
    },
    {
      "anonymous": false,
      "inputs": [
        {
          "indexed": true,
          "internalType": "bytes32",
          "name": "role",
          "type": "bytes32"
        },
        {
          "indexed": true,
          "internalType": "address",
          "name": "account",
          "type": "address"
        },
        {
          "indexed": true,
          "internalType": "address",
          "name": "sender",
          "type": "address"
        }
      ],
      "name": "RoleRevoked",
      "type": "event"
    },
    {
      "anonymous": false,
      "inputs": [
        {
          "indexed": true,
          "internalType": "address",
          "name": "from",
          "type": "address"
        },
        {
          "indexed": true,
          "internalType": "address",
          "name": "to",
          "type": "address"
        },
        {
          "indexed": false,
          "internalType": "uint256",
          "name": "value",
          "type": "uint256"
        }
      ],
      "name": "Transfer",
      "type": "event"
    },
    {
      "anonymous": false,
      "inputs": [
        {
          "indexed": false,
          "internalType": "address",
          "name": "account",
          "type": "address"
        }
      ],
      "name": "Unpaused",
      "type": "event"
    },
    {
      "inputs": [],
      "name": "ADMIN_ROLE",
      "outputs": [
        {
          "internalType": "bytes32",
          "name": "",
          "type": "bytes32"
        }
      ],
      "stateMutability": "view",
      "type": "function"
    },
    {
      "inputs": [],
      "name": "DEFAULT_ADMIN_ROLE",
      "outputs": [
        {
          "internalType": "bytes32",
          "name": "",
          "type": "bytes32"
        }
      ],
      "stateMutability": "view",
      "type": "function"
    },
    {
      "inputs": [],
      "name": "DOMAIN_SEPARATOR",
      "outputs": [
        {
          "internalType": "bytes32",
          "name": "",
          "type": "bytes32"
        }
      ],
      "stateMutability": "view",
      "type": "function"
    },
    {
      "inputs": [],
      "name": "MINTER_ROLE",
      "outputs": [
        {
          "internalType": "bytes32",
          "name": "",
          "type": "bytes32"
        }
      ],
      "stateMutability": "view",
      "type": "function"
    },
    {
      "inputs": [
        {
          "internalType": "address",
          "name": "owner",
          "type": "address"
        },
        {
          "internalType": "address",
          "name": "spender",
          "type": "address"
        }
      ],
      "name": "allowance",
      "outputs": [
        {
          "internalType": "uint256",
          "name": "",
          "type": "uint256"
        }
      ],
      "stateMutability": "view",
      "type": "function"
    },
    {
      "inputs": [
        {
          "internalType": "address",
          "name": "spender",
          "type": "address"
        },
        {
          "internalType": "uint256",
          "name": "amount",
          "type": "uint256"
        }
      ],
      "name": "approve",
      "outputs": [
        {
          "internalType": "bool",
          "name": "",
          "type": "bool"
        }
      ],
      "stateMutability": "nonpayable",
      "type": "function"
    },
    {
      "inputs": [
        {
          "internalType": "address",
          "name": "account",
          "type": "address"
        }
      ],
      "name": "balanceOf",
      "outputs": [
        {
          "internalType": "uint256",
          "name": "",
          "type": "uint256"
        }
      ],
      "stateMutability": "view",
      "type": "function"
    },
    {
      "inputs": [],
      "name": "bridgeContract",
      "outputs": [
        {
          "internalType": "address",
          "name": "",
          "type": "address"
        }
      ],
      "stateMutability": "view",
      "type": "function"
    },
    {
      "inputs": [],
      "name": "bridgeExtraData",
      "outputs": [
        {
          "internalType": "bytes",
          "name": "",
          "type": "bytes"
        }
      ],
      "stateMutability": "pure",
      "type": "function"
    },
    {
      "inputs": [
        {
          "internalType": "uint256",
          "name": "amount",
          "type": "uint256"
        }
      ],
      "name": "burn",
      "outputs": [],
      "stateMutability": "nonpayable",
      "type": "function"
    },
    {
      "inputs": [
        {
          "internalType": "address",
          "name": "account",
          "type": "address"
        },
        {
          "internalType": "uint256",
          "name": "amount",
          "type": "uint256"
        }
      ],
      "name": "burnFrom",
      "outputs": [],
      "stateMutability": "nonpayable",
      "type": "function"
    },
    {
      "inputs": [],
      "name": "cap",
      "outputs": [
        {
          "internalType": "uint256",
          "name": "",
          "type": "uint256"
        }
      ],
      "stateMutability": "view",
      "type": "function"
    },
    {
      "inputs": [],
      "name": "decimals",
      "outputs": [
        {
          "internalType": "uint8",
          "name": "",
          "type": "uint8"
        }
      ],
      "stateMutability": "view",
      "type": "function"
    },
    {
      "inputs": [
        {
          "internalType": "address",
          "name": "spender",
          "type": "address"
        },
        {
          "internalType": "uint256",
          "name": "subtractedValue",
          "type": "uint256"
        }
      ],
      "name": "decreaseAllowance",
      "outputs": [
        {
          "internalType": "bool",
          "name": "",
          "type": "bool"
        }
      ],
      "stateMutability": "nonpayable",
      "type": "function"
    },
    {
      "inputs": [
        {
          "internalType": "bytes32",
          "name": "role",
          "type": "bytes32"
        }
      ],
      "name": "getRoleAdmin",
      "outputs": [
        {
          "internalType": "bytes32",
          "name": "",
          "type": "bytes32"
        }
      ],
      "stateMutability": "view",
      "type": "function"
    },
    {
      "inputs": [
        {
          "internalType": "bytes32",
          "name": "role",
          "type": "bytes32"
        },
        {
          "internalType": "address",
          "name": "account",
          "type": "address"
        }
      ],
      "name": "grantRole",
      "outputs": [],
      "stateMutability": "nonpayable",
      "type": "function"
    },
    {
      "inputs": [
        {
          "internalType": "bytes32",
          "name": "role",
          "type": "bytes32"
        },
        {
          "internalType": "address",
          "name": "account",
          "type": "address"
        }
      ],
      "name": "hasRole",
      "outputs": [
        {
          "internalType": "bool",
          "name": "",
          "type": "bool"
        }
      ],
      "stateMutability": "view",
      "type": "function"
    },
    {
      "inputs": [
        {
          "internalType": "address",
          "name": "spender",
          "type": "address"
        },
        {
          "internalType": "uint256",
          "name": "addedValue",
          "type": "uint256"
        }
      ],
      "name": "increaseAllowance",
      "outputs": [
        {
          "internalType": "bool",
          "name": "",
          "type": "bool"
        }
      ],
      "stateMutability": "nonpayable",
      "type": "function"
    },
    {
      "inputs": [],
      "name": "initialize",
      "outputs": [],
      "stateMutability": "nonpayable",
      "type": "function"
    },
    {
      "inputs": [
        {
          "internalType": "address",
          "name": "account",
          "type": "address"
        },
        {
          "internalType": "uint256",
          "name": "amount",
          "type": "uint256"
        }
      ],
      "name": "mint",
      "outputs": [],
      "stateMutability": "nonpayable",
      "type": "function"
    },
    {
      "inputs": [
        {
          "internalType": "address",
          "name": "account",
          "type": "address"
        },
        {
          "internalType": "uint256",
          "name": "amount",
          "type": "uint256"
        },
        {
          "internalType": "bytes",
          "name": "",
          "type": "bytes"
        }
      ],
      "name": "mint",
      "outputs": [],
      "stateMutability": "nonpayable",
      "type": "function"
    },
    {
      "inputs": [],
      "name": "name",
      "outputs": [
        {
          "internalType": "string",
          "name": "",
          "type": "string"
        }
      ],
      "stateMutability": "view",
      "type": "function"
    },
    {
      "inputs": [
        {
          "internalType": "address",
          "name": "owner",
          "type": "address"
        }
      ],
      "name": "nonces",
      "outputs": [
        {
          "internalType": "uint256",
          "name": "",
          "type": "uint256"
        }
      ],
      "stateMutability": "view",
      "type": "function"
    },
    {
      "inputs": [],
      "name": "pause",
      "outputs": [],
      "stateMutability": "nonpayable",
      "type": "function"
    },
    {
      "inputs": [],
      "name": "paused",
      "outputs": [
        {
          "internalType": "bool",
          "name": "",
          "type": "bool"
        }
      ],
      "stateMutability": "view",
      "type": "function"
    },
    {
      "inputs": [
        {
          "internalType": "address",
          "name": "owner",
          "type": "address"
        },
        {
          "internalType": "address",
          "name": "spender",
          "type": "address"
        },
        {
          "internalType": "uint256",
          "name": "value",
          "type": "uint256"
        },
        {
          "internalType": "uint256",
          "name": "deadline",
          "type": "uint256"
        },
        {
          "internalType": "uint8",
          "name": "v",
          "type": "uint8"
        },
        {
          "internalType": "bytes32",
          "name": "r",
          "type": "bytes32"
        },
        {
          "internalType": "bytes32",
          "name": "s",
          "type": "bytes32"
        }
      ],
      "name": "permit",
      "outputs": [],
      "stateMutability": "nonpayable",
      "type": "function"
    },
    {
      "inputs": [
        {
          "internalType": "bytes32",
          "name": "role",
          "type": "bytes32"
        },
        {
          "internalType": "address",
          "name": "account",
          "type": "address"
        }
      ],
      "name": "renounceRole",
      "outputs": [],
      "stateMutability": "nonpayable",
      "type": "function"
    },
    {
      "inputs": [
        {
          "internalType": "bytes32",
          "name": "role",
          "type": "bytes32"
        },
        {
          "internalType": "address",
          "name": "account",
          "type": "address"
        }
      ],
      "name": "revokeRole",
      "outputs": [],
      "stateMutability": "nonpayable",
      "type": "function"
    },
    {
      "inputs": [
        {
          "internalType": "bytes4",
          "name": "interfaceId",
          "type": "bytes4"
        }
      ],
      "name": "supportsInterface",
      "outputs": [
        {
          "internalType": "bool",
          "name": "",
          "type": "bool"
        }
      ],
      "stateMutability": "view",
      "type": "function"
    },
    {
      "inputs": [],
      "name": "symbol",
      "outputs": [
        {
          "internalType": "string",
          "name": "",
          "type": "string"
        }
      ],
      "stateMutability": "view",
      "type": "function"
    },
    {
      "inputs": [],
      "name": "totalBurned",
      "outputs": [
        {
          "internalType": "uint256",
          "name": "",
          "type": "uint256"
        }
      ],
      "stateMutability": "view",
      "type": "function"
    },
    {
      "inputs": [],
      "name": "totalSupply",
      "outputs": [
        {
          "internalType": "uint256",
          "name": "",
          "type": "uint256"
        }
      ],
      "stateMutability": "view",
      "type": "function"
    },
    {
      "inputs": [
        {
          "internalType": "address",
          "name": "to",
          "type": "address"
        },
        {
          "internalType": "uint256",
          "name": "amount",
          "type": "uint256"
        }
      ],
      "name": "transfer",
      "outputs": [
        {
          "internalType": "bool",
          "name": "",
          "type": "bool"
        }
      ],
      "stateMutability": "nonpayable",
      "type": "function"
    },
    {
      "inputs": [
        {
          "internalType": "address",
          "name": "from",
          "type": "address"
        },
        {
          "internalType": "address",
          "name": "to",
          "type": "address"
        },
        {
          "internalType": "uint256",
          "name": "amount",
          "type": "uint256"
        }
      ],
      "name": "transferFrom",
      "outputs": [
        {
          "internalType": "bool",
          "name": "",
          "type": "bool"
        }
      ],
      "stateMutability": "nonpayable",
      "type": "function"
    },
    {
      "inputs": [],
      "name": "unpause",
      "outputs": [],
      "stateMutability": "nonpayable",
      "type": "function"
    }
  ],
  "bytecode": "0x608060405234801561001057600080fd5b5061001961001e565b6100de565b600054610100900460ff161561008a5760405162461bcd60e51b815260206004820152602760248201527f496e697469616c697a61626c653a20636f6e747261637420697320696e697469604482015266616c697a696e6760c81b606482015260840160405180910390fd5b60005460ff90811610156100dc576000805460ff191660ff9081179091556040519081527f7f26b83ff96e1f2b6a682f133852f6798a09c465da95921460cefb38474024989060200160405180910390a15b565b6121c580620000ee6000396000f3fe608060405234801561001057600080fd5b50600436106102115760003560e01c806375b238fc11610125578063a217fddf116100ad578063d505accf1161007c578063d505accf14610452578063d539139314610465578063d547741f1461047a578063d89135cd1461048d578063dd62ed3e1461049657600080fd5b8063a217fddf146103f8578063a457c2d714610400578063a9059cbb14610413578063cd5965831461042657600080fd5b80638129fc1c116100f45780638129fc1c146103ba5780638456cb59146103c257806391d14854146103ca57806394d008ef146103dd57806395d89b41146103f057600080fd5b806375b238fc1461036b57806379cc6790146103805780637b3a1286146103935780637ecebe00146103a757600080fd5b8063355274ea116101a85780633f4ba83a116101775780633f4ba83a1461030957806340c10f191461031157806342966c68146103245780635c975abb1461033757806370a082311461034257600080fd5b8063355274ea146102d25780633644e515146102db57806336568abe146102e357806339509351146102f657600080fd5b806323b872dd116101e457806323b872dd14610278578063248a9ca31461028b5780632f2ff15d146102ae578063313ce567146102c357600080fd5b806301ffc9a71461021657806306fdde031461023e578063095ea7b31461025357806318160ddd14610266575b600080fd5b610229610224366004611bc2565b6104a9565b60405190151581526020015b60405180910390f35b6102466104e0565b6040516102359190611c3c565b610229610261366004611c6b565b610572565b6035545b604051908152602001610235565b610229610286366004611c95565b61058a565b61026a610299366004611cd1565b600090815260c9602052604090206001015490565b6102c16102bc366004611cea565b6105ae565b005b60405160128152602001610235565b6101625461026a565b61026a6105d8565b6102c16102f1366004611cea565b6105e7565b610229610304366004611c6b565b61066a565b6102c161068c565b6102c161031f366004611c6b565b6106af565b6102c1610332366004611cd1565b6106d1565b60655460ff16610229565b61026a610350366004611d16565b6001600160a01b031660009081526033602052604090205490565b61026a60008051602061217083398151915281565b6102c161038e366004611c6b565b6106da565b604080516020810190915260008152610246565b61026a6103b5366004611d16565b610708565b6102c1610727565b6102c1610900565b6102296103d8366004611cea565b610920565b6102c16103eb366004611d47565b61094b565b61024661097c565b61026a600081565b61022961040e366004611c6b565b61098b565b610229610421366004611c6b565b610a06565b6101f85461043a906001600160a01b031681565b6040516001600160a01b039091168152602001610235565b6102c1610460366004611e12565b610a14565b61026a60008051602061215083398151915281565b6102c1610488366004611cea565b610b78565b6101955461026a565b61026a6104a4366004611e85565b610b9d565b60006001600160e01b03198216637965db0b60e01b14806104da57506301ffc9a760e01b6001600160e01b03198316145b92915050565b6060603680546104ef90611eaf565b80601f016020809104026020016040519081016040528092919081815260200182805461051b90611eaf565b80156105685780601f1061053d57610100808354040283529160200191610568565b820191906000526020600020905b81548152906001019060200180831161054b57829003601f168201915b5050505050905090565b600033610580818585610bc8565b5060019392505050565b600033610598858285610cec565b6105a3858585610d60565b506001949350505050565b600082815260c960205260409020600101546105c981610f16565b6105d38383610f20565b505050565b60006105e2610fa6565b905090565b6001600160a01b038116331461065c5760405162461bcd60e51b815260206004820152602f60248201527f416363657373436f6e74726f6c3a2063616e206f6e6c792072656e6f756e636560448201526e103937b632b9903337b91039b2b63360891b60648201526084015b60405180910390fd5b6106668282611021565b5050565b60003361058081858561067d8383610b9d565b6106879190611ef9565b610bc8565b6000805160206121708339815191526106a481610f16565b6106ac611088565b50565b6000805160206121508339815191526106c781610f16565b6105d383836110da565b6106ac81611154565b6106e5823383610cec565b8061019560008282546106f89190611ef9565b9091555061066690508282611173565b6001600160a01b038116600090815261012f60205260408120546104da565b600054610100900460ff16158080156107475750600054600160ff909116105b806107615750303b158015610761575060005460ff166001145b6107c45760405162461bcd60e51b815260206004820152602e60248201527f496e697469616c697a61626c653a20636f6e747261637420697320616c72656160448201526d191e481a5b9a5d1a585b1a5e995960921b6064820152608401610653565b6000805460ff1916600117905580156107e7576000805461ff0019166101001790555b61082b604051806040016040528060058152602001644d6167696360d81b815250604051806040016040528060058152602001644d4147494360d81b8152506112b3565b6108336112e4565b61083b611315565b610861604051806040016040528060058152602001644d6167696360d81b81525061133c565b6108756a52b7d2dcc80cd2e4000000611386565b61087d611315565b610888600033610f20565b6108a060008051602061217083398151915233610f20565b6108b860008051602061215083398151915233610f20565b80156106ac576000805461ff0019169055604051600181527f7f26b83ff96e1f2b6a682f133852f6798a09c465da95921460cefb38474024989060200160405180910390a150565b60008051602061217083398151915261091881610f16565b6106ac6113b6565b600091825260c9602090815260408084206001600160a01b0393909316845291905290205460ff1690565b60008051602061215083398151915261096381610f16565b61096d84846110da565b610976836113f3565b50505050565b6060603780546104ef90611eaf565b600033816109998286610b9d565b9050838110156109f95760405162461bcd60e51b815260206004820152602560248201527f45524332303a2064656372656173656420616c6c6f77616e63652062656c6f77604482015264207a65726f60d81b6064820152608401610653565b6105a38286868403610bc8565b600033610580818585610d60565b83421115610a645760405162461bcd60e51b815260206004820152601d60248201527f45524332305065726d69743a206578706972656420646561646c696e650000006044820152606401610653565b60007f6e71edae12b1b97f4d1f60370fef10105fa2faae0126114a169c64845d6126c9888888610a938c61140e565b6040805160208101969096526001600160a01b0394851690860152929091166060840152608083015260a082015260c0810186905260e0016040516020818303038152906040528051906020012090506000610aee82611437565b90506000610afe82878787611485565b9050896001600160a01b0316816001600160a01b031614610b615760405162461bcd60e51b815260206004820152601e60248201527f45524332305065726d69743a20696e76616c6964207369676e617475726500006044820152606401610653565b610b6c8a8a8a610bc8565b50505050505050505050565b600082815260c96020526040902060010154610b9381610f16565b6105d38383611021565b6001600160a01b03918216600090815260346020908152604080832093909416825291909152205490565b6001600160a01b038316610c2a5760405162461bcd60e51b8152602060048201526024808201527f45524332303a20617070726f76652066726f6d20746865207a65726f206164646044820152637265737360e01b6064820152608401610653565b6001600160a01b038216610c8b5760405162461bcd60e51b815260206004820152602260248201527f45524332303a20617070726f766520746f20746865207a65726f206164647265604482015261737360f01b6064820152608401610653565b6001600160a01b0383811660008181526034602090815260408083209487168084529482529182902085905590518481527f8c5be1e5ebec7d5bd14f71427d1e84f3dd0314c0f7b2291e5b200ac8c7c3b925910160405180910390a3505050565b6000610cf88484610b9d565b905060001981146109765781811015610d535760405162461bcd60e51b815260206004820152601d60248201527f45524332303a20696e73756666696369656e7420616c6c6f77616e63650000006044820152606401610653565b6109768484848403610bc8565b6001600160a01b038316610dc45760405162461bcd60e51b815260206004820152602560248201527f45524332303a207472616e736665722066726f6d20746865207a65726f206164604482015264647265737360d81b6064820152608401610653565b6001600160a01b038216610e265760405162461bcd60e51b815260206004820152602360248201527f45524332303a207472616e7366657220746f20746865207a65726f206164647260448201526265737360e81b6064820152608401610653565b610e318383836114ad565b6001600160a01b03831660009081526033602052604090205481811015610ea95760405162461bcd60e51b815260206004820152602660248201527f45524332303a207472616e7366657220616d6f756e7420657863656564732062604482015265616c616e636560d01b6064820152608401610653565b6001600160a01b0380851660008181526033602052604080822086860390559286168082529083902080548601905591517fddf252ad1be2c89b69c2b068fc378daa952ba7f163c4a11628f55a4df523b3ef90610f099086815260200190565b60405180910390a3610976565b6106ac81336114b5565b610f2a8282610920565b61066657600082815260c9602090815260408083206001600160a01b03851684529091529020805460ff19166001179055610f623390565b6001600160a01b0316816001600160a01b0316837f2f8788117e7eff1d82e926ec794901d17c78024a50270940304540a733656f0d60405160405180910390a45050565b60006105e27f8b73c3c69bb8fe3d512ecc4cf759cc79239f7b179b0ffacaa9a75d522b39400f610fd560fb5490565b60fc546040805160208101859052908101839052606081018290524660808201523060a082015260009060c0016040516020818303038152906040528051906020012090509392505050565b61102b8282610920565b1561066657600082815260c9602090815260408083206001600160a01b0385168085529252808320805460ff1916905551339285917ff6391f5c32d9c69d2a47ea670b442974b53935d1edc7fd64eb21e047a839171b9190a45050565b61109061150e565b6065805460ff191690557f5db9ee0a495bf2e6ff9c91a7834c1ba4fdd244a5e8aa4e537bd38aeae4b073aa335b6040516001600160a01b03909116815260200160405180910390a1565b61016254816110e96101955490565b6035546110f69190611ef9565b6111009190611ef9565b111561114a5760405162461bcd60e51b8152602060048201526019602482015278115490cc8c10d85c1c19590e8818d85c08195e18d959591959603a1b6044820152606401610653565b6106668282611557565b8061019560008282546111679190611ef9565b909155506106ac905033825b6001600160a01b0382166111d35760405162461bcd60e51b815260206004820152602160248201527f45524332303a206275726e2066726f6d20746865207a65726f206164647265736044820152607360f81b6064820152608401610653565b6111df826000836114ad565b6001600160a01b038216600090815260336020526040902054818110156112535760405162461bcd60e51b815260206004820152602260248201527f45524332303a206275726e20616d6f756e7420657863656564732062616c616e604482015261636560f01b6064820152608401610653565b6001600160a01b03831660008181526033602090815260408083208686039055603580548790039055518581529192917fddf252ad1be2c89b69c2b068fc378daa952ba7f163c4a11628f55a4df523b3ef910160405180910390a3505050565b600054610100900460ff166112da5760405162461bcd60e51b815260040161065390611f0c565b61066682826115c3565b600054610100900460ff1661130b5760405162461bcd60e51b815260040161065390611f0c565b611313611603565b565b600054610100900460ff166113135760405162461bcd60e51b815260040161065390611f0c565b600054610100900460ff166113635760405162461bcd60e51b815260040161065390611f0c565b6106ac81604051806040016040528060018152602001603160f81b815250611636565b600054610100900460ff166113ad5760405162461bcd60e51b815260040161065390611f0c565b6106ac81611677565b6113be6116ec565b6065805460ff191660011790557f62e78cea01bee320cd4e420270b5ea74000d11b0c9f74754ebdbfc544b05a2586110bd3390565b8061019560008282546114069190611f57565b909155505050565b6001600160a01b038116600090815261012f602052604090208054600181018255905b50919050565b60006104da611444610fa6565b8360405161190160f01b6020820152602281018390526042810182905260009060620160405160208183030381529060405280519060200120905092915050565b600080600061149687878787611732565b915091506114a3816117f6565b5095945050505050565b6105d36116ec565b6114bf8282610920565b610666576114cc81611940565b6114d7836020611952565b6040516020016114e8929190611f6a565b60408051601f198184030181529082905262461bcd60e51b825261065391600401611c3c565b60655460ff166113135760405162461bcd60e51b815260206004820152601460248201527314185d5cd8589b194e881b9bdd081c185d5cd95960621b6044820152606401610653565b610162548161156560355490565b61156f9190611ef9565b11156115b95760405162461bcd60e51b8152602060048201526019602482015278115490cc8c10d85c1c19590e8818d85c08195e18d959591959603a1b6044820152606401610653565b6106668282611af5565b600054610100900460ff166115ea5760405162461bcd60e51b815260040161065390611f0c565b60366115f6838261202d565b5060376105d3828261202d565b600054610100900460ff1661162a5760405162461bcd60e51b815260040161065390611f0c565b6065805460ff19169055565b600054610100900460ff1661165d5760405162461bcd60e51b815260040161065390611f0c565b81516020928301208151919092012060fb9190915560fc55565b600054610100900460ff1661169e5760405162461bcd60e51b815260040161065390611f0c565b600081116116e65760405162461bcd60e51b8152602060048201526015602482015274045524332304361707065643a20636170206973203605c1b6044820152606401610653565b61016255565b60655460ff16156113135760405162461bcd60e51b815260206004820152601060248201526f14185d5cd8589b194e881c185d5cd95960821b6044820152606401610653565b6000807f7fffffffffffffffffffffffffffffff5d576e7357a4501ddfe92f46681b20a083111561176957506000905060036117ed565b6040805160008082526020820180845289905260ff881692820192909252606081018690526080810185905260019060a0016020604051602081039080840390855afa1580156117bd573d6000803e3d6000fd5b5050604051601f1901519150506001600160a01b0381166117e6576000600192509250506117ed565b9150600090505b94509492505050565b600081600481111561180a5761180a6120ed565b036118125750565b6001816004811115611826576118266120ed565b036118735760405162461bcd60e51b815260206004820152601860248201527f45434453413a20696e76616c6964207369676e617475726500000000000000006044820152606401610653565b6002816004811115611887576118876120ed565b036118d45760405162461bcd60e51b815260206004820152601f60248201527f45434453413a20696e76616c6964207369676e6174757265206c656e677468006044820152606401610653565b60038160048111156118e8576118e86120ed565b036106ac5760405162461bcd60e51b815260206004820152602260248201527f45434453413a20696e76616c6964207369676e6174757265202773272076616c604482015261756560f01b6064820152608401610653565b60606104da6001600160a01b03831660145b60606000611961836002612103565b61196c906002611ef9565b67ffffffffffffffff81111561198457611984611d31565b6040519080825280601f01601f1916602001820160405280156119ae576020820181803683370190505b509050600360fc1b816000815181106119c9576119c9612122565b60200101906001600160f81b031916908160001a905350600f60fb1b816001815181106119f8576119f8612122565b60200101906001600160f81b031916908160001a9053506000611a1c846002612103565b611a27906001611ef9565b90505b6001811115611a9f576f181899199a1a9b1b9c1cb0b131b232b360811b85600f1660108110611a5b57611a5b612122565b1a60f81b828281518110611a7157611a71612122565b60200101906001600160f81b031916908160001a90535060049490941c93611a9881612138565b9050611a2a565b508315611aee5760405162461bcd60e51b815260206004820181905260248201527f537472696e67733a20686578206c656e67746820696e73756666696369656e746044820152606401610653565b9392505050565b6001600160a01b038216611b4b5760405162461bcd60e51b815260206004820152601f60248201527f45524332303a206d696e7420746f20746865207a65726f2061646472657373006044820152606401610653565b611b57600083836114ad565b8060356000828254611b699190611ef9565b90915550506001600160a01b0382166000818152603360209081526040808320805486019055518481527fddf252ad1be2c89b69c2b068fc378daa952ba7f163c4a11628f55a4df523b3ef910160405180910390a35050565b600060208284031215611bd457600080fd5b81356001600160e01b031981168114611aee57600080fd5b60005b83811015611c07578181015183820152602001611bef565b50506000910152565b60008151808452611c28816020860160208601611bec565b601f01601f19169290920160200192915050565b602081526000611aee6020830184611c10565b80356001600160a01b0381168114611c6657600080fd5b919050565b60008060408385031215611c7e57600080fd5b611c8783611c4f565b946020939093013593505050565b600080600060608486031215611caa57600080fd5b611cb384611c4f565b9250611cc160208501611c4f565b9150604084013590509250925092565b600060208284031215611ce357600080fd5b5035919050565b60008060408385031215611cfd57600080fd5b82359150611d0d60208401611c4f565b90509250929050565b600060208284031215611d2857600080fd5b611aee82611c4f565b634e487b7160e01b600052604160045260246000fd5b600080600060608486031215611d5c57600080fd5b611d6584611c4f565b925060208401359150604084013567ffffffffffffffff80821115611d8957600080fd5b818601915086601f830112611d9d57600080fd5b813581811115611daf57611daf611d31565b604051601f8201601f19908116603f01168101908382118183101715611dd757611dd7611d31565b81604052828152896020848701011115611df057600080fd5b8260208601602083013760006020848301015280955050505050509250925092565b600080600080600080600060e0888a031215611e2d57600080fd5b611e3688611c4f565b9650611e4460208901611c4f565b95506040880135945060608801359350608088013560ff81168114611e6857600080fd5b9699959850939692959460a0840135945060c09093013592915050565b60008060408385031215611e9857600080fd5b611ea183611c4f565b9150611d0d60208401611c4f565b600181811c90821680611ec357607f821691505b60208210810361143157634e487b7160e01b600052602260045260246000fd5b634e487b7160e01b600052601160045260246000fd5b808201808211156104da576104da611ee3565b6020808252602b908201527f496e697469616c697a61626c653a20636f6e7472616374206973206e6f74206960408201526a6e697469616c697a696e6760a81b606082015260800190565b818103818111156104da576104da611ee3565b7f416363657373436f6e74726f6c3a206163636f756e7420000000000000000000815260008351611fa2816017850160208801611bec565b7001034b99036b4b9b9b4b733903937b6329607d1b6017918401918201528351611fd3816028840160208801611bec565b01602801949350505050565b601f8211156105d357600081815260208120601f850160051c810160208610156120065750805b601f850160051c820191505b8181101561202557828155600101612012565b505050505050565b815167ffffffffffffffff81111561204757612047611d31565b61205b816120558454611eaf565b84611fdf565b602080601f83116001811461209057600084156120785750858301515b600019600386901b1c1916600185901b178555612025565b600085815260208120601f198616915b828110156120bf578886015182559484019460019091019084016120a0565b50858210156120dd5787850151600019600388901b60f8161c191681555b5050505050600190811b01905550565b634e487b7160e01b600052602160045260246000fd5b600081600019048311821515161561211d5761211d611ee3565b500290565b634e487b7160e01b600052603260045260246000fd5b60008161214757612147611ee3565b50600019019056fe9f2df0fed2c77648de5860a4cc508cd0818c85b8b8a1ab4ceeef8d981c8956a6a49807205ce4d355092ef5a8a18f56e8913cf4a201fbe287825b095693c21775a2646970667358221220486a6e3253a430c678521f54dbb3d160053351a3caed4c1107736b8b54f4fd0e64736f6c63430008100033",
  "linkReferences": {},
  "deployedLinkReferences": {}
}