{
  "_format": "hh-sol-artifact-1",
  "contractName": "Magic",
  "sourceName": "contracts/upgradeable/ERC20/MAGIC/Magic.sol",
  "abi": [
    {
      "inputs": [],
      "stateMutability": "nonpayable",
      "type": "constructor"
    },
    {
      "anonymous": false,
      "inputs": [
        {
          "indexed": true,
          "internalType": "address",
          "name": "owner",
          "type": "address"
        },
        {
          "indexed": true,
          "internalType": "address",
          "name": "spender",
          "type": "address"
        },
        {
          "indexed": false,
          "internalType": "uint256",
          "name": "value",
          "type": "uint256"
        }
      ],
      "name": "Approval",
      "type": "event"
    },
    {
      "anonymous": false,
      "inputs": [
        {
          "indexed": false,
          "internalType": "uint8",
          "name": "version",
          "type": "uint8"
        }
      ],
      "name": "Initialized",
      "type": "event"
    },
    {
      "anonymous": false,
      "inputs": [
        {
          "indexed": false,
          "internalType": "address",
          "name": "account",
          "type": "address"
        }
      ],
      "name": "Paused",
      "type": "event"
    },
    {
      "anonymous": false,
      "inputs": [
        {
          "indexed": true,
          "internalType": "bytes32",
          "name": "role",
          "type": "bytes32"
        },
        {
          "indexed": true,
          "internalType": "bytes32",
          "name": "previousAdminRole",
          "type": "bytes32"
        },
        {
          "indexed": true,
          "internalType": "bytes32",
          "name": "newAdminRole",
          "type": "bytes32"
        }
      ],
      "name": "RoleAdminChanged",
      "type": "event"
    },
    {
      "anonymous": false,
      "inputs": [
        {
          "indexed": true,
          "internalType": "bytes32",
          "name": "role",
          "type": "bytes32"
        },
        {
          "indexed": true,
          "internalType": "address",
          "name": "account",
          "type": "address"
        },
        {
          "indexed": true,
          "internalType": "address",
          "name": "sender",
          "type": "address"
        }
      ],
      "name": "RoleGranted",
      "type": "event"
    },
    {
      "anonymous": false,
      "inputs": [
        {
          "indexed": true,
          "internalType": "bytes32",
          "name": "role",
          "type": "bytes32"
        },
        {
          "indexed": true,
          "internalType": "address",
          "name": "account",
          "type": "address"
        },
        {
          "indexed": true,
          "internalType": "address",
          "name": "sender",
          "type": "address"
        }
      ],
      "name": "RoleRevoked",
      "type": "event"
    },
    {
      "anonymous": false,
      "inputs": [
        {
          "indexed": true,
          "internalType": "address",
          "name": "from",
          "type": "address"
        },
        {
          "indexed": true,
          "internalType": "address",
          "name": "to",
          "type": "address"
        },
        {
          "indexed": false,
          "internalType": "uint256",
          "name": "value",
          "type": "uint256"
        }
      ],
      "name": "Transfer",
      "type": "event"
    },
    {
      "anonymous": false,
      "inputs": [
        {
          "indexed": false,
          "internalType": "address",
          "name": "account",
          "type": "address"
        }
      ],
      "name": "Unpaused",
      "type": "event"
    },
    {
      "inputs": [],
      "name": "ADMIN_ROLE",
      "outputs": [
        {
          "internalType": "bytes32",
          "name": "",
          "type": "bytes32"
        }
      ],
      "stateMutability": "view",
      "type": "function"
    },
    {
      "inputs": [],
      "name": "DEFAULT_ADMIN_ROLE",
      "outputs": [
        {
          "internalType": "bytes32",
          "name": "",
          "type": "bytes32"
        }
      ],
      "stateMutability": "view",
      "type": "function"
    },
    {
      "inputs": [],
      "name": "DOMAIN_SEPARATOR",
      "outputs": [
        {
          "internalType": "bytes32",
          "name": "",
          "type": "bytes32"
        }
      ],
      "stateMutability": "view",
      "type": "function"
    },
    {
      "inputs": [],
      "name": "MINTER_ROLE",
      "outputs": [
        {
          "internalType": "bytes32",
          "name": "",
          "type": "bytes32"
        }
      ],
      "stateMutability": "view",
      "type": "function"
    },
    {
      "inputs": [
        {
          "internalType": "address",
          "name": "owner",
          "type": "address"
        },
        {
          "internalType": "address",
          "name": "spender",
          "type": "address"
        }
      ],
      "name": "allowance",
      "outputs": [
        {
          "internalType": "uint256",
          "name": "",
          "type": "uint256"
        }
      ],
      "stateMutability": "view",
      "type": "function"
    },
    {
      "inputs": [
        {
          "internalType": "address",
          "name": "spender",
          "type": "address"
        },
        {
          "internalType": "uint256",
          "name": "amount",
          "type": "uint256"
        }
      ],
      "name": "approve",
      "outputs": [
        {
          "internalType": "bool",
          "name": "",
          "type": "bool"
        }
      ],
      "stateMutability": "nonpayable",
      "type": "function"
    },
    {
      "inputs": [
        {
          "internalType": "address",
          "name": "account",
          "type": "address"
        }
      ],
      "name": "balanceOf",
      "outputs": [
        {
          "internalType": "uint256",
          "name": "",
          "type": "uint256"
        }
      ],
      "stateMutability": "view",
      "type": "function"
    },
    {
      "inputs": [],
      "name": "bridgeContract",
      "outputs": [
        {
          "internalType": "address",
          "name": "",
          "type": "address"
        }
      ],
      "stateMutability": "view",
      "type": "function"
    },
    {
      "inputs": [],
      "name": "bridgeExtraData",
      "outputs": [
        {
          "internalType": "bytes",
          "name": "",
          "type": "bytes"
        }
      ],
      "stateMutability": "pure",
      "type": "function"
    },
    {
      "inputs": [
        {
          "internalType": "uint256",
          "name": "amount",
          "type": "uint256"
        }
      ],
      "name": "burn",
      "outputs": [],
      "stateMutability": "nonpayable",
      "type": "function"
    },
    {
      "inputs": [
        {
          "internalType": "address",
          "name": "to",
          "type": "address"
        },
        {
          "internalType": "uint256",
          "name": "amount",
          "type": "uint256"
        }
      ],
      "name": "burn",
      "outputs": [],
      "stateMutability": "nonpayable",
      "type": "function"
    },
    {
      "inputs": [
        {
          "internalType": "address",
          "name": "account",
          "type": "address"
        },
        {
          "internalType": "uint256",
          "name": "amount",
          "type": "uint256"
        }
      ],
      "name": "burnFrom",
      "outputs": [],
      "stateMutability": "nonpayable",
      "type": "function"
    },
    {
      "inputs": [],
      "name": "cap",
      "outputs": [
        {
          "internalType": "uint256",
          "name": "",
          "type": "uint256"
        }
      ],
      "stateMutability": "view",
      "type": "function"
    },
    {
      "inputs": [],
      "name": "decimals",
      "outputs": [
        {
          "internalType": "uint8",
          "name": "",
          "type": "uint8"
        }
      ],
      "stateMutability": "view",
      "type": "function"
    },
    {
      "inputs": [
        {
          "internalType": "address",
          "name": "spender",
          "type": "address"
        },
        {
          "internalType": "uint256",
          "name": "subtractedValue",
          "type": "uint256"
        }
      ],
      "name": "decreaseAllowance",
      "outputs": [
        {
          "internalType": "bool",
          "name": "",
          "type": "bool"
        }
      ],
      "stateMutability": "nonpayable",
      "type": "function"
    },
    {
      "inputs": [
        {
          "internalType": "bytes32",
          "name": "role",
          "type": "bytes32"
        }
      ],
      "name": "getRoleAdmin",
      "outputs": [
        {
          "internalType": "bytes32",
          "name": "",
          "type": "bytes32"
        }
      ],
      "stateMutability": "view",
      "type": "function"
    },
    {
      "inputs": [
        {
          "internalType": "bytes32",
          "name": "role",
          "type": "bytes32"
        },
        {
          "internalType": "address",
          "name": "account",
          "type": "address"
        }
      ],
      "name": "grantRole",
      "outputs": [],
      "stateMutability": "nonpayable",
      "type": "function"
    },
    {
      "inputs": [
        {
          "internalType": "bytes32",
          "name": "role",
          "type": "bytes32"
        },
        {
          "internalType": "address",
          "name": "account",
          "type": "address"
        }
      ],
      "name": "hasRole",
      "outputs": [
        {
          "internalType": "bool",
          "name": "",
          "type": "bool"
        }
      ],
      "stateMutability": "view",
      "type": "function"
    },
    {
      "inputs": [
        {
          "internalType": "address",
          "name": "spender",
          "type": "address"
        },
        {
          "internalType": "uint256",
          "name": "addedValue",
          "type": "uint256"
        }
      ],
      "name": "increaseAllowance",
      "outputs": [
        {
          "internalType": "bool",
          "name": "",
          "type": "bool"
        }
      ],
      "stateMutability": "nonpayable",
      "type": "function"
    },
    {
      "inputs": [],
      "name": "initialize",
      "outputs": [],
      "stateMutability": "nonpayable",
      "type": "function"
    },
    {
      "inputs": [
        {
          "internalType": "address",
          "name": "account",
          "type": "address"
        },
        {
          "internalType": "uint256",
          "name": "amount",
          "type": "uint256"
        }
      ],
      "name": "mint",
      "outputs": [],
      "stateMutability": "nonpayable",
      "type": "function"
    },
    {
      "inputs": [
        {
          "internalType": "address",
          "name": "account",
          "type": "address"
        },
        {
          "internalType": "uint256",
          "name": "amount",
          "type": "uint256"
        },
        {
          "internalType": "bytes",
          "name": "",
          "type": "bytes"
        }
      ],
      "name": "mint",
      "outputs": [],
      "stateMutability": "nonpayable",
      "type": "function"
    },
    {
      "inputs": [],
      "name": "name",
      "outputs": [
        {
          "internalType": "string",
          "name": "",
          "type": "string"
        }
      ],
      "stateMutability": "view",
      "type": "function"
    },
    {
      "inputs": [
        {
          "internalType": "address",
          "name": "owner",
          "type": "address"
        }
      ],
      "name": "nonces",
      "outputs": [
        {
          "internalType": "uint256",
          "name": "",
          "type": "uint256"
        }
      ],
      "stateMutability": "view",
      "type": "function"
    },
    {
      "inputs": [],
      "name": "pause",
      "outputs": [],
      "stateMutability": "nonpayable",
      "type": "function"
    },
    {
      "inputs": [],
      "name": "paused",
      "outputs": [
        {
          "internalType": "bool",
          "name": "",
          "type": "bool"
        }
      ],
      "stateMutability": "view",
      "type": "function"
    },
    {
      "inputs": [
        {
          "internalType": "address",
          "name": "owner",
          "type": "address"
        },
        {
          "internalType": "address",
          "name": "spender",
          "type": "address"
        },
        {
          "internalType": "uint256",
          "name": "value",
          "type": "uint256"
        },
        {
          "internalType": "uint256",
          "name": "deadline",
          "type": "uint256"
        },
        {
          "internalType": "uint8",
          "name": "v",
          "type": "uint8"
        },
        {
          "internalType": "bytes32",
          "name": "r",
          "type": "bytes32"
        },
        {
          "internalType": "bytes32",
          "name": "s",
          "type": "bytes32"
        }
      ],
      "name": "permit",
      "outputs": [],
      "stateMutability": "nonpayable",
      "type": "function"
    },
    {
      "inputs": [
        {
          "internalType": "bytes32",
          "name": "role",
          "type": "bytes32"
        },
        {
          "internalType": "address",
          "name": "account",
          "type": "address"
        }
      ],
      "name": "renounceRole",
      "outputs": [],
      "stateMutability": "nonpayable",
      "type": "function"
    },
    {
      "inputs": [
        {
          "internalType": "bytes32",
          "name": "role",
          "type": "bytes32"
        },
        {
          "internalType": "address",
          "name": "account",
          "type": "address"
        }
      ],
      "name": "revokeRole",
      "outputs": [],
      "stateMutability": "nonpayable",
      "type": "function"
    },
    {
      "inputs": [
        {
          "internalType": "address",
          "name": "_address",
          "type": "address"
        }
      ],
      "name": "setBridgeContract",
      "outputs": [],
      "stateMutability": "nonpayable",
      "type": "function"
    },
    {
      "inputs": [
        {
          "internalType": "bytes4",
          "name": "interfaceId",
          "type": "bytes4"
        }
      ],
      "name": "supportsInterface",
      "outputs": [
        {
          "internalType": "bool",
          "name": "",
          "type": "bool"
        }
      ],
      "stateMutability": "view",
      "type": "function"
    },
    {
      "inputs": [],
      "name": "symbol",
      "outputs": [
        {
          "internalType": "string",
          "name": "",
          "type": "string"
        }
      ],
      "stateMutability": "view",
      "type": "function"
    },
    {
      "inputs": [],
      "name": "totalBurned",
      "outputs": [
        {
          "internalType": "uint256",
          "name": "",
          "type": "uint256"
        }
      ],
      "stateMutability": "view",
      "type": "function"
    },
    {
      "inputs": [],
      "name": "totalSupply",
      "outputs": [
        {
          "internalType": "uint256",
          "name": "",
          "type": "uint256"
        }
      ],
      "stateMutability": "view",
      "type": "function"
    },
    {
      "inputs": [
        {
          "internalType": "address",
          "name": "to",
          "type": "address"
        },
        {
          "internalType": "uint256",
          "name": "amount",
          "type": "uint256"
        }
      ],
      "name": "transfer",
      "outputs": [
        {
          "internalType": "bool",
          "name": "",
          "type": "bool"
        }
      ],
      "stateMutability": "nonpayable",
      "type": "function"
    },
    {
      "inputs": [
        {
          "internalType": "address",
          "name": "from",
          "type": "address"
        },
        {
          "internalType": "address",
          "name": "to",
          "type": "address"
        },
        {
          "internalType": "uint256",
          "name": "amount",
          "type": "uint256"
        }
      ],
      "name": "transferFrom",
      "outputs": [
        {
          "internalType": "bool",
          "name": "",
          "type": "bool"
        }
      ],
      "stateMutability": "nonpayable",
      "type": "function"
    },
    {
      "inputs": [],
      "name": "unpause",
      "outputs": [],
      "stateMutability": "nonpayable",
      "type": "function"
    }
  ],
  "bytecode": "0x608060405234801561001057600080fd5b5061001961001e565b6100de565b600054610100900460ff161561008a5760405162461bcd60e51b815260206004820152602760248201527f496e697469616c697a61626c653a20636f6e747261637420697320696e697469604482015266616c697a696e6760c81b606482015260840160405180910390fd5b60005460ff90811610156100dc576000805460ff191660ff9081179091556040519081527f7f26b83ff96e1f2b6a682f133852f6798a09c465da95921460cefb38474024989060200160405180910390a15b565b61229080620000ee6000396000f3fe608060405234801561001057600080fd5b50600436106102275760003560e01c806375b238fc116101305780639dc29fac116100b8578063d505accf1161007c578063d505accf1461048e578063d5391393146104a1578063d547741f146104b6578063d89135cd146104c9578063dd62ed3e146104d257600080fd5b80639dc29fac14610421578063a217fddf14610434578063a457c2d71461043c578063a9059cbb1461044f578063cd5965831461046257600080fd5b80638129fc1c116100ff5780638129fc1c146103e35780638456cb59146103eb57806391d14854146103f357806394d008ef1461040657806395d89b411461041957600080fd5b806375b238fc1461039457806379cc6790146103a95780637b3a1286146103bc5780637ecebe00146103d057600080fd5b8063355274ea116101b35780633f4ba83a116101825780633f4ba83a1461033257806340c10f191461033a57806342966c681461034d5780635c975abb1461036057806370a082311461036b57600080fd5b8063355274ea146102fb5780633644e5151461030457806336568abe1461030c578063395093511461031f57600080fd5b806318160ddd116101fa57806318160ddd1461029157806323b872dd146102a3578063248a9ca3146102b65780632f2ff15d146102d9578063313ce567146102ec57600080fd5b806301ffc9a71461022c57806306fdde0314610254578063095ea7b3146102695780630b26cf661461027c575b600080fd5b61023f61023a366004611c95565b6104e5565b60405190151581526020015b60405180910390f35b61025c610510565b60405161024b9190611d0f565b61023f610277366004611d3e565b6105a2565b61028f61028a366004611d68565b6105ba565b005b6035545b60405190815260200161024b565b61023f6102b1366004611d83565b61060a565b6102956102c4366004611dbf565b600090815260c9602052604090206001015490565b61028f6102e7366004611dd8565b61062e565b6040516012815260200161024b565b61016254610295565b610295610658565b61028f61031a366004611dd8565b610667565b61023f61032d366004611d3e565b6106e6565b61028f610708565b61028f610348366004611d3e565b61072b565b61028f61035b366004611dbf565b61074d565b60655460ff1661023f565b610295610379366004611d68565b6001600160a01b031660009081526033602052604090205490565b61029560008051602061223b83398151915281565b61028f6103b7366004611d3e565b610756565b60408051602081019091526000815261025c565b6102956103de366004611d68565b610784565b61028f6107a3565b61028f61097c565b61023f610401366004611dd8565b61099c565b61028f610414366004611e1a565b6109c7565b61025c6109f8565b61028f61042f366004611d3e565b610a07565b610295600081565b61023f61044a366004611d3e565b610a29565b61023f61045d366004611d3e565b610aa4565b6101f854610476906001600160a01b031681565b6040516001600160a01b03909116815260200161024b565b61028f61049c366004611ee5565b610ab2565b61029560008051602061221b83398151915281565b61028f6104c4366004611dd8565b610c16565b61019554610295565b6102956104e0366004611f58565b610c3b565b60006001600160e01b031982166303112fcb60e61b148061050a575061050a82610c66565b92915050565b60606036805461051f90611f82565b80601f016020809104026020016040519081016040528092919081815260200182805461054b90611f82565b80156105985780601f1061056d57610100808354040283529160200191610598565b820191906000526020600020905b81548152906001019060200180831161057b57829003601f168201915b5050505050905090565b6000336105b0818585610c9b565b5060019392505050565b60008051602061223b8339815191526105d281610dbf565b6101f880546001600160a01b0319166001600160a01b03841617905561060660008051602061221b83398151915283610dc9565b5050565b600033610618858285610e4f565b610623858585610ec3565b506001949350505050565b600082815260c9602052604090206001015461064981610dbf565b6106538383610dc9565b505050565b6000610662611079565b905090565b6001600160a01b03811633146106dc5760405162461bcd60e51b815260206004820152602f60248201527f416363657373436f6e74726f6c3a2063616e206f6e6c792072656e6f756e636560448201526e103937b632b9903337b91039b2b63360891b60648201526084015b60405180910390fd5b61060682826110f4565b6000336105b08185856106f98383610c3b565b6107039190611fcc565b610c9b565b60008051602061223b83398151915261072081610dbf565b61072861115b565b50565b60008051602061221b83398151915261074381610dbf565b61065383836111ad565b61072881611227565b610761823383610e4f565b8061019560008282546107749190611fcc565b9091555061060690508282611246565b6001600160a01b038116600090815261012f602052604081205461050a565b600054610100900460ff16158080156107c35750600054600160ff909116105b806107dd5750303b1580156107dd575060005460ff166001145b6108405760405162461bcd60e51b815260206004820152602e60248201527f496e697469616c697a61626c653a20636f6e747261637420697320616c72656160448201526d191e481a5b9a5d1a585b1a5e995960921b60648201526084016106d3565b6000805460ff191660011790558015610863576000805461ff0019166101001790555b6108a7604051806040016040528060058152602001644d6167696360d81b815250604051806040016040528060058152602001644d4147494360d81b815250611386565b6108af6113b7565b6108b76113e8565b6108dd604051806040016040528060058152602001644d6167696360d81b81525061140f565b6108f16a52b7d2dcc80cd2e4000000611459565b6108f96113e8565b610904600033610dc9565b61091c60008051602061223b83398151915233610dc9565b61093460008051602061221b83398151915233610dc9565b8015610728576000805461ff0019169055604051600181527f7f26b83ff96e1f2b6a682f133852f6798a09c465da95921460cefb38474024989060200160405180910390a150565b60008051602061223b83398151915261099481610dbf565b610728611489565b600091825260c9602090815260408084206001600160a01b0393909316845291905290205460ff1690565b60008051602061221b8339815191526109df81610dbf565b6109e984846111ad565b6109f2836114c6565b50505050565b60606037805461051f90611f82565b60008051602061221b833981519152610a1f81610dbf565b6106538383610756565b60003381610a378286610c3b565b905083811015610a975760405162461bcd60e51b815260206004820152602560248201527f45524332303a2064656372656173656420616c6c6f77616e63652062656c6f77604482015264207a65726f60d81b60648201526084016106d3565b6106238286868403610c9b565b6000336105b0818585610ec3565b83421115610b025760405162461bcd60e51b815260206004820152601d60248201527f45524332305065726d69743a206578706972656420646561646c696e6500000060448201526064016106d3565b60007f6e71edae12b1b97f4d1f60370fef10105fa2faae0126114a169c64845d6126c9888888610b318c6114e1565b6040805160208101969096526001600160a01b0394851690860152929091166060840152608083015260a082015260c0810186905260e0016040516020818303038152906040528051906020012090506000610b8c8261150a565b90506000610b9c82878787611558565b9050896001600160a01b0316816001600160a01b031614610bff5760405162461bcd60e51b815260206004820152601e60248201527f45524332305065726d69743a20696e76616c6964207369676e6174757265000060448201526064016106d3565b610c0a8a8a8a610c9b565b50505050505050505050565b600082815260c96020526040902060010154610c3181610dbf565b61065383836110f4565b6001600160a01b03918216600090815260346020908152604080832093909416825291909152205490565b60006001600160e01b03198216637965db0b60e01b148061050a57506301ffc9a760e01b6001600160e01b031983161461050a565b6001600160a01b038316610cfd5760405162461bcd60e51b8152602060048201526024808201527f45524332303a20617070726f76652066726f6d20746865207a65726f206164646044820152637265737360e01b60648201526084016106d3565b6001600160a01b038216610d5e5760405162461bcd60e51b815260206004820152602260248201527f45524332303a20617070726f766520746f20746865207a65726f206164647265604482015261737360f01b60648201526084016106d3565b6001600160a01b0383811660008181526034602090815260408083209487168084529482529182902085905590518481527f8c5be1e5ebec7d5bd14f71427d1e84f3dd0314c0f7b2291e5b200ac8c7c3b925910160405180910390a3505050565b6107288133611580565b610dd3828261099c565b61060657600082815260c9602090815260408083206001600160a01b03851684529091529020805460ff19166001179055610e0b3390565b6001600160a01b0316816001600160a01b0316837f2f8788117e7eff1d82e926ec794901d17c78024a50270940304540a733656f0d60405160405180910390a45050565b6000610e5b8484610c3b565b905060001981146109f25781811015610eb65760405162461bcd60e51b815260206004820152601d60248201527f45524332303a20696e73756666696369656e7420616c6c6f77616e636500000060448201526064016106d3565b6109f28484848403610c9b565b6001600160a01b038316610f275760405162461bcd60e51b815260206004820152602560248201527f45524332303a207472616e736665722066726f6d20746865207a65726f206164604482015264647265737360d81b60648201526084016106d3565b6001600160a01b038216610f895760405162461bcd60e51b815260206004820152602360248201527f45524332303a207472616e7366657220746f20746865207a65726f206164647260448201526265737360e81b60648201526084016106d3565b610f948383836115d9565b6001600160a01b0383166000908152603360205260409020548181101561100c5760405162461bcd60e51b815260206004820152602660248201527f45524332303a207472616e7366657220616d6f756e7420657863656564732062604482015265616c616e636560d01b60648201526084016106d3565b6001600160a01b0380851660008181526033602052604080822086860390559286168082529083902080548601905591517fddf252ad1be2c89b69c2b068fc378daa952ba7f163c4a11628f55a4df523b3ef9061106c9086815260200190565b60405180910390a36109f2565b60006106627f8b73c3c69bb8fe3d512ecc4cf759cc79239f7b179b0ffacaa9a75d522b39400f6110a860fb5490565b60fc546040805160208101859052908101839052606081018290524660808201523060a082015260009060c0016040516020818303038152906040528051906020012090509392505050565b6110fe828261099c565b1561060657600082815260c9602090815260408083206001600160a01b0385168085529252808320805460ff1916905551339285917ff6391f5c32d9c69d2a47ea670b442974b53935d1edc7fd64eb21e047a839171b9190a45050565b6111636115e1565b6065805460ff191690557f5db9ee0a495bf2e6ff9c91a7834c1ba4fdd244a5e8aa4e537bd38aeae4b073aa335b6040516001600160a01b03909116815260200160405180910390a1565b61016254816111bc6101955490565b6035546111c99190611fcc565b6111d39190611fcc565b111561121d5760405162461bcd60e51b8152602060048201526019602482015278115490cc8c10d85c1c19590e8818d85c08195e18d959591959603a1b60448201526064016106d3565b610606828261162a565b80610195600082825461123a9190611fcc565b90915550610728905033825b6001600160a01b0382166112a65760405162461bcd60e51b815260206004820152602160248201527f45524332303a206275726e2066726f6d20746865207a65726f206164647265736044820152607360f81b60648201526084016106d3565b6112b2826000836115d9565b6001600160a01b038216600090815260336020526040902054818110156113265760405162461bcd60e51b815260206004820152602260248201527f45524332303a206275726e20616d6f756e7420657863656564732062616c616e604482015261636560f01b60648201526084016106d3565b6001600160a01b03831660008181526033602090815260408083208686039055603580548790039055518581529192917fddf252ad1be2c89b69c2b068fc378daa952ba7f163c4a11628f55a4df523b3ef910160405180910390a3505050565b600054610100900460ff166113ad5760405162461bcd60e51b81526004016106d390611fdf565b6106068282611696565b600054610100900460ff166113de5760405162461bcd60e51b81526004016106d390611fdf565b6113e66116d6565b565b600054610100900460ff166113e65760405162461bcd60e51b81526004016106d390611fdf565b600054610100900460ff166114365760405162461bcd60e51b81526004016106d390611fdf565b61072881604051806040016040528060018152602001603160f81b815250611709565b600054610100900460ff166114805760405162461bcd60e51b81526004016106d390611fdf565b6107288161174a565b6114916117bf565b6065805460ff191660011790557f62e78cea01bee320cd4e420270b5ea74000d11b0c9f74754ebdbfc544b05a2586111903390565b8061019560008282546114d9919061202a565b909155505050565b6001600160a01b038116600090815261012f602052604090208054600181018255905b50919050565b600061050a611517611079565b8360405161190160f01b6020820152602281018390526042810182905260009060620160405160208183030381529060405280519060200120905092915050565b600080600061156987878787611805565b91509150611576816118c9565b5095945050505050565b61158a828261099c565b6106065761159781611a13565b6115a2836020611a25565b6040516020016115b392919061203d565b60408051601f198184030181529082905262461bcd60e51b82526106d391600401611d0f565b6106536117bf565b60655460ff166113e65760405162461bcd60e51b815260206004820152601460248201527314185d5cd8589b194e881b9bdd081c185d5cd95960621b60448201526064016106d3565b610162548161163860355490565b6116429190611fcc565b111561168c5760405162461bcd60e51b8152602060048201526019602482015278115490cc8c10d85c1c19590e8818d85c08195e18d959591959603a1b60448201526064016106d3565b6106068282611bc8565b600054610100900460ff166116bd5760405162461bcd60e51b81526004016106d390611fdf565b60366116c98382612100565b5060376106538282612100565b600054610100900460ff166116fd5760405162461bcd60e51b81526004016106d390611fdf565b6065805460ff19169055565b600054610100900460ff166117305760405162461bcd60e51b81526004016106d390611fdf565b81516020928301208151919092012060fb9190915560fc55565b600054610100900460ff166117715760405162461bcd60e51b81526004016106d390611fdf565b600081116117b95760405162461bcd60e51b8152602060048201526015602482015274045524332304361707065643a20636170206973203605c1b60448201526064016106d3565b61016255565b60655460ff16156113e65760405162461bcd60e51b815260206004820152601060248201526f14185d5cd8589b194e881c185d5cd95960821b60448201526064016106d3565b6000807f7fffffffffffffffffffffffffffffff5d576e7357a4501ddfe92f46681b20a083111561183c57506000905060036118c0565b6040805160008082526020820180845289905260ff881692820192909252606081018690526080810185905260019060a0016020604051602081039080840390855afa158015611890573d6000803e3d6000fd5b5050604051601f1901519150506001600160a01b0381166118b9576000600192509250506118c0565b9150600090505b94509492505050565b60008160048111156118dd576118dd6121c0565b036118e55750565b60018160048111156118f9576118f96121c0565b036119465760405162461bcd60e51b815260206004820152601860248201527f45434453413a20696e76616c6964207369676e6174757265000000000000000060448201526064016106d3565b600281600481111561195a5761195a6121c0565b036119a75760405162461bcd60e51b815260206004820152601f60248201527f45434453413a20696e76616c6964207369676e6174757265206c656e6774680060448201526064016106d3565b60038160048111156119bb576119bb6121c0565b036107285760405162461bcd60e51b815260206004820152602260248201527f45434453413a20696e76616c6964207369676e6174757265202773272076616c604482015261756560f01b60648201526084016106d3565b606061050a6001600160a01b03831660145b60606000611a348360026121d6565b611a3f906002611fcc565b67ffffffffffffffff811115611a5757611a57611e04565b6040519080825280601f01601f191660200182016040528015611a81576020820181803683370190505b509050600360fc1b81600081518110611a9c57611a9c6121ed565b60200101906001600160f81b031916908160001a905350600f60fb1b81600181518110611acb57611acb6121ed565b60200101906001600160f81b031916908160001a9053506000611aef8460026121d6565b611afa906001611fcc565b90505b6001811115611b72576f181899199a1a9b1b9c1cb0b131b232b360811b85600f1660108110611b2e57611b2e6121ed565b1a60f81b828281518110611b4457611b446121ed565b60200101906001600160f81b031916908160001a90535060049490941c93611b6b81612203565b9050611afd565b508315611bc15760405162461bcd60e51b815260206004820181905260248201527f537472696e67733a20686578206c656e67746820696e73756666696369656e7460448201526064016106d3565b9392505050565b6001600160a01b038216611c1e5760405162461bcd60e51b815260206004820152601f60248201527f45524332303a206d696e7420746f20746865207a65726f20616464726573730060448201526064016106d3565b611c2a600083836115d9565b8060356000828254611c3c9190611fcc565b90915550506001600160a01b0382166000818152603360209081526040808320805486019055518481527fddf252ad1be2c89b69c2b068fc378daa952ba7f163c4a11628f55a4df523b3ef910160405180910390a35050565b600060208284031215611ca757600080fd5b81356001600160e01b031981168114611bc157600080fd5b60005b83811015611cda578181015183820152602001611cc2565b50506000910152565b60008151808452611cfb816020860160208601611cbf565b601f01601f19169290920160200192915050565b602081526000611bc16020830184611ce3565b80356001600160a01b0381168114611d3957600080fd5b919050565b60008060408385031215611d5157600080fd5b611d5a83611d22565b946020939093013593505050565b600060208284031215611d7a57600080fd5b611bc182611d22565b600080600060608486031215611d9857600080fd5b611da184611d22565b9250611daf60208501611d22565b9150604084013590509250925092565b600060208284031215611dd157600080fd5b5035919050565b60008060408385031215611deb57600080fd5b82359150611dfb60208401611d22565b90509250929050565b634e487b7160e01b600052604160045260246000fd5b600080600060608486031215611e2f57600080fd5b611e3884611d22565b925060208401359150604084013567ffffffffffffffff80821115611e5c57600080fd5b818601915086601f830112611e7057600080fd5b813581811115611e8257611e82611e04565b604051601f8201601f19908116603f01168101908382118183101715611eaa57611eaa611e04565b81604052828152896020848701011115611ec357600080fd5b8260208601602083013760006020848301015280955050505050509250925092565b600080600080600080600060e0888a031215611f0057600080fd5b611f0988611d22565b9650611f1760208901611d22565b95506040880135945060608801359350608088013560ff81168114611f3b57600080fd5b9699959850939692959460a0840135945060c09093013592915050565b60008060408385031215611f6b57600080fd5b611f7483611d22565b9150611dfb60208401611d22565b600181811c90821680611f9657607f821691505b60208210810361150457634e487b7160e01b600052602260045260246000fd5b634e487b7160e01b600052601160045260246000fd5b8082018082111561050a5761050a611fb6565b6020808252602b908201527f496e697469616c697a61626c653a20636f6e7472616374206973206e6f74206960408201526a6e697469616c697a696e6760a81b606082015260800190565b8181038181111561050a5761050a611fb6565b7f416363657373436f6e74726f6c3a206163636f756e7420000000000000000000815260008351612075816017850160208801611cbf565b7001034b99036b4b9b9b4b733903937b6329607d1b60179184019182015283516120a6816028840160208801611cbf565b01602801949350505050565b601f82111561065357600081815260208120601f850160051c810160208610156120d95750805b601f850160051c820191505b818110156120f8578281556001016120e5565b505050505050565b815167ffffffffffffffff81111561211a5761211a611e04565b61212e816121288454611f82565b846120b2565b602080601f831160018114612163576000841561214b5750858301515b600019600386901b1c1916600185901b1785556120f8565b600085815260208120601f198616915b8281101561219257888601518255948401946001909101908401612173565b50858210156121b05787850151600019600388901b60f8161c191681555b5050505050600190811b01905550565b634e487b7160e01b600052602160045260246000fd5b808202811582820484141761050a5761050a611fb6565b634e487b7160e01b600052603260045260246000fd5b60008161221257612212611fb6565b50600019019056fe9f2df0fed2c77648de5860a4cc508cd0818c85b8b8a1ab4ceeef8d981c8956a6a49807205ce4d355092ef5a8a18f56e8913cf4a201fbe287825b095693c21775a2646970667358221220c8d8125949e150289dcb83f95e006ce72af7f86ab32ffc72dffc98e4d478f57464736f6c63430008110033",
  "linkReferences": {},
  "deployedLinkReferences": {}
}