{
  "_format": "hh-sol-artifact-1",
  "contractName": "ProfessionStakingUpgradeable",
  "sourceName": "contracts/upgradeable/npc/ProfessionStakingUpgradeable.sol",
  "abi": [
    {
      "inputs": [],
      "stateMutability": "nonpayable",
      "type": "constructor"
    },
    {
      "anonymous": false,
      "inputs": [
        {
          "indexed": true,
          "internalType": "address",
          "name": "by",
          "type": "address"
        },
        {
          "indexed": true,
          "internalType": "address",
          "name": "token",
          "type": "address"
        },
        {
          "indexed": false,
          "internalType": "uint256",
          "name": "amount",
          "type": "uint256"
        }
      ],
      "name": "Claimed",
      "type": "event"
    },
    {
      "anonymous": false,
      "inputs": [
        {
          "indexed": false,
          "internalType": "uint8",
          "name": "version",
          "type": "uint8"
        }
      ],
      "name": "Initialized",
      "type": "event"
    },
    {
      "anonymous": false,
      "inputs": [
        {
          "indexed": false,
          "internalType": "address",
          "name": "account",
          "type": "address"
        }
      ],
      "name": "Paused",
      "type": "event"
    },
    {
      "anonymous": false,
      "inputs": [
        {
          "indexed": true,
          "internalType": "address",
          "name": "from",
          "type": "address"
        },
        {
          "indexed": true,
          "internalType": "address",
          "name": "token",
          "type": "address"
        },
        {
          "indexed": false,
          "internalType": "uint256",
          "name": "amount",
          "type": "uint256"
        }
      ],
      "name": "PoolRewardsDeposited",
      "type": "event"
    },
    {
      "anonymous": false,
      "inputs": [
        {
          "indexed": true,
          "internalType": "address",
          "name": "by",
          "type": "address"
        },
        {
          "indexed": true,
          "internalType": "address",
          "name": "to",
          "type": "address"
        },
        {
          "indexed": true,
          "internalType": "address",
          "name": "token",
          "type": "address"
        },
        {
          "indexed": false,
          "internalType": "uint256",
          "name": "amount",
          "type": "uint256"
        }
      ],
      "name": "PoolRewardsWithdrawn",
      "type": "event"
    },
    {
      "anonymous": false,
      "inputs": [
        {
          "indexed": true,
          "internalType": "bytes32",
          "name": "role",
          "type": "bytes32"
        },
        {
          "indexed": true,
          "internalType": "bytes32",
          "name": "previousAdminRole",
          "type": "bytes32"
        },
        {
          "indexed": true,
          "internalType": "bytes32",
          "name": "newAdminRole",
          "type": "bytes32"
        }
      ],
      "name": "RoleAdminChanged",
      "type": "event"
    },
    {
      "anonymous": false,
      "inputs": [
        {
          "indexed": true,
          "internalType": "bytes32",
          "name": "role",
          "type": "bytes32"
        },
        {
          "indexed": true,
          "internalType": "address",
          "name": "account",
          "type": "address"
        },
        {
          "indexed": true,
          "internalType": "address",
          "name": "sender",
          "type": "address"
        }
      ],
      "name": "RoleGranted",
      "type": "event"
    },
    {
      "anonymous": false,
      "inputs": [
        {
          "indexed": true,
          "internalType": "bytes32",
          "name": "role",
          "type": "bytes32"
        },
        {
          "indexed": true,
          "internalType": "address",
          "name": "account",
          "type": "address"
        },
        {
          "indexed": true,
          "internalType": "address",
          "name": "sender",
          "type": "address"
        }
      ],
      "name": "RoleRevoked",
      "type": "event"
    },
    {
      "anonymous": false,
      "inputs": [
        {
          "indexed": true,
          "internalType": "address",
          "name": "from",
          "type": "address"
        },
        {
          "indexed": true,
          "internalType": "address",
          "name": "nftAddress",
          "type": "address"
        },
        {
          "indexed": false,
          "internalType": "uint256",
          "name": "tokenId",
          "type": "uint256"
        }
      ],
      "name": "Staked",
      "type": "event"
    },
    {
      "anonymous": false,
      "inputs": [
        {
          "indexed": true,
          "internalType": "address",
          "name": "nftAddress",
          "type": "address"
        },
        {
          "indexed": false,
          "internalType": "address",
          "name": "rewardToken",
          "type": "address"
        },
        {
          "indexed": false,
          "internalType": "uint256",
          "name": "startTime",
          "type": "uint256"
        }
      ],
      "name": "StakingConfigCreated",
      "type": "event"
    },
    {
      "anonymous": false,
      "inputs": [
        {
          "indexed": true,
          "internalType": "address",
          "name": "nftAddress",
          "type": "address"
        }
      ],
      "name": "StakingConfigDeleted",
      "type": "event"
    },
    {
      "anonymous": false,
      "inputs": [
        {
          "indexed": true,
          "internalType": "address",
          "name": "nftAddress",
          "type": "address"
        },
        {
          "indexed": false,
          "internalType": "address",
          "name": "rewardToken",
          "type": "address"
        },
        {
          "indexed": false,
          "internalType": "uint256",
          "name": "startTime",
          "type": "uint256"
        }
      ],
      "name": "StakingConfigUpdated",
      "type": "event"
    },
    {
      "anonymous": false,
      "inputs": [
        {
          "indexed": true,
          "internalType": "address",
          "name": "by",
          "type": "address"
        },
        {
          "indexed": true,
          "internalType": "address",
          "name": "nftAddress",
          "type": "address"
        },
        {
          "indexed": false,
          "internalType": "uint256",
          "name": "tokenId",
          "type": "uint256"
        }
      ],
      "name": "StakingUnlocked",
      "type": "event"
    },
    {
      "anonymous": false,
      "inputs": [
        {
          "indexed": true,
          "internalType": "address",
          "name": "by",
          "type": "address"
        },
        {
          "indexed": true,
          "internalType": "address",
          "name": "nftAddress",
          "type": "address"
        },
        {
          "indexed": false,
          "internalType": "uint256",
          "name": "tokenId",
          "type": "uint256"
        },
        {
          "indexed": false,
          "internalType": "uint256",
          "name": "treeId",
          "type": "uint256"
        },
        {
          "indexed": false,
          "internalType": "uint256",
          "name": "skillId",
          "type": "uint256"
        },
        {
          "indexed": false,
          "internalType": "uint256",
          "name": "canceledAt",
          "type": "uint256"
        }
      ],
      "name": "TrainingCanceled",
      "type": "event"
    },
    {
      "anonymous": false,
      "inputs": [
        {
          "indexed": true,
          "internalType": "address",
          "name": "by",
          "type": "address"
        },
        {
          "indexed": true,
          "internalType": "address",
          "name": "nftAddress",
          "type": "address"
        },
        {
          "indexed": false,
          "internalType": "uint256",
          "name": "tokenId",
          "type": "uint256"
        },
        {
          "indexed": false,
          "internalType": "uint256",
          "name": "treeId",
          "type": "uint256"
        },
        {
          "indexed": false,
          "internalType": "uint256",
          "name": "skillId",
          "type": "uint256"
        },
        {
          "indexed": false,
          "internalType": "uint256",
          "name": "level",
          "type": "uint256"
        }
      ],
      "name": "TrainingFinished",
      "type": "event"
    },
    {
      "anonymous": false,
      "inputs": [
        {
          "indexed": true,
          "internalType": "address",
          "name": "by",
          "type": "address"
        },
        {
          "indexed": true,
          "internalType": "address",
          "name": "nftAddress",
          "type": "address"
        },
        {
          "indexed": false,
          "internalType": "uint256",
          "name": "tokenId",
          "type": "uint256"
        },
        {
          "indexed": false,
          "internalType": "uint256",
          "name": "treeId",
          "type": "uint256"
        },
        {
          "indexed": false,
          "internalType": "uint256",
          "name": "skillId",
          "type": "uint256"
        },
        {
          "indexed": false,
          "internalType": "uint256",
          "name": "level",
          "type": "uint256"
        },
        {
          "indexed": false,
          "internalType": "uint256",
          "name": "startedAt",
          "type": "uint256"
        },
        {
          "indexed": false,
          "internalType": "uint256",
          "name": "completeAt",
          "type": "uint256"
        }
      ],
      "name": "TrainingStarted",
      "type": "event"
    },
    {
      "anonymous": false,
      "inputs": [
        {
          "indexed": false,
          "internalType": "address",
          "name": "account",
          "type": "address"
        }
      ],
      "name": "Unpaused",
      "type": "event"
    },
    {
      "anonymous": false,
      "inputs": [
        {
          "indexed": true,
          "internalType": "address",
          "name": "from",
          "type": "address"
        },
        {
          "indexed": true,
          "internalType": "address",
          "name": "nftAddress",
          "type": "address"
        },
        {
          "indexed": false,
          "internalType": "uint256",
          "name": "tokenId",
          "type": "uint256"
        }
      ],
      "name": "Unstaked",
      "type": "event"
    },
    {
      "inputs": [],
      "name": "ADMIN_ROLE",
      "outputs": [
        {
          "internalType": "bytes32",
          "name": "",
          "type": "bytes32"
        }
      ],
      "stateMutability": "view",
      "type": "function"
    },
    {
      "inputs": [],
      "name": "DEFAULT_ADMIN_ROLE",
      "outputs": [
        {
          "internalType": "bytes32",
          "name": "",
          "type": "bytes32"
        }
      ],
      "stateMutability": "view",
      "type": "function"
    },
    {
      "inputs": [
        {
          "internalType": "address[]",
          "name": "addresses",
          "type": "address[]"
        },
        {
          "internalType": "uint256[]",
          "name": "tokenIds",
          "type": "uint256[]"
        },
        {
          "internalType": "uint256[]",
          "name": "rewardFrom",
          "type": "uint256[]"
        }
      ],
      "name": "adminBatchUpdateNftData",
      "outputs": [],
      "stateMutability": "nonpayable",
      "type": "function"
    },
    {
      "inputs": [
        {
          "internalType": "address",
          "name": "_address",
          "type": "address"
        },
        {
          "internalType": "uint256",
          "name": "tokenId",
          "type": "uint256"
        },
        {
          "internalType": "uint256",
          "name": "rewardFrom",
          "type": "uint256"
        }
      ],
      "name": "adminUpdateNftData",
      "outputs": [],
      "stateMutability": "nonpayable",
      "type": "function"
    },
    {
      "inputs": [
        {
          "internalType": "address[]",
          "name": "nftAddresses",
          "type": "address[]"
        },
        {
          "internalType": "uint256[]",
          "name": "tokenIds",
          "type": "uint256[]"
        }
      ],
      "name": "batchCancelTraining",
      "outputs": [],
      "stateMutability": "nonpayable",
      "type": "function"
    },
    {
      "inputs": [
        {
          "internalType": "address[]",
          "name": "nftAddresses",
          "type": "address[]"
        },
        {
          "internalType": "uint256[]",
          "name": "tokenIds",
          "type": "uint256[]"
        }
      ],
      "name": "batchEnableStaking",
      "outputs": [],
      "stateMutability": "nonpayable",
      "type": "function"
    },
    {
      "inputs": [
        {
          "internalType": "address[]",
          "name": "nftAddresses",
          "type": "address[]"
        },
        {
          "internalType": "uint256[]",
          "name": "tokenIds",
          "type": "uint256[]"
        }
      ],
      "name": "batchFinishTraining",
      "outputs": [],
      "stateMutability": "nonpayable",
      "type": "function"
    },
    {
      "inputs": [
        {
          "internalType": "address",
          "name": "nftAddress",
          "type": "address"
        },
        {
          "internalType": "uint256[]",
          "name": "level",
          "type": "uint256[]"
        },
        {
          "internalType": "uint256[]",
          "name": "cost",
          "type": "uint256[]"
        },
        {
          "internalType": "uint256[]",
          "name": "time",
          "type": "uint256[]"
        }
      ],
      "name": "batchSetTrainingCosts",
      "outputs": [],
      "stateMutability": "nonpayable",
      "type": "function"
    },
    {
      "inputs": [
        {
          "internalType": "address[]",
          "name": "nftAddresses",
          "type": "address[]"
        },
        {
          "internalType": "uint256[]",
          "name": "tokenIds",
          "type": "uint256[]"
        }
      ],
      "name": "batchStake",
      "outputs": [],
      "stateMutability": "nonpayable",
      "type": "function"
    },
    {
      "inputs": [
        {
          "internalType": "address[]",
          "name": "nftAddresses",
          "type": "address[]"
        },
        {
          "internalType": "uint256[]",
          "name": "tokenIds",
          "type": "uint256[]"
        },
        {
          "internalType": "uint256[]",
          "name": "treeIds",
          "type": "uint256[]"
        },
        {
          "internalType": "uint256[]",
          "name": "skillIds",
          "type": "uint256[]"
        }
      ],
      "name": "batchStartTraining",
      "outputs": [],
      "stateMutability": "nonpayable",
      "type": "function"
    },
    {
      "inputs": [
        {
          "internalType": "address[]",
          "name": "nftAddresses",
          "type": "address[]"
        },
        {
          "internalType": "uint256[]",
          "name": "tokenIds",
          "type": "uint256[]"
        }
      ],
      "name": "batchUnstake",
      "outputs": [],
      "stateMutability": "nonpayable",
      "type": "function"
    },
    {
      "inputs": [
        {
          "internalType": "address",
          "name": "nftAddress",
          "type": "address"
        },
        {
          "internalType": "uint256",
          "name": "tokenId",
          "type": "uint256"
        }
      ],
      "name": "cancelTraining",
      "outputs": [],
      "stateMutability": "nonpayable",
      "type": "function"
    },
    {
      "inputs": [],
      "name": "claim",
      "outputs": [],
      "stateMutability": "nonpayable",
      "type": "function"
    },
    {
      "inputs": [
        {
          "internalType": "address",
          "name": "stakingToken",
          "type": "address"
        },
        {
          "internalType": "address",
          "name": "rewardToken",
          "type": "address"
        },
        {
          "internalType": "uint256",
          "name": "startTime",
          "type": "uint256"
        },
        {
          "internalType": "uint256",
          "name": "maxPointsPerSkill",
          "type": "uint256"
        },
        {
          "internalType": "uint256",
          "name": "treeId",
          "type": "uint256"
        },
        {
          "internalType": "uint256[]",
          "name": "skillIds",
          "type": "uint256[]"
        }
      ],
      "name": "createStakingConfig",
      "outputs": [],
      "stateMutability": "nonpayable",
      "type": "function"
    },
    {
      "inputs": [
        {
          "internalType": "address",
          "name": "nftAddress",
          "type": "address"
        }
      ],
      "name": "deleteStakingConfig",
      "outputs": [],
      "stateMutability": "nonpayable",
      "type": "function"
    },
    {
      "inputs": [
        {
          "internalType": "address",
          "name": "nftAddress",
          "type": "address"
        },
        {
          "internalType": "uint256",
          "name": "tokenId",
          "type": "uint256"
        }
      ],
      "name": "enableStaking",
      "outputs": [],
      "stateMutability": "nonpayable",
      "type": "function"
    },
    {
      "inputs": [
        {
          "internalType": "address",
          "name": "nftAddress",
          "type": "address"
        },
        {
          "internalType": "uint256",
          "name": "tokenId",
          "type": "uint256"
        }
      ],
      "name": "finishTraining",
      "outputs": [],
      "stateMutability": "nonpayable",
      "type": "function"
    },
    {
      "inputs": [
        {
          "internalType": "address",
          "name": "_address",
          "type": "address"
        },
        {
          "internalType": "address",
          "name": "nftAddress",
          "type": "address"
        },
        {
          "internalType": "uint256",
          "name": "tokenId",
          "type": "uint256"
        }
      ],
      "name": "forceCancelTraining",
      "outputs": [],
      "stateMutability": "nonpayable",
      "type": "function"
    },
    {
      "inputs": [],
      "name": "getActiveTraining",
      "outputs": [
        {
          "components": [
            {
              "internalType": "address",
              "name": "_address",
              "type": "address"
            },
            {
              "internalType": "uint256",
              "name": "tokenId",
              "type": "uint256"
            },
            {
              "internalType": "uint256",
              "name": "level",
              "type": "uint256"
            },
            {
              "internalType": "uint256",
              "name": "treeId",
              "type": "uint256"
            },
            {
              "internalType": "uint256",
              "name": "skillId",
              "type": "uint256"
            },
            {
              "internalType": "uint256",
              "name": "startedAt",
              "type": "uint256"
            },
            {
              "internalType": "uint256",
              "name": "completeAt",
              "type": "uint256"
            }
          ],
          "internalType": "struct ProfessionStakingUpgradeable.TrainingStatus[]",
          "name": "",
          "type": "tuple[]"
        }
      ],
      "stateMutability": "view",
      "type": "function"
    },
    {
      "inputs": [
        {
          "internalType": "address",
          "name": "_address",
          "type": "address"
        }
      ],
      "name": "getActiveTrainingOf",
      "outputs": [
        {
          "components": [
            {
              "internalType": "address",
              "name": "_address",
              "type": "address"
            },
            {
              "internalType": "uint256",
              "name": "tokenId",
              "type": "uint256"
            },
            {
              "internalType": "uint256",
              "name": "level",
              "type": "uint256"
            },
            {
              "internalType": "uint256",
              "name": "treeId",
              "type": "uint256"
            },
            {
              "internalType": "uint256",
              "name": "skillId",
              "type": "uint256"
            },
            {
              "internalType": "uint256",
              "name": "startedAt",
              "type": "uint256"
            },
            {
              "internalType": "uint256",
              "name": "completeAt",
              "type": "uint256"
            }
          ],
          "internalType": "struct ProfessionStakingUpgradeable.TrainingStatus[]",
          "name": "",
          "type": "tuple[]"
        }
      ],
      "stateMutability": "view",
      "type": "function"
    },
    {
      "inputs": [],
      "name": "getAllParticipantData",
      "outputs": [
        {
          "internalType": "address[]",
          "name": "addresses",
          "type": "address[]"
        },
        {
          "components": [
            {
              "internalType": "address",
              "name": "_address",
              "type": "address"
            },
            {
              "internalType": "uint256",
              "name": "tokenId",
              "type": "uint256"
            },
            {
              "internalType": "uint256",
              "name": "rewardFrom",
              "type": "uint256"
            }
          ],
          "internalType": "struct ProfessionStakingUpgradeable.NFT[][]",
          "name": "nfts",
          "type": "tuple[][]"
        },
        {
          "internalType": "uint256[]",
          "name": "rewards",
          "type": "uint256[]"
        }
      ],
      "stateMutability": "view",
      "type": "function"
    },
    {
      "inputs": [
        {
          "internalType": "address",
          "name": "nftAddress",
          "type": "address"
        },
        {
          "internalType": "uint256",
          "name": "tokenId",
          "type": "uint256"
        }
      ],
      "name": "getAllowedSkillChoices",
      "outputs": [
        {
          "internalType": "uint256[]",
          "name": "",
          "type": "uint256[]"
        }
      ],
      "stateMutability": "view",
      "type": "function"
    },
    {
      "inputs": [
        {
          "internalType": "bytes32",
          "name": "role",
          "type": "bytes32"
        }
      ],
      "name": "getRoleAdmin",
      "outputs": [
        {
          "internalType": "bytes32",
          "name": "",
          "type": "bytes32"
        }
      ],
      "stateMutability": "view",
      "type": "function"
    },
    {
      "inputs": [],
      "name": "getStaked",
      "outputs": [
        {
          "components": [
            {
              "internalType": "address",
              "name": "_address",
              "type": "address"
            },
            {
              "internalType": "uint256",
              "name": "tokenId",
              "type": "uint256"
            },
            {
              "internalType": "uint256",
              "name": "rewardFrom",
              "type": "uint256"
            }
          ],
          "internalType": "struct ProfessionStakingUpgradeable.NFT[]",
          "name": "",
          "type": "tuple[]"
        }
      ],
      "stateMutability": "view",
      "type": "function"
    },
    {
      "inputs": [
        {
          "internalType": "address",
          "name": "_address",
          "type": "address"
        }
      ],
      "name": "getStakedOf",
      "outputs": [
        {
          "components": [
            {
              "internalType": "address",
              "name": "_address",
              "type": "address"
            },
            {
              "internalType": "uint256",
              "name": "tokenId",
              "type": "uint256"
            },
            {
              "internalType": "uint256",
              "name": "rewardFrom",
              "type": "uint256"
            }
          ],
          "internalType": "struct ProfessionStakingUpgradeable.NFT[]",
          "name": "",
          "type": "tuple[]"
        }
      ],
      "stateMutability": "view",
      "type": "function"
    },
    {
      "inputs": [
        {
          "internalType": "address",
          "name": "nftAddress",
          "type": "address"
        },
        {
          "internalType": "uint256",
          "name": "tokenId",
          "type": "uint256"
        }
      ],
      "name": "getTotalProfessionSkillPoints",
      "outputs": [
        {
          "internalType": "uint256",
          "name": "",
          "type": "uint256"
        }
      ],
      "stateMutability": "view",
      "type": "function"
    },
    {
      "inputs": [
        {
          "internalType": "address",
          "name": "_address",
          "type": "address"
        },
        {
          "internalType": "address",
          "name": "nftAddress",
          "type": "address"
        },
        {
          "internalType": "uint256",
          "name": "tokenId",
          "type": "uint256"
        }
      ],
      "name": "getTrainingStatus",
      "outputs": [
        {
          "components": [
            {
              "internalType": "address",
              "name": "_address",
              "type": "address"
            },
            {
              "internalType": "uint256",
              "name": "tokenId",
              "type": "uint256"
            },
            {
              "internalType": "uint256",
              "name": "level",
              "type": "uint256"
            },
            {
              "internalType": "uint256",
              "name": "treeId",
              "type": "uint256"
            },
            {
              "internalType": "uint256",
              "name": "skillId",
              "type": "uint256"
            },
            {
              "internalType": "uint256",
              "name": "startedAt",
              "type": "uint256"
            },
            {
              "internalType": "uint256",
              "name": "completeAt",
              "type": "uint256"
            }
          ],
          "internalType": "struct ProfessionStakingUpgradeable.TrainingStatus",
          "name": "",
          "type": "tuple"
        }
      ],
      "stateMutability": "view",
      "type": "function"
    },
    {
      "inputs": [
        {
          "internalType": "bytes32",
          "name": "role",
          "type": "bytes32"
        },
        {
          "internalType": "address",
          "name": "account",
          "type": "address"
        }
      ],
      "name": "grantRole",
      "outputs": [],
      "stateMutability": "nonpayable",
      "type": "function"
    },
    {
      "inputs": [
        {
          "internalType": "bytes32",
          "name": "role",
          "type": "bytes32"
        },
        {
          "internalType": "address",
          "name": "account",
          "type": "address"
        }
      ],
      "name": "hasRole",
      "outputs": [
        {
          "internalType": "bool",
          "name": "",
          "type": "bool"
        }
      ],
      "stateMutability": "view",
      "type": "function"
    },
    {
      "inputs": [],
      "name": "initialize",
      "outputs": [],
      "stateMutability": "nonpayable",
      "type": "function"
    },
    {
      "inputs": [
        {
          "internalType": "address",
          "name": "nftAddress",
          "type": "address"
        },
        {
          "internalType": "uint256",
          "name": "tokenId",
          "type": "uint256"
        }
      ],
      "name": "isStakingEnabled",
      "outputs": [
        {
          "internalType": "bool",
          "name": "",
          "type": "bool"
        }
      ],
      "stateMutability": "view",
      "type": "function"
    },
    {
      "inputs": [
        {
          "internalType": "address",
          "name": "_address",
          "type": "address"
        },
        {
          "internalType": "address",
          "name": "nftAddress",
          "type": "address"
        },
        {
          "internalType": "uint256",
          "name": "tokenId",
          "type": "uint256"
        },
        {
          "internalType": "uint256",
          "name": "skillId",
          "type": "uint256"
        }
      ],
      "name": "modifyActiveTrainingSkill",
      "outputs": [],
      "stateMutability": "nonpayable",
      "type": "function"
    },
    {
      "inputs": [
        {
          "internalType": "address",
          "name": "",
          "type": "address"
        },
        {
          "internalType": "address",
          "name": "",
          "type": "address"
        },
        {
          "internalType": "uint256",
          "name": "",
          "type": "uint256"
        },
        {
          "internalType": "bytes",
          "name": "",
          "type": "bytes"
        }
      ],
      "name": "onERC721Received",
      "outputs": [
        {
          "internalType": "bytes4",
          "name": "",
          "type": "bytes4"
        }
      ],
      "stateMutability": "pure",
      "type": "function"
    },
    {
      "inputs": [],
      "name": "pause",
      "outputs": [],
      "stateMutability": "nonpayable",
      "type": "function"
    },
    {
      "inputs": [],
      "name": "paused",
      "outputs": [
        {
          "internalType": "bool",
          "name": "",
          "type": "bool"
        }
      ],
      "stateMutability": "view",
      "type": "function"
    },
    {
      "inputs": [],
      "name": "pendingRewards",
      "outputs": [
        {
          "internalType": "uint256",
          "name": "",
          "type": "uint256"
        }
      ],
      "stateMutability": "view",
      "type": "function"
    },
    {
      "inputs": [
        {
          "internalType": "address",
          "name": "_address",
          "type": "address"
        }
      ],
      "name": "pendingRewardsOf",
      "outputs": [
        {
          "internalType": "uint256",
          "name": "",
          "type": "uint256"
        }
      ],
      "stateMutability": "view",
      "type": "function"
    },
    {
      "inputs": [
        {
          "internalType": "bytes32",
          "name": "role",
          "type": "bytes32"
        },
        {
          "internalType": "address",
          "name": "account",
          "type": "address"
        }
      ],
      "name": "renounceRole",
      "outputs": [],
      "stateMutability": "nonpayable",
      "type": "function"
    },
    {
      "inputs": [
        {
          "internalType": "bytes32",
          "name": "role",
          "type": "bytes32"
        },
        {
          "internalType": "address",
          "name": "account",
          "type": "address"
        }
      ],
      "name": "revokeRole",
      "outputs": [],
      "stateMutability": "nonpayable",
      "type": "function"
    },
    {
      "inputs": [
        {
          "internalType": "address",
          "name": "nftAddress",
          "type": "address"
        },
        {
          "internalType": "uint256",
          "name": "treeId",
          "type": "uint256"
        },
        {
          "internalType": "uint256",
          "name": "skillId",
          "type": "uint256"
        }
      ],
      "name": "setSkillPointer",
      "outputs": [],
      "stateMutability": "nonpayable",
      "type": "function"
    },
    {
      "inputs": [
        {
          "internalType": "address",
          "name": "nftAddress",
          "type": "address"
        },
        {
          "internalType": "uint256",
          "name": "level",
          "type": "uint256"
        },
        {
          "internalType": "uint256",
          "name": "cost",
          "type": "uint256"
        },
        {
          "internalType": "uint256",
          "name": "time",
          "type": "uint256"
        }
      ],
      "name": "setTrainingCost",
      "outputs": [],
      "stateMutability": "nonpayable",
      "type": "function"
    },
    {
      "inputs": [
        {
          "internalType": "address",
          "name": "nftAddress",
          "type": "address"
        },
        {
          "internalType": "uint256[]",
          "name": "levels",
          "type": "uint256[]"
        },
        {
          "internalType": "uint256[]",
          "name": "times",
          "type": "uint256[]"
        },
        {
          "internalType": "uint256[]",
          "name": "costs",
          "type": "uint256[]"
        }
      ],
      "name": "setTrainingLevelConfig",
      "outputs": [],
      "stateMutability": "nonpayable",
      "type": "function"
    },
    {
      "inputs": [
        {
          "internalType": "address",
          "name": "nftAddress",
          "type": "address"
        },
        {
          "internalType": "uint256",
          "name": "tokenId",
          "type": "uint256"
        }
      ],
      "name": "stake",
      "outputs": [],
      "stateMutability": "nonpayable",
      "type": "function"
    },
    {
      "inputs": [
        {
          "internalType": "address",
          "name": "nftAddress",
          "type": "address"
        },
        {
          "internalType": "uint256",
          "name": "tokenId",
          "type": "uint256"
        },
        {
          "internalType": "uint256",
          "name": "treeId",
          "type": "uint256"
        },
        {
          "internalType": "uint256",
          "name": "skillId",
          "type": "uint256"
        }
      ],
      "name": "startTraining",
      "outputs": [],
      "stateMutability": "nonpayable",
      "type": "function"
    },
    {
      "inputs": [
        {
          "internalType": "bytes4",
          "name": "interfaceId",
          "type": "bytes4"
        }
      ],
      "name": "supportsInterface",
      "outputs": [
        {
          "internalType": "bool",
          "name": "",
          "type": "bool"
        }
      ],
      "stateMutability": "view",
      "type": "function"
    },
    {
      "inputs": [],
      "name": "unpause",
      "outputs": [],
      "stateMutability": "nonpayable",
      "type": "function"
    },
    {
      "inputs": [
        {
          "internalType": "address",
          "name": "nftAddress",
          "type": "address"
        },
        {
          "internalType": "uint256",
          "name": "tokenId",
          "type": "uint256"
        }
      ],
      "name": "unstake",
      "outputs": [],
      "stateMutability": "nonpayable",
      "type": "function"
    },
    {
      "inputs": [
        {
          "internalType": "address",
          "name": "nftAddress",
          "type": "address"
        },
        {
          "internalType": "contract IERC20Upgradeable",
          "name": "rewardToken",
          "type": "address"
        },
        {
          "internalType": "uint256",
          "name": "startTime",
          "type": "uint256"
        },
        {
          "internalType": "uint256",
          "name": "maxPointsPerSkill",
          "type": "uint256"
        }
      ],
      "name": "updateStakingConfig",
      "outputs": [],
      "stateMutability": "nonpayable",
      "type": "function"
    },
    {
      "inputs": [
        {
          "internalType": "address",
          "name": "to",
          "type": "address"
        },
        {
          "internalType": "address",
          "name": "nftAddress",
          "type": "address"
        },
        {
          "internalType": "uint256",
          "name": "amount",
          "type": "uint256"
        }
      ],
      "name": "withdrawPoolRewards",
      "outputs": [],
      "stateMutability": "nonpayable",
      "type": "function"
    }
  ],
  "bytecode": "0x60806040523480156200001157600080fd5b506200001c62000022565b620000e4565b600054610100900460ff16156200008f5760405162461bcd60e51b815260206004820152602760248201527f496e697469616c697a61626c653a20636f6e747261637420697320696e697469604482015266616c697a696e6760c81b606482015260840160405180910390fd5b60005460ff9081161015620000e2576000805460ff191660ff9081179091556040519081527f7f26b83ff96e1f2b6a682f133852f6798a09c465da95921460cefb38474024989060200160405180910390a15b565b61563680620000f46000396000f3fe608060405234801561001057600080fd5b50600436106102bb5760003560e01c806386e8953d11610182578063bea64ba2116100e9578063d547741f116100a2578063e2a7669c1161007c578063e2a7669c1461066f578063e62ccc9c14610682578063eded3fda14610695578063fa5887ee1461069d57600080fd5b8063d547741f14610636578063d9a2c1d214610649578063df6e7e6f1461065c57600080fd5b8063bea64ba2146105c2578063c2a672e0146105d5578063c59abf9f146105e8578063c75fb3e3146105fd578063ca61466014610610578063cc3f7b1c1461062357600080fd5b8063abfc6e731161013b578063abfc6e7314610550578063adc9772e14610563578063aeeba61514610576578063ba3d7d4a14610589578063bde61d9e1461059c578063be29c925146105af57600080fd5b806386e8953d146104f457806391d148541461050757806395b3b8a11461051a5780639f8f60681461052d578063a217fddf14610535578063a401344b1461053d57600080fd5b8063421f72c711610226578063729c3553116101df578063729c35531461048957806375b238fc1461049c57806376c7e36a146104b15780638129fc1c146104d157806381fda71d146104d95780638456cb59146104ec57600080fd5b8063421f72c7146104195780634cb12fee146104305780634d7dd190146104435780634e71d92d146104565780635a2d88001461045e5780635c975abb1461047e57600080fd5b806332b95a6f1161027857806332b95a6f146103b257806333820bac146103c557806336568abe146103d85780633988bad8146103eb5780633d564e49146103fe5780633f4ba83a1461041157600080fd5b806301ffc9a7146102c0578063150b7a02146102e857806319545487146103395780632119e1401461034e578063248a9ca31461036e5780632f2ff15d1461039f575b600080fd5b6102d36102ce366004614a55565b6106b0565b60405190151581526020015b60405180910390f35b6103206102f6366004614a94565b7f150b7a023d4804d13e8c85fb27262cb750cf6ba9f9dd3bb30d90f482ceeb4b1f95945050505050565b6040516001600160e01b031990911681526020016102df565b61034c610347366004614c6a565b6106e7565b005b61036161035c366004614ccd565b610770565b6040516102df9190614d58565b61039161037c366004614d66565b60009081526097602052604090206001015490565b6040519081526020016102df565b61034c6103ad366004614d7f565b6107fe565b61034c6103c0366004614c6a565b610823565b61034c6103d3366004614daf565b6108a6565b61034c6103e6366004614d7f565b6108e6565b6103916103f9366004614de4565b610964565b61034c61040c366004614c6a565b610abe565b61034c610b39565b610421610b64565b6040516102df93929190614e8b565b61034c61043e366004614f3f565b610dcf565b61034c610451366004614f6b565b6111a0565b61034c6113e2565b61047161046c366004614f3f565b6113fb565b6040516102df9190614fe8565b60335460ff166102d3565b61034c610497366004614ccd565b611852565b6103916000805160206155e183398151915281565b6104c46104bf366004614de4565b6118d2565b6040516102df9190614ffb565b61034c611bd0565b6103916104e7366004614f3f565b611d0b565b61034c611e1c565b6102d3610502366004614f3f565b611e44565b6102d3610515366004614d7f565b611f03565b61034c61052836600461503d565b611f2e565b6104c4611f7a565b610391600081565b61034c61054b366004614de4565b611f8a565b61034c61055e366004615078565b612048565b61034c610571366004614f3f565b61218a565b61034c610584366004614c6a565b612579565b61034c610597366004614daf565b6125fc565b61034c6105aa3660046150be565b612659565b61034c6105bd366004615158565b612755565b61034c6105d0366004614ccd565b6128cd565b61034c6105e3366004614f3f565b612a9e565b6105f0612e18565b6040516102df91906151a7565b6105f061060b366004614de4565b612e1f565b61034c61061e366004615078565b612f5d565b61034c610631366004614f3f565b612faf565b61034c610644366004614d7f565b613377565b61034c610657366004614c6a565b61339c565b61034c61066a3660046150be565b613417565b61034c61067d3660046151ba565b61350c565b61034c610690366004614f3f565b613598565b6103916138bf565b61034c6106ab36600461503d565b6138ca565b60006001600160e01b03198216637965db0b60e01b14806106e157506301ffc9a760e01b6001600160e01b03198316145b92915050565b80518251146107115760405162461bcd60e51b815260040161070890615241565b60405180910390fd5b60005b825181101561076b5761075983828151811061073257610732615285565b602002602001015183838151811061074c5761074c615285565b6020026020010151610dcf565b80610763816152b1565b915050610714565b505050565b6107786149dd565b506001600160a01b03808416600090815260c96020908152604080832086851684528252808320858452825291829020825160e081018452815490941684526001810154918401919091526002810154918301919091526003810154606083015260048101546080830152600581015460a08301526006015460c08201525b9392505050565b60008281526097602052604090206001015461081981613e97565b61076b8383613ea1565b61082b613f27565b805182511461084c5760405162461bcd60e51b815260040161070890615241565b60005b825181101561076b5761089483828151811061086d5761086d615285565b602002602001015183838151811061088757610887615285565b602002602001015161218a565b8061089e816152b1565b91505061084f565b6000805160206155e18339815191526108be81613e97565b506001600160a01b03909216600090815260cd60205260409020600781019190915560080155565b6001600160a01b03811633146109565760405162461bcd60e51b815260206004820152602f60248201527f416363657373436f6e74726f6c3a2063616e206f6e6c792072656e6f756e636560448201526e103937b632b9903337b91039b2b63360891b6064820152608401610708565b6109608282613f6d565b5050565b6001600160a01b038116600090815260ca6020526040812060038101548261098b83613fd4565b905060005b8151811015610ab45760008460020160008484815181106109b3576109b3615285565b6020026020010151815260200190815260200160002060020154426109d891906152cc565b90506000610a5b8660020160008686815181106109f7576109f7615285565b6020026020010151815260200190815260200160002060000160009054906101000a90046001600160a01b0316876002016000878781518110610a3c57610a3c615285565b6020026020010151815260200190815260200160002060010154611d0b565b90508162015180610a6d8360016152e3565b610a7f90670de0b6b3a76400006152fb565b610a89919061531a565b610a9391906152fb565b610a9d90866152e3565b945050508080610aac906152b1565b915050610990565b5090949350505050565b8051825114610adf5760405162461bcd60e51b815260040161070890615241565b60005b825181101561076b57610b27838281518110610b0057610b00615285565b6020026020010151838381518110610b1a57610b1a615285565b6020026020010151612a9e565b80610b31816152b1565b915050610ae2565b6000805160206155e1833981519152610b5181613e97565b610b59613fe1565b610b61614015565b50565b60608060606000610b7560cb614067565b9050806001600160401b03811115610b8f57610b8f614b32565b604051908082528060200260200182016040528015610bb8578160200160208202803683370190505b509150806001600160401b03811115610bd357610bd3614b32565b604051908082528060200260200182016040528015610c0657816020015b6060815260200190600190039081610bf15790505b50925060005b81811015610dbc57600060ca81610c2460cb85614071565b6001600160a01b03168152602081019190915260400160009081209150610c4a82613fd4565b9050600081516001600160401b03811115610c6757610c67614b32565b604051908082528060200260200182016040528015610cc557816020015b610cb2604051806060016040528060006001600160a01b0316815260200160008152602001600081525090565b815260200190600190039081610c855790505b50905060005b8151811015610d6457836002016000848381518110610cec57610cec615285565b6020908102919091018101518252818101929092526040908101600020815160608101835281546001600160a01b0316815260018201549381019390935260020154908201528251839083908110610d4657610d46615285565b60200260200101819052508080610d5c906152b1565b915050610ccb565b5080878581518110610d7857610d78615285565b60200260200101819052508260030154868581518110610d9a57610d9a615285565b6020026020010181815250505050508080610db4906152b1565b915050610c0c565b50610dc760cb613fd4565b935050909192565b6040516331a9108f60e11b8152600481018290528290829030906001600160a01b03841690636352211e9060240160206040518083038186803b158015610e1557600080fd5b505afa158015610e29573d6000803e3d6000fd5b505050506040513d601f19601f82011682018060405250810190610e4d919061533c565b6001600160a01b031614610e735760405162461bcd60e51b815260040161070890615359565b6001600160a01b03848116600090815260cd60205260409081902060068101546007820154600883015493516322ca3b1560e11b8152600481018990526024810191909152604481019390935287938793911690634594762a9060640160206040518083038186803b158015610ee857600080fd5b505afa158015610efc573d6000803e3d6000fd5b505050506040513d601f19601f82011682018060405250810190610f20919061537d565b600114610f3f5760405162461bcd60e51b815260040161070890615396565b6001600160a01b038716600081815260cd602090815260408083203380855260c984528285209585529483528184208b8552835281842094845260ca9092529091206005830154919291610fc45760405162461bcd60e51b815260206004820152600c60248201526b4e6f7420747261696e696e6760a01b6044820152606401610708565b42826006015411156110185760405162461bcd60e51b815260206004820152601a60248201527f547261696e696e67207374696c6c20696e2070726f67726573730000000000006044820152606401610708565b6110313360008b8152600284016020526040902061407d565b6006830154600383015460048085015460028601546040516305ad7d8960e51b81529283018e90526024830193909352604482015260648101919091526001600160a01b039091169063b5afb12090608401600060405180830381600087803b15801561109d57600080fd5b505af11580156110b1573d6000803e3d6000fd5b50505050896001600160a01b03166110c63390565b6001600160a01b03167f4cffb663b46d78e759211fc8a998ed5dd16066c4229b4b4e94bc0ff7431e85a88b856003015486600401548760020154604051611126949392919093845260208401929092526040830152606082015260800190565b60405180910390a3505033600090815260c9602090815260408083206001600160a01b039b909b1683529981528982209882529790975250505093832080546001600160a01b0319168155600181018490556002810184905560038101849055600481018490556005810184905560060192909255505050565b6000805160206155e18339815191526111b881613e97565b6001600160a01b038716600090815260cd6020526040902080541561121f5760405162461bcd60e51b815260206004820152601d60248201527f5374616b696e6720636f6e66696720616c7265616479206578697374730000006044820152606401610708565b600084116112675760405162461bcd60e51b81526020600482015260156024820152744d697373696e672074726565496420636f6e66696760581b6044820152606401610708565b60008351116112b15760405162461bcd60e51b81526020600482015260166024820152754d697373696e6720736b696c6c496420636f6e66696760501b6044820152606401610708565b600085116112d15760405162461bcd60e51b8152600401610708906153bc565b4286116112f05760405162461bcd60e51b815260040161070890615404565b858155600181018590556002810184905560005b8351811015611354578160030184828151811061132357611323615285565b602090810291909101810151825460018101845560009384529190922001558061134c816152b1565b915050611304565b506004810180546001600160a01b038981166001600160a01b03199283168117909355600684018054918c1691909216811790915560006007840190815560096008850155835460408051948552602085019190915290927fc6e5f1ee3138795eeda2fa0aab37379a177c4f04396146dd2b154ab55f5c5585910160405180910390a2505050505050505050565b6113f0336140a6565b6140a6565b6113f933614125565b565b6001600160a01b038216600090815260cd602052604090208054606091906114655760405162461bcd60e51b815260206004820152601e60248201527f4e6f20747261696e696e672073657373696f6e20636f6e6669677572656400006044820152606401610708565b60038101546000906001600160401b0381111561148457611484614b32565b6040519080825280602002602001820160405280156114ad578160200160208202803683370190505b50905060008060005b600385015481101561161557600685015460028601546003870180546001600160a01b0390931692634594762a928b929091869081106114f8576114f8615285565b90600052602060002001546040518463ffffffff1660e01b8152600401611532939291909283526020830191909152604082015260600190565b60206040518083038186803b15801561154a57600080fd5b505afa15801561155e573d6000803e3d6000fd5b505050506040513d601f19601f82011682018060405250810190611582919061537d565b84828151811061159457611594615285565b60200260200101818152505060008482815181106115b4576115b4615285565b602002602001015111156115d057826115cc816152b1565b9350505b84600101548482815181106115e7576115e7615285565b6020026020010151141561160357816115ff816152b1565b9250505b8061160d816152b1565b9150506114b6565b5081611679578360030180548060200260200160405190810160405280929190818152602001828054801561166957602002820191906000526020600020905b815481526020019060010190808311611655575b50505050509450505050506106e1565b80600214156116905750606093506106e192505050565b60038401546000906116a4906001906152cc565b6001600160401b038111156116bb576116bb614b32565b6040519080825280602002602001820160405280156116e4578160200160208202803683370190505b5090506000805b8551811015611844578360011480156117045750846001145b8015611729575085818151811061171d5761171d615285565b60200260200101516000145b156117795786600301818154811061174357611743615285565b906000526020600020015483838151811061176057611760615285565b602090810291909101015281611775816152b1565b9250505b600086828151811061178d5761178d615285565b60200260200101511180156117be575086600101548682815181106117b4576117b4615285565b6020026020010151105b1561183257604080516001808252818301909252600091602080830190803683370190505090508760030182815481106117fa576117fa615285565b90600052602060002001548160008151811061181857611818615285565b602090810291909101015297506106e19650505050505050565b8061183c816152b1565b9150506116eb565b509098975050505050505050565b6000805160206155e183398151915261186a81613e97565b506001600160a01b03928316600090815260c960209081526040808320949095168252928352838120918152915290812080546001600160a01b0319168155600181018290556002810182905560038101829055600481018290556005810182905560060155565b6001600160a01b038116600090815260ca602052604081206060916118f682613fd4565b90506000805b82518110156119b657600084600201600085848151811061191f5761191f615285565b60209081029190910181015182528181019290925260409081016000908120825160608101845281546001600160a01b0390811682526001830154828701908152600290930154828601528c8116845260c986528484208251909116845285528383209151835293522060060154909150156119a3578261199f816152b1565b9350505b50806119ae816152b1565b9150506118fc565b506000816001600160401b038111156119d1576119d1614b32565b604051908082528060200260200182016040528015611a0a57816020015b6119f76149dd565b8152602001906001900390816119ef5790505b5090506000805b8451811015611bc4576000866002016000878481518110611a3457611a34615285565b602002602001015181526020019081526020016000206040518060600160405290816000820160009054906101000a90046001600160a01b03166001600160a01b03166001600160a01b03168152602001600182015481526020016002820154815250509050600060c960008b6001600160a01b03166001600160a01b03168152602001908152602001600020600083600001516001600160a01b03166001600160a01b031681526020019081526020016000206000836020015181526020019081526020016000206040518060e00160405290816000820160009054906101000a90046001600160a01b03166001600160a01b03166001600160a01b031681526020016001820154815260200160028201548152602001600382015481526020016004820154815260200160058201548152602001600682015481525050905060008160c001511115611baf5780858581518110611b9557611b95615285565b60200260200101819052508380611bab906152b1565b9450505b50508080611bbc906152b1565b915050611a11565b50909695505050505050565b600054610100900460ff1615808015611bf05750600054600160ff909116105b80611c0a5750303b158015611c0a575060005460ff166001145b611c6d5760405162461bcd60e51b815260206004820152602e60248201527f496e697469616c697a61626c653a20636f6e747261637420697320616c72656160448201526d191e481a5b9a5d1a585b1a5e995960921b6064820152608401610708565b6000805460ff191660011790558015611c90576000805461ff0019166101001790555b611c98614353565b611ca0614382565b611cab600033613ea1565b611cc36000805160206155e183398151915233613ea1565b8015610b61576000805461ff0019169055604051600181527f7f26b83ff96e1f2b6a682f133852f6798a09c465da95921460cefb38474024989060200160405180910390a150565b6001600160a01b038216600090815260cd6020526040812081805b6003830154811015611e1357600683015460028401546003850180546000936001600160a01b031692634594762a928a9287908110611d6757611d67615285565b90600052602060002001546040518463ffffffff1660e01b8152600401611da1939291909283526020830191909152604082015260600190565b60206040518083038186803b158015611db957600080fd5b505afa158015611dcd573d6000803e3d6000fd5b505050506040513d601f19601f82011682018060405250810190611df1919061537d565b9050611dfd81846152e3565b9250508080611e0b906152b1565b915050611d26565b50949350505050565b6000805160206155e1833981519152611e3481613e97565b611e3c613fe1565b610b616143a9565b6001600160a01b03828116600090815260cd60205260408082206006810154600782018054600884015494516322ca3b1560e11b81526004810189905260248101919091526044810194909452939491939285929190911690634594762a9060640160206040518083038186803b158015611ebe57600080fd5b505afa158015611ed2573d6000803e3d6000fd5b505050506040513d601f19601f82011682018060405250810190611ef6919061537d565b6001149695505050505050565b60009182526097602090815260408084206001600160a01b0393909316845291905290205460ff1690565b6000805160206155e1833981519152611f4681613e97565b506001600160a01b03909316600090815260cd60209081526040808320948352600590940190529190912090815560010155565b6060611f85336118d2565b905090565b6000805160206155e1833981519152611fa281613e97565b611faa613fe1565b6001600160a01b038216600090815260cd60205260408120818155600181018290556002810182905590611fe16003830182614a23565b506004810180546001600160a01b0319908116909155600682018054909116905560006007820181905560089091018190556040516001600160a01b038416917fed93036dfb7e5500a2a7f2471a56e6b3389a8c28c72adca8ba9f6a4025ca6d5891a25050565b6000805160206155e183398151915261206081613e97565b6001600160a01b038516600090815260cd60205260409020546120c55760405162461bcd60e51b815260206004820152601d60248201527f5374616b696e6720636f6e66696720646f6573206e6f742065786973740000006044820152606401610708565b600082116120e55760405162461bcd60e51b8152600401610708906153bc565b4283116121045760405162461bcd60e51b815260040161070890615404565b61210c613fe1565b6001600160a01b03858116600081815260cd60209081526040918290206004810180546001600160a01b031916958a169586179055878155600181018790558251948552908401879052927f255d2940ab142f16cd2452c452fc20185bcbc341ce9c1646bc3d4feac9dc3371910160405180910390a2505050505050565b612192613f27565b6040516331a9108f60e11b8152600481018290528290829030906001600160a01b03841690636352211e9060240160206040518083038186803b1580156121d857600080fd5b505afa1580156121ec573d6000803e3d6000fd5b505050506040513d601f19601f82011682018060405250810190612210919061533c565b6001600160a01b031614156122585760405162461bcd60e51b815260206004820152600e60248201526d105b1c9958591e481cdd185ad95960921b6044820152606401610708565b6001600160a01b03848116600090815260cd60205260409081902060068101546007820154600883015493516322ca3b1560e11b8152600481018990526024810191909152604481019390935287938793911690634594762a9060640160206040518083038186803b1580156122cd57600080fd5b505afa1580156122e1573d6000803e3d6000fd5b505050506040513d601f19601f82011682018060405250810190612305919061537d565b6001146123245760405162461bcd60e51b815260040161070890615396565b6001600160a01b038716600090815260cd60205260409020805461237a5760405162461bcd60e51b815260206004820152600d60248201526c496e76616c6964207374616b6560981b6044820152606401610708565b80544210156123c55760405162461bcd60e51b815260206004820152601760248201527614dd185ada5b99c81a185cc81b9bdd081cdd185c9d1959604a1b6044820152606401610708565b6123cd6113e2565b60068101546001600160a01b03166342842e0e33308a6040518463ffffffff1660e01b81526004016124019392919061544e565b600060405180830381600087803b15801561241b57600080fd5b505af115801561242f573d6000803e3d6000fd5b505050506006810154600782018054600884015491926001600160a01b03169163b5afb120918b916124629060016152e3565b6040516001600160e01b031960e086901b16815260048101939093526024830191909152604482015260016064820152608401600060405180830381600087803b1580156124af57600080fd5b505af11580156124c3573d6000803e3d6000fd5b505050506124d96124d13390565b60cb906143e6565b5033600090815260ca602090815260408083208b84526002808201909352922080546001600160a01b0319166001600160a01b038d16178155600181018b9055429181019190915561252b828b6143fb565b506040518a81526001600160a01b038c169033907f5dac0c1b1112564a045ba943c9d50270893e8e826c49be8e7073adc713ab7bd79060200160405180910390a35050505050505050505050565b612581613f27565b80518251146125a25760405162461bcd60e51b815260040161070890615241565b60005b825181101561076b576125ea8382815181106125c3576125c3615285565b60200260200101518383815181106125dd576125dd615285565b6020026020010151612faf565b806125f4816152b1565b9150506125a5565b6000805160206155e183398151915261261481613e97565b6001600160a01b038416600090815260ca602090815260408083208684526002810190925290912060018101859055831561265157600281018490555b505050505050565b6000805160206155e183398151915261267181613e97565b82518451148015612683575081518351145b6126e05760405162461bcd60e51b815260206004820152602860248201527f416c6c20696e70757420617272617973206d757374206265207468652073616d6044820152670ca40d8cadccee8d60c31b6064820152608401610708565b60005b8451811015612651576127438686838151811061270257612702615285565b602002602001015186848151811061271c5761271c615285565b602002602001015186858151811061273657612736615285565b6020026020010151611f2e565b8061274d816152b1565b9150506126e3565b61275d613f27565b825184511461277e5760405162461bcd60e51b815260040161070890615241565b81518451146127db5760405162461bcd60e51b815260206004820152602360248201527f6164647265737320636f756e74206d757374206d61746368207472656520636f6044820152621d5b9d60ea1b6064820152608401610708565b80518451146128385760405162461bcd60e51b8152602060048201526024808201527f6164647265737320636f756e74206d757374206d6174636820736b696c6c20636044820152631bdd5b9d60e21b6064820152608401610708565b60005b84518110156128c6576128b485828151811061285957612859615285565b602002602001015185838151811061287357612873615285565b602002602001015185848151811061288d5761288d615285565b60200260200101518585815181106128a7576128a7615285565b60200260200101516138ca565b806128be816152b1565b91505061283b565b5050505050565b6000805160206155e18339815191526128e581613e97565b6128ed613fe1565b6001600160a01b03838116600090815260cd60205260409081902060048082015492516370a0823160e01b815230918101919091529092859216906370a082319060240160206040518083038186803b15801561294957600080fd5b505afa15801561295d573d6000803e3d6000fd5b505050506040513d601f19601f82011682018060405250810190612981919061537d565b10156129c65760405162461bcd60e51b8152602060048201526014602482015273496e73756666696369656e742062616c616e636560601b6044820152606401610708565b6004808201546040516323b872dd60e01b81526001600160a01b03909116916323b872dd916129fb9130918a9189910161544e565b602060405180830381600087803b158015612a1557600080fd5b505af1158015612a29573d6000803e3d6000fd5b505050506040513d601f19601f82011682018060405250810190612a4d9190615472565b5060048101546040518481526001600160a01b039182169187169033907f74ed50f6a2a005dd31f4766fb60918c4a6728cb0da9eeb81b9526bc6da11ec0f9060200160405180910390a45050505050565b6040516331a9108f60e11b8152600481018290528290829030906001600160a01b03841690636352211e9060240160206040518083038186803b158015612ae457600080fd5b505afa158015612af8573d6000803e3d6000fd5b505050506040513d601f19601f82011682018060405250810190612b1c919061533c565b6001600160a01b031614612b425760405162461bcd60e51b815260040161070890615359565b6001600160a01b03848116600090815260cd60205260409081902060068101546007820154600883015493516322ca3b1560e11b8152600481018990526024810191909152604481019390935287938793911690634594762a9060640160206040518083038186803b158015612bb757600080fd5b505afa158015612bcb573d6000803e3d6000fd5b505050506040513d601f19601f82011682018060405250810190612bef919061537d565b600114612c0e5760405162461bcd60e51b815260040161070890615396565b6001600160a01b038716600090815260cd6020908152604080832033845260ca909252909120612c3e8189614407565b612c7b5760405162461bcd60e51b815260206004820152600e60248201526d13919508139bdd081cdd185ad95960921b6044820152606401610708565b612c836113e2565b60068201546001600160a01b03166342842e0e30338b6040518463ffffffff1660e01b8152600401612cb79392919061544e565b600060405180830381600087803b158015612cd157600080fd5b505af1158015612ce5573d6000803e3d6000fd5b505050506006820154600783018054600885015491926001600160a01b03169163b5afb120918c91612d189060016152e3565b6040516001600160e01b031960e086901b16815260048101939093526024830191909152604482015260006064820152608401600060405180830381600087803b158015612d6557600080fd5b505af1158015612d79573d6000803e3d6000fd5b50505060008a815260028085016020526040822080546001600160a01b031916815560018101839055015550612daf828a61441f565b50612db982614067565b612dcc57612dca335b60cb9061442b565b505b6040518981526001600160a01b038b169033907fd8654fcc8cf5b36d30b3f5e4688fc78118e6d68de60b9994e09902268b57c3e39060200160405180910390a350505050505050505050565b6060611f85335b6001600160a01b038116600090815260ca60205260408120606091612e4382613fd4565b9050600081516001600160401b03811115612e6057612e60614b32565b604051908082528060200260200182016040528015612ebe57816020015b612eab604051806060016040528060006001600160a01b0316815260200160008152602001600081525090565b815260200190600190039081612e7e5790505b50905060005b8251811015611e1357836002016000848381518110612ee557612ee5615285565b6020908102919091018101518252818101929092526040908101600020815160608101835281546001600160a01b0316815260018201549381019390935260020154908201528251839083908110612f3f57612f3f615285565b60200260200101819052508080612f55906152b1565b915050612ec4565b6000805160206155e1833981519152612f7581613e97565b506001600160a01b03938416600090815260c960209081526040808320959096168252938452848120928152919092529190912060040155565b612fb7613f27565b6040516331a9108f60e11b8152600481018290528290829030906001600160a01b03841690636352211e9060240160206040518083038186803b158015612ffd57600080fd5b505afa158015613011573d6000803e3d6000fd5b505050506040513d601f19601f82011682018060405250810190613035919061533c565b6001600160a01b0316141561307d5760405162461bcd60e51b815260206004820152600e60248201526d105b1c9958591e481cdd185ad95960921b6044820152606401610708565b6001600160a01b03848116600090815260cd6020526040908190206006810154600782018054600884015494516322ca3b1560e11b8152600481018a90526024810191909152604481019490945291939192911690634594762a9060640160206040518083038186803b1580156130f357600080fd5b505afa158015613107573d6000803e3d6000fd5b505050506040513d601f19601f8201168201806040525081019061312b919061537d565b156131785760405162461bcd60e51b815260206004820152601860248201527f5374616b696e6720616c726561647920756e6c6f636b656400000000000000006044820152606401610708565b81546131bf5760405162461bcd60e51b815260206004820152601660248201527514dd185ada5b99c81b9bdd0818dbdb999a59dd5c995960521b6044820152606401610708565b815442101561320a5760405162461bcd60e51b815260206004820152601760248201527614dd185ada5b99c81a185cc81b9bdd081cdd185c9d1959604a1b6044820152606401610708565b6004828101546000808052600585016020526040908190205490516323b872dd60e01b81526001600160a01b03909216926323b872dd9261324f92339230920161544e565b602060405180830381600087803b15801561326957600080fd5b505af115801561327d573d6000803e3d6000fd5b505050506040513d601f19601f820116820180604052508101906132a19190615472565b50600682015481546001808401546040516305ad7d8960e51b8152600481018a90526024810193909352604483015260648201526001600160a01b039091169063b5afb12090608401600060405180830381600087803b15801561330457600080fd5b505af1158015613318573d6000803e3d6000fd5b50505050856001600160a01b031661332d3390565b6001600160a01b03167f051144eeaaad1c4ee6b1eab928f531a9daf1687b3e0f8db00dae3f5df8c285db8760405161336791815260200190565b60405180910390a3505050505050565b60008281526097602052604090206001015461339281613e97565b61076b8383613f6d565b80518251146133bd5760405162461bcd60e51b815260040161070890615241565b60005b825181101561076b576134058382815181106133de576133de615285565b60200260200101518383815181106133f8576133f8615285565b6020026020010151613598565b8061340f816152b1565b9150506133c0565b6000805160206155e183398151915261342f81613e97565b6001600160a01b038516600090815260cd60205260408120905b85518110156135035784818151811061346457613464615285565b602002602001015182600501600088848151811061348457613484615285565b60200260200101518152602001908152602001600020600101819055508381815181106134b3576134b3615285565b60200260200101518260050160008884815181106134d3576134d3615285565b602002602001015181526020019081526020016000206000018190555080806134fb906152b1565b915050613449565b50505050505050565b6000805160206155e183398151915261352481613e97565b60005b84518110156128c65761358685828151811061354557613545615285565b602002602001015185838151811061355f5761355f615285565b602002602001015185848151811061357957613579615285565b60200260200101516125fc565b80613590816152b1565b915050613527565b6040516331a9108f60e11b8152600481018290528290829030906001600160a01b03841690636352211e9060240160206040518083038186803b1580156135de57600080fd5b505afa1580156135f2573d6000803e3d6000fd5b505050506040513d601f19601f82011682018060405250810190613616919061533c565b6001600160a01b03161461363c5760405162461bcd60e51b815260040161070890615359565b6001600160a01b03848116600090815260cd60205260409081902060068101546007820154600883015493516322ca3b1560e11b8152600481018990526024810191909152604481019390935287938793911690634594762a9060640160206040518083038186803b1580156136b157600080fd5b505afa1580156136c5573d6000803e3d6000fd5b505050506040513d601f19601f820116820180604052508101906136e9919061537d565b6001146137085760405162461bcd60e51b815260040161070890615396565b33600090815260c9602090815260408083206001600160a01b038b1684528252808320898452909152902060058101546137735760405162461bcd60e51b815260206004820152600c60248201526b4e6f7420747261696e696e6760a01b6044820152606401610708565b428160060154116137c65760405162461bcd60e51b815260206004820152601960248201527f547261696e696e6720616c72656164792066696e6973686564000000000000006044820152606401610708565b33600081815260ca602090815260408083208b84526002810190925290912090916137f09161407d565b60038201546004830154604080518b8152602081019390935282810191909152426060830152516001600160a01b038b169133917fc9b7c59fa980251f7ca7eae784c953e8a9f49d617be6edca0b41264ea05cb1699181900360800190a3505033600090815260c9602090815260408083206001600160a01b039a909a1683529881528882209782529690965250505092822080546001600160a01b03191681556001810183905560028101839055600381018390556004810183905560058101839055600601919091555050565b6000611f8533610964565b6138d2613f27565b6040516331a9108f60e11b8152600481018490528490849030906001600160a01b03841690636352211e9060240160206040518083038186803b15801561391857600080fd5b505afa15801561392c573d6000803e3d6000fd5b505050506040513d601f19601f82011682018060405250810190613950919061533c565b6001600160a01b0316146139765760405162461bcd60e51b815260040161070890615359565b6001600160a01b03868116600090815260cd60205260409081902060068101546007820154600883015493516322ca3b1560e11b8152600481018b90526024810191909152604481019390935289938993911690634594762a9060640160206040518083038186803b1580156139eb57600080fd5b505afa1580156139ff573d6000803e3d6000fd5b505050506040513d601f19601f82011682018060405250810190613a23919061537d565b600114613a425760405162461bcd60e51b815260040161070890615396565b6001600160a01b038916600090815260cd602052604090208054613aa85760405162461bcd60e51b815260206004820152601e60248201527f4e6f20747261696e696e672073657373696f6e20636f6e6669677572656400006044820152606401610708565b8054421015613af95760405162461bcd60e51b815260206004820152601c60248201527f547261696e696e6720686173206e6f74207374617274656420796574000000006044820152606401610708565b33600090815260c9602090815260408083206001600160a01b038e16845282528083208c84529091529020600581015415613b765760405162461bcd60e51b815260206004820152601f60248201527f547261696e696e6720697320616c726561647920696e2070726f6772657373006044820152606401610708565b613b818b8b8a614440565b613bcd5760405162461bcd60e51b815260206004820152601760248201527f496e76616c696420747261696e696e67206f7074696f6e0000000000000000006044820152606401610708565b60068201546040516322ca3b1560e11b8152600481018c9052602481018b9052604481018a90526000916001600160a01b031690634594762a9060640160206040518083038186803b158015613c2257600080fd5b505afa158015613c36573d6000803e3d6000fd5b505050506040513d601f19601f82011682018060405250810190613c5a919061537d565b90508260010154816001613c6e91906152e3565b1115613cbc5760405162461bcd60e51b815260206004820152601e60248201527f45786365656473206d6178696d756d20747261696e696e67206c6576656c00006044820152606401610708565b60006005840181613cce8460016152e3565b815260200190815260200160002090506000816000015411613d325760405162461bcd60e51b815260206004820152601d60248201527f547261696e696e67204c6576656c206973206e6f7420656e61626c65640000006044820152606401610708565b60048481015482546040516323b872dd60e01b81526001600160a01b03909216926323b872dd92613d6792339230920161544e565b602060405180830381600087803b158015613d8157600080fd5b505af1158015613d95573d6000803e3d6000fd5b505050506040513d601f19601f82011682018060405250810190613db99190615472565b50613dc58260016152e3565b6002840155600383018b9055600483018a905542600584018190556001820154613dee916152e3565b600684015582546001600160a01b0319166001600160a01b038e169081178455600184018d9055336001600160a01b03167f98d1944772cc1ee399725448c633b3ec863f8be81e490479055d810afaa0225c8e8e8e613e4e8860016152e3565b60058a015460068b0154604080519687526020870195909552938501929092526060840152608083015260a082015260c00160405180910390a350505050505050505050505050565b610b6181336144f6565b613eab8282611f03565b6109605760008281526097602090815260408083206001600160a01b03851684529091529020805460ff19166001179055613ee33390565b6001600160a01b0316816001600160a01b0316837f2f8788117e7eff1d82e926ec794901d17c78024a50270940304540a733656f0d60405160405180910390a45050565b60335460ff16156113f95760405162461bcd60e51b815260206004820152601060248201526f14185d5cd8589b194e881c185d5cd95960821b6044820152606401610708565b613f778282611f03565b156109605760008281526097602090815260408083206001600160a01b0385168085529252808320805460ff1916905551339285917ff6391f5c32d9c69d2a47ea670b442974b53935d1edc7fd64eb21e047a839171b9190a45050565b606060006107f78361455a565b60005b613fee60cb614067565b811015610b61576140036113eb60cb83614071565b8061400d816152b1565b915050613fe4565b61401d6145b6565b6033805460ff191690557f5db9ee0a495bf2e6ff9c91a7834c1ba4fdd244a5e8aa4e537bd38aeae4b073aa335b6040516001600160a01b03909116815260200160405180910390a1565b60006106e1825490565b60006107f783836145ff565b600281018054429091558154600183015461076b9185916001600160a01b039091169084614629565b6001600160a01b038116600090815260ca60205260408120906140c882613fd4565b905060005b815181101561411f5761410d848460020160008585815181106140f2576140f2615285565b6020026020010151815260200190815260200160002061407d565b80614117816152b1565b9150506140cd565b50505050565b6001600160a01b03818116600090815260ca60205260408082206003810180549390557f68995a606069a176802face6c7d97d018fa327ea1f57950103ab1e74298105c45491516370a0823160e01b815230600482015273bf20c23d25fca8aa4e7946496250d67872691af2947f68995a606069a176802face6c7d97d018fa327ea1f57950103ab1e74298105c094929383929116906370a082319060240160206040518083038186803b1580156141dc57600080fd5b505afa1580156141f0573d6000803e3d6000fd5b505050506040513d601f19601f82011682018060405250810190614214919061537d565b10156142625760405162461bcd60e51b815260206004820181905260248201527f496e73756666696369656e74207265776172647320696e20636f6e74726163746044820152606401610708565b60048381015460405163a9059cbb60e01b81526001600160a01b03888116938201939093526024810184905291169063a9059cbb90604401602060405180830381600087803b1580156142b457600080fd5b505af11580156142c8573d6000803e3d6000fd5b505050506040513d601f19601f820116820180604052508101906142ec9190615472565b506142f682614067565b6143055761430333612dc2565b505b60048301546040518281526001600160a01b03918216918716907ff7a40077ff7a04c7e61f6f26fb13774259ddf1b6bce9ecf26a8276cdd39926839060200160405180910390a35050505050565b600054610100900460ff1661437a5760405162461bcd60e51b815260040161070890615494565b6113f96146cd565b600054610100900460ff166113f95760405162461bcd60e51b815260040161070890615494565b6143b1613f27565b6033805460ff191660011790557f62e78cea01bee320cd4e420270b5ea74000d11b0c9f74754ebdbfc544b05a25861404a3390565b60006107f7836001600160a01b038416614700565b60006107f78383614700565b600081815260018301602052604081205415156107f7565b60006107f7838361474f565b60006107f7836001600160a01b03841661474f565b60008061444d85856113fb565b905060008151116144a05760405162461bcd60e51b815260206004820152601e60248201527f4e6f20747261696e696e672073657373696f6e7320617661696c61626c6500006044820152606401610708565b60005b81518110156144ea57838282815181106144bf576144bf615285565b602002602001015114156144d8576001925050506107f7565b806144e2816152b1565b9150506144a3565b50600095945050505050565b6145008282611f03565b61096057614518816001600160a01b03166014614842565b614523836020614842565b60405160200161453492919061550b565b60408051601f198184030181529082905262461bcd60e51b825261070891600401615580565b6060816000018054806020026020016040519081016040528092919081815260200182805480156145aa57602002820191906000526020600020905b815481526020019060010190808311614596575b50505050509050919050565b60335460ff166113f95760405162461bcd60e51b815260206004820152601460248201527314185d5cd8589b194e881b9bdd081c185d5cd95960621b6044820152606401610708565b600082600001828154811061461657614616615285565b9060005260206000200154905092915050565b8015806146365750428110155b156146405761411f565b600061464c82426152cc565b9050600061465a8585611d0b565b905080614666816152b1565b91508290506201518061468183670de0b6b3a76400006152fb565b61468b919061531a565b61469591906152fb565b6001600160a01b038716600090815260ca6020526040812060030180549091906146c09084906152e3565b9091555050505050505050565b600054610100900460ff166146f45760405162461bcd60e51b815260040161070890615494565b6033805460ff19169055565b6000818152600183016020526040812054614747575081546001818101845560008481526020808220909301849055845484825282860190935260409020919091556106e1565b5060006106e1565b600081815260018301602052604081205480156148385760006147736001836152cc565b8554909150600090614787906001906152cc565b90508181146147ec5760008660000182815481106147a7576147a7615285565b90600052602060002001549050808760000184815481106147ca576147ca615285565b6000918252602080832090910192909255918252600188019052604090208390555b85548690806147fd576147fd6155b3565b6001900381819060005260206000200160009055905585600101600086815260200190815260200160002060009055600193505050506106e1565b60009150506106e1565b606060006148518360026152fb565b61485c9060026152e3565b6001600160401b0381111561487357614873614b32565b6040519080825280601f01601f19166020018201604052801561489d576020820181803683370190505b509050600360fc1b816000815181106148b8576148b8615285565b60200101906001600160f81b031916908160001a905350600f60fb1b816001815181106148e7576148e7615285565b60200101906001600160f81b031916908160001a905350600061490b8460026152fb565b6149169060016152e3565b90505b600181111561498e576f181899199a1a9b1b9c1cb0b131b232b360811b85600f166010811061494a5761494a615285565b1a60f81b82828151811061496057614960615285565b60200101906001600160f81b031916908160001a90535060049490941c93614987816155c9565b9050614919565b5083156107f75760405162461bcd60e51b815260206004820181905260248201527f537472696e67733a20686578206c656e67746820696e73756666696369656e746044820152606401610708565b6040518060e0016040528060006001600160a01b031681526020016000815260200160008152602001600081526020016000815260200160008152602001600081525090565b5080546000825590600052602060002090810190610b6191905b80821115614a515760008155600101614a3d565b5090565b600060208284031215614a6757600080fd5b81356001600160e01b0319811681146107f757600080fd5b6001600160a01b0381168114610b6157600080fd5b600080600080600060808688031215614aac57600080fd5b8535614ab781614a7f565b94506020860135614ac781614a7f565b93506040860135925060608601356001600160401b0380821115614aea57600080fd5b818801915088601f830112614afe57600080fd5b813581811115614b0d57600080fd5b896020828501011115614b1f57600080fd5b9699959850939650602001949392505050565b634e487b7160e01b600052604160045260246000fd5b604051601f8201601f191681016001600160401b0381118282101715614b7057614b70614b32565b604052919050565b60006001600160401b03821115614b9157614b91614b32565b5060051b60200190565b600082601f830112614bac57600080fd5b81356020614bc1614bbc83614b78565b614b48565b82815260059290921b84018101918181019086841115614be057600080fd5b8286015b84811015614c04578035614bf781614a7f565b8352918301918301614be4565b509695505050505050565b600082601f830112614c2057600080fd5b81356020614c30614bbc83614b78565b82815260059290921b84018101918181019086841115614c4f57600080fd5b8286015b84811015614c045780358352918301918301614c53565b60008060408385031215614c7d57600080fd5b82356001600160401b0380821115614c9457600080fd5b614ca086838701614b9b565b93506020850135915080821115614cb657600080fd5b50614cc385828601614c0f565b9150509250929050565b600080600060608486031215614ce257600080fd5b8335614ced81614a7f565b92506020840135614cfd81614a7f565b929592945050506040919091013590565b80516001600160a01b031682526020808201519083015260408082015190830152606080820151908301526080808201519083015260a0818101519083015260c090810151910152565b60e081016106e18284614d0e565b600060208284031215614d7857600080fd5b5035919050565b60008060408385031215614d9257600080fd5b823591506020830135614da481614a7f565b809150509250929050565b600080600060608486031215614dc457600080fd5b8335614dcf81614a7f565b95602085013595506040909401359392505050565b600060208284031215614df657600080fd5b81356107f781614a7f565b600081518084526020808501945080840160005b83811015614e5057815180516001600160a01b0316885283810151848901526040908101519088015260609096019590820190600101614e15565b509495945050505050565b600081518084526020808501945080840160005b83811015614e5057815187529582019590820190600101614e6f565b606080825284519082018190526000906020906080840190828801845b82811015614ecd5781516001600160a01b031684529284019290840190600101614ea8565b50505083810382850152855180825282820190600581901b8301840188850160005b83811015614f1d57601f19868403018552614f0b838351614e01565b94870194925090860190600101614eef565b50508681036040880152614f318189614e5b565b9a9950505050505050505050565b60008060408385031215614f5257600080fd5b8235614f5d81614a7f565b946020939093013593505050565b60008060008060008060c08789031215614f8457600080fd5b8635614f8f81614a7f565b95506020870135614f9f81614a7f565b945060408701359350606087013592506080870135915060a08701356001600160401b03811115614fcf57600080fd5b614fdb89828a01614c0f565b9150509295509295509295565b6020815260006107f76020830184614e5b565b6020808252825182820181905260009190848201906040850190845b81811015611bc45761502a838551614d0e565b9284019260e09290920191600101615017565b6000806000806080858703121561505357600080fd5b843561505e81614a7f565b966020860135965060408601359560600135945092505050565b6000806000806080858703121561508e57600080fd5b843561509981614a7f565b935060208501356150a981614a7f565b93969395505050506040820135916060013590565b600080600080608085870312156150d457600080fd5b84356150df81614a7f565b935060208501356001600160401b03808211156150fb57600080fd5b61510788838901614c0f565b9450604087013591508082111561511d57600080fd5b61512988838901614c0f565b9350606087013591508082111561513f57600080fd5b5061514c87828801614c0f565b91505092959194509250565b6000806000806080858703121561516e57600080fd5b84356001600160401b038082111561518557600080fd5b61519188838901614b9b565b955060208701359150808211156150fb57600080fd5b6020815260006107f76020830184614e01565b6000806000606084860312156151cf57600080fd5b83356001600160401b03808211156151e657600080fd5b6151f287838801614b9b565b9450602086013591508082111561520857600080fd5b61521487838801614c0f565b9350604086013591508082111561522a57600080fd5b5061523786828701614c0f565b9150509250925092565b60208082526024908201527f6164647265737320636f756e74206d757374206d6174636820746f6b656e20636040820152631bdd5b9d60e21b606082015260800190565b634e487b7160e01b600052603260045260246000fd5b634e487b7160e01b600052601160045260246000fd5b60006000198214156152c5576152c561529b565b5060010190565b6000828210156152de576152de61529b565b500390565b600082198211156152f6576152f661529b565b500190565b60008160001904831182151516156153155761531561529b565b500290565b60008261533757634e487b7160e01b600052601260045260246000fd5b500490565b60006020828403121561534e57600080fd5b81516107f781614a7f565b6020808252600a9082015269139bdd081cdd185ad95960b21b604082015260600190565b60006020828403121561538f57600080fd5b5051919050565b6020808252600c908201526b139bdd081d5b9b1bd8dad95960a21b604082015260600190565b60208082526028908201527f6d6178506f696e7473506572536b696c6c206d75737420626520677265617465604082015267072207468616e20360c41b606082015260800190565b6020808252602a908201527f737461727454696d65206d7573742062652061206675747572652074696d6520604082015269696e207365636f6e647360b01b606082015260800190565b6001600160a01b039384168152919092166020820152604081019190915260600190565b60006020828403121561548457600080fd5b815180151581146107f757600080fd5b6020808252602b908201527f496e697469616c697a61626c653a20636f6e7472616374206973206e6f74206960408201526a6e697469616c697a696e6760a81b606082015260800190565b60005b838110156154fa5781810151838201526020016154e2565b8381111561411f5750506000910152565b7f416363657373436f6e74726f6c3a206163636f756e74200000000000000000008152600083516155438160178501602088016154df565b7001034b99036b4b9b9b4b733903937b6329607d1b60179184019182015283516155748160288401602088016154df565b01602801949350505050565b602081526000825180602084015261559f8160408501602087016154df565b601f01601f19169190910160400192915050565b634e487b7160e01b600052603160045260246000fd5b6000816155d8576155d861529b565b50600019019056fea49807205ce4d355092ef5a8a18f56e8913cf4a201fbe287825b095693c21775a2646970667358221220afb27595af36d32e2a74c0b11e616a93423c144561ae631fe0cd309364b1a24464736f6c63430008090033",
  "linkReferences": {},
  "deployedLinkReferences": {}
}