{
  "_format": "hh-sol-artifact-1",
  "contractName": "ProfessionStakingUpgradeable",
  "sourceName": "contracts/upgradeable/npc/ProfessionStakingUpgradeable.sol",
  "abi": [
    {
      "inputs": [],
      "stateMutability": "nonpayable",
      "type": "constructor"
    },
    {
      "anonymous": false,
      "inputs": [
        {
          "indexed": true,
          "internalType": "address",
          "name": "from",
          "type": "address"
        },
        {
          "indexed": false,
          "internalType": "uint256",
          "name": "stakedCount",
          "type": "uint256"
        },
        {
          "indexed": false,
          "internalType": "uint256",
          "name": "amount",
          "type": "uint256"
        }
      ],
      "name": "ClaimBlocked",
      "type": "event"
    },
    {
      "anonymous": false,
      "inputs": [
        {
          "indexed": true,
          "internalType": "address",
          "name": "by",
          "type": "address"
        },
        {
          "indexed": true,
          "internalType": "address",
          "name": "token",
          "type": "address"
        },
        {
          "indexed": false,
          "internalType": "uint256",
          "name": "amount",
          "type": "uint256"
        }
      ],
      "name": "Claimed",
      "type": "event"
    },
    {
      "anonymous": false,
      "inputs": [
        {
          "indexed": false,
          "internalType": "address",
          "name": "account",
          "type": "address"
        }
      ],
      "name": "Paused",
      "type": "event"
    },
    {
      "anonymous": false,
      "inputs": [
        {
          "indexed": true,
          "internalType": "address",
          "name": "from",
          "type": "address"
        },
        {
          "indexed": true,
          "internalType": "address",
          "name": "token",
          "type": "address"
        },
        {
          "indexed": false,
          "internalType": "uint256",
          "name": "amount",
          "type": "uint256"
        }
      ],
      "name": "PoolRewardsDeposited",
      "type": "event"
    },
    {
      "anonymous": false,
      "inputs": [
        {
          "indexed": true,
          "internalType": "address",
          "name": "by",
          "type": "address"
        },
        {
          "indexed": true,
          "internalType": "address",
          "name": "to",
          "type": "address"
        },
        {
          "indexed": true,
          "internalType": "address",
          "name": "token",
          "type": "address"
        },
        {
          "indexed": false,
          "internalType": "uint256",
          "name": "amount",
          "type": "uint256"
        }
      ],
      "name": "PoolRewardsWithdrawn",
      "type": "event"
    },
    {
      "anonymous": false,
      "inputs": [
        {
          "indexed": true,
          "internalType": "bytes32",
          "name": "role",
          "type": "bytes32"
        },
        {
          "indexed": true,
          "internalType": "bytes32",
          "name": "previousAdminRole",
          "type": "bytes32"
        },
        {
          "indexed": true,
          "internalType": "bytes32",
          "name": "newAdminRole",
          "type": "bytes32"
        }
      ],
      "name": "RoleAdminChanged",
      "type": "event"
    },
    {
      "anonymous": false,
      "inputs": [
        {
          "indexed": true,
          "internalType": "bytes32",
          "name": "role",
          "type": "bytes32"
        },
        {
          "indexed": true,
          "internalType": "address",
          "name": "account",
          "type": "address"
        },
        {
          "indexed": true,
          "internalType": "address",
          "name": "sender",
          "type": "address"
        }
      ],
      "name": "RoleGranted",
      "type": "event"
    },
    {
      "anonymous": false,
      "inputs": [
        {
          "indexed": true,
          "internalType": "bytes32",
          "name": "role",
          "type": "bytes32"
        },
        {
          "indexed": true,
          "internalType": "address",
          "name": "account",
          "type": "address"
        },
        {
          "indexed": true,
          "internalType": "address",
          "name": "sender",
          "type": "address"
        }
      ],
      "name": "RoleRevoked",
      "type": "event"
    },
    {
      "anonymous": false,
      "inputs": [
        {
          "indexed": true,
          "internalType": "address",
          "name": "from",
          "type": "address"
        },
        {
          "indexed": true,
          "internalType": "address",
          "name": "nftAddress",
          "type": "address"
        },
        {
          "indexed": false,
          "internalType": "uint256",
          "name": "tokenId",
          "type": "uint256"
        }
      ],
      "name": "Staked",
      "type": "event"
    },
    {
      "anonymous": false,
      "inputs": [
        {
          "indexed": true,
          "internalType": "address",
          "name": "nftAddress",
          "type": "address"
        },
        {
          "indexed": false,
          "internalType": "address",
          "name": "rewardToken",
          "type": "address"
        },
        {
          "indexed": false,
          "internalType": "uint256",
          "name": "startTime",
          "type": "uint256"
        }
      ],
      "name": "StakingConfigCreated",
      "type": "event"
    },
    {
      "anonymous": false,
      "inputs": [
        {
          "indexed": true,
          "internalType": "address",
          "name": "nftAddress",
          "type": "address"
        }
      ],
      "name": "StakingConfigDeleted",
      "type": "event"
    },
    {
      "anonymous": false,
      "inputs": [
        {
          "indexed": true,
          "internalType": "address",
          "name": "nftAddress",
          "type": "address"
        },
        {
          "indexed": false,
          "internalType": "address",
          "name": "rewardToken",
          "type": "address"
        },
        {
          "indexed": false,
          "internalType": "uint256",
          "name": "startTime",
          "type": "uint256"
        }
      ],
      "name": "StakingConfigUpdated",
      "type": "event"
    },
    {
      "anonymous": false,
      "inputs": [
        {
          "indexed": true,
          "internalType": "address",
          "name": "by",
          "type": "address"
        },
        {
          "indexed": true,
          "internalType": "address",
          "name": "nftAddress",
          "type": "address"
        },
        {
          "indexed": false,
          "internalType": "uint256",
          "name": "tokenId",
          "type": "uint256"
        }
      ],
      "name": "StakingUnlocked",
      "type": "event"
    },
    {
      "anonymous": false,
      "inputs": [
        {
          "indexed": true,
          "internalType": "address",
          "name": "by",
          "type": "address"
        },
        {
          "indexed": true,
          "internalType": "address",
          "name": "nftAddress",
          "type": "address"
        },
        {
          "indexed": false,
          "internalType": "uint256",
          "name": "tokenId",
          "type": "uint256"
        },
        {
          "indexed": false,
          "internalType": "uint256",
          "name": "treeId",
          "type": "uint256"
        },
        {
          "indexed": false,
          "internalType": "uint256",
          "name": "skillId",
          "type": "uint256"
        },
        {
          "indexed": false,
          "internalType": "uint256",
          "name": "canceledAt",
          "type": "uint256"
        }
      ],
      "name": "TrainingCanceled",
      "type": "event"
    },
    {
      "anonymous": false,
      "inputs": [
        {
          "indexed": true,
          "internalType": "address",
          "name": "by",
          "type": "address"
        },
        {
          "indexed": true,
          "internalType": "address",
          "name": "nftAddress",
          "type": "address"
        },
        {
          "indexed": false,
          "internalType": "uint256",
          "name": "tokenId",
          "type": "uint256"
        },
        {
          "indexed": false,
          "internalType": "uint256",
          "name": "treeId",
          "type": "uint256"
        },
        {
          "indexed": false,
          "internalType": "uint256",
          "name": "skillId",
          "type": "uint256"
        },
        {
          "indexed": false,
          "internalType": "uint256",
          "name": "level",
          "type": "uint256"
        }
      ],
      "name": "TrainingFinished",
      "type": "event"
    },
    {
      "anonymous": false,
      "inputs": [
        {
          "indexed": true,
          "internalType": "address",
          "name": "by",
          "type": "address"
        },
        {
          "indexed": true,
          "internalType": "address",
          "name": "nftAddress",
          "type": "address"
        },
        {
          "indexed": false,
          "internalType": "uint256",
          "name": "tokenId",
          "type": "uint256"
        },
        {
          "indexed": false,
          "internalType": "uint256",
          "name": "treeId",
          "type": "uint256"
        },
        {
          "indexed": false,
          "internalType": "uint256",
          "name": "skillId",
          "type": "uint256"
        },
        {
          "indexed": false,
          "internalType": "uint256",
          "name": "level",
          "type": "uint256"
        },
        {
          "indexed": false,
          "internalType": "uint256",
          "name": "startedAt",
          "type": "uint256"
        },
        {
          "indexed": false,
          "internalType": "uint256",
          "name": "completeAt",
          "type": "uint256"
        }
      ],
      "name": "TrainingStarted",
      "type": "event"
    },
    {
      "anonymous": false,
      "inputs": [
        {
          "indexed": false,
          "internalType": "address",
          "name": "account",
          "type": "address"
        }
      ],
      "name": "Unpaused",
      "type": "event"
    },
    {
      "anonymous": false,
      "inputs": [
        {
          "indexed": true,
          "internalType": "address",
          "name": "from",
          "type": "address"
        },
        {
          "indexed": true,
          "internalType": "address",
          "name": "nftAddress",
          "type": "address"
        },
        {
          "indexed": false,
          "internalType": "uint256",
          "name": "tokenId",
          "type": "uint256"
        }
      ],
      "name": "Unstaked",
      "type": "event"
    },
    {
      "inputs": [],
      "name": "DEFAULT_ADMIN_ROLE",
      "outputs": [
        {
          "internalType": "bytes32",
          "name": "",
          "type": "bytes32"
        }
      ],
      "stateMutability": "view",
      "type": "function"
    },
    {
      "inputs": [],
      "name": "GAME_STORAGE",
      "outputs": [
        {
          "internalType": "contract IGameStorageUpgradeable",
          "name": "",
          "type": "address"
        }
      ],
      "stateMutability": "view",
      "type": "function"
    },
    {
      "inputs": [],
      "name": "PAUSER_ROLE",
      "outputs": [
        {
          "internalType": "bytes32",
          "name": "",
          "type": "bytes32"
        }
      ],
      "stateMutability": "view",
      "type": "function"
    },
    {
      "inputs": [],
      "name": "UPDATER_ROLE",
      "outputs": [
        {
          "internalType": "bytes32",
          "name": "",
          "type": "bytes32"
        }
      ],
      "stateMutability": "view",
      "type": "function"
    },
    {
      "inputs": [
        {
          "internalType": "address[]",
          "name": "addresses",
          "type": "address[]"
        },
        {
          "internalType": "uint256[]",
          "name": "indexes",
          "type": "uint256[]"
        },
        {
          "internalType": "address[]",
          "name": "nftAddresses",
          "type": "address[]"
        },
        {
          "internalType": "uint256[]",
          "name": "tokenIds",
          "type": "uint256[]"
        },
        {
          "internalType": "uint256[]",
          "name": "rewardFrom",
          "type": "uint256[]"
        }
      ],
      "name": "adminBatchUpdateNftData",
      "outputs": [],
      "stateMutability": "nonpayable",
      "type": "function"
    },
    {
      "inputs": [
        {
          "internalType": "address",
          "name": "_address",
          "type": "address"
        },
        {
          "internalType": "uint256",
          "name": "index",
          "type": "uint256"
        },
        {
          "internalType": "address",
          "name": "nftAddress",
          "type": "address"
        },
        {
          "internalType": "uint256",
          "name": "tokenId",
          "type": "uint256"
        },
        {
          "internalType": "uint256",
          "name": "rewardFrom",
          "type": "uint256"
        }
      ],
      "name": "adminUpdateNftData",
      "outputs": [],
      "stateMutability": "nonpayable",
      "type": "function"
    },
    {
      "inputs": [
        {
          "internalType": "address[]",
          "name": "nftAddresses",
          "type": "address[]"
        },
        {
          "internalType": "uint256[]",
          "name": "tokenIds",
          "type": "uint256[]"
        }
      ],
      "name": "batchCancelTraining",
      "outputs": [],
      "stateMutability": "nonpayable",
      "type": "function"
    },
    {
      "inputs": [
        {
          "internalType": "address[]",
          "name": "nftAddresses",
          "type": "address[]"
        },
        {
          "internalType": "uint256[]",
          "name": "tokenIds",
          "type": "uint256[]"
        }
      ],
      "name": "batchEnableStaking",
      "outputs": [],
      "stateMutability": "nonpayable",
      "type": "function"
    },
    {
      "inputs": [
        {
          "internalType": "address[]",
          "name": "nftAddresses",
          "type": "address[]"
        },
        {
          "internalType": "uint256[]",
          "name": "tokenIds",
          "type": "uint256[]"
        }
      ],
      "name": "batchFinishTraining",
      "outputs": [],
      "stateMutability": "nonpayable",
      "type": "function"
    },
    {
      "inputs": [
        {
          "internalType": "uint256[]",
          "name": "level",
          "type": "uint256[]"
        },
        {
          "internalType": "uint256[]",
          "name": "cost",
          "type": "uint256[]"
        },
        {
          "internalType": "uint256[]",
          "name": "time",
          "type": "uint256[]"
        }
      ],
      "name": "batchSetTrainingCosts",
      "outputs": [],
      "stateMutability": "nonpayable",
      "type": "function"
    },
    {
      "inputs": [
        {
          "internalType": "address[]",
          "name": "nftAddresses",
          "type": "address[]"
        },
        {
          "internalType": "uint256[]",
          "name": "tokenIds",
          "type": "uint256[]"
        }
      ],
      "name": "batchStake",
      "outputs": [],
      "stateMutability": "nonpayable",
      "type": "function"
    },
    {
      "inputs": [
        {
          "internalType": "address[]",
          "name": "nftAddresses",
          "type": "address[]"
        },
        {
          "internalType": "uint256[]",
          "name": "tokenIds",
          "type": "uint256[]"
        },
        {
          "internalType": "uint256[]",
          "name": "treeIds",
          "type": "uint256[]"
        },
        {
          "internalType": "uint256[]",
          "name": "skillIds",
          "type": "uint256[]"
        }
      ],
      "name": "batchStartTraining",
      "outputs": [],
      "stateMutability": "nonpayable",
      "type": "function"
    },
    {
      "inputs": [
        {
          "internalType": "address[]",
          "name": "nftAddresses",
          "type": "address[]"
        },
        {
          "internalType": "uint256[]",
          "name": "tokenIds",
          "type": "uint256[]"
        }
      ],
      "name": "batchUnstake",
      "outputs": [],
      "stateMutability": "nonpayable",
      "type": "function"
    },
    {
      "inputs": [
        {
          "internalType": "address",
          "name": "nftAddress",
          "type": "address"
        },
        {
          "internalType": "uint256",
          "name": "tokenId",
          "type": "uint256"
        }
      ],
      "name": "cancelTraining",
      "outputs": [],
      "stateMutability": "nonpayable",
      "type": "function"
    },
    {
      "inputs": [],
      "name": "claim",
      "outputs": [],
      "stateMutability": "nonpayable",
      "type": "function"
    },
    {
      "inputs": [
        {
          "internalType": "address",
          "name": "nftAddress",
          "type": "address"
        },
        {
          "internalType": "address",
          "name": "rewardToken",
          "type": "address"
        },
        {
          "internalType": "uint256",
          "name": "startTime",
          "type": "uint256"
        },
        {
          "internalType": "uint256",
          "name": "maxPointsPerSkill",
          "type": "uint256"
        },
        {
          "internalType": "uint256[]",
          "name": "treeIds",
          "type": "uint256[]"
        },
        {
          "internalType": "uint256[]",
          "name": "skillIds",
          "type": "uint256[]"
        }
      ],
      "name": "createStakingConfig",
      "outputs": [],
      "stateMutability": "nonpayable",
      "type": "function"
    },
    {
      "inputs": [
        {
          "internalType": "address",
          "name": "nftAddress",
          "type": "address"
        }
      ],
      "name": "deleteStakingConfig",
      "outputs": [],
      "stateMutability": "nonpayable",
      "type": "function"
    },
    {
      "inputs": [
        {
          "internalType": "address",
          "name": "nftAddress",
          "type": "address"
        },
        {
          "internalType": "uint256",
          "name": "tokenId",
          "type": "uint256"
        }
      ],
      "name": "enableStaking",
      "outputs": [],
      "stateMutability": "nonpayable",
      "type": "function"
    },
    {
      "inputs": [
        {
          "internalType": "address",
          "name": "nftAddress",
          "type": "address"
        },
        {
          "internalType": "uint256",
          "name": "tokenId",
          "type": "uint256"
        }
      ],
      "name": "finishTraining",
      "outputs": [],
      "stateMutability": "nonpayable",
      "type": "function"
    },
    {
      "inputs": [
        {
          "internalType": "address",
          "name": "_address",
          "type": "address"
        },
        {
          "internalType": "address",
          "name": "nftAddress",
          "type": "address"
        },
        {
          "internalType": "uint256",
          "name": "tokenId",
          "type": "uint256"
        }
      ],
      "name": "forceCancelTraining",
      "outputs": [],
      "stateMutability": "nonpayable",
      "type": "function"
    },
    {
      "inputs": [],
      "name": "getActiveTraining",
      "outputs": [
        {
          "components": [
            {
              "internalType": "address",
              "name": "_address",
              "type": "address"
            },
            {
              "internalType": "uint256",
              "name": "tokenId",
              "type": "uint256"
            },
            {
              "internalType": "uint256",
              "name": "level",
              "type": "uint256"
            },
            {
              "internalType": "uint256",
              "name": "treeId",
              "type": "uint256"
            },
            {
              "internalType": "uint256",
              "name": "skillId",
              "type": "uint256"
            },
            {
              "internalType": "uint256",
              "name": "startedAt",
              "type": "uint256"
            },
            {
              "internalType": "uint256",
              "name": "completeAt",
              "type": "uint256"
            }
          ],
          "internalType": "struct ProfessionStakingUpgradeable.TrainingStatus[]",
          "name": "",
          "type": "tuple[]"
        }
      ],
      "stateMutability": "view",
      "type": "function"
    },
    {
      "inputs": [
        {
          "internalType": "address",
          "name": "_address",
          "type": "address"
        }
      ],
      "name": "getActiveTrainingOf",
      "outputs": [
        {
          "components": [
            {
              "internalType": "address",
              "name": "_address",
              "type": "address"
            },
            {
              "internalType": "uint256",
              "name": "tokenId",
              "type": "uint256"
            },
            {
              "internalType": "uint256",
              "name": "level",
              "type": "uint256"
            },
            {
              "internalType": "uint256",
              "name": "treeId",
              "type": "uint256"
            },
            {
              "internalType": "uint256",
              "name": "skillId",
              "type": "uint256"
            },
            {
              "internalType": "uint256",
              "name": "startedAt",
              "type": "uint256"
            },
            {
              "internalType": "uint256",
              "name": "completeAt",
              "type": "uint256"
            }
          ],
          "internalType": "struct ProfessionStakingUpgradeable.TrainingStatus[]",
          "name": "",
          "type": "tuple[]"
        }
      ],
      "stateMutability": "view",
      "type": "function"
    },
    {
      "inputs": [],
      "name": "getAllParticipantData",
      "outputs": [
        {
          "internalType": "address[]",
          "name": "addresses",
          "type": "address[]"
        },
        {
          "components": [
            {
              "internalType": "address",
              "name": "_address",
              "type": "address"
            },
            {
              "internalType": "uint256",
              "name": "tokenId",
              "type": "uint256"
            },
            {
              "internalType": "uint256",
              "name": "rewardFrom",
              "type": "uint256"
            }
          ],
          "internalType": "struct ProfessionStakingUpgradeable.NFT[][]",
          "name": "nfts",
          "type": "tuple[][]"
        },
        {
          "internalType": "uint256[]",
          "name": "rewards",
          "type": "uint256[]"
        }
      ],
      "stateMutability": "view",
      "type": "function"
    },
    {
      "inputs": [
        {
          "internalType": "address",
          "name": "nftAddress",
          "type": "address"
        },
        {
          "internalType": "uint256",
          "name": "tokenId",
          "type": "uint256"
        }
      ],
      "name": "getAllowedSkillChoices",
      "outputs": [
        {
          "internalType": "uint256[]",
          "name": "",
          "type": "uint256[]"
        }
      ],
      "stateMutability": "view",
      "type": "function"
    },
    {
      "inputs": [
        {
          "internalType": "bytes32",
          "name": "role",
          "type": "bytes32"
        }
      ],
      "name": "getRoleAdmin",
      "outputs": [
        {
          "internalType": "bytes32",
          "name": "",
          "type": "bytes32"
        }
      ],
      "stateMutability": "view",
      "type": "function"
    },
    {
      "inputs": [],
      "name": "getStaked",
      "outputs": [
        {
          "components": [
            {
              "internalType": "address",
              "name": "_address",
              "type": "address"
            },
            {
              "internalType": "uint256",
              "name": "tokenId",
              "type": "uint256"
            },
            {
              "internalType": "uint256",
              "name": "rewardFrom",
              "type": "uint256"
            }
          ],
          "internalType": "struct ProfessionStakingUpgradeable.NFT[]",
          "name": "",
          "type": "tuple[]"
        }
      ],
      "stateMutability": "view",
      "type": "function"
    },
    {
      "inputs": [
        {
          "internalType": "address",
          "name": "_address",
          "type": "address"
        }
      ],
      "name": "getStakedOf",
      "outputs": [
        {
          "components": [
            {
              "internalType": "address",
              "name": "_address",
              "type": "address"
            },
            {
              "internalType": "uint256",
              "name": "tokenId",
              "type": "uint256"
            },
            {
              "internalType": "uint256",
              "name": "rewardFrom",
              "type": "uint256"
            }
          ],
          "internalType": "struct ProfessionStakingUpgradeable.NFT[]",
          "name": "",
          "type": "tuple[]"
        }
      ],
      "stateMutability": "view",
      "type": "function"
    },
    {
      "inputs": [
        {
          "internalType": "address",
          "name": "ntfAddress",
          "type": "address"
        },
        {
          "internalType": "uint256",
          "name": "tokenId",
          "type": "uint256"
        }
      ],
      "name": "getTotalProfessionSkillPoints",
      "outputs": [
        {
          "internalType": "uint256",
          "name": "",
          "type": "uint256"
        }
      ],
      "stateMutability": "view",
      "type": "function"
    },
    {
      "inputs": [
        {
          "internalType": "address",
          "name": "_address",
          "type": "address"
        },
        {
          "internalType": "address",
          "name": "nftAddress",
          "type": "address"
        },
        {
          "internalType": "uint256",
          "name": "tokenId",
          "type": "uint256"
        }
      ],
      "name": "getTrainingStatus",
      "outputs": [
        {
          "components": [
            {
              "internalType": "address",
              "name": "_address",
              "type": "address"
            },
            {
              "internalType": "uint256",
              "name": "tokenId",
              "type": "uint256"
            },
            {
              "internalType": "uint256",
              "name": "level",
              "type": "uint256"
            },
            {
              "internalType": "uint256",
              "name": "treeId",
              "type": "uint256"
            },
            {
              "internalType": "uint256",
              "name": "skillId",
              "type": "uint256"
            },
            {
              "internalType": "uint256",
              "name": "startedAt",
              "type": "uint256"
            },
            {
              "internalType": "uint256",
              "name": "completeAt",
              "type": "uint256"
            }
          ],
          "internalType": "struct ProfessionStakingUpgradeable.TrainingStatus",
          "name": "",
          "type": "tuple"
        }
      ],
      "stateMutability": "view",
      "type": "function"
    },
    {
      "inputs": [
        {
          "internalType": "bytes32",
          "name": "role",
          "type": "bytes32"
        },
        {
          "internalType": "address",
          "name": "account",
          "type": "address"
        }
      ],
      "name": "grantRole",
      "outputs": [],
      "stateMutability": "nonpayable",
      "type": "function"
    },
    {
      "inputs": [
        {
          "internalType": "bytes32",
          "name": "role",
          "type": "bytes32"
        },
        {
          "internalType": "address",
          "name": "account",
          "type": "address"
        }
      ],
      "name": "hasRole",
      "outputs": [
        {
          "internalType": "bool",
          "name": "",
          "type": "bool"
        }
      ],
      "stateMutability": "view",
      "type": "function"
    },
    {
      "inputs": [],
      "name": "initialize",
      "outputs": [],
      "stateMutability": "nonpayable",
      "type": "function"
    },
    {
      "inputs": [
        {
          "internalType": "address",
          "name": "nftAddress",
          "type": "address"
        },
        {
          "internalType": "uint256",
          "name": "tokenId",
          "type": "uint256"
        }
      ],
      "name": "isStakingEnabled",
      "outputs": [
        {
          "internalType": "bool",
          "name": "",
          "type": "bool"
        }
      ],
      "stateMutability": "view",
      "type": "function"
    },
    {
      "inputs": [
        {
          "internalType": "address",
          "name": "",
          "type": "address"
        },
        {
          "internalType": "address",
          "name": "",
          "type": "address"
        },
        {
          "internalType": "uint256",
          "name": "",
          "type": "uint256"
        },
        {
          "internalType": "bytes",
          "name": "",
          "type": "bytes"
        }
      ],
      "name": "onERC721Received",
      "outputs": [
        {
          "internalType": "bytes4",
          "name": "",
          "type": "bytes4"
        }
      ],
      "stateMutability": "pure",
      "type": "function"
    },
    {
      "inputs": [],
      "name": "pause",
      "outputs": [],
      "stateMutability": "nonpayable",
      "type": "function"
    },
    {
      "inputs": [],
      "name": "paused",
      "outputs": [
        {
          "internalType": "bool",
          "name": "",
          "type": "bool"
        }
      ],
      "stateMutability": "view",
      "type": "function"
    },
    {
      "inputs": [],
      "name": "pendingRewards",
      "outputs": [
        {
          "internalType": "uint256",
          "name": "",
          "type": "uint256"
        }
      ],
      "stateMutability": "view",
      "type": "function"
    },
    {
      "inputs": [
        {
          "internalType": "address",
          "name": "_address",
          "type": "address"
        }
      ],
      "name": "pendingRewardsOf",
      "outputs": [
        {
          "internalType": "uint256",
          "name": "",
          "type": "uint256"
        }
      ],
      "stateMutability": "view",
      "type": "function"
    },
    {
      "inputs": [
        {
          "internalType": "bytes32",
          "name": "role",
          "type": "bytes32"
        },
        {
          "internalType": "address",
          "name": "account",
          "type": "address"
        }
      ],
      "name": "renounceRole",
      "outputs": [],
      "stateMutability": "nonpayable",
      "type": "function"
    },
    {
      "inputs": [
        {
          "internalType": "bytes32",
          "name": "role",
          "type": "bytes32"
        },
        {
          "internalType": "address",
          "name": "account",
          "type": "address"
        }
      ],
      "name": "revokeRole",
      "outputs": [],
      "stateMutability": "nonpayable",
      "type": "function"
    },
    {
      "inputs": [
        {
          "internalType": "address",
          "name": "_address",
          "type": "address"
        }
      ],
      "name": "setGameStorage",
      "outputs": [],
      "stateMutability": "nonpayable",
      "type": "function"
    },
    {
      "inputs": [
        {
          "internalType": "address",
          "name": "nftAddress",
          "type": "address"
        },
        {
          "internalType": "uint256",
          "name": "treeId",
          "type": "uint256"
        },
        {
          "internalType": "uint256",
          "name": "skillId",
          "type": "uint256"
        }
      ],
      "name": "setSkillPointer",
      "outputs": [],
      "stateMutability": "nonpayable",
      "type": "function"
    },
    {
      "inputs": [
        {
          "internalType": "uint256",
          "name": "level",
          "type": "uint256"
        },
        {
          "internalType": "uint256",
          "name": "cost",
          "type": "uint256"
        },
        {
          "internalType": "uint256",
          "name": "time",
          "type": "uint256"
        }
      ],
      "name": "setTrainingCost",
      "outputs": [],
      "stateMutability": "nonpayable",
      "type": "function"
    },
    {
      "inputs": [
        {
          "internalType": "address",
          "name": "nftAddress",
          "type": "address"
        },
        {
          "internalType": "uint256",
          "name": "tokenId",
          "type": "uint256"
        }
      ],
      "name": "stake",
      "outputs": [],
      "stateMutability": "nonpayable",
      "type": "function"
    },
    {
      "inputs": [
        {
          "internalType": "address",
          "name": "nftAddress",
          "type": "address"
        },
        {
          "internalType": "uint256",
          "name": "tokenId",
          "type": "uint256"
        },
        {
          "internalType": "uint256",
          "name": "treeId",
          "type": "uint256"
        },
        {
          "internalType": "uint256",
          "name": "skillId",
          "type": "uint256"
        }
      ],
      "name": "startTraining",
      "outputs": [],
      "stateMutability": "nonpayable",
      "type": "function"
    },
    {
      "inputs": [
        {
          "internalType": "bytes4",
          "name": "interfaceId",
          "type": "bytes4"
        }
      ],
      "name": "supportsInterface",
      "outputs": [
        {
          "internalType": "bool",
          "name": "",
          "type": "bool"
        }
      ],
      "stateMutability": "view",
      "type": "function"
    },
    {
      "inputs": [],
      "name": "unpause",
      "outputs": [],
      "stateMutability": "nonpayable",
      "type": "function"
    },
    {
      "inputs": [
        {
          "internalType": "address",
          "name": "nftAddress",
          "type": "address"
        },
        {
          "internalType": "uint256",
          "name": "tokenId",
          "type": "uint256"
        }
      ],
      "name": "unstake",
      "outputs": [],
      "stateMutability": "nonpayable",
      "type": "function"
    },
    {
      "inputs": [
        {
          "internalType": "address",
          "name": "nftAddress",
          "type": "address"
        },
        {
          "internalType": "address",
          "name": "rewardToken",
          "type": "address"
        },
        {
          "internalType": "uint256",
          "name": "startTime",
          "type": "uint256"
        },
        {
          "internalType": "uint256",
          "name": "maxPointsPerSkill",
          "type": "uint256"
        }
      ],
      "name": "updateStakingConfig",
      "outputs": [],
      "stateMutability": "nonpayable",
      "type": "function"
    },
    {
      "inputs": [
        {
          "internalType": "address",
          "name": "to",
          "type": "address"
        },
        {
          "internalType": "address",
          "name": "token",
          "type": "address"
        },
        {
          "internalType": "uint256",
          "name": "amount",
          "type": "uint256"
        }
      ],
      "name": "withdrawPoolRewards",
      "outputs": [],
      "stateMutability": "nonpayable",
      "type": "function"
    }
  ],
  "bytecode": "0x60806040523480156200001157600080fd5b50600054610100900460ff166200002f5760005460ff161562000039565b62000039620000de565b620000a15760405162461bcd60e51b815260206004820152602e60248201527f496e697469616c697a61626c653a20636f6e747261637420697320616c72656160448201526d191e481a5b9a5d1a585b1a5e995960921b606482015260840160405180910390fd5b600054610100900460ff16158015620000c4576000805461ffff19166101011790555b8015620000d7576000805461ff00191690555b506200010b565b6000620000f630620000fc60201b6200418f1760201c565b15905090565b6001600160a01b03163b151590565b615a9c806200011b6000396000f3fe608060405234801561001057600080fd5b50600436106102d65760003560e01c806381fda71d11610182578063be29c925116100e9578063d3a13d42116100a2578063e62ccc9c1161007c578063e62ccc9c146106b5578063e63ab1e9146106c8578063eded3fda146106dd578063fa5887ee146106e557600080fd5b8063d3a13d421461067c578063d547741f1461068f578063d9a2c1d2146106a257600080fd5b8063be29c92514610608578063bea64ba21461061b578063c2a672e01461062e578063c59abf9f14610641578063c75fb3e314610656578063cc3f7b1c1461066957600080fd5b8063a217fddf1161013b578063a217fddf146105a1578063a401344b146105a9578063abfc6e73146105bc578063adc9772e146105cf578063aed2151a146105e2578063aeeba615146105f557600080fd5b806381fda71d146105455780638456cb591461055857806386e8953d1461056057806391d148541461057357806394a77066146105865780639f8f60681461059957600080fd5b80633988bad8116102415780634e71d92d116101fa5780635c975abb116101d45780635c975abb146104ff578063729c35531461050a57806376c7e36a1461051d5780638129fc1c1461053d57600080fd5b80634e71d92d146104c45780634eeea443146104cc5780635a2d8800146104df57600080fd5b80633988bad8146104575780633d564e491461046a5780633f4ba83a1461047d578063421f72c71461048557806347e633801461049c5780634cb12fee146104b157600080fd5b806323de54d81161029357806323de54d8146103af578063248a9ca3146103da5780632f2ff15d1461040b57806332b95a6f1461041e57806333820bac1461043157806336568abe1461044457600080fd5b806301ffc9a7146102db5780630ae7a46114610303578063139bed4c14610318578063150b7a021461032b578063195454871461037c5780632119e1401461038f575b600080fd5b6102ee6102e9366004614d10565b6106f8565b60405190151581526020015b60405180910390f35b610316610311366004614d3a565b61072f565b005b610316610326366004614eb3565b610761565b610363610339366004614f84565b7f150b7a023d4804d13e8c85fb27262cb750cf6ba9f9dd3bb30d90f482ceeb4b1f95945050505050565b6040516001600160e01b031990911681526020016102fa565b61031661038a366004615022565b61081e565b6103a261039d366004615085565b6108a7565b6040516102fa9190615110565b60c9546103c2906001600160a01b031681565b6040516001600160a01b0390911681526020016102fa565b6103fd6103e836600461511e565b60009081526097602052604090206001015490565b6040519081526020016102fa565b610316610419366004615137565b610931565b61031661042c366004615022565b610957565b61031661043f366004615167565b6109f5565b610316610452366004615137565b610a31565b6103fd61046536600461519c565b610aaf565b610316610478366004615022565b610bd7565b610316610c52565b61048d610c7e565b6040516102fa93929190615243565b6103fd600080516020615a2783398151915281565b6103166104bf3660046152f7565b610e68565b61031661128e565b6103166104da366004615323565b6112a7565b6104f26104ed3660046152f7565b611395565b6040516102fa9190615375565b60335460ff166102ee565b610316610518366004615085565b611870565b61053061052b36600461519c565b6118e4565b6040516102fa9190615388565b610316611c29565b6103fd6105533660046152f7565b611d2c565b610316611dec565b6102ee61056e3660046152f7565b611e15565b6102ee610581366004615137565b611ed8565b6103166105943660046153d6565b611f03565b6105306122c9565b6103fd600081565b6103166105b736600461519c565b6122d9565b6103166105ca366004615470565b612382565b6103166105dd3660046152f7565b612583565b6103166105f03660046154b6565b612907565b610316610603366004615022565b612a0a565b61031661061636600461553d565b612aa8565b610316610629366004615085565b612c34565b61031661063c3660046152f7565b612def565b610649613310565b6040516102fa91906155e9565b61064961066436600461519c565b613317565b6103166106773660046152f7565b6133af565b61031661068a36600461519c565b613761565b61031661069d366004615137565b61379d565b6103166106b0366004615022565b6137c3565b6103166106c33660046152f7565b61383e565b6103fd600080516020615a4783398151915281565b6103fd613b1a565b6103166106f33660046155fc565b613b25565b60006001600160e01b03198216637965db0b60e01b148061072957506301ffc9a760e01b6001600160e01b03198316145b92915050565b600080516020615a27833981519152610748813361419e565b50600092835260cb602052604090922090815560010155565b600061076d813361419e565b60005b86518110156108155761080387828151811061078e5761078e615637565b60200260200101518783815181106107a8576107a8615637565b60200260200101518784815181106107c2576107c2615637565b60200260200101518785815181106107dc576107dc615637565b60200260200101518786815181106107f6576107f6615637565b60200260200101516112a7565b8061080d81615663565b915050610770565b50505050505050565b80518251146108485760405162461bcd60e51b815260040161083f9061567e565b60405180910390fd5b60005b82518110156108a25761089083828151811061086957610869615637565b602002602001015183838151811061088357610883615637565b6020026020010151610e68565b8061089a81615663565b91505061084b565b505050565b6108af614c45565b506001600160a01b03928316600090815260ca602090815260408083209486168352938152838220928252918252829020825160e081018452815490941684526001810154918401919091526002810154918301919091526003810154606083015260048101546080830152600581015460a08301526006015460c082015290565b60008281526097602052604090206001015461094d813361419e565b6108a28383614202565b60335460ff161561097a5760405162461bcd60e51b815260040161083f906156c2565b805182511461099b5760405162461bcd60e51b815260040161083f9061567e565b60005b82518110156108a2576109e38382815181106109bc576109bc615637565b60200260200101518383815181106109d6576109d6615637565b6020026020010151612583565b806109ed81615663565b91505061099e565b600080516020615a27833981519152610a0e813361419e565b506001600160a01b03909216600090815260d06020526040902090815560010155565b6001600160a01b0381163314610aa15760405162461bcd60e51b815260206004820152602f60248201527f416363657373436f6e74726f6c3a2063616e206f6e6c792072656e6f756e636560448201526e103937b632b9903337b91039b2b63360891b606482015260840161083f565b610aab8282614288565b5050565b6001600160a01b038116600090815260d1602090815260408083205460cc9092528220825b8154811015610bce576000826000018281548110610af457610af4615637565b90600052602060002090600302016002015442610b1191906156ec565b90506000610b75846000018481548110610b2d57610b2d615637565b600091825260209091206003909102015485546001600160a01b0390911690869086908110610b5e57610b5e615637565b906000526020600020906003020160010154611d2c565b90508162015180610b87836001615703565b610b9990670de0b6b3a764000061571b565b610ba3919061573a565b610bad919061571b565b610bb79086615703565b945050508080610bc690615663565b915050610ad4565b50909392505050565b8051825114610bf85760405162461bcd60e51b815260040161083f9061567e565b60005b82518110156108a257610c40838281518110610c1957610c19615637565b6020026020010151838381518110610c3357610c33615637565b6020026020010151612def565b80610c4a81615663565b915050610bfb565b600080516020615a47833981519152610c6b813361419e565b610c736142ef565b610c7b614323565b50565b60608060606000610c8f60cd6143b6565b9050806001600160401b03811115610ca957610ca9614d66565b604051908082528060200260200182016040528015610cd2578160200160208202803683370190505b509150806001600160401b03811115610ced57610ced614d66565b604051908082528060200260200182016040528015610d2057816020015b6060815260200190600190039081610d0b5790505b50925060005b81811015610e555760cc6000610d3d60cd846143c0565b6001600160a01b03166001600160a01b03168152602001908152602001600020600001805480602002602001604051908101604052809291908181526020016000905b82821015610dd5576000848152602090819020604080516060810182526003860290920180546001600160a01b0316835260018082015484860152600290910154918301919091529083529092019101610d80565b50505050848281518110610deb57610deb615637565b602090810291909101015260d16000610e0560cd846143c0565b6001600160a01b03166001600160a01b0316815260200190815260200160002054838281518110610e3857610e38615637565b602090810291909101015280610e4d81615663565b915050610d26565b50610e6060cd6143d3565b935050909192565b6040516331a9108f60e11b8152600481018290528290829030906001600160a01b03841690636352211e9060240160206040518083038186803b158015610eae57600080fd5b505afa158015610ec2573d6000803e3d6000fd5b505050506040513d601f19601f82011682018060405250810190610ee6919061575c565b6001600160a01b031614610f0c5760405162461bcd60e51b815260040161083f90615779565b60c95460405163537a724f60e11b8152859185916001600160a01b039091169063a6f4e49e90610f479085908590600090819060040161579d565b60206040518083038186803b158015610f5f57600080fd5b505afa158015610f73573d6000803e3d6000fd5b505050506040513d601f19601f82011682018060405250810190610f9791906157c3565b600114610fb65760405162461bcd60e51b815260040161083f906157dc565b33600090815260ca602090815260408083206001600160a01b038a1684528252808320888452909152902060058101546110215760405162461bcd60e51b815260206004820152600c60248201526b4e6f7420747261696e696e6760a01b604482015260640161083f565b42816006015411156110755760405162461bcd60e51b815260206004820152601a60248201527f547261696e696e67207374696c6c20696e2070726f6772657373000000000000604482015260640161083f565b60005b33600090815260cc602052604090205481101561111b5733600090815260cc602052604090208054889190839081106110b3576110b3615637565b906000526020600020906003020160010154141561110957611104335b33600090815260cc602052604090208054849081106110f1576110f1615637565b90600052602060002090600302016143e0565b61111b565b8061111381615663565b915050611078565b5060c95460038201546004808401546002850154604051630d126da960e11b81526001600160a01b038d811694820194909452602481018c905260448101949094526064840191909152608483015290911690631a24db529060a401600060405180830381600087803b15801561119157600080fd5b505af11580156111a5573d6000803e3d6000fd5b50505050866001600160a01b03166111ba3390565b6001600160a01b03167f4cffb663b46d78e759211fc8a998ed5dd16066c4229b4b4e94bc0ff7431e85a88884600301548560040154866002015460405161121a949392919093845260208401929092526040830152606082015260800190565b60405180910390a3505033600090815260ca602090815260408083206001600160a01b039890981683529681528682209582529490945250505090812080546001600160a01b0319168155600181018290556002810182905560038101829055600481018290556005810182905560060155565b61129c33614409565b614409565b6112a533614457565b565b60006112b3813361419e565b6001600160a01b038616600090815260cc602052604090208054859190879081106112e0576112e0615637565b6000918252602080832060039290920290910180546001600160a01b0319166001600160a01b03948516179055918816815260cc9091526040902080548491908790811061133057611330615637565b6000918252602090912060016003909202010155811561138d576001600160a01b038616600090815260cc6020526040902080548391908790811061137757611377615637565b9060005260206000209060030201600201819055505b505050505050565b6001600160a01b038216600090815260cf60209081526040808320815160a0810183528154815260018201548185015260028201805484518187028101870186528181526060979693958601939092919083018282801561141557602002820191906000526020600020905b815481526020019060010190808311611401575b505050505081526020016003820180548060200260200160405190810160405280929190818152602001828054801561146d57602002820191906000526020600020905b815481526020019060010190808311611459575b5050509183525050600491909101546001600160a01b031660209091015280519091506114dc5760405162461bcd60e51b815260206004820152601e60248201527f4e6f20747261696e696e672073657373696f6e20636f6e666967757265640000604482015260640161083f565b60008160400151516001600160401b038111156114fb576114fb614d66565b604051908082528060200260200182016040528015611524578160200160208202803683370190505b50905060008060005b8460400151518110156116935760c954604086015180516001600160a01b039092169163a6f4e49e918b918b91908690811061156b5761156b615637565b60200260200101518960600151868151811061158957611589615637565b60200260200101516040518563ffffffff1660e01b81526004016115b0949392919061579d565b60206040518083038186803b1580156115c857600080fd5b505afa1580156115dc573d6000803e3d6000fd5b505050506040513d601f19601f8201168201806040525081019061160091906157c3565b84828151811061161257611612615637565b602002602001018181525050600084828151811061163257611632615637565b6020026020010151111561164e578261164a81615663565b9350505b846020015184828151811061166557611665615637565b60200260200101511415611681578161167d81615663565b9250505b8061168b81615663565b91505061152d565b50816116a757505050606001519050610729565b80600214156116be57506060935061072992505050565b600060018560400151516116d291906156ec565b6001600160401b038111156116e9576116e9614d66565b604051908082528060200260200182016040528015611712578160200160208202803683370190505b5090506000805b8551811015611862578360011480156117325750846001145b8015611757575085818151811061174b5761174b615637565b60200260200101516000145b15611799578660600151818151811061177257611772615637565b602002602001015183838151811061178c5761178c615637565b6020026020010181815250505b60008682815181106117ad576117ad615637565b60200260200101511180156117de575086602001518682815181106117d4576117d4615637565b6020026020010151105b1561185057604080516001808252818301909252600091602080830190803683370190505090508760600151828151811061181b5761181b615637565b60200260200101518160008151811061183657611836615637565b602090810291909101015297506107299650505050505050565b8061185a81615663565b915050611719565b509098975050505050505050565b600061187c813361419e565b506001600160a01b03928316600090815260ca60209081526040808320949095168252928352838120918152915290812080546001600160a01b0319168155600181018290556002810182905560038101829055600481018290556005810182905560060155565b6001600160a01b038116600090815260cc60209081526040808320805482518185028101850190935280835260609493849084015b8282101561196e576000848152602090819020604080516060810182526003860290920180546001600160a01b0316835260018082015484860152600290910154918301919091529083529092019101611919565b5050505090506000805b8251811015611a8e576001600160a01b038516600090815260ca60205260408120845182908690859081106119af576119af615637565b6020026020010151600001516001600160a01b03166001600160a01b0316815260200190815260200160002060008584815181106119ef576119ef615637565b6020908102919091018101518101518252818101929092526040908101600020815160e08101835281546001600160a01b031681526001820154938101939093526002810154918301919091526003810154606083015260048101546080830152600581015460a08301526006015460c0820181905290915015611a7b5782611a7781615663565b9350505b5080611a8681615663565b915050611978565b506000816001600160401b03811115611aa957611aa9614d66565b604051908082528060200260200182016040528015611ae257816020015b611acf614c45565b815260200190600190039081611ac75790505b5090506000805b8451811015611c1e576001600160a01b038716600090815260ca6020526040812086518290889085908110611b2057611b20615637565b6020026020010151600001516001600160a01b03166001600160a01b031681526020019081526020016000206000878481518110611b6057611b60615637565b6020908102919091018101518101518252818101929092526040908101600020815160e08101835281546001600160a01b031681526001820154938101939093526002810154918301919091526003810154606083015260048101546080830152600581015460a08301526006015460c0820181905290915015611c0b5780848481518110611bf157611bf1615637565b60200260200101819052508280611c0790615663565b9350505b5080611c1681615663565b915050611ae9565b509095945050505050565b600054610100900460ff16611c445760005460ff1615611c48565b303b155b611cab5760405162461bcd60e51b815260206004820152602e60248201527f496e697469616c697a61626c653a20636f6e747261637420697320616c72656160448201526d191e481a5b9a5d1a585b1a5e995960921b606482015260840161083f565b600054610100900460ff16158015611ccd576000805461ffff19166101011790555b611cd56146eb565b611cdd61471a565b611ce8600033614202565b611d00600080516020615a4783398151915233614202565b611d18600080516020615a2783398151915233614202565b8015610c7b576000805461ff001916905550565b600080805b600c811015611de45760c95460405163537a724f60e11b81526000916001600160a01b03169063a6f4e49e90611d729089908990600190889060040161579d565b60206040518083038186803b158015611d8a57600080fd5b505afa158015611d9e573d6000803e3d6000fd5b505050506040513d601f19601f82011682018060405250810190611dc291906157c3565b9050611dce8184615703565b9250508080611ddc90615663565b915050611d31565b509392505050565b600080516020615a47833981519152611e05813361419e565b611e0d6142ef565b610c7b614741565b6001600160a01b03808316600090815260d0602052604080822060c95481546001830154935163537a724f60e11b8152949592948694929093169263a6f4e49e92611e67928a928a929060040161579d565b60206040518083038186803b158015611e7f57600080fd5b505afa158015611e93573d6000803e3d6000fd5b505050506040513d601f19601f82011682018060405250810190611eb791906157c3565b90508060011415611ecd57600192505050610729565b506000949350505050565b60009182526097602090815260408084206001600160a01b0393909316845291905290205460ff1690565b600080516020615a27833981519152611f1c813361419e565b6001600160a01b038716600090815260cf602052604090205415611f825760405162461bcd60e51b815260206004820152601d60248201527f5374616b696e6720636f6e66696720616c726561647920657869737473000000604482015260640161083f565b6000835111611fcb5760405162461bcd60e51b81526020600482015260156024820152744d697373696e672074726565496420636f6e66696760581b604482015260640161083f565b60008251116120155760405162461bcd60e51b81526020600482015260166024820152754d697373696e6720736b696c6c496420636f6e66696760501b604482015260640161083f565b82518251146120755760405162461bcd60e51b815260206004820152602660248201527f5472656549647320616e6420536b696c6c49647320617272617973206d757374604482015265040dac2e8c6d60d31b606482015260840161083f565b600084116120955760405162461bcd60e51b815260040161083f90615802565b4285116120b45760405162461bcd60e51b815260040161083f9061584a565b6040516370a0823160e01b81523060048201526000906001600160a01b038816906370a082319060240160206040518083038186803b1580156120f657600080fd5b505afa15801561210a573d6000803e3d6000fd5b505050506040513d601f19601f8201168201806040525081019061212e91906157c3565b116121725760405162461bcd60e51b81526020600482015260146024820152734e6f2066756e647320666f72207265776172647360601b604482015260640161083f565b61217a6142ef565b6001600160a01b03878116600090815260cf602052604081206004810180546001600160a01b031916938a169390931790925586825560019091018590555b83518110156122795760cf6000896001600160a01b03166001600160a01b031681526020019081526020016000206002018482815181106121fc576121fc615637565b6020908102919091018101518254600181018455600093845282842001556001600160a01b038a16825260cf905260409020835160039091019084908390811061224857612248615637565b602090810291909101810151825460018101845560009384529190922001558061227181615663565b9150506121b9565b50604080516001600160a01b038881168252602082018890528916917fc6e5f1ee3138795eeda2fa0aab37379a177c4f04396146dd2b154ab55f5c5585910160405180910390a250505050505050565b60606122d4336118e4565b905090565b600080516020615a278339815191526122f2813361419e565b6122fa6142ef565b6001600160a01b038216600090815260cf60205260408120818155600181018290559061232a6002830182614c8b565b612338600383016000614c8b565b5060040180546001600160a01b03191690556040516001600160a01b038316907fed93036dfb7e5500a2a7f2471a56e6b3389a8c28c72adca8ba9f6a4025ca6d5890600090a25050565b600080516020615a2783398151915261239b813361419e565b6001600160a01b038516600090815260cf60205260409020546124005760405162461bcd60e51b815260206004820152601d60248201527f5374616b696e6720636f6e66696720646f6573206e6f74206578697374000000604482015260640161083f565b600082116124205760405162461bcd60e51b815260040161083f90615802565b42831161243f5760405162461bcd60e51b815260040161083f9061584a565b6040516370a0823160e01b81523060048201526000906001600160a01b038616906370a082319060240160206040518083038186803b15801561248157600080fd5b505afa158015612495573d6000803e3d6000fd5b505050506040513d601f19601f820116820180604052508101906124b991906157c3565b116124fd5760405162461bcd60e51b81526020600482015260146024820152734e6f2066756e647320666f72207265776172647360601b604482015260640161083f565b6125056142ef565b6001600160a01b03858116600081815260cf60209081526040918290206004810180546001600160a01b031916958a169586179055878155600181018790558251948552908401879052927f255d2940ab142f16cd2452c452fc20185bcbc341ce9c1646bc3d4feac9dc3371910160405180910390a2505050505050565b60335460ff16156125a65760405162461bcd60e51b815260040161083f906156c2565b6040516331a9108f60e11b8152600481018290528290829030906001600160a01b03841690636352211e9060240160206040518083038186803b1580156125ec57600080fd5b505afa158015612600573d6000803e3d6000fd5b505050506040513d601f19601f82011682018060405250810190612624919061575c565b6001600160a01b0316141561266c5760405162461bcd60e51b815260206004820152600e60248201526d105b1c9958591e481cdd185ad95960921b604482015260640161083f565b60c95460405163537a724f60e11b8152859185916001600160a01b039091169063a6f4e49e906126a79085908590600090819060040161579d565b60206040518083038186803b1580156126bf57600080fd5b505afa1580156126d3573d6000803e3d6000fd5b505050506040513d601f19601f820116820180604052508101906126f791906157c3565b6001146127165760405162461bcd60e51b815260040161083f906157dc565b6001600160a01b038616600090815260cf602052604090205461276b5760405162461bcd60e51b815260206004820152600d60248201526c496e76616c6964207374616b6560981b604482015260640161083f565b6001600160a01b038616600090815260cf60205260409020544210156127cd5760405162461bcd60e51b815260206004820152601760248201527614dd185ada5b99c81a185cc81b9bdd081cdd185c9d1959604a1b604482015260640161083f565b604051632142170760e11b81526001600160a01b038716906342842e0e906127fd90339030908a90600401615894565b600060405180830381600087803b15801561281757600080fd5b505af115801561282b573d6000803e3d6000fd5b505050506128416128393390565b60cd90614799565b5033600090815260cc6020908152604080832081516060810183526001600160a01b038b811682528185018b815242948301948552835460018082018655948852959096209151600390950290910180546001600160a01b0319169490911693909317835592519282019290925590516002909101556128bf61128e565b6040518581526001600160a01b0387169033907f5dac0c1b1112564a045ba943c9d50270893e8e826c49be8e7073adc713ab7bd79060200160405180910390a3505050505050565b600080516020615a27833981519152612920813361419e565b82518451148015612932575081518351145b61298f5760405162461bcd60e51b815260206004820152602860248201527f416c6c20696e70757420617272617973206d757374206265207468652073616d6044820152670ca40d8cadccee8d60c31b606482015260840161083f565b60005b8451811015612a03576129f18582815181106129b0576129b0615637565b60200260200101518583815181106129ca576129ca615637565b60200260200101518584815181106129e4576129e4615637565b602002602001015161072f565b806129fb81615663565b915050612992565b5050505050565b60335460ff1615612a2d5760405162461bcd60e51b815260040161083f906156c2565b8051825114612a4e5760405162461bcd60e51b815260040161083f9061567e565b60005b82518110156108a257612a96838281518110612a6f57612a6f615637565b6020026020010151838381518110612a8957612a89615637565b60200260200101516133af565b80612aa081615663565b915050612a51565b60335460ff1615612acb5760405162461bcd60e51b815260040161083f906156c2565b8251845114612aec5760405162461bcd60e51b815260040161083f9061567e565b8151845114612b495760405162461bcd60e51b815260206004820152602360248201527f6164647265737320636f756e74206d757374206d61746368207472656520636f6044820152621d5b9d60ea1b606482015260840161083f565b8051845114612ba65760405162461bcd60e51b8152602060048201526024808201527f6164647265737320636f756e74206d757374206d6174636820736b696c6c20636044820152631bdd5b9d60e21b606482015260840161083f565b60005b8451811015612a0357612c22858281518110612bc757612bc7615637565b6020026020010151858381518110612be157612be1615637565b6020026020010151858481518110612bfb57612bfb615637565b6020026020010151858581518110612c1557612c15615637565b6020026020010151613b25565b80612c2c81615663565b915050612ba9565b6000612c40813361419e565b612c486142ef565b6040516370a0823160e01b8152306004820152839083906001600160a01b038316906370a082319060240160206040518083038186803b158015612c8b57600080fd5b505afa158015612c9f573d6000803e3d6000fd5b505050506040513d601f19601f82011682018060405250810190612cc391906157c3565b1015612d085760405162461bcd60e51b8152602060048201526014602482015273496e73756666696369656e742062616c616e636560601b604482015260640161083f565b6040516323b872dd60e01b81526001600160a01b038216906323b872dd90612d3890309089908890600401615894565b602060405180830381600087803b158015612d5257600080fd5b505af1158015612d66573d6000803e3d6000fd5b505050506040513d601f19601f82011682018060405250810190612d8a91906158b8565b50836001600160a01b0316856001600160a01b0316612da63390565b6001600160a01b03167f74ed50f6a2a005dd31f4766fb60918c4a6728cb0da9eeb81b9526bc6da11ec0f86604051612de091815260200190565b60405180910390a45050505050565b6040516331a9108f60e11b8152600481018290528290829030906001600160a01b03841690636352211e9060240160206040518083038186803b158015612e3557600080fd5b505afa158015612e49573d6000803e3d6000fd5b505050506040513d601f19601f82011682018060405250810190612e6d919061575c565b6001600160a01b031614612e935760405162461bcd60e51b815260040161083f90615779565b60c95460405163537a724f60e11b8152859185916001600160a01b039091169063a6f4e49e90612ece9085908590600090819060040161579d565b60206040518083038186803b158015612ee657600080fd5b505afa158015612efa573d6000803e3d6000fd5b505050506040513d601f19601f82011682018060405250810190612f1e91906157c3565b600114612f3d5760405162461bcd60e51b815260040161083f906157dc565b33600090815260cc6020526040902054612f8a5760405162461bcd60e51b815260206004820152600e60248201526d139bc81391951cc81cdd185ad95960921b604482015260640161083f565b33600090815260cc6020908152604080832080548251818502810185019093528083529192909190849084015b8282101561300c576000848152602090819020604080516060810182526003860290920180546001600160a01b0316835260018082015484860152600290910154918301919091529083529092019101612fb7565b50505050905060cc600061301d3390565b6001600160a01b031681526020810191909152604001600090812061304191614ca9565b60005b815181101561324057876001600160a01b031682828151811061306957613069615637565b6020026020010151600001516001600160a01b03161480156130a757508682828151811061309957613099615637565b602002602001015160200151145b1561313a576130d53389898585815181106130c4576130c4615637565b6020026020010151604001516147ae565b33600090815260ca602090815260408083206001600160a01b038c16845282528083208a8452909152812080546001600160a01b031916815560018101829055600281018290556003810182905560048101829055600581018290556006015561322e565b60cc6000336001600160a01b03166001600160a01b03168152602001908152602001600020600001604051806060016040528084848151811061317f5761317f615637565b6020026020010151600001516001600160a01b031681526020018484815181106131ab576131ab615637565b60200260200101516020015181526020018484815181106131ce576131ce615637565b602090810291909101810151604090810151909252835460018082018655600095865294829020845160039092020180546001600160a01b0319166001600160a01b03909216919091178155908301519381019390935501516002909101555b8061323881615663565b915050613044565b5061324961128e565b61325233614850565b6040516323b872dd60e01b81526001600160a01b038816906323b872dd9061328290309033908b90600401615894565b600060405180830381600087803b15801561329c57600080fd5b505af11580156132b0573d6000803e3d6000fd5b50505050866001600160a01b03166132c53390565b6001600160a01b03167fd8654fcc8cf5b36d30b3f5e4688fc78118e6d68de60b9994e09902268b57c3e3886040516132ff91815260200190565b60405180910390a350505050505050565b60606122d4335b6001600160a01b038116600090815260cc60209081526040808320805482518185028101850190935280835260609492939192909184015b828210156133a4576000848152602090819020604080516060810182526003860290920180546001600160a01b031683526001808201548486015260029091015491830191909152908352909201910161334f565b505050509050919050565b60335460ff16156133d25760405162461bcd60e51b815260040161083f906156c2565b6040516331a9108f60e11b8152600481018290528290829030906001600160a01b03841690636352211e9060240160206040518083038186803b15801561341857600080fd5b505afa15801561342c573d6000803e3d6000fd5b505050506040513d601f19601f82011682018060405250810190613450919061575c565b6001600160a01b031614156134985760405162461bcd60e51b815260206004820152600e60248201526d105b1c9958591e481cdd185ad95960921b604482015260640161083f565b6001600160a01b038416600090815260d060205260408120906134bb8686611e15565b9050801561350b5760405162461bcd60e51b815260206004820152601860248201527f5374616b696e6720616c726561647920756e6c6f636b65640000000000000000604482015260640161083f565b6001600160a01b038616600090815260cf60205260409020546135695760405162461bcd60e51b815260206004820152601660248201527514dd185ada5b99c81b9bdd0818dbdb999a59dd5c995960521b604482015260640161083f565b6001600160a01b038616600090815260cf60205260409020544210156135cb5760405162461bcd60e51b815260206004820152601760248201527614dd185ada5b99c81a185cc81b9bdd081cdd185c9d1959604a1b604482015260640161083f565b6001600160a01b03868116600090815260cf602052604090206004015416806323b872dd336000805260cb6020527f4239c2c8c3d9b94feb214b0f54d7c869ce1ceb63517be57644336cda4967a468546040516001600160e01b031960e085901b16815261363e92913091600401615894565b602060405180830381600087803b15801561365857600080fd5b505af115801561366c573d6000803e3d6000fd5b505050506040513d601f19601f8201168201806040525081019061369091906158b8565b5060c9548354600180860154604051630d126da960e11b81526001600160a01b038c81166004830152602482018c9052604482019490945260648101919091526084810191909152911690631a24db529060a401600060405180830381600087803b1580156136fe57600080fd5b505af1158015613712573d6000803e3d6000fd5b50505050866001600160a01b03166137273390565b6001600160a01b03167f051144eeaaad1c4ee6b1eab928f531a9daf1687b3e0f8db00dae3f5df8c285db886040516132ff91815260200190565b600080516020615a2783398151915261377a813361419e565b5060c980546001600160a01b0319166001600160a01b0392909216919091179055565b6000828152609760205260409020600101546137b9813361419e565b6108a28383614288565b80518251146137e45760405162461bcd60e51b815260040161083f9061567e565b60005b82518110156108a25761382c83828151811061380557613805615637565b602002602001015183838151811061381f5761381f615637565b602002602001015161383e565b8061383681615663565b9150506137e7565b6040516331a9108f60e11b8152600481018290528290829030906001600160a01b03841690636352211e9060240160206040518083038186803b15801561388457600080fd5b505afa158015613898573d6000803e3d6000fd5b505050506040513d601f19601f820116820180604052508101906138bc919061575c565b6001600160a01b0316146138e25760405162461bcd60e51b815260040161083f90615779565b60c95460405163537a724f60e11b8152859185916001600160a01b039091169063a6f4e49e9061391d9085908590600090819060040161579d565b60206040518083038186803b15801561393557600080fd5b505afa158015613949573d6000803e3d6000fd5b505050506040513d601f19601f8201168201806040525081019061396d91906157c3565b60011461398c5760405162461bcd60e51b815260040161083f906157dc565b33600090815260ca602090815260408083206001600160a01b038a1684528252808320888452909152902060058101546139f75760405162461bcd60e51b815260206004820152600c60248201526b4e6f7420747261696e696e6760a01b604482015260640161083f565b42816006015411613a4a5760405162461bcd60e51b815260206004820152601960248201527f547261696e696e6720616c72656164792066696e697368656400000000000000604482015260640161083f565b60005b33600090815260cc6020526040902054811015613ac05733600090815260cc60205260409020805488919083908110613a8857613a88615637565b9060005260206000209060030201600101541415613aae57613aa9336110d0565b613ac0565b80613ab881615663565b915050613a4d565b50600381015460048201546040805189815260208101939093528201524260608201526001600160a01b0388169033907fc9b7c59fa980251f7ca7eae784c953e8a9f49d617be6edca0b41264ea05cb1699060800161121a565b60006122d433610aaf565b60335460ff1615613b485760405162461bcd60e51b815260040161083f906156c2565b6040516331a9108f60e11b8152600481018490528490849030906001600160a01b03841690636352211e9060240160206040518083038186803b158015613b8e57600080fd5b505afa158015613ba2573d6000803e3d6000fd5b505050506040513d601f19601f82011682018060405250810190613bc6919061575c565b6001600160a01b031614613bec5760405162461bcd60e51b815260040161083f90615779565b60c95460405163537a724f60e11b8152879187916001600160a01b039091169063a6f4e49e90613c279085908590600090819060040161579d565b60206040518083038186803b158015613c3f57600080fd5b505afa158015613c53573d6000803e3d6000fd5b505050506040513d601f19601f82011682018060405250810190613c7791906157c3565b600114613c965760405162461bcd60e51b815260040161083f906157dc565b6001600160a01b038816600090815260cf602052604090208054613cfc5760405162461bcd60e51b815260206004820152601e60248201527f4e6f20747261696e696e672073657373696f6e20636f6e666967757265640000604482015260640161083f565b8054421015613d4d5760405162461bcd60e51b815260206004820152601c60248201527f547261696e696e6720686173206e6f7420737461727465642079657400000000604482015260640161083f565b33600090815260ca602090815260408083206001600160a01b038d16845282528083208b84529091529020600581015415613dca5760405162461bcd60e51b815260206004820152601f60248201527f547261696e696e6720697320616c726561647920696e2070726f677265737300604482015260640161083f565b6000613dd68b8b611395565b90506000815111613e295760405162461bcd60e51b815260206004820152601e60248201527f4e6f20747261696e696e672073657373696f6e7320617661696c61626c650000604482015260640161083f565b6000805b8251811015613e725789838281518110613e4957613e49615637565b60200260200101511415613e605760019150613e72565b80613e6a81615663565b915050613e2d565b5080613ec05760405162461bcd60e51b815260206004820152601760248201527f496e76616c696420747261696e696e67206f7074696f6e000000000000000000604482015260640161083f565b600060c960009054906101000a90046001600160a01b03166001600160a01b031663a6f4e49e8e8e8e8e6040518563ffffffff1660e01b8152600401613f09949392919061579d565b60206040518083038186803b158015613f2157600080fd5b505afa158015613f35573d6000803e3d6000fd5b505050506040513d601f19601f82011682018060405250810190613f5991906157c3565b9050600060cb81613f6b846001615703565b815260200190815260200160002090508560010154826001613f8d9190615703565b1115613fdb5760405162461bcd60e51b815260206004820152601e60248201527f45786365656473206d6178696d756d20747261696e696e67206c6576656c0000604482015260640161083f565b80546140295760405162461bcd60e51b815260206004820152601d60248201527f547261696e696e67204c6576656c206973206e6f7420656e61626c6564000000604482015260640161083f565b60048681015482546040516323b872dd60e01b81526001600160a01b03909216926323b872dd9261405e923392309201615894565b602060405180830381600087803b15801561407857600080fd5b505af115801561408c573d6000803e3d6000fd5b505050506040513d601f19601f820116820180604052508101906140b091906158b8565b506140bc826001615703565b6002860155600385018c9055600485018b9055426005860181905560018201546140e591615703565b600686015584546001600160a01b0319166001600160a01b038f169081178655600186018e9055336001600160a01b03167f98d1944772cc1ee399725448c633b3ec863f8be81e490479055d810afaa0225c8f8f8f614145886001615703565b60058c015460068d0154604080519687526020870195909552938501929092526060840152608083015260a082015260c00160405180910390a35050505050505050505050505050565b6001600160a01b03163b151590565b6141a88282611ed8565b610aab576141c0816001600160a01b0316601461489a565b6141cb83602061489a565b6040516020016141dc929190615906565b60408051601f198184030181529082905262461bcd60e51b825261083f9160040161597b565b61420c8282611ed8565b610aab5760008281526097602090815260408083206001600160a01b03851684529091529020805460ff191660011790556142443390565b6001600160a01b0316816001600160a01b0316837f2f8788117e7eff1d82e926ec794901d17c78024a50270940304540a733656f0d60405160405180910390a45050565b6142928282611ed8565b15610aab5760008281526097602090815260408083206001600160a01b0385168085529252808320805460ff1916905551339285917ff6391f5c32d9c69d2a47ea670b442974b53935d1edc7fd64eb21e047a839171b9190a45050565b60005b6142fc60cd6143b6565b811015610c7b5761431161129760cd836143c0565b8061431b81615663565b9150506142f2565b60335460ff1661436c5760405162461bcd60e51b815260206004820152601460248201527314185d5cd8589b194e881b9bdd081c185d5cd95960621b604482015260640161083f565b6033805460ff191690557f5db9ee0a495bf2e6ff9c91a7834c1ba4fdd244a5e8aa4e537bd38aeae4b073aa335b6040516001600160a01b03909116815260200160405180910390a1565b6000610729825490565b60006143cc8383614a35565b9392505050565b606060006143cc83614a5f565b60028101805442909155815460018301546108a29185916001600160a01b0390911690846147ae565b6001600160a01b038116600090815260cc60205260408120905b81548110156108a257614445838360000183815481106110f1576110f1615637565b8061444f81615663565b915050614423565b6001600160a01b038116600090815260d1602052604090205468a2a15d09519be0000081106144d7576001600160a01b038216600081815260cc60209081526040918290205482519081529081018490527fb4dbe8af97297f3ecbb538955ef6410079ad6268c887a438d8af7ab49dd3602b910160405180910390a25050565b6001600160a01b038216600090815260d1602052604080822091909155516370a0823160e01b815230600482015273892d81221484f690c0a97d3dd18b9144a3ecdfb790829082906370a082319060240160206040518083038186803b15801561454057600080fd5b505afa158015614554573d6000803e3d6000fd5b505050506040513d601f19601f8201168201806040525081019061457891906157c3565b10156145c65760405162461bcd60e51b815260206004820181905260248201527f496e73756666696369656e74207265776172647320696e20636f6e7472616374604482015260640161083f565b60405163a9059cbb60e01b81526001600160a01b0384811660048301526024820184905282169063a9059cbb90604401602060405180830381600087803b15801561461057600080fd5b505af1158015614624573d6000803e3d6000fd5b505050506040513d601f19601f8201168201806040525081019061464891906158b8565b506001600160a01b038316600090815260cc602052604090205415801561468557506001600160a01b038316600090815260d16020526040902054155b1561469957614697335b60cd90614abb565b505b806001600160a01b0316836001600160a01b03167ff7a40077ff7a04c7e61f6f26fb13774259ddf1b6bce9ecf26a8276cdd3992683846040516146de91815260200190565b60405180910390a3505050565b600054610100900460ff166147125760405162461bcd60e51b815260040161083f906159ae565b6112a5614ad0565b600054610100900460ff166112a55760405162461bcd60e51b815260040161083f906159ae565b60335460ff16156147645760405162461bcd60e51b815260040161083f906156c2565b6033805460ff191660011790557f62e78cea01bee320cd4e420270b5ea74000d11b0c9f74754ebdbfc544b05a2586143993390565b60006143cc836001600160a01b038416614b03565b8015806147bb5750428110155b156147c55761484a565b60006147d182426156ec565b905060006147df8585611d2c565b9050806147eb81615663565b91508290506201518061480683670de0b6b3a764000061571b565b614810919061573a565b61481a919061571b565b6001600160a01b038716600090815260d1602052604081208054909190614842908490615703565b909155505050505b50505050565b6001600160a01b038116600090815260cc602052604090205415801561488c57506001600160a01b038116600090815260d16020526040902054155b15610c7b57610aab3361468f565b606060006148a983600261571b565b6148b4906002615703565b6001600160401b038111156148cb576148cb614d66565b6040519080825280601f01601f1916602001820160405280156148f5576020820181803683370190505b509050600360fc1b8160008151811061491057614910615637565b60200101906001600160f81b031916908160001a905350600f60fb1b8160018151811061493f5761493f615637565b60200101906001600160f81b031916908160001a905350600061496384600261571b565b61496e906001615703565b90505b60018111156149e6576f181899199a1a9b1b9c1cb0b131b232b360811b85600f16601081106149a2576149a2615637565b1a60f81b8282815181106149b8576149b8615637565b60200101906001600160f81b031916908160001a90535060049490941c936149df816159f9565b9050614971565b5083156143cc5760405162461bcd60e51b815260206004820181905260248201527f537472696e67733a20686578206c656e67746820696e73756666696369656e74604482015260640161083f565b6000826000018281548110614a4c57614a4c615637565b9060005260206000200154905092915050565b606081600001805480602002602001604051908101604052809291908181526020018280548015614aaf57602002820191906000526020600020905b815481526020019060010190808311614a9b575b50505050509050919050565b60006143cc836001600160a01b038416614b52565b600054610100900460ff16614af75760405162461bcd60e51b815260040161083f906159ae565b6033805460ff19169055565b6000818152600183016020526040812054614b4a57508154600181810184556000848152602080822090930184905584548482528286019093526040902091909155610729565b506000610729565b60008181526001830160205260408120548015614c3b576000614b766001836156ec565b8554909150600090614b8a906001906156ec565b9050818114614bef576000866000018281548110614baa57614baa615637565b9060005260206000200154905080876000018481548110614bcd57614bcd615637565b6000918252602080832090910192909255918252600188019052604090208390555b8554869080614c0057614c00615a10565b600190038181906000526020600020016000905590558560010160008681526020019081526020016000206000905560019350505050610729565b6000915050610729565b6040518060e0016040528060006001600160a01b031681526020016000815260200160008152602001600081526020016000815260200160008152602001600081525090565b5080546000825590600052602060002090810190610c7b9190614cca565b5080546000825560030290600052602060002090810190610c7b9190614ce3565b5b80821115614cdf5760008155600101614ccb565b5090565b5b80821115614cdf5780546001600160a01b03191681556000600182018190556002820155600301614ce4565b600060208284031215614d2257600080fd5b81356001600160e01b0319811681146143cc57600080fd5b600080600060608486031215614d4f57600080fd5b505081359360208301359350604090920135919050565b634e487b7160e01b600052604160045260246000fd5b604051601f8201601f191681016001600160401b0381118282101715614da457614da4614d66565b604052919050565b60006001600160401b03821115614dc557614dc5614d66565b5060051b60200190565b6001600160a01b0381168114610c7b57600080fd5b600082601f830112614df557600080fd5b81356020614e0a614e0583614dac565b614d7c565b82815260059290921b84018101918181019086841115614e2957600080fd5b8286015b84811015614e4d578035614e4081614dcf565b8352918301918301614e2d565b509695505050505050565b600082601f830112614e6957600080fd5b81356020614e79614e0583614dac565b82815260059290921b84018101918181019086841115614e9857600080fd5b8286015b84811015614e4d5780358352918301918301614e9c565b600080600080600060a08688031215614ecb57600080fd5b85356001600160401b0380821115614ee257600080fd5b614eee89838a01614de4565b96506020880135915080821115614f0457600080fd5b614f1089838a01614e58565b95506040880135915080821115614f2657600080fd5b614f3289838a01614de4565b94506060880135915080821115614f4857600080fd5b614f5489838a01614e58565b93506080880135915080821115614f6a57600080fd5b50614f7788828901614e58565b9150509295509295909350565b600080600080600060808688031215614f9c57600080fd5b8535614fa781614dcf565b94506020860135614fb781614dcf565b93506040860135925060608601356001600160401b0380821115614fda57600080fd5b818801915088601f830112614fee57600080fd5b813581811115614ffd57600080fd5b89602082850101111561500f57600080fd5b9699959850939650602001949392505050565b6000806040838503121561503557600080fd5b82356001600160401b038082111561504c57600080fd5b61505886838701614de4565b9350602085013591508082111561506e57600080fd5b5061507b85828601614e58565b9150509250929050565b60008060006060848603121561509a57600080fd5b83356150a581614dcf565b925060208401356150b581614dcf565b929592945050506040919091013590565b80516001600160a01b031682526020808201519083015260408082015190830152606080820151908301526080808201519083015260a0818101519083015260c090810151910152565b60e0810161072982846150c6565b60006020828403121561513057600080fd5b5035919050565b6000806040838503121561514a57600080fd5b82359150602083013561515c81614dcf565b809150509250929050565b60008060006060848603121561517c57600080fd5b833561518781614dcf565b95602085013595506040909401359392505050565b6000602082840312156151ae57600080fd5b81356143cc81614dcf565b600081518084526020808501945080840160005b8381101561520857815180516001600160a01b03168852838101518489015260409081015190880152606090960195908201906001016151cd565b509495945050505050565b600081518084526020808501945080840160005b8381101561520857815187529582019590820190600101615227565b606080825284519082018190526000906020906080840190828801845b828110156152855781516001600160a01b031684529284019290840190600101615260565b50505083810382850152855180825282820190600581901b8301840188850160005b838110156152d557601f198684030185526152c38383516151b9565b948701949250908601906001016152a7565b505086810360408801526152e98189615213565b9a9950505050505050505050565b6000806040838503121561530a57600080fd5b823561531581614dcf565b946020939093013593505050565b600080600080600060a0868803121561533b57600080fd5b853561534681614dcf565b945060208601359350604086013561535d81614dcf565b94979396509394606081013594506080013592915050565b6020815260006143cc6020830184615213565b6020808252825182820181905260009190848201906040850190845b818110156153ca576153b78385516150c6565b9284019260e092909201916001016153a4565b50909695505050505050565b60008060008060008060c087890312156153ef57600080fd5b86356153fa81614dcf565b9550602087013561540a81614dcf565b9450604087013593506060870135925060808701356001600160401b038082111561543457600080fd5b6154408a838b01614e58565b935060a089013591508082111561545657600080fd5b5061546389828a01614e58565b9150509295509295509295565b6000806000806080858703121561548657600080fd5b843561549181614dcf565b935060208501356154a181614dcf565b93969395505050506040820135916060013590565b6000806000606084860312156154cb57600080fd5b83356001600160401b03808211156154e257600080fd5b6154ee87838801614e58565b9450602086013591508082111561550457600080fd5b61551087838801614e58565b9350604086013591508082111561552657600080fd5b5061553386828701614e58565b9150509250925092565b6000806000806080858703121561555357600080fd5b84356001600160401b038082111561556a57600080fd5b61557688838901614de4565b9550602087013591508082111561558c57600080fd5b61559888838901614e58565b945060408701359150808211156155ae57600080fd5b6155ba88838901614e58565b935060608701359150808211156155d057600080fd5b506155dd87828801614e58565b91505092959194509250565b6020815260006143cc60208301846151b9565b6000806000806080858703121561561257600080fd5b843561561d81614dcf565b966020860135965060408601359560600135945092505050565b634e487b7160e01b600052603260045260246000fd5b634e487b7160e01b600052601160045260246000fd5b60006000198214156156775761567761564d565b5060010190565b60208082526024908201527f6164647265737320636f756e74206d757374206d6174636820746f6b656e20636040820152631bdd5b9d60e21b606082015260800190565b60208082526010908201526f14185d5cd8589b194e881c185d5cd95960821b604082015260600190565b6000828210156156fe576156fe61564d565b500390565b600082198211156157165761571661564d565b500190565b60008160001904831182151516156157355761573561564d565b500290565b60008261575757634e487b7160e01b600052601260045260246000fd5b500490565b60006020828403121561576e57600080fd5b81516143cc81614dcf565b6020808252600a9082015269139bdd081cdd185ad95960b21b604082015260600190565b6001600160a01b0394909416845260208401929092526040830152606082015260800190565b6000602082840312156157d557600080fd5b5051919050565b6020808252600c908201526b139bdd081d5b9b1bd8dad95960a21b604082015260600190565b60208082526028908201527f6d6178506f696e7473506572536b696c6c206d75737420626520677265617465604082015267072207468616e20360c41b606082015260800190565b6020808252602a908201527f737461727454696d65206d7573742062652061206675747572652074696d6520604082015269696e207365636f6e647360b01b606082015260800190565b6001600160a01b039384168152919092166020820152604081019190915260600190565b6000602082840312156158ca57600080fd5b815180151581146143cc57600080fd5b60005b838110156158f55781810151838201526020016158dd565b8381111561484a5750506000910152565b7f416363657373436f6e74726f6c3a206163636f756e742000000000000000000081526000835161593e8160178501602088016158da565b7001034b99036b4b9b9b4b733903937b6329607d1b601791840191820152835161596f8160288401602088016158da565b01602801949350505050565b602081526000825180602084015261599a8160408501602087016158da565b601f01601f19169190910160400192915050565b6020808252602b908201527f496e697469616c697a61626c653a20636f6e7472616374206973206e6f74206960408201526a6e697469616c697a696e6760a81b606082015260800190565b600081615a0857615a0861564d565b506000190190565b634e487b7160e01b600052603160045260246000fdfe73e573f9566d61418a34d5de3ff49360f9c51fec37f7486551670290f6285dab65d7a28e3265b37a6474929f336521b332c1681b933f6cb9f3376673440d862aa264697066735822122069ecc500f74d09577aae409b8a3a16ff474d2be2b46280808b52feb6edff2f8764736f6c63430008090033",
  "linkReferences": {},
  "deployedLinkReferences": {}
}