{
  "_format": "hh-sol-artifact-1",
  "contractName": "ProfessionStakingUpgradeable",
  "sourceName": "contracts/upgradeable/npc/ProfessionStakingUpgradeable.sol",
  "abi": [
    {
      "inputs": [],
      "stateMutability": "nonpayable",
      "type": "constructor"
    },
    {
      "anonymous": false,
      "inputs": [
        {
          "indexed": true,
          "internalType": "address",
          "name": "from",
          "type": "address"
        },
        {
          "indexed": false,
          "internalType": "uint256",
          "name": "stakedCount",
          "type": "uint256"
        },
        {
          "indexed": false,
          "internalType": "uint256",
          "name": "amount",
          "type": "uint256"
        }
      ],
      "name": "ClaimBlocked",
      "type": "event"
    },
    {
      "anonymous": false,
      "inputs": [
        {
          "indexed": true,
          "internalType": "address",
          "name": "by",
          "type": "address"
        },
        {
          "indexed": true,
          "internalType": "address",
          "name": "token",
          "type": "address"
        },
        {
          "indexed": false,
          "internalType": "uint256",
          "name": "amount",
          "type": "uint256"
        }
      ],
      "name": "Claimed",
      "type": "event"
    },
    {
      "anonymous": false,
      "inputs": [
        {
          "indexed": false,
          "internalType": "uint8",
          "name": "version",
          "type": "uint8"
        }
      ],
      "name": "Initialized",
      "type": "event"
    },
    {
      "anonymous": false,
      "inputs": [
        {
          "indexed": false,
          "internalType": "address",
          "name": "account",
          "type": "address"
        }
      ],
      "name": "Paused",
      "type": "event"
    },
    {
      "anonymous": false,
      "inputs": [
        {
          "indexed": true,
          "internalType": "address",
          "name": "from",
          "type": "address"
        },
        {
          "indexed": true,
          "internalType": "address",
          "name": "token",
          "type": "address"
        },
        {
          "indexed": false,
          "internalType": "uint256",
          "name": "amount",
          "type": "uint256"
        }
      ],
      "name": "PoolRewardsDeposited",
      "type": "event"
    },
    {
      "anonymous": false,
      "inputs": [
        {
          "indexed": true,
          "internalType": "address",
          "name": "by",
          "type": "address"
        },
        {
          "indexed": true,
          "internalType": "address",
          "name": "to",
          "type": "address"
        },
        {
          "indexed": true,
          "internalType": "address",
          "name": "token",
          "type": "address"
        },
        {
          "indexed": false,
          "internalType": "uint256",
          "name": "amount",
          "type": "uint256"
        }
      ],
      "name": "PoolRewardsWithdrawn",
      "type": "event"
    },
    {
      "anonymous": false,
      "inputs": [
        {
          "indexed": true,
          "internalType": "bytes32",
          "name": "role",
          "type": "bytes32"
        },
        {
          "indexed": true,
          "internalType": "bytes32",
          "name": "previousAdminRole",
          "type": "bytes32"
        },
        {
          "indexed": true,
          "internalType": "bytes32",
          "name": "newAdminRole",
          "type": "bytes32"
        }
      ],
      "name": "RoleAdminChanged",
      "type": "event"
    },
    {
      "anonymous": false,
      "inputs": [
        {
          "indexed": true,
          "internalType": "bytes32",
          "name": "role",
          "type": "bytes32"
        },
        {
          "indexed": true,
          "internalType": "address",
          "name": "account",
          "type": "address"
        },
        {
          "indexed": true,
          "internalType": "address",
          "name": "sender",
          "type": "address"
        }
      ],
      "name": "RoleGranted",
      "type": "event"
    },
    {
      "anonymous": false,
      "inputs": [
        {
          "indexed": true,
          "internalType": "bytes32",
          "name": "role",
          "type": "bytes32"
        },
        {
          "indexed": true,
          "internalType": "address",
          "name": "account",
          "type": "address"
        },
        {
          "indexed": true,
          "internalType": "address",
          "name": "sender",
          "type": "address"
        }
      ],
      "name": "RoleRevoked",
      "type": "event"
    },
    {
      "anonymous": false,
      "inputs": [
        {
          "indexed": true,
          "internalType": "address",
          "name": "from",
          "type": "address"
        },
        {
          "indexed": true,
          "internalType": "address",
          "name": "nftAddress",
          "type": "address"
        },
        {
          "indexed": false,
          "internalType": "uint256",
          "name": "tokenId",
          "type": "uint256"
        }
      ],
      "name": "Staked",
      "type": "event"
    },
    {
      "anonymous": false,
      "inputs": [
        {
          "indexed": true,
          "internalType": "address",
          "name": "nftAddress",
          "type": "address"
        },
        {
          "indexed": false,
          "internalType": "address",
          "name": "rewardToken",
          "type": "address"
        },
        {
          "indexed": false,
          "internalType": "uint256",
          "name": "startTime",
          "type": "uint256"
        }
      ],
      "name": "StakingConfigCreated",
      "type": "event"
    },
    {
      "anonymous": false,
      "inputs": [
        {
          "indexed": true,
          "internalType": "address",
          "name": "nftAddress",
          "type": "address"
        }
      ],
      "name": "StakingConfigDeleted",
      "type": "event"
    },
    {
      "anonymous": false,
      "inputs": [
        {
          "indexed": true,
          "internalType": "address",
          "name": "nftAddress",
          "type": "address"
        },
        {
          "indexed": false,
          "internalType": "address",
          "name": "rewardToken",
          "type": "address"
        },
        {
          "indexed": false,
          "internalType": "uint256",
          "name": "startTime",
          "type": "uint256"
        }
      ],
      "name": "StakingConfigUpdated",
      "type": "event"
    },
    {
      "anonymous": false,
      "inputs": [
        {
          "indexed": true,
          "internalType": "address",
          "name": "by",
          "type": "address"
        },
        {
          "indexed": true,
          "internalType": "address",
          "name": "nftAddress",
          "type": "address"
        },
        {
          "indexed": false,
          "internalType": "uint256",
          "name": "tokenId",
          "type": "uint256"
        }
      ],
      "name": "StakingUnlocked",
      "type": "event"
    },
    {
      "anonymous": false,
      "inputs": [
        {
          "indexed": true,
          "internalType": "address",
          "name": "by",
          "type": "address"
        },
        {
          "indexed": true,
          "internalType": "address",
          "name": "nftAddress",
          "type": "address"
        },
        {
          "indexed": false,
          "internalType": "uint256",
          "name": "tokenId",
          "type": "uint256"
        },
        {
          "indexed": false,
          "internalType": "uint256",
          "name": "treeId",
          "type": "uint256"
        },
        {
          "indexed": false,
          "internalType": "uint256",
          "name": "skillId",
          "type": "uint256"
        },
        {
          "indexed": false,
          "internalType": "uint256",
          "name": "canceledAt",
          "type": "uint256"
        }
      ],
      "name": "TrainingCanceled",
      "type": "event"
    },
    {
      "anonymous": false,
      "inputs": [
        {
          "indexed": true,
          "internalType": "address",
          "name": "by",
          "type": "address"
        },
        {
          "indexed": true,
          "internalType": "address",
          "name": "nftAddress",
          "type": "address"
        },
        {
          "indexed": false,
          "internalType": "uint256",
          "name": "tokenId",
          "type": "uint256"
        },
        {
          "indexed": false,
          "internalType": "uint256",
          "name": "treeId",
          "type": "uint256"
        },
        {
          "indexed": false,
          "internalType": "uint256",
          "name": "skillId",
          "type": "uint256"
        },
        {
          "indexed": false,
          "internalType": "uint256",
          "name": "level",
          "type": "uint256"
        }
      ],
      "name": "TrainingFinished",
      "type": "event"
    },
    {
      "anonymous": false,
      "inputs": [
        {
          "indexed": true,
          "internalType": "address",
          "name": "by",
          "type": "address"
        },
        {
          "indexed": true,
          "internalType": "address",
          "name": "nftAddress",
          "type": "address"
        },
        {
          "indexed": false,
          "internalType": "uint256",
          "name": "tokenId",
          "type": "uint256"
        },
        {
          "indexed": false,
          "internalType": "uint256",
          "name": "treeId",
          "type": "uint256"
        },
        {
          "indexed": false,
          "internalType": "uint256",
          "name": "skillId",
          "type": "uint256"
        },
        {
          "indexed": false,
          "internalType": "uint256",
          "name": "level",
          "type": "uint256"
        },
        {
          "indexed": false,
          "internalType": "uint256",
          "name": "startedAt",
          "type": "uint256"
        },
        {
          "indexed": false,
          "internalType": "uint256",
          "name": "completeAt",
          "type": "uint256"
        }
      ],
      "name": "TrainingStarted",
      "type": "event"
    },
    {
      "anonymous": false,
      "inputs": [
        {
          "indexed": false,
          "internalType": "address",
          "name": "account",
          "type": "address"
        }
      ],
      "name": "Unpaused",
      "type": "event"
    },
    {
      "anonymous": false,
      "inputs": [
        {
          "indexed": true,
          "internalType": "address",
          "name": "from",
          "type": "address"
        },
        {
          "indexed": true,
          "internalType": "address",
          "name": "nftAddress",
          "type": "address"
        },
        {
          "indexed": false,
          "internalType": "uint256",
          "name": "tokenId",
          "type": "uint256"
        }
      ],
      "name": "Unstaked",
      "type": "event"
    },
    {
      "inputs": [],
      "name": "DEFAULT_ADMIN_ROLE",
      "outputs": [
        {
          "internalType": "bytes32",
          "name": "",
          "type": "bytes32"
        }
      ],
      "stateMutability": "view",
      "type": "function"
    },
    {
      "inputs": [],
      "name": "GAME_STORAGE",
      "outputs": [
        {
          "internalType": "contract IGameStorageUpgradeable",
          "name": "",
          "type": "address"
        }
      ],
      "stateMutability": "view",
      "type": "function"
    },
    {
      "inputs": [],
      "name": "PAUSER_ROLE",
      "outputs": [
        {
          "internalType": "bytes32",
          "name": "",
          "type": "bytes32"
        }
      ],
      "stateMutability": "view",
      "type": "function"
    },
    {
      "inputs": [],
      "name": "UPDATER_ROLE",
      "outputs": [
        {
          "internalType": "bytes32",
          "name": "",
          "type": "bytes32"
        }
      ],
      "stateMutability": "view",
      "type": "function"
    },
    {
      "inputs": [
        {
          "internalType": "address[]",
          "name": "addresses",
          "type": "address[]"
        },
        {
          "internalType": "uint256[]",
          "name": "indexes",
          "type": "uint256[]"
        },
        {
          "internalType": "address[]",
          "name": "nftAddresses",
          "type": "address[]"
        },
        {
          "internalType": "uint256[]",
          "name": "tokenIds",
          "type": "uint256[]"
        },
        {
          "internalType": "uint256[]",
          "name": "rewardFrom",
          "type": "uint256[]"
        }
      ],
      "name": "adminBatchUpdateNftData",
      "outputs": [],
      "stateMutability": "nonpayable",
      "type": "function"
    },
    {
      "inputs": [
        {
          "internalType": "address",
          "name": "_address",
          "type": "address"
        },
        {
          "internalType": "uint256",
          "name": "index",
          "type": "uint256"
        },
        {
          "internalType": "address",
          "name": "nftAddress",
          "type": "address"
        },
        {
          "internalType": "uint256",
          "name": "tokenId",
          "type": "uint256"
        },
        {
          "internalType": "uint256",
          "name": "rewardFrom",
          "type": "uint256"
        }
      ],
      "name": "adminUpdateNftData",
      "outputs": [],
      "stateMutability": "nonpayable",
      "type": "function"
    },
    {
      "inputs": [
        {
          "internalType": "address[]",
          "name": "nftAddresses",
          "type": "address[]"
        },
        {
          "internalType": "uint256[]",
          "name": "tokenIds",
          "type": "uint256[]"
        }
      ],
      "name": "batchCancelTraining",
      "outputs": [],
      "stateMutability": "nonpayable",
      "type": "function"
    },
    {
      "inputs": [
        {
          "internalType": "address[]",
          "name": "nftAddresses",
          "type": "address[]"
        },
        {
          "internalType": "uint256[]",
          "name": "tokenIds",
          "type": "uint256[]"
        }
      ],
      "name": "batchEnableStaking",
      "outputs": [],
      "stateMutability": "nonpayable",
      "type": "function"
    },
    {
      "inputs": [
        {
          "internalType": "address[]",
          "name": "nftAddresses",
          "type": "address[]"
        },
        {
          "internalType": "uint256[]",
          "name": "tokenIds",
          "type": "uint256[]"
        }
      ],
      "name": "batchFinishTraining",
      "outputs": [],
      "stateMutability": "nonpayable",
      "type": "function"
    },
    {
      "inputs": [
        {
          "internalType": "uint256[]",
          "name": "level",
          "type": "uint256[]"
        },
        {
          "internalType": "uint256[]",
          "name": "cost",
          "type": "uint256[]"
        },
        {
          "internalType": "uint256[]",
          "name": "time",
          "type": "uint256[]"
        }
      ],
      "name": "batchSetTrainingCosts",
      "outputs": [],
      "stateMutability": "nonpayable",
      "type": "function"
    },
    {
      "inputs": [
        {
          "internalType": "address[]",
          "name": "nftAddresses",
          "type": "address[]"
        },
        {
          "internalType": "uint256[]",
          "name": "tokenIds",
          "type": "uint256[]"
        }
      ],
      "name": "batchStake",
      "outputs": [],
      "stateMutability": "nonpayable",
      "type": "function"
    },
    {
      "inputs": [
        {
          "internalType": "address[]",
          "name": "nftAddresses",
          "type": "address[]"
        },
        {
          "internalType": "uint256[]",
          "name": "tokenIds",
          "type": "uint256[]"
        },
        {
          "internalType": "uint256[]",
          "name": "treeIds",
          "type": "uint256[]"
        },
        {
          "internalType": "uint256[]",
          "name": "skillIds",
          "type": "uint256[]"
        }
      ],
      "name": "batchStartTraining",
      "outputs": [],
      "stateMutability": "nonpayable",
      "type": "function"
    },
    {
      "inputs": [
        {
          "internalType": "address[]",
          "name": "nftAddresses",
          "type": "address[]"
        },
        {
          "internalType": "uint256[]",
          "name": "tokenIds",
          "type": "uint256[]"
        }
      ],
      "name": "batchUnstake",
      "outputs": [],
      "stateMutability": "nonpayable",
      "type": "function"
    },
    {
      "inputs": [
        {
          "internalType": "address",
          "name": "nftAddress",
          "type": "address"
        },
        {
          "internalType": "uint256",
          "name": "tokenId",
          "type": "uint256"
        }
      ],
      "name": "cancelTraining",
      "outputs": [],
      "stateMutability": "nonpayable",
      "type": "function"
    },
    {
      "inputs": [],
      "name": "claim",
      "outputs": [],
      "stateMutability": "nonpayable",
      "type": "function"
    },
    {
      "inputs": [
        {
          "internalType": "address",
          "name": "nftAddress",
          "type": "address"
        },
        {
          "internalType": "address",
          "name": "rewardToken",
          "type": "address"
        },
        {
          "internalType": "uint256",
          "name": "startTime",
          "type": "uint256"
        },
        {
          "internalType": "uint256",
          "name": "maxPointsPerSkill",
          "type": "uint256"
        },
        {
          "internalType": "uint256[]",
          "name": "treeIds",
          "type": "uint256[]"
        },
        {
          "internalType": "uint256[]",
          "name": "skillIds",
          "type": "uint256[]"
        }
      ],
      "name": "createStakingConfig",
      "outputs": [],
      "stateMutability": "nonpayable",
      "type": "function"
    },
    {
      "inputs": [
        {
          "internalType": "address",
          "name": "nftAddress",
          "type": "address"
        }
      ],
      "name": "deleteStakingConfig",
      "outputs": [],
      "stateMutability": "nonpayable",
      "type": "function"
    },
    {
      "inputs": [
        {
          "internalType": "address",
          "name": "nftAddress",
          "type": "address"
        },
        {
          "internalType": "uint256",
          "name": "tokenId",
          "type": "uint256"
        }
      ],
      "name": "enableStaking",
      "outputs": [],
      "stateMutability": "nonpayable",
      "type": "function"
    },
    {
      "inputs": [
        {
          "internalType": "address",
          "name": "nftAddress",
          "type": "address"
        },
        {
          "internalType": "uint256",
          "name": "tokenId",
          "type": "uint256"
        }
      ],
      "name": "finishTraining",
      "outputs": [],
      "stateMutability": "nonpayable",
      "type": "function"
    },
    {
      "inputs": [
        {
          "internalType": "address",
          "name": "_address",
          "type": "address"
        },
        {
          "internalType": "address",
          "name": "nftAddress",
          "type": "address"
        },
        {
          "internalType": "uint256",
          "name": "tokenId",
          "type": "uint256"
        }
      ],
      "name": "forceCancelTraining",
      "outputs": [],
      "stateMutability": "nonpayable",
      "type": "function"
    },
    {
      "inputs": [],
      "name": "getActiveTraining",
      "outputs": [
        {
          "components": [
            {
              "internalType": "address",
              "name": "_address",
              "type": "address"
            },
            {
              "internalType": "uint256",
              "name": "tokenId",
              "type": "uint256"
            },
            {
              "internalType": "uint256",
              "name": "level",
              "type": "uint256"
            },
            {
              "internalType": "uint256",
              "name": "treeId",
              "type": "uint256"
            },
            {
              "internalType": "uint256",
              "name": "skillId",
              "type": "uint256"
            },
            {
              "internalType": "uint256",
              "name": "startedAt",
              "type": "uint256"
            },
            {
              "internalType": "uint256",
              "name": "completeAt",
              "type": "uint256"
            }
          ],
          "internalType": "struct ProfessionStakingUpgradeable.TrainingStatus[]",
          "name": "",
          "type": "tuple[]"
        }
      ],
      "stateMutability": "view",
      "type": "function"
    },
    {
      "inputs": [
        {
          "internalType": "address",
          "name": "_address",
          "type": "address"
        }
      ],
      "name": "getActiveTrainingOf",
      "outputs": [
        {
          "components": [
            {
              "internalType": "address",
              "name": "_address",
              "type": "address"
            },
            {
              "internalType": "uint256",
              "name": "tokenId",
              "type": "uint256"
            },
            {
              "internalType": "uint256",
              "name": "level",
              "type": "uint256"
            },
            {
              "internalType": "uint256",
              "name": "treeId",
              "type": "uint256"
            },
            {
              "internalType": "uint256",
              "name": "skillId",
              "type": "uint256"
            },
            {
              "internalType": "uint256",
              "name": "startedAt",
              "type": "uint256"
            },
            {
              "internalType": "uint256",
              "name": "completeAt",
              "type": "uint256"
            }
          ],
          "internalType": "struct ProfessionStakingUpgradeable.TrainingStatus[]",
          "name": "",
          "type": "tuple[]"
        }
      ],
      "stateMutability": "view",
      "type": "function"
    },
    {
      "inputs": [],
      "name": "getAllParticipantData",
      "outputs": [
        {
          "internalType": "address[]",
          "name": "addresses",
          "type": "address[]"
        },
        {
          "components": [
            {
              "internalType": "address",
              "name": "_address",
              "type": "address"
            },
            {
              "internalType": "uint256",
              "name": "tokenId",
              "type": "uint256"
            },
            {
              "internalType": "uint256",
              "name": "rewardFrom",
              "type": "uint256"
            }
          ],
          "internalType": "struct ProfessionStakingUpgradeable.NFT[][]",
          "name": "nfts",
          "type": "tuple[][]"
        },
        {
          "internalType": "uint256[]",
          "name": "rewards",
          "type": "uint256[]"
        }
      ],
      "stateMutability": "view",
      "type": "function"
    },
    {
      "inputs": [
        {
          "internalType": "address",
          "name": "nftAddress",
          "type": "address"
        },
        {
          "internalType": "uint256",
          "name": "tokenId",
          "type": "uint256"
        }
      ],
      "name": "getAllowedSkillChoices",
      "outputs": [
        {
          "internalType": "uint256[]",
          "name": "",
          "type": "uint256[]"
        }
      ],
      "stateMutability": "view",
      "type": "function"
    },
    {
      "inputs": [
        {
          "internalType": "bytes32",
          "name": "role",
          "type": "bytes32"
        }
      ],
      "name": "getRoleAdmin",
      "outputs": [
        {
          "internalType": "bytes32",
          "name": "",
          "type": "bytes32"
        }
      ],
      "stateMutability": "view",
      "type": "function"
    },
    {
      "inputs": [],
      "name": "getStaked",
      "outputs": [
        {
          "components": [
            {
              "internalType": "address",
              "name": "_address",
              "type": "address"
            },
            {
              "internalType": "uint256",
              "name": "tokenId",
              "type": "uint256"
            },
            {
              "internalType": "uint256",
              "name": "rewardFrom",
              "type": "uint256"
            }
          ],
          "internalType": "struct ProfessionStakingUpgradeable.NFT[]",
          "name": "",
          "type": "tuple[]"
        }
      ],
      "stateMutability": "view",
      "type": "function"
    },
    {
      "inputs": [
        {
          "internalType": "address",
          "name": "_address",
          "type": "address"
        }
      ],
      "name": "getStakedOf",
      "outputs": [
        {
          "components": [
            {
              "internalType": "address",
              "name": "_address",
              "type": "address"
            },
            {
              "internalType": "uint256",
              "name": "tokenId",
              "type": "uint256"
            },
            {
              "internalType": "uint256",
              "name": "rewardFrom",
              "type": "uint256"
            }
          ],
          "internalType": "struct ProfessionStakingUpgradeable.NFT[]",
          "name": "",
          "type": "tuple[]"
        }
      ],
      "stateMutability": "view",
      "type": "function"
    },
    {
      "inputs": [
        {
          "internalType": "address",
          "name": "ntfAddress",
          "type": "address"
        },
        {
          "internalType": "uint256",
          "name": "tokenId",
          "type": "uint256"
        }
      ],
      "name": "getTotalProfessionSkillPoints",
      "outputs": [
        {
          "internalType": "uint256",
          "name": "",
          "type": "uint256"
        }
      ],
      "stateMutability": "view",
      "type": "function"
    },
    {
      "inputs": [
        {
          "internalType": "address",
          "name": "_address",
          "type": "address"
        },
        {
          "internalType": "address",
          "name": "nftAddress",
          "type": "address"
        },
        {
          "internalType": "uint256",
          "name": "tokenId",
          "type": "uint256"
        }
      ],
      "name": "getTrainingStatus",
      "outputs": [
        {
          "components": [
            {
              "internalType": "address",
              "name": "_address",
              "type": "address"
            },
            {
              "internalType": "uint256",
              "name": "tokenId",
              "type": "uint256"
            },
            {
              "internalType": "uint256",
              "name": "level",
              "type": "uint256"
            },
            {
              "internalType": "uint256",
              "name": "treeId",
              "type": "uint256"
            },
            {
              "internalType": "uint256",
              "name": "skillId",
              "type": "uint256"
            },
            {
              "internalType": "uint256",
              "name": "startedAt",
              "type": "uint256"
            },
            {
              "internalType": "uint256",
              "name": "completeAt",
              "type": "uint256"
            }
          ],
          "internalType": "struct ProfessionStakingUpgradeable.TrainingStatus",
          "name": "",
          "type": "tuple"
        }
      ],
      "stateMutability": "view",
      "type": "function"
    },
    {
      "inputs": [
        {
          "internalType": "bytes32",
          "name": "role",
          "type": "bytes32"
        },
        {
          "internalType": "address",
          "name": "account",
          "type": "address"
        }
      ],
      "name": "grantRole",
      "outputs": [],
      "stateMutability": "nonpayable",
      "type": "function"
    },
    {
      "inputs": [
        {
          "internalType": "bytes32",
          "name": "role",
          "type": "bytes32"
        },
        {
          "internalType": "address",
          "name": "account",
          "type": "address"
        }
      ],
      "name": "hasRole",
      "outputs": [
        {
          "internalType": "bool",
          "name": "",
          "type": "bool"
        }
      ],
      "stateMutability": "view",
      "type": "function"
    },
    {
      "inputs": [],
      "name": "initialize",
      "outputs": [],
      "stateMutability": "nonpayable",
      "type": "function"
    },
    {
      "inputs": [
        {
          "internalType": "address",
          "name": "nftAddress",
          "type": "address"
        },
        {
          "internalType": "uint256",
          "name": "tokenId",
          "type": "uint256"
        }
      ],
      "name": "isStakingEnabled",
      "outputs": [
        {
          "internalType": "bool",
          "name": "",
          "type": "bool"
        }
      ],
      "stateMutability": "view",
      "type": "function"
    },
    {
      "inputs": [
        {
          "internalType": "address",
          "name": "_address",
          "type": "address"
        },
        {
          "internalType": "address",
          "name": "nftAddress",
          "type": "address"
        },
        {
          "internalType": "uint256",
          "name": "tokenId",
          "type": "uint256"
        },
        {
          "internalType": "uint256",
          "name": "skillId",
          "type": "uint256"
        }
      ],
      "name": "modifyActiveTrainingSkill",
      "outputs": [],
      "stateMutability": "nonpayable",
      "type": "function"
    },
    {
      "inputs": [
        {
          "internalType": "address",
          "name": "",
          "type": "address"
        },
        {
          "internalType": "address",
          "name": "",
          "type": "address"
        },
        {
          "internalType": "uint256",
          "name": "",
          "type": "uint256"
        },
        {
          "internalType": "bytes",
          "name": "",
          "type": "bytes"
        }
      ],
      "name": "onERC721Received",
      "outputs": [
        {
          "internalType": "bytes4",
          "name": "",
          "type": "bytes4"
        }
      ],
      "stateMutability": "pure",
      "type": "function"
    },
    {
      "inputs": [],
      "name": "pause",
      "outputs": [],
      "stateMutability": "nonpayable",
      "type": "function"
    },
    {
      "inputs": [],
      "name": "paused",
      "outputs": [
        {
          "internalType": "bool",
          "name": "",
          "type": "bool"
        }
      ],
      "stateMutability": "view",
      "type": "function"
    },
    {
      "inputs": [],
      "name": "pendingRewards",
      "outputs": [
        {
          "internalType": "uint256",
          "name": "",
          "type": "uint256"
        }
      ],
      "stateMutability": "view",
      "type": "function"
    },
    {
      "inputs": [
        {
          "internalType": "address",
          "name": "_address",
          "type": "address"
        }
      ],
      "name": "pendingRewardsOf",
      "outputs": [
        {
          "internalType": "uint256",
          "name": "",
          "type": "uint256"
        }
      ],
      "stateMutability": "view",
      "type": "function"
    },
    {
      "inputs": [
        {
          "internalType": "bytes32",
          "name": "role",
          "type": "bytes32"
        },
        {
          "internalType": "address",
          "name": "account",
          "type": "address"
        }
      ],
      "name": "renounceRole",
      "outputs": [],
      "stateMutability": "nonpayable",
      "type": "function"
    },
    {
      "inputs": [
        {
          "internalType": "bytes32",
          "name": "role",
          "type": "bytes32"
        },
        {
          "internalType": "address",
          "name": "account",
          "type": "address"
        }
      ],
      "name": "revokeRole",
      "outputs": [],
      "stateMutability": "nonpayable",
      "type": "function"
    },
    {
      "inputs": [
        {
          "internalType": "address",
          "name": "_address",
          "type": "address"
        }
      ],
      "name": "setGameStorage",
      "outputs": [],
      "stateMutability": "nonpayable",
      "type": "function"
    },
    {
      "inputs": [
        {
          "internalType": "address",
          "name": "nftAddress",
          "type": "address"
        },
        {
          "internalType": "uint256",
          "name": "treeId",
          "type": "uint256"
        },
        {
          "internalType": "uint256",
          "name": "skillId",
          "type": "uint256"
        }
      ],
      "name": "setSkillPointer",
      "outputs": [],
      "stateMutability": "nonpayable",
      "type": "function"
    },
    {
      "inputs": [
        {
          "internalType": "uint256",
          "name": "level",
          "type": "uint256"
        },
        {
          "internalType": "uint256",
          "name": "cost",
          "type": "uint256"
        },
        {
          "internalType": "uint256",
          "name": "time",
          "type": "uint256"
        }
      ],
      "name": "setTrainingCost",
      "outputs": [],
      "stateMutability": "nonpayable",
      "type": "function"
    },
    {
      "inputs": [
        {
          "internalType": "address",
          "name": "nftAddress",
          "type": "address"
        },
        {
          "internalType": "uint256",
          "name": "tokenId",
          "type": "uint256"
        }
      ],
      "name": "stake",
      "outputs": [],
      "stateMutability": "nonpayable",
      "type": "function"
    },
    {
      "inputs": [
        {
          "internalType": "address",
          "name": "nftAddress",
          "type": "address"
        },
        {
          "internalType": "uint256",
          "name": "tokenId",
          "type": "uint256"
        },
        {
          "internalType": "uint256",
          "name": "treeId",
          "type": "uint256"
        },
        {
          "internalType": "uint256",
          "name": "skillId",
          "type": "uint256"
        }
      ],
      "name": "startTraining",
      "outputs": [],
      "stateMutability": "nonpayable",
      "type": "function"
    },
    {
      "inputs": [
        {
          "internalType": "bytes4",
          "name": "interfaceId",
          "type": "bytes4"
        }
      ],
      "name": "supportsInterface",
      "outputs": [
        {
          "internalType": "bool",
          "name": "",
          "type": "bool"
        }
      ],
      "stateMutability": "view",
      "type": "function"
    },
    {
      "inputs": [],
      "name": "unpause",
      "outputs": [],
      "stateMutability": "nonpayable",
      "type": "function"
    },
    {
      "inputs": [
        {
          "internalType": "address",
          "name": "nftAddress",
          "type": "address"
        },
        {
          "internalType": "uint256",
          "name": "tokenId",
          "type": "uint256"
        }
      ],
      "name": "unstake",
      "outputs": [],
      "stateMutability": "nonpayable",
      "type": "function"
    },
    {
      "inputs": [
        {
          "internalType": "address",
          "name": "nftAddress",
          "type": "address"
        },
        {
          "internalType": "address",
          "name": "rewardToken",
          "type": "address"
        },
        {
          "internalType": "uint256",
          "name": "startTime",
          "type": "uint256"
        },
        {
          "internalType": "uint256",
          "name": "maxPointsPerSkill",
          "type": "uint256"
        }
      ],
      "name": "updateStakingConfig",
      "outputs": [],
      "stateMutability": "nonpayable",
      "type": "function"
    },
    {
      "inputs": [
        {
          "internalType": "address",
          "name": "to",
          "type": "address"
        },
        {
          "internalType": "address",
          "name": "token",
          "type": "address"
        },
        {
          "internalType": "uint256",
          "name": "amount",
          "type": "uint256"
        }
      ],
      "name": "withdrawPoolRewards",
      "outputs": [],
      "stateMutability": "nonpayable",
      "type": "function"
    }
  ],
  "bytecode": "0x60806040523480156200001157600080fd5b50600062000020600162000087565b9050801562000039576000805461ff0019166101001790555b801562000080576000805461ff0019169055604051600181527f7f26b83ff96e1f2b6a682f133852f6798a09c465da95921460cefb38474024989060200160405180910390a15b50620001a8565b60008054610100900460ff161562000120578160ff166001148015620000c05750620000be306200019960201b620041b31760201c565b155b620001185760405162461bcd60e51b815260206004820152602e602482015260008051602062005d5983398151915260448201526d191e481a5b9a5d1a585b1a5e995960921b60648201526084015b60405180910390fd5b506000919050565b60005460ff8084169116106200017f5760405162461bcd60e51b815260206004820152602e602482015260008051602062005d5983398151915260448201526d191e481a5b9a5d1a585b1a5e995960921b60648201526084016200010f565b506000805460ff191660ff92909216919091179055600190565b6001600160a01b03163b151590565b615ba180620001b86000396000f3fe608060405234801561001057600080fd5b50600436106102f15760003560e01c806381fda71d1161019d578063bea64ba2116100e9578063d3a13d42116100a2578063e62ccc9c1161007c578063e62ccc9c146106e3578063e63ab1e9146106f6578063eded3fda1461070b578063fa5887ee1461071357600080fd5b8063d3a13d42146106aa578063d547741f146106bd578063d9a2c1d2146106d057600080fd5b8063bea64ba214610636578063c2a672e014610649578063c59abf9f1461065c578063c75fb3e314610671578063ca61466014610684578063cc3f7b1c1461069757600080fd5b8063a217fddf11610156578063adc9772e11610130578063adc9772e146105ea578063aed2151a146105fd578063aeeba61514610610578063be29c9251461062357600080fd5b8063a217fddf146105bc578063a401344b146105c4578063abfc6e73146105d757600080fd5b806381fda71d146105605780638456cb591461057357806386e8953d1461057b57806391d148541461058e57806394a77066146105a15780639f8f6068146105b457600080fd5b80633988bad81161025c5780634e71d92d116102155780635c975abb116101ef5780635c975abb1461051a578063729c35531461052557806376c7e36a146105385780638129fc1c1461055857600080fd5b80634e71d92d146104df5780634eeea443146104e75780635a2d8800146104fa57600080fd5b80633988bad8146104725780633d564e49146104855780633f4ba83a14610498578063421f72c7146104a057806347e63380146104b75780634cb12fee146104cc57600080fd5b806323de54d8116102ae57806323de54d8146103ca578063248a9ca3146103f55780632f2ff15d1461042657806332b95a6f1461043957806333820bac1461044c57806336568abe1461045f57600080fd5b806301ffc9a7146102f65780630ae7a4611461031e578063139bed4c14610333578063150b7a021461034657806319545487146103975780632119e140146103aa575b600080fd5b610309610304366004614dc7565b610726565b60405190151581526020015b60405180910390f35b61033161032c366004614df1565b61075d565b005b610331610341366004614f6a565b61078e565b61037e61035436600461503b565b7f150b7a023d4804d13e8c85fb27262cb750cf6ba9f9dd3bb30d90f482ceeb4b1f95945050505050565b6040516001600160e01b03199091168152602001610315565b6103316103a53660046150d9565b61084a565b6103bd6103b836600461513c565b6108d3565b60405161031591906151c7565b60c9546103dd906001600160a01b031681565b6040516001600160a01b039091168152602001610315565b6104186104033660046151d5565b60009081526097602052604090206001015490565b604051908152602001610315565b6103316104343660046151ee565b61095d565b6103316104473660046150d9565b610982565b61033161045a36600461521e565b610a20565b61033161046d3660046151ee565b610a5b565b610418610480366004615253565b610ad9565b6103316104933660046150d9565b610c01565b610331610c7c565b6104a8610ca7565b604051610315939291906152fa565b610418600080516020615b2c83398151915281565b6103316104da3660046153ae565b610e91565b6103316112b7565b6103316104f53660046153da565b6112d0565b61050d6105083660046153ae565b6113bd565b604051610315919061542c565b60335460ff16610309565b61033161053336600461513c565b6118a4565b61054b610546366004615253565b611917565b604051610315919061543f565b610331611c5c565b61041861056e3660046153ae565b611d13565b610331611dd3565b6103096105893660046153ae565b611dfb565b61030961059c3660046151ee565b611ebe565b6103316105af36600461548d565b611ee9565b61054b6122ae565b610418600081565b6103316105d2366004615253565b6122be565b6103316105e5366004615527565b612366565b6103316105f83660046153ae565b612566565b61033161060b36600461556d565b6128ea565b61033161061e3660046150d9565b6129ec565b6103316106313660046155f4565b612a8a565b61033161064436600461513c565b612c16565b6103316106573660046153ae565b612dd0565b6106646132f1565b60405161031591906156a0565b61066461067f366004615253565b6132f8565b610331610692366004615527565b613390565b6103316106a53660046153ae565b6133d5565b6103316106b8366004615253565b613787565b6103316106cb3660046151ee565b6137c2565b6103316106de3660046150d9565b6137e7565b6103316106f13660046153ae565b613862565b610418600080516020615b4c83398151915281565b610418613b3e565b6103316107213660046156b3565b613b49565b60006001600160e01b03198216637965db0b60e01b148061075757506301ffc9a760e01b6001600160e01b03198316145b92915050565b600080516020615b2c833981519152610775816141c2565b50600092835260cb602052604090922090815560010155565b6000610799816141c2565b60005b86518110156108415761082f8782815181106107ba576107ba6156ee565b60200260200101518783815181106107d4576107d46156ee565b60200260200101518784815181106107ee576107ee6156ee565b6020026020010151878581518110610808576108086156ee565b6020026020010151878681518110610822576108226156ee565b60200260200101516112d0565b806108398161571a565b91505061079c565b50505050505050565b80518251146108745760405162461bcd60e51b815260040161086b90615735565b60405180910390fd5b60005b82518110156108ce576108bc838281518110610895576108956156ee565b60200260200101518383815181106108af576108af6156ee565b6020026020010151610e91565b806108c68161571a565b915050610877565b505050565b6108db614cfc565b506001600160a01b03928316600090815260ca602090815260408083209486168352938152838220928252918252829020825160e081018452815490941684526001810154918401919091526002810154918301919091526003810154606083015260048101546080830152600581015460a08301526006015460c082015290565b600082815260976020526040902060010154610978816141c2565b6108ce83836141cc565b60335460ff16156109a55760405162461bcd60e51b815260040161086b90615779565b80518251146109c65760405162461bcd60e51b815260040161086b90615735565b60005b82518110156108ce57610a0e8382815181106109e7576109e76156ee565b6020026020010151838381518110610a0157610a016156ee565b6020026020010151612566565b80610a188161571a565b9150506109c9565b600080516020615b2c833981519152610a38816141c2565b506001600160a01b03909216600090815260d06020526040902090815560010155565b6001600160a01b0381163314610acb5760405162461bcd60e51b815260206004820152602f60248201527f416363657373436f6e74726f6c3a2063616e206f6e6c792072656e6f756e636560448201526e103937b632b9903337b91039b2b63360891b606482015260840161086b565b610ad58282614252565b5050565b6001600160a01b038116600090815260d1602090815260408083205460cc9092528220825b8154811015610bf8576000826000018281548110610b1e57610b1e6156ee565b90600052602060002090600302016002015442610b3b91906157a3565b90506000610b9f846000018481548110610b5757610b576156ee565b600091825260209091206003909102015485546001600160a01b0390911690869086908110610b8857610b886156ee565b906000526020600020906003020160010154611d13565b90508162015180610bb18360016157ba565b610bc390670de0b6b3a76400006157d2565b610bcd91906157f1565b610bd791906157d2565b610be190866157ba565b945050508080610bf09061571a565b915050610afe565b50909392505050565b8051825114610c225760405162461bcd60e51b815260040161086b90615735565b60005b82518110156108ce57610c6a838281518110610c4357610c436156ee565b6020026020010151838381518110610c5d57610c5d6156ee565b6020026020010151612dd0565b80610c748161571a565b915050610c25565b600080516020615b4c833981519152610c94816141c2565b610c9c6142b9565b610ca46142ed565b50565b60608060606000610cb860cd614380565b9050806001600160401b03811115610cd257610cd2614e1d565b604051908082528060200260200182016040528015610cfb578160200160208202803683370190505b509150806001600160401b03811115610d1657610d16614e1d565b604051908082528060200260200182016040528015610d4957816020015b6060815260200190600190039081610d345790505b50925060005b81811015610e7e5760cc6000610d6660cd8461438a565b6001600160a01b03166001600160a01b03168152602001908152602001600020600001805480602002602001604051908101604052809291908181526020016000905b82821015610dfe576000848152602090819020604080516060810182526003860290920180546001600160a01b0316835260018082015484860152600290910154918301919091529083529092019101610da9565b50505050848281518110610e1457610e146156ee565b602090810291909101015260d16000610e2e60cd8461438a565b6001600160a01b03166001600160a01b0316815260200190815260200160002054838281518110610e6157610e616156ee565b602090810291909101015280610e768161571a565b915050610d4f565b50610e8960cd61439d565b935050909192565b6040516331a9108f60e11b8152600481018290528290829030906001600160a01b03841690636352211e9060240160206040518083038186803b158015610ed757600080fd5b505afa158015610eeb573d6000803e3d6000fd5b505050506040513d601f19601f82011682018060405250810190610f0f9190615813565b6001600160a01b031614610f355760405162461bcd60e51b815260040161086b90615830565b60c95460405163537a724f60e11b8152859185916001600160a01b039091169063a6f4e49e90610f7090859085906000908190600401615854565b60206040518083038186803b158015610f8857600080fd5b505afa158015610f9c573d6000803e3d6000fd5b505050506040513d601f19601f82011682018060405250810190610fc0919061587a565b600114610fdf5760405162461bcd60e51b815260040161086b90615893565b33600090815260ca602090815260408083206001600160a01b038a16845282528083208884529091529020600581015461104a5760405162461bcd60e51b815260206004820152600c60248201526b4e6f7420747261696e696e6760a01b604482015260640161086b565b428160060154111561109e5760405162461bcd60e51b815260206004820152601a60248201527f547261696e696e67207374696c6c20696e2070726f6772657373000000000000604482015260640161086b565b60005b33600090815260cc60205260409020548110156111445733600090815260cc602052604090208054889190839081106110dc576110dc6156ee565b90600052602060002090600302016001015414156111325761112d335b33600090815260cc6020526040902080548490811061111a5761111a6156ee565b90600052602060002090600302016143aa565b611144565b8061113c8161571a565b9150506110a1565b5060c95460038201546004808401546002850154604051630d126da960e11b81526001600160a01b038d811694820194909452602481018c905260448101949094526064840191909152608483015290911690631a24db529060a401600060405180830381600087803b1580156111ba57600080fd5b505af11580156111ce573d6000803e3d6000fd5b50505050866001600160a01b03166111e33390565b6001600160a01b03167f4cffb663b46d78e759211fc8a998ed5dd16066c4229b4b4e94bc0ff7431e85a888846003015485600401548660020154604051611243949392919093845260208401929092526040830152606082015260800190565b60405180910390a3505033600090815260ca602090815260408083206001600160a01b039890981683529681528682209582529490945250505090812080546001600160a01b0319168155600181018290556002810182905560038101829055600481018290556005810182905560060155565b6112c5336143d3565b6143d3565b6112ce33614421565b565b60006112db816141c2565b6001600160a01b038616600090815260cc60205260409020805485919087908110611308576113086156ee565b6000918252602080832060039290920290910180546001600160a01b0319166001600160a01b03948516179055918816815260cc90915260409020805484919087908110611358576113586156ee565b600091825260209091206001600390920201015581156113b5576001600160a01b038616600090815260cc6020526040902080548391908790811061139f5761139f6156ee565b9060005260206000209060030201600201819055505b505050505050565b6001600160a01b038216600090815260cf60209081526040808320815160a0810183528154815260018201548185015260028201805484518187028101870186528181526060979693958601939092919083018282801561143d57602002820191906000526020600020905b815481526020019060010190808311611429575b505050505081526020016003820180548060200260200160405190810160405280929190818152602001828054801561149557602002820191906000526020600020905b815481526020019060010190808311611481575b5050509183525050600491909101546001600160a01b031660209091015280519091506115045760405162461bcd60e51b815260206004820152601e60248201527f4e6f20747261696e696e672073657373696f6e20636f6e666967757265640000604482015260640161086b565b60008160400151516001600160401b0381111561152357611523614e1d565b60405190808252806020026020018201604052801561154c578160200160208202803683370190505b50905060008060005b8460400151518110156116bb5760c954604086015180516001600160a01b039092169163a6f4e49e918b918b919086908110611593576115936156ee565b6020026020010151896060015186815181106115b1576115b16156ee565b60200260200101516040518563ffffffff1660e01b81526004016115d89493929190615854565b60206040518083038186803b1580156115f057600080fd5b505afa158015611604573d6000803e3d6000fd5b505050506040513d601f19601f82011682018060405250810190611628919061587a565b84828151811061163a5761163a6156ee565b602002602001018181525050600084828151811061165a5761165a6156ee565b6020026020010151111561167657826116728161571a565b9350505b846020015184828151811061168d5761168d6156ee565b602002602001015114156116a957816116a58161571a565b9250505b806116b38161571a565b915050611555565b50816116cf57505050606001519050610757565b80600214156116e657506060935061075792505050565b600060018560400151516116fa91906157a3565b6001600160401b0381111561171157611711614e1d565b60405190808252806020026020018201604052801561173a578160200160208202803683370190505b5090506000805b85518110156118965783600114801561175a5750846001145b801561177f5750858181518110611773576117736156ee565b60200260200101516000145b156117cd578660600151818151811061179a5761179a6156ee565b60200260200101518383815181106117b4576117b46156ee565b6020908102919091010152816117c98161571a565b9250505b60008682815181106117e1576117e16156ee565b602002602001015111801561181257508660200151868281518110611808576118086156ee565b6020026020010151105b1561188457604080516001808252818301909252600091602080830190803683370190505090508760600151828151811061184f5761184f6156ee565b60200260200101518160008151811061186a5761186a6156ee565b602090810291909101015297506107579650505050505050565b8061188e8161571a565b915050611741565b509098975050505050505050565b60006118af816141c2565b506001600160a01b03928316600090815260ca60209081526040808320949095168252928352838120918152915290812080546001600160a01b0319168155600181018290556002810182905560038101829055600481018290556005810182905560060155565b6001600160a01b038116600090815260cc60209081526040808320805482518185028101850190935280835260609493849084015b828210156119a1576000848152602090819020604080516060810182526003860290920180546001600160a01b031683526001808201548486015260029091015491830191909152908352909201910161194c565b5050505090506000805b8251811015611ac1576001600160a01b038516600090815260ca60205260408120845182908690859081106119e2576119e26156ee565b6020026020010151600001516001600160a01b03166001600160a01b031681526020019081526020016000206000858481518110611a2257611a226156ee565b6020908102919091018101518101518252818101929092526040908101600020815160e08101835281546001600160a01b031681526001820154938101939093526002810154918301919091526003810154606083015260048101546080830152600581015460a08301526006015460c0820181905290915015611aae5782611aaa8161571a565b9350505b5080611ab98161571a565b9150506119ab565b506000816001600160401b03811115611adc57611adc614e1d565b604051908082528060200260200182016040528015611b1557816020015b611b02614cfc565b815260200190600190039081611afa5790505b5090506000805b8451811015611c51576001600160a01b038716600090815260ca6020526040812086518290889085908110611b5357611b536156ee565b6020026020010151600001516001600160a01b03166001600160a01b031681526020019081526020016000206000878481518110611b9357611b936156ee565b6020908102919091018101518101518252818101929092526040908101600020815160e08101835281546001600160a01b031681526001820154938101939093526002810154918301919091526003810154606083015260048101546080830152600581015460a08301526006015460c0820181905290915015611c3e5780848481518110611c2457611c246156ee565b60200260200101819052508280611c3a9061571a565b9350505b5080611c498161571a565b915050611b1c565b509095945050505050565b6000611c6860016146b6565b90508015611c80576000805461ff0019166101001790555b611c8861473e565b611c9061476d565b611c9b6000336141cc565b611cb3600080516020615b4c833981519152336141cc565b611ccb600080516020615b2c833981519152336141cc565b8015610ca4576000805461ff0019169055604051600181527f7f26b83ff96e1f2b6a682f133852f6798a09c465da95921460cefb38474024989060200160405180910390a150565b600080805b600c811015611dcb5760c95460405163537a724f60e11b81526000916001600160a01b03169063a6f4e49e90611d5990899089906001908890600401615854565b60206040518083038186803b158015611d7157600080fd5b505afa158015611d85573d6000803e3d6000fd5b505050506040513d601f19601f82011682018060405250810190611da9919061587a565b9050611db581846157ba565b9250508080611dc39061571a565b915050611d18565b509392505050565b600080516020615b4c833981519152611deb816141c2565b611df36142b9565b610ca4614794565b6001600160a01b03808316600090815260d0602052604080822060c95481546001830154935163537a724f60e11b8152949592948694929093169263a6f4e49e92611e4d928a928a9290600401615854565b60206040518083038186803b158015611e6557600080fd5b505afa158015611e79573d6000803e3d6000fd5b505050506040513d601f19601f82011682018060405250810190611e9d919061587a565b90508060011415611eb357600192505050610757565b506000949350505050565b60009182526097602090815260408084206001600160a01b0393909316845291905290205460ff1690565b600080516020615b2c833981519152611f01816141c2565b6001600160a01b038716600090815260cf602052604090205415611f675760405162461bcd60e51b815260206004820152601d60248201527f5374616b696e6720636f6e66696720616c726561647920657869737473000000604482015260640161086b565b6000835111611fb05760405162461bcd60e51b81526020600482015260156024820152744d697373696e672074726565496420636f6e66696760581b604482015260640161086b565b6000825111611ffa5760405162461bcd60e51b81526020600482015260166024820152754d697373696e6720736b696c6c496420636f6e66696760501b604482015260640161086b565b825182511461205a5760405162461bcd60e51b815260206004820152602660248201527f5472656549647320616e6420536b696c6c49647320617272617973206d757374604482015265040dac2e8c6d60d31b606482015260840161086b565b6000841161207a5760405162461bcd60e51b815260040161086b906158b9565b4285116120995760405162461bcd60e51b815260040161086b90615901565b6040516370a0823160e01b81523060048201526000906001600160a01b038816906370a082319060240160206040518083038186803b1580156120db57600080fd5b505afa1580156120ef573d6000803e3d6000fd5b505050506040513d601f19601f82011682018060405250810190612113919061587a565b116121575760405162461bcd60e51b81526020600482015260146024820152734e6f2066756e647320666f72207265776172647360601b604482015260640161086b565b61215f6142b9565b6001600160a01b03878116600090815260cf602052604081206004810180546001600160a01b031916938a169390931790925586825560019091018590555b835181101561225e5760cf6000896001600160a01b03166001600160a01b031681526020019081526020016000206002018482815181106121e1576121e16156ee565b6020908102919091018101518254600181018455600093845282842001556001600160a01b038a16825260cf905260409020835160039091019084908390811061222d5761222d6156ee565b60209081029190910181015182546001810184556000938452919092200155806122568161571a565b91505061219e565b50604080516001600160a01b038881168252602082018890528916917fc6e5f1ee3138795eeda2fa0aab37379a177c4f04396146dd2b154ab55f5c5585910160405180910390a250505050505050565b60606122b933611917565b905090565b600080516020615b2c8339815191526122d6816141c2565b6122de6142b9565b6001600160a01b038216600090815260cf60205260408120818155600181018290559061230e6002830182614d42565b61231c600383016000614d42565b5060040180546001600160a01b03191690556040516001600160a01b038316907fed93036dfb7e5500a2a7f2471a56e6b3389a8c28c72adca8ba9f6a4025ca6d5890600090a25050565b600080516020615b2c83398151915261237e816141c2565b6001600160a01b038516600090815260cf60205260409020546123e35760405162461bcd60e51b815260206004820152601d60248201527f5374616b696e6720636f6e66696720646f6573206e6f74206578697374000000604482015260640161086b565b600082116124035760405162461bcd60e51b815260040161086b906158b9565b4283116124225760405162461bcd60e51b815260040161086b90615901565b6040516370a0823160e01b81523060048201526000906001600160a01b038616906370a082319060240160206040518083038186803b15801561246457600080fd5b505afa158015612478573d6000803e3d6000fd5b505050506040513d601f19601f8201168201806040525081019061249c919061587a565b116124e05760405162461bcd60e51b81526020600482015260146024820152734e6f2066756e647320666f72207265776172647360601b604482015260640161086b565b6124e86142b9565b6001600160a01b03858116600081815260cf60209081526040918290206004810180546001600160a01b031916958a169586179055878155600181018790558251948552908401879052927f255d2940ab142f16cd2452c452fc20185bcbc341ce9c1646bc3d4feac9dc3371910160405180910390a2505050505050565b60335460ff16156125895760405162461bcd60e51b815260040161086b90615779565b6040516331a9108f60e11b8152600481018290528290829030906001600160a01b03841690636352211e9060240160206040518083038186803b1580156125cf57600080fd5b505afa1580156125e3573d6000803e3d6000fd5b505050506040513d601f19601f820116820180604052508101906126079190615813565b6001600160a01b0316141561264f5760405162461bcd60e51b815260206004820152600e60248201526d105b1c9958591e481cdd185ad95960921b604482015260640161086b565b60c95460405163537a724f60e11b8152859185916001600160a01b039091169063a6f4e49e9061268a90859085906000908190600401615854565b60206040518083038186803b1580156126a257600080fd5b505afa1580156126b6573d6000803e3d6000fd5b505050506040513d601f19601f820116820180604052508101906126da919061587a565b6001146126f95760405162461bcd60e51b815260040161086b90615893565b6001600160a01b038616600090815260cf602052604090205461274e5760405162461bcd60e51b815260206004820152600d60248201526c496e76616c6964207374616b6560981b604482015260640161086b565b6001600160a01b038616600090815260cf60205260409020544210156127b05760405162461bcd60e51b815260206004820152601760248201527614dd185ada5b99c81a185cc81b9bdd081cdd185c9d1959604a1b604482015260640161086b565b604051632142170760e11b81526001600160a01b038716906342842e0e906127e090339030908a9060040161594b565b600060405180830381600087803b1580156127fa57600080fd5b505af115801561280e573d6000803e3d6000fd5b5050505061282461281c3390565b60cd906147ec565b5033600090815260cc6020908152604080832081516060810183526001600160a01b038b811682528185018b815242948301948552835460018082018655948852959096209151600390950290910180546001600160a01b0319169490911693909317835592519282019290925590516002909101556128a26112b7565b6040518581526001600160a01b0387169033907f5dac0c1b1112564a045ba943c9d50270893e8e826c49be8e7073adc713ab7bd79060200160405180910390a3505050505050565b600080516020615b2c833981519152612902816141c2565b82518451148015612914575081518351145b6129715760405162461bcd60e51b815260206004820152602860248201527f416c6c20696e70757420617272617973206d757374206265207468652073616d6044820152670ca40d8cadccee8d60c31b606482015260840161086b565b60005b84518110156129e5576129d3858281518110612992576129926156ee565b60200260200101518583815181106129ac576129ac6156ee565b60200260200101518584815181106129c6576129c66156ee565b602002602001015161075d565b806129dd8161571a565b915050612974565b5050505050565b60335460ff1615612a0f5760405162461bcd60e51b815260040161086b90615779565b8051825114612a305760405162461bcd60e51b815260040161086b90615735565b60005b82518110156108ce57612a78838281518110612a5157612a516156ee565b6020026020010151838381518110612a6b57612a6b6156ee565b60200260200101516133d5565b80612a828161571a565b915050612a33565b60335460ff1615612aad5760405162461bcd60e51b815260040161086b90615779565b8251845114612ace5760405162461bcd60e51b815260040161086b90615735565b8151845114612b2b5760405162461bcd60e51b815260206004820152602360248201527f6164647265737320636f756e74206d757374206d61746368207472656520636f6044820152621d5b9d60ea1b606482015260840161086b565b8051845114612b885760405162461bcd60e51b8152602060048201526024808201527f6164647265737320636f756e74206d757374206d6174636820736b696c6c20636044820152631bdd5b9d60e21b606482015260840161086b565b60005b84518110156129e557612c04858281518110612ba957612ba96156ee565b6020026020010151858381518110612bc357612bc36156ee565b6020026020010151858481518110612bdd57612bdd6156ee565b6020026020010151858581518110612bf757612bf76156ee565b6020026020010151613b49565b80612c0e8161571a565b915050612b8b565b6000612c21816141c2565b612c296142b9565b6040516370a0823160e01b8152306004820152839083906001600160a01b038316906370a082319060240160206040518083038186803b158015612c6c57600080fd5b505afa158015612c80573d6000803e3d6000fd5b505050506040513d601f19601f82011682018060405250810190612ca4919061587a565b1015612ce95760405162461bcd60e51b8152602060048201526014602482015273496e73756666696369656e742062616c616e636560601b604482015260640161086b565b6040516323b872dd60e01b81526001600160a01b038216906323b872dd90612d199030908990889060040161594b565b602060405180830381600087803b158015612d3357600080fd5b505af1158015612d47573d6000803e3d6000fd5b505050506040513d601f19601f82011682018060405250810190612d6b919061596f565b50836001600160a01b0316856001600160a01b0316612d873390565b6001600160a01b03167f74ed50f6a2a005dd31f4766fb60918c4a6728cb0da9eeb81b9526bc6da11ec0f86604051612dc191815260200190565b60405180910390a45050505050565b6040516331a9108f60e11b8152600481018290528290829030906001600160a01b03841690636352211e9060240160206040518083038186803b158015612e1657600080fd5b505afa158015612e2a573d6000803e3d6000fd5b505050506040513d601f19601f82011682018060405250810190612e4e9190615813565b6001600160a01b031614612e745760405162461bcd60e51b815260040161086b90615830565b60c95460405163537a724f60e11b8152859185916001600160a01b039091169063a6f4e49e90612eaf90859085906000908190600401615854565b60206040518083038186803b158015612ec757600080fd5b505afa158015612edb573d6000803e3d6000fd5b505050506040513d601f19601f82011682018060405250810190612eff919061587a565b600114612f1e5760405162461bcd60e51b815260040161086b90615893565b33600090815260cc6020526040902054612f6b5760405162461bcd60e51b815260206004820152600e60248201526d139bc81391951cc81cdd185ad95960921b604482015260640161086b565b33600090815260cc6020908152604080832080548251818502810185019093528083529192909190849084015b82821015612fed576000848152602090819020604080516060810182526003860290920180546001600160a01b0316835260018082015484860152600290910154918301919091529083529092019101612f98565b50505050905060cc6000612ffe3390565b6001600160a01b031681526020810191909152604001600090812061302291614d60565b60005b815181101561322157876001600160a01b031682828151811061304a5761304a6156ee565b6020026020010151600001516001600160a01b031614801561308857508682828151811061307a5761307a6156ee565b602002602001015160200151145b1561311b576130b63389898585815181106130a5576130a56156ee565b602002602001015160400151614801565b33600090815260ca602090815260408083206001600160a01b038c16845282528083208a8452909152812080546001600160a01b031916815560018101829055600281018290556003810182905560048101829055600581018290556006015561320f565b60cc6000336001600160a01b03166001600160a01b031681526020019081526020016000206000016040518060600160405280848481518110613160576131606156ee565b6020026020010151600001516001600160a01b0316815260200184848151811061318c5761318c6156ee565b60200260200101516020015181526020018484815181106131af576131af6156ee565b602090810291909101810151604090810151909252835460018082018655600095865294829020845160039092020180546001600160a01b0319166001600160a01b03909216919091178155908301519381019390935501516002909101555b806132198161571a565b915050613025565b5061322a6112b7565b613233336148a3565b6040516323b872dd60e01b81526001600160a01b038816906323b872dd9061326390309033908b9060040161594b565b600060405180830381600087803b15801561327d57600080fd5b505af1158015613291573d6000803e3d6000fd5b50505050866001600160a01b03166132a63390565b6001600160a01b03167fd8654fcc8cf5b36d30b3f5e4688fc78118e6d68de60b9994e09902268b57c3e3886040516132e091815260200190565b60405180910390a350505050505050565b60606122b9335b6001600160a01b038116600090815260cc60209081526040808320805482518185028101850190935280835260609492939192909184015b82821015613385576000848152602090819020604080516060810182526003860290920180546001600160a01b0316835260018082015484860152600290910154918301919091529083529092019101613330565b505050509050919050565b600061339b816141c2565b506001600160a01b03938416600090815260ca60209081526040808320959096168252938452848120928152919092529190912060040155565b60335460ff16156133f85760405162461bcd60e51b815260040161086b90615779565b6040516331a9108f60e11b8152600481018290528290829030906001600160a01b03841690636352211e9060240160206040518083038186803b15801561343e57600080fd5b505afa158015613452573d6000803e3d6000fd5b505050506040513d601f19601f820116820180604052508101906134769190615813565b6001600160a01b031614156134be5760405162461bcd60e51b815260206004820152600e60248201526d105b1c9958591e481cdd185ad95960921b604482015260640161086b565b6001600160a01b038416600090815260d060205260408120906134e18686611dfb565b905080156135315760405162461bcd60e51b815260206004820152601860248201527f5374616b696e6720616c726561647920756e6c6f636b65640000000000000000604482015260640161086b565b6001600160a01b038616600090815260cf602052604090205461358f5760405162461bcd60e51b815260206004820152601660248201527514dd185ada5b99c81b9bdd0818dbdb999a59dd5c995960521b604482015260640161086b565b6001600160a01b038616600090815260cf60205260409020544210156135f15760405162461bcd60e51b815260206004820152601760248201527614dd185ada5b99c81a185cc81b9bdd081cdd185c9d1959604a1b604482015260640161086b565b6001600160a01b03868116600090815260cf602052604090206004015416806323b872dd336000805260cb6020527f4239c2c8c3d9b94feb214b0f54d7c869ce1ceb63517be57644336cda4967a468546040516001600160e01b031960e085901b1681526136649291309160040161594b565b602060405180830381600087803b15801561367e57600080fd5b505af1158015613692573d6000803e3d6000fd5b505050506040513d601f19601f820116820180604052508101906136b6919061596f565b5060c9548354600180860154604051630d126da960e11b81526001600160a01b038c81166004830152602482018c9052604482019490945260648101919091526084810191909152911690631a24db529060a401600060405180830381600087803b15801561372457600080fd5b505af1158015613738573d6000803e3d6000fd5b50505050866001600160a01b031661374d3390565b6001600160a01b03167f051144eeaaad1c4ee6b1eab928f531a9daf1687b3e0f8db00dae3f5df8c285db886040516132e091815260200190565b600080516020615b2c83398151915261379f816141c2565b5060c980546001600160a01b0319166001600160a01b0392909216919091179055565b6000828152609760205260409020600101546137dd816141c2565b6108ce8383614252565b80518251146138085760405162461bcd60e51b815260040161086b90615735565b60005b82518110156108ce57613850838281518110613829576138296156ee565b6020026020010151838381518110613843576138436156ee565b6020026020010151613862565b8061385a8161571a565b91505061380b565b6040516331a9108f60e11b8152600481018290528290829030906001600160a01b03841690636352211e9060240160206040518083038186803b1580156138a857600080fd5b505afa1580156138bc573d6000803e3d6000fd5b505050506040513d601f19601f820116820180604052508101906138e09190615813565b6001600160a01b0316146139065760405162461bcd60e51b815260040161086b90615830565b60c95460405163537a724f60e11b8152859185916001600160a01b039091169063a6f4e49e9061394190859085906000908190600401615854565b60206040518083038186803b15801561395957600080fd5b505afa15801561396d573d6000803e3d6000fd5b505050506040513d601f19601f82011682018060405250810190613991919061587a565b6001146139b05760405162461bcd60e51b815260040161086b90615893565b33600090815260ca602090815260408083206001600160a01b038a168452825280832088845290915290206005810154613a1b5760405162461bcd60e51b815260206004820152600c60248201526b4e6f7420747261696e696e6760a01b604482015260640161086b565b42816006015411613a6e5760405162461bcd60e51b815260206004820152601960248201527f547261696e696e6720616c72656164792066696e697368656400000000000000604482015260640161086b565b60005b33600090815260cc6020526040902054811015613ae45733600090815260cc60205260409020805488919083908110613aac57613aac6156ee565b9060005260206000209060030201600101541415613ad257613acd336110f9565b613ae4565b80613adc8161571a565b915050613a71565b50600381015460048201546040805189815260208101939093528201524260608201526001600160a01b0388169033907fc9b7c59fa980251f7ca7eae784c953e8a9f49d617be6edca0b41264ea05cb16990608001611243565b60006122b933610ad9565b60335460ff1615613b6c5760405162461bcd60e51b815260040161086b90615779565b6040516331a9108f60e11b8152600481018490528490849030906001600160a01b03841690636352211e9060240160206040518083038186803b158015613bb257600080fd5b505afa158015613bc6573d6000803e3d6000fd5b505050506040513d601f19601f82011682018060405250810190613bea9190615813565b6001600160a01b031614613c105760405162461bcd60e51b815260040161086b90615830565b60c95460405163537a724f60e11b8152879187916001600160a01b039091169063a6f4e49e90613c4b90859085906000908190600401615854565b60206040518083038186803b158015613c6357600080fd5b505afa158015613c77573d6000803e3d6000fd5b505050506040513d601f19601f82011682018060405250810190613c9b919061587a565b600114613cba5760405162461bcd60e51b815260040161086b90615893565b6001600160a01b038816600090815260cf602052604090208054613d205760405162461bcd60e51b815260206004820152601e60248201527f4e6f20747261696e696e672073657373696f6e20636f6e666967757265640000604482015260640161086b565b8054421015613d715760405162461bcd60e51b815260206004820152601c60248201527f547261696e696e6720686173206e6f7420737461727465642079657400000000604482015260640161086b565b33600090815260ca602090815260408083206001600160a01b038d16845282528083208b84529091529020600581015415613dee5760405162461bcd60e51b815260206004820152601f60248201527f547261696e696e6720697320616c726561647920696e2070726f677265737300604482015260640161086b565b6000613dfa8b8b6113bd565b90506000815111613e4d5760405162461bcd60e51b815260206004820152601e60248201527f4e6f20747261696e696e672073657373696f6e7320617661696c61626c650000604482015260640161086b565b6000805b8251811015613e965789838281518110613e6d57613e6d6156ee565b60200260200101511415613e845760019150613e96565b80613e8e8161571a565b915050613e51565b5080613ee45760405162461bcd60e51b815260206004820152601760248201527f496e76616c696420747261696e696e67206f7074696f6e000000000000000000604482015260640161086b565b600060c960009054906101000a90046001600160a01b03166001600160a01b031663a6f4e49e8e8e8e8e6040518563ffffffff1660e01b8152600401613f2d9493929190615854565b60206040518083038186803b158015613f4557600080fd5b505afa158015613f59573d6000803e3d6000fd5b505050506040513d601f19601f82011682018060405250810190613f7d919061587a565b9050600060cb81613f8f8460016157ba565b815260200190815260200160002090508560010154826001613fb191906157ba565b1115613fff5760405162461bcd60e51b815260206004820152601e60248201527f45786365656473206d6178696d756d20747261696e696e67206c6576656c0000604482015260640161086b565b805461404d5760405162461bcd60e51b815260206004820152601d60248201527f547261696e696e67204c6576656c206973206e6f7420656e61626c6564000000604482015260640161086b565b60048681015482546040516323b872dd60e01b81526001600160a01b03909216926323b872dd9261408292339230920161594b565b602060405180830381600087803b15801561409c57600080fd5b505af11580156140b0573d6000803e3d6000fd5b505050506040513d601f19601f820116820180604052508101906140d4919061596f565b506140e08260016157ba565b6002860155600385018c9055600485018b905542600586018190556001820154614109916157ba565b600686015584546001600160a01b0319166001600160a01b038f169081178655600186018e9055336001600160a01b03167f98d1944772cc1ee399725448c633b3ec863f8be81e490479055d810afaa0225c8f8f8f6141698860016157ba565b60058c015460068d0154604080519687526020870195909552938501929092526060840152608083015260a082015260c00160405180910390a35050505050505050505050505050565b6001600160a01b03163b151590565b610ca481336148ed565b6141d68282611ebe565b610ad55760008281526097602090815260408083206001600160a01b03851684529091529020805460ff1916600117905561420e3390565b6001600160a01b0316816001600160a01b0316837f2f8788117e7eff1d82e926ec794901d17c78024a50270940304540a733656f0d60405160405180910390a45050565b61425c8282611ebe565b15610ad55760008281526097602090815260408083206001600160a01b0385168085529252808320805460ff1916905551339285917ff6391f5c32d9c69d2a47ea670b442974b53935d1edc7fd64eb21e047a839171b9190a45050565b60005b6142c660cd614380565b811015610ca4576142db6112c060cd8361438a565b806142e58161571a565b9150506142bc565b60335460ff166143365760405162461bcd60e51b815260206004820152601460248201527314185d5cd8589b194e881b9bdd081c185d5cd95960621b604482015260640161086b565b6033805460ff191690557f5db9ee0a495bf2e6ff9c91a7834c1ba4fdd244a5e8aa4e537bd38aeae4b073aa335b6040516001600160a01b03909116815260200160405180910390a1565b6000610757825490565b60006143968383614951565b9392505050565b606060006143968361497b565b60028101805442909155815460018301546108ce9185916001600160a01b039091169084614801565b6001600160a01b038116600090815260cc60205260408120905b81548110156108ce5761440f8383600001838154811061111a5761111a6156ee565b806144198161571a565b9150506143ed565b6001600160a01b038116600090815260d1602052604090205469043c33c193756480000081106144a2576001600160a01b038216600081815260cc60209081526040918290205482519081529081018490527fb4dbe8af97297f3ecbb538955ef6410079ad6268c887a438d8af7ab49dd3602b910160405180910390a25050565b6001600160a01b038216600090815260d1602052604080822091909155516370a0823160e01b815230600482015273892d81221484f690c0a97d3dd18b9144a3ecdfb790829082906370a082319060240160206040518083038186803b15801561450b57600080fd5b505afa15801561451f573d6000803e3d6000fd5b505050506040513d601f19601f82011682018060405250810190614543919061587a565b10156145915760405162461bcd60e51b815260206004820181905260248201527f496e73756666696369656e74207265776172647320696e20636f6e7472616374604482015260640161086b565b60405163a9059cbb60e01b81526001600160a01b0384811660048301526024820184905282169063a9059cbb90604401602060405180830381600087803b1580156145db57600080fd5b505af11580156145ef573d6000803e3d6000fd5b505050506040513d601f19601f82011682018060405250810190614613919061596f565b506001600160a01b038316600090815260cc602052604090205415801561465057506001600160a01b038316600090815260d16020526040902054155b1561466457614662335b60cd906149d7565b505b806001600160a01b0316836001600160a01b03167ff7a40077ff7a04c7e61f6f26fb13774259ddf1b6bce9ecf26a8276cdd3992683846040516146a991815260200190565b60405180910390a3505050565b60008054610100900460ff16156146fd578160ff1660011480156146d95750303b155b6146f55760405162461bcd60e51b815260040161086b90615991565b506000919050565b60005460ff8084169116106147245760405162461bcd60e51b815260040161086b90615991565b506000805460ff191660ff92909216919091179055600190565b600054610100900460ff166147655760405162461bcd60e51b815260040161086b906159df565b6112ce6149ec565b600054610100900460ff166112ce5760405162461bcd60e51b815260040161086b906159df565b60335460ff16156147b75760405162461bcd60e51b815260040161086b90615779565b6033805460ff191660011790557f62e78cea01bee320cd4e420270b5ea74000d11b0c9f74754ebdbfc544b05a2586143633390565b6000614396836001600160a01b038416614a1f565b80158061480e5750428110155b156148185761489d565b600061482482426157a3565b905060006148328585611d13565b90508061483e8161571a565b91508290506201518061485983670de0b6b3a76400006157d2565b61486391906157f1565b61486d91906157d2565b6001600160a01b038716600090815260d16020526040812080549091906148959084906157ba565b909155505050505b50505050565b6001600160a01b038116600090815260cc60205260409020541580156148df57506001600160a01b038116600090815260d16020526040902054155b15610ca457610ad53361465a565b6148f78282611ebe565b610ad55761490f816001600160a01b03166014614a6e565b61491a836020614a6e565b60405160200161492b929190615a56565b60408051601f198184030181529082905262461bcd60e51b825261086b91600401615acb565b6000826000018281548110614968576149686156ee565b9060005260206000200154905092915050565b6060816000018054806020026020016040519081016040528092919081815260200182805480156149cb57602002820191906000526020600020905b8154815260200190600101908083116149b7575b50505050509050919050565b6000614396836001600160a01b038416614c09565b600054610100900460ff16614a135760405162461bcd60e51b815260040161086b906159df565b6033805460ff19169055565b6000818152600183016020526040812054614a6657508154600181810184556000848152602080822090930184905584548482528286019093526040902091909155610757565b506000610757565b60606000614a7d8360026157d2565b614a889060026157ba565b6001600160401b03811115614a9f57614a9f614e1d565b6040519080825280601f01601f191660200182016040528015614ac9576020820181803683370190505b509050600360fc1b81600081518110614ae457614ae46156ee565b60200101906001600160f81b031916908160001a905350600f60fb1b81600181518110614b1357614b136156ee565b60200101906001600160f81b031916908160001a9053506000614b378460026157d2565b614b429060016157ba565b90505b6001811115614bba576f181899199a1a9b1b9c1cb0b131b232b360811b85600f1660108110614b7657614b766156ee565b1a60f81b828281518110614b8c57614b8c6156ee565b60200101906001600160f81b031916908160001a90535060049490941c93614bb381615afe565b9050614b45565b5083156143965760405162461bcd60e51b815260206004820181905260248201527f537472696e67733a20686578206c656e67746820696e73756666696369656e74604482015260640161086b565b60008181526001830160205260408120548015614cf2576000614c2d6001836157a3565b8554909150600090614c41906001906157a3565b9050818114614ca6576000866000018281548110614c6157614c616156ee565b9060005260206000200154905080876000018481548110614c8457614c846156ee565b6000918252602080832090910192909255918252600188019052604090208390555b8554869080614cb757614cb7615b15565b600190038181906000526020600020016000905590558560010160008681526020019081526020016000206000905560019350505050610757565b6000915050610757565b6040518060e0016040528060006001600160a01b031681526020016000815260200160008152602001600081526020016000815260200160008152602001600081525090565b5080546000825590600052602060002090810190610ca49190614d81565b5080546000825560030290600052602060002090810190610ca49190614d9a565b5b80821115614d965760008155600101614d82565b5090565b5b80821115614d965780546001600160a01b03191681556000600182018190556002820155600301614d9b565b600060208284031215614dd957600080fd5b81356001600160e01b03198116811461439657600080fd5b600080600060608486031215614e0657600080fd5b505081359360208301359350604090920135919050565b634e487b7160e01b600052604160045260246000fd5b604051601f8201601f191681016001600160401b0381118282101715614e5b57614e5b614e1d565b604052919050565b60006001600160401b03821115614e7c57614e7c614e1d565b5060051b60200190565b6001600160a01b0381168114610ca457600080fd5b600082601f830112614eac57600080fd5b81356020614ec1614ebc83614e63565b614e33565b82815260059290921b84018101918181019086841115614ee057600080fd5b8286015b84811015614f04578035614ef781614e86565b8352918301918301614ee4565b509695505050505050565b600082601f830112614f2057600080fd5b81356020614f30614ebc83614e63565b82815260059290921b84018101918181019086841115614f4f57600080fd5b8286015b84811015614f045780358352918301918301614f53565b600080600080600060a08688031215614f8257600080fd5b85356001600160401b0380821115614f9957600080fd5b614fa589838a01614e9b565b96506020880135915080821115614fbb57600080fd5b614fc789838a01614f0f565b95506040880135915080821115614fdd57600080fd5b614fe989838a01614e9b565b94506060880135915080821115614fff57600080fd5b61500b89838a01614f0f565b9350608088013591508082111561502157600080fd5b5061502e88828901614f0f565b9150509295509295909350565b60008060008060006080868803121561505357600080fd5b853561505e81614e86565b9450602086013561506e81614e86565b93506040860135925060608601356001600160401b038082111561509157600080fd5b818801915088601f8301126150a557600080fd5b8135818111156150b457600080fd5b8960208285010111156150c657600080fd5b9699959850939650602001949392505050565b600080604083850312156150ec57600080fd5b82356001600160401b038082111561510357600080fd5b61510f86838701614e9b565b9350602085013591508082111561512557600080fd5b5061513285828601614f0f565b9150509250929050565b60008060006060848603121561515157600080fd5b833561515c81614e86565b9250602084013561516c81614e86565b929592945050506040919091013590565b80516001600160a01b031682526020808201519083015260408082015190830152606080820151908301526080808201519083015260a0818101519083015260c090810151910152565b60e08101610757828461517d565b6000602082840312156151e757600080fd5b5035919050565b6000806040838503121561520157600080fd5b82359150602083013561521381614e86565b809150509250929050565b60008060006060848603121561523357600080fd5b833561523e81614e86565b95602085013595506040909401359392505050565b60006020828403121561526557600080fd5b813561439681614e86565b600081518084526020808501945080840160005b838110156152bf57815180516001600160a01b0316885283810151848901526040908101519088015260609096019590820190600101615284565b509495945050505050565b600081518084526020808501945080840160005b838110156152bf578151875295820195908201906001016152de565b606080825284519082018190526000906020906080840190828801845b8281101561533c5781516001600160a01b031684529284019290840190600101615317565b50505083810382850152855180825282820190600581901b8301840188850160005b8381101561538c57601f1986840301855261537a838351615270565b9487019492509086019060010161535e565b505086810360408801526153a081896152ca565b9a9950505050505050505050565b600080604083850312156153c157600080fd5b82356153cc81614e86565b946020939093013593505050565b600080600080600060a086880312156153f257600080fd5b85356153fd81614e86565b945060208601359350604086013561541481614e86565b94979396509394606081013594506080013592915050565b60208152600061439660208301846152ca565b6020808252825182820181905260009190848201906040850190845b818110156154815761546e83855161517d565b9284019260e0929092019160010161545b565b50909695505050505050565b60008060008060008060c087890312156154a657600080fd5b86356154b181614e86565b955060208701356154c181614e86565b9450604087013593506060870135925060808701356001600160401b03808211156154eb57600080fd5b6154f78a838b01614f0f565b935060a089013591508082111561550d57600080fd5b5061551a89828a01614f0f565b9150509295509295509295565b6000806000806080858703121561553d57600080fd5b843561554881614e86565b9350602085013561555881614e86565b93969395505050506040820135916060013590565b60008060006060848603121561558257600080fd5b83356001600160401b038082111561559957600080fd5b6155a587838801614f0f565b945060208601359150808211156155bb57600080fd5b6155c787838801614f0f565b935060408601359150808211156155dd57600080fd5b506155ea86828701614f0f565b9150509250925092565b6000806000806080858703121561560a57600080fd5b84356001600160401b038082111561562157600080fd5b61562d88838901614e9b565b9550602087013591508082111561564357600080fd5b61564f88838901614f0f565b9450604087013591508082111561566557600080fd5b61567188838901614f0f565b9350606087013591508082111561568757600080fd5b5061569487828801614f0f565b91505092959194509250565b6020815260006143966020830184615270565b600080600080608085870312156156c957600080fd5b84356156d481614e86565b966020860135965060408601359560600135945092505050565b634e487b7160e01b600052603260045260246000fd5b634e487b7160e01b600052601160045260246000fd5b600060001982141561572e5761572e615704565b5060010190565b60208082526024908201527f6164647265737320636f756e74206d757374206d6174636820746f6b656e20636040820152631bdd5b9d60e21b606082015260800190565b60208082526010908201526f14185d5cd8589b194e881c185d5cd95960821b604082015260600190565b6000828210156157b5576157b5615704565b500390565b600082198211156157cd576157cd615704565b500190565b60008160001904831182151516156157ec576157ec615704565b500290565b60008261580e57634e487b7160e01b600052601260045260246000fd5b500490565b60006020828403121561582557600080fd5b815161439681614e86565b6020808252600a9082015269139bdd081cdd185ad95960b21b604082015260600190565b6001600160a01b0394909416845260208401929092526040830152606082015260800190565b60006020828403121561588c57600080fd5b5051919050565b6020808252600c908201526b139bdd081d5b9b1bd8dad95960a21b604082015260600190565b60208082526028908201527f6d6178506f696e7473506572536b696c6c206d75737420626520677265617465604082015267072207468616e20360c41b606082015260800190565b6020808252602a908201527f737461727454696d65206d7573742062652061206675747572652074696d6520604082015269696e207365636f6e647360b01b606082015260800190565b6001600160a01b039384168152919092166020820152604081019190915260600190565b60006020828403121561598157600080fd5b8151801515811461439657600080fd5b6020808252602e908201527f496e697469616c697a61626c653a20636f6e747261637420697320616c72656160408201526d191e481a5b9a5d1a585b1a5e995960921b606082015260800190565b6020808252602b908201527f496e697469616c697a61626c653a20636f6e7472616374206973206e6f74206960408201526a6e697469616c697a696e6760a81b606082015260800190565b60005b83811015615a45578181015183820152602001615a2d565b8381111561489d5750506000910152565b7f416363657373436f6e74726f6c3a206163636f756e7420000000000000000000815260008351615a8e816017850160208801615a2a565b7001034b99036b4b9b9b4b733903937b6329607d1b6017918401918201528351615abf816028840160208801615a2a565b01602801949350505050565b6020815260008251806020840152615aea816040850160208701615a2a565b601f01601f19169190910160400192915050565b600081615b0d57615b0d615704565b506000190190565b634e487b7160e01b600052603160045260246000fdfe73e573f9566d61418a34d5de3ff49360f9c51fec37f7486551670290f6285dab65d7a28e3265b37a6474929f336521b332c1681b933f6cb9f3376673440d862aa26469706673582212203cafee64eb0fef3524a2a75b5e93fb3aa150778fce3d2704d6e0caf7fc137d0564736f6c63430008090033496e697469616c697a61626c653a20636f6e747261637420697320616c726561",
  "linkReferences": {},
  "deployedLinkReferences": {}
}