{
  "_format": "hh-sol-artifact-1",
  "contractName": "ProfessionStakingUpgradeable",
  "sourceName": "contracts/upgradeable/npc/ProfessionStakingUpgradeable.sol",
  "abi": [
    {
      "inputs": [],
      "stateMutability": "nonpayable",
      "type": "constructor"
    },
    {
      "anonymous": false,
      "inputs": [
        {
          "indexed": true,
          "internalType": "address",
          "name": "from",
          "type": "address"
        },
        {
          "indexed": false,
          "internalType": "uint256",
          "name": "stakedCount",
          "type": "uint256"
        },
        {
          "indexed": false,
          "internalType": "uint256",
          "name": "amount",
          "type": "uint256"
        }
      ],
      "name": "ClaimBlocked",
      "type": "event"
    },
    {
      "anonymous": false,
      "inputs": [
        {
          "indexed": true,
          "internalType": "address",
          "name": "by",
          "type": "address"
        },
        {
          "indexed": true,
          "internalType": "address",
          "name": "token",
          "type": "address"
        },
        {
          "indexed": false,
          "internalType": "uint256",
          "name": "amount",
          "type": "uint256"
        }
      ],
      "name": "Claimed",
      "type": "event"
    },
    {
      "anonymous": false,
      "inputs": [
        {
          "indexed": false,
          "internalType": "uint8",
          "name": "version",
          "type": "uint8"
        }
      ],
      "name": "Initialized",
      "type": "event"
    },
    {
      "anonymous": false,
      "inputs": [
        {
          "indexed": false,
          "internalType": "address",
          "name": "account",
          "type": "address"
        }
      ],
      "name": "Paused",
      "type": "event"
    },
    {
      "anonymous": false,
      "inputs": [
        {
          "indexed": true,
          "internalType": "address",
          "name": "from",
          "type": "address"
        },
        {
          "indexed": true,
          "internalType": "address",
          "name": "token",
          "type": "address"
        },
        {
          "indexed": false,
          "internalType": "uint256",
          "name": "amount",
          "type": "uint256"
        }
      ],
      "name": "PoolRewardsDeposited",
      "type": "event"
    },
    {
      "anonymous": false,
      "inputs": [
        {
          "indexed": true,
          "internalType": "address",
          "name": "by",
          "type": "address"
        },
        {
          "indexed": true,
          "internalType": "address",
          "name": "to",
          "type": "address"
        },
        {
          "indexed": true,
          "internalType": "address",
          "name": "token",
          "type": "address"
        },
        {
          "indexed": false,
          "internalType": "uint256",
          "name": "amount",
          "type": "uint256"
        }
      ],
      "name": "PoolRewardsWithdrawn",
      "type": "event"
    },
    {
      "anonymous": false,
      "inputs": [
        {
          "indexed": true,
          "internalType": "bytes32",
          "name": "role",
          "type": "bytes32"
        },
        {
          "indexed": true,
          "internalType": "bytes32",
          "name": "previousAdminRole",
          "type": "bytes32"
        },
        {
          "indexed": true,
          "internalType": "bytes32",
          "name": "newAdminRole",
          "type": "bytes32"
        }
      ],
      "name": "RoleAdminChanged",
      "type": "event"
    },
    {
      "anonymous": false,
      "inputs": [
        {
          "indexed": true,
          "internalType": "bytes32",
          "name": "role",
          "type": "bytes32"
        },
        {
          "indexed": true,
          "internalType": "address",
          "name": "account",
          "type": "address"
        },
        {
          "indexed": true,
          "internalType": "address",
          "name": "sender",
          "type": "address"
        }
      ],
      "name": "RoleGranted",
      "type": "event"
    },
    {
      "anonymous": false,
      "inputs": [
        {
          "indexed": true,
          "internalType": "bytes32",
          "name": "role",
          "type": "bytes32"
        },
        {
          "indexed": true,
          "internalType": "address",
          "name": "account",
          "type": "address"
        },
        {
          "indexed": true,
          "internalType": "address",
          "name": "sender",
          "type": "address"
        }
      ],
      "name": "RoleRevoked",
      "type": "event"
    },
    {
      "anonymous": false,
      "inputs": [
        {
          "indexed": true,
          "internalType": "address",
          "name": "from",
          "type": "address"
        },
        {
          "indexed": true,
          "internalType": "address",
          "name": "nftAddress",
          "type": "address"
        },
        {
          "indexed": false,
          "internalType": "uint256",
          "name": "tokenId",
          "type": "uint256"
        }
      ],
      "name": "Staked",
      "type": "event"
    },
    {
      "anonymous": false,
      "inputs": [
        {
          "indexed": true,
          "internalType": "address",
          "name": "nftAddress",
          "type": "address"
        },
        {
          "indexed": false,
          "internalType": "address",
          "name": "rewardToken",
          "type": "address"
        },
        {
          "indexed": false,
          "internalType": "uint256",
          "name": "startTime",
          "type": "uint256"
        }
      ],
      "name": "StakingConfigCreated",
      "type": "event"
    },
    {
      "anonymous": false,
      "inputs": [
        {
          "indexed": true,
          "internalType": "address",
          "name": "nftAddress",
          "type": "address"
        }
      ],
      "name": "StakingConfigDeleted",
      "type": "event"
    },
    {
      "anonymous": false,
      "inputs": [
        {
          "indexed": true,
          "internalType": "address",
          "name": "nftAddress",
          "type": "address"
        },
        {
          "indexed": false,
          "internalType": "address",
          "name": "rewardToken",
          "type": "address"
        },
        {
          "indexed": false,
          "internalType": "uint256",
          "name": "startTime",
          "type": "uint256"
        }
      ],
      "name": "StakingConfigUpdated",
      "type": "event"
    },
    {
      "anonymous": false,
      "inputs": [
        {
          "indexed": true,
          "internalType": "address",
          "name": "by",
          "type": "address"
        },
        {
          "indexed": true,
          "internalType": "address",
          "name": "nftAddress",
          "type": "address"
        },
        {
          "indexed": false,
          "internalType": "uint256",
          "name": "tokenId",
          "type": "uint256"
        }
      ],
      "name": "StakingUnlocked",
      "type": "event"
    },
    {
      "anonymous": false,
      "inputs": [
        {
          "indexed": true,
          "internalType": "address",
          "name": "by",
          "type": "address"
        },
        {
          "indexed": true,
          "internalType": "address",
          "name": "nftAddress",
          "type": "address"
        },
        {
          "indexed": false,
          "internalType": "uint256",
          "name": "tokenId",
          "type": "uint256"
        },
        {
          "indexed": false,
          "internalType": "uint256",
          "name": "treeId",
          "type": "uint256"
        },
        {
          "indexed": false,
          "internalType": "uint256",
          "name": "skillId",
          "type": "uint256"
        },
        {
          "indexed": false,
          "internalType": "uint256",
          "name": "canceledAt",
          "type": "uint256"
        }
      ],
      "name": "TrainingCanceled",
      "type": "event"
    },
    {
      "anonymous": false,
      "inputs": [
        {
          "indexed": true,
          "internalType": "address",
          "name": "by",
          "type": "address"
        },
        {
          "indexed": true,
          "internalType": "address",
          "name": "nftAddress",
          "type": "address"
        },
        {
          "indexed": false,
          "internalType": "uint256",
          "name": "tokenId",
          "type": "uint256"
        },
        {
          "indexed": false,
          "internalType": "uint256",
          "name": "treeId",
          "type": "uint256"
        },
        {
          "indexed": false,
          "internalType": "uint256",
          "name": "skillId",
          "type": "uint256"
        },
        {
          "indexed": false,
          "internalType": "uint256",
          "name": "level",
          "type": "uint256"
        }
      ],
      "name": "TrainingFinished",
      "type": "event"
    },
    {
      "anonymous": false,
      "inputs": [
        {
          "indexed": true,
          "internalType": "address",
          "name": "by",
          "type": "address"
        },
        {
          "indexed": true,
          "internalType": "address",
          "name": "nftAddress",
          "type": "address"
        },
        {
          "indexed": false,
          "internalType": "uint256",
          "name": "tokenId",
          "type": "uint256"
        },
        {
          "indexed": false,
          "internalType": "uint256",
          "name": "treeId",
          "type": "uint256"
        },
        {
          "indexed": false,
          "internalType": "uint256",
          "name": "skillId",
          "type": "uint256"
        },
        {
          "indexed": false,
          "internalType": "uint256",
          "name": "level",
          "type": "uint256"
        },
        {
          "indexed": false,
          "internalType": "uint256",
          "name": "startedAt",
          "type": "uint256"
        },
        {
          "indexed": false,
          "internalType": "uint256",
          "name": "completeAt",
          "type": "uint256"
        }
      ],
      "name": "TrainingStarted",
      "type": "event"
    },
    {
      "anonymous": false,
      "inputs": [
        {
          "indexed": false,
          "internalType": "address",
          "name": "account",
          "type": "address"
        }
      ],
      "name": "Unpaused",
      "type": "event"
    },
    {
      "anonymous": false,
      "inputs": [
        {
          "indexed": true,
          "internalType": "address",
          "name": "from",
          "type": "address"
        },
        {
          "indexed": true,
          "internalType": "address",
          "name": "nftAddress",
          "type": "address"
        },
        {
          "indexed": false,
          "internalType": "uint256",
          "name": "tokenId",
          "type": "uint256"
        }
      ],
      "name": "Unstaked",
      "type": "event"
    },
    {
      "inputs": [],
      "name": "DEFAULT_ADMIN_ROLE",
      "outputs": [
        {
          "internalType": "bytes32",
          "name": "",
          "type": "bytes32"
        }
      ],
      "stateMutability": "view",
      "type": "function"
    },
    {
      "inputs": [],
      "name": "GAME_STORAGE",
      "outputs": [
        {
          "internalType": "contract IGameStorageUpgradeable",
          "name": "",
          "type": "address"
        }
      ],
      "stateMutability": "view",
      "type": "function"
    },
    {
      "inputs": [],
      "name": "PAUSER_ROLE",
      "outputs": [
        {
          "internalType": "bytes32",
          "name": "",
          "type": "bytes32"
        }
      ],
      "stateMutability": "view",
      "type": "function"
    },
    {
      "inputs": [],
      "name": "UPDATER_ROLE",
      "outputs": [
        {
          "internalType": "bytes32",
          "name": "",
          "type": "bytes32"
        }
      ],
      "stateMutability": "view",
      "type": "function"
    },
    {
      "inputs": [
        {
          "internalType": "address[]",
          "name": "addresses",
          "type": "address[]"
        },
        {
          "internalType": "uint256[]",
          "name": "indexes",
          "type": "uint256[]"
        },
        {
          "internalType": "address[]",
          "name": "nftAddresses",
          "type": "address[]"
        },
        {
          "internalType": "uint256[]",
          "name": "tokenIds",
          "type": "uint256[]"
        },
        {
          "internalType": "uint256[]",
          "name": "rewardFrom",
          "type": "uint256[]"
        }
      ],
      "name": "adminBatchUpdateNftData",
      "outputs": [],
      "stateMutability": "nonpayable",
      "type": "function"
    },
    {
      "inputs": [
        {
          "internalType": "address",
          "name": "_address",
          "type": "address"
        },
        {
          "internalType": "uint256",
          "name": "index",
          "type": "uint256"
        },
        {
          "internalType": "address",
          "name": "nftAddress",
          "type": "address"
        },
        {
          "internalType": "uint256",
          "name": "tokenId",
          "type": "uint256"
        },
        {
          "internalType": "uint256",
          "name": "rewardFrom",
          "type": "uint256"
        }
      ],
      "name": "adminUpdateNftData",
      "outputs": [],
      "stateMutability": "nonpayable",
      "type": "function"
    },
    {
      "inputs": [
        {
          "internalType": "address[]",
          "name": "nftAddresses",
          "type": "address[]"
        },
        {
          "internalType": "uint256[]",
          "name": "tokenIds",
          "type": "uint256[]"
        }
      ],
      "name": "batchCancelTraining",
      "outputs": [],
      "stateMutability": "nonpayable",
      "type": "function"
    },
    {
      "inputs": [
        {
          "internalType": "address[]",
          "name": "nftAddresses",
          "type": "address[]"
        },
        {
          "internalType": "uint256[]",
          "name": "tokenIds",
          "type": "uint256[]"
        }
      ],
      "name": "batchEnableStaking",
      "outputs": [],
      "stateMutability": "nonpayable",
      "type": "function"
    },
    {
      "inputs": [
        {
          "internalType": "address[]",
          "name": "nftAddresses",
          "type": "address[]"
        },
        {
          "internalType": "uint256[]",
          "name": "tokenIds",
          "type": "uint256[]"
        }
      ],
      "name": "batchFinishTraining",
      "outputs": [],
      "stateMutability": "nonpayable",
      "type": "function"
    },
    {
      "inputs": [
        {
          "internalType": "uint256[]",
          "name": "level",
          "type": "uint256[]"
        },
        {
          "internalType": "uint256[]",
          "name": "cost",
          "type": "uint256[]"
        },
        {
          "internalType": "uint256[]",
          "name": "time",
          "type": "uint256[]"
        }
      ],
      "name": "batchSetTrainingCosts",
      "outputs": [],
      "stateMutability": "nonpayable",
      "type": "function"
    },
    {
      "inputs": [
        {
          "internalType": "address[]",
          "name": "nftAddresses",
          "type": "address[]"
        },
        {
          "internalType": "uint256[]",
          "name": "tokenIds",
          "type": "uint256[]"
        }
      ],
      "name": "batchStake",
      "outputs": [],
      "stateMutability": "nonpayable",
      "type": "function"
    },
    {
      "inputs": [
        {
          "internalType": "address[]",
          "name": "nftAddresses",
          "type": "address[]"
        },
        {
          "internalType": "uint256[]",
          "name": "tokenIds",
          "type": "uint256[]"
        },
        {
          "internalType": "uint256[]",
          "name": "treeIds",
          "type": "uint256[]"
        },
        {
          "internalType": "uint256[]",
          "name": "skillIds",
          "type": "uint256[]"
        }
      ],
      "name": "batchStartTraining",
      "outputs": [],
      "stateMutability": "nonpayable",
      "type": "function"
    },
    {
      "inputs": [
        {
          "internalType": "address[]",
          "name": "nftAddresses",
          "type": "address[]"
        },
        {
          "internalType": "uint256[]",
          "name": "tokenIds",
          "type": "uint256[]"
        }
      ],
      "name": "batchUnstake",
      "outputs": [],
      "stateMutability": "nonpayable",
      "type": "function"
    },
    {
      "inputs": [
        {
          "internalType": "address",
          "name": "nftAddress",
          "type": "address"
        },
        {
          "internalType": "uint256",
          "name": "tokenId",
          "type": "uint256"
        }
      ],
      "name": "cancelTraining",
      "outputs": [],
      "stateMutability": "nonpayable",
      "type": "function"
    },
    {
      "inputs": [],
      "name": "claim",
      "outputs": [],
      "stateMutability": "nonpayable",
      "type": "function"
    },
    {
      "inputs": [
        {
          "internalType": "address",
          "name": "nftAddress",
          "type": "address"
        },
        {
          "internalType": "address",
          "name": "rewardToken",
          "type": "address"
        },
        {
          "internalType": "uint256",
          "name": "startTime",
          "type": "uint256"
        },
        {
          "internalType": "uint256",
          "name": "maxPointsPerSkill",
          "type": "uint256"
        },
        {
          "internalType": "uint256[]",
          "name": "treeIds",
          "type": "uint256[]"
        },
        {
          "internalType": "uint256[]",
          "name": "skillIds",
          "type": "uint256[]"
        }
      ],
      "name": "createStakingConfig",
      "outputs": [],
      "stateMutability": "nonpayable",
      "type": "function"
    },
    {
      "inputs": [
        {
          "internalType": "address",
          "name": "nftAddress",
          "type": "address"
        }
      ],
      "name": "deleteStakingConfig",
      "outputs": [],
      "stateMutability": "nonpayable",
      "type": "function"
    },
    {
      "inputs": [
        {
          "internalType": "address",
          "name": "nftAddress",
          "type": "address"
        },
        {
          "internalType": "uint256",
          "name": "tokenId",
          "type": "uint256"
        }
      ],
      "name": "enableStaking",
      "outputs": [],
      "stateMutability": "nonpayable",
      "type": "function"
    },
    {
      "inputs": [
        {
          "internalType": "address",
          "name": "nftAddress",
          "type": "address"
        },
        {
          "internalType": "uint256",
          "name": "tokenId",
          "type": "uint256"
        }
      ],
      "name": "finishTraining",
      "outputs": [],
      "stateMutability": "nonpayable",
      "type": "function"
    },
    {
      "inputs": [
        {
          "internalType": "address",
          "name": "_address",
          "type": "address"
        },
        {
          "internalType": "address",
          "name": "nftAddress",
          "type": "address"
        },
        {
          "internalType": "uint256",
          "name": "tokenId",
          "type": "uint256"
        }
      ],
      "name": "forceCancelTraining",
      "outputs": [],
      "stateMutability": "nonpayable",
      "type": "function"
    },
    {
      "inputs": [],
      "name": "getActiveTraining",
      "outputs": [
        {
          "components": [
            {
              "internalType": "address",
              "name": "_address",
              "type": "address"
            },
            {
              "internalType": "uint256",
              "name": "tokenId",
              "type": "uint256"
            },
            {
              "internalType": "uint256",
              "name": "level",
              "type": "uint256"
            },
            {
              "internalType": "uint256",
              "name": "treeId",
              "type": "uint256"
            },
            {
              "internalType": "uint256",
              "name": "skillId",
              "type": "uint256"
            },
            {
              "internalType": "uint256",
              "name": "startedAt",
              "type": "uint256"
            },
            {
              "internalType": "uint256",
              "name": "completeAt",
              "type": "uint256"
            }
          ],
          "internalType": "struct ProfessionStakingUpgradeable.TrainingStatus[]",
          "name": "",
          "type": "tuple[]"
        }
      ],
      "stateMutability": "view",
      "type": "function"
    },
    {
      "inputs": [
        {
          "internalType": "address",
          "name": "_address",
          "type": "address"
        }
      ],
      "name": "getActiveTrainingOf",
      "outputs": [
        {
          "components": [
            {
              "internalType": "address",
              "name": "_address",
              "type": "address"
            },
            {
              "internalType": "uint256",
              "name": "tokenId",
              "type": "uint256"
            },
            {
              "internalType": "uint256",
              "name": "level",
              "type": "uint256"
            },
            {
              "internalType": "uint256",
              "name": "treeId",
              "type": "uint256"
            },
            {
              "internalType": "uint256",
              "name": "skillId",
              "type": "uint256"
            },
            {
              "internalType": "uint256",
              "name": "startedAt",
              "type": "uint256"
            },
            {
              "internalType": "uint256",
              "name": "completeAt",
              "type": "uint256"
            }
          ],
          "internalType": "struct ProfessionStakingUpgradeable.TrainingStatus[]",
          "name": "",
          "type": "tuple[]"
        }
      ],
      "stateMutability": "view",
      "type": "function"
    },
    {
      "inputs": [],
      "name": "getAllParticipantData",
      "outputs": [
        {
          "internalType": "address[]",
          "name": "addresses",
          "type": "address[]"
        },
        {
          "components": [
            {
              "internalType": "address",
              "name": "_address",
              "type": "address"
            },
            {
              "internalType": "uint256",
              "name": "tokenId",
              "type": "uint256"
            },
            {
              "internalType": "uint256",
              "name": "rewardFrom",
              "type": "uint256"
            }
          ],
          "internalType": "struct ProfessionStakingUpgradeable.NFT[][]",
          "name": "nfts",
          "type": "tuple[][]"
        },
        {
          "internalType": "uint256[]",
          "name": "rewards",
          "type": "uint256[]"
        }
      ],
      "stateMutability": "view",
      "type": "function"
    },
    {
      "inputs": [
        {
          "internalType": "address",
          "name": "nftAddress",
          "type": "address"
        },
        {
          "internalType": "uint256",
          "name": "tokenId",
          "type": "uint256"
        }
      ],
      "name": "getAllowedSkillChoices",
      "outputs": [
        {
          "internalType": "uint256[]",
          "name": "",
          "type": "uint256[]"
        }
      ],
      "stateMutability": "view",
      "type": "function"
    },
    {
      "inputs": [
        {
          "internalType": "bytes32",
          "name": "role",
          "type": "bytes32"
        }
      ],
      "name": "getRoleAdmin",
      "outputs": [
        {
          "internalType": "bytes32",
          "name": "",
          "type": "bytes32"
        }
      ],
      "stateMutability": "view",
      "type": "function"
    },
    {
      "inputs": [],
      "name": "getStaked",
      "outputs": [
        {
          "components": [
            {
              "internalType": "address",
              "name": "_address",
              "type": "address"
            },
            {
              "internalType": "uint256",
              "name": "tokenId",
              "type": "uint256"
            },
            {
              "internalType": "uint256",
              "name": "rewardFrom",
              "type": "uint256"
            }
          ],
          "internalType": "struct ProfessionStakingUpgradeable.NFT[]",
          "name": "",
          "type": "tuple[]"
        }
      ],
      "stateMutability": "view",
      "type": "function"
    },
    {
      "inputs": [
        {
          "internalType": "address",
          "name": "_address",
          "type": "address"
        }
      ],
      "name": "getStakedOf",
      "outputs": [
        {
          "components": [
            {
              "internalType": "address",
              "name": "_address",
              "type": "address"
            },
            {
              "internalType": "uint256",
              "name": "tokenId",
              "type": "uint256"
            },
            {
              "internalType": "uint256",
              "name": "rewardFrom",
              "type": "uint256"
            }
          ],
          "internalType": "struct ProfessionStakingUpgradeable.NFT[]",
          "name": "",
          "type": "tuple[]"
        }
      ],
      "stateMutability": "view",
      "type": "function"
    },
    {
      "inputs": [
        {
          "internalType": "address",
          "name": "ntfAddress",
          "type": "address"
        },
        {
          "internalType": "uint256",
          "name": "tokenId",
          "type": "uint256"
        }
      ],
      "name": "getTotalProfessionSkillPoints",
      "outputs": [
        {
          "internalType": "uint256",
          "name": "",
          "type": "uint256"
        }
      ],
      "stateMutability": "view",
      "type": "function"
    },
    {
      "inputs": [
        {
          "internalType": "address",
          "name": "_address",
          "type": "address"
        },
        {
          "internalType": "address",
          "name": "nftAddress",
          "type": "address"
        },
        {
          "internalType": "uint256",
          "name": "tokenId",
          "type": "uint256"
        }
      ],
      "name": "getTrainingStatus",
      "outputs": [
        {
          "components": [
            {
              "internalType": "address",
              "name": "_address",
              "type": "address"
            },
            {
              "internalType": "uint256",
              "name": "tokenId",
              "type": "uint256"
            },
            {
              "internalType": "uint256",
              "name": "level",
              "type": "uint256"
            },
            {
              "internalType": "uint256",
              "name": "treeId",
              "type": "uint256"
            },
            {
              "internalType": "uint256",
              "name": "skillId",
              "type": "uint256"
            },
            {
              "internalType": "uint256",
              "name": "startedAt",
              "type": "uint256"
            },
            {
              "internalType": "uint256",
              "name": "completeAt",
              "type": "uint256"
            }
          ],
          "internalType": "struct ProfessionStakingUpgradeable.TrainingStatus",
          "name": "",
          "type": "tuple"
        }
      ],
      "stateMutability": "view",
      "type": "function"
    },
    {
      "inputs": [
        {
          "internalType": "bytes32",
          "name": "role",
          "type": "bytes32"
        },
        {
          "internalType": "address",
          "name": "account",
          "type": "address"
        }
      ],
      "name": "grantRole",
      "outputs": [],
      "stateMutability": "nonpayable",
      "type": "function"
    },
    {
      "inputs": [
        {
          "internalType": "bytes32",
          "name": "role",
          "type": "bytes32"
        },
        {
          "internalType": "address",
          "name": "account",
          "type": "address"
        }
      ],
      "name": "hasRole",
      "outputs": [
        {
          "internalType": "bool",
          "name": "",
          "type": "bool"
        }
      ],
      "stateMutability": "view",
      "type": "function"
    },
    {
      "inputs": [],
      "name": "initialize",
      "outputs": [],
      "stateMutability": "nonpayable",
      "type": "function"
    },
    {
      "inputs": [
        {
          "internalType": "address",
          "name": "nftAddress",
          "type": "address"
        },
        {
          "internalType": "uint256",
          "name": "tokenId",
          "type": "uint256"
        }
      ],
      "name": "isStakingEnabled",
      "outputs": [
        {
          "internalType": "bool",
          "name": "",
          "type": "bool"
        }
      ],
      "stateMutability": "view",
      "type": "function"
    },
    {
      "inputs": [
        {
          "internalType": "address",
          "name": "",
          "type": "address"
        },
        {
          "internalType": "address",
          "name": "",
          "type": "address"
        },
        {
          "internalType": "uint256",
          "name": "",
          "type": "uint256"
        },
        {
          "internalType": "bytes",
          "name": "",
          "type": "bytes"
        }
      ],
      "name": "onERC721Received",
      "outputs": [
        {
          "internalType": "bytes4",
          "name": "",
          "type": "bytes4"
        }
      ],
      "stateMutability": "pure",
      "type": "function"
    },
    {
      "inputs": [],
      "name": "pause",
      "outputs": [],
      "stateMutability": "nonpayable",
      "type": "function"
    },
    {
      "inputs": [],
      "name": "paused",
      "outputs": [
        {
          "internalType": "bool",
          "name": "",
          "type": "bool"
        }
      ],
      "stateMutability": "view",
      "type": "function"
    },
    {
      "inputs": [],
      "name": "pendingRewards",
      "outputs": [
        {
          "internalType": "uint256",
          "name": "",
          "type": "uint256"
        }
      ],
      "stateMutability": "view",
      "type": "function"
    },
    {
      "inputs": [
        {
          "internalType": "address",
          "name": "_address",
          "type": "address"
        }
      ],
      "name": "pendingRewardsOf",
      "outputs": [
        {
          "internalType": "uint256",
          "name": "",
          "type": "uint256"
        }
      ],
      "stateMutability": "view",
      "type": "function"
    },
    {
      "inputs": [
        {
          "internalType": "bytes32",
          "name": "role",
          "type": "bytes32"
        },
        {
          "internalType": "address",
          "name": "account",
          "type": "address"
        }
      ],
      "name": "renounceRole",
      "outputs": [],
      "stateMutability": "nonpayable",
      "type": "function"
    },
    {
      "inputs": [
        {
          "internalType": "bytes32",
          "name": "role",
          "type": "bytes32"
        },
        {
          "internalType": "address",
          "name": "account",
          "type": "address"
        }
      ],
      "name": "revokeRole",
      "outputs": [],
      "stateMutability": "nonpayable",
      "type": "function"
    },
    {
      "inputs": [
        {
          "internalType": "address",
          "name": "_address",
          "type": "address"
        }
      ],
      "name": "setGameStorage",
      "outputs": [],
      "stateMutability": "nonpayable",
      "type": "function"
    },
    {
      "inputs": [
        {
          "internalType": "address",
          "name": "nftAddress",
          "type": "address"
        },
        {
          "internalType": "uint256",
          "name": "treeId",
          "type": "uint256"
        },
        {
          "internalType": "uint256",
          "name": "skillId",
          "type": "uint256"
        }
      ],
      "name": "setSkillPointer",
      "outputs": [],
      "stateMutability": "nonpayable",
      "type": "function"
    },
    {
      "inputs": [
        {
          "internalType": "uint256",
          "name": "level",
          "type": "uint256"
        },
        {
          "internalType": "uint256",
          "name": "cost",
          "type": "uint256"
        },
        {
          "internalType": "uint256",
          "name": "time",
          "type": "uint256"
        }
      ],
      "name": "setTrainingCost",
      "outputs": [],
      "stateMutability": "nonpayable",
      "type": "function"
    },
    {
      "inputs": [
        {
          "internalType": "address",
          "name": "nftAddress",
          "type": "address"
        },
        {
          "internalType": "uint256",
          "name": "tokenId",
          "type": "uint256"
        }
      ],
      "name": "stake",
      "outputs": [],
      "stateMutability": "nonpayable",
      "type": "function"
    },
    {
      "inputs": [
        {
          "internalType": "address",
          "name": "nftAddress",
          "type": "address"
        },
        {
          "internalType": "uint256",
          "name": "tokenId",
          "type": "uint256"
        },
        {
          "internalType": "uint256",
          "name": "treeId",
          "type": "uint256"
        },
        {
          "internalType": "uint256",
          "name": "skillId",
          "type": "uint256"
        }
      ],
      "name": "startTraining",
      "outputs": [],
      "stateMutability": "nonpayable",
      "type": "function"
    },
    {
      "inputs": [
        {
          "internalType": "bytes4",
          "name": "interfaceId",
          "type": "bytes4"
        }
      ],
      "name": "supportsInterface",
      "outputs": [
        {
          "internalType": "bool",
          "name": "",
          "type": "bool"
        }
      ],
      "stateMutability": "view",
      "type": "function"
    },
    {
      "inputs": [],
      "name": "unpause",
      "outputs": [],
      "stateMutability": "nonpayable",
      "type": "function"
    },
    {
      "inputs": [
        {
          "internalType": "address",
          "name": "nftAddress",
          "type": "address"
        },
        {
          "internalType": "uint256",
          "name": "tokenId",
          "type": "uint256"
        }
      ],
      "name": "unstake",
      "outputs": [],
      "stateMutability": "nonpayable",
      "type": "function"
    },
    {
      "inputs": [
        {
          "internalType": "address",
          "name": "nftAddress",
          "type": "address"
        },
        {
          "internalType": "address",
          "name": "rewardToken",
          "type": "address"
        },
        {
          "internalType": "uint256",
          "name": "startTime",
          "type": "uint256"
        },
        {
          "internalType": "uint256",
          "name": "maxPointsPerSkill",
          "type": "uint256"
        }
      ],
      "name": "updateStakingConfig",
      "outputs": [],
      "stateMutability": "nonpayable",
      "type": "function"
    },
    {
      "inputs": [
        {
          "internalType": "address",
          "name": "to",
          "type": "address"
        },
        {
          "internalType": "address",
          "name": "token",
          "type": "address"
        },
        {
          "internalType": "uint256",
          "name": "amount",
          "type": "uint256"
        }
      ],
      "name": "withdrawPoolRewards",
      "outputs": [],
      "stateMutability": "nonpayable",
      "type": "function"
    }
  ],
  "bytecode": "0x60806040523480156200001157600080fd5b50600062000020600162000087565b9050801562000039576000805461ff0019166101001790555b801562000080576000805461ff0019169055604051600181527f7f26b83ff96e1f2b6a682f133852f6798a09c465da95921460cefb38474024989060200160405180910390a15b50620001a8565b60008054610100900460ff161562000120578160ff166001148015620000c05750620000be306200019960201b620041341760201c565b155b620001185760405162461bcd60e51b815260206004820152602e602482015260008051602062005cda83398151915260448201526d191e481a5b9a5d1a585b1a5e995960921b60648201526084015b60405180910390fd5b506000919050565b60005460ff8084169116106200017f5760405162461bcd60e51b815260206004820152602e602482015260008051602062005cda83398151915260448201526d191e481a5b9a5d1a585b1a5e995960921b60648201526084016200010f565b506000805460ff191660ff92909216919091179055600190565b6001600160a01b03163b151590565b615b2280620001b86000396000f3fe608060405234801561001057600080fd5b50600436106102d65760003560e01c806381fda71d11610182578063be29c925116100e9578063d3a13d42116100a2578063e62ccc9c1161007c578063e62ccc9c146106b5578063e63ab1e9146106c8578063eded3fda146106dd578063fa5887ee146106e557600080fd5b8063d3a13d421461067c578063d547741f1461068f578063d9a2c1d2146106a257600080fd5b8063be29c92514610608578063bea64ba21461061b578063c2a672e01461062e578063c59abf9f14610641578063c75fb3e314610656578063cc3f7b1c1461066957600080fd5b8063a217fddf1161013b578063a217fddf146105a1578063a401344b146105a9578063abfc6e73146105bc578063adc9772e146105cf578063aed2151a146105e2578063aeeba615146105f557600080fd5b806381fda71d146105455780638456cb591461055857806386e8953d1461056057806391d148541461057357806394a77066146105865780639f8f60681461059957600080fd5b80633988bad8116102415780634e71d92d116101fa5780635c975abb116101d45780635c975abb146104ff578063729c35531461050a57806376c7e36a1461051d5780638129fc1c1461053d57600080fd5b80634e71d92d146104c45780634eeea443146104cc5780635a2d8800146104df57600080fd5b80633988bad8146104575780633d564e491461046a5780633f4ba83a1461047d578063421f72c71461048557806347e633801461049c5780634cb12fee146104b157600080fd5b806323de54d81161029357806323de54d8146103af578063248a9ca3146103da5780632f2ff15d1461040b57806332b95a6f1461041e57806333820bac1461043157806336568abe1461044457600080fd5b806301ffc9a7146102db5780630ae7a46114610303578063139bed4c14610318578063150b7a021461032b578063195454871461037c5780632119e1401461038f575b600080fd5b6102ee6102e9366004614d48565b6106f8565b60405190151581526020015b60405180910390f35b610316610311366004614d72565b61072f565b005b610316610326366004614eeb565b610760565b610363610339366004614fbc565b7f150b7a023d4804d13e8c85fb27262cb750cf6ba9f9dd3bb30d90f482ceeb4b1f95945050505050565b6040516001600160e01b031990911681526020016102fa565b61031661038a36600461505a565b61081c565b6103a261039d3660046150bd565b6108a5565b6040516102fa9190615148565b60c9546103c2906001600160a01b031681565b6040516001600160a01b0390911681526020016102fa565b6103fd6103e8366004615156565b60009081526097602052604090206001015490565b6040519081526020016102fa565b61031661041936600461516f565b61092f565b61031661042c36600461505a565b610954565b61031661043f36600461519f565b6109f2565b61031661045236600461516f565b610a2d565b6103fd6104653660046151d4565b610aab565b61031661047836600461505a565b610bd3565b610316610c4e565b61048d610c79565b6040516102fa9392919061527b565b6103fd600080516020615aad83398151915281565b6103166104bf36600461532f565b610e63565b610316611289565b6103166104da36600461535b565b6112a2565b6104f26104ed36600461532f565b61138f565b6040516102fa91906153ad565b60335460ff166102ee565b6103166105183660046150bd565b61186a565b61053061052b3660046151d4565b6118dd565b6040516102fa91906153c0565b610316611c22565b6103fd61055336600461532f565b611cd9565b610316611d99565b6102ee61056e36600461532f565b611dc1565b6102ee61058136600461516f565b611e84565b61031661059436600461540e565b611eaf565b610530612274565b6103fd600081565b6103166105b73660046151d4565b612284565b6103166105ca3660046154a8565b61232c565b6103166105dd36600461532f565b61252c565b6103166105f03660046154ee565b6128b0565b61031661060336600461505a565b6129b2565b610316610616366004615575565b612a50565b6103166106293660046150bd565b612bdc565b61031661063c36600461532f565b612d96565b6106496132b7565b6040516102fa9190615621565b6106496106643660046151d4565b6132be565b61031661067736600461532f565b613356565b61031661068a3660046151d4565b613708565b61031661069d36600461516f565b613743565b6103166106b036600461505a565b613768565b6103166106c336600461532f565b6137e3565b6103fd600080516020615acd83398151915281565b6103fd613abf565b6103166106f3366004615634565b613aca565b60006001600160e01b03198216637965db0b60e01b148061072957506301ffc9a760e01b6001600160e01b03198316145b92915050565b600080516020615aad83398151915261074781614143565b50600092835260cb602052604090922090815560010155565b600061076b81614143565b60005b86518110156108135761080187828151811061078c5761078c61566f565b60200260200101518783815181106107a6576107a661566f565b60200260200101518784815181106107c0576107c061566f565b60200260200101518785815181106107da576107da61566f565b60200260200101518786815181106107f4576107f461566f565b60200260200101516112a2565b8061080b8161569b565b91505061076e565b50505050505050565b80518251146108465760405162461bcd60e51b815260040161083d906156b6565b60405180910390fd5b60005b82518110156108a05761088e8382815181106108675761086761566f565b60200260200101518383815181106108815761088161566f565b6020026020010151610e63565b806108988161569b565b915050610849565b505050565b6108ad614c7d565b506001600160a01b03928316600090815260ca602090815260408083209486168352938152838220928252918252829020825160e081018452815490941684526001810154918401919091526002810154918301919091526003810154606083015260048101546080830152600581015460a08301526006015460c082015290565b60008281526097602052604090206001015461094a81614143565b6108a0838361414d565b60335460ff16156109775760405162461bcd60e51b815260040161083d906156fa565b80518251146109985760405162461bcd60e51b815260040161083d906156b6565b60005b82518110156108a0576109e08382815181106109b9576109b961566f565b60200260200101518383815181106109d3576109d361566f565b602002602001015161252c565b806109ea8161569b565b91505061099b565b600080516020615aad833981519152610a0a81614143565b506001600160a01b03909216600090815260d06020526040902090815560010155565b6001600160a01b0381163314610a9d5760405162461bcd60e51b815260206004820152602f60248201527f416363657373436f6e74726f6c3a2063616e206f6e6c792072656e6f756e636560448201526e103937b632b9903337b91039b2b63360891b606482015260840161083d565b610aa782826141d3565b5050565b6001600160a01b038116600090815260d1602090815260408083205460cc9092528220825b8154811015610bca576000826000018281548110610af057610af061566f565b90600052602060002090600302016002015442610b0d9190615724565b90506000610b71846000018481548110610b2957610b2961566f565b600091825260209091206003909102015485546001600160a01b0390911690869086908110610b5a57610b5a61566f565b906000526020600020906003020160010154611cd9565b90508162015180610b8383600161573b565b610b9590670de0b6b3a7640000615753565b610b9f9190615772565b610ba99190615753565b610bb3908661573b565b945050508080610bc29061569b565b915050610ad0565b50909392505050565b8051825114610bf45760405162461bcd60e51b815260040161083d906156b6565b60005b82518110156108a057610c3c838281518110610c1557610c1561566f565b6020026020010151838381518110610c2f57610c2f61566f565b6020026020010151612d96565b80610c468161569b565b915050610bf7565b600080516020615acd833981519152610c6681614143565b610c6e61423a565b610c7661426e565b50565b60608060606000610c8a60cd614301565b9050806001600160401b03811115610ca457610ca4614d9e565b604051908082528060200260200182016040528015610ccd578160200160208202803683370190505b509150806001600160401b03811115610ce857610ce8614d9e565b604051908082528060200260200182016040528015610d1b57816020015b6060815260200190600190039081610d065790505b50925060005b81811015610e505760cc6000610d3860cd8461430b565b6001600160a01b03166001600160a01b03168152602001908152602001600020600001805480602002602001604051908101604052809291908181526020016000905b82821015610dd0576000848152602090819020604080516060810182526003860290920180546001600160a01b0316835260018082015484860152600290910154918301919091529083529092019101610d7b565b50505050848281518110610de657610de661566f565b602090810291909101015260d16000610e0060cd8461430b565b6001600160a01b03166001600160a01b0316815260200190815260200160002054838281518110610e3357610e3361566f565b602090810291909101015280610e488161569b565b915050610d21565b50610e5b60cd61431e565b935050909192565b6040516331a9108f60e11b8152600481018290528290829030906001600160a01b03841690636352211e9060240160206040518083038186803b158015610ea957600080fd5b505afa158015610ebd573d6000803e3d6000fd5b505050506040513d601f19601f82011682018060405250810190610ee19190615794565b6001600160a01b031614610f075760405162461bcd60e51b815260040161083d906157b1565b60c95460405163537a724f60e11b8152859185916001600160a01b039091169063a6f4e49e90610f42908590859060009081906004016157d5565b60206040518083038186803b158015610f5a57600080fd5b505afa158015610f6e573d6000803e3d6000fd5b505050506040513d601f19601f82011682018060405250810190610f9291906157fb565b600114610fb15760405162461bcd60e51b815260040161083d90615814565b33600090815260ca602090815260408083206001600160a01b038a16845282528083208884529091529020600581015461101c5760405162461bcd60e51b815260206004820152600c60248201526b4e6f7420747261696e696e6760a01b604482015260640161083d565b42816006015411156110705760405162461bcd60e51b815260206004820152601a60248201527f547261696e696e67207374696c6c20696e2070726f6772657373000000000000604482015260640161083d565b60005b33600090815260cc60205260409020548110156111165733600090815260cc602052604090208054889190839081106110ae576110ae61566f565b9060005260206000209060030201600101541415611104576110ff335b33600090815260cc602052604090208054849081106110ec576110ec61566f565b906000526020600020906003020161432b565b611116565b8061110e8161569b565b915050611073565b5060c95460038201546004808401546002850154604051630d126da960e11b81526001600160a01b038d811694820194909452602481018c905260448101949094526064840191909152608483015290911690631a24db529060a401600060405180830381600087803b15801561118c57600080fd5b505af11580156111a0573d6000803e3d6000fd5b50505050866001600160a01b03166111b53390565b6001600160a01b03167f4cffb663b46d78e759211fc8a998ed5dd16066c4229b4b4e94bc0ff7431e85a888846003015485600401548660020154604051611215949392919093845260208401929092526040830152606082015260800190565b60405180910390a3505033600090815260ca602090815260408083206001600160a01b039890981683529681528682209582529490945250505090812080546001600160a01b0319168155600181018290556002810182905560038101829055600481018290556005810182905560060155565b61129733614354565b614354565b6112a0336143a2565b565b60006112ad81614143565b6001600160a01b038616600090815260cc602052604090208054859190879081106112da576112da61566f565b6000918252602080832060039290920290910180546001600160a01b0319166001600160a01b03948516179055918816815260cc9091526040902080548491908790811061132a5761132a61566f565b60009182526020909120600160039092020101558115611387576001600160a01b038616600090815260cc602052604090208054839190879081106113715761137161566f565b9060005260206000209060030201600201819055505b505050505050565b6001600160a01b038216600090815260cf60209081526040808320815160a0810183528154815260018201548185015260028201805484518187028101870186528181526060979693958601939092919083018282801561140f57602002820191906000526020600020905b8154815260200190600101908083116113fb575b505050505081526020016003820180548060200260200160405190810160405280929190818152602001828054801561146757602002820191906000526020600020905b815481526020019060010190808311611453575b5050509183525050600491909101546001600160a01b031660209091015280519091506114d65760405162461bcd60e51b815260206004820152601e60248201527f4e6f20747261696e696e672073657373696f6e20636f6e666967757265640000604482015260640161083d565b60008160400151516001600160401b038111156114f5576114f5614d9e565b60405190808252806020026020018201604052801561151e578160200160208202803683370190505b50905060008060005b84604001515181101561168d5760c954604086015180516001600160a01b039092169163a6f4e49e918b918b9190869081106115655761156561566f565b6020026020010151896060015186815181106115835761158361566f565b60200260200101516040518563ffffffff1660e01b81526004016115aa94939291906157d5565b60206040518083038186803b1580156115c257600080fd5b505afa1580156115d6573d6000803e3d6000fd5b505050506040513d601f19601f820116820180604052508101906115fa91906157fb565b84828151811061160c5761160c61566f565b602002602001018181525050600084828151811061162c5761162c61566f565b6020026020010151111561164857826116448161569b565b9350505b846020015184828151811061165f5761165f61566f565b6020026020010151141561167b57816116778161569b565b9250505b806116858161569b565b915050611527565b50816116a157505050606001519050610729565b80600214156116b857506060935061072992505050565b600060018560400151516116cc9190615724565b6001600160401b038111156116e3576116e3614d9e565b60405190808252806020026020018201604052801561170c578160200160208202803683370190505b5090506000805b855181101561185c5783600114801561172c5750846001145b801561175157508581815181106117455761174561566f565b60200260200101516000145b15611793578660600151818151811061176c5761176c61566f565b60200260200101518383815181106117865761178661566f565b6020026020010181815250505b60008682815181106117a7576117a761566f565b60200260200101511180156117d8575086602001518682815181106117ce576117ce61566f565b6020026020010151105b1561184a5760408051600180825281830190925260009160208083019080368337019050509050876060015182815181106118155761181561566f565b6020026020010151816000815181106118305761183061566f565b602090810291909101015297506107299650505050505050565b806118548161569b565b915050611713565b509098975050505050505050565b600061187581614143565b506001600160a01b03928316600090815260ca60209081526040808320949095168252928352838120918152915290812080546001600160a01b0319168155600181018290556002810182905560038101829055600481018290556005810182905560060155565b6001600160a01b038116600090815260cc60209081526040808320805482518185028101850190935280835260609493849084015b82821015611967576000848152602090819020604080516060810182526003860290920180546001600160a01b0316835260018082015484860152600290910154918301919091529083529092019101611912565b5050505090506000805b8251811015611a87576001600160a01b038516600090815260ca60205260408120845182908690859081106119a8576119a861566f565b6020026020010151600001516001600160a01b03166001600160a01b0316815260200190815260200160002060008584815181106119e8576119e861566f565b6020908102919091018101518101518252818101929092526040908101600020815160e08101835281546001600160a01b031681526001820154938101939093526002810154918301919091526003810154606083015260048101546080830152600581015460a08301526006015460c0820181905290915015611a745782611a708161569b565b9350505b5080611a7f8161569b565b915050611971565b506000816001600160401b03811115611aa257611aa2614d9e565b604051908082528060200260200182016040528015611adb57816020015b611ac8614c7d565b815260200190600190039081611ac05790505b5090506000805b8451811015611c17576001600160a01b038716600090815260ca6020526040812086518290889085908110611b1957611b1961566f565b6020026020010151600001516001600160a01b03166001600160a01b031681526020019081526020016000206000878481518110611b5957611b5961566f565b6020908102919091018101518101518252818101929092526040908101600020815160e08101835281546001600160a01b031681526001820154938101939093526002810154918301919091526003810154606083015260048101546080830152600581015460a08301526006015460c0820181905290915015611c045780848481518110611bea57611bea61566f565b60200260200101819052508280611c009061569b565b9350505b5080611c0f8161569b565b915050611ae2565b509095945050505050565b6000611c2e6001614637565b90508015611c46576000805461ff0019166101001790555b611c4e6146bf565b611c566146ee565b611c6160003361414d565b611c79600080516020615acd8339815191523361414d565b611c91600080516020615aad8339815191523361414d565b8015610c76576000805461ff0019169055604051600181527f7f26b83ff96e1f2b6a682f133852f6798a09c465da95921460cefb38474024989060200160405180910390a150565b600080805b600c811015611d915760c95460405163537a724f60e11b81526000916001600160a01b03169063a6f4e49e90611d1f908990899060019088906004016157d5565b60206040518083038186803b158015611d3757600080fd5b505afa158015611d4b573d6000803e3d6000fd5b505050506040513d601f19601f82011682018060405250810190611d6f91906157fb565b9050611d7b818461573b565b9250508080611d899061569b565b915050611cde565b509392505050565b600080516020615acd833981519152611db181614143565b611db961423a565b610c76614715565b6001600160a01b03808316600090815260d0602052604080822060c95481546001830154935163537a724f60e11b8152949592948694929093169263a6f4e49e92611e13928a928a92906004016157d5565b60206040518083038186803b158015611e2b57600080fd5b505afa158015611e3f573d6000803e3d6000fd5b505050506040513d601f19601f82011682018060405250810190611e6391906157fb565b90508060011415611e7957600192505050610729565b506000949350505050565b60009182526097602090815260408084206001600160a01b0393909316845291905290205460ff1690565b600080516020615aad833981519152611ec781614143565b6001600160a01b038716600090815260cf602052604090205415611f2d5760405162461bcd60e51b815260206004820152601d60248201527f5374616b696e6720636f6e66696720616c726561647920657869737473000000604482015260640161083d565b6000835111611f765760405162461bcd60e51b81526020600482015260156024820152744d697373696e672074726565496420636f6e66696760581b604482015260640161083d565b6000825111611fc05760405162461bcd60e51b81526020600482015260166024820152754d697373696e6720736b696c6c496420636f6e66696760501b604482015260640161083d565b82518251146120205760405162461bcd60e51b815260206004820152602660248201527f5472656549647320616e6420536b696c6c49647320617272617973206d757374604482015265040dac2e8c6d60d31b606482015260840161083d565b600084116120405760405162461bcd60e51b815260040161083d9061583a565b42851161205f5760405162461bcd60e51b815260040161083d90615882565b6040516370a0823160e01b81523060048201526000906001600160a01b038816906370a082319060240160206040518083038186803b1580156120a157600080fd5b505afa1580156120b5573d6000803e3d6000fd5b505050506040513d601f19601f820116820180604052508101906120d991906157fb565b1161211d5760405162461bcd60e51b81526020600482015260146024820152734e6f2066756e647320666f72207265776172647360601b604482015260640161083d565b61212561423a565b6001600160a01b03878116600090815260cf602052604081206004810180546001600160a01b031916938a169390931790925586825560019091018590555b83518110156122245760cf6000896001600160a01b03166001600160a01b031681526020019081526020016000206002018482815181106121a7576121a761566f565b6020908102919091018101518254600181018455600093845282842001556001600160a01b038a16825260cf90526040902083516003909101908490839081106121f3576121f361566f565b602090810291909101810151825460018101845560009384529190922001558061221c8161569b565b915050612164565b50604080516001600160a01b038881168252602082018890528916917fc6e5f1ee3138795eeda2fa0aab37379a177c4f04396146dd2b154ab55f5c5585910160405180910390a250505050505050565b606061227f336118dd565b905090565b600080516020615aad83398151915261229c81614143565b6122a461423a565b6001600160a01b038216600090815260cf6020526040812081815560018101829055906122d46002830182614cc3565b6122e2600383016000614cc3565b5060040180546001600160a01b03191690556040516001600160a01b038316907fed93036dfb7e5500a2a7f2471a56e6b3389a8c28c72adca8ba9f6a4025ca6d5890600090a25050565b600080516020615aad83398151915261234481614143565b6001600160a01b038516600090815260cf60205260409020546123a95760405162461bcd60e51b815260206004820152601d60248201527f5374616b696e6720636f6e66696720646f6573206e6f74206578697374000000604482015260640161083d565b600082116123c95760405162461bcd60e51b815260040161083d9061583a565b4283116123e85760405162461bcd60e51b815260040161083d90615882565b6040516370a0823160e01b81523060048201526000906001600160a01b038616906370a082319060240160206040518083038186803b15801561242a57600080fd5b505afa15801561243e573d6000803e3d6000fd5b505050506040513d601f19601f8201168201806040525081019061246291906157fb565b116124a65760405162461bcd60e51b81526020600482015260146024820152734e6f2066756e647320666f72207265776172647360601b604482015260640161083d565b6124ae61423a565b6001600160a01b03858116600081815260cf60209081526040918290206004810180546001600160a01b031916958a169586179055878155600181018790558251948552908401879052927f255d2940ab142f16cd2452c452fc20185bcbc341ce9c1646bc3d4feac9dc3371910160405180910390a2505050505050565b60335460ff161561254f5760405162461bcd60e51b815260040161083d906156fa565b6040516331a9108f60e11b8152600481018290528290829030906001600160a01b03841690636352211e9060240160206040518083038186803b15801561259557600080fd5b505afa1580156125a9573d6000803e3d6000fd5b505050506040513d601f19601f820116820180604052508101906125cd9190615794565b6001600160a01b031614156126155760405162461bcd60e51b815260206004820152600e60248201526d105b1c9958591e481cdd185ad95960921b604482015260640161083d565b60c95460405163537a724f60e11b8152859185916001600160a01b039091169063a6f4e49e90612650908590859060009081906004016157d5565b60206040518083038186803b15801561266857600080fd5b505afa15801561267c573d6000803e3d6000fd5b505050506040513d601f19601f820116820180604052508101906126a091906157fb565b6001146126bf5760405162461bcd60e51b815260040161083d90615814565b6001600160a01b038616600090815260cf60205260409020546127145760405162461bcd60e51b815260206004820152600d60248201526c496e76616c6964207374616b6560981b604482015260640161083d565b6001600160a01b038616600090815260cf60205260409020544210156127765760405162461bcd60e51b815260206004820152601760248201527614dd185ada5b99c81a185cc81b9bdd081cdd185c9d1959604a1b604482015260640161083d565b604051632142170760e11b81526001600160a01b038716906342842e0e906127a690339030908a906004016158cc565b600060405180830381600087803b1580156127c057600080fd5b505af11580156127d4573d6000803e3d6000fd5b505050506127ea6127e23390565b60cd9061476d565b5033600090815260cc6020908152604080832081516060810183526001600160a01b038b811682528185018b815242948301948552835460018082018655948852959096209151600390950290910180546001600160a01b031916949091169390931783559251928201929092559051600290910155612868611289565b6040518581526001600160a01b0387169033907f5dac0c1b1112564a045ba943c9d50270893e8e826c49be8e7073adc713ab7bd79060200160405180910390a3505050505050565b600080516020615aad8339815191526128c881614143565b825184511480156128da575081518351145b6129375760405162461bcd60e51b815260206004820152602860248201527f416c6c20696e70757420617272617973206d757374206265207468652073616d6044820152670ca40d8cadccee8d60c31b606482015260840161083d565b60005b84518110156129ab576129998582815181106129585761295861566f565b60200260200101518583815181106129725761297261566f565b602002602001015185848151811061298c5761298c61566f565b602002602001015161072f565b806129a38161569b565b91505061293a565b5050505050565b60335460ff16156129d55760405162461bcd60e51b815260040161083d906156fa565b80518251146129f65760405162461bcd60e51b815260040161083d906156b6565b60005b82518110156108a057612a3e838281518110612a1757612a1761566f565b6020026020010151838381518110612a3157612a3161566f565b6020026020010151613356565b80612a488161569b565b9150506129f9565b60335460ff1615612a735760405162461bcd60e51b815260040161083d906156fa565b8251845114612a945760405162461bcd60e51b815260040161083d906156b6565b8151845114612af15760405162461bcd60e51b815260206004820152602360248201527f6164647265737320636f756e74206d757374206d61746368207472656520636f6044820152621d5b9d60ea1b606482015260840161083d565b8051845114612b4e5760405162461bcd60e51b8152602060048201526024808201527f6164647265737320636f756e74206d757374206d6174636820736b696c6c20636044820152631bdd5b9d60e21b606482015260840161083d565b60005b84518110156129ab57612bca858281518110612b6f57612b6f61566f565b6020026020010151858381518110612b8957612b8961566f565b6020026020010151858481518110612ba357612ba361566f565b6020026020010151858581518110612bbd57612bbd61566f565b6020026020010151613aca565b80612bd48161569b565b915050612b51565b6000612be781614143565b612bef61423a565b6040516370a0823160e01b8152306004820152839083906001600160a01b038316906370a082319060240160206040518083038186803b158015612c3257600080fd5b505afa158015612c46573d6000803e3d6000fd5b505050506040513d601f19601f82011682018060405250810190612c6a91906157fb565b1015612caf5760405162461bcd60e51b8152602060048201526014602482015273496e73756666696369656e742062616c616e636560601b604482015260640161083d565b6040516323b872dd60e01b81526001600160a01b038216906323b872dd90612cdf903090899088906004016158cc565b602060405180830381600087803b158015612cf957600080fd5b505af1158015612d0d573d6000803e3d6000fd5b505050506040513d601f19601f82011682018060405250810190612d3191906158f0565b50836001600160a01b0316856001600160a01b0316612d4d3390565b6001600160a01b03167f74ed50f6a2a005dd31f4766fb60918c4a6728cb0da9eeb81b9526bc6da11ec0f86604051612d8791815260200190565b60405180910390a45050505050565b6040516331a9108f60e11b8152600481018290528290829030906001600160a01b03841690636352211e9060240160206040518083038186803b158015612ddc57600080fd5b505afa158015612df0573d6000803e3d6000fd5b505050506040513d601f19601f82011682018060405250810190612e149190615794565b6001600160a01b031614612e3a5760405162461bcd60e51b815260040161083d906157b1565b60c95460405163537a724f60e11b8152859185916001600160a01b039091169063a6f4e49e90612e75908590859060009081906004016157d5565b60206040518083038186803b158015612e8d57600080fd5b505afa158015612ea1573d6000803e3d6000fd5b505050506040513d601f19601f82011682018060405250810190612ec591906157fb565b600114612ee45760405162461bcd60e51b815260040161083d90615814565b33600090815260cc6020526040902054612f315760405162461bcd60e51b815260206004820152600e60248201526d139bc81391951cc81cdd185ad95960921b604482015260640161083d565b33600090815260cc6020908152604080832080548251818502810185019093528083529192909190849084015b82821015612fb3576000848152602090819020604080516060810182526003860290920180546001600160a01b0316835260018082015484860152600290910154918301919091529083529092019101612f5e565b50505050905060cc6000612fc43390565b6001600160a01b0316815260208101919091526040016000908120612fe891614ce1565b60005b81518110156131e757876001600160a01b03168282815181106130105761301061566f565b6020026020010151600001516001600160a01b031614801561304e5750868282815181106130405761304061566f565b602002602001015160200151145b156130e15761307c33898985858151811061306b5761306b61566f565b602002602001015160400151614782565b33600090815260ca602090815260408083206001600160a01b038c16845282528083208a8452909152812080546001600160a01b03191681556001810182905560028101829055600381018290556004810182905560058101829055600601556131d5565b60cc6000336001600160a01b03166001600160a01b0316815260200190815260200160002060000160405180606001604052808484815181106131265761312661566f565b6020026020010151600001516001600160a01b031681526020018484815181106131525761315261566f565b60200260200101516020015181526020018484815181106131755761317561566f565b602090810291909101810151604090810151909252835460018082018655600095865294829020845160039092020180546001600160a01b0319166001600160a01b03909216919091178155908301519381019390935501516002909101555b806131df8161569b565b915050612feb565b506131f0611289565b6131f933614824565b6040516323b872dd60e01b81526001600160a01b038816906323b872dd9061322990309033908b906004016158cc565b600060405180830381600087803b15801561324357600080fd5b505af1158015613257573d6000803e3d6000fd5b50505050866001600160a01b031661326c3390565b6001600160a01b03167fd8654fcc8cf5b36d30b3f5e4688fc78118e6d68de60b9994e09902268b57c3e3886040516132a691815260200190565b60405180910390a350505050505050565b606061227f335b6001600160a01b038116600090815260cc60209081526040808320805482518185028101850190935280835260609492939192909184015b8282101561334b576000848152602090819020604080516060810182526003860290920180546001600160a01b03168352600180820154848601526002909101549183019190915290835290920191016132f6565b505050509050919050565b60335460ff16156133795760405162461bcd60e51b815260040161083d906156fa565b6040516331a9108f60e11b8152600481018290528290829030906001600160a01b03841690636352211e9060240160206040518083038186803b1580156133bf57600080fd5b505afa1580156133d3573d6000803e3d6000fd5b505050506040513d601f19601f820116820180604052508101906133f79190615794565b6001600160a01b0316141561343f5760405162461bcd60e51b815260206004820152600e60248201526d105b1c9958591e481cdd185ad95960921b604482015260640161083d565b6001600160a01b038416600090815260d060205260408120906134628686611dc1565b905080156134b25760405162461bcd60e51b815260206004820152601860248201527f5374616b696e6720616c726561647920756e6c6f636b65640000000000000000604482015260640161083d565b6001600160a01b038616600090815260cf60205260409020546135105760405162461bcd60e51b815260206004820152601660248201527514dd185ada5b99c81b9bdd0818dbdb999a59dd5c995960521b604482015260640161083d565b6001600160a01b038616600090815260cf60205260409020544210156135725760405162461bcd60e51b815260206004820152601760248201527614dd185ada5b99c81a185cc81b9bdd081cdd185c9d1959604a1b604482015260640161083d565b6001600160a01b03868116600090815260cf602052604090206004015416806323b872dd336000805260cb6020527f4239c2c8c3d9b94feb214b0f54d7c869ce1ceb63517be57644336cda4967a468546040516001600160e01b031960e085901b1681526135e5929130916004016158cc565b602060405180830381600087803b1580156135ff57600080fd5b505af1158015613613573d6000803e3d6000fd5b505050506040513d601f19601f8201168201806040525081019061363791906158f0565b5060c9548354600180860154604051630d126da960e11b81526001600160a01b038c81166004830152602482018c9052604482019490945260648101919091526084810191909152911690631a24db529060a401600060405180830381600087803b1580156136a557600080fd5b505af11580156136b9573d6000803e3d6000fd5b50505050866001600160a01b03166136ce3390565b6001600160a01b03167f051144eeaaad1c4ee6b1eab928f531a9daf1687b3e0f8db00dae3f5df8c285db886040516132a691815260200190565b600080516020615aad83398151915261372081614143565b5060c980546001600160a01b0319166001600160a01b0392909216919091179055565b60008281526097602052604090206001015461375e81614143565b6108a083836141d3565b80518251146137895760405162461bcd60e51b815260040161083d906156b6565b60005b82518110156108a0576137d18382815181106137aa576137aa61566f565b60200260200101518383815181106137c4576137c461566f565b60200260200101516137e3565b806137db8161569b565b91505061378c565b6040516331a9108f60e11b8152600481018290528290829030906001600160a01b03841690636352211e9060240160206040518083038186803b15801561382957600080fd5b505afa15801561383d573d6000803e3d6000fd5b505050506040513d601f19601f820116820180604052508101906138619190615794565b6001600160a01b0316146138875760405162461bcd60e51b815260040161083d906157b1565b60c95460405163537a724f60e11b8152859185916001600160a01b039091169063a6f4e49e906138c2908590859060009081906004016157d5565b60206040518083038186803b1580156138da57600080fd5b505afa1580156138ee573d6000803e3d6000fd5b505050506040513d601f19601f8201168201806040525081019061391291906157fb565b6001146139315760405162461bcd60e51b815260040161083d90615814565b33600090815260ca602090815260408083206001600160a01b038a16845282528083208884529091529020600581015461399c5760405162461bcd60e51b815260206004820152600c60248201526b4e6f7420747261696e696e6760a01b604482015260640161083d565b428160060154116139ef5760405162461bcd60e51b815260206004820152601960248201527f547261696e696e6720616c72656164792066696e697368656400000000000000604482015260640161083d565b60005b33600090815260cc6020526040902054811015613a655733600090815260cc60205260409020805488919083908110613a2d57613a2d61566f565b9060005260206000209060030201600101541415613a5357613a4e336110cb565b613a65565b80613a5d8161569b565b9150506139f2565b50600381015460048201546040805189815260208101939093528201524260608201526001600160a01b0388169033907fc9b7c59fa980251f7ca7eae784c953e8a9f49d617be6edca0b41264ea05cb16990608001611215565b600061227f33610aab565b60335460ff1615613aed5760405162461bcd60e51b815260040161083d906156fa565b6040516331a9108f60e11b8152600481018490528490849030906001600160a01b03841690636352211e9060240160206040518083038186803b158015613b3357600080fd5b505afa158015613b47573d6000803e3d6000fd5b505050506040513d601f19601f82011682018060405250810190613b6b9190615794565b6001600160a01b031614613b915760405162461bcd60e51b815260040161083d906157b1565b60c95460405163537a724f60e11b8152879187916001600160a01b039091169063a6f4e49e90613bcc908590859060009081906004016157d5565b60206040518083038186803b158015613be457600080fd5b505afa158015613bf8573d6000803e3d6000fd5b505050506040513d601f19601f82011682018060405250810190613c1c91906157fb565b600114613c3b5760405162461bcd60e51b815260040161083d90615814565b6001600160a01b038816600090815260cf602052604090208054613ca15760405162461bcd60e51b815260206004820152601e60248201527f4e6f20747261696e696e672073657373696f6e20636f6e666967757265640000604482015260640161083d565b8054421015613cf25760405162461bcd60e51b815260206004820152601c60248201527f547261696e696e6720686173206e6f7420737461727465642079657400000000604482015260640161083d565b33600090815260ca602090815260408083206001600160a01b038d16845282528083208b84529091529020600581015415613d6f5760405162461bcd60e51b815260206004820152601f60248201527f547261696e696e6720697320616c726561647920696e2070726f677265737300604482015260640161083d565b6000613d7b8b8b61138f565b90506000815111613dce5760405162461bcd60e51b815260206004820152601e60248201527f4e6f20747261696e696e672073657373696f6e7320617661696c61626c650000604482015260640161083d565b6000805b8251811015613e175789838281518110613dee57613dee61566f565b60200260200101511415613e055760019150613e17565b80613e0f8161569b565b915050613dd2565b5080613e655760405162461bcd60e51b815260206004820152601760248201527f496e76616c696420747261696e696e67206f7074696f6e000000000000000000604482015260640161083d565b600060c960009054906101000a90046001600160a01b03166001600160a01b031663a6f4e49e8e8e8e8e6040518563ffffffff1660e01b8152600401613eae94939291906157d5565b60206040518083038186803b158015613ec657600080fd5b505afa158015613eda573d6000803e3d6000fd5b505050506040513d601f19601f82011682018060405250810190613efe91906157fb565b9050600060cb81613f1084600161573b565b815260200190815260200160002090508560010154826001613f32919061573b565b1115613f805760405162461bcd60e51b815260206004820152601e60248201527f45786365656473206d6178696d756d20747261696e696e67206c6576656c0000604482015260640161083d565b8054613fce5760405162461bcd60e51b815260206004820152601d60248201527f547261696e696e67204c6576656c206973206e6f7420656e61626c6564000000604482015260640161083d565b60048681015482546040516323b872dd60e01b81526001600160a01b03909216926323b872dd926140039233923092016158cc565b602060405180830381600087803b15801561401d57600080fd5b505af1158015614031573d6000803e3d6000fd5b505050506040513d601f19601f8201168201806040525081019061405591906158f0565b5061406182600161573b565b6002860155600385018c9055600485018b90554260058601819055600182015461408a9161573b565b600686015584546001600160a01b0319166001600160a01b038f169081178655600186018e9055336001600160a01b03167f98d1944772cc1ee399725448c633b3ec863f8be81e490479055d810afaa0225c8f8f8f6140ea88600161573b565b60058c015460068d0154604080519687526020870195909552938501929092526060840152608083015260a082015260c00160405180910390a35050505050505050505050505050565b6001600160a01b03163b151590565b610c76813361486e565b6141578282611e84565b610aa75760008281526097602090815260408083206001600160a01b03851684529091529020805460ff1916600117905561418f3390565b6001600160a01b0316816001600160a01b0316837f2f8788117e7eff1d82e926ec794901d17c78024a50270940304540a733656f0d60405160405180910390a45050565b6141dd8282611e84565b15610aa75760008281526097602090815260408083206001600160a01b0385168085529252808320805460ff1916905551339285917ff6391f5c32d9c69d2a47ea670b442974b53935d1edc7fd64eb21e047a839171b9190a45050565b60005b61424760cd614301565b811015610c765761425c61129260cd8361430b565b806142668161569b565b91505061423d565b60335460ff166142b75760405162461bcd60e51b815260206004820152601460248201527314185d5cd8589b194e881b9bdd081c185d5cd95960621b604482015260640161083d565b6033805460ff191690557f5db9ee0a495bf2e6ff9c91a7834c1ba4fdd244a5e8aa4e537bd38aeae4b073aa335b6040516001600160a01b03909116815260200160405180910390a1565b6000610729825490565b600061431783836148d2565b9392505050565b60606000614317836148fc565b60028101805442909155815460018301546108a09185916001600160a01b039091169084614782565b6001600160a01b038116600090815260cc60205260408120905b81548110156108a057614390838360000183815481106110ec576110ec61566f565b8061439a8161569b565b91505061436e565b6001600160a01b038116600090815260d1602052604090205469043c33c19375648000008110614423576001600160a01b038216600081815260cc60209081526040918290205482519081529081018490527fb4dbe8af97297f3ecbb538955ef6410079ad6268c887a438d8af7ab49dd3602b910160405180910390a25050565b6001600160a01b038216600090815260d1602052604080822091909155516370a0823160e01b815230600482015273892d81221484f690c0a97d3dd18b9144a3ecdfb790829082906370a082319060240160206040518083038186803b15801561448c57600080fd5b505afa1580156144a0573d6000803e3d6000fd5b505050506040513d601f19601f820116820180604052508101906144c491906157fb565b10156145125760405162461bcd60e51b815260206004820181905260248201527f496e73756666696369656e74207265776172647320696e20636f6e7472616374604482015260640161083d565b60405163a9059cbb60e01b81526001600160a01b0384811660048301526024820184905282169063a9059cbb90604401602060405180830381600087803b15801561455c57600080fd5b505af1158015614570573d6000803e3d6000fd5b505050506040513d601f19601f8201168201806040525081019061459491906158f0565b506001600160a01b038316600090815260cc60205260409020541580156145d157506001600160a01b038316600090815260d16020526040902054155b156145e5576145e3335b60cd90614958565b505b806001600160a01b0316836001600160a01b03167ff7a40077ff7a04c7e61f6f26fb13774259ddf1b6bce9ecf26a8276cdd39926838460405161462a91815260200190565b60405180910390a3505050565b60008054610100900460ff161561467e578160ff16600114801561465a5750303b155b6146765760405162461bcd60e51b815260040161083d90615912565b506000919050565b60005460ff8084169116106146a55760405162461bcd60e51b815260040161083d90615912565b506000805460ff191660ff92909216919091179055600190565b600054610100900460ff166146e65760405162461bcd60e51b815260040161083d90615960565b6112a061496d565b600054610100900460ff166112a05760405162461bcd60e51b815260040161083d90615960565b60335460ff16156147385760405162461bcd60e51b815260040161083d906156fa565b6033805460ff191660011790557f62e78cea01bee320cd4e420270b5ea74000d11b0c9f74754ebdbfc544b05a2586142e43390565b6000614317836001600160a01b0384166149a0565b80158061478f5750428110155b156147995761481e565b60006147a58242615724565b905060006147b38585611cd9565b9050806147bf8161569b565b9150829050620151806147da83670de0b6b3a7640000615753565b6147e49190615772565b6147ee9190615753565b6001600160a01b038716600090815260d160205260408120805490919061481690849061573b565b909155505050505b50505050565b6001600160a01b038116600090815260cc602052604090205415801561486057506001600160a01b038116600090815260d16020526040902054155b15610c7657610aa7336145db565b6148788282611e84565b610aa757614890816001600160a01b031660146149ef565b61489b8360206149ef565b6040516020016148ac9291906159d7565b60408051601f198184030181529082905262461bcd60e51b825261083d91600401615a4c565b60008260000182815481106148e9576148e961566f565b9060005260206000200154905092915050565b60608160000180548060200260200160405190810160405280929190818152602001828054801561494c57602002820191906000526020600020905b815481526020019060010190808311614938575b50505050509050919050565b6000614317836001600160a01b038416614b8a565b600054610100900460ff166149945760405162461bcd60e51b815260040161083d90615960565b6033805460ff19169055565b60008181526001830160205260408120546149e757508154600181810184556000848152602080822090930184905584548482528286019093526040902091909155610729565b506000610729565b606060006149fe836002615753565b614a0990600261573b565b6001600160401b03811115614a2057614a20614d9e565b6040519080825280601f01601f191660200182016040528015614a4a576020820181803683370190505b509050600360fc1b81600081518110614a6557614a6561566f565b60200101906001600160f81b031916908160001a905350600f60fb1b81600181518110614a9457614a9461566f565b60200101906001600160f81b031916908160001a9053506000614ab8846002615753565b614ac390600161573b565b90505b6001811115614b3b576f181899199a1a9b1b9c1cb0b131b232b360811b85600f1660108110614af757614af761566f565b1a60f81b828281518110614b0d57614b0d61566f565b60200101906001600160f81b031916908160001a90535060049490941c93614b3481615a7f565b9050614ac6565b5083156143175760405162461bcd60e51b815260206004820181905260248201527f537472696e67733a20686578206c656e67746820696e73756666696369656e74604482015260640161083d565b60008181526001830160205260408120548015614c73576000614bae600183615724565b8554909150600090614bc290600190615724565b9050818114614c27576000866000018281548110614be257614be261566f565b9060005260206000200154905080876000018481548110614c0557614c0561566f565b6000918252602080832090910192909255918252600188019052604090208390555b8554869080614c3857614c38615a96565b600190038181906000526020600020016000905590558560010160008681526020019081526020016000206000905560019350505050610729565b6000915050610729565b6040518060e0016040528060006001600160a01b031681526020016000815260200160008152602001600081526020016000815260200160008152602001600081525090565b5080546000825590600052602060002090810190610c769190614d02565b5080546000825560030290600052602060002090810190610c769190614d1b565b5b80821115614d175760008155600101614d03565b5090565b5b80821115614d175780546001600160a01b03191681556000600182018190556002820155600301614d1c565b600060208284031215614d5a57600080fd5b81356001600160e01b03198116811461431757600080fd5b600080600060608486031215614d8757600080fd5b505081359360208301359350604090920135919050565b634e487b7160e01b600052604160045260246000fd5b604051601f8201601f191681016001600160401b0381118282101715614ddc57614ddc614d9e565b604052919050565b60006001600160401b03821115614dfd57614dfd614d9e565b5060051b60200190565b6001600160a01b0381168114610c7657600080fd5b600082601f830112614e2d57600080fd5b81356020614e42614e3d83614de4565b614db4565b82815260059290921b84018101918181019086841115614e6157600080fd5b8286015b84811015614e85578035614e7881614e07565b8352918301918301614e65565b509695505050505050565b600082601f830112614ea157600080fd5b81356020614eb1614e3d83614de4565b82815260059290921b84018101918181019086841115614ed057600080fd5b8286015b84811015614e855780358352918301918301614ed4565b600080600080600060a08688031215614f0357600080fd5b85356001600160401b0380821115614f1a57600080fd5b614f2689838a01614e1c565b96506020880135915080821115614f3c57600080fd5b614f4889838a01614e90565b95506040880135915080821115614f5e57600080fd5b614f6a89838a01614e1c565b94506060880135915080821115614f8057600080fd5b614f8c89838a01614e90565b93506080880135915080821115614fa257600080fd5b50614faf88828901614e90565b9150509295509295909350565b600080600080600060808688031215614fd457600080fd5b8535614fdf81614e07565b94506020860135614fef81614e07565b93506040860135925060608601356001600160401b038082111561501257600080fd5b818801915088601f83011261502657600080fd5b81358181111561503557600080fd5b89602082850101111561504757600080fd5b9699959850939650602001949392505050565b6000806040838503121561506d57600080fd5b82356001600160401b038082111561508457600080fd5b61509086838701614e1c565b935060208501359150808211156150a657600080fd5b506150b385828601614e90565b9150509250929050565b6000806000606084860312156150d257600080fd5b83356150dd81614e07565b925060208401356150ed81614e07565b929592945050506040919091013590565b80516001600160a01b031682526020808201519083015260408082015190830152606080820151908301526080808201519083015260a0818101519083015260c090810151910152565b60e0810161072982846150fe565b60006020828403121561516857600080fd5b5035919050565b6000806040838503121561518257600080fd5b82359150602083013561519481614e07565b809150509250929050565b6000806000606084860312156151b457600080fd5b83356151bf81614e07565b95602085013595506040909401359392505050565b6000602082840312156151e657600080fd5b813561431781614e07565b600081518084526020808501945080840160005b8381101561524057815180516001600160a01b0316885283810151848901526040908101519088015260609096019590820190600101615205565b509495945050505050565b600081518084526020808501945080840160005b838110156152405781518752958201959082019060010161525f565b606080825284519082018190526000906020906080840190828801845b828110156152bd5781516001600160a01b031684529284019290840190600101615298565b50505083810382850152855180825282820190600581901b8301840188850160005b8381101561530d57601f198684030185526152fb8383516151f1565b948701949250908601906001016152df565b50508681036040880152615321818961524b565b9a9950505050505050505050565b6000806040838503121561534257600080fd5b823561534d81614e07565b946020939093013593505050565b600080600080600060a0868803121561537357600080fd5b853561537e81614e07565b945060208601359350604086013561539581614e07565b94979396509394606081013594506080013592915050565b602081526000614317602083018461524b565b6020808252825182820181905260009190848201906040850190845b81811015615402576153ef8385516150fe565b9284019260e092909201916001016153dc565b50909695505050505050565b60008060008060008060c0878903121561542757600080fd5b863561543281614e07565b9550602087013561544281614e07565b9450604087013593506060870135925060808701356001600160401b038082111561546c57600080fd5b6154788a838b01614e90565b935060a089013591508082111561548e57600080fd5b5061549b89828a01614e90565b9150509295509295509295565b600080600080608085870312156154be57600080fd5b84356154c981614e07565b935060208501356154d981614e07565b93969395505050506040820135916060013590565b60008060006060848603121561550357600080fd5b83356001600160401b038082111561551a57600080fd5b61552687838801614e90565b9450602086013591508082111561553c57600080fd5b61554887838801614e90565b9350604086013591508082111561555e57600080fd5b5061556b86828701614e90565b9150509250925092565b6000806000806080858703121561558b57600080fd5b84356001600160401b03808211156155a257600080fd5b6155ae88838901614e1c565b955060208701359150808211156155c457600080fd5b6155d088838901614e90565b945060408701359150808211156155e657600080fd5b6155f288838901614e90565b9350606087013591508082111561560857600080fd5b5061561587828801614e90565b91505092959194509250565b60208152600061431760208301846151f1565b6000806000806080858703121561564a57600080fd5b843561565581614e07565b966020860135965060408601359560600135945092505050565b634e487b7160e01b600052603260045260246000fd5b634e487b7160e01b600052601160045260246000fd5b60006000198214156156af576156af615685565b5060010190565b60208082526024908201527f6164647265737320636f756e74206d757374206d6174636820746f6b656e20636040820152631bdd5b9d60e21b606082015260800190565b60208082526010908201526f14185d5cd8589b194e881c185d5cd95960821b604082015260600190565b60008282101561573657615736615685565b500390565b6000821982111561574e5761574e615685565b500190565b600081600019048311821515161561576d5761576d615685565b500290565b60008261578f57634e487b7160e01b600052601260045260246000fd5b500490565b6000602082840312156157a657600080fd5b815161431781614e07565b6020808252600a9082015269139bdd081cdd185ad95960b21b604082015260600190565b6001600160a01b0394909416845260208401929092526040830152606082015260800190565b60006020828403121561580d57600080fd5b5051919050565b6020808252600c908201526b139bdd081d5b9b1bd8dad95960a21b604082015260600190565b60208082526028908201527f6d6178506f696e7473506572536b696c6c206d75737420626520677265617465604082015267072207468616e20360c41b606082015260800190565b6020808252602a908201527f737461727454696d65206d7573742062652061206675747572652074696d6520604082015269696e207365636f6e647360b01b606082015260800190565b6001600160a01b039384168152919092166020820152604081019190915260600190565b60006020828403121561590257600080fd5b8151801515811461431757600080fd5b6020808252602e908201527f496e697469616c697a61626c653a20636f6e747261637420697320616c72656160408201526d191e481a5b9a5d1a585b1a5e995960921b606082015260800190565b6020808252602b908201527f496e697469616c697a61626c653a20636f6e7472616374206973206e6f74206960408201526a6e697469616c697a696e6760a81b606082015260800190565b60005b838110156159c65781810151838201526020016159ae565b8381111561481e5750506000910152565b7f416363657373436f6e74726f6c3a206163636f756e7420000000000000000000815260008351615a0f8160178501602088016159ab565b7001034b99036b4b9b9b4b733903937b6329607d1b6017918401918201528351615a408160288401602088016159ab565b01602801949350505050565b6020815260008251806020840152615a6b8160408501602087016159ab565b601f01601f19169190910160400192915050565b600081615a8e57615a8e615685565b506000190190565b634e487b7160e01b600052603160045260246000fdfe73e573f9566d61418a34d5de3ff49360f9c51fec37f7486551670290f6285dab65d7a28e3265b37a6474929f336521b332c1681b933f6cb9f3376673440d862aa26469706673582212203001df5ad60c2dd20413ff917960afd16cb3f74db0ca974ddc68ac2eb554a88364736f6c63430008090033496e697469616c697a61626c653a20636f6e747261637420697320616c726561",
  "linkReferences": {},
  "deployedLinkReferences": {}
}