{
  "_format": "hh-sol-artifact-1",
  "contractName": "ProfessionStakingUpgradeable",
  "sourceName": "contracts/upgradeable/npc/ProfessionStakingUpgradeable.sol",
  "abi": [
    {
      "inputs": [],
      "stateMutability": "nonpayable",
      "type": "constructor"
    },
    {
      "anonymous": false,
      "inputs": [
        {
          "indexed": true,
          "internalType": "address",
          "name": "by",
          "type": "address"
        },
        {
          "indexed": true,
          "internalType": "address",
          "name": "token",
          "type": "address"
        },
        {
          "indexed": false,
          "internalType": "uint256",
          "name": "amount",
          "type": "uint256"
        }
      ],
      "name": "Claimed",
      "type": "event"
    },
    {
      "anonymous": false,
      "inputs": [
        {
          "indexed": false,
          "internalType": "uint8",
          "name": "version",
          "type": "uint8"
        }
      ],
      "name": "Initialized",
      "type": "event"
    },
    {
      "anonymous": false,
      "inputs": [
        {
          "indexed": false,
          "internalType": "address",
          "name": "account",
          "type": "address"
        }
      ],
      "name": "Paused",
      "type": "event"
    },
    {
      "anonymous": false,
      "inputs": [
        {
          "indexed": true,
          "internalType": "address",
          "name": "from",
          "type": "address"
        },
        {
          "indexed": true,
          "internalType": "address",
          "name": "token",
          "type": "address"
        },
        {
          "indexed": false,
          "internalType": "uint256",
          "name": "amount",
          "type": "uint256"
        }
      ],
      "name": "PoolRewardsDeposited",
      "type": "event"
    },
    {
      "anonymous": false,
      "inputs": [
        {
          "indexed": true,
          "internalType": "address",
          "name": "by",
          "type": "address"
        },
        {
          "indexed": true,
          "internalType": "address",
          "name": "to",
          "type": "address"
        },
        {
          "indexed": true,
          "internalType": "address",
          "name": "token",
          "type": "address"
        },
        {
          "indexed": false,
          "internalType": "uint256",
          "name": "amount",
          "type": "uint256"
        }
      ],
      "name": "PoolRewardsWithdrawn",
      "type": "event"
    },
    {
      "anonymous": false,
      "inputs": [
        {
          "indexed": true,
          "internalType": "bytes32",
          "name": "role",
          "type": "bytes32"
        },
        {
          "indexed": true,
          "internalType": "bytes32",
          "name": "previousAdminRole",
          "type": "bytes32"
        },
        {
          "indexed": true,
          "internalType": "bytes32",
          "name": "newAdminRole",
          "type": "bytes32"
        }
      ],
      "name": "RoleAdminChanged",
      "type": "event"
    },
    {
      "anonymous": false,
      "inputs": [
        {
          "indexed": true,
          "internalType": "bytes32",
          "name": "role",
          "type": "bytes32"
        },
        {
          "indexed": true,
          "internalType": "address",
          "name": "account",
          "type": "address"
        },
        {
          "indexed": true,
          "internalType": "address",
          "name": "sender",
          "type": "address"
        }
      ],
      "name": "RoleGranted",
      "type": "event"
    },
    {
      "anonymous": false,
      "inputs": [
        {
          "indexed": true,
          "internalType": "bytes32",
          "name": "role",
          "type": "bytes32"
        },
        {
          "indexed": true,
          "internalType": "address",
          "name": "account",
          "type": "address"
        },
        {
          "indexed": true,
          "internalType": "address",
          "name": "sender",
          "type": "address"
        }
      ],
      "name": "RoleRevoked",
      "type": "event"
    },
    {
      "anonymous": false,
      "inputs": [
        {
          "indexed": true,
          "internalType": "address",
          "name": "from",
          "type": "address"
        },
        {
          "indexed": true,
          "internalType": "address",
          "name": "nftAddress",
          "type": "address"
        },
        {
          "indexed": false,
          "internalType": "uint256",
          "name": "tokenId",
          "type": "uint256"
        }
      ],
      "name": "Staked",
      "type": "event"
    },
    {
      "anonymous": false,
      "inputs": [
        {
          "indexed": true,
          "internalType": "address",
          "name": "nftAddress",
          "type": "address"
        },
        {
          "indexed": false,
          "internalType": "address",
          "name": "rewardToken",
          "type": "address"
        },
        {
          "indexed": false,
          "internalType": "uint256",
          "name": "startTime",
          "type": "uint256"
        }
      ],
      "name": "StakingConfigCreated",
      "type": "event"
    },
    {
      "anonymous": false,
      "inputs": [
        {
          "indexed": true,
          "internalType": "address",
          "name": "nftAddress",
          "type": "address"
        }
      ],
      "name": "StakingConfigDeleted",
      "type": "event"
    },
    {
      "anonymous": false,
      "inputs": [
        {
          "indexed": true,
          "internalType": "address",
          "name": "nftAddress",
          "type": "address"
        },
        {
          "indexed": false,
          "internalType": "address",
          "name": "rewardToken",
          "type": "address"
        },
        {
          "indexed": false,
          "internalType": "uint256",
          "name": "startTime",
          "type": "uint256"
        }
      ],
      "name": "StakingConfigUpdated",
      "type": "event"
    },
    {
      "anonymous": false,
      "inputs": [
        {
          "indexed": true,
          "internalType": "address",
          "name": "by",
          "type": "address"
        },
        {
          "indexed": true,
          "internalType": "address",
          "name": "nftAddress",
          "type": "address"
        },
        {
          "indexed": false,
          "internalType": "uint256",
          "name": "tokenId",
          "type": "uint256"
        }
      ],
      "name": "StakingUnlocked",
      "type": "event"
    },
    {
      "anonymous": false,
      "inputs": [
        {
          "indexed": true,
          "internalType": "address",
          "name": "by",
          "type": "address"
        },
        {
          "indexed": true,
          "internalType": "address",
          "name": "nftAddress",
          "type": "address"
        },
        {
          "indexed": false,
          "internalType": "uint256",
          "name": "tokenId",
          "type": "uint256"
        },
        {
          "indexed": false,
          "internalType": "uint256",
          "name": "treeId",
          "type": "uint256"
        },
        {
          "indexed": false,
          "internalType": "uint256",
          "name": "skillId",
          "type": "uint256"
        },
        {
          "indexed": false,
          "internalType": "uint256",
          "name": "canceledAt",
          "type": "uint256"
        }
      ],
      "name": "TrainingCanceled",
      "type": "event"
    },
    {
      "anonymous": false,
      "inputs": [
        {
          "indexed": true,
          "internalType": "address",
          "name": "by",
          "type": "address"
        },
        {
          "indexed": true,
          "internalType": "address",
          "name": "nftAddress",
          "type": "address"
        },
        {
          "indexed": false,
          "internalType": "uint256",
          "name": "tokenId",
          "type": "uint256"
        },
        {
          "indexed": false,
          "internalType": "uint256",
          "name": "treeId",
          "type": "uint256"
        },
        {
          "indexed": false,
          "internalType": "uint256",
          "name": "skillId",
          "type": "uint256"
        },
        {
          "indexed": false,
          "internalType": "uint256",
          "name": "level",
          "type": "uint256"
        }
      ],
      "name": "TrainingFinished",
      "type": "event"
    },
    {
      "anonymous": false,
      "inputs": [
        {
          "indexed": true,
          "internalType": "address",
          "name": "by",
          "type": "address"
        },
        {
          "indexed": true,
          "internalType": "address",
          "name": "nftAddress",
          "type": "address"
        },
        {
          "indexed": false,
          "internalType": "uint256",
          "name": "tokenId",
          "type": "uint256"
        },
        {
          "indexed": false,
          "internalType": "uint256",
          "name": "treeId",
          "type": "uint256"
        },
        {
          "indexed": false,
          "internalType": "uint256",
          "name": "skillId",
          "type": "uint256"
        },
        {
          "indexed": false,
          "internalType": "uint256",
          "name": "level",
          "type": "uint256"
        },
        {
          "indexed": false,
          "internalType": "uint256",
          "name": "startedAt",
          "type": "uint256"
        },
        {
          "indexed": false,
          "internalType": "uint256",
          "name": "completeAt",
          "type": "uint256"
        }
      ],
      "name": "TrainingStarted",
      "type": "event"
    },
    {
      "anonymous": false,
      "inputs": [
        {
          "indexed": false,
          "internalType": "address",
          "name": "account",
          "type": "address"
        }
      ],
      "name": "Unpaused",
      "type": "event"
    },
    {
      "anonymous": false,
      "inputs": [
        {
          "indexed": true,
          "internalType": "address",
          "name": "from",
          "type": "address"
        },
        {
          "indexed": true,
          "internalType": "address",
          "name": "nftAddress",
          "type": "address"
        },
        {
          "indexed": false,
          "internalType": "uint256",
          "name": "tokenId",
          "type": "uint256"
        }
      ],
      "name": "Unstaked",
      "type": "event"
    },
    {
      "inputs": [],
      "name": "ADMIN_ROLE",
      "outputs": [
        {
          "internalType": "bytes32",
          "name": "",
          "type": "bytes32"
        }
      ],
      "stateMutability": "view",
      "type": "function"
    },
    {
      "inputs": [],
      "name": "DEFAULT_ADMIN_ROLE",
      "outputs": [
        {
          "internalType": "bytes32",
          "name": "",
          "type": "bytes32"
        }
      ],
      "stateMutability": "view",
      "type": "function"
    },
    {
      "inputs": [
        {
          "internalType": "address[]",
          "name": "addresses",
          "type": "address[]"
        },
        {
          "internalType": "uint256[]",
          "name": "tokenIds",
          "type": "uint256[]"
        },
        {
          "internalType": "uint256[]",
          "name": "rewardFrom",
          "type": "uint256[]"
        }
      ],
      "name": "adminBatchUpdateNftData",
      "outputs": [],
      "stateMutability": "nonpayable",
      "type": "function"
    },
    {
      "inputs": [
        {
          "internalType": "address",
          "name": "_address",
          "type": "address"
        },
        {
          "internalType": "uint256",
          "name": "tokenId",
          "type": "uint256"
        },
        {
          "internalType": "uint256",
          "name": "rewardFrom",
          "type": "uint256"
        }
      ],
      "name": "adminUpdateNftData",
      "outputs": [],
      "stateMutability": "nonpayable",
      "type": "function"
    },
    {
      "inputs": [
        {
          "internalType": "address[]",
          "name": "nftAddresses",
          "type": "address[]"
        },
        {
          "internalType": "uint256[]",
          "name": "tokenIds",
          "type": "uint256[]"
        }
      ],
      "name": "batchCancelTraining",
      "outputs": [],
      "stateMutability": "nonpayable",
      "type": "function"
    },
    {
      "inputs": [
        {
          "internalType": "address[]",
          "name": "nftAddresses",
          "type": "address[]"
        },
        {
          "internalType": "uint256[]",
          "name": "tokenIds",
          "type": "uint256[]"
        }
      ],
      "name": "batchEnableStaking",
      "outputs": [],
      "stateMutability": "nonpayable",
      "type": "function"
    },
    {
      "inputs": [
        {
          "internalType": "address[]",
          "name": "nftAddresses",
          "type": "address[]"
        },
        {
          "internalType": "uint256[]",
          "name": "tokenIds",
          "type": "uint256[]"
        }
      ],
      "name": "batchFinishTraining",
      "outputs": [],
      "stateMutability": "nonpayable",
      "type": "function"
    },
    {
      "inputs": [
        {
          "internalType": "address",
          "name": "nftAddress",
          "type": "address"
        },
        {
          "internalType": "uint256[]",
          "name": "level",
          "type": "uint256[]"
        },
        {
          "internalType": "uint256[]",
          "name": "cost",
          "type": "uint256[]"
        },
        {
          "internalType": "uint256[]",
          "name": "time",
          "type": "uint256[]"
        }
      ],
      "name": "batchSetTrainingCosts",
      "outputs": [],
      "stateMutability": "nonpayable",
      "type": "function"
    },
    {
      "inputs": [
        {
          "internalType": "address[]",
          "name": "nftAddresses",
          "type": "address[]"
        },
        {
          "internalType": "uint256[]",
          "name": "tokenIds",
          "type": "uint256[]"
        }
      ],
      "name": "batchStake",
      "outputs": [],
      "stateMutability": "nonpayable",
      "type": "function"
    },
    {
      "inputs": [
        {
          "internalType": "address[]",
          "name": "nftAddresses",
          "type": "address[]"
        },
        {
          "internalType": "uint256[]",
          "name": "tokenIds",
          "type": "uint256[]"
        },
        {
          "internalType": "uint256[]",
          "name": "treeIds",
          "type": "uint256[]"
        },
        {
          "internalType": "uint256[]",
          "name": "skillIds",
          "type": "uint256[]"
        }
      ],
      "name": "batchStartTraining",
      "outputs": [],
      "stateMutability": "nonpayable",
      "type": "function"
    },
    {
      "inputs": [
        {
          "internalType": "address[]",
          "name": "nftAddresses",
          "type": "address[]"
        },
        {
          "internalType": "uint256[]",
          "name": "tokenIds",
          "type": "uint256[]"
        }
      ],
      "name": "batchUnstake",
      "outputs": [],
      "stateMutability": "nonpayable",
      "type": "function"
    },
    {
      "inputs": [
        {
          "internalType": "address",
          "name": "nftAddress",
          "type": "address"
        },
        {
          "internalType": "uint256",
          "name": "tokenId",
          "type": "uint256"
        }
      ],
      "name": "cancelTraining",
      "outputs": [],
      "stateMutability": "nonpayable",
      "type": "function"
    },
    {
      "inputs": [],
      "name": "claim",
      "outputs": [],
      "stateMutability": "nonpayable",
      "type": "function"
    },
    {
      "inputs": [
        {
          "internalType": "address",
          "name": "stakingToken",
          "type": "address"
        },
        {
          "internalType": "address",
          "name": "rewardToken",
          "type": "address"
        },
        {
          "internalType": "uint256",
          "name": "startTime",
          "type": "uint256"
        },
        {
          "internalType": "uint256",
          "name": "maxPointsPerSkill",
          "type": "uint256"
        },
        {
          "internalType": "uint256",
          "name": "treeId",
          "type": "uint256"
        },
        {
          "internalType": "uint256[]",
          "name": "skillIds",
          "type": "uint256[]"
        }
      ],
      "name": "createStakingConfig",
      "outputs": [],
      "stateMutability": "nonpayable",
      "type": "function"
    },
    {
      "inputs": [
        {
          "internalType": "address",
          "name": "nftAddress",
          "type": "address"
        }
      ],
      "name": "deleteStakingConfig",
      "outputs": [],
      "stateMutability": "nonpayable",
      "type": "function"
    },
    {
      "inputs": [
        {
          "internalType": "address",
          "name": "nftAddress",
          "type": "address"
        },
        {
          "internalType": "uint256",
          "name": "tokenId",
          "type": "uint256"
        }
      ],
      "name": "enableStaking",
      "outputs": [],
      "stateMutability": "nonpayable",
      "type": "function"
    },
    {
      "inputs": [
        {
          "internalType": "address",
          "name": "nftAddress",
          "type": "address"
        },
        {
          "internalType": "uint256",
          "name": "tokenId",
          "type": "uint256"
        }
      ],
      "name": "finishTraining",
      "outputs": [],
      "stateMutability": "nonpayable",
      "type": "function"
    },
    {
      "inputs": [
        {
          "internalType": "address",
          "name": "_address",
          "type": "address"
        },
        {
          "internalType": "address",
          "name": "nftAddress",
          "type": "address"
        },
        {
          "internalType": "uint256",
          "name": "tokenId",
          "type": "uint256"
        }
      ],
      "name": "forceCancelTraining",
      "outputs": [],
      "stateMutability": "nonpayable",
      "type": "function"
    },
    {
      "inputs": [],
      "name": "getActiveTraining",
      "outputs": [
        {
          "components": [
            {
              "internalType": "address",
              "name": "_address",
              "type": "address"
            },
            {
              "internalType": "uint256",
              "name": "tokenId",
              "type": "uint256"
            },
            {
              "internalType": "uint256",
              "name": "level",
              "type": "uint256"
            },
            {
              "internalType": "uint256",
              "name": "treeId",
              "type": "uint256"
            },
            {
              "internalType": "uint256",
              "name": "skillId",
              "type": "uint256"
            },
            {
              "internalType": "uint256",
              "name": "startedAt",
              "type": "uint256"
            },
            {
              "internalType": "uint256",
              "name": "completeAt",
              "type": "uint256"
            }
          ],
          "internalType": "struct ProfessionStakingUpgradeable.TrainingStatus[]",
          "name": "",
          "type": "tuple[]"
        }
      ],
      "stateMutability": "view",
      "type": "function"
    },
    {
      "inputs": [
        {
          "internalType": "address",
          "name": "_address",
          "type": "address"
        }
      ],
      "name": "getActiveTrainingOf",
      "outputs": [
        {
          "components": [
            {
              "internalType": "address",
              "name": "_address",
              "type": "address"
            },
            {
              "internalType": "uint256",
              "name": "tokenId",
              "type": "uint256"
            },
            {
              "internalType": "uint256",
              "name": "level",
              "type": "uint256"
            },
            {
              "internalType": "uint256",
              "name": "treeId",
              "type": "uint256"
            },
            {
              "internalType": "uint256",
              "name": "skillId",
              "type": "uint256"
            },
            {
              "internalType": "uint256",
              "name": "startedAt",
              "type": "uint256"
            },
            {
              "internalType": "uint256",
              "name": "completeAt",
              "type": "uint256"
            }
          ],
          "internalType": "struct ProfessionStakingUpgradeable.TrainingStatus[]",
          "name": "",
          "type": "tuple[]"
        }
      ],
      "stateMutability": "view",
      "type": "function"
    },
    {
      "inputs": [],
      "name": "getAllParticipantData",
      "outputs": [
        {
          "internalType": "address[]",
          "name": "addresses",
          "type": "address[]"
        },
        {
          "components": [
            {
              "internalType": "address",
              "name": "_address",
              "type": "address"
            },
            {
              "internalType": "uint256",
              "name": "tokenId",
              "type": "uint256"
            },
            {
              "internalType": "uint256",
              "name": "rewardFrom",
              "type": "uint256"
            }
          ],
          "internalType": "struct ProfessionStakingUpgradeable.NFT[][]",
          "name": "nfts",
          "type": "tuple[][]"
        },
        {
          "internalType": "uint256[]",
          "name": "rewards",
          "type": "uint256[]"
        }
      ],
      "stateMutability": "view",
      "type": "function"
    },
    {
      "inputs": [
        {
          "internalType": "address",
          "name": "nftAddress",
          "type": "address"
        },
        {
          "internalType": "uint256",
          "name": "tokenId",
          "type": "uint256"
        }
      ],
      "name": "getAllowedSkillChoices",
      "outputs": [
        {
          "internalType": "uint256[]",
          "name": "",
          "type": "uint256[]"
        }
      ],
      "stateMutability": "view",
      "type": "function"
    },
    {
      "inputs": [
        {
          "internalType": "bytes32",
          "name": "role",
          "type": "bytes32"
        }
      ],
      "name": "getRoleAdmin",
      "outputs": [
        {
          "internalType": "bytes32",
          "name": "",
          "type": "bytes32"
        }
      ],
      "stateMutability": "view",
      "type": "function"
    },
    {
      "inputs": [],
      "name": "getStaked",
      "outputs": [
        {
          "components": [
            {
              "internalType": "address",
              "name": "_address",
              "type": "address"
            },
            {
              "internalType": "uint256",
              "name": "tokenId",
              "type": "uint256"
            },
            {
              "internalType": "uint256",
              "name": "rewardFrom",
              "type": "uint256"
            }
          ],
          "internalType": "struct ProfessionStakingUpgradeable.NFT[]",
          "name": "",
          "type": "tuple[]"
        }
      ],
      "stateMutability": "view",
      "type": "function"
    },
    {
      "inputs": [
        {
          "internalType": "address",
          "name": "_address",
          "type": "address"
        }
      ],
      "name": "getStakedOf",
      "outputs": [
        {
          "components": [
            {
              "internalType": "address",
              "name": "_address",
              "type": "address"
            },
            {
              "internalType": "uint256",
              "name": "tokenId",
              "type": "uint256"
            },
            {
              "internalType": "uint256",
              "name": "rewardFrom",
              "type": "uint256"
            }
          ],
          "internalType": "struct ProfessionStakingUpgradeable.NFT[]",
          "name": "",
          "type": "tuple[]"
        }
      ],
      "stateMutability": "view",
      "type": "function"
    },
    {
      "inputs": [
        {
          "internalType": "address",
          "name": "nftAddress",
          "type": "address"
        },
        {
          "internalType": "uint256",
          "name": "tokenId",
          "type": "uint256"
        }
      ],
      "name": "getTotalProfessionSkillPoints",
      "outputs": [
        {
          "internalType": "uint256",
          "name": "",
          "type": "uint256"
        }
      ],
      "stateMutability": "view",
      "type": "function"
    },
    {
      "inputs": [
        {
          "internalType": "address",
          "name": "_address",
          "type": "address"
        },
        {
          "internalType": "address",
          "name": "nftAddress",
          "type": "address"
        },
        {
          "internalType": "uint256",
          "name": "tokenId",
          "type": "uint256"
        }
      ],
      "name": "getTrainingStatus",
      "outputs": [
        {
          "components": [
            {
              "internalType": "address",
              "name": "_address",
              "type": "address"
            },
            {
              "internalType": "uint256",
              "name": "tokenId",
              "type": "uint256"
            },
            {
              "internalType": "uint256",
              "name": "level",
              "type": "uint256"
            },
            {
              "internalType": "uint256",
              "name": "treeId",
              "type": "uint256"
            },
            {
              "internalType": "uint256",
              "name": "skillId",
              "type": "uint256"
            },
            {
              "internalType": "uint256",
              "name": "startedAt",
              "type": "uint256"
            },
            {
              "internalType": "uint256",
              "name": "completeAt",
              "type": "uint256"
            }
          ],
          "internalType": "struct ProfessionStakingUpgradeable.TrainingStatus",
          "name": "",
          "type": "tuple"
        }
      ],
      "stateMutability": "view",
      "type": "function"
    },
    {
      "inputs": [
        {
          "internalType": "bytes32",
          "name": "role",
          "type": "bytes32"
        },
        {
          "internalType": "address",
          "name": "account",
          "type": "address"
        }
      ],
      "name": "grantRole",
      "outputs": [],
      "stateMutability": "nonpayable",
      "type": "function"
    },
    {
      "inputs": [
        {
          "internalType": "bytes32",
          "name": "role",
          "type": "bytes32"
        },
        {
          "internalType": "address",
          "name": "account",
          "type": "address"
        }
      ],
      "name": "hasRole",
      "outputs": [
        {
          "internalType": "bool",
          "name": "",
          "type": "bool"
        }
      ],
      "stateMutability": "view",
      "type": "function"
    },
    {
      "inputs": [],
      "name": "initialize",
      "outputs": [],
      "stateMutability": "nonpayable",
      "type": "function"
    },
    {
      "inputs": [
        {
          "internalType": "address",
          "name": "nftAddress",
          "type": "address"
        },
        {
          "internalType": "uint256",
          "name": "tokenId",
          "type": "uint256"
        }
      ],
      "name": "isStakingEnabled",
      "outputs": [
        {
          "internalType": "bool",
          "name": "",
          "type": "bool"
        }
      ],
      "stateMutability": "view",
      "type": "function"
    },
    {
      "inputs": [
        {
          "internalType": "address",
          "name": "_address",
          "type": "address"
        },
        {
          "internalType": "address",
          "name": "nftAddress",
          "type": "address"
        },
        {
          "internalType": "uint256",
          "name": "tokenId",
          "type": "uint256"
        },
        {
          "internalType": "uint256",
          "name": "skillId",
          "type": "uint256"
        }
      ],
      "name": "modifyActiveTrainingSkill",
      "outputs": [],
      "stateMutability": "nonpayable",
      "type": "function"
    },
    {
      "inputs": [
        {
          "internalType": "address",
          "name": "",
          "type": "address"
        },
        {
          "internalType": "address",
          "name": "",
          "type": "address"
        },
        {
          "internalType": "uint256",
          "name": "",
          "type": "uint256"
        },
        {
          "internalType": "bytes",
          "name": "",
          "type": "bytes"
        }
      ],
      "name": "onERC721Received",
      "outputs": [
        {
          "internalType": "bytes4",
          "name": "",
          "type": "bytes4"
        }
      ],
      "stateMutability": "pure",
      "type": "function"
    },
    {
      "inputs": [],
      "name": "pause",
      "outputs": [],
      "stateMutability": "nonpayable",
      "type": "function"
    },
    {
      "inputs": [],
      "name": "paused",
      "outputs": [
        {
          "internalType": "bool",
          "name": "",
          "type": "bool"
        }
      ],
      "stateMutability": "view",
      "type": "function"
    },
    {
      "inputs": [],
      "name": "pendingRewards",
      "outputs": [
        {
          "internalType": "uint256",
          "name": "",
          "type": "uint256"
        }
      ],
      "stateMutability": "view",
      "type": "function"
    },
    {
      "inputs": [
        {
          "internalType": "address",
          "name": "_address",
          "type": "address"
        }
      ],
      "name": "pendingRewardsOf",
      "outputs": [
        {
          "internalType": "uint256",
          "name": "",
          "type": "uint256"
        }
      ],
      "stateMutability": "view",
      "type": "function"
    },
    {
      "inputs": [
        {
          "internalType": "bytes32",
          "name": "role",
          "type": "bytes32"
        },
        {
          "internalType": "address",
          "name": "account",
          "type": "address"
        }
      ],
      "name": "renounceRole",
      "outputs": [],
      "stateMutability": "nonpayable",
      "type": "function"
    },
    {
      "inputs": [
        {
          "internalType": "bytes32",
          "name": "role",
          "type": "bytes32"
        },
        {
          "internalType": "address",
          "name": "account",
          "type": "address"
        }
      ],
      "name": "revokeRole",
      "outputs": [],
      "stateMutability": "nonpayable",
      "type": "function"
    },
    {
      "inputs": [
        {
          "internalType": "address",
          "name": "nftAddress",
          "type": "address"
        },
        {
          "internalType": "uint256",
          "name": "treeId",
          "type": "uint256"
        },
        {
          "internalType": "uint256",
          "name": "skillId",
          "type": "uint256"
        }
      ],
      "name": "setSkillPointer",
      "outputs": [],
      "stateMutability": "nonpayable",
      "type": "function"
    },
    {
      "inputs": [
        {
          "internalType": "address",
          "name": "nftAddress",
          "type": "address"
        },
        {
          "internalType": "uint256",
          "name": "level",
          "type": "uint256"
        },
        {
          "internalType": "uint256",
          "name": "cost",
          "type": "uint256"
        },
        {
          "internalType": "uint256",
          "name": "time",
          "type": "uint256"
        }
      ],
      "name": "setTrainingCost",
      "outputs": [],
      "stateMutability": "nonpayable",
      "type": "function"
    },
    {
      "inputs": [
        {
          "internalType": "address",
          "name": "nftAddress",
          "type": "address"
        },
        {
          "internalType": "uint256[]",
          "name": "levels",
          "type": "uint256[]"
        },
        {
          "internalType": "uint256[]",
          "name": "times",
          "type": "uint256[]"
        },
        {
          "internalType": "uint256[]",
          "name": "costs",
          "type": "uint256[]"
        }
      ],
      "name": "setTrainingLevelConfig",
      "outputs": [],
      "stateMutability": "nonpayable",
      "type": "function"
    },
    {
      "inputs": [
        {
          "internalType": "address",
          "name": "nftAddress",
          "type": "address"
        },
        {
          "internalType": "uint256",
          "name": "tokenId",
          "type": "uint256"
        }
      ],
      "name": "stake",
      "outputs": [],
      "stateMutability": "nonpayable",
      "type": "function"
    },
    {
      "inputs": [
        {
          "internalType": "address",
          "name": "nftAddress",
          "type": "address"
        },
        {
          "internalType": "uint256",
          "name": "tokenId",
          "type": "uint256"
        },
        {
          "internalType": "uint256",
          "name": "treeId",
          "type": "uint256"
        },
        {
          "internalType": "uint256",
          "name": "skillId",
          "type": "uint256"
        }
      ],
      "name": "startTraining",
      "outputs": [],
      "stateMutability": "nonpayable",
      "type": "function"
    },
    {
      "inputs": [
        {
          "internalType": "bytes4",
          "name": "interfaceId",
          "type": "bytes4"
        }
      ],
      "name": "supportsInterface",
      "outputs": [
        {
          "internalType": "bool",
          "name": "",
          "type": "bool"
        }
      ],
      "stateMutability": "view",
      "type": "function"
    },
    {
      "inputs": [],
      "name": "unpause",
      "outputs": [],
      "stateMutability": "nonpayable",
      "type": "function"
    },
    {
      "inputs": [
        {
          "internalType": "address",
          "name": "nftAddress",
          "type": "address"
        },
        {
          "internalType": "uint256",
          "name": "tokenId",
          "type": "uint256"
        }
      ],
      "name": "unstake",
      "outputs": [],
      "stateMutability": "nonpayable",
      "type": "function"
    },
    {
      "inputs": [
        {
          "internalType": "address",
          "name": "nftAddress",
          "type": "address"
        },
        {
          "internalType": "contract IERC20Upgradeable",
          "name": "rewardToken",
          "type": "address"
        },
        {
          "internalType": "uint256",
          "name": "startTime",
          "type": "uint256"
        },
        {
          "internalType": "uint256",
          "name": "maxPointsPerSkill",
          "type": "uint256"
        }
      ],
      "name": "updateStakingConfig",
      "outputs": [],
      "stateMutability": "nonpayable",
      "type": "function"
    },
    {
      "inputs": [
        {
          "internalType": "address",
          "name": "to",
          "type": "address"
        },
        {
          "internalType": "address",
          "name": "nftAddress",
          "type": "address"
        },
        {
          "internalType": "uint256",
          "name": "amount",
          "type": "uint256"
        }
      ],
      "name": "withdrawPoolRewards",
      "outputs": [],
      "stateMutability": "nonpayable",
      "type": "function"
    }
  ],
  "bytecode": "0x60806040523480156200001157600080fd5b506200001c62000022565b620000e4565b600054610100900460ff16156200008f5760405162461bcd60e51b815260206004820152602760248201527f496e697469616c697a61626c653a20636f6e747261637420697320696e697469604482015266616c697a696e6760c81b606482015260840160405180910390fd5b60005460ff9081161015620000e2576000805460ff191660ff9081179091556040519081527f7f26b83ff96e1f2b6a682f133852f6798a09c465da95921460cefb38474024989060200160405180910390a15b565b6154d980620000f46000396000f3fe608060405234801561001057600080fd5b50600436106102bb5760003560e01c806386e8953d11610182578063bea64ba2116100e9578063d547741f116100a2578063e2a7669c1161007c578063e2a7669c1461066f578063e62ccc9c14610682578063eded3fda14610695578063fa5887ee1461069d57600080fd5b8063d547741f14610636578063d9a2c1d214610649578063df6e7e6f1461065c57600080fd5b8063bea64ba2146105c2578063c2a672e0146105d5578063c59abf9f146105e8578063c75fb3e3146105fd578063ca61466014610610578063cc3f7b1c1461062357600080fd5b8063abfc6e731161013b578063abfc6e7314610550578063adc9772e14610563578063aeeba61514610576578063ba3d7d4a14610589578063bde61d9e1461059c578063be29c925146105af57600080fd5b806386e8953d146104f457806391d148541461050757806395b3b8a11461051a5780639f8f60681461052d578063a217fddf14610535578063a401344b1461053d57600080fd5b8063421f72c711610226578063729c3553116101df578063729c35531461048957806375b238fc1461049c57806376c7e36a146104b15780638129fc1c146104d157806381fda71d146104d95780638456cb59146104ec57600080fd5b8063421f72c7146104195780634cb12fee146104305780634d7dd190146104435780634e71d92d146104565780635a2d88001461045e5780635c975abb1461047e57600080fd5b806332b95a6f1161027857806332b95a6f146103b257806333820bac146103c557806336568abe146103d85780633988bad8146103eb5780633d564e49146103fe5780633f4ba83a1461041157600080fd5b806301ffc9a7146102c0578063150b7a02146102e857806319545487146103395780632119e1401461034e578063248a9ca31461036e5780632f2ff15d1461039f575b600080fd5b6102d36102ce36600461490b565b6106b0565b60405190151581526020015b60405180910390f35b6103206102f636600461494a565b7f150b7a023d4804d13e8c85fb27262cb750cf6ba9f9dd3bb30d90f482ceeb4b1f95945050505050565b6040516001600160e01b031990911681526020016102df565b61034c610347366004614b20565b6106e7565b005b61036161035c366004614b83565b610770565b6040516102df9190614c0e565b61039161037c366004614c1c565b60009081526097602052604090206001015490565b6040519081526020016102df565b61034c6103ad366004614c35565b6107fe565b61034c6103c0366004614b20565b610823565b61034c6103d3366004614c65565b6108a6565b61034c6103e6366004614c35565b6108e6565b6103916103f9366004614c9a565b610964565b61034c61040c366004614b20565b610abe565b61034c610b39565b610421610b64565b6040516102df93929190614d41565b61034c61043e366004614df5565b610dcf565b61034c610451366004614e21565b611182565b61034c6113c4565b61047161046c366004614df5565b6113dd565b6040516102df9190614e9e565b60335460ff166102d3565b61034c610497366004614b83565b611826565b61039160008051602061548483398151915281565b6104c46104bf366004614c9a565b6118a6565b6040516102df9190614eb1565b61034c611ba4565b6103916104e7366004614df5565b611cdf565b61034c611de1565b6102d3610502366004614df5565b611e09565b6102d3610515366004614c35565b611eb9565b61034c610528366004614ef3565b611ee4565b6104c4611f30565b610391600081565b61034c61054b366004614c9a565b611f40565b61034c61055e366004614f2e565b611ffe565b61034c610571366004614df5565b612142565b61034c610584366004614b20565b612512565b61034c610597366004614c65565b612595565b61034c6105aa366004614f74565b6125f2565b61034c6105bd36600461500e565b6126ee565b61034c6105d0366004614b83565b612866565b61034c6105e3366004614df5565b612a19565b6105f0612d78565b6040516102df919061505d565b6105f061060b366004614c9a565b612d7f565b61034c61061e366004614f2e565b612ebd565b61034c610631366004614df5565b612f0f565b61034c610644366004614c35565b6132a9565b61034c610657366004614b20565b6132ce565b61034c61066a366004614f74565b613349565b61034c61067d366004615070565b61343e565b61034c610690366004614df5565b6134ca565b6103916137d3565b61034c6106ab366004614ef3565b6137de565b60006001600160e01b03198216637965db0b60e01b14806106e157506301ffc9a760e01b6001600160e01b03198316145b92915050565b80518251146107115760405162461bcd60e51b8152600401610708906150f7565b60405180910390fd5b60005b825181101561076b576107598382815181106107325761073261513b565b602002602001015183838151811061074c5761074c61513b565b6020026020010151610dcf565b8061076381615167565b915050610714565b505050565b610778614893565b506001600160a01b03808416600090815260c96020908152604080832086851684528252808320858452825291829020825160e081018452815490941684526001810154918401919091526002810154918301919091526003810154606083015260048101546080830152600581015460a08301526006015460c08201525b9392505050565b60008281526097602052604090206001015461081981613d6f565b61076b8383613d79565b61082b613dff565b805182511461084c5760405162461bcd60e51b8152600401610708906150f7565b60005b825181101561076b5761089483828151811061086d5761086d61513b565b60200260200101518383815181106108875761088761513b565b6020026020010151612142565b8061089e81615167565b91505061084f565b6000805160206154848339815191526108be81613d6f565b506001600160a01b03909216600090815260cd60205260409020600781019190915560080155565b6001600160a01b03811633146109565760405162461bcd60e51b815260206004820152602f60248201527f416363657373436f6e74726f6c3a2063616e206f6e6c792072656e6f756e636560448201526e103937b632b9903337b91039b2b63360891b6064820152608401610708565b6109608282613e45565b5050565b6001600160a01b038116600090815260ca6020526040812060038101548261098b83613eac565b905060005b8151811015610ab45760008460020160008484815181106109b3576109b361513b565b6020026020010151815260200190815260200160002060020154426109d89190615180565b90506000610a5b8660020160008686815181106109f7576109f761513b565b6020026020010151815260200190815260200160002060000160009054906101000a90046001600160a01b0316876002016000878781518110610a3c57610a3c61513b565b6020026020010151815260200190815260200160002060010154611cdf565b90508162015180610a6d836001615193565b610a7f90670de0b6b3a76400006151a6565b610a8991906151c5565b610a9391906151a6565b610a9d9086615193565b945050508080610aac90615167565b915050610990565b5090949350505050565b8051825114610adf5760405162461bcd60e51b8152600401610708906150f7565b60005b825181101561076b57610b27838281518110610b0057610b0061513b565b6020026020010151838381518110610b1a57610b1a61513b565b6020026020010151612a19565b80610b3181615167565b915050610ae2565b600080516020615484833981519152610b5181613d6f565b610b59613eb9565b610b61613eed565b50565b60608060606000610b7560cb613f3f565b9050806001600160401b03811115610b8f57610b8f6149e8565b604051908082528060200260200182016040528015610bb8578160200160208202803683370190505b509150806001600160401b03811115610bd357610bd36149e8565b604051908082528060200260200182016040528015610c0657816020015b6060815260200190600190039081610bf15790505b50925060005b81811015610dbc57600060ca81610c2460cb85613f49565b6001600160a01b03168152602081019190915260400160009081209150610c4a82613eac565b9050600081516001600160401b03811115610c6757610c676149e8565b604051908082528060200260200182016040528015610cc557816020015b610cb2604051806060016040528060006001600160a01b0316815260200160008152602001600081525090565b815260200190600190039081610c855790505b50905060005b8151811015610d6457836002016000848381518110610cec57610cec61513b565b6020908102919091018101518252818101929092526040908101600020815160608101835281546001600160a01b0316815260018201549381019390935260020154908201528251839083908110610d4657610d4661513b565b60200260200101819052508080610d5c90615167565b915050610ccb565b5080878581518110610d7857610d7861513b565b60200260200101819052508260030154868581518110610d9a57610d9a61513b565b6020026020010181815250505050508080610db490615167565b915050610c0c565b50610dc760cb613eac565b935050909192565b6040516331a9108f60e11b8152600481018290528290829030906001600160a01b03841690636352211e90602401602060405180830381865afa158015610e1a573d6000803e3d6000fd5b505050506040513d601f19601f82011682018060405250810190610e3e91906151e7565b6001600160a01b031614610e645760405162461bcd60e51b815260040161070890615204565b6001600160a01b03848116600090815260cd60205260409081902060068101546007820154600883015493516322ca3b1560e11b8152600481018990526024810191909152604481019390935287938793911690634594762a90606401602060405180830381865afa158015610ede573d6000803e3d6000fd5b505050506040513d601f19601f82011682018060405250810190610f029190615228565b600114610f215760405162461bcd60e51b815260040161070890615241565b6001600160a01b038716600081815260cd602090815260408083203380855260c984528285209585529483528184208b8552835281842094845260ca9092529091206005830154919291610fa65760405162461bcd60e51b815260206004820152600c60248201526b4e6f7420747261696e696e6760a01b6044820152606401610708565b4282600601541115610ffa5760405162461bcd60e51b815260206004820152601a60248201527f547261696e696e67207374696c6c20696e2070726f67726573730000000000006044820152606401610708565b6110133360008b81526002840160205260409020613f55565b6006830154600383015460048085015460028601546040516305ad7d8960e51b81529283018e90526024830193909352604482015260648101919091526001600160a01b039091169063b5afb12090608401600060405180830381600087803b15801561107f57600080fd5b505af1158015611093573d6000803e3d6000fd5b50505050896001600160a01b03166110a83390565b6001600160a01b03167f4cffb663b46d78e759211fc8a998ed5dd16066c4229b4b4e94bc0ff7431e85a88b856003015486600401548760020154604051611108949392919093845260208401929092526040830152606082015260800190565b60405180910390a3505033600090815260c9602090815260408083206001600160a01b039b909b1683529981528982209882529790975250505093832080546001600160a01b0319168155600181018490556002810184905560038101849055600481018490556005810184905560060192909255505050565b60008051602061548483398151915261119a81613d6f565b6001600160a01b038716600090815260cd602052604090208054156112015760405162461bcd60e51b815260206004820152601d60248201527f5374616b696e6720636f6e66696720616c7265616479206578697374730000006044820152606401610708565b600084116112495760405162461bcd60e51b81526020600482015260156024820152744d697373696e672074726565496420636f6e66696760581b6044820152606401610708565b60008351116112935760405162461bcd60e51b81526020600482015260166024820152754d697373696e6720736b696c6c496420636f6e66696760501b6044820152606401610708565b600085116112b35760405162461bcd60e51b815260040161070890615267565b4286116112d25760405162461bcd60e51b8152600401610708906152af565b858155600181018590556002810184905560005b835181101561133657816003018482815181106113055761130561513b565b602090810291909101810151825460018101845560009384529190922001558061132e81615167565b9150506112e6565b506004810180546001600160a01b038981166001600160a01b03199283168117909355600684018054918c1691909216811790915560006007840190815560096008850155835460408051948552602085019190915290927fc6e5f1ee3138795eeda2fa0aab37379a177c4f04396146dd2b154ab55f5c5585910160405180910390a2505050505050505050565b6113d233613f7e565b613f7e565b6113db33613ffd565b565b6001600160a01b038216600090815260cd602052604090208054606091906114475760405162461bcd60e51b815260206004820152601e60248201527f4e6f20747261696e696e672073657373696f6e20636f6e6669677572656400006044820152606401610708565b60038101546000906001600160401b03811115611466576114666149e8565b60405190808252806020026020018201604052801561148f578160200160208202803683370190505b50905060008060005b60038501548110156115e757600685015460028601546003870180546001600160a01b0390931692634594762a928b929091869081106114da576114da61513b565b90600052602060002001546040518463ffffffff1660e01b8152600401611514939291909283526020830191909152604082015260600190565b602060405180830381865afa158015611531573d6000803e3d6000fd5b505050506040513d601f19601f820116820180604052508101906115559190615228565b8482815181106115675761156761513b565b60200260200101818152505060008482815181106115875761158761513b565b602002602001015111156115a3578261159f81615167565b9350505b84600101548482815181106115ba576115ba61513b565b6020026020010151036115d557816115d181615167565b9250505b806115df81615167565b915050611498565b508160000361164e578360030180548060200260200160405190810160405280929190818152602001828054801561163e57602002820191906000526020600020905b81548152602001906001019080831161162a575b50505050509450505050506106e1565b806002036116645750606093506106e192505050565b600384015460009061167890600190615180565b6001600160401b0381111561168f5761168f6149e8565b6040519080825280602002602001820160405280156116b8578160200160208202803683370190505b5090506000805b8551811015611818578360011480156116d85750846001145b80156116fd57508581815181106116f1576116f161513b565b60200260200101516000145b1561174d578660030181815481106117175761171761513b565b90600052602060002001548383815181106117345761173461513b565b60209081029190910101528161174981615167565b9250505b60008682815181106117615761176161513b565b6020026020010151118015611792575086600101548682815181106117885761178861513b565b6020026020010151105b1561180657604080516001808252818301909252600091602080830190803683370190505090508760030182815481106117ce576117ce61513b565b9060005260206000200154816000815181106117ec576117ec61513b565b602090810291909101015297506106e19650505050505050565b8061181081615167565b9150506116bf565b509098975050505050505050565b60008051602061548483398151915261183e81613d6f565b506001600160a01b03928316600090815260c960209081526040808320949095168252928352838120918152915290812080546001600160a01b0319168155600181018290556002810182905560038101829055600481018290556005810182905560060155565b6001600160a01b038116600090815260ca602052604081206060916118ca82613eac565b90506000805b825181101561198a5760008460020160008584815181106118f3576118f361513b565b60209081029190910181015182528181019290925260409081016000908120825160608101845281546001600160a01b0390811682526001830154828701908152600290930154828601528c8116845260c98652848420825190911684528552838320915183529352206006015490915015611977578261197381615167565b9350505b508061198281615167565b9150506118d0565b506000816001600160401b038111156119a5576119a56149e8565b6040519080825280602002602001820160405280156119de57816020015b6119cb614893565b8152602001906001900390816119c35790505b5090506000805b8451811015611b98576000866002016000878481518110611a0857611a0861513b565b602002602001015181526020019081526020016000206040518060600160405290816000820160009054906101000a90046001600160a01b03166001600160a01b03166001600160a01b03168152602001600182015481526020016002820154815250509050600060c960008b6001600160a01b03166001600160a01b03168152602001908152602001600020600083600001516001600160a01b03166001600160a01b031681526020019081526020016000206000836020015181526020019081526020016000206040518060e00160405290816000820160009054906101000a90046001600160a01b03166001600160a01b03166001600160a01b031681526020016001820154815260200160028201548152602001600382015481526020016004820154815260200160058201548152602001600682015481525050905060008160c001511115611b835780858581518110611b6957611b6961513b565b60200260200101819052508380611b7f90615167565b9450505b50508080611b9090615167565b9150506119e5565b50909695505050505050565b600054610100900460ff1615808015611bc45750600054600160ff909116105b80611bde5750303b158015611bde575060005460ff166001145b611c415760405162461bcd60e51b815260206004820152602e60248201527f496e697469616c697a61626c653a20636f6e747261637420697320616c72656160448201526d191e481a5b9a5d1a585b1a5e995960921b6064820152608401610708565b6000805460ff191660011790558015611c64576000805461ff0019166101001790555b611c6c614210565b611c7461423f565b611c7f600033613d79565b611c9760008051602061548483398151915233613d79565b8015610b61576000805461ff0019169055604051600181527f7f26b83ff96e1f2b6a682f133852f6798a09c465da95921460cefb38474024989060200160405180910390a150565b6001600160a01b038216600090815260cd6020526040812081805b6003830154811015611dd857600683015460028401546003850180546000936001600160a01b031692634594762a928a9287908110611d3b57611d3b61513b565b90600052602060002001546040518463ffffffff1660e01b8152600401611d75939291909283526020830191909152604082015260600190565b602060405180830381865afa158015611d92573d6000803e3d6000fd5b505050506040513d601f19601f82011682018060405250810190611db69190615228565b9050611dc28184615193565b9250508080611dd090615167565b915050611cfa565b50949350505050565b600080516020615484833981519152611df981613d6f565b611e01613eb9565b610b61614266565b6001600160a01b03828116600090815260cd60205260408082206006810154600782018054600884015494516322ca3b1560e11b81526004810189905260248101919091526044810194909452939491939285929190911690634594762a90606401602060405180830381865afa158015611e88573d6000803e3d6000fd5b505050506040513d601f19601f82011682018060405250810190611eac9190615228565b6001149695505050505050565b60009182526097602090815260408084206001600160a01b0393909316845291905290205460ff1690565b600080516020615484833981519152611efc81613d6f565b506001600160a01b03909316600090815260cd60209081526040808320948352600590940190529190912090815560010155565b6060611f3b336118a6565b905090565b600080516020615484833981519152611f5881613d6f565b611f60613eb9565b6001600160a01b038216600090815260cd60205260408120818155600181018290556002810182905590611f9760038301826148d9565b506004810180546001600160a01b0319908116909155600682018054909116905560006007820181905560089091018190556040516001600160a01b038416917fed93036dfb7e5500a2a7f2471a56e6b3389a8c28c72adca8ba9f6a4025ca6d5891a25050565b60008051602061548483398151915261201681613d6f565b6001600160a01b038516600090815260cd6020526040812054900361207d5760405162461bcd60e51b815260206004820152601d60248201527f5374616b696e6720636f6e66696720646f6573206e6f742065786973740000006044820152606401610708565b6000821161209d5760405162461bcd60e51b815260040161070890615267565b4283116120bc5760405162461bcd60e51b8152600401610708906152af565b6120c4613eb9565b6001600160a01b03858116600081815260cd60209081526040918290206004810180546001600160a01b031916958a169586179055878155600181018790558251948552908401879052927f255d2940ab142f16cd2452c452fc20185bcbc341ce9c1646bc3d4feac9dc3371910160405180910390a2505050505050565b61214a613dff565b6040516331a9108f60e11b8152600481018290528290829030906001600160a01b03841690636352211e90602401602060405180830381865afa158015612195573d6000803e3d6000fd5b505050506040513d601f19601f820116820180604052508101906121b991906151e7565b6001600160a01b0316036122005760405162461bcd60e51b815260206004820152600e60248201526d105b1c9958591e481cdd185ad95960921b6044820152606401610708565b6001600160a01b03848116600090815260cd60205260409081902060068101546007820154600883015493516322ca3b1560e11b8152600481018990526024810191909152604481019390935287938793911690634594762a90606401602060405180830381865afa15801561227a573d6000803e3d6000fd5b505050506040513d601f19601f8201168201806040525081019061229e9190615228565b6001146122bd5760405162461bcd60e51b815260040161070890615241565b6001600160a01b038716600090815260cd6020526040902080546123135760405162461bcd60e51b815260206004820152600d60248201526c496e76616c6964207374616b6560981b6044820152606401610708565b805442101561235e5760405162461bcd60e51b815260206004820152601760248201527614dd185ada5b99c81a185cc81b9bdd081cdd185c9d1959604a1b6044820152606401610708565b6123666113c4565b60068101546001600160a01b03166342842e0e33308a6040518463ffffffff1660e01b815260040161239a939291906152f9565b600060405180830381600087803b1580156123b457600080fd5b505af11580156123c8573d6000803e3d6000fd5b505050506006810154600782018054600884015491926001600160a01b03169163b5afb120918b916123fb906001615193565b6040516001600160e01b031960e086901b16815260048101939093526024830191909152604482015260016064820152608401600060405180830381600087803b15801561244857600080fd5b505af115801561245c573d6000803e3d6000fd5b5050505061247261246a3390565b60cb906142a3565b5033600090815260ca602090815260408083208b84526002808201909352922080546001600160a01b0319166001600160a01b038d16178155600181018b905542918101919091556124c4828b6142b8565b506040518a81526001600160a01b038c169033907f5dac0c1b1112564a045ba943c9d50270893e8e826c49be8e7073adc713ab7bd79060200160405180910390a35050505050505050505050565b61251a613dff565b805182511461253b5760405162461bcd60e51b8152600401610708906150f7565b60005b825181101561076b5761258383828151811061255c5761255c61513b565b60200260200101518383815181106125765761257661513b565b6020026020010151612f0f565b8061258d81615167565b91505061253e565b6000805160206154848339815191526125ad81613d6f565b6001600160a01b038416600090815260ca60209081526040808320868452600281019092529091206001810185905583156125ea57600281018490555b505050505050565b60008051602061548483398151915261260a81613d6f565b8251845114801561261c575081518351145b6126795760405162461bcd60e51b815260206004820152602860248201527f416c6c20696e70757420617272617973206d757374206265207468652073616d6044820152670ca40d8cadccee8d60c31b6064820152608401610708565b60005b84518110156125ea576126dc8686838151811061269b5761269b61513b565b60200260200101518684815181106126b5576126b561513b565b60200260200101518685815181106126cf576126cf61513b565b6020026020010151611ee4565b806126e681615167565b91505061267c565b6126f6613dff565b82518451146127175760405162461bcd60e51b8152600401610708906150f7565b81518451146127745760405162461bcd60e51b815260206004820152602360248201527f6164647265737320636f756e74206d757374206d61746368207472656520636f6044820152621d5b9d60ea1b6064820152608401610708565b80518451146127d15760405162461bcd60e51b8152602060048201526024808201527f6164647265737320636f756e74206d757374206d6174636820736b696c6c20636044820152631bdd5b9d60e21b6064820152608401610708565b60005b845181101561285f5761284d8582815181106127f2576127f261513b565b602002602001015185838151811061280c5761280c61513b565b60200260200101518584815181106128265761282661513b565b60200260200101518585815181106128405761284061513b565b60200260200101516137de565b8061285781615167565b9150506127d4565b5050505050565b60008051602061548483398151915261287e81613d6f565b612886613eb9565b6001600160a01b03838116600090815260cd60205260409081902060048082015492516370a0823160e01b815230918101919091529092859216906370a0823190602401602060405180830381865afa1580156128e7573d6000803e3d6000fd5b505050506040513d601f19601f8201168201806040525081019061290b9190615228565b10156129505760405162461bcd60e51b8152602060048201526014602482015273496e73756666696369656e742062616c616e636560601b6044820152606401610708565b6004808201546040516323b872dd60e01b81526001600160a01b03909116916323b872dd916129859130918a918991016152f9565b6020604051808303816000875af11580156129a4573d6000803e3d6000fd5b505050506040513d601f19601f820116820180604052508101906129c8919061531d565b5060048101546040518481526001600160a01b039182169187169033907f74ed50f6a2a005dd31f4766fb60918c4a6728cb0da9eeb81b9526bc6da11ec0f9060200160405180910390a45050505050565b6040516331a9108f60e11b8152600481018290528290829030906001600160a01b03841690636352211e90602401602060405180830381865afa158015612a64573d6000803e3d6000fd5b505050506040513d601f19601f82011682018060405250810190612a8891906151e7565b6001600160a01b031614612aae5760405162461bcd60e51b815260040161070890615204565b6001600160a01b03848116600090815260cd60205260409081902060068101546007820154600883015493516322ca3b1560e11b8152600481018990526024810191909152604481019390935287938793911690634594762a90606401602060405180830381865afa158015612b28573d6000803e3d6000fd5b505050506040513d601f19601f82011682018060405250810190612b4c9190615228565b600114612b6b5760405162461bcd60e51b815260040161070890615241565b6001600160a01b038716600090815260cd6020908152604080832033845260ca909252909120612b9b81896142c4565b612bd85760405162461bcd60e51b815260206004820152600e60248201526d13919508139bdd081cdd185ad95960921b6044820152606401610708565b612be06113c4565b60068201546001600160a01b03166342842e0e30338b6040518463ffffffff1660e01b8152600401612c14939291906152f9565b600060405180830381600087803b158015612c2e57600080fd5b505af1158015612c42573d6000803e3d6000fd5b505050506006820154600783018054600885015491926001600160a01b03169163b5afb120918c91612c75906001615193565b6040516001600160e01b031960e086901b16815260048101939093526024830191909152604482015260006064820152608401600060405180830381600087803b158015612cc257600080fd5b505af1158015612cd6573d6000803e3d6000fd5b50505060008a815260028085016020526040822080546001600160a01b031916815560018101839055015550612d0c828a6142dc565b50612d1682613f3f565b600003612d2c57612d2a335b60cb906142e8565b505b6040518981526001600160a01b038b169033907fd8654fcc8cf5b36d30b3f5e4688fc78118e6d68de60b9994e09902268b57c3e39060200160405180910390a350505050505050505050565b6060611f3b335b6001600160a01b038116600090815260ca60205260408120606091612da382613eac565b9050600081516001600160401b03811115612dc057612dc06149e8565b604051908082528060200260200182016040528015612e1e57816020015b612e0b604051806060016040528060006001600160a01b0316815260200160008152602001600081525090565b815260200190600190039081612dde5790505b50905060005b8251811015611dd857836002016000848381518110612e4557612e4561513b565b6020908102919091018101518252818101929092526040908101600020815160608101835281546001600160a01b0316815260018201549381019390935260020154908201528251839083908110612e9f57612e9f61513b565b60200260200101819052508080612eb590615167565b915050612e24565b600080516020615484833981519152612ed581613d6f565b506001600160a01b03938416600090815260c960209081526040808320959096168252938452848120928152919092529190912060040155565b612f17613dff565b6040516331a9108f60e11b8152600481018290528290829030906001600160a01b03841690636352211e90602401602060405180830381865afa158015612f62573d6000803e3d6000fd5b505050506040513d601f19601f82011682018060405250810190612f8691906151e7565b6001600160a01b031603612fcd5760405162461bcd60e51b815260206004820152600e60248201526d105b1c9958591e481cdd185ad95960921b6044820152606401610708565b6001600160a01b03848116600090815260cd6020526040908190206006810154600782018054600884015494516322ca3b1560e11b8152600481018a90526024810191909152604481019490945291939192911690634594762a90606401602060405180830381865afa158015613048573d6000803e3d6000fd5b505050506040513d601f19601f8201168201806040525081019061306c9190615228565b156130b95760405162461bcd60e51b815260206004820152601860248201527f5374616b696e6720616c726561647920756e6c6f636b656400000000000000006044820152606401610708565b81546131005760405162461bcd60e51b815260206004820152601660248201527514dd185ada5b99c81b9bdd0818dbdb999a59dd5c995960521b6044820152606401610708565b815442101561314b5760405162461bcd60e51b815260206004820152601760248201527614dd185ada5b99c81a185cc81b9bdd081cdd185c9d1959604a1b6044820152606401610708565b6004828101546000808052600585016020526040908190205490516323b872dd60e01b81526001600160a01b03909216926323b872dd926131909233923092016152f9565b6020604051808303816000875af11580156131af573d6000803e3d6000fd5b505050506040513d601f19601f820116820180604052508101906131d3919061531d565b50600682015481546001808401546040516305ad7d8960e51b8152600481018a90526024810193909352604483015260648201526001600160a01b039091169063b5afb12090608401600060405180830381600087803b15801561323657600080fd5b505af115801561324a573d6000803e3d6000fd5b50505050856001600160a01b031661325f3390565b6001600160a01b03167f051144eeaaad1c4ee6b1eab928f531a9daf1687b3e0f8db00dae3f5df8c285db8760405161329991815260200190565b60405180910390a3505050505050565b6000828152609760205260409020600101546132c481613d6f565b61076b8383613e45565b80518251146132ef5760405162461bcd60e51b8152600401610708906150f7565b60005b825181101561076b576133378382815181106133105761331061513b565b602002602001015183838151811061332a5761332a61513b565b60200260200101516134ca565b8061334181615167565b9150506132f2565b60008051602061548483398151915261336181613d6f565b6001600160a01b038516600090815260cd60205260408120905b8551811015613435578481815181106133965761339661513b565b60200260200101518260050160008884815181106133b6576133b661513b565b60200260200101518152602001908152602001600020600101819055508381815181106133e5576133e561513b565b60200260200101518260050160008884815181106134055761340561513b565b6020026020010151815260200190815260200160002060000181905550808061342d90615167565b91505061337b565b50505050505050565b60008051602061548483398151915261345681613d6f565b60005b845181101561285f576134b88582815181106134775761347761513b565b60200260200101518583815181106134915761349161513b565b60200260200101518584815181106134ab576134ab61513b565b6020026020010151612595565b806134c281615167565b915050613459565b6040516331a9108f60e11b8152600481018290528290829030906001600160a01b03841690636352211e90602401602060405180830381865afa158015613515573d6000803e3d6000fd5b505050506040513d601f19601f8201168201806040525081019061353991906151e7565b6001600160a01b03161461355f5760405162461bcd60e51b815260040161070890615204565b6001600160a01b03848116600090815260cd60205260409081902060068101546007820154600883015493516322ca3b1560e11b8152600481018990526024810191909152604481019390935287938793911690634594762a90606401602060405180830381865afa1580156135d9573d6000803e3d6000fd5b505050506040513d601f19601f820116820180604052508101906135fd9190615228565b60011461361c5760405162461bcd60e51b815260040161070890615241565b33600090815260c9602090815260408083206001600160a01b038b1684528252808320898452909152902060058101546136875760405162461bcd60e51b815260206004820152600c60248201526b4e6f7420747261696e696e6760a01b6044820152606401610708565b428160060154116136da5760405162461bcd60e51b815260206004820152601960248201527f547261696e696e6720616c72656164792066696e6973686564000000000000006044820152606401610708565b33600081815260ca602090815260408083208b845260028101909252909120909161370491613f55565b60038201546004830154604080518b8152602081019390935282810191909152426060830152516001600160a01b038b169133917fc9b7c59fa980251f7ca7eae784c953e8a9f49d617be6edca0b41264ea05cb1699181900360800190a3505033600090815260c9602090815260408083206001600160a01b039a909a1683529881528882209782529690965250505092822080546001600160a01b03191681556001810183905560028101839055600381018390556004810183905560058101839055600601919091555050565b6000611f3b33610964565b6137e6613dff565b6040516331a9108f60e11b8152600481018490528490849030906001600160a01b03841690636352211e90602401602060405180830381865afa158015613831573d6000803e3d6000fd5b505050506040513d601f19601f8201168201806040525081019061385591906151e7565b6001600160a01b03161461387b5760405162461bcd60e51b815260040161070890615204565b6001600160a01b03868116600090815260cd60205260409081902060068101546007820154600883015493516322ca3b1560e11b8152600481018b90526024810191909152604481019390935289938993911690634594762a90606401602060405180830381865afa1580156138f5573d6000803e3d6000fd5b505050506040513d601f19601f820116820180604052508101906139199190615228565b6001146139385760405162461bcd60e51b815260040161070890615241565b6001600160a01b038916600090815260cd60205260409020805461399e5760405162461bcd60e51b815260206004820152601e60248201527f4e6f20747261696e696e672073657373696f6e20636f6e6669677572656400006044820152606401610708565b80544210156139ef5760405162461bcd60e51b815260206004820152601c60248201527f547261696e696e6720686173206e6f74207374617274656420796574000000006044820152606401610708565b33600090815260c9602090815260408083206001600160a01b038e16845282528083208c84529091529020600581015415613a6c5760405162461bcd60e51b815260206004820152601f60248201527f547261696e696e6720697320616c726561647920696e2070726f6772657373006044820152606401610708565b613a778b8b8a6142fd565b613ac35760405162461bcd60e51b815260206004820152601760248201527f496e76616c696420747261696e696e67206f7074696f6e0000000000000000006044820152606401610708565b60068201546040516322ca3b1560e11b8152600481018c9052602481018b9052604481018a90526000916001600160a01b031690634594762a90606401602060405180830381865afa158015613b1d573d6000803e3d6000fd5b505050506040513d601f19601f82011682018060405250810190613b419190615228565b90508260010154816001613b559190615193565b1115613ba35760405162461bcd60e51b815260206004820152601e60248201527f45786365656473206d6178696d756d20747261696e696e67206c6576656c00006044820152606401610708565b60006005840181613bb5846001615193565b815260200190815260200160002090506000816000015411613c195760405162461bcd60e51b815260206004820152601d60248201527f547261696e696e67204c6576656c206973206e6f7420656e61626c65640000006044820152606401610708565b60048481015482546040516323b872dd60e01b81526001600160a01b03909216926323b872dd92613c4e9233923092016152f9565b6020604051808303816000875af1158015613c6d573d6000803e3d6000fd5b505050506040513d601f19601f82011682018060405250810190613c91919061531d565b50613c9d826001615193565b6002840155600383018b9055600483018a905542600584018190556001820154613cc691615193565b600684015582546001600160a01b0319166001600160a01b038e169081178455600184018d9055336001600160a01b03167f98d1944772cc1ee399725448c633b3ec863f8be81e490479055d810afaa0225c8e8e8e613d26886001615193565b60058a015460068b0154604080519687526020870195909552938501929092526060840152608083015260a082015260c00160405180910390a350505050505050505050505050565b610b6181336143b2565b613d838282611eb9565b6109605760008281526097602090815260408083206001600160a01b03851684529091529020805460ff19166001179055613dbb3390565b6001600160a01b0316816001600160a01b0316837f2f8788117e7eff1d82e926ec794901d17c78024a50270940304540a733656f0d60405160405180910390a45050565b60335460ff16156113db5760405162461bcd60e51b815260206004820152601060248201526f14185d5cd8589b194e881c185d5cd95960821b6044820152606401610708565b613e4f8282611eb9565b156109605760008281526097602090815260408083206001600160a01b0385168085529252808320805460ff1916905551339285917ff6391f5c32d9c69d2a47ea670b442974b53935d1edc7fd64eb21e047a839171b9190a45050565b606060006107f783614416565b60005b613ec660cb613f3f565b811015610b6157613edb6113cd60cb83613f49565b80613ee581615167565b915050613ebc565b613ef5614472565b6033805460ff191690557f5db9ee0a495bf2e6ff9c91a7834c1ba4fdd244a5e8aa4e537bd38aeae4b073aa335b6040516001600160a01b03909116815260200160405180910390a1565b60006106e1825490565b60006107f783836144bb565b600281018054429091558154600183015461076b9185916001600160a01b0390911690846144e5565b6001600160a01b038116600090815260ca6020526040812090613fa082613eac565b905060005b8151811015613ff757613fe584846002016000858581518110613fca57613fca61513b565b60200260200101518152602001908152602001600020613f55565b80613fef81615167565b915050613fa5565b50505050565b6001600160a01b03818116600090815260ca60205260408082206003810180549390557f68995a606069a176802face6c7d97d018fa327ea1f57950103ab1e74298105c45491516370a0823160e01b815230600482015273bf20c23d25fca8aa4e7946496250d67872691af2947f68995a606069a176802face6c7d97d018fa327ea1f57950103ab1e74298105c094929383929116906370a0823190602401602060405180830381865afa1580156140b9573d6000803e3d6000fd5b505050506040513d601f19601f820116820180604052508101906140dd9190615228565b101561412b5760405162461bcd60e51b815260206004820181905260248201527f496e73756666696369656e74207265776172647320696e20636f6e74726163746044820152606401610708565b60048381015460405163a9059cbb60e01b81526001600160a01b03888116938201939093526024810184905291169063a9059cbb906044016020604051808303816000875af1158015614182573d6000803e3d6000fd5b505050506040513d601f19601f820116820180604052508101906141a6919061531d565b506141b082613f3f565b6000036141c2576141c033612d22565b505b60048301546040518281526001600160a01b03918216918716907ff7a40077ff7a04c7e61f6f26fb13774259ddf1b6bce9ecf26a8276cdd39926839060200160405180910390a35050505050565b600054610100900460ff166142375760405162461bcd60e51b81526004016107089061533f565b6113db614583565b600054610100900460ff166113db5760405162461bcd60e51b81526004016107089061533f565b61426e613dff565b6033805460ff191660011790557f62e78cea01bee320cd4e420270b5ea74000d11b0c9f74754ebdbfc544b05a258613f223390565b60006107f7836001600160a01b0384166145b6565b60006107f783836145b6565b600081815260018301602052604081205415156107f7565b60006107f78383614605565b60006107f7836001600160a01b038416614605565b60008061430a85856113dd565b9050600081511161435d5760405162461bcd60e51b815260206004820152601e60248201527f4e6f20747261696e696e672073657373696f6e7320617661696c61626c6500006044820152606401610708565b60005b81518110156143a6578382828151811061437c5761437c61513b565b602002602001015103614394576001925050506107f7565b8061439e81615167565b915050614360565b50600095945050505050565b6143bc8282611eb9565b610960576143d4816001600160a01b031660146146f8565b6143df8360206146f8565b6040516020016143f09291906153ae565b60408051601f198184030181529082905262461bcd60e51b825261070891600401615423565b60608160000180548060200260200160405190810160405280929190818152602001828054801561446657602002820191906000526020600020905b815481526020019060010190808311614452575b50505050509050919050565b60335460ff166113db5760405162461bcd60e51b815260206004820152601460248201527314185d5cd8589b194e881b9bdd081c185d5cd95960621b6044820152606401610708565b60008260000182815481106144d2576144d261513b565b9060005260206000200154905092915050565b8015806144f25750428110155b613ff75760006145028242615180565b905060006145108585611cdf565b90508061451c81615167565b91508290506201518061453783670de0b6b3a76400006151a6565b61454191906151c5565b61454b91906151a6565b6001600160a01b038716600090815260ca602052604081206003018054909190614576908490615193565b9091555050505050505050565b600054610100900460ff166145aa5760405162461bcd60e51b81526004016107089061533f565b6033805460ff19169055565b60008181526001830160205260408120546145fd575081546001818101845560008481526020808220909301849055845484825282860190935260409020919091556106e1565b5060006106e1565b600081815260018301602052604081205480156146ee576000614629600183615180565b855490915060009061463d90600190615180565b90508181146146a257600086600001828154811061465d5761465d61513b565b90600052602060002001549050808760000184815481106146805761468061513b565b6000918252602080832090910192909255918252600188019052604090208390555b85548690806146b3576146b3615456565b6001900381819060005260206000200160009055905585600101600086815260200190815260200160002060009055600193505050506106e1565b60009150506106e1565b606060006147078360026151a6565b614712906002615193565b6001600160401b03811115614729576147296149e8565b6040519080825280601f01601f191660200182016040528015614753576020820181803683370190505b509050600360fc1b8160008151811061476e5761476e61513b565b60200101906001600160f81b031916908160001a905350600f60fb1b8160018151811061479d5761479d61513b565b60200101906001600160f81b031916908160001a90535060006147c18460026151a6565b6147cc906001615193565b90505b6001811115614844576f181899199a1a9b1b9c1cb0b131b232b360811b85600f16601081106148005761480061513b565b1a60f81b8282815181106148165761481661513b565b60200101906001600160f81b031916908160001a90535060049490941c9361483d8161546c565b90506147cf565b5083156107f75760405162461bcd60e51b815260206004820181905260248201527f537472696e67733a20686578206c656e67746820696e73756666696369656e746044820152606401610708565b6040518060e0016040528060006001600160a01b031681526020016000815260200160008152602001600081526020016000815260200160008152602001600081525090565b5080546000825590600052602060002090810190610b6191905b8082111561490757600081556001016148f3565b5090565b60006020828403121561491d57600080fd5b81356001600160e01b0319811681146107f757600080fd5b6001600160a01b0381168114610b6157600080fd5b60008060008060006080868803121561496257600080fd5b853561496d81614935565b9450602086013561497d81614935565b93506040860135925060608601356001600160401b03808211156149a057600080fd5b818801915088601f8301126149b457600080fd5b8135818111156149c357600080fd5b8960208285010111156149d557600080fd5b9699959850939650602001949392505050565b634e487b7160e01b600052604160045260246000fd5b604051601f8201601f191681016001600160401b0381118282101715614a2657614a266149e8565b604052919050565b60006001600160401b03821115614a4757614a476149e8565b5060051b60200190565b600082601f830112614a6257600080fd5b81356020614a77614a7283614a2e565b6149fe565b82815260059290921b84018101918181019086841115614a9657600080fd5b8286015b84811015614aba578035614aad81614935565b8352918301918301614a9a565b509695505050505050565b600082601f830112614ad657600080fd5b81356020614ae6614a7283614a2e565b82815260059290921b84018101918181019086841115614b0557600080fd5b8286015b84811015614aba5780358352918301918301614b09565b60008060408385031215614b3357600080fd5b82356001600160401b0380821115614b4a57600080fd5b614b5686838701614a51565b93506020850135915080821115614b6c57600080fd5b50614b7985828601614ac5565b9150509250929050565b600080600060608486031215614b9857600080fd5b8335614ba381614935565b92506020840135614bb381614935565b929592945050506040919091013590565b80516001600160a01b031682526020808201519083015260408082015190830152606080820151908301526080808201519083015260a0818101519083015260c090810151910152565b60e081016106e18284614bc4565b600060208284031215614c2e57600080fd5b5035919050565b60008060408385031215614c4857600080fd5b823591506020830135614c5a81614935565b809150509250929050565b600080600060608486031215614c7a57600080fd5b8335614c8581614935565b95602085013595506040909401359392505050565b600060208284031215614cac57600080fd5b81356107f781614935565b600081518084526020808501945080840160005b83811015614d0657815180516001600160a01b0316885283810151848901526040908101519088015260609096019590820190600101614ccb565b509495945050505050565b600081518084526020808501945080840160005b83811015614d0657815187529582019590820190600101614d25565b606080825284519082018190526000906020906080840190828801845b82811015614d835781516001600160a01b031684529284019290840190600101614d5e565b50505083810382850152855180825282820190600581901b8301840188850160005b83811015614dd357601f19868403018552614dc1838351614cb7565b94870194925090860190600101614da5565b50508681036040880152614de78189614d11565b9a9950505050505050505050565b60008060408385031215614e0857600080fd5b8235614e1381614935565b946020939093013593505050565b60008060008060008060c08789031215614e3a57600080fd5b8635614e4581614935565b95506020870135614e5581614935565b945060408701359350606087013592506080870135915060a08701356001600160401b03811115614e8557600080fd5b614e9189828a01614ac5565b9150509295509295509295565b6020815260006107f76020830184614d11565b6020808252825182820181905260009190848201906040850190845b81811015611b9857614ee0838551614bc4565b9284019260e09290920191600101614ecd565b60008060008060808587031215614f0957600080fd5b8435614f1481614935565b966020860135965060408601359560600135945092505050565b60008060008060808587031215614f4457600080fd5b8435614f4f81614935565b93506020850135614f5f81614935565b93969395505050506040820135916060013590565b60008060008060808587031215614f8a57600080fd5b8435614f9581614935565b935060208501356001600160401b0380821115614fb157600080fd5b614fbd88838901614ac5565b94506040870135915080821115614fd357600080fd5b614fdf88838901614ac5565b93506060870135915080821115614ff557600080fd5b5061500287828801614ac5565b91505092959194509250565b6000806000806080858703121561502457600080fd5b84356001600160401b038082111561503b57600080fd5b61504788838901614a51565b95506020870135915080821115614fb157600080fd5b6020815260006107f76020830184614cb7565b60008060006060848603121561508557600080fd5b83356001600160401b038082111561509c57600080fd5b6150a887838801614a51565b945060208601359150808211156150be57600080fd5b6150ca87838801614ac5565b935060408601359150808211156150e057600080fd5b506150ed86828701614ac5565b9150509250925092565b60208082526024908201527f6164647265737320636f756e74206d757374206d6174636820746f6b656e20636040820152631bdd5b9d60e21b606082015260800190565b634e487b7160e01b600052603260045260246000fd5b634e487b7160e01b600052601160045260246000fd5b60006001820161517957615179615151565b5060010190565b818103818111156106e1576106e1615151565b808201808211156106e1576106e1615151565b60008160001904831182151516156151c0576151c0615151565b500290565b6000826151e257634e487b7160e01b600052601260045260246000fd5b500490565b6000602082840312156151f957600080fd5b81516107f781614935565b6020808252600a9082015269139bdd081cdd185ad95960b21b604082015260600190565b60006020828403121561523a57600080fd5b5051919050565b6020808252600c908201526b139bdd081d5b9b1bd8dad95960a21b604082015260600190565b60208082526028908201527f6d6178506f696e7473506572536b696c6c206d75737420626520677265617465604082015267072207468616e20360c41b606082015260800190565b6020808252602a908201527f737461727454696d65206d7573742062652061206675747572652074696d6520604082015269696e207365636f6e647360b01b606082015260800190565b6001600160a01b039384168152919092166020820152604081019190915260600190565b60006020828403121561532f57600080fd5b815180151581146107f757600080fd5b6020808252602b908201527f496e697469616c697a61626c653a20636f6e7472616374206973206e6f74206960408201526a6e697469616c697a696e6760a81b606082015260800190565b60005b838110156153a557818101518382015260200161538d565b50506000910152565b7f416363657373436f6e74726f6c3a206163636f756e74200000000000000000008152600083516153e681601785016020880161538a565b7001034b99036b4b9b9b4b733903937b6329607d1b601791840191820152835161541781602884016020880161538a565b01602801949350505050565b602081526000825180602084015261544281604085016020870161538a565b601f01601f19169190910160400192915050565b634e487b7160e01b600052603160045260246000fd5b60008161547b5761547b615151565b50600019019056fea49807205ce4d355092ef5a8a18f56e8913cf4a201fbe287825b095693c21775a26469706673582212201dcfe06388f244664caf1ccd1e15ada06f29b57537558cc168a089e0513a3e2d64736f6c63430008100033",
  "linkReferences": {},
  "deployedLinkReferences": {}
}