{
  "_format": "hh-sol-artifact-1",
  "contractName": "ProfessionStakingUpgradeable",
  "sourceName": "contracts/upgradeable/npc/ProfessionStakingUpgradeable.sol",
  "abi": [
    {
      "inputs": [],
      "stateMutability": "nonpayable",
      "type": "constructor"
    },
    {
      "anonymous": false,
      "inputs": [
        {
          "indexed": true,
          "internalType": "address",
          "name": "from",
          "type": "address"
        },
        {
          "indexed": false,
          "internalType": "uint256",
          "name": "stakedCount",
          "type": "uint256"
        },
        {
          "indexed": false,
          "internalType": "uint256",
          "name": "amount",
          "type": "uint256"
        }
      ],
      "name": "ClaimBlocked",
      "type": "event"
    },
    {
      "anonymous": false,
      "inputs": [
        {
          "indexed": true,
          "internalType": "address",
          "name": "by",
          "type": "address"
        },
        {
          "indexed": true,
          "internalType": "address",
          "name": "token",
          "type": "address"
        },
        {
          "indexed": false,
          "internalType": "uint256",
          "name": "amount",
          "type": "uint256"
        }
      ],
      "name": "Claimed",
      "type": "event"
    },
    {
      "anonymous": false,
      "inputs": [
        {
          "indexed": false,
          "internalType": "uint8",
          "name": "version",
          "type": "uint8"
        }
      ],
      "name": "Initialized",
      "type": "event"
    },
    {
      "anonymous": false,
      "inputs": [
        {
          "indexed": false,
          "internalType": "address",
          "name": "account",
          "type": "address"
        }
      ],
      "name": "Paused",
      "type": "event"
    },
    {
      "anonymous": false,
      "inputs": [
        {
          "indexed": true,
          "internalType": "address",
          "name": "from",
          "type": "address"
        },
        {
          "indexed": true,
          "internalType": "address",
          "name": "token",
          "type": "address"
        },
        {
          "indexed": false,
          "internalType": "uint256",
          "name": "amount",
          "type": "uint256"
        }
      ],
      "name": "PoolRewardsDeposited",
      "type": "event"
    },
    {
      "anonymous": false,
      "inputs": [
        {
          "indexed": true,
          "internalType": "address",
          "name": "by",
          "type": "address"
        },
        {
          "indexed": true,
          "internalType": "address",
          "name": "to",
          "type": "address"
        },
        {
          "indexed": true,
          "internalType": "address",
          "name": "token",
          "type": "address"
        },
        {
          "indexed": false,
          "internalType": "uint256",
          "name": "amount",
          "type": "uint256"
        }
      ],
      "name": "PoolRewardsWithdrawn",
      "type": "event"
    },
    {
      "anonymous": false,
      "inputs": [
        {
          "indexed": true,
          "internalType": "bytes32",
          "name": "role",
          "type": "bytes32"
        },
        {
          "indexed": true,
          "internalType": "bytes32",
          "name": "previousAdminRole",
          "type": "bytes32"
        },
        {
          "indexed": true,
          "internalType": "bytes32",
          "name": "newAdminRole",
          "type": "bytes32"
        }
      ],
      "name": "RoleAdminChanged",
      "type": "event"
    },
    {
      "anonymous": false,
      "inputs": [
        {
          "indexed": true,
          "internalType": "bytes32",
          "name": "role",
          "type": "bytes32"
        },
        {
          "indexed": true,
          "internalType": "address",
          "name": "account",
          "type": "address"
        },
        {
          "indexed": true,
          "internalType": "address",
          "name": "sender",
          "type": "address"
        }
      ],
      "name": "RoleGranted",
      "type": "event"
    },
    {
      "anonymous": false,
      "inputs": [
        {
          "indexed": true,
          "internalType": "bytes32",
          "name": "role",
          "type": "bytes32"
        },
        {
          "indexed": true,
          "internalType": "address",
          "name": "account",
          "type": "address"
        },
        {
          "indexed": true,
          "internalType": "address",
          "name": "sender",
          "type": "address"
        }
      ],
      "name": "RoleRevoked",
      "type": "event"
    },
    {
      "anonymous": false,
      "inputs": [
        {
          "indexed": true,
          "internalType": "address",
          "name": "from",
          "type": "address"
        },
        {
          "indexed": true,
          "internalType": "address",
          "name": "nftAddress",
          "type": "address"
        },
        {
          "indexed": false,
          "internalType": "uint256",
          "name": "tokenId",
          "type": "uint256"
        }
      ],
      "name": "Staked",
      "type": "event"
    },
    {
      "anonymous": false,
      "inputs": [
        {
          "indexed": true,
          "internalType": "address",
          "name": "nftAddress",
          "type": "address"
        },
        {
          "indexed": false,
          "internalType": "address",
          "name": "rewardToken",
          "type": "address"
        },
        {
          "indexed": false,
          "internalType": "uint256",
          "name": "startTime",
          "type": "uint256"
        }
      ],
      "name": "StakingConfigCreated",
      "type": "event"
    },
    {
      "anonymous": false,
      "inputs": [
        {
          "indexed": true,
          "internalType": "address",
          "name": "nftAddress",
          "type": "address"
        }
      ],
      "name": "StakingConfigDeleted",
      "type": "event"
    },
    {
      "anonymous": false,
      "inputs": [
        {
          "indexed": true,
          "internalType": "address",
          "name": "nftAddress",
          "type": "address"
        },
        {
          "indexed": false,
          "internalType": "address",
          "name": "rewardToken",
          "type": "address"
        },
        {
          "indexed": false,
          "internalType": "uint256",
          "name": "startTime",
          "type": "uint256"
        }
      ],
      "name": "StakingConfigUpdated",
      "type": "event"
    },
    {
      "anonymous": false,
      "inputs": [
        {
          "indexed": true,
          "internalType": "address",
          "name": "by",
          "type": "address"
        },
        {
          "indexed": true,
          "internalType": "address",
          "name": "nftAddress",
          "type": "address"
        },
        {
          "indexed": false,
          "internalType": "uint256",
          "name": "tokenId",
          "type": "uint256"
        }
      ],
      "name": "StakingUnlocked",
      "type": "event"
    },
    {
      "anonymous": false,
      "inputs": [
        {
          "indexed": true,
          "internalType": "address",
          "name": "by",
          "type": "address"
        },
        {
          "indexed": true,
          "internalType": "address",
          "name": "nftAddress",
          "type": "address"
        },
        {
          "indexed": false,
          "internalType": "uint256",
          "name": "tokenId",
          "type": "uint256"
        },
        {
          "indexed": false,
          "internalType": "uint256",
          "name": "treeId",
          "type": "uint256"
        },
        {
          "indexed": false,
          "internalType": "uint256",
          "name": "skillId",
          "type": "uint256"
        },
        {
          "indexed": false,
          "internalType": "uint256",
          "name": "canceledAt",
          "type": "uint256"
        }
      ],
      "name": "TrainingCanceled",
      "type": "event"
    },
    {
      "anonymous": false,
      "inputs": [
        {
          "indexed": true,
          "internalType": "address",
          "name": "by",
          "type": "address"
        },
        {
          "indexed": true,
          "internalType": "address",
          "name": "nftAddress",
          "type": "address"
        },
        {
          "indexed": false,
          "internalType": "uint256",
          "name": "tokenId",
          "type": "uint256"
        },
        {
          "indexed": false,
          "internalType": "uint256",
          "name": "treeId",
          "type": "uint256"
        },
        {
          "indexed": false,
          "internalType": "uint256",
          "name": "skillId",
          "type": "uint256"
        },
        {
          "indexed": false,
          "internalType": "uint256",
          "name": "level",
          "type": "uint256"
        }
      ],
      "name": "TrainingFinished",
      "type": "event"
    },
    {
      "anonymous": false,
      "inputs": [
        {
          "indexed": true,
          "internalType": "address",
          "name": "by",
          "type": "address"
        },
        {
          "indexed": true,
          "internalType": "address",
          "name": "nftAddress",
          "type": "address"
        },
        {
          "indexed": false,
          "internalType": "uint256",
          "name": "tokenId",
          "type": "uint256"
        },
        {
          "indexed": false,
          "internalType": "uint256",
          "name": "treeId",
          "type": "uint256"
        },
        {
          "indexed": false,
          "internalType": "uint256",
          "name": "skillId",
          "type": "uint256"
        },
        {
          "indexed": false,
          "internalType": "uint256",
          "name": "level",
          "type": "uint256"
        },
        {
          "indexed": false,
          "internalType": "uint256",
          "name": "startedAt",
          "type": "uint256"
        },
        {
          "indexed": false,
          "internalType": "uint256",
          "name": "completeAt",
          "type": "uint256"
        }
      ],
      "name": "TrainingStarted",
      "type": "event"
    },
    {
      "anonymous": false,
      "inputs": [
        {
          "indexed": false,
          "internalType": "address",
          "name": "account",
          "type": "address"
        }
      ],
      "name": "Unpaused",
      "type": "event"
    },
    {
      "anonymous": false,
      "inputs": [
        {
          "indexed": true,
          "internalType": "address",
          "name": "from",
          "type": "address"
        },
        {
          "indexed": true,
          "internalType": "address",
          "name": "nftAddress",
          "type": "address"
        },
        {
          "indexed": false,
          "internalType": "uint256",
          "name": "tokenId",
          "type": "uint256"
        }
      ],
      "name": "Unstaked",
      "type": "event"
    },
    {
      "inputs": [],
      "name": "DEFAULT_ADMIN_ROLE",
      "outputs": [
        {
          "internalType": "bytes32",
          "name": "",
          "type": "bytes32"
        }
      ],
      "stateMutability": "view",
      "type": "function"
    },
    {
      "inputs": [],
      "name": "GAME_STORAGE",
      "outputs": [
        {
          "internalType": "contract IGameStorageUpgradeable",
          "name": "",
          "type": "address"
        }
      ],
      "stateMutability": "view",
      "type": "function"
    },
    {
      "inputs": [],
      "name": "PAUSER_ROLE",
      "outputs": [
        {
          "internalType": "bytes32",
          "name": "",
          "type": "bytes32"
        }
      ],
      "stateMutability": "view",
      "type": "function"
    },
    {
      "inputs": [],
      "name": "UPDATER_ROLE",
      "outputs": [
        {
          "internalType": "bytes32",
          "name": "",
          "type": "bytes32"
        }
      ],
      "stateMutability": "view",
      "type": "function"
    },
    {
      "inputs": [
        {
          "internalType": "address[]",
          "name": "addresses",
          "type": "address[]"
        },
        {
          "internalType": "uint256[]",
          "name": "indexes",
          "type": "uint256[]"
        },
        {
          "internalType": "address[]",
          "name": "nftAddresses",
          "type": "address[]"
        },
        {
          "internalType": "uint256[]",
          "name": "tokenIds",
          "type": "uint256[]"
        },
        {
          "internalType": "uint256[]",
          "name": "rewardFrom",
          "type": "uint256[]"
        }
      ],
      "name": "adminBatchUpdateNftData",
      "outputs": [],
      "stateMutability": "nonpayable",
      "type": "function"
    },
    {
      "inputs": [
        {
          "internalType": "address",
          "name": "_address",
          "type": "address"
        },
        {
          "internalType": "uint256",
          "name": "index",
          "type": "uint256"
        },
        {
          "internalType": "address",
          "name": "nftAddress",
          "type": "address"
        },
        {
          "internalType": "uint256",
          "name": "tokenId",
          "type": "uint256"
        },
        {
          "internalType": "uint256",
          "name": "rewardFrom",
          "type": "uint256"
        }
      ],
      "name": "adminUpdateNftData",
      "outputs": [],
      "stateMutability": "nonpayable",
      "type": "function"
    },
    {
      "inputs": [
        {
          "internalType": "address[]",
          "name": "nftAddresses",
          "type": "address[]"
        },
        {
          "internalType": "uint256[]",
          "name": "tokenIds",
          "type": "uint256[]"
        }
      ],
      "name": "batchCancelTraining",
      "outputs": [],
      "stateMutability": "nonpayable",
      "type": "function"
    },
    {
      "inputs": [
        {
          "internalType": "address[]",
          "name": "nftAddresses",
          "type": "address[]"
        },
        {
          "internalType": "uint256[]",
          "name": "tokenIds",
          "type": "uint256[]"
        }
      ],
      "name": "batchEnableStaking",
      "outputs": [],
      "stateMutability": "nonpayable",
      "type": "function"
    },
    {
      "inputs": [
        {
          "internalType": "address[]",
          "name": "nftAddresses",
          "type": "address[]"
        },
        {
          "internalType": "uint256[]",
          "name": "tokenIds",
          "type": "uint256[]"
        }
      ],
      "name": "batchFinishTraining",
      "outputs": [],
      "stateMutability": "nonpayable",
      "type": "function"
    },
    {
      "inputs": [
        {
          "internalType": "uint256[]",
          "name": "level",
          "type": "uint256[]"
        },
        {
          "internalType": "uint256[]",
          "name": "cost",
          "type": "uint256[]"
        },
        {
          "internalType": "uint256[]",
          "name": "time",
          "type": "uint256[]"
        }
      ],
      "name": "batchSetTrainingCosts",
      "outputs": [],
      "stateMutability": "nonpayable",
      "type": "function"
    },
    {
      "inputs": [
        {
          "internalType": "address[]",
          "name": "nftAddresses",
          "type": "address[]"
        },
        {
          "internalType": "uint256[]",
          "name": "tokenIds",
          "type": "uint256[]"
        }
      ],
      "name": "batchStake",
      "outputs": [],
      "stateMutability": "nonpayable",
      "type": "function"
    },
    {
      "inputs": [
        {
          "internalType": "address[]",
          "name": "nftAddresses",
          "type": "address[]"
        },
        {
          "internalType": "uint256[]",
          "name": "tokenIds",
          "type": "uint256[]"
        },
        {
          "internalType": "uint256[]",
          "name": "treeIds",
          "type": "uint256[]"
        },
        {
          "internalType": "uint256[]",
          "name": "skillIds",
          "type": "uint256[]"
        }
      ],
      "name": "batchStartTraining",
      "outputs": [],
      "stateMutability": "nonpayable",
      "type": "function"
    },
    {
      "inputs": [
        {
          "internalType": "address[]",
          "name": "nftAddresses",
          "type": "address[]"
        },
        {
          "internalType": "uint256[]",
          "name": "tokenIds",
          "type": "uint256[]"
        }
      ],
      "name": "batchUnstake",
      "outputs": [],
      "stateMutability": "nonpayable",
      "type": "function"
    },
    {
      "inputs": [
        {
          "internalType": "address",
          "name": "nftAddress",
          "type": "address"
        },
        {
          "internalType": "uint256",
          "name": "tokenId",
          "type": "uint256"
        }
      ],
      "name": "cancelTraining",
      "outputs": [],
      "stateMutability": "nonpayable",
      "type": "function"
    },
    {
      "inputs": [],
      "name": "claim",
      "outputs": [],
      "stateMutability": "nonpayable",
      "type": "function"
    },
    {
      "inputs": [
        {
          "internalType": "address",
          "name": "nftAddress",
          "type": "address"
        },
        {
          "internalType": "address",
          "name": "rewardToken",
          "type": "address"
        },
        {
          "internalType": "uint256",
          "name": "startTime",
          "type": "uint256"
        },
        {
          "internalType": "uint256",
          "name": "maxPointsPerSkill",
          "type": "uint256"
        },
        {
          "internalType": "uint256[]",
          "name": "treeIds",
          "type": "uint256[]"
        },
        {
          "internalType": "uint256[]",
          "name": "skillIds",
          "type": "uint256[]"
        }
      ],
      "name": "createStakingConfig",
      "outputs": [],
      "stateMutability": "nonpayable",
      "type": "function"
    },
    {
      "inputs": [
        {
          "internalType": "address",
          "name": "nftAddress",
          "type": "address"
        }
      ],
      "name": "deleteStakingConfig",
      "outputs": [],
      "stateMutability": "nonpayable",
      "type": "function"
    },
    {
      "inputs": [
        {
          "internalType": "address",
          "name": "nftAddress",
          "type": "address"
        },
        {
          "internalType": "uint256",
          "name": "tokenId",
          "type": "uint256"
        }
      ],
      "name": "enableStaking",
      "outputs": [],
      "stateMutability": "nonpayable",
      "type": "function"
    },
    {
      "inputs": [
        {
          "internalType": "address",
          "name": "nftAddress",
          "type": "address"
        },
        {
          "internalType": "uint256",
          "name": "tokenId",
          "type": "uint256"
        }
      ],
      "name": "finishTraining",
      "outputs": [],
      "stateMutability": "nonpayable",
      "type": "function"
    },
    {
      "inputs": [
        {
          "internalType": "address",
          "name": "_address",
          "type": "address"
        },
        {
          "internalType": "address",
          "name": "nftAddress",
          "type": "address"
        },
        {
          "internalType": "uint256",
          "name": "tokenId",
          "type": "uint256"
        }
      ],
      "name": "forceCancelTraining",
      "outputs": [],
      "stateMutability": "nonpayable",
      "type": "function"
    },
    {
      "inputs": [],
      "name": "getActiveTraining",
      "outputs": [
        {
          "components": [
            {
              "internalType": "address",
              "name": "_address",
              "type": "address"
            },
            {
              "internalType": "uint256",
              "name": "tokenId",
              "type": "uint256"
            },
            {
              "internalType": "uint256",
              "name": "level",
              "type": "uint256"
            },
            {
              "internalType": "uint256",
              "name": "treeId",
              "type": "uint256"
            },
            {
              "internalType": "uint256",
              "name": "skillId",
              "type": "uint256"
            },
            {
              "internalType": "uint256",
              "name": "startedAt",
              "type": "uint256"
            },
            {
              "internalType": "uint256",
              "name": "completeAt",
              "type": "uint256"
            }
          ],
          "internalType": "struct ProfessionStakingUpgradeable.TrainingStatus[]",
          "name": "",
          "type": "tuple[]"
        }
      ],
      "stateMutability": "view",
      "type": "function"
    },
    {
      "inputs": [
        {
          "internalType": "address",
          "name": "_address",
          "type": "address"
        }
      ],
      "name": "getActiveTrainingOf",
      "outputs": [
        {
          "components": [
            {
              "internalType": "address",
              "name": "_address",
              "type": "address"
            },
            {
              "internalType": "uint256",
              "name": "tokenId",
              "type": "uint256"
            },
            {
              "internalType": "uint256",
              "name": "level",
              "type": "uint256"
            },
            {
              "internalType": "uint256",
              "name": "treeId",
              "type": "uint256"
            },
            {
              "internalType": "uint256",
              "name": "skillId",
              "type": "uint256"
            },
            {
              "internalType": "uint256",
              "name": "startedAt",
              "type": "uint256"
            },
            {
              "internalType": "uint256",
              "name": "completeAt",
              "type": "uint256"
            }
          ],
          "internalType": "struct ProfessionStakingUpgradeable.TrainingStatus[]",
          "name": "",
          "type": "tuple[]"
        }
      ],
      "stateMutability": "view",
      "type": "function"
    },
    {
      "inputs": [],
      "name": "getAllParticipantData",
      "outputs": [
        {
          "internalType": "address[]",
          "name": "addresses",
          "type": "address[]"
        },
        {
          "components": [
            {
              "internalType": "address",
              "name": "_address",
              "type": "address"
            },
            {
              "internalType": "uint256",
              "name": "tokenId",
              "type": "uint256"
            },
            {
              "internalType": "uint256",
              "name": "rewardFrom",
              "type": "uint256"
            }
          ],
          "internalType": "struct ProfessionStakingUpgradeable.NFT[][]",
          "name": "nfts",
          "type": "tuple[][]"
        },
        {
          "internalType": "uint256[]",
          "name": "rewards",
          "type": "uint256[]"
        }
      ],
      "stateMutability": "view",
      "type": "function"
    },
    {
      "inputs": [
        {
          "internalType": "address",
          "name": "nftAddress",
          "type": "address"
        },
        {
          "internalType": "uint256",
          "name": "tokenId",
          "type": "uint256"
        }
      ],
      "name": "getAllowedSkillChoices",
      "outputs": [
        {
          "internalType": "uint256[]",
          "name": "",
          "type": "uint256[]"
        }
      ],
      "stateMutability": "view",
      "type": "function"
    },
    {
      "inputs": [
        {
          "internalType": "bytes32",
          "name": "role",
          "type": "bytes32"
        }
      ],
      "name": "getRoleAdmin",
      "outputs": [
        {
          "internalType": "bytes32",
          "name": "",
          "type": "bytes32"
        }
      ],
      "stateMutability": "view",
      "type": "function"
    },
    {
      "inputs": [],
      "name": "getStaked",
      "outputs": [
        {
          "components": [
            {
              "internalType": "address",
              "name": "_address",
              "type": "address"
            },
            {
              "internalType": "uint256",
              "name": "tokenId",
              "type": "uint256"
            },
            {
              "internalType": "uint256",
              "name": "rewardFrom",
              "type": "uint256"
            }
          ],
          "internalType": "struct ProfessionStakingUpgradeable.NFT[]",
          "name": "",
          "type": "tuple[]"
        }
      ],
      "stateMutability": "view",
      "type": "function"
    },
    {
      "inputs": [
        {
          "internalType": "address",
          "name": "_address",
          "type": "address"
        }
      ],
      "name": "getStakedOf",
      "outputs": [
        {
          "components": [
            {
              "internalType": "address",
              "name": "_address",
              "type": "address"
            },
            {
              "internalType": "uint256",
              "name": "tokenId",
              "type": "uint256"
            },
            {
              "internalType": "uint256",
              "name": "rewardFrom",
              "type": "uint256"
            }
          ],
          "internalType": "struct ProfessionStakingUpgradeable.NFT[]",
          "name": "",
          "type": "tuple[]"
        }
      ],
      "stateMutability": "view",
      "type": "function"
    },
    {
      "inputs": [
        {
          "internalType": "address",
          "name": "ntfAddress",
          "type": "address"
        },
        {
          "internalType": "uint256",
          "name": "tokenId",
          "type": "uint256"
        }
      ],
      "name": "getTotalProfessionSkillPoints",
      "outputs": [
        {
          "internalType": "uint256",
          "name": "",
          "type": "uint256"
        }
      ],
      "stateMutability": "view",
      "type": "function"
    },
    {
      "inputs": [
        {
          "internalType": "address",
          "name": "_address",
          "type": "address"
        },
        {
          "internalType": "address",
          "name": "nftAddress",
          "type": "address"
        },
        {
          "internalType": "uint256",
          "name": "tokenId",
          "type": "uint256"
        }
      ],
      "name": "getTrainingStatus",
      "outputs": [
        {
          "components": [
            {
              "internalType": "address",
              "name": "_address",
              "type": "address"
            },
            {
              "internalType": "uint256",
              "name": "tokenId",
              "type": "uint256"
            },
            {
              "internalType": "uint256",
              "name": "level",
              "type": "uint256"
            },
            {
              "internalType": "uint256",
              "name": "treeId",
              "type": "uint256"
            },
            {
              "internalType": "uint256",
              "name": "skillId",
              "type": "uint256"
            },
            {
              "internalType": "uint256",
              "name": "startedAt",
              "type": "uint256"
            },
            {
              "internalType": "uint256",
              "name": "completeAt",
              "type": "uint256"
            }
          ],
          "internalType": "struct ProfessionStakingUpgradeable.TrainingStatus",
          "name": "",
          "type": "tuple"
        }
      ],
      "stateMutability": "view",
      "type": "function"
    },
    {
      "inputs": [
        {
          "internalType": "bytes32",
          "name": "role",
          "type": "bytes32"
        },
        {
          "internalType": "address",
          "name": "account",
          "type": "address"
        }
      ],
      "name": "grantRole",
      "outputs": [],
      "stateMutability": "nonpayable",
      "type": "function"
    },
    {
      "inputs": [
        {
          "internalType": "bytes32",
          "name": "role",
          "type": "bytes32"
        },
        {
          "internalType": "address",
          "name": "account",
          "type": "address"
        }
      ],
      "name": "hasRole",
      "outputs": [
        {
          "internalType": "bool",
          "name": "",
          "type": "bool"
        }
      ],
      "stateMutability": "view",
      "type": "function"
    },
    {
      "inputs": [],
      "name": "initialize",
      "outputs": [],
      "stateMutability": "nonpayable",
      "type": "function"
    },
    {
      "inputs": [
        {
          "internalType": "address",
          "name": "nftAddress",
          "type": "address"
        },
        {
          "internalType": "uint256",
          "name": "tokenId",
          "type": "uint256"
        }
      ],
      "name": "isStakingEnabled",
      "outputs": [
        {
          "internalType": "bool",
          "name": "",
          "type": "bool"
        }
      ],
      "stateMutability": "view",
      "type": "function"
    },
    {
      "inputs": [
        {
          "internalType": "address",
          "name": "_address",
          "type": "address"
        },
        {
          "internalType": "address",
          "name": "nftAddress",
          "type": "address"
        },
        {
          "internalType": "uint256",
          "name": "tokenId",
          "type": "uint256"
        },
        {
          "internalType": "uint256",
          "name": "skillId",
          "type": "uint256"
        }
      ],
      "name": "modifyActiveTrainingSkill",
      "outputs": [],
      "stateMutability": "nonpayable",
      "type": "function"
    },
    {
      "inputs": [
        {
          "internalType": "address",
          "name": "",
          "type": "address"
        },
        {
          "internalType": "address",
          "name": "",
          "type": "address"
        },
        {
          "internalType": "uint256",
          "name": "",
          "type": "uint256"
        },
        {
          "internalType": "bytes",
          "name": "",
          "type": "bytes"
        }
      ],
      "name": "onERC721Received",
      "outputs": [
        {
          "internalType": "bytes4",
          "name": "",
          "type": "bytes4"
        }
      ],
      "stateMutability": "pure",
      "type": "function"
    },
    {
      "inputs": [],
      "name": "pause",
      "outputs": [],
      "stateMutability": "nonpayable",
      "type": "function"
    },
    {
      "inputs": [],
      "name": "paused",
      "outputs": [
        {
          "internalType": "bool",
          "name": "",
          "type": "bool"
        }
      ],
      "stateMutability": "view",
      "type": "function"
    },
    {
      "inputs": [],
      "name": "pendingRewards",
      "outputs": [
        {
          "internalType": "uint256",
          "name": "",
          "type": "uint256"
        }
      ],
      "stateMutability": "view",
      "type": "function"
    },
    {
      "inputs": [
        {
          "internalType": "address",
          "name": "_address",
          "type": "address"
        }
      ],
      "name": "pendingRewardsOf",
      "outputs": [
        {
          "internalType": "uint256",
          "name": "",
          "type": "uint256"
        }
      ],
      "stateMutability": "view",
      "type": "function"
    },
    {
      "inputs": [
        {
          "internalType": "bytes32",
          "name": "role",
          "type": "bytes32"
        },
        {
          "internalType": "address",
          "name": "account",
          "type": "address"
        }
      ],
      "name": "renounceRole",
      "outputs": [],
      "stateMutability": "nonpayable",
      "type": "function"
    },
    {
      "inputs": [
        {
          "internalType": "bytes32",
          "name": "role",
          "type": "bytes32"
        },
        {
          "internalType": "address",
          "name": "account",
          "type": "address"
        }
      ],
      "name": "revokeRole",
      "outputs": [],
      "stateMutability": "nonpayable",
      "type": "function"
    },
    {
      "inputs": [
        {
          "internalType": "address",
          "name": "_address",
          "type": "address"
        }
      ],
      "name": "setGameStorage",
      "outputs": [],
      "stateMutability": "nonpayable",
      "type": "function"
    },
    {
      "inputs": [
        {
          "internalType": "address",
          "name": "nftAddress",
          "type": "address"
        },
        {
          "internalType": "uint256",
          "name": "treeId",
          "type": "uint256"
        },
        {
          "internalType": "uint256",
          "name": "skillId",
          "type": "uint256"
        }
      ],
      "name": "setSkillPointer",
      "outputs": [],
      "stateMutability": "nonpayable",
      "type": "function"
    },
    {
      "inputs": [
        {
          "internalType": "uint256",
          "name": "level",
          "type": "uint256"
        },
        {
          "internalType": "uint256",
          "name": "cost",
          "type": "uint256"
        },
        {
          "internalType": "uint256",
          "name": "time",
          "type": "uint256"
        }
      ],
      "name": "setTrainingCost",
      "outputs": [],
      "stateMutability": "nonpayable",
      "type": "function"
    },
    {
      "inputs": [
        {
          "internalType": "address",
          "name": "nftAddress",
          "type": "address"
        },
        {
          "internalType": "uint256",
          "name": "tokenId",
          "type": "uint256"
        }
      ],
      "name": "stake",
      "outputs": [],
      "stateMutability": "nonpayable",
      "type": "function"
    },
    {
      "inputs": [
        {
          "internalType": "address",
          "name": "nftAddress",
          "type": "address"
        },
        {
          "internalType": "uint256",
          "name": "tokenId",
          "type": "uint256"
        },
        {
          "internalType": "uint256",
          "name": "treeId",
          "type": "uint256"
        },
        {
          "internalType": "uint256",
          "name": "skillId",
          "type": "uint256"
        }
      ],
      "name": "startTraining",
      "outputs": [],
      "stateMutability": "nonpayable",
      "type": "function"
    },
    {
      "inputs": [
        {
          "internalType": "bytes4",
          "name": "interfaceId",
          "type": "bytes4"
        }
      ],
      "name": "supportsInterface",
      "outputs": [
        {
          "internalType": "bool",
          "name": "",
          "type": "bool"
        }
      ],
      "stateMutability": "view",
      "type": "function"
    },
    {
      "inputs": [],
      "name": "unpause",
      "outputs": [],
      "stateMutability": "nonpayable",
      "type": "function"
    },
    {
      "inputs": [
        {
          "internalType": "address",
          "name": "nftAddress",
          "type": "address"
        },
        {
          "internalType": "uint256",
          "name": "tokenId",
          "type": "uint256"
        }
      ],
      "name": "unstake",
      "outputs": [],
      "stateMutability": "nonpayable",
      "type": "function"
    },
    {
      "inputs": [
        {
          "internalType": "address",
          "name": "nftAddress",
          "type": "address"
        },
        {
          "internalType": "address",
          "name": "rewardToken",
          "type": "address"
        },
        {
          "internalType": "uint256",
          "name": "startTime",
          "type": "uint256"
        },
        {
          "internalType": "uint256",
          "name": "maxPointsPerSkill",
          "type": "uint256"
        }
      ],
      "name": "updateStakingConfig",
      "outputs": [],
      "stateMutability": "nonpayable",
      "type": "function"
    },
    {
      "inputs": [
        {
          "internalType": "address",
          "name": "to",
          "type": "address"
        },
        {
          "internalType": "address",
          "name": "token",
          "type": "address"
        },
        {
          "internalType": "uint256",
          "name": "amount",
          "type": "uint256"
        }
      ],
      "name": "withdrawPoolRewards",
      "outputs": [],
      "stateMutability": "nonpayable",
      "type": "function"
    }
  ],
  "bytecode": "0x60806040523480156200001157600080fd5b506200001c62000022565b620000e4565b600054610100900460ff16156200008f5760405162461bcd60e51b815260206004820152602760248201527f496e697469616c697a61626c653a20636f6e747261637420697320696e697469604482015266616c697a696e6760c81b606482015260840160405180910390fd5b60005460ff9081161015620000e2576000805460ff191660ff9081179091556040519081527f7f26b83ff96e1f2b6a682f133852f6798a09c465da95921460cefb38474024989060200160405180910390a15b565b615b3380620000f46000396000f3fe608060405234801561001057600080fd5b50600436106102f15760003560e01c806381fda71d1161019d578063bea64ba2116100e9578063d3a13d42116100a2578063e62ccc9c1161007c578063e62ccc9c146106e3578063e63ab1e9146106f6578063eded3fda1461070b578063fa5887ee1461071357600080fd5b8063d3a13d42146106aa578063d547741f146106bd578063d9a2c1d2146106d057600080fd5b8063bea64ba214610636578063c2a672e014610649578063c59abf9f1461065c578063c75fb3e314610671578063ca61466014610684578063cc3f7b1c1461069757600080fd5b8063a217fddf11610156578063adc9772e11610130578063adc9772e146105ea578063aed2151a146105fd578063aeeba61514610610578063be29c9251461062357600080fd5b8063a217fddf146105bc578063a401344b146105c4578063abfc6e73146105d757600080fd5b806381fda71d146105605780638456cb591461057357806386e8953d1461057b57806391d148541461058e57806394a77066146105a15780639f8f6068146105b457600080fd5b80633988bad81161025c5780634e71d92d116102155780635c975abb116101ef5780635c975abb1461051a578063729c35531461052557806376c7e36a146105385780638129fc1c1461055857600080fd5b80634e71d92d146104df5780634eeea443146104e75780635a2d8800146104fa57600080fd5b80633988bad8146104725780633d564e49146104855780633f4ba83a14610498578063421f72c7146104a057806347e63380146104b75780634cb12fee146104cc57600080fd5b806323de54d8116102ae57806323de54d8146103ca578063248a9ca3146103f55780632f2ff15d1461042657806332b95a6f1461043957806333820bac1461044c57806336568abe1461045f57600080fd5b806301ffc9a7146102f65780630ae7a4611461031e578063139bed4c14610333578063150b7a021461034657806319545487146103975780632119e140146103aa575b600080fd5b610309610304366004614dd1565b610726565b60405190151581526020015b60405180910390f35b61033161032c366004614dfb565b61075d565b005b610331610341366004614f74565b61078e565b61037e610354366004615045565b7f150b7a023d4804d13e8c85fb27262cb750cf6ba9f9dd3bb30d90f482ceeb4b1f95945050505050565b6040516001600160e01b03199091168152602001610315565b6103316103a53660046150e3565b61084a565b6103bd6103b8366004615146565b6108d3565b60405161031591906151d1565b60c9546103dd906001600160a01b031681565b6040516001600160a01b039091168152602001610315565b6104186104033660046151df565b60009081526097602052604090206001015490565b604051908152602001610315565b6103316104343660046151f8565b61095d565b6103316104473660046150e3565b610982565b61033161045a366004615228565b610a05565b61033161046d3660046151f8565b610a40565b61041861048036600461525d565b610abe565b6103316104933660046150e3565b610c1a565b610331610c95565b6104a8610cc0565b60405161031593929190615304565b610418600080516020615abe83398151915281565b6103316104da3660046153b8565b610ead565b6103316112d3565b6103316104f53660046153e4565b6112ec565b61050d6105083660046153b8565b6113d9565b6040516103159190615436565b60335460ff16610309565b610331610533366004615146565b6118c0565b61054b61054636600461525d565b611933565b6040516103159190615449565b610331611c78565b61041861056e3660046153b8565b611df1565b610331611eb1565b6103096105893660046153b8565b611ed9565b61030961059c3660046151f8565b611f9c565b6103316105af366004615497565b611fc7565b61054b61238c565b610418600081565b6103316105d236600461525d565b61239c565b6103316105e5366004615531565b612444565b6103316105f83660046153b8565b612644565b61033161060b366004615577565b6129ad565b61033161061e3660046150e3565b612aaf565b6103316106313660046155fe565b612b32565b610331610644366004615146565b612ca3565b6103316106573660046153b8565b612e5d565b61066461337e565b60405161031591906156aa565b61066461067f36600461525d565b613385565b610331610692366004615531565b61341d565b6103316106a53660046153b8565b613462565b6103316106b836600461525d565b6137f9565b6103316106cb3660046151f8565b613834565b6103316106de3660046150e3565b613859565b6103316106f13660046153b8565b6138d4565b610418600080516020615ade83398151915281565b610418613bb0565b6103316107213660046156bd565b613bbb565b60006001600160e01b03198216637965db0b60e01b148061075757506301ffc9a760e01b6001600160e01b03198316145b92915050565b600080516020615abe8339815191526107758161420a565b50600092835260cb602052604090922090815560010155565b60006107998161420a565b60005b86518110156108415761082f8782815181106107ba576107ba6156f8565b60200260200101518783815181106107d4576107d46156f8565b60200260200101518784815181106107ee576107ee6156f8565b6020026020010151878581518110610808576108086156f8565b6020026020010151878681518110610822576108226156f8565b60200260200101516112ec565b8061083981615724565b91505061079c565b50505050505050565b80518251146108745760405162461bcd60e51b815260040161086b9061573f565b60405180910390fd5b60005b82518110156108ce576108bc838281518110610895576108956156f8565b60200260200101518383815181106108af576108af6156f8565b6020026020010151610ead565b806108c681615724565b915050610877565b505050565b6108db614d06565b506001600160a01b03928316600090815260ca602090815260408083209486168352938152838220928252918252829020825160e081018452815490941684526001810154918401919091526002810154918301919091526003810154606083015260048101546080830152600581015460a08301526006015460c082015290565b6000828152609760205260409020600101546109788161420a565b6108ce8383614214565b61098a61429a565b80518251146109ab5760405162461bcd60e51b815260040161086b9061573f565b60005b82518110156108ce576109f38382815181106109cc576109cc6156f8565b60200260200101518383815181106109e6576109e66156f8565b6020026020010151612644565b806109fd81615724565b9150506109ae565b600080516020615abe833981519152610a1d8161420a565b506001600160a01b03909216600090815260d06020526040902090815560010155565b6001600160a01b0381163314610ab05760405162461bcd60e51b815260206004820152602f60248201527f416363657373436f6e74726f6c3a2063616e206f6e6c792072656e6f756e636560448201526e103937b632b9903337b91039b2b63360891b606482015260840161086b565b610aba82826142e0565b5050565b6001600160a01b038116600090815260cc602052604081206001810154906362ba5a1f90835b8154811015610c105782826000018281548110610b0357610b036156f8565b90600052602060002090600302016002015410610b1f57610bfe565b6000826000018281548110610b3657610b366156f8565b90600052602060002090600302016002015484610b539190615783565b90506000610bb7846000018481548110610b6f57610b6f6156f8565b600091825260209091206003909102015485546001600160a01b0390911690869086908110610ba057610ba06156f8565b906000526020600020906003020160010154611df1565b90508162015180610bc983600161579a565b610bdb90670de0b6b3a76400006157b2565b610be591906157d1565b610bef91906157b2565b610bf9908761579a565b955050505b80610c0881615724565b915050610ae4565b5091949350505050565b8051825114610c3b5760405162461bcd60e51b815260040161086b9061573f565b60005b82518110156108ce57610c83838281518110610c5c57610c5c6156f8565b6020026020010151838381518110610c7657610c766156f8565b6020026020010151612e5d565b80610c8d81615724565b915050610c3e565b600080516020615ade833981519152610cad8161420a565b610cb5614347565b610cbd61437b565b50565b60608060606000610cd160cd6143cd565b9050806001600160401b03811115610ceb57610ceb614e27565b604051908082528060200260200182016040528015610d14578160200160208202803683370190505b509150806001600160401b03811115610d2f57610d2f614e27565b604051908082528060200260200182016040528015610d6257816020015b6060815260200190600190039081610d4d5790505b50925060005b81811015610e9a5760cc6000610d7f60cd846143d7565b6001600160a01b03166001600160a01b03168152602001908152602001600020600001805480602002602001604051908101604052809291908181526020016000905b82821015610e17576000848152602090819020604080516060810182526003860290920180546001600160a01b0316835260018082015484860152600290910154918301919091529083529092019101610dc2565b50505050848281518110610e2d57610e2d6156f8565b602090810291909101015260cc6000610e4760cd846143d7565b6001600160a01b03166001600160a01b0316815260200190815260200160002060010154838281518110610e7d57610e7d6156f8565b602090810291909101015280610e9281615724565b915050610d68565b50610ea560cd6143ea565b935050909192565b6040516331a9108f60e11b8152600481018290528290829030906001600160a01b03841690636352211e9060240160206040518083038186803b158015610ef357600080fd5b505afa158015610f07573d6000803e3d6000fd5b505050506040513d601f19601f82011682018060405250810190610f2b91906157f3565b6001600160a01b031614610f515760405162461bcd60e51b815260040161086b90615810565b60c95460405163537a724f60e11b8152859185916001600160a01b039091169063a6f4e49e90610f8c90859085906000908190600401615834565b60206040518083038186803b158015610fa457600080fd5b505afa158015610fb8573d6000803e3d6000fd5b505050506040513d601f19601f82011682018060405250810190610fdc919061585a565b600114610ffb5760405162461bcd60e51b815260040161086b90615873565b33600090815260ca602090815260408083206001600160a01b038a1684528252808320888452909152902060058101546110665760405162461bcd60e51b815260206004820152600c60248201526b4e6f7420747261696e696e6760a01b604482015260640161086b565b42816006015411156110ba5760405162461bcd60e51b815260206004820152601a60248201527f547261696e696e67207374696c6c20696e2070726f6772657373000000000000604482015260640161086b565b60005b33600090815260cc60205260409020548110156111605733600090815260cc602052604090208054889190839081106110f8576110f86156f8565b906000526020600020906003020160010154141561114e57611149335b33600090815260cc60205260409020805484908110611136576111366156f8565b90600052602060002090600302016143f7565b611160565b8061115881615724565b9150506110bd565b5060c95460038201546004808401546002850154604051630d126da960e11b81526001600160a01b038d811694820194909452602481018c905260448101949094526064840191909152608483015290911690631a24db529060a401600060405180830381600087803b1580156111d657600080fd5b505af11580156111ea573d6000803e3d6000fd5b50505050866001600160a01b03166111ff3390565b6001600160a01b03167f4cffb663b46d78e759211fc8a998ed5dd16066c4229b4b4e94bc0ff7431e85a88884600301548560040154866002015460405161125f949392919093845260208401929092526040830152606082015260800190565b60405180910390a3505033600090815260ca602090815260408083206001600160a01b039890981683529681528682209582529490945250505090812080546001600160a01b0319168155600181018290556002810182905560038101829055600481018290556005810182905560060155565b6112e133614420565b614420565b6112ea3361446e565b565b60006112f78161420a565b6001600160a01b038616600090815260cc60205260409020805485919087908110611324576113246156f8565b6000918252602080832060039290920290910180546001600160a01b0319166001600160a01b03948516179055918816815260cc90915260409020805484919087908110611374576113746156f8565b600091825260209091206001600390920201015581156113d1576001600160a01b038616600090815260cc602052604090208054839190879081106113bb576113bb6156f8565b9060005260206000209060030201600201819055505b505050505050565b6001600160a01b038216600090815260cf60209081526040808320815160a0810183528154815260018201548185015260028201805484518187028101870186528181526060979693958601939092919083018282801561145957602002820191906000526020600020905b815481526020019060010190808311611445575b50505050508152602001600382018054806020026020016040519081016040528092919081815260200182805480156114b157602002820191906000526020600020905b81548152602001906001019080831161149d575b5050509183525050600491909101546001600160a01b031660209091015280519091506115205760405162461bcd60e51b815260206004820152601e60248201527f4e6f20747261696e696e672073657373696f6e20636f6e666967757265640000604482015260640161086b565b60008160400151516001600160401b0381111561153f5761153f614e27565b604051908082528060200260200182016040528015611568578160200160208202803683370190505b50905060008060005b8460400151518110156116d75760c954604086015180516001600160a01b039092169163a6f4e49e918b918b9190869081106115af576115af6156f8565b6020026020010151896060015186815181106115cd576115cd6156f8565b60200260200101516040518563ffffffff1660e01b81526004016115f49493929190615834565b60206040518083038186803b15801561160c57600080fd5b505afa158015611620573d6000803e3d6000fd5b505050506040513d601f19601f82011682018060405250810190611644919061585a565b848281518110611656576116566156f8565b6020026020010181815250506000848281518110611676576116766156f8565b60200260200101511115611692578261168e81615724565b9350505b84602001518482815181106116a9576116a96156f8565b602002602001015114156116c557816116c181615724565b9250505b806116cf81615724565b915050611571565b50816116eb57505050606001519050610757565b806002141561170257506060935061075792505050565b600060018560400151516117169190615783565b6001600160401b0381111561172d5761172d614e27565b604051908082528060200260200182016040528015611756578160200160208202803683370190505b5090506000805b85518110156118b2578360011480156117765750846001145b801561179b575085818151811061178f5761178f6156f8565b60200260200101516000145b156117e957866060015181815181106117b6576117b66156f8565b60200260200101518383815181106117d0576117d06156f8565b6020908102919091010152816117e581615724565b9250505b60008682815181106117fd576117fd6156f8565b602002602001015111801561182e57508660200151868281518110611824576118246156f8565b6020026020010151105b156118a057604080516001808252818301909252600091602080830190803683370190505090508760600151828151811061186b5761186b6156f8565b602002602001015181600081518110611886576118866156f8565b602090810291909101015297506107579650505050505050565b806118aa81615724565b91505061175d565b509098975050505050505050565b60006118cb8161420a565b506001600160a01b03928316600090815260ca60209081526040808320949095168252928352838120918152915290812080546001600160a01b0319168155600181018290556002810182905560038101829055600481018290556005810182905560060155565b6001600160a01b038116600090815260cc60209081526040808320805482518185028101850190935280835260609493849084015b828210156119bd576000848152602090819020604080516060810182526003860290920180546001600160a01b0316835260018082015484860152600290910154918301919091529083529092019101611968565b5050505090506000805b8251811015611add576001600160a01b038516600090815260ca60205260408120845182908690859081106119fe576119fe6156f8565b6020026020010151600001516001600160a01b03166001600160a01b031681526020019081526020016000206000858481518110611a3e57611a3e6156f8565b6020908102919091018101518101518252818101929092526040908101600020815160e08101835281546001600160a01b031681526001820154938101939093526002810154918301919091526003810154606083015260048101546080830152600581015460a08301526006015460c0820181905290915015611aca5782611ac681615724565b9350505b5080611ad581615724565b9150506119c7565b506000816001600160401b03811115611af857611af8614e27565b604051908082528060200260200182016040528015611b3157816020015b611b1e614d06565b815260200190600190039081611b165790505b5090506000805b8451811015611c6d576001600160a01b038716600090815260ca6020526040812086518290889085908110611b6f57611b6f6156f8565b6020026020010151600001516001600160a01b03166001600160a01b031681526020019081526020016000206000878481518110611baf57611baf6156f8565b6020908102919091018101518101518252818101929092526040908101600020815160e08101835281546001600160a01b031681526001820154938101939093526002810154918301919091526003810154606083015260048101546080830152600581015460a08301526006015460c0820181905290915015611c5a5780848481518110611c4057611c406156f8565b60200260200101819052508280611c5690615724565b9350505b5080611c6581615724565b915050611b38565b509095945050505050565b600054610100900460ff1615808015611c985750600054600160ff909116105b80611cb25750303b158015611cb2575060005460ff166001145b611d155760405162461bcd60e51b815260206004820152602e60248201527f496e697469616c697a61626c653a20636f6e747261637420697320616c72656160448201526d191e481a5b9a5d1a585b1a5e995960921b606482015260840161086b565b6000805460ff191660011790558015611d38576000805461ff0019166101001790555b611d4061470c565b611d4861473b565b611d53600033614214565b611d6b600080516020615ade83398151915233614214565b611d83600080516020615abe83398151915233614214565b60c980546001600160a01b031916733a55ffc97d2183d94147c4d2d3b6991f0c09abf41790558015610cbd576000805461ff0019169055604051600181527f7f26b83ff96e1f2b6a682f133852f6798a09c465da95921460cefb38474024989060200160405180910390a150565b600080805b600c811015611ea95760c95460405163537a724f60e11b81526000916001600160a01b03169063a6f4e49e90611e3790899089906001908890600401615834565b60206040518083038186803b158015611e4f57600080fd5b505afa158015611e63573d6000803e3d6000fd5b505050506040513d601f19601f82011682018060405250810190611e87919061585a565b9050611e93818461579a565b9250508080611ea190615724565b915050611df6565b509392505050565b600080516020615ade833981519152611ec98161420a565b611ed1614347565b610cbd614762565b6001600160a01b03808316600090815260d0602052604080822060c95481546001830154935163537a724f60e11b8152949592948694929093169263a6f4e49e92611f2b928a928a9290600401615834565b60206040518083038186803b158015611f4357600080fd5b505afa158015611f57573d6000803e3d6000fd5b505050506040513d601f19601f82011682018060405250810190611f7b919061585a565b90508060011415611f9157600192505050610757565b506000949350505050565b60009182526097602090815260408084206001600160a01b0393909316845291905290205460ff1690565b600080516020615abe833981519152611fdf8161420a565b6001600160a01b038716600090815260cf6020526040902054156120455760405162461bcd60e51b815260206004820152601d60248201527f5374616b696e6720636f6e66696720616c726561647920657869737473000000604482015260640161086b565b600083511161208e5760405162461bcd60e51b81526020600482015260156024820152744d697373696e672074726565496420636f6e66696760581b604482015260640161086b565b60008251116120d85760405162461bcd60e51b81526020600482015260166024820152754d697373696e6720736b696c6c496420636f6e66696760501b604482015260640161086b565b82518251146121385760405162461bcd60e51b815260206004820152602660248201527f5472656549647320616e6420536b696c6c49647320617272617973206d757374604482015265040dac2e8c6d60d31b606482015260840161086b565b600084116121585760405162461bcd60e51b815260040161086b90615899565b4285116121775760405162461bcd60e51b815260040161086b906158e1565b6040516370a0823160e01b81523060048201526000906001600160a01b038816906370a082319060240160206040518083038186803b1580156121b957600080fd5b505afa1580156121cd573d6000803e3d6000fd5b505050506040513d601f19601f820116820180604052508101906121f1919061585a565b116122355760405162461bcd60e51b81526020600482015260146024820152734e6f2066756e647320666f72207265776172647360601b604482015260640161086b565b61223d614347565b6001600160a01b03878116600090815260cf602052604081206004810180546001600160a01b031916938a169390931790925586825560019091018590555b835181101561233c5760cf6000896001600160a01b03166001600160a01b031681526020019081526020016000206002018482815181106122bf576122bf6156f8565b6020908102919091018101518254600181018455600093845282842001556001600160a01b038a16825260cf905260409020835160039091019084908390811061230b5761230b6156f8565b602090810291909101810151825460018101845560009384529190922001558061233481615724565b91505061227c565b50604080516001600160a01b038881168252602082018890528916917fc6e5f1ee3138795eeda2fa0aab37379a177c4f04396146dd2b154ab55f5c5585910160405180910390a250505050505050565b606061239733611933565b905090565b600080516020615abe8339815191526123b48161420a565b6123bc614347565b6001600160a01b038216600090815260cf6020526040812081815560018101829055906123ec6002830182614d4c565b6123fa600383016000614d4c565b5060040180546001600160a01b03191690556040516001600160a01b038316907fed93036dfb7e5500a2a7f2471a56e6b3389a8c28c72adca8ba9f6a4025ca6d5890600090a25050565b600080516020615abe83398151915261245c8161420a565b6001600160a01b038516600090815260cf60205260409020546124c15760405162461bcd60e51b815260206004820152601d60248201527f5374616b696e6720636f6e66696720646f6573206e6f74206578697374000000604482015260640161086b565b600082116124e15760405162461bcd60e51b815260040161086b90615899565b4283116125005760405162461bcd60e51b815260040161086b906158e1565b6040516370a0823160e01b81523060048201526000906001600160a01b038616906370a082319060240160206040518083038186803b15801561254257600080fd5b505afa158015612556573d6000803e3d6000fd5b505050506040513d601f19601f8201168201806040525081019061257a919061585a565b116125be5760405162461bcd60e51b81526020600482015260146024820152734e6f2066756e647320666f72207265776172647360601b604482015260640161086b565b6125c6614347565b6001600160a01b03858116600081815260cf60209081526040918290206004810180546001600160a01b031916958a169586179055878155600181018790558251948552908401879052927f255d2940ab142f16cd2452c452fc20185bcbc341ce9c1646bc3d4feac9dc3371910160405180910390a2505050505050565b61264c61429a565b6040516331a9108f60e11b8152600481018290528290829030906001600160a01b03841690636352211e9060240160206040518083038186803b15801561269257600080fd5b505afa1580156126a6573d6000803e3d6000fd5b505050506040513d601f19601f820116820180604052508101906126ca91906157f3565b6001600160a01b031614156127125760405162461bcd60e51b815260206004820152600e60248201526d105b1c9958591e481cdd185ad95960921b604482015260640161086b565b60c95460405163537a724f60e11b8152859185916001600160a01b039091169063a6f4e49e9061274d90859085906000908190600401615834565b60206040518083038186803b15801561276557600080fd5b505afa158015612779573d6000803e3d6000fd5b505050506040513d601f19601f8201168201806040525081019061279d919061585a565b6001146127bc5760405162461bcd60e51b815260040161086b90615873565b6001600160a01b038616600090815260cf60205260409020546128115760405162461bcd60e51b815260206004820152600d60248201526c496e76616c6964207374616b6560981b604482015260640161086b565b6001600160a01b038616600090815260cf60205260409020544210156128735760405162461bcd60e51b815260206004820152601760248201527614dd185ada5b99c81a185cc81b9bdd081cdd185c9d1959604a1b604482015260640161086b565b604051632142170760e11b81526001600160a01b038716906342842e0e906128a390339030908a9060040161592b565b600060405180830381600087803b1580156128bd57600080fd5b505af11580156128d1573d6000803e3d6000fd5b505050506128e76128df3390565b60cd9061479f565b5033600090815260cc6020908152604080832081516060810183526001600160a01b038b811682528185018b815242948301948552835460018082018655948852959096209151600390950290910180546001600160a01b0319169490911693909317835592519282019290925590516002909101556129656112d3565b6040518581526001600160a01b0387169033907f5dac0c1b1112564a045ba943c9d50270893e8e826c49be8e7073adc713ab7bd79060200160405180910390a3505050505050565b600080516020615abe8339815191526129c58161420a565b825184511480156129d7575081518351145b612a345760405162461bcd60e51b815260206004820152602860248201527f416c6c20696e70757420617272617973206d757374206265207468652073616d6044820152670ca40d8cadccee8d60c31b606482015260840161086b565b60005b8451811015612aa857612a96858281518110612a5557612a556156f8565b6020026020010151858381518110612a6f57612a6f6156f8565b6020026020010151858481518110612a8957612a896156f8565b602002602001015161075d565b80612aa081615724565b915050612a37565b5050505050565b612ab761429a565b8051825114612ad85760405162461bcd60e51b815260040161086b9061573f565b60005b82518110156108ce57612b20838281518110612af957612af96156f8565b6020026020010151838381518110612b1357612b136156f8565b6020026020010151613462565b80612b2a81615724565b915050612adb565b612b3a61429a565b8251845114612b5b5760405162461bcd60e51b815260040161086b9061573f565b8151845114612bb85760405162461bcd60e51b815260206004820152602360248201527f6164647265737320636f756e74206d757374206d61746368207472656520636f6044820152621d5b9d60ea1b606482015260840161086b565b8051845114612c155760405162461bcd60e51b8152602060048201526024808201527f6164647265737320636f756e74206d757374206d6174636820736b696c6c20636044820152631bdd5b9d60e21b606482015260840161086b565b60005b8451811015612aa857612c91858281518110612c3657612c366156f8565b6020026020010151858381518110612c5057612c506156f8565b6020026020010151858481518110612c6a57612c6a6156f8565b6020026020010151858581518110612c8457612c846156f8565b6020026020010151613bbb565b80612c9b81615724565b915050612c18565b6000612cae8161420a565b612cb6614347565b6040516370a0823160e01b8152306004820152839083906001600160a01b038316906370a082319060240160206040518083038186803b158015612cf957600080fd5b505afa158015612d0d573d6000803e3d6000fd5b505050506040513d601f19601f82011682018060405250810190612d31919061585a565b1015612d765760405162461bcd60e51b8152602060048201526014602482015273496e73756666696369656e742062616c616e636560601b604482015260640161086b565b6040516323b872dd60e01b81526001600160a01b038216906323b872dd90612da69030908990889060040161592b565b602060405180830381600087803b158015612dc057600080fd5b505af1158015612dd4573d6000803e3d6000fd5b505050506040513d601f19601f82011682018060405250810190612df8919061594f565b50836001600160a01b0316856001600160a01b0316612e143390565b6001600160a01b03167f74ed50f6a2a005dd31f4766fb60918c4a6728cb0da9eeb81b9526bc6da11ec0f86604051612e4e91815260200190565b60405180910390a45050505050565b6040516331a9108f60e11b8152600481018290528290829030906001600160a01b03841690636352211e9060240160206040518083038186803b158015612ea357600080fd5b505afa158015612eb7573d6000803e3d6000fd5b505050506040513d601f19601f82011682018060405250810190612edb91906157f3565b6001600160a01b031614612f015760405162461bcd60e51b815260040161086b90615810565b60c95460405163537a724f60e11b8152859185916001600160a01b039091169063a6f4e49e90612f3c90859085906000908190600401615834565b60206040518083038186803b158015612f5457600080fd5b505afa158015612f68573d6000803e3d6000fd5b505050506040513d601f19601f82011682018060405250810190612f8c919061585a565b600114612fab5760405162461bcd60e51b815260040161086b90615873565b33600090815260cc6020526040902054612ff85760405162461bcd60e51b815260206004820152600e60248201526d139bc81391951cc81cdd185ad95960921b604482015260640161086b565b33600090815260cc6020908152604080832080548251818502810185019093528083529192909190849084015b8282101561307a576000848152602090819020604080516060810182526003860290920180546001600160a01b0316835260018082015484860152600290910154918301919091529083529092019101613025565b50505050905060cc600061308b3390565b6001600160a01b03168152602081019190915260400160009081206130af91614d6a565b60005b81518110156132ae57876001600160a01b03168282815181106130d7576130d76156f8565b6020026020010151600001516001600160a01b0316148015613115575086828281518110613107576131076156f8565b602002602001015160200151145b156131a857613143338989858581518110613132576131326156f8565b6020026020010151604001516147b4565b33600090815260ca602090815260408083206001600160a01b038c16845282528083208a8452909152812080546001600160a01b031916815560018101829055600281018290556003810182905560048101829055600581018290556006015561329c565b60cc6000336001600160a01b03166001600160a01b0316815260200190815260200160002060000160405180606001604052808484815181106131ed576131ed6156f8565b6020026020010151600001516001600160a01b03168152602001848481518110613219576132196156f8565b602002602001015160200151815260200184848151811061323c5761323c6156f8565b602090810291909101810151604090810151909252835460018082018655600095865294829020845160039092020180546001600160a01b0319166001600160a01b03909216919091178155908301519381019390935501516002909101555b806132a681615724565b9150506130b2565b506132b76112d3565b6132c033614861565b6040516323b872dd60e01b81526001600160a01b038816906323b872dd906132f090309033908b9060040161592b565b600060405180830381600087803b15801561330a57600080fd5b505af115801561331e573d6000803e3d6000fd5b50505050866001600160a01b03166133333390565b6001600160a01b03167fd8654fcc8cf5b36d30b3f5e4688fc78118e6d68de60b9994e09902268b57c3e38860405161336d91815260200190565b60405180910390a350505050505050565b6060612397335b6001600160a01b038116600090815260cc60209081526040808320805482518185028101850190935280835260609492939192909184015b82821015613412576000848152602090819020604080516060810182526003860290920180546001600160a01b03168352600180820154848601526002909101549183019190915290835290920191016133bd565b505050509050919050565b60006134288161420a565b506001600160a01b03938416600090815260ca60209081526040808320959096168252938452848120928152919092529190912060040155565b61346a61429a565b6040516331a9108f60e11b8152600481018290528290829030906001600160a01b03841690636352211e9060240160206040518083038186803b1580156134b057600080fd5b505afa1580156134c4573d6000803e3d6000fd5b505050506040513d601f19601f820116820180604052508101906134e891906157f3565b6001600160a01b031614156135305760405162461bcd60e51b815260206004820152600e60248201526d105b1c9958591e481cdd185ad95960921b604482015260640161086b565b6001600160a01b038416600090815260d060205260408120906135538686611ed9565b905080156135a35760405162461bcd60e51b815260206004820152601860248201527f5374616b696e6720616c726561647920756e6c6f636b65640000000000000000604482015260640161086b565b6001600160a01b038616600090815260cf60205260409020546136015760405162461bcd60e51b815260206004820152601660248201527514dd185ada5b99c81b9bdd0818dbdb999a59dd5c995960521b604482015260640161086b565b6001600160a01b038616600090815260cf60205260409020544210156136635760405162461bcd60e51b815260206004820152601760248201527614dd185ada5b99c81a185cc81b9bdd081cdd185c9d1959604a1b604482015260640161086b565b6001600160a01b03868116600090815260cf602052604090206004015416806323b872dd336000805260cb6020527f4239c2c8c3d9b94feb214b0f54d7c869ce1ceb63517be57644336cda4967a468546040516001600160e01b031960e085901b1681526136d69291309160040161592b565b602060405180830381600087803b1580156136f057600080fd5b505af1158015613704573d6000803e3d6000fd5b505050506040513d601f19601f82011682018060405250810190613728919061594f565b5060c9548354600180860154604051630d126da960e11b81526001600160a01b038c81166004830152602482018c9052604482019490945260648101919091526084810191909152911690631a24db529060a401600060405180830381600087803b15801561379657600080fd5b505af11580156137aa573d6000803e3d6000fd5b50505050866001600160a01b03166137bf3390565b6001600160a01b03167f051144eeaaad1c4ee6b1eab928f531a9daf1687b3e0f8db00dae3f5df8c285db8860405161336d91815260200190565b600080516020615abe8339815191526138118161420a565b5060c980546001600160a01b0319166001600160a01b0392909216919091179055565b60008281526097602052604090206001015461384f8161420a565b6108ce83836142e0565b805182511461387a5760405162461bcd60e51b815260040161086b9061573f565b60005b82518110156108ce576138c283828151811061389b5761389b6156f8565b60200260200101518383815181106138b5576138b56156f8565b60200260200101516138d4565b806138cc81615724565b91505061387d565b6040516331a9108f60e11b8152600481018290528290829030906001600160a01b03841690636352211e9060240160206040518083038186803b15801561391a57600080fd5b505afa15801561392e573d6000803e3d6000fd5b505050506040513d601f19601f8201168201806040525081019061395291906157f3565b6001600160a01b0316146139785760405162461bcd60e51b815260040161086b90615810565b60c95460405163537a724f60e11b8152859185916001600160a01b039091169063a6f4e49e906139b390859085906000908190600401615834565b60206040518083038186803b1580156139cb57600080fd5b505afa1580156139df573d6000803e3d6000fd5b505050506040513d601f19601f82011682018060405250810190613a03919061585a565b600114613a225760405162461bcd60e51b815260040161086b90615873565b33600090815260ca602090815260408083206001600160a01b038a168452825280832088845290915290206005810154613a8d5760405162461bcd60e51b815260206004820152600c60248201526b4e6f7420747261696e696e6760a01b604482015260640161086b565b42816006015411613ae05760405162461bcd60e51b815260206004820152601960248201527f547261696e696e6720616c72656164792066696e697368656400000000000000604482015260640161086b565b60005b33600090815260cc6020526040902054811015613b565733600090815260cc60205260409020805488919083908110613b1e57613b1e6156f8565b9060005260206000209060030201600101541415613b4457613b3f33611115565b613b56565b80613b4e81615724565b915050613ae3565b50600381015460048201546040805189815260208101939093528201524260608201526001600160a01b0388169033907fc9b7c59fa980251f7ca7eae784c953e8a9f49d617be6edca0b41264ea05cb1699060800161125f565b600061239733610abe565b613bc361429a565b6040516331a9108f60e11b8152600481018490528490849030906001600160a01b03841690636352211e9060240160206040518083038186803b158015613c0957600080fd5b505afa158015613c1d573d6000803e3d6000fd5b505050506040513d601f19601f82011682018060405250810190613c4191906157f3565b6001600160a01b031614613c675760405162461bcd60e51b815260040161086b90615810565b60c95460405163537a724f60e11b8152879187916001600160a01b039091169063a6f4e49e90613ca290859085906000908190600401615834565b60206040518083038186803b158015613cba57600080fd5b505afa158015613cce573d6000803e3d6000fd5b505050506040513d601f19601f82011682018060405250810190613cf2919061585a565b600114613d115760405162461bcd60e51b815260040161086b90615873565b6001600160a01b038816600090815260cf602052604090208054613d775760405162461bcd60e51b815260206004820152601e60248201527f4e6f20747261696e696e672073657373696f6e20636f6e666967757265640000604482015260640161086b565b8054421015613dc85760405162461bcd60e51b815260206004820152601c60248201527f547261696e696e6720686173206e6f7420737461727465642079657400000000604482015260640161086b565b33600090815260ca602090815260408083206001600160a01b038d16845282528083208b84529091529020600581015415613e455760405162461bcd60e51b815260206004820152601f60248201527f547261696e696e6720697320616c726561647920696e2070726f677265737300604482015260640161086b565b6000613e518b8b6113d9565b90506000815111613ea45760405162461bcd60e51b815260206004820152601e60248201527f4e6f20747261696e696e672073657373696f6e7320617661696c61626c650000604482015260640161086b565b6000805b8251811015613eed5789838281518110613ec457613ec46156f8565b60200260200101511415613edb5760019150613eed565b80613ee581615724565b915050613ea8565b5080613f3b5760405162461bcd60e51b815260206004820152601760248201527f496e76616c696420747261696e696e67206f7074696f6e000000000000000000604482015260640161086b565b600060c960009054906101000a90046001600160a01b03166001600160a01b031663a6f4e49e8e8e8e8e6040518563ffffffff1660e01b8152600401613f849493929190615834565b60206040518083038186803b158015613f9c57600080fd5b505afa158015613fb0573d6000803e3d6000fd5b505050506040513d601f19601f82011682018060405250810190613fd4919061585a565b9050600060cb81613fe684600161579a565b815260200190815260200160002090508560010154826001614008919061579a565b11156140565760405162461bcd60e51b815260206004820152601e60248201527f45786365656473206d6178696d756d20747261696e696e67206c6576656c0000604482015260640161086b565b80546140a45760405162461bcd60e51b815260206004820152601d60248201527f547261696e696e67204c6576656c206973206e6f7420656e61626c6564000000604482015260640161086b565b60048681015482546040516323b872dd60e01b81526001600160a01b03909216926323b872dd926140d992339230920161592b565b602060405180830381600087803b1580156140f357600080fd5b505af1158015614107573d6000803e3d6000fd5b505050506040513d601f19601f8201168201806040525081019061412b919061594f565b5061413782600161579a565b6002860155600385018c9055600485018b9055426005860181905560018201546141609161579a565b600686015584546001600160a01b0319166001600160a01b038f169081178655600186018e9055336001600160a01b03167f98d1944772cc1ee399725448c633b3ec863f8be81e490479055d810afaa0225c8f8f8f6141c088600161579a565b60058c015460068d0154604080519687526020870195909552938501929092526060840152608083015260a082015260c00160405180910390a35050505050505050505050505050565b610cbd81336148ae565b61421e8282611f9c565b610aba5760008281526097602090815260408083206001600160a01b03851684529091529020805460ff191660011790556142563390565b6001600160a01b0316816001600160a01b0316837f2f8788117e7eff1d82e926ec794901d17c78024a50270940304540a733656f0d60405160405180910390a45050565b60335460ff16156112ea5760405162461bcd60e51b815260206004820152601060248201526f14185d5cd8589b194e881c185d5cd95960821b604482015260640161086b565b6142ea8282611f9c565b15610aba5760008281526097602090815260408083206001600160a01b0385168085529252808320805460ff1916905551339285917ff6391f5c32d9c69d2a47ea670b442974b53935d1edc7fd64eb21e047a839171b9190a45050565b60005b61435460cd6143cd565b811015610cbd576143696112dc60cd836143d7565b8061437381615724565b91505061434a565b614383614912565b6033805460ff191690557f5db9ee0a495bf2e6ff9c91a7834c1ba4fdd244a5e8aa4e537bd38aeae4b073aa335b6040516001600160a01b03909116815260200160405180910390a1565b6000610757825490565b60006143e3838361495b565b9392505050565b606060006143e383614985565b60028101805442909155815460018301546108ce9185916001600160a01b0390911690846147b4565b6001600160a01b038116600090815260cc60205260408120905b81548110156108ce5761445c83836000018381548110611136576111366156f8565b8061446681615724565b91505061443a565b6001600160a01b038116600090815260cc602052604090206001015469043c33c193756480000081106144f2576001600160a01b038216600081815260cc60209081526040918290205482519081529081018490527fb4dbe8af97297f3ecbb538955ef6410079ad6268c887a438d8af7ab49dd3602b910160405180910390a25050565b6001600160a01b038216600090815260cc602052604080822060010191909155516370a0823160e01b815230600482015273892d81221484f690c0a97d3dd18b9144a3ecdfb790829082906370a082319060240160206040518083038186803b15801561455e57600080fd5b505afa158015614572573d6000803e3d6000fd5b505050506040513d601f19601f82011682018060405250810190614596919061585a565b10156145e45760405162461bcd60e51b815260206004820181905260248201527f496e73756666696369656e74207265776172647320696e20636f6e7472616374604482015260640161086b565b60405163a9059cbb60e01b81526001600160a01b0384811660048301526024820184905282169063a9059cbb90604401602060405180830381600087803b15801561462e57600080fd5b505af1158015614642573d6000803e3d6000fd5b505050506040513d601f19601f82011682018060405250810190614666919061594f565b506001600160a01b038316600090815260cc60205260409020541580156146a657506001600160a01b038316600090815260cc6020526040902060010154155b156146ba576146b8335b60cd906149e1565b505b806001600160a01b0316836001600160a01b03167ff7a40077ff7a04c7e61f6f26fb13774259ddf1b6bce9ecf26a8276cdd3992683846040516146ff91815260200190565b60405180910390a3505050565b600054610100900460ff166147335760405162461bcd60e51b815260040161086b90615971565b6112ea6149f6565b600054610100900460ff166112ea5760405162461bcd60e51b815260040161086b90615971565b61476a61429a565b6033805460ff191660011790557f62e78cea01bee320cd4e420270b5ea74000d11b0c9f74754ebdbfc544b05a2586143b03390565b60006143e3836001600160a01b038416614a29565b8015806147c557506362ba5a1f8110155b156147cf5761485b565b60006147df826362ba5a1f615783565b905060006147ed8585611df1565b9050806147f981615724565b91508290506201518061481483670de0b6b3a76400006157b2565b61481e91906157d1565b61482891906157b2565b6001600160a01b038716600090815260cc60205260408120600101805490919061485390849061579a565b909155505050505b50505050565b6001600160a01b038116600090815260cc60205260409020541580156148a057506001600160a01b038116600090815260cc6020526040902060010154155b15610cbd57610aba336146b0565b6148b88282611f9c565b610aba576148d0816001600160a01b03166014614a78565b6148db836020614a78565b6040516020016148ec9291906159e8565b60408051601f198184030181529082905262461bcd60e51b825261086b91600401615a5d565b60335460ff166112ea5760405162461bcd60e51b815260206004820152601460248201527314185d5cd8589b194e881b9bdd081c185d5cd95960621b604482015260640161086b565b6000826000018281548110614972576149726156f8565b9060005260206000200154905092915050565b6060816000018054806020026020016040519081016040528092919081815260200182805480156149d557602002820191906000526020600020905b8154815260200190600101908083116149c1575b50505050509050919050565b60006143e3836001600160a01b038416614c13565b600054610100900460ff16614a1d5760405162461bcd60e51b815260040161086b90615971565b6033805460ff19169055565b6000818152600183016020526040812054614a7057508154600181810184556000848152602080822090930184905584548482528286019093526040902091909155610757565b506000610757565b60606000614a878360026157b2565b614a9290600261579a565b6001600160401b03811115614aa957614aa9614e27565b6040519080825280601f01601f191660200182016040528015614ad3576020820181803683370190505b509050600360fc1b81600081518110614aee57614aee6156f8565b60200101906001600160f81b031916908160001a905350600f60fb1b81600181518110614b1d57614b1d6156f8565b60200101906001600160f81b031916908160001a9053506000614b418460026157b2565b614b4c90600161579a565b90505b6001811115614bc4576f181899199a1a9b1b9c1cb0b131b232b360811b85600f1660108110614b8057614b806156f8565b1a60f81b828281518110614b9657614b966156f8565b60200101906001600160f81b031916908160001a90535060049490941c93614bbd81615a90565b9050614b4f565b5083156143e35760405162461bcd60e51b815260206004820181905260248201527f537472696e67733a20686578206c656e67746820696e73756666696369656e74604482015260640161086b565b60008181526001830160205260408120548015614cfc576000614c37600183615783565b8554909150600090614c4b90600190615783565b9050818114614cb0576000866000018281548110614c6b57614c6b6156f8565b9060005260206000200154905080876000018481548110614c8e57614c8e6156f8565b6000918252602080832090910192909255918252600188019052604090208390555b8554869080614cc157614cc1615aa7565b600190038181906000526020600020016000905590558560010160008681526020019081526020016000206000905560019350505050610757565b6000915050610757565b6040518060e0016040528060006001600160a01b031681526020016000815260200160008152602001600081526020016000815260200160008152602001600081525090565b5080546000825590600052602060002090810190610cbd9190614d8b565b5080546000825560030290600052602060002090810190610cbd9190614da4565b5b80821115614da05760008155600101614d8c565b5090565b5b80821115614da05780546001600160a01b03191681556000600182018190556002820155600301614da5565b600060208284031215614de357600080fd5b81356001600160e01b0319811681146143e357600080fd5b600080600060608486031215614e1057600080fd5b505081359360208301359350604090920135919050565b634e487b7160e01b600052604160045260246000fd5b604051601f8201601f191681016001600160401b0381118282101715614e6557614e65614e27565b604052919050565b60006001600160401b03821115614e8657614e86614e27565b5060051b60200190565b6001600160a01b0381168114610cbd57600080fd5b600082601f830112614eb657600080fd5b81356020614ecb614ec683614e6d565b614e3d565b82815260059290921b84018101918181019086841115614eea57600080fd5b8286015b84811015614f0e578035614f0181614e90565b8352918301918301614eee565b509695505050505050565b600082601f830112614f2a57600080fd5b81356020614f3a614ec683614e6d565b82815260059290921b84018101918181019086841115614f5957600080fd5b8286015b84811015614f0e5780358352918301918301614f5d565b600080600080600060a08688031215614f8c57600080fd5b85356001600160401b0380821115614fa357600080fd5b614faf89838a01614ea5565b96506020880135915080821115614fc557600080fd5b614fd189838a01614f19565b95506040880135915080821115614fe757600080fd5b614ff389838a01614ea5565b9450606088013591508082111561500957600080fd5b61501589838a01614f19565b9350608088013591508082111561502b57600080fd5b5061503888828901614f19565b9150509295509295909350565b60008060008060006080868803121561505d57600080fd5b853561506881614e90565b9450602086013561507881614e90565b93506040860135925060608601356001600160401b038082111561509b57600080fd5b818801915088601f8301126150af57600080fd5b8135818111156150be57600080fd5b8960208285010111156150d057600080fd5b9699959850939650602001949392505050565b600080604083850312156150f657600080fd5b82356001600160401b038082111561510d57600080fd5b61511986838701614ea5565b9350602085013591508082111561512f57600080fd5b5061513c85828601614f19565b9150509250929050565b60008060006060848603121561515b57600080fd5b833561516681614e90565b9250602084013561517681614e90565b929592945050506040919091013590565b80516001600160a01b031682526020808201519083015260408082015190830152606080820151908301526080808201519083015260a0818101519083015260c090810151910152565b60e081016107578284615187565b6000602082840312156151f157600080fd5b5035919050565b6000806040838503121561520b57600080fd5b82359150602083013561521d81614e90565b809150509250929050565b60008060006060848603121561523d57600080fd5b833561524881614e90565b95602085013595506040909401359392505050565b60006020828403121561526f57600080fd5b81356143e381614e90565b600081518084526020808501945080840160005b838110156152c957815180516001600160a01b031688528381015184890152604090810151908801526060909601959082019060010161528e565b509495945050505050565b600081518084526020808501945080840160005b838110156152c9578151875295820195908201906001016152e8565b606080825284519082018190526000906020906080840190828801845b828110156153465781516001600160a01b031684529284019290840190600101615321565b50505083810382850152855180825282820190600581901b8301840188850160005b8381101561539657601f1986840301855261538483835161527a565b94870194925090860190600101615368565b505086810360408801526153aa81896152d4565b9a9950505050505050505050565b600080604083850312156153cb57600080fd5b82356153d681614e90565b946020939093013593505050565b600080600080600060a086880312156153fc57600080fd5b853561540781614e90565b945060208601359350604086013561541e81614e90565b94979396509394606081013594506080013592915050565b6020815260006143e360208301846152d4565b6020808252825182820181905260009190848201906040850190845b8181101561548b57615478838551615187565b9284019260e09290920191600101615465565b50909695505050505050565b60008060008060008060c087890312156154b057600080fd5b86356154bb81614e90565b955060208701356154cb81614e90565b9450604087013593506060870135925060808701356001600160401b03808211156154f557600080fd5b6155018a838b01614f19565b935060a089013591508082111561551757600080fd5b5061552489828a01614f19565b9150509295509295509295565b6000806000806080858703121561554757600080fd5b843561555281614e90565b9350602085013561556281614e90565b93969395505050506040820135916060013590565b60008060006060848603121561558c57600080fd5b83356001600160401b03808211156155a357600080fd5b6155af87838801614f19565b945060208601359150808211156155c557600080fd5b6155d187838801614f19565b935060408601359150808211156155e757600080fd5b506155f486828701614f19565b9150509250925092565b6000806000806080858703121561561457600080fd5b84356001600160401b038082111561562b57600080fd5b61563788838901614ea5565b9550602087013591508082111561564d57600080fd5b61565988838901614f19565b9450604087013591508082111561566f57600080fd5b61567b88838901614f19565b9350606087013591508082111561569157600080fd5b5061569e87828801614f19565b91505092959194509250565b6020815260006143e3602083018461527a565b600080600080608085870312156156d357600080fd5b84356156de81614e90565b966020860135965060408601359560600135945092505050565b634e487b7160e01b600052603260045260246000fd5b634e487b7160e01b600052601160045260246000fd5b60006000198214156157385761573861570e565b5060010190565b60208082526024908201527f6164647265737320636f756e74206d757374206d6174636820746f6b656e20636040820152631bdd5b9d60e21b606082015260800190565b6000828210156157955761579561570e565b500390565b600082198211156157ad576157ad61570e565b500190565b60008160001904831182151516156157cc576157cc61570e565b500290565b6000826157ee57634e487b7160e01b600052601260045260246000fd5b500490565b60006020828403121561580557600080fd5b81516143e381614e90565b6020808252600a9082015269139bdd081cdd185ad95960b21b604082015260600190565b6001600160a01b0394909416845260208401929092526040830152606082015260800190565b60006020828403121561586c57600080fd5b5051919050565b6020808252600c908201526b139bdd081d5b9b1bd8dad95960a21b604082015260600190565b60208082526028908201527f6d6178506f696e7473506572536b696c6c206d75737420626520677265617465604082015267072207468616e20360c41b606082015260800190565b6020808252602a908201527f737461727454696d65206d7573742062652061206675747572652074696d6520604082015269696e207365636f6e647360b01b606082015260800190565b6001600160a01b039384168152919092166020820152604081019190915260600190565b60006020828403121561596157600080fd5b815180151581146143e357600080fd5b6020808252602b908201527f496e697469616c697a61626c653a20636f6e7472616374206973206e6f74206960408201526a6e697469616c697a696e6760a81b606082015260800190565b60005b838110156159d75781810151838201526020016159bf565b8381111561485b5750506000910152565b7f416363657373436f6e74726f6c3a206163636f756e7420000000000000000000815260008351615a208160178501602088016159bc565b7001034b99036b4b9b9b4b733903937b6329607d1b6017918401918201528351615a518160288401602088016159bc565b01602801949350505050565b6020815260008251806020840152615a7c8160408501602087016159bc565b601f01601f19169190910160400192915050565b600081615a9f57615a9f61570e565b506000190190565b634e487b7160e01b600052603160045260246000fdfe73e573f9566d61418a34d5de3ff49360f9c51fec37f7486551670290f6285dab65d7a28e3265b37a6474929f336521b332c1681b933f6cb9f3376673440d862aa2646970667358221220af75f45aa92559d37bee28fc638a5f446a37b8609d2423d06e185b3d4787bf5864736f6c63430008090033",
  "linkReferences": {},
  "deployedLinkReferences": {}
}