{
  "_format": "hh-sol-artifact-1",
  "contractName": "CosmicElvesMinter",
  "sourceName": "contracts/upgradeable/npc/CosmicElvesMinter.sol",
  "abi": [
    {
      "inputs": [],
      "stateMutability": "nonpayable",
      "type": "constructor"
    },
    {
      "inputs": [
        {
          "internalType": "address",
          "name": "have",
          "type": "address"
        },
        {
          "internalType": "address",
          "name": "want",
          "type": "address"
        }
      ],
      "name": "OnlyCoordinatorCanFulfill",
      "type": "error"
    },
    {
      "anonymous": false,
      "inputs": [
        {
          "indexed": false,
          "internalType": "uint8",
          "name": "version",
          "type": "uint8"
        }
      ],
      "name": "Initialized",
      "type": "event"
    },
    {
      "anonymous": false,
      "inputs": [
        {
          "indexed": false,
          "internalType": "address",
          "name": "account",
          "type": "address"
        }
      ],
      "name": "Paused",
      "type": "event"
    },
    {
      "anonymous": false,
      "inputs": [
        {
          "indexed": true,
          "internalType": "bytes32",
          "name": "role",
          "type": "bytes32"
        },
        {
          "indexed": true,
          "internalType": "bytes32",
          "name": "previousAdminRole",
          "type": "bytes32"
        },
        {
          "indexed": true,
          "internalType": "bytes32",
          "name": "newAdminRole",
          "type": "bytes32"
        }
      ],
      "name": "RoleAdminChanged",
      "type": "event"
    },
    {
      "anonymous": false,
      "inputs": [
        {
          "indexed": true,
          "internalType": "bytes32",
          "name": "role",
          "type": "bytes32"
        },
        {
          "indexed": true,
          "internalType": "address",
          "name": "account",
          "type": "address"
        },
        {
          "indexed": true,
          "internalType": "address",
          "name": "sender",
          "type": "address"
        }
      ],
      "name": "RoleGranted",
      "type": "event"
    },
    {
      "anonymous": false,
      "inputs": [
        {
          "indexed": true,
          "internalType": "bytes32",
          "name": "role",
          "type": "bytes32"
        },
        {
          "indexed": true,
          "internalType": "address",
          "name": "account",
          "type": "address"
        },
        {
          "indexed": true,
          "internalType": "address",
          "name": "sender",
          "type": "address"
        }
      ],
      "name": "RoleRevoked",
      "type": "event"
    },
    {
      "anonymous": false,
      "inputs": [
        {
          "indexed": false,
          "internalType": "address",
          "name": "account",
          "type": "address"
        }
      ],
      "name": "Unpaused",
      "type": "event"
    },
    {
      "inputs": [],
      "name": "ADMIN_ROLE",
      "outputs": [
        {
          "internalType": "bytes32",
          "name": "",
          "type": "bytes32"
        }
      ],
      "stateMutability": "view",
      "type": "function"
    },
    {
      "inputs": [],
      "name": "CONTRACT_ROLE",
      "outputs": [
        {
          "internalType": "bytes32",
          "name": "",
          "type": "bytes32"
        }
      ],
      "stateMutability": "view",
      "type": "function"
    },
    {
      "inputs": [],
      "name": "DEFAULT_ADMIN_ROLE",
      "outputs": [
        {
          "internalType": "bytes32",
          "name": "",
          "type": "bytes32"
        }
      ],
      "stateMutability": "view",
      "type": "function"
    },
    {
      "inputs": [],
      "name": "ELVES",
      "outputs": [
        {
          "internalType": "contract ICosmicElves",
          "name": "",
          "type": "address"
        }
      ],
      "stateMutability": "view",
      "type": "function"
    },
    {
      "inputs": [],
      "name": "ETICKET",
      "outputs": [
        {
          "internalType": "contract ICosmicElvesTicket",
          "name": "",
          "type": "address"
        }
      ],
      "stateMutability": "view",
      "type": "function"
    },
    {
      "inputs": [],
      "name": "LMAGIC",
      "outputs": [
        {
          "internalType": "contract IlMagic",
          "name": "",
          "type": "address"
        }
      ],
      "stateMutability": "view",
      "type": "function"
    },
    {
      "inputs": [],
      "name": "TEAM_ROLE",
      "outputs": [
        {
          "internalType": "bytes32",
          "name": "",
          "type": "bytes32"
        }
      ],
      "stateMutability": "view",
      "type": "function"
    },
    {
      "inputs": [],
      "name": "USDC",
      "outputs": [
        {
          "internalType": "contract IERC20Upgradeable",
          "name": "",
          "type": "address"
        }
      ],
      "stateMutability": "view",
      "type": "function"
    },
    {
      "inputs": [
        {
          "internalType": "uint256",
          "name": "count",
          "type": "uint256"
        },
        {
          "internalType": "enum CosmicElvesMinter.Method",
          "name": "method",
          "type": "uint8"
        },
        {
          "internalType": "uint256[]",
          "name": "tickets",
          "type": "uint256[]"
        }
      ],
      "name": "buy",
      "outputs": [],
      "stateMutability": "nonpayable",
      "type": "function"
    },
    {
      "inputs": [],
      "name": "cap",
      "outputs": [
        {
          "internalType": "uint256",
          "name": "",
          "type": "uint256"
        }
      ],
      "stateMutability": "view",
      "type": "function"
    },
    {
      "inputs": [],
      "name": "getBlacklisted",
      "outputs": [
        {
          "internalType": "address[]",
          "name": "",
          "type": "address[]"
        }
      ],
      "stateMutability": "view",
      "type": "function"
    },
    {
      "inputs": [
        {
          "internalType": "bytes32",
          "name": "role",
          "type": "bytes32"
        }
      ],
      "name": "getRoleAdmin",
      "outputs": [
        {
          "internalType": "bytes32",
          "name": "",
          "type": "bytes32"
        }
      ],
      "stateMutability": "view",
      "type": "function"
    },
    {
      "inputs": [
        {
          "internalType": "bytes32",
          "name": "role",
          "type": "bytes32"
        },
        {
          "internalType": "uint256",
          "name": "index",
          "type": "uint256"
        }
      ],
      "name": "getRoleMember",
      "outputs": [
        {
          "internalType": "address",
          "name": "",
          "type": "address"
        }
      ],
      "stateMutability": "view",
      "type": "function"
    },
    {
      "inputs": [
        {
          "internalType": "bytes32",
          "name": "role",
          "type": "bytes32"
        }
      ],
      "name": "getRoleMemberCount",
      "outputs": [
        {
          "internalType": "uint256",
          "name": "",
          "type": "uint256"
        }
      ],
      "stateMutability": "view",
      "type": "function"
    },
    {
      "inputs": [
        {
          "internalType": "bytes32",
          "name": "role",
          "type": "bytes32"
        },
        {
          "internalType": "address",
          "name": "account",
          "type": "address"
        }
      ],
      "name": "grantRole",
      "outputs": [],
      "stateMutability": "nonpayable",
      "type": "function"
    },
    {
      "inputs": [
        {
          "internalType": "bytes32",
          "name": "role",
          "type": "bytes32"
        },
        {
          "internalType": "address",
          "name": "account",
          "type": "address"
        }
      ],
      "name": "hasRole",
      "outputs": [
        {
          "internalType": "bool",
          "name": "",
          "type": "bool"
        }
      ],
      "stateMutability": "view",
      "type": "function"
    },
    {
      "inputs": [],
      "name": "initialize",
      "outputs": [],
      "stateMutability": "nonpayable",
      "type": "function"
    },
    {
      "inputs": [
        {
          "internalType": "address",
          "name": "user",
          "type": "address"
        }
      ],
      "name": "isBlacklisted",
      "outputs": [
        {
          "internalType": "bool",
          "name": "",
          "type": "bool"
        }
      ],
      "stateMutability": "view",
      "type": "function"
    },
    {
      "inputs": [],
      "name": "lastTokenId",
      "outputs": [
        {
          "internalType": "uint256",
          "name": "",
          "type": "uint256"
        }
      ],
      "stateMutability": "view",
      "type": "function"
    },
    {
      "inputs": [
        {
          "internalType": "uint256",
          "name": "count",
          "type": "uint256"
        }
      ],
      "name": "mint",
      "outputs": [],
      "stateMutability": "nonpayable",
      "type": "function"
    },
    {
      "inputs": [],
      "name": "paused",
      "outputs": [
        {
          "internalType": "bool",
          "name": "",
          "type": "bool"
        }
      ],
      "stateMutability": "view",
      "type": "function"
    },
    {
      "inputs": [
        {
          "internalType": "address",
          "name": "user",
          "type": "address"
        }
      ],
      "name": "pendingMintsOf",
      "outputs": [
        {
          "internalType": "uint256[]",
          "name": "",
          "type": "uint256[]"
        },
        {
          "internalType": "bool",
          "name": "",
          "type": "bool"
        }
      ],
      "stateMutability": "view",
      "type": "function"
    },
    {
      "inputs": [],
      "name": "pricelMAGIC",
      "outputs": [
        {
          "internalType": "uint256",
          "name": "",
          "type": "uint256"
        }
      ],
      "stateMutability": "view",
      "type": "function"
    },
    {
      "inputs": [
        {
          "internalType": "uint256",
          "name": "requestId",
          "type": "uint256"
        },
        {
          "internalType": "uint256[]",
          "name": "randomWords",
          "type": "uint256[]"
        }
      ],
      "name": "rawFulfillRandomWords",
      "outputs": [],
      "stateMutability": "nonpayable",
      "type": "function"
    },
    {
      "inputs": [
        {
          "internalType": "bytes32",
          "name": "role",
          "type": "bytes32"
        },
        {
          "internalType": "address",
          "name": "account",
          "type": "address"
        }
      ],
      "name": "renounceRole",
      "outputs": [],
      "stateMutability": "nonpayable",
      "type": "function"
    },
    {
      "inputs": [
        {
          "internalType": "bytes32",
          "name": "role",
          "type": "bytes32"
        },
        {
          "internalType": "address",
          "name": "account",
          "type": "address"
        }
      ],
      "name": "revokeRole",
      "outputs": [],
      "stateMutability": "nonpayable",
      "type": "function"
    },
    {
      "inputs": [
        {
          "internalType": "uint256",
          "name": "gender",
          "type": "uint256"
        },
        {
          "internalType": "uint256",
          "name": "attribute",
          "type": "uint256"
        },
        {
          "internalType": "uint256[]",
          "name": "weights",
          "type": "uint256[]"
        }
      ],
      "name": "setAttributeWeights",
      "outputs": [],
      "stateMutability": "nonpayable",
      "type": "function"
    },
    {
      "inputs": [
        {
          "internalType": "uint256",
          "name": "gender",
          "type": "uint256"
        },
        {
          "internalType": "uint256[]",
          "name": "attributes",
          "type": "uint256[]"
        },
        {
          "internalType": "uint256[][]",
          "name": "weights",
          "type": "uint256[][]"
        }
      ],
      "name": "setAttributesWeights",
      "outputs": [],
      "stateMutability": "nonpayable",
      "type": "function"
    },
    {
      "inputs": [
        {
          "internalType": "uint256",
          "name": "dollarOfLMagic",
          "type": "uint256"
        }
      ],
      "name": "setLMagicPrice",
      "outputs": [],
      "stateMutability": "nonpayable",
      "type": "function"
    },
    {
      "inputs": [
        {
          "internalType": "uint256",
          "name": "total",
          "type": "uint256"
        }
      ],
      "name": "setTotalElvesTickets",
      "outputs": [],
      "stateMutability": "nonpayable",
      "type": "function"
    },
    {
      "inputs": [],
      "name": "startTime",
      "outputs": [
        {
          "internalType": "uint256",
          "name": "",
          "type": "uint256"
        }
      ],
      "stateMutability": "view",
      "type": "function"
    },
    {
      "inputs": [
        {
          "internalType": "bytes4",
          "name": "interfaceId",
          "type": "bytes4"
        }
      ],
      "name": "supportsInterface",
      "outputs": [
        {
          "internalType": "bool",
          "name": "",
          "type": "bool"
        }
      ],
      "stateMutability": "view",
      "type": "function"
    },
    {
      "inputs": [],
      "name": "treasury",
      "outputs": [
        {
          "internalType": "address",
          "name": "",
          "type": "address"
        }
      ],
      "stateMutability": "view",
      "type": "function"
    }
  ],
  "bytecode": "0x60806040523480156200001157600080fd5b506200001c62000022565b620000e4565b600054610100900460ff16156200008f5760405162461bcd60e51b815260206004820152602760248201527f496e697469616c697a61626c653a20636f6e747261637420697320696e697469604482015266616c697a696e6760c81b606482015260840160405180910390fd5b60005460ff9081161015620000e2576000805460ff191660ff9081179091556040519081527f7f26b83ff96e1f2b6a682f133852f6798a09c465da95921460cefb38474024989060200160405180910390a15b565b612a8280620000f46000396000f3fe608060405234801561001057600080fd5b50600436106101fb5760003560e01c806389a302711161011a578063ca15c873116100ad578063e08e63ac1161007c578063e08e63ac1461046d578063f01712021461048e578063f714bc7d146104a9578063f84ddf0b146104bc578063fe575a87146104c457600080fd5b8063ca15c87314610417578063ce3675ad1461042a578063d27e10e41461043f578063d547741f1461045a57600080fd5b8063a217fddf116100e9578063a217fddf146103ce578063bf6df5c2146103d6578063c17883d6146103e9578063c33d3fb0146103fc57600080fd5b806389a302711461037a5780639010d07c1461039557806391d14854146103a8578063a0712d68146103bb57600080fd5b806349d5e6041161019257806375b238fc1161016157806375b238fc146103405780637898f2f51461035557806378e97925146103685780638129fc1c1461037257600080fd5b806349d5e604146102cf5780635c975abb146102f65780635edde15d1461030157806361d027b31461031457600080fd5b8063248a9ca3116101ce578063248a9ca31461027c5780632f2ff15d1461029f578063355274ea146102b257806336568abe146102bc57600080fd5b806301ffc9a71461020057806303fe46ab14610228578063098986361461025d5780631fe543e314610267575b600080fd5b61021361020e3660046122a8565b6104d7565b60405190151581526020015b60405180910390f35b61024f7f364d3d7565c7a8300c96fd53e065d19b65848d7b23b3191adcd55621c744223c81565b60405190815260200161021f565b61024f6101935481565b61027a6102753660046123a8565b610502565b005b61024f61028a3660046123ef565b60009081526097602052604090206001015490565b61027a6102ad366004612424565b610555565b61024f6101925481565b61027a6102ca366004612424565b61057f565b61024f7f5146a08baf902532d0ee2f909971144f12ca32651cd70cbee1117cddfb3b3b3381565b60335460ff16610213565b61027a61030f366004612450565b6105f9565b61019454610328906001600160a01b031681565b6040516001600160a01b03909116815260200161021f565b61024f600080516020612a2d83398151915281565b61027a6103633660046123ef565b610d62565b61024f6101915481565b61027a610da0565b61032873b97ef9ef8734c71904d8002f8b6bc66dd9c48a6e81565b6103286103a33660046124ad565b611019565b6102136103b6366004612424565b611038565b61027a6103c93660046123ef565b611063565b61024f600081565b61027a6103e43660046123ef565b611428565b61027a6103f73660046124cf565b611447565b610328739a337a6f883de95f49e05cd7d801d475a40a9c7081565b61024f6104253660046123ef565b61153f565b610432611556565b60405161021f9190612509565b610328738eebacabd19b84aae85821e9ffa5452b096e769d81565b61027a610468366004612424565b611568565b61048061047b366004612556565b61158d565b60405161021f9291906125ac565b6103287387d0f9ff4b51eefe9f5f1578bc35e4dda28bbd1e81565b61027a6104b73660046125d0565b61160b565b61024f611685565b6102136104d2366004612556565b611691565b60006001600160e01b03198216635a05180f60e01b14806104fc57506104fc8261169f565b92915050565b60fb546001600160a01b031633146105475760fb5460405163073e64fd60e21b81523360048201526001600160a01b0390911660248201526044015b60405180910390fd5b61055182826116d4565b5050565b6000828152609760205260409020600101546105708161170e565b61057a8383611718565b505050565b6001600160a01b03811633146105ef5760405162461bcd60e51b815260206004820152602f60248201527f416363657373436f6e74726f6c3a2063616e206f6e6c792072656e6f756e636560448201526e103937b632b9903337b91039b2b63360891b606482015260840161053e565b610551828261173a565b61060161175c565b61019154421015806106265750610626600080516020612a2d83398151915233611038565b8061065657506106567f5146a08baf902532d0ee2f909971144f12ca32651cd70cbee1117cddfb3b3b3333611038565b6106995760405162461bcd60e51b8152602060048201526014602482015273135a5b9d081a185cc81b9bdd081cdd185c9d195960621b604482015260640161053e565b336000908152610195602052604090206001810154156106fb5760405162461bcd60e51b815260206004820152601960248201527f4578697374696e67206d696e7420696e2070726f677265737300000000000000604482015260640161053e565b600084116107405760405162461bcd60e51b8152602060048201526012602482015271135a5b9a5b5d5b480c481c195c881b5a5b9d60721b604482015260640161053e565b60328411156107875760405162461bcd60e51b815260206004820152601360248201527213585e1a5b5d5b480d4c081c195c881b5a5b9d606a1b604482015260640161053e565b83825111156107e65760405162461bcd60e51b815260206004820152602560248201527f5469636b657420636f756e742063616e6e6f7420657863656564206d696e742060448201526418dbdd5b9d60da1b606482015260840161053e565b60006107f26101a05490565b90506101925481106108315760405162461bcd60e51b815260206004820152600860248201526714dbdb19081bdd5d60c21b604482015260640161053e565b6101925461083f86836126c7565b111561088d5760405162461bcd60e51b815260206004820152601b60248201527f496e73756666696369656e742072656d61696e696e67204e4654730000000000604482015260640161053e565b60006101915462093a806108a191906126c7565b42116108be5761019f5461019e546108b991906126da565b6108c1565b60005b90508582828651610192546108d691906126c7565b6108e091906126da565b6108ea91906126da565b10156109475760405162461bcd60e51b815260206004820152602660248201527f496e73756666696369656e7420756e7265736572766564204e4654732072656d60448201526561696e696e6760d01b606482015260840161053e565b6000600186600181111561095d5761095d6126ed565b1461096b5761019b54610970565b610193545b604051631e9d710160e01b815290915060009081907387d0f9ff4b51eefe9f5f1578bc35e4dda28bbd1e90631e9d7101906109af908a90600401612703565b600060405180830381865afa1580156109cc573d6000803e3d6000fd5b505050506040513d6000823e601f3d908101601f191682016040526109f49190810190612716565b905060005b8151811015610ae8577387d0f9ff4b51eefe9f5f1578bc35e4dda28bbd1e6001600160a01b03166342966c68898381518110610a3757610a376127a7565b60200260200101516040518263ffffffff1660e01b8152600401610a5d91815260200190565b600060405180830381600087803b158015610a7757600080fd5b505af1158015610a8b573d6000803e3d6000fd5b50505050606484838381518110610aa457610aa46127a7565b6020026020010151610ab691906127bd565b610ac091906127f2565b610aca90856126da565b610ad490846126c7565b925080610ae081612806565b9150506109f9565b50805161019f6000828254610afd91906126c7565b90915550508651891115610b2e578651610b17908a6126da565b610b2190846127bd565b610b2b90836126c7565b91505b6001886001811115610b4257610b426126ed565b03610be057738eebacabd19b84aae85821e9ffa5452b096e769d6379cc6790336040516001600160e01b031960e084901b1681526001600160a01b03909116600482015260248101859052604401600060405180830381600087803b158015610baa57600080fd5b505af1158015610bbe573d6000803e3d6000fd5b505050508161019d6000828254610bd591906126c7565b90915550610c919050565b73b97ef9ef8734c71904d8002f8b6bc66dd9c48a6e6323b872dd336101945460405160e084901b6001600160e01b03191681526001600160a01b03928316600482015291166024820152604481018590526064016020604051808303816000875af1158015610c53573d6000803e3d6000fd5b505050506040513d601f19601f82011682018060405250810190610c77919061281f565b508161019c6000828254610c8b91906126c7565b90915550505b3360009081526101976020526040812080548b9290610cb19084906126c7565b90915550503360009081526101976020526040902054600311610cdc57610cda610199336117a4565b505b610ce5896117b9565b6001870181905560009081526101966020526040812080546001600160a01b031916331790555b89811015610d5657610d236101a080546001019055565b86610d2e6101a05490565b8154600181018355600092835260209092209091015580610d4e81612806565b915050610d0c565b50505050505050505050565b7f364d3d7565c7a8300c96fd53e065d19b65848d7b23b3191adcd55621c744223c610d8c8161170e565b610d98826101f46127bd565b610193555050565b600054610100900460ff1615808015610dc05750600054600160ff909116105b80610dda5750303b158015610dda575060005460ff166001145b610e3d5760405162461bcd60e51b815260206004820152602e60248201527f496e697469616c697a61626c653a20636f6e747261637420697320616c72656160448201526d191e481a5b9a5d1a585b1a5e995960921b606482015260840161053e565b6000805460ff191660011790558015610e60576000805461ff0019166101001790555b610e68611883565b610e706118b2565b73d5d517abe5cf79b7e95ec98db0f0277788aff6347f83250c5584ffa93feb6ee082981c5ebe484c865196750b39835ad4f13780435d601b6003610eb6848484846118d9565b610ec1600033611718565b610ed9600080516020612a2d83398151915233611718565b610f037f364d3d7565c7a8300c96fd53e065d19b65848d7b23b3191adcd55621c744223c33611718565b63630aa1f06101915561019480546001600160a01b03191673d2578a0b2631e591890f28499e9e8d73f21e5895179055630ee6b28061019b5569d3c21bcecceda100000061019355612710610192556040805163f84ddf0b60e01b815290517387d0f9ff4b51eefe9f5f1578bc35e4dda28bbd1e9163f84ddf0b9160048083019260209291908290030181865afa158015610fa2573d6000803e3d6000fd5b505050506040513d601f19601f82011682018060405250810190610fc69190612841565b61019e555050821591506110169050576000805461ff0019169055604051600181527f7f26b83ff96e1f2b6a682f133852f6798a09c465da95921460cefb38474024989060200160405180910390a15b50565b600082815260c960205260408120611031908361191b565b9392505050565b60009182526097602090815260408084206001600160a01b0393909316845291905290205460ff1690565b3360009081526101956020526040902060018101546110b65760405162461bcd60e51b815260206004820152600f60248201526e139bc81c195b991a5b99c81b5a5b9d608a1b604482015260640161053e565b60028101546110ff5760405162461bcd60e51b8152602060048201526015602482015274526573756c7473207374696c6c2070656e64696e6760581b604482015260640161053e565b80548210156111455760405162461bcd60e51b8152602060048201526012602482015271125b9d985b1a59081b5a5b9d0818dbdd5b9d60721b604482015260640161053e565b60408051600b80825261018082019092526000916060918291849190602082016101608036833701905050905060005b600b8110156111ae5780828281518110611191576111916127a7565b6020908102919091010152806111a681612806565b915050611175565b5060005b85548110156113945760008660000182815481106111d2576111d26127a7565b9060005260206000200154905087821061125557808587815181106111f9576111f96127a7565b60200260200101818152505086600201828154811061121a5761121a6127a7565b9060005260206000200154848781518110611237576112376127a7565b60209081029190910101528561124c81612806565b96505050611382565b600061128488600201848154811061126f5761126f6127a7565b9060005260206000200154612710600b611927565b90506000611291826119d2565b9050739a337a6f883de95f49e05cd7d801d475a40a9c706340c10f19336040516001600160e01b031960e084901b1681526001600160a01b03909116600482015260248101869052604401600060405180830381600087803b1580156112f657600080fd5b505af115801561130a573d6000803e3d6000fd5b505060405163e2862b6b60e01b8152739a337a6f883de95f49e05cd7d801d475a40a9c70925063e2862b6b915061134c9086906000908a90879060040161285a565b600060405180830381600087803b15801561136657600080fd5b505af115801561137a573d6000803e3d6000fd5b505050505050505b8061138c81612806565b9150506111b2565b508251156113ca5782516113ae908690602086019061222e565b5081516113c4906002870190602085019061222e565b50611420565b600185015460009081526101966020908152604080832080546001600160a01b03191690553383526101959091528120906114058282612279565b600182016000905560028201600061141d9190612279565b50505b505050505050565b600080516020612a2d8339815191526114408161170e565b5061019e55565b600080516020612a2d83398151915261145f8161170e565b815167ffffffffffffffff811115611479576114796122d2565b6040519080825280602002602001820160405280156114a2578160200160208202803683370190505b50600085815261019860209081526040808320878452825290912082516114cf939192919091019061222e565b506000848152610198602090815260408083208684529091528120905b835181101561142057838181518110611507576115076127a7565b6020026020010151828281548110611521576115216127a7565b6000918252602090912001558061153781612806565b9150506114ec565b600081815260c9602052604081206104fc90611b93565b606061156361015e611b9d565b905090565b6000828152609760205260409020600101546115838161170e565b61057a838361173a565b6001600160a01b03811660009081526101956020908152604080832060028101548154835181860281018601909452808452606095949293911515928491908301828280156115fb57602002820191906000526020600020905b8154815260200190600101908083116115e7575b5050505050915091509150915091565b600080516020612a2d8339815191526116238161170e565b60005b835181101561167e5761166c85858381518110611645576116456127a7565b602002602001015185848151811061165f5761165f6127a7565b6020026020010151611447565b8061167681612806565b915050611626565b5050505050565b60006115636101a05490565b60006104fc61015e83611baa565b60006001600160e01b03198216637965db0b60e01b14806104fc57506301ffc9a760e01b6001600160e01b03198316146104fc565b600082815261019660209081526040808320546001600160a01b031683526101958252909120825161057a9260029092019184019061222e565b6110168133611bcc565b6117228282611c30565b600082815260c96020526040902061057a90826117a4565b6117448282611cb6565b600082815260c96020526040902061057a9082611d1d565b60335460ff16156117a25760405162461bcd60e51b815260206004820152601060248201526f14185d5cd8589b194e881c185d5cd95960821b604482015260640161053e565b565b6000611031836001600160a01b038416611d32565b6000806117c883614e2061288b565b6117d590620186a06128b7565b61012d5461012e5461012f546040516305d3b1d360e41b8152600481019290925267ffffffffffffffff81166024830152600160401b900461ffff16604482015263ffffffff8084166064830152861660848201529192506001600160a01b031690635d3b1d309060a4016020604051808303816000875af115801561185f573d6000803e3d6000fd5b505050506040513d601f19601f820116820180604052508101906110319190612841565b600054610100900460ff166118aa5760405162461bcd60e51b815260040161053e906128d4565b6117a2611d81565b600054610100900460ff166117a25760405162461bcd60e51b815260040161053e906128d4565b600054610100900460ff166119005760405162461bcd60e51b815260040161053e906128d4565b61190984611db4565b61191584848484611de4565b50505050565b60006110318383611e67565b606060008267ffffffffffffffff811115611944576119446122d2565b60405190808252806020026020018201604052801561196d578160200160208202803683370190505b5090508460005b848110156119c7576000611988878461291f565b905061199487846127f2565b9250808483815181106119a9576119a96127a7565b602090810291909101015250806119bf81612806565b915050611974565b509095945050505050565b60408051600b80825261018082019092526060916000919060208201610160803683370190505060008080527f4423f7c6e52e9185383a9cf02b7a6886e99ba21d91d7a83c121c6d17c40c5b7960209081527fc9411a5902f24ec13f1970edfefe927670fe107a4777ae5a11b056949e223754805460408051828502810185019091528181529495509293611ab7939092830182828015611a9257602002820191906000526020600020905b815481526020019060010190808311611a7e575b505050505085600081518110611aaa57611aaa6127a7565b6020026020010151611e91565b90508082600081518110611acd57611acd6127a7565b602090810291909101015260015b600b811015611b8a576000828152610198602090815260408083208484528252918290208054835181840281018401909452808452611b5b9392830182828015611b4457602002820191906000526020600020905b815481526020019060010190808311611b30575b5050505050868381518110611aaa57611aaa6127a7565b838281518110611b6d57611b6d6127a7565b602090810291909101015280611b8281612806565b915050611adb565b50909392505050565b60006104fc825490565b6060600061103183611ef3565b6001600160a01b03811660009081526001830160205260408120541515611031565b611bd68282611038565b61055157611bee816001600160a01b03166014611f4f565b611bf9836020611f4f565b604051602001611c0a929190612957565b60408051601f198184030181529082905262461bcd60e51b825261053e916004016129cc565b611c3a8282611038565b6105515760008281526097602090815260408083206001600160a01b03851684529091529020805460ff19166001179055611c723390565b6001600160a01b0316816001600160a01b0316837f2f8788117e7eff1d82e926ec794901d17c78024a50270940304540a733656f0d60405160405180910390a45050565b611cc08282611038565b156105515760008281526097602090815260408083206001600160a01b0385168085529252808320805460ff1916905551339285917ff6391f5c32d9c69d2a47ea670b442974b53935d1edc7fd64eb21e047a839171b9190a45050565b6000611031836001600160a01b0384166120eb565b6000818152600183016020526040812054611d79575081546001818101845560008481526020808220909301849055845484825282860190935260409020919091556104fc565b5060006104fc565b600054610100900460ff16611da85760405162461bcd60e51b815260040161053e906128d4565b6033805460ff19169055565b600054610100900460ff16611ddb5760405162461bcd60e51b815260040161053e906128d4565b611016816121e5565b600054610100900460ff16611e0b5760405162461bcd60e51b815260040161053e906128d4565b61012d80546001600160a01b039095166001600160a01b03199095169490941790935561012f805461012e9390935561ffff909316600160401b0269ffffffffffffffffffff1990921667ffffffffffffffff90911617179055565b6000826000018281548110611e7e57611e7e6127a7565b9060005260206000200154905092915050565b6000805b8351811015611ee457838181518110611eb057611eb06127a7565b6020026020010151831015611ed257611eca6001826126da565b9150506104fc565b80611edc81612806565b915050611e95565b506001835161103191906126da565b606081600001805480602002602001604051908101604052809291908181526020018280548015611f4357602002820191906000526020600020905b815481526020019060010190808311611f2f575b50505050509050919050565b60606000611f5e8360026127bd565b611f699060026126c7565b67ffffffffffffffff811115611f8157611f816122d2565b6040519080825280601f01601f191660200182016040528015611fab576020820181803683370190505b509050600360fc1b81600081518110611fc657611fc66127a7565b60200101906001600160f81b031916908160001a905350600f60fb1b81600181518110611ff557611ff56127a7565b60200101906001600160f81b031916908160001a90535060006120198460026127bd565b6120249060016126c7565b90505b600181111561209c576f181899199a1a9b1b9c1cb0b131b232b360811b85600f1660108110612058576120586127a7565b1a60f81b82828151811061206e5761206e6127a7565b60200101906001600160f81b031916908160001a90535060049490941c93612095816129ff565b9050612027565b5083156110315760405162461bcd60e51b815260206004820181905260248201527f537472696e67733a20686578206c656e67746820696e73756666696369656e74604482015260640161053e565b600081815260018301602052604081205480156121d457600061210f6001836126da565b8554909150600090612123906001906126da565b9050818114612188576000866000018281548110612143576121436127a7565b9060005260206000200154905080876000018481548110612166576121666127a7565b6000918252602080832090910192909255918252600188019052604090208390555b855486908061219957612199612a16565b6001900381819060005260206000200160009055905585600101600086815260200190815260200160002060009055600193505050506104fc565b60009150506104fc565b5092915050565b600054610100900460ff1661220c5760405162461bcd60e51b815260040161053e906128d4565b60fb80546001600160a01b0319166001600160a01b0392909216919091179055565b828054828255906000526020600020908101928215612269579160200282015b8281111561226957825182559160200191906001019061224e565b50612275929150612293565b5090565b508054600082559060005260206000209081019061101691905b5b808211156122755760008155600101612294565b6000602082840312156122ba57600080fd5b81356001600160e01b03198116811461103157600080fd5b634e487b7160e01b600052604160045260246000fd5b604051601f8201601f1916810167ffffffffffffffff81118282101715612311576123116122d2565b604052919050565b600067ffffffffffffffff821115612333576123336122d2565b5060051b60200190565b600082601f83011261234e57600080fd5b8135602061236361235e83612319565b6122e8565b82815260059290921b8401810191818101908684111561238257600080fd5b8286015b8481101561239d5780358352918301918301612386565b509695505050505050565b600080604083850312156123bb57600080fd5b82359150602083013567ffffffffffffffff8111156123d957600080fd5b6123e58582860161233d565b9150509250929050565b60006020828403121561240157600080fd5b5035919050565b80356001600160a01b038116811461241f57600080fd5b919050565b6000806040838503121561243757600080fd5b8235915061244760208401612408565b90509250929050565b60008060006060848603121561246557600080fd5b8335925060208401356002811061247b57600080fd5b9150604084013567ffffffffffffffff81111561249757600080fd5b6124a38682870161233d565b9150509250925092565b600080604083850312156124c057600080fd5b50508035926020909101359150565b6000806000606084860312156124e457600080fd5b8335925060208401359150604084013567ffffffffffffffff81111561249757600080fd5b6020808252825182820181905260009190848201906040850190845b8181101561254a5783516001600160a01b031683529284019291840191600101612525565b50909695505050505050565b60006020828403121561256857600080fd5b61103182612408565b600081518084526020808501945080840160005b838110156125a157815187529582019590820190600101612585565b509495945050505050565b6040815260006125bf6040830185612571565b905082151560208301529392505050565b6000806000606084860312156125e557600080fd5b8335925060208085013567ffffffffffffffff8082111561260557600080fd5b6126118883890161233d565b9450604087013591508082111561262757600080fd5b818701915087601f83011261263b57600080fd5b813561264961235e82612319565b81815260059190911b8301840190848101908a83111561266857600080fd5b8585015b838110156126a0578035858111156126845760008081fd5b6126928d89838a010161233d565b84525091860191860161266c565b508096505050505050509250925092565b634e487b7160e01b600052601160045260246000fd5b808201808211156104fc576104fc6126b1565b818103818111156104fc576104fc6126b1565b634e487b7160e01b600052602160045260246000fd5b6020815260006110316020830184612571565b6000602080838503121561272957600080fd5b825167ffffffffffffffff81111561274057600080fd5b8301601f8101851361275157600080fd5b805161275f61235e82612319565b81815260059190911b8201830190838101908783111561277e57600080fd5b928401925b8284101561279c57835182529284019290840190612783565b979650505050505050565b634e487b7160e01b600052603260045260246000fd5b60008160001904831182151516156127d7576127d76126b1565b500290565b634e487b7160e01b600052601260045260246000fd5b600082612801576128016127dc565b500490565b600060018201612818576128186126b1565b5060010190565b60006020828403121561283157600080fd5b8151801515811461103157600080fd5b60006020828403121561285357600080fd5b5051919050565b8481528360208201526080604082015260006128796080830185612571565b828103606084015261279c8185612571565b600063ffffffff808316818516818304811182151516156128ae576128ae6126b1565b02949350505050565b63ffffffff8181168382160190808211156121de576121de6126b1565b6020808252602b908201527f496e697469616c697a61626c653a20636f6e7472616374206973206e6f74206960408201526a6e697469616c697a696e6760a81b606082015260800190565b60008261292e5761292e6127dc565b500690565b60005b8381101561294e578181015183820152602001612936565b50506000910152565b7f416363657373436f6e74726f6c3a206163636f756e742000000000000000000081526000835161298f816017850160208801612933565b7001034b99036b4b9b9b4b733903937b6329607d1b60179184019182015283516129c0816028840160208801612933565b01602801949350505050565b60208152600082518060208401526129eb816040850160208701612933565b601f01601f19169190910160400192915050565b600081612a0e57612a0e6126b1565b506000190190565b634e487b7160e01b600052603160045260246000fdfea49807205ce4d355092ef5a8a18f56e8913cf4a201fbe287825b095693c21775a2646970667358221220aa18760658372f4505a564442ebbd8fc725d9f81d6f6d0706fe0d1ffd7b113dd64736f6c63430008100033",
  "linkReferences": {},
  "deployedLinkReferences": {}
}