{
  "_format": "hh-sol-artifact-1",
  "contractName": "CosmicElvesMinter",
  "sourceName": "contracts/upgradeable/npc/CosmicElvesMinter.sol",
  "abi": [
    {
      "inputs": [],
      "stateMutability": "nonpayable",
      "type": "constructor"
    },
    {
      "inputs": [
        {
          "internalType": "address",
          "name": "have",
          "type": "address"
        },
        {
          "internalType": "address",
          "name": "want",
          "type": "address"
        }
      ],
      "name": "OnlyCoordinatorCanFulfill",
      "type": "error"
    },
    {
      "anonymous": false,
      "inputs": [
        {
          "indexed": false,
          "internalType": "uint8",
          "name": "version",
          "type": "uint8"
        }
      ],
      "name": "Initialized",
      "type": "event"
    },
    {
      "anonymous": false,
      "inputs": [
        {
          "indexed": false,
          "internalType": "address",
          "name": "account",
          "type": "address"
        }
      ],
      "name": "Paused",
      "type": "event"
    },
    {
      "anonymous": false,
      "inputs": [
        {
          "indexed": true,
          "internalType": "bytes32",
          "name": "role",
          "type": "bytes32"
        },
        {
          "indexed": true,
          "internalType": "bytes32",
          "name": "previousAdminRole",
          "type": "bytes32"
        },
        {
          "indexed": true,
          "internalType": "bytes32",
          "name": "newAdminRole",
          "type": "bytes32"
        }
      ],
      "name": "RoleAdminChanged",
      "type": "event"
    },
    {
      "anonymous": false,
      "inputs": [
        {
          "indexed": true,
          "internalType": "bytes32",
          "name": "role",
          "type": "bytes32"
        },
        {
          "indexed": true,
          "internalType": "address",
          "name": "account",
          "type": "address"
        },
        {
          "indexed": true,
          "internalType": "address",
          "name": "sender",
          "type": "address"
        }
      ],
      "name": "RoleGranted",
      "type": "event"
    },
    {
      "anonymous": false,
      "inputs": [
        {
          "indexed": true,
          "internalType": "bytes32",
          "name": "role",
          "type": "bytes32"
        },
        {
          "indexed": true,
          "internalType": "address",
          "name": "account",
          "type": "address"
        },
        {
          "indexed": true,
          "internalType": "address",
          "name": "sender",
          "type": "address"
        }
      ],
      "name": "RoleRevoked",
      "type": "event"
    },
    {
      "anonymous": false,
      "inputs": [
        {
          "indexed": false,
          "internalType": "address",
          "name": "account",
          "type": "address"
        }
      ],
      "name": "Unpaused",
      "type": "event"
    },
    {
      "inputs": [],
      "name": "ADMIN_ROLE",
      "outputs": [
        {
          "internalType": "bytes32",
          "name": "",
          "type": "bytes32"
        }
      ],
      "stateMutability": "view",
      "type": "function"
    },
    {
      "inputs": [],
      "name": "CONTRACT_ROLE",
      "outputs": [
        {
          "internalType": "bytes32",
          "name": "",
          "type": "bytes32"
        }
      ],
      "stateMutability": "view",
      "type": "function"
    },
    {
      "inputs": [],
      "name": "DEFAULT_ADMIN_ROLE",
      "outputs": [
        {
          "internalType": "bytes32",
          "name": "",
          "type": "bytes32"
        }
      ],
      "stateMutability": "view",
      "type": "function"
    },
    {
      "inputs": [],
      "name": "ELVES",
      "outputs": [
        {
          "internalType": "contract ICosmicElves",
          "name": "",
          "type": "address"
        }
      ],
      "stateMutability": "view",
      "type": "function"
    },
    {
      "inputs": [],
      "name": "ETICKET",
      "outputs": [
        {
          "internalType": "contract ICosmicElvesTicket",
          "name": "",
          "type": "address"
        }
      ],
      "stateMutability": "view",
      "type": "function"
    },
    {
      "inputs": [],
      "name": "LMAGIC",
      "outputs": [
        {
          "internalType": "contract IlMagic",
          "name": "",
          "type": "address"
        }
      ],
      "stateMutability": "view",
      "type": "function"
    },
    {
      "inputs": [],
      "name": "TEAM_ROLE",
      "outputs": [
        {
          "internalType": "bytes32",
          "name": "",
          "type": "bytes32"
        }
      ],
      "stateMutability": "view",
      "type": "function"
    },
    {
      "inputs": [],
      "name": "USDC",
      "outputs": [
        {
          "internalType": "contract IERC20Upgradeable",
          "name": "",
          "type": "address"
        }
      ],
      "stateMutability": "view",
      "type": "function"
    },
    {
      "inputs": [
        {
          "internalType": "uint256",
          "name": "count",
          "type": "uint256"
        }
      ],
      "name": "adminRequest",
      "outputs": [],
      "stateMutability": "nonpayable",
      "type": "function"
    },
    {
      "inputs": [
        {
          "internalType": "uint256",
          "name": "count",
          "type": "uint256"
        },
        {
          "internalType": "enum CosmicElvesMinter.Method",
          "name": "method",
          "type": "uint8"
        },
        {
          "internalType": "uint256[]",
          "name": "tickets",
          "type": "uint256[]"
        }
      ],
      "name": "buy",
      "outputs": [],
      "stateMutability": "nonpayable",
      "type": "function"
    },
    {
      "inputs": [],
      "name": "cap",
      "outputs": [
        {
          "internalType": "uint256",
          "name": "",
          "type": "uint256"
        }
      ],
      "stateMutability": "view",
      "type": "function"
    },
    {
      "inputs": [],
      "name": "getBlacklisted",
      "outputs": [
        {
          "internalType": "address[]",
          "name": "",
          "type": "address[]"
        }
      ],
      "stateMutability": "view",
      "type": "function"
    },
    {
      "inputs": [
        {
          "internalType": "bytes32",
          "name": "role",
          "type": "bytes32"
        }
      ],
      "name": "getRoleAdmin",
      "outputs": [
        {
          "internalType": "bytes32",
          "name": "",
          "type": "bytes32"
        }
      ],
      "stateMutability": "view",
      "type": "function"
    },
    {
      "inputs": [
        {
          "internalType": "bytes32",
          "name": "role",
          "type": "bytes32"
        },
        {
          "internalType": "uint256",
          "name": "index",
          "type": "uint256"
        }
      ],
      "name": "getRoleMember",
      "outputs": [
        {
          "internalType": "address",
          "name": "",
          "type": "address"
        }
      ],
      "stateMutability": "view",
      "type": "function"
    },
    {
      "inputs": [
        {
          "internalType": "bytes32",
          "name": "role",
          "type": "bytes32"
        }
      ],
      "name": "getRoleMemberCount",
      "outputs": [
        {
          "internalType": "uint256",
          "name": "",
          "type": "uint256"
        }
      ],
      "stateMutability": "view",
      "type": "function"
    },
    {
      "inputs": [
        {
          "internalType": "bytes32",
          "name": "role",
          "type": "bytes32"
        },
        {
          "internalType": "address",
          "name": "account",
          "type": "address"
        }
      ],
      "name": "grantRole",
      "outputs": [],
      "stateMutability": "nonpayable",
      "type": "function"
    },
    {
      "inputs": [
        {
          "internalType": "bytes32",
          "name": "role",
          "type": "bytes32"
        },
        {
          "internalType": "address",
          "name": "account",
          "type": "address"
        }
      ],
      "name": "hasRole",
      "outputs": [
        {
          "internalType": "bool",
          "name": "",
          "type": "bool"
        }
      ],
      "stateMutability": "view",
      "type": "function"
    },
    {
      "inputs": [],
      "name": "initialize",
      "outputs": [],
      "stateMutability": "nonpayable",
      "type": "function"
    },
    {
      "inputs": [
        {
          "internalType": "address",
          "name": "user",
          "type": "address"
        }
      ],
      "name": "isBlacklisted",
      "outputs": [
        {
          "internalType": "bool",
          "name": "",
          "type": "bool"
        }
      ],
      "stateMutability": "view",
      "type": "function"
    },
    {
      "inputs": [],
      "name": "lastTokenId",
      "outputs": [
        {
          "internalType": "uint256",
          "name": "",
          "type": "uint256"
        }
      ],
      "stateMutability": "view",
      "type": "function"
    },
    {
      "inputs": [
        {
          "internalType": "uint256",
          "name": "count",
          "type": "uint256"
        }
      ],
      "name": "mint",
      "outputs": [],
      "stateMutability": "nonpayable",
      "type": "function"
    },
    {
      "inputs": [],
      "name": "paused",
      "outputs": [
        {
          "internalType": "bool",
          "name": "",
          "type": "bool"
        }
      ],
      "stateMutability": "view",
      "type": "function"
    },
    {
      "inputs": [
        {
          "internalType": "address",
          "name": "user",
          "type": "address"
        }
      ],
      "name": "pendingMintsOf",
      "outputs": [
        {
          "internalType": "uint256[]",
          "name": "",
          "type": "uint256[]"
        },
        {
          "internalType": "bool",
          "name": "",
          "type": "bool"
        }
      ],
      "stateMutability": "view",
      "type": "function"
    },
    {
      "inputs": [],
      "name": "pricelMAGIC",
      "outputs": [
        {
          "internalType": "uint256",
          "name": "",
          "type": "uint256"
        }
      ],
      "stateMutability": "view",
      "type": "function"
    },
    {
      "inputs": [
        {
          "internalType": "uint256",
          "name": "requestId",
          "type": "uint256"
        },
        {
          "internalType": "uint256[]",
          "name": "randomWords",
          "type": "uint256[]"
        }
      ],
      "name": "rawFulfillRandomWords",
      "outputs": [],
      "stateMutability": "nonpayable",
      "type": "function"
    },
    {
      "inputs": [
        {
          "internalType": "bytes32",
          "name": "role",
          "type": "bytes32"
        },
        {
          "internalType": "address",
          "name": "account",
          "type": "address"
        }
      ],
      "name": "renounceRole",
      "outputs": [],
      "stateMutability": "nonpayable",
      "type": "function"
    },
    {
      "inputs": [
        {
          "internalType": "bytes32",
          "name": "role",
          "type": "bytes32"
        },
        {
          "internalType": "address",
          "name": "account",
          "type": "address"
        }
      ],
      "name": "revokeRole",
      "outputs": [],
      "stateMutability": "nonpayable",
      "type": "function"
    },
    {
      "inputs": [
        {
          "internalType": "uint256",
          "name": "gender",
          "type": "uint256"
        },
        {
          "internalType": "uint256",
          "name": "attribute",
          "type": "uint256"
        },
        {
          "internalType": "uint256[]",
          "name": "weights",
          "type": "uint256[]"
        }
      ],
      "name": "setAttributeWeights",
      "outputs": [],
      "stateMutability": "nonpayable",
      "type": "function"
    },
    {
      "inputs": [
        {
          "internalType": "uint256",
          "name": "gender",
          "type": "uint256"
        },
        {
          "internalType": "uint256[]",
          "name": "attributes",
          "type": "uint256[]"
        },
        {
          "internalType": "uint256[][]",
          "name": "weights",
          "type": "uint256[][]"
        }
      ],
      "name": "setAttributesWeights",
      "outputs": [],
      "stateMutability": "nonpayable",
      "type": "function"
    },
    {
      "inputs": [
        {
          "internalType": "uint256",
          "name": "dollarOfLMagic",
          "type": "uint256"
        }
      ],
      "name": "setLMagicPrice",
      "outputs": [],
      "stateMutability": "nonpayable",
      "type": "function"
    },
    {
      "inputs": [
        {
          "internalType": "uint256",
          "name": "total",
          "type": "uint256"
        }
      ],
      "name": "setTotalElvesTickets",
      "outputs": [],
      "stateMutability": "nonpayable",
      "type": "function"
    },
    {
      "inputs": [],
      "name": "startTime",
      "outputs": [
        {
          "internalType": "uint256",
          "name": "",
          "type": "uint256"
        }
      ],
      "stateMutability": "view",
      "type": "function"
    },
    {
      "inputs": [
        {
          "internalType": "bytes4",
          "name": "interfaceId",
          "type": "bytes4"
        }
      ],
      "name": "supportsInterface",
      "outputs": [
        {
          "internalType": "bool",
          "name": "",
          "type": "bool"
        }
      ],
      "stateMutability": "view",
      "type": "function"
    },
    {
      "inputs": [],
      "name": "treasury",
      "outputs": [
        {
          "internalType": "address",
          "name": "",
          "type": "address"
        }
      ],
      "stateMutability": "view",
      "type": "function"
    }
  ],
  "bytecode": "0x60806040523480156200001157600080fd5b506200001c62000022565b620000e4565b600054610100900460ff16156200008f5760405162461bcd60e51b815260206004820152602760248201527f496e697469616c697a61626c653a20636f6e747261637420697320696e697469604482015266616c697a696e6760c81b606482015260840160405180910390fd5b60005460ff9081161015620000e2576000805460ff191660ff9081179091556040519081527f7f26b83ff96e1f2b6a682f133852f6798a09c465da95921460cefb38474024989060200160405180910390a15b565b612d1980620000f46000396000f3fe608060405234801561001057600080fd5b50600436106102065760003560e01c806389a302711161011a578063ca15c873116100ad578063e08e63ac1161007c578063e08e63ac1461048b578063f0171202146104ac578063f714bc7d146104c7578063f84ddf0b146104da578063fe575a87146104e257600080fd5b8063ca15c87314610435578063ce3675ad14610448578063d27e10e41461045d578063d547741f1461047857600080fd5b8063a217fddf116100e9578063a217fddf146103ec578063bf6df5c2146103f4578063c17883d614610407578063c33d3fb01461041a57600080fd5b806389a30271146103985780639010d07c146103b357806391d14854146103c6578063a0712d68146103d957600080fd5b806343597e051161019d57806361d027b31161016c57806361d027b31461033257806375b238fc1461035e5780637898f2f51461037357806378e97925146103865780638129fc1c1461039057600080fd5b806343597e05146102da57806349d5e604146102ed5780635c975abb146103145780635edde15d1461031f57600080fd5b8063248a9ca3116101d9578063248a9ca3146102875780632f2ff15d146102aa578063355274ea146102bd57806336568abe146102c757600080fd5b806301ffc9a71461020b57806303fe46ab1461023357806309898636146102685780631fe543e314610272575b600080fd5b61021e61021936600461253f565b6104f5565b60405190151581526020015b60405180910390f35b61025a7f364d3d7565c7a8300c96fd53e065d19b65848d7b23b3191adcd55621c744223c81565b60405190815260200161022a565b61025a6101935481565b61028561028036600461263f565b610520565b005b61025a610295366004612686565b60009081526097602052604090206001015490565b6102856102b83660046126bb565b610573565b61025a6101925481565b6102856102d53660046126bb565b61059d565b6102856102e8366004612686565b610617565b61025a7f5146a08baf902532d0ee2f909971144f12ca32651cd70cbee1117cddfb3b3b3381565b60335460ff1661021e565b61028561032d3660046126e7565b610894565b61019454610346906001600160a01b031681565b6040516001600160a01b03909116815260200161022a565b61025a600080516020612cc483398151915281565b610285610381366004612686565b610ff9565b61025a6101915481565b610285611037565b61034673b97ef9ef8734c71904d8002f8b6bc66dd9c48a6e81565b6103466103c1366004612744565b6112b0565b61021e6103d43660046126bb565b6112cf565b6102856103e7366004612686565b6112fa565b61025a600081565b610285610402366004612686565b6116bf565b610285610415366004612766565b6116de565b610346739a337a6f883de95f49e05cd7d801d475a40a9c7081565b61025a610443366004612686565b6117d6565b6104506117ed565b60405161022a91906127a0565b610346738eebacabd19b84aae85821e9ffa5452b096e769d81565b6102856104863660046126bb565b6117ff565b61049e6104993660046127ed565b611824565b60405161022a929190612843565b6103467387d0f9ff4b51eefe9f5f1578bc35e4dda28bbd1e81565b6102856104d5366004612867565b6118a2565b61025a611915565b61021e6104f03660046127ed565b611921565b60006001600160e01b03198216635a05180f60e01b148061051a575061051a8261192f565b92915050565b60fb546001600160a01b031633146105655760fb5460405163073e64fd60e21b81523360048201526001600160a01b0390911660248201526044015b60405180910390fd5b61056f8282611964565b5050565b60008281526097602052604090206001015461058e8161199e565b61059883836119a8565b505050565b6001600160a01b038116331461060d5760405162461bcd60e51b815260206004820152602f60248201527f416363657373436f6e74726f6c3a2063616e206f6e6c792072656e6f756e636560448201526e103937b632b9903337b91039b2b63360891b606482015260840161055c565b61056f82826119ca565b61061f6119ec565b600080516020612cc48339815191526106378161199e565b336000908152610195602052604090206001810154156106955760405162461bcd60e51b81526020600482015260196024820152784578697374696e67206d696e7420696e2070726f677265737360381b604482015260640161055c565b600083116106da5760405162461bcd60e51b8152602060048201526012602482015271135a5b9a5b5d5b480c481c195c881b5a5b9d60721b604482015260640161055c565b60328311156107215760405162461bcd60e51b815260206004820152601360248201527213585e1a5b5d5b480d4c081c195c881b5a5b9d606a1b604482015260640161055c565b600061072d6101a05490565b905061019254811061076c5760405162461bcd60e51b815260206004820152600860248201526714dbdb19081bdd5d60c21b604482015260640161055c565b6101925461077a858361295e565b11156107c85760405162461bcd60e51b815260206004820152601b60248201527f496e73756666696369656e742072656d61696e696e67204e4654730000000000604482015260640161055c565b3360009081526101976020526040812080548692906107e890849061295e565b909155505033600090815261019760205260409020546003116108135761081161019933611a34565b505b61081c84611a49565b6001830181905560009081526101966020526040812080546001600160a01b031916331790555b8481101561088d5761085a6101a080546001019055565b826108656101a05490565b815460018101835560009283526020909220909101558061088581612971565b915050610843565b5050505050565b61089c6119ec565b61019154421015806108c157506108c1600080516020612cc4833981519152336112cf565b806108f157506108f17f5146a08baf902532d0ee2f909971144f12ca32651cd70cbee1117cddfb3b3b33336112cf565b6109345760405162461bcd60e51b8152602060048201526014602482015273135a5b9d081a185cc81b9bdd081cdd185c9d195960621b604482015260640161055c565b336000908152610195602052604090206001810154156109925760405162461bcd60e51b81526020600482015260196024820152784578697374696e67206d696e7420696e2070726f677265737360381b604482015260640161055c565b600084116109d75760405162461bcd60e51b8152602060048201526012602482015271135a5b9a5b5d5b480c481c195c881b5a5b9d60721b604482015260640161055c565b6032841115610a1e5760405162461bcd60e51b815260206004820152601360248201527213585e1a5b5d5b480d4c081c195c881b5a5b9d606a1b604482015260640161055c565b8382511115610a7d5760405162461bcd60e51b815260206004820152602560248201527f5469636b657420636f756e742063616e6e6f7420657863656564206d696e742060448201526418dbdd5b9d60da1b606482015260840161055c565b6000610a896101a05490565b9050610192548110610ac85760405162461bcd60e51b815260206004820152600860248201526714dbdb19081bdd5d60c21b604482015260640161055c565b61019254610ad6868361295e565b1115610b245760405162461bcd60e51b815260206004820152601b60248201527f496e73756666696369656e742072656d61696e696e67204e4654730000000000604482015260640161055c565b60006101915462093a80610b38919061295e565b4211610b555761019f5461019e54610b50919061298a565b610b58565b60005b9050858282865161019254610b6d919061295e565b610b77919061298a565b610b81919061298a565b1015610bde5760405162461bcd60e51b815260206004820152602660248201527f496e73756666696369656e7420756e7265736572766564204e4654732072656d60448201526561696e696e6760d01b606482015260840161055c565b60006001866001811115610bf457610bf461299d565b14610c025761019b54610c07565b610193545b604051631e9d710160e01b815290915060009081907387d0f9ff4b51eefe9f5f1578bc35e4dda28bbd1e90631e9d710190610c46908a906004016129b3565b600060405180830381865afa158015610c63573d6000803e3d6000fd5b505050506040513d6000823e601f3d908101601f19168201604052610c8b91908101906129c6565b905060005b8151811015610d7f577387d0f9ff4b51eefe9f5f1578bc35e4dda28bbd1e6001600160a01b03166342966c68898381518110610cce57610cce612a57565b60200260200101516040518263ffffffff1660e01b8152600401610cf491815260200190565b600060405180830381600087803b158015610d0e57600080fd5b505af1158015610d22573d6000803e3d6000fd5b50505050606484838381518110610d3b57610d3b612a57565b6020026020010151610d4d9190612a6d565b610d579190612aa2565b610d61908561298a565b610d6b908461295e565b925080610d7781612971565b915050610c90565b50805161019f6000828254610d94919061295e565b90915550508651891115610dc5578651610dae908a61298a565b610db89084612a6d565b610dc2908361295e565b91505b6001886001811115610dd957610dd961299d565b03610e7757738eebacabd19b84aae85821e9ffa5452b096e769d6379cc6790336040516001600160e01b031960e084901b1681526001600160a01b03909116600482015260248101859052604401600060405180830381600087803b158015610e4157600080fd5b505af1158015610e55573d6000803e3d6000fd5b505050508161019d6000828254610e6c919061295e565b90915550610f289050565b73b97ef9ef8734c71904d8002f8b6bc66dd9c48a6e6323b872dd336101945460405160e084901b6001600160e01b03191681526001600160a01b03928316600482015291166024820152604481018590526064016020604051808303816000875af1158015610eea573d6000803e3d6000fd5b505050506040513d601f19601f82011682018060405250810190610f0e9190612ab6565b508161019c6000828254610f22919061295e565b90915550505b3360009081526101976020526040812080548b9290610f4890849061295e565b90915550503360009081526101976020526040902054600311610f7357610f7161019933611a34565b505b610f7c89611a49565b6001870181905560009081526101966020526040812080546001600160a01b031916331790555b89811015610fed57610fba6101a080546001019055565b86610fc56101a05490565b8154600181018355600092835260209092209091015580610fe581612971565b915050610fa3565b50505050505050505050565b7f364d3d7565c7a8300c96fd53e065d19b65848d7b23b3191adcd55621c744223c6110238161199e565b61102f826101f4612a6d565b610193555050565b600054610100900460ff16158080156110575750600054600160ff909116105b806110715750303b158015611071575060005460ff166001145b6110d45760405162461bcd60e51b815260206004820152602e60248201527f496e697469616c697a61626c653a20636f6e747261637420697320616c72656160448201526d191e481a5b9a5d1a585b1a5e995960921b606482015260840161055c565b6000805460ff1916600117905580156110f7576000805461ff0019166101001790555b6110ff611b13565b611107611b42565b73d5d517abe5cf79b7e95ec98db0f0277788aff6347f83250c5584ffa93feb6ee082981c5ebe484c865196750b39835ad4f13780435d601b600361114d84848484611b69565b6111586000336119a8565b611170600080516020612cc4833981519152336119a8565b61119a7f364d3d7565c7a8300c96fd53e065d19b65848d7b23b3191adcd55621c744223c336119a8565b63630aa1f06101915561019480546001600160a01b03191673d2578a0b2631e591890f28499e9e8d73f21e5895179055630ee6b28061019b5569d3c21bcecceda100000061019355612710610192556040805163f84ddf0b60e01b815290517387d0f9ff4b51eefe9f5f1578bc35e4dda28bbd1e9163f84ddf0b9160048083019260209291908290030181865afa158015611239573d6000803e3d6000fd5b505050506040513d601f19601f8201168201806040525081019061125d9190612ad8565b61019e555050821591506112ad9050576000805461ff0019169055604051600181527f7f26b83ff96e1f2b6a682f133852f6798a09c465da95921460cefb38474024989060200160405180910390a15b50565b600082815260c9602052604081206112c89083611bab565b9392505050565b60009182526097602090815260408084206001600160a01b0393909316845291905290205460ff1690565b33600090815261019560205260409020600181015461134d5760405162461bcd60e51b815260206004820152600f60248201526e139bc81c195b991a5b99c81b5a5b9d608a1b604482015260640161055c565b60028101546113965760405162461bcd60e51b8152602060048201526015602482015274526573756c7473207374696c6c2070656e64696e6760581b604482015260640161055c565b80548210156113dc5760405162461bcd60e51b8152602060048201526012602482015271125b9d985b1a59081b5a5b9d0818dbdd5b9d60721b604482015260640161055c565b60408051600b80825261018082019092526000916060918291849190602082016101608036833701905050905060005b600b811015611445578082828151811061142857611428612a57565b60209081029190910101528061143d81612971565b91505061140c565b5060005b855481101561162b57600086600001828154811061146957611469612a57565b906000526020600020015490508782106114ec578085878151811061149057611490612a57565b6020026020010181815250508660020182815481106114b1576114b1612a57565b90600052602060002001548487815181106114ce576114ce612a57565b6020908102919091010152856114e381612971565b96505050611619565b600061151b88600201848154811061150657611506612a57565b9060005260206000200154612710600b611bb7565b9050600061152882611c62565b9050739a337a6f883de95f49e05cd7d801d475a40a9c706340c10f19336040516001600160e01b031960e084901b1681526001600160a01b03909116600482015260248101869052604401600060405180830381600087803b15801561158d57600080fd5b505af11580156115a1573d6000803e3d6000fd5b505060405163e2862b6b60e01b8152739a337a6f883de95f49e05cd7d801d475a40a9c70925063e2862b6b91506115e39086906000908a908790600401612af1565b600060405180830381600087803b1580156115fd57600080fd5b505af1158015611611573d6000803e3d6000fd5b505050505050505b8061162381612971565b915050611449565b5082511561166157825161164590869060208601906124c5565b50815161165b90600287019060208501906124c5565b506116b7565b600185015460009081526101966020908152604080832080546001600160a01b031916905533835261019590915281209061169c8282612510565b60018201600090556002820160006116b49190612510565b50505b505050505050565b600080516020612cc48339815191526116d78161199e565b5061019e55565b600080516020612cc48339815191526116f68161199e565b815167ffffffffffffffff81111561171057611710612569565b604051908082528060200260200182016040528015611739578160200160208202803683370190505b506000858152610198602090815260408083208784528252909120825161176693919291909101906124c5565b506000848152610198602090815260408083208684529091528120905b83518110156116b75783818151811061179e5761179e612a57565b60200260200101518282815481106117b8576117b8612a57565b600091825260209091200155806117ce81612971565b915050611783565b600081815260c96020526040812061051a90611e23565b60606117fa61015e611e2d565b905090565b60008281526097602052604090206001015461181a8161199e565b61059883836119ca565b6001600160a01b038116600090815261019560209081526040808320600281015481548351818602810186019094528084526060959492939115159284919083018282801561189257602002820191906000526020600020905b81548152602001906001019080831161187e575b5050505050915091509150915091565b600080516020612cc48339815191526118ba8161199e565b60005b835181101561088d57611903858583815181106118dc576118dc612a57565b60200260200101518584815181106118f6576118f6612a57565b60200260200101516116de565b8061190d81612971565b9150506118bd565b60006117fa6101a05490565b600061051a61015e83611e3a565b60006001600160e01b03198216637965db0b60e01b148061051a57506301ffc9a760e01b6001600160e01b031983161461051a565b600082815261019660209081526040808320546001600160a01b0316835261019582529091208251610598926002909201918401906124c5565b6112ad8133611e5c565b6119b28282611eb5565b600082815260c9602052604090206105989082611a34565b6119d48282611f3b565b600082815260c9602052604090206105989082611fa2565b60335460ff1615611a325760405162461bcd60e51b815260206004820152601060248201526f14185d5cd8589b194e881c185d5cd95960821b604482015260640161055c565b565b60006112c8836001600160a01b038416611fb7565b600080611a5883614e20612b22565b611a6590620186a0612b4e565b61012d5461012e5461012f546040516305d3b1d360e41b8152600481019290925267ffffffffffffffff81166024830152600160401b900461ffff16604482015263ffffffff8084166064830152861660848201529192506001600160a01b031690635d3b1d309060a4016020604051808303816000875af1158015611aef573d6000803e3d6000fd5b505050506040513d601f19601f820116820180604052508101906112c89190612ad8565b600054610100900460ff16611b3a5760405162461bcd60e51b815260040161055c90612b6b565b611a32612006565b600054610100900460ff16611a325760405162461bcd60e51b815260040161055c90612b6b565b600054610100900460ff16611b905760405162461bcd60e51b815260040161055c90612b6b565b611b9984612039565b611ba584848484612069565b50505050565b60006112c883836120ec565b606060008267ffffffffffffffff811115611bd457611bd4612569565b604051908082528060200260200182016040528015611bfd578160200160208202803683370190505b5090508460005b84811015611c57576000611c188784612bb6565b9050611c248784612aa2565b925080848381518110611c3957611c39612a57565b60209081029190910101525080611c4f81612971565b915050611c04565b509095945050505050565b60408051600b80825261018082019092526060916000919060208201610160803683370190505060008080527f4423f7c6e52e9185383a9cf02b7a6886e99ba21d91d7a83c121c6d17c40c5b7960209081527fc9411a5902f24ec13f1970edfefe927670fe107a4777ae5a11b056949e223754805460408051828502810185019091528181529495509293611d47939092830182828015611d2257602002820191906000526020600020905b815481526020019060010190808311611d0e575b505050505085600081518110611d3a57611d3a612a57565b6020026020010151612116565b90508082600081518110611d5d57611d5d612a57565b602090810291909101015260015b600b811015611e1a576000828152610198602090815260408083208484528252918290208054835181840281018401909452808452611deb9392830182828015611dd457602002820191906000526020600020905b815481526020019060010190808311611dc0575b5050505050868381518110611d3a57611d3a612a57565b838281518110611dfd57611dfd612a57565b602090810291909101015280611e1281612971565b915050611d6b565b50909392505050565b600061051a825490565b606060006112c883612178565b6001600160a01b038116600090815260018301602052604081205415156112c8565b611e6682826112cf565b61056f57611e73816121d4565b611e7e8360206121e6565b604051602001611e8f929190612bee565b60408051601f198184030181529082905262461bcd60e51b825261055c91600401612c63565b611ebf82826112cf565b61056f5760008281526097602090815260408083206001600160a01b03851684529091529020805460ff19166001179055611ef73390565b6001600160a01b0316816001600160a01b0316837f2f8788117e7eff1d82e926ec794901d17c78024a50270940304540a733656f0d60405160405180910390a45050565b611f4582826112cf565b1561056f5760008281526097602090815260408083206001600160a01b0385168085529252808320805460ff1916905551339285917ff6391f5c32d9c69d2a47ea670b442974b53935d1edc7fd64eb21e047a839171b9190a45050565b60006112c8836001600160a01b038416612382565b6000818152600183016020526040812054611ffe5750815460018181018455600084815260208082209093018490558454848252828601909352604090209190915561051a565b50600061051a565b600054610100900460ff1661202d5760405162461bcd60e51b815260040161055c90612b6b565b6033805460ff19169055565b600054610100900460ff166120605760405162461bcd60e51b815260040161055c90612b6b565b6112ad8161247c565b600054610100900460ff166120905760405162461bcd60e51b815260040161055c90612b6b565b61012d80546001600160a01b039095166001600160a01b03199095169490941790935561012f805461012e9390935561ffff909316600160401b0269ffffffffffffffffffff1990921667ffffffffffffffff90911617179055565b600082600001828154811061210357612103612a57565b9060005260206000200154905092915050565b6000805b83518110156121695783818151811061213557612135612a57565b60200260200101518310156121575761214f60018261298a565b91505061051a565b8061216181612971565b91505061211a565b50600183516112c8919061298a565b6060816000018054806020026020016040519081016040528092919081815260200182805480156121c857602002820191906000526020600020905b8154815260200190600101908083116121b4575b50505050509050919050565b606061051a6001600160a01b03831660145b606060006121f5836002612a6d565b61220090600261295e565b67ffffffffffffffff81111561221857612218612569565b6040519080825280601f01601f191660200182016040528015612242576020820181803683370190505b509050600360fc1b8160008151811061225d5761225d612a57565b60200101906001600160f81b031916908160001a905350600f60fb1b8160018151811061228c5761228c612a57565b60200101906001600160f81b031916908160001a90535060006122b0846002612a6d565b6122bb90600161295e565b90505b6001811115612333576f181899199a1a9b1b9c1cb0b131b232b360811b85600f16601081106122ef576122ef612a57565b1a60f81b82828151811061230557612305612a57565b60200101906001600160f81b031916908160001a90535060049490941c9361232c81612c96565b90506122be565b5083156112c85760405162461bcd60e51b815260206004820181905260248201527f537472696e67733a20686578206c656e67746820696e73756666696369656e74604482015260640161055c565b6000818152600183016020526040812054801561246b5760006123a660018361298a565b85549091506000906123ba9060019061298a565b905081811461241f5760008660000182815481106123da576123da612a57565b90600052602060002001549050808760000184815481106123fd576123fd612a57565b6000918252602080832090910192909255918252600188019052604090208390555b855486908061243057612430612cad565b60019003818190600052602060002001600090559055856001016000868152602001908152602001600020600090556001935050505061051a565b600091505061051a565b5092915050565b600054610100900460ff166124a35760405162461bcd60e51b815260040161055c90612b6b565b60fb80546001600160a01b0319166001600160a01b0392909216919091179055565b828054828255906000526020600020908101928215612500579160200282015b828111156125005782518255916020019190600101906124e5565b5061250c92915061252a565b5090565b50805460008255906000526020600020908101906112ad91905b5b8082111561250c576000815560010161252b565b60006020828403121561255157600080fd5b81356001600160e01b0319811681146112c857600080fd5b634e487b7160e01b600052604160045260246000fd5b604051601f8201601f1916810167ffffffffffffffff811182821017156125a8576125a8612569565b604052919050565b600067ffffffffffffffff8211156125ca576125ca612569565b5060051b60200190565b600082601f8301126125e557600080fd5b813560206125fa6125f5836125b0565b61257f565b82815260059290921b8401810191818101908684111561261957600080fd5b8286015b84811015612634578035835291830191830161261d565b509695505050505050565b6000806040838503121561265257600080fd5b82359150602083013567ffffffffffffffff81111561267057600080fd5b61267c858286016125d4565b9150509250929050565b60006020828403121561269857600080fd5b5035919050565b80356001600160a01b03811681146126b657600080fd5b919050565b600080604083850312156126ce57600080fd5b823591506126de6020840161269f565b90509250929050565b6000806000606084860312156126fc57600080fd5b8335925060208401356002811061271257600080fd5b9150604084013567ffffffffffffffff81111561272e57600080fd5b61273a868287016125d4565b9150509250925092565b6000806040838503121561275757600080fd5b50508035926020909101359150565b60008060006060848603121561277b57600080fd5b8335925060208401359150604084013567ffffffffffffffff81111561272e57600080fd5b6020808252825182820181905260009190848201906040850190845b818110156127e15783516001600160a01b0316835292840192918401916001016127bc565b50909695505050505050565b6000602082840312156127ff57600080fd5b6112c88261269f565b600081518084526020808501945080840160005b838110156128385781518752958201959082019060010161281c565b509495945050505050565b6040815260006128566040830185612808565b905082151560208301529392505050565b60008060006060848603121561287c57600080fd5b8335925060208085013567ffffffffffffffff8082111561289c57600080fd5b6128a8888389016125d4565b945060408701359150808211156128be57600080fd5b818701915087601f8301126128d257600080fd5b81356128e06125f5826125b0565b81815260059190911b8301840190848101908a8311156128ff57600080fd5b8585015b838110156129375780358581111561291b5760008081fd5b6129298d89838a01016125d4565b845250918601918601612903565b508096505050505050509250925092565b634e487b7160e01b600052601160045260246000fd5b8082018082111561051a5761051a612948565b60006001820161298357612983612948565b5060010190565b8181038181111561051a5761051a612948565b634e487b7160e01b600052602160045260246000fd5b6020815260006112c86020830184612808565b600060208083850312156129d957600080fd5b825167ffffffffffffffff8111156129f057600080fd5b8301601f81018513612a0157600080fd5b8051612a0f6125f5826125b0565b81815260059190911b82018301908381019087831115612a2e57600080fd5b928401925b82841015612a4c57835182529284019290840190612a33565b979650505050505050565b634e487b7160e01b600052603260045260246000fd5b6000816000190483118215151615612a8757612a87612948565b500290565b634e487b7160e01b600052601260045260246000fd5b600082612ab157612ab1612a8c565b500490565b600060208284031215612ac857600080fd5b815180151581146112c857600080fd5b600060208284031215612aea57600080fd5b5051919050565b848152836020820152608060408201526000612b106080830185612808565b8281036060840152612a4c8185612808565b600063ffffffff80831681851681830481118215151615612b4557612b45612948565b02949350505050565b63ffffffff81811683821601908082111561247557612475612948565b6020808252602b908201527f496e697469616c697a61626c653a20636f6e7472616374206973206e6f74206960408201526a6e697469616c697a696e6760a81b606082015260800190565b600082612bc557612bc5612a8c565b500690565b60005b83811015612be5578181015183820152602001612bcd565b50506000910152565b7f416363657373436f6e74726f6c3a206163636f756e7420000000000000000000815260008351612c26816017850160208801612bca565b7001034b99036b4b9b9b4b733903937b6329607d1b6017918401918201528351612c57816028840160208801612bca565b01602801949350505050565b6020815260008251806020840152612c82816040850160208701612bca565b601f01601f19169190910160400192915050565b600081612ca557612ca5612948565b506000190190565b634e487b7160e01b600052603160045260246000fdfea49807205ce4d355092ef5a8a18f56e8913cf4a201fbe287825b095693c21775a264697066735822122000187c352174757965d36341eab57e0083f08246ab833521376a7c46d0df67bc64736f6c63430008100033",
  "linkReferences": {},
  "deployedLinkReferences": {}
}