{
  "_format": "hh-sol-artifact-1",
  "contractName": "CosmicElvesMinter",
  "sourceName": "contracts/upgradeable/npc/CosmicElvesMinter.sol",
  "abi": [
    {
      "inputs": [],
      "stateMutability": "nonpayable",
      "type": "constructor"
    },
    {
      "inputs": [
        {
          "internalType": "address",
          "name": "have",
          "type": "address"
        },
        {
          "internalType": "address",
          "name": "want",
          "type": "address"
        }
      ],
      "name": "OnlyCoordinatorCanFulfill",
      "type": "error"
    },
    {
      "anonymous": false,
      "inputs": [
        {
          "indexed": false,
          "internalType": "uint8",
          "name": "version",
          "type": "uint8"
        }
      ],
      "name": "Initialized",
      "type": "event"
    },
    {
      "anonymous": false,
      "inputs": [
        {
          "indexed": false,
          "internalType": "address",
          "name": "account",
          "type": "address"
        }
      ],
      "name": "Paused",
      "type": "event"
    },
    {
      "anonymous": false,
      "inputs": [
        {
          "indexed": true,
          "internalType": "bytes32",
          "name": "role",
          "type": "bytes32"
        },
        {
          "indexed": true,
          "internalType": "bytes32",
          "name": "previousAdminRole",
          "type": "bytes32"
        },
        {
          "indexed": true,
          "internalType": "bytes32",
          "name": "newAdminRole",
          "type": "bytes32"
        }
      ],
      "name": "RoleAdminChanged",
      "type": "event"
    },
    {
      "anonymous": false,
      "inputs": [
        {
          "indexed": true,
          "internalType": "bytes32",
          "name": "role",
          "type": "bytes32"
        },
        {
          "indexed": true,
          "internalType": "address",
          "name": "account",
          "type": "address"
        },
        {
          "indexed": true,
          "internalType": "address",
          "name": "sender",
          "type": "address"
        }
      ],
      "name": "RoleGranted",
      "type": "event"
    },
    {
      "anonymous": false,
      "inputs": [
        {
          "indexed": true,
          "internalType": "bytes32",
          "name": "role",
          "type": "bytes32"
        },
        {
          "indexed": true,
          "internalType": "address",
          "name": "account",
          "type": "address"
        },
        {
          "indexed": true,
          "internalType": "address",
          "name": "sender",
          "type": "address"
        }
      ],
      "name": "RoleRevoked",
      "type": "event"
    },
    {
      "anonymous": false,
      "inputs": [
        {
          "indexed": false,
          "internalType": "address",
          "name": "account",
          "type": "address"
        }
      ],
      "name": "Unpaused",
      "type": "event"
    },
    {
      "inputs": [],
      "name": "ADMIN_ROLE",
      "outputs": [
        {
          "internalType": "bytes32",
          "name": "",
          "type": "bytes32"
        }
      ],
      "stateMutability": "view",
      "type": "function"
    },
    {
      "inputs": [],
      "name": "CONTRACT_ROLE",
      "outputs": [
        {
          "internalType": "bytes32",
          "name": "",
          "type": "bytes32"
        }
      ],
      "stateMutability": "view",
      "type": "function"
    },
    {
      "inputs": [],
      "name": "DEFAULT_ADMIN_ROLE",
      "outputs": [
        {
          "internalType": "bytes32",
          "name": "",
          "type": "bytes32"
        }
      ],
      "stateMutability": "view",
      "type": "function"
    },
    {
      "inputs": [],
      "name": "ELVES",
      "outputs": [
        {
          "internalType": "contract ICosmicElves",
          "name": "",
          "type": "address"
        }
      ],
      "stateMutability": "view",
      "type": "function"
    },
    {
      "inputs": [],
      "name": "ETICKET",
      "outputs": [
        {
          "internalType": "contract ICosmicElvesTicket",
          "name": "",
          "type": "address"
        }
      ],
      "stateMutability": "view",
      "type": "function"
    },
    {
      "inputs": [],
      "name": "LMAGIC",
      "outputs": [
        {
          "internalType": "contract IlMagic",
          "name": "",
          "type": "address"
        }
      ],
      "stateMutability": "view",
      "type": "function"
    },
    {
      "inputs": [],
      "name": "TEAM_ROLE",
      "outputs": [
        {
          "internalType": "bytes32",
          "name": "",
          "type": "bytes32"
        }
      ],
      "stateMutability": "view",
      "type": "function"
    },
    {
      "inputs": [],
      "name": "USDC",
      "outputs": [
        {
          "internalType": "contract IERC20Upgradeable",
          "name": "",
          "type": "address"
        }
      ],
      "stateMutability": "view",
      "type": "function"
    },
    {
      "inputs": [
        {
          "internalType": "uint256",
          "name": "count",
          "type": "uint256"
        },
        {
          "internalType": "enum CosmicElvesMinter.Method",
          "name": "method",
          "type": "uint8"
        },
        {
          "internalType": "uint256[]",
          "name": "tickets",
          "type": "uint256[]"
        }
      ],
      "name": "buy",
      "outputs": [],
      "stateMutability": "nonpayable",
      "type": "function"
    },
    {
      "inputs": [],
      "name": "cap",
      "outputs": [
        {
          "internalType": "uint256",
          "name": "",
          "type": "uint256"
        }
      ],
      "stateMutability": "view",
      "type": "function"
    },
    {
      "inputs": [],
      "name": "getBlacklisted",
      "outputs": [
        {
          "internalType": "address[]",
          "name": "",
          "type": "address[]"
        }
      ],
      "stateMutability": "view",
      "type": "function"
    },
    {
      "inputs": [
        {
          "internalType": "bytes32",
          "name": "role",
          "type": "bytes32"
        }
      ],
      "name": "getRoleAdmin",
      "outputs": [
        {
          "internalType": "bytes32",
          "name": "",
          "type": "bytes32"
        }
      ],
      "stateMutability": "view",
      "type": "function"
    },
    {
      "inputs": [
        {
          "internalType": "bytes32",
          "name": "role",
          "type": "bytes32"
        },
        {
          "internalType": "uint256",
          "name": "index",
          "type": "uint256"
        }
      ],
      "name": "getRoleMember",
      "outputs": [
        {
          "internalType": "address",
          "name": "",
          "type": "address"
        }
      ],
      "stateMutability": "view",
      "type": "function"
    },
    {
      "inputs": [
        {
          "internalType": "bytes32",
          "name": "role",
          "type": "bytes32"
        }
      ],
      "name": "getRoleMemberCount",
      "outputs": [
        {
          "internalType": "uint256",
          "name": "",
          "type": "uint256"
        }
      ],
      "stateMutability": "view",
      "type": "function"
    },
    {
      "inputs": [
        {
          "internalType": "bytes32",
          "name": "role",
          "type": "bytes32"
        },
        {
          "internalType": "address",
          "name": "account",
          "type": "address"
        }
      ],
      "name": "grantRole",
      "outputs": [],
      "stateMutability": "nonpayable",
      "type": "function"
    },
    {
      "inputs": [
        {
          "internalType": "bytes32",
          "name": "role",
          "type": "bytes32"
        },
        {
          "internalType": "address",
          "name": "account",
          "type": "address"
        }
      ],
      "name": "hasRole",
      "outputs": [
        {
          "internalType": "bool",
          "name": "",
          "type": "bool"
        }
      ],
      "stateMutability": "view",
      "type": "function"
    },
    {
      "inputs": [],
      "name": "initialize",
      "outputs": [],
      "stateMutability": "nonpayable",
      "type": "function"
    },
    {
      "inputs": [
        {
          "internalType": "address",
          "name": "user",
          "type": "address"
        }
      ],
      "name": "isBlacklisted",
      "outputs": [
        {
          "internalType": "bool",
          "name": "",
          "type": "bool"
        }
      ],
      "stateMutability": "view",
      "type": "function"
    },
    {
      "inputs": [],
      "name": "lastTokenId",
      "outputs": [
        {
          "internalType": "uint256",
          "name": "",
          "type": "uint256"
        }
      ],
      "stateMutability": "view",
      "type": "function"
    },
    {
      "inputs": [
        {
          "internalType": "uint256",
          "name": "count",
          "type": "uint256"
        }
      ],
      "name": "mint",
      "outputs": [],
      "stateMutability": "nonpayable",
      "type": "function"
    },
    {
      "inputs": [],
      "name": "paused",
      "outputs": [
        {
          "internalType": "bool",
          "name": "",
          "type": "bool"
        }
      ],
      "stateMutability": "view",
      "type": "function"
    },
    {
      "inputs": [
        {
          "internalType": "address",
          "name": "user",
          "type": "address"
        }
      ],
      "name": "pendingMintsOf",
      "outputs": [
        {
          "internalType": "uint256[]",
          "name": "",
          "type": "uint256[]"
        },
        {
          "internalType": "bool",
          "name": "",
          "type": "bool"
        }
      ],
      "stateMutability": "view",
      "type": "function"
    },
    {
      "inputs": [],
      "name": "pricelMAGIC",
      "outputs": [
        {
          "internalType": "uint256",
          "name": "",
          "type": "uint256"
        }
      ],
      "stateMutability": "view",
      "type": "function"
    },
    {
      "inputs": [
        {
          "internalType": "uint256",
          "name": "requestId",
          "type": "uint256"
        },
        {
          "internalType": "uint256[]",
          "name": "randomWords",
          "type": "uint256[]"
        }
      ],
      "name": "rawFulfillRandomWords",
      "outputs": [],
      "stateMutability": "nonpayable",
      "type": "function"
    },
    {
      "inputs": [
        {
          "internalType": "bytes32",
          "name": "role",
          "type": "bytes32"
        },
        {
          "internalType": "address",
          "name": "account",
          "type": "address"
        }
      ],
      "name": "renounceRole",
      "outputs": [],
      "stateMutability": "nonpayable",
      "type": "function"
    },
    {
      "inputs": [
        {
          "internalType": "bytes32",
          "name": "role",
          "type": "bytes32"
        },
        {
          "internalType": "address",
          "name": "account",
          "type": "address"
        }
      ],
      "name": "revokeRole",
      "outputs": [],
      "stateMutability": "nonpayable",
      "type": "function"
    },
    {
      "inputs": [
        {
          "internalType": "uint256",
          "name": "gender",
          "type": "uint256"
        },
        {
          "internalType": "uint256",
          "name": "attribute",
          "type": "uint256"
        },
        {
          "internalType": "uint256[]",
          "name": "weights",
          "type": "uint256[]"
        }
      ],
      "name": "setAttributeWeights",
      "outputs": [],
      "stateMutability": "nonpayable",
      "type": "function"
    },
    {
      "inputs": [
        {
          "internalType": "uint256",
          "name": "gender",
          "type": "uint256"
        },
        {
          "internalType": "uint256[]",
          "name": "attributes",
          "type": "uint256[]"
        },
        {
          "internalType": "uint256[][]",
          "name": "weights",
          "type": "uint256[][]"
        }
      ],
      "name": "setAttributesWeights",
      "outputs": [],
      "stateMutability": "nonpayable",
      "type": "function"
    },
    {
      "inputs": [
        {
          "internalType": "uint256",
          "name": "dollarOfLMagic",
          "type": "uint256"
        }
      ],
      "name": "setLMagicPrice",
      "outputs": [],
      "stateMutability": "nonpayable",
      "type": "function"
    },
    {
      "inputs": [
        {
          "internalType": "uint256",
          "name": "total",
          "type": "uint256"
        }
      ],
      "name": "setTotalElvesTickets",
      "outputs": [],
      "stateMutability": "nonpayable",
      "type": "function"
    },
    {
      "inputs": [],
      "name": "startTime",
      "outputs": [
        {
          "internalType": "uint256",
          "name": "",
          "type": "uint256"
        }
      ],
      "stateMutability": "view",
      "type": "function"
    },
    {
      "inputs": [
        {
          "internalType": "bytes4",
          "name": "interfaceId",
          "type": "bytes4"
        }
      ],
      "name": "supportsInterface",
      "outputs": [
        {
          "internalType": "bool",
          "name": "",
          "type": "bool"
        }
      ],
      "stateMutability": "view",
      "type": "function"
    },
    {
      "inputs": [],
      "name": "treasury",
      "outputs": [
        {
          "internalType": "address",
          "name": "",
          "type": "address"
        }
      ],
      "stateMutability": "view",
      "type": "function"
    }
  ],
  "bytecode": "0x60806040523480156200001157600080fd5b506200001c62000022565b620000e4565b600054610100900460ff16156200008f5760405162461bcd60e51b815260206004820152602760248201527f496e697469616c697a61626c653a20636f6e747261637420697320696e697469604482015266616c697a696e6760c81b606482015260840160405180910390fd5b60005460ff9081161015620000e2576000805460ff191660ff9081179091556040519081527f7f26b83ff96e1f2b6a682f133852f6798a09c465da95921460cefb38474024989060200160405180910390a15b565b612ad680620000f46000396000f3fe608060405234801561001057600080fd5b50600436106101fb5760003560e01c806389a302711161011a578063ca15c873116100ad578063e08e63ac1161007c578063e08e63ac1461046d578063f01712021461048e578063f714bc7d146104a9578063f84ddf0b146104bc578063fe575a87146104c457600080fd5b8063ca15c87314610417578063ce3675ad1461042a578063d27e10e41461043f578063d547741f1461045a57600080fd5b8063a217fddf116100e9578063a217fddf146103ce578063bf6df5c2146103d6578063c17883d6146103e9578063c33d3fb0146103fc57600080fd5b806389a302711461037a5780639010d07c1461039557806391d14854146103a8578063a0712d68146103bb57600080fd5b806349d5e6041161019257806375b238fc1161016157806375b238fc146103405780637898f2f51461035557806378e97925146103685780638129fc1c1461037257600080fd5b806349d5e604146102cf5780635c975abb146102f65780635edde15d1461030157806361d027b31461031457600080fd5b8063248a9ca3116101ce578063248a9ca31461027c5780632f2ff15d1461029f578063355274ea146102b257806336568abe146102bc57600080fd5b806301ffc9a71461020057806303fe46ab14610228578063098986361461025d5780631fe543e314610267575b600080fd5b61021361020e3660046122de565b6104d7565b60405190151581526020015b60405180910390f35b61024f7f364d3d7565c7a8300c96fd53e065d19b65848d7b23b3191adcd55621c744223c81565b60405190815260200161021f565b61024f6101935481565b61027a6102753660046123de565b610502565b005b61024f61028a366004612425565b60009081526097602052604090206001015490565b61027a6102ad36600461245a565b610555565b61024f6101925481565b61027a6102ca36600461245a565b61057f565b61024f7f5146a08baf902532d0ee2f909971144f12ca32651cd70cbee1117cddfb3b3b3381565b60335460ff16610213565b61027a61030f366004612486565b6105f9565b61019454610328906001600160a01b031681565b6040516001600160a01b03909116815260200161021f565b61024f600080516020612a8183398151915281565b61027a610363366004612425565b610d81565b61024f6101915481565b61027a610dbf565b61032873b97ef9ef8734c71904d8002f8b6bc66dd9c48a6e81565b6103286103a33660046124e3565b611047565b6102136103b636600461245a565b611066565b61027a6103c9366004612425565b611091565b61024f600081565b61027a6103e4366004612425565b611456565b61027a6103f7366004612505565b611475565b610328739a337a6f883de95f49e05cd7d801d475a40a9c7081565b61024f610425366004612425565b61156d565b610432611584565b60405161021f919061253f565b610328738eebacabd19b84aae85821e9ffa5452b096e769d81565b61027a61046836600461245a565b611596565b61048061047b36600461258c565b6115bb565b60405161021f9291906125e2565b6103287387d0f9ff4b51eefe9f5f1578bc35e4dda28bbd1e81565b61027a6104b7366004612606565b611639565b61024f6116b3565b6102136104d236600461258c565b6116bf565b60006001600160e01b03198216635a05180f60e01b14806104fc57506104fc826116cd565b92915050565b60fb546001600160a01b031633146105475760fb5460405163073e64fd60e21b81523360048201526001600160a01b0390911660248201526044015b60405180910390fd5b6105518282611702565b5050565b6000828152609760205260409020600101546105708161173c565b61057a8383611746565b505050565b6001600160a01b03811633146105ef5760405162461bcd60e51b815260206004820152602f60248201527f416363657373436f6e74726f6c3a2063616e206f6e6c792072656e6f756e636560448201526e103937b632b9903337b91039b2b63360891b606482015260840161053e565b6105518282611768565b61060161178a565b61019154421015806106265750610626600080516020612a8183398151915233611066565b8061065657506106567f5146a08baf902532d0ee2f909971144f12ca32651cd70cbee1117cddfb3b3b3333611066565b6106995760405162461bcd60e51b8152602060048201526014602482015273135a5b9d081a185cc81b9bdd081cdd185c9d195960621b604482015260640161053e565b336000908152610195602052604090206001810154156106fb5760405162461bcd60e51b815260206004820152601960248201527f4578697374696e67206d696e7420696e2070726f677265737300000000000000604482015260640161053e565b600084116107405760405162461bcd60e51b8152602060048201526012602482015271135a5b9a5b5d5b480c481c195c881b5a5b9d60721b604482015260640161053e565b60328411156107875760405162461bcd60e51b815260206004820152601360248201527213585e1a5b5d5b480d4c081c195c881b5a5b9d606a1b604482015260640161053e565b83825111156107e65760405162461bcd60e51b815260206004820152602560248201527f5469636b657420636f756e742063616e6e6f7420657863656564206d696e742060448201526418dbdd5b9d60da1b606482015260840161053e565b60006107f26101a05490565b90506101925481106108315760405162461bcd60e51b815260206004820152600860248201526714dbdb19081bdd5d60c21b604482015260640161053e565b6101925461083f86836126fd565b111561088d5760405162461bcd60e51b815260206004820152601b60248201527f496e73756666696369656e742072656d61696e696e67204e4654730000000000604482015260640161053e565b60006101915462093a806108a191906126fd565b42116108be5761019f5461019e546108b99190612715565b6108c1565b60005b90508582828651610192546108d691906126fd565b6108e09190612715565b6108ea9190612715565b10156109475760405162461bcd60e51b815260206004820152602660248201527f496e73756666696369656e7420756e7265736572766564204e4654732072656d60448201526561696e696e6760d01b606482015260840161053e565b6000600186600181111561095d5761095d61272c565b1461096b5761019b54610970565b610193545b604051631e9d710160e01b815290915060009081907387d0f9ff4b51eefe9f5f1578bc35e4dda28bbd1e90631e9d7101906109af908a90600401612742565b60006040518083038186803b1580156109c757600080fd5b505afa1580156109db573d6000803e3d6000fd5b505050506040513d6000823e601f3d908101601f19168201604052610a039190810190612755565b905060005b8151811015610af7577387d0f9ff4b51eefe9f5f1578bc35e4dda28bbd1e6001600160a01b03166342966c68898381518110610a4657610a466127e6565b60200260200101516040518263ffffffff1660e01b8152600401610a6c91815260200190565b600060405180830381600087803b158015610a8657600080fd5b505af1158015610a9a573d6000803e3d6000fd5b50505050606484838381518110610ab357610ab36127e6565b6020026020010151610ac591906127fc565b610acf9190612831565b610ad99085612715565b610ae390846126fd565b925080610aef81612845565b915050610a08565b50805161019f6000828254610b0c91906126fd565b90915550508651891115610b3d578651610b26908a612715565b610b3090846127fc565b610b3a90836126fd565b91505b6001886001811115610b5157610b5161272c565b1415610bf057738eebacabd19b84aae85821e9ffa5452b096e769d6379cc6790336040516001600160e01b031960e084901b1681526001600160a01b03909116600482015260248101859052604401600060405180830381600087803b158015610bba57600080fd5b505af1158015610bce573d6000803e3d6000fd5b505050508161019d6000828254610be591906126fd565b90915550610cb09050565b73b97ef9ef8734c71904d8002f8b6bc66dd9c48a6e6323b872dd336101945460405160e084901b6001600160e01b03191681526001600160a01b0392831660048201529116602482015260448101859052606401602060405180830381600087803b158015610c5e57600080fd5b505af1158015610c72573d6000803e3d6000fd5b505050506040513d601f19601f82011682018060405250810190610c969190612860565b508161019c6000828254610caa91906126fd565b90915550505b3360009081526101976020526040812080548b9290610cd09084906126fd565b90915550503360009081526101976020526040902054600311610cfb57610cf9610199336117d2565b505b610d04896117e7565b6001870181905560009081526101966020526040812080546001600160a01b031916331790555b89811015610d7557610d426101a080546001019055565b86610d4d6101a05490565b8154600181018355600092835260209092209091015580610d6d81612845565b915050610d2b565b50505050505050505050565b7f364d3d7565c7a8300c96fd53e065d19b65848d7b23b3191adcd55621c744223c610dab8161173c565b610db7826101f46127fc565b610193555050565b600054610100900460ff1615808015610ddf5750600054600160ff909116105b80610df95750303b158015610df9575060005460ff166001145b610e5c5760405162461bcd60e51b815260206004820152602e60248201527f496e697469616c697a61626c653a20636f6e747261637420697320616c72656160448201526d191e481a5b9a5d1a585b1a5e995960921b606482015260840161053e565b6000805460ff191660011790558015610e7f576000805461ff0019166101001790555b610e876118c0565b610e8f6118ef565b73d5d517abe5cf79b7e95ec98db0f0277788aff6347f83250c5584ffa93feb6ee082981c5ebe484c865196750b39835ad4f13780435d601b6003610ed584848484611916565b610ee0600033611746565b610ef8600080516020612a8183398151915233611746565b610f227f364d3d7565c7a8300c96fd53e065d19b65848d7b23b3191adcd55621c744223c33611746565b63630aa1f06101915561019480546001600160a01b03191673d2578a0b2631e591890f28499e9e8d73f21e5895179055630ee6b28061019b5569d3c21bcecceda100000061019355612710610192556040805163f84ddf0b60e01b815290517387d0f9ff4b51eefe9f5f1578bc35e4dda28bbd1e9163f84ddf0b916004808301926020929190829003018186803b158015610fbc57600080fd5b505afa158015610fd0573d6000803e3d6000fd5b505050506040513d601f19601f82011682018060405250810190610ff49190612882565b61019e555050821591506110449050576000805461ff0019169055604051600181527f7f26b83ff96e1f2b6a682f133852f6798a09c465da95921460cefb38474024989060200160405180910390a15b50565b600082815260c96020526040812061105f9083611958565b9392505050565b60009182526097602090815260408084206001600160a01b0393909316845291905290205460ff1690565b3360009081526101956020526040902060018101546110e45760405162461bcd60e51b815260206004820152600f60248201526e139bc81c195b991a5b99c81b5a5b9d608a1b604482015260640161053e565b600281015461112d5760405162461bcd60e51b8152602060048201526015602482015274526573756c7473207374696c6c2070656e64696e6760581b604482015260640161053e565b80548210156111735760405162461bcd60e51b8152602060048201526012602482015271125b9d985b1a59081b5a5b9d0818dbdd5b9d60721b604482015260640161053e565b60408051600b80825261018082019092526000916060918291849190602082016101608036833701905050905060005b600b8110156111dc57808282815181106111bf576111bf6127e6565b6020908102919091010152806111d481612845565b9150506111a3565b5060005b85548110156113c2576000866000018281548110611200576112006127e6565b906000526020600020015490508782106112835780858781518110611227576112276127e6565b602002602001018181525050866002018281548110611248576112486127e6565b9060005260206000200154848781518110611265576112656127e6565b60209081029190910101528561127a81612845565b965050506113b0565b60006112b288600201848154811061129d5761129d6127e6565b9060005260206000200154612710600b611964565b905060006112bf82611a0f565b9050739a337a6f883de95f49e05cd7d801d475a40a9c706340c10f19336040516001600160e01b031960e084901b1681526001600160a01b03909116600482015260248101869052604401600060405180830381600087803b15801561132457600080fd5b505af1158015611338573d6000803e3d6000fd5b505060405163e2862b6b60e01b8152739a337a6f883de95f49e05cd7d801d475a40a9c70925063e2862b6b915061137a9086906000908a90879060040161289b565b600060405180830381600087803b15801561139457600080fd5b505af11580156113a8573d6000803e3d6000fd5b505050505050505b806113ba81612845565b9150506111e0565b508251156113f85782516113dc9086906020860190612264565b5081516113f29060028701906020850190612264565b5061144e565b600185015460009081526101966020908152604080832080546001600160a01b031916905533835261019590915281209061143382826122af565b600182016000905560028201600061144b91906122af565b50505b505050505050565b600080516020612a8183398151915261146e8161173c565b5061019e55565b600080516020612a8183398151915261148d8161173c565b815167ffffffffffffffff8111156114a7576114a7612308565b6040519080825280602002602001820160405280156114d0578160200160208202803683370190505b50600085815261019860209081526040808320878452825290912082516114fd9391929190910190612264565b506000848152610198602090815260408083208684529091528120905b835181101561144e57838181518110611535576115356127e6565b602002602001015182828154811061154f5761154f6127e6565b6000918252602090912001558061156581612845565b91505061151a565b600081815260c9602052604081206104fc90611bd0565b606061159161015e611bda565b905090565b6000828152609760205260409020600101546115b18161173c565b61057a8383611768565b6001600160a01b038116600090815261019560209081526040808320600281015481548351818602810186019094528084526060959492939115159284919083018282801561162957602002820191906000526020600020905b815481526020019060010190808311611615575b5050505050915091509150915091565b600080516020612a818339815191526116518161173c565b60005b83518110156116ac5761169a85858381518110611673576116736127e6565b602002602001015185848151811061168d5761168d6127e6565b6020026020010151611475565b806116a481612845565b915050611654565b5050505050565b60006115916101a05490565b60006104fc61015e83611be7565b60006001600160e01b03198216637965db0b60e01b14806104fc57506301ffc9a760e01b6001600160e01b03198316146104fc565b600082815261019660209081526040808320546001600160a01b031683526101958252909120825161057a92600290920191840190612264565b6110448133611c09565b6117508282611c6d565b600082815260c96020526040902061057a90826117d2565b6117728282611cf3565b600082815260c96020526040902061057a9082611d5a565b60335460ff16156117d05760405162461bcd60e51b815260206004820152601060248201526f14185d5cd8589b194e881c185d5cd95960821b604482015260640161053e565b565b600061105f836001600160a01b038416611d6f565b6000806117f683614e206128cc565b61180390620186a06128f8565b61012d5461012e5461012f546040516305d3b1d360e41b8152600481019290925267ffffffffffffffff81166024830152600160401b900461ffff16604482015263ffffffff8084166064830152861660848201529192506001600160a01b031690635d3b1d309060a401602060405180830381600087803b15801561188857600080fd5b505af115801561189c573d6000803e3d6000fd5b505050506040513d601f19601f8201168201806040525081019061105f9190612882565b600054610100900460ff166118e75760405162461bcd60e51b815260040161053e90612920565b6117d0611dbe565b600054610100900460ff166117d05760405162461bcd60e51b815260040161053e90612920565b600054610100900460ff1661193d5760405162461bcd60e51b815260040161053e90612920565b61194684611df1565b61195284848484611e21565b50505050565b600061105f8383611ea4565b606060008267ffffffffffffffff81111561198157611981612308565b6040519080825280602002602001820160405280156119aa578160200160208202803683370190505b5090508460005b84811015611a045760006119c5878461296b565b90506119d18784612831565b9250808483815181106119e6576119e66127e6565b602090810291909101015250806119fc81612845565b9150506119b1565b509095945050505050565b60408051600b80825261018082019092526060916000919060208201610160803683370190505060008080527f4423f7c6e52e9185383a9cf02b7a6886e99ba21d91d7a83c121c6d17c40c5b7960209081527fc9411a5902f24ec13f1970edfefe927670fe107a4777ae5a11b056949e223754805460408051828502810185019091528181529495509293611af4939092830182828015611acf57602002820191906000526020600020905b815481526020019060010190808311611abb575b505050505085600081518110611ae757611ae76127e6565b6020026020010151611ece565b90508082600081518110611b0a57611b0a6127e6565b602090810291909101015260015b600b811015611bc7576000828152610198602090815260408083208484528252918290208054835181840281018401909452808452611b989392830182828015611b8157602002820191906000526020600020905b815481526020019060010190808311611b6d575b5050505050868381518110611ae757611ae76127e6565b838281518110611baa57611baa6127e6565b602090810291909101015280611bbf81612845565b915050611b18565b50909392505050565b60006104fc825490565b6060600061105f83611f30565b6001600160a01b0381166000908152600183016020526040812054151561105f565b611c138282611066565b61055157611c2b816001600160a01b03166014611f8c565b611c36836020611f8c565b604051602001611c479291906129ab565b60408051601f198184030181529082905262461bcd60e51b825261053e91600401612a20565b611c778282611066565b6105515760008281526097602090815260408083206001600160a01b03851684529091529020805460ff19166001179055611caf3390565b6001600160a01b0316816001600160a01b0316837f2f8788117e7eff1d82e926ec794901d17c78024a50270940304540a733656f0d60405160405180910390a45050565b611cfd8282611066565b156105515760008281526097602090815260408083206001600160a01b0385168085529252808320805460ff1916905551339285917ff6391f5c32d9c69d2a47ea670b442974b53935d1edc7fd64eb21e047a839171b9190a45050565b600061105f836001600160a01b038416612128565b6000818152600183016020526040812054611db6575081546001818101845560008481526020808220909301849055845484825282860190935260409020919091556104fc565b5060006104fc565b600054610100900460ff16611de55760405162461bcd60e51b815260040161053e90612920565b6033805460ff19169055565b600054610100900460ff16611e185760405162461bcd60e51b815260040161053e90612920565b6110448161221b565b600054610100900460ff16611e485760405162461bcd60e51b815260040161053e90612920565b61012d80546001600160a01b039095166001600160a01b03199095169490941790935561012f805461012e9390935561ffff909316600160401b0269ffffffffffffffffffff1990921667ffffffffffffffff90911617179055565b6000826000018281548110611ebb57611ebb6127e6565b9060005260206000200154905092915050565b6000805b8351811015611f2157838181518110611eed57611eed6127e6565b6020026020010151831015611f0f57611f07600182612715565b9150506104fc565b80611f1981612845565b915050611ed2565b506001835161105f9190612715565b606081600001805480602002602001604051908101604052809291908181526020018280548015611f8057602002820191906000526020600020905b815481526020019060010190808311611f6c575b50505050509050919050565b60606000611f9b8360026127fc565b611fa69060026126fd565b67ffffffffffffffff811115611fbe57611fbe612308565b6040519080825280601f01601f191660200182016040528015611fe8576020820181803683370190505b509050600360fc1b81600081518110612003576120036127e6565b60200101906001600160f81b031916908160001a905350600f60fb1b81600181518110612032576120326127e6565b60200101906001600160f81b031916908160001a90535060006120568460026127fc565b6120619060016126fd565b90505b60018111156120d9576f181899199a1a9b1b9c1cb0b131b232b360811b85600f1660108110612095576120956127e6565b1a60f81b8282815181106120ab576120ab6127e6565b60200101906001600160f81b031916908160001a90535060049490941c936120d281612a53565b9050612064565b50831561105f5760405162461bcd60e51b815260206004820181905260248201527f537472696e67733a20686578206c656e67746820696e73756666696369656e74604482015260640161053e565b6000818152600183016020526040812054801561221157600061214c600183612715565b855490915060009061216090600190612715565b90508181146121c5576000866000018281548110612180576121806127e6565b90600052602060002001549050808760000184815481106121a3576121a36127e6565b6000918252602080832090910192909255918252600188019052604090208390555b85548690806121d6576121d6612a6a565b6001900381819060005260206000200160009055905585600101600086815260200190815260200160002060009055600193505050506104fc565b60009150506104fc565b600054610100900460ff166122425760405162461bcd60e51b815260040161053e90612920565b60fb80546001600160a01b0319166001600160a01b0392909216919091179055565b82805482825590600052602060002090810192821561229f579160200282015b8281111561229f578251825591602001919060010190612284565b506122ab9291506122c9565b5090565b508054600082559060005260206000209081019061104491905b5b808211156122ab57600081556001016122ca565b6000602082840312156122f057600080fd5b81356001600160e01b03198116811461105f57600080fd5b634e487b7160e01b600052604160045260246000fd5b604051601f8201601f1916810167ffffffffffffffff8111828210171561234757612347612308565b604052919050565b600067ffffffffffffffff82111561236957612369612308565b5060051b60200190565b600082601f83011261238457600080fd5b813560206123996123948361234f565b61231e565b82815260059290921b840181019181810190868411156123b857600080fd5b8286015b848110156123d357803583529183019183016123bc565b509695505050505050565b600080604083850312156123f157600080fd5b82359150602083013567ffffffffffffffff81111561240f57600080fd5b61241b85828601612373565b9150509250929050565b60006020828403121561243757600080fd5b5035919050565b80356001600160a01b038116811461245557600080fd5b919050565b6000806040838503121561246d57600080fd5b8235915061247d6020840161243e565b90509250929050565b60008060006060848603121561249b57600080fd5b833592506020840135600281106124b157600080fd5b9150604084013567ffffffffffffffff8111156124cd57600080fd5b6124d986828701612373565b9150509250925092565b600080604083850312156124f657600080fd5b50508035926020909101359150565b60008060006060848603121561251a57600080fd5b8335925060208401359150604084013567ffffffffffffffff8111156124cd57600080fd5b6020808252825182820181905260009190848201906040850190845b818110156125805783516001600160a01b03168352928401929184019160010161255b565b50909695505050505050565b60006020828403121561259e57600080fd5b61105f8261243e565b600081518084526020808501945080840160005b838110156125d7578151875295820195908201906001016125bb565b509495945050505050565b6040815260006125f560408301856125a7565b905082151560208301529392505050565b60008060006060848603121561261b57600080fd5b8335925060208085013567ffffffffffffffff8082111561263b57600080fd5b61264788838901612373565b9450604087013591508082111561265d57600080fd5b818701915087601f83011261267157600080fd5b813561267f6123948261234f565b81815260059190911b8301840190848101908a83111561269e57600080fd5b8585015b838110156126d6578035858111156126ba5760008081fd5b6126c88d89838a0101612373565b8452509186019186016126a2565b508096505050505050509250925092565b634e487b7160e01b600052601160045260246000fd5b60008219821115612710576127106126e7565b500190565b600082821015612727576127276126e7565b500390565b634e487b7160e01b600052602160045260246000fd5b60208152600061105f60208301846125a7565b6000602080838503121561276857600080fd5b825167ffffffffffffffff81111561277f57600080fd5b8301601f8101851361279057600080fd5b805161279e6123948261234f565b81815260059190911b820183019083810190878311156127bd57600080fd5b928401925b828410156127db578351825292840192908401906127c2565b979650505050505050565b634e487b7160e01b600052603260045260246000fd5b6000816000190483118215151615612816576128166126e7565b500290565b634e487b7160e01b600052601260045260246000fd5b6000826128405761284061281b565b500490565b6000600019821415612859576128596126e7565b5060010190565b60006020828403121561287257600080fd5b8151801515811461105f57600080fd5b60006020828403121561289457600080fd5b5051919050565b8481528360208201526080604082015260006128ba60808301856125a7565b82810360608401526127db81856125a7565b600063ffffffff808316818516818304811182151516156128ef576128ef6126e7565b02949350505050565b600063ffffffff808316818516808303821115612917576129176126e7565b01949350505050565b6020808252602b908201527f496e697469616c697a61626c653a20636f6e7472616374206973206e6f74206960408201526a6e697469616c697a696e6760a81b606082015260800190565b60008261297a5761297a61281b565b500690565b60005b8381101561299a578181015183820152602001612982565b838111156119525750506000910152565b7f416363657373436f6e74726f6c3a206163636f756e74200000000000000000008152600083516129e381601785016020880161297f565b7001034b99036b4b9b9b4b733903937b6329607d1b6017918401918201528351612a1481602884016020880161297f565b01602801949350505050565b6020815260008251806020840152612a3f81604085016020870161297f565b601f01601f19169190910160400192915050565b600081612a6257612a626126e7565b506000190190565b634e487b7160e01b600052603160045260246000fdfea49807205ce4d355092ef5a8a18f56e8913cf4a201fbe287825b095693c21775a2646970667358221220c2de8d609c232a3e95c94bcaa1ea20a2ec72e05ccf4fcc4167195f620e578e7764736f6c63430008090033",
  "linkReferences": {},
  "deployedLinkReferences": {}
}