{
  "_format": "hh-sol-artifact-1",
  "contractName": "CosmicElvesMinter",
  "sourceName": "contracts/upgradeable/npc/CosmicElvesMinter.sol",
  "abi": [
    {
      "inputs": [],
      "stateMutability": "nonpayable",
      "type": "constructor"
    },
    {
      "inputs": [
        {
          "internalType": "address",
          "name": "have",
          "type": "address"
        },
        {
          "internalType": "address",
          "name": "want",
          "type": "address"
        }
      ],
      "name": "OnlyCoordinatorCanFulfill",
      "type": "error"
    },
    {
      "anonymous": false,
      "inputs": [
        {
          "indexed": false,
          "internalType": "uint8",
          "name": "version",
          "type": "uint8"
        }
      ],
      "name": "Initialized",
      "type": "event"
    },
    {
      "anonymous": false,
      "inputs": [
        {
          "indexed": false,
          "internalType": "address",
          "name": "account",
          "type": "address"
        }
      ],
      "name": "Paused",
      "type": "event"
    },
    {
      "anonymous": false,
      "inputs": [
        {
          "indexed": true,
          "internalType": "bytes32",
          "name": "role",
          "type": "bytes32"
        },
        {
          "indexed": true,
          "internalType": "bytes32",
          "name": "previousAdminRole",
          "type": "bytes32"
        },
        {
          "indexed": true,
          "internalType": "bytes32",
          "name": "newAdminRole",
          "type": "bytes32"
        }
      ],
      "name": "RoleAdminChanged",
      "type": "event"
    },
    {
      "anonymous": false,
      "inputs": [
        {
          "indexed": true,
          "internalType": "bytes32",
          "name": "role",
          "type": "bytes32"
        },
        {
          "indexed": true,
          "internalType": "address",
          "name": "account",
          "type": "address"
        },
        {
          "indexed": true,
          "internalType": "address",
          "name": "sender",
          "type": "address"
        }
      ],
      "name": "RoleGranted",
      "type": "event"
    },
    {
      "anonymous": false,
      "inputs": [
        {
          "indexed": true,
          "internalType": "bytes32",
          "name": "role",
          "type": "bytes32"
        },
        {
          "indexed": true,
          "internalType": "address",
          "name": "account",
          "type": "address"
        },
        {
          "indexed": true,
          "internalType": "address",
          "name": "sender",
          "type": "address"
        }
      ],
      "name": "RoleRevoked",
      "type": "event"
    },
    {
      "anonymous": false,
      "inputs": [
        {
          "indexed": false,
          "internalType": "address",
          "name": "account",
          "type": "address"
        }
      ],
      "name": "Unpaused",
      "type": "event"
    },
    {
      "anonymous": false,
      "inputs": [
        {
          "indexed": true,
          "internalType": "address",
          "name": "from",
          "type": "address"
        },
        {
          "indexed": true,
          "internalType": "address",
          "name": "to",
          "type": "address"
        },
        {
          "indexed": false,
          "internalType": "uint256",
          "name": "amount",
          "type": "uint256"
        }
      ],
      "name": "creditsAdded",
      "type": "event"
    },
    {
      "anonymous": false,
      "inputs": [
        {
          "indexed": true,
          "internalType": "address",
          "name": "from",
          "type": "address"
        },
        {
          "indexed": false,
          "internalType": "uint256",
          "name": "amount",
          "type": "uint256"
        }
      ],
      "name": "creditsUsed",
      "type": "event"
    },
    {
      "inputs": [],
      "name": "ADMIN_ROLE",
      "outputs": [
        {
          "internalType": "bytes32",
          "name": "",
          "type": "bytes32"
        }
      ],
      "stateMutability": "view",
      "type": "function"
    },
    {
      "inputs": [],
      "name": "CONTRACT_ROLE",
      "outputs": [
        {
          "internalType": "bytes32",
          "name": "",
          "type": "bytes32"
        }
      ],
      "stateMutability": "view",
      "type": "function"
    },
    {
      "inputs": [],
      "name": "DEFAULT_ADMIN_ROLE",
      "outputs": [
        {
          "internalType": "bytes32",
          "name": "",
          "type": "bytes32"
        }
      ],
      "stateMutability": "view",
      "type": "function"
    },
    {
      "inputs": [],
      "name": "ELVES",
      "outputs": [
        {
          "internalType": "contract ICosmicElves",
          "name": "",
          "type": "address"
        }
      ],
      "stateMutability": "view",
      "type": "function"
    },
    {
      "inputs": [],
      "name": "ETICKET",
      "outputs": [
        {
          "internalType": "contract ICosmicElvesTicket",
          "name": "",
          "type": "address"
        }
      ],
      "stateMutability": "view",
      "type": "function"
    },
    {
      "inputs": [],
      "name": "TEAM_ROLE",
      "outputs": [
        {
          "internalType": "bytes32",
          "name": "",
          "type": "bytes32"
        }
      ],
      "stateMutability": "view",
      "type": "function"
    },
    {
      "inputs": [],
      "name": "USDC",
      "outputs": [
        {
          "internalType": "contract IERC20Upgradeable",
          "name": "",
          "type": "address"
        }
      ],
      "stateMutability": "view",
      "type": "function"
    },
    {
      "inputs": [
        {
          "internalType": "address",
          "name": "account",
          "type": "address"
        },
        {
          "internalType": "uint256",
          "name": "count",
          "type": "uint256"
        }
      ],
      "name": "_mint",
      "outputs": [],
      "stateMutability": "nonpayable",
      "type": "function"
    },
    {
      "inputs": [
        {
          "internalType": "address[]",
          "name": "accounts",
          "type": "address[]"
        },
        {
          "internalType": "uint256[]",
          "name": "amounts",
          "type": "uint256[]"
        }
      ],
      "name": "addCredit",
      "outputs": [],
      "stateMutability": "nonpayable",
      "type": "function"
    },
    {
      "inputs": [
        {
          "internalType": "address",
          "name": "account",
          "type": "address"
        },
        {
          "internalType": "uint256",
          "name": "count",
          "type": "uint256"
        }
      ],
      "name": "adminAddRandomness",
      "outputs": [],
      "stateMutability": "nonpayable",
      "type": "function"
    },
    {
      "inputs": [
        {
          "internalType": "address",
          "name": "account",
          "type": "address"
        },
        {
          "internalType": "uint256",
          "name": "count",
          "type": "uint256"
        }
      ],
      "name": "adminForceMint",
      "outputs": [],
      "stateMutability": "nonpayable",
      "type": "function"
    },
    {
      "inputs": [
        {
          "internalType": "address",
          "name": "account",
          "type": "address"
        },
        {
          "internalType": "uint256",
          "name": "begin",
          "type": "uint256"
        },
        {
          "internalType": "uint256",
          "name": "end",
          "type": "uint256"
        }
      ],
      "name": "adminForceSpecific",
      "outputs": [],
      "stateMutability": "nonpayable",
      "type": "function"
    },
    {
      "inputs": [
        {
          "internalType": "uint256",
          "name": "count",
          "type": "uint256"
        }
      ],
      "name": "adminRequest",
      "outputs": [],
      "stateMutability": "nonpayable",
      "type": "function"
    },
    {
      "inputs": [
        {
          "internalType": "uint256",
          "name": "count",
          "type": "uint256"
        },
        {
          "internalType": "uint256[]",
          "name": "tickets",
          "type": "uint256[]"
        }
      ],
      "name": "buy",
      "outputs": [],
      "stateMutability": "nonpayable",
      "type": "function"
    },
    {
      "inputs": [],
      "name": "cap",
      "outputs": [
        {
          "internalType": "uint256",
          "name": "",
          "type": "uint256"
        }
      ],
      "stateMutability": "view",
      "type": "function"
    },
    {
      "inputs": [
        {
          "internalType": "address",
          "name": "account",
          "type": "address"
        }
      ],
      "name": "creditOf",
      "outputs": [
        {
          "internalType": "uint256",
          "name": "",
          "type": "uint256"
        }
      ],
      "stateMutability": "view",
      "type": "function"
    },
    {
      "inputs": [],
      "name": "getBlacklisted",
      "outputs": [
        {
          "internalType": "address[]",
          "name": "",
          "type": "address[]"
        }
      ],
      "stateMutability": "view",
      "type": "function"
    },
    {
      "inputs": [
        {
          "internalType": "bytes32",
          "name": "role",
          "type": "bytes32"
        }
      ],
      "name": "getRoleAdmin",
      "outputs": [
        {
          "internalType": "bytes32",
          "name": "",
          "type": "bytes32"
        }
      ],
      "stateMutability": "view",
      "type": "function"
    },
    {
      "inputs": [
        {
          "internalType": "bytes32",
          "name": "role",
          "type": "bytes32"
        },
        {
          "internalType": "uint256",
          "name": "index",
          "type": "uint256"
        }
      ],
      "name": "getRoleMember",
      "outputs": [
        {
          "internalType": "address",
          "name": "",
          "type": "address"
        }
      ],
      "stateMutability": "view",
      "type": "function"
    },
    {
      "inputs": [
        {
          "internalType": "bytes32",
          "name": "role",
          "type": "bytes32"
        }
      ],
      "name": "getRoleMemberCount",
      "outputs": [
        {
          "internalType": "uint256",
          "name": "",
          "type": "uint256"
        }
      ],
      "stateMutability": "view",
      "type": "function"
    },
    {
      "inputs": [
        {
          "internalType": "bytes32",
          "name": "role",
          "type": "bytes32"
        },
        {
          "internalType": "address",
          "name": "account",
          "type": "address"
        }
      ],
      "name": "grantRole",
      "outputs": [],
      "stateMutability": "nonpayable",
      "type": "function"
    },
    {
      "inputs": [
        {
          "internalType": "bytes32",
          "name": "role",
          "type": "bytes32"
        },
        {
          "internalType": "address",
          "name": "account",
          "type": "address"
        }
      ],
      "name": "hasRole",
      "outputs": [
        {
          "internalType": "bool",
          "name": "",
          "type": "bool"
        }
      ],
      "stateMutability": "view",
      "type": "function"
    },
    {
      "inputs": [],
      "name": "initialize",
      "outputs": [],
      "stateMutability": "nonpayable",
      "type": "function"
    },
    {
      "inputs": [
        {
          "internalType": "address",
          "name": "user",
          "type": "address"
        }
      ],
      "name": "isBlacklisted",
      "outputs": [
        {
          "internalType": "bool",
          "name": "",
          "type": "bool"
        }
      ],
      "stateMutability": "view",
      "type": "function"
    },
    {
      "inputs": [],
      "name": "lastTokenId",
      "outputs": [
        {
          "internalType": "uint256",
          "name": "",
          "type": "uint256"
        }
      ],
      "stateMutability": "view",
      "type": "function"
    },
    {
      "inputs": [
        {
          "internalType": "uint256",
          "name": "count",
          "type": "uint256"
        }
      ],
      "name": "mint",
      "outputs": [],
      "stateMutability": "nonpayable",
      "type": "function"
    },
    {
      "inputs": [],
      "name": "paused",
      "outputs": [
        {
          "internalType": "bool",
          "name": "",
          "type": "bool"
        }
      ],
      "stateMutability": "view",
      "type": "function"
    },
    {
      "inputs": [
        {
          "internalType": "address",
          "name": "user",
          "type": "address"
        }
      ],
      "name": "pendingData",
      "outputs": [
        {
          "internalType": "uint256[]",
          "name": "",
          "type": "uint256[]"
        },
        {
          "internalType": "uint256[]",
          "name": "",
          "type": "uint256[]"
        },
        {
          "internalType": "uint256",
          "name": "",
          "type": "uint256"
        }
      ],
      "stateMutability": "view",
      "type": "function"
    },
    {
      "inputs": [
        {
          "internalType": "address",
          "name": "user",
          "type": "address"
        }
      ],
      "name": "pendingMintsOf",
      "outputs": [
        {
          "internalType": "uint256[]",
          "name": "",
          "type": "uint256[]"
        },
        {
          "internalType": "bool",
          "name": "",
          "type": "bool"
        }
      ],
      "stateMutability": "view",
      "type": "function"
    },
    {
      "inputs": [],
      "name": "price",
      "outputs": [
        {
          "internalType": "uint256",
          "name": "",
          "type": "uint256"
        }
      ],
      "stateMutability": "view",
      "type": "function"
    },
    {
      "inputs": [
        {
          "internalType": "uint256",
          "name": "requestId",
          "type": "uint256"
        },
        {
          "internalType": "uint256[]",
          "name": "randomWords",
          "type": "uint256[]"
        }
      ],
      "name": "rawFulfillRandomWords",
      "outputs": [],
      "stateMutability": "nonpayable",
      "type": "function"
    },
    {
      "inputs": [
        {
          "internalType": "bytes32",
          "name": "role",
          "type": "bytes32"
        },
        {
          "internalType": "address",
          "name": "account",
          "type": "address"
        }
      ],
      "name": "renounceRole",
      "outputs": [],
      "stateMutability": "nonpayable",
      "type": "function"
    },
    {
      "inputs": [
        {
          "internalType": "bytes32",
          "name": "role",
          "type": "bytes32"
        },
        {
          "internalType": "address",
          "name": "account",
          "type": "address"
        }
      ],
      "name": "revokeRole",
      "outputs": [],
      "stateMutability": "nonpayable",
      "type": "function"
    },
    {
      "inputs": [
        {
          "internalType": "uint256",
          "name": "gender",
          "type": "uint256"
        },
        {
          "internalType": "uint256",
          "name": "attribute",
          "type": "uint256"
        },
        {
          "internalType": "uint256[]",
          "name": "weights",
          "type": "uint256[]"
        }
      ],
      "name": "setAttributeWeights",
      "outputs": [],
      "stateMutability": "nonpayable",
      "type": "function"
    },
    {
      "inputs": [
        {
          "internalType": "uint256",
          "name": "gender",
          "type": "uint256"
        },
        {
          "internalType": "uint256[]",
          "name": "attributes",
          "type": "uint256[]"
        },
        {
          "internalType": "uint256[][]",
          "name": "weights",
          "type": "uint256[][]"
        }
      ],
      "name": "setAttributesWeights",
      "outputs": [],
      "stateMutability": "nonpayable",
      "type": "function"
    },
    {
      "inputs": [
        {
          "internalType": "address[]",
          "name": "accounts",
          "type": "address[]"
        },
        {
          "internalType": "uint256[]",
          "name": "amounts",
          "type": "uint256[]"
        }
      ],
      "name": "setCredit",
      "outputs": [],
      "stateMutability": "nonpayable",
      "type": "function"
    },
    {
      "inputs": [
        {
          "internalType": "uint256",
          "name": "_price",
          "type": "uint256"
        }
      ],
      "name": "setPrice",
      "outputs": [],
      "stateMutability": "nonpayable",
      "type": "function"
    },
    {
      "inputs": [
        {
          "internalType": "uint256",
          "name": "total",
          "type": "uint256"
        }
      ],
      "name": "setTotalElvesTickets",
      "outputs": [],
      "stateMutability": "nonpayable",
      "type": "function"
    },
    {
      "inputs": [],
      "name": "startTime",
      "outputs": [
        {
          "internalType": "uint256",
          "name": "",
          "type": "uint256"
        }
      ],
      "stateMutability": "view",
      "type": "function"
    },
    {
      "inputs": [
        {
          "internalType": "bytes4",
          "name": "interfaceId",
          "type": "bytes4"
        }
      ],
      "name": "supportsInterface",
      "outputs": [
        {
          "internalType": "bool",
          "name": "",
          "type": "bool"
        }
      ],
      "stateMutability": "view",
      "type": "function"
    },
    {
      "inputs": [],
      "name": "treasury",
      "outputs": [
        {
          "internalType": "address",
          "name": "",
          "type": "address"
        }
      ],
      "stateMutability": "view",
      "type": "function"
    }
  ],
  "bytecode": "0x60806040523480156200001157600080fd5b506200001c62000022565b620000e4565b600054610100900460ff16156200008f5760405162461bcd60e51b815260206004820152602760248201527f496e697469616c697a61626c653a20636f6e747261637420697320696e697469604482015266616c697a696e6760c81b606482015260840160405180910390fd5b60005460ff9081161015620000e2576000805460ff191660ff9081179091556040519081527f7f26b83ff96e1f2b6a682f133852f6798a09c465da95921460cefb38474024989060200160405180910390a15b565b6139c280620000f46000396000f3fe608060405234801561001057600080fd5b50600436106102535760003560e01c80639010d07c11610146578063c7f96881116100c3578063e08e63ac11610087578063e08e63ac14610551578063e6320a0a14610572578063f017120214610585578063f714bc7d146105a0578063f84ddf0b146105b3578063fe575a87146105bb57600080fd5b8063c7f96881146104f0578063ca15c87314610503578063ce3675ad14610516578063cf4682951461052b578063d547741f1461053e57600080fd5b8063a217fddf1161010a578063a217fddf14610494578063a86e6b291461049c578063bf6df5c2146104af578063c17883d6146104c2578063c33d3fb0146104d557600080fd5b80639010d07c1461043e57806391b7f5ed1461045157806391d1485414610464578063a035b1fe14610477578063a0712d681461048157600080fd5b806349d5e604116101d4578063758072501161019857806375807250146103e957806375b238fc146103fc57806378e97925146104115780638129fc1c1461041b57806389a302711461042357600080fd5b806349d5e604146103565780634e6ec2471461037d5780635c975abb146103905780635f311ca41461039b57806361d027b3146103bd57600080fd5b80632def70f11161021b5780632def70f1146103005780632f2ff15d14610313578063355274ea1461032657806336568abe1461033057806343597e051461034357600080fd5b806301ffc9a71461025857806303fe46ab1461028057806315e0e686146102b55780631fe543e3146102ca578063248a9ca3146102dd575b600080fd5b61026b61026636600461302f565b6105ce565b60405190151581526020015b60405180910390f35b6102a77f364d3d7565c7a8300c96fd53e065d19b65848d7b23b3191adcd55621c744223c81565b604051908152602001610277565b6102c86102c3366004613075565b6105f9565b005b6102c86102d836600461317c565b6108be565b6102a76102eb3660046131c2565b60009081526097602052604090206001015490565b6102c861030e3660046131db565b61090c565b6102c8610321366004613205565b610a7c565b6102a76101925481565b6102c861033e366004613205565b610aa6565b6102c86103513660046131c2565b610b20565b6102a77f5146a08baf902532d0ee2f909971144f12ca32651cd70cbee1117cddfb3b3b3381565b6102c861038b3660046131db565b610d96565b60335460ff1661026b565b6103ae6103a9366004613231565b611147565b60405161027793929190613287565b610194546103d1906001600160a01b031681565b6040516001600160a01b039091168152602001610277565b6102a76103f7366004613231565b611220565b6102a760008051602061396d83398151915281565b6102a76101915481565b6102c861124b565b6103d173b97ef9ef8734c71904d8002f8b6bc66dd9c48a6e81565b6103d161044c3660046132bd565b6114c4565b6102c861045f3660046131c2565b6114e3565b61026b610472366004613205565b611502565b6102a761019b5481565b6102c861048f3660046131c2565b61152d565b6102a7600081565b6102c86104aa3660046132df565b611537565b6102c86104bd3660046131c2565b6115ff565b6102c86104d0366004613394565b61161e565b6103d1739a337a6f883de95f49e05cd7d801d475a40a9c7081565b6102c86104fe3660046131db565b61171d565b6102a76105113660046131c2565b61173f565b61051e611756565b60405161027791906133e3565b6102c86105393660046132df565b611768565b6102c861054c366004613205565b6118db565b61056461055f366004613231565b611900565b604051610277929190613430565b6102c861058036600461317c565b61197f565b6103d17387d0f9ff4b51eefe9f5f1578bc35e4dda28bbd1e81565b6102c86105ae366004613454565b61209b565b6102a761210e565b61026b6105c9366004613231565b61211a565b60006001600160e01b03198216635a05180f60e01b14806105f357506105f382612128565b92915050565b6001600160a01b038316600090815261019560205260409020600181015461065a5760405162461bcd60e51b815260206004820152600f60248201526e139bc81c195b991a5b99c81b5a5b9d608a1b60448201526064015b60405180910390fd5b80546002820154146106a65760405162461bcd60e51b8152602060048201526015602482015274526573756c7473207374696c6c2070656e64696e6760581b6044820152606401610651565b60408051600b8082526101808201909252600091602082016101608036833701905050905060005b600b81101561070757808282815181106106ea576106ea613534565b6020908102919091010152806106ff81613560565b9150506106ce565b50835b8381101561086f57600083600001828154811061072957610729613534565b90600052602060002001549050600061076585600201848154811061075057610750613534565b9060005260206000200154612710600b61215d565b9050600061077282612207565b6040516340c10f1960e01b81526001600160a01b038b16600482015260248101859052909150739a337a6f883de95f49e05cd7d801d475a40a9c70906340c10f1990604401600060405180830381600087803b1580156107d157600080fd5b505af11580156107e5573d6000803e3d6000fd5b505060405163e2862b6b60e01b8152739a337a6f883de95f49e05cd7d801d475a40a9c70925063e2862b6b91506108279086906000908a908790600401613579565b600060405180830381600087803b15801561084157600080fd5b505af1158015610855573d6000803e3d6000fd5b50505050505050808061086790613560565b91505061070a565b50815483036108b7576001600160a01b0385166000908152610195602052604081209061089c8282612fb1565b60018201600090556002820160006108b49190612fb1565b50505b5050505050565b60fb546001600160a01b031633146108fe5760fb5460405163073e64fd60e21b81523360048201526001600160a01b039091166024820152604401610651565b61090882826123c8565b5050565b60008051602061396d8339815191526109248161248b565b6001600160a01b038316600090815261019560205260409020805461099f5760405162461bcd60e51b815260206004820152602b60248201527f456c7665734d696e7465723a3a4e6f2070656e64696e6720726571756573742060448201526a199bdc881858d8dbdd5b9d60aa1b6064820152608401610651565b6002810154815411610a0d5760405162461bcd60e51b815260206004820152603160248201527f456c7665734d696e7465723a3a50656e64696e67207265717565737420697320604482015270185b1c9958591e481cd85d1a5cd99a5959607a1b6064820152608401610651565b60028101548154600091610a20916135b5565b9050600084821015610a325781610a34565b845b9050610a3f81612495565b6001909301839055505060009081526101966020526040902080546001600160a01b039094166001600160a01b0319909416939093179092555050565b600082815260976020526040902060010154610a978161248b565b610aa1838361255e565b505050565b6001600160a01b0381163314610b165760405162461bcd60e51b815260206004820152602f60248201527f416363657373436f6e74726f6c3a2063616e206f6e6c792072656e6f756e636560448201526e103937b632b9903337b91039b2b63360891b6064820152608401610651565b6109088282612580565b610b286125a2565b60008051602061396d833981519152610b408161248b565b33600090815261019560205260409020600181015415610b9e5760405162461bcd60e51b81526020600482015260196024820152784578697374696e67206d696e7420696e2070726f677265737360381b6044820152606401610651565b60008311610be35760405162461bcd60e51b8152602060048201526012602482015271135a5b9a5b5d5b480c481c195c881b5a5b9d60721b6044820152606401610651565b600a831115610c2a5760405162461bcd60e51b815260206004820152601360248201527213585e1a5b5d5b480c4c081c195c881b5a5b9d606a1b6044820152606401610651565b6000610c366101a05490565b9050610192548110610c755760405162461bcd60e51b815260206004820152600860248201526714dbdb19081bdd5d60c21b6044820152606401610651565b61019254610c8385836135c8565b1115610cd15760405162461bcd60e51b815260206004820152601b60248201527f496e73756666696369656e742072656d61696e696e67204e46547300000000006044820152606401610651565b336000908152610197602052604081208054869290610cf19084906135c8565b90915550503360009081526101976020526040902054600311610d1c57610d1a610199336125ea565b505b610d2584612495565b6001830181905560009081526101966020526040812080546001600160a01b031916331790555b848110156108b757610d636101a080546001019055565b82610d6e6101a05490565b8154600181018355600092835260209092209091015580610d8e81613560565b915050610d4c565b6001600160a01b0382166000908152610195602052604090206001810154610df25760405162461bcd60e51b815260206004820152600f60248201526e139bc81c195b991a5b99c81b5a5b9d608a1b6044820152606401610651565b8054600282015414610e3e5760405162461bcd60e51b8152602060048201526015602482015274526573756c7473207374696c6c2070656e64696e6760581b6044820152606401610651565b8054821115610e4c836125ff565b8254610e57906125ff565b604051602001610e689291906135ff565b60405160208183030381529060405290610e955760405162461bcd60e51b8152600401610651919061365b565b5060408051600b80825261018082019092526000916060918291849190602082016101608036833701905050905060005b600b811015610eff5780828281518110610ee257610ee2613534565b602090810291909101015280610ef781613560565b915050610ec6565b5060005b85548110156110ca576000866000018281548110610f2357610f23613534565b90600052602060002001549050878210610fa65780858781518110610f4a57610f4a613534565b602002602001018181525050866002018281548110610f6b57610f6b613534565b9060005260206000200154848781518110610f8857610f88613534565b602090810291909101015285610f9d81613560565b965050506110b8565b6000610fc088600201848154811061075057610750613534565b90506000610fcd82612207565b6040516340c10f1960e01b81526001600160a01b038d16600482015260248101859052909150739a337a6f883de95f49e05cd7d801d475a40a9c70906340c10f1990604401600060405180830381600087803b15801561102c57600080fd5b505af1158015611040573d6000803e3d6000fd5b505060405163e2862b6b60e01b8152739a337a6f883de95f49e05cd7d801d475a40a9c70925063e2862b6b91506110829086906000908a908790600401613579565b600060405180830381600087803b15801561109c57600080fd5b505af11580156110b0573d6000803e3d6000fd5b505050505050505b806110c281613560565b915050610f03565b508251156111005782516110e49086906020860190612fcf565b5081516110fa9060028701906020850190612fcf565b506108b4565b6001600160a01b038716600090815261019560205260408120906111248282612fb1565b600182016000905560028201600061113c9190612fb1565b505050505050505050565b6001600160a01b038116600090815261019560209081526040808320600181015481548351818602810186019094528084526060958695909460028501939290918591908301828280156111ba57602002820191906000526020600020905b8154815260200190600101908083116111a6575b505050505092508180548060200260200160405190810160405280929190818152602001828054801561120c57602002820191906000526020600020905b8154815260200190600101908083116111f8575b505050505091509250925092509193909250565b600080806112306101a185612691565b915091508115611241579392505050565b5060009392505050565b600054610100900460ff161580801561126b5750600054600160ff909116105b806112855750303b158015611285575060005460ff166001145b6112e85760405162461bcd60e51b815260206004820152602e60248201527f496e697469616c697a61626c653a20636f6e747261637420697320616c72656160448201526d191e481a5b9a5d1a585b1a5e995960921b6064820152608401610651565b6000805460ff19166001179055801561130b576000805461ff0019166101001790555b6113136126b8565b61131b6126e7565b73d5d517abe5cf79b7e95ec98db0f0277788aff6347f83250c5584ffa93feb6ee082981c5ebe484c865196750b39835ad4f13780435d601b60036113618484848461270e565b61136c60003361255e565b61138460008051602061396d8339815191523361255e565b6113ae7f364d3d7565c7a8300c96fd53e065d19b65848d7b23b3191adcd55621c744223c3361255e565b63630aa1f06101915561019480546001600160a01b03191673d2578a0b2631e591890f28499e9e8d73f21e5895179055630ee6b28061019b5569d3c21bcecceda100000061019355612710610192556040805163f84ddf0b60e01b815290517387d0f9ff4b51eefe9f5f1578bc35e4dda28bbd1e9163f84ddf0b9160048083019260209291908290030181865afa15801561144d573d6000803e3d6000fd5b505050506040513d601f19601f82011682018060405250810190611471919061368e565b61019e555050821591506114c19050576000805461ff0019169055604051600181527f7f26b83ff96e1f2b6a682f133852f6798a09c465da95921460cefb38474024989060200160405180910390a15b50565b600082815260c9602052604081206114dc908361274a565b9392505050565b60008051602061396d8339815191526114fb8161248b565b5061019b55565b60009182526097602090815260408084206001600160a01b0393909316845291905290205460ff1690565b6114c13382610d96565b60008051602061396d83398151915261154f8161248b565b60008351116115705760405162461bcd60e51b8152600401610651906136a7565b81518351146115915760405162461bcd60e51b8152600401610651906136e9565b60005b83518110156115f9576115e68482815181106115b2576115b2613534565b60200260200101518483815181106115cc576115cc613534565b60200260200101516101a16127569092919063ffffffff16565b50806115f181613560565b915050611594565b50505050565b60008051602061396d8339815191526116178161248b565b5061019e55565b60008051602061396d8339815191526116368161248b565b81516001600160401b0381111561164f5761164f6130a8565b604051908082528060200260200182016040528015611678578160200160208202803683370190505b50600085815261019860209081526040808320878452825290912082516116a59391929190910190612fcf565b506000848152610198602090815260408083208684529091528120905b8351811015611715578381815181106116dd576116dd613534565b60200260200101518282815481106116f7576116f7613534565b6000918252602090912001558061170d81613560565b9150506116c2565b505050505050565b60008051602061396d8339815191526117358161248b565b610aa18383610d96565b600081815260c9602052604081206105f390612774565b606061176361015e61277e565b905090565b60008051602061396d8339815191526117808161248b565b60008351116117a15760405162461bcd60e51b8152600401610651906136a7565b81518351146117c25760405162461bcd60e51b8152600401610651906136e9565b60005b83518110156115f95760008382815181106117e2576117e2613534565b602002602001015161180c8684815181106117ff576117ff613534565b6020026020010151611220565b61181691906135c8565b905061184885838151811061182d5761182d613534565b6020026020010151826101a16127569092919063ffffffff16565b5084828151811061185b5761185b613534565b60200260200101516001600160a01b0316336001600160a01b03167f6c5c36faeebf9922d9c0f8de4d1e731e14c8d163500d0655a49c0fe470d6f5158685815181106118a9576118a9613534565b60200260200101516040516118c091815260200190565b60405180910390a350806118d381613560565b9150506117c5565b6000828152609760205260409020600101546118f68161248b565b610aa18383612580565b6001600160a01b03811660009081526101956020908152604080832080546002820154835182860281018601909452818452606095949293908214929091849183018282801561196f57602002820191906000526020600020905b81548152602001906001019080831161195b575b5050505050915091509150915091565b6119876125a2565b61019154421015806119ac57506119ac60008051602061396d83398151915233611502565b806119dc57506119dc7f5146a08baf902532d0ee2f909971144f12ca32651cd70cbee1117cddfb3b3b3333611502565b611a1f5760405162461bcd60e51b8152602060048201526014602482015273135a5b9d081a185cc81b9bdd081cdd185c9d195960621b6044820152606401610651565b33600090815261019560205260409020600181015415611a7d5760405162461bcd60e51b81526020600482015260196024820152784578697374696e67206d696e7420696e2070726f677265737360381b6044820152606401610651565b60008311611ac25760405162461bcd60e51b8152602060048201526012602482015271135a5b9a5b5d5b480c481c195c881b5a5b9d60721b6044820152606401610651565b6032831115611b095760405162461bcd60e51b815260206004820152601360248201527213585e1a5b5d5b480d4c081c195c881b5a5b9d606a1b6044820152606401610651565b8282511115611b685760405162461bcd60e51b815260206004820152602560248201527f5469636b657420636f756e742063616e6e6f7420657863656564206d696e742060448201526418dbdd5b9d60da1b6064820152608401610651565b6000611b746101a05490565b9050610192548110611bb35760405162461bcd60e51b815260206004820152600860248201526714dbdb19081bdd5d60c21b6044820152606401610651565b61019254611bc185836135c8565b1115611c0f5760405162461bcd60e51b815260206004820152601b60248201527f496e73756666696369656e742072656d61696e696e67204e46547300000000006044820152606401610651565b8381845161019254611c2191906135c8565b611c2b91906135b5565b1015611c885760405162461bcd60e51b815260206004820152602660248201527f496e73756666696369656e7420756e7265736572766564204e4654732072656d60448201526561696e696e6760d01b6064820152608401610651565b604051631e9d710160e01b815260009081907387d0f9ff4b51eefe9f5f1578bc35e4dda28bbd1e90631e9d710190611cc490889060040161372b565b600060405180830381865afa158015611ce1573d6000803e3d6000fd5b505050506040513d6000823e601f3d908101601f19168201604052611d09919081019061373e565b905060005b8151811015611e04577387d0f9ff4b51eefe9f5f1578bc35e4dda28bbd1e6001600160a01b03166342966c68878381518110611d4c57611d4c613534565b60200260200101516040518263ffffffff1660e01b8152600401611d7291815260200190565b600060405180830381600087803b158015611d8c57600080fd5b505af1158015611da0573d6000803e3d6000fd5b50505050606461019b54838381518110611dbc57611dbc613534565b6020026020010151611dce91906137c3565b611dd891906137f0565b61019b54611de691906135b5565b611df090846135c8565b925080611dfc81613560565b915050611d0e565b50805161019f6000828254611e1991906135c8565b90915550508451861115611e4e578451611e3390876135b5565b61019b54611e4191906137c3565b611e4b90836135c8565b91505b6000611e5933611220565b9050828110611eb957611e7a33611e7085846135b5565b6101a19190612756565b5060405183815233907f9b381de3d2e47de168e6422ae429138dfcb02605c437cb446073fb4d0a797cfd9060200160405180910390a260009250611f1c565b8281108015611ec85750600081115b15611f1c57611ed781846135b5565b9250611ee56101a13361278b565b5060405181815233907f9b381de3d2e47de168e6422ae429138dfcb02605c437cb446073fb4d0a797cfd9060200160405180910390a25b8215611fcc57610194546040516323b872dd60e01b81523360048201526001600160a01b0390911660248201526044810184905273b97ef9ef8734c71904d8002f8b6bc66dd9c48a6e906323b872dd906064016020604051808303816000875af1158015611f8e573d6000803e3d6000fd5b505050506040513d601f19601f82011682018060405250810190611fb29190613804565b508261019c6000828254611fc691906135c8565b90915550505b336000908152610197602052604081208054899290611fec9084906135c8565b9091555050336000908152610197602052604090205460031161201757612015610199336125ea565b505b61202087612495565b6001860181905560009081526101966020526040812080546001600160a01b031916331790555b878110156120915761205e6101a080546001019055565b856120696101a05490565b815460018101835560009283526020909220909101558061208981613560565b915050612047565b5050505050505050565b60008051602061396d8339815191526120b38161248b565b60005b83518110156108b7576120fc858583815181106120d5576120d5613534565b60200260200101518584815181106120ef576120ef613534565b602002602001015161161e565b8061210681613560565b9150506120b6565b60006117636101a05490565b60006105f361015e836127a0565b60006001600160e01b03198216637965db0b60e01b14806105f357506301ffc9a760e01b6001600160e01b03198316146105f3565b60606000826001600160401b03811115612179576121796130a8565b6040519080825280602002602001820160405280156121a2578160200160208202803683370190505b5090508460005b848110156121fc5760006121bd8784613826565b90506121c987846137f0565b9250808483815181106121de576121de613534565b602090810291909101015250806121f481613560565b9150506121a9565b509095945050505050565b60408051600b80825261018082019092526060916000919060208201610160803683370190505060008080527f4423f7c6e52e9185383a9cf02b7a6886e99ba21d91d7a83c121c6d17c40c5b7960209081527fc9411a5902f24ec13f1970edfefe927670fe107a4777ae5a11b056949e2237548054604080518285028101850190915281815294955092936122ec9390928301828280156122c757602002820191906000526020600020905b8154815260200190600101908083116122b3575b5050505050856000815181106122df576122df613534565b60200260200101516127c2565b9050808260008151811061230257612302613534565b602090810291909101015260015b600b8110156123bf576000828152610198602090815260408083208484528252918290208054835181840281018401909452808452612390939283018282801561237957602002820191906000526020600020905b815481526020019060010190808311612365575b50505050508683815181106122df576122df613534565b8382815181106123a2576123a2613534565b6020908102919091010152806123b781613560565b915050612310565b50909392505050565b600082815261019660209081526040808320546001600160a01b031683526101959091528120600281015490910361241557815161240f9060028301906020850190612fcf565b5061246a565b60005b8251811015612468578160020183828151811061243757612437613534565b602090810291909101810151825460018101845560009384529190922001558061246081613560565b915050612418565b505b505060009081526101966020526040902080546001600160a01b0319169055565b6114c18133612824565b6000806124a483614e2061383a565b6124b190620186a0613862565b61012d5461012e5461012f546040516305d3b1d360e41b815260048101929092526001600160401b0381166024830152600160401b900461ffff16604482015263ffffffff8084166064830152861660848201529192506001600160a01b031690635d3b1d309060a4016020604051808303816000875af115801561253a573d6000803e3d6000fd5b505050506040513d601f19601f820116820180604052508101906114dc919061368e565b612568828261287d565b600082815260c960205260409020610aa190826125ea565b61258a8282612903565b600082815260c960205260409020610aa1908261296a565b60335460ff16156125e85760405162461bcd60e51b815260206004820152601060248201526f14185d5cd8589b194e881c185d5cd95960821b6044820152606401610651565b565b60006114dc836001600160a01b03841661297f565b6060600061260c836129ce565b60010190506000816001600160401b0381111561262b5761262b6130a8565b6040519080825280601f01601f191660200182016040528015612655576020820181803683370190505b5090508181016020015b600019016f181899199a1a9b1b9c1cb0b131b232b360811b600a86061a8153600a850494508461265f57509392505050565b60008080806126a9866001600160a01b038716612aa6565b909450925050505b9250929050565b600054610100900460ff166126df5760405162461bcd60e51b81526004016106519061387f565b6125e8612ae0565b600054610100900460ff166125e85760405162461bcd60e51b81526004016106519061387f565b600054610100900460ff166127355760405162461bcd60e51b81526004016106519061387f565b61273e84612b13565b6115f984848484612b43565b60006114dc8383612bc5565b600061276c846001600160a01b03851684612bef565b949350505050565b60006105f3825490565b606060006114dc83612c0c565b60006114dc836001600160a01b038416612c68565b6001600160a01b038116600090815260018301602052604081205415156114dc565b6000805b8351811015612815578381815181106127e1576127e1613534565b6020026020010151831015612803576127fb6001826135b5565b9150506105f3565b8061280d81613560565b9150506127c6565b50600183516114dc91906135b5565b61282e8282611502565b6109085761283b81612c85565b612846836020612c97565b6040516020016128579291906138ca565b60408051601f198184030181529082905262461bcd60e51b82526106519160040161365b565b6128878282611502565b6109085760008281526097602090815260408083206001600160a01b03851684529091529020805460ff191660011790556128bf3390565b6001600160a01b0316816001600160a01b0316837f2f8788117e7eff1d82e926ec794901d17c78024a50270940304540a733656f0d60405160405180910390a45050565b61290d8282611502565b156109085760008281526097602090815260408083206001600160a01b0385168085529252808320805460ff1916905551339285917ff6391f5c32d9c69d2a47ea670b442974b53935d1edc7fd64eb21e047a839171b9190a45050565b60006114dc836001600160a01b038416612e32565b60008181526001830160205260408120546129c6575081546001818101845560008481526020808220909301849055845484825282860190935260409020919091556105f3565b5060006105f3565b60008072184f03e93ff9f4daa797ed6e38ed64bf6a1f0160401b8310612a0d5772184f03e93ff9f4daa797ed6e38ed64bf6a1f0160401b830492506040015b6d04ee2d6d415b85acef81000000008310612a39576d04ee2d6d415b85acef8100000000830492506020015b662386f26fc100008310612a5757662386f26fc10000830492506010015b6305f5e1008310612a6f576305f5e100830492506008015b6127108310612a8357612710830492506004015b60648310612a95576064830492506002015b600a83106105f35760010192915050565b6000818152600283016020526040812054819080612ad557612ac88585612f2c565b9250600091506126b19050565b6001925090506126b1565b600054610100900460ff16612b075760405162461bcd60e51b81526004016106519061387f565b6033805460ff19169055565b600054610100900460ff16612b3a5760405162461bcd60e51b81526004016106519061387f565b6114c181612f38565b600054610100900460ff16612b6a5760405162461bcd60e51b81526004016106519061387f565b61012d80546001600160a01b039095166001600160a01b03199095169490941790935561012f805461012e9390935561ffff909316600160401b0269ffffffffffffffffffff199092166001600160401b0390911617179055565b6000826000018281548110612bdc57612bdc613534565b9060005260206000200154905092915050565b6000828152600284016020526040812082905561276c8484612f81565b606081600001805480602002602001604051908101604052809291908181526020018280548015612c5c57602002820191906000526020600020905b815481526020019060010190808311612c48575b50505050509050919050565b600081815260028301602052604081208190556114dc8383612f8d565b60606105f36001600160a01b03831660145b60606000612ca68360026137c3565b612cb19060026135c8565b6001600160401b03811115612cc857612cc86130a8565b6040519080825280601f01601f191660200182016040528015612cf2576020820181803683370190505b509050600360fc1b81600081518110612d0d57612d0d613534565b60200101906001600160f81b031916908160001a905350600f60fb1b81600181518110612d3c57612d3c613534565b60200101906001600160f81b031916908160001a9053506000612d608460026137c3565b612d6b9060016135c8565b90505b6001811115612de3576f181899199a1a9b1b9c1cb0b131b232b360811b85600f1660108110612d9f57612d9f613534565b1a60f81b828281518110612db557612db5613534565b60200101906001600160f81b031916908160001a90535060049490941c93612ddc8161393f565b9050612d6e565b5083156114dc5760405162461bcd60e51b815260206004820181905260248201527f537472696e67733a20686578206c656e67746820696e73756666696369656e746044820152606401610651565b60008181526001830160205260408120548015612f1b576000612e566001836135b5565b8554909150600090612e6a906001906135b5565b9050818114612ecf576000866000018281548110612e8a57612e8a613534565b9060005260206000200154905080876000018481548110612ead57612ead613534565b6000918252602080832090910192909255918252600188019052604090208390555b8554869080612ee057612ee0613956565b6001900381819060005260206000200160009055905585600101600086815260200190815260200160002060009055600193505050506105f3565b60009150506105f3565b5092915050565b60006114dc8383612f99565b600054610100900460ff16612f5f5760405162461bcd60e51b81526004016106519061387f565b60fb80546001600160a01b0319166001600160a01b0392909216919091179055565b60006114dc838361297f565b60006114dc8383612e32565b600081815260018301602052604081205415156114dc565b50805460008255906000526020600020908101906114c1919061301a565b82805482825590600052602060002090810192821561300a579160200282015b8281111561300a578251825591602001919060010190612fef565b5061301692915061301a565b5090565b5b80821115613016576000815560010161301b565b60006020828403121561304157600080fd5b81356001600160e01b0319811681146114dc57600080fd5b80356001600160a01b038116811461307057600080fd5b919050565b60008060006060848603121561308a57600080fd5b61309384613059565b95602085013595506040909401359392505050565b634e487b7160e01b600052604160045260246000fd5b604051601f8201601f191681016001600160401b03811182821017156130e6576130e66130a8565b604052919050565b60006001600160401b03821115613107576131076130a8565b5060051b60200190565b600082601f83011261312257600080fd5b81356020613137613132836130ee565b6130be565b82815260059290921b8401810191818101908684111561315657600080fd5b8286015b84811015613171578035835291830191830161315a565b509695505050505050565b6000806040838503121561318f57600080fd5b8235915060208301356001600160401b038111156131ac57600080fd5b6131b885828601613111565b9150509250929050565b6000602082840312156131d457600080fd5b5035919050565b600080604083850312156131ee57600080fd5b6131f783613059565b946020939093013593505050565b6000806040838503121561321857600080fd5b8235915061322860208401613059565b90509250929050565b60006020828403121561324357600080fd5b6114dc82613059565b600081518084526020808501945080840160005b8381101561327c57815187529582019590820190600101613260565b509495945050505050565b60608152600061329a606083018661324c565b82810360208401526132ac818661324c565b915050826040830152949350505050565b600080604083850312156132d057600080fd5b50508035926020909101359150565b600080604083850312156132f257600080fd5b82356001600160401b038082111561330957600080fd5b818501915085601f83011261331d57600080fd5b8135602061332d613132836130ee565b82815260059290921b8401810191818101908984111561334c57600080fd5b948201945b838610156133715761336286613059565b82529482019490820190613351565b9650508601359250508082111561338757600080fd5b506131b885828601613111565b6000806000606084860312156133a957600080fd5b833592506020840135915060408401356001600160401b038111156133cd57600080fd5b6133d986828701613111565b9150509250925092565b6020808252825182820181905260009190848201906040850190845b818110156134245783516001600160a01b0316835292840192918401916001016133ff565b50909695505050505050565b604081526000613443604083018561324c565b905082151560208301529392505050565b60008060006060848603121561346957600080fd5b833592506020808501356001600160401b038082111561348857600080fd5b61349488838901613111565b945060408701359150808211156134aa57600080fd5b818701915087601f8301126134be57600080fd5b81356134cc613132826130ee565b81815260059190911b8301840190848101908a8311156134eb57600080fd5b8585015b83811015613523578035858111156135075760008081fd5b6135158d89838a0101613111565b8452509186019186016134ef565b508096505050505050509250925092565b634e487b7160e01b600052603260045260246000fd5b634e487b7160e01b600052601160045260246000fd5b6000600182016135725761357261354a565b5060010190565b848152836020820152608060408201526000613598608083018561324c565b82810360608401526135aa818561324c565b979650505050505050565b818103818111156105f3576105f361354a565b808201808211156105f3576105f361354a565b60005b838110156135f65781810151838201526020016135de565b50506000910152565b73024b73b30b634b21036b4b73a1031b7bab73a17160651b81526000835161362e8160148501602088016135db565b602f60f81b601491840191820152835161364f8160158401602088016135db565b01601501949350505050565b602081526000825180602084015261367a8160408501602087016135db565b601f01601f19169190910160400192915050565b6000602082840312156136a057600080fd5b5051919050565b60208082526022908201527f456c7665734d696e7465723a3a4e6f206163636f756e74732073706563696669604082015261195960f21b606082015260800190565b60208082526022908201527f456c7665734d696e7465723a3a4172726179206c656e677468206d69736d61746040820152610c6d60f31b606082015260800190565b6020815260006114dc602083018461324c565b6000602080838503121561375157600080fd5b82516001600160401b0381111561376757600080fd5b8301601f8101851361377857600080fd5b8051613786613132826130ee565b81815260059190911b820183019083810190878311156137a557600080fd5b928401925b828410156135aa578351825292840192908401906137aa565b80820281158282048414176105f3576105f361354a565b634e487b7160e01b600052601260045260246000fd5b6000826137ff576137ff6137da565b500490565b60006020828403121561381657600080fd5b815180151581146114dc57600080fd5b600082613835576138356137da565b500690565b63ffffffff81811683821602808216919082811461385a5761385a61354a565b505092915050565b63ffffffff818116838216019080821115612f2557612f2561354a565b6020808252602b908201527f496e697469616c697a61626c653a20636f6e7472616374206973206e6f74206960408201526a6e697469616c697a696e6760a81b606082015260800190565b7f416363657373436f6e74726f6c3a206163636f756e74200000000000000000008152600083516139028160178501602088016135db565b7001034b99036b4b9b9b4b733903937b6329607d1b60179184019182015283516139338160288401602088016135db565b01602801949350505050565b60008161394e5761394e61354a565b506000190190565b634e487b7160e01b600052603160045260246000fdfea49807205ce4d355092ef5a8a18f56e8913cf4a201fbe287825b095693c21775a264697066735822122088b3eb2caf744293e6726db8d42e7b1f8f51d7226b7dcdccb89b88a0fc2fbad964736f6c63430008110033",
  "linkReferences": {},
  "deployedLinkReferences": {}
}