{
  "_format": "hh-sol-artifact-1",
  "contractName": "FramedWizardsUpgradeable",
  "sourceName": "contracts/upgradeable/ERC721/FramedWizardsUpgradeable.sol",
  "abi": [
    {
      "inputs": [],
      "stateMutability": "nonpayable",
      "type": "constructor"
    },
    {
      "anonymous": false,
      "inputs": [
        {
          "indexed": true,
          "internalType": "address",
          "name": "owner",
          "type": "address"
        },
        {
          "indexed": true,
          "internalType": "address",
          "name": "approved",
          "type": "address"
        },
        {
          "indexed": true,
          "internalType": "uint256",
          "name": "tokenId",
          "type": "uint256"
        }
      ],
      "name": "Approval",
      "type": "event"
    },
    {
      "anonymous": false,
      "inputs": [
        {
          "indexed": true,
          "internalType": "address",
          "name": "owner",
          "type": "address"
        },
        {
          "indexed": true,
          "internalType": "address",
          "name": "operator",
          "type": "address"
        },
        {
          "indexed": false,
          "internalType": "bool",
          "name": "approved",
          "type": "bool"
        }
      ],
      "name": "ApprovalForAll",
      "type": "event"
    },
    {
      "anonymous": false,
      "inputs": [
        {
          "indexed": false,
          "internalType": "uint8",
          "name": "version",
          "type": "uint8"
        }
      ],
      "name": "Initialized",
      "type": "event"
    },
    {
      "anonymous": false,
      "inputs": [
        {
          "indexed": false,
          "internalType": "address",
          "name": "account",
          "type": "address"
        }
      ],
      "name": "Paused",
      "type": "event"
    },
    {
      "anonymous": false,
      "inputs": [
        {
          "indexed": true,
          "internalType": "bytes32",
          "name": "role",
          "type": "bytes32"
        },
        {
          "indexed": true,
          "internalType": "bytes32",
          "name": "previousAdminRole",
          "type": "bytes32"
        },
        {
          "indexed": true,
          "internalType": "bytes32",
          "name": "newAdminRole",
          "type": "bytes32"
        }
      ],
      "name": "RoleAdminChanged",
      "type": "event"
    },
    {
      "anonymous": false,
      "inputs": [
        {
          "indexed": true,
          "internalType": "bytes32",
          "name": "role",
          "type": "bytes32"
        },
        {
          "indexed": true,
          "internalType": "address",
          "name": "account",
          "type": "address"
        },
        {
          "indexed": true,
          "internalType": "address",
          "name": "sender",
          "type": "address"
        }
      ],
      "name": "RoleGranted",
      "type": "event"
    },
    {
      "anonymous": false,
      "inputs": [
        {
          "indexed": true,
          "internalType": "bytes32",
          "name": "role",
          "type": "bytes32"
        },
        {
          "indexed": true,
          "internalType": "address",
          "name": "account",
          "type": "address"
        },
        {
          "indexed": true,
          "internalType": "address",
          "name": "sender",
          "type": "address"
        }
      ],
      "name": "RoleRevoked",
      "type": "event"
    },
    {
      "anonymous": false,
      "inputs": [
        {
          "indexed": true,
          "internalType": "address",
          "name": "from",
          "type": "address"
        },
        {
          "indexed": true,
          "internalType": "address",
          "name": "to",
          "type": "address"
        },
        {
          "indexed": true,
          "internalType": "uint256",
          "name": "tokenId",
          "type": "uint256"
        }
      ],
      "name": "Transfer",
      "type": "event"
    },
    {
      "anonymous": false,
      "inputs": [
        {
          "indexed": false,
          "internalType": "address",
          "name": "account",
          "type": "address"
        }
      ],
      "name": "Unpaused",
      "type": "event"
    },
    {
      "inputs": [],
      "name": "ADMIN_ROLE",
      "outputs": [
        {
          "internalType": "bytes32",
          "name": "",
          "type": "bytes32"
        }
      ],
      "stateMutability": "view",
      "type": "function"
    },
    {
      "inputs": [],
      "name": "DEFAULT_ADMIN_ROLE",
      "outputs": [
        {
          "internalType": "bytes32",
          "name": "",
          "type": "bytes32"
        }
      ],
      "stateMutability": "view",
      "type": "function"
    },
    {
      "inputs": [],
      "name": "MINTER_ROLE",
      "outputs": [
        {
          "internalType": "bytes32",
          "name": "",
          "type": "bytes32"
        }
      ],
      "stateMutability": "view",
      "type": "function"
    },
    {
      "inputs": [
        {
          "internalType": "address",
          "name": "to",
          "type": "address"
        },
        {
          "internalType": "uint256",
          "name": "tokenId",
          "type": "uint256"
        }
      ],
      "name": "approve",
      "outputs": [],
      "stateMutability": "nonpayable",
      "type": "function"
    },
    {
      "inputs": [
        {
          "internalType": "address",
          "name": "owner",
          "type": "address"
        }
      ],
      "name": "balanceOf",
      "outputs": [
        {
          "internalType": "uint256",
          "name": "",
          "type": "uint256"
        }
      ],
      "stateMutability": "view",
      "type": "function"
    },
    {
      "inputs": [
        {
          "internalType": "address",
          "name": "to",
          "type": "address"
        },
        {
          "internalType": "uint256[]",
          "name": "tokenIds",
          "type": "uint256[]"
        }
      ],
      "name": "batchMint",
      "outputs": [],
      "stateMutability": "nonpayable",
      "type": "function"
    },
    {
      "inputs": [
        {
          "internalType": "uint256[]",
          "name": "tokenIds",
          "type": "uint256[]"
        }
      ],
      "name": "batchTokenURI",
      "outputs": [
        {
          "internalType": "string[]",
          "name": "",
          "type": "string[]"
        }
      ],
      "stateMutability": "view",
      "type": "function"
    },
    {
      "inputs": [
        {
          "internalType": "address",
          "name": "from",
          "type": "address"
        },
        {
          "internalType": "address",
          "name": "to",
          "type": "address"
        },
        {
          "internalType": "uint256[]",
          "name": "tokenIds",
          "type": "uint256[]"
        }
      ],
      "name": "batchTransferFrom",
      "outputs": [],
      "stateMutability": "nonpayable",
      "type": "function"
    },
    {
      "inputs": [
        {
          "internalType": "uint256",
          "name": "tokenId",
          "type": "uint256"
        }
      ],
      "name": "burn",
      "outputs": [],
      "stateMutability": "nonpayable",
      "type": "function"
    },
    {
      "inputs": [],
      "name": "getAllTokenIds",
      "outputs": [
        {
          "internalType": "uint256[]",
          "name": "",
          "type": "uint256[]"
        }
      ],
      "stateMutability": "view",
      "type": "function"
    },
    {
      "inputs": [
        {
          "internalType": "uint256",
          "name": "tokenId",
          "type": "uint256"
        }
      ],
      "name": "getApproved",
      "outputs": [
        {
          "internalType": "address",
          "name": "",
          "type": "address"
        }
      ],
      "stateMutability": "view",
      "type": "function"
    },
    {
      "inputs": [
        {
          "internalType": "bytes32",
          "name": "role",
          "type": "bytes32"
        }
      ],
      "name": "getRoleAdmin",
      "outputs": [
        {
          "internalType": "bytes32",
          "name": "",
          "type": "bytes32"
        }
      ],
      "stateMutability": "view",
      "type": "function"
    },
    {
      "inputs": [
        {
          "internalType": "bytes32",
          "name": "role",
          "type": "bytes32"
        },
        {
          "internalType": "uint256",
          "name": "index",
          "type": "uint256"
        }
      ],
      "name": "getRoleMember",
      "outputs": [
        {
          "internalType": "address",
          "name": "",
          "type": "address"
        }
      ],
      "stateMutability": "view",
      "type": "function"
    },
    {
      "inputs": [
        {
          "internalType": "bytes32",
          "name": "role",
          "type": "bytes32"
        }
      ],
      "name": "getRoleMemberCount",
      "outputs": [
        {
          "internalType": "uint256",
          "name": "",
          "type": "uint256"
        }
      ],
      "stateMutability": "view",
      "type": "function"
    },
    {
      "inputs": [
        {
          "internalType": "bytes32",
          "name": "role",
          "type": "bytes32"
        },
        {
          "internalType": "address",
          "name": "account",
          "type": "address"
        }
      ],
      "name": "grantRole",
      "outputs": [],
      "stateMutability": "nonpayable",
      "type": "function"
    },
    {
      "inputs": [
        {
          "internalType": "bytes32",
          "name": "role",
          "type": "bytes32"
        },
        {
          "internalType": "address",
          "name": "account",
          "type": "address"
        }
      ],
      "name": "hasRole",
      "outputs": [
        {
          "internalType": "bool",
          "name": "",
          "type": "bool"
        }
      ],
      "stateMutability": "view",
      "type": "function"
    },
    {
      "inputs": [],
      "name": "imageBaseURI",
      "outputs": [
        {
          "internalType": "string",
          "name": "",
          "type": "string"
        }
      ],
      "stateMutability": "view",
      "type": "function"
    },
    {
      "inputs": [],
      "name": "initialize",
      "outputs": [],
      "stateMutability": "nonpayable",
      "type": "function"
    },
    {
      "inputs": [
        {
          "internalType": "address",
          "name": "owner",
          "type": "address"
        },
        {
          "internalType": "address",
          "name": "operator",
          "type": "address"
        }
      ],
      "name": "isApprovedForAll",
      "outputs": [
        {
          "internalType": "bool",
          "name": "",
          "type": "bool"
        }
      ],
      "stateMutability": "view",
      "type": "function"
    },
    {
      "inputs": [
        {
          "internalType": "address",
          "name": "to",
          "type": "address"
        },
        {
          "internalType": "uint256",
          "name": "tokenId",
          "type": "uint256"
        }
      ],
      "name": "mint",
      "outputs": [],
      "stateMutability": "nonpayable",
      "type": "function"
    },
    {
      "inputs": [],
      "name": "name",
      "outputs": [
        {
          "internalType": "string",
          "name": "",
          "type": "string"
        }
      ],
      "stateMutability": "view",
      "type": "function"
    },
    {
      "inputs": [
        {
          "internalType": "uint256",
          "name": "tokenId",
          "type": "uint256"
        }
      ],
      "name": "ownerOf",
      "outputs": [
        {
          "internalType": "address",
          "name": "",
          "type": "address"
        }
      ],
      "stateMutability": "view",
      "type": "function"
    },
    {
      "inputs": [],
      "name": "pause",
      "outputs": [],
      "stateMutability": "nonpayable",
      "type": "function"
    },
    {
      "inputs": [],
      "name": "paused",
      "outputs": [
        {
          "internalType": "bool",
          "name": "",
          "type": "bool"
        }
      ],
      "stateMutability": "view",
      "type": "function"
    },
    {
      "inputs": [
        {
          "internalType": "bytes32",
          "name": "role",
          "type": "bytes32"
        },
        {
          "internalType": "address",
          "name": "account",
          "type": "address"
        }
      ],
      "name": "renounceRole",
      "outputs": [],
      "stateMutability": "nonpayable",
      "type": "function"
    },
    {
      "inputs": [
        {
          "internalType": "bytes32",
          "name": "role",
          "type": "bytes32"
        },
        {
          "internalType": "address",
          "name": "account",
          "type": "address"
        }
      ],
      "name": "revokeRole",
      "outputs": [],
      "stateMutability": "nonpayable",
      "type": "function"
    },
    {
      "inputs": [
        {
          "internalType": "address",
          "name": "from",
          "type": "address"
        },
        {
          "internalType": "address",
          "name": "to",
          "type": "address"
        },
        {
          "internalType": "uint256",
          "name": "tokenId",
          "type": "uint256"
        }
      ],
      "name": "safeTransferFrom",
      "outputs": [],
      "stateMutability": "nonpayable",
      "type": "function"
    },
    {
      "inputs": [
        {
          "internalType": "address",
          "name": "from",
          "type": "address"
        },
        {
          "internalType": "address",
          "name": "to",
          "type": "address"
        },
        {
          "internalType": "uint256",
          "name": "tokenId",
          "type": "uint256"
        },
        {
          "internalType": "bytes",
          "name": "data",
          "type": "bytes"
        }
      ],
      "name": "safeTransferFrom",
      "outputs": [],
      "stateMutability": "nonpayable",
      "type": "function"
    },
    {
      "inputs": [
        {
          "internalType": "address",
          "name": "operator",
          "type": "address"
        },
        {
          "internalType": "bool",
          "name": "approved",
          "type": "bool"
        }
      ],
      "name": "setApprovalForAll",
      "outputs": [],
      "stateMutability": "nonpayable",
      "type": "function"
    },
    {
      "inputs": [
        {
          "internalType": "uint256",
          "name": "token",
          "type": "uint256"
        },
        {
          "internalType": "bytes",
          "name": "uri",
          "type": "bytes"
        }
      ],
      "name": "setTokenURI",
      "outputs": [],
      "stateMutability": "nonpayable",
      "type": "function"
    },
    {
      "inputs": [
        {
          "internalType": "uint256[]",
          "name": "tokens",
          "type": "uint256[]"
        },
        {
          "internalType": "bytes[]",
          "name": "uris",
          "type": "bytes[]"
        }
      ],
      "name": "setTokenURIs",
      "outputs": [],
      "stateMutability": "nonpayable",
      "type": "function"
    },
    {
      "inputs": [
        {
          "internalType": "bytes4",
          "name": "interfaceId",
          "type": "bytes4"
        }
      ],
      "name": "supportsInterface",
      "outputs": [
        {
          "internalType": "bool",
          "name": "",
          "type": "bool"
        }
      ],
      "stateMutability": "view",
      "type": "function"
    },
    {
      "inputs": [],
      "name": "symbol",
      "outputs": [
        {
          "internalType": "string",
          "name": "",
          "type": "string"
        }
      ],
      "stateMutability": "view",
      "type": "function"
    },
    {
      "inputs": [
        {
          "internalType": "uint256",
          "name": "index",
          "type": "uint256"
        }
      ],
      "name": "tokenByIndex",
      "outputs": [
        {
          "internalType": "uint256",
          "name": "",
          "type": "uint256"
        }
      ],
      "stateMutability": "view",
      "type": "function"
    },
    {
      "inputs": [
        {
          "internalType": "address",
          "name": "owner",
          "type": "address"
        },
        {
          "internalType": "uint256",
          "name": "index",
          "type": "uint256"
        }
      ],
      "name": "tokenOfOwnerByIndex",
      "outputs": [
        {
          "internalType": "uint256",
          "name": "",
          "type": "uint256"
        }
      ],
      "stateMutability": "view",
      "type": "function"
    },
    {
      "inputs": [
        {
          "internalType": "uint256",
          "name": "tokenId",
          "type": "uint256"
        }
      ],
      "name": "tokenURI",
      "outputs": [
        {
          "internalType": "string",
          "name": "",
          "type": "string"
        }
      ],
      "stateMutability": "view",
      "type": "function"
    },
    {
      "inputs": [
        {
          "internalType": "address",
          "name": "owner",
          "type": "address"
        }
      ],
      "name": "tokensOfOwner",
      "outputs": [
        {
          "internalType": "uint256[]",
          "name": "",
          "type": "uint256[]"
        }
      ],
      "stateMutability": "view",
      "type": "function"
    },
    {
      "inputs": [],
      "name": "totalSupply",
      "outputs": [
        {
          "internalType": "uint256",
          "name": "",
          "type": "uint256"
        }
      ],
      "stateMutability": "view",
      "type": "function"
    },
    {
      "inputs": [
        {
          "internalType": "address",
          "name": "from",
          "type": "address"
        },
        {
          "internalType": "address",
          "name": "to",
          "type": "address"
        },
        {
          "internalType": "uint256",
          "name": "tokenId",
          "type": "uint256"
        }
      ],
      "name": "transferFrom",
      "outputs": [],
      "stateMutability": "nonpayable",
      "type": "function"
    },
    {
      "inputs": [],
      "name": "unpause",
      "outputs": [],
      "stateMutability": "nonpayable",
      "type": "function"
    }
  ],
  "bytecode": "0x60806040523480156200001157600080fd5b506200001c62000022565b620000e4565b600054610100900460ff16156200008f5760405162461bcd60e51b815260206004820152602760248201527f496e697469616c697a61626c653a20636f6e747261637420697320696e697469604482015266616c697a696e6760c81b606482015260840160405180910390fd5b60005460ff9081161015620000e2576000805460ff191660ff9081179091556040519081527f7f26b83ff96e1f2b6a682f133852f6798a09c465da95921460cefb38474024989060200160405180910390a15b565b6132e280620000f46000396000f3fe608060405234801561001057600080fd5b50600436106102485760003560e01c806370a082311161013b578063a22cb465116100b8578063ca15c8731161007c578063ca15c873146104ef578063d539139314610502578063d547741f14610517578063e985e9c51461052a578063f3993d111461056657600080fd5b8063a22cb4651461049b578063ae3a78c2146104ae578063b88d4fde146104c1578063bdbed722146104d4578063c87b56dd146104dc57600080fd5b80638462151c116100ff5780638462151c146104455780639010d07c1461046557806391d148541461047857806395d89b411461048b578063a217fddf1461049357600080fd5b806370a082311461040557806375b238fc14610418578063776458391461042d5780638129fc1c146104355780638456cb591461043d57600080fd5b80633aaaf018116101c95780634684d7e91161018d5780634684d7e9146103a05780634f6ccce7146103b35780635c975abb146103c65780636352211e146103d25780636d94f13a146103e557600080fd5b80633aaaf0181461034c5780633f4ba83a1461035f57806340c10f191461036757806342842e0e1461037a57806342966c681461038d57600080fd5b806323b872dd1161021057806323b872dd146102dc578063248a9ca3146102ef5780632f2ff15d146103135780632f745c591461032657806336568abe1461033957600080fd5b806301ffc9a71461024d57806306fdde0314610275578063081812fc1461028a578063095ea7b3146102b557806318160ddd146102ca575b600080fd5b61026061025b3660046128de565b610579565b60405190151581526020015b60405180910390f35b61027d61058a565b60405161026c9190612953565b61029d610298366004612966565b61061c565b6040516001600160a01b03909116815260200161026c565b6102c86102c336600461299b565b610643565b005b6099545b60405190815260200161026c565b6102c86102ea3660046129c5565b61075e565b6102ce6102fd366004612966565b600090815261015f602052604090206001015490565b6102c8610321366004612a01565b610790565b6102ce61033436600461299b565b6107b6565b6102c8610347366004612a01565b61084c565b6102c861035a366004612b70565b6108ca565b6102c86109cb565b6102c861037536600461299b565b6109ee565b6102c86103883660046129c5565b610a10565b6102c861039b366004612966565b610a2b565b6102c86103ae366004612c44565b610a66565b6102ce6103c1366004612966565b610abf565b61012d5460ff16610260565b61029d6103e0366004612966565b610b52565b6103f86103f3366004612c91565b610bb2565b60405161026c9190612cc5565b6102ce610413366004612d27565b610c6a565b6102ce60008051602061328d83398151915281565b61027d610cf0565b6102c8610d7e565b6102c8610f3d565b610458610453366004612d27565b610f5d565b60405161026c9190612d42565b61029d610473366004612d86565b610ffe565b610260610486366004612a01565b61101e565b61027d61104a565b6102ce600081565b6102c86104a9366004612da8565b611059565b6102c86104bc366004612de4565b611064565b6102c86104cf366004612e20565b611086565b6104586110b8565b61027d6104ea366004612966565b6111a2565b6102ce6104fd366004612966565b6111ad565b6102ce60008051602061326d83398151915281565b6102c8610525366004612a01565b6111c5565b610260610538366004612e87565b6001600160a01b039182166000908152606a6020908152604080832093909416825291909152205460ff1690565b6102c8610574366004612eb1565b6111eb565b60006105848261122d565b92915050565b60606065805461059990612f0e565b80601f01602080910402602001604051908101604052809291908181526020018280546105c590612f0e565b80156106125780601f106105e757610100808354040283529160200191610612565b820191906000526020600020905b8154815290600101906020018083116105f557829003601f168201915b5050505050905090565b600061062782611238565b506000908152606960205260409020546001600160a01b031690565b600061064e82610b52565b9050806001600160a01b0316836001600160a01b031614156106c15760405162461bcd60e51b815260206004820152602160248201527f4552433732313a20617070726f76616c20746f2063757272656e74206f776e656044820152603960f91b60648201526084015b60405180910390fd5b336001600160a01b03821614806106dd57506106dd8133610538565b61074f5760405162461bcd60e51b815260206004820152603e60248201527f4552433732313a20617070726f76652063616c6c6572206973206e6f7420746f60448201527f6b656e206f776e6572206e6f7220617070726f76656420666f7220616c6c000060648201526084016106b8565b6107598383611288565b505050565b610769335b826112f6565b6107855760405162461bcd60e51b81526004016106b890612f49565b610759838383611375565b600082815261015f60205260409020600101546107ac8161151c565b6107598383611526565b60006107c183610c6a565b82106108235760405162461bcd60e51b815260206004820152602b60248201527f455243373231456e756d657261626c653a206f776e657220696e646578206f7560448201526a74206f6620626f756e647360a81b60648201526084016106b8565b506001600160a01b03919091166000908152609760209081526040808320938352929052205490565b6001600160a01b03811633146108bc5760405162461bcd60e51b815260206004820152602f60248201527f416363657373436f6e74726f6c3a2063616e206f6e6c792072656e6f756e636560448201526e103937b632b9903337b91039b2b63360891b60648201526084016106b8565b6108c68282611549565b5050565b60008051602061328d8339815191526108e28161151c565b60008351116109265760405162461bcd60e51b815260206004820152601060248201526f139bc81d1bdad95b9cc81c185cdcd95960821b60448201526064016106b8565b815183511461096b5760405162461bcd60e51b81526020600482015260116024820152704d69736d6174636865642061727261797360781b60448201526064016106b8565b60005b83518110156109c5576109b384828151811061098c5761098c612f97565b60200260200101518483815181106109a6576109a6612f97565b602002602001015161156c565b806109bd81612fc3565b91505061096e565b50505050565b60008051602061328d8339815191526109e38161151c565b6109eb61158b565b50565b60008051602061326d833981519152610a068161151c565b61075983836115de565b61075983838360405180602001604052806000815250611086565b610a3433610763565b610a505760405162461bcd60e51b81526004016106b890612f49565b610a5c6101f5826115f8565b506109eb81611604565b60008051602061326d833981519152610a7e8161151c565b60005b82518110156109c557610aad84848381518110610aa057610aa0612f97565b60200260200101516115de565b80610ab781612fc3565b915050610a81565b6000610aca60995490565b8210610b2d5760405162461bcd60e51b815260206004820152602c60248201527f455243373231456e756d657261626c653a20676c6f62616c20696e646578206f60448201526b7574206f6620626f756e647360a01b60648201526084016106b8565b60998281548110610b4057610b40612f97565b90600052602060002001549050919050565b6000818152606760205260408120546001600160a01b0316806105845760405162461bcd60e51b8152602060048201526018602482015277115490cdcc8c4e881a5b9d985b1a59081d1bdad95b88125160421b60448201526064016106b8565b6060600082516001600160401b03811115610bcf57610bcf612a2d565b604051908082528060200260200182016040528015610c0257816020015b6060815260200190600190039081610bed5790505b50905060005b8351811015610c6357610c33848281518110610c2657610c26612f97565b60200260200101516111a2565b828281518110610c4557610c45612f97565b60200260200101819052508080610c5b90612fc3565b915050610c08565b5092915050565b60006001600160a01b038216610cd45760405162461bcd60e51b815260206004820152602960248201527f4552433732313a2061646472657373207a65726f206973206e6f7420612076616044820152683634b21037bbb732b960b91b60648201526084016106b8565b506001600160a01b031660009081526068602052604090205490565b60fc8054610cfd90612f0e565b80601f0160208091040260200160405190810160405280929190818152602001828054610d2990612f0e565b8015610d765780601f10610d4b57610100808354040283529160200191610d76565b820191906000526020600020905b815481529060010190602001808311610d5957829003601f168201915b505050505081565b600054610100900460ff1615808015610d9e5750600054600160ff909116105b80610db85750303b158015610db8575060005460ff166001145b610e1b5760405162461bcd60e51b815260206004820152602e60248201527f496e697469616c697a61626c653a20636f6e747261637420697320616c72656160448201526d191e481a5b9a5d1a585b1a5e995960921b60648201526084016106b8565b6000805460ff191660011790558015610e3e576000805461ff0019166101001790555b610e926040518060400160405280600e81526020016d4672616d65642057697a6172647360901b8152506040518060400160405280600c81526020016b11949053515115d25690549160a21b815250611644565b610e9a611675565b610ea26116a6565b610eaa6116cd565b610eb26116a6565b610eba611675565b610ec5600033611526565b610edd60008051602061328d83398151915233611526565b610ef560008051602061326d83398151915233611526565b80156109eb576000805461ff0019169055604051600181527f7f26b83ff96e1f2b6a682f133852f6798a09c465da95921460cefb38474024989060200160405180910390a150565b60008051602061328d833981519152610f558161151c565b6109eb6116fc565b60606000610f6a83610c6a565b90506000816001600160401b03811115610f8657610f86612a2d565b604051908082528060200260200182016040528015610faf578160200160208202803683370190505b50905060005b82811015610ff657610fc785826107b6565b828281518110610fd957610fd9612f97565b602090810291909101015280610fee81612fc3565b915050610fb5565b509392505050565b600082815261019160205260408120611017908361173a565b9392505050565b600091825261015f602090815260408084206001600160a01b0393909316845291905290205460ff1690565b60606066805461059990612f0e565b6108c6338383611746565b60008051602061328d83398151915261107c8161151c565b610759838361156c565b61109033836112f6565b6110ac5760405162461bcd60e51b81526004016106b890612f49565b6109c584848484611815565b6060600060015b6127108110156110f7576110d281611848565b156110e557816110e181612fc3565b9250505b806110ef81612fc3565b9150506110bf565b506000816001600160401b0381111561111257611112612a2d565b60405190808252806020026020018201604052801561113b578160200160208202803683370190505b509050600060015b6127108110156111995761115681611848565b15611187578083838151811061116e5761116e612f97565b60209081029190910101528161118381612fc3565b9250505b8061119181612fc3565b915050611143565b50909392505050565b606061058482611853565b60008181526101916020526040812061058490611997565b600082815261015f60205260409020600101546111e18161151c565b6107598383611549565b60005b81518110156109c55761121b848484848151811061120e5761120e612f97565b602002602001015161075e565b8061122581612fc3565b9150506111ee565b6000610584826119a1565b61124181611848565b6109eb5760405162461bcd60e51b8152602060048201526018602482015277115490cdcc8c4e881a5b9d985b1a59081d1bdad95b88125160421b60448201526064016106b8565b600081815260696020526040902080546001600160a01b0319166001600160a01b03841690811790915581906112bd82610b52565b6001600160a01b03167f8c5be1e5ebec7d5bd14f71427d1e84f3dd0314c0f7b2291e5b200ac8c7c3b92560405160405180910390a45050565b60008061130283610b52565b9050806001600160a01b0316846001600160a01b0316148061134957506001600160a01b038082166000908152606a602090815260408083209388168352929052205460ff165b8061136d5750836001600160a01b03166113628461061c565b6001600160a01b0316145b949350505050565b826001600160a01b031661138882610b52565b6001600160a01b0316146113ec5760405162461bcd60e51b815260206004820152602560248201527f4552433732313a207472616e736665722066726f6d20696e636f72726563742060448201526437bbb732b960d91b60648201526084016106b8565b6001600160a01b03821661144e5760405162461bcd60e51b8152602060048201526024808201527f4552433732313a207472616e7366657220746f20746865207a65726f206164646044820152637265737360e01b60648201526084016106b8565b6114598383836119c6565b611464600082611288565b6001600160a01b038316600090815260686020526040812080546001929061148d908490612fde565b90915550506001600160a01b03821660009081526068602052604081208054600192906114bb908490612ff5565b909155505060008181526067602052604080822080546001600160a01b0319166001600160a01b0386811691821790925591518493918716917fddf252ad1be2c89b69c2b068fc378daa952ba7f163c4a11628f55a4df523b3ef91a4505050565b6109eb8133611a80565b6115308282611ae4565b6000828152610191602052604090206107599082611b6b565b6115538282611b80565b6000828152610191602052604090206107599082611be8565b600082815260fb602090815260409091208251610759928401906127f9565b611593611bfd565b61012d805460ff191690557f5db9ee0a495bf2e6ff9c91a7834c1ba4fdd244a5e8aa4e537bd38aeae4b073aa335b6040516001600160a01b03909116815260200160405180910390a1565b6108c6828260405180602001604052806000815250611c47565b60006110178383611c7a565b61160d81611cc9565b600081815260fb60205260409020805461162690612f0e565b1590506109eb57600081815260fb602052604081206109eb9161287d565b600054610100900460ff1661166b5760405162461bcd60e51b81526004016106b89061300d565b6108c68282611d70565b600054610100900460ff1661169c5760405162461bcd60e51b81526004016106b89061300d565b6116a46116a6565b565b600054610100900460ff166116a45760405162461bcd60e51b81526004016106b89061300d565b600054610100900460ff166116f45760405162461bcd60e51b81526004016106b89061300d565b6116a4611dbe565b611704611df2565b61012d805460ff191660011790557f62e78cea01bee320cd4e420270b5ea74000d11b0c9f74754ebdbfc544b05a2586115c13390565b60006110178383611e39565b816001600160a01b0316836001600160a01b031614156117a85760405162461bcd60e51b815260206004820152601960248201527f4552433732313a20617070726f766520746f2063616c6c65720000000000000060448201526064016106b8565b6001600160a01b038381166000818152606a6020908152604080832094871680845294825291829020805460ff191686151590811790915591519182527f17307eab39ab6107e8899845ad3d59bd9653f200f220920489ca2b5937696c31910160405180910390a3505050565b611820848484611375565b61182c84848484611e63565b6109c55760405162461bcd60e51b81526004016106b890613058565b600061058482611f70565b606061185e82611848565b6118d05760405162461bcd60e51b815260206004820152603960248201527f45524337323155524953746f72616765457874656e6465643a2055524920717560448201527f65727920666f72206e6f6e6578697374656e7420746f6b656e0000000000000060648201526084016106b8565b600082815260fb60205260409020805461197191906118ee90612f0e565b80601f016020809104026020016040519081016040528092919081815260200182805461191a90612f0e565b80156119675780601f1061193c57610100808354040283529160200191611967565b820191906000526020600020905b81548152906001019060200180831161194a57829003601f168201915b5050505050611f9c565b60405160200161198191906130aa565b6040516020818303038152906040529050919050565b6000610584825490565b60006001600160e01b03198216635a05180f60e01b14806105845750610584826120ef565b6119ce611df2565b826119db61025982612114565b15611a1e5760405162461bcd60e51b8152602060048201526013602482015272426c61636b6c6973746564206164647265737360681b60448201526064016106b8565b82611a2b61025982612114565b15611a6e5760405162461bcd60e51b8152602060048201526013602482015272426c61636b6c6973746564206164647265737360681b60448201526064016106b8565b611a79858585612136565b5050505050565b611a8a828261101e565b6108c657611aa2816001600160a01b03166014612141565b611aad836020612141565b604051602001611abe9291906130ef565b60408051601f198184030181529082905262461bcd60e51b82526106b891600401612953565b611aee828261101e565b6108c657600082815261015f602090815260408083206001600160a01b03851684529091529020805460ff19166001179055611b273390565b6001600160a01b0316816001600160a01b0316837f2f8788117e7eff1d82e926ec794901d17c78024a50270940304540a733656f0d60405160405180910390a45050565b6000611017836001600160a01b038416611c7a565b611b8a828261101e565b156108c657600082815261015f602090815260408083206001600160a01b0385168085529252808320805460ff1916905551339285917ff6391f5c32d9c69d2a47ea670b442974b53935d1edc7fd64eb21e047a839171b9190a45050565b6000611017836001600160a01b0384166122dc565b61012d5460ff166116a45760405162461bcd60e51b815260206004820152601460248201527314185d5cd8589b194e881b9bdd081c185d5cd95960621b60448201526064016106b8565b611c5183836123cf565b611c5e6000848484611e63565b6107595760405162461bcd60e51b81526004016106b890613058565b6000818152600183016020526040812054611cc157508154600181810184556000848152602080822090930184905584548482528286019093526040902091909155610584565b506000610584565b6000611cd482610b52565b9050611ce2816000846119c6565b611ced600083611288565b6001600160a01b0381166000908152606860205260408120805460019290611d16908490612fde565b909155505060008281526067602052604080822080546001600160a01b0319169055518391906001600160a01b038416907fddf252ad1be2c89b69c2b068fc378daa952ba7f163c4a11628f55a4df523b3ef908390a45050565b600054610100900460ff16611d975760405162461bcd60e51b81526004016106b89061300d565b8151611daa9060659060208501906127f9565b5080516107599060669060208401906127f9565b600054610100900460ff16611de55760405162461bcd60e51b81526004016106b89061300d565b61012d805460ff19169055565b61012d5460ff16156116a45760405162461bcd60e51b815260206004820152601060248201526f14185d5cd8589b194e881c185d5cd95960821b60448201526064016106b8565b6000826000018281548110611e5057611e50612f97565b9060005260206000200154905092915050565b60006001600160a01b0384163b15611f6557604051630a85bd0160e11b81526001600160a01b0385169063150b7a0290611ea7903390899088908890600401613164565b602060405180830381600087803b158015611ec157600080fd5b505af1925050508015611ef1575060408051601f3d908101601f19168201909252611eee918101906131a1565b60015b611f4b573d808015611f1f576040519150601f19603f3d011682016040523d82523d6000602084013e611f24565b606091505b508051611f435760405162461bcd60e51b81526004016106b890613058565b805181602001fd5b6001600160e01b031916630a85bd0160e11b14905061136d565b506001949350505050565b6000818152606760205260408120546001600160a01b031615158061058457506105846101f58361250e565b6060815160001415611fbc57505060408051602081019091526000815290565b600060405180606001604052806040815260200161322d6040913990506000600384516002611feb9190612ff5565b611ff591906131be565b6120009060046131e0565b6001600160401b0381111561201757612017612a2d565b6040519080825280601f01601f191660200182016040528015612041576020820181803683370190505b509050600182016020820185865187015b808210156120ad576003820191508151603f8160121c168501518453600184019350603f81600c1c168501518453600184019350603f8160061c168501518453600184019350603f8116850151845350600183019250612052565b50506003865106600181146120c957600281146120dc576120e4565b603d6001830353603d60028303536120e4565b603d60018303535b509195945050505050565b60006001600160e01b03198216637965db0b60e01b1480610584575061058482612526565b6001600160a01b03811660009081526001830160205260408120541515611017565b610759838383612531565b606060006121508360026131e0565b61215b906002612ff5565b6001600160401b0381111561217257612172612a2d565b6040519080825280601f01601f19166020018201604052801561219c576020820181803683370190505b509050600360fc1b816000815181106121b7576121b7612f97565b60200101906001600160f81b031916908160001a905350600f60fb1b816001815181106121e6576121e6612f97565b60200101906001600160f81b031916908160001a905350600061220a8460026131e0565b612215906001612ff5565b90505b600181111561228d576f181899199a1a9b1b9c1cb0b131b232b360811b85600f166010811061224957612249612f97565b1a60f81b82828151811061225f5761225f612f97565b60200101906001600160f81b031916908160001a90535060049490941c93612286816131ff565b9050612218565b5083156110175760405162461bcd60e51b815260206004820181905260248201527f537472696e67733a20686578206c656e67746820696e73756666696369656e7460448201526064016106b8565b600081815260018301602052604081205480156123c5576000612300600183612fde565b855490915060009061231490600190612fde565b905081811461237957600086600001828154811061233457612334612f97565b906000526020600020015490508087600001848154811061235757612357612f97565b6000918252602080832090910192909255918252600188019052604090208390555b855486908061238a5761238a613216565b600190038181906000526020600020016000905590558560010160008681526020019081526020016000206000905560019350505050610584565b6000915050610584565b6001600160a01b0382166124255760405162461bcd60e51b815260206004820181905260248201527f4552433732313a206d696e7420746f20746865207a65726f206164647265737360448201526064016106b8565b61242e81611848565b1561247b5760405162461bcd60e51b815260206004820152601c60248201527f4552433732313a20746f6b656e20616c7265616479206d696e7465640000000060448201526064016106b8565b612487600083836119c6565b6001600160a01b03821660009081526068602052604081208054600192906124b0908490612ff5565b909155505060008181526067602052604080822080546001600160a01b0319166001600160a01b03861690811790915590518392907fddf252ad1be2c89b69c2b068fc378daa952ba7f163c4a11628f55a4df523b3ef908290a45050565b60008181526001830160205260408120541515611017565b60006105848261253c565b610759838383612561565b60006001600160e01b0319821663780e9d6360e01b1480610584575061058482612619565b6001600160a01b0383166125bc576125b781609980546000838152609a60205260408120829055600182018355919091527f72a152ddfb8e864297c917af52ea6c1c68aead0fee1a62673fcc7e0c94979d000155565b6125df565b816001600160a01b0316836001600160a01b0316146125df576125df8382612669565b6001600160a01b0382166125f65761075981612706565b826001600160a01b0316826001600160a01b0316146107595761075982826127b5565b60006001600160e01b031982166380ac58cd60e01b148061264a57506001600160e01b03198216635b5e139f60e01b145b8061058457506301ffc9a760e01b6001600160e01b0319831614610584565b6000600161267684610c6a565b6126809190612fde565b6000838152609860205260409020549091508082146126d3576001600160a01b03841660009081526097602090815260408083208584528252808320548484528184208190558352609890915290208190555b5060009182526098602090815260408084208490556001600160a01b039094168352609781528383209183525290812055565b60995460009061271890600190612fde565b6000838152609a60205260408120546099805493945090928490811061274057612740612f97565b90600052602060002001549050806099838154811061276157612761612f97565b6000918252602080832090910192909255828152609a9091526040808220849055858252812055609980548061279957612799613216565b6001900381819060005260206000200160009055905550505050565b60006127c083610c6a565b6001600160a01b039093166000908152609760209081526040808320868452825280832085905593825260989052919091209190915550565b82805461280590612f0e565b90600052602060002090601f016020900481019282612827576000855561286d565b82601f1061284057805160ff191683800117855561286d565b8280016001018555821561286d579182015b8281111561286d578251825591602001919060010190612852565b506128799291506128b3565b5090565b50805461288990612f0e565b6000825580601f10612899575050565b601f0160209004906000526020600020908101906109eb91905b5b8082111561287957600081556001016128b4565b6001600160e01b0319811681146109eb57600080fd5b6000602082840312156128f057600080fd5b8135611017816128c8565b60005b838110156129165781810151838201526020016128fe565b838111156109c55750506000910152565b6000815180845261293f8160208601602086016128fb565b601f01601f19169290920160200192915050565b6020815260006110176020830184612927565b60006020828403121561297857600080fd5b5035919050565b80356001600160a01b038116811461299657600080fd5b919050565b600080604083850312156129ae57600080fd5b6129b78361297f565b946020939093013593505050565b6000806000606084860312156129da57600080fd5b6129e38461297f565b92506129f16020850161297f565b9150604084013590509250925092565b60008060408385031215612a1457600080fd5b82359150612a246020840161297f565b90509250929050565b634e487b7160e01b600052604160045260246000fd5b604051601f8201601f191681016001600160401b0381118282101715612a6b57612a6b612a2d565b604052919050565b60006001600160401b03821115612a8c57612a8c612a2d565b5060051b60200190565b600082601f830112612aa757600080fd5b81356020612abc612ab783612a73565b612a43565b82815260059290921b84018101918181019086841115612adb57600080fd5b8286015b84811015612af65780358352918301918301612adf565b509695505050505050565b600082601f830112612b1257600080fd5b81356001600160401b03811115612b2b57612b2b612a2d565b612b3e601f8201601f1916602001612a43565b818152846020838601011115612b5357600080fd5b816020850160208301376000918101602001919091529392505050565b60008060408385031215612b8357600080fd5b82356001600160401b0380821115612b9a57600080fd5b612ba686838701612a96565b9350602091508185013581811115612bbd57600080fd5b8501601f81018713612bce57600080fd5b8035612bdc612ab782612a73565b81815260059190911b82018401908481019089831115612bfb57600080fd5b8584015b83811015612c3357803586811115612c175760008081fd5b612c258c8983890101612b01565b845250918601918601612bff565b508096505050505050509250929050565b60008060408385031215612c5757600080fd5b612c608361297f565b915060208301356001600160401b03811115612c7b57600080fd5b612c8785828601612a96565b9150509250929050565b600060208284031215612ca357600080fd5b81356001600160401b03811115612cb957600080fd5b61136d84828501612a96565b6000602080830181845280855180835260408601915060408160051b870101925083870160005b82811015612d1a57603f19888603018452612d08858351612927565b94509285019290850190600101612cec565b5092979650505050505050565b600060208284031215612d3957600080fd5b6110178261297f565b6020808252825182820181905260009190848201906040850190845b81811015612d7a57835183529284019291840191600101612d5e565b50909695505050505050565b60008060408385031215612d9957600080fd5b50508035926020909101359150565b60008060408385031215612dbb57600080fd5b612dc48361297f565b915060208301358015158114612dd957600080fd5b809150509250929050565b60008060408385031215612df757600080fd5b8235915060208301356001600160401b03811115612e1457600080fd5b612c8785828601612b01565b60008060008060808587031215612e3657600080fd5b612e3f8561297f565b9350612e4d6020860161297f565b92506040850135915060608501356001600160401b03811115612e6f57600080fd5b612e7b87828801612b01565b91505092959194509250565b60008060408385031215612e9a57600080fd5b612ea38361297f565b9150612a246020840161297f565b600080600060608486031215612ec657600080fd5b612ecf8461297f565b9250612edd6020850161297f565b915060408401356001600160401b03811115612ef857600080fd5b612f0486828701612a96565b9150509250925092565b600181811c90821680612f2257607f821691505b60208210811415612f4357634e487b7160e01b600052602260045260246000fd5b50919050565b6020808252602e908201527f4552433732313a2063616c6c6572206973206e6f7420746f6b656e206f776e6560408201526d1c881b9bdc88185c1c1c9bdd995960921b606082015260800190565b634e487b7160e01b600052603260045260246000fd5b634e487b7160e01b600052601160045260246000fd5b6000600019821415612fd757612fd7612fad565b5060010190565b600082821015612ff057612ff0612fad565b500390565b6000821982111561300857613008612fad565b500190565b6020808252602b908201527f496e697469616c697a61626c653a20636f6e7472616374206973206e6f74206960408201526a6e697469616c697a696e6760a81b606082015260800190565b60208082526032908201527f4552433732313a207472616e7366657220746f206e6f6e20455243373231526560408201527131b2b4bb32b91034b6b83632b6b2b73a32b960711b606082015260800190565b7f646174613a6170706c69636174696f6e2f6a736f6e3b6261736536342c0000008152600082516130e281601d8501602087016128fb565b91909101601d0192915050565b7f416363657373436f6e74726f6c3a206163636f756e74200000000000000000008152600083516131278160178501602088016128fb565b7001034b99036b4b9b9b4b733903937b6329607d1b60179184019182015283516131588160288401602088016128fb565b01602801949350505050565b6001600160a01b038581168252841660208201526040810183905260806060820181905260009061319790830184612927565b9695505050505050565b6000602082840312156131b357600080fd5b8151611017816128c8565b6000826131db57634e487b7160e01b600052601260045260246000fd5b500490565b60008160001904831182151516156131fa576131fa612fad565b500290565b60008161320e5761320e612fad565b506000190190565b634e487b7160e01b600052603160045260246000fdfe4142434445464748494a4b4c4d4e4f505152535455565758595a6162636465666768696a6b6c6d6e6f707172737475767778797a303132333435363738392b2f9f2df0fed2c77648de5860a4cc508cd0818c85b8b8a1ab4ceeef8d981c8956a6a49807205ce4d355092ef5a8a18f56e8913cf4a201fbe287825b095693c21775a2646970667358221220c198545aae7edc858b048c509ba0f90871b3d123056d808aa45388f16bf3eb9d64736f6c63430008090033",
  "linkReferences": {},
  "deployedLinkReferences": {}
}