{
  "_format": "hh-sol-artifact-1",
  "contractName": "FramedWizardsUpgradeable",
  "sourceName": "contracts/upgradeable/ERC721/FramedWizardsUpgradeable.sol",
  "abi": [
    {
      "inputs": [],
      "stateMutability": "nonpayable",
      "type": "constructor"
    },
    {
      "anonymous": false,
      "inputs": [
        {
          "indexed": true,
          "internalType": "address",
          "name": "owner",
          "type": "address"
        },
        {
          "indexed": true,
          "internalType": "address",
          "name": "approved",
          "type": "address"
        },
        {
          "indexed": true,
          "internalType": "uint256",
          "name": "tokenId",
          "type": "uint256"
        }
      ],
      "name": "Approval",
      "type": "event"
    },
    {
      "anonymous": false,
      "inputs": [
        {
          "indexed": true,
          "internalType": "address",
          "name": "owner",
          "type": "address"
        },
        {
          "indexed": true,
          "internalType": "address",
          "name": "operator",
          "type": "address"
        },
        {
          "indexed": false,
          "internalType": "bool",
          "name": "approved",
          "type": "bool"
        }
      ],
      "name": "ApprovalForAll",
      "type": "event"
    },
    {
      "anonymous": false,
      "inputs": [
        {
          "indexed": false,
          "internalType": "uint8",
          "name": "version",
          "type": "uint8"
        }
      ],
      "name": "Initialized",
      "type": "event"
    },
    {
      "anonymous": false,
      "inputs": [
        {
          "indexed": false,
          "internalType": "address",
          "name": "account",
          "type": "address"
        }
      ],
      "name": "Paused",
      "type": "event"
    },
    {
      "anonymous": false,
      "inputs": [
        {
          "indexed": true,
          "internalType": "bytes32",
          "name": "role",
          "type": "bytes32"
        },
        {
          "indexed": true,
          "internalType": "bytes32",
          "name": "previousAdminRole",
          "type": "bytes32"
        },
        {
          "indexed": true,
          "internalType": "bytes32",
          "name": "newAdminRole",
          "type": "bytes32"
        }
      ],
      "name": "RoleAdminChanged",
      "type": "event"
    },
    {
      "anonymous": false,
      "inputs": [
        {
          "indexed": true,
          "internalType": "bytes32",
          "name": "role",
          "type": "bytes32"
        },
        {
          "indexed": true,
          "internalType": "address",
          "name": "account",
          "type": "address"
        },
        {
          "indexed": true,
          "internalType": "address",
          "name": "sender",
          "type": "address"
        }
      ],
      "name": "RoleGranted",
      "type": "event"
    },
    {
      "anonymous": false,
      "inputs": [
        {
          "indexed": true,
          "internalType": "bytes32",
          "name": "role",
          "type": "bytes32"
        },
        {
          "indexed": true,
          "internalType": "address",
          "name": "account",
          "type": "address"
        },
        {
          "indexed": true,
          "internalType": "address",
          "name": "sender",
          "type": "address"
        }
      ],
      "name": "RoleRevoked",
      "type": "event"
    },
    {
      "anonymous": false,
      "inputs": [
        {
          "indexed": true,
          "internalType": "address",
          "name": "from",
          "type": "address"
        },
        {
          "indexed": true,
          "internalType": "address",
          "name": "to",
          "type": "address"
        },
        {
          "indexed": true,
          "internalType": "uint256",
          "name": "tokenId",
          "type": "uint256"
        }
      ],
      "name": "Transfer",
      "type": "event"
    },
    {
      "anonymous": false,
      "inputs": [
        {
          "indexed": false,
          "internalType": "address",
          "name": "account",
          "type": "address"
        }
      ],
      "name": "Unpaused",
      "type": "event"
    },
    {
      "inputs": [],
      "name": "ADMIN_ROLE",
      "outputs": [
        {
          "internalType": "bytes32",
          "name": "",
          "type": "bytes32"
        }
      ],
      "stateMutability": "view",
      "type": "function"
    },
    {
      "inputs": [],
      "name": "DEFAULT_ADMIN_ROLE",
      "outputs": [
        {
          "internalType": "bytes32",
          "name": "",
          "type": "bytes32"
        }
      ],
      "stateMutability": "view",
      "type": "function"
    },
    {
      "inputs": [],
      "name": "MINTER_ROLE",
      "outputs": [
        {
          "internalType": "bytes32",
          "name": "",
          "type": "bytes32"
        }
      ],
      "stateMutability": "view",
      "type": "function"
    },
    {
      "inputs": [
        {
          "internalType": "address",
          "name": "to",
          "type": "address"
        },
        {
          "internalType": "uint256",
          "name": "tokenId",
          "type": "uint256"
        }
      ],
      "name": "approve",
      "outputs": [],
      "stateMutability": "nonpayable",
      "type": "function"
    },
    {
      "inputs": [
        {
          "internalType": "address",
          "name": "owner",
          "type": "address"
        }
      ],
      "name": "balanceOf",
      "outputs": [
        {
          "internalType": "uint256",
          "name": "",
          "type": "uint256"
        }
      ],
      "stateMutability": "view",
      "type": "function"
    },
    {
      "inputs": [
        {
          "internalType": "address",
          "name": "to",
          "type": "address"
        },
        {
          "internalType": "uint256[]",
          "name": "tokenIds",
          "type": "uint256[]"
        }
      ],
      "name": "batchMint",
      "outputs": [],
      "stateMutability": "nonpayable",
      "type": "function"
    },
    {
      "inputs": [
        {
          "internalType": "uint256[]",
          "name": "tokenIds",
          "type": "uint256[]"
        }
      ],
      "name": "batchTokenURI",
      "outputs": [
        {
          "internalType": "string[]",
          "name": "",
          "type": "string[]"
        }
      ],
      "stateMutability": "view",
      "type": "function"
    },
    {
      "inputs": [
        {
          "internalType": "address",
          "name": "from",
          "type": "address"
        },
        {
          "internalType": "address",
          "name": "to",
          "type": "address"
        },
        {
          "internalType": "uint256[]",
          "name": "tokenIds",
          "type": "uint256[]"
        }
      ],
      "name": "batchTransferFrom",
      "outputs": [],
      "stateMutability": "nonpayable",
      "type": "function"
    },
    {
      "inputs": [
        {
          "internalType": "uint256",
          "name": "tokenId",
          "type": "uint256"
        }
      ],
      "name": "burn",
      "outputs": [],
      "stateMutability": "nonpayable",
      "type": "function"
    },
    {
      "inputs": [],
      "name": "getAllTokenIds",
      "outputs": [
        {
          "internalType": "uint256[]",
          "name": "",
          "type": "uint256[]"
        }
      ],
      "stateMutability": "view",
      "type": "function"
    },
    {
      "inputs": [
        {
          "internalType": "uint256",
          "name": "tokenId",
          "type": "uint256"
        }
      ],
      "name": "getApproved",
      "outputs": [
        {
          "internalType": "address",
          "name": "",
          "type": "address"
        }
      ],
      "stateMutability": "view",
      "type": "function"
    },
    {
      "inputs": [
        {
          "internalType": "bytes32",
          "name": "role",
          "type": "bytes32"
        }
      ],
      "name": "getRoleAdmin",
      "outputs": [
        {
          "internalType": "bytes32",
          "name": "",
          "type": "bytes32"
        }
      ],
      "stateMutability": "view",
      "type": "function"
    },
    {
      "inputs": [
        {
          "internalType": "bytes32",
          "name": "role",
          "type": "bytes32"
        },
        {
          "internalType": "uint256",
          "name": "index",
          "type": "uint256"
        }
      ],
      "name": "getRoleMember",
      "outputs": [
        {
          "internalType": "address",
          "name": "",
          "type": "address"
        }
      ],
      "stateMutability": "view",
      "type": "function"
    },
    {
      "inputs": [
        {
          "internalType": "bytes32",
          "name": "role",
          "type": "bytes32"
        }
      ],
      "name": "getRoleMemberCount",
      "outputs": [
        {
          "internalType": "uint256",
          "name": "",
          "type": "uint256"
        }
      ],
      "stateMutability": "view",
      "type": "function"
    },
    {
      "inputs": [
        {
          "internalType": "bytes32",
          "name": "role",
          "type": "bytes32"
        },
        {
          "internalType": "address",
          "name": "account",
          "type": "address"
        }
      ],
      "name": "grantRole",
      "outputs": [],
      "stateMutability": "nonpayable",
      "type": "function"
    },
    {
      "inputs": [
        {
          "internalType": "bytes32",
          "name": "role",
          "type": "bytes32"
        },
        {
          "internalType": "address",
          "name": "account",
          "type": "address"
        }
      ],
      "name": "hasRole",
      "outputs": [
        {
          "internalType": "bool",
          "name": "",
          "type": "bool"
        }
      ],
      "stateMutability": "view",
      "type": "function"
    },
    {
      "inputs": [],
      "name": "imageBaseURI",
      "outputs": [
        {
          "internalType": "string",
          "name": "",
          "type": "string"
        }
      ],
      "stateMutability": "view",
      "type": "function"
    },
    {
      "inputs": [],
      "name": "initialize",
      "outputs": [],
      "stateMutability": "nonpayable",
      "type": "function"
    },
    {
      "inputs": [
        {
          "internalType": "address",
          "name": "owner",
          "type": "address"
        },
        {
          "internalType": "address",
          "name": "operator",
          "type": "address"
        }
      ],
      "name": "isApprovedForAll",
      "outputs": [
        {
          "internalType": "bool",
          "name": "",
          "type": "bool"
        }
      ],
      "stateMutability": "view",
      "type": "function"
    },
    {
      "inputs": [
        {
          "internalType": "address",
          "name": "to",
          "type": "address"
        },
        {
          "internalType": "uint256",
          "name": "tokenId",
          "type": "uint256"
        }
      ],
      "name": "mint",
      "outputs": [],
      "stateMutability": "nonpayable",
      "type": "function"
    },
    {
      "inputs": [],
      "name": "name",
      "outputs": [
        {
          "internalType": "string",
          "name": "",
          "type": "string"
        }
      ],
      "stateMutability": "view",
      "type": "function"
    },
    {
      "inputs": [
        {
          "internalType": "uint256",
          "name": "tokenId",
          "type": "uint256"
        }
      ],
      "name": "ownerOf",
      "outputs": [
        {
          "internalType": "address",
          "name": "",
          "type": "address"
        }
      ],
      "stateMutability": "view",
      "type": "function"
    },
    {
      "inputs": [],
      "name": "pause",
      "outputs": [],
      "stateMutability": "nonpayable",
      "type": "function"
    },
    {
      "inputs": [],
      "name": "paused",
      "outputs": [
        {
          "internalType": "bool",
          "name": "",
          "type": "bool"
        }
      ],
      "stateMutability": "view",
      "type": "function"
    },
    {
      "inputs": [
        {
          "internalType": "bytes32",
          "name": "role",
          "type": "bytes32"
        },
        {
          "internalType": "address",
          "name": "account",
          "type": "address"
        }
      ],
      "name": "renounceRole",
      "outputs": [],
      "stateMutability": "nonpayable",
      "type": "function"
    },
    {
      "inputs": [
        {
          "internalType": "bytes32",
          "name": "role",
          "type": "bytes32"
        },
        {
          "internalType": "address",
          "name": "account",
          "type": "address"
        }
      ],
      "name": "revokeRole",
      "outputs": [],
      "stateMutability": "nonpayable",
      "type": "function"
    },
    {
      "inputs": [
        {
          "internalType": "address",
          "name": "from",
          "type": "address"
        },
        {
          "internalType": "address",
          "name": "to",
          "type": "address"
        },
        {
          "internalType": "uint256",
          "name": "tokenId",
          "type": "uint256"
        }
      ],
      "name": "safeTransferFrom",
      "outputs": [],
      "stateMutability": "nonpayable",
      "type": "function"
    },
    {
      "inputs": [
        {
          "internalType": "address",
          "name": "from",
          "type": "address"
        },
        {
          "internalType": "address",
          "name": "to",
          "type": "address"
        },
        {
          "internalType": "uint256",
          "name": "tokenId",
          "type": "uint256"
        },
        {
          "internalType": "bytes",
          "name": "data",
          "type": "bytes"
        }
      ],
      "name": "safeTransferFrom",
      "outputs": [],
      "stateMutability": "nonpayable",
      "type": "function"
    },
    {
      "inputs": [
        {
          "internalType": "address",
          "name": "operator",
          "type": "address"
        },
        {
          "internalType": "bool",
          "name": "approved",
          "type": "bool"
        }
      ],
      "name": "setApprovalForAll",
      "outputs": [],
      "stateMutability": "nonpayable",
      "type": "function"
    },
    {
      "inputs": [
        {
          "internalType": "uint256",
          "name": "token",
          "type": "uint256"
        },
        {
          "internalType": "bytes",
          "name": "uri",
          "type": "bytes"
        }
      ],
      "name": "setTokenURI",
      "outputs": [],
      "stateMutability": "nonpayable",
      "type": "function"
    },
    {
      "inputs": [
        {
          "internalType": "uint256[]",
          "name": "tokens",
          "type": "uint256[]"
        },
        {
          "internalType": "bytes[]",
          "name": "uris",
          "type": "bytes[]"
        }
      ],
      "name": "setTokenURIs",
      "outputs": [],
      "stateMutability": "nonpayable",
      "type": "function"
    },
    {
      "inputs": [
        {
          "internalType": "bytes4",
          "name": "interfaceId",
          "type": "bytes4"
        }
      ],
      "name": "supportsInterface",
      "outputs": [
        {
          "internalType": "bool",
          "name": "",
          "type": "bool"
        }
      ],
      "stateMutability": "view",
      "type": "function"
    },
    {
      "inputs": [],
      "name": "symbol",
      "outputs": [
        {
          "internalType": "string",
          "name": "",
          "type": "string"
        }
      ],
      "stateMutability": "view",
      "type": "function"
    },
    {
      "inputs": [
        {
          "internalType": "uint256",
          "name": "index",
          "type": "uint256"
        }
      ],
      "name": "tokenByIndex",
      "outputs": [
        {
          "internalType": "uint256",
          "name": "",
          "type": "uint256"
        }
      ],
      "stateMutability": "view",
      "type": "function"
    },
    {
      "inputs": [
        {
          "internalType": "address",
          "name": "owner",
          "type": "address"
        },
        {
          "internalType": "uint256",
          "name": "index",
          "type": "uint256"
        }
      ],
      "name": "tokenOfOwnerByIndex",
      "outputs": [
        {
          "internalType": "uint256",
          "name": "",
          "type": "uint256"
        }
      ],
      "stateMutability": "view",
      "type": "function"
    },
    {
      "inputs": [
        {
          "internalType": "uint256",
          "name": "tokenId",
          "type": "uint256"
        }
      ],
      "name": "tokenURI",
      "outputs": [
        {
          "internalType": "string",
          "name": "",
          "type": "string"
        }
      ],
      "stateMutability": "view",
      "type": "function"
    },
    {
      "inputs": [
        {
          "internalType": "address",
          "name": "owner",
          "type": "address"
        }
      ],
      "name": "tokensOfOwner",
      "outputs": [
        {
          "internalType": "uint256[]",
          "name": "",
          "type": "uint256[]"
        }
      ],
      "stateMutability": "view",
      "type": "function"
    },
    {
      "inputs": [],
      "name": "totalSupply",
      "outputs": [
        {
          "internalType": "uint256",
          "name": "",
          "type": "uint256"
        }
      ],
      "stateMutability": "view",
      "type": "function"
    },
    {
      "inputs": [
        {
          "internalType": "address",
          "name": "from",
          "type": "address"
        },
        {
          "internalType": "address",
          "name": "to",
          "type": "address"
        },
        {
          "internalType": "uint256",
          "name": "tokenId",
          "type": "uint256"
        }
      ],
      "name": "transferFrom",
      "outputs": [],
      "stateMutability": "nonpayable",
      "type": "function"
    },
    {
      "inputs": [],
      "name": "unpause",
      "outputs": [],
      "stateMutability": "nonpayable",
      "type": "function"
    }
  ],
  "bytecode": "0x60806040523480156200001157600080fd5b506200001c62000022565b620000e4565b600054610100900460ff16156200008f5760405162461bcd60e51b815260206004820152602760248201527f496e697469616c697a61626c653a20636f6e747261637420697320696e697469604482015266616c697a696e6760c81b606482015260840160405180910390fd5b60005460ff9081161015620000e2576000805460ff191660ff9081179091556040519081527f7f26b83ff96e1f2b6a682f133852f6798a09c465da95921460cefb38474024989060200160405180910390a15b565b61331180620000f46000396000f3fe608060405234801561001057600080fd5b50600436106102485760003560e01c806370a082311161013b578063a22cb465116100b8578063ca15c8731161007c578063ca15c873146104ef578063d539139314610502578063d547741f14610517578063e985e9c51461052a578063f3993d111461056657600080fd5b8063a22cb4651461049b578063ae3a78c2146104ae578063b88d4fde146104c1578063bdbed722146104d4578063c87b56dd146104dc57600080fd5b80638462151c116100ff5780638462151c146104455780639010d07c1461046557806391d148541461047857806395d89b411461048b578063a217fddf1461049357600080fd5b806370a082311461040557806375b238fc14610418578063776458391461042d5780638129fc1c146104355780638456cb591461043d57600080fd5b80633aaaf018116101c95780634684d7e91161018d5780634684d7e9146103a05780634f6ccce7146103b35780635c975abb146103c65780636352211e146103d25780636d94f13a146103e557600080fd5b80633aaaf0181461034c5780633f4ba83a1461035f57806340c10f191461036757806342842e0e1461037a57806342966c681461038d57600080fd5b806323b872dd1161021057806323b872dd146102dc578063248a9ca3146102ef5780632f2ff15d146103135780632f745c591461032657806336568abe1461033957600080fd5b806301ffc9a71461024d57806306fdde0314610275578063081812fc1461028a578063095ea7b3146102b557806318160ddd146102ca575b600080fd5b61026061025b366004612814565b610579565b60405190151581526020015b60405180910390f35b61027d61058a565b60405161026c9190612881565b61029d610298366004612894565b61061c565b6040516001600160a01b03909116815260200161026c565b6102c86102c33660046128c9565b610643565b005b6099545b60405190815260200161026c565b6102c86102ea3660046128f3565b61075d565b6102ce6102fd366004612894565b600090815261015f602052604090206001015490565b6102c861032136600461292f565b61078f565b6102ce6103343660046128c9565b6107b5565b6102c861034736600461292f565b61084b565b6102c861035a366004612a9e565b6108c9565b6102c86109ca565b6102c86103753660046128c9565b6109ed565b6102c86103883660046128f3565b610a0f565b6102c861039b366004612894565b610a2a565b6102c86103ae366004612b72565b610a65565b6102ce6103c1366004612894565b610abe565b61012d5460ff16610260565b61029d6103e0366004612894565b610b51565b6103f86103f3366004612bbf565b610bb1565b60405161026c9190612bf3565b6102ce610413366004612c55565b610c69565b6102ce6000805160206132bc83398151915281565b61027d610cef565b6102c8610d7d565b6102c8610f3c565b610458610453366004612c55565b610f5c565b60405161026c9190612c70565b61029d610473366004612cb4565b610ffd565b61026061048636600461292f565b61101d565b61027d611049565b6102ce600081565b6102c86104a9366004612cd6565b611058565b6102c86104bc366004612d12565b611063565b6102c86104cf366004612d4e565b611085565b6104586110b7565b61027d6104ea366004612894565b6111a1565b6102ce6104fd366004612894565b6111ac565b6102ce60008051602061329c83398151915281565b6102c861052536600461292f565b6111c4565b610260610538366004612db5565b6001600160a01b039182166000908152606a6020908152604080832093909416825291909152205460ff1690565b6102c8610574366004612ddf565b6111ea565b60006105848261122c565b92915050565b60606065805461059990612e3c565b80601f01602080910402602001604051908101604052809291908181526020018280546105c590612e3c565b80156106125780601f106105e757610100808354040283529160200191610612565b820191906000526020600020905b8154815290600101906020018083116105f557829003601f168201915b5050505050905090565b600061062782611237565b506000908152606960205260409020546001600160a01b031690565b600061064e82610b51565b9050806001600160a01b0316836001600160a01b0316036106c05760405162461bcd60e51b815260206004820152602160248201527f4552433732313a20617070726f76616c20746f2063757272656e74206f776e656044820152603960f91b60648201526084015b60405180910390fd5b336001600160a01b03821614806106dc57506106dc8133610538565b61074e5760405162461bcd60e51b815260206004820152603e60248201527f4552433732313a20617070726f76652063616c6c6572206973206e6f7420746f60448201527f6b656e206f776e6572206e6f7220617070726f76656420666f7220616c6c000060648201526084016106b7565b6107588383611287565b505050565b610768335b826112f5565b6107845760405162461bcd60e51b81526004016106b790612e76565b610758838383611374565b600082815261015f60205260409020600101546107ab8161151b565b6107588383611525565b60006107c083610c69565b82106108225760405162461bcd60e51b815260206004820152602b60248201527f455243373231456e756d657261626c653a206f776e657220696e646578206f7560448201526a74206f6620626f756e647360a81b60648201526084016106b7565b506001600160a01b03919091166000908152609760209081526040808320938352929052205490565b6001600160a01b03811633146108bb5760405162461bcd60e51b815260206004820152602f60248201527f416363657373436f6e74726f6c3a2063616e206f6e6c792072656e6f756e636560448201526e103937b632b9903337b91039b2b63360891b60648201526084016106b7565b6108c58282611548565b5050565b6000805160206132bc8339815191526108e18161151b565b60008351116109255760405162461bcd60e51b815260206004820152601060248201526f139bc81d1bdad95b9cc81c185cdcd95960821b60448201526064016106b7565b815183511461096a5760405162461bcd60e51b81526020600482015260116024820152704d69736d6174636865642061727261797360781b60448201526064016106b7565b60005b83518110156109c4576109b284828151811061098b5761098b612ec4565b60200260200101518483815181106109a5576109a5612ec4565b602002602001015161156b565b806109bc81612ef0565b91505061096d565b50505050565b6000805160206132bc8339815191526109e28161151b565b6109ea611583565b50565b60008051602061329c833981519152610a058161151b565b61075883836115d6565b61075883838360405180602001604052806000815250611085565b610a3333610762565b610a4f5760405162461bcd60e51b81526004016106b790612e76565b610a5b6101f5826115f0565b506109ea816115fc565b60008051602061329c833981519152610a7d8161151b565b60005b82518110156109c457610aac84848381518110610a9f57610a9f612ec4565b60200260200101516115d6565b80610ab681612ef0565b915050610a80565b6000610ac960995490565b8210610b2c5760405162461bcd60e51b815260206004820152602c60248201527f455243373231456e756d657261626c653a20676c6f62616c20696e646578206f60448201526b7574206f6620626f756e647360a01b60648201526084016106b7565b60998281548110610b3f57610b3f612ec4565b90600052602060002001549050919050565b6000818152606760205260408120546001600160a01b0316806105845760405162461bcd60e51b8152602060048201526018602482015277115490cdcc8c4e881a5b9d985b1a59081d1bdad95b88125160421b60448201526064016106b7565b6060600082516001600160401b03811115610bce57610bce61295b565b604051908082528060200260200182016040528015610c0157816020015b6060815260200190600190039081610bec5790505b50905060005b8351811015610c6257610c32848281518110610c2557610c25612ec4565b60200260200101516111a1565b828281518110610c4457610c44612ec4565b60200260200101819052508080610c5a90612ef0565b915050610c07565b5092915050565b60006001600160a01b038216610cd35760405162461bcd60e51b815260206004820152602960248201527f4552433732313a2061646472657373207a65726f206973206e6f7420612076616044820152683634b21037bbb732b960b91b60648201526084016106b7565b506001600160a01b031660009081526068602052604090205490565b60fc8054610cfc90612e3c565b80601f0160208091040260200160405190810160405280929190818152602001828054610d2890612e3c565b8015610d755780601f10610d4a57610100808354040283529160200191610d75565b820191906000526020600020905b815481529060010190602001808311610d5857829003601f168201915b505050505081565b600054610100900460ff1615808015610d9d5750600054600160ff909116105b80610db75750303b158015610db7575060005460ff166001145b610e1a5760405162461bcd60e51b815260206004820152602e60248201527f496e697469616c697a61626c653a20636f6e747261637420697320616c72656160448201526d191e481a5b9a5d1a585b1a5e995960921b60648201526084016106b7565b6000805460ff191660011790558015610e3d576000805461ff0019166101001790555b610e916040518060400160405280600e81526020016d4672616d65642057697a6172647360901b8152506040518060400160405280600c81526020016b11949053515115d25690549160a21b81525061163c565b610e9961166d565b610ea161169e565b610ea96116c5565b610eb161169e565b610eb961166d565b610ec4600033611525565b610edc6000805160206132bc83398151915233611525565b610ef460008051602061329c83398151915233611525565b80156109ea576000805461ff0019169055604051600181527f7f26b83ff96e1f2b6a682f133852f6798a09c465da95921460cefb38474024989060200160405180910390a150565b6000805160206132bc833981519152610f548161151b565b6109ea6116f4565b60606000610f6983610c69565b90506000816001600160401b03811115610f8557610f8561295b565b604051908082528060200260200182016040528015610fae578160200160208202803683370190505b50905060005b82811015610ff557610fc685826107b5565b828281518110610fd857610fd8612ec4565b602090810291909101015280610fed81612ef0565b915050610fb4565b509392505050565b6000828152610191602052604081206110169083611732565b9392505050565b600091825261015f602090815260408084206001600160a01b0393909316845291905290205460ff1690565b60606066805461059990612e3c565b6108c533838361173e565b6000805160206132bc83398151915261107b8161151b565b610758838361156b565b61108f33836112f5565b6110ab5760405162461bcd60e51b81526004016106b790612e76565b6109c48484848461180c565b6060600060015b6127108110156110f6576110d18161183f565b156110e457816110e081612ef0565b9250505b806110ee81612ef0565b9150506110be565b506000816001600160401b038111156111115761111161295b565b60405190808252806020026020018201604052801561113a578160200160208202803683370190505b509050600060015b612710811015611198576111558161183f565b15611186578083838151811061116d5761116d612ec4565b60209081029190910101528161118281612ef0565b9250505b8061119081612ef0565b915050611142565b50909392505050565b60606105848261184a565b6000818152610191602052604081206105849061198e565b600082815261015f60205260409020600101546111e08161151b565b6107588383611548565b60005b81518110156109c45761121a848484848151811061120d5761120d612ec4565b602002602001015161075d565b8061122481612ef0565b9150506111ed565b600061058482611998565b6112408161183f565b6109ea5760405162461bcd60e51b8152602060048201526018602482015277115490cdcc8c4e881a5b9d985b1a59081d1bdad95b88125160421b60448201526064016106b7565b600081815260696020526040902080546001600160a01b0319166001600160a01b03841690811790915581906112bc82610b51565b6001600160a01b03167f8c5be1e5ebec7d5bd14f71427d1e84f3dd0314c0f7b2291e5b200ac8c7c3b92560405160405180910390a45050565b60008061130183610b51565b9050806001600160a01b0316846001600160a01b0316148061134857506001600160a01b038082166000908152606a602090815260408083209388168352929052205460ff165b8061136c5750836001600160a01b03166113618461061c565b6001600160a01b0316145b949350505050565b826001600160a01b031661138782610b51565b6001600160a01b0316146113eb5760405162461bcd60e51b815260206004820152602560248201527f4552433732313a207472616e736665722066726f6d20696e636f72726563742060448201526437bbb732b960d91b60648201526084016106b7565b6001600160a01b03821661144d5760405162461bcd60e51b8152602060048201526024808201527f4552433732313a207472616e7366657220746f20746865207a65726f206164646044820152637265737360e01b60648201526084016106b7565b6114588383836119bd565b611463600082611287565b6001600160a01b038316600090815260686020526040812080546001929061148c908490612f09565b90915550506001600160a01b03821660009081526068602052604081208054600192906114ba908490612f1c565b909155505060008181526067602052604080822080546001600160a01b0319166001600160a01b0386811691821790925591518493918716917fddf252ad1be2c89b69c2b068fc378daa952ba7f163c4a11628f55a4df523b3ef91a4505050565b6109ea8133611a77565b61152f8282611adb565b6000828152610191602052604090206107589082611b62565b6115528282611b77565b6000828152610191602052604090206107589082611bdf565b600082815260fb602052604090206107588282612f7d565b61158b611bf4565b61012d805460ff191690557f5db9ee0a495bf2e6ff9c91a7834c1ba4fdd244a5e8aa4e537bd38aeae4b073aa335b6040516001600160a01b03909116815260200160405180910390a1565b6108c5828260405180602001604052806000815250611c3e565b60006110168383611c71565b61160581611cc0565b600081815260fb60205260409020805461161e90612e3c565b1590506109ea57600081815260fb602052604081206109ea916127b0565b600054610100900460ff166116635760405162461bcd60e51b81526004016106b79061303c565b6108c58282611d67565b600054610100900460ff166116945760405162461bcd60e51b81526004016106b79061303c565b61169c61169e565b565b600054610100900460ff1661169c5760405162461bcd60e51b81526004016106b79061303c565b600054610100900460ff166116ec5760405162461bcd60e51b81526004016106b79061303c565b61169c611da7565b6116fc611ddb565b61012d805460ff191660011790557f62e78cea01bee320cd4e420270b5ea74000d11b0c9f74754ebdbfc544b05a2586115b93390565b60006110168383611e22565b816001600160a01b0316836001600160a01b03160361179f5760405162461bcd60e51b815260206004820152601960248201527f4552433732313a20617070726f766520746f2063616c6c65720000000000000060448201526064016106b7565b6001600160a01b038381166000818152606a6020908152604080832094871680845294825291829020805460ff191686151590811790915591519182527f17307eab39ab6107e8899845ad3d59bd9653f200f220920489ca2b5937696c31910160405180910390a3505050565b611817848484611374565b61182384848484611e4c565b6109c45760405162461bcd60e51b81526004016106b790613087565b600061058482611f4d565b60606118558261183f565b6118c75760405162461bcd60e51b815260206004820152603960248201527f45524337323155524953746f72616765457874656e6465643a2055524920717560448201527f65727920666f72206e6f6e6578697374656e7420746f6b656e0000000000000060648201526084016106b7565b600082815260fb60205260409020805461196891906118e590612e3c565b80601f016020809104026020016040519081016040528092919081815260200182805461191190612e3c565b801561195e5780601f106119335761010080835404028352916020019161195e565b820191906000526020600020905b81548152906001019060200180831161194157829003601f168201915b5050505050611f6c565b60405160200161197891906130d9565b6040516020818303038152906040529050919050565b6000610584825490565b60006001600160e01b03198216635a05180f60e01b14806105845750610584826120be565b6119c5611ddb565b826119d2610259826120e3565b15611a155760405162461bcd60e51b8152602060048201526013602482015272426c61636b6c6973746564206164647265737360681b60448201526064016106b7565b82611a22610259826120e3565b15611a655760405162461bcd60e51b8152602060048201526013602482015272426c61636b6c6973746564206164647265737360681b60448201526064016106b7565b611a70858585612105565b5050505050565b611a81828261101d565b6108c557611a99816001600160a01b03166014612110565b611aa4836020612110565b604051602001611ab592919061311e565b60408051601f198184030181529082905262461bcd60e51b82526106b791600401612881565b611ae5828261101d565b6108c557600082815261015f602090815260408083206001600160a01b03851684529091529020805460ff19166001179055611b1e3390565b6001600160a01b0316816001600160a01b0316837f2f8788117e7eff1d82e926ec794901d17c78024a50270940304540a733656f0d60405160405180910390a45050565b6000611016836001600160a01b038416611c71565b611b81828261101d565b156108c557600082815261015f602090815260408083206001600160a01b0385168085529252808320805460ff1916905551339285917ff6391f5c32d9c69d2a47ea670b442974b53935d1edc7fd64eb21e047a839171b9190a45050565b6000611016836001600160a01b0384166122ab565b61012d5460ff1661169c5760405162461bcd60e51b815260206004820152601460248201527314185d5cd8589b194e881b9bdd081c185d5cd95960621b60448201526064016106b7565b611c48838361239e565b611c556000848484611e4c565b6107585760405162461bcd60e51b81526004016106b790613087565b6000818152600183016020526040812054611cb857508154600181810184556000848152602080822090930184905584548482528286019093526040902091909155610584565b506000610584565b6000611ccb82610b51565b9050611cd9816000846119bd565b611ce4600083611287565b6001600160a01b0381166000908152606860205260408120805460019290611d0d908490612f09565b909155505060008281526067602052604080822080546001600160a01b0319169055518391906001600160a01b038416907fddf252ad1be2c89b69c2b068fc378daa952ba7f163c4a11628f55a4df523b3ef908390a45050565b600054610100900460ff16611d8e5760405162461bcd60e51b81526004016106b79061303c565b6065611d9a8382612f7d565b5060666107588282612f7d565b600054610100900460ff16611dce5760405162461bcd60e51b81526004016106b79061303c565b61012d805460ff19169055565b61012d5460ff161561169c5760405162461bcd60e51b815260206004820152601060248201526f14185d5cd8589b194e881c185d5cd95960821b60448201526064016106b7565b6000826000018281548110611e3957611e39612ec4565b9060005260206000200154905092915050565b60006001600160a01b0384163b15611f4257604051630a85bd0160e11b81526001600160a01b0385169063150b7a0290611e90903390899088908890600401613193565b6020604051808303816000875af1925050508015611ecb575060408051601f3d908101601f19168201909252611ec8918101906131d0565b60015b611f28573d808015611ef9576040519150601f19603f3d011682016040523d82523d6000602084013e611efe565b606091505b508051600003611f205760405162461bcd60e51b81526004016106b790613087565b805181602001fd5b6001600160e01b031916630a85bd0160e11b14905061136c565b506001949350505050565b6000818152606760205260408120546001600160a01b03161515610584565b60608151600003611f8b57505060408051602081019091526000815290565b600060405180606001604052806040815260200161325c6040913990506000600384516002611fba9190612f1c565b611fc491906131ed565b611fcf90600461320f565b6001600160401b03811115611fe657611fe661295b565b6040519080825280601f01601f191660200182016040528015612010576020820181803683370190505b509050600182016020820185865187015b8082101561207c576003820191508151603f8160121c168501518453600184019350603f81600c1c168501518453600184019350603f8160061c168501518453600184019350603f8116850151845350600183019250612021565b505060038651066001811461209857600281146120ab576120b3565b603d6001830353603d60028303536120b3565b603d60018303535b509195945050505050565b60006001600160e01b03198216637965db0b60e01b14806105845750610584826124dd565b6001600160a01b03811660009081526001830160205260408120541515611016565b6107588383836124e8565b6060600061211f83600261320f565b61212a906002612f1c565b6001600160401b038111156121415761214161295b565b6040519080825280601f01601f19166020018201604052801561216b576020820181803683370190505b509050600360fc1b8160008151811061218657612186612ec4565b60200101906001600160f81b031916908160001a905350600f60fb1b816001815181106121b5576121b5612ec4565b60200101906001600160f81b031916908160001a90535060006121d984600261320f565b6121e4906001612f1c565b90505b600181111561225c576f181899199a1a9b1b9c1cb0b131b232b360811b85600f166010811061221857612218612ec4565b1a60f81b82828151811061222e5761222e612ec4565b60200101906001600160f81b031916908160001a90535060049490941c936122558161322e565b90506121e7565b5083156110165760405162461bcd60e51b815260206004820181905260248201527f537472696e67733a20686578206c656e67746820696e73756666696369656e7460448201526064016106b7565b600081815260018301602052604081205480156123945760006122cf600183612f09565b85549091506000906122e390600190612f09565b905081811461234857600086600001828154811061230357612303612ec4565b906000526020600020015490508087600001848154811061232657612326612ec4565b6000918252602080832090910192909255918252600188019052604090208390555b855486908061235957612359613245565b600190038181906000526020600020016000905590558560010160008681526020019081526020016000206000905560019350505050610584565b6000915050610584565b6001600160a01b0382166123f45760405162461bcd60e51b815260206004820181905260248201527f4552433732313a206d696e7420746f20746865207a65726f206164647265737360448201526064016106b7565b6123fd8161183f565b1561244a5760405162461bcd60e51b815260206004820152601c60248201527f4552433732313a20746f6b656e20616c7265616479206d696e7465640000000060448201526064016106b7565b612456600083836119bd565b6001600160a01b038216600090815260686020526040812080546001929061247f908490612f1c565b909155505060008181526067602052604080822080546001600160a01b0319166001600160a01b03861690811790915590518392907fddf252ad1be2c89b69c2b068fc378daa952ba7f163c4a11628f55a4df523b3ef908290a45050565b6000610584826124f3565b610758838383612518565b60006001600160e01b0319821663780e9d6360e01b14806105845750610584826125d0565b6001600160a01b0383166125735761256e81609980546000838152609a60205260408120829055600182018355919091527f72a152ddfb8e864297c917af52ea6c1c68aead0fee1a62673fcc7e0c94979d000155565b612596565b816001600160a01b0316836001600160a01b031614612596576125968382612620565b6001600160a01b0382166125ad57610758816126bd565b826001600160a01b0316826001600160a01b03161461075857610758828261276c565b60006001600160e01b031982166380ac58cd60e01b148061260157506001600160e01b03198216635b5e139f60e01b145b8061058457506301ffc9a760e01b6001600160e01b0319831614610584565b6000600161262d84610c69565b6126379190612f09565b60008381526098602052604090205490915080821461268a576001600160a01b03841660009081526097602090815260408083208584528252808320548484528184208190558352609890915290208190555b5060009182526098602090815260408084208490556001600160a01b039094168352609781528383209183525290812055565b6099546000906126cf90600190612f09565b6000838152609a6020526040812054609980549394509092849081106126f7576126f7612ec4565b90600052602060002001549050806099838154811061271857612718612ec4565b6000918252602080832090910192909255828152609a9091526040808220849055858252812055609980548061275057612750613245565b6001900381819060005260206000200160009055905550505050565b600061277783610c69565b6001600160a01b039093166000908152609760209081526040808320868452825280832085905593825260989052919091209190915550565b5080546127bc90612e3c565b6000825580601f106127cc575050565b601f0160209004906000526020600020908101906109ea91905b808211156127fa57600081556001016127e6565b5090565b6001600160e01b0319811681146109ea57600080fd5b60006020828403121561282657600080fd5b8135611016816127fe565b60005b8381101561284c578181015183820152602001612834565b50506000910152565b6000815180845261286d816020860160208601612831565b601f01601f19169290920160200192915050565b6020815260006110166020830184612855565b6000602082840312156128a657600080fd5b5035919050565b80356001600160a01b03811681146128c457600080fd5b919050565b600080604083850312156128dc57600080fd5b6128e5836128ad565b946020939093013593505050565b60008060006060848603121561290857600080fd5b612911846128ad565b925061291f602085016128ad565b9150604084013590509250925092565b6000806040838503121561294257600080fd5b82359150612952602084016128ad565b90509250929050565b634e487b7160e01b600052604160045260246000fd5b604051601f8201601f191681016001600160401b03811182821017156129995761299961295b565b604052919050565b60006001600160401b038211156129ba576129ba61295b565b5060051b60200190565b600082601f8301126129d557600080fd5b813560206129ea6129e5836129a1565b612971565b82815260059290921b84018101918181019086841115612a0957600080fd5b8286015b84811015612a245780358352918301918301612a0d565b509695505050505050565b600082601f830112612a4057600080fd5b81356001600160401b03811115612a5957612a5961295b565b612a6c601f8201601f1916602001612971565b818152846020838601011115612a8157600080fd5b816020850160208301376000918101602001919091529392505050565b60008060408385031215612ab157600080fd5b82356001600160401b0380821115612ac857600080fd5b612ad4868387016129c4565b9350602091508185013581811115612aeb57600080fd5b8501601f81018713612afc57600080fd5b8035612b0a6129e5826129a1565b81815260059190911b82018401908481019089831115612b2957600080fd5b8584015b83811015612b6157803586811115612b455760008081fd5b612b538c8983890101612a2f565b845250918601918601612b2d565b508096505050505050509250929050565b60008060408385031215612b8557600080fd5b612b8e836128ad565b915060208301356001600160401b03811115612ba957600080fd5b612bb5858286016129c4565b9150509250929050565b600060208284031215612bd157600080fd5b81356001600160401b03811115612be757600080fd5b61136c848285016129c4565b6000602080830181845280855180835260408601915060408160051b870101925083870160005b82811015612c4857603f19888603018452612c36858351612855565b94509285019290850190600101612c1a565b5092979650505050505050565b600060208284031215612c6757600080fd5b611016826128ad565b6020808252825182820181905260009190848201906040850190845b81811015612ca857835183529284019291840191600101612c8c565b50909695505050505050565b60008060408385031215612cc757600080fd5b50508035926020909101359150565b60008060408385031215612ce957600080fd5b612cf2836128ad565b915060208301358015158114612d0757600080fd5b809150509250929050565b60008060408385031215612d2557600080fd5b8235915060208301356001600160401b03811115612d4257600080fd5b612bb585828601612a2f565b60008060008060808587031215612d6457600080fd5b612d6d856128ad565b9350612d7b602086016128ad565b92506040850135915060608501356001600160401b03811115612d9d57600080fd5b612da987828801612a2f565b91505092959194509250565b60008060408385031215612dc857600080fd5b612dd1836128ad565b9150612952602084016128ad565b600080600060608486031215612df457600080fd5b612dfd846128ad565b9250612e0b602085016128ad565b915060408401356001600160401b03811115612e2657600080fd5b612e32868287016129c4565b9150509250925092565b600181811c90821680612e5057607f821691505b602082108103612e7057634e487b7160e01b600052602260045260246000fd5b50919050565b6020808252602e908201527f4552433732313a2063616c6c6572206973206e6f7420746f6b656e206f776e6560408201526d1c881b9bdc88185c1c1c9bdd995960921b606082015260800190565b634e487b7160e01b600052603260045260246000fd5b634e487b7160e01b600052601160045260246000fd5b600060018201612f0257612f02612eda565b5060010190565b8181038181111561058457610584612eda565b8082018082111561058457610584612eda565b601f82111561075857600081815260208120601f850160051c81016020861015612f565750805b601f850160051c820191505b81811015612f7557828155600101612f62565b505050505050565b81516001600160401b03811115612f9657612f9661295b565b612faa81612fa48454612e3c565b84612f2f565b602080601f831160018114612fdf5760008415612fc75750858301515b600019600386901b1c1916600185901b178555612f75565b600085815260208120601f198616915b8281101561300e57888601518255948401946001909101908401612fef565b508582101561302c5787850151600019600388901b60f8161c191681555b5050505050600190811b01905550565b6020808252602b908201527f496e697469616c697a61626c653a20636f6e7472616374206973206e6f74206960408201526a6e697469616c697a696e6760a81b606082015260800190565b60208082526032908201527f4552433732313a207472616e7366657220746f206e6f6e20455243373231526560408201527131b2b4bb32b91034b6b83632b6b2b73a32b960711b606082015260800190565b7f646174613a6170706c69636174696f6e2f6a736f6e3b6261736536342c00000081526000825161311181601d850160208701612831565b91909101601d0192915050565b7f416363657373436f6e74726f6c3a206163636f756e7420000000000000000000815260008351613156816017850160208801612831565b7001034b99036b4b9b9b4b733903937b6329607d1b6017918401918201528351613187816028840160208801612831565b01602801949350505050565b6001600160a01b03858116825284166020820152604081018390526080606082018190526000906131c690830184612855565b9695505050505050565b6000602082840312156131e257600080fd5b8151611016816127fe565b60008261320a57634e487b7160e01b600052601260045260246000fd5b500490565b600081600019048311821515161561322957613229612eda565b500290565b60008161323d5761323d612eda565b506000190190565b634e487b7160e01b600052603160045260246000fdfe4142434445464748494a4b4c4d4e4f505152535455565758595a6162636465666768696a6b6c6d6e6f707172737475767778797a303132333435363738392b2f9f2df0fed2c77648de5860a4cc508cd0818c85b8b8a1ab4ceeef8d981c8956a6a49807205ce4d355092ef5a8a18f56e8913cf4a201fbe287825b095693c21775a2646970667358221220f72fa8c7865c943a63847721dd3d16fc1fe883f9d0da7a7550ee266e0b4eb05764736f6c63430008100033",
  "linkReferences": {},
  "deployedLinkReferences": {}
}