{
  "_format": "hh-sol-artifact-1",
  "contractName": "FramedWizardsUpgradeable",
  "sourceName": "contracts/upgradeable/ERC721/FramedWizardsUpgradeable.sol",
  "abi": [
    {
      "inputs": [],
      "stateMutability": "nonpayable",
      "type": "constructor"
    },
    {
      "anonymous": false,
      "inputs": [
        {
          "indexed": true,
          "internalType": "address",
          "name": "owner",
          "type": "address"
        },
        {
          "indexed": true,
          "internalType": "address",
          "name": "approved",
          "type": "address"
        },
        {
          "indexed": true,
          "internalType": "uint256",
          "name": "tokenId",
          "type": "uint256"
        }
      ],
      "name": "Approval",
      "type": "event"
    },
    {
      "anonymous": false,
      "inputs": [
        {
          "indexed": true,
          "internalType": "address",
          "name": "owner",
          "type": "address"
        },
        {
          "indexed": true,
          "internalType": "address",
          "name": "operator",
          "type": "address"
        },
        {
          "indexed": false,
          "internalType": "bool",
          "name": "approved",
          "type": "bool"
        }
      ],
      "name": "ApprovalForAll",
      "type": "event"
    },
    {
      "anonymous": false,
      "inputs": [
        {
          "indexed": false,
          "internalType": "uint8",
          "name": "version",
          "type": "uint8"
        }
      ],
      "name": "Initialized",
      "type": "event"
    },
    {
      "anonymous": false,
      "inputs": [
        {
          "indexed": false,
          "internalType": "address",
          "name": "account",
          "type": "address"
        }
      ],
      "name": "Paused",
      "type": "event"
    },
    {
      "anonymous": false,
      "inputs": [
        {
          "indexed": true,
          "internalType": "bytes32",
          "name": "role",
          "type": "bytes32"
        },
        {
          "indexed": true,
          "internalType": "bytes32",
          "name": "previousAdminRole",
          "type": "bytes32"
        },
        {
          "indexed": true,
          "internalType": "bytes32",
          "name": "newAdminRole",
          "type": "bytes32"
        }
      ],
      "name": "RoleAdminChanged",
      "type": "event"
    },
    {
      "anonymous": false,
      "inputs": [
        {
          "indexed": true,
          "internalType": "bytes32",
          "name": "role",
          "type": "bytes32"
        },
        {
          "indexed": true,
          "internalType": "address",
          "name": "account",
          "type": "address"
        },
        {
          "indexed": true,
          "internalType": "address",
          "name": "sender",
          "type": "address"
        }
      ],
      "name": "RoleGranted",
      "type": "event"
    },
    {
      "anonymous": false,
      "inputs": [
        {
          "indexed": true,
          "internalType": "bytes32",
          "name": "role",
          "type": "bytes32"
        },
        {
          "indexed": true,
          "internalType": "address",
          "name": "account",
          "type": "address"
        },
        {
          "indexed": true,
          "internalType": "address",
          "name": "sender",
          "type": "address"
        }
      ],
      "name": "RoleRevoked",
      "type": "event"
    },
    {
      "anonymous": false,
      "inputs": [
        {
          "indexed": true,
          "internalType": "address",
          "name": "from",
          "type": "address"
        },
        {
          "indexed": true,
          "internalType": "address",
          "name": "to",
          "type": "address"
        },
        {
          "indexed": true,
          "internalType": "uint256",
          "name": "tokenId",
          "type": "uint256"
        }
      ],
      "name": "Transfer",
      "type": "event"
    },
    {
      "anonymous": false,
      "inputs": [
        {
          "indexed": false,
          "internalType": "address",
          "name": "account",
          "type": "address"
        }
      ],
      "name": "Unpaused",
      "type": "event"
    },
    {
      "inputs": [],
      "name": "ADMIN_ROLE",
      "outputs": [
        {
          "internalType": "bytes32",
          "name": "",
          "type": "bytes32"
        }
      ],
      "stateMutability": "view",
      "type": "function"
    },
    {
      "inputs": [],
      "name": "DEFAULT_ADMIN_ROLE",
      "outputs": [
        {
          "internalType": "bytes32",
          "name": "",
          "type": "bytes32"
        }
      ],
      "stateMutability": "view",
      "type": "function"
    },
    {
      "inputs": [],
      "name": "MINTER_ROLE",
      "outputs": [
        {
          "internalType": "bytes32",
          "name": "",
          "type": "bytes32"
        }
      ],
      "stateMutability": "view",
      "type": "function"
    },
    {
      "inputs": [
        {
          "internalType": "address",
          "name": "to",
          "type": "address"
        },
        {
          "internalType": "uint256",
          "name": "tokenId",
          "type": "uint256"
        }
      ],
      "name": "approve",
      "outputs": [],
      "stateMutability": "nonpayable",
      "type": "function"
    },
    {
      "inputs": [
        {
          "internalType": "address",
          "name": "owner",
          "type": "address"
        }
      ],
      "name": "balanceOf",
      "outputs": [
        {
          "internalType": "uint256",
          "name": "",
          "type": "uint256"
        }
      ],
      "stateMutability": "view",
      "type": "function"
    },
    {
      "inputs": [
        {
          "internalType": "address",
          "name": "to",
          "type": "address"
        },
        {
          "internalType": "uint256[]",
          "name": "tokenIds",
          "type": "uint256[]"
        }
      ],
      "name": "batchMint",
      "outputs": [],
      "stateMutability": "nonpayable",
      "type": "function"
    },
    {
      "inputs": [
        {
          "internalType": "uint256[]",
          "name": "tokenIds",
          "type": "uint256[]"
        }
      ],
      "name": "batchTokenURI",
      "outputs": [
        {
          "internalType": "string[]",
          "name": "",
          "type": "string[]"
        }
      ],
      "stateMutability": "view",
      "type": "function"
    },
    {
      "inputs": [
        {
          "internalType": "uint256",
          "name": "tokenId",
          "type": "uint256"
        }
      ],
      "name": "burn",
      "outputs": [],
      "stateMutability": "nonpayable",
      "type": "function"
    },
    {
      "inputs": [
        {
          "internalType": "uint256",
          "name": "tokenId",
          "type": "uint256"
        }
      ],
      "name": "getApproved",
      "outputs": [
        {
          "internalType": "address",
          "name": "",
          "type": "address"
        }
      ],
      "stateMutability": "view",
      "type": "function"
    },
    {
      "inputs": [
        {
          "internalType": "bytes32",
          "name": "role",
          "type": "bytes32"
        }
      ],
      "name": "getRoleAdmin",
      "outputs": [
        {
          "internalType": "bytes32",
          "name": "",
          "type": "bytes32"
        }
      ],
      "stateMutability": "view",
      "type": "function"
    },
    {
      "inputs": [
        {
          "internalType": "bytes32",
          "name": "role",
          "type": "bytes32"
        },
        {
          "internalType": "uint256",
          "name": "index",
          "type": "uint256"
        }
      ],
      "name": "getRoleMember",
      "outputs": [
        {
          "internalType": "address",
          "name": "",
          "type": "address"
        }
      ],
      "stateMutability": "view",
      "type": "function"
    },
    {
      "inputs": [
        {
          "internalType": "bytes32",
          "name": "role",
          "type": "bytes32"
        }
      ],
      "name": "getRoleMemberCount",
      "outputs": [
        {
          "internalType": "uint256",
          "name": "",
          "type": "uint256"
        }
      ],
      "stateMutability": "view",
      "type": "function"
    },
    {
      "inputs": [
        {
          "internalType": "bytes32",
          "name": "role",
          "type": "bytes32"
        },
        {
          "internalType": "address",
          "name": "account",
          "type": "address"
        }
      ],
      "name": "grantRole",
      "outputs": [],
      "stateMutability": "nonpayable",
      "type": "function"
    },
    {
      "inputs": [
        {
          "internalType": "bytes32",
          "name": "role",
          "type": "bytes32"
        },
        {
          "internalType": "address",
          "name": "account",
          "type": "address"
        }
      ],
      "name": "hasRole",
      "outputs": [
        {
          "internalType": "bool",
          "name": "",
          "type": "bool"
        }
      ],
      "stateMutability": "view",
      "type": "function"
    },
    {
      "inputs": [],
      "name": "imageBaseURI",
      "outputs": [
        {
          "internalType": "string",
          "name": "",
          "type": "string"
        }
      ],
      "stateMutability": "view",
      "type": "function"
    },
    {
      "inputs": [],
      "name": "initialize",
      "outputs": [],
      "stateMutability": "nonpayable",
      "type": "function"
    },
    {
      "inputs": [
        {
          "internalType": "address",
          "name": "owner",
          "type": "address"
        },
        {
          "internalType": "address",
          "name": "operator",
          "type": "address"
        }
      ],
      "name": "isApprovedForAll",
      "outputs": [
        {
          "internalType": "bool",
          "name": "",
          "type": "bool"
        }
      ],
      "stateMutability": "view",
      "type": "function"
    },
    {
      "inputs": [
        {
          "internalType": "address",
          "name": "to",
          "type": "address"
        },
        {
          "internalType": "uint256",
          "name": "tokenId",
          "type": "uint256"
        }
      ],
      "name": "mint",
      "outputs": [],
      "stateMutability": "nonpayable",
      "type": "function"
    },
    {
      "inputs": [],
      "name": "name",
      "outputs": [
        {
          "internalType": "string",
          "name": "",
          "type": "string"
        }
      ],
      "stateMutability": "view",
      "type": "function"
    },
    {
      "inputs": [
        {
          "internalType": "uint256",
          "name": "tokenId",
          "type": "uint256"
        }
      ],
      "name": "ownerOf",
      "outputs": [
        {
          "internalType": "address",
          "name": "",
          "type": "address"
        }
      ],
      "stateMutability": "view",
      "type": "function"
    },
    {
      "inputs": [],
      "name": "pause",
      "outputs": [],
      "stateMutability": "nonpayable",
      "type": "function"
    },
    {
      "inputs": [],
      "name": "paused",
      "outputs": [
        {
          "internalType": "bool",
          "name": "",
          "type": "bool"
        }
      ],
      "stateMutability": "view",
      "type": "function"
    },
    {
      "inputs": [
        {
          "internalType": "bytes32",
          "name": "role",
          "type": "bytes32"
        },
        {
          "internalType": "address",
          "name": "account",
          "type": "address"
        }
      ],
      "name": "renounceRole",
      "outputs": [],
      "stateMutability": "nonpayable",
      "type": "function"
    },
    {
      "inputs": [
        {
          "internalType": "bytes32",
          "name": "role",
          "type": "bytes32"
        },
        {
          "internalType": "address",
          "name": "account",
          "type": "address"
        }
      ],
      "name": "revokeRole",
      "outputs": [],
      "stateMutability": "nonpayable",
      "type": "function"
    },
    {
      "inputs": [
        {
          "internalType": "address",
          "name": "from",
          "type": "address"
        },
        {
          "internalType": "address",
          "name": "to",
          "type": "address"
        },
        {
          "internalType": "uint256",
          "name": "tokenId",
          "type": "uint256"
        }
      ],
      "name": "safeTransferFrom",
      "outputs": [],
      "stateMutability": "nonpayable",
      "type": "function"
    },
    {
      "inputs": [
        {
          "internalType": "address",
          "name": "from",
          "type": "address"
        },
        {
          "internalType": "address",
          "name": "to",
          "type": "address"
        },
        {
          "internalType": "uint256",
          "name": "tokenId",
          "type": "uint256"
        },
        {
          "internalType": "bytes",
          "name": "data",
          "type": "bytes"
        }
      ],
      "name": "safeTransferFrom",
      "outputs": [],
      "stateMutability": "nonpayable",
      "type": "function"
    },
    {
      "inputs": [
        {
          "internalType": "address",
          "name": "operator",
          "type": "address"
        },
        {
          "internalType": "bool",
          "name": "approved",
          "type": "bool"
        }
      ],
      "name": "setApprovalForAll",
      "outputs": [],
      "stateMutability": "nonpayable",
      "type": "function"
    },
    {
      "inputs": [
        {
          "internalType": "uint256",
          "name": "token",
          "type": "uint256"
        },
        {
          "internalType": "bytes",
          "name": "uri",
          "type": "bytes"
        }
      ],
      "name": "setTokenURI",
      "outputs": [],
      "stateMutability": "nonpayable",
      "type": "function"
    },
    {
      "inputs": [
        {
          "internalType": "uint256[]",
          "name": "tokens",
          "type": "uint256[]"
        },
        {
          "internalType": "bytes[]",
          "name": "uris",
          "type": "bytes[]"
        }
      ],
      "name": "setTokenURIs",
      "outputs": [],
      "stateMutability": "nonpayable",
      "type": "function"
    },
    {
      "inputs": [
        {
          "internalType": "bytes4",
          "name": "interfaceId",
          "type": "bytes4"
        }
      ],
      "name": "supportsInterface",
      "outputs": [
        {
          "internalType": "bool",
          "name": "",
          "type": "bool"
        }
      ],
      "stateMutability": "view",
      "type": "function"
    },
    {
      "inputs": [],
      "name": "symbol",
      "outputs": [
        {
          "internalType": "string",
          "name": "",
          "type": "string"
        }
      ],
      "stateMutability": "view",
      "type": "function"
    },
    {
      "inputs": [
        {
          "internalType": "uint256",
          "name": "index",
          "type": "uint256"
        }
      ],
      "name": "tokenByIndex",
      "outputs": [
        {
          "internalType": "uint256",
          "name": "",
          "type": "uint256"
        }
      ],
      "stateMutability": "view",
      "type": "function"
    },
    {
      "inputs": [
        {
          "internalType": "address",
          "name": "owner",
          "type": "address"
        },
        {
          "internalType": "uint256",
          "name": "index",
          "type": "uint256"
        }
      ],
      "name": "tokenOfOwnerByIndex",
      "outputs": [
        {
          "internalType": "uint256",
          "name": "",
          "type": "uint256"
        }
      ],
      "stateMutability": "view",
      "type": "function"
    },
    {
      "inputs": [
        {
          "internalType": "uint256",
          "name": "tokenId",
          "type": "uint256"
        }
      ],
      "name": "tokenURI",
      "outputs": [
        {
          "internalType": "string",
          "name": "",
          "type": "string"
        }
      ],
      "stateMutability": "view",
      "type": "function"
    },
    {
      "inputs": [
        {
          "internalType": "address",
          "name": "owner",
          "type": "address"
        }
      ],
      "name": "tokensOfOwner",
      "outputs": [
        {
          "internalType": "uint256[]",
          "name": "",
          "type": "uint256[]"
        }
      ],
      "stateMutability": "view",
      "type": "function"
    },
    {
      "inputs": [],
      "name": "totalSupply",
      "outputs": [
        {
          "internalType": "uint256",
          "name": "",
          "type": "uint256"
        }
      ],
      "stateMutability": "view",
      "type": "function"
    },
    {
      "inputs": [
        {
          "internalType": "address",
          "name": "from",
          "type": "address"
        },
        {
          "internalType": "address",
          "name": "to",
          "type": "address"
        },
        {
          "internalType": "uint256",
          "name": "tokenId",
          "type": "uint256"
        }
      ],
      "name": "transferFrom",
      "outputs": [],
      "stateMutability": "nonpayable",
      "type": "function"
    },
    {
      "inputs": [],
      "name": "unpause",
      "outputs": [],
      "stateMutability": "nonpayable",
      "type": "function"
    }
  ],
  "bytecode": "0x60806040523480156200001157600080fd5b506200001c62000022565b620000e4565b600054610100900460ff16156200008f5760405162461bcd60e51b815260206004820152602760248201527f496e697469616c697a61626c653a20636f6e747261637420697320696e697469604482015266616c697a696e6760c81b606482015260840160405180910390fd5b60005460ff9081161015620000e2576000805460ff191660ff9081179091556040519081527f7f26b83ff96e1f2b6a682f133852f6798a09c465da95921460cefb38474024989060200160405180910390a15b565b61313480620000f46000396000f3fe608060405234801561001057600080fd5b50600436106102325760003560e01c80636d94f13a1161013057806395d89b41116100b8578063c87b56dd1161007c578063c87b56dd146104be578063ca15c873146104d1578063d5391393146104e4578063d547741f146104f9578063e985e9c51461050c57600080fd5b806395d89b4114610475578063a217fddf1461047d578063a22cb46514610485578063ae3a78c214610498578063b88d4fde146104ab57600080fd5b80638129fc1c116100ff5780638129fc1c1461041f5780638456cb59146104275780638462151c1461042f5780639010d07c1461044f57806391d148541461046257600080fd5b80636d94f13a146103cf57806370a08231146103ef57806375b238fc14610402578063776458391461041757600080fd5b806336568abe116101be57806342966c681161018257806342966c68146103775780634684d7e91461038a5780634f6ccce71461039d5780635c975abb146103b05780636352211e146103bc57600080fd5b806336568abe146103235780633aaaf018146103365780633f4ba83a1461034957806340c10f191461035157806342842e0e1461036457600080fd5b806318160ddd1161020557806318160ddd146102b457806323b872dd146102c6578063248a9ca3146102d95780632f2ff15d146102fd5780632f745c591461031057600080fd5b806301ffc9a71461023757806306fdde031461025f578063081812fc14610274578063095ea7b31461029f575b600080fd5b61024a610245366004612785565b610548565b60405190151581526020015b60405180910390f35b610267610559565b60405161025691906127fa565b61028761028236600461280d565b6105eb565b6040516001600160a01b039091168152602001610256565b6102b26102ad366004612842565b610612565b005b6099545b604051908152602001610256565b6102b26102d436600461286c565b61072d565b6102b86102e736600461280d565b600090815261015f602052604090206001015490565b6102b261030b3660046128a8565b61075f565b6102b861031e366004612842565b610785565b6102b26103313660046128a8565b61081b565b6102b2610344366004612a1a565b610899565b6102b261099a565b6102b261035f366004612842565b6109bd565b6102b261037236600461286c565b6109df565b6102b261038536600461280d565b6109fa565b6102b2610398366004612aef565b610a35565b6102b86103ab36600461280d565b610a8e565b61012d5460ff1661024a565b6102876103ca36600461280d565b610b21565b6103e26103dd366004612b3d565b610b81565b6040516102569190612b72565b6102b86103fd366004612bd4565b610c3a565b6102b86000805160206130df83398151915281565b610267610cc0565b6102b2610d4e565b6102b2610f0d565b61044261043d366004612bd4565b610f2d565b6040516102569190612bef565b61028761045d366004612c33565b610fcf565b61024a6104703660046128a8565b610fef565b61026761101b565b6102b8600081565b6102b2610493366004612c55565b61102a565b6102b26104a6366004612c91565b611035565b6102b26104b9366004612cce565b611057565b6102676104cc36600461280d565b611089565b6102b86104df36600461280d565b611094565b6102b86000805160206130bf83398151915281565b6102b26105073660046128a8565b6110ac565b61024a61051a366004612d36565b6001600160a01b039182166000908152606a6020908152604080832093909416825291909152205460ff1690565b6000610553826110d2565b92915050565b60606065805461056890612d60565b80601f016020809104026020016040519081016040528092919081815260200182805461059490612d60565b80156105e15780601f106105b6576101008083540402835291602001916105e1565b820191906000526020600020905b8154815290600101906020018083116105c457829003601f168201915b5050505050905090565b60006105f6826110dd565b506000908152606960205260409020546001600160a01b031690565b600061061d82610b21565b9050806001600160a01b0316836001600160a01b031614156106905760405162461bcd60e51b815260206004820152602160248201527f4552433732313a20617070726f76616c20746f2063757272656e74206f776e656044820152603960f91b60648201526084015b60405180910390fd5b336001600160a01b03821614806106ac57506106ac813361051a565b61071e5760405162461bcd60e51b815260206004820152603e60248201527f4552433732313a20617070726f76652063616c6c6572206973206e6f7420746f60448201527f6b656e206f776e6572206e6f7220617070726f76656420666f7220616c6c00006064820152608401610687565b610728838361112d565b505050565b610738335b8261119b565b6107545760405162461bcd60e51b815260040161068790612d9b565b61072883838361121a565b600082815261015f602052604090206001015461077b816113c1565b61072883836113cb565b600061079083610c3a565b82106107f25760405162461bcd60e51b815260206004820152602b60248201527f455243373231456e756d657261626c653a206f776e657220696e646578206f7560448201526a74206f6620626f756e647360a81b6064820152608401610687565b506001600160a01b03919091166000908152609760209081526040808320938352929052205490565b6001600160a01b038116331461088b5760405162461bcd60e51b815260206004820152602f60248201527f416363657373436f6e74726f6c3a2063616e206f6e6c792072656e6f756e636560448201526e103937b632b9903337b91039b2b63360891b6064820152608401610687565b61089582826113ee565b5050565b6000805160206130df8339815191526108b1816113c1565b60008351116108f55760405162461bcd60e51b815260206004820152601060248201526f139bc81d1bdad95b9cc81c185cdcd95960821b6044820152606401610687565b815183511461093a5760405162461bcd60e51b81526020600482015260116024820152704d69736d6174636865642061727261797360781b6044820152606401610687565b60005b83518110156109945761098284828151811061095b5761095b612de9565b602002602001015184838151811061097557610975612de9565b6020026020010151611411565b8061098c81612e15565b91505061093d565b50505050565b6000805160206130df8339815191526109b2816113c1565b6109ba611430565b50565b6000805160206130bf8339815191526109d5816113c1565b6107288383611483565b61072883838360405180602001604052806000815250611057565b610a0333610732565b610a1f5760405162461bcd60e51b815260040161068790612d9b565b610a2b6101f58261149d565b506109ba816114a9565b6000805160206130bf833981519152610a4d816113c1565b60005b825181101561099457610a7c84848381518110610a6f57610a6f612de9565b6020026020010151611483565b80610a8681612e15565b915050610a50565b6000610a9960995490565b8210610afc5760405162461bcd60e51b815260206004820152602c60248201527f455243373231456e756d657261626c653a20676c6f62616c20696e646578206f60448201526b7574206f6620626f756e647360a01b6064820152608401610687565b60998281548110610b0f57610b0f612de9565b90600052602060002001549050919050565b6000818152606760205260408120546001600160a01b0316806105535760405162461bcd60e51b8152602060048201526018602482015277115490cdcc8c4e881a5b9d985b1a59081d1bdad95b88125160421b6044820152606401610687565b60606000825167ffffffffffffffff811115610b9f57610b9f6128d4565b604051908082528060200260200182016040528015610bd257816020015b6060815260200190600190039081610bbd5790505b50905060005b8351811015610c3357610c03848281518110610bf657610bf6612de9565b6020026020010151611089565b828281518110610c1557610c15612de9565b60200260200101819052508080610c2b90612e15565b915050610bd8565b5092915050565b60006001600160a01b038216610ca45760405162461bcd60e51b815260206004820152602960248201527f4552433732313a2061646472657373207a65726f206973206e6f7420612076616044820152683634b21037bbb732b960b91b6064820152608401610687565b506001600160a01b031660009081526068602052604090205490565b60fc8054610ccd90612d60565b80601f0160208091040260200160405190810160405280929190818152602001828054610cf990612d60565b8015610d465780601f10610d1b57610100808354040283529160200191610d46565b820191906000526020600020905b815481529060010190602001808311610d2957829003601f168201915b505050505081565b600054610100900460ff1615808015610d6e5750600054600160ff909116105b80610d885750303b158015610d88575060005460ff166001145b610deb5760405162461bcd60e51b815260206004820152602e60248201527f496e697469616c697a61626c653a20636f6e747261637420697320616c72656160448201526d191e481a5b9a5d1a585b1a5e995960921b6064820152608401610687565b6000805460ff191660011790558015610e0e576000805461ff0019166101001790555b610e626040518060400160405280600e81526020016d4672616d65642057697a6172647360901b8152506040518060400160405280600c81526020016b11949053515115d25690549160a21b8152506114e9565b610e6a61151a565b610e7261154b565b610e7a611572565b610e8261154b565b610e8a61151a565b610e956000336113cb565b610ead6000805160206130df833981519152336113cb565b610ec56000805160206130bf833981519152336113cb565b80156109ba576000805461ff0019169055604051600181527f7f26b83ff96e1f2b6a682f133852f6798a09c465da95921460cefb38474024989060200160405180910390a150565b6000805160206130df833981519152610f25816113c1565b6109ba6115a1565b60606000610f3a83610c3a565b905060008167ffffffffffffffff811115610f5757610f576128d4565b604051908082528060200260200182016040528015610f80578160200160208202803683370190505b50905060005b82811015610fc757610f988582610785565b828281518110610faa57610faa612de9565b602090810291909101015280610fbf81612e15565b915050610f86565b509392505050565b600082815261019160205260408120610fe890836115df565b9392505050565b600091825261015f602090815260408084206001600160a01b0393909316845291905290205460ff1690565b60606066805461056890612d60565b6108953383836115eb565b6000805160206130df83398151915261104d816113c1565b6107288383611411565b611061338361119b565b61107d5760405162461bcd60e51b815260040161068790612d9b565b610994848484846116ba565b6060610553826116ed565b60008181526101916020526040812061055390611831565b600082815261015f60205260409020600101546110c8816113c1565b61072883836113ee565b60006105538261183b565b6110e681611860565b6109ba5760405162461bcd60e51b8152602060048201526018602482015277115490cdcc8c4e881a5b9d985b1a59081d1bdad95b88125160421b6044820152606401610687565b600081815260696020526040902080546001600160a01b0319166001600160a01b038416908117909155819061116282610b21565b6001600160a01b03167f8c5be1e5ebec7d5bd14f71427d1e84f3dd0314c0f7b2291e5b200ac8c7c3b92560405160405180910390a45050565b6000806111a783610b21565b9050806001600160a01b0316846001600160a01b031614806111ee57506001600160a01b038082166000908152606a602090815260408083209388168352929052205460ff165b806112125750836001600160a01b0316611207846105eb565b6001600160a01b0316145b949350505050565b826001600160a01b031661122d82610b21565b6001600160a01b0316146112915760405162461bcd60e51b815260206004820152602560248201527f4552433732313a207472616e736665722066726f6d20696e636f72726563742060448201526437bbb732b960d91b6064820152608401610687565b6001600160a01b0382166112f35760405162461bcd60e51b8152602060048201526024808201527f4552433732313a207472616e7366657220746f20746865207a65726f206164646044820152637265737360e01b6064820152608401610687565b6112fe83838361186b565b61130960008261112d565b6001600160a01b0383166000908152606860205260408120805460019290611332908490612e30565b90915550506001600160a01b0382166000908152606860205260408120805460019290611360908490612e47565b909155505060008181526067602052604080822080546001600160a01b0319166001600160a01b0386811691821790925591518493918716917fddf252ad1be2c89b69c2b068fc378daa952ba7f163c4a11628f55a4df523b3ef91a4505050565b6109ba8133611925565b6113d58282611989565b6000828152610191602052604090206107289082611a10565b6113f88282611a25565b6000828152610191602052604090206107289082611a8d565b600082815260fb602090815260409091208251610728928401906126a0565b611438611aa2565b61012d805460ff191690557f5db9ee0a495bf2e6ff9c91a7834c1ba4fdd244a5e8aa4e537bd38aeae4b073aa335b6040516001600160a01b03909116815260200160405180910390a1565b610895828260405180602001604052806000815250611aec565b6000610fe88383611b1f565b6114b281611b6e565b600081815260fb6020526040902080546114cb90612d60565b1590506109ba57600081815260fb602052604081206109ba91612724565b600054610100900460ff166115105760405162461bcd60e51b815260040161068790612e5f565b6108958282611c15565b600054610100900460ff166115415760405162461bcd60e51b815260040161068790612e5f565b61154961154b565b565b600054610100900460ff166115495760405162461bcd60e51b815260040161068790612e5f565b600054610100900460ff166115995760405162461bcd60e51b815260040161068790612e5f565b611549611c63565b6115a9611c97565b61012d805460ff191660011790557f62e78cea01bee320cd4e420270b5ea74000d11b0c9f74754ebdbfc544b05a2586114663390565b6000610fe88383611cde565b816001600160a01b0316836001600160a01b0316141561164d5760405162461bcd60e51b815260206004820152601960248201527f4552433732313a20617070726f766520746f2063616c6c6572000000000000006044820152606401610687565b6001600160a01b038381166000818152606a6020908152604080832094871680845294825291829020805460ff191686151590811790915591519182527f17307eab39ab6107e8899845ad3d59bd9653f200f220920489ca2b5937696c31910160405180910390a3505050565b6116c584848461121a565b6116d184848484611d08565b6109945760405162461bcd60e51b815260040161068790612eaa565b60606116f882611860565b61176a5760405162461bcd60e51b815260206004820152603960248201527f45524337323155524953746f72616765457874656e6465643a2055524920717560448201527f65727920666f72206e6f6e6578697374656e7420746f6b656e000000000000006064820152608401610687565b600082815260fb60205260409020805461180b919061178890612d60565b80601f01602080910402602001604051908101604052809291908181526020018280546117b490612d60565b80156118015780601f106117d657610100808354040283529160200191611801565b820191906000526020600020905b8154815290600101906020018083116117e457829003601f168201915b5050505050611e15565b60405160200161181b9190612efc565b6040516020818303038152906040529050919050565b6000610553825490565b60006001600160e01b03198216635a05180f60e01b1480610553575061055382611f69565b600061055382611f8e565b611873611c97565b8261188061025982611fba565b156118c35760405162461bcd60e51b8152602060048201526013602482015272426c61636b6c6973746564206164647265737360681b6044820152606401610687565b826118d061025982611fba565b156119135760405162461bcd60e51b8152602060048201526013602482015272426c61636b6c6973746564206164647265737360681b6044820152606401610687565b61191e858585611fdc565b5050505050565b61192f8282610fef565b61089557611947816001600160a01b03166014611fe7565b611952836020611fe7565b604051602001611963929190612f41565b60408051601f198184030181529082905262461bcd60e51b8252610687916004016127fa565b6119938282610fef565b61089557600082815261015f602090815260408083206001600160a01b03851684529091529020805460ff191660011790556119cc3390565b6001600160a01b0316816001600160a01b0316837f2f8788117e7eff1d82e926ec794901d17c78024a50270940304540a733656f0d60405160405180910390a45050565b6000610fe8836001600160a01b038416611b1f565b611a2f8282610fef565b1561089557600082815261015f602090815260408083206001600160a01b0385168085529252808320805460ff1916905551339285917ff6391f5c32d9c69d2a47ea670b442974b53935d1edc7fd64eb21e047a839171b9190a45050565b6000610fe8836001600160a01b038416612183565b61012d5460ff166115495760405162461bcd60e51b815260206004820152601460248201527314185d5cd8589b194e881b9bdd081c185d5cd95960621b6044820152606401610687565b611af68383612276565b611b036000848484611d08565b6107285760405162461bcd60e51b815260040161068790612eaa565b6000818152600183016020526040812054611b6657508154600181810184556000848152602080822090930184905584548482528286019093526040902091909155610553565b506000610553565b6000611b7982610b21565b9050611b878160008461186b565b611b9260008361112d565b6001600160a01b0381166000908152606860205260408120805460019290611bbb908490612e30565b909155505060008281526067602052604080822080546001600160a01b0319169055518391906001600160a01b038416907fddf252ad1be2c89b69c2b068fc378daa952ba7f163c4a11628f55a4df523b3ef908390a45050565b600054610100900460ff16611c3c5760405162461bcd60e51b815260040161068790612e5f565b8151611c4f9060659060208501906126a0565b5080516107289060669060208401906126a0565b600054610100900460ff16611c8a5760405162461bcd60e51b815260040161068790612e5f565b61012d805460ff19169055565b61012d5460ff16156115495760405162461bcd60e51b815260206004820152601060248201526f14185d5cd8589b194e881c185d5cd95960821b6044820152606401610687565b6000826000018281548110611cf557611cf5612de9565b9060005260206000200154905092915050565b60006001600160a01b0384163b15611e0a57604051630a85bd0160e11b81526001600160a01b0385169063150b7a0290611d4c903390899088908890600401612fb6565b602060405180830381600087803b158015611d6657600080fd5b505af1925050508015611d96575060408051601f3d908101601f19168201909252611d9391810190612ff3565b60015b611df0573d808015611dc4576040519150601f19603f3d011682016040523d82523d6000602084013e611dc9565b606091505b508051611de85760405162461bcd60e51b815260040161068790612eaa565b805181602001fd5b6001600160e01b031916630a85bd0160e11b149050611212565b506001949350505050565b6060815160001415611e3557505060408051602081019091526000815290565b600060405180606001604052806040815260200161307f6040913990506000600384516002611e649190612e47565b611e6e9190613010565b611e79906004613032565b67ffffffffffffffff811115611e9157611e916128d4565b6040519080825280601f01601f191660200182016040528015611ebb576020820181803683370190505b509050600182016020820185865187015b80821015611f27576003820191508151603f8160121c168501518453600184019350603f81600c1c168501518453600184019350603f8160061c168501518453600184019350603f8116850151845350600183019250611ecc565b5050600386510660018114611f435760028114611f5657611f5e565b603d6001830353603d6002830353611f5e565b603d60018303535b509195945050505050565b60006001600160e01b03198216637965db0b60e01b14806105535750610553826123b5565b6000818152606760205260408120546001600160a01b031615158061055357506105536101f5836123c0565b6001600160a01b03811660009081526001830160205260408120541515610fe8565b6107288383836123d8565b60606000611ff6836002613032565b612001906002612e47565b67ffffffffffffffff811115612019576120196128d4565b6040519080825280601f01601f191660200182016040528015612043576020820181803683370190505b509050600360fc1b8160008151811061205e5761205e612de9565b60200101906001600160f81b031916908160001a905350600f60fb1b8160018151811061208d5761208d612de9565b60200101906001600160f81b031916908160001a90535060006120b1846002613032565b6120bc906001612e47565b90505b6001811115612134576f181899199a1a9b1b9c1cb0b131b232b360811b85600f16601081106120f0576120f0612de9565b1a60f81b82828151811061210657612106612de9565b60200101906001600160f81b031916908160001a90535060049490941c9361212d81613051565b90506120bf565b508315610fe85760405162461bcd60e51b815260206004820181905260248201527f537472696e67733a20686578206c656e67746820696e73756666696369656e746044820152606401610687565b6000818152600183016020526040812054801561226c5760006121a7600183612e30565b85549091506000906121bb90600190612e30565b90508181146122205760008660000182815481106121db576121db612de9565b90600052602060002001549050808760000184815481106121fe576121fe612de9565b6000918252602080832090910192909255918252600188019052604090208390555b855486908061223157612231613068565b600190038181906000526020600020016000905590558560010160008681526020019081526020016000206000905560019350505050610553565b6000915050610553565b6001600160a01b0382166122cc5760405162461bcd60e51b815260206004820181905260248201527f4552433732313a206d696e7420746f20746865207a65726f20616464726573736044820152606401610687565b6122d581611860565b156123225760405162461bcd60e51b815260206004820152601c60248201527f4552433732313a20746f6b656e20616c7265616479206d696e746564000000006044820152606401610687565b61232e6000838361186b565b6001600160a01b0382166000908152606860205260408120805460019290612357908490612e47565b909155505060008181526067602052604080822080546001600160a01b0319166001600160a01b03861690811790915590518392907fddf252ad1be2c89b69c2b068fc378daa952ba7f163c4a11628f55a4df523b3ef908290a45050565b6000610553826123e3565b60008181526001830160205260408120541515610fe8565b610728838383612408565b60006001600160e01b0319821663780e9d6360e01b14806105535750610553826124c0565b6001600160a01b0383166124635761245e81609980546000838152609a60205260408120829055600182018355919091527f72a152ddfb8e864297c917af52ea6c1c68aead0fee1a62673fcc7e0c94979d000155565b612486565b816001600160a01b0316836001600160a01b031614612486576124868382612510565b6001600160a01b03821661249d57610728816125ad565b826001600160a01b0316826001600160a01b03161461072857610728828261265c565b60006001600160e01b031982166380ac58cd60e01b14806124f157506001600160e01b03198216635b5e139f60e01b145b8061055357506301ffc9a760e01b6001600160e01b0319831614610553565b6000600161251d84610c3a565b6125279190612e30565b60008381526098602052604090205490915080821461257a576001600160a01b03841660009081526097602090815260408083208584528252808320548484528184208190558352609890915290208190555b5060009182526098602090815260408084208490556001600160a01b039094168352609781528383209183525290812055565b6099546000906125bf90600190612e30565b6000838152609a6020526040812054609980549394509092849081106125e7576125e7612de9565b90600052602060002001549050806099838154811061260857612608612de9565b6000918252602080832090910192909255828152609a9091526040808220849055858252812055609980548061264057612640613068565b6001900381819060005260206000200160009055905550505050565b600061266783610c3a565b6001600160a01b039093166000908152609760209081526040808320868452825280832085905593825260989052919091209190915550565b8280546126ac90612d60565b90600052602060002090601f0160209004810192826126ce5760008555612714565b82601f106126e757805160ff1916838001178555612714565b82800160010185558215612714579182015b828111156127145782518255916020019190600101906126f9565b5061272092915061275a565b5090565b50805461273090612d60565b6000825580601f10612740575050565b601f0160209004906000526020600020908101906109ba91905b5b80821115612720576000815560010161275b565b6001600160e01b0319811681146109ba57600080fd5b60006020828403121561279757600080fd5b8135610fe88161276f565b60005b838110156127bd5781810151838201526020016127a5565b838111156109945750506000910152565b600081518084526127e68160208601602086016127a2565b601f01601f19169290920160200192915050565b602081526000610fe860208301846127ce565b60006020828403121561281f57600080fd5b5035919050565b80356001600160a01b038116811461283d57600080fd5b919050565b6000806040838503121561285557600080fd5b61285e83612826565b946020939093013593505050565b60008060006060848603121561288157600080fd5b61288a84612826565b925061289860208501612826565b9150604084013590509250925092565b600080604083850312156128bb57600080fd5b823591506128cb60208401612826565b90509250929050565b634e487b7160e01b600052604160045260246000fd5b604051601f8201601f1916810167ffffffffffffffff81118282101715612913576129136128d4565b604052919050565b600067ffffffffffffffff821115612935576129356128d4565b5060051b60200190565b600082601f83011261295057600080fd5b813560206129656129608361291b565b6128ea565b82815260059290921b8401810191818101908684111561298457600080fd5b8286015b8481101561299f5780358352918301918301612988565b509695505050505050565b600082601f8301126129bb57600080fd5b813567ffffffffffffffff8111156129d5576129d56128d4565b6129e8601f8201601f19166020016128ea565b8181528460208386010111156129fd57600080fd5b816020850160208301376000918101602001919091529392505050565b60008060408385031215612a2d57600080fd5b823567ffffffffffffffff80821115612a4557600080fd5b612a518683870161293f565b9350602091508185013581811115612a6857600080fd5b8501601f81018713612a7957600080fd5b8035612a876129608261291b565b81815260059190911b82018401908481019089831115612aa657600080fd5b8584015b83811015612ade57803586811115612ac25760008081fd5b612ad08c89838901016129aa565b845250918601918601612aaa565b508096505050505050509250929050565b60008060408385031215612b0257600080fd5b612b0b83612826565b9150602083013567ffffffffffffffff811115612b2757600080fd5b612b338582860161293f565b9150509250929050565b600060208284031215612b4f57600080fd5b813567ffffffffffffffff811115612b6657600080fd5b6112128482850161293f565b6000602080830181845280855180835260408601915060408160051b870101925083870160005b82811015612bc757603f19888603018452612bb58583516127ce565b94509285019290850190600101612b99565b5092979650505050505050565b600060208284031215612be657600080fd5b610fe882612826565b6020808252825182820181905260009190848201906040850190845b81811015612c2757835183529284019291840191600101612c0b565b50909695505050505050565b60008060408385031215612c4657600080fd5b50508035926020909101359150565b60008060408385031215612c6857600080fd5b612c7183612826565b915060208301358015158114612c8657600080fd5b809150509250929050565b60008060408385031215612ca457600080fd5b82359150602083013567ffffffffffffffff811115612cc257600080fd5b612b33858286016129aa565b60008060008060808587031215612ce457600080fd5b612ced85612826565b9350612cfb60208601612826565b925060408501359150606085013567ffffffffffffffff811115612d1e57600080fd5b612d2a878288016129aa565b91505092959194509250565b60008060408385031215612d4957600080fd5b612d5283612826565b91506128cb60208401612826565b600181811c90821680612d7457607f821691505b60208210811415612d9557634e487b7160e01b600052602260045260246000fd5b50919050565b6020808252602e908201527f4552433732313a2063616c6c6572206973206e6f7420746f6b656e206f776e6560408201526d1c881b9bdc88185c1c1c9bdd995960921b606082015260800190565b634e487b7160e01b600052603260045260246000fd5b634e487b7160e01b600052601160045260246000fd5b6000600019821415612e2957612e29612dff565b5060010190565b600082821015612e4257612e42612dff565b500390565b60008219821115612e5a57612e5a612dff565b500190565b6020808252602b908201527f496e697469616c697a61626c653a20636f6e7472616374206973206e6f74206960408201526a6e697469616c697a696e6760a81b606082015260800190565b60208082526032908201527f4552433732313a207472616e7366657220746f206e6f6e20455243373231526560408201527131b2b4bb32b91034b6b83632b6b2b73a32b960711b606082015260800190565b7f646174613a6170706c69636174696f6e2f6a736f6e3b6261736536342c000000815260008251612f3481601d8501602087016127a2565b91909101601d0192915050565b7f416363657373436f6e74726f6c3a206163636f756e7420000000000000000000815260008351612f798160178501602088016127a2565b7001034b99036b4b9b9b4b733903937b6329607d1b6017918401918201528351612faa8160288401602088016127a2565b01602801949350505050565b6001600160a01b0385811682528416602082015260408101839052608060608201819052600090612fe9908301846127ce565b9695505050505050565b60006020828403121561300557600080fd5b8151610fe88161276f565b60008261302d57634e487b7160e01b600052601260045260246000fd5b500490565b600081600019048311821515161561304c5761304c612dff565b500290565b60008161306057613060612dff565b506000190190565b634e487b7160e01b600052603160045260246000fdfe4142434445464748494a4b4c4d4e4f505152535455565758595a6162636465666768696a6b6c6d6e6f707172737475767778797a303132333435363738392b2f9f2df0fed2c77648de5860a4cc508cd0818c85b8b8a1ab4ceeef8d981c8956a6a49807205ce4d355092ef5a8a18f56e8913cf4a201fbe287825b095693c21775a2646970667358221220e22e258a55b59de9c260264acb12c5562aa55d772b5bcca9cf2d899f3f0d49ea64736f6c63430008090033",
  "linkReferences": {},
  "deployedLinkReferences": {}
}