{
  "_format": "hh-sol-artifact-1",
  "contractName": "ERC721QueryHelper",
  "sourceName": "contracts/upgradeable/utils/ERC721QueryHelper.sol",
  "abi": [
    {
      "inputs": [],
      "stateMutability": "nonpayable",
      "type": "constructor"
    },
    {
      "anonymous": false,
      "inputs": [
        {
          "indexed": false,
          "internalType": "uint8",
          "name": "version",
          "type": "uint8"
        }
      ],
      "name": "Initialized",
      "type": "event"
    },
    {
      "inputs": [],
      "name": "getActiveSales",
      "outputs": [
        {
          "internalType": "uint256[]",
          "name": "",
          "type": "uint256[]"
        },
        {
          "components": [
            {
              "internalType": "enum ERC721QueryHelper.SaleType",
              "name": "saleType",
              "type": "uint8"
            },
            {
              "internalType": "address",
              "name": "seller",
              "type": "address"
            },
            {
              "internalType": "address",
              "name": "contractAddress",
              "type": "address"
            },
            {
              "internalType": "enum ERC721QueryHelper.TokenType",
              "name": "tokenType",
              "type": "uint8"
            },
            {
              "internalType": "address",
              "name": "bidToken",
              "type": "address"
            },
            {
              "internalType": "uint256",
              "name": "startTime",
              "type": "uint256"
            },
            {
              "internalType": "uint256",
              "name": "duration",
              "type": "uint256"
            },
            {
              "internalType": "uint256",
              "name": "extensionDuration",
              "type": "uint256"
            },
            {
              "internalType": "uint256",
              "name": "endTime",
              "type": "uint256"
            },
            {
              "internalType": "address",
              "name": "bidder",
              "type": "address"
            },
            {
              "internalType": "uint256",
              "name": "bidAmount",
              "type": "uint256"
            }
          ],
          "internalType": "struct ERC721QueryHelper.Sale[]",
          "name": "",
          "type": "tuple[]"
        }
      ],
      "stateMutability": "view",
      "type": "function"
    },
    {
      "inputs": [],
      "name": "initialize",
      "outputs": [],
      "stateMutability": "nonpayable",
      "type": "function"
    },
    {
      "inputs": [
        {
          "internalType": "address",
          "name": "token",
          "type": "address"
        },
        {
          "internalType": "address",
          "name": "owner",
          "type": "address"
        }
      ],
      "name": "tokensOfOwner",
      "outputs": [
        {
          "internalType": "uint256[]",
          "name": "",
          "type": "uint256[]"
        }
      ],
      "stateMutability": "view",
      "type": "function"
    }
  ],
  "bytecode": "0x608060405234801561001057600080fd5b5061001961001e565b6100de565b600054610100900460ff161561008a5760405162461bcd60e51b815260206004820152602760248201527f496e697469616c697a61626c653a20636f6e747261637420697320696e697469604482015266616c697a696e6760c81b606482015260840160405180910390fd5b60005460ff90811610156100dc576000805460ff191660ff9081179091556040519081527f7f26b83ff96e1f2b6a682f133852f6798a09c465da95921460cefb38474024989060200160405180910390a15b565b610a12806100ed6000396000f3fe608060405234801561001057600080fd5b50600436106100415760003560e01c8063436141d2146100465780638129fc1c14610065578063cfe8f4871461006f575b600080fd5b61004e61008f565b60405161005c929190610747565b60405180910390f35b61006d61016f565b005b61008261007d366004610851565b61027c565b60405161005c919061088a565b606080808060006113885b61157c8110156101645760006100af826103ed565b905060006100bc83610532565b60e080820151908401526101008082015190840152610120808201516001600160a01b039081169185019190915261014080830151908501526040840151919250161561014f5782868581518110610116576101166108a4565b60200260200101818152505081858581518110610135576101356108a4565b6020026020010181905250838061014b906108ba565b9450505b5050808061015c906108ba565b91505061009a565b509194909350915050565b600054610100900460ff161580801561018f5750600054600160ff909116105b806101a95750303b1580156101a9575060005460ff166001145b6102105760405162461bcd60e51b815260206004820152602e60248201527f496e697469616c697a61626c653a20636f6e747261637420697320616c72656160448201526d191e481a5b9a5d1a585b1a5e995960921b606482015260840160405180910390fd5b6000805460ff191660011790558015610233576000805461ff0019166101001790555b8015610279576000805461ff0019169055604051600181527f7f26b83ff96e1f2b6a682f133852f6798a09c465da95921460cefb38474024989060200160405180910390a15b50565b6040516370a0823160e01b81526001600160a01b0382811660048301526060918491600091908316906370a0823190602401602060405180830381865afa1580156102cb573d6000803e3d6000fd5b505050506040513d601f19601f820116820180604052508101906102ef91906108e1565b905060008167ffffffffffffffff81111561030c5761030c6108fa565b604051908082528060200260200182016040528015610335578160200160208202803683370190505b50905060005b828110156103e357604051632f745c5960e01b81526001600160a01b03878116600483015260248201839052851690632f745c5990604401602060405180830381865afa158015610390573d6000803e3d6000fd5b505050506040513d601f19601f820116820180604052508101906103b491906108e1565b8282815181106103c6576103c66108a4565b6020908102919091010152806103db816108ba565b91505061033b565b5095945050505050565b6103f5610662565b73c8ceddf1b1592b3ef5646af733f14d8ff51a2656610412610662565b6000806000806000806000886001600160a01b031663e2d5a2ff8c6040518263ffffffff1660e01b815260040161044b91815260200190565b61016060405180830381865afa158015610469573d6000803e3d6000fd5b505050506040513d601f19601f8201168201806040525081019061048d9190610920565b90919250909150905050809750819850829950839a50849b50859c50869d50505050505050508588602001906001600160a01b031690816001600160a01b0316815250508488604001906001600160a01b031690816001600160a01b0316815250508288608001906001600160a01b031690816001600160a01b031681525050818860a0018181525050808860c0018181525050879950505050505050505050919050565b61053a610662565b73c8ceddf1b1592b3ef5646af733f14d8ff51a2656610557610662565b600080600080856001600160a01b031663e2d5a2ff896040518263ffffffff1660e01b815260040161058b91815260200190565b61016060405180830381865afa1580156105a9573d6000803e3d6000fd5b505050506040513d601f19601f820116820180604052508101906105cd9190610920565b909192939495969798995090919293949596979850909192939495969750909192939495965090919293949550909192939450909192935080945081955082965083975050505050838560e00181815250508285610100018181525050818561012001906001600160a01b031690816001600160a01b0316815250508085610140018181525050849650505050505050919050565b604080516101608101909152806000815260006020820181905260408201819052606090910190815260200160006001600160a01b031681526020016000815260200160008152602001600081526020016000815260200160006001600160a01b03168152602001600081525090565b600081518084526020808501945080840160005b83811015610702578151875295820195908201906001016106e6565b509495945050505050565b634e487b7160e01b600052602160045260246000fd5b600381106107335761073361070d565b9052565b600281106107335761073361070d565b6000604080835261075a818401866106d2565b83810360208581019190915285518083528682019282019060005b8181101561082e57845161078a848251610723565b848101516001600160a01b03908116858701528782015116878501526060808201516107b882870182610737565b50506080818101516001600160a01b03811686830152505060a0818101519085015260c0808201519085015260e080820151908501526101008082015190850152610120808201516001600160a01b03811682870152505061014090810151908401529383019361016090920191600101610775565b509098975050505050505050565b6001600160a01b038116811461027957600080fd5b6000806040838503121561086457600080fd5b823561086f8161083c565b9150602083013561087f8161083c565b809150509250929050565b60208152600061089d60208301846106d2565b9392505050565b634e487b7160e01b600052603260045260246000fd5b6000600182016108da57634e487b7160e01b600052601160045260246000fd5b5060010190565b6000602082840312156108f357600080fd5b5051919050565b634e487b7160e01b600052604160045260246000fd5b805161091b8161083c565b919050565b60008060008060008060008060008060006101608c8e03121561094257600080fd5b8b516003811061095157600080fd5b60208d0151909b506109628161083c565b60408d0151909a506109738161083c565b60608d01519099506002811061098857600080fd5b975061099660808d01610910565b965060a08c0151955060c08c0151945060e08c015193506101008c015192506109c26101208d01610910565b91506101408c015190509295989b509295989b909396995056fea26469706673582212200dec2e72e13bca90e7b1fdddfdf75a0dd1cf83c596ebf50b3b8ab10a3fd3bd5664736f6c63430008100033",
  "linkReferences": {},
  "deployedLinkReferences": {}
}