{
  "_format": "hh-sol-artifact-1",
  "contractName": "ERC721QueryHelper",
  "sourceName": "contracts/upgradeable/utils/ERC721QueryHelper.sol",
  "abi": [
    {
      "inputs": [],
      "stateMutability": "nonpayable",
      "type": "constructor"
    },
    {
      "anonymous": false,
      "inputs": [
        {
          "indexed": false,
          "internalType": "uint8",
          "name": "version",
          "type": "uint8"
        }
      ],
      "name": "Initialized",
      "type": "event"
    },
    {
      "inputs": [],
      "name": "getActiveSales",
      "outputs": [
        {
          "internalType": "uint256[]",
          "name": "",
          "type": "uint256[]"
        },
        {
          "components": [
            {
              "internalType": "enum ERC721QueryHelper.SaleType",
              "name": "saleType",
              "type": "uint8"
            },
            {
              "internalType": "address",
              "name": "seller",
              "type": "address"
            },
            {
              "internalType": "address",
              "name": "contractAddress",
              "type": "address"
            },
            {
              "internalType": "enum ERC721QueryHelper.TokenType",
              "name": "tokenType",
              "type": "uint8"
            },
            {
              "internalType": "address",
              "name": "bidToken",
              "type": "address"
            },
            {
              "internalType": "uint256",
              "name": "startTime",
              "type": "uint256"
            },
            {
              "internalType": "uint256",
              "name": "duration",
              "type": "uint256"
            },
            {
              "internalType": "uint256",
              "name": "extensionDuration",
              "type": "uint256"
            },
            {
              "internalType": "uint256",
              "name": "endTime",
              "type": "uint256"
            },
            {
              "internalType": "address",
              "name": "bidder",
              "type": "address"
            },
            {
              "internalType": "uint256",
              "name": "bidAmount",
              "type": "uint256"
            }
          ],
          "internalType": "struct ERC721QueryHelper.Sale[]",
          "name": "",
          "type": "tuple[]"
        }
      ],
      "stateMutability": "view",
      "type": "function"
    },
    {
      "inputs": [],
      "name": "initialize",
      "outputs": [],
      "stateMutability": "nonpayable",
      "type": "function"
    },
    {
      "inputs": [
        {
          "internalType": "address",
          "name": "token",
          "type": "address"
        },
        {
          "internalType": "address",
          "name": "owner",
          "type": "address"
        }
      ],
      "name": "tokensOfOwner",
      "outputs": [
        {
          "internalType": "uint256[]",
          "name": "",
          "type": "uint256[]"
        }
      ],
      "stateMutability": "view",
      "type": "function"
    }
  ],
  "bytecode": "0x608060405234801561001057600080fd5b5061001961001e565b6100de565b600054610100900460ff161561008a5760405162461bcd60e51b815260206004820152602760248201527f496e697469616c697a61626c653a20636f6e747261637420697320696e697469604482015266616c697a696e6760c81b606482015260840160405180910390fd5b60005460ff90811610156100dc576000805460ff191660ff9081179091556040519081527f7f26b83ff96e1f2b6a682f133852f6798a09c465da95921460cefb38474024989060200160405180910390a15b565b610a50806100ed6000396000f3fe608060405234801561001057600080fd5b50600436106100415760003560e01c8063436141d2146100465780638129fc1c14610065578063cfe8f4871461006f575b600080fd5b61004e61008f565b60405161005c929190610783565b60405180910390f35b61006d61016f565b005b61008261007d36600461088d565b61027c565b60405161005c91906108c6565b606080808060006113885b61157c8110156101645760006100af8261040b565b905060006100bc8361055f565b60e080820151908401526101008082015190840152610120808201516001600160a01b039081169185019190915261014080830151908501526040840151919250161561014f5782868581518110610116576101166108e0565b60200260200101818152505081858581518110610135576101356108e0565b6020026020010181905250838061014b906108f6565b9450505b5050808061015c906108f6565b91505061009a565b509194909350915050565b600054610100900460ff161580801561018f5750600054600160ff909116105b806101a95750303b1580156101a9575060005460ff166001145b6102105760405162461bcd60e51b815260206004820152602e60248201527f496e697469616c697a61626c653a20636f6e747261637420697320616c72656160448201526d191e481a5b9a5d1a585b1a5e995960921b606482015260840160405180910390fd5b6000805460ff191660011790558015610233576000805461ff0019166101001790555b8015610279576000805461ff0019169055604051600181527f7f26b83ff96e1f2b6a682f133852f6798a09c465da95921460cefb38474024989060200160405180910390a15b50565b6040516370a0823160e01b81526001600160a01b0382811660048301526060918491600091908316906370a082319060240160206040518083038186803b1580156102c657600080fd5b505afa1580156102da573d6000803e3d6000fd5b505050506040513d601f19601f820116820180604052508101906102fe919061091f565b905060008167ffffffffffffffff81111561031b5761031b610938565b604051908082528060200260200182016040528015610344578160200160208202803683370190505b50905060005b8281101561040157604051632f745c5960e01b81526001600160a01b03878116600483015260248201839052851690632f745c599060440160206040518083038186803b15801561039a57600080fd5b505afa1580156103ae573d6000803e3d6000fd5b505050506040513d601f19601f820116820180604052508101906103d2919061091f565b8282815181106103e4576103e46108e0565b6020908102919091010152806103f9816108f6565b91505061034a565b5095945050505050565b61041361069e565b73c8ceddf1b1592b3ef5646af733f14d8ff51a265661043061069e565b6000806000806000806000886001600160a01b031663e2d5a2ff8c6040518263ffffffff1660e01b815260040161046991815260200190565b6101606040518083038186803b15801561048257600080fd5b505afa158015610496573d6000803e3d6000fd5b505050506040513d601f19601f820116820180604052508101906104ba919061095e565b90919250909150905050809750819850829950839a50849b50859c50869d50505050505050508588602001906001600160a01b031690816001600160a01b0316815250508488604001906001600160a01b031690816001600160a01b0316815250508288608001906001600160a01b031690816001600160a01b031681525050818860a0018181525050808860c0018181525050879950505050505050505050919050565b61056761069e565b73c8ceddf1b1592b3ef5646af733f14d8ff51a265661058461069e565b600080600080856001600160a01b031663e2d5a2ff896040518263ffffffff1660e01b81526004016105b891815260200190565b6101606040518083038186803b1580156105d157600080fd5b505afa1580156105e5573d6000803e3d6000fd5b505050506040513d601f19601f82011682018060405250810190610609919061095e565b909192939495969798995090919293949596979850909192939495969750909192939495965090919293949550909192939450909192935080945081955082965083975050505050838560e00181815250508285610100018181525050818561012001906001600160a01b031690816001600160a01b0316815250508085610140018181525050849650505050505050919050565b604080516101608101909152806000815260006020820181905260408201819052606090910190815260200160006001600160a01b031681526020016000815260200160008152602001600081526020016000815260200160006001600160a01b03168152602001600081525090565b600081518084526020808501945080840160005b8381101561073e57815187529582019590820190600101610722565b509495945050505050565b634e487b7160e01b600052602160045260246000fd5b6003811061076f5761076f610749565b9052565b6002811061076f5761076f610749565b600060408083526107968184018661070e565b83810360208581019190915285518083528682019282019060005b8181101561086a5784516107c684825161075f565b848101516001600160a01b03908116858701528782015116878501526060808201516107f482870182610773565b50506080818101516001600160a01b03811686830152505060a0818101519085015260c0808201519085015260e080820151908501526101008082015190850152610120808201516001600160a01b038116828701525050610140908101519084015293830193610160909201916001016107b1565b509098975050505050505050565b6001600160a01b038116811461027957600080fd5b600080604083850312156108a057600080fd5b82356108ab81610878565b915060208301356108bb81610878565b809150509250929050565b6020815260006108d9602083018461070e565b9392505050565b634e487b7160e01b600052603260045260246000fd5b600060001982141561091857634e487b7160e01b600052601160045260246000fd5b5060010190565b60006020828403121561093157600080fd5b5051919050565b634e487b7160e01b600052604160045260246000fd5b805161095981610878565b919050565b60008060008060008060008060008060006101608c8e03121561098057600080fd5b8b516003811061098f57600080fd5b60208d0151909b506109a081610878565b60408d0151909a506109b181610878565b60608d0151909950600281106109c657600080fd5b97506109d460808d0161094e565b965060a08c0151955060c08c0151945060e08c015193506101008c01519250610a006101208d0161094e565b91506101408c015190509295989b509295989b909396995056fea264697066735822122049620627d30796fcff4a73a823cd77a0194bc9772094dcee2a9c7d764ec42c9364736f6c63430008090033",
  "linkReferences": {},
  "deployedLinkReferences": {}
}