{
  "_format": "hh-sol-artifact-1",
  "contractName": "SimpleMasterInvestor",
  "sourceName": "contracts/upgradeable/npc/SimpleMasterInvestor.sol",
  "abi": [
    {
      "inputs": [],
      "stateMutability": "nonpayable",
      "type": "constructor"
    },
    {
      "anonymous": false,
      "inputs": [
        {
          "indexed": true,
          "internalType": "address",
          "name": "user",
          "type": "address"
        },
        {
          "indexed": true,
          "internalType": "uint256",
          "name": "pid",
          "type": "uint256"
        },
        {
          "indexed": false,
          "internalType": "uint256",
          "name": "amount",
          "type": "uint256"
        }
      ],
      "name": "Deposit",
      "type": "event"
    },
    {
      "anonymous": false,
      "inputs": [
        {
          "indexed": true,
          "internalType": "address",
          "name": "user",
          "type": "address"
        },
        {
          "indexed": true,
          "internalType": "uint256",
          "name": "pid",
          "type": "uint256"
        },
        {
          "indexed": false,
          "internalType": "uint256",
          "name": "amount",
          "type": "uint256"
        }
      ],
      "name": "EmergencyWithdraw",
      "type": "event"
    },
    {
      "anonymous": false,
      "inputs": [
        {
          "indexed": false,
          "internalType": "uint8",
          "name": "version",
          "type": "uint8"
        }
      ],
      "name": "Initialized",
      "type": "event"
    },
    {
      "anonymous": false,
      "inputs": [
        {
          "indexed": true,
          "internalType": "bytes32",
          "name": "role",
          "type": "bytes32"
        },
        {
          "indexed": true,
          "internalType": "bytes32",
          "name": "previousAdminRole",
          "type": "bytes32"
        },
        {
          "indexed": true,
          "internalType": "bytes32",
          "name": "newAdminRole",
          "type": "bytes32"
        }
      ],
      "name": "RoleAdminChanged",
      "type": "event"
    },
    {
      "anonymous": false,
      "inputs": [
        {
          "indexed": true,
          "internalType": "bytes32",
          "name": "role",
          "type": "bytes32"
        },
        {
          "indexed": true,
          "internalType": "address",
          "name": "account",
          "type": "address"
        },
        {
          "indexed": true,
          "internalType": "address",
          "name": "sender",
          "type": "address"
        }
      ],
      "name": "RoleGranted",
      "type": "event"
    },
    {
      "anonymous": false,
      "inputs": [
        {
          "indexed": true,
          "internalType": "bytes32",
          "name": "role",
          "type": "bytes32"
        },
        {
          "indexed": true,
          "internalType": "address",
          "name": "account",
          "type": "address"
        },
        {
          "indexed": true,
          "internalType": "address",
          "name": "sender",
          "type": "address"
        }
      ],
      "name": "RoleRevoked",
      "type": "event"
    },
    {
      "anonymous": false,
      "inputs": [
        {
          "indexed": true,
          "internalType": "address",
          "name": "user",
          "type": "address"
        },
        {
          "indexed": true,
          "internalType": "uint256",
          "name": "pid",
          "type": "uint256"
        },
        {
          "indexed": false,
          "internalType": "uint256",
          "name": "amount",
          "type": "uint256"
        },
        {
          "indexed": false,
          "internalType": "uint256",
          "name": "lockAmount",
          "type": "uint256"
        }
      ],
      "name": "SendGovernanceTokenReward",
      "type": "event"
    },
    {
      "anonymous": false,
      "inputs": [
        {
          "indexed": true,
          "internalType": "address",
          "name": "user",
          "type": "address"
        },
        {
          "indexed": true,
          "internalType": "uint256",
          "name": "pid",
          "type": "uint256"
        },
        {
          "indexed": false,
          "internalType": "uint256",
          "name": "amount",
          "type": "uint256"
        }
      ],
      "name": "Withdraw",
      "type": "event"
    },
    {
      "inputs": [],
      "name": "ADMIN_ROLE",
      "outputs": [
        {
          "internalType": "bytes32",
          "name": "",
          "type": "bytes32"
        }
      ],
      "stateMutability": "view",
      "type": "function"
    },
    {
      "inputs": [],
      "name": "CONTRACT_ROLE",
      "outputs": [
        {
          "internalType": "bytes32",
          "name": "",
          "type": "bytes32"
        }
      ],
      "stateMutability": "view",
      "type": "function"
    },
    {
      "inputs": [],
      "name": "DEFAULT_ADMIN_ROLE",
      "outputs": [
        {
          "internalType": "bytes32",
          "name": "",
          "type": "bytes32"
        }
      ],
      "stateMutability": "view",
      "type": "function"
    },
    {
      "inputs": [],
      "name": "DEV_DEP_FEE",
      "outputs": [
        {
          "internalType": "uint256",
          "name": "",
          "type": "uint256"
        }
      ],
      "stateMutability": "view",
      "type": "function"
    },
    {
      "inputs": [
        {
          "internalType": "uint256",
          "name": "",
          "type": "uint256"
        }
      ],
      "name": "DEV_FEE_STAGES",
      "outputs": [
        {
          "internalType": "uint256",
          "name": "",
          "type": "uint256"
        }
      ],
      "stateMutability": "view",
      "type": "function"
    },
    {
      "inputs": [],
      "name": "DEV_FUND_ADDRESS",
      "outputs": [
        {
          "internalType": "address",
          "name": "",
          "type": "address"
        }
      ],
      "stateMutability": "view",
      "type": "function"
    },
    {
      "inputs": [],
      "name": "FEE_SHARE_FUND_ADDRESS",
      "outputs": [
        {
          "internalType": "address",
          "name": "",
          "type": "address"
        }
      ],
      "stateMutability": "view",
      "type": "function"
    },
    {
      "inputs": [],
      "name": "FINISH_BONUS_AT_TIME",
      "outputs": [
        {
          "internalType": "uint256",
          "name": "",
          "type": "uint256"
        }
      ],
      "stateMutability": "view",
      "type": "function"
    },
    {
      "inputs": [],
      "name": "FOUNDERS_FUND_ADDRESS",
      "outputs": [
        {
          "internalType": "address",
          "name": "",
          "type": "address"
        }
      ],
      "stateMutability": "view",
      "type": "function"
    },
    {
      "inputs": [],
      "name": "GOV_TOKEN",
      "outputs": [
        {
          "internalType": "contract IERC20ExtendedUpgradeable",
          "name": "",
          "type": "address"
        }
      ],
      "stateMutability": "view",
      "type": "function"
    },
    {
      "inputs": [
        {
          "internalType": "uint256",
          "name": "",
          "type": "uint256"
        }
      ],
      "name": "HALVING_AT_TIMES",
      "outputs": [
        {
          "internalType": "uint256",
          "name": "",
          "type": "uint256"
        }
      ],
      "stateMutability": "view",
      "type": "function"
    },
    {
      "inputs": [],
      "name": "MARKETING_FUND_ADDRESS",
      "outputs": [
        {
          "internalType": "address",
          "name": "",
          "type": "address"
        }
      ],
      "stateMutability": "view",
      "type": "function"
    },
    {
      "inputs": [],
      "name": "PERCENT_FOR_DEV",
      "outputs": [
        {
          "internalType": "uint256",
          "name": "",
          "type": "uint256"
        }
      ],
      "stateMutability": "view",
      "type": "function"
    },
    {
      "inputs": [],
      "name": "PERCENT_FOR_FEE_SHARE",
      "outputs": [
        {
          "internalType": "uint256",
          "name": "",
          "type": "uint256"
        }
      ],
      "stateMutability": "view",
      "type": "function"
    },
    {
      "inputs": [],
      "name": "PERCENT_FOR_FOUNDERS",
      "outputs": [
        {
          "internalType": "uint256",
          "name": "",
          "type": "uint256"
        }
      ],
      "stateMutability": "view",
      "type": "function"
    },
    {
      "inputs": [],
      "name": "PERCENT_FOR_MARKETING",
      "outputs": [
        {
          "internalType": "uint256",
          "name": "",
          "type": "uint256"
        }
      ],
      "stateMutability": "view",
      "type": "function"
    },
    {
      "inputs": [
        {
          "internalType": "uint256",
          "name": "",
          "type": "uint256"
        }
      ],
      "name": "PERCENT_LOCK_BONUS_REWARD",
      "outputs": [
        {
          "internalType": "uint256",
          "name": "",
          "type": "uint256"
        }
      ],
      "stateMutability": "view",
      "type": "function"
    },
    {
      "inputs": [
        {
          "internalType": "uint256",
          "name": "",
          "type": "uint256"
        }
      ],
      "name": "REWARD_MULTIPLIERS",
      "outputs": [
        {
          "internalType": "uint256",
          "name": "",
          "type": "uint256"
        }
      ],
      "stateMutability": "view",
      "type": "function"
    },
    {
      "inputs": [],
      "name": "REWARD_PER_SECOND",
      "outputs": [
        {
          "internalType": "uint256",
          "name": "",
          "type": "uint256"
        }
      ],
      "stateMutability": "view",
      "type": "function"
    },
    {
      "inputs": [],
      "name": "START_TIME",
      "outputs": [
        {
          "internalType": "uint256",
          "name": "",
          "type": "uint256"
        }
      ],
      "stateMutability": "view",
      "type": "function"
    },
    {
      "inputs": [],
      "name": "TOTAL_ALLOCATION_POINTS",
      "outputs": [
        {
          "internalType": "uint256",
          "name": "",
          "type": "uint256"
        }
      ],
      "stateMutability": "view",
      "type": "function"
    },
    {
      "inputs": [],
      "name": "USER_DEP_FEE",
      "outputs": [
        {
          "internalType": "uint256",
          "name": "",
          "type": "uint256"
        }
      ],
      "stateMutability": "view",
      "type": "function"
    },
    {
      "inputs": [
        {
          "internalType": "uint256",
          "name": "",
          "type": "uint256"
        }
      ],
      "name": "USER_FEE_STAGES",
      "outputs": [
        {
          "internalType": "uint256",
          "name": "",
          "type": "uint256"
        }
      ],
      "stateMutability": "view",
      "type": "function"
    },
    {
      "inputs": [
        {
          "internalType": "uint256",
          "name": "_allocPoint",
          "type": "uint256"
        },
        {
          "internalType": "contract IERC20ExtendedUpgradeable",
          "name": "_lpToken",
          "type": "address"
        },
        {
          "internalType": "bool",
          "name": "_withUpdate",
          "type": "bool"
        }
      ],
      "name": "add",
      "outputs": [],
      "stateMutability": "nonpayable",
      "type": "function"
    },
    {
      "inputs": [
        {
          "internalType": "uint256",
          "name": "_pid",
          "type": "uint256"
        }
      ],
      "name": "claimReward",
      "outputs": [],
      "stateMutability": "nonpayable",
      "type": "function"
    },
    {
      "inputs": [
        {
          "internalType": "uint256[]",
          "name": "_pids",
          "type": "uint256[]"
        }
      ],
      "name": "claimRewards",
      "outputs": [],
      "stateMutability": "nonpayable",
      "type": "function"
    },
    {
      "inputs": [
        {
          "internalType": "uint256",
          "name": "_pid",
          "type": "uint256"
        },
        {
          "internalType": "address",
          "name": "_user",
          "type": "address"
        },
        {
          "internalType": "uint256",
          "name": "_amount",
          "type": "uint256"
        }
      ],
      "name": "correctWithdrawal",
      "outputs": [],
      "stateMutability": "nonpayable",
      "type": "function"
    },
    {
      "inputs": [
        {
          "internalType": "uint256",
          "name": "_pid",
          "type": "uint256"
        },
        {
          "internalType": "uint256",
          "name": "_amount",
          "type": "uint256"
        }
      ],
      "name": "deposit",
      "outputs": [],
      "stateMutability": "nonpayable",
      "type": "function"
    },
    {
      "inputs": [
        {
          "internalType": "uint256",
          "name": "_pid",
          "type": "uint256"
        }
      ],
      "name": "emergencyWithdraw",
      "outputs": [],
      "stateMutability": "nonpayable",
      "type": "function"
    },
    {
      "inputs": [
        {
          "internalType": "uint256",
          "name": "_from",
          "type": "uint256"
        },
        {
          "internalType": "uint256",
          "name": "_to",
          "type": "uint256"
        }
      ],
      "name": "getLockPercentage",
      "outputs": [
        {
          "internalType": "uint256",
          "name": "",
          "type": "uint256"
        }
      ],
      "stateMutability": "view",
      "type": "function"
    },
    {
      "inputs": [
        {
          "internalType": "uint256",
          "name": "_from",
          "type": "uint256"
        },
        {
          "internalType": "uint256",
          "name": "_to",
          "type": "uint256"
        }
      ],
      "name": "getMultiplier",
      "outputs": [
        {
          "internalType": "uint256",
          "name": "",
          "type": "uint256"
        }
      ],
      "stateMutability": "view",
      "type": "function"
    },
    {
      "inputs": [
        {
          "internalType": "uint256",
          "name": "pid1",
          "type": "uint256"
        }
      ],
      "name": "getNewRewardPerSecond",
      "outputs": [
        {
          "internalType": "uint256",
          "name": "",
          "type": "uint256"
        }
      ],
      "stateMutability": "view",
      "type": "function"
    },
    {
      "inputs": [
        {
          "internalType": "uint256",
          "name": "_from",
          "type": "uint256"
        },
        {
          "internalType": "uint256",
          "name": "_to",
          "type": "uint256"
        },
        {
          "internalType": "uint256",
          "name": "_allocPoint",
          "type": "uint256"
        }
      ],
      "name": "getPoolReward",
      "outputs": [
        {
          "internalType": "uint256",
          "name": "forDev",
          "type": "uint256"
        },
        {
          "internalType": "uint256",
          "name": "forFarmer",
          "type": "uint256"
        },
        {
          "internalType": "uint256",
          "name": "forLP",
          "type": "uint256"
        },
        {
          "internalType": "uint256",
          "name": "forCom",
          "type": "uint256"
        },
        {
          "internalType": "uint256",
          "name": "forFounders",
          "type": "uint256"
        }
      ],
      "stateMutability": "view",
      "type": "function"
    },
    {
      "inputs": [
        {
          "internalType": "bytes32",
          "name": "role",
          "type": "bytes32"
        }
      ],
      "name": "getRoleAdmin",
      "outputs": [
        {
          "internalType": "bytes32",
          "name": "",
          "type": "bytes32"
        }
      ],
      "stateMutability": "view",
      "type": "function"
    },
    {
      "inputs": [
        {
          "internalType": "bytes32",
          "name": "role",
          "type": "bytes32"
        },
        {
          "internalType": "address",
          "name": "account",
          "type": "address"
        }
      ],
      "name": "grantRole",
      "outputs": [],
      "stateMutability": "nonpayable",
      "type": "function"
    },
    {
      "inputs": [
        {
          "internalType": "bytes32",
          "name": "role",
          "type": "bytes32"
        },
        {
          "internalType": "address",
          "name": "account",
          "type": "address"
        }
      ],
      "name": "hasRole",
      "outputs": [
        {
          "internalType": "bool",
          "name": "",
          "type": "bool"
        }
      ],
      "stateMutability": "view",
      "type": "function"
    },
    {
      "inputs": [
        {
          "components": [
            {
              "internalType": "contract IERC20ExtendedUpgradeable",
              "name": "govToken",
              "type": "address"
            },
            {
              "internalType": "uint256",
              "name": "rewardPerSecond",
              "type": "uint256"
            },
            {
              "internalType": "uint256",
              "name": "startTime",
              "type": "uint256"
            },
            {
              "internalType": "uint256",
              "name": "userDepositFee",
              "type": "uint256"
            },
            {
              "internalType": "uint256",
              "name": "devDepositFee",
              "type": "uint256"
            },
            {
              "internalType": "address",
              "name": "devFundAddress",
              "type": "address"
            },
            {
              "internalType": "address",
              "name": "feeShareFundAddress",
              "type": "address"
            },
            {
              "internalType": "address",
              "name": "marketingFundAddress",
              "type": "address"
            },
            {
              "internalType": "address",
              "name": "foundersFundAddress",
              "type": "address"
            },
            {
              "internalType": "uint256[]",
              "name": "userFeeStages",
              "type": "uint256[]"
            },
            {
              "internalType": "uint256[]",
              "name": "devFeeStages",
              "type": "uint256[]"
            }
          ],
          "internalType": "struct SimpleMasterInvestor.ConstructorParams",
          "name": "params",
          "type": "tuple"
        }
      ],
      "name": "initialize",
      "outputs": [],
      "stateMutability": "nonpayable",
      "type": "function"
    },
    {
      "inputs": [],
      "name": "massUpdatePools",
      "outputs": [],
      "stateMutability": "nonpayable",
      "type": "function"
    },
    {
      "inputs": [
        {
          "internalType": "uint256",
          "name": "_pid",
          "type": "uint256"
        },
        {
          "internalType": "address",
          "name": "_user",
          "type": "address"
        }
      ],
      "name": "pendingReward",
      "outputs": [
        {
          "internalType": "uint256",
          "name": "",
          "type": "uint256"
        }
      ],
      "stateMutability": "view",
      "type": "function"
    },
    {
      "inputs": [
        {
          "internalType": "contract IERC20ExtendedUpgradeable",
          "name": "",
          "type": "address"
        }
      ],
      "name": "poolExistence",
      "outputs": [
        {
          "internalType": "bool",
          "name": "",
          "type": "bool"
        }
      ],
      "stateMutability": "view",
      "type": "function"
    },
    {
      "inputs": [
        {
          "internalType": "address",
          "name": "",
          "type": "address"
        }
      ],
      "name": "poolId",
      "outputs": [
        {
          "internalType": "uint256",
          "name": "",
          "type": "uint256"
        }
      ],
      "stateMutability": "view",
      "type": "function"
    },
    {
      "inputs": [
        {
          "internalType": "uint256",
          "name": "",
          "type": "uint256"
        }
      ],
      "name": "poolInfo",
      "outputs": [
        {
          "internalType": "contract IERC20ExtendedUpgradeable",
          "name": "lpToken",
          "type": "address"
        },
        {
          "internalType": "uint256",
          "name": "allocPoint",
          "type": "uint256"
        },
        {
          "internalType": "uint256",
          "name": "lastRewardTime",
          "type": "uint256"
        },
        {
          "internalType": "uint256",
          "name": "accGovTokenPerShare",
          "type": "uint256"
        }
      ],
      "stateMutability": "view",
      "type": "function"
    },
    {
      "inputs": [],
      "name": "poolLength",
      "outputs": [
        {
          "internalType": "uint256",
          "name": "",
          "type": "uint256"
        }
      ],
      "stateMutability": "view",
      "type": "function"
    },
    {
      "inputs": [],
      "name": "reconfigure",
      "outputs": [],
      "stateMutability": "nonpayable",
      "type": "function"
    },
    {
      "inputs": [
        {
          "internalType": "bytes32",
          "name": "role",
          "type": "bytes32"
        },
        {
          "internalType": "address",
          "name": "account",
          "type": "address"
        }
      ],
      "name": "renounceRole",
      "outputs": [],
      "stateMutability": "nonpayable",
      "type": "function"
    },
    {
      "inputs": [
        {
          "internalType": "uint256",
          "name": "_pid",
          "type": "uint256"
        },
        {
          "internalType": "address",
          "name": "_user",
          "type": "address"
        },
        {
          "internalType": "uint256",
          "name": "_time",
          "type": "uint256"
        }
      ],
      "name": "reviseDeposit",
      "outputs": [],
      "stateMutability": "nonpayable",
      "type": "function"
    },
    {
      "inputs": [
        {
          "internalType": "uint256",
          "name": "_pid",
          "type": "uint256"
        },
        {
          "internalType": "address",
          "name": "_user",
          "type": "address"
        },
        {
          "internalType": "uint256",
          "name": "_time",
          "type": "uint256"
        }
      ],
      "name": "reviseWithdraw",
      "outputs": [],
      "stateMutability": "nonpayable",
      "type": "function"
    },
    {
      "inputs": [
        {
          "internalType": "bytes32",
          "name": "role",
          "type": "bytes32"
        },
        {
          "internalType": "address",
          "name": "account",
          "type": "address"
        }
      ],
      "name": "revokeRole",
      "outputs": [],
      "stateMutability": "nonpayable",
      "type": "function"
    },
    {
      "inputs": [
        {
          "internalType": "uint256",
          "name": "_pid",
          "type": "uint256"
        },
        {
          "internalType": "uint256",
          "name": "_allocPoint",
          "type": "uint256"
        },
        {
          "internalType": "bool",
          "name": "_withUpdate",
          "type": "bool"
        }
      ],
      "name": "set",
      "outputs": [],
      "stateMutability": "nonpayable",
      "type": "function"
    },
    {
      "inputs": [
        {
          "internalType": "bytes4",
          "name": "interfaceId",
          "type": "bytes4"
        }
      ],
      "name": "supportsInterface",
      "outputs": [
        {
          "internalType": "bool",
          "name": "",
          "type": "bool"
        }
      ],
      "stateMutability": "view",
      "type": "function"
    },
    {
      "inputs": [],
      "name": "totalAllocPoint",
      "outputs": [
        {
          "internalType": "uint256",
          "name": "",
          "type": "uint256"
        }
      ],
      "stateMutability": "view",
      "type": "function"
    },
    {
      "inputs": [
        {
          "internalType": "uint256",
          "name": "kind",
          "type": "uint256"
        },
        {
          "internalType": "address",
          "name": "_address",
          "type": "address"
        }
      ],
      "name": "updateAddress",
      "outputs": [],
      "stateMutability": "nonpayable",
      "type": "function"
    },
    {
      "inputs": [
        {
          "internalType": "uint256",
          "name": "kind",
          "type": "uint256"
        },
        {
          "internalType": "uint256",
          "name": "fee",
          "type": "uint256"
        }
      ],
      "name": "updateDepositFee",
      "outputs": [],
      "stateMutability": "nonpayable",
      "type": "function"
    },
    {
      "inputs": [
        {
          "internalType": "uint256",
          "name": "kind",
          "type": "uint256"
        },
        {
          "internalType": "uint256[]",
          "name": "feeStages",
          "type": "uint256[]"
        }
      ],
      "name": "updateFeeStages",
      "outputs": [],
      "stateMutability": "nonpayable",
      "type": "function"
    },
    {
      "inputs": [
        {
          "internalType": "uint256[]",
          "name": "times",
          "type": "uint256[]"
        }
      ],
      "name": "updateHalvingAtTimes",
      "outputs": [],
      "stateMutability": "nonpayable",
      "type": "function"
    },
    {
      "inputs": [
        {
          "internalType": "uint256",
          "name": "time",
          "type": "uint256"
        }
      ],
      "name": "updateLastRewardTime",
      "outputs": [],
      "stateMutability": "nonpayable",
      "type": "function"
    },
    {
      "inputs": [
        {
          "internalType": "uint256",
          "name": "kind",
          "type": "uint256"
        },
        {
          "internalType": "uint256",
          "name": "percent",
          "type": "uint256"
        }
      ],
      "name": "updateLockPercent",
      "outputs": [],
      "stateMutability": "nonpayable",
      "type": "function"
    },
    {
      "inputs": [
        {
          "internalType": "uint256",
          "name": "_pid",
          "type": "uint256"
        }
      ],
      "name": "updatePool",
      "outputs": [],
      "stateMutability": "nonpayable",
      "type": "function"
    },
    {
      "inputs": [
        {
          "internalType": "uint256[]",
          "name": "multipliers",
          "type": "uint256[]"
        }
      ],
      "name": "updateRewardMultipliers",
      "outputs": [],
      "stateMutability": "nonpayable",
      "type": "function"
    },
    {
      "inputs": [
        {
          "internalType": "uint256",
          "name": "reward",
          "type": "uint256"
        }
      ],
      "name": "updateRewardPerSecond",
      "outputs": [],
      "stateMutability": "nonpayable",
      "type": "function"
    },
    {
      "inputs": [
        {
          "internalType": "uint256",
          "name": "time",
          "type": "uint256"
        }
      ],
      "name": "updateStartTime",
      "outputs": [],
      "stateMutability": "nonpayable",
      "type": "function"
    },
    {
      "inputs": [
        {
          "internalType": "uint256[]",
          "name": "lockPercents",
          "type": "uint256[]"
        }
      ],
      "name": "updateUserLockPercents",
      "outputs": [],
      "stateMutability": "nonpayable",
      "type": "function"
    },
    {
      "inputs": [
        {
          "internalType": "uint256",
          "name": "_pid",
          "type": "uint256"
        }
      ],
      "name": "userDelta",
      "outputs": [
        {
          "internalType": "uint256",
          "name": "",
          "type": "uint256"
        }
      ],
      "stateMutability": "view",
      "type": "function"
    },
    {
      "inputs": [
        {
          "internalType": "uint256",
          "name": "_pid",
          "type": "uint256"
        },
        {
          "internalType": "address",
          "name": "_address",
          "type": "address"
        }
      ],
      "name": "userDeltaOf",
      "outputs": [
        {
          "internalType": "uint256",
          "name": "",
          "type": "uint256"
        }
      ],
      "stateMutability": "view",
      "type": "function"
    },
    {
      "inputs": [
        {
          "internalType": "uint256",
          "name": "",
          "type": "uint256"
        },
        {
          "internalType": "address",
          "name": "",
          "type": "address"
        }
      ],
      "name": "userInfo",
      "outputs": [
        {
          "internalType": "uint256",
          "name": "amount",
          "type": "uint256"
        },
        {
          "internalType": "uint256",
          "name": "rewardDebt",
          "type": "uint256"
        },
        {
          "internalType": "uint256",
          "name": "rewardDebtAtTime",
          "type": "uint256"
        },
        {
          "internalType": "uint256",
          "name": "lastWithdrawTime",
          "type": "uint256"
        },
        {
          "internalType": "uint256",
          "name": "firstDepositTime",
          "type": "uint256"
        },
        {
          "internalType": "uint256",
          "name": "timeDelta",
          "type": "uint256"
        },
        {
          "internalType": "uint256",
          "name": "lastDepositTime",
          "type": "uint256"
        }
      ],
      "stateMutability": "view",
      "type": "function"
    },
    {
      "inputs": [
        {
          "internalType": "uint256",
          "name": "_pid",
          "type": "uint256"
        },
        {
          "internalType": "uint256",
          "name": "_amount",
          "type": "uint256"
        }
      ],
      "name": "withdraw",
      "outputs": [],
      "stateMutability": "nonpayable",
      "type": "function"
    }
  ],
  "bytecode": "0x60806040523480156200001157600080fd5b506200001c62000022565b620000e4565b600054610100900460ff16156200008f5760405162461bcd60e51b815260206004820152602760248201527f496e697469616c697a61626c653a20636f6e747261637420697320696e697469604482015266616c697a696e6760c81b606482015260840160405180910390fd5b60005460ff9081161015620000e2576000805460ff191660ff9081179091556040519081527f7f26b83ff96e1f2b6a682f133852f6798a09c465da95921460cefb38474024989060200160405180910390a15b565b613ccd80620000f46000396000f3fe608060405234801561001057600080fd5b50600436106103e65760003560e01c806382386d581161020a578063c35cadbe11610125578063ddaa26ad116100b8578063f491adf711610087578063f491adf714610925578063f92d34a914610938578063f930e7701461094b578063fa0718d91461095e578063ff51a2721461096757600080fd5b8063ddaa26ad146108ed578063e2bbb158146108f6578063ed9bdeda14610909578063f14dab0f1461091257600080fd5b8063cbd258b5116100f4578063cbd258b5146108a5578063d547741f146108c8578063d79c3953146108db578063d9b0d435146108e457600080fd5b8063c35cadbe1461083b578063c6929e531461084e578063c7b6e52514610857578063c8ed76801461086a57600080fd5b80639b963d2a1161019d578063ae169a501161016c578063ae169a50146107ef578063b168268914610802578063b787771614610815578063bd27e3f81461082857600080fd5b80639b963d2a146107ae578063a217fddf146107c1578063a2570bd6146107c9578063a82859c5146107dc57600080fd5b806391d14854116101d957806391d14854146106e357806393f1a40b146106f657806397fd45d91461078857806398969e821461079b57600080fd5b806382386d581461067f578063874feed314610692578063875ad581146106a55780638dbb1e3a146106d057600080fd5b806343628fb4116103055780635eac6239116102985780636461fc8c116102675780636461fc8c1461063357806365cf37711461064657806373a0cb201461065957806375b238fc146106615780637c0c57881461067657600080fd5b80635eac6239146105f25780636066debd14610605578063630b5ba11461061857806364482f791461062057600080fd5b806351eb05a6116102d457806351eb05a6146105b05780635312ea8e146105c357806356407a61146105d65780635643759e146105df57600080fd5b806343628fb414610578578063441a3e70146105815780634abbbd28146105945780634b0cf2061461059d57600080fd5b806317caf6f11161037d5780632f2ff15d1161034c5780632f2ff15d1461052c57806335582e681461053f57806336568abe146105525780634004c8e71461056557600080fd5b806317caf6f1146104db5780631eaaa045146104e3578063248a9ca3146104f65780632ab29df71461051957600080fd5b8063081e3eda116103b9578063081e3eda1461047057806309ae4d2c146104785780630d329fea1461048b5780631526fe271461049e57600080fd5b806301ffc9a7146103eb578063027e69991461041357806303fe46ab1461043457806306bcf02f1461045b575b600080fd5b6103fe6103f93660046135cd565b610987565b60405190151581526020015b60405180910390f35b6104266104213660046135f7565b6109be565b60405190815260200161040a565b6104267f364d3d7565c7a8300c96fd53e065d19b65848d7b23b3191adcd55621c744223c81565b61046e6104693660046135f7565b6109df565b005b60d954610426565b6104266104863660046135f7565b6109fd565b61046e6104993660046136e0565b610a45565b6104b16104ac3660046135f7565b610aed565b604080516001600160a01b039095168552602085019390935291830152606082015260800161040a565b60d454610426565b61046e6104f136600461375a565b610b31565b6104266105043660046135f7565b60009081526065602052604090206001015490565b61046e61052736600461379c565b610da2565b61046e61053a36600461379c565b610e5e565b61046e61054d3660046137cc565b610e83565b61046e61056036600461379c565b610edb565b61046e6105733660046135f7565b610f59565b61042660d45481565b61046e61058f3660046137cc565b610f77565b61042660dd5481565b6104266105ab3660046135f7565b6114c5565b61046e6105be3660046135f7565b6114d5565b61046e6105d13660046135f7565b611b5b565b61042660d25481565b61046e6105ed3660046137ee565b611cd1565b61046e610600366004613826565b611d37565b61046e6106133660046137ee565b611d77565b61046e611db9565b61046e61062e36600461385b565b611de0565b61046e6106413660046135f7565b611e78565b61046e610654366004613826565b611e96565b61046e611ec1565b610426600080516020613c7883398151915281565b61042660d15481565b61046e61068d3660046137ee565b612086565b6104266106a03660046135f7565b6120c8565b60ca546106b8906001600160a01b031681565b6040516001600160a01b03909116815260200161040a565b6104266106de3660046137cc565b6120d8565b6103fe6106f136600461379c565b612207565b61075361070436600461379c565b60db602052816000526040600020602052806000526040600020600091509150508060000154908060010154908060020154908060030154908060040154908060050154908060060154905087565b604080519788526020880196909652948601939093526060850191909152608084015260a083015260c082015260e00161040a565b61046e610796366004613889565b612232565b6104266107a936600461379c565b612465565b6104266107bc3660046135f7565b6125c3565b610426600081565b60cd546106b8906001600160a01b031681565b6104266107ea3660046135f7565b612626565b61046e6107fd3660046135f7565b612636565b60cb546106b8906001600160a01b031681565b61046e610823366004613826565b61264b565b61046e610836366004613826565b612676565b61046e6108493660046137cc565b6126a1565b61042660d85481565b61042661086536600461379c565b6126d9565b61087d61087836600461399f565b612733565b604080519586526020860194909452928401919091526060830152608082015260a00161040a565b6103fe6108b33660046139cb565b60dc6020526000908152604090205460ff1681565b61046e6108d636600461379c565b61292e565b61042660ce5481565b61042660d75481565b61042660d35481565b61046e6109043660046137cc565b612953565b61042660d55481565b60cc546106b8906001600160a01b031681565b6104266109333660046135f7565b612bb8565b60c9546106b8906001600160a01b031681565b6104266109593660046137cc565b612bc8565b61042660d65481565b6104266109753660046139cb565b60da6020526000908152604090205481565b60006001600160e01b03198216637965db0b60e01b14806109b857506301ffc9a760e01b6001600160e01b03198316145b92915050565b60de81815481106109ce57600080fd5b600091825260209091200154905081565b600080516020613c788339815191526109f781612c77565b5060d355565b600081815260db602090815260408083203384529091528120600381015415610a36576003810154610a2f90426139fe565b9392505050565b6004810154610a2f90426139fe565b600080516020613c78833981519152610a5d81612c77565b8260011415610a7f578151610a799060cf90602085019061352d565b50505050565b8260021415610a9b578151610a799060d090602085019061352d565b60405162461bcd60e51b815260206004820152601760248201527f496e76616c6964206b696e64206964656e74696669657200000000000000000060448201526064015b60405180910390fd5b505050565b60d98181548110610afd57600080fd5b600091825260209091206004909102018054600182015460028301546003909301546001600160a01b039092169350919084565b600080516020613c78833981519152610b4981612c77565b6001600160a01b038316600090815260dc6020526040902054839060ff1615610bc65760405162461bcd60e51b815260206004820152602960248201527f4d6173746572496e766573746f723a3a6e6f6e4475706c6963617465643a20646044820152681d5c1b1a58d85d195960ba1b6064820152608401610adf565b6001600160a01b038416600090815260da602052604090205415610c3f5760405162461bcd60e51b815260206004820152602a60248201527f4d6173746572496e766573746f723a3a6164643a206c7020697320616c726561604482015269191e481a5b881c1bdbdb60b21b6064820152608401610adf565b8215610c4d57610c4d611db9565b600060d3544211610c605760d354610c62565b425b90508560d46000828254610c769190613a15565b909155505060d954610c89906001613a15565b6001600160a01b03958616600081815260da602090815260408083209490945560dc81528382208054600160ff1990911681179091558451608081018652938452908301998a529282019384526060820181815260d98054948501815590915290517fcc6782fd46dd71c5f512301ab049782450b4eaf79fdac5443d93d274d3916786600490930292830180546001600160a01b031916919098161790965595517fcc6782fd46dd71c5f512301ab049782450b4eaf79fdac5443d93d274d3916787870155517fcc6782fd46dd71c5f512301ab049782450b4eaf79fdac5443d93d274d3916788860155505090517fcc6782fd46dd71c5f512301ab049782450b4eaf79fdac5443d93d274d39167899092019190915550565b600080516020613c78833981519152610dba81612c77565b8260011415610de35760ca80546001600160a01b0319166001600160a01b038416179055505050565b8260021415610e0c5760cb80546001600160a01b0319166001600160a01b038416179055505050565b8260031415610e355760cc80546001600160a01b0319166001600160a01b038416179055505050565b8260041415610a9b5760cd80546001600160a01b0319166001600160a01b038416179055505050565b600082815260656020526040902060010154610e7981612c77565b610ae88383612c81565b600080516020613c78833981519152610e9b81612c77565b8260011415610eab575060d55550565b8260021415610ebb575060d65550565b8260031415610ecb575060d75550565b8260041415610a9b575060d85550565b6001600160a01b0381163314610f4b5760405162461bcd60e51b815260206004820152602f60248201527f416363657373436f6e74726f6c3a2063616e206f6e6c792072656e6f756e636560448201526e103937b632b9903337b91039b2b63360891b6064820152608401610adf565b610f558282612d07565b5050565b600080516020613c78833981519152610f7181612c77565b5060ce55565b60026097541415610f9a5760405162461bcd60e51b8152600401610adf90613a2d565b6002609781905550600060d98381548110610fb757610fb7613a64565b6000918252602080832086845260db90915260408320600490920201925081610fdd3390565b6001600160a01b03166001600160a01b031681526020019081526020016000209050828160000154101561105e5760405162461bcd60e51b815260206004820152602260248201527f4d6173746572496e766573746f723a3a77697468647261773a206e6f7420676f6044820152611bd960f21b6064820152608401610adf565b611067846114d5565b61107084612d6e565b82156114ba578281600001600082825461108a91906139fe565b90915550506003810154156110b25760038101546110a890426139fe565b60058201556110c7565b60048101546110c190426139fe565b60058201555b6006810154839060009042141561114d57606460cf6000815481106110ee576110ee613a64565b9060005260206000200154866111049190613a7a565b61110e9190613a99565b9150606460d060008154811061112657611126613a64565b90600052602060002001548661113c9190613a7a565b6111469190613a99565b9050611421565b60018360050154101580156111675750610e108360050154105b156111ba57606460cf60018154811061118257611182613a64565b9060005260206000200154866111989190613a7a565b6111a29190613a99565b9150606460d060018154811061112657611126613a64565b610e108360050154101580156111d65750620151808360050154105b1561122957606460cf6002815481106111f1576111f1613a64565b9060005260206000200154866112079190613a7a565b6112119190613a99565b9150606460d060028154811061112657611126613a64565b6201518083600501541015801561124657506203f4808360050154105b1561129957606460cf60038154811061126157611261613a64565b9060005260206000200154866112779190613a7a565b6112819190613a99565b9150606460d060038154811061112657611126613a64565b6203f4808360050154101580156112b65750620697808360050154105b1561130957606460cf6004815481106112d1576112d1613a64565b9060005260206000200154866112e79190613a7a565b6112f19190613a99565b9150606460d060048154811061112657611126613a64565b620697808360050154101580156113265750621275008360050154105b1561137b576103e860cf60058154811061134257611342613a64565b9060005260206000200154866113589190613a7a565b6113629190613a99565b91506103e860d060058154811061112657611126613a64565b6212750083600501541015801561139857506224ea008360050154105b156113b45761271060d060068154811061112657611126613a64565b6224ea008360050154106113d95761271060d060078154811061112657611126613a64565b60405162461bcd60e51b815260206004820152601860248201527f536f6d657468696e6720697320766572792062726f6b656e00000000000000006044820152606401610adf565b611438335b85546001600160a01b03169084612d78565b60ca548454611454916001600160a01b03918216911683612d78565b6003840154835464e8d4a510009161146b91613a7a565b6114759190613a99565b6001840155604051858152869033907ff279e6a1f5e320cca91135676d9cb6e44ca8a08c0b88342bcdb1144f6511b5689060200160405180910390a350504260038201555b505060016097555050565b60cf81815481106109ce57600080fd5b600060d982815481106114ea576114ea613a64565b9060005260206000209060040201905080600201544211611509575050565b80546040516370a0823160e01b81523060048201526000916001600160a01b0316906370a082319060240160206040518083038186803b15801561154c57600080fd5b505afa158015611560573d6000803e3d6000fd5b505050506040513d601f19601f820116820180604052508101906115849190613abb565b905080158061159557506001820154155b156115a557504260029091015550565b60008060008060006115c08760020154428960010154612733565b60c9546040516340c10f1960e01b8152959a50939850919650945092506001600160a01b0316906340c10f19906115fd9030908890600401613ad4565b600060405180830381600087803b15801561161757600080fd5b505af115801561162b573d6000803e3d6000fd5b50505050858464e8d4a510006116419190613a7a565b61164b9190613a99565b87600301600082825461165e9190613a15565b909155505042600288015584156117a357600060dd54421115611682576000611699565b606461168f87604b613a7a565b6116999190613a99565b9050600060dd544211156116ad57866116c4565b60646116ba886019613a7a565b6116c49190613a99565b60c95460ca546040516340c10f1960e01b81529293506001600160a01b03918216926340c10f19926116fc9216908590600401613ad4565b600060405180830381600087803b15801561171657600080fd5b505af115801561172a573d6000803e3d6000fd5b5050505060008211156117a05760c95460ca546040516340c10f1960e01b81526001600160a01b03928316926340c10f199261176d929116908690600401613ad4565b600060405180830381600087803b15801561178757600080fd5b505af115801561179b573d6000803e3d6000fd5b505050505b50505b82156118dd57600060dd544211156117bc5760006117d3565b60646117c985602d613a7a565b6117d39190613a99565b9050600060dd544211156117e757846117fe565b60646117f4866037613a7a565b6117fe9190613a99565b60c95460cb546040516340c10f1960e01b81529293506001600160a01b03918216926340c10f19926118369216908590600401613ad4565b600060405180830381600087803b15801561185057600080fd5b505af1158015611864573d6000803e3d6000fd5b5050505060008211156118da5760c95460cb546040516340c10f1960e01b81526001600160a01b03928316926340c10f19926118a7929116908690600401613ad4565b600060405180830381600087803b1580156118c157600080fd5b505af11580156118d5573d6000803e3d6000fd5b505050505b50505b8115611a1757600060dd544211156118f657600061190d565b6064611903846055613a7a565b61190d9190613a99565b9050600060dd544211156119215783611938565b606461192e85600f613a7a565b6119389190613a99565b60c95460cc546040516340c10f1960e01b81529293506001600160a01b03918216926340c10f19926119709216908590600401613ad4565b600060405180830381600087803b15801561198a57600080fd5b505af115801561199e573d6000803e3d6000fd5b505050506000821115611a145760c95460cc546040516340c10f1960e01b81526001600160a01b03928316926340c10f19926119e1929116908690600401613ad4565b600060405180830381600087803b1580156119fb57600080fd5b505af1158015611a0f573d6000803e3d6000fd5b505050505b50505b8015611b5157600060dd54421115611a30576000611a47565b6064611a3d83605f613a7a565b611a479190613a99565b9050600060dd54421115611a5b5782611a72565b6064611a68846005613a7a565b611a729190613a99565b60c95460cd546040516340c10f1960e01b81529293506001600160a01b03918216926340c10f1992611aaa9216908590600401613ad4565b600060405180830381600087803b158015611ac457600080fd5b505af1158015611ad8573d6000803e3d6000fd5b505050506000821115611b4e5760c95460cd546040516340c10f1960e01b81526001600160a01b03928316926340c10f1992611b1b929116908690600401613ad4565b600060405180830381600087803b158015611b3557600080fd5b505af1158015611b49573d6000803e3d6000fd5b505050505b50505b5050505050505050565b60026097541415611b7e5760405162461bcd60e51b8152600401610adf90613a2d565b6002609781905550600060d98281548110611b9b57611b9b613a64565b6000918252602080832085845260db90915260408320600490920201925081611bc13390565b6001600160a01b03166001600160a01b0316815260200190815260200160002090506000606460cf600081548110611bfb57611bfb613a64565b90600052602060002001548360000154611c159190613a7a565b611c1f9190613a99565b90506000606460d0600081548110611c3957611c39613a64565b90600052602060002001548460000154611c539190613a7a565b611c5d9190613a99565b600080855560018501559050611c7233611426565b60ca548454611c8e916001600160a01b03918216911683612d78565b604051828152859033907fbb757047c2b5f3974fe26b7c10f732e7bce710b0952a71082702781e62ae05959060200160405180910390a350506001609755505050565b600080516020613c78833981519152611ce981612c77565b600060d98581548110611cfe57611cfe613a64565b600091825260209091206004909102018054909150611d27906001600160a01b03168585612d78565b611d30856114d5565b5050505050565b60005b8151811015610f5557611d65828281518110611d5857611d58613a64565b6020026020010151612636565b80611d6f81613aed565b915050611d3a565b600080516020613c78833981519152611d8f81612c77565b50600092835260db602090815260408085206001600160a01b039094168552929052912060030155565b60d95460005b81811015610f5557611dd0816114d5565b611dd981613aed565b9050611dbf565b600080516020613c78833981519152611df881612c77565b8115611e0657611e06611db9565b8260d98581548110611e1a57611e1a613a64565b90600052602060002090600402016001015460d454611e3991906139fe565b611e439190613a15565b60d4819055508260d98581548110611e5d57611e5d613a64565b90600052602060002090600402016001018190555050505050565b600080516020613c78833981519152611e9081612c77565b5060dd55565b600080516020613c78833981519152611eae81612c77565b8151610ae89060e090602085019061352d565b600080516020613c78833981519152611ed981612c77565b6040805161012081018252600180825260208201819052918101829052606081018290526080810182905260a0810182905260c0810182905260e08101829052610100810191909152611f309060df906009613578565b50604080516101208101825260118152600f6020820152600d91810191909152600b6060820152600960808201819052600760a0830152600560c0830152600360e0808401919091526001610100840152611f8c929091613578565b5062093a8060005b60df54611fa3906001906139fe565b8110156120205760d354600090611fbb836001613a15565b611fc59085613a7a565b611fcf9190613a15565b611fda906001613a15565b60de80546001810182556000919091527ffae8130c0619f84b4b44f01b84806f04e82e536d70e05f2356977fa318aecc1a0155508061201881613aed565b915050611f94565b5060d35460df54612033906001906139fe565b61203d9083613a7a565b6120479190613a15565b60dd55505060de80546001810182556000919091526000197ffae8130c0619f84b4b44f01b84806f04e82e536d70e05f2356977fa318aecc1a90910155565b600080516020613c7883398151915261209e81612c77565b50600092835260db602090815260408085206001600160a01b039094168552929052912060040155565b60df81815481106109ce57600080fd5b60d35460009081908410156120f15760009150506109b8565b60005b60de548110156121ff57600060de828154811061211357612113613a64565b90600052602060002001549050600160df8054905061213291906139fe565b82111561214557600093505050506109b8565b80851161219957600060df838154811061216157612161613a64565b9060005260206000200154878761217891906139fe565b6121829190613a7a565b905061218e8185613a15565b9450505050506109b8565b808610156121ec57600060df83815481106121b6576121b6613a64565b906000526020600020015487836121cd91906139fe565b6121d79190613a7a565b905081965080846121e89190613a15565b9350505b50806121f781613aed565b9150506120f4565b509392505050565b60009182526065602090815260408084206001600160a01b0393909316845291905290205460ff1690565b600054610100900460ff16158080156122525750600054600160ff909116105b8061226c5750303b15801561226c575060005460ff166001145b6122cf5760405162461bcd60e51b815260206004820152602e60248201527f496e697469616c697a61626c653a20636f6e747261637420697320616c72656160448201526d191e481a5b9a5d1a585b1a5e995960921b6064820152608401610adf565b6000805460ff1916600117905580156122f2576000805461ff0019166101001790555b6122fa612dce565b612302612df7565b61230d600033612c81565b612325600080516020613c7883398151915233612c81565b61234f7f364d3d7565c7a8300c96fd53e065d19b65848d7b23b3191adcd55621c744223c33612c81565b61012082015180516123699160cf9160209091019061352d565b5061014082015180516123849160d09160209091019061352d565b50815160c980546001600160a01b03199081166001600160a01b0393841617909155602084015160ce55604084015160d355606084015160d155608084015160d25560a084015160ca8054831691841691909117905560c084015160cb8054831691841691909117905560e084015160cc8054831691841691909117905561010084015160cd80549092169216919091179055600060d4558015610f55576000805461ff0019169055604051600181527f7f26b83ff96e1f2b6a682f133852f6798a09c465da95921460cefb38474024989060200160405180910390a15050565b60008060d9848154811061247b5761247b613a64565b6000918252602080832087845260db825260408085206001600160a01b038981168752935280852060049485029092016003810154815492516370a0823160e01b8152309681019690965290965091949193919216906370a082319060240160206040518083038186803b1580156124f257600080fd5b505afa158015612506573d6000803e3d6000fd5b505050506040513d601f19601f8201168201806040525081019061252a9190613abb565b905083600201544211801561253f5750600081115b1561258b5760006125598560020154428760010154612733565b50919350849250612573915083905064e8d4a51000613a7a565b61257d9190613a99565b6125879084613a15565b9250505b6001830154835464e8d4a51000906125a4908590613a7a565b6125ae9190613a99565b6125b891906139fe565b979650505050505050565b6000806125da6125d46001426139fe565b426120d8565b905060d45460d984815481106125f2576125f2613a64565b90600052602060002090600402016001015460ce54836126129190613a7a565b61261c9190613a7a565b610a2f9190613a99565b60e081815481106109ce57600080fd5b61263f816114d5565b61264881612d6e565b50565b600080516020613c7883398151915261266381612c77565b8151610ae89060de90602085019061352d565b600080516020613c7883398151915261268e81612c77565b8151610ae89060df90602085019061352d565b600080516020613c788339815191526126b981612c77565b82600114156126c9575060d15550565b8260021415610a9b575060d25550565b600082815260db602090815260408083206001600160a01b0385168452909152812060038101541561271c57600381015461271490426139fe565b9150506109b8565b600481015461272b90426139fe565b949350505050565b60008060008060008061274689896120d8565b9050600060d4548860ce548461275c9190613a7a565b6127669190613a7a565b6127709190613a99565b9050600060c960009054906101000a90046001600160a01b03166001600160a01b03166318160ddd6040518163ffffffff1660e01b815260040160206040518083038186803b1580156127c257600080fd5b505afa1580156127d6573d6000803e3d6000fd5b505050506040513d601f19601f820116820180604052508101906127fa9190613abb565b60c960009054906101000a90046001600160a01b03166001600160a01b031663355274ea6040518163ffffffff1660e01b815260040160206040518083038186803b15801561284857600080fd5b505afa15801561285c573d6000803e3d6000fd5b505050506040513d601f19601f820116820180604052508101906128809190613abb565b61288a91906139fe565b9050818110156128ac5760009750809650600095506000945060009350612920565b606460d554836128bc9190613a7a565b6128c69190613a99565b9750819650606460d654836128db9190613a7a565b6128e59190613a99565b9550606460d754836128f79190613a7a565b6129019190613a99565b9450606460d854836129139190613a7a565b61291d9190613a99565b93505b505050939792965093509350565b60008281526065602052604090206001015461294981612c77565b610ae88383612d07565b600260975414156129765760405162461bcd60e51b8152600401610adf90613a2d565b6002609755806129e75760405162461bcd60e51b815260206004820152603660248201527f4d6173746572496e766573746f723a3a6465706f7369743a20616d6f756e742060448201527506d7573742062652067726561746572207468616e20360541b6064820152608401610adf565b600060d983815481106129fc576129fc613a64565b6000918252602080832086845260db90915260408320600490920201925081612a223390565b6001600160a01b0390811682526020808301939093526040918201600090812088825260db855283822060ca549093168252919093529120909150612a66856114d5565b612a6f85612d6e565b612a863384546001600160a01b0316903087612e26565b8154612a93574260028301555b61271060d15485612aa49190613a7a565b612aae9190613a99565b612ab890856139fe565b826000016000828254612acb9190613a15565b90915550506003830154825464e8d4a5100091612ae791613a7a565b612af19190613a99565b600183015560d25461271090612b079086613a7a565b612b119190613a99565b612b1b90856139fe565b816000016000828254612b2e9190613a15565b90915550506003830154815464e8d4a5100091612b4a91613a7a565b612b549190613a99565b6001820155604051848152859033907f90890809c654f11d6e72a28fa60149770a0d11ec6c92319d6ceb2bb0a4ea1a159060200160405180910390a3600482015415612b9f57612ba6565b4260048301555b50426006909101555050600160975550565b60d081815481106109ce57600080fd5b60d3546000908190841015612be15760649150506109b8565b60005b60de548110156121ff57600060de8281548110612c0357612c03613a64565b90600052602060002001549050600160e080549050612c2291906139fe565b821115612c3557600093505050506109b8565b808511612c645760e08281548110612c4f57612c4f613a64565b906000526020600020015493505050506109b8565b5080612c6f81613aed565b915050612be4565b6126488133612e5e565b612c8b8282612207565b610f555760008281526065602090815260408083206001600160a01b03851684529091529020805460ff19166001179055612cc33390565b6001600160a01b0316816001600160a01b0316837f2f8788117e7eff1d82e926ec794901d17c78024a50270940304540a733656f0d60405160405180910390a45050565b612d118282612207565b15610f555760008281526065602090815260408083206001600160a01b0385168085529252808320805460ff1916905551339285917ff6391f5c32d9c69d2a47ea670b442974b53935d1edc7fd64eb21e047a839171b9190a45050565b6126488133612ec2565b610ae88363a9059cbb60e01b8484604051602401612d97929190613ad4565b60408051601f198184030181529190526020810180516001600160e01b03166001600160e01b03199093169290921790915261318d565b600054610100900460ff16612df55760405162461bcd60e51b8152600401610adf90613b08565b565b600054610100900460ff16612e1e5760405162461bcd60e51b8152600401610adf90613b08565b612df561325f565b6040516001600160a01b0380851660248301528316604482015260648101829052610a799085906323b872dd60e01b90608401612d97565b612e688282612207565b610f5557612e80816001600160a01b0316601461328d565b612e8b83602061328d565b604051602001612e9c929190613b7f565b60408051601f198184030181529082905262461bcd60e51b8252610adf91600401613bf4565b600060d98381548110612ed757612ed7613a64565b6000918252602080832086845260db825260408085206001600160a01b0388168652909252922080546004909202909201925015610a79576000816001015464e8d4a5100084600301548460000154612f309190613a7a565b612f3a9190613a99565b612f4491906139fe565b60c9546040516370a0823160e01b81523060048201529192506000916001600160a01b03909116906370a082319060240160206040518083038186803b158015612f8d57600080fd5b505afa158015612fa1573d6000803e3d6000fd5b505050506040513d601f19601f82011682018060405250810190612fc59190613abb565b905080821115612fd3578091505b811561315f57600060dd5484600201541161301a576000612ffe612ff86001426139fe565b42612bc8565b9050606461300c8286613a7a565b6130169190613a99565b9150505b60c9546001600160a01b031663a9059cbb8761303684876139fe565b6040518363ffffffff1660e01b8152600401613053929190613ad4565b602060405180830381600087803b15801561306d57600080fd5b505af1158015613081573d6000803e3d6000fd5b505050506040513d601f19601f820116820180604052508101906130a59190613c27565b5080156131115760c9546040516340c10f1960e01b81526001600160a01b03909116906340c10f19906130de9089908590600401613ad4565b600060405180830381600087803b1580156130f857600080fd5b505af115801561310c573d6000803e3d6000fd5b505050505b426002850155604080518481526020810183905288916001600160a01b038916917f3887f2857beaaf367eb618dfb5e22c1ebd74425affb0602c2e9fe126e3f860eb910160405180910390a3505b6003840154835464e8d4a510009161317691613a7a565b6131809190613a99565b6001840155505050505050565b60006131e2826040518060400160405280602081526020017f5361666545524332303a206c6f772d6c6576656c2063616c6c206661696c6564815250856001600160a01b03166134299092919063ffffffff16565b805190915015610ae857808060200190518101906132009190613c27565b610ae85760405162461bcd60e51b815260206004820152602a60248201527f5361666545524332303a204552433230206f7065726174696f6e20646964206e6044820152691bdd081cdd58d8d9595960b21b6064820152608401610adf565b600054610100900460ff166132865760405162461bcd60e51b8152600401610adf90613b08565b6001609755565b6060600061329c836002613a7a565b6132a7906002613a15565b67ffffffffffffffff8111156132bf576132bf613610565b6040519080825280601f01601f1916602001820160405280156132e9576020820181803683370190505b509050600360fc1b8160008151811061330457613304613a64565b60200101906001600160f81b031916908160001a905350600f60fb1b8160018151811061333357613333613a64565b60200101906001600160f81b031916908160001a9053506000613357846002613a7a565b613362906001613a15565b90505b60018111156133da576f181899199a1a9b1b9c1cb0b131b232b360811b85600f166010811061339657613396613a64565b1a60f81b8282815181106133ac576133ac613a64565b60200101906001600160f81b031916908160001a90535060049490941c936133d381613c44565b9050613365565b508315610a2f5760405162461bcd60e51b815260206004820181905260248201527f537472696e67733a20686578206c656e67746820696e73756666696369656e746044820152606401610adf565b606061272b8484600085856001600160a01b0385163b61348b5760405162461bcd60e51b815260206004820152601d60248201527f416464726573733a2063616c6c20746f206e6f6e2d636f6e74726163740000006044820152606401610adf565b600080866001600160a01b031685876040516134a79190613c5b565b60006040518083038185875af1925050503d80600081146134e4576040519150601f19603f3d011682016040523d82523d6000602084013e6134e9565b606091505b50915091506125b882828660608315613503575081610a2f565b8251156135135782518084602001fd5b8160405162461bcd60e51b8152600401610adf9190613bf4565b828054828255906000526020600020908101928215613568579160200282015b8281111561356857825182559160200191906001019061354d565b506135749291506135b8565b5090565b828054828255906000526020600020908101928215613568579160200282015b82811115613568578251829060ff16905591602001919060010190613598565b5b8082111561357457600081556001016135b9565b6000602082840312156135df57600080fd5b81356001600160e01b031981168114610a2f57600080fd5b60006020828403121561360957600080fd5b5035919050565b634e487b7160e01b600052604160045260246000fd5b604051610160810167ffffffffffffffff8111828210171561364a5761364a613610565b60405290565b600082601f83011261366157600080fd5b8135602067ffffffffffffffff8083111561367e5761367e613610565b8260051b604051601f19603f830116810181811084821117156136a3576136a3613610565b6040529384528581018301938381019250878511156136c157600080fd5b83870191505b848210156125b8578135835291830191908301906136c7565b600080604083850312156136f357600080fd5b82359150602083013567ffffffffffffffff81111561371157600080fd5b61371d85828601613650565b9150509250929050565b6001600160a01b038116811461264857600080fd5b803561374781613727565b919050565b801515811461264857600080fd5b60008060006060848603121561376f57600080fd5b83359250602084013561378181613727565b915060408401356137918161374c565b809150509250925092565b600080604083850312156137af57600080fd5b8235915060208301356137c181613727565b809150509250929050565b600080604083850312156137df57600080fd5b50508035926020909101359150565b60008060006060848603121561380357600080fd5b83359250602084013561381581613727565b929592945050506040919091013590565b60006020828403121561383857600080fd5b813567ffffffffffffffff81111561384f57600080fd5b61272b84828501613650565b60008060006060848603121561387057600080fd5b833592506020840135915060408401356137918161374c565b60006020828403121561389b57600080fd5b813567ffffffffffffffff808211156138b357600080fd5b9083019061016082860312156138c857600080fd5b6138d0613626565b6138d98361373c565b81526020830135602082015260408301356040820152606083013560608201526080830135608082015261390f60a0840161373c565b60a082015261392060c0840161373c565b60c082015261393160e0840161373c565b60e082015261010061394481850161373c565b90820152610120838101358381111561395c57600080fd5b61396888828701613650565b828401525050610140808401358381111561398257600080fd5b61398e88828701613650565b918301919091525095945050505050565b6000806000606084860312156139b457600080fd5b505081359360208301359350604090920135919050565b6000602082840312156139dd57600080fd5b8135610a2f81613727565b634e487b7160e01b600052601160045260246000fd5b600082821015613a1057613a106139e8565b500390565b60008219821115613a2857613a286139e8565b500190565b6020808252601f908201527f5265656e7472616e637947756172643a207265656e7472616e742063616c6c00604082015260600190565b634e487b7160e01b600052603260045260246000fd5b6000816000190483118215151615613a9457613a946139e8565b500290565b600082613ab657634e487b7160e01b600052601260045260246000fd5b500490565b600060208284031215613acd57600080fd5b5051919050565b6001600160a01b03929092168252602082015260400190565b6000600019821415613b0157613b016139e8565b5060010190565b6020808252602b908201527f496e697469616c697a61626c653a20636f6e7472616374206973206e6f74206960408201526a6e697469616c697a696e6760a81b606082015260800190565b60005b83811015613b6e578181015183820152602001613b56565b83811115610a795750506000910152565b7f416363657373436f6e74726f6c3a206163636f756e7420000000000000000000815260008351613bb7816017850160208801613b53565b7001034b99036b4b9b9b4b733903937b6329607d1b6017918401918201528351613be8816028840160208801613b53565b01602801949350505050565b6020815260008251806020840152613c13816040850160208701613b53565b601f01601f19169190910160400192915050565b600060208284031215613c3957600080fd5b8151610a2f8161374c565b600081613c5357613c536139e8565b506000190190565b60008251613c6d818460208701613b53565b919091019291505056fea49807205ce4d355092ef5a8a18f56e8913cf4a201fbe287825b095693c21775a2646970667358221220ed133ed4dfde22f99f7c8fc9f1f7dc1f3fca7de126202f4dc6e3a42a4371901c64736f6c63430008090033",
  "linkReferences": {},
  "deployedLinkReferences": {}
}