{
  "_format": "hh-sol-artifact-1",
  "contractName": "SimpleMasterInvestor",
  "sourceName": "contracts/upgradeable/npc/SimpleMasterInvestor.sol",
  "abi": [
    {
      "inputs": [],
      "stateMutability": "nonpayable",
      "type": "constructor"
    },
    {
      "anonymous": false,
      "inputs": [
        {
          "indexed": true,
          "internalType": "address",
          "name": "user",
          "type": "address"
        },
        {
          "indexed": true,
          "internalType": "uint256",
          "name": "pid",
          "type": "uint256"
        },
        {
          "indexed": false,
          "internalType": "uint256",
          "name": "amount",
          "type": "uint256"
        }
      ],
      "name": "Deposit",
      "type": "event"
    },
    {
      "anonymous": false,
      "inputs": [
        {
          "indexed": true,
          "internalType": "address",
          "name": "user",
          "type": "address"
        },
        {
          "indexed": true,
          "internalType": "uint256",
          "name": "pid",
          "type": "uint256"
        },
        {
          "indexed": false,
          "internalType": "uint256",
          "name": "amount",
          "type": "uint256"
        }
      ],
      "name": "EmergencyWithdraw",
      "type": "event"
    },
    {
      "anonymous": false,
      "inputs": [
        {
          "indexed": false,
          "internalType": "uint8",
          "name": "version",
          "type": "uint8"
        }
      ],
      "name": "Initialized",
      "type": "event"
    },
    {
      "anonymous": false,
      "inputs": [
        {
          "indexed": true,
          "internalType": "bytes32",
          "name": "role",
          "type": "bytes32"
        },
        {
          "indexed": true,
          "internalType": "bytes32",
          "name": "previousAdminRole",
          "type": "bytes32"
        },
        {
          "indexed": true,
          "internalType": "bytes32",
          "name": "newAdminRole",
          "type": "bytes32"
        }
      ],
      "name": "RoleAdminChanged",
      "type": "event"
    },
    {
      "anonymous": false,
      "inputs": [
        {
          "indexed": true,
          "internalType": "bytes32",
          "name": "role",
          "type": "bytes32"
        },
        {
          "indexed": true,
          "internalType": "address",
          "name": "account",
          "type": "address"
        },
        {
          "indexed": true,
          "internalType": "address",
          "name": "sender",
          "type": "address"
        }
      ],
      "name": "RoleGranted",
      "type": "event"
    },
    {
      "anonymous": false,
      "inputs": [
        {
          "indexed": true,
          "internalType": "bytes32",
          "name": "role",
          "type": "bytes32"
        },
        {
          "indexed": true,
          "internalType": "address",
          "name": "account",
          "type": "address"
        },
        {
          "indexed": true,
          "internalType": "address",
          "name": "sender",
          "type": "address"
        }
      ],
      "name": "RoleRevoked",
      "type": "event"
    },
    {
      "anonymous": false,
      "inputs": [
        {
          "indexed": true,
          "internalType": "address",
          "name": "user",
          "type": "address"
        },
        {
          "indexed": true,
          "internalType": "uint256",
          "name": "pid",
          "type": "uint256"
        },
        {
          "indexed": false,
          "internalType": "uint256",
          "name": "amount",
          "type": "uint256"
        },
        {
          "indexed": false,
          "internalType": "uint256",
          "name": "lockAmount",
          "type": "uint256"
        }
      ],
      "name": "SendGovernanceTokenReward",
      "type": "event"
    },
    {
      "anonymous": false,
      "inputs": [
        {
          "indexed": true,
          "internalType": "address",
          "name": "user",
          "type": "address"
        },
        {
          "indexed": true,
          "internalType": "uint256",
          "name": "pid",
          "type": "uint256"
        },
        {
          "indexed": false,
          "internalType": "uint256",
          "name": "amount",
          "type": "uint256"
        }
      ],
      "name": "Withdraw",
      "type": "event"
    },
    {
      "inputs": [],
      "name": "ADMIN_ROLE",
      "outputs": [
        {
          "internalType": "bytes32",
          "name": "",
          "type": "bytes32"
        }
      ],
      "stateMutability": "view",
      "type": "function"
    },
    {
      "inputs": [],
      "name": "CONTRACT_ROLE",
      "outputs": [
        {
          "internalType": "bytes32",
          "name": "",
          "type": "bytes32"
        }
      ],
      "stateMutability": "view",
      "type": "function"
    },
    {
      "inputs": [],
      "name": "DEFAULT_ADMIN_ROLE",
      "outputs": [
        {
          "internalType": "bytes32",
          "name": "",
          "type": "bytes32"
        }
      ],
      "stateMutability": "view",
      "type": "function"
    },
    {
      "inputs": [],
      "name": "DEV_DEP_FEE",
      "outputs": [
        {
          "internalType": "uint256",
          "name": "",
          "type": "uint256"
        }
      ],
      "stateMutability": "view",
      "type": "function"
    },
    {
      "inputs": [
        {
          "internalType": "uint256",
          "name": "",
          "type": "uint256"
        }
      ],
      "name": "DEV_FEE_STAGES",
      "outputs": [
        {
          "internalType": "uint256",
          "name": "",
          "type": "uint256"
        }
      ],
      "stateMutability": "view",
      "type": "function"
    },
    {
      "inputs": [],
      "name": "DEV_FUND_ADDRESS",
      "outputs": [
        {
          "internalType": "address",
          "name": "",
          "type": "address"
        }
      ],
      "stateMutability": "view",
      "type": "function"
    },
    {
      "inputs": [],
      "name": "FEE_SHARE_FUND_ADDRESS",
      "outputs": [
        {
          "internalType": "address",
          "name": "",
          "type": "address"
        }
      ],
      "stateMutability": "view",
      "type": "function"
    },
    {
      "inputs": [],
      "name": "FINISH_BONUS_AT_TIME",
      "outputs": [
        {
          "internalType": "uint256",
          "name": "",
          "type": "uint256"
        }
      ],
      "stateMutability": "view",
      "type": "function"
    },
    {
      "inputs": [],
      "name": "FOUNDERS_FUND_ADDRESS",
      "outputs": [
        {
          "internalType": "address",
          "name": "",
          "type": "address"
        }
      ],
      "stateMutability": "view",
      "type": "function"
    },
    {
      "inputs": [],
      "name": "GOV_TOKEN",
      "outputs": [
        {
          "internalType": "contract IERC20ExtendedUpgradeable",
          "name": "",
          "type": "address"
        }
      ],
      "stateMutability": "view",
      "type": "function"
    },
    {
      "inputs": [
        {
          "internalType": "uint256",
          "name": "",
          "type": "uint256"
        }
      ],
      "name": "HALVING_AT_TIMES",
      "outputs": [
        {
          "internalType": "uint256",
          "name": "",
          "type": "uint256"
        }
      ],
      "stateMutability": "view",
      "type": "function"
    },
    {
      "inputs": [],
      "name": "MARKETING_FUND_ADDRESS",
      "outputs": [
        {
          "internalType": "address",
          "name": "",
          "type": "address"
        }
      ],
      "stateMutability": "view",
      "type": "function"
    },
    {
      "inputs": [],
      "name": "PERCENT_FOR_DEV",
      "outputs": [
        {
          "internalType": "uint256",
          "name": "",
          "type": "uint256"
        }
      ],
      "stateMutability": "view",
      "type": "function"
    },
    {
      "inputs": [],
      "name": "PERCENT_FOR_FEE_SHARE",
      "outputs": [
        {
          "internalType": "uint256",
          "name": "",
          "type": "uint256"
        }
      ],
      "stateMutability": "view",
      "type": "function"
    },
    {
      "inputs": [],
      "name": "PERCENT_FOR_FOUNDERS",
      "outputs": [
        {
          "internalType": "uint256",
          "name": "",
          "type": "uint256"
        }
      ],
      "stateMutability": "view",
      "type": "function"
    },
    {
      "inputs": [],
      "name": "PERCENT_FOR_MARKETING",
      "outputs": [
        {
          "internalType": "uint256",
          "name": "",
          "type": "uint256"
        }
      ],
      "stateMutability": "view",
      "type": "function"
    },
    {
      "inputs": [
        {
          "internalType": "uint256",
          "name": "",
          "type": "uint256"
        }
      ],
      "name": "PERCENT_LOCK_BONUS_REWARD",
      "outputs": [
        {
          "internalType": "uint256",
          "name": "",
          "type": "uint256"
        }
      ],
      "stateMutability": "view",
      "type": "function"
    },
    {
      "inputs": [
        {
          "internalType": "uint256",
          "name": "",
          "type": "uint256"
        }
      ],
      "name": "REWARD_MULTIPLIERS",
      "outputs": [
        {
          "internalType": "uint256",
          "name": "",
          "type": "uint256"
        }
      ],
      "stateMutability": "view",
      "type": "function"
    },
    {
      "inputs": [],
      "name": "REWARD_PER_SECOND",
      "outputs": [
        {
          "internalType": "uint256",
          "name": "",
          "type": "uint256"
        }
      ],
      "stateMutability": "view",
      "type": "function"
    },
    {
      "inputs": [],
      "name": "START_TIME",
      "outputs": [
        {
          "internalType": "uint256",
          "name": "",
          "type": "uint256"
        }
      ],
      "stateMutability": "view",
      "type": "function"
    },
    {
      "inputs": [],
      "name": "TOTAL_ALLOCATION_POINTS",
      "outputs": [
        {
          "internalType": "uint256",
          "name": "",
          "type": "uint256"
        }
      ],
      "stateMutability": "view",
      "type": "function"
    },
    {
      "inputs": [],
      "name": "USER_DEP_FEE",
      "outputs": [
        {
          "internalType": "uint256",
          "name": "",
          "type": "uint256"
        }
      ],
      "stateMutability": "view",
      "type": "function"
    },
    {
      "inputs": [
        {
          "internalType": "uint256",
          "name": "",
          "type": "uint256"
        }
      ],
      "name": "USER_FEE_STAGES",
      "outputs": [
        {
          "internalType": "uint256",
          "name": "",
          "type": "uint256"
        }
      ],
      "stateMutability": "view",
      "type": "function"
    },
    {
      "inputs": [
        {
          "internalType": "uint256",
          "name": "_allocPoint",
          "type": "uint256"
        },
        {
          "internalType": "contract IERC20ExtendedUpgradeable",
          "name": "_lpToken",
          "type": "address"
        },
        {
          "internalType": "bool",
          "name": "_withUpdate",
          "type": "bool"
        }
      ],
      "name": "add",
      "outputs": [],
      "stateMutability": "nonpayable",
      "type": "function"
    },
    {
      "inputs": [
        {
          "internalType": "uint256",
          "name": "_pid",
          "type": "uint256"
        }
      ],
      "name": "claimReward",
      "outputs": [],
      "stateMutability": "nonpayable",
      "type": "function"
    },
    {
      "inputs": [
        {
          "internalType": "uint256[]",
          "name": "_pids",
          "type": "uint256[]"
        }
      ],
      "name": "claimRewards",
      "outputs": [],
      "stateMutability": "nonpayable",
      "type": "function"
    },
    {
      "inputs": [
        {
          "internalType": "uint256",
          "name": "_pid",
          "type": "uint256"
        },
        {
          "internalType": "address",
          "name": "_user",
          "type": "address"
        },
        {
          "internalType": "uint256",
          "name": "_amount",
          "type": "uint256"
        }
      ],
      "name": "correctWithdrawal",
      "outputs": [],
      "stateMutability": "nonpayable",
      "type": "function"
    },
    {
      "inputs": [
        {
          "internalType": "uint256",
          "name": "_pid",
          "type": "uint256"
        },
        {
          "internalType": "uint256",
          "name": "_amount",
          "type": "uint256"
        }
      ],
      "name": "deposit",
      "outputs": [],
      "stateMutability": "nonpayable",
      "type": "function"
    },
    {
      "inputs": [
        {
          "internalType": "uint256",
          "name": "_pid",
          "type": "uint256"
        }
      ],
      "name": "emergencyWithdraw",
      "outputs": [],
      "stateMutability": "nonpayable",
      "type": "function"
    },
    {
      "inputs": [
        {
          "internalType": "uint256",
          "name": "_from",
          "type": "uint256"
        },
        {
          "internalType": "uint256",
          "name": "_to",
          "type": "uint256"
        }
      ],
      "name": "getLockPercentage",
      "outputs": [
        {
          "internalType": "uint256",
          "name": "",
          "type": "uint256"
        }
      ],
      "stateMutability": "view",
      "type": "function"
    },
    {
      "inputs": [
        {
          "internalType": "uint256",
          "name": "_from",
          "type": "uint256"
        },
        {
          "internalType": "uint256",
          "name": "_to",
          "type": "uint256"
        }
      ],
      "name": "getMultiplier",
      "outputs": [
        {
          "internalType": "uint256",
          "name": "",
          "type": "uint256"
        }
      ],
      "stateMutability": "view",
      "type": "function"
    },
    {
      "inputs": [
        {
          "internalType": "uint256",
          "name": "pid1",
          "type": "uint256"
        }
      ],
      "name": "getNewRewardPerSecond",
      "outputs": [
        {
          "internalType": "uint256",
          "name": "",
          "type": "uint256"
        }
      ],
      "stateMutability": "view",
      "type": "function"
    },
    {
      "inputs": [
        {
          "internalType": "uint256",
          "name": "_from",
          "type": "uint256"
        },
        {
          "internalType": "uint256",
          "name": "_to",
          "type": "uint256"
        },
        {
          "internalType": "uint256",
          "name": "_allocPoint",
          "type": "uint256"
        }
      ],
      "name": "getPoolReward",
      "outputs": [
        {
          "internalType": "uint256",
          "name": "forDev",
          "type": "uint256"
        },
        {
          "internalType": "uint256",
          "name": "forFarmer",
          "type": "uint256"
        },
        {
          "internalType": "uint256",
          "name": "forLP",
          "type": "uint256"
        },
        {
          "internalType": "uint256",
          "name": "forCom",
          "type": "uint256"
        },
        {
          "internalType": "uint256",
          "name": "forFounders",
          "type": "uint256"
        }
      ],
      "stateMutability": "view",
      "type": "function"
    },
    {
      "inputs": [
        {
          "internalType": "bytes32",
          "name": "role",
          "type": "bytes32"
        }
      ],
      "name": "getRoleAdmin",
      "outputs": [
        {
          "internalType": "bytes32",
          "name": "",
          "type": "bytes32"
        }
      ],
      "stateMutability": "view",
      "type": "function"
    },
    {
      "inputs": [
        {
          "internalType": "bytes32",
          "name": "role",
          "type": "bytes32"
        },
        {
          "internalType": "address",
          "name": "account",
          "type": "address"
        }
      ],
      "name": "grantRole",
      "outputs": [],
      "stateMutability": "nonpayable",
      "type": "function"
    },
    {
      "inputs": [
        {
          "internalType": "bytes32",
          "name": "role",
          "type": "bytes32"
        },
        {
          "internalType": "address",
          "name": "account",
          "type": "address"
        }
      ],
      "name": "hasRole",
      "outputs": [
        {
          "internalType": "bool",
          "name": "",
          "type": "bool"
        }
      ],
      "stateMutability": "view",
      "type": "function"
    },
    {
      "inputs": [
        {
          "components": [
            {
              "internalType": "contract IERC20ExtendedUpgradeable",
              "name": "govToken",
              "type": "address"
            },
            {
              "internalType": "uint256",
              "name": "rewardPerSecond",
              "type": "uint256"
            },
            {
              "internalType": "uint256",
              "name": "startTime",
              "type": "uint256"
            },
            {
              "internalType": "uint256",
              "name": "userDepositFee",
              "type": "uint256"
            },
            {
              "internalType": "uint256",
              "name": "devDepositFee",
              "type": "uint256"
            },
            {
              "internalType": "address",
              "name": "devFundAddress",
              "type": "address"
            },
            {
              "internalType": "address",
              "name": "feeShareFundAddress",
              "type": "address"
            },
            {
              "internalType": "address",
              "name": "marketingFundAddress",
              "type": "address"
            },
            {
              "internalType": "address",
              "name": "foundersFundAddress",
              "type": "address"
            },
            {
              "internalType": "uint256[]",
              "name": "userFeeStages",
              "type": "uint256[]"
            },
            {
              "internalType": "uint256[]",
              "name": "devFeeStages",
              "type": "uint256[]"
            }
          ],
          "internalType": "struct SimpleMasterInvestor.ConstructorParams",
          "name": "params",
          "type": "tuple"
        }
      ],
      "name": "initialize",
      "outputs": [],
      "stateMutability": "nonpayable",
      "type": "function"
    },
    {
      "inputs": [],
      "name": "massUpdatePools",
      "outputs": [],
      "stateMutability": "nonpayable",
      "type": "function"
    },
    {
      "inputs": [
        {
          "internalType": "uint256",
          "name": "_pid",
          "type": "uint256"
        },
        {
          "internalType": "address",
          "name": "_user",
          "type": "address"
        }
      ],
      "name": "pendingReward",
      "outputs": [
        {
          "internalType": "uint256",
          "name": "",
          "type": "uint256"
        }
      ],
      "stateMutability": "view",
      "type": "function"
    },
    {
      "inputs": [
        {
          "internalType": "contract IERC20ExtendedUpgradeable",
          "name": "",
          "type": "address"
        }
      ],
      "name": "poolExistence",
      "outputs": [
        {
          "internalType": "bool",
          "name": "",
          "type": "bool"
        }
      ],
      "stateMutability": "view",
      "type": "function"
    },
    {
      "inputs": [
        {
          "internalType": "address",
          "name": "",
          "type": "address"
        }
      ],
      "name": "poolId",
      "outputs": [
        {
          "internalType": "uint256",
          "name": "",
          "type": "uint256"
        }
      ],
      "stateMutability": "view",
      "type": "function"
    },
    {
      "inputs": [
        {
          "internalType": "uint256",
          "name": "",
          "type": "uint256"
        }
      ],
      "name": "poolInfo",
      "outputs": [
        {
          "internalType": "contract IERC20ExtendedUpgradeable",
          "name": "lpToken",
          "type": "address"
        },
        {
          "internalType": "uint256",
          "name": "allocPoint",
          "type": "uint256"
        },
        {
          "internalType": "uint256",
          "name": "lastRewardTime",
          "type": "uint256"
        },
        {
          "internalType": "uint256",
          "name": "accGovTokenPerShare",
          "type": "uint256"
        }
      ],
      "stateMutability": "view",
      "type": "function"
    },
    {
      "inputs": [],
      "name": "poolLength",
      "outputs": [
        {
          "internalType": "uint256",
          "name": "",
          "type": "uint256"
        }
      ],
      "stateMutability": "view",
      "type": "function"
    },
    {
      "inputs": [],
      "name": "reconfigure",
      "outputs": [],
      "stateMutability": "nonpayable",
      "type": "function"
    },
    {
      "inputs": [
        {
          "internalType": "bytes32",
          "name": "role",
          "type": "bytes32"
        },
        {
          "internalType": "address",
          "name": "account",
          "type": "address"
        }
      ],
      "name": "renounceRole",
      "outputs": [],
      "stateMutability": "nonpayable",
      "type": "function"
    },
    {
      "inputs": [
        {
          "internalType": "uint256",
          "name": "_pid",
          "type": "uint256"
        },
        {
          "internalType": "address",
          "name": "_user",
          "type": "address"
        },
        {
          "internalType": "uint256",
          "name": "_time",
          "type": "uint256"
        }
      ],
      "name": "reviseDeposit",
      "outputs": [],
      "stateMutability": "nonpayable",
      "type": "function"
    },
    {
      "inputs": [
        {
          "internalType": "uint256",
          "name": "_pid",
          "type": "uint256"
        },
        {
          "internalType": "address",
          "name": "_user",
          "type": "address"
        },
        {
          "internalType": "uint256",
          "name": "_time",
          "type": "uint256"
        }
      ],
      "name": "reviseWithdraw",
      "outputs": [],
      "stateMutability": "nonpayable",
      "type": "function"
    },
    {
      "inputs": [
        {
          "internalType": "bytes32",
          "name": "role",
          "type": "bytes32"
        },
        {
          "internalType": "address",
          "name": "account",
          "type": "address"
        }
      ],
      "name": "revokeRole",
      "outputs": [],
      "stateMutability": "nonpayable",
      "type": "function"
    },
    {
      "inputs": [
        {
          "internalType": "uint256",
          "name": "_pid",
          "type": "uint256"
        },
        {
          "internalType": "uint256",
          "name": "_allocPoint",
          "type": "uint256"
        },
        {
          "internalType": "bool",
          "name": "_withUpdate",
          "type": "bool"
        }
      ],
      "name": "set",
      "outputs": [],
      "stateMutability": "nonpayable",
      "type": "function"
    },
    {
      "inputs": [
        {
          "internalType": "bytes4",
          "name": "interfaceId",
          "type": "bytes4"
        }
      ],
      "name": "supportsInterface",
      "outputs": [
        {
          "internalType": "bool",
          "name": "",
          "type": "bool"
        }
      ],
      "stateMutability": "view",
      "type": "function"
    },
    {
      "inputs": [],
      "name": "totalAllocPoint",
      "outputs": [
        {
          "internalType": "uint256",
          "name": "",
          "type": "uint256"
        }
      ],
      "stateMutability": "view",
      "type": "function"
    },
    {
      "inputs": [
        {
          "internalType": "uint256",
          "name": "kind",
          "type": "uint256"
        },
        {
          "internalType": "address",
          "name": "_address",
          "type": "address"
        }
      ],
      "name": "updateAddress",
      "outputs": [],
      "stateMutability": "nonpayable",
      "type": "function"
    },
    {
      "inputs": [
        {
          "internalType": "uint256",
          "name": "kind",
          "type": "uint256"
        },
        {
          "internalType": "uint256",
          "name": "fee",
          "type": "uint256"
        }
      ],
      "name": "updateDepositFee",
      "outputs": [],
      "stateMutability": "nonpayable",
      "type": "function"
    },
    {
      "inputs": [
        {
          "internalType": "uint256",
          "name": "kind",
          "type": "uint256"
        },
        {
          "internalType": "uint256[]",
          "name": "feeStages",
          "type": "uint256[]"
        }
      ],
      "name": "updateFeeStages",
      "outputs": [],
      "stateMutability": "nonpayable",
      "type": "function"
    },
    {
      "inputs": [
        {
          "internalType": "uint256[]",
          "name": "times",
          "type": "uint256[]"
        }
      ],
      "name": "updateHalvingAtTimes",
      "outputs": [],
      "stateMutability": "nonpayable",
      "type": "function"
    },
    {
      "inputs": [
        {
          "internalType": "uint256",
          "name": "time",
          "type": "uint256"
        }
      ],
      "name": "updateLastRewardTime",
      "outputs": [],
      "stateMutability": "nonpayable",
      "type": "function"
    },
    {
      "inputs": [
        {
          "internalType": "uint256",
          "name": "kind",
          "type": "uint256"
        },
        {
          "internalType": "uint256",
          "name": "percent",
          "type": "uint256"
        }
      ],
      "name": "updateLockPercent",
      "outputs": [],
      "stateMutability": "nonpayable",
      "type": "function"
    },
    {
      "inputs": [
        {
          "internalType": "uint256",
          "name": "_pid",
          "type": "uint256"
        }
      ],
      "name": "updatePool",
      "outputs": [],
      "stateMutability": "nonpayable",
      "type": "function"
    },
    {
      "inputs": [
        {
          "internalType": "uint256[]",
          "name": "multipliers",
          "type": "uint256[]"
        }
      ],
      "name": "updateRewardMultipliers",
      "outputs": [],
      "stateMutability": "nonpayable",
      "type": "function"
    },
    {
      "inputs": [
        {
          "internalType": "uint256",
          "name": "reward",
          "type": "uint256"
        }
      ],
      "name": "updateRewardPerSecond",
      "outputs": [],
      "stateMutability": "nonpayable",
      "type": "function"
    },
    {
      "inputs": [
        {
          "internalType": "uint256",
          "name": "time",
          "type": "uint256"
        }
      ],
      "name": "updateStartTime",
      "outputs": [],
      "stateMutability": "nonpayable",
      "type": "function"
    },
    {
      "inputs": [
        {
          "internalType": "uint256[]",
          "name": "lockPercents",
          "type": "uint256[]"
        }
      ],
      "name": "updateUserLockPercents",
      "outputs": [],
      "stateMutability": "nonpayable",
      "type": "function"
    },
    {
      "inputs": [
        {
          "internalType": "uint256",
          "name": "_pid",
          "type": "uint256"
        }
      ],
      "name": "userDelta",
      "outputs": [
        {
          "internalType": "uint256",
          "name": "",
          "type": "uint256"
        }
      ],
      "stateMutability": "view",
      "type": "function"
    },
    {
      "inputs": [
        {
          "internalType": "uint256",
          "name": "_pid",
          "type": "uint256"
        },
        {
          "internalType": "address",
          "name": "_address",
          "type": "address"
        }
      ],
      "name": "userDeltaOf",
      "outputs": [
        {
          "internalType": "uint256",
          "name": "",
          "type": "uint256"
        }
      ],
      "stateMutability": "view",
      "type": "function"
    },
    {
      "inputs": [
        {
          "internalType": "uint256",
          "name": "",
          "type": "uint256"
        },
        {
          "internalType": "address",
          "name": "",
          "type": "address"
        }
      ],
      "name": "userInfo",
      "outputs": [
        {
          "internalType": "uint256",
          "name": "amount",
          "type": "uint256"
        },
        {
          "internalType": "uint256",
          "name": "rewardDebt",
          "type": "uint256"
        },
        {
          "internalType": "uint256",
          "name": "rewardDebtAtTime",
          "type": "uint256"
        },
        {
          "internalType": "uint256",
          "name": "lastWithdrawTime",
          "type": "uint256"
        },
        {
          "internalType": "uint256",
          "name": "firstDepositTime",
          "type": "uint256"
        },
        {
          "internalType": "uint256",
          "name": "timeDelta",
          "type": "uint256"
        },
        {
          "internalType": "uint256",
          "name": "lastDepositTime",
          "type": "uint256"
        }
      ],
      "stateMutability": "view",
      "type": "function"
    },
    {
      "inputs": [
        {
          "internalType": "uint256",
          "name": "_pid",
          "type": "uint256"
        },
        {
          "internalType": "uint256",
          "name": "_amount",
          "type": "uint256"
        }
      ],
      "name": "withdraw",
      "outputs": [],
      "stateMutability": "nonpayable",
      "type": "function"
    }
  ],
  "bytecode": "0x60806040523480156200001157600080fd5b506200001c62000022565b620000e4565b600054610100900460ff16156200008f5760405162461bcd60e51b815260206004820152602760248201527f496e697469616c697a61626c653a20636f6e747261637420697320696e697469604482015266616c697a696e6760c81b606482015260840160405180910390fd5b60005460ff9081161015620000e2576000805460ff191660ff9081179091556040519081527f7f26b83ff96e1f2b6a682f133852f6798a09c465da95921460cefb38474024989060200160405180910390a15b565b613c2480620000f46000396000f3fe608060405234801561001057600080fd5b50600436106103e65760003560e01c806382386d581161020a578063c35cadbe11610125578063ddaa26ad116100b8578063f491adf711610087578063f491adf714610925578063f92d34a914610938578063f930e7701461094b578063fa0718d91461095e578063ff51a2721461096757600080fd5b8063ddaa26ad146108ed578063e2bbb158146108f6578063ed9bdeda14610909578063f14dab0f1461091257600080fd5b8063cbd258b5116100f4578063cbd258b5146108a5578063d547741f146108c8578063d79c3953146108db578063d9b0d435146108e457600080fd5b8063c35cadbe1461083b578063c6929e531461084e578063c7b6e52514610857578063c8ed76801461086a57600080fd5b80639b963d2a1161019d578063ae169a501161016c578063ae169a50146107ef578063b168268914610802578063b787771614610815578063bd27e3f81461082857600080fd5b80639b963d2a146107ae578063a217fddf146107c1578063a2570bd6146107c9578063a82859c5146107dc57600080fd5b806391d14854116101d957806391d14854146106e357806393f1a40b146106f657806397fd45d91461078857806398969e821461079b57600080fd5b806382386d581461067f578063874feed314610692578063875ad581146106a55780638dbb1e3a146106d057600080fd5b806343628fb4116103055780635eac6239116102985780636461fc8c116102675780636461fc8c1461063357806365cf37711461064657806373a0cb201461065957806375b238fc146106615780637c0c57881461067657600080fd5b80635eac6239146105f25780636066debd14610605578063630b5ba11461061857806364482f791461062057600080fd5b806351eb05a6116102d457806351eb05a6146105b05780635312ea8e146105c357806356407a61146105d65780635643759e146105df57600080fd5b806343628fb414610578578063441a3e70146105815780634abbbd28146105945780634b0cf2061461059d57600080fd5b806317caf6f11161037d5780632f2ff15d1161034c5780632f2ff15d1461052c57806335582e681461053f57806336568abe146105525780634004c8e71461056557600080fd5b806317caf6f1146104db5780631eaaa045146104e3578063248a9ca3146104f65780632ab29df71461051957600080fd5b8063081e3eda116103b9578063081e3eda1461047057806309ae4d2c146104785780630d329fea1461048b5780631526fe271461049e57600080fd5b806301ffc9a7146103eb578063027e69991461041357806303fe46ab1461043457806306bcf02f1461045b575b600080fd5b6103fe6103f9366004613576565b610987565b60405190151581526020015b60405180910390f35b6104266104213660046135a0565b6109be565b60405190815260200161040a565b6104267f364d3d7565c7a8300c96fd53e065d19b65848d7b23b3191adcd55621c744223c81565b61046e6104693660046135a0565b6109df565b005b60d954610426565b6104266104863660046135a0565b6109fd565b61046e610499366004613689565b610a45565b6104b16104ac3660046135a0565b610aeb565b604080516001600160a01b039095168552602085019390935291830152606082015260800161040a565b60d454610426565b61046e6104f1366004613703565b610b2f565b6104266105043660046135a0565b60009081526065602052604090206001015490565b61046e610527366004613745565b610da0565b61046e61053a366004613745565b610e58565b61046e61054d366004613775565b610e7d565b61046e610560366004613745565b610ed1565b61046e6105733660046135a0565b610f4f565b61042660d45481565b61046e61058f366004613775565b610f6d565b61042660dd5481565b6104266105ab3660046135a0565b611498565b61046e6105be3660046135a0565b6114a8565b61046e6105d13660046135a0565b611b1f565b61042660d25481565b61046e6105ed366004613797565b611c77565b61046e6106003660046137cf565b611cdd565b61046e610613366004613797565b611d1d565b61046e611d5f565b61046e61062e366004613804565b611d86565b61046e6106413660046135a0565b611e1e565b61046e6106543660046137cf565b611e3c565b61046e611e67565b610426600080516020613bcf83398151915281565b61042660d15481565b61046e61068d366004613797565b61202c565b6104266106a03660046135a0565b61206e565b60ca546106b8906001600160a01b031681565b6040516001600160a01b03909116815260200161040a565b6104266106de366004613775565b61207e565b6103fe6106f1366004613745565b6121ad565b610753610704366004613745565b60db602052816000526040600020602052806000526040600020600091509150508060000154908060010154908060020154908060030154908060040154908060050154908060060154905087565b604080519788526020880196909652948601939093526060850191909152608084015260a083015260c082015260e00161040a565b61046e610796366004613832565b6121d8565b6104266107a9366004613745565b61240b565b6104266107bc3660046135a0565b61255a565b610426600081565b60cd546106b8906001600160a01b031681565b6104266107ea3660046135a0565b6125bd565b61046e6107fd3660046135a0565b6125cd565b60cb546106b8906001600160a01b031681565b61046e6108233660046137cf565b6125df565b61046e6108363660046137cf565b61260a565b61046e610849366004613775565b612635565b61042660d85481565b610426610865366004613745565b61266b565b61087d610878366004613948565b6126c5565b604080519586526020860194909452928401919091526060830152608082015260a00161040a565b6103fe6108b3366004613974565b60dc6020526000908152604090205460ff1681565b61046e6108d6366004613745565b6128a2565b61042660ce5481565b61042660d75481565b61042660d35481565b61046e610904366004613775565b6128c7565b61042660d55481565b60cc546106b8906001600160a01b031681565b6104266109333660046135a0565b612b10565b60c9546106b8906001600160a01b031681565b610426610959366004613775565b612b20565b61042660d65481565b610426610975366004613974565b60da6020526000908152604090205481565b60006001600160e01b03198216637965db0b60e01b14806109b857506301ffc9a760e01b6001600160e01b03198316145b92915050565b60de81815481106109ce57600080fd5b600091825260209091200154905081565b600080516020613bcf8339815191526109f781612bcf565b5060d355565b600081815260db602090815260408083203384529091528120600381015415610a36576003810154610a2f90426139a7565b9392505050565b6004810154610a2f90426139a7565b600080516020613bcf833981519152610a5d81612bcf565b82600103610a7e578151610a789060cf9060208501906134d6565b50505050565b82600203610a99578151610a789060d09060208501906134d6565b60405162461bcd60e51b815260206004820152601760248201527f496e76616c6964206b696e64206964656e74696669657200000000000000000060448201526064015b60405180910390fd5b505050565b60d98181548110610afb57600080fd5b600091825260209091206004909102018054600182015460028301546003909301546001600160a01b039092169350919084565b600080516020613bcf833981519152610b4781612bcf565b6001600160a01b038316600090815260dc6020526040902054839060ff1615610bc45760405162461bcd60e51b815260206004820152602960248201527f4d6173746572496e766573746f723a3a6e6f6e4475706c6963617465643a20646044820152681d5c1b1a58d85d195960ba1b6064820152608401610add565b6001600160a01b038416600090815260da602052604090205415610c3d5760405162461bcd60e51b815260206004820152602a60248201527f4d6173746572496e766573746f723a3a6164643a206c7020697320616c726561604482015269191e481a5b881c1bdbdb60b21b6064820152608401610add565b8215610c4b57610c4b611d5f565b600060d3544211610c5e5760d354610c60565b425b90508560d46000828254610c7491906139ba565b909155505060d954610c879060016139ba565b6001600160a01b03958616600081815260da602090815260408083209490945560dc81528382208054600160ff1990911681179091558451608081018652938452908301998a529282019384526060820181815260d98054948501815590915290517fcc6782fd46dd71c5f512301ab049782450b4eaf79fdac5443d93d274d3916786600490930292830180546001600160a01b031916919098161790965595517fcc6782fd46dd71c5f512301ab049782450b4eaf79fdac5443d93d274d3916787870155517fcc6782fd46dd71c5f512301ab049782450b4eaf79fdac5443d93d274d3916788860155505090517fcc6782fd46dd71c5f512301ab049782450b4eaf79fdac5443d93d274d39167899092019190915550565b600080516020613bcf833981519152610db881612bcf565b82600103610de05760ca80546001600160a01b0319166001600160a01b038416179055505050565b82600203610e085760cb80546001600160a01b0319166001600160a01b038416179055505050565b82600303610e305760cc80546001600160a01b0319166001600160a01b038416179055505050565b82600403610a995760cd80546001600160a01b0319166001600160a01b038416179055505050565b600082815260656020526040902060010154610e7381612bcf565b610ae68383612bd9565b600080516020613bcf833981519152610e9581612bcf565b82600103610ea4575060d55550565b82600203610eb3575060d65550565b82600303610ec2575060d75550565b82600403610a99575060d85550565b6001600160a01b0381163314610f415760405162461bcd60e51b815260206004820152602f60248201527f416363657373436f6e74726f6c3a2063616e206f6e6c792072656e6f756e636560448201526e103937b632b9903337b91039b2b63360891b6064820152608401610add565b610f4b8282612c5f565b5050565b600080516020613bcf833981519152610f6781612bcf565b5060ce55565b610f75612cc6565b600060d98381548110610f8a57610f8a6139cd565b6000918252602080832086845260db90915260408320600490920201925081610fb03390565b6001600160a01b03166001600160a01b03168152602001908152602001600020905082816000015410156110315760405162461bcd60e51b815260206004820152602260248201527f4d6173746572496e766573746f723a3a77697468647261773a206e6f7420676f6044820152611bd960f21b6064820152608401610add565b61103a846114a8565b61104384612d1f565b821561148c578281600001600082825461105d91906139a7565b909155505060038101541561108557600381015461107b90426139a7565b600582015561109a565b600481015461109490426139a7565b60058201555b60068101548390600090420361111f57606460cf6000815481106110c0576110c06139cd565b9060005260206000200154866110d691906139e3565b6110e091906139fa565b9150606460d06000815481106110f8576110f86139cd565b90600052602060002001548661110e91906139e3565b61111891906139fa565b90506113f3565b60018360050154101580156111395750610e108360050154105b1561118c57606460cf600181548110611154576111546139cd565b90600052602060002001548661116a91906139e3565b61117491906139fa565b9150606460d06001815481106110f8576110f86139cd565b610e108360050154101580156111a85750620151808360050154105b156111fb57606460cf6002815481106111c3576111c36139cd565b9060005260206000200154866111d991906139e3565b6111e391906139fa565b9150606460d06002815481106110f8576110f86139cd565b6201518083600501541015801561121857506203f4808360050154105b1561126b57606460cf600381548110611233576112336139cd565b90600052602060002001548661124991906139e3565b61125391906139fa565b9150606460d06003815481106110f8576110f86139cd565b6203f4808360050154101580156112885750620697808360050154105b156112db57606460cf6004815481106112a3576112a36139cd565b9060005260206000200154866112b991906139e3565b6112c391906139fa565b9150606460d06004815481106110f8576110f86139cd565b620697808360050154101580156112f85750621275008360050154105b1561134d576103e860cf600581548110611314576113146139cd565b90600052602060002001548661132a91906139e3565b61133491906139fa565b91506103e860d06005815481106110f8576110f86139cd565b6212750083600501541015801561136a57506224ea008360050154105b156113865761271060d06006815481106110f8576110f86139cd565b6224ea008360050154106113ab5761271060d06007815481106110f8576110f86139cd565b60405162461bcd60e51b815260206004820152601860248201527f536f6d657468696e6720697320766572792062726f6b656e00000000000000006044820152606401610add565b61140a335b85546001600160a01b03169084612d29565b60ca548454611426916001600160a01b03918216911683612d29565b6003840154835464e8d4a510009161143d916139e3565b61144791906139fa565b6001840155604051858152869033907ff279e6a1f5e320cca91135676d9cb6e44ca8a08c0b88342bcdb1144f6511b5689060200160405180910390a350504260038201555b5050610f4b6001609755565b60cf81815481106109ce57600080fd5b600060d982815481106114bd576114bd6139cd565b90600052602060002090600402019050806002015442116114dc575050565b80546040516370a0823160e01b81523060048201526000916001600160a01b0316906370a0823190602401602060405180830381865afa158015611524573d6000803e3d6000fd5b505050506040513d601f19601f820116820180604052508101906115489190613a1c565b905080158061155957506001820154155b1561156957504260029091015550565b600080600080600061158487600201544289600101546126c5565b60c9546040516340c10f1960e01b8152959a50939850919650945092506001600160a01b0316906340c10f19906115c19030908890600401613a35565b600060405180830381600087803b1580156115db57600080fd5b505af11580156115ef573d6000803e3d6000fd5b50505050858464e8d4a5100061160591906139e3565b61160f91906139fa565b87600301600082825461162291906139ba565b9091555050426002880155841561176757600060dd5442111561164657600061165d565b606461165387604b6139e3565b61165d91906139fa565b9050600060dd544211156116715786611688565b606461167e8860196139e3565b61168891906139fa565b60c95460ca546040516340c10f1960e01b81529293506001600160a01b03918216926340c10f19926116c09216908590600401613a35565b600060405180830381600087803b1580156116da57600080fd5b505af11580156116ee573d6000803e3d6000fd5b5050505060008211156117645760c95460ca546040516340c10f1960e01b81526001600160a01b03928316926340c10f1992611731929116908690600401613a35565b600060405180830381600087803b15801561174b57600080fd5b505af115801561175f573d6000803e3d6000fd5b505050505b50505b82156118a157600060dd54421115611780576000611797565b606461178d85602d6139e3565b61179791906139fa565b9050600060dd544211156117ab57846117c2565b60646117b88660376139e3565b6117c291906139fa565b60c95460cb546040516340c10f1960e01b81529293506001600160a01b03918216926340c10f19926117fa9216908590600401613a35565b600060405180830381600087803b15801561181457600080fd5b505af1158015611828573d6000803e3d6000fd5b50505050600082111561189e5760c95460cb546040516340c10f1960e01b81526001600160a01b03928316926340c10f199261186b929116908690600401613a35565b600060405180830381600087803b15801561188557600080fd5b505af1158015611899573d6000803e3d6000fd5b505050505b50505b81156119db57600060dd544211156118ba5760006118d1565b60646118c78460556139e3565b6118d191906139fa565b9050600060dd544211156118e557836118fc565b60646118f285600f6139e3565b6118fc91906139fa565b60c95460cc546040516340c10f1960e01b81529293506001600160a01b03918216926340c10f19926119349216908590600401613a35565b600060405180830381600087803b15801561194e57600080fd5b505af1158015611962573d6000803e3d6000fd5b5050505060008211156119d85760c95460cc546040516340c10f1960e01b81526001600160a01b03928316926340c10f19926119a5929116908690600401613a35565b600060405180830381600087803b1580156119bf57600080fd5b505af11580156119d3573d6000803e3d6000fd5b505050505b50505b8015611b1557600060dd544211156119f4576000611a0b565b6064611a0183605f6139e3565b611a0b91906139fa565b9050600060dd54421115611a1f5782611a36565b6064611a2c8460056139e3565b611a3691906139fa565b60c95460cd546040516340c10f1960e01b81529293506001600160a01b03918216926340c10f1992611a6e9216908590600401613a35565b600060405180830381600087803b158015611a8857600080fd5b505af1158015611a9c573d6000803e3d6000fd5b505050506000821115611b125760c95460cd546040516340c10f1960e01b81526001600160a01b03928316926340c10f1992611adf929116908690600401613a35565b600060405180830381600087803b158015611af957600080fd5b505af1158015611b0d573d6000803e3d6000fd5b505050505b50505b5050505050505050565b611b27612cc6565b600060d98281548110611b3c57611b3c6139cd565b6000918252602080832085845260db90915260408320600490920201925081611b623390565b6001600160a01b03166001600160a01b0316815260200190815260200160002090506000606460cf600081548110611b9c57611b9c6139cd565b90600052602060002001548360000154611bb691906139e3565b611bc091906139fa565b90506000606460d0600081548110611bda57611bda6139cd565b90600052602060002001548460000154611bf491906139e3565b611bfe91906139fa565b600080855560018501559050611c13336113f8565b60ca548454611c2f916001600160a01b03918216911683612d29565b604051828152859033907fbb757047c2b5f3974fe26b7c10f732e7bce710b0952a71082702781e62ae05959060200160405180910390a350505050611c746001609755565b50565b600080516020613bcf833981519152611c8f81612bcf565b600060d98581548110611ca457611ca46139cd565b600091825260209091206004909102018054909150611ccd906001600160a01b03168585612d29565b611cd6856114a8565b5050505050565b60005b8151811015610f4b57611d0b828281518110611cfe57611cfe6139cd565b60200260200101516125cd565b80611d1581613a4e565b915050611ce0565b600080516020613bcf833981519152611d3581612bcf565b50600092835260db602090815260408085206001600160a01b039094168552929052912060030155565b60d95460005b81811015610f4b57611d76816114a8565b611d7f81613a4e565b9050611d65565b600080516020613bcf833981519152611d9e81612bcf565b8115611dac57611dac611d5f565b8260d98581548110611dc057611dc06139cd565b90600052602060002090600402016001015460d454611ddf91906139a7565b611de991906139ba565b60d4819055508260d98581548110611e0357611e036139cd565b90600052602060002090600402016001018190555050505050565b600080516020613bcf833981519152611e3681612bcf565b5060dd55565b600080516020613bcf833981519152611e5481612bcf565b8151610ae69060e09060208501906134d6565b600080516020613bcf833981519152611e7f81612bcf565b6040805161012081018252600180825260208201819052918101829052606081018290526080810182905260a0810182905260c0810182905260e08101829052610100810191909152611ed69060df906009613521565b50604080516101208101825260118152600f6020820152600d91810191909152600b6060820152600960808201819052600760a0830152600560c0830152600360e0808401919091526001610100840152611f32929091613521565b5062093a8060005b60df54611f49906001906139a7565b811015611fc65760d354600090611f618360016139ba565b611f6b90856139e3565b611f7591906139ba565b611f809060016139ba565b60de80546001810182556000919091527ffae8130c0619f84b4b44f01b84806f04e82e536d70e05f2356977fa318aecc1a01555080611fbe81613a4e565b915050611f3a565b5060d35460df54611fd9906001906139a7565b611fe390836139e3565b611fed91906139ba565b60dd55505060de80546001810182556000919091526000197ffae8130c0619f84b4b44f01b84806f04e82e536d70e05f2356977fa318aecc1a90910155565b600080516020613bcf83398151915261204481612bcf565b50600092835260db602090815260408085206001600160a01b039094168552929052912060040155565b60df81815481106109ce57600080fd5b60d35460009081908410156120975760009150506109b8565b60005b60de548110156121a557600060de82815481106120b9576120b96139cd565b90600052602060002001549050600160df805490506120d891906139a7565b8211156120eb57600093505050506109b8565b80851161213f57600060df8381548110612107576121076139cd565b9060005260206000200154878761211e91906139a7565b61212891906139e3565b905061213481856139ba565b9450505050506109b8565b8086101561219257600060df838154811061215c5761215c6139cd565b9060005260206000200154878361217391906139a7565b61217d91906139e3565b9050819650808461218e91906139ba565b9350505b508061219d81613a4e565b91505061209a565b509392505050565b60009182526065602090815260408084206001600160a01b0393909316845291905290205460ff1690565b600054610100900460ff16158080156121f85750600054600160ff909116105b806122125750303b158015612212575060005460ff166001145b6122755760405162461bcd60e51b815260206004820152602e60248201527f496e697469616c697a61626c653a20636f6e747261637420697320616c72656160448201526d191e481a5b9a5d1a585b1a5e995960921b6064820152608401610add565b6000805460ff191660011790558015612298576000805461ff0019166101001790555b6122a0612d86565b6122a8612daf565b6122b3600033612bd9565b6122cb600080516020613bcf83398151915233612bd9565b6122f57f364d3d7565c7a8300c96fd53e065d19b65848d7b23b3191adcd55621c744223c33612bd9565b610120820151805161230f9160cf916020909101906134d6565b50610140820151805161232a9160d0916020909101906134d6565b50815160c980546001600160a01b03199081166001600160a01b0393841617909155602084015160ce55604084015160d355606084015160d155608084015160d25560a084015160ca8054831691841691909117905560c084015160cb8054831691841691909117905560e084015160cc8054831691841691909117905561010084015160cd80549092169216919091179055600060d4558015610f4b576000805461ff0019169055604051600181527f7f26b83ff96e1f2b6a682f133852f6798a09c465da95921460cefb38474024989060200160405180910390a15050565b60008060d98481548110612421576124216139cd565b6000918252602080832087845260db825260408085206001600160a01b038981168752935280852060049485029092016003810154815492516370a0823160e01b8152309681019690965290965091949193919216906370a0823190602401602060405180830381865afa15801561249d573d6000803e3d6000fd5b505050506040513d601f19601f820116820180604052508101906124c19190613a1c565b90508360020154421180156124d65750600081115b156125225760006124f085600201544287600101546126c5565b5091935084925061250a915083905064e8d4a510006139e3565b61251491906139fa565b61251e90846139ba565b9250505b6001830154835464e8d4a510009061253b9085906139e3565b61254591906139fa565b61254f91906139a7565b979650505050505050565b60008061257161256b6001426139a7565b4261207e565b905060d45460d98481548110612589576125896139cd565b90600052602060002090600402016001015460ce54836125a991906139e3565b6125b391906139e3565b610a2f91906139fa565b60e081815481106109ce57600080fd5b6125d6816114a8565b611c7481612d1f565b600080516020613bcf8339815191526125f781612bcf565b8151610ae69060de9060208501906134d6565b600080516020613bcf83398151915261262281612bcf565b8151610ae69060df9060208501906134d6565b600080516020613bcf83398151915261264d81612bcf565b8260010361265c575060d15550565b82600203610a99575060d25550565b600082815260db602090815260408083206001600160a01b038516845290915281206003810154156126ae5760038101546126a690426139a7565b9150506109b8565b60048101546126bd90426139a7565b949350505050565b6000806000806000806126d8898961207e565b9050600060d4548860ce54846126ee91906139e3565b6126f891906139e3565b61270291906139fa565b9050600060c960009054906101000a90046001600160a01b03166001600160a01b03166318160ddd6040518163ffffffff1660e01b8152600401602060405180830381865afa158015612759573d6000803e3d6000fd5b505050506040513d601f19601f8201168201806040525081019061277d9190613a1c565b60c960009054906101000a90046001600160a01b03166001600160a01b031663355274ea6040518163ffffffff1660e01b8152600401602060405180830381865afa1580156127d0573d6000803e3d6000fd5b505050506040513d601f19601f820116820180604052508101906127f49190613a1c565b6127fe91906139a7565b9050818110156128205760009750809650600095506000945060009350612894565b606460d5548361283091906139e3565b61283a91906139fa565b9750819650606460d6548361284f91906139e3565b61285991906139fa565b9550606460d7548361286b91906139e3565b61287591906139fa565b9450606460d8548361288791906139e3565b61289191906139fa565b93505b505050939792965093509350565b6000828152606560205260409020600101546128bd81612bcf565b610ae68383612c5f565b6128cf612cc6565b6000811161293e5760405162461bcd60e51b815260206004820152603660248201527f4d6173746572496e766573746f723a3a6465706f7369743a20616d6f756e742060448201527506d7573742062652067726561746572207468616e20360541b6064820152608401610add565b600060d98381548110612953576129536139cd565b6000918252602080832086845260db909152604083206004909202019250816129793390565b6001600160a01b0390811682526020808301939093526040918201600090812088825260db855283822060ca5490931682529190935291209091506129bd856114a8565b6129c685612d1f565b6129dd3384546001600160a01b0316903087612dde565b81546000036129ed574260028301555b61271060d154856129fe91906139e3565b612a0891906139fa565b612a1290856139a7565b826000016000828254612a2591906139ba565b90915550506003830154825464e8d4a5100091612a41916139e3565b612a4b91906139fa565b600183015560d25461271090612a6190866139e3565b612a6b91906139fa565b612a7590856139a7565b816000016000828254612a8891906139ba565b90915550506003830154815464e8d4a5100091612aa4916139e3565b612aae91906139fa565b6001820155604051848152859033907f90890809c654f11d6e72a28fa60149770a0d11ec6c92319d6ceb2bb0a4ea1a159060200160405180910390a36000826004015411612afd574260048301555b504260069091015550610f4b6001609755565b60d081815481106109ce57600080fd5b60d3546000908190841015612b395760649150506109b8565b60005b60de548110156121a557600060de8281548110612b5b57612b5b6139cd565b90600052602060002001549050600160e080549050612b7a91906139a7565b821115612b8d57600093505050506109b8565b808511612bbc5760e08281548110612ba757612ba76139cd565b906000526020600020015493505050506109b8565b5080612bc781613a4e565b915050612b3c565b611c748133612e16565b612be382826121ad565b610f4b5760008281526065602090815260408083206001600160a01b03851684529091529020805460ff19166001179055612c1b3390565b6001600160a01b0316816001600160a01b0316837f2f8788117e7eff1d82e926ec794901d17c78024a50270940304540a733656f0d60405160405180910390a45050565b612c6982826121ad565b15610f4b5760008281526065602090815260408083206001600160a01b0385168085529252808320805460ff1916905551339285917ff6391f5c32d9c69d2a47ea670b442974b53935d1edc7fd64eb21e047a839171b9190a45050565b600260975403612d185760405162461bcd60e51b815260206004820152601f60248201527f5265656e7472616e637947756172643a207265656e7472616e742063616c6c006044820152606401610add565b6002609755565b611c748133612e6f565b610ae68363a9059cbb60e01b8484604051602401612d48929190613a35565b60408051601f198184030181529190526020810180516001600160e01b03166001600160e01b03199093169290921790915261311c565b6001609755565b600054610100900460ff16612dad5760405162461bcd60e51b8152600401610add90613a67565b565b600054610100900460ff16612dd65760405162461bcd60e51b8152600401610add90613a67565b612dad6131ee565b6040516001600160a01b0380851660248301528316604482015260648101829052610a789085906323b872dd60e01b90608401612d48565b612e2082826121ad565b610f4b57612e2d81613215565b612e38836020613227565b604051602001612e49929190613ad6565b60408051601f198184030181529082905262461bcd60e51b8252610add91600401613b4b565b600060d98381548110612e8457612e846139cd565b6000918252602080832086845260db825260408085206001600160a01b0388168652909252922080546004909202909201925015610a78576000816001015464e8d4a5100084600301548460000154612edd91906139e3565b612ee791906139fa565b612ef191906139a7565b60c9546040516370a0823160e01b81523060048201529192506000916001600160a01b03909116906370a0823190602401602060405180830381865afa158015612f3f573d6000803e3d6000fd5b505050506040513d601f19601f82011682018060405250810190612f639190613a1c565b905080821115612f71578091505b81156130ee57600060dd54846002015411612fb8576000612f9c612f966001426139a7565b42612b20565b90506064612faa82866139e3565b612fb491906139fa565b9150505b60c9546001600160a01b031663a9059cbb87612fd484876139a7565b6040518363ffffffff1660e01b8152600401612ff1929190613a35565b6020604051808303816000875af1158015613010573d6000803e3d6000fd5b505050506040513d601f19601f820116820180604052508101906130349190613b7e565b5080156130a05760c9546040516340c10f1960e01b81526001600160a01b03909116906340c10f199061306d9089908590600401613a35565b600060405180830381600087803b15801561308757600080fd5b505af115801561309b573d6000803e3d6000fd5b505050505b426002850155604080518481526020810183905288916001600160a01b038916917f3887f2857beaaf367eb618dfb5e22c1ebd74425affb0602c2e9fe126e3f860eb910160405180910390a3505b6003840154835464e8d4a5100091613105916139e3565b61310f91906139fa565b6001840155505050505050565b6000613171826040518060400160405280602081526020017f5361666545524332303a206c6f772d6c6576656c2063616c6c206661696c6564815250856001600160a01b03166133c39092919063ffffffff16565b805190915015610ae6578080602001905181019061318f9190613b7e565b610ae65760405162461bcd60e51b815260206004820152602a60248201527f5361666545524332303a204552433230206f7065726174696f6e20646964206e6044820152691bdd081cdd58d8d9595960b21b6064820152608401610add565b600054610100900460ff16612d7f5760405162461bcd60e51b8152600401610add90613a67565b60606109b86001600160a01b03831660145b606060006132368360026139e3565b6132419060026139ba565b67ffffffffffffffff811115613259576132596135b9565b6040519080825280601f01601f191660200182016040528015613283576020820181803683370190505b509050600360fc1b8160008151811061329e5761329e6139cd565b60200101906001600160f81b031916908160001a905350600f60fb1b816001815181106132cd576132cd6139cd565b60200101906001600160f81b031916908160001a90535060006132f18460026139e3565b6132fc9060016139ba565b90505b6001811115613374576f181899199a1a9b1b9c1cb0b131b232b360811b85600f1660108110613330576133306139cd565b1a60f81b828281518110613346576133466139cd565b60200101906001600160f81b031916908160001a90535060049490941c9361336d81613b9b565b90506132ff565b508315610a2f5760405162461bcd60e51b815260206004820181905260248201527f537472696e67733a20686578206c656e67746820696e73756666696369656e746044820152606401610add565b60606126bd848460008585600080866001600160a01b031685876040516133ea9190613bb2565b60006040518083038185875af1925050503d8060008114613427576040519150601f19603f3d011682016040523d82523d6000602084013e61342c565b606091505b509150915061254f87838387606083156134a75782516000036134a0576001600160a01b0385163b6134a05760405162461bcd60e51b815260206004820152601d60248201527f416464726573733a2063616c6c20746f206e6f6e2d636f6e74726163740000006044820152606401610add565b50816126bd565b6126bd83838151156134bc5781518083602001fd5b8060405162461bcd60e51b8152600401610add9190613b4b565b828054828255906000526020600020908101928215613511579160200282015b828111156135115782518255916020019190600101906134f6565b5061351d929150613561565b5090565b828054828255906000526020600020908101928215613511579160200282015b82811115613511578251829060ff16905591602001919060010190613541565b5b8082111561351d5760008155600101613562565b60006020828403121561358857600080fd5b81356001600160e01b031981168114610a2f57600080fd5b6000602082840312156135b257600080fd5b5035919050565b634e487b7160e01b600052604160045260246000fd5b604051610160810167ffffffffffffffff811182821017156135f3576135f36135b9565b60405290565b600082601f83011261360a57600080fd5b8135602067ffffffffffffffff80831115613627576136276135b9565b8260051b604051601f19603f8301168101818110848211171561364c5761364c6135b9565b60405293845285810183019383810192508785111561366a57600080fd5b83870191505b8482101561254f57813583529183019190830190613670565b6000806040838503121561369c57600080fd5b82359150602083013567ffffffffffffffff8111156136ba57600080fd5b6136c6858286016135f9565b9150509250929050565b6001600160a01b0381168114611c7457600080fd5b80356136f0816136d0565b919050565b8015158114611c7457600080fd5b60008060006060848603121561371857600080fd5b83359250602084013561372a816136d0565b9150604084013561373a816136f5565b809150509250925092565b6000806040838503121561375857600080fd5b82359150602083013561376a816136d0565b809150509250929050565b6000806040838503121561378857600080fd5b50508035926020909101359150565b6000806000606084860312156137ac57600080fd5b8335925060208401356137be816136d0565b929592945050506040919091013590565b6000602082840312156137e157600080fd5b813567ffffffffffffffff8111156137f857600080fd5b6126bd848285016135f9565b60008060006060848603121561381957600080fd5b8335925060208401359150604084013561373a816136f5565b60006020828403121561384457600080fd5b813567ffffffffffffffff8082111561385c57600080fd5b90830190610160828603121561387157600080fd5b6138796135cf565b613882836136e5565b8152602083013560208201526040830135604082015260608301356060820152608083013560808201526138b860a084016136e5565b60a08201526138c960c084016136e5565b60c08201526138da60e084016136e5565b60e08201526101006138ed8185016136e5565b90820152610120838101358381111561390557600080fd5b613911888287016135f9565b828401525050610140808401358381111561392b57600080fd5b613937888287016135f9565b918301919091525095945050505050565b60008060006060848603121561395d57600080fd5b505081359360208301359350604090920135919050565b60006020828403121561398657600080fd5b8135610a2f816136d0565b634e487b7160e01b600052601160045260246000fd5b818103818111156109b8576109b8613991565b808201808211156109b8576109b8613991565b634e487b7160e01b600052603260045260246000fd5b80820281158282048414176109b8576109b8613991565b600082613a1757634e487b7160e01b600052601260045260246000fd5b500490565b600060208284031215613a2e57600080fd5b5051919050565b6001600160a01b03929092168252602082015260400190565b600060018201613a6057613a60613991565b5060010190565b6020808252602b908201527f496e697469616c697a61626c653a20636f6e7472616374206973206e6f74206960408201526a6e697469616c697a696e6760a81b606082015260800190565b60005b83811015613acd578181015183820152602001613ab5565b50506000910152565b7f416363657373436f6e74726f6c3a206163636f756e7420000000000000000000815260008351613b0e816017850160208801613ab2565b7001034b99036b4b9b9b4b733903937b6329607d1b6017918401918201528351613b3f816028840160208801613ab2565b01602801949350505050565b6020815260008251806020840152613b6a816040850160208701613ab2565b601f01601f19169190910160400192915050565b600060208284031215613b9057600080fd5b8151610a2f816136f5565b600081613baa57613baa613991565b506000190190565b60008251613bc4818460208701613ab2565b919091019291505056fea49807205ce4d355092ef5a8a18f56e8913cf4a201fbe287825b095693c21775a26469706673582212201cb4b9f9c45fb404da7e25a0c9e29d3e8725c3cf44679cc08701249f903c1af364736f6c63430008110033",
  "linkReferences": {},
  "deployedLinkReferences": {}
}