{
  "_format": "hh-sol-artifact-1",
  "contractName": "ERC1155",
  "sourceName": "contracts/marketplace/ERC1155.sol",
  "abi": [
    {
      "anonymous": false,
      "inputs": [
        {
          "indexed": true,
          "internalType": "address",
          "name": "account",
          "type": "address"
        },
        {
          "indexed": true,
          "internalType": "address",
          "name": "operator",
          "type": "address"
        },
        {
          "indexed": false,
          "internalType": "bool",
          "name": "approved",
          "type": "bool"
        }
      ],
      "name": "ApprovalForAll",
      "type": "event"
    },
    {
      "anonymous": false,
      "inputs": [
        {
          "indexed": false,
          "internalType": "uint8",
          "name": "version",
          "type": "uint8"
        }
      ],
      "name": "Initialized",
      "type": "event"
    },
    {
      "anonymous": false,
      "inputs": [
        {
          "indexed": true,
          "internalType": "address",
          "name": "previousOwner",
          "type": "address"
        },
        {
          "indexed": true,
          "internalType": "address",
          "name": "newOwner",
          "type": "address"
        }
      ],
      "name": "OwnershipTransferred",
      "type": "event"
    },
    {
      "anonymous": false,
      "inputs": [
        {
          "indexed": true,
          "internalType": "address",
          "name": "operator",
          "type": "address"
        },
        {
          "indexed": true,
          "internalType": "address",
          "name": "from",
          "type": "address"
        },
        {
          "indexed": true,
          "internalType": "address",
          "name": "to",
          "type": "address"
        },
        {
          "indexed": false,
          "internalType": "uint256[]",
          "name": "ids",
          "type": "uint256[]"
        },
        {
          "indexed": false,
          "internalType": "uint256[]",
          "name": "values",
          "type": "uint256[]"
        }
      ],
      "name": "TransferBatch",
      "type": "event"
    },
    {
      "anonymous": false,
      "inputs": [
        {
          "indexed": true,
          "internalType": "address",
          "name": "operator",
          "type": "address"
        },
        {
          "indexed": true,
          "internalType": "address",
          "name": "from",
          "type": "address"
        },
        {
          "indexed": true,
          "internalType": "address",
          "name": "to",
          "type": "address"
        },
        {
          "indexed": false,
          "internalType": "uint256",
          "name": "id",
          "type": "uint256"
        },
        {
          "indexed": false,
          "internalType": "uint256",
          "name": "value",
          "type": "uint256"
        }
      ],
      "name": "TransferSingle",
      "type": "event"
    },
    {
      "anonymous": false,
      "inputs": [
        {
          "indexed": false,
          "internalType": "string",
          "name": "value",
          "type": "string"
        },
        {
          "indexed": true,
          "internalType": "uint256",
          "name": "id",
          "type": "uint256"
        }
      ],
      "name": "URI",
      "type": "event"
    },
    {
      "inputs": [
        {
          "internalType": "address",
          "name": "account",
          "type": "address"
        },
        {
          "internalType": "uint256",
          "name": "id",
          "type": "uint256"
        }
      ],
      "name": "balanceOf",
      "outputs": [
        {
          "internalType": "uint256",
          "name": "",
          "type": "uint256"
        }
      ],
      "stateMutability": "view",
      "type": "function"
    },
    {
      "inputs": [
        {
          "internalType": "address[]",
          "name": "accounts",
          "type": "address[]"
        },
        {
          "internalType": "uint256[]",
          "name": "ids",
          "type": "uint256[]"
        }
      ],
      "name": "balanceOfBatch",
      "outputs": [
        {
          "internalType": "uint256[]",
          "name": "",
          "type": "uint256[]"
        }
      ],
      "stateMutability": "view",
      "type": "function"
    },
    {
      "inputs": [
        {
          "internalType": "uint256[]",
          "name": "ids",
          "type": "uint256[]"
        },
        {
          "internalType": "uint256[]",
          "name": "amounts",
          "type": "uint256[]"
        }
      ],
      "name": "batchMint",
      "outputs": [],
      "stateMutability": "nonpayable",
      "type": "function"
    },
    {
      "inputs": [],
      "name": "initialize",
      "outputs": [],
      "stateMutability": "nonpayable",
      "type": "function"
    },
    {
      "inputs": [
        {
          "internalType": "address",
          "name": "account",
          "type": "address"
        },
        {
          "internalType": "address",
          "name": "operator",
          "type": "address"
        }
      ],
      "name": "isApprovedForAll",
      "outputs": [
        {
          "internalType": "bool",
          "name": "",
          "type": "bool"
        }
      ],
      "stateMutability": "view",
      "type": "function"
    },
    {
      "inputs": [],
      "name": "owner",
      "outputs": [
        {
          "internalType": "address",
          "name": "",
          "type": "address"
        }
      ],
      "stateMutability": "view",
      "type": "function"
    },
    {
      "inputs": [],
      "name": "renounceOwnership",
      "outputs": [],
      "stateMutability": "nonpayable",
      "type": "function"
    },
    {
      "inputs": [
        {
          "internalType": "address",
          "name": "from",
          "type": "address"
        },
        {
          "internalType": "address",
          "name": "to",
          "type": "address"
        },
        {
          "internalType": "uint256[]",
          "name": "ids",
          "type": "uint256[]"
        },
        {
          "internalType": "uint256[]",
          "name": "amounts",
          "type": "uint256[]"
        },
        {
          "internalType": "bytes",
          "name": "data",
          "type": "bytes"
        }
      ],
      "name": "safeBatchTransferFrom",
      "outputs": [],
      "stateMutability": "nonpayable",
      "type": "function"
    },
    {
      "inputs": [
        {
          "internalType": "address",
          "name": "from",
          "type": "address"
        },
        {
          "internalType": "address",
          "name": "to",
          "type": "address"
        },
        {
          "internalType": "uint256",
          "name": "id",
          "type": "uint256"
        },
        {
          "internalType": "uint256",
          "name": "amount",
          "type": "uint256"
        },
        {
          "internalType": "bytes",
          "name": "data",
          "type": "bytes"
        }
      ],
      "name": "safeTransferFrom",
      "outputs": [],
      "stateMutability": "nonpayable",
      "type": "function"
    },
    {
      "inputs": [
        {
          "internalType": "address",
          "name": "operator",
          "type": "address"
        },
        {
          "internalType": "bool",
          "name": "approved",
          "type": "bool"
        }
      ],
      "name": "setApprovalForAll",
      "outputs": [],
      "stateMutability": "nonpayable",
      "type": "function"
    },
    {
      "inputs": [
        {
          "internalType": "bytes4",
          "name": "interfaceId",
          "type": "bytes4"
        }
      ],
      "name": "supportsInterface",
      "outputs": [
        {
          "internalType": "bool",
          "name": "",
          "type": "bool"
        }
      ],
      "stateMutability": "view",
      "type": "function"
    },
    {
      "inputs": [
        {
          "internalType": "address",
          "name": "newOwner",
          "type": "address"
        }
      ],
      "name": "transferOwnership",
      "outputs": [],
      "stateMutability": "nonpayable",
      "type": "function"
    },
    {
      "inputs": [
        {
          "internalType": "uint256",
          "name": "",
          "type": "uint256"
        }
      ],
      "name": "uri",
      "outputs": [
        {
          "internalType": "string",
          "name": "",
          "type": "string"
        }
      ],
      "stateMutability": "view",
      "type": "function"
    }
  ],
  "bytecode": "0x608060405234801561001057600080fd5b50611a72806100206000396000f3fe608060405234801561001057600080fd5b50600436106100ce5760003560e01c8063715018a61161008c578063a22cb46511610066578063a22cb465146101af578063e985e9c5146101c2578063f242432a146101fe578063f2fde38b1461021157600080fd5b8063715018a6146101845780638129fc1c1461018c5780638da5cb5b1461019457600080fd5b8062fdd58e146100d357806301ffc9a7146100f95780630e89341c1461011c5780632eb2c2d61461013c5780634e1273f414610151578063688d223214610171575b600080fd5b6100e66100e136600461112d565b610224565b6040519081526020015b60405180910390f35b61010c61010736600461116d565b6102bc565b60405190151581526020016100f0565b61012f61012a366004611191565b61030e565b6040516100f091906111f7565b61014f61014a366004611356565b6103a2565b005b61016461015f366004611400565b6103ee565b6040516100f09190611506565b61014f61017f366004611519565b610518565b61014f61053f565b61014f610553565b6033546040516001600160a01b0390911681526020016100f0565b61014f6101bd366004611566565b61067c565b61010c6101d03660046115a2565b6001600160a01b03918216600090815260986020908152604080832093909416825291909152205460ff1690565b61014f61020c3660046115d5565b610687565b61014f61021f36600461163a565b6106cc565b60006001600160a01b0383166102945760405162461bcd60e51b815260206004820152602a60248201527f455243313135353a2061646472657373207a65726f206973206e6f742061207660448201526930b634b21037bbb732b960b11b60648201526084015b60405180910390fd5b5060009081526097602090815260408083206001600160a01b03949094168352929052205490565b60006001600160e01b03198216636cdb3d1360e11b14806102ed57506001600160e01b031982166303a24d0760e21b145b8061030857506301ffc9a760e01b6001600160e01b03198316145b92915050565b60606099805461031d90611655565b80601f016020809104026020016040519081016040528092919081815260200182805461034990611655565b80156103965780601f1061036b57610100808354040283529160200191610396565b820191906000526020600020905b81548152906001019060200180831161037957829003601f168201915b50505050509050919050565b6001600160a01b0385163314806103be57506103be85336101d0565b6103da5760405162461bcd60e51b815260040161028b90611690565b6103e78585858585610742565b5050505050565b606081518351146104535760405162461bcd60e51b815260206004820152602960248201527f455243313135353a206163636f756e747320616e6420696473206c656e677468604482015268040dad2e6dac2e8c6d60bb1b606482015260840161028b565b6000835167ffffffffffffffff81111561046f5761046f61120a565b604051908082528060200260200182016040528015610498578160200160208202803683370190505b50905060005b8451811015610510576104e38582815181106104bc576104bc6116df565b60200260200101518583815181106104d6576104d66116df565b6020026020010151610224565b8282815181106104f5576104f56116df565b60209081029190910101526105098161170b565b905061049e565b509392505050565b6105206108e1565b61053b3383836040518060200160405280600081525061093b565b5050565b6105476108e1565b6105516000610ac1565b565b600054610100900460ff16158080156105735750600054600160ff909116105b8061058d5750303b15801561058d575060005460ff166001145b6105f05760405162461bcd60e51b815260206004820152602e60248201527f496e697469616c697a61626c653a20636f6e747261637420697320616c72656160448201526d191e481a5b9a5d1a585b1a5e995960921b606482015260840161028b565b6000805460ff191660011790558015610613576000805461ff0019166101001790555b61061b610b13565b61063360405180602001604052806000815250610b42565b8015610679576000805461ff0019169055604051600181527f7f26b83ff96e1f2b6a682f133852f6798a09c465da95921460cefb38474024989060200160405180910390a15b50565b61053b338383610b72565b6001600160a01b0385163314806106a357506106a385336101d0565b6106bf5760405162461bcd60e51b815260040161028b90611690565b6103e78585858585610c53565b6106d46108e1565b6001600160a01b0381166107395760405162461bcd60e51b815260206004820152602660248201527f4f776e61626c653a206e6577206f776e657220697320746865207a65726f206160448201526564647265737360d01b606482015260840161028b565b61067981610ac1565b81518351146107635760405162461bcd60e51b815260040161028b90611726565b6001600160a01b0384166107895760405162461bcd60e51b815260040161028b9061176e565b3360005b84518110156108735760008582815181106107aa576107aa6116df565b6020026020010151905060008583815181106107c8576107c86116df565b60209081029190910181015160008481526097835260408082206001600160a01b038e1683529093529190912054909150818110156108195760405162461bcd60e51b815260040161028b906117b3565b60008381526097602090815260408083206001600160a01b038e8116855292528083208585039055908b168252812080548492906108589084906117fd565b925050819055505050508061086c9061170b565b905061078d565b50846001600160a01b0316866001600160a01b0316826001600160a01b03167f4a39dc06d4c0dbc64b70af90fd698a233a518aa5d07e595d983b8c0526c8f7fb87876040516108c3929190611815565b60405180910390a46108d9818787878787610d81565b505050505050565b6033546001600160a01b031633146105515760405162461bcd60e51b815260206004820181905260248201527f4f776e61626c653a2063616c6c6572206973206e6f7420746865206f776e6572604482015260640161028b565b6001600160a01b03841661099b5760405162461bcd60e51b815260206004820152602160248201527f455243313135353a206d696e7420746f20746865207a65726f206164647265736044820152607360f81b606482015260840161028b565b81518351146109bc5760405162461bcd60e51b815260040161028b90611726565b3360005b8451811015610a59578381815181106109db576109db6116df565b6020026020010151609760008784815181106109f9576109f96116df565b602002602001015181526020019081526020016000206000886001600160a01b03166001600160a01b031681526020019081526020016000206000828254610a4191906117fd565b90915550819050610a518161170b565b9150506109c0565b50846001600160a01b031660006001600160a01b0316826001600160a01b03167f4a39dc06d4c0dbc64b70af90fd698a233a518aa5d07e595d983b8c0526c8f7fb8787604051610aaa929190611815565b60405180910390a46103e781600087878787610d81565b603380546001600160a01b038381166001600160a01b0319831681179093556040519116919082907f8be0079c531659141344cd1fd0a4f28419497f9722a3daafe3b4186f6b6457e090600090a35050565b600054610100900460ff16610b3a5760405162461bcd60e51b815260040161028b90611843565b610551610ef5565b600054610100900460ff16610b695760405162461bcd60e51b815260040161028b90611843565b61067981610f25565b816001600160a01b0316836001600160a01b03161415610be65760405162461bcd60e51b815260206004820152602960248201527f455243313135353a2073657474696e6720617070726f76616c20737461747573604482015268103337b91039b2b63360b91b606482015260840161028b565b6001600160a01b03838116600081815260986020908152604080832094871680845294825291829020805460ff191686151590811790915591519182527f17307eab39ab6107e8899845ad3d59bd9653f200f220920489ca2b5937696c31910160405180910390a3505050565b6001600160a01b038416610c795760405162461bcd60e51b815260040161028b9061176e565b336000610c8585610f55565b90506000610c9285610f55565b905060008681526097602090815260408083206001600160a01b038c16845290915290205485811015610cd75760405162461bcd60e51b815260040161028b906117b3565b60008781526097602090815260408083206001600160a01b038d8116855292528083208985039055908a16825281208054889290610d169084906117fd565b909155505060408051888152602081018890526001600160a01b03808b16928c821692918816917fc3d58168c5ae7397731d063d5bbf3d657854427343f4c083240f7aacaa2d0f62910160405180910390a4610d76848a8a8a8a8a610fa0565b505050505050505050565b6001600160a01b0384163b156108d95760405163bc197c8160e01b81526001600160a01b0385169063bc197c8190610dc5908990899088908890889060040161188e565b602060405180830381600087803b158015610ddf57600080fd5b505af1925050508015610e0f575060408051601f3d908101601f19168201909252610e0c918101906118ec565b60015b610ebc57610e1b611909565b806308c379a01415610e555750610e30611925565b80610e3b5750610e57565b8060405162461bcd60e51b815260040161028b91906111f7565b505b60405162461bcd60e51b815260206004820152603460248201527f455243313135353a207472616e7366657220746f206e6f6e20455243313135356044820152732932b1b2b4bb32b91034b6b83632b6b2b73a32b960611b606482015260840161028b565b6001600160e01b0319811663bc197c8160e01b14610eec5760405162461bcd60e51b815260040161028b906119af565b50505050505050565b600054610100900460ff16610f1c5760405162461bcd60e51b815260040161028b90611843565b61055133610ac1565b600054610100900460ff16610f4c5760405162461bcd60e51b815260040161028b90611843565b6106798161106a565b60408051600180825281830190925260609160009190602080830190803683370190505090508281600081518110610f8f57610f8f6116df565b602090810291909101015292915050565b6001600160a01b0384163b156108d95760405163f23a6e6160e01b81526001600160a01b0385169063f23a6e6190610fe490899089908890889088906004016119f7565b602060405180830381600087803b158015610ffe57600080fd5b505af192505050801561102e575060408051601f3d908101601f1916820190925261102b918101906118ec565b60015b61103a57610e1b611909565b6001600160e01b0319811663f23a6e6160e01b14610eec5760405162461bcd60e51b815260040161028b906119af565b805161053b90609990602084019082805461108490611655565b90600052602060002090601f0160209004810192826110a657600085556110ec565b82601f106110bf57805160ff19168380011785556110ec565b828001600101855582156110ec579182015b828111156110ec5782518255916020019190600101906110d1565b506110f89291506110fc565b5090565b5b808211156110f857600081556001016110fd565b80356001600160a01b038116811461112857600080fd5b919050565b6000806040838503121561114057600080fd5b61114983611111565b946020939093013593505050565b6001600160e01b03198116811461067957600080fd5b60006020828403121561117f57600080fd5b813561118a81611157565b9392505050565b6000602082840312156111a357600080fd5b5035919050565b6000815180845260005b818110156111d0576020818501810151868301820152016111b4565b818111156111e2576000602083870101525b50601f01601f19169290920160200192915050565b60208152600061118a60208301846111aa565b634e487b7160e01b600052604160045260246000fd5b601f8201601f1916810167ffffffffffffffff811182821017156112465761124661120a565b6040525050565b600067ffffffffffffffff8211156112675761126761120a565b5060051b60200190565b600082601f83011261128257600080fd5b8135602061128f8261124d565b60405161129c8282611220565b83815260059390931b85018201928281019150868411156112bc57600080fd5b8286015b848110156112d757803583529183019183016112c0565b509695505050505050565b600082601f8301126112f357600080fd5b813567ffffffffffffffff81111561130d5761130d61120a565b604051611324601f8301601f191660200182611220565b81815284602083860101111561133957600080fd5b816020850160208301376000918101602001919091529392505050565b600080600080600060a0868803121561136e57600080fd5b61137786611111565b945061138560208701611111565b9350604086013567ffffffffffffffff808211156113a257600080fd5b6113ae89838a01611271565b945060608801359150808211156113c457600080fd5b6113d089838a01611271565b935060808801359150808211156113e657600080fd5b506113f3888289016112e2565b9150509295509295909350565b6000806040838503121561141357600080fd5b823567ffffffffffffffff8082111561142b57600080fd5b818501915085601f83011261143f57600080fd5b8135602061144c8261124d565b6040516114598282611220565b83815260059390931b850182019282810191508984111561147957600080fd5b948201945b8386101561149e5761148f86611111565b8252948201949082019061147e565b965050860135925050808211156114b457600080fd5b506114c185828601611271565b9150509250929050565b600081518084526020808501945080840160005b838110156114fb578151875295820195908201906001016114df565b509495945050505050565b60208152600061118a60208301846114cb565b6000806040838503121561152c57600080fd5b823567ffffffffffffffff8082111561154457600080fd5b61155086838701611271565b935060208501359150808211156114b457600080fd5b6000806040838503121561157957600080fd5b61158283611111565b91506020830135801515811461159757600080fd5b809150509250929050565b600080604083850312156115b557600080fd5b6115be83611111565b91506115cc60208401611111565b90509250929050565b600080600080600060a086880312156115ed57600080fd5b6115f686611111565b945061160460208701611111565b93506040860135925060608601359150608086013567ffffffffffffffff81111561162e57600080fd5b6113f3888289016112e2565b60006020828403121561164c57600080fd5b61118a82611111565b600181811c9082168061166957607f821691505b6020821081141561168a57634e487b7160e01b600052602260045260246000fd5b50919050565b6020808252602f908201527f455243313135353a2063616c6c6572206973206e6f7420746f6b656e206f776e60408201526e195c881b9bdc88185c1c1c9bdd9959608a1b606082015260800190565b634e487b7160e01b600052603260045260246000fd5b634e487b7160e01b600052601160045260246000fd5b600060001982141561171f5761171f6116f5565b5060010190565b60208082526028908201527f455243313135353a2069647320616e6420616d6f756e7473206c656e677468206040820152670dad2e6dac2e8c6d60c31b606082015260800190565b60208082526025908201527f455243313135353a207472616e7366657220746f20746865207a65726f206164604082015264647265737360d81b606082015260800190565b6020808252602a908201527f455243313135353a20696e73756666696369656e742062616c616e636520666f60408201526939103a3930b739b332b960b11b606082015260800190565b60008219821115611810576118106116f5565b500190565b60408152600061182860408301856114cb565b828103602084015261183a81856114cb565b95945050505050565b6020808252602b908201527f496e697469616c697a61626c653a20636f6e7472616374206973206e6f74206960408201526a6e697469616c697a696e6760a81b606082015260800190565b6001600160a01b0386811682528516602082015260a0604082018190526000906118ba908301866114cb565b82810360608401526118cc81866114cb565b905082810360808401526118e081856111aa565b98975050505050505050565b6000602082840312156118fe57600080fd5b815161118a81611157565b600060033d11156119225760046000803e5060005160e01c5b90565b600060443d10156119335790565b6040516003193d81016004833e81513d67ffffffffffffffff816024840111818411171561196357505050505090565b828501915081518181111561197b5750505050505090565b843d87010160208285010111156119955750505050505090565b6119a460208286010187611220565b509095945050505050565b60208082526028908201527f455243313135353a204552433131353552656365697665722072656a656374656040820152676420746f6b656e7360c01b606082015260800190565b6001600160a01b03868116825285166020820152604081018490526060810183905260a060808201819052600090611a31908301846111aa565b97965050505050505056fea26469706673582212204100aca31b353e4485c69bb2ac3a012fbb6414d917e0919ca4c684d1a3df72ba64736f6c63430008090033",
  "linkReferences": {},
  "deployedLinkReferences": {}
}