{
  "_format": "hh-sol-artifact-1",
  "contractName": "CosmicWizards3D",
  "sourceName": "contracts/static/ERC721/CosmicWizards3D.sol",
  "abi": [
    {
      "inputs": [],
      "stateMutability": "nonpayable",
      "type": "constructor"
    },
    {
      "anonymous": false,
      "inputs": [
        {
          "indexed": true,
          "internalType": "address",
          "name": "owner",
          "type": "address"
        },
        {
          "indexed": true,
          "internalType": "address",
          "name": "approved",
          "type": "address"
        },
        {
          "indexed": true,
          "internalType": "uint256",
          "name": "tokenId",
          "type": "uint256"
        }
      ],
      "name": "Approval",
      "type": "event"
    },
    {
      "anonymous": false,
      "inputs": [
        {
          "indexed": true,
          "internalType": "address",
          "name": "owner",
          "type": "address"
        },
        {
          "indexed": true,
          "internalType": "address",
          "name": "operator",
          "type": "address"
        },
        {
          "indexed": false,
          "internalType": "bool",
          "name": "approved",
          "type": "bool"
        }
      ],
      "name": "ApprovalForAll",
      "type": "event"
    },
    {
      "anonymous": false,
      "inputs": [
        {
          "indexed": false,
          "internalType": "address",
          "name": "account",
          "type": "address"
        }
      ],
      "name": "Paused",
      "type": "event"
    },
    {
      "anonymous": false,
      "inputs": [
        {
          "indexed": true,
          "internalType": "bytes32",
          "name": "role",
          "type": "bytes32"
        },
        {
          "indexed": true,
          "internalType": "bytes32",
          "name": "previousAdminRole",
          "type": "bytes32"
        },
        {
          "indexed": true,
          "internalType": "bytes32",
          "name": "newAdminRole",
          "type": "bytes32"
        }
      ],
      "name": "RoleAdminChanged",
      "type": "event"
    },
    {
      "anonymous": false,
      "inputs": [
        {
          "indexed": true,
          "internalType": "bytes32",
          "name": "role",
          "type": "bytes32"
        },
        {
          "indexed": true,
          "internalType": "address",
          "name": "account",
          "type": "address"
        },
        {
          "indexed": true,
          "internalType": "address",
          "name": "sender",
          "type": "address"
        }
      ],
      "name": "RoleGranted",
      "type": "event"
    },
    {
      "anonymous": false,
      "inputs": [
        {
          "indexed": true,
          "internalType": "bytes32",
          "name": "role",
          "type": "bytes32"
        },
        {
          "indexed": true,
          "internalType": "address",
          "name": "account",
          "type": "address"
        },
        {
          "indexed": true,
          "internalType": "address",
          "name": "sender",
          "type": "address"
        }
      ],
      "name": "RoleRevoked",
      "type": "event"
    },
    {
      "anonymous": false,
      "inputs": [
        {
          "indexed": true,
          "internalType": "address",
          "name": "from",
          "type": "address"
        },
        {
          "indexed": true,
          "internalType": "address",
          "name": "to",
          "type": "address"
        },
        {
          "indexed": true,
          "internalType": "uint256",
          "name": "tokenId",
          "type": "uint256"
        }
      ],
      "name": "Transfer",
      "type": "event"
    },
    {
      "anonymous": false,
      "inputs": [
        {
          "indexed": false,
          "internalType": "address",
          "name": "account",
          "type": "address"
        }
      ],
      "name": "Unpaused",
      "type": "event"
    },
    {
      "inputs": [],
      "name": "ADMIN_ROLE",
      "outputs": [
        {
          "internalType": "bytes32",
          "name": "",
          "type": "bytes32"
        }
      ],
      "stateMutability": "view",
      "type": "function"
    },
    {
      "inputs": [],
      "name": "DEFAULT_ADMIN_ROLE",
      "outputs": [
        {
          "internalType": "bytes32",
          "name": "",
          "type": "bytes32"
        }
      ],
      "stateMutability": "view",
      "type": "function"
    },
    {
      "inputs": [],
      "name": "METADATA_ROLE",
      "outputs": [
        {
          "internalType": "bytes32",
          "name": "",
          "type": "bytes32"
        }
      ],
      "stateMutability": "view",
      "type": "function"
    },
    {
      "inputs": [],
      "name": "PAUSER_ROLE",
      "outputs": [
        {
          "internalType": "bytes32",
          "name": "",
          "type": "bytes32"
        }
      ],
      "stateMutability": "view",
      "type": "function"
    },
    {
      "inputs": [
        {
          "internalType": "address",
          "name": "to",
          "type": "address"
        },
        {
          "internalType": "uint256",
          "name": "tokenId",
          "type": "uint256"
        }
      ],
      "name": "approve",
      "outputs": [],
      "stateMutability": "nonpayable",
      "type": "function"
    },
    {
      "inputs": [
        {
          "internalType": "address",
          "name": "owner",
          "type": "address"
        }
      ],
      "name": "balanceOf",
      "outputs": [
        {
          "internalType": "uint256",
          "name": "",
          "type": "uint256"
        }
      ],
      "stateMutability": "view",
      "type": "function"
    },
    {
      "inputs": [
        {
          "internalType": "uint256",
          "name": "tokenId",
          "type": "uint256"
        }
      ],
      "name": "burn",
      "outputs": [],
      "stateMutability": "nonpayable",
      "type": "function"
    },
    {
      "inputs": [],
      "name": "burnable",
      "outputs": [
        {
          "internalType": "uint256",
          "name": "",
          "type": "uint256"
        }
      ],
      "stateMutability": "view",
      "type": "function"
    },
    {
      "inputs": [
        {
          "internalType": "uint256",
          "name": "",
          "type": "uint256"
        }
      ],
      "name": "burned",
      "outputs": [
        {
          "internalType": "uint256",
          "name": "",
          "type": "uint256"
        }
      ],
      "stateMutability": "view",
      "type": "function"
    },
    {
      "inputs": [
        {
          "internalType": "uint256",
          "name": "tokenId",
          "type": "uint256"
        }
      ],
      "name": "getApproved",
      "outputs": [
        {
          "internalType": "address",
          "name": "",
          "type": "address"
        }
      ],
      "stateMutability": "view",
      "type": "function"
    },
    {
      "inputs": [
        {
          "internalType": "bytes32",
          "name": "role",
          "type": "bytes32"
        }
      ],
      "name": "getRoleAdmin",
      "outputs": [
        {
          "internalType": "bytes32",
          "name": "",
          "type": "bytes32"
        }
      ],
      "stateMutability": "view",
      "type": "function"
    },
    {
      "inputs": [
        {
          "internalType": "bytes32",
          "name": "role",
          "type": "bytes32"
        },
        {
          "internalType": "address",
          "name": "account",
          "type": "address"
        }
      ],
      "name": "grantRole",
      "outputs": [],
      "stateMutability": "nonpayable",
      "type": "function"
    },
    {
      "inputs": [
        {
          "internalType": "bytes32",
          "name": "role",
          "type": "bytes32"
        },
        {
          "internalType": "address",
          "name": "account",
          "type": "address"
        }
      ],
      "name": "hasRole",
      "outputs": [
        {
          "internalType": "bool",
          "name": "",
          "type": "bool"
        }
      ],
      "stateMutability": "view",
      "type": "function"
    },
    {
      "inputs": [
        {
          "internalType": "address",
          "name": "owner",
          "type": "address"
        },
        {
          "internalType": "address",
          "name": "operator",
          "type": "address"
        }
      ],
      "name": "isApprovedForAll",
      "outputs": [
        {
          "internalType": "bool",
          "name": "",
          "type": "bool"
        }
      ],
      "stateMutability": "view",
      "type": "function"
    },
    {
      "inputs": [],
      "name": "name",
      "outputs": [
        {
          "internalType": "string",
          "name": "",
          "type": "string"
        }
      ],
      "stateMutability": "view",
      "type": "function"
    },
    {
      "inputs": [
        {
          "internalType": "uint256",
          "name": "tokenId",
          "type": "uint256"
        }
      ],
      "name": "ownerOf",
      "outputs": [
        {
          "internalType": "address",
          "name": "",
          "type": "address"
        }
      ],
      "stateMutability": "view",
      "type": "function"
    },
    {
      "inputs": [],
      "name": "pause",
      "outputs": [],
      "stateMutability": "nonpayable",
      "type": "function"
    },
    {
      "inputs": [],
      "name": "paused",
      "outputs": [
        {
          "internalType": "bool",
          "name": "",
          "type": "bool"
        }
      ],
      "stateMutability": "view",
      "type": "function"
    },
    {
      "inputs": [
        {
          "internalType": "bytes32",
          "name": "role",
          "type": "bytes32"
        },
        {
          "internalType": "address",
          "name": "account",
          "type": "address"
        }
      ],
      "name": "renounceRole",
      "outputs": [],
      "stateMutability": "nonpayable",
      "type": "function"
    },
    {
      "inputs": [
        {
          "internalType": "bytes32",
          "name": "role",
          "type": "bytes32"
        },
        {
          "internalType": "address",
          "name": "account",
          "type": "address"
        }
      ],
      "name": "revokeRole",
      "outputs": [],
      "stateMutability": "nonpayable",
      "type": "function"
    },
    {
      "inputs": [
        {
          "internalType": "address",
          "name": "from",
          "type": "address"
        },
        {
          "internalType": "address",
          "name": "to",
          "type": "address"
        },
        {
          "internalType": "uint256",
          "name": "tokenId",
          "type": "uint256"
        }
      ],
      "name": "safeTransferFrom",
      "outputs": [],
      "stateMutability": "nonpayable",
      "type": "function"
    },
    {
      "inputs": [
        {
          "internalType": "address",
          "name": "from",
          "type": "address"
        },
        {
          "internalType": "address",
          "name": "to",
          "type": "address"
        },
        {
          "internalType": "uint256",
          "name": "tokenId",
          "type": "uint256"
        },
        {
          "internalType": "bytes",
          "name": "data",
          "type": "bytes"
        }
      ],
      "name": "safeTransferFrom",
      "outputs": [],
      "stateMutability": "nonpayable",
      "type": "function"
    },
    {
      "inputs": [
        {
          "internalType": "address",
          "name": "operator",
          "type": "address"
        },
        {
          "internalType": "bool",
          "name": "approved",
          "type": "bool"
        }
      ],
      "name": "setApprovalForAll",
      "outputs": [],
      "stateMutability": "nonpayable",
      "type": "function"
    },
    {
      "inputs": [
        {
          "internalType": "string",
          "name": "baseURI",
          "type": "string"
        }
      ],
      "name": "setBaseURI",
      "outputs": [],
      "stateMutability": "nonpayable",
      "type": "function"
    },
    {
      "inputs": [
        {
          "internalType": "uint256",
          "name": "state",
          "type": "uint256"
        }
      ],
      "name": "setBurnable",
      "outputs": [],
      "stateMutability": "nonpayable",
      "type": "function"
    },
    {
      "inputs": [
        {
          "internalType": "uint256",
          "name": "tokenId",
          "type": "uint256"
        },
        {
          "internalType": "string",
          "name": "_tokenURI",
          "type": "string"
        }
      ],
      "name": "setTokenURI",
      "outputs": [],
      "stateMutability": "nonpayable",
      "type": "function"
    },
    {
      "inputs": [
        {
          "internalType": "bytes4",
          "name": "interfaceId",
          "type": "bytes4"
        }
      ],
      "name": "supportsInterface",
      "outputs": [
        {
          "internalType": "bool",
          "name": "",
          "type": "bool"
        }
      ],
      "stateMutability": "view",
      "type": "function"
    },
    {
      "inputs": [],
      "name": "symbol",
      "outputs": [
        {
          "internalType": "string",
          "name": "",
          "type": "string"
        }
      ],
      "stateMutability": "view",
      "type": "function"
    },
    {
      "inputs": [
        {
          "internalType": "uint256",
          "name": "index",
          "type": "uint256"
        }
      ],
      "name": "tokenByIndex",
      "outputs": [
        {
          "internalType": "uint256",
          "name": "",
          "type": "uint256"
        }
      ],
      "stateMutability": "view",
      "type": "function"
    },
    {
      "inputs": [
        {
          "internalType": "address",
          "name": "owner",
          "type": "address"
        },
        {
          "internalType": "uint256",
          "name": "index",
          "type": "uint256"
        }
      ],
      "name": "tokenOfOwnerByIndex",
      "outputs": [
        {
          "internalType": "uint256",
          "name": "",
          "type": "uint256"
        }
      ],
      "stateMutability": "view",
      "type": "function"
    },
    {
      "inputs": [
        {
          "internalType": "uint256",
          "name": "tokenId",
          "type": "uint256"
        }
      ],
      "name": "tokenURI",
      "outputs": [
        {
          "internalType": "string",
          "name": "",
          "type": "string"
        }
      ],
      "stateMutability": "view",
      "type": "function"
    },
    {
      "inputs": [],
      "name": "totalSupply",
      "outputs": [
        {
          "internalType": "uint256",
          "name": "",
          "type": "uint256"
        }
      ],
      "stateMutability": "view",
      "type": "function"
    },
    {
      "inputs": [
        {
          "internalType": "address",
          "name": "from",
          "type": "address"
        },
        {
          "internalType": "address",
          "name": "to",
          "type": "address"
        },
        {
          "internalType": "uint256",
          "name": "tokenId",
          "type": "uint256"
        }
      ],
      "name": "transferFrom",
      "outputs": [],
      "stateMutability": "nonpayable",
      "type": "function"
    },
    {
      "inputs": [],
      "name": "unpause",
      "outputs": [],
      "stateMutability": "nonpayable",
      "type": "function"
    },
    {
      "inputs": [
        {
          "internalType": "uint256[]",
          "name": "tokenIds",
          "type": "uint256[]"
        }
      ],
      "name": "upgrade2DWizards",
      "outputs": [],
      "stateMutability": "nonpayable",
      "type": "function"
    }
  ],
  "bytecode": "0x60806040526000600f553480156200001657600080fd5b506040518060400160405280601181526020017010dbdcdb5a58c815da5e985c991cc80cd1607a1b8152506040518060400160405280600981526020016815d25690549114ccd160ba1b8152508160009081620000749190620002dd565b506001620000838282620002dd565b5050600b805460ff19169055506200009d60003362000148565b620000b86000805160206200303d8339815191523362000148565b620000d36000805160206200301d8339815191523362000148565b620000fd6000805160206200301d8339815191526000805160206200303d833981519152620001ed565b6200011860008051602062002ffd8339815191523362000148565b6200014260008051602062002ffd8339815191526000805160206200303d833981519152620001ed565b620003a9565b6000828152600c602090815260408083206001600160a01b038516845290915290205460ff16620001e9576000828152600c602090815260408083206001600160a01b03851684529091529020805460ff19166001179055620001a83390565b6001600160a01b0316816001600160a01b0316837f2f8788117e7eff1d82e926ec794901d17c78024a50270940304540a733656f0d60405160405180910390a45b5050565b6000828152600c6020526040808220600101805490849055905190918391839186917fbd79b86ffe0ab8e8776151514217cd7cacd52c909f66475c3af44e129f0b00ff9190a4505050565b634e487b7160e01b600052604160045260246000fd5b600181811c908216806200026357607f821691505b6020821081036200028457634e487b7160e01b600052602260045260246000fd5b50919050565b601f821115620002d857600081815260208120601f850160051c81016020861015620002b35750805b601f850160051c820191505b81811015620002d457828155600101620002bf565b5050505b505050565b81516001600160401b03811115620002f957620002f962000238565b62000311816200030a84546200024e565b846200028a565b602080601f831160018114620003495760008415620003305750858301515b600019600386901b1c1916600185901b178555620002d4565b600085815260208120601f198616915b828110156200037a5788860151825594840194600190910190840162000359565b5085821015620003995787850151600019600388901b60f8161c191681555b5050505050600190811b01905550565b612c4480620003b96000396000f3fe608060405234801561001057600080fd5b50600436106102115760003560e01c806355f804b311610125578063a07c7ce4116100ad578063b88d4fde1161007c578063b88d4fde1461047a578063c87b56dd1461048d578063d547741f146104a0578063e63ab1e9146104b3578063e985e9c5146104da57600080fd5b8063a07c7ce414610443578063a217fddf1461044c578063a22cb46514610454578063aeb9326c1461046757600080fd5b806370a08231116100f457806370a08231146103e657806375b238fc146103f95780638456cb591461042057806391d148541461042857806395d89b411461043b57600080fd5b806355f804b3146103a257806356b8180f146103b55780635c975abb146103c85780636352211e146103d357600080fd5b8063248a9ca3116101a85780633884178211610177578063388417821461033a5780633f4ba83a1461036157806342842e0e1461036957806342966c681461037c5780634f6ccce71461038f57600080fd5b8063248a9ca3146102de5780632f2ff15d146103015780632f745c591461031457806336568abe1461032757600080fd5b8063162094c4116101e4578063162094c41461029357806318160ddd146102a657806323250cae146102b857806323b872dd146102cb57600080fd5b806301ffc9a71461021657806306fdde031461023e578063081812fc14610253578063095ea7b31461027e575b600080fd5b6102296102243660046123c8565b610516565b60405190151581526020015b60405180910390f35b610246610527565b6040516102359190612435565b610266610261366004612448565b6105b9565b6040516001600160a01b039091168152602001610235565b61029161028c366004612476565b6105e0565b005b6102916102a1366004612561565b6106fa565b6008545b604051908152602001610235565b6102aa6102c6366004612448565b61072e565b6102916102d93660046125a8565b61074f565b6102aa6102ec366004612448565b6000908152600c602052604090206001015490565b61029161030f3660046125e9565b610781565b6102aa610322366004612476565b6107a6565b6102916103353660046125e9565b61083c565b6102aa7f6bd6b5318a46e5fff572d5e4258a20774aab40cc35ac7680654b9081fcc82f8081565b6102916108ba565b6102916103773660046125a8565b6108ef565b61029161038a366004612448565b61090a565b6102aa61039d366004612448565b610991565b6102916103b0366004612619565b610a24565b6102916103c336600461264e565b610a5a565b600b5460ff16610229565b6102666103e1366004612448565b610dd4565b6102aa6103f43660046126f4565b610e34565b6102aa7fa49807205ce4d355092ef5a8a18f56e8913cf4a201fbe287825b095693c2177581565b610291610eba565b6102296104363660046125e9565b610eec565b610246610f17565b6102aa600f5481565b6102aa600081565b61029161046236600461271f565b610f26565b610291610475366004612448565b610f31565b61029161048836600461274d565b610faa565b61024661049b366004612448565b610fe2565b6102916104ae3660046125e9565b610fed565b6102aa7f65d7a28e3265b37a6474929f336521b332c1681b933f6cb9f3376673440d862a81565b6102296104e83660046127cd565b6001600160a01b03918216600090815260056020908152604080832093909416825291909152205460ff1690565b600061052182611012565b92915050565b606060008054610536906127fb565b80601f0160208091040260200160405190810160405280929190818152602001828054610562906127fb565b80156105af5780601f10610584576101008083540402835291602001916105af565b820191906000526020600020905b81548152906001019060200180831161059257829003601f168201915b5050505050905090565b60006105c482611037565b506000908152600460205260409020546001600160a01b031690565b60006105eb82610dd4565b9050806001600160a01b0316836001600160a01b03160361065d5760405162461bcd60e51b815260206004820152602160248201527f4552433732313a20617070726f76616c20746f2063757272656e74206f776e656044820152603960f91b60648201526084015b60405180910390fd5b336001600160a01b0382161480610679575061067981336104e8565b6106eb5760405162461bcd60e51b815260206004820152603d60248201527f4552433732313a20617070726f76652063616c6c6572206973206e6f7420746f60448201527f6b656e206f776e6572206f7220617070726f76656420666f7220616c6c0000006064820152608401610654565b6106f58383611096565b505050565b7f6bd6b5318a46e5fff572d5e4258a20774aab40cc35ac7680654b9081fcc82f8061072481611104565b6106f5838361110e565b600e818154811061073e57600080fd5b600091825260209091200154905081565b61075a335b826111a1565b6107765760405162461bcd60e51b815260040161065490612835565b6106f5838383611220565b6000828152600c602052604090206001015461079c81611104565b6106f58383611391565b60006107b183610e34565b82106108135760405162461bcd60e51b815260206004820152602b60248201527f455243373231456e756d657261626c653a206f776e657220696e646578206f7560448201526a74206f6620626f756e647360a81b6064820152608401610654565b506001600160a01b03919091166000908152600660209081526040808320938352929052205490565b6001600160a01b03811633146108ac5760405162461bcd60e51b815260206004820152602f60248201527f416363657373436f6e74726f6c3a2063616e206f6e6c792072656e6f756e636560448201526e103937b632b9903337b91039b2b63360891b6064820152608401610654565b6108b68282611417565b5050565b7f65d7a28e3265b37a6474929f336521b332c1681b933f6cb9f3376673440d862a6108e481611104565b6108ec61147e565b50565b6106f583838360405180602001604052806000815250610faa565b600f54156109535760405162461bcd60e51b8152602060048201526016602482015275109d5c9b9a5b99c81a5cc81b9bdd08195b98589b195960521b6044820152606401610654565b61095c816114d0565b600e80546001810182556000919091527fbb7b4a454dc3493923482f07822329ed19e8244eff582cc204f8554c3620c3fd0155565b600061099c60085490565b82106109ff5760405162461bcd60e51b815260206004820152602c60248201527f455243373231456e756d657261626c653a20676c6f62616c20696e646578206f60448201526b7574206f6620626f756e647360a01b6064820152608401610654565b60088281548110610a1257610a12612882565b90600052602060002001549050919050565b7f6bd6b5318a46e5fff572d5e4258a20774aab40cc35ac7680654b9081fcc82f80610a4e81611104565b600d6106f583826128e6565b610a626114fe565b7337f47c343bfaf27a52bc1bd468b49d8e5ef89d6763e985e9c5336040516001600160e01b031960e084901b1681526001600160a01b039091166004820152306024820152604401602060405180830381865afa158015610ac7573d6000803e3d6000fd5b505050506040513d601f19601f82011682018060405250810190610aeb91906129a6565b610b485760405162461bcd60e51b815260206004820152602860248201527f436f6e7472616374206d697373696e6720617070726f76616c20666f722032446044820152672057697a6172647360c01b6064820152608401610654565b60005b8151811015610c5257336001600160a01b03167337f47c343bfaf27a52bc1bd468b49d8e5ef89d676001600160a01b0316636352211e848481518110610b9357610b93612882565b60200260200101516040518263ffffffff1660e01b8152600401610bb991815260200190565b602060405180830381865afa158015610bd6573d6000803e3d6000fd5b505050506040513d601f19601f82011682018060405250810190610bfa91906129c3565b6001600160a01b031614610c405760405162461bcd60e51b815260206004820152600d60248201526c26bab9ba1031329037bbb732b960991b6044820152606401610654565b80610c4a816129f6565b915050610b4b565b5060005b81518110156108b6577337f47c343bfaf27a52bc1bd468b49d8e5ef89d676342842e0e336001858581518110610c8e57610c8e612882565b60209081029190910101516040516001600160e01b031960e086901b1681526001600160a01b0393841660048201529290911660248301526044820152606401600060405180830381600087803b158015610ce857600080fd5b505af1158015610cfc573d6000803e3d6000fd5b50505050610d29610d0a3390565b838381518110610d1c57610d1c612882565b6020026020010151611546565b73f22348e477753bc6252237333d9a94b1fce9c1d363a144819433848481518110610d5657610d56612882565b60200260200101516040518363ffffffff1660e01b8152600401610d8f9291906001600160a01b03929092168252602082015260400190565b600060405180830381600087803b158015610da957600080fd5b505af1158015610dbd573d6000803e3d6000fd5b505050508080610dcc906129f6565b915050610c56565b6000818152600260205260408120546001600160a01b0316806105215760405162461bcd60e51b8152602060048201526018602482015277115490cdcc8c4e881a5b9d985b1a59081d1bdad95b88125160421b6044820152606401610654565b60006001600160a01b038216610e9e5760405162461bcd60e51b815260206004820152602960248201527f4552433732313a2061646472657373207a65726f206973206e6f7420612076616044820152683634b21037bbb732b960b91b6064820152608401610654565b506001600160a01b031660009081526003602052604090205490565b7f65d7a28e3265b37a6474929f336521b332c1681b933f6cb9f3376673440d862a610ee481611104565b6108ec611560565b6000918252600c602090815260408084206001600160a01b0393909316845291905290205460ff1690565b606060018054610536906127fb565b6108b633838361159d565b7fa49807205ce4d355092ef5a8a18f56e8913cf4a201fbe287825b095693c21775610f5b81611104565b811580610f685750816001145b610fa45760405162461bcd60e51b815260206004820152600d60248201526c496e76616c696420737461746560981b6044820152606401610654565b50600f55565b610fb433836111a1565b610fd05760405162461bcd60e51b815260040161065490612835565b610fdc8484848461166b565b50505050565b60606105218261169e565b6000828152600c602052604090206001015461100881611104565b6106f58383611417565b60006001600160e01b03198216637965db0b60e01b1480610521575061052182611799565b6000818152600260205260409020546001600160a01b03166108ec5760405162461bcd60e51b8152602060048201526018602482015277115490cdcc8c4e881a5b9d985b1a59081d1bdad95b88125160421b6044820152606401610654565b600081815260046020526040902080546001600160a01b0319166001600160a01b03841690811790915581906110cb82610dd4565b6001600160a01b03167f8c5be1e5ebec7d5bd14f71427d1e84f3dd0314c0f7b2291e5b200ac8c7c3b92560405160405180910390a45050565b6108ec81336117be565b6000828152600260205260409020546001600160a01b03166111895760405162461bcd60e51b815260206004820152602e60248201527f45524337323155524953746f726167653a2055524920736574206f66206e6f6e60448201526d32bc34b9ba32b73a103a37b5b2b760911b6064820152608401610654565b6000828152600a602052604090206106f582826128e6565b6000806111ad83610dd4565b9050806001600160a01b0316846001600160a01b031614806111f457506001600160a01b0380821660009081526005602090815260408083209388168352929052205460ff165b806112185750836001600160a01b031661120d846105b9565b6001600160a01b0316145b949350505050565b826001600160a01b031661123382610dd4565b6001600160a01b0316146112595760405162461bcd60e51b815260040161065490612a0f565b6001600160a01b0382166112bb5760405162461bcd60e51b8152602060048201526024808201527f4552433732313a207472616e7366657220746f20746865207a65726f206164646044820152637265737360e01b6064820152608401610654565b6112c88383836001611817565b826001600160a01b03166112db82610dd4565b6001600160a01b0316146113015760405162461bcd60e51b815260040161065490612a0f565b600081815260046020908152604080832080546001600160a01b03199081169091556001600160a01b0387811680865260038552838620805460001901905590871680865283862080546001019055868652600290945282852080549092168417909155905184937fddf252ad1be2c89b69c2b068fc378daa952ba7f163c4a11628f55a4df523b3ef91a4505050565b61139b8282610eec565b6108b6576000828152600c602090815260408083206001600160a01b03851684529091529020805460ff191660011790556113d33390565b6001600160a01b0316816001600160a01b0316837f2f8788117e7eff1d82e926ec794901d17c78024a50270940304540a733656f0d60405160405180910390a45050565b6114218282610eec565b156108b6576000828152600c602090815260408083206001600160a01b0385168085529252808320805460ff1916905551339285917ff6391f5c32d9c69d2a47ea670b442974b53935d1edc7fd64eb21e047a839171b9190a45050565b61148661182b565b600b805460ff191690557f5db9ee0a495bf2e6ff9c91a7834c1ba4fdd244a5e8aa4e537bd38aeae4b073aa335b6040516001600160a01b03909116815260200160405180910390a1565b6114d933610754565b6114f55760405162461bcd60e51b815260040161065490612835565b6108ec81611874565b600b5460ff16156115445760405162461bcd60e51b815260206004820152601060248201526f14185d5cd8589b194e881c185d5cd95960821b6044820152606401610654565b565b6108b682826040518060200160405280600081525061187d565b6115686114fe565b600b805460ff191660011790557f62e78cea01bee320cd4e420270b5ea74000d11b0c9f74754ebdbfc544b05a2586114b33390565b816001600160a01b0316836001600160a01b0316036115fe5760405162461bcd60e51b815260206004820152601960248201527f4552433732313a20617070726f766520746f2063616c6c6572000000000000006044820152606401610654565b6001600160a01b03838116600081815260056020908152604080832094871680845294825291829020805460ff191686151590811790915591519182527f17307eab39ab6107e8899845ad3d59bd9653f200f220920489ca2b5937696c31910160405180910390a3505050565b611676848484611220565b611682848484846118b0565b610fdc5760405162461bcd60e51b815260040161065490612a54565b60606116a982611037565b6000828152600a6020526040812080546116c2906127fb565b80601f01602080910402602001604051908101604052809291908181526020018280546116ee906127fb565b801561173b5780601f106117105761010080835404028352916020019161173b565b820191906000526020600020905b81548152906001019060200180831161171e57829003601f168201915b50505050509050600061174c6119b1565b9050805160000361175e575092915050565b815115611790578082604051602001611778929190612aa6565b60405160208183030381529060405292505050919050565b611218846119c0565b60006001600160e01b0319821663780e9d6360e01b1480610521575061052182611a27565b6117c88282610eec565b6108b6576117d581611a77565b6117e0836020611a89565b6040516020016117f1929190612ad5565b60408051601f198184030181529082905262461bcd60e51b825261065491600401612435565b61181f6114fe565b610fdc84848484611c25565b600b5460ff166115445760405162461bcd60e51b815260206004820152601460248201527314185d5cd8589b194e881b9bdd081c185d5cd95960621b6044820152606401610654565b6108ec81611d65565b6118878383611da5565b61189460008484846118b0565b6106f55760405162461bcd60e51b815260040161065490612a54565b60006001600160a01b0384163b156119a657604051630a85bd0160e11b81526001600160a01b0385169063150b7a02906118f4903390899088908890600401612b4a565b6020604051808303816000875af192505050801561192f575060408051601f3d908101601f1916820190925261192c91810190612b87565b60015b61198c573d80801561195d576040519150601f19603f3d011682016040523d82523d6000602084013e611962565b606091505b5080516000036119845760405162461bcd60e51b815260040161065490612a54565b805181602001fd5b6001600160e01b031916630a85bd0160e11b149050611218565b506001949350505050565b6060600d8054610536906127fb565b60606119cb82611037565b60006119d56119b1565b905060008151116119f55760405180602001604052806000815250611a20565b806119ff84611f3e565b604051602001611a10929190612aa6565b6040516020818303038152906040525b9392505050565b60006001600160e01b031982166380ac58cd60e01b1480611a5857506001600160e01b03198216635b5e139f60e01b145b8061052157506301ffc9a760e01b6001600160e01b0319831614610521565b60606105216001600160a01b03831660145b60606000611a98836002612ba4565b611aa3906002612bbb565b67ffffffffffffffff811115611abb57611abb6124a2565b6040519080825280601f01601f191660200182016040528015611ae5576020820181803683370190505b509050600360fc1b81600081518110611b0057611b00612882565b60200101906001600160f81b031916908160001a905350600f60fb1b81600181518110611b2f57611b2f612882565b60200101906001600160f81b031916908160001a9053506000611b53846002612ba4565b611b5e906001612bbb565b90505b6001811115611bd6576f181899199a1a9b1b9c1cb0b131b232b360811b85600f1660108110611b9257611b92612882565b1a60f81b828281518110611ba857611ba8612882565b60200101906001600160f81b031916908160001a90535060049490941c93611bcf81612bce565b9050611b61565b508315611a205760405162461bcd60e51b815260206004820181905260248201527f537472696e67733a20686578206c656e67746820696e73756666696369656e746044820152606401610654565b611c3184848484611fd1565b6001811115611ca05760405162461bcd60e51b815260206004820152603560248201527f455243373231456e756d657261626c653a20636f6e7365637574697665207472604482015274185b9cd9995c9cc81b9bdd081cdd5c1c1bdc9d1959605a1b6064820152608401610654565b816001600160a01b038516611cfc57611cf781600880546000838152600960205260408120829055600182018355919091527ff3f7a9fe364faab93b216da50a3214154f22a0a2b415b23a84c8169e8b636ee30155565b611d1f565b836001600160a01b0316856001600160a01b031614611d1f57611d1f8582612059565b6001600160a01b038416611d3b57611d36816120f6565b611d5e565b846001600160a01b0316846001600160a01b031614611d5e57611d5e84826121a5565b5050505050565b611d6e816121e9565b6000818152600a602052604090208054611d87906127fb565b1590506108ec576000818152600a602052604081206108ec91612364565b6001600160a01b038216611dfb5760405162461bcd60e51b815260206004820181905260248201527f4552433732313a206d696e7420746f20746865207a65726f20616464726573736044820152606401610654565b6000818152600260205260409020546001600160a01b031615611e605760405162461bcd60e51b815260206004820152601c60248201527f4552433732313a20746f6b656e20616c7265616479206d696e746564000000006044820152606401610654565b611e6e600083836001611817565b6000818152600260205260409020546001600160a01b031615611ed35760405162461bcd60e51b815260206004820152601c60248201527f4552433732313a20746f6b656e20616c7265616479206d696e746564000000006044820152606401610654565b6001600160a01b038216600081815260036020908152604080832080546001019055848352600290915280822080546001600160a01b0319168417905551839291907fddf252ad1be2c89b69c2b068fc378daa952ba7f163c4a11628f55a4df523b3ef908290a45050565b60606000611f4b8361228c565b600101905060008167ffffffffffffffff811115611f6b57611f6b6124a2565b6040519080825280601f01601f191660200182016040528015611f95576020820181803683370190505b5090508181016020015b600019016f181899199a1a9b1b9c1cb0b131b232b360811b600a86061a8153600a8504945084611f9f57509392505050565b6001811115610fdc576001600160a01b03841615612017576001600160a01b03841660009081526003602052604081208054839290612011908490612be5565b90915550505b6001600160a01b03831615610fdc576001600160a01b0383166000908152600360205260408120805483929061204e908490612bbb565b909155505050505050565b6000600161206684610e34565b6120709190612be5565b6000838152600760205260409020549091508082146120c3576001600160a01b03841660009081526006602090815260408083208584528252808320548484528184208190558352600790915290208190555b5060009182526007602090815260408084208490556001600160a01b039094168352600681528383209183525290812055565b60085460009061210890600190612be5565b6000838152600960205260408120546008805493945090928490811061213057612130612882565b90600052602060002001549050806008838154811061215157612151612882565b600091825260208083209091019290925582815260099091526040808220849055858252812055600880548061218957612189612bf8565b6001900381819060005260206000200160009055905550505050565b60006121b083610e34565b6001600160a01b039093166000908152600660209081526040808320868452825280832085905593825260079052919091209190915550565b60006121f482610dd4565b9050612204816000846001611817565b61220d82610dd4565b600083815260046020908152604080832080546001600160a01b03199081169091556001600160a01b0385168085526003845282852080546000190190558785526002909352818420805490911690555192935084927fddf252ad1be2c89b69c2b068fc378daa952ba7f163c4a11628f55a4df523b3ef908390a45050565b60008072184f03e93ff9f4daa797ed6e38ed64bf6a1f0160401b83106122cb5772184f03e93ff9f4daa797ed6e38ed64bf6a1f0160401b830492506040015b6d04ee2d6d415b85acef810000000083106122f7576d04ee2d6d415b85acef8100000000830492506020015b662386f26fc10000831061231557662386f26fc10000830492506010015b6305f5e100831061232d576305f5e100830492506008015b612710831061234157612710830492506004015b60648310612353576064830492506002015b600a83106105215760010192915050565b508054612370906127fb565b6000825580601f10612380575050565b601f0160209004906000526020600020908101906108ec91905b808211156123ae576000815560010161239a565b5090565b6001600160e01b0319811681146108ec57600080fd5b6000602082840312156123da57600080fd5b8135611a20816123b2565b60005b838110156124005781810151838201526020016123e8565b50506000910152565b600081518084526124218160208601602086016123e5565b601f01601f19169290920160200192915050565b602081526000611a206020830184612409565b60006020828403121561245a57600080fd5b5035919050565b6001600160a01b03811681146108ec57600080fd5b6000806040838503121561248957600080fd5b823561249481612461565b946020939093013593505050565b634e487b7160e01b600052604160045260246000fd5b604051601f8201601f1916810167ffffffffffffffff811182821017156124e1576124e16124a2565b604052919050565b600067ffffffffffffffff831115612503576125036124a2565b612516601f8401601f19166020016124b8565b905082815283838301111561252a57600080fd5b828260208301376000602084830101529392505050565b600082601f83011261255257600080fd5b611a20838335602085016124e9565b6000806040838503121561257457600080fd5b82359150602083013567ffffffffffffffff81111561259257600080fd5b61259e85828601612541565b9150509250929050565b6000806000606084860312156125bd57600080fd5b83356125c881612461565b925060208401356125d881612461565b929592945050506040919091013590565b600080604083850312156125fc57600080fd5b82359150602083013561260e81612461565b809150509250929050565b60006020828403121561262b57600080fd5b813567ffffffffffffffff81111561264257600080fd5b61121884828501612541565b6000602080838503121561266157600080fd5b823567ffffffffffffffff8082111561267957600080fd5b818501915085601f83011261268d57600080fd5b81358181111561269f5761269f6124a2565b8060051b91506126b08483016124b8565b81815291830184019184810190888411156126ca57600080fd5b938501935b838510156126e8578435825293850193908501906126cf565b98975050505050505050565b60006020828403121561270657600080fd5b8135611a2081612461565b80151581146108ec57600080fd5b6000806040838503121561273257600080fd5b823561273d81612461565b9150602083013561260e81612711565b6000806000806080858703121561276357600080fd5b843561276e81612461565b9350602085013561277e81612461565b925060408501359150606085013567ffffffffffffffff8111156127a157600080fd5b8501601f810187136127b257600080fd5b6127c1878235602084016124e9565b91505092959194509250565b600080604083850312156127e057600080fd5b82356127eb81612461565b9150602083013561260e81612461565b600181811c9082168061280f57607f821691505b60208210810361282f57634e487b7160e01b600052602260045260246000fd5b50919050565b6020808252602d908201527f4552433732313a2063616c6c6572206973206e6f7420746f6b656e206f776e6560408201526c1c881bdc88185c1c1c9bdd9959609a1b606082015260800190565b634e487b7160e01b600052603260045260246000fd5b601f8211156106f557600081815260208120601f850160051c810160208610156128bf5750805b601f850160051c820191505b818110156128de578281556001016128cb565b505050505050565b815167ffffffffffffffff811115612900576129006124a2565b6129148161290e84546127fb565b84612898565b602080601f83116001811461294957600084156129315750858301515b600019600386901b1c1916600185901b1785556128de565b600085815260208120601f198616915b8281101561297857888601518255948401946001909101908401612959565b50858210156129965787850151600019600388901b60f8161c191681555b5050505050600190811b01905550565b6000602082840312156129b857600080fd5b8151611a2081612711565b6000602082840312156129d557600080fd5b8151611a2081612461565b634e487b7160e01b600052601160045260246000fd5b600060018201612a0857612a086129e0565b5060010190565b60208082526025908201527f4552433732313a207472616e736665722066726f6d20696e636f72726563742060408201526437bbb732b960d91b606082015260800190565b60208082526032908201527f4552433732313a207472616e7366657220746f206e6f6e20455243373231526560408201527131b2b4bb32b91034b6b83632b6b2b73a32b960711b606082015260800190565b60008351612ab88184602088016123e5565b835190830190612acc8183602088016123e5565b01949350505050565b7f416363657373436f6e74726f6c3a206163636f756e7420000000000000000000815260008351612b0d8160178501602088016123e5565b7001034b99036b4b9b9b4b733903937b6329607d1b6017918401918201528351612b3e8160288401602088016123e5565b01602801949350505050565b6001600160a01b0385811682528416602082015260408101839052608060608201819052600090612b7d90830184612409565b9695505050505050565b600060208284031215612b9957600080fd5b8151611a20816123b2565b8082028115828204841417610521576105216129e0565b80820180821115610521576105216129e0565b600081612bdd57612bdd6129e0565b506000190190565b81810381811115610521576105216129e0565b634e487b7160e01b600052603160045260246000fdfea26469706673582212201ae41cee00a0b4beeef276172a7a640dcdb8e501fdecd550dcb825671108165b64736f6c634300081100336bd6b5318a46e5fff572d5e4258a20774aab40cc35ac7680654b9081fcc82f8065d7a28e3265b37a6474929f336521b332c1681b933f6cb9f3376673440d862aa49807205ce4d355092ef5a8a18f56e8913cf4a201fbe287825b095693c21775",
  "linkReferences": {},
  "deployedLinkReferences": {}
}