{
  "_format": "hh-sol-artifact-1",
  "contractName": "CosmicWizards3D",
  "sourceName": "contracts/static/ERC721/CosmicWizards3D.sol",
  "abi": [
    {
      "inputs": [],
      "stateMutability": "nonpayable",
      "type": "constructor"
    },
    {
      "anonymous": false,
      "inputs": [
        {
          "indexed": true,
          "internalType": "address",
          "name": "owner",
          "type": "address"
        },
        {
          "indexed": true,
          "internalType": "address",
          "name": "approved",
          "type": "address"
        },
        {
          "indexed": true,
          "internalType": "uint256",
          "name": "tokenId",
          "type": "uint256"
        }
      ],
      "name": "Approval",
      "type": "event"
    },
    {
      "anonymous": false,
      "inputs": [
        {
          "indexed": true,
          "internalType": "address",
          "name": "owner",
          "type": "address"
        },
        {
          "indexed": true,
          "internalType": "address",
          "name": "operator",
          "type": "address"
        },
        {
          "indexed": false,
          "internalType": "bool",
          "name": "approved",
          "type": "bool"
        }
      ],
      "name": "ApprovalForAll",
      "type": "event"
    },
    {
      "anonymous": false,
      "inputs": [
        {
          "indexed": false,
          "internalType": "address",
          "name": "account",
          "type": "address"
        }
      ],
      "name": "Paused",
      "type": "event"
    },
    {
      "anonymous": false,
      "inputs": [
        {
          "indexed": true,
          "internalType": "bytes32",
          "name": "role",
          "type": "bytes32"
        },
        {
          "indexed": true,
          "internalType": "bytes32",
          "name": "previousAdminRole",
          "type": "bytes32"
        },
        {
          "indexed": true,
          "internalType": "bytes32",
          "name": "newAdminRole",
          "type": "bytes32"
        }
      ],
      "name": "RoleAdminChanged",
      "type": "event"
    },
    {
      "anonymous": false,
      "inputs": [
        {
          "indexed": true,
          "internalType": "bytes32",
          "name": "role",
          "type": "bytes32"
        },
        {
          "indexed": true,
          "internalType": "address",
          "name": "account",
          "type": "address"
        },
        {
          "indexed": true,
          "internalType": "address",
          "name": "sender",
          "type": "address"
        }
      ],
      "name": "RoleGranted",
      "type": "event"
    },
    {
      "anonymous": false,
      "inputs": [
        {
          "indexed": true,
          "internalType": "bytes32",
          "name": "role",
          "type": "bytes32"
        },
        {
          "indexed": true,
          "internalType": "address",
          "name": "account",
          "type": "address"
        },
        {
          "indexed": true,
          "internalType": "address",
          "name": "sender",
          "type": "address"
        }
      ],
      "name": "RoleRevoked",
      "type": "event"
    },
    {
      "anonymous": false,
      "inputs": [
        {
          "indexed": true,
          "internalType": "address",
          "name": "from",
          "type": "address"
        },
        {
          "indexed": true,
          "internalType": "address",
          "name": "to",
          "type": "address"
        },
        {
          "indexed": true,
          "internalType": "uint256",
          "name": "tokenId",
          "type": "uint256"
        }
      ],
      "name": "Transfer",
      "type": "event"
    },
    {
      "anonymous": false,
      "inputs": [
        {
          "indexed": false,
          "internalType": "address",
          "name": "account",
          "type": "address"
        }
      ],
      "name": "Unpaused",
      "type": "event"
    },
    {
      "inputs": [],
      "name": "ADMIN_ROLE",
      "outputs": [
        {
          "internalType": "bytes32",
          "name": "",
          "type": "bytes32"
        }
      ],
      "stateMutability": "view",
      "type": "function"
    },
    {
      "inputs": [],
      "name": "DEFAULT_ADMIN_ROLE",
      "outputs": [
        {
          "internalType": "bytes32",
          "name": "",
          "type": "bytes32"
        }
      ],
      "stateMutability": "view",
      "type": "function"
    },
    {
      "inputs": [],
      "name": "METADATA_ROLE",
      "outputs": [
        {
          "internalType": "bytes32",
          "name": "",
          "type": "bytes32"
        }
      ],
      "stateMutability": "view",
      "type": "function"
    },
    {
      "inputs": [],
      "name": "PAUSER_ROLE",
      "outputs": [
        {
          "internalType": "bytes32",
          "name": "",
          "type": "bytes32"
        }
      ],
      "stateMutability": "view",
      "type": "function"
    },
    {
      "inputs": [
        {
          "internalType": "address",
          "name": "to",
          "type": "address"
        },
        {
          "internalType": "uint256",
          "name": "tokenId",
          "type": "uint256"
        }
      ],
      "name": "approve",
      "outputs": [],
      "stateMutability": "nonpayable",
      "type": "function"
    },
    {
      "inputs": [
        {
          "internalType": "address",
          "name": "owner",
          "type": "address"
        }
      ],
      "name": "balanceOf",
      "outputs": [
        {
          "internalType": "uint256",
          "name": "",
          "type": "uint256"
        }
      ],
      "stateMutability": "view",
      "type": "function"
    },
    {
      "inputs": [
        {
          "internalType": "uint256",
          "name": "tokenId",
          "type": "uint256"
        }
      ],
      "name": "burn",
      "outputs": [],
      "stateMutability": "nonpayable",
      "type": "function"
    },
    {
      "inputs": [],
      "name": "burnable",
      "outputs": [
        {
          "internalType": "uint256",
          "name": "",
          "type": "uint256"
        }
      ],
      "stateMutability": "view",
      "type": "function"
    },
    {
      "inputs": [
        {
          "internalType": "uint256",
          "name": "",
          "type": "uint256"
        }
      ],
      "name": "burned",
      "outputs": [
        {
          "internalType": "uint256",
          "name": "",
          "type": "uint256"
        }
      ],
      "stateMutability": "view",
      "type": "function"
    },
    {
      "inputs": [
        {
          "internalType": "uint256",
          "name": "tokenId",
          "type": "uint256"
        }
      ],
      "name": "getApproved",
      "outputs": [
        {
          "internalType": "address",
          "name": "",
          "type": "address"
        }
      ],
      "stateMutability": "view",
      "type": "function"
    },
    {
      "inputs": [
        {
          "internalType": "bytes32",
          "name": "role",
          "type": "bytes32"
        }
      ],
      "name": "getRoleAdmin",
      "outputs": [
        {
          "internalType": "bytes32",
          "name": "",
          "type": "bytes32"
        }
      ],
      "stateMutability": "view",
      "type": "function"
    },
    {
      "inputs": [
        {
          "internalType": "bytes32",
          "name": "role",
          "type": "bytes32"
        },
        {
          "internalType": "address",
          "name": "account",
          "type": "address"
        }
      ],
      "name": "grantRole",
      "outputs": [],
      "stateMutability": "nonpayable",
      "type": "function"
    },
    {
      "inputs": [
        {
          "internalType": "bytes32",
          "name": "role",
          "type": "bytes32"
        },
        {
          "internalType": "address",
          "name": "account",
          "type": "address"
        }
      ],
      "name": "hasRole",
      "outputs": [
        {
          "internalType": "bool",
          "name": "",
          "type": "bool"
        }
      ],
      "stateMutability": "view",
      "type": "function"
    },
    {
      "inputs": [
        {
          "internalType": "address",
          "name": "owner",
          "type": "address"
        },
        {
          "internalType": "address",
          "name": "operator",
          "type": "address"
        }
      ],
      "name": "isApprovedForAll",
      "outputs": [
        {
          "internalType": "bool",
          "name": "",
          "type": "bool"
        }
      ],
      "stateMutability": "view",
      "type": "function"
    },
    {
      "inputs": [],
      "name": "name",
      "outputs": [
        {
          "internalType": "string",
          "name": "",
          "type": "string"
        }
      ],
      "stateMutability": "view",
      "type": "function"
    },
    {
      "inputs": [
        {
          "internalType": "uint256",
          "name": "tokenId",
          "type": "uint256"
        }
      ],
      "name": "ownerOf",
      "outputs": [
        {
          "internalType": "address",
          "name": "",
          "type": "address"
        }
      ],
      "stateMutability": "view",
      "type": "function"
    },
    {
      "inputs": [],
      "name": "pause",
      "outputs": [],
      "stateMutability": "nonpayable",
      "type": "function"
    },
    {
      "inputs": [],
      "name": "paused",
      "outputs": [
        {
          "internalType": "bool",
          "name": "",
          "type": "bool"
        }
      ],
      "stateMutability": "view",
      "type": "function"
    },
    {
      "inputs": [
        {
          "internalType": "bytes32",
          "name": "role",
          "type": "bytes32"
        },
        {
          "internalType": "address",
          "name": "account",
          "type": "address"
        }
      ],
      "name": "renounceRole",
      "outputs": [],
      "stateMutability": "nonpayable",
      "type": "function"
    },
    {
      "inputs": [
        {
          "internalType": "bytes32",
          "name": "role",
          "type": "bytes32"
        },
        {
          "internalType": "address",
          "name": "account",
          "type": "address"
        }
      ],
      "name": "revokeRole",
      "outputs": [],
      "stateMutability": "nonpayable",
      "type": "function"
    },
    {
      "inputs": [
        {
          "internalType": "address",
          "name": "from",
          "type": "address"
        },
        {
          "internalType": "address",
          "name": "to",
          "type": "address"
        },
        {
          "internalType": "uint256",
          "name": "tokenId",
          "type": "uint256"
        }
      ],
      "name": "safeTransferFrom",
      "outputs": [],
      "stateMutability": "nonpayable",
      "type": "function"
    },
    {
      "inputs": [
        {
          "internalType": "address",
          "name": "from",
          "type": "address"
        },
        {
          "internalType": "address",
          "name": "to",
          "type": "address"
        },
        {
          "internalType": "uint256",
          "name": "tokenId",
          "type": "uint256"
        },
        {
          "internalType": "bytes",
          "name": "_data",
          "type": "bytes"
        }
      ],
      "name": "safeTransferFrom",
      "outputs": [],
      "stateMutability": "nonpayable",
      "type": "function"
    },
    {
      "inputs": [
        {
          "internalType": "address",
          "name": "operator",
          "type": "address"
        },
        {
          "internalType": "bool",
          "name": "approved",
          "type": "bool"
        }
      ],
      "name": "setApprovalForAll",
      "outputs": [],
      "stateMutability": "nonpayable",
      "type": "function"
    },
    {
      "inputs": [
        {
          "internalType": "string",
          "name": "baseURI",
          "type": "string"
        }
      ],
      "name": "setBaseURI",
      "outputs": [],
      "stateMutability": "nonpayable",
      "type": "function"
    },
    {
      "inputs": [
        {
          "internalType": "uint256",
          "name": "state",
          "type": "uint256"
        }
      ],
      "name": "setBurnable",
      "outputs": [],
      "stateMutability": "nonpayable",
      "type": "function"
    },
    {
      "inputs": [
        {
          "internalType": "uint256",
          "name": "tokenId",
          "type": "uint256"
        },
        {
          "internalType": "string",
          "name": "_tokenURI",
          "type": "string"
        }
      ],
      "name": "setTokenURI",
      "outputs": [],
      "stateMutability": "nonpayable",
      "type": "function"
    },
    {
      "inputs": [
        {
          "internalType": "bytes4",
          "name": "interfaceId",
          "type": "bytes4"
        }
      ],
      "name": "supportsInterface",
      "outputs": [
        {
          "internalType": "bool",
          "name": "",
          "type": "bool"
        }
      ],
      "stateMutability": "view",
      "type": "function"
    },
    {
      "inputs": [],
      "name": "symbol",
      "outputs": [
        {
          "internalType": "string",
          "name": "",
          "type": "string"
        }
      ],
      "stateMutability": "view",
      "type": "function"
    },
    {
      "inputs": [
        {
          "internalType": "uint256",
          "name": "index",
          "type": "uint256"
        }
      ],
      "name": "tokenByIndex",
      "outputs": [
        {
          "internalType": "uint256",
          "name": "",
          "type": "uint256"
        }
      ],
      "stateMutability": "view",
      "type": "function"
    },
    {
      "inputs": [
        {
          "internalType": "address",
          "name": "owner",
          "type": "address"
        },
        {
          "internalType": "uint256",
          "name": "index",
          "type": "uint256"
        }
      ],
      "name": "tokenOfOwnerByIndex",
      "outputs": [
        {
          "internalType": "uint256",
          "name": "",
          "type": "uint256"
        }
      ],
      "stateMutability": "view",
      "type": "function"
    },
    {
      "inputs": [
        {
          "internalType": "uint256",
          "name": "tokenId",
          "type": "uint256"
        }
      ],
      "name": "tokenURI",
      "outputs": [
        {
          "internalType": "string",
          "name": "",
          "type": "string"
        }
      ],
      "stateMutability": "view",
      "type": "function"
    },
    {
      "inputs": [],
      "name": "totalSupply",
      "outputs": [
        {
          "internalType": "uint256",
          "name": "",
          "type": "uint256"
        }
      ],
      "stateMutability": "view",
      "type": "function"
    },
    {
      "inputs": [
        {
          "internalType": "address",
          "name": "from",
          "type": "address"
        },
        {
          "internalType": "address",
          "name": "to",
          "type": "address"
        },
        {
          "internalType": "uint256",
          "name": "tokenId",
          "type": "uint256"
        }
      ],
      "name": "transferFrom",
      "outputs": [],
      "stateMutability": "nonpayable",
      "type": "function"
    },
    {
      "inputs": [],
      "name": "unpause",
      "outputs": [],
      "stateMutability": "nonpayable",
      "type": "function"
    },
    {
      "inputs": [
        {
          "internalType": "uint256[]",
          "name": "tokenIds",
          "type": "uint256[]"
        }
      ],
      "name": "upgrade2DWizards",
      "outputs": [],
      "stateMutability": "nonpayable",
      "type": "function"
    }
  ],
  "bytecode": "0x60806040526000600f553480156200001657600080fd5b50604080518082018252601181527010dbdcdb5a58c815da5e985c991cc80cd1607a1b60208083019182528351808501909452600984526815d25690549114ccd160ba1b90840152815191929162000071916000916200023c565b508051620000879060019060208401906200023c565b5050600b805460ff1916905550620000a16000336200014c565b620000bc60008051602062002f79833981519152336200014c565b620000d760008051602062002f59833981519152336200014c565b6200010160008051602062002f5983398151915260008051602062002f79833981519152620001f1565b6200011c60008051602062002f39833981519152336200014c565b6200014660008051602062002f3983398151915260008051602062002f79833981519152620001f1565b6200031f565b6000828152600c602090815260408083206001600160a01b038516845290915290205460ff16620001ed576000828152600c602090815260408083206001600160a01b03851684529091529020805460ff19166001179055620001ac3390565b6001600160a01b0316816001600160a01b0316837f2f8788117e7eff1d82e926ec794901d17c78024a50270940304540a733656f0d60405160405180910390a45b5050565b6000828152600c6020526040808220600101805490849055905190918391839186917fbd79b86ffe0ab8e8776151514217cd7cacd52c909f66475c3af44e129f0b00ff9190a4505050565b8280546200024a90620002e2565b90600052602060002090601f0160209004810192826200026e5760008555620002b9565b82601f106200028957805160ff1916838001178555620002b9565b82800160010185558215620002b9579182015b82811115620002b95782518255916020019190600101906200029c565b50620002c7929150620002cb565b5090565b5b80821115620002c75760008155600101620002cc565b600181811c90821680620002f757607f821691505b602082108114156200031957634e487b7160e01b600052602260045260246000fd5b50919050565b612c0a806200032f6000396000f3fe608060405234801561001057600080fd5b50600436106102115760003560e01c806355f804b311610125578063a07c7ce4116100ad578063b88d4fde1161007c578063b88d4fde1461047a578063c87b56dd1461048d578063d547741f146104a0578063e63ab1e9146104b3578063e985e9c5146104da57600080fd5b8063a07c7ce414610443578063a217fddf1461044c578063a22cb46514610454578063aeb9326c1461046757600080fd5b806370a08231116100f457806370a08231146103e657806375b238fc146103f95780638456cb591461042057806391d148541461042857806395d89b411461043b57600080fd5b806355f804b3146103a257806356b8180f146103b55780635c975abb146103c85780636352211e146103d357600080fd5b8063248a9ca3116101a85780633884178211610177578063388417821461033a5780633f4ba83a1461036157806342842e0e1461036957806342966c681461037c5780634f6ccce71461038f57600080fd5b8063248a9ca3146102de5780632f2ff15d146103015780632f745c591461031457806336568abe1461032757600080fd5b8063162094c4116101e4578063162094c41461029357806318160ddd146102a657806323250cae146102b857806323b872dd146102cb57600080fd5b806301ffc9a71461021657806306fdde031461023e578063081812fc14610253578063095ea7b31461027e575b600080fd5b610229610224366004612459565b610516565b60405190151581526020015b60405180910390f35b610246610527565b60405161023591906124ce565b6102666102613660046124e1565b6105b9565b6040516001600160a01b039091168152602001610235565b61029161028c36600461250f565b610646565b005b6102916102a13660046125fa565b61075c565b6008545b604051908152602001610235565b6102aa6102c63660046124e1565b610790565b6102916102d9366004612641565b6107b1565b6102aa6102ec3660046124e1565b6000908152600c602052604090206001015490565b61029161030f366004612682565b6107e3565b6102aa61032236600461250f565b610808565b610291610335366004612682565b61089e565b6102aa7f6bd6b5318a46e5fff572d5e4258a20774aab40cc35ac7680654b9081fcc82f8081565b61029161091c565b610291610377366004612641565b610951565b61029161038a3660046124e1565b61096c565b6102aa61039d3660046124e1565b6109f3565b6102916103b03660046126b2565b610a86565b6102916103c33660046126e7565b610ac3565b600b5460ff16610229565b6102666103e13660046124e1565b610e58565b6102aa6103f436600461278d565b610ecf565b6102aa7fa49807205ce4d355092ef5a8a18f56e8913cf4a201fbe287825b095693c2177581565b610291610f56565b610229610436366004612682565b610f88565b610246610fb3565b6102aa600f5481565b6102aa600081565b6102916104623660046127b8565b610fc2565b6102916104753660046124e1565b610fcd565b6102916104883660046127e6565b611046565b61024661049b3660046124e1565b61107e565b6102916104ae366004612682565b611089565b6102aa7f65d7a28e3265b37a6474929f336521b332c1681b933f6cb9f3376673440d862a81565b6102296104e8366004612866565b6001600160a01b03918216600090815260056020908152604080832093909416825291909152205460ff1690565b6000610521826110ae565b92915050565b60606000805461053690612894565b80601f016020809104026020016040519081016040528092919081815260200182805461056290612894565b80156105af5780601f10610584576101008083540402835291602001916105af565b820191906000526020600020905b81548152906001019060200180831161059257829003601f168201915b5050505050905090565b60006105c4826110d3565b61062a5760405162461bcd60e51b815260206004820152602c60248201527f4552433732313a20617070726f76656420717565727920666f72206e6f6e657860448201526b34b9ba32b73a103a37b5b2b760a11b60648201526084015b60405180910390fd5b506000908152600460205260409020546001600160a01b031690565b600061065182610e58565b9050806001600160a01b0316836001600160a01b031614156106bf5760405162461bcd60e51b815260206004820152602160248201527f4552433732313a20617070726f76616c20746f2063757272656e74206f776e656044820152603960f91b6064820152608401610621565b336001600160a01b03821614806106db57506106db81336104e8565b61074d5760405162461bcd60e51b815260206004820152603860248201527f4552433732313a20617070726f76652063616c6c6572206973206e6f74206f7760448201527f6e6572206e6f7220617070726f76656420666f7220616c6c00000000000000006064820152608401610621565b61075783836110f0565b505050565b7f6bd6b5318a46e5fff572d5e4258a20774aab40cc35ac7680654b9081fcc82f806107868161115e565b6107578383611168565b600e81815481106107a057600080fd5b600091825260209091200154905081565b6107bc335b826111f3565b6107d85760405162461bcd60e51b8152600401610621906128cf565b6107578383836112dd565b6000828152600c60205260409020600101546107fe8161115e565b6107578383611484565b600061081383610ecf565b82106108755760405162461bcd60e51b815260206004820152602b60248201527f455243373231456e756d657261626c653a206f776e657220696e646578206f7560448201526a74206f6620626f756e647360a81b6064820152608401610621565b506001600160a01b03919091166000908152600660209081526040808320938352929052205490565b6001600160a01b038116331461090e5760405162461bcd60e51b815260206004820152602f60248201527f416363657373436f6e74726f6c3a2063616e206f6e6c792072656e6f756e636560448201526e103937b632b9903337b91039b2b63360891b6064820152608401610621565b610918828261150a565b5050565b7f65d7a28e3265b37a6474929f336521b332c1681b933f6cb9f3376673440d862a6109468161115e565b61094e611571565b50565b61075783838360405180602001604052806000815250611046565b600f54156109b55760405162461bcd60e51b8152602060048201526016602482015275109d5c9b9a5b99c81a5cc81b9bdd08195b98589b195960521b6044820152606401610621565b6109be81611604565b600e80546001810182556000919091527fbb7b4a454dc3493923482f07822329ed19e8244eff582cc204f8554c3620c3fd0155565b60006109fe60085490565b8210610a615760405162461bcd60e51b815260206004820152602c60248201527f455243373231456e756d657261626c653a20676c6f62616c20696e646578206f60448201526b7574206f6620626f756e647360a01b6064820152608401610621565b60088281548110610a7457610a74612920565b90600052602060002001549050919050565b7f6bd6b5318a46e5fff572d5e4258a20774aab40cc35ac7680654b9081fcc82f80610ab08161115e565b815161075790600d906020850190612374565b600b5460ff1615610ae65760405162461bcd60e51b815260040161062190612936565b7337f47c343bfaf27a52bc1bd468b49d8e5ef89d6763e985e9c5336040516001600160e01b031960e084901b1681526001600160a01b039091166004820152306024820152604401602060405180830381865afa158015610b4b573d6000803e3d6000fd5b505050506040513d601f19601f82011682018060405250810190610b6f9190612960565b610bcc5760405162461bcd60e51b815260206004820152602860248201527f436f6e7472616374206d697373696e6720617070726f76616c20666f722032446044820152672057697a6172647360c01b6064820152608401610621565b60005b8151811015610cd657336001600160a01b03167337f47c343bfaf27a52bc1bd468b49d8e5ef89d676001600160a01b0316636352211e848481518110610c1757610c17612920565b60200260200101516040518263ffffffff1660e01b8152600401610c3d91815260200190565b602060405180830381865afa158015610c5a573d6000803e3d6000fd5b505050506040513d601f19601f82011682018060405250810190610c7e919061297d565b6001600160a01b031614610cc45760405162461bcd60e51b815260206004820152600d60248201526c26bab9ba1031329037bbb732b960991b6044820152606401610621565b80610cce816129b0565b915050610bcf565b5060005b8151811015610918577337f47c343bfaf27a52bc1bd468b49d8e5ef89d676342842e0e336001858581518110610d1257610d12612920565b60209081029190910101516040516001600160e01b031960e086901b1681526001600160a01b0393841660048201529290911660248301526044820152606401600060405180830381600087803b158015610d6c57600080fd5b505af1158015610d80573d6000803e3d6000fd5b50505050610dad610d8e3390565b838381518110610da057610da0612920565b602002602001015161167b565b73f22348e477753bc6252237333d9a94b1fce9c1d363a144819433848481518110610dda57610dda612920565b60200260200101516040518363ffffffff1660e01b8152600401610e139291906001600160a01b03929092168252602082015260400190565b600060405180830381600087803b158015610e2d57600080fd5b505af1158015610e41573d6000803e3d6000fd5b505050508080610e50906129b0565b915050610cda565b6000818152600260205260408120546001600160a01b0316806105215760405162461bcd60e51b815260206004820152602960248201527f4552433732313a206f776e657220717565727920666f72206e6f6e657869737460448201526832b73a103a37b5b2b760b91b6064820152608401610621565b60006001600160a01b038216610f3a5760405162461bcd60e51b815260206004820152602a60248201527f4552433732313a2062616c616e636520717565727920666f7220746865207a65604482015269726f206164647265737360b01b6064820152608401610621565b506001600160a01b031660009081526003602052604090205490565b7f65d7a28e3265b37a6474929f336521b332c1681b933f6cb9f3376673440d862a610f808161115e565b61094e611695565b6000918252600c602090815260408084206001600160a01b0393909316845291905290205460ff1690565b60606001805461053690612894565b6109183383836116ed565b7fa49807205ce4d355092ef5a8a18f56e8913cf4a201fbe287825b095693c21775610ff78161115e565b8115806110045750816001145b6110405760405162461bcd60e51b815260206004820152600d60248201526c496e76616c696420737461746560981b6044820152606401610621565b50600f55565b61105033836111f3565b61106c5760405162461bcd60e51b8152600401610621906128cf565b611078848484846117bc565b50505050565b6060610521826117ef565b6000828152600c60205260409020600101546110a48161115e565b610757838361150a565b60006001600160e01b03198216637965db0b60e01b1480610521575061052182611951565b6000908152600260205260409020546001600160a01b0316151590565b600081815260046020526040902080546001600160a01b0319166001600160a01b038416908117909155819061112582610e58565b6001600160a01b03167f8c5be1e5ebec7d5bd14f71427d1e84f3dd0314c0f7b2291e5b200ac8c7c3b92560405160405180910390a45050565b61094e8133611976565b611171826110d3565b6111d45760405162461bcd60e51b815260206004820152602e60248201527f45524337323155524953746f726167653a2055524920736574206f66206e6f6e60448201526d32bc34b9ba32b73a103a37b5b2b760911b6064820152608401610621565b6000828152600a60209081526040909120825161075792840190612374565b60006111fe826110d3565b61125f5760405162461bcd60e51b815260206004820152602c60248201527f4552433732313a206f70657261746f7220717565727920666f72206e6f6e657860448201526b34b9ba32b73a103a37b5b2b760a11b6064820152608401610621565b600061126a83610e58565b9050806001600160a01b0316846001600160a01b031614806112b157506001600160a01b0380821660009081526005602090815260408083209388168352929052205460ff165b806112d55750836001600160a01b03166112ca846105b9565b6001600160a01b0316145b949350505050565b826001600160a01b03166112f082610e58565b6001600160a01b0316146113545760405162461bcd60e51b815260206004820152602560248201527f4552433732313a207472616e736665722066726f6d20696e636f72726563742060448201526437bbb732b960d91b6064820152608401610621565b6001600160a01b0382166113b65760405162461bcd60e51b8152602060048201526024808201527f4552433732313a207472616e7366657220746f20746865207a65726f206164646044820152637265737360e01b6064820152608401610621565b6113c18383836119da565b6113cc6000826110f0565b6001600160a01b03831660009081526003602052604081208054600192906113f59084906129cb565b90915550506001600160a01b03821660009081526003602052604081208054600192906114239084906129e2565b909155505060008181526002602052604080822080546001600160a01b0319166001600160a01b0386811691821790925591518493918716917fddf252ad1be2c89b69c2b068fc378daa952ba7f163c4a11628f55a4df523b3ef91a4505050565b61148e8282610f88565b610918576000828152600c602090815260408083206001600160a01b03851684529091529020805460ff191660011790556114c63390565b6001600160a01b0316816001600160a01b0316837f2f8788117e7eff1d82e926ec794901d17c78024a50270940304540a733656f0d60405160405180910390a45050565b6115148282610f88565b15610918576000828152600c602090815260408083206001600160a01b0385168085529252808320805460ff1916905551339285917ff6391f5c32d9c69d2a47ea670b442974b53935d1edc7fd64eb21e047a839171b9190a45050565b600b5460ff166115ba5760405162461bcd60e51b815260206004820152601460248201527314185d5cd8589b194e881b9bdd081c185d5cd95960621b6044820152606401610621565b600b805460ff191690557f5db9ee0a495bf2e6ff9c91a7834c1ba4fdd244a5e8aa4e537bd38aeae4b073aa335b6040516001600160a01b03909116815260200160405180910390a1565b61160d336107b6565b6116725760405162461bcd60e51b815260206004820152603060248201527f4552433732314275726e61626c653a2063616c6c6572206973206e6f74206f7760448201526f1b995c881b9bdc88185c1c1c9bdd995960821b6064820152608401610621565b61094e81611a08565b610918828260405180602001604052806000815250611a11565b600b5460ff16156116b85760405162461bcd60e51b815260040161062190612936565b600b805460ff191660011790557f62e78cea01bee320cd4e420270b5ea74000d11b0c9f74754ebdbfc544b05a2586115e73390565b816001600160a01b0316836001600160a01b0316141561174f5760405162461bcd60e51b815260206004820152601960248201527f4552433732313a20617070726f766520746f2063616c6c6572000000000000006044820152606401610621565b6001600160a01b03838116600081815260056020908152604080832094871680845294825291829020805460ff191686151590811790915591519182527f17307eab39ab6107e8899845ad3d59bd9653f200f220920489ca2b5937696c31910160405180910390a3505050565b6117c78484846112dd565b6117d384848484611a44565b6110785760405162461bcd60e51b8152600401610621906129fa565b60606117fa826110d3565b6118605760405162461bcd60e51b815260206004820152603160248201527f45524337323155524953746f726167653a2055524920717565727920666f72206044820152703737b732bc34b9ba32b73a103a37b5b2b760791b6064820152608401610621565b6000828152600a60205260408120805461187990612894565b80601f01602080910402602001604051908101604052809291908181526020018280546118a590612894565b80156118f25780601f106118c7576101008083540402835291602001916118f2565b820191906000526020600020905b8154815290600101906020018083116118d557829003601f168201915b505050505090506000611903611b42565b9050805160001415611916575092915050565b815115611948578082604051602001611930929190612a4c565b60405160208183030381529060405292505050919050565b6112d584611b51565b60006001600160e01b0319821663780e9d6360e01b1480610521575061052182611c1c565b6119808282610f88565b61091857611998816001600160a01b03166014611c6c565b6119a3836020611c6c565b6040516020016119b4929190612a7b565b60408051601f198184030181529082905262461bcd60e51b8252610621916004016124ce565b600b5460ff16156119fd5760405162461bcd60e51b815260040161062190612936565b610757838383611e08565b61094e81611ec0565b611a1b8383611f00565b611a286000848484611a44565b6107575760405162461bcd60e51b8152600401610621906129fa565b60006001600160a01b0384163b15611b3757604051630a85bd0160e11b81526001600160a01b0385169063150b7a0290611a88903390899088908890600401612af0565b6020604051808303816000875af1925050508015611ac3575060408051601f3d908101601f19168201909252611ac091810190612b2d565b60015b611b1d573d808015611af1576040519150601f19603f3d011682016040523d82523d6000602084013e611af6565b606091505b508051611b155760405162461bcd60e51b8152600401610621906129fa565b805181602001fd5b6001600160e01b031916630a85bd0160e11b1490506112d5565b506001949350505050565b6060600d805461053690612894565b6060611b5c826110d3565b611bc05760405162461bcd60e51b815260206004820152602f60248201527f4552433732314d657461646174613a2055524920717565727920666f72206e6f60448201526e3732bc34b9ba32b73a103a37b5b2b760891b6064820152608401610621565b6000611bca611b42565b90506000815111611bea5760405180602001604052806000815250611c15565b80611bf48461203f565b604051602001611c05929190612a4c565b6040516020818303038152906040525b9392505050565b60006001600160e01b031982166380ac58cd60e01b1480611c4d57506001600160e01b03198216635b5e139f60e01b145b8061052157506301ffc9a760e01b6001600160e01b0319831614610521565b60606000611c7b836002612b4a565b611c869060026129e2565b67ffffffffffffffff811115611c9e57611c9e61253b565b6040519080825280601f01601f191660200182016040528015611cc8576020820181803683370190505b509050600360fc1b81600081518110611ce357611ce3612920565b60200101906001600160f81b031916908160001a905350600f60fb1b81600181518110611d1257611d12612920565b60200101906001600160f81b031916908160001a9053506000611d36846002612b4a565b611d419060016129e2565b90505b6001811115611db9576f181899199a1a9b1b9c1cb0b131b232b360811b85600f1660108110611d7557611d75612920565b1a60f81b828281518110611d8b57611d8b612920565b60200101906001600160f81b031916908160001a90535060049490941c93611db281612b69565b9050611d44565b508315611c155760405162461bcd60e51b815260206004820181905260248201527f537472696e67733a20686578206c656e67746820696e73756666696369656e746044820152606401610621565b6001600160a01b038316611e6357611e5e81600880546000838152600960205260408120829055600182018355919091527ff3f7a9fe364faab93b216da50a3214154f22a0a2b415b23a84c8169e8b636ee30155565b611e86565b816001600160a01b0316836001600160a01b031614611e8657611e86838261213d565b6001600160a01b038216611e9d57610757816121da565b826001600160a01b0316826001600160a01b031614610757576107578282612289565b611ec9816122cd565b6000818152600a602052604090208054611ee290612894565b15905061094e576000818152600a6020526040812061094e916123f8565b6001600160a01b038216611f565760405162461bcd60e51b815260206004820181905260248201527f4552433732313a206d696e7420746f20746865207a65726f20616464726573736044820152606401610621565b611f5f816110d3565b15611fac5760405162461bcd60e51b815260206004820152601c60248201527f4552433732313a20746f6b656e20616c7265616479206d696e746564000000006044820152606401610621565b611fb8600083836119da565b6001600160a01b0382166000908152600360205260408120805460019290611fe19084906129e2565b909155505060008181526002602052604080822080546001600160a01b0319166001600160a01b03861690811790915590518392907fddf252ad1be2c89b69c2b068fc378daa952ba7f163c4a11628f55a4df523b3ef908290a45050565b6060816120635750506040805180820190915260018152600360fc1b602082015290565b8160005b811561208d5780612077816129b0565b91506120869050600a83612b96565b9150612067565b60008167ffffffffffffffff8111156120a8576120a861253b565b6040519080825280601f01601f1916602001820160405280156120d2576020820181803683370190505b5090505b84156112d5576120e76001836129cb565b91506120f4600a86612baa565b6120ff9060306129e2565b60f81b81838151811061211457612114612920565b60200101906001600160f81b031916908160001a905350612136600a86612b96565b94506120d6565b6000600161214a84610ecf565b61215491906129cb565b6000838152600760205260409020549091508082146121a7576001600160a01b03841660009081526006602090815260408083208584528252808320548484528184208190558352600790915290208190555b5060009182526007602090815260408084208490556001600160a01b039094168352600681528383209183525290812055565b6008546000906121ec906001906129cb565b6000838152600960205260408120546008805493945090928490811061221457612214612920565b90600052602060002001549050806008838154811061223557612235612920565b600091825260208083209091019290925582815260099091526040808220849055858252812055600880548061226d5761226d612bbe565b6001900381819060005260206000200160009055905550505050565b600061229483610ecf565b6001600160a01b039093166000908152600660209081526040808320868452825280832085905593825260079052919091209190915550565b60006122d882610e58565b90506122e6816000846119da565b6122f16000836110f0565b6001600160a01b038116600090815260036020526040812080546001929061231a9084906129cb565b909155505060008281526002602052604080822080546001600160a01b0319169055518391906001600160a01b038416907fddf252ad1be2c89b69c2b068fc378daa952ba7f163c4a11628f55a4df523b3ef908390a45050565b82805461238090612894565b90600052602060002090601f0160209004810192826123a257600085556123e8565b82601f106123bb57805160ff19168380011785556123e8565b828001600101855582156123e8579182015b828111156123e85782518255916020019190600101906123cd565b506123f492915061242e565b5090565b50805461240490612894565b6000825580601f10612414575050565b601f01602090049060005260206000209081019061094e91905b5b808211156123f4576000815560010161242f565b6001600160e01b03198116811461094e57600080fd5b60006020828403121561246b57600080fd5b8135611c1581612443565b60005b83811015612491578181015183820152602001612479565b838111156110785750506000910152565b600081518084526124ba816020860160208601612476565b601f01601f19169290920160200192915050565b602081526000611c1560208301846124a2565b6000602082840312156124f357600080fd5b5035919050565b6001600160a01b038116811461094e57600080fd5b6000806040838503121561252257600080fd5b823561252d816124fa565b946020939093013593505050565b634e487b7160e01b600052604160045260246000fd5b604051601f8201601f1916810167ffffffffffffffff8111828210171561257a5761257a61253b565b604052919050565b600067ffffffffffffffff83111561259c5761259c61253b565b6125af601f8401601f1916602001612551565b90508281528383830111156125c357600080fd5b828260208301376000602084830101529392505050565b600082601f8301126125eb57600080fd5b611c1583833560208501612582565b6000806040838503121561260d57600080fd5b82359150602083013567ffffffffffffffff81111561262b57600080fd5b612637858286016125da565b9150509250929050565b60008060006060848603121561265657600080fd5b8335612661816124fa565b92506020840135612671816124fa565b929592945050506040919091013590565b6000806040838503121561269557600080fd5b8235915060208301356126a7816124fa565b809150509250929050565b6000602082840312156126c457600080fd5b813567ffffffffffffffff8111156126db57600080fd5b6112d5848285016125da565b600060208083850312156126fa57600080fd5b823567ffffffffffffffff8082111561271257600080fd5b818501915085601f83011261272657600080fd5b8135818111156127385761273861253b565b8060051b9150612749848301612551565b818152918301840191848101908884111561276357600080fd5b938501935b8385101561278157843582529385019390850190612768565b98975050505050505050565b60006020828403121561279f57600080fd5b8135611c15816124fa565b801515811461094e57600080fd5b600080604083850312156127cb57600080fd5b82356127d6816124fa565b915060208301356126a7816127aa565b600080600080608085870312156127fc57600080fd5b8435612807816124fa565b93506020850135612817816124fa565b925060408501359150606085013567ffffffffffffffff81111561283a57600080fd5b8501601f8101871361284b57600080fd5b61285a87823560208401612582565b91505092959194509250565b6000806040838503121561287957600080fd5b8235612884816124fa565b915060208301356126a7816124fa565b600181811c908216806128a857607f821691505b602082108114156128c957634e487b7160e01b600052602260045260246000fd5b50919050565b60208082526031908201527f4552433732313a207472616e736665722063616c6c6572206973206e6f74206f6040820152701ddb995c881b9bdc88185c1c1c9bdd9959607a1b606082015260800190565b634e487b7160e01b600052603260045260246000fd5b60208082526010908201526f14185d5cd8589b194e881c185d5cd95960821b604082015260600190565b60006020828403121561297257600080fd5b8151611c15816127aa565b60006020828403121561298f57600080fd5b8151611c15816124fa565b634e487b7160e01b600052601160045260246000fd5b60006000198214156129c4576129c461299a565b5060010190565b6000828210156129dd576129dd61299a565b500390565b600082198211156129f5576129f561299a565b500190565b60208082526032908201527f4552433732313a207472616e7366657220746f206e6f6e20455243373231526560408201527131b2b4bb32b91034b6b83632b6b2b73a32b960711b606082015260800190565b60008351612a5e818460208801612476565b835190830190612a72818360208801612476565b01949350505050565b7f416363657373436f6e74726f6c3a206163636f756e7420000000000000000000815260008351612ab3816017850160208801612476565b7001034b99036b4b9b9b4b733903937b6329607d1b6017918401918201528351612ae4816028840160208801612476565b01602801949350505050565b6001600160a01b0385811682528416602082015260408101839052608060608201819052600090612b23908301846124a2565b9695505050505050565b600060208284031215612b3f57600080fd5b8151611c1581612443565b6000816000190483118215151615612b6457612b6461299a565b500290565b600081612b7857612b7861299a565b506000190190565b634e487b7160e01b600052601260045260246000fd5b600082612ba557612ba5612b80565b500490565b600082612bb957612bb9612b80565b500690565b634e487b7160e01b600052603160045260246000fdfea264697066735822122018ec9bd2ae504e0773ebfdbf66dfc8cbf3f5e84933365ba91f1f61c71d14b97c64736f6c634300080b00336bd6b5318a46e5fff572d5e4258a20774aab40cc35ac7680654b9081fcc82f8065d7a28e3265b37a6474929f336521b332c1681b933f6cb9f3376673440d862aa49807205ce4d355092ef5a8a18f56e8913cf4a201fbe287825b095693c21775",
  "linkReferences": {},
  "deployedLinkReferences": {}
}