{
  "_format": "hh-sol-artifact-1",
  "contractName": "ProfessionStakingUpgradeable",
  "sourceName": "contracts/ProfessionStakingUpgradeable.sol",
  "abi": [
    {
      "inputs": [],
      "stateMutability": "nonpayable",
      "type": "constructor"
    },
    {
      "anonymous": false,
      "inputs": [
        {
          "indexed": true,
          "internalType": "address",
          "name": "by",
          "type": "address"
        },
        {
          "indexed": true,
          "internalType": "address",
          "name": "token",
          "type": "address"
        },
        {
          "indexed": false,
          "internalType": "uint256",
          "name": "amount",
          "type": "uint256"
        }
      ],
      "name": "Claimed",
      "type": "event"
    },
    {
      "anonymous": false,
      "inputs": [
        {
          "indexed": false,
          "internalType": "address",
          "name": "account",
          "type": "address"
        }
      ],
      "name": "Paused",
      "type": "event"
    },
    {
      "anonymous": false,
      "inputs": [
        {
          "indexed": true,
          "internalType": "address",
          "name": "from",
          "type": "address"
        },
        {
          "indexed": true,
          "internalType": "address",
          "name": "token",
          "type": "address"
        },
        {
          "indexed": false,
          "internalType": "uint256",
          "name": "amount",
          "type": "uint256"
        }
      ],
      "name": "PoolRewardsDeposited",
      "type": "event"
    },
    {
      "anonymous": false,
      "inputs": [
        {
          "indexed": true,
          "internalType": "address",
          "name": "by",
          "type": "address"
        },
        {
          "indexed": true,
          "internalType": "address",
          "name": "to",
          "type": "address"
        },
        {
          "indexed": true,
          "internalType": "address",
          "name": "token",
          "type": "address"
        },
        {
          "indexed": false,
          "internalType": "uint256",
          "name": "amount",
          "type": "uint256"
        }
      ],
      "name": "PoolRewardsWithdrawn",
      "type": "event"
    },
    {
      "anonymous": false,
      "inputs": [
        {
          "indexed": true,
          "internalType": "bytes32",
          "name": "role",
          "type": "bytes32"
        },
        {
          "indexed": true,
          "internalType": "bytes32",
          "name": "previousAdminRole",
          "type": "bytes32"
        },
        {
          "indexed": true,
          "internalType": "bytes32",
          "name": "newAdminRole",
          "type": "bytes32"
        }
      ],
      "name": "RoleAdminChanged",
      "type": "event"
    },
    {
      "anonymous": false,
      "inputs": [
        {
          "indexed": true,
          "internalType": "bytes32",
          "name": "role",
          "type": "bytes32"
        },
        {
          "indexed": true,
          "internalType": "address",
          "name": "account",
          "type": "address"
        },
        {
          "indexed": true,
          "internalType": "address",
          "name": "sender",
          "type": "address"
        }
      ],
      "name": "RoleGranted",
      "type": "event"
    },
    {
      "anonymous": false,
      "inputs": [
        {
          "indexed": true,
          "internalType": "bytes32",
          "name": "role",
          "type": "bytes32"
        },
        {
          "indexed": true,
          "internalType": "address",
          "name": "account",
          "type": "address"
        },
        {
          "indexed": true,
          "internalType": "address",
          "name": "sender",
          "type": "address"
        }
      ],
      "name": "RoleRevoked",
      "type": "event"
    },
    {
      "anonymous": false,
      "inputs": [
        {
          "indexed": true,
          "internalType": "address",
          "name": "from",
          "type": "address"
        },
        {
          "indexed": true,
          "internalType": "address",
          "name": "nftAddress",
          "type": "address"
        },
        {
          "indexed": false,
          "internalType": "uint256",
          "name": "tokenId",
          "type": "uint256"
        }
      ],
      "name": "Staked",
      "type": "event"
    },
    {
      "anonymous": false,
      "inputs": [
        {
          "indexed": true,
          "internalType": "address",
          "name": "nftAddress",
          "type": "address"
        },
        {
          "indexed": false,
          "internalType": "address",
          "name": "rewardToken",
          "type": "address"
        },
        {
          "indexed": false,
          "internalType": "uint256",
          "name": "startTime",
          "type": "uint256"
        }
      ],
      "name": "StakingConfigCreated",
      "type": "event"
    },
    {
      "anonymous": false,
      "inputs": [
        {
          "indexed": true,
          "internalType": "address",
          "name": "nftAddress",
          "type": "address"
        }
      ],
      "name": "StakingConfigDeleted",
      "type": "event"
    },
    {
      "anonymous": false,
      "inputs": [
        {
          "indexed": true,
          "internalType": "address",
          "name": "nftAddress",
          "type": "address"
        },
        {
          "indexed": false,
          "internalType": "address",
          "name": "rewardToken",
          "type": "address"
        },
        {
          "indexed": false,
          "internalType": "uint256",
          "name": "startTime",
          "type": "uint256"
        }
      ],
      "name": "StakingConfigUpdated",
      "type": "event"
    },
    {
      "anonymous": false,
      "inputs": [
        {
          "indexed": true,
          "internalType": "address",
          "name": "by",
          "type": "address"
        },
        {
          "indexed": true,
          "internalType": "address",
          "name": "nftAddress",
          "type": "address"
        },
        {
          "indexed": false,
          "internalType": "uint256",
          "name": "tokenId",
          "type": "uint256"
        }
      ],
      "name": "StakingUnlocked",
      "type": "event"
    },
    {
      "anonymous": false,
      "inputs": [
        {
          "indexed": true,
          "internalType": "address",
          "name": "by",
          "type": "address"
        },
        {
          "indexed": true,
          "internalType": "address",
          "name": "nftAddress",
          "type": "address"
        },
        {
          "indexed": false,
          "internalType": "uint256",
          "name": "tokenId",
          "type": "uint256"
        },
        {
          "indexed": false,
          "internalType": "uint256",
          "name": "treeId",
          "type": "uint256"
        },
        {
          "indexed": false,
          "internalType": "uint256",
          "name": "skillId",
          "type": "uint256"
        },
        {
          "indexed": false,
          "internalType": "uint256",
          "name": "canceledAt",
          "type": "uint256"
        }
      ],
      "name": "TrainingCanceled",
      "type": "event"
    },
    {
      "anonymous": false,
      "inputs": [
        {
          "indexed": true,
          "internalType": "address",
          "name": "by",
          "type": "address"
        },
        {
          "indexed": true,
          "internalType": "address",
          "name": "nftAddress",
          "type": "address"
        },
        {
          "indexed": false,
          "internalType": "uint256",
          "name": "tokenId",
          "type": "uint256"
        },
        {
          "indexed": false,
          "internalType": "uint256",
          "name": "treeId",
          "type": "uint256"
        },
        {
          "indexed": false,
          "internalType": "uint256",
          "name": "skillId",
          "type": "uint256"
        },
        {
          "indexed": false,
          "internalType": "uint256",
          "name": "level",
          "type": "uint256"
        }
      ],
      "name": "TrainingFinished",
      "type": "event"
    },
    {
      "anonymous": false,
      "inputs": [
        {
          "indexed": true,
          "internalType": "address",
          "name": "by",
          "type": "address"
        },
        {
          "indexed": true,
          "internalType": "address",
          "name": "nftAddress",
          "type": "address"
        },
        {
          "indexed": false,
          "internalType": "uint256",
          "name": "tokenId",
          "type": "uint256"
        },
        {
          "indexed": false,
          "internalType": "uint256",
          "name": "treeId",
          "type": "uint256"
        },
        {
          "indexed": false,
          "internalType": "uint256",
          "name": "skillId",
          "type": "uint256"
        },
        {
          "indexed": false,
          "internalType": "uint256",
          "name": "level",
          "type": "uint256"
        },
        {
          "indexed": false,
          "internalType": "uint256",
          "name": "startedAt",
          "type": "uint256"
        },
        {
          "indexed": false,
          "internalType": "uint256",
          "name": "completeAt",
          "type": "uint256"
        }
      ],
      "name": "TrainingStarted",
      "type": "event"
    },
    {
      "anonymous": false,
      "inputs": [
        {
          "indexed": false,
          "internalType": "address",
          "name": "account",
          "type": "address"
        }
      ],
      "name": "Unpaused",
      "type": "event"
    },
    {
      "anonymous": false,
      "inputs": [
        {
          "indexed": true,
          "internalType": "address",
          "name": "from",
          "type": "address"
        },
        {
          "indexed": true,
          "internalType": "address",
          "name": "nftAddress",
          "type": "address"
        },
        {
          "indexed": false,
          "internalType": "uint256",
          "name": "tokenId",
          "type": "uint256"
        }
      ],
      "name": "Unstaked",
      "type": "event"
    },
    {
      "inputs": [],
      "name": "DEFAULT_ADMIN_ROLE",
      "outputs": [
        {
          "internalType": "bytes32",
          "name": "",
          "type": "bytes32"
        }
      ],
      "stateMutability": "view",
      "type": "function"
    },
    {
      "inputs": [],
      "name": "GAME_STORAGE",
      "outputs": [
        {
          "internalType": "contract IGameStorageUpgradeable",
          "name": "",
          "type": "address"
        }
      ],
      "stateMutability": "view",
      "type": "function"
    },
    {
      "inputs": [],
      "name": "PAUSER_ROLE",
      "outputs": [
        {
          "internalType": "bytes32",
          "name": "",
          "type": "bytes32"
        }
      ],
      "stateMutability": "view",
      "type": "function"
    },
    {
      "inputs": [],
      "name": "UPDATER_ROLE",
      "outputs": [
        {
          "internalType": "bytes32",
          "name": "",
          "type": "bytes32"
        }
      ],
      "stateMutability": "view",
      "type": "function"
    },
    {
      "inputs": [
        {
          "internalType": "uint256[]",
          "name": "level",
          "type": "uint256[]"
        },
        {
          "internalType": "uint256[]",
          "name": "cost",
          "type": "uint256[]"
        },
        {
          "internalType": "uint256[]",
          "name": "time",
          "type": "uint256[]"
        }
      ],
      "name": "batchSetTrainingCosts",
      "outputs": [],
      "stateMutability": "nonpayable",
      "type": "function"
    },
    {
      "inputs": [
        {
          "internalType": "address[]",
          "name": "nftAddresses",
          "type": "address[]"
        },
        {
          "internalType": "uint256[]",
          "name": "tokenIds",
          "type": "uint256[]"
        }
      ],
      "name": "batchStake",
      "outputs": [],
      "stateMutability": "nonpayable",
      "type": "function"
    },
    {
      "inputs": [
        {
          "internalType": "address[]",
          "name": "nftAddresses",
          "type": "address[]"
        },
        {
          "internalType": "uint256[]",
          "name": "tokenIds",
          "type": "uint256[]"
        }
      ],
      "name": "batchUnstake",
      "outputs": [],
      "stateMutability": "nonpayable",
      "type": "function"
    },
    {
      "inputs": [
        {
          "internalType": "address",
          "name": "nftAddress",
          "type": "address"
        },
        {
          "internalType": "uint256",
          "name": "tokenId",
          "type": "uint256"
        }
      ],
      "name": "cancelTraining",
      "outputs": [],
      "stateMutability": "nonpayable",
      "type": "function"
    },
    {
      "inputs": [],
      "name": "claim",
      "outputs": [],
      "stateMutability": "nonpayable",
      "type": "function"
    },
    {
      "inputs": [
        {
          "internalType": "address",
          "name": "nftAddress",
          "type": "address"
        },
        {
          "internalType": "address",
          "name": "rewardToken",
          "type": "address"
        },
        {
          "internalType": "uint256",
          "name": "startTime",
          "type": "uint256"
        },
        {
          "internalType": "uint256",
          "name": "maxPointsPerSkill",
          "type": "uint256"
        },
        {
          "internalType": "uint256[]",
          "name": "treeIds",
          "type": "uint256[]"
        },
        {
          "internalType": "uint256[]",
          "name": "skillIds",
          "type": "uint256[]"
        }
      ],
      "name": "createStakingConfig",
      "outputs": [],
      "stateMutability": "nonpayable",
      "type": "function"
    },
    {
      "inputs": [
        {
          "internalType": "address",
          "name": "nftAddress",
          "type": "address"
        }
      ],
      "name": "deleteStakingConfig",
      "outputs": [],
      "stateMutability": "nonpayable",
      "type": "function"
    },
    {
      "inputs": [
        {
          "internalType": "address",
          "name": "token",
          "type": "address"
        },
        {
          "internalType": "uint256",
          "name": "amount",
          "type": "uint256"
        }
      ],
      "name": "depositPoolRewards",
      "outputs": [],
      "stateMutability": "nonpayable",
      "type": "function"
    },
    {
      "inputs": [
        {
          "internalType": "address",
          "name": "nftAddress",
          "type": "address"
        },
        {
          "internalType": "uint256",
          "name": "tokenId",
          "type": "uint256"
        }
      ],
      "name": "enableStaking",
      "outputs": [],
      "stateMutability": "nonpayable",
      "type": "function"
    },
    {
      "inputs": [
        {
          "internalType": "address",
          "name": "nftAddress",
          "type": "address"
        },
        {
          "internalType": "uint256",
          "name": "tokenId",
          "type": "uint256"
        }
      ],
      "name": "finishTraining",
      "outputs": [],
      "stateMutability": "nonpayable",
      "type": "function"
    },
    {
      "inputs": [],
      "name": "forceDisperse",
      "outputs": [],
      "stateMutability": "nonpayable",
      "type": "function"
    },
    {
      "inputs": [],
      "name": "getActiveTraining",
      "outputs": [
        {
          "components": [
            {
              "internalType": "address",
              "name": "_address",
              "type": "address"
            },
            {
              "internalType": "uint256",
              "name": "tokenId",
              "type": "uint256"
            },
            {
              "internalType": "uint256",
              "name": "level",
              "type": "uint256"
            },
            {
              "internalType": "uint256",
              "name": "treeId",
              "type": "uint256"
            },
            {
              "internalType": "uint256",
              "name": "skillId",
              "type": "uint256"
            },
            {
              "internalType": "uint256",
              "name": "startedAt",
              "type": "uint256"
            },
            {
              "internalType": "uint256",
              "name": "completeAt",
              "type": "uint256"
            }
          ],
          "internalType": "struct ProfessionStakingUpgradeable.TrainingStatus[]",
          "name": "",
          "type": "tuple[]"
        }
      ],
      "stateMutability": "view",
      "type": "function"
    },
    {
      "inputs": [
        {
          "internalType": "address",
          "name": "nftAddress",
          "type": "address"
        },
        {
          "internalType": "uint256",
          "name": "tokenId",
          "type": "uint256"
        }
      ],
      "name": "getAllowedSkillChoices",
      "outputs": [
        {
          "internalType": "uint256[]",
          "name": "",
          "type": "uint256[]"
        }
      ],
      "stateMutability": "view",
      "type": "function"
    },
    {
      "inputs": [
        {
          "internalType": "bytes32",
          "name": "role",
          "type": "bytes32"
        }
      ],
      "name": "getRoleAdmin",
      "outputs": [
        {
          "internalType": "bytes32",
          "name": "",
          "type": "bytes32"
        }
      ],
      "stateMutability": "view",
      "type": "function"
    },
    {
      "inputs": [],
      "name": "getStaked",
      "outputs": [
        {
          "components": [
            {
              "internalType": "address",
              "name": "_address",
              "type": "address"
            },
            {
              "internalType": "uint256",
              "name": "tokenId",
              "type": "uint256"
            },
            {
              "internalType": "uint256",
              "name": "rewardFrom",
              "type": "uint256"
            }
          ],
          "internalType": "struct ProfessionStakingUpgradeable.NFT[]",
          "name": "",
          "type": "tuple[]"
        }
      ],
      "stateMutability": "view",
      "type": "function"
    },
    {
      "inputs": [
        {
          "internalType": "address",
          "name": "ntfAddress",
          "type": "address"
        },
        {
          "internalType": "uint256",
          "name": "tokenId",
          "type": "uint256"
        }
      ],
      "name": "getTotalProfessionSkillPoints",
      "outputs": [
        {
          "internalType": "uint256",
          "name": "",
          "type": "uint256"
        }
      ],
      "stateMutability": "view",
      "type": "function"
    },
    {
      "inputs": [
        {
          "internalType": "bytes32",
          "name": "role",
          "type": "bytes32"
        },
        {
          "internalType": "address",
          "name": "account",
          "type": "address"
        }
      ],
      "name": "grantRole",
      "outputs": [],
      "stateMutability": "nonpayable",
      "type": "function"
    },
    {
      "inputs": [
        {
          "internalType": "bytes32",
          "name": "role",
          "type": "bytes32"
        },
        {
          "internalType": "address",
          "name": "account",
          "type": "address"
        }
      ],
      "name": "hasRole",
      "outputs": [
        {
          "internalType": "bool",
          "name": "",
          "type": "bool"
        }
      ],
      "stateMutability": "view",
      "type": "function"
    },
    {
      "inputs": [],
      "name": "initialize",
      "outputs": [],
      "stateMutability": "nonpayable",
      "type": "function"
    },
    {
      "inputs": [
        {
          "internalType": "address",
          "name": "nftAddress",
          "type": "address"
        },
        {
          "internalType": "uint256",
          "name": "tokenId",
          "type": "uint256"
        }
      ],
      "name": "isStakingEnabled",
      "outputs": [
        {
          "internalType": "bool",
          "name": "",
          "type": "bool"
        }
      ],
      "stateMutability": "view",
      "type": "function"
    },
    {
      "inputs": [
        {
          "internalType": "address",
          "name": "operator",
          "type": "address"
        },
        {
          "internalType": "address",
          "name": "from",
          "type": "address"
        },
        {
          "internalType": "uint256",
          "name": "tokenId",
          "type": "uint256"
        },
        {
          "internalType": "bytes",
          "name": "data",
          "type": "bytes"
        }
      ],
      "name": "onERC721Received",
      "outputs": [
        {
          "internalType": "bytes4",
          "name": "",
          "type": "bytes4"
        }
      ],
      "stateMutability": "pure",
      "type": "function"
    },
    {
      "inputs": [],
      "name": "pause",
      "outputs": [],
      "stateMutability": "nonpayable",
      "type": "function"
    },
    {
      "inputs": [],
      "name": "paused",
      "outputs": [
        {
          "internalType": "bool",
          "name": "",
          "type": "bool"
        }
      ],
      "stateMutability": "view",
      "type": "function"
    },
    {
      "inputs": [],
      "name": "pendingRewards",
      "outputs": [
        {
          "internalType": "uint256",
          "name": "",
          "type": "uint256"
        }
      ],
      "stateMutability": "view",
      "type": "function"
    },
    {
      "inputs": [
        {
          "internalType": "bytes32",
          "name": "role",
          "type": "bytes32"
        },
        {
          "internalType": "address",
          "name": "account",
          "type": "address"
        }
      ],
      "name": "renounceRole",
      "outputs": [],
      "stateMutability": "nonpayable",
      "type": "function"
    },
    {
      "inputs": [
        {
          "internalType": "bytes32",
          "name": "role",
          "type": "bytes32"
        },
        {
          "internalType": "address",
          "name": "account",
          "type": "address"
        }
      ],
      "name": "revokeRole",
      "outputs": [],
      "stateMutability": "nonpayable",
      "type": "function"
    },
    {
      "inputs": [
        {
          "internalType": "address",
          "name": "_address",
          "type": "address"
        }
      ],
      "name": "setGameStorage",
      "outputs": [],
      "stateMutability": "nonpayable",
      "type": "function"
    },
    {
      "inputs": [
        {
          "internalType": "address",
          "name": "nftAddress",
          "type": "address"
        },
        {
          "internalType": "uint256",
          "name": "treeId",
          "type": "uint256"
        },
        {
          "internalType": "uint256",
          "name": "skillId",
          "type": "uint256"
        }
      ],
      "name": "setSkillPointer",
      "outputs": [],
      "stateMutability": "nonpayable",
      "type": "function"
    },
    {
      "inputs": [
        {
          "internalType": "uint256",
          "name": "level",
          "type": "uint256"
        },
        {
          "internalType": "uint256",
          "name": "cost",
          "type": "uint256"
        },
        {
          "internalType": "uint256",
          "name": "time",
          "type": "uint256"
        }
      ],
      "name": "setTrainingCost",
      "outputs": [],
      "stateMutability": "nonpayable",
      "type": "function"
    },
    {
      "inputs": [
        {
          "internalType": "address",
          "name": "nftAddress",
          "type": "address"
        },
        {
          "internalType": "uint256",
          "name": "tokenId",
          "type": "uint256"
        }
      ],
      "name": "stake",
      "outputs": [],
      "stateMutability": "nonpayable",
      "type": "function"
    },
    {
      "inputs": [
        {
          "internalType": "address",
          "name": "nftAddress",
          "type": "address"
        },
        {
          "internalType": "uint256",
          "name": "tokenId",
          "type": "uint256"
        },
        {
          "internalType": "uint256",
          "name": "treeId",
          "type": "uint256"
        },
        {
          "internalType": "uint256",
          "name": "skillId",
          "type": "uint256"
        }
      ],
      "name": "startTraining",
      "outputs": [],
      "stateMutability": "nonpayable",
      "type": "function"
    },
    {
      "inputs": [
        {
          "internalType": "bytes4",
          "name": "interfaceId",
          "type": "bytes4"
        }
      ],
      "name": "supportsInterface",
      "outputs": [
        {
          "internalType": "bool",
          "name": "",
          "type": "bool"
        }
      ],
      "stateMutability": "view",
      "type": "function"
    },
    {
      "inputs": [],
      "name": "unpause",
      "outputs": [],
      "stateMutability": "nonpayable",
      "type": "function"
    },
    {
      "inputs": [
        {
          "internalType": "address",
          "name": "nftAddress",
          "type": "address"
        },
        {
          "internalType": "uint256",
          "name": "tokenId",
          "type": "uint256"
        }
      ],
      "name": "unstake",
      "outputs": [],
      "stateMutability": "nonpayable",
      "type": "function"
    },
    {
      "inputs": [
        {
          "internalType": "address",
          "name": "nftAddress",
          "type": "address"
        },
        {
          "internalType": "address",
          "name": "rewardToken",
          "type": "address"
        },
        {
          "internalType": "uint256",
          "name": "startTime",
          "type": "uint256"
        },
        {
          "internalType": "uint256",
          "name": "maxPointsPerSkill",
          "type": "uint256"
        }
      ],
      "name": "updateStakingConfig",
      "outputs": [],
      "stateMutability": "nonpayable",
      "type": "function"
    },
    {
      "inputs": [
        {
          "internalType": "address",
          "name": "to",
          "type": "address"
        },
        {
          "internalType": "address",
          "name": "token",
          "type": "address"
        },
        {
          "internalType": "uint256",
          "name": "amount",
          "type": "uint256"
        }
      ],
      "name": "withdrawPoolRewards",
      "outputs": [],
      "stateMutability": "nonpayable",
      "type": "function"
    }
  ],
  "bytecode": "0x60806040523480156200001157600080fd5b50600054610100900460ff166200002f5760005460ff161562000039565b62000039620000de565b620000a15760405162461bcd60e51b815260206004820152602e60248201527f496e697469616c697a61626c653a20636f6e747261637420697320616c72656160448201526d191e481a5b9a5d1a585b1a5e995960921b606482015260840160405180910390fd5b600054610100900460ff16158015620000c4576000805461ffff19166101011790555b8015620000d7576000805461ff00191690555b506200010b565b6000620000f630620000fc60201b620032e61760201c565b15905090565b6001600160a01b03163b151590565b614657806200011b6000396000f3fe608060405234801561001057600080fd5b50600436106102485760003560e01c806386e8953d1161013b578063c2a672e0116100b8578063d547741f1161007c578063d547741f1461053a578063e62ccc9c1461054d578063e63ab1e914610560578063eded3fda14610575578063fa5887ee1461057d57600080fd5b8063c2a672e0146104e4578063c486efbf146104f7578063c59abf9f146104ff578063cc3f7b1c14610514578063d3a13d421461052757600080fd5b8063a401344b116100ff578063a401344b14610485578063abfc6e7314610498578063adc9772e146104ab578063aed2151a146104be578063bea64ba2146104d157600080fd5b806386e8953d1461042f57806391d148541461044257806394a77066146104555780639f8f606814610468578063a217fddf1461047d57600080fd5b80633f4ba83a116101c95780635c975abb1161018d5780635c975abb146103ee5780637e5b5e5f146103f95780638129fc1c1461040c57806381fda71d146104145780638456cb591461042757600080fd5b80633f4ba83a1461039657806347e633801461039e5780634cb12fee146103b35780634e71d92d146103c65780635a2d8800146103ce57600080fd5b80632f2ff15d116102105780632f2ff15d1461033757806332b95a6f1461034a57806333820bac1461035d57806336568abe146103705780633d564e491461038357600080fd5b806301ffc9a71461024d5780630ae7a46114610275578063150b7a021461028a57806323de54d8146102db578063248a9ca314610306575b600080fd5b61026061025b366004613bff565b610590565b60405190151581526020015b60405180910390f35b610288610283366004613c29565b6105c7565b005b6102c2610298366004613c71565b7f150b7a023d4804d13e8c85fb27262cb750cf6ba9f9dd3bb30d90f482ceeb4b1f95945050505050565b6040516001600160e01b0319909116815260200161026c565b60c9546102ee906001600160a01b031681565b6040516001600160a01b03909116815260200161026c565b610329610314366004613d0c565b60009081526097602052604090206001015490565b60405190815260200161026c565b610288610345366004613d25565b6105f9565b610288610358366004613e27565b610624565b61028861036b366004613ee7565b6106cb565b61028861037e366004613d25565b610707565b610288610391366004613e27565b610785565b610288610800565b6103296000805160206145e283398151915281565b6102886103c1366004613f1a565b61082c565b610288610a67565b6103e16103dc366004613f1a565b610ced565b60405161026c9190613f44565b60335460ff16610260565b610288610407366004613f1a565b6111ca565b610288611291565b610329610422366004613f1a565b611394565b610288611454565b61026061043d366004613f1a565b61147d565b610260610450366004613d25565b611540565b610288610463366004613f88565b61156b565b610470611931565b60405161026c919061401f565b610329600081565b6102886104933660046140aa565b611c9c565b6102886104a63660046140c5565b611d45565b6102886104b9366004613f1a565b611f46565b6102886104cc366004614107565b6121c5565b6102886104df36600461418f565b6122c8565b6102886104f2366004613f1a565b612483565b61028861283f565b610507612853565b60405161026c91906141cb565b610288610522366004613f1a565b6128e0565b6102886105353660046140aa565b612bdb565b610288610548366004613d25565b612c17565b61028861055b366004613f1a565b612c3d565b61032960008051602061460283398151915281565b610329612d5d565b61028861058b366004614220565b612dd7565b60006001600160e01b03198216637965db0b60e01b14806105c157506301ffc9a760e01b6001600160e01b03198316145b92915050565b6000805160206145e28339815191526105e081336132f5565b50600092835260cb602052604090922090815560010155565b60008281526097602052604090206001015461061581336132f5565b61061f8383613359565b505050565b60335460ff16156106505760405162461bcd60e51b815260040161064790614259565b60405180910390fd5b80518251146106715760405162461bcd60e51b815260040161064790614283565b60005b825181101561061f576106b9838281518110610692576106926142c7565b60200260200101518383815181106106ac576106ac6142c7565b6020026020010151611f46565b806106c3816142f3565b915050610674565b6000805160206145e28339815191526106e481336132f5565b506001600160a01b03909216600090815260d06020526040902090815560010155565b6001600160a01b03811633146107775760405162461bcd60e51b815260206004820152602f60248201527f416363657373436f6e74726f6c3a2063616e206f6e6c792072656e6f756e636560448201526e103937b632b9903337b91039b2b63360891b6064820152608401610647565b61078182826133df565b5050565b80518251146107a65760405162461bcd60e51b815260040161064790614283565b60005b825181101561061f576107ee8382815181106107c7576107c76142c7565b60200260200101518383815181106107e1576107e16142c7565b6020026020010151612483565b806107f8816142f3565b9150506107a9565b60008051602061460283398151915261081981336132f5565b610821613446565b61082961347a565b50565b33600090815260ca602090815260408083206001600160a01b03861684528252808320848452909152902060058101546108975760405162461bcd60e51b815260206004820152600c60248201526b4e6f7420747261696e696e6760a01b6044820152606401610647565b42816006015411156108eb5760405162461bcd60e51b815260206004820152601a60248201527f547261696e696e67207374696c6c20696e2070726f67726573730000000000006044820152606401610647565b6108f93361350d565b61350d565b60c95460038201546004808401546002850154604051630d126da960e11b81526001600160a01b03898116948201949094526024810188905260448101949094526064840191909152608483015290911690631a24db529060a401600060405180830381600087803b15801561096e57600080fd5b505af1158015610982573d6000803e3d6000fd5b50505050826001600160a01b03166109973390565b6001600160a01b03167f4cffb663b46d78e759211fc8a998ed5dd16066c4229b4b4e94bc0ff7431e85a8848460030154856004015486600201546040516109f7949392919093845260208401929092526040830152606082015260800190565b60405180910390a35033600090815260ca602090815260408083206001600160a01b039590951683529381528382209282529190915290812080546001600160a01b0319168155600181018290556002810182905560038101829055600481018290556005810182905560060155565b33600090815260cc602052604090206001810154610aba5760405162461bcd60e51b815260206004820152601060248201526f4e6f7468696e6720746f20636c61696d60801b6044820152606401610647565b6000805b6001830154811015610b1057826001018181548110610adf57610adf6142c7565b90600052602060002090600202016001015482610afc919061430e565b915080610b08816142f3565b915050610abe565b50610b1f600183016000613b33565b6040516370a0823160e01b815230600482015273892d81221484f690c0a97d3dd18b9144a3ecdfb790829082906370a082319060240160206040518083038186803b158015610b6d57600080fd5b505afa158015610b81573d6000803e3d6000fd5b505050506040513d601f19601f82011682018060405250810190610ba59190614326565b1015610bf35760405162461bcd60e51b815260206004820181905260248201527f496e73756666696369656e74207265776172647320696e20636f6e74726163746044820152606401610647565b6001600160a01b03811663a9059cbb336040516001600160e01b031960e084901b1681526001600160a01b03909116600482015260248101859052604401602060405180830381600087803b158015610c4b57600080fd5b505af1158015610c5f573d6000803e3d6000fd5b505050506040513d601f19601f82011682018060405250810190610c83919061433f565b506040518281526001600160a01b0382169033907ff7a40077ff7a04c7e61f6f26fb13774259ddf1b6bce9ecf26a8276cdd39926839060200160405180910390a38254158015610cd557506001830154155b1561061f57610ce7335b60cd90613701565b50505050565b6001600160a01b038216600090815260cf60209081526040808320815160a08101835281548152600182015481850152600282018054845181870281018701865281815260609796939586019390929190830182828015610d6d57602002820191906000526020600020905b815481526020019060010190808311610d59575b5050505050815260200160038201805480602002602001604051908101604052809291908181526020018280548015610dc557602002820191906000526020600020905b815481526020019060010190808311610db1575b5050509183525050600491909101546001600160a01b03166020909101528051909150610e345760405162461bcd60e51b815260206004820152601e60248201527f4e6f20747261696e696e672073657373696f6e20636f6e6669677572656400006044820152606401610647565b600081604001515167ffffffffffffffff811115610e5457610e54613d51565b604051908082528060200260200182016040528015610e7d578160200160208202803683370190505b50905060008060005b846040015151811015610fec5760c954604086015180516001600160a01b039092169163a6f4e49e918b918b919086908110610ec457610ec46142c7565b602002602001015189606001518681518110610ee257610ee26142c7565b60200260200101516040518563ffffffff1660e01b8152600401610f099493929190614361565b60206040518083038186803b158015610f2157600080fd5b505afa158015610f35573d6000803e3d6000fd5b505050506040513d601f19601f82011682018060405250810190610f599190614326565b848281518110610f6b57610f6b6142c7565b6020026020010181815250506000848281518110610f8b57610f8b6142c7565b60200260200101511115610fa75782610fa3816142f3565b9350505b8460200151848281518110610fbe57610fbe6142c7565b60200260200101511415610fda5781610fd6816142f3565b9250505b80610fe4816142f3565b915050610e86565b5081611000575050506060015190506105c1565b80600214156110175750606093506105c192505050565b6000600185604001515161102b9190614387565b67ffffffffffffffff81111561104357611043613d51565b60405190808252806020026020018201604052801561106c578160200160208202803683370190505b5090506000805b85518110156111bc5783600114801561108c5750846001145b80156110b157508581815181106110a5576110a56142c7565b60200260200101516000145b156110f357866060015181815181106110cc576110cc6142c7565b60200260200101518383815181106110e6576110e66142c7565b6020026020010181815250505b6000868281518110611107576111076142c7565b60200260200101511180156111385750866020015186828151811061112e5761112e6142c7565b6020026020010151105b156111aa576040805160018082528183019092526000916020808301908036833701905050905087606001518281518110611175576111756142c7565b602002602001015181600081518110611190576111906142c7565b602090810291909101015297506105c19650505050505050565b806111b4816142f3565b915050611073565b509098975050505050505050565b6040516323b872dd60e01b81526001600160a01b038316906323b872dd906111fa9033903090869060040161439e565b602060405180830381600087803b15801561121457600080fd5b505af1158015611228573d6000803e3d6000fd5b505050506040513d601f19601f8201168201806040525081019061124c919061433f565b506040518181526001600160a01b0383169033907ffbed5bbbffe0fa857a9b62acaea1ea1c076828145e69464a9b483a477fb6b0009060200160405180910390a35050565b600054610100900460ff166112ac5760005460ff16156112b0565b303b155b6113135760405162461bcd60e51b815260206004820152602e60248201527f496e697469616c697a61626c653a20636f6e747261637420697320616c72656160448201526d191e481a5b9a5d1a585b1a5e995960921b6064820152608401610647565b600054610100900460ff16158015611335576000805461ffff19166101011790555b61133d61371d565b61134561374e565b611350600033613359565b61136860008051602061460283398151915233613359565b6113806000805160206145e283398151915233613359565b8015610829576000805461ff001916905550565b600080805b600c81101561144c5760c95460405163537a724f60e11b81526000916001600160a01b03169063a6f4e49e906113da90899089906001908890600401614361565b60206040518083038186803b1580156113f257600080fd5b505afa158015611406573d6000803e3d6000fd5b505050506040513d601f19601f8201168201806040525081019061142a9190614326565b9050611436818461430e565b9250508080611444906142f3565b915050611399565b509392505050565b60008051602061460283398151915261146d81336132f5565b611475613446565b610829613775565b6001600160a01b03808316600090815260d0602052604080822060c95481546001830154935163537a724f60e11b8152949592948694929093169263a6f4e49e926114cf928a928a9290600401614361565b60206040518083038186803b1580156114e757600080fd5b505afa1580156114fb573d6000803e3d6000fd5b505050506040513d601f19601f8201168201806040525081019061151f9190614326565b90508060011415611535576001925050506105c1565b506000949350505050565b60009182526097602090815260408084206001600160a01b0393909316845291905290205460ff1690565b6000805160206145e283398151915261158481336132f5565b6001600160a01b038716600090815260cf6020526040902054156115ea5760405162461bcd60e51b815260206004820152601d60248201527f5374616b696e6720636f6e66696720616c7265616479206578697374730000006044820152606401610647565b60008351116116335760405162461bcd60e51b81526020600482015260156024820152744d697373696e672074726565496420636f6e66696760581b6044820152606401610647565b600082511161167d5760405162461bcd60e51b81526020600482015260166024820152754d697373696e6720736b696c6c496420636f6e66696760501b6044820152606401610647565b82518251146116dd5760405162461bcd60e51b815260206004820152602660248201527f5472656549647320616e6420536b696c6c49647320617272617973206d757374604482015265040dac2e8c6d60d31b6064820152608401610647565b600084116116fd5760405162461bcd60e51b8152600401610647906143c2565b42851161171c5760405162461bcd60e51b81526004016106479061440a565b6040516370a0823160e01b81523060048201526000906001600160a01b038816906370a082319060240160206040518083038186803b15801561175e57600080fd5b505afa158015611772573d6000803e3d6000fd5b505050506040513d601f19601f820116820180604052508101906117969190614326565b116117da5760405162461bcd60e51b81526020600482015260146024820152734e6f2066756e647320666f72207265776172647360601b6044820152606401610647565b6117e2613446565b6001600160a01b03878116600090815260cf602052604081206004810180546001600160a01b031916938a169390931790925586825560019091018590555b83518110156118e15760cf6000896001600160a01b03166001600160a01b03168152602001908152602001600020600201848281518110611864576118646142c7565b6020908102919091018101518254600181018455600093845282842001556001600160a01b038a16825260cf90526040902083516003909101908490839081106118b0576118b06142c7565b60209081029190910181015182546001810184556000938452919092200155806118d9816142f3565b915050611821565b50604080516001600160a01b038881168252602082018890528916917fc6e5f1ee3138795eeda2fa0aab37379a177c4f04396146dd2b154ab55f5c5585910160405180910390a250505050505050565b33600090815260cc60209081526040808320805482518185028101850190935280835260609493849084015b828210156119b2576000848152602090819020604080516060810182526003860290920180546001600160a01b031683526001808201548486015260029091015491830191909152908352909201910161195d565b5050505090506000805b8251811015611ac95733600090815260ca60205260408120845182908690859081106119ea576119ea6142c7565b6020026020010151600001516001600160a01b03166001600160a01b031681526020019081526020016000206000858481518110611a2a57611a2a6142c7565b6020908102919091018101518101518252818101929092526040908101600020815160e08101835281546001600160a01b031681526001820154938101939093526002810154918301919091526003810154606083015260048101546080830152600581015460a08301526006015460c0820181905290915015611ab65782611ab2816142f3565b9350505b5080611ac1816142f3565b9150506119bc565b5060008167ffffffffffffffff811115611ae557611ae5613d51565b604051908082528060200260200182016040528015611b5f57816020015b611b4c6040518060e0016040528060006001600160a01b031681526020016000815260200160008152602001600081526020016000815260200160008152602001600081525090565b815260200190600190039081611b035790505b5090506000805b8451811015611c925733600090815260ca6020526040812086518290889085908110611b9457611b946142c7565b6020026020010151600001516001600160a01b03166001600160a01b031681526020019081526020016000206000878481518110611bd457611bd46142c7565b6020908102919091018101518101518252818101929092526040908101600020815160e08101835281546001600160a01b031681526001820154938101939093526002810154918301919091526003810154606083015260048101546080830152600581015460a08301526006015460c0820181905290915015611c7f5780848481518110611c6557611c656142c7565b60200260200101819052508280611c7b906142f3565b9350505b5080611c8a816142f3565b915050611b66565b5090949350505050565b6000805160206145e2833981519152611cb581336132f5565b611cbd613446565b6001600160a01b038216600090815260cf602052604081208181556001810182905590611ced6002830182613b54565b611cfb600383016000613b54565b5060040180546001600160a01b03191690556040516001600160a01b038316907fed93036dfb7e5500a2a7f2471a56e6b3389a8c28c72adca8ba9f6a4025ca6d5890600090a25050565b6000805160206145e2833981519152611d5e81336132f5565b6001600160a01b038516600090815260cf6020526040902054611dc35760405162461bcd60e51b815260206004820152601d60248201527f5374616b696e6720636f6e66696720646f6573206e6f742065786973740000006044820152606401610647565b60008211611de35760405162461bcd60e51b8152600401610647906143c2565b428311611e025760405162461bcd60e51b81526004016106479061440a565b6040516370a0823160e01b81523060048201526000906001600160a01b038616906370a082319060240160206040518083038186803b158015611e4457600080fd5b505afa158015611e58573d6000803e3d6000fd5b505050506040513d601f19601f82011682018060405250810190611e7c9190614326565b11611ec05760405162461bcd60e51b81526020600482015260146024820152734e6f2066756e647320666f72207265776172647360601b6044820152606401610647565b611ec8613446565b6001600160a01b03858116600081815260cf60209081526040918290206004810180546001600160a01b031916958a169586179055878155600181018790558251948552908401879052927f255d2940ab142f16cd2452c452fc20185bcbc341ce9c1646bc3d4feac9dc3371910160405180910390a2505050505050565b60335460ff1615611f695760405162461bcd60e51b815260040161064790614259565b6001600160a01b038216600090815260cf6020526040902054611fbe5760405162461bcd60e51b815260206004820152600d60248201526c496e76616c6964207374616b6560981b6044820152606401610647565b6001600160a01b038216600090815260cf60205260409020544210156120205760405162461bcd60e51b815260206004820152601760248201527614dd185ada5b99c81a185cc81b9bdd081cdd185c9d1959604a1b6044820152606401610647565b61202a828261147d565b6120765760405162461bcd60e51b815260206004820152601f60248201527f5374616b696e67206973206e6f7420756e6c6f636b656420666f72206e6674006044820152606401610647565b604051632142170760e11b81526001600160a01b038316906342842e0e906120a69033903090869060040161439e565b600060405180830381600087803b1580156120c057600080fd5b505af11580156120d4573d6000803e3d6000fd5b50505050612105604051806060016040528060006001600160a01b0316815260200160008152602001600081525090565b6001600160a01b0383168152602081018290524260408201526121273361350d565b61213260cd336137cd565b5033600081815260cc6020908152604080832080546001808201835591855293839020865160039095020180546001600160a01b0319166001600160a01b039586161781558684015191810191909155858201516002909101555185815291861692917f5dac0c1b1112564a045ba943c9d50270893e8e826c49be8e7073adc713ab7bd7910160405180910390a3505050565b6000805160206145e28339815191526121de81336132f5565b825184511480156121f0575081518351145b61224d5760405162461bcd60e51b815260206004820152602860248201527f416c6c20696e70757420617272617973206d757374206265207468652073616d6044820152670ca40d8cadccee8d60c31b6064820152608401610647565b60005b84518110156122c1576122af85828151811061226e5761226e6142c7565b6020026020010151858381518110612288576122886142c7565b60200260200101518584815181106122a2576122a26142c7565b60200260200101516105c7565b806122b9816142f3565b915050612250565b5050505050565b60006122d481336132f5565b6122dc613446565b6040516370a0823160e01b8152306004820152839083906001600160a01b038316906370a082319060240160206040518083038186803b15801561231f57600080fd5b505afa158015612333573d6000803e3d6000fd5b505050506040513d601f19601f820116820180604052508101906123579190614326565b101561239c5760405162461bcd60e51b8152602060048201526014602482015273496e73756666696369656e742062616c616e636560601b6044820152606401610647565b6040516323b872dd60e01b81526001600160a01b038216906323b872dd906123cc9030908990889060040161439e565b602060405180830381600087803b1580156123e657600080fd5b505af11580156123fa573d6000803e3d6000fd5b505050506040513d601f19601f8201168201806040525081019061241e919061433f565b50836001600160a01b0316856001600160a01b031661243a3390565b6001600160a01b03167f74ed50f6a2a005dd31f4766fb60918c4a6728cb0da9eeb81b9526bc6da11ec0f8660405161247491815260200190565b60405180910390a45050505050565b33600090815260cc6020526040902080546124d15760405162461bcd60e51b815260206004820152600e60248201526d139bc81391951cc81cdd185ad95960921b6044820152606401610647565b80546000906124e290600190614387565b67ffffffffffffffff8111156124fa576124fa613d51565b60405190808252806020026020018201604052801561255857816020015b612545604051806060016040528060006001600160a01b0316815260200160008152602001600081525090565b8152602001906001900390816125185790505b50905060008060005b84548110156126bd57866001600160a01b0316856000018281548110612589576125896142c7565b60009182526020909120600390910201546001600160a01b03161415806125d65750858560000182815481106125c1576125c16142c7565b90600052602060002090600302016001015414155b156126a6578454821061261c5760405162461bcd60e51b815260206004820152600e60248201526d139195081b9bdd081cdd185ad95960921b6044820152606401610647565b846000018181548110612631576126316142c7565b600091825260209182902060408051606081018252600390930290910180546001600160a01b03168352600181015493830193909352600290920154918101919091528451859084908110612688576126886142c7565b6020026020010181905250818061269e906142f3565b9250506126ab565b600192505b806126b5816142f3565b915050612561565b506126c73361350d565b6126d2846000613b72565b60005b835181101561276057846000018482815181106126f4576126f46142c7565b602090810291909101810151825460018082018555600094855293839020825160039092020180546001600160a01b0319166001600160a01b03909216919091178155918101519282019290925560409091015160029091015580612758816142f3565b9150506126d5565b50835415801561277257506001840154155b156127825761278033610cdf565b505b6040516323b872dd60e01b81526001600160a01b038716906323b872dd906127b290309033908a9060040161439e565b600060405180830381600087803b1580156127cc57600080fd5b505af11580156127e0573d6000803e3d6000fd5b50505050856001600160a01b03166127f53390565b6001600160a01b03167fd8654fcc8cf5b36d30b3f5e4688fc78118e6d68de60b9994e09902268b57c3e38760405161282f91815260200190565b60405180910390a3505050505050565b600061284b81336132f5565b610829613446565b33600090815260cc60209081526040808320805482518185028101850190935280835260609492939192909184015b828210156128d7576000848152602090819020604080516060810182526003860290920180546001600160a01b0316835260018082015484860152600290910154918301919091529083529092019101612882565b50505050905090565b60335460ff16156129035760405162461bcd60e51b815260040161064790614259565b6001600160a01b038216600090815260d06020526040812090612926848461147d565b905080156129765760405162461bcd60e51b815260206004820152601860248201527f5374616b696e6720616c726561647920756e6c6f636b656400000000000000006044820152606401610647565b6001600160a01b038416600090815260cf60205260409020546129d45760405162461bcd60e51b815260206004820152601660248201527514dd185ada5b99c81b9bdd0818dbdb999a59dd5c995960521b6044820152606401610647565b6001600160a01b038416600090815260cf6020526040902054421015612a365760405162461bcd60e51b815260206004820152601760248201527614dd185ada5b99c81a185cc81b9bdd081cdd185c9d1959604a1b6044820152606401610647565b6001600160a01b03848116600090815260cf602052604090206004015416806323b872dd336000805260cb6020527f4239c2c8c3d9b94feb214b0f54d7c869ce1ceb63517be57644336cda4967a468546040516001600160e01b031960e085901b168152612aa99291309160040161439e565b602060405180830381600087803b158015612ac357600080fd5b505af1158015612ad7573d6000803e3d6000fd5b505050506040513d601f19601f82011682018060405250810190612afb919061433f565b5060c9548354600180860154604051630d126da960e11b81526001600160a01b038a81166004830152602482018a9052604482019490945260648101919091526084810191909152911690631a24db529060a401600060405180830381600087803b158015612b6957600080fd5b505af1158015612b7d573d6000803e3d6000fd5b50505050846001600160a01b0316612b923390565b6001600160a01b03167f051144eeaaad1c4ee6b1eab928f531a9daf1687b3e0f8db00dae3f5df8c285db86604051612bcc91815260200190565b60405180910390a35050505050565b6000805160206145e2833981519152612bf481336132f5565b5060c980546001600160a01b0319166001600160a01b0392909216919091179055565b600082815260976020526040902060010154612c3381336132f5565b61061f83836133df565b33600090815260ca602090815260408083206001600160a01b0386168452825280832084845290915290206005810154612ca85760405162461bcd60e51b815260206004820152600c60248201526b4e6f7420747261696e696e6760a01b6044820152606401610647565b42816006015411612cfb5760405162461bcd60e51b815260206004820152601960248201527f547261696e696e6720616c72656164792066696e6973686564000000000000006044820152606401610647565b612d043361350d565b600381015460048201546040805185815260208101939093528201524260608201526001600160a01b0384169033907fc9b7c59fa980251f7ca7eae784c953e8a9f49d617be6edca0b41264ea05cb169906080016109f7565b600080805b33600090815260cc6020526040902060010154811015612dd15733600090815260cc60205260409020600101805482908110612da057612da06142c7565b90600052602060002090600202016001015482612dbd919061430e565b915080612dc9816142f3565b915050612d62565b50919050565b60335460ff1615612dfa5760405162461bcd60e51b815260040161064790614259565b6001600160a01b038416600090815260cf602052604090208054612e605760405162461bcd60e51b815260206004820152601e60248201527f4e6f20747261696e696e672073657373696f6e20636f6e6669677572656400006044820152606401610647565b8054421015612eb15760405162461bcd60e51b815260206004820152601c60248201527f547261696e696e6720686173206e6f74207374617274656420796574000000006044820152606401610647565b33600090815260ca602090815260408083206001600160a01b038916845282528083208784529091529020600581015415612f2e5760405162461bcd60e51b815260206004820152601f60248201527f547261696e696e6720697320616c726561647920696e2070726f6772657373006044820152606401610647565b6000612f3a8787610ced565b90506000815111612f8d5760405162461bcd60e51b815260206004820152601e60248201527f4e6f20747261696e696e672073657373696f6e7320617661696c61626c6500006044820152606401610647565b6000805b8251811015612fd65785838281518110612fad57612fad6142c7565b60200260200101511415612fc45760019150612fd6565b80612fce816142f3565b915050612f91565b50806130245760405162461bcd60e51b815260206004820152601760248201527f496e76616c696420747261696e696e67206f7074696f6e0000000000000000006044820152606401610647565b60c95460405163537a724f60e11b81526000916001600160a01b03169063a6f4e49e9061305b908c908c908c908c90600401614361565b60206040518083038186803b15801561307357600080fd5b505afa158015613087573d6000803e3d6000fd5b505050506040513d601f19601f820116820180604052508101906130ab9190614326565b9050600060cb816130bd84600161430e565b8152602001908152602001600020905085600101548260016130df919061430e565b111561312d5760405162461bcd60e51b815260206004820152601e60248201527f45786365656473206d6178696d756d20747261696e696e67206c6576656c00006044820152606401610647565b805461317b5760405162461bcd60e51b815260206004820152601d60248201527f547261696e696e67204c6576656c206973206e6f7420656e61626c65640000006044820152606401610647565b6131843361350d565b60048681015482546040516323b872dd60e01b81526001600160a01b03909216926323b872dd926131b992339230920161439e565b602060405180830381600087803b1580156131d357600080fd5b505af11580156131e7573d6000803e3d6000fd5b505050506040513d601f19601f8201168201806040525081019061320b919061433f565b5061321782600161430e565b60028601556003850188905560048501879055426005860181905560018201546132409161430e565b600686015584546001600160a01b0319166001600160a01b038b169081178655600186018a9055336001600160a01b03167f98d1944772cc1ee399725448c633b3ec863f8be81e490479055d810afaa0225c8b8b8b6132a088600161430e565b60058c015460068d0154604080519687526020870195909552938501929092526060840152608083015260a082015260c00160405180910390a350505050505050505050565b6001600160a01b03163b151590565b6132ff8282611540565b61078157613317816001600160a01b031660146137e2565b6133228360206137e2565b604051602001613333929190614480565b60408051601f198184030181529082905262461bcd60e51b8252610647916004016144f5565b6133638282611540565b6107815760008281526097602090815260408083206001600160a01b03851684529091529020805460ff1916600117905561339b3390565b6001600160a01b0316816001600160a01b0316837f2f8788117e7eff1d82e926ec794901d17c78024a50270940304540a733656f0d60405160405180910390a45050565b6133e98282611540565b156107815760008281526097602090815260408083206001600160a01b0385168085529252808320805460ff1916905551339285917ff6391f5c32d9c69d2a47ea670b442974b53935d1edc7fd64eb21e047a839171b9190a45050565b60005b61345360cd61397e565b811015610829576134686108f460cd83613988565b80613472816142f3565b915050613449565b60335460ff166134c35760405162461bcd60e51b815260206004820152601460248201527314185d5cd8589b194e881b9bdd081c185d5cd95960621b6044820152606401610647565b6033805460ff191690557f5db9ee0a495bf2e6ff9c91a7834c1ba4fdd244a5e8aa4e537bd38aeae4b073aa335b6040516001600160a01b03909116815260200160405180910390a1565b6001600160a01b038116600090815260cc60205260408120905b815481101561061f576000826000018281548110613547576135476142c7565b906000526020600020906003020160020154426135649190614387565b9050600060cf6000856000018581548110613581576135816142c7565b600091825260208083206003909202909101546001600160a01b031683528201929092526040018120855490925061360d908690869081106135c5576135c56142c7565b600091825260209091206003909102015486546001600160a01b03909116908790879081106135f6576135f66142c7565b906000526020600020906003020160010154611394565b905042856000018581548110613625576136256142c7565b9060005260206000209060030201600201819055508460010160405180604001604052808460040160009054906101000a90046001600160a01b03166001600160a01b031681526020018562015180856001613681919061430e565b61369390670de0b6b3a7640000614528565b61369d9190614547565b6136a79190614528565b90528154600180820184556000938452602093849020835160029093020180546001600160a01b0319166001600160a01b039093169290921782559190920151910155508291506136f99050816142f3565b915050613527565b6000613716836001600160a01b038416613994565b9392505050565b600054610100900460ff166137445760405162461bcd60e51b815260040161064790614569565b61374c613a87565b565b600054610100900460ff1661374c5760405162461bcd60e51b815260040161064790614569565b60335460ff16156137985760405162461bcd60e51b815260040161064790614259565b6033805460ff191660011790557f62e78cea01bee320cd4e420270b5ea74000d11b0c9f74754ebdbfc544b05a2586134f03390565b6000613716836001600160a01b038416613aba565b606060006137f1836002614528565b6137fc90600261430e565b67ffffffffffffffff81111561381457613814613d51565b6040519080825280601f01601f19166020018201604052801561383e576020820181803683370190505b509050600360fc1b81600081518110613859576138596142c7565b60200101906001600160f81b031916908160001a905350600f60fb1b81600181518110613888576138886142c7565b60200101906001600160f81b031916908160001a90535060006138ac846002614528565b6138b790600161430e565b90505b600181111561392f576f181899199a1a9b1b9c1cb0b131b232b360811b85600f16601081106138eb576138eb6142c7565b1a60f81b828281518110613901576139016142c7565b60200101906001600160f81b031916908160001a90535060049490941c93613928816145b4565b90506138ba565b5083156137165760405162461bcd60e51b815260206004820181905260248201527f537472696e67733a20686578206c656e67746820696e73756666696369656e746044820152606401610647565b60006105c1825490565b60006137168383613b09565b60008181526001830160205260408120548015613a7d5760006139b8600183614387565b85549091506000906139cc90600190614387565b9050818114613a315760008660000182815481106139ec576139ec6142c7565b9060005260206000200154905080876000018481548110613a0f57613a0f6142c7565b6000918252602080832090910192909255918252600188019052604090208390555b8554869080613a4257613a426145cb565b6001900381819060005260206000200160009055905585600101600086815260200190815260200160002060009055600193505050506105c1565b60009150506105c1565b600054610100900460ff16613aae5760405162461bcd60e51b815260040161064790614569565b6033805460ff19169055565b6000818152600183016020526040812054613b01575081546001818101845560008481526020808220909301849055845484825282860190935260409020919091556105c1565b5060006105c1565b6000826000018281548110613b2057613b206142c7565b9060005260206000200154905092915050565b50805460008255600202906000526020600020908101906108299190613b93565b50805460008255906000526020600020908101906108299190613bbd565b50805460008255600302906000526020600020908101906108299190613bd2565b5b80821115613bb95780546001600160a01b031916815560006001820155600201613b94565b5090565b5b80821115613bb95760008155600101613bbe565b5b80821115613bb95780546001600160a01b03191681556000600182018190556002820155600301613bd3565b600060208284031215613c1157600080fd5b81356001600160e01b03198116811461371657600080fd5b600080600060608486031215613c3e57600080fd5b505081359360208301359350604090920135919050565b80356001600160a01b0381168114613c6c57600080fd5b919050565b600080600080600060808688031215613c8957600080fd5b613c9286613c55565b9450613ca060208701613c55565b935060408601359250606086013567ffffffffffffffff80821115613cc457600080fd5b818801915088601f830112613cd857600080fd5b813581811115613ce757600080fd5b896020828501011115613cf957600080fd5b9699959850939650602001949392505050565b600060208284031215613d1e57600080fd5b5035919050565b60008060408385031215613d3857600080fd5b82359150613d4860208401613c55565b90509250929050565b634e487b7160e01b600052604160045260246000fd5b604051601f8201601f1916810167ffffffffffffffff81118282101715613d9057613d90613d51565b604052919050565b600067ffffffffffffffff821115613db257613db2613d51565b5060051b60200190565b600082601f830112613dcd57600080fd5b81356020613de2613ddd83613d98565b613d67565b82815260059290921b84018101918181019086841115613e0157600080fd5b8286015b84811015613e1c5780358352918301918301613e05565b509695505050505050565b60008060408385031215613e3a57600080fd5b823567ffffffffffffffff80821115613e5257600080fd5b818501915085601f830112613e6657600080fd5b81356020613e76613ddd83613d98565b82815260059290921b84018101918181019089841115613e9557600080fd5b948201945b83861015613eba57613eab86613c55565b82529482019490820190613e9a565b96505086013592505080821115613ed057600080fd5b50613edd85828601613dbc565b9150509250929050565b600080600060608486031215613efc57600080fd5b613f0584613c55565b95602085013595506040909401359392505050565b60008060408385031215613f2d57600080fd5b613f3683613c55565b946020939093013593505050565b6020808252825182820181905260009190848201906040850190845b81811015613f7c57835183529284019291840191600101613f60565b50909695505050505050565b60008060008060008060c08789031215613fa157600080fd5b613faa87613c55565b9550613fb860208801613c55565b94506040870135935060608701359250608087013567ffffffffffffffff80821115613fe357600080fd5b613fef8a838b01613dbc565b935060a089013591508082111561400557600080fd5b5061401289828a01613dbc565b9150509295509295509295565b602080825282518282018190526000919060409081850190868401855b8281101561409d57815180516001600160a01b0316855286810151878601528581015186860152606080820151908601526080808201519086015260a0808201519086015260c0908101519085015260e0909301929085019060010161403c565b5091979650505050505050565b6000602082840312156140bc57600080fd5b61371682613c55565b600080600080608085870312156140db57600080fd5b6140e485613c55565b93506140f260208601613c55565b93969395505050506040820135916060013590565b60008060006060848603121561411c57600080fd5b833567ffffffffffffffff8082111561413457600080fd5b61414087838801613dbc565b9450602086013591508082111561415657600080fd5b61416287838801613dbc565b9350604086013591508082111561417857600080fd5b5061418586828701613dbc565b9150509250925092565b6000806000606084860312156141a457600080fd5b6141ad84613c55565b92506141bb60208501613c55565b9150604084013590509250925092565b602080825282518282018190526000919060409081850190868401855b8281101561409d57815180516001600160a01b03168552868101518786015285015185850152606090930192908501906001016141e8565b6000806000806080858703121561423657600080fd5b61423f85613c55565b966020860135965060408601359560600135945092505050565b60208082526010908201526f14185d5cd8589b194e881c185d5cd95960821b604082015260600190565b60208082526024908201527f6164647265737320636f756e74206d757374206d6174636820746f6b656e20636040820152631bdd5b9d60e21b606082015260800190565b634e487b7160e01b600052603260045260246000fd5b634e487b7160e01b600052601160045260246000fd5b6000600019821415614307576143076142dd565b5060010190565b60008219821115614321576143216142dd565b500190565b60006020828403121561433857600080fd5b5051919050565b60006020828403121561435157600080fd5b8151801515811461371657600080fd5b6001600160a01b0394909416845260208401929092526040830152606082015260800190565b600082821015614399576143996142dd565b500390565b6001600160a01b039384168152919092166020820152604081019190915260600190565b60208082526028908201527f6d6178506f696e7473506572536b696c6c206d75737420626520677265617465604082015267072207468616e20360c41b606082015260800190565b6020808252602a908201527f737461727454696d65206d7573742062652061206675747572652074696d6520604082015269696e207365636f6e647360b01b606082015260800190565b60005b8381101561446f578181015183820152602001614457565b83811115610ce75750506000910152565b7f416363657373436f6e74726f6c3a206163636f756e74200000000000000000008152600083516144b8816017850160208801614454565b7001034b99036b4b9b9b4b733903937b6329607d1b60179184019182015283516144e9816028840160208801614454565b01602801949350505050565b6020815260008251806020840152614514816040850160208701614454565b601f01601f19169190910160400192915050565b6000816000190483118215151615614542576145426142dd565b500290565b60008261456457634e487b7160e01b600052601260045260246000fd5b500490565b6020808252602b908201527f496e697469616c697a61626c653a20636f6e7472616374206973206e6f74206960408201526a6e697469616c697a696e6760a81b606082015260800190565b6000816145c3576145c36142dd565b506000190190565b634e487b7160e01b600052603160045260246000fdfe73e573f9566d61418a34d5de3ff49360f9c51fec37f7486551670290f6285dab65d7a28e3265b37a6474929f336521b332c1681b933f6cb9f3376673440d862aa2646970667358221220253c74c1c06b16092fa21a401d64c0a14fcff6a5809213f64027fda644b1e24c64736f6c63430008090033",
  "linkReferences": {},
  "deployedLinkReferences": {}
}