{
  "_format": "hh-sol-artifact-1",
  "contractName": "ProfessionStakingUpgradeable",
  "sourceName": "contracts/ProfessionStakingUpgradeable.sol",
  "abi": [
    {
      "inputs": [],
      "stateMutability": "nonpayable",
      "type": "constructor"
    },
    {
      "anonymous": false,
      "inputs": [
        {
          "indexed": true,
          "internalType": "address",
          "name": "by",
          "type": "address"
        },
        {
          "indexed": true,
          "internalType": "address",
          "name": "token",
          "type": "address"
        },
        {
          "indexed": false,
          "internalType": "uint256",
          "name": "amount",
          "type": "uint256"
        }
      ],
      "name": "Claimed",
      "type": "event"
    },
    {
      "anonymous": false,
      "inputs": [
        {
          "indexed": false,
          "internalType": "address",
          "name": "account",
          "type": "address"
        }
      ],
      "name": "Paused",
      "type": "event"
    },
    {
      "anonymous": false,
      "inputs": [
        {
          "indexed": true,
          "internalType": "address",
          "name": "from",
          "type": "address"
        },
        {
          "indexed": true,
          "internalType": "address",
          "name": "token",
          "type": "address"
        },
        {
          "indexed": false,
          "internalType": "uint256",
          "name": "amount",
          "type": "uint256"
        }
      ],
      "name": "PoolRewardsDeposited",
      "type": "event"
    },
    {
      "anonymous": false,
      "inputs": [
        {
          "indexed": true,
          "internalType": "address",
          "name": "by",
          "type": "address"
        },
        {
          "indexed": true,
          "internalType": "address",
          "name": "to",
          "type": "address"
        },
        {
          "indexed": true,
          "internalType": "address",
          "name": "token",
          "type": "address"
        },
        {
          "indexed": false,
          "internalType": "uint256",
          "name": "amount",
          "type": "uint256"
        }
      ],
      "name": "PoolRewardsWithdrawn",
      "type": "event"
    },
    {
      "anonymous": false,
      "inputs": [
        {
          "indexed": true,
          "internalType": "bytes32",
          "name": "role",
          "type": "bytes32"
        },
        {
          "indexed": true,
          "internalType": "bytes32",
          "name": "previousAdminRole",
          "type": "bytes32"
        },
        {
          "indexed": true,
          "internalType": "bytes32",
          "name": "newAdminRole",
          "type": "bytes32"
        }
      ],
      "name": "RoleAdminChanged",
      "type": "event"
    },
    {
      "anonymous": false,
      "inputs": [
        {
          "indexed": true,
          "internalType": "bytes32",
          "name": "role",
          "type": "bytes32"
        },
        {
          "indexed": true,
          "internalType": "address",
          "name": "account",
          "type": "address"
        },
        {
          "indexed": true,
          "internalType": "address",
          "name": "sender",
          "type": "address"
        }
      ],
      "name": "RoleGranted",
      "type": "event"
    },
    {
      "anonymous": false,
      "inputs": [
        {
          "indexed": true,
          "internalType": "bytes32",
          "name": "role",
          "type": "bytes32"
        },
        {
          "indexed": true,
          "internalType": "address",
          "name": "account",
          "type": "address"
        },
        {
          "indexed": true,
          "internalType": "address",
          "name": "sender",
          "type": "address"
        }
      ],
      "name": "RoleRevoked",
      "type": "event"
    },
    {
      "anonymous": false,
      "inputs": [
        {
          "indexed": true,
          "internalType": "address",
          "name": "from",
          "type": "address"
        },
        {
          "indexed": true,
          "internalType": "address",
          "name": "nftAddress",
          "type": "address"
        },
        {
          "indexed": false,
          "internalType": "uint256",
          "name": "tokenId",
          "type": "uint256"
        }
      ],
      "name": "Staked",
      "type": "event"
    },
    {
      "anonymous": false,
      "inputs": [
        {
          "indexed": true,
          "internalType": "address",
          "name": "nftAddress",
          "type": "address"
        },
        {
          "indexed": false,
          "internalType": "address",
          "name": "rewardToken",
          "type": "address"
        },
        {
          "indexed": false,
          "internalType": "uint256",
          "name": "startTime",
          "type": "uint256"
        }
      ],
      "name": "StakingConfigCreated",
      "type": "event"
    },
    {
      "anonymous": false,
      "inputs": [
        {
          "indexed": true,
          "internalType": "address",
          "name": "nftAddress",
          "type": "address"
        }
      ],
      "name": "StakingConfigDeleted",
      "type": "event"
    },
    {
      "anonymous": false,
      "inputs": [
        {
          "indexed": true,
          "internalType": "address",
          "name": "nftAddress",
          "type": "address"
        },
        {
          "indexed": false,
          "internalType": "address",
          "name": "rewardToken",
          "type": "address"
        },
        {
          "indexed": false,
          "internalType": "uint256",
          "name": "startTime",
          "type": "uint256"
        }
      ],
      "name": "StakingConfigUpdated",
      "type": "event"
    },
    {
      "anonymous": false,
      "inputs": [
        {
          "indexed": true,
          "internalType": "address",
          "name": "by",
          "type": "address"
        },
        {
          "indexed": true,
          "internalType": "address",
          "name": "nftAddress",
          "type": "address"
        },
        {
          "indexed": false,
          "internalType": "uint256",
          "name": "tokenId",
          "type": "uint256"
        }
      ],
      "name": "StakingUnlocked",
      "type": "event"
    },
    {
      "anonymous": false,
      "inputs": [
        {
          "indexed": true,
          "internalType": "address",
          "name": "by",
          "type": "address"
        },
        {
          "indexed": true,
          "internalType": "address",
          "name": "nftAddress",
          "type": "address"
        },
        {
          "indexed": false,
          "internalType": "uint256",
          "name": "tokenId",
          "type": "uint256"
        },
        {
          "indexed": false,
          "internalType": "uint256",
          "name": "treeId",
          "type": "uint256"
        },
        {
          "indexed": false,
          "internalType": "uint256",
          "name": "skillId",
          "type": "uint256"
        },
        {
          "indexed": false,
          "internalType": "uint256",
          "name": "canceledAt",
          "type": "uint256"
        }
      ],
      "name": "TrainingCanceled",
      "type": "event"
    },
    {
      "anonymous": false,
      "inputs": [
        {
          "indexed": true,
          "internalType": "address",
          "name": "by",
          "type": "address"
        },
        {
          "indexed": true,
          "internalType": "address",
          "name": "nftAddress",
          "type": "address"
        },
        {
          "indexed": false,
          "internalType": "uint256",
          "name": "tokenId",
          "type": "uint256"
        },
        {
          "indexed": false,
          "internalType": "uint256",
          "name": "treeId",
          "type": "uint256"
        },
        {
          "indexed": false,
          "internalType": "uint256",
          "name": "skillId",
          "type": "uint256"
        },
        {
          "indexed": false,
          "internalType": "uint256",
          "name": "level",
          "type": "uint256"
        }
      ],
      "name": "TrainingFinished",
      "type": "event"
    },
    {
      "anonymous": false,
      "inputs": [
        {
          "indexed": true,
          "internalType": "address",
          "name": "by",
          "type": "address"
        },
        {
          "indexed": true,
          "internalType": "address",
          "name": "nftAddress",
          "type": "address"
        },
        {
          "indexed": false,
          "internalType": "uint256",
          "name": "tokenId",
          "type": "uint256"
        },
        {
          "indexed": false,
          "internalType": "uint256",
          "name": "treeId",
          "type": "uint256"
        },
        {
          "indexed": false,
          "internalType": "uint256",
          "name": "skillId",
          "type": "uint256"
        },
        {
          "indexed": false,
          "internalType": "uint256",
          "name": "level",
          "type": "uint256"
        },
        {
          "indexed": false,
          "internalType": "uint256",
          "name": "startedAt",
          "type": "uint256"
        },
        {
          "indexed": false,
          "internalType": "uint256",
          "name": "completeAt",
          "type": "uint256"
        }
      ],
      "name": "TrainingStarted",
      "type": "event"
    },
    {
      "anonymous": false,
      "inputs": [
        {
          "indexed": false,
          "internalType": "address",
          "name": "account",
          "type": "address"
        }
      ],
      "name": "Unpaused",
      "type": "event"
    },
    {
      "anonymous": false,
      "inputs": [
        {
          "indexed": true,
          "internalType": "address",
          "name": "from",
          "type": "address"
        },
        {
          "indexed": true,
          "internalType": "address",
          "name": "nftAddress",
          "type": "address"
        },
        {
          "indexed": false,
          "internalType": "uint256",
          "name": "tokenId",
          "type": "uint256"
        }
      ],
      "name": "Unstaked",
      "type": "event"
    },
    {
      "inputs": [],
      "name": "DEFAULT_ADMIN_ROLE",
      "outputs": [
        {
          "internalType": "bytes32",
          "name": "",
          "type": "bytes32"
        }
      ],
      "stateMutability": "view",
      "type": "function"
    },
    {
      "inputs": [],
      "name": "GAME_STORAGE",
      "outputs": [
        {
          "internalType": "contract IGameStorageUpgradeable",
          "name": "",
          "type": "address"
        }
      ],
      "stateMutability": "view",
      "type": "function"
    },
    {
      "inputs": [],
      "name": "PAUSER_ROLE",
      "outputs": [
        {
          "internalType": "bytes32",
          "name": "",
          "type": "bytes32"
        }
      ],
      "stateMutability": "view",
      "type": "function"
    },
    {
      "inputs": [],
      "name": "UPDATER_ROLE",
      "outputs": [
        {
          "internalType": "bytes32",
          "name": "",
          "type": "bytes32"
        }
      ],
      "stateMutability": "view",
      "type": "function"
    },
    {
      "inputs": [
        {
          "internalType": "address[]",
          "name": "nftAddresses",
          "type": "address[]"
        },
        {
          "internalType": "uint256[]",
          "name": "tokenIds",
          "type": "uint256[]"
        }
      ],
      "name": "batchCancelTraining",
      "outputs": [],
      "stateMutability": "nonpayable",
      "type": "function"
    },
    {
      "inputs": [
        {
          "internalType": "address[]",
          "name": "nftAddresses",
          "type": "address[]"
        },
        {
          "internalType": "uint256[]",
          "name": "tokenIds",
          "type": "uint256[]"
        }
      ],
      "name": "batchEnableStaking",
      "outputs": [],
      "stateMutability": "nonpayable",
      "type": "function"
    },
    {
      "inputs": [
        {
          "internalType": "address[]",
          "name": "nftAddresses",
          "type": "address[]"
        },
        {
          "internalType": "uint256[]",
          "name": "tokenIds",
          "type": "uint256[]"
        }
      ],
      "name": "batchFinishTraining",
      "outputs": [],
      "stateMutability": "nonpayable",
      "type": "function"
    },
    {
      "inputs": [
        {
          "internalType": "uint256[]",
          "name": "level",
          "type": "uint256[]"
        },
        {
          "internalType": "uint256[]",
          "name": "cost",
          "type": "uint256[]"
        },
        {
          "internalType": "uint256[]",
          "name": "time",
          "type": "uint256[]"
        }
      ],
      "name": "batchSetTrainingCosts",
      "outputs": [],
      "stateMutability": "nonpayable",
      "type": "function"
    },
    {
      "inputs": [
        {
          "internalType": "address[]",
          "name": "nftAddresses",
          "type": "address[]"
        },
        {
          "internalType": "uint256[]",
          "name": "tokenIds",
          "type": "uint256[]"
        }
      ],
      "name": "batchStake",
      "outputs": [],
      "stateMutability": "nonpayable",
      "type": "function"
    },
    {
      "inputs": [
        {
          "internalType": "address[]",
          "name": "nftAddresses",
          "type": "address[]"
        },
        {
          "internalType": "uint256[]",
          "name": "tokenIds",
          "type": "uint256[]"
        },
        {
          "internalType": "uint256[]",
          "name": "treeIds",
          "type": "uint256[]"
        },
        {
          "internalType": "uint256[]",
          "name": "skillIds",
          "type": "uint256[]"
        }
      ],
      "name": "batchStartTraining",
      "outputs": [],
      "stateMutability": "nonpayable",
      "type": "function"
    },
    {
      "inputs": [
        {
          "internalType": "address[]",
          "name": "nftAddresses",
          "type": "address[]"
        },
        {
          "internalType": "uint256[]",
          "name": "tokenIds",
          "type": "uint256[]"
        }
      ],
      "name": "batchUnstake",
      "outputs": [],
      "stateMutability": "nonpayable",
      "type": "function"
    },
    {
      "inputs": [
        {
          "internalType": "address",
          "name": "nftAddress",
          "type": "address"
        },
        {
          "internalType": "uint256",
          "name": "tokenId",
          "type": "uint256"
        }
      ],
      "name": "cancelTraining",
      "outputs": [],
      "stateMutability": "nonpayable",
      "type": "function"
    },
    {
      "inputs": [],
      "name": "claim",
      "outputs": [],
      "stateMutability": "nonpayable",
      "type": "function"
    },
    {
      "inputs": [
        {
          "internalType": "uint256",
          "name": "count",
          "type": "uint256"
        }
      ],
      "name": "claimOldRewards",
      "outputs": [],
      "stateMutability": "nonpayable",
      "type": "function"
    },
    {
      "inputs": [
        {
          "internalType": "address",
          "name": "nftAddress",
          "type": "address"
        },
        {
          "internalType": "address",
          "name": "rewardToken",
          "type": "address"
        },
        {
          "internalType": "uint256",
          "name": "startTime",
          "type": "uint256"
        },
        {
          "internalType": "uint256",
          "name": "maxPointsPerSkill",
          "type": "uint256"
        },
        {
          "internalType": "uint256[]",
          "name": "treeIds",
          "type": "uint256[]"
        },
        {
          "internalType": "uint256[]",
          "name": "skillIds",
          "type": "uint256[]"
        }
      ],
      "name": "createStakingConfig",
      "outputs": [],
      "stateMutability": "nonpayable",
      "type": "function"
    },
    {
      "inputs": [
        {
          "internalType": "address",
          "name": "nftAddress",
          "type": "address"
        }
      ],
      "name": "deleteStakingConfig",
      "outputs": [],
      "stateMutability": "nonpayable",
      "type": "function"
    },
    {
      "inputs": [
        {
          "internalType": "address",
          "name": "token",
          "type": "address"
        },
        {
          "internalType": "uint256",
          "name": "amount",
          "type": "uint256"
        }
      ],
      "name": "depositPoolRewards",
      "outputs": [],
      "stateMutability": "nonpayable",
      "type": "function"
    },
    {
      "inputs": [
        {
          "internalType": "address",
          "name": "nftAddress",
          "type": "address"
        },
        {
          "internalType": "uint256",
          "name": "tokenId",
          "type": "uint256"
        }
      ],
      "name": "enableStaking",
      "outputs": [],
      "stateMutability": "nonpayable",
      "type": "function"
    },
    {
      "inputs": [
        {
          "internalType": "address",
          "name": "nftAddress",
          "type": "address"
        },
        {
          "internalType": "uint256",
          "name": "tokenId",
          "type": "uint256"
        }
      ],
      "name": "finishTraining",
      "outputs": [],
      "stateMutability": "nonpayable",
      "type": "function"
    },
    {
      "inputs": [
        {
          "internalType": "address",
          "name": "_address",
          "type": "address"
        },
        {
          "internalType": "address",
          "name": "nftAddress",
          "type": "address"
        },
        {
          "internalType": "uint256",
          "name": "tokenId",
          "type": "uint256"
        }
      ],
      "name": "forceCancelTraining",
      "outputs": [],
      "stateMutability": "nonpayable",
      "type": "function"
    },
    {
      "inputs": [
        {
          "internalType": "address",
          "name": "_address",
          "type": "address"
        },
        {
          "internalType": "uint256",
          "name": "count",
          "type": "uint256"
        }
      ],
      "name": "forceClaimOldRewardsForAddress",
      "outputs": [],
      "stateMutability": "nonpayable",
      "type": "function"
    },
    {
      "inputs": [],
      "name": "forceDisperse",
      "outputs": [],
      "stateMutability": "nonpayable",
      "type": "function"
    },
    {
      "inputs": [],
      "name": "getActiveTraining",
      "outputs": [
        {
          "components": [
            {
              "internalType": "address",
              "name": "_address",
              "type": "address"
            },
            {
              "internalType": "uint256",
              "name": "tokenId",
              "type": "uint256"
            },
            {
              "internalType": "uint256",
              "name": "level",
              "type": "uint256"
            },
            {
              "internalType": "uint256",
              "name": "treeId",
              "type": "uint256"
            },
            {
              "internalType": "uint256",
              "name": "skillId",
              "type": "uint256"
            },
            {
              "internalType": "uint256",
              "name": "startedAt",
              "type": "uint256"
            },
            {
              "internalType": "uint256",
              "name": "completeAt",
              "type": "uint256"
            }
          ],
          "internalType": "struct ProfessionStakingUpgradeable.TrainingStatus[]",
          "name": "",
          "type": "tuple[]"
        }
      ],
      "stateMutability": "view",
      "type": "function"
    },
    {
      "inputs": [
        {
          "internalType": "address",
          "name": "nftAddress",
          "type": "address"
        },
        {
          "internalType": "uint256",
          "name": "tokenId",
          "type": "uint256"
        }
      ],
      "name": "getAllowedSkillChoices",
      "outputs": [
        {
          "internalType": "uint256[]",
          "name": "",
          "type": "uint256[]"
        }
      ],
      "stateMutability": "view",
      "type": "function"
    },
    {
      "inputs": [
        {
          "internalType": "address",
          "name": "_address",
          "type": "address"
        }
      ],
      "name": "getOldRewards",
      "outputs": [
        {
          "components": [
            {
              "internalType": "address",
              "name": "_address",
              "type": "address"
            },
            {
              "internalType": "uint256",
              "name": "amount",
              "type": "uint256"
            }
          ],
          "internalType": "struct ProfessionStakingUpgradeable.Token[]",
          "name": "",
          "type": "tuple[]"
        }
      ],
      "stateMutability": "view",
      "type": "function"
    },
    {
      "inputs": [
        {
          "internalType": "bytes32",
          "name": "role",
          "type": "bytes32"
        }
      ],
      "name": "getRoleAdmin",
      "outputs": [
        {
          "internalType": "bytes32",
          "name": "",
          "type": "bytes32"
        }
      ],
      "stateMutability": "view",
      "type": "function"
    },
    {
      "inputs": [],
      "name": "getStaked",
      "outputs": [
        {
          "components": [
            {
              "internalType": "address",
              "name": "_address",
              "type": "address"
            },
            {
              "internalType": "uint256",
              "name": "tokenId",
              "type": "uint256"
            },
            {
              "internalType": "uint256",
              "name": "rewardFrom",
              "type": "uint256"
            }
          ],
          "internalType": "struct ProfessionStakingUpgradeable.NFT[]",
          "name": "",
          "type": "tuple[]"
        }
      ],
      "stateMutability": "view",
      "type": "function"
    },
    {
      "inputs": [
        {
          "internalType": "address",
          "name": "ntfAddress",
          "type": "address"
        },
        {
          "internalType": "uint256",
          "name": "tokenId",
          "type": "uint256"
        }
      ],
      "name": "getTotalProfessionSkillPoints",
      "outputs": [
        {
          "internalType": "uint256",
          "name": "",
          "type": "uint256"
        }
      ],
      "stateMutability": "view",
      "type": "function"
    },
    {
      "inputs": [
        {
          "internalType": "bytes32",
          "name": "role",
          "type": "bytes32"
        },
        {
          "internalType": "address",
          "name": "account",
          "type": "address"
        }
      ],
      "name": "grantRole",
      "outputs": [],
      "stateMutability": "nonpayable",
      "type": "function"
    },
    {
      "inputs": [
        {
          "internalType": "bytes32",
          "name": "role",
          "type": "bytes32"
        },
        {
          "internalType": "address",
          "name": "account",
          "type": "address"
        }
      ],
      "name": "hasRole",
      "outputs": [
        {
          "internalType": "bool",
          "name": "",
          "type": "bool"
        }
      ],
      "stateMutability": "view",
      "type": "function"
    },
    {
      "inputs": [],
      "name": "initialize",
      "outputs": [],
      "stateMutability": "nonpayable",
      "type": "function"
    },
    {
      "inputs": [
        {
          "internalType": "address",
          "name": "nftAddress",
          "type": "address"
        },
        {
          "internalType": "uint256",
          "name": "tokenId",
          "type": "uint256"
        }
      ],
      "name": "isStakingEnabled",
      "outputs": [
        {
          "internalType": "bool",
          "name": "",
          "type": "bool"
        }
      ],
      "stateMutability": "view",
      "type": "function"
    },
    {
      "inputs": [
        {
          "internalType": "address",
          "name": "operator",
          "type": "address"
        },
        {
          "internalType": "address",
          "name": "from",
          "type": "address"
        },
        {
          "internalType": "uint256",
          "name": "tokenId",
          "type": "uint256"
        },
        {
          "internalType": "bytes",
          "name": "data",
          "type": "bytes"
        }
      ],
      "name": "onERC721Received",
      "outputs": [
        {
          "internalType": "bytes4",
          "name": "",
          "type": "bytes4"
        }
      ],
      "stateMutability": "pure",
      "type": "function"
    },
    {
      "inputs": [],
      "name": "pause",
      "outputs": [],
      "stateMutability": "nonpayable",
      "type": "function"
    },
    {
      "inputs": [],
      "name": "paused",
      "outputs": [
        {
          "internalType": "bool",
          "name": "",
          "type": "bool"
        }
      ],
      "stateMutability": "view",
      "type": "function"
    },
    {
      "inputs": [],
      "name": "pendingRewards",
      "outputs": [
        {
          "internalType": "uint256",
          "name": "",
          "type": "uint256"
        }
      ],
      "stateMutability": "view",
      "type": "function"
    },
    {
      "inputs": [
        {
          "internalType": "bytes32",
          "name": "role",
          "type": "bytes32"
        },
        {
          "internalType": "address",
          "name": "account",
          "type": "address"
        }
      ],
      "name": "renounceRole",
      "outputs": [],
      "stateMutability": "nonpayable",
      "type": "function"
    },
    {
      "inputs": [
        {
          "internalType": "bytes32",
          "name": "role",
          "type": "bytes32"
        },
        {
          "internalType": "address",
          "name": "account",
          "type": "address"
        }
      ],
      "name": "revokeRole",
      "outputs": [],
      "stateMutability": "nonpayable",
      "type": "function"
    },
    {
      "inputs": [
        {
          "internalType": "address",
          "name": "_address",
          "type": "address"
        }
      ],
      "name": "setGameStorage",
      "outputs": [],
      "stateMutability": "nonpayable",
      "type": "function"
    },
    {
      "inputs": [
        {
          "internalType": "address",
          "name": "nftAddress",
          "type": "address"
        },
        {
          "internalType": "uint256",
          "name": "treeId",
          "type": "uint256"
        },
        {
          "internalType": "uint256",
          "name": "skillId",
          "type": "uint256"
        }
      ],
      "name": "setSkillPointer",
      "outputs": [],
      "stateMutability": "nonpayable",
      "type": "function"
    },
    {
      "inputs": [
        {
          "internalType": "uint256",
          "name": "level",
          "type": "uint256"
        },
        {
          "internalType": "uint256",
          "name": "cost",
          "type": "uint256"
        },
        {
          "internalType": "uint256",
          "name": "time",
          "type": "uint256"
        }
      ],
      "name": "setTrainingCost",
      "outputs": [],
      "stateMutability": "nonpayable",
      "type": "function"
    },
    {
      "inputs": [
        {
          "internalType": "address",
          "name": "nftAddress",
          "type": "address"
        },
        {
          "internalType": "uint256",
          "name": "tokenId",
          "type": "uint256"
        }
      ],
      "name": "stake",
      "outputs": [],
      "stateMutability": "nonpayable",
      "type": "function"
    },
    {
      "inputs": [
        {
          "internalType": "address",
          "name": "nftAddress",
          "type": "address"
        },
        {
          "internalType": "uint256",
          "name": "tokenId",
          "type": "uint256"
        },
        {
          "internalType": "uint256",
          "name": "treeId",
          "type": "uint256"
        },
        {
          "internalType": "uint256",
          "name": "skillId",
          "type": "uint256"
        }
      ],
      "name": "startTraining",
      "outputs": [],
      "stateMutability": "nonpayable",
      "type": "function"
    },
    {
      "inputs": [
        {
          "internalType": "bytes4",
          "name": "interfaceId",
          "type": "bytes4"
        }
      ],
      "name": "supportsInterface",
      "outputs": [
        {
          "internalType": "bool",
          "name": "",
          "type": "bool"
        }
      ],
      "stateMutability": "view",
      "type": "function"
    },
    {
      "inputs": [],
      "name": "unpause",
      "outputs": [],
      "stateMutability": "nonpayable",
      "type": "function"
    },
    {
      "inputs": [
        {
          "internalType": "address",
          "name": "nftAddress",
          "type": "address"
        },
        {
          "internalType": "uint256",
          "name": "tokenId",
          "type": "uint256"
        }
      ],
      "name": "unstake",
      "outputs": [],
      "stateMutability": "nonpayable",
      "type": "function"
    },
    {
      "inputs": [
        {
          "internalType": "address",
          "name": "nftAddress",
          "type": "address"
        },
        {
          "internalType": "address",
          "name": "rewardToken",
          "type": "address"
        },
        {
          "internalType": "uint256",
          "name": "startTime",
          "type": "uint256"
        },
        {
          "internalType": "uint256",
          "name": "maxPointsPerSkill",
          "type": "uint256"
        }
      ],
      "name": "updateStakingConfig",
      "outputs": [],
      "stateMutability": "nonpayable",
      "type": "function"
    },
    {
      "inputs": [
        {
          "internalType": "address",
          "name": "to",
          "type": "address"
        },
        {
          "internalType": "address",
          "name": "token",
          "type": "address"
        },
        {
          "internalType": "uint256",
          "name": "amount",
          "type": "uint256"
        }
      ],
      "name": "withdrawPoolRewards",
      "outputs": [],
      "stateMutability": "nonpayable",
      "type": "function"
    }
  ],
  "bytecode": "0x60806040523480156200001157600080fd5b50600054610100900460ff166200002f5760005460ff161562000039565b62000039620000de565b620000a15760405162461bcd60e51b815260206004820152602e60248201527f496e697469616c697a61626c653a20636f6e747261637420697320616c72656160448201526d191e481a5b9a5d1a585b1a5e995960921b606482015260840160405180910390fd5b600054610100900460ff16158015620000c4576000805461ffff19166101011790555b8015620000d7576000805461ff00191690555b506200010b565b6000620000f630620000fc60201b620038251760201c565b15905090565b6001600160a01b03163b151590565b615163806200011b6000396000f3fe608060405234801561001057600080fd5b50600436106102a05760003560e01c806386e8953d11610167578063bea64ba2116100ce578063d547741f11610087578063d547741f14610624578063d9a2c1d214610637578063e62ccc9c1461064a578063e63ab1e91461065d578063eded3fda14610672578063fa5887ee1461067a57600080fd5b8063bea64ba2146105bb578063c2a672e0146105ce578063c486efbf146105e1578063c59abf9f146105e9578063cc3f7b1c146105fe578063d3a13d421461061157600080fd5b8063a42b99ba11610120578063a42b99ba14610549578063abfc6e731461055c578063adc9772e1461056f578063aed2151a14610582578063aeeba61514610595578063be29c925146105a857600080fd5b806386e8953d146104e057806391d14854146104f357806394a77066146105065780639f8f606814610519578063a217fddf1461052e578063a401344b1461053657600080fd5b80633f4ba83a1161020b578063729c3553116101c4578063729c3553146104845780637bad4bcc146104975780637e5b5e5f146104aa5780638129fc1c146104bd57806381fda71d146104c55780638456cb59146104d857600080fd5b80633f4ba83a1461042157806347e63380146104295780634cb12fee1461043e5780634e71d92d146104515780635a2d8800146104595780635c975abb1461047957600080fd5b80632f2ff15d1161025d5780632f2ff15d146103a257806332b95a6f146103b557806333820bac146103c85780633627ff45146103db57806336568abe146103fb5780633d564e491461040e57600080fd5b806301ffc9a7146102a55780630ae7a461146102cd578063150b7a02146102e2578063195454871461033357806323de54d814610346578063248a9ca314610371575b600080fd5b6102b86102b33660046145e6565b61068d565b60405190151581526020015b60405180910390f35b6102e06102db366004614610565b6106c4565b005b61031a6102f0366004614658565b7f150b7a023d4804d13e8c85fb27262cb750cf6ba9f9dd3bb30d90f482ceeb4b1f95945050505050565b6040516001600160e01b031990911681526020016102c4565b6102e061034136600461482b565b6106f6565b60c954610359906001600160a01b031681565b6040516001600160a01b0390911681526020016102c4565b61039461037f36600461488f565b60009081526097602052604090206001015490565b6040519081526020016102c4565b6102e06103b03660046148a8565b61077f565b6102e06103c336600461482b565b6107a5565b6102e06103d63660046148d4565b610843565b6103ee6103e9366004614907565b61087f565b6040516102c49190614922565b6102e06104093660046148a8565b61090d565b6102e061041c36600461482b565b61098b565b6102e0610a06565b6103946000805160206150ee83398151915281565b6102e061044c36600461497a565b610a32565b6102e0610c6d565b61046c61046736600461497a565b610cee565b6040516102c491906149a4565b60335460ff166102b8565b6102e06104923660046149e8565b6111cb565b6102e06104a536600461497a565b61123f565b6102e06104b836600461497a565b61129a565b6102e0611361565b6103946104d336600461497a565b611464565b6102e0611524565b6102b86104ee36600461497a565b61154d565b6102b86105013660046148a8565b611610565b6102e0610514366004614a24565b61163b565b610521611a01565b6040516102c49190614abb565b610394600081565b6102e0610544366004614907565b611d6c565b6102e061055736600461488f565b611e15565b6102e061056a366004614b39565b611e4e565b6102e061057d36600461497a565b61204f565b6102e0610590366004614b7b565b6122ce565b6102e06105a336600461482b565b6123d1565b6102e06105b6366004614c03565b61246f565b6102e06105c93660046149e8565b6125fb565b6102e06105dc36600461497a565b6127b6565b6102e0612be8565b6105f1612bfc565b6040516102c49190614cb0565b6102e061060c36600461497a565b612c89565b6102e061061f366004614907565b612f84565b6102e06106323660046148a8565b612fc0565b6102e061064536600461482b565b612fe6565b6102e061065836600461497a565b613061565b61039460008051602061510e83398151915281565b610394613181565b6102e0610688366004614d05565b613316565b60006001600160e01b03198216637965db0b60e01b14806106be57506301ffc9a760e01b6001600160e01b03198316145b92915050565b6000805160206150ee8339815191526106dd8133613834565b50600092835260cb602052604090922090815560010155565b80518251146107205760405162461bcd60e51b815260040161071790614d3e565b60405180910390fd5b60005b825181101561077a5761076883828151811061074157610741614d82565b602002602001015183838151811061075b5761075b614d82565b6020026020010151610a32565b8061077281614dae565b915050610723565b505050565b60008281526097602052604090206001015461079b8133613834565b61077a8383613898565b60335460ff16156107c85760405162461bcd60e51b815260040161071790614dc9565b80518251146107e95760405162461bcd60e51b815260040161071790614d3e565b60005b825181101561077a5761083183828151811061080a5761080a614d82565b602002602001015183838151811061082457610824614d82565b602002602001015161204f565b8061083b81614dae565b9150506107ec565b6000805160206150ee83398151915261085c8133613834565b506001600160a01b03909216600090815260d06020526040902090815560010155565b6001600160a01b038116600090815260cc60209081526040808320600101805482518185028101850190935280835260609492939192909184015b82821015610902576000848152602090819020604080518082019091526002850290910180546001600160a01b031682526001908101548284015290835290920191016108ba565b505050509050919050565b6001600160a01b038116331461097d5760405162461bcd60e51b815260206004820152602f60248201527f416363657373436f6e74726f6c3a2063616e206f6e6c792072656e6f756e636560448201526e103937b632b9903337b91039b2b63360891b6064820152608401610717565b610987828261391e565b5050565b80518251146109ac5760405162461bcd60e51b815260040161071790614d3e565b60005b825181101561077a576109f48382815181106109cd576109cd614d82565b60200260200101518383815181106109e7576109e7614d82565b60200260200101516127b6565b806109fe81614dae565b9150506109af565b60008051602061510e833981519152610a1f8133613834565b610a27613985565b610a2f6139b9565b50565b33600090815260ca602090815260408083206001600160a01b0386168452825280832084845290915290206005810154610a9d5760405162461bcd60e51b815260206004820152600c60248201526b4e6f7420747261696e696e6760a01b6044820152606401610717565b4281600601541115610af15760405162461bcd60e51b815260206004820152601a60248201527f547261696e696e67207374696c6c20696e2070726f67726573730000000000006044820152606401610717565b610aff33613a4c565b613a4c565b60c95460038201546004808401546002850154604051630d126da960e11b81526001600160a01b03898116948201949094526024810188905260448101949094526064840191909152608483015290911690631a24db529060a401600060405180830381600087803b158015610b7457600080fd5b505af1158015610b88573d6000803e3d6000fd5b50505050826001600160a01b0316610b9d3390565b6001600160a01b03167f4cffb663b46d78e759211fc8a998ed5dd16066c4229b4b4e94bc0ff7431e85a884846003015485600401548660020154604051610bfd949392919093845260208401929092526040830152606082015260800190565b60405180910390a35033600090815260ca602090815260408083206001600160a01b039590951683529381528382209282529190915290812080546001600160a01b0319168155600181018290556002810182905560038101829055600481018290556005810182905560060155565b610c7633613a4c565b33600090815260cc6020526040902060010154151580610ca4575033600090815260d1602052604090205415155b610ce35760405162461bcd60e51b815260206004820152601060248201526f4e6f7468696e6720746f20636c61696d60801b6044820152606401610717565b610cec33613b65565b565b6001600160a01b038216600090815260cf60209081526040808320815160a08101835281548152600182015481850152600282018054845181870281018701865281815260609796939586019390929190830182828015610d6e57602002820191906000526020600020905b815481526020019060010190808311610d5a575b5050505050815260200160038201805480602002602001604051908101604052809291908181526020018280548015610dc657602002820191906000526020600020905b815481526020019060010190808311610db2575b5050509183525050600491909101546001600160a01b03166020909101528051909150610e355760405162461bcd60e51b815260206004820152601e60248201527f4e6f20747261696e696e672073657373696f6e20636f6e6669677572656400006044820152606401610717565b600081604001515167ffffffffffffffff811115610e5557610e556146f3565b604051908082528060200260200182016040528015610e7e578160200160208202803683370190505b50905060008060005b846040015151811015610fed5760c954604086015180516001600160a01b039092169163a6f4e49e918b918b919086908110610ec557610ec5614d82565b602002602001015189606001518681518110610ee357610ee3614d82565b60200260200101516040518563ffffffff1660e01b8152600401610f0a9493929190614df3565b60206040518083038186803b158015610f2257600080fd5b505afa158015610f36573d6000803e3d6000fd5b505050506040513d601f19601f82011682018060405250810190610f5a9190614e19565b848281518110610f6c57610f6c614d82565b6020026020010181815250506000848281518110610f8c57610f8c614d82565b60200260200101511115610fa85782610fa481614dae565b9350505b8460200151848281518110610fbf57610fbf614d82565b60200260200101511415610fdb5781610fd781614dae565b9250505b80610fe581614dae565b915050610e87565b5081611001575050506060015190506106be565b80600214156110185750606093506106be92505050565b6000600185604001515161102c9190614e32565b67ffffffffffffffff811115611044576110446146f3565b60405190808252806020026020018201604052801561106d578160200160208202803683370190505b5090506000805b85518110156111bd5783600114801561108d5750846001145b80156110b257508581815181106110a6576110a6614d82565b60200260200101516000145b156110f457866060015181815181106110cd576110cd614d82565b60200260200101518383815181106110e7576110e7614d82565b6020026020010181815250505b600086828151811061110857611108614d82565b60200260200101511180156111395750866020015186828151811061112f5761112f614d82565b6020026020010151105b156111ab57604080516001808252818301909252600091602080830190803683370190505090508760600151828151811061117657611176614d82565b60200260200101518160008151811061119157611191614d82565b602090810291909101015297506106be9650505050505050565b806111b581614dae565b915050611074565b509098975050505050505050565b60006111d78133613834565b506001600160a01b03928316600090815260ca60209081526040808320949095168252928352838120918152915290812080546001600160a01b0319168155600181018290556002810182905560038101829055600481018290556005810182905560060155565b6000805160206150ee8339815191526112588133613834565b6001600160a01b038316600090815260cc60205260409020600101546112905760405162461bcd60e51b815260040161071790614e49565b61077a8383613df4565b6040516323b872dd60e01b81526001600160a01b038316906323b872dd906112ca90339030908690600401614e70565b602060405180830381600087803b1580156112e457600080fd5b505af11580156112f8573d6000803e3d6000fd5b505050506040513d601f19601f8201168201806040525081019061131c9190614e94565b506040518181526001600160a01b0383169033907ffbed5bbbffe0fa857a9b62acaea1ea1c076828145e69464a9b483a477fb6b0009060200160405180910390a35050565b600054610100900460ff1661137c5760005460ff1615611380565b303b155b6113e35760405162461bcd60e51b815260206004820152602e60248201527f496e697469616c697a61626c653a20636f6e747261637420697320616c72656160448201526d191e481a5b9a5d1a585b1a5e995960921b6064820152608401610717565b600054610100900460ff16158015611405576000805461ffff19166101011790555b61140d6140ea565b611415614119565b611420600033613898565b61143860008051602061510e83398151915233613898565b6114506000805160206150ee83398151915233613898565b8015610a2f576000805461ff001916905550565b600080805b600c81101561151c5760c95460405163537a724f60e11b81526000916001600160a01b03169063a6f4e49e906114aa90899089906001908890600401614df3565b60206040518083038186803b1580156114c257600080fd5b505afa1580156114d6573d6000803e3d6000fd5b505050506040513d601f19601f820116820180604052508101906114fa9190614e19565b90506115068184614eb6565b925050808061151490614dae565b915050611469565b509392505050565b60008051602061510e83398151915261153d8133613834565b611545613985565b610a2f614140565b6001600160a01b03808316600090815260d0602052604080822060c95481546001830154935163537a724f60e11b8152949592948694929093169263a6f4e49e9261159f928a928a9290600401614df3565b60206040518083038186803b1580156115b757600080fd5b505afa1580156115cb573d6000803e3d6000fd5b505050506040513d601f19601f820116820180604052508101906115ef9190614e19565b90508060011415611605576001925050506106be565b506000949350505050565b60009182526097602090815260408084206001600160a01b0393909316845291905290205460ff1690565b6000805160206150ee8339815191526116548133613834565b6001600160a01b038716600090815260cf6020526040902054156116ba5760405162461bcd60e51b815260206004820152601d60248201527f5374616b696e6720636f6e66696720616c7265616479206578697374730000006044820152606401610717565b60008351116117035760405162461bcd60e51b81526020600482015260156024820152744d697373696e672074726565496420636f6e66696760581b6044820152606401610717565b600082511161174d5760405162461bcd60e51b81526020600482015260166024820152754d697373696e6720736b696c6c496420636f6e66696760501b6044820152606401610717565b82518251146117ad5760405162461bcd60e51b815260206004820152602660248201527f5472656549647320616e6420536b696c6c49647320617272617973206d757374604482015265040dac2e8c6d60d31b6064820152608401610717565b600084116117cd5760405162461bcd60e51b815260040161071790614ece565b4285116117ec5760405162461bcd60e51b815260040161071790614f16565b6040516370a0823160e01b81523060048201526000906001600160a01b038816906370a082319060240160206040518083038186803b15801561182e57600080fd5b505afa158015611842573d6000803e3d6000fd5b505050506040513d601f19601f820116820180604052508101906118669190614e19565b116118aa5760405162461bcd60e51b81526020600482015260146024820152734e6f2066756e647320666f72207265776172647360601b6044820152606401610717565b6118b2613985565b6001600160a01b03878116600090815260cf602052604081206004810180546001600160a01b031916938a169390931790925586825560019091018590555b83518110156119b15760cf6000896001600160a01b03166001600160a01b0316815260200190815260200160002060020184828151811061193457611934614d82565b6020908102919091018101518254600181018455600093845282842001556001600160a01b038a16825260cf905260409020835160039091019084908390811061198057611980614d82565b60209081029190910181015182546001810184556000938452919092200155806119a981614dae565b9150506118f1565b50604080516001600160a01b038881168252602082018890528916917fc6e5f1ee3138795eeda2fa0aab37379a177c4f04396146dd2b154ab55f5c5585910160405180910390a250505050505050565b33600090815260cc60209081526040808320805482518185028101850190935280835260609493849084015b82821015611a82576000848152602090819020604080516060810182526003860290920180546001600160a01b0316835260018082015484860152600290910154918301919091529083529092019101611a2d565b5050505090506000805b8251811015611b995733600090815260ca6020526040812084518290869085908110611aba57611aba614d82565b6020026020010151600001516001600160a01b03166001600160a01b031681526020019081526020016000206000858481518110611afa57611afa614d82565b6020908102919091018101518101518252818101929092526040908101600020815160e08101835281546001600160a01b031681526001820154938101939093526002810154918301919091526003810154606083015260048101546080830152600581015460a08301526006015460c0820181905290915015611b865782611b8281614dae565b9350505b5080611b9181614dae565b915050611a8c565b5060008167ffffffffffffffff811115611bb557611bb56146f3565b604051908082528060200260200182016040528015611c2f57816020015b611c1c6040518060e0016040528060006001600160a01b031681526020016000815260200160008152602001600081526020016000815260200160008152602001600081525090565b815260200190600190039081611bd35790505b5090506000805b8451811015611d625733600090815260ca6020526040812086518290889085908110611c6457611c64614d82565b6020026020010151600001516001600160a01b03166001600160a01b031681526020019081526020016000206000878481518110611ca457611ca4614d82565b6020908102919091018101518101518252818101929092526040908101600020815160e08101835281546001600160a01b031681526001820154938101939093526002810154918301919091526003810154606083015260048101546080830152600581015460a08301526006015460c0820181905290915015611d4f5780848481518110611d3557611d35614d82565b60200260200101819052508280611d4b90614dae565b9350505b5080611d5a81614dae565b915050611c36565b5090949350505050565b6000805160206150ee833981519152611d858133613834565b611d8d613985565b6001600160a01b038216600090815260cf602052604081208181556001810182905590611dbd600283018261451a565b611dcb60038301600061451a565b5060040180546001600160a01b03191690556040516001600160a01b038316907fed93036dfb7e5500a2a7f2471a56e6b3389a8c28c72adca8ba9f6a4025ca6d5890600090a25050565b33600090815260cc6020526040902060010154611e445760405162461bcd60e51b815260040161071790614e49565b610a2f3382613df4565b6000805160206150ee833981519152611e678133613834565b6001600160a01b038516600090815260cf6020526040902054611ecc5760405162461bcd60e51b815260206004820152601d60248201527f5374616b696e6720636f6e66696720646f6573206e6f742065786973740000006044820152606401610717565b60008211611eec5760405162461bcd60e51b815260040161071790614ece565b428311611f0b5760405162461bcd60e51b815260040161071790614f16565b6040516370a0823160e01b81523060048201526000906001600160a01b038616906370a082319060240160206040518083038186803b158015611f4d57600080fd5b505afa158015611f61573d6000803e3d6000fd5b505050506040513d601f19601f82011682018060405250810190611f859190614e19565b11611fc95760405162461bcd60e51b81526020600482015260146024820152734e6f2066756e647320666f72207265776172647360601b6044820152606401610717565b611fd1613985565b6001600160a01b03858116600081815260cf60209081526040918290206004810180546001600160a01b031916958a169586179055878155600181018790558251948552908401879052927f255d2940ab142f16cd2452c452fc20185bcbc341ce9c1646bc3d4feac9dc3371910160405180910390a2505050505050565b60335460ff16156120725760405162461bcd60e51b815260040161071790614dc9565b6001600160a01b038216600090815260cf60205260409020546120c75760405162461bcd60e51b815260206004820152600d60248201526c496e76616c6964207374616b6560981b6044820152606401610717565b6001600160a01b038216600090815260cf60205260409020544210156121295760405162461bcd60e51b815260206004820152601760248201527614dd185ada5b99c81a185cc81b9bdd081cdd185c9d1959604a1b6044820152606401610717565b612133828261154d565b61217f5760405162461bcd60e51b815260206004820152601f60248201527f5374616b696e67206973206e6f7420756e6c6f636b656420666f72206e6674006044820152606401610717565b604051632142170760e11b81526001600160a01b038316906342842e0e906121af90339030908690600401614e70565b600060405180830381600087803b1580156121c957600080fd5b505af11580156121dd573d6000803e3d6000fd5b5050505061220e604051806060016040528060006001600160a01b0316815260200160008152602001600081525090565b6001600160a01b03831681526020810182905242604082015261223033613a4c565b61223b60cd33614198565b5033600081815260cc6020908152604080832080546001808201835591855293839020865160039095020180546001600160a01b0319166001600160a01b039586161781558684015191810191909155858201516002909101555185815291861692917f5dac0c1b1112564a045ba943c9d50270893e8e826c49be8e7073adc713ab7bd7910160405180910390a3505050565b6000805160206150ee8339815191526122e78133613834565b825184511480156122f9575081518351145b6123565760405162461bcd60e51b815260206004820152602860248201527f416c6c20696e70757420617272617973206d757374206265207468652073616d6044820152670ca40d8cadccee8d60c31b6064820152608401610717565b60005b84518110156123ca576123b885828151811061237757612377614d82565b602002602001015185838151811061239157612391614d82565b60200260200101518584815181106123ab576123ab614d82565b60200260200101516106c4565b806123c281614dae565b915050612359565b5050505050565b60335460ff16156123f45760405162461bcd60e51b815260040161071790614dc9565b80518251146124155760405162461bcd60e51b815260040161071790614d3e565b60005b825181101561077a5761245d83828151811061243657612436614d82565b602002602001015183838151811061245057612450614d82565b6020026020010151612c89565b8061246781614dae565b915050612418565b60335460ff16156124925760405162461bcd60e51b815260040161071790614dc9565b82518451146124b35760405162461bcd60e51b815260040161071790614d3e565b81518451146125105760405162461bcd60e51b815260206004820152602360248201527f6164647265737320636f756e74206d757374206d61746368207472656520636f6044820152621d5b9d60ea1b6064820152608401610717565b805184511461256d5760405162461bcd60e51b8152602060048201526024808201527f6164647265737320636f756e74206d757374206d6174636820736b696c6c20636044820152631bdd5b9d60e21b6064820152608401610717565b60005b84518110156123ca576125e985828151811061258e5761258e614d82565b60200260200101518583815181106125a8576125a8614d82565b60200260200101518584815181106125c2576125c2614d82565b60200260200101518585815181106125dc576125dc614d82565b6020026020010151613316565b806125f381614dae565b915050612570565b60006126078133613834565b61260f613985565b6040516370a0823160e01b8152306004820152839083906001600160a01b038316906370a082319060240160206040518083038186803b15801561265257600080fd5b505afa158015612666573d6000803e3d6000fd5b505050506040513d601f19601f8201168201806040525081019061268a9190614e19565b10156126cf5760405162461bcd60e51b8152602060048201526014602482015273496e73756666696369656e742062616c616e636560601b6044820152606401610717565b6040516323b872dd60e01b81526001600160a01b038216906323b872dd906126ff90309089908890600401614e70565b602060405180830381600087803b15801561271957600080fd5b505af115801561272d573d6000803e3d6000fd5b505050506040513d601f19601f820116820180604052508101906127519190614e94565b50836001600160a01b0316856001600160a01b031661276d3390565b6001600160a01b03167f74ed50f6a2a005dd31f4766fb60918c4a6728cb0da9eeb81b9526bc6da11ec0f866040516127a791815260200190565b60405180910390a45050505050565b33600090815260cc6020526040902080546128045760405162461bcd60e51b815260206004820152600e60248201526d139bc81391951cc81cdd185ad95960921b6044820152606401610717565b805460009061281590600190614e32565b67ffffffffffffffff81111561282d5761282d6146f3565b60405190808252806020026020018201604052801561288b57816020015b612878604051806060016040528060006001600160a01b0316815260200160008152602001600081525090565b81526020019060019003908161284b5790505b50905060008060005b84548110156129f057866001600160a01b03168560000182815481106128bc576128bc614d82565b60009182526020909120600390910201546001600160a01b03161415806129095750858560000182815481106128f4576128f4614d82565b90600052602060002090600302016001015414155b156129d9578454821061294f5760405162461bcd60e51b815260206004820152600e60248201526d139195081b9bdd081cdd185ad95960921b6044820152606401610717565b84600001818154811061296457612964614d82565b600091825260209182902060408051606081018252600390930290910180546001600160a01b031683526001810154938301939093526002909201549181019190915284518590849081106129bb576129bb614d82565b602002602001018190525081806129d190614dae565b9250506129de565b600192505b806129e881614dae565b915050612894565b506129fa33613a4c565b612a05846000614538565b60005b8351811015612a935784600001848281518110612a2757612a27614d82565b602090810291909101810151825460018082018555600094855293839020825160039092020180546001600160a01b0319166001600160a01b03909216919091178155918101519282019290925560409091015160029091015580612a8b81614dae565b915050612a08565b508354158015612aa557506001840154155b8015612abe575033600090815260d16020526040902054155b15612ad057612ace60cd336141b4565b505b33600081815260ca602090815260408083206001600160a01b038b168085529083528184208a855290925280832080546001600160a01b0319168155600181018490556002810184905560038101849055600480820185905560058201859055600690910193909355516323b872dd60e01b815290926323b872dd92612b5b923092918b9101614e70565b600060405180830381600087803b158015612b7557600080fd5b505af1158015612b89573d6000803e3d6000fd5b50505050856001600160a01b0316612b9e3390565b6001600160a01b03167fd8654fcc8cf5b36d30b3f5e4688fc78118e6d68de60b9994e09902268b57c3e387604051612bd891815260200190565b60405180910390a3505050505050565b6000612bf48133613834565b610a2f613985565b33600090815260cc60209081526040808320805482518185028101850190935280835260609492939192909184015b82821015612c80576000848152602090819020604080516060810182526003860290920180546001600160a01b0316835260018082015484860152600290910154918301919091529083529092019101612c2b565b50505050905090565b60335460ff1615612cac5760405162461bcd60e51b815260040161071790614dc9565b6001600160a01b038216600090815260d06020526040812090612ccf848461154d565b90508015612d1f5760405162461bcd60e51b815260206004820152601860248201527f5374616b696e6720616c726561647920756e6c6f636b656400000000000000006044820152606401610717565b6001600160a01b038416600090815260cf6020526040902054612d7d5760405162461bcd60e51b815260206004820152601660248201527514dd185ada5b99c81b9bdd0818dbdb999a59dd5c995960521b6044820152606401610717565b6001600160a01b038416600090815260cf6020526040902054421015612ddf5760405162461bcd60e51b815260206004820152601760248201527614dd185ada5b99c81a185cc81b9bdd081cdd185c9d1959604a1b6044820152606401610717565b6001600160a01b03848116600090815260cf602052604090206004015416806323b872dd336000805260cb6020527f4239c2c8c3d9b94feb214b0f54d7c869ce1ceb63517be57644336cda4967a468546040516001600160e01b031960e085901b168152612e5292913091600401614e70565b602060405180830381600087803b158015612e6c57600080fd5b505af1158015612e80573d6000803e3d6000fd5b505050506040513d601f19601f82011682018060405250810190612ea49190614e94565b5060c9548354600180860154604051630d126da960e11b81526001600160a01b038a81166004830152602482018a9052604482019490945260648101919091526084810191909152911690631a24db529060a401600060405180830381600087803b158015612f1257600080fd5b505af1158015612f26573d6000803e3d6000fd5b50505050846001600160a01b0316612f3b3390565b6001600160a01b03167f051144eeaaad1c4ee6b1eab928f531a9daf1687b3e0f8db00dae3f5df8c285db86604051612f7591815260200190565b60405180910390a35050505050565b6000805160206150ee833981519152612f9d8133613834565b5060c980546001600160a01b0319166001600160a01b0392909216919091179055565b600082815260976020526040902060010154612fdc8133613834565b61077a838361391e565b80518251146130075760405162461bcd60e51b815260040161071790614d3e565b60005b825181101561077a5761304f83828151811061302857613028614d82565b602002602001015183838151811061304257613042614d82565b6020026020010151613061565b8061305981614dae565b91505061300a565b33600090815260ca602090815260408083206001600160a01b03861684528252808320848452909152902060058101546130cc5760405162461bcd60e51b815260206004820152600c60248201526b4e6f7420747261696e696e6760a01b6044820152606401610717565b4281600601541161311f5760405162461bcd60e51b815260206004820152601960248201527f547261696e696e6720616c72656164792066696e6973686564000000000000006044820152606401610717565b61312833613a4c565b600381015460048201546040805185815260208101939093528201524260608201526001600160a01b0384169033907fc9b7c59fa980251f7ca7eae784c953e8a9f49d617be6edca0b41264ea05cb16990608001610bfd565b33600090815260d16020526040812054815b33600090815260cc60205260409020600101548110156132025733600090815260cc602052604090206001018054829081106131d1576131d1614d82565b906000526020600020906002020160010154826131ee9190614eb6565b9150806131fa81614dae565b915050613193565b5033600090815260cc60205260408120905b815481101561330e57600082600001828154811061323457613234614d82565b906000526020600020906003020160020154426132519190614e32565b905060006132b584600001848154811061326d5761326d614d82565b600091825260209091206003909102015485546001600160a01b039091169086908690811061329e5761329e614d82565b906000526020600020906003020160010154611464565b905081620151806132c7836001614eb6565b6132d990670de0b6b3a7640000614f60565b6132e39190614f7f565b6132ed9190614f60565b6132f79086614eb6565b94505050808061330690614dae565b915050613214565b509092915050565b60335460ff16156133395760405162461bcd60e51b815260040161071790614dc9565b6001600160a01b038416600090815260cf60205260409020805461339f5760405162461bcd60e51b815260206004820152601e60248201527f4e6f20747261696e696e672073657373696f6e20636f6e6669677572656400006044820152606401610717565b80544210156133f05760405162461bcd60e51b815260206004820152601c60248201527f547261696e696e6720686173206e6f74207374617274656420796574000000006044820152606401610717565b33600090815260ca602090815260408083206001600160a01b03891684528252808320878452909152902060058101541561346d5760405162461bcd60e51b815260206004820152601f60248201527f547261696e696e6720697320616c726561647920696e2070726f6772657373006044820152606401610717565b60006134798787610cee565b905060008151116134cc5760405162461bcd60e51b815260206004820152601e60248201527f4e6f20747261696e696e672073657373696f6e7320617661696c61626c6500006044820152606401610717565b6000805b825181101561351557858382815181106134ec576134ec614d82565b602002602001015114156135035760019150613515565b8061350d81614dae565b9150506134d0565b50806135635760405162461bcd60e51b815260206004820152601760248201527f496e76616c696420747261696e696e67206f7074696f6e0000000000000000006044820152606401610717565b60c95460405163537a724f60e11b81526000916001600160a01b03169063a6f4e49e9061359a908c908c908c908c90600401614df3565b60206040518083038186803b1580156135b257600080fd5b505afa1580156135c6573d6000803e3d6000fd5b505050506040513d601f19601f820116820180604052508101906135ea9190614e19565b9050600060cb816135fc846001614eb6565b81526020019081526020016000209050856001015482600161361e9190614eb6565b111561366c5760405162461bcd60e51b815260206004820152601e60248201527f45786365656473206d6178696d756d20747261696e696e67206c6576656c00006044820152606401610717565b80546136ba5760405162461bcd60e51b815260206004820152601d60248201527f547261696e696e67204c6576656c206973206e6f7420656e61626c65640000006044820152606401610717565b6136c333613a4c565b60048681015482546040516323b872dd60e01b81526001600160a01b03909216926323b872dd926136f8923392309201614e70565b602060405180830381600087803b15801561371257600080fd5b505af1158015613726573d6000803e3d6000fd5b505050506040513d601f19601f8201168201806040525081019061374a9190614e94565b50613756826001614eb6565b600286015560038501889055600485018790554260058601819055600182015461377f91614eb6565b600686015584546001600160a01b0319166001600160a01b038b169081178655600186018a9055336001600160a01b03167f98d1944772cc1ee399725448c633b3ec863f8be81e490479055d810afaa0225c8b8b8b6137df886001614eb6565b60058c015460068d0154604080519687526020870195909552938501929092526060840152608083015260a082015260c00160405180910390a350505050505050505050565b6001600160a01b03163b151590565b61383e8282611610565b61098757613856816001600160a01b031660146141c9565b6138618360206141c9565b604051602001613872929190614fcd565b60408051601f198184030181529082905262461bcd60e51b825261071791600401615042565b6138a28282611610565b6109875760008281526097602090815260408083206001600160a01b03851684529091529020805460ff191660011790556138da3390565b6001600160a01b0316816001600160a01b0316837f2f8788117e7eff1d82e926ec794901d17c78024a50270940304540a733656f0d60405160405180910390a45050565b6139288282611610565b156109875760008281526097602090815260408083206001600160a01b0385168085529252808320805460ff1916905551339285917ff6391f5c32d9c69d2a47ea670b442974b53935d1edc7fd64eb21e047a839171b9190a45050565b60005b61399260cd614365565b811015610a2f576139a7610afa60cd8361436f565b806139b181614dae565b915050613988565b60335460ff16613a025760405162461bcd60e51b815260206004820152601460248201527314185d5cd8589b194e881b9bdd081c185d5cd95960621b6044820152606401610717565b6033805460ff191690557f5db9ee0a495bf2e6ff9c91a7834c1ba4fdd244a5e8aa4e537bd38aeae4b073aa335b6040516001600160a01b03909116815260200160405180910390a1565b6001600160a01b038116600090815260cc60205260408120905b815481101561077a576000826000018281548110613a8657613a86614d82565b90600052602060002090600302016002015442613aa39190614e32565b90506000613abf84600001848154811061326d5761326d614d82565b905042846000018481548110613ad757613ad7614d82565b60009182526020909120600260039092020101558162015180613afb836001614eb6565b613b0d90670de0b6b3a7640000614f60565b613b179190614f7f565b613b219190614f60565b6001600160a01b038616600090815260d1602052604081208054909190613b49908490614eb6565b9250508190555050508080613b5d90614dae565b915050613a66565b6001600160a01b038116600090815260cc6020908152604080832060d190925282205490915b6001830154811015613bdd57826001018181548110613bac57613bac614d82565b90600052602060002090600202016001015482613bc99190614eb6565b915080613bd581614dae565b915050613b8b565b50613bec600183016000614559565b6001600160a01b038316600090815260d1602052604080822091909155516370a0823160e01b815230600482015273892d81221484f690c0a97d3dd18b9144a3ecdfb790829082906370a082319060240160206040518083038186803b158015613c5557600080fd5b505afa158015613c69573d6000803e3d6000fd5b505050506040513d601f19601f82011682018060405250810190613c8d9190614e19565b1015613cdb5760405162461bcd60e51b815260206004820181905260248201527f496e73756666696369656e74207265776172647320696e20636f6e74726163746044820152606401610717565b60405163a9059cbb60e01b81526001600160a01b0385811660048301526024820184905282169063a9059cbb90604401602060405180830381600087803b158015613d2557600080fd5b505af1158015613d39573d6000803e3d6000fd5b505050506040513d601f19601f82011682018060405250810190613d5d9190614e94565b50806001600160a01b0316846001600160a01b03167ff7a40077ff7a04c7e61f6f26fb13774259ddf1b6bce9ecf26a8276cdd399268384604051613da391815260200190565b60405180910390a38254158015613dbc57506001830154155b8015613dde57506001600160a01b038416600090815260d16020526040902054155b15613dee576123ca60cd856141b4565b50505050565b6001600160a01b038216600090815260cc602052604090206001810154821115613e305760405162461bcd60e51b815260040161071790614e49565b60018101546000908190613e45908590614e32565b9050805b6001840154811015613e9b57836001018181548110613e6a57613e6a614d82565b90600052602060002090600202016001015483613e879190614eb6565b925080613e9381614dae565b915050613e49565b50805b6001840154811015613ef85783600101805480613ebd57613ebd615075565b60008281526020812060026000199093019283020180546001600160a01b031916815560010155905580613ef081614dae565b915050613e9e565b506040516370a0823160e01b815230600482015273892d81221484f690c0a97d3dd18b9144a3ecdfb790839082906370a082319060240160206040518083038186803b158015613f4757600080fd5b505afa158015613f5b573d6000803e3d6000fd5b505050506040513d601f19601f82011682018060405250810190613f7f9190614e19565b1015613fcd5760405162461bcd60e51b815260206004820181905260248201527f496e73756666696369656e74207265776172647320696e20636f6e74726163746044820152606401610717565b60405163a9059cbb60e01b81526001600160a01b0387811660048301526024820185905282169063a9059cbb90604401602060405180830381600087803b15801561401757600080fd5b505af115801561402b573d6000803e3d6000fd5b505050506040513d601f19601f8201168201806040525081019061404f9190614e94565b50806001600160a01b0316866001600160a01b03167ff7a40077ff7a04c7e61f6f26fb13774259ddf1b6bce9ecf26a8276cdd39926838560405161409591815260200190565b60405180910390a383541580156140ae57506001840154155b80156140d057506001600160a01b038616600090815260d16020526040902054155b156140e2576140e060cd876141b4565b505b505050505050565b600054610100900460ff166141115760405162461bcd60e51b81526004016107179061508b565b610cec61437b565b600054610100900460ff16610cec5760405162461bcd60e51b81526004016107179061508b565b60335460ff16156141635760405162461bcd60e51b815260040161071790614dc9565b6033805460ff191660011790557f62e78cea01bee320cd4e420270b5ea74000d11b0c9f74754ebdbfc544b05a258613a2f3390565b60006141ad836001600160a01b0384166143ae565b9392505050565b60006141ad836001600160a01b0384166143fd565b606060006141d8836002614f60565b6141e3906002614eb6565b67ffffffffffffffff8111156141fb576141fb6146f3565b6040519080825280601f01601f191660200182016040528015614225576020820181803683370190505b509050600360fc1b8160008151811061424057614240614d82565b60200101906001600160f81b031916908160001a905350600f60fb1b8160018151811061426f5761426f614d82565b60200101906001600160f81b031916908160001a9053506000614293846002614f60565b61429e906001614eb6565b90505b6001811115614316576f181899199a1a9b1b9c1cb0b131b232b360811b85600f16601081106142d2576142d2614d82565b1a60f81b8282815181106142e8576142e8614d82565b60200101906001600160f81b031916908160001a90535060049490941c9361430f816150d6565b90506142a1565b5083156141ad5760405162461bcd60e51b815260206004820181905260248201527f537472696e67733a20686578206c656e67746820696e73756666696369656e746044820152606401610717565b60006106be825490565b60006141ad83836144f0565b600054610100900460ff166143a25760405162461bcd60e51b81526004016107179061508b565b6033805460ff19169055565b60008181526001830160205260408120546143f5575081546001818101845560008481526020808220909301849055845484825282860190935260409020919091556106be565b5060006106be565b600081815260018301602052604081205480156144e6576000614421600183614e32565b855490915060009061443590600190614e32565b905081811461449a57600086600001828154811061445557614455614d82565b906000526020600020015490508087600001848154811061447857614478614d82565b6000918252602080832090910192909255918252600188019052604090208390555b85548690806144ab576144ab615075565b6001900381819060005260206000200160009055905585600101600086815260200190815260200160002060009055600193505050506106be565b60009150506106be565b600082600001828154811061450757614507614d82565b9060005260206000200154905092915050565b5080546000825590600052602060002090810190610a2f919061457a565b5080546000825560030290600052602060002090810190610a2f9190614593565b5080546000825560020290600052602060002090810190610a2f91906145c0565b5b8082111561458f576000815560010161457b565b5090565b5b8082111561458f5780546001600160a01b03191681556000600182018190556002820155600301614594565b5b8082111561458f5780546001600160a01b0319168155600060018201556002016145c1565b6000602082840312156145f857600080fd5b81356001600160e01b0319811681146141ad57600080fd5b60008060006060848603121561462557600080fd5b505081359360208301359350604090920135919050565b80356001600160a01b038116811461465357600080fd5b919050565b60008060008060006080868803121561467057600080fd5b6146798661463c565b94506146876020870161463c565b935060408601359250606086013567ffffffffffffffff808211156146ab57600080fd5b818801915088601f8301126146bf57600080fd5b8135818111156146ce57600080fd5b8960208285010111156146e057600080fd5b9699959850939650602001949392505050565b634e487b7160e01b600052604160045260246000fd5b604051601f8201601f1916810167ffffffffffffffff81118282101715614732576147326146f3565b604052919050565b600067ffffffffffffffff821115614754576147546146f3565b5060051b60200190565b600082601f83011261476f57600080fd5b8135602061478461477f8361473a565b614709565b82815260059290921b840181019181810190868411156147a357600080fd5b8286015b848110156147c5576147b88161463c565b83529183019183016147a7565b509695505050505050565b600082601f8301126147e157600080fd5b813560206147f161477f8361473a565b82815260059290921b8401810191818101908684111561481057600080fd5b8286015b848110156147c55780358352918301918301614814565b6000806040838503121561483e57600080fd5b823567ffffffffffffffff8082111561485657600080fd5b6148628683870161475e565b9350602085013591508082111561487857600080fd5b50614885858286016147d0565b9150509250929050565b6000602082840312156148a157600080fd5b5035919050565b600080604083850312156148bb57600080fd5b823591506148cb6020840161463c565b90509250929050565b6000806000606084860312156148e957600080fd5b6148f28461463c565b95602085013595506040909401359392505050565b60006020828403121561491957600080fd5b6141ad8261463c565b602080825282518282018190526000919060409081850190868401855b8281101561496d57815180516001600160a01b0316855286015186850152928401929085019060010161493f565b5091979650505050505050565b6000806040838503121561498d57600080fd5b6149968361463c565b946020939093013593505050565b6020808252825182820181905260009190848201906040850190845b818110156149dc578351835292840192918401916001016149c0565b50909695505050505050565b6000806000606084860312156149fd57600080fd5b614a068461463c565b9250614a146020850161463c565b9150604084013590509250925092565b60008060008060008060c08789031215614a3d57600080fd5b614a468761463c565b9550614a546020880161463c565b94506040870135935060608701359250608087013567ffffffffffffffff80821115614a7f57600080fd5b614a8b8a838b016147d0565b935060a0890135915080821115614aa157600080fd5b50614aae89828a016147d0565b9150509295509295509295565b602080825282518282018190526000919060409081850190868401855b8281101561496d57815180516001600160a01b0316855286810151878601528581015186860152606080820151908601526080808201519086015260a0808201519086015260c0908101519085015260e09093019290850190600101614ad8565b60008060008060808587031215614b4f57600080fd5b614b588561463c565b9350614b666020860161463c565b93969395505050506040820135916060013590565b600080600060608486031215614b9057600080fd5b833567ffffffffffffffff80821115614ba857600080fd5b614bb4878388016147d0565b94506020860135915080821115614bca57600080fd5b614bd6878388016147d0565b93506040860135915080821115614bec57600080fd5b50614bf9868287016147d0565b9150509250925092565b60008060008060808587031215614c1957600080fd5b843567ffffffffffffffff80821115614c3157600080fd5b614c3d8883890161475e565b95506020870135915080821115614c5357600080fd5b614c5f888389016147d0565b94506040870135915080821115614c7557600080fd5b614c81888389016147d0565b93506060870135915080821115614c9757600080fd5b50614ca4878288016147d0565b91505092959194509250565b602080825282518282018190526000919060409081850190868401855b8281101561496d57815180516001600160a01b0316855286810151878601528501518585015260609093019290850190600101614ccd565b60008060008060808587031215614d1b57600080fd5b614d248561463c565b966020860135965060408601359560600135945092505050565b60208082526024908201527f6164647265737320636f756e74206d757374206d6174636820746f6b656e20636040820152631bdd5b9d60e21b606082015260800190565b634e487b7160e01b600052603260045260246000fd5b634e487b7160e01b600052601160045260246000fd5b6000600019821415614dc257614dc2614d98565b5060010190565b60208082526010908201526f14185d5cd8589b194e881c185d5cd95960821b604082015260600190565b6001600160a01b0394909416845260208401929092526040830152606082015260800190565b600060208284031215614e2b57600080fd5b5051919050565b600082821015614e4457614e44614d98565b500390565b6020808252600d908201526c125b9d985b1a590818dbdd5b9d609a1b604082015260600190565b6001600160a01b039384168152919092166020820152604081019190915260600190565b600060208284031215614ea657600080fd5b815180151581146141ad57600080fd5b60008219821115614ec957614ec9614d98565b500190565b60208082526028908201527f6d6178506f696e7473506572536b696c6c206d75737420626520677265617465604082015267072207468616e20360c41b606082015260800190565b6020808252602a908201527f737461727454696d65206d7573742062652061206675747572652074696d6520604082015269696e207365636f6e647360b01b606082015260800190565b6000816000190483118215151615614f7a57614f7a614d98565b500290565b600082614f9c57634e487b7160e01b600052601260045260246000fd5b500490565b60005b83811015614fbc578181015183820152602001614fa4565b83811115613dee5750506000910152565b7f416363657373436f6e74726f6c3a206163636f756e7420000000000000000000815260008351615005816017850160208801614fa1565b7001034b99036b4b9b9b4b733903937b6329607d1b6017918401918201528351615036816028840160208801614fa1565b01602801949350505050565b6020815260008251806020840152615061816040850160208701614fa1565b601f01601f19169190910160400192915050565b634e487b7160e01b600052603160045260246000fd5b6020808252602b908201527f496e697469616c697a61626c653a20636f6e7472616374206973206e6f74206960408201526a6e697469616c697a696e6760a81b606082015260800190565b6000816150e5576150e5614d98565b50600019019056fe73e573f9566d61418a34d5de3ff49360f9c51fec37f7486551670290f6285dab65d7a28e3265b37a6474929f336521b332c1681b933f6cb9f3376673440d862aa264697066735822122026cdd47f84628d6b8593943c9cc9a41ed7099b76099c2900e736f852a7ea5a7364736f6c63430008090033",
  "linkReferences": {},
  "deployedLinkReferences": {}
}