{
  "_format": "hh-sol-artifact-1",
  "contractName": "ProfessionStakingUpgradeable",
  "sourceName": "contracts/ProfessionStakingUpgradeable.sol",
  "abi": [
    {
      "inputs": [],
      "stateMutability": "nonpayable",
      "type": "constructor"
    },
    {
      "anonymous": false,
      "inputs": [
        {
          "indexed": true,
          "internalType": "address",
          "name": "by",
          "type": "address"
        },
        {
          "indexed": true,
          "internalType": "address",
          "name": "token",
          "type": "address"
        },
        {
          "indexed": false,
          "internalType": "uint256",
          "name": "amount",
          "type": "uint256"
        }
      ],
      "name": "Claimed",
      "type": "event"
    },
    {
      "anonymous": false,
      "inputs": [
        {
          "indexed": false,
          "internalType": "address",
          "name": "account",
          "type": "address"
        }
      ],
      "name": "Paused",
      "type": "event"
    },
    {
      "anonymous": false,
      "inputs": [
        {
          "indexed": true,
          "internalType": "address",
          "name": "from",
          "type": "address"
        },
        {
          "indexed": true,
          "internalType": "address",
          "name": "token",
          "type": "address"
        },
        {
          "indexed": false,
          "internalType": "uint256",
          "name": "amount",
          "type": "uint256"
        }
      ],
      "name": "PoolRewardsDeposited",
      "type": "event"
    },
    {
      "anonymous": false,
      "inputs": [
        {
          "indexed": true,
          "internalType": "address",
          "name": "by",
          "type": "address"
        },
        {
          "indexed": true,
          "internalType": "address",
          "name": "to",
          "type": "address"
        },
        {
          "indexed": true,
          "internalType": "address",
          "name": "token",
          "type": "address"
        },
        {
          "indexed": false,
          "internalType": "uint256",
          "name": "amount",
          "type": "uint256"
        }
      ],
      "name": "PoolRewardsWithdrawn",
      "type": "event"
    },
    {
      "anonymous": false,
      "inputs": [
        {
          "indexed": true,
          "internalType": "bytes32",
          "name": "role",
          "type": "bytes32"
        },
        {
          "indexed": true,
          "internalType": "bytes32",
          "name": "previousAdminRole",
          "type": "bytes32"
        },
        {
          "indexed": true,
          "internalType": "bytes32",
          "name": "newAdminRole",
          "type": "bytes32"
        }
      ],
      "name": "RoleAdminChanged",
      "type": "event"
    },
    {
      "anonymous": false,
      "inputs": [
        {
          "indexed": true,
          "internalType": "bytes32",
          "name": "role",
          "type": "bytes32"
        },
        {
          "indexed": true,
          "internalType": "address",
          "name": "account",
          "type": "address"
        },
        {
          "indexed": true,
          "internalType": "address",
          "name": "sender",
          "type": "address"
        }
      ],
      "name": "RoleGranted",
      "type": "event"
    },
    {
      "anonymous": false,
      "inputs": [
        {
          "indexed": true,
          "internalType": "bytes32",
          "name": "role",
          "type": "bytes32"
        },
        {
          "indexed": true,
          "internalType": "address",
          "name": "account",
          "type": "address"
        },
        {
          "indexed": true,
          "internalType": "address",
          "name": "sender",
          "type": "address"
        }
      ],
      "name": "RoleRevoked",
      "type": "event"
    },
    {
      "anonymous": false,
      "inputs": [
        {
          "indexed": true,
          "internalType": "address",
          "name": "from",
          "type": "address"
        },
        {
          "indexed": true,
          "internalType": "address",
          "name": "nftAddress",
          "type": "address"
        },
        {
          "indexed": false,
          "internalType": "uint256",
          "name": "tokenId",
          "type": "uint256"
        }
      ],
      "name": "Staked",
      "type": "event"
    },
    {
      "anonymous": false,
      "inputs": [
        {
          "indexed": true,
          "internalType": "address",
          "name": "nftAddress",
          "type": "address"
        },
        {
          "indexed": false,
          "internalType": "address",
          "name": "rewardToken",
          "type": "address"
        },
        {
          "indexed": false,
          "internalType": "uint256",
          "name": "startTime",
          "type": "uint256"
        }
      ],
      "name": "StakingConfigCreated",
      "type": "event"
    },
    {
      "anonymous": false,
      "inputs": [
        {
          "indexed": true,
          "internalType": "address",
          "name": "nftAddress",
          "type": "address"
        }
      ],
      "name": "StakingConfigDeleted",
      "type": "event"
    },
    {
      "anonymous": false,
      "inputs": [
        {
          "indexed": true,
          "internalType": "address",
          "name": "nftAddress",
          "type": "address"
        },
        {
          "indexed": false,
          "internalType": "address",
          "name": "rewardToken",
          "type": "address"
        },
        {
          "indexed": false,
          "internalType": "uint256",
          "name": "startTime",
          "type": "uint256"
        }
      ],
      "name": "StakingConfigUpdated",
      "type": "event"
    },
    {
      "anonymous": false,
      "inputs": [
        {
          "indexed": true,
          "internalType": "address",
          "name": "by",
          "type": "address"
        },
        {
          "indexed": true,
          "internalType": "address",
          "name": "nftAddress",
          "type": "address"
        },
        {
          "indexed": false,
          "internalType": "uint256",
          "name": "tokenId",
          "type": "uint256"
        }
      ],
      "name": "StakingUnlocked",
      "type": "event"
    },
    {
      "anonymous": false,
      "inputs": [
        {
          "indexed": true,
          "internalType": "address",
          "name": "by",
          "type": "address"
        },
        {
          "indexed": true,
          "internalType": "address",
          "name": "nftAddress",
          "type": "address"
        },
        {
          "indexed": false,
          "internalType": "uint256",
          "name": "tokenId",
          "type": "uint256"
        },
        {
          "indexed": false,
          "internalType": "uint256",
          "name": "treeId",
          "type": "uint256"
        },
        {
          "indexed": false,
          "internalType": "uint256",
          "name": "skillId",
          "type": "uint256"
        },
        {
          "indexed": false,
          "internalType": "uint256",
          "name": "canceledAt",
          "type": "uint256"
        }
      ],
      "name": "TrainingCanceled",
      "type": "event"
    },
    {
      "anonymous": false,
      "inputs": [
        {
          "indexed": true,
          "internalType": "address",
          "name": "by",
          "type": "address"
        },
        {
          "indexed": true,
          "internalType": "address",
          "name": "nftAddress",
          "type": "address"
        },
        {
          "indexed": false,
          "internalType": "uint256",
          "name": "tokenId",
          "type": "uint256"
        },
        {
          "indexed": false,
          "internalType": "uint256",
          "name": "treeId",
          "type": "uint256"
        },
        {
          "indexed": false,
          "internalType": "uint256",
          "name": "skillId",
          "type": "uint256"
        },
        {
          "indexed": false,
          "internalType": "uint256",
          "name": "level",
          "type": "uint256"
        }
      ],
      "name": "TrainingFinished",
      "type": "event"
    },
    {
      "anonymous": false,
      "inputs": [
        {
          "indexed": true,
          "internalType": "address",
          "name": "by",
          "type": "address"
        },
        {
          "indexed": true,
          "internalType": "address",
          "name": "nftAddress",
          "type": "address"
        },
        {
          "indexed": false,
          "internalType": "uint256",
          "name": "tokenId",
          "type": "uint256"
        },
        {
          "indexed": false,
          "internalType": "uint256",
          "name": "treeId",
          "type": "uint256"
        },
        {
          "indexed": false,
          "internalType": "uint256",
          "name": "skillId",
          "type": "uint256"
        },
        {
          "indexed": false,
          "internalType": "uint256",
          "name": "level",
          "type": "uint256"
        },
        {
          "indexed": false,
          "internalType": "uint256",
          "name": "startedAt",
          "type": "uint256"
        },
        {
          "indexed": false,
          "internalType": "uint256",
          "name": "completeAt",
          "type": "uint256"
        }
      ],
      "name": "TrainingStarted",
      "type": "event"
    },
    {
      "anonymous": false,
      "inputs": [
        {
          "indexed": false,
          "internalType": "address",
          "name": "account",
          "type": "address"
        }
      ],
      "name": "Unpaused",
      "type": "event"
    },
    {
      "anonymous": false,
      "inputs": [
        {
          "indexed": true,
          "internalType": "address",
          "name": "from",
          "type": "address"
        },
        {
          "indexed": true,
          "internalType": "address",
          "name": "nftAddress",
          "type": "address"
        },
        {
          "indexed": false,
          "internalType": "uint256",
          "name": "tokenId",
          "type": "uint256"
        }
      ],
      "name": "Unstaked",
      "type": "event"
    },
    {
      "inputs": [],
      "name": "DEFAULT_ADMIN_ROLE",
      "outputs": [
        {
          "internalType": "bytes32",
          "name": "",
          "type": "bytes32"
        }
      ],
      "stateMutability": "view",
      "type": "function"
    },
    {
      "inputs": [],
      "name": "GAME_STORAGE",
      "outputs": [
        {
          "internalType": "contract IGameStorageUpgradeable",
          "name": "",
          "type": "address"
        }
      ],
      "stateMutability": "view",
      "type": "function"
    },
    {
      "inputs": [],
      "name": "PAUSER_ROLE",
      "outputs": [
        {
          "internalType": "bytes32",
          "name": "",
          "type": "bytes32"
        }
      ],
      "stateMutability": "view",
      "type": "function"
    },
    {
      "inputs": [],
      "name": "UPDATER_ROLE",
      "outputs": [
        {
          "internalType": "bytes32",
          "name": "",
          "type": "bytes32"
        }
      ],
      "stateMutability": "view",
      "type": "function"
    },
    {
      "inputs": [
        {
          "internalType": "uint256[]",
          "name": "level",
          "type": "uint256[]"
        },
        {
          "internalType": "uint256[]",
          "name": "cost",
          "type": "uint256[]"
        },
        {
          "internalType": "uint256[]",
          "name": "time",
          "type": "uint256[]"
        }
      ],
      "name": "batchSetTrainingCosts",
      "outputs": [],
      "stateMutability": "nonpayable",
      "type": "function"
    },
    {
      "inputs": [
        {
          "internalType": "address[]",
          "name": "nftAddresses",
          "type": "address[]"
        },
        {
          "internalType": "uint256[]",
          "name": "tokenIds",
          "type": "uint256[]"
        }
      ],
      "name": "batchStake",
      "outputs": [],
      "stateMutability": "nonpayable",
      "type": "function"
    },
    {
      "inputs": [
        {
          "internalType": "address[]",
          "name": "nftAddresses",
          "type": "address[]"
        },
        {
          "internalType": "uint256[]",
          "name": "tokenIds",
          "type": "uint256[]"
        }
      ],
      "name": "batchUnstake",
      "outputs": [],
      "stateMutability": "nonpayable",
      "type": "function"
    },
    {
      "inputs": [
        {
          "internalType": "address",
          "name": "nftAddress",
          "type": "address"
        },
        {
          "internalType": "uint256",
          "name": "tokenId",
          "type": "uint256"
        }
      ],
      "name": "cancelTraining",
      "outputs": [],
      "stateMutability": "nonpayable",
      "type": "function"
    },
    {
      "inputs": [],
      "name": "claim",
      "outputs": [],
      "stateMutability": "nonpayable",
      "type": "function"
    },
    {
      "inputs": [
        {
          "internalType": "address",
          "name": "nftAddress",
          "type": "address"
        },
        {
          "internalType": "address",
          "name": "rewardToken",
          "type": "address"
        },
        {
          "internalType": "uint256",
          "name": "startTime",
          "type": "uint256"
        },
        {
          "internalType": "uint256",
          "name": "maxPointsPerSkill",
          "type": "uint256"
        },
        {
          "internalType": "uint256[]",
          "name": "treeIds",
          "type": "uint256[]"
        },
        {
          "internalType": "uint256[]",
          "name": "skillIds",
          "type": "uint256[]"
        }
      ],
      "name": "createStakingConfig",
      "outputs": [],
      "stateMutability": "nonpayable",
      "type": "function"
    },
    {
      "inputs": [
        {
          "internalType": "address",
          "name": "nftAddress",
          "type": "address"
        }
      ],
      "name": "deleteStakingConfig",
      "outputs": [],
      "stateMutability": "nonpayable",
      "type": "function"
    },
    {
      "inputs": [
        {
          "internalType": "address",
          "name": "token",
          "type": "address"
        },
        {
          "internalType": "uint256",
          "name": "amount",
          "type": "uint256"
        }
      ],
      "name": "depositPoolRewards",
      "outputs": [],
      "stateMutability": "nonpayable",
      "type": "function"
    },
    {
      "inputs": [
        {
          "internalType": "address",
          "name": "nftAddress",
          "type": "address"
        },
        {
          "internalType": "uint256",
          "name": "tokenId",
          "type": "uint256"
        }
      ],
      "name": "enableStaking",
      "outputs": [],
      "stateMutability": "nonpayable",
      "type": "function"
    },
    {
      "inputs": [
        {
          "internalType": "address",
          "name": "nftAddress",
          "type": "address"
        },
        {
          "internalType": "uint256",
          "name": "tokenId",
          "type": "uint256"
        }
      ],
      "name": "finishTraining",
      "outputs": [],
      "stateMutability": "nonpayable",
      "type": "function"
    },
    {
      "inputs": [],
      "name": "forceDisperse",
      "outputs": [],
      "stateMutability": "nonpayable",
      "type": "function"
    },
    {
      "inputs": [],
      "name": "getActiveTraining",
      "outputs": [
        {
          "components": [
            {
              "internalType": "address",
              "name": "_address",
              "type": "address"
            },
            {
              "internalType": "uint256",
              "name": "tokenId",
              "type": "uint256"
            },
            {
              "internalType": "uint256",
              "name": "level",
              "type": "uint256"
            },
            {
              "internalType": "uint256",
              "name": "treeId",
              "type": "uint256"
            },
            {
              "internalType": "uint256",
              "name": "skillId",
              "type": "uint256"
            },
            {
              "internalType": "uint256",
              "name": "startedAt",
              "type": "uint256"
            },
            {
              "internalType": "uint256",
              "name": "completeAt",
              "type": "uint256"
            }
          ],
          "internalType": "struct ProfessionStakingUpgradeable.TrainingStatus[]",
          "name": "",
          "type": "tuple[]"
        }
      ],
      "stateMutability": "view",
      "type": "function"
    },
    {
      "inputs": [
        {
          "internalType": "address",
          "name": "nftAddress",
          "type": "address"
        },
        {
          "internalType": "uint256",
          "name": "tokenId",
          "type": "uint256"
        }
      ],
      "name": "getAllowedSkillChoices",
      "outputs": [
        {
          "internalType": "uint256[]",
          "name": "",
          "type": "uint256[]"
        }
      ],
      "stateMutability": "view",
      "type": "function"
    },
    {
      "inputs": [
        {
          "internalType": "bytes32",
          "name": "role",
          "type": "bytes32"
        }
      ],
      "name": "getRoleAdmin",
      "outputs": [
        {
          "internalType": "bytes32",
          "name": "",
          "type": "bytes32"
        }
      ],
      "stateMutability": "view",
      "type": "function"
    },
    {
      "inputs": [],
      "name": "getStaked",
      "outputs": [
        {
          "components": [
            {
              "internalType": "address",
              "name": "_address",
              "type": "address"
            },
            {
              "internalType": "uint256",
              "name": "tokenId",
              "type": "uint256"
            },
            {
              "internalType": "uint256",
              "name": "rewardFrom",
              "type": "uint256"
            }
          ],
          "internalType": "struct ProfessionStakingUpgradeable.NFT[]",
          "name": "",
          "type": "tuple[]"
        }
      ],
      "stateMutability": "view",
      "type": "function"
    },
    {
      "inputs": [
        {
          "internalType": "address",
          "name": "ntfAddress",
          "type": "address"
        },
        {
          "internalType": "uint256",
          "name": "tokenId",
          "type": "uint256"
        }
      ],
      "name": "getTotalProfessionSkillPoints",
      "outputs": [
        {
          "internalType": "uint256",
          "name": "",
          "type": "uint256"
        }
      ],
      "stateMutability": "view",
      "type": "function"
    },
    {
      "inputs": [
        {
          "internalType": "bytes32",
          "name": "role",
          "type": "bytes32"
        },
        {
          "internalType": "address",
          "name": "account",
          "type": "address"
        }
      ],
      "name": "grantRole",
      "outputs": [],
      "stateMutability": "nonpayable",
      "type": "function"
    },
    {
      "inputs": [
        {
          "internalType": "bytes32",
          "name": "role",
          "type": "bytes32"
        },
        {
          "internalType": "address",
          "name": "account",
          "type": "address"
        }
      ],
      "name": "hasRole",
      "outputs": [
        {
          "internalType": "bool",
          "name": "",
          "type": "bool"
        }
      ],
      "stateMutability": "view",
      "type": "function"
    },
    {
      "inputs": [],
      "name": "initialize",
      "outputs": [],
      "stateMutability": "nonpayable",
      "type": "function"
    },
    {
      "inputs": [
        {
          "internalType": "address",
          "name": "nftAddress",
          "type": "address"
        },
        {
          "internalType": "uint256",
          "name": "tokenId",
          "type": "uint256"
        }
      ],
      "name": "isStakingEnabled",
      "outputs": [
        {
          "internalType": "bool",
          "name": "",
          "type": "bool"
        }
      ],
      "stateMutability": "view",
      "type": "function"
    },
    {
      "inputs": [
        {
          "internalType": "address",
          "name": "operator",
          "type": "address"
        },
        {
          "internalType": "address",
          "name": "from",
          "type": "address"
        },
        {
          "internalType": "uint256",
          "name": "tokenId",
          "type": "uint256"
        },
        {
          "internalType": "bytes",
          "name": "data",
          "type": "bytes"
        }
      ],
      "name": "onERC721Received",
      "outputs": [
        {
          "internalType": "bytes4",
          "name": "",
          "type": "bytes4"
        }
      ],
      "stateMutability": "pure",
      "type": "function"
    },
    {
      "inputs": [],
      "name": "pause",
      "outputs": [],
      "stateMutability": "nonpayable",
      "type": "function"
    },
    {
      "inputs": [],
      "name": "paused",
      "outputs": [
        {
          "internalType": "bool",
          "name": "",
          "type": "bool"
        }
      ],
      "stateMutability": "view",
      "type": "function"
    },
    {
      "inputs": [],
      "name": "pendingRewards",
      "outputs": [
        {
          "internalType": "uint256",
          "name": "",
          "type": "uint256"
        }
      ],
      "stateMutability": "view",
      "type": "function"
    },
    {
      "inputs": [
        {
          "internalType": "bytes32",
          "name": "role",
          "type": "bytes32"
        },
        {
          "internalType": "address",
          "name": "account",
          "type": "address"
        }
      ],
      "name": "renounceRole",
      "outputs": [],
      "stateMutability": "nonpayable",
      "type": "function"
    },
    {
      "inputs": [
        {
          "internalType": "bytes32",
          "name": "role",
          "type": "bytes32"
        },
        {
          "internalType": "address",
          "name": "account",
          "type": "address"
        }
      ],
      "name": "revokeRole",
      "outputs": [],
      "stateMutability": "nonpayable",
      "type": "function"
    },
    {
      "inputs": [
        {
          "internalType": "address",
          "name": "_address",
          "type": "address"
        }
      ],
      "name": "setGameStorage",
      "outputs": [],
      "stateMutability": "nonpayable",
      "type": "function"
    },
    {
      "inputs": [
        {
          "internalType": "address",
          "name": "nftAddress",
          "type": "address"
        },
        {
          "internalType": "uint256",
          "name": "treeId",
          "type": "uint256"
        },
        {
          "internalType": "uint256",
          "name": "skillId",
          "type": "uint256"
        }
      ],
      "name": "setSkillPointer",
      "outputs": [],
      "stateMutability": "nonpayable",
      "type": "function"
    },
    {
      "inputs": [
        {
          "internalType": "uint256",
          "name": "level",
          "type": "uint256"
        },
        {
          "internalType": "uint256",
          "name": "cost",
          "type": "uint256"
        },
        {
          "internalType": "uint256",
          "name": "time",
          "type": "uint256"
        }
      ],
      "name": "setTrainingCost",
      "outputs": [],
      "stateMutability": "nonpayable",
      "type": "function"
    },
    {
      "inputs": [
        {
          "internalType": "address",
          "name": "nftAddress",
          "type": "address"
        },
        {
          "internalType": "uint256",
          "name": "tokenId",
          "type": "uint256"
        }
      ],
      "name": "stake",
      "outputs": [],
      "stateMutability": "nonpayable",
      "type": "function"
    },
    {
      "inputs": [
        {
          "internalType": "address",
          "name": "nftAddress",
          "type": "address"
        },
        {
          "internalType": "uint256",
          "name": "tokenId",
          "type": "uint256"
        },
        {
          "internalType": "uint256",
          "name": "treeId",
          "type": "uint256"
        },
        {
          "internalType": "uint256",
          "name": "skillId",
          "type": "uint256"
        }
      ],
      "name": "startTraining",
      "outputs": [],
      "stateMutability": "nonpayable",
      "type": "function"
    },
    {
      "inputs": [
        {
          "internalType": "bytes4",
          "name": "interfaceId",
          "type": "bytes4"
        }
      ],
      "name": "supportsInterface",
      "outputs": [
        {
          "internalType": "bool",
          "name": "",
          "type": "bool"
        }
      ],
      "stateMutability": "view",
      "type": "function"
    },
    {
      "inputs": [],
      "name": "unpause",
      "outputs": [],
      "stateMutability": "nonpayable",
      "type": "function"
    },
    {
      "inputs": [
        {
          "internalType": "address",
          "name": "nftAddress",
          "type": "address"
        },
        {
          "internalType": "uint256",
          "name": "tokenId",
          "type": "uint256"
        }
      ],
      "name": "unstake",
      "outputs": [],
      "stateMutability": "nonpayable",
      "type": "function"
    },
    {
      "inputs": [
        {
          "internalType": "address",
          "name": "nftAddress",
          "type": "address"
        },
        {
          "internalType": "address",
          "name": "rewardToken",
          "type": "address"
        },
        {
          "internalType": "uint256",
          "name": "startTime",
          "type": "uint256"
        },
        {
          "internalType": "uint256",
          "name": "maxPointsPerSkill",
          "type": "uint256"
        }
      ],
      "name": "updateStakingConfig",
      "outputs": [],
      "stateMutability": "nonpayable",
      "type": "function"
    },
    {
      "inputs": [
        {
          "internalType": "address",
          "name": "to",
          "type": "address"
        },
        {
          "internalType": "address",
          "name": "token",
          "type": "address"
        },
        {
          "internalType": "uint256",
          "name": "amount",
          "type": "uint256"
        }
      ],
      "name": "withdrawPoolRewards",
      "outputs": [],
      "stateMutability": "nonpayable",
      "type": "function"
    }
  ],
  "bytecode": "0x60806040523480156200001157600080fd5b50600054610100900460ff166200002f5760005460ff161562000039565b62000039620000de565b620000a15760405162461bcd60e51b815260206004820152602e60248201527f496e697469616c697a61626c653a20636f6e747261637420697320616c72656160448201526d191e481a5b9a5d1a585b1a5e995960921b606482015260840160405180910390fd5b600054610100900460ff16158015620000c4576000805461ffff19166101011790555b8015620000d7576000805461ff00191690555b506200010b565b6000620000f630620000fc60201b620034431760201c565b15905090565b6001600160a01b03163b151590565b61476c806200011b6000396000f3fe608060405234801561001057600080fd5b50600436106102485760003560e01c806386e8953d1161013b578063c2a672e0116100b8578063d547741f1161007c578063d547741f1461053a578063e62ccc9c1461054d578063e63ab1e914610560578063eded3fda14610575578063fa5887ee1461057d57600080fd5b8063c2a672e0146104e4578063c486efbf146104f7578063c59abf9f146104ff578063cc3f7b1c14610514578063d3a13d421461052757600080fd5b8063a401344b116100ff578063a401344b14610485578063abfc6e7314610498578063adc9772e146104ab578063aed2151a146104be578063bea64ba2146104d157600080fd5b806386e8953d1461042f57806391d148541461044257806394a77066146104555780639f8f606814610468578063a217fddf1461047d57600080fd5b80633f4ba83a116101c95780635c975abb1161018d5780635c975abb146103ee5780637e5b5e5f146103f95780638129fc1c1461040c57806381fda71d146104145780638456cb591461042757600080fd5b80633f4ba83a1461039657806347e633801461039e5780634cb12fee146103b35780634e71d92d146103c65780635a2d8800146103ce57600080fd5b80632f2ff15d116102105780632f2ff15d1461033757806332b95a6f1461034a57806333820bac1461035d57806336568abe146103705780633d564e491461038357600080fd5b806301ffc9a71461024d5780630ae7a46114610275578063150b7a021461028a57806323de54d8146102db578063248a9ca314610306575b600080fd5b61026061025b366004613d14565b610590565b60405190151581526020015b60405180910390f35b610288610283366004613d3e565b6105c7565b005b6102c2610298366004613d86565b7f150b7a023d4804d13e8c85fb27262cb750cf6ba9f9dd3bb30d90f482ceeb4b1f95945050505050565b6040516001600160e01b0319909116815260200161026c565b60c9546102ee906001600160a01b031681565b6040516001600160a01b03909116815260200161026c565b610329610314366004613e21565b60009081526097602052604090206001015490565b60405190815260200161026c565b610288610345366004613e3a565b6105f9565b610288610358366004613f3c565b610624565b61028861036b366004613ffc565b6106cb565b61028861037e366004613e3a565b610707565b610288610391366004613f3c565b610785565b610288610800565b6103296000805160206146f783398151915281565b6102886103c136600461402f565b61082c565b610288610a67565b6103e16103dc36600461402f565b610cf6565b60405161026c9190614059565b60335460ff16610260565b61028861040736600461402f565b6111d3565b61028861129a565b61032961042236600461402f565b61139d565b61028861145d565b61026061043d36600461402f565b611486565b610260610450366004613e3a565b611549565b61028861046336600461409d565b611574565b61047061193a565b60405161026c9190614134565b610329600081565b6102886104933660046141bf565b611ca5565b6102886104a63660046141da565b611d4e565b6102886104b936600461402f565b611f4f565b6102886104cc36600461421c565b6121ce565b6102886104df3660046142a4565b6122d1565b6102886104f236600461402f565b61248c565b610288612848565b61050761285c565b60405161026c91906142e0565b61028861052236600461402f565b6128e9565b6102886105353660046141bf565b612be4565b610288610548366004613e3a565b612c20565b61028861055b36600461402f565b612c46565b61032960008051602061471783398151915281565b610329612d66565b61028861058b366004614335565b612f34565b60006001600160e01b03198216637965db0b60e01b14806105c157506301ffc9a760e01b6001600160e01b03198316145b92915050565b6000805160206146f78339815191526105e08133613452565b50600092835260cb602052604090922090815560010155565b6000828152609760205260409020600101546106158133613452565b61061f83836134b6565b505050565b60335460ff16156106505760405162461bcd60e51b81526004016106479061436e565b60405180910390fd5b80518251146106715760405162461bcd60e51b815260040161064790614398565b60005b825181101561061f576106b9838281518110610692576106926143dc565b60200260200101518383815181106106ac576106ac6143dc565b6020026020010151611f4f565b806106c381614408565b915050610674565b6000805160206146f78339815191526106e48133613452565b506001600160a01b03909216600090815260d06020526040902090815560010155565b6001600160a01b03811633146107775760405162461bcd60e51b815260206004820152602f60248201527f416363657373436f6e74726f6c3a2063616e206f6e6c792072656e6f756e636560448201526e103937b632b9903337b91039b2b63360891b6064820152608401610647565b610781828261353c565b5050565b80518251146107a65760405162461bcd60e51b815260040161064790614398565b60005b825181101561061f576107ee8382815181106107c7576107c76143dc565b60200260200101518383815181106107e1576107e16143dc565b602002602001015161248c565b806107f881614408565b9150506107a9565b6000805160206147178339815191526108198133613452565b6108216135a3565b6108296135d7565b50565b33600090815260ca602090815260408083206001600160a01b03861684528252808320848452909152902060058101546108975760405162461bcd60e51b815260206004820152600c60248201526b4e6f7420747261696e696e6760a01b6044820152606401610647565b42816006015411156108eb5760405162461bcd60e51b815260206004820152601a60248201527f547261696e696e67207374696c6c20696e2070726f67726573730000000000006044820152606401610647565b6108f93361366a565b61366a565b60c95460038201546004808401546002850154604051630d126da960e11b81526001600160a01b03898116948201949094526024810188905260448101949094526064840191909152608483015290911690631a24db529060a401600060405180830381600087803b15801561096e57600080fd5b505af1158015610982573d6000803e3d6000fd5b50505050826001600160a01b03166109973390565b6001600160a01b03167f4cffb663b46d78e759211fc8a998ed5dd16066c4229b4b4e94bc0ff7431e85a8848460030154856004015486600201546040516109f7949392919093845260208401929092526040830152606082015260800190565b60405180910390a35033600090815260ca602090815260408083206001600160a01b039590951683529381528382209282529190915290812080546001600160a01b0319168155600181018290556002810182905560038101829055600481018290556005810182905560060155565b610a703361366a565b33600090815260cc602052604090206001810154610ac35760405162461bcd60e51b815260206004820152601060248201526f4e6f7468696e6720746f20636c61696d60801b6044820152606401610647565b6000805b6001830154811015610b1957826001018181548110610ae857610ae86143dc565b90600052602060002090600202016001015482610b059190614423565b915080610b1181614408565b915050610ac7565b50610b28600183016000613c48565b6040516370a0823160e01b815230600482015273892d81221484f690c0a97d3dd18b9144a3ecdfb790829082906370a082319060240160206040518083038186803b158015610b7657600080fd5b505afa158015610b8a573d6000803e3d6000fd5b505050506040513d601f19601f82011682018060405250810190610bae919061443b565b1015610bfc5760405162461bcd60e51b815260206004820181905260248201527f496e73756666696369656e74207265776172647320696e20636f6e74726163746044820152606401610647565b6001600160a01b03811663a9059cbb336040516001600160e01b031960e084901b1681526001600160a01b03909116600482015260248101859052604401602060405180830381600087803b158015610c5457600080fd5b505af1158015610c68573d6000803e3d6000fd5b505050506040513d601f19601f82011682018060405250810190610c8c9190614454565b506040518281526001600160a01b0382169033907ff7a40077ff7a04c7e61f6f26fb13774259ddf1b6bce9ecf26a8276cdd39926839060200160405180910390a38254158015610cde57506001830154155b1561061f57610cf0335b60cd90613816565b50505050565b6001600160a01b038216600090815260cf60209081526040808320815160a08101835281548152600182015481850152600282018054845181870281018701865281815260609796939586019390929190830182828015610d7657602002820191906000526020600020905b815481526020019060010190808311610d62575b5050505050815260200160038201805480602002602001604051908101604052809291908181526020018280548015610dce57602002820191906000526020600020905b815481526020019060010190808311610dba575b5050509183525050600491909101546001600160a01b03166020909101528051909150610e3d5760405162461bcd60e51b815260206004820152601e60248201527f4e6f20747261696e696e672073657373696f6e20636f6e6669677572656400006044820152606401610647565b600081604001515167ffffffffffffffff811115610e5d57610e5d613e66565b604051908082528060200260200182016040528015610e86578160200160208202803683370190505b50905060008060005b846040015151811015610ff55760c954604086015180516001600160a01b039092169163a6f4e49e918b918b919086908110610ecd57610ecd6143dc565b602002602001015189606001518681518110610eeb57610eeb6143dc565b60200260200101516040518563ffffffff1660e01b8152600401610f129493929190614476565b60206040518083038186803b158015610f2a57600080fd5b505afa158015610f3e573d6000803e3d6000fd5b505050506040513d601f19601f82011682018060405250810190610f62919061443b565b848281518110610f7457610f746143dc565b6020026020010181815250506000848281518110610f9457610f946143dc565b60200260200101511115610fb05782610fac81614408565b9350505b8460200151848281518110610fc757610fc76143dc565b60200260200101511415610fe35781610fdf81614408565b9250505b80610fed81614408565b915050610e8f565b5081611009575050506060015190506105c1565b80600214156110205750606093506105c192505050565b60006001856040015151611034919061449c565b67ffffffffffffffff81111561104c5761104c613e66565b604051908082528060200260200182016040528015611075578160200160208202803683370190505b5090506000805b85518110156111c5578360011480156110955750846001145b80156110ba57508581815181106110ae576110ae6143dc565b60200260200101516000145b156110fc57866060015181815181106110d5576110d56143dc565b60200260200101518383815181106110ef576110ef6143dc565b6020026020010181815250505b6000868281518110611110576111106143dc565b602002602001015111801561114157508660200151868281518110611137576111376143dc565b6020026020010151105b156111b357604080516001808252818301909252600091602080830190803683370190505090508760600151828151811061117e5761117e6143dc565b602002602001015181600081518110611199576111996143dc565b602090810291909101015297506105c19650505050505050565b806111bd81614408565b91505061107c565b509098975050505050505050565b6040516323b872dd60e01b81526001600160a01b038316906323b872dd90611203903390309086906004016144b3565b602060405180830381600087803b15801561121d57600080fd5b505af1158015611231573d6000803e3d6000fd5b505050506040513d601f19601f820116820180604052508101906112559190614454565b506040518181526001600160a01b0383169033907ffbed5bbbffe0fa857a9b62acaea1ea1c076828145e69464a9b483a477fb6b0009060200160405180910390a35050565b600054610100900460ff166112b55760005460ff16156112b9565b303b155b61131c5760405162461bcd60e51b815260206004820152602e60248201527f496e697469616c697a61626c653a20636f6e747261637420697320616c72656160448201526d191e481a5b9a5d1a585b1a5e995960921b6064820152608401610647565b600054610100900460ff1615801561133e576000805461ffff19166101011790555b611346613832565b61134e613863565b6113596000336134b6565b611371600080516020614717833981519152336134b6565b6113896000805160206146f7833981519152336134b6565b8015610829576000805461ff001916905550565b600080805b600c8110156114555760c95460405163537a724f60e11b81526000916001600160a01b03169063a6f4e49e906113e390899089906001908890600401614476565b60206040518083038186803b1580156113fb57600080fd5b505afa15801561140f573d6000803e3d6000fd5b505050506040513d601f19601f82011682018060405250810190611433919061443b565b905061143f8184614423565b925050808061144d90614408565b9150506113a2565b509392505050565b6000805160206147178339815191526114768133613452565b61147e6135a3565b61082961388a565b6001600160a01b03808316600090815260d0602052604080822060c95481546001830154935163537a724f60e11b8152949592948694929093169263a6f4e49e926114d8928a928a9290600401614476565b60206040518083038186803b1580156114f057600080fd5b505afa158015611504573d6000803e3d6000fd5b505050506040513d601f19601f82011682018060405250810190611528919061443b565b9050806001141561153e576001925050506105c1565b506000949350505050565b60009182526097602090815260408084206001600160a01b0393909316845291905290205460ff1690565b6000805160206146f783398151915261158d8133613452565b6001600160a01b038716600090815260cf6020526040902054156115f35760405162461bcd60e51b815260206004820152601d60248201527f5374616b696e6720636f6e66696720616c7265616479206578697374730000006044820152606401610647565b600083511161163c5760405162461bcd60e51b81526020600482015260156024820152744d697373696e672074726565496420636f6e66696760581b6044820152606401610647565b60008251116116865760405162461bcd60e51b81526020600482015260166024820152754d697373696e6720736b696c6c496420636f6e66696760501b6044820152606401610647565b82518251146116e65760405162461bcd60e51b815260206004820152602660248201527f5472656549647320616e6420536b696c6c49647320617272617973206d757374604482015265040dac2e8c6d60d31b6064820152608401610647565b600084116117065760405162461bcd60e51b8152600401610647906144d7565b4285116117255760405162461bcd60e51b81526004016106479061451f565b6040516370a0823160e01b81523060048201526000906001600160a01b038816906370a082319060240160206040518083038186803b15801561176757600080fd5b505afa15801561177b573d6000803e3d6000fd5b505050506040513d601f19601f8201168201806040525081019061179f919061443b565b116117e35760405162461bcd60e51b81526020600482015260146024820152734e6f2066756e647320666f72207265776172647360601b6044820152606401610647565b6117eb6135a3565b6001600160a01b03878116600090815260cf602052604081206004810180546001600160a01b031916938a169390931790925586825560019091018590555b83518110156118ea5760cf6000896001600160a01b03166001600160a01b0316815260200190815260200160002060020184828151811061186d5761186d6143dc565b6020908102919091018101518254600181018455600093845282842001556001600160a01b038a16825260cf90526040902083516003909101908490839081106118b9576118b96143dc565b60209081029190910181015182546001810184556000938452919092200155806118e281614408565b91505061182a565b50604080516001600160a01b038881168252602082018890528916917fc6e5f1ee3138795eeda2fa0aab37379a177c4f04396146dd2b154ab55f5c5585910160405180910390a250505050505050565b33600090815260cc60209081526040808320805482518185028101850190935280835260609493849084015b828210156119bb576000848152602090819020604080516060810182526003860290920180546001600160a01b0316835260018082015484860152600290910154918301919091529083529092019101611966565b5050505090506000805b8251811015611ad25733600090815260ca60205260408120845182908690859081106119f3576119f36143dc565b6020026020010151600001516001600160a01b03166001600160a01b031681526020019081526020016000206000858481518110611a3357611a336143dc565b6020908102919091018101518101518252818101929092526040908101600020815160e08101835281546001600160a01b031681526001820154938101939093526002810154918301919091526003810154606083015260048101546080830152600581015460a08301526006015460c0820181905290915015611abf5782611abb81614408565b9350505b5080611aca81614408565b9150506119c5565b5060008167ffffffffffffffff811115611aee57611aee613e66565b604051908082528060200260200182016040528015611b6857816020015b611b556040518060e0016040528060006001600160a01b031681526020016000815260200160008152602001600081526020016000815260200160008152602001600081525090565b815260200190600190039081611b0c5790505b5090506000805b8451811015611c9b5733600090815260ca6020526040812086518290889085908110611b9d57611b9d6143dc565b6020026020010151600001516001600160a01b03166001600160a01b031681526020019081526020016000206000878481518110611bdd57611bdd6143dc565b6020908102919091018101518101518252818101929092526040908101600020815160e08101835281546001600160a01b031681526001820154938101939093526002810154918301919091526003810154606083015260048101546080830152600581015460a08301526006015460c0820181905290915015611c885780848481518110611c6e57611c6e6143dc565b60200260200101819052508280611c8490614408565b9350505b5080611c9381614408565b915050611b6f565b5090949350505050565b6000805160206146f7833981519152611cbe8133613452565b611cc66135a3565b6001600160a01b038216600090815260cf602052604081208181556001810182905590611cf66002830182613c69565b611d04600383016000613c69565b5060040180546001600160a01b03191690556040516001600160a01b038316907fed93036dfb7e5500a2a7f2471a56e6b3389a8c28c72adca8ba9f6a4025ca6d5890600090a25050565b6000805160206146f7833981519152611d678133613452565b6001600160a01b038516600090815260cf6020526040902054611dcc5760405162461bcd60e51b815260206004820152601d60248201527f5374616b696e6720636f6e66696720646f6573206e6f742065786973740000006044820152606401610647565b60008211611dec5760405162461bcd60e51b8152600401610647906144d7565b428311611e0b5760405162461bcd60e51b81526004016106479061451f565b6040516370a0823160e01b81523060048201526000906001600160a01b038616906370a082319060240160206040518083038186803b158015611e4d57600080fd5b505afa158015611e61573d6000803e3d6000fd5b505050506040513d601f19601f82011682018060405250810190611e85919061443b565b11611ec95760405162461bcd60e51b81526020600482015260146024820152734e6f2066756e647320666f72207265776172647360601b6044820152606401610647565b611ed16135a3565b6001600160a01b03858116600081815260cf60209081526040918290206004810180546001600160a01b031916958a169586179055878155600181018790558251948552908401879052927f255d2940ab142f16cd2452c452fc20185bcbc341ce9c1646bc3d4feac9dc3371910160405180910390a2505050505050565b60335460ff1615611f725760405162461bcd60e51b81526004016106479061436e565b6001600160a01b038216600090815260cf6020526040902054611fc75760405162461bcd60e51b815260206004820152600d60248201526c496e76616c6964207374616b6560981b6044820152606401610647565b6001600160a01b038216600090815260cf60205260409020544210156120295760405162461bcd60e51b815260206004820152601760248201527614dd185ada5b99c81a185cc81b9bdd081cdd185c9d1959604a1b6044820152606401610647565b6120338282611486565b61207f5760405162461bcd60e51b815260206004820152601f60248201527f5374616b696e67206973206e6f7420756e6c6f636b656420666f72206e6674006044820152606401610647565b604051632142170760e11b81526001600160a01b038316906342842e0e906120af903390309086906004016144b3565b600060405180830381600087803b1580156120c957600080fd5b505af11580156120dd573d6000803e3d6000fd5b5050505061210e604051806060016040528060006001600160a01b0316815260200160008152602001600081525090565b6001600160a01b0383168152602081018290524260408201526121303361366a565b61213b60cd336138e2565b5033600081815260cc6020908152604080832080546001808201835591855293839020865160039095020180546001600160a01b0319166001600160a01b039586161781558684015191810191909155858201516002909101555185815291861692917f5dac0c1b1112564a045ba943c9d50270893e8e826c49be8e7073adc713ab7bd7910160405180910390a3505050565b6000805160206146f78339815191526121e78133613452565b825184511480156121f9575081518351145b6122565760405162461bcd60e51b815260206004820152602860248201527f416c6c20696e70757420617272617973206d757374206265207468652073616d6044820152670ca40d8cadccee8d60c31b6064820152608401610647565b60005b84518110156122ca576122b8858281518110612277576122776143dc565b6020026020010151858381518110612291576122916143dc565b60200260200101518584815181106122ab576122ab6143dc565b60200260200101516105c7565b806122c281614408565b915050612259565b5050505050565b60006122dd8133613452565b6122e56135a3565b6040516370a0823160e01b8152306004820152839083906001600160a01b038316906370a082319060240160206040518083038186803b15801561232857600080fd5b505afa15801561233c573d6000803e3d6000fd5b505050506040513d601f19601f82011682018060405250810190612360919061443b565b10156123a55760405162461bcd60e51b8152602060048201526014602482015273496e73756666696369656e742062616c616e636560601b6044820152606401610647565b6040516323b872dd60e01b81526001600160a01b038216906323b872dd906123d5903090899088906004016144b3565b602060405180830381600087803b1580156123ef57600080fd5b505af1158015612403573d6000803e3d6000fd5b505050506040513d601f19601f820116820180604052508101906124279190614454565b50836001600160a01b0316856001600160a01b03166124433390565b6001600160a01b03167f74ed50f6a2a005dd31f4766fb60918c4a6728cb0da9eeb81b9526bc6da11ec0f8660405161247d91815260200190565b60405180910390a45050505050565b33600090815260cc6020526040902080546124da5760405162461bcd60e51b815260206004820152600e60248201526d139bc81391951cc81cdd185ad95960921b6044820152606401610647565b80546000906124eb9060019061449c565b67ffffffffffffffff81111561250357612503613e66565b60405190808252806020026020018201604052801561256157816020015b61254e604051806060016040528060006001600160a01b0316815260200160008152602001600081525090565b8152602001906001900390816125215790505b50905060008060005b84548110156126c657866001600160a01b0316856000018281548110612592576125926143dc565b60009182526020909120600390910201546001600160a01b03161415806125df5750858560000182815481106125ca576125ca6143dc565b90600052602060002090600302016001015414155b156126af57845482106126255760405162461bcd60e51b815260206004820152600e60248201526d139195081b9bdd081cdd185ad95960921b6044820152606401610647565b84600001818154811061263a5761263a6143dc565b600091825260209182902060408051606081018252600390930290910180546001600160a01b03168352600181015493830193909352600290920154918101919091528451859084908110612691576126916143dc565b602002602001018190525081806126a790614408565b9250506126b4565b600192505b806126be81614408565b91505061256a565b506126d03361366a565b6126db846000613c87565b60005b835181101561276957846000018482815181106126fd576126fd6143dc565b602090810291909101810151825460018082018555600094855293839020825160039092020180546001600160a01b0319166001600160a01b0390921691909117815591810151928201929092556040909101516002909101558061276181614408565b9150506126de565b50835415801561277b57506001840154155b1561278b5761278933610ce8565b505b6040516323b872dd60e01b81526001600160a01b038716906323b872dd906127bb90309033908a906004016144b3565b600060405180830381600087803b1580156127d557600080fd5b505af11580156127e9573d6000803e3d6000fd5b50505050856001600160a01b03166127fe3390565b6001600160a01b03167fd8654fcc8cf5b36d30b3f5e4688fc78118e6d68de60b9994e09902268b57c3e38760405161283891815260200190565b60405180910390a3505050505050565b60006128548133613452565b6108296135a3565b33600090815260cc60209081526040808320805482518185028101850190935280835260609492939192909184015b828210156128e0576000848152602090819020604080516060810182526003860290920180546001600160a01b031683526001808201548486015260029091015491830191909152908352909201910161288b565b50505050905090565b60335460ff161561290c5760405162461bcd60e51b81526004016106479061436e565b6001600160a01b038216600090815260d0602052604081209061292f8484611486565b9050801561297f5760405162461bcd60e51b815260206004820152601860248201527f5374616b696e6720616c726561647920756e6c6f636b656400000000000000006044820152606401610647565b6001600160a01b038416600090815260cf60205260409020546129dd5760405162461bcd60e51b815260206004820152601660248201527514dd185ada5b99c81b9bdd0818dbdb999a59dd5c995960521b6044820152606401610647565b6001600160a01b038416600090815260cf6020526040902054421015612a3f5760405162461bcd60e51b815260206004820152601760248201527614dd185ada5b99c81a185cc81b9bdd081cdd185c9d1959604a1b6044820152606401610647565b6001600160a01b03848116600090815260cf602052604090206004015416806323b872dd336000805260cb6020527f4239c2c8c3d9b94feb214b0f54d7c869ce1ceb63517be57644336cda4967a468546040516001600160e01b031960e085901b168152612ab2929130916004016144b3565b602060405180830381600087803b158015612acc57600080fd5b505af1158015612ae0573d6000803e3d6000fd5b505050506040513d601f19601f82011682018060405250810190612b049190614454565b5060c9548354600180860154604051630d126da960e11b81526001600160a01b038a81166004830152602482018a9052604482019490945260648101919091526084810191909152911690631a24db529060a401600060405180830381600087803b158015612b7257600080fd5b505af1158015612b86573d6000803e3d6000fd5b50505050846001600160a01b0316612b9b3390565b6001600160a01b03167f051144eeaaad1c4ee6b1eab928f531a9daf1687b3e0f8db00dae3f5df8c285db86604051612bd591815260200190565b60405180910390a35050505050565b6000805160206146f7833981519152612bfd8133613452565b5060c980546001600160a01b0319166001600160a01b0392909216919091179055565b600082815260976020526040902060010154612c3c8133613452565b61061f838361353c565b33600090815260ca602090815260408083206001600160a01b0386168452825280832084845290915290206005810154612cb15760405162461bcd60e51b815260206004820152600c60248201526b4e6f7420747261696e696e6760a01b6044820152606401610647565b42816006015411612d045760405162461bcd60e51b815260206004820152601960248201527f547261696e696e6720616c72656164792066696e6973686564000000000000006044820152606401610647565b612d0d3361366a565b600381015460048201546040805185815260208101939093528201524260608201526001600160a01b0384169033907fc9b7c59fa980251f7ca7eae784c953e8a9f49d617be6edca0b41264ea05cb169906080016109f7565b600080805b33600090815260cc6020526040902060010154811015612dda5733600090815260cc60205260409020600101805482908110612da957612da96143dc565b90600052602060002090600202016001015482612dc69190614423565b915080612dd281614408565b915050612d6b565b5033600090815260cc60205260408120905b8154811015612f2c576000826000018281548110612e0c57612e0c6143dc565b90600052602060002090600302016002015442612e29919061449c565b9050600060cf6000856000018581548110612e4657612e466143dc565b600091825260208083206003909202909101546001600160a01b0316835282019290925260400181208554909250612ed290869086908110612e8a57612e8a6143dc565b600091825260209091206003909102015486546001600160a01b0390911690879087908110612ebb57612ebb6143dc565b90600052602060002090600302016001015461139d565b90508262015180612ee4836001614423565b612ef690670de0b6b3a7640000614569565b612f009190614588565b612f0a9190614569565b612f149087614423565b95505050508080612f2490614408565b915050612dec565b509092915050565b60335460ff1615612f575760405162461bcd60e51b81526004016106479061436e565b6001600160a01b038416600090815260cf602052604090208054612fbd5760405162461bcd60e51b815260206004820152601e60248201527f4e6f20747261696e696e672073657373696f6e20636f6e6669677572656400006044820152606401610647565b805442101561300e5760405162461bcd60e51b815260206004820152601c60248201527f547261696e696e6720686173206e6f74207374617274656420796574000000006044820152606401610647565b33600090815260ca602090815260408083206001600160a01b03891684528252808320878452909152902060058101541561308b5760405162461bcd60e51b815260206004820152601f60248201527f547261696e696e6720697320616c726561647920696e2070726f6772657373006044820152606401610647565b60006130978787610cf6565b905060008151116130ea5760405162461bcd60e51b815260206004820152601e60248201527f4e6f20747261696e696e672073657373696f6e7320617661696c61626c6500006044820152606401610647565b6000805b8251811015613133578583828151811061310a5761310a6143dc565b602002602001015114156131215760019150613133565b8061312b81614408565b9150506130ee565b50806131815760405162461bcd60e51b815260206004820152601760248201527f496e76616c696420747261696e696e67206f7074696f6e0000000000000000006044820152606401610647565b60c95460405163537a724f60e11b81526000916001600160a01b03169063a6f4e49e906131b8908c908c908c908c90600401614476565b60206040518083038186803b1580156131d057600080fd5b505afa1580156131e4573d6000803e3d6000fd5b505050506040513d601f19601f82011682018060405250810190613208919061443b565b9050600060cb8161321a846001614423565b81526020019081526020016000209050856001015482600161323c9190614423565b111561328a5760405162461bcd60e51b815260206004820152601e60248201527f45786365656473206d6178696d756d20747261696e696e67206c6576656c00006044820152606401610647565b80546132d85760405162461bcd60e51b815260206004820152601d60248201527f547261696e696e67204c6576656c206973206e6f7420656e61626c65640000006044820152606401610647565b6132e13361366a565b60048681015482546040516323b872dd60e01b81526001600160a01b03909216926323b872dd926133169233923092016144b3565b602060405180830381600087803b15801561333057600080fd5b505af1158015613344573d6000803e3d6000fd5b505050506040513d601f19601f820116820180604052508101906133689190614454565b50613374826001614423565b600286015560038501889055600485018790554260058601819055600182015461339d91614423565b600686015584546001600160a01b0319166001600160a01b038b169081178655600186018a9055336001600160a01b03167f98d1944772cc1ee399725448c633b3ec863f8be81e490479055d810afaa0225c8b8b8b6133fd886001614423565b60058c015460068d0154604080519687526020870195909552938501929092526060840152608083015260a082015260c00160405180910390a350505050505050505050565b6001600160a01b03163b151590565b61345c8282611549565b61078157613474816001600160a01b031660146138f7565b61347f8360206138f7565b6040516020016134909291906145d6565b60408051601f198184030181529082905262461bcd60e51b82526106479160040161464b565b6134c08282611549565b6107815760008281526097602090815260408083206001600160a01b03851684529091529020805460ff191660011790556134f83390565b6001600160a01b0316816001600160a01b0316837f2f8788117e7eff1d82e926ec794901d17c78024a50270940304540a733656f0d60405160405180910390a45050565b6135468282611549565b156107815760008281526097602090815260408083206001600160a01b0385168085529252808320805460ff1916905551339285917ff6391f5c32d9c69d2a47ea670b442974b53935d1edc7fd64eb21e047a839171b9190a45050565b60005b6135b060cd613a93565b811015610829576135c56108f460cd83613a9d565b806135cf81614408565b9150506135a6565b60335460ff166136205760405162461bcd60e51b815260206004820152601460248201527314185d5cd8589b194e881b9bdd081c185d5cd95960621b6044820152606401610647565b6033805460ff191690557f5db9ee0a495bf2e6ff9c91a7834c1ba4fdd244a5e8aa4e537bd38aeae4b073aa335b6040516001600160a01b03909116815260200160405180910390a1565b6001600160a01b038116600090815260cc60205260408120905b815481101561061f5760008260000182815481106136a4576136a46143dc565b906000526020600020906003020160020154426136c1919061449c565b9050600060cf60008560000185815481106136de576136de6143dc565b600091825260208083206003909202909101546001600160a01b031683528201929092526040018120855490925061372290869086908110612e8a57612e8a6143dc565b90504285600001858154811061373a5761373a6143dc565b9060005260206000209060030201600201819055508460010160405180604001604052808460040160009054906101000a90046001600160a01b03166001600160a01b0316815260200185620151808560016137969190614423565b6137a890670de0b6b3a7640000614569565b6137b29190614588565b6137bc9190614569565b90528154600180820184556000938452602093849020835160029093020180546001600160a01b0319166001600160a01b0390931692909217825591909201519101555082915061380e905081614408565b915050613684565b600061382b836001600160a01b038416613aa9565b9392505050565b600054610100900460ff166138595760405162461bcd60e51b81526004016106479061467e565b613861613b9c565b565b600054610100900460ff166138615760405162461bcd60e51b81526004016106479061467e565b60335460ff16156138ad5760405162461bcd60e51b81526004016106479061436e565b6033805460ff191660011790557f62e78cea01bee320cd4e420270b5ea74000d11b0c9f74754ebdbfc544b05a25861364d3390565b600061382b836001600160a01b038416613bcf565b60606000613906836002614569565b613911906002614423565b67ffffffffffffffff81111561392957613929613e66565b6040519080825280601f01601f191660200182016040528015613953576020820181803683370190505b509050600360fc1b8160008151811061396e5761396e6143dc565b60200101906001600160f81b031916908160001a905350600f60fb1b8160018151811061399d5761399d6143dc565b60200101906001600160f81b031916908160001a90535060006139c1846002614569565b6139cc906001614423565b90505b6001811115613a44576f181899199a1a9b1b9c1cb0b131b232b360811b85600f1660108110613a0057613a006143dc565b1a60f81b828281518110613a1657613a166143dc565b60200101906001600160f81b031916908160001a90535060049490941c93613a3d816146c9565b90506139cf565b50831561382b5760405162461bcd60e51b815260206004820181905260248201527f537472696e67733a20686578206c656e67746820696e73756666696369656e746044820152606401610647565b60006105c1825490565b600061382b8383613c1e565b60008181526001830160205260408120548015613b92576000613acd60018361449c565b8554909150600090613ae19060019061449c565b9050818114613b46576000866000018281548110613b0157613b016143dc565b9060005260206000200154905080876000018481548110613b2457613b246143dc565b6000918252602080832090910192909255918252600188019052604090208390555b8554869080613b5757613b576146e0565b6001900381819060005260206000200160009055905585600101600086815260200190815260200160002060009055600193505050506105c1565b60009150506105c1565b600054610100900460ff16613bc35760405162461bcd60e51b81526004016106479061467e565b6033805460ff19169055565b6000818152600183016020526040812054613c16575081546001818101845560008481526020808220909301849055845484825282860190935260409020919091556105c1565b5060006105c1565b6000826000018281548110613c3557613c356143dc565b9060005260206000200154905092915050565b50805460008255600202906000526020600020908101906108299190613ca8565b50805460008255906000526020600020908101906108299190613cd2565b50805460008255600302906000526020600020908101906108299190613ce7565b5b80821115613cce5780546001600160a01b031916815560006001820155600201613ca9565b5090565b5b80821115613cce5760008155600101613cd3565b5b80821115613cce5780546001600160a01b03191681556000600182018190556002820155600301613ce8565b600060208284031215613d2657600080fd5b81356001600160e01b03198116811461382b57600080fd5b600080600060608486031215613d5357600080fd5b505081359360208301359350604090920135919050565b80356001600160a01b0381168114613d8157600080fd5b919050565b600080600080600060808688031215613d9e57600080fd5b613da786613d6a565b9450613db560208701613d6a565b935060408601359250606086013567ffffffffffffffff80821115613dd957600080fd5b818801915088601f830112613ded57600080fd5b813581811115613dfc57600080fd5b896020828501011115613e0e57600080fd5b9699959850939650602001949392505050565b600060208284031215613e3357600080fd5b5035919050565b60008060408385031215613e4d57600080fd5b82359150613e5d60208401613d6a565b90509250929050565b634e487b7160e01b600052604160045260246000fd5b604051601f8201601f1916810167ffffffffffffffff81118282101715613ea557613ea5613e66565b604052919050565b600067ffffffffffffffff821115613ec757613ec7613e66565b5060051b60200190565b600082601f830112613ee257600080fd5b81356020613ef7613ef283613ead565b613e7c565b82815260059290921b84018101918181019086841115613f1657600080fd5b8286015b84811015613f315780358352918301918301613f1a565b509695505050505050565b60008060408385031215613f4f57600080fd5b823567ffffffffffffffff80821115613f6757600080fd5b818501915085601f830112613f7b57600080fd5b81356020613f8b613ef283613ead565b82815260059290921b84018101918181019089841115613faa57600080fd5b948201945b83861015613fcf57613fc086613d6a565b82529482019490820190613faf565b96505086013592505080821115613fe557600080fd5b50613ff285828601613ed1565b9150509250929050565b60008060006060848603121561401157600080fd5b61401a84613d6a565b95602085013595506040909401359392505050565b6000806040838503121561404257600080fd5b61404b83613d6a565b946020939093013593505050565b6020808252825182820181905260009190848201906040850190845b8181101561409157835183529284019291840191600101614075565b50909695505050505050565b60008060008060008060c087890312156140b657600080fd5b6140bf87613d6a565b95506140cd60208801613d6a565b94506040870135935060608701359250608087013567ffffffffffffffff808211156140f857600080fd5b6141048a838b01613ed1565b935060a089013591508082111561411a57600080fd5b5061412789828a01613ed1565b9150509295509295509295565b602080825282518282018190526000919060409081850190868401855b828110156141b257815180516001600160a01b0316855286810151878601528581015186860152606080820151908601526080808201519086015260a0808201519086015260c0908101519085015260e09093019290850190600101614151565b5091979650505050505050565b6000602082840312156141d157600080fd5b61382b82613d6a565b600080600080608085870312156141f057600080fd5b6141f985613d6a565b935061420760208601613d6a565b93969395505050506040820135916060013590565b60008060006060848603121561423157600080fd5b833567ffffffffffffffff8082111561424957600080fd5b61425587838801613ed1565b9450602086013591508082111561426b57600080fd5b61427787838801613ed1565b9350604086013591508082111561428d57600080fd5b5061429a86828701613ed1565b9150509250925092565b6000806000606084860312156142b957600080fd5b6142c284613d6a565b92506142d060208501613d6a565b9150604084013590509250925092565b602080825282518282018190526000919060409081850190868401855b828110156141b257815180516001600160a01b03168552868101518786015285015185850152606090930192908501906001016142fd565b6000806000806080858703121561434b57600080fd5b61435485613d6a565b966020860135965060408601359560600135945092505050565b60208082526010908201526f14185d5cd8589b194e881c185d5cd95960821b604082015260600190565b60208082526024908201527f6164647265737320636f756e74206d757374206d6174636820746f6b656e20636040820152631bdd5b9d60e21b606082015260800190565b634e487b7160e01b600052603260045260246000fd5b634e487b7160e01b600052601160045260246000fd5b600060001982141561441c5761441c6143f2565b5060010190565b60008219821115614436576144366143f2565b500190565b60006020828403121561444d57600080fd5b5051919050565b60006020828403121561446657600080fd5b8151801515811461382b57600080fd5b6001600160a01b0394909416845260208401929092526040830152606082015260800190565b6000828210156144ae576144ae6143f2565b500390565b6001600160a01b039384168152919092166020820152604081019190915260600190565b60208082526028908201527f6d6178506f696e7473506572536b696c6c206d75737420626520677265617465604082015267072207468616e20360c41b606082015260800190565b6020808252602a908201527f737461727454696d65206d7573742062652061206675747572652074696d6520604082015269696e207365636f6e647360b01b606082015260800190565b6000816000190483118215151615614583576145836143f2565b500290565b6000826145a557634e487b7160e01b600052601260045260246000fd5b500490565b60005b838110156145c55781810151838201526020016145ad565b83811115610cf05750506000910152565b7f416363657373436f6e74726f6c3a206163636f756e742000000000000000000081526000835161460e8160178501602088016145aa565b7001034b99036b4b9b9b4b733903937b6329607d1b601791840191820152835161463f8160288401602088016145aa565b01602801949350505050565b602081526000825180602084015261466a8160408501602087016145aa565b601f01601f19169190910160400192915050565b6020808252602b908201527f496e697469616c697a61626c653a20636f6e7472616374206973206e6f74206960408201526a6e697469616c697a696e6760a81b606082015260800190565b6000816146d8576146d86143f2565b506000190190565b634e487b7160e01b600052603160045260246000fdfe73e573f9566d61418a34d5de3ff49360f9c51fec37f7486551670290f6285dab65d7a28e3265b37a6474929f336521b332c1681b933f6cb9f3376673440d862aa26469706673582212204b071579245b9e12db12a47396d8cf230103ce5bc7ea36d02487df6f1f2d5d0864736f6c63430008090033",
  "linkReferences": {},
  "deployedLinkReferences": {}
}