{
  "_format": "hh-sol-artifact-1",
  "contractName": "ProfessionStakingUpgradeable",
  "sourceName": "contracts/ProfessionStakingUpgradeable.sol",
  "abi": [
    {
      "inputs": [],
      "stateMutability": "nonpayable",
      "type": "constructor"
    },
    {
      "anonymous": false,
      "inputs": [
        {
          "indexed": true,
          "internalType": "address",
          "name": "by",
          "type": "address"
        },
        {
          "indexed": true,
          "internalType": "address",
          "name": "token",
          "type": "address"
        },
        {
          "indexed": false,
          "internalType": "uint256",
          "name": "amount",
          "type": "uint256"
        }
      ],
      "name": "Claimed",
      "type": "event"
    },
    {
      "anonymous": false,
      "inputs": [
        {
          "indexed": false,
          "internalType": "address",
          "name": "account",
          "type": "address"
        }
      ],
      "name": "Paused",
      "type": "event"
    },
    {
      "anonymous": false,
      "inputs": [
        {
          "indexed": true,
          "internalType": "address",
          "name": "from",
          "type": "address"
        },
        {
          "indexed": true,
          "internalType": "address",
          "name": "token",
          "type": "address"
        },
        {
          "indexed": false,
          "internalType": "uint256",
          "name": "amount",
          "type": "uint256"
        }
      ],
      "name": "PoolRewardsDeposited",
      "type": "event"
    },
    {
      "anonymous": false,
      "inputs": [
        {
          "indexed": true,
          "internalType": "address",
          "name": "by",
          "type": "address"
        },
        {
          "indexed": true,
          "internalType": "address",
          "name": "to",
          "type": "address"
        },
        {
          "indexed": true,
          "internalType": "address",
          "name": "token",
          "type": "address"
        },
        {
          "indexed": false,
          "internalType": "uint256",
          "name": "amount",
          "type": "uint256"
        }
      ],
      "name": "PoolRewardsWithdrawn",
      "type": "event"
    },
    {
      "anonymous": false,
      "inputs": [
        {
          "indexed": true,
          "internalType": "bytes32",
          "name": "role",
          "type": "bytes32"
        },
        {
          "indexed": true,
          "internalType": "bytes32",
          "name": "previousAdminRole",
          "type": "bytes32"
        },
        {
          "indexed": true,
          "internalType": "bytes32",
          "name": "newAdminRole",
          "type": "bytes32"
        }
      ],
      "name": "RoleAdminChanged",
      "type": "event"
    },
    {
      "anonymous": false,
      "inputs": [
        {
          "indexed": true,
          "internalType": "bytes32",
          "name": "role",
          "type": "bytes32"
        },
        {
          "indexed": true,
          "internalType": "address",
          "name": "account",
          "type": "address"
        },
        {
          "indexed": true,
          "internalType": "address",
          "name": "sender",
          "type": "address"
        }
      ],
      "name": "RoleGranted",
      "type": "event"
    },
    {
      "anonymous": false,
      "inputs": [
        {
          "indexed": true,
          "internalType": "bytes32",
          "name": "role",
          "type": "bytes32"
        },
        {
          "indexed": true,
          "internalType": "address",
          "name": "account",
          "type": "address"
        },
        {
          "indexed": true,
          "internalType": "address",
          "name": "sender",
          "type": "address"
        }
      ],
      "name": "RoleRevoked",
      "type": "event"
    },
    {
      "anonymous": false,
      "inputs": [
        {
          "indexed": true,
          "internalType": "address",
          "name": "from",
          "type": "address"
        },
        {
          "indexed": true,
          "internalType": "address",
          "name": "nftAddresss",
          "type": "address"
        },
        {
          "indexed": false,
          "internalType": "uint256",
          "name": "tokenId",
          "type": "uint256"
        }
      ],
      "name": "Staked",
      "type": "event"
    },
    {
      "anonymous": false,
      "inputs": [
        {
          "indexed": true,
          "internalType": "address",
          "name": "nftAddress",
          "type": "address"
        },
        {
          "indexed": false,
          "internalType": "address",
          "name": "rewardToken",
          "type": "address"
        },
        {
          "indexed": false,
          "internalType": "uint256",
          "name": "startTime",
          "type": "uint256"
        }
      ],
      "name": "StakingConfigCreated",
      "type": "event"
    },
    {
      "anonymous": false,
      "inputs": [
        {
          "indexed": true,
          "internalType": "address",
          "name": "nftAddress",
          "type": "address"
        }
      ],
      "name": "StakingConfigDeleted",
      "type": "event"
    },
    {
      "anonymous": false,
      "inputs": [
        {
          "indexed": true,
          "internalType": "address",
          "name": "nftAddress",
          "type": "address"
        },
        {
          "indexed": false,
          "internalType": "address",
          "name": "rewardToken",
          "type": "address"
        },
        {
          "indexed": false,
          "internalType": "uint256",
          "name": "startTime",
          "type": "uint256"
        }
      ],
      "name": "StakingConfigUpdated",
      "type": "event"
    },
    {
      "anonymous": false,
      "inputs": [
        {
          "indexed": true,
          "internalType": "address",
          "name": "by",
          "type": "address"
        },
        {
          "indexed": true,
          "internalType": "address",
          "name": "nftAddress",
          "type": "address"
        },
        {
          "indexed": false,
          "internalType": "uint256",
          "name": "tokenId",
          "type": "uint256"
        }
      ],
      "name": "StakingUnlocked",
      "type": "event"
    },
    {
      "anonymous": false,
      "inputs": [
        {
          "indexed": true,
          "internalType": "address",
          "name": "by",
          "type": "address"
        },
        {
          "indexed": true,
          "internalType": "address",
          "name": "nftAddress",
          "type": "address"
        },
        {
          "indexed": false,
          "internalType": "uint256",
          "name": "tokenId",
          "type": "uint256"
        },
        {
          "indexed": false,
          "internalType": "uint256",
          "name": "treeId",
          "type": "uint256"
        },
        {
          "indexed": false,
          "internalType": "uint256",
          "name": "skillId",
          "type": "uint256"
        },
        {
          "indexed": false,
          "internalType": "uint256",
          "name": "level",
          "type": "uint256"
        }
      ],
      "name": "TrainingFinished",
      "type": "event"
    },
    {
      "anonymous": false,
      "inputs": [
        {
          "indexed": true,
          "internalType": "address",
          "name": "by",
          "type": "address"
        },
        {
          "indexed": true,
          "internalType": "address",
          "name": "nftAddress",
          "type": "address"
        },
        {
          "indexed": false,
          "internalType": "uint256",
          "name": "tokenId",
          "type": "uint256"
        },
        {
          "indexed": false,
          "internalType": "uint256",
          "name": "treeId",
          "type": "uint256"
        },
        {
          "indexed": false,
          "internalType": "uint256",
          "name": "skillId",
          "type": "uint256"
        },
        {
          "indexed": false,
          "internalType": "uint256",
          "name": "level",
          "type": "uint256"
        }
      ],
      "name": "TrainingStarted",
      "type": "event"
    },
    {
      "anonymous": false,
      "inputs": [
        {
          "indexed": false,
          "internalType": "address",
          "name": "account",
          "type": "address"
        }
      ],
      "name": "Unpaused",
      "type": "event"
    },
    {
      "anonymous": false,
      "inputs": [
        {
          "indexed": true,
          "internalType": "address",
          "name": "from",
          "type": "address"
        },
        {
          "indexed": true,
          "internalType": "address",
          "name": "nftAddresss",
          "type": "address"
        },
        {
          "indexed": false,
          "internalType": "uint256",
          "name": "tokenId",
          "type": "uint256"
        }
      ],
      "name": "Unstaked",
      "type": "event"
    },
    {
      "inputs": [],
      "name": "DEFAULT_ADMIN_ROLE",
      "outputs": [
        {
          "internalType": "bytes32",
          "name": "",
          "type": "bytes32"
        }
      ],
      "stateMutability": "view",
      "type": "function"
    },
    {
      "inputs": [],
      "name": "GAME_STORAGE",
      "outputs": [
        {
          "internalType": "contract IGameStorageUpgradeable",
          "name": "",
          "type": "address"
        }
      ],
      "stateMutability": "view",
      "type": "function"
    },
    {
      "inputs": [],
      "name": "PAUSER_ROLE",
      "outputs": [
        {
          "internalType": "bytes32",
          "name": "",
          "type": "bytes32"
        }
      ],
      "stateMutability": "view",
      "type": "function"
    },
    {
      "inputs": [],
      "name": "UPDATER_ROLE",
      "outputs": [
        {
          "internalType": "bytes32",
          "name": "",
          "type": "bytes32"
        }
      ],
      "stateMutability": "view",
      "type": "function"
    },
    {
      "inputs": [
        {
          "internalType": "uint256[]",
          "name": "level",
          "type": "uint256[]"
        },
        {
          "internalType": "uint256[]",
          "name": "cost",
          "type": "uint256[]"
        },
        {
          "internalType": "uint256[]",
          "name": "time",
          "type": "uint256[]"
        }
      ],
      "name": "batchSetTrainingCosts",
      "outputs": [],
      "stateMutability": "nonpayable",
      "type": "function"
    },
    {
      "inputs": [
        {
          "internalType": "address[]",
          "name": "nftAddresses",
          "type": "address[]"
        },
        {
          "internalType": "uint256[]",
          "name": "tokenIds",
          "type": "uint256[]"
        }
      ],
      "name": "batchStake",
      "outputs": [],
      "stateMutability": "nonpayable",
      "type": "function"
    },
    {
      "inputs": [
        {
          "internalType": "address[]",
          "name": "nftAddresses",
          "type": "address[]"
        },
        {
          "internalType": "uint256[]",
          "name": "tokenIds",
          "type": "uint256[]"
        }
      ],
      "name": "batchUnstake",
      "outputs": [],
      "stateMutability": "nonpayable",
      "type": "function"
    },
    {
      "inputs": [],
      "name": "claim",
      "outputs": [],
      "stateMutability": "nonpayable",
      "type": "function"
    },
    {
      "inputs": [
        {
          "internalType": "address",
          "name": "nftAddress",
          "type": "address"
        },
        {
          "internalType": "address",
          "name": "rewardToken",
          "type": "address"
        },
        {
          "internalType": "uint256",
          "name": "startTime",
          "type": "uint256"
        },
        {
          "internalType": "uint256",
          "name": "maxPointsPerSkill",
          "type": "uint256"
        },
        {
          "internalType": "uint256[]",
          "name": "treeIds",
          "type": "uint256[]"
        },
        {
          "internalType": "uint256[]",
          "name": "skillIds",
          "type": "uint256[]"
        }
      ],
      "name": "createStakingConfig",
      "outputs": [],
      "stateMutability": "nonpayable",
      "type": "function"
    },
    {
      "inputs": [
        {
          "internalType": "address",
          "name": "nftAddress",
          "type": "address"
        }
      ],
      "name": "deleteStakingConfig",
      "outputs": [],
      "stateMutability": "nonpayable",
      "type": "function"
    },
    {
      "inputs": [
        {
          "internalType": "address",
          "name": "token",
          "type": "address"
        },
        {
          "internalType": "uint256",
          "name": "amount",
          "type": "uint256"
        }
      ],
      "name": "depositPoolRewards",
      "outputs": [],
      "stateMutability": "nonpayable",
      "type": "function"
    },
    {
      "inputs": [
        {
          "internalType": "address",
          "name": "nftAddress",
          "type": "address"
        },
        {
          "internalType": "uint256",
          "name": "tokenId",
          "type": "uint256"
        }
      ],
      "name": "enableStaking",
      "outputs": [],
      "stateMutability": "nonpayable",
      "type": "function"
    },
    {
      "inputs": [
        {
          "internalType": "address",
          "name": "nftAddress",
          "type": "address"
        },
        {
          "internalType": "uint256",
          "name": "tokenId",
          "type": "uint256"
        }
      ],
      "name": "finishTraining",
      "outputs": [],
      "stateMutability": "nonpayable",
      "type": "function"
    },
    {
      "inputs": [],
      "name": "getActiveTraining",
      "outputs": [
        {
          "components": [
            {
              "internalType": "address",
              "name": "_address",
              "type": "address"
            },
            {
              "internalType": "uint256",
              "name": "tokenId",
              "type": "uint256"
            },
            {
              "internalType": "uint256",
              "name": "level",
              "type": "uint256"
            },
            {
              "internalType": "uint256",
              "name": "treeId",
              "type": "uint256"
            },
            {
              "internalType": "uint256",
              "name": "skillId",
              "type": "uint256"
            },
            {
              "internalType": "uint256",
              "name": "startedAt",
              "type": "uint256"
            },
            {
              "internalType": "uint256",
              "name": "completeAt",
              "type": "uint256"
            }
          ],
          "internalType": "struct ProfessionStakingUpgradeable.TrainingStatus[]",
          "name": "",
          "type": "tuple[]"
        }
      ],
      "stateMutability": "view",
      "type": "function"
    },
    {
      "inputs": [
        {
          "internalType": "address",
          "name": "nftAddress",
          "type": "address"
        },
        {
          "internalType": "uint256",
          "name": "tokenId",
          "type": "uint256"
        }
      ],
      "name": "getAllowedSkillChoices",
      "outputs": [
        {
          "internalType": "uint256[]",
          "name": "",
          "type": "uint256[]"
        }
      ],
      "stateMutability": "view",
      "type": "function"
    },
    {
      "inputs": [
        {
          "internalType": "bytes32",
          "name": "role",
          "type": "bytes32"
        }
      ],
      "name": "getRoleAdmin",
      "outputs": [
        {
          "internalType": "bytes32",
          "name": "",
          "type": "bytes32"
        }
      ],
      "stateMutability": "view",
      "type": "function"
    },
    {
      "inputs": [],
      "name": "getStaked",
      "outputs": [
        {
          "components": [
            {
              "internalType": "address",
              "name": "_address",
              "type": "address"
            },
            {
              "internalType": "uint256",
              "name": "tokenId",
              "type": "uint256"
            },
            {
              "internalType": "uint256",
              "name": "rewardFrom",
              "type": "uint256"
            }
          ],
          "internalType": "struct ProfessionStakingUpgradeable.NFT[]",
          "name": "",
          "type": "tuple[]"
        }
      ],
      "stateMutability": "view",
      "type": "function"
    },
    {
      "inputs": [
        {
          "internalType": "bytes32",
          "name": "role",
          "type": "bytes32"
        },
        {
          "internalType": "address",
          "name": "account",
          "type": "address"
        }
      ],
      "name": "grantRole",
      "outputs": [],
      "stateMutability": "nonpayable",
      "type": "function"
    },
    {
      "inputs": [
        {
          "internalType": "bytes32",
          "name": "role",
          "type": "bytes32"
        },
        {
          "internalType": "address",
          "name": "account",
          "type": "address"
        }
      ],
      "name": "hasRole",
      "outputs": [
        {
          "internalType": "bool",
          "name": "",
          "type": "bool"
        }
      ],
      "stateMutability": "view",
      "type": "function"
    },
    {
      "inputs": [],
      "name": "initialize",
      "outputs": [],
      "stateMutability": "nonpayable",
      "type": "function"
    },
    {
      "inputs": [
        {
          "internalType": "address",
          "name": "nftAddress",
          "type": "address"
        },
        {
          "internalType": "uint256",
          "name": "tokenId",
          "type": "uint256"
        }
      ],
      "name": "isStakingEnabled",
      "outputs": [
        {
          "internalType": "bool",
          "name": "",
          "type": "bool"
        }
      ],
      "stateMutability": "view",
      "type": "function"
    },
    {
      "inputs": [
        {
          "internalType": "address",
          "name": "operator",
          "type": "address"
        },
        {
          "internalType": "address",
          "name": "from",
          "type": "address"
        },
        {
          "internalType": "uint256",
          "name": "tokenId",
          "type": "uint256"
        },
        {
          "internalType": "bytes",
          "name": "data",
          "type": "bytes"
        }
      ],
      "name": "onERC721Received",
      "outputs": [
        {
          "internalType": "bytes4",
          "name": "",
          "type": "bytes4"
        }
      ],
      "stateMutability": "pure",
      "type": "function"
    },
    {
      "inputs": [],
      "name": "pause",
      "outputs": [],
      "stateMutability": "nonpayable",
      "type": "function"
    },
    {
      "inputs": [],
      "name": "paused",
      "outputs": [
        {
          "internalType": "bool",
          "name": "",
          "type": "bool"
        }
      ],
      "stateMutability": "view",
      "type": "function"
    },
    {
      "inputs": [],
      "name": "pendingRewards",
      "outputs": [
        {
          "components": [
            {
              "internalType": "address",
              "name": "_address",
              "type": "address"
            },
            {
              "internalType": "uint256",
              "name": "amount",
              "type": "uint256"
            }
          ],
          "internalType": "struct ProfessionStakingUpgradeable.Token[]",
          "name": "",
          "type": "tuple[]"
        }
      ],
      "stateMutability": "view",
      "type": "function"
    },
    {
      "inputs": [
        {
          "internalType": "bytes32",
          "name": "role",
          "type": "bytes32"
        },
        {
          "internalType": "address",
          "name": "account",
          "type": "address"
        }
      ],
      "name": "renounceRole",
      "outputs": [],
      "stateMutability": "nonpayable",
      "type": "function"
    },
    {
      "inputs": [
        {
          "internalType": "bytes32",
          "name": "role",
          "type": "bytes32"
        },
        {
          "internalType": "address",
          "name": "account",
          "type": "address"
        }
      ],
      "name": "revokeRole",
      "outputs": [],
      "stateMutability": "nonpayable",
      "type": "function"
    },
    {
      "inputs": [
        {
          "internalType": "address",
          "name": "_address",
          "type": "address"
        }
      ],
      "name": "setGameStorage",
      "outputs": [],
      "stateMutability": "nonpayable",
      "type": "function"
    },
    {
      "inputs": [
        {
          "internalType": "address",
          "name": "nftAddress",
          "type": "address"
        },
        {
          "internalType": "uint256",
          "name": "treeId",
          "type": "uint256"
        },
        {
          "internalType": "uint256",
          "name": "skillId",
          "type": "uint256"
        }
      ],
      "name": "setSkillPointer",
      "outputs": [],
      "stateMutability": "nonpayable",
      "type": "function"
    },
    {
      "inputs": [
        {
          "internalType": "uint256",
          "name": "level",
          "type": "uint256"
        },
        {
          "internalType": "uint256",
          "name": "cost",
          "type": "uint256"
        },
        {
          "internalType": "uint256",
          "name": "time",
          "type": "uint256"
        }
      ],
      "name": "setTrainingCost",
      "outputs": [],
      "stateMutability": "nonpayable",
      "type": "function"
    },
    {
      "inputs": [
        {
          "internalType": "address",
          "name": "nftAddress",
          "type": "address"
        },
        {
          "internalType": "uint256",
          "name": "tokenId",
          "type": "uint256"
        }
      ],
      "name": "stake",
      "outputs": [],
      "stateMutability": "nonpayable",
      "type": "function"
    },
    {
      "inputs": [
        {
          "internalType": "address",
          "name": "nftAddress",
          "type": "address"
        },
        {
          "internalType": "uint256",
          "name": "tokenId",
          "type": "uint256"
        },
        {
          "internalType": "uint256",
          "name": "treeId",
          "type": "uint256"
        },
        {
          "internalType": "uint256",
          "name": "skillId",
          "type": "uint256"
        }
      ],
      "name": "startTraining",
      "outputs": [],
      "stateMutability": "nonpayable",
      "type": "function"
    },
    {
      "inputs": [
        {
          "internalType": "bytes4",
          "name": "interfaceId",
          "type": "bytes4"
        }
      ],
      "name": "supportsInterface",
      "outputs": [
        {
          "internalType": "bool",
          "name": "",
          "type": "bool"
        }
      ],
      "stateMutability": "view",
      "type": "function"
    },
    {
      "inputs": [],
      "name": "unpause",
      "outputs": [],
      "stateMutability": "nonpayable",
      "type": "function"
    },
    {
      "inputs": [
        {
          "internalType": "address",
          "name": "nftAddress",
          "type": "address"
        },
        {
          "internalType": "uint256",
          "name": "tokenId",
          "type": "uint256"
        }
      ],
      "name": "unstake",
      "outputs": [],
      "stateMutability": "nonpayable",
      "type": "function"
    },
    {
      "inputs": [
        {
          "internalType": "address",
          "name": "nftAddress",
          "type": "address"
        },
        {
          "internalType": "address",
          "name": "rewardToken",
          "type": "address"
        },
        {
          "internalType": "uint256",
          "name": "startTime",
          "type": "uint256"
        },
        {
          "internalType": "uint256",
          "name": "maxPointsPerSkill",
          "type": "uint256"
        }
      ],
      "name": "updateStakingConfig",
      "outputs": [],
      "stateMutability": "nonpayable",
      "type": "function"
    },
    {
      "inputs": [
        {
          "internalType": "address",
          "name": "to",
          "type": "address"
        },
        {
          "internalType": "address",
          "name": "token",
          "type": "address"
        },
        {
          "internalType": "uint256",
          "name": "amount",
          "type": "uint256"
        }
      ],
      "name": "withdrawPoolRewards",
      "outputs": [],
      "stateMutability": "nonpayable",
      "type": "function"
    }
  ],
  "bytecode": "0x60806040523480156200001157600080fd5b50600054610100900460ff166200002f5760005460ff161562000039565b62000039620000de565b620000a15760405162461bcd60e51b815260206004820152602e60248201527f496e697469616c697a61626c653a20636f6e747261637420697320616c72656160448201526d191e481a5b9a5d1a585b1a5e995960921b606482015260840160405180910390fd5b600054610100900460ff16158015620000c4576000805461ffff19166101011790555b8015620000d7576000805461ff00191690555b506200010b565b6000620000f630620000fc60201b62002f711760201c565b15905090565b6001600160a01b03163b151590565b614403806200011b6000396000f3fe608060405234801561001057600080fd5b50600436106102275760003560e01c80638456cb5911610130578063aed2151a116100b8578063d3a13d421161007c578063d3a13d42146104eb578063d547741f146104fe578063e63ab1e914610511578063eded3fda14610526578063fa5887ee1461053b57600080fd5b8063aed2151a1461048a578063bea64ba21461049d578063c2a672e0146104b0578063c59abf9f146104c3578063cc3f7b1c146104d857600080fd5b80639f8f6068116100ff5780639f8f606814610434578063a217fddf14610449578063a401344b14610451578063abfc6e7314610464578063adc9772e1461047757600080fd5b80638456cb59146103f357806386e8953d146103fb57806391d148541461040e57806394a770661461042157600080fd5b80633d564e49116101b35780634e71d92d116101825780634e71d92d146103a55780635a2d8800146103ad5780635c975abb146103cd5780637e5b5e5f146103d85780638129fc1c146103eb57600080fd5b80633d564e49146103625780633f4ba83a1461037557806347e633801461037d5780634cb12fee1461039257600080fd5b8063248a9ca3116101fa578063248a9ca3146102e55780632f2ff15d1461031657806332b95a6f1461032957806333820bac1461033c57806336568abe1461034f57600080fd5b806301ffc9a71461022c5780630ae7a46114610254578063150b7a021461026957806323de54d8146102ba575b600080fd5b61023f61023a36600461395c565b61054e565b60405190151581526020015b60405180910390f35b610267610262366004613986565b610585565b005b6102a16102773660046139ce565b7f150b7a023d4804d13e8c85fb27262cb750cf6ba9f9dd3bb30d90f482ceeb4b1f95945050505050565b6040516001600160e01b0319909116815260200161024b565b60c9546102cd906001600160a01b031681565b6040516001600160a01b03909116815260200161024b565b6103086102f3366004613a69565b60009081526097602052604090206001015490565b60405190815260200161024b565b610267610324366004613a82565b6105b7565b610267610337366004613b84565b6105e2565b61026761034a366004613c44565b610689565b61026761035d366004613a82565b6106c5565b610267610370366004613b84565b610743565b6102676107be565b61030860008051602061438e83398151915281565b6102676103a0366004613c77565b6107ea565b610267610a25565b6103c06103bb366004613c77565b610c37565b60405161024b9190613ca1565b60335460ff1661023f565b6102676103e6366004613c77565b611114565b6102676111db565b6102676112de565b61023f610409366004613c77565b611307565b61023f61041c366004613a82565b6113ca565b61026761042f366004613ce5565b6113f5565b61043c6117ab565b60405161024b9190613d7c565b610308600081565b61026761045f366004613e07565b61195c565b610267610472366004613e22565b611a05565b610267610485366004613c77565b611c06565b610267610498366004613e64565b611e85565b6102676104ab366004613eec565b611f88565b6102676104be366004613c77565b612143565b6104cb612425565b60405161024b9190613f28565b6102676104e6366004613c77565b6124b2565b6102676104f9366004613e07565b6127ad565b61026761050c366004613a82565b6127e9565b6103086000805160206143ae83398151915281565b61052e61280f565b60405161024b9190613f7d565b610267610549366004613fc8565b612a79565b60006001600160e01b03198216637965db0b60e01b148061057f57506301ffc9a760e01b6001600160e01b03198316145b92915050565b60008051602061438e83398151915261059e8133612f80565b50600092835260cb602052604090922090815560010155565b6000828152609760205260409020600101546105d38133612f80565b6105dd8383612fe4565b505050565b60335460ff161561060e5760405162461bcd60e51b815260040161060590614001565b60405180910390fd5b805182511461062f5760405162461bcd60e51b81526004016106059061402b565b60005b82518110156105dd576106778382815181106106505761065061406f565b602002602001015183838151811061066a5761066a61406f565b6020026020010151611c06565b806106818161409b565b915050610632565b60008051602061438e8339815191526106a28133612f80565b506001600160a01b03909216600090815260d06020526040902090815560010155565b6001600160a01b03811633146107355760405162461bcd60e51b815260206004820152602f60248201527f416363657373436f6e74726f6c3a2063616e206f6e6c792072656e6f756e636560448201526e103937b632b9903337b91039b2b63360891b6064820152608401610605565b61073f828261306a565b5050565b80518251146107645760405162461bcd60e51b81526004016106059061402b565b60005b82518110156105dd576107ac8382815181106107855761078561406f565b602002602001015183838151811061079f5761079f61406f565b6020026020010151612143565b806107b68161409b565b915050610767565b6000805160206143ae8339815191526107d78133612f80565b6107df6130d1565b6107e7613105565b50565b33600090815260ca602090815260408083206001600160a01b03861684528252808320848452909152902060058101546108555760405162461bcd60e51b815260206004820152600c60248201526b4e6f7420747261696e696e6760a01b6044820152606401610605565b42816006015411156108a95760405162461bcd60e51b815260206004820152601a60248201527f547261696e696e67207374696c6c20696e2070726f67726573730000000000006044820152606401610605565b6108b733613198565b613198565b60c95460038201546004808401546002850154604051630d126da960e11b81526001600160a01b03898116948201949094526024810188905260448101949094526064840191909152608483015290911690631a24db529060a401600060405180830381600087803b15801561092c57600080fd5b505af1158015610940573d6000803e3d6000fd5b50505050826001600160a01b03166109553390565b6001600160a01b03167f4cffb663b46d78e759211fc8a998ed5dd16066c4229b4b4e94bc0ff7431e85a8848460030154856004015486600201546040516109b5949392919093845260208401929092526040830152606082015260800190565b60405180910390a35033600090815260ca602090815260408083206001600160a01b039590951683529381528382209282529190915290812080546001600160a01b0319168155600181018290556002810182905560038101829055600481018290556005810182905560060155565b33600090815260cc602052604090206001810154610a785760405162461bcd60e51b815260206004820152601060248201526f4e6f7468696e6720746f20636c61696d60801b6044820152606401610605565b60005b6001820154811015610c05576000826001018281548110610a9e57610a9e61406f565b60009182526020909120600290910201546001600160a01b03169050806323b872dd3033866001018681548110610ad757610ad761406f565b9060005260206000209060020201600101546040518463ffffffff1660e01b8152600401610b07939291906140b6565b602060405180830381600087803b158015610b2157600080fd5b505af1158015610b35573d6000803e3d6000fd5b505050506040513d601f19601f82011682018060405250810190610b5991906140da565b50826001018281548110610b6f57610b6f61406f565b60009182526020909120600290910201546001600160a01b0316336001600160a01b03167ff7a40077ff7a04c7e61f6f26fb13774259ddf1b6bce9ecf26a8276cdd3992683856001018581548110610bc957610bc961406f565b906000526020600020906002020160010154604051610bea91815260200190565b60405180910390a35080610bfd8161409b565b915050610a7b565b50610c14600182016000613890565b8054158015610c2557506001810154155b156107e75761073f335b60cd9061345e565b6001600160a01b038216600090815260cf60209081526040808320815160a08101835281548152600182015481850152600282018054845181870281018701865281815260609796939586019390929190830182828015610cb757602002820191906000526020600020905b815481526020019060010190808311610ca3575b5050505050815260200160038201805480602002602001604051908101604052809291908181526020018280548015610d0f57602002820191906000526020600020905b815481526020019060010190808311610cfb575b5050509183525050600491909101546001600160a01b03166020909101528051909150610d7e5760405162461bcd60e51b815260206004820152601e60248201527f4e6f20747261696e696e672073657373696f6e20636f6e6669677572656400006044820152606401610605565b600081604001515167ffffffffffffffff811115610d9e57610d9e613aae565b604051908082528060200260200182016040528015610dc7578160200160208202803683370190505b50905060008060005b846040015151811015610f365760c954604086015180516001600160a01b039092169163a6f4e49e918b918b919086908110610e0e57610e0e61406f565b602002602001015189606001518681518110610e2c57610e2c61406f565b60200260200101516040518563ffffffff1660e01b8152600401610e5394939291906140fc565b60206040518083038186803b158015610e6b57600080fd5b505afa158015610e7f573d6000803e3d6000fd5b505050506040513d601f19601f82011682018060405250810190610ea39190614122565b848281518110610eb557610eb561406f565b6020026020010181815250506000848281518110610ed557610ed561406f565b60200260200101511115610ef15782610eed8161409b565b9350505b8460200151848281518110610f0857610f0861406f565b60200260200101511415610f245781610f208161409b565b9250505b80610f2e8161409b565b915050610dd0565b5081610f4a5750505060600151905061057f565b8060021415610f6157506060935061057f92505050565b60006001856040015151610f75919061413b565b67ffffffffffffffff811115610f8d57610f8d613aae565b604051908082528060200260200182016040528015610fb6578160200160208202803683370190505b5090506000805b855181101561110657836001148015610fd65750846001145b8015610ffb5750858181518110610fef57610fef61406f565b60200260200101516000145b1561103d57866060015181815181106110165761101661406f565b60200260200101518383815181106110305761103061406f565b6020026020010181815250505b60008682815181106110515761105161406f565b6020026020010151118015611082575086602001518682815181106110785761107861406f565b6020026020010151105b156110f45760408051600180825281830190925260009160208083019080368337019050509050876060015182815181106110bf576110bf61406f565b6020026020010151816000815181106110da576110da61406f565b6020908102919091010152975061057f9650505050505050565b806110fe8161409b565b915050610fbd565b509098975050505050505050565b6040516323b872dd60e01b81526001600160a01b038316906323b872dd90611144903390309086906004016140b6565b602060405180830381600087803b15801561115e57600080fd5b505af1158015611172573d6000803e3d6000fd5b505050506040513d601f19601f8201168201806040525081019061119691906140da565b506040518181526001600160a01b0383169033907ffbed5bbbffe0fa857a9b62acaea1ea1c076828145e69464a9b483a477fb6b0009060200160405180910390a35050565b600054610100900460ff166111f65760005460ff16156111fa565b303b155b61125d5760405162461bcd60e51b815260206004820152602e60248201527f496e697469616c697a61626c653a20636f6e747261637420697320616c72656160448201526d191e481a5b9a5d1a585b1a5e995960921b6064820152608401610605565b600054610100900460ff1615801561127f576000805461ffff19166101011790555b61128761347a565b61128f6134ab565b61129a600033612fe4565b6112b26000805160206143ae83398151915233612fe4565b6112ca60008051602061438e83398151915233612fe4565b80156107e7576000805461ff001916905550565b6000805160206143ae8339815191526112f78133612f80565b6112ff6130d1565b6107e76134d2565b6001600160a01b03808316600090815260d0602052604080822060c95481546001830154935163537a724f60e11b8152949592948694929093169263a6f4e49e92611359928a928a92906004016140fc565b60206040518083038186803b15801561137157600080fd5b505afa158015611385573d6000803e3d6000fd5b505050506040513d601f19601f820116820180604052508101906113a99190614122565b905080600114156113bf5760019250505061057f565b506000949350505050565b60009182526097602090815260408084206001600160a01b0393909316845291905290205460ff1690565b60008051602061438e83398151915261140e8133612f80565b6001600160a01b038716600090815260cf6020526040902054156114745760405162461bcd60e51b815260206004820152601d60248201527f5374616b696e6720636f6e66696720616c7265616479206578697374730000006044820152606401610605565b60008351116114bd5760405162461bcd60e51b81526020600482015260156024820152744d697373696e672074726565496420636f6e66696760581b6044820152606401610605565b60008251116115075760405162461bcd60e51b81526020600482015260166024820152754d697373696e6720736b696c6c496420636f6e66696760501b6044820152606401610605565b82518251146115675760405162461bcd60e51b815260206004820152602660248201527f5472656549647320616e6420536b696c6c49647320617272617973206d757374604482015265040dac2e8c6d60d31b6064820152608401610605565b600084116115875760405162461bcd60e51b815260040161060590614152565b4285116115a65760405162461bcd60e51b81526004016106059061419a565b6040516370a0823160e01b81523060048201526000906001600160a01b038816906370a082319060240160206040518083038186803b1580156115e857600080fd5b505afa1580156115fc573d6000803e3d6000fd5b505050506040513d601f19601f820116820180604052508101906116209190614122565b116116645760405162461bcd60e51b81526020600482015260146024820152734e6f2066756e647320666f72207265776172647360601b6044820152606401610605565b61166c6130d1565b6001600160a01b03878116600090815260cf602052604081206004810180546001600160a01b031916938a1693909317909255868255600182018690555b8451811015611700578481815181106116c5576116c561406f565b60200260200101518260020182815481106116e2576116e261406f565b600091825260209091200155806116f88161409b565b9150506116aa565b5060005b835181101561175a5783818151811061171f5761171f61406f565b602002602001015182600301828154811061173c5761173c61406f565b600091825260209091200155806117528161409b565b915050611704565b50604080516001600160a01b038981168252602082018990528a16917fc6e5f1ee3138795eeda2fa0aab37379a177c4f04396146dd2b154ab55f5c5585910160405180910390a25050505050505050565b33600090815260cc60209081526040808320805482518185028101850190935280835260609485949093929190849084015b82821015611832576000848152602090819020604080516060810182526003860290920180546001600160a01b03168352600180820154848601526002909101549183019190915290835290920191016117dd565b50505050905060005b81518110156119545733600090815260ca60205260408120835182908590859081106118695761186961406f565b6020026020010151600001516001600160a01b03166001600160a01b0316815260200190815260200160002060008484815181106118a9576118a961406f565b6020908102919091018101518101518252818101929092526040908101600020815160e08101835281546001600160a01b031681526001820154938101939093526002810154918301919091526003810154606083015260048101546080830152600581015460a08301526006015460c08201819052909150156119415783518190859061193561406f565b60200260200101819052505b508061194c8161409b565b91505061183b565b509092915050565b60008051602061438e8339815191526119758133612f80565b61197d6130d1565b6001600160a01b038216600090815260cf6020526040812081815560018101829055906119ad60028301826138b1565b6119bb6003830160006138b1565b5060040180546001600160a01b03191690556040516001600160a01b038316907fed93036dfb7e5500a2a7f2471a56e6b3389a8c28c72adca8ba9f6a4025ca6d5890600090a25050565b60008051602061438e833981519152611a1e8133612f80565b6001600160a01b038516600090815260cf6020526040902054611a835760405162461bcd60e51b815260206004820152601d60248201527f5374616b696e6720636f6e66696720646f6573206e6f742065786973740000006044820152606401610605565b60008211611aa35760405162461bcd60e51b815260040161060590614152565b428311611ac25760405162461bcd60e51b81526004016106059061419a565b6040516370a0823160e01b81523060048201526000906001600160a01b038616906370a082319060240160206040518083038186803b158015611b0457600080fd5b505afa158015611b18573d6000803e3d6000fd5b505050506040513d601f19601f82011682018060405250810190611b3c9190614122565b11611b805760405162461bcd60e51b81526020600482015260146024820152734e6f2066756e647320666f72207265776172647360601b6044820152606401610605565b611b886130d1565b6001600160a01b03858116600081815260cf60209081526040918290206004810180546001600160a01b031916958a169586179055878155600181018790558251948552908401879052927f255d2940ab142f16cd2452c452fc20185bcbc341ce9c1646bc3d4feac9dc3371910160405180910390a2505050505050565b60335460ff1615611c295760405162461bcd60e51b815260040161060590614001565b6001600160a01b038216600090815260cf6020526040902054611c7e5760405162461bcd60e51b815260206004820152600d60248201526c496e76616c6964207374616b6560981b6044820152606401610605565b6001600160a01b038216600090815260cf6020526040902054421015611ce05760405162461bcd60e51b815260206004820152601760248201527614dd185ada5b99c81a185cc81b9bdd081cdd185c9d1959604a1b6044820152606401610605565b611cea8282611307565b611d365760405162461bcd60e51b815260206004820152601f60248201527f5374616b696e67206973206e6f7420756e6c6f636b656420666f72206e6674006044820152606401610605565b604051632142170760e11b81526001600160a01b038316906342842e0e90611d66903390309086906004016140b6565b600060405180830381600087803b158015611d8057600080fd5b505af1158015611d94573d6000803e3d6000fd5b50505050611dc5604051806060016040528060006001600160a01b0316815260200160008152602001600081525090565b6001600160a01b038316815260208101829052426040820152611de733613198565b611df260cd3361352a565b5033600081815260cc6020908152604080832080546001808201835591855293839020865160039095020180546001600160a01b0319166001600160a01b039586161781558684015191810191909155858201516002909101555185815291861692917f5dac0c1b1112564a045ba943c9d50270893e8e826c49be8e7073adc713ab7bd7910160405180910390a3505050565b60008051602061438e833981519152611e9e8133612f80565b82518451148015611eb0575081518351145b611f0d5760405162461bcd60e51b815260206004820152602860248201527f416c6c20696e70757420617272617973206d757374206265207468652073616d6044820152670ca40d8cadccee8d60c31b6064820152608401610605565b60005b8451811015611f8157611f6f858281518110611f2e57611f2e61406f565b6020026020010151858381518110611f4857611f4861406f565b6020026020010151858481518110611f6257611f6261406f565b6020026020010151610585565b80611f798161409b565b915050611f10565b5050505050565b6000611f948133612f80565b611f9c6130d1565b6040516370a0823160e01b8152306004820152839083906001600160a01b038316906370a082319060240160206040518083038186803b158015611fdf57600080fd5b505afa158015611ff3573d6000803e3d6000fd5b505050506040513d601f19601f820116820180604052508101906120179190614122565b101561205c5760405162461bcd60e51b8152602060048201526014602482015273496e73756666696369656e742062616c616e636560601b6044820152606401610605565b6040516323b872dd60e01b81526001600160a01b038216906323b872dd9061208c903090899088906004016140b6565b602060405180830381600087803b1580156120a657600080fd5b505af11580156120ba573d6000803e3d6000fd5b505050506040513d601f19601f820116820180604052508101906120de91906140da565b50836001600160a01b0316856001600160a01b03166120fa3390565b6001600160a01b03167f74ed50f6a2a005dd31f4766fb60918c4a6728cb0da9eeb81b9526bc6da11ec0f8660405161213491815260200190565b60405180910390a45050505050565b33600090815260cc60205260408120906060905b825481101561225357846001600160a01b031683600001828154811061217f5761217f61406f565b60009182526020909120600390910201546001600160a01b03161415806121cc5750838360000182815481106121b7576121b761406f565b90600052602060002090600302016001015414155b15612241578260000181815481106121e6576121e661406f565b600091825260209182902060408051606081018252600390930290910180546001600160a01b03168352600181015493830193909352600290920154918101919091528251839061223561406f565b60200260200101819052505b8061224b8161409b565b915050612157565b5080516122619060016141e4565b8254146122a15760405162461bcd60e51b815260206004820152600e60248201526d13999d081b9bdd081cdd185ad95960921b6044820152606401610605565b6122aa33613198565b6122b58260006138cf565b60005b8151811015612348578181815181106122d3576122d361406f565b60200260200101518360000182815481106122f0576122f061406f565b600091825260209182902083516003929092020180546001600160a01b0319166001600160a01b03909216919091178155908201516001820155604090910151600290910155806123408161409b565b9150506122b8565b50815415801561235a57506001820154155b1561236a5761236833610c2f565b505b604051632142170760e11b81526001600160a01b038516906342842e0e9061239a903090339088906004016140b6565b600060405180830381600087803b1580156123b457600080fd5b505af11580156123c8573d6000803e3d6000fd5b50505050836001600160a01b03166123dd3390565b6001600160a01b03167fd8654fcc8cf5b36d30b3f5e4688fc78118e6d68de60b9994e09902268b57c3e38560405161241791815260200190565b60405180910390a350505050565b33600090815260cc60209081526040808320805482518185028101850190935280835260609492939192909184015b828210156124a9576000848152602090819020604080516060810182526003860290920180546001600160a01b0316835260018082015484860152600290910154918301919091529083529092019101612454565b50505050905090565b60335460ff16156124d55760405162461bcd60e51b815260040161060590614001565b6001600160a01b038216600090815260d060205260408120906124f88484611307565b905080156125485760405162461bcd60e51b815260206004820152601860248201527f5374616b696e6720616c726561647920756e6c6f636b656400000000000000006044820152606401610605565b6001600160a01b038416600090815260cf60205260409020546125a65760405162461bcd60e51b815260206004820152601660248201527514dd185ada5b99c81b9bdd0818dbdb999a59dd5c995960521b6044820152606401610605565b6001600160a01b038416600090815260cf60205260409020544210156126085760405162461bcd60e51b815260206004820152601760248201527614dd185ada5b99c81a185cc81b9bdd081cdd185c9d1959604a1b6044820152606401610605565b6001600160a01b03848116600090815260cf602052604090206004015416806323b872dd336000805260cb6020527f4239c2c8c3d9b94feb214b0f54d7c869ce1ceb63517be57644336cda4967a468546040516001600160e01b031960e085901b16815261267b929130916004016140b6565b602060405180830381600087803b15801561269557600080fd5b505af11580156126a9573d6000803e3d6000fd5b505050506040513d601f19601f820116820180604052508101906126cd91906140da565b5060c9548354600180860154604051630d126da960e11b81526001600160a01b038a81166004830152602482018a9052604482019490945260648101919091526084810191909152911690631a24db529060a401600060405180830381600087803b15801561273b57600080fd5b505af115801561274f573d6000803e3d6000fd5b50505050846001600160a01b03166127643390565b6001600160a01b03167f051144eeaaad1c4ee6b1eab928f531a9daf1687b3e0f8db00dae3f5df8c285db8660405161279e91815260200190565b60405180910390a35050505050565b60008051602061438e8339815191526127c68133612f80565b5060c980546001600160a01b0319166001600160a01b0392909216919091179055565b6000828152609760205260409020600101546128058133612f80565b6105dd838361306a565b33600090815260cc602090815260408083206001018054825181850281018501909352808352606094859485949193919290849084015b8282101561288e576000848152602090819020604080518082019091526002850290910180546001600160a01b03168252600190810154828401529083529092019101612846565b50505050905060005b81518110156129ce57600080805b865181101561291c578681815181106128c0576128c061406f565b60200260200101516001600160a01b03168585815181106128e3576128e361406f565b6020026020010151600001516001600160a01b0316141561290a576001925080915061291c565b806129148161409b565b9150506128a5565b508161297157855190508383815181106129385761293861406f565b6020908102919091010151518651879061295061406f565b60200260200101906001600160a01b031690816001600160a01b0316815250505b8383815181106129835761298361406f565b6020026020010151602001518582815181106129a1576129a161406f565b602002602001018181516129b591906141e4565b9052508291506129c690508161409b565b915050612897565b50606060005b8451811015612a70576040805180820190915260008082526020820152858281518110612a0357612a0361406f565b60209081029190910101516001600160a01b031681528451859083908110612a2d57612a2d61406f565b602002602001015181602001818152505080838381518110612a5157612a5161406f565b6020026020010181905250508080612a689061409b565b9150506129d4565b50949350505050565b60335460ff1615612a9c5760405162461bcd60e51b815260040161060590614001565b6001600160a01b038416600090815260cf602052604090208054612b025760405162461bcd60e51b815260206004820152601e60248201527f4e6f20747261696e696e672073657373696f6e20636f6e6669677572656400006044820152606401610605565b8054421015612b535760405162461bcd60e51b815260206004820152601c60248201527f547261696e696e6720686173206e6f74207374617274656420796574000000006044820152606401610605565b33600090815260ca602090815260408083206001600160a01b038916845282528083208784529091529020600581015415612bd05760405162461bcd60e51b815260206004820152601f60248201527f547261696e696e6720697320616c726561647920696e2070726f6772657373006044820152606401610605565b6000612bdc8787610c37565b90506000815111612c2f5760405162461bcd60e51b815260206004820152601e60248201527f4e6f20747261696e696e672073657373696f6e7320617661696c61626c6500006044820152606401610605565b6000805b8251811015612c785785838281518110612c4f57612c4f61406f565b60200260200101511415612c665760019150612c78565b80612c708161409b565b915050612c33565b5080612cc65760405162461bcd60e51b815260206004820152601760248201527f496e76616c696420747261696e696e67206f7074696f6e0000000000000000006044820152606401610605565b60c95460405163537a724f60e11b81526000916001600160a01b03169063a6f4e49e90612cfd908c908c908c908c906004016140fc565b60206040518083038186803b158015612d1557600080fd5b505afa158015612d29573d6000803e3d6000fd5b505050506040513d601f19601f82011682018060405250810190612d4d9190614122565b9050600060cb81612d5f8460016141e4565b815260200190815260200160002090508560010154826001612d8191906141e4565b1115612dcf5760405162461bcd60e51b815260206004820152601e60248201527f45786365656473206d6178696d756d20747261696e696e67206c6576656c00006044820152606401610605565b8054612e1d5760405162461bcd60e51b815260206004820152601d60248201527f547261696e696e67204c6576656c206973206e6f7420656e61626c65640000006044820152606401610605565b612e2633613198565b60048681015482546040516323b872dd60e01b81526001600160a01b03909216926323b872dd92612e5b9233923092016140b6565b602060405180830381600087803b158015612e7557600080fd5b505af1158015612e89573d6000803e3d6000fd5b505050506040513d601f19601f82011682018060405250810190612ead91906140da565b50612eb98260016141e4565b6002860155600385018890556004850187905542600586018190556001820154612ee2916141e4565b600686015584546001600160a01b0319166001600160a01b038b169081178655600186018a9055336001600160a01b03167f24b1c104ca4ea27ea575ecb40cf300ceef88941b21b15c86a99161ee9e1a1fd48b8b8b612f428860016141e4565b60408051948552602085019390935291830152606082015260800160405180910390a350505050505050505050565b6001600160a01b03163b151590565b612f8a82826113ca565b61073f57612fa2816001600160a01b0316601461353f565b612fad83602061353f565b604051602001612fbe92919061422c565b60408051601f198184030181529082905262461bcd60e51b8252610605916004016142a1565b612fee82826113ca565b61073f5760008281526097602090815260408083206001600160a01b03851684529091529020805460ff191660011790556130263390565b6001600160a01b0316816001600160a01b0316837f2f8788117e7eff1d82e926ec794901d17c78024a50270940304540a733656f0d60405160405180910390a45050565b61307482826113ca565b1561073f5760008281526097602090815260408083206001600160a01b0385168085529252808320805460ff1916905551339285917ff6391f5c32d9c69d2a47ea670b442974b53935d1edc7fd64eb21e047a839171b9190a45050565b60005b6130de60cd6136db565b8110156107e7576130f36108b260cd836136e5565b806130fd8161409b565b9150506130d4565b60335460ff1661314e5760405162461bcd60e51b815260206004820152601460248201527314185d5cd8589b194e881b9bdd081c185d5cd95960621b6044820152606401610605565b6033805460ff191690557f5db9ee0a495bf2e6ff9c91a7834c1ba4fdd244a5e8aa4e537bd38aeae4b073aa335b6040516001600160a01b03909116815260200160405180910390a1565b6001600160a01b038116600090815260cc60205260408120905b81548110156105dd5760008260000182815481106131d2576131d261406f565b906000526020600020906003020160020154426131ef919061413b565b9050600060cf600085600001858154811061320c5761320c61406f565b600091825260208083206003909202909101546001600160a01b0316835282019290925260400181209150805b600283015481101561337e5760c95486546001600160a01b039091169063a6f4e49e9088908890811061326e5761326e61406f565b600091825260209091206003909102015488546001600160a01b039091169089908990811061329f5761329f61406f565b9060005260206000209060030201600101548660020185815481106132c6576132c661406f565b90600052602060002001548760030186815481106132e6576132e661406f565b90600052602060002001546040518563ffffffff1660e01b815260040161331094939291906140fc565b60206040518083038186803b15801561332857600080fd5b505afa15801561333c573d6000803e3d6000fd5b505050506040513d601f19601f820116820180604052508101906133609190614122565b61336a90836141e4565b9150806133768161409b565b915050613239565b50604080518082019091526000808252602082015283603c60186133a38560016141e4565b6133ad91906142d4565b6133b791906142d4565b6133c191906142f6565b602082015260048301546001600160a01b03168152855442908790879081106133ec576133ec61406f565b6000918252602080832060026003909302018201939093556001808a01805480830182559084529284902085519390920290910180546001600160a01b039093166001600160a01b031990931692909217825592909101519101555082915061345690508161409b565b9150506131b2565b6000613473836001600160a01b0384166136f1565b9392505050565b600054610100900460ff166134a15760405162461bcd60e51b815260040161060590614315565b6134a96137e4565b565b600054610100900460ff166134a95760405162461bcd60e51b815260040161060590614315565b60335460ff16156134f55760405162461bcd60e51b815260040161060590614001565b6033805460ff191660011790557f62e78cea01bee320cd4e420270b5ea74000d11b0c9f74754ebdbfc544b05a25861317b3390565b6000613473836001600160a01b038416613817565b6060600061354e8360026142f6565b6135599060026141e4565b67ffffffffffffffff81111561357157613571613aae565b6040519080825280601f01601f19166020018201604052801561359b576020820181803683370190505b509050600360fc1b816000815181106135b6576135b661406f565b60200101906001600160f81b031916908160001a905350600f60fb1b816001815181106135e5576135e561406f565b60200101906001600160f81b031916908160001a90535060006136098460026142f6565b6136149060016141e4565b90505b600181111561368c576f181899199a1a9b1b9c1cb0b131b232b360811b85600f16601081106136485761364861406f565b1a60f81b82828151811061365e5761365e61406f565b60200101906001600160f81b031916908160001a90535060049490941c9361368581614360565b9050613617565b5083156134735760405162461bcd60e51b815260206004820181905260248201527f537472696e67733a20686578206c656e67746820696e73756666696369656e746044820152606401610605565b600061057f825490565b60006134738383613866565b600081815260018301602052604081205480156137da57600061371560018361413b565b85549091506000906137299060019061413b565b905081811461378e5760008660000182815481106137495761374961406f565b906000526020600020015490508087600001848154811061376c5761376c61406f565b6000918252602080832090910192909255918252600188019052604090208390555b855486908061379f5761379f614377565b60019003818190600052602060002001600090559055856001016000868152602001908152602001600020600090556001935050505061057f565b600091505061057f565b600054610100900460ff1661380b5760405162461bcd60e51b815260040161060590614315565b6033805460ff19169055565b600081815260018301602052604081205461385e5750815460018181018455600084815260208082209093018490558454848252828601909352604090209190915561057f565b50600061057f565b600082600001828154811061387d5761387d61406f565b9060005260206000200154905092915050565b50805460008255600202906000526020600020908101906107e791906138f0565b50805460008255906000526020600020908101906107e7919061391a565b50805460008255600302906000526020600020908101906107e7919061392f565b5b808211156139165780546001600160a01b0319168155600060018201556002016138f1565b5090565b5b80821115613916576000815560010161391b565b5b808211156139165780546001600160a01b03191681556000600182018190556002820155600301613930565b60006020828403121561396e57600080fd5b81356001600160e01b03198116811461347357600080fd5b60008060006060848603121561399b57600080fd5b505081359360208301359350604090920135919050565b80356001600160a01b03811681146139c957600080fd5b919050565b6000806000806000608086880312156139e657600080fd5b6139ef866139b2565b94506139fd602087016139b2565b935060408601359250606086013567ffffffffffffffff80821115613a2157600080fd5b818801915088601f830112613a3557600080fd5b813581811115613a4457600080fd5b896020828501011115613a5657600080fd5b9699959850939650602001949392505050565b600060208284031215613a7b57600080fd5b5035919050565b60008060408385031215613a9557600080fd5b82359150613aa5602084016139b2565b90509250929050565b634e487b7160e01b600052604160045260246000fd5b604051601f8201601f1916810167ffffffffffffffff81118282101715613aed57613aed613aae565b604052919050565b600067ffffffffffffffff821115613b0f57613b0f613aae565b5060051b60200190565b600082601f830112613b2a57600080fd5b81356020613b3f613b3a83613af5565b613ac4565b82815260059290921b84018101918181019086841115613b5e57600080fd5b8286015b84811015613b795780358352918301918301613b62565b509695505050505050565b60008060408385031215613b9757600080fd5b823567ffffffffffffffff80821115613baf57600080fd5b818501915085601f830112613bc357600080fd5b81356020613bd3613b3a83613af5565b82815260059290921b84018101918181019089841115613bf257600080fd5b948201945b83861015613c1757613c08866139b2565b82529482019490820190613bf7565b96505086013592505080821115613c2d57600080fd5b50613c3a85828601613b19565b9150509250929050565b600080600060608486031215613c5957600080fd5b613c62846139b2565b95602085013595506040909401359392505050565b60008060408385031215613c8a57600080fd5b613c93836139b2565b946020939093013593505050565b6020808252825182820181905260009190848201906040850190845b81811015613cd957835183529284019291840191600101613cbd565b50909695505050505050565b60008060008060008060c08789031215613cfe57600080fd5b613d07876139b2565b9550613d15602088016139b2565b94506040870135935060608701359250608087013567ffffffffffffffff80821115613d4057600080fd5b613d4c8a838b01613b19565b935060a0890135915080821115613d6257600080fd5b50613d6f89828a01613b19565b9150509295509295509295565b602080825282518282018190526000919060409081850190868401855b82811015613dfa57815180516001600160a01b0316855286810151878601528581015186860152606080820151908601526080808201519086015260a0808201519086015260c0908101519085015260e09093019290850190600101613d99565b5091979650505050505050565b600060208284031215613e1957600080fd5b613473826139b2565b60008060008060808587031215613e3857600080fd5b613e41856139b2565b9350613e4f602086016139b2565b93969395505050506040820135916060013590565b600080600060608486031215613e7957600080fd5b833567ffffffffffffffff80821115613e9157600080fd5b613e9d87838801613b19565b94506020860135915080821115613eb357600080fd5b613ebf87838801613b19565b93506040860135915080821115613ed557600080fd5b50613ee286828701613b19565b9150509250925092565b600080600060608486031215613f0157600080fd5b613f0a846139b2565b9250613f18602085016139b2565b9150604084013590509250925092565b602080825282518282018190526000919060409081850190868401855b82811015613dfa57815180516001600160a01b0316855286810151878601528501518585015260609093019290850190600101613f45565b602080825282518282018190526000919060409081850190868401855b82811015613dfa57815180516001600160a01b03168552860151868501529284019290850190600101613f9a565b60008060008060808587031215613fde57600080fd5b613fe7856139b2565b966020860135965060408601359560600135945092505050565b60208082526010908201526f14185d5cd8589b194e881c185d5cd95960821b604082015260600190565b60208082526024908201527f6164647265737320636f756e74206d757374206d6174636820746f6b656e20636040820152631bdd5b9d60e21b606082015260800190565b634e487b7160e01b600052603260045260246000fd5b634e487b7160e01b600052601160045260246000fd5b60006000198214156140af576140af614085565b5060010190565b6001600160a01b039384168152919092166020820152604081019190915260600190565b6000602082840312156140ec57600080fd5b8151801515811461347357600080fd5b6001600160a01b0394909416845260208401929092526040830152606082015260800190565b60006020828403121561413457600080fd5b5051919050565b60008282101561414d5761414d614085565b500390565b60208082526028908201527f6d6178506f696e7473506572536b696c6c206d75737420626520677265617465604082015267072207468616e20360c41b606082015260800190565b6020808252602a908201527f737461727454696d65206d7573742062652061206675747572652074696d6520604082015269696e207365636f6e647360b01b606082015260800190565b600082198211156141f7576141f7614085565b500190565b60005b838110156142175781810151838201526020016141ff565b83811115614226576000848401525b50505050565b7f416363657373436f6e74726f6c3a206163636f756e74200000000000000000008152600083516142648160178501602088016141fc565b7001034b99036b4b9b9b4b733903937b6329607d1b60179184019182015283516142958160288401602088016141fc565b01602801949350505050565b60208152600082518060208401526142c08160408501602087016141fc565b601f01601f19169190910160400192915050565b6000826142f157634e487b7160e01b600052601260045260246000fd5b500490565b600081600019048311821515161561431057614310614085565b500290565b6020808252602b908201527f496e697469616c697a61626c653a20636f6e7472616374206973206e6f74206960408201526a6e697469616c697a696e6760a81b606082015260800190565b60008161436f5761436f614085565b506000190190565b634e487b7160e01b600052603160045260246000fdfe73e573f9566d61418a34d5de3ff49360f9c51fec37f7486551670290f6285dab65d7a28e3265b37a6474929f336521b332c1681b933f6cb9f3376673440d862aa264697066735822122066ac91315856c26e256590904e29d8a8b718ba3b0db01c81a01dd224fc28217b64736f6c63430008090033",
  "linkReferences": {},
  "deployedLinkReferences": {}
}