{
  "_format": "hh-sol-artifact-1",
  "contractName": "ProfessionStakingUpgradeable",
  "sourceName": "contracts/ProfessionStakingUpgradeable.sol",
  "abi": [
    {
      "inputs": [],
      "stateMutability": "nonpayable",
      "type": "constructor"
    },
    {
      "anonymous": false,
      "inputs": [
        {
          "indexed": true,
          "internalType": "address",
          "name": "by",
          "type": "address"
        },
        {
          "indexed": true,
          "internalType": "address",
          "name": "token",
          "type": "address"
        },
        {
          "indexed": false,
          "internalType": "uint256",
          "name": "amount",
          "type": "uint256"
        }
      ],
      "name": "Claimed",
      "type": "event"
    },
    {
      "anonymous": false,
      "inputs": [
        {
          "indexed": false,
          "internalType": "address",
          "name": "account",
          "type": "address"
        }
      ],
      "name": "Paused",
      "type": "event"
    },
    {
      "anonymous": false,
      "inputs": [
        {
          "indexed": true,
          "internalType": "address",
          "name": "from",
          "type": "address"
        },
        {
          "indexed": true,
          "internalType": "address",
          "name": "token",
          "type": "address"
        },
        {
          "indexed": false,
          "internalType": "uint256",
          "name": "amount",
          "type": "uint256"
        }
      ],
      "name": "PoolRewardsDeposited",
      "type": "event"
    },
    {
      "anonymous": false,
      "inputs": [
        {
          "indexed": true,
          "internalType": "address",
          "name": "by",
          "type": "address"
        },
        {
          "indexed": true,
          "internalType": "address",
          "name": "to",
          "type": "address"
        },
        {
          "indexed": true,
          "internalType": "address",
          "name": "token",
          "type": "address"
        },
        {
          "indexed": false,
          "internalType": "uint256",
          "name": "amount",
          "type": "uint256"
        }
      ],
      "name": "PoolRewardsWithdrawn",
      "type": "event"
    },
    {
      "anonymous": false,
      "inputs": [
        {
          "indexed": true,
          "internalType": "bytes32",
          "name": "role",
          "type": "bytes32"
        },
        {
          "indexed": true,
          "internalType": "bytes32",
          "name": "previousAdminRole",
          "type": "bytes32"
        },
        {
          "indexed": true,
          "internalType": "bytes32",
          "name": "newAdminRole",
          "type": "bytes32"
        }
      ],
      "name": "RoleAdminChanged",
      "type": "event"
    },
    {
      "anonymous": false,
      "inputs": [
        {
          "indexed": true,
          "internalType": "bytes32",
          "name": "role",
          "type": "bytes32"
        },
        {
          "indexed": true,
          "internalType": "address",
          "name": "account",
          "type": "address"
        },
        {
          "indexed": true,
          "internalType": "address",
          "name": "sender",
          "type": "address"
        }
      ],
      "name": "RoleGranted",
      "type": "event"
    },
    {
      "anonymous": false,
      "inputs": [
        {
          "indexed": true,
          "internalType": "bytes32",
          "name": "role",
          "type": "bytes32"
        },
        {
          "indexed": true,
          "internalType": "address",
          "name": "account",
          "type": "address"
        },
        {
          "indexed": true,
          "internalType": "address",
          "name": "sender",
          "type": "address"
        }
      ],
      "name": "RoleRevoked",
      "type": "event"
    },
    {
      "anonymous": false,
      "inputs": [
        {
          "indexed": true,
          "internalType": "address",
          "name": "from",
          "type": "address"
        },
        {
          "indexed": true,
          "internalType": "address",
          "name": "nftAddress",
          "type": "address"
        },
        {
          "indexed": false,
          "internalType": "uint256",
          "name": "tokenId",
          "type": "uint256"
        }
      ],
      "name": "Staked",
      "type": "event"
    },
    {
      "anonymous": false,
      "inputs": [
        {
          "indexed": true,
          "internalType": "address",
          "name": "nftAddress",
          "type": "address"
        },
        {
          "indexed": false,
          "internalType": "address",
          "name": "rewardToken",
          "type": "address"
        },
        {
          "indexed": false,
          "internalType": "uint256",
          "name": "startTime",
          "type": "uint256"
        }
      ],
      "name": "StakingConfigCreated",
      "type": "event"
    },
    {
      "anonymous": false,
      "inputs": [
        {
          "indexed": true,
          "internalType": "address",
          "name": "nftAddress",
          "type": "address"
        }
      ],
      "name": "StakingConfigDeleted",
      "type": "event"
    },
    {
      "anonymous": false,
      "inputs": [
        {
          "indexed": true,
          "internalType": "address",
          "name": "nftAddress",
          "type": "address"
        },
        {
          "indexed": false,
          "internalType": "address",
          "name": "rewardToken",
          "type": "address"
        },
        {
          "indexed": false,
          "internalType": "uint256",
          "name": "startTime",
          "type": "uint256"
        }
      ],
      "name": "StakingConfigUpdated",
      "type": "event"
    },
    {
      "anonymous": false,
      "inputs": [
        {
          "indexed": true,
          "internalType": "address",
          "name": "by",
          "type": "address"
        },
        {
          "indexed": true,
          "internalType": "address",
          "name": "nftAddress",
          "type": "address"
        },
        {
          "indexed": false,
          "internalType": "uint256",
          "name": "tokenId",
          "type": "uint256"
        }
      ],
      "name": "StakingUnlocked",
      "type": "event"
    },
    {
      "anonymous": false,
      "inputs": [
        {
          "indexed": true,
          "internalType": "address",
          "name": "by",
          "type": "address"
        },
        {
          "indexed": true,
          "internalType": "address",
          "name": "nftAddress",
          "type": "address"
        },
        {
          "indexed": false,
          "internalType": "uint256",
          "name": "tokenId",
          "type": "uint256"
        },
        {
          "indexed": false,
          "internalType": "uint256",
          "name": "treeId",
          "type": "uint256"
        },
        {
          "indexed": false,
          "internalType": "uint256",
          "name": "skillId",
          "type": "uint256"
        },
        {
          "indexed": false,
          "internalType": "uint256",
          "name": "canceledAt",
          "type": "uint256"
        }
      ],
      "name": "TrainingCanceled",
      "type": "event"
    },
    {
      "anonymous": false,
      "inputs": [
        {
          "indexed": true,
          "internalType": "address",
          "name": "by",
          "type": "address"
        },
        {
          "indexed": true,
          "internalType": "address",
          "name": "nftAddress",
          "type": "address"
        },
        {
          "indexed": false,
          "internalType": "uint256",
          "name": "tokenId",
          "type": "uint256"
        },
        {
          "indexed": false,
          "internalType": "uint256",
          "name": "treeId",
          "type": "uint256"
        },
        {
          "indexed": false,
          "internalType": "uint256",
          "name": "skillId",
          "type": "uint256"
        },
        {
          "indexed": false,
          "internalType": "uint256",
          "name": "level",
          "type": "uint256"
        }
      ],
      "name": "TrainingFinished",
      "type": "event"
    },
    {
      "anonymous": false,
      "inputs": [
        {
          "indexed": true,
          "internalType": "address",
          "name": "by",
          "type": "address"
        },
        {
          "indexed": true,
          "internalType": "address",
          "name": "nftAddress",
          "type": "address"
        },
        {
          "indexed": false,
          "internalType": "uint256",
          "name": "tokenId",
          "type": "uint256"
        },
        {
          "indexed": false,
          "internalType": "uint256",
          "name": "treeId",
          "type": "uint256"
        },
        {
          "indexed": false,
          "internalType": "uint256",
          "name": "skillId",
          "type": "uint256"
        },
        {
          "indexed": false,
          "internalType": "uint256",
          "name": "level",
          "type": "uint256"
        },
        {
          "indexed": false,
          "internalType": "uint256",
          "name": "startedAt",
          "type": "uint256"
        },
        {
          "indexed": false,
          "internalType": "uint256",
          "name": "completeAt",
          "type": "uint256"
        }
      ],
      "name": "TrainingStarted",
      "type": "event"
    },
    {
      "anonymous": false,
      "inputs": [
        {
          "indexed": false,
          "internalType": "address",
          "name": "account",
          "type": "address"
        }
      ],
      "name": "Unpaused",
      "type": "event"
    },
    {
      "anonymous": false,
      "inputs": [
        {
          "indexed": true,
          "internalType": "address",
          "name": "from",
          "type": "address"
        },
        {
          "indexed": true,
          "internalType": "address",
          "name": "nftAddress",
          "type": "address"
        },
        {
          "indexed": false,
          "internalType": "uint256",
          "name": "tokenId",
          "type": "uint256"
        }
      ],
      "name": "Unstaked",
      "type": "event"
    },
    {
      "inputs": [],
      "name": "DEFAULT_ADMIN_ROLE",
      "outputs": [
        {
          "internalType": "bytes32",
          "name": "",
          "type": "bytes32"
        }
      ],
      "stateMutability": "view",
      "type": "function"
    },
    {
      "inputs": [],
      "name": "GAME_STORAGE",
      "outputs": [
        {
          "internalType": "contract IGameStorageUpgradeable",
          "name": "",
          "type": "address"
        }
      ],
      "stateMutability": "view",
      "type": "function"
    },
    {
      "inputs": [],
      "name": "PAUSER_ROLE",
      "outputs": [
        {
          "internalType": "bytes32",
          "name": "",
          "type": "bytes32"
        }
      ],
      "stateMutability": "view",
      "type": "function"
    },
    {
      "inputs": [],
      "name": "UPDATER_ROLE",
      "outputs": [
        {
          "internalType": "bytes32",
          "name": "",
          "type": "bytes32"
        }
      ],
      "stateMutability": "view",
      "type": "function"
    },
    {
      "inputs": [
        {
          "internalType": "uint256[]",
          "name": "level",
          "type": "uint256[]"
        },
        {
          "internalType": "uint256[]",
          "name": "cost",
          "type": "uint256[]"
        },
        {
          "internalType": "uint256[]",
          "name": "time",
          "type": "uint256[]"
        }
      ],
      "name": "batchSetTrainingCosts",
      "outputs": [],
      "stateMutability": "nonpayable",
      "type": "function"
    },
    {
      "inputs": [
        {
          "internalType": "address[]",
          "name": "nftAddresses",
          "type": "address[]"
        },
        {
          "internalType": "uint256[]",
          "name": "tokenIds",
          "type": "uint256[]"
        }
      ],
      "name": "batchStake",
      "outputs": [],
      "stateMutability": "nonpayable",
      "type": "function"
    },
    {
      "inputs": [
        {
          "internalType": "address[]",
          "name": "nftAddresses",
          "type": "address[]"
        },
        {
          "internalType": "uint256[]",
          "name": "tokenIds",
          "type": "uint256[]"
        }
      ],
      "name": "batchUnstake",
      "outputs": [],
      "stateMutability": "nonpayable",
      "type": "function"
    },
    {
      "inputs": [
        {
          "internalType": "address",
          "name": "nftAddress",
          "type": "address"
        },
        {
          "internalType": "uint256",
          "name": "tokenId",
          "type": "uint256"
        }
      ],
      "name": "cancelTraining",
      "outputs": [],
      "stateMutability": "nonpayable",
      "type": "function"
    },
    {
      "inputs": [],
      "name": "claim",
      "outputs": [],
      "stateMutability": "nonpayable",
      "type": "function"
    },
    {
      "inputs": [
        {
          "internalType": "address",
          "name": "nftAddress",
          "type": "address"
        },
        {
          "internalType": "address",
          "name": "rewardToken",
          "type": "address"
        },
        {
          "internalType": "uint256",
          "name": "startTime",
          "type": "uint256"
        },
        {
          "internalType": "uint256",
          "name": "maxPointsPerSkill",
          "type": "uint256"
        },
        {
          "internalType": "uint256[]",
          "name": "treeIds",
          "type": "uint256[]"
        },
        {
          "internalType": "uint256[]",
          "name": "skillIds",
          "type": "uint256[]"
        }
      ],
      "name": "createStakingConfig",
      "outputs": [],
      "stateMutability": "nonpayable",
      "type": "function"
    },
    {
      "inputs": [
        {
          "internalType": "address",
          "name": "nftAddress",
          "type": "address"
        }
      ],
      "name": "deleteStakingConfig",
      "outputs": [],
      "stateMutability": "nonpayable",
      "type": "function"
    },
    {
      "inputs": [
        {
          "internalType": "address",
          "name": "token",
          "type": "address"
        },
        {
          "internalType": "uint256",
          "name": "amount",
          "type": "uint256"
        }
      ],
      "name": "depositPoolRewards",
      "outputs": [],
      "stateMutability": "nonpayable",
      "type": "function"
    },
    {
      "inputs": [
        {
          "internalType": "address",
          "name": "nftAddress",
          "type": "address"
        },
        {
          "internalType": "uint256",
          "name": "tokenId",
          "type": "uint256"
        }
      ],
      "name": "enableStaking",
      "outputs": [],
      "stateMutability": "nonpayable",
      "type": "function"
    },
    {
      "inputs": [
        {
          "internalType": "address",
          "name": "nftAddress",
          "type": "address"
        },
        {
          "internalType": "uint256",
          "name": "tokenId",
          "type": "uint256"
        }
      ],
      "name": "finishTraining",
      "outputs": [],
      "stateMutability": "nonpayable",
      "type": "function"
    },
    {
      "inputs": [
        {
          "internalType": "address",
          "name": "_address",
          "type": "address"
        },
        {
          "internalType": "address",
          "name": "nftAddress",
          "type": "address"
        },
        {
          "internalType": "uint256",
          "name": "tokenId",
          "type": "uint256"
        }
      ],
      "name": "forceCancelTraining",
      "outputs": [],
      "stateMutability": "nonpayable",
      "type": "function"
    },
    {
      "inputs": [],
      "name": "forceDisperse",
      "outputs": [],
      "stateMutability": "nonpayable",
      "type": "function"
    },
    {
      "inputs": [],
      "name": "getActiveTraining",
      "outputs": [
        {
          "components": [
            {
              "internalType": "address",
              "name": "_address",
              "type": "address"
            },
            {
              "internalType": "uint256",
              "name": "tokenId",
              "type": "uint256"
            },
            {
              "internalType": "uint256",
              "name": "level",
              "type": "uint256"
            },
            {
              "internalType": "uint256",
              "name": "treeId",
              "type": "uint256"
            },
            {
              "internalType": "uint256",
              "name": "skillId",
              "type": "uint256"
            },
            {
              "internalType": "uint256",
              "name": "startedAt",
              "type": "uint256"
            },
            {
              "internalType": "uint256",
              "name": "completeAt",
              "type": "uint256"
            }
          ],
          "internalType": "struct ProfessionStakingUpgradeable.TrainingStatus[]",
          "name": "",
          "type": "tuple[]"
        }
      ],
      "stateMutability": "view",
      "type": "function"
    },
    {
      "inputs": [
        {
          "internalType": "address",
          "name": "nftAddress",
          "type": "address"
        },
        {
          "internalType": "uint256",
          "name": "tokenId",
          "type": "uint256"
        }
      ],
      "name": "getAllowedSkillChoices",
      "outputs": [
        {
          "internalType": "uint256[]",
          "name": "",
          "type": "uint256[]"
        }
      ],
      "stateMutability": "view",
      "type": "function"
    },
    {
      "inputs": [
        {
          "internalType": "bytes32",
          "name": "role",
          "type": "bytes32"
        }
      ],
      "name": "getRoleAdmin",
      "outputs": [
        {
          "internalType": "bytes32",
          "name": "",
          "type": "bytes32"
        }
      ],
      "stateMutability": "view",
      "type": "function"
    },
    {
      "inputs": [],
      "name": "getStaked",
      "outputs": [
        {
          "components": [
            {
              "internalType": "address",
              "name": "_address",
              "type": "address"
            },
            {
              "internalType": "uint256",
              "name": "tokenId",
              "type": "uint256"
            },
            {
              "internalType": "uint256",
              "name": "rewardFrom",
              "type": "uint256"
            }
          ],
          "internalType": "struct ProfessionStakingUpgradeable.NFT[]",
          "name": "",
          "type": "tuple[]"
        }
      ],
      "stateMutability": "view",
      "type": "function"
    },
    {
      "inputs": [
        {
          "internalType": "address",
          "name": "ntfAddress",
          "type": "address"
        },
        {
          "internalType": "uint256",
          "name": "tokenId",
          "type": "uint256"
        }
      ],
      "name": "getTotalProfessionSkillPoints",
      "outputs": [
        {
          "internalType": "uint256",
          "name": "",
          "type": "uint256"
        }
      ],
      "stateMutability": "view",
      "type": "function"
    },
    {
      "inputs": [
        {
          "internalType": "bytes32",
          "name": "role",
          "type": "bytes32"
        },
        {
          "internalType": "address",
          "name": "account",
          "type": "address"
        }
      ],
      "name": "grantRole",
      "outputs": [],
      "stateMutability": "nonpayable",
      "type": "function"
    },
    {
      "inputs": [
        {
          "internalType": "bytes32",
          "name": "role",
          "type": "bytes32"
        },
        {
          "internalType": "address",
          "name": "account",
          "type": "address"
        }
      ],
      "name": "hasRole",
      "outputs": [
        {
          "internalType": "bool",
          "name": "",
          "type": "bool"
        }
      ],
      "stateMutability": "view",
      "type": "function"
    },
    {
      "inputs": [],
      "name": "initialize",
      "outputs": [],
      "stateMutability": "nonpayable",
      "type": "function"
    },
    {
      "inputs": [
        {
          "internalType": "address",
          "name": "nftAddress",
          "type": "address"
        },
        {
          "internalType": "uint256",
          "name": "tokenId",
          "type": "uint256"
        }
      ],
      "name": "isStakingEnabled",
      "outputs": [
        {
          "internalType": "bool",
          "name": "",
          "type": "bool"
        }
      ],
      "stateMutability": "view",
      "type": "function"
    },
    {
      "inputs": [
        {
          "internalType": "address",
          "name": "operator",
          "type": "address"
        },
        {
          "internalType": "address",
          "name": "from",
          "type": "address"
        },
        {
          "internalType": "uint256",
          "name": "tokenId",
          "type": "uint256"
        },
        {
          "internalType": "bytes",
          "name": "data",
          "type": "bytes"
        }
      ],
      "name": "onERC721Received",
      "outputs": [
        {
          "internalType": "bytes4",
          "name": "",
          "type": "bytes4"
        }
      ],
      "stateMutability": "pure",
      "type": "function"
    },
    {
      "inputs": [],
      "name": "pause",
      "outputs": [],
      "stateMutability": "nonpayable",
      "type": "function"
    },
    {
      "inputs": [],
      "name": "paused",
      "outputs": [
        {
          "internalType": "bool",
          "name": "",
          "type": "bool"
        }
      ],
      "stateMutability": "view",
      "type": "function"
    },
    {
      "inputs": [],
      "name": "pendingRewards",
      "outputs": [
        {
          "internalType": "uint256",
          "name": "",
          "type": "uint256"
        }
      ],
      "stateMutability": "view",
      "type": "function"
    },
    {
      "inputs": [
        {
          "internalType": "bytes32",
          "name": "role",
          "type": "bytes32"
        },
        {
          "internalType": "address",
          "name": "account",
          "type": "address"
        }
      ],
      "name": "renounceRole",
      "outputs": [],
      "stateMutability": "nonpayable",
      "type": "function"
    },
    {
      "inputs": [
        {
          "internalType": "bytes32",
          "name": "role",
          "type": "bytes32"
        },
        {
          "internalType": "address",
          "name": "account",
          "type": "address"
        }
      ],
      "name": "revokeRole",
      "outputs": [],
      "stateMutability": "nonpayable",
      "type": "function"
    },
    {
      "inputs": [
        {
          "internalType": "address",
          "name": "_address",
          "type": "address"
        }
      ],
      "name": "setGameStorage",
      "outputs": [],
      "stateMutability": "nonpayable",
      "type": "function"
    },
    {
      "inputs": [
        {
          "internalType": "address",
          "name": "nftAddress",
          "type": "address"
        },
        {
          "internalType": "uint256",
          "name": "treeId",
          "type": "uint256"
        },
        {
          "internalType": "uint256",
          "name": "skillId",
          "type": "uint256"
        }
      ],
      "name": "setSkillPointer",
      "outputs": [],
      "stateMutability": "nonpayable",
      "type": "function"
    },
    {
      "inputs": [
        {
          "internalType": "uint256",
          "name": "level",
          "type": "uint256"
        },
        {
          "internalType": "uint256",
          "name": "cost",
          "type": "uint256"
        },
        {
          "internalType": "uint256",
          "name": "time",
          "type": "uint256"
        }
      ],
      "name": "setTrainingCost",
      "outputs": [],
      "stateMutability": "nonpayable",
      "type": "function"
    },
    {
      "inputs": [
        {
          "internalType": "address",
          "name": "nftAddress",
          "type": "address"
        },
        {
          "internalType": "uint256",
          "name": "tokenId",
          "type": "uint256"
        }
      ],
      "name": "stake",
      "outputs": [],
      "stateMutability": "nonpayable",
      "type": "function"
    },
    {
      "inputs": [
        {
          "internalType": "address",
          "name": "nftAddress",
          "type": "address"
        },
        {
          "internalType": "uint256",
          "name": "tokenId",
          "type": "uint256"
        },
        {
          "internalType": "uint256",
          "name": "treeId",
          "type": "uint256"
        },
        {
          "internalType": "uint256",
          "name": "skillId",
          "type": "uint256"
        }
      ],
      "name": "startTraining",
      "outputs": [],
      "stateMutability": "nonpayable",
      "type": "function"
    },
    {
      "inputs": [
        {
          "internalType": "bytes4",
          "name": "interfaceId",
          "type": "bytes4"
        }
      ],
      "name": "supportsInterface",
      "outputs": [
        {
          "internalType": "bool",
          "name": "",
          "type": "bool"
        }
      ],
      "stateMutability": "view",
      "type": "function"
    },
    {
      "inputs": [],
      "name": "unpause",
      "outputs": [],
      "stateMutability": "nonpayable",
      "type": "function"
    },
    {
      "inputs": [
        {
          "internalType": "address",
          "name": "nftAddress",
          "type": "address"
        },
        {
          "internalType": "uint256",
          "name": "tokenId",
          "type": "uint256"
        }
      ],
      "name": "unstake",
      "outputs": [],
      "stateMutability": "nonpayable",
      "type": "function"
    },
    {
      "inputs": [
        {
          "internalType": "address",
          "name": "nftAddress",
          "type": "address"
        },
        {
          "internalType": "address",
          "name": "rewardToken",
          "type": "address"
        },
        {
          "internalType": "uint256",
          "name": "startTime",
          "type": "uint256"
        },
        {
          "internalType": "uint256",
          "name": "maxPointsPerSkill",
          "type": "uint256"
        }
      ],
      "name": "updateStakingConfig",
      "outputs": [],
      "stateMutability": "nonpayable",
      "type": "function"
    },
    {
      "inputs": [
        {
          "internalType": "address",
          "name": "to",
          "type": "address"
        },
        {
          "internalType": "address",
          "name": "token",
          "type": "address"
        },
        {
          "internalType": "uint256",
          "name": "amount",
          "type": "uint256"
        }
      ],
      "name": "withdrawPoolRewards",
      "outputs": [],
      "stateMutability": "nonpayable",
      "type": "function"
    }
  ],
  "bytecode": "0x60806040523480156200001157600080fd5b50600054610100900460ff166200002f5760005460ff161562000039565b62000039620000de565b620000a15760405162461bcd60e51b815260206004820152602e60248201527f496e697469616c697a61626c653a20636f6e747261637420697320616c72656160448201526d191e481a5b9a5d1a585b1a5e995960921b606482015260840160405180910390fd5b600054610100900460ff16158015620000c4576000805461ffff19166101011790555b8015620000d7576000805461ff00191690555b506200010b565b6000620000f630620000fc60201b620035301760201c565b15905090565b6001600160a01b03163b151590565b614859806200011b6000396000f3fe608060405234801561001057600080fd5b50600436106102535760003560e01c80638456cb5911610146578063bea64ba2116100c3578063d3a13d4211610087578063d3a13d4214610545578063d547741f14610558578063e62ccc9c1461056b578063e63ab1e91461057e578063eded3fda14610593578063fa5887ee1461059b57600080fd5b8063bea64ba2146104ef578063c2a672e014610502578063c486efbf14610515578063c59abf9f1461051d578063cc3f7b1c1461053257600080fd5b8063a217fddf1161010a578063a217fddf1461049b578063a401344b146104a3578063abfc6e73146104b6578063adc9772e146104c9578063aed2151a146104dc57600080fd5b80638456cb591461044557806386e8953d1461044d57806391d148541461046057806394a77066146104735780639f8f60681461048657600080fd5b80633f4ba83a116101d45780635c975abb116101985780635c975abb146103f9578063729c3553146104045780637e5b5e5f146104175780638129fc1c1461042a57806381fda71d1461043257600080fd5b80633f4ba83a146103a157806347e63380146103a95780634cb12fee146103be5780634e71d92d146103d15780635a2d8800146103d957600080fd5b80632f2ff15d1161021b5780632f2ff15d1461034257806332b95a6f1461035557806333820bac1461036857806336568abe1461037b5780633d564e491461038e57600080fd5b806301ffc9a7146102585780630ae7a46114610280578063150b7a021461029557806323de54d8146102e6578063248a9ca314610311575b600080fd5b61026b610266366004613e01565b6105ae565b60405190151581526020015b60405180910390f35b61029361028e366004613e2b565b6105e5565b005b6102cd6102a3366004613e73565b7f150b7a023d4804d13e8c85fb27262cb750cf6ba9f9dd3bb30d90f482ceeb4b1f95945050505050565b6040516001600160e01b03199091168152602001610277565b60c9546102f9906001600160a01b031681565b6040516001600160a01b039091168152602001610277565b61033461031f366004613f0e565b60009081526097602052604090206001015490565b604051908152602001610277565b610293610350366004613f27565b610617565b610293610363366004614029565b610642565b6102936103763660046140e9565b6106e9565b610293610389366004613f27565b610725565b61029361039c366004614029565b6107a3565b61029361081e565b6103346000805160206147e483398151915281565b6102936103cc36600461411c565b61084a565b610293610a85565b6103ec6103e736600461411c565b610d14565b6040516102779190614146565b60335460ff1661026b565b61029361041236600461418a565b6111f1565b61029361042536600461411c565b611265565b61029361132c565b61033461044036600461411c565b61142f565b6102936114ef565b61026b61045b36600461411c565b611518565b61026b61046e366004613f27565b6115db565b6102936104813660046141c6565b611606565b61048e6119cc565b604051610277919061425d565b610334600081565b6102936104b13660046142e8565b611d37565b6102936104c4366004614303565b611de0565b6102936104d736600461411c565b611fe1565b6102936104ea366004614345565b612260565b6102936104fd36600461418a565b612363565b61029361051036600461411c565b61251e565b610293612935565b610525612949565b60405161027791906143cd565b61029361054036600461411c565b6129d6565b6102936105533660046142e8565b612cd1565b610293610566366004613f27565b612d0d565b61029361057936600461411c565b612d33565b61033460008051602061480483398151915281565b610334612e53565b6102936105a9366004614422565b613021565b60006001600160e01b03198216637965db0b60e01b14806105df57506301ffc9a760e01b6001600160e01b03198316145b92915050565b6000805160206147e48339815191526105fe813361353f565b50600092835260cb602052604090922090815560010155565b600082815260976020526040902060010154610633813361353f565b61063d83836135a3565b505050565b60335460ff161561066e5760405162461bcd60e51b81526004016106659061445b565b60405180910390fd5b805182511461068f5760405162461bcd60e51b815260040161066590614485565b60005b825181101561063d576106d78382815181106106b0576106b06144c9565b60200260200101518383815181106106ca576106ca6144c9565b6020026020010151611fe1565b806106e1816144f5565b915050610692565b6000805160206147e4833981519152610702813361353f565b506001600160a01b03909216600090815260d06020526040902090815560010155565b6001600160a01b03811633146107955760405162461bcd60e51b815260206004820152602f60248201527f416363657373436f6e74726f6c3a2063616e206f6e6c792072656e6f756e636560448201526e103937b632b9903337b91039b2b63360891b6064820152608401610665565b61079f8282613629565b5050565b80518251146107c45760405162461bcd60e51b815260040161066590614485565b60005b825181101561063d5761080c8382815181106107e5576107e56144c9565b60200260200101518383815181106107ff576107ff6144c9565b602002602001015161251e565b80610816816144f5565b9150506107c7565b600080516020614804833981519152610837813361353f565b61083f613690565b6108476136c4565b50565b33600090815260ca602090815260408083206001600160a01b03861684528252808320848452909152902060058101546108b55760405162461bcd60e51b815260206004820152600c60248201526b4e6f7420747261696e696e6760a01b6044820152606401610665565b42816006015411156109095760405162461bcd60e51b815260206004820152601a60248201527f547261696e696e67207374696c6c20696e2070726f67726573730000000000006044820152606401610665565b61091733613757565b613757565b60c95460038201546004808401546002850154604051630d126da960e11b81526001600160a01b03898116948201949094526024810188905260448101949094526064840191909152608483015290911690631a24db529060a401600060405180830381600087803b15801561098c57600080fd5b505af11580156109a0573d6000803e3d6000fd5b50505050826001600160a01b03166109b53390565b6001600160a01b03167f4cffb663b46d78e759211fc8a998ed5dd16066c4229b4b4e94bc0ff7431e85a884846003015485600401548660020154604051610a15949392919093845260208401929092526040830152606082015260800190565b60405180910390a35033600090815260ca602090815260408083206001600160a01b039590951683529381528382209282529190915290812080546001600160a01b0319168155600181018290556002810182905560038101829055600481018290556005810182905560060155565b610a8e33613757565b33600090815260cc602052604090206001810154610ae15760405162461bcd60e51b815260206004820152601060248201526f4e6f7468696e6720746f20636c61696d60801b6044820152606401610665565b6000805b6001830154811015610b3757826001018181548110610b0657610b066144c9565b90600052602060002090600202016001015482610b239190614510565b915080610b2f816144f5565b915050610ae5565b50610b46600183016000613d35565b6040516370a0823160e01b815230600482015273892d81221484f690c0a97d3dd18b9144a3ecdfb790829082906370a082319060240160206040518083038186803b158015610b9457600080fd5b505afa158015610ba8573d6000803e3d6000fd5b505050506040513d601f19601f82011682018060405250810190610bcc9190614528565b1015610c1a5760405162461bcd60e51b815260206004820181905260248201527f496e73756666696369656e74207265776172647320696e20636f6e74726163746044820152606401610665565b6001600160a01b03811663a9059cbb336040516001600160e01b031960e084901b1681526001600160a01b03909116600482015260248101859052604401602060405180830381600087803b158015610c7257600080fd5b505af1158015610c86573d6000803e3d6000fd5b505050506040513d601f19601f82011682018060405250810190610caa9190614541565b506040518281526001600160a01b0382169033907ff7a40077ff7a04c7e61f6f26fb13774259ddf1b6bce9ecf26a8276cdd39926839060200160405180910390a38254158015610cfc57506001830154155b1561063d57610d0e335b60cd90613903565b50505050565b6001600160a01b038216600090815260cf60209081526040808320815160a08101835281548152600182015481850152600282018054845181870281018701865281815260609796939586019390929190830182828015610d9457602002820191906000526020600020905b815481526020019060010190808311610d80575b5050505050815260200160038201805480602002602001604051908101604052809291908181526020018280548015610dec57602002820191906000526020600020905b815481526020019060010190808311610dd8575b5050509183525050600491909101546001600160a01b03166020909101528051909150610e5b5760405162461bcd60e51b815260206004820152601e60248201527f4e6f20747261696e696e672073657373696f6e20636f6e6669677572656400006044820152606401610665565b600081604001515167ffffffffffffffff811115610e7b57610e7b613f53565b604051908082528060200260200182016040528015610ea4578160200160208202803683370190505b50905060008060005b8460400151518110156110135760c954604086015180516001600160a01b039092169163a6f4e49e918b918b919086908110610eeb57610eeb6144c9565b602002602001015189606001518681518110610f0957610f096144c9565b60200260200101516040518563ffffffff1660e01b8152600401610f309493929190614563565b60206040518083038186803b158015610f4857600080fd5b505afa158015610f5c573d6000803e3d6000fd5b505050506040513d601f19601f82011682018060405250810190610f809190614528565b848281518110610f9257610f926144c9565b6020026020010181815250506000848281518110610fb257610fb26144c9565b60200260200101511115610fce5782610fca816144f5565b9350505b8460200151848281518110610fe557610fe56144c9565b602002602001015114156110015781610ffd816144f5565b9250505b8061100b816144f5565b915050610ead565b5081611027575050506060015190506105df565b806002141561103e5750606093506105df92505050565b600060018560400151516110529190614589565b67ffffffffffffffff81111561106a5761106a613f53565b604051908082528060200260200182016040528015611093578160200160208202803683370190505b5090506000805b85518110156111e3578360011480156110b35750846001145b80156110d857508581815181106110cc576110cc6144c9565b60200260200101516000145b1561111a57866060015181815181106110f3576110f36144c9565b602002602001015183838151811061110d5761110d6144c9565b6020026020010181815250505b600086828151811061112e5761112e6144c9565b602002602001015111801561115f57508660200151868281518110611155576111556144c9565b6020026020010151105b156111d157604080516001808252818301909252600091602080830190803683370190505090508760600151828151811061119c5761119c6144c9565b6020026020010151816000815181106111b7576111b76144c9565b602090810291909101015297506105df9650505050505050565b806111db816144f5565b91505061109a565b509098975050505050505050565b60006111fd813361353f565b506001600160a01b03928316600090815260ca60209081526040808320949095168252928352838120918152915290812080546001600160a01b0319168155600181018290556002810182905560038101829055600481018290556005810182905560060155565b6040516323b872dd60e01b81526001600160a01b038316906323b872dd90611295903390309086906004016145a0565b602060405180830381600087803b1580156112af57600080fd5b505af11580156112c3573d6000803e3d6000fd5b505050506040513d601f19601f820116820180604052508101906112e79190614541565b506040518181526001600160a01b0383169033907ffbed5bbbffe0fa857a9b62acaea1ea1c076828145e69464a9b483a477fb6b0009060200160405180910390a35050565b600054610100900460ff166113475760005460ff161561134b565b303b155b6113ae5760405162461bcd60e51b815260206004820152602e60248201527f496e697469616c697a61626c653a20636f6e747261637420697320616c72656160448201526d191e481a5b9a5d1a585b1a5e995960921b6064820152608401610665565b600054610100900460ff161580156113d0576000805461ffff19166101011790555b6113d861391f565b6113e0613950565b6113eb6000336135a3565b611403600080516020614804833981519152336135a3565b61141b6000805160206147e4833981519152336135a3565b8015610847576000805461ff001916905550565b600080805b600c8110156114e75760c95460405163537a724f60e11b81526000916001600160a01b03169063a6f4e49e9061147590899089906001908890600401614563565b60206040518083038186803b15801561148d57600080fd5b505afa1580156114a1573d6000803e3d6000fd5b505050506040513d601f19601f820116820180604052508101906114c59190614528565b90506114d18184614510565b92505080806114df906144f5565b915050611434565b509392505050565b600080516020614804833981519152611508813361353f565b611510613690565b610847613977565b6001600160a01b03808316600090815260d0602052604080822060c95481546001830154935163537a724f60e11b8152949592948694929093169263a6f4e49e9261156a928a928a9290600401614563565b60206040518083038186803b15801561158257600080fd5b505afa158015611596573d6000803e3d6000fd5b505050506040513d601f19601f820116820180604052508101906115ba9190614528565b905080600114156115d0576001925050506105df565b506000949350505050565b60009182526097602090815260408084206001600160a01b0393909316845291905290205460ff1690565b6000805160206147e483398151915261161f813361353f565b6001600160a01b038716600090815260cf6020526040902054156116855760405162461bcd60e51b815260206004820152601d60248201527f5374616b696e6720636f6e66696720616c7265616479206578697374730000006044820152606401610665565b60008351116116ce5760405162461bcd60e51b81526020600482015260156024820152744d697373696e672074726565496420636f6e66696760581b6044820152606401610665565b60008251116117185760405162461bcd60e51b81526020600482015260166024820152754d697373696e6720736b696c6c496420636f6e66696760501b6044820152606401610665565b82518251146117785760405162461bcd60e51b815260206004820152602660248201527f5472656549647320616e6420536b696c6c49647320617272617973206d757374604482015265040dac2e8c6d60d31b6064820152608401610665565b600084116117985760405162461bcd60e51b8152600401610665906145c4565b4285116117b75760405162461bcd60e51b81526004016106659061460c565b6040516370a0823160e01b81523060048201526000906001600160a01b038816906370a082319060240160206040518083038186803b1580156117f957600080fd5b505afa15801561180d573d6000803e3d6000fd5b505050506040513d601f19601f820116820180604052508101906118319190614528565b116118755760405162461bcd60e51b81526020600482015260146024820152734e6f2066756e647320666f72207265776172647360601b6044820152606401610665565b61187d613690565b6001600160a01b03878116600090815260cf602052604081206004810180546001600160a01b031916938a169390931790925586825560019091018590555b835181101561197c5760cf6000896001600160a01b03166001600160a01b031681526020019081526020016000206002018482815181106118ff576118ff6144c9565b6020908102919091018101518254600181018455600093845282842001556001600160a01b038a16825260cf905260409020835160039091019084908390811061194b5761194b6144c9565b6020908102919091018101518254600181018455600093845291909220015580611974816144f5565b9150506118bc565b50604080516001600160a01b038881168252602082018890528916917fc6e5f1ee3138795eeda2fa0aab37379a177c4f04396146dd2b154ab55f5c5585910160405180910390a250505050505050565b33600090815260cc60209081526040808320805482518185028101850190935280835260609493849084015b82821015611a4d576000848152602090819020604080516060810182526003860290920180546001600160a01b03168352600180820154848601526002909101549183019190915290835290920191016119f8565b5050505090506000805b8251811015611b645733600090815260ca6020526040812084518290869085908110611a8557611a856144c9565b6020026020010151600001516001600160a01b03166001600160a01b031681526020019081526020016000206000858481518110611ac557611ac56144c9565b6020908102919091018101518101518252818101929092526040908101600020815160e08101835281546001600160a01b031681526001820154938101939093526002810154918301919091526003810154606083015260048101546080830152600581015460a08301526006015460c0820181905290915015611b515782611b4d816144f5565b9350505b5080611b5c816144f5565b915050611a57565b5060008167ffffffffffffffff811115611b8057611b80613f53565b604051908082528060200260200182016040528015611bfa57816020015b611be76040518060e0016040528060006001600160a01b031681526020016000815260200160008152602001600081526020016000815260200160008152602001600081525090565b815260200190600190039081611b9e5790505b5090506000805b8451811015611d2d5733600090815260ca6020526040812086518290889085908110611c2f57611c2f6144c9565b6020026020010151600001516001600160a01b03166001600160a01b031681526020019081526020016000206000878481518110611c6f57611c6f6144c9565b6020908102919091018101518101518252818101929092526040908101600020815160e08101835281546001600160a01b031681526001820154938101939093526002810154918301919091526003810154606083015260048101546080830152600581015460a08301526006015460c0820181905290915015611d1a5780848481518110611d0057611d006144c9565b60200260200101819052508280611d16906144f5565b9350505b5080611d25816144f5565b915050611c01565b5090949350505050565b6000805160206147e4833981519152611d50813361353f565b611d58613690565b6001600160a01b038216600090815260cf602052604081208181556001810182905590611d886002830182613d56565b611d96600383016000613d56565b5060040180546001600160a01b03191690556040516001600160a01b038316907fed93036dfb7e5500a2a7f2471a56e6b3389a8c28c72adca8ba9f6a4025ca6d5890600090a25050565b6000805160206147e4833981519152611df9813361353f565b6001600160a01b038516600090815260cf6020526040902054611e5e5760405162461bcd60e51b815260206004820152601d60248201527f5374616b696e6720636f6e66696720646f6573206e6f742065786973740000006044820152606401610665565b60008211611e7e5760405162461bcd60e51b8152600401610665906145c4565b428311611e9d5760405162461bcd60e51b81526004016106659061460c565b6040516370a0823160e01b81523060048201526000906001600160a01b038616906370a082319060240160206040518083038186803b158015611edf57600080fd5b505afa158015611ef3573d6000803e3d6000fd5b505050506040513d601f19601f82011682018060405250810190611f179190614528565b11611f5b5760405162461bcd60e51b81526020600482015260146024820152734e6f2066756e647320666f72207265776172647360601b6044820152606401610665565b611f63613690565b6001600160a01b03858116600081815260cf60209081526040918290206004810180546001600160a01b031916958a169586179055878155600181018790558251948552908401879052927f255d2940ab142f16cd2452c452fc20185bcbc341ce9c1646bc3d4feac9dc3371910160405180910390a2505050505050565b60335460ff16156120045760405162461bcd60e51b81526004016106659061445b565b6001600160a01b038216600090815260cf60205260409020546120595760405162461bcd60e51b815260206004820152600d60248201526c496e76616c6964207374616b6560981b6044820152606401610665565b6001600160a01b038216600090815260cf60205260409020544210156120bb5760405162461bcd60e51b815260206004820152601760248201527614dd185ada5b99c81a185cc81b9bdd081cdd185c9d1959604a1b6044820152606401610665565b6120c58282611518565b6121115760405162461bcd60e51b815260206004820152601f60248201527f5374616b696e67206973206e6f7420756e6c6f636b656420666f72206e6674006044820152606401610665565b604051632142170760e11b81526001600160a01b038316906342842e0e90612141903390309086906004016145a0565b600060405180830381600087803b15801561215b57600080fd5b505af115801561216f573d6000803e3d6000fd5b505050506121a0604051806060016040528060006001600160a01b0316815260200160008152602001600081525090565b6001600160a01b0383168152602081018290524260408201526121c233613757565b6121cd60cd336139cf565b5033600081815260cc6020908152604080832080546001808201835591855293839020865160039095020180546001600160a01b0319166001600160a01b039586161781558684015191810191909155858201516002909101555185815291861692917f5dac0c1b1112564a045ba943c9d50270893e8e826c49be8e7073adc713ab7bd7910160405180910390a3505050565b6000805160206147e4833981519152612279813361353f565b8251845114801561228b575081518351145b6122e85760405162461bcd60e51b815260206004820152602860248201527f416c6c20696e70757420617272617973206d757374206265207468652073616d6044820152670ca40d8cadccee8d60c31b6064820152608401610665565b60005b845181101561235c5761234a858281518110612309576123096144c9565b6020026020010151858381518110612323576123236144c9565b602002602001015185848151811061233d5761233d6144c9565b60200260200101516105e5565b80612354816144f5565b9150506122eb565b5050505050565b600061236f813361353f565b612377613690565b6040516370a0823160e01b8152306004820152839083906001600160a01b038316906370a082319060240160206040518083038186803b1580156123ba57600080fd5b505afa1580156123ce573d6000803e3d6000fd5b505050506040513d601f19601f820116820180604052508101906123f29190614528565b10156124375760405162461bcd60e51b8152602060048201526014602482015273496e73756666696369656e742062616c616e636560601b6044820152606401610665565b6040516323b872dd60e01b81526001600160a01b038216906323b872dd90612467903090899088906004016145a0565b602060405180830381600087803b15801561248157600080fd5b505af1158015612495573d6000803e3d6000fd5b505050506040513d601f19601f820116820180604052508101906124b99190614541565b50836001600160a01b0316856001600160a01b03166124d53390565b6001600160a01b03167f74ed50f6a2a005dd31f4766fb60918c4a6728cb0da9eeb81b9526bc6da11ec0f8660405161250f91815260200190565b60405180910390a45050505050565b33600090815260cc60205260409020805461256c5760405162461bcd60e51b815260206004820152600e60248201526d139bc81391951cc81cdd185ad95960921b6044820152606401610665565b805460009061257d90600190614589565b67ffffffffffffffff81111561259557612595613f53565b6040519080825280602002602001820160405280156125f357816020015b6125e0604051806060016040528060006001600160a01b0316815260200160008152602001600081525090565b8152602001906001900390816125b35790505b50905060008060005b845481101561275857866001600160a01b0316856000018281548110612624576126246144c9565b60009182526020909120600390910201546001600160a01b031614158061267157508585600001828154811061265c5761265c6144c9565b90600052602060002090600302016001015414155b1561274157845482106126b75760405162461bcd60e51b815260206004820152600e60248201526d139195081b9bdd081cdd185ad95960921b6044820152606401610665565b8460000181815481106126cc576126cc6144c9565b600091825260209182902060408051606081018252600390930290910180546001600160a01b03168352600181015493830193909352600290920154918101919091528451859084908110612723576127236144c9565b60200260200101819052508180612739906144f5565b925050612746565b600192505b80612750816144f5565b9150506125fc565b5061276233613757565b61276d846000613d74565b60005b83518110156127fb578460000184828151811061278f5761278f6144c9565b602090810291909101810151825460018082018555600094855293839020825160039092020180546001600160a01b0319166001600160a01b039092169190911781559181015192820192909255604090910151600290910155806127f3816144f5565b915050612770565b50835415801561280d57506001840154155b1561281d5761281b33610d06565b505b33600081815260ca602090815260408083206001600160a01b038b168085529083528184208a855290925280832080546001600160a01b0319168155600181018490556002810184905560038101849055600480820185905560058201859055600690910193909355516323b872dd60e01b815290926323b872dd926128a8923092918b91016145a0565b600060405180830381600087803b1580156128c257600080fd5b505af11580156128d6573d6000803e3d6000fd5b50505050856001600160a01b03166128eb3390565b6001600160a01b03167fd8654fcc8cf5b36d30b3f5e4688fc78118e6d68de60b9994e09902268b57c3e38760405161292591815260200190565b60405180910390a3505050505050565b6000612941813361353f565b610847613690565b33600090815260cc60209081526040808320805482518185028101850190935280835260609492939192909184015b828210156129cd576000848152602090819020604080516060810182526003860290920180546001600160a01b0316835260018082015484860152600290910154918301919091529083529092019101612978565b50505050905090565b60335460ff16156129f95760405162461bcd60e51b81526004016106659061445b565b6001600160a01b038216600090815260d06020526040812090612a1c8484611518565b90508015612a6c5760405162461bcd60e51b815260206004820152601860248201527f5374616b696e6720616c726561647920756e6c6f636b656400000000000000006044820152606401610665565b6001600160a01b038416600090815260cf6020526040902054612aca5760405162461bcd60e51b815260206004820152601660248201527514dd185ada5b99c81b9bdd0818dbdb999a59dd5c995960521b6044820152606401610665565b6001600160a01b038416600090815260cf6020526040902054421015612b2c5760405162461bcd60e51b815260206004820152601760248201527614dd185ada5b99c81a185cc81b9bdd081cdd185c9d1959604a1b6044820152606401610665565b6001600160a01b03848116600090815260cf602052604090206004015416806323b872dd336000805260cb6020527f4239c2c8c3d9b94feb214b0f54d7c869ce1ceb63517be57644336cda4967a468546040516001600160e01b031960e085901b168152612b9f929130916004016145a0565b602060405180830381600087803b158015612bb957600080fd5b505af1158015612bcd573d6000803e3d6000fd5b505050506040513d601f19601f82011682018060405250810190612bf19190614541565b5060c9548354600180860154604051630d126da960e11b81526001600160a01b038a81166004830152602482018a9052604482019490945260648101919091526084810191909152911690631a24db529060a401600060405180830381600087803b158015612c5f57600080fd5b505af1158015612c73573d6000803e3d6000fd5b50505050846001600160a01b0316612c883390565b6001600160a01b03167f051144eeaaad1c4ee6b1eab928f531a9daf1687b3e0f8db00dae3f5df8c285db86604051612cc291815260200190565b60405180910390a35050505050565b6000805160206147e4833981519152612cea813361353f565b5060c980546001600160a01b0319166001600160a01b0392909216919091179055565b600082815260976020526040902060010154612d29813361353f565b61063d8383613629565b33600090815260ca602090815260408083206001600160a01b0386168452825280832084845290915290206005810154612d9e5760405162461bcd60e51b815260206004820152600c60248201526b4e6f7420747261696e696e6760a01b6044820152606401610665565b42816006015411612df15760405162461bcd60e51b815260206004820152601960248201527f547261696e696e6720616c72656164792066696e6973686564000000000000006044820152606401610665565b612dfa33613757565b600381015460048201546040805185815260208101939093528201524260608201526001600160a01b0384169033907fc9b7c59fa980251f7ca7eae784c953e8a9f49d617be6edca0b41264ea05cb16990608001610a15565b600080805b33600090815260cc6020526040902060010154811015612ec75733600090815260cc60205260409020600101805482908110612e9657612e966144c9565b90600052602060002090600202016001015482612eb39190614510565b915080612ebf816144f5565b915050612e58565b5033600090815260cc60205260408120905b8154811015613019576000826000018281548110612ef957612ef96144c9565b90600052602060002090600302016002015442612f169190614589565b9050600060cf6000856000018581548110612f3357612f336144c9565b600091825260208083206003909202909101546001600160a01b0316835282019290925260400181208554909250612fbf90869086908110612f7757612f776144c9565b600091825260209091206003909102015486546001600160a01b0390911690879087908110612fa857612fa86144c9565b90600052602060002090600302016001015461142f565b90508262015180612fd1836001614510565b612fe390670de0b6b3a7640000614656565b612fed9190614675565b612ff79190614656565b6130019087614510565b95505050508080613011906144f5565b915050612ed9565b509092915050565b60335460ff16156130445760405162461bcd60e51b81526004016106659061445b565b6001600160a01b038416600090815260cf6020526040902080546130aa5760405162461bcd60e51b815260206004820152601e60248201527f4e6f20747261696e696e672073657373696f6e20636f6e6669677572656400006044820152606401610665565b80544210156130fb5760405162461bcd60e51b815260206004820152601c60248201527f547261696e696e6720686173206e6f74207374617274656420796574000000006044820152606401610665565b33600090815260ca602090815260408083206001600160a01b0389168452825280832087845290915290206005810154156131785760405162461bcd60e51b815260206004820152601f60248201527f547261696e696e6720697320616c726561647920696e2070726f6772657373006044820152606401610665565b60006131848787610d14565b905060008151116131d75760405162461bcd60e51b815260206004820152601e60248201527f4e6f20747261696e696e672073657373696f6e7320617661696c61626c6500006044820152606401610665565b6000805b825181101561322057858382815181106131f7576131f76144c9565b6020026020010151141561320e5760019150613220565b80613218816144f5565b9150506131db565b508061326e5760405162461bcd60e51b815260206004820152601760248201527f496e76616c696420747261696e696e67206f7074696f6e0000000000000000006044820152606401610665565b60c95460405163537a724f60e11b81526000916001600160a01b03169063a6f4e49e906132a5908c908c908c908c90600401614563565b60206040518083038186803b1580156132bd57600080fd5b505afa1580156132d1573d6000803e3d6000fd5b505050506040513d601f19601f820116820180604052508101906132f59190614528565b9050600060cb81613307846001614510565b8152602001908152602001600020905085600101548260016133299190614510565b11156133775760405162461bcd60e51b815260206004820152601e60248201527f45786365656473206d6178696d756d20747261696e696e67206c6576656c00006044820152606401610665565b80546133c55760405162461bcd60e51b815260206004820152601d60248201527f547261696e696e67204c6576656c206973206e6f7420656e61626c65640000006044820152606401610665565b6133ce33613757565b60048681015482546040516323b872dd60e01b81526001600160a01b03909216926323b872dd926134039233923092016145a0565b602060405180830381600087803b15801561341d57600080fd5b505af1158015613431573d6000803e3d6000fd5b505050506040513d601f19601f820116820180604052508101906134559190614541565b50613461826001614510565b600286015560038501889055600485018790554260058601819055600182015461348a91614510565b600686015584546001600160a01b0319166001600160a01b038b169081178655600186018a9055336001600160a01b03167f98d1944772cc1ee399725448c633b3ec863f8be81e490479055d810afaa0225c8b8b8b6134ea886001614510565b60058c015460068d0154604080519687526020870195909552938501929092526060840152608083015260a082015260c00160405180910390a350505050505050505050565b6001600160a01b03163b151590565b61354982826115db565b61079f57613561816001600160a01b031660146139e4565b61356c8360206139e4565b60405160200161357d9291906146c3565b60408051601f198184030181529082905262461bcd60e51b825261066591600401614738565b6135ad82826115db565b61079f5760008281526097602090815260408083206001600160a01b03851684529091529020805460ff191660011790556135e53390565b6001600160a01b0316816001600160a01b0316837f2f8788117e7eff1d82e926ec794901d17c78024a50270940304540a733656f0d60405160405180910390a45050565b61363382826115db565b1561079f5760008281526097602090815260408083206001600160a01b0385168085529252808320805460ff1916905551339285917ff6391f5c32d9c69d2a47ea670b442974b53935d1edc7fd64eb21e047a839171b9190a45050565b60005b61369d60cd613b80565b811015610847576136b261091260cd83613b8a565b806136bc816144f5565b915050613693565b60335460ff1661370d5760405162461bcd60e51b815260206004820152601460248201527314185d5cd8589b194e881b9bdd081c185d5cd95960621b6044820152606401610665565b6033805460ff191690557f5db9ee0a495bf2e6ff9c91a7834c1ba4fdd244a5e8aa4e537bd38aeae4b073aa335b6040516001600160a01b03909116815260200160405180910390a1565b6001600160a01b038116600090815260cc60205260408120905b815481101561063d576000826000018281548110613791576137916144c9565b906000526020600020906003020160020154426137ae9190614589565b9050600060cf60008560000185815481106137cb576137cb6144c9565b600091825260208083206003909202909101546001600160a01b031683528201929092526040018120855490925061380f90869086908110612f7757612f776144c9565b905042856000018581548110613827576138276144c9565b9060005260206000209060030201600201819055508460010160405180604001604052808460040160009054906101000a90046001600160a01b03166001600160a01b0316815260200185620151808560016138839190614510565b61389590670de0b6b3a7640000614656565b61389f9190614675565b6138a99190614656565b90528154600180820184556000938452602093849020835160029093020180546001600160a01b0319166001600160a01b039093169290921782559190920151910155508291506138fb9050816144f5565b915050613771565b6000613918836001600160a01b038416613b96565b9392505050565b600054610100900460ff166139465760405162461bcd60e51b81526004016106659061476b565b61394e613c89565b565b600054610100900460ff1661394e5760405162461bcd60e51b81526004016106659061476b565b60335460ff161561399a5760405162461bcd60e51b81526004016106659061445b565b6033805460ff191660011790557f62e78cea01bee320cd4e420270b5ea74000d11b0c9f74754ebdbfc544b05a25861373a3390565b6000613918836001600160a01b038416613cbc565b606060006139f3836002614656565b6139fe906002614510565b67ffffffffffffffff811115613a1657613a16613f53565b6040519080825280601f01601f191660200182016040528015613a40576020820181803683370190505b509050600360fc1b81600081518110613a5b57613a5b6144c9565b60200101906001600160f81b031916908160001a905350600f60fb1b81600181518110613a8a57613a8a6144c9565b60200101906001600160f81b031916908160001a9053506000613aae846002614656565b613ab9906001614510565b90505b6001811115613b31576f181899199a1a9b1b9c1cb0b131b232b360811b85600f1660108110613aed57613aed6144c9565b1a60f81b828281518110613b0357613b036144c9565b60200101906001600160f81b031916908160001a90535060049490941c93613b2a816147b6565b9050613abc565b5083156139185760405162461bcd60e51b815260206004820181905260248201527f537472696e67733a20686578206c656e67746820696e73756666696369656e746044820152606401610665565b60006105df825490565b60006139188383613d0b565b60008181526001830160205260408120548015613c7f576000613bba600183614589565b8554909150600090613bce90600190614589565b9050818114613c33576000866000018281548110613bee57613bee6144c9565b9060005260206000200154905080876000018481548110613c1157613c116144c9565b6000918252602080832090910192909255918252600188019052604090208390555b8554869080613c4457613c446147cd565b6001900381819060005260206000200160009055905585600101600086815260200190815260200160002060009055600193505050506105df565b60009150506105df565b600054610100900460ff16613cb05760405162461bcd60e51b81526004016106659061476b565b6033805460ff19169055565b6000818152600183016020526040812054613d03575081546001818101845560008481526020808220909301849055845484825282860190935260409020919091556105df565b5060006105df565b6000826000018281548110613d2257613d226144c9565b9060005260206000200154905092915050565b50805460008255600202906000526020600020908101906108479190613d95565b50805460008255906000526020600020908101906108479190613dbf565b50805460008255600302906000526020600020908101906108479190613dd4565b5b80821115613dbb5780546001600160a01b031916815560006001820155600201613d96565b5090565b5b80821115613dbb5760008155600101613dc0565b5b80821115613dbb5780546001600160a01b03191681556000600182018190556002820155600301613dd5565b600060208284031215613e1357600080fd5b81356001600160e01b03198116811461391857600080fd5b600080600060608486031215613e4057600080fd5b505081359360208301359350604090920135919050565b80356001600160a01b0381168114613e6e57600080fd5b919050565b600080600080600060808688031215613e8b57600080fd5b613e9486613e57565b9450613ea260208701613e57565b935060408601359250606086013567ffffffffffffffff80821115613ec657600080fd5b818801915088601f830112613eda57600080fd5b813581811115613ee957600080fd5b896020828501011115613efb57600080fd5b9699959850939650602001949392505050565b600060208284031215613f2057600080fd5b5035919050565b60008060408385031215613f3a57600080fd5b82359150613f4a60208401613e57565b90509250929050565b634e487b7160e01b600052604160045260246000fd5b604051601f8201601f1916810167ffffffffffffffff81118282101715613f9257613f92613f53565b604052919050565b600067ffffffffffffffff821115613fb457613fb4613f53565b5060051b60200190565b600082601f830112613fcf57600080fd5b81356020613fe4613fdf83613f9a565b613f69565b82815260059290921b8401810191818101908684111561400357600080fd5b8286015b8481101561401e5780358352918301918301614007565b509695505050505050565b6000806040838503121561403c57600080fd5b823567ffffffffffffffff8082111561405457600080fd5b818501915085601f83011261406857600080fd5b81356020614078613fdf83613f9a565b82815260059290921b8401810191818101908984111561409757600080fd5b948201945b838610156140bc576140ad86613e57565b8252948201949082019061409c565b965050860135925050808211156140d257600080fd5b506140df85828601613fbe565b9150509250929050565b6000806000606084860312156140fe57600080fd5b61410784613e57565b95602085013595506040909401359392505050565b6000806040838503121561412f57600080fd5b61413883613e57565b946020939093013593505050565b6020808252825182820181905260009190848201906040850190845b8181101561417e57835183529284019291840191600101614162565b50909695505050505050565b60008060006060848603121561419f57600080fd5b6141a884613e57565b92506141b660208501613e57565b9150604084013590509250925092565b60008060008060008060c087890312156141df57600080fd5b6141e887613e57565b95506141f660208801613e57565b94506040870135935060608701359250608087013567ffffffffffffffff8082111561422157600080fd5b61422d8a838b01613fbe565b935060a089013591508082111561424357600080fd5b5061425089828a01613fbe565b9150509295509295509295565b602080825282518282018190526000919060409081850190868401855b828110156142db57815180516001600160a01b0316855286810151878601528581015186860152606080820151908601526080808201519086015260a0808201519086015260c0908101519085015260e0909301929085019060010161427a565b5091979650505050505050565b6000602082840312156142fa57600080fd5b61391882613e57565b6000806000806080858703121561431957600080fd5b61432285613e57565b935061433060208601613e57565b93969395505050506040820135916060013590565b60008060006060848603121561435a57600080fd5b833567ffffffffffffffff8082111561437257600080fd5b61437e87838801613fbe565b9450602086013591508082111561439457600080fd5b6143a087838801613fbe565b935060408601359150808211156143b657600080fd5b506143c386828701613fbe565b9150509250925092565b602080825282518282018190526000919060409081850190868401855b828110156142db57815180516001600160a01b03168552868101518786015285015185850152606090930192908501906001016143ea565b6000806000806080858703121561443857600080fd5b61444185613e57565b966020860135965060408601359560600135945092505050565b60208082526010908201526f14185d5cd8589b194e881c185d5cd95960821b604082015260600190565b60208082526024908201527f6164647265737320636f756e74206d757374206d6174636820746f6b656e20636040820152631bdd5b9d60e21b606082015260800190565b634e487b7160e01b600052603260045260246000fd5b634e487b7160e01b600052601160045260246000fd5b6000600019821415614509576145096144df565b5060010190565b60008219821115614523576145236144df565b500190565b60006020828403121561453a57600080fd5b5051919050565b60006020828403121561455357600080fd5b8151801515811461391857600080fd5b6001600160a01b0394909416845260208401929092526040830152606082015260800190565b60008282101561459b5761459b6144df565b500390565b6001600160a01b039384168152919092166020820152604081019190915260600190565b60208082526028908201527f6d6178506f696e7473506572536b696c6c206d75737420626520677265617465604082015267072207468616e20360c41b606082015260800190565b6020808252602a908201527f737461727454696d65206d7573742062652061206675747572652074696d6520604082015269696e207365636f6e647360b01b606082015260800190565b6000816000190483118215151615614670576146706144df565b500290565b60008261469257634e487b7160e01b600052601260045260246000fd5b500490565b60005b838110156146b257818101518382015260200161469a565b83811115610d0e5750506000910152565b7f416363657373436f6e74726f6c3a206163636f756e74200000000000000000008152600083516146fb816017850160208801614697565b7001034b99036b4b9b9b4b733903937b6329607d1b601791840191820152835161472c816028840160208801614697565b01602801949350505050565b6020815260008251806020840152614757816040850160208701614697565b601f01601f19169190910160400192915050565b6020808252602b908201527f496e697469616c697a61626c653a20636f6e7472616374206973206e6f74206960408201526a6e697469616c697a696e6760a81b606082015260800190565b6000816147c5576147c56144df565b506000190190565b634e487b7160e01b600052603160045260246000fdfe73e573f9566d61418a34d5de3ff49360f9c51fec37f7486551670290f6285dab65d7a28e3265b37a6474929f336521b332c1681b933f6cb9f3376673440d862aa264697066735822122074dc67c99d0d134f74d772f67d45bed2aca4a4e4b88005f3feb5aea2942d604964736f6c63430008090033",
  "linkReferences": {},
  "deployedLinkReferences": {}
}