{
  "_format": "hh-sol-artifact-1",
  "contractName": "ProfessionStakingUpgradeable",
  "sourceName": "contracts/ProfessionStakingUpgradeable.sol",
  "abi": [
    {
      "inputs": [],
      "stateMutability": "nonpayable",
      "type": "constructor"
    },
    {
      "anonymous": false,
      "inputs": [
        {
          "indexed": true,
          "internalType": "address",
          "name": "by",
          "type": "address"
        },
        {
          "indexed": true,
          "internalType": "address",
          "name": "token",
          "type": "address"
        },
        {
          "indexed": false,
          "internalType": "uint256",
          "name": "amount",
          "type": "uint256"
        }
      ],
      "name": "Claimed",
      "type": "event"
    },
    {
      "anonymous": false,
      "inputs": [
        {
          "indexed": false,
          "internalType": "address",
          "name": "account",
          "type": "address"
        }
      ],
      "name": "Paused",
      "type": "event"
    },
    {
      "anonymous": false,
      "inputs": [
        {
          "indexed": true,
          "internalType": "address",
          "name": "from",
          "type": "address"
        },
        {
          "indexed": true,
          "internalType": "address",
          "name": "token",
          "type": "address"
        },
        {
          "indexed": false,
          "internalType": "uint256",
          "name": "amount",
          "type": "uint256"
        }
      ],
      "name": "PoolRewardsDeposited",
      "type": "event"
    },
    {
      "anonymous": false,
      "inputs": [
        {
          "indexed": true,
          "internalType": "address",
          "name": "by",
          "type": "address"
        },
        {
          "indexed": true,
          "internalType": "address",
          "name": "to",
          "type": "address"
        },
        {
          "indexed": true,
          "internalType": "address",
          "name": "token",
          "type": "address"
        },
        {
          "indexed": false,
          "internalType": "uint256",
          "name": "amount",
          "type": "uint256"
        }
      ],
      "name": "PoolRewardsWithdrawn",
      "type": "event"
    },
    {
      "anonymous": false,
      "inputs": [
        {
          "indexed": true,
          "internalType": "bytes32",
          "name": "role",
          "type": "bytes32"
        },
        {
          "indexed": true,
          "internalType": "bytes32",
          "name": "previousAdminRole",
          "type": "bytes32"
        },
        {
          "indexed": true,
          "internalType": "bytes32",
          "name": "newAdminRole",
          "type": "bytes32"
        }
      ],
      "name": "RoleAdminChanged",
      "type": "event"
    },
    {
      "anonymous": false,
      "inputs": [
        {
          "indexed": true,
          "internalType": "bytes32",
          "name": "role",
          "type": "bytes32"
        },
        {
          "indexed": true,
          "internalType": "address",
          "name": "account",
          "type": "address"
        },
        {
          "indexed": true,
          "internalType": "address",
          "name": "sender",
          "type": "address"
        }
      ],
      "name": "RoleGranted",
      "type": "event"
    },
    {
      "anonymous": false,
      "inputs": [
        {
          "indexed": true,
          "internalType": "bytes32",
          "name": "role",
          "type": "bytes32"
        },
        {
          "indexed": true,
          "internalType": "address",
          "name": "account",
          "type": "address"
        },
        {
          "indexed": true,
          "internalType": "address",
          "name": "sender",
          "type": "address"
        }
      ],
      "name": "RoleRevoked",
      "type": "event"
    },
    {
      "anonymous": false,
      "inputs": [
        {
          "indexed": true,
          "internalType": "address",
          "name": "from",
          "type": "address"
        },
        {
          "indexed": true,
          "internalType": "address",
          "name": "nftAddress",
          "type": "address"
        },
        {
          "indexed": false,
          "internalType": "uint256",
          "name": "tokenId",
          "type": "uint256"
        }
      ],
      "name": "Staked",
      "type": "event"
    },
    {
      "anonymous": false,
      "inputs": [
        {
          "indexed": true,
          "internalType": "address",
          "name": "nftAddress",
          "type": "address"
        },
        {
          "indexed": false,
          "internalType": "address",
          "name": "rewardToken",
          "type": "address"
        },
        {
          "indexed": false,
          "internalType": "uint256",
          "name": "startTime",
          "type": "uint256"
        }
      ],
      "name": "StakingConfigCreated",
      "type": "event"
    },
    {
      "anonymous": false,
      "inputs": [
        {
          "indexed": true,
          "internalType": "address",
          "name": "nftAddress",
          "type": "address"
        }
      ],
      "name": "StakingConfigDeleted",
      "type": "event"
    },
    {
      "anonymous": false,
      "inputs": [
        {
          "indexed": true,
          "internalType": "address",
          "name": "nftAddress",
          "type": "address"
        },
        {
          "indexed": false,
          "internalType": "address",
          "name": "rewardToken",
          "type": "address"
        },
        {
          "indexed": false,
          "internalType": "uint256",
          "name": "startTime",
          "type": "uint256"
        }
      ],
      "name": "StakingConfigUpdated",
      "type": "event"
    },
    {
      "anonymous": false,
      "inputs": [
        {
          "indexed": true,
          "internalType": "address",
          "name": "by",
          "type": "address"
        },
        {
          "indexed": true,
          "internalType": "address",
          "name": "nftAddress",
          "type": "address"
        },
        {
          "indexed": false,
          "internalType": "uint256",
          "name": "tokenId",
          "type": "uint256"
        }
      ],
      "name": "StakingUnlocked",
      "type": "event"
    },
    {
      "anonymous": false,
      "inputs": [
        {
          "indexed": true,
          "internalType": "address",
          "name": "by",
          "type": "address"
        },
        {
          "indexed": true,
          "internalType": "address",
          "name": "nftAddress",
          "type": "address"
        },
        {
          "indexed": false,
          "internalType": "uint256",
          "name": "tokenId",
          "type": "uint256"
        },
        {
          "indexed": false,
          "internalType": "uint256",
          "name": "treeId",
          "type": "uint256"
        },
        {
          "indexed": false,
          "internalType": "uint256",
          "name": "skillId",
          "type": "uint256"
        },
        {
          "indexed": false,
          "internalType": "uint256",
          "name": "canceledAt",
          "type": "uint256"
        }
      ],
      "name": "TrainingCanceled",
      "type": "event"
    },
    {
      "anonymous": false,
      "inputs": [
        {
          "indexed": true,
          "internalType": "address",
          "name": "by",
          "type": "address"
        },
        {
          "indexed": true,
          "internalType": "address",
          "name": "nftAddress",
          "type": "address"
        },
        {
          "indexed": false,
          "internalType": "uint256",
          "name": "tokenId",
          "type": "uint256"
        },
        {
          "indexed": false,
          "internalType": "uint256",
          "name": "treeId",
          "type": "uint256"
        },
        {
          "indexed": false,
          "internalType": "uint256",
          "name": "skillId",
          "type": "uint256"
        },
        {
          "indexed": false,
          "internalType": "uint256",
          "name": "level",
          "type": "uint256"
        }
      ],
      "name": "TrainingFinished",
      "type": "event"
    },
    {
      "anonymous": false,
      "inputs": [
        {
          "indexed": true,
          "internalType": "address",
          "name": "by",
          "type": "address"
        },
        {
          "indexed": true,
          "internalType": "address",
          "name": "nftAddress",
          "type": "address"
        },
        {
          "indexed": false,
          "internalType": "uint256",
          "name": "tokenId",
          "type": "uint256"
        },
        {
          "indexed": false,
          "internalType": "uint256",
          "name": "treeId",
          "type": "uint256"
        },
        {
          "indexed": false,
          "internalType": "uint256",
          "name": "skillId",
          "type": "uint256"
        },
        {
          "indexed": false,
          "internalType": "uint256",
          "name": "level",
          "type": "uint256"
        },
        {
          "indexed": false,
          "internalType": "uint256",
          "name": "startedAt",
          "type": "uint256"
        },
        {
          "indexed": false,
          "internalType": "uint256",
          "name": "completeAt",
          "type": "uint256"
        }
      ],
      "name": "TrainingStarted",
      "type": "event"
    },
    {
      "anonymous": false,
      "inputs": [
        {
          "indexed": false,
          "internalType": "address",
          "name": "account",
          "type": "address"
        }
      ],
      "name": "Unpaused",
      "type": "event"
    },
    {
      "anonymous": false,
      "inputs": [
        {
          "indexed": true,
          "internalType": "address",
          "name": "from",
          "type": "address"
        },
        {
          "indexed": true,
          "internalType": "address",
          "name": "nftAddress",
          "type": "address"
        },
        {
          "indexed": false,
          "internalType": "uint256",
          "name": "tokenId",
          "type": "uint256"
        }
      ],
      "name": "Unstaked",
      "type": "event"
    },
    {
      "inputs": [],
      "name": "DEFAULT_ADMIN_ROLE",
      "outputs": [
        {
          "internalType": "bytes32",
          "name": "",
          "type": "bytes32"
        }
      ],
      "stateMutability": "view",
      "type": "function"
    },
    {
      "inputs": [],
      "name": "GAME_STORAGE",
      "outputs": [
        {
          "internalType": "contract IGameStorageUpgradeable",
          "name": "",
          "type": "address"
        }
      ],
      "stateMutability": "view",
      "type": "function"
    },
    {
      "inputs": [],
      "name": "PAUSER_ROLE",
      "outputs": [
        {
          "internalType": "bytes32",
          "name": "",
          "type": "bytes32"
        }
      ],
      "stateMutability": "view",
      "type": "function"
    },
    {
      "inputs": [],
      "name": "UPDATER_ROLE",
      "outputs": [
        {
          "internalType": "bytes32",
          "name": "",
          "type": "bytes32"
        }
      ],
      "stateMutability": "view",
      "type": "function"
    },
    {
      "inputs": [
        {
          "internalType": "uint256[]",
          "name": "level",
          "type": "uint256[]"
        },
        {
          "internalType": "uint256[]",
          "name": "cost",
          "type": "uint256[]"
        },
        {
          "internalType": "uint256[]",
          "name": "time",
          "type": "uint256[]"
        }
      ],
      "name": "batchSetTrainingCosts",
      "outputs": [],
      "stateMutability": "nonpayable",
      "type": "function"
    },
    {
      "inputs": [
        {
          "internalType": "address[]",
          "name": "nftAddresses",
          "type": "address[]"
        },
        {
          "internalType": "uint256[]",
          "name": "tokenIds",
          "type": "uint256[]"
        }
      ],
      "name": "batchStake",
      "outputs": [],
      "stateMutability": "nonpayable",
      "type": "function"
    },
    {
      "inputs": [
        {
          "internalType": "address[]",
          "name": "nftAddresses",
          "type": "address[]"
        },
        {
          "internalType": "uint256[]",
          "name": "tokenIds",
          "type": "uint256[]"
        }
      ],
      "name": "batchUnstake",
      "outputs": [],
      "stateMutability": "nonpayable",
      "type": "function"
    },
    {
      "inputs": [
        {
          "internalType": "address",
          "name": "nftAddress",
          "type": "address"
        },
        {
          "internalType": "uint256",
          "name": "tokenId",
          "type": "uint256"
        }
      ],
      "name": "cancelTraining",
      "outputs": [],
      "stateMutability": "nonpayable",
      "type": "function"
    },
    {
      "inputs": [],
      "name": "claim",
      "outputs": [],
      "stateMutability": "nonpayable",
      "type": "function"
    },
    {
      "inputs": [
        {
          "internalType": "address",
          "name": "nftAddress",
          "type": "address"
        },
        {
          "internalType": "address",
          "name": "rewardToken",
          "type": "address"
        },
        {
          "internalType": "uint256",
          "name": "startTime",
          "type": "uint256"
        },
        {
          "internalType": "uint256",
          "name": "maxPointsPerSkill",
          "type": "uint256"
        },
        {
          "internalType": "uint256[]",
          "name": "treeIds",
          "type": "uint256[]"
        },
        {
          "internalType": "uint256[]",
          "name": "skillIds",
          "type": "uint256[]"
        }
      ],
      "name": "createStakingConfig",
      "outputs": [],
      "stateMutability": "nonpayable",
      "type": "function"
    },
    {
      "inputs": [
        {
          "internalType": "address",
          "name": "nftAddress",
          "type": "address"
        }
      ],
      "name": "deleteStakingConfig",
      "outputs": [],
      "stateMutability": "nonpayable",
      "type": "function"
    },
    {
      "inputs": [
        {
          "internalType": "address",
          "name": "token",
          "type": "address"
        },
        {
          "internalType": "uint256",
          "name": "amount",
          "type": "uint256"
        }
      ],
      "name": "depositPoolRewards",
      "outputs": [],
      "stateMutability": "nonpayable",
      "type": "function"
    },
    {
      "inputs": [
        {
          "internalType": "address",
          "name": "nftAddress",
          "type": "address"
        },
        {
          "internalType": "uint256",
          "name": "tokenId",
          "type": "uint256"
        }
      ],
      "name": "enableStaking",
      "outputs": [],
      "stateMutability": "nonpayable",
      "type": "function"
    },
    {
      "inputs": [
        {
          "internalType": "address",
          "name": "nftAddress",
          "type": "address"
        },
        {
          "internalType": "uint256",
          "name": "tokenId",
          "type": "uint256"
        }
      ],
      "name": "finishTraining",
      "outputs": [],
      "stateMutability": "nonpayable",
      "type": "function"
    },
    {
      "inputs": [
        {
          "internalType": "address",
          "name": "_address",
          "type": "address"
        },
        {
          "internalType": "address",
          "name": "nftAddress",
          "type": "address"
        },
        {
          "internalType": "uint256",
          "name": "tokenId",
          "type": "uint256"
        }
      ],
      "name": "forceCancelTraining",
      "outputs": [],
      "stateMutability": "nonpayable",
      "type": "function"
    },
    {
      "inputs": [],
      "name": "forceDisperse",
      "outputs": [],
      "stateMutability": "nonpayable",
      "type": "function"
    },
    {
      "inputs": [],
      "name": "getActiveTraining",
      "outputs": [
        {
          "components": [
            {
              "internalType": "address",
              "name": "_address",
              "type": "address"
            },
            {
              "internalType": "uint256",
              "name": "tokenId",
              "type": "uint256"
            },
            {
              "internalType": "uint256",
              "name": "level",
              "type": "uint256"
            },
            {
              "internalType": "uint256",
              "name": "treeId",
              "type": "uint256"
            },
            {
              "internalType": "uint256",
              "name": "skillId",
              "type": "uint256"
            },
            {
              "internalType": "uint256",
              "name": "startedAt",
              "type": "uint256"
            },
            {
              "internalType": "uint256",
              "name": "completeAt",
              "type": "uint256"
            }
          ],
          "internalType": "struct ProfessionStakingUpgradeable.TrainingStatus[]",
          "name": "",
          "type": "tuple[]"
        }
      ],
      "stateMutability": "view",
      "type": "function"
    },
    {
      "inputs": [
        {
          "internalType": "address",
          "name": "nftAddress",
          "type": "address"
        },
        {
          "internalType": "uint256",
          "name": "tokenId",
          "type": "uint256"
        }
      ],
      "name": "getAllowedSkillChoices",
      "outputs": [
        {
          "internalType": "uint256[]",
          "name": "",
          "type": "uint256[]"
        }
      ],
      "stateMutability": "view",
      "type": "function"
    },
    {
      "inputs": [
        {
          "internalType": "bytes32",
          "name": "role",
          "type": "bytes32"
        }
      ],
      "name": "getRoleAdmin",
      "outputs": [
        {
          "internalType": "bytes32",
          "name": "",
          "type": "bytes32"
        }
      ],
      "stateMutability": "view",
      "type": "function"
    },
    {
      "inputs": [],
      "name": "getStaked",
      "outputs": [
        {
          "components": [
            {
              "internalType": "address",
              "name": "_address",
              "type": "address"
            },
            {
              "internalType": "uint256",
              "name": "tokenId",
              "type": "uint256"
            },
            {
              "internalType": "uint256",
              "name": "rewardFrom",
              "type": "uint256"
            }
          ],
          "internalType": "struct ProfessionStakingUpgradeable.NFT[]",
          "name": "",
          "type": "tuple[]"
        }
      ],
      "stateMutability": "view",
      "type": "function"
    },
    {
      "inputs": [
        {
          "internalType": "address",
          "name": "ntfAddress",
          "type": "address"
        },
        {
          "internalType": "uint256",
          "name": "tokenId",
          "type": "uint256"
        }
      ],
      "name": "getTotalProfessionSkillPoints",
      "outputs": [
        {
          "internalType": "uint256",
          "name": "",
          "type": "uint256"
        }
      ],
      "stateMutability": "view",
      "type": "function"
    },
    {
      "inputs": [
        {
          "internalType": "bytes32",
          "name": "role",
          "type": "bytes32"
        },
        {
          "internalType": "address",
          "name": "account",
          "type": "address"
        }
      ],
      "name": "grantRole",
      "outputs": [],
      "stateMutability": "nonpayable",
      "type": "function"
    },
    {
      "inputs": [
        {
          "internalType": "bytes32",
          "name": "role",
          "type": "bytes32"
        },
        {
          "internalType": "address",
          "name": "account",
          "type": "address"
        }
      ],
      "name": "hasRole",
      "outputs": [
        {
          "internalType": "bool",
          "name": "",
          "type": "bool"
        }
      ],
      "stateMutability": "view",
      "type": "function"
    },
    {
      "inputs": [],
      "name": "initialize",
      "outputs": [],
      "stateMutability": "nonpayable",
      "type": "function"
    },
    {
      "inputs": [
        {
          "internalType": "address",
          "name": "nftAddress",
          "type": "address"
        },
        {
          "internalType": "uint256",
          "name": "tokenId",
          "type": "uint256"
        }
      ],
      "name": "isStakingEnabled",
      "outputs": [
        {
          "internalType": "bool",
          "name": "",
          "type": "bool"
        }
      ],
      "stateMutability": "view",
      "type": "function"
    },
    {
      "inputs": [
        {
          "internalType": "address",
          "name": "operator",
          "type": "address"
        },
        {
          "internalType": "address",
          "name": "from",
          "type": "address"
        },
        {
          "internalType": "uint256",
          "name": "tokenId",
          "type": "uint256"
        },
        {
          "internalType": "bytes",
          "name": "data",
          "type": "bytes"
        }
      ],
      "name": "onERC721Received",
      "outputs": [
        {
          "internalType": "bytes4",
          "name": "",
          "type": "bytes4"
        }
      ],
      "stateMutability": "pure",
      "type": "function"
    },
    {
      "inputs": [],
      "name": "pause",
      "outputs": [],
      "stateMutability": "nonpayable",
      "type": "function"
    },
    {
      "inputs": [],
      "name": "paused",
      "outputs": [
        {
          "internalType": "bool",
          "name": "",
          "type": "bool"
        }
      ],
      "stateMutability": "view",
      "type": "function"
    },
    {
      "inputs": [],
      "name": "pendingRewards",
      "outputs": [
        {
          "internalType": "uint256",
          "name": "",
          "type": "uint256"
        }
      ],
      "stateMutability": "view",
      "type": "function"
    },
    {
      "inputs": [
        {
          "internalType": "bytes32",
          "name": "role",
          "type": "bytes32"
        },
        {
          "internalType": "address",
          "name": "account",
          "type": "address"
        }
      ],
      "name": "renounceRole",
      "outputs": [],
      "stateMutability": "nonpayable",
      "type": "function"
    },
    {
      "inputs": [
        {
          "internalType": "bytes32",
          "name": "role",
          "type": "bytes32"
        },
        {
          "internalType": "address",
          "name": "account",
          "type": "address"
        }
      ],
      "name": "revokeRole",
      "outputs": [],
      "stateMutability": "nonpayable",
      "type": "function"
    },
    {
      "inputs": [
        {
          "internalType": "address",
          "name": "_address",
          "type": "address"
        }
      ],
      "name": "setGameStorage",
      "outputs": [],
      "stateMutability": "nonpayable",
      "type": "function"
    },
    {
      "inputs": [
        {
          "internalType": "address",
          "name": "nftAddress",
          "type": "address"
        },
        {
          "internalType": "uint256",
          "name": "treeId",
          "type": "uint256"
        },
        {
          "internalType": "uint256",
          "name": "skillId",
          "type": "uint256"
        }
      ],
      "name": "setSkillPointer",
      "outputs": [],
      "stateMutability": "nonpayable",
      "type": "function"
    },
    {
      "inputs": [
        {
          "internalType": "uint256",
          "name": "level",
          "type": "uint256"
        },
        {
          "internalType": "uint256",
          "name": "cost",
          "type": "uint256"
        },
        {
          "internalType": "uint256",
          "name": "time",
          "type": "uint256"
        }
      ],
      "name": "setTrainingCost",
      "outputs": [],
      "stateMutability": "nonpayable",
      "type": "function"
    },
    {
      "inputs": [
        {
          "internalType": "address",
          "name": "nftAddress",
          "type": "address"
        },
        {
          "internalType": "uint256",
          "name": "tokenId",
          "type": "uint256"
        }
      ],
      "name": "stake",
      "outputs": [],
      "stateMutability": "nonpayable",
      "type": "function"
    },
    {
      "inputs": [
        {
          "internalType": "address",
          "name": "nftAddress",
          "type": "address"
        },
        {
          "internalType": "uint256",
          "name": "tokenId",
          "type": "uint256"
        },
        {
          "internalType": "uint256",
          "name": "treeId",
          "type": "uint256"
        },
        {
          "internalType": "uint256",
          "name": "skillId",
          "type": "uint256"
        }
      ],
      "name": "startTraining",
      "outputs": [],
      "stateMutability": "nonpayable",
      "type": "function"
    },
    {
      "inputs": [
        {
          "internalType": "bytes4",
          "name": "interfaceId",
          "type": "bytes4"
        }
      ],
      "name": "supportsInterface",
      "outputs": [
        {
          "internalType": "bool",
          "name": "",
          "type": "bool"
        }
      ],
      "stateMutability": "view",
      "type": "function"
    },
    {
      "inputs": [],
      "name": "unpause",
      "outputs": [],
      "stateMutability": "nonpayable",
      "type": "function"
    },
    {
      "inputs": [
        {
          "internalType": "address",
          "name": "nftAddress",
          "type": "address"
        },
        {
          "internalType": "uint256",
          "name": "tokenId",
          "type": "uint256"
        }
      ],
      "name": "unstake",
      "outputs": [],
      "stateMutability": "nonpayable",
      "type": "function"
    },
    {
      "inputs": [
        {
          "internalType": "address",
          "name": "nftAddress",
          "type": "address"
        },
        {
          "internalType": "address",
          "name": "rewardToken",
          "type": "address"
        },
        {
          "internalType": "uint256",
          "name": "startTime",
          "type": "uint256"
        },
        {
          "internalType": "uint256",
          "name": "maxPointsPerSkill",
          "type": "uint256"
        }
      ],
      "name": "updateStakingConfig",
      "outputs": [],
      "stateMutability": "nonpayable",
      "type": "function"
    },
    {
      "inputs": [
        {
          "internalType": "address",
          "name": "to",
          "type": "address"
        },
        {
          "internalType": "address",
          "name": "token",
          "type": "address"
        },
        {
          "internalType": "uint256",
          "name": "amount",
          "type": "uint256"
        }
      ],
      "name": "withdrawPoolRewards",
      "outputs": [],
      "stateMutability": "nonpayable",
      "type": "function"
    }
  ],
  "bytecode": "0x60806040523480156200001157600080fd5b50600054610100900460ff166200002f5760005460ff161562000039565b62000039620000de565b620000a15760405162461bcd60e51b815260206004820152602e60248201527f496e697469616c697a61626c653a20636f6e747261637420697320616c72656160448201526d191e481a5b9a5d1a585b1a5e995960921b606482015260840160405180910390fd5b600054610100900460ff16158015620000c4576000805461ffff19166101011790555b8015620000d7576000805461ff00191690555b506200010b565b6000620000f630620000fc60201b620033041760201c565b15905090565b6001600160a01b03163b151590565b614827806200011b6000396000f3fe608060405234801561001057600080fd5b50600436106102535760003560e01c80638456cb5911610146578063bea64ba2116100c3578063d3a13d4211610087578063d3a13d4214610545578063d547741f14610558578063e62ccc9c1461056b578063e63ab1e91461057e578063eded3fda14610593578063fa5887ee1461059b57600080fd5b8063bea64ba2146104ef578063c2a672e014610502578063c486efbf14610515578063c59abf9f1461051d578063cc3f7b1c1461053257600080fd5b8063a217fddf1161010a578063a217fddf1461049b578063a401344b146104a3578063abfc6e73146104b6578063adc9772e146104c9578063aed2151a146104dc57600080fd5b80638456cb591461044557806386e8953d1461044d57806391d148541461046057806394a77066146104735780639f8f60681461048657600080fd5b80633f4ba83a116101d45780635c975abb116101985780635c975abb146103f9578063729c3553146104045780637e5b5e5f146104175780638129fc1c1461042a57806381fda71d1461043257600080fd5b80633f4ba83a146103a157806347e63380146103a95780634cb12fee146103be5780634e71d92d146103d15780635a2d8800146103d957600080fd5b80632f2ff15d1161021b5780632f2ff15d1461034257806332b95a6f1461035557806333820bac1461036857806336568abe1461037b5780633d564e491461038e57600080fd5b806301ffc9a7146102585780630ae7a46114610280578063150b7a021461029557806323de54d8146102e6578063248a9ca314610311575b600080fd5b61026b610266366004613dcf565b6105ae565b60405190151581526020015b60405180910390f35b61029361028e366004613df9565b6105e5565b005b6102cd6102a3366004613e41565b7f150b7a023d4804d13e8c85fb27262cb750cf6ba9f9dd3bb30d90f482ceeb4b1f95945050505050565b6040516001600160e01b03199091168152602001610277565b60c9546102f9906001600160a01b031681565b6040516001600160a01b039091168152602001610277565b61033461031f366004613edc565b60009081526097602052604090206001015490565b604051908152602001610277565b610293610350366004613ef5565b610617565b610293610363366004613ff7565b610642565b6102936103763660046140b7565b6106e9565b610293610389366004613ef5565b610725565b61029361039c366004613ff7565b6107a3565b61029361081e565b6103346000805160206147b283398151915281565b6102936103cc3660046140ea565b61084a565b610293610a85565b6103ec6103e73660046140ea565b610b06565b6040516102779190614114565b60335460ff1661026b565b610293610412366004614158565b610fe3565b6102936104253660046140ea565b611057565b61029361111e565b6103346104403660046140ea565b611221565b6102936112e1565b61026b61045b3660046140ea565b61130a565b61026b61046e366004613ef5565b6113cd565b610293610481366004614194565b6113f8565b61048e6117be565b604051610277919061422b565b610334600081565b6102936104b13660046142b6565b611b29565b6102936104c43660046142d1565b611bd2565b6102936104d73660046140ea565b611dd3565b6102936104ea366004614313565b612052565b6102936104fd366004614158565b612155565b6102936105103660046140ea565b612310565b610293612742565b610525612756565b604051610277919061439b565b6102936105403660046140ea565b6127e3565b6102936105533660046142b6565b612ade565b610293610566366004613ef5565b612b1a565b6102936105793660046140ea565b612b40565b6103346000805160206147d283398151915281565b610334612c60565b6102936105a93660046143f0565b612df5565b60006001600160e01b03198216637965db0b60e01b14806105df57506301ffc9a760e01b6001600160e01b03198316145b92915050565b6000805160206147b28339815191526105fe8133613313565b50600092835260cb602052604090922090815560010155565b6000828152609760205260409020600101546106338133613313565b61063d8383613377565b505050565b60335460ff161561066e5760405162461bcd60e51b815260040161066590614429565b60405180910390fd5b805182511461068f5760405162461bcd60e51b815260040161066590614453565b60005b825181101561063d576106d78382815181106106b0576106b0614497565b60200260200101518383815181106106ca576106ca614497565b6020026020010151611dd3565b806106e1816144c3565b915050610692565b6000805160206147b28339815191526107028133613313565b506001600160a01b03909216600090815260d06020526040902090815560010155565b6001600160a01b03811633146107955760405162461bcd60e51b815260206004820152602f60248201527f416363657373436f6e74726f6c3a2063616e206f6e6c792072656e6f756e636560448201526e103937b632b9903337b91039b2b63360891b6064820152608401610665565b61079f82826133fd565b5050565b80518251146107c45760405162461bcd60e51b815260040161066590614453565b60005b825181101561063d5761080c8382815181106107e5576107e5614497565b60200260200101518383815181106107ff576107ff614497565b6020026020010151612310565b80610816816144c3565b9150506107c7565b6000805160206147d28339815191526108378133613313565b61083f613464565b610847613498565b50565b33600090815260ca602090815260408083206001600160a01b03861684528252808320848452909152902060058101546108b55760405162461bcd60e51b815260206004820152600c60248201526b4e6f7420747261696e696e6760a01b6044820152606401610665565b42816006015411156109095760405162461bcd60e51b815260206004820152601a60248201527f547261696e696e67207374696c6c20696e2070726f67726573730000000000006044820152606401610665565b6109173361352b565b61352b565b60c95460038201546004808401546002850154604051630d126da960e11b81526001600160a01b03898116948201949094526024810188905260448101949094526064840191909152608483015290911690631a24db529060a401600060405180830381600087803b15801561098c57600080fd5b505af11580156109a0573d6000803e3d6000fd5b50505050826001600160a01b03166109b53390565b6001600160a01b03167f4cffb663b46d78e759211fc8a998ed5dd16066c4229b4b4e94bc0ff7431e85a884846003015485600401548660020154604051610a15949392919093845260208401929092526040830152606082015260800190565b60405180910390a35033600090815260ca602090815260408083206001600160a01b039590951683529381528382209282529190915290812080546001600160a01b0319168155600181018290556002810182905560038101829055600481018290556005810182905560060155565b610a8e3361352b565b33600090815260cc6020526040902060010154151580610abc575033600090815260d1602052604090205415155b610afb5760405162461bcd60e51b815260206004820152601060248201526f4e6f7468696e6720746f20636c61696d60801b6044820152606401610665565b610b0433613644565b565b6001600160a01b038216600090815260cf60209081526040808320815160a08101835281548152600182015481850152600282018054845181870281018701865281815260609796939586019390929190830182828015610b8657602002820191906000526020600020905b815481526020019060010190808311610b72575b5050505050815260200160038201805480602002602001604051908101604052809291908181526020018280548015610bde57602002820191906000526020600020905b815481526020019060010190808311610bca575b5050509183525050600491909101546001600160a01b03166020909101528051909150610c4d5760405162461bcd60e51b815260206004820152601e60248201527f4e6f20747261696e696e672073657373696f6e20636f6e6669677572656400006044820152606401610665565b600081604001515167ffffffffffffffff811115610c6d57610c6d613f21565b604051908082528060200260200182016040528015610c96578160200160208202803683370190505b50905060008060005b846040015151811015610e055760c954604086015180516001600160a01b039092169163a6f4e49e918b918b919086908110610cdd57610cdd614497565b602002602001015189606001518681518110610cfb57610cfb614497565b60200260200101516040518563ffffffff1660e01b8152600401610d2294939291906144de565b60206040518083038186803b158015610d3a57600080fd5b505afa158015610d4e573d6000803e3d6000fd5b505050506040513d601f19601f82011682018060405250810190610d729190614504565b848281518110610d8457610d84614497565b6020026020010181815250506000848281518110610da457610da4614497565b60200260200101511115610dc05782610dbc816144c3565b9350505b8460200151848281518110610dd757610dd7614497565b60200260200101511415610df35781610def816144c3565b9250505b80610dfd816144c3565b915050610c9f565b5081610e19575050506060015190506105df565b8060021415610e305750606093506105df92505050565b60006001856040015151610e44919061451d565b67ffffffffffffffff811115610e5c57610e5c613f21565b604051908082528060200260200182016040528015610e85578160200160208202803683370190505b5090506000805b8551811015610fd557836001148015610ea55750846001145b8015610eca5750858181518110610ebe57610ebe614497565b60200260200101516000145b15610f0c5786606001518181518110610ee557610ee5614497565b6020026020010151838381518110610eff57610eff614497565b6020026020010181815250505b6000868281518110610f2057610f20614497565b6020026020010151118015610f5157508660200151868281518110610f4757610f47614497565b6020026020010151105b15610fc3576040805160018082528183019092526000916020808301908036833701905050905087606001518281518110610f8e57610f8e614497565b602002602001015181600081518110610fa957610fa9614497565b602090810291909101015297506105df9650505050505050565b80610fcd816144c3565b915050610e8c565b509098975050505050505050565b6000610fef8133613313565b506001600160a01b03928316600090815260ca60209081526040808320949095168252928352838120918152915290812080546001600160a01b0319168155600181018290556002810182905560038101829055600481018290556005810182905560060155565b6040516323b872dd60e01b81526001600160a01b038316906323b872dd9061108790339030908690600401614534565b602060405180830381600087803b1580156110a157600080fd5b505af11580156110b5573d6000803e3d6000fd5b505050506040513d601f19601f820116820180604052508101906110d99190614558565b506040518181526001600160a01b0383169033907ffbed5bbbffe0fa857a9b62acaea1ea1c076828145e69464a9b483a477fb6b0009060200160405180910390a35050565b600054610100900460ff166111395760005460ff161561113d565b303b155b6111a05760405162461bcd60e51b815260206004820152602e60248201527f496e697469616c697a61626c653a20636f6e747261637420697320616c72656160448201526d191e481a5b9a5d1a585b1a5e995960921b6064820152608401610665565b600054610100900460ff161580156111c2576000805461ffff19166101011790555b6111ca6138d3565b6111d2613902565b6111dd600033613377565b6111f56000805160206147d283398151915233613377565b61120d6000805160206147b283398151915233613377565b8015610847576000805461ff001916905550565b600080805b600c8110156112d95760c95460405163537a724f60e11b81526000916001600160a01b03169063a6f4e49e90611267908990899060019088906004016144de565b60206040518083038186803b15801561127f57600080fd5b505afa158015611293573d6000803e3d6000fd5b505050506040513d601f19601f820116820180604052508101906112b79190614504565b90506112c3818461457a565b92505080806112d1906144c3565b915050611226565b509392505050565b6000805160206147d28339815191526112fa8133613313565b611302613464565b610847613929565b6001600160a01b03808316600090815260d0602052604080822060c95481546001830154935163537a724f60e11b8152949592948694929093169263a6f4e49e9261135c928a928a92906004016144de565b60206040518083038186803b15801561137457600080fd5b505afa158015611388573d6000803e3d6000fd5b505050506040513d601f19601f820116820180604052508101906113ac9190614504565b905080600114156113c2576001925050506105df565b506000949350505050565b60009182526097602090815260408084206001600160a01b0393909316845291905290205460ff1690565b6000805160206147b28339815191526114118133613313565b6001600160a01b038716600090815260cf6020526040902054156114775760405162461bcd60e51b815260206004820152601d60248201527f5374616b696e6720636f6e66696720616c7265616479206578697374730000006044820152606401610665565b60008351116114c05760405162461bcd60e51b81526020600482015260156024820152744d697373696e672074726565496420636f6e66696760581b6044820152606401610665565b600082511161150a5760405162461bcd60e51b81526020600482015260166024820152754d697373696e6720736b696c6c496420636f6e66696760501b6044820152606401610665565b825182511461156a5760405162461bcd60e51b815260206004820152602660248201527f5472656549647320616e6420536b696c6c49647320617272617973206d757374604482015265040dac2e8c6d60d31b6064820152608401610665565b6000841161158a5760405162461bcd60e51b815260040161066590614592565b4285116115a95760405162461bcd60e51b8152600401610665906145da565b6040516370a0823160e01b81523060048201526000906001600160a01b038816906370a082319060240160206040518083038186803b1580156115eb57600080fd5b505afa1580156115ff573d6000803e3d6000fd5b505050506040513d601f19601f820116820180604052508101906116239190614504565b116116675760405162461bcd60e51b81526020600482015260146024820152734e6f2066756e647320666f72207265776172647360601b6044820152606401610665565b61166f613464565b6001600160a01b03878116600090815260cf602052604081206004810180546001600160a01b031916938a169390931790925586825560019091018590555b835181101561176e5760cf6000896001600160a01b03166001600160a01b031681526020019081526020016000206002018482815181106116f1576116f1614497565b6020908102919091018101518254600181018455600093845282842001556001600160a01b038a16825260cf905260409020835160039091019084908390811061173d5761173d614497565b6020908102919091018101518254600181018455600093845291909220015580611766816144c3565b9150506116ae565b50604080516001600160a01b038881168252602082018890528916917fc6e5f1ee3138795eeda2fa0aab37379a177c4f04396146dd2b154ab55f5c5585910160405180910390a250505050505050565b33600090815260cc60209081526040808320805482518185028101850190935280835260609493849084015b8282101561183f576000848152602090819020604080516060810182526003860290920180546001600160a01b03168352600180820154848601526002909101549183019190915290835290920191016117ea565b5050505090506000805b82518110156119565733600090815260ca602052604081208451829086908590811061187757611877614497565b6020026020010151600001516001600160a01b03166001600160a01b0316815260200190815260200160002060008584815181106118b7576118b7614497565b6020908102919091018101518101518252818101929092526040908101600020815160e08101835281546001600160a01b031681526001820154938101939093526002810154918301919091526003810154606083015260048101546080830152600581015460a08301526006015460c0820181905290915015611943578261193f816144c3565b9350505b508061194e816144c3565b915050611849565b5060008167ffffffffffffffff81111561197257611972613f21565b6040519080825280602002602001820160405280156119ec57816020015b6119d96040518060e0016040528060006001600160a01b031681526020016000815260200160008152602001600081526020016000815260200160008152602001600081525090565b8152602001906001900390816119905790505b5090506000805b8451811015611b1f5733600090815260ca6020526040812086518290889085908110611a2157611a21614497565b6020026020010151600001516001600160a01b03166001600160a01b031681526020019081526020016000206000878481518110611a6157611a61614497565b6020908102919091018101518101518252818101929092526040908101600020815160e08101835281546001600160a01b031681526001820154938101939093526002810154918301919091526003810154606083015260048101546080830152600581015460a08301526006015460c0820181905290915015611b0c5780848481518110611af257611af2614497565b60200260200101819052508280611b08906144c3565b9350505b5080611b17816144c3565b9150506119f3565b5090949350505050565b6000805160206147b2833981519152611b428133613313565b611b4a613464565b6001600160a01b038216600090815260cf602052604081208181556001810182905590611b7a6002830182613d03565b611b88600383016000613d03565b5060040180546001600160a01b03191690556040516001600160a01b038316907fed93036dfb7e5500a2a7f2471a56e6b3389a8c28c72adca8ba9f6a4025ca6d5890600090a25050565b6000805160206147b2833981519152611beb8133613313565b6001600160a01b038516600090815260cf6020526040902054611c505760405162461bcd60e51b815260206004820152601d60248201527f5374616b696e6720636f6e66696720646f6573206e6f742065786973740000006044820152606401610665565b60008211611c705760405162461bcd60e51b815260040161066590614592565b428311611c8f5760405162461bcd60e51b8152600401610665906145da565b6040516370a0823160e01b81523060048201526000906001600160a01b038616906370a082319060240160206040518083038186803b158015611cd157600080fd5b505afa158015611ce5573d6000803e3d6000fd5b505050506040513d601f19601f82011682018060405250810190611d099190614504565b11611d4d5760405162461bcd60e51b81526020600482015260146024820152734e6f2066756e647320666f72207265776172647360601b6044820152606401610665565b611d55613464565b6001600160a01b03858116600081815260cf60209081526040918290206004810180546001600160a01b031916958a169586179055878155600181018790558251948552908401879052927f255d2940ab142f16cd2452c452fc20185bcbc341ce9c1646bc3d4feac9dc3371910160405180910390a2505050505050565b60335460ff1615611df65760405162461bcd60e51b815260040161066590614429565b6001600160a01b038216600090815260cf6020526040902054611e4b5760405162461bcd60e51b815260206004820152600d60248201526c496e76616c6964207374616b6560981b6044820152606401610665565b6001600160a01b038216600090815260cf6020526040902054421015611ead5760405162461bcd60e51b815260206004820152601760248201527614dd185ada5b99c81a185cc81b9bdd081cdd185c9d1959604a1b6044820152606401610665565b611eb7828261130a565b611f035760405162461bcd60e51b815260206004820152601f60248201527f5374616b696e67206973206e6f7420756e6c6f636b656420666f72206e6674006044820152606401610665565b604051632142170760e11b81526001600160a01b038316906342842e0e90611f3390339030908690600401614534565b600060405180830381600087803b158015611f4d57600080fd5b505af1158015611f61573d6000803e3d6000fd5b50505050611f92604051806060016040528060006001600160a01b0316815260200160008152602001600081525090565b6001600160a01b038316815260208101829052426040820152611fb43361352b565b611fbf60cd33613981565b5033600081815260cc6020908152604080832080546001808201835591855293839020865160039095020180546001600160a01b0319166001600160a01b039586161781558684015191810191909155858201516002909101555185815291861692917f5dac0c1b1112564a045ba943c9d50270893e8e826c49be8e7073adc713ab7bd7910160405180910390a3505050565b6000805160206147b283398151915261206b8133613313565b8251845114801561207d575081518351145b6120da5760405162461bcd60e51b815260206004820152602860248201527f416c6c20696e70757420617272617973206d757374206265207468652073616d6044820152670ca40d8cadccee8d60c31b6064820152608401610665565b60005b845181101561214e5761213c8582815181106120fb576120fb614497565b602002602001015185838151811061211557612115614497565b602002602001015185848151811061212f5761212f614497565b60200260200101516105e5565b80612146816144c3565b9150506120dd565b5050505050565b60006121618133613313565b612169613464565b6040516370a0823160e01b8152306004820152839083906001600160a01b038316906370a082319060240160206040518083038186803b1580156121ac57600080fd5b505afa1580156121c0573d6000803e3d6000fd5b505050506040513d601f19601f820116820180604052508101906121e49190614504565b10156122295760405162461bcd60e51b8152602060048201526014602482015273496e73756666696369656e742062616c616e636560601b6044820152606401610665565b6040516323b872dd60e01b81526001600160a01b038216906323b872dd9061225990309089908890600401614534565b602060405180830381600087803b15801561227357600080fd5b505af1158015612287573d6000803e3d6000fd5b505050506040513d601f19601f820116820180604052508101906122ab9190614558565b50836001600160a01b0316856001600160a01b03166122c73390565b6001600160a01b03167f74ed50f6a2a005dd31f4766fb60918c4a6728cb0da9eeb81b9526bc6da11ec0f8660405161230191815260200190565b60405180910390a45050505050565b33600090815260cc60205260409020805461235e5760405162461bcd60e51b815260206004820152600e60248201526d139bc81391951cc81cdd185ad95960921b6044820152606401610665565b805460009061236f9060019061451d565b67ffffffffffffffff81111561238757612387613f21565b6040519080825280602002602001820160405280156123e557816020015b6123d2604051806060016040528060006001600160a01b0316815260200160008152602001600081525090565b8152602001906001900390816123a55790505b50905060008060005b845481101561254a57866001600160a01b031685600001828154811061241657612416614497565b60009182526020909120600390910201546001600160a01b031614158061246357508585600001828154811061244e5761244e614497565b90600052602060002090600302016001015414155b1561253357845482106124a95760405162461bcd60e51b815260206004820152600e60248201526d139195081b9bdd081cdd185ad95960921b6044820152606401610665565b8460000181815481106124be576124be614497565b600091825260209182902060408051606081018252600390930290910180546001600160a01b0316835260018101549383019390935260029092015491810191909152845185908490811061251557612515614497565b6020026020010181905250818061252b906144c3565b925050612538565b600192505b80612542816144c3565b9150506123ee565b506125543361352b565b61255f846000613d21565b60005b83518110156125ed578460000184828151811061258157612581614497565b602090810291909101810151825460018082018555600094855293839020825160039092020180546001600160a01b0319166001600160a01b039092169190911781559181015192820192909255604090910151600290910155806125e5816144c3565b915050612562565b5083541580156125ff57506001840154155b8015612618575033600090815260d16020526040902054155b1561262a5761262860cd3361399d565b505b33600081815260ca602090815260408083206001600160a01b038b168085529083528184208a855290925280832080546001600160a01b0319168155600181018490556002810184905560038101849055600480820185905560058201859055600690910193909355516323b872dd60e01b815290926323b872dd926126b5923092918b9101614534565b600060405180830381600087803b1580156126cf57600080fd5b505af11580156126e3573d6000803e3d6000fd5b50505050856001600160a01b03166126f83390565b6001600160a01b03167fd8654fcc8cf5b36d30b3f5e4688fc78118e6d68de60b9994e09902268b57c3e38760405161273291815260200190565b60405180910390a3505050505050565b600061274e8133613313565b610847613464565b33600090815260cc60209081526040808320805482518185028101850190935280835260609492939192909184015b828210156127da576000848152602090819020604080516060810182526003860290920180546001600160a01b0316835260018082015484860152600290910154918301919091529083529092019101612785565b50505050905090565b60335460ff16156128065760405162461bcd60e51b815260040161066590614429565b6001600160a01b038216600090815260d06020526040812090612829848461130a565b905080156128795760405162461bcd60e51b815260206004820152601860248201527f5374616b696e6720616c726561647920756e6c6f636b656400000000000000006044820152606401610665565b6001600160a01b038416600090815260cf60205260409020546128d75760405162461bcd60e51b815260206004820152601660248201527514dd185ada5b99c81b9bdd0818dbdb999a59dd5c995960521b6044820152606401610665565b6001600160a01b038416600090815260cf60205260409020544210156129395760405162461bcd60e51b815260206004820152601760248201527614dd185ada5b99c81a185cc81b9bdd081cdd185c9d1959604a1b6044820152606401610665565b6001600160a01b03848116600090815260cf602052604090206004015416806323b872dd336000805260cb6020527f4239c2c8c3d9b94feb214b0f54d7c869ce1ceb63517be57644336cda4967a468546040516001600160e01b031960e085901b1681526129ac92913091600401614534565b602060405180830381600087803b1580156129c657600080fd5b505af11580156129da573d6000803e3d6000fd5b505050506040513d601f19601f820116820180604052508101906129fe9190614558565b5060c9548354600180860154604051630d126da960e11b81526001600160a01b038a81166004830152602482018a9052604482019490945260648101919091526084810191909152911690631a24db529060a401600060405180830381600087803b158015612a6c57600080fd5b505af1158015612a80573d6000803e3d6000fd5b50505050846001600160a01b0316612a953390565b6001600160a01b03167f051144eeaaad1c4ee6b1eab928f531a9daf1687b3e0f8db00dae3f5df8c285db86604051612acf91815260200190565b60405180910390a35050505050565b6000805160206147b2833981519152612af78133613313565b5060c980546001600160a01b0319166001600160a01b0392909216919091179055565b600082815260976020526040902060010154612b368133613313565b61063d83836133fd565b33600090815260ca602090815260408083206001600160a01b0386168452825280832084845290915290206005810154612bab5760405162461bcd60e51b815260206004820152600c60248201526b4e6f7420747261696e696e6760a01b6044820152606401610665565b42816006015411612bfe5760405162461bcd60e51b815260206004820152601960248201527f547261696e696e6720616c72656164792066696e6973686564000000000000006044820152606401610665565b612c073361352b565b600381015460048201546040805185815260208101939093528201524260608201526001600160a01b0384169033907fc9b7c59fa980251f7ca7eae784c953e8a9f49d617be6edca0b41264ea05cb16990608001610a15565b33600090815260d16020526040812054815b33600090815260cc6020526040902060010154811015612ce15733600090815260cc60205260409020600101805482908110612cb057612cb0614497565b90600052602060002090600202016001015482612ccd919061457a565b915080612cd9816144c3565b915050612c72565b5033600090815260cc60205260408120905b8154811015612ded576000826000018281548110612d1357612d13614497565b90600052602060002090600302016002015442612d30919061451d565b90506000612d94846000018481548110612d4c57612d4c614497565b600091825260209091206003909102015485546001600160a01b0390911690869086908110612d7d57612d7d614497565b906000526020600020906003020160010154611221565b90508162015180612da683600161457a565b612db890670de0b6b3a7640000614624565b612dc29190614643565b612dcc9190614624565b612dd6908661457a565b945050508080612de5906144c3565b915050612cf3565b509092915050565b60335460ff1615612e185760405162461bcd60e51b815260040161066590614429565b6001600160a01b038416600090815260cf602052604090208054612e7e5760405162461bcd60e51b815260206004820152601e60248201527f4e6f20747261696e696e672073657373696f6e20636f6e6669677572656400006044820152606401610665565b8054421015612ecf5760405162461bcd60e51b815260206004820152601c60248201527f547261696e696e6720686173206e6f74207374617274656420796574000000006044820152606401610665565b33600090815260ca602090815260408083206001600160a01b038916845282528083208784529091529020600581015415612f4c5760405162461bcd60e51b815260206004820152601f60248201527f547261696e696e6720697320616c726561647920696e2070726f6772657373006044820152606401610665565b6000612f588787610b06565b90506000815111612fab5760405162461bcd60e51b815260206004820152601e60248201527f4e6f20747261696e696e672073657373696f6e7320617661696c61626c6500006044820152606401610665565b6000805b8251811015612ff45785838281518110612fcb57612fcb614497565b60200260200101511415612fe25760019150612ff4565b80612fec816144c3565b915050612faf565b50806130425760405162461bcd60e51b815260206004820152601760248201527f496e76616c696420747261696e696e67206f7074696f6e0000000000000000006044820152606401610665565b60c95460405163537a724f60e11b81526000916001600160a01b03169063a6f4e49e90613079908c908c908c908c906004016144de565b60206040518083038186803b15801561309157600080fd5b505afa1580156130a5573d6000803e3d6000fd5b505050506040513d601f19601f820116820180604052508101906130c99190614504565b9050600060cb816130db84600161457a565b8152602001908152602001600020905085600101548260016130fd919061457a565b111561314b5760405162461bcd60e51b815260206004820152601e60248201527f45786365656473206d6178696d756d20747261696e696e67206c6576656c00006044820152606401610665565b80546131995760405162461bcd60e51b815260206004820152601d60248201527f547261696e696e67204c6576656c206973206e6f7420656e61626c65640000006044820152606401610665565b6131a23361352b565b60048681015482546040516323b872dd60e01b81526001600160a01b03909216926323b872dd926131d7923392309201614534565b602060405180830381600087803b1580156131f157600080fd5b505af1158015613205573d6000803e3d6000fd5b505050506040513d601f19601f820116820180604052508101906132299190614558565b5061323582600161457a565b600286015560038501889055600485018790554260058601819055600182015461325e9161457a565b600686015584546001600160a01b0319166001600160a01b038b169081178655600186018a9055336001600160a01b03167f98d1944772cc1ee399725448c633b3ec863f8be81e490479055d810afaa0225c8b8b8b6132be88600161457a565b60058c015460068d0154604080519687526020870195909552938501929092526060840152608083015260a082015260c00160405180910390a350505050505050505050565b6001600160a01b03163b151590565b61331d82826113cd565b61079f57613335816001600160a01b031660146139b2565b6133408360206139b2565b604051602001613351929190614691565b60408051601f198184030181529082905262461bcd60e51b825261066591600401614706565b61338182826113cd565b61079f5760008281526097602090815260408083206001600160a01b03851684529091529020805460ff191660011790556133b93390565b6001600160a01b0316816001600160a01b0316837f2f8788117e7eff1d82e926ec794901d17c78024a50270940304540a733656f0d60405160405180910390a45050565b61340782826113cd565b1561079f5760008281526097602090815260408083206001600160a01b0385168085529252808320805460ff1916905551339285917ff6391f5c32d9c69d2a47ea670b442974b53935d1edc7fd64eb21e047a839171b9190a45050565b60005b61347160cd613b4e565b8110156108475761348661091260cd83613b58565b80613490816144c3565b915050613467565b60335460ff166134e15760405162461bcd60e51b815260206004820152601460248201527314185d5cd8589b194e881b9bdd081c185d5cd95960621b6044820152606401610665565b6033805460ff191690557f5db9ee0a495bf2e6ff9c91a7834c1ba4fdd244a5e8aa4e537bd38aeae4b073aa335b6040516001600160a01b03909116815260200160405180910390a1565b6001600160a01b038116600090815260cc60205260408120905b815481101561063d57600082600001828154811061356557613565614497565b90600052602060002090600302016002015442613582919061451d565b9050600061359e846000018481548110612d4c57612d4c614497565b9050428460000184815481106135b6576135b6614497565b600091825260209091206002600390920201015581620151806135da83600161457a565b6135ec90670de0b6b3a7640000614624565b6135f69190614643565b6136009190614624565b6001600160a01b038616600090815260d160205260408120805490919061362890849061457a565b925050819055505050808061363c906144c3565b915050613545565b6001600160a01b038116600090815260cc6020908152604080832060d190925282205490915b60018301548110156136bc5782600101818154811061368b5761368b614497565b906000526020600020906002020160010154826136a8919061457a565b9150806136b4816144c3565b91505061366a565b506136cb600183016000613d42565b6001600160a01b038316600090815260d1602052604080822091909155516370a0823160e01b815230600482015273892d81221484f690c0a97d3dd18b9144a3ecdfb790829082906370a082319060240160206040518083038186803b15801561373457600080fd5b505afa158015613748573d6000803e3d6000fd5b505050506040513d601f19601f8201168201806040525081019061376c9190614504565b10156137ba5760405162461bcd60e51b815260206004820181905260248201527f496e73756666696369656e74207265776172647320696e20636f6e74726163746044820152606401610665565b60405163a9059cbb60e01b81526001600160a01b0385811660048301526024820184905282169063a9059cbb90604401602060405180830381600087803b15801561380457600080fd5b505af1158015613818573d6000803e3d6000fd5b505050506040513d601f19601f8201168201806040525081019061383c9190614558565b50806001600160a01b0316846001600160a01b03167ff7a40077ff7a04c7e61f6f26fb13774259ddf1b6bce9ecf26a8276cdd39926838460405161388291815260200190565b60405180910390a3825415801561389b57506001830154155b80156138bd57506001600160a01b038416600090815260d16020526040902054155b156138cd5761214e60cd8561399d565b50505050565b600054610100900460ff166138fa5760405162461bcd60e51b815260040161066590614739565b610b04613b64565b600054610100900460ff16610b045760405162461bcd60e51b815260040161066590614739565b60335460ff161561394c5760405162461bcd60e51b815260040161066590614429565b6033805460ff191660011790557f62e78cea01bee320cd4e420270b5ea74000d11b0c9f74754ebdbfc544b05a25861350e3390565b6000613996836001600160a01b038416613b97565b9392505050565b6000613996836001600160a01b038416613be6565b606060006139c1836002614624565b6139cc90600261457a565b67ffffffffffffffff8111156139e4576139e4613f21565b6040519080825280601f01601f191660200182016040528015613a0e576020820181803683370190505b509050600360fc1b81600081518110613a2957613a29614497565b60200101906001600160f81b031916908160001a905350600f60fb1b81600181518110613a5857613a58614497565b60200101906001600160f81b031916908160001a9053506000613a7c846002614624565b613a8790600161457a565b90505b6001811115613aff576f181899199a1a9b1b9c1cb0b131b232b360811b85600f1660108110613abb57613abb614497565b1a60f81b828281518110613ad157613ad1614497565b60200101906001600160f81b031916908160001a90535060049490941c93613af881614784565b9050613a8a565b5083156139965760405162461bcd60e51b815260206004820181905260248201527f537472696e67733a20686578206c656e67746820696e73756666696369656e746044820152606401610665565b60006105df825490565b60006139968383613cd9565b600054610100900460ff16613b8b5760405162461bcd60e51b815260040161066590614739565b6033805460ff19169055565b6000818152600183016020526040812054613bde575081546001818101845560008481526020808220909301849055845484825282860190935260409020919091556105df565b5060006105df565b60008181526001830160205260408120548015613ccf576000613c0a60018361451d565b8554909150600090613c1e9060019061451d565b9050818114613c83576000866000018281548110613c3e57613c3e614497565b9060005260206000200154905080876000018481548110613c6157613c61614497565b6000918252602080832090910192909255918252600188019052604090208390555b8554869080613c9457613c9461479b565b6001900381819060005260206000200160009055905585600101600086815260200190815260200160002060009055600193505050506105df565b60009150506105df565b6000826000018281548110613cf057613cf0614497565b9060005260206000200154905092915050565b50805460008255906000526020600020908101906108479190613d63565b50805460008255600302906000526020600020908101906108479190613d7c565b50805460008255600202906000526020600020908101906108479190613da9565b5b80821115613d785760008155600101613d64565b5090565b5b80821115613d785780546001600160a01b03191681556000600182018190556002820155600301613d7d565b5b80821115613d785780546001600160a01b031916815560006001820155600201613daa565b600060208284031215613de157600080fd5b81356001600160e01b03198116811461399657600080fd5b600080600060608486031215613e0e57600080fd5b505081359360208301359350604090920135919050565b80356001600160a01b0381168114613e3c57600080fd5b919050565b600080600080600060808688031215613e5957600080fd5b613e6286613e25565b9450613e7060208701613e25565b935060408601359250606086013567ffffffffffffffff80821115613e9457600080fd5b818801915088601f830112613ea857600080fd5b813581811115613eb757600080fd5b896020828501011115613ec957600080fd5b9699959850939650602001949392505050565b600060208284031215613eee57600080fd5b5035919050565b60008060408385031215613f0857600080fd5b82359150613f1860208401613e25565b90509250929050565b634e487b7160e01b600052604160045260246000fd5b604051601f8201601f1916810167ffffffffffffffff81118282101715613f6057613f60613f21565b604052919050565b600067ffffffffffffffff821115613f8257613f82613f21565b5060051b60200190565b600082601f830112613f9d57600080fd5b81356020613fb2613fad83613f68565b613f37565b82815260059290921b84018101918181019086841115613fd157600080fd5b8286015b84811015613fec5780358352918301918301613fd5565b509695505050505050565b6000806040838503121561400a57600080fd5b823567ffffffffffffffff8082111561402257600080fd5b818501915085601f83011261403657600080fd5b81356020614046613fad83613f68565b82815260059290921b8401810191818101908984111561406557600080fd5b948201945b8386101561408a5761407b86613e25565b8252948201949082019061406a565b965050860135925050808211156140a057600080fd5b506140ad85828601613f8c565b9150509250929050565b6000806000606084860312156140cc57600080fd5b6140d584613e25565b95602085013595506040909401359392505050565b600080604083850312156140fd57600080fd5b61410683613e25565b946020939093013593505050565b6020808252825182820181905260009190848201906040850190845b8181101561414c57835183529284019291840191600101614130565b50909695505050505050565b60008060006060848603121561416d57600080fd5b61417684613e25565b925061418460208501613e25565b9150604084013590509250925092565b60008060008060008060c087890312156141ad57600080fd5b6141b687613e25565b95506141c460208801613e25565b94506040870135935060608701359250608087013567ffffffffffffffff808211156141ef57600080fd5b6141fb8a838b01613f8c565b935060a089013591508082111561421157600080fd5b5061421e89828a01613f8c565b9150509295509295509295565b602080825282518282018190526000919060409081850190868401855b828110156142a957815180516001600160a01b0316855286810151878601528581015186860152606080820151908601526080808201519086015260a0808201519086015260c0908101519085015260e09093019290850190600101614248565b5091979650505050505050565b6000602082840312156142c857600080fd5b61399682613e25565b600080600080608085870312156142e757600080fd5b6142f085613e25565b93506142fe60208601613e25565b93969395505050506040820135916060013590565b60008060006060848603121561432857600080fd5b833567ffffffffffffffff8082111561434057600080fd5b61434c87838801613f8c565b9450602086013591508082111561436257600080fd5b61436e87838801613f8c565b9350604086013591508082111561438457600080fd5b5061439186828701613f8c565b9150509250925092565b602080825282518282018190526000919060409081850190868401855b828110156142a957815180516001600160a01b03168552868101518786015285015185850152606090930192908501906001016143b8565b6000806000806080858703121561440657600080fd5b61440f85613e25565b966020860135965060408601359560600135945092505050565b60208082526010908201526f14185d5cd8589b194e881c185d5cd95960821b604082015260600190565b60208082526024908201527f6164647265737320636f756e74206d757374206d6174636820746f6b656e20636040820152631bdd5b9d60e21b606082015260800190565b634e487b7160e01b600052603260045260246000fd5b634e487b7160e01b600052601160045260246000fd5b60006000198214156144d7576144d76144ad565b5060010190565b6001600160a01b0394909416845260208401929092526040830152606082015260800190565b60006020828403121561451657600080fd5b5051919050565b60008282101561452f5761452f6144ad565b500390565b6001600160a01b039384168152919092166020820152604081019190915260600190565b60006020828403121561456a57600080fd5b8151801515811461399657600080fd5b6000821982111561458d5761458d6144ad565b500190565b60208082526028908201527f6d6178506f696e7473506572536b696c6c206d75737420626520677265617465604082015267072207468616e20360c41b606082015260800190565b6020808252602a908201527f737461727454696d65206d7573742062652061206675747572652074696d6520604082015269696e207365636f6e647360b01b606082015260800190565b600081600019048311821515161561463e5761463e6144ad565b500290565b60008261466057634e487b7160e01b600052601260045260246000fd5b500490565b60005b83811015614680578181015183820152602001614668565b838111156138cd5750506000910152565b7f416363657373436f6e74726f6c3a206163636f756e74200000000000000000008152600083516146c9816017850160208801614665565b7001034b99036b4b9b9b4b733903937b6329607d1b60179184019182015283516146fa816028840160208801614665565b01602801949350505050565b6020815260008251806020840152614725816040850160208701614665565b601f01601f19169190910160400192915050565b6020808252602b908201527f496e697469616c697a61626c653a20636f6e7472616374206973206e6f74206960408201526a6e697469616c697a696e6760a81b606082015260800190565b600081614793576147936144ad565b506000190190565b634e487b7160e01b600052603160045260246000fdfe73e573f9566d61418a34d5de3ff49360f9c51fec37f7486551670290f6285dab65d7a28e3265b37a6474929f336521b332c1681b933f6cb9f3376673440d862aa264697066735822122077fb51964328464a74aff2dfbf71c36c8982b9b624ab056a9c9d89ffe0d92eb964736f6c63430008090033",
  "linkReferences": {},
  "deployedLinkReferences": {}
}