{
  "_format": "hh-sol-artifact-1",
  "contractName": "ProfessionStakingUpgradeable",
  "sourceName": "contracts/ProfessionStakingUpgradeable.sol",
  "abi": [
    {
      "inputs": [],
      "stateMutability": "nonpayable",
      "type": "constructor"
    },
    {
      "anonymous": false,
      "inputs": [
        {
          "indexed": true,
          "internalType": "address",
          "name": "by",
          "type": "address"
        },
        {
          "indexed": true,
          "internalType": "address",
          "name": "token",
          "type": "address"
        },
        {
          "indexed": false,
          "internalType": "uint256",
          "name": "amount",
          "type": "uint256"
        }
      ],
      "name": "Claimed",
      "type": "event"
    },
    {
      "anonymous": false,
      "inputs": [
        {
          "indexed": false,
          "internalType": "address",
          "name": "account",
          "type": "address"
        }
      ],
      "name": "Paused",
      "type": "event"
    },
    {
      "anonymous": false,
      "inputs": [
        {
          "indexed": true,
          "internalType": "address",
          "name": "from",
          "type": "address"
        },
        {
          "indexed": true,
          "internalType": "address",
          "name": "token",
          "type": "address"
        },
        {
          "indexed": false,
          "internalType": "uint256",
          "name": "amount",
          "type": "uint256"
        }
      ],
      "name": "PoolRewardsDeposited",
      "type": "event"
    },
    {
      "anonymous": false,
      "inputs": [
        {
          "indexed": true,
          "internalType": "address",
          "name": "by",
          "type": "address"
        },
        {
          "indexed": true,
          "internalType": "address",
          "name": "to",
          "type": "address"
        },
        {
          "indexed": true,
          "internalType": "address",
          "name": "token",
          "type": "address"
        },
        {
          "indexed": false,
          "internalType": "uint256",
          "name": "amount",
          "type": "uint256"
        }
      ],
      "name": "PoolRewardsWithdrawn",
      "type": "event"
    },
    {
      "anonymous": false,
      "inputs": [
        {
          "indexed": true,
          "internalType": "bytes32",
          "name": "role",
          "type": "bytes32"
        },
        {
          "indexed": true,
          "internalType": "bytes32",
          "name": "previousAdminRole",
          "type": "bytes32"
        },
        {
          "indexed": true,
          "internalType": "bytes32",
          "name": "newAdminRole",
          "type": "bytes32"
        }
      ],
      "name": "RoleAdminChanged",
      "type": "event"
    },
    {
      "anonymous": false,
      "inputs": [
        {
          "indexed": true,
          "internalType": "bytes32",
          "name": "role",
          "type": "bytes32"
        },
        {
          "indexed": true,
          "internalType": "address",
          "name": "account",
          "type": "address"
        },
        {
          "indexed": true,
          "internalType": "address",
          "name": "sender",
          "type": "address"
        }
      ],
      "name": "RoleGranted",
      "type": "event"
    },
    {
      "anonymous": false,
      "inputs": [
        {
          "indexed": true,
          "internalType": "bytes32",
          "name": "role",
          "type": "bytes32"
        },
        {
          "indexed": true,
          "internalType": "address",
          "name": "account",
          "type": "address"
        },
        {
          "indexed": true,
          "internalType": "address",
          "name": "sender",
          "type": "address"
        }
      ],
      "name": "RoleRevoked",
      "type": "event"
    },
    {
      "anonymous": false,
      "inputs": [
        {
          "indexed": true,
          "internalType": "address",
          "name": "from",
          "type": "address"
        },
        {
          "indexed": true,
          "internalType": "address",
          "name": "nftAddress",
          "type": "address"
        },
        {
          "indexed": false,
          "internalType": "uint256",
          "name": "tokenId",
          "type": "uint256"
        }
      ],
      "name": "Staked",
      "type": "event"
    },
    {
      "anonymous": false,
      "inputs": [
        {
          "indexed": true,
          "internalType": "address",
          "name": "nftAddress",
          "type": "address"
        },
        {
          "indexed": false,
          "internalType": "address",
          "name": "rewardToken",
          "type": "address"
        },
        {
          "indexed": false,
          "internalType": "uint256",
          "name": "startTime",
          "type": "uint256"
        }
      ],
      "name": "StakingConfigCreated",
      "type": "event"
    },
    {
      "anonymous": false,
      "inputs": [
        {
          "indexed": true,
          "internalType": "address",
          "name": "nftAddress",
          "type": "address"
        }
      ],
      "name": "StakingConfigDeleted",
      "type": "event"
    },
    {
      "anonymous": false,
      "inputs": [
        {
          "indexed": true,
          "internalType": "address",
          "name": "nftAddress",
          "type": "address"
        },
        {
          "indexed": false,
          "internalType": "address",
          "name": "rewardToken",
          "type": "address"
        },
        {
          "indexed": false,
          "internalType": "uint256",
          "name": "startTime",
          "type": "uint256"
        }
      ],
      "name": "StakingConfigUpdated",
      "type": "event"
    },
    {
      "anonymous": false,
      "inputs": [
        {
          "indexed": true,
          "internalType": "address",
          "name": "by",
          "type": "address"
        },
        {
          "indexed": true,
          "internalType": "address",
          "name": "nftAddress",
          "type": "address"
        },
        {
          "indexed": false,
          "internalType": "uint256",
          "name": "tokenId",
          "type": "uint256"
        }
      ],
      "name": "StakingUnlocked",
      "type": "event"
    },
    {
      "anonymous": false,
      "inputs": [
        {
          "indexed": true,
          "internalType": "address",
          "name": "by",
          "type": "address"
        },
        {
          "indexed": true,
          "internalType": "address",
          "name": "nftAddress",
          "type": "address"
        },
        {
          "indexed": false,
          "internalType": "uint256",
          "name": "tokenId",
          "type": "uint256"
        },
        {
          "indexed": false,
          "internalType": "uint256",
          "name": "treeId",
          "type": "uint256"
        },
        {
          "indexed": false,
          "internalType": "uint256",
          "name": "skillId",
          "type": "uint256"
        },
        {
          "indexed": false,
          "internalType": "uint256",
          "name": "canceledAt",
          "type": "uint256"
        }
      ],
      "name": "TrainingCanceled",
      "type": "event"
    },
    {
      "anonymous": false,
      "inputs": [
        {
          "indexed": true,
          "internalType": "address",
          "name": "by",
          "type": "address"
        },
        {
          "indexed": true,
          "internalType": "address",
          "name": "nftAddress",
          "type": "address"
        },
        {
          "indexed": false,
          "internalType": "uint256",
          "name": "tokenId",
          "type": "uint256"
        },
        {
          "indexed": false,
          "internalType": "uint256",
          "name": "treeId",
          "type": "uint256"
        },
        {
          "indexed": false,
          "internalType": "uint256",
          "name": "skillId",
          "type": "uint256"
        },
        {
          "indexed": false,
          "internalType": "uint256",
          "name": "level",
          "type": "uint256"
        }
      ],
      "name": "TrainingFinished",
      "type": "event"
    },
    {
      "anonymous": false,
      "inputs": [
        {
          "indexed": true,
          "internalType": "address",
          "name": "by",
          "type": "address"
        },
        {
          "indexed": true,
          "internalType": "address",
          "name": "nftAddress",
          "type": "address"
        },
        {
          "indexed": false,
          "internalType": "uint256",
          "name": "tokenId",
          "type": "uint256"
        },
        {
          "indexed": false,
          "internalType": "uint256",
          "name": "treeId",
          "type": "uint256"
        },
        {
          "indexed": false,
          "internalType": "uint256",
          "name": "skillId",
          "type": "uint256"
        },
        {
          "indexed": false,
          "internalType": "uint256",
          "name": "level",
          "type": "uint256"
        },
        {
          "indexed": false,
          "internalType": "uint256",
          "name": "startedAt",
          "type": "uint256"
        },
        {
          "indexed": false,
          "internalType": "uint256",
          "name": "completeAt",
          "type": "uint256"
        }
      ],
      "name": "TrainingStarted",
      "type": "event"
    },
    {
      "anonymous": false,
      "inputs": [
        {
          "indexed": false,
          "internalType": "address",
          "name": "account",
          "type": "address"
        }
      ],
      "name": "Unpaused",
      "type": "event"
    },
    {
      "anonymous": false,
      "inputs": [
        {
          "indexed": true,
          "internalType": "address",
          "name": "from",
          "type": "address"
        },
        {
          "indexed": true,
          "internalType": "address",
          "name": "nftAddress",
          "type": "address"
        },
        {
          "indexed": false,
          "internalType": "uint256",
          "name": "tokenId",
          "type": "uint256"
        }
      ],
      "name": "Unstaked",
      "type": "event"
    },
    {
      "inputs": [],
      "name": "DEFAULT_ADMIN_ROLE",
      "outputs": [
        {
          "internalType": "bytes32",
          "name": "",
          "type": "bytes32"
        }
      ],
      "stateMutability": "view",
      "type": "function"
    },
    {
      "inputs": [],
      "name": "GAME_STORAGE",
      "outputs": [
        {
          "internalType": "contract IGameStorageUpgradeable",
          "name": "",
          "type": "address"
        }
      ],
      "stateMutability": "view",
      "type": "function"
    },
    {
      "inputs": [],
      "name": "PAUSER_ROLE",
      "outputs": [
        {
          "internalType": "bytes32",
          "name": "",
          "type": "bytes32"
        }
      ],
      "stateMutability": "view",
      "type": "function"
    },
    {
      "inputs": [],
      "name": "UPDATER_ROLE",
      "outputs": [
        {
          "internalType": "bytes32",
          "name": "",
          "type": "bytes32"
        }
      ],
      "stateMutability": "view",
      "type": "function"
    },
    {
      "inputs": [
        {
          "internalType": "uint256[]",
          "name": "level",
          "type": "uint256[]"
        },
        {
          "internalType": "uint256[]",
          "name": "cost",
          "type": "uint256[]"
        },
        {
          "internalType": "uint256[]",
          "name": "time",
          "type": "uint256[]"
        }
      ],
      "name": "batchSetTrainingCosts",
      "outputs": [],
      "stateMutability": "nonpayable",
      "type": "function"
    },
    {
      "inputs": [
        {
          "internalType": "address[]",
          "name": "nftAddresses",
          "type": "address[]"
        },
        {
          "internalType": "uint256[]",
          "name": "tokenIds",
          "type": "uint256[]"
        }
      ],
      "name": "batchStake",
      "outputs": [],
      "stateMutability": "nonpayable",
      "type": "function"
    },
    {
      "inputs": [
        {
          "internalType": "address[]",
          "name": "nftAddresses",
          "type": "address[]"
        },
        {
          "internalType": "uint256[]",
          "name": "tokenIds",
          "type": "uint256[]"
        }
      ],
      "name": "batchUnstake",
      "outputs": [],
      "stateMutability": "nonpayable",
      "type": "function"
    },
    {
      "inputs": [
        {
          "internalType": "address",
          "name": "nftAddress",
          "type": "address"
        },
        {
          "internalType": "uint256",
          "name": "tokenId",
          "type": "uint256"
        }
      ],
      "name": "cancelTraining",
      "outputs": [],
      "stateMutability": "nonpayable",
      "type": "function"
    },
    {
      "inputs": [],
      "name": "claim",
      "outputs": [],
      "stateMutability": "nonpayable",
      "type": "function"
    },
    {
      "inputs": [
        {
          "internalType": "address",
          "name": "nftAddress",
          "type": "address"
        },
        {
          "internalType": "address",
          "name": "rewardToken",
          "type": "address"
        },
        {
          "internalType": "uint256",
          "name": "startTime",
          "type": "uint256"
        },
        {
          "internalType": "uint256",
          "name": "maxPointsPerSkill",
          "type": "uint256"
        },
        {
          "internalType": "uint256[]",
          "name": "treeIds",
          "type": "uint256[]"
        },
        {
          "internalType": "uint256[]",
          "name": "skillIds",
          "type": "uint256[]"
        }
      ],
      "name": "createStakingConfig",
      "outputs": [],
      "stateMutability": "nonpayable",
      "type": "function"
    },
    {
      "inputs": [
        {
          "internalType": "address",
          "name": "nftAddress",
          "type": "address"
        }
      ],
      "name": "deleteStakingConfig",
      "outputs": [],
      "stateMutability": "nonpayable",
      "type": "function"
    },
    {
      "inputs": [
        {
          "internalType": "address",
          "name": "token",
          "type": "address"
        },
        {
          "internalType": "uint256",
          "name": "amount",
          "type": "uint256"
        }
      ],
      "name": "depositPoolRewards",
      "outputs": [],
      "stateMutability": "nonpayable",
      "type": "function"
    },
    {
      "inputs": [
        {
          "internalType": "address",
          "name": "nftAddress",
          "type": "address"
        },
        {
          "internalType": "uint256",
          "name": "tokenId",
          "type": "uint256"
        }
      ],
      "name": "enableStaking",
      "outputs": [],
      "stateMutability": "nonpayable",
      "type": "function"
    },
    {
      "inputs": [
        {
          "internalType": "address",
          "name": "nftAddress",
          "type": "address"
        },
        {
          "internalType": "uint256",
          "name": "tokenId",
          "type": "uint256"
        }
      ],
      "name": "finishTraining",
      "outputs": [],
      "stateMutability": "nonpayable",
      "type": "function"
    },
    {
      "inputs": [],
      "name": "getActiveTraining",
      "outputs": [
        {
          "components": [
            {
              "internalType": "address",
              "name": "_address",
              "type": "address"
            },
            {
              "internalType": "uint256",
              "name": "tokenId",
              "type": "uint256"
            },
            {
              "internalType": "uint256",
              "name": "level",
              "type": "uint256"
            },
            {
              "internalType": "uint256",
              "name": "treeId",
              "type": "uint256"
            },
            {
              "internalType": "uint256",
              "name": "skillId",
              "type": "uint256"
            },
            {
              "internalType": "uint256",
              "name": "startedAt",
              "type": "uint256"
            },
            {
              "internalType": "uint256",
              "name": "completeAt",
              "type": "uint256"
            }
          ],
          "internalType": "struct ProfessionStakingUpgradeable.TrainingStatus[]",
          "name": "",
          "type": "tuple[]"
        }
      ],
      "stateMutability": "view",
      "type": "function"
    },
    {
      "inputs": [
        {
          "internalType": "address",
          "name": "nftAddress",
          "type": "address"
        },
        {
          "internalType": "uint256",
          "name": "tokenId",
          "type": "uint256"
        }
      ],
      "name": "getAllowedSkillChoices",
      "outputs": [
        {
          "internalType": "uint256[]",
          "name": "",
          "type": "uint256[]"
        }
      ],
      "stateMutability": "view",
      "type": "function"
    },
    {
      "inputs": [
        {
          "internalType": "bytes32",
          "name": "role",
          "type": "bytes32"
        }
      ],
      "name": "getRoleAdmin",
      "outputs": [
        {
          "internalType": "bytes32",
          "name": "",
          "type": "bytes32"
        }
      ],
      "stateMutability": "view",
      "type": "function"
    },
    {
      "inputs": [],
      "name": "getStaked",
      "outputs": [
        {
          "components": [
            {
              "internalType": "address",
              "name": "_address",
              "type": "address"
            },
            {
              "internalType": "uint256",
              "name": "tokenId",
              "type": "uint256"
            },
            {
              "internalType": "uint256",
              "name": "rewardFrom",
              "type": "uint256"
            }
          ],
          "internalType": "struct ProfessionStakingUpgradeable.NFT[]",
          "name": "",
          "type": "tuple[]"
        }
      ],
      "stateMutability": "view",
      "type": "function"
    },
    {
      "inputs": [
        {
          "internalType": "bytes32",
          "name": "role",
          "type": "bytes32"
        },
        {
          "internalType": "address",
          "name": "account",
          "type": "address"
        }
      ],
      "name": "grantRole",
      "outputs": [],
      "stateMutability": "nonpayable",
      "type": "function"
    },
    {
      "inputs": [
        {
          "internalType": "bytes32",
          "name": "role",
          "type": "bytes32"
        },
        {
          "internalType": "address",
          "name": "account",
          "type": "address"
        }
      ],
      "name": "hasRole",
      "outputs": [
        {
          "internalType": "bool",
          "name": "",
          "type": "bool"
        }
      ],
      "stateMutability": "view",
      "type": "function"
    },
    {
      "inputs": [],
      "name": "initialize",
      "outputs": [],
      "stateMutability": "nonpayable",
      "type": "function"
    },
    {
      "inputs": [
        {
          "internalType": "address",
          "name": "nftAddress",
          "type": "address"
        },
        {
          "internalType": "uint256",
          "name": "tokenId",
          "type": "uint256"
        }
      ],
      "name": "isStakingEnabled",
      "outputs": [
        {
          "internalType": "bool",
          "name": "",
          "type": "bool"
        }
      ],
      "stateMutability": "view",
      "type": "function"
    },
    {
      "inputs": [
        {
          "internalType": "address",
          "name": "operator",
          "type": "address"
        },
        {
          "internalType": "address",
          "name": "from",
          "type": "address"
        },
        {
          "internalType": "uint256",
          "name": "tokenId",
          "type": "uint256"
        },
        {
          "internalType": "bytes",
          "name": "data",
          "type": "bytes"
        }
      ],
      "name": "onERC721Received",
      "outputs": [
        {
          "internalType": "bytes4",
          "name": "",
          "type": "bytes4"
        }
      ],
      "stateMutability": "pure",
      "type": "function"
    },
    {
      "inputs": [],
      "name": "pause",
      "outputs": [],
      "stateMutability": "nonpayable",
      "type": "function"
    },
    {
      "inputs": [],
      "name": "paused",
      "outputs": [
        {
          "internalType": "bool",
          "name": "",
          "type": "bool"
        }
      ],
      "stateMutability": "view",
      "type": "function"
    },
    {
      "inputs": [],
      "name": "pendingRewards",
      "outputs": [
        {
          "internalType": "uint256",
          "name": "",
          "type": "uint256"
        }
      ],
      "stateMutability": "view",
      "type": "function"
    },
    {
      "inputs": [
        {
          "internalType": "bytes32",
          "name": "role",
          "type": "bytes32"
        },
        {
          "internalType": "address",
          "name": "account",
          "type": "address"
        }
      ],
      "name": "renounceRole",
      "outputs": [],
      "stateMutability": "nonpayable",
      "type": "function"
    },
    {
      "inputs": [
        {
          "internalType": "bytes32",
          "name": "role",
          "type": "bytes32"
        },
        {
          "internalType": "address",
          "name": "account",
          "type": "address"
        }
      ],
      "name": "revokeRole",
      "outputs": [],
      "stateMutability": "nonpayable",
      "type": "function"
    },
    {
      "inputs": [
        {
          "internalType": "address",
          "name": "_address",
          "type": "address"
        }
      ],
      "name": "setGameStorage",
      "outputs": [],
      "stateMutability": "nonpayable",
      "type": "function"
    },
    {
      "inputs": [
        {
          "internalType": "address",
          "name": "nftAddress",
          "type": "address"
        },
        {
          "internalType": "uint256",
          "name": "treeId",
          "type": "uint256"
        },
        {
          "internalType": "uint256",
          "name": "skillId",
          "type": "uint256"
        }
      ],
      "name": "setSkillPointer",
      "outputs": [],
      "stateMutability": "nonpayable",
      "type": "function"
    },
    {
      "inputs": [
        {
          "internalType": "uint256",
          "name": "level",
          "type": "uint256"
        },
        {
          "internalType": "uint256",
          "name": "cost",
          "type": "uint256"
        },
        {
          "internalType": "uint256",
          "name": "time",
          "type": "uint256"
        }
      ],
      "name": "setTrainingCost",
      "outputs": [],
      "stateMutability": "nonpayable",
      "type": "function"
    },
    {
      "inputs": [
        {
          "internalType": "address",
          "name": "nftAddress",
          "type": "address"
        },
        {
          "internalType": "uint256",
          "name": "tokenId",
          "type": "uint256"
        }
      ],
      "name": "stake",
      "outputs": [],
      "stateMutability": "nonpayable",
      "type": "function"
    },
    {
      "inputs": [
        {
          "internalType": "address",
          "name": "nftAddress",
          "type": "address"
        },
        {
          "internalType": "uint256",
          "name": "tokenId",
          "type": "uint256"
        },
        {
          "internalType": "uint256",
          "name": "treeId",
          "type": "uint256"
        },
        {
          "internalType": "uint256",
          "name": "skillId",
          "type": "uint256"
        }
      ],
      "name": "startTraining",
      "outputs": [],
      "stateMutability": "nonpayable",
      "type": "function"
    },
    {
      "inputs": [
        {
          "internalType": "bytes4",
          "name": "interfaceId",
          "type": "bytes4"
        }
      ],
      "name": "supportsInterface",
      "outputs": [
        {
          "internalType": "bool",
          "name": "",
          "type": "bool"
        }
      ],
      "stateMutability": "view",
      "type": "function"
    },
    {
      "inputs": [],
      "name": "unpause",
      "outputs": [],
      "stateMutability": "nonpayable",
      "type": "function"
    },
    {
      "inputs": [
        {
          "internalType": "address",
          "name": "nftAddress",
          "type": "address"
        },
        {
          "internalType": "uint256",
          "name": "tokenId",
          "type": "uint256"
        }
      ],
      "name": "unstake",
      "outputs": [],
      "stateMutability": "nonpayable",
      "type": "function"
    },
    {
      "inputs": [
        {
          "internalType": "address",
          "name": "nftAddress",
          "type": "address"
        },
        {
          "internalType": "address",
          "name": "rewardToken",
          "type": "address"
        },
        {
          "internalType": "uint256",
          "name": "startTime",
          "type": "uint256"
        },
        {
          "internalType": "uint256",
          "name": "maxPointsPerSkill",
          "type": "uint256"
        }
      ],
      "name": "updateStakingConfig",
      "outputs": [],
      "stateMutability": "nonpayable",
      "type": "function"
    },
    {
      "inputs": [
        {
          "internalType": "address",
          "name": "to",
          "type": "address"
        },
        {
          "internalType": "address",
          "name": "token",
          "type": "address"
        },
        {
          "internalType": "uint256",
          "name": "amount",
          "type": "uint256"
        }
      ],
      "name": "withdrawPoolRewards",
      "outputs": [],
      "stateMutability": "nonpayable",
      "type": "function"
    }
  ],
  "bytecode": "0x60806040523480156200001157600080fd5b50600054610100900460ff166200002f5760005460ff161562000039565b62000039620000de565b620000a15760405162461bcd60e51b815260206004820152602e60248201527f496e697469616c697a61626c653a20636f6e747261637420697320616c72656160448201526d191e481a5b9a5d1a585b1a5e995960921b606482015260840160405180910390fd5b600054610100900460ff16158015620000c4576000805461ffff19166101011790555b8015620000d7576000805461ff00191690555b506200010b565b6000620000f630620000fc60201b620030931760201c565b15905090565b6001600160a01b03163b151590565b6144da806200011b6000396000f3fe608060405234801561001057600080fd5b50600436106102325760003560e01c806386e8953d11610130578063bea64ba2116100b8578063d547741f1161007c578063d547741f14610509578063e62ccc9c1461051c578063e63ab1e91461052f578063eded3fda14610544578063fa5887ee1461054c57600080fd5b8063bea64ba2146104a8578063c2a672e0146104bb578063c59abf9f146104ce578063cc3f7b1c146104e3578063d3a13d42146104f657600080fd5b8063a217fddf116100ff578063a217fddf14610454578063a401344b1461045c578063abfc6e731461046f578063adc9772e14610482578063aed2151a1461049557600080fd5b806386e8953d1461040657806391d148541461041957806394a770661461042c5780639f8f60681461043f57600080fd5b80633d564e49116101be5780635a2d8800116101825780635a2d8800146103b85780635c975abb146103d85780637e5b5e5f146103e35780638129fc1c146103f65780638456cb59146103fe57600080fd5b80633d564e491461036d5780633f4ba83a1461038057806347e63380146103885780634cb12fee1461039d5780634e71d92d146103b057600080fd5b8063248a9ca311610205578063248a9ca3146102f05780632f2ff15d1461032157806332b95a6f1461033457806333820bac1461034757806336568abe1461035a57600080fd5b806301ffc9a7146102375780630ae7a4611461025f578063150b7a021461027457806323de54d8146102c5575b600080fd5b61024a610245366004613a7e565b61055f565b60405190151581526020015b60405180910390f35b61027261026d366004613aa8565b610596565b005b6102ac610282366004613af0565b7f150b7a023d4804d13e8c85fb27262cb750cf6ba9f9dd3bb30d90f482ceeb4b1f95945050505050565b6040516001600160e01b03199091168152602001610256565b60c9546102d8906001600160a01b031681565b6040516001600160a01b039091168152602001610256565b6103136102fe366004613b8b565b60009081526097602052604090206001015490565b604051908152602001610256565b61027261032f366004613ba4565b6105c8565b610272610342366004613ca6565b6105f3565b610272610355366004613d66565b61069a565b610272610368366004613ba4565b6106d6565b61027261037b366004613ca6565b610754565b6102726107cf565b61031360008051602061446583398151915281565b6102726103ab366004613d99565b6107fb565b610272610a36565b6103cb6103c6366004613d99565b610c48565b6040516102569190613dc3565b60335460ff1661024a565b6102726103f1366004613d99565b611125565b6102726111ec565b6102726112ef565b61024a610414366004613d99565b611318565b61024a610427366004613ba4565b6113db565b61027261043a366004613e07565b611406565b6104476117cc565b6040516102569190613e9e565b610313600081565b61027261046a366004613f29565b611b37565b61027261047d366004613f44565b611be0565b610272610490366004613d99565b611de1565b6102726104a3366004613f86565b612060565b6102726104b636600461400e565b612163565b6102726104c9366004613d99565b61231e565b6104d6612600565b604051610256919061404a565b6102726104f1366004613d99565b61268d565b610272610504366004613f29565b612988565b610272610517366004613ba4565b6129c4565b61027261052a366004613d99565b6129ea565b61031360008051602061448583398151915281565b610313612b0a565b61027261055a36600461409f565b612b84565b60006001600160e01b03198216637965db0b60e01b148061059057506301ffc9a760e01b6001600160e01b03198316145b92915050565b6000805160206144658339815191526105af81336130a2565b50600092835260cb602052604090922090815560010155565b6000828152609760205260409020600101546105e481336130a2565b6105ee8383613106565b505050565b60335460ff161561061f5760405162461bcd60e51b8152600401610616906140d8565b60405180910390fd5b80518251146106405760405162461bcd60e51b815260040161061690614102565b60005b82518110156105ee5761068883828151811061066157610661614146565b602002602001015183838151811061067b5761067b614146565b6020026020010151611de1565b8061069281614172565b915050610643565b6000805160206144658339815191526106b381336130a2565b506001600160a01b03909216600090815260d06020526040902090815560010155565b6001600160a01b03811633146107465760405162461bcd60e51b815260206004820152602f60248201527f416363657373436f6e74726f6c3a2063616e206f6e6c792072656e6f756e636560448201526e103937b632b9903337b91039b2b63360891b6064820152608401610616565b610750828261318c565b5050565b80518251146107755760405162461bcd60e51b815260040161061690614102565b60005b82518110156105ee576107bd83828151811061079657610796614146565b60200260200101518383815181106107b0576107b0614146565b602002602001015161231e565b806107c781614172565b915050610778565b6000805160206144858339815191526107e881336130a2565b6107f06131f3565b6107f8613227565b50565b33600090815260ca602090815260408083206001600160a01b03861684528252808320848452909152902060058101546108665760405162461bcd60e51b815260206004820152600c60248201526b4e6f7420747261696e696e6760a01b6044820152606401610616565b42816006015411156108ba5760405162461bcd60e51b815260206004820152601a60248201527f547261696e696e67207374696c6c20696e2070726f67726573730000000000006044820152606401610616565b6108c8336132ba565b6132ba565b60c95460038201546004808401546002850154604051630d126da960e11b81526001600160a01b03898116948201949094526024810188905260448101949094526064840191909152608483015290911690631a24db529060a401600060405180830381600087803b15801561093d57600080fd5b505af1158015610951573d6000803e3d6000fd5b50505050826001600160a01b03166109663390565b6001600160a01b03167f4cffb663b46d78e759211fc8a998ed5dd16066c4229b4b4e94bc0ff7431e85a8848460030154856004015486600201546040516109c6949392919093845260208401929092526040830152606082015260800190565b60405180910390a35033600090815260ca602090815260408083206001600160a01b039590951683529381528382209282529190915290812080546001600160a01b0319168155600181018290556002810182905560038101829055600481018290556005810182905560060155565b33600090815260cc602052604090206001810154610a895760405162461bcd60e51b815260206004820152601060248201526f4e6f7468696e6720746f20636c61696d60801b6044820152606401610616565b60005b6001820154811015610c16576000826001018281548110610aaf57610aaf614146565b60009182526020909120600290910201546001600160a01b03169050806323b872dd3033866001018681548110610ae857610ae8614146565b9060005260206000209060020201600101546040518463ffffffff1660e01b8152600401610b189392919061418d565b602060405180830381600087803b158015610b3257600080fd5b505af1158015610b46573d6000803e3d6000fd5b505050506040513d601f19601f82011682018060405250810190610b6a91906141b1565b50826001018281548110610b8057610b80614146565b60009182526020909120600290910201546001600160a01b0316336001600160a01b03167ff7a40077ff7a04c7e61f6f26fb13774259ddf1b6bce9ecf26a8276cdd3992683856001018581548110610bda57610bda614146565b906000526020600020906002020160010154604051610bfb91815260200190565b60405180910390a35080610c0e81614172565b915050610a8c565b50610c256001820160006139b2565b8054158015610c3657506001810154155b156107f857610750335b60cd90613580565b6001600160a01b038216600090815260cf60209081526040808320815160a08101835281548152600182015481850152600282018054845181870281018701865281815260609796939586019390929190830182828015610cc857602002820191906000526020600020905b815481526020019060010190808311610cb4575b5050505050815260200160038201805480602002602001604051908101604052809291908181526020018280548015610d2057602002820191906000526020600020905b815481526020019060010190808311610d0c575b5050509183525050600491909101546001600160a01b03166020909101528051909150610d8f5760405162461bcd60e51b815260206004820152601e60248201527f4e6f20747261696e696e672073657373696f6e20636f6e6669677572656400006044820152606401610616565b600081604001515167ffffffffffffffff811115610daf57610daf613bd0565b604051908082528060200260200182016040528015610dd8578160200160208202803683370190505b50905060008060005b846040015151811015610f475760c954604086015180516001600160a01b039092169163a6f4e49e918b918b919086908110610e1f57610e1f614146565b602002602001015189606001518681518110610e3d57610e3d614146565b60200260200101516040518563ffffffff1660e01b8152600401610e6494939291906141d3565b60206040518083038186803b158015610e7c57600080fd5b505afa158015610e90573d6000803e3d6000fd5b505050506040513d601f19601f82011682018060405250810190610eb491906141f9565b848281518110610ec657610ec6614146565b6020026020010181815250506000848281518110610ee657610ee6614146565b60200260200101511115610f025782610efe81614172565b9350505b8460200151848281518110610f1957610f19614146565b60200260200101511415610f355781610f3181614172565b9250505b80610f3f81614172565b915050610de1565b5081610f5b57505050606001519050610590565b8060021415610f7257506060935061059092505050565b60006001856040015151610f869190614212565b67ffffffffffffffff811115610f9e57610f9e613bd0565b604051908082528060200260200182016040528015610fc7578160200160208202803683370190505b5090506000805b855181101561111757836001148015610fe75750846001145b801561100c575085818151811061100057611000614146565b60200260200101516000145b1561104e578660600151818151811061102757611027614146565b602002602001015183838151811061104157611041614146565b6020026020010181815250505b600086828151811061106257611062614146565b60200260200101511180156110935750866020015186828151811061108957611089614146565b6020026020010151105b156111055760408051600180825281830190925260009160208083019080368337019050509050876060015182815181106110d0576110d0614146565b6020026020010151816000815181106110eb576110eb614146565b602090810291909101015297506105909650505050505050565b8061110f81614172565b915050610fce565b509098975050505050505050565b6040516323b872dd60e01b81526001600160a01b038316906323b872dd906111559033903090869060040161418d565b602060405180830381600087803b15801561116f57600080fd5b505af1158015611183573d6000803e3d6000fd5b505050506040513d601f19601f820116820180604052508101906111a791906141b1565b506040518181526001600160a01b0383169033907ffbed5bbbffe0fa857a9b62acaea1ea1c076828145e69464a9b483a477fb6b0009060200160405180910390a35050565b600054610100900460ff166112075760005460ff161561120b565b303b155b61126e5760405162461bcd60e51b815260206004820152602e60248201527f496e697469616c697a61626c653a20636f6e747261637420697320616c72656160448201526d191e481a5b9a5d1a585b1a5e995960921b6064820152608401610616565b600054610100900460ff16158015611290576000805461ffff19166101011790555b61129861359c565b6112a06135cd565b6112ab600033613106565b6112c360008051602061448583398151915233613106565b6112db60008051602061446583398151915233613106565b80156107f8576000805461ff001916905550565b60008051602061448583398151915261130881336130a2565b6113106131f3565b6107f86135f4565b6001600160a01b03808316600090815260d0602052604080822060c95481546001830154935163537a724f60e11b8152949592948694929093169263a6f4e49e9261136a928a928a92906004016141d3565b60206040518083038186803b15801561138257600080fd5b505afa158015611396573d6000803e3d6000fd5b505050506040513d601f19601f820116820180604052508101906113ba91906141f9565b905080600114156113d057600192505050610590565b506000949350505050565b60009182526097602090815260408084206001600160a01b0393909316845291905290205460ff1690565b60008051602061446583398151915261141f81336130a2565b6001600160a01b038716600090815260cf6020526040902054156114855760405162461bcd60e51b815260206004820152601d60248201527f5374616b696e6720636f6e66696720616c7265616479206578697374730000006044820152606401610616565b60008351116114ce5760405162461bcd60e51b81526020600482015260156024820152744d697373696e672074726565496420636f6e66696760581b6044820152606401610616565b60008251116115185760405162461bcd60e51b81526020600482015260166024820152754d697373696e6720736b696c6c496420636f6e66696760501b6044820152606401610616565b82518251146115785760405162461bcd60e51b815260206004820152602660248201527f5472656549647320616e6420536b696c6c49647320617272617973206d757374604482015265040dac2e8c6d60d31b6064820152608401610616565b600084116115985760405162461bcd60e51b815260040161061690614229565b4285116115b75760405162461bcd60e51b815260040161061690614271565b6040516370a0823160e01b81523060048201526000906001600160a01b038816906370a082319060240160206040518083038186803b1580156115f957600080fd5b505afa15801561160d573d6000803e3d6000fd5b505050506040513d601f19601f8201168201806040525081019061163191906141f9565b116116755760405162461bcd60e51b81526020600482015260146024820152734e6f2066756e647320666f72207265776172647360601b6044820152606401610616565b61167d6131f3565b6001600160a01b03878116600090815260cf602052604081206004810180546001600160a01b031916938a169390931790925586825560019091018590555b835181101561177c5760cf6000896001600160a01b03166001600160a01b031681526020019081526020016000206002018482815181106116ff576116ff614146565b6020908102919091018101518254600181018455600093845282842001556001600160a01b038a16825260cf905260409020835160039091019084908390811061174b5761174b614146565b602090810291909101810151825460018101845560009384529190922001558061177481614172565b9150506116bc565b50604080516001600160a01b038881168252602082018890528916917fc6e5f1ee3138795eeda2fa0aab37379a177c4f04396146dd2b154ab55f5c5585910160405180910390a250505050505050565b33600090815260cc60209081526040808320805482518185028101850190935280835260609493849084015b8282101561184d576000848152602090819020604080516060810182526003860290920180546001600160a01b03168352600180820154848601526002909101549183019190915290835290920191016117f8565b5050505090506000805b82518110156119645733600090815260ca602052604081208451829086908590811061188557611885614146565b6020026020010151600001516001600160a01b03166001600160a01b0316815260200190815260200160002060008584815181106118c5576118c5614146565b6020908102919091018101518101518252818101929092526040908101600020815160e08101835281546001600160a01b031681526001820154938101939093526002810154918301919091526003810154606083015260048101546080830152600581015460a08301526006015460c0820181905290915015611951578261194d81614172565b9350505b508061195c81614172565b915050611857565b5060008167ffffffffffffffff81111561198057611980613bd0565b6040519080825280602002602001820160405280156119fa57816020015b6119e76040518060e0016040528060006001600160a01b031681526020016000815260200160008152602001600081526020016000815260200160008152602001600081525090565b81526020019060019003908161199e5790505b5090506000805b8451811015611b2d5733600090815260ca6020526040812086518290889085908110611a2f57611a2f614146565b6020026020010151600001516001600160a01b03166001600160a01b031681526020019081526020016000206000878481518110611a6f57611a6f614146565b6020908102919091018101518101518252818101929092526040908101600020815160e08101835281546001600160a01b031681526001820154938101939093526002810154918301919091526003810154606083015260048101546080830152600581015460a08301526006015460c0820181905290915015611b1a5780848481518110611b0057611b00614146565b60200260200101819052508280611b1690614172565b9350505b5080611b2581614172565b915050611a01565b5090949350505050565b600080516020614465833981519152611b5081336130a2565b611b586131f3565b6001600160a01b038216600090815260cf602052604081208181556001810182905590611b8860028301826139d3565b611b966003830160006139d3565b5060040180546001600160a01b03191690556040516001600160a01b038316907fed93036dfb7e5500a2a7f2471a56e6b3389a8c28c72adca8ba9f6a4025ca6d5890600090a25050565b600080516020614465833981519152611bf981336130a2565b6001600160a01b038516600090815260cf6020526040902054611c5e5760405162461bcd60e51b815260206004820152601d60248201527f5374616b696e6720636f6e66696720646f6573206e6f742065786973740000006044820152606401610616565b60008211611c7e5760405162461bcd60e51b815260040161061690614229565b428311611c9d5760405162461bcd60e51b815260040161061690614271565b6040516370a0823160e01b81523060048201526000906001600160a01b038616906370a082319060240160206040518083038186803b158015611cdf57600080fd5b505afa158015611cf3573d6000803e3d6000fd5b505050506040513d601f19601f82011682018060405250810190611d1791906141f9565b11611d5b5760405162461bcd60e51b81526020600482015260146024820152734e6f2066756e647320666f72207265776172647360601b6044820152606401610616565b611d636131f3565b6001600160a01b03858116600081815260cf60209081526040918290206004810180546001600160a01b031916958a169586179055878155600181018790558251948552908401879052927f255d2940ab142f16cd2452c452fc20185bcbc341ce9c1646bc3d4feac9dc3371910160405180910390a2505050505050565b60335460ff1615611e045760405162461bcd60e51b8152600401610616906140d8565b6001600160a01b038216600090815260cf6020526040902054611e595760405162461bcd60e51b815260206004820152600d60248201526c496e76616c6964207374616b6560981b6044820152606401610616565b6001600160a01b038216600090815260cf6020526040902054421015611ebb5760405162461bcd60e51b815260206004820152601760248201527614dd185ada5b99c81a185cc81b9bdd081cdd185c9d1959604a1b6044820152606401610616565b611ec58282611318565b611f115760405162461bcd60e51b815260206004820152601f60248201527f5374616b696e67206973206e6f7420756e6c6f636b656420666f72206e6674006044820152606401610616565b604051632142170760e11b81526001600160a01b038316906342842e0e90611f419033903090869060040161418d565b600060405180830381600087803b158015611f5b57600080fd5b505af1158015611f6f573d6000803e3d6000fd5b50505050611fa0604051806060016040528060006001600160a01b0316815260200160008152602001600081525090565b6001600160a01b038316815260208101829052426040820152611fc2336132ba565b611fcd60cd3361364c565b5033600081815260cc6020908152604080832080546001808201835591855293839020865160039095020180546001600160a01b0319166001600160a01b039586161781558684015191810191909155858201516002909101555185815291861692917f5dac0c1b1112564a045ba943c9d50270893e8e826c49be8e7073adc713ab7bd7910160405180910390a3505050565b60008051602061446583398151915261207981336130a2565b8251845114801561208b575081518351145b6120e85760405162461bcd60e51b815260206004820152602860248201527f416c6c20696e70757420617272617973206d757374206265207468652073616d6044820152670ca40d8cadccee8d60c31b6064820152608401610616565b60005b845181101561215c5761214a85828151811061210957612109614146565b602002602001015185838151811061212357612123614146565b602002602001015185848151811061213d5761213d614146565b6020026020010151610596565b8061215481614172565b9150506120eb565b5050505050565b600061216f81336130a2565b6121776131f3565b6040516370a0823160e01b8152306004820152839083906001600160a01b038316906370a082319060240160206040518083038186803b1580156121ba57600080fd5b505afa1580156121ce573d6000803e3d6000fd5b505050506040513d601f19601f820116820180604052508101906121f291906141f9565b10156122375760405162461bcd60e51b8152602060048201526014602482015273496e73756666696369656e742062616c616e636560601b6044820152606401610616565b6040516323b872dd60e01b81526001600160a01b038216906323b872dd906122679030908990889060040161418d565b602060405180830381600087803b15801561228157600080fd5b505af1158015612295573d6000803e3d6000fd5b505050506040513d601f19601f820116820180604052508101906122b991906141b1565b50836001600160a01b0316856001600160a01b03166122d53390565b6001600160a01b03167f74ed50f6a2a005dd31f4766fb60918c4a6728cb0da9eeb81b9526bc6da11ec0f8660405161230f91815260200190565b60405180910390a45050505050565b33600090815260cc60205260408120906060905b825481101561242e57846001600160a01b031683600001828154811061235a5761235a614146565b60009182526020909120600390910201546001600160a01b03161415806123a757508383600001828154811061239257612392614146565b90600052602060002090600302016001015414155b1561241c578260000181815481106123c1576123c1614146565b600091825260209182902060408051606081018252600390930290910180546001600160a01b031683526001810154938301939093526002909201549181019190915282518390612410614146565b60200260200101819052505b8061242681614172565b915050612332565b50805161243c9060016142bb565b82541461247c5760405162461bcd60e51b815260206004820152600e60248201526d13999d081b9bdd081cdd185ad95960921b6044820152606401610616565b612485336132ba565b6124908260006139f1565b60005b8151811015612523578181815181106124ae576124ae614146565b60200260200101518360000182815481106124cb576124cb614146565b600091825260209182902083516003929092020180546001600160a01b0319166001600160a01b039092169190911781559082015160018201556040909101516002909101558061251b81614172565b915050612493565b50815415801561253557506001820154155b156125455761254333610c40565b505b604051632142170760e11b81526001600160a01b038516906342842e0e906125759030903390889060040161418d565b600060405180830381600087803b15801561258f57600080fd5b505af11580156125a3573d6000803e3d6000fd5b50505050836001600160a01b03166125b83390565b6001600160a01b03167fd8654fcc8cf5b36d30b3f5e4688fc78118e6d68de60b9994e09902268b57c3e3856040516125f291815260200190565b60405180910390a350505050565b33600090815260cc60209081526040808320805482518185028101850190935280835260609492939192909184015b82821015612684576000848152602090819020604080516060810182526003860290920180546001600160a01b031683526001808201548486015260029091015491830191909152908352909201910161262f565b50505050905090565b60335460ff16156126b05760405162461bcd60e51b8152600401610616906140d8565b6001600160a01b038216600090815260d060205260408120906126d38484611318565b905080156127235760405162461bcd60e51b815260206004820152601860248201527f5374616b696e6720616c726561647920756e6c6f636b656400000000000000006044820152606401610616565b6001600160a01b038416600090815260cf60205260409020546127815760405162461bcd60e51b815260206004820152601660248201527514dd185ada5b99c81b9bdd0818dbdb999a59dd5c995960521b6044820152606401610616565b6001600160a01b038416600090815260cf60205260409020544210156127e35760405162461bcd60e51b815260206004820152601760248201527614dd185ada5b99c81a185cc81b9bdd081cdd185c9d1959604a1b6044820152606401610616565b6001600160a01b03848116600090815260cf602052604090206004015416806323b872dd336000805260cb6020527f4239c2c8c3d9b94feb214b0f54d7c869ce1ceb63517be57644336cda4967a468546040516001600160e01b031960e085901b1681526128569291309160040161418d565b602060405180830381600087803b15801561287057600080fd5b505af1158015612884573d6000803e3d6000fd5b505050506040513d601f19601f820116820180604052508101906128a891906141b1565b5060c9548354600180860154604051630d126da960e11b81526001600160a01b038a81166004830152602482018a9052604482019490945260648101919091526084810191909152911690631a24db529060a401600060405180830381600087803b15801561291657600080fd5b505af115801561292a573d6000803e3d6000fd5b50505050846001600160a01b031661293f3390565b6001600160a01b03167f051144eeaaad1c4ee6b1eab928f531a9daf1687b3e0f8db00dae3f5df8c285db8660405161297991815260200190565b60405180910390a35050505050565b6000805160206144658339815191526129a181336130a2565b5060c980546001600160a01b0319166001600160a01b0392909216919091179055565b6000828152609760205260409020600101546129e081336130a2565b6105ee838361318c565b33600090815260ca602090815260408083206001600160a01b0386168452825280832084845290915290206005810154612a555760405162461bcd60e51b815260206004820152600c60248201526b4e6f7420747261696e696e6760a01b6044820152606401610616565b42816006015411612aa85760405162461bcd60e51b815260206004820152601960248201527f547261696e696e6720616c72656164792066696e6973686564000000000000006044820152606401610616565b612ab1336132ba565b600381015460048201546040805185815260208101939093528201524260608201526001600160a01b0384169033907fc9b7c59fa980251f7ca7eae784c953e8a9f49d617be6edca0b41264ea05cb169906080016109c6565b600080805b33600090815260cc6020526040902060010154811015612b7e5733600090815260cc60205260409020600101805482908110612b4d57612b4d614146565b90600052602060002090600202016001015482612b6a91906142bb565b915080612b7681614172565b915050612b0f565b50919050565b60335460ff1615612ba75760405162461bcd60e51b8152600401610616906140d8565b6001600160a01b038416600090815260cf602052604090208054612c0d5760405162461bcd60e51b815260206004820152601e60248201527f4e6f20747261696e696e672073657373696f6e20636f6e6669677572656400006044820152606401610616565b8054421015612c5e5760405162461bcd60e51b815260206004820152601c60248201527f547261696e696e6720686173206e6f74207374617274656420796574000000006044820152606401610616565b33600090815260ca602090815260408083206001600160a01b038916845282528083208784529091529020600581015415612cdb5760405162461bcd60e51b815260206004820152601f60248201527f547261696e696e6720697320616c726561647920696e2070726f6772657373006044820152606401610616565b6000612ce78787610c48565b90506000815111612d3a5760405162461bcd60e51b815260206004820152601e60248201527f4e6f20747261696e696e672073657373696f6e7320617661696c61626c6500006044820152606401610616565b6000805b8251811015612d835785838281518110612d5a57612d5a614146565b60200260200101511415612d715760019150612d83565b80612d7b81614172565b915050612d3e565b5080612dd15760405162461bcd60e51b815260206004820152601760248201527f496e76616c696420747261696e696e67206f7074696f6e0000000000000000006044820152606401610616565b60c95460405163537a724f60e11b81526000916001600160a01b03169063a6f4e49e90612e08908c908c908c908c906004016141d3565b60206040518083038186803b158015612e2057600080fd5b505afa158015612e34573d6000803e3d6000fd5b505050506040513d601f19601f82011682018060405250810190612e5891906141f9565b9050600060cb81612e6a8460016142bb565b815260200190815260200160002090508560010154826001612e8c91906142bb565b1115612eda5760405162461bcd60e51b815260206004820152601e60248201527f45786365656473206d6178696d756d20747261696e696e67206c6576656c00006044820152606401610616565b8054612f285760405162461bcd60e51b815260206004820152601d60248201527f547261696e696e67204c6576656c206973206e6f7420656e61626c65640000006044820152606401610616565b612f31336132ba565b60048681015482546040516323b872dd60e01b81526001600160a01b03909216926323b872dd92612f6692339230920161418d565b602060405180830381600087803b158015612f8057600080fd5b505af1158015612f94573d6000803e3d6000fd5b505050506040513d601f19601f82011682018060405250810190612fb891906141b1565b50612fc48260016142bb565b6002860155600385018890556004850187905542600586018190556001820154612fed916142bb565b600686015584546001600160a01b0319166001600160a01b038b169081178655600186018a9055336001600160a01b03167f98d1944772cc1ee399725448c633b3ec863f8be81e490479055d810afaa0225c8b8b8b61304d8860016142bb565b60058c015460068d0154604080519687526020870195909552938501929092526060840152608083015260a082015260c00160405180910390a350505050505050505050565b6001600160a01b03163b151590565b6130ac82826113db565b610750576130c4816001600160a01b03166014613661565b6130cf836020613661565b6040516020016130e0929190614303565b60408051601f198184030181529082905262461bcd60e51b825261061691600401614378565b61311082826113db565b6107505760008281526097602090815260408083206001600160a01b03851684529091529020805460ff191660011790556131483390565b6001600160a01b0316816001600160a01b0316837f2f8788117e7eff1d82e926ec794901d17c78024a50270940304540a733656f0d60405160405180910390a45050565b61319682826113db565b156107505760008281526097602090815260408083206001600160a01b0385168085529252808320805460ff1916905551339285917ff6391f5c32d9c69d2a47ea670b442974b53935d1edc7fd64eb21e047a839171b9190a45050565b60005b61320060cd6137fd565b8110156107f8576132156108c360cd83613807565b8061321f81614172565b9150506131f6565b60335460ff166132705760405162461bcd60e51b815260206004820152601460248201527314185d5cd8589b194e881b9bdd081c185d5cd95960621b6044820152606401610616565b6033805460ff191690557f5db9ee0a495bf2e6ff9c91a7834c1ba4fdd244a5e8aa4e537bd38aeae4b073aa335b6040516001600160a01b03909116815260200160405180910390a1565b6001600160a01b038116600090815260cc60205260408120905b81548110156105ee5760008260000182815481106132f4576132f4614146565b906000526020600020906003020160020154426133119190614212565b9050600060cf600085600001858154811061332e5761332e614146565b600091825260208083206003909202909101546001600160a01b0316835282019290925260400181209150805b60028301548110156134a05760c95486546001600160a01b039091169063a6f4e49e9088908890811061339057613390614146565b600091825260209091206003909102015488546001600160a01b03909116908990899081106133c1576133c1614146565b9060005260206000209060030201600101548660020185815481106133e8576133e8614146565b906000526020600020015487600301868154811061340857613408614146565b90600052602060002001546040518563ffffffff1660e01b815260040161343294939291906141d3565b60206040518083038186803b15801561344a57600080fd5b505afa15801561345e573d6000803e3d6000fd5b505050506040513d601f19601f8201168201806040525081019061348291906141f9565b61348c90836142bb565b91508061349881614172565b91505061335b565b50604080518082019091526000808252602082015283603c60186134c58560016142bb565b6134cf91906143ab565b6134d991906143ab565b6134e391906143cd565b602082015260048301546001600160a01b031681528554429087908790811061350e5761350e614146565b6000918252602080832060026003909302018201939093556001808a01805480830182559084529284902085519390920290910180546001600160a01b039093166001600160a01b0319909316929092178255929091015191015550829150613578905081614172565b9150506132d4565b6000613595836001600160a01b038416613813565b9392505050565b600054610100900460ff166135c35760405162461bcd60e51b8152600401610616906143ec565b6135cb613906565b565b600054610100900460ff166135cb5760405162461bcd60e51b8152600401610616906143ec565b60335460ff16156136175760405162461bcd60e51b8152600401610616906140d8565b6033805460ff191660011790557f62e78cea01bee320cd4e420270b5ea74000d11b0c9f74754ebdbfc544b05a25861329d3390565b6000613595836001600160a01b038416613939565b606060006136708360026143cd565b61367b9060026142bb565b67ffffffffffffffff81111561369357613693613bd0565b6040519080825280601f01601f1916602001820160405280156136bd576020820181803683370190505b509050600360fc1b816000815181106136d8576136d8614146565b60200101906001600160f81b031916908160001a905350600f60fb1b8160018151811061370757613707614146565b60200101906001600160f81b031916908160001a905350600061372b8460026143cd565b6137369060016142bb565b90505b60018111156137ae576f181899199a1a9b1b9c1cb0b131b232b360811b85600f166010811061376a5761376a614146565b1a60f81b82828151811061378057613780614146565b60200101906001600160f81b031916908160001a90535060049490941c936137a781614437565b9050613739565b5083156135955760405162461bcd60e51b815260206004820181905260248201527f537472696e67733a20686578206c656e67746820696e73756666696369656e746044820152606401610616565b6000610590825490565b60006135958383613988565b600081815260018301602052604081205480156138fc576000613837600183614212565b855490915060009061384b90600190614212565b90508181146138b057600086600001828154811061386b5761386b614146565b906000526020600020015490508087600001848154811061388e5761388e614146565b6000918252602080832090910192909255918252600188019052604090208390555b85548690806138c1576138c161444e565b600190038181906000526020600020016000905590558560010160008681526020019081526020016000206000905560019350505050610590565b6000915050610590565b600054610100900460ff1661392d5760405162461bcd60e51b8152600401610616906143ec565b6033805460ff19169055565b600081815260018301602052604081205461398057508154600181810184556000848152602080822090930184905584548482528286019093526040902091909155610590565b506000610590565b600082600001828154811061399f5761399f614146565b9060005260206000200154905092915050565b50805460008255600202906000526020600020908101906107f89190613a12565b50805460008255906000526020600020908101906107f89190613a3c565b50805460008255600302906000526020600020908101906107f89190613a51565b5b80821115613a385780546001600160a01b031916815560006001820155600201613a13565b5090565b5b80821115613a385760008155600101613a3d565b5b80821115613a385780546001600160a01b03191681556000600182018190556002820155600301613a52565b600060208284031215613a9057600080fd5b81356001600160e01b03198116811461359557600080fd5b600080600060608486031215613abd57600080fd5b505081359360208301359350604090920135919050565b80356001600160a01b0381168114613aeb57600080fd5b919050565b600080600080600060808688031215613b0857600080fd5b613b1186613ad4565b9450613b1f60208701613ad4565b935060408601359250606086013567ffffffffffffffff80821115613b4357600080fd5b818801915088601f830112613b5757600080fd5b813581811115613b6657600080fd5b896020828501011115613b7857600080fd5b9699959850939650602001949392505050565b600060208284031215613b9d57600080fd5b5035919050565b60008060408385031215613bb757600080fd5b82359150613bc760208401613ad4565b90509250929050565b634e487b7160e01b600052604160045260246000fd5b604051601f8201601f1916810167ffffffffffffffff81118282101715613c0f57613c0f613bd0565b604052919050565b600067ffffffffffffffff821115613c3157613c31613bd0565b5060051b60200190565b600082601f830112613c4c57600080fd5b81356020613c61613c5c83613c17565b613be6565b82815260059290921b84018101918181019086841115613c8057600080fd5b8286015b84811015613c9b5780358352918301918301613c84565b509695505050505050565b60008060408385031215613cb957600080fd5b823567ffffffffffffffff80821115613cd157600080fd5b818501915085601f830112613ce557600080fd5b81356020613cf5613c5c83613c17565b82815260059290921b84018101918181019089841115613d1457600080fd5b948201945b83861015613d3957613d2a86613ad4565b82529482019490820190613d19565b96505086013592505080821115613d4f57600080fd5b50613d5c85828601613c3b565b9150509250929050565b600080600060608486031215613d7b57600080fd5b613d8484613ad4565b95602085013595506040909401359392505050565b60008060408385031215613dac57600080fd5b613db583613ad4565b946020939093013593505050565b6020808252825182820181905260009190848201906040850190845b81811015613dfb57835183529284019291840191600101613ddf565b50909695505050505050565b60008060008060008060c08789031215613e2057600080fd5b613e2987613ad4565b9550613e3760208801613ad4565b94506040870135935060608701359250608087013567ffffffffffffffff80821115613e6257600080fd5b613e6e8a838b01613c3b565b935060a0890135915080821115613e8457600080fd5b50613e9189828a01613c3b565b9150509295509295509295565b602080825282518282018190526000919060409081850190868401855b82811015613f1c57815180516001600160a01b0316855286810151878601528581015186860152606080820151908601526080808201519086015260a0808201519086015260c0908101519085015260e09093019290850190600101613ebb565b5091979650505050505050565b600060208284031215613f3b57600080fd5b61359582613ad4565b60008060008060808587031215613f5a57600080fd5b613f6385613ad4565b9350613f7160208601613ad4565b93969395505050506040820135916060013590565b600080600060608486031215613f9b57600080fd5b833567ffffffffffffffff80821115613fb357600080fd5b613fbf87838801613c3b565b94506020860135915080821115613fd557600080fd5b613fe187838801613c3b565b93506040860135915080821115613ff757600080fd5b5061400486828701613c3b565b9150509250925092565b60008060006060848603121561402357600080fd5b61402c84613ad4565b925061403a60208501613ad4565b9150604084013590509250925092565b602080825282518282018190526000919060409081850190868401855b82811015613f1c57815180516001600160a01b0316855286810151878601528501518585015260609093019290850190600101614067565b600080600080608085870312156140b557600080fd5b6140be85613ad4565b966020860135965060408601359560600135945092505050565b60208082526010908201526f14185d5cd8589b194e881c185d5cd95960821b604082015260600190565b60208082526024908201527f6164647265737320636f756e74206d757374206d6174636820746f6b656e20636040820152631bdd5b9d60e21b606082015260800190565b634e487b7160e01b600052603260045260246000fd5b634e487b7160e01b600052601160045260246000fd5b60006000198214156141865761418661415c565b5060010190565b6001600160a01b039384168152919092166020820152604081019190915260600190565b6000602082840312156141c357600080fd5b8151801515811461359557600080fd5b6001600160a01b0394909416845260208401929092526040830152606082015260800190565b60006020828403121561420b57600080fd5b5051919050565b6000828210156142245761422461415c565b500390565b60208082526028908201527f6d6178506f696e7473506572536b696c6c206d75737420626520677265617465604082015267072207468616e20360c41b606082015260800190565b6020808252602a908201527f737461727454696d65206d7573742062652061206675747572652074696d6520604082015269696e207365636f6e647360b01b606082015260800190565b600082198211156142ce576142ce61415c565b500190565b60005b838110156142ee5781810151838201526020016142d6565b838111156142fd576000848401525b50505050565b7f416363657373436f6e74726f6c3a206163636f756e742000000000000000000081526000835161433b8160178501602088016142d3565b7001034b99036b4b9b9b4b733903937b6329607d1b601791840191820152835161436c8160288401602088016142d3565b01602801949350505050565b60208152600082518060208401526143978160408501602087016142d3565b601f01601f19169190910160400192915050565b6000826143c857634e487b7160e01b600052601260045260246000fd5b500490565b60008160001904831182151516156143e7576143e761415c565b500290565b6020808252602b908201527f496e697469616c697a61626c653a20636f6e7472616374206973206e6f74206960408201526a6e697469616c697a696e6760a81b606082015260800190565b6000816144465761444661415c565b506000190190565b634e487b7160e01b600052603160045260246000fdfe73e573f9566d61418a34d5de3ff49360f9c51fec37f7486551670290f6285dab65d7a28e3265b37a6474929f336521b332c1681b933f6cb9f3376673440d862aa26469706673582212207d337ec0a61b4da8d17801cf58b6a3153019747fadbda14a71560fc4305682da64736f6c63430008090033",
  "linkReferences": {},
  "deployedLinkReferences": {}
}