{
  "_format": "hh-sol-artifact-1",
  "contractName": "ProfessionStakingUpgradeable",
  "sourceName": "contracts/ProfessionStakingUpgradeable.sol",
  "abi": [
    {
      "inputs": [],
      "stateMutability": "nonpayable",
      "type": "constructor"
    },
    {
      "anonymous": false,
      "inputs": [
        {
          "indexed": true,
          "internalType": "address",
          "name": "by",
          "type": "address"
        },
        {
          "indexed": true,
          "internalType": "address",
          "name": "token",
          "type": "address"
        },
        {
          "indexed": false,
          "internalType": "uint256",
          "name": "amount",
          "type": "uint256"
        }
      ],
      "name": "Claimed",
      "type": "event"
    },
    {
      "anonymous": false,
      "inputs": [
        {
          "indexed": false,
          "internalType": "address",
          "name": "account",
          "type": "address"
        }
      ],
      "name": "Paused",
      "type": "event"
    },
    {
      "anonymous": false,
      "inputs": [
        {
          "indexed": true,
          "internalType": "address",
          "name": "from",
          "type": "address"
        },
        {
          "indexed": true,
          "internalType": "address",
          "name": "token",
          "type": "address"
        },
        {
          "indexed": false,
          "internalType": "uint256",
          "name": "amount",
          "type": "uint256"
        }
      ],
      "name": "PoolRewardsDeposited",
      "type": "event"
    },
    {
      "anonymous": false,
      "inputs": [
        {
          "indexed": true,
          "internalType": "address",
          "name": "by",
          "type": "address"
        },
        {
          "indexed": true,
          "internalType": "address",
          "name": "to",
          "type": "address"
        },
        {
          "indexed": true,
          "internalType": "address",
          "name": "token",
          "type": "address"
        },
        {
          "indexed": false,
          "internalType": "uint256",
          "name": "amount",
          "type": "uint256"
        }
      ],
      "name": "PoolRewardsWithdrawn",
      "type": "event"
    },
    {
      "anonymous": false,
      "inputs": [
        {
          "indexed": true,
          "internalType": "bytes32",
          "name": "role",
          "type": "bytes32"
        },
        {
          "indexed": true,
          "internalType": "bytes32",
          "name": "previousAdminRole",
          "type": "bytes32"
        },
        {
          "indexed": true,
          "internalType": "bytes32",
          "name": "newAdminRole",
          "type": "bytes32"
        }
      ],
      "name": "RoleAdminChanged",
      "type": "event"
    },
    {
      "anonymous": false,
      "inputs": [
        {
          "indexed": true,
          "internalType": "bytes32",
          "name": "role",
          "type": "bytes32"
        },
        {
          "indexed": true,
          "internalType": "address",
          "name": "account",
          "type": "address"
        },
        {
          "indexed": true,
          "internalType": "address",
          "name": "sender",
          "type": "address"
        }
      ],
      "name": "RoleGranted",
      "type": "event"
    },
    {
      "anonymous": false,
      "inputs": [
        {
          "indexed": true,
          "internalType": "bytes32",
          "name": "role",
          "type": "bytes32"
        },
        {
          "indexed": true,
          "internalType": "address",
          "name": "account",
          "type": "address"
        },
        {
          "indexed": true,
          "internalType": "address",
          "name": "sender",
          "type": "address"
        }
      ],
      "name": "RoleRevoked",
      "type": "event"
    },
    {
      "anonymous": false,
      "inputs": [
        {
          "indexed": true,
          "internalType": "address",
          "name": "from",
          "type": "address"
        },
        {
          "indexed": true,
          "internalType": "address",
          "name": "nftAddress",
          "type": "address"
        },
        {
          "indexed": false,
          "internalType": "uint256",
          "name": "tokenId",
          "type": "uint256"
        }
      ],
      "name": "Staked",
      "type": "event"
    },
    {
      "anonymous": false,
      "inputs": [
        {
          "indexed": true,
          "internalType": "address",
          "name": "nftAddress",
          "type": "address"
        },
        {
          "indexed": false,
          "internalType": "address",
          "name": "rewardToken",
          "type": "address"
        },
        {
          "indexed": false,
          "internalType": "uint256",
          "name": "startTime",
          "type": "uint256"
        }
      ],
      "name": "StakingConfigCreated",
      "type": "event"
    },
    {
      "anonymous": false,
      "inputs": [
        {
          "indexed": true,
          "internalType": "address",
          "name": "nftAddress",
          "type": "address"
        }
      ],
      "name": "StakingConfigDeleted",
      "type": "event"
    },
    {
      "anonymous": false,
      "inputs": [
        {
          "indexed": true,
          "internalType": "address",
          "name": "nftAddress",
          "type": "address"
        },
        {
          "indexed": false,
          "internalType": "address",
          "name": "rewardToken",
          "type": "address"
        },
        {
          "indexed": false,
          "internalType": "uint256",
          "name": "startTime",
          "type": "uint256"
        }
      ],
      "name": "StakingConfigUpdated",
      "type": "event"
    },
    {
      "anonymous": false,
      "inputs": [
        {
          "indexed": true,
          "internalType": "address",
          "name": "by",
          "type": "address"
        },
        {
          "indexed": true,
          "internalType": "address",
          "name": "nftAddress",
          "type": "address"
        },
        {
          "indexed": false,
          "internalType": "uint256",
          "name": "tokenId",
          "type": "uint256"
        }
      ],
      "name": "StakingUnlocked",
      "type": "event"
    },
    {
      "anonymous": false,
      "inputs": [
        {
          "indexed": true,
          "internalType": "address",
          "name": "by",
          "type": "address"
        },
        {
          "indexed": true,
          "internalType": "address",
          "name": "nftAddress",
          "type": "address"
        },
        {
          "indexed": false,
          "internalType": "uint256",
          "name": "tokenId",
          "type": "uint256"
        },
        {
          "indexed": false,
          "internalType": "uint256",
          "name": "treeId",
          "type": "uint256"
        },
        {
          "indexed": false,
          "internalType": "uint256",
          "name": "skillId",
          "type": "uint256"
        },
        {
          "indexed": false,
          "internalType": "uint256",
          "name": "canceledAt",
          "type": "uint256"
        }
      ],
      "name": "TrainingCanceled",
      "type": "event"
    },
    {
      "anonymous": false,
      "inputs": [
        {
          "indexed": true,
          "internalType": "address",
          "name": "by",
          "type": "address"
        },
        {
          "indexed": true,
          "internalType": "address",
          "name": "nftAddress",
          "type": "address"
        },
        {
          "indexed": false,
          "internalType": "uint256",
          "name": "tokenId",
          "type": "uint256"
        },
        {
          "indexed": false,
          "internalType": "uint256",
          "name": "treeId",
          "type": "uint256"
        },
        {
          "indexed": false,
          "internalType": "uint256",
          "name": "skillId",
          "type": "uint256"
        },
        {
          "indexed": false,
          "internalType": "uint256",
          "name": "level",
          "type": "uint256"
        }
      ],
      "name": "TrainingFinished",
      "type": "event"
    },
    {
      "anonymous": false,
      "inputs": [
        {
          "indexed": true,
          "internalType": "address",
          "name": "by",
          "type": "address"
        },
        {
          "indexed": true,
          "internalType": "address",
          "name": "nftAddress",
          "type": "address"
        },
        {
          "indexed": false,
          "internalType": "uint256",
          "name": "tokenId",
          "type": "uint256"
        },
        {
          "indexed": false,
          "internalType": "uint256",
          "name": "treeId",
          "type": "uint256"
        },
        {
          "indexed": false,
          "internalType": "uint256",
          "name": "skillId",
          "type": "uint256"
        },
        {
          "indexed": false,
          "internalType": "uint256",
          "name": "level",
          "type": "uint256"
        },
        {
          "indexed": false,
          "internalType": "uint256",
          "name": "startedAt",
          "type": "uint256"
        },
        {
          "indexed": false,
          "internalType": "uint256",
          "name": "completeAt",
          "type": "uint256"
        }
      ],
      "name": "TrainingStarted",
      "type": "event"
    },
    {
      "anonymous": false,
      "inputs": [
        {
          "indexed": false,
          "internalType": "address",
          "name": "account",
          "type": "address"
        }
      ],
      "name": "Unpaused",
      "type": "event"
    },
    {
      "anonymous": false,
      "inputs": [
        {
          "indexed": true,
          "internalType": "address",
          "name": "from",
          "type": "address"
        },
        {
          "indexed": true,
          "internalType": "address",
          "name": "nftAddress",
          "type": "address"
        },
        {
          "indexed": false,
          "internalType": "uint256",
          "name": "tokenId",
          "type": "uint256"
        }
      ],
      "name": "Unstaked",
      "type": "event"
    },
    {
      "inputs": [],
      "name": "DEFAULT_ADMIN_ROLE",
      "outputs": [
        {
          "internalType": "bytes32",
          "name": "",
          "type": "bytes32"
        }
      ],
      "stateMutability": "view",
      "type": "function"
    },
    {
      "inputs": [],
      "name": "GAME_STORAGE",
      "outputs": [
        {
          "internalType": "contract IGameStorageUpgradeable",
          "name": "",
          "type": "address"
        }
      ],
      "stateMutability": "view",
      "type": "function"
    },
    {
      "inputs": [],
      "name": "PAUSER_ROLE",
      "outputs": [
        {
          "internalType": "bytes32",
          "name": "",
          "type": "bytes32"
        }
      ],
      "stateMutability": "view",
      "type": "function"
    },
    {
      "inputs": [],
      "name": "UPDATER_ROLE",
      "outputs": [
        {
          "internalType": "bytes32",
          "name": "",
          "type": "bytes32"
        }
      ],
      "stateMutability": "view",
      "type": "function"
    },
    {
      "inputs": [
        {
          "internalType": "address[]",
          "name": "nftAddresses",
          "type": "address[]"
        },
        {
          "internalType": "uint256[]",
          "name": "tokenIds",
          "type": "uint256[]"
        }
      ],
      "name": "batchCancelTraining",
      "outputs": [],
      "stateMutability": "nonpayable",
      "type": "function"
    },
    {
      "inputs": [
        {
          "internalType": "address[]",
          "name": "nftAddresses",
          "type": "address[]"
        },
        {
          "internalType": "uint256[]",
          "name": "tokenIds",
          "type": "uint256[]"
        }
      ],
      "name": "batchEnableStaking",
      "outputs": [],
      "stateMutability": "nonpayable",
      "type": "function"
    },
    {
      "inputs": [
        {
          "internalType": "address[]",
          "name": "nftAddresses",
          "type": "address[]"
        },
        {
          "internalType": "uint256[]",
          "name": "tokenIds",
          "type": "uint256[]"
        }
      ],
      "name": "batchFinishTraining",
      "outputs": [],
      "stateMutability": "nonpayable",
      "type": "function"
    },
    {
      "inputs": [
        {
          "internalType": "uint256[]",
          "name": "level",
          "type": "uint256[]"
        },
        {
          "internalType": "uint256[]",
          "name": "cost",
          "type": "uint256[]"
        },
        {
          "internalType": "uint256[]",
          "name": "time",
          "type": "uint256[]"
        }
      ],
      "name": "batchSetTrainingCosts",
      "outputs": [],
      "stateMutability": "nonpayable",
      "type": "function"
    },
    {
      "inputs": [
        {
          "internalType": "address[]",
          "name": "nftAddresses",
          "type": "address[]"
        },
        {
          "internalType": "uint256[]",
          "name": "tokenIds",
          "type": "uint256[]"
        }
      ],
      "name": "batchStake",
      "outputs": [],
      "stateMutability": "nonpayable",
      "type": "function"
    },
    {
      "inputs": [
        {
          "internalType": "address[]",
          "name": "nftAddresses",
          "type": "address[]"
        },
        {
          "internalType": "uint256[]",
          "name": "tokenIds",
          "type": "uint256[]"
        },
        {
          "internalType": "uint256[]",
          "name": "treeIds",
          "type": "uint256[]"
        },
        {
          "internalType": "uint256[]",
          "name": "skillIds",
          "type": "uint256[]"
        }
      ],
      "name": "batchStartTraining",
      "outputs": [],
      "stateMutability": "nonpayable",
      "type": "function"
    },
    {
      "inputs": [
        {
          "internalType": "address[]",
          "name": "nftAddresses",
          "type": "address[]"
        },
        {
          "internalType": "uint256[]",
          "name": "tokenIds",
          "type": "uint256[]"
        }
      ],
      "name": "batchUnstake",
      "outputs": [],
      "stateMutability": "nonpayable",
      "type": "function"
    },
    {
      "inputs": [
        {
          "internalType": "address",
          "name": "nftAddress",
          "type": "address"
        },
        {
          "internalType": "uint256",
          "name": "tokenId",
          "type": "uint256"
        }
      ],
      "name": "cancelTraining",
      "outputs": [],
      "stateMutability": "nonpayable",
      "type": "function"
    },
    {
      "inputs": [],
      "name": "claim",
      "outputs": [],
      "stateMutability": "nonpayable",
      "type": "function"
    },
    {
      "inputs": [
        {
          "internalType": "address",
          "name": "nftAddress",
          "type": "address"
        },
        {
          "internalType": "address",
          "name": "rewardToken",
          "type": "address"
        },
        {
          "internalType": "uint256",
          "name": "startTime",
          "type": "uint256"
        },
        {
          "internalType": "uint256",
          "name": "maxPointsPerSkill",
          "type": "uint256"
        },
        {
          "internalType": "uint256[]",
          "name": "treeIds",
          "type": "uint256[]"
        },
        {
          "internalType": "uint256[]",
          "name": "skillIds",
          "type": "uint256[]"
        }
      ],
      "name": "createStakingConfig",
      "outputs": [],
      "stateMutability": "nonpayable",
      "type": "function"
    },
    {
      "inputs": [
        {
          "internalType": "address",
          "name": "nftAddress",
          "type": "address"
        }
      ],
      "name": "deleteStakingConfig",
      "outputs": [],
      "stateMutability": "nonpayable",
      "type": "function"
    },
    {
      "inputs": [
        {
          "internalType": "address",
          "name": "token",
          "type": "address"
        },
        {
          "internalType": "uint256",
          "name": "amount",
          "type": "uint256"
        }
      ],
      "name": "depositPoolRewards",
      "outputs": [],
      "stateMutability": "nonpayable",
      "type": "function"
    },
    {
      "inputs": [
        {
          "internalType": "address",
          "name": "nftAddress",
          "type": "address"
        },
        {
          "internalType": "uint256",
          "name": "tokenId",
          "type": "uint256"
        }
      ],
      "name": "enableStaking",
      "outputs": [],
      "stateMutability": "nonpayable",
      "type": "function"
    },
    {
      "inputs": [
        {
          "internalType": "address",
          "name": "nftAddress",
          "type": "address"
        },
        {
          "internalType": "uint256",
          "name": "tokenId",
          "type": "uint256"
        }
      ],
      "name": "finishTraining",
      "outputs": [],
      "stateMutability": "nonpayable",
      "type": "function"
    },
    {
      "inputs": [
        {
          "internalType": "address",
          "name": "_address",
          "type": "address"
        },
        {
          "internalType": "address",
          "name": "nftAddress",
          "type": "address"
        },
        {
          "internalType": "uint256",
          "name": "tokenId",
          "type": "uint256"
        }
      ],
      "name": "forceCancelTraining",
      "outputs": [],
      "stateMutability": "nonpayable",
      "type": "function"
    },
    {
      "inputs": [],
      "name": "forceDisperse",
      "outputs": [],
      "stateMutability": "nonpayable",
      "type": "function"
    },
    {
      "inputs": [],
      "name": "getActiveTraining",
      "outputs": [
        {
          "components": [
            {
              "internalType": "address",
              "name": "_address",
              "type": "address"
            },
            {
              "internalType": "uint256",
              "name": "tokenId",
              "type": "uint256"
            },
            {
              "internalType": "uint256",
              "name": "level",
              "type": "uint256"
            },
            {
              "internalType": "uint256",
              "name": "treeId",
              "type": "uint256"
            },
            {
              "internalType": "uint256",
              "name": "skillId",
              "type": "uint256"
            },
            {
              "internalType": "uint256",
              "name": "startedAt",
              "type": "uint256"
            },
            {
              "internalType": "uint256",
              "name": "completeAt",
              "type": "uint256"
            }
          ],
          "internalType": "struct ProfessionStakingUpgradeable.TrainingStatus[]",
          "name": "",
          "type": "tuple[]"
        }
      ],
      "stateMutability": "view",
      "type": "function"
    },
    {
      "inputs": [
        {
          "internalType": "address",
          "name": "nftAddress",
          "type": "address"
        },
        {
          "internalType": "uint256",
          "name": "tokenId",
          "type": "uint256"
        }
      ],
      "name": "getAllowedSkillChoices",
      "outputs": [
        {
          "internalType": "uint256[]",
          "name": "",
          "type": "uint256[]"
        }
      ],
      "stateMutability": "view",
      "type": "function"
    },
    {
      "inputs": [
        {
          "internalType": "bytes32",
          "name": "role",
          "type": "bytes32"
        }
      ],
      "name": "getRoleAdmin",
      "outputs": [
        {
          "internalType": "bytes32",
          "name": "",
          "type": "bytes32"
        }
      ],
      "stateMutability": "view",
      "type": "function"
    },
    {
      "inputs": [],
      "name": "getStaked",
      "outputs": [
        {
          "components": [
            {
              "internalType": "address",
              "name": "_address",
              "type": "address"
            },
            {
              "internalType": "uint256",
              "name": "tokenId",
              "type": "uint256"
            },
            {
              "internalType": "uint256",
              "name": "rewardFrom",
              "type": "uint256"
            }
          ],
          "internalType": "struct ProfessionStakingUpgradeable.NFT[]",
          "name": "",
          "type": "tuple[]"
        }
      ],
      "stateMutability": "view",
      "type": "function"
    },
    {
      "inputs": [
        {
          "internalType": "address",
          "name": "ntfAddress",
          "type": "address"
        },
        {
          "internalType": "uint256",
          "name": "tokenId",
          "type": "uint256"
        }
      ],
      "name": "getTotalProfessionSkillPoints",
      "outputs": [
        {
          "internalType": "uint256",
          "name": "",
          "type": "uint256"
        }
      ],
      "stateMutability": "view",
      "type": "function"
    },
    {
      "inputs": [
        {
          "internalType": "bytes32",
          "name": "role",
          "type": "bytes32"
        },
        {
          "internalType": "address",
          "name": "account",
          "type": "address"
        }
      ],
      "name": "grantRole",
      "outputs": [],
      "stateMutability": "nonpayable",
      "type": "function"
    },
    {
      "inputs": [
        {
          "internalType": "bytes32",
          "name": "role",
          "type": "bytes32"
        },
        {
          "internalType": "address",
          "name": "account",
          "type": "address"
        }
      ],
      "name": "hasRole",
      "outputs": [
        {
          "internalType": "bool",
          "name": "",
          "type": "bool"
        }
      ],
      "stateMutability": "view",
      "type": "function"
    },
    {
      "inputs": [],
      "name": "initialize",
      "outputs": [],
      "stateMutability": "nonpayable",
      "type": "function"
    },
    {
      "inputs": [
        {
          "internalType": "address",
          "name": "nftAddress",
          "type": "address"
        },
        {
          "internalType": "uint256",
          "name": "tokenId",
          "type": "uint256"
        }
      ],
      "name": "isStakingEnabled",
      "outputs": [
        {
          "internalType": "bool",
          "name": "",
          "type": "bool"
        }
      ],
      "stateMutability": "view",
      "type": "function"
    },
    {
      "inputs": [
        {
          "internalType": "address",
          "name": "operator",
          "type": "address"
        },
        {
          "internalType": "address",
          "name": "from",
          "type": "address"
        },
        {
          "internalType": "uint256",
          "name": "tokenId",
          "type": "uint256"
        },
        {
          "internalType": "bytes",
          "name": "data",
          "type": "bytes"
        }
      ],
      "name": "onERC721Received",
      "outputs": [
        {
          "internalType": "bytes4",
          "name": "",
          "type": "bytes4"
        }
      ],
      "stateMutability": "pure",
      "type": "function"
    },
    {
      "inputs": [],
      "name": "pause",
      "outputs": [],
      "stateMutability": "nonpayable",
      "type": "function"
    },
    {
      "inputs": [],
      "name": "paused",
      "outputs": [
        {
          "internalType": "bool",
          "name": "",
          "type": "bool"
        }
      ],
      "stateMutability": "view",
      "type": "function"
    },
    {
      "inputs": [],
      "name": "pendingRewards",
      "outputs": [
        {
          "internalType": "uint256",
          "name": "",
          "type": "uint256"
        }
      ],
      "stateMutability": "view",
      "type": "function"
    },
    {
      "inputs": [
        {
          "internalType": "bytes32",
          "name": "role",
          "type": "bytes32"
        },
        {
          "internalType": "address",
          "name": "account",
          "type": "address"
        }
      ],
      "name": "renounceRole",
      "outputs": [],
      "stateMutability": "nonpayable",
      "type": "function"
    },
    {
      "inputs": [
        {
          "internalType": "bytes32",
          "name": "role",
          "type": "bytes32"
        },
        {
          "internalType": "address",
          "name": "account",
          "type": "address"
        }
      ],
      "name": "revokeRole",
      "outputs": [],
      "stateMutability": "nonpayable",
      "type": "function"
    },
    {
      "inputs": [
        {
          "internalType": "address",
          "name": "_address",
          "type": "address"
        }
      ],
      "name": "setGameStorage",
      "outputs": [],
      "stateMutability": "nonpayable",
      "type": "function"
    },
    {
      "inputs": [
        {
          "internalType": "address",
          "name": "nftAddress",
          "type": "address"
        },
        {
          "internalType": "uint256",
          "name": "treeId",
          "type": "uint256"
        },
        {
          "internalType": "uint256",
          "name": "skillId",
          "type": "uint256"
        }
      ],
      "name": "setSkillPointer",
      "outputs": [],
      "stateMutability": "nonpayable",
      "type": "function"
    },
    {
      "inputs": [
        {
          "internalType": "uint256",
          "name": "level",
          "type": "uint256"
        },
        {
          "internalType": "uint256",
          "name": "cost",
          "type": "uint256"
        },
        {
          "internalType": "uint256",
          "name": "time",
          "type": "uint256"
        }
      ],
      "name": "setTrainingCost",
      "outputs": [],
      "stateMutability": "nonpayable",
      "type": "function"
    },
    {
      "inputs": [
        {
          "internalType": "address",
          "name": "nftAddress",
          "type": "address"
        },
        {
          "internalType": "uint256",
          "name": "tokenId",
          "type": "uint256"
        }
      ],
      "name": "stake",
      "outputs": [],
      "stateMutability": "nonpayable",
      "type": "function"
    },
    {
      "inputs": [
        {
          "internalType": "address",
          "name": "nftAddress",
          "type": "address"
        },
        {
          "internalType": "uint256",
          "name": "tokenId",
          "type": "uint256"
        },
        {
          "internalType": "uint256",
          "name": "treeId",
          "type": "uint256"
        },
        {
          "internalType": "uint256",
          "name": "skillId",
          "type": "uint256"
        }
      ],
      "name": "startTraining",
      "outputs": [],
      "stateMutability": "nonpayable",
      "type": "function"
    },
    {
      "inputs": [
        {
          "internalType": "bytes4",
          "name": "interfaceId",
          "type": "bytes4"
        }
      ],
      "name": "supportsInterface",
      "outputs": [
        {
          "internalType": "bool",
          "name": "",
          "type": "bool"
        }
      ],
      "stateMutability": "view",
      "type": "function"
    },
    {
      "inputs": [],
      "name": "unpause",
      "outputs": [],
      "stateMutability": "nonpayable",
      "type": "function"
    },
    {
      "inputs": [
        {
          "internalType": "address",
          "name": "nftAddress",
          "type": "address"
        },
        {
          "internalType": "uint256",
          "name": "tokenId",
          "type": "uint256"
        }
      ],
      "name": "unstake",
      "outputs": [],
      "stateMutability": "nonpayable",
      "type": "function"
    },
    {
      "inputs": [
        {
          "internalType": "address",
          "name": "nftAddress",
          "type": "address"
        },
        {
          "internalType": "address",
          "name": "rewardToken",
          "type": "address"
        },
        {
          "internalType": "uint256",
          "name": "startTime",
          "type": "uint256"
        },
        {
          "internalType": "uint256",
          "name": "maxPointsPerSkill",
          "type": "uint256"
        }
      ],
      "name": "updateStakingConfig",
      "outputs": [],
      "stateMutability": "nonpayable",
      "type": "function"
    },
    {
      "inputs": [
        {
          "internalType": "address",
          "name": "to",
          "type": "address"
        },
        {
          "internalType": "address",
          "name": "token",
          "type": "address"
        },
        {
          "internalType": "uint256",
          "name": "amount",
          "type": "uint256"
        }
      ],
      "name": "withdrawPoolRewards",
      "outputs": [],
      "stateMutability": "nonpayable",
      "type": "function"
    }
  ],
  "bytecode": "0x60806040523480156200001157600080fd5b50600054610100900460ff166200002f5760005460ff161562000039565b62000039620000de565b620000a15760405162461bcd60e51b815260206004820152602e60248201527f496e697469616c697a61626c653a20636f6e747261637420697320616c72656160448201526d191e481a5b9a5d1a585b1a5e995960921b606482015260840160405180910390fd5b600054610100900460ff16158015620000c4576000805461ffff19166101011790555b8015620000d7576000805461ff00191690555b506200010b565b6000620000f630620000fc60201b6200369d1760201c565b15905090565b6001600160a01b03163b151590565b614c73806200011b6000396000f3fe608060405234801561001057600080fd5b506004361061027f5760003560e01c806386e8953d1161015c578063bea64ba2116100ce578063d547741f11610087578063d547741f146105bd578063d9a2c1d2146105d0578063e62ccc9c146105e3578063e63ab1e9146105f6578063eded3fda1461060b578063fa5887ee1461061357600080fd5b8063bea64ba214610554578063c2a672e014610567578063c486efbf1461057a578063c59abf9f14610582578063cc3f7b1c14610597578063d3a13d42146105aa57600080fd5b8063a401344b11610120578063a401344b146104e2578063abfc6e73146104f5578063adc9772e14610508578063aed2151a1461051b578063aeeba6151461052e578063be29c9251461054157600080fd5b806386e8953d1461048c57806391d148541461049f57806394a77066146104b25780639f8f6068146104c5578063a217fddf146104da57600080fd5b80633f4ba83a116101f55780635c975abb116101b95780635c975abb14610438578063729c3553146104435780637e5b5e5f146104565780638129fc1c1461046957806381fda71d146104715780638456cb591461048457600080fd5b80633f4ba83a146103e057806347e63380146103e85780634cb12fee146103fd5780634e71d92d146104105780635a2d88001461041857600080fd5b8063248a9ca311610247578063248a9ca3146103505780632f2ff15d1461038157806332b95a6f1461039457806333820bac146103a757806336568abe146103ba5780633d564e49146103cd57600080fd5b806301ffc9a7146102845780630ae7a461146102ac578063150b7a02146102c1578063195454871461031257806323de54d814610325575b600080fd5b610297610292366004614168565b610626565b60405190151581526020015b60405180910390f35b6102bf6102ba366004614192565b61065d565b005b6102f96102cf3660046141da565b7f150b7a023d4804d13e8c85fb27262cb750cf6ba9f9dd3bb30d90f482ceeb4b1f95945050505050565b6040516001600160e01b031990911681526020016102a3565b6102bf6103203660046143ad565b61068f565b60c954610338906001600160a01b031681565b6040516001600160a01b0390911681526020016102a3565b61037361035e366004614411565b60009081526097602052604090206001015490565b6040519081526020016102a3565b6102bf61038f36600461442a565b610718565b6102bf6103a23660046143ad565b61073e565b6102bf6103b5366004614456565b6107dc565b6102bf6103c836600461442a565b610818565b6102bf6103db3660046143ad565b610896565b6102bf610911565b610373600080516020614bfe83398151915281565b6102bf61040b366004614489565b61093d565b6102bf610b78565b61042b610426366004614489565b610bf9565b6040516102a391906144b3565b60335460ff16610297565b6102bf6104513660046144f7565b6110d6565b6102bf610464366004614489565b61114a565b6102bf611211565b61037361047f366004614489565b611314565b6102bf6113d4565b61029761049a366004614489565b6113fd565b6102976104ad36600461442a565b6114c0565b6102bf6104c0366004614533565b6114eb565b6104cd6118b1565b6040516102a391906145ca565b610373600081565b6102bf6104f0366004614655565b611c1c565b6102bf610503366004614670565b611cc5565b6102bf610516366004614489565b611ec6565b6102bf6105293660046146b2565b612145565b6102bf61053c3660046143ad565b612248565b6102bf61054f36600461473a565b6122e6565b6102bf6105623660046144f7565b612473565b6102bf610575366004614489565b61262e565b6102bf612a60565b61058a612a74565b6040516102a391906147e7565b6102bf6105a5366004614489565b612b01565b6102bf6105b8366004614655565b612dfc565b6102bf6105cb36600461442a565b612e38565b6102bf6105de3660046143ad565b612e5e565b6102bf6105f1366004614489565b612ed9565b610373600080516020614c1e83398151915281565b610373612ff9565b6102bf61062136600461483c565b61318e565b60006001600160e01b03198216637965db0b60e01b148061065757506301ffc9a760e01b6001600160e01b03198316145b92915050565b600080516020614bfe83398151915261067681336136ac565b50600092835260cb602052604090922090815560010155565b80518251146106b95760405162461bcd60e51b81526004016106b090614875565b60405180910390fd5b60005b8251811015610713576107018382815181106106da576106da6148b9565b60200260200101518383815181106106f4576106f46148b9565b602002602001015161093d565b8061070b816148e5565b9150506106bc565b505050565b60008281526097602052604090206001015461073481336136ac565b6107138383613710565b60335460ff16156107615760405162461bcd60e51b81526004016106b090614900565b80518251146107825760405162461bcd60e51b81526004016106b090614875565b60005b8251811015610713576107ca8382815181106107a3576107a36148b9565b60200260200101518383815181106107bd576107bd6148b9565b6020026020010151611ec6565b806107d4816148e5565b915050610785565b600080516020614bfe8339815191526107f581336136ac565b506001600160a01b03909216600090815260d06020526040902090815560010155565b6001600160a01b03811633146108885760405162461bcd60e51b815260206004820152602f60248201527f416363657373436f6e74726f6c3a2063616e206f6e6c792072656e6f756e636560448201526e103937b632b9903337b91039b2b63360891b60648201526084016106b0565b6108928282613796565b5050565b80518251146108b75760405162461bcd60e51b81526004016106b090614875565b60005b8251811015610713576108ff8382815181106108d8576108d86148b9565b60200260200101518383815181106108f2576108f26148b9565b602002602001015161262e565b80610909816148e5565b9150506108ba565b600080516020614c1e83398151915261092a81336136ac565b6109326137fd565b61093a613831565b50565b33600090815260ca602090815260408083206001600160a01b03861684528252808320848452909152902060058101546109a85760405162461bcd60e51b815260206004820152600c60248201526b4e6f7420747261696e696e6760a01b60448201526064016106b0565b42816006015411156109fc5760405162461bcd60e51b815260206004820152601a60248201527f547261696e696e67207374696c6c20696e2070726f677265737300000000000060448201526064016106b0565b610a0a336138c4565b6138c4565b60c95460038201546004808401546002850154604051630d126da960e11b81526001600160a01b03898116948201949094526024810188905260448101949094526064840191909152608483015290911690631a24db529060a401600060405180830381600087803b158015610a7f57600080fd5b505af1158015610a93573d6000803e3d6000fd5b50505050826001600160a01b0316610aa83390565b6001600160a01b03167f4cffb663b46d78e759211fc8a998ed5dd16066c4229b4b4e94bc0ff7431e85a884846003015485600401548660020154604051610b08949392919093845260208401929092526040830152606082015260800190565b60405180910390a35033600090815260ca602090815260408083206001600160a01b039590951683529381528382209282529190915290812080546001600160a01b0319168155600181018290556002810182905560038101829055600481018290556005810182905560060155565b610b81336138c4565b33600090815260cc6020526040902060010154151580610baf575033600090815260d1602052604090205415155b610bee5760405162461bcd60e51b815260206004820152601060248201526f4e6f7468696e6720746f20636c61696d60801b60448201526064016106b0565b610bf7336139dd565b565b6001600160a01b038216600090815260cf60209081526040808320815160a08101835281548152600182015481850152600282018054845181870281018701865281815260609796939586019390929190830182828015610c7957602002820191906000526020600020905b815481526020019060010190808311610c65575b5050505050815260200160038201805480602002602001604051908101604052809291908181526020018280548015610cd157602002820191906000526020600020905b815481526020019060010190808311610cbd575b5050509183525050600491909101546001600160a01b03166020909101528051909150610d405760405162461bcd60e51b815260206004820152601e60248201527f4e6f20747261696e696e672073657373696f6e20636f6e66696775726564000060448201526064016106b0565b600081604001515167ffffffffffffffff811115610d6057610d60614275565b604051908082528060200260200182016040528015610d89578160200160208202803683370190505b50905060008060005b846040015151811015610ef85760c954604086015180516001600160a01b039092169163a6f4e49e918b918b919086908110610dd057610dd06148b9565b602002602001015189606001518681518110610dee57610dee6148b9565b60200260200101516040518563ffffffff1660e01b8152600401610e15949392919061492a565b60206040518083038186803b158015610e2d57600080fd5b505afa158015610e41573d6000803e3d6000fd5b505050506040513d601f19601f82011682018060405250810190610e659190614950565b848281518110610e7757610e776148b9565b6020026020010181815250506000848281518110610e9757610e976148b9565b60200260200101511115610eb35782610eaf816148e5565b9350505b8460200151848281518110610eca57610eca6148b9565b60200260200101511415610ee65781610ee2816148e5565b9250505b80610ef0816148e5565b915050610d92565b5081610f0c57505050606001519050610657565b8060021415610f2357506060935061065792505050565b60006001856040015151610f379190614969565b67ffffffffffffffff811115610f4f57610f4f614275565b604051908082528060200260200182016040528015610f78578160200160208202803683370190505b5090506000805b85518110156110c857836001148015610f985750846001145b8015610fbd5750858181518110610fb157610fb16148b9565b60200260200101516000145b15610fff5786606001518181518110610fd857610fd86148b9565b6020026020010151838381518110610ff257610ff26148b9565b6020026020010181815250505b6000868281518110611013576110136148b9565b60200260200101511180156110445750866020015186828151811061103a5761103a6148b9565b6020026020010151105b156110b6576040805160018082528183019092526000916020808301908036833701905050905087606001518281518110611081576110816148b9565b60200260200101518160008151811061109c5761109c6148b9565b602090810291909101015297506106579650505050505050565b806110c0816148e5565b915050610f7f565b509098975050505050505050565b60006110e281336136ac565b506001600160a01b03928316600090815260ca60209081526040808320949095168252928352838120918152915290812080546001600160a01b0319168155600181018290556002810182905560038101829055600481018290556005810182905560060155565b6040516323b872dd60e01b81526001600160a01b038316906323b872dd9061117a90339030908690600401614980565b602060405180830381600087803b15801561119457600080fd5b505af11580156111a8573d6000803e3d6000fd5b505050506040513d601f19601f820116820180604052508101906111cc91906149a4565b506040518181526001600160a01b0383169033907ffbed5bbbffe0fa857a9b62acaea1ea1c076828145e69464a9b483a477fb6b0009060200160405180910390a35050565b600054610100900460ff1661122c5760005460ff1615611230565b303b155b6112935760405162461bcd60e51b815260206004820152602e60248201527f496e697469616c697a61626c653a20636f6e747261637420697320616c72656160448201526d191e481a5b9a5d1a585b1a5e995960921b60648201526084016106b0565b600054610100900460ff161580156112b5576000805461ffff19166101011790555b6112bd613c6c565b6112c5613c9b565b6112d0600033613710565b6112e8600080516020614c1e83398151915233613710565b611300600080516020614bfe83398151915233613710565b801561093a576000805461ff001916905550565b600080805b600c8110156113cc5760c95460405163537a724f60e11b81526000916001600160a01b03169063a6f4e49e9061135a9089908990600190889060040161492a565b60206040518083038186803b15801561137257600080fd5b505afa158015611386573d6000803e3d6000fd5b505050506040513d601f19601f820116820180604052508101906113aa9190614950565b90506113b681846149c6565b92505080806113c4906148e5565b915050611319565b509392505050565b600080516020614c1e8339815191526113ed81336136ac565b6113f56137fd565b61093a613cc2565b6001600160a01b03808316600090815260d0602052604080822060c95481546001830154935163537a724f60e11b8152949592948694929093169263a6f4e49e9261144f928a928a929060040161492a565b60206040518083038186803b15801561146757600080fd5b505afa15801561147b573d6000803e3d6000fd5b505050506040513d601f19601f8201168201806040525081019061149f9190614950565b905080600114156114b557600192505050610657565b506000949350505050565b60009182526097602090815260408084206001600160a01b0393909316845291905290205460ff1690565b600080516020614bfe83398151915261150481336136ac565b6001600160a01b038716600090815260cf60205260409020541561156a5760405162461bcd60e51b815260206004820152601d60248201527f5374616b696e6720636f6e66696720616c72656164792065786973747300000060448201526064016106b0565b60008351116115b35760405162461bcd60e51b81526020600482015260156024820152744d697373696e672074726565496420636f6e66696760581b60448201526064016106b0565b60008251116115fd5760405162461bcd60e51b81526020600482015260166024820152754d697373696e6720736b696c6c496420636f6e66696760501b60448201526064016106b0565b825182511461165d5760405162461bcd60e51b815260206004820152602660248201527f5472656549647320616e6420536b696c6c49647320617272617973206d757374604482015265040dac2e8c6d60d31b60648201526084016106b0565b6000841161167d5760405162461bcd60e51b81526004016106b0906149de565b42851161169c5760405162461bcd60e51b81526004016106b090614a26565b6040516370a0823160e01b81523060048201526000906001600160a01b038816906370a082319060240160206040518083038186803b1580156116de57600080fd5b505afa1580156116f2573d6000803e3d6000fd5b505050506040513d601f19601f820116820180604052508101906117169190614950565b1161175a5760405162461bcd60e51b81526020600482015260146024820152734e6f2066756e647320666f72207265776172647360601b60448201526064016106b0565b6117626137fd565b6001600160a01b03878116600090815260cf602052604081206004810180546001600160a01b031916938a169390931790925586825560019091018590555b83518110156118615760cf6000896001600160a01b03166001600160a01b031681526020019081526020016000206002018482815181106117e4576117e46148b9565b6020908102919091018101518254600181018455600093845282842001556001600160a01b038a16825260cf9052604090208351600390910190849083908110611830576118306148b9565b6020908102919091018101518254600181018455600093845291909220015580611859816148e5565b9150506117a1565b50604080516001600160a01b038881168252602082018890528916917fc6e5f1ee3138795eeda2fa0aab37379a177c4f04396146dd2b154ab55f5c5585910160405180910390a250505050505050565b33600090815260cc60209081526040808320805482518185028101850190935280835260609493849084015b82821015611932576000848152602090819020604080516060810182526003860290920180546001600160a01b03168352600180820154848601526002909101549183019190915290835290920191016118dd565b5050505090506000805b8251811015611a495733600090815260ca602052604081208451829086908590811061196a5761196a6148b9565b6020026020010151600001516001600160a01b03166001600160a01b0316815260200190815260200160002060008584815181106119aa576119aa6148b9565b6020908102919091018101518101518252818101929092526040908101600020815160e08101835281546001600160a01b031681526001820154938101939093526002810154918301919091526003810154606083015260048101546080830152600581015460a08301526006015460c0820181905290915015611a365782611a32816148e5565b9350505b5080611a41816148e5565b91505061193c565b5060008167ffffffffffffffff811115611a6557611a65614275565b604051908082528060200260200182016040528015611adf57816020015b611acc6040518060e0016040528060006001600160a01b031681526020016000815260200160008152602001600081526020016000815260200160008152602001600081525090565b815260200190600190039081611a835790505b5090506000805b8451811015611c125733600090815260ca6020526040812086518290889085908110611b1457611b146148b9565b6020026020010151600001516001600160a01b03166001600160a01b031681526020019081526020016000206000878481518110611b5457611b546148b9565b6020908102919091018101518101518252818101929092526040908101600020815160e08101835281546001600160a01b031681526001820154938101939093526002810154918301919091526003810154606083015260048101546080830152600581015460a08301526006015460c0820181905290915015611bff5780848481518110611be557611be56148b9565b60200260200101819052508280611bfb906148e5565b9350505b5080611c0a816148e5565b915050611ae6565b5090949350505050565b600080516020614bfe833981519152611c3581336136ac565b611c3d6137fd565b6001600160a01b038216600090815260cf602052604081208181556001810182905590611c6d600283018261409c565b611c7b60038301600061409c565b5060040180546001600160a01b03191690556040516001600160a01b038316907fed93036dfb7e5500a2a7f2471a56e6b3389a8c28c72adca8ba9f6a4025ca6d5890600090a25050565b600080516020614bfe833981519152611cde81336136ac565b6001600160a01b038516600090815260cf6020526040902054611d435760405162461bcd60e51b815260206004820152601d60248201527f5374616b696e6720636f6e66696720646f6573206e6f7420657869737400000060448201526064016106b0565b60008211611d635760405162461bcd60e51b81526004016106b0906149de565b428311611d825760405162461bcd60e51b81526004016106b090614a26565b6040516370a0823160e01b81523060048201526000906001600160a01b038616906370a082319060240160206040518083038186803b158015611dc457600080fd5b505afa158015611dd8573d6000803e3d6000fd5b505050506040513d601f19601f82011682018060405250810190611dfc9190614950565b11611e405760405162461bcd60e51b81526020600482015260146024820152734e6f2066756e647320666f72207265776172647360601b60448201526064016106b0565b611e486137fd565b6001600160a01b03858116600081815260cf60209081526040918290206004810180546001600160a01b031916958a169586179055878155600181018790558251948552908401879052927f255d2940ab142f16cd2452c452fc20185bcbc341ce9c1646bc3d4feac9dc3371910160405180910390a2505050505050565b60335460ff1615611ee95760405162461bcd60e51b81526004016106b090614900565b6001600160a01b038216600090815260cf6020526040902054611f3e5760405162461bcd60e51b815260206004820152600d60248201526c496e76616c6964207374616b6560981b60448201526064016106b0565b6001600160a01b038216600090815260cf6020526040902054421015611fa05760405162461bcd60e51b815260206004820152601760248201527614dd185ada5b99c81a185cc81b9bdd081cdd185c9d1959604a1b60448201526064016106b0565b611faa82826113fd565b611ff65760405162461bcd60e51b815260206004820152601f60248201527f5374616b696e67206973206e6f7420756e6c6f636b656420666f72206e66740060448201526064016106b0565b604051632142170760e11b81526001600160a01b038316906342842e0e9061202690339030908690600401614980565b600060405180830381600087803b15801561204057600080fd5b505af1158015612054573d6000803e3d6000fd5b50505050612085604051806060016040528060006001600160a01b0316815260200160008152602001600081525090565b6001600160a01b0383168152602081018290524260408201526120a7336138c4565b6120b260cd33613d1a565b5033600081815260cc6020908152604080832080546001808201835591855293839020865160039095020180546001600160a01b0319166001600160a01b039586161781558684015191810191909155858201516002909101555185815291861692917f5dac0c1b1112564a045ba943c9d50270893e8e826c49be8e7073adc713ab7bd7910160405180910390a3505050565b600080516020614bfe83398151915261215e81336136ac565b82518451148015612170575081518351145b6121cd5760405162461bcd60e51b815260206004820152602860248201527f416c6c20696e70757420617272617973206d757374206265207468652073616d6044820152670ca40d8cadccee8d60c31b60648201526084016106b0565b60005b84518110156122415761222f8582815181106121ee576121ee6148b9565b6020026020010151858381518110612208576122086148b9565b6020026020010151858481518110612222576122226148b9565b602002602001015161065d565b80612239816148e5565b9150506121d0565b5050505050565b60335460ff161561226b5760405162461bcd60e51b81526004016106b090614900565b805182511461228c5760405162461bcd60e51b81526004016106b090614875565b60005b8251811015610713576122d48382815181106122ad576122ad6148b9565b60200260200101518383815181106122c7576122c76148b9565b6020026020010151612b01565b806122de816148e5565b91505061228f565b60335460ff16156123095760405162461bcd60e51b81526004016106b090614900565b825184511461232a5760405162461bcd60e51b81526004016106b090614875565b81518451146123875760405162461bcd60e51b815260206004820152602360248201527f6164647265737320636f756e74206d757374206d61746368207472656520636f6044820152621d5b9d60ea1b60648201526084016106b0565b80518451146123e45760405162461bcd60e51b8152602060048201526024808201527f6164647265737320636f756e74206d757374206d6174636820736b696c6c20636044820152631bdd5b9d60e21b60648201526084016106b0565b60005b845181101561224157612461858281518110612405576124056148b9565b602002602001015185838151811061241f5761241f6148b9565b6020026020010151858481518110612439576124396148b9565b602002602001015185600081518110612454576124546148b9565b602002602001015161318e565b8061246b816148e5565b9150506123e7565b600061247f81336136ac565b6124876137fd565b6040516370a0823160e01b8152306004820152839083906001600160a01b038316906370a082319060240160206040518083038186803b1580156124ca57600080fd5b505afa1580156124de573d6000803e3d6000fd5b505050506040513d601f19601f820116820180604052508101906125029190614950565b10156125475760405162461bcd60e51b8152602060048201526014602482015273496e73756666696369656e742062616c616e636560601b60448201526064016106b0565b6040516323b872dd60e01b81526001600160a01b038216906323b872dd9061257790309089908890600401614980565b602060405180830381600087803b15801561259157600080fd5b505af11580156125a5573d6000803e3d6000fd5b505050506040513d601f19601f820116820180604052508101906125c991906149a4565b50836001600160a01b0316856001600160a01b03166125e53390565b6001600160a01b03167f74ed50f6a2a005dd31f4766fb60918c4a6728cb0da9eeb81b9526bc6da11ec0f8660405161261f91815260200190565b60405180910390a45050505050565b33600090815260cc60205260409020805461267c5760405162461bcd60e51b815260206004820152600e60248201526d139bc81391951cc81cdd185ad95960921b60448201526064016106b0565b805460009061268d90600190614969565b67ffffffffffffffff8111156126a5576126a5614275565b60405190808252806020026020018201604052801561270357816020015b6126f0604051806060016040528060006001600160a01b0316815260200160008152602001600081525090565b8152602001906001900390816126c35790505b50905060008060005b845481101561286857866001600160a01b0316856000018281548110612734576127346148b9565b60009182526020909120600390910201546001600160a01b031614158061278157508585600001828154811061276c5761276c6148b9565b90600052602060002090600302016001015414155b1561285157845482106127c75760405162461bcd60e51b815260206004820152600e60248201526d139195081b9bdd081cdd185ad95960921b60448201526064016106b0565b8460000181815481106127dc576127dc6148b9565b600091825260209182902060408051606081018252600390930290910180546001600160a01b03168352600181015493830193909352600290920154918101919091528451859084908110612833576128336148b9565b60200260200101819052508180612849906148e5565b925050612856565b600192505b80612860816148e5565b91505061270c565b50612872336138c4565b61287d8460006140ba565b60005b835181101561290b578460000184828151811061289f5761289f6148b9565b602090810291909101810151825460018082018555600094855293839020825160039092020180546001600160a01b0319166001600160a01b03909216919091178155918101519282019290925560409091015160029091015580612903816148e5565b915050612880565b50835415801561291d57506001840154155b8015612936575033600090815260d16020526040902054155b156129485761294660cd33613d36565b505b33600081815260ca602090815260408083206001600160a01b038b168085529083528184208a855290925280832080546001600160a01b0319168155600181018490556002810184905560038101849055600480820185905560058201859055600690910193909355516323b872dd60e01b815290926323b872dd926129d3923092918b9101614980565b600060405180830381600087803b1580156129ed57600080fd5b505af1158015612a01573d6000803e3d6000fd5b50505050856001600160a01b0316612a163390565b6001600160a01b03167fd8654fcc8cf5b36d30b3f5e4688fc78118e6d68de60b9994e09902268b57c3e387604051612a5091815260200190565b60405180910390a3505050505050565b6000612a6c81336136ac565b61093a6137fd565b33600090815260cc60209081526040808320805482518185028101850190935280835260609492939192909184015b82821015612af8576000848152602090819020604080516060810182526003860290920180546001600160a01b0316835260018082015484860152600290910154918301919091529083529092019101612aa3565b50505050905090565b60335460ff1615612b245760405162461bcd60e51b81526004016106b090614900565b6001600160a01b038216600090815260d06020526040812090612b4784846113fd565b90508015612b975760405162461bcd60e51b815260206004820152601860248201527f5374616b696e6720616c726561647920756e6c6f636b6564000000000000000060448201526064016106b0565b6001600160a01b038416600090815260cf6020526040902054612bf55760405162461bcd60e51b815260206004820152601660248201527514dd185ada5b99c81b9bdd0818dbdb999a59dd5c995960521b60448201526064016106b0565b6001600160a01b038416600090815260cf6020526040902054421015612c575760405162461bcd60e51b815260206004820152601760248201527614dd185ada5b99c81a185cc81b9bdd081cdd185c9d1959604a1b60448201526064016106b0565b6001600160a01b03848116600090815260cf602052604090206004015416806323b872dd336000805260cb6020527f4239c2c8c3d9b94feb214b0f54d7c869ce1ceb63517be57644336cda4967a468546040516001600160e01b031960e085901b168152612cca92913091600401614980565b602060405180830381600087803b158015612ce457600080fd5b505af1158015612cf8573d6000803e3d6000fd5b505050506040513d601f19601f82011682018060405250810190612d1c91906149a4565b5060c9548354600180860154604051630d126da960e11b81526001600160a01b038a81166004830152602482018a9052604482019490945260648101919091526084810191909152911690631a24db529060a401600060405180830381600087803b158015612d8a57600080fd5b505af1158015612d9e573d6000803e3d6000fd5b50505050846001600160a01b0316612db33390565b6001600160a01b03167f051144eeaaad1c4ee6b1eab928f531a9daf1687b3e0f8db00dae3f5df8c285db86604051612ded91815260200190565b60405180910390a35050505050565b600080516020614bfe833981519152612e1581336136ac565b5060c980546001600160a01b0319166001600160a01b0392909216919091179055565b600082815260976020526040902060010154612e5481336136ac565b6107138383613796565b8051825114612e7f5760405162461bcd60e51b81526004016106b090614875565b60005b825181101561071357612ec7838281518110612ea057612ea06148b9565b6020026020010151838381518110612eba57612eba6148b9565b6020026020010151612ed9565b80612ed1816148e5565b915050612e82565b33600090815260ca602090815260408083206001600160a01b0386168452825280832084845290915290206005810154612f445760405162461bcd60e51b815260206004820152600c60248201526b4e6f7420747261696e696e6760a01b60448201526064016106b0565b42816006015411612f975760405162461bcd60e51b815260206004820152601960248201527f547261696e696e6720616c72656164792066696e69736865640000000000000060448201526064016106b0565b612fa0336138c4565b600381015460048201546040805185815260208101939093528201524260608201526001600160a01b0384169033907fc9b7c59fa980251f7ca7eae784c953e8a9f49d617be6edca0b41264ea05cb16990608001610b08565b33600090815260d16020526040812054815b33600090815260cc602052604090206001015481101561307a5733600090815260cc60205260409020600101805482908110613049576130496148b9565b9060005260206000209060020201600101548261306691906149c6565b915080613072816148e5565b91505061300b565b5033600090815260cc60205260408120905b81548110156131865760008260000182815481106130ac576130ac6148b9565b906000526020600020906003020160020154426130c99190614969565b9050600061312d8460000184815481106130e5576130e56148b9565b600091825260209091206003909102015485546001600160a01b0390911690869086908110613116576131166148b9565b906000526020600020906003020160010154611314565b9050816201518061313f8360016149c6565b61315190670de0b6b3a7640000614a70565b61315b9190614a8f565b6131659190614a70565b61316f90866149c6565b94505050808061317e906148e5565b91505061308c565b509092915050565b60335460ff16156131b15760405162461bcd60e51b81526004016106b090614900565b6001600160a01b038416600090815260cf6020526040902080546132175760405162461bcd60e51b815260206004820152601e60248201527f4e6f20747261696e696e672073657373696f6e20636f6e66696775726564000060448201526064016106b0565b80544210156132685760405162461bcd60e51b815260206004820152601c60248201527f547261696e696e6720686173206e6f742073746172746564207965740000000060448201526064016106b0565b33600090815260ca602090815260408083206001600160a01b0389168452825280832087845290915290206005810154156132e55760405162461bcd60e51b815260206004820152601f60248201527f547261696e696e6720697320616c726561647920696e2070726f67726573730060448201526064016106b0565b60006132f18787610bf9565b905060008151116133445760405162461bcd60e51b815260206004820152601e60248201527f4e6f20747261696e696e672073657373696f6e7320617661696c61626c65000060448201526064016106b0565b6000805b825181101561338d5785838281518110613364576133646148b9565b6020026020010151141561337b576001915061338d565b80613385816148e5565b915050613348565b50806133db5760405162461bcd60e51b815260206004820152601760248201527f496e76616c696420747261696e696e67206f7074696f6e00000000000000000060448201526064016106b0565b60c95460405163537a724f60e11b81526000916001600160a01b03169063a6f4e49e90613412908c908c908c908c9060040161492a565b60206040518083038186803b15801561342a57600080fd5b505afa15801561343e573d6000803e3d6000fd5b505050506040513d601f19601f820116820180604052508101906134629190614950565b9050600060cb816134748460016149c6565b81526020019081526020016000209050856001015482600161349691906149c6565b11156134e45760405162461bcd60e51b815260206004820152601e60248201527f45786365656473206d6178696d756d20747261696e696e67206c6576656c000060448201526064016106b0565b80546135325760405162461bcd60e51b815260206004820152601d60248201527f547261696e696e67204c6576656c206973206e6f7420656e61626c656400000060448201526064016106b0565b61353b336138c4565b60048681015482546040516323b872dd60e01b81526001600160a01b03909216926323b872dd92613570923392309201614980565b602060405180830381600087803b15801561358a57600080fd5b505af115801561359e573d6000803e3d6000fd5b505050506040513d601f19601f820116820180604052508101906135c291906149a4565b506135ce8260016149c6565b60028601556003850188905560048501879055426005860181905560018201546135f7916149c6565b600686015584546001600160a01b0319166001600160a01b038b169081178655600186018a9055336001600160a01b03167f98d1944772cc1ee399725448c633b3ec863f8be81e490479055d810afaa0225c8b8b8b6136578860016149c6565b60058c015460068d0154604080519687526020870195909552938501929092526060840152608083015260a082015260c00160405180910390a350505050505050505050565b6001600160a01b03163b151590565b6136b682826114c0565b610892576136ce816001600160a01b03166014613d4b565b6136d9836020613d4b565b6040516020016136ea929190614add565b60408051601f198184030181529082905262461bcd60e51b82526106b091600401614b52565b61371a82826114c0565b6108925760008281526097602090815260408083206001600160a01b03851684529091529020805460ff191660011790556137523390565b6001600160a01b0316816001600160a01b0316837f2f8788117e7eff1d82e926ec794901d17c78024a50270940304540a733656f0d60405160405180910390a45050565b6137a082826114c0565b156108925760008281526097602090815260408083206001600160a01b0385168085529252808320805460ff1916905551339285917ff6391f5c32d9c69d2a47ea670b442974b53935d1edc7fd64eb21e047a839171b9190a45050565b60005b61380a60cd613ee7565b81101561093a5761381f610a0560cd83613ef1565b80613829816148e5565b915050613800565b60335460ff1661387a5760405162461bcd60e51b815260206004820152601460248201527314185d5cd8589b194e881b9bdd081c185d5cd95960621b60448201526064016106b0565b6033805460ff191690557f5db9ee0a495bf2e6ff9c91a7834c1ba4fdd244a5e8aa4e537bd38aeae4b073aa335b6040516001600160a01b03909116815260200160405180910390a1565b6001600160a01b038116600090815260cc60205260408120905b81548110156107135760008260000182815481106138fe576138fe6148b9565b9060005260206000209060030201600201544261391b9190614969565b905060006139378460000184815481106130e5576130e56148b9565b90504284600001848154811061394f5761394f6148b9565b600091825260209091206002600390920201015581620151806139738360016149c6565b61398590670de0b6b3a7640000614a70565b61398f9190614a8f565b6139999190614a70565b6001600160a01b038616600090815260d16020526040812080549091906139c19084906149c6565b92505081905550505080806139d5906148e5565b9150506138de565b6001600160a01b038116600090815260cc6020908152604080832060d190925282205490915b6001830154811015613a5557826001018181548110613a2457613a246148b9565b90600052602060002090600202016001015482613a4191906149c6565b915080613a4d816148e5565b915050613a03565b50613a646001830160006140db565b6001600160a01b038316600090815260d1602052604080822091909155516370a0823160e01b815230600482015273892d81221484f690c0a97d3dd18b9144a3ecdfb790829082906370a082319060240160206040518083038186803b158015613acd57600080fd5b505afa158015613ae1573d6000803e3d6000fd5b505050506040513d601f19601f82011682018060405250810190613b059190614950565b1015613b535760405162461bcd60e51b815260206004820181905260248201527f496e73756666696369656e74207265776172647320696e20636f6e747261637460448201526064016106b0565b60405163a9059cbb60e01b81526001600160a01b0385811660048301526024820184905282169063a9059cbb90604401602060405180830381600087803b158015613b9d57600080fd5b505af1158015613bb1573d6000803e3d6000fd5b505050506040513d601f19601f82011682018060405250810190613bd591906149a4565b50806001600160a01b0316846001600160a01b03167ff7a40077ff7a04c7e61f6f26fb13774259ddf1b6bce9ecf26a8276cdd399268384604051613c1b91815260200190565b60405180910390a38254158015613c3457506001830154155b8015613c5657506001600160a01b038416600090815260d16020526040902054155b15613c665761224160cd85613d36565b50505050565b600054610100900460ff16613c935760405162461bcd60e51b81526004016106b090614b85565b610bf7613efd565b600054610100900460ff16610bf75760405162461bcd60e51b81526004016106b090614b85565b60335460ff1615613ce55760405162461bcd60e51b81526004016106b090614900565b6033805460ff191660011790557f62e78cea01bee320cd4e420270b5ea74000d11b0c9f74754ebdbfc544b05a2586138a73390565b6000613d2f836001600160a01b038416613f30565b9392505050565b6000613d2f836001600160a01b038416613f7f565b60606000613d5a836002614a70565b613d659060026149c6565b67ffffffffffffffff811115613d7d57613d7d614275565b6040519080825280601f01601f191660200182016040528015613da7576020820181803683370190505b509050600360fc1b81600081518110613dc257613dc26148b9565b60200101906001600160f81b031916908160001a905350600f60fb1b81600181518110613df157613df16148b9565b60200101906001600160f81b031916908160001a9053506000613e15846002614a70565b613e209060016149c6565b90505b6001811115613e98576f181899199a1a9b1b9c1cb0b131b232b360811b85600f1660108110613e5457613e546148b9565b1a60f81b828281518110613e6a57613e6a6148b9565b60200101906001600160f81b031916908160001a90535060049490941c93613e9181614bd0565b9050613e23565b508315613d2f5760405162461bcd60e51b815260206004820181905260248201527f537472696e67733a20686578206c656e67746820696e73756666696369656e7460448201526064016106b0565b6000610657825490565b6000613d2f8383614072565b600054610100900460ff16613f245760405162461bcd60e51b81526004016106b090614b85565b6033805460ff19169055565b6000818152600183016020526040812054613f7757508154600181810184556000848152602080822090930184905584548482528286019093526040902091909155610657565b506000610657565b60008181526001830160205260408120548015614068576000613fa3600183614969565b8554909150600090613fb790600190614969565b905081811461401c576000866000018281548110613fd757613fd76148b9565b9060005260206000200154905080876000018481548110613ffa57613ffa6148b9565b6000918252602080832090910192909255918252600188019052604090208390555b855486908061402d5761402d614be7565b600190038181906000526020600020016000905590558560010160008681526020019081526020016000206000905560019350505050610657565b6000915050610657565b6000826000018281548110614089576140896148b9565b9060005260206000200154905092915050565b508054600082559060005260206000209081019061093a91906140fc565b508054600082556003029060005260206000209081019061093a9190614115565b508054600082556002029060005260206000209081019061093a9190614142565b5b8082111561411157600081556001016140fd565b5090565b5b808211156141115780546001600160a01b03191681556000600182018190556002820155600301614116565b5b808211156141115780546001600160a01b031916815560006001820155600201614143565b60006020828403121561417a57600080fd5b81356001600160e01b031981168114613d2f57600080fd5b6000806000606084860312156141a757600080fd5b505081359360208301359350604090920135919050565b80356001600160a01b03811681146141d557600080fd5b919050565b6000806000806000608086880312156141f257600080fd5b6141fb866141be565b9450614209602087016141be565b935060408601359250606086013567ffffffffffffffff8082111561422d57600080fd5b818801915088601f83011261424157600080fd5b81358181111561425057600080fd5b89602082850101111561426257600080fd5b9699959850939650602001949392505050565b634e487b7160e01b600052604160045260246000fd5b604051601f8201601f1916810167ffffffffffffffff811182821017156142b4576142b4614275565b604052919050565b600067ffffffffffffffff8211156142d6576142d6614275565b5060051b60200190565b600082601f8301126142f157600080fd5b81356020614306614301836142bc565b61428b565b82815260059290921b8401810191818101908684111561432557600080fd5b8286015b848110156143475761433a816141be565b8352918301918301614329565b509695505050505050565b600082601f83011261436357600080fd5b81356020614373614301836142bc565b82815260059290921b8401810191818101908684111561439257600080fd5b8286015b848110156143475780358352918301918301614396565b600080604083850312156143c057600080fd5b823567ffffffffffffffff808211156143d857600080fd5b6143e4868387016142e0565b935060208501359150808211156143fa57600080fd5b5061440785828601614352565b9150509250929050565b60006020828403121561442357600080fd5b5035919050565b6000806040838503121561443d57600080fd5b8235915061444d602084016141be565b90509250929050565b60008060006060848603121561446b57600080fd5b614474846141be565b95602085013595506040909401359392505050565b6000806040838503121561449c57600080fd5b6144a5836141be565b946020939093013593505050565b6020808252825182820181905260009190848201906040850190845b818110156144eb578351835292840192918401916001016144cf565b50909695505050505050565b60008060006060848603121561450c57600080fd5b614515846141be565b9250614523602085016141be565b9150604084013590509250925092565b60008060008060008060c0878903121561454c57600080fd5b614555876141be565b9550614563602088016141be565b94506040870135935060608701359250608087013567ffffffffffffffff8082111561458e57600080fd5b61459a8a838b01614352565b935060a08901359150808211156145b057600080fd5b506145bd89828a01614352565b9150509295509295509295565b602080825282518282018190526000919060409081850190868401855b8281101561464857815180516001600160a01b0316855286810151878601528581015186860152606080820151908601526080808201519086015260a0808201519086015260c0908101519085015260e090930192908501906001016145e7565b5091979650505050505050565b60006020828403121561466757600080fd5b613d2f826141be565b6000806000806080858703121561468657600080fd5b61468f856141be565b935061469d602086016141be565b93969395505050506040820135916060013590565b6000806000606084860312156146c757600080fd5b833567ffffffffffffffff808211156146df57600080fd5b6146eb87838801614352565b9450602086013591508082111561470157600080fd5b61470d87838801614352565b9350604086013591508082111561472357600080fd5b5061473086828701614352565b9150509250925092565b6000806000806080858703121561475057600080fd5b843567ffffffffffffffff8082111561476857600080fd5b614774888389016142e0565b9550602087013591508082111561478a57600080fd5b61479688838901614352565b945060408701359150808211156147ac57600080fd5b6147b888838901614352565b935060608701359150808211156147ce57600080fd5b506147db87828801614352565b91505092959194509250565b602080825282518282018190526000919060409081850190868401855b8281101561464857815180516001600160a01b0316855286810151878601528501518585015260609093019290850190600101614804565b6000806000806080858703121561485257600080fd5b61485b856141be565b966020860135965060408601359560600135945092505050565b60208082526024908201527f6164647265737320636f756e74206d757374206d6174636820746f6b656e20636040820152631bdd5b9d60e21b606082015260800190565b634e487b7160e01b600052603260045260246000fd5b634e487b7160e01b600052601160045260246000fd5b60006000198214156148f9576148f96148cf565b5060010190565b60208082526010908201526f14185d5cd8589b194e881c185d5cd95960821b604082015260600190565b6001600160a01b0394909416845260208401929092526040830152606082015260800190565b60006020828403121561496257600080fd5b5051919050565b60008282101561497b5761497b6148cf565b500390565b6001600160a01b039384168152919092166020820152604081019190915260600190565b6000602082840312156149b657600080fd5b81518015158114613d2f57600080fd5b600082198211156149d9576149d96148cf565b500190565b60208082526028908201527f6d6178506f696e7473506572536b696c6c206d75737420626520677265617465604082015267072207468616e20360c41b606082015260800190565b6020808252602a908201527f737461727454696d65206d7573742062652061206675747572652074696d6520604082015269696e207365636f6e647360b01b606082015260800190565b6000816000190483118215151615614a8a57614a8a6148cf565b500290565b600082614aac57634e487b7160e01b600052601260045260246000fd5b500490565b60005b83811015614acc578181015183820152602001614ab4565b83811115613c665750506000910152565b7f416363657373436f6e74726f6c3a206163636f756e7420000000000000000000815260008351614b15816017850160208801614ab1565b7001034b99036b4b9b9b4b733903937b6329607d1b6017918401918201528351614b46816028840160208801614ab1565b01602801949350505050565b6020815260008251806020840152614b71816040850160208701614ab1565b601f01601f19169190910160400192915050565b6020808252602b908201527f496e697469616c697a61626c653a20636f6e7472616374206973206e6f74206960408201526a6e697469616c697a696e6760a81b606082015260800190565b600081614bdf57614bdf6148cf565b506000190190565b634e487b7160e01b600052603160045260246000fdfe73e573f9566d61418a34d5de3ff49360f9c51fec37f7486551670290f6285dab65d7a28e3265b37a6474929f336521b332c1681b933f6cb9f3376673440d862aa264697066735822122061bc6af3591c76b9075fa8424c4dfb9369cdf4d2542ffb375638d6c387c7ed9c64736f6c63430008090033",
  "linkReferences": {},
  "deployedLinkReferences": {}
}