{
  "_format": "hh-sol-artifact-1",
  "contractName": "CosmicWizardsUpgradeable",
  "sourceName": "contracts/upgradeable/ERC721/CosmicWizardsUpgradeable.sol",
  "abi": [
    {
      "inputs": [],
      "stateMutability": "nonpayable",
      "type": "constructor"
    },
    {
      "anonymous": false,
      "inputs": [
        {
          "indexed": true,
          "internalType": "address",
          "name": "owner",
          "type": "address"
        },
        {
          "indexed": true,
          "internalType": "address",
          "name": "approved",
          "type": "address"
        },
        {
          "indexed": true,
          "internalType": "uint256",
          "name": "tokenId",
          "type": "uint256"
        }
      ],
      "name": "Approval",
      "type": "event"
    },
    {
      "anonymous": false,
      "inputs": [
        {
          "indexed": true,
          "internalType": "address",
          "name": "owner",
          "type": "address"
        },
        {
          "indexed": true,
          "internalType": "address",
          "name": "operator",
          "type": "address"
        },
        {
          "indexed": false,
          "internalType": "bool",
          "name": "approved",
          "type": "bool"
        }
      ],
      "name": "ApprovalForAll",
      "type": "event"
    },
    {
      "anonymous": false,
      "inputs": [
        {
          "indexed": false,
          "internalType": "uint8",
          "name": "version",
          "type": "uint8"
        }
      ],
      "name": "Initialized",
      "type": "event"
    },
    {
      "anonymous": false,
      "inputs": [
        {
          "indexed": false,
          "internalType": "address",
          "name": "account",
          "type": "address"
        }
      ],
      "name": "Paused",
      "type": "event"
    },
    {
      "anonymous": false,
      "inputs": [
        {
          "indexed": true,
          "internalType": "bytes32",
          "name": "role",
          "type": "bytes32"
        },
        {
          "indexed": true,
          "internalType": "bytes32",
          "name": "previousAdminRole",
          "type": "bytes32"
        },
        {
          "indexed": true,
          "internalType": "bytes32",
          "name": "newAdminRole",
          "type": "bytes32"
        }
      ],
      "name": "RoleAdminChanged",
      "type": "event"
    },
    {
      "anonymous": false,
      "inputs": [
        {
          "indexed": true,
          "internalType": "bytes32",
          "name": "role",
          "type": "bytes32"
        },
        {
          "indexed": true,
          "internalType": "address",
          "name": "account",
          "type": "address"
        },
        {
          "indexed": true,
          "internalType": "address",
          "name": "sender",
          "type": "address"
        }
      ],
      "name": "RoleGranted",
      "type": "event"
    },
    {
      "anonymous": false,
      "inputs": [
        {
          "indexed": true,
          "internalType": "bytes32",
          "name": "role",
          "type": "bytes32"
        },
        {
          "indexed": true,
          "internalType": "address",
          "name": "account",
          "type": "address"
        },
        {
          "indexed": true,
          "internalType": "address",
          "name": "sender",
          "type": "address"
        }
      ],
      "name": "RoleRevoked",
      "type": "event"
    },
    {
      "anonymous": false,
      "inputs": [
        {
          "indexed": true,
          "internalType": "uint256",
          "name": "tokenId",
          "type": "uint256"
        },
        {
          "indexed": false,
          "internalType": "uint256",
          "name": "customId",
          "type": "uint256"
        },
        {
          "indexed": false,
          "internalType": "string",
          "name": "value",
          "type": "string"
        }
      ],
      "name": "TextUpdated",
      "type": "event"
    },
    {
      "anonymous": false,
      "inputs": [
        {
          "indexed": true,
          "internalType": "address",
          "name": "from",
          "type": "address"
        },
        {
          "indexed": true,
          "internalType": "address",
          "name": "to",
          "type": "address"
        },
        {
          "indexed": true,
          "internalType": "uint256",
          "name": "tokenId",
          "type": "uint256"
        }
      ],
      "name": "Transfer",
      "type": "event"
    },
    {
      "anonymous": false,
      "inputs": [
        {
          "indexed": false,
          "internalType": "address",
          "name": "account",
          "type": "address"
        }
      ],
      "name": "Unpaused",
      "type": "event"
    },
    {
      "anonymous": false,
      "inputs": [
        {
          "indexed": true,
          "internalType": "uint256",
          "name": "tokenId",
          "type": "uint256"
        },
        {
          "indexed": false,
          "internalType": "uint256",
          "name": "treeId",
          "type": "uint256"
        },
        {
          "indexed": false,
          "internalType": "uint256",
          "name": "skillId",
          "type": "uint256"
        },
        {
          "indexed": false,
          "internalType": "uint256",
          "name": "value",
          "type": "uint256"
        }
      ],
      "name": "ValueUpdated",
      "type": "event"
    },
    {
      "inputs": [],
      "name": "ADMIN_ROLE",
      "outputs": [
        {
          "internalType": "bytes32",
          "name": "",
          "type": "bytes32"
        }
      ],
      "stateMutability": "view",
      "type": "function"
    },
    {
      "inputs": [],
      "name": "CONTRACT_ROLE",
      "outputs": [
        {
          "internalType": "bytes32",
          "name": "",
          "type": "bytes32"
        }
      ],
      "stateMutability": "view",
      "type": "function"
    },
    {
      "inputs": [],
      "name": "DEFAULT_ADMIN_ROLE",
      "outputs": [
        {
          "internalType": "bytes32",
          "name": "",
          "type": "bytes32"
        }
      ],
      "stateMutability": "view",
      "type": "function"
    },
    {
      "inputs": [],
      "name": "MINTER_ROLE",
      "outputs": [
        {
          "internalType": "bytes32",
          "name": "",
          "type": "bytes32"
        }
      ],
      "stateMutability": "view",
      "type": "function"
    },
    {
      "inputs": [
        {
          "internalType": "address",
          "name": "to",
          "type": "address"
        },
        {
          "internalType": "uint256",
          "name": "tokenId",
          "type": "uint256"
        }
      ],
      "name": "approve",
      "outputs": [],
      "stateMutability": "nonpayable",
      "type": "function"
    },
    {
      "inputs": [
        {
          "internalType": "address",
          "name": "owner",
          "type": "address"
        }
      ],
      "name": "balanceOf",
      "outputs": [
        {
          "internalType": "uint256",
          "name": "",
          "type": "uint256"
        }
      ],
      "stateMutability": "view",
      "type": "function"
    },
    {
      "inputs": [
        {
          "internalType": "address",
          "name": "to",
          "type": "address"
        },
        {
          "internalType": "uint256[]",
          "name": "tokenIds",
          "type": "uint256[]"
        }
      ],
      "name": "batchMint",
      "outputs": [],
      "stateMutability": "nonpayable",
      "type": "function"
    },
    {
      "inputs": [
        {
          "internalType": "uint256[]",
          "name": "tokenIds",
          "type": "uint256[]"
        }
      ],
      "name": "batchTokenURI",
      "outputs": [
        {
          "internalType": "string[]",
          "name": "",
          "type": "string[]"
        }
      ],
      "stateMutability": "view",
      "type": "function"
    },
    {
      "inputs": [
        {
          "internalType": "address",
          "name": "from",
          "type": "address"
        },
        {
          "internalType": "address",
          "name": "to",
          "type": "address"
        },
        {
          "internalType": "uint256[]",
          "name": "tokenIds",
          "type": "uint256[]"
        }
      ],
      "name": "batchTransferFrom",
      "outputs": [],
      "stateMutability": "nonpayable",
      "type": "function"
    },
    {
      "inputs": [
        {
          "internalType": "uint256[]",
          "name": "tokenIds",
          "type": "uint256[]"
        },
        {
          "internalType": "uint256[]",
          "name": "treeIds",
          "type": "uint256[]"
        },
        {
          "internalType": "uint256[]",
          "name": "skillIds",
          "type": "uint256[]"
        },
        {
          "internalType": "uint256[]",
          "name": "values",
          "type": "uint256[]"
        }
      ],
      "name": "batchUpdateSkills",
      "outputs": [],
      "stateMutability": "nonpayable",
      "type": "function"
    },
    {
      "inputs": [
        {
          "internalType": "uint256",
          "name": "tokenId",
          "type": "uint256"
        }
      ],
      "name": "burn",
      "outputs": [],
      "stateMutability": "nonpayable",
      "type": "function"
    },
    {
      "inputs": [],
      "name": "getAllTokenIds",
      "outputs": [
        {
          "internalType": "uint256[]",
          "name": "",
          "type": "uint256[]"
        }
      ],
      "stateMutability": "view",
      "type": "function"
    },
    {
      "inputs": [
        {
          "internalType": "uint256",
          "name": "tokenId",
          "type": "uint256"
        }
      ],
      "name": "getApproved",
      "outputs": [
        {
          "internalType": "address",
          "name": "",
          "type": "address"
        }
      ],
      "stateMutability": "view",
      "type": "function"
    },
    {
      "inputs": [
        {
          "internalType": "bytes32",
          "name": "role",
          "type": "bytes32"
        }
      ],
      "name": "getRoleAdmin",
      "outputs": [
        {
          "internalType": "bytes32",
          "name": "",
          "type": "bytes32"
        }
      ],
      "stateMutability": "view",
      "type": "function"
    },
    {
      "inputs": [
        {
          "internalType": "bytes32",
          "name": "role",
          "type": "bytes32"
        },
        {
          "internalType": "uint256",
          "name": "index",
          "type": "uint256"
        }
      ],
      "name": "getRoleMember",
      "outputs": [
        {
          "internalType": "address",
          "name": "",
          "type": "address"
        }
      ],
      "stateMutability": "view",
      "type": "function"
    },
    {
      "inputs": [
        {
          "internalType": "bytes32",
          "name": "role",
          "type": "bytes32"
        }
      ],
      "name": "getRoleMemberCount",
      "outputs": [
        {
          "internalType": "uint256",
          "name": "",
          "type": "uint256"
        }
      ],
      "stateMutability": "view",
      "type": "function"
    },
    {
      "inputs": [
        {
          "internalType": "uint256",
          "name": "tokenId",
          "type": "uint256"
        },
        {
          "internalType": "uint256",
          "name": "treeId",
          "type": "uint256"
        },
        {
          "internalType": "uint256",
          "name": "skillId",
          "type": "uint256"
        }
      ],
      "name": "getSkill",
      "outputs": [
        {
          "internalType": "uint256",
          "name": "value",
          "type": "uint256"
        }
      ],
      "stateMutability": "view",
      "type": "function"
    },
    {
      "inputs": [
        {
          "internalType": "uint256",
          "name": "tokenId",
          "type": "uint256"
        },
        {
          "internalType": "uint256",
          "name": "treeId",
          "type": "uint256"
        },
        {
          "internalType": "uint256[]",
          "name": "skillIds",
          "type": "uint256[]"
        }
      ],
      "name": "getSkillsByTree",
      "outputs": [
        {
          "internalType": "uint256[]",
          "name": "",
          "type": "uint256[]"
        }
      ],
      "stateMutability": "view",
      "type": "function"
    },
    {
      "inputs": [
        {
          "internalType": "uint256",
          "name": "tokenId",
          "type": "uint256"
        },
        {
          "internalType": "uint256",
          "name": "customId",
          "type": "uint256"
        }
      ],
      "name": "getString",
      "outputs": [
        {
          "internalType": "string",
          "name": "value",
          "type": "string"
        }
      ],
      "stateMutability": "view",
      "type": "function"
    },
    {
      "inputs": [
        {
          "internalType": "uint256[]",
          "name": "tokenIds",
          "type": "uint256[]"
        },
        {
          "internalType": "uint256",
          "name": "customId",
          "type": "uint256"
        }
      ],
      "name": "getStringOfTokens",
      "outputs": [
        {
          "internalType": "string[]",
          "name": "",
          "type": "string[]"
        }
      ],
      "stateMutability": "view",
      "type": "function"
    },
    {
      "inputs": [
        {
          "internalType": "uint256",
          "name": "tokenId",
          "type": "uint256"
        },
        {
          "internalType": "uint256[]",
          "name": "customIds",
          "type": "uint256[]"
        }
      ],
      "name": "getStrings",
      "outputs": [
        {
          "internalType": "string[]",
          "name": "",
          "type": "string[]"
        }
      ],
      "stateMutability": "view",
      "type": "function"
    },
    {
      "inputs": [
        {
          "internalType": "bytes32",
          "name": "role",
          "type": "bytes32"
        },
        {
          "internalType": "address",
          "name": "account",
          "type": "address"
        }
      ],
      "name": "grantRole",
      "outputs": [],
      "stateMutability": "nonpayable",
      "type": "function"
    },
    {
      "inputs": [
        {
          "internalType": "bytes32",
          "name": "role",
          "type": "bytes32"
        },
        {
          "internalType": "address",
          "name": "account",
          "type": "address"
        }
      ],
      "name": "hasRole",
      "outputs": [
        {
          "internalType": "bool",
          "name": "",
          "type": "bool"
        }
      ],
      "stateMutability": "view",
      "type": "function"
    },
    {
      "inputs": [],
      "name": "imageBaseURI",
      "outputs": [
        {
          "internalType": "string",
          "name": "",
          "type": "string"
        }
      ],
      "stateMutability": "view",
      "type": "function"
    },
    {
      "inputs": [],
      "name": "initialize",
      "outputs": [],
      "stateMutability": "nonpayable",
      "type": "function"
    },
    {
      "inputs": [
        {
          "internalType": "address",
          "name": "owner",
          "type": "address"
        },
        {
          "internalType": "address",
          "name": "operator",
          "type": "address"
        }
      ],
      "name": "isApprovedForAll",
      "outputs": [
        {
          "internalType": "bool",
          "name": "",
          "type": "bool"
        }
      ],
      "stateMutability": "view",
      "type": "function"
    },
    {
      "inputs": [
        {
          "internalType": "address",
          "name": "to",
          "type": "address"
        },
        {
          "internalType": "uint256",
          "name": "tokenId",
          "type": "uint256"
        }
      ],
      "name": "mint",
      "outputs": [],
      "stateMutability": "nonpayable",
      "type": "function"
    },
    {
      "inputs": [],
      "name": "name",
      "outputs": [
        {
          "internalType": "string",
          "name": "",
          "type": "string"
        }
      ],
      "stateMutability": "view",
      "type": "function"
    },
    {
      "inputs": [
        {
          "internalType": "uint256",
          "name": "tokenId",
          "type": "uint256"
        }
      ],
      "name": "ownerOf",
      "outputs": [
        {
          "internalType": "address",
          "name": "",
          "type": "address"
        }
      ],
      "stateMutability": "view",
      "type": "function"
    },
    {
      "inputs": [],
      "name": "pause",
      "outputs": [],
      "stateMutability": "nonpayable",
      "type": "function"
    },
    {
      "inputs": [],
      "name": "paused",
      "outputs": [
        {
          "internalType": "bool",
          "name": "",
          "type": "bool"
        }
      ],
      "stateMutability": "view",
      "type": "function"
    },
    {
      "inputs": [
        {
          "internalType": "bytes32",
          "name": "role",
          "type": "bytes32"
        },
        {
          "internalType": "address",
          "name": "account",
          "type": "address"
        }
      ],
      "name": "renounceRole",
      "outputs": [],
      "stateMutability": "nonpayable",
      "type": "function"
    },
    {
      "inputs": [
        {
          "internalType": "bytes32",
          "name": "role",
          "type": "bytes32"
        },
        {
          "internalType": "address",
          "name": "account",
          "type": "address"
        }
      ],
      "name": "revokeRole",
      "outputs": [],
      "stateMutability": "nonpayable",
      "type": "function"
    },
    {
      "inputs": [
        {
          "internalType": "address",
          "name": "from",
          "type": "address"
        },
        {
          "internalType": "address",
          "name": "to",
          "type": "address"
        },
        {
          "internalType": "uint256",
          "name": "tokenId",
          "type": "uint256"
        }
      ],
      "name": "safeTransferFrom",
      "outputs": [],
      "stateMutability": "nonpayable",
      "type": "function"
    },
    {
      "inputs": [
        {
          "internalType": "address",
          "name": "from",
          "type": "address"
        },
        {
          "internalType": "address",
          "name": "to",
          "type": "address"
        },
        {
          "internalType": "uint256",
          "name": "tokenId",
          "type": "uint256"
        },
        {
          "internalType": "bytes",
          "name": "data",
          "type": "bytes"
        }
      ],
      "name": "safeTransferFrom",
      "outputs": [],
      "stateMutability": "nonpayable",
      "type": "function"
    },
    {
      "inputs": [
        {
          "internalType": "address",
          "name": "operator",
          "type": "address"
        },
        {
          "internalType": "bool",
          "name": "approved",
          "type": "bool"
        }
      ],
      "name": "setApprovalForAll",
      "outputs": [],
      "stateMutability": "nonpayable",
      "type": "function"
    },
    {
      "inputs": [
        {
          "internalType": "string",
          "name": "_imageBaseURI",
          "type": "string"
        }
      ],
      "name": "setImageBaseURI",
      "outputs": [],
      "stateMutability": "nonpayable",
      "type": "function"
    },
    {
      "inputs": [
        {
          "internalType": "bytes4",
          "name": "interfaceId",
          "type": "bytes4"
        }
      ],
      "name": "supportsInterface",
      "outputs": [
        {
          "internalType": "bool",
          "name": "",
          "type": "bool"
        }
      ],
      "stateMutability": "view",
      "type": "function"
    },
    {
      "inputs": [],
      "name": "symbol",
      "outputs": [
        {
          "internalType": "string",
          "name": "",
          "type": "string"
        }
      ],
      "stateMutability": "view",
      "type": "function"
    },
    {
      "inputs": [
        {
          "internalType": "uint256",
          "name": "index",
          "type": "uint256"
        }
      ],
      "name": "tokenByIndex",
      "outputs": [
        {
          "internalType": "uint256",
          "name": "",
          "type": "uint256"
        }
      ],
      "stateMutability": "view",
      "type": "function"
    },
    {
      "inputs": [
        {
          "internalType": "address",
          "name": "owner",
          "type": "address"
        },
        {
          "internalType": "uint256",
          "name": "index",
          "type": "uint256"
        }
      ],
      "name": "tokenOfOwnerByIndex",
      "outputs": [
        {
          "internalType": "uint256",
          "name": "",
          "type": "uint256"
        }
      ],
      "stateMutability": "view",
      "type": "function"
    },
    {
      "inputs": [
        {
          "internalType": "uint256",
          "name": "tokenId",
          "type": "uint256"
        }
      ],
      "name": "tokenURI",
      "outputs": [
        {
          "internalType": "string",
          "name": "",
          "type": "string"
        }
      ],
      "stateMutability": "view",
      "type": "function"
    },
    {
      "inputs": [
        {
          "internalType": "address",
          "name": "owner",
          "type": "address"
        }
      ],
      "name": "tokensOfOwner",
      "outputs": [
        {
          "internalType": "uint256[]",
          "name": "",
          "type": "uint256[]"
        }
      ],
      "stateMutability": "view",
      "type": "function"
    },
    {
      "inputs": [],
      "name": "totalSupply",
      "outputs": [
        {
          "internalType": "uint256",
          "name": "",
          "type": "uint256"
        }
      ],
      "stateMutability": "view",
      "type": "function"
    },
    {
      "inputs": [
        {
          "internalType": "address",
          "name": "from",
          "type": "address"
        },
        {
          "internalType": "address",
          "name": "to",
          "type": "address"
        },
        {
          "internalType": "uint256",
          "name": "tokenId",
          "type": "uint256"
        }
      ],
      "name": "transferFrom",
      "outputs": [],
      "stateMutability": "nonpayable",
      "type": "function"
    },
    {
      "inputs": [],
      "name": "unpause",
      "outputs": [],
      "stateMutability": "nonpayable",
      "type": "function"
    },
    {
      "inputs": [
        {
          "internalType": "uint256",
          "name": "treeId",
          "type": "uint256"
        },
        {
          "internalType": "uint256",
          "name": "skillId",
          "type": "uint256"
        },
        {
          "internalType": "uint256[]",
          "name": "values",
          "type": "uint256[]"
        },
        {
          "internalType": "string[]",
          "name": "stringValues",
          "type": "string[]"
        }
      ],
      "name": "updateAttributeStrings",
      "outputs": [],
      "stateMutability": "nonpayable",
      "type": "function"
    },
    {
      "inputs": [
        {
          "internalType": "uint256",
          "name": "tokenId",
          "type": "uint256"
        },
        {
          "internalType": "uint256",
          "name": "treeId",
          "type": "uint256"
        },
        {
          "internalType": "uint256",
          "name": "skillId",
          "type": "uint256"
        },
        {
          "internalType": "uint256",
          "name": "value",
          "type": "uint256"
        }
      ],
      "name": "updateSkill",
      "outputs": [],
      "stateMutability": "nonpayable",
      "type": "function"
    },
    {
      "inputs": [
        {
          "internalType": "uint256",
          "name": "tokenId",
          "type": "uint256"
        },
        {
          "internalType": "uint256",
          "name": "customId",
          "type": "uint256"
        },
        {
          "internalType": "string",
          "name": "value",
          "type": "string"
        }
      ],
      "name": "updateString",
      "outputs": [],
      "stateMutability": "nonpayable",
      "type": "function"
    }
  ],
  "bytecode": "0x60806040523480156200001157600080fd5b506200001c62000022565b620000e4565b600054610100900460ff16156200008f5760405162461bcd60e51b815260206004820152602760248201527f496e697469616c697a61626c653a20636f6e747261637420697320696e697469604482015266616c697a696e6760c81b606482015260840160405180910390fd5b60005460ff9081161015620000e2576000805460ff191660ff9081179091556040519081527f7f26b83ff96e1f2b6a682f133852f6798a09c465da95921460cefb38474024989060200160405180910390a15b565b61510080620000f46000396000f3fe608060405234801561001057600080fd5b50600436106102bb5760003560e01c806370a0823111610182578063a22cb465116100e9578063ca15c873116100a2578063dd81714a1161007c578063dd81714a14610648578063e985e9c51461065b578063ed0af20914610697578063f3993d11146106aa57600080fd5b8063ca15c8731461060d578063d539139314610620578063d547741f1461063557600080fd5b8063a22cb465146105a6578063b5afb120146105b9578063b88d4fde146105cc578063bdbed722146105df578063c7e05590146105e7578063c87b56dd146105fa57600080fd5b80638462151c1161013b5780638462151c1461053d5780639010d07c1461055d57806391d148541461057057806395d89b41146105835780639e8afe471461058b578063a217fddf1461059e57600080fd5b806370a08231146104ea57806375b238fc146104fd57806377645839146105125780637efa19021461051a5780638129fc1c1461052d5780638456cb591461053557600080fd5b806336568abe116102265780634684d7e9116101df5780634684d7e91461047f5780634f6ccce7146104925780635c975abb146104a55780636352211e146104b15780636cfa24cc146104c45780636d94f13a146104d757600080fd5b806336568abe146103f85780633f4ba83a1461040b57806340c10f191461041357806342842e0e1461042657806342966c68146104395780634594762a1461044c57600080fd5b806318160ddd1161027857806318160ddd1461037357806323b872dd1461037b578063248a9ca31461038e5780632f2ff15d146103b25780632f745c59146103c5578063352b7533146103d857600080fd5b806301ffc9a7146102c057806303fe46ab146102e857806306fdde031461030b578063079be49314610320578063081812fc14610333578063095ea7b31461035e575b600080fd5b6102d36102ce366004613967565b6106bd565b60405190151581526020015b60405180910390f35b6102fd6000805160206150ab83398151915281565b6040519081526020016102df565b6103136106ce565b6040516102df91906139d4565b61031361032e3660046139e7565b610760565b610346610341366004613a09565b61080f565b6040516001600160a01b0390911681526020016102df565b61037161036c366004613a3e565b610836565b005b6099546102fd565b610371610389366004613a68565b610950565b6102fd61039c366004613a09565b600090815261015f602052604090206001015490565b6103716103c0366004613aa4565b610982565b6102fd6103d3366004613a3e565b6109a8565b6103eb6103e6366004613ba4565b610a3e565b6040516102df9190613be8565b610371610406366004613aa4565b610b9c565b610371610c1a565b610371610421366004613a3e565b610c3d565b610371610434366004613a68565b610c5f565b610371610447366004613a09565b610c7a565b6102fd61045a366004613c4a565b600092835261025b602090815260408085209385529281528284209184525290205490565b61037161048d366004613c76565b610cb5565b6102fd6104a0366004613a09565b610d14565b61012d5460ff166102d3565b6103466104bf366004613a09565b610da7565b6103716104d2366004613d3a565b610e07565b6103eb6104e5366004613d6e565b610e28565b6102fd6104f8366004613da2565b610ee0565b6102fd60008051602061506b83398151915281565b610313610f66565b610371610528366004613dbd565b610ff4565b6103716110d2565b61037161128c565b61055061054b366004613da2565b6112ac565b6040516102df9190613e69565b61034661056b3660046139e7565b611345565b6102d361057e366004613aa4565b611365565b610313611391565b6103eb610599366004613ead565b6113a0565b6102fd600081565b6103716105b4366004613edd565b6114f6565b6103716105c7366004613f19565b611501565b6103716105da366004613f4b565b611586565b6105506115b8565b6105506105f5366004613fba565b6116a2565b610313610608366004613a09565b611777565b6102fd61061b366004613a09565b6117eb565b6102fd60008051602061504b83398151915281565b610371610643366004613aa4565b611803565b610371610656366004614009565b611829565b6102d36106693660046140f1565b6001600160a01b039182166000908152606a6020908152604080832093909416825291909152205460ff1690565b6103716106a536600461411b565b6118d5565b6103716106b8366004614160565b611952565b60006106c882611994565b92915050565b6060606580546106dd906141a7565b80601f0160208091040260200160405190810160405280929190818152602001828054610709906141a7565b80156107565780601f1061072b57610100808354040283529160200191610756565b820191906000526020600020905b81548152906001019060200180831161073957829003601f168201915b5050505050905090565b600082815261025c602090815260408083208484529091529020805460609190610789906141a7565b80601f01602080910402602001604051908101604052809291908181526020018280546107b5906141a7565b80156108025780601f106107d757610100808354040283529160200191610802565b820191906000526020600020905b8154815290600101906020018083116107e557829003601f168201915b5050505050905092915050565b600061081a8261199f565b506000908152606960205260409020546001600160a01b031690565b600061084182610da7565b9050806001600160a01b0316836001600160a01b0316036108b35760405162461bcd60e51b815260206004820152602160248201527f4552433732313a20617070726f76616c20746f2063757272656e74206f776e656044820152603960f91b60648201526084015b60405180910390fd5b336001600160a01b03821614806108cf57506108cf8133610669565b6109415760405162461bcd60e51b815260206004820152603e60248201527f4552433732313a20617070726f76652063616c6c6572206973206e6f7420746f60448201527f6b656e206f776e6572206e6f7220617070726f76656420666f7220616c6c000060648201526084016108aa565b61094b83836119ef565b505050565b61095b335b82611a5d565b6109775760405162461bcd60e51b81526004016108aa906141e1565b61094b838383611adc565b600082815261015f602052604090206001015461099e81611c83565b61094b8383611c8d565b60006109b383610ee0565b8210610a155760405162461bcd60e51b815260206004820152602b60248201527f455243373231456e756d657261626c653a206f776e657220696e646578206f7560448201526a74206f6620626f756e647360a81b60648201526084016108aa565b506001600160a01b03919091166000908152609760209081526040808320938352929052205490565b6060600083516001600160401b03811115610a5b57610a5b613ad0565b604051908082528060200260200182016040528015610a8e57816020015b6060815260200190600190039081610a795790505b50905060005b8451811015610b945761025c6000868381518110610ab457610ab461422f565b6020026020010151815260200190815260200160002060008581526020019081526020016000208054610ae6906141a7565b80601f0160208091040260200160405190810160405280929190818152602001828054610b12906141a7565b8015610b5f5780601f10610b3457610100808354040283529160200191610b5f565b820191906000526020600020905b815481529060010190602001808311610b4257829003601f168201915b5050505050828281518110610b7657610b7661422f565b60200260200101819052508080610b8c9061425b565b915050610a94565b509392505050565b6001600160a01b0381163314610c0c5760405162461bcd60e51b815260206004820152602f60248201527f416363657373436f6e74726f6c3a2063616e206f6e6c792072656e6f756e636560448201526e103937b632b9903337b91039b2b63360891b60648201526084016108aa565b610c168282611cb0565b5050565b60008051602061506b833981519152610c3281611c83565b610c3a611cd3565b50565b60008051602061504b833981519152610c5581611c83565b61094b8383611d26565b61094b83838360405180602001604052806000815250611586565b610c8333610955565b610c9f5760405162461bcd60e51b81526004016108aa906141e1565b610cab6101f582611d40565b50610c3a81611d4c565b60008051602061504b833981519152610ccd81611c83565b60005b8251811015610d0e57610cfc84848381518110610cef57610cef61422f565b6020026020010151611d26565b80610d068161425b565b915050610cd0565b50505050565b6000610d1f60995490565b8210610d825760405162461bcd60e51b815260206004820152602c60248201527f455243373231456e756d657261626c653a20676c6f62616c20696e646578206f60448201526b7574206f6620626f756e647360a01b60648201526084016108aa565b60998281548110610d9557610d9561422f565b90600052602060002001549050919050565b6000818152606760205260408120546001600160a01b0316806106c85760405162461bcd60e51b8152602060048201526018602482015277115490cdcc8c4e881a5b9d985b1a59081d1bdad95b88125160421b60448201526064016108aa565b60008051602061506b833981519152610e1f81611c83565b610c1682611d8c565b6060600082516001600160401b03811115610e4557610e45613ad0565b604051908082528060200260200182016040528015610e7857816020015b6060815260200190600190039081610e635790505b50905060005b8351811015610ed957610ea9848281518110610e9c57610e9c61422f565b6020026020010151611777565b828281518110610ebb57610ebb61422f565b60200260200101819052508080610ed19061425b565b915050610e7e565b5092915050565b60006001600160a01b038216610f4a5760405162461bcd60e51b815260206004820152602960248201527f4552433732313a2061646472657373207a65726f206973206e6f7420612076616044820152683634b21037bbb732b960b91b60648201526084016108aa565b506001600160a01b031660009081526068602052604090205490565b60fc8054610f73906141a7565b80601f0160208091040260200160405190810160405280929190818152602001828054610f9f906141a7565b8015610fec5780601f10610fc157610100808354040283529160200191610fec565b820191906000526020600020905b815481529060010190602001808311610fcf57829003601f168201915b505050505081565b6000805160206150ab83398151915261100c81611c83565b60005b85518110156110ca5782818151811061102a5761102a61422f565b602002602001015161025b60008884815181106110495761104961422f565b6020026020010151815260200190815260200160002060008784815181106110735761107361422f565b60200260200101518152602001908152602001600020600086848151811061109d5761109d61422f565b602002602001015181526020019081526020016000208190555080806110c29061425b565b91505061100f565b505050505050565b600054610100900460ff16158080156110f25750600054600160ff909116105b8061110c5750303b15801561110c575060005460ff166001145b61116f5760405162461bcd60e51b815260206004820152602e60248201527f496e697469616c697a61626c653a20636f6e747261637420697320616c72656160448201526d191e481a5b9a5d1a585b1a5e995960921b60648201526084016108aa565b6000805460ff191660011790558015611192576000805461ff0019166101001790555b6111e16040518060400160405280600e81526020016d436f736d69632057697a6172647360901b8152506040518060400160405280600781526020016657495a4152445360c81b815250611d98565b6111e9611dc9565b6111f1611dfa565b6111f9611e21565b611201611dfa565b611209611dc9565b611214600033611c8d565b61122c60008051602061506b83398151915233611c8d565b61124460008051602061504b83398151915233611c8d565b8015610c3a576000805461ff0019169055604051600181527f7f26b83ff96e1f2b6a682f133852f6798a09c465da95921460cefb38474024989060200160405180910390a150565b60008051602061506b8339815191526112a481611c83565b610c3a611e50565b606060006112b983610ee0565b90506000816001600160401b038111156112d5576112d5613ad0565b6040519080825280602002602001820160405280156112fe578160200160208202803683370190505b50905060005b82811015610b945761131685826109a8565b8282815181106113285761132861422f565b60209081029190910101528061133d8161425b565b915050611304565b60008281526101916020526040812061135e9083611e8e565b9392505050565b600091825261015f602090815260408084206001600160a01b0393909316845291905290205460ff1690565b6060606680546106dd906141a7565b6060600082516001600160401b038111156113bd576113bd613ad0565b6040519080825280602002602001820160405280156113f057816020015b60608152602001906001900390816113db5790505b50905060005b8351811015610b945761025c600086815260200190815260200160002060008583815181106114275761142761422f565b602002602001015181526020019081526020016000208054611448906141a7565b80601f0160208091040260200160405190810160405280929190818152602001828054611474906141a7565b80156114c15780601f10611496576101008083540402835291602001916114c1565b820191906000526020600020905b8154815290600101906020018083116114a457829003601f168201915b50505050508282815181106114d8576114d861422f565b602002602001018190525080806114ee9061425b565b9150506113f6565b610c16338383611e9a565b6000805160206150ab83398151915261151981611c83565b600085815261025b602090815260408083208784528252808320868452825291829020849055815186815290810185905290810183905285907fc3bdb5f4a3cbb68ce4ebe3dda3660f3067add044dc5be3a047d818fd416663699060600160405180910390a25050505050565b6115903383611a5d565b6115ac5760405162461bcd60e51b81526004016108aa906141e1565b610d0e84848484611f68565b6060600060015b6127108110156115f7576115d281611f9b565b156115e557816115e18161425b565b9250505b806115ef8161425b565b9150506115bf565b506000816001600160401b0381111561161257611612613ad0565b60405190808252806020026020018201604052801561163b578160200160208202803683370190505b509050600060015b6127108110156116995761165681611f9b565b15611687578083838151811061166e5761166e61422f565b6020908102919091010152816116838161425b565b9250505b806116918161425b565b915050611643565b50909392505050565b6060600082516001600160401b038111156116bf576116bf613ad0565b6040519080825280602002602001820160405280156116e8578160200160208202803683370190505b50905060005b835181101561176e57600086815261025b60209081526040808320888452909152812085519091908690849081106117285761172861422f565b60200260200101518152602001908152602001600020548282815181106117515761175161422f565b6020908102919091010152806117668161425b565b9150506116ee565b50949350505050565b6060600061178483611fa6565b9050600061179184612145565b9050600082826040516020016117a8929190614290565b60405160208183030381529060405290506117c281612192565b6040516020016117d291906142dd565b6040516020818303038152906040529350505050919050565b6000818152610191602052604081206106c8906122e4565b600082815261015f602052604090206001015461181f81611c83565b61094b8383611cb0565b60008051602061506b83398151915261184181611c83565b60005b83518110156110ca5782818151811061185f5761185f61422f565b602002602001015161025d6000888152602001908152602001600020600087815260200190815260200160002060008684815181106118a0576118a061422f565b6020026020010151815260200190815260200160002090816118c29190614368565b50806118cd8161425b565b915050611844565b6000805160206150ab8339815191526118ed81611c83565b600084815261025c6020908152604080832086845290915290206119118382614368565b50837fbf91c112c44cd8e958afe3106b290f594b5e23b83fcc88bdb9ac5da7f00be5698484604051611944929190614427565b60405180910390a250505050565b60005b8151811015610d0e5761198284848484815181106119755761197561422f565b6020026020010151610950565b8061198c8161425b565b915050611955565b60006106c8826122ee565b6119a881611f9b565b610c3a5760405162461bcd60e51b8152602060048201526018602482015277115490cdcc8c4e881a5b9d985b1a59081d1bdad95b88125160421b60448201526064016108aa565b600081815260696020526040902080546001600160a01b0319166001600160a01b0384169081179091558190611a2482610da7565b6001600160a01b03167f8c5be1e5ebec7d5bd14f71427d1e84f3dd0314c0f7b2291e5b200ac8c7c3b92560405160405180910390a45050565b600080611a6983610da7565b9050806001600160a01b0316846001600160a01b03161480611ab057506001600160a01b038082166000908152606a602090815260408083209388168352929052205460ff165b80611ad45750836001600160a01b0316611ac98461080f565b6001600160a01b0316145b949350505050565b826001600160a01b0316611aef82610da7565b6001600160a01b031614611b535760405162461bcd60e51b815260206004820152602560248201527f4552433732313a207472616e736665722066726f6d20696e636f72726563742060448201526437bbb732b960d91b60648201526084016108aa565b6001600160a01b038216611bb55760405162461bcd60e51b8152602060048201526024808201527f4552433732313a207472616e7366657220746f20746865207a65726f206164646044820152637265737360e01b60648201526084016108aa565b611bc0838383612313565b611bcb6000826119ef565b6001600160a01b0383166000908152606860205260408120805460019290611bf4908490614440565b90915550506001600160a01b0382166000908152606860205260408120805460019290611c22908490614453565b909155505060008181526067602052604080822080546001600160a01b0319166001600160a01b0386811691821790925591518493918716917fddf252ad1be2c89b69c2b068fc378daa952ba7f163c4a11628f55a4df523b3ef91a4505050565b610c3a81336123cd565b611c978282612431565b60008281526101916020526040902061094b90826124b8565b611cba82826124cd565b60008281526101916020526040902061094b9082612535565b611cdb61254a565b61012d805460ff191690557f5db9ee0a495bf2e6ff9c91a7834c1ba4fdd244a5e8aa4e537bd38aeae4b073aa335b6040516001600160a01b03909116815260200160405180910390a1565b610c16828260405180602001604052806000815250612594565b600061135e83836125c7565b611d5581612616565b600081815260fb602052604090208054611d6e906141a7565b159050610c3a57600081815260fb60205260408120610c3a91613903565b60fc610c168282614368565b600054610100900460ff16611dbf5760405162461bcd60e51b81526004016108aa90614466565b610c1682826126bd565b600054610100900460ff16611df05760405162461bcd60e51b81526004016108aa90614466565b611df8611dfa565b565b600054610100900460ff16611df85760405162461bcd60e51b81526004016108aa90614466565b600054610100900460ff16611e485760405162461bcd60e51b81526004016108aa90614466565b611df86126fd565b611e58612731565b61012d805460ff191660011790557f62e78cea01bee320cd4e420270b5ea74000d11b0c9f74754ebdbfc544b05a258611d093390565b600061135e8383612778565b816001600160a01b0316836001600160a01b031603611efb5760405162461bcd60e51b815260206004820152601960248201527f4552433732313a20617070726f766520746f2063616c6c65720000000000000060448201526064016108aa565b6001600160a01b038381166000818152606a6020908152604080832094871680845294825291829020805460ff191686151590811790915591519182527f17307eab39ab6107e8899845ad3d59bd9653f200f220920489ca2b5937696c31910160405180910390a3505050565b611f73848484611adc565b611f7f848484846127a2565b610d0e5760405162461bcd60e51b81526004016108aa906144b1565b60006106c8826128a3565b600081815261025c60209081526040808320838052909152812080546060929190611fd0906141a7565b80601f0160208091040260200160405190810160405280929190818152602001828054611ffc906141a7565b80156120495780601f1061201e57610100808354040283529160200191612049565b820191906000526020600020905b81548152906001019060200180831161202c57829003601f168201915b505050600086815261025b6020908152604080832083805282528083209091528120549394509215915061209d9050576040518060400160405280600681526020016546656d616c6560d01b8152506120bb565b604051806040016040528060048152602001634d616c6560e01b8152505b9050600060fc6120ca866128c2565b6040516020016120db929190614576565b604051602081830303815290604052905060006120f786610da7565b905082612103876128c2565b8584612117856001600160a01b03166129c2565b60405160200161212b95949392919061459b565b604051602081830303815290604052945050505050919050565b60606000612152836129d8565b9050600061215f84612dc8565b9050600061216c85612ed1565b9050600061217986612f27565b90508383828460405160200161212b94939291906146dc565b606081516000036121b157505060408051602081019091526000815290565b600060405180606001604052806040815260200161500b60409139905060006003845160026121e09190614453565b6121ea919061477b565b6121f590600461478f565b6001600160401b0381111561220c5761220c613ad0565b6040519080825280601f01601f191660200182016040528015612236576020820181803683370190505b509050600182016020820185865187015b808210156122a2576003820191508151603f8160121c168501518453600184019350603f81600c1c168501518453600184019350603f8160061c168501518453600184019350603f8116850151845350600183019250612247565b50506003865106600181146122be57600281146122d1576122d9565b603d6001830353603d60028303536122d9565b603d60018303535b509195945050505050565b60006106c8825490565b60006001600160e01b03198216635a05180f60e01b14806106c857506106c882612f56565b61231b612731565b8261232861025982612f7b565b1561236b5760405162461bcd60e51b8152602060048201526013602482015272426c61636b6c6973746564206164647265737360681b60448201526064016108aa565b8261237861025982612f7b565b156123bb5760405162461bcd60e51b8152602060048201526013602482015272426c61636b6c6973746564206164647265737360681b60448201526064016108aa565b6123c6858585612f9d565b5050505050565b6123d78282611365565b610c16576123ef816001600160a01b03166014612fa8565b6123fa836020612fa8565b60405160200161240b9291906147ae565b60408051601f198184030181529082905262461bcd60e51b82526108aa916004016139d4565b61243b8282611365565b610c1657600082815261015f602090815260408083206001600160a01b03851684529091529020805460ff191660011790556124743390565b6001600160a01b0316816001600160a01b0316837f2f8788117e7eff1d82e926ec794901d17c78024a50270940304540a733656f0d60405160405180910390a45050565b600061135e836001600160a01b0384166125c7565b6124d78282611365565b15610c1657600082815261015f602090815260408083206001600160a01b0385168085529252808320805460ff1916905551339285917ff6391f5c32d9c69d2a47ea670b442974b53935d1edc7fd64eb21e047a839171b9190a45050565b600061135e836001600160a01b038416613143565b61012d5460ff16611df85760405162461bcd60e51b815260206004820152601460248201527314185d5cd8589b194e881b9bdd081c185d5cd95960621b60448201526064016108aa565b61259e8383613236565b6125ab60008484846127a2565b61094b5760405162461bcd60e51b81526004016108aa906144b1565b600081815260018301602052604081205461260e575081546001818101845560008481526020808220909301849055845484825282860190935260409020919091556106c8565b5060006106c8565b600061262182610da7565b905061262f81600084612313565b61263a6000836119ef565b6001600160a01b0381166000908152606860205260408120805460019290612663908490614440565b909155505060008281526067602052604080822080546001600160a01b0319169055518391906001600160a01b038416907fddf252ad1be2c89b69c2b068fc378daa952ba7f163c4a11628f55a4df523b3ef908390a45050565b600054610100900460ff166126e45760405162461bcd60e51b81526004016108aa90614466565b60656126f08382614368565b50606661094b8282614368565b600054610100900460ff166127245760405162461bcd60e51b81526004016108aa90614466565b61012d805460ff19169055565b61012d5460ff1615611df85760405162461bcd60e51b815260206004820152601060248201526f14185d5cd8589b194e881c185d5cd95960821b60448201526064016108aa565b600082600001828154811061278f5761278f61422f565b9060005260206000200154905092915050565b60006001600160a01b0384163b1561289857604051630a85bd0160e11b81526001600160a01b0385169063150b7a02906127e6903390899088908890600401614823565b6020604051808303816000875af1925050508015612821575060408051601f3d908101601f1916820190925261281e91810190614860565b60015b61287e573d80801561284f576040519150601f19603f3d011682016040523d82523d6000602084013e612854565b606091505b5080516000036128765760405162461bcd60e51b81526004016108aa906144b1565b805181602001fd5b6001600160e01b031916630a85bd0160e11b149050611ad4565b506001949350505050565b6000818152606760205260408120546001600160a01b031615156106c8565b6060816000036128e95750506040805180820190915260018152600360fc1b602082015290565b8160005b811561291357806128fd8161425b565b915061290c9050600a8361477b565b91506128ed565b6000816001600160401b0381111561292d5761292d613ad0565b6040519080825280601f01601f191660200182016040528015612957576020820181803683370190505b5090505b8415611ad45761296c600183614440565b9150612979600a8661487d565b612984906030614453565b60f81b8183815181106129995761299961422f565b60200101906001600160f81b031916908160001a9053506129bb600a8661477b565b945061295b565b60606106c86001600160a01b0383166014612fa8565b600081815261025b6020908152604080832083805282528083208252808320548084527fd9d034abc3dd6f141dca3b2167b44f17054d53473a5c750d3cfac3c8b6e05aec835290832083805261025d909252606092909160008051602061508b833981519152828415612a4c57600b612a4f565b60015b60ff1681526020808201929092526040908101600090812088825261025b84528282208280528452828220600183528452828220548252835290812081805261025d90925260008051602061508b833981519152908515612ab157600c612ab4565b60025b60ff1681526020808201929092526040908101600090812089825261025b8452828220828052845282822060028352845282822054825283528190209051612afe94939201614891565b60408051601f19818403018152919052600080805261025d60205290915060008051602061508b833981519152818415612b3957600d612b3c565b60035b60ff1681526020808201929092526040908101600090812088825261025b84528282208280528452828220600383528452828220548252835290812081805261025d90925260008051602061508b833981519152908515612b9e57600e612ba1565b60045b60ff1681526020808201929092526040908101600090812089825261025b84528282208280528452828220600483528452828220548252835290812081805261025d90925260008051602061508b833981519152908615612c0357600f612c06565b60055b60ff168152602080820192909252604090810160009081208a825261025b8452828220828052845282822060058352845282822054825283528190209051612c5094939201614955565b60408051601f19818403018152919052600080805261025d60205290915060008051602061508b833981519152818515612c8b576010612c8e565b60065b60ff1681526020808201929092526040908101600090812089825261025b84528282208280528452828220600683528452828220548252835290812081805261025d90925260008051602061508b833981519152908615612cf0576011612cf3565b60075b60ff168152602080820192909252604090810160009081208a825261025b84528282208280528452828220600783528452828220548252835290812081805261025d90925260008051602061508b833981519152908715612d55576012612d58565b60085b60ff168152602080820192909252604090810160009081208b825261025b8452828220828052845282822060088352845282822054825283528190209051612da2949392016149fc565b604051602081830303815290604052905082828260405160200161212b93929190614aa3565b600081815261025b602090815260408083208380528252808320600984529091528120546060919015612e1757604051806040016040528060048152602001635472756560e01b815250612e36565b6040518060400160405280600581526020016446616c736560d81b8152505b600084815261025b602090815260408083208380528252808320600a84529091528120549192509015612e8557604051806040016040528060048152602001635472756560e01b815250612ea4565b6040518060400160405280600581526020016446616c736560d81b8152505b90508181604051602001612eb9929190614ae6565b60405160208183030381529060405292505050919050565b600081815261025b60209081526040808320600284528252808320838052909152902054606090612f01906128c2565b604051602001612f119190614b96565b6040516020818303038152906040529050919050565b60606000612f3483613375565b90506000612f41846134e2565b90508181604051602001612eb9929190614bf6565b60006001600160e01b03198216637965db0b60e01b14806106c857506106c882613630565b6001600160a01b0381166000908152600183016020526040812054151561135e565b61094b83838361363b565b60606000612fb783600261478f565b612fc2906002614453565b6001600160401b03811115612fd957612fd9613ad0565b6040519080825280601f01601f191660200182016040528015613003576020820181803683370190505b509050600360fc1b8160008151811061301e5761301e61422f565b60200101906001600160f81b031916908160001a905350600f60fb1b8160018151811061304d5761304d61422f565b60200101906001600160f81b031916908160001a905350600061307184600261478f565b61307c906001614453565b90505b60018111156130f4576f181899199a1a9b1b9c1cb0b131b232b360811b85600f16601081106130b0576130b061422f565b1a60f81b8282815181106130c6576130c661422f565b60200101906001600160f81b031916908160001a90535060049490941c936130ed81614c1c565b905061307f565b50831561135e5760405162461bcd60e51b815260206004820181905260248201527f537472696e67733a20686578206c656e67746820696e73756666696369656e7460448201526064016108aa565b6000818152600183016020526040812054801561322c576000613167600183614440565b855490915060009061317b90600190614440565b90508181146131e057600086600001828154811061319b5761319b61422f565b90600052602060002001549050808760000184815481106131be576131be61422f565b6000918252602080832090910192909255918252600188019052604090208390555b85548690806131f1576131f1614c33565b6001900381819060005260206000200160009055905585600101600086815260200190815260200160002060009055600193505050506106c8565b60009150506106c8565b6001600160a01b03821661328c5760405162461bcd60e51b815260206004820181905260248201527f4552433732313a206d696e7420746f20746865207a65726f206164647265737360448201526064016108aa565b61329581611f9b565b156132e25760405162461bcd60e51b815260206004820152601c60248201527f4552433732313a20746f6b656e20616c7265616479206d696e7465640000000060448201526064016108aa565b6132ee60008383612313565b6001600160a01b0382166000908152606860205260408120805460019290613317908490614453565b909155505060008181526067602052604080822080546001600160a01b0319166001600160a01b03861690811790915590518392907fddf252ad1be2c89b69c2b068fc378daa952ba7f163c4a11628f55a4df523b3ef908290a45050565b600081815261025b60209081526040808320600184528252808320838052909152812054606091906133a6906128c2565b600084815261025b602090815260408083206001845282528083209091529020546133d0906128c2565b600085815261025b60209081526040808320600184528252808320600284529091529020546133fe906128c2565b60405160200161341093929190614c49565b60408051601f19818403018152918152600085815261025b60209081528282206001835281528282206003835290529081205491925090613450906128c2565b600085815261025b602090815260408083206001845282528083206004845290915290205461347e906128c2565b600086815261025b60209081526040808320600184528252808320600584529091529020546134ac906128c2565b6040516020016134be93929190614d3b565b60405160208183030381529060405290508181604051602001612eb9929190614bf6565b600081815261025b602090815260408083206001845282528083206006845290915281205460609190613514906128c2565b600084815261025b6020908152604080832060018452825280832060078452909152902054613542906128c2565b600085815261025b6020908152604080832060018452825280832060088452909152902054613570906128c2565b60405160200161358293929190614e28565b60408051601f19818403018152918152600085815261025b602090815282822060018352815282822060098352905290812054919250906135c2906128c2565b600085815261025b60209081526040808320600184528252808320600a84529091529020546135f0906128c2565b600086815261025b60209081526040808320600184528252808320600b845290915290205461361e906128c2565b6040516020016134be93929190614f19565b60006106c882613646565b61094b83838361366b565b60006001600160e01b0319821663780e9d6360e01b14806106c857506106c882613723565b6001600160a01b0383166136c6576136c181609980546000838152609a60205260408120829055600182018355919091527f72a152ddfb8e864297c917af52ea6c1c68aead0fee1a62673fcc7e0c94979d000155565b6136e9565b816001600160a01b0316836001600160a01b0316146136e9576136e98382613773565b6001600160a01b0382166137005761094b81613810565b826001600160a01b0316826001600160a01b03161461094b5761094b82826138bf565b60006001600160e01b031982166380ac58cd60e01b148061375457506001600160e01b03198216635b5e139f60e01b145b806106c857506301ffc9a760e01b6001600160e01b03198316146106c8565b6000600161378084610ee0565b61378a9190614440565b6000838152609860205260409020549091508082146137dd576001600160a01b03841660009081526097602090815260408083208584528252808320548484528184208190558352609890915290208190555b5060009182526098602090815260408084208490556001600160a01b039094168352609781528383209183525290812055565b60995460009061382290600190614440565b6000838152609a60205260408120546099805493945090928490811061384a5761384a61422f565b90600052602060002001549050806099838154811061386b5761386b61422f565b6000918252602080832090910192909255828152609a909152604080822084905585825281205560998054806138a3576138a3614c33565b6001900381819060005260206000200160009055905550505050565b60006138ca83610ee0565b6001600160a01b039093166000908152609760209081526040808320868452825280832085905593825260989052919091209190915550565b50805461390f906141a7565b6000825580601f1061391f575050565b601f016020900490600052602060002090810190610c3a91905b8082111561394d5760008155600101613939565b5090565b6001600160e01b031981168114610c3a57600080fd5b60006020828403121561397957600080fd5b813561135e81613951565b60005b8381101561399f578181015183820152602001613987565b50506000910152565b600081518084526139c0816020860160208601613984565b601f01601f19169290920160200192915050565b60208152600061135e60208301846139a8565b600080604083850312156139fa57600080fd5b50508035926020909101359150565b600060208284031215613a1b57600080fd5b5035919050565b80356001600160a01b0381168114613a3957600080fd5b919050565b60008060408385031215613a5157600080fd5b613a5a83613a22565b946020939093013593505050565b600080600060608486031215613a7d57600080fd5b613a8684613a22565b9250613a9460208501613a22565b9150604084013590509250925092565b60008060408385031215613ab757600080fd5b82359150613ac760208401613a22565b90509250929050565b634e487b7160e01b600052604160045260246000fd5b604051601f8201601f191681016001600160401b0381118282101715613b0e57613b0e613ad0565b604052919050565b60006001600160401b03821115613b2f57613b2f613ad0565b5060051b60200190565b600082601f830112613b4a57600080fd5b81356020613b5f613b5a83613b16565b613ae6565b82815260059290921b84018101918181019086841115613b7e57600080fd5b8286015b84811015613b995780358352918301918301613b82565b509695505050505050565b60008060408385031215613bb757600080fd5b82356001600160401b03811115613bcd57600080fd5b613bd985828601613b39565b95602094909401359450505050565b6000602080830181845280855180835260408601915060408160051b870101925083870160005b82811015613c3d57603f19888603018452613c2b8583516139a8565b94509285019290850190600101613c0f565b5092979650505050505050565b600080600060608486031215613c5f57600080fd5b505081359360208301359350604090920135919050565b60008060408385031215613c8957600080fd5b613c9283613a22565b915060208301356001600160401b03811115613cad57600080fd5b613cb985828601613b39565b9150509250929050565b60006001600160401b03831115613cdc57613cdc613ad0565b613cef601f8401601f1916602001613ae6565b9050828152838383011115613d0357600080fd5b828260208301376000602084830101529392505050565b600082601f830112613d2b57600080fd5b61135e83833560208501613cc3565b600060208284031215613d4c57600080fd5b81356001600160401b03811115613d6257600080fd5b611ad484828501613d1a565b600060208284031215613d8057600080fd5b81356001600160401b03811115613d9657600080fd5b611ad484828501613b39565b600060208284031215613db457600080fd5b61135e82613a22565b60008060008060808587031215613dd357600080fd5b84356001600160401b0380821115613dea57600080fd5b613df688838901613b39565b95506020870135915080821115613e0c57600080fd5b613e1888838901613b39565b94506040870135915080821115613e2e57600080fd5b613e3a88838901613b39565b93506060870135915080821115613e5057600080fd5b50613e5d87828801613b39565b91505092959194509250565b6020808252825182820181905260009190848201906040850190845b81811015613ea157835183529284019291840191600101613e85565b50909695505050505050565b60008060408385031215613ec057600080fd5b8235915060208301356001600160401b03811115613cad57600080fd5b60008060408385031215613ef057600080fd5b613ef983613a22565b915060208301358015158114613f0e57600080fd5b809150509250929050565b60008060008060808587031215613f2f57600080fd5b5050823594602084013594506040840135936060013592509050565b60008060008060808587031215613f6157600080fd5b613f6a85613a22565b9350613f7860208601613a22565b92506040850135915060608501356001600160401b03811115613f9a57600080fd5b8501601f81018713613fab57600080fd5b613e5d87823560208401613cc3565b600080600060608486031215613fcf57600080fd5b833592506020840135915060408401356001600160401b03811115613ff357600080fd5b613fff86828701613b39565b9150509250925092565b6000806000806080858703121561401f57600080fd5b84359350602080860135935060408601356001600160401b038082111561404557600080fd5b61405189838a01613b39565b9450606088013591508082111561406757600080fd5b818801915088601f83011261407b57600080fd5b8135614089613b5a82613b16565b81815260059190911b8301840190848101908b8311156140a857600080fd5b8585015b838110156140e0578035858111156140c45760008081fd5b6140d28e89838a0101613d1a565b8452509186019186016140ac565b50989b979a50959850505050505050565b6000806040838503121561410457600080fd5b61410d83613a22565b9150613ac760208401613a22565b60008060006060848603121561413057600080fd5b833592506020840135915060408401356001600160401b0381111561415457600080fd5b613fff86828701613d1a565b60008060006060848603121561417557600080fd5b61417e84613a22565b925061418c60208501613a22565b915060408401356001600160401b03811115613ff357600080fd5b600181811c908216806141bb57607f821691505b6020821081036141db57634e487b7160e01b600052602260045260246000fd5b50919050565b6020808252602e908201527f4552433732313a2063616c6c6572206973206e6f7420746f6b656e206f776e6560408201526d1c881b9bdc88185c1c1c9bdd995960921b606082015260800190565b634e487b7160e01b600052603260045260246000fd5b634e487b7160e01b600052601160045260246000fd5b60006001820161426d5761426d614245565b5060010190565b60008151614286818560208601613984565b9290920192915050565b607b60f81b8152600083516142ac816001850160208801613984565b8351908301906142c3816001840160208801613984565b607d60f81b60019290910191820152600201949350505050565b7f646174613a6170706c69636174696f6e2f6a736f6e3b6261736536342c00000081526000825161431581601d850160208701613984565b91909101601d0192915050565b601f82111561094b57600081815260208120601f850160051c810160208610156143495750805b601f850160051c820191505b818110156110ca57828155600101614355565b81516001600160401b0381111561438157614381613ad0565b6143958161438f84546141a7565b84614322565b602080601f8311600181146143ca57600084156143b25750858301515b600019600386901b1c1916600185901b1785556110ca565b600085815260208120601f198616915b828110156143f9578886015182559484019460019091019084016143da565b50858210156144175787850151600019600388901b60f8161c191681555b5050505050600190811b01905550565b828152604060208201526000611ad460408301846139a8565b818103818111156106c8576106c8614245565b808201808211156106c8576106c8614245565b6020808252602b908201527f496e697469616c697a61626c653a20636f6e7472616374206973206e6f74206960408201526a6e697469616c697a696e6760a81b606082015260800190565b60208082526032908201527f4552433732313a207472616e7366657220746f206e6f6e20455243373231526560408201527131b2b4bb32b91034b6b83632b6b2b73a32b960711b606082015260800190565b60008154614510816141a7565b60018281168015614528576001811461453d5761456c565b60ff198416875282151583028701945061456c565b8560005260208060002060005b858110156145635781548a82015290840190820161454a565b50505082870194505b5050505092915050565b60006145828285614503565b8351614592818360208801613984565b01949350505050565b6e0113730b6b2911d1121b7b9b6b4b19608d1b815285516000906145c681600f850160208b01613984565b682057697a617264202360b81b600f9184019182015286516145ef816018840160208b01613984565b61088b60f21b6018929091019182018190526d1131bab9ba37b6a730b6b2911d1160911b601a830152865161462b816028850160208b01613984565b60289201918201527f226465736372697074696f6e223a224120436f736d69632057697a617264222c602a8201526146d06146b461468b6146ae61469982614685604a8801681134b6b0b3b2911d1160b91b815260090190565b8b614274565b61088b60f21b815260020190565b681137bbb732b9111d1160b91b815260090190565b87614274565b6f089d1e5c19488e88915490cdcc8c488b60821b815260100190565b98975050505050505050565b6d2261747472696275746573223a5b60901b8152845160009061470681600e850160208a01613984565b85519083019061471d81600e840160208a01613984565b855191019061473381600e840160208901613984565b845191019061474981600e840160208801613984565b605d60f81b600e9290910191820152600f019695505050505050565b634e487b7160e01b600052601260045260246000fd5b60008261478a5761478a614765565b500490565b60008160001904831182151516156147a9576147a9614245565b500290565b7f416363657373436f6e74726f6c3a206163636f756e74200000000000000000008152600083516147e6816017850160208801613984565b7001034b99036b4b9b9b4b733903937b6329607d1b6017918401918201528351614817816028840160208801613984565b01602801949350505050565b6001600160a01b0385811682528416602082015260408101839052608060608201819052600090614856908301846139a8565b9695505050505050565b60006020828403121561487257600080fd5b815161135e81613951565b60008261488c5761488c614765565b500690565b7f7b2274726169745f74797065223a2247656e646572222c2276616c7565223a22815260006148c36020830186614503565b62089f4b60ea1b8082527f7b2274726169745f74797065223a224261636b67726f756e64222c2276616c7560038301526332911d1160e11b602383015261490d6027830187614503565b91508082527f7b2274726169745f74797065223a2248616972222c2276616c7565223a22000060038301526149456021830186614503565b9081526003019695505050505050565b7f7b2274726169745f74797065223a22486174222c2276616c7565223a2200000081526000614987601d830186614503565b62089f4b60ea1b8082527f7b2274726169745f74797065223a2245796573222c2276616c7565223a22000060038301526149c46021830187614503565b91508082527f7b2274726169745f74797065223a2242617365222c2276616c7565223a22000060038301526149456021830186614503565b7f7b2274726169745f74797065223a225374616666222c2276616c7565223a220081526000614a2e601f830186614503565b62089f4b60ea1b8082527f7b2274726169745f74797065223a22526f6265222c2276616c7565223a2200006003830152614a6b6021830187614503565b91508082527f7b2274726169745f74797065223a224d6f757468222c2276616c7565223a220060038301526149456022830186614503565b60008451614ab5818460208901613984565b845190830190614ac9818360208901613984565b8451910190614adc818360208801613984565b0195945050505050565b7f7b2274726169745f74797065223a225374616b696e6720556e6c6f636b65642281526916113b30b63ab2911d1160b11b602082015260008351614b3181602a850160208801613984565b7f227d2c7b2274726169745f74797065223a225374616b6564222c2276616c7565602a9184019182015262111d1160e91b604a8201528351614b7a81604d840160208801613984565b62089f4b60ea1b604d9290910191820152605001949350505050565b7f7b2274726169745f74797065223a2243686573747320436c61696d6564222c228152663b30b63ab2911d60c91b602082015260008251614bde816027850160208701613984565b607d60f81b6027939091019283015250602801919050565b60008351614c08818460208801613984565b835190830190614592818360208801613984565b600081614c2b57614c2b614245565b506000190190565b634e487b7160e01b600052603160045260246000fd5b7f7b2274726169745f74797065223a22416c6368656d79222c2276616c7565223a815260008451614c81816020850160208901613984565b8083019050611f4b60f21b8060208301527f7b2274726169745f74797065223a22417263686974656374757265222c227661602283015264363ab2911d60d91b60428301528551614cd9816047850160208a01613984565b604792019182018190527f7b2274726169745f74797065223a2243617270656e747279222c2276616c7565604983015261111d60f11b60698301528451614d2781606b850160208901613984565b606b920191820152606d0195945050505050565b7f7b2274726169745f74797065223a22436f6f6b696e67222c2276616c7565223a815260008451614d73816020850160208901613984565b8083019050611f4b60f21b8060208301527f7b2274726169745f74797065223a224372797374616c2045787472616374696f60228301526a371116113b30b63ab2911d60a91b60428301528551614dd181604d850160208a01613984565b604d92019182018190527f7b2274726169745f74797065223a224661726d696e67222c2276616c7565223a604f8301528451614e1481606f850160208901613984565b606f92019182015260710195945050505050565b7f7b2274726169745f74797065223a2246697368696e67222c2276616c7565223a815260008451614e60816020850160208901613984565b8083019050611f4b60f21b8060208301527f7b2274726169745f74797065223a2247656d2043757474696e67222c2276616c6022830152633ab2911d60e11b60428301528551614eb7816046850160208a01613984565b604692019182018190527f7b2274726169745f74797065223a2248657262616c69736d222c2276616c7565604883015261111d60f11b60688301528451614f0581606a850160208901613984565b606a920191820152606c0195945050505050565b7f7b2274726169745f74797065223a224d696e696e67222c2276616c7565223a00815260008451614f5181601f850160208901613984565b611f4b60f21b601f9184019182018190527f7b2274726169745f74797065223a225461696c6f72696e67222c2276616c7565602183015261111d60f11b60418301528551614fa6816043850160208a01613984565b604392019182018190527f7b2274726169745f74797065223a22576f6f6463757474696e67222c2276616c6045830152633ab2911d60e11b60658301528451614ff6816069850160208901613984565b6069920191820152606b019594505050505056fe4142434445464748494a4b4c4d4e4f505152535455565758595a6162636465666768696a6b6c6d6e6f707172737475767778797a303132333435363738392b2f9f2df0fed2c77648de5860a4cc508cd0818c85b8b8a1ab4ceeef8d981c8956a6a49807205ce4d355092ef5a8a18f56e8913cf4a201fbe287825b095693c21775c2e37eb2a2c05b6e450c98b87ad0501492e48962d4d9a01e70045b922965061f364d3d7565c7a8300c96fd53e065d19b65848d7b23b3191adcd55621c744223ca264697066735822122053dbdd3f3fac719dc97c7a97790e5cc938f43fb8fb009e1db28fc085211c55bc64736f6c63430008100033",
  "linkReferences": {},
  "deployedLinkReferences": {}
}