{
  "_format": "hh-sol-artifact-1",
  "contractName": "CosmicWizardsUpgradeable",
  "sourceName": "contracts/upgradeable/ERC721/CosmicWizardsUpgradeable.sol",
  "abi": [
    {
      "inputs": [],
      "stateMutability": "nonpayable",
      "type": "constructor"
    },
    {
      "anonymous": false,
      "inputs": [
        {
          "indexed": true,
          "internalType": "address",
          "name": "owner",
          "type": "address"
        },
        {
          "indexed": true,
          "internalType": "address",
          "name": "approved",
          "type": "address"
        },
        {
          "indexed": true,
          "internalType": "uint256",
          "name": "tokenId",
          "type": "uint256"
        }
      ],
      "name": "Approval",
      "type": "event"
    },
    {
      "anonymous": false,
      "inputs": [
        {
          "indexed": true,
          "internalType": "address",
          "name": "owner",
          "type": "address"
        },
        {
          "indexed": true,
          "internalType": "address",
          "name": "operator",
          "type": "address"
        },
        {
          "indexed": false,
          "internalType": "bool",
          "name": "approved",
          "type": "bool"
        }
      ],
      "name": "ApprovalForAll",
      "type": "event"
    },
    {
      "anonymous": false,
      "inputs": [
        {
          "indexed": false,
          "internalType": "uint8",
          "name": "version",
          "type": "uint8"
        }
      ],
      "name": "Initialized",
      "type": "event"
    },
    {
      "anonymous": false,
      "inputs": [
        {
          "indexed": false,
          "internalType": "address",
          "name": "account",
          "type": "address"
        }
      ],
      "name": "Paused",
      "type": "event"
    },
    {
      "anonymous": false,
      "inputs": [
        {
          "indexed": true,
          "internalType": "bytes32",
          "name": "role",
          "type": "bytes32"
        },
        {
          "indexed": true,
          "internalType": "bytes32",
          "name": "previousAdminRole",
          "type": "bytes32"
        },
        {
          "indexed": true,
          "internalType": "bytes32",
          "name": "newAdminRole",
          "type": "bytes32"
        }
      ],
      "name": "RoleAdminChanged",
      "type": "event"
    },
    {
      "anonymous": false,
      "inputs": [
        {
          "indexed": true,
          "internalType": "bytes32",
          "name": "role",
          "type": "bytes32"
        },
        {
          "indexed": true,
          "internalType": "address",
          "name": "account",
          "type": "address"
        },
        {
          "indexed": true,
          "internalType": "address",
          "name": "sender",
          "type": "address"
        }
      ],
      "name": "RoleGranted",
      "type": "event"
    },
    {
      "anonymous": false,
      "inputs": [
        {
          "indexed": true,
          "internalType": "bytes32",
          "name": "role",
          "type": "bytes32"
        },
        {
          "indexed": true,
          "internalType": "address",
          "name": "account",
          "type": "address"
        },
        {
          "indexed": true,
          "internalType": "address",
          "name": "sender",
          "type": "address"
        }
      ],
      "name": "RoleRevoked",
      "type": "event"
    },
    {
      "anonymous": false,
      "inputs": [
        {
          "indexed": true,
          "internalType": "uint256",
          "name": "tokenId",
          "type": "uint256"
        },
        {
          "indexed": false,
          "internalType": "uint256",
          "name": "customId",
          "type": "uint256"
        },
        {
          "indexed": false,
          "internalType": "string",
          "name": "value",
          "type": "string"
        }
      ],
      "name": "TextUpdated",
      "type": "event"
    },
    {
      "anonymous": false,
      "inputs": [
        {
          "indexed": true,
          "internalType": "address",
          "name": "from",
          "type": "address"
        },
        {
          "indexed": true,
          "internalType": "address",
          "name": "to",
          "type": "address"
        },
        {
          "indexed": true,
          "internalType": "uint256",
          "name": "tokenId",
          "type": "uint256"
        }
      ],
      "name": "Transfer",
      "type": "event"
    },
    {
      "anonymous": false,
      "inputs": [
        {
          "indexed": false,
          "internalType": "address",
          "name": "account",
          "type": "address"
        }
      ],
      "name": "Unpaused",
      "type": "event"
    },
    {
      "anonymous": false,
      "inputs": [
        {
          "indexed": true,
          "internalType": "uint256",
          "name": "tokenId",
          "type": "uint256"
        },
        {
          "indexed": false,
          "internalType": "uint256",
          "name": "treeId",
          "type": "uint256"
        },
        {
          "indexed": false,
          "internalType": "uint256",
          "name": "skillId",
          "type": "uint256"
        },
        {
          "indexed": false,
          "internalType": "uint256",
          "name": "value",
          "type": "uint256"
        }
      ],
      "name": "ValueUpdated",
      "type": "event"
    },
    {
      "inputs": [],
      "name": "ADMIN_ROLE",
      "outputs": [
        {
          "internalType": "bytes32",
          "name": "",
          "type": "bytes32"
        }
      ],
      "stateMutability": "view",
      "type": "function"
    },
    {
      "inputs": [],
      "name": "CONTRACT_ROLE",
      "outputs": [
        {
          "internalType": "bytes32",
          "name": "",
          "type": "bytes32"
        }
      ],
      "stateMutability": "view",
      "type": "function"
    },
    {
      "inputs": [],
      "name": "DEFAULT_ADMIN_ROLE",
      "outputs": [
        {
          "internalType": "bytes32",
          "name": "",
          "type": "bytes32"
        }
      ],
      "stateMutability": "view",
      "type": "function"
    },
    {
      "inputs": [],
      "name": "MINTER_ROLE",
      "outputs": [
        {
          "internalType": "bytes32",
          "name": "",
          "type": "bytes32"
        }
      ],
      "stateMutability": "view",
      "type": "function"
    },
    {
      "inputs": [
        {
          "internalType": "address",
          "name": "to",
          "type": "address"
        },
        {
          "internalType": "uint256",
          "name": "tokenId",
          "type": "uint256"
        }
      ],
      "name": "approve",
      "outputs": [],
      "stateMutability": "nonpayable",
      "type": "function"
    },
    {
      "inputs": [
        {
          "internalType": "address",
          "name": "owner",
          "type": "address"
        }
      ],
      "name": "balanceOf",
      "outputs": [
        {
          "internalType": "uint256",
          "name": "",
          "type": "uint256"
        }
      ],
      "stateMutability": "view",
      "type": "function"
    },
    {
      "inputs": [
        {
          "internalType": "address",
          "name": "to",
          "type": "address"
        },
        {
          "internalType": "uint256[]",
          "name": "tokenIds",
          "type": "uint256[]"
        }
      ],
      "name": "batchMint",
      "outputs": [],
      "stateMutability": "nonpayable",
      "type": "function"
    },
    {
      "inputs": [
        {
          "internalType": "uint256[]",
          "name": "tokenIds",
          "type": "uint256[]"
        }
      ],
      "name": "batchTokenURI",
      "outputs": [
        {
          "internalType": "string[]",
          "name": "",
          "type": "string[]"
        }
      ],
      "stateMutability": "view",
      "type": "function"
    },
    {
      "inputs": [
        {
          "internalType": "address",
          "name": "from",
          "type": "address"
        },
        {
          "internalType": "address",
          "name": "to",
          "type": "address"
        },
        {
          "internalType": "uint256[]",
          "name": "tokenIds",
          "type": "uint256[]"
        }
      ],
      "name": "batchTransferFrom",
      "outputs": [],
      "stateMutability": "nonpayable",
      "type": "function"
    },
    {
      "inputs": [
        {
          "internalType": "uint256[]",
          "name": "tokenIds",
          "type": "uint256[]"
        },
        {
          "internalType": "uint256[]",
          "name": "treeIds",
          "type": "uint256[]"
        },
        {
          "internalType": "uint256[]",
          "name": "skillIds",
          "type": "uint256[]"
        },
        {
          "internalType": "uint256[]",
          "name": "values",
          "type": "uint256[]"
        }
      ],
      "name": "batchUpdateSkills",
      "outputs": [],
      "stateMutability": "nonpayable",
      "type": "function"
    },
    {
      "inputs": [
        {
          "internalType": "uint256",
          "name": "tokenId",
          "type": "uint256"
        }
      ],
      "name": "burn",
      "outputs": [],
      "stateMutability": "nonpayable",
      "type": "function"
    },
    {
      "inputs": [],
      "name": "getAllTokenIds",
      "outputs": [
        {
          "internalType": "uint256[]",
          "name": "",
          "type": "uint256[]"
        }
      ],
      "stateMutability": "view",
      "type": "function"
    },
    {
      "inputs": [
        {
          "internalType": "uint256",
          "name": "tokenId",
          "type": "uint256"
        }
      ],
      "name": "getApproved",
      "outputs": [
        {
          "internalType": "address",
          "name": "",
          "type": "address"
        }
      ],
      "stateMutability": "view",
      "type": "function"
    },
    {
      "inputs": [
        {
          "internalType": "bytes32",
          "name": "role",
          "type": "bytes32"
        }
      ],
      "name": "getRoleAdmin",
      "outputs": [
        {
          "internalType": "bytes32",
          "name": "",
          "type": "bytes32"
        }
      ],
      "stateMutability": "view",
      "type": "function"
    },
    {
      "inputs": [
        {
          "internalType": "bytes32",
          "name": "role",
          "type": "bytes32"
        },
        {
          "internalType": "uint256",
          "name": "index",
          "type": "uint256"
        }
      ],
      "name": "getRoleMember",
      "outputs": [
        {
          "internalType": "address",
          "name": "",
          "type": "address"
        }
      ],
      "stateMutability": "view",
      "type": "function"
    },
    {
      "inputs": [
        {
          "internalType": "bytes32",
          "name": "role",
          "type": "bytes32"
        }
      ],
      "name": "getRoleMemberCount",
      "outputs": [
        {
          "internalType": "uint256",
          "name": "",
          "type": "uint256"
        }
      ],
      "stateMutability": "view",
      "type": "function"
    },
    {
      "inputs": [
        {
          "internalType": "uint256",
          "name": "tokenId",
          "type": "uint256"
        },
        {
          "internalType": "uint256",
          "name": "treeId",
          "type": "uint256"
        },
        {
          "internalType": "uint256",
          "name": "skillId",
          "type": "uint256"
        }
      ],
      "name": "getSkill",
      "outputs": [
        {
          "internalType": "uint256",
          "name": "value",
          "type": "uint256"
        }
      ],
      "stateMutability": "view",
      "type": "function"
    },
    {
      "inputs": [
        {
          "internalType": "uint256",
          "name": "tokenId",
          "type": "uint256"
        },
        {
          "internalType": "uint256",
          "name": "treeId",
          "type": "uint256"
        },
        {
          "internalType": "uint256[]",
          "name": "skillIds",
          "type": "uint256[]"
        }
      ],
      "name": "getSkillsByTree",
      "outputs": [
        {
          "internalType": "uint256[]",
          "name": "",
          "type": "uint256[]"
        }
      ],
      "stateMutability": "view",
      "type": "function"
    },
    {
      "inputs": [
        {
          "internalType": "uint256",
          "name": "tokenId",
          "type": "uint256"
        },
        {
          "internalType": "uint256",
          "name": "customId",
          "type": "uint256"
        }
      ],
      "name": "getString",
      "outputs": [
        {
          "internalType": "string",
          "name": "value",
          "type": "string"
        }
      ],
      "stateMutability": "view",
      "type": "function"
    },
    {
      "inputs": [
        {
          "internalType": "uint256[]",
          "name": "tokenIds",
          "type": "uint256[]"
        },
        {
          "internalType": "uint256",
          "name": "customId",
          "type": "uint256"
        }
      ],
      "name": "getStringOfTokens",
      "outputs": [
        {
          "internalType": "string[]",
          "name": "",
          "type": "string[]"
        }
      ],
      "stateMutability": "view",
      "type": "function"
    },
    {
      "inputs": [
        {
          "internalType": "uint256",
          "name": "tokenId",
          "type": "uint256"
        },
        {
          "internalType": "uint256[]",
          "name": "customIds",
          "type": "uint256[]"
        }
      ],
      "name": "getStrings",
      "outputs": [
        {
          "internalType": "string[]",
          "name": "",
          "type": "string[]"
        }
      ],
      "stateMutability": "view",
      "type": "function"
    },
    {
      "inputs": [
        {
          "internalType": "bytes32",
          "name": "role",
          "type": "bytes32"
        },
        {
          "internalType": "address",
          "name": "account",
          "type": "address"
        }
      ],
      "name": "grantRole",
      "outputs": [],
      "stateMutability": "nonpayable",
      "type": "function"
    },
    {
      "inputs": [
        {
          "internalType": "bytes32",
          "name": "role",
          "type": "bytes32"
        },
        {
          "internalType": "address",
          "name": "account",
          "type": "address"
        }
      ],
      "name": "hasRole",
      "outputs": [
        {
          "internalType": "bool",
          "name": "",
          "type": "bool"
        }
      ],
      "stateMutability": "view",
      "type": "function"
    },
    {
      "inputs": [],
      "name": "imageBaseURI",
      "outputs": [
        {
          "internalType": "string",
          "name": "",
          "type": "string"
        }
      ],
      "stateMutability": "view",
      "type": "function"
    },
    {
      "inputs": [],
      "name": "initialize",
      "outputs": [],
      "stateMutability": "nonpayable",
      "type": "function"
    },
    {
      "inputs": [
        {
          "internalType": "address",
          "name": "owner",
          "type": "address"
        },
        {
          "internalType": "address",
          "name": "operator",
          "type": "address"
        }
      ],
      "name": "isApprovedForAll",
      "outputs": [
        {
          "internalType": "bool",
          "name": "",
          "type": "bool"
        }
      ],
      "stateMutability": "view",
      "type": "function"
    },
    {
      "inputs": [
        {
          "internalType": "address",
          "name": "to",
          "type": "address"
        },
        {
          "internalType": "uint256",
          "name": "tokenId",
          "type": "uint256"
        }
      ],
      "name": "mint",
      "outputs": [],
      "stateMutability": "nonpayable",
      "type": "function"
    },
    {
      "inputs": [],
      "name": "name",
      "outputs": [
        {
          "internalType": "string",
          "name": "",
          "type": "string"
        }
      ],
      "stateMutability": "view",
      "type": "function"
    },
    {
      "inputs": [
        {
          "internalType": "uint256",
          "name": "tokenId",
          "type": "uint256"
        }
      ],
      "name": "ownerOf",
      "outputs": [
        {
          "internalType": "address",
          "name": "",
          "type": "address"
        }
      ],
      "stateMutability": "view",
      "type": "function"
    },
    {
      "inputs": [],
      "name": "pause",
      "outputs": [],
      "stateMutability": "nonpayable",
      "type": "function"
    },
    {
      "inputs": [],
      "name": "paused",
      "outputs": [
        {
          "internalType": "bool",
          "name": "",
          "type": "bool"
        }
      ],
      "stateMutability": "view",
      "type": "function"
    },
    {
      "inputs": [
        {
          "internalType": "bytes32",
          "name": "role",
          "type": "bytes32"
        },
        {
          "internalType": "address",
          "name": "account",
          "type": "address"
        }
      ],
      "name": "renounceRole",
      "outputs": [],
      "stateMutability": "nonpayable",
      "type": "function"
    },
    {
      "inputs": [
        {
          "internalType": "bytes32",
          "name": "role",
          "type": "bytes32"
        },
        {
          "internalType": "address",
          "name": "account",
          "type": "address"
        }
      ],
      "name": "revokeRole",
      "outputs": [],
      "stateMutability": "nonpayable",
      "type": "function"
    },
    {
      "inputs": [
        {
          "internalType": "address",
          "name": "from",
          "type": "address"
        },
        {
          "internalType": "address",
          "name": "to",
          "type": "address"
        },
        {
          "internalType": "uint256",
          "name": "tokenId",
          "type": "uint256"
        }
      ],
      "name": "safeTransferFrom",
      "outputs": [],
      "stateMutability": "nonpayable",
      "type": "function"
    },
    {
      "inputs": [
        {
          "internalType": "address",
          "name": "from",
          "type": "address"
        },
        {
          "internalType": "address",
          "name": "to",
          "type": "address"
        },
        {
          "internalType": "uint256",
          "name": "tokenId",
          "type": "uint256"
        },
        {
          "internalType": "bytes",
          "name": "data",
          "type": "bytes"
        }
      ],
      "name": "safeTransferFrom",
      "outputs": [],
      "stateMutability": "nonpayable",
      "type": "function"
    },
    {
      "inputs": [
        {
          "internalType": "address",
          "name": "operator",
          "type": "address"
        },
        {
          "internalType": "bool",
          "name": "approved",
          "type": "bool"
        }
      ],
      "name": "setApprovalForAll",
      "outputs": [],
      "stateMutability": "nonpayable",
      "type": "function"
    },
    {
      "inputs": [
        {
          "internalType": "string",
          "name": "_imageBaseURI",
          "type": "string"
        }
      ],
      "name": "setImageBaseURI",
      "outputs": [],
      "stateMutability": "nonpayable",
      "type": "function"
    },
    {
      "inputs": [
        {
          "internalType": "bytes4",
          "name": "interfaceId",
          "type": "bytes4"
        }
      ],
      "name": "supportsInterface",
      "outputs": [
        {
          "internalType": "bool",
          "name": "",
          "type": "bool"
        }
      ],
      "stateMutability": "view",
      "type": "function"
    },
    {
      "inputs": [],
      "name": "symbol",
      "outputs": [
        {
          "internalType": "string",
          "name": "",
          "type": "string"
        }
      ],
      "stateMutability": "view",
      "type": "function"
    },
    {
      "inputs": [
        {
          "internalType": "uint256",
          "name": "index",
          "type": "uint256"
        }
      ],
      "name": "tokenByIndex",
      "outputs": [
        {
          "internalType": "uint256",
          "name": "",
          "type": "uint256"
        }
      ],
      "stateMutability": "view",
      "type": "function"
    },
    {
      "inputs": [
        {
          "internalType": "address",
          "name": "owner",
          "type": "address"
        },
        {
          "internalType": "uint256",
          "name": "index",
          "type": "uint256"
        }
      ],
      "name": "tokenOfOwnerByIndex",
      "outputs": [
        {
          "internalType": "uint256",
          "name": "",
          "type": "uint256"
        }
      ],
      "stateMutability": "view",
      "type": "function"
    },
    {
      "inputs": [
        {
          "internalType": "uint256",
          "name": "tokenId",
          "type": "uint256"
        }
      ],
      "name": "tokenURI",
      "outputs": [
        {
          "internalType": "string",
          "name": "",
          "type": "string"
        }
      ],
      "stateMutability": "view",
      "type": "function"
    },
    {
      "inputs": [
        {
          "internalType": "address",
          "name": "owner",
          "type": "address"
        }
      ],
      "name": "tokensOfOwner",
      "outputs": [
        {
          "internalType": "uint256[]",
          "name": "",
          "type": "uint256[]"
        }
      ],
      "stateMutability": "view",
      "type": "function"
    },
    {
      "inputs": [],
      "name": "totalSupply",
      "outputs": [
        {
          "internalType": "uint256",
          "name": "",
          "type": "uint256"
        }
      ],
      "stateMutability": "view",
      "type": "function"
    },
    {
      "inputs": [
        {
          "internalType": "address",
          "name": "from",
          "type": "address"
        },
        {
          "internalType": "address",
          "name": "to",
          "type": "address"
        },
        {
          "internalType": "uint256",
          "name": "tokenId",
          "type": "uint256"
        }
      ],
      "name": "transferFrom",
      "outputs": [],
      "stateMutability": "nonpayable",
      "type": "function"
    },
    {
      "inputs": [],
      "name": "unpause",
      "outputs": [],
      "stateMutability": "nonpayable",
      "type": "function"
    },
    {
      "inputs": [
        {
          "internalType": "uint256",
          "name": "tokenId",
          "type": "uint256"
        },
        {
          "internalType": "uint256",
          "name": "treeId",
          "type": "uint256"
        },
        {
          "internalType": "uint256",
          "name": "skillId",
          "type": "uint256"
        },
        {
          "internalType": "uint256",
          "name": "value",
          "type": "uint256"
        }
      ],
      "name": "updateSkill",
      "outputs": [],
      "stateMutability": "nonpayable",
      "type": "function"
    },
    {
      "inputs": [
        {
          "internalType": "uint256",
          "name": "tokenId",
          "type": "uint256"
        },
        {
          "internalType": "uint256",
          "name": "customId",
          "type": "uint256"
        },
        {
          "internalType": "string",
          "name": "value",
          "type": "string"
        }
      ],
      "name": "updateString",
      "outputs": [],
      "stateMutability": "nonpayable",
      "type": "function"
    }
  ],
  "bytecode": "0x60806040523480156200001157600080fd5b506200001c62000022565b620000e4565b600054610100900460ff16156200008f5760405162461bcd60e51b815260206004820152602760248201527f496e697469616c697a61626c653a20636f6e747261637420697320696e697469604482015266616c697a696e6760c81b606482015260840160405180910390fd5b60005460ff9081161015620000e2576000805460ff191660ff9081179091556040519081527f7f26b83ff96e1f2b6a682f133852f6798a09c465da95921460cefb38474024989060200160405180910390a15b565b614b3a80620000f46000396000f3fe608060405234801561001057600080fd5b50600436106102a05760003560e01c806370a0823111610167578063a22cb465116100ce578063ca15c87311610087578063ca15c873146105f2578063d539139314610605578063d547741f1461061a578063e985e9c51461062d578063ed0af20914610669578063f3993d111461067c57600080fd5b8063a22cb4651461058b578063b5afb1201461059e578063b88d4fde146105b1578063bdbed722146105c4578063c7e05590146105cc578063c87b56dd146105df57600080fd5b80638462151c116101205780638462151c146105225780639010d07c1461054257806391d148541461055557806395d89b41146105685780639e8afe4714610570578063a217fddf1461058357600080fd5b806370a08231146104cf57806375b238fc146104e257806377645839146104f75780637efa1902146104ff5780638129fc1c146105125780638456cb591461051a57600080fd5b806336568abe1161020b5780634684d7e9116101c45780634684d7e9146104645780634f6ccce7146104775780635c975abb1461048a5780636352211e146104965780636cfa24cc146104a95780636d94f13a146104bc57600080fd5b806336568abe146103dd5780633f4ba83a146103f057806340c10f19146103f857806342842e0e1461040b57806342966c681461041e5780634594762a1461043157600080fd5b806318160ddd1161025d57806318160ddd1461035857806323b872dd14610360578063248a9ca3146103735780632f2ff15d146103975780632f745c59146103aa578063352b7533146103bd57600080fd5b806301ffc9a7146102a557806303fe46ab146102cd57806306fdde03146102f0578063079be49314610305578063081812fc14610318578063095ea7b314610343575b600080fd5b6102b86102b33660046135c9565b61068f565b60405190151581526020015b60405180910390f35b6102e2600080516020614ae583398151915281565b6040519081526020016102c4565b6102f86106a0565b6040516102c49190613636565b6102f8610313366004613649565b610732565b61032b61032636600461366b565b6107e1565b6040516001600160a01b0390911681526020016102c4565b6103566103513660046136a0565b610808565b005b6099546102e2565b61035661036e3660046136ca565b610922565b6102e261038136600461366b565b600090815261015f602052604090206001015490565b6103566103a5366004613706565b610954565b6102e26103b83660046136a0565b61097a565b6103d06103cb3660046137f7565b610a10565b6040516102c4919061383b565b6103566103eb366004613706565b610b6e565b610356610bec565b6103566104063660046136a0565b610c0f565b6103566104193660046136ca565b610c31565b61035661042c36600461366b565b610c4c565b6102e261043f36600461389d565b600092835261025b602090815260408085209385529281528284209184525290205490565b6103566104723660046138c9565b610c87565b6102e261048536600461366b565b610ce6565b61012d5460ff166102b8565b61032b6104a436600461366b565b610d79565b6103566104b736600461398d565b610dd9565b6103d06104ca3660046139c1565b610dfa565b6102e26104dd3660046139f5565b610eb2565b6102e2600080516020614ac583398151915281565b6102f8610f38565b61035661050d366004613a10565b610fc6565b6103566110a4565b61035661125e565b6105356105303660046139f5565b61127e565b6040516102c49190613abc565b61032b610550366004613649565b611317565b6102b8610563366004613706565b611337565b6102f8611363565b6103d061057e366004613b00565b611372565b6102e2600081565b610356610599366004613b30565b6114c8565b6103566105ac366004613b6c565b6114d3565b6103566105bf366004613b9e565b611558565b61053561158a565b6105356105da366004613c0d565b611674565b6102f86105ed36600461366b565b611749565b6102e261060036600461366b565b6117dd565b6102e2600080516020614aa583398151915281565b610356610628366004613706565b6117f5565b6102b861063b366004613c5c565b6001600160a01b039182166000908152606a6020908152604080832093909416825291909152205460ff1690565b610356610677366004613c86565b61181b565b61035661068a366004613ccb565b611898565b600061069a826118da565b92915050565b6060606580546106af90613d12565b80601f01602080910402602001604051908101604052809291908181526020018280546106db90613d12565b80156107285780601f106106fd57610100808354040283529160200191610728565b820191906000526020600020905b81548152906001019060200180831161070b57829003601f168201915b5050505050905090565b600082815261025c60209081526040808320848452909152902080546060919061075b90613d12565b80601f016020809104026020016040519081016040528092919081815260200182805461078790613d12565b80156107d45780601f106107a9576101008083540402835291602001916107d4565b820191906000526020600020905b8154815290600101906020018083116107b757829003601f168201915b5050505050905092915050565b60006107ec826118e5565b506000908152606960205260409020546001600160a01b031690565b600061081382610d79565b9050806001600160a01b0316836001600160a01b0316036108855760405162461bcd60e51b815260206004820152602160248201527f4552433732313a20617070726f76616c20746f2063757272656e74206f776e656044820152603960f91b60648201526084015b60405180910390fd5b336001600160a01b03821614806108a157506108a1813361063b565b6109135760405162461bcd60e51b815260206004820152603e60248201527f4552433732313a20617070726f76652063616c6c6572206973206e6f7420746f60448201527f6b656e206f776e6572206e6f7220617070726f76656420666f7220616c6c0000606482015260840161087c565b61091d8383611935565b505050565b61092d335b826119a3565b6109495760405162461bcd60e51b815260040161087c90613d4c565b61091d838383611a22565b600082815261015f602052604090206001015461097081611bc9565b61091d8383611bd3565b600061098583610eb2565b82106109e75760405162461bcd60e51b815260206004820152602b60248201527f455243373231456e756d657261626c653a206f776e657220696e646578206f7560448201526a74206f6620626f756e647360a81b606482015260840161087c565b506001600160a01b03919091166000908152609760209081526040808320938352929052205490565b6060600083516001600160401b03811115610a2d57610a2d613732565b604051908082528060200260200182016040528015610a6057816020015b6060815260200190600190039081610a4b5790505b50905060005b8451811015610b665761025c6000868381518110610a8657610a86613d9a565b6020026020010151815260200190815260200160002060008581526020019081526020016000208054610ab890613d12565b80601f0160208091040260200160405190810160405280929190818152602001828054610ae490613d12565b8015610b315780601f10610b0657610100808354040283529160200191610b31565b820191906000526020600020905b815481529060010190602001808311610b1457829003601f168201915b5050505050828281518110610b4857610b48613d9a565b60200260200101819052508080610b5e90613dc6565b915050610a66565b509392505050565b6001600160a01b0381163314610bde5760405162461bcd60e51b815260206004820152602f60248201527f416363657373436f6e74726f6c3a2063616e206f6e6c792072656e6f756e636560448201526e103937b632b9903337b91039b2b63360891b606482015260840161087c565b610be88282611bf6565b5050565b600080516020614ac5833981519152610c0481611bc9565b610c0c611c19565b50565b600080516020614aa5833981519152610c2781611bc9565b61091d8383611c6c565b61091d83838360405180602001604052806000815250611558565b610c5533610927565b610c715760405162461bcd60e51b815260040161087c90613d4c565b610c7d6101f582611c86565b50610c0c81611c92565b600080516020614aa5833981519152610c9f81611bc9565b60005b8251811015610ce057610cce84848381518110610cc157610cc1613d9a565b6020026020010151611c6c565b80610cd881613dc6565b915050610ca2565b50505050565b6000610cf160995490565b8210610d545760405162461bcd60e51b815260206004820152602c60248201527f455243373231456e756d657261626c653a20676c6f62616c20696e646578206f60448201526b7574206f6620626f756e647360a01b606482015260840161087c565b60998281548110610d6757610d67613d9a565b90600052602060002001549050919050565b6000818152606760205260408120546001600160a01b03168061069a5760405162461bcd60e51b8152602060048201526018602482015277115490cdcc8c4e881a5b9d985b1a59081d1bdad95b88125160421b604482015260640161087c565b600080516020614ac5833981519152610df181611bc9565b610be882611cd2565b6060600082516001600160401b03811115610e1757610e17613732565b604051908082528060200260200182016040528015610e4a57816020015b6060815260200190600190039081610e355790505b50905060005b8351811015610eab57610e7b848281518110610e6e57610e6e613d9a565b6020026020010151611749565b828281518110610e8d57610e8d613d9a565b60200260200101819052508080610ea390613dc6565b915050610e50565b5092915050565b60006001600160a01b038216610f1c5760405162461bcd60e51b815260206004820152602960248201527f4552433732313a2061646472657373207a65726f206973206e6f7420612076616044820152683634b21037bbb732b960b91b606482015260840161087c565b506001600160a01b031660009081526068602052604090205490565b60fc8054610f4590613d12565b80601f0160208091040260200160405190810160405280929190818152602001828054610f7190613d12565b8015610fbe5780601f10610f9357610100808354040283529160200191610fbe565b820191906000526020600020905b815481529060010190602001808311610fa157829003601f168201915b505050505081565b600080516020614ae5833981519152610fde81611bc9565b60005b855181101561109c57828181518110610ffc57610ffc613d9a565b602002602001015161025b600088848151811061101b5761101b613d9a565b60200260200101518152602001908152602001600020600087848151811061104557611045613d9a565b60200260200101518152602001908152602001600020600086848151811061106f5761106f613d9a565b6020026020010151815260200190815260200160002081905550808061109490613dc6565b915050610fe1565b505050505050565b600054610100900460ff16158080156110c45750600054600160ff909116105b806110de5750303b1580156110de575060005460ff166001145b6111415760405162461bcd60e51b815260206004820152602e60248201527f496e697469616c697a61626c653a20636f6e747261637420697320616c72656160448201526d191e481a5b9a5d1a585b1a5e995960921b606482015260840161087c565b6000805460ff191660011790558015611164576000805461ff0019166101001790555b6111b36040518060400160405280600e81526020016d436f736d69632057697a6172647360901b8152506040518060400160405280600781526020016657495a4152445360c81b815250611cde565b6111bb611d0f565b6111c3611d40565b6111cb611d67565b6111d3611d40565b6111db611d0f565b6111e6600033611bd3565b6111fe600080516020614ac583398151915233611bd3565b611216600080516020614aa583398151915233611bd3565b8015610c0c576000805461ff0019169055604051600181527f7f26b83ff96e1f2b6a682f133852f6798a09c465da95921460cefb38474024989060200160405180910390a150565b600080516020614ac583398151915261127681611bc9565b610c0c611d96565b6060600061128b83610eb2565b90506000816001600160401b038111156112a7576112a7613732565b6040519080825280602002602001820160405280156112d0578160200160208202803683370190505b50905060005b82811015610b66576112e8858261097a565b8282815181106112fa576112fa613d9a565b60209081029190910101528061130f81613dc6565b9150506112d6565b6000828152610191602052604081206113309083611dd4565b9392505050565b600091825261015f602090815260408084206001600160a01b0393909316845291905290205460ff1690565b6060606680546106af90613d12565b6060600082516001600160401b0381111561138f5761138f613732565b6040519080825280602002602001820160405280156113c257816020015b60608152602001906001900390816113ad5790505b50905060005b8351811015610b665761025c600086815260200190815260200160002060008583815181106113f9576113f9613d9a565b60200260200101518152602001908152602001600020805461141a90613d12565b80601f016020809104026020016040519081016040528092919081815260200182805461144690613d12565b80156114935780601f1061146857610100808354040283529160200191611493565b820191906000526020600020905b81548152906001019060200180831161147657829003601f168201915b50505050508282815181106114aa576114aa613d9a565b602002602001018190525080806114c090613dc6565b9150506113c8565b610be8338383611de0565b600080516020614ae58339815191526114eb81611bc9565b600085815261025b602090815260408083208784528252808320868452825291829020849055815186815290810185905290810183905285907fc3bdb5f4a3cbb68ce4ebe3dda3660f3067add044dc5be3a047d818fd416663699060600160405180910390a25050505050565b61156233836119a3565b61157e5760405162461bcd60e51b815260040161087c90613d4c565b610ce084848484611eae565b6060600060015b6127108110156115c9576115a481611ee1565b156115b757816115b381613dc6565b9250505b806115c181613dc6565b915050611591565b506000816001600160401b038111156115e4576115e4613732565b60405190808252806020026020018201604052801561160d578160200160208202803683370190505b509050600060015b61271081101561166b5761162881611ee1565b15611659578083838151811061164057611640613d9a565b60209081029190910101528161165581613dc6565b9250505b8061166381613dc6565b915050611615565b50909392505050565b6060600082516001600160401b0381111561169157611691613732565b6040519080825280602002602001820160405280156116ba578160200160208202803683370190505b50905060005b835181101561174057600086815261025b60209081526040808320888452909152812085519091908690849081106116fa576116fa613d9a565b602002602001015181526020019081526020016000205482828151811061172357611723613d9a565b60209081029190910101528061173881613dc6565b9150506116c0565b50949350505050565b6060600061175683611eec565b905060006117638461208b565b90506000611770856120d2565b9050600061177d86612156565b90506000848484846040516020016117989493929190613dfb565b60405160208183030381529060405290506117b281612384565b6040516020016117c29190613e76565b60405160208183030381529060405295505050505050919050565b60008181526101916020526040812061069a906124d6565b600082815261015f602052604090206001015461181181611bc9565b61091d8383611bf6565b600080516020614ae583398151915261183381611bc9565b600084815261025c6020908152604080832086845290915290206118578382613f01565b50837fbf91c112c44cd8e958afe3106b290f594b5e23b83fcc88bdb9ac5da7f00be569848460405161188a929190613fc0565b60405180910390a250505050565b60005b8151811015610ce0576118c884848484815181106118bb576118bb613d9a565b6020026020010151610922565b806118d281613dc6565b91505061189b565b600061069a826124e0565b6118ee81611ee1565b610c0c5760405162461bcd60e51b8152602060048201526018602482015277115490cdcc8c4e881a5b9d985b1a59081d1bdad95b88125160421b604482015260640161087c565b600081815260696020526040902080546001600160a01b0319166001600160a01b038416908117909155819061196a82610d79565b6001600160a01b03167f8c5be1e5ebec7d5bd14f71427d1e84f3dd0314c0f7b2291e5b200ac8c7c3b92560405160405180910390a45050565b6000806119af83610d79565b9050806001600160a01b0316846001600160a01b031614806119f657506001600160a01b038082166000908152606a602090815260408083209388168352929052205460ff165b80611a1a5750836001600160a01b0316611a0f846107e1565b6001600160a01b0316145b949350505050565b826001600160a01b0316611a3582610d79565b6001600160a01b031614611a995760405162461bcd60e51b815260206004820152602560248201527f4552433732313a207472616e736665722066726f6d20696e636f72726563742060448201526437bbb732b960d91b606482015260840161087c565b6001600160a01b038216611afb5760405162461bcd60e51b8152602060048201526024808201527f4552433732313a207472616e7366657220746f20746865207a65726f206164646044820152637265737360e01b606482015260840161087c565b611b06838383612505565b611b11600082611935565b6001600160a01b0383166000908152606860205260408120805460019290611b3a908490613fd9565b90915550506001600160a01b0382166000908152606860205260408120805460019290611b68908490613fec565b909155505060008181526067602052604080822080546001600160a01b0319166001600160a01b0386811691821790925591518493918716917fddf252ad1be2c89b69c2b068fc378daa952ba7f163c4a11628f55a4df523b3ef91a4505050565b610c0c81336125bf565b611bdd8282612623565b60008281526101916020526040902061091d90826126aa565b611c0082826126bf565b60008281526101916020526040902061091d9082612727565b611c2161273c565b61012d805460ff191690557f5db9ee0a495bf2e6ff9c91a7834c1ba4fdd244a5e8aa4e537bd38aeae4b073aa335b6040516001600160a01b03909116815260200160405180910390a1565b610be8828260405180602001604052806000815250612786565b600061133083836127b9565b611c9b81612808565b600081815260fb602052604090208054611cb490613d12565b159050610c0c57600081815260fb60205260408120610c0c91613565565b60fc610be88282613f01565b600054610100900460ff16611d055760405162461bcd60e51b815260040161087c90613fff565b610be882826128af565b600054610100900460ff16611d365760405162461bcd60e51b815260040161087c90613fff565b611d3e611d40565b565b600054610100900460ff16611d3e5760405162461bcd60e51b815260040161087c90613fff565b600054610100900460ff16611d8e5760405162461bcd60e51b815260040161087c90613fff565b611d3e6128ef565b611d9e612923565b61012d805460ff191660011790557f62e78cea01bee320cd4e420270b5ea74000d11b0c9f74754ebdbfc544b05a258611c4f3390565b6000611330838361296a565b816001600160a01b0316836001600160a01b031603611e415760405162461bcd60e51b815260206004820152601960248201527f4552433732313a20617070726f766520746f2063616c6c657200000000000000604482015260640161087c565b6001600160a01b038381166000818152606a6020908152604080832094871680845294825291829020805460ff191686151590811790915591519182527f17307eab39ab6107e8899845ad3d59bd9653f200f220920489ca2b5937696c31910160405180910390a3505050565b611eb9848484611a22565b611ec584848484612994565b610ce05760405162461bcd60e51b815260040161087c9061404a565b600061069a82612a95565b600081815261025c60209081526040808320838052909152812080546060929190611f1690613d12565b80601f0160208091040260200160405190810160405280929190818152602001828054611f4290613d12565b8015611f8f5780601f10611f6457610100808354040283529160200191611f8f565b820191906000526020600020905b815481529060010190602001808311611f7257829003601f168201915b505050600086815261025b60209081526040808320838052825280832090915281205493945092159150611fe39050576040518060400160405280600681526020016546656d616c6560d01b815250612001565b604051806040016040528060048152602001634d616c6560e01b8152505b9050600060fc61201086612ab4565b60405160200161202192919061409c565b6040516020818303038152906040529050600061203d86610d79565b90508261204987612ab4565b858461205d856001600160a01b0316612bb4565b604051602001612071959493929190614123565b604051602081830303815290604052945050505050919050565b6060600061209883612bca565b905060006120a584612d2a565b905081816040516020016120ba929190614264565b60405160208183030381529060405292505050919050565b600081815261025b6020908152604080832083805282528083206009845290915290205460609061210290612ab4565b600083815261025b602090815260408083208380528252808320600a845290915290205461212f90612ab4565b6040516020016121409291906142c3565b6040516020818303038152906040529050919050565b600081815261025b6020908152604080832083805282528083209091528120546060919061218390612ab4565b600084815261025b602090815260408083208380528252808320600184529091529020546121b090612ab4565b600085815261025b602090815260408083208380528252808320600284529091529020546121dd90612ab4565b6040516020016121ef93929190614351565b60408051601f19818403018152918152600085815261025b60209081528282208280528152828220600383529052908120549192509061222e90612ab4565b600085815261025b6020908152604080832083805282528083206004845290915290205461225b90612ab4565b600086815261025b6020908152604080832083805282528083206005845290915290205461228890612ab4565b60405160200161229a93929190614469565b60408051601f19818403018152918152600086815261025b6020908152828220828052815282822060068352905290812054919250906122d990612ab4565b600086815261025b6020908152604080832083805282528083206007845290915290205461230690612ab4565b600087815261025b6020908152604080832083805282528083206008845290915290205461233390612ab4565b6040516020016123459392919061454e565b604051602081830303815290604052905082828260405160200161236b9392919061464f565b6040516020818303038152906040529350505050919050565b606081516000036123a357505060408051602081019091526000815290565b6000604051806060016040528060408152602001614a6560409139905060006003845160026123d29190613fec565b6123dc91906146d8565b6123e79060046146ec565b6001600160401b038111156123fe576123fe613732565b6040519080825280601f01601f191660200182016040528015612428576020820181803683370190505b509050600182016020820185865187015b80821015612494576003820191508151603f8160121c168501518453600184019350603f81600c1c168501518453600184019350603f8160061c168501518453600184019350603f8116850151845350600183019250612439565b50506003865106600181146124b057600281146124c3576124cb565b603d6001830353603d60028303536124cb565b603d60018303535b509195945050505050565b600061069a825490565b60006001600160e01b03198216635a05180f60e01b148061069a575061069a82612e73565b61250d612923565b8261251a61025982612e98565b1561255d5760405162461bcd60e51b8152602060048201526013602482015272426c61636b6c6973746564206164647265737360681b604482015260640161087c565b8261256a61025982612e98565b156125ad5760405162461bcd60e51b8152602060048201526013602482015272426c61636b6c6973746564206164647265737360681b604482015260640161087c565b6125b8858585612eba565b5050505050565b6125c98282611337565b610be8576125e1816001600160a01b03166014612ec5565b6125ec836020612ec5565b6040516020016125fd92919061470b565b60408051601f198184030181529082905262461bcd60e51b825261087c91600401613636565b61262d8282611337565b610be857600082815261015f602090815260408083206001600160a01b03851684529091529020805460ff191660011790556126663390565b6001600160a01b0316816001600160a01b0316837f2f8788117e7eff1d82e926ec794901d17c78024a50270940304540a733656f0d60405160405180910390a45050565b6000611330836001600160a01b0384166127b9565b6126c98282611337565b15610be857600082815261015f602090815260408083206001600160a01b0385168085529252808320805460ff1916905551339285917ff6391f5c32d9c69d2a47ea670b442974b53935d1edc7fd64eb21e047a839171b9190a45050565b6000611330836001600160a01b038416613060565b61012d5460ff16611d3e5760405162461bcd60e51b815260206004820152601460248201527314185d5cd8589b194e881b9bdd081c185d5cd95960621b604482015260640161087c565b6127908383613153565b61279d6000848484612994565b61091d5760405162461bcd60e51b815260040161087c9061404a565b60008181526001830160205260408120546128005750815460018181018455600084815260208082209093018490558454848252828601909352604090209190915561069a565b50600061069a565b600061281382610d79565b905061282181600084612505565b61282c600083611935565b6001600160a01b0381166000908152606860205260408120805460019290612855908490613fd9565b909155505060008281526067602052604080822080546001600160a01b0319169055518391906001600160a01b038416907fddf252ad1be2c89b69c2b068fc378daa952ba7f163c4a11628f55a4df523b3ef908390a45050565b600054610100900460ff166128d65760405162461bcd60e51b815260040161087c90613fff565b60656128e28382613f01565b50606661091d8282613f01565b600054610100900460ff166129165760405162461bcd60e51b815260040161087c90613fff565b61012d805460ff19169055565b61012d5460ff1615611d3e5760405162461bcd60e51b815260206004820152601060248201526f14185d5cd8589b194e881c185d5cd95960821b604482015260640161087c565b600082600001828154811061298157612981613d9a565b9060005260206000200154905092915050565b60006001600160a01b0384163b15612a8a57604051630a85bd0160e11b81526001600160a01b0385169063150b7a02906129d8903390899088908890600401614780565b6020604051808303816000875af1925050508015612a13575060408051601f3d908101601f19168201909252612a10918101906147bd565b60015b612a70573d808015612a41576040519150601f19603f3d011682016040523d82523d6000602084013e612a46565b606091505b508051600003612a685760405162461bcd60e51b815260040161087c9061404a565b805181602001fd5b6001600160e01b031916630a85bd0160e11b149050611a1a565b506001949350505050565b6000818152606760205260408120546001600160a01b0316151561069a565b606081600003612adb5750506040805180820190915260018152600360fc1b602082015290565b8160005b8115612b055780612aef81613dc6565b9150612afe9050600a836146d8565b9150612adf565b6000816001600160401b03811115612b1f57612b1f613732565b6040519080825280601f01601f191660200182016040528015612b49576020820181803683370190505b5090505b8415611a1a57612b5e600183613fd9565b9150612b6b600a866147da565b612b76906030613fec565b60f81b818381518110612b8b57612b8b613d9a565b60200101906001600160f81b031916908160001a905350612bad600a866146d8565b9450612b4d565b606061069a6001600160a01b0383166014612ec5565b600081815261025b6020908152604080832060018452825280832083805290915281205460609190612bfb90612ab4565b600084815261025b6020908152604080832060018452825280832090915281205491925090612c2990612ab4565b600085815261025b602090815260408083206001845282528083206002845290915281205491925090612c5b90612ab4565b600086815261025b602090815260408083206001845282528083206003845290915281205491925090612c8d90612ab4565b600087815261025b602090815260408083206001845282528083206004845290915281205491925090612cbf90612ab4565b600088815261025b602090815260408083206001845282528083206005845290915281205491925090612cf190612ab4565b9050858585858585604051602001612d0e969594939291906147ee565b6040516020818303038152906040529650505050505050919050565b600081815261025b602090815260408083206001845282528083206006845290915281205460609190612d5c90612ab4565b600084815261025b602090815260408083206001845282528083206007845290915281205491925090612d8e90612ab4565b600085815261025b602090815260408083206001845282528083206008845290915281205491925090612dc090612ab4565b600086815261025b602090815260408083206001845282528083206009845290915281205491925090612df290612ab4565b600087815261025b60209081526040808320600184528252808320600a845290915281205491925090612e2490612ab4565b600088815261025b60209081526040808320600184528252808320600b845290915281205491925090612e5690612ab4565b9050858585858585604051602001612d0e96959493929190614924565b60006001600160e01b03198216637965db0b60e01b148061069a575061069a82613292565b6001600160a01b03811660009081526001830160205260408120541515611330565b61091d83838361329d565b60606000612ed48360026146ec565b612edf906002613fec565b6001600160401b03811115612ef657612ef6613732565b6040519080825280601f01601f191660200182016040528015612f20576020820181803683370190505b509050600360fc1b81600081518110612f3b57612f3b613d9a565b60200101906001600160f81b031916908160001a905350600f60fb1b81600181518110612f6a57612f6a613d9a565b60200101906001600160f81b031916908160001a9053506000612f8e8460026146ec565b612f99906001613fec565b90505b6001811115613011576f181899199a1a9b1b9c1cb0b131b232b360811b85600f1660108110612fcd57612fcd613d9a565b1a60f81b828281518110612fe357612fe3613d9a565b60200101906001600160f81b031916908160001a90535060049490941c9361300a81614a37565b9050612f9c565b5083156113305760405162461bcd60e51b815260206004820181905260248201527f537472696e67733a20686578206c656e67746820696e73756666696369656e74604482015260640161087c565b60008181526001830160205260408120548015613149576000613084600183613fd9565b855490915060009061309890600190613fd9565b90508181146130fd5760008660000182815481106130b8576130b8613d9a565b90600052602060002001549050808760000184815481106130db576130db613d9a565b6000918252602080832090910192909255918252600188019052604090208390555b855486908061310e5761310e614a4e565b60019003818190600052602060002001600090559055856001016000868152602001908152602001600020600090556001935050505061069a565b600091505061069a565b6001600160a01b0382166131a95760405162461bcd60e51b815260206004820181905260248201527f4552433732313a206d696e7420746f20746865207a65726f2061646472657373604482015260640161087c565b6131b281611ee1565b156131ff5760405162461bcd60e51b815260206004820152601c60248201527f4552433732313a20746f6b656e20616c7265616479206d696e74656400000000604482015260640161087c565b61320b60008383612505565b6001600160a01b0382166000908152606860205260408120805460019290613234908490613fec565b909155505060008181526067602052604080822080546001600160a01b0319166001600160a01b03861690811790915590518392907fddf252ad1be2c89b69c2b068fc378daa952ba7f163c4a11628f55a4df523b3ef908290a45050565b600061069a826132a8565b61091d8383836132cd565b60006001600160e01b0319821663780e9d6360e01b148061069a575061069a82613385565b6001600160a01b0383166133285761332381609980546000838152609a60205260408120829055600182018355919091527f72a152ddfb8e864297c917af52ea6c1c68aead0fee1a62673fcc7e0c94979d000155565b61334b565b816001600160a01b0316836001600160a01b03161461334b5761334b83826133d5565b6001600160a01b0382166133625761091d81613472565b826001600160a01b0316826001600160a01b03161461091d5761091d8282613521565b60006001600160e01b031982166380ac58cd60e01b14806133b657506001600160e01b03198216635b5e139f60e01b145b8061069a57506301ffc9a760e01b6001600160e01b031983161461069a565b600060016133e284610eb2565b6133ec9190613fd9565b60008381526098602052604090205490915080821461343f576001600160a01b03841660009081526097602090815260408083208584528252808320548484528184208190558352609890915290208190555b5060009182526098602090815260408084208490556001600160a01b039094168352609781528383209183525290812055565b60995460009061348490600190613fd9565b6000838152609a6020526040812054609980549394509092849081106134ac576134ac613d9a565b9060005260206000200154905080609983815481106134cd576134cd613d9a565b6000918252602080832090910192909255828152609a9091526040808220849055858252812055609980548061350557613505614a4e565b6001900381819060005260206000200160009055905550505050565b600061352c83610eb2565b6001600160a01b039093166000908152609760209081526040808320868452825280832085905593825260989052919091209190915550565b50805461357190613d12565b6000825580601f10613581575050565b601f016020900490600052602060002090810190610c0c91905b808211156135af576000815560010161359b565b5090565b6001600160e01b031981168114610c0c57600080fd5b6000602082840312156135db57600080fd5b8135611330816135b3565b60005b838110156136015781810151838201526020016135e9565b50506000910152565b600081518084526136228160208601602086016135e6565b601f01601f19169290920160200192915050565b602081526000611330602083018461360a565b6000806040838503121561365c57600080fd5b50508035926020909101359150565b60006020828403121561367d57600080fd5b5035919050565b80356001600160a01b038116811461369b57600080fd5b919050565b600080604083850312156136b357600080fd5b6136bc83613684565b946020939093013593505050565b6000806000606084860312156136df57600080fd5b6136e884613684565b92506136f660208501613684565b9150604084013590509250925092565b6000806040838503121561371957600080fd5b8235915061372960208401613684565b90509250929050565b634e487b7160e01b600052604160045260246000fd5b604051601f8201601f191681016001600160401b038111828210171561377057613770613732565b604052919050565b600082601f83011261378957600080fd5b813560206001600160401b038211156137a4576137a4613732565b8160051b6137b3828201613748565b92835284810182019282810190878511156137cd57600080fd5b83870192505b848310156137ec578235825291830191908301906137d3565b979650505050505050565b6000806040838503121561380a57600080fd5b82356001600160401b0381111561382057600080fd5b61382c85828601613778565b95602094909401359450505050565b6000602080830181845280855180835260408601915060408160051b870101925083870160005b8281101561389057603f1988860301845261387e85835161360a565b94509285019290850190600101613862565b5092979650505050505050565b6000806000606084860312156138b257600080fd5b505081359360208301359350604090920135919050565b600080604083850312156138dc57600080fd5b6138e583613684565b915060208301356001600160401b0381111561390057600080fd5b61390c85828601613778565b9150509250929050565b60006001600160401b0383111561392f5761392f613732565b613942601f8401601f1916602001613748565b905082815283838301111561395657600080fd5b828260208301376000602084830101529392505050565b600082601f83011261397e57600080fd5b61133083833560208501613916565b60006020828403121561399f57600080fd5b81356001600160401b038111156139b557600080fd5b611a1a8482850161396d565b6000602082840312156139d357600080fd5b81356001600160401b038111156139e957600080fd5b611a1a84828501613778565b600060208284031215613a0757600080fd5b61133082613684565b60008060008060808587031215613a2657600080fd5b84356001600160401b0380821115613a3d57600080fd5b613a4988838901613778565b95506020870135915080821115613a5f57600080fd5b613a6b88838901613778565b94506040870135915080821115613a8157600080fd5b613a8d88838901613778565b93506060870135915080821115613aa357600080fd5b50613ab087828801613778565b91505092959194509250565b6020808252825182820181905260009190848201906040850190845b81811015613af457835183529284019291840191600101613ad8565b50909695505050505050565b60008060408385031215613b1357600080fd5b8235915060208301356001600160401b0381111561390057600080fd5b60008060408385031215613b4357600080fd5b613b4c83613684565b915060208301358015158114613b6157600080fd5b809150509250929050565b60008060008060808587031215613b8257600080fd5b5050823594602084013594506040840135936060013592509050565b60008060008060808587031215613bb457600080fd5b613bbd85613684565b9350613bcb60208601613684565b92506040850135915060608501356001600160401b03811115613bed57600080fd5b8501601f81018713613bfe57600080fd5b613ab087823560208401613916565b600080600060608486031215613c2257600080fd5b833592506020840135915060408401356001600160401b03811115613c4657600080fd5b613c5286828701613778565b9150509250925092565b60008060408385031215613c6f57600080fd5b613c7883613684565b915061372960208401613684565b600080600060608486031215613c9b57600080fd5b833592506020840135915060408401356001600160401b03811115613cbf57600080fd5b613c528682870161396d565b600080600060608486031215613ce057600080fd5b613ce984613684565b9250613cf760208501613684565b915060408401356001600160401b03811115613c4657600080fd5b600181811c90821680613d2657607f821691505b602082108103613d4657634e487b7160e01b600052602260045260246000fd5b50919050565b6020808252602e908201527f4552433732313a2063616c6c6572206973206e6f7420746f6b656e206f776e6560408201526d1c881b9bdc88185c1c1c9bdd995960921b606082015260800190565b634e487b7160e01b600052603260045260246000fd5b634e487b7160e01b600052601160045260246000fd5b600060018201613dd857613dd8613db0565b5060010190565b60008151613df18185602086016135e6565b9290920192915050565b607b60f81b815260008551613e17816001850160208a016135e6565b855190830190613e2e816001840160208a016135e6565b8551910190613e448160018401602089016135e6565b8451910190613e5a8160018401602088016135e6565b607d60f81b600192909101918201526002019695505050505050565b7f646174613a6170706c69636174696f6e2f6a736f6e3b6261736536342c000000815260008251613eae81601d8501602087016135e6565b91909101601d0192915050565b601f82111561091d57600081815260208120601f850160051c81016020861015613ee25750805b601f850160051c820191505b8181101561109c57828155600101613eee565b81516001600160401b03811115613f1a57613f1a613732565b613f2e81613f288454613d12565b84613ebb565b602080601f831160018114613f635760008415613f4b5750858301515b600019600386901b1c1916600185901b17855561109c565b600085815260208120601f198616915b82811015613f9257888601518255948401946001909101908401613f73565b5085821015613fb05787850151600019600388901b60f8161c191681555b5050505050600190811b01905550565b828152604060208201526000611a1a604083018461360a565b8181038181111561069a5761069a613db0565b8082018082111561069a5761069a613db0565b6020808252602b908201527f496e697469616c697a61626c653a20636f6e7472616374206973206e6f74206960408201526a6e697469616c697a696e6760a81b606082015260800190565b60208082526032908201527f4552433732313a207472616e7366657220746f206e6f6e20455243373231526560408201527131b2b4bb32b91034b6b83632b6b2b73a32b960711b606082015260800190565b60008084546140aa81613d12565b600182811680156140c257600181146140d757614106565b60ff1984168752821515830287019450614106565b8860005260208060002060005b858110156140fd5781548a8201529084019082016140e4565b50505082870194505b50505050835161411a8183602088016135e6565b01949350505050565b6e0113730b6b2911d1121b7b9b6b4b19608d1b8152855160009061414e81600f850160208b016135e6565b682057697a617264202360b81b600f918401918201528651614177816018840160208b016135e6565b61088b60f21b6018929091019182018190526d1131bab9ba37b6a730b6b2911d1160911b601a83015286516141b3816028850160208b016135e6565b60289201918201527f226465736372697074696f6e223a224120436f736d69632057697a617264222c602a82015261425861423c6142136142366142218261420d604a8801681134b6b0b3b2911d1160b91b815260090190565b8b613ddf565b61088b60f21b815260020190565b681137bbb732b9111d1160b91b815260090190565b87613ddf565b6f089d1e5c19488e88915490cdcc8c488b60821b815260100190565b98975050505050505050565b6f2270726f66657373696f6e73223a207b60801b815282516000906142908160108501602088016135e6565b8351908301906142a78160108401602088016135e6565b6203e96160ed1b60109290910191820152601301949350505050565b6b227374616b696e67223a207b60a01b81526b0113ab73637b1b5b2b2111d160a51b600c82015282516000906143008160188501602088016135e6565b61016160f51b6018918401918201526901139ba30b5b2b2111d160b51b601a82015283516143358160248401602088016135e6565b6203e96160ed1b60249290910191820152602701949350505050565b6000607b60f81b8083527f2274726169745f74797065223a202267656e646572222c2000000000000000006001840152680113b30b63ab2911d160bd1b80601985015286516143a7816022870160208b016135e6565b80850190506203e96160ed1b8060228301528360258301527f2274726169745f74797065223a20226261636b67726f756e64222c200000000060268301528260428301528751925061440083604b840160208b016135e6565b828201925080604b840152505081604e8201526137ec61445a614236614445604f8501750113a3930b4ba2fba3cb832911d10113430b4b91116160551b815260160190565b680113b30b63ab2911d160bd1b815260090190565b6203e96160ed1b815260030190565b6000607b60f81b808352740113a3930b4ba2fba3cb832911d10113430ba11161605d1b6001840152680113b30b63ab2911d160bd1b80601685015286516144b781601f870160208b016135e6565b80850190506203e96160ed1b80601f830152836022830152750113a3930b4ba2fba3cb832911d101132bcb2b99116160551b602383015282603983015287519250614509836042840160208b016135e6565b828201925080604284015250508160458201526137ec61445a61423661444560468501750113a3930b4ba2fba3cb832911d10113130b9b29116160551b815260160190565b6000607b60f81b8083527f2274726169745f74797065223a20227374616666222c200000000000000000006001840152680113b30b63ab2911d160bd1b80601885015286516145a4816021870160208b016135e6565b80850190506203e96160ed1b806021830152836024830152750113a3930b4ba2fba3cb832911d10113937b1329116160551b602583015282603b830152875192506145f6836044840160208b016135e6565b828201925080604484015250508160478201526137ec614642614236614445604885017f2274726169745f74797065223a20226d6f757468222c20000000000000000000815260170190565b607d60f81b815260010190565b6e2261747472696275746573223a205b60881b8152835160009061467a81600f8501602089016135e6565b84519083019061469181600f8401602089016135e6565b84519101906146a781600f8401602088016135e6565b605d60f81b600f929091019182015260100195945050505050565b634e487b7160e01b600052601260045260246000fd5b6000826146e7576146e76146c2565b500490565b600081600019048311821515161561470657614706613db0565b500290565b7f416363657373436f6e74726f6c3a206163636f756e74200000000000000000008152600083516147438160178501602088016135e6565b7001034b99036b4b9b9b4b733903937b6329607d1b60179184019182015283516147748160288401602088016135e6565b01602801949350505050565b6001600160a01b03858116825284166020820152604081018390526080606082018190526000906147b39083018461360a565b9695505050505050565b6000602082840312156147cf57600080fd5b8151611330816135b3565b6000826147e9576147e96146c2565b500690565b6a01130b631b432b6bc911d160ad1b8152865160009061481581600b850160208c016135e6565b61016160f51b600b9184019182018190526f01130b931b434ba32b1ba3ab932911d160851b600d830152885161485281601d850160208d016135e6565b601d92019182018190526c01131b0b93832b73a393c911d1609d1b601f830152875161488581602c850160208c016135e6565b602c9201918201526149176148c56149116148fa826148f46148d3826148bf602e8a016a01131b7b7b5b4b733911d160ad1b8152600b0190565b8e613ddf565b61016160f51b815260020190565b7401131b93cb9ba30b622bc3a3930b1ba34b7b7111d1605d1b815260150190565b8a613ddf565b6a0113330b936b4b733911d160ad1b8152600b0190565b86613ddf565b9998505050505050505050565b6a0113334b9b434b733911d160ad1b8152865160009061494b81600b850160208c016135e6565b61016160f51b600b9184019182018190526d01133b2b6a1baba3a34b733911d160951b600d830152885161498681601b850160208d016135e6565b601b92019182018190526c0113432b93130b634b9b6911d1609d1b601d83015287516149b981602a850160208c016135e6565b602a920191820152614917614a31614a166148c5614a106149f7826149f1602c89016901136b4b734b733911d160b51b8152600a0190565b8d613ddf565b6c0113a30b4b637b934b733911d1609d1b8152600d0190565b89613ddf565b6e0113bb7b7b231baba3a34b733911d1608d1b8152600f0190565b85613ddf565b600081614a4657614a46613db0565b506000190190565b634e487b7160e01b600052603160045260246000fdfe4142434445464748494a4b4c4d4e4f505152535455565758595a6162636465666768696a6b6c6d6e6f707172737475767778797a303132333435363738392b2f9f2df0fed2c77648de5860a4cc508cd0818c85b8b8a1ab4ceeef8d981c8956a6a49807205ce4d355092ef5a8a18f56e8913cf4a201fbe287825b095693c21775364d3d7565c7a8300c96fd53e065d19b65848d7b23b3191adcd55621c744223ca2646970667358221220005783b826c07d556216e6eb0844f831c2a7c82ae57cb62c42f80d4f8bde007e64736f6c63430008100033",
  "linkReferences": {},
  "deployedLinkReferences": {}
}