{
  "_format": "hh-sol-artifact-1",
  "contractName": "CosmicWizardsUpgradeable",
  "sourceName": "contracts/upgradeable/ERC721/CosmicWizardsUpgradeable.sol",
  "abi": [
    {
      "inputs": [],
      "stateMutability": "nonpayable",
      "type": "constructor"
    },
    {
      "anonymous": false,
      "inputs": [
        {
          "indexed": true,
          "internalType": "address",
          "name": "owner",
          "type": "address"
        },
        {
          "indexed": true,
          "internalType": "address",
          "name": "approved",
          "type": "address"
        },
        {
          "indexed": true,
          "internalType": "uint256",
          "name": "tokenId",
          "type": "uint256"
        }
      ],
      "name": "Approval",
      "type": "event"
    },
    {
      "anonymous": false,
      "inputs": [
        {
          "indexed": true,
          "internalType": "address",
          "name": "owner",
          "type": "address"
        },
        {
          "indexed": true,
          "internalType": "address",
          "name": "operator",
          "type": "address"
        },
        {
          "indexed": false,
          "internalType": "bool",
          "name": "approved",
          "type": "bool"
        }
      ],
      "name": "ApprovalForAll",
      "type": "event"
    },
    {
      "anonymous": false,
      "inputs": [
        {
          "indexed": false,
          "internalType": "uint8",
          "name": "version",
          "type": "uint8"
        }
      ],
      "name": "Initialized",
      "type": "event"
    },
    {
      "anonymous": false,
      "inputs": [
        {
          "indexed": false,
          "internalType": "address",
          "name": "account",
          "type": "address"
        }
      ],
      "name": "Paused",
      "type": "event"
    },
    {
      "anonymous": false,
      "inputs": [
        {
          "indexed": true,
          "internalType": "bytes32",
          "name": "role",
          "type": "bytes32"
        },
        {
          "indexed": true,
          "internalType": "bytes32",
          "name": "previousAdminRole",
          "type": "bytes32"
        },
        {
          "indexed": true,
          "internalType": "bytes32",
          "name": "newAdminRole",
          "type": "bytes32"
        }
      ],
      "name": "RoleAdminChanged",
      "type": "event"
    },
    {
      "anonymous": false,
      "inputs": [
        {
          "indexed": true,
          "internalType": "bytes32",
          "name": "role",
          "type": "bytes32"
        },
        {
          "indexed": true,
          "internalType": "address",
          "name": "account",
          "type": "address"
        },
        {
          "indexed": true,
          "internalType": "address",
          "name": "sender",
          "type": "address"
        }
      ],
      "name": "RoleGranted",
      "type": "event"
    },
    {
      "anonymous": false,
      "inputs": [
        {
          "indexed": true,
          "internalType": "bytes32",
          "name": "role",
          "type": "bytes32"
        },
        {
          "indexed": true,
          "internalType": "address",
          "name": "account",
          "type": "address"
        },
        {
          "indexed": true,
          "internalType": "address",
          "name": "sender",
          "type": "address"
        }
      ],
      "name": "RoleRevoked",
      "type": "event"
    },
    {
      "anonymous": false,
      "inputs": [
        {
          "indexed": true,
          "internalType": "uint256",
          "name": "tokenId",
          "type": "uint256"
        },
        {
          "indexed": false,
          "internalType": "uint256",
          "name": "customId",
          "type": "uint256"
        },
        {
          "indexed": false,
          "internalType": "string",
          "name": "value",
          "type": "string"
        }
      ],
      "name": "TextUpdated",
      "type": "event"
    },
    {
      "anonymous": false,
      "inputs": [
        {
          "indexed": true,
          "internalType": "address",
          "name": "from",
          "type": "address"
        },
        {
          "indexed": true,
          "internalType": "address",
          "name": "to",
          "type": "address"
        },
        {
          "indexed": true,
          "internalType": "uint256",
          "name": "tokenId",
          "type": "uint256"
        }
      ],
      "name": "Transfer",
      "type": "event"
    },
    {
      "anonymous": false,
      "inputs": [
        {
          "indexed": false,
          "internalType": "address",
          "name": "account",
          "type": "address"
        }
      ],
      "name": "Unpaused",
      "type": "event"
    },
    {
      "anonymous": false,
      "inputs": [
        {
          "indexed": true,
          "internalType": "uint256",
          "name": "tokenId",
          "type": "uint256"
        },
        {
          "indexed": false,
          "internalType": "uint256",
          "name": "treeId",
          "type": "uint256"
        },
        {
          "indexed": false,
          "internalType": "uint256",
          "name": "skillId",
          "type": "uint256"
        },
        {
          "indexed": false,
          "internalType": "uint256",
          "name": "value",
          "type": "uint256"
        }
      ],
      "name": "ValueUpdated",
      "type": "event"
    },
    {
      "inputs": [],
      "name": "ADMIN_ROLE",
      "outputs": [
        {
          "internalType": "bytes32",
          "name": "",
          "type": "bytes32"
        }
      ],
      "stateMutability": "view",
      "type": "function"
    },
    {
      "inputs": [],
      "name": "CONTRACT_ROLE",
      "outputs": [
        {
          "internalType": "bytes32",
          "name": "",
          "type": "bytes32"
        }
      ],
      "stateMutability": "view",
      "type": "function"
    },
    {
      "inputs": [],
      "name": "DEFAULT_ADMIN_ROLE",
      "outputs": [
        {
          "internalType": "bytes32",
          "name": "",
          "type": "bytes32"
        }
      ],
      "stateMutability": "view",
      "type": "function"
    },
    {
      "inputs": [],
      "name": "MINTER_ROLE",
      "outputs": [
        {
          "internalType": "bytes32",
          "name": "",
          "type": "bytes32"
        }
      ],
      "stateMutability": "view",
      "type": "function"
    },
    {
      "inputs": [
        {
          "internalType": "address",
          "name": "to",
          "type": "address"
        },
        {
          "internalType": "uint256",
          "name": "tokenId",
          "type": "uint256"
        }
      ],
      "name": "approve",
      "outputs": [],
      "stateMutability": "nonpayable",
      "type": "function"
    },
    {
      "inputs": [
        {
          "internalType": "address",
          "name": "owner",
          "type": "address"
        }
      ],
      "name": "balanceOf",
      "outputs": [
        {
          "internalType": "uint256",
          "name": "",
          "type": "uint256"
        }
      ],
      "stateMutability": "view",
      "type": "function"
    },
    {
      "inputs": [
        {
          "internalType": "address",
          "name": "to",
          "type": "address"
        },
        {
          "internalType": "uint256[]",
          "name": "tokenIds",
          "type": "uint256[]"
        }
      ],
      "name": "batchMint",
      "outputs": [],
      "stateMutability": "nonpayable",
      "type": "function"
    },
    {
      "inputs": [
        {
          "internalType": "uint256[]",
          "name": "tokenIds",
          "type": "uint256[]"
        }
      ],
      "name": "batchTokenURI",
      "outputs": [
        {
          "internalType": "string[]",
          "name": "",
          "type": "string[]"
        }
      ],
      "stateMutability": "view",
      "type": "function"
    },
    {
      "inputs": [
        {
          "internalType": "address",
          "name": "from",
          "type": "address"
        },
        {
          "internalType": "address",
          "name": "to",
          "type": "address"
        },
        {
          "internalType": "uint256[]",
          "name": "tokenIds",
          "type": "uint256[]"
        }
      ],
      "name": "batchTransferFrom",
      "outputs": [],
      "stateMutability": "nonpayable",
      "type": "function"
    },
    {
      "inputs": [
        {
          "internalType": "uint256[]",
          "name": "tokenIds",
          "type": "uint256[]"
        },
        {
          "internalType": "uint256[]",
          "name": "treeIds",
          "type": "uint256[]"
        },
        {
          "internalType": "uint256[]",
          "name": "skillIds",
          "type": "uint256[]"
        },
        {
          "internalType": "uint256[]",
          "name": "values",
          "type": "uint256[]"
        }
      ],
      "name": "batchUpdateSkills",
      "outputs": [],
      "stateMutability": "nonpayable",
      "type": "function"
    },
    {
      "inputs": [
        {
          "internalType": "uint256",
          "name": "tokenId",
          "type": "uint256"
        }
      ],
      "name": "burn",
      "outputs": [],
      "stateMutability": "nonpayable",
      "type": "function"
    },
    {
      "inputs": [],
      "name": "getAllTokenIds",
      "outputs": [
        {
          "internalType": "uint256[]",
          "name": "",
          "type": "uint256[]"
        }
      ],
      "stateMutability": "view",
      "type": "function"
    },
    {
      "inputs": [
        {
          "internalType": "uint256",
          "name": "tokenId",
          "type": "uint256"
        }
      ],
      "name": "getApproved",
      "outputs": [
        {
          "internalType": "address",
          "name": "",
          "type": "address"
        }
      ],
      "stateMutability": "view",
      "type": "function"
    },
    {
      "inputs": [
        {
          "internalType": "bytes32",
          "name": "role",
          "type": "bytes32"
        }
      ],
      "name": "getRoleAdmin",
      "outputs": [
        {
          "internalType": "bytes32",
          "name": "",
          "type": "bytes32"
        }
      ],
      "stateMutability": "view",
      "type": "function"
    },
    {
      "inputs": [
        {
          "internalType": "bytes32",
          "name": "role",
          "type": "bytes32"
        },
        {
          "internalType": "uint256",
          "name": "index",
          "type": "uint256"
        }
      ],
      "name": "getRoleMember",
      "outputs": [
        {
          "internalType": "address",
          "name": "",
          "type": "address"
        }
      ],
      "stateMutability": "view",
      "type": "function"
    },
    {
      "inputs": [
        {
          "internalType": "bytes32",
          "name": "role",
          "type": "bytes32"
        }
      ],
      "name": "getRoleMemberCount",
      "outputs": [
        {
          "internalType": "uint256",
          "name": "",
          "type": "uint256"
        }
      ],
      "stateMutability": "view",
      "type": "function"
    },
    {
      "inputs": [
        {
          "internalType": "uint256",
          "name": "tokenId",
          "type": "uint256"
        },
        {
          "internalType": "uint256",
          "name": "treeId",
          "type": "uint256"
        },
        {
          "internalType": "uint256",
          "name": "skillId",
          "type": "uint256"
        }
      ],
      "name": "getSkill",
      "outputs": [
        {
          "internalType": "uint256",
          "name": "value",
          "type": "uint256"
        }
      ],
      "stateMutability": "view",
      "type": "function"
    },
    {
      "inputs": [
        {
          "internalType": "uint256",
          "name": "tokenId",
          "type": "uint256"
        },
        {
          "internalType": "uint256",
          "name": "treeId",
          "type": "uint256"
        },
        {
          "internalType": "uint256[]",
          "name": "skillIds",
          "type": "uint256[]"
        }
      ],
      "name": "getSkillsByTree",
      "outputs": [
        {
          "internalType": "uint256[]",
          "name": "",
          "type": "uint256[]"
        }
      ],
      "stateMutability": "view",
      "type": "function"
    },
    {
      "inputs": [
        {
          "internalType": "uint256",
          "name": "tokenId",
          "type": "uint256"
        },
        {
          "internalType": "uint256",
          "name": "customId",
          "type": "uint256"
        }
      ],
      "name": "getString",
      "outputs": [
        {
          "internalType": "string",
          "name": "value",
          "type": "string"
        }
      ],
      "stateMutability": "view",
      "type": "function"
    },
    {
      "inputs": [
        {
          "internalType": "uint256[]",
          "name": "tokenIds",
          "type": "uint256[]"
        },
        {
          "internalType": "uint256",
          "name": "customId",
          "type": "uint256"
        }
      ],
      "name": "getStringOfTokens",
      "outputs": [
        {
          "internalType": "string[]",
          "name": "",
          "type": "string[]"
        }
      ],
      "stateMutability": "view",
      "type": "function"
    },
    {
      "inputs": [
        {
          "internalType": "uint256",
          "name": "tokenId",
          "type": "uint256"
        },
        {
          "internalType": "uint256[]",
          "name": "customIds",
          "type": "uint256[]"
        }
      ],
      "name": "getStrings",
      "outputs": [
        {
          "internalType": "string[]",
          "name": "",
          "type": "string[]"
        }
      ],
      "stateMutability": "view",
      "type": "function"
    },
    {
      "inputs": [
        {
          "internalType": "bytes32",
          "name": "role",
          "type": "bytes32"
        },
        {
          "internalType": "address",
          "name": "account",
          "type": "address"
        }
      ],
      "name": "grantRole",
      "outputs": [],
      "stateMutability": "nonpayable",
      "type": "function"
    },
    {
      "inputs": [
        {
          "internalType": "bytes32",
          "name": "role",
          "type": "bytes32"
        },
        {
          "internalType": "address",
          "name": "account",
          "type": "address"
        }
      ],
      "name": "hasRole",
      "outputs": [
        {
          "internalType": "bool",
          "name": "",
          "type": "bool"
        }
      ],
      "stateMutability": "view",
      "type": "function"
    },
    {
      "inputs": [],
      "name": "imageBaseURI",
      "outputs": [
        {
          "internalType": "string",
          "name": "",
          "type": "string"
        }
      ],
      "stateMutability": "view",
      "type": "function"
    },
    {
      "inputs": [],
      "name": "initialize",
      "outputs": [],
      "stateMutability": "nonpayable",
      "type": "function"
    },
    {
      "inputs": [
        {
          "internalType": "address",
          "name": "owner",
          "type": "address"
        },
        {
          "internalType": "address",
          "name": "operator",
          "type": "address"
        }
      ],
      "name": "isApprovedForAll",
      "outputs": [
        {
          "internalType": "bool",
          "name": "",
          "type": "bool"
        }
      ],
      "stateMutability": "view",
      "type": "function"
    },
    {
      "inputs": [
        {
          "internalType": "address",
          "name": "to",
          "type": "address"
        },
        {
          "internalType": "uint256",
          "name": "tokenId",
          "type": "uint256"
        }
      ],
      "name": "mint",
      "outputs": [],
      "stateMutability": "nonpayable",
      "type": "function"
    },
    {
      "inputs": [],
      "name": "name",
      "outputs": [
        {
          "internalType": "string",
          "name": "",
          "type": "string"
        }
      ],
      "stateMutability": "view",
      "type": "function"
    },
    {
      "inputs": [
        {
          "internalType": "uint256",
          "name": "tokenId",
          "type": "uint256"
        }
      ],
      "name": "ownerOf",
      "outputs": [
        {
          "internalType": "address",
          "name": "",
          "type": "address"
        }
      ],
      "stateMutability": "view",
      "type": "function"
    },
    {
      "inputs": [],
      "name": "pause",
      "outputs": [],
      "stateMutability": "nonpayable",
      "type": "function"
    },
    {
      "inputs": [],
      "name": "paused",
      "outputs": [
        {
          "internalType": "bool",
          "name": "",
          "type": "bool"
        }
      ],
      "stateMutability": "view",
      "type": "function"
    },
    {
      "inputs": [
        {
          "internalType": "bytes32",
          "name": "role",
          "type": "bytes32"
        },
        {
          "internalType": "address",
          "name": "account",
          "type": "address"
        }
      ],
      "name": "renounceRole",
      "outputs": [],
      "stateMutability": "nonpayable",
      "type": "function"
    },
    {
      "inputs": [
        {
          "internalType": "bytes32",
          "name": "role",
          "type": "bytes32"
        },
        {
          "internalType": "address",
          "name": "account",
          "type": "address"
        }
      ],
      "name": "revokeRole",
      "outputs": [],
      "stateMutability": "nonpayable",
      "type": "function"
    },
    {
      "inputs": [
        {
          "internalType": "address",
          "name": "from",
          "type": "address"
        },
        {
          "internalType": "address",
          "name": "to",
          "type": "address"
        },
        {
          "internalType": "uint256",
          "name": "tokenId",
          "type": "uint256"
        }
      ],
      "name": "safeTransferFrom",
      "outputs": [],
      "stateMutability": "nonpayable",
      "type": "function"
    },
    {
      "inputs": [
        {
          "internalType": "address",
          "name": "from",
          "type": "address"
        },
        {
          "internalType": "address",
          "name": "to",
          "type": "address"
        },
        {
          "internalType": "uint256",
          "name": "tokenId",
          "type": "uint256"
        },
        {
          "internalType": "bytes",
          "name": "data",
          "type": "bytes"
        }
      ],
      "name": "safeTransferFrom",
      "outputs": [],
      "stateMutability": "nonpayable",
      "type": "function"
    },
    {
      "inputs": [
        {
          "internalType": "address",
          "name": "operator",
          "type": "address"
        },
        {
          "internalType": "bool",
          "name": "approved",
          "type": "bool"
        }
      ],
      "name": "setApprovalForAll",
      "outputs": [],
      "stateMutability": "nonpayable",
      "type": "function"
    },
    {
      "inputs": [
        {
          "internalType": "string",
          "name": "_imageBaseURI",
          "type": "string"
        }
      ],
      "name": "setImageBaseURI",
      "outputs": [],
      "stateMutability": "nonpayable",
      "type": "function"
    },
    {
      "inputs": [
        {
          "internalType": "bytes4",
          "name": "interfaceId",
          "type": "bytes4"
        }
      ],
      "name": "supportsInterface",
      "outputs": [
        {
          "internalType": "bool",
          "name": "",
          "type": "bool"
        }
      ],
      "stateMutability": "view",
      "type": "function"
    },
    {
      "inputs": [],
      "name": "symbol",
      "outputs": [
        {
          "internalType": "string",
          "name": "",
          "type": "string"
        }
      ],
      "stateMutability": "view",
      "type": "function"
    },
    {
      "inputs": [
        {
          "internalType": "uint256",
          "name": "index",
          "type": "uint256"
        }
      ],
      "name": "tokenByIndex",
      "outputs": [
        {
          "internalType": "uint256",
          "name": "",
          "type": "uint256"
        }
      ],
      "stateMutability": "view",
      "type": "function"
    },
    {
      "inputs": [
        {
          "internalType": "address",
          "name": "owner",
          "type": "address"
        },
        {
          "internalType": "uint256",
          "name": "index",
          "type": "uint256"
        }
      ],
      "name": "tokenOfOwnerByIndex",
      "outputs": [
        {
          "internalType": "uint256",
          "name": "",
          "type": "uint256"
        }
      ],
      "stateMutability": "view",
      "type": "function"
    },
    {
      "inputs": [
        {
          "internalType": "uint256",
          "name": "tokenId",
          "type": "uint256"
        }
      ],
      "name": "tokenURI",
      "outputs": [
        {
          "internalType": "string",
          "name": "",
          "type": "string"
        }
      ],
      "stateMutability": "view",
      "type": "function"
    },
    {
      "inputs": [
        {
          "internalType": "address",
          "name": "owner",
          "type": "address"
        }
      ],
      "name": "tokensOfOwner",
      "outputs": [
        {
          "internalType": "uint256[]",
          "name": "",
          "type": "uint256[]"
        }
      ],
      "stateMutability": "view",
      "type": "function"
    },
    {
      "inputs": [],
      "name": "totalSupply",
      "outputs": [
        {
          "internalType": "uint256",
          "name": "",
          "type": "uint256"
        }
      ],
      "stateMutability": "view",
      "type": "function"
    },
    {
      "inputs": [
        {
          "internalType": "address",
          "name": "from",
          "type": "address"
        },
        {
          "internalType": "address",
          "name": "to",
          "type": "address"
        },
        {
          "internalType": "uint256",
          "name": "tokenId",
          "type": "uint256"
        }
      ],
      "name": "transferFrom",
      "outputs": [],
      "stateMutability": "nonpayable",
      "type": "function"
    },
    {
      "inputs": [],
      "name": "unpause",
      "outputs": [],
      "stateMutability": "nonpayable",
      "type": "function"
    },
    {
      "inputs": [
        {
          "internalType": "uint256",
          "name": "tokenId",
          "type": "uint256"
        },
        {
          "internalType": "uint256",
          "name": "treeId",
          "type": "uint256"
        },
        {
          "internalType": "uint256",
          "name": "skillId",
          "type": "uint256"
        },
        {
          "internalType": "uint256",
          "name": "value",
          "type": "uint256"
        }
      ],
      "name": "updateSkill",
      "outputs": [],
      "stateMutability": "nonpayable",
      "type": "function"
    },
    {
      "inputs": [
        {
          "internalType": "uint256",
          "name": "tokenId",
          "type": "uint256"
        },
        {
          "internalType": "uint256",
          "name": "customId",
          "type": "uint256"
        },
        {
          "internalType": "string",
          "name": "value",
          "type": "string"
        }
      ],
      "name": "updateString",
      "outputs": [],
      "stateMutability": "nonpayable",
      "type": "function"
    }
  ],
  "bytecode": "0x60806040523480156200001157600080fd5b506200001c62000022565b620000e4565b600054610100900460ff16156200008f5760405162461bcd60e51b815260206004820152602760248201527f496e697469616c697a61626c653a20636f6e747261637420697320696e697469604482015266616c697a696e6760c81b606482015260840160405180910390fd5b60005460ff9081161015620000e2576000805460ff191660ff9081179091556040519081527f7f26b83ff96e1f2b6a682f133852f6798a09c465da95921460cefb38474024989060200160405180910390a15b565b614aa780620000f46000396000f3fe608060405234801561001057600080fd5b50600436106102a05760003560e01c806370a0823111610167578063a22cb465116100ce578063ca15c87311610087578063ca15c873146105f2578063d539139314610605578063d547741f1461061a578063e985e9c51461062d578063ed0af20914610669578063f3993d111461067c57600080fd5b8063a22cb4651461058b578063b5afb1201461059e578063b88d4fde146105b1578063bdbed722146105c4578063c7e05590146105cc578063c87b56dd146105df57600080fd5b80638462151c116101205780638462151c146105225780639010d07c1461054257806391d148541461055557806395d89b41146105685780639e8afe4714610570578063a217fddf1461058357600080fd5b806370a08231146104cf57806375b238fc146104e257806377645839146104f75780637efa1902146104ff5780638129fc1c146105125780638456cb591461051a57600080fd5b806336568abe1161020b5780634684d7e9116101c45780634684d7e9146104645780634f6ccce7146104775780635c975abb1461048a5780636352211e146104965780636cfa24cc146104a95780636d94f13a146104bc57600080fd5b806336568abe146103dd5780633f4ba83a146103f057806340c10f19146103f857806342842e0e1461040b57806342966c681461041e5780634594762a1461043157600080fd5b806318160ddd1161025d57806318160ddd1461035857806323b872dd14610360578063248a9ca3146103735780632f2ff15d146103975780632f745c59146103aa578063352b7533146103bd57600080fd5b806301ffc9a7146102a557806303fe46ab146102cd57806306fdde03146102f0578063079be49314610305578063081812fc14610318578063095ea7b314610343575b600080fd5b6102b86102b3366004613644565b61068f565b60405190151581526020015b60405180910390f35b6102e2600080516020614a5283398151915281565b6040519081526020016102c4565b6102f86106a0565b6040516102c491906136b9565b6102f86103133660046136cc565b610732565b61032b6103263660046136ee565b6107e1565b6040516001600160a01b0390911681526020016102c4565b610356610351366004613723565b610808565b005b6099546102e2565b61035661036e36600461374d565b610923565b6102e26103813660046136ee565b600090815261015f602052604090206001015490565b6103566103a5366004613789565b610955565b6102e26103b8366004613723565b61097b565b6103d06103cb36600461387a565b610a11565b6040516102c491906138be565b6103566103eb366004613789565b610b6f565b610356610bed565b610356610406366004613723565b610c10565b61035661041936600461374d565b610c32565b61035661042c3660046136ee565b610c4d565b6102e261043f366004613920565b600092835261025b602090815260408085209385529281528284209184525290205490565b61035661047236600461394c565b610c88565b6102e26104853660046136ee565b610ce7565b61012d5460ff166102b8565b61032b6104a43660046136ee565b610d7a565b6103566104b7366004613a10565b610dda565b6103d06104ca366004613a44565b610dfb565b6102e26104dd366004613a78565b610eb3565b6102e2600080516020614a3283398151915281565b6102f8610f39565b61035661050d366004613a93565b610fc7565b6103566110a5565b61035661125f565b610535610530366004613a78565b61127f565b6040516102c49190613b3f565b61032b6105503660046136cc565b611318565b6102b8610563366004613789565b611338565b6102f8611364565b6103d061057e366004613b83565b611373565b6102e2600081565b610356610599366004613bb3565b6114c9565b6103566105ac366004613bef565b6114d4565b6103566105bf366004613c21565b611559565b61053561158b565b6105356105da366004613c90565b611675565b6102f86105ed3660046136ee565b61174a565b6102e26106003660046136ee565b6117de565b6102e2600080516020614a1283398151915281565b610356610628366004613789565b6117f6565b6102b861063b366004613cdf565b6001600160a01b039182166000908152606a6020908152604080832093909416825291909152205460ff1690565b610356610677366004613d09565b61181c565b61035661068a366004613d4e565b61189d565b600061069a826118df565b92915050565b6060606580546106af90613d95565b80601f01602080910402602001604051908101604052809291908181526020018280546106db90613d95565b80156107285780601f106106fd57610100808354040283529160200191610728565b820191906000526020600020905b81548152906001019060200180831161070b57829003601f168201915b5050505050905090565b600082815261025c60209081526040808320848452909152902080546060919061075b90613d95565b80601f016020809104026020016040519081016040528092919081815260200182805461078790613d95565b80156107d45780601f106107a9576101008083540402835291602001916107d4565b820191906000526020600020905b8154815290600101906020018083116107b757829003601f168201915b5050505050905092915050565b60006107ec826118ea565b506000908152606960205260409020546001600160a01b031690565b600061081382610d7a565b9050806001600160a01b0316836001600160a01b031614156108865760405162461bcd60e51b815260206004820152602160248201527f4552433732313a20617070726f76616c20746f2063757272656e74206f776e656044820152603960f91b60648201526084015b60405180910390fd5b336001600160a01b03821614806108a257506108a2813361063b565b6109145760405162461bcd60e51b815260206004820152603e60248201527f4552433732313a20617070726f76652063616c6c6572206973206e6f7420746f60448201527f6b656e206f776e6572206e6f7220617070726f76656420666f7220616c6c0000606482015260840161087d565b61091e838361193a565b505050565b61092e335b826119a8565b61094a5760405162461bcd60e51b815260040161087d90613dd0565b61091e838383611a27565b600082815261015f602052604090206001015461097181611bce565b61091e8383611bd8565b600061098683610eb3565b82106109e85760405162461bcd60e51b815260206004820152602b60248201527f455243373231456e756d657261626c653a206f776e657220696e646578206f7560448201526a74206f6620626f756e647360a81b606482015260840161087d565b506001600160a01b03919091166000908152609760209081526040808320938352929052205490565b6060600083516001600160401b03811115610a2e57610a2e6137b5565b604051908082528060200260200182016040528015610a6157816020015b6060815260200190600190039081610a4c5790505b50905060005b8451811015610b675761025c6000868381518110610a8757610a87613e1e565b6020026020010151815260200190815260200160002060008581526020019081526020016000208054610ab990613d95565b80601f0160208091040260200160405190810160405280929190818152602001828054610ae590613d95565b8015610b325780601f10610b0757610100808354040283529160200191610b32565b820191906000526020600020905b815481529060010190602001808311610b1557829003601f168201915b5050505050828281518110610b4957610b49613e1e565b60200260200101819052508080610b5f90613e4a565b915050610a67565b509392505050565b6001600160a01b0381163314610bdf5760405162461bcd60e51b815260206004820152602f60248201527f416363657373436f6e74726f6c3a2063616e206f6e6c792072656e6f756e636560448201526e103937b632b9903337b91039b2b63360891b606482015260840161087d565b610be98282611bfb565b5050565b600080516020614a32833981519152610c0581611bce565b610c0d611c1e565b50565b600080516020614a12833981519152610c2881611bce565b61091e8383611c71565b61091e83838360405180602001604052806000815250611559565b610c5633610928565b610c725760405162461bcd60e51b815260040161087d90613dd0565b610c7e6101f582611c8b565b50610c0d81611c97565b600080516020614a12833981519152610ca081611bce565b60005b8251811015610ce157610ccf84848381518110610cc257610cc2613e1e565b6020026020010151611c71565b80610cd981613e4a565b915050610ca3565b50505050565b6000610cf260995490565b8210610d555760405162461bcd60e51b815260206004820152602c60248201527f455243373231456e756d657261626c653a20676c6f62616c20696e646578206f60448201526b7574206f6620626f756e647360a01b606482015260840161087d565b60998281548110610d6857610d68613e1e565b90600052602060002001549050919050565b6000818152606760205260408120546001600160a01b03168061069a5760405162461bcd60e51b8152602060048201526018602482015277115490cdcc8c4e881a5b9d985b1a59081d1bdad95b88125160421b604482015260640161087d565b600080516020614a32833981519152610df281611bce565b610be982611cd7565b6060600082516001600160401b03811115610e1857610e186137b5565b604051908082528060200260200182016040528015610e4b57816020015b6060815260200190600190039081610e365790505b50905060005b8351811015610eac57610e7c848281518110610e6f57610e6f613e1e565b602002602001015161174a565b828281518110610e8e57610e8e613e1e565b60200260200101819052508080610ea490613e4a565b915050610e51565b5092915050565b60006001600160a01b038216610f1d5760405162461bcd60e51b815260206004820152602960248201527f4552433732313a2061646472657373207a65726f206973206e6f7420612076616044820152683634b21037bbb732b960b91b606482015260840161087d565b506001600160a01b031660009081526068602052604090205490565b60fc8054610f4690613d95565b80601f0160208091040260200160405190810160405280929190818152602001828054610f7290613d95565b8015610fbf5780601f10610f9457610100808354040283529160200191610fbf565b820191906000526020600020905b815481529060010190602001808311610fa257829003601f168201915b505050505081565b600080516020614a52833981519152610fdf81611bce565b60005b855181101561109d57828181518110610ffd57610ffd613e1e565b602002602001015161025b600088848151811061101c5761101c613e1e565b60200260200101518152602001908152602001600020600087848151811061104657611046613e1e565b60200260200101518152602001908152602001600020600086848151811061107057611070613e1e565b6020026020010151815260200190815260200160002081905550808061109590613e4a565b915050610fe2565b505050505050565b600054610100900460ff16158080156110c55750600054600160ff909116105b806110df5750303b1580156110df575060005460ff166001145b6111425760405162461bcd60e51b815260206004820152602e60248201527f496e697469616c697a61626c653a20636f6e747261637420697320616c72656160448201526d191e481a5b9a5d1a585b1a5e995960921b606482015260840161087d565b6000805460ff191660011790558015611165576000805461ff0019166101001790555b6111b46040518060400160405280600e81526020016d436f736d69632057697a6172647360901b8152506040518060400160405280600781526020016657495a4152445360c81b815250611cea565b6111bc611d1b565b6111c4611d4c565b6111cc611d73565b6111d4611d4c565b6111dc611d1b565b6111e7600033611bd8565b6111ff600080516020614a3283398151915233611bd8565b611217600080516020614a1283398151915233611bd8565b8015610c0d576000805461ff0019169055604051600181527f7f26b83ff96e1f2b6a682f133852f6798a09c465da95921460cefb38474024989060200160405180910390a150565b600080516020614a3283398151915261127781611bce565b610c0d611da2565b6060600061128c83610eb3565b90506000816001600160401b038111156112a8576112a86137b5565b6040519080825280602002602001820160405280156112d1578160200160208202803683370190505b50905060005b82811015610b67576112e9858261097b565b8282815181106112fb576112fb613e1e565b60209081029190910101528061131081613e4a565b9150506112d7565b6000828152610191602052604081206113319083611de0565b9392505050565b600091825261015f602090815260408084206001600160a01b0393909316845291905290205460ff1690565b6060606680546106af90613d95565b6060600082516001600160401b03811115611390576113906137b5565b6040519080825280602002602001820160405280156113c357816020015b60608152602001906001900390816113ae5790505b50905060005b8351811015610b675761025c600086815260200190815260200160002060008583815181106113fa576113fa613e1e565b60200260200101518152602001908152602001600020805461141b90613d95565b80601f016020809104026020016040519081016040528092919081815260200182805461144790613d95565b80156114945780601f1061146957610100808354040283529160200191611494565b820191906000526020600020905b81548152906001019060200180831161147757829003601f168201915b50505050508282815181106114ab576114ab613e1e565b602002602001018190525080806114c190613e4a565b9150506113c9565b610be9338383611dec565b600080516020614a528339815191526114ec81611bce565b600085815261025b602090815260408083208784528252808320868452825291829020849055815186815290810185905290810183905285907fc3bdb5f4a3cbb68ce4ebe3dda3660f3067add044dc5be3a047d818fd416663699060600160405180910390a25050505050565b61156333836119a8565b61157f5760405162461bcd60e51b815260040161087d90613dd0565b610ce184848484611ebb565b6060600060015b6127108110156115ca576115a581611eee565b156115b857816115b481613e4a565b9250505b806115c281613e4a565b915050611592565b506000816001600160401b038111156115e5576115e56137b5565b60405190808252806020026020018201604052801561160e578160200160208202803683370190505b509050600060015b61271081101561166c5761162981611eee565b1561165a578083838151811061164157611641613e1e565b60209081029190910101528161165681613e4a565b9250505b8061166481613e4a565b915050611616565b50909392505050565b6060600082516001600160401b03811115611692576116926137b5565b6040519080825280602002602001820160405280156116bb578160200160208202803683370190505b50905060005b835181101561174157600086815261025b60209081526040808320888452909152812085519091908690849081106116fb576116fb613e1e565b602002602001015181526020019081526020016000205482828151811061172457611724613e1e565b60209081029190910101528061173981613e4a565b9150506116c1565b50949350505050565b6060600061175783611ef9565b9050600061176484612077565b90506000611771856120be565b9050600061177e86612142565b90506000848484846040516020016117999493929190613e81565b60405160208183030381529060405290506117b381612357565b6040516020016117c39190613efc565b60405160208183030381529060405295505050505050919050565b60008181526101916020526040812061069a906124aa565b600082815261015f602052604090206001015461181281611bce565b61091e8383611bfb565b600080516020614a5283398151915261183481611bce565b600084815261025c602090815260408083208684528252909120835161185c9285019061355f565b50837fbf91c112c44cd8e958afe3106b290f594b5e23b83fcc88bdb9ac5da7f00be569848460405161188f929190613f41565b60405180910390a250505050565b60005b8151811015610ce1576118cd84848484815181106118c0576118c0613e1e565b6020026020010151610923565b806118d781613e4a565b9150506118a0565b600061069a826124b4565b6118f381611eee565b610c0d5760405162461bcd60e51b8152602060048201526018602482015277115490cdcc8c4e881a5b9d985b1a59081d1bdad95b88125160421b604482015260640161087d565b600081815260696020526040902080546001600160a01b0319166001600160a01b038416908117909155819061196f82610d7a565b6001600160a01b03167f8c5be1e5ebec7d5bd14f71427d1e84f3dd0314c0f7b2291e5b200ac8c7c3b92560405160405180910390a45050565b6000806119b483610d7a565b9050806001600160a01b0316846001600160a01b031614806119fb57506001600160a01b038082166000908152606a602090815260408083209388168352929052205460ff165b80611a1f5750836001600160a01b0316611a14846107e1565b6001600160a01b0316145b949350505050565b826001600160a01b0316611a3a82610d7a565b6001600160a01b031614611a9e5760405162461bcd60e51b815260206004820152602560248201527f4552433732313a207472616e736665722066726f6d20696e636f72726563742060448201526437bbb732b960d91b606482015260840161087d565b6001600160a01b038216611b005760405162461bcd60e51b8152602060048201526024808201527f4552433732313a207472616e7366657220746f20746865207a65726f206164646044820152637265737360e01b606482015260840161087d565b611b0b8383836124d9565b611b1660008261193a565b6001600160a01b0383166000908152606860205260408120805460019290611b3f908490613f5a565b90915550506001600160a01b0382166000908152606860205260408120805460019290611b6d908490613f71565b909155505060008181526067602052604080822080546001600160a01b0319166001600160a01b0386811691821790925591518493918716917fddf252ad1be2c89b69c2b068fc378daa952ba7f163c4a11628f55a4df523b3ef91a4505050565b610c0d8133612593565b611be282826125f7565b60008281526101916020526040902061091e908261267e565b611c058282612693565b60008281526101916020526040902061091e90826126fb565b611c26612710565b61012d805460ff191690557f5db9ee0a495bf2e6ff9c91a7834c1ba4fdd244a5e8aa4e537bd38aeae4b073aa335b6040516001600160a01b03909116815260200160405180910390a1565b610be982826040518060200160405280600081525061275a565b6000611331838361278d565b611ca0816127dc565b600081815260fb602052604090208054611cb990613d95565b159050610c0d57600081815260fb60205260408120610c0d916135e3565b8051610be99060fc90602084019061355f565b600054610100900460ff16611d115760405162461bcd60e51b815260040161087d90613f89565b610be98282612883565b600054610100900460ff16611d425760405162461bcd60e51b815260040161087d90613f89565b611d4a611d4c565b565b600054610100900460ff16611d4a5760405162461bcd60e51b815260040161087d90613f89565b600054610100900460ff16611d9a5760405162461bcd60e51b815260040161087d90613f89565b611d4a6128d1565b611daa612905565b61012d805460ff191660011790557f62e78cea01bee320cd4e420270b5ea74000d11b0c9f74754ebdbfc544b05a258611c543390565b6000611331838361294c565b816001600160a01b0316836001600160a01b03161415611e4e5760405162461bcd60e51b815260206004820152601960248201527f4552433732313a20617070726f766520746f2063616c6c657200000000000000604482015260640161087d565b6001600160a01b038381166000818152606a6020908152604080832094871680845294825291829020805460ff191686151590811790915591519182527f17307eab39ab6107e8899845ad3d59bd9653f200f220920489ca2b5937696c31910160405180910390a3505050565b611ec6848484611a27565b611ed284848484612976565b610ce15760405162461bcd60e51b815260040161087d90613fd4565b600061069a82612a83565b600081815261025c60209081526040808320838052909152812080546060929190611f2390613d95565b80601f0160208091040260200160405190810160405280929190818152602001828054611f4f90613d95565b8015611f9c5780601f10611f7157610100808354040283529160200191611f9c565b820191906000526020600020905b815481529060010190602001808311611f7f57829003601f168201915b505050600086815261025b60209081526040808320838052825280832090915281205493945092159150611ff09050576040518060400160405280600681526020016546656d616c6560d01b81525061200e565b604051806040016040528060048152602001634d616c6560e01b8152505b9050600060fc61201d86612aaf565b60405160200161202e929190614026565b60405160208183030381529060405290508161204986612aaf565b848360405160200161205e94939291906140cd565b6040516020818303038152906040529350505050919050565b6060600061208483612bac565b9050600061209184612d0c565b905081816040516020016120a69291906141d1565b60405160208183030381529060405292505050919050565b600081815261025b602090815260408083208380528252808320600984529091529020546060906120ee90612aaf565b600083815261025b602090815260408083208380528252808320600a845290915290205461211b90612aaf565b60405160200161212c929190614230565b6040516020818303038152906040529050919050565b600081815261025b6020908152604080832083805282528083209091528120546060919061216f90612aaf565b600084815261025b6020908152604080832083805282528083206001845290915290205461219c90612aaf565b600085815261025b602090815260408083208380528252808320600284529091529020546121c990612aaf565b6040516020016121db939291906142be565b60408051601f19818403018152918152600085815261025b60209081528282208280528152828220600383529052908120549192509061221a90612aaf565b600085815261025b6020908152604080832083805282528083206004845290915290205461224790612aaf565b600086815261025b6020908152604080832083805282528083206005845290915290205461227490612aaf565b604051602001612286939291906143dc565b60408051601f19818403018152918152600086815261025b6020908152828220828052815282822060068352905290812054919250906122c590612aaf565b600086815261025b602090815260408083208380528252808320600784529091529020546122f290612aaf565b600087815261025b6020908152604080832083805282528083206008845290915290205461231f90612aaf565b604051602001612331939291906144c1565b604051602081830303815290604052905082828260405160200161205e939291906145c2565b606081516000141561237757505060408051602081019091526000815290565b60006040518060600160405280604081526020016149d260409139905060006003845160026123a69190613f71565b6123b0919061464b565b6123bb90600461465f565b6001600160401b038111156123d2576123d26137b5565b6040519080825280601f01601f1916602001820160405280156123fc576020820181803683370190505b509050600182016020820185865187015b80821015612468576003820191508151603f8160121c168501518453600184019350603f81600c1c168501518453600184019350603f8160061c168501518453600184019350603f811685015184535060018301925061240d565b505060038651066001811461248457600281146124975761249f565b603d6001830353603d600283035361249f565b603d60018303535b509195945050505050565b600061069a825490565b60006001600160e01b03198216635a05180f60e01b148061069a575061069a82612e55565b6124e1612905565b826124ee61025982612e7a565b156125315760405162461bcd60e51b8152602060048201526013602482015272426c61636b6c6973746564206164647265737360681b604482015260640161087d565b8261253e61025982612e7a565b156125815760405162461bcd60e51b8152602060048201526013602482015272426c61636b6c6973746564206164647265737360681b604482015260640161087d565b61258c858585612e9c565b5050505050565b61259d8282611338565b610be9576125b5816001600160a01b03166014612ea7565b6125c0836020612ea7565b6040516020016125d192919061467e565b60408051601f198184030181529082905262461bcd60e51b825261087d916004016136b9565b6126018282611338565b610be957600082815261015f602090815260408083206001600160a01b03851684529091529020805460ff1916600117905561263a3390565b6001600160a01b0316816001600160a01b0316837f2f8788117e7eff1d82e926ec794901d17c78024a50270940304540a733656f0d60405160405180910390a45050565b6000611331836001600160a01b03841661278d565b61269d8282611338565b15610be957600082815261015f602090815260408083206001600160a01b0385168085529252808320805460ff1916905551339285917ff6391f5c32d9c69d2a47ea670b442974b53935d1edc7fd64eb21e047a839171b9190a45050565b6000611331836001600160a01b038416613042565b61012d5460ff16611d4a5760405162461bcd60e51b815260206004820152601460248201527314185d5cd8589b194e881b9bdd081c185d5cd95960621b604482015260640161087d565b6127648383613135565b6127716000848484612976565b61091e5760405162461bcd60e51b815260040161087d90613fd4565b60008181526001830160205260408120546127d45750815460018181018455600084815260208082209093018490558454848252828601909352604090209190915561069a565b50600061069a565b60006127e782610d7a565b90506127f5816000846124d9565b61280060008361193a565b6001600160a01b0381166000908152606860205260408120805460019290612829908490613f5a565b909155505060008281526067602052604080822080546001600160a01b0319169055518391906001600160a01b038416907fddf252ad1be2c89b69c2b068fc378daa952ba7f163c4a11628f55a4df523b3ef908390a45050565b600054610100900460ff166128aa5760405162461bcd60e51b815260040161087d90613f89565b81516128bd90606590602085019061355f565b50805161091e90606690602084019061355f565b600054610100900460ff166128f85760405162461bcd60e51b815260040161087d90613f89565b61012d805460ff19169055565b61012d5460ff1615611d4a5760405162461bcd60e51b815260206004820152601060248201526f14185d5cd8589b194e881c185d5cd95960821b604482015260640161087d565b600082600001828154811061296357612963613e1e565b9060005260206000200154905092915050565b60006001600160a01b0384163b15612a7857604051630a85bd0160e11b81526001600160a01b0385169063150b7a02906129ba9033908990889088906004016146f3565b602060405180830381600087803b1580156129d457600080fd5b505af1925050508015612a04575060408051601f3d908101601f19168201909252612a0191810190614730565b60015b612a5e573d808015612a32576040519150601f19603f3d011682016040523d82523d6000602084013e612a37565b606091505b508051612a565760405162461bcd60e51b815260040161087d90613fd4565b805181602001fd5b6001600160e01b031916630a85bd0160e11b149050611a1f565b506001949350505050565b6000818152606760205260408120546001600160a01b031615158061069a575061069a6101f583613274565b606081612ad35750506040805180820190915260018152600360fc1b602082015290565b8160005b8115612afd5780612ae781613e4a565b9150612af69050600a8361464b565b9150612ad7565b6000816001600160401b03811115612b1757612b176137b5565b6040519080825280601f01601f191660200182016040528015612b41576020820181803683370190505b5090505b8415611a1f57612b56600183613f5a565b9150612b63600a8661474d565b612b6e906030613f71565b60f81b818381518110612b8357612b83613e1e565b60200101906001600160f81b031916908160001a905350612ba5600a8661464b565b9450612b45565b600081815261025b6020908152604080832060018452825280832083805290915281205460609190612bdd90612aaf565b600084815261025b6020908152604080832060018452825280832090915281205491925090612c0b90612aaf565b600085815261025b602090815260408083206001845282528083206002845290915281205491925090612c3d90612aaf565b600086815261025b602090815260408083206001845282528083206003845290915281205491925090612c6f90612aaf565b600087815261025b602090815260408083206001845282528083206004845290915281205491925090612ca190612aaf565b600088815261025b602090815260408083206001845282528083206005845290915281205491925090612cd390612aaf565b9050858585858585604051602001612cf096959493929190614761565b6040516020818303038152906040529650505050505050919050565b600081815261025b602090815260408083206001845282528083206006845290915281205460609190612d3e90612aaf565b600084815261025b602090815260408083206001845282528083206007845290915281205491925090612d7090612aaf565b600085815261025b602090815260408083206001845282528083206008845290915281205491925090612da290612aaf565b600086815261025b602090815260408083206001845282528083206009845290915281205491925090612dd490612aaf565b600087815261025b60209081526040808320600184528252808320600a845290915281205491925090612e0690612aaf565b600088815261025b60209081526040808320600184528252808320600b845290915281205491925090612e3890612aaf565b9050858585858585604051602001612cf096959493929190614891565b60006001600160e01b03198216637965db0b60e01b148061069a575061069a8261328c565b6001600160a01b03811660009081526001830160205260408120541515611331565b61091e838383613297565b60606000612eb683600261465f565b612ec1906002613f71565b6001600160401b03811115612ed857612ed86137b5565b6040519080825280601f01601f191660200182016040528015612f02576020820181803683370190505b509050600360fc1b81600081518110612f1d57612f1d613e1e565b60200101906001600160f81b031916908160001a905350600f60fb1b81600181518110612f4c57612f4c613e1e565b60200101906001600160f81b031916908160001a9053506000612f7084600261465f565b612f7b906001613f71565b90505b6001811115612ff3576f181899199a1a9b1b9c1cb0b131b232b360811b85600f1660108110612faf57612faf613e1e565b1a60f81b828281518110612fc557612fc5613e1e565b60200101906001600160f81b031916908160001a90535060049490941c93612fec816149a4565b9050612f7e565b5083156113315760405162461bcd60e51b815260206004820181905260248201527f537472696e67733a20686578206c656e67746820696e73756666696369656e74604482015260640161087d565b6000818152600183016020526040812054801561312b576000613066600183613f5a565b855490915060009061307a90600190613f5a565b90508181146130df57600086600001828154811061309a5761309a613e1e565b90600052602060002001549050808760000184815481106130bd576130bd613e1e565b6000918252602080832090910192909255918252600188019052604090208390555b85548690806130f0576130f06149bb565b60019003818190600052602060002001600090559055856001016000868152602001908152602001600020600090556001935050505061069a565b600091505061069a565b6001600160a01b03821661318b5760405162461bcd60e51b815260206004820181905260248201527f4552433732313a206d696e7420746f20746865207a65726f2061646472657373604482015260640161087d565b61319481611eee565b156131e15760405162461bcd60e51b815260206004820152601c60248201527f4552433732313a20746f6b656e20616c7265616479206d696e74656400000000604482015260640161087d565b6131ed600083836124d9565b6001600160a01b0382166000908152606860205260408120805460019290613216908490613f71565b909155505060008181526067602052604080822080546001600160a01b0319166001600160a01b03861690811790915590518392907fddf252ad1be2c89b69c2b068fc378daa952ba7f163c4a11628f55a4df523b3ef908290a45050565b60008181526001830160205260408120541515611331565b600061069a826132a2565b61091e8383836132c7565b60006001600160e01b0319821663780e9d6360e01b148061069a575061069a8261337f565b6001600160a01b0383166133225761331d81609980546000838152609a60205260408120829055600182018355919091527f72a152ddfb8e864297c917af52ea6c1c68aead0fee1a62673fcc7e0c94979d000155565b613345565b816001600160a01b0316836001600160a01b0316146133455761334583826133cf565b6001600160a01b03821661335c5761091e8161346c565b826001600160a01b0316826001600160a01b03161461091e5761091e828261351b565b60006001600160e01b031982166380ac58cd60e01b14806133b057506001600160e01b03198216635b5e139f60e01b145b8061069a57506301ffc9a760e01b6001600160e01b031983161461069a565b600060016133dc84610eb3565b6133e69190613f5a565b600083815260986020526040902054909150808214613439576001600160a01b03841660009081526097602090815260408083208584528252808320548484528184208190558352609890915290208190555b5060009182526098602090815260408084208490556001600160a01b039094168352609781528383209183525290812055565b60995460009061347e90600190613f5a565b6000838152609a6020526040812054609980549394509092849081106134a6576134a6613e1e565b9060005260206000200154905080609983815481106134c7576134c7613e1e565b6000918252602080832090910192909255828152609a909152604080822084905585825281205560998054806134ff576134ff6149bb565b6001900381819060005260206000200160009055905550505050565b600061352683610eb3565b6001600160a01b039093166000908152609760209081526040808320868452825280832085905593825260989052919091209190915550565b82805461356b90613d95565b90600052602060002090601f01602090048101928261358d57600085556135d3565b82601f106135a657805160ff19168380011785556135d3565b828001600101855582156135d3579182015b828111156135d35782518255916020019190600101906135b8565b506135df929150613619565b5090565b5080546135ef90613d95565b6000825580601f106135ff575050565b601f016020900490600052602060002090810190610c0d91905b5b808211156135df576000815560010161361a565b6001600160e01b031981168114610c0d57600080fd5b60006020828403121561365657600080fd5b81356113318161362e565b60005b8381101561367c578181015183820152602001613664565b83811115610ce15750506000910152565b600081518084526136a5816020860160208601613661565b601f01601f19169290920160200192915050565b602081526000611331602083018461368d565b600080604083850312156136df57600080fd5b50508035926020909101359150565b60006020828403121561370057600080fd5b5035919050565b80356001600160a01b038116811461371e57600080fd5b919050565b6000806040838503121561373657600080fd5b61373f83613707565b946020939093013593505050565b60008060006060848603121561376257600080fd5b61376b84613707565b925061377960208501613707565b9150604084013590509250925092565b6000806040838503121561379c57600080fd5b823591506137ac60208401613707565b90509250929050565b634e487b7160e01b600052604160045260246000fd5b604051601f8201601f191681016001600160401b03811182821017156137f3576137f36137b5565b604052919050565b600082601f83011261380c57600080fd5b813560206001600160401b03821115613827576138276137b5565b8160051b6138368282016137cb565b928352848101820192828101908785111561385057600080fd5b83870192505b8483101561386f57823582529183019190830190613856565b979650505050505050565b6000806040838503121561388d57600080fd5b82356001600160401b038111156138a357600080fd5b6138af858286016137fb565b95602094909401359450505050565b6000602080830181845280855180835260408601915060408160051b870101925083870160005b8281101561391357603f1988860301845261390185835161368d565b945092850192908501906001016138e5565b5092979650505050505050565b60008060006060848603121561393557600080fd5b505081359360208301359350604090920135919050565b6000806040838503121561395f57600080fd5b61396883613707565b915060208301356001600160401b0381111561398357600080fd5b61398f858286016137fb565b9150509250929050565b60006001600160401b038311156139b2576139b26137b5565b6139c5601f8401601f19166020016137cb565b90508281528383830111156139d957600080fd5b828260208301376000602084830101529392505050565b600082601f830112613a0157600080fd5b61133183833560208501613999565b600060208284031215613a2257600080fd5b81356001600160401b03811115613a3857600080fd5b611a1f848285016139f0565b600060208284031215613a5657600080fd5b81356001600160401b03811115613a6c57600080fd5b611a1f848285016137fb565b600060208284031215613a8a57600080fd5b61133182613707565b60008060008060808587031215613aa957600080fd5b84356001600160401b0380821115613ac057600080fd5b613acc888389016137fb565b95506020870135915080821115613ae257600080fd5b613aee888389016137fb565b94506040870135915080821115613b0457600080fd5b613b10888389016137fb565b93506060870135915080821115613b2657600080fd5b50613b33878288016137fb565b91505092959194509250565b6020808252825182820181905260009190848201906040850190845b81811015613b7757835183529284019291840191600101613b5b565b50909695505050505050565b60008060408385031215613b9657600080fd5b8235915060208301356001600160401b0381111561398357600080fd5b60008060408385031215613bc657600080fd5b613bcf83613707565b915060208301358015158114613be457600080fd5b809150509250929050565b60008060008060808587031215613c0557600080fd5b5050823594602084013594506040840135936060013592509050565b60008060008060808587031215613c3757600080fd5b613c4085613707565b9350613c4e60208601613707565b92506040850135915060608501356001600160401b03811115613c7057600080fd5b8501601f81018713613c8157600080fd5b613b3387823560208401613999565b600080600060608486031215613ca557600080fd5b833592506020840135915060408401356001600160401b03811115613cc957600080fd5b613cd5868287016137fb565b9150509250925092565b60008060408385031215613cf257600080fd5b613cfb83613707565b91506137ac60208401613707565b600080600060608486031215613d1e57600080fd5b833592506020840135915060408401356001600160401b03811115613d4257600080fd5b613cd5868287016139f0565b600080600060608486031215613d6357600080fd5b613d6c84613707565b9250613d7a60208501613707565b915060408401356001600160401b03811115613cc957600080fd5b600181811c90821680613da957607f821691505b60208210811415613dca57634e487b7160e01b600052602260045260246000fd5b50919050565b6020808252602e908201527f4552433732313a2063616c6c6572206973206e6f7420746f6b656e206f776e6560408201526d1c881b9bdc88185c1c1c9bdd995960921b606082015260800190565b634e487b7160e01b600052603260045260246000fd5b634e487b7160e01b600052601160045260246000fd5b6000600019821415613e5e57613e5e613e34565b5060010190565b60008151613e77818560208601613661565b9290920192915050565b607b60f81b815260008551613e9d816001850160208a01613661565b855190830190613eb4816001840160208a01613661565b8551910190613eca816001840160208901613661565b8451910190613ee0816001840160208801613661565b607d60f81b600192909101918201526002019695505050505050565b7f646174613a6170706c69636174696f6e2f6a736f6e3b6261736536342c000000815260008251613f3481601d850160208701613661565b91909101601d0192915050565b828152604060208201526000611a1f604083018461368d565b600082821015613f6c57613f6c613e34565b500390565b60008219821115613f8457613f84613e34565b500190565b6020808252602b908201527f496e697469616c697a61626c653a20636f6e7472616374206973206e6f74206960408201526a6e697469616c697a696e6760a81b606082015260800190565b60208082526032908201527f4552433732313a207472616e7366657220746f206e6f6e20455243373231526560408201527131b2b4bb32b91034b6b83632b6b2b73a32b960711b606082015260800190565b600080845481600182811c91508083168061404257607f831692505b602080841082141561406257634e487b7160e01b86526022600452602486fd5b8180156140765760018114614087576140b4565b60ff198616895284890196506140b4565b60008b81526020902060005b868110156140ac5781548b820152908501908301614093565b505084890196505b5050505050506140c48185613e65565b95945050505050565b6f0113730b6b2911d101121b7b9b6b4b1960851b815284516000906140f9816010850160208a01613661565b682057697a617264202360b81b6010918401918201528551614122816019840160208a01613661565b6201116160ed1b6019929091019182018190526e1131bab9ba37b6a730b6b2911d101160891b601c830152855161416081602b850160208a01613661565b602b9201918201527f226465736372697074696f6e223a20224120436f736d69632057697a61726422602e82015261016160f51b604e82015261386f6141c26141bc60508401691134b6b0b3b2911d101160b11b8152600a0190565b86613e65565b6201116160ed1b815260030190565b6f2270726f66657373696f6e73223a207b60801b815282516000906141fd816010850160208801613661565b835190830190614214816010840160208801613661565b6203e96160ed1b60109290910191820152601301949350505050565b6b227374616b696e67223a207b60a01b81526b0113ab73637b1b5b2b2111d160a51b600c820152825160009061426d816018850160208801613661565b61016160f51b6018918401918201526901139ba30b5b2b2111d160b51b601a82015283516142a2816024840160208801613661565b6203e96160ed1b60249290910191820152602701949350505050565b6000607b60f81b8083527f2274726169745f74797065223a202267656e646572222c2000000000000000006001840152680113b30b63ab2911d160bd1b8060198501528651614314816022870160208b01613661565b80850190506203e96160ed1b8060228301528360258301527f2274726169745f74797065223a20226261636b67726f756e64222c200000000060268301528260428301528751925061436d83604b840160208b01613661565b828201925080604b840152505081604e82015261386f6143cd6143c76143b2604f8501750113a3930b4ba2fba3cb832911d10113430b4b91116160551b815260160190565b680113b30b63ab2911d160bd1b815260090190565b87613e65565b6203e96160ed1b815260030190565b6000607b60f81b808352740113a3930b4ba2fba3cb832911d10113430ba11161605d1b6001840152680113b30b63ab2911d160bd1b806016850152865161442a81601f870160208b01613661565b80850190506203e96160ed1b80601f830152836022830152750113a3930b4ba2fba3cb832911d101132bcb2b99116160551b60238301528260398301528751925061447c836042840160208b01613661565b8282019250806042840152505081604582015261386f6143cd6143c76143b260468501750113a3930b4ba2fba3cb832911d10113130b9b29116160551b815260160190565b6000607b60f81b8083527f2274726169745f74797065223a20227374616666222c200000000000000000006001840152680113b30b63ab2911d160bd1b8060188501528651614517816021870160208b01613661565b80850190506203e96160ed1b806021830152836024830152750113a3930b4ba2fba3cb832911d10113937b1329116160551b602583015282603b83015287519250614569836044840160208b01613661565b8282019250806044840152505081604782015261386f6145b56143c76143b2604885017f2274726169745f74797065223a20226d6f757468222c20000000000000000000815260170190565b607d60f81b815260010190565b6e2261747472696275746573223a205b60881b815283516000906145ed81600f850160208901613661565b84519083019061460481600f840160208901613661565b845191019061461a81600f840160208801613661565b605d60f81b600f929091019182015260100195945050505050565b634e487b7160e01b600052601260045260246000fd5b60008261465a5761465a614635565b500490565b600081600019048311821515161561467957614679613e34565b500290565b7f416363657373436f6e74726f6c3a206163636f756e74200000000000000000008152600083516146b6816017850160208801613661565b7001034b99036b4b9b9b4b733903937b6329607d1b60179184019182015283516146e7816028840160208801613661565b01602801949350505050565b6001600160a01b03858116825284166020820152604081018390526080606082018190526000906147269083018461368d565b9695505050505050565b60006020828403121561474257600080fd5b81516113318161362e565b60008261475c5761475c614635565b500690565b6a01130b631b432b6bc911d160ad1b8152865160009061478881600b850160208c01613661565b61016160f51b600b9184019182018190526f01130b931b434ba32b1ba3ab932911d160851b600d83015288516147c581601d850160208d01613661565b601d92019182018190526c01131b0b93832b73a393c911d1609d1b601f83015287516147f881602c850160208c01613661565b602c9201918201526148846148386141bc61486d8261486761484682614832602e8a016a01131b7b7b5b4b733911d160ad1b8152600b0190565b8e613e65565b61016160f51b815260020190565b7401131b93cb9ba30b622bc3a3930b1ba34b7b7111d1605d1b815260150190565b8a613e65565b6a0113330b936b4b733911d160ad1b8152600b0190565b9998505050505050505050565b6a0113334b9b434b733911d160ad1b815286516000906148b881600b850160208c01613661565b61016160f51b600b9184019182018190526d01133b2b6a1baba3a34b733911d160951b600d83015288516148f381601b850160208d01613661565b601b92019182018190526c0113432b93130b634b9b6911d1609d1b601d830152875161492681602a850160208c01613661565b602a92019182015261488461499e61498361483861497d6149648261495e602c89016901136b4b734b733911d160b51b8152600a0190565b8d613e65565b6c0113a30b4b637b934b733911d1609d1b8152600d0190565b89613e65565b6e0113bb7b7b231baba3a34b733911d1608d1b8152600f0190565b85613e65565b6000816149b3576149b3613e34565b506000190190565b634e487b7160e01b600052603160045260246000fdfe4142434445464748494a4b4c4d4e4f505152535455565758595a6162636465666768696a6b6c6d6e6f707172737475767778797a303132333435363738392b2f9f2df0fed2c77648de5860a4cc508cd0818c85b8b8a1ab4ceeef8d981c8956a6a49807205ce4d355092ef5a8a18f56e8913cf4a201fbe287825b095693c21775364d3d7565c7a8300c96fd53e065d19b65848d7b23b3191adcd55621c744223ca264697066735822122022afeb8afa4e0bf9a97102380f4c4bebf2c96e2b406124705e09993aab8368db64736f6c63430008090033",
  "linkReferences": {},
  "deployedLinkReferences": {}
}