{
  "_format": "hh-sol-artifact-1",
  "contractName": "CosmicRefinedResources",
  "sourceName": "contracts/upgradeable/ERC1155/CosmicRefinedResources.sol",
  "abi": [
    {
      "inputs": [],
      "stateMutability": "nonpayable",
      "type": "constructor"
    },
    {
      "anonymous": false,
      "inputs": [
        {
          "indexed": true,
          "internalType": "address",
          "name": "account",
          "type": "address"
        },
        {
          "indexed": true,
          "internalType": "address",
          "name": "operator",
          "type": "address"
        },
        {
          "indexed": false,
          "internalType": "bool",
          "name": "approved",
          "type": "bool"
        }
      ],
      "name": "ApprovalForAll",
      "type": "event"
    },
    {
      "anonymous": false,
      "inputs": [
        {
          "indexed": false,
          "internalType": "uint8",
          "name": "version",
          "type": "uint8"
        }
      ],
      "name": "Initialized",
      "type": "event"
    },
    {
      "anonymous": false,
      "inputs": [
        {
          "indexed": true,
          "internalType": "uint256",
          "name": "tokenId",
          "type": "uint256"
        },
        {
          "indexed": false,
          "internalType": "uint256",
          "name": "attributeId",
          "type": "uint256"
        },
        {
          "indexed": false,
          "internalType": "string",
          "name": "name",
          "type": "string"
        }
      ],
      "name": "NameUpdated",
      "type": "event"
    },
    {
      "anonymous": false,
      "inputs": [
        {
          "indexed": true,
          "internalType": "uint256",
          "name": "tokenId",
          "type": "uint256"
        },
        {
          "indexed": false,
          "internalType": "uint256[]",
          "name": "attributeIds",
          "type": "uint256[]"
        },
        {
          "indexed": false,
          "internalType": "string[]",
          "name": "names",
          "type": "string[]"
        }
      ],
      "name": "NamesUpdated",
      "type": "event"
    },
    {
      "anonymous": false,
      "inputs": [
        {
          "indexed": false,
          "internalType": "address",
          "name": "account",
          "type": "address"
        }
      ],
      "name": "Paused",
      "type": "event"
    },
    {
      "anonymous": false,
      "inputs": [
        {
          "indexed": true,
          "internalType": "bytes32",
          "name": "role",
          "type": "bytes32"
        },
        {
          "indexed": true,
          "internalType": "bytes32",
          "name": "previousAdminRole",
          "type": "bytes32"
        },
        {
          "indexed": true,
          "internalType": "bytes32",
          "name": "newAdminRole",
          "type": "bytes32"
        }
      ],
      "name": "RoleAdminChanged",
      "type": "event"
    },
    {
      "anonymous": false,
      "inputs": [
        {
          "indexed": true,
          "internalType": "bytes32",
          "name": "role",
          "type": "bytes32"
        },
        {
          "indexed": true,
          "internalType": "address",
          "name": "account",
          "type": "address"
        },
        {
          "indexed": true,
          "internalType": "address",
          "name": "sender",
          "type": "address"
        }
      ],
      "name": "RoleGranted",
      "type": "event"
    },
    {
      "anonymous": false,
      "inputs": [
        {
          "indexed": true,
          "internalType": "bytes32",
          "name": "role",
          "type": "bytes32"
        },
        {
          "indexed": true,
          "internalType": "address",
          "name": "account",
          "type": "address"
        },
        {
          "indexed": true,
          "internalType": "address",
          "name": "sender",
          "type": "address"
        }
      ],
      "name": "RoleRevoked",
      "type": "event"
    },
    {
      "anonymous": false,
      "inputs": [
        {
          "indexed": true,
          "internalType": "address",
          "name": "operator",
          "type": "address"
        },
        {
          "indexed": true,
          "internalType": "address",
          "name": "from",
          "type": "address"
        },
        {
          "indexed": true,
          "internalType": "address",
          "name": "to",
          "type": "address"
        },
        {
          "indexed": false,
          "internalType": "uint256[]",
          "name": "ids",
          "type": "uint256[]"
        },
        {
          "indexed": false,
          "internalType": "uint256[]",
          "name": "values",
          "type": "uint256[]"
        }
      ],
      "name": "TransferBatch",
      "type": "event"
    },
    {
      "anonymous": false,
      "inputs": [
        {
          "indexed": true,
          "internalType": "address",
          "name": "operator",
          "type": "address"
        },
        {
          "indexed": true,
          "internalType": "address",
          "name": "from",
          "type": "address"
        },
        {
          "indexed": true,
          "internalType": "address",
          "name": "to",
          "type": "address"
        },
        {
          "indexed": false,
          "internalType": "uint256",
          "name": "id",
          "type": "uint256"
        },
        {
          "indexed": false,
          "internalType": "uint256",
          "name": "value",
          "type": "uint256"
        }
      ],
      "name": "TransferSingle",
      "type": "event"
    },
    {
      "anonymous": false,
      "inputs": [
        {
          "indexed": false,
          "internalType": "string",
          "name": "value",
          "type": "string"
        },
        {
          "indexed": true,
          "internalType": "uint256",
          "name": "id",
          "type": "uint256"
        }
      ],
      "name": "URI",
      "type": "event"
    },
    {
      "anonymous": false,
      "inputs": [
        {
          "indexed": false,
          "internalType": "address",
          "name": "account",
          "type": "address"
        }
      ],
      "name": "Unpaused",
      "type": "event"
    },
    {
      "anonymous": false,
      "inputs": [
        {
          "indexed": true,
          "internalType": "uint256",
          "name": "tokenId",
          "type": "uint256"
        },
        {
          "indexed": false,
          "internalType": "uint256",
          "name": "attributeId",
          "type": "uint256"
        },
        {
          "indexed": false,
          "internalType": "uint256",
          "name": "value",
          "type": "uint256"
        }
      ],
      "name": "ValueUpdated",
      "type": "event"
    },
    {
      "anonymous": false,
      "inputs": [
        {
          "indexed": true,
          "internalType": "uint256",
          "name": "tokenId",
          "type": "uint256"
        },
        {
          "indexed": false,
          "internalType": "uint256[]",
          "name": "attributeIds",
          "type": "uint256[]"
        },
        {
          "indexed": false,
          "internalType": "uint256[]",
          "name": "values",
          "type": "uint256[]"
        }
      ],
      "name": "ValuesUpdated",
      "type": "event"
    },
    {
      "inputs": [],
      "name": "CONTRACT_ROLE",
      "outputs": [
        {
          "internalType": "bytes32",
          "name": "",
          "type": "bytes32"
        }
      ],
      "stateMutability": "view",
      "type": "function"
    },
    {
      "inputs": [],
      "name": "DEFAULT_ADMIN_ROLE",
      "outputs": [
        {
          "internalType": "bytes32",
          "name": "",
          "type": "bytes32"
        }
      ],
      "stateMutability": "view",
      "type": "function"
    },
    {
      "inputs": [],
      "name": "SOULBOUND_WHITELIST_ROLE",
      "outputs": [
        {
          "internalType": "bytes32",
          "name": "",
          "type": "bytes32"
        }
      ],
      "stateMutability": "view",
      "type": "function"
    },
    {
      "inputs": [],
      "name": "activeIds",
      "outputs": [
        {
          "internalType": "uint256[]",
          "name": "",
          "type": "uint256[]"
        }
      ],
      "stateMutability": "view",
      "type": "function"
    },
    {
      "inputs": [
        {
          "internalType": "address",
          "name": "account",
          "type": "address"
        },
        {
          "internalType": "uint256",
          "name": "id",
          "type": "uint256"
        },
        {
          "internalType": "uint256",
          "name": "amount",
          "type": "uint256"
        }
      ],
      "name": "adminBurn",
      "outputs": [],
      "stateMutability": "nonpayable",
      "type": "function"
    },
    {
      "inputs": [
        {
          "internalType": "address",
          "name": "account",
          "type": "address"
        },
        {
          "internalType": "uint256",
          "name": "id",
          "type": "uint256"
        }
      ],
      "name": "balanceOf",
      "outputs": [
        {
          "internalType": "uint256",
          "name": "",
          "type": "uint256"
        }
      ],
      "stateMutability": "view",
      "type": "function"
    },
    {
      "inputs": [],
      "name": "balanceOfAll",
      "outputs": [
        {
          "internalType": "address[]",
          "name": "owners",
          "type": "address[]"
        },
        {
          "internalType": "uint256[][]",
          "name": "tokenIds",
          "type": "uint256[][]"
        },
        {
          "internalType": "uint256[][]",
          "name": "balances",
          "type": "uint256[][]"
        }
      ],
      "stateMutability": "view",
      "type": "function"
    },
    {
      "inputs": [
        {
          "internalType": "address[]",
          "name": "accounts",
          "type": "address[]"
        },
        {
          "internalType": "uint256[]",
          "name": "ids",
          "type": "uint256[]"
        }
      ],
      "name": "balanceOfBatch",
      "outputs": [
        {
          "internalType": "uint256[]",
          "name": "",
          "type": "uint256[]"
        }
      ],
      "stateMutability": "view",
      "type": "function"
    },
    {
      "inputs": [
        {
          "internalType": "uint256",
          "name": "tokenId",
          "type": "uint256"
        },
        {
          "internalType": "uint256[]",
          "name": "attributeIds",
          "type": "uint256[]"
        }
      ],
      "name": "batchGetAttribute",
      "outputs": [
        {
          "internalType": "uint256[]",
          "name": "",
          "type": "uint256[]"
        }
      ],
      "stateMutability": "view",
      "type": "function"
    },
    {
      "inputs": [
        {
          "internalType": "uint256",
          "name": "tokenId",
          "type": "uint256"
        },
        {
          "internalType": "uint256[]",
          "name": "attributeIds",
          "type": "uint256[]"
        },
        {
          "internalType": "uint256[]",
          "name": "values",
          "type": "uint256[]"
        }
      ],
      "name": "batchSetAttribute",
      "outputs": [],
      "stateMutability": "nonpayable",
      "type": "function"
    },
    {
      "inputs": [
        {
          "internalType": "uint256",
          "name": "tokenId",
          "type": "uint256"
        },
        {
          "internalType": "uint256[]",
          "name": "attributeIds",
          "type": "uint256[]"
        },
        {
          "internalType": "string[]",
          "name": "names",
          "type": "string[]"
        }
      ],
      "name": "batchSetAttributeName",
      "outputs": [],
      "stateMutability": "nonpayable",
      "type": "function"
    },
    {
      "inputs": [
        {
          "internalType": "uint256[]",
          "name": "tokenIds",
          "type": "uint256[]"
        },
        {
          "internalType": "uint256[]",
          "name": "attributeIds",
          "type": "uint256[]"
        },
        {
          "internalType": "string[]",
          "name": "names",
          "type": "string[]"
        }
      ],
      "name": "batchSetAttributeNames",
      "outputs": [],
      "stateMutability": "nonpayable",
      "type": "function"
    },
    {
      "inputs": [
        {
          "internalType": "uint256[]",
          "name": "tokenIds",
          "type": "uint256[]"
        }
      ],
      "name": "batchTokenURI",
      "outputs": [
        {
          "internalType": "string[]",
          "name": "",
          "type": "string[]"
        }
      ],
      "stateMutability": "view",
      "type": "function"
    },
    {
      "inputs": [
        {
          "internalType": "uint256[]",
          "name": "tokenIds",
          "type": "uint256[]"
        }
      ],
      "name": "batchUri",
      "outputs": [
        {
          "internalType": "string[]",
          "name": "",
          "type": "string[]"
        }
      ],
      "stateMutability": "view",
      "type": "function"
    },
    {
      "inputs": [],
      "name": "bridgeContract",
      "outputs": [
        {
          "internalType": "address",
          "name": "",
          "type": "address"
        }
      ],
      "stateMutability": "view",
      "type": "function"
    },
    {
      "inputs": [
        {
          "internalType": "uint256",
          "name": "id",
          "type": "uint256"
        },
        {
          "internalType": "uint256",
          "name": "amount",
          "type": "uint256"
        }
      ],
      "name": "bridgeExtraData",
      "outputs": [
        {
          "internalType": "bytes",
          "name": "",
          "type": "bytes"
        }
      ],
      "stateMutability": "view",
      "type": "function"
    },
    {
      "inputs": [
        {
          "internalType": "address",
          "name": "account",
          "type": "address"
        },
        {
          "internalType": "uint256",
          "name": "id",
          "type": "uint256"
        },
        {
          "internalType": "uint256",
          "name": "amount",
          "type": "uint256"
        }
      ],
      "name": "burn",
      "outputs": [],
      "stateMutability": "nonpayable",
      "type": "function"
    },
    {
      "inputs": [
        {
          "internalType": "address",
          "name": "from",
          "type": "address"
        },
        {
          "internalType": "uint256[]",
          "name": "ids",
          "type": "uint256[]"
        },
        {
          "internalType": "uint256[]",
          "name": "amounts",
          "type": "uint256[]"
        }
      ],
      "name": "burnBatch",
      "outputs": [],
      "stateMutability": "nonpayable",
      "type": "function"
    },
    {
      "inputs": [
        {
          "internalType": "uint256",
          "name": "id",
          "type": "uint256"
        }
      ],
      "name": "exists",
      "outputs": [
        {
          "internalType": "bool",
          "name": "",
          "type": "bool"
        }
      ],
      "stateMutability": "view",
      "type": "function"
    },
    {
      "inputs": [
        {
          "internalType": "uint256",
          "name": "tokenId",
          "type": "uint256"
        },
        {
          "internalType": "uint256",
          "name": "attributeId",
          "type": "uint256"
        }
      ],
      "name": "getAttribute",
      "outputs": [
        {
          "internalType": "uint256",
          "name": "",
          "type": "uint256"
        }
      ],
      "stateMutability": "view",
      "type": "function"
    },
    {
      "inputs": [],
      "name": "getBlacklisted",
      "outputs": [
        {
          "internalType": "address[]",
          "name": "",
          "type": "address[]"
        }
      ],
      "stateMutability": "view",
      "type": "function"
    },
    {
      "inputs": [
        {
          "internalType": "bytes32",
          "name": "role",
          "type": "bytes32"
        }
      ],
      "name": "getRoleAdmin",
      "outputs": [
        {
          "internalType": "bytes32",
          "name": "",
          "type": "bytes32"
        }
      ],
      "stateMutability": "view",
      "type": "function"
    },
    {
      "inputs": [
        {
          "internalType": "bytes32",
          "name": "role",
          "type": "bytes32"
        },
        {
          "internalType": "uint256",
          "name": "index",
          "type": "uint256"
        }
      ],
      "name": "getRoleMember",
      "outputs": [
        {
          "internalType": "address",
          "name": "",
          "type": "address"
        }
      ],
      "stateMutability": "view",
      "type": "function"
    },
    {
      "inputs": [
        {
          "internalType": "bytes32",
          "name": "role",
          "type": "bytes32"
        }
      ],
      "name": "getRoleMemberCount",
      "outputs": [
        {
          "internalType": "uint256",
          "name": "",
          "type": "uint256"
        }
      ],
      "stateMutability": "view",
      "type": "function"
    },
    {
      "inputs": [
        {
          "internalType": "bytes32",
          "name": "role",
          "type": "bytes32"
        },
        {
          "internalType": "address",
          "name": "account",
          "type": "address"
        }
      ],
      "name": "grantRole",
      "outputs": [],
      "stateMutability": "nonpayable",
      "type": "function"
    },
    {
      "inputs": [
        {
          "internalType": "bytes32",
          "name": "role",
          "type": "bytes32"
        },
        {
          "internalType": "address",
          "name": "account",
          "type": "address"
        }
      ],
      "name": "hasRole",
      "outputs": [
        {
          "internalType": "bool",
          "name": "",
          "type": "bool"
        }
      ],
      "stateMutability": "view",
      "type": "function"
    },
    {
      "inputs": [],
      "name": "imageBaseURI",
      "outputs": [
        {
          "internalType": "string",
          "name": "",
          "type": "string"
        }
      ],
      "stateMutability": "view",
      "type": "function"
    },
    {
      "inputs": [],
      "name": "initialize",
      "outputs": [],
      "stateMutability": "nonpayable",
      "type": "function"
    },
    {
      "inputs": [
        {
          "internalType": "address",
          "name": "account",
          "type": "address"
        },
        {
          "internalType": "address",
          "name": "operator",
          "type": "address"
        }
      ],
      "name": "isApprovedForAll",
      "outputs": [
        {
          "internalType": "bool",
          "name": "",
          "type": "bool"
        }
      ],
      "stateMutability": "view",
      "type": "function"
    },
    {
      "inputs": [
        {
          "internalType": "address",
          "name": "user",
          "type": "address"
        }
      ],
      "name": "isBlacklisted",
      "outputs": [
        {
          "internalType": "bool",
          "name": "",
          "type": "bool"
        }
      ],
      "stateMutability": "view",
      "type": "function"
    },
    {
      "inputs": [
        {
          "internalType": "uint256",
          "name": "tokenId",
          "type": "uint256"
        }
      ],
      "name": "isSoulbound",
      "outputs": [
        {
          "internalType": "bool",
          "name": "",
          "type": "bool"
        }
      ],
      "stateMutability": "view",
      "type": "function"
    },
    {
      "inputs": [
        {
          "internalType": "address",
          "name": "account",
          "type": "address"
        },
        {
          "internalType": "uint256",
          "name": "id",
          "type": "uint256"
        },
        {
          "internalType": "uint256",
          "name": "amount",
          "type": "uint256"
        },
        {
          "internalType": "bytes",
          "name": "data",
          "type": "bytes"
        }
      ],
      "name": "mint",
      "outputs": [],
      "stateMutability": "nonpayable",
      "type": "function"
    },
    {
      "inputs": [
        {
          "internalType": "address",
          "name": "to",
          "type": "address"
        },
        {
          "internalType": "uint256[]",
          "name": "ids",
          "type": "uint256[]"
        },
        {
          "internalType": "uint256[]",
          "name": "amounts",
          "type": "uint256[]"
        },
        {
          "internalType": "bytes",
          "name": "data",
          "type": "bytes"
        }
      ],
      "name": "mintBatch",
      "outputs": [],
      "stateMutability": "nonpayable",
      "type": "function"
    },
    {
      "inputs": [
        {
          "internalType": "uint256",
          "name": "id",
          "type": "uint256"
        },
        {
          "internalType": "address[]",
          "name": "to",
          "type": "address[]"
        },
        {
          "internalType": "uint256[]",
          "name": "amounts",
          "type": "uint256[]"
        }
      ],
      "name": "mintBatchOf",
      "outputs": [],
      "stateMutability": "nonpayable",
      "type": "function"
    },
    {
      "inputs": [],
      "name": "name",
      "outputs": [
        {
          "internalType": "string",
          "name": "",
          "type": "string"
        }
      ],
      "stateMutability": "view",
      "type": "function"
    },
    {
      "inputs": [],
      "name": "pause",
      "outputs": [],
      "stateMutability": "nonpayable",
      "type": "function"
    },
    {
      "inputs": [],
      "name": "paused",
      "outputs": [
        {
          "internalType": "bool",
          "name": "",
          "type": "bool"
        }
      ],
      "stateMutability": "view",
      "type": "function"
    },
    {
      "inputs": [
        {
          "internalType": "bytes32",
          "name": "role",
          "type": "bytes32"
        },
        {
          "internalType": "address",
          "name": "account",
          "type": "address"
        }
      ],
      "name": "renounceRole",
      "outputs": [],
      "stateMutability": "nonpayable",
      "type": "function"
    },
    {
      "inputs": [
        {
          "internalType": "bytes32",
          "name": "role",
          "type": "bytes32"
        },
        {
          "internalType": "address",
          "name": "account",
          "type": "address"
        }
      ],
      "name": "revokeRole",
      "outputs": [],
      "stateMutability": "nonpayable",
      "type": "function"
    },
    {
      "inputs": [
        {
          "internalType": "address",
          "name": "from",
          "type": "address"
        },
        {
          "internalType": "address",
          "name": "to",
          "type": "address"
        },
        {
          "internalType": "uint256[]",
          "name": "ids",
          "type": "uint256[]"
        },
        {
          "internalType": "uint256[]",
          "name": "amounts",
          "type": "uint256[]"
        },
        {
          "internalType": "bytes",
          "name": "data",
          "type": "bytes"
        }
      ],
      "name": "safeBatchTransferFrom",
      "outputs": [],
      "stateMutability": "nonpayable",
      "type": "function"
    },
    {
      "inputs": [
        {
          "internalType": "address",
          "name": "from",
          "type": "address"
        },
        {
          "internalType": "address",
          "name": "to",
          "type": "address"
        },
        {
          "internalType": "uint256",
          "name": "id",
          "type": "uint256"
        },
        {
          "internalType": "uint256",
          "name": "amount",
          "type": "uint256"
        },
        {
          "internalType": "bytes",
          "name": "data",
          "type": "bytes"
        }
      ],
      "name": "safeTransferFrom",
      "outputs": [],
      "stateMutability": "nonpayable",
      "type": "function"
    },
    {
      "inputs": [
        {
          "internalType": "address",
          "name": "operator",
          "type": "address"
        },
        {
          "internalType": "bool",
          "name": "approved",
          "type": "bool"
        }
      ],
      "name": "setApprovalForAll",
      "outputs": [],
      "stateMutability": "nonpayable",
      "type": "function"
    },
    {
      "inputs": [
        {
          "internalType": "uint256",
          "name": "tokenId",
          "type": "uint256"
        },
        {
          "internalType": "uint256",
          "name": "attributeId",
          "type": "uint256"
        },
        {
          "internalType": "uint256",
          "name": "value",
          "type": "uint256"
        }
      ],
      "name": "setAttribute",
      "outputs": [],
      "stateMutability": "nonpayable",
      "type": "function"
    },
    {
      "inputs": [
        {
          "internalType": "uint256",
          "name": "tokenId",
          "type": "uint256"
        },
        {
          "internalType": "uint256",
          "name": "attributeId",
          "type": "uint256"
        },
        {
          "internalType": "string",
          "name": "name",
          "type": "string"
        }
      ],
      "name": "setAttributeName",
      "outputs": [],
      "stateMutability": "nonpayable",
      "type": "function"
    },
    {
      "inputs": [
        {
          "internalType": "address",
          "name": "_bridgeContract",
          "type": "address"
        }
      ],
      "name": "setBridgeContract",
      "outputs": [],
      "stateMutability": "nonpayable",
      "type": "function"
    },
    {
      "inputs": [
        {
          "internalType": "string",
          "name": "_imageBaseURI",
          "type": "string"
        }
      ],
      "name": "setImageBaseURI",
      "outputs": [],
      "stateMutability": "nonpayable",
      "type": "function"
    },
    {
      "inputs": [
        {
          "internalType": "uint256",
          "name": "tokenId",
          "type": "uint256"
        }
      ],
      "name": "setSoulbound",
      "outputs": [],
      "stateMutability": "nonpayable",
      "type": "function"
    },
    {
      "inputs": [
        {
          "internalType": "bytes4",
          "name": "interfaceId",
          "type": "bytes4"
        }
      ],
      "name": "supportsInterface",
      "outputs": [
        {
          "internalType": "bool",
          "name": "",
          "type": "bool"
        }
      ],
      "stateMutability": "view",
      "type": "function"
    },
    {
      "inputs": [],
      "name": "symbol",
      "outputs": [
        {
          "internalType": "string",
          "name": "",
          "type": "string"
        }
      ],
      "stateMutability": "view",
      "type": "function"
    },
    {
      "inputs": [
        {
          "internalType": "address",
          "name": "owner",
          "type": "address"
        }
      ],
      "name": "tokensOf",
      "outputs": [
        {
          "internalType": "uint256[]",
          "name": "tokenIds",
          "type": "uint256[]"
        },
        {
          "internalType": "uint256[]",
          "name": "balances",
          "type": "uint256[]"
        }
      ],
      "stateMutability": "view",
      "type": "function"
    },
    {
      "inputs": [
        {
          "internalType": "uint256",
          "name": "id",
          "type": "uint256"
        }
      ],
      "name": "totalSupply",
      "outputs": [
        {
          "internalType": "uint256",
          "name": "",
          "type": "uint256"
        }
      ],
      "stateMutability": "view",
      "type": "function"
    },
    {
      "inputs": [],
      "name": "unpause",
      "outputs": [],
      "stateMutability": "nonpayable",
      "type": "function"
    },
    {
      "inputs": [
        {
          "internalType": "uint256",
          "name": "tokenId",
          "type": "uint256"
        }
      ],
      "name": "unsetSoulbound",
      "outputs": [],
      "stateMutability": "nonpayable",
      "type": "function"
    },
    {
      "inputs": [
        {
          "internalType": "uint256",
          "name": "tokenId",
          "type": "uint256"
        }
      ],
      "name": "uri",
      "outputs": [
        {
          "internalType": "string",
          "name": "",
          "type": "string"
        }
      ],
      "stateMutability": "view",
      "type": "function"
    }
  ],
  "bytecode": "0x60806040523480156200001157600080fd5b506200001c62000022565b620000e4565b600054610100900460ff16156200008f5760405162461bcd60e51b815260206004820152602760248201527f496e697469616c697a61626c653a20636f6e747261637420697320696e697469604482015266616c697a696e6760c81b606482015260840160405180910390fd5b60005460ff9081161015620000e2576000805460ff191660ff9081179091556040519081527f7f26b83ff96e1f2b6a682f133852f6798a09c465da95921460cefb38474024989060200160405180910390a15b565b61545880620000f46000396000f3fe608060405234801561001057600080fd5b50600436106103415760003560e01c80638129fc1c116101b8578063b198ce4611610104578063d547741f116100a2578063f5298aca1161007c578063f5298aca14610753578063fb95ac2d14610766578063fd5eea4e14610788578063fe575a871461079b57600080fd5b8063d547741f146106f1578063e985e9c514610704578063f242432a1461074057600080fd5b8063ca15c873116100de578063ca15c873146106a2578063cd596583146106b5578063ce3675ad146106c9578063d179191a146106de57600080fd5b8063b198ce4614610674578063bd85b0391461067c578063c385ce251461068f57600080fd5b806395d89b4111610171578063a17d79ec1161014b578063a17d79ec14610631578063a217fddf14610646578063a22cb4651461064e578063b0fe60d51461066157600080fd5b806395d89b411461060357806396c45e2f1461060b578063994a95be1461061e57600080fd5b80638129fc1c1461058f5780638456cb591461059757806387be85d31461059f5780639010d07c146105b2578063911ec470146105dd57806391d14854146105f057600080fd5b806336568abe116102925780636b20c45411610230578063731133e91161020a578063731133e91461054e5780637685945e1461056157806377645839146105745780637d7a6d131461057c57600080fd5b80636b20c454146105085780636cfa24cc1461051b5780636d94f13a1461052e57600080fd5b80634f558e791161026c5780634f558e79146104b557806358870da1146104c85780635a3f2672146104db5780635c975abb146104fc57600080fd5b806336568abe1461047a5780633f4ba83a1461048d5780634e1273f41461049557600080fd5b80631b56a5be116102ff57806321e5548c116102d957806321e5548c1461041e578063248a9ca3146104315780632eb2c2d6146104545780632f2ff15d1461046757600080fd5b80631b56a5be146103e15780631f7fdffa146103f4578063208e509f1461040757600080fd5b8062fdd58e1461034657806301ffc9a71461036c57806303fe46ab1461038f57806306fdde03146103a45780630b26cf66146103b95780630e89341c146103ce575b600080fd5b610359610354366004613c14565b6107ae565b6040519081526020015b60405180910390f35b61037f61037a366004613c54565b610849565b6040519015158152602001610363565b6103596000805160206153c983398151915281565b6103ac61086e565b6040516103639190613cc1565b6103cc6103c7366004613cd4565b6108fd565b005b6103ac6103dc366004613cef565b610937565b6103cc6103ef366004613d08565b610b1b565b6103cc610402366004613dc0565b610b42565b61040f610c04565b60405161036393929190613f33565b6103cc61042c366004613f76565b610d35565b61035961043f366004613cef565b60009081526097602052604090206001015490565b6103cc610462366004614158565b610dfb565b6103cc610475366004614201565b610e47565b6103cc610488366004614201565b610e6c565b6103cc610eea565b6104a86104a336600461422d565b610f0b565b60405161036391906142f7565b61037f6104c3366004613cef565b611034565b6103cc6104d636600461430a565b611047565b6104ee6104e9366004613cd4565b6110c4565b604051610363929190614359565b6101295460ff1661037f565b6103cc61051636600461437e565b611189565b6103cc6105293660046143e7565b6111ab565b61054161053c366004614428565b611201565b60405161036391906144a4565b6103cc61055c3660046144b7565b61120c565b61035961056f366004614517565b611235565b6103ac611255565b6103cc61058a366004614539565b611263565b6103cc611327565b6103cc611502565b6103cc6105ad36600461456c565b611521565b6105c56105c0366004614517565b6115b6565b6040516001600160a01b039091168152602001610363565b61037f6105eb366004613cef565b6115ce565b61037f6105fe366004614201565b6115f2565b6103ac61161d565b6103cc610619366004613cef565b61162b565b6104a861062c3660046145e5565b611668565b61035960008051602061538983398151915281565b610359600081565b6103cc61065c366004614621565b61172b565b61054161066f366004614428565b611736565b6104a86117ee565b61035961068a366004613cef565b61188c565b6103cc61069d366004613cef565b6118a3565b6103596106b0366004613cef565b6118df565b6102ba546105c5906001600160a01b031681565b6106d16118f6565b604051610363919061465d565b6103cc6106ec366004614670565b611908565b6103cc6106ff366004614201565b6119d6565b61037f61071236600461475b565b6001600160a01b03918216600090815260666020908152604080832093909416825291909152205460ff1690565b6103cc61074e366004614785565b6119fb565b6103cc610761366004613d08565b611a40565b6103ac610774366004614517565b505060408051602081019091526000815290565b6103cc6107963660046147e9565b611a4b565b61037f6107a9366004613cd4565b611ab6565b60006001600160a01b03831661081e5760405162461bcd60e51b815260206004820152602a60248201527f455243313135353a2061646472657373207a65726f206973206e6f742061207660448201526930b634b21037bbb732b960b11b60648201526084015b60405180910390fd5b5060008181526065602090815260408083206001600160a01b03861684529091529020545b92915050565b600063b0f4708d60e01b6001600160e01b031983161480610843575061084382611ac4565b610288805461087c90614815565b80601f01602080910402602001604051908101604052809291908181526020018280546108a890614815565b80156108f55780601f106108ca576101008083540402835291602001916108f5565b820191906000526020600020905b8154815290600101906020018083116108d857829003601f168201915b505050505081565b6109146000805160206153a9833981519152611ae9565b6102ba80546001600160a01b0319166001600160a01b0392909216919091179055565b60606000610947836103e8611af3565b90506000610957846103e9611af3565b6040805160038082526080820190925291925060009190816020015b61099760405180606001604052806060815260200160608152602001606081525090565b81526020019060019003908161097357905050905060405180606001604052806040518060400160405280600a815260200169283937b332b9b9b4b7b760b11b81525081526020016040518060200160405280600081525081526020016109ff876000611af3565b81525081600081518110610a1557610a1561484f565b60200260200101819052506040518060600160405280604051806040016040528060048152602001635479706560e01b8152508152602001604051806020016040528060008152508152602001610a6d876001611af3565b81525081600181518110610a8357610a8361484f565b602002602001018190525060405180606001604052806040518060400160405280600681526020016552617269747960d01b8152508152602001604051806020016040528060008152508152602001610add876002611af3565b81525081600281518110610af357610af361484f565b6020026020010181905250610b12610b0d86858585611ba2565b611bee565b95945050505050565b610b326000805160206153a9833981519152611ae9565b610b3d838383611c1f565b505050565b610b59600080516020615369833981519152611ae9565b610bfb8787878080602002602001604051908101604052809392919081815260200183836020028082843760009201919091525050604080516020808b0282810182019093528a82529093508a92508991829185019084908082843760009201919091525050604080516020601f8a018190048102820181019092528881529250889150879081908401838280828437600092019190915250611d3b92505050565b50505050505050565b6060806060610c14610190611e96565b925082516001600160401b03811115610c2f57610c2f61400f565b604051908082528060200260200182016040528015610c6257816020015b6060815260200190600190039081610c4d5790505b50915082516001600160401b03811115610c7e57610c7e61400f565b604051908082528060200260200182016040528015610cb157816020015b6060815260200190600190039081610c9c5790505b50905060005b8351811015610d2f57610ce2848281518110610cd557610cd561484f565b60200260200101516110c4565b848381518110610cf457610cf461484f565b60200260200101848481518110610d0d57610d0d61484f565b6020026020010182905282905250508080610d279061487b565b915050610cb7565b50909192565b6000805160206153c9833981519152610d4d81611ae9565b60005b86811015610df157838382818110610d6a57610d6a61484f565b9050602002810190610d7c9190614894565b6101f560008b8b86818110610d9357610d9361484f565b9050602002013581526020019081526020016000206000898986818110610dbc57610dbc61484f565b9050602002013581526020019081526020016000209182610dde929190614920565b5080610de98161487b565b915050610d50565b5050505050505050565b6001600160a01b038516331480610e175750610e178533610712565b610e335760405162461bcd60e51b8152600401610815906149df565b610e408585858585611ea3565b5050505050565b600082815260976020526040902060010154610e6281611ae9565b610b3d8383612048565b6001600160a01b0381163314610edc5760405162461bcd60e51b815260206004820152602f60248201527f416363657373436f6e74726f6c3a2063616e206f6e6c792072656e6f756e636560448201526e103937b632b9903337b91039b2b63360891b6064820152608401610815565b610ee6828261206a565b5050565b610f016000805160206153a9833981519152611ae9565b610f0961208c565b565b60608151835114610f705760405162461bcd60e51b815260206004820152602960248201527f455243313135353a206163636f756e747320616e6420696473206c656e677468604482015268040dad2e6dac2e8c6d60bb1b6064820152608401610815565b600083516001600160401b03811115610f8b57610f8b61400f565b604051908082528060200260200182016040528015610fb4578160200160208202803683370190505b50905060005b845181101561102c57610fff858281518110610fd857610fd861484f565b6020026020010151858381518110610ff257610ff261484f565b60200260200101516107ae565b8282815181106110115761101161484f565b60209081029190910101526110258161487b565b9050610fba565b509392505050565b6000806110408361188c565b1192915050565b6000805160206153c983398151915261105f81611ae9565b60008481526101f56020908152604080832086845290915290206110838382614a2d565b50837ffdbb964a9a1d2ac903ed7ebf85795be6728c27e96237552b2805596c759e088184846040516110b6929190614aec565b60405180910390a250505050565b6001600160a01b03811660009081526101926020526040902060609081906110eb90611e96565b915081516001600160401b038111156111065761110661400f565b60405190808252806020026020018201604052801561112f578160200160208202803683370190505b50905060005b82518110156111835761115484848381518110610ff257610ff261484f565b8282815181106111665761116661484f565b60209081029190910101528061117b8161487b565b915050611135565b50915091565b6111a06000805160206153a9833981519152611ae9565b610b3d8383836120df565b6111c26000805160206153a9833981519152611ae9565b610ee682828080601f01602080910402602001604051908101604052809392919081815260200183838082843760009201919091525061227e92505050565b606061084382611736565b611223600080516020615369833981519152611ae9565b61122f8484848461228b565b50505050565b60008281526101f46020526040812061124e908361236d565b9392505050565b610225805461087c90614815565b6000805160206153c983398151915261127b81611ae9565b60005b83518110156112f4576112e184828151811061129c5761129c61484f565b60200260200101518483815181106112b6576112b661484f565b60200260200101516101f460008981526020019081526020016000206123799092919063ffffffff16565b50806112ec8161487b565b91505061127e565b50837f383bcccfd5e9b61afe7e6832ca2201fe34d7766a9bbf90fb7152082ddbcd342b84846040516110b6929190614359565b600054610100900460ff16158080156113475750600054600160ff909116105b806113615750303b158015611361575060005460ff166001145b6113c45760405162461bcd60e51b815260206004820152602e60248201527f496e697469616c697a61626c653a20636f6e747261637420697320616c72656160448201526d191e481a5b9a5d1a585b1a5e995960921b6064820152608401610815565b6000805460ff1916600117905580156113e7576000805461ff0019166101001790555b6113ff60405180602001604052806000815250612386565b6114076123b6565b61140f61248c565b6114176124bb565b61141f6124bb565b6114276124bb565b61142f6124e2565b6114506040518060600160405280603a81526020016153e9603a9139612541565b611458612568565b6114b96040518060400160405280601881526020017f436f736d696320526566696e6564205265736f757263657300000000000000008152506040518060400160405280600a815260200169524546494e454452455360b01b8152506125af565b80156114ff576000805461ff0019169055604051600181527f7f26b83ff96e1f2b6a682f133852f6798a09c465da95921460cefb38474024989060200160405180910390a15b50565b6115196000805160206153a9833981519152611ae9565b610f096125f1565b611538600080516020615369833981519152611ae9565b60005b838110156115ae5761159c8585838181106115585761155861484f565b905060200201602081019061156d9190613cd4565b878585858181106115805761158061484f565b905060200201356040518060200160405280600081525061228b565b806115a68161487b565b91505061153b565b505050505050565b600082815260c96020526040812061124e908361262f565b600881901c60009081526102576020526040812054600160ff84161b161515610843565b60009182526097602090815260408084206001600160a01b0393909316845291905290205460ff1690565b610289805461087c90614815565b6000805160206153a983398151915261164381611ae9565b600882901c6000908152610257602052604090208054600160ff85161b191690555050565b6060600082516001600160401b038111156116855761168561400f565b6040519080825280602002602001820160405280156116ae578160200160208202803683370190505b50905060005b835181101561102c576116fc8482815181106116d2576116d261484f565b60200260200101516101f4600088815260200190815260200160002061236d90919063ffffffff16565b82828151811061170e5761170e61484f565b6020908102919091010152806117238161487b565b9150506116b4565b610ee633838361265f565b6060600082516001600160401b038111156117535761175361400f565b60405190808252806020026020018201604052801561178657816020015b60608152602001906001900390816117715790505b50905060005b83518110156117e7576117b78482815181106117aa576117aa61484f565b6020026020010151610937565b8282815181106117c9576117c961484f565b602002602001018190525080806117df9061487b565b91505061178c565b5092915050565b606060006117fd61018d61273f565b90506000816001600160401b038111156118195761181961400f565b604051908082528060200260200182016040528015611842578160200160208202803683370190505b50905060005b828110156117e75761185c61018d8261274a565b5082828151811061186f5761186f61484f565b6020908102919091010152806118848161487b565b915050611848565b60008061189b61018d84612768565b949350505050565b6000805160206153a98339815191526118bb81611ae9565b600882901c6000908152610257602052604090208054600160ff85161b1790555050565b600081815260c96020526040812061084390612777565b60606119036101c1611e96565b905090565b6000805160206153c983398151915261192081611ae9565b60005b83518110156119a35782818151811061193e5761193e61484f565b60200260200101516101f56000878152602001908152602001600020600086848151811061196e5761196e61484f565b6020026020010151815260200190815260200160002090816119909190614a2d565b508061199b8161487b565b915050611923565b50837f9d69ed3cc764cf4f579cfc28312dded7bb202f17cc77aa4d0eb3f8bbaecd88e384846040516110b6929190614b05565b6000828152609760205260409020600101546119f181611ae9565b610b3d838361206a565b6001600160a01b038516331480611a175750611a178533610712565b611a335760405162461bcd60e51b8152600401610815906149df565b610e408585858585612781565b610b3d8383836128bd565b6000805160206153c9833981519152611a6381611ae9565b60008481526101f460205260409020611a7d908484612379565b50604080518481526020810184905285917f5cb4c5f05283d5a84da3f9f1b0fe8b00d7ea8e1fb833812b52114799bdf1acc791016110b6565b60006108436101c1836128f5565b60006001600160e01b03198216635a05180f60e01b1480610843575061084382612917565b6114ff813361293c565b60008281526101f5602090815260408083208484529091529020805460609190611b1c90614815565b80601f0160208091040260200160405190810160405280929190818152602001828054611b4890614815565b8015611b955780601f10611b6a57610100808354040283529160200191611b95565b820191906000526020600020905b815481529060010190602001808311611b7857829003601f168201915b5050505050905092915050565b60606000611bb1868686612995565b90506000611bbe846129ff565b90508181604051602001611bd3929190614b46565b60405160208183030381529060405292505050949350505050565b6060611bf982612b8a565b604051602001611c099190614b93565b6040516020818303038152906040529050919050565b6001600160a01b038316611c455760405162461bcd60e51b815260040161081590614bd8565b336000611c5184612cdc565b90506000611c5e84612cdc565b9050611c7e83876000858560405180602001604052806000815250612d27565b60008581526065602090815260408083206001600160a01b038a16845290915290205484811015611cc15760405162461bcd60e51b815260040161081590614c1b565b60008681526065602090815260408083206001600160a01b038b81168086529184528285208a8703905582518b81529384018a90529092908816917fc3d58168c5ae7397731d063d5bbf3d657854427343f4c083240f7aacaa2d0f62910160405180910390a4604080516020810190915260009052610bfb565b6001600160a01b038416611d615760405162461bcd60e51b815260040161081590614c5f565b8151835114611d825760405162461bcd60e51b815260040161081590614ca0565b33611d9281600087878787612d27565b60005b8451811015611e2e57838181518110611db057611db061484f565b602002602001015160656000878481518110611dce57611dce61484f565b602002602001015181526020019081526020016000206000886001600160a01b03166001600160a01b031681526020019081526020016000206000828254611e169190614ce8565b90915550819050611e268161487b565b915050611d95565b50846001600160a01b031660006001600160a01b0316826001600160a01b03167f4a39dc06d4c0dbc64b70af90fd698a233a518aa5d07e595d983b8c0526c8f7fb8787604051611e7f929190614359565b60405180910390a4610e4081600087878787612e2f565b6060600061124e83612f8a565b8151835114611ec45760405162461bcd60e51b815260040161081590614ca0565b6001600160a01b038416611eea5760405162461bcd60e51b815260040161081590614cfb565b33611ef9818787878787612d27565b60005b8451811015611fe2576000858281518110611f1957611f1961484f565b602002602001015190506000858381518110611f3757611f3761484f565b60209081029190910181015160008481526065835260408082206001600160a01b038e168352909352919091205490915081811015611f885760405162461bcd60e51b815260040161081590614d40565b60008381526065602090815260408083206001600160a01b038e8116855292528083208585039055908b16825281208054849290611fc7908490614ce8565b9250508190555050505080611fdb9061487b565b9050611efc565b50846001600160a01b0316866001600160a01b0316826001600160a01b03167f4a39dc06d4c0dbc64b70af90fd698a233a518aa5d07e595d983b8c0526c8f7fb8787604051612032929190614359565b60405180910390a46115ae818787878787612e2f565b6120528282612fe6565b600082815260c960205260409020610b3d908261306c565b6120748282613081565b600082815260c960205260409020610b3d90826130e8565b6120946130fd565b610129805460ff191690557f5db9ee0a495bf2e6ff9c91a7834c1ba4fdd244a5e8aa4e537bd38aeae4b073aa335b6040516001600160a01b03909116815260200160405180910390a1565b6001600160a01b0383166121055760405162461bcd60e51b815260040161081590614bd8565b80518251146121265760405162461bcd60e51b815260040161081590614ca0565b600033905061214981856000868660405180602001604052806000815250612d27565b60005b83518110156122115760008482815181106121695761216961484f565b6020026020010151905060008483815181106121875761218761484f565b60209081029190910181015160008481526065835260408082206001600160a01b038c1683529093529190912054909150818110156121d85760405162461bcd60e51b815260040161081590614c1b565b60009283526065602090815260408085206001600160a01b038b16865290915290922091039055806122098161487b565b91505061214c565b5060006001600160a01b0316846001600160a01b0316826001600160a01b03167f4a39dc06d4c0dbc64b70af90fd698a233a518aa5d07e595d983b8c0526c8f7fb8686604051612262929190614359565b60405180910390a460408051602081019091526000905261122f565b610225610ee68282614a2d565b6001600160a01b0384166122b15760405162461bcd60e51b815260040161081590614c5f565b3360006122bd85612cdc565b905060006122ca85612cdc565b90506122db83600089858589612d27565b60008681526065602090815260408083206001600160a01b038b1684529091528120805487929061230d908490614ce8565b909155505060408051878152602081018790526001600160a01b03808a1692600092918716917fc3d58168c5ae7397731d063d5bbf3d657854427343f4c083240f7aacaa2d0f62910160405180910390a4610bfb83600089898989613147565b600061124e8383613202565b600061189b848484613272565b600054610100900460ff166123ad5760405162461bcd60e51b815260040161081590614d8a565b6114ff8161328f565b600054610100900460ff166123dd5760405162461bcd60e51b815260040161081590614d8a565b6123e56124bb565b6123f0600033612048565b6124086000805160206153a983398151915233612048565b6124206000805160206153c983398151915233612048565b61243860008051602061536983398151915233612048565b6124627ff18b77e1ef402111bacb54bd5e03494cbdba92fbd1bd3bbcc1ce77e69b42ea6c33612048565b610f097f52ba824bfabc2bcfcdf7f0edbb486ebb05e1836c90e78047efeb949990f72e5f33612048565b600054610100900460ff166124b35760405162461bcd60e51b815260040161081590614d8a565b610f096132bf565b600054610100900460ff16610f095760405162461bcd60e51b815260040161081590614d8a565b600054610100900460ff166125095760405162461bcd60e51b815260040161081590614d8a565b6125116124bb565b6125296000805160206153a983398151915233612048565b610f0960008051602061538983398151915233612048565b600054610100900460ff1661227e5760405162461bcd60e51b815260040161081590614d8a565b600054610100900460ff1661258f5760405162461bcd60e51b815260040161081590614d8a565b6125976124bb565b610f096000805160206153c983398151915233612048565b600054610100900460ff166125d65760405162461bcd60e51b815260040161081590614d8a565b6102886125e38382614a2d565b50610289610b3d8282614a2d565b6125f96132f3565b610129805460ff191660011790557f62e78cea01bee320cd4e420270b5ea74000d11b0c9f74754ebdbfc544b05a2586120c23390565b600061124e838361333a565b600881901c600090815260208390526040902054600160ff83161b16151592915050565b816001600160a01b0316836001600160a01b0316036126d25760405162461bcd60e51b815260206004820152602960248201527f455243313135353a2073657474696e6720617070726f76616c20737461747573604482015268103337b91039b2b63360b91b6064820152608401610815565b6001600160a01b03838116600081815260666020908152604080832094871680845294825291829020805460ff191686151590811790915591519182527f17307eab39ab6107e8899845ad3d59bd9653f200f220920489ca2b5937696c31910160405180910390a3505050565b600061084382613364565b6000808080612759868661336f565b909450925050505b9250929050565b6000808080612759868661339a565b6000610843825490565b6001600160a01b0384166127a75760405162461bcd60e51b815260040161081590614cfb565b3360006127b385612cdc565b905060006127c085612cdc565b90506127d0838989858589612d27565b60008681526065602090815260408083206001600160a01b038c168452909152902054858110156128135760405162461bcd60e51b815260040161081590614d40565b60008781526065602090815260408083206001600160a01b038d8116855292528083208985039055908a16825281208054889290612852908490614ce8565b909155505060408051888152602081018890526001600160a01b03808b16928c821692918816917fc3d58168c5ae7397731d063d5bbf3d657854427343f4c083240f7aacaa2d0f62910160405180910390a46128b2848a8a8a8a8a613147565b505050505050505050565b6001600160a01b0383163314806128d957506128d98333610712565b610b325760405162461bcd60e51b8152600401610815906149df565b6001600160a01b0381166000908152600183016020526040812054151561124e565b60006001600160e01b03198216637965db0b60e01b14806108435750610843826133d4565b61294682826115f2565b610ee65761295381613424565b61295e836020613436565b60405160200161296f929190614dd5565b60408051601f198184030181529082905262461bcd60e51b825261081591600401613cc1565b606060006102256129a5866135d1565b6040516020016129b6929190614e4a565b6040516020818303038152906040529050836129d1866135d1565b84836040516020016129e69493929190614ed1565b6040516020818303038152906040529150509392505050565b60408051602081019091526000808252606091905b8351811015612b6157600060018551612a2d9190614fc9565b8214612a5257604051806040016040528060018152602001600b60fa1b815250612a63565b604051806020016040528060008152505b90506000858381518110612a7957612a7961484f565b60200260200101516020015151600014612acf57858381518110612a9f57612a9f61484f565b602002602001015160200151604051602001612abb9190614fdc565b604051602081830303815290604052612ae0565b604051806020016040528060008152505b9050600084878581518110612af757612af761484f565b60200260200101516000015183898781518110612b1657612b1661484f565b60200260200101516040015186604051602001612b37959493929190615021565b60405160208183030381529060405290508094505050508080612b599061487b565b915050612a14565b5080604051602001612b7391906150de565b604051602081830303815290604052915050919050565b60608151600003612ba957505060408051602081019091526000815290565b60006040518060600160405280604081526020016153296040913990506000600384516002612bd89190614ce8565b612be29190615120565b612bed906004615142565b6001600160401b03811115612c0457612c0461400f565b6040519080825280601f01601f191660200182016040528015612c2e576020820181803683370190505b509050600182016020820185865187015b80821015612c9a576003820191508151603f8160121c168501518453600184019350603f81600c1c168501518453600184019350603f8160061c168501518453600184019350603f8116850151845350600183019250612c3f565b5050600386510660018114612cb65760028114612cc957612cd1565b603d6001830353603d6002830353612cd1565b603d60018303535b509195945050505050565b60408051600180825281830190925260609160009190602080830190803683370190505090508281600081518110612d1657612d1661484f565b602090810291909101015292915050565b612d2f6132f3565b82858560005b8351811015612e2057612d6c848281518110612d5357612d5361484f565b602002602001015161025761263b90919063ffffffff16565b1580612d7f57506001600160a01b038316155b80612d9157506001600160a01b038216155b80612daf5750612daf600080516020615389833981519152846115f2565b80612dcd5750612dcd600080516020615389833981519152836115f2565b612e0e5760405162461bcd60e51b8152602060048201526012602482015271151bdad95b881a5cc81cdbdd5b189bdd5b9960721b6044820152606401610815565b80612e188161487b565b915050612d35565b506128b2898989898989613663565b6001600160a01b0384163b156115ae5760405163bc197c8160e01b81526001600160a01b0385169063bc197c8190612e739089908990889088908890600401615159565b6020604051808303816000875af1925050508015612eae575060408051601f3d908101601f19168201909252612eab918101906151b7565b60015b612f5a57612eba6151d4565b806308c379a003612ef35750612ece6151f0565b80612ed95750612ef5565b8060405162461bcd60e51b81526004016108159190613cc1565b505b60405162461bcd60e51b815260206004820152603460248201527f455243313135353a207472616e7366657220746f206e6f6e2d455243313135356044820152732932b1b2b4bb32b91034b6b83632b6b2b73a32b960611b6064820152608401610815565b6001600160e01b0319811663bc197c8160e01b14610bfb5760405162461bcd60e51b815260040161081590615279565b606081600001805480602002602001604051908101604052809291908181526020018280548015612fda57602002820191906000526020600020905b815481526020019060010190808311612fc6575b50505050509050919050565b612ff082826115f2565b610ee65760008281526097602090815260408083206001600160a01b03851684529091529020805460ff191660011790556130283390565b6001600160a01b0316816001600160a01b0316837f2f8788117e7eff1d82e926ec794901d17c78024a50270940304540a733656f0d60405160405180910390a45050565b600061124e836001600160a01b0384166138b6565b61308b82826115f2565b15610ee65760008281526097602090815260408083206001600160a01b0385168085529252808320805460ff1916905551339285917ff6391f5c32d9c69d2a47ea670b442974b53935d1edc7fd64eb21e047a839171b9190a45050565b600061124e836001600160a01b038416613905565b6101295460ff16610f095760405162461bcd60e51b815260206004820152601460248201527314185d5cd8589b194e881b9bdd081c185d5cd95960621b6044820152606401610815565b6001600160a01b0384163b156115ae5760405163f23a6e6160e01b81526001600160a01b0385169063f23a6e619061318b90899089908890889088906004016152c1565b6020604051808303816000875af19250505080156131c6575060408051601f3d908101601f191682019092526131c3918101906151b7565b60015b6131d257612eba6151d4565b6001600160e01b0319811663f23a6e6160e01b14610bfb5760405162461bcd60e51b815260040161081590615279565b600081815260028301602052604081205480151580613226575061322684846139f8565b61124e5760405162461bcd60e51b815260206004820152601e60248201527f456e756d657261626c654d61703a206e6f6e6578697374656e74206b657900006044820152606401610815565b6000828152600284016020526040812082905561189b8484613a04565b600054610100900460ff166132b65760405162461bcd60e51b815260040161081590614d8a565b6114ff81613a10565b600054610100900460ff166132e65760405162461bcd60e51b815260040161081590614d8a565b610129805460ff19169055565b6101295460ff1615610f095760405162461bcd60e51b815260206004820152601060248201526f14185d5cd8589b194e881c185d5cd95960821b6044820152606401610815565b60008260000182815481106133515761335161484f565b9060005260206000200154905092915050565b600061084382612777565b6000808061337d858561262f565b600081815260029690960160205260409095205494959350505050565b60008181526002830160205260408120548190806133c9576133bc85856139f8565b9250600091506127619050565b600192509050612761565b60006001600160e01b03198216636cdb3d1360e11b148061340557506001600160e01b031982166303a24d0760e21b145b8061084357506301ffc9a760e01b6001600160e01b0319831614610843565b60606108436001600160a01b03831660145b60606000613445836002615142565b613450906002614ce8565b6001600160401b038111156134675761346761400f565b6040519080825280601f01601f191660200182016040528015613491576020820181803683370190505b509050600360fc1b816000815181106134ac576134ac61484f565b60200101906001600160f81b031916908160001a905350600f60fb1b816001815181106134db576134db61484f565b60200101906001600160f81b031916908160001a90535060006134ff846002615142565b61350a906001614ce8565b90505b6001811115613582576f181899199a1a9b1b9c1cb0b131b232b360811b85600f166010811061353e5761353e61484f565b1a60f81b8282815181106135545761355461484f565b60200101906001600160f81b031916908160001a90535060049490941c9361357b816152fb565b905061350d565b50831561124e5760405162461bcd60e51b815260206004820181905260248201527f537472696e67733a20686578206c656e67746820696e73756666696369656e746044820152606401610815565b606060006135de83613a1c565b60010190506000816001600160401b038111156135fd576135fd61400f565b6040519080825280601f01601f191660200182016040528015613627576020820181803683370190505b5090508181016020015b600019016f181899199a1a9b1b9c1cb0b131b232b360811b600a86061a8153600a850494508461363157509392505050565b6001600160a01b0385166137145760005b83518110156137125760006136ad8583815181106136945761369461484f565b602002602001015161018d61276890919063ffffffff16565b9050809150506136ff8583815181106136c8576136c861484f565b60200260200101518584815181106136e2576136e261484f565b6020026020010151836136f59190614ce8565b61018d9190612379565b50508061370b9061487b565b9050613674565b505b6001600160a01b0384166138275760005b83518110156138255760008482815181106137425761374261484f565b6020026020010151905060008483815181106137605761376061484f565b6020026020010151905060006137818361018d61236d90919063ffffffff16565b9050818110156137e45760405162461bcd60e51b815260206004820152602860248201527f455243313135353a206275726e20616d6f756e74206578636565647320746f74604482015267616c537570706c7960c01b6064820152608401610815565b818103600003613800576137fa61018d84613af4565b50613811565b61380f61018d84848403612379565b505b5050508061381e9061487b565b9050613725565b505b60005b83518110156138a357613870868583815181106138495761384961484f565b60200260200101518584815181106138635761386361484f565b6020026020010151613b00565b613893858583815181106138865761388661484f565b6020026020010151613b55565b61389c8161487b565b905061382a565b506138ad85613b97565b6115ae84613b97565b60008181526001830160205260408120546138fd57508154600181810184556000848152602080822090930184905584548482528286019093526040902091909155610843565b506000610843565b600081815260018301602052604081205480156139ee576000613929600183614fc9565b855490915060009061393d90600190614fc9565b90508181146139a257600086600001828154811061395d5761395d61484f565b90600052602060002001549050808760000184815481106139805761398061484f565b6000918252602080832090910192909255918252600188019052604090208390555b85548690806139b3576139b3615312565b600190038181906000526020600020016000905590558560010160008681526020019081526020016000206000905560019350505050610843565b6000915050610843565b600061124e8383613bbb565b600061124e83836138b6565b6067610ee68282614a2d565b60008072184f03e93ff9f4daa797ed6e38ed64bf6a1f0160401b8310613a5b5772184f03e93ff9f4daa797ed6e38ed64bf6a1f0160401b830492506040015b6d04ee2d6d415b85acef81000000008310613a87576d04ee2d6d415b85acef8100000000830492506020015b662386f26fc100008310613aa557662386f26fc10000830492506010015b6305f5e1008310613abd576305f5e100830492506008015b6127108310613ad157612710830492506004015b60648310613ae3576064830492506002015b600a83106108435760010192915050565b600061124e8383613bd3565b6001600160a01b038316613b1357505050565b6000613b1f84846107ae565b9050613b2b8282614fc9565b60000361122f576001600160a01b038416600090815261019260205260409020610e409084613bec565b6001600160a01b038216613b67575050565b6001600160a01b038216600090815261019260205260409020613b8a9082613a04565b50610b3d6101908361306c565b6060613ba2826110c4565b508051909150600003610ee657610b3d610190836130e8565b6000818152600183016020526040812054151561124e565b6000818152600283016020526040812081905561124e83835b600061124e8383613905565b80356001600160a01b0381168114613c0f57600080fd5b919050565b60008060408385031215613c2757600080fd5b613c3083613bf8565b946020939093013593505050565b6001600160e01b0319811681146114ff57600080fd5b600060208284031215613c6657600080fd5b813561124e81613c3e565b60005b83811015613c8c578181015183820152602001613c74565b50506000910152565b60008151808452613cad816020860160208601613c71565b601f01601f19169290920160200192915050565b60208152600061124e6020830184613c95565b600060208284031215613ce657600080fd5b61124e82613bf8565b600060208284031215613d0157600080fd5b5035919050565b600080600060608486031215613d1d57600080fd5b613d2684613bf8565b95602085013595506040909401359392505050565b60008083601f840112613d4d57600080fd5b5081356001600160401b03811115613d6457600080fd5b6020830191508360208260051b850101111561276157600080fd5b60008083601f840112613d9157600080fd5b5081356001600160401b03811115613da857600080fd5b60208301915083602082850101111561276157600080fd5b60008060008060008060006080888a031215613ddb57600080fd5b613de488613bf8565b965060208801356001600160401b0380821115613e0057600080fd5b613e0c8b838c01613d3b565b909850965060408a0135915080821115613e2557600080fd5b613e318b838c01613d3b565b909650945060608a0135915080821115613e4a57600080fd5b50613e578a828b01613d7f565b989b979a50959850939692959293505050565b600081518084526020808501945080840160005b83811015613ea35781516001600160a01b031687529582019590820190600101613e7e565b509495945050505050565b600081518084526020808501945080840160005b83811015613ea357815187529582019590820190600101613ec2565b600081518084526020808501808196508360051b8101915082860160005b85811015613f26578284038952613f14848351613eae565b98850198935090840190600101613efc565b5091979650505050505050565b606081526000613f466060830186613e6a565b8281036020840152613f588186613ede565b90508281036040840152613f6c8185613ede565b9695505050505050565b60008060008060008060608789031215613f8f57600080fd5b86356001600160401b0380821115613fa657600080fd5b613fb28a838b01613d3b565b90985096506020890135915080821115613fcb57600080fd5b613fd78a838b01613d3b565b90965094506040890135915080821115613ff057600080fd5b50613ffd89828a01613d3b565b979a9699509497509295939492505050565b634e487b7160e01b600052604160045260246000fd5b601f8201601f191681016001600160401b038111828210171561404a5761404a61400f565b6040525050565b60006001600160401b0382111561406a5761406a61400f565b5060051b60200190565b600082601f83011261408557600080fd5b8135602061409282614051565b60405161409f8282614025565b83815260059390931b85018201928281019150868411156140bf57600080fd5b8286015b848110156140da57803583529183019183016140c3565b509695505050505050565b600082601f8301126140f657600080fd5b81356001600160401b0381111561410f5761410f61400f565b604051614126601f8301601f191660200182614025565b81815284602083860101111561413b57600080fd5b816020850160208301376000918101602001919091529392505050565b600080600080600060a0868803121561417057600080fd5b61417986613bf8565b945061418760208701613bf8565b935060408601356001600160401b03808211156141a357600080fd5b6141af89838a01614074565b945060608801359150808211156141c557600080fd5b6141d189838a01614074565b935060808801359150808211156141e757600080fd5b506141f4888289016140e5565b9150509295509295909350565b6000806040838503121561421457600080fd5b8235915061422460208401613bf8565b90509250929050565b6000806040838503121561424057600080fd5b82356001600160401b038082111561425757600080fd5b818501915085601f83011261426b57600080fd5b8135602061427882614051565b6040516142858282614025565b83815260059390931b85018201928281019150898411156142a557600080fd5b948201945b838610156142ca576142bb86613bf8565b825294820194908201906142aa565b965050860135925050808211156142e057600080fd5b506142ed85828601614074565b9150509250929050565b60208152600061124e6020830184613eae565b60008060006060848603121561431f57600080fd5b833592506020840135915060408401356001600160401b0381111561434357600080fd5b61434f868287016140e5565b9150509250925092565b60408152600061436c6040830185613eae565b8281036020840152610b128185613eae565b60008060006060848603121561439357600080fd5b61439c84613bf8565b925060208401356001600160401b03808211156143b857600080fd5b6143c487838801614074565b935060408601359150808211156143da57600080fd5b5061434f86828701614074565b600080602083850312156143fa57600080fd5b82356001600160401b0381111561441057600080fd5b61441c85828601613d7f565b90969095509350505050565b60006020828403121561443a57600080fd5b81356001600160401b0381111561445057600080fd5b61189b84828501614074565b600081518084526020808501808196508360051b8101915082860160005b85811015613f26578284038952614492848351613c95565b9885019893509084019060010161447a565b60208152600061124e602083018461445c565b600080600080608085870312156144cd57600080fd5b6144d685613bf8565b9350602085013592506040850135915060608501356001600160401b038111156144ff57600080fd5b61450b878288016140e5565b91505092959194509250565b6000806040838503121561452a57600080fd5b50508035926020909101359150565b60008060006060848603121561454e57600080fd5b8335925060208401356001600160401b03808211156143b857600080fd5b60008060008060006060868803121561458457600080fd5b8535945060208601356001600160401b03808211156145a257600080fd5b6145ae89838a01613d3b565b909650945060408801359150808211156145c757600080fd5b506145d488828901613d3b565b969995985093965092949392505050565b600080604083850312156145f857600080fd5b8235915060208301356001600160401b0381111561461557600080fd5b6142ed85828601614074565b6000806040838503121561463457600080fd5b61463d83613bf8565b91506020830135801515811461465257600080fd5b809150509250929050565b60208152600061124e6020830184613e6a565b60008060006060848603121561468557600080fd5b833592506020808501356001600160401b03808211156146a457600080fd5b6146b088838901614074565b945060408701359150808211156146c657600080fd5b818701915087601f8301126146da57600080fd5b81356146e581614051565b6040516146f28282614025565b82815260059290921b840185019185810191508a83111561471257600080fd5b8585015b8381101561474a5780358581111561472e5760008081fd5b61473c8d89838a01016140e5565b845250918601918601614716565b508096505050505050509250925092565b6000806040838503121561476e57600080fd5b61477783613bf8565b915061422460208401613bf8565b600080600080600060a0868803121561479d57600080fd5b6147a686613bf8565b94506147b460208701613bf8565b9350604086013592506060860135915060808601356001600160401b038111156147dd57600080fd5b6141f4888289016140e5565b6000806000606084860312156147fe57600080fd5b505081359360208301359350604090920135919050565b600181811c9082168061482957607f821691505b60208210810361484957634e487b7160e01b600052602260045260246000fd5b50919050565b634e487b7160e01b600052603260045260246000fd5b634e487b7160e01b600052601160045260246000fd5b60006001820161488d5761488d614865565b5060010190565b6000808335601e198436030181126148ab57600080fd5b8301803591506001600160401b038211156148c557600080fd5b60200191503681900382131561276157600080fd5b601f821115610b3d57600081815260208120601f850160051c810160208610156149015750805b601f850160051c820191505b818110156115ae5782815560010161490d565b6001600160401b038311156149375761493761400f565b61494b836149458354614815565b836148da565b6000601f84116001811461497f57600085156149675750838201355b600019600387901b1c1916600186901b178355610e40565b600083815260209020601f19861690835b828110156149b05786850135825560209485019460019092019101614990565b50868210156149cd5760001960f88860031b161c19848701351681555b505060018560011b0183555050505050565b6020808252602e908201527f455243313135353a2063616c6c6572206973206e6f7420746f6b656e206f776e60408201526d195c881bdc88185c1c1c9bdd995960921b606082015260800190565b81516001600160401b03811115614a4657614a4661400f565b614a5a81614a548454614815565b846148da565b602080601f831160018114614a8f5760008415614a775750858301515b600019600386901b1c1916600185901b1785556115ae565b600085815260208120601f198616915b82811015614abe57888601518255948401946001909101908401614a9f565b5085821015614adc5787850151600019600388901b60f8161c191681555b5050505050600190811b01905550565b82815260406020820152600061189b6040830184613c95565b604081526000614b186040830185613eae565b8281036020840152610b12818561445c565b60008151614b3c818560208601613c71565b9290920192915050565b607b60f81b815260008351614b62816001850160208801613c71565b835190830190614b79816001840160208801613c71565b607d60f81b60019290910191820152600201949350505050565b7f646174613a6170706c69636174696f6e2f6a736f6e3b6261736536342c000000815260008251614bcb81601d850160208701613c71565b91909101601d0192915050565b60208082526023908201527f455243313135353a206275726e2066726f6d20746865207a65726f206164647260408201526265737360e81b606082015260800190565b60208082526024908201527f455243313135353a206275726e20616d6f756e7420657863656564732062616c604082015263616e636560e01b606082015260800190565b60208082526021908201527f455243313135353a206d696e7420746f20746865207a65726f206164647265736040820152607360f81b606082015260800190565b60208082526028908201527f455243313135353a2069647320616e6420616d6f756e7473206c656e677468206040820152670dad2e6dac2e8c6d60c31b606082015260800190565b8082018082111561084357610843614865565b60208082526025908201527f455243313135353a207472616e7366657220746f20746865207a65726f206164604082015264647265737360d81b606082015260800190565b6020808252602a908201527f455243313135353a20696e73756666696369656e742062616c616e636520666f60408201526939103a3930b739b332b960b11b606082015260800190565b6020808252602b908201527f496e697469616c697a61626c653a20636f6e7472616374206973206e6f74206960408201526a6e697469616c697a696e6760a81b606082015260800190565b7f416363657373436f6e74726f6c3a206163636f756e7420000000000000000000815260008351614e0d816017850160208801613c71565b7001034b99036b4b9b9b4b733903937b6329607d1b6017918401918201528351614e3e816028840160208801613c71565b01602801949350505050565b6000808454614e5881614815565b60018281168015614e705760018114614e8557614eb4565b60ff1984168752821515830287019450614eb4565b8860005260208060002060005b85811015614eab5781548a820152908401908201614e92565b50505082870194505b505050508351614ec8818360208801613c71565b01949350505050565b67113730b6b2911d1160c11b81528451600090614ef5816008850160208a01613c71565b61088b60f21b600891840191820181905269113a37b5b2b724b2111d60b11b600a8301528651614f2c816014850160208b01613c71565b600b60fa1b601493909101928301526e113232b9b1b934b83a34b7b7111d1160891b60158301528551614f66816024850160208a01613c71565b6024920191820152681134b6b0b3b2911d1160b91b6026820152614fbe614fa1614f93602f840187614b2a565b61088b60f21b815260020190565b70089d1e5c19488e88915490cc4c4d4d488b607a1b815260110190565b979650505050505050565b8181038181111561084357610843614865565b6f113234b9b83630bcafba3cb832911d1160811b81528151600090615008816010850160208701613c71565b61088b60f21b6010939091019283015250601201919050565b60008651615033818460208b01613c71565b6e3d913a3930b4ba2fba3cb832911d1160891b908301908152865161505f81600f840160208b01613c71565b61088b60f21b600f92909101918201528551615082816011840160208a01613c71565b68113b30b63ab2911d1160b91b6011929091019182015284516150ac81601a840160208901613c71565b61227d60f01b601a929091019182015283516150cf81601c840160208801613c71565b01601c01979650505050505050565b6d2261747472696275746573223a5b60901b8152815160009061510881600e850160208701613c71565b605d60f81b600e939091019283015250600f01919050565b60008261513d57634e487b7160e01b600052601260045260246000fd5b500490565b808202811582820484141761084357610843614865565b6001600160a01b0386811682528516602082015260a06040820181905260009061518590830186613eae565b82810360608401526151978186613eae565b905082810360808401526151ab8185613c95565b98975050505050505050565b6000602082840312156151c957600080fd5b815161124e81613c3e565b600060033d11156151ed5760046000803e5060005160e01c5b90565b600060443d10156151fe5790565b6040516003193d81016004833e81513d6001600160401b03816024840111818411171561522d57505050505090565b82850191508151818111156152455750505050505090565b843d870101602082850101111561525f5750505050505090565b61526e60208286010187614025565b509095945050505050565b60208082526028908201527f455243313135353a204552433131353552656365697665722072656a656374656040820152676420746f6b656e7360c01b606082015260800190565b6001600160a01b03868116825285166020820152604081018490526060810183905260a060808201819052600090614fbe90830184613c95565b60008161530a5761530a614865565b506000190190565b634e487b7160e01b600052603160045260246000fdfe4142434445464748494a4b4c4d4e4f505152535455565758595a6162636465666768696a6b6c6d6e6f707172737475767778797a303132333435363738392b2f9f2df0fed2c77648de5860a4cc508cd0818c85b8b8a1ab4ceeef8d981c8956a6f01ee2eb8c5679535f9dfef3543570e280865ec756856c5772fe3e6718c5c074a49807205ce4d355092ef5a8a18f56e8913cf4a201fbe287825b095693c21775364d3d7565c7a8300c96fd53e065d19b65848d7b23b3191adcd55621c744223c68747470733a2f2f696d616765732e636f736d6963756e6976657273652e696f2f636f736d69632d726566696e65642d7265736f75726365732fa2646970667358221220ef8f49198ac7cce9ab620c2ae898cca99b67416f00541804cf9e6ceffcec996764736f6c63430008110033",
  "linkReferences": {},
  "deployedLinkReferences": {}
}