{
  "_format": "hh-sol-artifact-1",
  "contractName": "CosmicUpgradeable",
  "sourceName": "contracts/upgradeable/ERC20/CosmicUpgradeable.sol",
  "abi": [
    {
      "inputs": [],
      "stateMutability": "nonpayable",
      "type": "constructor"
    },
    {
      "anonymous": false,
      "inputs": [
        {
          "indexed": true,
          "internalType": "address",
          "name": "owner",
          "type": "address"
        },
        {
          "indexed": true,
          "internalType": "address",
          "name": "spender",
          "type": "address"
        },
        {
          "indexed": false,
          "internalType": "uint256",
          "name": "value",
          "type": "uint256"
        }
      ],
      "name": "Approval",
      "type": "event"
    },
    {
      "anonymous": false,
      "inputs": [
        {
          "indexed": false,
          "internalType": "uint8",
          "name": "version",
          "type": "uint8"
        }
      ],
      "name": "Initialized",
      "type": "event"
    },
    {
      "anonymous": false,
      "inputs": [
        {
          "indexed": false,
          "internalType": "address",
          "name": "account",
          "type": "address"
        }
      ],
      "name": "Paused",
      "type": "event"
    },
    {
      "anonymous": false,
      "inputs": [
        {
          "indexed": true,
          "internalType": "bytes32",
          "name": "role",
          "type": "bytes32"
        },
        {
          "indexed": true,
          "internalType": "bytes32",
          "name": "previousAdminRole",
          "type": "bytes32"
        },
        {
          "indexed": true,
          "internalType": "bytes32",
          "name": "newAdminRole",
          "type": "bytes32"
        }
      ],
      "name": "RoleAdminChanged",
      "type": "event"
    },
    {
      "anonymous": false,
      "inputs": [
        {
          "indexed": true,
          "internalType": "bytes32",
          "name": "role",
          "type": "bytes32"
        },
        {
          "indexed": true,
          "internalType": "address",
          "name": "account",
          "type": "address"
        },
        {
          "indexed": true,
          "internalType": "address",
          "name": "sender",
          "type": "address"
        }
      ],
      "name": "RoleGranted",
      "type": "event"
    },
    {
      "anonymous": false,
      "inputs": [
        {
          "indexed": true,
          "internalType": "bytes32",
          "name": "role",
          "type": "bytes32"
        },
        {
          "indexed": true,
          "internalType": "address",
          "name": "account",
          "type": "address"
        },
        {
          "indexed": true,
          "internalType": "address",
          "name": "sender",
          "type": "address"
        }
      ],
      "name": "RoleRevoked",
      "type": "event"
    },
    {
      "anonymous": false,
      "inputs": [
        {
          "indexed": true,
          "internalType": "address",
          "name": "from",
          "type": "address"
        },
        {
          "indexed": true,
          "internalType": "address",
          "name": "to",
          "type": "address"
        },
        {
          "indexed": false,
          "internalType": "uint256",
          "name": "value",
          "type": "uint256"
        }
      ],
      "name": "Transfer",
      "type": "event"
    },
    {
      "anonymous": false,
      "inputs": [
        {
          "indexed": false,
          "internalType": "address",
          "name": "account",
          "type": "address"
        }
      ],
      "name": "Unpaused",
      "type": "event"
    },
    {
      "inputs": [],
      "name": "ADMIN_ROLE",
      "outputs": [
        {
          "internalType": "bytes32",
          "name": "",
          "type": "bytes32"
        }
      ],
      "stateMutability": "view",
      "type": "function"
    },
    {
      "inputs": [],
      "name": "DEFAULT_ADMIN_ROLE",
      "outputs": [
        {
          "internalType": "bytes32",
          "name": "",
          "type": "bytes32"
        }
      ],
      "stateMutability": "view",
      "type": "function"
    },
    {
      "inputs": [],
      "name": "DOMAIN_SEPARATOR",
      "outputs": [
        {
          "internalType": "bytes32",
          "name": "",
          "type": "bytes32"
        }
      ],
      "stateMutability": "view",
      "type": "function"
    },
    {
      "inputs": [],
      "name": "MINTER_ROLE",
      "outputs": [
        {
          "internalType": "bytes32",
          "name": "",
          "type": "bytes32"
        }
      ],
      "stateMutability": "view",
      "type": "function"
    },
    {
      "inputs": [
        {
          "internalType": "address",
          "name": "owner",
          "type": "address"
        },
        {
          "internalType": "address",
          "name": "spender",
          "type": "address"
        }
      ],
      "name": "allowance",
      "outputs": [
        {
          "internalType": "uint256",
          "name": "",
          "type": "uint256"
        }
      ],
      "stateMutability": "view",
      "type": "function"
    },
    {
      "inputs": [
        {
          "internalType": "address",
          "name": "spender",
          "type": "address"
        },
        {
          "internalType": "uint256",
          "name": "amount",
          "type": "uint256"
        }
      ],
      "name": "approve",
      "outputs": [
        {
          "internalType": "bool",
          "name": "",
          "type": "bool"
        }
      ],
      "stateMutability": "nonpayable",
      "type": "function"
    },
    {
      "inputs": [
        {
          "internalType": "address",
          "name": "account",
          "type": "address"
        }
      ],
      "name": "balanceOf",
      "outputs": [
        {
          "internalType": "uint256",
          "name": "",
          "type": "uint256"
        }
      ],
      "stateMutability": "view",
      "type": "function"
    },
    {
      "inputs": [
        {
          "internalType": "uint256",
          "name": "amount",
          "type": "uint256"
        }
      ],
      "name": "burn",
      "outputs": [],
      "stateMutability": "nonpayable",
      "type": "function"
    },
    {
      "inputs": [
        {
          "internalType": "address",
          "name": "account",
          "type": "address"
        },
        {
          "internalType": "uint256",
          "name": "amount",
          "type": "uint256"
        }
      ],
      "name": "burnFrom",
      "outputs": [],
      "stateMutability": "nonpayable",
      "type": "function"
    },
    {
      "inputs": [],
      "name": "cap",
      "outputs": [
        {
          "internalType": "uint256",
          "name": "",
          "type": "uint256"
        }
      ],
      "stateMutability": "view",
      "type": "function"
    },
    {
      "inputs": [],
      "name": "decimals",
      "outputs": [
        {
          "internalType": "uint8",
          "name": "",
          "type": "uint8"
        }
      ],
      "stateMutability": "view",
      "type": "function"
    },
    {
      "inputs": [
        {
          "internalType": "address",
          "name": "spender",
          "type": "address"
        },
        {
          "internalType": "uint256",
          "name": "subtractedValue",
          "type": "uint256"
        }
      ],
      "name": "decreaseAllowance",
      "outputs": [
        {
          "internalType": "bool",
          "name": "",
          "type": "bool"
        }
      ],
      "stateMutability": "nonpayable",
      "type": "function"
    },
    {
      "inputs": [
        {
          "internalType": "bytes32",
          "name": "role",
          "type": "bytes32"
        }
      ],
      "name": "getRoleAdmin",
      "outputs": [
        {
          "internalType": "bytes32",
          "name": "",
          "type": "bytes32"
        }
      ],
      "stateMutability": "view",
      "type": "function"
    },
    {
      "inputs": [
        {
          "internalType": "bytes32",
          "name": "role",
          "type": "bytes32"
        },
        {
          "internalType": "address",
          "name": "account",
          "type": "address"
        }
      ],
      "name": "grantRole",
      "outputs": [],
      "stateMutability": "nonpayable",
      "type": "function"
    },
    {
      "inputs": [
        {
          "internalType": "bytes32",
          "name": "role",
          "type": "bytes32"
        },
        {
          "internalType": "address",
          "name": "account",
          "type": "address"
        }
      ],
      "name": "hasRole",
      "outputs": [
        {
          "internalType": "bool",
          "name": "",
          "type": "bool"
        }
      ],
      "stateMutability": "view",
      "type": "function"
    },
    {
      "inputs": [
        {
          "internalType": "address",
          "name": "spender",
          "type": "address"
        },
        {
          "internalType": "uint256",
          "name": "addedValue",
          "type": "uint256"
        }
      ],
      "name": "increaseAllowance",
      "outputs": [
        {
          "internalType": "bool",
          "name": "",
          "type": "bool"
        }
      ],
      "stateMutability": "nonpayable",
      "type": "function"
    },
    {
      "inputs": [],
      "name": "initialize",
      "outputs": [],
      "stateMutability": "nonpayable",
      "type": "function"
    },
    {
      "inputs": [
        {
          "internalType": "address",
          "name": "account",
          "type": "address"
        },
        {
          "internalType": "uint256",
          "name": "amount",
          "type": "uint256"
        }
      ],
      "name": "mint",
      "outputs": [],
      "stateMutability": "nonpayable",
      "type": "function"
    },
    {
      "inputs": [],
      "name": "name",
      "outputs": [
        {
          "internalType": "string",
          "name": "",
          "type": "string"
        }
      ],
      "stateMutability": "view",
      "type": "function"
    },
    {
      "inputs": [
        {
          "internalType": "address",
          "name": "owner",
          "type": "address"
        }
      ],
      "name": "nonces",
      "outputs": [
        {
          "internalType": "uint256",
          "name": "",
          "type": "uint256"
        }
      ],
      "stateMutability": "view",
      "type": "function"
    },
    {
      "inputs": [],
      "name": "pause",
      "outputs": [],
      "stateMutability": "nonpayable",
      "type": "function"
    },
    {
      "inputs": [],
      "name": "paused",
      "outputs": [
        {
          "internalType": "bool",
          "name": "",
          "type": "bool"
        }
      ],
      "stateMutability": "view",
      "type": "function"
    },
    {
      "inputs": [
        {
          "internalType": "address",
          "name": "owner",
          "type": "address"
        },
        {
          "internalType": "address",
          "name": "spender",
          "type": "address"
        },
        {
          "internalType": "uint256",
          "name": "value",
          "type": "uint256"
        },
        {
          "internalType": "uint256",
          "name": "deadline",
          "type": "uint256"
        },
        {
          "internalType": "uint8",
          "name": "v",
          "type": "uint8"
        },
        {
          "internalType": "bytes32",
          "name": "r",
          "type": "bytes32"
        },
        {
          "internalType": "bytes32",
          "name": "s",
          "type": "bytes32"
        }
      ],
      "name": "permit",
      "outputs": [],
      "stateMutability": "nonpayable",
      "type": "function"
    },
    {
      "inputs": [
        {
          "internalType": "bytes32",
          "name": "role",
          "type": "bytes32"
        },
        {
          "internalType": "address",
          "name": "account",
          "type": "address"
        }
      ],
      "name": "renounceRole",
      "outputs": [],
      "stateMutability": "nonpayable",
      "type": "function"
    },
    {
      "inputs": [
        {
          "internalType": "bytes32",
          "name": "role",
          "type": "bytes32"
        },
        {
          "internalType": "address",
          "name": "account",
          "type": "address"
        }
      ],
      "name": "revokeRole",
      "outputs": [],
      "stateMutability": "nonpayable",
      "type": "function"
    },
    {
      "inputs": [
        {
          "internalType": "bytes4",
          "name": "interfaceId",
          "type": "bytes4"
        }
      ],
      "name": "supportsInterface",
      "outputs": [
        {
          "internalType": "bool",
          "name": "",
          "type": "bool"
        }
      ],
      "stateMutability": "view",
      "type": "function"
    },
    {
      "inputs": [],
      "name": "symbol",
      "outputs": [
        {
          "internalType": "string",
          "name": "",
          "type": "string"
        }
      ],
      "stateMutability": "view",
      "type": "function"
    },
    {
      "inputs": [],
      "name": "totalBurned",
      "outputs": [
        {
          "internalType": "uint256",
          "name": "",
          "type": "uint256"
        }
      ],
      "stateMutability": "view",
      "type": "function"
    },
    {
      "inputs": [],
      "name": "totalSupply",
      "outputs": [
        {
          "internalType": "uint256",
          "name": "",
          "type": "uint256"
        }
      ],
      "stateMutability": "view",
      "type": "function"
    },
    {
      "inputs": [
        {
          "internalType": "address",
          "name": "to",
          "type": "address"
        },
        {
          "internalType": "uint256",
          "name": "amount",
          "type": "uint256"
        }
      ],
      "name": "transfer",
      "outputs": [
        {
          "internalType": "bool",
          "name": "",
          "type": "bool"
        }
      ],
      "stateMutability": "nonpayable",
      "type": "function"
    },
    {
      "inputs": [
        {
          "internalType": "address",
          "name": "from",
          "type": "address"
        },
        {
          "internalType": "address",
          "name": "to",
          "type": "address"
        },
        {
          "internalType": "uint256",
          "name": "amount",
          "type": "uint256"
        }
      ],
      "name": "transferFrom",
      "outputs": [
        {
          "internalType": "bool",
          "name": "",
          "type": "bool"
        }
      ],
      "stateMutability": "nonpayable",
      "type": "function"
    },
    {
      "inputs": [],
      "name": "unpause",
      "outputs": [],
      "stateMutability": "nonpayable",
      "type": "function"
    }
  ],
  "bytecode": "0x608060405234801561001057600080fd5b5061001961001e565b6100de565b600054610100900460ff161561008a5760405162461bcd60e51b815260206004820152602760248201527f496e697469616c697a61626c653a20636f6e747261637420697320696e697469604482015266616c697a696e6760c81b606482015260840160405180910390fd5b60005460ff90811610156100dc576000805460ff191660ff9081179091556040519081527f7f26b83ff96e1f2b6a682f133852f6798a09c465da95921460cefb38474024989060200160405180910390a15b565b61203680620000ee6000396000f3fe608060405234801561001057600080fd5b50600436106101f05760003560e01c806370a082311161010f578063a217fddf116100a2578063d539139311610071578063d5391393146103f1578063d547741f14610418578063d89135cd1461042b578063dd62ed3e1461043457600080fd5b8063a217fddf146103b0578063a457c2d7146103b8578063a9059cbb146103cb578063d505accf146103de57600080fd5b80638129fc1c116100de5780638129fc1c146103855780638456cb591461038d57806391d148541461039557806395d89b41146103a857600080fd5b806370a082311461032157806375b238fc1461034a57806379cc67901461035f5780637ecebe001461037257600080fd5b8063355274ea116101875780633f4ba83a116101565780633f4ba83a146102e857806340c10f19146102f057806342966c68146103035780635c975abb1461031657600080fd5b8063355274ea146102b15780633644e515146102ba57806336568abe146102c257806339509351146102d557600080fd5b806323b872dd116101c357806323b872dd14610257578063248a9ca31461026a5780632f2ff15d1461028d578063313ce567146102a257600080fd5b806301ffc9a7146101f557806306fdde031461021d578063095ea7b31461023257806318160ddd14610245575b600080fd5b610208610203366004611b3d565b610447565b60405190151581526020015b60405180910390f35b61022561047e565b6040516102149190611b8b565b610208610240366004611bda565b610510565b6035545b604051908152602001610214565b610208610265366004611c04565b610528565b610249610278366004611c40565b600090815260c9602052604090206001015490565b6102a061029b366004611c59565b61054c565b005b60405160128152602001610214565b61016254610249565b610249610576565b6102a06102d0366004611c59565b610585565b6102086102e3366004611bda565b610608565b6102a061062a565b6102a06102fe366004611bda565b61064d565b6102a0610311366004611c40565b610681565b60655460ff16610208565b61024961032f366004611c85565b6001600160a01b031660009081526033602052604090205490565b610249600080516020611fe183398151915281565b6102a061036d366004611bda565b6106a4565b610249610380366004611c85565b6106d2565b6102a06106f1565b6102a06108e0565b6102086103a3366004611c59565b610900565b61022561092b565b610249600081565b6102086103c6366004611bda565b61093a565b6102086103d9366004611bda565b6109b5565b6102a06103ec366004611ca0565b6109c3565b6102497f9f2df0fed2c77648de5860a4cc508cd0818c85b8b8a1ab4ceeef8d981c8956a681565b6102a0610426366004611c59565b610b27565b61019554610249565b610249610442366004611d13565b610b4c565b60006001600160e01b03198216637965db0b60e01b148061047857506301ffc9a760e01b6001600160e01b03198316145b92915050565b60606036805461048d90611d3d565b80601f01602080910402602001604051908101604052809291908181526020018280546104b990611d3d565b80156105065780601f106104db57610100808354040283529160200191610506565b820191906000526020600020905b8154815290600101906020018083116104e957829003601f168201915b5050505050905090565b60003361051e818585610b77565b5060019392505050565b600033610536858285610c9b565b610541858585610d15565b506001949350505050565b600082815260c9602052604090206001015461056781610ecb565b6105718383610ed5565b505050565b6000610580610f5b565b905090565b6001600160a01b03811633146105fa5760405162461bcd60e51b815260206004820152602f60248201527f416363657373436f6e74726f6c3a2063616e206f6e6c792072656e6f756e636560448201526e103937b632b9903337b91039b2b63360891b60648201526084015b60405180910390fd5b6106048282610fd6565b5050565b60003361051e81858561061b8383610b4c565b6106259190611d87565b610b77565b600080516020611fe183398151915261064281610ecb565b61064a61103d565b50565b7f9f2df0fed2c77648de5860a4cc508cd0818c85b8b8a1ab4ceeef8d981c8956a661067781610ecb565b610571838361108f565b8061019560008282546106949190611d87565b9091555061064a90503382611109565b6106af823383610c9b565b8061019560008282546106c29190611d87565b9091555061060490508282611109565b6001600160a01b038116600090815261012f6020526040812054610478565b600054610100900460ff16158080156107115750600054600160ff909116105b8061072b5750303b15801561072b575060005460ff166001145b61078e5760405162461bcd60e51b815260206004820152602e60248201527f496e697469616c697a61626c653a20636f6e747261637420697320616c72656160448201526d191e481a5b9a5d1a585b1a5e995960921b60648201526084016105f1565b6000805460ff1916600117905580156107b1576000805461ff0019166101001790555b6107f760405180604001604052806006815260200165436f736d696360d01b81525060405180604001604052806006815260200165434f534d494360d01b815250611249565b6107ff61127a565b6108076112ab565b61082e60405180604001604052806006815260200165436f736d696360d01b8152506112d2565b6108436b033b2e3c9fd0803ce800000061131c565b61084b6112ab565b610856600033610ed5565b61086e600080516020611fe183398151915233610ed5565b6108987f9f2df0fed2c77648de5860a4cc508cd0818c85b8b8a1ab4ceeef8d981c8956a633610ed5565b801561064a576000805461ff0019169055604051600181527f7f26b83ff96e1f2b6a682f133852f6798a09c465da95921460cefb38474024989060200160405180910390a150565b600080516020611fe18339815191526108f881610ecb565b61064a61134c565b600091825260c9602090815260408084206001600160a01b0393909316845291905290205460ff1690565b60606037805461048d90611d3d565b600033816109488286610b4c565b9050838110156109a85760405162461bcd60e51b815260206004820152602560248201527f45524332303a2064656372656173656420616c6c6f77616e63652062656c6f77604482015264207a65726f60d81b60648201526084016105f1565b6105418286868403610b77565b60003361051e818585610d15565b83421115610a135760405162461bcd60e51b815260206004820152601d60248201527f45524332305065726d69743a206578706972656420646561646c696e6500000060448201526064016105f1565b60007f6e71edae12b1b97f4d1f60370fef10105fa2faae0126114a169c64845d6126c9888888610a428c611389565b6040805160208101969096526001600160a01b0394851690860152929091166060840152608083015260a082015260c0810186905260e0016040516020818303038152906040528051906020012090506000610a9d826113b2565b90506000610aad82878787611400565b9050896001600160a01b0316816001600160a01b031614610b105760405162461bcd60e51b815260206004820152601e60248201527f45524332305065726d69743a20696e76616c6964207369676e6174757265000060448201526064016105f1565b610b1b8a8a8a610b77565b50505050505050505050565b600082815260c96020526040902060010154610b4281610ecb565b6105718383610fd6565b6001600160a01b03918216600090815260346020908152604080832093909416825291909152205490565b6001600160a01b038316610bd95760405162461bcd60e51b8152602060048201526024808201527f45524332303a20617070726f76652066726f6d20746865207a65726f206164646044820152637265737360e01b60648201526084016105f1565b6001600160a01b038216610c3a5760405162461bcd60e51b815260206004820152602260248201527f45524332303a20617070726f766520746f20746865207a65726f206164647265604482015261737360f01b60648201526084016105f1565b6001600160a01b0383811660008181526034602090815260408083209487168084529482529182902085905590518481527f8c5be1e5ebec7d5bd14f71427d1e84f3dd0314c0f7b2291e5b200ac8c7c3b925910160405180910390a3505050565b6000610ca78484610b4c565b90506000198114610d0f5781811015610d025760405162461bcd60e51b815260206004820152601d60248201527f45524332303a20696e73756666696369656e7420616c6c6f77616e636500000060448201526064016105f1565b610d0f8484848403610b77565b50505050565b6001600160a01b038316610d795760405162461bcd60e51b815260206004820152602560248201527f45524332303a207472616e736665722066726f6d20746865207a65726f206164604482015264647265737360d81b60648201526084016105f1565b6001600160a01b038216610ddb5760405162461bcd60e51b815260206004820152602360248201527f45524332303a207472616e7366657220746f20746865207a65726f206164647260448201526265737360e81b60648201526084016105f1565b610de6838383611428565b6001600160a01b03831660009081526033602052604090205481811015610e5e5760405162461bcd60e51b815260206004820152602660248201527f45524332303a207472616e7366657220616d6f756e7420657863656564732062604482015265616c616e636560d01b60648201526084016105f1565b6001600160a01b0380851660008181526033602052604080822086860390559286168082529083902080548601905591517fddf252ad1be2c89b69c2b068fc378daa952ba7f163c4a11628f55a4df523b3ef90610ebe9086815260200190565b60405180910390a3610d0f565b61064a8133611430565b610edf8282610900565b61060457600082815260c9602090815260408083206001600160a01b03851684529091529020805460ff19166001179055610f173390565b6001600160a01b0316816001600160a01b0316837f2f8788117e7eff1d82e926ec794901d17c78024a50270940304540a733656f0d60405160405180910390a45050565b60006105807f8b73c3c69bb8fe3d512ecc4cf759cc79239f7b179b0ffacaa9a75d522b39400f610f8a60fb5490565b60fc546040805160208101859052908101839052606081018290524660808201523060a082015260009060c0016040516020818303038152906040528051906020012090509392505050565b610fe08282610900565b1561060457600082815260c9602090815260408083206001600160a01b0385168085529252808320805460ff1916905551339285917ff6391f5c32d9c69d2a47ea670b442974b53935d1edc7fd64eb21e047a839171b9190a45050565b611045611489565b6065805460ff191690557f5db9ee0a495bf2e6ff9c91a7834c1ba4fdd244a5e8aa4e537bd38aeae4b073aa335b6040516001600160a01b03909116815260200160405180910390a1565b610162548161109e6101955490565b6035546110ab9190611d87565b6110b59190611d87565b11156110ff5760405162461bcd60e51b8152602060048201526019602482015278115490cc8c10d85c1c19590e8818d85c08195e18d959591959603a1b60448201526064016105f1565b61060482826114d2565b6001600160a01b0382166111695760405162461bcd60e51b815260206004820152602160248201527f45524332303a206275726e2066726f6d20746865207a65726f206164647265736044820152607360f81b60648201526084016105f1565b61117582600083611428565b6001600160a01b038216600090815260336020526040902054818110156111e95760405162461bcd60e51b815260206004820152602260248201527f45524332303a206275726e20616d6f756e7420657863656564732062616c616e604482015261636560f01b60648201526084016105f1565b6001600160a01b03831660008181526033602090815260408083208686039055603580548790039055518581529192917fddf252ad1be2c89b69c2b068fc378daa952ba7f163c4a11628f55a4df523b3ef910160405180910390a3505050565b600054610100900460ff166112705760405162461bcd60e51b81526004016105f190611d9a565b610604828261153e565b600054610100900460ff166112a15760405162461bcd60e51b81526004016105f190611d9a565b6112a961157e565b565b600054610100900460ff166112a95760405162461bcd60e51b81526004016105f190611d9a565b600054610100900460ff166112f95760405162461bcd60e51b81526004016105f190611d9a565b61064a81604051806040016040528060018152602001603160f81b8152506115b1565b600054610100900460ff166113435760405162461bcd60e51b81526004016105f190611d9a565b61064a816115f2565b611354611667565b6065805460ff191660011790557f62e78cea01bee320cd4e420270b5ea74000d11b0c9f74754ebdbfc544b05a2586110723390565b6001600160a01b038116600090815261012f602052604090208054600181018255905b50919050565b60006104786113bf610f5b565b8360405161190160f01b6020820152602281018390526042810182905260009060620160405160208183030381529060405280519060200120905092915050565b6000806000611411878787876116ad565b9150915061141e81611771565b5095945050505050565b610571611667565b61143a8282610900565b61060457611447816118bb565b6114528360206118cd565b604051602001611463929190611de5565b60408051601f198184030181529082905262461bcd60e51b82526105f191600401611b8b565b60655460ff166112a95760405162461bcd60e51b815260206004820152601460248201527314185d5cd8589b194e881b9bdd081c185d5cd95960621b60448201526064016105f1565b61016254816114e060355490565b6114ea9190611d87565b11156115345760405162461bcd60e51b8152602060048201526019602482015278115490cc8c10d85c1c19590e8818d85c08195e18d959591959603a1b60448201526064016105f1565b6106048282611a70565b600054610100900460ff166115655760405162461bcd60e51b81526004016105f190611d9a565b60366115718382611ebe565b5060376105718282611ebe565b600054610100900460ff166115a55760405162461bcd60e51b81526004016105f190611d9a565b6065805460ff19169055565b600054610100900460ff166115d85760405162461bcd60e51b81526004016105f190611d9a565b81516020928301208151919092012060fb9190915560fc55565b600054610100900460ff166116195760405162461bcd60e51b81526004016105f190611d9a565b600081116116615760405162461bcd60e51b8152602060048201526015602482015274045524332304361707065643a20636170206973203605c1b60448201526064016105f1565b61016255565b60655460ff16156112a95760405162461bcd60e51b815260206004820152601060248201526f14185d5cd8589b194e881c185d5cd95960821b60448201526064016105f1565b6000807f7fffffffffffffffffffffffffffffff5d576e7357a4501ddfe92f46681b20a08311156116e45750600090506003611768565b6040805160008082526020820180845289905260ff881692820192909252606081018690526080810185905260019060a0016020604051602081039080840390855afa158015611738573d6000803e3d6000fd5b5050604051601f1901519150506001600160a01b03811661176157600060019250925050611768565b9150600090505b94509492505050565b600081600481111561178557611785611f7e565b0361178d5750565b60018160048111156117a1576117a1611f7e565b036117ee5760405162461bcd60e51b815260206004820152601860248201527f45434453413a20696e76616c6964207369676e6174757265000000000000000060448201526064016105f1565b600281600481111561180257611802611f7e565b0361184f5760405162461bcd60e51b815260206004820152601f60248201527f45434453413a20696e76616c6964207369676e6174757265206c656e6774680060448201526064016105f1565b600381600481111561186357611863611f7e565b0361064a5760405162461bcd60e51b815260206004820152602260248201527f45434453413a20696e76616c6964207369676e6174757265202773272076616c604482015261756560f01b60648201526084016105f1565b60606104786001600160a01b03831660145b606060006118dc836002611f94565b6118e7906002611d87565b67ffffffffffffffff8111156118ff576118ff611e5a565b6040519080825280601f01601f191660200182016040528015611929576020820181803683370190505b509050600360fc1b8160008151811061194457611944611fb3565b60200101906001600160f81b031916908160001a905350600f60fb1b8160018151811061197357611973611fb3565b60200101906001600160f81b031916908160001a9053506000611997846002611f94565b6119a2906001611d87565b90505b6001811115611a1a576f181899199a1a9b1b9c1cb0b131b232b360811b85600f16601081106119d6576119d6611fb3565b1a60f81b8282815181106119ec576119ec611fb3565b60200101906001600160f81b031916908160001a90535060049490941c93611a1381611fc9565b90506119a5565b508315611a695760405162461bcd60e51b815260206004820181905260248201527f537472696e67733a20686578206c656e67746820696e73756666696369656e7460448201526064016105f1565b9392505050565b6001600160a01b038216611ac65760405162461bcd60e51b815260206004820152601f60248201527f45524332303a206d696e7420746f20746865207a65726f20616464726573730060448201526064016105f1565b611ad260008383611428565b8060356000828254611ae49190611d87565b90915550506001600160a01b0382166000818152603360209081526040808320805486019055518481527fddf252ad1be2c89b69c2b068fc378daa952ba7f163c4a11628f55a4df523b3ef910160405180910390a35050565b600060208284031215611b4f57600080fd5b81356001600160e01b031981168114611a6957600080fd5b60005b83811015611b82578181015183820152602001611b6a565b50506000910152565b6020815260008251806020840152611baa816040850160208701611b67565b601f01601f19169190910160400192915050565b80356001600160a01b0381168114611bd557600080fd5b919050565b60008060408385031215611bed57600080fd5b611bf683611bbe565b946020939093013593505050565b600080600060608486031215611c1957600080fd5b611c2284611bbe565b9250611c3060208501611bbe565b9150604084013590509250925092565b600060208284031215611c5257600080fd5b5035919050565b60008060408385031215611c6c57600080fd5b82359150611c7c60208401611bbe565b90509250929050565b600060208284031215611c9757600080fd5b611a6982611bbe565b600080600080600080600060e0888a031215611cbb57600080fd5b611cc488611bbe565b9650611cd260208901611bbe565b95506040880135945060608801359350608088013560ff81168114611cf657600080fd5b9699959850939692959460a0840135945060c09093013592915050565b60008060408385031215611d2657600080fd5b611d2f83611bbe565b9150611c7c60208401611bbe565b600181811c90821680611d5157607f821691505b6020821081036113ac57634e487b7160e01b600052602260045260246000fd5b634e487b7160e01b600052601160045260246000fd5b8082018082111561047857610478611d71565b6020808252602b908201527f496e697469616c697a61626c653a20636f6e7472616374206973206e6f74206960408201526a6e697469616c697a696e6760a81b606082015260800190565b7f416363657373436f6e74726f6c3a206163636f756e7420000000000000000000815260008351611e1d816017850160208801611b67565b7001034b99036b4b9b9b4b733903937b6329607d1b6017918401918201528351611e4e816028840160208801611b67565b01602801949350505050565b634e487b7160e01b600052604160045260246000fd5b601f82111561057157600081815260208120601f850160051c81016020861015611e975750805b601f850160051c820191505b81811015611eb657828155600101611ea3565b505050505050565b815167ffffffffffffffff811115611ed857611ed8611e5a565b611eec81611ee68454611d3d565b84611e70565b602080601f831160018114611f215760008415611f095750858301515b600019600386901b1c1916600185901b178555611eb6565b600085815260208120601f198616915b82811015611f5057888601518255948401946001909101908401611f31565b5085821015611f6e5787850151600019600388901b60f8161c191681555b5050505050600190811b01905550565b634e487b7160e01b600052602160045260246000fd5b6000816000190483118215151615611fae57611fae611d71565b500290565b634e487b7160e01b600052603260045260246000fd5b600081611fd857611fd8611d71565b50600019019056fea49807205ce4d355092ef5a8a18f56e8913cf4a201fbe287825b095693c21775a26469706673582212201797405e8e9411f5c88b268e388936f45b9668491f93b4bf1cb55028cdb114d664736f6c63430008100033",
  "linkReferences": {},
  "deployedLinkReferences": {}
}