{
  "_format": "hh-sol-artifact-1",
  "contractName": "CosmicSkins",
  "sourceName": "contracts/upgradeable/ERC1155/CosmicSkins.sol",
  "abi": [
    {
      "inputs": [],
      "stateMutability": "nonpayable",
      "type": "constructor"
    },
    {
      "anonymous": false,
      "inputs": [
        {
          "indexed": true,
          "internalType": "address",
          "name": "account",
          "type": "address"
        },
        {
          "indexed": true,
          "internalType": "address",
          "name": "operator",
          "type": "address"
        },
        {
          "indexed": false,
          "internalType": "bool",
          "name": "approved",
          "type": "bool"
        }
      ],
      "name": "ApprovalForAll",
      "type": "event"
    },
    {
      "anonymous": false,
      "inputs": [
        {
          "indexed": false,
          "internalType": "uint8",
          "name": "version",
          "type": "uint8"
        }
      ],
      "name": "Initialized",
      "type": "event"
    },
    {
      "anonymous": false,
      "inputs": [
        {
          "indexed": true,
          "internalType": "uint256",
          "name": "tokenId",
          "type": "uint256"
        },
        {
          "indexed": false,
          "internalType": "uint256",
          "name": "attributeId",
          "type": "uint256"
        },
        {
          "indexed": false,
          "internalType": "string",
          "name": "name",
          "type": "string"
        }
      ],
      "name": "NameUpdated",
      "type": "event"
    },
    {
      "anonymous": false,
      "inputs": [
        {
          "indexed": true,
          "internalType": "uint256",
          "name": "tokenId",
          "type": "uint256"
        },
        {
          "indexed": false,
          "internalType": "uint256[]",
          "name": "attributeIds",
          "type": "uint256[]"
        },
        {
          "indexed": false,
          "internalType": "string[]",
          "name": "names",
          "type": "string[]"
        }
      ],
      "name": "NamesUpdated",
      "type": "event"
    },
    {
      "anonymous": false,
      "inputs": [
        {
          "indexed": false,
          "internalType": "address",
          "name": "account",
          "type": "address"
        }
      ],
      "name": "Paused",
      "type": "event"
    },
    {
      "anonymous": false,
      "inputs": [
        {
          "indexed": true,
          "internalType": "bytes32",
          "name": "role",
          "type": "bytes32"
        },
        {
          "indexed": true,
          "internalType": "bytes32",
          "name": "previousAdminRole",
          "type": "bytes32"
        },
        {
          "indexed": true,
          "internalType": "bytes32",
          "name": "newAdminRole",
          "type": "bytes32"
        }
      ],
      "name": "RoleAdminChanged",
      "type": "event"
    },
    {
      "anonymous": false,
      "inputs": [
        {
          "indexed": true,
          "internalType": "bytes32",
          "name": "role",
          "type": "bytes32"
        },
        {
          "indexed": true,
          "internalType": "address",
          "name": "account",
          "type": "address"
        },
        {
          "indexed": true,
          "internalType": "address",
          "name": "sender",
          "type": "address"
        }
      ],
      "name": "RoleGranted",
      "type": "event"
    },
    {
      "anonymous": false,
      "inputs": [
        {
          "indexed": true,
          "internalType": "bytes32",
          "name": "role",
          "type": "bytes32"
        },
        {
          "indexed": true,
          "internalType": "address",
          "name": "account",
          "type": "address"
        },
        {
          "indexed": true,
          "internalType": "address",
          "name": "sender",
          "type": "address"
        }
      ],
      "name": "RoleRevoked",
      "type": "event"
    },
    {
      "anonymous": false,
      "inputs": [
        {
          "indexed": true,
          "internalType": "address",
          "name": "operator",
          "type": "address"
        },
        {
          "indexed": true,
          "internalType": "address",
          "name": "from",
          "type": "address"
        },
        {
          "indexed": true,
          "internalType": "address",
          "name": "to",
          "type": "address"
        },
        {
          "indexed": false,
          "internalType": "uint256[]",
          "name": "ids",
          "type": "uint256[]"
        },
        {
          "indexed": false,
          "internalType": "uint256[]",
          "name": "values",
          "type": "uint256[]"
        }
      ],
      "name": "TransferBatch",
      "type": "event"
    },
    {
      "anonymous": false,
      "inputs": [
        {
          "indexed": true,
          "internalType": "address",
          "name": "operator",
          "type": "address"
        },
        {
          "indexed": true,
          "internalType": "address",
          "name": "from",
          "type": "address"
        },
        {
          "indexed": true,
          "internalType": "address",
          "name": "to",
          "type": "address"
        },
        {
          "indexed": false,
          "internalType": "uint256",
          "name": "id",
          "type": "uint256"
        },
        {
          "indexed": false,
          "internalType": "uint256",
          "name": "value",
          "type": "uint256"
        }
      ],
      "name": "TransferSingle",
      "type": "event"
    },
    {
      "anonymous": false,
      "inputs": [
        {
          "indexed": false,
          "internalType": "string",
          "name": "value",
          "type": "string"
        },
        {
          "indexed": true,
          "internalType": "uint256",
          "name": "id",
          "type": "uint256"
        }
      ],
      "name": "URI",
      "type": "event"
    },
    {
      "anonymous": false,
      "inputs": [
        {
          "indexed": false,
          "internalType": "address",
          "name": "account",
          "type": "address"
        }
      ],
      "name": "Unpaused",
      "type": "event"
    },
    {
      "anonymous": false,
      "inputs": [
        {
          "indexed": true,
          "internalType": "uint256",
          "name": "tokenId",
          "type": "uint256"
        },
        {
          "indexed": false,
          "internalType": "uint256",
          "name": "attributeId",
          "type": "uint256"
        },
        {
          "indexed": false,
          "internalType": "uint256",
          "name": "value",
          "type": "uint256"
        }
      ],
      "name": "ValueUpdated",
      "type": "event"
    },
    {
      "anonymous": false,
      "inputs": [
        {
          "indexed": true,
          "internalType": "uint256",
          "name": "tokenId",
          "type": "uint256"
        },
        {
          "indexed": false,
          "internalType": "uint256[]",
          "name": "attributeIds",
          "type": "uint256[]"
        },
        {
          "indexed": false,
          "internalType": "uint256[]",
          "name": "values",
          "type": "uint256[]"
        }
      ],
      "name": "ValuesUpdated",
      "type": "event"
    },
    {
      "inputs": [],
      "name": "CONTRACT_ROLE",
      "outputs": [
        {
          "internalType": "bytes32",
          "name": "",
          "type": "bytes32"
        }
      ],
      "stateMutability": "view",
      "type": "function"
    },
    {
      "inputs": [],
      "name": "DEFAULT_ADMIN_ROLE",
      "outputs": [
        {
          "internalType": "bytes32",
          "name": "",
          "type": "bytes32"
        }
      ],
      "stateMutability": "view",
      "type": "function"
    },
    {
      "inputs": [],
      "name": "SOULBOUND_WHITELIST_ROLE",
      "outputs": [
        {
          "internalType": "bytes32",
          "name": "",
          "type": "bytes32"
        }
      ],
      "stateMutability": "view",
      "type": "function"
    },
    {
      "inputs": [],
      "name": "activeIds",
      "outputs": [
        {
          "internalType": "uint256[]",
          "name": "",
          "type": "uint256[]"
        }
      ],
      "stateMutability": "view",
      "type": "function"
    },
    {
      "inputs": [
        {
          "internalType": "address",
          "name": "account",
          "type": "address"
        },
        {
          "internalType": "uint256",
          "name": "id",
          "type": "uint256"
        }
      ],
      "name": "balanceOf",
      "outputs": [
        {
          "internalType": "uint256",
          "name": "",
          "type": "uint256"
        }
      ],
      "stateMutability": "view",
      "type": "function"
    },
    {
      "inputs": [],
      "name": "balanceOfAll",
      "outputs": [
        {
          "internalType": "address[]",
          "name": "owners",
          "type": "address[]"
        },
        {
          "internalType": "uint256[][]",
          "name": "tokenIds",
          "type": "uint256[][]"
        },
        {
          "internalType": "uint256[][]",
          "name": "balances",
          "type": "uint256[][]"
        }
      ],
      "stateMutability": "view",
      "type": "function"
    },
    {
      "inputs": [
        {
          "internalType": "address[]",
          "name": "accounts",
          "type": "address[]"
        },
        {
          "internalType": "uint256[]",
          "name": "ids",
          "type": "uint256[]"
        }
      ],
      "name": "balanceOfBatch",
      "outputs": [
        {
          "internalType": "uint256[]",
          "name": "",
          "type": "uint256[]"
        }
      ],
      "stateMutability": "view",
      "type": "function"
    },
    {
      "inputs": [
        {
          "internalType": "uint256",
          "name": "tokenId",
          "type": "uint256"
        },
        {
          "internalType": "uint256[]",
          "name": "attributeIds",
          "type": "uint256[]"
        }
      ],
      "name": "batchGetAttribute",
      "outputs": [
        {
          "internalType": "uint256[]",
          "name": "",
          "type": "uint256[]"
        }
      ],
      "stateMutability": "view",
      "type": "function"
    },
    {
      "inputs": [
        {
          "internalType": "uint256",
          "name": "tokenId",
          "type": "uint256"
        },
        {
          "internalType": "uint256[]",
          "name": "attributeIds",
          "type": "uint256[]"
        },
        {
          "internalType": "uint256[]",
          "name": "values",
          "type": "uint256[]"
        }
      ],
      "name": "batchSetAttribute",
      "outputs": [],
      "stateMutability": "nonpayable",
      "type": "function"
    },
    {
      "inputs": [
        {
          "internalType": "uint256",
          "name": "tokenId",
          "type": "uint256"
        },
        {
          "internalType": "uint256[]",
          "name": "attributeIds",
          "type": "uint256[]"
        },
        {
          "internalType": "string[]",
          "name": "names",
          "type": "string[]"
        }
      ],
      "name": "batchSetAttributeName",
      "outputs": [],
      "stateMutability": "nonpayable",
      "type": "function"
    },
    {
      "inputs": [
        {
          "internalType": "uint256[]",
          "name": "tokenIds",
          "type": "uint256[]"
        },
        {
          "internalType": "uint256[]",
          "name": "attributeIds",
          "type": "uint256[]"
        },
        {
          "internalType": "string[]",
          "name": "names",
          "type": "string[]"
        }
      ],
      "name": "batchSetAttributeNames",
      "outputs": [],
      "stateMutability": "nonpayable",
      "type": "function"
    },
    {
      "inputs": [
        {
          "internalType": "uint256[]",
          "name": "tokenIds",
          "type": "uint256[]"
        }
      ],
      "name": "batchTokenURI",
      "outputs": [
        {
          "internalType": "string[]",
          "name": "",
          "type": "string[]"
        }
      ],
      "stateMutability": "view",
      "type": "function"
    },
    {
      "inputs": [
        {
          "internalType": "uint256[]",
          "name": "tokenIds",
          "type": "uint256[]"
        }
      ],
      "name": "batchUri",
      "outputs": [
        {
          "internalType": "string[]",
          "name": "",
          "type": "string[]"
        }
      ],
      "stateMutability": "view",
      "type": "function"
    },
    {
      "inputs": [],
      "name": "bridgeContract",
      "outputs": [
        {
          "internalType": "address",
          "name": "",
          "type": "address"
        }
      ],
      "stateMutability": "view",
      "type": "function"
    },
    {
      "inputs": [
        {
          "internalType": "uint256",
          "name": "",
          "type": "uint256"
        },
        {
          "internalType": "uint256",
          "name": "",
          "type": "uint256"
        }
      ],
      "name": "bridgeExtraData",
      "outputs": [
        {
          "internalType": "bytes",
          "name": "",
          "type": "bytes"
        }
      ],
      "stateMutability": "pure",
      "type": "function"
    },
    {
      "inputs": [
        {
          "internalType": "address",
          "name": "account",
          "type": "address"
        },
        {
          "internalType": "uint256",
          "name": "id",
          "type": "uint256"
        },
        {
          "internalType": "uint256",
          "name": "amount",
          "type": "uint256"
        }
      ],
      "name": "burn",
      "outputs": [],
      "stateMutability": "nonpayable",
      "type": "function"
    },
    {
      "inputs": [
        {
          "internalType": "address",
          "name": "from",
          "type": "address"
        },
        {
          "internalType": "uint256[]",
          "name": "ids",
          "type": "uint256[]"
        },
        {
          "internalType": "uint256[]",
          "name": "amounts",
          "type": "uint256[]"
        }
      ],
      "name": "burnBatch",
      "outputs": [],
      "stateMutability": "nonpayable",
      "type": "function"
    },
    {
      "inputs": [
        {
          "internalType": "uint256",
          "name": "id",
          "type": "uint256"
        }
      ],
      "name": "exists",
      "outputs": [
        {
          "internalType": "bool",
          "name": "",
          "type": "bool"
        }
      ],
      "stateMutability": "view",
      "type": "function"
    },
    {
      "inputs": [
        {
          "internalType": "uint256",
          "name": "tokenId",
          "type": "uint256"
        },
        {
          "internalType": "uint256",
          "name": "attributeId",
          "type": "uint256"
        }
      ],
      "name": "getAttribute",
      "outputs": [
        {
          "internalType": "uint256",
          "name": "",
          "type": "uint256"
        }
      ],
      "stateMutability": "view",
      "type": "function"
    },
    {
      "inputs": [],
      "name": "getBlacklisted",
      "outputs": [
        {
          "internalType": "address[]",
          "name": "",
          "type": "address[]"
        }
      ],
      "stateMutability": "view",
      "type": "function"
    },
    {
      "inputs": [
        {
          "internalType": "bytes32",
          "name": "role",
          "type": "bytes32"
        }
      ],
      "name": "getRoleAdmin",
      "outputs": [
        {
          "internalType": "bytes32",
          "name": "",
          "type": "bytes32"
        }
      ],
      "stateMutability": "view",
      "type": "function"
    },
    {
      "inputs": [
        {
          "internalType": "bytes32",
          "name": "role",
          "type": "bytes32"
        },
        {
          "internalType": "uint256",
          "name": "index",
          "type": "uint256"
        }
      ],
      "name": "getRoleMember",
      "outputs": [
        {
          "internalType": "address",
          "name": "",
          "type": "address"
        }
      ],
      "stateMutability": "view",
      "type": "function"
    },
    {
      "inputs": [
        {
          "internalType": "bytes32",
          "name": "role",
          "type": "bytes32"
        }
      ],
      "name": "getRoleMemberCount",
      "outputs": [
        {
          "internalType": "uint256",
          "name": "",
          "type": "uint256"
        }
      ],
      "stateMutability": "view",
      "type": "function"
    },
    {
      "inputs": [
        {
          "internalType": "bytes32",
          "name": "role",
          "type": "bytes32"
        },
        {
          "internalType": "address",
          "name": "account",
          "type": "address"
        }
      ],
      "name": "grantRole",
      "outputs": [],
      "stateMutability": "nonpayable",
      "type": "function"
    },
    {
      "inputs": [
        {
          "internalType": "bytes32",
          "name": "role",
          "type": "bytes32"
        },
        {
          "internalType": "address",
          "name": "account",
          "type": "address"
        }
      ],
      "name": "hasRole",
      "outputs": [
        {
          "internalType": "bool",
          "name": "",
          "type": "bool"
        }
      ],
      "stateMutability": "view",
      "type": "function"
    },
    {
      "inputs": [],
      "name": "imageBaseURI",
      "outputs": [
        {
          "internalType": "string",
          "name": "",
          "type": "string"
        }
      ],
      "stateMutability": "view",
      "type": "function"
    },
    {
      "inputs": [],
      "name": "initialize",
      "outputs": [],
      "stateMutability": "nonpayable",
      "type": "function"
    },
    {
      "inputs": [
        {
          "internalType": "address",
          "name": "account",
          "type": "address"
        },
        {
          "internalType": "address",
          "name": "operator",
          "type": "address"
        }
      ],
      "name": "isApprovedForAll",
      "outputs": [
        {
          "internalType": "bool",
          "name": "",
          "type": "bool"
        }
      ],
      "stateMutability": "view",
      "type": "function"
    },
    {
      "inputs": [
        {
          "internalType": "address",
          "name": "user",
          "type": "address"
        }
      ],
      "name": "isBlacklisted",
      "outputs": [
        {
          "internalType": "bool",
          "name": "",
          "type": "bool"
        }
      ],
      "stateMutability": "view",
      "type": "function"
    },
    {
      "inputs": [
        {
          "internalType": "uint256",
          "name": "tokenId",
          "type": "uint256"
        }
      ],
      "name": "isSoulbound",
      "outputs": [
        {
          "internalType": "bool",
          "name": "",
          "type": "bool"
        }
      ],
      "stateMutability": "view",
      "type": "function"
    },
    {
      "inputs": [
        {
          "internalType": "address",
          "name": "account",
          "type": "address"
        },
        {
          "internalType": "uint256",
          "name": "id",
          "type": "uint256"
        },
        {
          "internalType": "uint256",
          "name": "amount",
          "type": "uint256"
        },
        {
          "internalType": "bytes",
          "name": "data",
          "type": "bytes"
        }
      ],
      "name": "mint",
      "outputs": [],
      "stateMutability": "nonpayable",
      "type": "function"
    },
    {
      "inputs": [
        {
          "internalType": "address",
          "name": "to",
          "type": "address"
        },
        {
          "internalType": "uint256[]",
          "name": "ids",
          "type": "uint256[]"
        },
        {
          "internalType": "uint256[]",
          "name": "amounts",
          "type": "uint256[]"
        },
        {
          "internalType": "bytes",
          "name": "data",
          "type": "bytes"
        }
      ],
      "name": "mintBatch",
      "outputs": [],
      "stateMutability": "nonpayable",
      "type": "function"
    },
    {
      "inputs": [
        {
          "internalType": "uint256",
          "name": "id",
          "type": "uint256"
        },
        {
          "internalType": "address[]",
          "name": "to",
          "type": "address[]"
        },
        {
          "internalType": "uint256[]",
          "name": "amounts",
          "type": "uint256[]"
        }
      ],
      "name": "mintBatchOf",
      "outputs": [],
      "stateMutability": "nonpayable",
      "type": "function"
    },
    {
      "inputs": [],
      "name": "name",
      "outputs": [
        {
          "internalType": "string",
          "name": "",
          "type": "string"
        }
      ],
      "stateMutability": "view",
      "type": "function"
    },
    {
      "inputs": [],
      "name": "pause",
      "outputs": [],
      "stateMutability": "nonpayable",
      "type": "function"
    },
    {
      "inputs": [],
      "name": "paused",
      "outputs": [
        {
          "internalType": "bool",
          "name": "",
          "type": "bool"
        }
      ],
      "stateMutability": "view",
      "type": "function"
    },
    {
      "inputs": [
        {
          "internalType": "bytes32",
          "name": "role",
          "type": "bytes32"
        },
        {
          "internalType": "address",
          "name": "account",
          "type": "address"
        }
      ],
      "name": "renounceRole",
      "outputs": [],
      "stateMutability": "nonpayable",
      "type": "function"
    },
    {
      "inputs": [
        {
          "internalType": "bytes32",
          "name": "role",
          "type": "bytes32"
        },
        {
          "internalType": "address",
          "name": "account",
          "type": "address"
        }
      ],
      "name": "revokeRole",
      "outputs": [],
      "stateMutability": "nonpayable",
      "type": "function"
    },
    {
      "inputs": [
        {
          "internalType": "address",
          "name": "from",
          "type": "address"
        },
        {
          "internalType": "address",
          "name": "to",
          "type": "address"
        },
        {
          "internalType": "uint256[]",
          "name": "ids",
          "type": "uint256[]"
        },
        {
          "internalType": "uint256[]",
          "name": "amounts",
          "type": "uint256[]"
        },
        {
          "internalType": "bytes",
          "name": "data",
          "type": "bytes"
        }
      ],
      "name": "safeBatchTransferFrom",
      "outputs": [],
      "stateMutability": "nonpayable",
      "type": "function"
    },
    {
      "inputs": [
        {
          "internalType": "address",
          "name": "from",
          "type": "address"
        },
        {
          "internalType": "address",
          "name": "to",
          "type": "address"
        },
        {
          "internalType": "uint256",
          "name": "id",
          "type": "uint256"
        },
        {
          "internalType": "uint256",
          "name": "amount",
          "type": "uint256"
        },
        {
          "internalType": "bytes",
          "name": "data",
          "type": "bytes"
        }
      ],
      "name": "safeTransferFrom",
      "outputs": [],
      "stateMutability": "nonpayable",
      "type": "function"
    },
    {
      "inputs": [
        {
          "internalType": "address",
          "name": "operator",
          "type": "address"
        },
        {
          "internalType": "bool",
          "name": "approved",
          "type": "bool"
        }
      ],
      "name": "setApprovalForAll",
      "outputs": [],
      "stateMutability": "nonpayable",
      "type": "function"
    },
    {
      "inputs": [
        {
          "internalType": "uint256",
          "name": "tokenId",
          "type": "uint256"
        },
        {
          "internalType": "uint256",
          "name": "attributeId",
          "type": "uint256"
        },
        {
          "internalType": "uint256",
          "name": "value",
          "type": "uint256"
        }
      ],
      "name": "setAttribute",
      "outputs": [],
      "stateMutability": "nonpayable",
      "type": "function"
    },
    {
      "inputs": [
        {
          "internalType": "uint256",
          "name": "tokenId",
          "type": "uint256"
        },
        {
          "internalType": "uint256",
          "name": "attributeId",
          "type": "uint256"
        },
        {
          "internalType": "string",
          "name": "name",
          "type": "string"
        }
      ],
      "name": "setAttributeName",
      "outputs": [],
      "stateMutability": "nonpayable",
      "type": "function"
    },
    {
      "inputs": [
        {
          "internalType": "address",
          "name": "_bridgeContract",
          "type": "address"
        }
      ],
      "name": "setBridgeContract",
      "outputs": [],
      "stateMutability": "nonpayable",
      "type": "function"
    },
    {
      "inputs": [
        {
          "internalType": "uint256",
          "name": "tokenId",
          "type": "uint256"
        }
      ],
      "name": "setSoulbound",
      "outputs": [],
      "stateMutability": "nonpayable",
      "type": "function"
    },
    {
      "inputs": [
        {
          "internalType": "bytes4",
          "name": "interfaceId",
          "type": "bytes4"
        }
      ],
      "name": "supportsInterface",
      "outputs": [
        {
          "internalType": "bool",
          "name": "",
          "type": "bool"
        }
      ],
      "stateMutability": "view",
      "type": "function"
    },
    {
      "inputs": [],
      "name": "symbol",
      "outputs": [
        {
          "internalType": "string",
          "name": "",
          "type": "string"
        }
      ],
      "stateMutability": "view",
      "type": "function"
    },
    {
      "inputs": [
        {
          "internalType": "address",
          "name": "owner",
          "type": "address"
        }
      ],
      "name": "tokensOf",
      "outputs": [
        {
          "internalType": "uint256[]",
          "name": "tokenIds",
          "type": "uint256[]"
        },
        {
          "internalType": "uint256[]",
          "name": "balances",
          "type": "uint256[]"
        }
      ],
      "stateMutability": "view",
      "type": "function"
    },
    {
      "inputs": [
        {
          "internalType": "uint256",
          "name": "id",
          "type": "uint256"
        }
      ],
      "name": "totalSupply",
      "outputs": [
        {
          "internalType": "uint256",
          "name": "",
          "type": "uint256"
        }
      ],
      "stateMutability": "view",
      "type": "function"
    },
    {
      "inputs": [],
      "name": "unpause",
      "outputs": [],
      "stateMutability": "nonpayable",
      "type": "function"
    },
    {
      "inputs": [
        {
          "internalType": "uint256",
          "name": "tokenId",
          "type": "uint256"
        }
      ],
      "name": "unsetSoulbound",
      "outputs": [],
      "stateMutability": "nonpayable",
      "type": "function"
    },
    {
      "inputs": [
        {
          "internalType": "uint256",
          "name": "tokenId",
          "type": "uint256"
        }
      ],
      "name": "uri",
      "outputs": [
        {
          "internalType": "string",
          "name": "",
          "type": "string"
        }
      ],
      "stateMutability": "view",
      "type": "function"
    }
  ],
  "bytecode": "0x60806040523480156200001157600080fd5b506200001c62000022565b620000e4565b600054610100900460ff16156200008f5760405162461bcd60e51b815260206004820152602760248201527f496e697469616c697a61626c653a20636f6e747261637420697320696e697469604482015266616c697a696e6760c81b606482015260840160405180910390fd5b60005460ff9081161015620000e2576000805460ff191660ff9081179091556040519081527f7f26b83ff96e1f2b6a682f133852f6798a09c465da95921460cefb38474024989060200160405180910390a15b565b61524380620000f46000396000f3fe608060405234801561001057600080fd5b506004361061030b5760003560e01c80638456cb591161019d578063bd85b039116100e9578063d547741f116100a2578063f5298aca1161007c578063f5298aca146106f7578063fb95ac2d1461070a578063fd5eea4e1461072c578063fe575a871461073f57600080fd5b8063d547741f14610695578063e985e9c5146106a8578063f242432a146106e457600080fd5b8063bd85b03914610620578063c385ce2514610633578063ca15c87314610646578063cd59658314610659578063ce3675ad1461066d578063d179191a1461068257600080fd5b806396c45e2f11610156578063a217fddf11610130578063a217fddf146105ea578063a22cb465146105f2578063b0fe60d514610605578063b198ce461461061857600080fd5b806396c45e2f146105af578063994a95be146105c2578063a17d79ec146105d557600080fd5b80638456cb591461053b57806387be85d3146105435780639010d07c14610556578063911ec4701461058157806391d148541461059457806395d89b41146105a757600080fd5b80633f4ba83a1161025c5780636b20c454116102155780637685945e116101ef5780637685945e1461050557806377645839146105185780637d7a6d13146105205780638129fc1c1461053357600080fd5b80636b20c454146104bf5780636d94f13a146104d2578063731133e9146104f257600080fd5b80633f4ba83a146104445780634e1273f41461044c5780634f558e791461046c57806358870da11461047f5780635a3f2672146104925780635c975abb146104b357600080fd5b80631f7fdffa116102c9578063248a9ca3116102a3578063248a9ca3146103e85780632eb2c2d61461040b5780632f2ff15d1461041e57806336568abe1461043157600080fd5b80631f7fdffa146103ab578063208e509f146103be57806321e5548c146103d557600080fd5b8062fdd58e1461031057806301ffc9a71461033657806303fe46ab1461035957806306fdde031461036e5780630b26cf66146103835780630e89341c14610398575b600080fd5b61032361031e366004613a3b565b610752565b6040519081526020015b60405180910390f35b610349610344366004613a7b565b6107ed565b604051901515815260200161032d565b6103236000805160206151ee83398151915281565b6103766107f8565b60405161032d9190613ae8565b610396610391366004613afb565b610887565b005b6103766103a6366004613b16565b6108c1565b6103966103b9366004613b73565b610aa2565b6103c6610b64565b60405161032d93929190613d13565b6103966103e3366004613d56565b610c95565b6103236103f6366004613b16565b60009081526097602052604090206001015490565b610396610419366004613f38565b610d5b565b61039661042c366004613fe1565b610da7565b61039661043f366004613fe1565b610dd1565b610396610e4f565b61045f61045a36600461400d565b610e70565b60405161032d91906140d7565b61034961047a366004613b16565b610f99565b61039661048d3660046140ea565b610fac565b6104a56104a0366004613afb565b611029565b60405161032d929190614139565b6101295460ff16610349565b6103966104cd36600461415e565b6110ee565b6104e56104e03660046141c7565b611110565b60405161032d9190614243565b610396610500366004614256565b61111b565b6103236105133660046142b6565b611144565b610376611164565b61039661052e3660046142d8565b611172565b610396611236565b6103966113fb565b61039661055136600461430b565b61141a565b6105696105643660046142b6565b6114af565b6040516001600160a01b03909116815260200161032d565b61034961058f366004613b16565b6114c7565b6103496105a2366004613fe1565b6114eb565b610376611516565b6103966105bd366004613b16565b611524565b61045f6105d0366004614384565b611561565b6103236000805160206151ae83398151915281565b610323600081565b6103966106003660046143c0565b611624565b6104e56106133660046141c7565b61162f565b61045f6116e7565b61032361062e366004613b16565b611785565b610396610641366004613b16565b61179c565b610323610654366004613b16565b6117d8565b6102ba54610569906001600160a01b031681565b6106756117ef565b60405161032d91906143fc565b61039661069036600461440f565b611801565b6103966106a3366004613fe1565b6118cf565b6103496106b63660046144fa565b6001600160a01b03918216600090815260666020908152604080832093909416825291909152205460ff1690565b6103966106f2366004614524565b6118f4565b610396610705366004614588565b611939565b6103766107183660046142b6565b505060408051602081019091526000815290565b61039661073a3660046145bb565b611944565b61034961074d366004613afb565b6119af565b60006001600160a01b0383166107c25760405162461bcd60e51b815260206004820152602a60248201527f455243313135353a2061646472657373207a65726f206973206e6f742061207660448201526930b634b21037bbb732b960b11b60648201526084015b60405180910390fd5b5060008181526065602090815260408083206001600160a01b03861684529091529020545b92915050565b60006107e7826119bd565b6102888054610806906145e7565b80601f0160208091040260200160405190810160405280929190818152602001828054610832906145e7565b801561087f5780601f106108545761010080835404028352916020019161087f565b820191906000526020600020905b81548152906001019060200180831161086257829003601f168201915b505050505081565b61089e6000805160206151ce8339815191526119e2565b6102ba80546001600160a01b0319166001600160a01b0392909216919091179055565b606060006108d1836103e86119ec565b905060006108e1846103e96119ec565b6040805160038082526080820190925291925060009190816020015b61092160405180606001604052806060815260200160608152602001606081525090565b8152602001906001900390816108fd57905050905060405180606001604052806040518060400160405280600a815260200169283937b332b9b9b4b7b760b11b81525081526020016040518060200160405280600081525081526020016109898760006119ec565b8152508160008151811061099f5761099f614621565b6020026020010181905250604051806060016040528060405180604001604052806004815260200163151bdbdb60e21b81525081526020016040518060200160405280600081525081526020016109f78760016119ec565b81525081600181518110610a0d57610a0d614621565b602002602001018190525060405180606001604052806040518060400160405280600381526020016214d95d60ea1b8152508152602001604051806020016040528060008152508152602001610a648760026119ec565b81525081600281518110610a7a57610a7a614621565b6020026020010181905250610a99610a9486858585611a9b565b611ae7565b95945050505050565b610ab960008051602061518e8339815191526119e2565b610b5b8787878080602002602001604051908101604052809392919081815260200183836020028082843760009201919091525050604080516020808b0282810182019093528a82529093508a92508991829185019084908082843760009201919091525050604080516020601f8a018190048102820181019092528881529250889150879081908401838280828437600092019190915250611b1892505050565b50505050505050565b6060806060610b74610190611c73565b925082516001600160401b03811115610b8f57610b8f613def565b604051908082528060200260200182016040528015610bc257816020015b6060815260200190600190039081610bad5790505b50915082516001600160401b03811115610bde57610bde613def565b604051908082528060200260200182016040528015610c1157816020015b6060815260200190600190039081610bfc5790505b50905060005b8351811015610c8f57610c42848281518110610c3557610c35614621565b6020026020010151611029565b848381518110610c5457610c54614621565b60200260200101848481518110610c6d57610c6d614621565b6020026020010182905282905250508080610c879061464d565b915050610c17565b50909192565b6000805160206151ee833981519152610cad816119e2565b60005b86811015610d5157838382818110610cca57610cca614621565b9050602002810190610cdc9190614666565b6101f560008b8b86818110610cf357610cf3614621565b9050602002013581526020019081526020016000206000898986818110610d1c57610d1c614621565b9050602002013581526020019081526020016000209182610d3e9291906146f2565b5080610d498161464d565b915050610cb0565b5050505050505050565b6001600160a01b038516331480610d775750610d7785336106b6565b610d935760405162461bcd60e51b81526004016107b9906147b1565b610da08585858585611c80565b5050505050565b600082815260976020526040902060010154610dc2816119e2565b610dcc8383611e25565b505050565b6001600160a01b0381163314610e415760405162461bcd60e51b815260206004820152602f60248201527f416363657373436f6e74726f6c3a2063616e206f6e6c792072656e6f756e636560448201526e103937b632b9903337b91039b2b63360891b60648201526084016107b9565b610e4b8282611e47565b5050565b610e666000805160206151ce8339815191526119e2565b610e6e611e69565b565b60608151835114610ed55760405162461bcd60e51b815260206004820152602960248201527f455243313135353a206163636f756e747320616e6420696473206c656e677468604482015268040dad2e6dac2e8c6d60bb1b60648201526084016107b9565b600083516001600160401b03811115610ef057610ef0613def565b604051908082528060200260200182016040528015610f19578160200160208202803683370190505b50905060005b8451811015610f9157610f64858281518110610f3d57610f3d614621565b6020026020010151858381518110610f5757610f57614621565b6020026020010151610752565b828281518110610f7657610f76614621565b6020908102919091010152610f8a8161464d565b9050610f1f565b509392505050565b600080610fa583611785565b1192915050565b6000805160206151ee833981519152610fc4816119e2565b60008481526101f5602090815260408083208684529091529020610fe88382614800565b50837ffdbb964a9a1d2ac903ed7ebf85795be6728c27e96237552b2805596c759e0881848460405161101b9291906148bf565b60405180910390a250505050565b6001600160a01b038116600090815261019260205260409020606090819061105090611c73565b915081516001600160401b0381111561106b5761106b613def565b604051908082528060200260200182016040528015611094578160200160208202803683370190505b50905060005b82518110156110e8576110b984848381518110610f5757610f57614621565b8282815181106110cb576110cb614621565b6020908102919091010152806110e08161464d565b91505061109a565b50915091565b6111056000805160206151ce8339815191526119e2565b610dcc838383611ebc565b60606107e78261162f565b61113260008051602061518e8339815191526119e2565b61113e8484848461205b565b50505050565b60008281526101f46020526040812061115d908361213d565b9392505050565b6102258054610806906145e7565b6000805160206151ee83398151915261118a816119e2565b60005b8351811015611203576111f08482815181106111ab576111ab614621565b60200260200101518483815181106111c5576111c5614621565b60200260200101516101f460008981526020019081526020016000206121499092919063ffffffff16565b50806111fb8161464d565b91505061118d565b50837f383bcccfd5e9b61afe7e6832ca2201fe34d7766a9bbf90fb7152082ddbcd342b848460405161101b929190614139565b600054610100900460ff16158080156112565750600054600160ff909116105b806112705750303b158015611270575060005460ff166001145b6112d35760405162461bcd60e51b815260206004820152602e60248201527f496e697469616c697a61626c653a20636f6e747261637420697320616c72656160448201526d191e481a5b9a5d1a585b1a5e995960921b60648201526084016107b9565b6000805460ff1916600117905580156112f6576000805461ff0019166101001790555b61130e60405180602001604052806000815250612156565b611316612186565b61131e612232565b611326612261565b61132e612261565b611336612261565b61133e612288565b61135f6040518060600160405280602e8152602001615120602e91396122e7565b61136761231b565b6113b26040518060400160405280600c81526020016b436f736d696320536b696e7360a01b81525060405180604001604052806005815260200164534b494e5360d81b815250612362565b80156113f8576000805461ff0019169055604051600181527f7f26b83ff96e1f2b6a682f133852f6798a09c465da95921460cefb38474024989060200160405180910390a15b50565b6114126000805160206151ce8339815191526119e2565b610e6e6123a4565b61143160008051602061518e8339815191526119e2565b60005b838110156114a75761149585858381811061145157611451614621565b90506020020160208101906114669190613afb565b8785858581811061147957611479614621565b905060200201356040518060200160405280600081525061205b565b8061149f8161464d565b915050611434565b505050505050565b600082815260c96020526040812061115d90836123e2565b600881901c60009081526102576020526040812054600160ff84161b1615156107e7565b60009182526097602090815260408084206001600160a01b0393909316845291905290205460ff1690565b6102898054610806906145e7565b6000805160206151ce83398151915261153c816119e2565b600882901c6000908152610257602052604090208054600160ff85161b191690555050565b6060600082516001600160401b0381111561157e5761157e613def565b6040519080825280602002602001820160405280156115a7578160200160208202803683370190505b50905060005b8351811015610f91576115f58482815181106115cb576115cb614621565b60200260200101516101f4600088815260200190815260200160002061213d90919063ffffffff16565b82828151811061160757611607614621565b60209081029190910101528061161c8161464d565b9150506115ad565b610e4b338383612412565b6060600082516001600160401b0381111561164c5761164c613def565b60405190808252806020026020018201604052801561167f57816020015b606081526020019060019003908161166a5790505b50905060005b83518110156116e0576116b08482815181106116a3576116a3614621565b60200260200101516108c1565b8282815181106116c2576116c2614621565b602002602001018190525080806116d89061464d565b915050611685565b5092915050565b606060006116f661018d6124f2565b90506000816001600160401b0381111561171257611712613def565b60405190808252806020026020018201604052801561173b578160200160208202803683370190505b50905060005b828110156116e05761175561018d826124fd565b5082828151811061176857611768614621565b60209081029190910101528061177d8161464d565b915050611741565b60008061179461018d8461251b565b949350505050565b6000805160206151ce8339815191526117b4816119e2565b600882901c6000908152610257602052604090208054600160ff85161b1790555050565b600081815260c9602052604081206107e79061252a565b60606117fc6101c1611c73565b905090565b6000805160206151ee833981519152611819816119e2565b60005b835181101561189c5782818151811061183757611837614621565b60200260200101516101f56000878152602001908152602001600020600086848151811061186757611867614621565b6020026020010151815260200190815260200160002090816118899190614800565b50806118948161464d565b91505061181c565b50837f9d69ed3cc764cf4f579cfc28312dded7bb202f17cc77aa4d0eb3f8bbaecd88e3848460405161101b9291906148d8565b6000828152609760205260409020600101546118ea816119e2565b610dcc8383611e47565b6001600160a01b038516331480611910575061191085336106b6565b61192c5760405162461bcd60e51b81526004016107b9906147b1565b610da08585858585612534565b610dcc838383612670565b6000805160206151ee83398151915261195c816119e2565b60008481526101f460205260409020611976908484612149565b50604080518481526020810184905285917f5cb4c5f05283d5a84da3f9f1b0fe8b00d7ea8e1fb833812b52114799bdf1acc7910161101b565b60006107e76101c1836126b3565b60006001600160e01b03198216635a05180f60e01b14806107e757506107e7826126d5565b6113f881336126fa565b60008281526101f5602090815260408083208484529091529020805460609190611a15906145e7565b80601f0160208091040260200160405190810160405280929190818152602001828054611a41906145e7565b8015611a8e5780601f10611a6357610100808354040283529160200191611a8e565b820191906000526020600020905b815481529060010190602001808311611a7157829003601f168201915b5050505050905092915050565b60606000611aaa86868661275e565b90506000611ab7846127c8565b90508181604051602001611acc929190614919565b60405160208183030381529060405292505050949350505050565b6060611af282612953565b604051602001611b029190614966565b6040516020818303038152906040529050919050565b6001600160a01b038416611b3e5760405162461bcd60e51b81526004016107b9906149ab565b8151835114611b5f5760405162461bcd60e51b81526004016107b9906149ec565b33611b6f81600087878787612aa5565b60005b8451811015611c0b57838181518110611b8d57611b8d614621565b602002602001015160656000878481518110611bab57611bab614621565b602002602001015181526020019081526020016000206000886001600160a01b03166001600160a01b031681526020019081526020016000206000828254611bf39190614a34565b90915550819050611c038161464d565b915050611b72565b50846001600160a01b031660006001600160a01b0316826001600160a01b03167f4a39dc06d4c0dbc64b70af90fd698a233a518aa5d07e595d983b8c0526c8f7fb8787604051611c5c929190614139565b60405180910390a4610da081600087878787612bad565b6060600061115d83612d08565b8151835114611ca15760405162461bcd60e51b81526004016107b9906149ec565b6001600160a01b038416611cc75760405162461bcd60e51b81526004016107b990614a47565b33611cd6818787878787612aa5565b60005b8451811015611dbf576000858281518110611cf657611cf6614621565b602002602001015190506000858381518110611d1457611d14614621565b60209081029190910181015160008481526065835260408082206001600160a01b038e168352909352919091205490915081811015611d655760405162461bcd60e51b81526004016107b990614a8c565b60008381526065602090815260408083206001600160a01b038e8116855292528083208585039055908b16825281208054849290611da4908490614a34565b9250508190555050505080611db89061464d565b9050611cd9565b50846001600160a01b0316866001600160a01b0316826001600160a01b03167f4a39dc06d4c0dbc64b70af90fd698a233a518aa5d07e595d983b8c0526c8f7fb8787604051611e0f929190614139565b60405180910390a46114a7818787878787612bad565b611e2f8282612d64565b600082815260c960205260409020610dcc9082612dea565b611e518282612dff565b600082815260c960205260409020610dcc9082612e66565b611e71612e7b565b610129805460ff191690557f5db9ee0a495bf2e6ff9c91a7834c1ba4fdd244a5e8aa4e537bd38aeae4b073aa335b6040516001600160a01b03909116815260200160405180910390a1565b6001600160a01b038316611ee25760405162461bcd60e51b81526004016107b990614ad6565b8051825114611f035760405162461bcd60e51b81526004016107b9906149ec565b6000339050611f2681856000868660405180602001604052806000815250612aa5565b60005b8351811015611fee576000848281518110611f4657611f46614621565b602002602001015190506000848381518110611f6457611f64614621565b60209081029190910181015160008481526065835260408082206001600160a01b038c168352909352919091205490915081811015611fb55760405162461bcd60e51b81526004016107b990614b19565b60009283526065602090815260408085206001600160a01b038b1686529091529092209103905580611fe68161464d565b915050611f29565b5060006001600160a01b0316846001600160a01b0316826001600160a01b03167f4a39dc06d4c0dbc64b70af90fd698a233a518aa5d07e595d983b8c0526c8f7fb868660405161203f929190614139565b60405180910390a460408051602081019091526000905261113e565b6001600160a01b0384166120815760405162461bcd60e51b81526004016107b9906149ab565b33600061208d85612ec5565b9050600061209a85612ec5565b90506120ab83600089858589612aa5565b60008681526065602090815260408083206001600160a01b038b168452909152812080548792906120dd908490614a34565b909155505060408051878152602081018790526001600160a01b03808a1692600092918716917fc3d58168c5ae7397731d063d5bbf3d657854427343f4c083240f7aacaa2d0f62910160405180910390a4610b5b83600089898989612f10565b600061115d8383612fcb565b600061179484848461303b565b600054610100900460ff1661217d5760405162461bcd60e51b81526004016107b990614b5d565b6113f881613058565b600054610100900460ff166121ad5760405162461bcd60e51b81526004016107b990614b5d565b6121b5612261565b6121c0600033611e25565b6121d86000805160206151ce83398151915233611e25565b6121f06000805160206151ee83398151915233611e25565b61220860008051602061518e83398151915233611e25565b610e6e7ff18b77e1ef402111bacb54bd5e03494cbdba92fbd1bd3bbcc1ce77e69b42ea6c33611e25565b600054610100900460ff166122595760405162461bcd60e51b81526004016107b990614b5d565b610e6e613088565b600054610100900460ff16610e6e5760405162461bcd60e51b81526004016107b990614b5d565b600054610100900460ff166122af5760405162461bcd60e51b81526004016107b990614b5d565b6122b7612261565b6122cf6000805160206151ce83398151915233611e25565b610e6e6000805160206151ae83398151915233611e25565b600054610100900460ff1661230e5760405162461bcd60e51b81526004016107b990614b5d565b610225610e4b8282614800565b600054610100900460ff166123425760405162461bcd60e51b81526004016107b990614b5d565b61234a612261565b610e6e6000805160206151ee83398151915233611e25565b600054610100900460ff166123895760405162461bcd60e51b81526004016107b990614b5d565b6102886123968382614800565b50610289610dcc8282614800565b6123ac6130bc565b610129805460ff191660011790557f62e78cea01bee320cd4e420270b5ea74000d11b0c9f74754ebdbfc544b05a258611e9f3390565b600061115d8383613103565b600881901c600090815260208390526040902054600160ff83161b16151592915050565b816001600160a01b0316836001600160a01b0316036124855760405162461bcd60e51b815260206004820152602960248201527f455243313135353a2073657474696e6720617070726f76616c20737461747573604482015268103337b91039b2b63360b91b60648201526084016107b9565b6001600160a01b03838116600081815260666020908152604080832094871680845294825291829020805460ff191686151590811790915591519182527f17307eab39ab6107e8899845ad3d59bd9653f200f220920489ca2b5937696c31910160405180910390a3505050565b60006107e78261312d565b600080808061250c8686613138565b909450925050505b9250929050565b600080808061250c8686613163565b60006107e7825490565b6001600160a01b03841661255a5760405162461bcd60e51b81526004016107b990614a47565b33600061256685612ec5565b9050600061257385612ec5565b9050612583838989858589612aa5565b60008681526065602090815260408083206001600160a01b038c168452909152902054858110156125c65760405162461bcd60e51b81526004016107b990614a8c565b60008781526065602090815260408083206001600160a01b038d8116855292528083208985039055908a16825281208054889290612605908490614a34565b909155505060408051888152602081018890526001600160a01b03808b16928c821692918816917fc3d58168c5ae7397731d063d5bbf3d657854427343f4c083240f7aacaa2d0f62910160405180910390a4612665848a8a8a8a8a612f10565b505050505050505050565b6001600160a01b03831633148061268c575061268c83336106b6565b6126a85760405162461bcd60e51b81526004016107b9906147b1565b610dcc83838361319d565b6001600160a01b0381166000908152600183016020526040812054151561115d565b60006001600160e01b03198216637965db0b60e01b14806107e757506107e7826132b9565b61270482826114eb565b610e4b5761271c816001600160a01b03166014613309565b612727836020613309565b604051602001612738929190614ba8565b60408051601f198184030181529082905262461bcd60e51b82526107b991600401613ae8565b6060600061022561276e866134a4565b60405160200161277f929190614c1d565b60405160208183030381529060405290508361279a866134a4565b84836040516020016127af9493929190614ca4565b6040516020818303038152906040529150509392505050565b60408051602081019091526000808252606091905b835181101561292a576000600185516127f69190614d9c565b821461281b57604051806040016040528060018152602001600b60fa1b81525061282c565b604051806020016040528060008152505b9050600085838151811061284257612842614621565b602002602001015160200151516000146128985785838151811061286857612868614621565b6020026020010151602001516040516020016128849190614daf565b6040516020818303038152906040526128a9565b604051806020016040528060008152505b90506000848785815181106128c0576128c0614621565b602002602001015160000151838987815181106128df576128df614621565b60200260200101516040015186604051602001612900959493929190614df4565b604051602081830303815290604052905080945050505080806129229061464d565b9150506127dd565b508060405160200161293c9190614eb1565b604051602081830303815290604052915050919050565b6060815160000361297257505060408051602081019091526000815290565b600060405180606001604052806040815260200161514e60409139905060006003845160026129a19190614a34565b6129ab9190614f09565b6129b6906004614f1d565b6001600160401b038111156129cd576129cd613def565b6040519080825280601f01601f1916602001820160405280156129f7576020820181803683370190505b509050600182016020820185865187015b80821015612a63576003820191508151603f8160121c168501518453600184019350603f81600c1c168501518453600184019350603f8160061c168501518453600184019350603f8116850151845350600183019250612a08565b5050600386510660018114612a7f5760028114612a9257612a9a565b603d6001830353603d6002830353612a9a565b603d60018303535b509195945050505050565b612aad6130bc565b82858560005b8351811015612b9e57612aea848281518110612ad157612ad1614621565b60200260200101516102576123ee90919063ffffffff16565b1580612afd57506001600160a01b038316155b80612b0f57506001600160a01b038216155b80612b2d5750612b2d6000805160206151ae833981519152846114eb565b80612b4b5750612b4b6000805160206151ae833981519152836114eb565b612b8c5760405162461bcd60e51b8152602060048201526012602482015271151bdad95b881a5cc81cdbdd5b189bdd5b9960721b60448201526064016107b9565b80612b968161464d565b915050612ab3565b506126658989898989896135a4565b6001600160a01b0384163b156114a75760405163bc197c8160e01b81526001600160a01b0385169063bc197c8190612bf19089908990889088908890600401614f3c565b6020604051808303816000875af1925050508015612c2c575060408051601f3d908101601f19168201909252612c2991810190614f9a565b60015b612cd857612c38614fb7565b806308c379a003612c715750612c4c614fd3565b80612c575750612c73565b8060405162461bcd60e51b81526004016107b99190613ae8565b505b60405162461bcd60e51b815260206004820152603460248201527f455243313135353a207472616e7366657220746f206e6f6e20455243313135356044820152732932b1b2b4bb32b91034b6b83632b6b2b73a32b960611b60648201526084016107b9565b6001600160e01b0319811663bc197c8160e01b14610b5b5760405162461bcd60e51b81526004016107b99061505c565b606081600001805480602002602001604051908101604052809291908181526020018280548015612d5857602002820191906000526020600020905b815481526020019060010190808311612d44575b50505050509050919050565b612d6e82826114eb565b610e4b5760008281526097602090815260408083206001600160a01b03851684529091529020805460ff19166001179055612da63390565b6001600160a01b0316816001600160a01b0316837f2f8788117e7eff1d82e926ec794901d17c78024a50270940304540a733656f0d60405160405180910390a45050565b600061115d836001600160a01b0384166137da565b612e0982826114eb565b15610e4b5760008281526097602090815260408083206001600160a01b0385168085529252808320805460ff1916905551339285917ff6391f5c32d9c69d2a47ea670b442974b53935d1edc7fd64eb21e047a839171b9190a45050565b600061115d836001600160a01b038416613829565b6101295460ff16610e6e5760405162461bcd60e51b815260206004820152601460248201527314185d5cd8589b194e881b9bdd081c185d5cd95960621b60448201526064016107b9565b60408051600180825281830190925260609160009190602080830190803683370190505090508281600081518110612eff57612eff614621565b602090810291909101015292915050565b6001600160a01b0384163b156114a75760405163f23a6e6160e01b81526001600160a01b0385169063f23a6e6190612f5490899089908890889088906004016150a4565b6020604051808303816000875af1925050508015612f8f575060408051601f3d908101601f19168201909252612f8c91810190614f9a565b60015b612f9b57612c38614fb7565b6001600160e01b0319811663f23a6e6160e01b14610b5b5760405162461bcd60e51b81526004016107b99061505c565b600081815260028301602052604081205480151580612fef5750612fef848461391c565b61115d5760405162461bcd60e51b815260206004820152601e60248201527f456e756d657261626c654d61703a206e6f6e6578697374656e74206b6579000060448201526064016107b9565b600082815260028401602052604081208290556117948484613928565b600054610100900460ff1661307f5760405162461bcd60e51b81526004016107b990614b5d565b6113f881613934565b600054610100900460ff166130af5760405162461bcd60e51b81526004016107b990614b5d565b610129805460ff19169055565b6101295460ff1615610e6e5760405162461bcd60e51b815260206004820152601060248201526f14185d5cd8589b194e881c185d5cd95960821b60448201526064016107b9565b600082600001828154811061311a5761311a614621565b9060005260206000200154905092915050565b60006107e78261252a565b6000808061314685856123e2565b600081815260029690960160205260409095205494959350505050565b600081815260028301602052604081205481908061319257613185858561391c565b9250600091506125149050565b600192509050612514565b6001600160a01b0383166131c35760405162461bcd60e51b81526004016107b990614ad6565b3360006131cf84612ec5565b905060006131dc84612ec5565b90506131fc83876000858560405180602001604052806000815250612aa5565b60008581526065602090815260408083206001600160a01b038a1684529091529020548481101561323f5760405162461bcd60e51b81526004016107b990614b19565b60008681526065602090815260408083206001600160a01b038b81168086529184528285208a8703905582518b81529384018a90529092908816917fc3d58168c5ae7397731d063d5bbf3d657854427343f4c083240f7aacaa2d0f62910160405180910390a4604080516020810190915260009052610b5b565b60006001600160e01b03198216636cdb3d1360e11b14806132ea57506001600160e01b031982166303a24d0760e21b145b806107e757506301ffc9a760e01b6001600160e01b03198316146107e7565b60606000613318836002614f1d565b613323906002614a34565b6001600160401b0381111561333a5761333a613def565b6040519080825280601f01601f191660200182016040528015613364576020820181803683370190505b509050600360fc1b8160008151811061337f5761337f614621565b60200101906001600160f81b031916908160001a905350600f60fb1b816001815181106133ae576133ae614621565b60200101906001600160f81b031916908160001a90535060006133d2846002614f1d565b6133dd906001614a34565b90505b6001811115613455576f181899199a1a9b1b9c1cb0b131b232b360811b85600f166010811061341157613411614621565b1a60f81b82828151811061342757613427614621565b60200101906001600160f81b031916908160001a90535060049490941c9361344e816150de565b90506133e0565b50831561115d5760405162461bcd60e51b815260206004820181905260248201527f537472696e67733a20686578206c656e67746820696e73756666696369656e7460448201526064016107b9565b6060816000036134cb5750506040805180820190915260018152600360fc1b602082015290565b8160005b81156134f557806134df8161464d565b91506134ee9050600a83614f09565b91506134cf565b6000816001600160401b0381111561350f5761350f613def565b6040519080825280601f01601f191660200182016040528015613539576020820181803683370190505b5090505b84156117945761354e600183614d9c565b915061355b600a866150f5565b613566906030614a34565b60f81b81838151811061357b5761357b614621565b60200101906001600160f81b031916908160001a90535061359d600a86614f09565b945061353d565b6001600160a01b0385166136555760005b83518110156136535760006135ee8583815181106135d5576135d5614621565b602002602001015161018d61251b90919063ffffffff16565b90508091505061364085838151811061360957613609614621565b602002602001015185848151811061362357613623614621565b6020026020010151836136369190614a34565b61018d9190612149565b50508061364c9061464d565b90506135b5565b505b6001600160a01b03841661374b5760005b835181101561374957600084828151811061368357613683614621565b6020026020010151905060008483815181106136a1576136a1614621565b6020026020010151905060006136c28361018d61213d90919063ffffffff16565b9050818110156137255760405162461bcd60e51b815260206004820152602860248201527f455243313135353a206275726e20616d6f756e74206578636565647320746f74604482015267616c537570706c7960c01b60648201526084016107b9565b61373461018d84848403612149565b50505050806137429061464d565b9050613666565b505b60005b83518110156137c7576137948685838151811061376d5761376d614621565b602002602001015185848151811061378757613787614621565b6020026020010151613940565b6137b7858583815181106137aa576137aa614621565b6020026020010151613995565b6137c08161464d565b905061374e565b506137d1856139d7565b6114a7846139d7565b6000818152600183016020526040812054613821575081546001818101845560008481526020808220909301849055845484825282860190935260409020919091556107e7565b5060006107e7565b6000818152600183016020526040812054801561391257600061384d600183614d9c565b855490915060009061386190600190614d9c565b90508181146138c657600086600001828154811061388157613881614621565b90600052602060002001549050808760000184815481106138a4576138a4614621565b6000918252602080832090910192909255918252600188019052604090208390555b85548690806138d7576138d7615109565b6001900381819060005260206000200160009055905585600101600086815260200190815260200160002060009055600193505050506107e7565b60009150506107e7565b600061115d83836139fb565b600061115d83836137da565b6067610e4b8282614800565b6001600160a01b03831661395357505050565b600061395f8484610752565b905061396b8282614d9c565b60000361113e576001600160a01b038416600090815261019260205260409020610da09084613a13565b6001600160a01b0382166139a7575050565b6001600160a01b0382166000908152610192602052604090206139ca9082613928565b50610dcc61019083612dea565b60606139e282611029565b508051909150600003610e4b57610dcc61019083612e66565b6000818152600183016020526040812054151561115d565b600061115d8383613829565b80356001600160a01b0381168114613a3657600080fd5b919050565b60008060408385031215613a4e57600080fd5b613a5783613a1f565b946020939093013593505050565b6001600160e01b0319811681146113f857600080fd5b600060208284031215613a8d57600080fd5b813561115d81613a65565b60005b83811015613ab3578181015183820152602001613a9b565b50506000910152565b60008151808452613ad4816020860160208601613a98565b601f01601f19169290920160200192915050565b60208152600061115d6020830184613abc565b600060208284031215613b0d57600080fd5b61115d82613a1f565b600060208284031215613b2857600080fd5b5035919050565b60008083601f840112613b4157600080fd5b5081356001600160401b03811115613b5857600080fd5b6020830191508360208260051b850101111561251457600080fd5b60008060008060008060006080888a031215613b8e57600080fd5b613b9788613a1f565b965060208801356001600160401b0380821115613bb357600080fd5b613bbf8b838c01613b2f565b909850965060408a0135915080821115613bd857600080fd5b613be48b838c01613b2f565b909650945060608a0135915080821115613bfd57600080fd5b818a0191508a601f830112613c1157600080fd5b813581811115613c2057600080fd5b8b6020828501011115613c3257600080fd5b60208301945080935050505092959891949750929550565b600081518084526020808501945080840160005b83811015613c835781516001600160a01b031687529582019590820190600101613c5e565b509495945050505050565b600081518084526020808501945080840160005b83811015613c8357815187529582019590820190600101613ca2565b600081518084526020808501808196508360051b8101915082860160005b85811015613d06578284038952613cf4848351613c8e565b98850198935090840190600101613cdc565b5091979650505050505050565b606081526000613d266060830186613c4a565b8281036020840152613d388186613cbe565b90508281036040840152613d4c8185613cbe565b9695505050505050565b60008060008060008060608789031215613d6f57600080fd5b86356001600160401b0380821115613d8657600080fd5b613d928a838b01613b2f565b90985096506020890135915080821115613dab57600080fd5b613db78a838b01613b2f565b90965094506040890135915080821115613dd057600080fd5b50613ddd89828a01613b2f565b979a9699509497509295939492505050565b634e487b7160e01b600052604160045260246000fd5b601f8201601f191681016001600160401b0381118282101715613e2a57613e2a613def565b6040525050565b60006001600160401b03821115613e4a57613e4a613def565b5060051b60200190565b600082601f830112613e6557600080fd5b81356020613e7282613e31565b604051613e7f8282613e05565b83815260059390931b8501820192828101915086841115613e9f57600080fd5b8286015b84811015613eba5780358352918301918301613ea3565b509695505050505050565b600082601f830112613ed657600080fd5b81356001600160401b03811115613eef57613eef613def565b604051613f06601f8301601f191660200182613e05565b818152846020838601011115613f1b57600080fd5b816020850160208301376000918101602001919091529392505050565b600080600080600060a08688031215613f5057600080fd5b613f5986613a1f565b9450613f6760208701613a1f565b935060408601356001600160401b0380821115613f8357600080fd5b613f8f89838a01613e54565b94506060880135915080821115613fa557600080fd5b613fb189838a01613e54565b93506080880135915080821115613fc757600080fd5b50613fd488828901613ec5565b9150509295509295909350565b60008060408385031215613ff457600080fd5b8235915061400460208401613a1f565b90509250929050565b6000806040838503121561402057600080fd5b82356001600160401b038082111561403757600080fd5b818501915085601f83011261404b57600080fd5b8135602061405882613e31565b6040516140658282613e05565b83815260059390931b850182019282810191508984111561408557600080fd5b948201945b838610156140aa5761409b86613a1f565b8252948201949082019061408a565b965050860135925050808211156140c057600080fd5b506140cd85828601613e54565b9150509250929050565b60208152600061115d6020830184613c8e565b6000806000606084860312156140ff57600080fd5b833592506020840135915060408401356001600160401b0381111561412357600080fd5b61412f86828701613ec5565b9150509250925092565b60408152600061414c6040830185613c8e565b8281036020840152610a998185613c8e565b60008060006060848603121561417357600080fd5b61417c84613a1f565b925060208401356001600160401b038082111561419857600080fd5b6141a487838801613e54565b935060408601359150808211156141ba57600080fd5b5061412f86828701613e54565b6000602082840312156141d957600080fd5b81356001600160401b038111156141ef57600080fd5b61179484828501613e54565b600081518084526020808501808196508360051b8101915082860160005b85811015613d06578284038952614231848351613abc565b98850198935090840190600101614219565b60208152600061115d60208301846141fb565b6000806000806080858703121561426c57600080fd5b61427585613a1f565b9350602085013592506040850135915060608501356001600160401b0381111561429e57600080fd5b6142aa87828801613ec5565b91505092959194509250565b600080604083850312156142c957600080fd5b50508035926020909101359150565b6000806000606084860312156142ed57600080fd5b8335925060208401356001600160401b038082111561419857600080fd5b60008060008060006060868803121561432357600080fd5b8535945060208601356001600160401b038082111561434157600080fd5b61434d89838a01613b2f565b9096509450604088013591508082111561436657600080fd5b5061437388828901613b2f565b969995985093965092949392505050565b6000806040838503121561439757600080fd5b8235915060208301356001600160401b038111156143b457600080fd5b6140cd85828601613e54565b600080604083850312156143d357600080fd5b6143dc83613a1f565b9150602083013580151581146143f157600080fd5b809150509250929050565b60208152600061115d6020830184613c4a565b60008060006060848603121561442457600080fd5b833592506020808501356001600160401b038082111561444357600080fd5b61444f88838901613e54565b9450604087013591508082111561446557600080fd5b818701915087601f83011261447957600080fd5b813561448481613e31565b6040516144918282613e05565b82815260059290921b840185019185810191508a8311156144b157600080fd5b8585015b838110156144e9578035858111156144cd5760008081fd5b6144db8d89838a0101613ec5565b8452509186019186016144b5565b508096505050505050509250925092565b6000806040838503121561450d57600080fd5b61451683613a1f565b915061400460208401613a1f565b600080600080600060a0868803121561453c57600080fd5b61454586613a1f565b945061455360208701613a1f565b9350604086013592506060860135915060808601356001600160401b0381111561457c57600080fd5b613fd488828901613ec5565b60008060006060848603121561459d57600080fd5b6145a684613a1f565b95602085013595506040909401359392505050565b6000806000606084860312156145d057600080fd5b505081359360208301359350604090920135919050565b600181811c908216806145fb57607f821691505b60208210810361461b57634e487b7160e01b600052602260045260246000fd5b50919050565b634e487b7160e01b600052603260045260246000fd5b634e487b7160e01b600052601160045260246000fd5b60006001820161465f5761465f614637565b5060010190565b6000808335601e1984360301811261467d57600080fd5b8301803591506001600160401b0382111561469757600080fd5b60200191503681900382131561251457600080fd5b601f821115610dcc57600081815260208120601f850160051c810160208610156146d35750805b601f850160051c820191505b818110156114a7578281556001016146df565b6001600160401b0383111561470957614709613def565b61471d8361471783546145e7565b836146ac565b6000601f84116001811461475157600085156147395750838201355b600019600387901b1c1916600186901b178355610da0565b600083815260209020601f19861690835b828110156147825786850135825560209485019460019092019101614762565b508682101561479f5760001960f88860031b161c19848701351681555b505060018560011b0183555050505050565b6020808252602f908201527f455243313135353a2063616c6c6572206973206e6f7420746f6b656e206f776e60408201526e195c881b9bdc88185c1c1c9bdd9959608a1b606082015260800190565b81516001600160401b0381111561481957614819613def565b61482d8161482784546145e7565b846146ac565b602080601f831160018114614862576000841561484a5750858301515b600019600386901b1c1916600185901b1785556114a7565b600085815260208120601f198616915b8281101561489157888601518255948401946001909101908401614872565b50858210156148af5787850151600019600388901b60f8161c191681555b5050505050600190811b01905550565b8281526040602082015260006117946040830184613abc565b6040815260006148eb6040830185613c8e565b8281036020840152610a9981856141fb565b6000815161490f818560208601613a98565b9290920192915050565b607b60f81b815260008351614935816001850160208801613a98565b83519083019061494c816001840160208801613a98565b607d60f81b60019290910191820152600201949350505050565b7f646174613a6170706c69636174696f6e2f6a736f6e3b6261736536342c00000081526000825161499e81601d850160208701613a98565b91909101601d0192915050565b60208082526021908201527f455243313135353a206d696e7420746f20746865207a65726f206164647265736040820152607360f81b606082015260800190565b60208082526028908201527f455243313135353a2069647320616e6420616d6f756e7473206c656e677468206040820152670dad2e6dac2e8c6d60c31b606082015260800190565b808201808211156107e7576107e7614637565b60208082526025908201527f455243313135353a207472616e7366657220746f20746865207a65726f206164604082015264647265737360d81b606082015260800190565b6020808252602a908201527f455243313135353a20696e73756666696369656e742062616c616e636520666f60408201526939103a3930b739b332b960b11b606082015260800190565b60208082526023908201527f455243313135353a206275726e2066726f6d20746865207a65726f206164647260408201526265737360e81b606082015260800190565b60208082526024908201527f455243313135353a206275726e20616d6f756e7420657863656564732062616c604082015263616e636560e01b606082015260800190565b6020808252602b908201527f496e697469616c697a61626c653a20636f6e7472616374206973206e6f74206960408201526a6e697469616c697a696e6760a81b606082015260800190565b7f416363657373436f6e74726f6c3a206163636f756e7420000000000000000000815260008351614be0816017850160208801613a98565b7001034b99036b4b9b9b4b733903937b6329607d1b6017918401918201528351614c11816028840160208801613a98565b01602801949350505050565b6000808454614c2b816145e7565b60018281168015614c435760018114614c5857614c87565b60ff1984168752821515830287019450614c87565b8860005260208060002060005b85811015614c7e5781548a820152908401908201614c65565b50505082870194505b505050508351614c9b818360208801613a98565b01949350505050565b67113730b6b2911d1160c11b81528451600090614cc8816008850160208a01613a98565b61088b60f21b600891840191820181905269113a37b5b2b724b2111d60b11b600a8301528651614cff816014850160208b01613a98565b600b60fa1b601493909101928301526e113232b9b1b934b83a34b7b7111d1160891b60158301528551614d39816024850160208a01613a98565b6024920191820152681134b6b0b3b2911d1160b91b6026820152614d91614d74614d66602f8401876148fd565b61088b60f21b815260020190565b70089d1e5c19488e88915490cc4c4d4d488b607a1b815260110190565b979650505050505050565b818103818111156107e7576107e7614637565b6f113234b9b83630bcafba3cb832911d1160811b81528151600090614ddb816010850160208701613a98565b61088b60f21b6010939091019283015250601201919050565b60008651614e06818460208b01613a98565b6e3d913a3930b4ba2fba3cb832911d1160891b9083019081528651614e3281600f840160208b01613a98565b61088b60f21b600f92909101918201528551614e55816011840160208a01613a98565b68113b30b63ab2911d1160b91b601192909101918201528451614e7f81601a840160208901613a98565b61227d60f01b601a92909101918201528351614ea281601c840160208801613a98565b01601c01979650505050505050565b6d2261747472696275746573223a5b60901b81528151600090614edb81600e850160208701613a98565b605d60f81b600e939091019283015250600f01919050565b634e487b7160e01b600052601260045260246000fd5b600082614f1857614f18614ef3565b500490565b6000816000190483118215151615614f3757614f37614637565b500290565b6001600160a01b0386811682528516602082015260a060408201819052600090614f6890830186613c8e565b8281036060840152614f7a8186613c8e565b90508281036080840152614f8e8185613abc565b98975050505050505050565b600060208284031215614fac57600080fd5b815161115d81613a65565b600060033d1115614fd05760046000803e5060005160e01c5b90565b600060443d1015614fe15790565b6040516003193d81016004833e81513d6001600160401b03816024840111818411171561501057505050505090565b82850191508151818111156150285750505050505090565b843d87010160208285010111156150425750505050505090565b61505160208286010187613e05565b509095945050505050565b60208082526028908201527f455243313135353a204552433131353552656365697665722072656a656374656040820152676420746f6b656e7360c01b606082015260800190565b6001600160a01b03868116825285166020820152604081018490526060810183905260a060808201819052600090614d9190830184613abc565b6000816150ed576150ed614637565b506000190190565b60008261510457615104614ef3565b500690565b634e487b7160e01b600052603160045260246000fdfe68747470733a2f2f696d616765732e636f736d6963756e6976657273652e696f2f636f736d69632d736b696e732f4142434445464748494a4b4c4d4e4f505152535455565758595a6162636465666768696a6b6c6d6e6f707172737475767778797a303132333435363738392b2f9f2df0fed2c77648de5860a4cc508cd0818c85b8b8a1ab4ceeef8d981c8956a6f01ee2eb8c5679535f9dfef3543570e280865ec756856c5772fe3e6718c5c074a49807205ce4d355092ef5a8a18f56e8913cf4a201fbe287825b095693c21775364d3d7565c7a8300c96fd53e065d19b65848d7b23b3191adcd55621c744223ca26469706673582212208e078ae0e4d9a5bc8d781a579230e9ff966c2b9280beab920fe5f37e9fd0129d64736f6c63430008100033",
  "linkReferences": {},
  "deployedLinkReferences": {}
}