{
  "_format": "hh-sol-artifact-1",
  "contractName": "CosmicSkins",
  "sourceName": "contracts/upgradeable/ERC1155/CosmicSkins.sol",
  "abi": [
    {
      "inputs": [],
      "stateMutability": "nonpayable",
      "type": "constructor"
    },
    {
      "anonymous": false,
      "inputs": [
        {
          "indexed": true,
          "internalType": "address",
          "name": "account",
          "type": "address"
        },
        {
          "indexed": true,
          "internalType": "address",
          "name": "operator",
          "type": "address"
        },
        {
          "indexed": false,
          "internalType": "bool",
          "name": "approved",
          "type": "bool"
        }
      ],
      "name": "ApprovalForAll",
      "type": "event"
    },
    {
      "anonymous": false,
      "inputs": [
        {
          "indexed": false,
          "internalType": "uint8",
          "name": "version",
          "type": "uint8"
        }
      ],
      "name": "Initialized",
      "type": "event"
    },
    {
      "anonymous": false,
      "inputs": [
        {
          "indexed": true,
          "internalType": "uint256",
          "name": "tokenId",
          "type": "uint256"
        },
        {
          "indexed": false,
          "internalType": "uint256",
          "name": "attributeId",
          "type": "uint256"
        },
        {
          "indexed": false,
          "internalType": "string",
          "name": "name",
          "type": "string"
        }
      ],
      "name": "NameUpdated",
      "type": "event"
    },
    {
      "anonymous": false,
      "inputs": [
        {
          "indexed": true,
          "internalType": "uint256",
          "name": "tokenId",
          "type": "uint256"
        },
        {
          "indexed": false,
          "internalType": "uint256[]",
          "name": "attributeIds",
          "type": "uint256[]"
        },
        {
          "indexed": false,
          "internalType": "string[]",
          "name": "names",
          "type": "string[]"
        }
      ],
      "name": "NamesUpdated",
      "type": "event"
    },
    {
      "anonymous": false,
      "inputs": [
        {
          "indexed": false,
          "internalType": "address",
          "name": "account",
          "type": "address"
        }
      ],
      "name": "Paused",
      "type": "event"
    },
    {
      "anonymous": false,
      "inputs": [
        {
          "indexed": true,
          "internalType": "bytes32",
          "name": "role",
          "type": "bytes32"
        },
        {
          "indexed": true,
          "internalType": "bytes32",
          "name": "previousAdminRole",
          "type": "bytes32"
        },
        {
          "indexed": true,
          "internalType": "bytes32",
          "name": "newAdminRole",
          "type": "bytes32"
        }
      ],
      "name": "RoleAdminChanged",
      "type": "event"
    },
    {
      "anonymous": false,
      "inputs": [
        {
          "indexed": true,
          "internalType": "bytes32",
          "name": "role",
          "type": "bytes32"
        },
        {
          "indexed": true,
          "internalType": "address",
          "name": "account",
          "type": "address"
        },
        {
          "indexed": true,
          "internalType": "address",
          "name": "sender",
          "type": "address"
        }
      ],
      "name": "RoleGranted",
      "type": "event"
    },
    {
      "anonymous": false,
      "inputs": [
        {
          "indexed": true,
          "internalType": "bytes32",
          "name": "role",
          "type": "bytes32"
        },
        {
          "indexed": true,
          "internalType": "address",
          "name": "account",
          "type": "address"
        },
        {
          "indexed": true,
          "internalType": "address",
          "name": "sender",
          "type": "address"
        }
      ],
      "name": "RoleRevoked",
      "type": "event"
    },
    {
      "anonymous": false,
      "inputs": [
        {
          "indexed": true,
          "internalType": "address",
          "name": "operator",
          "type": "address"
        },
        {
          "indexed": true,
          "internalType": "address",
          "name": "from",
          "type": "address"
        },
        {
          "indexed": true,
          "internalType": "address",
          "name": "to",
          "type": "address"
        },
        {
          "indexed": false,
          "internalType": "uint256[]",
          "name": "ids",
          "type": "uint256[]"
        },
        {
          "indexed": false,
          "internalType": "uint256[]",
          "name": "values",
          "type": "uint256[]"
        }
      ],
      "name": "TransferBatch",
      "type": "event"
    },
    {
      "anonymous": false,
      "inputs": [
        {
          "indexed": true,
          "internalType": "address",
          "name": "operator",
          "type": "address"
        },
        {
          "indexed": true,
          "internalType": "address",
          "name": "from",
          "type": "address"
        },
        {
          "indexed": true,
          "internalType": "address",
          "name": "to",
          "type": "address"
        },
        {
          "indexed": false,
          "internalType": "uint256",
          "name": "id",
          "type": "uint256"
        },
        {
          "indexed": false,
          "internalType": "uint256",
          "name": "value",
          "type": "uint256"
        }
      ],
      "name": "TransferSingle",
      "type": "event"
    },
    {
      "anonymous": false,
      "inputs": [
        {
          "indexed": false,
          "internalType": "string",
          "name": "value",
          "type": "string"
        },
        {
          "indexed": true,
          "internalType": "uint256",
          "name": "id",
          "type": "uint256"
        }
      ],
      "name": "URI",
      "type": "event"
    },
    {
      "anonymous": false,
      "inputs": [
        {
          "indexed": false,
          "internalType": "address",
          "name": "account",
          "type": "address"
        }
      ],
      "name": "Unpaused",
      "type": "event"
    },
    {
      "anonymous": false,
      "inputs": [
        {
          "indexed": true,
          "internalType": "uint256",
          "name": "tokenId",
          "type": "uint256"
        },
        {
          "indexed": false,
          "internalType": "uint256",
          "name": "attributeId",
          "type": "uint256"
        },
        {
          "indexed": false,
          "internalType": "uint256",
          "name": "value",
          "type": "uint256"
        }
      ],
      "name": "ValueUpdated",
      "type": "event"
    },
    {
      "anonymous": false,
      "inputs": [
        {
          "indexed": true,
          "internalType": "uint256",
          "name": "tokenId",
          "type": "uint256"
        },
        {
          "indexed": false,
          "internalType": "uint256[]",
          "name": "attributeIds",
          "type": "uint256[]"
        },
        {
          "indexed": false,
          "internalType": "uint256[]",
          "name": "values",
          "type": "uint256[]"
        }
      ],
      "name": "ValuesUpdated",
      "type": "event"
    },
    {
      "inputs": [],
      "name": "CONTRACT_ROLE",
      "outputs": [
        {
          "internalType": "bytes32",
          "name": "",
          "type": "bytes32"
        }
      ],
      "stateMutability": "view",
      "type": "function"
    },
    {
      "inputs": [],
      "name": "DEFAULT_ADMIN_ROLE",
      "outputs": [
        {
          "internalType": "bytes32",
          "name": "",
          "type": "bytes32"
        }
      ],
      "stateMutability": "view",
      "type": "function"
    },
    {
      "inputs": [],
      "name": "SOULBOUND_WHITELIST_ROLE",
      "outputs": [
        {
          "internalType": "bytes32",
          "name": "",
          "type": "bytes32"
        }
      ],
      "stateMutability": "view",
      "type": "function"
    },
    {
      "inputs": [],
      "name": "activeIds",
      "outputs": [
        {
          "internalType": "uint256[]",
          "name": "",
          "type": "uint256[]"
        }
      ],
      "stateMutability": "view",
      "type": "function"
    },
    {
      "inputs": [
        {
          "internalType": "address",
          "name": "account",
          "type": "address"
        },
        {
          "internalType": "uint256",
          "name": "id",
          "type": "uint256"
        }
      ],
      "name": "balanceOf",
      "outputs": [
        {
          "internalType": "uint256",
          "name": "",
          "type": "uint256"
        }
      ],
      "stateMutability": "view",
      "type": "function"
    },
    {
      "inputs": [],
      "name": "balanceOfAll",
      "outputs": [
        {
          "internalType": "address[]",
          "name": "owners",
          "type": "address[]"
        },
        {
          "internalType": "uint256[][]",
          "name": "tokenIds",
          "type": "uint256[][]"
        },
        {
          "internalType": "uint256[][]",
          "name": "balances",
          "type": "uint256[][]"
        }
      ],
      "stateMutability": "view",
      "type": "function"
    },
    {
      "inputs": [
        {
          "internalType": "address[]",
          "name": "accounts",
          "type": "address[]"
        },
        {
          "internalType": "uint256[]",
          "name": "ids",
          "type": "uint256[]"
        }
      ],
      "name": "balanceOfBatch",
      "outputs": [
        {
          "internalType": "uint256[]",
          "name": "",
          "type": "uint256[]"
        }
      ],
      "stateMutability": "view",
      "type": "function"
    },
    {
      "inputs": [
        {
          "internalType": "uint256",
          "name": "tokenId",
          "type": "uint256"
        },
        {
          "internalType": "uint256[]",
          "name": "attributeIds",
          "type": "uint256[]"
        }
      ],
      "name": "batchGetAttribute",
      "outputs": [
        {
          "internalType": "uint256[]",
          "name": "",
          "type": "uint256[]"
        }
      ],
      "stateMutability": "view",
      "type": "function"
    },
    {
      "inputs": [
        {
          "internalType": "uint256",
          "name": "tokenId",
          "type": "uint256"
        },
        {
          "internalType": "uint256[]",
          "name": "attributeIds",
          "type": "uint256[]"
        },
        {
          "internalType": "uint256[]",
          "name": "values",
          "type": "uint256[]"
        }
      ],
      "name": "batchSetAttribute",
      "outputs": [],
      "stateMutability": "nonpayable",
      "type": "function"
    },
    {
      "inputs": [
        {
          "internalType": "uint256",
          "name": "tokenId",
          "type": "uint256"
        },
        {
          "internalType": "uint256[]",
          "name": "attributeIds",
          "type": "uint256[]"
        },
        {
          "internalType": "string[]",
          "name": "names",
          "type": "string[]"
        }
      ],
      "name": "batchSetAttributeName",
      "outputs": [],
      "stateMutability": "nonpayable",
      "type": "function"
    },
    {
      "inputs": [
        {
          "internalType": "uint256[]",
          "name": "tokenIds",
          "type": "uint256[]"
        },
        {
          "internalType": "uint256[]",
          "name": "attributeIds",
          "type": "uint256[]"
        },
        {
          "internalType": "string[]",
          "name": "names",
          "type": "string[]"
        }
      ],
      "name": "batchSetAttributeNames",
      "outputs": [],
      "stateMutability": "nonpayable",
      "type": "function"
    },
    {
      "inputs": [
        {
          "internalType": "uint256[]",
          "name": "tokenIds",
          "type": "uint256[]"
        }
      ],
      "name": "batchTokenURI",
      "outputs": [
        {
          "internalType": "string[]",
          "name": "",
          "type": "string[]"
        }
      ],
      "stateMutability": "view",
      "type": "function"
    },
    {
      "inputs": [
        {
          "internalType": "uint256[]",
          "name": "tokenIds",
          "type": "uint256[]"
        }
      ],
      "name": "batchUri",
      "outputs": [
        {
          "internalType": "string[]",
          "name": "",
          "type": "string[]"
        }
      ],
      "stateMutability": "view",
      "type": "function"
    },
    {
      "inputs": [],
      "name": "bridgeContract",
      "outputs": [
        {
          "internalType": "address",
          "name": "",
          "type": "address"
        }
      ],
      "stateMutability": "view",
      "type": "function"
    },
    {
      "inputs": [
        {
          "internalType": "uint256",
          "name": "",
          "type": "uint256"
        },
        {
          "internalType": "uint256",
          "name": "",
          "type": "uint256"
        }
      ],
      "name": "bridgeExtraData",
      "outputs": [
        {
          "internalType": "bytes",
          "name": "",
          "type": "bytes"
        }
      ],
      "stateMutability": "pure",
      "type": "function"
    },
    {
      "inputs": [
        {
          "internalType": "address",
          "name": "account",
          "type": "address"
        },
        {
          "internalType": "uint256",
          "name": "id",
          "type": "uint256"
        },
        {
          "internalType": "uint256",
          "name": "amount",
          "type": "uint256"
        }
      ],
      "name": "burn",
      "outputs": [],
      "stateMutability": "nonpayable",
      "type": "function"
    },
    {
      "inputs": [
        {
          "internalType": "address",
          "name": "from",
          "type": "address"
        },
        {
          "internalType": "uint256[]",
          "name": "ids",
          "type": "uint256[]"
        },
        {
          "internalType": "uint256[]",
          "name": "amounts",
          "type": "uint256[]"
        }
      ],
      "name": "burnBatch",
      "outputs": [],
      "stateMutability": "nonpayable",
      "type": "function"
    },
    {
      "inputs": [
        {
          "internalType": "uint256",
          "name": "id",
          "type": "uint256"
        }
      ],
      "name": "exists",
      "outputs": [
        {
          "internalType": "bool",
          "name": "",
          "type": "bool"
        }
      ],
      "stateMutability": "view",
      "type": "function"
    },
    {
      "inputs": [
        {
          "internalType": "uint256",
          "name": "tokenId",
          "type": "uint256"
        },
        {
          "internalType": "uint256",
          "name": "attributeId",
          "type": "uint256"
        }
      ],
      "name": "getAttribute",
      "outputs": [
        {
          "internalType": "uint256",
          "name": "",
          "type": "uint256"
        }
      ],
      "stateMutability": "view",
      "type": "function"
    },
    {
      "inputs": [],
      "name": "getBlacklisted",
      "outputs": [
        {
          "internalType": "address[]",
          "name": "",
          "type": "address[]"
        }
      ],
      "stateMutability": "view",
      "type": "function"
    },
    {
      "inputs": [
        {
          "internalType": "bytes32",
          "name": "role",
          "type": "bytes32"
        }
      ],
      "name": "getRoleAdmin",
      "outputs": [
        {
          "internalType": "bytes32",
          "name": "",
          "type": "bytes32"
        }
      ],
      "stateMutability": "view",
      "type": "function"
    },
    {
      "inputs": [
        {
          "internalType": "bytes32",
          "name": "role",
          "type": "bytes32"
        },
        {
          "internalType": "uint256",
          "name": "index",
          "type": "uint256"
        }
      ],
      "name": "getRoleMember",
      "outputs": [
        {
          "internalType": "address",
          "name": "",
          "type": "address"
        }
      ],
      "stateMutability": "view",
      "type": "function"
    },
    {
      "inputs": [
        {
          "internalType": "bytes32",
          "name": "role",
          "type": "bytes32"
        }
      ],
      "name": "getRoleMemberCount",
      "outputs": [
        {
          "internalType": "uint256",
          "name": "",
          "type": "uint256"
        }
      ],
      "stateMutability": "view",
      "type": "function"
    },
    {
      "inputs": [
        {
          "internalType": "bytes32",
          "name": "role",
          "type": "bytes32"
        },
        {
          "internalType": "address",
          "name": "account",
          "type": "address"
        }
      ],
      "name": "grantRole",
      "outputs": [],
      "stateMutability": "nonpayable",
      "type": "function"
    },
    {
      "inputs": [
        {
          "internalType": "bytes32",
          "name": "role",
          "type": "bytes32"
        },
        {
          "internalType": "address",
          "name": "account",
          "type": "address"
        }
      ],
      "name": "hasRole",
      "outputs": [
        {
          "internalType": "bool",
          "name": "",
          "type": "bool"
        }
      ],
      "stateMutability": "view",
      "type": "function"
    },
    {
      "inputs": [],
      "name": "imageBaseURI",
      "outputs": [
        {
          "internalType": "string",
          "name": "",
          "type": "string"
        }
      ],
      "stateMutability": "view",
      "type": "function"
    },
    {
      "inputs": [],
      "name": "initialize",
      "outputs": [],
      "stateMutability": "nonpayable",
      "type": "function"
    },
    {
      "inputs": [
        {
          "internalType": "address",
          "name": "account",
          "type": "address"
        },
        {
          "internalType": "address",
          "name": "operator",
          "type": "address"
        }
      ],
      "name": "isApprovedForAll",
      "outputs": [
        {
          "internalType": "bool",
          "name": "",
          "type": "bool"
        }
      ],
      "stateMutability": "view",
      "type": "function"
    },
    {
      "inputs": [
        {
          "internalType": "address",
          "name": "user",
          "type": "address"
        }
      ],
      "name": "isBlacklisted",
      "outputs": [
        {
          "internalType": "bool",
          "name": "",
          "type": "bool"
        }
      ],
      "stateMutability": "view",
      "type": "function"
    },
    {
      "inputs": [
        {
          "internalType": "uint256",
          "name": "tokenId",
          "type": "uint256"
        }
      ],
      "name": "isSoulbound",
      "outputs": [
        {
          "internalType": "bool",
          "name": "",
          "type": "bool"
        }
      ],
      "stateMutability": "view",
      "type": "function"
    },
    {
      "inputs": [
        {
          "internalType": "address",
          "name": "account",
          "type": "address"
        },
        {
          "internalType": "uint256",
          "name": "id",
          "type": "uint256"
        },
        {
          "internalType": "uint256",
          "name": "amount",
          "type": "uint256"
        },
        {
          "internalType": "bytes",
          "name": "data",
          "type": "bytes"
        }
      ],
      "name": "mint",
      "outputs": [],
      "stateMutability": "nonpayable",
      "type": "function"
    },
    {
      "inputs": [
        {
          "internalType": "address",
          "name": "to",
          "type": "address"
        },
        {
          "internalType": "uint256[]",
          "name": "ids",
          "type": "uint256[]"
        },
        {
          "internalType": "uint256[]",
          "name": "amounts",
          "type": "uint256[]"
        },
        {
          "internalType": "bytes",
          "name": "data",
          "type": "bytes"
        }
      ],
      "name": "mintBatch",
      "outputs": [],
      "stateMutability": "nonpayable",
      "type": "function"
    },
    {
      "inputs": [
        {
          "internalType": "uint256",
          "name": "id",
          "type": "uint256"
        },
        {
          "internalType": "address[]",
          "name": "to",
          "type": "address[]"
        },
        {
          "internalType": "uint256[]",
          "name": "amounts",
          "type": "uint256[]"
        }
      ],
      "name": "mintBatchOf",
      "outputs": [],
      "stateMutability": "nonpayable",
      "type": "function"
    },
    {
      "inputs": [],
      "name": "name",
      "outputs": [
        {
          "internalType": "string",
          "name": "",
          "type": "string"
        }
      ],
      "stateMutability": "view",
      "type": "function"
    },
    {
      "inputs": [],
      "name": "pause",
      "outputs": [],
      "stateMutability": "nonpayable",
      "type": "function"
    },
    {
      "inputs": [],
      "name": "paused",
      "outputs": [
        {
          "internalType": "bool",
          "name": "",
          "type": "bool"
        }
      ],
      "stateMutability": "view",
      "type": "function"
    },
    {
      "inputs": [
        {
          "internalType": "bytes32",
          "name": "role",
          "type": "bytes32"
        },
        {
          "internalType": "address",
          "name": "account",
          "type": "address"
        }
      ],
      "name": "renounceRole",
      "outputs": [],
      "stateMutability": "nonpayable",
      "type": "function"
    },
    {
      "inputs": [
        {
          "internalType": "bytes32",
          "name": "role",
          "type": "bytes32"
        },
        {
          "internalType": "address",
          "name": "account",
          "type": "address"
        }
      ],
      "name": "revokeRole",
      "outputs": [],
      "stateMutability": "nonpayable",
      "type": "function"
    },
    {
      "inputs": [
        {
          "internalType": "address",
          "name": "from",
          "type": "address"
        },
        {
          "internalType": "address",
          "name": "to",
          "type": "address"
        },
        {
          "internalType": "uint256[]",
          "name": "ids",
          "type": "uint256[]"
        },
        {
          "internalType": "uint256[]",
          "name": "amounts",
          "type": "uint256[]"
        },
        {
          "internalType": "bytes",
          "name": "data",
          "type": "bytes"
        }
      ],
      "name": "safeBatchTransferFrom",
      "outputs": [],
      "stateMutability": "nonpayable",
      "type": "function"
    },
    {
      "inputs": [
        {
          "internalType": "address",
          "name": "from",
          "type": "address"
        },
        {
          "internalType": "address",
          "name": "to",
          "type": "address"
        },
        {
          "internalType": "uint256",
          "name": "id",
          "type": "uint256"
        },
        {
          "internalType": "uint256",
          "name": "amount",
          "type": "uint256"
        },
        {
          "internalType": "bytes",
          "name": "data",
          "type": "bytes"
        }
      ],
      "name": "safeTransferFrom",
      "outputs": [],
      "stateMutability": "nonpayable",
      "type": "function"
    },
    {
      "inputs": [
        {
          "internalType": "address",
          "name": "operator",
          "type": "address"
        },
        {
          "internalType": "bool",
          "name": "approved",
          "type": "bool"
        }
      ],
      "name": "setApprovalForAll",
      "outputs": [],
      "stateMutability": "nonpayable",
      "type": "function"
    },
    {
      "inputs": [
        {
          "internalType": "uint256",
          "name": "tokenId",
          "type": "uint256"
        },
        {
          "internalType": "uint256",
          "name": "attributeId",
          "type": "uint256"
        },
        {
          "internalType": "uint256",
          "name": "value",
          "type": "uint256"
        }
      ],
      "name": "setAttribute",
      "outputs": [],
      "stateMutability": "nonpayable",
      "type": "function"
    },
    {
      "inputs": [
        {
          "internalType": "uint256",
          "name": "tokenId",
          "type": "uint256"
        },
        {
          "internalType": "uint256",
          "name": "attributeId",
          "type": "uint256"
        },
        {
          "internalType": "string",
          "name": "name",
          "type": "string"
        }
      ],
      "name": "setAttributeName",
      "outputs": [],
      "stateMutability": "nonpayable",
      "type": "function"
    },
    {
      "inputs": [
        {
          "internalType": "address",
          "name": "_bridgeContract",
          "type": "address"
        }
      ],
      "name": "setBridgeContract",
      "outputs": [],
      "stateMutability": "nonpayable",
      "type": "function"
    },
    {
      "inputs": [
        {
          "internalType": "uint256",
          "name": "tokenId",
          "type": "uint256"
        }
      ],
      "name": "setSoulbound",
      "outputs": [],
      "stateMutability": "nonpayable",
      "type": "function"
    },
    {
      "inputs": [
        {
          "internalType": "bytes4",
          "name": "interfaceId",
          "type": "bytes4"
        }
      ],
      "name": "supportsInterface",
      "outputs": [
        {
          "internalType": "bool",
          "name": "",
          "type": "bool"
        }
      ],
      "stateMutability": "view",
      "type": "function"
    },
    {
      "inputs": [],
      "name": "symbol",
      "outputs": [
        {
          "internalType": "string",
          "name": "",
          "type": "string"
        }
      ],
      "stateMutability": "view",
      "type": "function"
    },
    {
      "inputs": [
        {
          "internalType": "address",
          "name": "owner",
          "type": "address"
        }
      ],
      "name": "tokensOf",
      "outputs": [
        {
          "internalType": "uint256[]",
          "name": "tokenIds",
          "type": "uint256[]"
        },
        {
          "internalType": "uint256[]",
          "name": "balances",
          "type": "uint256[]"
        }
      ],
      "stateMutability": "view",
      "type": "function"
    },
    {
      "inputs": [
        {
          "internalType": "uint256",
          "name": "id",
          "type": "uint256"
        }
      ],
      "name": "totalSupply",
      "outputs": [
        {
          "internalType": "uint256",
          "name": "",
          "type": "uint256"
        }
      ],
      "stateMutability": "view",
      "type": "function"
    },
    {
      "inputs": [],
      "name": "unpause",
      "outputs": [],
      "stateMutability": "nonpayable",
      "type": "function"
    },
    {
      "inputs": [
        {
          "internalType": "uint256",
          "name": "tokenId",
          "type": "uint256"
        }
      ],
      "name": "unsetSoulbound",
      "outputs": [],
      "stateMutability": "nonpayable",
      "type": "function"
    },
    {
      "inputs": [
        {
          "internalType": "uint256",
          "name": "tokenId",
          "type": "uint256"
        }
      ],
      "name": "uri",
      "outputs": [
        {
          "internalType": "string",
          "name": "",
          "type": "string"
        }
      ],
      "stateMutability": "view",
      "type": "function"
    }
  ],
  "bytecode": "0x60806040523480156200001157600080fd5b506200001c62000022565b620000e4565b600054610100900460ff16156200008f5760405162461bcd60e51b815260206004820152602760248201527f496e697469616c697a61626c653a20636f6e747261637420697320696e697469604482015266616c697a696e6760c81b606482015260840160405180910390fd5b60005460ff9081161015620000e2576000805460ff191660ff9081179091556040519081527f7f26b83ff96e1f2b6a682f133852f6798a09c465da95921460cefb38474024989060200160405180910390a15b565b6152db80620000f46000396000f3fe608060405234801561001057600080fd5b506004361061030b5760003560e01c80638456cb591161019d578063bd85b039116100e9578063d547741f116100a2578063f5298aca1161007c578063f5298aca146106f7578063fb95ac2d1461070a578063fd5eea4e1461072c578063fe575a871461073f57600080fd5b8063d547741f14610695578063e985e9c5146106a8578063f242432a146106e457600080fd5b8063bd85b03914610620578063c385ce2514610633578063ca15c87314610646578063cd59658314610659578063ce3675ad1461066d578063d179191a1461068257600080fd5b806396c45e2f11610156578063a217fddf11610130578063a217fddf146105ea578063a22cb465146105f2578063b0fe60d514610605578063b198ce461461061857600080fd5b806396c45e2f146105af578063994a95be146105c2578063a17d79ec146105d557600080fd5b80638456cb591461053b57806387be85d3146105435780639010d07c14610556578063911ec4701461058157806391d148541461059457806395d89b41146105a757600080fd5b80633f4ba83a1161025c5780636b20c454116102155780637685945e116101ef5780637685945e1461050557806377645839146105185780637d7a6d13146105205780638129fc1c1461053357600080fd5b80636b20c454146104bf5780636d94f13a146104d2578063731133e9146104f257600080fd5b80633f4ba83a146104445780634e1273f41461044c5780634f558e791461046c57806358870da11461047f5780635a3f2672146104925780635c975abb146104b357600080fd5b80631f7fdffa116102c9578063248a9ca3116102a3578063248a9ca3146103e85780632eb2c2d61461040b5780632f2ff15d1461041e57806336568abe1461043157600080fd5b80631f7fdffa146103ab578063208e509f146103be57806321e5548c146103d557600080fd5b8062fdd58e1461031057806301ffc9a71461033657806303fe46ab1461035957806306fdde031461036e5780630b26cf66146103835780630e89341c14610398575b600080fd5b61032361031e366004613af0565b610752565b6040519081526020015b60405180910390f35b610349610344366004613b30565b6107ed565b604051901515815260200161032d565b61032360008051602061528683398151915281565b610376610812565b60405161032d9190613b9d565b610396610391366004613bb0565b6108a1565b005b6103766103a6366004613bcb565b6108db565b6103966103b9366004613c28565b610abc565b6103c6610b7e565b60405161032d93929190613dcb565b6103966103e3366004613e0e565b610caf565b6103236103f6366004613bcb565b60009081526097602052604090206001015490565b610396610419366004613ff0565b610d75565b61039661042c366004614099565b610dc1565b61039661043f366004614099565b610deb565b610396610e69565b61045f61045a3660046140c5565b610e8a565b60405161032d919061418f565b61034961047a366004613bcb565b610fb3565b61039661048d3660046141a2565b610fc6565b6104a56104a0366004613bb0565b611043565b60405161032d9291906141f1565b6101295460ff16610349565b6103966104cd366004614216565b611108565b6104e56104e036600461427f565b61112a565b60405161032d91906142f8565b61039661050036600461430b565b611135565b61032361051336600461436b565b61115e565b61037661117e565b61039661052e36600461438d565b61118c565b610396611250565b610396611415565b6103966105513660046143c0565b611434565b61056961056436600461436b565b6114c9565b6040516001600160a01b03909116815260200161032d565b61034961058f366004613bcb565b6114e1565b6103496105a2366004614099565b611505565b610376611530565b6103966105bd366004613bcb565b61153e565b61045f6105d0366004614439565b61157b565b61032360008051602061524683398151915281565b610323600081565b610396610600366004614475565b61163e565b6104e561061336600461427f565b611649565b61045f611701565b61032361062e366004613bcb565b61179f565b610396610641366004613bcb565b6117b6565b610323610654366004613bcb565b6117f2565b6102ba54610569906001600160a01b031681565b610675611809565b60405161032d91906144b1565b6103966106903660046144c4565b61181b565b6103966106a3366004614099565b6118e9565b6103496106b63660046145af565b6001600160a01b03918216600090815260666020908152604080832093909416825291909152205460ff1690565b6103966106f23660046145d9565b61190e565b61039661070536600461463d565b611953565b61037661071836600461436b565b505060408051602081019091526000815290565b61039661073a366004614670565b61195e565b61034961074d366004613bb0565b6119c9565b60006001600160a01b0383166107c25760405162461bcd60e51b815260206004820152602a60248201527f455243313135353a2061646472657373207a65726f206973206e6f742061207660448201526930b634b21037bbb732b960b11b60648201526084015b60405180910390fd5b5060008181526065602090815260408083206001600160a01b03861684529091529020545b92915050565b600063b0f4708d60e01b6001600160e01b0319831614806107e757506107e7826119d7565b61028880546108209061469c565b80601f016020809104026020016040519081016040528092919081815260200182805461084c9061469c565b80156108995780601f1061086e57610100808354040283529160200191610899565b820191906000526020600020905b81548152906001019060200180831161087c57829003601f168201915b505050505081565b6108b86000805160206152668339815191526119fc565b6102ba80546001600160a01b0319166001600160a01b0392909216919091179055565b606060006108eb836103e8611a06565b905060006108fb846103e9611a06565b6040805160038082526080820190925291925060009190816020015b61093b60405180606001604052806060815260200160608152602001606081525090565b81526020019060019003908161091757905050905060405180606001604052806040518060400160405280600a815260200169283937b332b9b9b4b7b760b11b81525081526020016040518060200160405280600081525081526020016109a3876000611a06565b815250816000815181106109b9576109b96146d6565b6020026020010181905250604051806060016040528060405180604001604052806004815260200163151bdbdb60e21b8152508152602001604051806020016040528060008152508152602001610a11876001611a06565b81525081600181518110610a2757610a276146d6565b602002602001018190525060405180606001604052806040518060400160405280600381526020016214d95d60ea1b8152508152602001604051806020016040528060008152508152602001610a7e876002611a06565b81525081600281518110610a9457610a946146d6565b6020026020010181905250610ab3610aae86858585611ab5565b611b01565b95945050505050565b610ad36000805160206152268339815191526119fc565b610b758787878080602002602001604051908101604052809392919081815260200183836020028082843760009201919091525050604080516020808b0282810182019093528a82529093508a92508991829185019084908082843760009201919091525050604080516020601f8a018190048102820181019092528881529250889150879081908401838280828437600092019190915250611b3292505050565b50505050505050565b6060806060610b8e610190611c8d565b925082516001600160401b03811115610ba957610ba9613ea7565b604051908082528060200260200182016040528015610bdc57816020015b6060815260200190600190039081610bc75790505b50915082516001600160401b03811115610bf857610bf8613ea7565b604051908082528060200260200182016040528015610c2b57816020015b6060815260200190600190039081610c165790505b50905060005b8351811015610ca957610c5c848281518110610c4f57610c4f6146d6565b6020026020010151611043565b848381518110610c6e57610c6e6146d6565b60200260200101848481518110610c8757610c876146d6565b6020026020010182905282905250508080610ca190614702565b915050610c31565b50909192565b600080516020615286833981519152610cc7816119fc565b60005b86811015610d6b57838382818110610ce457610ce46146d6565b9050602002810190610cf6919061471b565b6101f560008b8b86818110610d0d57610d0d6146d6565b9050602002013581526020019081526020016000206000898986818110610d3657610d366146d6565b9050602002013581526020019081526020016000209182610d589291906147a7565b5080610d6381614702565b915050610cca565b5050505050505050565b6001600160a01b038516331480610d915750610d9185336106b6565b610dad5760405162461bcd60e51b81526004016107b990614866565b610dba8585858585611c9a565b5050505050565b600082815260976020526040902060010154610ddc816119fc565b610de68383611e3f565b505050565b6001600160a01b0381163314610e5b5760405162461bcd60e51b815260206004820152602f60248201527f416363657373436f6e74726f6c3a2063616e206f6e6c792072656e6f756e636560448201526e103937b632b9903337b91039b2b63360891b60648201526084016107b9565b610e658282611e61565b5050565b610e806000805160206152668339815191526119fc565b610e88611e83565b565b60608151835114610eef5760405162461bcd60e51b815260206004820152602960248201527f455243313135353a206163636f756e747320616e6420696473206c656e677468604482015268040dad2e6dac2e8c6d60bb1b60648201526084016107b9565b600083516001600160401b03811115610f0a57610f0a613ea7565b604051908082528060200260200182016040528015610f33578160200160208202803683370190505b50905060005b8451811015610fab57610f7e858281518110610f5757610f576146d6565b6020026020010151858381518110610f7157610f716146d6565b6020026020010151610752565b828281518110610f9057610f906146d6565b6020908102919091010152610fa481614702565b9050610f39565b509392505050565b600080610fbf8361179f565b1192915050565b600080516020615286833981519152610fde816119fc565b60008481526101f560209081526040808320868452909152902061100283826148b4565b50837ffdbb964a9a1d2ac903ed7ebf85795be6728c27e96237552b2805596c759e08818484604051611035929190614973565b60405180910390a250505050565b6001600160a01b038116600090815261019260205260409020606090819061106a90611c8d565b915081516001600160401b0381111561108557611085613ea7565b6040519080825280602002602001820160405280156110ae578160200160208202803683370190505b50905060005b8251811015611102576110d384848381518110610f7157610f716146d6565b8282815181106110e5576110e56146d6565b6020908102919091010152806110fa81614702565b9150506110b4565b50915091565b61111f6000805160206152668339815191526119fc565b610de6838383611ed6565b60606107e782611649565b61114c6000805160206152268339815191526119fc565b61115884848484612075565b50505050565b60008281526101f4602052604081206111779083612157565b9392505050565b61022580546108209061469c565b6000805160206152868339815191526111a4816119fc565b60005b835181101561121d5761120a8482815181106111c5576111c56146d6565b60200260200101518483815181106111df576111df6146d6565b60200260200101516101f460008981526020019081526020016000206121639092919063ffffffff16565b508061121581614702565b9150506111a7565b50837f383bcccfd5e9b61afe7e6832ca2201fe34d7766a9bbf90fb7152082ddbcd342b84846040516110359291906141f1565b600054610100900460ff16158080156112705750600054600160ff909116105b8061128a5750303b15801561128a575060005460ff166001145b6112ed5760405162461bcd60e51b815260206004820152602e60248201527f496e697469616c697a61626c653a20636f6e747261637420697320616c72656160448201526d191e481a5b9a5d1a585b1a5e995960921b60648201526084016107b9565b6000805460ff191660011790558015611310576000805461ff0019166101001790555b61132860405180602001604052806000815250612170565b6113306121a0565b611338612276565b6113406122a5565b6113486122a5565b6113506122a5565b6113586122cc565b6113796040518060600160405280602e81526020016151b8602e913961232b565b61138161235f565b6113cc6040518060400160405280600c81526020016b436f736d696320536b696e7360a01b81525060405180604001604052806005815260200164534b494e5360d81b8152506123a6565b8015611412576000805461ff0019169055604051600181527f7f26b83ff96e1f2b6a682f133852f6798a09c465da95921460cefb38474024989060200160405180910390a15b50565b61142c6000805160206152668339815191526119fc565b610e886123e8565b61144b6000805160206152268339815191526119fc565b60005b838110156114c1576114af85858381811061146b5761146b6146d6565b90506020020160208101906114809190613bb0565b87858585818110611493576114936146d6565b9050602002013560405180602001604052806000815250612075565b806114b981614702565b91505061144e565b505050505050565b600082815260c9602052604081206111779083612426565b600881901c60009081526102576020526040812054600160ff84161b1615156107e7565b60009182526097602090815260408084206001600160a01b0393909316845291905290205460ff1690565b61028980546108209061469c565b600080516020615266833981519152611556816119fc565b600882901c6000908152610257602052604090208054600160ff85161b191690555050565b6060600082516001600160401b0381111561159857611598613ea7565b6040519080825280602002602001820160405280156115c1578160200160208202803683370190505b50905060005b8351811015610fab5761160f8482815181106115e5576115e56146d6565b60200260200101516101f4600088815260200190815260200160002061215790919063ffffffff16565b828281518110611621576116216146d6565b60209081029190910101528061163681614702565b9150506115c7565b610e65338383612456565b6060600082516001600160401b0381111561166657611666613ea7565b60405190808252806020026020018201604052801561169957816020015b60608152602001906001900390816116845790505b50905060005b83518110156116fa576116ca8482815181106116bd576116bd6146d6565b60200260200101516108db565b8282815181106116dc576116dc6146d6565b602002602001018190525080806116f290614702565b91505061169f565b5092915050565b6060600061171061018d612536565b90506000816001600160401b0381111561172c5761172c613ea7565b604051908082528060200260200182016040528015611755578160200160208202803683370190505b50905060005b828110156116fa5761176f61018d82612541565b50828281518110611782576117826146d6565b60209081029190910101528061179781614702565b91505061175b565b6000806117ae61018d8461255f565b949350505050565b6000805160206152668339815191526117ce816119fc565b600882901c6000908152610257602052604090208054600160ff85161b1790555050565b600081815260c9602052604081206107e79061256e565b60606118166101c1611c8d565b905090565b600080516020615286833981519152611833816119fc565b60005b83518110156118b657828181518110611851576118516146d6565b60200260200101516101f560008781526020019081526020016000206000868481518110611881576118816146d6565b6020026020010151815260200190815260200160002090816118a391906148b4565b50806118ae81614702565b915050611836565b50837f9d69ed3cc764cf4f579cfc28312dded7bb202f17cc77aa4d0eb3f8bbaecd88e3848460405161103592919061498c565b600082815260976020526040902060010154611904816119fc565b610de68383611e61565b6001600160a01b03851633148061192a575061192a85336106b6565b6119465760405162461bcd60e51b81526004016107b990614866565b610dba8585858585612578565b610de68383836126b4565b600080516020615286833981519152611976816119fc565b60008481526101f460205260409020611990908484612163565b50604080518481526020810184905285917f5cb4c5f05283d5a84da3f9f1b0fe8b00d7ea8e1fb833812b52114799bdf1acc79101611035565b60006107e76101c1836126f7565b60006001600160e01b03198216635a05180f60e01b14806107e757506107e782612719565b611412813361273e565b60008281526101f5602090815260408083208484529091529020805460609190611a2f9061469c565b80601f0160208091040260200160405190810160405280929190818152602001828054611a5b9061469c565b8015611aa85780601f10611a7d57610100808354040283529160200191611aa8565b820191906000526020600020905b815481529060010190602001808311611a8b57829003601f168201915b5050505050905092915050565b60606000611ac4868686612797565b90506000611ad184612801565b90508181604051602001611ae69291906149cd565b60405160208183030381529060405292505050949350505050565b6060611b0c8261298c565b604051602001611b1c9190614a1a565b6040516020818303038152906040529050919050565b6001600160a01b038416611b585760405162461bcd60e51b81526004016107b990614a5f565b8151835114611b795760405162461bcd60e51b81526004016107b990614aa0565b33611b8981600087878787612ade565b60005b8451811015611c2557838181518110611ba757611ba76146d6565b602002602001015160656000878481518110611bc557611bc56146d6565b602002602001015181526020019081526020016000206000886001600160a01b03166001600160a01b031681526020019081526020016000206000828254611c0d9190614ae8565b90915550819050611c1d81614702565b915050611b8c565b50846001600160a01b031660006001600160a01b0316826001600160a01b03167f4a39dc06d4c0dbc64b70af90fd698a233a518aa5d07e595d983b8c0526c8f7fb8787604051611c769291906141f1565b60405180910390a4610dba81600087878787612be6565b6060600061117783612d41565b8151835114611cbb5760405162461bcd60e51b81526004016107b990614aa0565b6001600160a01b038416611ce15760405162461bcd60e51b81526004016107b990614afb565b33611cf0818787878787612ade565b60005b8451811015611dd9576000858281518110611d1057611d106146d6565b602002602001015190506000858381518110611d2e57611d2e6146d6565b60209081029190910181015160008481526065835260408082206001600160a01b038e168352909352919091205490915081811015611d7f5760405162461bcd60e51b81526004016107b990614b40565b60008381526065602090815260408083206001600160a01b038e8116855292528083208585039055908b16825281208054849290611dbe908490614ae8565b9250508190555050505080611dd290614702565b9050611cf3565b50846001600160a01b0316866001600160a01b0316826001600160a01b03167f4a39dc06d4c0dbc64b70af90fd698a233a518aa5d07e595d983b8c0526c8f7fb8787604051611e299291906141f1565b60405180910390a46114c1818787878787612be6565b611e498282612d9d565b600082815260c960205260409020610de69082612e23565b611e6b8282612e38565b600082815260c960205260409020610de69082612e9f565b611e8b612eb4565b610129805460ff191690557f5db9ee0a495bf2e6ff9c91a7834c1ba4fdd244a5e8aa4e537bd38aeae4b073aa335b6040516001600160a01b03909116815260200160405180910390a1565b6001600160a01b038316611efc5760405162461bcd60e51b81526004016107b990614b8a565b8051825114611f1d5760405162461bcd60e51b81526004016107b990614aa0565b6000339050611f4081856000868660405180602001604052806000815250612ade565b60005b8351811015612008576000848281518110611f6057611f606146d6565b602002602001015190506000848381518110611f7e57611f7e6146d6565b60209081029190910181015160008481526065835260408082206001600160a01b038c168352909352919091205490915081811015611fcf5760405162461bcd60e51b81526004016107b990614bcd565b60009283526065602090815260408085206001600160a01b038b168652909152909220910390558061200081614702565b915050611f43565b5060006001600160a01b0316846001600160a01b0316826001600160a01b03167f4a39dc06d4c0dbc64b70af90fd698a233a518aa5d07e595d983b8c0526c8f7fb86866040516120599291906141f1565b60405180910390a4604080516020810190915260009052611158565b6001600160a01b03841661209b5760405162461bcd60e51b81526004016107b990614a5f565b3360006120a785612efe565b905060006120b485612efe565b90506120c583600089858589612ade565b60008681526065602090815260408083206001600160a01b038b168452909152812080548792906120f7908490614ae8565b909155505060408051878152602081018790526001600160a01b03808a1692600092918716917fc3d58168c5ae7397731d063d5bbf3d657854427343f4c083240f7aacaa2d0f62910160405180910390a4610b7583600089898989612f49565b60006111778383613004565b60006117ae848484613074565b600054610100900460ff166121975760405162461bcd60e51b81526004016107b990614c11565b61141281613091565b600054610100900460ff166121c75760405162461bcd60e51b81526004016107b990614c11565b6121cf6122a5565b6121da600033611e3f565b6121f260008051602061526683398151915233611e3f565b61220a60008051602061528683398151915233611e3f565b61222260008051602061522683398151915233611e3f565b61224c7ff18b77e1ef402111bacb54bd5e03494cbdba92fbd1bd3bbcc1ce77e69b42ea6c33611e3f565b610e887f52ba824bfabc2bcfcdf7f0edbb486ebb05e1836c90e78047efeb949990f72e5f33611e3f565b600054610100900460ff1661229d5760405162461bcd60e51b81526004016107b990614c11565b610e886130c1565b600054610100900460ff16610e885760405162461bcd60e51b81526004016107b990614c11565b600054610100900460ff166122f35760405162461bcd60e51b81526004016107b990614c11565b6122fb6122a5565b61231360008051602061526683398151915233611e3f565b610e8860008051602061524683398151915233611e3f565b600054610100900460ff166123525760405162461bcd60e51b81526004016107b990614c11565b610225610e6582826148b4565b600054610100900460ff166123865760405162461bcd60e51b81526004016107b990614c11565b61238e6122a5565b610e8860008051602061528683398151915233611e3f565b600054610100900460ff166123cd5760405162461bcd60e51b81526004016107b990614c11565b6102886123da83826148b4565b50610289610de682826148b4565b6123f06130f5565b610129805460ff191660011790557f62e78cea01bee320cd4e420270b5ea74000d11b0c9f74754ebdbfc544b05a258611eb93390565b6000611177838361313c565b600881901c600090815260208390526040902054600160ff83161b16151592915050565b816001600160a01b0316836001600160a01b0316036124c95760405162461bcd60e51b815260206004820152602960248201527f455243313135353a2073657474696e6720617070726f76616c20737461747573604482015268103337b91039b2b63360b91b60648201526084016107b9565b6001600160a01b03838116600081815260666020908152604080832094871680845294825291829020805460ff191686151590811790915591519182527f17307eab39ab6107e8899845ad3d59bd9653f200f220920489ca2b5937696c31910160405180910390a3505050565b60006107e782613166565b60008080806125508686613171565b909450925050505b9250929050565b6000808080612550868661319c565b60006107e7825490565b6001600160a01b03841661259e5760405162461bcd60e51b81526004016107b990614afb565b3360006125aa85612efe565b905060006125b785612efe565b90506125c7838989858589612ade565b60008681526065602090815260408083206001600160a01b038c1684529091529020548581101561260a5760405162461bcd60e51b81526004016107b990614b40565b60008781526065602090815260408083206001600160a01b038d8116855292528083208985039055908a16825281208054889290612649908490614ae8565b909155505060408051888152602081018890526001600160a01b03808b16928c821692918816917fc3d58168c5ae7397731d063d5bbf3d657854427343f4c083240f7aacaa2d0f62910160405180910390a46126a9848a8a8a8a8a612f49565b505050505050505050565b6001600160a01b0383163314806126d057506126d083336106b6565b6126ec5760405162461bcd60e51b81526004016107b990614866565b610de68383836131d6565b6001600160a01b03811660009081526001830160205260408120541515611177565b60006001600160e01b03198216637965db0b60e01b14806107e757506107e7826132f2565b6127488282611505565b610e655761275581613342565b612760836020613354565b604051602001612771929190614c5c565b60408051601f198184030181529082905262461bcd60e51b82526107b991600401613b9d565b606060006102256127a7866134ef565b6040516020016127b8929190614cd1565b6040516020818303038152906040529050836127d3866134ef565b84836040516020016127e89493929190614d58565b6040516020818303038152906040529150509392505050565b60408051602081019091526000808252606091905b83518110156129635760006001855161282f9190614e50565b821461285457604051806040016040528060018152602001600b60fa1b815250612865565b604051806020016040528060008152505b9050600085838151811061287b5761287b6146d6565b602002602001015160200151516000146128d1578583815181106128a1576128a16146d6565b6020026020010151602001516040516020016128bd9190614e63565b6040516020818303038152906040526128e2565b604051806020016040528060008152505b90506000848785815181106128f9576128f96146d6565b60200260200101516000015183898781518110612918576129186146d6565b60200260200101516040015186604051602001612939959493929190614ea8565b6040516020818303038152906040529050809450505050808061295b90614702565b915050612816565b50806040516020016129759190614f65565b604051602081830303815290604052915050919050565b606081516000036129ab57505060408051602081019091526000815290565b60006040518060600160405280604081526020016151e660409139905060006003845160026129da9190614ae8565b6129e49190614fa7565b6129ef906004614fc9565b6001600160401b03811115612a0657612a06613ea7565b6040519080825280601f01601f191660200182016040528015612a30576020820181803683370190505b509050600182016020820185865187015b80821015612a9c576003820191508151603f8160121c168501518453600184019350603f81600c1c168501518453600184019350603f8160061c168501518453600184019350603f8116850151845350600183019250612a41565b5050600386510660018114612ab85760028114612acb57612ad3565b603d6001830353603d6002830353612ad3565b603d60018303535b509195945050505050565b612ae66130f5565b82858560005b8351811015612bd757612b23848281518110612b0a57612b0a6146d6565b602002602001015161025761243290919063ffffffff16565b1580612b3657506001600160a01b038316155b80612b4857506001600160a01b038216155b80612b665750612b6660008051602061524683398151915284611505565b80612b845750612b8460008051602061524683398151915283611505565b612bc55760405162461bcd60e51b8152602060048201526012602482015271151bdad95b881a5cc81cdbdd5b189bdd5b9960721b60448201526064016107b9565b80612bcf81614702565b915050612aec565b506126a9898989898989613581565b6001600160a01b0384163b156114c15760405163bc197c8160e01b81526001600160a01b0385169063bc197c8190612c2a9089908990889088908890600401614fe8565b6020604051808303816000875af1925050508015612c65575060408051601f3d908101601f19168201909252612c6291810190615046565b60015b612d1157612c71615063565b806308c379a003612caa5750612c8561507f565b80612c905750612cac565b8060405162461bcd60e51b81526004016107b99190613b9d565b505b60405162461bcd60e51b815260206004820152603460248201527f455243313135353a207472616e7366657220746f206e6f6e2d455243313135356044820152732932b1b2b4bb32b91034b6b83632b6b2b73a32b960611b60648201526084016107b9565b6001600160e01b0319811663bc197c8160e01b14610b755760405162461bcd60e51b81526004016107b990615108565b606081600001805480602002602001604051908101604052809291908181526020018280548015612d9157602002820191906000526020600020905b815481526020019060010190808311612d7d575b50505050509050919050565b612da78282611505565b610e655760008281526097602090815260408083206001600160a01b03851684529091529020805460ff19166001179055612ddf3390565b6001600160a01b0316816001600160a01b0316837f2f8788117e7eff1d82e926ec794901d17c78024a50270940304540a733656f0d60405160405180910390a45050565b6000611177836001600160a01b0384166137b7565b612e428282611505565b15610e655760008281526097602090815260408083206001600160a01b0385168085529252808320805460ff1916905551339285917ff6391f5c32d9c69d2a47ea670b442974b53935d1edc7fd64eb21e047a839171b9190a45050565b6000611177836001600160a01b038416613806565b6101295460ff16610e885760405162461bcd60e51b815260206004820152601460248201527314185d5cd8589b194e881b9bdd081c185d5cd95960621b60448201526064016107b9565b60408051600180825281830190925260609160009190602080830190803683370190505090508281600081518110612f3857612f386146d6565b602090810291909101015292915050565b6001600160a01b0384163b156114c15760405163f23a6e6160e01b81526001600160a01b0385169063f23a6e6190612f8d9089908990889088908890600401615150565b6020604051808303816000875af1925050508015612fc8575060408051601f3d908101601f19168201909252612fc591810190615046565b60015b612fd457612c71615063565b6001600160e01b0319811663f23a6e6160e01b14610b755760405162461bcd60e51b81526004016107b990615108565b600081815260028301602052604081205480151580613028575061302884846138f9565b6111775760405162461bcd60e51b815260206004820152601e60248201527f456e756d657261626c654d61703a206e6f6e6578697374656e74206b6579000060448201526064016107b9565b600082815260028401602052604081208290556117ae8484613905565b600054610100900460ff166130b85760405162461bcd60e51b81526004016107b990614c11565b61141281613911565b600054610100900460ff166130e85760405162461bcd60e51b81526004016107b990614c11565b610129805460ff19169055565b6101295460ff1615610e885760405162461bcd60e51b815260206004820152601060248201526f14185d5cd8589b194e881c185d5cd95960821b60448201526064016107b9565b6000826000018281548110613153576131536146d6565b9060005260206000200154905092915050565b60006107e78261256e565b6000808061317f8585612426565b600081815260029690960160205260409095205494959350505050565b60008181526002830160205260408120548190806131cb576131be85856138f9565b9250600091506125589050565b600192509050612558565b6001600160a01b0383166131fc5760405162461bcd60e51b81526004016107b990614b8a565b33600061320884612efe565b9050600061321584612efe565b905061323583876000858560405180602001604052806000815250612ade565b60008581526065602090815260408083206001600160a01b038a168452909152902054848110156132785760405162461bcd60e51b81526004016107b990614bcd565b60008681526065602090815260408083206001600160a01b038b81168086529184528285208a8703905582518b81529384018a90529092908816917fc3d58168c5ae7397731d063d5bbf3d657854427343f4c083240f7aacaa2d0f62910160405180910390a4604080516020810190915260009052610b75565b60006001600160e01b03198216636cdb3d1360e11b148061332357506001600160e01b031982166303a24d0760e21b145b806107e757506301ffc9a760e01b6001600160e01b03198316146107e7565b60606107e76001600160a01b03831660145b60606000613363836002614fc9565b61336e906002614ae8565b6001600160401b0381111561338557613385613ea7565b6040519080825280601f01601f1916602001820160405280156133af576020820181803683370190505b509050600360fc1b816000815181106133ca576133ca6146d6565b60200101906001600160f81b031916908160001a905350600f60fb1b816001815181106133f9576133f96146d6565b60200101906001600160f81b031916908160001a905350600061341d846002614fc9565b613428906001614ae8565b90505b60018111156134a0576f181899199a1a9b1b9c1cb0b131b232b360811b85600f166010811061345c5761345c6146d6565b1a60f81b828281518110613472576134726146d6565b60200101906001600160f81b031916908160001a90535060049490941c936134998161518a565b905061342b565b5083156111775760405162461bcd60e51b815260206004820181905260248201527f537472696e67733a20686578206c656e67746820696e73756666696369656e7460448201526064016107b9565b606060006134fc8361391d565b60010190506000816001600160401b0381111561351b5761351b613ea7565b6040519080825280601f01601f191660200182016040528015613545576020820181803683370190505b5090508181016020015b600019016f181899199a1a9b1b9c1cb0b131b232b360811b600a86061a8153600a850494508461354f57509392505050565b6001600160a01b0385166136325760005b83518110156136305760006135cb8583815181106135b2576135b26146d6565b602002602001015161018d61255f90919063ffffffff16565b90508091505061361d8583815181106135e6576135e66146d6565b6020026020010151858481518110613600576136006146d6565b6020026020010151836136139190614ae8565b61018d9190612163565b50508061362990614702565b9050613592565b505b6001600160a01b0384166137285760005b8351811015613726576000848281518110613660576136606146d6565b60200260200101519050600084838151811061367e5761367e6146d6565b60200260200101519050600061369f8361018d61215790919063ffffffff16565b9050818110156137025760405162461bcd60e51b815260206004820152602860248201527f455243313135353a206275726e20616d6f756e74206578636565647320746f74604482015267616c537570706c7960c01b60648201526084016107b9565b61371161018d84848403612163565b505050508061371f90614702565b9050613643565b505b60005b83518110156137a4576137718685838151811061374a5761374a6146d6565b6020026020010151858481518110613764576137646146d6565b60200260200101516139f5565b61379485858381518110613787576137876146d6565b6020026020010151613a4a565b61379d81614702565b905061372b565b506137ae85613a8c565b6114c184613a8c565b60008181526001830160205260408120546137fe575081546001818101845560008481526020808220909301849055845484825282860190935260409020919091556107e7565b5060006107e7565b600081815260018301602052604081205480156138ef57600061382a600183614e50565b855490915060009061383e90600190614e50565b90508181146138a357600086600001828154811061385e5761385e6146d6565b9060005260206000200154905080876000018481548110613881576138816146d6565b6000918252602080832090910192909255918252600188019052604090208390555b85548690806138b4576138b46151a1565b6001900381819060005260206000200160009055905585600101600086815260200190815260200160002060009055600193505050506107e7565b60009150506107e7565b60006111778383613ab0565b600061117783836137b7565b6067610e6582826148b4565b60008072184f03e93ff9f4daa797ed6e38ed64bf6a1f0160401b831061395c5772184f03e93ff9f4daa797ed6e38ed64bf6a1f0160401b830492506040015b6d04ee2d6d415b85acef81000000008310613988576d04ee2d6d415b85acef8100000000830492506020015b662386f26fc1000083106139a657662386f26fc10000830492506010015b6305f5e10083106139be576305f5e100830492506008015b61271083106139d257612710830492506004015b606483106139e4576064830492506002015b600a83106107e75760010192915050565b6001600160a01b038316613a0857505050565b6000613a148484610752565b9050613a208282614e50565b600003611158576001600160a01b038416600090815261019260205260409020610dba9084613ac8565b6001600160a01b038216613a5c575050565b6001600160a01b038216600090815261019260205260409020613a7f9082613905565b50610de661019083612e23565b6060613a9782611043565b508051909150600003610e6557610de661019083612e9f565b60008181526001830160205260408120541515611177565b60006111778383613806565b80356001600160a01b0381168114613aeb57600080fd5b919050565b60008060408385031215613b0357600080fd5b613b0c83613ad4565b946020939093013593505050565b6001600160e01b03198116811461141257600080fd5b600060208284031215613b4257600080fd5b813561117781613b1a565b60005b83811015613b68578181015183820152602001613b50565b50506000910152565b60008151808452613b89816020860160208601613b4d565b601f01601f19169290920160200192915050565b6020815260006111776020830184613b71565b600060208284031215613bc257600080fd5b61117782613ad4565b600060208284031215613bdd57600080fd5b5035919050565b60008083601f840112613bf657600080fd5b5081356001600160401b03811115613c0d57600080fd5b6020830191508360208260051b850101111561255857600080fd5b60008060008060008060006080888a031215613c4357600080fd5b613c4c88613ad4565b965060208801356001600160401b0380821115613c6857600080fd5b613c748b838c01613be4565b909850965060408a0135915080821115613c8d57600080fd5b613c998b838c01613be4565b909650945060608a0135915080821115613cb257600080fd5b818a0191508a601f830112613cc657600080fd5b813581811115613cd557600080fd5b8b6020828501011115613ce757600080fd5b60208301945080935050505092959891949750929550565b600081518084526020808501945080840160005b83811015613d385781516001600160a01b031687529582019590820190600101613d13565b509495945050505050565b600081518084526020808501945080840160005b83811015613d3857815187529582019590820190600101613d57565b600082825180855260208086019550808260051b84010181860160005b84811015613dbe57601f19868403018952613dac838351613d43565b98840198925090830190600101613d90565b5090979650505050505050565b606081526000613dde6060830186613cff565b8281036020840152613df08186613d73565b90508281036040840152613e048185613d73565b9695505050505050565b60008060008060008060608789031215613e2757600080fd5b86356001600160401b0380821115613e3e57600080fd5b613e4a8a838b01613be4565b90985096506020890135915080821115613e6357600080fd5b613e6f8a838b01613be4565b90965094506040890135915080821115613e8857600080fd5b50613e9589828a01613be4565b979a9699509497509295939492505050565b634e487b7160e01b600052604160045260246000fd5b601f8201601f191681016001600160401b0381118282101715613ee257613ee2613ea7565b6040525050565b60006001600160401b03821115613f0257613f02613ea7565b5060051b60200190565b600082601f830112613f1d57600080fd5b81356020613f2a82613ee9565b604051613f378282613ebd565b83815260059390931b8501820192828101915086841115613f5757600080fd5b8286015b84811015613f725780358352918301918301613f5b565b509695505050505050565b600082601f830112613f8e57600080fd5b81356001600160401b03811115613fa757613fa7613ea7565b604051613fbe601f8301601f191660200182613ebd565b818152846020838601011115613fd357600080fd5b816020850160208301376000918101602001919091529392505050565b600080600080600060a0868803121561400857600080fd5b61401186613ad4565b945061401f60208701613ad4565b935060408601356001600160401b038082111561403b57600080fd5b61404789838a01613f0c565b9450606088013591508082111561405d57600080fd5b61406989838a01613f0c565b9350608088013591508082111561407f57600080fd5b5061408c88828901613f7d565b9150509295509295909350565b600080604083850312156140ac57600080fd5b823591506140bc60208401613ad4565b90509250929050565b600080604083850312156140d857600080fd5b82356001600160401b03808211156140ef57600080fd5b818501915085601f83011261410357600080fd5b8135602061411082613ee9565b60405161411d8282613ebd565b83815260059390931b850182019282810191508984111561413d57600080fd5b948201945b838610156141625761415386613ad4565b82529482019490820190614142565b9650508601359250508082111561417857600080fd5b5061418585828601613f0c565b9150509250929050565b6020815260006111776020830184613d43565b6000806000606084860312156141b757600080fd5b833592506020840135915060408401356001600160401b038111156141db57600080fd5b6141e786828701613f7d565b9150509250925092565b6040815260006142046040830185613d43565b8281036020840152610ab38185613d43565b60008060006060848603121561422b57600080fd5b61423484613ad4565b925060208401356001600160401b038082111561425057600080fd5b61425c87838801613f0c565b9350604086013591508082111561427257600080fd5b506141e786828701613f0c565b60006020828403121561429157600080fd5b81356001600160401b038111156142a757600080fd5b6117ae84828501613f0c565b6000815180845260208085019450848260051b860182860160005b85811015613dbe5783830389526142e6838351613b71565b988501989250908401906001016142ce565b60208152600061117760208301846142b3565b6000806000806080858703121561432157600080fd5b61432a85613ad4565b9350602085013592506040850135915060608501356001600160401b0381111561435357600080fd5b61435f87828801613f7d565b91505092959194509250565b6000806040838503121561437e57600080fd5b50508035926020909101359150565b6000806000606084860312156143a257600080fd5b8335925060208401356001600160401b038082111561425057600080fd5b6000806000806000606086880312156143d857600080fd5b8535945060208601356001600160401b03808211156143f657600080fd5b61440289838a01613be4565b9096509450604088013591508082111561441b57600080fd5b5061442888828901613be4565b969995985093965092949392505050565b6000806040838503121561444c57600080fd5b8235915060208301356001600160401b0381111561446957600080fd5b61418585828601613f0c565b6000806040838503121561448857600080fd5b61449183613ad4565b9150602083013580151581146144a657600080fd5b809150509250929050565b6020815260006111776020830184613cff565b6000806000606084860312156144d957600080fd5b833592506020808501356001600160401b03808211156144f857600080fd5b61450488838901613f0c565b9450604087013591508082111561451a57600080fd5b818701915087601f83011261452e57600080fd5b813561453981613ee9565b6040516145468282613ebd565b82815260059290921b840185019185810191508a83111561456657600080fd5b8585015b8381101561459e578035858111156145825760008081fd5b6145908d89838a0101613f7d565b84525091860191860161456a565b508096505050505050509250925092565b600080604083850312156145c257600080fd5b6145cb83613ad4565b91506140bc60208401613ad4565b600080600080600060a086880312156145f157600080fd5b6145fa86613ad4565b945061460860208701613ad4565b9350604086013592506060860135915060808601356001600160401b0381111561463157600080fd5b61408c88828901613f7d565b60008060006060848603121561465257600080fd5b61465b84613ad4565b95602085013595506040909401359392505050565b60008060006060848603121561468557600080fd5b505081359360208301359350604090920135919050565b600181811c908216806146b057607f821691505b6020821081036146d057634e487b7160e01b600052602260045260246000fd5b50919050565b634e487b7160e01b600052603260045260246000fd5b634e487b7160e01b600052601160045260246000fd5b600060018201614714576147146146ec565b5060010190565b6000808335601e1984360301811261473257600080fd5b8301803591506001600160401b0382111561474c57600080fd5b60200191503681900382131561255857600080fd5b601f821115610de657600081815260208120601f850160051c810160208610156147885750805b601f850160051c820191505b818110156114c157828155600101614794565b6001600160401b038311156147be576147be613ea7565b6147d2836147cc835461469c565b83614761565b6000601f84116001811461480657600085156147ee5750838201355b600019600387901b1c1916600186901b178355610dba565b600083815260209020601f19861690835b828110156148375786850135825560209485019460019092019101614817565b50868210156148545760001960f88860031b161c19848701351681555b505060018560011b0183555050505050565b6020808252602e908201527f455243313135353a2063616c6c6572206973206e6f7420746f6b656e206f776e60408201526d195c881bdc88185c1c1c9bdd995960921b606082015260800190565b81516001600160401b038111156148cd576148cd613ea7565b6148e1816148db845461469c565b84614761565b602080601f83116001811461491657600084156148fe5750858301515b600019600386901b1c1916600185901b1785556114c1565b600085815260208120601f198616915b8281101561494557888601518255948401946001909101908401614926565b50858210156149635787850151600019600388901b60f8161c191681555b5050505050600190811b01905550565b8281526040602082015260006117ae6040830184613b71565b60408152600061499f6040830185613d43565b8281036020840152610ab381856142b3565b600081516149c3818560208601613b4d565b9290920192915050565b607b60f81b8152600083516149e9816001850160208801613b4d565b835190830190614a00816001840160208801613b4d565b607d60f81b60019290910191820152600201949350505050565b7f646174613a6170706c69636174696f6e2f6a736f6e3b6261736536342c000000815260008251614a5281601d850160208701613b4d565b91909101601d0192915050565b60208082526021908201527f455243313135353a206d696e7420746f20746865207a65726f206164647265736040820152607360f81b606082015260800190565b60208082526028908201527f455243313135353a2069647320616e6420616d6f756e7473206c656e677468206040820152670dad2e6dac2e8c6d60c31b606082015260800190565b808201808211156107e7576107e76146ec565b60208082526025908201527f455243313135353a207472616e7366657220746f20746865207a65726f206164604082015264647265737360d81b606082015260800190565b6020808252602a908201527f455243313135353a20696e73756666696369656e742062616c616e636520666f60408201526939103a3930b739b332b960b11b606082015260800190565b60208082526023908201527f455243313135353a206275726e2066726f6d20746865207a65726f206164647260408201526265737360e81b606082015260800190565b60208082526024908201527f455243313135353a206275726e20616d6f756e7420657863656564732062616c604082015263616e636560e01b606082015260800190565b6020808252602b908201527f496e697469616c697a61626c653a20636f6e7472616374206973206e6f74206960408201526a6e697469616c697a696e6760a81b606082015260800190565b7f416363657373436f6e74726f6c3a206163636f756e7420000000000000000000815260008351614c94816017850160208801613b4d565b7001034b99036b4b9b9b4b733903937b6329607d1b6017918401918201528351614cc5816028840160208801613b4d565b01602801949350505050565b6000808454614cdf8161469c565b60018281168015614cf75760018114614d0c57614d3b565b60ff1984168752821515830287019450614d3b565b8860005260208060002060005b85811015614d325781548a820152908401908201614d19565b50505082870194505b505050508351614d4f818360208801613b4d565b01949350505050565b67113730b6b2911d1160c11b81528451600090614d7c816008850160208a01613b4d565b61088b60f21b600891840191820181905269113a37b5b2b724b2111d60b11b600a8301528651614db3816014850160208b01613b4d565b600b60fa1b601493909101928301526e113232b9b1b934b83a34b7b7111d1160891b60158301528551614ded816024850160208a01613b4d565b6024920191820152681134b6b0b3b2911d1160b91b6026820152614e45614e28614e1a602f8401876149b1565b61088b60f21b815260020190565b70089d1e5c19488e88915490cc4c4d4d488b607a1b815260110190565b979650505050505050565b818103818111156107e7576107e76146ec565b6f113234b9b83630bcafba3cb832911d1160811b81528151600090614e8f816010850160208701613b4d565b61088b60f21b6010939091019283015250601201919050565b60008651614eba818460208b01613b4d565b6e3d913a3930b4ba2fba3cb832911d1160891b9083019081528651614ee681600f840160208b01613b4d565b61088b60f21b600f92909101918201528551614f09816011840160208a01613b4d565b68113b30b63ab2911d1160b91b601192909101918201528451614f3381601a840160208901613b4d565b61227d60f01b601a92909101918201528351614f5681601c840160208801613b4d565b01601c01979650505050505050565b6d2261747472696275746573223a5b60901b81528151600090614f8f81600e850160208701613b4d565b605d60f81b600e939091019283015250600f01919050565b600082614fc457634e487b7160e01b600052601260045260246000fd5b500490565b6000816000190483118215151615614fe357614fe36146ec565b500290565b6001600160a01b0386811682528516602082015260a06040820181905260009061501490830186613d43565b82810360608401526150268186613d43565b9050828103608084015261503a8185613b71565b98975050505050505050565b60006020828403121561505857600080fd5b815161117781613b1a565b600060033d111561507c5760046000803e5060005160e01c5b90565b600060443d101561508d5790565b6040516003193d81016004833e81513d6001600160401b0381602484011181841117156150bc57505050505090565b82850191508151818111156150d45750505050505090565b843d87010160208285010111156150ee5750505050505090565b6150fd60208286010187613ebd565b509095945050505050565b60208082526028908201527f455243313135353a204552433131353552656365697665722072656a656374656040820152676420746f6b656e7360c01b606082015260800190565b6001600160a01b03868116825285166020820152604081018490526060810183905260a060808201819052600090614e4590830184613b71565b600081615199576151996146ec565b506000190190565b634e487b7160e01b600052603160045260246000fdfe68747470733a2f2f696d616765732e636f736d6963756e6976657273652e696f2f636f736d69632d736b696e732f4142434445464748494a4b4c4d4e4f505152535455565758595a6162636465666768696a6b6c6d6e6f707172737475767778797a303132333435363738392b2f9f2df0fed2c77648de5860a4cc508cd0818c85b8b8a1ab4ceeef8d981c8956a6f01ee2eb8c5679535f9dfef3543570e280865ec756856c5772fe3e6718c5c074a49807205ce4d355092ef5a8a18f56e8913cf4a201fbe287825b095693c21775364d3d7565c7a8300c96fd53e065d19b65848d7b23b3191adcd55621c744223ca264697066735822122006bc81429aad5816743e088972c97787e18ac2563cfebf870715fc2adf15ceb864736f6c63430008100033",
  "linkReferences": {},
  "deployedLinkReferences": {}
}