{
  "_format": "hh-sol-artifact-1",
  "contractName": "CosmicElvesTicket",
  "sourceName": "contracts/upgradeable/ERC721/CosmicElvesTicket.sol",
  "abi": [
    {
      "inputs": [],
      "stateMutability": "nonpayable",
      "type": "constructor"
    },
    {
      "inputs": [
        {
          "internalType": "address",
          "name": "have",
          "type": "address"
        },
        {
          "internalType": "address",
          "name": "want",
          "type": "address"
        }
      ],
      "name": "OnlyCoordinatorCanFulfill",
      "type": "error"
    },
    {
      "anonymous": false,
      "inputs": [
        {
          "indexed": true,
          "internalType": "address",
          "name": "owner",
          "type": "address"
        },
        {
          "indexed": true,
          "internalType": "address",
          "name": "approved",
          "type": "address"
        },
        {
          "indexed": true,
          "internalType": "uint256",
          "name": "tokenId",
          "type": "uint256"
        }
      ],
      "name": "Approval",
      "type": "event"
    },
    {
      "anonymous": false,
      "inputs": [
        {
          "indexed": true,
          "internalType": "address",
          "name": "owner",
          "type": "address"
        },
        {
          "indexed": true,
          "internalType": "address",
          "name": "operator",
          "type": "address"
        },
        {
          "indexed": false,
          "internalType": "bool",
          "name": "approved",
          "type": "bool"
        }
      ],
      "name": "ApprovalForAll",
      "type": "event"
    },
    {
      "anonymous": false,
      "inputs": [
        {
          "indexed": false,
          "internalType": "uint8",
          "name": "version",
          "type": "uint8"
        }
      ],
      "name": "Initialized",
      "type": "event"
    },
    {
      "anonymous": false,
      "inputs": [
        {
          "indexed": false,
          "internalType": "address",
          "name": "account",
          "type": "address"
        }
      ],
      "name": "Paused",
      "type": "event"
    },
    {
      "anonymous": false,
      "inputs": [
        {
          "indexed": true,
          "internalType": "bytes32",
          "name": "role",
          "type": "bytes32"
        },
        {
          "indexed": true,
          "internalType": "bytes32",
          "name": "previousAdminRole",
          "type": "bytes32"
        },
        {
          "indexed": true,
          "internalType": "bytes32",
          "name": "newAdminRole",
          "type": "bytes32"
        }
      ],
      "name": "RoleAdminChanged",
      "type": "event"
    },
    {
      "anonymous": false,
      "inputs": [
        {
          "indexed": true,
          "internalType": "bytes32",
          "name": "role",
          "type": "bytes32"
        },
        {
          "indexed": true,
          "internalType": "address",
          "name": "account",
          "type": "address"
        },
        {
          "indexed": true,
          "internalType": "address",
          "name": "sender",
          "type": "address"
        }
      ],
      "name": "RoleGranted",
      "type": "event"
    },
    {
      "anonymous": false,
      "inputs": [
        {
          "indexed": true,
          "internalType": "bytes32",
          "name": "role",
          "type": "bytes32"
        },
        {
          "indexed": true,
          "internalType": "address",
          "name": "account",
          "type": "address"
        },
        {
          "indexed": true,
          "internalType": "address",
          "name": "sender",
          "type": "address"
        }
      ],
      "name": "RoleRevoked",
      "type": "event"
    },
    {
      "anonymous": false,
      "inputs": [
        {
          "indexed": true,
          "internalType": "address",
          "name": "from",
          "type": "address"
        },
        {
          "indexed": true,
          "internalType": "address",
          "name": "to",
          "type": "address"
        },
        {
          "indexed": true,
          "internalType": "uint256",
          "name": "tokenId",
          "type": "uint256"
        }
      ],
      "name": "Transfer",
      "type": "event"
    },
    {
      "anonymous": false,
      "inputs": [
        {
          "indexed": false,
          "internalType": "address",
          "name": "account",
          "type": "address"
        }
      ],
      "name": "Unpaused",
      "type": "event"
    },
    {
      "inputs": [],
      "name": "ADMIN_ROLE",
      "outputs": [
        {
          "internalType": "bytes32",
          "name": "",
          "type": "bytes32"
        }
      ],
      "stateMutability": "view",
      "type": "function"
    },
    {
      "inputs": [],
      "name": "DEFAULT_ADMIN_ROLE",
      "outputs": [
        {
          "internalType": "bytes32",
          "name": "",
          "type": "bytes32"
        }
      ],
      "stateMutability": "view",
      "type": "function"
    },
    {
      "inputs": [],
      "name": "MINTER_ROLE",
      "outputs": [
        {
          "internalType": "bytes32",
          "name": "",
          "type": "bytes32"
        }
      ],
      "stateMutability": "view",
      "type": "function"
    },
    {
      "inputs": [
        {
          "internalType": "address",
          "name": "_address",
          "type": "address"
        }
      ],
      "name": "addBlacklist",
      "outputs": [],
      "stateMutability": "nonpayable",
      "type": "function"
    },
    {
      "inputs": [
        {
          "internalType": "address",
          "name": "_address",
          "type": "address"
        }
      ],
      "name": "adminCheckPendingMintDataOf",
      "outputs": [
        {
          "components": [
            {
              "internalType": "uint256[]",
              "name": "ids",
              "type": "uint256[]"
            },
            {
              "internalType": "uint256",
              "name": "requestId",
              "type": "uint256"
            },
            {
              "internalType": "uint256[]",
              "name": "words",
              "type": "uint256[]"
            }
          ],
          "internalType": "struct CosmicElvesTicket.PendingMint",
          "name": "",
          "type": "tuple"
        }
      ],
      "stateMutability": "view",
      "type": "function"
    },
    {
      "inputs": [
        {
          "internalType": "address",
          "name": "_address",
          "type": "address"
        }
      ],
      "name": "adminGetNewRandomnessFor",
      "outputs": [],
      "stateMutability": "nonpayable",
      "type": "function"
    },
    {
      "inputs": [
        {
          "internalType": "address",
          "name": "to",
          "type": "address"
        },
        {
          "internalType": "uint256",
          "name": "tokenId",
          "type": "uint256"
        }
      ],
      "name": "approve",
      "outputs": [],
      "stateMutability": "nonpayable",
      "type": "function"
    },
    {
      "inputs": [
        {
          "internalType": "address",
          "name": "owner",
          "type": "address"
        }
      ],
      "name": "balanceOf",
      "outputs": [
        {
          "internalType": "uint256",
          "name": "",
          "type": "uint256"
        }
      ],
      "stateMutability": "view",
      "type": "function"
    },
    {
      "inputs": [
        {
          "internalType": "uint256[]",
          "name": "tokenIds",
          "type": "uint256[]"
        }
      ],
      "name": "batchDiscountOf",
      "outputs": [
        {
          "internalType": "uint256[]",
          "name": "",
          "type": "uint256[]"
        }
      ],
      "stateMutability": "view",
      "type": "function"
    },
    {
      "inputs": [
        {
          "internalType": "address",
          "name": "to",
          "type": "address"
        },
        {
          "internalType": "uint256[]",
          "name": "ids",
          "type": "uint256[]"
        }
      ],
      "name": "batchMint",
      "outputs": [],
      "stateMutability": "nonpayable",
      "type": "function"
    },
    {
      "inputs": [
        {
          "internalType": "uint256[]",
          "name": "tokenIds",
          "type": "uint256[]"
        }
      ],
      "name": "batchTokenURI",
      "outputs": [
        {
          "internalType": "string[]",
          "name": "",
          "type": "string[]"
        }
      ],
      "stateMutability": "view",
      "type": "function"
    },
    {
      "inputs": [
        {
          "internalType": "address",
          "name": "from",
          "type": "address"
        },
        {
          "internalType": "address",
          "name": "to",
          "type": "address"
        },
        {
          "internalType": "uint256[]",
          "name": "tokenIds",
          "type": "uint256[]"
        }
      ],
      "name": "batchTransferFrom",
      "outputs": [],
      "stateMutability": "nonpayable",
      "type": "function"
    },
    {
      "inputs": [
        {
          "internalType": "uint256",
          "name": "tokenId",
          "type": "uint256"
        }
      ],
      "name": "burn",
      "outputs": [],
      "stateMutability": "nonpayable",
      "type": "function"
    },
    {
      "inputs": [],
      "name": "cap",
      "outputs": [
        {
          "internalType": "uint256",
          "name": "",
          "type": "uint256"
        }
      ],
      "stateMutability": "view",
      "type": "function"
    },
    {
      "inputs": [
        {
          "internalType": "uint256",
          "name": "tokenId",
          "type": "uint256"
        }
      ],
      "name": "discountOf",
      "outputs": [
        {
          "internalType": "uint256",
          "name": "discount",
          "type": "uint256"
        }
      ],
      "stateMutability": "view",
      "type": "function"
    },
    {
      "inputs": [],
      "name": "getAllTokenIds",
      "outputs": [
        {
          "internalType": "uint256[]",
          "name": "",
          "type": "uint256[]"
        }
      ],
      "stateMutability": "view",
      "type": "function"
    },
    {
      "inputs": [
        {
          "internalType": "uint256",
          "name": "tokenId",
          "type": "uint256"
        }
      ],
      "name": "getApproved",
      "outputs": [
        {
          "internalType": "address",
          "name": "",
          "type": "address"
        }
      ],
      "stateMutability": "view",
      "type": "function"
    },
    {
      "inputs": [
        {
          "internalType": "bytes32",
          "name": "role",
          "type": "bytes32"
        }
      ],
      "name": "getRoleAdmin",
      "outputs": [
        {
          "internalType": "bytes32",
          "name": "",
          "type": "bytes32"
        }
      ],
      "stateMutability": "view",
      "type": "function"
    },
    {
      "inputs": [
        {
          "internalType": "bytes32",
          "name": "role",
          "type": "bytes32"
        },
        {
          "internalType": "uint256",
          "name": "index",
          "type": "uint256"
        }
      ],
      "name": "getRoleMember",
      "outputs": [
        {
          "internalType": "address",
          "name": "",
          "type": "address"
        }
      ],
      "stateMutability": "view",
      "type": "function"
    },
    {
      "inputs": [
        {
          "internalType": "bytes32",
          "name": "role",
          "type": "bytes32"
        }
      ],
      "name": "getRoleMemberCount",
      "outputs": [
        {
          "internalType": "uint256",
          "name": "",
          "type": "uint256"
        }
      ],
      "stateMutability": "view",
      "type": "function"
    },
    {
      "inputs": [
        {
          "internalType": "bytes32",
          "name": "role",
          "type": "bytes32"
        },
        {
          "internalType": "address",
          "name": "account",
          "type": "address"
        }
      ],
      "name": "grantRole",
      "outputs": [],
      "stateMutability": "nonpayable",
      "type": "function"
    },
    {
      "inputs": [
        {
          "internalType": "bytes32",
          "name": "role",
          "type": "bytes32"
        },
        {
          "internalType": "address",
          "name": "account",
          "type": "address"
        }
      ],
      "name": "hasRole",
      "outputs": [
        {
          "internalType": "bool",
          "name": "",
          "type": "bool"
        }
      ],
      "stateMutability": "view",
      "type": "function"
    },
    {
      "inputs": [],
      "name": "imageBaseURI",
      "outputs": [
        {
          "internalType": "string",
          "name": "",
          "type": "string"
        }
      ],
      "stateMutability": "view",
      "type": "function"
    },
    {
      "inputs": [],
      "name": "initialize",
      "outputs": [],
      "stateMutability": "nonpayable",
      "type": "function"
    },
    {
      "inputs": [
        {
          "internalType": "address",
          "name": "owner",
          "type": "address"
        },
        {
          "internalType": "address",
          "name": "operator",
          "type": "address"
        }
      ],
      "name": "isApprovedForAll",
      "outputs": [
        {
          "internalType": "bool",
          "name": "",
          "type": "bool"
        }
      ],
      "stateMutability": "view",
      "type": "function"
    },
    {
      "inputs": [],
      "name": "lastTokenId",
      "outputs": [
        {
          "internalType": "uint256",
          "name": "",
          "type": "uint256"
        }
      ],
      "stateMutability": "view",
      "type": "function"
    },
    {
      "inputs": [
        {
          "internalType": "address",
          "name": "to",
          "type": "address"
        },
        {
          "internalType": "uint256",
          "name": "id",
          "type": "uint256"
        }
      ],
      "name": "mint",
      "outputs": [],
      "stateMutability": "nonpayable",
      "type": "function"
    },
    {
      "inputs": [
        {
          "internalType": "uint256",
          "name": "count",
          "type": "uint256"
        }
      ],
      "name": "mint",
      "outputs": [],
      "stateMutability": "nonpayable",
      "type": "function"
    },
    {
      "inputs": [],
      "name": "name",
      "outputs": [
        {
          "internalType": "string",
          "name": "",
          "type": "string"
        }
      ],
      "stateMutability": "view",
      "type": "function"
    },
    {
      "inputs": [
        {
          "internalType": "uint256",
          "name": "tokenId",
          "type": "uint256"
        }
      ],
      "name": "ownerOf",
      "outputs": [
        {
          "internalType": "address",
          "name": "",
          "type": "address"
        }
      ],
      "stateMutability": "view",
      "type": "function"
    },
    {
      "inputs": [
        {
          "internalType": "uint256",
          "name": "count",
          "type": "uint256"
        }
      ],
      "name": "partialReveal",
      "outputs": [],
      "stateMutability": "nonpayable",
      "type": "function"
    },
    {
      "inputs": [
        {
          "internalType": "address",
          "name": "_address",
          "type": "address"
        },
        {
          "internalType": "uint256",
          "name": "count",
          "type": "uint256"
        }
      ],
      "name": "partialRevealFor",
      "outputs": [],
      "stateMutability": "nonpayable",
      "type": "function"
    },
    {
      "inputs": [],
      "name": "pause",
      "outputs": [],
      "stateMutability": "nonpayable",
      "type": "function"
    },
    {
      "inputs": [],
      "name": "paused",
      "outputs": [
        {
          "internalType": "bool",
          "name": "",
          "type": "bool"
        }
      ],
      "stateMutability": "view",
      "type": "function"
    },
    {
      "inputs": [],
      "name": "price",
      "outputs": [
        {
          "internalType": "uint256",
          "name": "",
          "type": "uint256"
        }
      ],
      "stateMutability": "view",
      "type": "function"
    },
    {
      "inputs": [
        {
          "internalType": "uint256",
          "name": "requestId",
          "type": "uint256"
        },
        {
          "internalType": "uint256[]",
          "name": "randomWords",
          "type": "uint256[]"
        }
      ],
      "name": "rawFulfillRandomWords",
      "outputs": [],
      "stateMutability": "nonpayable",
      "type": "function"
    },
    {
      "inputs": [
        {
          "internalType": "address",
          "name": "_address",
          "type": "address"
        }
      ],
      "name": "removeBlacklist",
      "outputs": [],
      "stateMutability": "nonpayable",
      "type": "function"
    },
    {
      "inputs": [
        {
          "internalType": "bytes32",
          "name": "role",
          "type": "bytes32"
        },
        {
          "internalType": "address",
          "name": "account",
          "type": "address"
        }
      ],
      "name": "renounceRole",
      "outputs": [],
      "stateMutability": "nonpayable",
      "type": "function"
    },
    {
      "inputs": [],
      "name": "reveal",
      "outputs": [],
      "stateMutability": "nonpayable",
      "type": "function"
    },
    {
      "inputs": [
        {
          "internalType": "address",
          "name": "_address",
          "type": "address"
        }
      ],
      "name": "revealsPendingOf",
      "outputs": [
        {
          "internalType": "uint256[]",
          "name": "",
          "type": "uint256[]"
        },
        {
          "internalType": "bool",
          "name": "",
          "type": "bool"
        }
      ],
      "stateMutability": "view",
      "type": "function"
    },
    {
      "inputs": [
        {
          "internalType": "bytes32",
          "name": "role",
          "type": "bytes32"
        },
        {
          "internalType": "address",
          "name": "account",
          "type": "address"
        }
      ],
      "name": "revokeRole",
      "outputs": [],
      "stateMutability": "nonpayable",
      "type": "function"
    },
    {
      "inputs": [
        {
          "internalType": "address",
          "name": "from",
          "type": "address"
        },
        {
          "internalType": "address",
          "name": "to",
          "type": "address"
        },
        {
          "internalType": "uint256",
          "name": "tokenId",
          "type": "uint256"
        }
      ],
      "name": "safeTransferFrom",
      "outputs": [],
      "stateMutability": "nonpayable",
      "type": "function"
    },
    {
      "inputs": [
        {
          "internalType": "address",
          "name": "from",
          "type": "address"
        },
        {
          "internalType": "address",
          "name": "to",
          "type": "address"
        },
        {
          "internalType": "uint256",
          "name": "tokenId",
          "type": "uint256"
        },
        {
          "internalType": "bytes",
          "name": "data",
          "type": "bytes"
        }
      ],
      "name": "safeTransferFrom",
      "outputs": [],
      "stateMutability": "nonpayable",
      "type": "function"
    },
    {
      "inputs": [
        {
          "internalType": "address",
          "name": "operator",
          "type": "address"
        },
        {
          "internalType": "bool",
          "name": "approved",
          "type": "bool"
        }
      ],
      "name": "setApprovalForAll",
      "outputs": [],
      "stateMutability": "nonpayable",
      "type": "function"
    },
    {
      "inputs": [
        {
          "internalType": "uint256",
          "name": "_cap",
          "type": "uint256"
        }
      ],
      "name": "setCap",
      "outputs": [],
      "stateMutability": "nonpayable",
      "type": "function"
    },
    {
      "inputs": [
        {
          "internalType": "uint256[]",
          "name": "tokenIds",
          "type": "uint256[]"
        },
        {
          "internalType": "uint256[]",
          "name": "discounts",
          "type": "uint256[]"
        }
      ],
      "name": "setDiscountsOf",
      "outputs": [],
      "stateMutability": "nonpayable",
      "type": "function"
    },
    {
      "inputs": [
        {
          "internalType": "string",
          "name": "_imageBaseURI",
          "type": "string"
        }
      ],
      "name": "setImageBaseURI",
      "outputs": [],
      "stateMutability": "nonpayable",
      "type": "function"
    },
    {
      "inputs": [
        {
          "internalType": "uint256",
          "name": "_price",
          "type": "uint256"
        }
      ],
      "name": "setTicketPrice",
      "outputs": [],
      "stateMutability": "nonpayable",
      "type": "function"
    },
    {
      "inputs": [
        {
          "internalType": "bytes4",
          "name": "interfaceId",
          "type": "bytes4"
        }
      ],
      "name": "supportsInterface",
      "outputs": [
        {
          "internalType": "bool",
          "name": "",
          "type": "bool"
        }
      ],
      "stateMutability": "view",
      "type": "function"
    },
    {
      "inputs": [],
      "name": "symbol",
      "outputs": [
        {
          "internalType": "string",
          "name": "",
          "type": "string"
        }
      ],
      "stateMutability": "view",
      "type": "function"
    },
    {
      "inputs": [
        {
          "internalType": "uint256",
          "name": "index",
          "type": "uint256"
        }
      ],
      "name": "tokenByIndex",
      "outputs": [
        {
          "internalType": "uint256",
          "name": "",
          "type": "uint256"
        }
      ],
      "stateMutability": "view",
      "type": "function"
    },
    {
      "inputs": [
        {
          "internalType": "address",
          "name": "owner",
          "type": "address"
        },
        {
          "internalType": "uint256",
          "name": "index",
          "type": "uint256"
        }
      ],
      "name": "tokenOfOwnerByIndex",
      "outputs": [
        {
          "internalType": "uint256",
          "name": "",
          "type": "uint256"
        }
      ],
      "stateMutability": "view",
      "type": "function"
    },
    {
      "inputs": [
        {
          "internalType": "uint256",
          "name": "tokenId",
          "type": "uint256"
        }
      ],
      "name": "tokenURI",
      "outputs": [
        {
          "internalType": "string",
          "name": "",
          "type": "string"
        }
      ],
      "stateMutability": "view",
      "type": "function"
    },
    {
      "inputs": [
        {
          "internalType": "address",
          "name": "_address",
          "type": "address"
        }
      ],
      "name": "tokensAndDiscountsOfOwner",
      "outputs": [
        {
          "internalType": "uint256[]",
          "name": "tokens",
          "type": "uint256[]"
        },
        {
          "internalType": "uint256[]",
          "name": "discounts",
          "type": "uint256[]"
        }
      ],
      "stateMutability": "view",
      "type": "function"
    },
    {
      "inputs": [
        {
          "internalType": "address",
          "name": "owner",
          "type": "address"
        }
      ],
      "name": "tokensOfOwner",
      "outputs": [
        {
          "internalType": "uint256[]",
          "name": "",
          "type": "uint256[]"
        }
      ],
      "stateMutability": "view",
      "type": "function"
    },
    {
      "inputs": [],
      "name": "totalSupply",
      "outputs": [
        {
          "internalType": "uint256",
          "name": "",
          "type": "uint256"
        }
      ],
      "stateMutability": "view",
      "type": "function"
    },
    {
      "inputs": [
        {
          "internalType": "address",
          "name": "from",
          "type": "address"
        },
        {
          "internalType": "address",
          "name": "to",
          "type": "address"
        },
        {
          "internalType": "uint256",
          "name": "tokenId",
          "type": "uint256"
        }
      ],
      "name": "transferFrom",
      "outputs": [],
      "stateMutability": "nonpayable",
      "type": "function"
    },
    {
      "inputs": [],
      "name": "treasury",
      "outputs": [
        {
          "internalType": "address",
          "name": "",
          "type": "address"
        }
      ],
      "stateMutability": "view",
      "type": "function"
    },
    {
      "inputs": [],
      "name": "unpause",
      "outputs": [],
      "stateMutability": "nonpayable",
      "type": "function"
    }
  ],
  "bytecode": "0x60806040523480156200001157600080fd5b506200001c62000022565b620000e4565b600054610100900460ff16156200008f5760405162461bcd60e51b815260206004820152602760248201527f496e697469616c697a61626c653a20636f6e747261637420697320696e697469604482015266616c697a696e6760c81b606482015260840160405180910390fd5b60005460ff9081161015620000e2576000805460ff191660ff9081179091556040519081527f7f26b83ff96e1f2b6a682f133852f6798a09c465da95921460cefb38474024989060200160405180910390a15b565b614ef880620000f46000396000f3fe608060405234801561001057600080fd5b50600436106103995760003560e01c806375b238fc116101e9578063a475b5dd1161010f578063d5391393116100ad578063eb91e6511161007c578063eb91e651146107f4578063f16a582514610807578063f3993d111461081a578063f84ddf0b1461082d57600080fd5b8063d53913931461077d578063d547741f14610792578063da139142146107a5578063e985e9c5146107b857600080fd5b8063bdbed722116100e9578063bdbed7221461073c578063c87b56dd14610744578063ca122fb014610757578063ca15c8731461076a57600080fd5b8063a475b5dd14610700578063ad8f9ad614610708578063b88d4fde1461072957600080fd5b806391d1485411610187578063a035b1fe11610156578063a035b1fe146106c8578063a0712d68146106d2578063a217fddf146106e5578063a22cb465146106ed57600080fd5b806391d148541461068757806395d89b411461069a5780639af4cb22146106a25780639cfe42da146106b557600080fd5b806382b08a90116101c357806382b08a90146106395780638456cb59146106595780638462151c146106615780639010d07c1461067457600080fd5b806375b238fc1461061457806377645839146106295780638129fc1c1461063157600080fd5b806336568abe116102ce57806349299d6e1161026c5780636352211e1161023b5780636352211e146105bb5780636cfa24cc146105ce5780636d94f13a146105e157806370a082311461060157600080fd5b806349299d6e146105755780634f6ccce7146105885780635c975abb1461059b57806361d027b3146105a757600080fd5b806342842e0e116102a857806342842e0e1461052957806342966c681461053c5780634684d7e91461054f57806347786d371461056257600080fd5b806336568abe146104fb5780633f4ba83a1461050e57806340c10f191461051657600080fd5b80631e9d71011161033b578063248a9ca311610315578063248a9ca3146104a75780632f2ff15d146104cb5780632f745c59146104de578063355274ea146104f157600080fd5b80631e9d7101146104615780631fe543e31461048157806323b872dd1461049457600080fd5b8063095ea7b311610377578063095ea7b314610406578063131b71b01461041b578063159816501461043c57806318160ddd1461044f57600080fd5b806301ffc9a71461039e57806306fdde03146103c6578063081812fc146103db575b600080fd5b6103b16103ac366004613fa8565b610835565b60405190151581526020015b60405180910390f35b6103ce610846565b6040516103bd9190614015565b6103ee6103e9366004614028565b6108d8565b6040516001600160a01b0390911681526020016103bd565b61041961041436600461405d565b6108ff565b005b61042e610429366004614087565b610941565b6040516103bd9291906140dd565b61041961044a366004614028565b610968565b60ca545b6040519081526020016103bd565b61047461046f3660046141d0565b610987565b6040516103bd9190614204565b61041961048f366004614217565b610a34565b6104196104a236600461425d565b610a8d565b6104536104b5366004614028565b6000908152610190602052604090206001015490565b6104196104d9366004614299565b610abf565b6104536104ec36600461405d565b610ae5565b6104536102995481565b610419610509366004614299565b610b7b565b610419610bf5565b61041961052436600461405d565b610c18565b61041961053736600461425d565b610c42565b61041961054a366004614028565b610c5d565b61041961055d3660046142c5565b610cdf565b610419610570366004614028565b610d46565b610453610583366004614028565b610d65565b610453610596366004614028565b610e34565b61012c5460ff166103b1565b610297546103ee906001600160a01b031681565b6103ee6105c9366004614028565b610ec7565b6104196105dc366004614353565b610f27565b6105f46105ef3660046141d0565b610f4c565b6040516103bd919061439b565b61045361060f366004614087565b610ffd565b610453600080516020614ea383398151915281565b6103ce611083565b610419611112565b61064c610647366004614087565b6113a6565b6040516103bd91906143fd565b6104196114c1565b61047461066f366004614087565b6114e1565b6103ee610682366004614440565b611582565b6103b1610695366004614299565b6115a2565b6103ce6115ce565b6104196106b0366004614028565b6115dd565b6104196106c3366004614087565b6115e7565b6104536102985481565b6104196106e0366004614028565b61160b565b610453600081565b6104196106fb366004614470565b611894565b6104196118c8565b61071b610716366004614087565b611b4c565b6040516103bd9291906144a7565b6104196107373660046144cb565b611bca565b610474611bfc565b6103ce610752366004614028565b611ce6565b610419610765366004614087565b611e2f565b610453610778366004614028565b611f5b565b610453600080516020614e8383398151915281565b6104196107a0366004614299565b611f73565b6104196107b3366004614546565b611f99565b6103b16107c636600461459f565b6001600160a01b039182166000908152609b6020908152604080832093909416825291909152205460ff1690565b610419610802366004614087565b6120f2565b61041961081536600461405d565b612116565b6104196108283660046145c9565b61212b565b61045361216d565b60006108408261217e565b92915050565b60606096805461085590614626565b80601f016020809104026020016040519081016040528092919081815260200182805461088190614626565b80156108ce5780601f106108a3576101008083540402835291602001916108ce565b820191906000526020600020905b8154815290600101906020018083116108b157829003601f168201915b5050505050905090565b60006108e382612189565b506000908152609a60205260409020546001600160a01b031690565b8161090c61028c826121d9565b156109325760405162461bcd60e51b81526004016109299061465a565b60405180910390fd5b61093c83836121fb565b505050565b606080600061094f846114e1565b9050600061095c82610987565b91959194509092505050565b600080516020614ea38339815191526109808161230b565b5061029855565b6060600082516001600160401b038111156109a4576109a461410b565b6040519080825280602002602001820160405280156109cd578160200160208202803683370190505b50905060005b8351811015610a2d576109fe8482815181106109f1576109f1614687565b6020026020010151610d65565b828281518110610a1057610a10614687565b602090810291909101015280610a25816146b3565b9150506109d3565b5092915050565b6000546201000090046001600160a01b03163314610a7f5760005460405163073e64fd60e21b8152336004820152620100009091046001600160a01b03166024820152604401610929565b610a898282612315565b5050565b610a98335b826123af565b610ab45760405162461bcd60e51b8152600401610929906146cc565b61093c83838361242e565b60008281526101906020526040902060010154610adb8161230b565b61093c838361259f565b6000610af083610ffd565b8210610b525760405162461bcd60e51b815260206004820152602b60248201527f455243373231456e756d657261626c653a206f776e657220696e646578206f7560448201526a74206f6620626f756e647360a81b6064820152608401610929565b506001600160a01b0391909116600090815260c860209081526040808320938352929052205490565b6001600160a01b0381163314610beb5760405162461bcd60e51b815260206004820152602f60248201527f416363657373436f6e74726f6c3a2063616e206f6e6c792072656e6f756e636560448201526e103937b632b9903337b91039b2b63360891b6064820152608401610929565b610a8982826125c2565b600080516020614ea3833981519152610c0d8161230b565b610c156125e5565b50565b610c20612638565b600080516020614e83833981519152610c388161230b565b61093c8383612681565b61093c83838360405180602001604052806000815250611bca565b610c6633610a92565b610cc95760405162461bcd60e51b815260206004820152602e60248201527f4552433732313a2063616c6c6572206973206e6f7420746f6b656e206f776e6560448201526d1c881b9bdc88185c1c1c9bdd995960921b6064820152608401610929565b610cd56101f48261269b565b50610c15816126a7565b610ce7612638565b600080516020614e83833981519152610cff8161230b565b60005b8251811015610d4057610d2e84848381518110610d2157610d21614687565b6020026020010151612681565b80610d38816146b3565b915050610d02565b50505050565b600080516020614ea3833981519152610d5e8161230b565b5061029955565b6000610d708261274a565b610dc85760405162461bcd60e51b8152602060048201526024808201527f446973636f756e7420717565727920666f72206e6f6e6578697374656e74207460448201526337b5b2b760e11b6064820152608401610929565b610dd461028e83612769565b15610de157506005919050565b610ded61029083612769565b15610dfa5750600a919050565b610e0661029283612769565b15610e135750600f919050565b610e1f61029483612769565b15610e2c57506014919050565b506000919050565b6000610e3f60ca5490565b8210610ea25760405162461bcd60e51b815260206004820152602c60248201527f455243373231456e756d657261626c653a20676c6f62616c20696e646578206f60448201526b7574206f6620626f756e647360a01b6064820152608401610929565b60ca8281548110610eb557610eb5614687565b90600052602060002001549050919050565b6000818152609860205260408120546001600160a01b0316806108405760405162461bcd60e51b8152602060048201526018602482015277115490cdcc8c4e881a5b9d985b1a59081d1bdad95b88125160421b6044820152606401610929565b600080516020614ea3833981519152610f3f8161230b565b61029a61093c838261475f565b6060600082516001600160401b03811115610f6957610f6961410b565b604051908082528060200260200182016040528015610f9c57816020015b6060815260200190600190039081610f875790505b50905060005b8351811015610a2d57610fcd848281518110610fc057610fc0614687565b6020026020010151611ce6565b828281518110610fdf57610fdf614687565b60200260200101819052508080610ff5906146b3565b915050610fa2565b60006001600160a01b0382166110675760405162461bcd60e51b815260206004820152602960248201527f4552433732313a2061646472657373207a65726f206973206e6f7420612076616044820152683634b21037bbb732b960b91b6064820152608401610929565b506001600160a01b031660009081526099602052604090205490565b61029a805461109190614626565b80601f01602080910402602001604051908101604052809291908181526020018280546110bd90614626565b801561110a5780601f106110df5761010080835404028352916020019161110a565b820191906000526020600020905b8154815290600101906020018083116110ed57829003601f168201915b505050505081565b600054610100900460ff16158080156111325750600054600160ff909116105b8061114c5750303b15801561114c575060005460ff166001145b6111af5760405162461bcd60e51b815260206004820152602e60248201527f496e697469616c697a61626c653a20636f6e747261637420697320616c72656160448201526d191e481a5b9a5d1a585b1a5e995960921b6064820152608401610929565b6000805460ff1916600117905580156111d2576000805461ff0019166101001790555b61121e6040518060400160405280600b81526020016a115b1d995cd51a58dad95d60aa1b8152506040518060400160405280600781526020016611551250d2d15560ca1b815250612781565b6112266127b2565b61122e6127d9565b6112366127b2565b61123e6127b2565b73d5d517abe5cf79b7e95ec98db0f0277788aff6347f83250c5584ffa93feb6ee082981c5ebe484c865196750b39835ad4f13780435d601b600361128484848484612808565b61128f60003361259f565b6112a7600080516020614ea38339815191523361259f565b6112bf600080516020614e838339815191523361259f565b61029680546001600160a01b031990811673b97ef9ef8734c71904d8002f8b6bc66dd9c48a6e17909155610297805490911673d2578a0b2631e591890f28499e9e8d73f21e589517905562989680610298556113886102995560408051606081019091526030808252614e13602083013961029a9061133e908261475f565b5061036761134c61028b5490565b101561135a5761036761028b555b505050508015610c15576000805461ff0019169055604051600181527f7f26b83ff96e1f2b6a682f133852f6798a09c465da95921460cefb38474024989060200160405180910390a150565b6113ca60405180606001604052806060815260200160008152602001606081525090565b600080516020614ea38339815191526113e28161230b565b6001600160a01b038316600090815261028960209081526040918290208251815460809381028201840190945260608101848152909391928492849184018282801561144d57602002820191906000526020600020905b815481526020019060010190808311611439575b5050505050815260200160018201548152602001600282018054806020026020016040519081016040528092919081815260200182805480156114af57602002820191906000526020600020905b81548152602001906001019080831161149b575b50505050508152505091505b50919050565b600080516020614ea38339815191526114d98161230b565b610c1561284c565b606060006114ee83610ffd565b90506000816001600160401b0381111561150a5761150a61410b565b604051908082528060200260200182016040528015611533578160200160208202803683370190505b50905060005b8281101561157a5761154b8582610ae5565b82828151811061155d5761155d614687565b602090810291909101015280611572816146b3565b915050611539565b509392505050565b60008281526101c26020526040812061159b908361288a565b9392505050565b6000918252610190602090815260408084206001600160a01b0393909316845291905290205460ff1690565b60606097805461085590614626565b610c153382612896565b600080516020614ea38339815191526115ff8161230b565b61093c61028c83612b9f565b611613612638565b63630aa1f0421061162357600080fd5b336000908152610289602052604090206001810154156116815760405162461bcd60e51b81526020600482015260196024820152784578697374696e67206d696e7420696e2070726f677265737360381b6044820152606401610929565b600a8211156116c85760405162461bcd60e51b815260206004820152601360248201527213585e1a5b5d5b480c4c081c195c881b5a5b9d606a1b6044820152606401610929565b60006116d461028b5490565b90506102995481106117135760405162461bcd60e51b815260206004820152600860248201526714dbdb19081bdd5d60c21b6044820152606401610929565b61029954611721848361481e565b111561176f5760405162461bcd60e51b815260206004820152601b60248201527f496e73756666696369656e742072656d61696e696e67204e46547300000000006044820152606401610929565b610296546001600160a01b03166323b872dd3361029754610298546001600160a01b03909116906117a1908890614831565b6040516001600160e01b031960e086901b1681526001600160a01b03938416600482015292909116602483015260448201526064016020604051808303816000875af11580156117f5573d6000803e3d6000fd5b505050506040513d601f19601f820116820180604052508101906118199190614848565b5061182383612bb4565b60018301819055600090815261028a6020526040812080546001600160a01b031916331790555b83811015610d405761186161028b80546001019055565b8261186c61028b5490565b815460018101835560009283526020909220909101558061188c816146b3565b91505061184a565b816118a161028c826121d9565b156118be5760405162461bcd60e51b81526004016109299061465a565b61093c8383612c7d565b33600090815261028960205260409020600181015461191b5760405162461bcd60e51b815260206004820152600f60248201526e139bc81c195b991a5b99c81b5a5b9d608a1b6044820152606401610929565b60028101546119645760405162461bcd60e51b8152602060048201526015602482015274526573756c7473207374696c6c2070656e64696e6760581b6044820152606401610929565b60005b8154811015611af85760006103e883600201838154811061198a5761198a614687565b906000526020600020015461199f919061487b565b90506103de81106119e4576119de8360000183815481106119c2576119c2614687565b906000526020600020015461029461269b90919063ffffffff16565b50611abc565b6103b681101580156119f757506103de81105b15611a30576119de836000018381548110611a1457611a14614687565b906000526020600020015461029261269b90919063ffffffff16565b6102ee8110158015611a4357506103b681105b15611a7c576119de836000018381548110611a6057611a60614687565b906000526020600020015461029061269b90919063ffffffff16565b6102ee811015611abc57611aba836000018381548110611a9e57611a9e614687565b906000526020600020015461028e61269b90919063ffffffff16565b505b611ae533846000018481548110611ad557611ad5614687565b9060005260206000200154612681565b5080611af0816146b3565b915050611967565b506001810154600090815261028a6020908152604080832080546001600160a01b0319169055338352610289909152812090611b348282613f14565b600182016000905560028201600061093c9190613f14565b6001600160a01b0381166000908152610289602090815260408083206002810154815483518186028101860190945280845260609594929391151592849190830182828015611bba57602002820191906000526020600020905b815481526020019060010190808311611ba6575b5050505050915091509150915091565b611bd433836123af565b611bf05760405162461bcd60e51b8152600401610929906146cc565b610d4084848484612c88565b6060600060015b612710811015611c3b57611c1681612cbb565b15611c295781611c25816146b3565b9250505b80611c33816146b3565b915050611c03565b506000816001600160401b03811115611c5657611c5661410b565b604051908082528060200260200182016040528015611c7f578160200160208202803683370190505b509050600060015b612710811015611cdd57611c9a81612cbb565b15611ccb5780838381518110611cb257611cb2614687565b602090810291909101015281611cc7816146b3565b9250505b80611cd5816146b3565b915050611c87565b50909392505050565b60606000611cf383610d65565b90506000611d0082612cc6565b604051602001611d10919061488f565b6040516020818303038152906040529050600061029a611d2f84612cc6565b604051602001611d409291906148b4565b60405160208183030381529060405290506000611d5c84612d58565b90506000611d6987610ec7565b90506000611d7688612cc6565b84611d89846001600160a01b0316612e18565b604051602001611d9b9392919061493b565b604051602081830303815290604052905060008584604051602001611dc1929190614a67565b604051602081830303815290604052905060008282604051602001611de7929190614b1d565b6040516020818303038152906040529050611e0181612e2e565b604051602001611e119190614b6a565b60405160208183030381529060405298505050505050505050919050565b600080516020614ea3833981519152611e478161230b565b6001600160a01b0382166000908152610289602052604081206001810154909103611eb05760405162461bcd60e51b81526020600482015260196024820152784578697374696e67206d696e7420696e2070726f677265737360381b6044820152606401610929565b8054611ef55760405162461bcd60e51b81526020600482015260146024820152734e6f20746f6b656e204944732070656e64696e6760601b6044820152606401610929565b6001810154600090815261028a6020526040902080546001600160a01b0319169055611f216005612bb4565b6001909101819055600090815261028a6020526040902080546001600160a01b039093166001600160a01b03199093169290921790915550565b60008181526101c26020526040812061084090612f80565b60008281526101906020526040902060010154611f8f8161230b565b61093c83836125c2565b600080516020614ea3833981519152611fb18161230b565b60005b8351811015610d4057828181518110611fcf57611fcf614687565b60200260200101516014036120125761200c848281518110611ff357611ff3614687565b602002602001015161029461269b90919063ffffffff16565b506120e0565b82818151811061202457612024614687565b6020026020010151600f036120615761200c84828151811061204857612048614687565b602002602001015161029261269b90919063ffffffff16565b82818151811061207357612073614687565b6020026020010151600a036120b05761200c84828151811061209757612097614687565b602002602001015161029061269b90919063ffffffff16565b6120de8482815181106120c5576120c5614687565b602002602001015161028e61269b90919063ffffffff16565b505b806120ea816146b3565b915050611fb4565b600080516020614ea383398151915261210a8161230b565b61093c61028c83612f8a565b60006121218161230b565b61093c8383612896565b60005b8151811015610d405761215b848484848151811061214e5761214e614687565b6020026020010151610a8d565b80612165816146b3565b91505061212e565b600061217961028b5490565b905090565b600061084082612f9f565b61219281612cbb565b610c155760405162461bcd60e51b8152602060048201526018602482015277115490cdcc8c4e881a5b9d985b1a59081d1bdad95b88125160421b6044820152606401610929565b6001600160a01b0381166000908152600183016020526040812054151561159b565b600061220682610ec7565b9050806001600160a01b0316836001600160a01b0316036122735760405162461bcd60e51b815260206004820152602160248201527f4552433732313a20617070726f76616c20746f2063757272656e74206f776e656044820152603960f91b6064820152608401610929565b336001600160a01b038216148061228f575061228f81336107c6565b6123015760405162461bcd60e51b815260206004820152603d60248201527f4552433732313a20617070726f76652063616c6c6572206973206e6f7420746f60448201527f6b656e206f776e6572206f7220617070726f76656420666f7220616c6c0000006064820152608401610929565b61093c8383612fc4565b610c158133613032565b600082815261028a60209081526040808320546001600160a01b031683526102899091528120600281015490910361235c578151610d409060028301906020850190613f32565b60005b8251811015610d40578160020183828151811061237e5761237e614687565b60209081029190910181015182546001810184556000938452919092200155806123a7816146b3565b91505061235f565b6000806123bb83610ec7565b9050806001600160a01b0316846001600160a01b0316148061240257506001600160a01b038082166000908152609b602090815260408083209388168352929052205460ff165b806124265750836001600160a01b031661241b846108d8565b6001600160a01b0316145b949350505050565b826001600160a01b031661244182610ec7565b6001600160a01b0316146124675760405162461bcd60e51b815260040161092990614baf565b6001600160a01b0382166124c95760405162461bcd60e51b8152602060048201526024808201527f4552433732313a207472616e7366657220746f20746865207a65726f206164646044820152637265737360e01b6064820152608401610929565b6124d6838383600161308b565b826001600160a01b03166124e982610ec7565b6001600160a01b03161461250f5760405162461bcd60e51b815260040161092990614baf565b6000818152609a6020908152604080832080546001600160a01b03199081169091556001600160a01b0387811680865260998552838620805460001901905590871680865283862080546001019055868652609890945282852080549092168417909155905184937fddf252ad1be2c89b69c2b068fc378daa952ba7f163c4a11628f55a4df523b3ef91a4505050565b6125a982826130f3565b60008281526101c26020526040902061093c9082612b9f565b6125cc828261317a565b60008281526101c26020526040902061093c9082612f8a565b6125ed6131e2565b61012c805460ff191690557f5db9ee0a495bf2e6ff9c91a7834c1ba4fdd244a5e8aa4e537bd38aeae4b073aa335b6040516001600160a01b03909116815260200160405180910390a1565b61012c5460ff161561267f5760405162461bcd60e51b815260206004820152601060248201526f14185d5cd8589b194e881c185d5cd95960821b6044820152606401610929565b565b610a8982826040518060200160405280600081525061322c565b600061159b838361325f565b60006126b282610ec7565b90506126c281600084600161308b565b6126cb82610ec7565b6000838152609a6020908152604080832080546001600160a01b03199081169091556001600160a01b0385168085526099845282852080546000190190558785526098909352818420805490911690555192935084927fddf252ad1be2c89b69c2b068fc378daa952ba7f163c4a11628f55a4df523b3ef908390a45050565b6000818152609860205260408120546001600160a01b03161515610840565b6000818152600183016020526040812054151561159b565b600054610100900460ff166127a85760405162461bcd60e51b815260040161092990614bf4565b610a8982826132ae565b600054610100900460ff1661267f5760405162461bcd60e51b815260040161092990614bf4565b600054610100900460ff166128005760405162461bcd60e51b815260040161092990614bf4565b61267f6132ee565b600054610100900460ff1661282f5760405162461bcd60e51b815260040161092990614bf4565b6128376127b2565b61284084613322565b610d4084848484613352565b612854612638565b61012c805460ff191660011790557f62e78cea01bee320cd4e420270b5ea74000d11b0c9f74754ebdbfc544b05a25861261b3390565b600061159b83836133d4565b6001600160a01b03821660009081526102896020526040902060018101546128f25760405162461bcd60e51b815260206004820152600f60248201526e139bc81c195b991a5b99c81b5a5b9d608a1b6044820152606401610929565b600281015461293b5760405162461bcd60e51b8152602060048201526015602482015274526573756c7473207374696c6c2070656e64696e6760581b6044820152606401610929565b600060608060005b8454811015612ae9578581106129e05784600001818154811061296857612968614687565b906000526020600020015483858151811061298557612985614687565b6020026020010181815250508460020181815481106129a6576129a6614687565b90600052602060002001548285815181106129c3576129c3614687565b6020908102919091010152836129d8816146b3565b945050612ad7565b60006103e88660020183815481106129fa576129fa614687565b9060005260206000200154612a0f919061487b565b90506103de8110612a3857612a328660000183815481106119c2576119c2614687565b50612abc565b6103b68110158015612a4b57506103de81105b15612a6857612a32866000018381548110611a1457611a14614687565b6102ee8110158015612a7b57506103b681105b15612a9857612a32866000018381548110611a6057611a60614687565b6102ee811015612abc57612aba866000018381548110611a9e57611a9e614687565b505b612ad588876000018481548110611ad557611ad5614687565b505b80612ae1816146b3565b915050612943565b50815115612b3857612afc846000613f14565b8151612b0e9085906020850190613f32565b50612b1d600285016000613f14565b8051612b329060028601906020840190613f32565b50612b97565b6001840154600090815261028a6020908152604080832080546001600160a01b03191690556001600160a01b0389168352610289909152812090612b7c8282613f14565b6001820160009055600282016000612b949190613f14565b50505b505050505050565b600061159b836001600160a01b03841661325f565b600080612bc383614e20614c3f565b612bd090620186a0614c67565b610258546102595461025a546040516305d3b1d360e41b815260048101929092526001600160401b0381166024830152600160401b900461ffff16604482015263ffffffff8084166064830152861660848201529192506001600160a01b031690635d3b1d309060a4016020604051808303816000875af1158015612c59573d6000803e3d6000fd5b505050506040513d601f19601f8201168201806040525081019061159b9190614c84565b610a893383836133fe565b612c9384848461242e565b612c9f848484846134cc565b610d405760405162461bcd60e51b815260040161092990614c9d565b60006108408261274a565b60606000612cd3836135cd565b60010190506000816001600160401b03811115612cf257612cf261410b565b6040519080825280601f01601f191660200182016040528015612d1c576020820181803683370190505b5090508181016020015b600019016f181899199a1a9b1b9c1cb0b131b232b360811b600a86061a8153600a8504945084612d2657509392505050565b606081601403612d835750506040805180820190915260058152640313a3130360dc1b602082015290565b81600f03612dab575050604080518082019091526004815263313a323560e01b602082015290565b81600a03612dd2575050604080518082019091526003815262313a3560e81b602082015290565b81600503612df9575050604080518082019091526003815262333a3160e81b602082015290565b50506040805180820190915260038152620303a360ec1b602082015290565b60606108406001600160a01b03831660146136a5565b60608151600003612e4d57505060408051602081019091526000815290565b6000604051806060016040528060408152602001614e436040913990506000600384516002612e7c919061481e565b612e869190614cef565b612e91906004614831565b6001600160401b03811115612ea857612ea861410b565b6040519080825280601f01601f191660200182016040528015612ed2576020820181803683370190505b509050600182016020820185865187015b80821015612f3e576003820191508151603f8160121c168501518453600184019350603f81600c1c168501518453600184019350603f8160061c168501518453600184019350603f8116850151845350600183019250612ee3565b5050600386510660018114612f5a5760028114612f6d57612f75565b603d6001830353603d6002830353612f75565b603d60018303535b509195945050505050565b6000610840825490565b600061159b836001600160a01b038416613840565b60006001600160e01b03198216635a05180f60e01b1480610840575061084082613933565b6000818152609a6020526040902080546001600160a01b0319166001600160a01b0384169081179091558190612ff982610ec7565b6001600160a01b03167f8c5be1e5ebec7d5bd14f71427d1e84f3dd0314c0f7b2291e5b200ac8c7c3b92560405160405180910390a45050565b61303c82826115a2565b610a895761304981612e18565b6130548360206136a5565b604051602001613065929190614d03565b60408051601f198184030181529082905262461bcd60e51b825261092991600401614015565b613093612638565b836130a061028c826121d9565b156130bd5760405162461bcd60e51b81526004016109299061465a565b836130ca61028c826121d9565b156130e75760405162461bcd60e51b81526004016109299061465a565b612b9786868686613958565b6130fd82826115a2565b610a89576000828152610190602090815260408083206001600160a01b03851684529091529020805460ff191660011790556131363390565b6001600160a01b0316816001600160a01b0316837f2f8788117e7eff1d82e926ec794901d17c78024a50270940304540a733656f0d60405160405180910390a45050565b61318482826115a2565b15610a89576000828152610190602090815260408083206001600160a01b0385168085529252808320805460ff1916905551339285917ff6391f5c32d9c69d2a47ea670b442974b53935d1edc7fd64eb21e047a839171b9190a45050565b61012c5460ff1661267f5760405162461bcd60e51b815260206004820152601460248201527314185d5cd8589b194e881b9bdd081c185d5cd95960621b6044820152606401610929565b6132368383613964565b61324360008484846134cc565b61093c5760405162461bcd60e51b815260040161092990614c9d565b60008181526001830160205260408120546132a657508154600181810184556000848152602080822090930184905584548482528286019093526040902091909155610840565b506000610840565b600054610100900460ff166132d55760405162461bcd60e51b815260040161092990614bf4565b60966132e1838261475f565b50609761093c828261475f565b600054610100900460ff166133155760405162461bcd60e51b815260040161092990614bf4565b61012c805460ff19169055565b600054610100900460ff166133495760405162461bcd60e51b815260040161092990614bf4565b610c1581613adf565b600054610100900460ff166133795760405162461bcd60e51b815260040161092990614bf4565b61025880546001600160a01b039095166001600160a01b03199095169490941790935561025a80546102599390935561ffff909316600160401b0269ffffffffffffffffffff199092166001600160401b0390911617179055565b60008260000182815481106133eb576133eb614687565b9060005260206000200154905092915050565b816001600160a01b0316836001600160a01b03160361345f5760405162461bcd60e51b815260206004820152601960248201527f4552433732313a20617070726f766520746f2063616c6c6572000000000000006044820152606401610929565b6001600160a01b038381166000818152609b6020908152604080832094871680845294825291829020805460ff191686151590811790915591519182527f17307eab39ab6107e8899845ad3d59bd9653f200f220920489ca2b5937696c31910160405180910390a3505050565b60006001600160a01b0384163b156135c257604051630a85bd0160e11b81526001600160a01b0385169063150b7a0290613510903390899088908890600401614d78565b6020604051808303816000875af192505050801561354b575060408051601f3d908101601f1916820190925261354891810190614db5565b60015b6135a8573d808015613579576040519150601f19603f3d011682016040523d82523d6000602084013e61357e565b606091505b5080516000036135a05760405162461bcd60e51b815260040161092990614c9d565b805181602001fd5b6001600160e01b031916630a85bd0160e11b149050612426565b506001949350505050565b60008072184f03e93ff9f4daa797ed6e38ed64bf6a1f0160401b831061360c5772184f03e93ff9f4daa797ed6e38ed64bf6a1f0160401b830492506040015b6d04ee2d6d415b85acef81000000008310613638576d04ee2d6d415b85acef8100000000830492506020015b662386f26fc10000831061365657662386f26fc10000830492506010015b6305f5e100831061366e576305f5e100830492506008015b612710831061368257612710830492506004015b60648310613694576064830492506002015b600a83106108405760010192915050565b606060006136b4836002614831565b6136bf90600261481e565b6001600160401b038111156136d6576136d661410b565b6040519080825280601f01601f191660200182016040528015613700576020820181803683370190505b509050600360fc1b8160008151811061371b5761371b614687565b60200101906001600160f81b031916908160001a905350600f60fb1b8160018151811061374a5761374a614687565b60200101906001600160f81b031916908160001a905350600061376e846002614831565b61377990600161481e565b90505b60018111156137f1576f181899199a1a9b1b9c1cb0b131b232b360811b85600f16601081106137ad576137ad614687565b1a60f81b8282815181106137c3576137c3614687565b60200101906001600160f81b031916908160001a90535060049490941c936137ea81614dd2565b905061377c565b50831561159b5760405162461bcd60e51b815260206004820181905260248201527f537472696e67733a20686578206c656e67746820696e73756666696369656e746044820152606401610929565b60008181526001830160205260408120548015613929576000613864600183614de9565b855490915060009061387890600190614de9565b90508181146138dd57600086600001828154811061389857613898614687565b90600052602060002001549050808760000184815481106138bb576138bb614687565b6000918252602080832090910192909255918252600188019052604090208390555b85548690806138ee576138ee614dfc565b600190038181906000526020600020016000905590558560010160008681526020019081526020016000206000905560019350505050610840565b6000915050610840565b60006001600160e01b03198216637965db0b60e01b1480610840575061084082613b30565b610d4084848484613b3b565b6001600160a01b0382166139ba5760405162461bcd60e51b815260206004820181905260248201527f4552433732313a206d696e7420746f20746865207a65726f20616464726573736044820152606401610929565b6139c381612cbb565b15613a105760405162461bcd60e51b815260206004820152601c60248201527f4552433732313a20746f6b656e20616c7265616479206d696e746564000000006044820152606401610929565b613a1e60008383600161308b565b613a2781612cbb565b15613a745760405162461bcd60e51b815260206004820152601c60248201527f4552433732313a20746f6b656e20616c7265616479206d696e746564000000006044820152606401610929565b6001600160a01b038216600081815260996020908152604080832080546001019055848352609890915280822080546001600160a01b0319168417905551839291907fddf252ad1be2c89b69c2b068fc378daa952ba7f163c4a11628f55a4df523b3ef908290a45050565b600054610100900460ff16613b065760405162461bcd60e51b815260040161092990614bf4565b600080546001600160a01b03909216620100000262010000600160b01b0319909216919091179055565b600061084082613b47565b610d4084848484613b6c565b60006001600160e01b0319821663780e9d6360e01b1480610840575061084082613cac565b613b7884848484613cfc565b6001811115613be75760405162461bcd60e51b815260206004820152603560248201527f455243373231456e756d657261626c653a20636f6e7365637574697665207472604482015274185b9cd9995c9cc81b9bdd081cdd5c1c1bdc9d1959605a1b6064820152608401610929565b816001600160a01b038516613c4357613c3e8160ca8054600083815260cb60205260408120829055600182018355919091527f42d72674974f694b5f5159593243114d38a5c39c89d6b62fee061ff523240ee10155565b613c66565b836001600160a01b0316856001600160a01b031614613c6657613c668582613d84565b6001600160a01b038416613c8257613c7d81613e21565b613ca5565b846001600160a01b0316846001600160a01b031614613ca557613ca58482613ed0565b5050505050565b60006001600160e01b031982166380ac58cd60e01b1480613cdd57506001600160e01b03198216635b5e139f60e01b145b8061084057506301ffc9a760e01b6001600160e01b0319831614610840565b6001811115610d40576001600160a01b03841615613d42576001600160a01b03841660009081526099602052604081208054839290613d3c908490614de9565b90915550505b6001600160a01b03831615610d40576001600160a01b03831660009081526099602052604081208054839290613d7990849061481e565b909155505050505050565b60006001613d9184610ffd565b613d9b9190614de9565b600083815260c96020526040902054909150808214613dee576001600160a01b038416600090815260c860209081526040808320858452825280832054848452818420819055835260c990915290208190555b50600091825260c9602090815260408084208490556001600160a01b03909416835260c881528383209183525290812055565b60ca54600090613e3390600190614de9565b600083815260cb602052604081205460ca8054939450909284908110613e5b57613e5b614687565b906000526020600020015490508060ca8381548110613e7c57613e7c614687565b600091825260208083209091019290925582815260cb909152604080822084905585825281205560ca805480613eb457613eb4614dfc565b6001900381819060005260206000200160009055905550505050565b6000613edb83610ffd565b6001600160a01b03909316600090815260c860209081526040808320868452825280832085905593825260c99052919091209190915550565b5080546000825590600052602060002090810190610c159190613f7d565b828054828255906000526020600020908101928215613f6d579160200282015b82811115613f6d578251825591602001919060010190613f52565b50613f79929150613f7d565b5090565b5b80821115613f795760008155600101613f7e565b6001600160e01b031981168114610c1557600080fd5b600060208284031215613fba57600080fd5b813561159b81613f92565b60005b83811015613fe0578181015183820152602001613fc8565b50506000910152565b60008151808452614001816020860160208601613fc5565b601f01601f19169290920160200192915050565b60208152600061159b6020830184613fe9565b60006020828403121561403a57600080fd5b5035919050565b80356001600160a01b038116811461405857600080fd5b919050565b6000806040838503121561407057600080fd5b61407983614041565b946020939093013593505050565b60006020828403121561409957600080fd5b61159b82614041565b600081518084526020808501945080840160005b838110156140d2578151875295820195908201906001016140b6565b509495945050505050565b6040815260006140f060408301856140a2565b828103602084015261410281856140a2565b95945050505050565b634e487b7160e01b600052604160045260246000fd5b604051601f8201601f191681016001600160401b03811182821017156141495761414961410b565b604052919050565b600082601f83011261416257600080fd5b813560206001600160401b0382111561417d5761417d61410b565b8160051b61418c828201614121565b92835284810182019282810190878511156141a657600080fd5b83870192505b848310156141c5578235825291830191908301906141ac565b979650505050505050565b6000602082840312156141e257600080fd5b81356001600160401b038111156141f857600080fd5b61242684828501614151565b60208152600061159b60208301846140a2565b6000806040838503121561422a57600080fd5b8235915060208301356001600160401b0381111561424757600080fd5b61425385828601614151565b9150509250929050565b60008060006060848603121561427257600080fd5b61427b84614041565b925061428960208501614041565b9150604084013590509250925092565b600080604083850312156142ac57600080fd5b823591506142bc60208401614041565b90509250929050565b600080604083850312156142d857600080fd5b6142e183614041565b915060208301356001600160401b0381111561424757600080fd5b60006001600160401b038311156143155761431561410b565b614328601f8401601f1916602001614121565b905082815283838301111561433c57600080fd5b828260208301376000602084830101529392505050565b60006020828403121561436557600080fd5b81356001600160401b0381111561437b57600080fd5b8201601f8101841361438c57600080fd5b612426848235602084016142fc565b6000602080830181845280855180835260408601915060408160051b870101925083870160005b828110156143f057603f198886030184526143de858351613fe9565b945092850192908501906001016143c2565b5092979650505050505050565b60208152600082516060602084015261441960808401826140a2565b9050602084015160408401526040840151601f1984830301606085015261410282826140a2565b6000806040838503121561445357600080fd5b50508035926020909101359150565b8015158114610c1557600080fd5b6000806040838503121561448357600080fd5b61448c83614041565b9150602083013561449c81614462565b809150509250929050565b6040815260006144ba60408301856140a2565b905082151560208301529392505050565b600080600080608085870312156144e157600080fd5b6144ea85614041565b93506144f860208601614041565b92506040850135915060608501356001600160401b0381111561451a57600080fd5b8501601f8101871361452b57600080fd5b61453a878235602084016142fc565b91505092959194509250565b6000806040838503121561455957600080fd5b82356001600160401b038082111561457057600080fd5b61457c86838701614151565b9350602085013591508082111561459257600080fd5b5061425385828601614151565b600080604083850312156145b257600080fd5b6145bb83614041565b91506142bc60208401614041565b6000806000606084860312156145de57600080fd5b6145e784614041565b92506145f560208501614041565b915060408401356001600160401b0381111561461057600080fd5b61461c86828701614151565b9150509250925092565b600181811c9082168061463a57607f821691505b6020821081036114bb57634e487b7160e01b600052602260045260246000fd5b602080825260139082015272426c61636b6c6973746564206164647265737360681b604082015260600190565b634e487b7160e01b600052603260045260246000fd5b634e487b7160e01b600052601160045260246000fd5b6000600182016146c5576146c561469d565b5060010190565b6020808252602d908201527f4552433732313a2063616c6c6572206973206e6f7420746f6b656e206f776e6560408201526c1c881bdc88185c1c1c9bdd9959609a1b606082015260800190565b601f82111561093c57600081815260208120601f850160051c810160208610156147405750805b601f850160051c820191505b81811015612b975782815560010161474c565b81516001600160401b038111156147785761477861410b565b61478c816147868454614626565b84614719565b602080601f8311600181146147c157600084156147a95750858301515b600019600386901b1c1916600185901b178555612b97565b600085815260208120601f198616915b828110156147f0578886015182559484019460019091019084016147d1565b508582101561480e5787850151600019600388901b60f8161c191681555b5050505050600190811b01905550565b808201808211156108405761084061469d565b80820281158282048414176108405761084061469d565b60006020828403121561485a57600080fd5b815161159b81614462565b634e487b7160e01b600052601260045260246000fd5b60008261488a5761488a614865565b500690565b600082516148a1818460208701613fc5565b602560f81b920191825250600101919050565b60008084546148c281614626565b600182811680156148da57600181146148ef5761491e565b60ff198416875282151583028701945061491e565b8860005260208060002060005b858110156149155781548a8201529084019082016148fc565b50505082870194505b505050508351614932818360208801613fc5565b01949350505050565b7f226e616d65223a22436f736d696320456c76657320446973636f756e74205469815265636b6574202360d01b602082015260008451614982816026850160208901613fc5565b61088b60f21b60269184019182018190527f226465736372697074696f6e223a22446973636f756e74207469636b6574207660288301527f616c696420666f72203120436f736d696320456c66222c0000000000000000006048830152681134b6b0b3b2911d1160b91b605f8301528551614a04816068850160208a01613fc5565b6068920191820152681137bbb732b9111d1160b91b606a8201528351614a31816073840160208801613fc5565b6141c5614a4b60738385010161088b60f21b815260020190565b6f089d1e5c19488e88915490cdcc8c488b60821b815260100190565b7f2261747472696275746573223a5b7b2274726169745f74797065223a2264697381526f31b7bab73a1116113b30b63ab2911d1160811b602082015260008351614ab8816030850160208801613fc5565b62089f4b60ea1b6030918401918201527f7b2274726169745f74797065223a226f646473222c2276616c7565223a22000060338201528351614b01816051840160208801613fc5565b62227d5d60e81b60519290910191820152605401949350505050565b607b60f81b815260008351614b39816001850160208801613fc5565b835190830190614b50816001840160208801613fc5565b607d60f81b60019290910191820152600201949350505050565b7f646174613a6170706c69636174696f6e2f6a736f6e3b6261736536342c000000815260008251614ba281601d850160208701613fc5565b91909101601d0192915050565b60208082526025908201527f4552433732313a207472616e736665722066726f6d20696e636f72726563742060408201526437bbb732b960d91b606082015260800190565b6020808252602b908201527f496e697469616c697a61626c653a20636f6e7472616374206973206e6f74206960408201526a6e697469616c697a696e6760a81b606082015260800190565b63ffffffff818116838216028082169190828114614c5f57614c5f61469d565b505092915050565b63ffffffff818116838216019080821115610a2d57610a2d61469d565b600060208284031215614c9657600080fd5b5051919050565b60208082526032908201527f4552433732313a207472616e7366657220746f206e6f6e20455243373231526560408201527131b2b4bb32b91034b6b83632b6b2b73a32b960711b606082015260800190565b600082614cfe57614cfe614865565b500490565b7f416363657373436f6e74726f6c3a206163636f756e7420000000000000000000815260008351614d3b816017850160208801613fc5565b7001034b99036b4b9b9b4b733903937b6329607d1b6017918401918201528351614d6c816028840160208801613fc5565b01602801949350505050565b6001600160a01b0385811682528416602082015260408101839052608060608201819052600090614dab90830184613fe9565b9695505050505050565b600060208284031215614dc757600080fd5b815161159b81613f92565b600081614de157614de161469d565b506000190190565b818103818111156108405761084061469d565b634e487b7160e01b600052603160045260246000fdfe68747470733a2f2f696d616765732e636f736d6963756e6976657273652e6f6e652f656c7665732d7469636b6574732f4142434445464748494a4b4c4d4e4f505152535455565758595a6162636465666768696a6b6c6d6e6f707172737475767778797a303132333435363738392b2f9f2df0fed2c77648de5860a4cc508cd0818c85b8b8a1ab4ceeef8d981c8956a6a49807205ce4d355092ef5a8a18f56e8913cf4a201fbe287825b095693c21775a264697066735822122018fc26b2f44ed11bc2722e50fc22f90d59642ca197a50f62e7f671b2ce49049e64736f6c63430008110033",
  "linkReferences": {},
  "deployedLinkReferences": {}
}