{
  "_format": "hh-sol-artifact-1",
  "contractName": "GameStorageUpgradeable",
  "sourceName": "contracts/GameStorageUpgradeable.sol",
  "abi": [
    {
      "inputs": [],
      "stateMutability": "nonpayable",
      "type": "constructor"
    },
    {
      "anonymous": false,
      "inputs": [
        {
          "indexed": false,
          "internalType": "address",
          "name": "account",
          "type": "address"
        }
      ],
      "name": "Paused",
      "type": "event"
    },
    {
      "anonymous": false,
      "inputs": [
        {
          "indexed": true,
          "internalType": "bytes32",
          "name": "role",
          "type": "bytes32"
        },
        {
          "indexed": true,
          "internalType": "bytes32",
          "name": "previousAdminRole",
          "type": "bytes32"
        },
        {
          "indexed": true,
          "internalType": "bytes32",
          "name": "newAdminRole",
          "type": "bytes32"
        }
      ],
      "name": "RoleAdminChanged",
      "type": "event"
    },
    {
      "anonymous": false,
      "inputs": [
        {
          "indexed": true,
          "internalType": "bytes32",
          "name": "role",
          "type": "bytes32"
        },
        {
          "indexed": true,
          "internalType": "address",
          "name": "account",
          "type": "address"
        },
        {
          "indexed": true,
          "internalType": "address",
          "name": "sender",
          "type": "address"
        }
      ],
      "name": "RoleGranted",
      "type": "event"
    },
    {
      "anonymous": false,
      "inputs": [
        {
          "indexed": true,
          "internalType": "bytes32",
          "name": "role",
          "type": "bytes32"
        },
        {
          "indexed": true,
          "internalType": "address",
          "name": "account",
          "type": "address"
        },
        {
          "indexed": true,
          "internalType": "address",
          "name": "sender",
          "type": "address"
        }
      ],
      "name": "RoleRevoked",
      "type": "event"
    },
    {
      "anonymous": false,
      "inputs": [
        {
          "indexed": false,
          "internalType": "address",
          "name": "account",
          "type": "address"
        }
      ],
      "name": "Unpaused",
      "type": "event"
    },
    {
      "inputs": [],
      "name": "DEFAULT_ADMIN_ROLE",
      "outputs": [
        {
          "internalType": "bytes32",
          "name": "",
          "type": "bytes32"
        }
      ],
      "stateMutability": "view",
      "type": "function"
    },
    {
      "inputs": [],
      "name": "PAUSER_ROLE",
      "outputs": [
        {
          "internalType": "bytes32",
          "name": "",
          "type": "bytes32"
        }
      ],
      "stateMutability": "view",
      "type": "function"
    },
    {
      "inputs": [],
      "name": "UPDATER_ROLE",
      "outputs": [
        {
          "internalType": "bytes32",
          "name": "",
          "type": "bytes32"
        }
      ],
      "stateMutability": "view",
      "type": "function"
    },
    {
      "inputs": [
        {
          "internalType": "bytes32",
          "name": "role",
          "type": "bytes32"
        }
      ],
      "name": "getRoleAdmin",
      "outputs": [
        {
          "internalType": "bytes32",
          "name": "",
          "type": "bytes32"
        }
      ],
      "stateMutability": "view",
      "type": "function"
    },
    {
      "inputs": [
        {
          "internalType": "address",
          "name": "nftAddress",
          "type": "address"
        },
        {
          "internalType": "uint256",
          "name": "tokenId",
          "type": "uint256"
        },
        {
          "internalType": "uint256",
          "name": "treeId",
          "type": "uint256"
        },
        {
          "internalType": "uint256",
          "name": "skillId",
          "type": "uint256"
        }
      ],
      "name": "getSkill",
      "outputs": [
        {
          "internalType": "uint256",
          "name": "value",
          "type": "uint256"
        }
      ],
      "stateMutability": "view",
      "type": "function"
    },
    {
      "inputs": [
        {
          "internalType": "bytes32",
          "name": "role",
          "type": "bytes32"
        },
        {
          "internalType": "address",
          "name": "account",
          "type": "address"
        }
      ],
      "name": "grantRole",
      "outputs": [],
      "stateMutability": "nonpayable",
      "type": "function"
    },
    {
      "inputs": [
        {
          "internalType": "bytes32",
          "name": "role",
          "type": "bytes32"
        },
        {
          "internalType": "address",
          "name": "account",
          "type": "address"
        }
      ],
      "name": "hasRole",
      "outputs": [
        {
          "internalType": "bool",
          "name": "",
          "type": "bool"
        }
      ],
      "stateMutability": "view",
      "type": "function"
    },
    {
      "inputs": [],
      "name": "initialize",
      "outputs": [],
      "stateMutability": "nonpayable",
      "type": "function"
    },
    {
      "inputs": [],
      "name": "pause",
      "outputs": [],
      "stateMutability": "nonpayable",
      "type": "function"
    },
    {
      "inputs": [],
      "name": "paused",
      "outputs": [
        {
          "internalType": "bool",
          "name": "",
          "type": "bool"
        }
      ],
      "stateMutability": "view",
      "type": "function"
    },
    {
      "inputs": [
        {
          "internalType": "bytes32",
          "name": "role",
          "type": "bytes32"
        },
        {
          "internalType": "address",
          "name": "account",
          "type": "address"
        }
      ],
      "name": "renounceRole",
      "outputs": [],
      "stateMutability": "nonpayable",
      "type": "function"
    },
    {
      "inputs": [
        {
          "internalType": "bytes32",
          "name": "role",
          "type": "bytes32"
        },
        {
          "internalType": "address",
          "name": "account",
          "type": "address"
        }
      ],
      "name": "revokeRole",
      "outputs": [],
      "stateMutability": "nonpayable",
      "type": "function"
    },
    {
      "inputs": [
        {
          "internalType": "bytes4",
          "name": "interfaceId",
          "type": "bytes4"
        }
      ],
      "name": "supportsInterface",
      "outputs": [
        {
          "internalType": "bool",
          "name": "",
          "type": "bool"
        }
      ],
      "stateMutability": "view",
      "type": "function"
    },
    {
      "inputs": [],
      "name": "unpause",
      "outputs": [],
      "stateMutability": "nonpayable",
      "type": "function"
    },
    {
      "inputs": [
        {
          "internalType": "address",
          "name": "nftAddress",
          "type": "address"
        },
        {
          "internalType": "uint256",
          "name": "tokenId",
          "type": "uint256"
        },
        {
          "internalType": "uint256",
          "name": "treeId",
          "type": "uint256"
        },
        {
          "internalType": "uint256",
          "name": "skillId",
          "type": "uint256"
        },
        {
          "internalType": "uint256",
          "name": "value",
          "type": "uint256"
        }
      ],
      "name": "updateSkill",
      "outputs": [],
      "stateMutability": "nonpayable",
      "type": "function"
    }
  ],
  "bytecode": "0x608060405234801561001057600080fd5b50600054610100900460ff1661002c5760005460ff1615610034565b6100346100d5565b61009b5760405162461bcd60e51b815260206004820152602e60248201527f496e697469616c697a61626c653a20636f6e747261637420697320616c72656160448201526d191e481a5b9a5d1a585b1a5e995960921b606482015260840160405180910390fd5b600054610100900460ff161580156100bd576000805461ffff19166101011790555b80156100cf576000805461ff00191690555b506100ff565b60006100ea306100f060201b61059d1760201c565b15905090565b6001600160a01b03163b151590565b610d488061010e6000396000f3fe608060405234801561001057600080fd5b50600436106100f55760003560e01c80635c975abb11610097578063a217fddf11610066578063a217fddf146101eb578063a6f4e49e146101f3578063d547741f1461023c578063e63ab1e91461024f57600080fd5b80635c975abb146101bd5780638129fc1c146101c85780638456cb59146101d057806391d14854146101d857600080fd5b80632f2ff15d116100d35780632f2ff15d1461016857806336568abe1461017b5780633f4ba83a1461018e57806347e633801461019657600080fd5b806301ffc9a7146100fa5780631a24db5214610122578063248a9ca314610137575b600080fd5b61010d610108366004610a39565b610264565b60405190151581526020015b60405180910390f35b610135610130366004610a7f565b61029b565b005b61015a610145366004610ac1565b60009081526097602052604090206001015490565b604051908152602001610119565b610135610176366004610ada565b610349565b610135610189366004610ada565b610374565b6101356103f2565b61015a7f73e573f9566d61418a34d5de3ff49360f9c51fec37f7486551670290f6285dab81565b60335460ff1661010d565b610135610416565b61013561052b565b61010d6101e6366004610ada565b61054c565b61015a600081565b61015a610201366004610b06565b6001600160a01b0393909316600090815260c96020908152604080832094835293815283822092825291825282812093815292905290205490565b61013561024a366004610ada565b610577565b61015a600080516020610cf383398151915281565b60006001600160e01b03198216637965db0b60e01b148061029557506301ffc9a760e01b6001600160e01b03198316145b92915050565b60335460ff16156102e65760405162461bcd60e51b815260206004820152601060248201526f14185d5cd8589b194e881c185d5cd95960821b60448201526064015b60405180910390fd5b7f73e573f9566d61418a34d5de3ff49360f9c51fec37f7486551670290f6285dab61031181336105ac565b506001600160a01b03909416600090815260c96020908152604080832095835294815284822093825292835283812091815291522055565b60008281526097602052604090206001015461036581336105ac565b61036f8383610610565b505050565b6001600160a01b03811633146103e45760405162461bcd60e51b815260206004820152602f60248201527f416363657373436f6e74726f6c3a2063616e206f6e6c792072656e6f756e636560448201526e103937b632b9903337b91039b2b63360891b60648201526084016102dd565b6103ee8282610696565b5050565b600080516020610cf383398151915261040b81336105ac565b6104136106fd565b50565b600054610100900460ff166104315760005460ff1615610435565b303b155b6104985760405162461bcd60e51b815260206004820152602e60248201527f496e697469616c697a61626c653a20636f6e747261637420697320616c72656160448201526d191e481a5b9a5d1a585b1a5e995960921b60648201526084016102dd565b600054610100900460ff161580156104ba576000805461ffff19166101011790555b6104c2610790565b6104ca6107c1565b6104d5600033610610565b6104ed600080516020610cf383398151915233610610565b6105177f73e573f9566d61418a34d5de3ff49360f9c51fec37f7486551670290f6285dab33610610565b8015610413576000805461ff001916905550565b600080516020610cf383398151915261054481336105ac565b6104136107e8565b60009182526097602090815260408084206001600160a01b0393909316845291905290205460ff1690565b60008281526097602052604090206001015461059381336105ac565b61036f8383610696565b6001600160a01b03163b151590565b6105b6828261054c565b6103ee576105ce816001600160a01b03166014610863565b6105d9836020610863565b6040516020016105ea929190610b6f565b60408051601f198184030181529082905262461bcd60e51b82526102dd91600401610be4565b61061a828261054c565b6103ee5760008281526097602090815260408083206001600160a01b03851684529091529020805460ff191660011790556106523390565b6001600160a01b0316816001600160a01b0316837f2f8788117e7eff1d82e926ec794901d17c78024a50270940304540a733656f0d60405160405180910390a45050565b6106a0828261054c565b156103ee5760008281526097602090815260408083206001600160a01b0385168085529252808320805460ff1916905551339285917ff6391f5c32d9c69d2a47ea670b442974b53935d1edc7fd64eb21e047a839171b9190a45050565b60335460ff166107465760405162461bcd60e51b815260206004820152601460248201527314185d5cd8589b194e881b9bdd081c185d5cd95960621b60448201526064016102dd565b6033805460ff191690557f5db9ee0a495bf2e6ff9c91a7834c1ba4fdd244a5e8aa4e537bd38aeae4b073aa335b6040516001600160a01b03909116815260200160405180910390a1565b600054610100900460ff166107b75760405162461bcd60e51b81526004016102dd90610c17565b6107bf610a06565b565b600054610100900460ff166107bf5760405162461bcd60e51b81526004016102dd90610c17565b60335460ff161561082e5760405162461bcd60e51b815260206004820152601060248201526f14185d5cd8589b194e881c185d5cd95960821b60448201526064016102dd565b6033805460ff191660011790557f62e78cea01bee320cd4e420270b5ea74000d11b0c9f74754ebdbfc544b05a2586107733390565b60606000610872836002610c78565b61087d906002610c97565b67ffffffffffffffff81111561089557610895610caf565b6040519080825280601f01601f1916602001820160405280156108bf576020820181803683370190505b509050600360fc1b816000815181106108da576108da610cc5565b60200101906001600160f81b031916908160001a905350600f60fb1b8160018151811061090957610909610cc5565b60200101906001600160f81b031916908160001a905350600061092d846002610c78565b610938906001610c97565b90505b60018111156109b0576f181899199a1a9b1b9c1cb0b131b232b360811b85600f166010811061096c5761096c610cc5565b1a60f81b82828151811061098257610982610cc5565b60200101906001600160f81b031916908160001a90535060049490941c936109a981610cdb565b905061093b565b5083156109ff5760405162461bcd60e51b815260206004820181905260248201527f537472696e67733a20686578206c656e67746820696e73756666696369656e7460448201526064016102dd565b9392505050565b600054610100900460ff16610a2d5760405162461bcd60e51b81526004016102dd90610c17565b6033805460ff19169055565b600060208284031215610a4b57600080fd5b81356001600160e01b0319811681146109ff57600080fd5b80356001600160a01b0381168114610a7a57600080fd5b919050565b600080600080600060a08688031215610a9757600080fd5b610aa086610a63565b97602087013597506040870135966060810135965060800135945092505050565b600060208284031215610ad357600080fd5b5035919050565b60008060408385031215610aed57600080fd5b82359150610afd60208401610a63565b90509250929050565b60008060008060808587031215610b1c57600080fd5b610b2585610a63565b966020860135965060408601359560600135945092505050565b60005b83811015610b5a578181015183820152602001610b42565b83811115610b69576000848401525b50505050565b7f416363657373436f6e74726f6c3a206163636f756e7420000000000000000000815260008351610ba7816017850160208801610b3f565b7001034b99036b4b9b9b4b733903937b6329607d1b6017918401918201528351610bd8816028840160208801610b3f565b01602801949350505050565b6020815260008251806020840152610c03816040850160208701610b3f565b601f01601f19169190910160400192915050565b6020808252602b908201527f496e697469616c697a61626c653a20636f6e7472616374206973206e6f74206960408201526a6e697469616c697a696e6760a81b606082015260800190565b634e487b7160e01b600052601160045260246000fd5b6000816000190483118215151615610c9257610c92610c62565b500290565b60008219821115610caa57610caa610c62565b500190565b634e487b7160e01b600052604160045260246000fd5b634e487b7160e01b600052603260045260246000fd5b600081610cea57610cea610c62565b50600019019056fe65d7a28e3265b37a6474929f336521b332c1681b933f6cb9f3376673440d862aa26469706673582212205c4529344fa886a29847df87d9638f5c4ace73b5b8a58cc9a93b718a2c95dbe964736f6c63430008090033",
  "linkReferences": {},
  "deployedLinkReferences": {}
}