{
  "_format": "hh-sol-artifact-1",
  "contractName": "GameStorageUpgradeable",
  "sourceName": "contracts/GameStorageUpgradeable.sol",
  "abi": [
    {
      "inputs": [],
      "stateMutability": "nonpayable",
      "type": "constructor"
    },
    {
      "anonymous": false,
      "inputs": [
        {
          "indexed": false,
          "internalType": "address",
          "name": "account",
          "type": "address"
        }
      ],
      "name": "Paused",
      "type": "event"
    },
    {
      "anonymous": false,
      "inputs": [
        {
          "indexed": true,
          "internalType": "bytes32",
          "name": "role",
          "type": "bytes32"
        },
        {
          "indexed": true,
          "internalType": "bytes32",
          "name": "previousAdminRole",
          "type": "bytes32"
        },
        {
          "indexed": true,
          "internalType": "bytes32",
          "name": "newAdminRole",
          "type": "bytes32"
        }
      ],
      "name": "RoleAdminChanged",
      "type": "event"
    },
    {
      "anonymous": false,
      "inputs": [
        {
          "indexed": true,
          "internalType": "bytes32",
          "name": "role",
          "type": "bytes32"
        },
        {
          "indexed": true,
          "internalType": "address",
          "name": "account",
          "type": "address"
        },
        {
          "indexed": true,
          "internalType": "address",
          "name": "sender",
          "type": "address"
        }
      ],
      "name": "RoleGranted",
      "type": "event"
    },
    {
      "anonymous": false,
      "inputs": [
        {
          "indexed": true,
          "internalType": "bytes32",
          "name": "role",
          "type": "bytes32"
        },
        {
          "indexed": true,
          "internalType": "address",
          "name": "account",
          "type": "address"
        },
        {
          "indexed": true,
          "internalType": "address",
          "name": "sender",
          "type": "address"
        }
      ],
      "name": "RoleRevoked",
      "type": "event"
    },
    {
      "anonymous": false,
      "inputs": [
        {
          "indexed": false,
          "internalType": "address",
          "name": "account",
          "type": "address"
        }
      ],
      "name": "Unpaused",
      "type": "event"
    },
    {
      "inputs": [],
      "name": "DEFAULT_ADMIN_ROLE",
      "outputs": [
        {
          "internalType": "bytes32",
          "name": "",
          "type": "bytes32"
        }
      ],
      "stateMutability": "view",
      "type": "function"
    },
    {
      "inputs": [],
      "name": "PAUSER_ROLE",
      "outputs": [
        {
          "internalType": "bytes32",
          "name": "",
          "type": "bytes32"
        }
      ],
      "stateMutability": "view",
      "type": "function"
    },
    {
      "inputs": [],
      "name": "UPDATER_ROLE",
      "outputs": [
        {
          "internalType": "bytes32",
          "name": "",
          "type": "bytes32"
        }
      ],
      "stateMutability": "view",
      "type": "function"
    },
    {
      "inputs": [
        {
          "internalType": "bytes32",
          "name": "role",
          "type": "bytes32"
        }
      ],
      "name": "getRoleAdmin",
      "outputs": [
        {
          "internalType": "bytes32",
          "name": "",
          "type": "bytes32"
        }
      ],
      "stateMutability": "view",
      "type": "function"
    },
    {
      "inputs": [
        {
          "internalType": "address",
          "name": "nftAddress",
          "type": "address"
        },
        {
          "internalType": "uint256",
          "name": "tokenId",
          "type": "uint256"
        },
        {
          "internalType": "uint256",
          "name": "treeId",
          "type": "uint256"
        },
        {
          "internalType": "uint256",
          "name": "skillId",
          "type": "uint256"
        }
      ],
      "name": "getSkill",
      "outputs": [
        {
          "internalType": "uint256",
          "name": "value",
          "type": "uint256"
        }
      ],
      "stateMutability": "view",
      "type": "function"
    },
    {
      "inputs": [
        {
          "internalType": "address",
          "name": "nftAddress",
          "type": "address"
        },
        {
          "internalType": "uint256",
          "name": "tokenId",
          "type": "uint256"
        },
        {
          "internalType": "uint256",
          "name": "treeId",
          "type": "uint256"
        },
        {
          "internalType": "uint256[]",
          "name": "skillIds",
          "type": "uint256[]"
        }
      ],
      "name": "getSkillsByTree",
      "outputs": [
        {
          "internalType": "uint256[]",
          "name": "",
          "type": "uint256[]"
        }
      ],
      "stateMutability": "view",
      "type": "function"
    },
    {
      "inputs": [
        {
          "internalType": "address",
          "name": "nftAddress",
          "type": "address"
        },
        {
          "internalType": "uint256",
          "name": "tokenId",
          "type": "uint256"
        },
        {
          "internalType": "uint256",
          "name": "customId",
          "type": "uint256"
        }
      ],
      "name": "getTokenString",
      "outputs": [
        {
          "internalType": "string",
          "name": "value",
          "type": "string"
        }
      ],
      "stateMutability": "view",
      "type": "function"
    },
    {
      "inputs": [
        {
          "internalType": "address",
          "name": "nftAddress",
          "type": "address"
        },
        {
          "internalType": "uint256",
          "name": "tokenId",
          "type": "uint256"
        },
        {
          "internalType": "uint256[]",
          "name": "customIds",
          "type": "uint256[]"
        }
      ],
      "name": "getTokenStrings",
      "outputs": [
        {
          "internalType": "string[]",
          "name": "",
          "type": "string[]"
        }
      ],
      "stateMutability": "view",
      "type": "function"
    },
    {
      "inputs": [
        {
          "internalType": "bytes32",
          "name": "role",
          "type": "bytes32"
        },
        {
          "internalType": "address",
          "name": "account",
          "type": "address"
        }
      ],
      "name": "grantRole",
      "outputs": [],
      "stateMutability": "nonpayable",
      "type": "function"
    },
    {
      "inputs": [
        {
          "internalType": "bytes32",
          "name": "role",
          "type": "bytes32"
        },
        {
          "internalType": "address",
          "name": "account",
          "type": "address"
        }
      ],
      "name": "hasRole",
      "outputs": [
        {
          "internalType": "bool",
          "name": "",
          "type": "bool"
        }
      ],
      "stateMutability": "view",
      "type": "function"
    },
    {
      "inputs": [],
      "name": "initialize",
      "outputs": [],
      "stateMutability": "nonpayable",
      "type": "function"
    },
    {
      "inputs": [],
      "name": "pause",
      "outputs": [],
      "stateMutability": "nonpayable",
      "type": "function"
    },
    {
      "inputs": [],
      "name": "paused",
      "outputs": [
        {
          "internalType": "bool",
          "name": "",
          "type": "bool"
        }
      ],
      "stateMutability": "view",
      "type": "function"
    },
    {
      "inputs": [
        {
          "internalType": "bytes32",
          "name": "role",
          "type": "bytes32"
        },
        {
          "internalType": "address",
          "name": "account",
          "type": "address"
        }
      ],
      "name": "renounceRole",
      "outputs": [],
      "stateMutability": "nonpayable",
      "type": "function"
    },
    {
      "inputs": [
        {
          "internalType": "bytes32",
          "name": "role",
          "type": "bytes32"
        },
        {
          "internalType": "address",
          "name": "account",
          "type": "address"
        }
      ],
      "name": "revokeRole",
      "outputs": [],
      "stateMutability": "nonpayable",
      "type": "function"
    },
    {
      "inputs": [
        {
          "internalType": "bytes4",
          "name": "interfaceId",
          "type": "bytes4"
        }
      ],
      "name": "supportsInterface",
      "outputs": [
        {
          "internalType": "bool",
          "name": "",
          "type": "bool"
        }
      ],
      "stateMutability": "view",
      "type": "function"
    },
    {
      "inputs": [],
      "name": "unpause",
      "outputs": [],
      "stateMutability": "nonpayable",
      "type": "function"
    },
    {
      "inputs": [
        {
          "internalType": "address",
          "name": "nftAddress",
          "type": "address"
        },
        {
          "internalType": "uint256",
          "name": "tokenId",
          "type": "uint256"
        },
        {
          "internalType": "uint256",
          "name": "treeId",
          "type": "uint256"
        },
        {
          "internalType": "uint256",
          "name": "skillId",
          "type": "uint256"
        },
        {
          "internalType": "uint256",
          "name": "value",
          "type": "uint256"
        }
      ],
      "name": "updateSkill",
      "outputs": [],
      "stateMutability": "nonpayable",
      "type": "function"
    },
    {
      "inputs": [
        {
          "internalType": "address",
          "name": "nftAddress",
          "type": "address"
        },
        {
          "internalType": "uint256",
          "name": "tokenId",
          "type": "uint256"
        },
        {
          "internalType": "uint256",
          "name": "customId",
          "type": "uint256"
        },
        {
          "internalType": "string",
          "name": "value",
          "type": "string"
        }
      ],
      "name": "updateTokenString",
      "outputs": [],
      "stateMutability": "nonpayable",
      "type": "function"
    }
  ],
  "bytecode": "0x60806040523480156200001157600080fd5b50600054610100900460ff166200002f5760005460ff161562000039565b62000039620000de565b620000a15760405162461bcd60e51b815260206004820152602e60248201527f496e697469616c697a61626c653a20636f6e747261637420697320616c72656160448201526d191e481a5b9a5d1a585b1a5e995960921b606482015260840160405180910390fd5b600054610100900460ff16158015620000c4576000805461ffff19166101011790555b8015620000d7576000805461ff00191690555b506200010b565b6000620000f630620000fc60201b6200097f1760201c565b15905090565b6001600160a01b03163b151590565b611547806200011b6000396000f3fe608060405234801561001057600080fd5b50600436106101215760003560e01c80638129fc1c116100ad578063a6f4e49e11610071578063a6f4e49e1461024d578063be75f8de14610296578063d547741f146102b6578063d9132ce5146102c9578063e63ab1e9146102dc57600080fd5b80638129fc1c146102025780638456cb591461020a57806391d148541461021257806396a66b7014610225578063a217fddf1461024557600080fd5b806336568abe116100f457806336568abe146101a75780633f4ba83a146101ba57806347e63380146101c25780635287090c146101d75780635c975abb146101f757600080fd5b806301ffc9a7146101265780631a24db521461014e578063248a9ca3146101635780632f2ff15d14610194575b600080fd5b610139610134366004610e91565b6102f1565b60405190151581526020015b60405180910390f35b61016161015c366004610ed7565b610328565b005b610186610171366004610f19565b60009081526097602052604090206001015490565b604051908152602001610145565b6101616101a2366004610f32565b6103a5565b6101616101b5366004610f32565b6103d0565b61016161044e565b6101866000805160206114d283398151915281565b6101ea6101e5366004611025565b610472565b6040516101459190611086565b60335460ff16610139565b61016161055a565b61016161065d565b610139610220366004610f32565b61067e565b6102386102333660046110ca565b6106a9565b604051610145919061117d565b610186600081565b61018661025b3660046111df565b6001600160a01b0393909316600090815260c96020908152604080832094835293815283822092825291825282812093815292905290205490565b6102a96102a4366004611218565b61081b565b604051610145919061124b565b6101616102c4366004610f32565b6108dc565b6101616102d736600461125e565b610902565b6101866000805160206114f283398151915281565b60006001600160e01b03198216637965db0b60e01b148061032257506301ffc9a760e01b6001600160e01b03198316145b92915050565b60335460ff16156103545760405162461bcd60e51b815260040161034b90611317565b60405180910390fd5b6000805160206114d283398151915261036d813361098e565b506001600160a01b03909416600090815260c96020908152604080832095835294815284822093825292835283812091815291522055565b6000828152609760205260409020600101546103c1813361098e565b6103cb83836109f2565b505050565b6001600160a01b03811633146104405760405162461bcd60e51b815260206004820152602f60248201527f416363657373436f6e74726f6c3a2063616e206f6e6c792072656e6f756e636560448201526e103937b632b9903337b91039b2b63360891b606482015260840161034b565b61044a8282610a78565b5050565b6000805160206114f2833981519152610467813361098e565b61046f610adf565b50565b60606000825167ffffffffffffffff81111561049057610490610f5e565b6040519080825280602002602001820160405280156104b9578160200160208202803683370190505b50905060005b8351811015610550576001600160a01b038716600090815260c96020908152604080832089845282528083208884529091528120855190919086908490811061050a5761050a611341565b602002602001015181526020019081526020016000205482828151811061053357610533611341565b6020908102919091010152806105488161136d565b9150506104bf565b5095945050505050565b600054610100900460ff166105755760005460ff1615610579565b303b155b6105dc5760405162461bcd60e51b815260206004820152602e60248201527f496e697469616c697a61626c653a20636f6e747261637420697320616c72656160448201526d191e481a5b9a5d1a585b1a5e995960921b606482015260840161034b565b600054610100900460ff161580156105fe576000805461ffff19166101011790555b610606610b72565b61060e610ba3565b6106196000336109f2565b6106316000805160206114f2833981519152336109f2565b6106496000805160206114d2833981519152336109f2565b801561046f576000805461ff001916905550565b6000805160206114f2833981519152610676813361098e565b61046f610bca565b60009182526097602090815260408084206001600160a01b0393909316845291905290205460ff1690565b60606000825167ffffffffffffffff8111156106c7576106c7610f5e565b6040519080825280602002602001820160405280156106fa57816020015b60608152602001906001900390816106e55790505b50905060005b8351811015610812576001600160a01b038616600090815260ca602090815260408083208884529091528120855190919086908490811061074357610743611341565b60200260200101518152602001908152602001600020805461076490611388565b80601f016020809104026020016040519081016040528092919081815260200182805461079090611388565b80156107dd5780601f106107b2576101008083540402835291602001916107dd565b820191906000526020600020905b8154815290600101906020018083116107c057829003601f168201915b50505050508282815181106107f4576107f4611341565b6020026020010181905250808061080a9061136d565b915050610700565b50949350505050565b6001600160a01b038316600090815260ca602090815260408083208584528252808320848452909152902080546060919061085590611388565b80601f016020809104026020016040519081016040528092919081815260200182805461088190611388565b80156108ce5780601f106108a3576101008083540402835291602001916108ce565b820191906000526020600020905b8154815290600101906020018083116108b157829003601f168201915b505050505090509392505050565b6000828152609760205260409020600101546108f8813361098e565b6103cb8383610a78565b60335460ff16156109255760405162461bcd60e51b815260040161034b90611317565b6000805160206114d283398151915261093e813361098e565b6001600160a01b038516600090815260ca6020908152604080832087845282528083208684528252909120835161097792850190610df8565b505050505050565b6001600160a01b03163b151590565b610998828261067e565b61044a576109b0816001600160a01b03166014610c22565b6109bb836020610c22565b6040516020016109cc9291906113c3565b60408051601f198184030181529082905262461bcd60e51b825261034b9160040161124b565b6109fc828261067e565b61044a5760008281526097602090815260408083206001600160a01b03851684529091529020805460ff19166001179055610a343390565b6001600160a01b0316816001600160a01b0316837f2f8788117e7eff1d82e926ec794901d17c78024a50270940304540a733656f0d60405160405180910390a45050565b610a82828261067e565b1561044a5760008281526097602090815260408083206001600160a01b0385168085529252808320805460ff1916905551339285917ff6391f5c32d9c69d2a47ea670b442974b53935d1edc7fd64eb21e047a839171b9190a45050565b60335460ff16610b285760405162461bcd60e51b815260206004820152601460248201527314185d5cd8589b194e881b9bdd081c185d5cd95960621b604482015260640161034b565b6033805460ff191690557f5db9ee0a495bf2e6ff9c91a7834c1ba4fdd244a5e8aa4e537bd38aeae4b073aa335b6040516001600160a01b03909116815260200160405180910390a1565b600054610100900460ff16610b995760405162461bcd60e51b815260040161034b90611438565b610ba1610dc5565b565b600054610100900460ff16610ba15760405162461bcd60e51b815260040161034b90611438565b60335460ff1615610bed5760405162461bcd60e51b815260040161034b90611317565b6033805460ff191660011790557f62e78cea01bee320cd4e420270b5ea74000d11b0c9f74754ebdbfc544b05a258610b553390565b60606000610c31836002611483565b610c3c9060026114a2565b67ffffffffffffffff811115610c5457610c54610f5e565b6040519080825280601f01601f191660200182016040528015610c7e576020820181803683370190505b509050600360fc1b81600081518110610c9957610c99611341565b60200101906001600160f81b031916908160001a905350600f60fb1b81600181518110610cc857610cc8611341565b60200101906001600160f81b031916908160001a9053506000610cec846002611483565b610cf79060016114a2565b90505b6001811115610d6f576f181899199a1a9b1b9c1cb0b131b232b360811b85600f1660108110610d2b57610d2b611341565b1a60f81b828281518110610d4157610d41611341565b60200101906001600160f81b031916908160001a90535060049490941c93610d68816114ba565b9050610cfa565b508315610dbe5760405162461bcd60e51b815260206004820181905260248201527f537472696e67733a20686578206c656e67746820696e73756666696369656e74604482015260640161034b565b9392505050565b600054610100900460ff16610dec5760405162461bcd60e51b815260040161034b90611438565b6033805460ff19169055565b828054610e0490611388565b90600052602060002090601f016020900481019282610e265760008555610e6c565b82601f10610e3f57805160ff1916838001178555610e6c565b82800160010185558215610e6c579182015b82811115610e6c578251825591602001919060010190610e51565b50610e78929150610e7c565b5090565b5b80821115610e785760008155600101610e7d565b600060208284031215610ea357600080fd5b81356001600160e01b031981168114610dbe57600080fd5b80356001600160a01b0381168114610ed257600080fd5b919050565b600080600080600060a08688031215610eef57600080fd5b610ef886610ebb565b97602087013597506040870135966060810135965060800135945092505050565b600060208284031215610f2b57600080fd5b5035919050565b60008060408385031215610f4557600080fd5b82359150610f5560208401610ebb565b90509250929050565b634e487b7160e01b600052604160045260246000fd5b604051601f8201601f1916810167ffffffffffffffff81118282101715610f9d57610f9d610f5e565b604052919050565b600082601f830112610fb657600080fd5b8135602067ffffffffffffffff821115610fd257610fd2610f5e565b8160051b610fe1828201610f74565b9283528481018201928281019087851115610ffb57600080fd5b83870192505b8483101561101a57823582529183019190830190611001565b979650505050505050565b6000806000806080858703121561103b57600080fd5b61104485610ebb565b93506020850135925060408501359150606085013567ffffffffffffffff81111561106e57600080fd5b61107a87828801610fa5565b91505092959194509250565b6020808252825182820181905260009190848201906040850190845b818110156110be578351835292840192918401916001016110a2565b50909695505050505050565b6000806000606084860312156110df57600080fd5b6110e884610ebb565b925060208401359150604084013567ffffffffffffffff81111561110b57600080fd5b61111786828701610fa5565b9150509250925092565b60005b8381101561113c578181015183820152602001611124565b8381111561114b576000848401525b50505050565b60008151808452611169816020860160208601611121565b601f01601f19169290920160200192915050565b6000602080830181845280855180835260408601915060408160051b870101925083870160005b828110156111d257603f198886030184526111c0858351611151565b945092850192908501906001016111a4565b5092979650505050505050565b600080600080608085870312156111f557600080fd5b6111fe85610ebb565b966020860135965060408601359560600135945092505050565b60008060006060848603121561122d57600080fd5b61123684610ebb565b95602085013595506040909401359392505050565b602081526000610dbe6020830184611151565b6000806000806080858703121561127457600080fd5b61127d85610ebb565b9350602080860135935060408601359250606086013567ffffffffffffffff808211156112a957600080fd5b818801915088601f8301126112bd57600080fd5b8135818111156112cf576112cf610f5e565b6112e1601f8201601f19168501610f74565b915080825289848285010111156112f757600080fd5b808484018584013760008482840101525080935050505092959194509250565b60208082526010908201526f14185d5cd8589b194e881c185d5cd95960821b604082015260600190565b634e487b7160e01b600052603260045260246000fd5b634e487b7160e01b600052601160045260246000fd5b600060001982141561138157611381611357565b5060010190565b600181811c9082168061139c57607f821691505b602082108114156113bd57634e487b7160e01b600052602260045260246000fd5b50919050565b7f416363657373436f6e74726f6c3a206163636f756e74200000000000000000008152600083516113fb816017850160208801611121565b7001034b99036b4b9b9b4b733903937b6329607d1b601791840191820152835161142c816028840160208801611121565b01602801949350505050565b6020808252602b908201527f496e697469616c697a61626c653a20636f6e7472616374206973206e6f74206960408201526a6e697469616c697a696e6760a81b606082015260800190565b600081600019048311821515161561149d5761149d611357565b500290565b600082198211156114b5576114b5611357565b500190565b6000816114c9576114c9611357565b50600019019056fe73e573f9566d61418a34d5de3ff49360f9c51fec37f7486551670290f6285dab65d7a28e3265b37a6474929f336521b332c1681b933f6cb9f3376673440d862aa264697066735822122099a896610e32f8b7dc41eb65965eccdcacc6f3e95043f49a78a9ddbc0d76a38664736f6c63430008090033",
  "linkReferences": {},
  "deployedLinkReferences": {}
}