{
  "_format": "hh-sol-artifact-1",
  "contractName": "CosmicComponents",
  "sourceName": "contracts/upgradeable/ERC1155/CosmicComponents.sol",
  "abi": [
    {
      "inputs": [],
      "stateMutability": "nonpayable",
      "type": "constructor"
    },
    {
      "anonymous": false,
      "inputs": [
        {
          "indexed": true,
          "internalType": "address",
          "name": "account",
          "type": "address"
        },
        {
          "indexed": true,
          "internalType": "address",
          "name": "operator",
          "type": "address"
        },
        {
          "indexed": false,
          "internalType": "bool",
          "name": "approved",
          "type": "bool"
        }
      ],
      "name": "ApprovalForAll",
      "type": "event"
    },
    {
      "anonymous": false,
      "inputs": [
        {
          "indexed": false,
          "internalType": "uint8",
          "name": "version",
          "type": "uint8"
        }
      ],
      "name": "Initialized",
      "type": "event"
    },
    {
      "anonymous": false,
      "inputs": [
        {
          "indexed": true,
          "internalType": "uint256",
          "name": "tokenId",
          "type": "uint256"
        },
        {
          "indexed": false,
          "internalType": "uint256",
          "name": "attributeId",
          "type": "uint256"
        },
        {
          "indexed": false,
          "internalType": "string",
          "name": "name",
          "type": "string"
        }
      ],
      "name": "NameUpdated",
      "type": "event"
    },
    {
      "anonymous": false,
      "inputs": [
        {
          "indexed": true,
          "internalType": "uint256",
          "name": "tokenId",
          "type": "uint256"
        },
        {
          "indexed": false,
          "internalType": "uint256[]",
          "name": "attributeIds",
          "type": "uint256[]"
        },
        {
          "indexed": false,
          "internalType": "string[]",
          "name": "names",
          "type": "string[]"
        }
      ],
      "name": "NamesUpdated",
      "type": "event"
    },
    {
      "anonymous": false,
      "inputs": [
        {
          "indexed": false,
          "internalType": "address",
          "name": "account",
          "type": "address"
        }
      ],
      "name": "Paused",
      "type": "event"
    },
    {
      "anonymous": false,
      "inputs": [
        {
          "indexed": true,
          "internalType": "bytes32",
          "name": "role",
          "type": "bytes32"
        },
        {
          "indexed": true,
          "internalType": "bytes32",
          "name": "previousAdminRole",
          "type": "bytes32"
        },
        {
          "indexed": true,
          "internalType": "bytes32",
          "name": "newAdminRole",
          "type": "bytes32"
        }
      ],
      "name": "RoleAdminChanged",
      "type": "event"
    },
    {
      "anonymous": false,
      "inputs": [
        {
          "indexed": true,
          "internalType": "bytes32",
          "name": "role",
          "type": "bytes32"
        },
        {
          "indexed": true,
          "internalType": "address",
          "name": "account",
          "type": "address"
        },
        {
          "indexed": true,
          "internalType": "address",
          "name": "sender",
          "type": "address"
        }
      ],
      "name": "RoleGranted",
      "type": "event"
    },
    {
      "anonymous": false,
      "inputs": [
        {
          "indexed": true,
          "internalType": "bytes32",
          "name": "role",
          "type": "bytes32"
        },
        {
          "indexed": true,
          "internalType": "address",
          "name": "account",
          "type": "address"
        },
        {
          "indexed": true,
          "internalType": "address",
          "name": "sender",
          "type": "address"
        }
      ],
      "name": "RoleRevoked",
      "type": "event"
    },
    {
      "anonymous": false,
      "inputs": [
        {
          "indexed": true,
          "internalType": "address",
          "name": "operator",
          "type": "address"
        },
        {
          "indexed": true,
          "internalType": "address",
          "name": "from",
          "type": "address"
        },
        {
          "indexed": true,
          "internalType": "address",
          "name": "to",
          "type": "address"
        },
        {
          "indexed": false,
          "internalType": "uint256[]",
          "name": "ids",
          "type": "uint256[]"
        },
        {
          "indexed": false,
          "internalType": "uint256[]",
          "name": "values",
          "type": "uint256[]"
        }
      ],
      "name": "TransferBatch",
      "type": "event"
    },
    {
      "anonymous": false,
      "inputs": [
        {
          "indexed": true,
          "internalType": "address",
          "name": "operator",
          "type": "address"
        },
        {
          "indexed": true,
          "internalType": "address",
          "name": "from",
          "type": "address"
        },
        {
          "indexed": true,
          "internalType": "address",
          "name": "to",
          "type": "address"
        },
        {
          "indexed": false,
          "internalType": "uint256",
          "name": "id",
          "type": "uint256"
        },
        {
          "indexed": false,
          "internalType": "uint256",
          "name": "value",
          "type": "uint256"
        }
      ],
      "name": "TransferSingle",
      "type": "event"
    },
    {
      "anonymous": false,
      "inputs": [
        {
          "indexed": false,
          "internalType": "string",
          "name": "value",
          "type": "string"
        },
        {
          "indexed": true,
          "internalType": "uint256",
          "name": "id",
          "type": "uint256"
        }
      ],
      "name": "URI",
      "type": "event"
    },
    {
      "anonymous": false,
      "inputs": [
        {
          "indexed": false,
          "internalType": "address",
          "name": "account",
          "type": "address"
        }
      ],
      "name": "Unpaused",
      "type": "event"
    },
    {
      "anonymous": false,
      "inputs": [
        {
          "indexed": true,
          "internalType": "uint256",
          "name": "tokenId",
          "type": "uint256"
        },
        {
          "indexed": false,
          "internalType": "uint256",
          "name": "attributeId",
          "type": "uint256"
        },
        {
          "indexed": false,
          "internalType": "uint256",
          "name": "value",
          "type": "uint256"
        }
      ],
      "name": "ValueUpdated",
      "type": "event"
    },
    {
      "anonymous": false,
      "inputs": [
        {
          "indexed": true,
          "internalType": "uint256",
          "name": "tokenId",
          "type": "uint256"
        },
        {
          "indexed": false,
          "internalType": "uint256[]",
          "name": "attributeIds",
          "type": "uint256[]"
        },
        {
          "indexed": false,
          "internalType": "uint256[]",
          "name": "values",
          "type": "uint256[]"
        }
      ],
      "name": "ValuesUpdated",
      "type": "event"
    },
    {
      "inputs": [],
      "name": "CONTRACT_ROLE",
      "outputs": [
        {
          "internalType": "bytes32",
          "name": "",
          "type": "bytes32"
        }
      ],
      "stateMutability": "view",
      "type": "function"
    },
    {
      "inputs": [],
      "name": "DEFAULT_ADMIN_ROLE",
      "outputs": [
        {
          "internalType": "bytes32",
          "name": "",
          "type": "bytes32"
        }
      ],
      "stateMutability": "view",
      "type": "function"
    },
    {
      "inputs": [],
      "name": "SOULBOUND_WHITELIST_ROLE",
      "outputs": [
        {
          "internalType": "bytes32",
          "name": "",
          "type": "bytes32"
        }
      ],
      "stateMutability": "view",
      "type": "function"
    },
    {
      "inputs": [],
      "name": "activeIds",
      "outputs": [
        {
          "internalType": "uint256[]",
          "name": "",
          "type": "uint256[]"
        }
      ],
      "stateMutability": "view",
      "type": "function"
    },
    {
      "inputs": [
        {
          "internalType": "address",
          "name": "account",
          "type": "address"
        },
        {
          "internalType": "uint256",
          "name": "id",
          "type": "uint256"
        }
      ],
      "name": "balanceOf",
      "outputs": [
        {
          "internalType": "uint256",
          "name": "",
          "type": "uint256"
        }
      ],
      "stateMutability": "view",
      "type": "function"
    },
    {
      "inputs": [],
      "name": "balanceOfAll",
      "outputs": [
        {
          "internalType": "address[]",
          "name": "owners",
          "type": "address[]"
        },
        {
          "internalType": "uint256[][]",
          "name": "tokenIds",
          "type": "uint256[][]"
        },
        {
          "internalType": "uint256[][]",
          "name": "balances",
          "type": "uint256[][]"
        }
      ],
      "stateMutability": "view",
      "type": "function"
    },
    {
      "inputs": [
        {
          "internalType": "address[]",
          "name": "accounts",
          "type": "address[]"
        },
        {
          "internalType": "uint256[]",
          "name": "ids",
          "type": "uint256[]"
        }
      ],
      "name": "balanceOfBatch",
      "outputs": [
        {
          "internalType": "uint256[]",
          "name": "",
          "type": "uint256[]"
        }
      ],
      "stateMutability": "view",
      "type": "function"
    },
    {
      "inputs": [
        {
          "internalType": "uint256",
          "name": "tokenId",
          "type": "uint256"
        },
        {
          "internalType": "uint256[]",
          "name": "attributeIds",
          "type": "uint256[]"
        }
      ],
      "name": "batchGetAttribute",
      "outputs": [
        {
          "internalType": "uint256[]",
          "name": "",
          "type": "uint256[]"
        }
      ],
      "stateMutability": "view",
      "type": "function"
    },
    {
      "inputs": [
        {
          "internalType": "uint256",
          "name": "tokenId",
          "type": "uint256"
        },
        {
          "internalType": "uint256[]",
          "name": "attributeIds",
          "type": "uint256[]"
        },
        {
          "internalType": "uint256[]",
          "name": "values",
          "type": "uint256[]"
        }
      ],
      "name": "batchSetAttribute",
      "outputs": [],
      "stateMutability": "nonpayable",
      "type": "function"
    },
    {
      "inputs": [
        {
          "internalType": "uint256",
          "name": "tokenId",
          "type": "uint256"
        },
        {
          "internalType": "uint256[]",
          "name": "attributeIds",
          "type": "uint256[]"
        },
        {
          "internalType": "string[]",
          "name": "names",
          "type": "string[]"
        }
      ],
      "name": "batchSetAttributeName",
      "outputs": [],
      "stateMutability": "nonpayable",
      "type": "function"
    },
    {
      "inputs": [
        {
          "internalType": "uint256[]",
          "name": "tokenIds",
          "type": "uint256[]"
        },
        {
          "internalType": "uint256[]",
          "name": "attributeIds",
          "type": "uint256[]"
        },
        {
          "internalType": "string[]",
          "name": "names",
          "type": "string[]"
        }
      ],
      "name": "batchSetAttributeNames",
      "outputs": [],
      "stateMutability": "nonpayable",
      "type": "function"
    },
    {
      "inputs": [
        {
          "internalType": "uint256[]",
          "name": "tokenIds",
          "type": "uint256[]"
        }
      ],
      "name": "batchTokenURI",
      "outputs": [
        {
          "internalType": "string[]",
          "name": "",
          "type": "string[]"
        }
      ],
      "stateMutability": "view",
      "type": "function"
    },
    {
      "inputs": [
        {
          "internalType": "uint256[]",
          "name": "tokenIds",
          "type": "uint256[]"
        }
      ],
      "name": "batchUri",
      "outputs": [
        {
          "internalType": "string[]",
          "name": "",
          "type": "string[]"
        }
      ],
      "stateMutability": "view",
      "type": "function"
    },
    {
      "inputs": [
        {
          "internalType": "address",
          "name": "account",
          "type": "address"
        },
        {
          "internalType": "uint256",
          "name": "id",
          "type": "uint256"
        },
        {
          "internalType": "uint256",
          "name": "value",
          "type": "uint256"
        }
      ],
      "name": "burn",
      "outputs": [],
      "stateMutability": "nonpayable",
      "type": "function"
    },
    {
      "inputs": [
        {
          "internalType": "address",
          "name": "from",
          "type": "address"
        },
        {
          "internalType": "uint256[]",
          "name": "ids",
          "type": "uint256[]"
        },
        {
          "internalType": "uint256[]",
          "name": "amounts",
          "type": "uint256[]"
        }
      ],
      "name": "burnBatch",
      "outputs": [],
      "stateMutability": "nonpayable",
      "type": "function"
    },
    {
      "inputs": [
        {
          "internalType": "uint256",
          "name": "id",
          "type": "uint256"
        }
      ],
      "name": "exists",
      "outputs": [
        {
          "internalType": "bool",
          "name": "",
          "type": "bool"
        }
      ],
      "stateMutability": "view",
      "type": "function"
    },
    {
      "inputs": [
        {
          "internalType": "uint256",
          "name": "tokenId",
          "type": "uint256"
        },
        {
          "internalType": "uint256",
          "name": "attributeId",
          "type": "uint256"
        }
      ],
      "name": "getAttribute",
      "outputs": [
        {
          "internalType": "uint256",
          "name": "",
          "type": "uint256"
        }
      ],
      "stateMutability": "view",
      "type": "function"
    },
    {
      "inputs": [],
      "name": "getBlacklisted",
      "outputs": [
        {
          "internalType": "address[]",
          "name": "",
          "type": "address[]"
        }
      ],
      "stateMutability": "view",
      "type": "function"
    },
    {
      "inputs": [
        {
          "internalType": "bytes32",
          "name": "role",
          "type": "bytes32"
        }
      ],
      "name": "getRoleAdmin",
      "outputs": [
        {
          "internalType": "bytes32",
          "name": "",
          "type": "bytes32"
        }
      ],
      "stateMutability": "view",
      "type": "function"
    },
    {
      "inputs": [
        {
          "internalType": "bytes32",
          "name": "role",
          "type": "bytes32"
        },
        {
          "internalType": "uint256",
          "name": "index",
          "type": "uint256"
        }
      ],
      "name": "getRoleMember",
      "outputs": [
        {
          "internalType": "address",
          "name": "",
          "type": "address"
        }
      ],
      "stateMutability": "view",
      "type": "function"
    },
    {
      "inputs": [
        {
          "internalType": "bytes32",
          "name": "role",
          "type": "bytes32"
        }
      ],
      "name": "getRoleMemberCount",
      "outputs": [
        {
          "internalType": "uint256",
          "name": "",
          "type": "uint256"
        }
      ],
      "stateMutability": "view",
      "type": "function"
    },
    {
      "inputs": [
        {
          "internalType": "bytes32",
          "name": "role",
          "type": "bytes32"
        },
        {
          "internalType": "address",
          "name": "account",
          "type": "address"
        }
      ],
      "name": "grantRole",
      "outputs": [],
      "stateMutability": "nonpayable",
      "type": "function"
    },
    {
      "inputs": [
        {
          "internalType": "bytes32",
          "name": "role",
          "type": "bytes32"
        },
        {
          "internalType": "address",
          "name": "account",
          "type": "address"
        }
      ],
      "name": "hasRole",
      "outputs": [
        {
          "internalType": "bool",
          "name": "",
          "type": "bool"
        }
      ],
      "stateMutability": "view",
      "type": "function"
    },
    {
      "inputs": [],
      "name": "imageBaseURI",
      "outputs": [
        {
          "internalType": "string",
          "name": "",
          "type": "string"
        }
      ],
      "stateMutability": "view",
      "type": "function"
    },
    {
      "inputs": [],
      "name": "initialize",
      "outputs": [],
      "stateMutability": "nonpayable",
      "type": "function"
    },
    {
      "inputs": [
        {
          "internalType": "address",
          "name": "account",
          "type": "address"
        },
        {
          "internalType": "address",
          "name": "operator",
          "type": "address"
        }
      ],
      "name": "isApprovedForAll",
      "outputs": [
        {
          "internalType": "bool",
          "name": "",
          "type": "bool"
        }
      ],
      "stateMutability": "view",
      "type": "function"
    },
    {
      "inputs": [
        {
          "internalType": "address",
          "name": "user",
          "type": "address"
        }
      ],
      "name": "isBlacklisted",
      "outputs": [
        {
          "internalType": "bool",
          "name": "",
          "type": "bool"
        }
      ],
      "stateMutability": "view",
      "type": "function"
    },
    {
      "inputs": [
        {
          "internalType": "uint256",
          "name": "tokenId",
          "type": "uint256"
        }
      ],
      "name": "isSoulbound",
      "outputs": [
        {
          "internalType": "bool",
          "name": "",
          "type": "bool"
        }
      ],
      "stateMutability": "view",
      "type": "function"
    },
    {
      "inputs": [
        {
          "internalType": "address",
          "name": "account",
          "type": "address"
        },
        {
          "internalType": "uint256",
          "name": "id",
          "type": "uint256"
        },
        {
          "internalType": "uint256",
          "name": "amount",
          "type": "uint256"
        },
        {
          "internalType": "bytes",
          "name": "data",
          "type": "bytes"
        }
      ],
      "name": "mint",
      "outputs": [],
      "stateMutability": "nonpayable",
      "type": "function"
    },
    {
      "inputs": [
        {
          "internalType": "address",
          "name": "to",
          "type": "address"
        },
        {
          "internalType": "uint256[]",
          "name": "ids",
          "type": "uint256[]"
        },
        {
          "internalType": "uint256[]",
          "name": "amounts",
          "type": "uint256[]"
        },
        {
          "internalType": "bytes",
          "name": "data",
          "type": "bytes"
        }
      ],
      "name": "mintBatch",
      "outputs": [],
      "stateMutability": "nonpayable",
      "type": "function"
    },
    {
      "inputs": [
        {
          "internalType": "uint256",
          "name": "id",
          "type": "uint256"
        },
        {
          "internalType": "address[]",
          "name": "to",
          "type": "address[]"
        },
        {
          "internalType": "uint256[]",
          "name": "amounts",
          "type": "uint256[]"
        }
      ],
      "name": "mintBatchOf",
      "outputs": [],
      "stateMutability": "nonpayable",
      "type": "function"
    },
    {
      "inputs": [],
      "name": "name",
      "outputs": [
        {
          "internalType": "string",
          "name": "",
          "type": "string"
        }
      ],
      "stateMutability": "view",
      "type": "function"
    },
    {
      "inputs": [],
      "name": "pause",
      "outputs": [],
      "stateMutability": "nonpayable",
      "type": "function"
    },
    {
      "inputs": [],
      "name": "paused",
      "outputs": [
        {
          "internalType": "bool",
          "name": "",
          "type": "bool"
        }
      ],
      "stateMutability": "view",
      "type": "function"
    },
    {
      "inputs": [
        {
          "internalType": "bytes32",
          "name": "role",
          "type": "bytes32"
        },
        {
          "internalType": "address",
          "name": "account",
          "type": "address"
        }
      ],
      "name": "renounceRole",
      "outputs": [],
      "stateMutability": "nonpayable",
      "type": "function"
    },
    {
      "inputs": [
        {
          "internalType": "bytes32",
          "name": "role",
          "type": "bytes32"
        },
        {
          "internalType": "address",
          "name": "account",
          "type": "address"
        }
      ],
      "name": "revokeRole",
      "outputs": [],
      "stateMutability": "nonpayable",
      "type": "function"
    },
    {
      "inputs": [
        {
          "internalType": "address",
          "name": "from",
          "type": "address"
        },
        {
          "internalType": "address",
          "name": "to",
          "type": "address"
        },
        {
          "internalType": "uint256[]",
          "name": "ids",
          "type": "uint256[]"
        },
        {
          "internalType": "uint256[]",
          "name": "amounts",
          "type": "uint256[]"
        },
        {
          "internalType": "bytes",
          "name": "data",
          "type": "bytes"
        }
      ],
      "name": "safeBatchTransferFrom",
      "outputs": [],
      "stateMutability": "nonpayable",
      "type": "function"
    },
    {
      "inputs": [
        {
          "internalType": "address",
          "name": "from",
          "type": "address"
        },
        {
          "internalType": "address",
          "name": "to",
          "type": "address"
        },
        {
          "internalType": "uint256",
          "name": "id",
          "type": "uint256"
        },
        {
          "internalType": "uint256",
          "name": "amount",
          "type": "uint256"
        },
        {
          "internalType": "bytes",
          "name": "data",
          "type": "bytes"
        }
      ],
      "name": "safeTransferFrom",
      "outputs": [],
      "stateMutability": "nonpayable",
      "type": "function"
    },
    {
      "inputs": [
        {
          "internalType": "address",
          "name": "operator",
          "type": "address"
        },
        {
          "internalType": "bool",
          "name": "approved",
          "type": "bool"
        }
      ],
      "name": "setApprovalForAll",
      "outputs": [],
      "stateMutability": "nonpayable",
      "type": "function"
    },
    {
      "inputs": [
        {
          "internalType": "uint256",
          "name": "tokenId",
          "type": "uint256"
        },
        {
          "internalType": "uint256",
          "name": "attributeId",
          "type": "uint256"
        },
        {
          "internalType": "uint256",
          "name": "value",
          "type": "uint256"
        }
      ],
      "name": "setAttribute",
      "outputs": [],
      "stateMutability": "nonpayable",
      "type": "function"
    },
    {
      "inputs": [
        {
          "internalType": "uint256",
          "name": "tokenId",
          "type": "uint256"
        },
        {
          "internalType": "uint256",
          "name": "attributeId",
          "type": "uint256"
        },
        {
          "internalType": "string",
          "name": "name",
          "type": "string"
        }
      ],
      "name": "setAttributeName",
      "outputs": [],
      "stateMutability": "nonpayable",
      "type": "function"
    },
    {
      "inputs": [
        {
          "internalType": "uint256",
          "name": "tokenId",
          "type": "uint256"
        }
      ],
      "name": "setSoulbound",
      "outputs": [],
      "stateMutability": "nonpayable",
      "type": "function"
    },
    {
      "inputs": [
        {
          "internalType": "bytes4",
          "name": "interfaceId",
          "type": "bytes4"
        }
      ],
      "name": "supportsInterface",
      "outputs": [
        {
          "internalType": "bool",
          "name": "",
          "type": "bool"
        }
      ],
      "stateMutability": "view",
      "type": "function"
    },
    {
      "inputs": [],
      "name": "symbol",
      "outputs": [
        {
          "internalType": "string",
          "name": "",
          "type": "string"
        }
      ],
      "stateMutability": "view",
      "type": "function"
    },
    {
      "inputs": [
        {
          "internalType": "address",
          "name": "owner",
          "type": "address"
        }
      ],
      "name": "tokensOf",
      "outputs": [
        {
          "internalType": "uint256[]",
          "name": "tokenIds",
          "type": "uint256[]"
        },
        {
          "internalType": "uint256[]",
          "name": "balances",
          "type": "uint256[]"
        }
      ],
      "stateMutability": "view",
      "type": "function"
    },
    {
      "inputs": [
        {
          "internalType": "uint256",
          "name": "id",
          "type": "uint256"
        }
      ],
      "name": "totalSupply",
      "outputs": [
        {
          "internalType": "uint256",
          "name": "",
          "type": "uint256"
        }
      ],
      "stateMutability": "view",
      "type": "function"
    },
    {
      "inputs": [],
      "name": "unpause",
      "outputs": [],
      "stateMutability": "nonpayable",
      "type": "function"
    },
    {
      "inputs": [
        {
          "internalType": "uint256",
          "name": "tokenId",
          "type": "uint256"
        }
      ],
      "name": "unsetSoulbound",
      "outputs": [],
      "stateMutability": "nonpayable",
      "type": "function"
    },
    {
      "inputs": [
        {
          "internalType": "uint256",
          "name": "tokenId",
          "type": "uint256"
        }
      ],
      "name": "uri",
      "outputs": [
        {
          "internalType": "string",
          "name": "",
          "type": "string"
        }
      ],
      "stateMutability": "view",
      "type": "function"
    }
  ],
  "bytecode": "0x60806040523480156200001157600080fd5b506200001c62000022565b620000e4565b600054610100900460ff16156200008f5760405162461bcd60e51b815260206004820152602760248201527f496e697469616c697a61626c653a20636f6e747261637420697320696e697469604482015266616c697a696e6760c81b606482015260840160405180910390fd5b60005460ff9081161015620000e2576000805460ff191660ff9081179091556040519081527f7f26b83ff96e1f2b6a682f133852f6798a09c465da95921460cefb38474024989060200160405180910390a15b565b61510880620000f46000396000f3fe608060405234801561001057600080fd5b50600436106102ba5760003560e01c80638129fc1c11610182578063b0fe60d5116100e9578063d179191a116100a2578063f242432a1161007c578063f242432a1461066c578063f5298aca1461067f578063fd5eea4e14610692578063fe575a87146106a557600080fd5b8063d179191a1461060a578063d547741f1461061d578063e985e9c51461063057600080fd5b8063b0fe60d5146105a1578063b198ce46146105b4578063bd85b039146105bc578063c385ce25146105cf578063ca15c873146105e2578063ce3675ad146105f557600080fd5b806395d89b411161013b57806395d89b411461054357806396c45e2f1461054b578063994a95be1461055e578063a17d79ec14610571578063a217fddf14610586578063a22cb4651461058e57600080fd5b80638129fc1c146104cf5780638456cb59146104d757806387be85d3146104df5780639010d07c146104f2578063911ec4701461051d57806391d148541461053057600080fd5b80633f4ba83a116102265780636b20c454116101df5780636b20c4541461045b5780636d94f13a1461046e578063731133e91461048e5780637685945e146104a157806377645839146104b45780637d7a6d13146104bc57600080fd5b80633f4ba83a146103e05780634e1273f4146103e85780634f558e791461040857806358870da11461041b5780635a3f26721461042e5780635c975abb1461044f57600080fd5b8063208e509f11610278578063208e509f1461035a57806321e5548c14610371578063248a9ca3146103845780632eb2c2d6146103a75780632f2ff15d146103ba57806336568abe146103cd57600080fd5b8062fdd58e146102bf57806301ffc9a7146102e557806303fe46ab1461030857806306fdde031461031d5780630e89341c146103325780631f7fdffa14610345575b600080fd5b6102d26102cd3660046138fb565b6106b8565b6040519081526020015b60405180910390f35b6102f86102f336600461393b565b610753565b60405190151581526020016102dc565b6102d260008051602061508083398151915281565b61032561075e565b6040516102dc91906139a8565b6103256103403660046139bb565b6107ed565b610358610353366004613a18565b610963565b005b610362610a25565b6040516102dc93929190613bb8565b61035861037f366004613bfb565b610b56565b6102d26103923660046139bb565b60009081526097602052604090206001015490565b6103586103b5366004613ddd565b610c1c565b6103586103c8366004613e86565b610c68565b6103586103db366004613e86565b610c92565b610358610d10565b6103fb6103f6366004613eb2565b610d31565b6040516102dc9190613f7c565b6102f86104163660046139bb565b610e5a565b610358610429366004613f8f565b610e6d565b61044161043c366004613fde565b610eea565b6040516102dc929190613ff9565b6101295460ff166102f8565b61035861046936600461401e565b610faf565b61048161047c366004614087565b610fd1565b6040516102dc9190614103565b61035861049c366004614116565b610fdc565b6102d26104af366004614176565b611005565b610325611025565b6103586104ca366004614198565b611033565b6103586110f7565b6103586112c6565b6103586104ed3660046141cb565b6112e5565b610505610500366004614176565b61137a565b6040516001600160a01b0390911681526020016102dc565b6102f861052b3660046139bb565b611392565b6102f861053e366004613e86565b6113b6565b6103256113e1565b6103586105593660046139bb565b6113ef565b6103fb61056c366004614244565b61142c565b6102d260008051602061504083398151915281565b6102d2600081565b61035861059c366004614280565b6114ef565b6104816105af366004614087565b6114fa565b6103fb6115b2565b6102d26105ca3660046139bb565b611650565b6103586105dd3660046139bb565b611667565b6102d26105f03660046139bb565b6116a3565b6105fd6116ba565b6040516102dc91906142bc565b6103586106183660046142cf565b6116cc565b61035861062b366004613e86565b61179a565b6102f861063e3660046143ba565b6001600160a01b03918216600090815260666020908152604080832093909416825291909152205460ff1690565b61035861067a3660046143e4565b6117bf565b61035861068d366004614448565b611804565b6103586106a036600461447b565b611847565b6102f86106b3366004613fde565b6118b2565b60006001600160a01b0383166107285760405162461bcd60e51b815260206004820152602a60248201527f455243313135353a2061646472657373207a65726f206973206e6f742061207660448201526930b634b21037bbb732b960b11b60648201526084015b60405180910390fd5b5060008181526065602090815260408083206001600160a01b03861684529091529020545b92915050565b600061074d826118c0565b610288805461076c906144a7565b80601f0160208091040260200160405190810160405280929190818152602001828054610798906144a7565b80156107e55780601f106107ba576101008083540402835291602001916107e5565b820191906000526020600020905b8154815290600101906020018083116107c857829003601f168201915b505050505081565b606060006107fd836103e86118e5565b9050600061080d846103e96118e5565b6040805160028082526060820190925291925060009190816020015b61084d60405180606001604052806060815260200160608152602001606081525090565b81526020019060019003908161082957905050905060405180606001604052806040518060400160405280600a815260200169283937b332b9b9b4b7b760b11b81525081526020016040518060200160405280600081525081526020016108b58760006118e5565b815250816000815181106108cb576108cb6144e1565b6020026020010181905250604051806060016040528060405180604001604052806006815260200165536f7572636560d01b81525081526020016040518060200160405280600081525081526020016109258760016118e5565b8152508160018151811061093b5761093b6144e1565b602002602001018190525061095a61095586858585611994565b6119e0565b95945050505050565b61097a600080516020615020833981519152611a11565b610a1c8787878080602002602001604051908101604052809392919081815260200183836020028082843760009201919091525050604080516020808b0282810182019093528a82529093508a92508991829185019084908082843760009201919091525050604080516020601f8a018190048102820181019092528881529250889150879081908401838280828437600092019190915250611a1b92505050565b50505050505050565b6060806060610a35610190611b76565b925082516001600160401b03811115610a5057610a50613c94565b604051908082528060200260200182016040528015610a8357816020015b6060815260200190600190039081610a6e5790505b50915082516001600160401b03811115610a9f57610a9f613c94565b604051908082528060200260200182016040528015610ad257816020015b6060815260200190600190039081610abd5790505b50905060005b8351811015610b5057610b03848281518110610af657610af66144e1565b6020026020010151610eea565b848381518110610b1557610b156144e1565b60200260200101848481518110610b2e57610b2e6144e1565b6020026020010182905282905250508080610b489061450d565b915050610ad8565b50909192565b600080516020615080833981519152610b6e81611a11565b60005b86811015610c1257838382818110610b8b57610b8b6144e1565b9050602002810190610b9d9190614526565b6101f560008b8b86818110610bb457610bb46144e1565b9050602002013581526020019081526020016000206000898986818110610bdd57610bdd6144e1565b9050602002013581526020019081526020016000209182610bff9291906145b2565b5080610c0a8161450d565b915050610b71565b5050505050505050565b6001600160a01b038516331480610c385750610c38853361063e565b610c545760405162461bcd60e51b815260040161071f90614671565b610c618585858585611b83565b5050505050565b600082815260976020526040902060010154610c8381611a11565b610c8d8383611d28565b505050565b6001600160a01b0381163314610d025760405162461bcd60e51b815260206004820152602f60248201527f416363657373436f6e74726f6c3a2063616e206f6e6c792072656e6f756e636560448201526e103937b632b9903337b91039b2b63360891b606482015260840161071f565b610d0c8282611d4a565b5050565b610d27600080516020615060833981519152611a11565b610d2f611d6c565b565b60608151835114610d965760405162461bcd60e51b815260206004820152602960248201527f455243313135353a206163636f756e747320616e6420696473206c656e677468604482015268040dad2e6dac2e8c6d60bb1b606482015260840161071f565b600083516001600160401b03811115610db157610db1613c94565b604051908082528060200260200182016040528015610dda578160200160208202803683370190505b50905060005b8451811015610e5257610e25858281518110610dfe57610dfe6144e1565b6020026020010151858381518110610e1857610e186144e1565b60200260200101516106b8565b828281518110610e3757610e376144e1565b6020908102919091010152610e4b8161450d565b9050610de0565b509392505050565b600080610e6683611650565b1192915050565b600080516020615080833981519152610e8581611a11565b60008481526101f5602090815260408083208684529091529020610ea983826146c0565b50837ffdbb964a9a1d2ac903ed7ebf85795be6728c27e96237552b2805596c759e08818484604051610edc92919061477f565b60405180910390a250505050565b6001600160a01b0381166000908152610192602052604090206060908190610f1190611b76565b915081516001600160401b03811115610f2c57610f2c613c94565b604051908082528060200260200182016040528015610f55578160200160208202803683370190505b50905060005b8251811015610fa957610f7a84848381518110610e1857610e186144e1565b828281518110610f8c57610f8c6144e1565b602090810291909101015280610fa18161450d565b915050610f5b565b50915091565b610fc6600080516020615060833981519152611a11565b610c8d838383611dbf565b606061074d826114fa565b610ff3600080516020615020833981519152611a11565b610fff84848484611f5e565b50505050565b60008281526101f46020526040812061101e9083612040565b9392505050565b610225805461076c906144a7565b60008051602061508083398151915261104b81611a11565b60005b83518110156110c4576110b184828151811061106c5761106c6144e1565b6020026020010151848381518110611086576110866144e1565b60200260200101516101f4600089815260200190815260200160002061204c9092919063ffffffff16565b50806110bc8161450d565b91505061104e565b50837f383bcccfd5e9b61afe7e6832ca2201fe34d7766a9bbf90fb7152082ddbcd342b8484604051610edc929190613ff9565b600054610100900460ff16158080156111175750600054600160ff909116105b806111315750303b158015611131575060005460ff166001145b6111945760405162461bcd60e51b815260206004820152602e60248201527f496e697469616c697a61626c653a20636f6e747261637420697320616c72656160448201526d191e481a5b9a5d1a585b1a5e995960921b606482015260840161071f565b6000805460ff1916600117905580156111b7576000805461ff0019166101001790555b6111cf60405180602001604052806000815250612059565b6111d7612089565b6111df612135565b6111e7612164565b6111ef612164565b6111f7612164565b6111ff61218b565b6112206040518060600160405280603381526020016150a0603391396121ea565b61122861221e565b61127d60405180604001604052806011815260200170436f736d696320436f6d706f6e656e747360781b8152506040518060400160405280600a815260200169434f4d504f4e454e545360b01b815250612265565b80156112c3576000805461ff0019169055604051600181527f7f26b83ff96e1f2b6a682f133852f6798a09c465da95921460cefb38474024989060200160405180910390a15b50565b6112dd600080516020615060833981519152611a11565b610d2f6122a7565b6112fc600080516020615020833981519152611a11565b60005b838110156113725761136085858381811061131c5761131c6144e1565b90506020020160208101906113319190613fde565b87858585818110611344576113446144e1565b9050602002013560405180602001604052806000815250611f5e565b8061136a8161450d565b9150506112ff565b505050505050565b600082815260c96020526040812061101e90836122e5565b600881901c60009081526102576020526040812054600160ff84161b16151561074d565b60009182526097602090815260408084206001600160a01b0393909316845291905290205460ff1690565b610289805461076c906144a7565b60008051602061506083398151915261140781611a11565b600882901c6000908152610257602052604090208054600160ff85161b191690555050565b6060600082516001600160401b0381111561144957611449613c94565b604051908082528060200260200182016040528015611472578160200160208202803683370190505b50905060005b8351811015610e52576114c0848281518110611496576114966144e1565b60200260200101516101f4600088815260200190815260200160002061204090919063ffffffff16565b8282815181106114d2576114d26144e1565b6020908102919091010152806114e78161450d565b915050611478565b610d0c338383612315565b6060600082516001600160401b0381111561151757611517613c94565b60405190808252806020026020018201604052801561154a57816020015b60608152602001906001900390816115355790505b50905060005b83518110156115ab5761157b84828151811061156e5761156e6144e1565b60200260200101516107ed565b82828151811061158d5761158d6144e1565b602002602001018190525080806115a39061450d565b915050611550565b5092915050565b606060006115c161018d6123f5565b90506000816001600160401b038111156115dd576115dd613c94565b604051908082528060200260200182016040528015611606578160200160208202803683370190505b50905060005b828110156115ab5761162061018d82612400565b50828281518110611633576116336144e1565b6020908102919091010152806116488161450d565b91505061160c565b60008061165f61018d8461241e565b949350505050565b60008051602061506083398151915261167f81611a11565b600882901c6000908152610257602052604090208054600160ff85161b1790555050565b600081815260c96020526040812061074d9061242d565b60606116c76101c1611b76565b905090565b6000805160206150808339815191526116e481611a11565b60005b835181101561176757828181518110611702576117026144e1565b60200260200101516101f560008781526020019081526020016000206000868481518110611732576117326144e1565b60200260200101518152602001908152602001600020908161175491906146c0565b508061175f8161450d565b9150506116e7565b50837f9d69ed3cc764cf4f579cfc28312dded7bb202f17cc77aa4d0eb3f8bbaecd88e38484604051610edc929190614798565b6000828152609760205260409020600101546117b581611a11565b610c8d8383611d4a565b6001600160a01b0385163314806117db57506117db853361063e565b6117f75760405162461bcd60e51b815260040161071f90614671565b610c618585858585612437565b6001600160a01b0383163314806118205750611820833361063e565b61183c5760405162461bcd60e51b815260040161071f90614671565b610c8d838383612573565b60008051602061508083398151915261185f81611a11565b60008481526101f46020526040902061187990848461204c565b50604080518481526020810184905285917f5cb4c5f05283d5a84da3f9f1b0fe8b00d7ea8e1fb833812b52114799bdf1acc79101610edc565b600061074d6101c18361268f565b60006001600160e01b03198216635a05180f60e01b148061074d575061074d826126b1565b60008281526101f560209081526040808320848452909152902080546060919061190e906144a7565b80601f016020809104026020016040519081016040528092919081815260200182805461193a906144a7565b80156119875780601f1061195c57610100808354040283529160200191611987565b820191906000526020600020905b81548152906001019060200180831161196a57829003601f168201915b5050505050905092915050565b606060006119a38686866126d6565b905060006119b084612740565b905081816040516020016119c59291906147d9565b60405160208183030381529060405292505050949350505050565b60606119eb826128cb565b6040516020016119fb9190614826565b6040516020818303038152906040529050919050565b6112c38133612a1d565b6001600160a01b038416611a415760405162461bcd60e51b815260040161071f9061486b565b8151835114611a625760405162461bcd60e51b815260040161071f906148ac565b33611a7281600087878787612a81565b60005b8451811015611b0e57838181518110611a9057611a906144e1565b602002602001015160656000878481518110611aae57611aae6144e1565b602002602001015181526020019081526020016000206000886001600160a01b03166001600160a01b031681526020019081526020016000206000828254611af691906148f4565b90915550819050611b068161450d565b915050611a75565b50846001600160a01b031660006001600160a01b0316826001600160a01b03167f4a39dc06d4c0dbc64b70af90fd698a233a518aa5d07e595d983b8c0526c8f7fb8787604051611b5f929190613ff9565b60405180910390a4610c6181600087878787612b89565b6060600061101e83612ce4565b8151835114611ba45760405162461bcd60e51b815260040161071f906148ac565b6001600160a01b038416611bca5760405162461bcd60e51b815260040161071f90614907565b33611bd9818787878787612a81565b60005b8451811015611cc2576000858281518110611bf957611bf96144e1565b602002602001015190506000858381518110611c1757611c176144e1565b60209081029190910181015160008481526065835260408082206001600160a01b038e168352909352919091205490915081811015611c685760405162461bcd60e51b815260040161071f9061494c565b60008381526065602090815260408083206001600160a01b038e8116855292528083208585039055908b16825281208054849290611ca79084906148f4565b9250508190555050505080611cbb9061450d565b9050611bdc565b50846001600160a01b0316866001600160a01b0316826001600160a01b03167f4a39dc06d4c0dbc64b70af90fd698a233a518aa5d07e595d983b8c0526c8f7fb8787604051611d12929190613ff9565b60405180910390a4611372818787878787612b89565b611d328282612d40565b600082815260c960205260409020610c8d9082612dc6565b611d548282612ddb565b600082815260c960205260409020610c8d9082612e42565b611d74612e57565b610129805460ff191690557f5db9ee0a495bf2e6ff9c91a7834c1ba4fdd244a5e8aa4e537bd38aeae4b073aa335b6040516001600160a01b03909116815260200160405180910390a1565b6001600160a01b038316611de55760405162461bcd60e51b815260040161071f90614996565b8051825114611e065760405162461bcd60e51b815260040161071f906148ac565b6000339050611e2981856000868660405180602001604052806000815250612a81565b60005b8351811015611ef1576000848281518110611e4957611e496144e1565b602002602001015190506000848381518110611e6757611e676144e1565b60209081029190910181015160008481526065835260408082206001600160a01b038c168352909352919091205490915081811015611eb85760405162461bcd60e51b815260040161071f906149d9565b60009283526065602090815260408085206001600160a01b038b1686529091529092209103905580611ee98161450d565b915050611e2c565b5060006001600160a01b0316846001600160a01b0316826001600160a01b03167f4a39dc06d4c0dbc64b70af90fd698a233a518aa5d07e595d983b8c0526c8f7fb8686604051611f42929190613ff9565b60405180910390a4604080516020810190915260009052610fff565b6001600160a01b038416611f845760405162461bcd60e51b815260040161071f9061486b565b336000611f9085612ea1565b90506000611f9d85612ea1565b9050611fae83600089858589612a81565b60008681526065602090815260408083206001600160a01b038b16845290915281208054879290611fe09084906148f4565b909155505060408051878152602081018790526001600160a01b03808a1692600092918716917fc3d58168c5ae7397731d063d5bbf3d657854427343f4c083240f7aacaa2d0f62910160405180910390a4610a1c83600089898989612eec565b600061101e8383612fa7565b600061165f848484613017565b600054610100900460ff166120805760405162461bcd60e51b815260040161071f90614a1d565b6112c381613034565b600054610100900460ff166120b05760405162461bcd60e51b815260040161071f90614a1d565b6120b8612164565b6120c3600033611d28565b6120db60008051602061506083398151915233611d28565b6120f360008051602061508083398151915233611d28565b61210b60008051602061502083398151915233611d28565b610d2f7ff18b77e1ef402111bacb54bd5e03494cbdba92fbd1bd3bbcc1ce77e69b42ea6c33611d28565b600054610100900460ff1661215c5760405162461bcd60e51b815260040161071f90614a1d565b610d2f613064565b600054610100900460ff16610d2f5760405162461bcd60e51b815260040161071f90614a1d565b600054610100900460ff166121b25760405162461bcd60e51b815260040161071f90614a1d565b6121ba612164565b6121d260008051602061506083398151915233611d28565b610d2f60008051602061504083398151915233611d28565b600054610100900460ff166122115760405162461bcd60e51b815260040161071f90614a1d565b610225610d0c82826146c0565b600054610100900460ff166122455760405162461bcd60e51b815260040161071f90614a1d565b61224d612164565b610d2f60008051602061508083398151915233611d28565b600054610100900460ff1661228c5760405162461bcd60e51b815260040161071f90614a1d565b61028861229983826146c0565b50610289610c8d82826146c0565b6122af613098565b610129805460ff191660011790557f62e78cea01bee320cd4e420270b5ea74000d11b0c9f74754ebdbfc544b05a258611da23390565b600061101e83836130df565b600881901c600090815260208390526040902054600160ff83161b16151592915050565b816001600160a01b0316836001600160a01b0316036123885760405162461bcd60e51b815260206004820152602960248201527f455243313135353a2073657474696e6720617070726f76616c20737461747573604482015268103337b91039b2b63360b91b606482015260840161071f565b6001600160a01b03838116600081815260666020908152604080832094871680845294825291829020805460ff191686151590811790915591519182527f17307eab39ab6107e8899845ad3d59bd9653f200f220920489ca2b5937696c31910160405180910390a3505050565b600061074d82613109565b600080808061240f8686613114565b909450925050505b9250929050565b600080808061240f868661313f565b600061074d825490565b6001600160a01b03841661245d5760405162461bcd60e51b815260040161071f90614907565b33600061246985612ea1565b9050600061247685612ea1565b9050612486838989858589612a81565b60008681526065602090815260408083206001600160a01b038c168452909152902054858110156124c95760405162461bcd60e51b815260040161071f9061494c565b60008781526065602090815260408083206001600160a01b038d8116855292528083208985039055908a168252812080548892906125089084906148f4565b909155505060408051888152602081018890526001600160a01b03808b16928c821692918816917fc3d58168c5ae7397731d063d5bbf3d657854427343f4c083240f7aacaa2d0f62910160405180910390a4612568848a8a8a8a8a612eec565b505050505050505050565b6001600160a01b0383166125995760405162461bcd60e51b815260040161071f90614996565b3360006125a584612ea1565b905060006125b284612ea1565b90506125d283876000858560405180602001604052806000815250612a81565b60008581526065602090815260408083206001600160a01b038a168452909152902054848110156126155760405162461bcd60e51b815260040161071f906149d9565b60008681526065602090815260408083206001600160a01b038b81168086529184528285208a8703905582518b81529384018a90529092908816917fc3d58168c5ae7397731d063d5bbf3d657854427343f4c083240f7aacaa2d0f62910160405180910390a4604080516020810190915260009052610a1c565b6001600160a01b0381166000908152600183016020526040812054151561101e565b60006001600160e01b03198216637965db0b60e01b148061074d575061074d82613179565b606060006102256126e6866131c9565b6040516020016126f7929190614a68565b604051602081830303815290604052905083612712866131c9565b84836040516020016127279493929190614aef565b6040516020818303038152906040529150509392505050565b60408051602081019091526000808252606091905b83518110156128a25760006001855161276e9190614be7565b821461279357604051806040016040528060018152602001600b60fa1b8152506127a4565b604051806020016040528060008152505b905060008583815181106127ba576127ba6144e1565b60200260200101516020015151600014612810578583815181106127e0576127e06144e1565b6020026020010151602001516040516020016127fc9190614bfa565b604051602081830303815290604052612821565b604051806020016040528060008152505b9050600084878581518110612838576128386144e1565b60200260200101516000015183898781518110612857576128576144e1565b60200260200101516040015186604051602001612878959493929190614c3f565b6040516020818303038152906040529050809450505050808061289a9061450d565b915050612755565b50806040516020016128b49190614cfc565b604051602081830303815290604052915050919050565b606081516000036128ea57505060408051602081019091526000815290565b6000604051806060016040528060408152602001614fe0604091399050600060038451600261291991906148f4565b6129239190614d54565b61292e906004614d68565b6001600160401b0381111561294557612945613c94565b6040519080825280601f01601f19166020018201604052801561296f576020820181803683370190505b509050600182016020820185865187015b808210156129db576003820191508151603f8160121c168501518453600184019350603f81600c1c168501518453600184019350603f8160061c168501518453600184019350603f8116850151845350600183019250612980565b50506003865106600181146129f75760028114612a0a57612a12565b603d6001830353603d6002830353612a12565b603d60018303535b509195945050505050565b612a2782826113b6565b610d0c57612a3f816001600160a01b031660146132c9565b612a4a8360206132c9565b604051602001612a5b929190614d87565b60408051601f198184030181529082905262461bcd60e51b825261071f916004016139a8565b612a89613098565b82858560005b8351811015612b7a57612ac6848281518110612aad57612aad6144e1565b60200260200101516102576122f190919063ffffffff16565b1580612ad957506001600160a01b038316155b80612aeb57506001600160a01b038216155b80612b095750612b09600080516020615040833981519152846113b6565b80612b275750612b27600080516020615040833981519152836113b6565b612b685760405162461bcd60e51b8152602060048201526012602482015271151bdad95b881a5cc81cdbdd5b189bdd5b9960721b604482015260640161071f565b80612b728161450d565b915050612a8f565b50612568898989898989613464565b6001600160a01b0384163b156113725760405163bc197c8160e01b81526001600160a01b0385169063bc197c8190612bcd9089908990889088908890600401614dfc565b6020604051808303816000875af1925050508015612c08575060408051601f3d908101601f19168201909252612c0591810190614e5a565b60015b612cb457612c14614e77565b806308c379a003612c4d5750612c28614e93565b80612c335750612c4f565b8060405162461bcd60e51b815260040161071f91906139a8565b505b60405162461bcd60e51b815260206004820152603460248201527f455243313135353a207472616e7366657220746f206e6f6e20455243313135356044820152732932b1b2b4bb32b91034b6b83632b6b2b73a32b960611b606482015260840161071f565b6001600160e01b0319811663bc197c8160e01b14610a1c5760405162461bcd60e51b815260040161071f90614f1c565b606081600001805480602002602001604051908101604052809291908181526020018280548015612d3457602002820191906000526020600020905b815481526020019060010190808311612d20575b50505050509050919050565b612d4a82826113b6565b610d0c5760008281526097602090815260408083206001600160a01b03851684529091529020805460ff19166001179055612d823390565b6001600160a01b0316816001600160a01b0316837f2f8788117e7eff1d82e926ec794901d17c78024a50270940304540a733656f0d60405160405180910390a45050565b600061101e836001600160a01b03841661369a565b612de582826113b6565b15610d0c5760008281526097602090815260408083206001600160a01b0385168085529252808320805460ff1916905551339285917ff6391f5c32d9c69d2a47ea670b442974b53935d1edc7fd64eb21e047a839171b9190a45050565b600061101e836001600160a01b0384166136e9565b6101295460ff16610d2f5760405162461bcd60e51b815260206004820152601460248201527314185d5cd8589b194e881b9bdd081c185d5cd95960621b604482015260640161071f565b60408051600180825281830190925260609160009190602080830190803683370190505090508281600081518110612edb57612edb6144e1565b602090810291909101015292915050565b6001600160a01b0384163b156113725760405163f23a6e6160e01b81526001600160a01b0385169063f23a6e6190612f309089908990889088908890600401614f64565b6020604051808303816000875af1925050508015612f6b575060408051601f3d908101601f19168201909252612f6891810190614e5a565b60015b612f7757612c14614e77565b6001600160e01b0319811663f23a6e6160e01b14610a1c5760405162461bcd60e51b815260040161071f90614f1c565b600081815260028301602052604081205480151580612fcb5750612fcb84846137dc565b61101e5760405162461bcd60e51b815260206004820152601e60248201527f456e756d657261626c654d61703a206e6f6e6578697374656e74206b65790000604482015260640161071f565b6000828152600284016020526040812082905561165f84846137e8565b600054610100900460ff1661305b5760405162461bcd60e51b815260040161071f90614a1d565b6112c3816137f4565b600054610100900460ff1661308b5760405162461bcd60e51b815260040161071f90614a1d565b610129805460ff19169055565b6101295460ff1615610d2f5760405162461bcd60e51b815260206004820152601060248201526f14185d5cd8589b194e881c185d5cd95960821b604482015260640161071f565b60008260000182815481106130f6576130f66144e1565b9060005260206000200154905092915050565b600061074d8261242d565b6000808061312285856122e5565b600081815260029690960160205260409095205494959350505050565b600081815260028301602052604081205481908061316e5761316185856137dc565b9250600091506124179050565b600192509050612417565b60006001600160e01b03198216636cdb3d1360e11b14806131aa57506001600160e01b031982166303a24d0760e21b145b8061074d57506301ffc9a760e01b6001600160e01b031983161461074d565b6060816000036131f05750506040805180820190915260018152600360fc1b602082015290565b8160005b811561321a57806132048161450d565b91506132139050600a83614d54565b91506131f4565b6000816001600160401b0381111561323457613234613c94565b6040519080825280601f01601f19166020018201604052801561325e576020820181803683370190505b5090505b841561165f57613273600183614be7565b9150613280600a86614f9e565b61328b9060306148f4565b60f81b8183815181106132a0576132a06144e1565b60200101906001600160f81b031916908160001a9053506132c2600a86614d54565b9450613262565b606060006132d8836002614d68565b6132e39060026148f4565b6001600160401b038111156132fa576132fa613c94565b6040519080825280601f01601f191660200182016040528015613324576020820181803683370190505b509050600360fc1b8160008151811061333f5761333f6144e1565b60200101906001600160f81b031916908160001a905350600f60fb1b8160018151811061336e5761336e6144e1565b60200101906001600160f81b031916908160001a9053506000613392846002614d68565b61339d9060016148f4565b90505b6001811115613415576f181899199a1a9b1b9c1cb0b131b232b360811b85600f16601081106133d1576133d16144e1565b1a60f81b8282815181106133e7576133e76144e1565b60200101906001600160f81b031916908160001a90535060049490941c9361340e81614fb2565b90506133a0565b50831561101e5760405162461bcd60e51b815260206004820181905260248201527f537472696e67733a20686578206c656e67746820696e73756666696369656e74604482015260640161071f565b6001600160a01b0385166135155760005b83518110156135135760006134ae858381518110613495576134956144e1565b602002602001015161018d61241e90919063ffffffff16565b9050809150506135008583815181106134c9576134c96144e1565b60200260200101518584815181106134e3576134e36144e1565b6020026020010151836134f691906148f4565b61018d919061204c565b50508061350c9061450d565b9050613475565b505b6001600160a01b03841661360b5760005b8351811015613609576000848281518110613543576135436144e1565b602002602001015190506000848381518110613561576135616144e1565b6020026020010151905060006135828361018d61204090919063ffffffff16565b9050818110156135e55760405162461bcd60e51b815260206004820152602860248201527f455243313135353a206275726e20616d6f756e74206578636565647320746f74604482015267616c537570706c7960c01b606482015260840161071f565b6135f461018d8484840361204c565b50505050806136029061450d565b9050613526565b505b60005b8351811015613687576136548685838151811061362d5761362d6144e1565b6020026020010151858481518110613647576136476144e1565b6020026020010151613800565b6136778585838151811061366a5761366a6144e1565b6020026020010151613855565b6136808161450d565b905061360e565b5061369185613897565b61137284613897565b60008181526001830160205260408120546136e15750815460018181018455600084815260208082209093018490558454848252828601909352604090209190915561074d565b50600061074d565b600081815260018301602052604081205480156137d257600061370d600183614be7565b855490915060009061372190600190614be7565b9050818114613786576000866000018281548110613741576137416144e1565b9060005260206000200154905080876000018481548110613764576137646144e1565b6000918252602080832090910192909255918252600188019052604090208390555b855486908061379757613797614fc9565b60019003818190600052602060002001600090559055856001016000868152602001908152602001600020600090556001935050505061074d565b600091505061074d565b600061101e83836138bb565b600061101e838361369a565b6067610d0c82826146c0565b6001600160a01b03831661381357505050565b600061381f84846106b8565b905061382b8282614be7565b600003610fff576001600160a01b038416600090815261019260205260409020610c6190846138d3565b6001600160a01b038216613867575050565b6001600160a01b03821660009081526101926020526040902061388a90826137e8565b50610c8d61019083612dc6565b60606138a282610eea565b508051909150600003610d0c57610c8d61019083612e42565b6000818152600183016020526040812054151561101e565b600061101e83836136e9565b80356001600160a01b03811681146138f657600080fd5b919050565b6000806040838503121561390e57600080fd5b613917836138df565b946020939093013593505050565b6001600160e01b0319811681146112c357600080fd5b60006020828403121561394d57600080fd5b813561101e81613925565b60005b8381101561397357818101518382015260200161395b565b50506000910152565b60008151808452613994816020860160208601613958565b601f01601f19169290920160200192915050565b60208152600061101e602083018461397c565b6000602082840312156139cd57600080fd5b5035919050565b60008083601f8401126139e657600080fd5b5081356001600160401b038111156139fd57600080fd5b6020830191508360208260051b850101111561241757600080fd5b60008060008060008060006080888a031215613a3357600080fd5b613a3c886138df565b965060208801356001600160401b0380821115613a5857600080fd5b613a648b838c016139d4565b909850965060408a0135915080821115613a7d57600080fd5b613a898b838c016139d4565b909650945060608a0135915080821115613aa257600080fd5b818a0191508a601f830112613ab657600080fd5b813581811115613ac557600080fd5b8b6020828501011115613ad757600080fd5b60208301945080935050505092959891949750929550565b600081518084526020808501945080840160005b83811015613b285781516001600160a01b031687529582019590820190600101613b03565b509495945050505050565b600081518084526020808501945080840160005b83811015613b2857815187529582019590820190600101613b47565b600081518084526020808501808196508360051b8101915082860160005b85811015613bab578284038952613b99848351613b33565b98850198935090840190600101613b81565b5091979650505050505050565b606081526000613bcb6060830186613aef565b8281036020840152613bdd8186613b63565b90508281036040840152613bf18185613b63565b9695505050505050565b60008060008060008060608789031215613c1457600080fd5b86356001600160401b0380821115613c2b57600080fd5b613c378a838b016139d4565b90985096506020890135915080821115613c5057600080fd5b613c5c8a838b016139d4565b90965094506040890135915080821115613c7557600080fd5b50613c8289828a016139d4565b979a9699509497509295939492505050565b634e487b7160e01b600052604160045260246000fd5b601f8201601f191681016001600160401b0381118282101715613ccf57613ccf613c94565b6040525050565b60006001600160401b03821115613cef57613cef613c94565b5060051b60200190565b600082601f830112613d0a57600080fd5b81356020613d1782613cd6565b604051613d248282613caa565b83815260059390931b8501820192828101915086841115613d4457600080fd5b8286015b84811015613d5f5780358352918301918301613d48565b509695505050505050565b600082601f830112613d7b57600080fd5b81356001600160401b03811115613d9457613d94613c94565b604051613dab601f8301601f191660200182613caa565b818152846020838601011115613dc057600080fd5b816020850160208301376000918101602001919091529392505050565b600080600080600060a08688031215613df557600080fd5b613dfe866138df565b9450613e0c602087016138df565b935060408601356001600160401b0380821115613e2857600080fd5b613e3489838a01613cf9565b94506060880135915080821115613e4a57600080fd5b613e5689838a01613cf9565b93506080880135915080821115613e6c57600080fd5b50613e7988828901613d6a565b9150509295509295909350565b60008060408385031215613e9957600080fd5b82359150613ea9602084016138df565b90509250929050565b60008060408385031215613ec557600080fd5b82356001600160401b0380821115613edc57600080fd5b818501915085601f830112613ef057600080fd5b81356020613efd82613cd6565b604051613f0a8282613caa565b83815260059390931b8501820192828101915089841115613f2a57600080fd5b948201945b83861015613f4f57613f40866138df565b82529482019490820190613f2f565b96505086013592505080821115613f6557600080fd5b50613f7285828601613cf9565b9150509250929050565b60208152600061101e6020830184613b33565b600080600060608486031215613fa457600080fd5b833592506020840135915060408401356001600160401b03811115613fc857600080fd5b613fd486828701613d6a565b9150509250925092565b600060208284031215613ff057600080fd5b61101e826138df565b60408152600061400c6040830185613b33565b828103602084015261095a8185613b33565b60008060006060848603121561403357600080fd5b61403c846138df565b925060208401356001600160401b038082111561405857600080fd5b61406487838801613cf9565b9350604086013591508082111561407a57600080fd5b50613fd486828701613cf9565b60006020828403121561409957600080fd5b81356001600160401b038111156140af57600080fd5b61165f84828501613cf9565b600081518084526020808501808196508360051b8101915082860160005b85811015613bab5782840389526140f184835161397c565b988501989350908401906001016140d9565b60208152600061101e60208301846140bb565b6000806000806080858703121561412c57600080fd5b614135856138df565b9350602085013592506040850135915060608501356001600160401b0381111561415e57600080fd5b61416a87828801613d6a565b91505092959194509250565b6000806040838503121561418957600080fd5b50508035926020909101359150565b6000806000606084860312156141ad57600080fd5b8335925060208401356001600160401b038082111561405857600080fd5b6000806000806000606086880312156141e357600080fd5b8535945060208601356001600160401b038082111561420157600080fd5b61420d89838a016139d4565b9096509450604088013591508082111561422657600080fd5b50614233888289016139d4565b969995985093965092949392505050565b6000806040838503121561425757600080fd5b8235915060208301356001600160401b0381111561427457600080fd5b613f7285828601613cf9565b6000806040838503121561429357600080fd5b61429c836138df565b9150602083013580151581146142b157600080fd5b809150509250929050565b60208152600061101e6020830184613aef565b6000806000606084860312156142e457600080fd5b833592506020808501356001600160401b038082111561430357600080fd5b61430f88838901613cf9565b9450604087013591508082111561432557600080fd5b818701915087601f83011261433957600080fd5b813561434481613cd6565b6040516143518282613caa565b82815260059290921b840185019185810191508a83111561437157600080fd5b8585015b838110156143a95780358581111561438d5760008081fd5b61439b8d89838a0101613d6a565b845250918601918601614375565b508096505050505050509250925092565b600080604083850312156143cd57600080fd5b6143d6836138df565b9150613ea9602084016138df565b600080600080600060a086880312156143fc57600080fd5b614405866138df565b9450614413602087016138df565b9350604086013592506060860135915060808601356001600160401b0381111561443c57600080fd5b613e7988828901613d6a565b60008060006060848603121561445d57600080fd5b614466846138df565b95602085013595506040909401359392505050565b60008060006060848603121561449057600080fd5b505081359360208301359350604090920135919050565b600181811c908216806144bb57607f821691505b6020821081036144db57634e487b7160e01b600052602260045260246000fd5b50919050565b634e487b7160e01b600052603260045260246000fd5b634e487b7160e01b600052601160045260246000fd5b60006001820161451f5761451f6144f7565b5060010190565b6000808335601e1984360301811261453d57600080fd5b8301803591506001600160401b0382111561455757600080fd5b60200191503681900382131561241757600080fd5b601f821115610c8d57600081815260208120601f850160051c810160208610156145935750805b601f850160051c820191505b818110156113725782815560010161459f565b6001600160401b038311156145c9576145c9613c94565b6145dd836145d783546144a7565b8361456c565b6000601f84116001811461461157600085156145f95750838201355b600019600387901b1c1916600186901b178355610c61565b600083815260209020601f19861690835b828110156146425786850135825560209485019460019092019101614622565b508682101561465f5760001960f88860031b161c19848701351681555b505060018560011b0183555050505050565b6020808252602f908201527f455243313135353a2063616c6c6572206973206e6f7420746f6b656e206f776e60408201526e195c881b9bdc88185c1c1c9bdd9959608a1b606082015260800190565b81516001600160401b038111156146d9576146d9613c94565b6146ed816146e784546144a7565b8461456c565b602080601f831160018114614722576000841561470a5750858301515b600019600386901b1c1916600185901b178555611372565b600085815260208120601f198616915b8281101561475157888601518255948401946001909101908401614732565b508582101561476f5787850151600019600388901b60f8161c191681555b5050505050600190811b01905550565b82815260406020820152600061165f604083018461397c565b6040815260006147ab6040830185613b33565b828103602084015261095a81856140bb565b600081516147cf818560208601613958565b9290920192915050565b607b60f81b8152600083516147f5816001850160208801613958565b83519083019061480c816001840160208801613958565b607d60f81b60019290910191820152600201949350505050565b7f646174613a6170706c69636174696f6e2f6a736f6e3b6261736536342c00000081526000825161485e81601d850160208701613958565b91909101601d0192915050565b60208082526021908201527f455243313135353a206d696e7420746f20746865207a65726f206164647265736040820152607360f81b606082015260800190565b60208082526028908201527f455243313135353a2069647320616e6420616d6f756e7473206c656e677468206040820152670dad2e6dac2e8c6d60c31b606082015260800190565b8082018082111561074d5761074d6144f7565b60208082526025908201527f455243313135353a207472616e7366657220746f20746865207a65726f206164604082015264647265737360d81b606082015260800190565b6020808252602a908201527f455243313135353a20696e73756666696369656e742062616c616e636520666f60408201526939103a3930b739b332b960b11b606082015260800190565b60208082526023908201527f455243313135353a206275726e2066726f6d20746865207a65726f206164647260408201526265737360e81b606082015260800190565b60208082526024908201527f455243313135353a206275726e20616d6f756e7420657863656564732062616c604082015263616e636560e01b606082015260800190565b6020808252602b908201527f496e697469616c697a61626c653a20636f6e7472616374206973206e6f74206960408201526a6e697469616c697a696e6760a81b606082015260800190565b6000808454614a76816144a7565b60018281168015614a8e5760018114614aa357614ad2565b60ff1984168752821515830287019450614ad2565b8860005260208060002060005b85811015614ac95781548a820152908401908201614ab0565b50505082870194505b505050508351614ae6818360208801613958565b01949350505050565b67113730b6b2911d1160c11b81528451600090614b13816008850160208a01613958565b61088b60f21b600891840191820181905269113a37b5b2b724b2111d60b11b600a8301528651614b4a816014850160208b01613958565b600b60fa1b601493909101928301526e113232b9b1b934b83a34b7b7111d1160891b60158301528551614b84816024850160208a01613958565b6024920191820152681134b6b0b3b2911d1160b91b6026820152614bdc614bbf614bb1602f8401876147bd565b61088b60f21b815260020190565b70089d1e5c19488e88915490cc4c4d4d488b607a1b815260110190565b979650505050505050565b8181038181111561074d5761074d6144f7565b6f113234b9b83630bcafba3cb832911d1160811b81528151600090614c26816010850160208701613958565b61088b60f21b6010939091019283015250601201919050565b60008651614c51818460208b01613958565b6e3d913a3930b4ba2fba3cb832911d1160891b9083019081528651614c7d81600f840160208b01613958565b61088b60f21b600f92909101918201528551614ca0816011840160208a01613958565b68113b30b63ab2911d1160b91b601192909101918201528451614cca81601a840160208901613958565b61227d60f01b601a92909101918201528351614ced81601c840160208801613958565b01601c01979650505050505050565b6d2261747472696275746573223a5b60901b81528151600090614d2681600e850160208701613958565b605d60f81b600e939091019283015250600f01919050565b634e487b7160e01b600052601260045260246000fd5b600082614d6357614d63614d3e565b500490565b6000816000190483118215151615614d8257614d826144f7565b500290565b7f416363657373436f6e74726f6c3a206163636f756e7420000000000000000000815260008351614dbf816017850160208801613958565b7001034b99036b4b9b9b4b733903937b6329607d1b6017918401918201528351614df0816028840160208801613958565b01602801949350505050565b6001600160a01b0386811682528516602082015260a060408201819052600090614e2890830186613b33565b8281036060840152614e3a8186613b33565b90508281036080840152614e4e818561397c565b98975050505050505050565b600060208284031215614e6c57600080fd5b815161101e81613925565b600060033d1115614e905760046000803e5060005160e01c5b90565b600060443d1015614ea15790565b6040516003193d81016004833e81513d6001600160401b038160248401118184111715614ed057505050505090565b8285019150815181811115614ee85750505050505090565b843d8701016020828501011115614f025750505050505090565b614f1160208286010187613caa565b509095945050505050565b60208082526028908201527f455243313135353a204552433131353552656365697665722072656a656374656040820152676420746f6b656e7360c01b606082015260800190565b6001600160a01b03868116825285166020820152604081018490526060810183905260a060808201819052600090614bdc9083018461397c565b600082614fad57614fad614d3e565b500690565b600081614fc157614fc16144f7565b506000190190565b634e487b7160e01b600052603160045260246000fdfe4142434445464748494a4b4c4d4e4f505152535455565758595a6162636465666768696a6b6c6d6e6f707172737475767778797a303132333435363738392b2f9f2df0fed2c77648de5860a4cc508cd0818c85b8b8a1ab4ceeef8d981c8956a6f01ee2eb8c5679535f9dfef3543570e280865ec756856c5772fe3e6718c5c074a49807205ce4d355092ef5a8a18f56e8913cf4a201fbe287825b095693c21775364d3d7565c7a8300c96fd53e065d19b65848d7b23b3191adcd55621c744223c68747470733a2f2f696d616765732e636f736d6963756e6976657273652e696f2f636f736d69632d636f6d706f6e656e74732fa2646970667358221220214b7d2691f08d6cfae77dfbfc9d2e4568a2a3b51c3ac9d963d2475acf211db364736f6c63430008100033",
  "linkReferences": {},
  "deployedLinkReferences": {}
}