{
  "_format": "hh-sol-artifact-1",
  "contractName": "GameStorageUpgradeable",
  "sourceName": "contracts/upgradeable/storage/GameStorageUpgradeable.sol",
  "abi": [
    {
      "inputs": [],
      "stateMutability": "nonpayable",
      "type": "constructor"
    },
    {
      "anonymous": false,
      "inputs": [
        {
          "indexed": false,
          "internalType": "uint8",
          "name": "version",
          "type": "uint8"
        }
      ],
      "name": "Initialized",
      "type": "event"
    },
    {
      "anonymous": false,
      "inputs": [
        {
          "indexed": false,
          "internalType": "address",
          "name": "account",
          "type": "address"
        }
      ],
      "name": "Paused",
      "type": "event"
    },
    {
      "anonymous": false,
      "inputs": [
        {
          "indexed": true,
          "internalType": "bytes32",
          "name": "role",
          "type": "bytes32"
        },
        {
          "indexed": true,
          "internalType": "bytes32",
          "name": "previousAdminRole",
          "type": "bytes32"
        },
        {
          "indexed": true,
          "internalType": "bytes32",
          "name": "newAdminRole",
          "type": "bytes32"
        }
      ],
      "name": "RoleAdminChanged",
      "type": "event"
    },
    {
      "anonymous": false,
      "inputs": [
        {
          "indexed": true,
          "internalType": "bytes32",
          "name": "role",
          "type": "bytes32"
        },
        {
          "indexed": true,
          "internalType": "address",
          "name": "account",
          "type": "address"
        },
        {
          "indexed": true,
          "internalType": "address",
          "name": "sender",
          "type": "address"
        }
      ],
      "name": "RoleGranted",
      "type": "event"
    },
    {
      "anonymous": false,
      "inputs": [
        {
          "indexed": true,
          "internalType": "bytes32",
          "name": "role",
          "type": "bytes32"
        },
        {
          "indexed": true,
          "internalType": "address",
          "name": "account",
          "type": "address"
        },
        {
          "indexed": true,
          "internalType": "address",
          "name": "sender",
          "type": "address"
        }
      ],
      "name": "RoleRevoked",
      "type": "event"
    },
    {
      "anonymous": false,
      "inputs": [
        {
          "indexed": true,
          "internalType": "address",
          "name": "nftAddress",
          "type": "address"
        },
        {
          "indexed": true,
          "internalType": "uint256",
          "name": "tokenId",
          "type": "uint256"
        },
        {
          "indexed": false,
          "internalType": "uint256",
          "name": "customId",
          "type": "uint256"
        },
        {
          "indexed": false,
          "internalType": "string",
          "name": "value",
          "type": "string"
        }
      ],
      "name": "TextUpdated",
      "type": "event"
    },
    {
      "anonymous": false,
      "inputs": [
        {
          "indexed": false,
          "internalType": "address",
          "name": "account",
          "type": "address"
        }
      ],
      "name": "Unpaused",
      "type": "event"
    },
    {
      "anonymous": false,
      "inputs": [
        {
          "indexed": true,
          "internalType": "address",
          "name": "nftAddress",
          "type": "address"
        },
        {
          "indexed": true,
          "internalType": "uint256",
          "name": "tokenId",
          "type": "uint256"
        },
        {
          "indexed": false,
          "internalType": "uint256",
          "name": "treeId",
          "type": "uint256"
        },
        {
          "indexed": false,
          "internalType": "uint256",
          "name": "skillId",
          "type": "uint256"
        },
        {
          "indexed": false,
          "internalType": "uint256",
          "name": "value",
          "type": "uint256"
        }
      ],
      "name": "ValueUpdated",
      "type": "event"
    },
    {
      "inputs": [],
      "name": "DEFAULT_ADMIN_ROLE",
      "outputs": [
        {
          "internalType": "bytes32",
          "name": "",
          "type": "bytes32"
        }
      ],
      "stateMutability": "view",
      "type": "function"
    },
    {
      "inputs": [],
      "name": "PAUSER_ROLE",
      "outputs": [
        {
          "internalType": "bytes32",
          "name": "",
          "type": "bytes32"
        }
      ],
      "stateMutability": "view",
      "type": "function"
    },
    {
      "inputs": [],
      "name": "UPDATER_ROLE",
      "outputs": [
        {
          "internalType": "bytes32",
          "name": "",
          "type": "bytes32"
        }
      ],
      "stateMutability": "view",
      "type": "function"
    },
    {
      "inputs": [
        {
          "internalType": "bytes32",
          "name": "role",
          "type": "bytes32"
        }
      ],
      "name": "getRoleAdmin",
      "outputs": [
        {
          "internalType": "bytes32",
          "name": "",
          "type": "bytes32"
        }
      ],
      "stateMutability": "view",
      "type": "function"
    },
    {
      "inputs": [
        {
          "internalType": "address",
          "name": "nftAddress",
          "type": "address"
        },
        {
          "internalType": "uint256",
          "name": "tokenId",
          "type": "uint256"
        },
        {
          "internalType": "uint256",
          "name": "treeId",
          "type": "uint256"
        },
        {
          "internalType": "uint256",
          "name": "skillId",
          "type": "uint256"
        }
      ],
      "name": "getSkill",
      "outputs": [
        {
          "internalType": "uint256",
          "name": "value",
          "type": "uint256"
        }
      ],
      "stateMutability": "view",
      "type": "function"
    },
    {
      "inputs": [
        {
          "internalType": "address",
          "name": "nftAddress",
          "type": "address"
        },
        {
          "internalType": "uint256",
          "name": "tokenId",
          "type": "uint256"
        },
        {
          "internalType": "uint256",
          "name": "treeId",
          "type": "uint256"
        },
        {
          "internalType": "uint256[]",
          "name": "skillIds",
          "type": "uint256[]"
        }
      ],
      "name": "getSkillsByTree",
      "outputs": [
        {
          "internalType": "uint256[]",
          "name": "",
          "type": "uint256[]"
        }
      ],
      "stateMutability": "view",
      "type": "function"
    },
    {
      "inputs": [
        {
          "internalType": "address",
          "name": "nftAddress",
          "type": "address"
        },
        {
          "internalType": "uint256",
          "name": "tokenId",
          "type": "uint256"
        },
        {
          "internalType": "uint256",
          "name": "customId",
          "type": "uint256"
        }
      ],
      "name": "getString",
      "outputs": [
        {
          "internalType": "string",
          "name": "value",
          "type": "string"
        }
      ],
      "stateMutability": "view",
      "type": "function"
    },
    {
      "inputs": [
        {
          "internalType": "address",
          "name": "nftAddress",
          "type": "address"
        },
        {
          "internalType": "uint256[]",
          "name": "tokenIds",
          "type": "uint256[]"
        },
        {
          "internalType": "uint256",
          "name": "customId",
          "type": "uint256"
        }
      ],
      "name": "getStringOfTokens",
      "outputs": [
        {
          "internalType": "string[]",
          "name": "",
          "type": "string[]"
        }
      ],
      "stateMutability": "view",
      "type": "function"
    },
    {
      "inputs": [
        {
          "internalType": "address",
          "name": "nftAddress",
          "type": "address"
        },
        {
          "internalType": "uint256",
          "name": "tokenId",
          "type": "uint256"
        },
        {
          "internalType": "uint256[]",
          "name": "customIds",
          "type": "uint256[]"
        }
      ],
      "name": "getStrings",
      "outputs": [
        {
          "internalType": "string[]",
          "name": "",
          "type": "string[]"
        }
      ],
      "stateMutability": "view",
      "type": "function"
    },
    {
      "inputs": [
        {
          "internalType": "bytes32",
          "name": "role",
          "type": "bytes32"
        },
        {
          "internalType": "address",
          "name": "account",
          "type": "address"
        }
      ],
      "name": "grantRole",
      "outputs": [],
      "stateMutability": "nonpayable",
      "type": "function"
    },
    {
      "inputs": [
        {
          "internalType": "bytes32",
          "name": "role",
          "type": "bytes32"
        },
        {
          "internalType": "address",
          "name": "account",
          "type": "address"
        }
      ],
      "name": "hasRole",
      "outputs": [
        {
          "internalType": "bool",
          "name": "",
          "type": "bool"
        }
      ],
      "stateMutability": "view",
      "type": "function"
    },
    {
      "inputs": [],
      "name": "initialize",
      "outputs": [],
      "stateMutability": "nonpayable",
      "type": "function"
    },
    {
      "inputs": [],
      "name": "pause",
      "outputs": [],
      "stateMutability": "nonpayable",
      "type": "function"
    },
    {
      "inputs": [],
      "name": "paused",
      "outputs": [
        {
          "internalType": "bool",
          "name": "",
          "type": "bool"
        }
      ],
      "stateMutability": "view",
      "type": "function"
    },
    {
      "inputs": [
        {
          "internalType": "bytes32",
          "name": "role",
          "type": "bytes32"
        },
        {
          "internalType": "address",
          "name": "account",
          "type": "address"
        }
      ],
      "name": "renounceRole",
      "outputs": [],
      "stateMutability": "nonpayable",
      "type": "function"
    },
    {
      "inputs": [
        {
          "internalType": "bytes32",
          "name": "role",
          "type": "bytes32"
        },
        {
          "internalType": "address",
          "name": "account",
          "type": "address"
        }
      ],
      "name": "revokeRole",
      "outputs": [],
      "stateMutability": "nonpayable",
      "type": "function"
    },
    {
      "inputs": [
        {
          "internalType": "bytes4",
          "name": "interfaceId",
          "type": "bytes4"
        }
      ],
      "name": "supportsInterface",
      "outputs": [
        {
          "internalType": "bool",
          "name": "",
          "type": "bool"
        }
      ],
      "stateMutability": "view",
      "type": "function"
    },
    {
      "inputs": [],
      "name": "unpause",
      "outputs": [],
      "stateMutability": "nonpayable",
      "type": "function"
    },
    {
      "inputs": [
        {
          "internalType": "address",
          "name": "nftAddress",
          "type": "address"
        },
        {
          "internalType": "uint256",
          "name": "tokenId",
          "type": "uint256"
        },
        {
          "internalType": "uint256",
          "name": "treeId",
          "type": "uint256"
        },
        {
          "internalType": "uint256",
          "name": "skillId",
          "type": "uint256"
        },
        {
          "internalType": "uint256",
          "name": "value",
          "type": "uint256"
        }
      ],
      "name": "updateSkill",
      "outputs": [],
      "stateMutability": "nonpayable",
      "type": "function"
    },
    {
      "inputs": [
        {
          "internalType": "address",
          "name": "nftAddress",
          "type": "address"
        },
        {
          "internalType": "uint256",
          "name": "tokenId",
          "type": "uint256"
        },
        {
          "internalType": "uint256",
          "name": "customId",
          "type": "uint256"
        },
        {
          "internalType": "string",
          "name": "value",
          "type": "string"
        }
      ],
      "name": "updateString",
      "outputs": [],
      "stateMutability": "nonpayable",
      "type": "function"
    }
  ],
  "bytecode": "0x60806040523480156200001157600080fd5b50600062000020600162000087565b9050801562000039576000805461ff0019166101001790555b801562000080576000805461ff0019169055604051600181527f7f26b83ff96e1f2b6a682f133852f6798a09c465da95921460cefb38474024989060200160405180910390a15b50620001a8565b60008054610100900460ff161562000120578160ff166001148015620000c05750620000be306200019960201b62000b461760201c565b155b620001185760405162461bcd60e51b815260206004820152602e602482015260008051602062001a1e83398151915260448201526d191e481a5b9a5d1a585b1a5e995960921b60648201526084015b60405180910390fd5b506000919050565b60005460ff8084169116106200017f5760405162461bcd60e51b815260206004820152602e602482015260008051602062001a1e83398151915260448201526d191e481a5b9a5d1a585b1a5e995960921b60648201526084016200010f565b506000805460ff191660ff92909216919091179055600190565b6001600160a01b03163b151590565b61186680620001b86000396000f3fe608060405234801561001057600080fd5b506004361061012c5760003560e01c806369fde05a116100ad578063a2b990a911610071578063a2b990a914610278578063a6f4e49e1461028b578063b2d89532146102d4578063d547741f146102e7578063e63ab1e9146102fa57600080fd5b806369fde05a1461022d5780638129fc1c1461024d5780638456cb591461025557806391d148541461025d578063a217fddf1461027057600080fd5b806336568abe116100f457806336568abe146101d25780633f4ba83a146101e557806347e63380146101ed5780635287090c146102025780635c975abb1461022257600080fd5b806301ffc9a7146101315780631a24db5214610159578063248a9ca31461016e57806329a6454b1461019f5780632f2ff15d146101bf575b600080fd5b61014461013f3660046110ef565b61030f565b60405190151581526020015b60405180910390f35b61016c610167366004611130565b610346565b005b61019161017c366004611172565b60009081526097602052604090206001015490565b604051908152602001610150565b6101b26101ad36600461118b565b61040a565b604051610150919061121a565b61016c6101cd36600461122d565b6104cb565b61016c6101e036600461122d565b6104f5565b61016c610573565b6101916000805160206117f183398151915281565b610215610210366004611320565b610596565b6040516101509190611381565b60335460ff16610144565b61024061023b3660046113c5565b61067e565b604051610150919061141c565b61016c6107f0565b61016c6108a7565b61014461026b36600461122d565b6108c7565b610191600081565b61016c61028636600461147e565b6108f2565b610191610299366004611537565b6001600160a01b0393909316600090815260c96020908152604080832094835293815283822092825291825282812093815292905290205490565b6102406102e2366004611570565b6109b2565b61016c6102f536600461122d565b610b21565b61019160008051602061181183398151915281565b60006001600160e01b03198216637965db0b60e01b148061034057506301ffc9a760e01b6001600160e01b03198316145b92915050565b60335460ff16156103725760405162461bcd60e51b8152600401610369906115c7565b60405180910390fd5b6000805160206117f183398151915261038a81610b55565b6001600160a01b038616600081815260c9602090815260408083208984528252808320888452825280832087845282529182902085905581518781529081018690529081018490528691907f445ef50cdf63949a03351112ef1cf106665fd2106459e1ba98fcbfc21a3081e09060600160405180910390a3505050505050565b6001600160a01b038316600090815260ca6020908152604080832085845282528083208484529091529020805460609190610444906115f1565b80601f0160208091040260200160405190810160405280929190818152602001828054610470906115f1565b80156104bd5780601f10610492576101008083540402835291602001916104bd565b820191906000526020600020905b8154815290600101906020018083116104a057829003601f168201915b505050505090509392505050565b6000828152609760205260409020600101546104e681610b55565b6104f08383610b5f565b505050565b6001600160a01b03811633146105655760405162461bcd60e51b815260206004820152602f60248201527f416363657373436f6e74726f6c3a2063616e206f6e6c792072656e6f756e636560448201526e103937b632b9903337b91039b2b63360891b6064820152608401610369565b61056f8282610be5565b5050565b60008051602061181183398151915261058b81610b55565b610593610c4c565b50565b60606000825167ffffffffffffffff8111156105b4576105b4611259565b6040519080825280602002602001820160405280156105dd578160200160208202803683370190505b50905060005b8351811015610674576001600160a01b038716600090815260c96020908152604080832089845282528083208884529091528120855190919086908490811061062e5761062e61162c565b60200260200101518152602001908152602001600020548282815181106106575761065761162c565b60209081029190910101528061066c81611658565b9150506105e3565b5095945050505050565b60606000825167ffffffffffffffff81111561069c5761069c611259565b6040519080825280602002602001820160405280156106cf57816020015b60608152602001906001900390816106ba5790505b50905060005b83518110156107e7576001600160a01b038616600090815260ca60209081526040808320888452909152812085519091908690849081106107185761071861162c565b602002602001015181526020019081526020016000208054610739906115f1565b80601f0160208091040260200160405190810160405280929190818152602001828054610765906115f1565b80156107b25780601f10610787576101008083540402835291602001916107b2565b820191906000526020600020905b81548152906001019060200180831161079557829003601f168201915b50505050508282815181106107c9576107c961162c565b602002602001018190525080806107df90611658565b9150506106d5565b50949350505050565b60006107fc6001610cdf565b90508015610814576000805461ff0019166101001790555b61081c610d6c565b610824610d9d565b61082f600033610b5f565b61084760008051602061181183398151915233610b5f565b61085f6000805160206117f183398151915233610b5f565b8015610593576000805461ff0019169055604051600181527f7f26b83ff96e1f2b6a682f133852f6798a09c465da95921460cefb38474024989060200160405180910390a150565b6000805160206118118339815191526108bf81610b55565b610593610dc4565b60009182526097602090815260408084206001600160a01b0393909316845291905290205460ff1690565b60335460ff16156109155760405162461bcd60e51b8152600401610369906115c7565b6000805160206117f183398151915261092d81610b55565b6001600160a01b038516600090815260ca6020908152604080832087845282528083208684528252909120835161096692850190611056565b5083856001600160a01b03167fa995baa8d5c0c6d185ff5587d70f989ccd58f15b084b3b05753297eeb400fed785856040516109a3929190611673565b60405180910390a35050505050565b60606000835167ffffffffffffffff8111156109d0576109d0611259565b604051908082528060200260200182016040528015610a0357816020015b60608152602001906001900390816109ee5790505b50905060005b84518110156107e7576001600160a01b038616600090815260ca602052604081208651909190879084908110610a4157610a4161162c565b6020026020010151815260200190815260200160002060008581526020019081526020016000208054610a73906115f1565b80601f0160208091040260200160405190810160405280929190818152602001828054610a9f906115f1565b8015610aec5780601f10610ac157610100808354040283529160200191610aec565b820191906000526020600020905b815481529060010190602001808311610acf57829003601f168201915b5050505050828281518110610b0357610b0361162c565b60200260200101819052508080610b1990611658565b915050610a09565b600082815260976020526040902060010154610b3c81610b55565b6104f08383610be5565b6001600160a01b03163b151590565b6105938133610e1c565b610b6982826108c7565b61056f5760008281526097602090815260408083206001600160a01b03851684529091529020805460ff19166001179055610ba13390565b6001600160a01b0316816001600160a01b0316837f2f8788117e7eff1d82e926ec794901d17c78024a50270940304540a733656f0d60405160405180910390a45050565b610bef82826108c7565b1561056f5760008281526097602090815260408083206001600160a01b0385168085529252808320805460ff1916905551339285917ff6391f5c32d9c69d2a47ea670b442974b53935d1edc7fd64eb21e047a839171b9190a45050565b60335460ff16610c955760405162461bcd60e51b815260206004820152601460248201527314185d5cd8589b194e881b9bdd081c185d5cd95960621b6044820152606401610369565b6033805460ff191690557f5db9ee0a495bf2e6ff9c91a7834c1ba4fdd244a5e8aa4e537bd38aeae4b073aa335b6040516001600160a01b03909116815260200160405180910390a1565b60008054610100900460ff1615610d26578160ff166001148015610d025750303b155b610d1e5760405162461bcd60e51b815260040161036990611694565b506000919050565b60005460ff808416911610610d4d5760405162461bcd60e51b815260040161036990611694565b506000805460ff191660ff92909216919091179055600190565b919050565b600054610100900460ff16610d935760405162461bcd60e51b8152600401610369906116e2565b610d9b610e80565b565b600054610100900460ff16610d9b5760405162461bcd60e51b8152600401610369906116e2565b60335460ff1615610de75760405162461bcd60e51b8152600401610369906115c7565b6033805460ff191660011790557f62e78cea01bee320cd4e420270b5ea74000d11b0c9f74754ebdbfc544b05a258610cc23390565b610e2682826108c7565b61056f57610e3e816001600160a01b03166014610eb3565b610e49836020610eb3565b604051602001610e5a92919061172d565b60408051601f198184030181529082905262461bcd60e51b82526103699160040161121a565b600054610100900460ff16610ea75760405162461bcd60e51b8152600401610369906116e2565b6033805460ff19169055565b60606000610ec28360026117a2565b610ecd9060026117c1565b67ffffffffffffffff811115610ee557610ee5611259565b6040519080825280601f01601f191660200182016040528015610f0f576020820181803683370190505b509050600360fc1b81600081518110610f2a57610f2a61162c565b60200101906001600160f81b031916908160001a905350600f60fb1b81600181518110610f5957610f5961162c565b60200101906001600160f81b031916908160001a9053506000610f7d8460026117a2565b610f889060016117c1565b90505b6001811115611000576f181899199a1a9b1b9c1cb0b131b232b360811b85600f1660108110610fbc57610fbc61162c565b1a60f81b828281518110610fd257610fd261162c565b60200101906001600160f81b031916908160001a90535060049490941c93610ff9816117d9565b9050610f8b565b50831561104f5760405162461bcd60e51b815260206004820181905260248201527f537472696e67733a20686578206c656e67746820696e73756666696369656e746044820152606401610369565b9392505050565b828054611062906115f1565b90600052602060002090601f01602090048101928261108457600085556110ca565b82601f1061109d57805160ff19168380011785556110ca565b828001600101855582156110ca579182015b828111156110ca5782518255916020019190600101906110af565b506110d69291506110da565b5090565b5b808211156110d657600081556001016110db565b60006020828403121561110157600080fd5b81356001600160e01b03198116811461104f57600080fd5b80356001600160a01b0381168114610d6757600080fd5b600080600080600060a0868803121561114857600080fd5b61115186611119565b97602087013597506040870135966060810135965060800135945092505050565b60006020828403121561118457600080fd5b5035919050565b6000806000606084860312156111a057600080fd5b6111a984611119565b95602085013595506040909401359392505050565b60005b838110156111d95781810151838201526020016111c1565b838111156111e8576000848401525b50505050565b600081518084526112068160208601602086016111be565b601f01601f19169290920160200192915050565b60208152600061104f60208301846111ee565b6000806040838503121561124057600080fd5b8235915061125060208401611119565b90509250929050565b634e487b7160e01b600052604160045260246000fd5b604051601f8201601f1916810167ffffffffffffffff8111828210171561129857611298611259565b604052919050565b600082601f8301126112b157600080fd5b8135602067ffffffffffffffff8211156112cd576112cd611259565b8160051b6112dc82820161126f565b92835284810182019282810190878511156112f657600080fd5b83870192505b84831015611315578235825291830191908301906112fc565b979650505050505050565b6000806000806080858703121561133657600080fd5b61133f85611119565b93506020850135925060408501359150606085013567ffffffffffffffff81111561136957600080fd5b611375878288016112a0565b91505092959194509250565b6020808252825182820181905260009190848201906040850190845b818110156113b95783518352928401929184019160010161139d565b50909695505050505050565b6000806000606084860312156113da57600080fd5b6113e384611119565b925060208401359150604084013567ffffffffffffffff81111561140657600080fd5b611412868287016112a0565b9150509250925092565b6000602080830181845280855180835260408601915060408160051b870101925083870160005b8281101561147157603f1988860301845261145f8583516111ee565b94509285019290850190600101611443565b5092979650505050505050565b6000806000806080858703121561149457600080fd5b61149d85611119565b9350602080860135935060408601359250606086013567ffffffffffffffff808211156114c957600080fd5b818801915088601f8301126114dd57600080fd5b8135818111156114ef576114ef611259565b611501601f8201601f1916850161126f565b9150808252898482850101111561151757600080fd5b808484018584013760008482840101525080935050505092959194509250565b6000806000806080858703121561154d57600080fd5b61155685611119565b966020860135965060408601359560600135945092505050565b60008060006060848603121561158557600080fd5b61158e84611119565b9250602084013567ffffffffffffffff8111156115aa57600080fd5b6115b6868287016112a0565b925050604084013590509250925092565b60208082526010908201526f14185d5cd8589b194e881c185d5cd95960821b604082015260600190565b600181811c9082168061160557607f821691505b6020821081141561162657634e487b7160e01b600052602260045260246000fd5b50919050565b634e487b7160e01b600052603260045260246000fd5b634e487b7160e01b600052601160045260246000fd5b600060001982141561166c5761166c611642565b5060010190565b82815260406020820152600061168c60408301846111ee565b949350505050565b6020808252602e908201527f496e697469616c697a61626c653a20636f6e747261637420697320616c72656160408201526d191e481a5b9a5d1a585b1a5e995960921b606082015260800190565b6020808252602b908201527f496e697469616c697a61626c653a20636f6e7472616374206973206e6f74206960408201526a6e697469616c697a696e6760a81b606082015260800190565b7f416363657373436f6e74726f6c3a206163636f756e74200000000000000000008152600083516117658160178501602088016111be565b7001034b99036b4b9b9b4b733903937b6329607d1b60179184019182015283516117968160288401602088016111be565b01602801949350505050565b60008160001904831182151516156117bc576117bc611642565b500290565b600082198211156117d4576117d4611642565b500190565b6000816117e8576117e8611642565b50600019019056fe73e573f9566d61418a34d5de3ff49360f9c51fec37f7486551670290f6285dab65d7a28e3265b37a6474929f336521b332c1681b933f6cb9f3376673440d862aa264697066735822122098f5fc5c4ab1058988f0cfe76aba05f73bcd4db98c4df859c642bfa8768bec7264736f6c63430008090033496e697469616c697a61626c653a20636f6e747261637420697320616c726561",
  "linkReferences": {},
  "deployedLinkReferences": {}
}