{
  "_format": "hh-sol-artifact-1",
  "contractName": "GameStorageUpgradeable",
  "sourceName": "contracts/upgradeable/storage/GameStorageUpgradeable.sol",
  "abi": [
    {
      "inputs": [],
      "stateMutability": "nonpayable",
      "type": "constructor"
    },
    {
      "anonymous": false,
      "inputs": [
        {
          "indexed": false,
          "internalType": "uint8",
          "name": "version",
          "type": "uint8"
        }
      ],
      "name": "Initialized",
      "type": "event"
    },
    {
      "anonymous": false,
      "inputs": [
        {
          "indexed": false,
          "internalType": "address",
          "name": "account",
          "type": "address"
        }
      ],
      "name": "Paused",
      "type": "event"
    },
    {
      "anonymous": false,
      "inputs": [
        {
          "indexed": true,
          "internalType": "bytes32",
          "name": "role",
          "type": "bytes32"
        },
        {
          "indexed": true,
          "internalType": "bytes32",
          "name": "previousAdminRole",
          "type": "bytes32"
        },
        {
          "indexed": true,
          "internalType": "bytes32",
          "name": "newAdminRole",
          "type": "bytes32"
        }
      ],
      "name": "RoleAdminChanged",
      "type": "event"
    },
    {
      "anonymous": false,
      "inputs": [
        {
          "indexed": true,
          "internalType": "bytes32",
          "name": "role",
          "type": "bytes32"
        },
        {
          "indexed": true,
          "internalType": "address",
          "name": "account",
          "type": "address"
        },
        {
          "indexed": true,
          "internalType": "address",
          "name": "sender",
          "type": "address"
        }
      ],
      "name": "RoleGranted",
      "type": "event"
    },
    {
      "anonymous": false,
      "inputs": [
        {
          "indexed": true,
          "internalType": "bytes32",
          "name": "role",
          "type": "bytes32"
        },
        {
          "indexed": true,
          "internalType": "address",
          "name": "account",
          "type": "address"
        },
        {
          "indexed": true,
          "internalType": "address",
          "name": "sender",
          "type": "address"
        }
      ],
      "name": "RoleRevoked",
      "type": "event"
    },
    {
      "anonymous": false,
      "inputs": [
        {
          "indexed": true,
          "internalType": "address",
          "name": "nftAddress",
          "type": "address"
        },
        {
          "indexed": true,
          "internalType": "uint256",
          "name": "tokenId",
          "type": "uint256"
        },
        {
          "indexed": false,
          "internalType": "uint256",
          "name": "customId",
          "type": "uint256"
        },
        {
          "indexed": false,
          "internalType": "string",
          "name": "value",
          "type": "string"
        }
      ],
      "name": "TextUpdated",
      "type": "event"
    },
    {
      "anonymous": false,
      "inputs": [
        {
          "indexed": false,
          "internalType": "address",
          "name": "account",
          "type": "address"
        }
      ],
      "name": "Unpaused",
      "type": "event"
    },
    {
      "anonymous": false,
      "inputs": [
        {
          "indexed": true,
          "internalType": "address",
          "name": "nftAddress",
          "type": "address"
        },
        {
          "indexed": true,
          "internalType": "uint256",
          "name": "tokenId",
          "type": "uint256"
        },
        {
          "indexed": false,
          "internalType": "uint256",
          "name": "treeId",
          "type": "uint256"
        },
        {
          "indexed": false,
          "internalType": "uint256",
          "name": "skillId",
          "type": "uint256"
        },
        {
          "indexed": false,
          "internalType": "uint256",
          "name": "value",
          "type": "uint256"
        }
      ],
      "name": "ValueUpdated",
      "type": "event"
    },
    {
      "inputs": [],
      "name": "CONTRACT_ROLE",
      "outputs": [
        {
          "internalType": "bytes32",
          "name": "",
          "type": "bytes32"
        }
      ],
      "stateMutability": "view",
      "type": "function"
    },
    {
      "inputs": [],
      "name": "DEFAULT_ADMIN_ROLE",
      "outputs": [
        {
          "internalType": "bytes32",
          "name": "",
          "type": "bytes32"
        }
      ],
      "stateMutability": "view",
      "type": "function"
    },
    {
      "inputs": [],
      "name": "PAUSER_ROLE",
      "outputs": [
        {
          "internalType": "bytes32",
          "name": "",
          "type": "bytes32"
        }
      ],
      "stateMutability": "view",
      "type": "function"
    },
    {
      "inputs": [
        {
          "internalType": "bytes32",
          "name": "role",
          "type": "bytes32"
        }
      ],
      "name": "getRoleAdmin",
      "outputs": [
        {
          "internalType": "bytes32",
          "name": "",
          "type": "bytes32"
        }
      ],
      "stateMutability": "view",
      "type": "function"
    },
    {
      "inputs": [
        {
          "internalType": "address",
          "name": "nftAddress",
          "type": "address"
        },
        {
          "internalType": "uint256",
          "name": "tokenId",
          "type": "uint256"
        },
        {
          "internalType": "uint256",
          "name": "treeId",
          "type": "uint256"
        },
        {
          "internalType": "uint256",
          "name": "skillId",
          "type": "uint256"
        }
      ],
      "name": "getSkill",
      "outputs": [
        {
          "internalType": "uint256",
          "name": "value",
          "type": "uint256"
        }
      ],
      "stateMutability": "view",
      "type": "function"
    },
    {
      "inputs": [
        {
          "internalType": "address",
          "name": "nftAddress",
          "type": "address"
        },
        {
          "internalType": "uint256",
          "name": "tokenId",
          "type": "uint256"
        },
        {
          "internalType": "uint256",
          "name": "treeId",
          "type": "uint256"
        },
        {
          "internalType": "uint256[]",
          "name": "skillIds",
          "type": "uint256[]"
        }
      ],
      "name": "getSkillsByTree",
      "outputs": [
        {
          "internalType": "uint256[]",
          "name": "",
          "type": "uint256[]"
        }
      ],
      "stateMutability": "view",
      "type": "function"
    },
    {
      "inputs": [
        {
          "internalType": "address",
          "name": "nftAddress",
          "type": "address"
        },
        {
          "internalType": "uint256",
          "name": "tokenId",
          "type": "uint256"
        },
        {
          "internalType": "uint256",
          "name": "customId",
          "type": "uint256"
        }
      ],
      "name": "getString",
      "outputs": [
        {
          "internalType": "string",
          "name": "value",
          "type": "string"
        }
      ],
      "stateMutability": "view",
      "type": "function"
    },
    {
      "inputs": [
        {
          "internalType": "address",
          "name": "nftAddress",
          "type": "address"
        },
        {
          "internalType": "uint256[]",
          "name": "tokenIds",
          "type": "uint256[]"
        },
        {
          "internalType": "uint256",
          "name": "customId",
          "type": "uint256"
        }
      ],
      "name": "getStringOfTokens",
      "outputs": [
        {
          "internalType": "string[]",
          "name": "",
          "type": "string[]"
        }
      ],
      "stateMutability": "view",
      "type": "function"
    },
    {
      "inputs": [
        {
          "internalType": "address",
          "name": "nftAddress",
          "type": "address"
        },
        {
          "internalType": "uint256",
          "name": "tokenId",
          "type": "uint256"
        },
        {
          "internalType": "uint256[]",
          "name": "customIds",
          "type": "uint256[]"
        }
      ],
      "name": "getStrings",
      "outputs": [
        {
          "internalType": "string[]",
          "name": "",
          "type": "string[]"
        }
      ],
      "stateMutability": "view",
      "type": "function"
    },
    {
      "inputs": [
        {
          "internalType": "bytes32",
          "name": "role",
          "type": "bytes32"
        },
        {
          "internalType": "address",
          "name": "account",
          "type": "address"
        }
      ],
      "name": "grantRole",
      "outputs": [],
      "stateMutability": "nonpayable",
      "type": "function"
    },
    {
      "inputs": [
        {
          "internalType": "bytes32",
          "name": "role",
          "type": "bytes32"
        },
        {
          "internalType": "address",
          "name": "account",
          "type": "address"
        }
      ],
      "name": "hasRole",
      "outputs": [
        {
          "internalType": "bool",
          "name": "",
          "type": "bool"
        }
      ],
      "stateMutability": "view",
      "type": "function"
    },
    {
      "inputs": [],
      "name": "initialize",
      "outputs": [],
      "stateMutability": "nonpayable",
      "type": "function"
    },
    {
      "inputs": [],
      "name": "pause",
      "outputs": [],
      "stateMutability": "nonpayable",
      "type": "function"
    },
    {
      "inputs": [],
      "name": "paused",
      "outputs": [
        {
          "internalType": "bool",
          "name": "",
          "type": "bool"
        }
      ],
      "stateMutability": "view",
      "type": "function"
    },
    {
      "inputs": [
        {
          "internalType": "bytes32",
          "name": "role",
          "type": "bytes32"
        },
        {
          "internalType": "address",
          "name": "account",
          "type": "address"
        }
      ],
      "name": "renounceRole",
      "outputs": [],
      "stateMutability": "nonpayable",
      "type": "function"
    },
    {
      "inputs": [
        {
          "internalType": "bytes32",
          "name": "role",
          "type": "bytes32"
        },
        {
          "internalType": "address",
          "name": "account",
          "type": "address"
        }
      ],
      "name": "revokeRole",
      "outputs": [],
      "stateMutability": "nonpayable",
      "type": "function"
    },
    {
      "inputs": [
        {
          "internalType": "bytes4",
          "name": "interfaceId",
          "type": "bytes4"
        }
      ],
      "name": "supportsInterface",
      "outputs": [
        {
          "internalType": "bool",
          "name": "",
          "type": "bool"
        }
      ],
      "stateMutability": "view",
      "type": "function"
    },
    {
      "inputs": [],
      "name": "unpause",
      "outputs": [],
      "stateMutability": "nonpayable",
      "type": "function"
    },
    {
      "inputs": [
        {
          "internalType": "address",
          "name": "nftAddress",
          "type": "address"
        },
        {
          "internalType": "uint256",
          "name": "tokenId",
          "type": "uint256"
        },
        {
          "internalType": "uint256",
          "name": "treeId",
          "type": "uint256"
        },
        {
          "internalType": "uint256",
          "name": "skillId",
          "type": "uint256"
        },
        {
          "internalType": "uint256",
          "name": "value",
          "type": "uint256"
        }
      ],
      "name": "updateSkill",
      "outputs": [],
      "stateMutability": "nonpayable",
      "type": "function"
    },
    {
      "inputs": [
        {
          "internalType": "address",
          "name": "nftAddress",
          "type": "address"
        },
        {
          "internalType": "uint256",
          "name": "tokenId",
          "type": "uint256"
        },
        {
          "internalType": "uint256",
          "name": "customId",
          "type": "uint256"
        },
        {
          "internalType": "string",
          "name": "value",
          "type": "string"
        }
      ],
      "name": "updateString",
      "outputs": [],
      "stateMutability": "nonpayable",
      "type": "function"
    }
  ],
  "bytecode": "0x608060405234801561001057600080fd5b5061001961001e565b6100de565b600054610100900460ff161561008a5760405162461bcd60e51b815260206004820152602760248201527f496e697469616c697a61626c653a20636f6e747261637420697320696e697469604482015266616c697a696e6760c81b606482015260840160405180910390fd5b60005460ff90811610156100dc576000805460ff191660ff9081179091556040519081527f7f26b83ff96e1f2b6a682f133852f6798a09c465da95921460cefb38474024989060200160405180910390a15b565b6117ec806100ed6000396000f3fe608060405234801561001057600080fd5b506004361061012c5760003560e01c806369fde05a116100ad578063a2b990a911610071578063a2b990a914610278578063a6f4e49e1461028b578063b2d89532146102d4578063d547741f146102e7578063e63ab1e9146102fa57600080fd5b806369fde05a1461022d5780638129fc1c1461024d5780638456cb591461025557806391d148541461025d578063a217fddf1461027057600080fd5b80632f2ff15d116100f45780632f2ff15d146101d457806336568abe146101e75780633f4ba83a146101fa5780635287090c146102025780635c975abb1461022257600080fd5b806301ffc9a71461013157806303fe46ab146101595780631a24db521461017c578063248a9ca31461019157806329a6454b146101b4575b600080fd5b61014461013f3660046110e8565b61030f565b60405190151581526020015b60405180910390f35b61016e60008051602061179783398151915281565b604051908152602001610150565b61018f61018a36600461112e565b610346565b005b61016e61019f366004611170565b60009081526097602052604090206001015490565b6101c76101c2366004611189565b6103e6565b6040516101509190611218565b61018f6101e236600461122b565b6104a7565b61018f6101f536600461122b565b6104d1565b61018f610554565b61021561021036600461131e565b610577565b604051610150919061137f565b60335460ff16610144565b61024061023b3660046113c3565b61065f565b604051610150919061141a565b61018f6107d1565b61018f610924565b61014461026b36600461122b565b610944565b61016e600081565b61018f61028636600461147c565b61096f565b61016e610299366004611535565b6001600160a01b0393909316600090815260c96020908152604080832094835293815283822092825291825282812093815292905290205490565b6102406102e236600461156e565b610a14565b61018f6102f536600461122b565b610b83565b61016e60008051602061177783398151915281565b60006001600160e01b03198216637965db0b60e01b148061034057506301ffc9a760e01b6001600160e01b03198316145b92915050565b61034e610ba8565b60008051602061179783398151915261036681610bf0565b6001600160a01b038616600081815260c9602090815260408083208984528252808320888452825280832087845282529182902085905581518781529081018690529081018490528691907f445ef50cdf63949a03351112ef1cf106665fd2106459e1ba98fcbfc21a3081e09060600160405180910390a3505050505050565b6001600160a01b038316600090815260ca6020908152604080832085845282528083208484529091529020805460609190610420906115c5565b80601f016020809104026020016040519081016040528092919081815260200182805461044c906115c5565b80156104995780601f1061046e57610100808354040283529160200191610499565b820191906000526020600020905b81548152906001019060200180831161047c57829003601f168201915b505050505090509392505050565b6000828152609760205260409020600101546104c281610bf0565b6104cc8383610bfa565b505050565b6001600160a01b03811633146105465760405162461bcd60e51b815260206004820152602f60248201527f416363657373436f6e74726f6c3a2063616e206f6e6c792072656e6f756e636560448201526e103937b632b9903337b91039b2b63360891b60648201526084015b60405180910390fd5b6105508282610c80565b5050565b60008051602061177783398151915261056c81610bf0565b610574610ce7565b50565b60606000825167ffffffffffffffff81111561059557610595611257565b6040519080825280602002602001820160405280156105be578160200160208202803683370190505b50905060005b8351811015610655576001600160a01b038716600090815260c96020908152604080832089845282528083208884529091528120855190919086908490811061060f5761060f611600565b602002602001015181526020019081526020016000205482828151811061063857610638611600565b60209081029190910101528061064d8161162c565b9150506105c4565b5095945050505050565b60606000825167ffffffffffffffff81111561067d5761067d611257565b6040519080825280602002602001820160405280156106b057816020015b606081526020019060019003908161069b5790505b50905060005b83518110156107c8576001600160a01b038616600090815260ca60209081526040808320888452909152812085519091908690849081106106f9576106f9611600565b60200260200101518152602001908152602001600020805461071a906115c5565b80601f0160208091040260200160405190810160405280929190818152602001828054610746906115c5565b80156107935780601f1061076857610100808354040283529160200191610793565b820191906000526020600020905b81548152906001019060200180831161077657829003601f168201915b50505050508282815181106107aa576107aa611600565b602002602001018190525080806107c09061162c565b9150506106b6565b50949350505050565b600054610100900460ff16158080156107f15750600054600160ff909116105b8061080b5750303b15801561080b575060005460ff166001145b61086e5760405162461bcd60e51b815260206004820152602e60248201527f496e697469616c697a61626c653a20636f6e747261637420697320616c72656160448201526d191e481a5b9a5d1a585b1a5e995960921b606482015260840161053d565b6000805460ff191660011790558015610891576000805461ff0019166101001790555b610899610d39565b6108a1610d68565b6108ac600033610bfa565b6108c460008051602061177783398151915233610bfa565b6108dc60008051602061179783398151915233610bfa565b8015610574576000805461ff0019169055604051600181527f7f26b83ff96e1f2b6a682f133852f6798a09c465da95921460cefb38474024989060200160405180910390a150565b60008051602061177783398151915261093c81610bf0565b610574610d8f565b60009182526097602090815260408084206001600160a01b0393909316845291905290205460ff1690565b610977610ba8565b60008051602061179783398151915261098f81610bf0565b6001600160a01b038516600090815260ca602090815260408083208784528252808320868452825290912083516109c89285019061104f565b5083856001600160a01b03167fa995baa8d5c0c6d185ff5587d70f989ccd58f15b084b3b05753297eeb400fed78585604051610a05929190611647565b60405180910390a35050505050565b60606000835167ffffffffffffffff811115610a3257610a32611257565b604051908082528060200260200182016040528015610a6557816020015b6060815260200190600190039081610a505790505b50905060005b84518110156107c8576001600160a01b038616600090815260ca602052604081208651909190879084908110610aa357610aa3611600565b6020026020010151815260200190815260200160002060008581526020019081526020016000208054610ad5906115c5565b80601f0160208091040260200160405190810160405280929190818152602001828054610b01906115c5565b8015610b4e5780601f10610b2357610100808354040283529160200191610b4e565b820191906000526020600020905b815481529060010190602001808311610b3157829003601f168201915b5050505050828281518110610b6557610b65611600565b60200260200101819052508080610b7b9061162c565b915050610a6b565b600082815260976020526040902060010154610b9e81610bf0565b6104cc8383610c80565b60335460ff1615610bee5760405162461bcd60e51b815260206004820152601060248201526f14185d5cd8589b194e881c185d5cd95960821b604482015260640161053d565b565b6105748133610dcc565b610c048282610944565b6105505760008281526097602090815260408083206001600160a01b03851684529091529020805460ff19166001179055610c3c3390565b6001600160a01b0316816001600160a01b0316837f2f8788117e7eff1d82e926ec794901d17c78024a50270940304540a733656f0d60405160405180910390a45050565b610c8a8282610944565b156105505760008281526097602090815260408083206001600160a01b0385168085529252808320805460ff1916905551339285917ff6391f5c32d9c69d2a47ea670b442974b53935d1edc7fd64eb21e047a839171b9190a45050565b610cef610e30565b6033805460ff191690557f5db9ee0a495bf2e6ff9c91a7834c1ba4fdd244a5e8aa4e537bd38aeae4b073aa335b6040516001600160a01b03909116815260200160405180910390a1565b600054610100900460ff16610d605760405162461bcd60e51b815260040161053d90611668565b610bee610e79565b600054610100900460ff16610bee5760405162461bcd60e51b815260040161053d90611668565b610d97610ba8565b6033805460ff191660011790557f62e78cea01bee320cd4e420270b5ea74000d11b0c9f74754ebdbfc544b05a258610d1c3390565b610dd68282610944565b61055057610dee816001600160a01b03166014610eac565b610df9836020610eac565b604051602001610e0a9291906116b3565b60408051601f198184030181529082905262461bcd60e51b825261053d91600401611218565b60335460ff16610bee5760405162461bcd60e51b815260206004820152601460248201527314185d5cd8589b194e881b9bdd081c185d5cd95960621b604482015260640161053d565b600054610100900460ff16610ea05760405162461bcd60e51b815260040161053d90611668565b6033805460ff19169055565b60606000610ebb836002611728565b610ec6906002611747565b67ffffffffffffffff811115610ede57610ede611257565b6040519080825280601f01601f191660200182016040528015610f08576020820181803683370190505b509050600360fc1b81600081518110610f2357610f23611600565b60200101906001600160f81b031916908160001a905350600f60fb1b81600181518110610f5257610f52611600565b60200101906001600160f81b031916908160001a9053506000610f76846002611728565b610f81906001611747565b90505b6001811115610ff9576f181899199a1a9b1b9c1cb0b131b232b360811b85600f1660108110610fb557610fb5611600565b1a60f81b828281518110610fcb57610fcb611600565b60200101906001600160f81b031916908160001a90535060049490941c93610ff28161175f565b9050610f84565b5083156110485760405162461bcd60e51b815260206004820181905260248201527f537472696e67733a20686578206c656e67746820696e73756666696369656e74604482015260640161053d565b9392505050565b82805461105b906115c5565b90600052602060002090601f01602090048101928261107d57600085556110c3565b82601f1061109657805160ff19168380011785556110c3565b828001600101855582156110c3579182015b828111156110c35782518255916020019190600101906110a8565b506110cf9291506110d3565b5090565b5b808211156110cf57600081556001016110d4565b6000602082840312156110fa57600080fd5b81356001600160e01b03198116811461104857600080fd5b80356001600160a01b038116811461112957600080fd5b919050565b600080600080600060a0868803121561114657600080fd5b61114f86611112565b97602087013597506040870135966060810135965060800135945092505050565b60006020828403121561118257600080fd5b5035919050565b60008060006060848603121561119e57600080fd5b6111a784611112565b95602085013595506040909401359392505050565b60005b838110156111d75781810151838201526020016111bf565b838111156111e6576000848401525b50505050565b600081518084526112048160208601602086016111bc565b601f01601f19169290920160200192915050565b60208152600061104860208301846111ec565b6000806040838503121561123e57600080fd5b8235915061124e60208401611112565b90509250929050565b634e487b7160e01b600052604160045260246000fd5b604051601f8201601f1916810167ffffffffffffffff8111828210171561129657611296611257565b604052919050565b600082601f8301126112af57600080fd5b8135602067ffffffffffffffff8211156112cb576112cb611257565b8160051b6112da82820161126d565b92835284810182019282810190878511156112f457600080fd5b83870192505b84831015611313578235825291830191908301906112fa565b979650505050505050565b6000806000806080858703121561133457600080fd5b61133d85611112565b93506020850135925060408501359150606085013567ffffffffffffffff81111561136757600080fd5b6113738782880161129e565b91505092959194509250565b6020808252825182820181905260009190848201906040850190845b818110156113b75783518352928401929184019160010161139b565b50909695505050505050565b6000806000606084860312156113d857600080fd5b6113e184611112565b925060208401359150604084013567ffffffffffffffff81111561140457600080fd5b6114108682870161129e565b9150509250925092565b6000602080830181845280855180835260408601915060408160051b870101925083870160005b8281101561146f57603f1988860301845261145d8583516111ec565b94509285019290850190600101611441565b5092979650505050505050565b6000806000806080858703121561149257600080fd5b61149b85611112565b9350602080860135935060408601359250606086013567ffffffffffffffff808211156114c757600080fd5b818801915088601f8301126114db57600080fd5b8135818111156114ed576114ed611257565b6114ff601f8201601f1916850161126d565b9150808252898482850101111561151557600080fd5b808484018584013760008482840101525080935050505092959194509250565b6000806000806080858703121561154b57600080fd5b61155485611112565b966020860135965060408601359560600135945092505050565b60008060006060848603121561158357600080fd5b61158c84611112565b9250602084013567ffffffffffffffff8111156115a857600080fd5b6115b48682870161129e565b925050604084013590509250925092565b600181811c908216806115d957607f821691505b602082108114156115fa57634e487b7160e01b600052602260045260246000fd5b50919050565b634e487b7160e01b600052603260045260246000fd5b634e487b7160e01b600052601160045260246000fd5b600060001982141561164057611640611616565b5060010190565b82815260406020820152600061166060408301846111ec565b949350505050565b6020808252602b908201527f496e697469616c697a61626c653a20636f6e7472616374206973206e6f74206960408201526a6e697469616c697a696e6760a81b606082015260800190565b7f416363657373436f6e74726f6c3a206163636f756e74200000000000000000008152600083516116eb8160178501602088016111bc565b7001034b99036b4b9b9b4b733903937b6329607d1b601791840191820152835161171c8160288401602088016111bc565b01602801949350505050565b600081600019048311821515161561174257611742611616565b500290565b6000821982111561175a5761175a611616565b500190565b60008161176e5761176e611616565b50600019019056fe65d7a28e3265b37a6474929f336521b332c1681b933f6cb9f3376673440d862a364d3d7565c7a8300c96fd53e065d19b65848d7b23b3191adcd55621c744223ca264697066735822122064d38127f52821e0fba086f09f9279773d533481726e692905bc1ec92bcc634264736f6c63430008090033",
  "linkReferences": {},
  "deployedLinkReferences": {}
}