{
  "_format": "hh-sol-artifact-1",
  "contractName": "GameStorageUpgradeable",
  "sourceName": "contracts/upgradeable/storage/GameStorageUpgradeable.sol",
  "abi": [
    {
      "inputs": [],
      "stateMutability": "nonpayable",
      "type": "constructor"
    },
    {
      "anonymous": false,
      "inputs": [
        {
          "indexed": false,
          "internalType": "uint8",
          "name": "version",
          "type": "uint8"
        }
      ],
      "name": "Initialized",
      "type": "event"
    },
    {
      "anonymous": false,
      "inputs": [
        {
          "indexed": false,
          "internalType": "address",
          "name": "account",
          "type": "address"
        }
      ],
      "name": "Paused",
      "type": "event"
    },
    {
      "anonymous": false,
      "inputs": [
        {
          "indexed": true,
          "internalType": "bytes32",
          "name": "role",
          "type": "bytes32"
        },
        {
          "indexed": true,
          "internalType": "bytes32",
          "name": "previousAdminRole",
          "type": "bytes32"
        },
        {
          "indexed": true,
          "internalType": "bytes32",
          "name": "newAdminRole",
          "type": "bytes32"
        }
      ],
      "name": "RoleAdminChanged",
      "type": "event"
    },
    {
      "anonymous": false,
      "inputs": [
        {
          "indexed": true,
          "internalType": "bytes32",
          "name": "role",
          "type": "bytes32"
        },
        {
          "indexed": true,
          "internalType": "address",
          "name": "account",
          "type": "address"
        },
        {
          "indexed": true,
          "internalType": "address",
          "name": "sender",
          "type": "address"
        }
      ],
      "name": "RoleGranted",
      "type": "event"
    },
    {
      "anonymous": false,
      "inputs": [
        {
          "indexed": true,
          "internalType": "bytes32",
          "name": "role",
          "type": "bytes32"
        },
        {
          "indexed": true,
          "internalType": "address",
          "name": "account",
          "type": "address"
        },
        {
          "indexed": true,
          "internalType": "address",
          "name": "sender",
          "type": "address"
        }
      ],
      "name": "RoleRevoked",
      "type": "event"
    },
    {
      "anonymous": false,
      "inputs": [
        {
          "indexed": false,
          "internalType": "address",
          "name": "account",
          "type": "address"
        }
      ],
      "name": "Unpaused",
      "type": "event"
    },
    {
      "inputs": [],
      "name": "DEFAULT_ADMIN_ROLE",
      "outputs": [
        {
          "internalType": "bytes32",
          "name": "",
          "type": "bytes32"
        }
      ],
      "stateMutability": "view",
      "type": "function"
    },
    {
      "inputs": [],
      "name": "PAUSER_ROLE",
      "outputs": [
        {
          "internalType": "bytes32",
          "name": "",
          "type": "bytes32"
        }
      ],
      "stateMutability": "view",
      "type": "function"
    },
    {
      "inputs": [],
      "name": "UPDATER_ROLE",
      "outputs": [
        {
          "internalType": "bytes32",
          "name": "",
          "type": "bytes32"
        }
      ],
      "stateMutability": "view",
      "type": "function"
    },
    {
      "inputs": [
        {
          "internalType": "bytes32",
          "name": "role",
          "type": "bytes32"
        }
      ],
      "name": "getRoleAdmin",
      "outputs": [
        {
          "internalType": "bytes32",
          "name": "",
          "type": "bytes32"
        }
      ],
      "stateMutability": "view",
      "type": "function"
    },
    {
      "inputs": [
        {
          "internalType": "address",
          "name": "nftAddress",
          "type": "address"
        },
        {
          "internalType": "uint256",
          "name": "tokenId",
          "type": "uint256"
        },
        {
          "internalType": "uint256",
          "name": "treeId",
          "type": "uint256"
        },
        {
          "internalType": "uint256",
          "name": "skillId",
          "type": "uint256"
        }
      ],
      "name": "getSkill",
      "outputs": [
        {
          "internalType": "uint256",
          "name": "value",
          "type": "uint256"
        }
      ],
      "stateMutability": "view",
      "type": "function"
    },
    {
      "inputs": [
        {
          "internalType": "address",
          "name": "nftAddress",
          "type": "address"
        },
        {
          "internalType": "uint256",
          "name": "tokenId",
          "type": "uint256"
        },
        {
          "internalType": "uint256",
          "name": "treeId",
          "type": "uint256"
        },
        {
          "internalType": "uint256[]",
          "name": "skillIds",
          "type": "uint256[]"
        }
      ],
      "name": "getSkillsByTree",
      "outputs": [
        {
          "internalType": "uint256[]",
          "name": "",
          "type": "uint256[]"
        }
      ],
      "stateMutability": "view",
      "type": "function"
    },
    {
      "inputs": [
        {
          "internalType": "address",
          "name": "nftAddress",
          "type": "address"
        },
        {
          "internalType": "uint256",
          "name": "tokenId",
          "type": "uint256"
        },
        {
          "internalType": "uint256",
          "name": "customId",
          "type": "uint256"
        }
      ],
      "name": "getTokenString",
      "outputs": [
        {
          "internalType": "string",
          "name": "value",
          "type": "string"
        }
      ],
      "stateMutability": "view",
      "type": "function"
    },
    {
      "inputs": [
        {
          "internalType": "address",
          "name": "nftAddress",
          "type": "address"
        },
        {
          "internalType": "uint256",
          "name": "tokenId",
          "type": "uint256"
        },
        {
          "internalType": "uint256[]",
          "name": "customIds",
          "type": "uint256[]"
        }
      ],
      "name": "getTokenStrings",
      "outputs": [
        {
          "internalType": "string[]",
          "name": "",
          "type": "string[]"
        }
      ],
      "stateMutability": "view",
      "type": "function"
    },
    {
      "inputs": [
        {
          "internalType": "bytes32",
          "name": "role",
          "type": "bytes32"
        },
        {
          "internalType": "address",
          "name": "account",
          "type": "address"
        }
      ],
      "name": "grantRole",
      "outputs": [],
      "stateMutability": "nonpayable",
      "type": "function"
    },
    {
      "inputs": [
        {
          "internalType": "bytes32",
          "name": "role",
          "type": "bytes32"
        },
        {
          "internalType": "address",
          "name": "account",
          "type": "address"
        }
      ],
      "name": "hasRole",
      "outputs": [
        {
          "internalType": "bool",
          "name": "",
          "type": "bool"
        }
      ],
      "stateMutability": "view",
      "type": "function"
    },
    {
      "inputs": [],
      "name": "initialize",
      "outputs": [],
      "stateMutability": "nonpayable",
      "type": "function"
    },
    {
      "inputs": [],
      "name": "pause",
      "outputs": [],
      "stateMutability": "nonpayable",
      "type": "function"
    },
    {
      "inputs": [],
      "name": "paused",
      "outputs": [
        {
          "internalType": "bool",
          "name": "",
          "type": "bool"
        }
      ],
      "stateMutability": "view",
      "type": "function"
    },
    {
      "inputs": [
        {
          "internalType": "bytes32",
          "name": "role",
          "type": "bytes32"
        },
        {
          "internalType": "address",
          "name": "account",
          "type": "address"
        }
      ],
      "name": "renounceRole",
      "outputs": [],
      "stateMutability": "nonpayable",
      "type": "function"
    },
    {
      "inputs": [
        {
          "internalType": "bytes32",
          "name": "role",
          "type": "bytes32"
        },
        {
          "internalType": "address",
          "name": "account",
          "type": "address"
        }
      ],
      "name": "revokeRole",
      "outputs": [],
      "stateMutability": "nonpayable",
      "type": "function"
    },
    {
      "inputs": [
        {
          "internalType": "bytes4",
          "name": "interfaceId",
          "type": "bytes4"
        }
      ],
      "name": "supportsInterface",
      "outputs": [
        {
          "internalType": "bool",
          "name": "",
          "type": "bool"
        }
      ],
      "stateMutability": "view",
      "type": "function"
    },
    {
      "inputs": [],
      "name": "unpause",
      "outputs": [],
      "stateMutability": "nonpayable",
      "type": "function"
    },
    {
      "inputs": [
        {
          "internalType": "address",
          "name": "nftAddress",
          "type": "address"
        },
        {
          "internalType": "uint256",
          "name": "tokenId",
          "type": "uint256"
        },
        {
          "internalType": "uint256",
          "name": "treeId",
          "type": "uint256"
        },
        {
          "internalType": "uint256",
          "name": "skillId",
          "type": "uint256"
        },
        {
          "internalType": "uint256",
          "name": "value",
          "type": "uint256"
        }
      ],
      "name": "updateSkill",
      "outputs": [],
      "stateMutability": "nonpayable",
      "type": "function"
    },
    {
      "inputs": [
        {
          "internalType": "address",
          "name": "nftAddress",
          "type": "address"
        },
        {
          "internalType": "uint256",
          "name": "tokenId",
          "type": "uint256"
        },
        {
          "internalType": "uint256",
          "name": "customId",
          "type": "uint256"
        },
        {
          "internalType": "string",
          "name": "value",
          "type": "string"
        }
      ],
      "name": "updateTokenString",
      "outputs": [],
      "stateMutability": "nonpayable",
      "type": "function"
    }
  ],
  "bytecode": "0x60806040523480156200001157600080fd5b50600062000020600162000087565b9050801562000039576000805461ff0019166101001790555b801562000080576000805461ff0019169055604051600181527f7f26b83ff96e1f2b6a682f133852f6798a09c465da95921460cefb38474024989060200160405180910390a15b50620001a8565b60008054610100900460ff161562000120578160ff166001148015620000c05750620000be306200019960201b6200092d1760201c565b155b620001185760405162461bcd60e51b815260206004820152602e60248201526000805160206200178d83398151915260448201526d191e481a5b9a5d1a585b1a5e995960921b60648201526084015b60405180910390fd5b506000919050565b60005460ff8084169116106200017f5760405162461bcd60e51b815260206004820152602e60248201526000805160206200178d83398151915260448201526d191e481a5b9a5d1a585b1a5e995960921b60648201526084016200010f565b506000805460ff191660ff92909216919091179055600190565b6001600160a01b03163b151590565b6115d580620001b86000396000f3fe608060405234801561001057600080fd5b50600436106101215760003560e01c80638129fc1c116100ad578063a6f4e49e11610071578063a6f4e49e1461024d578063be75f8de14610296578063d547741f146102b6578063d9132ce5146102c9578063e63ab1e9146102dc57600080fd5b80638129fc1c146102025780638456cb591461020a57806391d148541461021257806396a66b7014610225578063a217fddf1461024557600080fd5b806336568abe116100f457806336568abe146101a75780633f4ba83a146101ba57806347e63380146101c25780635287090c146101d75780635c975abb146101f757600080fd5b806301ffc9a7146101265780631a24db521461014e578063248a9ca3146101635780632f2ff15d14610194575b600080fd5b610139610134366004610ed6565b6102f1565b60405190151581526020015b60405180910390f35b61016161015c366004610f17565b610328565b005b610186610171366004610f59565b60009081526097602052604090206001015490565b604051908152602001610145565b6101616101a2366004610f72565b6103a4565b6101616101b5366004610f72565b6103ce565b61016161044c565b61018660008051602061156083398151915281565b6101ea6101e5366004611065565b61046f565b60405161014591906110c6565b60335460ff16610139565b610161610557565b61016161060e565b610139610220366004610f72565b61062e565b61023861023336600461110a565b610659565b60405161014591906111bd565b610186600081565b61018661025b36600461121f565b6001600160a01b0393909316600090815260c96020908152604080832094835293815283822092825291825282812093815292905290205490565b6102a96102a4366004611258565b6107cb565b604051610145919061128b565b6101616102c4366004610f72565b61088c565b6101616102d736600461129e565b6108b1565b61018660008051602061158083398151915281565b60006001600160e01b03198216637965db0b60e01b148061032257506301ffc9a760e01b6001600160e01b03198316145b92915050565b60335460ff16156103545760405162461bcd60e51b815260040161034b90611357565b60405180910390fd5b60008051602061156083398151915261036c8161093c565b506001600160a01b03909416600090815260c96020908152604080832095835294815284822093825292835283812091815291522055565b6000828152609760205260409020600101546103bf8161093c565b6103c98383610946565b505050565b6001600160a01b038116331461043e5760405162461bcd60e51b815260206004820152602f60248201527f416363657373436f6e74726f6c3a2063616e206f6e6c792072656e6f756e636560448201526e103937b632b9903337b91039b2b63360891b606482015260840161034b565b61044882826109cc565b5050565b6000805160206115808339815191526104648161093c565b61046c610a33565b50565b60606000825167ffffffffffffffff81111561048d5761048d610f9e565b6040519080825280602002602001820160405280156104b6578160200160208202803683370190505b50905060005b835181101561054d576001600160a01b038716600090815260c96020908152604080832089845282528083208884529091528120855190919086908490811061050757610507611381565b602002602001015181526020019081526020016000205482828151811061053057610530611381565b602090810291909101015280610545816113ad565b9150506104bc565b5095945050505050565b60006105636001610ac6565b9050801561057b576000805461ff0019166101001790555b610583610b53565b61058b610b84565b610596600033610946565b6105ae60008051602061158083398151915233610946565b6105c660008051602061156083398151915233610946565b801561046c576000805461ff0019169055604051600181527f7f26b83ff96e1f2b6a682f133852f6798a09c465da95921460cefb38474024989060200160405180910390a150565b6000805160206115808339815191526106268161093c565b61046c610bab565b60009182526097602090815260408084206001600160a01b0393909316845291905290205460ff1690565b60606000825167ffffffffffffffff81111561067757610677610f9e565b6040519080825280602002602001820160405280156106aa57816020015b60608152602001906001900390816106955790505b50905060005b83518110156107c2576001600160a01b038616600090815260ca60209081526040808320888452909152812085519091908690849081106106f3576106f3611381565b602002602001015181526020019081526020016000208054610714906113c8565b80601f0160208091040260200160405190810160405280929190818152602001828054610740906113c8565b801561078d5780601f106107625761010080835404028352916020019161078d565b820191906000526020600020905b81548152906001019060200180831161077057829003601f168201915b50505050508282815181106107a4576107a4611381565b602002602001018190525080806107ba906113ad565b9150506106b0565b50949350505050565b6001600160a01b038316600090815260ca6020908152604080832085845282528083208484529091529020805460609190610805906113c8565b80601f0160208091040260200160405190810160405280929190818152602001828054610831906113c8565b801561087e5780601f106108535761010080835404028352916020019161087e565b820191906000526020600020905b81548152906001019060200180831161086157829003601f168201915b505050505090509392505050565b6000828152609760205260409020600101546108a78161093c565b6103c983836109cc565b60335460ff16156108d45760405162461bcd60e51b815260040161034b90611357565b6000805160206115608339815191526108ec8161093c565b6001600160a01b038516600090815260ca6020908152604080832087845282528083208684528252909120835161092592850190610e3d565b505050505050565b6001600160a01b03163b151590565b61046c8133610c03565b610950828261062e565b6104485760008281526097602090815260408083206001600160a01b03851684529091529020805460ff191660011790556109883390565b6001600160a01b0316816001600160a01b0316837f2f8788117e7eff1d82e926ec794901d17c78024a50270940304540a733656f0d60405160405180910390a45050565b6109d6828261062e565b156104485760008281526097602090815260408083206001600160a01b0385168085529252808320805460ff1916905551339285917ff6391f5c32d9c69d2a47ea670b442974b53935d1edc7fd64eb21e047a839171b9190a45050565b60335460ff16610a7c5760405162461bcd60e51b815260206004820152601460248201527314185d5cd8589b194e881b9bdd081c185d5cd95960621b604482015260640161034b565b6033805460ff191690557f5db9ee0a495bf2e6ff9c91a7834c1ba4fdd244a5e8aa4e537bd38aeae4b073aa335b6040516001600160a01b03909116815260200160405180910390a1565b60008054610100900460ff1615610b0d578160ff166001148015610ae95750303b155b610b055760405162461bcd60e51b815260040161034b90611403565b506000919050565b60005460ff808416911610610b345760405162461bcd60e51b815260040161034b90611403565b506000805460ff191660ff92909216919091179055600190565b919050565b600054610100900460ff16610b7a5760405162461bcd60e51b815260040161034b90611451565b610b82610c67565b565b600054610100900460ff16610b825760405162461bcd60e51b815260040161034b90611451565b60335460ff1615610bce5760405162461bcd60e51b815260040161034b90611357565b6033805460ff191660011790557f62e78cea01bee320cd4e420270b5ea74000d11b0c9f74754ebdbfc544b05a258610aa93390565b610c0d828261062e565b61044857610c25816001600160a01b03166014610c9a565b610c30836020610c9a565b604051602001610c4192919061149c565b60408051601f198184030181529082905262461bcd60e51b825261034b9160040161128b565b600054610100900460ff16610c8e5760405162461bcd60e51b815260040161034b90611451565b6033805460ff19169055565b60606000610ca9836002611511565b610cb4906002611530565b67ffffffffffffffff811115610ccc57610ccc610f9e565b6040519080825280601f01601f191660200182016040528015610cf6576020820181803683370190505b509050600360fc1b81600081518110610d1157610d11611381565b60200101906001600160f81b031916908160001a905350600f60fb1b81600181518110610d4057610d40611381565b60200101906001600160f81b031916908160001a9053506000610d64846002611511565b610d6f906001611530565b90505b6001811115610de7576f181899199a1a9b1b9c1cb0b131b232b360811b85600f1660108110610da357610da3611381565b1a60f81b828281518110610db957610db9611381565b60200101906001600160f81b031916908160001a90535060049490941c93610de081611548565b9050610d72565b508315610e365760405162461bcd60e51b815260206004820181905260248201527f537472696e67733a20686578206c656e67746820696e73756666696369656e74604482015260640161034b565b9392505050565b828054610e49906113c8565b90600052602060002090601f016020900481019282610e6b5760008555610eb1565b82601f10610e8457805160ff1916838001178555610eb1565b82800160010185558215610eb1579182015b82811115610eb1578251825591602001919060010190610e96565b50610ebd929150610ec1565b5090565b5b80821115610ebd5760008155600101610ec2565b600060208284031215610ee857600080fd5b81356001600160e01b031981168114610e3657600080fd5b80356001600160a01b0381168114610b4e57600080fd5b600080600080600060a08688031215610f2f57600080fd5b610f3886610f00565b97602087013597506040870135966060810135965060800135945092505050565b600060208284031215610f6b57600080fd5b5035919050565b60008060408385031215610f8557600080fd5b82359150610f9560208401610f00565b90509250929050565b634e487b7160e01b600052604160045260246000fd5b604051601f8201601f1916810167ffffffffffffffff81118282101715610fdd57610fdd610f9e565b604052919050565b600082601f830112610ff657600080fd5b8135602067ffffffffffffffff82111561101257611012610f9e565b8160051b611021828201610fb4565b928352848101820192828101908785111561103b57600080fd5b83870192505b8483101561105a57823582529183019190830190611041565b979650505050505050565b6000806000806080858703121561107b57600080fd5b61108485610f00565b93506020850135925060408501359150606085013567ffffffffffffffff8111156110ae57600080fd5b6110ba87828801610fe5565b91505092959194509250565b6020808252825182820181905260009190848201906040850190845b818110156110fe578351835292840192918401916001016110e2565b50909695505050505050565b60008060006060848603121561111f57600080fd5b61112884610f00565b925060208401359150604084013567ffffffffffffffff81111561114b57600080fd5b61115786828701610fe5565b9150509250925092565b60005b8381101561117c578181015183820152602001611164565b8381111561118b576000848401525b50505050565b600081518084526111a9816020860160208601611161565b601f01601f19169290920160200192915050565b6000602080830181845280855180835260408601915060408160051b870101925083870160005b8281101561121257603f19888603018452611200858351611191565b945092850192908501906001016111e4565b5092979650505050505050565b6000806000806080858703121561123557600080fd5b61123e85610f00565b966020860135965060408601359560600135945092505050565b60008060006060848603121561126d57600080fd5b61127684610f00565b95602085013595506040909401359392505050565b602081526000610e366020830184611191565b600080600080608085870312156112b457600080fd5b6112bd85610f00565b9350602080860135935060408601359250606086013567ffffffffffffffff808211156112e957600080fd5b818801915088601f8301126112fd57600080fd5b81358181111561130f5761130f610f9e565b611321601f8201601f19168501610fb4565b9150808252898482850101111561133757600080fd5b808484018584013760008482840101525080935050505092959194509250565b60208082526010908201526f14185d5cd8589b194e881c185d5cd95960821b604082015260600190565b634e487b7160e01b600052603260045260246000fd5b634e487b7160e01b600052601160045260246000fd5b60006000198214156113c1576113c1611397565b5060010190565b600181811c908216806113dc57607f821691505b602082108114156113fd57634e487b7160e01b600052602260045260246000fd5b50919050565b6020808252602e908201527f496e697469616c697a61626c653a20636f6e747261637420697320616c72656160408201526d191e481a5b9a5d1a585b1a5e995960921b606082015260800190565b6020808252602b908201527f496e697469616c697a61626c653a20636f6e7472616374206973206e6f74206960408201526a6e697469616c697a696e6760a81b606082015260800190565b7f416363657373436f6e74726f6c3a206163636f756e74200000000000000000008152600083516114d4816017850160208801611161565b7001034b99036b4b9b9b4b733903937b6329607d1b6017918401918201528351611505816028840160208801611161565b01602801949350505050565b600081600019048311821515161561152b5761152b611397565b500290565b6000821982111561154357611543611397565b500190565b60008161155757611557611397565b50600019019056fe73e573f9566d61418a34d5de3ff49360f9c51fec37f7486551670290f6285dab65d7a28e3265b37a6474929f336521b332c1681b933f6cb9f3376673440d862aa264697066735822122044178fdc6b396e79c8ca9f50818346497aed9db4beaf727db069a20cfa80e92964736f6c63430008090033496e697469616c697a61626c653a20636f6e747261637420697320616c726561",
  "linkReferences": {},
  "deployedLinkReferences": {}
}