{
  "_format": "hh-sol-artifact-1",
  "contractName": "GameStorageUpgradeable",
  "sourceName": "contracts/upgradeable/storage/GameStorageUpgradeable.sol",
  "abi": [
    {
      "inputs": [],
      "stateMutability": "nonpayable",
      "type": "constructor"
    },
    {
      "anonymous": false,
      "inputs": [
        {
          "indexed": false,
          "internalType": "uint8",
          "name": "version",
          "type": "uint8"
        }
      ],
      "name": "Initialized",
      "type": "event"
    },
    {
      "anonymous": false,
      "inputs": [
        {
          "indexed": false,
          "internalType": "address",
          "name": "account",
          "type": "address"
        }
      ],
      "name": "Paused",
      "type": "event"
    },
    {
      "anonymous": false,
      "inputs": [
        {
          "indexed": true,
          "internalType": "bytes32",
          "name": "role",
          "type": "bytes32"
        },
        {
          "indexed": true,
          "internalType": "bytes32",
          "name": "previousAdminRole",
          "type": "bytes32"
        },
        {
          "indexed": true,
          "internalType": "bytes32",
          "name": "newAdminRole",
          "type": "bytes32"
        }
      ],
      "name": "RoleAdminChanged",
      "type": "event"
    },
    {
      "anonymous": false,
      "inputs": [
        {
          "indexed": true,
          "internalType": "bytes32",
          "name": "role",
          "type": "bytes32"
        },
        {
          "indexed": true,
          "internalType": "address",
          "name": "account",
          "type": "address"
        },
        {
          "indexed": true,
          "internalType": "address",
          "name": "sender",
          "type": "address"
        }
      ],
      "name": "RoleGranted",
      "type": "event"
    },
    {
      "anonymous": false,
      "inputs": [
        {
          "indexed": true,
          "internalType": "bytes32",
          "name": "role",
          "type": "bytes32"
        },
        {
          "indexed": true,
          "internalType": "address",
          "name": "account",
          "type": "address"
        },
        {
          "indexed": true,
          "internalType": "address",
          "name": "sender",
          "type": "address"
        }
      ],
      "name": "RoleRevoked",
      "type": "event"
    },
    {
      "anonymous": false,
      "inputs": [
        {
          "indexed": true,
          "internalType": "address",
          "name": "nftAddress",
          "type": "address"
        },
        {
          "indexed": true,
          "internalType": "uint256",
          "name": "tokenId",
          "type": "uint256"
        },
        {
          "indexed": false,
          "internalType": "uint256",
          "name": "customId",
          "type": "uint256"
        },
        {
          "indexed": false,
          "internalType": "string",
          "name": "value",
          "type": "string"
        }
      ],
      "name": "TextUpdated",
      "type": "event"
    },
    {
      "anonymous": false,
      "inputs": [
        {
          "indexed": false,
          "internalType": "address",
          "name": "account",
          "type": "address"
        }
      ],
      "name": "Unpaused",
      "type": "event"
    },
    {
      "anonymous": false,
      "inputs": [
        {
          "indexed": true,
          "internalType": "address",
          "name": "nftAddress",
          "type": "address"
        },
        {
          "indexed": true,
          "internalType": "uint256",
          "name": "tokenId",
          "type": "uint256"
        },
        {
          "indexed": false,
          "internalType": "uint256",
          "name": "treeId",
          "type": "uint256"
        },
        {
          "indexed": false,
          "internalType": "uint256",
          "name": "skillId",
          "type": "uint256"
        },
        {
          "indexed": false,
          "internalType": "uint256",
          "name": "value",
          "type": "uint256"
        }
      ],
      "name": "ValueUpdated",
      "type": "event"
    },
    {
      "inputs": [],
      "name": "CONTRACT_ROLE",
      "outputs": [
        {
          "internalType": "bytes32",
          "name": "",
          "type": "bytes32"
        }
      ],
      "stateMutability": "view",
      "type": "function"
    },
    {
      "inputs": [],
      "name": "DEFAULT_ADMIN_ROLE",
      "outputs": [
        {
          "internalType": "bytes32",
          "name": "",
          "type": "bytes32"
        }
      ],
      "stateMutability": "view",
      "type": "function"
    },
    {
      "inputs": [],
      "name": "PAUSER_ROLE",
      "outputs": [
        {
          "internalType": "bytes32",
          "name": "",
          "type": "bytes32"
        }
      ],
      "stateMutability": "view",
      "type": "function"
    },
    {
      "inputs": [
        {
          "internalType": "bytes32",
          "name": "role",
          "type": "bytes32"
        }
      ],
      "name": "getRoleAdmin",
      "outputs": [
        {
          "internalType": "bytes32",
          "name": "",
          "type": "bytes32"
        }
      ],
      "stateMutability": "view",
      "type": "function"
    },
    {
      "inputs": [
        {
          "internalType": "address",
          "name": "nftAddress",
          "type": "address"
        },
        {
          "internalType": "uint256",
          "name": "tokenId",
          "type": "uint256"
        },
        {
          "internalType": "uint256",
          "name": "treeId",
          "type": "uint256"
        },
        {
          "internalType": "uint256",
          "name": "skillId",
          "type": "uint256"
        }
      ],
      "name": "getSkill",
      "outputs": [
        {
          "internalType": "uint256",
          "name": "value",
          "type": "uint256"
        }
      ],
      "stateMutability": "view",
      "type": "function"
    },
    {
      "inputs": [
        {
          "internalType": "address",
          "name": "nftAddress",
          "type": "address"
        },
        {
          "internalType": "uint256[]",
          "name": "tokenIds",
          "type": "uint256[]"
        },
        {
          "internalType": "uint256",
          "name": "treeId",
          "type": "uint256"
        },
        {
          "internalType": "uint256",
          "name": "skillId",
          "type": "uint256"
        }
      ],
      "name": "getSkillOfTokens",
      "outputs": [
        {
          "internalType": "uint256[]",
          "name": "",
          "type": "uint256[]"
        }
      ],
      "stateMutability": "view",
      "type": "function"
    },
    {
      "inputs": [
        {
          "internalType": "address",
          "name": "nftAddress",
          "type": "address"
        },
        {
          "internalType": "uint256",
          "name": "tokenId",
          "type": "uint256"
        },
        {
          "internalType": "uint256",
          "name": "treeId",
          "type": "uint256"
        },
        {
          "internalType": "uint256[]",
          "name": "skillIds",
          "type": "uint256[]"
        }
      ],
      "name": "getSkillsByTree",
      "outputs": [
        {
          "internalType": "uint256[]",
          "name": "",
          "type": "uint256[]"
        }
      ],
      "stateMutability": "view",
      "type": "function"
    },
    {
      "inputs": [
        {
          "internalType": "address",
          "name": "nftAddress",
          "type": "address"
        },
        {
          "internalType": "uint256",
          "name": "tokenId",
          "type": "uint256"
        },
        {
          "internalType": "uint256",
          "name": "customId",
          "type": "uint256"
        }
      ],
      "name": "getString",
      "outputs": [
        {
          "internalType": "string",
          "name": "value",
          "type": "string"
        }
      ],
      "stateMutability": "view",
      "type": "function"
    },
    {
      "inputs": [
        {
          "internalType": "address",
          "name": "nftAddress",
          "type": "address"
        },
        {
          "internalType": "uint256[]",
          "name": "tokenIds",
          "type": "uint256[]"
        },
        {
          "internalType": "uint256",
          "name": "customId",
          "type": "uint256"
        }
      ],
      "name": "getStringOfTokens",
      "outputs": [
        {
          "internalType": "string[]",
          "name": "",
          "type": "string[]"
        }
      ],
      "stateMutability": "view",
      "type": "function"
    },
    {
      "inputs": [
        {
          "internalType": "address",
          "name": "nftAddress",
          "type": "address"
        },
        {
          "internalType": "uint256",
          "name": "tokenId",
          "type": "uint256"
        },
        {
          "internalType": "uint256[]",
          "name": "customIds",
          "type": "uint256[]"
        }
      ],
      "name": "getStrings",
      "outputs": [
        {
          "internalType": "string[]",
          "name": "",
          "type": "string[]"
        }
      ],
      "stateMutability": "view",
      "type": "function"
    },
    {
      "inputs": [
        {
          "internalType": "bytes32",
          "name": "role",
          "type": "bytes32"
        },
        {
          "internalType": "address",
          "name": "account",
          "type": "address"
        }
      ],
      "name": "grantRole",
      "outputs": [],
      "stateMutability": "nonpayable",
      "type": "function"
    },
    {
      "inputs": [
        {
          "internalType": "bytes32",
          "name": "role",
          "type": "bytes32"
        },
        {
          "internalType": "address",
          "name": "account",
          "type": "address"
        }
      ],
      "name": "hasRole",
      "outputs": [
        {
          "internalType": "bool",
          "name": "",
          "type": "bool"
        }
      ],
      "stateMutability": "view",
      "type": "function"
    },
    {
      "inputs": [],
      "name": "initialize",
      "outputs": [],
      "stateMutability": "nonpayable",
      "type": "function"
    },
    {
      "inputs": [],
      "name": "pause",
      "outputs": [],
      "stateMutability": "nonpayable",
      "type": "function"
    },
    {
      "inputs": [],
      "name": "paused",
      "outputs": [
        {
          "internalType": "bool",
          "name": "",
          "type": "bool"
        }
      ],
      "stateMutability": "view",
      "type": "function"
    },
    {
      "inputs": [
        {
          "internalType": "bytes32",
          "name": "role",
          "type": "bytes32"
        },
        {
          "internalType": "address",
          "name": "account",
          "type": "address"
        }
      ],
      "name": "renounceRole",
      "outputs": [],
      "stateMutability": "nonpayable",
      "type": "function"
    },
    {
      "inputs": [
        {
          "internalType": "bytes32",
          "name": "role",
          "type": "bytes32"
        },
        {
          "internalType": "address",
          "name": "account",
          "type": "address"
        }
      ],
      "name": "revokeRole",
      "outputs": [],
      "stateMutability": "nonpayable",
      "type": "function"
    },
    {
      "inputs": [
        {
          "internalType": "bytes4",
          "name": "interfaceId",
          "type": "bytes4"
        }
      ],
      "name": "supportsInterface",
      "outputs": [
        {
          "internalType": "bool",
          "name": "",
          "type": "bool"
        }
      ],
      "stateMutability": "view",
      "type": "function"
    },
    {
      "inputs": [],
      "name": "unpause",
      "outputs": [],
      "stateMutability": "nonpayable",
      "type": "function"
    },
    {
      "inputs": [
        {
          "internalType": "address",
          "name": "nftAddress",
          "type": "address"
        },
        {
          "internalType": "uint256",
          "name": "tokenId",
          "type": "uint256"
        },
        {
          "internalType": "uint256",
          "name": "treeId",
          "type": "uint256"
        },
        {
          "internalType": "uint256",
          "name": "skillId",
          "type": "uint256"
        },
        {
          "internalType": "uint256",
          "name": "value",
          "type": "uint256"
        }
      ],
      "name": "updateSkill",
      "outputs": [],
      "stateMutability": "nonpayable",
      "type": "function"
    },
    {
      "inputs": [
        {
          "internalType": "address",
          "name": "nftAddress",
          "type": "address"
        },
        {
          "internalType": "uint256",
          "name": "tokenId",
          "type": "uint256"
        },
        {
          "internalType": "uint256",
          "name": "customId",
          "type": "uint256"
        },
        {
          "internalType": "string",
          "name": "value",
          "type": "string"
        }
      ],
      "name": "updateString",
      "outputs": [],
      "stateMutability": "nonpayable",
      "type": "function"
    }
  ],
  "bytecode": "0x608060405234801561001057600080fd5b5061001961001e565b6100de565b600054610100900460ff161561008a5760405162461bcd60e51b815260206004820152602760248201527f496e697469616c697a61626c653a20636f6e747261637420697320696e697469604482015266616c697a696e6760c81b606482015260840160405180910390fd5b60005460ff90811610156100dc576000805460ff191660ff9081179091556040519081527f7f26b83ff96e1f2b6a682f133852f6798a09c465da95921460cefb38474024989060200160405180910390a15b565b611955806100ed6000396000f3fe608060405234801561001057600080fd5b50600436106101375760003560e01c806369fde05a116100b8578063a2b990a91161007c578063a2b990a914610283578063a6f4e49e14610296578063ab11b5b5146102df578063b2d89532146102f2578063d547741f14610305578063e63ab1e91461031857600080fd5b806369fde05a146102385780638129fc1c146102585780638456cb591461026057806391d1485414610268578063a217fddf1461027b57600080fd5b80632f2ff15d116100ff5780632f2ff15d146101df57806336568abe146101f25780633f4ba83a146102055780635287090c1461020d5780635c975abb1461022d57600080fd5b806301ffc9a71461013c57806303fe46ab146101645780631a24db5214610187578063248a9ca31461019c57806329a6454b146101bf575b600080fd5b61014f61014a3660046111f3565b61032d565b60405190151581526020015b60405180910390f35b61017960008051602061190083398151915281565b60405190815260200161015b565b61019a610195366004611239565b610364565b005b6101796101aa36600461127b565b60009081526097602052604090206001015490565b6101d26101cd366004611294565b610404565b60405161015b9190611323565b61019a6101ed366004611336565b6104c5565b61019a610200366004611336565b6104ef565b61019a610572565b61022061021b366004611429565b610595565b60405161015b919061148a565b60335460ff1661014f565b61024b6102463660046114ce565b61067d565b60405161015b9190611525565b61019a6107ef565b61019a610942565b61014f610276366004611336565b610962565b610179600081565b61019a610291366004611587565b61098d565b6101796102a4366004611640565b6001600160a01b0393909316600090815260c96020908152604080832094835293815283822092825291825282812093815292905290205490565b6102206102ed366004611679565b610a32565b61024b6103003660046116d7565b610b1f565b61019a610313366004611336565b610c8e565b6101796000805160206118e083398151915281565b60006001600160e01b03198216637965db0b60e01b148061035e57506301ffc9a760e01b6001600160e01b03198316145b92915050565b61036c610cb3565b60008051602061190083398151915261038481610cfb565b6001600160a01b038616600081815260c9602090815260408083208984528252808320888452825280832087845282529182902085905581518781529081018690529081018490528691907f445ef50cdf63949a03351112ef1cf106665fd2106459e1ba98fcbfc21a3081e09060600160405180910390a3505050505050565b6001600160a01b038316600090815260ca602090815260408083208584528252808320848452909152902080546060919061043e9061172e565b80601f016020809104026020016040519081016040528092919081815260200182805461046a9061172e565b80156104b75780601f1061048c576101008083540402835291602001916104b7565b820191906000526020600020905b81548152906001019060200180831161049a57829003601f168201915b505050505090509392505050565b6000828152609760205260409020600101546104e081610cfb565b6104ea8383610d05565b505050565b6001600160a01b03811633146105645760405162461bcd60e51b815260206004820152602f60248201527f416363657373436f6e74726f6c3a2063616e206f6e6c792072656e6f756e636560448201526e103937b632b9903337b91039b2b63360891b60648201526084015b60405180910390fd5b61056e8282610d8b565b5050565b6000805160206118e083398151915261058a81610cfb565b610592610df2565b50565b60606000825167ffffffffffffffff8111156105b3576105b3611362565b6040519080825280602002602001820160405280156105dc578160200160208202803683370190505b50905060005b8351811015610673576001600160a01b038716600090815260c96020908152604080832089845282528083208884529091528120855190919086908490811061062d5761062d611769565b602002602001015181526020019081526020016000205482828151811061065657610656611769565b60209081029190910101528061066b81611795565b9150506105e2565b5095945050505050565b60606000825167ffffffffffffffff81111561069b5761069b611362565b6040519080825280602002602001820160405280156106ce57816020015b60608152602001906001900390816106b95790505b50905060005b83518110156107e6576001600160a01b038616600090815260ca602090815260408083208884529091528120855190919086908490811061071757610717611769565b6020026020010151815260200190815260200160002080546107389061172e565b80601f01602080910402602001604051908101604052809291908181526020018280546107649061172e565b80156107b15780601f10610786576101008083540402835291602001916107b1565b820191906000526020600020905b81548152906001019060200180831161079457829003601f168201915b50505050508282815181106107c8576107c8611769565b602002602001018190525080806107de90611795565b9150506106d4565b50949350505050565b600054610100900460ff161580801561080f5750600054600160ff909116105b806108295750303b158015610829575060005460ff166001145b61088c5760405162461bcd60e51b815260206004820152602e60248201527f496e697469616c697a61626c653a20636f6e747261637420697320616c72656160448201526d191e481a5b9a5d1a585b1a5e995960921b606482015260840161055b565b6000805460ff1916600117905580156108af576000805461ff0019166101001790555b6108b7610e44565b6108bf610e73565b6108ca600033610d05565b6108e26000805160206118e083398151915233610d05565b6108fa60008051602061190083398151915233610d05565b8015610592576000805461ff0019169055604051600181527f7f26b83ff96e1f2b6a682f133852f6798a09c465da95921460cefb38474024989060200160405180910390a150565b6000805160206118e083398151915261095a81610cfb565b610592610e9a565b60009182526097602090815260408084206001600160a01b0393909316845291905290205460ff1690565b610995610cb3565b6000805160206119008339815191526109ad81610cfb565b6001600160a01b038516600090815260ca602090815260408083208784528252808320868452825290912083516109e69285019061115a565b5083856001600160a01b03167fa995baa8d5c0c6d185ff5587d70f989ccd58f15b084b3b05753297eeb400fed78585604051610a239291906117b0565b60405180910390a35050505050565b60606000845167ffffffffffffffff811115610a5057610a50611362565b604051908082528060200260200182016040528015610a79578160200160208202803683370190505b50905060005b8551811015610673576001600160a01b038716600090815260c9602052604081208751909190889084908110610ab757610ab7611769565b602002602001015181526020019081526020016000206000868152602001908152602001600020600085815260200190815260200160002054828281518110610b0257610b02611769565b602090810291909101015280610b1781611795565b915050610a7f565b60606000835167ffffffffffffffff811115610b3d57610b3d611362565b604051908082528060200260200182016040528015610b7057816020015b6060815260200190600190039081610b5b5790505b50905060005b84518110156107e6576001600160a01b038616600090815260ca602052604081208651909190879084908110610bae57610bae611769565b6020026020010151815260200190815260200160002060008581526020019081526020016000208054610be09061172e565b80601f0160208091040260200160405190810160405280929190818152602001828054610c0c9061172e565b8015610c595780601f10610c2e57610100808354040283529160200191610c59565b820191906000526020600020905b815481529060010190602001808311610c3c57829003601f168201915b5050505050828281518110610c7057610c70611769565b60200260200101819052508080610c8690611795565b915050610b76565b600082815260976020526040902060010154610ca981610cfb565b6104ea8383610d8b565b60335460ff1615610cf95760405162461bcd60e51b815260206004820152601060248201526f14185d5cd8589b194e881c185d5cd95960821b604482015260640161055b565b565b6105928133610ed7565b610d0f8282610962565b61056e5760008281526097602090815260408083206001600160a01b03851684529091529020805460ff19166001179055610d473390565b6001600160a01b0316816001600160a01b0316837f2f8788117e7eff1d82e926ec794901d17c78024a50270940304540a733656f0d60405160405180910390a45050565b610d958282610962565b1561056e5760008281526097602090815260408083206001600160a01b0385168085529252808320805460ff1916905551339285917ff6391f5c32d9c69d2a47ea670b442974b53935d1edc7fd64eb21e047a839171b9190a45050565b610dfa610f3b565b6033805460ff191690557f5db9ee0a495bf2e6ff9c91a7834c1ba4fdd244a5e8aa4e537bd38aeae4b073aa335b6040516001600160a01b03909116815260200160405180910390a1565b600054610100900460ff16610e6b5760405162461bcd60e51b815260040161055b906117d1565b610cf9610f84565b600054610100900460ff16610cf95760405162461bcd60e51b815260040161055b906117d1565b610ea2610cb3565b6033805460ff191660011790557f62e78cea01bee320cd4e420270b5ea74000d11b0c9f74754ebdbfc544b05a258610e273390565b610ee18282610962565b61056e57610ef9816001600160a01b03166014610fb7565b610f04836020610fb7565b604051602001610f1592919061181c565b60408051601f198184030181529082905262461bcd60e51b825261055b91600401611323565b60335460ff16610cf95760405162461bcd60e51b815260206004820152601460248201527314185d5cd8589b194e881b9bdd081c185d5cd95960621b604482015260640161055b565b600054610100900460ff16610fab5760405162461bcd60e51b815260040161055b906117d1565b6033805460ff19169055565b60606000610fc6836002611891565b610fd19060026118b0565b67ffffffffffffffff811115610fe957610fe9611362565b6040519080825280601f01601f191660200182016040528015611013576020820181803683370190505b509050600360fc1b8160008151811061102e5761102e611769565b60200101906001600160f81b031916908160001a905350600f60fb1b8160018151811061105d5761105d611769565b60200101906001600160f81b031916908160001a9053506000611081846002611891565b61108c9060016118b0565b90505b6001811115611104576f181899199a1a9b1b9c1cb0b131b232b360811b85600f16601081106110c0576110c0611769565b1a60f81b8282815181106110d6576110d6611769565b60200101906001600160f81b031916908160001a90535060049490941c936110fd816118c8565b905061108f565b5083156111535760405162461bcd60e51b815260206004820181905260248201527f537472696e67733a20686578206c656e67746820696e73756666696369656e74604482015260640161055b565b9392505050565b8280546111669061172e565b90600052602060002090601f01602090048101928261118857600085556111ce565b82601f106111a157805160ff19168380011785556111ce565b828001600101855582156111ce579182015b828111156111ce5782518255916020019190600101906111b3565b506111da9291506111de565b5090565b5b808211156111da57600081556001016111df565b60006020828403121561120557600080fd5b81356001600160e01b03198116811461115357600080fd5b80356001600160a01b038116811461123457600080fd5b919050565b600080600080600060a0868803121561125157600080fd5b61125a8661121d565b97602087013597506040870135966060810135965060800135945092505050565b60006020828403121561128d57600080fd5b5035919050565b6000806000606084860312156112a957600080fd5b6112b28461121d565b95602085013595506040909401359392505050565b60005b838110156112e25781810151838201526020016112ca565b838111156112f1576000848401525b50505050565b6000815180845261130f8160208601602086016112c7565b601f01601f19169290920160200192915050565b60208152600061115360208301846112f7565b6000806040838503121561134957600080fd5b823591506113596020840161121d565b90509250929050565b634e487b7160e01b600052604160045260246000fd5b604051601f8201601f1916810167ffffffffffffffff811182821017156113a1576113a1611362565b604052919050565b600082601f8301126113ba57600080fd5b8135602067ffffffffffffffff8211156113d6576113d6611362565b8160051b6113e5828201611378565b92835284810182019282810190878511156113ff57600080fd5b83870192505b8483101561141e57823582529183019190830190611405565b979650505050505050565b6000806000806080858703121561143f57600080fd5b6114488561121d565b93506020850135925060408501359150606085013567ffffffffffffffff81111561147257600080fd5b61147e878288016113a9565b91505092959194509250565b6020808252825182820181905260009190848201906040850190845b818110156114c2578351835292840192918401916001016114a6565b50909695505050505050565b6000806000606084860312156114e357600080fd5b6114ec8461121d565b925060208401359150604084013567ffffffffffffffff81111561150f57600080fd5b61151b868287016113a9565b9150509250925092565b6000602080830181845280855180835260408601915060408160051b870101925083870160005b8281101561157a57603f198886030184526115688583516112f7565b9450928501929085019060010161154c565b5092979650505050505050565b6000806000806080858703121561159d57600080fd5b6115a68561121d565b9350602080860135935060408601359250606086013567ffffffffffffffff808211156115d257600080fd5b818801915088601f8301126115e657600080fd5b8135818111156115f8576115f8611362565b61160a601f8201601f19168501611378565b9150808252898482850101111561162057600080fd5b808484018584013760008482840101525080935050505092959194509250565b6000806000806080858703121561165657600080fd5b61165f8561121d565b966020860135965060408601359560600135945092505050565b6000806000806080858703121561168f57600080fd5b6116988561121d565b9350602085013567ffffffffffffffff8111156116b457600080fd5b6116c0878288016113a9565b949794965050505060408301359260600135919050565b6000806000606084860312156116ec57600080fd5b6116f58461121d565b9250602084013567ffffffffffffffff81111561171157600080fd5b61171d868287016113a9565b925050604084013590509250925092565b600181811c9082168061174257607f821691505b6020821081141561176357634e487b7160e01b600052602260045260246000fd5b50919050565b634e487b7160e01b600052603260045260246000fd5b634e487b7160e01b600052601160045260246000fd5b60006000198214156117a9576117a961177f565b5060010190565b8281526040602082015260006117c960408301846112f7565b949350505050565b6020808252602b908201527f496e697469616c697a61626c653a20636f6e7472616374206973206e6f74206960408201526a6e697469616c697a696e6760a81b606082015260800190565b7f416363657373436f6e74726f6c3a206163636f756e74200000000000000000008152600083516118548160178501602088016112c7565b7001034b99036b4b9b9b4b733903937b6329607d1b60179184019182015283516118858160288401602088016112c7565b01602801949350505050565b60008160001904831182151516156118ab576118ab61177f565b500290565b600082198211156118c3576118c361177f565b500190565b6000816118d7576118d761177f565b50600019019056fe65d7a28e3265b37a6474929f336521b332c1681b933f6cb9f3376673440d862a364d3d7565c7a8300c96fd53e065d19b65848d7b23b3191adcd55621c744223ca2646970667358221220d3c345ce9e587c915606bc941ff4af126dca5da62e4e59a74d1af66c007f125964736f6c63430008090033",
  "linkReferences": {},
  "deployedLinkReferences": {}
}