{
  "_format": "hh-sol-artifact-1",
  "contractName": "GameStorageUpgradeable",
  "sourceName": "contracts/upgradeable/storage/GameStorageUpgradeable.sol",
  "abi": [
    {
      "inputs": [],
      "stateMutability": "nonpayable",
      "type": "constructor"
    },
    {
      "anonymous": false,
      "inputs": [
        {
          "indexed": false,
          "internalType": "uint8",
          "name": "version",
          "type": "uint8"
        }
      ],
      "name": "Initialized",
      "type": "event"
    },
    {
      "anonymous": false,
      "inputs": [
        {
          "indexed": false,
          "internalType": "address",
          "name": "account",
          "type": "address"
        }
      ],
      "name": "Paused",
      "type": "event"
    },
    {
      "anonymous": false,
      "inputs": [
        {
          "indexed": true,
          "internalType": "bytes32",
          "name": "role",
          "type": "bytes32"
        },
        {
          "indexed": true,
          "internalType": "bytes32",
          "name": "previousAdminRole",
          "type": "bytes32"
        },
        {
          "indexed": true,
          "internalType": "bytes32",
          "name": "newAdminRole",
          "type": "bytes32"
        }
      ],
      "name": "RoleAdminChanged",
      "type": "event"
    },
    {
      "anonymous": false,
      "inputs": [
        {
          "indexed": true,
          "internalType": "bytes32",
          "name": "role",
          "type": "bytes32"
        },
        {
          "indexed": true,
          "internalType": "address",
          "name": "account",
          "type": "address"
        },
        {
          "indexed": true,
          "internalType": "address",
          "name": "sender",
          "type": "address"
        }
      ],
      "name": "RoleGranted",
      "type": "event"
    },
    {
      "anonymous": false,
      "inputs": [
        {
          "indexed": true,
          "internalType": "bytes32",
          "name": "role",
          "type": "bytes32"
        },
        {
          "indexed": true,
          "internalType": "address",
          "name": "account",
          "type": "address"
        },
        {
          "indexed": true,
          "internalType": "address",
          "name": "sender",
          "type": "address"
        }
      ],
      "name": "RoleRevoked",
      "type": "event"
    },
    {
      "anonymous": false,
      "inputs": [
        {
          "indexed": true,
          "internalType": "address",
          "name": "nftAddress",
          "type": "address"
        },
        {
          "indexed": true,
          "internalType": "uint256",
          "name": "tokenId",
          "type": "uint256"
        },
        {
          "indexed": false,
          "internalType": "uint256",
          "name": "customId",
          "type": "uint256"
        },
        {
          "indexed": false,
          "internalType": "string",
          "name": "value",
          "type": "string"
        }
      ],
      "name": "TextUpdated",
      "type": "event"
    },
    {
      "anonymous": false,
      "inputs": [
        {
          "indexed": false,
          "internalType": "address",
          "name": "account",
          "type": "address"
        }
      ],
      "name": "Unpaused",
      "type": "event"
    },
    {
      "anonymous": false,
      "inputs": [
        {
          "indexed": true,
          "internalType": "address",
          "name": "nftAddress",
          "type": "address"
        },
        {
          "indexed": true,
          "internalType": "uint256",
          "name": "tokenId",
          "type": "uint256"
        },
        {
          "indexed": false,
          "internalType": "uint256",
          "name": "treeId",
          "type": "uint256"
        },
        {
          "indexed": false,
          "internalType": "uint256",
          "name": "skillId",
          "type": "uint256"
        },
        {
          "indexed": false,
          "internalType": "uint256",
          "name": "value",
          "type": "uint256"
        }
      ],
      "name": "ValueUpdated",
      "type": "event"
    },
    {
      "inputs": [],
      "name": "CONTRACT_ROLE",
      "outputs": [
        {
          "internalType": "bytes32",
          "name": "",
          "type": "bytes32"
        }
      ],
      "stateMutability": "view",
      "type": "function"
    },
    {
      "inputs": [],
      "name": "DEFAULT_ADMIN_ROLE",
      "outputs": [
        {
          "internalType": "bytes32",
          "name": "",
          "type": "bytes32"
        }
      ],
      "stateMutability": "view",
      "type": "function"
    },
    {
      "inputs": [],
      "name": "PAUSER_ROLE",
      "outputs": [
        {
          "internalType": "bytes32",
          "name": "",
          "type": "bytes32"
        }
      ],
      "stateMutability": "view",
      "type": "function"
    },
    {
      "inputs": [
        {
          "internalType": "bytes32",
          "name": "role",
          "type": "bytes32"
        }
      ],
      "name": "getRoleAdmin",
      "outputs": [
        {
          "internalType": "bytes32",
          "name": "",
          "type": "bytes32"
        }
      ],
      "stateMutability": "view",
      "type": "function"
    },
    {
      "inputs": [
        {
          "internalType": "address",
          "name": "nftAddress",
          "type": "address"
        },
        {
          "internalType": "uint256",
          "name": "tokenId",
          "type": "uint256"
        },
        {
          "internalType": "uint256",
          "name": "treeId",
          "type": "uint256"
        },
        {
          "internalType": "uint256",
          "name": "skillId",
          "type": "uint256"
        }
      ],
      "name": "getSkill",
      "outputs": [
        {
          "internalType": "uint256",
          "name": "value",
          "type": "uint256"
        }
      ],
      "stateMutability": "view",
      "type": "function"
    },
    {
      "inputs": [
        {
          "internalType": "address",
          "name": "nftAddress",
          "type": "address"
        },
        {
          "internalType": "uint256[]",
          "name": "tokenIds",
          "type": "uint256[]"
        },
        {
          "internalType": "uint256",
          "name": "treeId",
          "type": "uint256"
        },
        {
          "internalType": "uint256",
          "name": "skillId",
          "type": "uint256"
        }
      ],
      "name": "getSkillOfTokens",
      "outputs": [
        {
          "internalType": "uint256[]",
          "name": "",
          "type": "uint256[]"
        }
      ],
      "stateMutability": "view",
      "type": "function"
    },
    {
      "inputs": [
        {
          "internalType": "address",
          "name": "nftAddress",
          "type": "address"
        },
        {
          "internalType": "uint256",
          "name": "tokenId",
          "type": "uint256"
        },
        {
          "internalType": "uint256",
          "name": "treeId",
          "type": "uint256"
        },
        {
          "internalType": "uint256[]",
          "name": "skillIds",
          "type": "uint256[]"
        }
      ],
      "name": "getSkillsByTree",
      "outputs": [
        {
          "internalType": "uint256[]",
          "name": "",
          "type": "uint256[]"
        }
      ],
      "stateMutability": "view",
      "type": "function"
    },
    {
      "inputs": [
        {
          "internalType": "address",
          "name": "nftAddress",
          "type": "address"
        },
        {
          "internalType": "uint256",
          "name": "tokenId",
          "type": "uint256"
        },
        {
          "internalType": "uint256",
          "name": "customId",
          "type": "uint256"
        }
      ],
      "name": "getString",
      "outputs": [
        {
          "internalType": "string",
          "name": "value",
          "type": "string"
        }
      ],
      "stateMutability": "view",
      "type": "function"
    },
    {
      "inputs": [
        {
          "internalType": "address",
          "name": "nftAddress",
          "type": "address"
        },
        {
          "internalType": "uint256[]",
          "name": "tokenIds",
          "type": "uint256[]"
        },
        {
          "internalType": "uint256",
          "name": "customId",
          "type": "uint256"
        }
      ],
      "name": "getStringOfTokens",
      "outputs": [
        {
          "internalType": "string[]",
          "name": "",
          "type": "string[]"
        }
      ],
      "stateMutability": "view",
      "type": "function"
    },
    {
      "inputs": [
        {
          "internalType": "address",
          "name": "nftAddress",
          "type": "address"
        },
        {
          "internalType": "uint256",
          "name": "tokenId",
          "type": "uint256"
        },
        {
          "internalType": "uint256[]",
          "name": "customIds",
          "type": "uint256[]"
        }
      ],
      "name": "getStrings",
      "outputs": [
        {
          "internalType": "string[]",
          "name": "",
          "type": "string[]"
        }
      ],
      "stateMutability": "view",
      "type": "function"
    },
    {
      "inputs": [
        {
          "internalType": "bytes32",
          "name": "role",
          "type": "bytes32"
        },
        {
          "internalType": "address",
          "name": "account",
          "type": "address"
        }
      ],
      "name": "grantRole",
      "outputs": [],
      "stateMutability": "nonpayable",
      "type": "function"
    },
    {
      "inputs": [
        {
          "internalType": "bytes32",
          "name": "role",
          "type": "bytes32"
        },
        {
          "internalType": "address",
          "name": "account",
          "type": "address"
        }
      ],
      "name": "hasRole",
      "outputs": [
        {
          "internalType": "bool",
          "name": "",
          "type": "bool"
        }
      ],
      "stateMutability": "view",
      "type": "function"
    },
    {
      "inputs": [],
      "name": "initialize",
      "outputs": [],
      "stateMutability": "nonpayable",
      "type": "function"
    },
    {
      "inputs": [],
      "name": "pause",
      "outputs": [],
      "stateMutability": "nonpayable",
      "type": "function"
    },
    {
      "inputs": [],
      "name": "paused",
      "outputs": [
        {
          "internalType": "bool",
          "name": "",
          "type": "bool"
        }
      ],
      "stateMutability": "view",
      "type": "function"
    },
    {
      "inputs": [
        {
          "internalType": "bytes32",
          "name": "role",
          "type": "bytes32"
        },
        {
          "internalType": "address",
          "name": "account",
          "type": "address"
        }
      ],
      "name": "renounceRole",
      "outputs": [],
      "stateMutability": "nonpayable",
      "type": "function"
    },
    {
      "inputs": [
        {
          "internalType": "bytes32",
          "name": "role",
          "type": "bytes32"
        },
        {
          "internalType": "address",
          "name": "account",
          "type": "address"
        }
      ],
      "name": "revokeRole",
      "outputs": [],
      "stateMutability": "nonpayable",
      "type": "function"
    },
    {
      "inputs": [
        {
          "internalType": "bytes4",
          "name": "interfaceId",
          "type": "bytes4"
        }
      ],
      "name": "supportsInterface",
      "outputs": [
        {
          "internalType": "bool",
          "name": "",
          "type": "bool"
        }
      ],
      "stateMutability": "view",
      "type": "function"
    },
    {
      "inputs": [],
      "name": "unpause",
      "outputs": [],
      "stateMutability": "nonpayable",
      "type": "function"
    },
    {
      "inputs": [
        {
          "internalType": "address",
          "name": "nftAddress",
          "type": "address"
        },
        {
          "internalType": "uint256",
          "name": "tokenId",
          "type": "uint256"
        },
        {
          "internalType": "uint256",
          "name": "treeId",
          "type": "uint256"
        },
        {
          "internalType": "uint256",
          "name": "skillId",
          "type": "uint256"
        },
        {
          "internalType": "uint256",
          "name": "value",
          "type": "uint256"
        }
      ],
      "name": "updateSkill",
      "outputs": [],
      "stateMutability": "nonpayable",
      "type": "function"
    },
    {
      "inputs": [
        {
          "internalType": "address",
          "name": "nftAddress",
          "type": "address"
        },
        {
          "internalType": "uint256",
          "name": "tokenId",
          "type": "uint256"
        },
        {
          "internalType": "uint256",
          "name": "customId",
          "type": "uint256"
        },
        {
          "internalType": "string",
          "name": "value",
          "type": "string"
        }
      ],
      "name": "updateString",
      "outputs": [],
      "stateMutability": "nonpayable",
      "type": "function"
    }
  ],
  "bytecode": "0x608060405234801561001057600080fd5b5061001961001e565b6100de565b600054610100900460ff161561008a5760405162461bcd60e51b815260206004820152602760248201527f496e697469616c697a61626c653a20636f6e747261637420697320696e697469604482015266616c697a696e6760c81b606482015260840160405180910390fd5b60005460ff90811610156100dc576000805460ff191660ff9081179091556040519081527f7f26b83ff96e1f2b6a682f133852f6798a09c465da95921460cefb38474024989060200160405180910390a15b565b6119ac806100ed6000396000f3fe608060405234801561001057600080fd5b50600436106101375760003560e01c806369fde05a116100b8578063a2b990a91161007c578063a2b990a914610283578063a6f4e49e14610296578063ab11b5b5146102df578063b2d89532146102f2578063d547741f14610305578063e63ab1e91461031857600080fd5b806369fde05a146102385780638129fc1c146102585780638456cb591461026057806391d1485414610268578063a217fddf1461027b57600080fd5b80632f2ff15d116100ff5780632f2ff15d146101df57806336568abe146101f25780633f4ba83a146102055780635287090c1461020d5780635c975abb1461022d57600080fd5b806301ffc9a71461013c57806303fe46ab146101645780631a24db5214610187578063248a9ca31461019c57806329a6454b146101bf575b600080fd5b61014f61014a366004611158565b61032d565b60405190151581526020015b60405180910390f35b61017960008051602061195783398151915281565b60405190815260200161015b565b61019a61019536600461119e565b610364565b005b6101796101aa3660046111e0565b60009081526097602052604090206001015490565b6101d26101cd3660046111f9565b610404565b60405161015b919061127c565b61019a6101ed36600461128f565b6104c5565b61019a61020036600461128f565b6104ef565b61019a610572565b61022061021b366004611380565b610595565b60405161015b91906113e0565b60335460ff1661014f565b61024b610246366004611424565b61067c565b60405161015b919061147a565b61019a6107ed565b61019a610940565b61014f61027636600461128f565b610960565b610179600081565b61019a6102913660046114dc565b61098b565b6101796102a4366004611594565b6001600160a01b0393909316600090815260c96020908152604080832094835293815283822092825291825282812093815292905290205490565b6102206102ed3660046115cd565b610a2c565b61024b61030036600461162a565b610b18565b61019a61031336600461128f565b610c86565b61017960008051602061193783398151915281565b60006001600160e01b03198216637965db0b60e01b148061035e57506301ffc9a760e01b6001600160e01b03198316145b92915050565b61036c610cab565b60008051602061195783398151915261038481610cf3565b6001600160a01b038616600081815260c9602090815260408083208984528252808320888452825280832087845282529182902085905581518781529081018690529081018490528691907f445ef50cdf63949a03351112ef1cf106665fd2106459e1ba98fcbfc21a3081e09060600160405180910390a3505050505050565b6001600160a01b038316600090815260ca602090815260408083208584528252808320848452909152902080546060919061043e90611680565b80601f016020809104026020016040519081016040528092919081815260200182805461046a90611680565b80156104b75780601f1061048c576101008083540402835291602001916104b7565b820191906000526020600020905b81548152906001019060200180831161049a57829003601f168201915b505050505090509392505050565b6000828152609760205260409020600101546104e081610cf3565b6104ea8383610cfd565b505050565b6001600160a01b03811633146105645760405162461bcd60e51b815260206004820152602f60248201527f416363657373436f6e74726f6c3a2063616e206f6e6c792072656e6f756e636560448201526e103937b632b9903337b91039b2b63360891b60648201526084015b60405180910390fd5b61056e8282610d83565b5050565b60008051602061193783398151915261058a81610cf3565b610592610dea565b50565b6060600082516001600160401b038111156105b2576105b26112bb565b6040519080825280602002602001820160405280156105db578160200160208202803683370190505b50905060005b8351811015610672576001600160a01b038716600090815260c96020908152604080832089845282528083208884529091528120855190919086908490811061062c5761062c6116ba565b6020026020010151815260200190815260200160002054828281518110610655576106556116ba565b60209081029190910101528061066a816116e6565b9150506105e1565b5095945050505050565b6060600082516001600160401b03811115610699576106996112bb565b6040519080825280602002602001820160405280156106cc57816020015b60608152602001906001900390816106b75790505b50905060005b83518110156107e4576001600160a01b038616600090815260ca6020908152604080832088845290915281208551909190869084908110610715576107156116ba565b60200260200101518152602001908152602001600020805461073690611680565b80601f016020809104026020016040519081016040528092919081815260200182805461076290611680565b80156107af5780601f10610784576101008083540402835291602001916107af565b820191906000526020600020905b81548152906001019060200180831161079257829003601f168201915b50505050508282815181106107c6576107c66116ba565b602002602001018190525080806107dc906116e6565b9150506106d2565b50949350505050565b600054610100900460ff161580801561080d5750600054600160ff909116105b806108275750303b158015610827575060005460ff166001145b61088a5760405162461bcd60e51b815260206004820152602e60248201527f496e697469616c697a61626c653a20636f6e747261637420697320616c72656160448201526d191e481a5b9a5d1a585b1a5e995960921b606482015260840161055b565b6000805460ff1916600117905580156108ad576000805461ff0019166101001790555b6108b5610e3c565b6108bd610e6b565b6108c8600033610cfd565b6108e060008051602061193783398151915233610cfd565b6108f860008051602061195783398151915233610cfd565b8015610592576000805461ff0019169055604051600181527f7f26b83ff96e1f2b6a682f133852f6798a09c465da95921460cefb38474024989060200160405180910390a150565b60008051602061193783398151915261095881610cf3565b610592610e92565b60009182526097602090815260408084206001600160a01b0393909316845291905290205460ff1690565b610993610cab565b6000805160206119578339815191526109ab81610cf3565b6001600160a01b038516600090815260ca60209081526040808320878452825280832086845290915290206109e0838261174d565b5083856001600160a01b03167fa995baa8d5c0c6d185ff5587d70f989ccd58f15b084b3b05753297eeb400fed78585604051610a1d92919061180c565b60405180910390a35050505050565b6060600084516001600160401b03811115610a4957610a496112bb565b604051908082528060200260200182016040528015610a72578160200160208202803683370190505b50905060005b8551811015610672576001600160a01b038716600090815260c9602052604081208751909190889084908110610ab057610ab06116ba565b602002602001015181526020019081526020016000206000868152602001908152602001600020600085815260200190815260200160002054828281518110610afb57610afb6116ba565b602090810291909101015280610b10816116e6565b915050610a78565b6060600083516001600160401b03811115610b3557610b356112bb565b604051908082528060200260200182016040528015610b6857816020015b6060815260200190600190039081610b535790505b50905060005b84518110156107e4576001600160a01b038616600090815260ca602052604081208651909190879084908110610ba657610ba66116ba565b6020026020010151815260200190815260200160002060008581526020019081526020016000208054610bd890611680565b80601f0160208091040260200160405190810160405280929190818152602001828054610c0490611680565b8015610c515780601f10610c2657610100808354040283529160200191610c51565b820191906000526020600020905b815481529060010190602001808311610c3457829003601f168201915b5050505050828281518110610c6857610c686116ba565b60200260200101819052508080610c7e906116e6565b915050610b6e565b600082815260976020526040902060010154610ca181610cf3565b6104ea8383610d83565b60335460ff1615610cf15760405162461bcd60e51b815260206004820152601060248201526f14185d5cd8589b194e881c185d5cd95960821b604482015260640161055b565b565b6105928133610ecf565b610d078282610960565b61056e5760008281526097602090815260408083206001600160a01b03851684529091529020805460ff19166001179055610d3f3390565b6001600160a01b0316816001600160a01b0316837f2f8788117e7eff1d82e926ec794901d17c78024a50270940304540a733656f0d60405160405180910390a45050565b610d8d8282610960565b1561056e5760008281526097602090815260408083206001600160a01b0385168085529252808320805460ff1916905551339285917ff6391f5c32d9c69d2a47ea670b442974b53935d1edc7fd64eb21e047a839171b9190a45050565b610df2610f28565b6033805460ff191690557f5db9ee0a495bf2e6ff9c91a7834c1ba4fdd244a5e8aa4e537bd38aeae4b073aa335b6040516001600160a01b03909116815260200160405180910390a1565b600054610100900460ff16610e635760405162461bcd60e51b815260040161055b9061182d565b610cf1610f71565b600054610100900460ff16610cf15760405162461bcd60e51b815260040161055b9061182d565b610e9a610cab565b6033805460ff191660011790557f62e78cea01bee320cd4e420270b5ea74000d11b0c9f74754ebdbfc544b05a258610e1f3390565b610ed98282610960565b61056e57610ee681610fa4565b610ef1836020610fb6565b604051602001610f02929190611878565b60408051601f198184030181529082905262461bcd60e51b825261055b9160040161127c565b60335460ff16610cf15760405162461bcd60e51b815260206004820152601460248201527314185d5cd8589b194e881b9bdd081c185d5cd95960621b604482015260640161055b565b600054610100900460ff16610f985760405162461bcd60e51b815260040161055b9061182d565b6033805460ff19169055565b606061035e6001600160a01b03831660145b60606000610fc58360026118ed565b610fd090600261190c565b6001600160401b03811115610fe757610fe76112bb565b6040519080825280601f01601f191660200182016040528015611011576020820181803683370190505b509050600360fc1b8160008151811061102c5761102c6116ba565b60200101906001600160f81b031916908160001a905350600f60fb1b8160018151811061105b5761105b6116ba565b60200101906001600160f81b031916908160001a905350600061107f8460026118ed565b61108a90600161190c565b90505b6001811115611102576f181899199a1a9b1b9c1cb0b131b232b360811b85600f16601081106110be576110be6116ba565b1a60f81b8282815181106110d4576110d46116ba565b60200101906001600160f81b031916908160001a90535060049490941c936110fb8161191f565b905061108d565b5083156111515760405162461bcd60e51b815260206004820181905260248201527f537472696e67733a20686578206c656e67746820696e73756666696369656e74604482015260640161055b565b9392505050565b60006020828403121561116a57600080fd5b81356001600160e01b03198116811461115157600080fd5b80356001600160a01b038116811461119957600080fd5b919050565b600080600080600060a086880312156111b657600080fd5b6111bf86611182565b97602087013597506040870135966060810135965060800135945092505050565b6000602082840312156111f257600080fd5b5035919050565b60008060006060848603121561120e57600080fd5b61121784611182565b95602085013595506040909401359392505050565b60005b8381101561124757818101518382015260200161122f565b50506000910152565b6000815180845261126881602086016020860161122c565b601f01601f19169290920160200192915050565b6020815260006111516020830184611250565b600080604083850312156112a257600080fd5b823591506112b260208401611182565b90509250929050565b634e487b7160e01b600052604160045260246000fd5b604051601f8201601f191681016001600160401b03811182821017156112f9576112f96112bb565b604052919050565b600082601f83011261131257600080fd5b813560206001600160401b0382111561132d5761132d6112bb565b8160051b61133c8282016112d1565b928352848101820192828101908785111561135657600080fd5b83870192505b848310156113755782358252918301919083019061135c565b979650505050505050565b6000806000806080858703121561139657600080fd5b61139f85611182565b9350602085013592506040850135915060608501356001600160401b038111156113c857600080fd5b6113d487828801611301565b91505092959194509250565b6020808252825182820181905260009190848201906040850190845b81811015611418578351835292840192918401916001016113fc565b50909695505050505050565b60008060006060848603121561143957600080fd5b61144284611182565b92506020840135915060408401356001600160401b0381111561146457600080fd5b61147086828701611301565b9150509250925092565b6000602080830181845280855180835260408601915060408160051b870101925083870160005b828110156114cf57603f198886030184526114bd858351611250565b945092850192908501906001016114a1565b5092979650505050505050565b600080600080608085870312156114f257600080fd5b6114fb85611182565b935060208086013593506040860135925060608601356001600160401b038082111561152657600080fd5b818801915088601f83011261153a57600080fd5b81358181111561154c5761154c6112bb565b61155e601f8201601f191685016112d1565b9150808252898482850101111561157457600080fd5b808484018584013760008482840101525080935050505092959194509250565b600080600080608085870312156115aa57600080fd5b6115b385611182565b966020860135965060408601359560600135945092505050565b600080600080608085870312156115e357600080fd5b6115ec85611182565b935060208501356001600160401b0381111561160757600080fd5b61161387828801611301565b949794965050505060408301359260600135919050565b60008060006060848603121561163f57600080fd5b61164884611182565b925060208401356001600160401b0381111561166357600080fd5b61166f86828701611301565b925050604084013590509250925092565b600181811c9082168061169457607f821691505b6020821081036116b457634e487b7160e01b600052602260045260246000fd5b50919050565b634e487b7160e01b600052603260045260246000fd5b634e487b7160e01b600052601160045260246000fd5b6000600182016116f8576116f86116d0565b5060010190565b601f8211156104ea57600081815260208120601f850160051c810160208610156117265750805b601f850160051c820191505b8181101561174557828155600101611732565b505050505050565b81516001600160401b03811115611766576117666112bb565b61177a816117748454611680565b846116ff565b602080601f8311600181146117af57600084156117975750858301515b600019600386901b1c1916600185901b178555611745565b600085815260208120601f198616915b828110156117de578886015182559484019460019091019084016117bf565b50858210156117fc5787850151600019600388901b60f8161c191681555b5050505050600190811b01905550565b8281526040602082015260006118256040830184611250565b949350505050565b6020808252602b908201527f496e697469616c697a61626c653a20636f6e7472616374206973206e6f74206960408201526a6e697469616c697a696e6760a81b606082015260800190565b7f416363657373436f6e74726f6c3a206163636f756e74200000000000000000008152600083516118b081601785016020880161122c565b7001034b99036b4b9b9b4b733903937b6329607d1b60179184019182015283516118e181602884016020880161122c565b01602801949350505050565b6000816000190483118215151615611907576119076116d0565b500290565b8082018082111561035e5761035e6116d0565b60008161192e5761192e6116d0565b50600019019056fe65d7a28e3265b37a6474929f336521b332c1681b933f6cb9f3376673440d862a364d3d7565c7a8300c96fd53e065d19b65848d7b23b3191adcd55621c744223ca2646970667358221220e85efef7e784a3585977122fd98c882e6c02cf5d16aff75b747ad9526d986ea864736f6c63430008100033",
  "linkReferences": {},
  "deployedLinkReferences": {}
}