{
  "_format": "hh-sol-artifact-1",
  "contractName": "xMagicUpgradeable",
  "sourceName": "contracts/upgradeable/ERC20/xMagicUpgradeable.sol",
  "abi": [
    {
      "inputs": [],
      "stateMutability": "nonpayable",
      "type": "constructor"
    },
    {
      "anonymous": false,
      "inputs": [
        {
          "indexed": true,
          "internalType": "address",
          "name": "owner",
          "type": "address"
        },
        {
          "indexed": true,
          "internalType": "address",
          "name": "spender",
          "type": "address"
        },
        {
          "indexed": false,
          "internalType": "uint256",
          "name": "value",
          "type": "uint256"
        }
      ],
      "name": "Approval",
      "type": "event"
    },
    {
      "anonymous": false,
      "inputs": [
        {
          "indexed": false,
          "internalType": "uint8",
          "name": "version",
          "type": "uint8"
        }
      ],
      "name": "Initialized",
      "type": "event"
    },
    {
      "anonymous": false,
      "inputs": [
        {
          "indexed": false,
          "internalType": "address",
          "name": "account",
          "type": "address"
        }
      ],
      "name": "Paused",
      "type": "event"
    },
    {
      "anonymous": false,
      "inputs": [
        {
          "indexed": true,
          "internalType": "bytes32",
          "name": "role",
          "type": "bytes32"
        },
        {
          "indexed": true,
          "internalType": "bytes32",
          "name": "previousAdminRole",
          "type": "bytes32"
        },
        {
          "indexed": true,
          "internalType": "bytes32",
          "name": "newAdminRole",
          "type": "bytes32"
        }
      ],
      "name": "RoleAdminChanged",
      "type": "event"
    },
    {
      "anonymous": false,
      "inputs": [
        {
          "indexed": true,
          "internalType": "bytes32",
          "name": "role",
          "type": "bytes32"
        },
        {
          "indexed": true,
          "internalType": "address",
          "name": "account",
          "type": "address"
        },
        {
          "indexed": true,
          "internalType": "address",
          "name": "sender",
          "type": "address"
        }
      ],
      "name": "RoleGranted",
      "type": "event"
    },
    {
      "anonymous": false,
      "inputs": [
        {
          "indexed": true,
          "internalType": "bytes32",
          "name": "role",
          "type": "bytes32"
        },
        {
          "indexed": true,
          "internalType": "address",
          "name": "account",
          "type": "address"
        },
        {
          "indexed": true,
          "internalType": "address",
          "name": "sender",
          "type": "address"
        }
      ],
      "name": "RoleRevoked",
      "type": "event"
    },
    {
      "anonymous": false,
      "inputs": [
        {
          "indexed": true,
          "internalType": "address",
          "name": "from",
          "type": "address"
        },
        {
          "indexed": true,
          "internalType": "address",
          "name": "to",
          "type": "address"
        },
        {
          "indexed": false,
          "internalType": "uint256",
          "name": "value",
          "type": "uint256"
        }
      ],
      "name": "Transfer",
      "type": "event"
    },
    {
      "anonymous": false,
      "inputs": [
        {
          "indexed": false,
          "internalType": "address",
          "name": "account",
          "type": "address"
        }
      ],
      "name": "Unpaused",
      "type": "event"
    },
    {
      "inputs": [],
      "name": "CONTRACT_ROLE",
      "outputs": [
        {
          "internalType": "bytes32",
          "name": "",
          "type": "bytes32"
        }
      ],
      "stateMutability": "view",
      "type": "function"
    },
    {
      "inputs": [],
      "name": "DEFAULT_ADMIN_ROLE",
      "outputs": [
        {
          "internalType": "bytes32",
          "name": "",
          "type": "bytes32"
        }
      ],
      "stateMutability": "view",
      "type": "function"
    },
    {
      "inputs": [],
      "name": "PAUSER_ROLE",
      "outputs": [
        {
          "internalType": "bytes32",
          "name": "",
          "type": "bytes32"
        }
      ],
      "stateMutability": "view",
      "type": "function"
    },
    {
      "inputs": [
        {
          "internalType": "address",
          "name": "owner",
          "type": "address"
        },
        {
          "internalType": "address",
          "name": "spender",
          "type": "address"
        }
      ],
      "name": "allowance",
      "outputs": [
        {
          "internalType": "uint256",
          "name": "",
          "type": "uint256"
        }
      ],
      "stateMutability": "view",
      "type": "function"
    },
    {
      "inputs": [
        {
          "internalType": "address",
          "name": "spender",
          "type": "address"
        },
        {
          "internalType": "uint256",
          "name": "amount",
          "type": "uint256"
        }
      ],
      "name": "approve",
      "outputs": [
        {
          "internalType": "bool",
          "name": "",
          "type": "bool"
        }
      ],
      "stateMutability": "nonpayable",
      "type": "function"
    },
    {
      "inputs": [
        {
          "internalType": "address",
          "name": "account",
          "type": "address"
        }
      ],
      "name": "balanceOf",
      "outputs": [
        {
          "internalType": "uint256",
          "name": "",
          "type": "uint256"
        }
      ],
      "stateMutability": "view",
      "type": "function"
    },
    {
      "inputs": [],
      "name": "decimals",
      "outputs": [
        {
          "internalType": "uint8",
          "name": "",
          "type": "uint8"
        }
      ],
      "stateMutability": "view",
      "type": "function"
    },
    {
      "inputs": [
        {
          "internalType": "address",
          "name": "spender",
          "type": "address"
        },
        {
          "internalType": "uint256",
          "name": "subtractedValue",
          "type": "uint256"
        }
      ],
      "name": "decreaseAllowance",
      "outputs": [
        {
          "internalType": "bool",
          "name": "",
          "type": "bool"
        }
      ],
      "stateMutability": "nonpayable",
      "type": "function"
    },
    {
      "inputs": [
        {
          "internalType": "uint256",
          "name": "amount",
          "type": "uint256"
        }
      ],
      "name": "deposit",
      "outputs": [],
      "stateMutability": "nonpayable",
      "type": "function"
    },
    {
      "inputs": [
        {
          "internalType": "bytes32",
          "name": "role",
          "type": "bytes32"
        }
      ],
      "name": "getRoleAdmin",
      "outputs": [
        {
          "internalType": "bytes32",
          "name": "",
          "type": "bytes32"
        }
      ],
      "stateMutability": "view",
      "type": "function"
    },
    {
      "inputs": [
        {
          "internalType": "bytes32",
          "name": "role",
          "type": "bytes32"
        },
        {
          "internalType": "address",
          "name": "account",
          "type": "address"
        }
      ],
      "name": "grantRole",
      "outputs": [],
      "stateMutability": "nonpayable",
      "type": "function"
    },
    {
      "inputs": [
        {
          "internalType": "bytes32",
          "name": "role",
          "type": "bytes32"
        },
        {
          "internalType": "address",
          "name": "account",
          "type": "address"
        }
      ],
      "name": "hasRole",
      "outputs": [
        {
          "internalType": "bool",
          "name": "",
          "type": "bool"
        }
      ],
      "stateMutability": "view",
      "type": "function"
    },
    {
      "inputs": [
        {
          "internalType": "address",
          "name": "spender",
          "type": "address"
        },
        {
          "internalType": "uint256",
          "name": "addedValue",
          "type": "uint256"
        }
      ],
      "name": "increaseAllowance",
      "outputs": [
        {
          "internalType": "bool",
          "name": "",
          "type": "bool"
        }
      ],
      "stateMutability": "nonpayable",
      "type": "function"
    },
    {
      "inputs": [],
      "name": "initialize",
      "outputs": [],
      "stateMutability": "nonpayable",
      "type": "function"
    },
    {
      "inputs": [],
      "name": "name",
      "outputs": [
        {
          "internalType": "string",
          "name": "",
          "type": "string"
        }
      ],
      "stateMutability": "view",
      "type": "function"
    },
    {
      "inputs": [],
      "name": "pause",
      "outputs": [],
      "stateMutability": "nonpayable",
      "type": "function"
    },
    {
      "inputs": [],
      "name": "paused",
      "outputs": [
        {
          "internalType": "bool",
          "name": "",
          "type": "bool"
        }
      ],
      "stateMutability": "view",
      "type": "function"
    },
    {
      "inputs": [
        {
          "internalType": "bytes32",
          "name": "role",
          "type": "bytes32"
        },
        {
          "internalType": "address",
          "name": "account",
          "type": "address"
        }
      ],
      "name": "renounceRole",
      "outputs": [],
      "stateMutability": "nonpayable",
      "type": "function"
    },
    {
      "inputs": [
        {
          "internalType": "bytes32",
          "name": "role",
          "type": "bytes32"
        },
        {
          "internalType": "address",
          "name": "account",
          "type": "address"
        }
      ],
      "name": "revokeRole",
      "outputs": [],
      "stateMutability": "nonpayable",
      "type": "function"
    },
    {
      "inputs": [
        {
          "internalType": "address",
          "name": "_address",
          "type": "address"
        }
      ],
      "name": "setBaseToken",
      "outputs": [],
      "stateMutability": "nonpayable",
      "type": "function"
    },
    {
      "inputs": [
        {
          "internalType": "bytes4",
          "name": "interfaceId",
          "type": "bytes4"
        }
      ],
      "name": "supportsInterface",
      "outputs": [
        {
          "internalType": "bool",
          "name": "",
          "type": "bool"
        }
      ],
      "stateMutability": "view",
      "type": "function"
    },
    {
      "inputs": [],
      "name": "symbol",
      "outputs": [
        {
          "internalType": "string",
          "name": "",
          "type": "string"
        }
      ],
      "stateMutability": "view",
      "type": "function"
    },
    {
      "inputs": [],
      "name": "totalSupply",
      "outputs": [
        {
          "internalType": "uint256",
          "name": "",
          "type": "uint256"
        }
      ],
      "stateMutability": "view",
      "type": "function"
    },
    {
      "inputs": [
        {
          "internalType": "address",
          "name": "to",
          "type": "address"
        },
        {
          "internalType": "uint256",
          "name": "amount",
          "type": "uint256"
        }
      ],
      "name": "transfer",
      "outputs": [
        {
          "internalType": "bool",
          "name": "",
          "type": "bool"
        }
      ],
      "stateMutability": "nonpayable",
      "type": "function"
    },
    {
      "inputs": [
        {
          "internalType": "address",
          "name": "from",
          "type": "address"
        },
        {
          "internalType": "address",
          "name": "to",
          "type": "address"
        },
        {
          "internalType": "uint256",
          "name": "amount",
          "type": "uint256"
        }
      ],
      "name": "transferFrom",
      "outputs": [
        {
          "internalType": "bool",
          "name": "",
          "type": "bool"
        }
      ],
      "stateMutability": "nonpayable",
      "type": "function"
    },
    {
      "inputs": [],
      "name": "unpause",
      "outputs": [],
      "stateMutability": "nonpayable",
      "type": "function"
    },
    {
      "inputs": [
        {
          "internalType": "uint256",
          "name": "amount",
          "type": "uint256"
        }
      ],
      "name": "withdraw",
      "outputs": [],
      "stateMutability": "nonpayable",
      "type": "function"
    }
  ],
  "bytecode": "0x608060405234801561001057600080fd5b5061001961001e565b6100de565b600054610100900460ff161561008a5760405162461bcd60e51b815260206004820152602760248201527f496e697469616c697a61626c653a20636f6e747261637420697320696e697469604482015266616c697a696e6760c81b606482015260840160405180910390fd5b60005460ff90811610156100dc576000805460ff191660ff9081179091556040519081527f7f26b83ff96e1f2b6a682f133852f6798a09c465da95921460cefb38474024989060200160405180910390a15b565b611a74806100ed6000396000f3fe608060405234801561001057600080fd5b50600436106101a95760003560e01c80633f4ba83a116100f9578063a217fddf11610097578063b6b55f2511610071578063b6b55f2514610376578063d547741f14610389578063dd62ed3e1461039c578063e63ab1e9146103af57600080fd5b8063a217fddf14610348578063a457c2d714610350578063a9059cbb1461036357600080fd5b80638129fc1c116100d35780638129fc1c1461031d5780638456cb591461032557806391d148541461032d57806395d89b411461034057600080fd5b80633f4ba83a146102e15780635c975abb146102e957806370a08231146102f457600080fd5b806323b872dd116101665780632f2ff15d116101405780632f2ff15d14610299578063313ce567146102ac57806336568abe146102bb57806339509351146102ce57600080fd5b806323b872dd14610250578063248a9ca3146102635780632e1a7d4d1461028657600080fd5b806301ffc9a7146101ae57806303fe46ab146101d657806306fdde031461020b578063095ea7b31461022057806316bb6c131461023357806318160ddd14610248575b600080fd5b6101c16101bc36600461168a565b6103c4565b60405190151581526020015b60405180910390f35b6101fd7f364d3d7565c7a8300c96fd53e065d19b65848d7b23b3191adcd55621c744223c81565b6040519081526020016101cd565b6102136103fb565b6040516101cd91906116e0565b6101c161022e36600461172f565b61048d565b610246610241366004611759565b6104a5565b005b60cb546101fd565b6101c161025e366004611774565b6104d3565b6101fd6102713660046117b0565b60009081526097602052604090206001015490565b6102466102943660046117b0565b6104f7565b6102466102a73660046117c9565b61062e565b604051601281526020016101cd565b6102466102c93660046117c9565b610658565b6101c16102dc36600461172f565b6106db565b6102466106fd565b60335460ff166101c1565b6101fd610302366004611759565b6001600160a01b0316600090815260c9602052604090205490565b610246610720565b6102466108f1565b6101c161033b3660046117c9565b610911565b61021361093c565b6101fd600081565b6101c161035e36600461172f565b61094b565b6101c161037136600461172f565b6109c6565b6102466103843660046117b0565b6109d4565b6102466103973660046117c9565b610ae8565b6101fd6103aa3660046117f5565b610b0d565b6101fd600080516020611a1f83398151915281565b60006001600160e01b03198216637965db0b60e01b14806103f557506301ffc9a760e01b6001600160e01b03198316145b92915050565b606060cc805461040a9061181f565b80601f01602080910402602001604051908101604052809291908181526020018280546104369061181f565b80156104835780601f1061045857610100808354040283529160200191610483565b820191906000526020600020905b81548152906001019060200180831161046657829003601f168201915b5050505050905090565b60003361049b818585610b38565b5060019392505050565b60006104b081610c5c565b5060fb80546001600160a01b0319166001600160a01b0392909216919091179055565b6000336104e1858285610c66565b6104ec858585610cda565b506001949350505050565b600061050260cb5490565b60fb546040516370a0823160e01b815230600482015291925060009183916001600160a01b0316906370a082319060240160206040518083038186803b15801561054b57600080fd5b505afa15801561055f573d6000803e3d6000fd5b505050506040513d601f19601f82011682018060405250810190610583919061185a565b61058d9085611889565b61059791906118a8565b90506105a33384610ea8565b60fb5460405163a9059cbb60e01b8152336004820152602481018390526001600160a01b039091169063a9059cbb906044015b602060405180830381600087803b1580156105f057600080fd5b505af1158015610604573d6000803e3d6000fd5b505050506040513d601f19601f8201168201806040525081019061062891906118ca565b50505050565b60008281526097602052604090206001015461064981610c5c565b6106538383610ff6565b505050565b6001600160a01b03811633146106cd5760405162461bcd60e51b815260206004820152602f60248201527f416363657373436f6e74726f6c3a2063616e206f6e6c792072656e6f756e636560448201526e103937b632b9903337b91039b2b63360891b60648201526084015b60405180910390fd5b6106d7828261107c565b5050565b60003361049b8185856106ee8383610b0d565b6106f891906118ec565b610b38565b600080516020611a1f83398151915261071581610c5c565b61071d6110e3565b50565b600054610100900460ff16158080156107405750600054600160ff909116105b8061075a5750303b15801561075a575060005460ff166001145b6107bd5760405162461bcd60e51b815260206004820152602e60248201527f496e697469616c697a61626c653a20636f6e747261637420697320616c72656160448201526d191e481a5b9a5d1a585b1a5e995960921b60648201526084016106c4565b6000805460ff1916600117905580156107e0576000805461ff0019166101001790555b61082660405180604001604052806006815260200165784d4147494360d01b81525060405180604001604052806006815260200165784d4147494360d01b815250611135565b61082e611166565b610836611197565b610841600033610ff6565b610859600080516020611a1f83398151915233610ff6565b6108837f364d3d7565c7a8300c96fd53e065d19b65848d7b23b3191adcd55621c744223c33610ff6565b60fb80546001600160a01b031916739a8e0217cd870783c3f2317985c57bf570969153179055801561071d576000805461ff0019169055604051600181527f7f26b83ff96e1f2b6a682f133852f6798a09c465da95921460cefb38474024989060200160405180910390a150565b600080516020611a1f83398151915261090981610c5c565b61071d6111be565b60009182526097602090815260408084206001600160a01b0393909316845291905290205460ff1690565b606060cd805461040a9061181f565b600033816109598286610b0d565b9050838110156109b95760405162461bcd60e51b815260206004820152602560248201527f45524332303a2064656372656173656420616c6c6f77616e63652062656c6f77604482015264207a65726f60d81b60648201526084016106c4565b6104ec8286868403610b38565b60003361049b818585610cda565b6109dc6111fb565b60fb546040516370a0823160e01b81523060048201526000916001600160a01b0316906370a082319060240160206040518083038186803b158015610a2057600080fd5b505afa158015610a34573d6000803e3d6000fd5b505050506040513d601f19601f82011682018060405250810190610a58919061185a565b90506000610a6560cb5490565b9050801580610a72575081155b15610a8657610a813384611241565b610aab565b600082610a938386611889565b610a9d91906118a8565b9050610aa93382611241565b505b60fb546040516323b872dd60e01b8152336004820152306024820152604481018590526001600160a01b03909116906323b872dd906064016105d6565b600082815260976020526040902060010154610b0381610c5c565b610653838361107c565b6001600160a01b03918216600090815260ca6020908152604080832093909416825291909152205490565b6001600160a01b038316610b9a5760405162461bcd60e51b8152602060048201526024808201527f45524332303a20617070726f76652066726f6d20746865207a65726f206164646044820152637265737360e01b60648201526084016106c4565b6001600160a01b038216610bfb5760405162461bcd60e51b815260206004820152602260248201527f45524332303a20617070726f766520746f20746865207a65726f206164647265604482015261737360f01b60648201526084016106c4565b6001600160a01b03838116600081815260ca602090815260408083209487168084529482529182902085905590518481527f8c5be1e5ebec7d5bd14f71427d1e84f3dd0314c0f7b2291e5b200ac8c7c3b925910160405180910390a3505050565b61071d8133611320565b6000610c728484610b0d565b905060001981146106285781811015610ccd5760405162461bcd60e51b815260206004820152601d60248201527f45524332303a20696e73756666696369656e7420616c6c6f77616e636500000060448201526064016106c4565b6106288484848403610b38565b6001600160a01b038316610d3e5760405162461bcd60e51b815260206004820152602560248201527f45524332303a207472616e736665722066726f6d20746865207a65726f206164604482015264647265737360d81b60648201526084016106c4565b6001600160a01b038216610da05760405162461bcd60e51b815260206004820152602360248201527f45524332303a207472616e7366657220746f20746865207a65726f206164647260448201526265737360e81b60648201526084016106c4565b6001600160a01b038316600090815260c9602052604090205481811015610e185760405162461bcd60e51b815260206004820152602660248201527f45524332303a207472616e7366657220616d6f756e7420657863656564732062604482015265616c616e636560d01b60648201526084016106c4565b6001600160a01b03808516600090815260c96020526040808220858503905591851681529081208054849290610e4f9084906118ec565b92505081905550826001600160a01b0316846001600160a01b03167fddf252ad1be2c89b69c2b068fc378daa952ba7f163c4a11628f55a4df523b3ef84604051610e9b91815260200190565b60405180910390a3610628565b6001600160a01b038216610f085760405162461bcd60e51b815260206004820152602160248201527f45524332303a206275726e2066726f6d20746865207a65726f206164647265736044820152607360f81b60648201526084016106c4565b6001600160a01b038216600090815260c9602052604090205481811015610f7c5760405162461bcd60e51b815260206004820152602260248201527f45524332303a206275726e20616d6f756e7420657863656564732062616c616e604482015261636560f01b60648201526084016106c4565b6001600160a01b038316600090815260c960205260408120838303905560cb8054849290610fab908490611904565b90915550506040518281526000906001600160a01b038516907fddf252ad1be2c89b69c2b068fc378daa952ba7f163c4a11628f55a4df523b3ef9060200160405180910390a3505050565b6110008282610911565b6106d75760008281526097602090815260408083206001600160a01b03851684529091529020805460ff191660011790556110383390565b6001600160a01b0316816001600160a01b0316837f2f8788117e7eff1d82e926ec794901d17c78024a50270940304540a733656f0d60405160405180910390a45050565b6110868282610911565b156106d75760008281526097602090815260408083206001600160a01b0385168085529252808320805460ff1916905551339285917ff6391f5c32d9c69d2a47ea670b442974b53935d1edc7fd64eb21e047a839171b9190a45050565b6110eb611384565b6033805460ff191690557f5db9ee0a495bf2e6ff9c91a7834c1ba4fdd244a5e8aa4e537bd38aeae4b073aa335b6040516001600160a01b03909116815260200160405180910390a1565b600054610100900460ff1661115c5760405162461bcd60e51b81526004016106c49061191b565b6106d782826113cd565b600054610100900460ff1661118d5760405162461bcd60e51b81526004016106c49061191b565b61119561141b565b565b600054610100900460ff166111955760405162461bcd60e51b81526004016106c49061191b565b6111c66111fb565b6033805460ff191660011790557f62e78cea01bee320cd4e420270b5ea74000d11b0c9f74754ebdbfc544b05a2586111183390565b60335460ff16156111955760405162461bcd60e51b815260206004820152601060248201526f14185d5cd8589b194e881c185d5cd95960821b60448201526064016106c4565b6001600160a01b0382166112975760405162461bcd60e51b815260206004820152601f60248201527f45524332303a206d696e7420746f20746865207a65726f20616464726573730060448201526064016106c4565b8060cb60008282546112a991906118ec565b90915550506001600160a01b038216600090815260c96020526040812080548392906112d69084906118ec565b90915550506040518181526001600160a01b038316906000907fddf252ad1be2c89b69c2b068fc378daa952ba7f163c4a11628f55a4df523b3ef9060200160405180910390a35050565b61132a8282610911565b6106d757611342816001600160a01b0316601461144e565b61134d83602061144e565b60405160200161135e929190611966565b60408051601f198184030181529082905262461bcd60e51b82526106c4916004016116e0565b60335460ff166111955760405162461bcd60e51b815260206004820152601460248201527314185d5cd8589b194e881b9bdd081c185d5cd95960621b60448201526064016106c4565b600054610100900460ff166113f45760405162461bcd60e51b81526004016106c49061191b565b81516114079060cc9060208501906115f1565b5080516106539060cd9060208401906115f1565b600054610100900460ff166114425760405162461bcd60e51b81526004016106c49061191b565b6033805460ff19169055565b6060600061145d836002611889565b6114689060026118ec565b67ffffffffffffffff811115611480576114806119db565b6040519080825280601f01601f1916602001820160405280156114aa576020820181803683370190505b509050600360fc1b816000815181106114c5576114c56119f1565b60200101906001600160f81b031916908160001a905350600f60fb1b816001815181106114f4576114f46119f1565b60200101906001600160f81b031916908160001a9053506000611518846002611889565b6115239060016118ec565b90505b600181111561159b576f181899199a1a9b1b9c1cb0b131b232b360811b85600f1660108110611557576115576119f1565b1a60f81b82828151811061156d5761156d6119f1565b60200101906001600160f81b031916908160001a90535060049490941c9361159481611a07565b9050611526565b5083156115ea5760405162461bcd60e51b815260206004820181905260248201527f537472696e67733a20686578206c656e67746820696e73756666696369656e7460448201526064016106c4565b9392505050565b8280546115fd9061181f565b90600052602060002090601f01602090048101928261161f5760008555611665565b82601f1061163857805160ff1916838001178555611665565b82800160010185558215611665579182015b8281111561166557825182559160200191906001019061164a565b50611671929150611675565b5090565b5b808211156116715760008155600101611676565b60006020828403121561169c57600080fd5b81356001600160e01b0319811681146115ea57600080fd5b60005b838110156116cf5781810151838201526020016116b7565b838111156106285750506000910152565b60208152600082518060208401526116ff8160408501602087016116b4565b601f01601f19169190910160400192915050565b80356001600160a01b038116811461172a57600080fd5b919050565b6000806040838503121561174257600080fd5b61174b83611713565b946020939093013593505050565b60006020828403121561176b57600080fd5b6115ea82611713565b60008060006060848603121561178957600080fd5b61179284611713565b92506117a060208501611713565b9150604084013590509250925092565b6000602082840312156117c257600080fd5b5035919050565b600080604083850312156117dc57600080fd5b823591506117ec60208401611713565b90509250929050565b6000806040838503121561180857600080fd5b61181183611713565b91506117ec60208401611713565b600181811c9082168061183357607f821691505b6020821081141561185457634e487b7160e01b600052602260045260246000fd5b50919050565b60006020828403121561186c57600080fd5b5051919050565b634e487b7160e01b600052601160045260246000fd5b60008160001904831182151516156118a3576118a3611873565b500290565b6000826118c557634e487b7160e01b600052601260045260246000fd5b500490565b6000602082840312156118dc57600080fd5b815180151581146115ea57600080fd5b600082198211156118ff576118ff611873565b500190565b60008282101561191657611916611873565b500390565b6020808252602b908201527f496e697469616c697a61626c653a20636f6e7472616374206973206e6f74206960408201526a6e697469616c697a696e6760a81b606082015260800190565b7f416363657373436f6e74726f6c3a206163636f756e742000000000000000000081526000835161199e8160178501602088016116b4565b7001034b99036b4b9b9b4b733903937b6329607d1b60179184019182015283516119cf8160288401602088016116b4565b01602801949350505050565b634e487b7160e01b600052604160045260246000fd5b634e487b7160e01b600052603260045260246000fd5b600081611a1657611a16611873565b50600019019056fe65d7a28e3265b37a6474929f336521b332c1681b933f6cb9f3376673440d862aa264697066735822122063715ce0f65309987879537e36ae4b81b07d59c75724ce18f34f129f4d61e6b664736f6c63430008090033",
  "linkReferences": {},
  "deployedLinkReferences": {}
}