{
  "_format": "hh-sol-artifact-1",
  "contractName": "xMagicUpgradeable",
  "sourceName": "contracts/upgradeable/ERC20/xMagicUpgradeable.sol",
  "abi": [
    {
      "inputs": [],
      "stateMutability": "nonpayable",
      "type": "constructor"
    },
    {
      "anonymous": false,
      "inputs": [
        {
          "indexed": true,
          "internalType": "address",
          "name": "owner",
          "type": "address"
        },
        {
          "indexed": true,
          "internalType": "address",
          "name": "spender",
          "type": "address"
        },
        {
          "indexed": false,
          "internalType": "uint256",
          "name": "value",
          "type": "uint256"
        }
      ],
      "name": "Approval",
      "type": "event"
    },
    {
      "anonymous": false,
      "inputs": [
        {
          "indexed": false,
          "internalType": "uint8",
          "name": "version",
          "type": "uint8"
        }
      ],
      "name": "Initialized",
      "type": "event"
    },
    {
      "anonymous": false,
      "inputs": [
        {
          "indexed": false,
          "internalType": "address",
          "name": "account",
          "type": "address"
        }
      ],
      "name": "Paused",
      "type": "event"
    },
    {
      "anonymous": false,
      "inputs": [
        {
          "indexed": true,
          "internalType": "bytes32",
          "name": "role",
          "type": "bytes32"
        },
        {
          "indexed": true,
          "internalType": "bytes32",
          "name": "previousAdminRole",
          "type": "bytes32"
        },
        {
          "indexed": true,
          "internalType": "bytes32",
          "name": "newAdminRole",
          "type": "bytes32"
        }
      ],
      "name": "RoleAdminChanged",
      "type": "event"
    },
    {
      "anonymous": false,
      "inputs": [
        {
          "indexed": true,
          "internalType": "bytes32",
          "name": "role",
          "type": "bytes32"
        },
        {
          "indexed": true,
          "internalType": "address",
          "name": "account",
          "type": "address"
        },
        {
          "indexed": true,
          "internalType": "address",
          "name": "sender",
          "type": "address"
        }
      ],
      "name": "RoleGranted",
      "type": "event"
    },
    {
      "anonymous": false,
      "inputs": [
        {
          "indexed": true,
          "internalType": "bytes32",
          "name": "role",
          "type": "bytes32"
        },
        {
          "indexed": true,
          "internalType": "address",
          "name": "account",
          "type": "address"
        },
        {
          "indexed": true,
          "internalType": "address",
          "name": "sender",
          "type": "address"
        }
      ],
      "name": "RoleRevoked",
      "type": "event"
    },
    {
      "anonymous": false,
      "inputs": [
        {
          "indexed": true,
          "internalType": "address",
          "name": "from",
          "type": "address"
        },
        {
          "indexed": true,
          "internalType": "address",
          "name": "to",
          "type": "address"
        },
        {
          "indexed": false,
          "internalType": "uint256",
          "name": "value",
          "type": "uint256"
        }
      ],
      "name": "Transfer",
      "type": "event"
    },
    {
      "anonymous": false,
      "inputs": [
        {
          "indexed": false,
          "internalType": "address",
          "name": "account",
          "type": "address"
        }
      ],
      "name": "Unpaused",
      "type": "event"
    },
    {
      "inputs": [],
      "name": "CONTRACT_ROLE",
      "outputs": [
        {
          "internalType": "bytes32",
          "name": "",
          "type": "bytes32"
        }
      ],
      "stateMutability": "view",
      "type": "function"
    },
    {
      "inputs": [],
      "name": "DEFAULT_ADMIN_ROLE",
      "outputs": [
        {
          "internalType": "bytes32",
          "name": "",
          "type": "bytes32"
        }
      ],
      "stateMutability": "view",
      "type": "function"
    },
    {
      "inputs": [],
      "name": "PAUSER_ROLE",
      "outputs": [
        {
          "internalType": "bytes32",
          "name": "",
          "type": "bytes32"
        }
      ],
      "stateMutability": "view",
      "type": "function"
    },
    {
      "inputs": [
        {
          "internalType": "address",
          "name": "owner",
          "type": "address"
        },
        {
          "internalType": "address",
          "name": "spender",
          "type": "address"
        }
      ],
      "name": "allowance",
      "outputs": [
        {
          "internalType": "uint256",
          "name": "",
          "type": "uint256"
        }
      ],
      "stateMutability": "view",
      "type": "function"
    },
    {
      "inputs": [
        {
          "internalType": "address",
          "name": "spender",
          "type": "address"
        },
        {
          "internalType": "uint256",
          "name": "amount",
          "type": "uint256"
        }
      ],
      "name": "approve",
      "outputs": [
        {
          "internalType": "bool",
          "name": "",
          "type": "bool"
        }
      ],
      "stateMutability": "nonpayable",
      "type": "function"
    },
    {
      "inputs": [
        {
          "internalType": "address",
          "name": "account",
          "type": "address"
        }
      ],
      "name": "balanceOf",
      "outputs": [
        {
          "internalType": "uint256",
          "name": "",
          "type": "uint256"
        }
      ],
      "stateMutability": "view",
      "type": "function"
    },
    {
      "inputs": [],
      "name": "decimals",
      "outputs": [
        {
          "internalType": "uint8",
          "name": "",
          "type": "uint8"
        }
      ],
      "stateMutability": "view",
      "type": "function"
    },
    {
      "inputs": [
        {
          "internalType": "address",
          "name": "spender",
          "type": "address"
        },
        {
          "internalType": "uint256",
          "name": "subtractedValue",
          "type": "uint256"
        }
      ],
      "name": "decreaseAllowance",
      "outputs": [
        {
          "internalType": "bool",
          "name": "",
          "type": "bool"
        }
      ],
      "stateMutability": "nonpayable",
      "type": "function"
    },
    {
      "inputs": [
        {
          "internalType": "uint256",
          "name": "amount",
          "type": "uint256"
        }
      ],
      "name": "deposit",
      "outputs": [],
      "stateMutability": "nonpayable",
      "type": "function"
    },
    {
      "inputs": [
        {
          "internalType": "bytes32",
          "name": "role",
          "type": "bytes32"
        }
      ],
      "name": "getRoleAdmin",
      "outputs": [
        {
          "internalType": "bytes32",
          "name": "",
          "type": "bytes32"
        }
      ],
      "stateMutability": "view",
      "type": "function"
    },
    {
      "inputs": [
        {
          "internalType": "bytes32",
          "name": "role",
          "type": "bytes32"
        },
        {
          "internalType": "address",
          "name": "account",
          "type": "address"
        }
      ],
      "name": "grantRole",
      "outputs": [],
      "stateMutability": "nonpayable",
      "type": "function"
    },
    {
      "inputs": [
        {
          "internalType": "bytes32",
          "name": "role",
          "type": "bytes32"
        },
        {
          "internalType": "address",
          "name": "account",
          "type": "address"
        }
      ],
      "name": "hasRole",
      "outputs": [
        {
          "internalType": "bool",
          "name": "",
          "type": "bool"
        }
      ],
      "stateMutability": "view",
      "type": "function"
    },
    {
      "inputs": [
        {
          "internalType": "address",
          "name": "spender",
          "type": "address"
        },
        {
          "internalType": "uint256",
          "name": "addedValue",
          "type": "uint256"
        }
      ],
      "name": "increaseAllowance",
      "outputs": [
        {
          "internalType": "bool",
          "name": "",
          "type": "bool"
        }
      ],
      "stateMutability": "nonpayable",
      "type": "function"
    },
    {
      "inputs": [],
      "name": "initialize",
      "outputs": [],
      "stateMutability": "nonpayable",
      "type": "function"
    },
    {
      "inputs": [],
      "name": "name",
      "outputs": [
        {
          "internalType": "string",
          "name": "",
          "type": "string"
        }
      ],
      "stateMutability": "view",
      "type": "function"
    },
    {
      "inputs": [],
      "name": "pause",
      "outputs": [],
      "stateMutability": "nonpayable",
      "type": "function"
    },
    {
      "inputs": [],
      "name": "paused",
      "outputs": [
        {
          "internalType": "bool",
          "name": "",
          "type": "bool"
        }
      ],
      "stateMutability": "view",
      "type": "function"
    },
    {
      "inputs": [
        {
          "internalType": "bytes32",
          "name": "role",
          "type": "bytes32"
        },
        {
          "internalType": "address",
          "name": "account",
          "type": "address"
        }
      ],
      "name": "renounceRole",
      "outputs": [],
      "stateMutability": "nonpayable",
      "type": "function"
    },
    {
      "inputs": [
        {
          "internalType": "bytes32",
          "name": "role",
          "type": "bytes32"
        },
        {
          "internalType": "address",
          "name": "account",
          "type": "address"
        }
      ],
      "name": "revokeRole",
      "outputs": [],
      "stateMutability": "nonpayable",
      "type": "function"
    },
    {
      "inputs": [
        {
          "internalType": "address",
          "name": "_address",
          "type": "address"
        }
      ],
      "name": "setBaseToken",
      "outputs": [],
      "stateMutability": "nonpayable",
      "type": "function"
    },
    {
      "inputs": [
        {
          "internalType": "bytes4",
          "name": "interfaceId",
          "type": "bytes4"
        }
      ],
      "name": "supportsInterface",
      "outputs": [
        {
          "internalType": "bool",
          "name": "",
          "type": "bool"
        }
      ],
      "stateMutability": "view",
      "type": "function"
    },
    {
      "inputs": [],
      "name": "symbol",
      "outputs": [
        {
          "internalType": "string",
          "name": "",
          "type": "string"
        }
      ],
      "stateMutability": "view",
      "type": "function"
    },
    {
      "inputs": [],
      "name": "totalSupply",
      "outputs": [
        {
          "internalType": "uint256",
          "name": "",
          "type": "uint256"
        }
      ],
      "stateMutability": "view",
      "type": "function"
    },
    {
      "inputs": [
        {
          "internalType": "address",
          "name": "to",
          "type": "address"
        },
        {
          "internalType": "uint256",
          "name": "amount",
          "type": "uint256"
        }
      ],
      "name": "transfer",
      "outputs": [
        {
          "internalType": "bool",
          "name": "",
          "type": "bool"
        }
      ],
      "stateMutability": "nonpayable",
      "type": "function"
    },
    {
      "inputs": [
        {
          "internalType": "address",
          "name": "from",
          "type": "address"
        },
        {
          "internalType": "address",
          "name": "to",
          "type": "address"
        },
        {
          "internalType": "uint256",
          "name": "amount",
          "type": "uint256"
        }
      ],
      "name": "transferFrom",
      "outputs": [
        {
          "internalType": "bool",
          "name": "",
          "type": "bool"
        }
      ],
      "stateMutability": "nonpayable",
      "type": "function"
    },
    {
      "inputs": [],
      "name": "unpause",
      "outputs": [],
      "stateMutability": "nonpayable",
      "type": "function"
    },
    {
      "inputs": [
        {
          "internalType": "uint256",
          "name": "amount",
          "type": "uint256"
        }
      ],
      "name": "withdraw",
      "outputs": [],
      "stateMutability": "nonpayable",
      "type": "function"
    }
  ],
  "bytecode": "0x608060405234801561001057600080fd5b5061001961001e565b6100de565b600054610100900460ff161561008a5760405162461bcd60e51b815260206004820152602760248201527f496e697469616c697a61626c653a20636f6e747261637420697320696e697469604482015266616c697a696e6760c81b606482015260840160405180910390fd5b60005460ff90811610156100dc576000805460ff191660ff9081179091556040519081527f7f26b83ff96e1f2b6a682f133852f6798a09c465da95921460cefb38474024989060200160405180910390a15b565b611a35806100ed6000396000f3fe608060405234801561001057600080fd5b50600436106101a95760003560e01c80633f4ba83a116100f9578063a217fddf11610097578063b6b55f2511610071578063b6b55f2514610376578063d547741f14610389578063dd62ed3e1461039c578063e63ab1e9146103af57600080fd5b8063a217fddf14610348578063a457c2d714610350578063a9059cbb1461036357600080fd5b80638129fc1c116100d35780638129fc1c1461031d5780638456cb591461032557806391d148541461032d57806395d89b411461034057600080fd5b80633f4ba83a146102e15780635c975abb146102e957806370a08231146102f457600080fd5b806323b872dd116101665780632f2ff15d116101405780632f2ff15d14610299578063313ce567146102ac57806336568abe146102bb57806339509351146102ce57600080fd5b806323b872dd14610250578063248a9ca3146102635780632e1a7d4d1461028657600080fd5b806301ffc9a7146101ae57806303fe46ab146101d657806306fdde031461020b578063095ea7b31461022057806316bb6c131461023357806318160ddd14610248575b600080fd5b6101c16101bc366004611562565b6103c4565b60405190151581526020015b60405180910390f35b6101fd7f364d3d7565c7a8300c96fd53e065d19b65848d7b23b3191adcd55621c744223c81565b6040519081526020016101cd565b6102136103fb565b6040516101cd91906115b0565b6101c161022e3660046115ff565b61048d565b610246610241366004611629565b6104a5565b005b60cb546101fd565b6101c161025e366004611644565b6104d3565b6101fd610271366004611680565b60009081526097602052604090206001015490565b610246610294366004611680565b6104f7565b6102466102a7366004611699565b610610565b604051601281526020016101cd565b6102466102c9366004611699565b61063a565b6101c16102dc3660046115ff565b6106bd565b6102466106df565b60335460ff166101c1565b6101fd610302366004611629565b6001600160a01b0316600090815260c9602052604090205490565b610246610702565b6102466108d3565b6101c161033b366004611699565b6108f3565b61021361091e565b6101fd600081565b6101c161035e3660046115ff565b61092d565b6101c16103713660046115ff565b6109a8565b610246610384366004611680565b6109b6565b610246610397366004611699565b610abb565b6101fd6103aa3660046116c5565b610ae0565b6101fd6000805160206119e083398151915281565b60006001600160e01b03198216637965db0b60e01b14806103f557506301ffc9a760e01b6001600160e01b03198316145b92915050565b606060cc805461040a906116ef565b80601f0160208091040260200160405190810160405280929190818152602001828054610436906116ef565b80156104835780601f1061045857610100808354040283529160200191610483565b820191906000526020600020905b81548152906001019060200180831161046657829003601f168201915b5050505050905090565b60003361049b818585610b0b565b5060019392505050565b60006104b081610c2f565b5060fb80546001600160a01b0319166001600160a01b0392909216919091179055565b6000336104e1858285610c39565b6104ec858585610cad565b506001949350505050565b600061050260cb5490565b60fb546040516370a0823160e01b815230600482015291925060009183916001600160a01b0316906370a0823190602401602060405180830381865afa158015610550573d6000803e3d6000fd5b505050506040513d601f19601f820116820180604052508101906105749190611729565b61057e9085611758565b6105889190611777565b90506105943384610e58565b60fb5460405163a9059cbb60e01b8152336004820152602481018390526001600160a01b039091169063a9059cbb906044015b6020604051808303816000875af11580156105e6573d6000803e3d6000fd5b505050506040513d601f19601f8201168201806040525081019061060a9190611799565b50505050565b60008281526097602052604090206001015461062b81610c2f565b6106358383610f8c565b505050565b6001600160a01b03811633146106af5760405162461bcd60e51b815260206004820152602f60248201527f416363657373436f6e74726f6c3a2063616e206f6e6c792072656e6f756e636560448201526e103937b632b9903337b91039b2b63360891b60648201526084015b60405180910390fd5b6106b98282611012565b5050565b60003361049b8185856106d08383610ae0565b6106da91906117bb565b610b0b565b6000805160206119e08339815191526106f781610c2f565b6106ff611079565b50565b600054610100900460ff16158080156107225750600054600160ff909116105b8061073c5750303b15801561073c575060005460ff166001145b61079f5760405162461bcd60e51b815260206004820152602e60248201527f496e697469616c697a61626c653a20636f6e747261637420697320616c72656160448201526d191e481a5b9a5d1a585b1a5e995960921b60648201526084016106a6565b6000805460ff1916600117905580156107c2576000805461ff0019166101001790555b61080860405180604001604052806006815260200165784d4147494360d01b81525060405180604001604052806006815260200165784d4147494360d01b8152506110cb565b6108106110fc565b61081861112d565b610823600033610f8c565b61083b6000805160206119e083398151915233610f8c565b6108657f364d3d7565c7a8300c96fd53e065d19b65848d7b23b3191adcd55621c744223c33610f8c565b60fb80546001600160a01b031916739a8e0217cd870783c3f2317985c57bf57096915317905580156106ff576000805461ff0019169055604051600181527f7f26b83ff96e1f2b6a682f133852f6798a09c465da95921460cefb38474024989060200160405180910390a150565b6000805160206119e08339815191526108eb81610c2f565b6106ff611154565b60009182526097602090815260408084206001600160a01b0393909316845291905290205460ff1690565b606060cd805461040a906116ef565b6000338161093b8286610ae0565b90508381101561099b5760405162461bcd60e51b815260206004820152602560248201527f45524332303a2064656372656173656420616c6c6f77616e63652062656c6f77604482015264207a65726f60d81b60648201526084016106a6565b6104ec8286868403610b0b565b60003361049b818585610cad565b6109be611191565b60fb546040516370a0823160e01b81523060048201526000916001600160a01b0316906370a0823190602401602060405180830381865afa158015610a07573d6000803e3d6000fd5b505050506040513d601f19601f82011682018060405250810190610a2b9190611729565b90506000610a3860cb5490565b9050801580610a45575081155b15610a5957610a5433846111d7565b610a7e565b600082610a668386611758565b610a709190611777565b9050610a7c33826111d7565b505b60fb546040516323b872dd60e01b8152336004820152306024820152604481018590526001600160a01b03909116906323b872dd906064016105c7565b600082815260976020526040902060010154610ad681610c2f565b6106358383611012565b6001600160a01b03918216600090815260ca6020908152604080832093909416825291909152205490565b6001600160a01b038316610b6d5760405162461bcd60e51b8152602060048201526024808201527f45524332303a20617070726f76652066726f6d20746865207a65726f206164646044820152637265737360e01b60648201526084016106a6565b6001600160a01b038216610bce5760405162461bcd60e51b815260206004820152602260248201527f45524332303a20617070726f766520746f20746865207a65726f206164647265604482015261737360f01b60648201526084016106a6565b6001600160a01b03838116600081815260ca602090815260408083209487168084529482529182902085905590518481527f8c5be1e5ebec7d5bd14f71427d1e84f3dd0314c0f7b2291e5b200ac8c7c3b925910160405180910390a3505050565b6106ff8133611298565b6000610c458484610ae0565b9050600019811461060a5781811015610ca05760405162461bcd60e51b815260206004820152601d60248201527f45524332303a20696e73756666696369656e7420616c6c6f77616e636500000060448201526064016106a6565b61060a8484848403610b0b565b6001600160a01b038316610d115760405162461bcd60e51b815260206004820152602560248201527f45524332303a207472616e736665722066726f6d20746865207a65726f206164604482015264647265737360d81b60648201526084016106a6565b6001600160a01b038216610d735760405162461bcd60e51b815260206004820152602360248201527f45524332303a207472616e7366657220746f20746865207a65726f206164647260448201526265737360e81b60648201526084016106a6565b6001600160a01b038316600090815260c9602052604090205481811015610deb5760405162461bcd60e51b815260206004820152602660248201527f45524332303a207472616e7366657220616d6f756e7420657863656564732062604482015265616c616e636560d01b60648201526084016106a6565b6001600160a01b03808516600081815260c9602052604080822086860390559286168082529083902080548601905591517fddf252ad1be2c89b69c2b068fc378daa952ba7f163c4a11628f55a4df523b3ef90610e4b9086815260200190565b60405180910390a361060a565b6001600160a01b038216610eb85760405162461bcd60e51b815260206004820152602160248201527f45524332303a206275726e2066726f6d20746865207a65726f206164647265736044820152607360f81b60648201526084016106a6565b6001600160a01b038216600090815260c9602052604090205481811015610f2c5760405162461bcd60e51b815260206004820152602260248201527f45524332303a206275726e20616d6f756e7420657863656564732062616c616e604482015261636560f01b60648201526084016106a6565b6001600160a01b038316600081815260c960209081526040808320868603905560cb80548790039055518581529192917fddf252ad1be2c89b69c2b068fc378daa952ba7f163c4a11628f55a4df523b3ef910160405180910390a3505050565b610f9682826108f3565b6106b95760008281526097602090815260408083206001600160a01b03851684529091529020805460ff19166001179055610fce3390565b6001600160a01b0316816001600160a01b0316837f2f8788117e7eff1d82e926ec794901d17c78024a50270940304540a733656f0d60405160405180910390a45050565b61101c82826108f3565b156106b95760008281526097602090815260408083206001600160a01b0385168085529252808320805460ff1916905551339285917ff6391f5c32d9c69d2a47ea670b442974b53935d1edc7fd64eb21e047a839171b9190a45050565b6110816112f1565b6033805460ff191690557f5db9ee0a495bf2e6ff9c91a7834c1ba4fdd244a5e8aa4e537bd38aeae4b073aa335b6040516001600160a01b03909116815260200160405180910390a1565b600054610100900460ff166110f25760405162461bcd60e51b81526004016106a6906117ce565b6106b9828261133a565b600054610100900460ff166111235760405162461bcd60e51b81526004016106a6906117ce565b61112b61137a565b565b600054610100900460ff1661112b5760405162461bcd60e51b81526004016106a6906117ce565b61115c611191565b6033805460ff191660011790557f62e78cea01bee320cd4e420270b5ea74000d11b0c9f74754ebdbfc544b05a2586110ae3390565b60335460ff161561112b5760405162461bcd60e51b815260206004820152601060248201526f14185d5cd8589b194e881c185d5cd95960821b60448201526064016106a6565b6001600160a01b03821661122d5760405162461bcd60e51b815260206004820152601f60248201527f45524332303a206d696e7420746f20746865207a65726f20616464726573730060448201526064016106a6565b8060cb600082825461123f91906117bb565b90915550506001600160a01b038216600081815260c960209081526040808320805486019055518481527fddf252ad1be2c89b69c2b068fc378daa952ba7f163c4a11628f55a4df523b3ef910160405180910390a35050565b6112a282826108f3565b6106b9576112af816113ad565b6112ba8360206113bf565b6040516020016112cb929190611819565b60408051601f198184030181529082905262461bcd60e51b82526106a6916004016115b0565b60335460ff1661112b5760405162461bcd60e51b815260206004820152601460248201527314185d5cd8589b194e881b9bdd081c185d5cd95960621b60448201526064016106a6565b600054610100900460ff166113615760405162461bcd60e51b81526004016106a6906117ce565b60cc61136d83826118f2565b5060cd61063582826118f2565b600054610100900460ff166113a15760405162461bcd60e51b81526004016106a6906117ce565b6033805460ff19169055565b60606103f56001600160a01b03831660145b606060006113ce836002611758565b6113d99060026117bb565b67ffffffffffffffff8111156113f1576113f161188e565b6040519080825280601f01601f19166020018201604052801561141b576020820181803683370190505b509050600360fc1b81600081518110611436576114366119b2565b60200101906001600160f81b031916908160001a905350600f60fb1b81600181518110611465576114656119b2565b60200101906001600160f81b031916908160001a9053506000611489846002611758565b6114949060016117bb565b90505b600181111561150c576f181899199a1a9b1b9c1cb0b131b232b360811b85600f16601081106114c8576114c86119b2565b1a60f81b8282815181106114de576114de6119b2565b60200101906001600160f81b031916908160001a90535060049490941c93611505816119c8565b9050611497565b50831561155b5760405162461bcd60e51b815260206004820181905260248201527f537472696e67733a20686578206c656e67746820696e73756666696369656e7460448201526064016106a6565b9392505050565b60006020828403121561157457600080fd5b81356001600160e01b03198116811461155b57600080fd5b60005b838110156115a757818101518382015260200161158f565b50506000910152565b60208152600082518060208401526115cf81604085016020870161158c565b601f01601f19169190910160400192915050565b80356001600160a01b03811681146115fa57600080fd5b919050565b6000806040838503121561161257600080fd5b61161b836115e3565b946020939093013593505050565b60006020828403121561163b57600080fd5b61155b826115e3565b60008060006060848603121561165957600080fd5b611662846115e3565b9250611670602085016115e3565b9150604084013590509250925092565b60006020828403121561169257600080fd5b5035919050565b600080604083850312156116ac57600080fd5b823591506116bc602084016115e3565b90509250929050565b600080604083850312156116d857600080fd5b6116e1836115e3565b91506116bc602084016115e3565b600181811c9082168061170357607f821691505b60208210810361172357634e487b7160e01b600052602260045260246000fd5b50919050565b60006020828403121561173b57600080fd5b5051919050565b634e487b7160e01b600052601160045260246000fd5b600081600019048311821515161561177257611772611742565b500290565b60008261179457634e487b7160e01b600052601260045260246000fd5b500490565b6000602082840312156117ab57600080fd5b8151801515811461155b57600080fd5b808201808211156103f5576103f5611742565b6020808252602b908201527f496e697469616c697a61626c653a20636f6e7472616374206973206e6f74206960408201526a6e697469616c697a696e6760a81b606082015260800190565b7f416363657373436f6e74726f6c3a206163636f756e742000000000000000000081526000835161185181601785016020880161158c565b7001034b99036b4b9b9b4b733903937b6329607d1b601791840191820152835161188281602884016020880161158c565b01602801949350505050565b634e487b7160e01b600052604160045260246000fd5b601f82111561063557600081815260208120601f850160051c810160208610156118cb5750805b601f850160051c820191505b818110156118ea578281556001016118d7565b505050505050565b815167ffffffffffffffff81111561190c5761190c61188e565b6119208161191a84546116ef565b846118a4565b602080601f831160018114611955576000841561193d5750858301515b600019600386901b1c1916600185901b1785556118ea565b600085815260208120601f198616915b8281101561198457888601518255948401946001909101908401611965565b50858210156119a25787850151600019600388901b60f8161c191681555b5050505050600190811b01905550565b634e487b7160e01b600052603260045260246000fd5b6000816119d7576119d7611742565b50600019019056fe65d7a28e3265b37a6474929f336521b332c1681b933f6cb9f3376673440d862aa2646970667358221220971730599d0712d51b48c40b7f57e033d7d7363a0889e2d26de3a0b0c390280c64736f6c63430008100033",
  "linkReferences": {},
  "deployedLinkReferences": {}
}