{
  "_format": "hh-sol-artifact-1",
  "contractName": "CosmicRawResources",
  "sourceName": "contracts/upgradeable/ERC1155/CosmicRawResources.sol",
  "abi": [
    {
      "inputs": [],
      "stateMutability": "nonpayable",
      "type": "constructor"
    },
    {
      "anonymous": false,
      "inputs": [
        {
          "indexed": true,
          "internalType": "address",
          "name": "account",
          "type": "address"
        },
        {
          "indexed": true,
          "internalType": "address",
          "name": "operator",
          "type": "address"
        },
        {
          "indexed": false,
          "internalType": "bool",
          "name": "approved",
          "type": "bool"
        }
      ],
      "name": "ApprovalForAll",
      "type": "event"
    },
    {
      "anonymous": false,
      "inputs": [
        {
          "indexed": false,
          "internalType": "uint8",
          "name": "version",
          "type": "uint8"
        }
      ],
      "name": "Initialized",
      "type": "event"
    },
    {
      "anonymous": false,
      "inputs": [
        {
          "indexed": true,
          "internalType": "uint256",
          "name": "tokenId",
          "type": "uint256"
        },
        {
          "indexed": false,
          "internalType": "uint256",
          "name": "attributeId",
          "type": "uint256"
        },
        {
          "indexed": false,
          "internalType": "string",
          "name": "name",
          "type": "string"
        }
      ],
      "name": "NameUpdated",
      "type": "event"
    },
    {
      "anonymous": false,
      "inputs": [
        {
          "indexed": true,
          "internalType": "uint256",
          "name": "tokenId",
          "type": "uint256"
        },
        {
          "indexed": false,
          "internalType": "uint256[]",
          "name": "attributeIds",
          "type": "uint256[]"
        },
        {
          "indexed": false,
          "internalType": "string[]",
          "name": "names",
          "type": "string[]"
        }
      ],
      "name": "NamesUpdated",
      "type": "event"
    },
    {
      "anonymous": false,
      "inputs": [
        {
          "indexed": false,
          "internalType": "address",
          "name": "account",
          "type": "address"
        }
      ],
      "name": "Paused",
      "type": "event"
    },
    {
      "anonymous": false,
      "inputs": [
        {
          "indexed": true,
          "internalType": "bytes32",
          "name": "role",
          "type": "bytes32"
        },
        {
          "indexed": true,
          "internalType": "bytes32",
          "name": "previousAdminRole",
          "type": "bytes32"
        },
        {
          "indexed": true,
          "internalType": "bytes32",
          "name": "newAdminRole",
          "type": "bytes32"
        }
      ],
      "name": "RoleAdminChanged",
      "type": "event"
    },
    {
      "anonymous": false,
      "inputs": [
        {
          "indexed": true,
          "internalType": "bytes32",
          "name": "role",
          "type": "bytes32"
        },
        {
          "indexed": true,
          "internalType": "address",
          "name": "account",
          "type": "address"
        },
        {
          "indexed": true,
          "internalType": "address",
          "name": "sender",
          "type": "address"
        }
      ],
      "name": "RoleGranted",
      "type": "event"
    },
    {
      "anonymous": false,
      "inputs": [
        {
          "indexed": true,
          "internalType": "bytes32",
          "name": "role",
          "type": "bytes32"
        },
        {
          "indexed": true,
          "internalType": "address",
          "name": "account",
          "type": "address"
        },
        {
          "indexed": true,
          "internalType": "address",
          "name": "sender",
          "type": "address"
        }
      ],
      "name": "RoleRevoked",
      "type": "event"
    },
    {
      "anonymous": false,
      "inputs": [
        {
          "indexed": true,
          "internalType": "address",
          "name": "operator",
          "type": "address"
        },
        {
          "indexed": true,
          "internalType": "address",
          "name": "from",
          "type": "address"
        },
        {
          "indexed": true,
          "internalType": "address",
          "name": "to",
          "type": "address"
        },
        {
          "indexed": false,
          "internalType": "uint256[]",
          "name": "ids",
          "type": "uint256[]"
        },
        {
          "indexed": false,
          "internalType": "uint256[]",
          "name": "values",
          "type": "uint256[]"
        }
      ],
      "name": "TransferBatch",
      "type": "event"
    },
    {
      "anonymous": false,
      "inputs": [
        {
          "indexed": true,
          "internalType": "address",
          "name": "operator",
          "type": "address"
        },
        {
          "indexed": true,
          "internalType": "address",
          "name": "from",
          "type": "address"
        },
        {
          "indexed": true,
          "internalType": "address",
          "name": "to",
          "type": "address"
        },
        {
          "indexed": false,
          "internalType": "uint256",
          "name": "id",
          "type": "uint256"
        },
        {
          "indexed": false,
          "internalType": "uint256",
          "name": "value",
          "type": "uint256"
        }
      ],
      "name": "TransferSingle",
      "type": "event"
    },
    {
      "anonymous": false,
      "inputs": [
        {
          "indexed": false,
          "internalType": "string",
          "name": "value",
          "type": "string"
        },
        {
          "indexed": true,
          "internalType": "uint256",
          "name": "id",
          "type": "uint256"
        }
      ],
      "name": "URI",
      "type": "event"
    },
    {
      "anonymous": false,
      "inputs": [
        {
          "indexed": false,
          "internalType": "address",
          "name": "account",
          "type": "address"
        }
      ],
      "name": "Unpaused",
      "type": "event"
    },
    {
      "anonymous": false,
      "inputs": [
        {
          "indexed": true,
          "internalType": "uint256",
          "name": "tokenId",
          "type": "uint256"
        },
        {
          "indexed": false,
          "internalType": "uint256",
          "name": "attributeId",
          "type": "uint256"
        },
        {
          "indexed": false,
          "internalType": "uint256",
          "name": "value",
          "type": "uint256"
        }
      ],
      "name": "ValueUpdated",
      "type": "event"
    },
    {
      "anonymous": false,
      "inputs": [
        {
          "indexed": true,
          "internalType": "uint256",
          "name": "tokenId",
          "type": "uint256"
        },
        {
          "indexed": false,
          "internalType": "uint256[]",
          "name": "attributeIds",
          "type": "uint256[]"
        },
        {
          "indexed": false,
          "internalType": "uint256[]",
          "name": "values",
          "type": "uint256[]"
        }
      ],
      "name": "ValuesUpdated",
      "type": "event"
    },
    {
      "inputs": [],
      "name": "CONTRACT_ROLE",
      "outputs": [
        {
          "internalType": "bytes32",
          "name": "",
          "type": "bytes32"
        }
      ],
      "stateMutability": "view",
      "type": "function"
    },
    {
      "inputs": [],
      "name": "DEFAULT_ADMIN_ROLE",
      "outputs": [
        {
          "internalType": "bytes32",
          "name": "",
          "type": "bytes32"
        }
      ],
      "stateMutability": "view",
      "type": "function"
    },
    {
      "inputs": [],
      "name": "SOULBOUND_WHITELIST_ROLE",
      "outputs": [
        {
          "internalType": "bytes32",
          "name": "",
          "type": "bytes32"
        }
      ],
      "stateMutability": "view",
      "type": "function"
    },
    {
      "inputs": [],
      "name": "activeIds",
      "outputs": [
        {
          "internalType": "uint256[]",
          "name": "",
          "type": "uint256[]"
        }
      ],
      "stateMutability": "view",
      "type": "function"
    },
    {
      "inputs": [
        {
          "internalType": "address",
          "name": "account",
          "type": "address"
        },
        {
          "internalType": "uint256",
          "name": "id",
          "type": "uint256"
        },
        {
          "internalType": "uint256",
          "name": "amount",
          "type": "uint256"
        }
      ],
      "name": "adminBurn",
      "outputs": [],
      "stateMutability": "nonpayable",
      "type": "function"
    },
    {
      "inputs": [
        {
          "internalType": "address",
          "name": "account",
          "type": "address"
        },
        {
          "internalType": "uint256",
          "name": "id",
          "type": "uint256"
        }
      ],
      "name": "balanceOf",
      "outputs": [
        {
          "internalType": "uint256",
          "name": "",
          "type": "uint256"
        }
      ],
      "stateMutability": "view",
      "type": "function"
    },
    {
      "inputs": [],
      "name": "balanceOfAll",
      "outputs": [
        {
          "internalType": "address[]",
          "name": "owners",
          "type": "address[]"
        },
        {
          "internalType": "uint256[][]",
          "name": "tokenIds",
          "type": "uint256[][]"
        },
        {
          "internalType": "uint256[][]",
          "name": "balances",
          "type": "uint256[][]"
        }
      ],
      "stateMutability": "view",
      "type": "function"
    },
    {
      "inputs": [
        {
          "internalType": "address[]",
          "name": "accounts",
          "type": "address[]"
        },
        {
          "internalType": "uint256[]",
          "name": "ids",
          "type": "uint256[]"
        }
      ],
      "name": "balanceOfBatch",
      "outputs": [
        {
          "internalType": "uint256[]",
          "name": "",
          "type": "uint256[]"
        }
      ],
      "stateMutability": "view",
      "type": "function"
    },
    {
      "inputs": [
        {
          "internalType": "uint256",
          "name": "tokenId",
          "type": "uint256"
        },
        {
          "internalType": "uint256[]",
          "name": "attributeIds",
          "type": "uint256[]"
        }
      ],
      "name": "batchGetAttribute",
      "outputs": [
        {
          "internalType": "uint256[]",
          "name": "",
          "type": "uint256[]"
        }
      ],
      "stateMutability": "view",
      "type": "function"
    },
    {
      "inputs": [
        {
          "internalType": "uint256",
          "name": "tokenId",
          "type": "uint256"
        },
        {
          "internalType": "uint256[]",
          "name": "attributeIds",
          "type": "uint256[]"
        },
        {
          "internalType": "uint256[]",
          "name": "values",
          "type": "uint256[]"
        }
      ],
      "name": "batchSetAttribute",
      "outputs": [],
      "stateMutability": "nonpayable",
      "type": "function"
    },
    {
      "inputs": [
        {
          "internalType": "uint256",
          "name": "tokenId",
          "type": "uint256"
        },
        {
          "internalType": "uint256[]",
          "name": "attributeIds",
          "type": "uint256[]"
        },
        {
          "internalType": "string[]",
          "name": "names",
          "type": "string[]"
        }
      ],
      "name": "batchSetAttributeName",
      "outputs": [],
      "stateMutability": "nonpayable",
      "type": "function"
    },
    {
      "inputs": [
        {
          "internalType": "uint256[]",
          "name": "tokenIds",
          "type": "uint256[]"
        },
        {
          "internalType": "uint256[]",
          "name": "attributeIds",
          "type": "uint256[]"
        },
        {
          "internalType": "string[]",
          "name": "names",
          "type": "string[]"
        }
      ],
      "name": "batchSetAttributeNames",
      "outputs": [],
      "stateMutability": "nonpayable",
      "type": "function"
    },
    {
      "inputs": [
        {
          "internalType": "uint256[]",
          "name": "tokenIds",
          "type": "uint256[]"
        }
      ],
      "name": "batchTokenURI",
      "outputs": [
        {
          "internalType": "string[]",
          "name": "",
          "type": "string[]"
        }
      ],
      "stateMutability": "view",
      "type": "function"
    },
    {
      "inputs": [
        {
          "internalType": "uint256[]",
          "name": "tokenIds",
          "type": "uint256[]"
        }
      ],
      "name": "batchUri",
      "outputs": [
        {
          "internalType": "string[]",
          "name": "",
          "type": "string[]"
        }
      ],
      "stateMutability": "view",
      "type": "function"
    },
    {
      "inputs": [],
      "name": "bridgeContract",
      "outputs": [
        {
          "internalType": "address",
          "name": "",
          "type": "address"
        }
      ],
      "stateMutability": "view",
      "type": "function"
    },
    {
      "inputs": [
        {
          "internalType": "uint256",
          "name": "id",
          "type": "uint256"
        },
        {
          "internalType": "uint256",
          "name": "amount",
          "type": "uint256"
        }
      ],
      "name": "bridgeExtraData",
      "outputs": [
        {
          "internalType": "bytes",
          "name": "",
          "type": "bytes"
        }
      ],
      "stateMutability": "view",
      "type": "function"
    },
    {
      "inputs": [
        {
          "internalType": "address",
          "name": "account",
          "type": "address"
        },
        {
          "internalType": "uint256",
          "name": "id",
          "type": "uint256"
        },
        {
          "internalType": "uint256",
          "name": "amount",
          "type": "uint256"
        }
      ],
      "name": "burn",
      "outputs": [],
      "stateMutability": "nonpayable",
      "type": "function"
    },
    {
      "inputs": [
        {
          "internalType": "address",
          "name": "from",
          "type": "address"
        },
        {
          "internalType": "uint256[]",
          "name": "ids",
          "type": "uint256[]"
        },
        {
          "internalType": "uint256[]",
          "name": "amounts",
          "type": "uint256[]"
        }
      ],
      "name": "burnBatch",
      "outputs": [],
      "stateMutability": "nonpayable",
      "type": "function"
    },
    {
      "inputs": [
        {
          "internalType": "uint256",
          "name": "id",
          "type": "uint256"
        }
      ],
      "name": "exists",
      "outputs": [
        {
          "internalType": "bool",
          "name": "",
          "type": "bool"
        }
      ],
      "stateMutability": "view",
      "type": "function"
    },
    {
      "inputs": [
        {
          "internalType": "uint256",
          "name": "tokenId",
          "type": "uint256"
        },
        {
          "internalType": "uint256",
          "name": "attributeId",
          "type": "uint256"
        }
      ],
      "name": "getAttribute",
      "outputs": [
        {
          "internalType": "uint256",
          "name": "",
          "type": "uint256"
        }
      ],
      "stateMutability": "view",
      "type": "function"
    },
    {
      "inputs": [],
      "name": "getBlacklisted",
      "outputs": [
        {
          "internalType": "address[]",
          "name": "",
          "type": "address[]"
        }
      ],
      "stateMutability": "view",
      "type": "function"
    },
    {
      "inputs": [
        {
          "internalType": "bytes32",
          "name": "role",
          "type": "bytes32"
        }
      ],
      "name": "getRoleAdmin",
      "outputs": [
        {
          "internalType": "bytes32",
          "name": "",
          "type": "bytes32"
        }
      ],
      "stateMutability": "view",
      "type": "function"
    },
    {
      "inputs": [
        {
          "internalType": "bytes32",
          "name": "role",
          "type": "bytes32"
        },
        {
          "internalType": "uint256",
          "name": "index",
          "type": "uint256"
        }
      ],
      "name": "getRoleMember",
      "outputs": [
        {
          "internalType": "address",
          "name": "",
          "type": "address"
        }
      ],
      "stateMutability": "view",
      "type": "function"
    },
    {
      "inputs": [
        {
          "internalType": "bytes32",
          "name": "role",
          "type": "bytes32"
        }
      ],
      "name": "getRoleMemberCount",
      "outputs": [
        {
          "internalType": "uint256",
          "name": "",
          "type": "uint256"
        }
      ],
      "stateMutability": "view",
      "type": "function"
    },
    {
      "inputs": [
        {
          "internalType": "bytes32",
          "name": "role",
          "type": "bytes32"
        },
        {
          "internalType": "address",
          "name": "account",
          "type": "address"
        }
      ],
      "name": "grantRole",
      "outputs": [],
      "stateMutability": "nonpayable",
      "type": "function"
    },
    {
      "inputs": [
        {
          "internalType": "bytes32",
          "name": "role",
          "type": "bytes32"
        },
        {
          "internalType": "address",
          "name": "account",
          "type": "address"
        }
      ],
      "name": "hasRole",
      "outputs": [
        {
          "internalType": "bool",
          "name": "",
          "type": "bool"
        }
      ],
      "stateMutability": "view",
      "type": "function"
    },
    {
      "inputs": [],
      "name": "imageBaseURI",
      "outputs": [
        {
          "internalType": "string",
          "name": "",
          "type": "string"
        }
      ],
      "stateMutability": "view",
      "type": "function"
    },
    {
      "inputs": [],
      "name": "initialize",
      "outputs": [],
      "stateMutability": "nonpayable",
      "type": "function"
    },
    {
      "inputs": [
        {
          "internalType": "address",
          "name": "account",
          "type": "address"
        },
        {
          "internalType": "address",
          "name": "operator",
          "type": "address"
        }
      ],
      "name": "isApprovedForAll",
      "outputs": [
        {
          "internalType": "bool",
          "name": "",
          "type": "bool"
        }
      ],
      "stateMutability": "view",
      "type": "function"
    },
    {
      "inputs": [
        {
          "internalType": "address",
          "name": "user",
          "type": "address"
        }
      ],
      "name": "isBlacklisted",
      "outputs": [
        {
          "internalType": "bool",
          "name": "",
          "type": "bool"
        }
      ],
      "stateMutability": "view",
      "type": "function"
    },
    {
      "inputs": [
        {
          "internalType": "uint256",
          "name": "tokenId",
          "type": "uint256"
        }
      ],
      "name": "isSoulbound",
      "outputs": [
        {
          "internalType": "bool",
          "name": "",
          "type": "bool"
        }
      ],
      "stateMutability": "view",
      "type": "function"
    },
    {
      "inputs": [
        {
          "internalType": "address",
          "name": "account",
          "type": "address"
        },
        {
          "internalType": "uint256",
          "name": "id",
          "type": "uint256"
        },
        {
          "internalType": "uint256",
          "name": "amount",
          "type": "uint256"
        },
        {
          "internalType": "bytes",
          "name": "data",
          "type": "bytes"
        }
      ],
      "name": "mint",
      "outputs": [],
      "stateMutability": "nonpayable",
      "type": "function"
    },
    {
      "inputs": [
        {
          "internalType": "address",
          "name": "to",
          "type": "address"
        },
        {
          "internalType": "uint256[]",
          "name": "ids",
          "type": "uint256[]"
        },
        {
          "internalType": "uint256[]",
          "name": "amounts",
          "type": "uint256[]"
        },
        {
          "internalType": "bytes",
          "name": "data",
          "type": "bytes"
        }
      ],
      "name": "mintBatch",
      "outputs": [],
      "stateMutability": "nonpayable",
      "type": "function"
    },
    {
      "inputs": [
        {
          "internalType": "uint256",
          "name": "id",
          "type": "uint256"
        },
        {
          "internalType": "address[]",
          "name": "to",
          "type": "address[]"
        },
        {
          "internalType": "uint256[]",
          "name": "amounts",
          "type": "uint256[]"
        }
      ],
      "name": "mintBatchOf",
      "outputs": [],
      "stateMutability": "nonpayable",
      "type": "function"
    },
    {
      "inputs": [],
      "name": "name",
      "outputs": [
        {
          "internalType": "string",
          "name": "",
          "type": "string"
        }
      ],
      "stateMutability": "view",
      "type": "function"
    },
    {
      "inputs": [],
      "name": "pause",
      "outputs": [],
      "stateMutability": "nonpayable",
      "type": "function"
    },
    {
      "inputs": [],
      "name": "paused",
      "outputs": [
        {
          "internalType": "bool",
          "name": "",
          "type": "bool"
        }
      ],
      "stateMutability": "view",
      "type": "function"
    },
    {
      "inputs": [
        {
          "internalType": "bytes32",
          "name": "role",
          "type": "bytes32"
        },
        {
          "internalType": "address",
          "name": "account",
          "type": "address"
        }
      ],
      "name": "renounceRole",
      "outputs": [],
      "stateMutability": "nonpayable",
      "type": "function"
    },
    {
      "inputs": [
        {
          "internalType": "bytes32",
          "name": "role",
          "type": "bytes32"
        },
        {
          "internalType": "address",
          "name": "account",
          "type": "address"
        }
      ],
      "name": "revokeRole",
      "outputs": [],
      "stateMutability": "nonpayable",
      "type": "function"
    },
    {
      "inputs": [
        {
          "internalType": "address",
          "name": "from",
          "type": "address"
        },
        {
          "internalType": "address",
          "name": "to",
          "type": "address"
        },
        {
          "internalType": "uint256[]",
          "name": "ids",
          "type": "uint256[]"
        },
        {
          "internalType": "uint256[]",
          "name": "amounts",
          "type": "uint256[]"
        },
        {
          "internalType": "bytes",
          "name": "data",
          "type": "bytes"
        }
      ],
      "name": "safeBatchTransferFrom",
      "outputs": [],
      "stateMutability": "nonpayable",
      "type": "function"
    },
    {
      "inputs": [
        {
          "internalType": "address",
          "name": "from",
          "type": "address"
        },
        {
          "internalType": "address",
          "name": "to",
          "type": "address"
        },
        {
          "internalType": "uint256",
          "name": "id",
          "type": "uint256"
        },
        {
          "internalType": "uint256",
          "name": "amount",
          "type": "uint256"
        },
        {
          "internalType": "bytes",
          "name": "data",
          "type": "bytes"
        }
      ],
      "name": "safeTransferFrom",
      "outputs": [],
      "stateMutability": "nonpayable",
      "type": "function"
    },
    {
      "inputs": [
        {
          "internalType": "address",
          "name": "operator",
          "type": "address"
        },
        {
          "internalType": "bool",
          "name": "approved",
          "type": "bool"
        }
      ],
      "name": "setApprovalForAll",
      "outputs": [],
      "stateMutability": "nonpayable",
      "type": "function"
    },
    {
      "inputs": [
        {
          "internalType": "uint256",
          "name": "tokenId",
          "type": "uint256"
        },
        {
          "internalType": "uint256",
          "name": "attributeId",
          "type": "uint256"
        },
        {
          "internalType": "uint256",
          "name": "value",
          "type": "uint256"
        }
      ],
      "name": "setAttribute",
      "outputs": [],
      "stateMutability": "nonpayable",
      "type": "function"
    },
    {
      "inputs": [
        {
          "internalType": "uint256",
          "name": "tokenId",
          "type": "uint256"
        },
        {
          "internalType": "uint256",
          "name": "attributeId",
          "type": "uint256"
        },
        {
          "internalType": "string",
          "name": "name",
          "type": "string"
        }
      ],
      "name": "setAttributeName",
      "outputs": [],
      "stateMutability": "nonpayable",
      "type": "function"
    },
    {
      "inputs": [
        {
          "internalType": "address",
          "name": "_bridgeContract",
          "type": "address"
        }
      ],
      "name": "setBridgeContract",
      "outputs": [],
      "stateMutability": "nonpayable",
      "type": "function"
    },
    {
      "inputs": [
        {
          "internalType": "string",
          "name": "_imageBaseURI",
          "type": "string"
        }
      ],
      "name": "setImageBaseURI",
      "outputs": [],
      "stateMutability": "nonpayable",
      "type": "function"
    },
    {
      "inputs": [
        {
          "internalType": "uint256",
          "name": "tokenId",
          "type": "uint256"
        }
      ],
      "name": "setSoulbound",
      "outputs": [],
      "stateMutability": "nonpayable",
      "type": "function"
    },
    {
      "inputs": [
        {
          "internalType": "bytes4",
          "name": "interfaceId",
          "type": "bytes4"
        }
      ],
      "name": "supportsInterface",
      "outputs": [
        {
          "internalType": "bool",
          "name": "",
          "type": "bool"
        }
      ],
      "stateMutability": "view",
      "type": "function"
    },
    {
      "inputs": [],
      "name": "symbol",
      "outputs": [
        {
          "internalType": "string",
          "name": "",
          "type": "string"
        }
      ],
      "stateMutability": "view",
      "type": "function"
    },
    {
      "inputs": [
        {
          "internalType": "address",
          "name": "owner",
          "type": "address"
        }
      ],
      "name": "tokensOf",
      "outputs": [
        {
          "internalType": "uint256[]",
          "name": "tokenIds",
          "type": "uint256[]"
        },
        {
          "internalType": "uint256[]",
          "name": "balances",
          "type": "uint256[]"
        }
      ],
      "stateMutability": "view",
      "type": "function"
    },
    {
      "inputs": [
        {
          "internalType": "uint256",
          "name": "id",
          "type": "uint256"
        }
      ],
      "name": "totalSupply",
      "outputs": [
        {
          "internalType": "uint256",
          "name": "",
          "type": "uint256"
        }
      ],
      "stateMutability": "view",
      "type": "function"
    },
    {
      "inputs": [],
      "name": "unpause",
      "outputs": [],
      "stateMutability": "nonpayable",
      "type": "function"
    },
    {
      "inputs": [
        {
          "internalType": "uint256",
          "name": "tokenId",
          "type": "uint256"
        }
      ],
      "name": "unsetSoulbound",
      "outputs": [],
      "stateMutability": "nonpayable",
      "type": "function"
    },
    {
      "inputs": [
        {
          "internalType": "uint256",
          "name": "tokenId",
          "type": "uint256"
        }
      ],
      "name": "uri",
      "outputs": [
        {
          "internalType": "string",
          "name": "",
          "type": "string"
        }
      ],
      "stateMutability": "view",
      "type": "function"
    }
  ],
  "bytecode": "0x60806040523480156200001157600080fd5b506200001c62000022565b620000e4565b600054610100900460ff16156200008f5760405162461bcd60e51b815260206004820152602760248201527f496e697469616c697a61626c653a20636f6e747261637420697320696e697469604482015266616c697a696e6760c81b606482015260840160405180910390fd5b60005460ff9081161015620000e2576000805460ff191660ff9081179091556040519081527f7f26b83ff96e1f2b6a682f133852f6798a09c465da95921460cefb38474024989060200160405180910390a15b565b61544780620000f46000396000f3fe608060405234801561001057600080fd5b50600436106103415760003560e01c80638129fc1c116101b8578063b198ce4611610104578063d547741f116100a2578063f5298aca1161007c578063f5298aca14610753578063fb95ac2d14610766578063fd5eea4e14610788578063fe575a871461079b57600080fd5b8063d547741f146106f1578063e985e9c514610704578063f242432a1461074057600080fd5b8063ca15c873116100de578063ca15c873146106a2578063cd596583146106b5578063ce3675ad146106c9578063d179191a146106de57600080fd5b8063b198ce4614610674578063bd85b0391461067c578063c385ce251461068f57600080fd5b806395d89b4111610171578063a17d79ec1161014b578063a17d79ec14610631578063a217fddf14610646578063a22cb4651461064e578063b0fe60d51461066157600080fd5b806395d89b411461060357806396c45e2f1461060b578063994a95be1461061e57600080fd5b80638129fc1c1461058f5780638456cb591461059757806387be85d31461059f5780639010d07c146105b2578063911ec470146105dd57806391d14854146105f057600080fd5b806336568abe116102925780636b20c45411610230578063731133e91161020a578063731133e91461054e5780637685945e1461056157806377645839146105745780637d7a6d131461057c57600080fd5b80636b20c454146105085780636cfa24cc1461051b5780636d94f13a1461052e57600080fd5b80634f558e791161026c5780634f558e79146104b557806358870da1146104c85780635a3f2672146104db5780635c975abb146104fc57600080fd5b806336568abe1461047a5780633f4ba83a1461048d5780634e1273f41461049557600080fd5b80631b56a5be116102ff57806321e5548c116102d957806321e5548c1461041e578063248a9ca3146104315780632eb2c2d6146104545780632f2ff15d1461046757600080fd5b80631b56a5be146103e15780631f7fdffa146103f4578063208e509f1461040757600080fd5b8062fdd58e1461034657806301ffc9a71461036c57806303fe46ab1461038f57806306fdde03146103a45780630b26cf66146103b95780630e89341c146103ce575b600080fd5b610359610354366004613c07565b6107ae565b6040519081526020015b60405180910390f35b61037f61037a366004613c47565b610849565b6040519015158152602001610363565b6103596000805160206153f283398151915281565b6103ac61086e565b6040516103639190613cb4565b6103cc6103c7366004613cc7565b6108fd565b005b6103ac6103dc366004613ce2565b610937565b6103cc6103ef366004613cfb565b610b1b565b6103cc610402366004613db3565b610b42565b61040f610c04565b60405161036393929190613f26565b6103cc61042c366004613f69565b610d35565b61035961043f366004613ce2565b60009081526097602052604090206001015490565b6103cc61046236600461414b565b610dfb565b6103cc6104753660046141f4565b610e47565b6103cc6104883660046141f4565b610e6c565b6103cc610eea565b6104a86104a3366004614220565b610f0b565b60405161036391906142ea565b61037f6104c3366004613ce2565b611034565b6103cc6104d63660046142fd565b611047565b6104ee6104e9366004613cc7565b6110c4565b60405161036392919061434c565b6101295460ff1661037f565b6103cc610516366004614371565b611189565b6103cc6105293660046143da565b6111ab565b61054161053c36600461441b565b611201565b6040516103639190614497565b6103cc61055c3660046144aa565b61120c565b61035961056f36600461450a565b611235565b6103ac611255565b6103cc61058a36600461452c565b611263565b6103cc611327565b6103cc6114f5565b6103cc6105ad36600461455f565b611514565b6105c56105c036600461450a565b6115a9565b6040516001600160a01b039091168152602001610363565b61037f6105eb366004613ce2565b6115c1565b61037f6105fe3660046141f4565b6115e5565b6103ac611610565b6103cc610619366004613ce2565b61161e565b6104a861062c3660046145d8565b61165b565b6103596000805160206153b283398151915281565b610359600081565b6103cc61065c366004614614565b61171e565b61054161066f36600461441b565b611729565b6104a86117e1565b61035961068a366004613ce2565b61187f565b6103cc61069d366004613ce2565b611896565b6103596106b0366004613ce2565b6118d2565b6102ba546105c5906001600160a01b031681565b6106d16118e9565b6040516103639190614650565b6103cc6106ec366004614663565b6118fb565b6103cc6106ff3660046141f4565b6119c9565b61037f61071236600461474e565b6001600160a01b03918216600090815260666020908152604080832093909416825291909152205460ff1690565b6103cc61074e366004614778565b6119ee565b6103cc610761366004613cfb565b611a33565b6103ac61077436600461450a565b505060408051602081019091526000815290565b6103cc6107963660046147dc565b611a3e565b61037f6107a9366004613cc7565b611aa9565b60006001600160a01b03831661081e5760405162461bcd60e51b815260206004820152602a60248201527f455243313135353a2061646472657373207a65726f206973206e6f742061207660448201526930b634b21037bbb732b960b11b60648201526084015b60405180910390fd5b5060008181526065602090815260408083206001600160a01b03861684529091529020545b92915050565b600063b0f4708d60e01b6001600160e01b031983161480610843575061084382611ab7565b610288805461087c90614808565b80601f01602080910402602001604051908101604052809291908181526020018280546108a890614808565b80156108f55780601f106108ca576101008083540402835291602001916108f5565b820191906000526020600020905b8154815290600101906020018083116108d857829003601f168201915b505050505081565b6109146000805160206153d2833981519152611adc565b6102ba80546001600160a01b0319166001600160a01b0392909216919091179055565b60606000610947836103e8611ae6565b90506000610957846103e9611ae6565b6040805160038082526080820190925291925060009190816020015b61099760405180606001604052806060815260200160608152602001606081525090565b81526020019060019003908161097357905050905060405180606001604052806040518060400160405280600a815260200169283937b332b9b9b4b7b760b11b81525081526020016040518060200160405280600081525081526020016109ff876000611ae6565b81525081600081518110610a1557610a15614842565b60200260200101819052506040518060600160405280604051806040016040528060048152602001635479706560e01b8152508152602001604051806020016040528060008152508152602001610a6d876001611ae6565b81525081600181518110610a8357610a83614842565b602002602001018190525060405180606001604052806040518060400160405280600681526020016552617269747960d01b8152508152602001604051806020016040528060008152508152602001610add876002611ae6565b81525081600281518110610af357610af3614842565b6020026020010181905250610b12610b0d86858585611b95565b611be1565b95945050505050565b610b326000805160206153d2833981519152611adc565b610b3d838383611c12565b505050565b610b59600080516020615392833981519152611adc565b610bfb8787878080602002602001604051908101604052809392919081815260200183836020028082843760009201919091525050604080516020808b0282810182019093528a82529093508a92508991829185019084908082843760009201919091525050604080516020601f8a018190048102820181019092528881529250889150879081908401838280828437600092019190915250611d2e92505050565b50505050505050565b6060806060610c14610190611e89565b925082516001600160401b03811115610c2f57610c2f614002565b604051908082528060200260200182016040528015610c6257816020015b6060815260200190600190039081610c4d5790505b50915082516001600160401b03811115610c7e57610c7e614002565b604051908082528060200260200182016040528015610cb157816020015b6060815260200190600190039081610c9c5790505b50905060005b8351811015610d2f57610ce2848281518110610cd557610cd5614842565b60200260200101516110c4565b848381518110610cf457610cf4614842565b60200260200101848481518110610d0d57610d0d614842565b6020026020010182905282905250508080610d279061486e565b915050610cb7565b50909192565b6000805160206153f2833981519152610d4d81611adc565b60005b86811015610df157838382818110610d6a57610d6a614842565b9050602002810190610d7c9190614887565b6101f560008b8b86818110610d9357610d93614842565b9050602002013581526020019081526020016000206000898986818110610dbc57610dbc614842565b9050602002013581526020019081526020016000209182610dde929190614913565b5080610de98161486e565b915050610d50565b5050505050505050565b6001600160a01b038516331480610e175750610e178533610712565b610e335760405162461bcd60e51b8152600401610815906149d2565b610e408585858585611e96565b5050505050565b600082815260976020526040902060010154610e6281611adc565b610b3d838361203b565b6001600160a01b0381163314610edc5760405162461bcd60e51b815260206004820152602f60248201527f416363657373436f6e74726f6c3a2063616e206f6e6c792072656e6f756e636560448201526e103937b632b9903337b91039b2b63360891b6064820152608401610815565b610ee6828261205d565b5050565b610f016000805160206153d2833981519152611adc565b610f0961207f565b565b60608151835114610f705760405162461bcd60e51b815260206004820152602960248201527f455243313135353a206163636f756e747320616e6420696473206c656e677468604482015268040dad2e6dac2e8c6d60bb1b6064820152608401610815565b600083516001600160401b03811115610f8b57610f8b614002565b604051908082528060200260200182016040528015610fb4578160200160208202803683370190505b50905060005b845181101561102c57610fff858281518110610fd857610fd8614842565b6020026020010151858381518110610ff257610ff2614842565b60200260200101516107ae565b82828151811061101157611011614842565b60209081029190910101526110258161486e565b9050610fba565b509392505050565b6000806110408361187f565b1192915050565b6000805160206153f283398151915261105f81611adc565b60008481526101f56020908152604080832086845290915290206110838382614a20565b50837ffdbb964a9a1d2ac903ed7ebf85795be6728c27e96237552b2805596c759e088184846040516110b6929190614adf565b60405180910390a250505050565b6001600160a01b03811660009081526101926020526040902060609081906110eb90611e89565b915081516001600160401b0381111561110657611106614002565b60405190808252806020026020018201604052801561112f578160200160208202803683370190505b50905060005b82518110156111835761115484848381518110610ff257610ff2614842565b82828151811061116657611166614842565b60209081029190910101528061117b8161486e565b915050611135565b50915091565b6111a06000805160206153d2833981519152611adc565b610b3d8383836120d2565b6111c26000805160206153d2833981519152611adc565b610ee682828080601f01602080910402602001604051908101604052809392919081815260200183838082843760009201919091525061227192505050565b606061084382611729565b611223600080516020615392833981519152611adc565b61122f8484848461227e565b50505050565b60008281526101f46020526040812061124e9083612360565b9392505050565b610225805461087c90614808565b6000805160206153f283398151915261127b81611adc565b60005b83518110156112f4576112e184828151811061129c5761129c614842565b60200260200101518483815181106112b6576112b6614842565b60200260200101516101f4600089815260200190815260200160002061236c9092919063ffffffff16565b50806112ec8161486e565b91505061127e565b50837f383bcccfd5e9b61afe7e6832ca2201fe34d7766a9bbf90fb7152082ddbcd342b84846040516110b692919061434c565b600054610100900460ff16158080156113475750600054600160ff909116105b806113615750303b158015611361575060005460ff166001145b6113c45760405162461bcd60e51b815260206004820152602e60248201527f496e697469616c697a61626c653a20636f6e747261637420697320616c72656160448201526d191e481a5b9a5d1a585b1a5e995960921b6064820152608401610815565b6000805460ff1916600117905580156113e7576000805461ff0019166101001790555b6113ff60405180602001604052806000815250612379565b6114076123a9565b61140f61247f565b6114176124ae565b61141f6124ae565b6114276124ae565b61142f6124d5565b61145060405180606001604052806036815260200161535c60369139612534565b61145861255b565b6114ac60405180604001604052806014815260200173436f736d696320526177205265736f757263657360601b8152506040518060400160405280600681526020016552415752455360d01b8152506125a2565b80156114f2576000805461ff0019169055604051600181527f7f26b83ff96e1f2b6a682f133852f6798a09c465da95921460cefb38474024989060200160405180910390a15b50565b61150c6000805160206153d2833981519152611adc565b610f096125e4565b61152b600080516020615392833981519152611adc565b60005b838110156115a15761158f85858381811061154b5761154b614842565b90506020020160208101906115609190613cc7565b8785858581811061157357611573614842565b905060200201356040518060200160405280600081525061227e565b806115998161486e565b91505061152e565b505050505050565b600082815260c96020526040812061124e9083612622565b600881901c60009081526102576020526040812054600160ff84161b161515610843565b60009182526097602090815260408084206001600160a01b0393909316845291905290205460ff1690565b610289805461087c90614808565b6000805160206153d283398151915261163681611adc565b600882901c6000908152610257602052604090208054600160ff85161b191690555050565b6060600082516001600160401b0381111561167857611678614002565b6040519080825280602002602001820160405280156116a1578160200160208202803683370190505b50905060005b835181101561102c576116ef8482815181106116c5576116c5614842565b60200260200101516101f4600088815260200190815260200160002061236090919063ffffffff16565b82828151811061170157611701614842565b6020908102919091010152806117168161486e565b9150506116a7565b610ee6338383612652565b6060600082516001600160401b0381111561174657611746614002565b60405190808252806020026020018201604052801561177957816020015b60608152602001906001900390816117645790505b50905060005b83518110156117da576117aa84828151811061179d5761179d614842565b6020026020010151610937565b8282815181106117bc576117bc614842565b602002602001018190525080806117d29061486e565b91505061177f565b5092915050565b606060006117f061018d612732565b90506000816001600160401b0381111561180c5761180c614002565b604051908082528060200260200182016040528015611835578160200160208202803683370190505b50905060005b828110156117da5761184f61018d8261273d565b5082828151811061186257611862614842565b6020908102919091010152806118778161486e565b91505061183b565b60008061188e61018d8461275b565b949350505050565b6000805160206153d28339815191526118ae81611adc565b600882901c6000908152610257602052604090208054600160ff85161b1790555050565b600081815260c9602052604081206108439061276a565b60606118f66101c1611e89565b905090565b6000805160206153f283398151915261191381611adc565b60005b83518110156119965782818151811061193157611931614842565b60200260200101516101f56000878152602001908152602001600020600086848151811061196157611961614842565b6020026020010151815260200190815260200160002090816119839190614a20565b508061198e8161486e565b915050611916565b50837f9d69ed3cc764cf4f579cfc28312dded7bb202f17cc77aa4d0eb3f8bbaecd88e384846040516110b6929190614af8565b6000828152609760205260409020600101546119e481611adc565b610b3d838361205d565b6001600160a01b038516331480611a0a5750611a0a8533610712565b611a265760405162461bcd60e51b8152600401610815906149d2565b610e408585858585612774565b610b3d8383836128b0565b6000805160206153f2833981519152611a5681611adc565b60008481526101f460205260409020611a7090848461236c565b50604080518481526020810184905285917f5cb4c5f05283d5a84da3f9f1b0fe8b00d7ea8e1fb833812b52114799bdf1acc791016110b6565b60006108436101c1836128e8565b60006001600160e01b03198216635a05180f60e01b148061084357506108438261290a565b6114f2813361292f565b60008281526101f5602090815260408083208484529091529020805460609190611b0f90614808565b80601f0160208091040260200160405190810160405280929190818152602001828054611b3b90614808565b8015611b885780601f10611b5d57610100808354040283529160200191611b88565b820191906000526020600020905b815481529060010190602001808311611b6b57829003601f168201915b5050505050905092915050565b60606000611ba4868686612988565b90506000611bb1846129f2565b90508181604051602001611bc6929190614b39565b60405160208183030381529060405292505050949350505050565b6060611bec82612b7d565b604051602001611bfc9190614b86565b6040516020818303038152906040529050919050565b6001600160a01b038316611c385760405162461bcd60e51b815260040161081590614bcb565b336000611c4484612ccf565b90506000611c5184612ccf565b9050611c7183876000858560405180602001604052806000815250612d1a565b60008581526065602090815260408083206001600160a01b038a16845290915290205484811015611cb45760405162461bcd60e51b815260040161081590614c0e565b60008681526065602090815260408083206001600160a01b038b81168086529184528285208a8703905582518b81529384018a90529092908816917fc3d58168c5ae7397731d063d5bbf3d657854427343f4c083240f7aacaa2d0f62910160405180910390a4604080516020810190915260009052610bfb565b6001600160a01b038416611d545760405162461bcd60e51b815260040161081590614c52565b8151835114611d755760405162461bcd60e51b815260040161081590614c93565b33611d8581600087878787612d1a565b60005b8451811015611e2157838181518110611da357611da3614842565b602002602001015160656000878481518110611dc157611dc1614842565b602002602001015181526020019081526020016000206000886001600160a01b03166001600160a01b031681526020019081526020016000206000828254611e099190614cdb565b90915550819050611e198161486e565b915050611d88565b50846001600160a01b031660006001600160a01b0316826001600160a01b03167f4a39dc06d4c0dbc64b70af90fd698a233a518aa5d07e595d983b8c0526c8f7fb8787604051611e7292919061434c565b60405180910390a4610e4081600087878787612e22565b6060600061124e83612f7d565b8151835114611eb75760405162461bcd60e51b815260040161081590614c93565b6001600160a01b038416611edd5760405162461bcd60e51b815260040161081590614cee565b33611eec818787878787612d1a565b60005b8451811015611fd5576000858281518110611f0c57611f0c614842565b602002602001015190506000858381518110611f2a57611f2a614842565b60209081029190910181015160008481526065835260408082206001600160a01b038e168352909352919091205490915081811015611f7b5760405162461bcd60e51b815260040161081590614d33565b60008381526065602090815260408083206001600160a01b038e8116855292528083208585039055908b16825281208054849290611fba908490614cdb565b9250508190555050505080611fce9061486e565b9050611eef565b50846001600160a01b0316866001600160a01b0316826001600160a01b03167f4a39dc06d4c0dbc64b70af90fd698a233a518aa5d07e595d983b8c0526c8f7fb878760405161202592919061434c565b60405180910390a46115a1818787878787612e22565b6120458282612fd9565b600082815260c960205260409020610b3d908261305f565b6120678282613074565b600082815260c960205260409020610b3d90826130db565b6120876130f0565b610129805460ff191690557f5db9ee0a495bf2e6ff9c91a7834c1ba4fdd244a5e8aa4e537bd38aeae4b073aa335b6040516001600160a01b03909116815260200160405180910390a1565b6001600160a01b0383166120f85760405162461bcd60e51b815260040161081590614bcb565b80518251146121195760405162461bcd60e51b815260040161081590614c93565b600033905061213c81856000868660405180602001604052806000815250612d1a565b60005b835181101561220457600084828151811061215c5761215c614842565b60200260200101519050600084838151811061217a5761217a614842565b60209081029190910181015160008481526065835260408082206001600160a01b038c1683529093529190912054909150818110156121cb5760405162461bcd60e51b815260040161081590614c0e565b60009283526065602090815260408085206001600160a01b038b16865290915290922091039055806121fc8161486e565b91505061213f565b5060006001600160a01b0316846001600160a01b0316826001600160a01b03167f4a39dc06d4c0dbc64b70af90fd698a233a518aa5d07e595d983b8c0526c8f7fb868660405161225592919061434c565b60405180910390a460408051602081019091526000905261122f565b610225610ee68282614a20565b6001600160a01b0384166122a45760405162461bcd60e51b815260040161081590614c52565b3360006122b085612ccf565b905060006122bd85612ccf565b90506122ce83600089858589612d1a565b60008681526065602090815260408083206001600160a01b038b16845290915281208054879290612300908490614cdb565b909155505060408051878152602081018790526001600160a01b03808a1692600092918716917fc3d58168c5ae7397731d063d5bbf3d657854427343f4c083240f7aacaa2d0f62910160405180910390a4610bfb8360008989898961313a565b600061124e83836131f5565b600061188e848484613265565b600054610100900460ff166123a05760405162461bcd60e51b815260040161081590614d7d565b6114f281613282565b600054610100900460ff166123d05760405162461bcd60e51b815260040161081590614d7d565b6123d86124ae565b6123e360003361203b565b6123fb6000805160206153d28339815191523361203b565b6124136000805160206153f28339815191523361203b565b61242b6000805160206153928339815191523361203b565b6124557ff18b77e1ef402111bacb54bd5e03494cbdba92fbd1bd3bbcc1ce77e69b42ea6c3361203b565b610f097f52ba824bfabc2bcfcdf7f0edbb486ebb05e1836c90e78047efeb949990f72e5f3361203b565b600054610100900460ff166124a65760405162461bcd60e51b815260040161081590614d7d565b610f096132b2565b600054610100900460ff16610f095760405162461bcd60e51b815260040161081590614d7d565b600054610100900460ff166124fc5760405162461bcd60e51b815260040161081590614d7d565b6125046124ae565b61251c6000805160206153d28339815191523361203b565b610f096000805160206153b28339815191523361203b565b600054610100900460ff166122715760405162461bcd60e51b815260040161081590614d7d565b600054610100900460ff166125825760405162461bcd60e51b815260040161081590614d7d565b61258a6124ae565b610f096000805160206153f28339815191523361203b565b600054610100900460ff166125c95760405162461bcd60e51b815260040161081590614d7d565b6102886125d68382614a20565b50610289610b3d8282614a20565b6125ec6132e6565b610129805460ff191660011790557f62e78cea01bee320cd4e420270b5ea74000d11b0c9f74754ebdbfc544b05a2586120b53390565b600061124e838361332d565b600881901c600090815260208390526040902054600160ff83161b16151592915050565b816001600160a01b0316836001600160a01b0316036126c55760405162461bcd60e51b815260206004820152602960248201527f455243313135353a2073657474696e6720617070726f76616c20737461747573604482015268103337b91039b2b63360b91b6064820152608401610815565b6001600160a01b03838116600081815260666020908152604080832094871680845294825291829020805460ff191686151590811790915591519182527f17307eab39ab6107e8899845ad3d59bd9653f200f220920489ca2b5937696c31910160405180910390a3505050565b600061084382613357565b600080808061274c8686613362565b909450925050505b9250929050565b600080808061274c868661338d565b6000610843825490565b6001600160a01b03841661279a5760405162461bcd60e51b815260040161081590614cee565b3360006127a685612ccf565b905060006127b385612ccf565b90506127c3838989858589612d1a565b60008681526065602090815260408083206001600160a01b038c168452909152902054858110156128065760405162461bcd60e51b815260040161081590614d33565b60008781526065602090815260408083206001600160a01b038d8116855292528083208985039055908a16825281208054889290612845908490614cdb565b909155505060408051888152602081018890526001600160a01b03808b16928c821692918816917fc3d58168c5ae7397731d063d5bbf3d657854427343f4c083240f7aacaa2d0f62910160405180910390a46128a5848a8a8a8a8a61313a565b505050505050505050565b6001600160a01b0383163314806128cc57506128cc8333610712565b610b325760405162461bcd60e51b8152600401610815906149d2565b6001600160a01b0381166000908152600183016020526040812054151561124e565b60006001600160e01b03198216637965db0b60e01b14806108435750610843826133c7565b61293982826115e5565b610ee65761294681613417565b612951836020613429565b604051602001612962929190614dc8565b60408051601f198184030181529082905262461bcd60e51b825261081591600401613cb4565b60606000610225612998866135c4565b6040516020016129a9929190614e3d565b6040516020818303038152906040529050836129c4866135c4565b84836040516020016129d99493929190614ec4565b6040516020818303038152906040529150509392505050565b60408051602081019091526000808252606091905b8351811015612b5457600060018551612a209190614fbc565b8214612a4557604051806040016040528060018152602001600b60fa1b815250612a56565b604051806020016040528060008152505b90506000858381518110612a6c57612a6c614842565b60200260200101516020015151600014612ac257858381518110612a9257612a92614842565b602002602001015160200151604051602001612aae9190614fcf565b604051602081830303815290604052612ad3565b604051806020016040528060008152505b9050600084878581518110612aea57612aea614842565b60200260200101516000015183898781518110612b0957612b09614842565b60200260200101516040015186604051602001612b2a959493929190615014565b60405160208183030381529060405290508094505050508080612b4c9061486e565b915050612a07565b5080604051602001612b6691906150d1565b604051602081830303815290604052915050919050565b60608151600003612b9c57505060408051602081019091526000815290565b600060405180606001604052806040815260200161531c6040913990506000600384516002612bcb9190614cdb565b612bd59190615113565b612be0906004615135565b6001600160401b03811115612bf757612bf7614002565b6040519080825280601f01601f191660200182016040528015612c21576020820181803683370190505b509050600182016020820185865187015b80821015612c8d576003820191508151603f8160121c168501518453600184019350603f81600c1c168501518453600184019350603f8160061c168501518453600184019350603f8116850151845350600183019250612c32565b5050600386510660018114612ca95760028114612cbc57612cc4565b603d6001830353603d6002830353612cc4565b603d60018303535b509195945050505050565b60408051600180825281830190925260609160009190602080830190803683370190505090508281600081518110612d0957612d09614842565b602090810291909101015292915050565b612d226132e6565b82858560005b8351811015612e1357612d5f848281518110612d4657612d46614842565b602002602001015161025761262e90919063ffffffff16565b1580612d7257506001600160a01b038316155b80612d8457506001600160a01b038216155b80612da25750612da26000805160206153b2833981519152846115e5565b80612dc05750612dc06000805160206153b2833981519152836115e5565b612e015760405162461bcd60e51b8152602060048201526012602482015271151bdad95b881a5cc81cdbdd5b189bdd5b9960721b6044820152606401610815565b80612e0b8161486e565b915050612d28565b506128a5898989898989613656565b6001600160a01b0384163b156115a15760405163bc197c8160e01b81526001600160a01b0385169063bc197c8190612e66908990899088908890889060040161514c565b6020604051808303816000875af1925050508015612ea1575060408051601f3d908101601f19168201909252612e9e918101906151aa565b60015b612f4d57612ead6151c7565b806308c379a003612ee65750612ec16151e3565b80612ecc5750612ee8565b8060405162461bcd60e51b81526004016108159190613cb4565b505b60405162461bcd60e51b815260206004820152603460248201527f455243313135353a207472616e7366657220746f206e6f6e2d455243313135356044820152732932b1b2b4bb32b91034b6b83632b6b2b73a32b960611b6064820152608401610815565b6001600160e01b0319811663bc197c8160e01b14610bfb5760405162461bcd60e51b81526004016108159061526c565b606081600001805480602002602001604051908101604052809291908181526020018280548015612fcd57602002820191906000526020600020905b815481526020019060010190808311612fb9575b50505050509050919050565b612fe382826115e5565b610ee65760008281526097602090815260408083206001600160a01b03851684529091529020805460ff1916600117905561301b3390565b6001600160a01b0316816001600160a01b0316837f2f8788117e7eff1d82e926ec794901d17c78024a50270940304540a733656f0d60405160405180910390a45050565b600061124e836001600160a01b0384166138a9565b61307e82826115e5565b15610ee65760008281526097602090815260408083206001600160a01b0385168085529252808320805460ff1916905551339285917ff6391f5c32d9c69d2a47ea670b442974b53935d1edc7fd64eb21e047a839171b9190a45050565b600061124e836001600160a01b0384166138f8565b6101295460ff16610f095760405162461bcd60e51b815260206004820152601460248201527314185d5cd8589b194e881b9bdd081c185d5cd95960621b6044820152606401610815565b6001600160a01b0384163b156115a15760405163f23a6e6160e01b81526001600160a01b0385169063f23a6e619061317e90899089908890889088906004016152b4565b6020604051808303816000875af19250505080156131b9575060408051601f3d908101601f191682019092526131b6918101906151aa565b60015b6131c557612ead6151c7565b6001600160e01b0319811663f23a6e6160e01b14610bfb5760405162461bcd60e51b81526004016108159061526c565b600081815260028301602052604081205480151580613219575061321984846139eb565b61124e5760405162461bcd60e51b815260206004820152601e60248201527f456e756d657261626c654d61703a206e6f6e6578697374656e74206b657900006044820152606401610815565b6000828152600284016020526040812082905561188e84846139f7565b600054610100900460ff166132a95760405162461bcd60e51b815260040161081590614d7d565b6114f281613a03565b600054610100900460ff166132d95760405162461bcd60e51b815260040161081590614d7d565b610129805460ff19169055565b6101295460ff1615610f095760405162461bcd60e51b815260206004820152601060248201526f14185d5cd8589b194e881c185d5cd95960821b6044820152606401610815565b600082600001828154811061334457613344614842565b9060005260206000200154905092915050565b60006108438261276a565b600080806133708585612622565b600081815260029690960160205260409095205494959350505050565b60008181526002830160205260408120548190806133bc576133af85856139eb565b9250600091506127549050565b600192509050612754565b60006001600160e01b03198216636cdb3d1360e11b14806133f857506001600160e01b031982166303a24d0760e21b145b8061084357506301ffc9a760e01b6001600160e01b0319831614610843565b60606108436001600160a01b03831660145b60606000613438836002615135565b613443906002614cdb565b6001600160401b0381111561345a5761345a614002565b6040519080825280601f01601f191660200182016040528015613484576020820181803683370190505b509050600360fc1b8160008151811061349f5761349f614842565b60200101906001600160f81b031916908160001a905350600f60fb1b816001815181106134ce576134ce614842565b60200101906001600160f81b031916908160001a90535060006134f2846002615135565b6134fd906001614cdb565b90505b6001811115613575576f181899199a1a9b1b9c1cb0b131b232b360811b85600f166010811061353157613531614842565b1a60f81b82828151811061354757613547614842565b60200101906001600160f81b031916908160001a90535060049490941c9361356e816152ee565b9050613500565b50831561124e5760405162461bcd60e51b815260206004820181905260248201527f537472696e67733a20686578206c656e67746820696e73756666696369656e746044820152606401610815565b606060006135d183613a0f565b60010190506000816001600160401b038111156135f0576135f0614002565b6040519080825280601f01601f19166020018201604052801561361a576020820181803683370190505b5090508181016020015b600019016f181899199a1a9b1b9c1cb0b131b232b360811b600a86061a8153600a850494508461362457509392505050565b6001600160a01b0385166137075760005b83518110156137055760006136a085838151811061368757613687614842565b602002602001015161018d61275b90919063ffffffff16565b9050809150506136f28583815181106136bb576136bb614842565b60200260200101518584815181106136d5576136d5614842565b6020026020010151836136e89190614cdb565b61018d919061236c565b5050806136fe9061486e565b9050613667565b505b6001600160a01b03841661381a5760005b835181101561381857600084828151811061373557613735614842565b60200260200101519050600084838151811061375357613753614842565b6020026020010151905060006137748361018d61236090919063ffffffff16565b9050818110156137d75760405162461bcd60e51b815260206004820152602860248201527f455243313135353a206275726e20616d6f756e74206578636565647320746f74604482015267616c537570706c7960c01b6064820152608401610815565b8181036000036137f3576137ed61018d84613ae7565b50613804565b61380261018d8484840361236c565b505b505050806138119061486e565b9050613718565b505b60005b8351811015613896576138638685838151811061383c5761383c614842565b602002602001015185848151811061385657613856614842565b6020026020010151613af3565b6138868585838151811061387957613879614842565b6020026020010151613b48565b61388f8161486e565b905061381d565b506138a085613b8a565b6115a184613b8a565b60008181526001830160205260408120546138f057508154600181810184556000848152602080822090930184905584548482528286019093526040902091909155610843565b506000610843565b600081815260018301602052604081205480156139e157600061391c600183614fbc565b855490915060009061393090600190614fbc565b905081811461399557600086600001828154811061395057613950614842565b906000526020600020015490508087600001848154811061397357613973614842565b6000918252602080832090910192909255918252600188019052604090208390555b85548690806139a6576139a6615305565b600190038181906000526020600020016000905590558560010160008681526020019081526020016000206000905560019350505050610843565b6000915050610843565b600061124e8383613bae565b600061124e83836138a9565b6067610ee68282614a20565b60008072184f03e93ff9f4daa797ed6e38ed64bf6a1f0160401b8310613a4e5772184f03e93ff9f4daa797ed6e38ed64bf6a1f0160401b830492506040015b6d04ee2d6d415b85acef81000000008310613a7a576d04ee2d6d415b85acef8100000000830492506020015b662386f26fc100008310613a9857662386f26fc10000830492506010015b6305f5e1008310613ab0576305f5e100830492506008015b6127108310613ac457612710830492506004015b60648310613ad6576064830492506002015b600a83106108435760010192915050565b600061124e8383613bc6565b6001600160a01b038316613b0657505050565b6000613b1284846107ae565b9050613b1e8282614fbc565b60000361122f576001600160a01b038416600090815261019260205260409020610e409084613bdf565b6001600160a01b038216613b5a575050565b6001600160a01b038216600090815261019260205260409020613b7d90826139f7565b50610b3d6101908361305f565b6060613b95826110c4565b508051909150600003610ee657610b3d610190836130db565b6000818152600183016020526040812054151561124e565b6000818152600283016020526040812081905561124e83835b600061124e83836138f8565b80356001600160a01b0381168114613c0257600080fd5b919050565b60008060408385031215613c1a57600080fd5b613c2383613beb565b946020939093013593505050565b6001600160e01b0319811681146114f257600080fd5b600060208284031215613c5957600080fd5b813561124e81613c31565b60005b83811015613c7f578181015183820152602001613c67565b50506000910152565b60008151808452613ca0816020860160208601613c64565b601f01601f19169290920160200192915050565b60208152600061124e6020830184613c88565b600060208284031215613cd957600080fd5b61124e82613beb565b600060208284031215613cf457600080fd5b5035919050565b600080600060608486031215613d1057600080fd5b613d1984613beb565b95602085013595506040909401359392505050565b60008083601f840112613d4057600080fd5b5081356001600160401b03811115613d5757600080fd5b6020830191508360208260051b850101111561275457600080fd5b60008083601f840112613d8457600080fd5b5081356001600160401b03811115613d9b57600080fd5b60208301915083602082850101111561275457600080fd5b60008060008060008060006080888a031215613dce57600080fd5b613dd788613beb565b965060208801356001600160401b0380821115613df357600080fd5b613dff8b838c01613d2e565b909850965060408a0135915080821115613e1857600080fd5b613e248b838c01613d2e565b909650945060608a0135915080821115613e3d57600080fd5b50613e4a8a828b01613d72565b989b979a50959850939692959293505050565b600081518084526020808501945080840160005b83811015613e965781516001600160a01b031687529582019590820190600101613e71565b509495945050505050565b600081518084526020808501945080840160005b83811015613e9657815187529582019590820190600101613eb5565b600081518084526020808501808196508360051b8101915082860160005b85811015613f19578284038952613f07848351613ea1565b98850198935090840190600101613eef565b5091979650505050505050565b606081526000613f396060830186613e5d565b8281036020840152613f4b8186613ed1565b90508281036040840152613f5f8185613ed1565b9695505050505050565b60008060008060008060608789031215613f8257600080fd5b86356001600160401b0380821115613f9957600080fd5b613fa58a838b01613d2e565b90985096506020890135915080821115613fbe57600080fd5b613fca8a838b01613d2e565b90965094506040890135915080821115613fe357600080fd5b50613ff089828a01613d2e565b979a9699509497509295939492505050565b634e487b7160e01b600052604160045260246000fd5b601f8201601f191681016001600160401b038111828210171561403d5761403d614002565b6040525050565b60006001600160401b0382111561405d5761405d614002565b5060051b60200190565b600082601f83011261407857600080fd5b8135602061408582614044565b6040516140928282614018565b83815260059390931b85018201928281019150868411156140b257600080fd5b8286015b848110156140cd57803583529183019183016140b6565b509695505050505050565b600082601f8301126140e957600080fd5b81356001600160401b0381111561410257614102614002565b604051614119601f8301601f191660200182614018565b81815284602083860101111561412e57600080fd5b816020850160208301376000918101602001919091529392505050565b600080600080600060a0868803121561416357600080fd5b61416c86613beb565b945061417a60208701613beb565b935060408601356001600160401b038082111561419657600080fd5b6141a289838a01614067565b945060608801359150808211156141b857600080fd5b6141c489838a01614067565b935060808801359150808211156141da57600080fd5b506141e7888289016140d8565b9150509295509295909350565b6000806040838503121561420757600080fd5b8235915061421760208401613beb565b90509250929050565b6000806040838503121561423357600080fd5b82356001600160401b038082111561424a57600080fd5b818501915085601f83011261425e57600080fd5b8135602061426b82614044565b6040516142788282614018565b83815260059390931b850182019282810191508984111561429857600080fd5b948201945b838610156142bd576142ae86613beb565b8252948201949082019061429d565b965050860135925050808211156142d357600080fd5b506142e085828601614067565b9150509250929050565b60208152600061124e6020830184613ea1565b60008060006060848603121561431257600080fd5b833592506020840135915060408401356001600160401b0381111561433657600080fd5b614342868287016140d8565b9150509250925092565b60408152600061435f6040830185613ea1565b8281036020840152610b128185613ea1565b60008060006060848603121561438657600080fd5b61438f84613beb565b925060208401356001600160401b03808211156143ab57600080fd5b6143b787838801614067565b935060408601359150808211156143cd57600080fd5b5061434286828701614067565b600080602083850312156143ed57600080fd5b82356001600160401b0381111561440357600080fd5b61440f85828601613d72565b90969095509350505050565b60006020828403121561442d57600080fd5b81356001600160401b0381111561444357600080fd5b61188e84828501614067565b600081518084526020808501808196508360051b8101915082860160005b85811015613f19578284038952614485848351613c88565b9885019893509084019060010161446d565b60208152600061124e602083018461444f565b600080600080608085870312156144c057600080fd5b6144c985613beb565b9350602085013592506040850135915060608501356001600160401b038111156144f257600080fd5b6144fe878288016140d8565b91505092959194509250565b6000806040838503121561451d57600080fd5b50508035926020909101359150565b60008060006060848603121561454157600080fd5b8335925060208401356001600160401b03808211156143ab57600080fd5b60008060008060006060868803121561457757600080fd5b8535945060208601356001600160401b038082111561459557600080fd5b6145a189838a01613d2e565b909650945060408801359150808211156145ba57600080fd5b506145c788828901613d2e565b969995985093965092949392505050565b600080604083850312156145eb57600080fd5b8235915060208301356001600160401b0381111561460857600080fd5b6142e085828601614067565b6000806040838503121561462757600080fd5b61463083613beb565b91506020830135801515811461464557600080fd5b809150509250929050565b60208152600061124e6020830184613e5d565b60008060006060848603121561467857600080fd5b833592506020808501356001600160401b038082111561469757600080fd5b6146a388838901614067565b945060408701359150808211156146b957600080fd5b818701915087601f8301126146cd57600080fd5b81356146d881614044565b6040516146e58282614018565b82815260059290921b840185019185810191508a83111561470557600080fd5b8585015b8381101561473d578035858111156147215760008081fd5b61472f8d89838a01016140d8565b845250918601918601614709565b508096505050505050509250925092565b6000806040838503121561476157600080fd5b61476a83613beb565b915061421760208401613beb565b600080600080600060a0868803121561479057600080fd5b61479986613beb565b94506147a760208701613beb565b9350604086013592506060860135915060808601356001600160401b038111156147d057600080fd5b6141e7888289016140d8565b6000806000606084860312156147f157600080fd5b505081359360208301359350604090920135919050565b600181811c9082168061481c57607f821691505b60208210810361483c57634e487b7160e01b600052602260045260246000fd5b50919050565b634e487b7160e01b600052603260045260246000fd5b634e487b7160e01b600052601160045260246000fd5b60006001820161488057614880614858565b5060010190565b6000808335601e1984360301811261489e57600080fd5b8301803591506001600160401b038211156148b857600080fd5b60200191503681900382131561275457600080fd5b601f821115610b3d57600081815260208120601f850160051c810160208610156148f45750805b601f850160051c820191505b818110156115a157828155600101614900565b6001600160401b0383111561492a5761492a614002565b61493e836149388354614808565b836148cd565b6000601f841160018114614972576000851561495a5750838201355b600019600387901b1c1916600186901b178355610e40565b600083815260209020601f19861690835b828110156149a35786850135825560209485019460019092019101614983565b50868210156149c05760001960f88860031b161c19848701351681555b505060018560011b0183555050505050565b6020808252602e908201527f455243313135353a2063616c6c6572206973206e6f7420746f6b656e206f776e60408201526d195c881bdc88185c1c1c9bdd995960921b606082015260800190565b81516001600160401b03811115614a3957614a39614002565b614a4d81614a478454614808565b846148cd565b602080601f831160018114614a825760008415614a6a5750858301515b600019600386901b1c1916600185901b1785556115a1565b600085815260208120601f198616915b82811015614ab157888601518255948401946001909101908401614a92565b5085821015614acf5787850151600019600388901b60f8161c191681555b5050505050600190811b01905550565b82815260406020820152600061188e6040830184613c88565b604081526000614b0b6040830185613ea1565b8281036020840152610b12818561444f565b60008151614b2f818560208601613c64565b9290920192915050565b607b60f81b815260008351614b55816001850160208801613c64565b835190830190614b6c816001840160208801613c64565b607d60f81b60019290910191820152600201949350505050565b7f646174613a6170706c69636174696f6e2f6a736f6e3b6261736536342c000000815260008251614bbe81601d850160208701613c64565b91909101601d0192915050565b60208082526023908201527f455243313135353a206275726e2066726f6d20746865207a65726f206164647260408201526265737360e81b606082015260800190565b60208082526024908201527f455243313135353a206275726e20616d6f756e7420657863656564732062616c604082015263616e636560e01b606082015260800190565b60208082526021908201527f455243313135353a206d696e7420746f20746865207a65726f206164647265736040820152607360f81b606082015260800190565b60208082526028908201527f455243313135353a2069647320616e6420616d6f756e7473206c656e677468206040820152670dad2e6dac2e8c6d60c31b606082015260800190565b8082018082111561084357610843614858565b60208082526025908201527f455243313135353a207472616e7366657220746f20746865207a65726f206164604082015264647265737360d81b606082015260800190565b6020808252602a908201527f455243313135353a20696e73756666696369656e742062616c616e636520666f60408201526939103a3930b739b332b960b11b606082015260800190565b6020808252602b908201527f496e697469616c697a61626c653a20636f6e7472616374206973206e6f74206960408201526a6e697469616c697a696e6760a81b606082015260800190565b7f416363657373436f6e74726f6c3a206163636f756e7420000000000000000000815260008351614e00816017850160208801613c64565b7001034b99036b4b9b9b4b733903937b6329607d1b6017918401918201528351614e31816028840160208801613c64565b01602801949350505050565b6000808454614e4b81614808565b60018281168015614e635760018114614e7857614ea7565b60ff1984168752821515830287019450614ea7565b8860005260208060002060005b85811015614e9e5781548a820152908401908201614e85565b50505082870194505b505050508351614ebb818360208801613c64565b01949350505050565b67113730b6b2911d1160c11b81528451600090614ee8816008850160208a01613c64565b61088b60f21b600891840191820181905269113a37b5b2b724b2111d60b11b600a8301528651614f1f816014850160208b01613c64565b600b60fa1b601493909101928301526e113232b9b1b934b83a34b7b7111d1160891b60158301528551614f59816024850160208a01613c64565b6024920191820152681134b6b0b3b2911d1160b91b6026820152614fb1614f94614f86602f840187614b1d565b61088b60f21b815260020190565b70089d1e5c19488e88915490cc4c4d4d488b607a1b815260110190565b979650505050505050565b8181038181111561084357610843614858565b6f113234b9b83630bcafba3cb832911d1160811b81528151600090614ffb816010850160208701613c64565b61088b60f21b6010939091019283015250601201919050565b60008651615026818460208b01613c64565b6e3d913a3930b4ba2fba3cb832911d1160891b908301908152865161505281600f840160208b01613c64565b61088b60f21b600f92909101918201528551615075816011840160208a01613c64565b68113b30b63ab2911d1160b91b60119290910191820152845161509f81601a840160208901613c64565b61227d60f01b601a929091019182015283516150c281601c840160208801613c64565b01601c01979650505050505050565b6d2261747472696275746573223a5b60901b815281516000906150fb81600e850160208701613c64565b605d60f81b600e939091019283015250600f01919050565b60008261513057634e487b7160e01b600052601260045260246000fd5b500490565b808202811582820484141761084357610843614858565b6001600160a01b0386811682528516602082015260a06040820181905260009061517890830186613ea1565b828103606084015261518a8186613ea1565b9050828103608084015261519e8185613c88565b98975050505050505050565b6000602082840312156151bc57600080fd5b815161124e81613c31565b600060033d11156151e05760046000803e5060005160e01c5b90565b600060443d10156151f15790565b6040516003193d81016004833e81513d6001600160401b03816024840111818411171561522057505050505090565b82850191508151818111156152385750505050505090565b843d87010160208285010111156152525750505050505090565b61526160208286010187614018565b509095945050505050565b60208082526028908201527f455243313135353a204552433131353552656365697665722072656a656374656040820152676420746f6b656e7360c01b606082015260800190565b6001600160a01b03868116825285166020820152604081018490526060810183905260a060808201819052600090614fb190830184613c88565b6000816152fd576152fd614858565b506000190190565b634e487b7160e01b600052603160045260246000fdfe4142434445464748494a4b4c4d4e4f505152535455565758595a6162636465666768696a6b6c6d6e6f707172737475767778797a303132333435363738392b2f68747470733a2f2f696d616765732e636f736d6963756e6976657273652e696f2f636f736d69632d7261772d7265736f75726365732f9f2df0fed2c77648de5860a4cc508cd0818c85b8b8a1ab4ceeef8d981c8956a6f01ee2eb8c5679535f9dfef3543570e280865ec756856c5772fe3e6718c5c074a49807205ce4d355092ef5a8a18f56e8913cf4a201fbe287825b095693c21775364d3d7565c7a8300c96fd53e065d19b65848d7b23b3191adcd55621c744223ca2646970667358221220963c832b807ad7083ea77b9c2600856855756a2590c1cf5177a08fd41ef1192764736f6c63430008110033",
  "linkReferences": {},
  "deployedLinkReferences": {}
}