{
  "_format": "hh-sol-artifact-1",
  "contractName": "CosmicRawResources",
  "sourceName": "contracts/upgradeable/ERC1155/CosmicRawResources.sol",
  "abi": [
    {
      "inputs": [],
      "stateMutability": "nonpayable",
      "type": "constructor"
    },
    {
      "anonymous": false,
      "inputs": [
        {
          "indexed": true,
          "internalType": "address",
          "name": "account",
          "type": "address"
        },
        {
          "indexed": true,
          "internalType": "address",
          "name": "operator",
          "type": "address"
        },
        {
          "indexed": false,
          "internalType": "bool",
          "name": "approved",
          "type": "bool"
        }
      ],
      "name": "ApprovalForAll",
      "type": "event"
    },
    {
      "anonymous": false,
      "inputs": [
        {
          "indexed": false,
          "internalType": "uint8",
          "name": "version",
          "type": "uint8"
        }
      ],
      "name": "Initialized",
      "type": "event"
    },
    {
      "anonymous": false,
      "inputs": [
        {
          "indexed": true,
          "internalType": "uint256",
          "name": "tokenId",
          "type": "uint256"
        },
        {
          "indexed": false,
          "internalType": "uint256",
          "name": "attributeId",
          "type": "uint256"
        },
        {
          "indexed": false,
          "internalType": "string",
          "name": "name",
          "type": "string"
        }
      ],
      "name": "NameUpdated",
      "type": "event"
    },
    {
      "anonymous": false,
      "inputs": [
        {
          "indexed": true,
          "internalType": "uint256",
          "name": "tokenId",
          "type": "uint256"
        },
        {
          "indexed": false,
          "internalType": "uint256[]",
          "name": "attributeIds",
          "type": "uint256[]"
        },
        {
          "indexed": false,
          "internalType": "string[]",
          "name": "names",
          "type": "string[]"
        }
      ],
      "name": "NamesUpdated",
      "type": "event"
    },
    {
      "anonymous": false,
      "inputs": [
        {
          "indexed": false,
          "internalType": "address",
          "name": "account",
          "type": "address"
        }
      ],
      "name": "Paused",
      "type": "event"
    },
    {
      "anonymous": false,
      "inputs": [
        {
          "indexed": true,
          "internalType": "bytes32",
          "name": "role",
          "type": "bytes32"
        },
        {
          "indexed": true,
          "internalType": "bytes32",
          "name": "previousAdminRole",
          "type": "bytes32"
        },
        {
          "indexed": true,
          "internalType": "bytes32",
          "name": "newAdminRole",
          "type": "bytes32"
        }
      ],
      "name": "RoleAdminChanged",
      "type": "event"
    },
    {
      "anonymous": false,
      "inputs": [
        {
          "indexed": true,
          "internalType": "bytes32",
          "name": "role",
          "type": "bytes32"
        },
        {
          "indexed": true,
          "internalType": "address",
          "name": "account",
          "type": "address"
        },
        {
          "indexed": true,
          "internalType": "address",
          "name": "sender",
          "type": "address"
        }
      ],
      "name": "RoleGranted",
      "type": "event"
    },
    {
      "anonymous": false,
      "inputs": [
        {
          "indexed": true,
          "internalType": "bytes32",
          "name": "role",
          "type": "bytes32"
        },
        {
          "indexed": true,
          "internalType": "address",
          "name": "account",
          "type": "address"
        },
        {
          "indexed": true,
          "internalType": "address",
          "name": "sender",
          "type": "address"
        }
      ],
      "name": "RoleRevoked",
      "type": "event"
    },
    {
      "anonymous": false,
      "inputs": [
        {
          "indexed": true,
          "internalType": "address",
          "name": "operator",
          "type": "address"
        },
        {
          "indexed": true,
          "internalType": "address",
          "name": "from",
          "type": "address"
        },
        {
          "indexed": true,
          "internalType": "address",
          "name": "to",
          "type": "address"
        },
        {
          "indexed": false,
          "internalType": "uint256[]",
          "name": "ids",
          "type": "uint256[]"
        },
        {
          "indexed": false,
          "internalType": "uint256[]",
          "name": "values",
          "type": "uint256[]"
        }
      ],
      "name": "TransferBatch",
      "type": "event"
    },
    {
      "anonymous": false,
      "inputs": [
        {
          "indexed": true,
          "internalType": "address",
          "name": "operator",
          "type": "address"
        },
        {
          "indexed": true,
          "internalType": "address",
          "name": "from",
          "type": "address"
        },
        {
          "indexed": true,
          "internalType": "address",
          "name": "to",
          "type": "address"
        },
        {
          "indexed": false,
          "internalType": "uint256",
          "name": "id",
          "type": "uint256"
        },
        {
          "indexed": false,
          "internalType": "uint256",
          "name": "value",
          "type": "uint256"
        }
      ],
      "name": "TransferSingle",
      "type": "event"
    },
    {
      "anonymous": false,
      "inputs": [
        {
          "indexed": false,
          "internalType": "string",
          "name": "value",
          "type": "string"
        },
        {
          "indexed": true,
          "internalType": "uint256",
          "name": "id",
          "type": "uint256"
        }
      ],
      "name": "URI",
      "type": "event"
    },
    {
      "anonymous": false,
      "inputs": [
        {
          "indexed": false,
          "internalType": "address",
          "name": "account",
          "type": "address"
        }
      ],
      "name": "Unpaused",
      "type": "event"
    },
    {
      "anonymous": false,
      "inputs": [
        {
          "indexed": true,
          "internalType": "uint256",
          "name": "tokenId",
          "type": "uint256"
        },
        {
          "indexed": false,
          "internalType": "uint256",
          "name": "attributeId",
          "type": "uint256"
        },
        {
          "indexed": false,
          "internalType": "uint256",
          "name": "value",
          "type": "uint256"
        }
      ],
      "name": "ValueUpdated",
      "type": "event"
    },
    {
      "anonymous": false,
      "inputs": [
        {
          "indexed": true,
          "internalType": "uint256",
          "name": "tokenId",
          "type": "uint256"
        },
        {
          "indexed": false,
          "internalType": "uint256[]",
          "name": "attributeIds",
          "type": "uint256[]"
        },
        {
          "indexed": false,
          "internalType": "uint256[]",
          "name": "values",
          "type": "uint256[]"
        }
      ],
      "name": "ValuesUpdated",
      "type": "event"
    },
    {
      "inputs": [],
      "name": "CONTRACT_ROLE",
      "outputs": [
        {
          "internalType": "bytes32",
          "name": "",
          "type": "bytes32"
        }
      ],
      "stateMutability": "view",
      "type": "function"
    },
    {
      "inputs": [],
      "name": "DEFAULT_ADMIN_ROLE",
      "outputs": [
        {
          "internalType": "bytes32",
          "name": "",
          "type": "bytes32"
        }
      ],
      "stateMutability": "view",
      "type": "function"
    },
    {
      "inputs": [],
      "name": "SOULBOUND_WHITELIST_ROLE",
      "outputs": [
        {
          "internalType": "bytes32",
          "name": "",
          "type": "bytes32"
        }
      ],
      "stateMutability": "view",
      "type": "function"
    },
    {
      "inputs": [],
      "name": "activeIds",
      "outputs": [
        {
          "internalType": "uint256[]",
          "name": "",
          "type": "uint256[]"
        }
      ],
      "stateMutability": "view",
      "type": "function"
    },
    {
      "inputs": [
        {
          "internalType": "address",
          "name": "account",
          "type": "address"
        },
        {
          "internalType": "uint256",
          "name": "id",
          "type": "uint256"
        }
      ],
      "name": "balanceOf",
      "outputs": [
        {
          "internalType": "uint256",
          "name": "",
          "type": "uint256"
        }
      ],
      "stateMutability": "view",
      "type": "function"
    },
    {
      "inputs": [],
      "name": "balanceOfAll",
      "outputs": [
        {
          "internalType": "address[]",
          "name": "owners",
          "type": "address[]"
        },
        {
          "internalType": "uint256[][]",
          "name": "tokenIds",
          "type": "uint256[][]"
        },
        {
          "internalType": "uint256[][]",
          "name": "balances",
          "type": "uint256[][]"
        }
      ],
      "stateMutability": "view",
      "type": "function"
    },
    {
      "inputs": [
        {
          "internalType": "address[]",
          "name": "accounts",
          "type": "address[]"
        },
        {
          "internalType": "uint256[]",
          "name": "ids",
          "type": "uint256[]"
        }
      ],
      "name": "balanceOfBatch",
      "outputs": [
        {
          "internalType": "uint256[]",
          "name": "",
          "type": "uint256[]"
        }
      ],
      "stateMutability": "view",
      "type": "function"
    },
    {
      "inputs": [
        {
          "internalType": "uint256",
          "name": "tokenId",
          "type": "uint256"
        },
        {
          "internalType": "uint256[]",
          "name": "attributeIds",
          "type": "uint256[]"
        }
      ],
      "name": "batchGetAttribute",
      "outputs": [
        {
          "internalType": "uint256[]",
          "name": "",
          "type": "uint256[]"
        }
      ],
      "stateMutability": "view",
      "type": "function"
    },
    {
      "inputs": [
        {
          "internalType": "uint256",
          "name": "tokenId",
          "type": "uint256"
        },
        {
          "internalType": "uint256[]",
          "name": "attributeIds",
          "type": "uint256[]"
        },
        {
          "internalType": "uint256[]",
          "name": "values",
          "type": "uint256[]"
        }
      ],
      "name": "batchSetAttribute",
      "outputs": [],
      "stateMutability": "nonpayable",
      "type": "function"
    },
    {
      "inputs": [
        {
          "internalType": "uint256",
          "name": "tokenId",
          "type": "uint256"
        },
        {
          "internalType": "uint256[]",
          "name": "attributeIds",
          "type": "uint256[]"
        },
        {
          "internalType": "string[]",
          "name": "names",
          "type": "string[]"
        }
      ],
      "name": "batchSetAttributeName",
      "outputs": [],
      "stateMutability": "nonpayable",
      "type": "function"
    },
    {
      "inputs": [
        {
          "internalType": "uint256[]",
          "name": "tokenIds",
          "type": "uint256[]"
        },
        {
          "internalType": "uint256[]",
          "name": "attributeIds",
          "type": "uint256[]"
        },
        {
          "internalType": "string[]",
          "name": "names",
          "type": "string[]"
        }
      ],
      "name": "batchSetAttributeNames",
      "outputs": [],
      "stateMutability": "nonpayable",
      "type": "function"
    },
    {
      "inputs": [
        {
          "internalType": "uint256[]",
          "name": "tokenIds",
          "type": "uint256[]"
        }
      ],
      "name": "batchTokenURI",
      "outputs": [
        {
          "internalType": "string[]",
          "name": "",
          "type": "string[]"
        }
      ],
      "stateMutability": "view",
      "type": "function"
    },
    {
      "inputs": [
        {
          "internalType": "uint256[]",
          "name": "tokenIds",
          "type": "uint256[]"
        }
      ],
      "name": "batchUri",
      "outputs": [
        {
          "internalType": "string[]",
          "name": "",
          "type": "string[]"
        }
      ],
      "stateMutability": "view",
      "type": "function"
    },
    {
      "inputs": [],
      "name": "bridgeContract",
      "outputs": [
        {
          "internalType": "address",
          "name": "",
          "type": "address"
        }
      ],
      "stateMutability": "view",
      "type": "function"
    },
    {
      "inputs": [
        {
          "internalType": "uint256",
          "name": "id",
          "type": "uint256"
        },
        {
          "internalType": "uint256",
          "name": "amount",
          "type": "uint256"
        }
      ],
      "name": "bridgeExtraData",
      "outputs": [
        {
          "internalType": "bytes",
          "name": "",
          "type": "bytes"
        }
      ],
      "stateMutability": "nonpayable",
      "type": "function"
    },
    {
      "inputs": [
        {
          "internalType": "address",
          "name": "account",
          "type": "address"
        },
        {
          "internalType": "uint256",
          "name": "id",
          "type": "uint256"
        },
        {
          "internalType": "uint256",
          "name": "amount",
          "type": "uint256"
        }
      ],
      "name": "burn",
      "outputs": [],
      "stateMutability": "nonpayable",
      "type": "function"
    },
    {
      "inputs": [
        {
          "internalType": "address",
          "name": "from",
          "type": "address"
        },
        {
          "internalType": "uint256[]",
          "name": "ids",
          "type": "uint256[]"
        },
        {
          "internalType": "uint256[]",
          "name": "amounts",
          "type": "uint256[]"
        }
      ],
      "name": "burnBatch",
      "outputs": [],
      "stateMutability": "nonpayable",
      "type": "function"
    },
    {
      "inputs": [
        {
          "internalType": "uint256",
          "name": "id",
          "type": "uint256"
        }
      ],
      "name": "exists",
      "outputs": [
        {
          "internalType": "bool",
          "name": "",
          "type": "bool"
        }
      ],
      "stateMutability": "view",
      "type": "function"
    },
    {
      "inputs": [
        {
          "internalType": "uint256",
          "name": "tokenId",
          "type": "uint256"
        },
        {
          "internalType": "uint256",
          "name": "attributeId",
          "type": "uint256"
        }
      ],
      "name": "getAttribute",
      "outputs": [
        {
          "internalType": "uint256",
          "name": "",
          "type": "uint256"
        }
      ],
      "stateMutability": "view",
      "type": "function"
    },
    {
      "inputs": [],
      "name": "getBlacklisted",
      "outputs": [
        {
          "internalType": "address[]",
          "name": "",
          "type": "address[]"
        }
      ],
      "stateMutability": "view",
      "type": "function"
    },
    {
      "inputs": [
        {
          "internalType": "bytes32",
          "name": "role",
          "type": "bytes32"
        }
      ],
      "name": "getRoleAdmin",
      "outputs": [
        {
          "internalType": "bytes32",
          "name": "",
          "type": "bytes32"
        }
      ],
      "stateMutability": "view",
      "type": "function"
    },
    {
      "inputs": [
        {
          "internalType": "bytes32",
          "name": "role",
          "type": "bytes32"
        },
        {
          "internalType": "uint256",
          "name": "index",
          "type": "uint256"
        }
      ],
      "name": "getRoleMember",
      "outputs": [
        {
          "internalType": "address",
          "name": "",
          "type": "address"
        }
      ],
      "stateMutability": "view",
      "type": "function"
    },
    {
      "inputs": [
        {
          "internalType": "bytes32",
          "name": "role",
          "type": "bytes32"
        }
      ],
      "name": "getRoleMemberCount",
      "outputs": [
        {
          "internalType": "uint256",
          "name": "",
          "type": "uint256"
        }
      ],
      "stateMutability": "view",
      "type": "function"
    },
    {
      "inputs": [
        {
          "internalType": "bytes32",
          "name": "role",
          "type": "bytes32"
        },
        {
          "internalType": "address",
          "name": "account",
          "type": "address"
        }
      ],
      "name": "grantRole",
      "outputs": [],
      "stateMutability": "nonpayable",
      "type": "function"
    },
    {
      "inputs": [
        {
          "internalType": "bytes32",
          "name": "role",
          "type": "bytes32"
        },
        {
          "internalType": "address",
          "name": "account",
          "type": "address"
        }
      ],
      "name": "hasRole",
      "outputs": [
        {
          "internalType": "bool",
          "name": "",
          "type": "bool"
        }
      ],
      "stateMutability": "view",
      "type": "function"
    },
    {
      "inputs": [],
      "name": "imageBaseURI",
      "outputs": [
        {
          "internalType": "string",
          "name": "",
          "type": "string"
        }
      ],
      "stateMutability": "view",
      "type": "function"
    },
    {
      "inputs": [],
      "name": "initialize",
      "outputs": [],
      "stateMutability": "nonpayable",
      "type": "function"
    },
    {
      "inputs": [
        {
          "internalType": "address",
          "name": "account",
          "type": "address"
        },
        {
          "internalType": "address",
          "name": "operator",
          "type": "address"
        }
      ],
      "name": "isApprovedForAll",
      "outputs": [
        {
          "internalType": "bool",
          "name": "",
          "type": "bool"
        }
      ],
      "stateMutability": "view",
      "type": "function"
    },
    {
      "inputs": [
        {
          "internalType": "address",
          "name": "user",
          "type": "address"
        }
      ],
      "name": "isBlacklisted",
      "outputs": [
        {
          "internalType": "bool",
          "name": "",
          "type": "bool"
        }
      ],
      "stateMutability": "view",
      "type": "function"
    },
    {
      "inputs": [
        {
          "internalType": "uint256",
          "name": "tokenId",
          "type": "uint256"
        }
      ],
      "name": "isSoulbound",
      "outputs": [
        {
          "internalType": "bool",
          "name": "",
          "type": "bool"
        }
      ],
      "stateMutability": "view",
      "type": "function"
    },
    {
      "inputs": [
        {
          "internalType": "address",
          "name": "account",
          "type": "address"
        },
        {
          "internalType": "uint256",
          "name": "id",
          "type": "uint256"
        },
        {
          "internalType": "uint256",
          "name": "amount",
          "type": "uint256"
        },
        {
          "internalType": "bytes",
          "name": "data",
          "type": "bytes"
        }
      ],
      "name": "mint",
      "outputs": [],
      "stateMutability": "nonpayable",
      "type": "function"
    },
    {
      "inputs": [
        {
          "internalType": "address",
          "name": "to",
          "type": "address"
        },
        {
          "internalType": "uint256[]",
          "name": "ids",
          "type": "uint256[]"
        },
        {
          "internalType": "uint256[]",
          "name": "amounts",
          "type": "uint256[]"
        },
        {
          "internalType": "bytes",
          "name": "data",
          "type": "bytes"
        }
      ],
      "name": "mintBatch",
      "outputs": [],
      "stateMutability": "nonpayable",
      "type": "function"
    },
    {
      "inputs": [
        {
          "internalType": "uint256",
          "name": "id",
          "type": "uint256"
        },
        {
          "internalType": "address[]",
          "name": "to",
          "type": "address[]"
        },
        {
          "internalType": "uint256[]",
          "name": "amounts",
          "type": "uint256[]"
        }
      ],
      "name": "mintBatchOf",
      "outputs": [],
      "stateMutability": "nonpayable",
      "type": "function"
    },
    {
      "inputs": [],
      "name": "name",
      "outputs": [
        {
          "internalType": "string",
          "name": "",
          "type": "string"
        }
      ],
      "stateMutability": "view",
      "type": "function"
    },
    {
      "inputs": [],
      "name": "pause",
      "outputs": [],
      "stateMutability": "nonpayable",
      "type": "function"
    },
    {
      "inputs": [],
      "name": "paused",
      "outputs": [
        {
          "internalType": "bool",
          "name": "",
          "type": "bool"
        }
      ],
      "stateMutability": "view",
      "type": "function"
    },
    {
      "inputs": [
        {
          "internalType": "bytes32",
          "name": "role",
          "type": "bytes32"
        },
        {
          "internalType": "address",
          "name": "account",
          "type": "address"
        }
      ],
      "name": "renounceRole",
      "outputs": [],
      "stateMutability": "nonpayable",
      "type": "function"
    },
    {
      "inputs": [
        {
          "internalType": "bytes32",
          "name": "role",
          "type": "bytes32"
        },
        {
          "internalType": "address",
          "name": "account",
          "type": "address"
        }
      ],
      "name": "revokeRole",
      "outputs": [],
      "stateMutability": "nonpayable",
      "type": "function"
    },
    {
      "inputs": [
        {
          "internalType": "address",
          "name": "from",
          "type": "address"
        },
        {
          "internalType": "address",
          "name": "to",
          "type": "address"
        },
        {
          "internalType": "uint256[]",
          "name": "ids",
          "type": "uint256[]"
        },
        {
          "internalType": "uint256[]",
          "name": "amounts",
          "type": "uint256[]"
        },
        {
          "internalType": "bytes",
          "name": "data",
          "type": "bytes"
        }
      ],
      "name": "safeBatchTransferFrom",
      "outputs": [],
      "stateMutability": "nonpayable",
      "type": "function"
    },
    {
      "inputs": [
        {
          "internalType": "address",
          "name": "from",
          "type": "address"
        },
        {
          "internalType": "address",
          "name": "to",
          "type": "address"
        },
        {
          "internalType": "uint256",
          "name": "id",
          "type": "uint256"
        },
        {
          "internalType": "uint256",
          "name": "amount",
          "type": "uint256"
        },
        {
          "internalType": "bytes",
          "name": "data",
          "type": "bytes"
        }
      ],
      "name": "safeTransferFrom",
      "outputs": [],
      "stateMutability": "nonpayable",
      "type": "function"
    },
    {
      "inputs": [
        {
          "internalType": "address",
          "name": "operator",
          "type": "address"
        },
        {
          "internalType": "bool",
          "name": "approved",
          "type": "bool"
        }
      ],
      "name": "setApprovalForAll",
      "outputs": [],
      "stateMutability": "nonpayable",
      "type": "function"
    },
    {
      "inputs": [
        {
          "internalType": "uint256",
          "name": "tokenId",
          "type": "uint256"
        },
        {
          "internalType": "uint256",
          "name": "attributeId",
          "type": "uint256"
        },
        {
          "internalType": "uint256",
          "name": "value",
          "type": "uint256"
        }
      ],
      "name": "setAttribute",
      "outputs": [],
      "stateMutability": "nonpayable",
      "type": "function"
    },
    {
      "inputs": [
        {
          "internalType": "uint256",
          "name": "tokenId",
          "type": "uint256"
        },
        {
          "internalType": "uint256",
          "name": "attributeId",
          "type": "uint256"
        },
        {
          "internalType": "string",
          "name": "name",
          "type": "string"
        }
      ],
      "name": "setAttributeName",
      "outputs": [],
      "stateMutability": "nonpayable",
      "type": "function"
    },
    {
      "inputs": [
        {
          "internalType": "address",
          "name": "_bridgeContract",
          "type": "address"
        }
      ],
      "name": "setBridgeContract",
      "outputs": [],
      "stateMutability": "nonpayable",
      "type": "function"
    },
    {
      "inputs": [
        {
          "internalType": "string",
          "name": "_imageBaseURI",
          "type": "string"
        }
      ],
      "name": "setImageBaseURI",
      "outputs": [],
      "stateMutability": "nonpayable",
      "type": "function"
    },
    {
      "inputs": [
        {
          "internalType": "uint256",
          "name": "tokenId",
          "type": "uint256"
        }
      ],
      "name": "setSoulbound",
      "outputs": [],
      "stateMutability": "nonpayable",
      "type": "function"
    },
    {
      "inputs": [
        {
          "internalType": "bytes4",
          "name": "interfaceId",
          "type": "bytes4"
        }
      ],
      "name": "supportsInterface",
      "outputs": [
        {
          "internalType": "bool",
          "name": "",
          "type": "bool"
        }
      ],
      "stateMutability": "view",
      "type": "function"
    },
    {
      "inputs": [],
      "name": "symbol",
      "outputs": [
        {
          "internalType": "string",
          "name": "",
          "type": "string"
        }
      ],
      "stateMutability": "view",
      "type": "function"
    },
    {
      "inputs": [
        {
          "internalType": "address",
          "name": "owner",
          "type": "address"
        }
      ],
      "name": "tokensOf",
      "outputs": [
        {
          "internalType": "uint256[]",
          "name": "tokenIds",
          "type": "uint256[]"
        },
        {
          "internalType": "uint256[]",
          "name": "balances",
          "type": "uint256[]"
        }
      ],
      "stateMutability": "view",
      "type": "function"
    },
    {
      "inputs": [
        {
          "internalType": "uint256",
          "name": "id",
          "type": "uint256"
        }
      ],
      "name": "totalSupply",
      "outputs": [
        {
          "internalType": "uint256",
          "name": "",
          "type": "uint256"
        }
      ],
      "stateMutability": "view",
      "type": "function"
    },
    {
      "inputs": [],
      "name": "unpause",
      "outputs": [],
      "stateMutability": "nonpayable",
      "type": "function"
    },
    {
      "inputs": [
        {
          "internalType": "uint256",
          "name": "tokenId",
          "type": "uint256"
        }
      ],
      "name": "unsetSoulbound",
      "outputs": [],
      "stateMutability": "nonpayable",
      "type": "function"
    },
    {
      "inputs": [
        {
          "internalType": "uint256",
          "name": "tokenId",
          "type": "uint256"
        }
      ],
      "name": "uri",
      "outputs": [
        {
          "internalType": "string",
          "name": "",
          "type": "string"
        }
      ],
      "stateMutability": "view",
      "type": "function"
    }
  ],
  "bytecode": "0x60806040523480156200001157600080fd5b506200001c62000022565b620000e4565b600054610100900460ff16156200008f5760405162461bcd60e51b815260206004820152602760248201527f496e697469616c697a61626c653a20636f6e747261637420697320696e697469604482015266616c697a696e6760c81b606482015260840160405180910390fd5b60005460ff9081161015620000e2576000805460ff191660ff9081179091556040519081527f7f26b83ff96e1f2b6a682f133852f6798a09c465da95921460cefb38474024989060200160405180910390a15b565b61533080620000f46000396000f3fe608060405234801561001057600080fd5b50600436106103265760003560e01c80638129fc1c116101b8578063b198ce4611610104578063d547741f116100a2578063f5298aca1161007c578063f5298aca14610725578063fb95ac2d14610738578063fd5eea4e1461075a578063fe575a871461076d57600080fd5b8063d547741f146106c3578063e985e9c5146106d6578063f242432a1461071257600080fd5b8063ca15c873116100de578063ca15c87314610674578063cd59658314610687578063ce3675ad1461069b578063d179191a146106b057600080fd5b8063b198ce4614610646578063bd85b0391461064e578063c385ce251461066157600080fd5b806395d89b4111610171578063a17d79ec1161014b578063a17d79ec14610603578063a217fddf14610618578063a22cb46514610620578063b0fe60d51461063357600080fd5b806395d89b41146105d557806396c45e2f146105dd578063994a95be146105f057600080fd5b80638129fc1c146105615780638456cb591461056957806387be85d3146105715780639010d07c14610584578063911ec470146105af57806391d14854146105c257600080fd5b80633f4ba83a116102775780636b20c45411610230578063731133e91161020a578063731133e9146105205780637685945e1461053357806377645839146105465780637d7a6d131461054e57600080fd5b80636b20c454146104da5780636cfa24cc146104ed5780636d94f13a1461050057600080fd5b80633f4ba83a1461045f5780634e1273f4146104675780634f558e791461048757806358870da11461049a5780635a3f2672146104ad5780635c975abb146104ce57600080fd5b80631f7fdffa116102e4578063248a9ca3116102be578063248a9ca3146104035780632eb2c2d6146104265780632f2ff15d1461043957806336568abe1461044c57600080fd5b80631f7fdffa146103c6578063208e509f146103d957806321e5548c146103f057600080fd5b8062fdd58e1461032b57806301ffc9a71461035157806303fe46ab1461037457806306fdde03146103895780630b26cf661461039e5780630e89341c146103b3575b600080fd5b61033e610339366004613acb565b610780565b6040519081526020015b60405180910390f35b61036461035f366004613b0b565b61081b565b6040519015158152602001610348565b61033e6000805160206152db83398151915281565b610391610826565b6040516103489190613b78565b6103b16103ac366004613b8b565b6108b5565b005b6103916103c1366004613ba6565b6108ef565b6103b16103d4366004613c44565b610ad3565b6103e1610b95565b60405161034893929190613db7565b6103b16103fe366004613dfa565b610cc6565b61033e610411366004613ba6565b60009081526097602052604090206001015490565b6103b1610434366004613fdc565b610d8c565b6103b1610447366004614085565b610dd8565b6103b161045a366004614085565b610e02565b6103b1610e80565b61047a6104753660046140b1565b610ea1565b604051610348919061417b565b610364610495366004613ba6565b610fca565b6103b16104a836600461418e565b610fdd565b6104c06104bb366004613b8b565b61105a565b6040516103489291906141dd565b6101295460ff16610364565b6103b16104e8366004614202565b61111f565b6103b16104fb36600461426b565b611141565b61051361050e3660046142ac565b611197565b6040516103489190614328565b6103b161052e36600461433b565b6111a2565b61033e61054136600461439b565b6111cb565b6103916111eb565b6103b161055c3660046143bd565b6111f9565b6103b16112bd565b6103b161148b565b6103b161057f3660046143f0565b6114aa565b61059761059236600461439b565b61153f565b6040516001600160a01b039091168152602001610348565b6103646105bd366004613ba6565b611557565b6103646105d0366004614085565b61157b565b6103916115a6565b6103b16105eb366004613ba6565b6115b4565b61047a6105fe366004614469565b6115f1565b61033e60008051602061529b83398151915281565b61033e600081565b6103b161062e3660046144a5565b6116b4565b6105136106413660046142ac565b6116bf565b61047a611777565b61033e61065c366004613ba6565b611815565b6103b161066f366004613ba6565b61182c565b61033e610682366004613ba6565b611868565b6102ba54610597906001600160a01b031681565b6106a361187f565b60405161034891906144e1565b6103b16106be3660046144f4565b611891565b6103b16106d1366004614085565b61195f565b6103646106e43660046145df565b6001600160a01b03918216600090815260666020908152604080832093909416825291909152205460ff1690565b6103b1610720366004614609565b611984565b6103b161073336600461466d565b6119c9565b61039161074636600461439b565b505060408051602081019091526000815290565b6103b16107683660046146a0565b6119d4565b61036461077b366004613b8b565b611a3f565b60006001600160a01b0383166107f05760405162461bcd60e51b815260206004820152602a60248201527f455243313135353a2061646472657373207a65726f206973206e6f742061207660448201526930b634b21037bbb732b960b11b60648201526084015b60405180910390fd5b5060008181526065602090815260408083206001600160a01b03861684529091529020545b92915050565b600061081582611a4d565b6102888054610834906146cc565b80601f0160208091040260200160405190810160405280929190818152602001828054610860906146cc565b80156108ad5780601f10610882576101008083540402835291602001916108ad565b820191906000526020600020905b81548152906001019060200180831161089057829003601f168201915b505050505081565b6108cc6000805160206152bb833981519152611a72565b6102ba80546001600160a01b0319166001600160a01b0392909216919091179055565b606060006108ff836103e8611a7c565b9050600061090f846103e9611a7c565b6040805160038082526080820190925291925060009190816020015b61094f60405180606001604052806060815260200160608152602001606081525090565b81526020019060019003908161092b57905050905060405180606001604052806040518060400160405280600a815260200169283937b332b9b9b4b7b760b11b81525081526020016040518060200160405280600081525081526020016109b7876000611a7c565b815250816000815181106109cd576109cd614706565b60200260200101819052506040518060600160405280604051806040016040528060048152602001635479706560e01b8152508152602001604051806020016040528060008152508152602001610a25876001611a7c565b81525081600181518110610a3b57610a3b614706565b602002602001018190525060405180606001604052806040518060400160405280600681526020016552617269747960d01b8152508152602001604051806020016040528060008152508152602001610a95876002611a7c565b81525081600281518110610aab57610aab614706565b6020026020010181905250610aca610ac586858585611b2b565b611b77565b95945050505050565b610aea60008051602061527b833981519152611a72565b610b8c8787878080602002602001604051908101604052809392919081815260200183836020028082843760009201919091525050604080516020808b0282810182019093528a82529093508a92508991829185019084908082843760009201919091525050604080516020601f8a018190048102820181019092528881529250889150879081908401838280828437600092019190915250611ba892505050565b50505050505050565b6060806060610ba5610190611d03565b925082516001600160401b03811115610bc057610bc0613e93565b604051908082528060200260200182016040528015610bf357816020015b6060815260200190600190039081610bde5790505b50915082516001600160401b03811115610c0f57610c0f613e93565b604051908082528060200260200182016040528015610c4257816020015b6060815260200190600190039081610c2d5790505b50905060005b8351811015610cc057610c73848281518110610c6657610c66614706565b602002602001015161105a565b848381518110610c8557610c85614706565b60200260200101848481518110610c9e57610c9e614706565b6020026020010182905282905250508080610cb890614732565b915050610c48565b50909192565b6000805160206152db833981519152610cde81611a72565b60005b86811015610d8257838382818110610cfb57610cfb614706565b9050602002810190610d0d919061474b565b6101f560008b8b86818110610d2457610d24614706565b9050602002013581526020019081526020016000206000898986818110610d4d57610d4d614706565b9050602002013581526020019081526020016000209182610d6f9291906147d7565b5080610d7a81614732565b915050610ce1565b5050505050505050565b6001600160a01b038516331480610da85750610da885336106e4565b610dc45760405162461bcd60e51b81526004016107e790614896565b610dd18585858585611d10565b5050505050565b600082815260976020526040902060010154610df381611a72565b610dfd8383611eb5565b505050565b6001600160a01b0381163314610e725760405162461bcd60e51b815260206004820152602f60248201527f416363657373436f6e74726f6c3a2063616e206f6e6c792072656e6f756e636560448201526e103937b632b9903337b91039b2b63360891b60648201526084016107e7565b610e7c8282611ed7565b5050565b610e976000805160206152bb833981519152611a72565b610e9f611ef9565b565b60608151835114610f065760405162461bcd60e51b815260206004820152602960248201527f455243313135353a206163636f756e747320616e6420696473206c656e677468604482015268040dad2e6dac2e8c6d60bb1b60648201526084016107e7565b600083516001600160401b03811115610f2157610f21613e93565b604051908082528060200260200182016040528015610f4a578160200160208202803683370190505b50905060005b8451811015610fc257610f95858281518110610f6e57610f6e614706565b6020026020010151858381518110610f8857610f88614706565b6020026020010151610780565b828281518110610fa757610fa7614706565b6020908102919091010152610fbb81614732565b9050610f50565b509392505050565b600080610fd683611815565b1192915050565b6000805160206152db833981519152610ff581611a72565b60008481526101f560209081526040808320868452909152902061101983826148e5565b50837ffdbb964a9a1d2ac903ed7ebf85795be6728c27e96237552b2805596c759e0881848460405161104c9291906149a4565b60405180910390a250505050565b6001600160a01b038116600090815261019260205260409020606090819061108190611d03565b915081516001600160401b0381111561109c5761109c613e93565b6040519080825280602002602001820160405280156110c5578160200160208202803683370190505b50905060005b8251811015611119576110ea84848381518110610f8857610f88614706565b8282815181106110fc576110fc614706565b60209081029190910101528061111181614732565b9150506110cb565b50915091565b6111366000805160206152bb833981519152611a72565b610dfd838383611f4c565b6111586000805160206152bb833981519152611a72565b610e7c82828080601f0160208091040260200160405190810160405280939291908181526020018383808284376000920191909152506120eb92505050565b6060610815826116bf565b6111b960008051602061527b833981519152611a72565b6111c5848484846120f8565b50505050565b60008281526101f4602052604081206111e490836121da565b9392505050565b6102258054610834906146cc565b6000805160206152db83398151915261121181611a72565b60005b835181101561128a5761127784828151811061123257611232614706565b602002602001015184838151811061124c5761124c614706565b60200260200101516101f460008981526020019081526020016000206121e69092919063ffffffff16565b508061128281614732565b915050611214565b50837f383bcccfd5e9b61afe7e6832ca2201fe34d7766a9bbf90fb7152082ddbcd342b848460405161104c9291906141dd565b600054610100900460ff16158080156112dd5750600054600160ff909116105b806112f75750303b1580156112f7575060005460ff166001145b61135a5760405162461bcd60e51b815260206004820152602e60248201527f496e697469616c697a61626c653a20636f6e747261637420697320616c72656160448201526d191e481a5b9a5d1a585b1a5e995960921b60648201526084016107e7565b6000805460ff19166001179055801561137d576000805461ff0019166101001790555b611395604051806020016040528060008152506121f3565b61139d612223565b6113a56122cf565b6113ad6122fe565b6113b56122fe565b6113bd6122fe565b6113c5612325565b6113e660405180606001604052806036815260200161524560369139612384565b6113ee6123ab565b61144260405180604001604052806014815260200173436f736d696320526177205265736f757263657360601b8152506040518060400160405280600681526020016552415752455360d01b8152506123f2565b8015611488576000805461ff0019169055604051600181527f7f26b83ff96e1f2b6a682f133852f6798a09c465da95921460cefb38474024989060200160405180910390a15b50565b6114a26000805160206152bb833981519152611a72565b610e9f612434565b6114c160008051602061527b833981519152611a72565b60005b83811015611537576115258585838181106114e1576114e1614706565b90506020020160208101906114f69190613b8b565b8785858581811061150957611509614706565b90506020020135604051806020016040528060008152506120f8565b8061152f81614732565b9150506114c4565b505050505050565b600082815260c9602052604081206111e49083612472565b600881901c60009081526102576020526040812054600160ff84161b161515610815565b60009182526097602090815260408084206001600160a01b0393909316845291905290205460ff1690565b6102898054610834906146cc565b6000805160206152bb8339815191526115cc81611a72565b600882901c6000908152610257602052604090208054600160ff85161b191690555050565b6060600082516001600160401b0381111561160e5761160e613e93565b604051908082528060200260200182016040528015611637578160200160208202803683370190505b50905060005b8351811015610fc25761168584828151811061165b5761165b614706565b60200260200101516101f460008881526020019081526020016000206121da90919063ffffffff16565b82828151811061169757611697614706565b6020908102919091010152806116ac81614732565b91505061163d565b610e7c3383836124a2565b6060600082516001600160401b038111156116dc576116dc613e93565b60405190808252806020026020018201604052801561170f57816020015b60608152602001906001900390816116fa5790505b50905060005b83518110156117705761174084828151811061173357611733614706565b60200260200101516108ef565b82828151811061175257611752614706565b6020026020010181905250808061176890614732565b915050611715565b5092915050565b6060600061178661018d612582565b90506000816001600160401b038111156117a2576117a2613e93565b6040519080825280602002602001820160405280156117cb578160200160208202803683370190505b50905060005b82811015611770576117e561018d8261258d565b508282815181106117f8576117f8614706565b60209081029190910101528061180d81614732565b9150506117d1565b60008061182461018d846125ab565b949350505050565b6000805160206152bb83398151915261184481611a72565b600882901c6000908152610257602052604090208054600160ff85161b1790555050565b600081815260c960205260408120610815906125ba565b606061188c6101c1611d03565b905090565b6000805160206152db8339815191526118a981611a72565b60005b835181101561192c578281815181106118c7576118c7614706565b60200260200101516101f5600087815260200190815260200160002060008684815181106118f7576118f7614706565b60200260200101518152602001908152602001600020908161191991906148e5565b508061192481614732565b9150506118ac565b50837f9d69ed3cc764cf4f579cfc28312dded7bb202f17cc77aa4d0eb3f8bbaecd88e3848460405161104c9291906149bd565b60008281526097602052604090206001015461197a81611a72565b610dfd8383611ed7565b6001600160a01b0385163314806119a057506119a085336106e4565b6119bc5760405162461bcd60e51b81526004016107e790614896565b610dd185858585856125c4565b610dfd838383612700565b6000805160206152db8339815191526119ec81611a72565b60008481526101f460205260409020611a069084846121e6565b50604080518481526020810184905285917f5cb4c5f05283d5a84da3f9f1b0fe8b00d7ea8e1fb833812b52114799bdf1acc7910161104c565b60006108156101c183612743565b60006001600160e01b03198216635a05180f60e01b1480610815575061081582612765565b611488813361278a565b60008281526101f5602090815260408083208484529091529020805460609190611aa5906146cc565b80601f0160208091040260200160405190810160405280929190818152602001828054611ad1906146cc565b8015611b1e5780601f10611af357610100808354040283529160200191611b1e565b820191906000526020600020905b815481529060010190602001808311611b0157829003601f168201915b5050505050905092915050565b60606000611b3a8686866127ee565b90506000611b4784612858565b90508181604051602001611b5c9291906149fe565b60405160208183030381529060405292505050949350505050565b6060611b82826129e3565b604051602001611b929190614a4b565b6040516020818303038152906040529050919050565b6001600160a01b038416611bce5760405162461bcd60e51b81526004016107e790614a90565b8151835114611bef5760405162461bcd60e51b81526004016107e790614ad1565b33611bff81600087878787612b35565b60005b8451811015611c9b57838181518110611c1d57611c1d614706565b602002602001015160656000878481518110611c3b57611c3b614706565b602002602001015181526020019081526020016000206000886001600160a01b03166001600160a01b031681526020019081526020016000206000828254611c839190614b19565b90915550819050611c9381614732565b915050611c02565b50846001600160a01b031660006001600160a01b0316826001600160a01b03167f4a39dc06d4c0dbc64b70af90fd698a233a518aa5d07e595d983b8c0526c8f7fb8787604051611cec9291906141dd565b60405180910390a4610dd181600087878787612c3d565b606060006111e483612d98565b8151835114611d315760405162461bcd60e51b81526004016107e790614ad1565b6001600160a01b038416611d575760405162461bcd60e51b81526004016107e790614b2c565b33611d66818787878787612b35565b60005b8451811015611e4f576000858281518110611d8657611d86614706565b602002602001015190506000858381518110611da457611da4614706565b60209081029190910181015160008481526065835260408082206001600160a01b038e168352909352919091205490915081811015611df55760405162461bcd60e51b81526004016107e790614b71565b60008381526065602090815260408083206001600160a01b038e8116855292528083208585039055908b16825281208054849290611e34908490614b19565b9250508190555050505080611e4890614732565b9050611d69565b50846001600160a01b0316866001600160a01b0316826001600160a01b03167f4a39dc06d4c0dbc64b70af90fd698a233a518aa5d07e595d983b8c0526c8f7fb8787604051611e9f9291906141dd565b60405180910390a4611537818787878787612c3d565b611ebf8282612df4565b600082815260c960205260409020610dfd9082612e7a565b611ee18282612e8f565b600082815260c960205260409020610dfd9082612ef6565b611f01612f0b565b610129805460ff191690557f5db9ee0a495bf2e6ff9c91a7834c1ba4fdd244a5e8aa4e537bd38aeae4b073aa335b6040516001600160a01b03909116815260200160405180910390a1565b6001600160a01b038316611f725760405162461bcd60e51b81526004016107e790614bbb565b8051825114611f935760405162461bcd60e51b81526004016107e790614ad1565b6000339050611fb681856000868660405180602001604052806000815250612b35565b60005b835181101561207e576000848281518110611fd657611fd6614706565b602002602001015190506000848381518110611ff457611ff4614706565b60209081029190910181015160008481526065835260408082206001600160a01b038c1683529093529190912054909150818110156120455760405162461bcd60e51b81526004016107e790614bfe565b60009283526065602090815260408085206001600160a01b038b168652909152909220910390558061207681614732565b915050611fb9565b5060006001600160a01b0316846001600160a01b0316826001600160a01b03167f4a39dc06d4c0dbc64b70af90fd698a233a518aa5d07e595d983b8c0526c8f7fb86866040516120cf9291906141dd565b60405180910390a46040805160208101909152600090526111c5565b610225610e7c82826148e5565b6001600160a01b03841661211e5760405162461bcd60e51b81526004016107e790614a90565b33600061212a85612f55565b9050600061213785612f55565b905061214883600089858589612b35565b60008681526065602090815260408083206001600160a01b038b1684529091528120805487929061217a908490614b19565b909155505060408051878152602081018790526001600160a01b03808a1692600092918716917fc3d58168c5ae7397731d063d5bbf3d657854427343f4c083240f7aacaa2d0f62910160405180910390a4610b8c83600089898989612fa0565b60006111e4838361305b565b60006118248484846130cb565b600054610100900460ff1661221a5760405162461bcd60e51b81526004016107e790614c42565b611488816130e8565b600054610100900460ff1661224a5760405162461bcd60e51b81526004016107e790614c42565b6122526122fe565b61225d600033611eb5565b6122756000805160206152bb83398151915233611eb5565b61228d6000805160206152db83398151915233611eb5565b6122a560008051602061527b83398151915233611eb5565b610e9f7ff18b77e1ef402111bacb54bd5e03494cbdba92fbd1bd3bbcc1ce77e69b42ea6c33611eb5565b600054610100900460ff166122f65760405162461bcd60e51b81526004016107e790614c42565b610e9f613118565b600054610100900460ff16610e9f5760405162461bcd60e51b81526004016107e790614c42565b600054610100900460ff1661234c5760405162461bcd60e51b81526004016107e790614c42565b6123546122fe565b61236c6000805160206152bb83398151915233611eb5565b610e9f60008051602061529b83398151915233611eb5565b600054610100900460ff166120eb5760405162461bcd60e51b81526004016107e790614c42565b600054610100900460ff166123d25760405162461bcd60e51b81526004016107e790614c42565b6123da6122fe565b610e9f6000805160206152db83398151915233611eb5565b600054610100900460ff166124195760405162461bcd60e51b81526004016107e790614c42565b61028861242683826148e5565b50610289610dfd82826148e5565b61243c61314c565b610129805460ff191660011790557f62e78cea01bee320cd4e420270b5ea74000d11b0c9f74754ebdbfc544b05a258611f2f3390565b60006111e48383613193565b600881901c600090815260208390526040902054600160ff83161b16151592915050565b816001600160a01b0316836001600160a01b0316036125155760405162461bcd60e51b815260206004820152602960248201527f455243313135353a2073657474696e6720617070726f76616c20737461747573604482015268103337b91039b2b63360b91b60648201526084016107e7565b6001600160a01b03838116600081815260666020908152604080832094871680845294825291829020805460ff191686151590811790915591519182527f17307eab39ab6107e8899845ad3d59bd9653f200f220920489ca2b5937696c31910160405180910390a3505050565b6000610815826131bd565b600080808061259c86866131c8565b909450925050505b9250929050565b600080808061259c86866131f3565b6000610815825490565b6001600160a01b0384166125ea5760405162461bcd60e51b81526004016107e790614b2c565b3360006125f685612f55565b9050600061260385612f55565b9050612613838989858589612b35565b60008681526065602090815260408083206001600160a01b038c168452909152902054858110156126565760405162461bcd60e51b81526004016107e790614b71565b60008781526065602090815260408083206001600160a01b038d8116855292528083208985039055908a16825281208054889290612695908490614b19565b909155505060408051888152602081018890526001600160a01b03808b16928c821692918816917fc3d58168c5ae7397731d063d5bbf3d657854427343f4c083240f7aacaa2d0f62910160405180910390a46126f5848a8a8a8a8a612fa0565b505050505050505050565b6001600160a01b03831633148061271c575061271c83336106e4565b6127385760405162461bcd60e51b81526004016107e790614896565b610dfd83838361322d565b6001600160a01b038116600090815260018301602052604081205415156111e4565b60006001600160e01b03198216637965db0b60e01b1480610815575061081582613349565b612794828261157b565b610e7c576127ac816001600160a01b03166014613399565b6127b7836020613399565b6040516020016127c8929190614c8d565b60408051601f198184030181529082905262461bcd60e51b82526107e791600401613b78565b606060006102256127fe86613534565b60405160200161280f929190614d02565b60405160208183030381529060405290508361282a86613534565b848360405160200161283f9493929190614d89565b6040516020818303038152906040529150509392505050565b60408051602081019091526000808252606091905b83518110156129ba576000600185516128869190614e81565b82146128ab57604051806040016040528060018152602001600b60fa1b8152506128bc565b604051806020016040528060008152505b905060008583815181106128d2576128d2614706565b60200260200101516020015151600014612928578583815181106128f8576128f8614706565b6020026020010151602001516040516020016129149190614e94565b604051602081830303815290604052612939565b604051806020016040528060008152505b905060008487858151811061295057612950614706565b6020026020010151600001518389878151811061296f5761296f614706565b60200260200101516040015186604051602001612990959493929190614ed9565b604051602081830303815290604052905080945050505080806129b290614732565b91505061286d565b50806040516020016129cc9190614f96565b604051602081830303815290604052915050919050565b60608151600003612a0257505060408051602081019091526000815290565b60006040518060600160405280604081526020016152056040913990506000600384516002612a319190614b19565b612a3b9190614fee565b612a46906004615002565b6001600160401b03811115612a5d57612a5d613e93565b6040519080825280601f01601f191660200182016040528015612a87576020820181803683370190505b509050600182016020820185865187015b80821015612af3576003820191508151603f8160121c168501518453600184019350603f81600c1c168501518453600184019350603f8160061c168501518453600184019350603f8116850151845350600183019250612a98565b5050600386510660018114612b0f5760028114612b2257612b2a565b603d6001830353603d6002830353612b2a565b603d60018303535b509195945050505050565b612b3d61314c565b82858560005b8351811015612c2e57612b7a848281518110612b6157612b61614706565b602002602001015161025761247e90919063ffffffff16565b1580612b8d57506001600160a01b038316155b80612b9f57506001600160a01b038216155b80612bbd5750612bbd60008051602061529b8339815191528461157b565b80612bdb5750612bdb60008051602061529b8339815191528361157b565b612c1c5760405162461bcd60e51b8152602060048201526012602482015271151bdad95b881a5cc81cdbdd5b189bdd5b9960721b60448201526064016107e7565b80612c2681614732565b915050612b43565b506126f5898989898989613634565b6001600160a01b0384163b156115375760405163bc197c8160e01b81526001600160a01b0385169063bc197c8190612c819089908990889088908890600401615021565b6020604051808303816000875af1925050508015612cbc575060408051601f3d908101601f19168201909252612cb99181019061507f565b60015b612d6857612cc861509c565b806308c379a003612d015750612cdc6150b8565b80612ce75750612d03565b8060405162461bcd60e51b81526004016107e79190613b78565b505b60405162461bcd60e51b815260206004820152603460248201527f455243313135353a207472616e7366657220746f206e6f6e20455243313135356044820152732932b1b2b4bb32b91034b6b83632b6b2b73a32b960611b60648201526084016107e7565b6001600160e01b0319811663bc197c8160e01b14610b8c5760405162461bcd60e51b81526004016107e790615141565b606081600001805480602002602001604051908101604052809291908181526020018280548015612de857602002820191906000526020600020905b815481526020019060010190808311612dd4575b50505050509050919050565b612dfe828261157b565b610e7c5760008281526097602090815260408083206001600160a01b03851684529091529020805460ff19166001179055612e363390565b6001600160a01b0316816001600160a01b0316837f2f8788117e7eff1d82e926ec794901d17c78024a50270940304540a733656f0d60405160405180910390a45050565b60006111e4836001600160a01b03841661386a565b612e99828261157b565b15610e7c5760008281526097602090815260408083206001600160a01b0385168085529252808320805460ff1916905551339285917ff6391f5c32d9c69d2a47ea670b442974b53935d1edc7fd64eb21e047a839171b9190a45050565b60006111e4836001600160a01b0384166138b9565b6101295460ff16610e9f5760405162461bcd60e51b815260206004820152601460248201527314185d5cd8589b194e881b9bdd081c185d5cd95960621b60448201526064016107e7565b60408051600180825281830190925260609160009190602080830190803683370190505090508281600081518110612f8f57612f8f614706565b602090810291909101015292915050565b6001600160a01b0384163b156115375760405163f23a6e6160e01b81526001600160a01b0385169063f23a6e6190612fe49089908990889088908890600401615189565b6020604051808303816000875af192505050801561301f575060408051601f3d908101601f1916820190925261301c9181019061507f565b60015b61302b57612cc861509c565b6001600160e01b0319811663f23a6e6160e01b14610b8c5760405162461bcd60e51b81526004016107e790615141565b60008181526002830160205260408120548015158061307f575061307f84846139ac565b6111e45760405162461bcd60e51b815260206004820152601e60248201527f456e756d657261626c654d61703a206e6f6e6578697374656e74206b6579000060448201526064016107e7565b6000828152600284016020526040812082905561182484846139b8565b600054610100900460ff1661310f5760405162461bcd60e51b81526004016107e790614c42565b611488816139c4565b600054610100900460ff1661313f5760405162461bcd60e51b81526004016107e790614c42565b610129805460ff19169055565b6101295460ff1615610e9f5760405162461bcd60e51b815260206004820152601060248201526f14185d5cd8589b194e881c185d5cd95960821b60448201526064016107e7565b60008260000182815481106131aa576131aa614706565b9060005260206000200154905092915050565b6000610815826125ba565b600080806131d68585612472565b600081815260029690960160205260409095205494959350505050565b60008181526002830160205260408120548190806132225761321585856139ac565b9250600091506125a49050565b6001925090506125a4565b6001600160a01b0383166132535760405162461bcd60e51b81526004016107e790614bbb565b33600061325f84612f55565b9050600061326c84612f55565b905061328c83876000858560405180602001604052806000815250612b35565b60008581526065602090815260408083206001600160a01b038a168452909152902054848110156132cf5760405162461bcd60e51b81526004016107e790614bfe565b60008681526065602090815260408083206001600160a01b038b81168086529184528285208a8703905582518b81529384018a90529092908816917fc3d58168c5ae7397731d063d5bbf3d657854427343f4c083240f7aacaa2d0f62910160405180910390a4604080516020810190915260009052610b8c565b60006001600160e01b03198216636cdb3d1360e11b148061337a57506001600160e01b031982166303a24d0760e21b145b8061081557506301ffc9a760e01b6001600160e01b0319831614610815565b606060006133a8836002615002565b6133b3906002614b19565b6001600160401b038111156133ca576133ca613e93565b6040519080825280601f01601f1916602001820160405280156133f4576020820181803683370190505b509050600360fc1b8160008151811061340f5761340f614706565b60200101906001600160f81b031916908160001a905350600f60fb1b8160018151811061343e5761343e614706565b60200101906001600160f81b031916908160001a9053506000613462846002615002565b61346d906001614b19565b90505b60018111156134e5576f181899199a1a9b1b9c1cb0b131b232b360811b85600f16601081106134a1576134a1614706565b1a60f81b8282815181106134b7576134b7614706565b60200101906001600160f81b031916908160001a90535060049490941c936134de816151c3565b9050613470565b5083156111e45760405162461bcd60e51b815260206004820181905260248201527f537472696e67733a20686578206c656e67746820696e73756666696369656e7460448201526064016107e7565b60608160000361355b5750506040805180820190915260018152600360fc1b602082015290565b8160005b8115613585578061356f81614732565b915061357e9050600a83614fee565b915061355f565b6000816001600160401b0381111561359f5761359f613e93565b6040519080825280601f01601f1916602001820160405280156135c9576020820181803683370190505b5090505b8415611824576135de600183614e81565b91506135eb600a866151da565b6135f6906030614b19565b60f81b81838151811061360b5761360b614706565b60200101906001600160f81b031916908160001a90535061362d600a86614fee565b94506135cd565b6001600160a01b0385166136e55760005b83518110156136e357600061367e85838151811061366557613665614706565b602002602001015161018d6125ab90919063ffffffff16565b9050809150506136d085838151811061369957613699614706565b60200260200101518584815181106136b3576136b3614706565b6020026020010151836136c69190614b19565b61018d91906121e6565b5050806136dc90614732565b9050613645565b505b6001600160a01b0384166137db5760005b83518110156137d957600084828151811061371357613713614706565b60200260200101519050600084838151811061373157613731614706565b6020026020010151905060006137528361018d6121da90919063ffffffff16565b9050818110156137b55760405162461bcd60e51b815260206004820152602860248201527f455243313135353a206275726e20616d6f756e74206578636565647320746f74604482015267616c537570706c7960c01b60648201526084016107e7565b6137c461018d848484036121e6565b50505050806137d290614732565b90506136f6565b505b60005b835181101561385757613824868583815181106137fd576137fd614706565b602002602001015185848151811061381757613817614706565b60200260200101516139d0565b6138478585838151811061383a5761383a614706565b6020026020010151613a25565b61385081614732565b90506137de565b5061386185613a67565b61153784613a67565b60008181526001830160205260408120546138b157508154600181810184556000848152602080822090930184905584548482528286019093526040902091909155610815565b506000610815565b600081815260018301602052604081205480156139a25760006138dd600183614e81565b85549091506000906138f190600190614e81565b905081811461395657600086600001828154811061391157613911614706565b906000526020600020015490508087600001848154811061393457613934614706565b6000918252602080832090910192909255918252600188019052604090208390555b8554869080613967576139676151ee565b600190038181906000526020600020016000905590558560010160008681526020019081526020016000206000905560019350505050610815565b6000915050610815565b60006111e48383613a8b565b60006111e4838361386a565b6067610e7c82826148e5565b6001600160a01b0383166139e357505050565b60006139ef8484610780565b90506139fb8282614e81565b6000036111c5576001600160a01b038416600090815261019260205260409020610dd19084613aa3565b6001600160a01b038216613a37575050565b6001600160a01b038216600090815261019260205260409020613a5a90826139b8565b50610dfd61019083612e7a565b6060613a728261105a565b508051909150600003610e7c57610dfd61019083612ef6565b600081815260018301602052604081205415156111e4565b60006111e483836138b9565b80356001600160a01b0381168114613ac657600080fd5b919050565b60008060408385031215613ade57600080fd5b613ae783613aaf565b946020939093013593505050565b6001600160e01b03198116811461148857600080fd5b600060208284031215613b1d57600080fd5b81356111e481613af5565b60005b83811015613b43578181015183820152602001613b2b565b50506000910152565b60008151808452613b64816020860160208601613b28565b601f01601f19169290920160200192915050565b6020815260006111e46020830184613b4c565b600060208284031215613b9d57600080fd5b6111e482613aaf565b600060208284031215613bb857600080fd5b5035919050565b60008083601f840112613bd157600080fd5b5081356001600160401b03811115613be857600080fd5b6020830191508360208260051b85010111156125a457600080fd5b60008083601f840112613c1557600080fd5b5081356001600160401b03811115613c2c57600080fd5b6020830191508360208285010111156125a457600080fd5b60008060008060008060006080888a031215613c5f57600080fd5b613c6888613aaf565b965060208801356001600160401b0380821115613c8457600080fd5b613c908b838c01613bbf565b909850965060408a0135915080821115613ca957600080fd5b613cb58b838c01613bbf565b909650945060608a0135915080821115613cce57600080fd5b50613cdb8a828b01613c03565b989b979a50959850939692959293505050565b600081518084526020808501945080840160005b83811015613d275781516001600160a01b031687529582019590820190600101613d02565b509495945050505050565b600081518084526020808501945080840160005b83811015613d2757815187529582019590820190600101613d46565b600081518084526020808501808196508360051b8101915082860160005b85811015613daa578284038952613d98848351613d32565b98850198935090840190600101613d80565b5091979650505050505050565b606081526000613dca6060830186613cee565b8281036020840152613ddc8186613d62565b90508281036040840152613df08185613d62565b9695505050505050565b60008060008060008060608789031215613e1357600080fd5b86356001600160401b0380821115613e2a57600080fd5b613e368a838b01613bbf565b90985096506020890135915080821115613e4f57600080fd5b613e5b8a838b01613bbf565b90965094506040890135915080821115613e7457600080fd5b50613e8189828a01613bbf565b979a9699509497509295939492505050565b634e487b7160e01b600052604160045260246000fd5b601f8201601f191681016001600160401b0381118282101715613ece57613ece613e93565b6040525050565b60006001600160401b03821115613eee57613eee613e93565b5060051b60200190565b600082601f830112613f0957600080fd5b81356020613f1682613ed5565b604051613f238282613ea9565b83815260059390931b8501820192828101915086841115613f4357600080fd5b8286015b84811015613f5e5780358352918301918301613f47565b509695505050505050565b600082601f830112613f7a57600080fd5b81356001600160401b03811115613f9357613f93613e93565b604051613faa601f8301601f191660200182613ea9565b818152846020838601011115613fbf57600080fd5b816020850160208301376000918101602001919091529392505050565b600080600080600060a08688031215613ff457600080fd5b613ffd86613aaf565b945061400b60208701613aaf565b935060408601356001600160401b038082111561402757600080fd5b61403389838a01613ef8565b9450606088013591508082111561404957600080fd5b61405589838a01613ef8565b9350608088013591508082111561406b57600080fd5b5061407888828901613f69565b9150509295509295909350565b6000806040838503121561409857600080fd5b823591506140a860208401613aaf565b90509250929050565b600080604083850312156140c457600080fd5b82356001600160401b03808211156140db57600080fd5b818501915085601f8301126140ef57600080fd5b813560206140fc82613ed5565b6040516141098282613ea9565b83815260059390931b850182019282810191508984111561412957600080fd5b948201945b8386101561414e5761413f86613aaf565b8252948201949082019061412e565b9650508601359250508082111561416457600080fd5b5061417185828601613ef8565b9150509250929050565b6020815260006111e46020830184613d32565b6000806000606084860312156141a357600080fd5b833592506020840135915060408401356001600160401b038111156141c757600080fd5b6141d386828701613f69565b9150509250925092565b6040815260006141f06040830185613d32565b8281036020840152610aca8185613d32565b60008060006060848603121561421757600080fd5b61422084613aaf565b925060208401356001600160401b038082111561423c57600080fd5b61424887838801613ef8565b9350604086013591508082111561425e57600080fd5b506141d386828701613ef8565b6000806020838503121561427e57600080fd5b82356001600160401b0381111561429457600080fd5b6142a085828601613c03565b90969095509350505050565b6000602082840312156142be57600080fd5b81356001600160401b038111156142d457600080fd5b61182484828501613ef8565b600081518084526020808501808196508360051b8101915082860160005b85811015613daa578284038952614316848351613b4c565b988501989350908401906001016142fe565b6020815260006111e460208301846142e0565b6000806000806080858703121561435157600080fd5b61435a85613aaf565b9350602085013592506040850135915060608501356001600160401b0381111561438357600080fd5b61438f87828801613f69565b91505092959194509250565b600080604083850312156143ae57600080fd5b50508035926020909101359150565b6000806000606084860312156143d257600080fd5b8335925060208401356001600160401b038082111561423c57600080fd5b60008060008060006060868803121561440857600080fd5b8535945060208601356001600160401b038082111561442657600080fd5b61443289838a01613bbf565b9096509450604088013591508082111561444b57600080fd5b5061445888828901613bbf565b969995985093965092949392505050565b6000806040838503121561447c57600080fd5b8235915060208301356001600160401b0381111561449957600080fd5b61417185828601613ef8565b600080604083850312156144b857600080fd5b6144c183613aaf565b9150602083013580151581146144d657600080fd5b809150509250929050565b6020815260006111e46020830184613cee565b60008060006060848603121561450957600080fd5b833592506020808501356001600160401b038082111561452857600080fd5b61453488838901613ef8565b9450604087013591508082111561454a57600080fd5b818701915087601f83011261455e57600080fd5b813561456981613ed5565b6040516145768282613ea9565b82815260059290921b840185019185810191508a83111561459657600080fd5b8585015b838110156145ce578035858111156145b25760008081fd5b6145c08d89838a0101613f69565b84525091860191860161459a565b508096505050505050509250925092565b600080604083850312156145f257600080fd5b6145fb83613aaf565b91506140a860208401613aaf565b600080600080600060a0868803121561462157600080fd5b61462a86613aaf565b945061463860208701613aaf565b9350604086013592506060860135915060808601356001600160401b0381111561466157600080fd5b61407888828901613f69565b60008060006060848603121561468257600080fd5b61468b84613aaf565b95602085013595506040909401359392505050565b6000806000606084860312156146b557600080fd5b505081359360208301359350604090920135919050565b600181811c908216806146e057607f821691505b60208210810361470057634e487b7160e01b600052602260045260246000fd5b50919050565b634e487b7160e01b600052603260045260246000fd5b634e487b7160e01b600052601160045260246000fd5b6000600182016147445761474461471c565b5060010190565b6000808335601e1984360301811261476257600080fd5b8301803591506001600160401b0382111561477c57600080fd5b6020019150368190038213156125a457600080fd5b601f821115610dfd57600081815260208120601f850160051c810160208610156147b85750805b601f850160051c820191505b81811015611537578281556001016147c4565b6001600160401b038311156147ee576147ee613e93565b614802836147fc83546146cc565b83614791565b6000601f841160018114614836576000851561481e5750838201355b600019600387901b1c1916600186901b178355610dd1565b600083815260209020601f19861690835b828110156148675786850135825560209485019460019092019101614847565b50868210156148845760001960f88860031b161c19848701351681555b505060018560011b0183555050505050565b6020808252602f908201527f455243313135353a2063616c6c6572206973206e6f7420746f6b656e206f776e60408201526e195c881b9bdc88185c1c1c9bdd9959608a1b606082015260800190565b81516001600160401b038111156148fe576148fe613e93565b6149128161490c84546146cc565b84614791565b602080601f831160018114614947576000841561492f5750858301515b600019600386901b1c1916600185901b178555611537565b600085815260208120601f198616915b8281101561497657888601518255948401946001909101908401614957565b50858210156149945787850151600019600388901b60f8161c191681555b5050505050600190811b01905550565b8281526040602082015260006118246040830184613b4c565b6040815260006149d06040830185613d32565b8281036020840152610aca81856142e0565b600081516149f4818560208601613b28565b9290920192915050565b607b60f81b815260008351614a1a816001850160208801613b28565b835190830190614a31816001840160208801613b28565b607d60f81b60019290910191820152600201949350505050565b7f646174613a6170706c69636174696f6e2f6a736f6e3b6261736536342c000000815260008251614a8381601d850160208701613b28565b91909101601d0192915050565b60208082526021908201527f455243313135353a206d696e7420746f20746865207a65726f206164647265736040820152607360f81b606082015260800190565b60208082526028908201527f455243313135353a2069647320616e6420616d6f756e7473206c656e677468206040820152670dad2e6dac2e8c6d60c31b606082015260800190565b808201808211156108155761081561471c565b60208082526025908201527f455243313135353a207472616e7366657220746f20746865207a65726f206164604082015264647265737360d81b606082015260800190565b6020808252602a908201527f455243313135353a20696e73756666696369656e742062616c616e636520666f60408201526939103a3930b739b332b960b11b606082015260800190565b60208082526023908201527f455243313135353a206275726e2066726f6d20746865207a65726f206164647260408201526265737360e81b606082015260800190565b60208082526024908201527f455243313135353a206275726e20616d6f756e7420657863656564732062616c604082015263616e636560e01b606082015260800190565b6020808252602b908201527f496e697469616c697a61626c653a20636f6e7472616374206973206e6f74206960408201526a6e697469616c697a696e6760a81b606082015260800190565b7f416363657373436f6e74726f6c3a206163636f756e7420000000000000000000815260008351614cc5816017850160208801613b28565b7001034b99036b4b9b9b4b733903937b6329607d1b6017918401918201528351614cf6816028840160208801613b28565b01602801949350505050565b6000808454614d10816146cc565b60018281168015614d285760018114614d3d57614d6c565b60ff1984168752821515830287019450614d6c565b8860005260208060002060005b85811015614d635781548a820152908401908201614d4a565b50505082870194505b505050508351614d80818360208801613b28565b01949350505050565b67113730b6b2911d1160c11b81528451600090614dad816008850160208a01613b28565b61088b60f21b600891840191820181905269113a37b5b2b724b2111d60b11b600a8301528651614de4816014850160208b01613b28565b600b60fa1b601493909101928301526e113232b9b1b934b83a34b7b7111d1160891b60158301528551614e1e816024850160208a01613b28565b6024920191820152681134b6b0b3b2911d1160b91b6026820152614e76614e59614e4b602f8401876149e2565b61088b60f21b815260020190565b70089d1e5c19488e88915490cc4c4d4d488b607a1b815260110190565b979650505050505050565b818103818111156108155761081561471c565b6f113234b9b83630bcafba3cb832911d1160811b81528151600090614ec0816010850160208701613b28565b61088b60f21b6010939091019283015250601201919050565b60008651614eeb818460208b01613b28565b6e3d913a3930b4ba2fba3cb832911d1160891b9083019081528651614f1781600f840160208b01613b28565b61088b60f21b600f92909101918201528551614f3a816011840160208a01613b28565b68113b30b63ab2911d1160b91b601192909101918201528451614f6481601a840160208901613b28565b61227d60f01b601a92909101918201528351614f8781601c840160208801613b28565b01601c01979650505050505050565b6d2261747472696275746573223a5b60901b81528151600090614fc081600e850160208701613b28565b605d60f81b600e939091019283015250600f01919050565b634e487b7160e01b600052601260045260246000fd5b600082614ffd57614ffd614fd8565b500490565b600081600019048311821515161561501c5761501c61471c565b500290565b6001600160a01b0386811682528516602082015260a06040820181905260009061504d90830186613d32565b828103606084015261505f8186613d32565b905082810360808401526150738185613b4c565b98975050505050505050565b60006020828403121561509157600080fd5b81516111e481613af5565b600060033d11156150b55760046000803e5060005160e01c5b90565b600060443d10156150c65790565b6040516003193d81016004833e81513d6001600160401b0381602484011181841117156150f557505050505090565b828501915081518181111561510d5750505050505090565b843d87010160208285010111156151275750505050505090565b61513660208286010187613ea9565b509095945050505050565b60208082526028908201527f455243313135353a204552433131353552656365697665722072656a656374656040820152676420746f6b656e7360c01b606082015260800190565b6001600160a01b03868116825285166020820152604081018490526060810183905260a060808201819052600090614e7690830184613b4c565b6000816151d2576151d261471c565b506000190190565b6000826151e9576151e9614fd8565b500690565b634e487b7160e01b600052603160045260246000fdfe4142434445464748494a4b4c4d4e4f505152535455565758595a6162636465666768696a6b6c6d6e6f707172737475767778797a303132333435363738392b2f68747470733a2f2f696d616765732e636f736d6963756e6976657273652e696f2f636f736d69632d7261772d7265736f75726365732f9f2df0fed2c77648de5860a4cc508cd0818c85b8b8a1ab4ceeef8d981c8956a6f01ee2eb8c5679535f9dfef3543570e280865ec756856c5772fe3e6718c5c074a49807205ce4d355092ef5a8a18f56e8913cf4a201fbe287825b095693c21775364d3d7565c7a8300c96fd53e065d19b65848d7b23b3191adcd55621c744223ca2646970667358221220d1d35903a527d01e568cc10e40c43267365db362523f9052c0aab346b529839e64736f6c63430008100033",
  "linkReferences": {},
  "deployedLinkReferences": {}
}