{
  "_format": "hh-sol-artifact-1",
  "contractName": "CosmicRawResources",
  "sourceName": "contracts/upgradeable/ERC1155/CosmicRawResources.sol",
  "abi": [
    {
      "inputs": [],
      "stateMutability": "nonpayable",
      "type": "constructor"
    },
    {
      "anonymous": false,
      "inputs": [
        {
          "indexed": true,
          "internalType": "address",
          "name": "account",
          "type": "address"
        },
        {
          "indexed": true,
          "internalType": "address",
          "name": "operator",
          "type": "address"
        },
        {
          "indexed": false,
          "internalType": "bool",
          "name": "approved",
          "type": "bool"
        }
      ],
      "name": "ApprovalForAll",
      "type": "event"
    },
    {
      "anonymous": false,
      "inputs": [
        {
          "indexed": false,
          "internalType": "uint8",
          "name": "version",
          "type": "uint8"
        }
      ],
      "name": "Initialized",
      "type": "event"
    },
    {
      "anonymous": false,
      "inputs": [
        {
          "indexed": true,
          "internalType": "uint256",
          "name": "tokenId",
          "type": "uint256"
        },
        {
          "indexed": false,
          "internalType": "uint256",
          "name": "attributeId",
          "type": "uint256"
        },
        {
          "indexed": false,
          "internalType": "string",
          "name": "name",
          "type": "string"
        }
      ],
      "name": "NameUpdated",
      "type": "event"
    },
    {
      "anonymous": false,
      "inputs": [
        {
          "indexed": true,
          "internalType": "uint256",
          "name": "tokenId",
          "type": "uint256"
        },
        {
          "indexed": false,
          "internalType": "uint256[]",
          "name": "attributeIds",
          "type": "uint256[]"
        },
        {
          "indexed": false,
          "internalType": "string[]",
          "name": "names",
          "type": "string[]"
        }
      ],
      "name": "NamesUpdated",
      "type": "event"
    },
    {
      "anonymous": false,
      "inputs": [
        {
          "indexed": false,
          "internalType": "address",
          "name": "account",
          "type": "address"
        }
      ],
      "name": "Paused",
      "type": "event"
    },
    {
      "anonymous": false,
      "inputs": [
        {
          "indexed": true,
          "internalType": "bytes32",
          "name": "role",
          "type": "bytes32"
        },
        {
          "indexed": true,
          "internalType": "bytes32",
          "name": "previousAdminRole",
          "type": "bytes32"
        },
        {
          "indexed": true,
          "internalType": "bytes32",
          "name": "newAdminRole",
          "type": "bytes32"
        }
      ],
      "name": "RoleAdminChanged",
      "type": "event"
    },
    {
      "anonymous": false,
      "inputs": [
        {
          "indexed": true,
          "internalType": "bytes32",
          "name": "role",
          "type": "bytes32"
        },
        {
          "indexed": true,
          "internalType": "address",
          "name": "account",
          "type": "address"
        },
        {
          "indexed": true,
          "internalType": "address",
          "name": "sender",
          "type": "address"
        }
      ],
      "name": "RoleGranted",
      "type": "event"
    },
    {
      "anonymous": false,
      "inputs": [
        {
          "indexed": true,
          "internalType": "bytes32",
          "name": "role",
          "type": "bytes32"
        },
        {
          "indexed": true,
          "internalType": "address",
          "name": "account",
          "type": "address"
        },
        {
          "indexed": true,
          "internalType": "address",
          "name": "sender",
          "type": "address"
        }
      ],
      "name": "RoleRevoked",
      "type": "event"
    },
    {
      "anonymous": false,
      "inputs": [
        {
          "indexed": true,
          "internalType": "address",
          "name": "operator",
          "type": "address"
        },
        {
          "indexed": true,
          "internalType": "address",
          "name": "from",
          "type": "address"
        },
        {
          "indexed": true,
          "internalType": "address",
          "name": "to",
          "type": "address"
        },
        {
          "indexed": false,
          "internalType": "uint256[]",
          "name": "ids",
          "type": "uint256[]"
        },
        {
          "indexed": false,
          "internalType": "uint256[]",
          "name": "values",
          "type": "uint256[]"
        }
      ],
      "name": "TransferBatch",
      "type": "event"
    },
    {
      "anonymous": false,
      "inputs": [
        {
          "indexed": true,
          "internalType": "address",
          "name": "operator",
          "type": "address"
        },
        {
          "indexed": true,
          "internalType": "address",
          "name": "from",
          "type": "address"
        },
        {
          "indexed": true,
          "internalType": "address",
          "name": "to",
          "type": "address"
        },
        {
          "indexed": false,
          "internalType": "uint256",
          "name": "id",
          "type": "uint256"
        },
        {
          "indexed": false,
          "internalType": "uint256",
          "name": "value",
          "type": "uint256"
        }
      ],
      "name": "TransferSingle",
      "type": "event"
    },
    {
      "anonymous": false,
      "inputs": [
        {
          "indexed": false,
          "internalType": "string",
          "name": "value",
          "type": "string"
        },
        {
          "indexed": true,
          "internalType": "uint256",
          "name": "id",
          "type": "uint256"
        }
      ],
      "name": "URI",
      "type": "event"
    },
    {
      "anonymous": false,
      "inputs": [
        {
          "indexed": false,
          "internalType": "address",
          "name": "account",
          "type": "address"
        }
      ],
      "name": "Unpaused",
      "type": "event"
    },
    {
      "anonymous": false,
      "inputs": [
        {
          "indexed": true,
          "internalType": "uint256",
          "name": "tokenId",
          "type": "uint256"
        },
        {
          "indexed": false,
          "internalType": "uint256",
          "name": "attributeId",
          "type": "uint256"
        },
        {
          "indexed": false,
          "internalType": "uint256",
          "name": "value",
          "type": "uint256"
        }
      ],
      "name": "ValueUpdated",
      "type": "event"
    },
    {
      "anonymous": false,
      "inputs": [
        {
          "indexed": true,
          "internalType": "uint256",
          "name": "tokenId",
          "type": "uint256"
        },
        {
          "indexed": false,
          "internalType": "uint256[]",
          "name": "attributeIds",
          "type": "uint256[]"
        },
        {
          "indexed": false,
          "internalType": "uint256[]",
          "name": "values",
          "type": "uint256[]"
        }
      ],
      "name": "ValuesUpdated",
      "type": "event"
    },
    {
      "inputs": [],
      "name": "CONTRACT_ROLE",
      "outputs": [
        {
          "internalType": "bytes32",
          "name": "",
          "type": "bytes32"
        }
      ],
      "stateMutability": "view",
      "type": "function"
    },
    {
      "inputs": [],
      "name": "DEFAULT_ADMIN_ROLE",
      "outputs": [
        {
          "internalType": "bytes32",
          "name": "",
          "type": "bytes32"
        }
      ],
      "stateMutability": "view",
      "type": "function"
    },
    {
      "inputs": [],
      "name": "SOULBOUND_WHITELIST_ROLE",
      "outputs": [
        {
          "internalType": "bytes32",
          "name": "",
          "type": "bytes32"
        }
      ],
      "stateMutability": "view",
      "type": "function"
    },
    {
      "inputs": [],
      "name": "activeIds",
      "outputs": [
        {
          "internalType": "uint256[]",
          "name": "",
          "type": "uint256[]"
        }
      ],
      "stateMutability": "view",
      "type": "function"
    },
    {
      "inputs": [
        {
          "internalType": "address",
          "name": "account",
          "type": "address"
        },
        {
          "internalType": "uint256",
          "name": "id",
          "type": "uint256"
        }
      ],
      "name": "balanceOf",
      "outputs": [
        {
          "internalType": "uint256",
          "name": "",
          "type": "uint256"
        }
      ],
      "stateMutability": "view",
      "type": "function"
    },
    {
      "inputs": [],
      "name": "balanceOfAll",
      "outputs": [
        {
          "internalType": "address[]",
          "name": "owners",
          "type": "address[]"
        },
        {
          "internalType": "uint256[][]",
          "name": "tokenIds",
          "type": "uint256[][]"
        },
        {
          "internalType": "uint256[][]",
          "name": "balances",
          "type": "uint256[][]"
        }
      ],
      "stateMutability": "view",
      "type": "function"
    },
    {
      "inputs": [
        {
          "internalType": "address[]",
          "name": "accounts",
          "type": "address[]"
        },
        {
          "internalType": "uint256[]",
          "name": "ids",
          "type": "uint256[]"
        }
      ],
      "name": "balanceOfBatch",
      "outputs": [
        {
          "internalType": "uint256[]",
          "name": "",
          "type": "uint256[]"
        }
      ],
      "stateMutability": "view",
      "type": "function"
    },
    {
      "inputs": [
        {
          "internalType": "uint256",
          "name": "tokenId",
          "type": "uint256"
        },
        {
          "internalType": "uint256[]",
          "name": "attributeIds",
          "type": "uint256[]"
        }
      ],
      "name": "batchGetAttribute",
      "outputs": [
        {
          "internalType": "uint256[]",
          "name": "",
          "type": "uint256[]"
        }
      ],
      "stateMutability": "view",
      "type": "function"
    },
    {
      "inputs": [
        {
          "internalType": "uint256",
          "name": "tokenId",
          "type": "uint256"
        },
        {
          "internalType": "uint256[]",
          "name": "attributeIds",
          "type": "uint256[]"
        },
        {
          "internalType": "uint256[]",
          "name": "values",
          "type": "uint256[]"
        }
      ],
      "name": "batchSetAttribute",
      "outputs": [],
      "stateMutability": "nonpayable",
      "type": "function"
    },
    {
      "inputs": [
        {
          "internalType": "uint256",
          "name": "tokenId",
          "type": "uint256"
        },
        {
          "internalType": "uint256[]",
          "name": "attributeIds",
          "type": "uint256[]"
        },
        {
          "internalType": "string[]",
          "name": "names",
          "type": "string[]"
        }
      ],
      "name": "batchSetAttributeName",
      "outputs": [],
      "stateMutability": "nonpayable",
      "type": "function"
    },
    {
      "inputs": [
        {
          "internalType": "uint256[]",
          "name": "tokenIds",
          "type": "uint256[]"
        },
        {
          "internalType": "uint256[]",
          "name": "attributeIds",
          "type": "uint256[]"
        },
        {
          "internalType": "string[]",
          "name": "names",
          "type": "string[]"
        }
      ],
      "name": "batchSetAttributeNames",
      "outputs": [],
      "stateMutability": "nonpayable",
      "type": "function"
    },
    {
      "inputs": [
        {
          "internalType": "uint256[]",
          "name": "tokenIds",
          "type": "uint256[]"
        }
      ],
      "name": "batchTokenURI",
      "outputs": [
        {
          "internalType": "string[]",
          "name": "",
          "type": "string[]"
        }
      ],
      "stateMutability": "view",
      "type": "function"
    },
    {
      "inputs": [
        {
          "internalType": "uint256[]",
          "name": "tokenIds",
          "type": "uint256[]"
        }
      ],
      "name": "batchUri",
      "outputs": [
        {
          "internalType": "string[]",
          "name": "",
          "type": "string[]"
        }
      ],
      "stateMutability": "view",
      "type": "function"
    },
    {
      "inputs": [],
      "name": "bridgeContract",
      "outputs": [
        {
          "internalType": "address",
          "name": "",
          "type": "address"
        }
      ],
      "stateMutability": "view",
      "type": "function"
    },
    {
      "inputs": [
        {
          "internalType": "uint256",
          "name": "id",
          "type": "uint256"
        },
        {
          "internalType": "uint256",
          "name": "amount",
          "type": "uint256"
        }
      ],
      "name": "bridgeExtraData",
      "outputs": [
        {
          "internalType": "bytes",
          "name": "",
          "type": "bytes"
        }
      ],
      "stateMutability": "view",
      "type": "function"
    },
    {
      "inputs": [
        {
          "internalType": "address",
          "name": "account",
          "type": "address"
        },
        {
          "internalType": "uint256",
          "name": "id",
          "type": "uint256"
        },
        {
          "internalType": "uint256",
          "name": "amount",
          "type": "uint256"
        }
      ],
      "name": "burn",
      "outputs": [],
      "stateMutability": "nonpayable",
      "type": "function"
    },
    {
      "inputs": [
        {
          "internalType": "address",
          "name": "from",
          "type": "address"
        },
        {
          "internalType": "uint256[]",
          "name": "ids",
          "type": "uint256[]"
        },
        {
          "internalType": "uint256[]",
          "name": "amounts",
          "type": "uint256[]"
        }
      ],
      "name": "burnBatch",
      "outputs": [],
      "stateMutability": "nonpayable",
      "type": "function"
    },
    {
      "inputs": [
        {
          "internalType": "uint256",
          "name": "id",
          "type": "uint256"
        }
      ],
      "name": "exists",
      "outputs": [
        {
          "internalType": "bool",
          "name": "",
          "type": "bool"
        }
      ],
      "stateMutability": "view",
      "type": "function"
    },
    {
      "inputs": [
        {
          "internalType": "uint256",
          "name": "tokenId",
          "type": "uint256"
        },
        {
          "internalType": "uint256",
          "name": "attributeId",
          "type": "uint256"
        }
      ],
      "name": "getAttribute",
      "outputs": [
        {
          "internalType": "uint256",
          "name": "",
          "type": "uint256"
        }
      ],
      "stateMutability": "view",
      "type": "function"
    },
    {
      "inputs": [],
      "name": "getBlacklisted",
      "outputs": [
        {
          "internalType": "address[]",
          "name": "",
          "type": "address[]"
        }
      ],
      "stateMutability": "view",
      "type": "function"
    },
    {
      "inputs": [
        {
          "internalType": "bytes32",
          "name": "role",
          "type": "bytes32"
        }
      ],
      "name": "getRoleAdmin",
      "outputs": [
        {
          "internalType": "bytes32",
          "name": "",
          "type": "bytes32"
        }
      ],
      "stateMutability": "view",
      "type": "function"
    },
    {
      "inputs": [
        {
          "internalType": "bytes32",
          "name": "role",
          "type": "bytes32"
        },
        {
          "internalType": "uint256",
          "name": "index",
          "type": "uint256"
        }
      ],
      "name": "getRoleMember",
      "outputs": [
        {
          "internalType": "address",
          "name": "",
          "type": "address"
        }
      ],
      "stateMutability": "view",
      "type": "function"
    },
    {
      "inputs": [
        {
          "internalType": "bytes32",
          "name": "role",
          "type": "bytes32"
        }
      ],
      "name": "getRoleMemberCount",
      "outputs": [
        {
          "internalType": "uint256",
          "name": "",
          "type": "uint256"
        }
      ],
      "stateMutability": "view",
      "type": "function"
    },
    {
      "inputs": [
        {
          "internalType": "bytes32",
          "name": "role",
          "type": "bytes32"
        },
        {
          "internalType": "address",
          "name": "account",
          "type": "address"
        }
      ],
      "name": "grantRole",
      "outputs": [],
      "stateMutability": "nonpayable",
      "type": "function"
    },
    {
      "inputs": [
        {
          "internalType": "bytes32",
          "name": "role",
          "type": "bytes32"
        },
        {
          "internalType": "address",
          "name": "account",
          "type": "address"
        }
      ],
      "name": "hasRole",
      "outputs": [
        {
          "internalType": "bool",
          "name": "",
          "type": "bool"
        }
      ],
      "stateMutability": "view",
      "type": "function"
    },
    {
      "inputs": [],
      "name": "imageBaseURI",
      "outputs": [
        {
          "internalType": "string",
          "name": "",
          "type": "string"
        }
      ],
      "stateMutability": "view",
      "type": "function"
    },
    {
      "inputs": [],
      "name": "initialize",
      "outputs": [],
      "stateMutability": "nonpayable",
      "type": "function"
    },
    {
      "inputs": [
        {
          "internalType": "address",
          "name": "account",
          "type": "address"
        },
        {
          "internalType": "address",
          "name": "operator",
          "type": "address"
        }
      ],
      "name": "isApprovedForAll",
      "outputs": [
        {
          "internalType": "bool",
          "name": "",
          "type": "bool"
        }
      ],
      "stateMutability": "view",
      "type": "function"
    },
    {
      "inputs": [
        {
          "internalType": "address",
          "name": "user",
          "type": "address"
        }
      ],
      "name": "isBlacklisted",
      "outputs": [
        {
          "internalType": "bool",
          "name": "",
          "type": "bool"
        }
      ],
      "stateMutability": "view",
      "type": "function"
    },
    {
      "inputs": [
        {
          "internalType": "uint256",
          "name": "tokenId",
          "type": "uint256"
        }
      ],
      "name": "isSoulbound",
      "outputs": [
        {
          "internalType": "bool",
          "name": "",
          "type": "bool"
        }
      ],
      "stateMutability": "view",
      "type": "function"
    },
    {
      "inputs": [
        {
          "internalType": "address",
          "name": "account",
          "type": "address"
        },
        {
          "internalType": "uint256",
          "name": "id",
          "type": "uint256"
        },
        {
          "internalType": "uint256",
          "name": "amount",
          "type": "uint256"
        },
        {
          "internalType": "bytes",
          "name": "data",
          "type": "bytes"
        }
      ],
      "name": "mint",
      "outputs": [],
      "stateMutability": "nonpayable",
      "type": "function"
    },
    {
      "inputs": [
        {
          "internalType": "address",
          "name": "to",
          "type": "address"
        },
        {
          "internalType": "uint256[]",
          "name": "ids",
          "type": "uint256[]"
        },
        {
          "internalType": "uint256[]",
          "name": "amounts",
          "type": "uint256[]"
        },
        {
          "internalType": "bytes",
          "name": "data",
          "type": "bytes"
        }
      ],
      "name": "mintBatch",
      "outputs": [],
      "stateMutability": "nonpayable",
      "type": "function"
    },
    {
      "inputs": [
        {
          "internalType": "uint256",
          "name": "id",
          "type": "uint256"
        },
        {
          "internalType": "address[]",
          "name": "to",
          "type": "address[]"
        },
        {
          "internalType": "uint256[]",
          "name": "amounts",
          "type": "uint256[]"
        }
      ],
      "name": "mintBatchOf",
      "outputs": [],
      "stateMutability": "nonpayable",
      "type": "function"
    },
    {
      "inputs": [],
      "name": "name",
      "outputs": [
        {
          "internalType": "string",
          "name": "",
          "type": "string"
        }
      ],
      "stateMutability": "view",
      "type": "function"
    },
    {
      "inputs": [],
      "name": "pause",
      "outputs": [],
      "stateMutability": "nonpayable",
      "type": "function"
    },
    {
      "inputs": [],
      "name": "paused",
      "outputs": [
        {
          "internalType": "bool",
          "name": "",
          "type": "bool"
        }
      ],
      "stateMutability": "view",
      "type": "function"
    },
    {
      "inputs": [
        {
          "internalType": "bytes32",
          "name": "role",
          "type": "bytes32"
        },
        {
          "internalType": "address",
          "name": "account",
          "type": "address"
        }
      ],
      "name": "renounceRole",
      "outputs": [],
      "stateMutability": "nonpayable",
      "type": "function"
    },
    {
      "inputs": [
        {
          "internalType": "bytes32",
          "name": "role",
          "type": "bytes32"
        },
        {
          "internalType": "address",
          "name": "account",
          "type": "address"
        }
      ],
      "name": "revokeRole",
      "outputs": [],
      "stateMutability": "nonpayable",
      "type": "function"
    },
    {
      "inputs": [
        {
          "internalType": "address",
          "name": "from",
          "type": "address"
        },
        {
          "internalType": "address",
          "name": "to",
          "type": "address"
        },
        {
          "internalType": "uint256[]",
          "name": "ids",
          "type": "uint256[]"
        },
        {
          "internalType": "uint256[]",
          "name": "amounts",
          "type": "uint256[]"
        },
        {
          "internalType": "bytes",
          "name": "data",
          "type": "bytes"
        }
      ],
      "name": "safeBatchTransferFrom",
      "outputs": [],
      "stateMutability": "nonpayable",
      "type": "function"
    },
    {
      "inputs": [
        {
          "internalType": "address",
          "name": "from",
          "type": "address"
        },
        {
          "internalType": "address",
          "name": "to",
          "type": "address"
        },
        {
          "internalType": "uint256",
          "name": "id",
          "type": "uint256"
        },
        {
          "internalType": "uint256",
          "name": "amount",
          "type": "uint256"
        },
        {
          "internalType": "bytes",
          "name": "data",
          "type": "bytes"
        }
      ],
      "name": "safeTransferFrom",
      "outputs": [],
      "stateMutability": "nonpayable",
      "type": "function"
    },
    {
      "inputs": [
        {
          "internalType": "address",
          "name": "operator",
          "type": "address"
        },
        {
          "internalType": "bool",
          "name": "approved",
          "type": "bool"
        }
      ],
      "name": "setApprovalForAll",
      "outputs": [],
      "stateMutability": "nonpayable",
      "type": "function"
    },
    {
      "inputs": [
        {
          "internalType": "uint256",
          "name": "tokenId",
          "type": "uint256"
        },
        {
          "internalType": "uint256",
          "name": "attributeId",
          "type": "uint256"
        },
        {
          "internalType": "uint256",
          "name": "value",
          "type": "uint256"
        }
      ],
      "name": "setAttribute",
      "outputs": [],
      "stateMutability": "nonpayable",
      "type": "function"
    },
    {
      "inputs": [
        {
          "internalType": "uint256",
          "name": "tokenId",
          "type": "uint256"
        },
        {
          "internalType": "uint256",
          "name": "attributeId",
          "type": "uint256"
        },
        {
          "internalType": "string",
          "name": "name",
          "type": "string"
        }
      ],
      "name": "setAttributeName",
      "outputs": [],
      "stateMutability": "nonpayable",
      "type": "function"
    },
    {
      "inputs": [
        {
          "internalType": "address",
          "name": "_bridgeContract",
          "type": "address"
        }
      ],
      "name": "setBridgeContract",
      "outputs": [],
      "stateMutability": "nonpayable",
      "type": "function"
    },
    {
      "inputs": [
        {
          "internalType": "string",
          "name": "_imageBaseURI",
          "type": "string"
        }
      ],
      "name": "setImageBaseURI",
      "outputs": [],
      "stateMutability": "nonpayable",
      "type": "function"
    },
    {
      "inputs": [
        {
          "internalType": "uint256",
          "name": "tokenId",
          "type": "uint256"
        }
      ],
      "name": "setSoulbound",
      "outputs": [],
      "stateMutability": "nonpayable",
      "type": "function"
    },
    {
      "inputs": [
        {
          "internalType": "bytes4",
          "name": "interfaceId",
          "type": "bytes4"
        }
      ],
      "name": "supportsInterface",
      "outputs": [
        {
          "internalType": "bool",
          "name": "",
          "type": "bool"
        }
      ],
      "stateMutability": "view",
      "type": "function"
    },
    {
      "inputs": [],
      "name": "symbol",
      "outputs": [
        {
          "internalType": "string",
          "name": "",
          "type": "string"
        }
      ],
      "stateMutability": "view",
      "type": "function"
    },
    {
      "inputs": [
        {
          "internalType": "address",
          "name": "owner",
          "type": "address"
        }
      ],
      "name": "tokensOf",
      "outputs": [
        {
          "internalType": "uint256[]",
          "name": "tokenIds",
          "type": "uint256[]"
        },
        {
          "internalType": "uint256[]",
          "name": "balances",
          "type": "uint256[]"
        }
      ],
      "stateMutability": "view",
      "type": "function"
    },
    {
      "inputs": [
        {
          "internalType": "uint256",
          "name": "id",
          "type": "uint256"
        }
      ],
      "name": "totalSupply",
      "outputs": [
        {
          "internalType": "uint256",
          "name": "",
          "type": "uint256"
        }
      ],
      "stateMutability": "view",
      "type": "function"
    },
    {
      "inputs": [],
      "name": "unpause",
      "outputs": [],
      "stateMutability": "nonpayable",
      "type": "function"
    },
    {
      "inputs": [
        {
          "internalType": "uint256",
          "name": "tokenId",
          "type": "uint256"
        }
      ],
      "name": "unsetSoulbound",
      "outputs": [],
      "stateMutability": "nonpayable",
      "type": "function"
    },
    {
      "inputs": [
        {
          "internalType": "uint256",
          "name": "tokenId",
          "type": "uint256"
        }
      ],
      "name": "uri",
      "outputs": [
        {
          "internalType": "string",
          "name": "",
          "type": "string"
        }
      ],
      "stateMutability": "view",
      "type": "function"
    }
  ],
  "bytecode": "0x60806040523480156200001157600080fd5b506200001c62000022565b620000e4565b600054610100900460ff16156200008f5760405162461bcd60e51b815260206004820152602760248201527f496e697469616c697a61626c653a20636f6e747261637420697320696e697469604482015266616c697a696e6760c81b606482015260840160405180910390fd5b60005460ff9081161015620000e2576000805460ff191660ff9081179091556040519081527f7f26b83ff96e1f2b6a682f133852f6798a09c465da95921460cefb38474024989060200160405180910390a15b565b6153c880620000f46000396000f3fe608060405234801561001057600080fd5b50600436106103265760003560e01c80638129fc1c116101b8578063b198ce4611610104578063d547741f116100a2578063f5298aca1161007c578063f5298aca14610725578063fb95ac2d14610738578063fd5eea4e1461075a578063fe575a871461076d57600080fd5b8063d547741f146106c3578063e985e9c5146106d6578063f242432a1461071257600080fd5b8063ca15c873116100de578063ca15c87314610674578063cd59658314610687578063ce3675ad1461069b578063d179191a146106b057600080fd5b8063b198ce4614610646578063bd85b0391461064e578063c385ce251461066157600080fd5b806395d89b4111610171578063a17d79ec1161014b578063a17d79ec14610603578063a217fddf14610618578063a22cb46514610620578063b0fe60d51461063357600080fd5b806395d89b41146105d557806396c45e2f146105dd578063994a95be146105f057600080fd5b80638129fc1c146105615780638456cb591461056957806387be85d3146105715780639010d07c14610584578063911ec470146105af57806391d14854146105c257600080fd5b80633f4ba83a116102775780636b20c45411610230578063731133e91161020a578063731133e9146105205780637685945e1461053357806377645839146105465780637d7a6d131461054e57600080fd5b80636b20c454146104da5780636cfa24cc146104ed5780636d94f13a1461050057600080fd5b80633f4ba83a1461045f5780634e1273f4146104675780634f558e791461048757806358870da11461049a5780635a3f2672146104ad5780635c975abb146104ce57600080fd5b80631f7fdffa116102e4578063248a9ca3116102be578063248a9ca3146104035780632eb2c2d6146104265780632f2ff15d1461043957806336568abe1461044c57600080fd5b80631f7fdffa146103c6578063208e509f146103d957806321e5548c146103f057600080fd5b8062fdd58e1461032b57806301ffc9a71461035157806303fe46ab1461037457806306fdde03146103895780630b26cf661461039e5780630e89341c146103b3575b600080fd5b61033e610339366004613b80565b610780565b6040519081526020015b60405180910390f35b61036461035f366004613bc0565b61081b565b6040519015158152602001610348565b61033e60008051602061537383398151915281565b610391610840565b6040516103489190613c2d565b6103b16103ac366004613c40565b6108cf565b005b6103916103c1366004613c5b565b610909565b6103b16103d4366004613cf9565b610aed565b6103e1610baf565b60405161034893929190613e6c565b6103b16103fe366004613eaf565b610ce0565b61033e610411366004613c5b565b60009081526097602052604090206001015490565b6103b1610434366004614091565b610da6565b6103b161044736600461413a565b610df2565b6103b161045a36600461413a565b610e1c565b6103b1610e9a565b61047a610475366004614166565b610ebb565b6040516103489190614230565b610364610495366004613c5b565b610fe4565b6103b16104a8366004614243565b610ff7565b6104c06104bb366004613c40565b611074565b604051610348929190614292565b6101295460ff16610364565b6103b16104e83660046142b7565b611139565b6103b16104fb366004614320565b61115b565b61051361050e366004614361565b6111b1565b60405161034891906143dd565b6103b161052e3660046143f0565b6111bc565b61033e610541366004614450565b6111e5565b610391611205565b6103b161055c366004614472565b611213565b6103b16112d7565b6103b16114a5565b6103b161057f3660046144a5565b6114c4565b610597610592366004614450565b611559565b6040516001600160a01b039091168152602001610348565b6103646105bd366004613c5b565b611571565b6103646105d036600461413a565b611595565b6103916115c0565b6103b16105eb366004613c5b565b6115ce565b61047a6105fe36600461451e565b61160b565b61033e60008051602061533383398151915281565b61033e600081565b6103b161062e36600461455a565b6116ce565b610513610641366004614361565b6116d9565b61047a611791565b61033e61065c366004613c5b565b61182f565b6103b161066f366004613c5b565b611846565b61033e610682366004613c5b565b611882565b6102ba54610597906001600160a01b031681565b6106a3611899565b6040516103489190614596565b6103b16106be3660046145a9565b6118ab565b6103b16106d136600461413a565b611979565b6103646106e4366004614694565b6001600160a01b03918216600090815260666020908152604080832093909416825291909152205460ff1690565b6103b16107203660046146be565b61199e565b6103b1610733366004614722565b6119e3565b610391610746366004614450565b505060408051602081019091526000815290565b6103b1610768366004614755565b6119ee565b61036461077b366004613c40565b611a59565b60006001600160a01b0383166107f05760405162461bcd60e51b815260206004820152602a60248201527f455243313135353a2061646472657373207a65726f206973206e6f742061207660448201526930b634b21037bbb732b960b11b60648201526084015b60405180910390fd5b5060008181526065602090815260408083206001600160a01b03861684529091529020545b92915050565b600063b0f4708d60e01b6001600160e01b031983161480610815575061081582611a67565b610288805461084e90614781565b80601f016020809104026020016040519081016040528092919081815260200182805461087a90614781565b80156108c75780601f1061089c576101008083540402835291602001916108c7565b820191906000526020600020905b8154815290600101906020018083116108aa57829003601f168201915b505050505081565b6108e6600080516020615353833981519152611a8c565b6102ba80546001600160a01b0319166001600160a01b0392909216919091179055565b60606000610919836103e8611a96565b90506000610929846103e9611a96565b6040805160038082526080820190925291925060009190816020015b61096960405180606001604052806060815260200160608152602001606081525090565b81526020019060019003908161094557905050905060405180606001604052806040518060400160405280600a815260200169283937b332b9b9b4b7b760b11b81525081526020016040518060200160405280600081525081526020016109d1876000611a96565b815250816000815181106109e7576109e76147bb565b60200260200101819052506040518060600160405280604051806040016040528060048152602001635479706560e01b8152508152602001604051806020016040528060008152508152602001610a3f876001611a96565b81525081600181518110610a5557610a556147bb565b602002602001018190525060405180606001604052806040518060400160405280600681526020016552617269747960d01b8152508152602001604051806020016040528060008152508152602001610aaf876002611a96565b81525081600281518110610ac557610ac56147bb565b6020026020010181905250610ae4610adf86858585611b45565b611b91565b95945050505050565b610b04600080516020615313833981519152611a8c565b610ba68787878080602002602001604051908101604052809392919081815260200183836020028082843760009201919091525050604080516020808b0282810182019093528a82529093508a92508991829185019084908082843760009201919091525050604080516020601f8a018190048102820181019092528881529250889150879081908401838280828437600092019190915250611bc292505050565b50505050505050565b6060806060610bbf610190611d1d565b925082516001600160401b03811115610bda57610bda613f48565b604051908082528060200260200182016040528015610c0d57816020015b6060815260200190600190039081610bf85790505b50915082516001600160401b03811115610c2957610c29613f48565b604051908082528060200260200182016040528015610c5c57816020015b6060815260200190600190039081610c475790505b50905060005b8351811015610cda57610c8d848281518110610c8057610c806147bb565b6020026020010151611074565b848381518110610c9f57610c9f6147bb565b60200260200101848481518110610cb857610cb86147bb565b6020026020010182905282905250508080610cd2906147e7565b915050610c62565b50909192565b600080516020615373833981519152610cf881611a8c565b60005b86811015610d9c57838382818110610d1557610d156147bb565b9050602002810190610d279190614800565b6101f560008b8b86818110610d3e57610d3e6147bb565b9050602002013581526020019081526020016000206000898986818110610d6757610d676147bb565b9050602002013581526020019081526020016000209182610d8992919061488c565b5080610d94816147e7565b915050610cfb565b5050505050505050565b6001600160a01b038516331480610dc25750610dc285336106e4565b610dde5760405162461bcd60e51b81526004016107e79061494b565b610deb8585858585611d2a565b5050505050565b600082815260976020526040902060010154610e0d81611a8c565b610e178383611ecf565b505050565b6001600160a01b0381163314610e8c5760405162461bcd60e51b815260206004820152602f60248201527f416363657373436f6e74726f6c3a2063616e206f6e6c792072656e6f756e636560448201526e103937b632b9903337b91039b2b63360891b60648201526084016107e7565b610e968282611ef1565b5050565b610eb1600080516020615353833981519152611a8c565b610eb9611f13565b565b60608151835114610f205760405162461bcd60e51b815260206004820152602960248201527f455243313135353a206163636f756e747320616e6420696473206c656e677468604482015268040dad2e6dac2e8c6d60bb1b60648201526084016107e7565b600083516001600160401b03811115610f3b57610f3b613f48565b604051908082528060200260200182016040528015610f64578160200160208202803683370190505b50905060005b8451811015610fdc57610faf858281518110610f8857610f886147bb565b6020026020010151858381518110610fa257610fa26147bb565b6020026020010151610780565b828281518110610fc157610fc16147bb565b6020908102919091010152610fd5816147e7565b9050610f6a565b509392505050565b600080610ff08361182f565b1192915050565b60008051602061537383398151915261100f81611a8c565b60008481526101f56020908152604080832086845290915290206110338382614999565b50837ffdbb964a9a1d2ac903ed7ebf85795be6728c27e96237552b2805596c759e08818484604051611066929190614a58565b60405180910390a250505050565b6001600160a01b038116600090815261019260205260409020606090819061109b90611d1d565b915081516001600160401b038111156110b6576110b6613f48565b6040519080825280602002602001820160405280156110df578160200160208202803683370190505b50905060005b82518110156111335761110484848381518110610fa257610fa26147bb565b828281518110611116576111166147bb565b60209081029190910101528061112b816147e7565b9150506110e5565b50915091565b611150600080516020615353833981519152611a8c565b610e17838383611f66565b611172600080516020615353833981519152611a8c565b610e9682828080601f01602080910402602001604051908101604052809392919081815260200183838082843760009201919091525061210592505050565b6060610815826116d9565b6111d3600080516020615313833981519152611a8c565b6111df84848484612112565b50505050565b60008281526101f4602052604081206111fe90836121f4565b9392505050565b610225805461084e90614781565b60008051602061537383398151915261122b81611a8c565b60005b83518110156112a45761129184828151811061124c5761124c6147bb565b6020026020010151848381518110611266576112666147bb565b60200260200101516101f460008981526020019081526020016000206122009092919063ffffffff16565b508061129c816147e7565b91505061122e565b50837f383bcccfd5e9b61afe7e6832ca2201fe34d7766a9bbf90fb7152082ddbcd342b8484604051611066929190614292565b600054610100900460ff16158080156112f75750600054600160ff909116105b806113115750303b158015611311575060005460ff166001145b6113745760405162461bcd60e51b815260206004820152602e60248201527f496e697469616c697a61626c653a20636f6e747261637420697320616c72656160448201526d191e481a5b9a5d1a585b1a5e995960921b60648201526084016107e7565b6000805460ff191660011790558015611397576000805461ff0019166101001790555b6113af6040518060200160405280600081525061220d565b6113b761223d565b6113bf612313565b6113c7612342565b6113cf612342565b6113d7612342565b6113df612369565b6114006040518060600160405280603681526020016152dd603691396123c8565b6114086123ef565b61145c60405180604001604052806014815260200173436f736d696320526177205265736f757263657360601b8152506040518060400160405280600681526020016552415752455360d01b815250612436565b80156114a2576000805461ff0019169055604051600181527f7f26b83ff96e1f2b6a682f133852f6798a09c465da95921460cefb38474024989060200160405180910390a15b50565b6114bc600080516020615353833981519152611a8c565b610eb9612478565b6114db600080516020615313833981519152611a8c565b60005b838110156115515761153f8585838181106114fb576114fb6147bb565b90506020020160208101906115109190613c40565b87858585818110611523576115236147bb565b9050602002013560405180602001604052806000815250612112565b80611549816147e7565b9150506114de565b505050505050565b600082815260c9602052604081206111fe90836124b6565b600881901c60009081526102576020526040812054600160ff84161b161515610815565b60009182526097602090815260408084206001600160a01b0393909316845291905290205460ff1690565b610289805461084e90614781565b6000805160206153538339815191526115e681611a8c565b600882901c6000908152610257602052604090208054600160ff85161b191690555050565b6060600082516001600160401b0381111561162857611628613f48565b604051908082528060200260200182016040528015611651578160200160208202803683370190505b50905060005b8351811015610fdc5761169f848281518110611675576116756147bb565b60200260200101516101f460008881526020019081526020016000206121f490919063ffffffff16565b8282815181106116b1576116b16147bb565b6020908102919091010152806116c6816147e7565b915050611657565b610e963383836124e6565b6060600082516001600160401b038111156116f6576116f6613f48565b60405190808252806020026020018201604052801561172957816020015b60608152602001906001900390816117145790505b50905060005b835181101561178a5761175a84828151811061174d5761174d6147bb565b6020026020010151610909565b82828151811061176c5761176c6147bb565b60200260200101819052508080611782906147e7565b91505061172f565b5092915050565b606060006117a061018d6125c6565b90506000816001600160401b038111156117bc576117bc613f48565b6040519080825280602002602001820160405280156117e5578160200160208202803683370190505b50905060005b8281101561178a576117ff61018d826125d1565b50828281518110611812576118126147bb565b602090810291909101015280611827816147e7565b9150506117eb565b60008061183e61018d846125ef565b949350505050565b60008051602061535383398151915261185e81611a8c565b600882901c6000908152610257602052604090208054600160ff85161b1790555050565b600081815260c960205260408120610815906125fe565b60606118a66101c1611d1d565b905090565b6000805160206153738339815191526118c381611a8c565b60005b8351811015611946578281815181106118e1576118e16147bb565b60200260200101516101f560008781526020019081526020016000206000868481518110611911576119116147bb565b6020026020010151815260200190815260200160002090816119339190614999565b508061193e816147e7565b9150506118c6565b50837f9d69ed3cc764cf4f579cfc28312dded7bb202f17cc77aa4d0eb3f8bbaecd88e38484604051611066929190614a71565b60008281526097602052604090206001015461199481611a8c565b610e178383611ef1565b6001600160a01b0385163314806119ba57506119ba85336106e4565b6119d65760405162461bcd60e51b81526004016107e79061494b565b610deb8585858585612608565b610e17838383612744565b600080516020615373833981519152611a0681611a8c565b60008481526101f460205260409020611a20908484612200565b50604080518481526020810184905285917f5cb4c5f05283d5a84da3f9f1b0fe8b00d7ea8e1fb833812b52114799bdf1acc79101611066565b60006108156101c183612787565b60006001600160e01b03198216635a05180f60e01b14806108155750610815826127a9565b6114a281336127ce565b60008281526101f5602090815260408083208484529091529020805460609190611abf90614781565b80601f0160208091040260200160405190810160405280929190818152602001828054611aeb90614781565b8015611b385780601f10611b0d57610100808354040283529160200191611b38565b820191906000526020600020905b815481529060010190602001808311611b1b57829003601f168201915b5050505050905092915050565b60606000611b54868686612827565b90506000611b6184612891565b90508181604051602001611b76929190614ab2565b60405160208183030381529060405292505050949350505050565b6060611b9c82612a1c565b604051602001611bac9190614aff565b6040516020818303038152906040529050919050565b6001600160a01b038416611be85760405162461bcd60e51b81526004016107e790614b44565b8151835114611c095760405162461bcd60e51b81526004016107e790614b85565b33611c1981600087878787612b6e565b60005b8451811015611cb557838181518110611c3757611c376147bb565b602002602001015160656000878481518110611c5557611c556147bb565b602002602001015181526020019081526020016000206000886001600160a01b03166001600160a01b031681526020019081526020016000206000828254611c9d9190614bcd565b90915550819050611cad816147e7565b915050611c1c565b50846001600160a01b031660006001600160a01b0316826001600160a01b03167f4a39dc06d4c0dbc64b70af90fd698a233a518aa5d07e595d983b8c0526c8f7fb8787604051611d06929190614292565b60405180910390a4610deb81600087878787612c76565b606060006111fe83612dd1565b8151835114611d4b5760405162461bcd60e51b81526004016107e790614b85565b6001600160a01b038416611d715760405162461bcd60e51b81526004016107e790614be0565b33611d80818787878787612b6e565b60005b8451811015611e69576000858281518110611da057611da06147bb565b602002602001015190506000858381518110611dbe57611dbe6147bb565b60209081029190910181015160008481526065835260408082206001600160a01b038e168352909352919091205490915081811015611e0f5760405162461bcd60e51b81526004016107e790614c25565b60008381526065602090815260408083206001600160a01b038e8116855292528083208585039055908b16825281208054849290611e4e908490614bcd565b9250508190555050505080611e62906147e7565b9050611d83565b50846001600160a01b0316866001600160a01b0316826001600160a01b03167f4a39dc06d4c0dbc64b70af90fd698a233a518aa5d07e595d983b8c0526c8f7fb8787604051611eb9929190614292565b60405180910390a4611551818787878787612c76565b611ed98282612e2d565b600082815260c960205260409020610e179082612eb3565b611efb8282612ec8565b600082815260c960205260409020610e179082612f2f565b611f1b612f44565b610129805460ff191690557f5db9ee0a495bf2e6ff9c91a7834c1ba4fdd244a5e8aa4e537bd38aeae4b073aa335b6040516001600160a01b03909116815260200160405180910390a1565b6001600160a01b038316611f8c5760405162461bcd60e51b81526004016107e790614c6f565b8051825114611fad5760405162461bcd60e51b81526004016107e790614b85565b6000339050611fd081856000868660405180602001604052806000815250612b6e565b60005b8351811015612098576000848281518110611ff057611ff06147bb565b60200260200101519050600084838151811061200e5761200e6147bb565b60209081029190910181015160008481526065835260408082206001600160a01b038c16835290935291909120549091508181101561205f5760405162461bcd60e51b81526004016107e790614cb2565b60009283526065602090815260408085206001600160a01b038b1686529091529092209103905580612090816147e7565b915050611fd3565b5060006001600160a01b0316846001600160a01b0316826001600160a01b03167f4a39dc06d4c0dbc64b70af90fd698a233a518aa5d07e595d983b8c0526c8f7fb86866040516120e9929190614292565b60405180910390a46040805160208101909152600090526111df565b610225610e968282614999565b6001600160a01b0384166121385760405162461bcd60e51b81526004016107e790614b44565b33600061214485612f8e565b9050600061215185612f8e565b905061216283600089858589612b6e565b60008681526065602090815260408083206001600160a01b038b16845290915281208054879290612194908490614bcd565b909155505060408051878152602081018790526001600160a01b03808a1692600092918716917fc3d58168c5ae7397731d063d5bbf3d657854427343f4c083240f7aacaa2d0f62910160405180910390a4610ba683600089898989612fd9565b60006111fe8383613094565b600061183e848484613104565b600054610100900460ff166122345760405162461bcd60e51b81526004016107e790614cf6565b6114a281613121565b600054610100900460ff166122645760405162461bcd60e51b81526004016107e790614cf6565b61226c612342565b612277600033611ecf565b61228f60008051602061535383398151915233611ecf565b6122a760008051602061537383398151915233611ecf565b6122bf60008051602061531383398151915233611ecf565b6122e97ff18b77e1ef402111bacb54bd5e03494cbdba92fbd1bd3bbcc1ce77e69b42ea6c33611ecf565b610eb97f52ba824bfabc2bcfcdf7f0edbb486ebb05e1836c90e78047efeb949990f72e5f33611ecf565b600054610100900460ff1661233a5760405162461bcd60e51b81526004016107e790614cf6565b610eb9613151565b600054610100900460ff16610eb95760405162461bcd60e51b81526004016107e790614cf6565b600054610100900460ff166123905760405162461bcd60e51b81526004016107e790614cf6565b612398612342565b6123b060008051602061535383398151915233611ecf565b610eb960008051602061533383398151915233611ecf565b600054610100900460ff166121055760405162461bcd60e51b81526004016107e790614cf6565b600054610100900460ff166124165760405162461bcd60e51b81526004016107e790614cf6565b61241e612342565b610eb960008051602061537383398151915233611ecf565b600054610100900460ff1661245d5760405162461bcd60e51b81526004016107e790614cf6565b61028861246a8382614999565b50610289610e178282614999565b612480613185565b610129805460ff191660011790557f62e78cea01bee320cd4e420270b5ea74000d11b0c9f74754ebdbfc544b05a258611f493390565b60006111fe83836131cc565b600881901c600090815260208390526040902054600160ff83161b16151592915050565b816001600160a01b0316836001600160a01b0316036125595760405162461bcd60e51b815260206004820152602960248201527f455243313135353a2073657474696e6720617070726f76616c20737461747573604482015268103337b91039b2b63360b91b60648201526084016107e7565b6001600160a01b03838116600081815260666020908152604080832094871680845294825291829020805460ff191686151590811790915591519182527f17307eab39ab6107e8899845ad3d59bd9653f200f220920489ca2b5937696c31910160405180910390a3505050565b6000610815826131f6565b60008080806125e08686613201565b909450925050505b9250929050565b60008080806125e0868661322c565b6000610815825490565b6001600160a01b03841661262e5760405162461bcd60e51b81526004016107e790614be0565b33600061263a85612f8e565b9050600061264785612f8e565b9050612657838989858589612b6e565b60008681526065602090815260408083206001600160a01b038c1684529091529020548581101561269a5760405162461bcd60e51b81526004016107e790614c25565b60008781526065602090815260408083206001600160a01b038d8116855292528083208985039055908a168252812080548892906126d9908490614bcd565b909155505060408051888152602081018890526001600160a01b03808b16928c821692918816917fc3d58168c5ae7397731d063d5bbf3d657854427343f4c083240f7aacaa2d0f62910160405180910390a4612739848a8a8a8a8a612fd9565b505050505050505050565b6001600160a01b038316331480612760575061276083336106e4565b61277c5760405162461bcd60e51b81526004016107e79061494b565b610e17838383613266565b6001600160a01b038116600090815260018301602052604081205415156111fe565b60006001600160e01b03198216637965db0b60e01b1480610815575061081582613382565b6127d88282611595565b610e96576127e5816133d2565b6127f08360206133e4565b604051602001612801929190614d41565b60408051601f198184030181529082905262461bcd60e51b82526107e791600401613c2d565b606060006102256128378661357f565b604051602001612848929190614db6565b6040516020818303038152906040529050836128638661357f565b84836040516020016128789493929190614e3d565b6040516020818303038152906040529150509392505050565b60408051602081019091526000808252606091905b83518110156129f3576000600185516128bf9190614f35565b82146128e457604051806040016040528060018152602001600b60fa1b8152506128f5565b604051806020016040528060008152505b9050600085838151811061290b5761290b6147bb565b6020026020010151602001515160001461296157858381518110612931576129316147bb565b60200260200101516020015160405160200161294d9190614f48565b604051602081830303815290604052612972565b604051806020016040528060008152505b9050600084878581518110612989576129896147bb565b602002602001015160000151838987815181106129a8576129a86147bb565b602002602001015160400151866040516020016129c9959493929190614f8d565b604051602081830303815290604052905080945050505080806129eb906147e7565b9150506128a6565b5080604051602001612a05919061504a565b604051602081830303815290604052915050919050565b60608151600003612a3b57505060408051602081019091526000815290565b600060405180606001604052806040815260200161529d6040913990506000600384516002612a6a9190614bcd565b612a74919061508c565b612a7f9060046150ae565b6001600160401b03811115612a9657612a96613f48565b6040519080825280601f01601f191660200182016040528015612ac0576020820181803683370190505b509050600182016020820185865187015b80821015612b2c576003820191508151603f8160121c168501518453600184019350603f81600c1c168501518453600184019350603f8160061c168501518453600184019350603f8116850151845350600183019250612ad1565b5050600386510660018114612b485760028114612b5b57612b63565b603d6001830353603d6002830353612b63565b603d60018303535b509195945050505050565b612b76613185565b82858560005b8351811015612c6757612bb3848281518110612b9a57612b9a6147bb565b60200260200101516102576124c290919063ffffffff16565b1580612bc657506001600160a01b038316155b80612bd857506001600160a01b038216155b80612bf65750612bf660008051602061533383398151915284611595565b80612c145750612c1460008051602061533383398151915283611595565b612c555760405162461bcd60e51b8152602060048201526012602482015271151bdad95b881a5cc81cdbdd5b189bdd5b9960721b60448201526064016107e7565b80612c5f816147e7565b915050612b7c565b50612739898989898989613611565b6001600160a01b0384163b156115515760405163bc197c8160e01b81526001600160a01b0385169063bc197c8190612cba90899089908890889088906004016150cd565b6020604051808303816000875af1925050508015612cf5575060408051601f3d908101601f19168201909252612cf29181019061512b565b60015b612da157612d01615148565b806308c379a003612d3a5750612d15615164565b80612d205750612d3c565b8060405162461bcd60e51b81526004016107e79190613c2d565b505b60405162461bcd60e51b815260206004820152603460248201527f455243313135353a207472616e7366657220746f206e6f6e2d455243313135356044820152732932b1b2b4bb32b91034b6b83632b6b2b73a32b960611b60648201526084016107e7565b6001600160e01b0319811663bc197c8160e01b14610ba65760405162461bcd60e51b81526004016107e7906151ed565b606081600001805480602002602001604051908101604052809291908181526020018280548015612e2157602002820191906000526020600020905b815481526020019060010190808311612e0d575b50505050509050919050565b612e378282611595565b610e965760008281526097602090815260408083206001600160a01b03851684529091529020805460ff19166001179055612e6f3390565b6001600160a01b0316816001600160a01b0316837f2f8788117e7eff1d82e926ec794901d17c78024a50270940304540a733656f0d60405160405180910390a45050565b60006111fe836001600160a01b038416613847565b612ed28282611595565b15610e965760008281526097602090815260408083206001600160a01b0385168085529252808320805460ff1916905551339285917ff6391f5c32d9c69d2a47ea670b442974b53935d1edc7fd64eb21e047a839171b9190a45050565b60006111fe836001600160a01b038416613896565b6101295460ff16610eb95760405162461bcd60e51b815260206004820152601460248201527314185d5cd8589b194e881b9bdd081c185d5cd95960621b60448201526064016107e7565b60408051600180825281830190925260609160009190602080830190803683370190505090508281600081518110612fc857612fc86147bb565b602090810291909101015292915050565b6001600160a01b0384163b156115515760405163f23a6e6160e01b81526001600160a01b0385169063f23a6e619061301d9089908990889088908890600401615235565b6020604051808303816000875af1925050508015613058575060408051601f3d908101601f191682019092526130559181019061512b565b60015b61306457612d01615148565b6001600160e01b0319811663f23a6e6160e01b14610ba65760405162461bcd60e51b81526004016107e7906151ed565b6000818152600283016020526040812054801515806130b857506130b88484613989565b6111fe5760405162461bcd60e51b815260206004820152601e60248201527f456e756d657261626c654d61703a206e6f6e6578697374656e74206b6579000060448201526064016107e7565b6000828152600284016020526040812082905561183e8484613995565b600054610100900460ff166131485760405162461bcd60e51b81526004016107e790614cf6565b6114a2816139a1565b600054610100900460ff166131785760405162461bcd60e51b81526004016107e790614cf6565b610129805460ff19169055565b6101295460ff1615610eb95760405162461bcd60e51b815260206004820152601060248201526f14185d5cd8589b194e881c185d5cd95960821b60448201526064016107e7565b60008260000182815481106131e3576131e36147bb565b9060005260206000200154905092915050565b6000610815826125fe565b6000808061320f85856124b6565b600081815260029690960160205260409095205494959350505050565b600081815260028301602052604081205481908061325b5761324e8585613989565b9250600091506125e89050565b6001925090506125e8565b6001600160a01b03831661328c5760405162461bcd60e51b81526004016107e790614c6f565b33600061329884612f8e565b905060006132a584612f8e565b90506132c583876000858560405180602001604052806000815250612b6e565b60008581526065602090815260408083206001600160a01b038a168452909152902054848110156133085760405162461bcd60e51b81526004016107e790614cb2565b60008681526065602090815260408083206001600160a01b038b81168086529184528285208a8703905582518b81529384018a90529092908816917fc3d58168c5ae7397731d063d5bbf3d657854427343f4c083240f7aacaa2d0f62910160405180910390a4604080516020810190915260009052610ba6565b60006001600160e01b03198216636cdb3d1360e11b14806133b357506001600160e01b031982166303a24d0760e21b145b8061081557506301ffc9a760e01b6001600160e01b0319831614610815565b60606108156001600160a01b03831660145b606060006133f38360026150ae565b6133fe906002614bcd565b6001600160401b0381111561341557613415613f48565b6040519080825280601f01601f19166020018201604052801561343f576020820181803683370190505b509050600360fc1b8160008151811061345a5761345a6147bb565b60200101906001600160f81b031916908160001a905350600f60fb1b81600181518110613489576134896147bb565b60200101906001600160f81b031916908160001a90535060006134ad8460026150ae565b6134b8906001614bcd565b90505b6001811115613530576f181899199a1a9b1b9c1cb0b131b232b360811b85600f16601081106134ec576134ec6147bb565b1a60f81b828281518110613502576135026147bb565b60200101906001600160f81b031916908160001a90535060049490941c936135298161526f565b90506134bb565b5083156111fe5760405162461bcd60e51b815260206004820181905260248201527f537472696e67733a20686578206c656e67746820696e73756666696369656e7460448201526064016107e7565b6060600061358c836139ad565b60010190506000816001600160401b038111156135ab576135ab613f48565b6040519080825280601f01601f1916602001820160405280156135d5576020820181803683370190505b5090508181016020015b600019016f181899199a1a9b1b9c1cb0b131b232b360811b600a86061a8153600a85049450846135df57509392505050565b6001600160a01b0385166136c25760005b83518110156136c057600061365b858381518110613642576136426147bb565b602002602001015161018d6125ef90919063ffffffff16565b9050809150506136ad858381518110613676576136766147bb565b6020026020010151858481518110613690576136906147bb565b6020026020010151836136a39190614bcd565b61018d9190612200565b5050806136b9906147e7565b9050613622565b505b6001600160a01b0384166137b85760005b83518110156137b65760008482815181106136f0576136f06147bb565b60200260200101519050600084838151811061370e5761370e6147bb565b60200260200101519050600061372f8361018d6121f490919063ffffffff16565b9050818110156137925760405162461bcd60e51b815260206004820152602860248201527f455243313135353a206275726e20616d6f756e74206578636565647320746f74604482015267616c537570706c7960c01b60648201526084016107e7565b6137a161018d84848403612200565b50505050806137af906147e7565b90506136d3565b505b60005b835181101561383457613801868583815181106137da576137da6147bb565b60200260200101518584815181106137f4576137f46147bb565b6020026020010151613a85565b61382485858381518110613817576138176147bb565b6020026020010151613ada565b61382d816147e7565b90506137bb565b5061383e85613b1c565b61155184613b1c565b600081815260018301602052604081205461388e57508154600181810184556000848152602080822090930184905584548482528286019093526040902091909155610815565b506000610815565b6000818152600183016020526040812054801561397f5760006138ba600183614f35565b85549091506000906138ce90600190614f35565b90508181146139335760008660000182815481106138ee576138ee6147bb565b9060005260206000200154905080876000018481548110613911576139116147bb565b6000918252602080832090910192909255918252600188019052604090208390555b855486908061394457613944615286565b600190038181906000526020600020016000905590558560010160008681526020019081526020016000206000905560019350505050610815565b6000915050610815565b60006111fe8383613b40565b60006111fe8383613847565b6067610e968282614999565b60008072184f03e93ff9f4daa797ed6e38ed64bf6a1f0160401b83106139ec5772184f03e93ff9f4daa797ed6e38ed64bf6a1f0160401b830492506040015b6d04ee2d6d415b85acef81000000008310613a18576d04ee2d6d415b85acef8100000000830492506020015b662386f26fc100008310613a3657662386f26fc10000830492506010015b6305f5e1008310613a4e576305f5e100830492506008015b6127108310613a6257612710830492506004015b60648310613a74576064830492506002015b600a83106108155760010192915050565b6001600160a01b038316613a9857505050565b6000613aa48484610780565b9050613ab08282614f35565b6000036111df576001600160a01b038416600090815261019260205260409020610deb9084613b58565b6001600160a01b038216613aec575050565b6001600160a01b038216600090815261019260205260409020613b0f9082613995565b50610e1761019083612eb3565b6060613b2782611074565b508051909150600003610e9657610e1761019083612f2f565b600081815260018301602052604081205415156111fe565b60006111fe8383613896565b80356001600160a01b0381168114613b7b57600080fd5b919050565b60008060408385031215613b9357600080fd5b613b9c83613b64565b946020939093013593505050565b6001600160e01b0319811681146114a257600080fd5b600060208284031215613bd257600080fd5b81356111fe81613baa565b60005b83811015613bf8578181015183820152602001613be0565b50506000910152565b60008151808452613c19816020860160208601613bdd565b601f01601f19169290920160200192915050565b6020815260006111fe6020830184613c01565b600060208284031215613c5257600080fd5b6111fe82613b64565b600060208284031215613c6d57600080fd5b5035919050565b60008083601f840112613c8657600080fd5b5081356001600160401b03811115613c9d57600080fd5b6020830191508360208260051b85010111156125e857600080fd5b60008083601f840112613cca57600080fd5b5081356001600160401b03811115613ce157600080fd5b6020830191508360208285010111156125e857600080fd5b60008060008060008060006080888a031215613d1457600080fd5b613d1d88613b64565b965060208801356001600160401b0380821115613d3957600080fd5b613d458b838c01613c74565b909850965060408a0135915080821115613d5e57600080fd5b613d6a8b838c01613c74565b909650945060608a0135915080821115613d8357600080fd5b50613d908a828b01613cb8565b989b979a50959850939692959293505050565b600081518084526020808501945080840160005b83811015613ddc5781516001600160a01b031687529582019590820190600101613db7565b509495945050505050565b600081518084526020808501945080840160005b83811015613ddc57815187529582019590820190600101613dfb565b600081518084526020808501808196508360051b8101915082860160005b85811015613e5f578284038952613e4d848351613de7565b98850198935090840190600101613e35565b5091979650505050505050565b606081526000613e7f6060830186613da3565b8281036020840152613e918186613e17565b90508281036040840152613ea58185613e17565b9695505050505050565b60008060008060008060608789031215613ec857600080fd5b86356001600160401b0380821115613edf57600080fd5b613eeb8a838b01613c74565b90985096506020890135915080821115613f0457600080fd5b613f108a838b01613c74565b90965094506040890135915080821115613f2957600080fd5b50613f3689828a01613c74565b979a9699509497509295939492505050565b634e487b7160e01b600052604160045260246000fd5b601f8201601f191681016001600160401b0381118282101715613f8357613f83613f48565b6040525050565b60006001600160401b03821115613fa357613fa3613f48565b5060051b60200190565b600082601f830112613fbe57600080fd5b81356020613fcb82613f8a565b604051613fd88282613f5e565b83815260059390931b8501820192828101915086841115613ff857600080fd5b8286015b848110156140135780358352918301918301613ffc565b509695505050505050565b600082601f83011261402f57600080fd5b81356001600160401b0381111561404857614048613f48565b60405161405f601f8301601f191660200182613f5e565b81815284602083860101111561407457600080fd5b816020850160208301376000918101602001919091529392505050565b600080600080600060a086880312156140a957600080fd5b6140b286613b64565b94506140c060208701613b64565b935060408601356001600160401b03808211156140dc57600080fd5b6140e889838a01613fad565b945060608801359150808211156140fe57600080fd5b61410a89838a01613fad565b9350608088013591508082111561412057600080fd5b5061412d8882890161401e565b9150509295509295909350565b6000806040838503121561414d57600080fd5b8235915061415d60208401613b64565b90509250929050565b6000806040838503121561417957600080fd5b82356001600160401b038082111561419057600080fd5b818501915085601f8301126141a457600080fd5b813560206141b182613f8a565b6040516141be8282613f5e565b83815260059390931b85018201928281019150898411156141de57600080fd5b948201945b83861015614203576141f486613b64565b825294820194908201906141e3565b9650508601359250508082111561421957600080fd5b5061422685828601613fad565b9150509250929050565b6020815260006111fe6020830184613de7565b60008060006060848603121561425857600080fd5b833592506020840135915060408401356001600160401b0381111561427c57600080fd5b6142888682870161401e565b9150509250925092565b6040815260006142a56040830185613de7565b8281036020840152610ae48185613de7565b6000806000606084860312156142cc57600080fd5b6142d584613b64565b925060208401356001600160401b03808211156142f157600080fd5b6142fd87838801613fad565b9350604086013591508082111561431357600080fd5b5061428886828701613fad565b6000806020838503121561433357600080fd5b82356001600160401b0381111561434957600080fd5b61435585828601613cb8565b90969095509350505050565b60006020828403121561437357600080fd5b81356001600160401b0381111561438957600080fd5b61183e84828501613fad565b600081518084526020808501808196508360051b8101915082860160005b85811015613e5f5782840389526143cb848351613c01565b988501989350908401906001016143b3565b6020815260006111fe6020830184614395565b6000806000806080858703121561440657600080fd5b61440f85613b64565b9350602085013592506040850135915060608501356001600160401b0381111561443857600080fd5b6144448782880161401e565b91505092959194509250565b6000806040838503121561446357600080fd5b50508035926020909101359150565b60008060006060848603121561448757600080fd5b8335925060208401356001600160401b03808211156142f157600080fd5b6000806000806000606086880312156144bd57600080fd5b8535945060208601356001600160401b03808211156144db57600080fd5b6144e789838a01613c74565b9096509450604088013591508082111561450057600080fd5b5061450d88828901613c74565b969995985093965092949392505050565b6000806040838503121561453157600080fd5b8235915060208301356001600160401b0381111561454e57600080fd5b61422685828601613fad565b6000806040838503121561456d57600080fd5b61457683613b64565b91506020830135801515811461458b57600080fd5b809150509250929050565b6020815260006111fe6020830184613da3565b6000806000606084860312156145be57600080fd5b833592506020808501356001600160401b03808211156145dd57600080fd5b6145e988838901613fad565b945060408701359150808211156145ff57600080fd5b818701915087601f83011261461357600080fd5b813561461e81613f8a565b60405161462b8282613f5e565b82815260059290921b840185019185810191508a83111561464b57600080fd5b8585015b83811015614683578035858111156146675760008081fd5b6146758d89838a010161401e565b84525091860191860161464f565b508096505050505050509250925092565b600080604083850312156146a757600080fd5b6146b083613b64565b915061415d60208401613b64565b600080600080600060a086880312156146d657600080fd5b6146df86613b64565b94506146ed60208701613b64565b9350604086013592506060860135915060808601356001600160401b0381111561471657600080fd5b61412d8882890161401e565b60008060006060848603121561473757600080fd5b61474084613b64565b95602085013595506040909401359392505050565b60008060006060848603121561476a57600080fd5b505081359360208301359350604090920135919050565b600181811c9082168061479557607f821691505b6020821081036147b557634e487b7160e01b600052602260045260246000fd5b50919050565b634e487b7160e01b600052603260045260246000fd5b634e487b7160e01b600052601160045260246000fd5b6000600182016147f9576147f96147d1565b5060010190565b6000808335601e1984360301811261481757600080fd5b8301803591506001600160401b0382111561483157600080fd5b6020019150368190038213156125e857600080fd5b601f821115610e1757600081815260208120601f850160051c8101602086101561486d5750805b601f850160051c820191505b8181101561155157828155600101614879565b6001600160401b038311156148a3576148a3613f48565b6148b7836148b18354614781565b83614846565b6000601f8411600181146148eb57600085156148d35750838201355b600019600387901b1c1916600186901b178355610deb565b600083815260209020601f19861690835b8281101561491c57868501358255602094850194600190920191016148fc565b50868210156149395760001960f88860031b161c19848701351681555b505060018560011b0183555050505050565b6020808252602e908201527f455243313135353a2063616c6c6572206973206e6f7420746f6b656e206f776e60408201526d195c881bdc88185c1c1c9bdd995960921b606082015260800190565b81516001600160401b038111156149b2576149b2613f48565b6149c6816149c08454614781565b84614846565b602080601f8311600181146149fb57600084156149e35750858301515b600019600386901b1c1916600185901b178555611551565b600085815260208120601f198616915b82811015614a2a57888601518255948401946001909101908401614a0b565b5085821015614a485787850151600019600388901b60f8161c191681555b5050505050600190811b01905550565b82815260406020820152600061183e6040830184613c01565b604081526000614a846040830185613de7565b8281036020840152610ae48185614395565b60008151614aa8818560208601613bdd565b9290920192915050565b607b60f81b815260008351614ace816001850160208801613bdd565b835190830190614ae5816001840160208801613bdd565b607d60f81b60019290910191820152600201949350505050565b7f646174613a6170706c69636174696f6e2f6a736f6e3b6261736536342c000000815260008251614b3781601d850160208701613bdd565b91909101601d0192915050565b60208082526021908201527f455243313135353a206d696e7420746f20746865207a65726f206164647265736040820152607360f81b606082015260800190565b60208082526028908201527f455243313135353a2069647320616e6420616d6f756e7473206c656e677468206040820152670dad2e6dac2e8c6d60c31b606082015260800190565b80820180821115610815576108156147d1565b60208082526025908201527f455243313135353a207472616e7366657220746f20746865207a65726f206164604082015264647265737360d81b606082015260800190565b6020808252602a908201527f455243313135353a20696e73756666696369656e742062616c616e636520666f60408201526939103a3930b739b332b960b11b606082015260800190565b60208082526023908201527f455243313135353a206275726e2066726f6d20746865207a65726f206164647260408201526265737360e81b606082015260800190565b60208082526024908201527f455243313135353a206275726e20616d6f756e7420657863656564732062616c604082015263616e636560e01b606082015260800190565b6020808252602b908201527f496e697469616c697a61626c653a20636f6e7472616374206973206e6f74206960408201526a6e697469616c697a696e6760a81b606082015260800190565b7f416363657373436f6e74726f6c3a206163636f756e7420000000000000000000815260008351614d79816017850160208801613bdd565b7001034b99036b4b9b9b4b733903937b6329607d1b6017918401918201528351614daa816028840160208801613bdd565b01602801949350505050565b6000808454614dc481614781565b60018281168015614ddc5760018114614df157614e20565b60ff1984168752821515830287019450614e20565b8860005260208060002060005b85811015614e175781548a820152908401908201614dfe565b50505082870194505b505050508351614e34818360208801613bdd565b01949350505050565b67113730b6b2911d1160c11b81528451600090614e61816008850160208a01613bdd565b61088b60f21b600891840191820181905269113a37b5b2b724b2111d60b11b600a8301528651614e98816014850160208b01613bdd565b600b60fa1b601493909101928301526e113232b9b1b934b83a34b7b7111d1160891b60158301528551614ed2816024850160208a01613bdd565b6024920191820152681134b6b0b3b2911d1160b91b6026820152614f2a614f0d614eff602f840187614a96565b61088b60f21b815260020190565b70089d1e5c19488e88915490cc4c4d4d488b607a1b815260110190565b979650505050505050565b81810381811115610815576108156147d1565b6f113234b9b83630bcafba3cb832911d1160811b81528151600090614f74816010850160208701613bdd565b61088b60f21b6010939091019283015250601201919050565b60008651614f9f818460208b01613bdd565b6e3d913a3930b4ba2fba3cb832911d1160891b9083019081528651614fcb81600f840160208b01613bdd565b61088b60f21b600f92909101918201528551614fee816011840160208a01613bdd565b68113b30b63ab2911d1160b91b60119290910191820152845161501881601a840160208901613bdd565b61227d60f01b601a9290910191820152835161503b81601c840160208801613bdd565b01601c01979650505050505050565b6d2261747472696275746573223a5b60901b8152815160009061507481600e850160208701613bdd565b605d60f81b600e939091019283015250600f01919050565b6000826150a957634e487b7160e01b600052601260045260246000fd5b500490565b60008160001904831182151516156150c8576150c86147d1565b500290565b6001600160a01b0386811682528516602082015260a0604082018190526000906150f990830186613de7565b828103606084015261510b8186613de7565b9050828103608084015261511f8185613c01565b98975050505050505050565b60006020828403121561513d57600080fd5b81516111fe81613baa565b600060033d11156151615760046000803e5060005160e01c5b90565b600060443d10156151725790565b6040516003193d81016004833e81513d6001600160401b0381602484011181841117156151a157505050505090565b82850191508151818111156151b95750505050505090565b843d87010160208285010111156151d35750505050505090565b6151e260208286010187613f5e565b509095945050505050565b60208082526028908201527f455243313135353a204552433131353552656365697665722072656a656374656040820152676420746f6b656e7360c01b606082015260800190565b6001600160a01b03868116825285166020820152604081018490526060810183905260a060808201819052600090614f2a90830184613c01565b60008161527e5761527e6147d1565b506000190190565b634e487b7160e01b600052603160045260246000fdfe4142434445464748494a4b4c4d4e4f505152535455565758595a6162636465666768696a6b6c6d6e6f707172737475767778797a303132333435363738392b2f68747470733a2f2f696d616765732e636f736d6963756e6976657273652e696f2f636f736d69632d7261772d7265736f75726365732f9f2df0fed2c77648de5860a4cc508cd0818c85b8b8a1ab4ceeef8d981c8956a6f01ee2eb8c5679535f9dfef3543570e280865ec756856c5772fe3e6718c5c074a49807205ce4d355092ef5a8a18f56e8913cf4a201fbe287825b095693c21775364d3d7565c7a8300c96fd53e065d19b65848d7b23b3191adcd55621c744223ca26469706673582212209fe02c1a7fe7bac33899c4f0c3fb4b84177d0229871027c89bbc8a19d9669ebc64736f6c63430008100033",
  "linkReferences": {},
  "deployedLinkReferences": {}
}