{
  "_format": "hh-sol-artifact-1",
  "contractName": "CosmicRawResources",
  "sourceName": "contracts/upgradeable/ERC1155/CosmicRawResources.sol",
  "abi": [
    {
      "inputs": [],
      "stateMutability": "nonpayable",
      "type": "constructor"
    },
    {
      "anonymous": false,
      "inputs": [
        {
          "indexed": true,
          "internalType": "address",
          "name": "account",
          "type": "address"
        },
        {
          "indexed": true,
          "internalType": "address",
          "name": "operator",
          "type": "address"
        },
        {
          "indexed": false,
          "internalType": "bool",
          "name": "approved",
          "type": "bool"
        }
      ],
      "name": "ApprovalForAll",
      "type": "event"
    },
    {
      "anonymous": false,
      "inputs": [
        {
          "indexed": false,
          "internalType": "uint8",
          "name": "version",
          "type": "uint8"
        }
      ],
      "name": "Initialized",
      "type": "event"
    },
    {
      "anonymous": false,
      "inputs": [
        {
          "indexed": true,
          "internalType": "uint256",
          "name": "tokenId",
          "type": "uint256"
        },
        {
          "indexed": false,
          "internalType": "uint256",
          "name": "attributeId",
          "type": "uint256"
        },
        {
          "indexed": false,
          "internalType": "string",
          "name": "name",
          "type": "string"
        }
      ],
      "name": "NameUpdated",
      "type": "event"
    },
    {
      "anonymous": false,
      "inputs": [
        {
          "indexed": true,
          "internalType": "uint256",
          "name": "tokenId",
          "type": "uint256"
        },
        {
          "indexed": false,
          "internalType": "uint256[]",
          "name": "attributeIds",
          "type": "uint256[]"
        },
        {
          "indexed": false,
          "internalType": "string[]",
          "name": "names",
          "type": "string[]"
        }
      ],
      "name": "NamesUpdated",
      "type": "event"
    },
    {
      "anonymous": false,
      "inputs": [
        {
          "indexed": false,
          "internalType": "address",
          "name": "account",
          "type": "address"
        }
      ],
      "name": "Paused",
      "type": "event"
    },
    {
      "anonymous": false,
      "inputs": [
        {
          "indexed": true,
          "internalType": "bytes32",
          "name": "role",
          "type": "bytes32"
        },
        {
          "indexed": true,
          "internalType": "bytes32",
          "name": "previousAdminRole",
          "type": "bytes32"
        },
        {
          "indexed": true,
          "internalType": "bytes32",
          "name": "newAdminRole",
          "type": "bytes32"
        }
      ],
      "name": "RoleAdminChanged",
      "type": "event"
    },
    {
      "anonymous": false,
      "inputs": [
        {
          "indexed": true,
          "internalType": "bytes32",
          "name": "role",
          "type": "bytes32"
        },
        {
          "indexed": true,
          "internalType": "address",
          "name": "account",
          "type": "address"
        },
        {
          "indexed": true,
          "internalType": "address",
          "name": "sender",
          "type": "address"
        }
      ],
      "name": "RoleGranted",
      "type": "event"
    },
    {
      "anonymous": false,
      "inputs": [
        {
          "indexed": true,
          "internalType": "bytes32",
          "name": "role",
          "type": "bytes32"
        },
        {
          "indexed": true,
          "internalType": "address",
          "name": "account",
          "type": "address"
        },
        {
          "indexed": true,
          "internalType": "address",
          "name": "sender",
          "type": "address"
        }
      ],
      "name": "RoleRevoked",
      "type": "event"
    },
    {
      "anonymous": false,
      "inputs": [
        {
          "indexed": true,
          "internalType": "address",
          "name": "operator",
          "type": "address"
        },
        {
          "indexed": true,
          "internalType": "address",
          "name": "from",
          "type": "address"
        },
        {
          "indexed": true,
          "internalType": "address",
          "name": "to",
          "type": "address"
        },
        {
          "indexed": false,
          "internalType": "uint256[]",
          "name": "ids",
          "type": "uint256[]"
        },
        {
          "indexed": false,
          "internalType": "uint256[]",
          "name": "values",
          "type": "uint256[]"
        }
      ],
      "name": "TransferBatch",
      "type": "event"
    },
    {
      "anonymous": false,
      "inputs": [
        {
          "indexed": true,
          "internalType": "address",
          "name": "operator",
          "type": "address"
        },
        {
          "indexed": true,
          "internalType": "address",
          "name": "from",
          "type": "address"
        },
        {
          "indexed": true,
          "internalType": "address",
          "name": "to",
          "type": "address"
        },
        {
          "indexed": false,
          "internalType": "uint256",
          "name": "id",
          "type": "uint256"
        },
        {
          "indexed": false,
          "internalType": "uint256",
          "name": "value",
          "type": "uint256"
        }
      ],
      "name": "TransferSingle",
      "type": "event"
    },
    {
      "anonymous": false,
      "inputs": [
        {
          "indexed": false,
          "internalType": "string",
          "name": "value",
          "type": "string"
        },
        {
          "indexed": true,
          "internalType": "uint256",
          "name": "id",
          "type": "uint256"
        }
      ],
      "name": "URI",
      "type": "event"
    },
    {
      "anonymous": false,
      "inputs": [
        {
          "indexed": false,
          "internalType": "address",
          "name": "account",
          "type": "address"
        }
      ],
      "name": "Unpaused",
      "type": "event"
    },
    {
      "anonymous": false,
      "inputs": [
        {
          "indexed": true,
          "internalType": "uint256",
          "name": "tokenId",
          "type": "uint256"
        },
        {
          "indexed": false,
          "internalType": "uint256",
          "name": "attributeId",
          "type": "uint256"
        },
        {
          "indexed": false,
          "internalType": "uint256",
          "name": "value",
          "type": "uint256"
        }
      ],
      "name": "ValueUpdated",
      "type": "event"
    },
    {
      "anonymous": false,
      "inputs": [
        {
          "indexed": true,
          "internalType": "uint256",
          "name": "tokenId",
          "type": "uint256"
        },
        {
          "indexed": false,
          "internalType": "uint256[]",
          "name": "attributeIds",
          "type": "uint256[]"
        },
        {
          "indexed": false,
          "internalType": "uint256[]",
          "name": "values",
          "type": "uint256[]"
        }
      ],
      "name": "ValuesUpdated",
      "type": "event"
    },
    {
      "inputs": [],
      "name": "CONTRACT_ROLE",
      "outputs": [
        {
          "internalType": "bytes32",
          "name": "",
          "type": "bytes32"
        }
      ],
      "stateMutability": "view",
      "type": "function"
    },
    {
      "inputs": [],
      "name": "DEFAULT_ADMIN_ROLE",
      "outputs": [
        {
          "internalType": "bytes32",
          "name": "",
          "type": "bytes32"
        }
      ],
      "stateMutability": "view",
      "type": "function"
    },
    {
      "inputs": [],
      "name": "SOULBOUND_WHITELIST_ROLE",
      "outputs": [
        {
          "internalType": "bytes32",
          "name": "",
          "type": "bytes32"
        }
      ],
      "stateMutability": "view",
      "type": "function"
    },
    {
      "inputs": [],
      "name": "activeIds",
      "outputs": [
        {
          "internalType": "uint256[]",
          "name": "",
          "type": "uint256[]"
        }
      ],
      "stateMutability": "view",
      "type": "function"
    },
    {
      "inputs": [
        {
          "internalType": "address",
          "name": "account",
          "type": "address"
        },
        {
          "internalType": "uint256",
          "name": "id",
          "type": "uint256"
        }
      ],
      "name": "balanceOf",
      "outputs": [
        {
          "internalType": "uint256",
          "name": "",
          "type": "uint256"
        }
      ],
      "stateMutability": "view",
      "type": "function"
    },
    {
      "inputs": [],
      "name": "balanceOfAll",
      "outputs": [
        {
          "internalType": "address[]",
          "name": "owners",
          "type": "address[]"
        },
        {
          "internalType": "uint256[][]",
          "name": "tokenIds",
          "type": "uint256[][]"
        },
        {
          "internalType": "uint256[][]",
          "name": "balances",
          "type": "uint256[][]"
        }
      ],
      "stateMutability": "view",
      "type": "function"
    },
    {
      "inputs": [
        {
          "internalType": "address[]",
          "name": "accounts",
          "type": "address[]"
        },
        {
          "internalType": "uint256[]",
          "name": "ids",
          "type": "uint256[]"
        }
      ],
      "name": "balanceOfBatch",
      "outputs": [
        {
          "internalType": "uint256[]",
          "name": "",
          "type": "uint256[]"
        }
      ],
      "stateMutability": "view",
      "type": "function"
    },
    {
      "inputs": [
        {
          "internalType": "uint256",
          "name": "tokenId",
          "type": "uint256"
        },
        {
          "internalType": "uint256[]",
          "name": "attributeIds",
          "type": "uint256[]"
        }
      ],
      "name": "batchGetAttribute",
      "outputs": [
        {
          "internalType": "uint256[]",
          "name": "",
          "type": "uint256[]"
        }
      ],
      "stateMutability": "view",
      "type": "function"
    },
    {
      "inputs": [
        {
          "internalType": "uint256",
          "name": "tokenId",
          "type": "uint256"
        },
        {
          "internalType": "uint256[]",
          "name": "attributeIds",
          "type": "uint256[]"
        },
        {
          "internalType": "uint256[]",
          "name": "values",
          "type": "uint256[]"
        }
      ],
      "name": "batchSetAttribute",
      "outputs": [],
      "stateMutability": "nonpayable",
      "type": "function"
    },
    {
      "inputs": [
        {
          "internalType": "uint256",
          "name": "tokenId",
          "type": "uint256"
        },
        {
          "internalType": "uint256[]",
          "name": "attributeIds",
          "type": "uint256[]"
        },
        {
          "internalType": "string[]",
          "name": "names",
          "type": "string[]"
        }
      ],
      "name": "batchSetAttributeName",
      "outputs": [],
      "stateMutability": "nonpayable",
      "type": "function"
    },
    {
      "inputs": [
        {
          "internalType": "uint256[]",
          "name": "tokenIds",
          "type": "uint256[]"
        },
        {
          "internalType": "uint256[]",
          "name": "attributeIds",
          "type": "uint256[]"
        },
        {
          "internalType": "string[]",
          "name": "names",
          "type": "string[]"
        }
      ],
      "name": "batchSetAttributeNames",
      "outputs": [],
      "stateMutability": "nonpayable",
      "type": "function"
    },
    {
      "inputs": [
        {
          "internalType": "uint256[]",
          "name": "tokenIds",
          "type": "uint256[]"
        }
      ],
      "name": "batchTokenURI",
      "outputs": [
        {
          "internalType": "string[]",
          "name": "",
          "type": "string[]"
        }
      ],
      "stateMutability": "view",
      "type": "function"
    },
    {
      "inputs": [
        {
          "internalType": "uint256[]",
          "name": "tokenIds",
          "type": "uint256[]"
        }
      ],
      "name": "batchUri",
      "outputs": [
        {
          "internalType": "string[]",
          "name": "",
          "type": "string[]"
        }
      ],
      "stateMutability": "view",
      "type": "function"
    },
    {
      "inputs": [
        {
          "internalType": "address",
          "name": "account",
          "type": "address"
        },
        {
          "internalType": "uint256",
          "name": "id",
          "type": "uint256"
        },
        {
          "internalType": "uint256",
          "name": "value",
          "type": "uint256"
        }
      ],
      "name": "burn",
      "outputs": [],
      "stateMutability": "nonpayable",
      "type": "function"
    },
    {
      "inputs": [
        {
          "internalType": "address",
          "name": "from",
          "type": "address"
        },
        {
          "internalType": "uint256[]",
          "name": "ids",
          "type": "uint256[]"
        },
        {
          "internalType": "uint256[]",
          "name": "amounts",
          "type": "uint256[]"
        }
      ],
      "name": "burnBatch",
      "outputs": [],
      "stateMutability": "nonpayable",
      "type": "function"
    },
    {
      "inputs": [
        {
          "internalType": "uint256",
          "name": "id",
          "type": "uint256"
        }
      ],
      "name": "exists",
      "outputs": [
        {
          "internalType": "bool",
          "name": "",
          "type": "bool"
        }
      ],
      "stateMutability": "view",
      "type": "function"
    },
    {
      "inputs": [
        {
          "internalType": "uint256",
          "name": "tokenId",
          "type": "uint256"
        },
        {
          "internalType": "uint256",
          "name": "attributeId",
          "type": "uint256"
        }
      ],
      "name": "getAttribute",
      "outputs": [
        {
          "internalType": "uint256",
          "name": "",
          "type": "uint256"
        }
      ],
      "stateMutability": "view",
      "type": "function"
    },
    {
      "inputs": [],
      "name": "getBlacklisted",
      "outputs": [
        {
          "internalType": "address[]",
          "name": "",
          "type": "address[]"
        }
      ],
      "stateMutability": "view",
      "type": "function"
    },
    {
      "inputs": [
        {
          "internalType": "bytes32",
          "name": "role",
          "type": "bytes32"
        }
      ],
      "name": "getRoleAdmin",
      "outputs": [
        {
          "internalType": "bytes32",
          "name": "",
          "type": "bytes32"
        }
      ],
      "stateMutability": "view",
      "type": "function"
    },
    {
      "inputs": [
        {
          "internalType": "bytes32",
          "name": "role",
          "type": "bytes32"
        },
        {
          "internalType": "uint256",
          "name": "index",
          "type": "uint256"
        }
      ],
      "name": "getRoleMember",
      "outputs": [
        {
          "internalType": "address",
          "name": "",
          "type": "address"
        }
      ],
      "stateMutability": "view",
      "type": "function"
    },
    {
      "inputs": [
        {
          "internalType": "bytes32",
          "name": "role",
          "type": "bytes32"
        }
      ],
      "name": "getRoleMemberCount",
      "outputs": [
        {
          "internalType": "uint256",
          "name": "",
          "type": "uint256"
        }
      ],
      "stateMutability": "view",
      "type": "function"
    },
    {
      "inputs": [
        {
          "internalType": "bytes32",
          "name": "role",
          "type": "bytes32"
        },
        {
          "internalType": "address",
          "name": "account",
          "type": "address"
        }
      ],
      "name": "grantRole",
      "outputs": [],
      "stateMutability": "nonpayable",
      "type": "function"
    },
    {
      "inputs": [
        {
          "internalType": "bytes32",
          "name": "role",
          "type": "bytes32"
        },
        {
          "internalType": "address",
          "name": "account",
          "type": "address"
        }
      ],
      "name": "hasRole",
      "outputs": [
        {
          "internalType": "bool",
          "name": "",
          "type": "bool"
        }
      ],
      "stateMutability": "view",
      "type": "function"
    },
    {
      "inputs": [],
      "name": "imageBaseURI",
      "outputs": [
        {
          "internalType": "string",
          "name": "",
          "type": "string"
        }
      ],
      "stateMutability": "view",
      "type": "function"
    },
    {
      "inputs": [],
      "name": "initialize",
      "outputs": [],
      "stateMutability": "nonpayable",
      "type": "function"
    },
    {
      "inputs": [
        {
          "internalType": "address",
          "name": "account",
          "type": "address"
        },
        {
          "internalType": "address",
          "name": "operator",
          "type": "address"
        }
      ],
      "name": "isApprovedForAll",
      "outputs": [
        {
          "internalType": "bool",
          "name": "",
          "type": "bool"
        }
      ],
      "stateMutability": "view",
      "type": "function"
    },
    {
      "inputs": [
        {
          "internalType": "address",
          "name": "user",
          "type": "address"
        }
      ],
      "name": "isBlacklisted",
      "outputs": [
        {
          "internalType": "bool",
          "name": "",
          "type": "bool"
        }
      ],
      "stateMutability": "view",
      "type": "function"
    },
    {
      "inputs": [
        {
          "internalType": "uint256",
          "name": "tokenId",
          "type": "uint256"
        }
      ],
      "name": "isSoulbound",
      "outputs": [
        {
          "internalType": "bool",
          "name": "",
          "type": "bool"
        }
      ],
      "stateMutability": "view",
      "type": "function"
    },
    {
      "inputs": [
        {
          "internalType": "address",
          "name": "account",
          "type": "address"
        },
        {
          "internalType": "uint256",
          "name": "id",
          "type": "uint256"
        },
        {
          "internalType": "uint256",
          "name": "amount",
          "type": "uint256"
        },
        {
          "internalType": "bytes",
          "name": "data",
          "type": "bytes"
        }
      ],
      "name": "mint",
      "outputs": [],
      "stateMutability": "nonpayable",
      "type": "function"
    },
    {
      "inputs": [
        {
          "internalType": "address",
          "name": "to",
          "type": "address"
        },
        {
          "internalType": "uint256[]",
          "name": "ids",
          "type": "uint256[]"
        },
        {
          "internalType": "uint256[]",
          "name": "amounts",
          "type": "uint256[]"
        },
        {
          "internalType": "bytes",
          "name": "data",
          "type": "bytes"
        }
      ],
      "name": "mintBatch",
      "outputs": [],
      "stateMutability": "nonpayable",
      "type": "function"
    },
    {
      "inputs": [
        {
          "internalType": "uint256",
          "name": "id",
          "type": "uint256"
        },
        {
          "internalType": "address[]",
          "name": "to",
          "type": "address[]"
        },
        {
          "internalType": "uint256[]",
          "name": "amounts",
          "type": "uint256[]"
        }
      ],
      "name": "mintBatchOf",
      "outputs": [],
      "stateMutability": "nonpayable",
      "type": "function"
    },
    {
      "inputs": [],
      "name": "name",
      "outputs": [
        {
          "internalType": "string",
          "name": "",
          "type": "string"
        }
      ],
      "stateMutability": "view",
      "type": "function"
    },
    {
      "inputs": [],
      "name": "pause",
      "outputs": [],
      "stateMutability": "nonpayable",
      "type": "function"
    },
    {
      "inputs": [],
      "name": "paused",
      "outputs": [
        {
          "internalType": "bool",
          "name": "",
          "type": "bool"
        }
      ],
      "stateMutability": "view",
      "type": "function"
    },
    {
      "inputs": [
        {
          "internalType": "bytes32",
          "name": "role",
          "type": "bytes32"
        },
        {
          "internalType": "address",
          "name": "account",
          "type": "address"
        }
      ],
      "name": "renounceRole",
      "outputs": [],
      "stateMutability": "nonpayable",
      "type": "function"
    },
    {
      "inputs": [
        {
          "internalType": "bytes32",
          "name": "role",
          "type": "bytes32"
        },
        {
          "internalType": "address",
          "name": "account",
          "type": "address"
        }
      ],
      "name": "revokeRole",
      "outputs": [],
      "stateMutability": "nonpayable",
      "type": "function"
    },
    {
      "inputs": [
        {
          "internalType": "address",
          "name": "from",
          "type": "address"
        },
        {
          "internalType": "address",
          "name": "to",
          "type": "address"
        },
        {
          "internalType": "uint256[]",
          "name": "ids",
          "type": "uint256[]"
        },
        {
          "internalType": "uint256[]",
          "name": "amounts",
          "type": "uint256[]"
        },
        {
          "internalType": "bytes",
          "name": "data",
          "type": "bytes"
        }
      ],
      "name": "safeBatchTransferFrom",
      "outputs": [],
      "stateMutability": "nonpayable",
      "type": "function"
    },
    {
      "inputs": [
        {
          "internalType": "address",
          "name": "from",
          "type": "address"
        },
        {
          "internalType": "address",
          "name": "to",
          "type": "address"
        },
        {
          "internalType": "uint256",
          "name": "id",
          "type": "uint256"
        },
        {
          "internalType": "uint256",
          "name": "amount",
          "type": "uint256"
        },
        {
          "internalType": "bytes",
          "name": "data",
          "type": "bytes"
        }
      ],
      "name": "safeTransferFrom",
      "outputs": [],
      "stateMutability": "nonpayable",
      "type": "function"
    },
    {
      "inputs": [
        {
          "internalType": "address",
          "name": "operator",
          "type": "address"
        },
        {
          "internalType": "bool",
          "name": "approved",
          "type": "bool"
        }
      ],
      "name": "setApprovalForAll",
      "outputs": [],
      "stateMutability": "nonpayable",
      "type": "function"
    },
    {
      "inputs": [
        {
          "internalType": "uint256",
          "name": "tokenId",
          "type": "uint256"
        },
        {
          "internalType": "uint256",
          "name": "attributeId",
          "type": "uint256"
        },
        {
          "internalType": "uint256",
          "name": "value",
          "type": "uint256"
        }
      ],
      "name": "setAttribute",
      "outputs": [],
      "stateMutability": "nonpayable",
      "type": "function"
    },
    {
      "inputs": [
        {
          "internalType": "uint256",
          "name": "tokenId",
          "type": "uint256"
        },
        {
          "internalType": "uint256",
          "name": "attributeId",
          "type": "uint256"
        },
        {
          "internalType": "string",
          "name": "name",
          "type": "string"
        }
      ],
      "name": "setAttributeName",
      "outputs": [],
      "stateMutability": "nonpayable",
      "type": "function"
    },
    {
      "inputs": [
        {
          "internalType": "string",
          "name": "_imageBaseURI",
          "type": "string"
        }
      ],
      "name": "setImageBaseURI",
      "outputs": [],
      "stateMutability": "nonpayable",
      "type": "function"
    },
    {
      "inputs": [
        {
          "internalType": "uint256",
          "name": "tokenId",
          "type": "uint256"
        }
      ],
      "name": "setSoulbound",
      "outputs": [],
      "stateMutability": "nonpayable",
      "type": "function"
    },
    {
      "inputs": [
        {
          "internalType": "bytes4",
          "name": "interfaceId",
          "type": "bytes4"
        }
      ],
      "name": "supportsInterface",
      "outputs": [
        {
          "internalType": "bool",
          "name": "",
          "type": "bool"
        }
      ],
      "stateMutability": "view",
      "type": "function"
    },
    {
      "inputs": [],
      "name": "symbol",
      "outputs": [
        {
          "internalType": "string",
          "name": "",
          "type": "string"
        }
      ],
      "stateMutability": "view",
      "type": "function"
    },
    {
      "inputs": [
        {
          "internalType": "address",
          "name": "owner",
          "type": "address"
        }
      ],
      "name": "tokensOf",
      "outputs": [
        {
          "internalType": "uint256[]",
          "name": "tokenIds",
          "type": "uint256[]"
        },
        {
          "internalType": "uint256[]",
          "name": "balances",
          "type": "uint256[]"
        }
      ],
      "stateMutability": "view",
      "type": "function"
    },
    {
      "inputs": [
        {
          "internalType": "uint256",
          "name": "id",
          "type": "uint256"
        }
      ],
      "name": "totalSupply",
      "outputs": [
        {
          "internalType": "uint256",
          "name": "",
          "type": "uint256"
        }
      ],
      "stateMutability": "view",
      "type": "function"
    },
    {
      "inputs": [],
      "name": "unpause",
      "outputs": [],
      "stateMutability": "nonpayable",
      "type": "function"
    },
    {
      "inputs": [
        {
          "internalType": "uint256",
          "name": "tokenId",
          "type": "uint256"
        }
      ],
      "name": "unsetSoulbound",
      "outputs": [],
      "stateMutability": "nonpayable",
      "type": "function"
    },
    {
      "inputs": [
        {
          "internalType": "uint256",
          "name": "tokenId",
          "type": "uint256"
        }
      ],
      "name": "uri",
      "outputs": [
        {
          "internalType": "string",
          "name": "",
          "type": "string"
        }
      ],
      "stateMutability": "view",
      "type": "function"
    }
  ],
  "bytecode": "0x60806040523480156200001157600080fd5b506200001c62000022565b620000e4565b600054610100900460ff16156200008f5760405162461bcd60e51b815260206004820152602760248201527f496e697469616c697a61626c653a20636f6e747261637420697320696e697469604482015266616c697a696e6760c81b606482015260840160405180910390fd5b60005460ff9081161015620000e2576000805460ff191660ff9081179091556040519081527f7f26b83ff96e1f2b6a682f133852f6798a09c465da95921460cefb38474024989060200160405180910390a15b565b61525180620000f46000396000f3fe608060405234801561001057600080fd5b50600436106102d55760003560e01c80638129fc1c11610182578063b0fe60d5116100e9578063d179191a116100a2578063f242432a1161007c578063f242432a1461069a578063f5298aca146106ad578063fd5eea4e146106c0578063fe575a87146106d357600080fd5b8063d179191a14610638578063d547741f1461064b578063e985e9c51461065e57600080fd5b8063b0fe60d5146105cf578063b198ce46146105e2578063bd85b039146105ea578063c385ce25146105fd578063ca15c87314610610578063ce3675ad1461062357600080fd5b806395d89b411161013b57806395d89b411461057157806396c45e2f14610579578063994a95be1461058c578063a17d79ec1461059f578063a217fddf146105b4578063a22cb465146105bc57600080fd5b80638129fc1c146104fd5780638456cb591461050557806387be85d31461050d5780639010d07c14610520578063911ec4701461054b57806391d148541461055e57600080fd5b80633f4ba83a116102415780636b20c454116101fa578063731133e9116101d4578063731133e9146104bc5780637685945e146104cf57806377645839146104e25780637d7a6d13146104ea57600080fd5b80636b20c454146104765780636cfa24cc146104895780636d94f13a1461049c57600080fd5b80633f4ba83a146103fb5780634e1273f4146104035780634f558e791461042357806358870da1146104365780635a3f2672146104495780635c975abb1461046a57600080fd5b8063208e509f11610293578063208e509f1461037557806321e5548c1461038c578063248a9ca31461039f5780632eb2c2d6146103c25780632f2ff15d146103d557806336568abe146103e857600080fd5b8062fdd58e146102da57806301ffc9a71461030057806303fe46ab1461032357806306fdde03146103385780630e89341c1461034d5780631f7fdffa14610360575b600080fd5b6102ed6102e83660046139ec565b6106e6565b6040519081526020015b60405180910390f35b61031361030e366004613a2c565b610781565b60405190151581526020016102f7565b6102ed6000805160206151fc83398151915281565b61034061078c565b6040516102f79190613a99565b61034061035b366004613aac565b61081b565b61037361036e366004613b4a565b6109ff565b005b61037d610ac1565b6040516102f793929190613cbd565b61037361039a366004613d00565b610bf2565b6102ed6103ad366004613aac565b60009081526097602052604090206001015490565b6103736103d0366004613ee2565b610cb8565b6103736103e3366004613f8b565b610d04565b6103736103f6366004613f8b565b610d2e565b610373610dac565b610416610411366004613fb7565b610dcd565b6040516102f79190614081565b610313610431366004613aac565b610ef6565b610373610444366004614094565b610f09565b61045c6104573660046140e3565b610f86565b6040516102f79291906140fe565b6101295460ff16610313565b610373610484366004614123565b61104b565b61037361049736600461418c565b61106d565b6104af6104aa3660046141cd565b6110c3565b6040516102f79190614249565b6103736104ca36600461425c565b6110ce565b6102ed6104dd3660046142bc565b6110f7565b610340611117565b6103736104f83660046142de565b611125565b6103736111e9565b6103736113b7565b61037361051b366004614311565b6113d6565b61053361052e3660046142bc565b61146b565b6040516001600160a01b0390911681526020016102f7565b610313610559366004613aac565b611483565b61031361056c366004613f8b565b6114a7565b6103406114d2565b610373610587366004613aac565b6114e0565b61041661059a36600461438a565b61151d565b6102ed6000805160206151bc83398151915281565b6102ed600081565b6103736105ca3660046143c6565b6115e0565b6104af6105dd3660046141cd565b6115eb565b6104166116a3565b6102ed6105f8366004613aac565b611741565b61037361060b366004613aac565b611758565b6102ed61061e366004613aac565b611794565b61062b6117ab565b6040516102f79190614402565b610373610646366004614415565b6117bd565b610373610659366004613f8b565b61188b565b61031361066c366004614500565b6001600160a01b03918216600090815260666020908152604080832093909416825291909152205460ff1690565b6103736106a836600461452a565b6118b0565b6103736106bb36600461458e565b6118f5565b6103736106ce3660046145c1565b611938565b6103136106e13660046140e3565b6119a3565b60006001600160a01b0383166107565760405162461bcd60e51b815260206004820152602a60248201527f455243313135353a2061646472657373207a65726f206973206e6f742061207660448201526930b634b21037bbb732b960b11b60648201526084015b60405180910390fd5b5060008181526065602090815260408083206001600160a01b03861684529091529020545b92915050565b600061077b826119b1565b610288805461079a906145ed565b80601f01602080910402602001604051908101604052809291908181526020018280546107c6906145ed565b80156108135780601f106107e857610100808354040283529160200191610813565b820191906000526020600020905b8154815290600101906020018083116107f657829003601f168201915b505050505081565b6060600061082b836103e86119d6565b9050600061083b846103e96119d6565b6040805160038082526080820190925291925060009190816020015b61087b60405180606001604052806060815260200160608152602001606081525090565b81526020019060019003908161085757905050905060405180606001604052806040518060400160405280600a815260200169283937b332b9b9b4b7b760b11b81525081526020016040518060200160405280600081525081526020016108e38760006119d6565b815250816000815181106108f9576108f9614627565b60200260200101819052506040518060600160405280604051806040016040528060048152602001635479706560e01b81525081526020016040518060200160405280600081525081526020016109518760016119d6565b8152508160018151811061096757610967614627565b602002602001018190525060405180606001604052806040518060400160405280600681526020016552617269747960d01b81525081526020016040518060200160405280600081525081526020016109c18760026119d6565b815250816002815181106109d7576109d7614627565b60200260200101819052506109f66109f186858585611a85565b611ad1565b95945050505050565b610a1660008051602061519c833981519152611b02565b610ab88787878080602002602001604051908101604052809392919081815260200183836020028082843760009201919091525050604080516020808b0282810182019093528a82529093508a92508991829185019084908082843760009201919091525050604080516020601f8a018190048102820181019092528881529250889150879081908401838280828437600092019190915250611b0c92505050565b50505050505050565b6060806060610ad1610190611c67565b925082516001600160401b03811115610aec57610aec613d99565b604051908082528060200260200182016040528015610b1f57816020015b6060815260200190600190039081610b0a5790505b50915082516001600160401b03811115610b3b57610b3b613d99565b604051908082528060200260200182016040528015610b6e57816020015b6060815260200190600190039081610b595790505b50905060005b8351811015610bec57610b9f848281518110610b9257610b92614627565b6020026020010151610f86565b848381518110610bb157610bb1614627565b60200260200101848481518110610bca57610bca614627565b6020026020010182905282905250508080610be490614653565b915050610b74565b50909192565b6000805160206151fc833981519152610c0a81611b02565b60005b86811015610cae57838382818110610c2757610c27614627565b9050602002810190610c39919061466c565b6101f560008b8b86818110610c5057610c50614627565b9050602002013581526020019081526020016000206000898986818110610c7957610c79614627565b9050602002013581526020019081526020016000209182610c9b9291906146f8565b5080610ca681614653565b915050610c0d565b5050505050505050565b6001600160a01b038516331480610cd45750610cd4853361066c565b610cf05760405162461bcd60e51b815260040161074d906147b7565b610cfd8585858585611c74565b5050505050565b600082815260976020526040902060010154610d1f81611b02565b610d298383611e19565b505050565b6001600160a01b0381163314610d9e5760405162461bcd60e51b815260206004820152602f60248201527f416363657373436f6e74726f6c3a2063616e206f6e6c792072656e6f756e636560448201526e103937b632b9903337b91039b2b63360891b606482015260840161074d565b610da88282611e3b565b5050565b610dc36000805160206151dc833981519152611b02565b610dcb611e5d565b565b60608151835114610e325760405162461bcd60e51b815260206004820152602960248201527f455243313135353a206163636f756e747320616e6420696473206c656e677468604482015268040dad2e6dac2e8c6d60bb1b606482015260840161074d565b600083516001600160401b03811115610e4d57610e4d613d99565b604051908082528060200260200182016040528015610e76578160200160208202803683370190505b50905060005b8451811015610eee57610ec1858281518110610e9a57610e9a614627565b6020026020010151858381518110610eb457610eb4614627565b60200260200101516106e6565b828281518110610ed357610ed3614627565b6020908102919091010152610ee781614653565b9050610e7c565b509392505050565b600080610f0283611741565b1192915050565b6000805160206151fc833981519152610f2181611b02565b60008481526101f5602090815260408083208684529091529020610f458382614806565b50837ffdbb964a9a1d2ac903ed7ebf85795be6728c27e96237552b2805596c759e08818484604051610f789291906148c5565b60405180910390a250505050565b6001600160a01b0381166000908152610192602052604090206060908190610fad90611c67565b915081516001600160401b03811115610fc857610fc8613d99565b604051908082528060200260200182016040528015610ff1578160200160208202803683370190505b50905060005b82518110156110455761101684848381518110610eb457610eb4614627565b82828151811061102857611028614627565b60209081029190910101528061103d81614653565b915050610ff7565b50915091565b6110626000805160206151dc833981519152611b02565b610d29838383611eb0565b6110846000805160206151dc833981519152611b02565b610da882828080601f01602080910402602001604051908101604052809392919081815260200183838082843760009201919091525061204f92505050565b606061077b826115eb565b6110e560008051602061519c833981519152611b02565b6110f18484848461205c565b50505050565b60008281526101f460205260408120611110908361213e565b9392505050565b610225805461079a906145ed565b6000805160206151fc83398151915261113d81611b02565b60005b83518110156111b6576111a384828151811061115e5761115e614627565b602002602001015184838151811061117857611178614627565b60200260200101516101f4600089815260200190815260200160002061214a9092919063ffffffff16565b50806111ae81614653565b915050611140565b50837f383bcccfd5e9b61afe7e6832ca2201fe34d7766a9bbf90fb7152082ddbcd342b8484604051610f789291906140fe565b600054610100900460ff16158080156112095750600054600160ff909116105b806112235750303b158015611223575060005460ff166001145b6112865760405162461bcd60e51b815260206004820152602e60248201527f496e697469616c697a61626c653a20636f6e747261637420697320616c72656160448201526d191e481a5b9a5d1a585b1a5e995960921b606482015260840161074d565b6000805460ff1916600117905580156112a9576000805461ff0019166101001790555b6112c160405180602001604052806000815250612157565b6112c9612187565b6112d1612233565b6112d9612262565b6112e1612262565b6112e9612262565b6112f1612289565b611312604051806060016040528060368152602001615166603691396122e8565b61131a61230f565b61136e60405180604001604052806014815260200173436f736d696320526177205265736f757263657360601b8152506040518060400160405280600681526020016552415752455360d01b815250612356565b80156113b4576000805461ff0019169055604051600181527f7f26b83ff96e1f2b6a682f133852f6798a09c465da95921460cefb38474024989060200160405180910390a15b50565b6113ce6000805160206151dc833981519152611b02565b610dcb612398565b6113ed60008051602061519c833981519152611b02565b60005b838110156114635761145185858381811061140d5761140d614627565b905060200201602081019061142291906140e3565b8785858581811061143557611435614627565b905060200201356040518060200160405280600081525061205c565b8061145b81614653565b9150506113f0565b505050505050565b600082815260c96020526040812061111090836123d6565b600881901c60009081526102576020526040812054600160ff84161b16151561077b565b60009182526097602090815260408084206001600160a01b0393909316845291905290205460ff1690565b610289805461079a906145ed565b6000805160206151dc8339815191526114f881611b02565b600882901c6000908152610257602052604090208054600160ff85161b191690555050565b6060600082516001600160401b0381111561153a5761153a613d99565b604051908082528060200260200182016040528015611563578160200160208202803683370190505b50905060005b8351811015610eee576115b184828151811061158757611587614627565b60200260200101516101f4600088815260200190815260200160002061213e90919063ffffffff16565b8282815181106115c3576115c3614627565b6020908102919091010152806115d881614653565b915050611569565b610da8338383612406565b6060600082516001600160401b0381111561160857611608613d99565b60405190808252806020026020018201604052801561163b57816020015b60608152602001906001900390816116265790505b50905060005b835181101561169c5761166c84828151811061165f5761165f614627565b602002602001015161081b565b82828151811061167e5761167e614627565b6020026020010181905250808061169490614653565b915050611641565b5092915050565b606060006116b261018d6124e6565b90506000816001600160401b038111156116ce576116ce613d99565b6040519080825280602002602001820160405280156116f7578160200160208202803683370190505b50905060005b8281101561169c5761171161018d826124f1565b5082828151811061172457611724614627565b60209081029190910101528061173981614653565b9150506116fd565b60008061175061018d8461250f565b949350505050565b6000805160206151dc83398151915261177081611b02565b600882901c6000908152610257602052604090208054600160ff85161b1790555050565b600081815260c96020526040812061077b9061251e565b60606117b86101c1611c67565b905090565b6000805160206151fc8339815191526117d581611b02565b60005b8351811015611858578281815181106117f3576117f3614627565b60200260200101516101f56000878152602001908152602001600020600086848151811061182357611823614627565b6020026020010151815260200190815260200160002090816118459190614806565b508061185081614653565b9150506117d8565b50837f9d69ed3cc764cf4f579cfc28312dded7bb202f17cc77aa4d0eb3f8bbaecd88e38484604051610f789291906148de565b6000828152609760205260409020600101546118a681611b02565b610d298383611e3b565b6001600160a01b0385163314806118cc57506118cc853361066c565b6118e85760405162461bcd60e51b815260040161074d906147b7565b610cfd8585858585612528565b6001600160a01b0383163314806119115750611911833361066c565b61192d5760405162461bcd60e51b815260040161074d906147b7565b610d29838383612664565b6000805160206151fc83398151915261195081611b02565b60008481526101f46020526040902061196a90848461214a565b50604080518481526020810184905285917f5cb4c5f05283d5a84da3f9f1b0fe8b00d7ea8e1fb833812b52114799bdf1acc79101610f78565b600061077b6101c183612780565b60006001600160e01b03198216635a05180f60e01b148061077b575061077b826127a2565b60008281526101f56020908152604080832084845290915290208054606091906119ff906145ed565b80601f0160208091040260200160405190810160405280929190818152602001828054611a2b906145ed565b8015611a785780601f10611a4d57610100808354040283529160200191611a78565b820191906000526020600020905b815481529060010190602001808311611a5b57829003601f168201915b5050505050905092915050565b60606000611a948686866127c7565b90506000611aa184612831565b90508181604051602001611ab692919061491f565b60405160208183030381529060405292505050949350505050565b6060611adc826129bc565b604051602001611aec919061496c565b6040516020818303038152906040529050919050565b6113b48133612b0e565b6001600160a01b038416611b325760405162461bcd60e51b815260040161074d906149b1565b8151835114611b535760405162461bcd60e51b815260040161074d906149f2565b33611b6381600087878787612b72565b60005b8451811015611bff57838181518110611b8157611b81614627565b602002602001015160656000878481518110611b9f57611b9f614627565b602002602001015181526020019081526020016000206000886001600160a01b03166001600160a01b031681526020019081526020016000206000828254611be79190614a3a565b90915550819050611bf781614653565b915050611b66565b50846001600160a01b031660006001600160a01b0316826001600160a01b03167f4a39dc06d4c0dbc64b70af90fd698a233a518aa5d07e595d983b8c0526c8f7fb8787604051611c509291906140fe565b60405180910390a4610cfd81600087878787612c7a565b6060600061111083612dd5565b8151835114611c955760405162461bcd60e51b815260040161074d906149f2565b6001600160a01b038416611cbb5760405162461bcd60e51b815260040161074d90614a4d565b33611cca818787878787612b72565b60005b8451811015611db3576000858281518110611cea57611cea614627565b602002602001015190506000858381518110611d0857611d08614627565b60209081029190910181015160008481526065835260408082206001600160a01b038e168352909352919091205490915081811015611d595760405162461bcd60e51b815260040161074d90614a92565b60008381526065602090815260408083206001600160a01b038e8116855292528083208585039055908b16825281208054849290611d98908490614a3a565b9250508190555050505080611dac90614653565b9050611ccd565b50846001600160a01b0316866001600160a01b0316826001600160a01b03167f4a39dc06d4c0dbc64b70af90fd698a233a518aa5d07e595d983b8c0526c8f7fb8787604051611e039291906140fe565b60405180910390a4611463818787878787612c7a565b611e238282612e31565b600082815260c960205260409020610d299082612eb7565b611e458282612ecc565b600082815260c960205260409020610d299082612f33565b611e65612f48565b610129805460ff191690557f5db9ee0a495bf2e6ff9c91a7834c1ba4fdd244a5e8aa4e537bd38aeae4b073aa335b6040516001600160a01b03909116815260200160405180910390a1565b6001600160a01b038316611ed65760405162461bcd60e51b815260040161074d90614adc565b8051825114611ef75760405162461bcd60e51b815260040161074d906149f2565b6000339050611f1a81856000868660405180602001604052806000815250612b72565b60005b8351811015611fe2576000848281518110611f3a57611f3a614627565b602002602001015190506000848381518110611f5857611f58614627565b60209081029190910181015160008481526065835260408082206001600160a01b038c168352909352919091205490915081811015611fa95760405162461bcd60e51b815260040161074d90614b1f565b60009283526065602090815260408085206001600160a01b038b1686529091529092209103905580611fda81614653565b915050611f1d565b5060006001600160a01b0316846001600160a01b0316826001600160a01b03167f4a39dc06d4c0dbc64b70af90fd698a233a518aa5d07e595d983b8c0526c8f7fb86866040516120339291906140fe565b60405180910390a46040805160208101909152600090526110f1565b610225610da88282614806565b6001600160a01b0384166120825760405162461bcd60e51b815260040161074d906149b1565b33600061208e85612f92565b9050600061209b85612f92565b90506120ac83600089858589612b72565b60008681526065602090815260408083206001600160a01b038b168452909152812080548792906120de908490614a3a565b909155505060408051878152602081018790526001600160a01b03808a1692600092918716917fc3d58168c5ae7397731d063d5bbf3d657854427343f4c083240f7aacaa2d0f62910160405180910390a4610ab883600089898989612fdd565b60006111108383613098565b6000611750848484613108565b600054610100900460ff1661217e5760405162461bcd60e51b815260040161074d90614b63565b6113b481613125565b600054610100900460ff166121ae5760405162461bcd60e51b815260040161074d90614b63565b6121b6612262565b6121c1600033611e19565b6121d96000805160206151dc83398151915233611e19565b6121f16000805160206151fc83398151915233611e19565b61220960008051602061519c83398151915233611e19565b610dcb7ff18b77e1ef402111bacb54bd5e03494cbdba92fbd1bd3bbcc1ce77e69b42ea6c33611e19565b600054610100900460ff1661225a5760405162461bcd60e51b815260040161074d90614b63565b610dcb613155565b600054610100900460ff16610dcb5760405162461bcd60e51b815260040161074d90614b63565b600054610100900460ff166122b05760405162461bcd60e51b815260040161074d90614b63565b6122b8612262565b6122d06000805160206151dc83398151915233611e19565b610dcb6000805160206151bc83398151915233611e19565b600054610100900460ff1661204f5760405162461bcd60e51b815260040161074d90614b63565b600054610100900460ff166123365760405162461bcd60e51b815260040161074d90614b63565b61233e612262565b610dcb6000805160206151fc83398151915233611e19565b600054610100900460ff1661237d5760405162461bcd60e51b815260040161074d90614b63565b61028861238a8382614806565b50610289610d298282614806565b6123a0613189565b610129805460ff191660011790557f62e78cea01bee320cd4e420270b5ea74000d11b0c9f74754ebdbfc544b05a258611e933390565b600061111083836131d0565b600881901c600090815260208390526040902054600160ff83161b16151592915050565b816001600160a01b0316836001600160a01b0316036124795760405162461bcd60e51b815260206004820152602960248201527f455243313135353a2073657474696e6720617070726f76616c20737461747573604482015268103337b91039b2b63360b91b606482015260840161074d565b6001600160a01b03838116600081815260666020908152604080832094871680845294825291829020805460ff191686151590811790915591519182527f17307eab39ab6107e8899845ad3d59bd9653f200f220920489ca2b5937696c31910160405180910390a3505050565b600061077b826131fa565b60008080806125008686613205565b909450925050505b9250929050565b60008080806125008686613230565b600061077b825490565b6001600160a01b03841661254e5760405162461bcd60e51b815260040161074d90614a4d565b33600061255a85612f92565b9050600061256785612f92565b9050612577838989858589612b72565b60008681526065602090815260408083206001600160a01b038c168452909152902054858110156125ba5760405162461bcd60e51b815260040161074d90614a92565b60008781526065602090815260408083206001600160a01b038d8116855292528083208985039055908a168252812080548892906125f9908490614a3a565b909155505060408051888152602081018890526001600160a01b03808b16928c821692918816917fc3d58168c5ae7397731d063d5bbf3d657854427343f4c083240f7aacaa2d0f62910160405180910390a4612659848a8a8a8a8a612fdd565b505050505050505050565b6001600160a01b03831661268a5760405162461bcd60e51b815260040161074d90614adc565b33600061269684612f92565b905060006126a384612f92565b90506126c383876000858560405180602001604052806000815250612b72565b60008581526065602090815260408083206001600160a01b038a168452909152902054848110156127065760405162461bcd60e51b815260040161074d90614b1f565b60008681526065602090815260408083206001600160a01b038b81168086529184528285208a8703905582518b81529384018a90529092908816917fc3d58168c5ae7397731d063d5bbf3d657854427343f4c083240f7aacaa2d0f62910160405180910390a4604080516020810190915260009052610ab8565b6001600160a01b03811660009081526001830160205260408120541515611110565b60006001600160e01b03198216637965db0b60e01b148061077b575061077b8261326a565b606060006102256127d7866132ba565b6040516020016127e8929190614bae565b604051602081830303815290604052905083612803866132ba565b84836040516020016128189493929190614c35565b6040516020818303038152906040529150509392505050565b60408051602081019091526000808252606091905b83518110156129935760006001855161285f9190614d2d565b821461288457604051806040016040528060018152602001600b60fa1b815250612895565b604051806020016040528060008152505b905060008583815181106128ab576128ab614627565b60200260200101516020015151600014612901578583815181106128d1576128d1614627565b6020026020010151602001516040516020016128ed9190614d40565b604051602081830303815290604052612912565b604051806020016040528060008152505b905060008487858151811061292957612929614627565b6020026020010151600001518389878151811061294857612948614627565b60200260200101516040015186604051602001612969959493929190614d85565b6040516020818303038152906040529050809450505050808061298b90614653565b915050612846565b50806040516020016129a59190614e42565b604051602081830303815290604052915050919050565b606081516000036129db57505060408051602081019091526000815290565b60006040518060600160405280604081526020016151266040913990506000600384516002612a0a9190614a3a565b612a149190614e9a565b612a1f906004614eae565b6001600160401b03811115612a3657612a36613d99565b6040519080825280601f01601f191660200182016040528015612a60576020820181803683370190505b509050600182016020820185865187015b80821015612acc576003820191508151603f8160121c168501518453600184019350603f81600c1c168501518453600184019350603f8160061c168501518453600184019350603f8116850151845350600183019250612a71565b5050600386510660018114612ae85760028114612afb57612b03565b603d6001830353603d6002830353612b03565b603d60018303535b509195945050505050565b612b1882826114a7565b610da857612b30816001600160a01b031660146133ba565b612b3b8360206133ba565b604051602001612b4c929190614ecd565b60408051601f198184030181529082905262461bcd60e51b825261074d91600401613a99565b612b7a613189565b82858560005b8351811015612c6b57612bb7848281518110612b9e57612b9e614627565b60200260200101516102576123e290919063ffffffff16565b1580612bca57506001600160a01b038316155b80612bdc57506001600160a01b038216155b80612bfa5750612bfa6000805160206151bc833981519152846114a7565b80612c185750612c186000805160206151bc833981519152836114a7565b612c595760405162461bcd60e51b8152602060048201526012602482015271151bdad95b881a5cc81cdbdd5b189bdd5b9960721b604482015260640161074d565b80612c6381614653565b915050612b80565b50612659898989898989613555565b6001600160a01b0384163b156114635760405163bc197c8160e01b81526001600160a01b0385169063bc197c8190612cbe9089908990889088908890600401614f42565b6020604051808303816000875af1925050508015612cf9575060408051601f3d908101601f19168201909252612cf691810190614fa0565b60015b612da557612d05614fbd565b806308c379a003612d3e5750612d19614fd9565b80612d245750612d40565b8060405162461bcd60e51b815260040161074d9190613a99565b505b60405162461bcd60e51b815260206004820152603460248201527f455243313135353a207472616e7366657220746f206e6f6e20455243313135356044820152732932b1b2b4bb32b91034b6b83632b6b2b73a32b960611b606482015260840161074d565b6001600160e01b0319811663bc197c8160e01b14610ab85760405162461bcd60e51b815260040161074d90615062565b606081600001805480602002602001604051908101604052809291908181526020018280548015612e2557602002820191906000526020600020905b815481526020019060010190808311612e11575b50505050509050919050565b612e3b82826114a7565b610da85760008281526097602090815260408083206001600160a01b03851684529091529020805460ff19166001179055612e733390565b6001600160a01b0316816001600160a01b0316837f2f8788117e7eff1d82e926ec794901d17c78024a50270940304540a733656f0d60405160405180910390a45050565b6000611110836001600160a01b03841661378b565b612ed682826114a7565b15610da85760008281526097602090815260408083206001600160a01b0385168085529252808320805460ff1916905551339285917ff6391f5c32d9c69d2a47ea670b442974b53935d1edc7fd64eb21e047a839171b9190a45050565b6000611110836001600160a01b0384166137da565b6101295460ff16610dcb5760405162461bcd60e51b815260206004820152601460248201527314185d5cd8589b194e881b9bdd081c185d5cd95960621b604482015260640161074d565b60408051600180825281830190925260609160009190602080830190803683370190505090508281600081518110612fcc57612fcc614627565b602090810291909101015292915050565b6001600160a01b0384163b156114635760405163f23a6e6160e01b81526001600160a01b0385169063f23a6e619061302190899089908890889088906004016150aa565b6020604051808303816000875af192505050801561305c575060408051601f3d908101601f1916820190925261305991810190614fa0565b60015b61306857612d05614fbd565b6001600160e01b0319811663f23a6e6160e01b14610ab85760405162461bcd60e51b815260040161074d90615062565b6000818152600283016020526040812054801515806130bc57506130bc84846138cd565b6111105760405162461bcd60e51b815260206004820152601e60248201527f456e756d657261626c654d61703a206e6f6e6578697374656e74206b65790000604482015260640161074d565b6000828152600284016020526040812082905561175084846138d9565b600054610100900460ff1661314c5760405162461bcd60e51b815260040161074d90614b63565b6113b4816138e5565b600054610100900460ff1661317c5760405162461bcd60e51b815260040161074d90614b63565b610129805460ff19169055565b6101295460ff1615610dcb5760405162461bcd60e51b815260206004820152601060248201526f14185d5cd8589b194e881c185d5cd95960821b604482015260640161074d565b60008260000182815481106131e7576131e7614627565b9060005260206000200154905092915050565b600061077b8261251e565b6000808061321385856123d6565b600081815260029690960160205260409095205494959350505050565b600081815260028301602052604081205481908061325f5761325285856138cd565b9250600091506125089050565b600192509050612508565b60006001600160e01b03198216636cdb3d1360e11b148061329b57506001600160e01b031982166303a24d0760e21b145b8061077b57506301ffc9a760e01b6001600160e01b031983161461077b565b6060816000036132e15750506040805180820190915260018152600360fc1b602082015290565b8160005b811561330b57806132f581614653565b91506133049050600a83614e9a565b91506132e5565b6000816001600160401b0381111561332557613325613d99565b6040519080825280601f01601f19166020018201604052801561334f576020820181803683370190505b5090505b841561175057613364600183614d2d565b9150613371600a866150e4565b61337c906030614a3a565b60f81b81838151811061339157613391614627565b60200101906001600160f81b031916908160001a9053506133b3600a86614e9a565b9450613353565b606060006133c9836002614eae565b6133d4906002614a3a565b6001600160401b038111156133eb576133eb613d99565b6040519080825280601f01601f191660200182016040528015613415576020820181803683370190505b509050600360fc1b8160008151811061343057613430614627565b60200101906001600160f81b031916908160001a905350600f60fb1b8160018151811061345f5761345f614627565b60200101906001600160f81b031916908160001a9053506000613483846002614eae565b61348e906001614a3a565b90505b6001811115613506576f181899199a1a9b1b9c1cb0b131b232b360811b85600f16601081106134c2576134c2614627565b1a60f81b8282815181106134d8576134d8614627565b60200101906001600160f81b031916908160001a90535060049490941c936134ff816150f8565b9050613491565b5083156111105760405162461bcd60e51b815260206004820181905260248201527f537472696e67733a20686578206c656e67746820696e73756666696369656e74604482015260640161074d565b6001600160a01b0385166136065760005b835181101561360457600061359f85838151811061358657613586614627565b602002602001015161018d61250f90919063ffffffff16565b9050809150506135f18583815181106135ba576135ba614627565b60200260200101518584815181106135d4576135d4614627565b6020026020010151836135e79190614a3a565b61018d919061214a565b5050806135fd90614653565b9050613566565b505b6001600160a01b0384166136fc5760005b83518110156136fa57600084828151811061363457613634614627565b60200260200101519050600084838151811061365257613652614627565b6020026020010151905060006136738361018d61213e90919063ffffffff16565b9050818110156136d65760405162461bcd60e51b815260206004820152602860248201527f455243313135353a206275726e20616d6f756e74206578636565647320746f74604482015267616c537570706c7960c01b606482015260840161074d565b6136e561018d8484840361214a565b50505050806136f390614653565b9050613617565b505b60005b8351811015613778576137458685838151811061371e5761371e614627565b602002602001015185848151811061373857613738614627565b60200260200101516138f1565b6137688585838151811061375b5761375b614627565b6020026020010151613946565b61377181614653565b90506136ff565b5061378285613988565b61146384613988565b60008181526001830160205260408120546137d25750815460018181018455600084815260208082209093018490558454848252828601909352604090209190915561077b565b50600061077b565b600081815260018301602052604081205480156138c35760006137fe600183614d2d565b855490915060009061381290600190614d2d565b905081811461387757600086600001828154811061383257613832614627565b906000526020600020015490508087600001848154811061385557613855614627565b6000918252602080832090910192909255918252600188019052604090208390555b85548690806138885761388861510f565b60019003818190600052602060002001600090559055856001016000868152602001908152602001600020600090556001935050505061077b565b600091505061077b565b600061111083836139ac565b6000611110838361378b565b6067610da88282614806565b6001600160a01b03831661390457505050565b600061391084846106e6565b905061391c8282614d2d565b6000036110f1576001600160a01b038416600090815261019260205260409020610cfd90846139c4565b6001600160a01b038216613958575050565b6001600160a01b03821660009081526101926020526040902061397b90826138d9565b50610d2961019083612eb7565b606061399382610f86565b508051909150600003610da857610d2961019083612f33565b60008181526001830160205260408120541515611110565b600061111083836137da565b80356001600160a01b03811681146139e757600080fd5b919050565b600080604083850312156139ff57600080fd5b613a08836139d0565b946020939093013593505050565b6001600160e01b0319811681146113b457600080fd5b600060208284031215613a3e57600080fd5b813561111081613a16565b60005b83811015613a64578181015183820152602001613a4c565b50506000910152565b60008151808452613a85816020860160208601613a49565b601f01601f19169290920160200192915050565b6020815260006111106020830184613a6d565b600060208284031215613abe57600080fd5b5035919050565b60008083601f840112613ad757600080fd5b5081356001600160401b03811115613aee57600080fd5b6020830191508360208260051b850101111561250857600080fd5b60008083601f840112613b1b57600080fd5b5081356001600160401b03811115613b3257600080fd5b60208301915083602082850101111561250857600080fd5b60008060008060008060006080888a031215613b6557600080fd5b613b6e886139d0565b965060208801356001600160401b0380821115613b8a57600080fd5b613b968b838c01613ac5565b909850965060408a0135915080821115613baf57600080fd5b613bbb8b838c01613ac5565b909650945060608a0135915080821115613bd457600080fd5b50613be18a828b01613b09565b989b979a50959850939692959293505050565b600081518084526020808501945080840160005b83811015613c2d5781516001600160a01b031687529582019590820190600101613c08565b509495945050505050565b600081518084526020808501945080840160005b83811015613c2d57815187529582019590820190600101613c4c565b600081518084526020808501808196508360051b8101915082860160005b85811015613cb0578284038952613c9e848351613c38565b98850198935090840190600101613c86565b5091979650505050505050565b606081526000613cd06060830186613bf4565b8281036020840152613ce28186613c68565b90508281036040840152613cf68185613c68565b9695505050505050565b60008060008060008060608789031215613d1957600080fd5b86356001600160401b0380821115613d3057600080fd5b613d3c8a838b01613ac5565b90985096506020890135915080821115613d5557600080fd5b613d618a838b01613ac5565b90965094506040890135915080821115613d7a57600080fd5b50613d8789828a01613ac5565b979a9699509497509295939492505050565b634e487b7160e01b600052604160045260246000fd5b601f8201601f191681016001600160401b0381118282101715613dd457613dd4613d99565b6040525050565b60006001600160401b03821115613df457613df4613d99565b5060051b60200190565b600082601f830112613e0f57600080fd5b81356020613e1c82613ddb565b604051613e298282613daf565b83815260059390931b8501820192828101915086841115613e4957600080fd5b8286015b84811015613e645780358352918301918301613e4d565b509695505050505050565b600082601f830112613e8057600080fd5b81356001600160401b03811115613e9957613e99613d99565b604051613eb0601f8301601f191660200182613daf565b818152846020838601011115613ec557600080fd5b816020850160208301376000918101602001919091529392505050565b600080600080600060a08688031215613efa57600080fd5b613f03866139d0565b9450613f11602087016139d0565b935060408601356001600160401b0380821115613f2d57600080fd5b613f3989838a01613dfe565b94506060880135915080821115613f4f57600080fd5b613f5b89838a01613dfe565b93506080880135915080821115613f7157600080fd5b50613f7e88828901613e6f565b9150509295509295909350565b60008060408385031215613f9e57600080fd5b82359150613fae602084016139d0565b90509250929050565b60008060408385031215613fca57600080fd5b82356001600160401b0380821115613fe157600080fd5b818501915085601f830112613ff557600080fd5b8135602061400282613ddb565b60405161400f8282613daf565b83815260059390931b850182019282810191508984111561402f57600080fd5b948201945b8386101561405457614045866139d0565b82529482019490820190614034565b9650508601359250508082111561406a57600080fd5b5061407785828601613dfe565b9150509250929050565b6020815260006111106020830184613c38565b6000806000606084860312156140a957600080fd5b833592506020840135915060408401356001600160401b038111156140cd57600080fd5b6140d986828701613e6f565b9150509250925092565b6000602082840312156140f557600080fd5b611110826139d0565b6040815260006141116040830185613c38565b82810360208401526109f68185613c38565b60008060006060848603121561413857600080fd5b614141846139d0565b925060208401356001600160401b038082111561415d57600080fd5b61416987838801613dfe565b9350604086013591508082111561417f57600080fd5b506140d986828701613dfe565b6000806020838503121561419f57600080fd5b82356001600160401b038111156141b557600080fd5b6141c185828601613b09565b90969095509350505050565b6000602082840312156141df57600080fd5b81356001600160401b038111156141f557600080fd5b61175084828501613dfe565b600081518084526020808501808196508360051b8101915082860160005b85811015613cb0578284038952614237848351613a6d565b9885019893509084019060010161421f565b6020815260006111106020830184614201565b6000806000806080858703121561427257600080fd5b61427b856139d0565b9350602085013592506040850135915060608501356001600160401b038111156142a457600080fd5b6142b087828801613e6f565b91505092959194509250565b600080604083850312156142cf57600080fd5b50508035926020909101359150565b6000806000606084860312156142f357600080fd5b8335925060208401356001600160401b038082111561415d57600080fd5b60008060008060006060868803121561432957600080fd5b8535945060208601356001600160401b038082111561434757600080fd5b61435389838a01613ac5565b9096509450604088013591508082111561436c57600080fd5b5061437988828901613ac5565b969995985093965092949392505050565b6000806040838503121561439d57600080fd5b8235915060208301356001600160401b038111156143ba57600080fd5b61407785828601613dfe565b600080604083850312156143d957600080fd5b6143e2836139d0565b9150602083013580151581146143f757600080fd5b809150509250929050565b6020815260006111106020830184613bf4565b60008060006060848603121561442a57600080fd5b833592506020808501356001600160401b038082111561444957600080fd5b61445588838901613dfe565b9450604087013591508082111561446b57600080fd5b818701915087601f83011261447f57600080fd5b813561448a81613ddb565b6040516144978282613daf565b82815260059290921b840185019185810191508a8311156144b757600080fd5b8585015b838110156144ef578035858111156144d35760008081fd5b6144e18d89838a0101613e6f565b8452509186019186016144bb565b508096505050505050509250925092565b6000806040838503121561451357600080fd5b61451c836139d0565b9150613fae602084016139d0565b600080600080600060a0868803121561454257600080fd5b61454b866139d0565b9450614559602087016139d0565b9350604086013592506060860135915060808601356001600160401b0381111561458257600080fd5b613f7e88828901613e6f565b6000806000606084860312156145a357600080fd5b6145ac846139d0565b95602085013595506040909401359392505050565b6000806000606084860312156145d657600080fd5b505081359360208301359350604090920135919050565b600181811c9082168061460157607f821691505b60208210810361462157634e487b7160e01b600052602260045260246000fd5b50919050565b634e487b7160e01b600052603260045260246000fd5b634e487b7160e01b600052601160045260246000fd5b6000600182016146655761466561463d565b5060010190565b6000808335601e1984360301811261468357600080fd5b8301803591506001600160401b0382111561469d57600080fd5b60200191503681900382131561250857600080fd5b601f821115610d2957600081815260208120601f850160051c810160208610156146d95750805b601f850160051c820191505b81811015611463578281556001016146e5565b6001600160401b0383111561470f5761470f613d99565b6147238361471d83546145ed565b836146b2565b6000601f841160018114614757576000851561473f5750838201355b600019600387901b1c1916600186901b178355610cfd565b600083815260209020601f19861690835b828110156147885786850135825560209485019460019092019101614768565b50868210156147a55760001960f88860031b161c19848701351681555b505060018560011b0183555050505050565b6020808252602f908201527f455243313135353a2063616c6c6572206973206e6f7420746f6b656e206f776e60408201526e195c881b9bdc88185c1c1c9bdd9959608a1b606082015260800190565b81516001600160401b0381111561481f5761481f613d99565b6148338161482d84546145ed565b846146b2565b602080601f83116001811461486857600084156148505750858301515b600019600386901b1c1916600185901b178555611463565b600085815260208120601f198616915b8281101561489757888601518255948401946001909101908401614878565b50858210156148b55787850151600019600388901b60f8161c191681555b5050505050600190811b01905550565b8281526040602082015260006117506040830184613a6d565b6040815260006148f16040830185613c38565b82810360208401526109f68185614201565b60008151614915818560208601613a49565b9290920192915050565b607b60f81b81526000835161493b816001850160208801613a49565b835190830190614952816001840160208801613a49565b607d60f81b60019290910191820152600201949350505050565b7f646174613a6170706c69636174696f6e2f6a736f6e3b6261736536342c0000008152600082516149a481601d850160208701613a49565b91909101601d0192915050565b60208082526021908201527f455243313135353a206d696e7420746f20746865207a65726f206164647265736040820152607360f81b606082015260800190565b60208082526028908201527f455243313135353a2069647320616e6420616d6f756e7473206c656e677468206040820152670dad2e6dac2e8c6d60c31b606082015260800190565b8082018082111561077b5761077b61463d565b60208082526025908201527f455243313135353a207472616e7366657220746f20746865207a65726f206164604082015264647265737360d81b606082015260800190565b6020808252602a908201527f455243313135353a20696e73756666696369656e742062616c616e636520666f60408201526939103a3930b739b332b960b11b606082015260800190565b60208082526023908201527f455243313135353a206275726e2066726f6d20746865207a65726f206164647260408201526265737360e81b606082015260800190565b60208082526024908201527f455243313135353a206275726e20616d6f756e7420657863656564732062616c604082015263616e636560e01b606082015260800190565b6020808252602b908201527f496e697469616c697a61626c653a20636f6e7472616374206973206e6f74206960408201526a6e697469616c697a696e6760a81b606082015260800190565b6000808454614bbc816145ed565b60018281168015614bd45760018114614be957614c18565b60ff1984168752821515830287019450614c18565b8860005260208060002060005b85811015614c0f5781548a820152908401908201614bf6565b50505082870194505b505050508351614c2c818360208801613a49565b01949350505050565b67113730b6b2911d1160c11b81528451600090614c59816008850160208a01613a49565b61088b60f21b600891840191820181905269113a37b5b2b724b2111d60b11b600a8301528651614c90816014850160208b01613a49565b600b60fa1b601493909101928301526e113232b9b1b934b83a34b7b7111d1160891b60158301528551614cca816024850160208a01613a49565b6024920191820152681134b6b0b3b2911d1160b91b6026820152614d22614d05614cf7602f840187614903565b61088b60f21b815260020190565b70089d1e5c19488e88915490cc4c4d4d488b607a1b815260110190565b979650505050505050565b8181038181111561077b5761077b61463d565b6f113234b9b83630bcafba3cb832911d1160811b81528151600090614d6c816010850160208701613a49565b61088b60f21b6010939091019283015250601201919050565b60008651614d97818460208b01613a49565b6e3d913a3930b4ba2fba3cb832911d1160891b9083019081528651614dc381600f840160208b01613a49565b61088b60f21b600f92909101918201528551614de6816011840160208a01613a49565b68113b30b63ab2911d1160b91b601192909101918201528451614e1081601a840160208901613a49565b61227d60f01b601a92909101918201528351614e3381601c840160208801613a49565b01601c01979650505050505050565b6d2261747472696275746573223a5b60901b81528151600090614e6c81600e850160208701613a49565b605d60f81b600e939091019283015250600f01919050565b634e487b7160e01b600052601260045260246000fd5b600082614ea957614ea9614e84565b500490565b6000816000190483118215151615614ec857614ec861463d565b500290565b7f416363657373436f6e74726f6c3a206163636f756e7420000000000000000000815260008351614f05816017850160208801613a49565b7001034b99036b4b9b9b4b733903937b6329607d1b6017918401918201528351614f36816028840160208801613a49565b01602801949350505050565b6001600160a01b0386811682528516602082015260a060408201819052600090614f6e90830186613c38565b8281036060840152614f808186613c38565b90508281036080840152614f948185613a6d565b98975050505050505050565b600060208284031215614fb257600080fd5b815161111081613a16565b600060033d1115614fd65760046000803e5060005160e01c5b90565b600060443d1015614fe75790565b6040516003193d81016004833e81513d6001600160401b03816024840111818411171561501657505050505090565b828501915081518181111561502e5750505050505090565b843d87010160208285010111156150485750505050505090565b61505760208286010187613daf565b509095945050505050565b60208082526028908201527f455243313135353a204552433131353552656365697665722072656a656374656040820152676420746f6b656e7360c01b606082015260800190565b6001600160a01b03868116825285166020820152604081018490526060810183905260a060808201819052600090614d2290830184613a6d565b6000826150f3576150f3614e84565b500690565b6000816151075761510761463d565b506000190190565b634e487b7160e01b600052603160045260246000fdfe4142434445464748494a4b4c4d4e4f505152535455565758595a6162636465666768696a6b6c6d6e6f707172737475767778797a303132333435363738392b2f68747470733a2f2f696d616765732e636f736d6963756e6976657273652e696f2f636f736d69632d7261772d7265736f75726365732f9f2df0fed2c77648de5860a4cc508cd0818c85b8b8a1ab4ceeef8d981c8956a6f01ee2eb8c5679535f9dfef3543570e280865ec756856c5772fe3e6718c5c074a49807205ce4d355092ef5a8a18f56e8913cf4a201fbe287825b095693c21775364d3d7565c7a8300c96fd53e065d19b65848d7b23b3191adcd55621c744223ca2646970667358221220cc0c86eee2a406b4a548a6ff4d4a13b1723e877a03d0125152fa29754fb3a31a64736f6c63430008100033",
  "linkReferences": {},
  "deployedLinkReferences": {}
}