{
  "_format": "hh-sol-artifact-1",
  "contractName": "ERC20",
  "sourceName": "contracts/marketplace/ERC20.sol",
  "abi": [
    {
      "anonymous": false,
      "inputs": [
        {
          "indexed": true,
          "internalType": "address",
          "name": "owner",
          "type": "address"
        },
        {
          "indexed": true,
          "internalType": "address",
          "name": "spender",
          "type": "address"
        },
        {
          "indexed": false,
          "internalType": "uint256",
          "name": "value",
          "type": "uint256"
        }
      ],
      "name": "Approval",
      "type": "event"
    },
    {
      "anonymous": false,
      "inputs": [
        {
          "indexed": false,
          "internalType": "uint8",
          "name": "version",
          "type": "uint8"
        }
      ],
      "name": "Initialized",
      "type": "event"
    },
    {
      "anonymous": false,
      "inputs": [
        {
          "indexed": true,
          "internalType": "address",
          "name": "previousOwner",
          "type": "address"
        },
        {
          "indexed": true,
          "internalType": "address",
          "name": "newOwner",
          "type": "address"
        }
      ],
      "name": "OwnershipTransferred",
      "type": "event"
    },
    {
      "anonymous": false,
      "inputs": [
        {
          "indexed": true,
          "internalType": "address",
          "name": "from",
          "type": "address"
        },
        {
          "indexed": true,
          "internalType": "address",
          "name": "to",
          "type": "address"
        },
        {
          "indexed": false,
          "internalType": "uint256",
          "name": "value",
          "type": "uint256"
        }
      ],
      "name": "Transfer",
      "type": "event"
    },
    {
      "inputs": [
        {
          "internalType": "address",
          "name": "owner",
          "type": "address"
        },
        {
          "internalType": "address",
          "name": "spender",
          "type": "address"
        }
      ],
      "name": "allowance",
      "outputs": [
        {
          "internalType": "uint256",
          "name": "",
          "type": "uint256"
        }
      ],
      "stateMutability": "view",
      "type": "function"
    },
    {
      "inputs": [
        {
          "internalType": "address",
          "name": "spender",
          "type": "address"
        },
        {
          "internalType": "uint256",
          "name": "amount",
          "type": "uint256"
        }
      ],
      "name": "approve",
      "outputs": [
        {
          "internalType": "bool",
          "name": "",
          "type": "bool"
        }
      ],
      "stateMutability": "nonpayable",
      "type": "function"
    },
    {
      "inputs": [
        {
          "internalType": "address",
          "name": "account",
          "type": "address"
        }
      ],
      "name": "balanceOf",
      "outputs": [
        {
          "internalType": "uint256",
          "name": "",
          "type": "uint256"
        }
      ],
      "stateMutability": "view",
      "type": "function"
    },
    {
      "inputs": [],
      "name": "decimals",
      "outputs": [
        {
          "internalType": "uint8",
          "name": "",
          "type": "uint8"
        }
      ],
      "stateMutability": "view",
      "type": "function"
    },
    {
      "inputs": [
        {
          "internalType": "address",
          "name": "spender",
          "type": "address"
        },
        {
          "internalType": "uint256",
          "name": "subtractedValue",
          "type": "uint256"
        }
      ],
      "name": "decreaseAllowance",
      "outputs": [
        {
          "internalType": "bool",
          "name": "",
          "type": "bool"
        }
      ],
      "stateMutability": "nonpayable",
      "type": "function"
    },
    {
      "inputs": [
        {
          "internalType": "address",
          "name": "spender",
          "type": "address"
        },
        {
          "internalType": "uint256",
          "name": "addedValue",
          "type": "uint256"
        }
      ],
      "name": "increaseAllowance",
      "outputs": [
        {
          "internalType": "bool",
          "name": "",
          "type": "bool"
        }
      ],
      "stateMutability": "nonpayable",
      "type": "function"
    },
    {
      "inputs": [],
      "name": "initialize",
      "outputs": [],
      "stateMutability": "nonpayable",
      "type": "function"
    },
    {
      "inputs": [
        {
          "internalType": "uint256",
          "name": "amount",
          "type": "uint256"
        }
      ],
      "name": "mint",
      "outputs": [],
      "stateMutability": "nonpayable",
      "type": "function"
    },
    {
      "inputs": [],
      "name": "name",
      "outputs": [
        {
          "internalType": "string",
          "name": "",
          "type": "string"
        }
      ],
      "stateMutability": "view",
      "type": "function"
    },
    {
      "inputs": [],
      "name": "owner",
      "outputs": [
        {
          "internalType": "address",
          "name": "",
          "type": "address"
        }
      ],
      "stateMutability": "view",
      "type": "function"
    },
    {
      "inputs": [],
      "name": "renounceOwnership",
      "outputs": [],
      "stateMutability": "nonpayable",
      "type": "function"
    },
    {
      "inputs": [],
      "name": "symbol",
      "outputs": [
        {
          "internalType": "string",
          "name": "",
          "type": "string"
        }
      ],
      "stateMutability": "view",
      "type": "function"
    },
    {
      "inputs": [],
      "name": "totalSupply",
      "outputs": [
        {
          "internalType": "uint256",
          "name": "",
          "type": "uint256"
        }
      ],
      "stateMutability": "view",
      "type": "function"
    },
    {
      "inputs": [
        {
          "internalType": "address",
          "name": "to",
          "type": "address"
        },
        {
          "internalType": "uint256",
          "name": "amount",
          "type": "uint256"
        }
      ],
      "name": "transfer",
      "outputs": [
        {
          "internalType": "bool",
          "name": "",
          "type": "bool"
        }
      ],
      "stateMutability": "nonpayable",
      "type": "function"
    },
    {
      "inputs": [
        {
          "internalType": "address",
          "name": "from",
          "type": "address"
        },
        {
          "internalType": "address",
          "name": "to",
          "type": "address"
        },
        {
          "internalType": "uint256",
          "name": "amount",
          "type": "uint256"
        }
      ],
      "name": "transferFrom",
      "outputs": [
        {
          "internalType": "bool",
          "name": "",
          "type": "bool"
        }
      ],
      "stateMutability": "nonpayable",
      "type": "function"
    },
    {
      "inputs": [
        {
          "internalType": "address",
          "name": "newOwner",
          "type": "address"
        }
      ],
      "name": "transferOwnership",
      "outputs": [],
      "stateMutability": "nonpayable",
      "type": "function"
    }
  ],
  "bytecode": "0x608060405234801561001057600080fd5b50610ec2806100206000396000f3fe608060405234801561001057600080fd5b50600436106101005760003560e01c80638129fc1c11610097578063a457c2d711610066578063a457c2d7146101fe578063a9059cbb14610211578063dd62ed3e14610224578063f2fde38b1461023757600080fd5b80638129fc1c146101c05780638da5cb5b146101c857806395d89b41146101e3578063a0712d68146101eb57600080fd5b8063313ce567116100d3578063313ce5671461016b578063395093511461017a57806370a082311461018d578063715018a6146101b657600080fd5b806306fdde0314610105578063095ea7b31461012357806318160ddd1461014657806323b872dd14610158575b600080fd5b61010d61024a565b60405161011a9190610b84565b60405180910390f35b610136610131366004610bee565b6102dc565b604051901515815260200161011a565b6067545b60405190815260200161011a565b610136610166366004610c18565b6102f6565b6040516012815260200161011a565b610136610188366004610bee565b61031a565b61014a61019b366004610c54565b6001600160a01b031660009081526065602052604090205490565b6101be61033c565b005b6101be610350565b6033546040516001600160a01b03909116815260200161011a565b61010d6104aa565b6101be6101f9366004610c76565b6104b9565b61013661020c366004610bee565b6104cb565b61013661021f366004610bee565b610546565b61014a610232366004610c8f565b610554565b6101be610245366004610c54565b61057f565b60606068805461025990610cc2565b80601f016020809104026020016040519081016040528092919081815260200182805461028590610cc2565b80156102d25780601f106102a7576101008083540402835291602001916102d2565b820191906000526020600020905b8154815290600101906020018083116102b557829003601f168201915b5050505050905090565b6000336102ea8185856105f5565b60019150505b92915050565b600033610304858285610719565b61030f858585610793565b506001949350505050565b6000336102ea81858561032d8383610554565b6103379190610cfc565b6105f5565b61034461093e565b61034e6000610998565b565b600054610100900460ff16158080156103705750600054600160ff909116105b8061038a5750303b15801561038a575060005460ff166001145b6103f25760405162461bcd60e51b815260206004820152602e60248201527f496e697469616c697a61626c653a20636f6e747261637420697320616c72656160448201526d191e481a5b9a5d1a585b1a5e995960921b60648201526084015b60405180910390fd5b6000805460ff191660011790558015610415576000805461ff0019166101001790555b61041d6109ea565b61046160405180604001604052806005815260200164434f434f5360d81b81525060405180604001604052806005815260200164434f434f5360d81b815250610a19565b80156104a7576000805461ff0019169055604051600181527f7f26b83ff96e1f2b6a682f133852f6798a09c465da95921460cefb38474024989060200160405180910390a15b50565b60606069805461025990610cc2565b6104c161093e565b6104a73382610a4e565b600033816104d98286610554565b9050838110156105395760405162461bcd60e51b815260206004820152602560248201527f45524332303a2064656372656173656420616c6c6f77616e63652062656c6f77604482015264207a65726f60d81b60648201526084016103e9565b61030f82868684036105f5565b6000336102ea818585610793565b6001600160a01b03918216600090815260666020908152604080832093909416825291909152205490565b61058761093e565b6001600160a01b0381166105ec5760405162461bcd60e51b815260206004820152602660248201527f4f776e61626c653a206e6577206f776e657220697320746865207a65726f206160448201526564647265737360d01b60648201526084016103e9565b6104a781610998565b6001600160a01b0383166106575760405162461bcd60e51b8152602060048201526024808201527f45524332303a20617070726f76652066726f6d20746865207a65726f206164646044820152637265737360e01b60648201526084016103e9565b6001600160a01b0382166106b85760405162461bcd60e51b815260206004820152602260248201527f45524332303a20617070726f766520746f20746865207a65726f206164647265604482015261737360f01b60648201526084016103e9565b6001600160a01b0383811660008181526066602090815260408083209487168084529482529182902085905590518481527f8c5be1e5ebec7d5bd14f71427d1e84f3dd0314c0f7b2291e5b200ac8c7c3b925910160405180910390a3505050565b60006107258484610554565b9050600019811461078d57818110156107805760405162461bcd60e51b815260206004820152601d60248201527f45524332303a20696e73756666696369656e7420616c6c6f77616e636500000060448201526064016103e9565b61078d84848484036105f5565b50505050565b6001600160a01b0383166107f75760405162461bcd60e51b815260206004820152602560248201527f45524332303a207472616e736665722066726f6d20746865207a65726f206164604482015264647265737360d81b60648201526084016103e9565b6001600160a01b0382166108595760405162461bcd60e51b815260206004820152602360248201527f45524332303a207472616e7366657220746f20746865207a65726f206164647260448201526265737360e81b60648201526084016103e9565b6001600160a01b038316600090815260656020526040902054818110156108d15760405162461bcd60e51b815260206004820152602660248201527f45524332303a207472616e7366657220616d6f756e7420657863656564732062604482015265616c616e636560d01b60648201526084016103e9565b6001600160a01b0380851660008181526065602052604080822086860390559286168082529083902080548601905591517fddf252ad1be2c89b69c2b068fc378daa952ba7f163c4a11628f55a4df523b3ef906109319086815260200190565b60405180910390a361078d565b6033546001600160a01b0316331461034e5760405162461bcd60e51b815260206004820181905260248201527f4f776e61626c653a2063616c6c6572206973206e6f7420746865206f776e657260448201526064016103e9565b603380546001600160a01b038381166001600160a01b0319831681179093556040519116919082907f8be0079c531659141344cd1fd0a4f28419497f9722a3daafe3b4186f6b6457e090600090a35050565b600054610100900460ff16610a115760405162461bcd60e51b81526004016103e990610d1d565b61034e610b14565b600054610100900460ff16610a405760405162461bcd60e51b81526004016103e990610d1d565b610a4a8282610b44565b5050565b6001600160a01b038216610aa45760405162461bcd60e51b815260206004820152601f60248201527f45524332303a206d696e7420746f20746865207a65726f20616464726573730060448201526064016103e9565b8060676000828254610ab69190610cfc565b90915550506001600160a01b0382166000818152606560209081526040808320805486019055518481527fddf252ad1be2c89b69c2b068fc378daa952ba7f163c4a11628f55a4df523b3ef910160405180910390a35050565b505050565b600054610100900460ff16610b3b5760405162461bcd60e51b81526004016103e990610d1d565b61034e33610998565b600054610100900460ff16610b6b5760405162461bcd60e51b81526004016103e990610d1d565b6068610b778382610dcc565b506069610b0f8282610dcc565b600060208083528351808285015260005b81811015610bb157858101830151858201604001528201610b95565b506000604082860101526040601f19601f8301168501019250505092915050565b80356001600160a01b0381168114610be957600080fd5b919050565b60008060408385031215610c0157600080fd5b610c0a83610bd2565b946020939093013593505050565b600080600060608486031215610c2d57600080fd5b610c3684610bd2565b9250610c4460208501610bd2565b9150604084013590509250925092565b600060208284031215610c6657600080fd5b610c6f82610bd2565b9392505050565b600060208284031215610c8857600080fd5b5035919050565b60008060408385031215610ca257600080fd5b610cab83610bd2565b9150610cb960208401610bd2565b90509250929050565b600181811c90821680610cd657607f821691505b602082108103610cf657634e487b7160e01b600052602260045260246000fd5b50919050565b808201808211156102f057634e487b7160e01b600052601160045260246000fd5b6020808252602b908201527f496e697469616c697a61626c653a20636f6e7472616374206973206e6f74206960408201526a6e697469616c697a696e6760a81b606082015260800190565b634e487b7160e01b600052604160045260246000fd5b601f821115610b0f57600081815260208120601f850160051c81016020861015610da55750805b601f850160051c820191505b81811015610dc457828155600101610db1565b505050505050565b815167ffffffffffffffff811115610de657610de6610d68565b610dfa81610df48454610cc2565b84610d7e565b602080601f831160018114610e2f5760008415610e175750858301515b600019600386901b1c1916600185901b178555610dc4565b600085815260208120601f198616915b82811015610e5e57888601518255948401946001909101908401610e3f565b5085821015610e7c5787850151600019600388901b60f8161c191681555b5050505050600190811b0190555056fea2646970667358221220111ab6198a7c81010bfa26928e204247d70513e8ba21690cd9f0ca47d6b547cc64736f6c63430008110033",
  "linkReferences": {},
  "deployedLinkReferences": {}
}