{
  "_format": "hh-sol-artifact-1",
  "contractName": "ERC20",
  "sourceName": "contracts/marketplace/ERC20.sol",
  "abi": [
    {
      "anonymous": false,
      "inputs": [
        {
          "indexed": true,
          "internalType": "address",
          "name": "owner",
          "type": "address"
        },
        {
          "indexed": true,
          "internalType": "address",
          "name": "spender",
          "type": "address"
        },
        {
          "indexed": false,
          "internalType": "uint256",
          "name": "value",
          "type": "uint256"
        }
      ],
      "name": "Approval",
      "type": "event"
    },
    {
      "anonymous": false,
      "inputs": [
        {
          "indexed": false,
          "internalType": "uint8",
          "name": "version",
          "type": "uint8"
        }
      ],
      "name": "Initialized",
      "type": "event"
    },
    {
      "anonymous": false,
      "inputs": [
        {
          "indexed": true,
          "internalType": "address",
          "name": "previousOwner",
          "type": "address"
        },
        {
          "indexed": true,
          "internalType": "address",
          "name": "newOwner",
          "type": "address"
        }
      ],
      "name": "OwnershipTransferred",
      "type": "event"
    },
    {
      "anonymous": false,
      "inputs": [
        {
          "indexed": true,
          "internalType": "address",
          "name": "from",
          "type": "address"
        },
        {
          "indexed": true,
          "internalType": "address",
          "name": "to",
          "type": "address"
        },
        {
          "indexed": false,
          "internalType": "uint256",
          "name": "value",
          "type": "uint256"
        }
      ],
      "name": "Transfer",
      "type": "event"
    },
    {
      "inputs": [
        {
          "internalType": "address",
          "name": "owner",
          "type": "address"
        },
        {
          "internalType": "address",
          "name": "spender",
          "type": "address"
        }
      ],
      "name": "allowance",
      "outputs": [
        {
          "internalType": "uint256",
          "name": "",
          "type": "uint256"
        }
      ],
      "stateMutability": "view",
      "type": "function"
    },
    {
      "inputs": [
        {
          "internalType": "address",
          "name": "spender",
          "type": "address"
        },
        {
          "internalType": "uint256",
          "name": "amount",
          "type": "uint256"
        }
      ],
      "name": "approve",
      "outputs": [
        {
          "internalType": "bool",
          "name": "",
          "type": "bool"
        }
      ],
      "stateMutability": "nonpayable",
      "type": "function"
    },
    {
      "inputs": [
        {
          "internalType": "address",
          "name": "account",
          "type": "address"
        }
      ],
      "name": "balanceOf",
      "outputs": [
        {
          "internalType": "uint256",
          "name": "",
          "type": "uint256"
        }
      ],
      "stateMutability": "view",
      "type": "function"
    },
    {
      "inputs": [],
      "name": "decimals",
      "outputs": [
        {
          "internalType": "uint8",
          "name": "",
          "type": "uint8"
        }
      ],
      "stateMutability": "view",
      "type": "function"
    },
    {
      "inputs": [
        {
          "internalType": "address",
          "name": "spender",
          "type": "address"
        },
        {
          "internalType": "uint256",
          "name": "subtractedValue",
          "type": "uint256"
        }
      ],
      "name": "decreaseAllowance",
      "outputs": [
        {
          "internalType": "bool",
          "name": "",
          "type": "bool"
        }
      ],
      "stateMutability": "nonpayable",
      "type": "function"
    },
    {
      "inputs": [
        {
          "internalType": "address",
          "name": "spender",
          "type": "address"
        },
        {
          "internalType": "uint256",
          "name": "addedValue",
          "type": "uint256"
        }
      ],
      "name": "increaseAllowance",
      "outputs": [
        {
          "internalType": "bool",
          "name": "",
          "type": "bool"
        }
      ],
      "stateMutability": "nonpayable",
      "type": "function"
    },
    {
      "inputs": [],
      "name": "initialize",
      "outputs": [],
      "stateMutability": "nonpayable",
      "type": "function"
    },
    {
      "inputs": [
        {
          "internalType": "uint256",
          "name": "amount",
          "type": "uint256"
        }
      ],
      "name": "mint",
      "outputs": [],
      "stateMutability": "nonpayable",
      "type": "function"
    },
    {
      "inputs": [],
      "name": "name",
      "outputs": [
        {
          "internalType": "string",
          "name": "",
          "type": "string"
        }
      ],
      "stateMutability": "view",
      "type": "function"
    },
    {
      "inputs": [],
      "name": "owner",
      "outputs": [
        {
          "internalType": "address",
          "name": "",
          "type": "address"
        }
      ],
      "stateMutability": "view",
      "type": "function"
    },
    {
      "inputs": [],
      "name": "renounceOwnership",
      "outputs": [],
      "stateMutability": "nonpayable",
      "type": "function"
    },
    {
      "inputs": [],
      "name": "symbol",
      "outputs": [
        {
          "internalType": "string",
          "name": "",
          "type": "string"
        }
      ],
      "stateMutability": "view",
      "type": "function"
    },
    {
      "inputs": [],
      "name": "totalSupply",
      "outputs": [
        {
          "internalType": "uint256",
          "name": "",
          "type": "uint256"
        }
      ],
      "stateMutability": "view",
      "type": "function"
    },
    {
      "inputs": [
        {
          "internalType": "address",
          "name": "to",
          "type": "address"
        },
        {
          "internalType": "uint256",
          "name": "amount",
          "type": "uint256"
        }
      ],
      "name": "transfer",
      "outputs": [
        {
          "internalType": "bool",
          "name": "",
          "type": "bool"
        }
      ],
      "stateMutability": "nonpayable",
      "type": "function"
    },
    {
      "inputs": [
        {
          "internalType": "address",
          "name": "from",
          "type": "address"
        },
        {
          "internalType": "address",
          "name": "to",
          "type": "address"
        },
        {
          "internalType": "uint256",
          "name": "amount",
          "type": "uint256"
        }
      ],
      "name": "transferFrom",
      "outputs": [
        {
          "internalType": "bool",
          "name": "",
          "type": "bool"
        }
      ],
      "stateMutability": "nonpayable",
      "type": "function"
    },
    {
      "inputs": [
        {
          "internalType": "address",
          "name": "newOwner",
          "type": "address"
        }
      ],
      "name": "transferOwnership",
      "outputs": [],
      "stateMutability": "nonpayable",
      "type": "function"
    }
  ],
  "bytecode": "0x608060405234801561001057600080fd5b50610e8d806100206000396000f3fe608060405234801561001057600080fd5b50600436106101005760003560e01c80638129fc1c11610097578063a457c2d711610066578063a457c2d7146101fe578063a9059cbb14610211578063dd62ed3e14610224578063f2fde38b1461023757600080fd5b80638129fc1c146101c05780638da5cb5b146101c857806395d89b41146101e3578063a0712d68146101eb57600080fd5b8063313ce567116100d3578063313ce5671461016b578063395093511461017a57806370a082311461018d578063715018a6146101b657600080fd5b806306fdde0314610105578063095ea7b31461012357806318160ddd1461014657806323b872dd14610158575b600080fd5b61010d61024a565b60405161011a9190610c66565b60405180910390f35b610136610131366004610cd7565b6102dc565b604051901515815260200161011a565b6067545b60405190815260200161011a565b610136610166366004610d01565b6102f4565b6040516012815260200161011a565b610136610188366004610cd7565b610318565b61014a61019b366004610d3d565b6001600160a01b031660009081526065602052604090205490565b6101be61033a565b005b6101be61034e565b6033546040516001600160a01b03909116815260200161011a565b61010d6104a8565b6101be6101f9366004610d5f565b6104b7565b61013661020c366004610cd7565b6104c9565b61013661021f366004610cd7565b610544565b61014a610232366004610d78565b610552565b6101be610245366004610d3d565b61057d565b60606068805461025990610dab565b80601f016020809104026020016040519081016040528092919081815260200182805461028590610dab565b80156102d25780601f106102a7576101008083540402835291602001916102d2565b820191906000526020600020905b8154815290600101906020018083116102b557829003601f168201915b5050505050905090565b6000336102ea8185856105f3565b5060019392505050565b600033610302858285610717565b61030d858585610791565b506001949350505050565b6000336102ea81858561032b8383610552565b6103359190610de6565b6105f3565b61034261095f565b61034c60006109b9565b565b600054610100900460ff161580801561036e5750600054600160ff909116105b806103885750303b158015610388575060005460ff166001145b6103f05760405162461bcd60e51b815260206004820152602e60248201527f496e697469616c697a61626c653a20636f6e747261637420697320616c72656160448201526d191e481a5b9a5d1a585b1a5e995960921b60648201526084015b60405180910390fd5b6000805460ff191660011790558015610413576000805461ff0019166101001790555b61041b610a0b565b61045f60405180604001604052806005815260200164434f434f5360d81b81525060405180604001604052806005815260200164434f434f5360d81b815250610a3a565b80156104a5576000805461ff0019169055604051600181527f7f26b83ff96e1f2b6a682f133852f6798a09c465da95921460cefb38474024989060200160405180910390a15b50565b60606069805461025990610dab565b6104bf61095f565b6104a53382610a6f565b600033816104d78286610552565b9050838110156105375760405162461bcd60e51b815260206004820152602560248201527f45524332303a2064656372656173656420616c6c6f77616e63652062656c6f77604482015264207a65726f60d81b60648201526084016103e7565b61030d82868684036105f3565b6000336102ea818585610791565b6001600160a01b03918216600090815260666020908152604080832093909416825291909152205490565b61058561095f565b6001600160a01b0381166105ea5760405162461bcd60e51b815260206004820152602660248201527f4f776e61626c653a206e6577206f776e657220697320746865207a65726f206160448201526564647265737360d01b60648201526084016103e7565b6104a5816109b9565b6001600160a01b0383166106555760405162461bcd60e51b8152602060048201526024808201527f45524332303a20617070726f76652066726f6d20746865207a65726f206164646044820152637265737360e01b60648201526084016103e7565b6001600160a01b0382166106b65760405162461bcd60e51b815260206004820152602260248201527f45524332303a20617070726f766520746f20746865207a65726f206164647265604482015261737360f01b60648201526084016103e7565b6001600160a01b0383811660008181526066602090815260408083209487168084529482529182902085905590518481527f8c5be1e5ebec7d5bd14f71427d1e84f3dd0314c0f7b2291e5b200ac8c7c3b925910160405180910390a3505050565b60006107238484610552565b9050600019811461078b578181101561077e5760405162461bcd60e51b815260206004820152601d60248201527f45524332303a20696e73756666696369656e7420616c6c6f77616e636500000060448201526064016103e7565b61078b84848484036105f3565b50505050565b6001600160a01b0383166107f55760405162461bcd60e51b815260206004820152602560248201527f45524332303a207472616e736665722066726f6d20746865207a65726f206164604482015264647265737360d81b60648201526084016103e7565b6001600160a01b0382166108575760405162461bcd60e51b815260206004820152602360248201527f45524332303a207472616e7366657220746f20746865207a65726f206164647260448201526265737360e81b60648201526084016103e7565b6001600160a01b038316600090815260656020526040902054818110156108cf5760405162461bcd60e51b815260206004820152602660248201527f45524332303a207472616e7366657220616d6f756e7420657863656564732062604482015265616c616e636560d01b60648201526084016103e7565b6001600160a01b03808516600090815260656020526040808220858503905591851681529081208054849290610906908490610de6565b92505081905550826001600160a01b0316846001600160a01b03167fddf252ad1be2c89b69c2b068fc378daa952ba7f163c4a11628f55a4df523b3ef8460405161095291815260200190565b60405180910390a361078b565b6033546001600160a01b0316331461034c5760405162461bcd60e51b815260206004820181905260248201527f4f776e61626c653a2063616c6c6572206973206e6f7420746865206f776e657260448201526064016103e7565b603380546001600160a01b038381166001600160a01b0319831681179093556040519116919082907f8be0079c531659141344cd1fd0a4f28419497f9722a3daafe3b4186f6b6457e090600090a35050565b600054610100900460ff16610a325760405162461bcd60e51b81526004016103e790610e0c565b61034c610b53565b600054610100900460ff16610a615760405162461bcd60e51b81526004016103e790610e0c565b610a6b8282610b83565b5050565b6001600160a01b038216610ac55760405162461bcd60e51b815260206004820152601f60248201527f45524332303a206d696e7420746f20746865207a65726f20616464726573730060448201526064016103e7565b8060676000828254610ad79190610de6565b90915550506001600160a01b03821660009081526065602052604081208054839290610b04908490610de6565b90915550506040518181526001600160a01b038316906000907fddf252ad1be2c89b69c2b068fc378daa952ba7f163c4a11628f55a4df523b3ef9060200160405180910390a35050565b505050565b600054610100900460ff16610b7a5760405162461bcd60e51b81526004016103e790610e0c565b61034c336109b9565b600054610100900460ff16610baa5760405162461bcd60e51b81526004016103e790610e0c565b8151610bbd906068906020850190610bcd565b508051610b4e9060699060208401905b828054610bd990610dab565b90600052602060002090601f016020900481019282610bfb5760008555610c41565b82601f10610c1457805160ff1916838001178555610c41565b82800160010185558215610c41579182015b82811115610c41578251825591602001919060010190610c26565b50610c4d929150610c51565b5090565b5b80821115610c4d5760008155600101610c52565b600060208083528351808285015260005b81811015610c9357858101830151858201604001528201610c77565b81811115610ca5576000604083870101525b50601f01601f1916929092016040019392505050565b80356001600160a01b0381168114610cd257600080fd5b919050565b60008060408385031215610cea57600080fd5b610cf383610cbb565b946020939093013593505050565b600080600060608486031215610d1657600080fd5b610d1f84610cbb565b9250610d2d60208501610cbb565b9150604084013590509250925092565b600060208284031215610d4f57600080fd5b610d5882610cbb565b9392505050565b600060208284031215610d7157600080fd5b5035919050565b60008060408385031215610d8b57600080fd5b610d9483610cbb565b9150610da260208401610cbb565b90509250929050565b600181811c90821680610dbf57607f821691505b60208210811415610de057634e487b7160e01b600052602260045260246000fd5b50919050565b60008219821115610e0757634e487b7160e01b600052601160045260246000fd5b500190565b6020808252602b908201527f496e697469616c697a61626c653a20636f6e7472616374206973206e6f74206960408201526a6e697469616c697a696e6760a81b60608201526080019056fea26469706673582212205a453f017bb7858728c2d13a18e77f873a21bb593f54418db4f3595516c95c0c64736f6c63430008090033",
  "linkReferences": {},
  "deployedLinkReferences": {}
}