{
  "_format": "hh-sol-artifact-1",
  "contractName": "CosmicTools",
  "sourceName": "contracts/upgradeable/ERC721/CosmicTools/CosmicTools.sol",
  "abi": [
    {
      "inputs": [],
      "stateMutability": "nonpayable",
      "type": "constructor"
    },
    {
      "anonymous": false,
      "inputs": [
        {
          "indexed": true,
          "internalType": "address",
          "name": "owner",
          "type": "address"
        },
        {
          "indexed": true,
          "internalType": "address",
          "name": "approved",
          "type": "address"
        },
        {
          "indexed": true,
          "internalType": "uint256",
          "name": "tokenId",
          "type": "uint256"
        }
      ],
      "name": "Approval",
      "type": "event"
    },
    {
      "anonymous": false,
      "inputs": [
        {
          "indexed": true,
          "internalType": "address",
          "name": "owner",
          "type": "address"
        },
        {
          "indexed": true,
          "internalType": "address",
          "name": "operator",
          "type": "address"
        },
        {
          "indexed": false,
          "internalType": "bool",
          "name": "approved",
          "type": "bool"
        }
      ],
      "name": "ApprovalForAll",
      "type": "event"
    },
    {
      "anonymous": false,
      "inputs": [
        {
          "indexed": false,
          "internalType": "uint8",
          "name": "version",
          "type": "uint8"
        }
      ],
      "name": "Initialized",
      "type": "event"
    },
    {
      "anonymous": false,
      "inputs": [
        {
          "indexed": false,
          "internalType": "address",
          "name": "account",
          "type": "address"
        }
      ],
      "name": "Paused",
      "type": "event"
    },
    {
      "anonymous": false,
      "inputs": [
        {
          "indexed": true,
          "internalType": "bytes32",
          "name": "role",
          "type": "bytes32"
        },
        {
          "indexed": true,
          "internalType": "bytes32",
          "name": "previousAdminRole",
          "type": "bytes32"
        },
        {
          "indexed": true,
          "internalType": "bytes32",
          "name": "newAdminRole",
          "type": "bytes32"
        }
      ],
      "name": "RoleAdminChanged",
      "type": "event"
    },
    {
      "anonymous": false,
      "inputs": [
        {
          "indexed": true,
          "internalType": "bytes32",
          "name": "role",
          "type": "bytes32"
        },
        {
          "indexed": true,
          "internalType": "address",
          "name": "account",
          "type": "address"
        },
        {
          "indexed": true,
          "internalType": "address",
          "name": "sender",
          "type": "address"
        }
      ],
      "name": "RoleGranted",
      "type": "event"
    },
    {
      "anonymous": false,
      "inputs": [
        {
          "indexed": true,
          "internalType": "bytes32",
          "name": "role",
          "type": "bytes32"
        },
        {
          "indexed": true,
          "internalType": "address",
          "name": "account",
          "type": "address"
        },
        {
          "indexed": true,
          "internalType": "address",
          "name": "sender",
          "type": "address"
        }
      ],
      "name": "RoleRevoked",
      "type": "event"
    },
    {
      "anonymous": false,
      "inputs": [
        {
          "indexed": true,
          "internalType": "uint256",
          "name": "tokenId",
          "type": "uint256"
        },
        {
          "indexed": false,
          "internalType": "uint256",
          "name": "customId",
          "type": "uint256"
        },
        {
          "indexed": false,
          "internalType": "string",
          "name": "value",
          "type": "string"
        }
      ],
      "name": "TextUpdated",
      "type": "event"
    },
    {
      "anonymous": false,
      "inputs": [
        {
          "indexed": true,
          "internalType": "address",
          "name": "from",
          "type": "address"
        },
        {
          "indexed": true,
          "internalType": "address",
          "name": "to",
          "type": "address"
        },
        {
          "indexed": true,
          "internalType": "uint256",
          "name": "tokenId",
          "type": "uint256"
        }
      ],
      "name": "Transfer",
      "type": "event"
    },
    {
      "anonymous": false,
      "inputs": [
        {
          "indexed": false,
          "internalType": "address",
          "name": "account",
          "type": "address"
        }
      ],
      "name": "Unpaused",
      "type": "event"
    },
    {
      "anonymous": false,
      "inputs": [
        {
          "indexed": true,
          "internalType": "uint256",
          "name": "tokenId",
          "type": "uint256"
        },
        {
          "indexed": false,
          "internalType": "uint256",
          "name": "treeId",
          "type": "uint256"
        },
        {
          "indexed": false,
          "internalType": "uint256",
          "name": "skillId",
          "type": "uint256"
        },
        {
          "indexed": false,
          "internalType": "uint256",
          "name": "value",
          "type": "uint256"
        }
      ],
      "name": "ValueUpdated",
      "type": "event"
    },
    {
      "inputs": [],
      "name": "CONTRACT_ROLE",
      "outputs": [
        {
          "internalType": "bytes32",
          "name": "",
          "type": "bytes32"
        }
      ],
      "stateMutability": "view",
      "type": "function"
    },
    {
      "inputs": [],
      "name": "DEFAULT_ADMIN_ROLE",
      "outputs": [
        {
          "internalType": "bytes32",
          "name": "",
          "type": "bytes32"
        }
      ],
      "stateMutability": "view",
      "type": "function"
    },
    {
      "inputs": [
        {
          "internalType": "address",
          "name": "to",
          "type": "address"
        },
        {
          "internalType": "uint256",
          "name": "tokenId",
          "type": "uint256"
        }
      ],
      "name": "approve",
      "outputs": [],
      "stateMutability": "nonpayable",
      "type": "function"
    },
    {
      "inputs": [
        {
          "internalType": "address",
          "name": "owner",
          "type": "address"
        }
      ],
      "name": "balanceOf",
      "outputs": [
        {
          "internalType": "uint256",
          "name": "",
          "type": "uint256"
        }
      ],
      "stateMutability": "view",
      "type": "function"
    },
    {
      "inputs": [
        {
          "internalType": "uint256",
          "name": "treeId",
          "type": "uint256"
        },
        {
          "internalType": "uint256[]",
          "name": "skillIds",
          "type": "uint256[]"
        },
        {
          "internalType": "string[]",
          "name": "names",
          "type": "string[]"
        }
      ],
      "name": "batchSetSkillName",
      "outputs": [],
      "stateMutability": "nonpayable",
      "type": "function"
    },
    {
      "inputs": [
        {
          "internalType": "uint256[]",
          "name": "tokenIds",
          "type": "uint256[]"
        }
      ],
      "name": "batchTokenURI",
      "outputs": [
        {
          "internalType": "string[]",
          "name": "",
          "type": "string[]"
        }
      ],
      "stateMutability": "view",
      "type": "function"
    },
    {
      "inputs": [
        {
          "internalType": "uint256[]",
          "name": "tokenIds",
          "type": "uint256[]"
        }
      ],
      "name": "batchTokenURIJSON",
      "outputs": [
        {
          "internalType": "string[]",
          "name": "",
          "type": "string[]"
        }
      ],
      "stateMutability": "view",
      "type": "function"
    },
    {
      "inputs": [
        {
          "internalType": "address",
          "name": "from",
          "type": "address"
        },
        {
          "internalType": "address",
          "name": "to",
          "type": "address"
        },
        {
          "internalType": "uint256[]",
          "name": "tokenIds",
          "type": "uint256[]"
        }
      ],
      "name": "batchTransferFrom",
      "outputs": [],
      "stateMutability": "nonpayable",
      "type": "function"
    },
    {
      "inputs": [
        {
          "internalType": "uint256[]",
          "name": "tokenIds",
          "type": "uint256[]"
        },
        {
          "internalType": "uint256[]",
          "name": "treeIds",
          "type": "uint256[]"
        },
        {
          "internalType": "uint256[]",
          "name": "skillIds",
          "type": "uint256[]"
        },
        {
          "internalType": "uint256[]",
          "name": "values",
          "type": "uint256[]"
        }
      ],
      "name": "batchUpdateSkills",
      "outputs": [],
      "stateMutability": "nonpayable",
      "type": "function"
    },
    {
      "inputs": [
        {
          "internalType": "uint256",
          "name": "tokenId",
          "type": "uint256"
        },
        {
          "internalType": "uint256",
          "name": "treeId",
          "type": "uint256"
        },
        {
          "internalType": "uint256[]",
          "name": "skillIds",
          "type": "uint256[]"
        },
        {
          "internalType": "uint256[]",
          "name": "values",
          "type": "uint256[]"
        }
      ],
      "name": "batchUpdateSkillsOfToken",
      "outputs": [],
      "stateMutability": "nonpayable",
      "type": "function"
    },
    {
      "inputs": [],
      "name": "bridgeContract",
      "outputs": [
        {
          "internalType": "address",
          "name": "",
          "type": "address"
        }
      ],
      "stateMutability": "view",
      "type": "function"
    },
    {
      "inputs": [
        {
          "internalType": "uint256",
          "name": "tokenId",
          "type": "uint256"
        }
      ],
      "name": "bridgeExtraData",
      "outputs": [
        {
          "internalType": "bytes",
          "name": "",
          "type": "bytes"
        }
      ],
      "stateMutability": "view",
      "type": "function"
    },
    {
      "inputs": [
        {
          "internalType": "uint256",
          "name": "tokenId",
          "type": "uint256"
        }
      ],
      "name": "burn",
      "outputs": [],
      "stateMutability": "nonpayable",
      "type": "function"
    },
    {
      "inputs": [],
      "name": "getAllTokenIds",
      "outputs": [
        {
          "internalType": "uint256[]",
          "name": "",
          "type": "uint256[]"
        }
      ],
      "stateMutability": "view",
      "type": "function"
    },
    {
      "inputs": [
        {
          "internalType": "uint256",
          "name": "tokenId",
          "type": "uint256"
        }
      ],
      "name": "getApproved",
      "outputs": [
        {
          "internalType": "address",
          "name": "",
          "type": "address"
        }
      ],
      "stateMutability": "view",
      "type": "function"
    },
    {
      "inputs": [],
      "name": "getBlacklisted",
      "outputs": [
        {
          "internalType": "address[]",
          "name": "",
          "type": "address[]"
        }
      ],
      "stateMutability": "view",
      "type": "function"
    },
    {
      "inputs": [
        {
          "internalType": "uint256",
          "name": "tokenId",
          "type": "uint256"
        }
      ],
      "name": "getDurability",
      "outputs": [
        {
          "internalType": "uint256",
          "name": "current",
          "type": "uint256"
        },
        {
          "internalType": "uint256",
          "name": "max",
          "type": "uint256"
        }
      ],
      "stateMutability": "view",
      "type": "function"
    },
    {
      "inputs": [
        {
          "internalType": "bytes32",
          "name": "role",
          "type": "bytes32"
        }
      ],
      "name": "getRoleAdmin",
      "outputs": [
        {
          "internalType": "bytes32",
          "name": "",
          "type": "bytes32"
        }
      ],
      "stateMutability": "view",
      "type": "function"
    },
    {
      "inputs": [
        {
          "internalType": "bytes32",
          "name": "role",
          "type": "bytes32"
        },
        {
          "internalType": "uint256",
          "name": "index",
          "type": "uint256"
        }
      ],
      "name": "getRoleMember",
      "outputs": [
        {
          "internalType": "address",
          "name": "",
          "type": "address"
        }
      ],
      "stateMutability": "view",
      "type": "function"
    },
    {
      "inputs": [
        {
          "internalType": "bytes32",
          "name": "role",
          "type": "bytes32"
        }
      ],
      "name": "getRoleMemberCount",
      "outputs": [
        {
          "internalType": "uint256",
          "name": "",
          "type": "uint256"
        }
      ],
      "stateMutability": "view",
      "type": "function"
    },
    {
      "inputs": [
        {
          "internalType": "uint256",
          "name": "tokenId",
          "type": "uint256"
        },
        {
          "internalType": "uint256",
          "name": "treeId",
          "type": "uint256"
        },
        {
          "internalType": "uint256",
          "name": "skillId",
          "type": "uint256"
        }
      ],
      "name": "getSkill",
      "outputs": [
        {
          "internalType": "uint256",
          "name": "",
          "type": "uint256"
        }
      ],
      "stateMutability": "view",
      "type": "function"
    },
    {
      "inputs": [
        {
          "internalType": "uint256",
          "name": "treeId",
          "type": "uint256"
        },
        {
          "internalType": "uint256",
          "name": "skillId",
          "type": "uint256"
        }
      ],
      "name": "getSkillName",
      "outputs": [
        {
          "internalType": "string",
          "name": "",
          "type": "string"
        }
      ],
      "stateMutability": "view",
      "type": "function"
    },
    {
      "inputs": [
        {
          "internalType": "uint256",
          "name": "tokenId",
          "type": "uint256"
        },
        {
          "internalType": "uint256",
          "name": "treeId",
          "type": "uint256"
        },
        {
          "internalType": "uint256[]",
          "name": "skillIds",
          "type": "uint256[]"
        }
      ],
      "name": "getSkillsByTree",
      "outputs": [
        {
          "internalType": "uint256[]",
          "name": "",
          "type": "uint256[]"
        }
      ],
      "stateMutability": "view",
      "type": "function"
    },
    {
      "inputs": [
        {
          "internalType": "uint256",
          "name": "tokenId",
          "type": "uint256"
        },
        {
          "internalType": "uint256",
          "name": "customId",
          "type": "uint256"
        }
      ],
      "name": "getString",
      "outputs": [
        {
          "internalType": "string",
          "name": "",
          "type": "string"
        }
      ],
      "stateMutability": "view",
      "type": "function"
    },
    {
      "inputs": [
        {
          "internalType": "uint256[]",
          "name": "tokenIds",
          "type": "uint256[]"
        },
        {
          "internalType": "uint256",
          "name": "customId",
          "type": "uint256"
        }
      ],
      "name": "getStringOfTokens",
      "outputs": [
        {
          "internalType": "string[]",
          "name": "",
          "type": "string[]"
        }
      ],
      "stateMutability": "view",
      "type": "function"
    },
    {
      "inputs": [
        {
          "internalType": "uint256",
          "name": "tokenId",
          "type": "uint256"
        },
        {
          "internalType": "uint256[]",
          "name": "customIds",
          "type": "uint256[]"
        }
      ],
      "name": "getStrings",
      "outputs": [
        {
          "internalType": "string[]",
          "name": "",
          "type": "string[]"
        }
      ],
      "stateMutability": "view",
      "type": "function"
    },
    {
      "inputs": [
        {
          "internalType": "bytes32",
          "name": "role",
          "type": "bytes32"
        },
        {
          "internalType": "address",
          "name": "account",
          "type": "address"
        }
      ],
      "name": "grantRole",
      "outputs": [],
      "stateMutability": "nonpayable",
      "type": "function"
    },
    {
      "inputs": [
        {
          "internalType": "bytes32",
          "name": "role",
          "type": "bytes32"
        },
        {
          "internalType": "address",
          "name": "account",
          "type": "address"
        }
      ],
      "name": "hasRole",
      "outputs": [
        {
          "internalType": "bool",
          "name": "",
          "type": "bool"
        }
      ],
      "stateMutability": "view",
      "type": "function"
    },
    {
      "inputs": [],
      "name": "imageBaseURI",
      "outputs": [
        {
          "internalType": "string",
          "name": "",
          "type": "string"
        }
      ],
      "stateMutability": "view",
      "type": "function"
    },
    {
      "inputs": [],
      "name": "initialize",
      "outputs": [],
      "stateMutability": "nonpayable",
      "type": "function"
    },
    {
      "inputs": [
        {
          "internalType": "address",
          "name": "owner",
          "type": "address"
        },
        {
          "internalType": "address",
          "name": "operator",
          "type": "address"
        }
      ],
      "name": "isApprovedForAll",
      "outputs": [
        {
          "internalType": "bool",
          "name": "",
          "type": "bool"
        }
      ],
      "stateMutability": "view",
      "type": "function"
    },
    {
      "inputs": [
        {
          "internalType": "address",
          "name": "user",
          "type": "address"
        }
      ],
      "name": "isBlacklisted",
      "outputs": [
        {
          "internalType": "bool",
          "name": "",
          "type": "bool"
        }
      ],
      "stateMutability": "view",
      "type": "function"
    },
    {
      "inputs": [
        {
          "internalType": "address",
          "name": "to",
          "type": "address"
        },
        {
          "internalType": "uint256",
          "name": "tokenId",
          "type": "uint256"
        },
        {
          "internalType": "bytes",
          "name": "data",
          "type": "bytes"
        }
      ],
      "name": "mint",
      "outputs": [],
      "stateMutability": "nonpayable",
      "type": "function"
    },
    {
      "inputs": [
        {
          "internalType": "address",
          "name": "to",
          "type": "address"
        },
        {
          "internalType": "bytes",
          "name": "data",
          "type": "bytes"
        }
      ],
      "name": "mint",
      "outputs": [],
      "stateMutability": "nonpayable",
      "type": "function"
    },
    {
      "inputs": [],
      "name": "name",
      "outputs": [
        {
          "internalType": "string",
          "name": "",
          "type": "string"
        }
      ],
      "stateMutability": "view",
      "type": "function"
    },
    {
      "inputs": [],
      "name": "nextId",
      "outputs": [
        {
          "internalType": "uint256",
          "name": "",
          "type": "uint256"
        }
      ],
      "stateMutability": "view",
      "type": "function"
    },
    {
      "inputs": [
        {
          "internalType": "uint256",
          "name": "tokenId",
          "type": "uint256"
        }
      ],
      "name": "ownerOf",
      "outputs": [
        {
          "internalType": "address",
          "name": "",
          "type": "address"
        }
      ],
      "stateMutability": "view",
      "type": "function"
    },
    {
      "inputs": [],
      "name": "pause",
      "outputs": [],
      "stateMutability": "nonpayable",
      "type": "function"
    },
    {
      "inputs": [],
      "name": "paused",
      "outputs": [
        {
          "internalType": "bool",
          "name": "",
          "type": "bool"
        }
      ],
      "stateMutability": "view",
      "type": "function"
    },
    {
      "inputs": [
        {
          "internalType": "bytes32",
          "name": "role",
          "type": "bytes32"
        },
        {
          "internalType": "address",
          "name": "account",
          "type": "address"
        }
      ],
      "name": "renounceRole",
      "outputs": [],
      "stateMutability": "nonpayable",
      "type": "function"
    },
    {
      "inputs": [
        {
          "internalType": "bytes32",
          "name": "role",
          "type": "bytes32"
        },
        {
          "internalType": "address",
          "name": "account",
          "type": "address"
        }
      ],
      "name": "revokeRole",
      "outputs": [],
      "stateMutability": "nonpayable",
      "type": "function"
    },
    {
      "inputs": [
        {
          "internalType": "address",
          "name": "from",
          "type": "address"
        },
        {
          "internalType": "address",
          "name": "to",
          "type": "address"
        },
        {
          "internalType": "uint256",
          "name": "tokenId",
          "type": "uint256"
        }
      ],
      "name": "safeTransferFrom",
      "outputs": [],
      "stateMutability": "nonpayable",
      "type": "function"
    },
    {
      "inputs": [
        {
          "internalType": "address",
          "name": "from",
          "type": "address"
        },
        {
          "internalType": "address",
          "name": "to",
          "type": "address"
        },
        {
          "internalType": "uint256",
          "name": "tokenId",
          "type": "uint256"
        },
        {
          "internalType": "bytes",
          "name": "data",
          "type": "bytes"
        }
      ],
      "name": "safeTransferFrom",
      "outputs": [],
      "stateMutability": "nonpayable",
      "type": "function"
    },
    {
      "inputs": [
        {
          "internalType": "address",
          "name": "operator",
          "type": "address"
        },
        {
          "internalType": "bool",
          "name": "approved",
          "type": "bool"
        }
      ],
      "name": "setApprovalForAll",
      "outputs": [],
      "stateMutability": "nonpayable",
      "type": "function"
    },
    {
      "inputs": [
        {
          "internalType": "address",
          "name": "_bridgeContract",
          "type": "address"
        }
      ],
      "name": "setBridgeContract",
      "outputs": [],
      "stateMutability": "nonpayable",
      "type": "function"
    },
    {
      "inputs": [
        {
          "internalType": "string",
          "name": "_imageBaseURI",
          "type": "string"
        }
      ],
      "name": "setImageBaseURI",
      "outputs": [],
      "stateMutability": "nonpayable",
      "type": "function"
    },
    {
      "inputs": [
        {
          "internalType": "uint256",
          "name": "tokenId",
          "type": "uint256"
        }
      ],
      "name": "setMaxDurability",
      "outputs": [],
      "stateMutability": "nonpayable",
      "type": "function"
    },
    {
      "inputs": [
        {
          "internalType": "uint256",
          "name": "id",
          "type": "uint256"
        }
      ],
      "name": "setNextId",
      "outputs": [],
      "stateMutability": "nonpayable",
      "type": "function"
    },
    {
      "inputs": [
        {
          "internalType": "uint256",
          "name": "treeId",
          "type": "uint256"
        },
        {
          "internalType": "uint256",
          "name": "skillId",
          "type": "uint256"
        },
        {
          "internalType": "string",
          "name": "name",
          "type": "string"
        }
      ],
      "name": "setSkillName",
      "outputs": [],
      "stateMutability": "nonpayable",
      "type": "function"
    },
    {
      "inputs": [
        {
          "internalType": "bytes4",
          "name": "interfaceId",
          "type": "bytes4"
        }
      ],
      "name": "supportsInterface",
      "outputs": [
        {
          "internalType": "bool",
          "name": "",
          "type": "bool"
        }
      ],
      "stateMutability": "view",
      "type": "function"
    },
    {
      "inputs": [],
      "name": "symbol",
      "outputs": [
        {
          "internalType": "string",
          "name": "",
          "type": "string"
        }
      ],
      "stateMutability": "view",
      "type": "function"
    },
    {
      "inputs": [
        {
          "internalType": "uint256",
          "name": "index",
          "type": "uint256"
        }
      ],
      "name": "tokenByIndex",
      "outputs": [
        {
          "internalType": "uint256",
          "name": "",
          "type": "uint256"
        }
      ],
      "stateMutability": "view",
      "type": "function"
    },
    {
      "inputs": [
        {
          "internalType": "address",
          "name": "owner",
          "type": "address"
        },
        {
          "internalType": "uint256",
          "name": "index",
          "type": "uint256"
        }
      ],
      "name": "tokenOfOwnerByIndex",
      "outputs": [
        {
          "internalType": "uint256",
          "name": "",
          "type": "uint256"
        }
      ],
      "stateMutability": "view",
      "type": "function"
    },
    {
      "inputs": [
        {
          "internalType": "uint256",
          "name": "tokenId",
          "type": "uint256"
        }
      ],
      "name": "tokenURI",
      "outputs": [
        {
          "internalType": "string",
          "name": "",
          "type": "string"
        }
      ],
      "stateMutability": "view",
      "type": "function"
    },
    {
      "inputs": [
        {
          "internalType": "uint256",
          "name": "tokenId",
          "type": "uint256"
        }
      ],
      "name": "tokenURIJSON",
      "outputs": [
        {
          "internalType": "string",
          "name": "",
          "type": "string"
        }
      ],
      "stateMutability": "view",
      "type": "function"
    },
    {
      "inputs": [
        {
          "internalType": "address",
          "name": "owner",
          "type": "address"
        }
      ],
      "name": "tokensOfOwner",
      "outputs": [
        {
          "internalType": "uint256[]",
          "name": "",
          "type": "uint256[]"
        }
      ],
      "stateMutability": "view",
      "type": "function"
    },
    {
      "inputs": [],
      "name": "totalSupply",
      "outputs": [
        {
          "internalType": "uint256",
          "name": "",
          "type": "uint256"
        }
      ],
      "stateMutability": "view",
      "type": "function"
    },
    {
      "inputs": [
        {
          "internalType": "address",
          "name": "from",
          "type": "address"
        },
        {
          "internalType": "address",
          "name": "to",
          "type": "address"
        },
        {
          "internalType": "uint256",
          "name": "tokenId",
          "type": "uint256"
        }
      ],
      "name": "transferFrom",
      "outputs": [],
      "stateMutability": "nonpayable",
      "type": "function"
    },
    {
      "inputs": [],
      "name": "unpause",
      "outputs": [],
      "stateMutability": "nonpayable",
      "type": "function"
    },
    {
      "inputs": [
        {
          "internalType": "uint256",
          "name": "tokenId",
          "type": "uint256"
        },
        {
          "internalType": "uint256",
          "name": "treeId",
          "type": "uint256"
        },
        {
          "internalType": "uint256",
          "name": "skillId",
          "type": "uint256"
        },
        {
          "internalType": "uint256",
          "name": "value",
          "type": "uint256"
        }
      ],
      "name": "updateSkill",
      "outputs": [],
      "stateMutability": "nonpayable",
      "type": "function"
    },
    {
      "inputs": [
        {
          "internalType": "uint256",
          "name": "tokenId",
          "type": "uint256"
        },
        {
          "internalType": "uint256",
          "name": "customId",
          "type": "uint256"
        },
        {
          "internalType": "string",
          "name": "value",
          "type": "string"
        }
      ],
      "name": "updateString",
      "outputs": [],
      "stateMutability": "nonpayable",
      "type": "function"
    }
  ],
  "bytecode": "0x60806040523480156200001157600080fd5b506200001c62000022565b620000e4565b600054610100900460ff16156200008f5760405162461bcd60e51b815260206004820152602760248201527f496e697469616c697a61626c653a20636f6e747261637420697320696e697469604482015266616c697a696e6760c81b606482015260840160405180910390fd5b60005460ff9081161015620000e2576000805460ff191660ff9081179091556040519081527f7f26b83ff96e1f2b6a682f133852f6798a09c465da95921460cefb38474024989060200160405180910390a15b565b6153d880620000f46000396000f3fe608060405234801561001057600080fd5b50600436106103af5760003560e01c806377645839116101f4578063b88d4fde1161011a578063d547741f116100ad578063ed0af2091161007c578063ed0af20914610851578063f3993d1114610864578063fe459f5c14610877578063fe575a871461088a57600080fd5b8063d547741f146107dc578063de10c72d146107ef578063e2862b6b14610802578063e985e9c51461081557600080fd5b8063c87b56dd116100e9578063c87b56dd1461078d578063ca15c873146107a0578063cd596583146107b3578063ce3675ad146107c757600080fd5b8063b88d4fde1461074c578063b95805031461075f578063bdbed72214610772578063c7e055901461077a57600080fd5b806394d008ef11610192578063a217fddf11610161578063a217fddf1461070b578063a22cb46514610713578063b510391f14610726578063b5afb1201461073957600080fd5b806394d008ef146106ca57806395d89b41146106dd5780639b9284f9146106e55780639e8afe47146106f857600080fd5b80638456cb59116101ce5780638456cb591461067c5780638462151c146106845780639010d07c146106a457806391d14854146106b757600080fd5b806377645839146106595780637efa1902146106615780638129fc1c1461067457600080fd5b8063352b7533116102d95780634f6ccce7116102775780636352211e116102465780636352211e1461060d5780636cfa24cc146106205780636d94f13a1461063357806370a082311461064657600080fd5b80634f6ccce7146105bf578063509d2927146105d25780635c975abb146105fa57806361b8ce8c1461060557600080fd5b806342842e0e116102b357806342842e0e1461055357806342966c68146105665780634594762a146105795780634b5f4fe6146105ac57600080fd5b8063352b75331461052557806336568abe146105385780633f4ba83a1461054b57600080fd5b8063095ea7b311610351578063248a9ca311610320578063248a9ca3146104bc5780632c303493146104df5780632f2ff15d146104ff5780632f745c591461051257600080fd5b8063095ea7b31461047a5780630b26cf661461048d57806318160ddd146104a057806323b872dd146104a957600080fd5b806306b674441161038d57806306b674441461041457806306fdde0314610434578063079be4931461043c578063081812fc1461044f57600080fd5b8063019e9251146103b457806301ffc9a7146103c957806303fe46ab146103f1575b600080fd5b6103c76103c2366004614038565b61089d565b005b6103dc6103d7366004614067565b6108ba565b60405190151581526020015b60405180910390f35b61040660008051602061538383398151915281565b6040519081526020016103e8565b610427610422366004614084565b6108e5565b6040516103e891906140f6565b610427610994565b61042761044a366004614084565b610a26565b61046261045d366004614038565b610a4f565b6040516001600160a01b0390911681526020016103e8565b6103c7610488366004614120565b610a76565b6103c761049b36600461414a565b610b90565b6101c254610406565b6103c76104b7366004614165565b610bca565b6104066104ca366004614038565b600090815260c9602052604090206001015490565b6104f26104ed36600461429d565b610bfc565b6040516103e891906142d1565b6103c761050d366004614333565b610cb4565b610406610520366004614120565b610cd9565b6104f261053336600461435f565b610d70565b6103c7610546366004614333565b610ece565b6103c7610f4c565b6103c7610561366004614165565b610f6d565b6103c7610574366004614038565b610f88565b6104066105873660046143a3565b6000928352610256602090815260408085209385529281528284209184525290205490565b6103c76105ba36600461443e565b610f94565b6104066105cd366004614038565b610fd7565b6105e56105e0366004614038565b61106c565b604080519283526020830191909152016103e8565b60975460ff166103dc565b6104066110c0565b61046261061b366004614038565b6110d1565b6103c761062e36600461448d565b611131565b6104f26106413660046144c1565b611155565b61040661065436600461414a565b611203565b610427611289565b6103c761066f366004614535565b611318565b6103c76113f6565b6103c7611579565b61069761069236600461414a565b611598565b6040516103e891906145e1565b6104626106b2366004614084565b611631565b6103dc6106c5366004614333565b611650565b6103c76106d8366004614625565b61167b565b610427611716565b6104276106f3366004614038565b611725565b6104f2610706366004614665565b6117c2565b610406600081565b6103c76107213660046146ab565b611918565b6103c76107343660046146e7565b611923565b6103c7610747366004614769565b6119c7565b6103c761075a36600461479b565b611a4c565b6103c761076d366004614038565b611a7e565b610697611acd565b6106976107883660046147f6565b611bb7565b61042761079b366004614038565b611c8c565b6104066107ae366004614038565b611c9f565b6102bb54610462906001600160a01b031681565b6107cf611cb6565b6040516103e8919061483b565b6103c76107ea366004614333565b611cc3565b6103c76107fd36600461487c565b611ce8565b6103c761081036600461495c565b611d83565b6103dc610823366004614997565b6001600160a01b039182166000908152606a6020908152604080832093909416825291909152205460ff1690565b6103c761085f36600461443e565b611e27565b6103c76108723660046149c1565b611ea4565b610427610885366004614038565b611ee6565b6103dc61089836600461414a565b6121ab565b6108b46000805160206153638339815191526121b9565b6102ba55565b60006001600160e01b0319821663808d85fd60e01b14806108df57506108df826121c3565b92915050565b600082815261025760209081526040808320848452909152902080546060919061090e90614a08565b80601f016020809104026020016040519081016040528092919081815260200182805461093a90614a08565b80156109875780601f1061095c57610100808354040283529160200191610987565b820191906000526020600020905b81548152906001019060200180831161096a57829003601f168201915b5050505050905092915050565b6060606580546109a390614a08565b80601f01602080910402602001604051908101604052809291908181526020018280546109cf90614a08565b8015610a1c5780601f106109f157610100808354040283529160200191610a1c565b820191906000526020600020905b8154815290600101906020018083116109ff57829003601f168201915b5050505050905090565b600082815261025860209081526040808320848452909152902080546060919061090e90614a08565b6000610a5a826121ce565b506000908152606960205260409020546001600160a01b031690565b6000610a81826110d1565b9050806001600160a01b0316836001600160a01b031603610af35760405162461bcd60e51b815260206004820152602160248201527f4552433732313a20617070726f76616c20746f2063757272656e74206f776e656044820152603960f91b60648201526084015b60405180910390fd5b336001600160a01b0382161480610b0f5750610b0f8133610823565b610b815760405162461bcd60e51b815260206004820152603d60248201527f4552433732313a20617070726f76652063616c6c6572206973206e6f7420746f60448201527f6b656e206f776e6572206f7220617070726f76656420666f7220616c6c0000006064820152608401610aea565b610b8b838361221e565b505050565b610ba76000805160206153638339815191526121b9565b6102bb80546001600160a01b0319166001600160a01b0392909216919091179055565b610bd5335b8261228c565b610bf15760405162461bcd60e51b8152600401610aea90614a42565b610b8b83838361230b565b6060600082516001600160401b03811115610c1957610c196141a1565b604051908082528060200260200182016040528015610c4c57816020015b6060815260200190600190039081610c375790505b50905060005b8351811015610cad57610c7d848281518110610c7057610c70614a8f565b6020026020010151611ee6565b828281518110610c8f57610c8f614a8f565b60200260200101819052508080610ca590614abb565b915050610c52565b5092915050565b600082815260c96020526040902060010154610ccf816121b9565b610b8b838361247c565b6000610ce483611203565b8210610d465760405162461bcd60e51b815260206004820152602b60248201527f455243373231456e756d657261626c653a206f776e657220696e646578206f7560448201526a74206f6620626f756e647360a81b6064820152608401610aea565b506001600160a01b039190911660009081526101c060209081526040808320938352929052205490565b6060600083516001600160401b03811115610d8d57610d8d6141a1565b604051908082528060200260200182016040528015610dc057816020015b6060815260200190600190039081610dab5790505b50905060005b8451811015610ec6576102586000868381518110610de657610de6614a8f565b6020026020010151815260200190815260200160002060008581526020019081526020016000208054610e1890614a08565b80601f0160208091040260200160405190810160405280929190818152602001828054610e4490614a08565b8015610e915780601f10610e6657610100808354040283529160200191610e91565b820191906000526020600020905b815481529060010190602001808311610e7457829003601f168201915b5050505050828281518110610ea857610ea8614a8f565b60200260200101819052508080610ebe90614abb565b915050610dc6565b509392505050565b6001600160a01b0381163314610f3e5760405162461bcd60e51b815260206004820152602f60248201527f416363657373436f6e74726f6c3a2063616e206f6e6c792072656e6f756e636560448201526e103937b632b9903337b91039b2b63360891b6064820152608401610aea565b610f48828261249e565b5050565b610f636000805160206153638339815191526121b9565b610f6b6124c0565b565b610b8b83838360405180602001604052806000815250611a4c565b610f9181612512565b50565b600080516020615383833981519152610fac816121b9565b6000848152610257602090815260408083208684529091529020610fd08382614b1a565b5050505050565b6000610fe36101c25490565b82106110465760405162461bcd60e51b815260206004820152602c60248201527f455243373231456e756d657261626c653a20676c6f62616c20696e646578206f60448201526b7574206f6620626f756e647360a01b6064820152608401610aea565b6101c2828154811061105a5761105a614a8f565b90600052602060002001549050919050565b6000818152610256602090815260408083208380528252808320600184529091528082205460028352908220548291906110b7905b60048111156110b2576110b2614bd9565b612594565b91509150915091565b60006110cc6102ba5490565b905090565b6000818152606760205260408120546001600160a01b0316806108df5760405162461bcd60e51b8152602060048201526018602482015277115490cdcc8c4e881a5b9d985b1a59081d1bdad95b88125160421b6044820152606401610aea565b6111486000805160206153638339815191526121b9565b610224610f488282614b1a565b60606000826001600160401b03811115611171576111716141a1565b6040519080825280602002602001820160405280156111a457816020015b606081526020019060019003908161118f5790505b50905060005b83811015610ec6576111d38585838181106111c7576111c7614a8f565b90506020020135611c8c565b8282815181106111e5576111e5614a8f565b602002602001018190525080806111fb90614abb565b9150506111aa565b60006001600160a01b03821661126d5760405162461bcd60e51b815260206004820152602960248201527f4552433732313a2061646472657373207a65726f206973206e6f7420612076616044820152683634b21037bbb732b960b91b6064820152608401610aea565b506001600160a01b031660009081526068602052604090205490565b610224805461129790614a08565b80601f01602080910402602001604051908101604052809291908181526020018280546112c390614a08565b80156113105780601f106112e557610100808354040283529160200191611310565b820191906000526020600020905b8154815290600101906020018083116112f357829003601f168201915b505050505081565b600080516020615383833981519152611330816121b9565b60005b85518110156113ee5782818151811061134e5761134e614a8f565b6020026020010151610256600088848151811061136d5761136d614a8f565b60200260200101518152602001908152602001600020600087848151811061139757611397614a8f565b6020026020010151815260200190815260200160002060008684815181106113c1576113c1614a8f565b602002602001015181526020019081526020016000208190555080806113e690614abb565b915050611333565b505050505050565b600054610100900460ff16158080156114165750600054600160ff909116105b806114305750303b158015611430575060005460ff166001145b6114935760405162461bcd60e51b815260206004820152602e60248201527f496e697469616c697a61626c653a20636f6e747261637420697320616c72656160448201526d191e481a5b9a5d1a585b1a5e995960921b6064820152608401610aea565b6000805460ff1916600117905580156114b6576000805461ff0019166101001790555b6115016040518060400160405280600c81526020016b436f736d696320546f6f6c7360a01b81525060405180604001604052806005815260200164544f4f4c5360d81b815250612622565b611509612653565b61151161267e565b6115196126a5565b6115216126d4565b611529612653565b6115316127bc565b8015610f91576000805461ff0019169055604051600181527f7f26b83ff96e1f2b6a682f133852f6798a09c465da95921460cefb38474024989060200160405180910390a150565b6115906000805160206153638339815191526121b9565b610f6b6127eb565b606060006115a583611203565b90506000816001600160401b038111156115c1576115c16141a1565b6040519080825280602002602001820160405280156115ea578160200160208202803683370190505b50905060005b82811015610ec6576116028582610cd9565b82828151811061161457611614614a8f565b60209081029190910101528061162981614abb565b9150506115f0565b600082815260fb602052604081206116499083612828565b9392505050565b600091825260c9602090815260408084206001600160a01b0393909316845291905290205460ff1690565b6116a47f9f2df0fed2c77648de5860a4cc508cd0818c85b8b8a1ab4ceeef8d981c8956a66121b9565b6000818060200190518101906116ba9190614bfc565b90506116cd8360008084600001516119c7565b6116df836000600184602001516119c7565b6116fd83600060028460400151600481111561074757610747614bd9565b6117078484612834565b6117108361284e565b50505050565b6060606680546109a390614a08565b604080516060808201835260008481526102566020908152848220828052815284822080825285832054855260018352808252858320548286015260028352905283812054919390929190820190600481111561178457611784614bd9565b600481111561179557611795614bd9565b8152509050806040516020016117ab9190614c3e565b604051602081830303815290604052915050919050565b6060600082516001600160401b038111156117df576117df6141a1565b60405190808252806020026020018201604052801561181257816020015b60608152602001906001900390816117fd5790505b50905060005b8351811015610ec6576102586000868152602001908152602001600020600085838151811061184957611849614a8f565b60200260200101518152602001908152602001600020805461186a90614a08565b80601f016020809104026020016040519081016040528092919081815260200182805461189690614a08565b80156118e35780601f106118b8576101008083540402835291602001916118e3565b820191906000526020600020905b8154815290600101906020018083116118c657829003601f168201915b50505050508282815181106118fa576118fa614a8f565b6020026020010181905250808061191090614abb565b915050611818565b610f4833838361285a565b61194c7f9f2df0fed2c77648de5860a4cc508cd0818c85b8b8a1ab4ceeef8d981c8956a66121b9565b60006119586102ba5490565b90506119696102ba80546001019055565b6119738482612834565b600061198183850185614c81565b90506119948260008084600001516119c7565b6119a982600060016107478560400151612594565b610fd082600060028460400151600481111561074757610747614bd9565b6000805160206153838339815191526119df816121b9565b6000858152610256602090815260408083208784528252808320868452825291829020849055815186815290810185905290810183905285907fc3bdb5f4a3cbb68ce4ebe3dda3660f3067add044dc5be3a047d818fd416663699060600160405180910390a25050505050565b611a56338361228c565b611a725760405162461bcd60e51b8152600401610aea90614a42565b61171084848484612928565b611a956000805160206153838339815191526121b9565b610f9181600060016107476110a186600060026000928352610256602090815260408085209385529281528284209184525290205490565b6060600060015b612710811015611b0c57611ae78161295b565b15611afa5781611af681614abb565b9250505b80611b0481614abb565b915050611ad4565b506000816001600160401b03811115611b2757611b276141a1565b604051908082528060200260200182016040528015611b50578160200160208202803683370190505b509050600060015b612710811015611bae57611b6b8161295b565b15611b9c5780838381518110611b8357611b83614a8f565b602090810291909101015281611b9881614abb565b9250505b80611ba681614abb565b915050611b58565b50909392505050565b6060600082516001600160401b03811115611bd457611bd46141a1565b604051908082528060200260200182016040528015611bfd578160200160208202803683370190505b50905060005b8351811015611c835760008681526102566020908152604080832088845290915281208551909190869084908110611c3d57611c3d614a8f565b6020026020010151815260200190815260200160002054828281518110611c6657611c66614a8f565b602090810291909101015280611c7b81614abb565b915050611c03565b50949350505050565b60606108df611c9a83611ee6565b612966565b600081815260fb602052604081206108df90612997565b60606110cc6102876129a1565b600082815260c96020526040902060010154611cde816121b9565b610b8b838361249e565b600080516020615383833981519152611d00816121b9565b60005b8351811015610fd057828181518110611d1e57611d1e614a8f565b602002602001015161025760008781526020019081526020016000206000868481518110611d4e57611d4e614a8f565b602002602001015181526020019081526020016000209081611d709190614b1a565b5080611d7b81614abb565b915050611d03565b600080516020615383833981519152611d9b816121b9565b60005b83518110156113ee57828181518110611db957611db9614a8f565b6020026020010151610256600088815260200190815260200160002060008781526020019081526020016000206000868481518110611dfa57611dfa614a8f565b60200260200101518152602001908152602001600020819055508080611e1f90614abb565b915050611d9e565b600080516020615383833981519152611e3f816121b9565b6000848152610258602090815260408083208684529091529020611e638382614b1a565b50837fbf91c112c44cd8e958afe3106b290f594b5e23b83fcc88bdb9ac5da7f00be5698484604051611e96929190614cb7565b60405180910390a250505050565b60005b815181101561171057611ed48484848481518110611ec757611ec7614a8f565b6020026020010151610bca565b80611ede81614abb565b915050611ea7565b6000818152610256602090815260408083208380528252808320909152812054606091611f146064836108e5565b600085815261025660209081526040808320838052825280832060028452909152812054919250906004811115611f4d57611f4d614bd9565b60008681526102566020908152604080832083805282528083206001845290915281205491925090611f83906129ae565b6129ae565b611f8f611f7e84612594565b604051602001611fa0929190614cec565b60408051808303601f19018152600380845260808401909252925060009190816020015b611ff160405180608001604052806060815260200160608152602001606081526020016000151581525090565b815260200190600190039081611fc45750506040805160c081018252600a6080820190815269283937b332b9b9b4b7b760b11b60a0830152815281516020808201845260008252820152919250810161204b6001886108e5565b8152602001600015158152508160008151811061206a5761206a614a8f565b602002602001018190525060405180608001604052806040518060400160405280600a8152602001694475726162696c69747960b01b815250815260200160405180602001604052806000815250815260200183815260200160001515815250816001815181106120dd576120dd614a8f565b602002602001018190525060405180608001604052806040518060400160405280600681526020016552617269747960d01b815250815260200160405180602001604052806000815250815260200161213585612a40565b8152602001600015158152508160028151811061215457612154614a8f565b60200260200101819052506121a087856040518060400160405280602081526020017f436f736d696320546f6f6c7320666f7220436f736d696320556e69766572736581525084612b5a565b979650505050505050565b60006108df61028783612ba9565b610f918133612bcb565b60006108df82612c24565b6121d78161295b565b610f915760405162461bcd60e51b8152602060048201526018602482015277115490cdcc8c4e881a5b9d985b1a59081d1bdad95b88125160421b6044820152606401610aea565b600081815260696020526040902080546001600160a01b0319166001600160a01b0384169081179091558190612253826110d1565b6001600160a01b03167f8c5be1e5ebec7d5bd14f71427d1e84f3dd0314c0f7b2291e5b200ac8c7c3b92560405160405180910390a45050565b600080612298836110d1565b9050806001600160a01b0316846001600160a01b031614806122df57506001600160a01b038082166000908152606a602090815260408083209388168352929052205460ff165b806123035750836001600160a01b03166122f884610a4f565b6001600160a01b0316145b949350505050565b826001600160a01b031661231e826110d1565b6001600160a01b0316146123445760405162461bcd60e51b8152600401610aea90614d28565b6001600160a01b0382166123a65760405162461bcd60e51b8152602060048201526024808201527f4552433732313a207472616e7366657220746f20746865207a65726f206164646044820152637265737360e01b6064820152608401610aea565b6123b38383836001612c49565b826001600160a01b03166123c6826110d1565b6001600160a01b0316146123ec5760405162461bcd60e51b8152600401610aea90614d28565b600081815260696020908152604080832080546001600160a01b03199081169091556001600160a01b0387811680865260688552838620805460001901905590871680865283862080546001019055868652606790945282852080549092168417909155905184937fddf252ad1be2c89b69c2b068fc378daa952ba7f163c4a11628f55a4df523b3ef91a4505050565b6124868282612cfd565b600082815260fb60205260409020610b8b9082612d83565b6124a88282612d98565b600082815260fb60205260409020610b8b9082612dff565b6124c8612e14565b6097805460ff191690557f5db9ee0a495bf2e6ff9c91a7834c1ba4fdd244a5e8aa4e537bd38aeae4b073aa335b6040516001600160a01b03909116815260200160405180910390a1565b61251b33610bcf565b61257e5760405162461bcd60e51b815260206004820152602e60248201527f4552433732313a2063616c6c6572206973206e6f7420746f6b656e206f776e6560448201526d1c881b9bdc88185c1c1c9bdd995960921b6064820152608401610aea565b61258a61018d82612e5d565b50610f9181612e69565b600060048260048111156125aa576125aa614bd9565b146126165760038260048111156125c3576125c3614bd9565b1461260f5760028260048111156125dc576125dc614bd9565b146126085760018260048111156125f5576125f5614bd9565b1461260157600a612619565b600f612619565b601e612619565b6032612619565b60645b60ff1692915050565b600054610100900460ff166126495760405162461bcd60e51b8152600401610aea90614d6d565b610f488282612f0c565b600054610100900460ff1661267a5760405162461bcd60e51b8152600401610aea90614d6d565b610f6b5b600054610100900460ff16610f6b5760405162461bcd60e51b8152600401610aea90614d6d565b600054610100900460ff166126cc5760405162461bcd60e51b8152600401610aea90614d6d565b610f6b612f4c565b600054610100900460ff166126fb5760405162461bcd60e51b8152600401610aea90614d6d565b61270361267e565b61270e60003361247c565b6127266000805160206153638339815191523361247c565b61273e6000805160206153838339815191523361247c565b6127687f9f2df0fed2c77648de5860a4cc508cd0818c85b8b8a1ab4ceeef8d981c8956a63361247c565b6127927ff18b77e1ef402111bacb54bd5e03494cbdba92fbd1bd3bbcc1ce77e69b42ea6c3361247c565b610f6b7f52ba824bfabc2bcfcdf7f0edbb486ebb05e1836c90e78047efeb949990f72e5f3361247c565b600054610100900460ff166127e35760405162461bcd60e51b8152600401610aea90614d6d565b610f6b612f7f565b6127f3612fc6565b6097805460ff191660011790557f62e78cea01bee320cd4e420270b5ea74000d11b0c9f74754ebdbfc544b05a2586124f53390565b6000611649838361300c565b610f48828260405180602001604052806000815250613036565b610f4861018d82613069565b816001600160a01b0316836001600160a01b0316036128bb5760405162461bcd60e51b815260206004820152601960248201527f4552433732313a20617070726f766520746f2063616c6c6572000000000000006044820152606401610aea565b6001600160a01b038381166000818152606a6020908152604080832094871680845294825291829020805460ff191686151590811790915591519182527f17307eab39ab6107e8899845ad3d59bd9653f200f220920489ca2b5937696c31910160405180910390a3505050565b61293384848461230b565b61293f84848484613075565b6117105760405162461bcd60e51b8152600401610aea90614db8565b60006108df82613173565b606061297182613192565b6040516020016129819190614e0a565b6040516020818303038152906040529050919050565b60006108df825490565b60606000611649836132e4565b606060006129bb83613340565b60010190506000816001600160401b038111156129da576129da6141a1565b6040519080825280601f01601f191660200182016040528015612a04576020820181803683370190505b5090508181016020015b600019016f181899199a1a9b1b9c1cb0b131b232b360811b600a86061a8153600a8504945084612a0e57509392505050565b60606004826004811115612a5657612a56614bd9565b03612a805750506040805180820190915260098152684c6567656e6461727960b81b602082015290565b6003826004811115612a9457612a94614bd9565b03612abd575050604080518082019091526008815267135e5d1a1a58d85b60c21b602082015290565b6002826004811115612ad157612ad1614bd9565b03612af65750506040805180820190915260048152635261726560e01b602082015290565b6001826004811115612b0a57612b0a614bd9565b03612b335750506040805180820190915260088152672ab731b7b6b6b7b760c11b602082015290565b505060408051808201909152600681526521b7b6b6b7b760d11b602082015290565b919050565b60606000612b67866110d1565b90506000610224612b7788613418565b604051602001612b88929190614e4f565b60405160208183030381529060405290506121a0878388848960028a613469565b6001600160a01b03811660009081526001830160205260408120541515611649565b612bd58282611650565b610f4857612be2816134b5565b612bed8360206134c7565b604051602001612bfe929190614ed6565b60408051601f198184030181529082905262461bcd60e51b8252610aea916004016140f6565b60006001600160e01b0319821663780e9d6360e01b14806108df57506108df82613662565b612c51612fc6565b83612c5e61028782612ba9565b15612ca15760405162461bcd60e51b8152602060048201526013602482015272426c61636b6c6973746564206164647265737360681b6044820152606401610aea565b83612cae61028782612ba9565b15612cf15760405162461bcd60e51b8152602060048201526013602482015272426c61636b6c6973746564206164647265737360681b6044820152606401610aea565b6113ee8686868661366d565b612d078282611650565b610f4857600082815260c9602090815260408083206001600160a01b03851684529091529020805460ff19166001179055612d3f3390565b6001600160a01b0316816001600160a01b0316837f2f8788117e7eff1d82e926ec794901d17c78024a50270940304540a733656f0d60405160405180910390a45050565b6000611649836001600160a01b038416613679565b612da28282611650565b15610f4857600082815260c9602090815260408083206001600160a01b0385168085529252808320805460ff1916905551339285917ff6391f5c32d9c69d2a47ea670b442974b53935d1edc7fd64eb21e047a839171b9190a45050565b6000611649836001600160a01b0384166136c8565b60975460ff16610f6b5760405162461bcd60e51b815260206004820152601460248201527314185d5cd8589b194e881b9bdd081c185d5cd95960621b6044820152606401610aea565b60006116498383613679565b6000612e74826110d1565b9050612e84816000846001612c49565b612e8d826110d1565b600083815260696020908152604080832080546001600160a01b03199081169091556001600160a01b0385168085526068845282852080546000190190558785526067909352818420805490911690555192935084927fddf252ad1be2c89b69c2b068fc378daa952ba7f163c4a11628f55a4df523b3ef908390a45050565b600054610100900460ff16612f335760405162461bcd60e51b8152600401610aea90614d6d565b6065612f3f8382614b1a565b506066610b8b8282614b1a565b600054610100900460ff16612f735760405162461bcd60e51b8152600401610aea90614d6d565b6097805460ff19169055565b600054610100900460ff16612fa65760405162461bcd60e51b8152600401610aea90614d6d565b612fae61267e565b610f6b6000805160206153838339815191523361247c565b60975460ff1615610f6b5760405162461bcd60e51b815260206004820152601060248201526f14185d5cd8589b194e881c185d5cd95960821b6044820152606401610aea565b600082600001828154811061302357613023614a8f565b9060005260206000200154905092915050565b61304083836137bb565b61304d6000848484613075565b610b8b5760405162461bcd60e51b8152600401610aea90614db8565b600061164983836136c8565b60006001600160a01b0384163b1561316b57604051630a85bd0160e11b81526001600160a01b0385169063150b7a02906130b9903390899088908890600401614f4b565b6020604051808303816000875af19250505080156130f4575060408051601f3d908101601f191682019092526130f191810190614f88565b60015b613151573d808015613122576040519150601f19603f3d011682016040523d82523d6000602084013e613127565b606091505b5080516000036131495760405162461bcd60e51b8152600401610aea90614db8565b805181602001fd5b6001600160e01b031916630a85bd0160e11b149050612303565b506001612303565b6000818152606760205260408120546001600160a01b031615156108df565b606081516000036131b157505060408051602081019091526000815290565b600060405180606001604052806040815260200161532360409139905060006003845160026131e09190614fa5565b6131ea9190614fb8565b6131f5906004614fda565b6001600160401b0381111561320c5761320c6141a1565b6040519080825280601f01601f191660200182016040528015613236576020820181803683370190505b509050600182016020820185865187015b808210156132a2576003820191508151603f8160121c168501518453600184019350603f81600c1c168501518453600184019350603f8160061c168501518453600184019350603f8116850151845350600183019250613247565b50506003865106600181146132be57600281146132d1576132d9565b603d6001830353603d60028303536132d9565b603d60018303535b509195945050505050565b60608160000180548060200260200160405190810160405280929190818152602001828054801561333457602002820191906000526020600020905b815481526020019060010190808311613320575b50505050509050919050565b60008072184f03e93ff9f4daa797ed6e38ed64bf6a1f0160401b831061337f5772184f03e93ff9f4daa797ed6e38ed64bf6a1f0160401b830492506040015b6d04ee2d6d415b85acef810000000083106133ab576d04ee2d6d415b85acef8100000000830492506020015b662386f26fc1000083106133c957662386f26fc10000830492506010015b6305f5e10083106133e1576305f5e100830492506008015b61271083106133f557612710830492506004015b60648310613407576064830492506002015b600a83106108df5760010192915050565b6000818152610256602090815260408083208380528252808320600284529091528082205482805290822054606092919061345490600f614fda565b61345e9190614fa5565b9050611649816129ae565b6060600061347b898989898989613936565b905080613487846139a0565b604051602001613498929190614ff1565b604051602081830303815290604052915050979650505050505050565b60606108df6001600160a01b03831660145b606060006134d6836002614fda565b6134e1906002614fa5565b6001600160401b038111156134f8576134f86141a1565b6040519080825280601f01601f191660200182016040528015613522576020820181803683370190505b509050600360fc1b8160008151811061353d5761353d614a8f565b60200101906001600160f81b031916908160001a905350600f60fb1b8160018151811061356c5761356c614a8f565b60200101906001600160f81b031916908160001a9053506000613590846002614fda565b61359b906001614fa5565b90505b6001811115613613576f181899199a1a9b1b9c1cb0b131b232b360811b85600f16601081106135cf576135cf614a8f565b1a60f81b8282815181106135e5576135e5614a8f565b60200101906001600160f81b031916908160001a90535060049490941c9361360c8161503e565b905061359e565b5083156116495760405162461bcd60e51b815260206004820181905260248201527f537472696e67733a20686578206c656e67746820696e73756666696369656e746044820152606401610aea565b60006108df82613b94565b61171084848484613bb9565b60008181526001830160205260408120546136c0575081546001818101845560008481526020808220909301849055845484825282860190935260409020919091556108df565b5060006108df565b600081815260018301602052604081205480156137b15760006136ec600183615055565b855490915060009061370090600190615055565b905081811461376557600086600001828154811061372057613720614a8f565b906000526020600020015490508087600001848154811061374357613743614a8f565b6000918252602080832090910192909255918252600188019052604090208390555b855486908061377657613776615068565b6001900381819060005260206000200160009055905585600101600086815260200190815260200160002060009055600193505050506108df565b60009150506108df565b6001600160a01b0382166138115760405162461bcd60e51b815260206004820181905260248201527f4552433732313a206d696e7420746f20746865207a65726f20616464726573736044820152606401610aea565b61381a8161295b565b156138675760405162461bcd60e51b815260206004820152601c60248201527f4552433732313a20746f6b656e20616c7265616479206d696e746564000000006044820152606401610aea565b613875600083836001612c49565b61387e8161295b565b156138cb5760405162461bcd60e51b815260206004820152601c60248201527f4552433732313a20746f6b656e20616c7265616479206d696e746564000000006044820152606401610aea565b6001600160a01b038216600081815260686020908152604080832080546001019055848352606790915280822080546001600160a01b0319168417905551839291907fddf252ad1be2c89b69c2b068fc378daa952ba7f163c4a11628f55a4df523b3ef908290a45050565b606084613942886129ae565b84866139568a6001600160a01b03166134b5565b61397087600281111561396b5761396b614bd9565b613cf4565b6040516020016139859695949392919061507e565b60405160208183030381529060405290509695505050505050565b60408051602081019091526000808252606091905b8351811015613b82576000600185516139ce9190615055565b82146139f357604051806040016040528060018152602001600b60fa1b815250613a04565b604051806020016040528060008152505b90506000858381518110613a1a57613a1a614a8f565b602002602001015160600151613a4957604051806040016040528060018152602001601160f91b815250613a5a565b604051806020016040528060008152505b9050600081878581518110613a7157613a71614a8f565b60200260200101516040015183604051602001613a909392919061519d565b60405160208183030381529060405290506000878581518110613ab557613ab5614a8f565b60200260200101516020015151600014613b0b57878581518110613adb57613adb614a8f565b602002602001015160200151604051602001613af791906151e0565b604051602081830303815290604052613b1c565b604051806020016040528060008152505b9050600086898781518110613b3357613b33614a8f565b602002602001015160000151838588604051602001613b56959493929190615225565b604051602081830303815290604052905080965050505050508080613b7a90614abb565b9150506139b5565b50806040516020016117ab91906152e0565b60006001600160e01b03198216635a05180f60e01b14806108df57506108df82613d92565b613bc584848484613db7565b6001811115613c345760405162461bcd60e51b815260206004820152603560248201527f455243373231456e756d657261626c653a20636f6e7365637574697665207472604482015274185b9cd9995c9cc81b9bdd081cdd5c1c1bdc9d1959605a1b6064820152608401610aea565b816001600160a01b038516613c9257613c8d816101c2805460008381526101c360205260408120829055600182018355919091527f363a63c83fb1b082d2626fb079e7d74d92caf27fec08dcc75278f5de8d9db6d70155565b613cb5565b836001600160a01b0316856001600160a01b031614613cb557613cb58582613dc3565b6001600160a01b038416613cd157613ccc81613e65565b610fd0565b846001600160a01b0316846001600160a01b031614610fd057610fd08482613f1a565b60606002826002811115613d0a57613d0a614bd9565b14613d70576001826002811115613d2357613d23614bd9565b14613d4b5760405180604001604052806005815260200164045524332360dc1b8152506108df565b604051806040016040528060078152602001664552433131353560c81b8152506108df565b505060408051808201909152600681526545524337323160d01b602082015290565b60006001600160e01b03198216637965db0b60e01b14806108df57506108df82613f60565b61171084848484613fb0565b60006001613dd084611203565b613dda9190615055565b60008381526101c16020526040902054909150808214613e30576001600160a01b03841660009081526101c06020908152604080832085845282528083205484845281842081905583526101c190915290208190555b5060009182526101c1602090815260408084208490556001600160a01b0390941683526101c081528383209183525290812055565b6101c254600090613e7890600190615055565b60008381526101c360205260408120546101c28054939450909284908110613ea257613ea2614a8f565b90600052602060002001549050806101c28381548110613ec457613ec4614a8f565b60009182526020808320909101929092558281526101c390915260408082208490558582528120556101c2805480613efe57613efe615068565b6001900381819060005260206000200160009055905550505050565b6000613f2583611203565b6001600160a01b0390931660009081526101c06020908152604080832086845282528083208590559382526101c19052919091209190915550565b60006001600160e01b031982166380ac58cd60e01b1480613f9157506001600160e01b03198216635b5e139f60e01b145b806108df57506301ffc9a760e01b6001600160e01b03198316146108df565b6001811115611710576001600160a01b03841615613ff6576001600160a01b03841660009081526068602052604081208054839290613ff0908490615055565b90915550505b6001600160a01b03831615611710576001600160a01b0383166000908152606860205260408120805483929061402d908490614fa5565b909155505050505050565b60006020828403121561404a57600080fd5b5035919050565b6001600160e01b031981168114610f9157600080fd5b60006020828403121561407957600080fd5b813561164981614051565b6000806040838503121561409757600080fd5b50508035926020909101359150565b60005b838110156140c15781810151838201526020016140a9565b50506000910152565b600081518084526140e28160208601602086016140a6565b601f01601f19169290920160200192915050565b60208152600061164960208301846140ca565b80356001600160a01b0381168114612b5557600080fd5b6000806040838503121561413357600080fd5b61413c83614109565b946020939093013593505050565b60006020828403121561415c57600080fd5b61164982614109565b60008060006060848603121561417a57600080fd5b61418384614109565b925061419160208501614109565b9150604084013590509250925092565b634e487b7160e01b600052604160045260246000fd5b604051606081016001600160401b03811182821017156141d9576141d96141a1565b60405290565b604051601f8201601f191681016001600160401b0381118282101715614207576142076141a1565b604052919050565b60006001600160401b03821115614228576142286141a1565b5060051b60200190565b600082601f83011261424357600080fd5b813560206142586142538361420f565b6141df565b82815260059290921b8401810191818101908684111561427757600080fd5b8286015b84811015614292578035835291830191830161427b565b509695505050505050565b6000602082840312156142af57600080fd5b81356001600160401b038111156142c557600080fd5b61230384828501614232565b6000602080830181845280855180835260408601915060408160051b870101925083870160005b8281101561432657603f198886030184526143148583516140ca565b945092850192908501906001016142f8565b5092979650505050505050565b6000806040838503121561434657600080fd5b8235915061435660208401614109565b90509250929050565b6000806040838503121561437257600080fd5b82356001600160401b0381111561438857600080fd5b61439485828601614232565b95602094909401359450505050565b6000806000606084860312156143b857600080fd5b505081359360208301359350604090920135919050565b600082601f8301126143e057600080fd5b81356001600160401b038111156143f9576143f96141a1565b61440c601f8201601f19166020016141df565b81815284602083860101111561442157600080fd5b816020850160208301376000918101602001919091529392505050565b60008060006060848603121561445357600080fd5b833592506020840135915060408401356001600160401b0381111561447757600080fd5b614483868287016143cf565b9150509250925092565b60006020828403121561449f57600080fd5b81356001600160401b038111156144b557600080fd5b612303848285016143cf565b600080602083850312156144d457600080fd5b82356001600160401b03808211156144eb57600080fd5b818501915085601f8301126144ff57600080fd5b81358181111561450e57600080fd5b8660208260051b850101111561452357600080fd5b60209290920196919550909350505050565b6000806000806080858703121561454b57600080fd5b84356001600160401b038082111561456257600080fd5b61456e88838901614232565b9550602087013591508082111561458457600080fd5b61459088838901614232565b945060408701359150808211156145a657600080fd5b6145b288838901614232565b935060608701359150808211156145c857600080fd5b506145d587828801614232565b91505092959194509250565b6020808252825182820181905260009190848201906040850190845b81811015614619578351835292840192918401916001016145fd565b50909695505050505050565b60008060006060848603121561463a57600080fd5b61464384614109565b92506020840135915060408401356001600160401b0381111561447757600080fd5b6000806040838503121561467857600080fd5b8235915060208301356001600160401b0381111561469557600080fd5b6146a185828601614232565b9150509250929050565b600080604083850312156146be57600080fd5b6146c783614109565b9150602083013580151581146146dc57600080fd5b809150509250929050565b6000806000604084860312156146fc57600080fd5b61470584614109565b925060208401356001600160401b038082111561472157600080fd5b818601915086601f83011261473557600080fd5b81358181111561474457600080fd5b87602082850101111561475657600080fd5b6020830194508093505050509250925092565b6000806000806080858703121561477f57600080fd5b5050823594602084013594506040840135936060013592509050565b600080600080608085870312156147b157600080fd5b6147ba85614109565b93506147c860208601614109565b92506040850135915060608501356001600160401b038111156147ea57600080fd5b6145d5878288016143cf565b60008060006060848603121561480b57600080fd5b833592506020840135915060408401356001600160401b0381111561482f57600080fd5b61448386828701614232565b6020808252825182820181905260009190848201906040850190845b818110156146195783516001600160a01b031683529284019291840191600101614857565b60008060006060848603121561489157600080fd5b833592506020808501356001600160401b03808211156148b057600080fd5b6148bc88838901614232565b945060408701359150808211156148d257600080fd5b818701915087601f8301126148e657600080fd5b81356148f46142538261420f565b81815260059190911b8301840190848101908a83111561491357600080fd5b8585015b8381101561494b5780358581111561492f5760008081fd5b61493d8d89838a01016143cf565b845250918601918601614917565b508096505050505050509250925092565b6000806000806080858703121561497257600080fd5b843593506020850135925060408501356001600160401b03808211156145a657600080fd5b600080604083850312156149aa57600080fd5b6149b383614109565b915061435660208401614109565b6000806000606084860312156149d657600080fd5b6149df84614109565b92506149ed60208501614109565b915060408401356001600160401b0381111561482f57600080fd5b600181811c90821680614a1c57607f821691505b602082108103614a3c57634e487b7160e01b600052602260045260246000fd5b50919050565b6020808252602d908201527f4552433732313a2063616c6c6572206973206e6f7420746f6b656e206f776e6560408201526c1c881bdc88185c1c1c9bdd9959609a1b606082015260800190565b634e487b7160e01b600052603260045260246000fd5b634e487b7160e01b600052601160045260246000fd5b600060018201614acd57614acd614aa5565b5060010190565b601f821115610b8b57600081815260208120601f850160051c81016020861015614afb5750805b601f850160051c820191505b818110156113ee57828155600101614b07565b81516001600160401b03811115614b3357614b336141a1565b614b4781614b418454614a08565b84614ad4565b602080601f831160018114614b7c5760008415614b645750858301515b600019600386901b1c1916600185901b1785556113ee565b600085815260208120601f198616915b82811015614bab57888601518255948401946001909101908401614b8c565b5085821015614bc95787850151600019600388901b60f8161c191681555b5050505050600190811b01905550565b634e487b7160e01b600052602160045260246000fd5b60058110610f9157600080fd5b600060608284031215614c0e57600080fd5b614c166141b7565b82518152602083015160208201526040830151614c3281614bef565b60408201529392505050565b81518152602080830151908201526040820151606082019060058110614c7457634e487b7160e01b600052602160045260246000fd5b8060408401525092915050565b600060608284031215614c9357600080fd5b614c9b6141b7565b82358152602083013560208201526040830135614c3281614bef565b82815260406020820152600061230360408301846140ca565b60008151614ce28185602086016140a6565b9290920192915050565b60008351614cfe8184602088016140a6565b602f60f81b9083019081528351614d1c8160018401602088016140a6565b01600101949350505050565b60208082526025908201527f4552433732313a207472616e736665722066726f6d20696e636f72726563742060408201526437bbb732b960d91b606082015260800190565b6020808252602b908201527f496e697469616c697a61626c653a20636f6e7472616374206973206e6f74206960408201526a6e697469616c697a696e6760a81b606082015260800190565b60208082526032908201527f4552433732313a207472616e7366657220746f206e6f6e20455243373231526560408201527131b2b4bb32b91034b6b83632b6b2b73a32b960711b606082015260800190565b7f646174613a6170706c69636174696f6e2f6a736f6e3b6261736536342c000000815260008251614e4281601d8501602087016140a6565b91909101601d0192915050565b6000808454614e5d81614a08565b60018281168015614e755760018114614e8a57614eb9565b60ff1984168752821515830287019450614eb9565b8860005260208060002060005b85811015614eb05781548a820152908401908201614e97565b50505082870194505b505050508351614ecd8183602088016140a6565b01949350505050565b7f416363657373436f6e74726f6c3a206163636f756e7420000000000000000000815260008351614f0e8160178501602088016140a6565b7001034b99036b4b9b9b4b733903937b6329607d1b6017918401918201528351614f3f8160288401602088016140a6565b01602801949350505050565b6001600160a01b0385811682528416602082015260408101839052608060608201819052600090614f7e908301846140ca565b9695505050505050565b600060208284031215614f9a57600080fd5b815161164981614051565b808201808211156108df576108df614aa5565b600082614fd557634e487b7160e01b600052601260045260246000fd5b500490565b80820281158282048414176108df576108df614aa5565b607b60f81b81526000835161500d8160018501602088016140a6565b8351908301906150248160018401602088016140a6565b607d60f81b60019290910191820152600201949350505050565b60008161504d5761504d614aa5565b506000190190565b818103818111156108df576108df614aa5565b634e487b7160e01b600052603160045260246000fd5b67113730b6b2911d1160c11b815286516000906150a2816008850160208c016140a6565b61088b60f21b60089184019182018190526a113a37b5b2b724b2111d1160a91b600a83015288516150da816015850160208d016140a6565b601592019182018190526e113232b9b1b934b83a34b7b7111d1160891b6017830152875161510f816026850160208c016140a6565b602692019182015261519061514d61518a6151768261517061515b8261514760288a01681134b6b0b3b2911d1160b91b815260090190565b8e614cd0565b61088b60f21b815260020190565b681137bbb732b9111d1160b91b815260090190565b8a614cd0565b67113a3cb832911d1160c11b815260080190565b86614cd0565b9998505050505050505050565b600084516151af8184602089016140a6565b8451908301906151c38183602089016140a6565b84519101906151d68183602088016140a6565b0195945050505050565b6f113234b9b83630bcafba3cb832911d1160811b8152815160009061520c8160108501602087016140a6565b61088b60f21b6010939091019283015250601201919050565b60008651615237818460208b016140a6565b6e3d913a3930b4ba2fba3cb832911d1160891b908301908152865161526381600f840160208b016140a6565b61088b60f21b600f92909101918201528551615286816011840160208a016140a6565b67113b30b63ab2911d60c11b6011929091019182015284516152af8160198401602089016140a6565b607d60f81b6019929091019182015283516152d181601a8401602088016140a6565b01601a01979650505050505050565b6d2261747472696275746573223a5b60901b8152815160009061530a81600e8501602087016140a6565b605d60f81b600e939091019283015250600f0191905056fe4142434445464748494a4b4c4d4e4f505152535455565758595a6162636465666768696a6b6c6d6e6f707172737475767778797a303132333435363738392b2fa49807205ce4d355092ef5a8a18f56e8913cf4a201fbe287825b095693c21775364d3d7565c7a8300c96fd53e065d19b65848d7b23b3191adcd55621c744223ca2646970667358221220431d3fc0d0c3221adc4cbe79092143250b6d1b895a9216ef72d77cfdd5919e9e64736f6c63430008110033",
  "linkReferences": {},
  "deployedLinkReferences": {}
}