{
  "_format": "hh-sol-artifact-1",
  "contractName": "CosmicTools",
  "sourceName": "contracts/upgradeable/ERC721/CosmicTools/CosmicTools.sol",
  "abi": [
    {
      "inputs": [],
      "stateMutability": "nonpayable",
      "type": "constructor"
    },
    {
      "anonymous": false,
      "inputs": [
        {
          "indexed": true,
          "internalType": "address",
          "name": "owner",
          "type": "address"
        },
        {
          "indexed": true,
          "internalType": "address",
          "name": "approved",
          "type": "address"
        },
        {
          "indexed": true,
          "internalType": "uint256",
          "name": "tokenId",
          "type": "uint256"
        }
      ],
      "name": "Approval",
      "type": "event"
    },
    {
      "anonymous": false,
      "inputs": [
        {
          "indexed": true,
          "internalType": "address",
          "name": "owner",
          "type": "address"
        },
        {
          "indexed": true,
          "internalType": "address",
          "name": "operator",
          "type": "address"
        },
        {
          "indexed": false,
          "internalType": "bool",
          "name": "approved",
          "type": "bool"
        }
      ],
      "name": "ApprovalForAll",
      "type": "event"
    },
    {
      "anonymous": false,
      "inputs": [
        {
          "indexed": false,
          "internalType": "uint8",
          "name": "version",
          "type": "uint8"
        }
      ],
      "name": "Initialized",
      "type": "event"
    },
    {
      "anonymous": false,
      "inputs": [
        {
          "indexed": false,
          "internalType": "address",
          "name": "account",
          "type": "address"
        }
      ],
      "name": "Paused",
      "type": "event"
    },
    {
      "anonymous": false,
      "inputs": [
        {
          "indexed": true,
          "internalType": "bytes32",
          "name": "role",
          "type": "bytes32"
        },
        {
          "indexed": true,
          "internalType": "bytes32",
          "name": "previousAdminRole",
          "type": "bytes32"
        },
        {
          "indexed": true,
          "internalType": "bytes32",
          "name": "newAdminRole",
          "type": "bytes32"
        }
      ],
      "name": "RoleAdminChanged",
      "type": "event"
    },
    {
      "anonymous": false,
      "inputs": [
        {
          "indexed": true,
          "internalType": "bytes32",
          "name": "role",
          "type": "bytes32"
        },
        {
          "indexed": true,
          "internalType": "address",
          "name": "account",
          "type": "address"
        },
        {
          "indexed": true,
          "internalType": "address",
          "name": "sender",
          "type": "address"
        }
      ],
      "name": "RoleGranted",
      "type": "event"
    },
    {
      "anonymous": false,
      "inputs": [
        {
          "indexed": true,
          "internalType": "bytes32",
          "name": "role",
          "type": "bytes32"
        },
        {
          "indexed": true,
          "internalType": "address",
          "name": "account",
          "type": "address"
        },
        {
          "indexed": true,
          "internalType": "address",
          "name": "sender",
          "type": "address"
        }
      ],
      "name": "RoleRevoked",
      "type": "event"
    },
    {
      "anonymous": false,
      "inputs": [
        {
          "indexed": true,
          "internalType": "uint256",
          "name": "tokenId",
          "type": "uint256"
        },
        {
          "indexed": false,
          "internalType": "uint256",
          "name": "customId",
          "type": "uint256"
        },
        {
          "indexed": false,
          "internalType": "string",
          "name": "value",
          "type": "string"
        }
      ],
      "name": "TextUpdated",
      "type": "event"
    },
    {
      "anonymous": false,
      "inputs": [
        {
          "indexed": true,
          "internalType": "address",
          "name": "from",
          "type": "address"
        },
        {
          "indexed": true,
          "internalType": "address",
          "name": "to",
          "type": "address"
        },
        {
          "indexed": true,
          "internalType": "uint256",
          "name": "tokenId",
          "type": "uint256"
        }
      ],
      "name": "Transfer",
      "type": "event"
    },
    {
      "anonymous": false,
      "inputs": [
        {
          "indexed": false,
          "internalType": "address",
          "name": "account",
          "type": "address"
        }
      ],
      "name": "Unpaused",
      "type": "event"
    },
    {
      "anonymous": false,
      "inputs": [
        {
          "indexed": true,
          "internalType": "uint256",
          "name": "tokenId",
          "type": "uint256"
        },
        {
          "indexed": false,
          "internalType": "uint256",
          "name": "treeId",
          "type": "uint256"
        },
        {
          "indexed": false,
          "internalType": "uint256",
          "name": "skillId",
          "type": "uint256"
        },
        {
          "indexed": false,
          "internalType": "uint256",
          "name": "value",
          "type": "uint256"
        }
      ],
      "name": "ValueUpdated",
      "type": "event"
    },
    {
      "inputs": [],
      "name": "CONTRACT_ROLE",
      "outputs": [
        {
          "internalType": "bytes32",
          "name": "",
          "type": "bytes32"
        }
      ],
      "stateMutability": "view",
      "type": "function"
    },
    {
      "inputs": [],
      "name": "DEFAULT_ADMIN_ROLE",
      "outputs": [
        {
          "internalType": "bytes32",
          "name": "",
          "type": "bytes32"
        }
      ],
      "stateMutability": "view",
      "type": "function"
    },
    {
      "inputs": [
        {
          "internalType": "address",
          "name": "to",
          "type": "address"
        },
        {
          "internalType": "uint256",
          "name": "tokenId",
          "type": "uint256"
        }
      ],
      "name": "approve",
      "outputs": [],
      "stateMutability": "nonpayable",
      "type": "function"
    },
    {
      "inputs": [
        {
          "internalType": "address",
          "name": "owner",
          "type": "address"
        }
      ],
      "name": "balanceOf",
      "outputs": [
        {
          "internalType": "uint256",
          "name": "",
          "type": "uint256"
        }
      ],
      "stateMutability": "view",
      "type": "function"
    },
    {
      "inputs": [
        {
          "internalType": "uint256",
          "name": "treeId",
          "type": "uint256"
        },
        {
          "internalType": "uint256[]",
          "name": "skillIds",
          "type": "uint256[]"
        },
        {
          "internalType": "string[]",
          "name": "names",
          "type": "string[]"
        }
      ],
      "name": "batchSetSkillName",
      "outputs": [],
      "stateMutability": "nonpayable",
      "type": "function"
    },
    {
      "inputs": [
        {
          "internalType": "uint256[]",
          "name": "tokenIds",
          "type": "uint256[]"
        }
      ],
      "name": "batchTokenURI",
      "outputs": [
        {
          "internalType": "string[]",
          "name": "",
          "type": "string[]"
        }
      ],
      "stateMutability": "view",
      "type": "function"
    },
    {
      "inputs": [
        {
          "internalType": "uint256[]",
          "name": "tokenIds",
          "type": "uint256[]"
        }
      ],
      "name": "batchTokenURIJSON",
      "outputs": [
        {
          "internalType": "string[]",
          "name": "",
          "type": "string[]"
        }
      ],
      "stateMutability": "view",
      "type": "function"
    },
    {
      "inputs": [
        {
          "internalType": "address",
          "name": "from",
          "type": "address"
        },
        {
          "internalType": "address",
          "name": "to",
          "type": "address"
        },
        {
          "internalType": "uint256[]",
          "name": "tokenIds",
          "type": "uint256[]"
        }
      ],
      "name": "batchTransferFrom",
      "outputs": [],
      "stateMutability": "nonpayable",
      "type": "function"
    },
    {
      "inputs": [
        {
          "internalType": "uint256[]",
          "name": "tokenIds",
          "type": "uint256[]"
        },
        {
          "internalType": "uint256[]",
          "name": "treeIds",
          "type": "uint256[]"
        },
        {
          "internalType": "uint256[]",
          "name": "skillIds",
          "type": "uint256[]"
        },
        {
          "internalType": "uint256[]",
          "name": "values",
          "type": "uint256[]"
        }
      ],
      "name": "batchUpdateSkills",
      "outputs": [],
      "stateMutability": "nonpayable",
      "type": "function"
    },
    {
      "inputs": [
        {
          "internalType": "uint256",
          "name": "tokenId",
          "type": "uint256"
        },
        {
          "internalType": "uint256",
          "name": "treeId",
          "type": "uint256"
        },
        {
          "internalType": "uint256[]",
          "name": "skillIds",
          "type": "uint256[]"
        },
        {
          "internalType": "uint256[]",
          "name": "values",
          "type": "uint256[]"
        }
      ],
      "name": "batchUpdateSkillsOfToken",
      "outputs": [],
      "stateMutability": "nonpayable",
      "type": "function"
    },
    {
      "inputs": [],
      "name": "bridgeContract",
      "outputs": [
        {
          "internalType": "address",
          "name": "",
          "type": "address"
        }
      ],
      "stateMutability": "view",
      "type": "function"
    },
    {
      "inputs": [
        {
          "internalType": "uint256",
          "name": "tokenId",
          "type": "uint256"
        }
      ],
      "name": "bridgeExtraData",
      "outputs": [
        {
          "internalType": "bytes",
          "name": "",
          "type": "bytes"
        }
      ],
      "stateMutability": "view",
      "type": "function"
    },
    {
      "inputs": [
        {
          "internalType": "uint256",
          "name": "tokenId",
          "type": "uint256"
        }
      ],
      "name": "burn",
      "outputs": [],
      "stateMutability": "nonpayable",
      "type": "function"
    },
    {
      "inputs": [],
      "name": "getAllTokenIds",
      "outputs": [
        {
          "internalType": "uint256[]",
          "name": "",
          "type": "uint256[]"
        }
      ],
      "stateMutability": "view",
      "type": "function"
    },
    {
      "inputs": [
        {
          "internalType": "uint256",
          "name": "tokenId",
          "type": "uint256"
        }
      ],
      "name": "getApproved",
      "outputs": [
        {
          "internalType": "address",
          "name": "",
          "type": "address"
        }
      ],
      "stateMutability": "view",
      "type": "function"
    },
    {
      "inputs": [],
      "name": "getBlacklisted",
      "outputs": [
        {
          "internalType": "address[]",
          "name": "",
          "type": "address[]"
        }
      ],
      "stateMutability": "view",
      "type": "function"
    },
    {
      "inputs": [
        {
          "internalType": "uint256",
          "name": "tokenId",
          "type": "uint256"
        }
      ],
      "name": "getDurability",
      "outputs": [
        {
          "internalType": "uint256",
          "name": "current",
          "type": "uint256"
        },
        {
          "internalType": "uint256",
          "name": "max",
          "type": "uint256"
        }
      ],
      "stateMutability": "view",
      "type": "function"
    },
    {
      "inputs": [
        {
          "internalType": "bytes32",
          "name": "role",
          "type": "bytes32"
        }
      ],
      "name": "getRoleAdmin",
      "outputs": [
        {
          "internalType": "bytes32",
          "name": "",
          "type": "bytes32"
        }
      ],
      "stateMutability": "view",
      "type": "function"
    },
    {
      "inputs": [
        {
          "internalType": "bytes32",
          "name": "role",
          "type": "bytes32"
        },
        {
          "internalType": "uint256",
          "name": "index",
          "type": "uint256"
        }
      ],
      "name": "getRoleMember",
      "outputs": [
        {
          "internalType": "address",
          "name": "",
          "type": "address"
        }
      ],
      "stateMutability": "view",
      "type": "function"
    },
    {
      "inputs": [
        {
          "internalType": "bytes32",
          "name": "role",
          "type": "bytes32"
        }
      ],
      "name": "getRoleMemberCount",
      "outputs": [
        {
          "internalType": "uint256",
          "name": "",
          "type": "uint256"
        }
      ],
      "stateMutability": "view",
      "type": "function"
    },
    {
      "inputs": [
        {
          "internalType": "uint256",
          "name": "tokenId",
          "type": "uint256"
        },
        {
          "internalType": "uint256",
          "name": "treeId",
          "type": "uint256"
        },
        {
          "internalType": "uint256",
          "name": "skillId",
          "type": "uint256"
        }
      ],
      "name": "getSkill",
      "outputs": [
        {
          "internalType": "uint256",
          "name": "",
          "type": "uint256"
        }
      ],
      "stateMutability": "view",
      "type": "function"
    },
    {
      "inputs": [
        {
          "internalType": "uint256",
          "name": "treeId",
          "type": "uint256"
        },
        {
          "internalType": "uint256",
          "name": "skillId",
          "type": "uint256"
        }
      ],
      "name": "getSkillName",
      "outputs": [
        {
          "internalType": "string",
          "name": "",
          "type": "string"
        }
      ],
      "stateMutability": "view",
      "type": "function"
    },
    {
      "inputs": [
        {
          "internalType": "uint256",
          "name": "tokenId",
          "type": "uint256"
        },
        {
          "internalType": "uint256",
          "name": "treeId",
          "type": "uint256"
        },
        {
          "internalType": "uint256[]",
          "name": "skillIds",
          "type": "uint256[]"
        }
      ],
      "name": "getSkillsByTree",
      "outputs": [
        {
          "internalType": "uint256[]",
          "name": "",
          "type": "uint256[]"
        }
      ],
      "stateMutability": "view",
      "type": "function"
    },
    {
      "inputs": [
        {
          "internalType": "uint256",
          "name": "tokenId",
          "type": "uint256"
        },
        {
          "internalType": "uint256",
          "name": "customId",
          "type": "uint256"
        }
      ],
      "name": "getString",
      "outputs": [
        {
          "internalType": "string",
          "name": "",
          "type": "string"
        }
      ],
      "stateMutability": "view",
      "type": "function"
    },
    {
      "inputs": [
        {
          "internalType": "uint256[]",
          "name": "tokenIds",
          "type": "uint256[]"
        },
        {
          "internalType": "uint256",
          "name": "customId",
          "type": "uint256"
        }
      ],
      "name": "getStringOfTokens",
      "outputs": [
        {
          "internalType": "string[]",
          "name": "",
          "type": "string[]"
        }
      ],
      "stateMutability": "view",
      "type": "function"
    },
    {
      "inputs": [
        {
          "internalType": "uint256",
          "name": "tokenId",
          "type": "uint256"
        },
        {
          "internalType": "uint256[]",
          "name": "customIds",
          "type": "uint256[]"
        }
      ],
      "name": "getStrings",
      "outputs": [
        {
          "internalType": "string[]",
          "name": "",
          "type": "string[]"
        }
      ],
      "stateMutability": "view",
      "type": "function"
    },
    {
      "inputs": [
        {
          "internalType": "uint256",
          "name": "tokenId",
          "type": "uint256"
        }
      ],
      "name": "getTool",
      "outputs": [
        {
          "components": [
            {
              "internalType": "uint256",
              "name": "skillId",
              "type": "uint256"
            },
            {
              "internalType": "uint256",
              "name": "durability",
              "type": "uint256"
            },
            {
              "internalType": "enum SharedStructs.Rarity",
              "name": "rarity",
              "type": "uint8"
            }
          ],
          "internalType": "struct ICosmicTools.Tool",
          "name": "",
          "type": "tuple"
        }
      ],
      "stateMutability": "view",
      "type": "function"
    },
    {
      "inputs": [
        {
          "internalType": "bytes32",
          "name": "role",
          "type": "bytes32"
        },
        {
          "internalType": "address",
          "name": "account",
          "type": "address"
        }
      ],
      "name": "grantRole",
      "outputs": [],
      "stateMutability": "nonpayable",
      "type": "function"
    },
    {
      "inputs": [
        {
          "internalType": "bytes32",
          "name": "role",
          "type": "bytes32"
        },
        {
          "internalType": "address",
          "name": "account",
          "type": "address"
        }
      ],
      "name": "hasRole",
      "outputs": [
        {
          "internalType": "bool",
          "name": "",
          "type": "bool"
        }
      ],
      "stateMutability": "view",
      "type": "function"
    },
    {
      "inputs": [],
      "name": "imageBaseURI",
      "outputs": [
        {
          "internalType": "string",
          "name": "",
          "type": "string"
        }
      ],
      "stateMutability": "view",
      "type": "function"
    },
    {
      "inputs": [],
      "name": "initialize",
      "outputs": [],
      "stateMutability": "nonpayable",
      "type": "function"
    },
    {
      "inputs": [
        {
          "internalType": "address",
          "name": "owner",
          "type": "address"
        },
        {
          "internalType": "address",
          "name": "operator",
          "type": "address"
        }
      ],
      "name": "isApprovedForAll",
      "outputs": [
        {
          "internalType": "bool",
          "name": "",
          "type": "bool"
        }
      ],
      "stateMutability": "view",
      "type": "function"
    },
    {
      "inputs": [
        {
          "internalType": "address",
          "name": "user",
          "type": "address"
        }
      ],
      "name": "isBlacklisted",
      "outputs": [
        {
          "internalType": "bool",
          "name": "",
          "type": "bool"
        }
      ],
      "stateMutability": "view",
      "type": "function"
    },
    {
      "inputs": [
        {
          "internalType": "address",
          "name": "to",
          "type": "address"
        },
        {
          "internalType": "uint256",
          "name": "tokenId",
          "type": "uint256"
        },
        {
          "internalType": "bytes",
          "name": "data",
          "type": "bytes"
        }
      ],
      "name": "mint",
      "outputs": [],
      "stateMutability": "nonpayable",
      "type": "function"
    },
    {
      "inputs": [
        {
          "internalType": "address",
          "name": "to",
          "type": "address"
        },
        {
          "internalType": "bytes",
          "name": "data",
          "type": "bytes"
        }
      ],
      "name": "mint",
      "outputs": [],
      "stateMutability": "nonpayable",
      "type": "function"
    },
    {
      "inputs": [],
      "name": "name",
      "outputs": [
        {
          "internalType": "string",
          "name": "",
          "type": "string"
        }
      ],
      "stateMutability": "view",
      "type": "function"
    },
    {
      "inputs": [],
      "name": "nextId",
      "outputs": [
        {
          "internalType": "uint256",
          "name": "",
          "type": "uint256"
        }
      ],
      "stateMutability": "view",
      "type": "function"
    },
    {
      "inputs": [
        {
          "internalType": "uint256",
          "name": "tokenId",
          "type": "uint256"
        }
      ],
      "name": "ownerOf",
      "outputs": [
        {
          "internalType": "address",
          "name": "",
          "type": "address"
        }
      ],
      "stateMutability": "view",
      "type": "function"
    },
    {
      "inputs": [],
      "name": "pause",
      "outputs": [],
      "stateMutability": "nonpayable",
      "type": "function"
    },
    {
      "inputs": [],
      "name": "paused",
      "outputs": [
        {
          "internalType": "bool",
          "name": "",
          "type": "bool"
        }
      ],
      "stateMutability": "view",
      "type": "function"
    },
    {
      "inputs": [
        {
          "internalType": "uint256",
          "name": "tokenId",
          "type": "uint256"
        },
        {
          "internalType": "uint256",
          "name": "amount",
          "type": "uint256"
        }
      ],
      "name": "removeDurability",
      "outputs": [],
      "stateMutability": "nonpayable",
      "type": "function"
    },
    {
      "inputs": [
        {
          "internalType": "bytes32",
          "name": "role",
          "type": "bytes32"
        },
        {
          "internalType": "address",
          "name": "account",
          "type": "address"
        }
      ],
      "name": "renounceRole",
      "outputs": [],
      "stateMutability": "nonpayable",
      "type": "function"
    },
    {
      "inputs": [
        {
          "internalType": "bytes32",
          "name": "role",
          "type": "bytes32"
        },
        {
          "internalType": "address",
          "name": "account",
          "type": "address"
        }
      ],
      "name": "revokeRole",
      "outputs": [],
      "stateMutability": "nonpayable",
      "type": "function"
    },
    {
      "inputs": [
        {
          "internalType": "address",
          "name": "from",
          "type": "address"
        },
        {
          "internalType": "address",
          "name": "to",
          "type": "address"
        },
        {
          "internalType": "uint256",
          "name": "tokenId",
          "type": "uint256"
        }
      ],
      "name": "safeTransferFrom",
      "outputs": [],
      "stateMutability": "nonpayable",
      "type": "function"
    },
    {
      "inputs": [
        {
          "internalType": "address",
          "name": "from",
          "type": "address"
        },
        {
          "internalType": "address",
          "name": "to",
          "type": "address"
        },
        {
          "internalType": "uint256",
          "name": "tokenId",
          "type": "uint256"
        },
        {
          "internalType": "bytes",
          "name": "data",
          "type": "bytes"
        }
      ],
      "name": "safeTransferFrom",
      "outputs": [],
      "stateMutability": "nonpayable",
      "type": "function"
    },
    {
      "inputs": [
        {
          "internalType": "address",
          "name": "operator",
          "type": "address"
        },
        {
          "internalType": "bool",
          "name": "approved",
          "type": "bool"
        }
      ],
      "name": "setApprovalForAll",
      "outputs": [],
      "stateMutability": "nonpayable",
      "type": "function"
    },
    {
      "inputs": [
        {
          "internalType": "address",
          "name": "_bridgeContract",
          "type": "address"
        }
      ],
      "name": "setBridgeContract",
      "outputs": [],
      "stateMutability": "nonpayable",
      "type": "function"
    },
    {
      "inputs": [
        {
          "internalType": "string",
          "name": "_imageBaseURI",
          "type": "string"
        }
      ],
      "name": "setImageBaseURI",
      "outputs": [],
      "stateMutability": "nonpayable",
      "type": "function"
    },
    {
      "inputs": [
        {
          "internalType": "uint256",
          "name": "tokenId",
          "type": "uint256"
        }
      ],
      "name": "setMaxDurability",
      "outputs": [],
      "stateMutability": "nonpayable",
      "type": "function"
    },
    {
      "inputs": [
        {
          "internalType": "uint256",
          "name": "id",
          "type": "uint256"
        }
      ],
      "name": "setNextId",
      "outputs": [],
      "stateMutability": "nonpayable",
      "type": "function"
    },
    {
      "inputs": [
        {
          "internalType": "uint256",
          "name": "treeId",
          "type": "uint256"
        },
        {
          "internalType": "uint256",
          "name": "skillId",
          "type": "uint256"
        },
        {
          "internalType": "string",
          "name": "name",
          "type": "string"
        }
      ],
      "name": "setSkillName",
      "outputs": [],
      "stateMutability": "nonpayable",
      "type": "function"
    },
    {
      "inputs": [
        {
          "internalType": "bytes4",
          "name": "interfaceId",
          "type": "bytes4"
        }
      ],
      "name": "supportsInterface",
      "outputs": [
        {
          "internalType": "bool",
          "name": "",
          "type": "bool"
        }
      ],
      "stateMutability": "view",
      "type": "function"
    },
    {
      "inputs": [],
      "name": "symbol",
      "outputs": [
        {
          "internalType": "string",
          "name": "",
          "type": "string"
        }
      ],
      "stateMutability": "view",
      "type": "function"
    },
    {
      "inputs": [
        {
          "internalType": "uint256",
          "name": "index",
          "type": "uint256"
        }
      ],
      "name": "tokenByIndex",
      "outputs": [
        {
          "internalType": "uint256",
          "name": "",
          "type": "uint256"
        }
      ],
      "stateMutability": "view",
      "type": "function"
    },
    {
      "inputs": [
        {
          "internalType": "address",
          "name": "owner",
          "type": "address"
        },
        {
          "internalType": "uint256",
          "name": "index",
          "type": "uint256"
        }
      ],
      "name": "tokenOfOwnerByIndex",
      "outputs": [
        {
          "internalType": "uint256",
          "name": "",
          "type": "uint256"
        }
      ],
      "stateMutability": "view",
      "type": "function"
    },
    {
      "inputs": [
        {
          "internalType": "uint256",
          "name": "tokenId",
          "type": "uint256"
        }
      ],
      "name": "tokenURI",
      "outputs": [
        {
          "internalType": "string",
          "name": "",
          "type": "string"
        }
      ],
      "stateMutability": "view",
      "type": "function"
    },
    {
      "inputs": [
        {
          "internalType": "uint256",
          "name": "tokenId",
          "type": "uint256"
        }
      ],
      "name": "tokenURIJSON",
      "outputs": [
        {
          "internalType": "string",
          "name": "",
          "type": "string"
        }
      ],
      "stateMutability": "view",
      "type": "function"
    },
    {
      "inputs": [
        {
          "internalType": "address",
          "name": "owner",
          "type": "address"
        }
      ],
      "name": "tokensOfOwner",
      "outputs": [
        {
          "internalType": "uint256[]",
          "name": "",
          "type": "uint256[]"
        }
      ],
      "stateMutability": "view",
      "type": "function"
    },
    {
      "inputs": [],
      "name": "totalSupply",
      "outputs": [
        {
          "internalType": "uint256",
          "name": "",
          "type": "uint256"
        }
      ],
      "stateMutability": "view",
      "type": "function"
    },
    {
      "inputs": [
        {
          "internalType": "address",
          "name": "from",
          "type": "address"
        },
        {
          "internalType": "address",
          "name": "to",
          "type": "address"
        },
        {
          "internalType": "uint256",
          "name": "tokenId",
          "type": "uint256"
        }
      ],
      "name": "transferFrom",
      "outputs": [],
      "stateMutability": "nonpayable",
      "type": "function"
    },
    {
      "inputs": [],
      "name": "unpause",
      "outputs": [],
      "stateMutability": "nonpayable",
      "type": "function"
    },
    {
      "inputs": [
        {
          "internalType": "uint256",
          "name": "tokenId",
          "type": "uint256"
        },
        {
          "internalType": "uint256",
          "name": "treeId",
          "type": "uint256"
        },
        {
          "internalType": "uint256",
          "name": "skillId",
          "type": "uint256"
        },
        {
          "internalType": "uint256",
          "name": "value",
          "type": "uint256"
        }
      ],
      "name": "updateSkill",
      "outputs": [],
      "stateMutability": "nonpayable",
      "type": "function"
    },
    {
      "inputs": [
        {
          "internalType": "uint256",
          "name": "tokenId",
          "type": "uint256"
        },
        {
          "internalType": "uint256",
          "name": "customId",
          "type": "uint256"
        },
        {
          "internalType": "string",
          "name": "value",
          "type": "string"
        }
      ],
      "name": "updateString",
      "outputs": [],
      "stateMutability": "nonpayable",
      "type": "function"
    }
  ],
  "bytecode": "0x60806040523480156200001157600080fd5b506200001c62000022565b620000e4565b600054610100900460ff16156200008f5760405162461bcd60e51b815260206004820152602760248201527f496e697469616c697a61626c653a20636f6e747261637420697320696e697469604482015266616c697a696e6760c81b606482015260840160405180910390fd5b60005460ff9081161015620000e2576000805460ff191660ff9081179091556040519081527f7f26b83ff96e1f2b6a682f133852f6798a09c465da95921460cefb38474024989060200160405180910390a15b565b6153d780620000f46000396000f3fe608060405234801561001057600080fd5b50600436106103c55760003560e01c80637efa1902116101ff578063b95805031161011a578063d547741f116100ad578063ed0af2091161007c578063ed0af2091461087a578063f3993d111461088d578063fe459f5c146108a0578063fe575a87146108b357600080fd5b8063d547741f14610805578063de10c72d14610818578063e2862b6b1461082b578063e985e9c51461083e57600080fd5b8063ca15c873116100e9578063ca15c873146107a9578063cd596583146107bc578063ce3675ad146107d0578063d285af53146107e557600080fd5b8063b958050314610768578063bdbed7221461077b578063c7e0559014610783578063c87b56dd1461079657600080fd5b806395d89b4111610192578063a22cb46511610161578063a22cb4651461071c578063b510391f1461072f578063b5afb12014610742578063b88d4fde1461075557600080fd5b806395d89b41146106e65780639b9284f9146106ee5780639e8afe4714610701578063a217fddf1461071457600080fd5b80638462151c116101ce5780638462151c1461068d5780639010d07c146106ad57806391d14854146106c057806394d008ef146106d357600080fd5b80637efa1902146106575780638129fc1c1461066a57806383671b9b146106725780638456cb591461068557600080fd5b8063352b7533116102ef578063509d2927116102825780636cfa24cc116102515780636cfa24cc146106165780636d94f13a1461062957806370a082311461063c578063776458391461064f57600080fd5b8063509d2927146105c85780635c975abb146105f057806361b8ce8c146105fb5780636352211e1461060357600080fd5b806342966c68116102be57806342966c681461057c5780634594762a1461058f5780634b5f4fe6146105a25780634f6ccce7146105b557600080fd5b8063352b75331461053b57806336568abe1461054e5780633f4ba83a1461056157806342842e0e1461056957600080fd5b8063095ea7b311610367578063248a9ca311610336578063248a9ca3146104d25780632c303493146104f55780632f2ff15d146105155780632f745c591461052857600080fd5b8063095ea7b3146104905780630b26cf66146104a357806318160ddd146104b657806323b872dd146104bf57600080fd5b806306b67444116103a357806306b674441461042a57806306fdde031461044a578063079be49314610452578063081812fc1461046557600080fd5b8063019e9251146103ca57806301ffc9a7146103df57806303fe46ab14610407575b600080fd5b6103dd6103d8366004614032565b6108c6565b005b6103f26103ed366004614061565b6108e3565b60405190151581526020015b60405180910390f35b61041c60008051602061538283398151915281565b6040519081526020016103fe565b61043d61043836600461407e565b61090e565b6040516103fe91906140f0565b61043d6109bd565b61043d61046036600461407e565b610a4f565b610478610473366004614032565b610a78565b6040516001600160a01b0390911681526020016103fe565b6103dd61049e36600461411f565b610a9f565b6103dd6104b1366004614149565b610bb9565b6101c25461041c565b6103dd6104cd366004614164565b610bf3565b61041c6104e0366004614032565b600090815260c9602052604090206001015490565b61050861050336600461429c565b610c25565b6040516103fe91906142d0565b6103dd610523366004614332565b610cdd565b61041c61053636600461411f565b610d02565b61050861054936600461435e565b610d99565b6103dd61055c366004614332565b610ef7565b6103dd610f75565b6103dd610577366004614164565b610f96565b6103dd61058a366004614032565b610fb1565b61041c61059d3660046143a2565b610fbd565b6103dd6105b036600461443d565b610fe2565b61041c6105c3366004614032565b611025565b6105db6105d6366004614032565b6110ba565b604080519283526020830191909152016103fe565b60975460ff166103f2565b61041c6110f9565b610478610611366004614032565b61110a565b6103dd61062436600461448c565b61116a565b6105086106373660046144c0565b61118e565b61041c61064a366004614149565b61123c565b61043d6112c2565b6103dd610665366004614534565b611351565b6103dd61142f565b6103dd61068036600461407e565b6115b2565b6103dd611655565b6106a061069b366004614149565b611674565b6040516103fe91906145e0565b6104786106bb36600461407e565b61170d565b6103f26106ce366004614332565b61172c565b6103dd6106e1366004614624565b611757565b61043d6117f2565b61043d6106fc366004614032565b611801565b61050861070f366004614664565b611832565b61041c600081565b6103dd61072a3660046146aa565b611988565b6103dd61073d3660046146e6565b611993565b6103dd610750366004614768565b611a37565b6103dd61076336600461479a565b611abc565b6103dd610776366004614032565b611aee565b6106a0611b1d565b6106a06107913660046147f5565b611bb6565b61043d6107a4366004614032565b611c8b565b61041c6107b7366004614032565b611c9e565b6102bb54610478906001600160a01b031681565b6107d8611cb5565b6040516103fe919061483a565b6107f86107f3366004614032565b611cc2565b6040516103fe9190614891565b6103dd610813366004614332565b611d32565b6103dd6108263660046148d4565b611d57565b6103dd6108393660046149b4565b611df2565b6103f261084c3660046149ef565b6001600160a01b039182166000908152606a6020908152604080832093909416825291909152205460ff1690565b6103dd61088836600461443d565b611e96565b6103dd61089b366004614a19565b611f13565b61043d6108ae366004614032565b611f55565b6103f26108c1366004614149565b6121d7565b6108dd6000805160206153628339815191526121e5565b6102ba55565b60006001600160e01b0319821663808d85fd60e01b14806109085750610908826121ef565b92915050565b600082815261025760209081526040808320848452909152902080546060919061093790614a60565b80601f016020809104026020016040519081016040528092919081815260200182805461096390614a60565b80156109b05780601f10610985576101008083540402835291602001916109b0565b820191906000526020600020905b81548152906001019060200180831161099357829003601f168201915b5050505050905092915050565b6060606580546109cc90614a60565b80601f01602080910402602001604051908101604052809291908181526020018280546109f890614a60565b8015610a455780601f10610a1a57610100808354040283529160200191610a45565b820191906000526020600020905b815481529060010190602001808311610a2857829003601f168201915b5050505050905090565b600082815261025860209081526040808320848452909152902080546060919061093790614a60565b6000610a83826121fa565b506000908152606960205260409020546001600160a01b031690565b6000610aaa8261110a565b9050806001600160a01b0316836001600160a01b031603610b1c5760405162461bcd60e51b815260206004820152602160248201527f4552433732313a20617070726f76616c20746f2063757272656e74206f776e656044820152603960f91b60648201526084015b60405180910390fd5b336001600160a01b0382161480610b385750610b38813361084c565b610baa5760405162461bcd60e51b815260206004820152603d60248201527f4552433732313a20617070726f76652063616c6c6572206973206e6f7420746f60448201527f6b656e206f776e6572206f7220617070726f76656420666f7220616c6c0000006064820152608401610b13565b610bb4838361224a565b505050565b610bd06000805160206153628339815191526121e5565b6102bb80546001600160a01b0319166001600160a01b0392909216919091179055565b610bfe335b826122b8565b610c1a5760405162461bcd60e51b8152600401610b1390614a9a565b610bb4838383612337565b6060600082516001600160401b03811115610c4257610c426141a0565b604051908082528060200260200182016040528015610c7557816020015b6060815260200190600190039081610c605790505b50905060005b8351811015610cd657610ca6848281518110610c9957610c99614ae7565b6020026020010151611f55565b828281518110610cb857610cb8614ae7565b60200260200101819052508080610cce90614b13565b915050610c7b565b5092915050565b600082815260c96020526040902060010154610cf8816121e5565b610bb483836124a8565b6000610d0d8361123c565b8210610d6f5760405162461bcd60e51b815260206004820152602b60248201527f455243373231456e756d657261626c653a206f776e657220696e646578206f7560448201526a74206f6620626f756e647360a81b6064820152608401610b13565b506001600160a01b039190911660009081526101c060209081526040808320938352929052205490565b6060600083516001600160401b03811115610db657610db66141a0565b604051908082528060200260200182016040528015610de957816020015b6060815260200190600190039081610dd45790505b50905060005b8451811015610eef576102586000868381518110610e0f57610e0f614ae7565b6020026020010151815260200190815260200160002060008581526020019081526020016000208054610e4190614a60565b80601f0160208091040260200160405190810160405280929190818152602001828054610e6d90614a60565b8015610eba5780601f10610e8f57610100808354040283529160200191610eba565b820191906000526020600020905b815481529060010190602001808311610e9d57829003601f168201915b5050505050828281518110610ed157610ed1614ae7565b60200260200101819052508080610ee790614b13565b915050610def565b509392505050565b6001600160a01b0381163314610f675760405162461bcd60e51b815260206004820152602f60248201527f416363657373436f6e74726f6c3a2063616e206f6e6c792072656e6f756e636560448201526e103937b632b9903337b91039b2b63360891b6064820152608401610b13565b610f7182826124ca565b5050565b610f8c6000805160206153628339815191526121e5565b610f946124ec565b565b610bb483838360405180602001604052806000815250611abc565b610fba8161253e565b50565b6000928352610256602090815260408085209385529281528284209184525290205490565b600080516020615382833981519152610ffa816121e5565b600084815261025760209081526040808320868452909152902061101e8382614b72565b5050505050565b60006110316101c25490565b82106110945760405162461bcd60e51b815260206004820152602c60248201527f455243373231456e756d657261626c653a20676c6f62616c20696e646578206f60448201526b7574206f6620626f756e647360a01b6064820152608401610b13565b6101c282815481106110a8576110a8614ae7565b90600052602060002001549050919050565b6000806110ca8360006001610fbd565b6110f06110da8560006002610fbd565b60048111156110eb576110eb61487b565b6125c0565b91509150915091565b60006111056102ba5490565b905090565b6000818152606760205260408120546001600160a01b0316806109085760405162461bcd60e51b8152602060048201526018602482015277115490cdcc8c4e881a5b9d985b1a59081d1bdad95b88125160421b6044820152606401610b13565b6111816000805160206153628339815191526121e5565b610224610f718282614b72565b60606000826001600160401b038111156111aa576111aa6141a0565b6040519080825280602002602001820160405280156111dd57816020015b60608152602001906001900390816111c85790505b50905060005b83811015610eef5761120c85858381811061120057611200614ae7565b90506020020135611c8b565b82828151811061121e5761121e614ae7565b6020026020010181905250808061123490614b13565b9150506111e3565b60006001600160a01b0382166112a65760405162461bcd60e51b815260206004820152602960248201527f4552433732313a2061646472657373207a65726f206973206e6f7420612076616044820152683634b21037bbb732b960b91b6064820152608401610b13565b506001600160a01b031660009081526068602052604090205490565b61022480546112d090614a60565b80601f01602080910402602001604051908101604052809291908181526020018280546112fc90614a60565b80156113495780601f1061131e57610100808354040283529160200191611349565b820191906000526020600020905b81548152906001019060200180831161132c57829003601f168201915b505050505081565b600080516020615382833981519152611369816121e5565b60005b85518110156114275782818151811061138757611387614ae7565b602002602001015161025660008884815181106113a6576113a6614ae7565b6020026020010151815260200190815260200160002060008784815181106113d0576113d0614ae7565b6020026020010151815260200190815260200160002060008684815181106113fa576113fa614ae7565b6020026020010151815260200190815260200160002081905550808061141f90614b13565b91505061136c565b505050505050565b600054610100900460ff161580801561144f5750600054600160ff909116105b806114695750303b158015611469575060005460ff166001145b6114cc5760405162461bcd60e51b815260206004820152602e60248201527f496e697469616c697a61626c653a20636f6e747261637420697320616c72656160448201526d191e481a5b9a5d1a585b1a5e995960921b6064820152608401610b13565b6000805460ff1916600117905580156114ef576000805461ff0019166101001790555b61153a6040518060400160405280600c81526020016b436f736d696320546f6f6c7360a01b81525060405180604001604052806005815260200164544f4f4c5360d81b815250612621565b611542612652565b61154a61267d565b6115526126a4565b61155a6126d3565b611562612652565b61156a6127bb565b8015610fba576000805461ff0019169055604051600181527f7f26b83ff96e1f2b6a682f133852f6798a09c465da95921460cefb38474024989060200160405180910390a150565b6115c96000805160206153828339815191526121e5565b60006115d88360006001610fbd565b9050808211156116435760405162461bcd60e51b815260206004820152603060248201527f436f736d6963546f6f6c733a3a416d6f756e7420657863656564732072656d6160448201526f696e696e67206475726162696c69747960801b6064820152608401610b13565b610bb483600060016107508686614c31565b61166c6000805160206153628339815191526121e5565b610f946127ea565b606060006116818361123c565b90506000816001600160401b0381111561169d5761169d6141a0565b6040519080825280602002602001820160405280156116c6578160200160208202803683370190505b50905060005b82811015610eef576116de8582610d02565b8282815181106116f0576116f0614ae7565b60209081029190910101528061170581614b13565b9150506116cc565b600082815260fb602052604081206117259083612827565b9392505050565b600091825260c9602090815260408084206001600160a01b0393909316845291905290205460ff1690565b6117807f9f2df0fed2c77648de5860a4cc508cd0818c85b8b8a1ab4ceeef8d981c8956a66121e5565b6000818060200190518101906117969190614c51565b90506117a9836000808460000151611a37565b6117bb83600060018460200151611a37565b6117d98360006002846040015160048111156107505761075061487b565b6117e38484612833565b6117ec8361284d565b50505050565b6060606680546109cc90614a60565b606061180c82611cc2565b60405160200161181c9190614891565b6040516020818303038152906040529050919050565b6060600082516001600160401b0381111561184f5761184f6141a0565b60405190808252806020026020018201604052801561188257816020015b606081526020019060019003908161186d5790505b50905060005b8351811015610eef57610258600086815260200190815260200160002060008583815181106118b9576118b9614ae7565b6020026020010151815260200190815260200160002080546118da90614a60565b80601f016020809104026020016040519081016040528092919081815260200182805461190690614a60565b80156119535780601f1061192857610100808354040283529160200191611953565b820191906000526020600020905b81548152906001019060200180831161193657829003601f168201915b505050505082828151811061196a5761196a614ae7565b6020026020010181905250808061198090614b13565b915050611888565b610f71338383612859565b6119bc7f9f2df0fed2c77648de5860a4cc508cd0818c85b8b8a1ab4ceeef8d981c8956a66121e5565b60006119c86102ba5490565b90506119d96102ba80546001019055565b6119e38482612833565b60006119f183850185614c93565b9050611a04826000808460000151611a37565b611a19826000600161075085604001516125c0565b61101e8260006002846040015160048111156107505761075061487b565b600080516020615382833981519152611a4f816121e5565b6000858152610256602090815260408083208784528252808320868452825291829020849055815186815290810185905290810183905285907fc3bdb5f4a3cbb68ce4ebe3dda3660f3067add044dc5be3a047d818fd416663699060600160405180910390a25050505050565b611ac633836122b8565b611ae25760405162461bcd60e51b8152600401610b1390614a9a565b6117ec84848484612927565b611b056000805160206153828339815191526121e5565b610fba81600060016107506110da8660006002610fbd565b60606000611b2b6101c25490565b90506000816001600160401b03811115611b4757611b476141a0565b604051908082528060200260200182016040528015611b70578160200160208202803683370190505b50905060005b82811015610cd657611b8781611025565b828281518110611b9957611b99614ae7565b602090810291909101015280611bae81614b13565b915050611b76565b6060600082516001600160401b03811115611bd357611bd36141a0565b604051908082528060200260200182016040528015611bfc578160200160208202803683370190505b50905060005b8351811015611c825760008681526102566020908152604080832088845290915281208551909190869084908110611c3c57611c3c614ae7565b6020026020010151815260200190815260200160002054828281518110611c6557611c65614ae7565b602090810291909101015280611c7a81614b13565b915050611c02565b50949350505050565b6060610908611c9983611f55565b61295a565b600081815260fb6020526040812061090890612975565b606061110561028761297f565b611cca614001565b60006040518060600160405280611ce385600080610fbd565b8152602001611cf58560006001610fbd565b8152602001611d078560006002610fbd565b6004811115611d1857611d1861487b565b6004811115611d2957611d2961487b565b90529392505050565b600082815260c96020526040902060010154611d4d816121e5565b610bb483836124ca565b600080516020615382833981519152611d6f816121e5565b60005b835181101561101e57828181518110611d8d57611d8d614ae7565b602002602001015161025760008781526020019081526020016000206000868481518110611dbd57611dbd614ae7565b602002602001015181526020019081526020016000209081611ddf9190614b72565b5080611dea81614b13565b915050611d72565b600080516020615382833981519152611e0a816121e5565b60005b835181101561142757828181518110611e2857611e28614ae7565b6020026020010151610256600088815260200190815260200160002060008781526020019081526020016000206000868481518110611e6957611e69614ae7565b60200260200101518152602001908152602001600020819055508080611e8e90614b13565b915050611e0d565b600080516020615382833981519152611eae816121e5565b6000848152610258602090815260408083208684529091529020611ed28382614b72565b50837fbf91c112c44cd8e958afe3106b290f594b5e23b83fcc88bdb9ac5da7f00be5698484604051611f05929190614cc9565b60405180910390a250505050565b60005b81518110156117ec57611f438484848481518110611f3657611f36614ae7565b6020026020010151610bf3565b80611f4d81614b13565b915050611f16565b60606000611f6583600080610fbd565b90506000611f7460648361090e565b90506000611f858560006002610fbd565b6004811115611f9657611f9661487b565b90506000611faf611faa8760006001610fbd565b61298c565b611fbb611faa846125c0565b604051602001611fcc929190614cfe565b60408051808303601f19018152600380845260808401909252925060009190816020015b61201d60405180608001604052806060815260200160608152602001606081526020016000151581525090565b815260200190600190039081611ff05750506040805160c081018252600a6080820190815269283937b332b9b9b4b7b760b11b60a0830152815281516020808201845260008252820152919250810161207760018861090e565b8152602001600015158152508160008151811061209657612096614ae7565b602002602001018190525060405180608001604052806040518060400160405280600a8152602001694475726162696c69747960b01b8152508152602001604051806020016040528060008152508152602001838152602001600015158152508160018151811061210957612109614ae7565b602002602001018190525060405180608001604052806040518060400160405280600681526020016552617269747960d01b815250815260200160405180602001604052806000815250815260200161216185612a1e565b8152602001600015158152508160028151811061218057612180614ae7565b60200260200101819052506121cc87856040518060400160405280602081526020017f436f736d696320546f6f6c7320666f7220436f736d696320556e69766572736581525084612b15565b979650505050505050565b600061090861028783612b64565b610fba8133612b86565b600061090882612bdf565b61220381612c04565b610fba5760405162461bcd60e51b8152602060048201526018602482015277115490cdcc8c4e881a5b9d985b1a59081d1bdad95b88125160421b6044820152606401610b13565b600081815260696020526040902080546001600160a01b0319166001600160a01b038416908117909155819061227f8261110a565b6001600160a01b03167f8c5be1e5ebec7d5bd14f71427d1e84f3dd0314c0f7b2291e5b200ac8c7c3b92560405160405180910390a45050565b6000806122c48361110a565b9050806001600160a01b0316846001600160a01b0316148061230b57506001600160a01b038082166000908152606a602090815260408083209388168352929052205460ff165b8061232f5750836001600160a01b031661232484610a78565b6001600160a01b0316145b949350505050565b826001600160a01b031661234a8261110a565b6001600160a01b0316146123705760405162461bcd60e51b8152600401610b1390614d3a565b6001600160a01b0382166123d25760405162461bcd60e51b8152602060048201526024808201527f4552433732313a207472616e7366657220746f20746865207a65726f206164646044820152637265737360e01b6064820152608401610b13565b6123df8383836001612c0f565b826001600160a01b03166123f28261110a565b6001600160a01b0316146124185760405162461bcd60e51b8152600401610b1390614d3a565b600081815260696020908152604080832080546001600160a01b03199081169091556001600160a01b0387811680865260688552838620805460001901905590871680865283862080546001019055868652606790945282852080549092168417909155905184937fddf252ad1be2c89b69c2b068fc378daa952ba7f163c4a11628f55a4df523b3ef91a4505050565b6124b28282612cc3565b600082815260fb60205260409020610bb49082612d49565b6124d48282612d5e565b600082815260fb60205260409020610bb49082612dc5565b6124f4612dda565b6097805460ff191690557f5db9ee0a495bf2e6ff9c91a7834c1ba4fdd244a5e8aa4e537bd38aeae4b073aa335b6040516001600160a01b03909116815260200160405180910390a1565b61254733610bf8565b6125aa5760405162461bcd60e51b815260206004820152602e60248201527f4552433732313a2063616c6c6572206973206e6f7420746f6b656e206f776e6560448201526d1c881b9bdc88185c1c1c9bdd995960921b6064820152608401610b13565b6125b661018d82612e23565b50610fba81612e2f565b6040805160a081018252600a8152600f6020820152601e918101919091526032606082015260646080820152600090808360048111156126025761260261487b565b6005811061261257612612614ae7565b602002015160ff169392505050565b600054610100900460ff166126485760405162461bcd60e51b8152600401610b1390614d7f565b610f718282612ed2565b600054610100900460ff166126795760405162461bcd60e51b8152600401610b1390614d7f565b610f945b600054610100900460ff16610f945760405162461bcd60e51b8152600401610b1390614d7f565b600054610100900460ff166126cb5760405162461bcd60e51b8152600401610b1390614d7f565b610f94612f12565b600054610100900460ff166126fa5760405162461bcd60e51b8152600401610b1390614d7f565b61270261267d565b61270d6000336124a8565b612725600080516020615362833981519152336124a8565b61273d600080516020615382833981519152336124a8565b6127677f9f2df0fed2c77648de5860a4cc508cd0818c85b8b8a1ab4ceeef8d981c8956a6336124a8565b6127917ff18b77e1ef402111bacb54bd5e03494cbdba92fbd1bd3bbcc1ce77e69b42ea6c336124a8565b610f947f52ba824bfabc2bcfcdf7f0edbb486ebb05e1836c90e78047efeb949990f72e5f336124a8565b600054610100900460ff166127e25760405162461bcd60e51b8152600401610b1390614d7f565b610f94612f45565b6127f2612f8c565b6097805460ff191660011790557f62e78cea01bee320cd4e420270b5ea74000d11b0c9f74754ebdbfc544b05a2586125213390565b60006117258383612fd2565b610f71828260405180602001604052806000815250612ffc565b610f7161018d8261302f565b816001600160a01b0316836001600160a01b0316036128ba5760405162461bcd60e51b815260206004820152601960248201527f4552433732313a20617070726f766520746f2063616c6c6572000000000000006044820152606401610b13565b6001600160a01b038381166000818152606a6020908152604080832094871680845294825291829020805460ff191686151590811790915591519182527f17307eab39ab6107e8899845ad3d59bd9653f200f220920489ca2b5937696c31910160405180910390a3505050565b612932848484612337565b61293e8484848461303b565b6117ec5760405162461bcd60e51b8152600401610b1390614dca565b606061296582613139565b60405160200161181c9190614e1c565b6000610908825490565b606060006117258361328b565b60606000612999836132e7565b60010190506000816001600160401b038111156129b8576129b86141a0565b6040519080825280601f01601f1916602001820160405280156129e2576020820181803683370190505b5090508181016020015b600019016f181899199a1a9b1b9c1cb0b131b232b360811b600a86061a8153600a85049450846129ec57509392505050565b606060006040518060a001604052806040518060400160405280600681526020016521b7b6b6b7b760d11b8152508152602001604051806040016040528060088152602001672ab731b7b6b6b7b760c11b8152508152602001604051806040016040528060048152602001635261726560e01b815250815260200160405180604001604052806008815260200167135e5d1a1a58d85b60c21b8152508152602001604051806040016040528060098152602001684c6567656e6461727960b81b815250815250905080836004811115612af957612af961487b565b60058110612b0957612b09614ae7565b60200201519392505050565b60606000612b228661110a565b90506000610224612b32886133bf565b604051602001612b43929190614e61565b60405160208183030381529060405290506121cc878388848960028a6133fc565b6001600160a01b03811660009081526001830160205260408120541515611725565b612b90828261172c565b610f7157612b9d81613448565b612ba883602061345a565b604051602001612bb9929190614ee8565b60408051601f198184030181529082905262461bcd60e51b8252610b13916004016140f0565b60006001600160e01b0319821663780e9d6360e01b14806109085750610908826135f5565b600061090882613600565b612c17612f8c565b83612c2461028782612b64565b15612c675760405162461bcd60e51b8152602060048201526013602482015272426c61636b6c6973746564206164647265737360681b6044820152606401610b13565b83612c7461028782612b64565b15612cb75760405162461bcd60e51b8152602060048201526013602482015272426c61636b6c6973746564206164647265737360681b6044820152606401610b13565b6114278686868661361f565b612ccd828261172c565b610f7157600082815260c9602090815260408083206001600160a01b03851684529091529020805460ff19166001179055612d053390565b6001600160a01b0316816001600160a01b0316837f2f8788117e7eff1d82e926ec794901d17c78024a50270940304540a733656f0d60405160405180910390a45050565b6000611725836001600160a01b03841661362b565b612d68828261172c565b15610f7157600082815260c9602090815260408083206001600160a01b0385168085529252808320805460ff1916905551339285917ff6391f5c32d9c69d2a47ea670b442974b53935d1edc7fd64eb21e047a839171b9190a45050565b6000611725836001600160a01b03841661367a565b60975460ff16610f945760405162461bcd60e51b815260206004820152601460248201527314185d5cd8589b194e881b9bdd081c185d5cd95960621b6044820152606401610b13565b6000611725838361362b565b6000612e3a8261110a565b9050612e4a816000846001612c0f565b612e538261110a565b600083815260696020908152604080832080546001600160a01b03199081169091556001600160a01b0385168085526068845282852080546000190190558785526067909352818420805490911690555192935084927fddf252ad1be2c89b69c2b068fc378daa952ba7f163c4a11628f55a4df523b3ef908390a45050565b600054610100900460ff16612ef95760405162461bcd60e51b8152600401610b1390614d7f565b6065612f058382614b72565b506066610bb48282614b72565b600054610100900460ff16612f395760405162461bcd60e51b8152600401610b1390614d7f565b6097805460ff19169055565b600054610100900460ff16612f6c5760405162461bcd60e51b8152600401610b1390614d7f565b612f7461267d565b610f94600080516020615382833981519152336124a8565b60975460ff1615610f945760405162461bcd60e51b815260206004820152601060248201526f14185d5cd8589b194e881c185d5cd95960821b6044820152606401610b13565b6000826000018281548110612fe957612fe9614ae7565b9060005260206000200154905092915050565b613006838361376d565b613013600084848461303b565b610bb45760405162461bcd60e51b8152600401610b1390614dca565b6000611725838361367a565b60006001600160a01b0384163b1561313157604051630a85bd0160e11b81526001600160a01b0385169063150b7a029061307f903390899088908890600401614f5d565b6020604051808303816000875af19250505080156130ba575060408051601f3d908101601f191682019092526130b791810190614f9a565b60015b613117573d8080156130e8576040519150601f19603f3d011682016040523d82523d6000602084013e6130ed565b606091505b50805160000361310f5760405162461bcd60e51b8152600401610b1390614dca565b805181602001fd5b6001600160e01b031916630a85bd0160e11b14905061232f565b50600161232f565b6060815160000361315857505060408051602081019091526000815290565b600060405180606001604052806040815260200161532260409139905060006003845160026131879190614fb7565b6131919190614fca565b61319c906004614fec565b6001600160401b038111156131b3576131b36141a0565b6040519080825280601f01601f1916602001820160405280156131dd576020820181803683370190505b509050600182016020820185865187015b80821015613249576003820191508151603f8160121c168501518453600184019350603f81600c1c168501518453600184019350603f8160061c168501518453600184019350603f81168501518453506001830192506131ee565b5050600386510660018114613265576002811461327857613280565b603d6001830353603d6002830353613280565b603d60018303535b509195945050505050565b6060816000018054806020026020016040519081016040528092919081815260200182805480156132db57602002820191906000526020600020905b8154815260200190600101908083116132c7575b50505050509050919050565b60008072184f03e93ff9f4daa797ed6e38ed64bf6a1f0160401b83106133265772184f03e93ff9f4daa797ed6e38ed64bf6a1f0160401b830492506040015b6d04ee2d6d415b85acef81000000008310613352576d04ee2d6d415b85acef8100000000830492506020015b662386f26fc10000831061337057662386f26fc10000830492506010015b6305f5e1008310613388576305f5e100830492506008015b612710831061339c57612710830492506004015b606483106133ae576064830492506002015b600a83106109085760010192915050565b606060006133d08360006002610fbd565b6133dc84600080610fbd565b6133e790600f614fec565b6133f19190614fb7565b90506117258161298c565b6060600061340e8989898989896138e8565b90508061341a84613952565b60405160200161342b929190615003565b604051602081830303815290604052915050979650505050505050565b60606109086001600160a01b03831660145b60606000613469836002614fec565b613474906002614fb7565b6001600160401b0381111561348b5761348b6141a0565b6040519080825280601f01601f1916602001820160405280156134b5576020820181803683370190505b509050600360fc1b816000815181106134d0576134d0614ae7565b60200101906001600160f81b031916908160001a905350600f60fb1b816001815181106134ff576134ff614ae7565b60200101906001600160f81b031916908160001a9053506000613523846002614fec565b61352e906001614fb7565b90505b60018111156135a6576f181899199a1a9b1b9c1cb0b131b232b360811b85600f166010811061356257613562614ae7565b1a60f81b82828151811061357857613578614ae7565b60200101906001600160f81b031916908160001a90535060049490941c9361359f81615050565b9050613531565b5083156117255760405162461bcd60e51b815260206004820181905260248201527f537472696e67733a20686578206c656e67746820696e73756666696369656e746044820152606401610b13565b600061090882613b5d565b6000818152606760205260408120546001600160a01b03161515610908565b6117ec84848484613b82565b600081815260018301602052604081205461367257508154600181810184556000848152602080822090930184905584548482528286019093526040902091909155610908565b506000610908565b6000818152600183016020526040812054801561376357600061369e600183614c31565b85549091506000906136b290600190614c31565b90508181146137175760008660000182815481106136d2576136d2614ae7565b90600052602060002001549050808760000184815481106136f5576136f5614ae7565b6000918252602080832090910192909255918252600188019052604090208390555b855486908061372857613728615067565b600190038181906000526020600020016000905590558560010160008681526020019081526020016000206000905560019350505050610908565b6000915050610908565b6001600160a01b0382166137c35760405162461bcd60e51b815260206004820181905260248201527f4552433732313a206d696e7420746f20746865207a65726f20616464726573736044820152606401610b13565b6137cc81612c04565b156138195760405162461bcd60e51b815260206004820152601c60248201527f4552433732313a20746f6b656e20616c7265616479206d696e746564000000006044820152606401610b13565b613827600083836001612c0f565b61383081612c04565b1561387d5760405162461bcd60e51b815260206004820152601c60248201527f4552433732313a20746f6b656e20616c7265616479206d696e746564000000006044820152606401610b13565b6001600160a01b038216600081815260686020908152604080832080546001019055848352606790915280822080546001600160a01b0319168417905551839291907fddf252ad1be2c89b69c2b068fc378daa952ba7f163c4a11628f55a4df523b3ef908290a45050565b6060846138f48861298c565b84866139088a6001600160a01b0316613448565b61392287600281111561391d5761391d61487b565b613cbd565b6040516020016139379695949392919061507d565b60405160208183030381529060405290509695505050505050565b60408051602081019091526000808252606091905b8351811015613b34576000600185516139809190614c31565b82146139a557604051806040016040528060018152602001600b60fa1b8152506139b6565b604051806020016040528060008152505b905060008583815181106139cc576139cc614ae7565b6020026020010151606001516139fb57604051806040016040528060018152602001601160f91b815250613a0c565b604051806020016040528060008152505b9050600081878581518110613a2357613a23614ae7565b60200260200101516040015183604051602001613a429392919061519c565b60405160208183030381529060405290506000878581518110613a6757613a67614ae7565b60200260200101516020015151600014613abd57878581518110613a8d57613a8d614ae7565b602002602001015160200151604051602001613aa991906151df565b604051602081830303815290604052613ace565b604051806020016040528060008152505b9050600086898781518110613ae557613ae5614ae7565b602002602001015160000151838588604051602001613b08959493929190615224565b604051602081830303815290604052905080965050505050508080613b2c90614b13565b915050613967565b5080604051602001613b4691906152df565b604051602081830303815290604052915050919050565b60006001600160e01b03198216635a05180f60e01b1480610908575061090882613d5b565b613b8e84848484613d80565b6001811115613bfd5760405162461bcd60e51b815260206004820152603560248201527f455243373231456e756d657261626c653a20636f6e7365637574697665207472604482015274185b9cd9995c9cc81b9bdd081cdd5c1c1bdc9d1959605a1b6064820152608401610b13565b816001600160a01b038516613c5b57613c56816101c2805460008381526101c360205260408120829055600182018355919091527f363a63c83fb1b082d2626fb079e7d74d92caf27fec08dcc75278f5de8d9db6d70155565b613c7e565b836001600160a01b0316856001600160a01b031614613c7e57613c7e8582613d8c565b6001600160a01b038416613c9a57613c9581613e2e565b61101e565b846001600160a01b0316846001600160a01b03161461101e5761101e8482613ee3565b60606002826002811115613cd357613cd361487b565b14613d39576001826002811115613cec57613cec61487b565b14613d145760405180604001604052806005815260200164045524332360dc1b815250610908565b604051806040016040528060078152602001664552433131353560c81b815250610908565b505060408051808201909152600681526545524337323160d01b602082015290565b60006001600160e01b03198216637965db0b60e01b1480610908575061090882613f29565b6117ec84848484613f79565b60006001613d998461123c565b613da39190614c31565b60008381526101c16020526040902054909150808214613df9576001600160a01b03841660009081526101c06020908152604080832085845282528083205484845281842081905583526101c190915290208190555b5060009182526101c1602090815260408084208490556001600160a01b0390941683526101c081528383209183525290812055565b6101c254600090613e4190600190614c31565b60008381526101c360205260408120546101c28054939450909284908110613e6b57613e6b614ae7565b90600052602060002001549050806101c28381548110613e8d57613e8d614ae7565b60009182526020808320909101929092558281526101c390915260408082208490558582528120556101c2805480613ec757613ec7615067565b6001900381819060005260206000200160009055905550505050565b6000613eee8361123c565b6001600160a01b0390931660009081526101c06020908152604080832086845282528083208590559382526101c19052919091209190915550565b60006001600160e01b031982166380ac58cd60e01b1480613f5a57506001600160e01b03198216635b5e139f60e01b145b8061090857506301ffc9a760e01b6001600160e01b0319831614610908565b60018111156117ec576001600160a01b03841615613fbf576001600160a01b03841660009081526068602052604081208054839290613fb9908490614c31565b90915550505b6001600160a01b038316156117ec576001600160a01b03831660009081526068602052604081208054839290613ff6908490614fb7565b909155505050505050565b604051806060016040528060008152602001600081526020016000600481111561402d5761402d61487b565b905290565b60006020828403121561404457600080fd5b5035919050565b6001600160e01b031981168114610fba57600080fd5b60006020828403121561407357600080fd5b81356117258161404b565b6000806040838503121561409157600080fd5b50508035926020909101359150565b60005b838110156140bb5781810151838201526020016140a3565b50506000910152565b600081518084526140dc8160208601602086016140a0565b601f01601f19169290920160200192915050565b60208152600061172560208301846140c4565b80356001600160a01b038116811461411a57600080fd5b919050565b6000806040838503121561413257600080fd5b61413b83614103565b946020939093013593505050565b60006020828403121561415b57600080fd5b61172582614103565b60008060006060848603121561417957600080fd5b61418284614103565b925061419060208501614103565b9150604084013590509250925092565b634e487b7160e01b600052604160045260246000fd5b604051606081016001600160401b03811182821017156141d8576141d86141a0565b60405290565b604051601f8201601f191681016001600160401b0381118282101715614206576142066141a0565b604052919050565b60006001600160401b03821115614227576142276141a0565b5060051b60200190565b600082601f83011261424257600080fd5b813560206142576142528361420e565b6141de565b82815260059290921b8401810191818101908684111561427657600080fd5b8286015b84811015614291578035835291830191830161427a565b509695505050505050565b6000602082840312156142ae57600080fd5b81356001600160401b038111156142c457600080fd5b61232f84828501614231565b6000602080830181845280855180835260408601915060408160051b870101925083870160005b8281101561432557603f198886030184526143138583516140c4565b945092850192908501906001016142f7565b5092979650505050505050565b6000806040838503121561434557600080fd5b8235915061435560208401614103565b90509250929050565b6000806040838503121561437157600080fd5b82356001600160401b0381111561438757600080fd5b61439385828601614231565b95602094909401359450505050565b6000806000606084860312156143b757600080fd5b505081359360208301359350604090920135919050565b600082601f8301126143df57600080fd5b81356001600160401b038111156143f8576143f86141a0565b61440b601f8201601f19166020016141de565b81815284602083860101111561442057600080fd5b816020850160208301376000918101602001919091529392505050565b60008060006060848603121561445257600080fd5b833592506020840135915060408401356001600160401b0381111561447657600080fd5b614482868287016143ce565b9150509250925092565b60006020828403121561449e57600080fd5b81356001600160401b038111156144b457600080fd5b61232f848285016143ce565b600080602083850312156144d357600080fd5b82356001600160401b03808211156144ea57600080fd5b818501915085601f8301126144fe57600080fd5b81358181111561450d57600080fd5b8660208260051b850101111561452257600080fd5b60209290920196919550909350505050565b6000806000806080858703121561454a57600080fd5b84356001600160401b038082111561456157600080fd5b61456d88838901614231565b9550602087013591508082111561458357600080fd5b61458f88838901614231565b945060408701359150808211156145a557600080fd5b6145b188838901614231565b935060608701359150808211156145c757600080fd5b506145d487828801614231565b91505092959194509250565b6020808252825182820181905260009190848201906040850190845b81811015614618578351835292840192918401916001016145fc565b50909695505050505050565b60008060006060848603121561463957600080fd5b61464284614103565b92506020840135915060408401356001600160401b0381111561447657600080fd5b6000806040838503121561467757600080fd5b8235915060208301356001600160401b0381111561469457600080fd5b6146a085828601614231565b9150509250929050565b600080604083850312156146bd57600080fd5b6146c683614103565b9150602083013580151581146146db57600080fd5b809150509250929050565b6000806000604084860312156146fb57600080fd5b61470484614103565b925060208401356001600160401b038082111561472057600080fd5b818601915086601f83011261473457600080fd5b81358181111561474357600080fd5b87602082850101111561475557600080fd5b6020830194508093505050509250925092565b6000806000806080858703121561477e57600080fd5b5050823594602084013594506040840135936060013592509050565b600080600080608085870312156147b057600080fd5b6147b985614103565b93506147c760208601614103565b92506040850135915060608501356001600160401b038111156147e957600080fd5b6145d4878288016143ce565b60008060006060848603121561480a57600080fd5b833592506020840135915060408401356001600160401b0381111561482e57600080fd5b61448286828701614231565b6020808252825182820181905260009190848201906040850190845b818110156146185783516001600160a01b031683529284019291840191600101614856565b634e487b7160e01b600052602160045260246000fd5b815181526020808301519082015260408201516060820190600581106148c757634e487b7160e01b600052602160045260246000fd5b8060408401525092915050565b6000806000606084860312156148e957600080fd5b833592506020808501356001600160401b038082111561490857600080fd5b61491488838901614231565b9450604087013591508082111561492a57600080fd5b818701915087601f83011261493e57600080fd5b813561494c6142528261420e565b81815260059190911b8301840190848101908a83111561496b57600080fd5b8585015b838110156149a3578035858111156149875760008081fd5b6149958d89838a01016143ce565b84525091860191860161496f565b508096505050505050509250925092565b600080600080608085870312156149ca57600080fd5b843593506020850135925060408501356001600160401b03808211156145a557600080fd5b60008060408385031215614a0257600080fd5b614a0b83614103565b915061435560208401614103565b600080600060608486031215614a2e57600080fd5b614a3784614103565b9250614a4560208501614103565b915060408401356001600160401b0381111561482e57600080fd5b600181811c90821680614a7457607f821691505b602082108103614a9457634e487b7160e01b600052602260045260246000fd5b50919050565b6020808252602d908201527f4552433732313a2063616c6c6572206973206e6f7420746f6b656e206f776e6560408201526c1c881bdc88185c1c1c9bdd9959609a1b606082015260800190565b634e487b7160e01b600052603260045260246000fd5b634e487b7160e01b600052601160045260246000fd5b600060018201614b2557614b25614afd565b5060010190565b601f821115610bb457600081815260208120601f850160051c81016020861015614b535750805b601f850160051c820191505b8181101561142757828155600101614b5f565b81516001600160401b03811115614b8b57614b8b6141a0565b614b9f81614b998454614a60565b84614b2c565b602080601f831160018114614bd45760008415614bbc5750858301515b600019600386901b1c1916600185901b178555611427565b600085815260208120601f198616915b82811015614c0357888601518255948401946001909101908401614be4565b5085821015614c215787850151600019600388901b60f8161c191681555b5050505050600190811b01905550565b8181038181111561090857610908614afd565b60058110610fba57600080fd5b600060608284031215614c6357600080fd5b614c6b6141b6565b82518152602083015160208201526040830151614c8781614c44565b60408201529392505050565b600060608284031215614ca557600080fd5b614cad6141b6565b82358152602083013560208201526040830135614c8781614c44565b82815260406020820152600061232f60408301846140c4565b60008151614cf48185602086016140a0565b9290920192915050565b60008351614d108184602088016140a0565b602f60f81b9083019081528351614d2e8160018401602088016140a0565b01600101949350505050565b60208082526025908201527f4552433732313a207472616e736665722066726f6d20696e636f72726563742060408201526437bbb732b960d91b606082015260800190565b6020808252602b908201527f496e697469616c697a61626c653a20636f6e7472616374206973206e6f74206960408201526a6e697469616c697a696e6760a81b606082015260800190565b60208082526032908201527f4552433732313a207472616e7366657220746f206e6f6e20455243373231526560408201527131b2b4bb32b91034b6b83632b6b2b73a32b960711b606082015260800190565b7f646174613a6170706c69636174696f6e2f6a736f6e3b6261736536342c000000815260008251614e5481601d8501602087016140a0565b91909101601d0192915050565b6000808454614e6f81614a60565b60018281168015614e875760018114614e9c57614ecb565b60ff1984168752821515830287019450614ecb565b8860005260208060002060005b85811015614ec25781548a820152908401908201614ea9565b50505082870194505b505050508351614edf8183602088016140a0565b01949350505050565b7f416363657373436f6e74726f6c3a206163636f756e7420000000000000000000815260008351614f208160178501602088016140a0565b7001034b99036b4b9b9b4b733903937b6329607d1b6017918401918201528351614f518160288401602088016140a0565b01602801949350505050565b6001600160a01b0385811682528416602082015260408101839052608060608201819052600090614f90908301846140c4565b9695505050505050565b600060208284031215614fac57600080fd5b81516117258161404b565b8082018082111561090857610908614afd565b600082614fe757634e487b7160e01b600052601260045260246000fd5b500490565b808202811582820484141761090857610908614afd565b607b60f81b81526000835161501f8160018501602088016140a0565b8351908301906150368160018401602088016140a0565b607d60f81b60019290910191820152600201949350505050565b60008161505f5761505f614afd565b506000190190565b634e487b7160e01b600052603160045260246000fd5b67113730b6b2911d1160c11b815286516000906150a1816008850160208c016140a0565b61088b60f21b60089184019182018190526a113a37b5b2b724b2111d1160a91b600a83015288516150d9816015850160208d016140a0565b601592019182018190526e113232b9b1b934b83a34b7b7111d1160891b6017830152875161510e816026850160208c016140a0565b602692019182015261518f61514c6151896151758261516f61515a8261514660288a01681134b6b0b3b2911d1160b91b815260090190565b8e614ce2565b61088b60f21b815260020190565b681137bbb732b9111d1160b91b815260090190565b8a614ce2565b67113a3cb832911d1160c11b815260080190565b86614ce2565b9998505050505050505050565b600084516151ae8184602089016140a0565b8451908301906151c28183602089016140a0565b84519101906151d58183602088016140a0565b0195945050505050565b6f113234b9b83630bcafba3cb832911d1160811b8152815160009061520b8160108501602087016140a0565b61088b60f21b6010939091019283015250601201919050565b60008651615236818460208b016140a0565b6e3d913a3930b4ba2fba3cb832911d1160891b908301908152865161526281600f840160208b016140a0565b61088b60f21b600f92909101918201528551615285816011840160208a016140a0565b67113b30b63ab2911d60c11b6011929091019182015284516152ae8160198401602089016140a0565b607d60f81b6019929091019182015283516152d081601a8401602088016140a0565b01601a01979650505050505050565b6d2261747472696275746573223a5b60901b8152815160009061530981600e8501602087016140a0565b605d60f81b600e939091019283015250600f0191905056fe4142434445464748494a4b4c4d4e4f505152535455565758595a6162636465666768696a6b6c6d6e6f707172737475767778797a303132333435363738392b2fa49807205ce4d355092ef5a8a18f56e8913cf4a201fbe287825b095693c21775364d3d7565c7a8300c96fd53e065d19b65848d7b23b3191adcd55621c744223ca2646970667358221220d83225f88efd45019ab4d7ab16e8f01b111aca5825a7fba5f3cbb298bf5bff8964736f6c63430008110033",
  "linkReferences": {},
  "deployedLinkReferences": {}
}