{
  "_format": "hh-sol-artifact-1",
  "contractName": "CosmicTools",
  "sourceName": "contracts/upgradeable/ERC721/CosmicTools/CosmicTools.sol",
  "abi": [
    {
      "inputs": [],
      "stateMutability": "nonpayable",
      "type": "constructor"
    },
    {
      "anonymous": false,
      "inputs": [
        {
          "indexed": true,
          "internalType": "address",
          "name": "owner",
          "type": "address"
        },
        {
          "indexed": true,
          "internalType": "address",
          "name": "approved",
          "type": "address"
        },
        {
          "indexed": true,
          "internalType": "uint256",
          "name": "tokenId",
          "type": "uint256"
        }
      ],
      "name": "Approval",
      "type": "event"
    },
    {
      "anonymous": false,
      "inputs": [
        {
          "indexed": true,
          "internalType": "address",
          "name": "owner",
          "type": "address"
        },
        {
          "indexed": true,
          "internalType": "address",
          "name": "operator",
          "type": "address"
        },
        {
          "indexed": false,
          "internalType": "bool",
          "name": "approved",
          "type": "bool"
        }
      ],
      "name": "ApprovalForAll",
      "type": "event"
    },
    {
      "anonymous": false,
      "inputs": [
        {
          "indexed": false,
          "internalType": "uint8",
          "name": "version",
          "type": "uint8"
        }
      ],
      "name": "Initialized",
      "type": "event"
    },
    {
      "anonymous": false,
      "inputs": [
        {
          "indexed": false,
          "internalType": "address",
          "name": "account",
          "type": "address"
        }
      ],
      "name": "Paused",
      "type": "event"
    },
    {
      "anonymous": false,
      "inputs": [
        {
          "indexed": true,
          "internalType": "bytes32",
          "name": "role",
          "type": "bytes32"
        },
        {
          "indexed": true,
          "internalType": "bytes32",
          "name": "previousAdminRole",
          "type": "bytes32"
        },
        {
          "indexed": true,
          "internalType": "bytes32",
          "name": "newAdminRole",
          "type": "bytes32"
        }
      ],
      "name": "RoleAdminChanged",
      "type": "event"
    },
    {
      "anonymous": false,
      "inputs": [
        {
          "indexed": true,
          "internalType": "bytes32",
          "name": "role",
          "type": "bytes32"
        },
        {
          "indexed": true,
          "internalType": "address",
          "name": "account",
          "type": "address"
        },
        {
          "indexed": true,
          "internalType": "address",
          "name": "sender",
          "type": "address"
        }
      ],
      "name": "RoleGranted",
      "type": "event"
    },
    {
      "anonymous": false,
      "inputs": [
        {
          "indexed": true,
          "internalType": "bytes32",
          "name": "role",
          "type": "bytes32"
        },
        {
          "indexed": true,
          "internalType": "address",
          "name": "account",
          "type": "address"
        },
        {
          "indexed": true,
          "internalType": "address",
          "name": "sender",
          "type": "address"
        }
      ],
      "name": "RoleRevoked",
      "type": "event"
    },
    {
      "anonymous": false,
      "inputs": [
        {
          "indexed": true,
          "internalType": "uint256",
          "name": "tokenId",
          "type": "uint256"
        },
        {
          "indexed": false,
          "internalType": "uint256",
          "name": "customId",
          "type": "uint256"
        },
        {
          "indexed": false,
          "internalType": "string",
          "name": "value",
          "type": "string"
        }
      ],
      "name": "TextUpdated",
      "type": "event"
    },
    {
      "anonymous": false,
      "inputs": [
        {
          "indexed": true,
          "internalType": "address",
          "name": "from",
          "type": "address"
        },
        {
          "indexed": true,
          "internalType": "address",
          "name": "to",
          "type": "address"
        },
        {
          "indexed": true,
          "internalType": "uint256",
          "name": "tokenId",
          "type": "uint256"
        }
      ],
      "name": "Transfer",
      "type": "event"
    },
    {
      "anonymous": false,
      "inputs": [
        {
          "indexed": false,
          "internalType": "address",
          "name": "account",
          "type": "address"
        }
      ],
      "name": "Unpaused",
      "type": "event"
    },
    {
      "anonymous": false,
      "inputs": [
        {
          "indexed": true,
          "internalType": "uint256",
          "name": "tokenId",
          "type": "uint256"
        },
        {
          "indexed": false,
          "internalType": "uint256",
          "name": "treeId",
          "type": "uint256"
        },
        {
          "indexed": false,
          "internalType": "uint256",
          "name": "skillId",
          "type": "uint256"
        },
        {
          "indexed": false,
          "internalType": "uint256",
          "name": "value",
          "type": "uint256"
        }
      ],
      "name": "ValueUpdated",
      "type": "event"
    },
    {
      "inputs": [],
      "name": "CONTRACT_ROLE",
      "outputs": [
        {
          "internalType": "bytes32",
          "name": "",
          "type": "bytes32"
        }
      ],
      "stateMutability": "view",
      "type": "function"
    },
    {
      "inputs": [],
      "name": "DEFAULT_ADMIN_ROLE",
      "outputs": [
        {
          "internalType": "bytes32",
          "name": "",
          "type": "bytes32"
        }
      ],
      "stateMutability": "view",
      "type": "function"
    },
    {
      "inputs": [
        {
          "internalType": "address",
          "name": "to",
          "type": "address"
        },
        {
          "internalType": "uint256",
          "name": "tokenId",
          "type": "uint256"
        }
      ],
      "name": "approve",
      "outputs": [],
      "stateMutability": "nonpayable",
      "type": "function"
    },
    {
      "inputs": [
        {
          "internalType": "address",
          "name": "owner",
          "type": "address"
        }
      ],
      "name": "balanceOf",
      "outputs": [
        {
          "internalType": "uint256",
          "name": "",
          "type": "uint256"
        }
      ],
      "stateMutability": "view",
      "type": "function"
    },
    {
      "inputs": [
        {
          "internalType": "uint256",
          "name": "treeId",
          "type": "uint256"
        },
        {
          "internalType": "uint256[]",
          "name": "skillIds",
          "type": "uint256[]"
        },
        {
          "internalType": "string[]",
          "name": "names",
          "type": "string[]"
        }
      ],
      "name": "batchSetSkillName",
      "outputs": [],
      "stateMutability": "nonpayable",
      "type": "function"
    },
    {
      "inputs": [
        {
          "internalType": "uint256[]",
          "name": "tokenIds",
          "type": "uint256[]"
        }
      ],
      "name": "batchTokenURI",
      "outputs": [
        {
          "internalType": "string[]",
          "name": "",
          "type": "string[]"
        }
      ],
      "stateMutability": "view",
      "type": "function"
    },
    {
      "inputs": [
        {
          "internalType": "uint256[]",
          "name": "tokenIds",
          "type": "uint256[]"
        }
      ],
      "name": "batchTokenURIJSON",
      "outputs": [
        {
          "internalType": "string[]",
          "name": "",
          "type": "string[]"
        }
      ],
      "stateMutability": "view",
      "type": "function"
    },
    {
      "inputs": [
        {
          "internalType": "address",
          "name": "from",
          "type": "address"
        },
        {
          "internalType": "address",
          "name": "to",
          "type": "address"
        },
        {
          "internalType": "uint256[]",
          "name": "tokenIds",
          "type": "uint256[]"
        }
      ],
      "name": "batchTransferFrom",
      "outputs": [],
      "stateMutability": "nonpayable",
      "type": "function"
    },
    {
      "inputs": [
        {
          "internalType": "uint256[]",
          "name": "tokenIds",
          "type": "uint256[]"
        },
        {
          "internalType": "uint256[]",
          "name": "treeIds",
          "type": "uint256[]"
        },
        {
          "internalType": "uint256[]",
          "name": "skillIds",
          "type": "uint256[]"
        },
        {
          "internalType": "uint256[]",
          "name": "values",
          "type": "uint256[]"
        }
      ],
      "name": "batchUpdateSkills",
      "outputs": [],
      "stateMutability": "nonpayable",
      "type": "function"
    },
    {
      "inputs": [
        {
          "internalType": "uint256",
          "name": "tokenId",
          "type": "uint256"
        },
        {
          "internalType": "uint256",
          "name": "treeId",
          "type": "uint256"
        },
        {
          "internalType": "uint256[]",
          "name": "skillIds",
          "type": "uint256[]"
        },
        {
          "internalType": "uint256[]",
          "name": "values",
          "type": "uint256[]"
        }
      ],
      "name": "batchUpdateSkillsOfToken",
      "outputs": [],
      "stateMutability": "nonpayable",
      "type": "function"
    },
    {
      "inputs": [],
      "name": "bridgeContract",
      "outputs": [
        {
          "internalType": "address",
          "name": "",
          "type": "address"
        }
      ],
      "stateMutability": "view",
      "type": "function"
    },
    {
      "inputs": [
        {
          "internalType": "uint256",
          "name": "tokenId",
          "type": "uint256"
        }
      ],
      "name": "bridgeExtraData",
      "outputs": [
        {
          "internalType": "bytes",
          "name": "",
          "type": "bytes"
        }
      ],
      "stateMutability": "view",
      "type": "function"
    },
    {
      "inputs": [
        {
          "internalType": "uint256",
          "name": "tokenId",
          "type": "uint256"
        }
      ],
      "name": "burn",
      "outputs": [],
      "stateMutability": "nonpayable",
      "type": "function"
    },
    {
      "inputs": [],
      "name": "getAllTokenIds",
      "outputs": [
        {
          "internalType": "uint256[]",
          "name": "",
          "type": "uint256[]"
        }
      ],
      "stateMutability": "view",
      "type": "function"
    },
    {
      "inputs": [
        {
          "internalType": "uint256",
          "name": "tokenId",
          "type": "uint256"
        }
      ],
      "name": "getApproved",
      "outputs": [
        {
          "internalType": "address",
          "name": "",
          "type": "address"
        }
      ],
      "stateMutability": "view",
      "type": "function"
    },
    {
      "inputs": [],
      "name": "getBlacklisted",
      "outputs": [
        {
          "internalType": "address[]",
          "name": "",
          "type": "address[]"
        }
      ],
      "stateMutability": "view",
      "type": "function"
    },
    {
      "inputs": [
        {
          "internalType": "bytes32",
          "name": "role",
          "type": "bytes32"
        }
      ],
      "name": "getRoleAdmin",
      "outputs": [
        {
          "internalType": "bytes32",
          "name": "",
          "type": "bytes32"
        }
      ],
      "stateMutability": "view",
      "type": "function"
    },
    {
      "inputs": [
        {
          "internalType": "bytes32",
          "name": "role",
          "type": "bytes32"
        },
        {
          "internalType": "uint256",
          "name": "index",
          "type": "uint256"
        }
      ],
      "name": "getRoleMember",
      "outputs": [
        {
          "internalType": "address",
          "name": "",
          "type": "address"
        }
      ],
      "stateMutability": "view",
      "type": "function"
    },
    {
      "inputs": [
        {
          "internalType": "bytes32",
          "name": "role",
          "type": "bytes32"
        }
      ],
      "name": "getRoleMemberCount",
      "outputs": [
        {
          "internalType": "uint256",
          "name": "",
          "type": "uint256"
        }
      ],
      "stateMutability": "view",
      "type": "function"
    },
    {
      "inputs": [
        {
          "internalType": "uint256",
          "name": "tokenId",
          "type": "uint256"
        },
        {
          "internalType": "uint256",
          "name": "treeId",
          "type": "uint256"
        },
        {
          "internalType": "uint256",
          "name": "skillId",
          "type": "uint256"
        }
      ],
      "name": "getSkill",
      "outputs": [
        {
          "internalType": "uint256",
          "name": "",
          "type": "uint256"
        }
      ],
      "stateMutability": "view",
      "type": "function"
    },
    {
      "inputs": [
        {
          "internalType": "uint256",
          "name": "treeId",
          "type": "uint256"
        },
        {
          "internalType": "uint256",
          "name": "skillId",
          "type": "uint256"
        }
      ],
      "name": "getSkillName",
      "outputs": [
        {
          "internalType": "string",
          "name": "",
          "type": "string"
        }
      ],
      "stateMutability": "view",
      "type": "function"
    },
    {
      "inputs": [
        {
          "internalType": "uint256",
          "name": "tokenId",
          "type": "uint256"
        },
        {
          "internalType": "uint256",
          "name": "treeId",
          "type": "uint256"
        },
        {
          "internalType": "uint256[]",
          "name": "skillIds",
          "type": "uint256[]"
        }
      ],
      "name": "getSkillsByTree",
      "outputs": [
        {
          "internalType": "uint256[]",
          "name": "",
          "type": "uint256[]"
        }
      ],
      "stateMutability": "view",
      "type": "function"
    },
    {
      "inputs": [
        {
          "internalType": "uint256",
          "name": "tokenId",
          "type": "uint256"
        },
        {
          "internalType": "uint256",
          "name": "customId",
          "type": "uint256"
        }
      ],
      "name": "getString",
      "outputs": [
        {
          "internalType": "string",
          "name": "",
          "type": "string"
        }
      ],
      "stateMutability": "view",
      "type": "function"
    },
    {
      "inputs": [
        {
          "internalType": "uint256[]",
          "name": "tokenIds",
          "type": "uint256[]"
        },
        {
          "internalType": "uint256",
          "name": "customId",
          "type": "uint256"
        }
      ],
      "name": "getStringOfTokens",
      "outputs": [
        {
          "internalType": "string[]",
          "name": "",
          "type": "string[]"
        }
      ],
      "stateMutability": "view",
      "type": "function"
    },
    {
      "inputs": [
        {
          "internalType": "uint256",
          "name": "tokenId",
          "type": "uint256"
        },
        {
          "internalType": "uint256[]",
          "name": "customIds",
          "type": "uint256[]"
        }
      ],
      "name": "getStrings",
      "outputs": [
        {
          "internalType": "string[]",
          "name": "",
          "type": "string[]"
        }
      ],
      "stateMutability": "view",
      "type": "function"
    },
    {
      "inputs": [
        {
          "internalType": "bytes32",
          "name": "role",
          "type": "bytes32"
        },
        {
          "internalType": "address",
          "name": "account",
          "type": "address"
        }
      ],
      "name": "grantRole",
      "outputs": [],
      "stateMutability": "nonpayable",
      "type": "function"
    },
    {
      "inputs": [
        {
          "internalType": "bytes32",
          "name": "role",
          "type": "bytes32"
        },
        {
          "internalType": "address",
          "name": "account",
          "type": "address"
        }
      ],
      "name": "hasRole",
      "outputs": [
        {
          "internalType": "bool",
          "name": "",
          "type": "bool"
        }
      ],
      "stateMutability": "view",
      "type": "function"
    },
    {
      "inputs": [],
      "name": "imageBaseURI",
      "outputs": [
        {
          "internalType": "string",
          "name": "",
          "type": "string"
        }
      ],
      "stateMutability": "view",
      "type": "function"
    },
    {
      "inputs": [],
      "name": "initialize",
      "outputs": [],
      "stateMutability": "nonpayable",
      "type": "function"
    },
    {
      "inputs": [
        {
          "internalType": "address",
          "name": "owner",
          "type": "address"
        },
        {
          "internalType": "address",
          "name": "operator",
          "type": "address"
        }
      ],
      "name": "isApprovedForAll",
      "outputs": [
        {
          "internalType": "bool",
          "name": "",
          "type": "bool"
        }
      ],
      "stateMutability": "view",
      "type": "function"
    },
    {
      "inputs": [
        {
          "internalType": "address",
          "name": "user",
          "type": "address"
        }
      ],
      "name": "isBlacklisted",
      "outputs": [
        {
          "internalType": "bool",
          "name": "",
          "type": "bool"
        }
      ],
      "stateMutability": "view",
      "type": "function"
    },
    {
      "inputs": [
        {
          "internalType": "address",
          "name": "to",
          "type": "address"
        },
        {
          "internalType": "uint256",
          "name": "tokenId",
          "type": "uint256"
        },
        {
          "internalType": "bytes",
          "name": "data",
          "type": "bytes"
        }
      ],
      "name": "mint",
      "outputs": [],
      "stateMutability": "nonpayable",
      "type": "function"
    },
    {
      "inputs": [
        {
          "internalType": "address",
          "name": "to",
          "type": "address"
        },
        {
          "internalType": "bytes",
          "name": "data",
          "type": "bytes"
        }
      ],
      "name": "mint",
      "outputs": [],
      "stateMutability": "nonpayable",
      "type": "function"
    },
    {
      "inputs": [],
      "name": "name",
      "outputs": [
        {
          "internalType": "string",
          "name": "",
          "type": "string"
        }
      ],
      "stateMutability": "view",
      "type": "function"
    },
    {
      "inputs": [],
      "name": "nextId",
      "outputs": [
        {
          "internalType": "uint256",
          "name": "",
          "type": "uint256"
        }
      ],
      "stateMutability": "view",
      "type": "function"
    },
    {
      "inputs": [
        {
          "internalType": "uint256",
          "name": "tokenId",
          "type": "uint256"
        }
      ],
      "name": "ownerOf",
      "outputs": [
        {
          "internalType": "address",
          "name": "",
          "type": "address"
        }
      ],
      "stateMutability": "view",
      "type": "function"
    },
    {
      "inputs": [],
      "name": "pause",
      "outputs": [],
      "stateMutability": "nonpayable",
      "type": "function"
    },
    {
      "inputs": [],
      "name": "paused",
      "outputs": [
        {
          "internalType": "bool",
          "name": "",
          "type": "bool"
        }
      ],
      "stateMutability": "view",
      "type": "function"
    },
    {
      "inputs": [
        {
          "internalType": "bytes32",
          "name": "role",
          "type": "bytes32"
        },
        {
          "internalType": "address",
          "name": "account",
          "type": "address"
        }
      ],
      "name": "renounceRole",
      "outputs": [],
      "stateMutability": "nonpayable",
      "type": "function"
    },
    {
      "inputs": [
        {
          "internalType": "bytes32",
          "name": "role",
          "type": "bytes32"
        },
        {
          "internalType": "address",
          "name": "account",
          "type": "address"
        }
      ],
      "name": "revokeRole",
      "outputs": [],
      "stateMutability": "nonpayable",
      "type": "function"
    },
    {
      "inputs": [
        {
          "internalType": "address",
          "name": "from",
          "type": "address"
        },
        {
          "internalType": "address",
          "name": "to",
          "type": "address"
        },
        {
          "internalType": "uint256",
          "name": "tokenId",
          "type": "uint256"
        }
      ],
      "name": "safeTransferFrom",
      "outputs": [],
      "stateMutability": "nonpayable",
      "type": "function"
    },
    {
      "inputs": [
        {
          "internalType": "address",
          "name": "from",
          "type": "address"
        },
        {
          "internalType": "address",
          "name": "to",
          "type": "address"
        },
        {
          "internalType": "uint256",
          "name": "tokenId",
          "type": "uint256"
        },
        {
          "internalType": "bytes",
          "name": "data",
          "type": "bytes"
        }
      ],
      "name": "safeTransferFrom",
      "outputs": [],
      "stateMutability": "nonpayable",
      "type": "function"
    },
    {
      "inputs": [
        {
          "internalType": "address",
          "name": "operator",
          "type": "address"
        },
        {
          "internalType": "bool",
          "name": "approved",
          "type": "bool"
        }
      ],
      "name": "setApprovalForAll",
      "outputs": [],
      "stateMutability": "nonpayable",
      "type": "function"
    },
    {
      "inputs": [
        {
          "internalType": "address",
          "name": "_bridgeContract",
          "type": "address"
        }
      ],
      "name": "setBridgeContract",
      "outputs": [],
      "stateMutability": "nonpayable",
      "type": "function"
    },
    {
      "inputs": [
        {
          "internalType": "string",
          "name": "_imageBaseURI",
          "type": "string"
        }
      ],
      "name": "setImageBaseURI",
      "outputs": [],
      "stateMutability": "nonpayable",
      "type": "function"
    },
    {
      "inputs": [
        {
          "internalType": "uint256",
          "name": "tokenId",
          "type": "uint256"
        }
      ],
      "name": "setMaxDurability",
      "outputs": [],
      "stateMutability": "nonpayable",
      "type": "function"
    },
    {
      "inputs": [
        {
          "internalType": "uint256",
          "name": "id",
          "type": "uint256"
        }
      ],
      "name": "setNextId",
      "outputs": [],
      "stateMutability": "nonpayable",
      "type": "function"
    },
    {
      "inputs": [
        {
          "internalType": "uint256",
          "name": "treeId",
          "type": "uint256"
        },
        {
          "internalType": "uint256",
          "name": "skillId",
          "type": "uint256"
        },
        {
          "internalType": "string",
          "name": "name",
          "type": "string"
        }
      ],
      "name": "setSkillName",
      "outputs": [],
      "stateMutability": "nonpayable",
      "type": "function"
    },
    {
      "inputs": [
        {
          "internalType": "bytes4",
          "name": "interfaceId",
          "type": "bytes4"
        }
      ],
      "name": "supportsInterface",
      "outputs": [
        {
          "internalType": "bool",
          "name": "",
          "type": "bool"
        }
      ],
      "stateMutability": "view",
      "type": "function"
    },
    {
      "inputs": [],
      "name": "symbol",
      "outputs": [
        {
          "internalType": "string",
          "name": "",
          "type": "string"
        }
      ],
      "stateMutability": "view",
      "type": "function"
    },
    {
      "inputs": [
        {
          "internalType": "uint256",
          "name": "index",
          "type": "uint256"
        }
      ],
      "name": "tokenByIndex",
      "outputs": [
        {
          "internalType": "uint256",
          "name": "",
          "type": "uint256"
        }
      ],
      "stateMutability": "view",
      "type": "function"
    },
    {
      "inputs": [
        {
          "internalType": "address",
          "name": "owner",
          "type": "address"
        },
        {
          "internalType": "uint256",
          "name": "index",
          "type": "uint256"
        }
      ],
      "name": "tokenOfOwnerByIndex",
      "outputs": [
        {
          "internalType": "uint256",
          "name": "",
          "type": "uint256"
        }
      ],
      "stateMutability": "view",
      "type": "function"
    },
    {
      "inputs": [
        {
          "internalType": "uint256",
          "name": "tokenId",
          "type": "uint256"
        }
      ],
      "name": "tokenURI",
      "outputs": [
        {
          "internalType": "string",
          "name": "",
          "type": "string"
        }
      ],
      "stateMutability": "view",
      "type": "function"
    },
    {
      "inputs": [
        {
          "internalType": "uint256",
          "name": "tokenId",
          "type": "uint256"
        }
      ],
      "name": "tokenURIJSON",
      "outputs": [
        {
          "internalType": "string",
          "name": "",
          "type": "string"
        }
      ],
      "stateMutability": "view",
      "type": "function"
    },
    {
      "inputs": [
        {
          "internalType": "address",
          "name": "owner",
          "type": "address"
        }
      ],
      "name": "tokensOfOwner",
      "outputs": [
        {
          "internalType": "uint256[]",
          "name": "",
          "type": "uint256[]"
        }
      ],
      "stateMutability": "view",
      "type": "function"
    },
    {
      "inputs": [],
      "name": "totalSupply",
      "outputs": [
        {
          "internalType": "uint256",
          "name": "",
          "type": "uint256"
        }
      ],
      "stateMutability": "view",
      "type": "function"
    },
    {
      "inputs": [
        {
          "internalType": "address",
          "name": "from",
          "type": "address"
        },
        {
          "internalType": "address",
          "name": "to",
          "type": "address"
        },
        {
          "internalType": "uint256",
          "name": "tokenId",
          "type": "uint256"
        }
      ],
      "name": "transferFrom",
      "outputs": [],
      "stateMutability": "nonpayable",
      "type": "function"
    },
    {
      "inputs": [],
      "name": "unpause",
      "outputs": [],
      "stateMutability": "nonpayable",
      "type": "function"
    },
    {
      "inputs": [
        {
          "internalType": "uint256",
          "name": "tokenId",
          "type": "uint256"
        },
        {
          "internalType": "uint256",
          "name": "treeId",
          "type": "uint256"
        },
        {
          "internalType": "uint256",
          "name": "skillId",
          "type": "uint256"
        },
        {
          "internalType": "uint256",
          "name": "value",
          "type": "uint256"
        }
      ],
      "name": "updateSkill",
      "outputs": [],
      "stateMutability": "nonpayable",
      "type": "function"
    },
    {
      "inputs": [
        {
          "internalType": "uint256",
          "name": "tokenId",
          "type": "uint256"
        },
        {
          "internalType": "uint256",
          "name": "customId",
          "type": "uint256"
        },
        {
          "internalType": "string",
          "name": "value",
          "type": "string"
        }
      ],
      "name": "updateString",
      "outputs": [],
      "stateMutability": "nonpayable",
      "type": "function"
    }
  ],
  "bytecode": "0x60806040523480156200001157600080fd5b506200001c62000022565b620000e4565b600054610100900460ff16156200008f5760405162461bcd60e51b815260206004820152602760248201527f496e697469616c697a61626c653a20636f6e747261637420697320696e697469604482015266616c697a696e6760c81b606482015260840160405180910390fd5b60005460ff9081161015620000e2576000805460ff191660ff9081179091556040519081527f7f26b83ff96e1f2b6a682f133852f6798a09c465da95921460cefb38474024989060200160405180910390a15b565b61536f80620000f46000396000f3fe608060405234801561001057600080fd5b50600436106103a45760003560e01c80637efa1902116101e9578063b95805031161010f578063d547741f116100ad578063ed0af2091161007c578063ed0af2091461081e578063f3993d1114610831578063fe459f5c14610844578063fe575a871461085757600080fd5b8063d547741f146107a9578063de10c72d146107bc578063e2862b6b146107cf578063e985e9c5146107e257600080fd5b8063c87b56dd116100e9578063c87b56dd1461075a578063ca15c8731461076d578063cd59658314610780578063ce3675ad1461079457600080fd5b8063b95805031461072c578063bdbed7221461073f578063c7e055901461074757600080fd5b806395d89b4111610187578063a22cb46511610156578063a22cb465146106e0578063b510391f146106f3578063b5afb12014610706578063b88d4fde1461071957600080fd5b806395d89b41146106aa5780639b9284f9146106b25780639e8afe47146106c5578063a217fddf146106d857600080fd5b80638462151c116101c35780638462151c146106515780639010d07c1461067157806391d148541461068457806394d008ef1461069757600080fd5b80637efa19021461062e5780638129fc1c146106415780638456cb591461064957600080fd5b8063352b7533116102ce5780634f6ccce71161026c5780636cfa24cc1161023b5780636cfa24cc146105ed5780636d94f13a1461060057806370a0823114610613578063776458391461062657600080fd5b80634f6ccce7146105b45780635c975abb146105c757806361b8ce8c146105d25780636352211e146105da57600080fd5b806342842e0e116102a857806342842e0e1461054857806342966c681461055b5780634594762a1461056e5780634b5f4fe6146105a157600080fd5b8063352b75331461051a57806336568abe1461052d5780633f4ba83a1461054057600080fd5b8063095ea7b311610346578063248a9ca311610315578063248a9ca3146104b15780632c303493146104d45780632f2ff15d146104f45780632f745c591461050757600080fd5b8063095ea7b31461046f5780630b26cf661461048257806318160ddd1461049557806323b872dd1461049e57600080fd5b806306b674441161038257806306b674441461040957806306fdde0314610429578063079be49314610431578063081812fc1461044457600080fd5b8063019e9251146103a957806301ffc9a7146103be57806303fe46ab146103e6575b600080fd5b6103bc6103b7366004613fc7565b61086a565b005b6103d16103cc366004613ff6565b610887565b60405190151581526020015b60405180910390f35b6103fb60008051602061531a83398151915281565b6040519081526020016103dd565b61041c610417366004614013565b6108b2565b6040516103dd9190614085565b61041c610961565b61041c61043f366004614013565b6109f3565b610457610452366004613fc7565b610a1c565b6040516001600160a01b0390911681526020016103dd565b6103bc61047d3660046140af565b610a43565b6103bc6104903660046140d9565b610b5d565b6101c2546103fb565b6103bc6104ac3660046140f4565b610b97565b6103fb6104bf366004613fc7565b600090815260c9602052604090206001015490565b6104e76104e236600461422c565b610bc9565b6040516103dd9190614260565b6103bc6105023660046142c2565b610c81565b6103fb6105153660046140af565b610ca6565b6104e76105283660046142ee565b610d3d565b6103bc61053b3660046142c2565b610e9b565b6103bc610f19565b6103bc6105563660046140f4565b610f3a565b6103bc610569366004613fc7565b610f55565b6103fb61057c366004614332565b6000928352610256602090815260408085209385529281528284209184525290205490565b6103bc6105af3660046143cd565b610f61565b6103fb6105c2366004613fc7565b610fa4565b60975460ff166103d1565b6103fb611039565b6104576105e8366004613fc7565b61104a565b6103bc6105fb36600461441c565b6110aa565b6104e761060e366004614450565b6110ce565b6103fb6106213660046140d9565b61117c565b61041c611202565b6103bc61063c3660046144c4565b611291565b6103bc61136f565b6103bc6114f2565b61066461065f3660046140d9565b611511565b6040516103dd9190614570565b61045761067f366004614013565b6115aa565b6103d16106923660046142c2565b6115c9565b6103bc6106a53660046145b4565b6115f4565b61041c61168f565b61041c6106c0366004613fc7565b61169e565b6104e76106d33660046145f4565b61173b565b6103fb600081565b6103bc6106ee36600461463a565b611891565b6103bc610701366004614676565b61189c565b6103bc6107143660046146f8565b611940565b6103bc61072736600461472a565b6119c5565b6103bc61073a366004613fc7565b6119f7565b610664611a5c565b610664610755366004614785565b611b46565b61041c610768366004613fc7565b611c1b565b6103fb61077b366004613fc7565b611c2e565b6102bb54610457906001600160a01b031681565b61079c611c45565b6040516103dd91906147ca565b6103bc6107b73660046142c2565b611c52565b6103bc6107ca36600461480b565b611c77565b6103bc6107dd3660046148eb565b611d12565b6103d16107f0366004614926565b6001600160a01b039182166000908152606a6020908152604080832093909416825291909152205460ff1690565b6103bc61082c3660046143cd565b611db6565b6103bc61083f366004614950565b611e33565b61041c610852366004613fc7565b611e75565b6103d16108653660046140d9565b61213a565b6108816000805160206152fa833981519152612148565b6102ba55565b60006001600160e01b0319821663808d85fd60e01b14806108ac57506108ac82612152565b92915050565b60008281526102576020908152604080832084845290915290208054606091906108db90614997565b80601f016020809104026020016040519081016040528092919081815260200182805461090790614997565b80156109545780601f1061092957610100808354040283529160200191610954565b820191906000526020600020905b81548152906001019060200180831161093757829003601f168201915b5050505050905092915050565b60606065805461097090614997565b80601f016020809104026020016040519081016040528092919081815260200182805461099c90614997565b80156109e95780601f106109be576101008083540402835291602001916109e9565b820191906000526020600020905b8154815290600101906020018083116109cc57829003601f168201915b5050505050905090565b60008281526102586020908152604080832084845290915290208054606091906108db90614997565b6000610a278261215d565b506000908152606960205260409020546001600160a01b031690565b6000610a4e8261104a565b9050806001600160a01b0316836001600160a01b031603610ac05760405162461bcd60e51b815260206004820152602160248201527f4552433732313a20617070726f76616c20746f2063757272656e74206f776e656044820152603960f91b60648201526084015b60405180910390fd5b336001600160a01b0382161480610adc5750610adc81336107f0565b610b4e5760405162461bcd60e51b815260206004820152603d60248201527f4552433732313a20617070726f76652063616c6c6572206973206e6f7420746f60448201527f6b656e206f776e6572206f7220617070726f76656420666f7220616c6c0000006064820152608401610ab7565b610b5883836121ad565b505050565b610b746000805160206152fa833981519152612148565b6102bb80546001600160a01b0319166001600160a01b0392909216919091179055565b610ba2335b8261221b565b610bbe5760405162461bcd60e51b8152600401610ab7906149d1565b610b5883838361229a565b6060600082516001600160401b03811115610be657610be6614130565b604051908082528060200260200182016040528015610c1957816020015b6060815260200190600190039081610c045790505b50905060005b8351811015610c7a57610c4a848281518110610c3d57610c3d614a1e565b6020026020010151611e75565b828281518110610c5c57610c5c614a1e565b60200260200101819052508080610c7290614a4a565b915050610c1f565b5092915050565b600082815260c96020526040902060010154610c9c81612148565b610b58838361240b565b6000610cb18361117c565b8210610d135760405162461bcd60e51b815260206004820152602b60248201527f455243373231456e756d657261626c653a206f776e657220696e646578206f7560448201526a74206f6620626f756e647360a81b6064820152608401610ab7565b506001600160a01b039190911660009081526101c060209081526040808320938352929052205490565b6060600083516001600160401b03811115610d5a57610d5a614130565b604051908082528060200260200182016040528015610d8d57816020015b6060815260200190600190039081610d785790505b50905060005b8451811015610e93576102586000868381518110610db357610db3614a1e565b6020026020010151815260200190815260200160002060008581526020019081526020016000208054610de590614997565b80601f0160208091040260200160405190810160405280929190818152602001828054610e1190614997565b8015610e5e5780601f10610e3357610100808354040283529160200191610e5e565b820191906000526020600020905b815481529060010190602001808311610e4157829003601f168201915b5050505050828281518110610e7557610e75614a1e565b60200260200101819052508080610e8b90614a4a565b915050610d93565b509392505050565b6001600160a01b0381163314610f0b5760405162461bcd60e51b815260206004820152602f60248201527f416363657373436f6e74726f6c3a2063616e206f6e6c792072656e6f756e636560448201526e103937b632b9903337b91039b2b63360891b6064820152608401610ab7565b610f15828261242d565b5050565b610f306000805160206152fa833981519152612148565b610f3861244f565b565b610b58838383604051806020016040528060008152506119c5565b610f5e816124a1565b50565b60008051602061531a833981519152610f7981612148565b6000848152610257602090815260408083208684529091529020610f9d8382614aa9565b5050505050565b6000610fb06101c25490565b82106110135760405162461bcd60e51b815260206004820152602c60248201527f455243373231456e756d657261626c653a20676c6f62616c20696e646578206f60448201526b7574206f6620626f756e647360a01b6064820152608401610ab7565b6101c2828154811061102757611027614a1e565b90600052602060002001549050919050565b60006110456102ba5490565b905090565b6000818152606760205260408120546001600160a01b0316806108ac5760405162461bcd60e51b8152602060048201526018602482015277115490cdcc8c4e881a5b9d985b1a59081d1bdad95b88125160421b6044820152606401610ab7565b6110c16000805160206152fa833981519152612148565b610224610f158282614aa9565b60606000826001600160401b038111156110ea576110ea614130565b60405190808252806020026020018201604052801561111d57816020015b60608152602001906001900390816111085790505b50905060005b83811015610e935761114c85858381811061114057611140614a1e565b90506020020135611c1b565b82828151811061115e5761115e614a1e565b6020026020010181905250808061117490614a4a565b915050611123565b60006001600160a01b0382166111e65760405162461bcd60e51b815260206004820152602960248201527f4552433732313a2061646472657373207a65726f206973206e6f7420612076616044820152683634b21037bbb732b960b91b6064820152608401610ab7565b506001600160a01b031660009081526068602052604090205490565b610224805461121090614997565b80601f016020809104026020016040519081016040528092919081815260200182805461123c90614997565b80156112895780601f1061125e57610100808354040283529160200191611289565b820191906000526020600020905b81548152906001019060200180831161126c57829003601f168201915b505050505081565b60008051602061531a8339815191526112a981612148565b60005b8551811015611367578281815181106112c7576112c7614a1e565b602002602001015161025660008884815181106112e6576112e6614a1e565b60200260200101518152602001908152602001600020600087848151811061131057611310614a1e565b60200260200101518152602001908152602001600020600086848151811061133a5761133a614a1e565b6020026020010151815260200190815260200160002081905550808061135f90614a4a565b9150506112ac565b505050505050565b600054610100900460ff161580801561138f5750600054600160ff909116105b806113a95750303b1580156113a9575060005460ff166001145b61140c5760405162461bcd60e51b815260206004820152602e60248201527f496e697469616c697a61626c653a20636f6e747261637420697320616c72656160448201526d191e481a5b9a5d1a585b1a5e995960921b6064820152608401610ab7565b6000805460ff19166001179055801561142f576000805461ff0019166101001790555b61147a6040518060400160405280600c81526020016b436f736d696320546f6f6c7360a01b81525060405180604001604052806005815260200164544f4f4c5360d81b815250612523565b611482612554565b61148a61257f565b6114926125a6565b61149a6125d5565b6114a2612554565b6114aa6126bd565b8015610f5e576000805461ff0019169055604051600181527f7f26b83ff96e1f2b6a682f133852f6798a09c465da95921460cefb38474024989060200160405180910390a150565b6115096000805160206152fa833981519152612148565b610f386126ec565b6060600061151e8361117c565b90506000816001600160401b0381111561153a5761153a614130565b604051908082528060200260200182016040528015611563578160200160208202803683370190505b50905060005b82811015610e935761157b8582610ca6565b82828151811061158d5761158d614a1e565b6020908102919091010152806115a281614a4a565b915050611569565b600082815260fb602052604081206115c29083612729565b9392505050565b600091825260c9602090815260408084206001600160a01b0393909316845291905290205460ff1690565b61161d7f9f2df0fed2c77648de5860a4cc508cd0818c85b8b8a1ab4ceeef8d981c8956a6612148565b6000818060200190518101906116339190614b75565b9050611646836000808460000151611940565b61165883600060018460200151611940565b61167683600060028460400151600481111561071457610714614bb7565b6116808484612735565b6116898361274f565b50505050565b60606066805461097090614997565b60408051606080820183526000848152610256602090815284822082805281528482208082528583205485526001835280825285832054828601526002835290528381205491939092919082019060048111156116fd576116fd614bb7565b600481111561170e5761170e614bb7565b8152509050806040516020016117249190614bcd565b604051602081830303815290604052915050919050565b6060600082516001600160401b0381111561175857611758614130565b60405190808252806020026020018201604052801561178b57816020015b60608152602001906001900390816117765790505b50905060005b8351811015610e9357610258600086815260200190815260200160002060008583815181106117c2576117c2614a1e565b6020026020010151815260200190815260200160002080546117e390614997565b80601f016020809104026020016040519081016040528092919081815260200182805461180f90614997565b801561185c5780601f106118315761010080835404028352916020019161185c565b820191906000526020600020905b81548152906001019060200180831161183f57829003601f168201915b505050505082828151811061187357611873614a1e565b6020026020010181905250808061188990614a4a565b915050611791565b610f1533838361275b565b6118c57f9f2df0fed2c77648de5860a4cc508cd0818c85b8b8a1ab4ceeef8d981c8956a6612148565b60006118d16102ba5490565b90506118e26102ba80546001019055565b6118ec8482612735565b60006118fa83850185614c10565b905061190d826000808460000151611940565b61192282600060016107148560400151612829565b610f9d82600060028460400151600481111561071457610714614bb7565b60008051602061531a83398151915261195881612148565b6000858152610256602090815260408083208784528252808320868452825291829020849055815186815290810185905290810183905285907fc3bdb5f4a3cbb68ce4ebe3dda3660f3067add044dc5be3a047d818fd416663699060600160405180910390a25050505050565b6119cf338361221b565b6119eb5760405162461bcd60e51b8152600401610ab7906149d1565b611689848484846128bc565b611a0e60008051602061531a833981519152612148565b610f5e8160006001610714611a4686600060026000928352610256602090815260408085209385529281528284209184525290205490565b6004811115611a5757611a57614bb7565b612829565b6060600060015b612710811015611a9b57611a76816128ef565b15611a895781611a8581614a4a565b9250505b80611a9381614a4a565b915050611a63565b506000816001600160401b03811115611ab657611ab6614130565b604051908082528060200260200182016040528015611adf578160200160208202803683370190505b509050600060015b612710811015611b3d57611afa816128ef565b15611b2b5780838381518110611b1257611b12614a1e565b602090810291909101015281611b2781614a4a565b9250505b80611b3581614a4a565b915050611ae7565b50909392505050565b6060600082516001600160401b03811115611b6357611b63614130565b604051908082528060200260200182016040528015611b8c578160200160208202803683370190505b50905060005b8351811015611c125760008681526102566020908152604080832088845290915281208551909190869084908110611bcc57611bcc614a1e565b6020026020010151815260200190815260200160002054828281518110611bf557611bf5614a1e565b602090810291909101015280611c0a81614a4a565b915050611b92565b50949350505050565b60606108ac611c2983611e75565b6128fa565b600081815260fb602052604081206108ac9061292b565b6060611045610287612935565b600082815260c96020526040902060010154611c6d81612148565b610b58838361242d565b60008051602061531a833981519152611c8f81612148565b60005b8351811015610f9d57828181518110611cad57611cad614a1e565b602002602001015161025760008781526020019081526020016000206000868481518110611cdd57611cdd614a1e565b602002602001015181526020019081526020016000209081611cff9190614aa9565b5080611d0a81614a4a565b915050611c92565b60008051602061531a833981519152611d2a81612148565b60005b835181101561136757828181518110611d4857611d48614a1e565b6020026020010151610256600088815260200190815260200160002060008781526020019081526020016000206000868481518110611d8957611d89614a1e565b60200260200101518152602001908152602001600020819055508080611dae90614a4a565b915050611d2d565b60008051602061531a833981519152611dce81612148565b6000848152610258602090815260408083208684529091529020611df28382614aa9565b50837fbf91c112c44cd8e958afe3106b290f594b5e23b83fcc88bdb9ac5da7f00be5698484604051611e25929190614c46565b60405180910390a250505050565b60005b815181101561168957611e638484848481518110611e5657611e56614a1e565b6020026020010151610b97565b80611e6d81614a4a565b915050611e36565b6000818152610256602090815260408083208380528252808320909152812054606091611ea36064836108b2565b600085815261025660209081526040808320838052825280832060028452909152812054919250906004811115611edc57611edc614bb7565b60008681526102566020908152604080832083805282528083206001845290915281205491925090611f1290612942565b612942565b611f1e611f0d84612829565b604051602001611f2f929190614c7b565b60408051808303601f19018152600380845260808401909252925060009190816020015b611f8060405180608001604052806060815260200160608152602001606081526020016000151581525090565b815260200190600190039081611f535750506040805160c081018252600a6080820190815269283937b332b9b9b4b7b760b11b60a08301528152815160208082018452600082528201529192508101611fda6001886108b2565b81526020016000151581525081600081518110611ff957611ff9614a1e565b602002602001018190525060405180608001604052806040518060400160405280600a8152602001694475726162696c69747960b01b8152508152602001604051806020016040528060008152508152602001838152602001600015158152508160018151811061206c5761206c614a1e565b602002602001018190525060405180608001604052806040518060400160405280600681526020016552617269747960d01b81525081526020016040518060200160405280600081525081526020016120c4856129d4565b815260200160001515815250816002815181106120e3576120e3614a1e565b602002602001018190525061212f87856040518060400160405280602081526020017f436f736d696320546f6f6c7320666f7220436f736d696320556e69766572736581525084612ae9565b979650505050505050565b60006108ac61028783612b38565b610f5e8133612b5a565b60006108ac82612bb3565b612166816128ef565b610f5e5760405162461bcd60e51b8152602060048201526018602482015277115490cdcc8c4e881a5b9d985b1a59081d1bdad95b88125160421b6044820152606401610ab7565b600081815260696020526040902080546001600160a01b0319166001600160a01b03841690811790915581906121e28261104a565b6001600160a01b03167f8c5be1e5ebec7d5bd14f71427d1e84f3dd0314c0f7b2291e5b200ac8c7c3b92560405160405180910390a45050565b6000806122278361104a565b9050806001600160a01b0316846001600160a01b0316148061226e57506001600160a01b038082166000908152606a602090815260408083209388168352929052205460ff165b806122925750836001600160a01b031661228784610a1c565b6001600160a01b0316145b949350505050565b826001600160a01b03166122ad8261104a565b6001600160a01b0316146122d35760405162461bcd60e51b8152600401610ab790614cb7565b6001600160a01b0382166123355760405162461bcd60e51b8152602060048201526024808201527f4552433732313a207472616e7366657220746f20746865207a65726f206164646044820152637265737360e01b6064820152608401610ab7565b6123428383836001612bd8565b826001600160a01b03166123558261104a565b6001600160a01b03161461237b5760405162461bcd60e51b8152600401610ab790614cb7565b600081815260696020908152604080832080546001600160a01b03199081169091556001600160a01b0387811680865260688552838620805460001901905590871680865283862080546001019055868652606790945282852080549092168417909155905184937fddf252ad1be2c89b69c2b068fc378daa952ba7f163c4a11628f55a4df523b3ef91a4505050565b6124158282612c8c565b600082815260fb60205260409020610b589082612d12565b6124378282612d27565b600082815260fb60205260409020610b589082612d8e565b612457612da3565b6097805460ff191690557f5db9ee0a495bf2e6ff9c91a7834c1ba4fdd244a5e8aa4e537bd38aeae4b073aa335b6040516001600160a01b03909116815260200160405180910390a1565b6124aa33610b9c565b61250d5760405162461bcd60e51b815260206004820152602e60248201527f4552433732313a2063616c6c6572206973206e6f7420746f6b656e206f776e6560448201526d1c881b9bdc88185c1c1c9bdd995960921b6064820152608401610ab7565b61251961018d82612dec565b50610f5e81612df8565b600054610100900460ff1661254a5760405162461bcd60e51b8152600401610ab790614cfc565b610f158282612e9b565b600054610100900460ff1661257b5760405162461bcd60e51b8152600401610ab790614cfc565b610f385b600054610100900460ff16610f385760405162461bcd60e51b8152600401610ab790614cfc565b600054610100900460ff166125cd5760405162461bcd60e51b8152600401610ab790614cfc565b610f38612edb565b600054610100900460ff166125fc5760405162461bcd60e51b8152600401610ab790614cfc565b61260461257f565b61260f60003361240b565b6126276000805160206152fa8339815191523361240b565b61263f60008051602061531a8339815191523361240b565b6126697f9f2df0fed2c77648de5860a4cc508cd0818c85b8b8a1ab4ceeef8d981c8956a63361240b565b6126937ff18b77e1ef402111bacb54bd5e03494cbdba92fbd1bd3bbcc1ce77e69b42ea6c3361240b565b610f387f52ba824bfabc2bcfcdf7f0edbb486ebb05e1836c90e78047efeb949990f72e5f3361240b565b600054610100900460ff166126e45760405162461bcd60e51b8152600401610ab790614cfc565b610f38612f0e565b6126f4612f55565b6097805460ff191660011790557f62e78cea01bee320cd4e420270b5ea74000d11b0c9f74754ebdbfc544b05a2586124843390565b60006115c28383612f9b565b610f15828260405180602001604052806000815250612fc5565b610f1561018d82612ff8565b816001600160a01b0316836001600160a01b0316036127bc5760405162461bcd60e51b815260206004820152601960248201527f4552433732313a20617070726f766520746f2063616c6c6572000000000000006044820152606401610ab7565b6001600160a01b038381166000818152606a6020908152604080832094871680845294825291829020805460ff191686151590811790915591519182527f17307eab39ab6107e8899845ad3d59bd9653f200f220920489ca2b5937696c31910160405180910390a3505050565b6000600482600481111561283f5761283f614bb7565b0361284c57506064919050565b600382600481111561286057612860614bb7565b0361286d57506032919050565b600282600481111561288157612881614bb7565b0361288e5750601e919050565b60018260048111156128a2576128a2614bb7565b036128af5750600f919050565b50600a919050565b919050565b6128c784848461229a565b6128d384848484613004565b6116895760405162461bcd60e51b8152600401610ab790614d47565b60006108ac82613102565b606061290582613121565b6040516020016129159190614d99565b6040516020818303038152906040529050919050565b60006108ac825490565b606060006115c283613273565b6060600061294f836132cf565b60010190506000816001600160401b0381111561296e5761296e614130565b6040519080825280601f01601f191660200182016040528015612998576020820181803683370190505b5090508181016020015b600019016f181899199a1a9b1b9c1cb0b131b232b360811b600a86061a8153600a85049450846129a257509392505050565b606060048260048111156129ea576129ea614bb7565b03612a145750506040805180820190915260098152684c6567656e6461727960b81b602082015290565b6003826004811115612a2857612a28614bb7565b03612a51575050604080518082019091526008815267135e5d1a1a58d85b60c21b602082015290565b6002826004811115612a6557612a65614bb7565b03612a8a5750506040805180820190915260048152635261726560e01b602082015290565b6001826004811115612a9e57612a9e614bb7565b03612ac75750506040805180820190915260088152672ab731b7b6b6b7b760c11b602082015290565b505060408051808201909152600681526521b7b6b6b7b760d11b602082015290565b60606000612af68661104a565b90506000610224612b06886133a7565b604051602001612b17929190614dde565b604051602081830303815290604052905061212f878388848960028a6133f8565b6001600160a01b038116600090815260018301602052604081205415156115c2565b612b6482826115c9565b610f1557612b7181613444565b612b7c836020613456565b604051602001612b8d929190614e65565b60408051601f198184030181529082905262461bcd60e51b8252610ab791600401614085565b60006001600160e01b0319821663780e9d6360e01b14806108ac57506108ac826135f1565b612be0612f55565b83612bed61028782612b38565b15612c305760405162461bcd60e51b8152602060048201526013602482015272426c61636b6c6973746564206164647265737360681b6044820152606401610ab7565b83612c3d61028782612b38565b15612c805760405162461bcd60e51b8152602060048201526013602482015272426c61636b6c6973746564206164647265737360681b6044820152606401610ab7565b611367868686866135fc565b612c9682826115c9565b610f1557600082815260c9602090815260408083206001600160a01b03851684529091529020805460ff19166001179055612cce3390565b6001600160a01b0316816001600160a01b0316837f2f8788117e7eff1d82e926ec794901d17c78024a50270940304540a733656f0d60405160405180910390a45050565b60006115c2836001600160a01b038416613608565b612d3182826115c9565b15610f1557600082815260c9602090815260408083206001600160a01b0385168085529252808320805460ff1916905551339285917ff6391f5c32d9c69d2a47ea670b442974b53935d1edc7fd64eb21e047a839171b9190a45050565b60006115c2836001600160a01b038416613657565b60975460ff16610f385760405162461bcd60e51b815260206004820152601460248201527314185d5cd8589b194e881b9bdd081c185d5cd95960621b6044820152606401610ab7565b60006115c28383613608565b6000612e038261104a565b9050612e13816000846001612bd8565b612e1c8261104a565b600083815260696020908152604080832080546001600160a01b03199081169091556001600160a01b0385168085526068845282852080546000190190558785526067909352818420805490911690555192935084927fddf252ad1be2c89b69c2b068fc378daa952ba7f163c4a11628f55a4df523b3ef908390a45050565b600054610100900460ff16612ec25760405162461bcd60e51b8152600401610ab790614cfc565b6065612ece8382614aa9565b506066610b588282614aa9565b600054610100900460ff16612f025760405162461bcd60e51b8152600401610ab790614cfc565b6097805460ff19169055565b600054610100900460ff16612f355760405162461bcd60e51b8152600401610ab790614cfc565b612f3d61257f565b610f3860008051602061531a8339815191523361240b565b60975460ff1615610f385760405162461bcd60e51b815260206004820152601060248201526f14185d5cd8589b194e881c185d5cd95960821b6044820152606401610ab7565b6000826000018281548110612fb257612fb2614a1e565b9060005260206000200154905092915050565b612fcf838361374a565b612fdc6000848484613004565b610b585760405162461bcd60e51b8152600401610ab790614d47565b60006115c28383613657565b60006001600160a01b0384163b156130fa57604051630a85bd0160e11b81526001600160a01b0385169063150b7a0290613048903390899088908890600401614eda565b6020604051808303816000875af1925050508015613083575060408051601f3d908101601f1916820190925261308091810190614f17565b60015b6130e0573d8080156130b1576040519150601f19603f3d011682016040523d82523d6000602084013e6130b6565b606091505b5080516000036130d85760405162461bcd60e51b8152600401610ab790614d47565b805181602001fd5b6001600160e01b031916630a85bd0160e11b149050612292565b506001612292565b6000818152606760205260408120546001600160a01b031615156108ac565b6060815160000361314057505060408051602081019091526000815290565b60006040518060600160405280604081526020016152ba604091399050600060038451600261316f9190614f34565b6131799190614f47565b613184906004614f69565b6001600160401b0381111561319b5761319b614130565b6040519080825280601f01601f1916602001820160405280156131c5576020820181803683370190505b509050600182016020820185865187015b80821015613231576003820191508151603f8160121c168501518453600184019350603f81600c1c168501518453600184019350603f8160061c168501518453600184019350603f81168501518453506001830192506131d6565b505060038651066001811461324d576002811461326057613268565b603d6001830353603d6002830353613268565b603d60018303535b509195945050505050565b6060816000018054806020026020016040519081016040528092919081815260200182805480156132c357602002820191906000526020600020905b8154815260200190600101908083116132af575b50505050509050919050565b60008072184f03e93ff9f4daa797ed6e38ed64bf6a1f0160401b831061330e5772184f03e93ff9f4daa797ed6e38ed64bf6a1f0160401b830492506040015b6d04ee2d6d415b85acef8100000000831061333a576d04ee2d6d415b85acef8100000000830492506020015b662386f26fc10000831061335857662386f26fc10000830492506010015b6305f5e1008310613370576305f5e100830492506008015b612710831061338457612710830492506004015b60648310613396576064830492506002015b600a83106108ac5760010192915050565b600081815261025660209081526040808320838052825280832060028452909152808220548280529082205460609291906133e390600f614f69565b6133ed9190614f34565b90506115c281612942565b6060600061340a8989898989896138c5565b9050806134168461392f565b604051602001613427929190614f88565b604051602081830303815290604052915050979650505050505050565b60606108ac6001600160a01b03831660145b60606000613465836002614f69565b613470906002614f34565b6001600160401b0381111561348757613487614130565b6040519080825280601f01601f1916602001820160405280156134b1576020820181803683370190505b509050600360fc1b816000815181106134cc576134cc614a1e565b60200101906001600160f81b031916908160001a905350600f60fb1b816001815181106134fb576134fb614a1e565b60200101906001600160f81b031916908160001a905350600061351f846002614f69565b61352a906001614f34565b90505b60018111156135a2576f181899199a1a9b1b9c1cb0b131b232b360811b85600f166010811061355e5761355e614a1e565b1a60f81b82828151811061357457613574614a1e565b60200101906001600160f81b031916908160001a90535060049490941c9361359b81614fd5565b905061352d565b5083156115c25760405162461bcd60e51b815260206004820181905260248201527f537472696e67733a20686578206c656e67746820696e73756666696369656e746044820152606401610ab7565b60006108ac82613b23565b61168984848484613b48565b600081815260018301602052604081205461364f575081546001818101845560008481526020808220909301849055845484825282860190935260409020919091556108ac565b5060006108ac565b6000818152600183016020526040812054801561374057600061367b600183614fec565b855490915060009061368f90600190614fec565b90508181146136f45760008660000182815481106136af576136af614a1e565b90600052602060002001549050808760000184815481106136d2576136d2614a1e565b6000918252602080832090910192909255918252600188019052604090208390555b855486908061370557613705614fff565b6001900381819060005260206000200160009055905585600101600086815260200190815260200160002060009055600193505050506108ac565b60009150506108ac565b6001600160a01b0382166137a05760405162461bcd60e51b815260206004820181905260248201527f4552433732313a206d696e7420746f20746865207a65726f20616464726573736044820152606401610ab7565b6137a9816128ef565b156137f65760405162461bcd60e51b815260206004820152601c60248201527f4552433732313a20746f6b656e20616c7265616479206d696e746564000000006044820152606401610ab7565b613804600083836001612bd8565b61380d816128ef565b1561385a5760405162461bcd60e51b815260206004820152601c60248201527f4552433732313a20746f6b656e20616c7265616479206d696e746564000000006044820152606401610ab7565b6001600160a01b038216600081815260686020908152604080832080546001019055848352606790915280822080546001600160a01b0319168417905551839291907fddf252ad1be2c89b69c2b068fc378daa952ba7f163c4a11628f55a4df523b3ef908290a45050565b6060846138d188612942565b84866138e58a6001600160a01b0316613444565b6138ff8760028111156138fa576138fa614bb7565b613c83565b60405160200161391496959493929190615015565b60405160208183030381529060405290509695505050505050565b60408051602081019091526000808252606091905b8351811015613b115760006001855161395d9190614fec565b821461398257604051806040016040528060018152602001600b60fa1b815250613993565b604051806020016040528060008152505b905060008583815181106139a9576139a9614a1e565b6020026020010151606001516139d857604051806040016040528060018152602001601160f91b8152506139e9565b604051806020016040528060008152505b9050600081878581518110613a0057613a00614a1e565b60200260200101516040015183604051602001613a1f93929190615134565b60405160208183030381529060405290506000878581518110613a4457613a44614a1e565b60200260200101516020015151600014613a9a57878581518110613a6a57613a6a614a1e565b602002602001015160200151604051602001613a869190615177565b604051602081830303815290604052613aab565b604051806020016040528060008152505b9050600086898781518110613ac257613ac2614a1e565b602002602001015160000151838588604051602001613ae59594939291906151bc565b604051602081830303815290604052905080965050505050508080613b0990614a4a565b915050613944565b50806040516020016117249190615277565b60006001600160e01b03198216635a05180f60e01b14806108ac57506108ac82613d21565b613b5484848484613d46565b6001811115613bc35760405162461bcd60e51b815260206004820152603560248201527f455243373231456e756d657261626c653a20636f6e7365637574697665207472604482015274185b9cd9995c9cc81b9bdd081cdd5c1c1bdc9d1959605a1b6064820152608401610ab7565b816001600160a01b038516613c2157613c1c816101c2805460008381526101c360205260408120829055600182018355919091527f363a63c83fb1b082d2626fb079e7d74d92caf27fec08dcc75278f5de8d9db6d70155565b613c44565b836001600160a01b0316856001600160a01b031614613c4457613c448582613d52565b6001600160a01b038416613c6057613c5b81613df4565b610f9d565b846001600160a01b0316846001600160a01b031614610f9d57610f9d8482613ea9565b60606002826002811115613c9957613c99614bb7565b14613cff576001826002811115613cb257613cb2614bb7565b14613cda5760405180604001604052806005815260200164045524332360dc1b8152506108ac565b604051806040016040528060078152602001664552433131353560c81b8152506108ac565b505060408051808201909152600681526545524337323160d01b602082015290565b60006001600160e01b03198216637965db0b60e01b14806108ac57506108ac82613eef565b61168984848484613f3f565b60006001613d5f8461117c565b613d699190614fec565b60008381526101c16020526040902054909150808214613dbf576001600160a01b03841660009081526101c06020908152604080832085845282528083205484845281842081905583526101c190915290208190555b5060009182526101c1602090815260408084208490556001600160a01b0390941683526101c081528383209183525290812055565b6101c254600090613e0790600190614fec565b60008381526101c360205260408120546101c28054939450909284908110613e3157613e31614a1e565b90600052602060002001549050806101c28381548110613e5357613e53614a1e565b60009182526020808320909101929092558281526101c390915260408082208490558582528120556101c2805480613e8d57613e8d614fff565b6001900381819060005260206000200160009055905550505050565b6000613eb48361117c565b6001600160a01b0390931660009081526101c06020908152604080832086845282528083208590559382526101c19052919091209190915550565b60006001600160e01b031982166380ac58cd60e01b1480613f2057506001600160e01b03198216635b5e139f60e01b145b806108ac57506301ffc9a760e01b6001600160e01b03198316146108ac565b6001811115611689576001600160a01b03841615613f85576001600160a01b03841660009081526068602052604081208054839290613f7f908490614fec565b90915550505b6001600160a01b03831615611689576001600160a01b03831660009081526068602052604081208054839290613fbc908490614f34565b909155505050505050565b600060208284031215613fd957600080fd5b5035919050565b6001600160e01b031981168114610f5e57600080fd5b60006020828403121561400857600080fd5b81356115c281613fe0565b6000806040838503121561402657600080fd5b50508035926020909101359150565b60005b83811015614050578181015183820152602001614038565b50506000910152565b60008151808452614071816020860160208601614035565b601f01601f19169290920160200192915050565b6020815260006115c26020830184614059565b80356001600160a01b03811681146128b757600080fd5b600080604083850312156140c257600080fd5b6140cb83614098565b946020939093013593505050565b6000602082840312156140eb57600080fd5b6115c282614098565b60008060006060848603121561410957600080fd5b61411284614098565b925061412060208501614098565b9150604084013590509250925092565b634e487b7160e01b600052604160045260246000fd5b604051606081016001600160401b038111828210171561416857614168614130565b60405290565b604051601f8201601f191681016001600160401b038111828210171561419657614196614130565b604052919050565b60006001600160401b038211156141b7576141b7614130565b5060051b60200190565b600082601f8301126141d257600080fd5b813560206141e76141e28361419e565b61416e565b82815260059290921b8401810191818101908684111561420657600080fd5b8286015b84811015614221578035835291830191830161420a565b509695505050505050565b60006020828403121561423e57600080fd5b81356001600160401b0381111561425457600080fd5b612292848285016141c1565b6000602080830181845280855180835260408601915060408160051b870101925083870160005b828110156142b557603f198886030184526142a3858351614059565b94509285019290850190600101614287565b5092979650505050505050565b600080604083850312156142d557600080fd5b823591506142e560208401614098565b90509250929050565b6000806040838503121561430157600080fd5b82356001600160401b0381111561431757600080fd5b614323858286016141c1565b95602094909401359450505050565b60008060006060848603121561434757600080fd5b505081359360208301359350604090920135919050565b600082601f83011261436f57600080fd5b81356001600160401b0381111561438857614388614130565b61439b601f8201601f191660200161416e565b8181528460208386010111156143b057600080fd5b816020850160208301376000918101602001919091529392505050565b6000806000606084860312156143e257600080fd5b833592506020840135915060408401356001600160401b0381111561440657600080fd5b6144128682870161435e565b9150509250925092565b60006020828403121561442e57600080fd5b81356001600160401b0381111561444457600080fd5b6122928482850161435e565b6000806020838503121561446357600080fd5b82356001600160401b038082111561447a57600080fd5b818501915085601f83011261448e57600080fd5b81358181111561449d57600080fd5b8660208260051b85010111156144b257600080fd5b60209290920196919550909350505050565b600080600080608085870312156144da57600080fd5b84356001600160401b03808211156144f157600080fd5b6144fd888389016141c1565b9550602087013591508082111561451357600080fd5b61451f888389016141c1565b9450604087013591508082111561453557600080fd5b614541888389016141c1565b9350606087013591508082111561455757600080fd5b50614564878288016141c1565b91505092959194509250565b6020808252825182820181905260009190848201906040850190845b818110156145a85783518352928401929184019160010161458c565b50909695505050505050565b6000806000606084860312156145c957600080fd5b6145d284614098565b92506020840135915060408401356001600160401b0381111561440657600080fd5b6000806040838503121561460757600080fd5b8235915060208301356001600160401b0381111561462457600080fd5b614630858286016141c1565b9150509250929050565b6000806040838503121561464d57600080fd5b61465683614098565b91506020830135801515811461466b57600080fd5b809150509250929050565b60008060006040848603121561468b57600080fd5b61469484614098565b925060208401356001600160401b03808211156146b057600080fd5b818601915086601f8301126146c457600080fd5b8135818111156146d357600080fd5b8760208285010111156146e557600080fd5b6020830194508093505050509250925092565b6000806000806080858703121561470e57600080fd5b5050823594602084013594506040840135936060013592509050565b6000806000806080858703121561474057600080fd5b61474985614098565b935061475760208601614098565b92506040850135915060608501356001600160401b0381111561477957600080fd5b6145648782880161435e565b60008060006060848603121561479a57600080fd5b833592506020840135915060408401356001600160401b038111156147be57600080fd5b614412868287016141c1565b6020808252825182820181905260009190848201906040850190845b818110156145a85783516001600160a01b0316835292840192918401916001016147e6565b60008060006060848603121561482057600080fd5b833592506020808501356001600160401b038082111561483f57600080fd5b61484b888389016141c1565b9450604087013591508082111561486157600080fd5b818701915087601f83011261487557600080fd5b81356148836141e28261419e565b81815260059190911b8301840190848101908a8311156148a257600080fd5b8585015b838110156148da578035858111156148be5760008081fd5b6148cc8d89838a010161435e565b8452509186019186016148a6565b508096505050505050509250925092565b6000806000806080858703121561490157600080fd5b843593506020850135925060408501356001600160401b038082111561453557600080fd5b6000806040838503121561493957600080fd5b61494283614098565b91506142e560208401614098565b60008060006060848603121561496557600080fd5b61496e84614098565b925061497c60208501614098565b915060408401356001600160401b038111156147be57600080fd5b600181811c908216806149ab57607f821691505b6020821081036149cb57634e487b7160e01b600052602260045260246000fd5b50919050565b6020808252602d908201527f4552433732313a2063616c6c6572206973206e6f7420746f6b656e206f776e6560408201526c1c881bdc88185c1c1c9bdd9959609a1b606082015260800190565b634e487b7160e01b600052603260045260246000fd5b634e487b7160e01b600052601160045260246000fd5b600060018201614a5c57614a5c614a34565b5060010190565b601f821115610b5857600081815260208120601f850160051c81016020861015614a8a5750805b601f850160051c820191505b8181101561136757828155600101614a96565b81516001600160401b03811115614ac257614ac2614130565b614ad681614ad08454614997565b84614a63565b602080601f831160018114614b0b5760008415614af35750858301515b600019600386901b1c1916600185901b178555611367565b600085815260208120601f198616915b82811015614b3a57888601518255948401946001909101908401614b1b565b5085821015614b585787850151600019600388901b60f8161c191681555b5050505050600190811b01905550565b60058110610f5e57600080fd5b600060608284031215614b8757600080fd5b614b8f614146565b82518152602083015160208201526040830151614bab81614b68565b60408201529392505050565b634e487b7160e01b600052602160045260246000fd5b81518152602080830151908201526040820151606082019060058110614c0357634e487b7160e01b600052602160045260246000fd5b8060408401525092915050565b600060608284031215614c2257600080fd5b614c2a614146565b82358152602083013560208201526040830135614bab81614b68565b8281526040602082015260006122926040830184614059565b60008151614c71818560208601614035565b9290920192915050565b60008351614c8d818460208801614035565b602f60f81b9083019081528351614cab816001840160208801614035565b01600101949350505050565b60208082526025908201527f4552433732313a207472616e736665722066726f6d20696e636f72726563742060408201526437bbb732b960d91b606082015260800190565b6020808252602b908201527f496e697469616c697a61626c653a20636f6e7472616374206973206e6f74206960408201526a6e697469616c697a696e6760a81b606082015260800190565b60208082526032908201527f4552433732313a207472616e7366657220746f206e6f6e20455243373231526560408201527131b2b4bb32b91034b6b83632b6b2b73a32b960711b606082015260800190565b7f646174613a6170706c69636174696f6e2f6a736f6e3b6261736536342c000000815260008251614dd181601d850160208701614035565b91909101601d0192915050565b6000808454614dec81614997565b60018281168015614e045760018114614e1957614e48565b60ff1984168752821515830287019450614e48565b8860005260208060002060005b85811015614e3f5781548a820152908401908201614e26565b50505082870194505b505050508351614e5c818360208801614035565b01949350505050565b7f416363657373436f6e74726f6c3a206163636f756e7420000000000000000000815260008351614e9d816017850160208801614035565b7001034b99036b4b9b9b4b733903937b6329607d1b6017918401918201528351614ece816028840160208801614035565b01602801949350505050565b6001600160a01b0385811682528416602082015260408101839052608060608201819052600090614f0d90830184614059565b9695505050505050565b600060208284031215614f2957600080fd5b81516115c281613fe0565b808201808211156108ac576108ac614a34565b600082614f6457634e487b7160e01b600052601260045260246000fd5b500490565b6000816000190483118215151615614f8357614f83614a34565b500290565b607b60f81b815260008351614fa4816001850160208801614035565b835190830190614fbb816001840160208801614035565b607d60f81b60019290910191820152600201949350505050565b600081614fe457614fe4614a34565b506000190190565b818103818111156108ac576108ac614a34565b634e487b7160e01b600052603160045260246000fd5b67113730b6b2911d1160c11b81528651600090615039816008850160208c01614035565b61088b60f21b60089184019182018190526a113a37b5b2b724b2111d1160a91b600a8301528851615071816015850160208d01614035565b601592019182018190526e113232b9b1b934b83a34b7b7111d1160891b601783015287516150a6816026850160208c01614035565b60269201918201526151276150e461512161510d826151076150f2826150de60288a01681134b6b0b3b2911d1160b91b815260090190565b8e614c5f565b61088b60f21b815260020190565b681137bbb732b9111d1160b91b815260090190565b8a614c5f565b67113a3cb832911d1160c11b815260080190565b86614c5f565b9998505050505050505050565b60008451615146818460208901614035565b84519083019061515a818360208901614035565b845191019061516d818360208801614035565b0195945050505050565b6f113234b9b83630bcafba3cb832911d1160811b815281516000906151a3816010850160208701614035565b61088b60f21b6010939091019283015250601201919050565b600086516151ce818460208b01614035565b6e3d913a3930b4ba2fba3cb832911d1160891b90830190815286516151fa81600f840160208b01614035565b61088b60f21b600f9290910191820152855161521d816011840160208a01614035565b67113b30b63ab2911d60c11b601192909101918201528451615246816019840160208901614035565b607d60f81b60199290910191820152835161526881601a840160208801614035565b01601a01979650505050505050565b6d2261747472696275746573223a5b60901b815281516000906152a181600e850160208701614035565b605d60f81b600e939091019283015250600f0191905056fe4142434445464748494a4b4c4d4e4f505152535455565758595a6162636465666768696a6b6c6d6e6f707172737475767778797a303132333435363738392b2fa49807205ce4d355092ef5a8a18f56e8913cf4a201fbe287825b095693c21775364d3d7565c7a8300c96fd53e065d19b65848d7b23b3191adcd55621c744223ca264697066735822122099763c471d0cc0a453a81cb4243f76cf42a5a70e8e69a629dfcd4a78a5abc9bf64736f6c63430008100033",
  "linkReferences": {},
  "deployedLinkReferences": {}
}