{
  "_format": "hh-sol-artifact-1",
  "contractName": "FramedWizards",
  "sourceName": "contracts/upgradeable/ERC721/FramedWizards.sol",
  "abi": [
    {
      "inputs": [],
      "stateMutability": "nonpayable",
      "type": "constructor"
    },
    {
      "anonymous": false,
      "inputs": [
        {
          "indexed": true,
          "internalType": "address",
          "name": "owner",
          "type": "address"
        },
        {
          "indexed": true,
          "internalType": "address",
          "name": "approved",
          "type": "address"
        },
        {
          "indexed": true,
          "internalType": "uint256",
          "name": "tokenId",
          "type": "uint256"
        }
      ],
      "name": "Approval",
      "type": "event"
    },
    {
      "anonymous": false,
      "inputs": [
        {
          "indexed": true,
          "internalType": "address",
          "name": "owner",
          "type": "address"
        },
        {
          "indexed": true,
          "internalType": "address",
          "name": "operator",
          "type": "address"
        },
        {
          "indexed": false,
          "internalType": "bool",
          "name": "approved",
          "type": "bool"
        }
      ],
      "name": "ApprovalForAll",
      "type": "event"
    },
    {
      "anonymous": false,
      "inputs": [
        {
          "indexed": false,
          "internalType": "uint8",
          "name": "version",
          "type": "uint8"
        }
      ],
      "name": "Initialized",
      "type": "event"
    },
    {
      "anonymous": false,
      "inputs": [
        {
          "indexed": false,
          "internalType": "address",
          "name": "account",
          "type": "address"
        }
      ],
      "name": "Paused",
      "type": "event"
    },
    {
      "anonymous": false,
      "inputs": [
        {
          "indexed": true,
          "internalType": "bytes32",
          "name": "role",
          "type": "bytes32"
        },
        {
          "indexed": true,
          "internalType": "bytes32",
          "name": "previousAdminRole",
          "type": "bytes32"
        },
        {
          "indexed": true,
          "internalType": "bytes32",
          "name": "newAdminRole",
          "type": "bytes32"
        }
      ],
      "name": "RoleAdminChanged",
      "type": "event"
    },
    {
      "anonymous": false,
      "inputs": [
        {
          "indexed": true,
          "internalType": "bytes32",
          "name": "role",
          "type": "bytes32"
        },
        {
          "indexed": true,
          "internalType": "address",
          "name": "account",
          "type": "address"
        },
        {
          "indexed": true,
          "internalType": "address",
          "name": "sender",
          "type": "address"
        }
      ],
      "name": "RoleGranted",
      "type": "event"
    },
    {
      "anonymous": false,
      "inputs": [
        {
          "indexed": true,
          "internalType": "bytes32",
          "name": "role",
          "type": "bytes32"
        },
        {
          "indexed": true,
          "internalType": "address",
          "name": "account",
          "type": "address"
        },
        {
          "indexed": true,
          "internalType": "address",
          "name": "sender",
          "type": "address"
        }
      ],
      "name": "RoleRevoked",
      "type": "event"
    },
    {
      "anonymous": false,
      "inputs": [
        {
          "indexed": true,
          "internalType": "address",
          "name": "from",
          "type": "address"
        },
        {
          "indexed": true,
          "internalType": "address",
          "name": "to",
          "type": "address"
        },
        {
          "indexed": true,
          "internalType": "uint256",
          "name": "tokenId",
          "type": "uint256"
        }
      ],
      "name": "Transfer",
      "type": "event"
    },
    {
      "anonymous": false,
      "inputs": [
        {
          "indexed": false,
          "internalType": "address",
          "name": "account",
          "type": "address"
        }
      ],
      "name": "Unpaused",
      "type": "event"
    },
    {
      "inputs": [],
      "name": "ADMIN_ROLE",
      "outputs": [
        {
          "internalType": "bytes32",
          "name": "",
          "type": "bytes32"
        }
      ],
      "stateMutability": "view",
      "type": "function"
    },
    {
      "inputs": [],
      "name": "DEFAULT_ADMIN_ROLE",
      "outputs": [
        {
          "internalType": "bytes32",
          "name": "",
          "type": "bytes32"
        }
      ],
      "stateMutability": "view",
      "type": "function"
    },
    {
      "inputs": [],
      "name": "MINTER_ROLE",
      "outputs": [
        {
          "internalType": "bytes32",
          "name": "",
          "type": "bytes32"
        }
      ],
      "stateMutability": "view",
      "type": "function"
    },
    {
      "inputs": [
        {
          "internalType": "address",
          "name": "from",
          "type": "address"
        },
        {
          "internalType": "address[]",
          "name": "accounts",
          "type": "address[]"
        },
        {
          "internalType": "uint256[]",
          "name": "tokenIds",
          "type": "uint256[]"
        }
      ],
      "name": "adminRescue",
      "outputs": [],
      "stateMutability": "nonpayable",
      "type": "function"
    },
    {
      "inputs": [
        {
          "internalType": "address",
          "name": "to",
          "type": "address"
        },
        {
          "internalType": "uint256",
          "name": "tokenId",
          "type": "uint256"
        }
      ],
      "name": "approve",
      "outputs": [],
      "stateMutability": "nonpayable",
      "type": "function"
    },
    {
      "inputs": [
        {
          "internalType": "address",
          "name": "owner",
          "type": "address"
        }
      ],
      "name": "balanceOf",
      "outputs": [
        {
          "internalType": "uint256",
          "name": "",
          "type": "uint256"
        }
      ],
      "stateMutability": "view",
      "type": "function"
    },
    {
      "inputs": [
        {
          "internalType": "address",
          "name": "to",
          "type": "address"
        },
        {
          "internalType": "uint256[]",
          "name": "tokenIds",
          "type": "uint256[]"
        }
      ],
      "name": "batchMint",
      "outputs": [],
      "stateMutability": "nonpayable",
      "type": "function"
    },
    {
      "inputs": [
        {
          "internalType": "uint256[]",
          "name": "tokenIds",
          "type": "uint256[]"
        }
      ],
      "name": "batchTokenURI",
      "outputs": [
        {
          "internalType": "string[]",
          "name": "",
          "type": "string[]"
        }
      ],
      "stateMutability": "view",
      "type": "function"
    },
    {
      "inputs": [
        {
          "internalType": "address",
          "name": "from",
          "type": "address"
        },
        {
          "internalType": "address",
          "name": "to",
          "type": "address"
        },
        {
          "internalType": "uint256[]",
          "name": "tokenIds",
          "type": "uint256[]"
        }
      ],
      "name": "batchTransferFrom",
      "outputs": [],
      "stateMutability": "nonpayable",
      "type": "function"
    },
    {
      "inputs": [
        {
          "internalType": "uint256",
          "name": "tokenId",
          "type": "uint256"
        }
      ],
      "name": "burn",
      "outputs": [],
      "stateMutability": "nonpayable",
      "type": "function"
    },
    {
      "inputs": [],
      "name": "getAllTokenIds",
      "outputs": [
        {
          "internalType": "uint256[]",
          "name": "",
          "type": "uint256[]"
        }
      ],
      "stateMutability": "view",
      "type": "function"
    },
    {
      "inputs": [
        {
          "internalType": "uint256",
          "name": "tokenId",
          "type": "uint256"
        }
      ],
      "name": "getApproved",
      "outputs": [
        {
          "internalType": "address",
          "name": "",
          "type": "address"
        }
      ],
      "stateMutability": "view",
      "type": "function"
    },
    {
      "inputs": [
        {
          "internalType": "bytes32",
          "name": "role",
          "type": "bytes32"
        }
      ],
      "name": "getRoleAdmin",
      "outputs": [
        {
          "internalType": "bytes32",
          "name": "",
          "type": "bytes32"
        }
      ],
      "stateMutability": "view",
      "type": "function"
    },
    {
      "inputs": [
        {
          "internalType": "bytes32",
          "name": "role",
          "type": "bytes32"
        },
        {
          "internalType": "uint256",
          "name": "index",
          "type": "uint256"
        }
      ],
      "name": "getRoleMember",
      "outputs": [
        {
          "internalType": "address",
          "name": "",
          "type": "address"
        }
      ],
      "stateMutability": "view",
      "type": "function"
    },
    {
      "inputs": [
        {
          "internalType": "bytes32",
          "name": "role",
          "type": "bytes32"
        }
      ],
      "name": "getRoleMemberCount",
      "outputs": [
        {
          "internalType": "uint256",
          "name": "",
          "type": "uint256"
        }
      ],
      "stateMutability": "view",
      "type": "function"
    },
    {
      "inputs": [
        {
          "internalType": "bytes32",
          "name": "role",
          "type": "bytes32"
        },
        {
          "internalType": "address",
          "name": "account",
          "type": "address"
        }
      ],
      "name": "grantRole",
      "outputs": [],
      "stateMutability": "nonpayable",
      "type": "function"
    },
    {
      "inputs": [
        {
          "internalType": "bytes32",
          "name": "role",
          "type": "bytes32"
        },
        {
          "internalType": "address",
          "name": "account",
          "type": "address"
        }
      ],
      "name": "hasRole",
      "outputs": [
        {
          "internalType": "bool",
          "name": "",
          "type": "bool"
        }
      ],
      "stateMutability": "view",
      "type": "function"
    },
    {
      "inputs": [],
      "name": "imageBaseURI",
      "outputs": [
        {
          "internalType": "string",
          "name": "",
          "type": "string"
        }
      ],
      "stateMutability": "view",
      "type": "function"
    },
    {
      "inputs": [],
      "name": "initialize",
      "outputs": [],
      "stateMutability": "nonpayable",
      "type": "function"
    },
    {
      "inputs": [
        {
          "internalType": "address",
          "name": "owner",
          "type": "address"
        },
        {
          "internalType": "address",
          "name": "operator",
          "type": "address"
        }
      ],
      "name": "isApprovedForAll",
      "outputs": [
        {
          "internalType": "bool",
          "name": "",
          "type": "bool"
        }
      ],
      "stateMutability": "view",
      "type": "function"
    },
    {
      "inputs": [
        {
          "internalType": "address",
          "name": "to",
          "type": "address"
        },
        {
          "internalType": "uint256",
          "name": "tokenId",
          "type": "uint256"
        }
      ],
      "name": "mint",
      "outputs": [],
      "stateMutability": "nonpayable",
      "type": "function"
    },
    {
      "inputs": [],
      "name": "name",
      "outputs": [
        {
          "internalType": "string",
          "name": "",
          "type": "string"
        }
      ],
      "stateMutability": "view",
      "type": "function"
    },
    {
      "inputs": [
        {
          "internalType": "uint256",
          "name": "tokenId",
          "type": "uint256"
        }
      ],
      "name": "ownerOf",
      "outputs": [
        {
          "internalType": "address",
          "name": "",
          "type": "address"
        }
      ],
      "stateMutability": "view",
      "type": "function"
    },
    {
      "inputs": [],
      "name": "pause",
      "outputs": [],
      "stateMutability": "nonpayable",
      "type": "function"
    },
    {
      "inputs": [],
      "name": "paused",
      "outputs": [
        {
          "internalType": "bool",
          "name": "",
          "type": "bool"
        }
      ],
      "stateMutability": "view",
      "type": "function"
    },
    {
      "inputs": [
        {
          "internalType": "bytes32",
          "name": "role",
          "type": "bytes32"
        },
        {
          "internalType": "address",
          "name": "account",
          "type": "address"
        }
      ],
      "name": "renounceRole",
      "outputs": [],
      "stateMutability": "nonpayable",
      "type": "function"
    },
    {
      "inputs": [
        {
          "internalType": "bytes32",
          "name": "role",
          "type": "bytes32"
        },
        {
          "internalType": "address",
          "name": "account",
          "type": "address"
        }
      ],
      "name": "revokeRole",
      "outputs": [],
      "stateMutability": "nonpayable",
      "type": "function"
    },
    {
      "inputs": [
        {
          "internalType": "address",
          "name": "from",
          "type": "address"
        },
        {
          "internalType": "address",
          "name": "to",
          "type": "address"
        },
        {
          "internalType": "uint256",
          "name": "tokenId",
          "type": "uint256"
        }
      ],
      "name": "safeTransferFrom",
      "outputs": [],
      "stateMutability": "nonpayable",
      "type": "function"
    },
    {
      "inputs": [
        {
          "internalType": "address",
          "name": "from",
          "type": "address"
        },
        {
          "internalType": "address",
          "name": "to",
          "type": "address"
        },
        {
          "internalType": "uint256",
          "name": "tokenId",
          "type": "uint256"
        },
        {
          "internalType": "bytes",
          "name": "data",
          "type": "bytes"
        }
      ],
      "name": "safeTransferFrom",
      "outputs": [],
      "stateMutability": "nonpayable",
      "type": "function"
    },
    {
      "inputs": [
        {
          "internalType": "address",
          "name": "operator",
          "type": "address"
        },
        {
          "internalType": "bool",
          "name": "approved",
          "type": "bool"
        }
      ],
      "name": "setApprovalForAll",
      "outputs": [],
      "stateMutability": "nonpayable",
      "type": "function"
    },
    {
      "inputs": [
        {
          "internalType": "uint256",
          "name": "token",
          "type": "uint256"
        },
        {
          "internalType": "bytes",
          "name": "uri",
          "type": "bytes"
        }
      ],
      "name": "setTokenURI",
      "outputs": [],
      "stateMutability": "nonpayable",
      "type": "function"
    },
    {
      "inputs": [
        {
          "internalType": "uint256[]",
          "name": "tokens",
          "type": "uint256[]"
        },
        {
          "internalType": "bytes[]",
          "name": "uris",
          "type": "bytes[]"
        }
      ],
      "name": "setTokenURIs",
      "outputs": [],
      "stateMutability": "nonpayable",
      "type": "function"
    },
    {
      "inputs": [
        {
          "internalType": "bytes4",
          "name": "interfaceId",
          "type": "bytes4"
        }
      ],
      "name": "supportsInterface",
      "outputs": [
        {
          "internalType": "bool",
          "name": "",
          "type": "bool"
        }
      ],
      "stateMutability": "view",
      "type": "function"
    },
    {
      "inputs": [],
      "name": "symbol",
      "outputs": [
        {
          "internalType": "string",
          "name": "",
          "type": "string"
        }
      ],
      "stateMutability": "view",
      "type": "function"
    },
    {
      "inputs": [
        {
          "internalType": "uint256",
          "name": "index",
          "type": "uint256"
        }
      ],
      "name": "tokenByIndex",
      "outputs": [
        {
          "internalType": "uint256",
          "name": "",
          "type": "uint256"
        }
      ],
      "stateMutability": "view",
      "type": "function"
    },
    {
      "inputs": [
        {
          "internalType": "address",
          "name": "owner",
          "type": "address"
        },
        {
          "internalType": "uint256",
          "name": "index",
          "type": "uint256"
        }
      ],
      "name": "tokenOfOwnerByIndex",
      "outputs": [
        {
          "internalType": "uint256",
          "name": "",
          "type": "uint256"
        }
      ],
      "stateMutability": "view",
      "type": "function"
    },
    {
      "inputs": [
        {
          "internalType": "uint256",
          "name": "tokenId",
          "type": "uint256"
        }
      ],
      "name": "tokenURI",
      "outputs": [
        {
          "internalType": "string",
          "name": "",
          "type": "string"
        }
      ],
      "stateMutability": "view",
      "type": "function"
    },
    {
      "inputs": [
        {
          "internalType": "address",
          "name": "owner",
          "type": "address"
        }
      ],
      "name": "tokensOfOwner",
      "outputs": [
        {
          "internalType": "uint256[]",
          "name": "",
          "type": "uint256[]"
        }
      ],
      "stateMutability": "view",
      "type": "function"
    },
    {
      "inputs": [],
      "name": "totalSupply",
      "outputs": [
        {
          "internalType": "uint256",
          "name": "",
          "type": "uint256"
        }
      ],
      "stateMutability": "view",
      "type": "function"
    },
    {
      "inputs": [
        {
          "internalType": "address",
          "name": "from",
          "type": "address"
        },
        {
          "internalType": "address",
          "name": "to",
          "type": "address"
        },
        {
          "internalType": "uint256",
          "name": "tokenId",
          "type": "uint256"
        }
      ],
      "name": "transferFrom",
      "outputs": [],
      "stateMutability": "nonpayable",
      "type": "function"
    },
    {
      "inputs": [],
      "name": "unpause",
      "outputs": [],
      "stateMutability": "nonpayable",
      "type": "function"
    }
  ],
  "bytecode": "0x60806040523480156200001157600080fd5b506200001c62000022565b620000e4565b600054610100900460ff16156200008f5760405162461bcd60e51b815260206004820152602760248201527f496e697469616c697a61626c653a20636f6e747261637420697320696e697469604482015266616c697a696e6760c81b606482015260840160405180910390fd5b60005460ff9081161015620000e2576000805460ff191660ff9081179091556040519081527f7f26b83ff96e1f2b6a682f133852f6798a09c465da95921460cefb38474024989060200160405180910390a15b565b61390380620000f46000396000f3fe608060405234801561001057600080fd5b50600436106102535760003560e01c806370a0823111610146578063a217fddf116100c3578063c87b56dd11610087578063c87b56dd146104fa578063ca15c8731461050d578063d539139314610520578063d547741f14610535578063e985e9c514610548578063f3993d111461058457600080fd5b8063a217fddf146104b1578063a22cb465146104b9578063ae3a78c2146104cc578063b88d4fde146104df578063bdbed722146104f257600080fd5b80638462151c1161010a5780638462151c146104505780638a79ecbd146104705780639010d07c1461048357806391d148541461049657806395d89b41146104a957600080fd5b806370a082311461041057806375b238fc1461042357806377645839146104385780638129fc1c146104405780638456cb591461044857600080fd5b80633aaaf018116101d45780634684d7e9116101985780634684d7e9146103ab5780634f6ccce7146103be5780635c975abb146103d15780636352211e146103dd5780636d94f13a146103f057600080fd5b80633aaaf018146103575780633f4ba83a1461036a57806340c10f191461037257806342842e0e1461038557806342966c681461039857600080fd5b806323b872dd1161021b57806323b872dd146102e7578063248a9ca3146102fa5780632f2ff15d1461031e5780632f745c591461033157806336568abe1461034457600080fd5b806301ffc9a71461025857806306fdde0314610280578063081812fc14610295578063095ea7b3146102c057806318160ddd146102d5575b600080fd5b61026b610266366004612b3a565b610597565b60405190151581526020015b60405180910390f35b6102886105a8565b6040516102779190612ba7565b6102a86102a3366004612bba565b61063a565b6040516001600160a01b039091168152602001610277565b6102d36102ce366004612bef565b610661565b005b6099545b604051908152602001610277565b6102d36102f5366004612c19565b61077b565b6102d9610308366004612bba565b600090815261015f602052604090206001015490565b6102d361032c366004612c55565b6107ad565b6102d961033f366004612bef565b6107d3565b6102d3610352366004612c55565b610869565b6102d3610365366004612dc4565b6108e7565b6102d36109e8565b6102d3610380366004612bef565b610a0b565b6102d3610393366004612c19565b610a2d565b6102d36103a6366004612bba565b610a48565b6102d36103b9366004612e98565b610aca565b6102d96103cc366004612bba565b610b23565b61012d5460ff1661026b565b6102a86103eb366004612bba565b610bb6565b6104036103fe366004612ee5565b610c16565b6040516102779190612f19565b6102d961041e366004612f7b565b610cce565b6102d96000805160206138ae83398151915281565b610288610d54565b6102d3610de2565b6102d3610fa1565b61046361045e366004612f7b565b610fc1565b6040516102779190612f96565b6102d361047e366004612fda565b611062565b6102a86104913660046130ab565b61116d565b61026b6104a4366004612c55565b61118d565b6102886111b9565b6102d9600081565b6102d36104c73660046130cd565b6111c8565b6102d36104da366004613109565b6111d3565b6102d36104ed366004613145565b6111f5565b610463611227565b610288610508366004612bba565b6112bf565b6102d961051b366004612bba565b611392565b6102d960008051602061388e83398151915281565b6102d3610543366004612c55565b6113aa565b61026b6105563660046131ac565b6001600160a01b039182166000908152606a6020908152604080832093909416825291909152205460ff1690565b6102d36105923660046131d6565b6113d0565b60006105a282611412565b92915050565b6060606580546105b790613229565b80601f01602080910402602001604051908101604052809291908181526020018280546105e390613229565b80156106305780601f1061060557610100808354040283529160200191610630565b820191906000526020600020905b81548152906001019060200180831161061357829003601f168201915b5050505050905090565b60006106458261141d565b506000908152606960205260409020546001600160a01b031690565b600061066c82610bb6565b9050806001600160a01b0316836001600160a01b0316036106de5760405162461bcd60e51b815260206004820152602160248201527f4552433732313a20617070726f76616c20746f2063757272656e74206f776e656044820152603960f91b60648201526084015b60405180910390fd5b336001600160a01b03821614806106fa57506106fa8133610556565b61076c5760405162461bcd60e51b815260206004820152603d60248201527f4552433732313a20617070726f76652063616c6c6572206973206e6f7420746f60448201527f6b656e206f776e6572206f7220617070726f76656420666f7220616c6c00000060648201526084016106d5565b610776838361146d565b505050565b610786335b826114db565b6107a25760405162461bcd60e51b81526004016106d590613263565b61077683838361155a565b600082815261015f60205260409020600101546107c9816116cb565b61077683836116d5565b60006107de83610cce565b82106108405760405162461bcd60e51b815260206004820152602b60248201527f455243373231456e756d657261626c653a206f776e657220696e646578206f7560448201526a74206f6620626f756e647360a81b60648201526084016106d5565b506001600160a01b03919091166000908152609760209081526040808320938352929052205490565b6001600160a01b03811633146108d95760405162461bcd60e51b815260206004820152602f60248201527f416363657373436f6e74726f6c3a2063616e206f6e6c792072656e6f756e636560448201526e103937b632b9903337b91039b2b63360891b60648201526084016106d5565b6108e382826116f8565b5050565b6000805160206138ae8339815191526108ff816116cb565b60008351116109435760405162461bcd60e51b815260206004820152601060248201526f139bc81d1bdad95b9cc81c185cdcd95960821b60448201526064016106d5565b81518351146109885760405162461bcd60e51b81526020600482015260116024820152704d69736d6174636865642061727261797360781b60448201526064016106d5565b60005b83518110156109e2576109d08482815181106109a9576109a96132b0565b60200260200101518483815181106109c3576109c36132b0565b602002602001015161171b565b806109da816132dc565b91505061098b565b50505050565b6000805160206138ae833981519152610a00816116cb565b610a08611733565b50565b60008051602061388e833981519152610a23816116cb565b6107768383611786565b610776838383604051806020016040528060008152506111f5565b610a5133610780565b610ab45760405162461bcd60e51b815260206004820152602e60248201527f4552433732313a2063616c6c6572206973206e6f7420746f6b656e206f776e6560448201526d1c881b9bdc88185c1c1c9bdd995960921b60648201526084016106d5565b610ac06101f5826117a0565b50610a08816117ac565b60008051602061388e833981519152610ae2816116cb565b60005b82518110156109e257610b1184848381518110610b0457610b046132b0565b6020026020010151611786565b80610b1b816132dc565b915050610ae5565b6000610b2e60995490565b8210610b915760405162461bcd60e51b815260206004820152602c60248201527f455243373231456e756d657261626c653a20676c6f62616c20696e646578206f60448201526b7574206f6620626f756e647360a01b60648201526084016106d5565b60998281548110610ba457610ba46132b0565b90600052602060002001549050919050565b6000818152606760205260408120546001600160a01b0316806105a25760405162461bcd60e51b8152602060048201526018602482015277115490cdcc8c4e881a5b9d985b1a59081d1bdad95b88125160421b60448201526064016106d5565b6060600082516001600160401b03811115610c3357610c33612c81565b604051908082528060200260200182016040528015610c6657816020015b6060815260200190600190039081610c515790505b50905060005b8351811015610cc757610c97848281518110610c8a57610c8a6132b0565b60200260200101516112bf565b828281518110610ca957610ca96132b0565b60200260200101819052508080610cbf906132dc565b915050610c6c565b5092915050565b60006001600160a01b038216610d385760405162461bcd60e51b815260206004820152602960248201527f4552433732313a2061646472657373207a65726f206973206e6f7420612076616044820152683634b21037bbb732b960b91b60648201526084016106d5565b506001600160a01b031660009081526068602052604090205490565b60fc8054610d6190613229565b80601f0160208091040260200160405190810160405280929190818152602001828054610d8d90613229565b8015610dda5780601f10610daf57610100808354040283529160200191610dda565b820191906000526020600020905b815481529060010190602001808311610dbd57829003601f168201915b505050505081565b600054610100900460ff1615808015610e025750600054600160ff909116105b80610e1c5750303b158015610e1c575060005460ff166001145b610e7f5760405162461bcd60e51b815260206004820152602e60248201527f496e697469616c697a61626c653a20636f6e747261637420697320616c72656160448201526d191e481a5b9a5d1a585b1a5e995960921b60648201526084016106d5565b6000805460ff191660011790558015610ea2576000805461ff0019166101001790555b610ef66040518060400160405280600e81526020016d4672616d65642057697a6172647360901b8152506040518060400160405280600c81526020016b11949053515115d25690549160a21b8152506117ec565b610efe61181d565b610f0661184e565b610f0e611875565b610f1661184e565b610f1e61181d565b610f296000336116d5565b610f416000805160206138ae833981519152336116d5565b610f5960008051602061388e833981519152336116d5565b8015610a08576000805461ff0019169055604051600181527f7f26b83ff96e1f2b6a682f133852f6798a09c465da95921460cefb38474024989060200160405180910390a150565b6000805160206138ae833981519152610fb9816116cb565b610a086118a4565b60606000610fce83610cce565b90506000816001600160401b03811115610fea57610fea612c81565b604051908082528060200260200182016040528015611013578160200160208202803683370190505b50905060005b8281101561105a5761102b85826107d3565b82828151811061103d5761103d6132b0565b602090810291909101015280611052816132dc565b915050611019565b509392505050565b6000805160206138ae83398151915261107a816116cb565b60008351116110c25760405162461bcd60e51b81526020600482015260146024820152734163636f756e747320617272617920656d70747960601b60448201526064016106d5565b815183511461110b5760405162461bcd60e51b8152602060048201526015602482015274082e4e4c2f240d8cadccee8d040dad2e6dac2e8c6d605b1b60448201526064016106d5565b60005b8351811015611166576111548585838151811061112d5761112d6132b0565b6020026020010151858481518110611147576111476132b0565b602002602001015161155a565b8061115e816132dc565b91505061110e565b5050505050565b60008281526101916020526040812061118690836118e2565b9392505050565b600091825261015f602090815260408084206001600160a01b0393909316845291905290205460ff1690565b6060606680546105b790613229565b6108e33383836118ee565b6000805160206138ae8339815191526111eb816116cb565b610776838361171b565b6111ff33836114db565b61121b5760405162461bcd60e51b81526004016106d590613263565b6109e2848484846119bc565b6060600061123460995490565b90506000816001600160401b0381111561125057611250612c81565b604051908082528060200260200182016040528015611279578160200160208202803683370190505b50905060005b82811015610cc75761129081610b23565b8282815181106112a2576112a26132b0565b6020908102919091010152806112b7816132dc565b91505061127f565b606060006112cc836119ef565b6040516020016112dc91906132f5565b604051602081830303815290604052905060006112f884610bb6565b90506000611305856119ef565b83611318846001600160a01b0316611a81565b60405160200161132a93929190613353565b604051602081830303815290604052905060008160405160200161134e9190613492565b604051602081830303815290604052905061136881611a97565b60405160200161137891906134c6565b604051602081830303815290604052945050505050919050565b6000818152610191602052604081206105a290611be9565b600082815261015f60205260409020600101546113c6816116cb565b61077683836116f8565b60005b81518110156109e25761140084848484815181106113f3576113f36132b0565b602002602001015161077b565b8061140a816132dc565b9150506113d3565b60006105a282611bf3565b61142681611c18565b610a085760405162461bcd60e51b8152602060048201526018602482015277115490cdcc8c4e881a5b9d985b1a59081d1bdad95b88125160421b60448201526064016106d5565b600081815260696020526040902080546001600160a01b0319166001600160a01b03841690811790915581906114a282610bb6565b6001600160a01b03167f8c5be1e5ebec7d5bd14f71427d1e84f3dd0314c0f7b2291e5b200ac8c7c3b92560405160405180910390a45050565b6000806114e783610bb6565b9050806001600160a01b0316846001600160a01b0316148061152e57506001600160a01b038082166000908152606a602090815260408083209388168352929052205460ff165b806115525750836001600160a01b03166115478461063a565b6001600160a01b0316145b949350505050565b826001600160a01b031661156d82610bb6565b6001600160a01b0316146115935760405162461bcd60e51b81526004016106d59061350b565b6001600160a01b0382166115f55760405162461bcd60e51b8152602060048201526024808201527f4552433732313a207472616e7366657220746f20746865207a65726f206164646044820152637265737360e01b60648201526084016106d5565b6116028383836001611c23565b826001600160a01b031661161582610bb6565b6001600160a01b03161461163b5760405162461bcd60e51b81526004016106d59061350b565b600081815260696020908152604080832080546001600160a01b03199081169091556001600160a01b0387811680865260688552838620805460001901905590871680865283862080546001019055868652606790945282852080549092168417909155905184937fddf252ad1be2c89b69c2b068fc378daa952ba7f163c4a11628f55a4df523b3ef91a4505050565b610a088133611cdf565b6116df8282611d38565b6000828152610191602052604090206107769082611dbf565b6117028282611dd4565b6000828152610191602052604090206107769082611e3c565b600082815260fb602052604090206107768282613596565b61173b611e51565b61012d805460ff191690557f5db9ee0a495bf2e6ff9c91a7834c1ba4fdd244a5e8aa4e537bd38aeae4b073aa335b6040516001600160a01b03909116815260200160405180910390a1565b6108e3828260405180602001604052806000815250611e9b565b60006111868383611ece565b6117b581611f1d565b600081815260fb6020526040902080546117ce90613229565b159050610a0857600081815260fb60205260408120610a0891612ad6565b600054610100900460ff166118135760405162461bcd60e51b81526004016106d590613655565b6108e38282611fc0565b600054610100900460ff166118445760405162461bcd60e51b81526004016106d590613655565b61184c61184e565b565b600054610100900460ff1661184c5760405162461bcd60e51b81526004016106d590613655565b600054610100900460ff1661189c5760405162461bcd60e51b81526004016106d590613655565b61184c612000565b6118ac612034565b61012d805460ff191660011790557f62e78cea01bee320cd4e420270b5ea74000d11b0c9f74754ebdbfc544b05a2586117693390565b6000611186838361207b565b816001600160a01b0316836001600160a01b03160361194f5760405162461bcd60e51b815260206004820152601960248201527f4552433732313a20617070726f766520746f2063616c6c65720000000000000060448201526064016106d5565b6001600160a01b038381166000818152606a6020908152604080832094871680845294825291829020805460ff191686151590811790915591519182527f17307eab39ab6107e8899845ad3d59bd9653f200f220920489ca2b5937696c31910160405180910390a3505050565b6119c784848461155a565b6119d3848484846120a5565b6109e25760405162461bcd60e51b81526004016106d5906136a0565b606060006119fc836121a6565b60010190506000816001600160401b03811115611a1b57611a1b612c81565b6040519080825280601f01601f191660200182016040528015611a45576020820181803683370190505b5090508181016020015b600019016f181899199a1a9b1b9c1cb0b131b232b360811b600a86061a8153600a8504945084611a4f57509392505050565b60606105a26001600160a01b038316601461227e565b60608151600003611ab657505060408051602081019091526000815290565b600060405180606001604052806040815260200161384e6040913990506000600384516002611ae591906136f2565b611aef9190613705565b611afa906004613727565b6001600160401b03811115611b1157611b11612c81565b6040519080825280601f01601f191660200182016040528015611b3b576020820181803683370190505b509050600182016020820185865187015b80821015611ba7576003820191508151603f8160121c168501518453600184019350603f81600c1c168501518453600184019350603f8160061c168501518453600184019350603f8116850151845350600183019250611b4c565b5050600386510660018114611bc35760028114611bd657611bde565b603d6001830353603d6002830353611bde565b603d60018303535b509195945050505050565b60006105a2825490565b60006001600160e01b03198216635a05180f60e01b14806105a257506105a282612419565b60006105a28261243e565b611c2b612034565b83611c386102598261245d565b15611c7b5760405162461bcd60e51b8152602060048201526013602482015272426c61636b6c6973746564206164647265737360681b60448201526064016106d5565b83611c886102598261245d565b15611ccb5760405162461bcd60e51b8152602060048201526013602482015272426c61636b6c6973746564206164647265737360681b60448201526064016106d5565b611cd78686868661247f565b505050505050565b611ce9828261118d565b6108e357611cf681611a81565b611d0183602061227e565b604051602001611d1292919061373e565b60408051601f198184030181529082905262461bcd60e51b82526106d591600401612ba7565b611d42828261118d565b6108e357600082815261015f602090815260408083206001600160a01b03851684529091529020805460ff19166001179055611d7b3390565b6001600160a01b0316816001600160a01b0316837f2f8788117e7eff1d82e926ec794901d17c78024a50270940304540a733656f0d60405160405180910390a45050565b6000611186836001600160a01b038416611ece565b611dde828261118d565b156108e357600082815261015f602090815260408083206001600160a01b0385168085529252808320805460ff1916905551339285917ff6391f5c32d9c69d2a47ea670b442974b53935d1edc7fd64eb21e047a839171b9190a45050565b6000611186836001600160a01b03841661248b565b61012d5460ff1661184c5760405162461bcd60e51b815260206004820152601460248201527314185d5cd8589b194e881b9bdd081c185d5cd95960621b60448201526064016106d5565b611ea5838361257e565b611eb260008484846120a5565b6107765760405162461bcd60e51b81526004016106d5906136a0565b6000818152600183016020526040812054611f15575081546001818101845560008481526020808220909301849055845484825282860190935260409020919091556105a2565b5060006105a2565b6000611f2882610bb6565b9050611f38816000846001611c23565b611f4182610bb6565b600083815260696020908152604080832080546001600160a01b03199081169091556001600160a01b0385168085526068845282852080546000190190558785526067909352818420805490911690555192935084927fddf252ad1be2c89b69c2b068fc378daa952ba7f163c4a11628f55a4df523b3ef908390a45050565b600054610100900460ff16611fe75760405162461bcd60e51b81526004016106d590613655565b6065611ff38382613596565b5060666107768282613596565b600054610100900460ff166120275760405162461bcd60e51b81526004016106d590613655565b61012d805460ff19169055565b61012d5460ff161561184c5760405162461bcd60e51b815260206004820152601060248201526f14185d5cd8589b194e881c185d5cd95960821b60448201526064016106d5565b6000826000018281548110612092576120926132b0565b9060005260206000200154905092915050565b60006001600160a01b0384163b1561219b57604051630a85bd0160e11b81526001600160a01b0385169063150b7a02906120e99033908990889088906004016137b3565b6020604051808303816000875af1925050508015612124575060408051601f3d908101601f19168201909252612121918101906137f0565b60015b612181573d808015612152576040519150601f19603f3d011682016040523d82523d6000602084013e612157565b606091505b5080516000036121795760405162461bcd60e51b81526004016106d5906136a0565b805181602001fd5b6001600160e01b031916630a85bd0160e11b149050611552565b506001949350505050565b60008072184f03e93ff9f4daa797ed6e38ed64bf6a1f0160401b83106121e55772184f03e93ff9f4daa797ed6e38ed64bf6a1f0160401b830492506040015b6d04ee2d6d415b85acef81000000008310612211576d04ee2d6d415b85acef8100000000830492506020015b662386f26fc10000831061222f57662386f26fc10000830492506010015b6305f5e1008310612247576305f5e100830492506008015b612710831061225b57612710830492506004015b6064831061226d576064830492506002015b600a83106105a25760010192915050565b6060600061228d836002613727565b6122989060026136f2565b6001600160401b038111156122af576122af612c81565b6040519080825280601f01601f1916602001820160405280156122d9576020820181803683370190505b509050600360fc1b816000815181106122f4576122f46132b0565b60200101906001600160f81b031916908160001a905350600f60fb1b81600181518110612323576123236132b0565b60200101906001600160f81b031916908160001a9053506000612347846002613727565b6123529060016136f2565b90505b60018111156123ca576f181899199a1a9b1b9c1cb0b131b232b360811b85600f1660108110612386576123866132b0565b1a60f81b82828151811061239c5761239c6132b0565b60200101906001600160f81b031916908160001a90535060049490941c936123c38161380d565b9050612355565b5083156111865760405162461bcd60e51b815260206004820181905260248201527f537472696e67733a20686578206c656e67746820696e73756666696369656e7460448201526064016106d5565b60006001600160e01b03198216637965db0b60e01b14806105a257506105a2826126f9565b6000818152606760205260408120546001600160a01b031615156105a2565b6001600160a01b03811660009081526001830160205260408120541515611186565b6109e284848484612704565b600081815260018301602052604081205480156125745760006124af600183613824565b85549091506000906124c390600190613824565b90508181146125285760008660000182815481106124e3576124e36132b0565b9060005260206000200154905080876000018481548110612506576125066132b0565b6000918252602080832090910192909255918252600188019052604090208390555b855486908061253957612539613837565b6001900381819060005260206000200160009055905585600101600086815260200190815260200160002060009055600193505050506105a2565b60009150506105a2565b6001600160a01b0382166125d45760405162461bcd60e51b815260206004820181905260248201527f4552433732313a206d696e7420746f20746865207a65726f206164647265737360448201526064016106d5565b6125dd81611c18565b1561262a5760405162461bcd60e51b815260206004820152601c60248201527f4552433732313a20746f6b656e20616c7265616479206d696e7465640000000060448201526064016106d5565b612638600083836001611c23565b61264181611c18565b1561268e5760405162461bcd60e51b815260206004820152601c60248201527f4552433732313a20746f6b656e20616c7265616479206d696e7465640000000060448201526064016106d5565b6001600160a01b038216600081815260686020908152604080832080546001019055848352606790915280822080546001600160a01b0319168417905551839291907fddf252ad1be2c89b69c2b068fc378daa952ba7f163c4a11628f55a4df523b3ef908290a45050565b60006105a282612710565b6109e284848484612735565b60006001600160e01b0319821663780e9d6360e01b14806105a257506105a28261286e565b612741848484846128be565b60018111156127b05760405162461bcd60e51b815260206004820152603560248201527f455243373231456e756d657261626c653a20636f6e7365637574697665207472604482015274185b9cd9995c9cc81b9bdd081cdd5c1c1bdc9d1959605a1b60648201526084016106d5565b816001600160a01b03851661280c5761280781609980546000838152609a60205260408120829055600182018355919091527f72a152ddfb8e864297c917af52ea6c1c68aead0fee1a62673fcc7e0c94979d000155565b61282f565b836001600160a01b0316856001600160a01b03161461282f5761282f8582612946565b6001600160a01b03841661284b57612846816129e3565b611166565b846001600160a01b0316846001600160a01b031614611166576111668482612a92565b60006001600160e01b031982166380ac58cd60e01b148061289f57506001600160e01b03198216635b5e139f60e01b145b806105a257506301ffc9a760e01b6001600160e01b03198316146105a2565b60018111156109e2576001600160a01b03841615612904576001600160a01b038416600090815260686020526040812080548392906128fe908490613824565b90915550505b6001600160a01b038316156109e2576001600160a01b0383166000908152606860205260408120805483929061293b9084906136f2565b909155505050505050565b6000600161295384610cce565b61295d9190613824565b6000838152609860205260409020549091508082146129b0576001600160a01b03841660009081526097602090815260408083208584528252808320548484528184208190558352609890915290208190555b5060009182526098602090815260408084208490556001600160a01b039094168352609781528383209183525290812055565b6099546000906129f590600190613824565b6000838152609a602052604081205460998054939450909284908110612a1d57612a1d6132b0565b906000526020600020015490508060998381548110612a3e57612a3e6132b0565b6000918252602080832090910192909255828152609a90915260408082208490558582528120556099805480612a7657612a76613837565b6001900381819060005260206000200160009055905550505050565b6000612a9d83610cce565b6001600160a01b039093166000908152609760209081526040808320868452825280832085905593825260989052919091209190915550565b508054612ae290613229565b6000825580601f10612af2575050565b601f016020900490600052602060002090810190610a0891905b80821115612b205760008155600101612b0c565b5090565b6001600160e01b031981168114610a0857600080fd5b600060208284031215612b4c57600080fd5b813561118681612b24565b60005b83811015612b72578181015183820152602001612b5a565b50506000910152565b60008151808452612b93816020860160208601612b57565b601f01601f19169290920160200192915050565b6020815260006111866020830184612b7b565b600060208284031215612bcc57600080fd5b5035919050565b80356001600160a01b0381168114612bea57600080fd5b919050565b60008060408385031215612c0257600080fd5b612c0b83612bd3565b946020939093013593505050565b600080600060608486031215612c2e57600080fd5b612c3784612bd3565b9250612c4560208501612bd3565b9150604084013590509250925092565b60008060408385031215612c6857600080fd5b82359150612c7860208401612bd3565b90509250929050565b634e487b7160e01b600052604160045260246000fd5b604051601f8201601f191681016001600160401b0381118282101715612cbf57612cbf612c81565b604052919050565b60006001600160401b03821115612ce057612ce0612c81565b5060051b60200190565b600082601f830112612cfb57600080fd5b81356020612d10612d0b83612cc7565b612c97565b82815260059290921b84018101918181019086841115612d2f57600080fd5b8286015b84811015612d4a5780358352918301918301612d33565b509695505050505050565b600082601f830112612d6657600080fd5b81356001600160401b03811115612d7f57612d7f612c81565b612d92601f8201601f1916602001612c97565b818152846020838601011115612da757600080fd5b816020850160208301376000918101602001919091529392505050565b60008060408385031215612dd757600080fd5b82356001600160401b0380821115612dee57600080fd5b612dfa86838701612cea565b9350602091508185013581811115612e1157600080fd5b8501601f81018713612e2257600080fd5b8035612e30612d0b82612cc7565b81815260059190911b82018401908481019089831115612e4f57600080fd5b8584015b83811015612e8757803586811115612e6b5760008081fd5b612e798c8983890101612d55565b845250918601918601612e53565b508096505050505050509250929050565b60008060408385031215612eab57600080fd5b612eb483612bd3565b915060208301356001600160401b03811115612ecf57600080fd5b612edb85828601612cea565b9150509250929050565b600060208284031215612ef757600080fd5b81356001600160401b03811115612f0d57600080fd5b61155284828501612cea565b6000602080830181845280855180835260408601915060408160051b870101925083870160005b82811015612f6e57603f19888603018452612f5c858351612b7b565b94509285019290850190600101612f40565b5092979650505050505050565b600060208284031215612f8d57600080fd5b61118682612bd3565b6020808252825182820181905260009190848201906040850190845b81811015612fce57835183529284019291840191600101612fb2565b50909695505050505050565b600080600060608486031215612fef57600080fd5b612ff884612bd3565b92506020808501356001600160401b038082111561301557600080fd5b818701915087601f83011261302957600080fd5b8135613037612d0b82612cc7565b81815260059190911b8301840190848101908a83111561305657600080fd5b938501935b8285101561307b5761306c85612bd3565b8252938501939085019061305b565b96505050604087013592508083111561309357600080fd5b50506130a186828701612cea565b9150509250925092565b600080604083850312156130be57600080fd5b50508035926020909101359150565b600080604083850312156130e057600080fd5b6130e983612bd3565b9150602083013580151581146130fe57600080fd5b809150509250929050565b6000806040838503121561311c57600080fd5b8235915060208301356001600160401b0381111561313957600080fd5b612edb85828601612d55565b6000806000806080858703121561315b57600080fd5b61316485612bd3565b935061317260208601612bd3565b92506040850135915060608501356001600160401b0381111561319457600080fd5b6131a087828801612d55565b91505092959194509250565b600080604083850312156131bf57600080fd5b6131c883612bd3565b9150612c7860208401612bd3565b6000806000606084860312156131eb57600080fd5b6131f484612bd3565b925061320260208501612bd3565b915060408401356001600160401b0381111561321d57600080fd5b6130a186828701612cea565b600181811c9082168061323d57607f821691505b60208210810361325d57634e487b7160e01b600052602260045260246000fd5b50919050565b6020808252602d908201527f4552433732313a2063616c6c6572206973206e6f7420746f6b656e206f776e6560408201526c1c881bdc88185c1c1c9bdd9959609a1b606082015260800190565b634e487b7160e01b600052603260045260246000fd5b634e487b7160e01b600052601160045260246000fd5b6000600182016132ee576132ee6132c6565b5060010190565b7f68747470733a2f2f696d616765732e636f736d6963756e6976657273652e696f81526f2f6672616d65642d77697a617264732f60801b602082015260008251613346816030850160208701612b57565b9190910160300192915050565b7f226e616d65223a224672616d65642057697a617264202300000000000000000081526000845161338b816017850160208901612b57565b61088b60f21b60179184019182018190527f226465736372697074696f6e223a224672616d65642070696374757265206f666019830152740818480c910810dbdcdb5a58c815da5e985c99088b605a1b6039830152681134b6b0b3b2911d1160b91b604e8301528551613405816057850160208a01612b57565b6057920191820152681137bbb732b9111d1160b91b60598201528351613432816062840160208801612b57565b61348761346b61344f60628486010161088b60f21b815260020190565b6f089d1e5c19488e88915490cdcc8c488b60821b815260100190565b6f2261747472696275746573223a205b5d60801b815260100190565b979650505050505050565b607b60f81b8152600082516134ae816001850160208701612b57565b607d60f81b6001939091019283015250600201919050565b7f646174613a6170706c69636174696f6e2f6a736f6e3b6261736536342c0000008152600082516134fe81601d850160208701612b57565b91909101601d0192915050565b60208082526025908201527f4552433732313a207472616e736665722066726f6d20696e636f72726563742060408201526437bbb732b960d91b606082015260800190565b601f82111561077657600081815260208120601f850160051c810160208610156135775750805b601f850160051c820191505b81811015611cd757828155600101613583565b81516001600160401b038111156135af576135af612c81565b6135c3816135bd8454613229565b84613550565b602080601f8311600181146135f857600084156135e05750858301515b600019600386901b1c1916600185901b178555611cd7565b600085815260208120601f198616915b8281101561362757888601518255948401946001909101908401613608565b50858210156136455787850151600019600388901b60f8161c191681555b5050505050600190811b01905550565b6020808252602b908201527f496e697469616c697a61626c653a20636f6e7472616374206973206e6f74206960408201526a6e697469616c697a696e6760a81b606082015260800190565b60208082526032908201527f4552433732313a207472616e7366657220746f206e6f6e20455243373231526560408201527131b2b4bb32b91034b6b83632b6b2b73a32b960711b606082015260800190565b808201808211156105a2576105a26132c6565b60008261372257634e487b7160e01b600052601260045260246000fd5b500490565b80820281158282048414176105a2576105a26132c6565b7f416363657373436f6e74726f6c3a206163636f756e7420000000000000000000815260008351613776816017850160208801612b57565b7001034b99036b4b9b9b4b733903937b6329607d1b60179184019182015283516137a7816028840160208801612b57565b01602801949350505050565b6001600160a01b03858116825284166020820152604081018390526080606082018190526000906137e690830184612b7b565b9695505050505050565b60006020828403121561380257600080fd5b815161118681612b24565b60008161381c5761381c6132c6565b506000190190565b818103818111156105a2576105a26132c6565b634e487b7160e01b600052603160045260246000fdfe4142434445464748494a4b4c4d4e4f505152535455565758595a6162636465666768696a6b6c6d6e6f707172737475767778797a303132333435363738392b2f9f2df0fed2c77648de5860a4cc508cd0818c85b8b8a1ab4ceeef8d981c8956a6a49807205ce4d355092ef5a8a18f56e8913cf4a201fbe287825b095693c21775a264697066735822122015884664fc5b7b4daf514a14e7dd8450cdd26d6ccdd6d0577c691069d73bbf0d64736f6c63430008110033",
  "linkReferences": {},
  "deployedLinkReferences": {}
}