{
  "_format": "hh-sol-artifact-1",
  "contractName": "ProfessionStakingHarmonyUpgradeable",
  "sourceName": "contracts/upgradeable/npc/ProfessionStakingHarmonyUpgradeable.sol",
  "abi": [
    {
      "inputs": [],
      "stateMutability": "nonpayable",
      "type": "constructor"
    },
    {
      "anonymous": false,
      "inputs": [
        {
          "indexed": true,
          "internalType": "address",
          "name": "from",
          "type": "address"
        },
        {
          "indexed": false,
          "internalType": "uint256",
          "name": "stakedCount",
          "type": "uint256"
        },
        {
          "indexed": false,
          "internalType": "uint256",
          "name": "amount",
          "type": "uint256"
        }
      ],
      "name": "ClaimBlocked",
      "type": "event"
    },
    {
      "anonymous": false,
      "inputs": [
        {
          "indexed": true,
          "internalType": "address",
          "name": "by",
          "type": "address"
        },
        {
          "indexed": true,
          "internalType": "address",
          "name": "token",
          "type": "address"
        },
        {
          "indexed": false,
          "internalType": "uint256",
          "name": "amount",
          "type": "uint256"
        }
      ],
      "name": "Claimed",
      "type": "event"
    },
    {
      "anonymous": false,
      "inputs": [
        {
          "indexed": false,
          "internalType": "uint8",
          "name": "version",
          "type": "uint8"
        }
      ],
      "name": "Initialized",
      "type": "event"
    },
    {
      "anonymous": false,
      "inputs": [
        {
          "indexed": false,
          "internalType": "address",
          "name": "account",
          "type": "address"
        }
      ],
      "name": "Paused",
      "type": "event"
    },
    {
      "anonymous": false,
      "inputs": [
        {
          "indexed": true,
          "internalType": "address",
          "name": "from",
          "type": "address"
        },
        {
          "indexed": true,
          "internalType": "address",
          "name": "token",
          "type": "address"
        },
        {
          "indexed": false,
          "internalType": "uint256",
          "name": "amount",
          "type": "uint256"
        }
      ],
      "name": "PoolRewardsDeposited",
      "type": "event"
    },
    {
      "anonymous": false,
      "inputs": [
        {
          "indexed": true,
          "internalType": "address",
          "name": "by",
          "type": "address"
        },
        {
          "indexed": true,
          "internalType": "address",
          "name": "to",
          "type": "address"
        },
        {
          "indexed": true,
          "internalType": "address",
          "name": "token",
          "type": "address"
        },
        {
          "indexed": false,
          "internalType": "uint256",
          "name": "amount",
          "type": "uint256"
        }
      ],
      "name": "PoolRewardsWithdrawn",
      "type": "event"
    },
    {
      "anonymous": false,
      "inputs": [
        {
          "indexed": true,
          "internalType": "bytes32",
          "name": "role",
          "type": "bytes32"
        },
        {
          "indexed": true,
          "internalType": "bytes32",
          "name": "previousAdminRole",
          "type": "bytes32"
        },
        {
          "indexed": true,
          "internalType": "bytes32",
          "name": "newAdminRole",
          "type": "bytes32"
        }
      ],
      "name": "RoleAdminChanged",
      "type": "event"
    },
    {
      "anonymous": false,
      "inputs": [
        {
          "indexed": true,
          "internalType": "bytes32",
          "name": "role",
          "type": "bytes32"
        },
        {
          "indexed": true,
          "internalType": "address",
          "name": "account",
          "type": "address"
        },
        {
          "indexed": true,
          "internalType": "address",
          "name": "sender",
          "type": "address"
        }
      ],
      "name": "RoleGranted",
      "type": "event"
    },
    {
      "anonymous": false,
      "inputs": [
        {
          "indexed": true,
          "internalType": "bytes32",
          "name": "role",
          "type": "bytes32"
        },
        {
          "indexed": true,
          "internalType": "address",
          "name": "account",
          "type": "address"
        },
        {
          "indexed": true,
          "internalType": "address",
          "name": "sender",
          "type": "address"
        }
      ],
      "name": "RoleRevoked",
      "type": "event"
    },
    {
      "anonymous": false,
      "inputs": [
        {
          "indexed": true,
          "internalType": "address",
          "name": "from",
          "type": "address"
        },
        {
          "indexed": true,
          "internalType": "address",
          "name": "nftAddress",
          "type": "address"
        },
        {
          "indexed": false,
          "internalType": "uint256",
          "name": "tokenId",
          "type": "uint256"
        }
      ],
      "name": "Staked",
      "type": "event"
    },
    {
      "anonymous": false,
      "inputs": [
        {
          "indexed": true,
          "internalType": "address",
          "name": "nftAddress",
          "type": "address"
        },
        {
          "indexed": false,
          "internalType": "address",
          "name": "rewardToken",
          "type": "address"
        },
        {
          "indexed": false,
          "internalType": "uint256",
          "name": "startTime",
          "type": "uint256"
        }
      ],
      "name": "StakingConfigCreated",
      "type": "event"
    },
    {
      "anonymous": false,
      "inputs": [
        {
          "indexed": true,
          "internalType": "address",
          "name": "nftAddress",
          "type": "address"
        }
      ],
      "name": "StakingConfigDeleted",
      "type": "event"
    },
    {
      "anonymous": false,
      "inputs": [
        {
          "indexed": true,
          "internalType": "address",
          "name": "nftAddress",
          "type": "address"
        },
        {
          "indexed": false,
          "internalType": "address",
          "name": "rewardToken",
          "type": "address"
        },
        {
          "indexed": false,
          "internalType": "uint256",
          "name": "startTime",
          "type": "uint256"
        }
      ],
      "name": "StakingConfigUpdated",
      "type": "event"
    },
    {
      "anonymous": false,
      "inputs": [
        {
          "indexed": true,
          "internalType": "address",
          "name": "by",
          "type": "address"
        },
        {
          "indexed": true,
          "internalType": "address",
          "name": "nftAddress",
          "type": "address"
        },
        {
          "indexed": false,
          "internalType": "uint256",
          "name": "tokenId",
          "type": "uint256"
        }
      ],
      "name": "StakingUnlocked",
      "type": "event"
    },
    {
      "anonymous": false,
      "inputs": [
        {
          "indexed": true,
          "internalType": "address",
          "name": "by",
          "type": "address"
        },
        {
          "indexed": true,
          "internalType": "address",
          "name": "nftAddress",
          "type": "address"
        },
        {
          "indexed": false,
          "internalType": "uint256",
          "name": "tokenId",
          "type": "uint256"
        },
        {
          "indexed": false,
          "internalType": "uint256",
          "name": "treeId",
          "type": "uint256"
        },
        {
          "indexed": false,
          "internalType": "uint256",
          "name": "skillId",
          "type": "uint256"
        },
        {
          "indexed": false,
          "internalType": "uint256",
          "name": "canceledAt",
          "type": "uint256"
        }
      ],
      "name": "TrainingCanceled",
      "type": "event"
    },
    {
      "anonymous": false,
      "inputs": [
        {
          "indexed": true,
          "internalType": "address",
          "name": "by",
          "type": "address"
        },
        {
          "indexed": true,
          "internalType": "address",
          "name": "nftAddress",
          "type": "address"
        },
        {
          "indexed": false,
          "internalType": "uint256",
          "name": "tokenId",
          "type": "uint256"
        },
        {
          "indexed": false,
          "internalType": "uint256",
          "name": "treeId",
          "type": "uint256"
        },
        {
          "indexed": false,
          "internalType": "uint256",
          "name": "skillId",
          "type": "uint256"
        },
        {
          "indexed": false,
          "internalType": "uint256",
          "name": "level",
          "type": "uint256"
        }
      ],
      "name": "TrainingFinished",
      "type": "event"
    },
    {
      "anonymous": false,
      "inputs": [
        {
          "indexed": true,
          "internalType": "address",
          "name": "by",
          "type": "address"
        },
        {
          "indexed": true,
          "internalType": "address",
          "name": "nftAddress",
          "type": "address"
        },
        {
          "indexed": false,
          "internalType": "uint256",
          "name": "tokenId",
          "type": "uint256"
        },
        {
          "indexed": false,
          "internalType": "uint256",
          "name": "treeId",
          "type": "uint256"
        },
        {
          "indexed": false,
          "internalType": "uint256",
          "name": "skillId",
          "type": "uint256"
        },
        {
          "indexed": false,
          "internalType": "uint256",
          "name": "level",
          "type": "uint256"
        },
        {
          "indexed": false,
          "internalType": "uint256",
          "name": "startedAt",
          "type": "uint256"
        },
        {
          "indexed": false,
          "internalType": "uint256",
          "name": "completeAt",
          "type": "uint256"
        }
      ],
      "name": "TrainingStarted",
      "type": "event"
    },
    {
      "anonymous": false,
      "inputs": [
        {
          "indexed": false,
          "internalType": "address",
          "name": "account",
          "type": "address"
        }
      ],
      "name": "Unpaused",
      "type": "event"
    },
    {
      "anonymous": false,
      "inputs": [
        {
          "indexed": true,
          "internalType": "address",
          "name": "from",
          "type": "address"
        },
        {
          "indexed": true,
          "internalType": "address",
          "name": "nftAddress",
          "type": "address"
        },
        {
          "indexed": false,
          "internalType": "uint256",
          "name": "tokenId",
          "type": "uint256"
        }
      ],
      "name": "Unstaked",
      "type": "event"
    },
    {
      "inputs": [],
      "name": "DEFAULT_ADMIN_ROLE",
      "outputs": [
        {
          "internalType": "bytes32",
          "name": "",
          "type": "bytes32"
        }
      ],
      "stateMutability": "view",
      "type": "function"
    },
    {
      "inputs": [],
      "name": "GAME_STORAGE",
      "outputs": [
        {
          "internalType": "contract IGameStorageUpgradeable",
          "name": "",
          "type": "address"
        }
      ],
      "stateMutability": "view",
      "type": "function"
    },
    {
      "inputs": [],
      "name": "LAST_REWARD_TIME",
      "outputs": [
        {
          "internalType": "uint256",
          "name": "",
          "type": "uint256"
        }
      ],
      "stateMutability": "view",
      "type": "function"
    },
    {
      "inputs": [],
      "name": "PAUSER_ROLE",
      "outputs": [
        {
          "internalType": "bytes32",
          "name": "",
          "type": "bytes32"
        }
      ],
      "stateMutability": "view",
      "type": "function"
    },
    {
      "inputs": [],
      "name": "UPDATER_ROLE",
      "outputs": [
        {
          "internalType": "bytes32",
          "name": "",
          "type": "bytes32"
        }
      ],
      "stateMutability": "view",
      "type": "function"
    },
    {
      "inputs": [
        {
          "internalType": "address[]",
          "name": "addresses",
          "type": "address[]"
        },
        {
          "internalType": "uint256[]",
          "name": "indexes",
          "type": "uint256[]"
        },
        {
          "internalType": "address[]",
          "name": "nftAddresses",
          "type": "address[]"
        },
        {
          "internalType": "uint256[]",
          "name": "tokenIds",
          "type": "uint256[]"
        },
        {
          "internalType": "uint256[]",
          "name": "rewardFrom",
          "type": "uint256[]"
        }
      ],
      "name": "adminBatchUpdateNftData",
      "outputs": [],
      "stateMutability": "nonpayable",
      "type": "function"
    },
    {
      "inputs": [
        {
          "internalType": "address",
          "name": "_address",
          "type": "address"
        },
        {
          "internalType": "uint256",
          "name": "index",
          "type": "uint256"
        },
        {
          "internalType": "address",
          "name": "nftAddress",
          "type": "address"
        },
        {
          "internalType": "uint256",
          "name": "tokenId",
          "type": "uint256"
        },
        {
          "internalType": "uint256",
          "name": "rewardFrom",
          "type": "uint256"
        }
      ],
      "name": "adminUpdateNftData",
      "outputs": [],
      "stateMutability": "nonpayable",
      "type": "function"
    },
    {
      "inputs": [
        {
          "internalType": "address[]",
          "name": "nftAddresses",
          "type": "address[]"
        },
        {
          "internalType": "uint256[]",
          "name": "tokenIds",
          "type": "uint256[]"
        }
      ],
      "name": "batchCancelTraining",
      "outputs": [],
      "stateMutability": "nonpayable",
      "type": "function"
    },
    {
      "inputs": [
        {
          "internalType": "address[]",
          "name": "addresses",
          "type": "address[]"
        }
      ],
      "name": "batchClaimAndUnstakeForUser",
      "outputs": [],
      "stateMutability": "nonpayable",
      "type": "function"
    },
    {
      "inputs": [
        {
          "internalType": "address[]",
          "name": "nftAddresses",
          "type": "address[]"
        },
        {
          "internalType": "uint256[]",
          "name": "tokenIds",
          "type": "uint256[]"
        }
      ],
      "name": "batchEnableStaking",
      "outputs": [],
      "stateMutability": "nonpayable",
      "type": "function"
    },
    {
      "inputs": [
        {
          "internalType": "address[]",
          "name": "nftAddresses",
          "type": "address[]"
        },
        {
          "internalType": "uint256[]",
          "name": "tokenIds",
          "type": "uint256[]"
        }
      ],
      "name": "batchFinishTraining",
      "outputs": [],
      "stateMutability": "nonpayable",
      "type": "function"
    },
    {
      "inputs": [
        {
          "internalType": "uint256[]",
          "name": "level",
          "type": "uint256[]"
        },
        {
          "internalType": "uint256[]",
          "name": "cost",
          "type": "uint256[]"
        },
        {
          "internalType": "uint256[]",
          "name": "time",
          "type": "uint256[]"
        }
      ],
      "name": "batchSetTrainingCosts",
      "outputs": [],
      "stateMutability": "nonpayable",
      "type": "function"
    },
    {
      "inputs": [
        {
          "internalType": "address[]",
          "name": "nftAddresses",
          "type": "address[]"
        },
        {
          "internalType": "uint256[]",
          "name": "tokenIds",
          "type": "uint256[]"
        }
      ],
      "name": "batchStake",
      "outputs": [],
      "stateMutability": "nonpayable",
      "type": "function"
    },
    {
      "inputs": [
        {
          "internalType": "address[]",
          "name": "nftAddresses",
          "type": "address[]"
        },
        {
          "internalType": "uint256[]",
          "name": "tokenIds",
          "type": "uint256[]"
        },
        {
          "internalType": "uint256[]",
          "name": "treeIds",
          "type": "uint256[]"
        },
        {
          "internalType": "uint256[]",
          "name": "skillIds",
          "type": "uint256[]"
        }
      ],
      "name": "batchStartTraining",
      "outputs": [],
      "stateMutability": "nonpayable",
      "type": "function"
    },
    {
      "inputs": [
        {
          "internalType": "address[]",
          "name": "nftAddresses",
          "type": "address[]"
        },
        {
          "internalType": "uint256[]",
          "name": "tokenIds",
          "type": "uint256[]"
        }
      ],
      "name": "batchUnstake",
      "outputs": [],
      "stateMutability": "nonpayable",
      "type": "function"
    },
    {
      "inputs": [
        {
          "internalType": "address",
          "name": "nftAddress",
          "type": "address"
        },
        {
          "internalType": "uint256",
          "name": "tokenId",
          "type": "uint256"
        }
      ],
      "name": "cancelTraining",
      "outputs": [],
      "stateMutability": "nonpayable",
      "type": "function"
    },
    {
      "inputs": [],
      "name": "claim",
      "outputs": [],
      "stateMutability": "nonpayable",
      "type": "function"
    },
    {
      "inputs": [
        {
          "internalType": "address",
          "name": "_address",
          "type": "address"
        }
      ],
      "name": "claimAndUnstakeForUser",
      "outputs": [],
      "stateMutability": "nonpayable",
      "type": "function"
    },
    {
      "inputs": [
        {
          "internalType": "address",
          "name": "nftAddress",
          "type": "address"
        },
        {
          "internalType": "address",
          "name": "rewardToken",
          "type": "address"
        },
        {
          "internalType": "uint256",
          "name": "startTime",
          "type": "uint256"
        },
        {
          "internalType": "uint256",
          "name": "maxPointsPerSkill",
          "type": "uint256"
        },
        {
          "internalType": "uint256[]",
          "name": "treeIds",
          "type": "uint256[]"
        },
        {
          "internalType": "uint256[]",
          "name": "skillIds",
          "type": "uint256[]"
        }
      ],
      "name": "createStakingConfig",
      "outputs": [],
      "stateMutability": "nonpayable",
      "type": "function"
    },
    {
      "inputs": [
        {
          "internalType": "address",
          "name": "nftAddress",
          "type": "address"
        }
      ],
      "name": "deleteStakingConfig",
      "outputs": [],
      "stateMutability": "nonpayable",
      "type": "function"
    },
    {
      "inputs": [
        {
          "internalType": "address",
          "name": "nftAddress",
          "type": "address"
        },
        {
          "internalType": "uint256",
          "name": "tokenId",
          "type": "uint256"
        }
      ],
      "name": "enableStaking",
      "outputs": [],
      "stateMutability": "nonpayable",
      "type": "function"
    },
    {
      "inputs": [
        {
          "internalType": "address",
          "name": "nftAddress",
          "type": "address"
        },
        {
          "internalType": "uint256",
          "name": "tokenId",
          "type": "uint256"
        }
      ],
      "name": "finishTraining",
      "outputs": [],
      "stateMutability": "nonpayable",
      "type": "function"
    },
    {
      "inputs": [
        {
          "internalType": "address",
          "name": "_address",
          "type": "address"
        },
        {
          "internalType": "address",
          "name": "nftAddress",
          "type": "address"
        },
        {
          "internalType": "uint256",
          "name": "tokenId",
          "type": "uint256"
        }
      ],
      "name": "forceCancelTraining",
      "outputs": [],
      "stateMutability": "nonpayable",
      "type": "function"
    },
    {
      "inputs": [],
      "name": "getActiveTraining",
      "outputs": [
        {
          "components": [
            {
              "internalType": "address",
              "name": "_address",
              "type": "address"
            },
            {
              "internalType": "uint256",
              "name": "tokenId",
              "type": "uint256"
            },
            {
              "internalType": "uint256",
              "name": "level",
              "type": "uint256"
            },
            {
              "internalType": "uint256",
              "name": "treeId",
              "type": "uint256"
            },
            {
              "internalType": "uint256",
              "name": "skillId",
              "type": "uint256"
            },
            {
              "internalType": "uint256",
              "name": "startedAt",
              "type": "uint256"
            },
            {
              "internalType": "uint256",
              "name": "completeAt",
              "type": "uint256"
            }
          ],
          "internalType": "struct ProfessionStakingHarmonyUpgradeable.TrainingStatus[]",
          "name": "",
          "type": "tuple[]"
        }
      ],
      "stateMutability": "view",
      "type": "function"
    },
    {
      "inputs": [
        {
          "internalType": "address",
          "name": "_address",
          "type": "address"
        }
      ],
      "name": "getActiveTrainingOf",
      "outputs": [
        {
          "components": [
            {
              "internalType": "address",
              "name": "_address",
              "type": "address"
            },
            {
              "internalType": "uint256",
              "name": "tokenId",
              "type": "uint256"
            },
            {
              "internalType": "uint256",
              "name": "level",
              "type": "uint256"
            },
            {
              "internalType": "uint256",
              "name": "treeId",
              "type": "uint256"
            },
            {
              "internalType": "uint256",
              "name": "skillId",
              "type": "uint256"
            },
            {
              "internalType": "uint256",
              "name": "startedAt",
              "type": "uint256"
            },
            {
              "internalType": "uint256",
              "name": "completeAt",
              "type": "uint256"
            }
          ],
          "internalType": "struct ProfessionStakingHarmonyUpgradeable.TrainingStatus[]",
          "name": "",
          "type": "tuple[]"
        }
      ],
      "stateMutability": "view",
      "type": "function"
    },
    {
      "inputs": [],
      "name": "getAllParticipantData",
      "outputs": [
        {
          "internalType": "address[]",
          "name": "addresses",
          "type": "address[]"
        },
        {
          "components": [
            {
              "internalType": "address",
              "name": "_address",
              "type": "address"
            },
            {
              "internalType": "uint256",
              "name": "tokenId",
              "type": "uint256"
            },
            {
              "internalType": "uint256",
              "name": "rewardFrom",
              "type": "uint256"
            }
          ],
          "internalType": "struct ProfessionStakingHarmonyUpgradeable.NFT[][]",
          "name": "nfts",
          "type": "tuple[][]"
        },
        {
          "internalType": "uint256[]",
          "name": "rewards",
          "type": "uint256[]"
        }
      ],
      "stateMutability": "view",
      "type": "function"
    },
    {
      "inputs": [
        {
          "internalType": "address",
          "name": "nftAddress",
          "type": "address"
        },
        {
          "internalType": "uint256",
          "name": "tokenId",
          "type": "uint256"
        }
      ],
      "name": "getAllowedSkillChoices",
      "outputs": [
        {
          "internalType": "uint256[]",
          "name": "",
          "type": "uint256[]"
        }
      ],
      "stateMutability": "view",
      "type": "function"
    },
    {
      "inputs": [
        {
          "internalType": "bytes32",
          "name": "role",
          "type": "bytes32"
        }
      ],
      "name": "getRoleAdmin",
      "outputs": [
        {
          "internalType": "bytes32",
          "name": "",
          "type": "bytes32"
        }
      ],
      "stateMutability": "view",
      "type": "function"
    },
    {
      "inputs": [],
      "name": "getStaked",
      "outputs": [
        {
          "components": [
            {
              "internalType": "address",
              "name": "_address",
              "type": "address"
            },
            {
              "internalType": "uint256",
              "name": "tokenId",
              "type": "uint256"
            },
            {
              "internalType": "uint256",
              "name": "rewardFrom",
              "type": "uint256"
            }
          ],
          "internalType": "struct ProfessionStakingHarmonyUpgradeable.NFT[]",
          "name": "",
          "type": "tuple[]"
        }
      ],
      "stateMutability": "view",
      "type": "function"
    },
    {
      "inputs": [
        {
          "internalType": "address",
          "name": "_address",
          "type": "address"
        }
      ],
      "name": "getStakedOf",
      "outputs": [
        {
          "components": [
            {
              "internalType": "address",
              "name": "_address",
              "type": "address"
            },
            {
              "internalType": "uint256",
              "name": "tokenId",
              "type": "uint256"
            },
            {
              "internalType": "uint256",
              "name": "rewardFrom",
              "type": "uint256"
            }
          ],
          "internalType": "struct ProfessionStakingHarmonyUpgradeable.NFT[]",
          "name": "",
          "type": "tuple[]"
        }
      ],
      "stateMutability": "view",
      "type": "function"
    },
    {
      "inputs": [
        {
          "internalType": "address",
          "name": "ntfAddress",
          "type": "address"
        },
        {
          "internalType": "uint256",
          "name": "tokenId",
          "type": "uint256"
        }
      ],
      "name": "getTotalProfessionSkillPoints",
      "outputs": [
        {
          "internalType": "uint256",
          "name": "",
          "type": "uint256"
        }
      ],
      "stateMutability": "view",
      "type": "function"
    },
    {
      "inputs": [
        {
          "internalType": "address",
          "name": "_address",
          "type": "address"
        },
        {
          "internalType": "address",
          "name": "nftAddress",
          "type": "address"
        },
        {
          "internalType": "uint256",
          "name": "tokenId",
          "type": "uint256"
        }
      ],
      "name": "getTrainingStatus",
      "outputs": [
        {
          "components": [
            {
              "internalType": "address",
              "name": "_address",
              "type": "address"
            },
            {
              "internalType": "uint256",
              "name": "tokenId",
              "type": "uint256"
            },
            {
              "internalType": "uint256",
              "name": "level",
              "type": "uint256"
            },
            {
              "internalType": "uint256",
              "name": "treeId",
              "type": "uint256"
            },
            {
              "internalType": "uint256",
              "name": "skillId",
              "type": "uint256"
            },
            {
              "internalType": "uint256",
              "name": "startedAt",
              "type": "uint256"
            },
            {
              "internalType": "uint256",
              "name": "completeAt",
              "type": "uint256"
            }
          ],
          "internalType": "struct ProfessionStakingHarmonyUpgradeable.TrainingStatus",
          "name": "",
          "type": "tuple"
        }
      ],
      "stateMutability": "view",
      "type": "function"
    },
    {
      "inputs": [
        {
          "internalType": "bytes32",
          "name": "role",
          "type": "bytes32"
        },
        {
          "internalType": "address",
          "name": "account",
          "type": "address"
        }
      ],
      "name": "grantRole",
      "outputs": [],
      "stateMutability": "nonpayable",
      "type": "function"
    },
    {
      "inputs": [
        {
          "internalType": "bytes32",
          "name": "role",
          "type": "bytes32"
        },
        {
          "internalType": "address",
          "name": "account",
          "type": "address"
        }
      ],
      "name": "hasRole",
      "outputs": [
        {
          "internalType": "bool",
          "name": "",
          "type": "bool"
        }
      ],
      "stateMutability": "view",
      "type": "function"
    },
    {
      "inputs": [],
      "name": "initialize",
      "outputs": [],
      "stateMutability": "nonpayable",
      "type": "function"
    },
    {
      "inputs": [
        {
          "internalType": "address",
          "name": "nftAddress",
          "type": "address"
        },
        {
          "internalType": "uint256",
          "name": "tokenId",
          "type": "uint256"
        }
      ],
      "name": "isStakingEnabled",
      "outputs": [
        {
          "internalType": "bool",
          "name": "",
          "type": "bool"
        }
      ],
      "stateMutability": "view",
      "type": "function"
    },
    {
      "inputs": [
        {
          "internalType": "address",
          "name": "_address",
          "type": "address"
        },
        {
          "internalType": "address",
          "name": "nftAddress",
          "type": "address"
        },
        {
          "internalType": "uint256",
          "name": "tokenId",
          "type": "uint256"
        },
        {
          "internalType": "uint256",
          "name": "skillId",
          "type": "uint256"
        }
      ],
      "name": "modifyActiveTrainingSkill",
      "outputs": [],
      "stateMutability": "nonpayable",
      "type": "function"
    },
    {
      "inputs": [
        {
          "internalType": "address",
          "name": "",
          "type": "address"
        },
        {
          "internalType": "address",
          "name": "",
          "type": "address"
        },
        {
          "internalType": "uint256",
          "name": "",
          "type": "uint256"
        },
        {
          "internalType": "bytes",
          "name": "",
          "type": "bytes"
        }
      ],
      "name": "onERC721Received",
      "outputs": [
        {
          "internalType": "bytes4",
          "name": "",
          "type": "bytes4"
        }
      ],
      "stateMutability": "pure",
      "type": "function"
    },
    {
      "inputs": [],
      "name": "pause",
      "outputs": [],
      "stateMutability": "nonpayable",
      "type": "function"
    },
    {
      "inputs": [],
      "name": "paused",
      "outputs": [
        {
          "internalType": "bool",
          "name": "",
          "type": "bool"
        }
      ],
      "stateMutability": "view",
      "type": "function"
    },
    {
      "inputs": [],
      "name": "pendingRewards",
      "outputs": [
        {
          "internalType": "uint256",
          "name": "",
          "type": "uint256"
        }
      ],
      "stateMutability": "view",
      "type": "function"
    },
    {
      "inputs": [
        {
          "internalType": "address",
          "name": "_address",
          "type": "address"
        }
      ],
      "name": "pendingRewardsOf",
      "outputs": [
        {
          "internalType": "uint256",
          "name": "",
          "type": "uint256"
        }
      ],
      "stateMutability": "view",
      "type": "function"
    },
    {
      "inputs": [
        {
          "internalType": "bytes32",
          "name": "role",
          "type": "bytes32"
        },
        {
          "internalType": "address",
          "name": "account",
          "type": "address"
        }
      ],
      "name": "renounceRole",
      "outputs": [],
      "stateMutability": "nonpayable",
      "type": "function"
    },
    {
      "inputs": [
        {
          "internalType": "bytes32",
          "name": "role",
          "type": "bytes32"
        },
        {
          "internalType": "address",
          "name": "account",
          "type": "address"
        }
      ],
      "name": "revokeRole",
      "outputs": [],
      "stateMutability": "nonpayable",
      "type": "function"
    },
    {
      "inputs": [
        {
          "internalType": "address",
          "name": "_address",
          "type": "address"
        }
      ],
      "name": "setGameStorage",
      "outputs": [],
      "stateMutability": "nonpayable",
      "type": "function"
    },
    {
      "inputs": [
        {
          "internalType": "uint256",
          "name": "time",
          "type": "uint256"
        }
      ],
      "name": "setLastRewardTime",
      "outputs": [],
      "stateMutability": "nonpayable",
      "type": "function"
    },
    {
      "inputs": [
        {
          "internalType": "address",
          "name": "nftAddress",
          "type": "address"
        },
        {
          "internalType": "uint256",
          "name": "treeId",
          "type": "uint256"
        },
        {
          "internalType": "uint256",
          "name": "skillId",
          "type": "uint256"
        }
      ],
      "name": "setSkillPointer",
      "outputs": [],
      "stateMutability": "nonpayable",
      "type": "function"
    },
    {
      "inputs": [
        {
          "internalType": "uint256",
          "name": "level",
          "type": "uint256"
        },
        {
          "internalType": "uint256",
          "name": "cost",
          "type": "uint256"
        },
        {
          "internalType": "uint256",
          "name": "time",
          "type": "uint256"
        }
      ],
      "name": "setTrainingCost",
      "outputs": [],
      "stateMutability": "nonpayable",
      "type": "function"
    },
    {
      "inputs": [
        {
          "internalType": "address",
          "name": "nftAddress",
          "type": "address"
        },
        {
          "internalType": "uint256",
          "name": "tokenId",
          "type": "uint256"
        }
      ],
      "name": "stake",
      "outputs": [],
      "stateMutability": "nonpayable",
      "type": "function"
    },
    {
      "inputs": [
        {
          "internalType": "address",
          "name": "nftAddress",
          "type": "address"
        },
        {
          "internalType": "uint256",
          "name": "tokenId",
          "type": "uint256"
        },
        {
          "internalType": "uint256",
          "name": "treeId",
          "type": "uint256"
        },
        {
          "internalType": "uint256",
          "name": "skillId",
          "type": "uint256"
        }
      ],
      "name": "startTraining",
      "outputs": [],
      "stateMutability": "nonpayable",
      "type": "function"
    },
    {
      "inputs": [
        {
          "internalType": "bytes4",
          "name": "interfaceId",
          "type": "bytes4"
        }
      ],
      "name": "supportsInterface",
      "outputs": [
        {
          "internalType": "bool",
          "name": "",
          "type": "bool"
        }
      ],
      "stateMutability": "view",
      "type": "function"
    },
    {
      "inputs": [],
      "name": "unpause",
      "outputs": [],
      "stateMutability": "nonpayable",
      "type": "function"
    },
    {
      "inputs": [
        {
          "internalType": "address",
          "name": "nftAddress",
          "type": "address"
        },
        {
          "internalType": "uint256",
          "name": "tokenId",
          "type": "uint256"
        }
      ],
      "name": "unstake",
      "outputs": [],
      "stateMutability": "nonpayable",
      "type": "function"
    },
    {
      "inputs": [
        {
          "internalType": "address",
          "name": "nftAddress",
          "type": "address"
        },
        {
          "internalType": "address",
          "name": "rewardToken",
          "type": "address"
        },
        {
          "internalType": "uint256",
          "name": "startTime",
          "type": "uint256"
        },
        {
          "internalType": "uint256",
          "name": "maxPointsPerSkill",
          "type": "uint256"
        }
      ],
      "name": "updateStakingConfig",
      "outputs": [],
      "stateMutability": "nonpayable",
      "type": "function"
    },
    {
      "inputs": [
        {
          "internalType": "address",
          "name": "to",
          "type": "address"
        },
        {
          "internalType": "address",
          "name": "token",
          "type": "address"
        },
        {
          "internalType": "uint256",
          "name": "amount",
          "type": "uint256"
        }
      ],
      "name": "withdrawPoolRewards",
      "outputs": [],
      "stateMutability": "nonpayable",
      "type": "function"
    }
  ],
  "bytecode": "0x60806040523480156200001157600080fd5b50600054610100900460ff1615808015620000335750600054600160ff909116105b8062000063575062000050306200013d60201b62003f621760201c565b15801562000063575060005460ff166001145b620000cb5760405162461bcd60e51b815260206004820152602e60248201527f496e697469616c697a61626c653a20636f6e747261637420697320616c72656160448201526d191e481a5b9a5d1a585b1a5e995960921b606482015260840160405180910390fd5b6000805460ff191660011790558015620000ef576000805461ff0019166101001790555b801562000136576000805461ff0019169055604051600181527f7f26b83ff96e1f2b6a682f133852f6798a09c465da95921460cefb38474024989060200160405180910390a15b506200014c565b6001600160a01b03163b151590565b615db3806200015c6000396000f3fe608060405234801561001057600080fd5b506004361061035d5760003560e01c80638456cb59116101d3578063bea64ba211610104578063d547741f116100a2578063e63ab1e91161007c578063e63ab1e914610791578063eded3fda146107a6578063f87b9cc2146107ae578063fa5887ee146107c157600080fd5b8063d547741f14610758578063d9a2c1d21461076b578063e62ccc9c1461077e57600080fd5b8063c75fb3e3116100de578063c75fb3e31461070c578063ca6146601461071f578063cc3f7b1c14610732578063d3a13d421461074557600080fd5b8063bea64ba2146106d1578063c2a672e0146106e4578063c59abf9f146106f757600080fd5b8063a401344b11610171578063aed2151a1161014b578063aed2151a1461068f578063aeeba615146106a2578063b7093e80146106b5578063be29c925146106be57600080fd5b8063a401344b14610656578063abfc6e7314610669578063adc9772e1461067c57600080fd5b806394a77066116101ad57806394a770661461062057806396856096146106335780639f8f606814610646578063a217fddf1461064e57600080fd5b80638456cb59146105f257806386e8953d146105fa57806391d148541461060d57600080fd5b80633d564e49116102ad5780635a2d88001161024b57806375fa6e311161022557806375fa6e31146105a457806376c7e36a146105b75780638129fc1c146105d757806381fda71d146105df57600080fd5b80635a2d8800146105665780635c975abb14610586578063729c35531461059157600080fd5b806347e633801161028757806347e63380146105235780634cb12fee146105385780634e71d92d1461054b5780634eeea4431461055357600080fd5b80633d564e49146104f15780633f4ba83a14610504578063421f72c71461050c57600080fd5b806323de54d81161031a57806332b95a6f116102f457806332b95a6f146104a557806333820bac146104b857806336568abe146104cb5780633988bad8146104de57600080fd5b806323de54d814610436578063248a9ca3146104615780632f2ff15d1461049257600080fd5b806301ffc9a7146103625780630ae7a4611461038a578063139bed4c1461039f578063150b7a02146103b257806319545487146104035780632119e14014610416575b600080fd5b610375610370366004614fde565b6107d4565b60405190151581526020015b60405180910390f35b61039d610398366004615008565b61080b565b005b61039d6103ad366004615181565b61083c565b6103ea6103c0366004615252565b7f150b7a023d4804d13e8c85fb27262cb750cf6ba9f9dd3bb30d90f482ceeb4b1f95945050505050565b6040516001600160e01b03199091168152602001610381565b61039d6104113660046152f0565b6108f8565b610429610424366004615353565b610981565b60405161038191906153de565b60c954610449906001600160a01b031681565b6040516001600160a01b039091168152602001610381565b61048461046f3660046153ec565b60009081526097602052604090206001015490565b604051908152602001610381565b61039d6104a0366004615405565b610a0b565b61039d6104b33660046152f0565b610a30565b61039d6104c6366004615435565b610acc565b61039d6104d9366004615405565b610b07565b6104846104ec36600461546a565b610b85565b61039d6104ff3660046152f0565b610cf6565b61039d610d71565b610514610d9c565b60405161038193929190615511565b610484600080516020615d3e83398151915281565b61039d6105463660046155c5565b610f86565b61039d6113ac565b61039d6105613660046155f1565b6113c5565b6105796105743660046155c5565b6114b2565b6040516103819190615643565b60335460ff16610375565b61039d61059f366004615353565b611999565b61039d6105b23660046153ec565b611a0c565b6105ca6105c536600461546a565b611a1d565b6040516103819190615656565b61039d611d62565b6104846105ed3660046155c5565b611eb5565b61039d611f75565b6103756106083660046155c5565b611f9d565b61037561061b366004615405565b612060565b61039d61062e3660046156a4565b61208b565b61039d61064136600461573e565b612450565b6105ca61249b565b610484600081565b61039d61066436600461546a565b6124ab565b61039d61067736600461577a565b612553565b61039d61068a3660046155c5565b612753565b61039d61069d3660046157c0565b612ad5565b61039d6106b03660046152f0565b612bd7565b61048460d25481565b61039d6106cc366004615847565b612c73565b61039d6106df366004615353565b612dfd565b61039d6106f23660046155c5565b612faf565b6106ff612fba565b60405161038191906158f3565b6106ff61071a36600461546a565b612fc1565b61039d61072d36600461577a565b613059565b61039d6107403660046155c5565b61309e565b61039d61075336600461546a565b61345f565b61039d610766366004615405565b61349a565b61039d6107793660046152f0565b6134bf565b61039d61078c3660046155c5565b61353a565b610484600080516020615d5e83398151915281565b610484613816565b61039d6107bc36600461546a565b613821565b61039d6107cf366004615906565b6138fa565b60006001600160e01b03198216637965db0b60e01b148061080557506301ffc9a760e01b6001600160e01b03198316145b92915050565b600080516020615d3e83398151915261082381613f71565b50600092835260cb602052604090922090815560010155565b600061084781613f71565b60005b86518110156108ef576108dd87828151811061086857610868615941565b602002602001015187838151811061088257610882615941565b602002602001015187848151811061089c5761089c615941565b60200260200101518785815181106108b6576108b6615941565b60200260200101518786815181106108d0576108d0615941565b60200260200101516113c5565b806108e78161596d565b91505061084a565b50505050505050565b80518251146109225760405162461bcd60e51b815260040161091990615988565b60405180910390fd5b60005b825181101561097c5761096a83828151811061094357610943615941565b602002602001015183838151811061095d5761095d615941565b6020026020010151610f86565b806109748161596d565b915050610925565b505050565b610989614f13565b506001600160a01b03928316600090815260ca602090815260408083209486168352938152838220928252918252829020825160e081018452815490941684526001810154918401919091526002810154918301919091526003810154606083015260048101546080830152600581015460a08301526006015460c082015290565b600082815260976020526040902060010154610a2681613f71565b61097c8383613f7b565b4260d25411610a515760405162461bcd60e51b8152600401610919906159cc565b8051825114610a725760405162461bcd60e51b815260040161091990615988565b60005b825181101561097c57610aba838281518110610a9357610a93615941565b6020026020010151838381518110610aad57610aad615941565b6020026020010151612753565b80610ac48161596d565b915050610a75565b600080516020615d3e833981519152610ae481613f71565b506001600160a01b03909216600090815260d06020526040902090815560010155565b6001600160a01b0381163314610b775760405162461bcd60e51b815260206004820152602f60248201527f416363657373436f6e74726f6c3a2063616e206f6e6c792072656e6f756e636560448201526e103937b632b9903337b91039b2b63360891b6064820152608401610919565b610b818282614001565b5050565b6001600160a01b038116600090815260d1602090815260408083205460cc909252822060d2548390610bb75742610bbb565b60d2545b905060005b8254811015610cec57826000018181548110610bde57610bde615941565b9060005260206000209060030201600201548211610bfb57610cda565b6000836000018281548110610c1257610c12615941565b90600052602060002090600302016002015483610c2f9190615a03565b90506000610c93856000018481548110610c4b57610c4b615941565b600091825260209091206003909102015486546001600160a01b0390911690879086908110610c7c57610c7c615941565b906000526020600020906003020160010154611eb5565b90508162015180610ca5836001615a1a565b610cb790670de0b6b3a7640000615a32565b610cc19190615a51565b610ccb9190615a32565b610cd59087615a1a565b955050505b80610ce48161596d565b915050610bc0565b5091949350505050565b8051825114610d175760405162461bcd60e51b815260040161091990615988565b60005b825181101561097c57610d5f838281518110610d3857610d38615941565b6020026020010151838381518110610d5257610d52615941565b6020026020010151612faf565b80610d698161596d565b915050610d1a565b600080516020615d5e833981519152610d8981613f71565b610d91614068565b610d9961409c565b50565b60608060606000610dad60cd6140ee565b9050806001600160401b03811115610dc757610dc7615034565b604051908082528060200260200182016040528015610df0578160200160208202803683370190505b509150806001600160401b03811115610e0b57610e0b615034565b604051908082528060200260200182016040528015610e3e57816020015b6060815260200190600190039081610e295790505b50925060005b81811015610f735760cc6000610e5b60cd846140f8565b6001600160a01b03166001600160a01b03168152602001908152602001600020600001805480602002602001604051908101604052809291908181526020016000905b82821015610ef3576000848152602090819020604080516060810182526003860290920180546001600160a01b0316835260018082015484860152600290910154918301919091529083529092019101610e9e565b50505050848281518110610f0957610f09615941565b602090810291909101015260d16000610f2360cd846140f8565b6001600160a01b03166001600160a01b0316815260200190815260200160002054838281518110610f5657610f56615941565b602090810291909101015280610f6b8161596d565b915050610e44565b50610f7e60cd61410b565b935050909192565b6040516331a9108f60e11b8152600481018290528290829030906001600160a01b03841690636352211e9060240160206040518083038186803b158015610fcc57600080fd5b505afa158015610fe0573d6000803e3d6000fd5b505050506040513d601f19601f820116820180604052508101906110049190615a73565b6001600160a01b03161461102a5760405162461bcd60e51b815260040161091990615a90565b60c95460405163537a724f60e11b8152859185916001600160a01b039091169063a6f4e49e9061106590859085906000908190600401615ab4565b60206040518083038186803b15801561107d57600080fd5b505afa158015611091573d6000803e3d6000fd5b505050506040513d601f19601f820116820180604052508101906110b59190615ada565b6001146110d45760405162461bcd60e51b815260040161091990615af3565b33600090815260ca602090815260408083206001600160a01b038a16845282528083208884529091529020600581015461113f5760405162461bcd60e51b815260206004820152600c60248201526b4e6f7420747261696e696e6760a01b6044820152606401610919565b42816006015411156111935760405162461bcd60e51b815260206004820152601a60248201527f547261696e696e67207374696c6c20696e2070726f67726573730000000000006044820152606401610919565b60005b33600090815260cc60205260409020548110156112395733600090815260cc602052604090208054889190839081106111d1576111d1615941565b906000526020600020906003020160010154141561122757611222335b33600090815260cc6020526040902080548490811061120f5761120f615941565b9060005260206000209060030201614118565b611239565b806112318161596d565b915050611196565b5060c95460038201546004808401546002850154604051630d126da960e11b81526001600160a01b038d811694820194909452602481018c905260448101949094526064840191909152608483015290911690631a24db529060a401600060405180830381600087803b1580156112af57600080fd5b505af11580156112c3573d6000803e3d6000fd5b50505050866001600160a01b03166112d83390565b6001600160a01b03167f4cffb663b46d78e759211fc8a998ed5dd16066c4229b4b4e94bc0ff7431e85a888846003015485600401548660020154604051611338949392919093845260208401929092526040830152606082015260800190565b60405180910390a3505033600090815260ca602090815260408083206001600160a01b039890981683529681528682209582529490945250505090812080546001600160a01b0319168155600181018290556002810182905560038101829055600481018290556005810182905560060155565b6113ba33614141565b614141565b6113c33361418f565b565b60006113d081613f71565b6001600160a01b038616600090815260cc602052604090208054859190879081106113fd576113fd615941565b6000918252602080832060039290920290910180546001600160a01b0319166001600160a01b03948516179055918816815260cc9091526040902080548491908790811061144d5761144d615941565b600091825260209091206001600390920201015581156114aa576001600160a01b038616600090815260cc6020526040902080548391908790811061149457611494615941565b9060005260206000209060030201600201819055505b505050505050565b6001600160a01b038216600090815260cf60209081526040808320815160a0810183528154815260018201548185015260028201805484518187028101870186528181526060979693958601939092919083018282801561153257602002820191906000526020600020905b81548152602001906001019080831161151e575b505050505081526020016003820180548060200260200160405190810160405280929190818152602001828054801561158a57602002820191906000526020600020905b815481526020019060010190808311611576575b5050509183525050600491909101546001600160a01b031660209091015280519091506115f95760405162461bcd60e51b815260206004820152601e60248201527f4e6f20747261696e696e672073657373696f6e20636f6e6669677572656400006044820152606401610919565b60008160400151516001600160401b0381111561161857611618615034565b604051908082528060200260200182016040528015611641578160200160208202803683370190505b50905060008060005b8460400151518110156117b05760c954604086015180516001600160a01b039092169163a6f4e49e918b918b91908690811061168857611688615941565b6020026020010151896060015186815181106116a6576116a6615941565b60200260200101516040518563ffffffff1660e01b81526004016116cd9493929190615ab4565b60206040518083038186803b1580156116e557600080fd5b505afa1580156116f9573d6000803e3d6000fd5b505050506040513d601f19601f8201168201806040525081019061171d9190615ada565b84828151811061172f5761172f615941565b602002602001018181525050600084828151811061174f5761174f615941565b6020026020010151111561176b57826117678161596d565b9350505b846020015184828151811061178257611782615941565b6020026020010151141561179e578161179a8161596d565b9250505b806117a88161596d565b91505061164a565b50816117c457505050606001519050610805565b80600214156117db57506060935061080592505050565b600060018560400151516117ef9190615a03565b6001600160401b0381111561180657611806615034565b60405190808252806020026020018201604052801561182f578160200160208202803683370190505b5090506000805b855181101561198b5783600114801561184f5750846001145b8015611874575085818151811061186857611868615941565b60200260200101516000145b156118c2578660600151818151811061188f5761188f615941565b60200260200101518383815181106118a9576118a9615941565b6020908102919091010152816118be8161596d565b9250505b60008682815181106118d6576118d6615941565b6020026020010151118015611907575086602001518682815181106118fd576118fd615941565b6020026020010151105b1561197957604080516001808252818301909252600091602080830190803683370190505090508760600151828151811061194457611944615941565b60200260200101518160008151811061195f5761195f615941565b602090810291909101015297506108059650505050505050565b806119838161596d565b915050611836565b509098975050505050505050565b60006119a481613f71565b506001600160a01b03928316600090815260ca60209081526040808320949095168252928352838120918152915290812080546001600160a01b0319168155600181018290556002810182905560038101829055600481018290556005810182905560060155565b6000611a1781613f71565b5060d255565b6001600160a01b038116600090815260cc60209081526040808320805482518185028101850190935280835260609493849084015b82821015611aa7576000848152602090819020604080516060810182526003860290920180546001600160a01b0316835260018082015484860152600290910154918301919091529083529092019101611a52565b5050505090506000805b8251811015611bc7576001600160a01b038516600090815260ca6020526040812084518290869085908110611ae857611ae8615941565b6020026020010151600001516001600160a01b03166001600160a01b031681526020019081526020016000206000858481518110611b2857611b28615941565b6020908102919091018101518101518252818101929092526040908101600020815160e08101835281546001600160a01b031681526001820154938101939093526002810154918301919091526003810154606083015260048101546080830152600581015460a08301526006015460c0820181905290915015611bb45782611bb08161596d565b9350505b5080611bbf8161596d565b915050611ab1565b506000816001600160401b03811115611be257611be2615034565b604051908082528060200260200182016040528015611c1b57816020015b611c08614f13565b815260200190600190039081611c005790505b5090506000805b8451811015611d57576001600160a01b038716600090815260ca6020526040812086518290889085908110611c5957611c59615941565b6020026020010151600001516001600160a01b03166001600160a01b031681526020019081526020016000206000878481518110611c9957611c99615941565b6020908102919091018101518101518252818101929092526040908101600020815160e08101835281546001600160a01b031681526001820154938101939093526002810154918301919091526003810154606083015260048101546080830152600581015460a08301526006015460c0820181905290915015611d445780848481518110611d2a57611d2a615941565b60200260200101819052508280611d409061596d565b9350505b5080611d4f8161596d565b915050611c22565b509095945050505050565b600054610100900460ff1615808015611d825750600054600160ff909116105b80611d9c5750303b158015611d9c575060005460ff166001145b611dff5760405162461bcd60e51b815260206004820152602e60248201527f496e697469616c697a61626c653a20636f6e747261637420697320616c72656160448201526d191e481a5b9a5d1a585b1a5e995960921b6064820152608401610919565b6000805460ff191660011790558015611e22576000805461ff0019166101001790555b611e2a6143a2565b611e326143d1565b611e3d600033613f7b565b611e55600080516020615d5e83398151915233613f7b565b611e6d600080516020615d3e83398151915233613f7b565b8015610d99576000805461ff0019169055604051600181527f7f26b83ff96e1f2b6a682f133852f6798a09c465da95921460cefb38474024989060200160405180910390a150565b600080805b600c811015611f6d5760c95460405163537a724f60e11b81526000916001600160a01b03169063a6f4e49e90611efb90899089906001908890600401615ab4565b60206040518083038186803b158015611f1357600080fd5b505afa158015611f27573d6000803e3d6000fd5b505050506040513d601f19601f82011682018060405250810190611f4b9190615ada565b9050611f578184615a1a565b9250508080611f659061596d565b915050611eba565b509392505050565b600080516020615d5e833981519152611f8d81613f71565b611f95614068565b610d996143f8565b6001600160a01b03808316600090815260d0602052604080822060c95481546001830154935163537a724f60e11b8152949592948694929093169263a6f4e49e92611fef928a928a9290600401615ab4565b60206040518083038186803b15801561200757600080fd5b505afa15801561201b573d6000803e3d6000fd5b505050506040513d601f19601f8201168201806040525081019061203f9190615ada565b9050806001141561205557600192505050610805565b506000949350505050565b60009182526097602090815260408084206001600160a01b0393909316845291905290205460ff1690565b600080516020615d3e8339815191526120a381613f71565b6001600160a01b038716600090815260cf6020526040902054156121095760405162461bcd60e51b815260206004820152601d60248201527f5374616b696e6720636f6e66696720616c7265616479206578697374730000006044820152606401610919565b60008351116121525760405162461bcd60e51b81526020600482015260156024820152744d697373696e672074726565496420636f6e66696760581b6044820152606401610919565b600082511161219c5760405162461bcd60e51b81526020600482015260166024820152754d697373696e6720736b696c6c496420636f6e66696760501b6044820152606401610919565b82518251146121fc5760405162461bcd60e51b815260206004820152602660248201527f5472656549647320616e6420536b696c6c49647320617272617973206d757374604482015265040dac2e8c6d60d31b6064820152608401610919565b6000841161221c5760405162461bcd60e51b815260040161091990615b19565b42851161223b5760405162461bcd60e51b815260040161091990615b61565b6040516370a0823160e01b81523060048201526000906001600160a01b038816906370a082319060240160206040518083038186803b15801561227d57600080fd5b505afa158015612291573d6000803e3d6000fd5b505050506040513d601f19601f820116820180604052508101906122b59190615ada565b116122f95760405162461bcd60e51b81526020600482015260146024820152734e6f2066756e647320666f72207265776172647360601b6044820152606401610919565b612301614068565b6001600160a01b03878116600090815260cf602052604081206004810180546001600160a01b031916938a169390931790925586825560019091018590555b83518110156124005760cf6000896001600160a01b03166001600160a01b0316815260200190815260200160002060020184828151811061238357612383615941565b6020908102919091018101518254600181018455600093845282842001556001600160a01b038a16825260cf90526040902083516003909101908490839081106123cf576123cf615941565b60209081029190910181015182546001810184556000938452919092200155806123f88161596d565b915050612340565b50604080516001600160a01b038881168252602082018890528916917fc6e5f1ee3138795eeda2fa0aab37379a177c4f04396146dd2b154ab55f5c5585910160405180910390a250505050505050565b600061245b81613f71565b60005b825181101561097c5761248983828151811061247c5761247c615941565b6020026020010151613821565b806124938161596d565b91505061245e565b60606124a633611a1d565b905090565b600080516020615d3e8339815191526124c381613f71565b6124cb614068565b6001600160a01b038216600090815260cf6020526040812081815560018101829055906124fb6002830182614f59565b612509600383016000614f59565b5060040180546001600160a01b03191690556040516001600160a01b038316907fed93036dfb7e5500a2a7f2471a56e6b3389a8c28c72adca8ba9f6a4025ca6d5890600090a25050565b600080516020615d3e83398151915261256b81613f71565b6001600160a01b038516600090815260cf60205260409020546125d05760405162461bcd60e51b815260206004820152601d60248201527f5374616b696e6720636f6e66696720646f6573206e6f742065786973740000006044820152606401610919565b600082116125f05760405162461bcd60e51b815260040161091990615b19565b42831161260f5760405162461bcd60e51b815260040161091990615b61565b6040516370a0823160e01b81523060048201526000906001600160a01b038616906370a082319060240160206040518083038186803b15801561265157600080fd5b505afa158015612665573d6000803e3d6000fd5b505050506040513d601f19601f820116820180604052508101906126899190615ada565b116126cd5760405162461bcd60e51b81526020600482015260146024820152734e6f2066756e647320666f72207265776172647360601b6044820152606401610919565b6126d5614068565b6001600160a01b03858116600081815260cf60209081526040918290206004810180546001600160a01b031916958a169586179055878155600181018790558251948552908401879052927f255d2940ab142f16cd2452c452fc20185bcbc341ce9c1646bc3d4feac9dc3371910160405180910390a2505050505050565b4260d254116127745760405162461bcd60e51b8152600401610919906159cc565b6040516331a9108f60e11b8152600481018290528290829030906001600160a01b03841690636352211e9060240160206040518083038186803b1580156127ba57600080fd5b505afa1580156127ce573d6000803e3d6000fd5b505050506040513d601f19601f820116820180604052508101906127f29190615a73565b6001600160a01b0316141561283a5760405162461bcd60e51b815260206004820152600e60248201526d105b1c9958591e481cdd185ad95960921b6044820152606401610919565b60c95460405163537a724f60e11b8152859185916001600160a01b039091169063a6f4e49e9061287590859085906000908190600401615ab4565b60206040518083038186803b15801561288d57600080fd5b505afa1580156128a1573d6000803e3d6000fd5b505050506040513d601f19601f820116820180604052508101906128c59190615ada565b6001146128e45760405162461bcd60e51b815260040161091990615af3565b6001600160a01b038616600090815260cf60205260409020546129395760405162461bcd60e51b815260206004820152600d60248201526c496e76616c6964207374616b6560981b6044820152606401610919565b6001600160a01b038616600090815260cf602052604090205442101561299b5760405162461bcd60e51b815260206004820152601760248201527614dd185ada5b99c81a185cc81b9bdd081cdd185c9d1959604a1b6044820152606401610919565b604051632142170760e11b81526001600160a01b038716906342842e0e906129cb90339030908a90600401615bab565b600060405180830381600087803b1580156129e557600080fd5b505af11580156129f9573d6000803e3d6000fd5b50505050612a0f612a073390565b60cd90614435565b5033600090815260cc6020908152604080832081516060810183526001600160a01b038b811682528185018b815242948301948552835460018082018655948852959096209151600390950290910180546001600160a01b031916949091169390931783559251928201929092559051600290910155612a8d6113ac565b6040518581526001600160a01b0387169033907f5dac0c1b1112564a045ba943c9d50270893e8e826c49be8e7073adc713ab7bd79060200160405180910390a3505050505050565b600080516020615d3e833981519152612aed81613f71565b82518451148015612aff575081518351145b612b5c5760405162461bcd60e51b815260206004820152602860248201527f416c6c20696e70757420617272617973206d757374206265207468652073616d6044820152670ca40d8cadccee8d60c31b6064820152608401610919565b60005b8451811015612bd057612bbe858281518110612b7d57612b7d615941565b6020026020010151858381518110612b9757612b97615941565b6020026020010151858481518110612bb157612bb1615941565b602002602001015161080b565b80612bc88161596d565b915050612b5f565b5050505050565b4260d25411612bf85760405162461bcd60e51b8152600401610919906159cc565b8051825114612c195760405162461bcd60e51b815260040161091990615988565b60005b825181101561097c57612c61838281518110612c3a57612c3a615941565b6020026020010151838381518110612c5457612c54615941565b602002602001015161309e565b80612c6b8161596d565b915050612c1c565b4260d25411612c945760405162461bcd60e51b8152600401610919906159cc565b8251845114612cb55760405162461bcd60e51b815260040161091990615988565b8151845114612d125760405162461bcd60e51b815260206004820152602360248201527f6164647265737320636f756e74206d757374206d61746368207472656520636f6044820152621d5b9d60ea1b6064820152608401610919565b8051845114612d6f5760405162461bcd60e51b8152602060048201526024808201527f6164647265737320636f756e74206d757374206d6174636820736b696c6c20636044820152631bdd5b9d60e21b6064820152608401610919565b60005b8451811015612bd057612deb858281518110612d9057612d90615941565b6020026020010151858381518110612daa57612daa615941565b6020026020010151858481518110612dc457612dc4615941565b6020026020010151858581518110612dde57612dde615941565b60200260200101516138fa565b80612df58161596d565b915050612d72565b6000612e0881613f71565b6040516370a0823160e01b8152306004820152839083906001600160a01b038316906370a082319060240160206040518083038186803b158015612e4b57600080fd5b505afa158015612e5f573d6000803e3d6000fd5b505050506040513d601f19601f82011682018060405250810190612e839190615ada565b1015612ec85760405162461bcd60e51b8152602060048201526014602482015273496e73756666696369656e742062616c616e636560601b6044820152606401610919565b60405163a9059cbb60e01b81526001600160a01b0386811660048301526024820185905282169063a9059cbb90604401602060405180830381600087803b158015612f1257600080fd5b505af1158015612f26573d6000803e3d6000fd5b505050506040513d601f19601f82011682018060405250810190612f4a9190615bcf565b50836001600160a01b0316856001600160a01b0316612f663390565b6001600160a01b03167f74ed50f6a2a005dd31f4766fb60918c4a6728cb0da9eeb81b9526bc6da11ec0f86604051612fa091815260200190565b60405180910390a45050505050565b610b8133838361444a565b60606124a6335b6001600160a01b038116600090815260cc60209081526040808320805482518185028101850190935280835260609492939192909184015b8282101561304e576000848152602090819020604080516060810182526003860290920180546001600160a01b0316835260018082015484860152600290910154918301919091529083529092019101612ff9565b505050509050919050565b600061306481613f71565b506001600160a01b03938416600090815260ca60209081526040808320959096168252938452848120928152919092529190912060040155565b4260d254116130bf5760405162461bcd60e51b8152600401610919906159cc565b6040516331a9108f60e11b8152600481018290528290829030906001600160a01b03841690636352211e9060240160206040518083038186803b15801561310557600080fd5b505afa158015613119573d6000803e3d6000fd5b505050506040513d601f19601f8201168201806040525081019061313d9190615a73565b6001600160a01b031614156131855760405162461bcd60e51b815260206004820152600e60248201526d105b1c9958591e481cdd185ad95960921b6044820152606401610919565b6001600160a01b038416600090815260d060205260408120906131a88686611f9d565b905080156131f85760405162461bcd60e51b815260206004820152601860248201527f5374616b696e6720616c726561647920756e6c6f636b656400000000000000006044820152606401610919565b6001600160a01b038616600090815260cf60205260409020546132565760405162461bcd60e51b815260206004820152601660248201527514dd185ada5b99c81b9bdd0818dbdb999a59dd5c995960521b6044820152606401610919565b6001600160a01b038616600090815260cf60205260409020544210156132b85760405162461bcd60e51b815260206004820152601760248201527614dd185ada5b99c81a185cc81b9bdd081cdd185c9d1959604a1b6044820152606401610919565b6001600160a01b03868116600090815260cf602052604090206004015416806323b872dd336000805260cb6020527f4239c2c8c3d9b94feb214b0f54d7c869ce1ceb63517be57644336cda4967a468546040516001600160e01b031960e085901b16815261332b92913091600401615bab565b602060405180830381600087803b15801561334557600080fd5b505af1158015613359573d6000803e3d6000fd5b505050506040513d601f19601f8201168201806040525081019061337d9190615bcf565b5060c9548354600180860154604051630d126da960e11b81526001600160a01b038c81166004830152602482018c9052604482019490945260648101919091526084810191909152911690631a24db529060a401600060405180830381600087803b1580156133eb57600080fd5b505af11580156133ff573d6000803e3d6000fd5b50505050866001600160a01b03166134143390565b6001600160a01b03167f051144eeaaad1c4ee6b1eab928f531a9daf1687b3e0f8db00dae3f5df8c285db8860405161344e91815260200190565b60405180910390a350505050505050565b600080516020615d3e83398151915261347781613f71565b5060c980546001600160a01b0319166001600160a01b0392909216919091179055565b6000828152609760205260409020600101546134b581613f71565b61097c8383614001565b80518251146134e05760405162461bcd60e51b815260040161091990615988565b60005b825181101561097c5761352883828151811061350157613501615941565b602002602001015183838151811061351b5761351b615941565b602002602001015161353a565b806135328161596d565b9150506134e3565b6040516331a9108f60e11b8152600481018290528290829030906001600160a01b03841690636352211e9060240160206040518083038186803b15801561358057600080fd5b505afa158015613594573d6000803e3d6000fd5b505050506040513d601f19601f820116820180604052508101906135b89190615a73565b6001600160a01b0316146135de5760405162461bcd60e51b815260040161091990615a90565b60c95460405163537a724f60e11b8152859185916001600160a01b039091169063a6f4e49e9061361990859085906000908190600401615ab4565b60206040518083038186803b15801561363157600080fd5b505afa158015613645573d6000803e3d6000fd5b505050506040513d601f19601f820116820180604052508101906136699190615ada565b6001146136885760405162461bcd60e51b815260040161091990615af3565b33600090815260ca602090815260408083206001600160a01b038a1684528252808320888452909152902060058101546136f35760405162461bcd60e51b815260206004820152600c60248201526b4e6f7420747261696e696e6760a01b6044820152606401610919565b428160060154116137465760405162461bcd60e51b815260206004820152601960248201527f547261696e696e6720616c72656164792066696e6973686564000000000000006044820152606401610919565b60005b33600090815260cc60205260409020548110156137bc5733600090815260cc6020526040902080548891908390811061378457613784615941565b90600052602060002090600302016001015414156137aa576137a5336111ee565b6137bc565b806137b48161596d565b915050613749565b50600381015460048201546040805189815260208101939093528201524260608201526001600160a01b0388169033907fc9b7c59fa980251f7ca7eae784c953e8a9f49d617be6edca0b41264ea05cb16990608001611338565b60006124a633610b85565b600061382c81613f71565b600061383783611a1d565b9050805160001461388a5760405162461bcd60e51b815260206004820152601860248201527f55736572206861732061637469766520747261696e696e6700000000000000006044820152606401610919565b600061389584612fc1565b905060005b8151811015612bd0576138e8858383815181106138b9576138b9615941565b6020026020010151600001518484815181106138d7576138d7615941565b60200260200101516020015161444a565b806138f28161596d565b91505061389a565b4260d2541161391b5760405162461bcd60e51b8152600401610919906159cc565b6040516331a9108f60e11b8152600481018490528490849030906001600160a01b03841690636352211e9060240160206040518083038186803b15801561396157600080fd5b505afa158015613975573d6000803e3d6000fd5b505050506040513d601f19601f820116820180604052508101906139999190615a73565b6001600160a01b0316146139bf5760405162461bcd60e51b815260040161091990615a90565b60c95460405163537a724f60e11b8152879187916001600160a01b039091169063a6f4e49e906139fa90859085906000908190600401615ab4565b60206040518083038186803b158015613a1257600080fd5b505afa158015613a26573d6000803e3d6000fd5b505050506040513d601f19601f82011682018060405250810190613a4a9190615ada565b600114613a695760405162461bcd60e51b815260040161091990615af3565b6001600160a01b038816600090815260cf602052604090208054613acf5760405162461bcd60e51b815260206004820152601e60248201527f4e6f20747261696e696e672073657373696f6e20636f6e6669677572656400006044820152606401610919565b8054421015613b205760405162461bcd60e51b815260206004820152601c60248201527f547261696e696e6720686173206e6f74207374617274656420796574000000006044820152606401610919565b33600090815260ca602090815260408083206001600160a01b038d16845282528083208b84529091529020600581015415613b9d5760405162461bcd60e51b815260206004820152601f60248201527f547261696e696e6720697320616c726561647920696e2070726f6772657373006044820152606401610919565b6000613ba98b8b6114b2565b90506000815111613bfc5760405162461bcd60e51b815260206004820152601e60248201527f4e6f20747261696e696e672073657373696f6e7320617661696c61626c6500006044820152606401610919565b6000805b8251811015613c455789838281518110613c1c57613c1c615941565b60200260200101511415613c335760019150613c45565b80613c3d8161596d565b915050613c00565b5080613c935760405162461bcd60e51b815260206004820152601760248201527f496e76616c696420747261696e696e67206f7074696f6e0000000000000000006044820152606401610919565b600060c960009054906101000a90046001600160a01b03166001600160a01b031663a6f4e49e8e8e8e8e6040518563ffffffff1660e01b8152600401613cdc9493929190615ab4565b60206040518083038186803b158015613cf457600080fd5b505afa158015613d08573d6000803e3d6000fd5b505050506040513d601f19601f82011682018060405250810190613d2c9190615ada565b9050600060cb81613d3e846001615a1a565b815260200190815260200160002090508560010154826001613d609190615a1a565b1115613dae5760405162461bcd60e51b815260206004820152601e60248201527f45786365656473206d6178696d756d20747261696e696e67206c6576656c00006044820152606401610919565b8054613dfc5760405162461bcd60e51b815260206004820152601d60248201527f547261696e696e67204c6576656c206973206e6f7420656e61626c65640000006044820152606401610919565b60048681015482546040516323b872dd60e01b81526001600160a01b03909216926323b872dd92613e31923392309201615bab565b602060405180830381600087803b158015613e4b57600080fd5b505af1158015613e5f573d6000803e3d6000fd5b505050506040513d601f19601f82011682018060405250810190613e839190615bcf565b50613e8f826001615a1a565b6002860155600385018c9055600485018b905542600586018190556001820154613eb891615a1a565b600686015584546001600160a01b0319166001600160a01b038f169081178655600186018e9055336001600160a01b03167f98d1944772cc1ee399725448c633b3ec863f8be81e490479055d810afaa0225c8f8f8f613f18886001615a1a565b60058c015460068d0154604080519687526020870195909552938501929092526060840152608083015260a082015260c00160405180910390a35050505050505050505050505050565b6001600160a01b03163b151590565b610d99813361497a565b613f858282612060565b610b815760008281526097602090815260408083206001600160a01b03851684529091529020805460ff19166001179055613fbd3390565b6001600160a01b0316816001600160a01b0316837f2f8788117e7eff1d82e926ec794901d17c78024a50270940304540a733656f0d60405160405180910390a45050565b61400b8282612060565b15610b815760008281526097602090815260408083206001600160a01b0385168085529252808320805460ff1916905551339285917ff6391f5c32d9c69d2a47ea670b442974b53935d1edc7fd64eb21e047a839171b9190a45050565b60005b61407560cd6140ee565b811015610d995761408a6113b560cd836140f8565b806140948161596d565b91505061406b565b6140a46149de565b6033805460ff191690557f5db9ee0a495bf2e6ff9c91a7834c1ba4fdd244a5e8aa4e537bd38aeae4b073aa335b6040516001600160a01b03909116815260200160405180910390a1565b6000610805825490565b60006141048383614a27565b9392505050565b6060600061410483614a51565b600281018054429091558154600183015461097c9185916001600160a01b039091169084614aad565b6001600160a01b038116600090815260cc60205260408120905b815481101561097c5761417d8383600001838154811061120f5761120f615941565b806141878161596d565b91505061415b565b6001600160a01b038116600090815260d160205260408082208054929055516370a0823160e01b815230600482015273892d81221484f690c0a97d3dd18b9144a3ecdfb790829082906370a082319060240160206040518083038186803b1580156141f957600080fd5b505afa15801561420d573d6000803e3d6000fd5b505050506040513d601f19601f820116820180604052508101906142319190615ada565b101561427f5760405162461bcd60e51b815260206004820181905260248201527f496e73756666696369656e74207265776172647320696e20636f6e74726163746044820152606401610919565b60405163a9059cbb60e01b81526001600160a01b0384811660048301526024820184905282169063a9059cbb90604401602060405180830381600087803b1580156142c957600080fd5b505af11580156142dd573d6000803e3d6000fd5b505050506040513d601f19601f820116820180604052508101906143019190615bcf565b506001600160a01b038316600090815260cc602052604090205415801561433e57506001600160a01b038316600090815260d16020526040902054155b156143505761434e60cd33614b5c565b505b806001600160a01b0316836001600160a01b03167ff7a40077ff7a04c7e61f6f26fb13774259ddf1b6bce9ecf26a8276cdd39926838460405161439591815260200190565b60405180910390a3505050565b600054610100900460ff166143c95760405162461bcd60e51b815260040161091990615bf1565b6113c3614b71565b600054610100900460ff166113c35760405162461bcd60e51b815260040161091990615bf1565b614400614ba4565b6033805460ff191660011790557f62e78cea01bee320cd4e420270b5ea74000d11b0c9f74754ebdbfc544b05a2586140d13390565b6000614104836001600160a01b038416614bea565b6040516331a9108f60e11b8152600481018290528290829030906001600160a01b03841690636352211e9060240160206040518083038186803b15801561449057600080fd5b505afa1580156144a4573d6000803e3d6000fd5b505050506040513d601f19601f820116820180604052508101906144c89190615a73565b6001600160a01b0316146144ee5760405162461bcd60e51b815260040161091990615a90565b60c95460405163537a724f60e11b8152859185916001600160a01b039091169063a6f4e49e9061452990859085906000908190600401615ab4565b60206040518083038186803b15801561454157600080fd5b505afa158015614555573d6000803e3d6000fd5b505050506040513d601f19601f820116820180604052508101906145799190615ada565b6001146145985760405162461bcd60e51b815260040161091990615af3565b6001600160a01b038716600090815260cc60205260409020546145ee5760405162461bcd60e51b815260206004820152600e60248201526d139bc81391951cc81cdd185ad95960921b6044820152606401610919565b6001600160a01b038716600090815260cc6020908152604080832080548251818502810185019093528083529192909190849084015b82821015614679576000848152602090819020604080516060810182526003860290920180546001600160a01b0316835260018082015484860152600290910154918301919091529083529092019101614624565b5050506001600160a01b038a16600090815260cc602052604081209293506146a2929150614f77565b60005b81518110156148a557876001600160a01b03168282815181106146ca576146ca615941565b6020026020010151600001516001600160a01b03161480156147085750868282815181106146fa576146fa615941565b602002602001015160200151145b1561479f5761473689898985858151811061472557614725615941565b602002602001015160400151614aad565b6001600160a01b03808a16600090815260ca60209081526040808320938c1683529281528282208a8352905290812080546001600160a01b0319168155600181018290556002810182905560038101829055600481018290556005810182905560060155614893565b60cc60008a6001600160a01b03166001600160a01b0316815260200190815260200160002060000160405180606001604052808484815181106147e4576147e4615941565b6020026020010151600001516001600160a01b0316815260200184848151811061481057614810615941565b602002602001015160200151815260200184848151811061483357614833615941565b602090810291909101810151604090810151909252835460018082018655600095865294829020845160039092020180546001600160a01b0319166001600160a01b03909216919091178155908301519381019390935501516002909101555b8061489d8161596d565b9150506146a5565b506148af88614141565b6148b88861418f565b6148c188614c39565b6040516323b872dd60e01b81526001600160a01b038816906323b872dd906148f19030908c908b90600401615bab565b600060405180830381600087803b15801561490b57600080fd5b505af115801561491f573d6000803e3d6000fd5b50505050866001600160a01b0316886001600160a01b03167fd8654fcc8cf5b36d30b3f5e4688fc78118e6d68de60b9994e09902268b57c3e38860405161496891815260200190565b60405180910390a35050505050505050565b6149848282612060565b610b815761499c816001600160a01b03166014614c85565b6149a7836020614c85565b6040516020016149b8929190615c68565b60408051601f198184030181529082905262461bcd60e51b825261091991600401615cdd565b60335460ff166113c35760405162461bcd60e51b815260206004820152601460248201527314185d5cd8589b194e881b9bdd081c185d5cd95960621b6044820152606401610919565b6000826000018281548110614a3e57614a3e615941565b9060005260206000200154905092915050565b606081600001805480602002602001604051908101604052809291908181526020018280548015614aa157602002820191906000526020600020905b815481526020019060010190808311614a8d575b50505050509050919050565b801580614aba5750428110155b80614ac7575060d2548110155b15614ad157614b56565b6000614add8242615a03565b90506000614aeb8585611eb5565b905080614af78161596d565b915082905062015180614b1283670de0b6b3a7640000615a32565b614b1c9190615a51565b614b269190615a32565b6001600160a01b038716600090815260d1602052604081208054909190614b4e908490615a1a565b909155505050505b50505050565b6000614104836001600160a01b038416614e20565b600054610100900460ff16614b985760405162461bcd60e51b815260040161091990615bf1565b6033805460ff19169055565b60335460ff16156113c35760405162461bcd60e51b815260206004820152601060248201526f14185d5cd8589b194e881c185d5cd95960821b6044820152606401610919565b6000818152600183016020526040812054614c3157508154600181810184556000848152602080822090930184905584548482528286019093526040902091909155610805565b506000610805565b6001600160a01b038116600090815260cc6020526040902054158015614c7557506001600160a01b038116600090815260d16020526040902054155b15610d9957610b8160cd82614b5c565b60606000614c94836002615a32565b614c9f906002615a1a565b6001600160401b03811115614cb657614cb6615034565b6040519080825280601f01601f191660200182016040528015614ce0576020820181803683370190505b509050600360fc1b81600081518110614cfb57614cfb615941565b60200101906001600160f81b031916908160001a905350600f60fb1b81600181518110614d2a57614d2a615941565b60200101906001600160f81b031916908160001a9053506000614d4e846002615a32565b614d59906001615a1a565b90505b6001811115614dd1576f181899199a1a9b1b9c1cb0b131b232b360811b85600f1660108110614d8d57614d8d615941565b1a60f81b828281518110614da357614da3615941565b60200101906001600160f81b031916908160001a90535060049490941c93614dca81615d10565b9050614d5c565b5083156141045760405162461bcd60e51b815260206004820181905260248201527f537472696e67733a20686578206c656e67746820696e73756666696369656e746044820152606401610919565b60008181526001830160205260408120548015614f09576000614e44600183615a03565b8554909150600090614e5890600190615a03565b9050818114614ebd576000866000018281548110614e7857614e78615941565b9060005260206000200154905080876000018481548110614e9b57614e9b615941565b6000918252602080832090910192909255918252600188019052604090208390555b8554869080614ece57614ece615d27565b600190038181906000526020600020016000905590558560010160008681526020019081526020016000206000905560019350505050610805565b6000915050610805565b6040518060e0016040528060006001600160a01b031681526020016000815260200160008152602001600081526020016000815260200160008152602001600081525090565b5080546000825590600052602060002090810190610d999190614f98565b5080546000825560030290600052602060002090810190610d999190614fb1565b5b80821115614fad5760008155600101614f99565b5090565b5b80821115614fad5780546001600160a01b03191681556000600182018190556002820155600301614fb2565b600060208284031215614ff057600080fd5b81356001600160e01b03198116811461410457600080fd5b60008060006060848603121561501d57600080fd5b505081359360208301359350604090920135919050565b634e487b7160e01b600052604160045260246000fd5b604051601f8201601f191681016001600160401b038111828210171561507257615072615034565b604052919050565b60006001600160401b0382111561509357615093615034565b5060051b60200190565b6001600160a01b0381168114610d9957600080fd5b600082601f8301126150c357600080fd5b813560206150d86150d38361507a565b61504a565b82815260059290921b840181019181810190868411156150f757600080fd5b8286015b8481101561511b57803561510e8161509d565b83529183019183016150fb565b509695505050505050565b600082601f83011261513757600080fd5b813560206151476150d38361507a565b82815260059290921b8401810191818101908684111561516657600080fd5b8286015b8481101561511b578035835291830191830161516a565b600080600080600060a0868803121561519957600080fd5b85356001600160401b03808211156151b057600080fd5b6151bc89838a016150b2565b965060208801359150808211156151d257600080fd5b6151de89838a01615126565b955060408801359150808211156151f457600080fd5b61520089838a016150b2565b9450606088013591508082111561521657600080fd5b61522289838a01615126565b9350608088013591508082111561523857600080fd5b5061524588828901615126565b9150509295509295909350565b60008060008060006080868803121561526a57600080fd5b85356152758161509d565b945060208601356152858161509d565b93506040860135925060608601356001600160401b03808211156152a857600080fd5b818801915088601f8301126152bc57600080fd5b8135818111156152cb57600080fd5b8960208285010111156152dd57600080fd5b9699959850939650602001949392505050565b6000806040838503121561530357600080fd5b82356001600160401b038082111561531a57600080fd5b615326868387016150b2565b9350602085013591508082111561533c57600080fd5b5061534985828601615126565b9150509250929050565b60008060006060848603121561536857600080fd5b83356153738161509d565b925060208401356153838161509d565b929592945050506040919091013590565b80516001600160a01b031682526020808201519083015260408082015190830152606080820151908301526080808201519083015260a0818101519083015260c090810151910152565b60e081016108058284615394565b6000602082840312156153fe57600080fd5b5035919050565b6000806040838503121561541857600080fd5b82359150602083013561542a8161509d565b809150509250929050565b60008060006060848603121561544a57600080fd5b83356154558161509d565b95602085013595506040909401359392505050565b60006020828403121561547c57600080fd5b81356141048161509d565b600081518084526020808501945080840160005b838110156154d657815180516001600160a01b031688528381015184890152604090810151908801526060909601959082019060010161549b565b509495945050505050565b600081518084526020808501945080840160005b838110156154d6578151875295820195908201906001016154f5565b606080825284519082018190526000906020906080840190828801845b828110156155535781516001600160a01b03168452928401929084019060010161552e565b50505083810382850152855180825282820190600581901b8301840188850160005b838110156155a357601f19868403018552615591838351615487565b94870194925090860190600101615575565b505086810360408801526155b781896154e1565b9a9950505050505050505050565b600080604083850312156155d857600080fd5b82356155e38161509d565b946020939093013593505050565b600080600080600060a0868803121561560957600080fd5b85356156148161509d565b945060208601359350604086013561562b8161509d565b94979396509394606081013594506080013592915050565b60208152600061410460208301846154e1565b6020808252825182820181905260009190848201906040850190845b8181101561569857615685838551615394565b9284019260e09290920191600101615672565b50909695505050505050565b60008060008060008060c087890312156156bd57600080fd5b86356156c88161509d565b955060208701356156d88161509d565b9450604087013593506060870135925060808701356001600160401b038082111561570257600080fd5b61570e8a838b01615126565b935060a089013591508082111561572457600080fd5b5061573189828a01615126565b9150509295509295509295565b60006020828403121561575057600080fd5b81356001600160401b0381111561576657600080fd5b615772848285016150b2565b949350505050565b6000806000806080858703121561579057600080fd5b843561579b8161509d565b935060208501356157ab8161509d565b93969395505050506040820135916060013590565b6000806000606084860312156157d557600080fd5b83356001600160401b03808211156157ec57600080fd5b6157f887838801615126565b9450602086013591508082111561580e57600080fd5b61581a87838801615126565b9350604086013591508082111561583057600080fd5b5061583d86828701615126565b9150509250925092565b6000806000806080858703121561585d57600080fd5b84356001600160401b038082111561587457600080fd5b615880888389016150b2565b9550602087013591508082111561589657600080fd5b6158a288838901615126565b945060408701359150808211156158b857600080fd5b6158c488838901615126565b935060608701359150808211156158da57600080fd5b506158e787828801615126565b91505092959194509250565b6020815260006141046020830184615487565b6000806000806080858703121561591c57600080fd5b84356159278161509d565b966020860135965060408601359560600135945092505050565b634e487b7160e01b600052603260045260246000fd5b634e487b7160e01b600052601160045260246000fd5b600060001982141561598157615981615957565b5060010190565b60208082526024908201527f6164647265737320636f756e74206d757374206d6174636820746f6b656e20636040820152631bdd5b9d60e21b606082015260800190565b6020808252601a908201527f436861726163746572207374616b696e672066696e6973686564000000000000604082015260600190565b600082821015615a1557615a15615957565b500390565b60008219821115615a2d57615a2d615957565b500190565b6000816000190483118215151615615a4c57615a4c615957565b500290565b600082615a6e57634e487b7160e01b600052601260045260246000fd5b500490565b600060208284031215615a8557600080fd5b81516141048161509d565b6020808252600a9082015269139bdd081cdd185ad95960b21b604082015260600190565b6001600160a01b0394909416845260208401929092526040830152606082015260800190565b600060208284031215615aec57600080fd5b5051919050565b6020808252600c908201526b139bdd081d5b9b1bd8dad95960a21b604082015260600190565b60208082526028908201527f6d6178506f696e7473506572536b696c6c206d75737420626520677265617465604082015267072207468616e20360c41b606082015260800190565b6020808252602a908201527f737461727454696d65206d7573742062652061206675747572652074696d6520604082015269696e207365636f6e647360b01b606082015260800190565b6001600160a01b039384168152919092166020820152604081019190915260600190565b600060208284031215615be157600080fd5b8151801515811461410457600080fd5b6020808252602b908201527f496e697469616c697a61626c653a20636f6e7472616374206973206e6f74206960408201526a6e697469616c697a696e6760a81b606082015260800190565b60005b83811015615c57578181015183820152602001615c3f565b83811115614b565750506000910152565b7f416363657373436f6e74726f6c3a206163636f756e7420000000000000000000815260008351615ca0816017850160208801615c3c565b7001034b99036b4b9b9b4b733903937b6329607d1b6017918401918201528351615cd1816028840160208801615c3c565b01602801949350505050565b6020815260008251806020840152615cfc816040850160208701615c3c565b601f01601f19169190910160400192915050565b600081615d1f57615d1f615957565b506000190190565b634e487b7160e01b600052603160045260246000fdfe73e573f9566d61418a34d5de3ff49360f9c51fec37f7486551670290f6285dab65d7a28e3265b37a6474929f336521b332c1681b933f6cb9f3376673440d862aa2646970667358221220d1d91bdd540f550dd5b57a977e8cc23e5168089ab3de975143656a1ae1adb47b64736f6c63430008090033",
  "linkReferences": {},
  "deployedLinkReferences": {}
}