{
  "_format": "hh-sol-artifact-1",
  "contractName": "ProfessionStakingHarmonyUpgradeable",
  "sourceName": "contracts/upgradeable/npc/ProfessionStakingHarmonyUpgradeable.sol",
  "abi": [
    {
      "inputs": [],
      "stateMutability": "nonpayable",
      "type": "constructor"
    },
    {
      "anonymous": false,
      "inputs": [
        {
          "indexed": true,
          "internalType": "address",
          "name": "from",
          "type": "address"
        },
        {
          "indexed": false,
          "internalType": "uint256",
          "name": "stakedCount",
          "type": "uint256"
        },
        {
          "indexed": false,
          "internalType": "uint256",
          "name": "amount",
          "type": "uint256"
        }
      ],
      "name": "ClaimBlocked",
      "type": "event"
    },
    {
      "anonymous": false,
      "inputs": [
        {
          "indexed": true,
          "internalType": "address",
          "name": "by",
          "type": "address"
        },
        {
          "indexed": true,
          "internalType": "address",
          "name": "token",
          "type": "address"
        },
        {
          "indexed": false,
          "internalType": "uint256",
          "name": "amount",
          "type": "uint256"
        }
      ],
      "name": "Claimed",
      "type": "event"
    },
    {
      "anonymous": false,
      "inputs": [
        {
          "indexed": false,
          "internalType": "uint8",
          "name": "version",
          "type": "uint8"
        }
      ],
      "name": "Initialized",
      "type": "event"
    },
    {
      "anonymous": false,
      "inputs": [
        {
          "indexed": false,
          "internalType": "address",
          "name": "account",
          "type": "address"
        }
      ],
      "name": "Paused",
      "type": "event"
    },
    {
      "anonymous": false,
      "inputs": [
        {
          "indexed": true,
          "internalType": "address",
          "name": "from",
          "type": "address"
        },
        {
          "indexed": true,
          "internalType": "address",
          "name": "token",
          "type": "address"
        },
        {
          "indexed": false,
          "internalType": "uint256",
          "name": "amount",
          "type": "uint256"
        }
      ],
      "name": "PoolRewardsDeposited",
      "type": "event"
    },
    {
      "anonymous": false,
      "inputs": [
        {
          "indexed": true,
          "internalType": "address",
          "name": "by",
          "type": "address"
        },
        {
          "indexed": true,
          "internalType": "address",
          "name": "to",
          "type": "address"
        },
        {
          "indexed": true,
          "internalType": "address",
          "name": "token",
          "type": "address"
        },
        {
          "indexed": false,
          "internalType": "uint256",
          "name": "amount",
          "type": "uint256"
        }
      ],
      "name": "PoolRewardsWithdrawn",
      "type": "event"
    },
    {
      "anonymous": false,
      "inputs": [
        {
          "indexed": true,
          "internalType": "bytes32",
          "name": "role",
          "type": "bytes32"
        },
        {
          "indexed": true,
          "internalType": "bytes32",
          "name": "previousAdminRole",
          "type": "bytes32"
        },
        {
          "indexed": true,
          "internalType": "bytes32",
          "name": "newAdminRole",
          "type": "bytes32"
        }
      ],
      "name": "RoleAdminChanged",
      "type": "event"
    },
    {
      "anonymous": false,
      "inputs": [
        {
          "indexed": true,
          "internalType": "bytes32",
          "name": "role",
          "type": "bytes32"
        },
        {
          "indexed": true,
          "internalType": "address",
          "name": "account",
          "type": "address"
        },
        {
          "indexed": true,
          "internalType": "address",
          "name": "sender",
          "type": "address"
        }
      ],
      "name": "RoleGranted",
      "type": "event"
    },
    {
      "anonymous": false,
      "inputs": [
        {
          "indexed": true,
          "internalType": "bytes32",
          "name": "role",
          "type": "bytes32"
        },
        {
          "indexed": true,
          "internalType": "address",
          "name": "account",
          "type": "address"
        },
        {
          "indexed": true,
          "internalType": "address",
          "name": "sender",
          "type": "address"
        }
      ],
      "name": "RoleRevoked",
      "type": "event"
    },
    {
      "anonymous": false,
      "inputs": [
        {
          "indexed": true,
          "internalType": "address",
          "name": "from",
          "type": "address"
        },
        {
          "indexed": true,
          "internalType": "address",
          "name": "nftAddress",
          "type": "address"
        },
        {
          "indexed": false,
          "internalType": "uint256",
          "name": "tokenId",
          "type": "uint256"
        }
      ],
      "name": "Staked",
      "type": "event"
    },
    {
      "anonymous": false,
      "inputs": [
        {
          "indexed": true,
          "internalType": "address",
          "name": "nftAddress",
          "type": "address"
        },
        {
          "indexed": false,
          "internalType": "address",
          "name": "rewardToken",
          "type": "address"
        },
        {
          "indexed": false,
          "internalType": "uint256",
          "name": "startTime",
          "type": "uint256"
        }
      ],
      "name": "StakingConfigCreated",
      "type": "event"
    },
    {
      "anonymous": false,
      "inputs": [
        {
          "indexed": true,
          "internalType": "address",
          "name": "nftAddress",
          "type": "address"
        }
      ],
      "name": "StakingConfigDeleted",
      "type": "event"
    },
    {
      "anonymous": false,
      "inputs": [
        {
          "indexed": true,
          "internalType": "address",
          "name": "nftAddress",
          "type": "address"
        },
        {
          "indexed": false,
          "internalType": "address",
          "name": "rewardToken",
          "type": "address"
        },
        {
          "indexed": false,
          "internalType": "uint256",
          "name": "startTime",
          "type": "uint256"
        }
      ],
      "name": "StakingConfigUpdated",
      "type": "event"
    },
    {
      "anonymous": false,
      "inputs": [
        {
          "indexed": true,
          "internalType": "address",
          "name": "by",
          "type": "address"
        },
        {
          "indexed": true,
          "internalType": "address",
          "name": "nftAddress",
          "type": "address"
        },
        {
          "indexed": false,
          "internalType": "uint256",
          "name": "tokenId",
          "type": "uint256"
        }
      ],
      "name": "StakingUnlocked",
      "type": "event"
    },
    {
      "anonymous": false,
      "inputs": [
        {
          "indexed": true,
          "internalType": "address",
          "name": "by",
          "type": "address"
        },
        {
          "indexed": true,
          "internalType": "address",
          "name": "nftAddress",
          "type": "address"
        },
        {
          "indexed": false,
          "internalType": "uint256",
          "name": "tokenId",
          "type": "uint256"
        },
        {
          "indexed": false,
          "internalType": "uint256",
          "name": "treeId",
          "type": "uint256"
        },
        {
          "indexed": false,
          "internalType": "uint256",
          "name": "skillId",
          "type": "uint256"
        },
        {
          "indexed": false,
          "internalType": "uint256",
          "name": "canceledAt",
          "type": "uint256"
        }
      ],
      "name": "TrainingCanceled",
      "type": "event"
    },
    {
      "anonymous": false,
      "inputs": [
        {
          "indexed": true,
          "internalType": "address",
          "name": "by",
          "type": "address"
        },
        {
          "indexed": true,
          "internalType": "address",
          "name": "nftAddress",
          "type": "address"
        },
        {
          "indexed": false,
          "internalType": "uint256",
          "name": "tokenId",
          "type": "uint256"
        },
        {
          "indexed": false,
          "internalType": "uint256",
          "name": "treeId",
          "type": "uint256"
        },
        {
          "indexed": false,
          "internalType": "uint256",
          "name": "skillId",
          "type": "uint256"
        },
        {
          "indexed": false,
          "internalType": "uint256",
          "name": "level",
          "type": "uint256"
        }
      ],
      "name": "TrainingFinished",
      "type": "event"
    },
    {
      "anonymous": false,
      "inputs": [
        {
          "indexed": true,
          "internalType": "address",
          "name": "by",
          "type": "address"
        },
        {
          "indexed": true,
          "internalType": "address",
          "name": "nftAddress",
          "type": "address"
        },
        {
          "indexed": false,
          "internalType": "uint256",
          "name": "tokenId",
          "type": "uint256"
        },
        {
          "indexed": false,
          "internalType": "uint256",
          "name": "treeId",
          "type": "uint256"
        },
        {
          "indexed": false,
          "internalType": "uint256",
          "name": "skillId",
          "type": "uint256"
        },
        {
          "indexed": false,
          "internalType": "uint256",
          "name": "level",
          "type": "uint256"
        },
        {
          "indexed": false,
          "internalType": "uint256",
          "name": "startedAt",
          "type": "uint256"
        },
        {
          "indexed": false,
          "internalType": "uint256",
          "name": "completeAt",
          "type": "uint256"
        }
      ],
      "name": "TrainingStarted",
      "type": "event"
    },
    {
      "anonymous": false,
      "inputs": [
        {
          "indexed": false,
          "internalType": "address",
          "name": "account",
          "type": "address"
        }
      ],
      "name": "Unpaused",
      "type": "event"
    },
    {
      "anonymous": false,
      "inputs": [
        {
          "indexed": true,
          "internalType": "address",
          "name": "from",
          "type": "address"
        },
        {
          "indexed": true,
          "internalType": "address",
          "name": "nftAddress",
          "type": "address"
        },
        {
          "indexed": false,
          "internalType": "uint256",
          "name": "tokenId",
          "type": "uint256"
        }
      ],
      "name": "Unstaked",
      "type": "event"
    },
    {
      "inputs": [],
      "name": "DEFAULT_ADMIN_ROLE",
      "outputs": [
        {
          "internalType": "bytes32",
          "name": "",
          "type": "bytes32"
        }
      ],
      "stateMutability": "view",
      "type": "function"
    },
    {
      "inputs": [],
      "name": "GAME_STORAGE",
      "outputs": [
        {
          "internalType": "contract IGameStorageUpgradeable",
          "name": "",
          "type": "address"
        }
      ],
      "stateMutability": "view",
      "type": "function"
    },
    {
      "inputs": [],
      "name": "LAST_REWARD_TIME",
      "outputs": [
        {
          "internalType": "uint256",
          "name": "",
          "type": "uint256"
        }
      ],
      "stateMutability": "view",
      "type": "function"
    },
    {
      "inputs": [],
      "name": "PAUSER_ROLE",
      "outputs": [
        {
          "internalType": "bytes32",
          "name": "",
          "type": "bytes32"
        }
      ],
      "stateMutability": "view",
      "type": "function"
    },
    {
      "inputs": [],
      "name": "UPDATER_ROLE",
      "outputs": [
        {
          "internalType": "bytes32",
          "name": "",
          "type": "bytes32"
        }
      ],
      "stateMutability": "view",
      "type": "function"
    },
    {
      "inputs": [
        {
          "internalType": "address[]",
          "name": "addresses",
          "type": "address[]"
        },
        {
          "internalType": "uint256[]",
          "name": "indexes",
          "type": "uint256[]"
        },
        {
          "internalType": "address[]",
          "name": "nftAddresses",
          "type": "address[]"
        },
        {
          "internalType": "uint256[]",
          "name": "tokenIds",
          "type": "uint256[]"
        },
        {
          "internalType": "uint256[]",
          "name": "rewardFrom",
          "type": "uint256[]"
        }
      ],
      "name": "adminBatchUpdateNftData",
      "outputs": [],
      "stateMutability": "nonpayable",
      "type": "function"
    },
    {
      "inputs": [
        {
          "internalType": "address",
          "name": "user",
          "type": "address"
        }
      ],
      "name": "adminGetData",
      "outputs": [
        {
          "internalType": "uint256",
          "name": "contractBalance",
          "type": "uint256"
        },
        {
          "internalType": "uint256",
          "name": "userPending",
          "type": "uint256"
        }
      ],
      "stateMutability": "view",
      "type": "function"
    },
    {
      "inputs": [
        {
          "internalType": "address",
          "name": "_address",
          "type": "address"
        },
        {
          "internalType": "uint256",
          "name": "index",
          "type": "uint256"
        },
        {
          "internalType": "address",
          "name": "nftAddress",
          "type": "address"
        },
        {
          "internalType": "uint256",
          "name": "tokenId",
          "type": "uint256"
        },
        {
          "internalType": "uint256",
          "name": "rewardFrom",
          "type": "uint256"
        }
      ],
      "name": "adminUpdateNftData",
      "outputs": [],
      "stateMutability": "nonpayable",
      "type": "function"
    },
    {
      "inputs": [
        {
          "internalType": "address[]",
          "name": "nftAddresses",
          "type": "address[]"
        },
        {
          "internalType": "uint256[]",
          "name": "tokenIds",
          "type": "uint256[]"
        }
      ],
      "name": "batchCancelTraining",
      "outputs": [],
      "stateMutability": "nonpayable",
      "type": "function"
    },
    {
      "inputs": [
        {
          "internalType": "address[]",
          "name": "addresses",
          "type": "address[]"
        }
      ],
      "name": "batchClaimAndUnstakeForUser",
      "outputs": [],
      "stateMutability": "nonpayable",
      "type": "function"
    },
    {
      "inputs": [
        {
          "internalType": "address[]",
          "name": "nftAddresses",
          "type": "address[]"
        },
        {
          "internalType": "uint256[]",
          "name": "tokenIds",
          "type": "uint256[]"
        }
      ],
      "name": "batchEnableStaking",
      "outputs": [],
      "stateMutability": "nonpayable",
      "type": "function"
    },
    {
      "inputs": [
        {
          "internalType": "address[]",
          "name": "nftAddresses",
          "type": "address[]"
        },
        {
          "internalType": "uint256[]",
          "name": "tokenIds",
          "type": "uint256[]"
        }
      ],
      "name": "batchFinishTraining",
      "outputs": [],
      "stateMutability": "nonpayable",
      "type": "function"
    },
    {
      "inputs": [
        {
          "internalType": "uint256[]",
          "name": "level",
          "type": "uint256[]"
        },
        {
          "internalType": "uint256[]",
          "name": "cost",
          "type": "uint256[]"
        },
        {
          "internalType": "uint256[]",
          "name": "time",
          "type": "uint256[]"
        }
      ],
      "name": "batchSetTrainingCosts",
      "outputs": [],
      "stateMutability": "nonpayable",
      "type": "function"
    },
    {
      "inputs": [
        {
          "internalType": "address[]",
          "name": "nftAddresses",
          "type": "address[]"
        },
        {
          "internalType": "uint256[]",
          "name": "tokenIds",
          "type": "uint256[]"
        }
      ],
      "name": "batchStake",
      "outputs": [],
      "stateMutability": "nonpayable",
      "type": "function"
    },
    {
      "inputs": [
        {
          "internalType": "address[]",
          "name": "nftAddresses",
          "type": "address[]"
        },
        {
          "internalType": "uint256[]",
          "name": "tokenIds",
          "type": "uint256[]"
        },
        {
          "internalType": "uint256[]",
          "name": "treeIds",
          "type": "uint256[]"
        },
        {
          "internalType": "uint256[]",
          "name": "skillIds",
          "type": "uint256[]"
        }
      ],
      "name": "batchStartTraining",
      "outputs": [],
      "stateMutability": "nonpayable",
      "type": "function"
    },
    {
      "inputs": [
        {
          "internalType": "address[]",
          "name": "nftAddresses",
          "type": "address[]"
        },
        {
          "internalType": "uint256[]",
          "name": "tokenIds",
          "type": "uint256[]"
        }
      ],
      "name": "batchUnstake",
      "outputs": [],
      "stateMutability": "nonpayable",
      "type": "function"
    },
    {
      "inputs": [
        {
          "internalType": "address",
          "name": "nftAddress",
          "type": "address"
        },
        {
          "internalType": "uint256",
          "name": "tokenId",
          "type": "uint256"
        }
      ],
      "name": "cancelTraining",
      "outputs": [],
      "stateMutability": "nonpayable",
      "type": "function"
    },
    {
      "inputs": [],
      "name": "claim",
      "outputs": [],
      "stateMutability": "nonpayable",
      "type": "function"
    },
    {
      "inputs": [
        {
          "internalType": "address",
          "name": "_address",
          "type": "address"
        }
      ],
      "name": "claimAndUnstakeForUser",
      "outputs": [],
      "stateMutability": "nonpayable",
      "type": "function"
    },
    {
      "inputs": [
        {
          "internalType": "address",
          "name": "_address",
          "type": "address"
        }
      ],
      "name": "claimFor",
      "outputs": [],
      "stateMutability": "nonpayable",
      "type": "function"
    },
    {
      "inputs": [
        {
          "internalType": "address",
          "name": "nftAddress",
          "type": "address"
        },
        {
          "internalType": "address",
          "name": "rewardToken",
          "type": "address"
        },
        {
          "internalType": "uint256",
          "name": "startTime",
          "type": "uint256"
        },
        {
          "internalType": "uint256",
          "name": "maxPointsPerSkill",
          "type": "uint256"
        },
        {
          "internalType": "uint256[]",
          "name": "treeIds",
          "type": "uint256[]"
        },
        {
          "internalType": "uint256[]",
          "name": "skillIds",
          "type": "uint256[]"
        }
      ],
      "name": "createStakingConfig",
      "outputs": [],
      "stateMutability": "nonpayable",
      "type": "function"
    },
    {
      "inputs": [
        {
          "internalType": "address",
          "name": "nftAddress",
          "type": "address"
        }
      ],
      "name": "deleteStakingConfig",
      "outputs": [],
      "stateMutability": "nonpayable",
      "type": "function"
    },
    {
      "inputs": [
        {
          "internalType": "address",
          "name": "nftAddress",
          "type": "address"
        },
        {
          "internalType": "uint256",
          "name": "tokenId",
          "type": "uint256"
        }
      ],
      "name": "enableStaking",
      "outputs": [],
      "stateMutability": "nonpayable",
      "type": "function"
    },
    {
      "inputs": [
        {
          "internalType": "address",
          "name": "nftAddress",
          "type": "address"
        },
        {
          "internalType": "uint256",
          "name": "tokenId",
          "type": "uint256"
        }
      ],
      "name": "finishTraining",
      "outputs": [],
      "stateMutability": "nonpayable",
      "type": "function"
    },
    {
      "inputs": [
        {
          "internalType": "address",
          "name": "_address",
          "type": "address"
        },
        {
          "internalType": "address",
          "name": "nftAddress",
          "type": "address"
        },
        {
          "internalType": "uint256",
          "name": "tokenId",
          "type": "uint256"
        }
      ],
      "name": "forceCancelTraining",
      "outputs": [],
      "stateMutability": "nonpayable",
      "type": "function"
    },
    {
      "inputs": [],
      "name": "getActiveTraining",
      "outputs": [
        {
          "components": [
            {
              "internalType": "address",
              "name": "_address",
              "type": "address"
            },
            {
              "internalType": "uint256",
              "name": "tokenId",
              "type": "uint256"
            },
            {
              "internalType": "uint256",
              "name": "level",
              "type": "uint256"
            },
            {
              "internalType": "uint256",
              "name": "treeId",
              "type": "uint256"
            },
            {
              "internalType": "uint256",
              "name": "skillId",
              "type": "uint256"
            },
            {
              "internalType": "uint256",
              "name": "startedAt",
              "type": "uint256"
            },
            {
              "internalType": "uint256",
              "name": "completeAt",
              "type": "uint256"
            }
          ],
          "internalType": "struct ProfessionStakingHarmonyUpgradeable.TrainingStatus[]",
          "name": "",
          "type": "tuple[]"
        }
      ],
      "stateMutability": "view",
      "type": "function"
    },
    {
      "inputs": [
        {
          "internalType": "address",
          "name": "_address",
          "type": "address"
        }
      ],
      "name": "getActiveTrainingOf",
      "outputs": [
        {
          "components": [
            {
              "internalType": "address",
              "name": "_address",
              "type": "address"
            },
            {
              "internalType": "uint256",
              "name": "tokenId",
              "type": "uint256"
            },
            {
              "internalType": "uint256",
              "name": "level",
              "type": "uint256"
            },
            {
              "internalType": "uint256",
              "name": "treeId",
              "type": "uint256"
            },
            {
              "internalType": "uint256",
              "name": "skillId",
              "type": "uint256"
            },
            {
              "internalType": "uint256",
              "name": "startedAt",
              "type": "uint256"
            },
            {
              "internalType": "uint256",
              "name": "completeAt",
              "type": "uint256"
            }
          ],
          "internalType": "struct ProfessionStakingHarmonyUpgradeable.TrainingStatus[]",
          "name": "",
          "type": "tuple[]"
        }
      ],
      "stateMutability": "view",
      "type": "function"
    },
    {
      "inputs": [],
      "name": "getAllParticipantData",
      "outputs": [
        {
          "internalType": "address[]",
          "name": "addresses",
          "type": "address[]"
        },
        {
          "components": [
            {
              "internalType": "address",
              "name": "_address",
              "type": "address"
            },
            {
              "internalType": "uint256",
              "name": "tokenId",
              "type": "uint256"
            },
            {
              "internalType": "uint256",
              "name": "rewardFrom",
              "type": "uint256"
            }
          ],
          "internalType": "struct ProfessionStakingHarmonyUpgradeable.NFT[][]",
          "name": "nfts",
          "type": "tuple[][]"
        },
        {
          "internalType": "uint256[]",
          "name": "rewards",
          "type": "uint256[]"
        }
      ],
      "stateMutability": "view",
      "type": "function"
    },
    {
      "inputs": [
        {
          "internalType": "address",
          "name": "nftAddress",
          "type": "address"
        },
        {
          "internalType": "uint256",
          "name": "tokenId",
          "type": "uint256"
        }
      ],
      "name": "getAllowedSkillChoices",
      "outputs": [
        {
          "internalType": "uint256[]",
          "name": "",
          "type": "uint256[]"
        }
      ],
      "stateMutability": "view",
      "type": "function"
    },
    {
      "inputs": [
        {
          "internalType": "bytes32",
          "name": "role",
          "type": "bytes32"
        }
      ],
      "name": "getRoleAdmin",
      "outputs": [
        {
          "internalType": "bytes32",
          "name": "",
          "type": "bytes32"
        }
      ],
      "stateMutability": "view",
      "type": "function"
    },
    {
      "inputs": [],
      "name": "getStaked",
      "outputs": [
        {
          "components": [
            {
              "internalType": "address",
              "name": "_address",
              "type": "address"
            },
            {
              "internalType": "uint256",
              "name": "tokenId",
              "type": "uint256"
            },
            {
              "internalType": "uint256",
              "name": "rewardFrom",
              "type": "uint256"
            }
          ],
          "internalType": "struct ProfessionStakingHarmonyUpgradeable.NFT[]",
          "name": "",
          "type": "tuple[]"
        }
      ],
      "stateMutability": "view",
      "type": "function"
    },
    {
      "inputs": [
        {
          "internalType": "address",
          "name": "_address",
          "type": "address"
        }
      ],
      "name": "getStakedOf",
      "outputs": [
        {
          "components": [
            {
              "internalType": "address",
              "name": "_address",
              "type": "address"
            },
            {
              "internalType": "uint256",
              "name": "tokenId",
              "type": "uint256"
            },
            {
              "internalType": "uint256",
              "name": "rewardFrom",
              "type": "uint256"
            }
          ],
          "internalType": "struct ProfessionStakingHarmonyUpgradeable.NFT[]",
          "name": "",
          "type": "tuple[]"
        }
      ],
      "stateMutability": "view",
      "type": "function"
    },
    {
      "inputs": [
        {
          "internalType": "address",
          "name": "ntfAddress",
          "type": "address"
        },
        {
          "internalType": "uint256",
          "name": "tokenId",
          "type": "uint256"
        }
      ],
      "name": "getTotalProfessionSkillPoints",
      "outputs": [
        {
          "internalType": "uint256",
          "name": "",
          "type": "uint256"
        }
      ],
      "stateMutability": "view",
      "type": "function"
    },
    {
      "inputs": [
        {
          "internalType": "address",
          "name": "_address",
          "type": "address"
        },
        {
          "internalType": "address",
          "name": "nftAddress",
          "type": "address"
        },
        {
          "internalType": "uint256",
          "name": "tokenId",
          "type": "uint256"
        }
      ],
      "name": "getTrainingStatus",
      "outputs": [
        {
          "components": [
            {
              "internalType": "address",
              "name": "_address",
              "type": "address"
            },
            {
              "internalType": "uint256",
              "name": "tokenId",
              "type": "uint256"
            },
            {
              "internalType": "uint256",
              "name": "level",
              "type": "uint256"
            },
            {
              "internalType": "uint256",
              "name": "treeId",
              "type": "uint256"
            },
            {
              "internalType": "uint256",
              "name": "skillId",
              "type": "uint256"
            },
            {
              "internalType": "uint256",
              "name": "startedAt",
              "type": "uint256"
            },
            {
              "internalType": "uint256",
              "name": "completeAt",
              "type": "uint256"
            }
          ],
          "internalType": "struct ProfessionStakingHarmonyUpgradeable.TrainingStatus",
          "name": "",
          "type": "tuple"
        }
      ],
      "stateMutability": "view",
      "type": "function"
    },
    {
      "inputs": [
        {
          "internalType": "bytes32",
          "name": "role",
          "type": "bytes32"
        },
        {
          "internalType": "address",
          "name": "account",
          "type": "address"
        }
      ],
      "name": "grantRole",
      "outputs": [],
      "stateMutability": "nonpayable",
      "type": "function"
    },
    {
      "inputs": [
        {
          "internalType": "bytes32",
          "name": "role",
          "type": "bytes32"
        },
        {
          "internalType": "address",
          "name": "account",
          "type": "address"
        }
      ],
      "name": "hasRole",
      "outputs": [
        {
          "internalType": "bool",
          "name": "",
          "type": "bool"
        }
      ],
      "stateMutability": "view",
      "type": "function"
    },
    {
      "inputs": [],
      "name": "initialize",
      "outputs": [],
      "stateMutability": "nonpayable",
      "type": "function"
    },
    {
      "inputs": [
        {
          "internalType": "address",
          "name": "nftAddress",
          "type": "address"
        },
        {
          "internalType": "uint256",
          "name": "tokenId",
          "type": "uint256"
        }
      ],
      "name": "isStakingEnabled",
      "outputs": [
        {
          "internalType": "bool",
          "name": "",
          "type": "bool"
        }
      ],
      "stateMutability": "view",
      "type": "function"
    },
    {
      "inputs": [
        {
          "internalType": "address",
          "name": "_address",
          "type": "address"
        },
        {
          "internalType": "address",
          "name": "nftAddress",
          "type": "address"
        },
        {
          "internalType": "uint256",
          "name": "tokenId",
          "type": "uint256"
        },
        {
          "internalType": "uint256",
          "name": "skillId",
          "type": "uint256"
        }
      ],
      "name": "modifyActiveTrainingSkill",
      "outputs": [],
      "stateMutability": "nonpayable",
      "type": "function"
    },
    {
      "inputs": [
        {
          "internalType": "address",
          "name": "",
          "type": "address"
        },
        {
          "internalType": "address",
          "name": "",
          "type": "address"
        },
        {
          "internalType": "uint256",
          "name": "",
          "type": "uint256"
        },
        {
          "internalType": "bytes",
          "name": "",
          "type": "bytes"
        }
      ],
      "name": "onERC721Received",
      "outputs": [
        {
          "internalType": "bytes4",
          "name": "",
          "type": "bytes4"
        }
      ],
      "stateMutability": "pure",
      "type": "function"
    },
    {
      "inputs": [],
      "name": "pause",
      "outputs": [],
      "stateMutability": "nonpayable",
      "type": "function"
    },
    {
      "inputs": [],
      "name": "paused",
      "outputs": [
        {
          "internalType": "bool",
          "name": "",
          "type": "bool"
        }
      ],
      "stateMutability": "view",
      "type": "function"
    },
    {
      "inputs": [],
      "name": "pendingRewards",
      "outputs": [
        {
          "internalType": "uint256",
          "name": "",
          "type": "uint256"
        }
      ],
      "stateMutability": "view",
      "type": "function"
    },
    {
      "inputs": [
        {
          "internalType": "address",
          "name": "_address",
          "type": "address"
        }
      ],
      "name": "pendingRewardsOf",
      "outputs": [
        {
          "internalType": "uint256",
          "name": "",
          "type": "uint256"
        }
      ],
      "stateMutability": "view",
      "type": "function"
    },
    {
      "inputs": [
        {
          "internalType": "bytes32",
          "name": "role",
          "type": "bytes32"
        },
        {
          "internalType": "address",
          "name": "account",
          "type": "address"
        }
      ],
      "name": "renounceRole",
      "outputs": [],
      "stateMutability": "nonpayable",
      "type": "function"
    },
    {
      "inputs": [
        {
          "internalType": "bytes32",
          "name": "role",
          "type": "bytes32"
        },
        {
          "internalType": "address",
          "name": "account",
          "type": "address"
        }
      ],
      "name": "revokeRole",
      "outputs": [],
      "stateMutability": "nonpayable",
      "type": "function"
    },
    {
      "inputs": [
        {
          "internalType": "address",
          "name": "_address",
          "type": "address"
        }
      ],
      "name": "setGameStorage",
      "outputs": [],
      "stateMutability": "nonpayable",
      "type": "function"
    },
    {
      "inputs": [
        {
          "internalType": "uint256",
          "name": "time",
          "type": "uint256"
        }
      ],
      "name": "setLastRewardTime",
      "outputs": [],
      "stateMutability": "nonpayable",
      "type": "function"
    },
    {
      "inputs": [
        {
          "internalType": "address",
          "name": "nftAddress",
          "type": "address"
        },
        {
          "internalType": "uint256",
          "name": "treeId",
          "type": "uint256"
        },
        {
          "internalType": "uint256",
          "name": "skillId",
          "type": "uint256"
        }
      ],
      "name": "setSkillPointer",
      "outputs": [],
      "stateMutability": "nonpayable",
      "type": "function"
    },
    {
      "inputs": [
        {
          "internalType": "uint256",
          "name": "level",
          "type": "uint256"
        },
        {
          "internalType": "uint256",
          "name": "cost",
          "type": "uint256"
        },
        {
          "internalType": "uint256",
          "name": "time",
          "type": "uint256"
        }
      ],
      "name": "setTrainingCost",
      "outputs": [],
      "stateMutability": "nonpayable",
      "type": "function"
    },
    {
      "inputs": [
        {
          "internalType": "address",
          "name": "nftAddress",
          "type": "address"
        },
        {
          "internalType": "uint256",
          "name": "tokenId",
          "type": "uint256"
        }
      ],
      "name": "stake",
      "outputs": [],
      "stateMutability": "nonpayable",
      "type": "function"
    },
    {
      "inputs": [
        {
          "internalType": "address",
          "name": "nftAddress",
          "type": "address"
        },
        {
          "internalType": "uint256",
          "name": "tokenId",
          "type": "uint256"
        },
        {
          "internalType": "uint256",
          "name": "treeId",
          "type": "uint256"
        },
        {
          "internalType": "uint256",
          "name": "skillId",
          "type": "uint256"
        }
      ],
      "name": "startTraining",
      "outputs": [],
      "stateMutability": "nonpayable",
      "type": "function"
    },
    {
      "inputs": [
        {
          "internalType": "bytes4",
          "name": "interfaceId",
          "type": "bytes4"
        }
      ],
      "name": "supportsInterface",
      "outputs": [
        {
          "internalType": "bool",
          "name": "",
          "type": "bool"
        }
      ],
      "stateMutability": "view",
      "type": "function"
    },
    {
      "inputs": [],
      "name": "unpause",
      "outputs": [],
      "stateMutability": "nonpayable",
      "type": "function"
    },
    {
      "inputs": [
        {
          "internalType": "address",
          "name": "nftAddress",
          "type": "address"
        },
        {
          "internalType": "uint256",
          "name": "tokenId",
          "type": "uint256"
        }
      ],
      "name": "unstake",
      "outputs": [],
      "stateMutability": "nonpayable",
      "type": "function"
    },
    {
      "inputs": [
        {
          "internalType": "address",
          "name": "nftAddress",
          "type": "address"
        },
        {
          "internalType": "address",
          "name": "rewardToken",
          "type": "address"
        },
        {
          "internalType": "uint256",
          "name": "startTime",
          "type": "uint256"
        },
        {
          "internalType": "uint256",
          "name": "maxPointsPerSkill",
          "type": "uint256"
        }
      ],
      "name": "updateStakingConfig",
      "outputs": [],
      "stateMutability": "nonpayable",
      "type": "function"
    },
    {
      "inputs": [
        {
          "internalType": "address",
          "name": "to",
          "type": "address"
        },
        {
          "internalType": "address",
          "name": "token",
          "type": "address"
        },
        {
          "internalType": "uint256",
          "name": "amount",
          "type": "uint256"
        }
      ],
      "name": "withdrawPoolRewards",
      "outputs": [],
      "stateMutability": "nonpayable",
      "type": "function"
    }
  ],
  "bytecode": "0x60806040523480156200001157600080fd5b50600054610100900460ff1615808015620000335750600054600160ff909116105b8062000063575062000050306200013d60201b620040c61760201c565b15801562000063575060005460ff166001145b620000cb5760405162461bcd60e51b815260206004820152602e60248201527f496e697469616c697a61626c653a20636f6e747261637420697320616c72656160448201526d191e481a5b9a5d1a585b1a5e995960921b606482015260840160405180910390fd5b6000805460ff191660011790558015620000ef576000805461ff0019166101001790555b801562000136576000805461ff0019169055604051600181527f7f26b83ff96e1f2b6a682f133852f6798a09c465da95921460cefb38474024989060200160405180910390a15b506200014c565b6001600160a01b03163b151590565b615f16806200015c6000396000f3fe608060405234801561001057600080fd5b50600436106103835760003560e01c806386e8953d116101de578063bea64ba21161010f578063d547741f116100ad578063e63ab1e91161007c578063e63ab1e9146107f2578063eded3fda14610807578063f87b9cc21461080f578063fa5887ee1461082257600080fd5b8063d547741f146107a6578063d9a2c1d2146107b9578063ddeae033146107cc578063e62ccc9c146107df57600080fd5b8063c75fb3e3116100e9578063c75fb3e31461075a578063ca6146601461076d578063cc3f7b1c14610780578063d3a13d421461079357600080fd5b8063bea64ba21461071f578063c2a672e014610732578063c59abf9f1461074557600080fd5b8063a401344b1161017c578063aed2151a11610156578063aed2151a146106dd578063aeeba615146106f0578063b7093e8014610703578063be29c9251461070c57600080fd5b8063a401344b146106a4578063abfc6e73146106b7578063adc9772e146106ca57600080fd5b806394a77066116101b857806394a770661461066e57806396856096146106815780639f8f606814610694578063a217fddf1461069c57600080fd5b806386e8953d14610620578063884f505b1461063357806391d148541461065b57600080fd5b80633f4ba83a116102b85780635c975abb1161025657806376c7e36a1161023057806376c7e36a146105dd5780638129fc1c146105fd57806381fda71d146106055780638456cb591461061857600080fd5b80635c975abb146105ac578063729c3553146105b757806375fa6e31146105ca57600080fd5b80634cb12fee116102925780634cb12fee1461055e5780634e71d92d146105715780634eeea443146105795780635a2d88001461058c57600080fd5b80633f4ba83a1461052a578063421f72c71461053257806347e633801461054957600080fd5b8063248a9ca31161032557806333820bac116102ff57806333820bac146104de57806336568abe146104f15780633988bad8146105045780633d564e491461051757600080fd5b8063248a9ca3146104875780632f2ff15d146104b857806332b95a6f146104cb57600080fd5b8063150b7a0211610361578063150b7a02146103d857806319545487146104295780632119e1401461043c57806323de54d81461045c57600080fd5b806301ffc9a7146103885780630ae7a461146103b0578063139bed4c146103c5575b600080fd5b61039b610396366004615141565b610835565b60405190151581526020015b60405180910390f35b6103c36103be36600461516b565b61086c565b005b6103c36103d33660046152e4565b61089d565b6104106103e63660046153b5565b7f150b7a023d4804d13e8c85fb27262cb750cf6ba9f9dd3bb30d90f482ceeb4b1f95945050505050565b6040516001600160e01b031990911681526020016103a7565b6103c3610437366004615453565b610959565b61044f61044a3660046154b6565b6109e2565b6040516103a79190615541565b60c95461046f906001600160a01b031681565b6040516001600160a01b0390911681526020016103a7565b6104aa61049536600461554f565b60009081526097602052604090206001015490565b6040519081526020016103a7565b6103c36104c6366004615568565b610a6c565b6103c36104d9366004615453565b610a91565b6103c36104ec366004615598565b610b2d565b6103c36104ff366004615568565b610b68565b6104aa6105123660046155cd565b610be6565b6103c3610525366004615453565b610d44565b6103c3610dbf565b61053a610dea565b6040516103a793929190615674565b6104aa600080516020615ea183398151915281565b6103c361056c366004615728565b610fd4565b6103c36113fa565b6103c3610587366004615754565b611413565b61059f61059a366004615728565b611500565b6040516103a791906157a6565b60335460ff1661039b565b6103c36105c53660046154b6565b6119e7565b6103c36105d836600461554f565b611a5a565b6105f06105eb3660046155cd565b611a6b565b6040516103a791906157b9565b6103c3611db0565b6104aa610613366004615728565b611f03565b6103c3611fc3565b61039b61062e366004615728565b611feb565b6106466106413660046155cd565b6120ae565b604080519283526020830191909152016103a7565b61039b610669366004615568565b612165565b6103c361067c366004615807565b612190565b6103c361068f3660046158a1565b612555565b6105f06125a0565b6104aa600081565b6103c36106b23660046155cd565b6125b0565b6103c36106c53660046158dd565b612658565b6103c36106d8366004615728565b612858565b6103c36106eb366004615923565b612bda565b6103c36106fe366004615453565b612cdc565b6104aa60d25481565b6103c361071a3660046159aa565b612d78565b6103c361072d3660046154b6565b612f02565b6103c3610740366004615728565b6130b4565b61074d6130bf565b6040516103a79190615a56565b61074d6107683660046155cd565b6130c6565b6103c361077b3660046158dd565b61315e565b6103c361078e366004615728565b6131a3565b6103c36107a13660046155cd565b613564565b6103c36107b4366004615568565b61359f565b6103c36107c7366004615453565b6135c4565b6103c36107da3660046155cd565b61363f565b6103c36107ed366004615728565b61369e565b6104aa600080516020615ec183398151915281565b6104aa61397a565b6103c361081d3660046155cd565b613985565b6103c3610830366004615a69565b613a5e565b60006001600160e01b03198216637965db0b60e01b148061086657506301ffc9a760e01b6001600160e01b03198316145b92915050565b600080516020615ea1833981519152610884816140d5565b50600092835260cb602052604090922090815560010155565b60006108a8816140d5565b60005b86518110156109505761093e8782815181106108c9576108c9615aa4565b60200260200101518783815181106108e3576108e3615aa4565b60200260200101518784815181106108fd576108fd615aa4565b602002602001015187858151811061091757610917615aa4565b602002602001015187868151811061093157610931615aa4565b6020026020010151611413565b8061094881615ad0565b9150506108ab565b50505050505050565b80518251146109835760405162461bcd60e51b815260040161097a90615aeb565b60405180910390fd5b60005b82518110156109dd576109cb8382815181106109a4576109a4615aa4565b60200260200101518383815181106109be576109be615aa4565b6020026020010151610fd4565b806109d581615ad0565b915050610986565b505050565b6109ea615076565b506001600160a01b03928316600090815260ca602090815260408083209486168352938152838220928252918252829020825160e081018452815490941684526001810154918401919091526002810154918301919091526003810154606083015260048101546080830152600581015460a08301526006015460c082015290565b600082815260976020526040902060010154610a87816140d5565b6109dd83836140df565b4260d25411610ab25760405162461bcd60e51b815260040161097a90615b2f565b8051825114610ad35760405162461bcd60e51b815260040161097a90615aeb565b60005b82518110156109dd57610b1b838281518110610af457610af4615aa4565b6020026020010151838381518110610b0e57610b0e615aa4565b6020026020010151612858565b80610b2581615ad0565b915050610ad6565b600080516020615ea1833981519152610b45816140d5565b506001600160a01b03909216600090815260d06020526040902090815560010155565b6001600160a01b0381163314610bd85760405162461bcd60e51b815260206004820152602f60248201527f416363657373436f6e74726f6c3a2063616e206f6e6c792072656e6f756e636560448201526e103937b632b9903337b91039b2b63360891b606482015260840161097a565b610be28282614165565b5050565b6001600160a01b038116600090815260d1602090815260408083205460cc9092528220825b8154811015610d3b5760d254826000018281548110610c2c57610c2c615aa4565b90600052602060002090600302016002015410610c4857610d29565b6000826000018281548110610c5f57610c5f615aa4565b90600052602060002090600302016002015460d254610c7e9190615b66565b90506000610ce2846000018481548110610c9a57610c9a615aa4565b600091825260209091206003909102015485546001600160a01b0390911690869086908110610ccb57610ccb615aa4565b906000526020600020906003020160010154611f03565b90508162015180610cf4836001615b7d565b610d0690670de0b6b3a7640000615b95565b610d109190615bb4565b610d1a9190615b95565b610d249086615b7d565b945050505b80610d3381615ad0565b915050610c0b565b50909392505050565b8051825114610d655760405162461bcd60e51b815260040161097a90615aeb565b60005b82518110156109dd57610dad838281518110610d8657610d86615aa4565b6020026020010151838381518110610da057610da0615aa4565b60200260200101516130b4565b80610db781615ad0565b915050610d68565b600080516020615ec1833981519152610dd7816140d5565b610ddf6141cc565b610de7614200565b50565b60608060606000610dfb60cd614252565b9050806001600160401b03811115610e1557610e15615197565b604051908082528060200260200182016040528015610e3e578160200160208202803683370190505b509150806001600160401b03811115610e5957610e59615197565b604051908082528060200260200182016040528015610e8c57816020015b6060815260200190600190039081610e775790505b50925060005b81811015610fc15760cc6000610ea960cd8461425c565b6001600160a01b03166001600160a01b03168152602001908152602001600020600001805480602002602001604051908101604052809291908181526020016000905b82821015610f41576000848152602090819020604080516060810182526003860290920180546001600160a01b0316835260018082015484860152600290910154918301919091529083529092019101610eec565b50505050848281518110610f5757610f57615aa4565b602090810291909101015260d16000610f7160cd8461425c565b6001600160a01b03166001600160a01b0316815260200190815260200160002054838281518110610fa457610fa4615aa4565b602090810291909101015280610fb981615ad0565b915050610e92565b50610fcc60cd61426f565b935050909192565b6040516331a9108f60e11b8152600481018290528290829030906001600160a01b03841690636352211e9060240160206040518083038186803b15801561101a57600080fd5b505afa15801561102e573d6000803e3d6000fd5b505050506040513d601f19601f820116820180604052508101906110529190615bd6565b6001600160a01b0316146110785760405162461bcd60e51b815260040161097a90615bf3565b60c95460405163537a724f60e11b8152859185916001600160a01b039091169063a6f4e49e906110b390859085906000908190600401615c17565b60206040518083038186803b1580156110cb57600080fd5b505afa1580156110df573d6000803e3d6000fd5b505050506040513d601f19601f820116820180604052508101906111039190615c3d565b6001146111225760405162461bcd60e51b815260040161097a90615c56565b33600090815260ca602090815260408083206001600160a01b038a16845282528083208884529091529020600581015461118d5760405162461bcd60e51b815260206004820152600c60248201526b4e6f7420747261696e696e6760a01b604482015260640161097a565b42816006015411156111e15760405162461bcd60e51b815260206004820152601a60248201527f547261696e696e67207374696c6c20696e2070726f6772657373000000000000604482015260640161097a565b60005b33600090815260cc60205260409020548110156112875733600090815260cc6020526040902080548891908390811061121f5761121f615aa4565b906000526020600020906003020160010154141561127557611270335b33600090815260cc6020526040902080548490811061125d5761125d615aa4565b906000526020600020906003020161427c565b611287565b8061127f81615ad0565b9150506111e4565b5060c95460038201546004808401546002850154604051630d126da960e11b81526001600160a01b038d811694820194909452602481018c905260448101949094526064840191909152608483015290911690631a24db529060a401600060405180830381600087803b1580156112fd57600080fd5b505af1158015611311573d6000803e3d6000fd5b50505050866001600160a01b03166113263390565b6001600160a01b03167f4cffb663b46d78e759211fc8a998ed5dd16066c4229b4b4e94bc0ff7431e85a888846003015485600401548660020154604051611386949392919093845260208401929092526040830152606082015260800190565b60405180910390a3505033600090815260ca602090815260408083206001600160a01b039890981683529681528682209582529490945250505090812080546001600160a01b0319168155600181018290556002810182905560038101829055600481018290556005810182905560060155565b611408336142a5565b6142a5565b611411336142f3565b565b600061141e816140d5565b6001600160a01b038616600090815260cc6020526040902080548591908790811061144b5761144b615aa4565b6000918252602080832060039290920290910180546001600160a01b0319166001600160a01b03948516179055918816815260cc9091526040902080548491908790811061149b5761149b615aa4565b600091825260209091206001600390920201015581156114f8576001600160a01b038616600090815260cc602052604090208054839190879081106114e2576114e2615aa4565b9060005260206000209060030201600201819055505b505050505050565b6001600160a01b038216600090815260cf60209081526040808320815160a0810183528154815260018201548185015260028201805484518187028101870186528181526060979693958601939092919083018282801561158057602002820191906000526020600020905b81548152602001906001019080831161156c575b50505050508152602001600382018054806020026020016040519081016040528092919081815260200182805480156115d857602002820191906000526020600020905b8154815260200190600101908083116115c4575b5050509183525050600491909101546001600160a01b031660209091015280519091506116475760405162461bcd60e51b815260206004820152601e60248201527f4e6f20747261696e696e672073657373696f6e20636f6e666967757265640000604482015260640161097a565b60008160400151516001600160401b0381111561166657611666615197565b60405190808252806020026020018201604052801561168f578160200160208202803683370190505b50905060008060005b8460400151518110156117fe5760c954604086015180516001600160a01b039092169163a6f4e49e918b918b9190869081106116d6576116d6615aa4565b6020026020010151896060015186815181106116f4576116f4615aa4565b60200260200101516040518563ffffffff1660e01b815260040161171b9493929190615c17565b60206040518083038186803b15801561173357600080fd5b505afa158015611747573d6000803e3d6000fd5b505050506040513d601f19601f8201168201806040525081019061176b9190615c3d565b84828151811061177d5761177d615aa4565b602002602001018181525050600084828151811061179d5761179d615aa4565b602002602001015111156117b957826117b581615ad0565b9350505b84602001518482815181106117d0576117d0615aa4565b602002602001015114156117ec57816117e881615ad0565b9250505b806117f681615ad0565b915050611698565b508161181257505050606001519050610866565b806002141561182957506060935061086692505050565b6000600185604001515161183d9190615b66565b6001600160401b0381111561185457611854615197565b60405190808252806020026020018201604052801561187d578160200160208202803683370190505b5090506000805b85518110156119d95783600114801561189d5750846001145b80156118c257508581815181106118b6576118b6615aa4565b60200260200101516000145b1561191057866060015181815181106118dd576118dd615aa4565b60200260200101518383815181106118f7576118f7615aa4565b60209081029190910101528161190c81615ad0565b9250505b600086828151811061192457611924615aa4565b60200260200101511180156119555750866020015186828151811061194b5761194b615aa4565b6020026020010151105b156119c757604080516001808252818301909252600091602080830190803683370190505090508760600151828151811061199257611992615aa4565b6020026020010151816000815181106119ad576119ad615aa4565b602090810291909101015297506108669650505050505050565b806119d181615ad0565b915050611884565b509098975050505050505050565b60006119f2816140d5565b506001600160a01b03928316600090815260ca60209081526040808320949095168252928352838120918152915290812080546001600160a01b0319168155600181018290556002810182905560038101829055600481018290556005810182905560060155565b6000611a65816140d5565b5060d255565b6001600160a01b038116600090815260cc60209081526040808320805482518185028101850190935280835260609493849084015b82821015611af5576000848152602090819020604080516060810182526003860290920180546001600160a01b0316835260018082015484860152600290910154918301919091529083529092019101611aa0565b5050505090506000805b8251811015611c15576001600160a01b038516600090815260ca6020526040812084518290869085908110611b3657611b36615aa4565b6020026020010151600001516001600160a01b03166001600160a01b031681526020019081526020016000206000858481518110611b7657611b76615aa4565b6020908102919091018101518101518252818101929092526040908101600020815160e08101835281546001600160a01b031681526001820154938101939093526002810154918301919091526003810154606083015260048101546080830152600581015460a08301526006015460c0820181905290915015611c025782611bfe81615ad0565b9350505b5080611c0d81615ad0565b915050611aff565b506000816001600160401b03811115611c3057611c30615197565b604051908082528060200260200182016040528015611c6957816020015b611c56615076565b815260200190600190039081611c4e5790505b5090506000805b8451811015611da5576001600160a01b038716600090815260ca6020526040812086518290889085908110611ca757611ca7615aa4565b6020026020010151600001516001600160a01b03166001600160a01b031681526020019081526020016000206000878481518110611ce757611ce7615aa4565b6020908102919091018101518101518252818101929092526040908101600020815160e08101835281546001600160a01b031681526001820154938101939093526002810154918301919091526003810154606083015260048101546080830152600581015460a08301526006015460c0820181905290915015611d925780848481518110611d7857611d78615aa4565b60200260200101819052508280611d8e90615ad0565b9350505b5080611d9d81615ad0565b915050611c70565b509095945050505050565b600054610100900460ff1615808015611dd05750600054600160ff909116105b80611dea5750303b158015611dea575060005460ff166001145b611e4d5760405162461bcd60e51b815260206004820152602e60248201527f496e697469616c697a61626c653a20636f6e747261637420697320616c72656160448201526d191e481a5b9a5d1a585b1a5e995960921b606482015260840161097a565b6000805460ff191660011790558015611e70576000805461ff0019166101001790555b611e7861450d565b611e8061453c565b611e8b6000336140df565b611ea3600080516020615ec1833981519152336140df565b611ebb600080516020615ea1833981519152336140df565b8015610de7576000805461ff0019169055604051600181527f7f26b83ff96e1f2b6a682f133852f6798a09c465da95921460cefb38474024989060200160405180910390a150565b600080805b600c811015611fbb5760c95460405163537a724f60e11b81526000916001600160a01b03169063a6f4e49e90611f4990899089906001908890600401615c17565b60206040518083038186803b158015611f6157600080fd5b505afa158015611f75573d6000803e3d6000fd5b505050506040513d601f19601f82011682018060405250810190611f999190615c3d565b9050611fa58184615b7d565b9250508080611fb390615ad0565b915050611f08565b509392505050565b600080516020615ec1833981519152611fdb816140d5565b611fe36141cc565b610de7614563565b6001600160a01b03808316600090815260d0602052604080822060c95481546001830154935163537a724f60e11b8152949592948694929093169263a6f4e49e9261203d928a928a9290600401615c17565b60206040518083038186803b15801561205557600080fd5b505afa158015612069573d6000803e3d6000fd5b505050506040513d601f19601f8201168201806040525081019061208d9190615c3d565b905080600114156120a357600192505050610866565b506000949350505050565b600080806120bb816140d5565b6001600160a01b038416600090815260d16020526040908190205490516370a0823160e01b815230600482015290925073892d81221484f690c0a97d3dd18b9144a3ecdfb79081906370a082319060240160206040518083038186803b15801561212457600080fd5b505afa158015612138573d6000803e3d6000fd5b505050506040513d601f19601f8201168201806040525081019061215c9190615c3d565b93505050915091565b60009182526097602090815260408084206001600160a01b0393909316845291905290205460ff1690565b600080516020615ea18339815191526121a8816140d5565b6001600160a01b038716600090815260cf60205260409020541561220e5760405162461bcd60e51b815260206004820152601d60248201527f5374616b696e6720636f6e66696720616c726561647920657869737473000000604482015260640161097a565b60008351116122575760405162461bcd60e51b81526020600482015260156024820152744d697373696e672074726565496420636f6e66696760581b604482015260640161097a565b60008251116122a15760405162461bcd60e51b81526020600482015260166024820152754d697373696e6720736b696c6c496420636f6e66696760501b604482015260640161097a565b82518251146123015760405162461bcd60e51b815260206004820152602660248201527f5472656549647320616e6420536b696c6c49647320617272617973206d757374604482015265040dac2e8c6d60d31b606482015260840161097a565b600084116123215760405162461bcd60e51b815260040161097a90615c7c565b4285116123405760405162461bcd60e51b815260040161097a90615cc4565b6040516370a0823160e01b81523060048201526000906001600160a01b038816906370a082319060240160206040518083038186803b15801561238257600080fd5b505afa158015612396573d6000803e3d6000fd5b505050506040513d601f19601f820116820180604052508101906123ba9190615c3d565b116123fe5760405162461bcd60e51b81526020600482015260146024820152734e6f2066756e647320666f72207265776172647360601b604482015260640161097a565b6124066141cc565b6001600160a01b03878116600090815260cf602052604081206004810180546001600160a01b031916938a169390931790925586825560019091018590555b83518110156125055760cf6000896001600160a01b03166001600160a01b0316815260200190815260200160002060020184828151811061248857612488615aa4565b6020908102919091018101518254600181018455600093845282842001556001600160a01b038a16825260cf90526040902083516003909101908490839081106124d4576124d4615aa4565b60209081029190910181015182546001810184556000938452919092200155806124fd81615ad0565b915050612445565b50604080516001600160a01b038881168252602082018890528916917fc6e5f1ee3138795eeda2fa0aab37379a177c4f04396146dd2b154ab55f5c5585910160405180910390a250505050505050565b6000612560816140d5565b60005b82518110156109dd5761258e83828151811061258157612581615aa4565b6020026020010151613985565b8061259881615ad0565b915050612563565b60606125ab33611a6b565b905090565b600080516020615ea18339815191526125c8816140d5565b6125d06141cc565b6001600160a01b038216600090815260cf60205260408120818155600181018290559061260060028301826150bc565b61260e6003830160006150bc565b5060040180546001600160a01b03191690556040516001600160a01b038316907fed93036dfb7e5500a2a7f2471a56e6b3389a8c28c72adca8ba9f6a4025ca6d5890600090a25050565b600080516020615ea1833981519152612670816140d5565b6001600160a01b038516600090815260cf60205260409020546126d55760405162461bcd60e51b815260206004820152601d60248201527f5374616b696e6720636f6e66696720646f6573206e6f74206578697374000000604482015260640161097a565b600082116126f55760405162461bcd60e51b815260040161097a90615c7c565b4283116127145760405162461bcd60e51b815260040161097a90615cc4565b6040516370a0823160e01b81523060048201526000906001600160a01b038616906370a082319060240160206040518083038186803b15801561275657600080fd5b505afa15801561276a573d6000803e3d6000fd5b505050506040513d601f19601f8201168201806040525081019061278e9190615c3d565b116127d25760405162461bcd60e51b81526020600482015260146024820152734e6f2066756e647320666f72207265776172647360601b604482015260640161097a565b6127da6141cc565b6001600160a01b03858116600081815260cf60209081526040918290206004810180546001600160a01b031916958a169586179055878155600181018790558251948552908401879052927f255d2940ab142f16cd2452c452fc20185bcbc341ce9c1646bc3d4feac9dc3371910160405180910390a2505050505050565b4260d254116128795760405162461bcd60e51b815260040161097a90615b2f565b6040516331a9108f60e11b8152600481018290528290829030906001600160a01b03841690636352211e9060240160206040518083038186803b1580156128bf57600080fd5b505afa1580156128d3573d6000803e3d6000fd5b505050506040513d601f19601f820116820180604052508101906128f79190615bd6565b6001600160a01b0316141561293f5760405162461bcd60e51b815260206004820152600e60248201526d105b1c9958591e481cdd185ad95960921b604482015260640161097a565b60c95460405163537a724f60e11b8152859185916001600160a01b039091169063a6f4e49e9061297a90859085906000908190600401615c17565b60206040518083038186803b15801561299257600080fd5b505afa1580156129a6573d6000803e3d6000fd5b505050506040513d601f19601f820116820180604052508101906129ca9190615c3d565b6001146129e95760405162461bcd60e51b815260040161097a90615c56565b6001600160a01b038616600090815260cf6020526040902054612a3e5760405162461bcd60e51b815260206004820152600d60248201526c496e76616c6964207374616b6560981b604482015260640161097a565b6001600160a01b038616600090815260cf6020526040902054421015612aa05760405162461bcd60e51b815260206004820152601760248201527614dd185ada5b99c81a185cc81b9bdd081cdd185c9d1959604a1b604482015260640161097a565b604051632142170760e11b81526001600160a01b038716906342842e0e90612ad090339030908a90600401615d0e565b600060405180830381600087803b158015612aea57600080fd5b505af1158015612afe573d6000803e3d6000fd5b50505050612b14612b0c3390565b60cd906145a0565b5033600090815260cc6020908152604080832081516060810183526001600160a01b038b811682528185018b815242948301948552835460018082018655948852959096209151600390950290910180546001600160a01b031916949091169390931783559251928201929092559051600290910155612b926113fa565b6040518581526001600160a01b0387169033907f5dac0c1b1112564a045ba943c9d50270893e8e826c49be8e7073adc713ab7bd79060200160405180910390a3505050505050565b600080516020615ea1833981519152612bf2816140d5565b82518451148015612c04575081518351145b612c615760405162461bcd60e51b815260206004820152602860248201527f416c6c20696e70757420617272617973206d757374206265207468652073616d6044820152670ca40d8cadccee8d60c31b606482015260840161097a565b60005b8451811015612cd557612cc3858281518110612c8257612c82615aa4565b6020026020010151858381518110612c9c57612c9c615aa4565b6020026020010151858481518110612cb657612cb6615aa4565b602002602001015161086c565b80612ccd81615ad0565b915050612c64565b5050505050565b4260d25411612cfd5760405162461bcd60e51b815260040161097a90615b2f565b8051825114612d1e5760405162461bcd60e51b815260040161097a90615aeb565b60005b82518110156109dd57612d66838281518110612d3f57612d3f615aa4565b6020026020010151838381518110612d5957612d59615aa4565b60200260200101516131a3565b80612d7081615ad0565b915050612d21565b4260d25411612d995760405162461bcd60e51b815260040161097a90615b2f565b8251845114612dba5760405162461bcd60e51b815260040161097a90615aeb565b8151845114612e175760405162461bcd60e51b815260206004820152602360248201527f6164647265737320636f756e74206d757374206d61746368207472656520636f6044820152621d5b9d60ea1b606482015260840161097a565b8051845114612e745760405162461bcd60e51b8152602060048201526024808201527f6164647265737320636f756e74206d757374206d6174636820736b696c6c20636044820152631bdd5b9d60e21b606482015260840161097a565b60005b8451811015612cd557612ef0858281518110612e9557612e95615aa4565b6020026020010151858381518110612eaf57612eaf615aa4565b6020026020010151858481518110612ec957612ec9615aa4565b6020026020010151858581518110612ee357612ee3615aa4565b6020026020010151613a5e565b80612efa81615ad0565b915050612e77565b6000612f0d816140d5565b6040516370a0823160e01b8152306004820152839083906001600160a01b038316906370a082319060240160206040518083038186803b158015612f5057600080fd5b505afa158015612f64573d6000803e3d6000fd5b505050506040513d601f19601f82011682018060405250810190612f889190615c3d565b1015612fcd5760405162461bcd60e51b8152602060048201526014602482015273496e73756666696369656e742062616c616e636560601b604482015260640161097a565b60405163a9059cbb60e01b81526001600160a01b0386811660048301526024820185905282169063a9059cbb90604401602060405180830381600087803b15801561301757600080fd5b505af115801561302b573d6000803e3d6000fd5b505050506040513d601f19601f8201168201806040525081019061304f9190615d32565b50836001600160a01b0316856001600160a01b031661306b3390565b6001600160a01b03167f74ed50f6a2a005dd31f4766fb60918c4a6728cb0da9eeb81b9526bc6da11ec0f866040516130a591815260200190565b60405180910390a45050505050565b610be23383836145b5565b60606125ab335b6001600160a01b038116600090815260cc60209081526040808320805482518185028101850190935280835260609492939192909184015b82821015613153576000848152602090819020604080516060810182526003860290920180546001600160a01b03168352600180820154848601526002909101549183019190915290835290920191016130fe565b505050509050919050565b6000613169816140d5565b506001600160a01b03938416600090815260ca60209081526040808320959096168252938452848120928152919092529190912060040155565b4260d254116131c45760405162461bcd60e51b815260040161097a90615b2f565b6040516331a9108f60e11b8152600481018290528290829030906001600160a01b03841690636352211e9060240160206040518083038186803b15801561320a57600080fd5b505afa15801561321e573d6000803e3d6000fd5b505050506040513d601f19601f820116820180604052508101906132429190615bd6565b6001600160a01b0316141561328a5760405162461bcd60e51b815260206004820152600e60248201526d105b1c9958591e481cdd185ad95960921b604482015260640161097a565b6001600160a01b038416600090815260d060205260408120906132ad8686611feb565b905080156132fd5760405162461bcd60e51b815260206004820152601860248201527f5374616b696e6720616c726561647920756e6c6f636b65640000000000000000604482015260640161097a565b6001600160a01b038616600090815260cf602052604090205461335b5760405162461bcd60e51b815260206004820152601660248201527514dd185ada5b99c81b9bdd0818dbdb999a59dd5c995960521b604482015260640161097a565b6001600160a01b038616600090815260cf60205260409020544210156133bd5760405162461bcd60e51b815260206004820152601760248201527614dd185ada5b99c81a185cc81b9bdd081cdd185c9d1959604a1b604482015260640161097a565b6001600160a01b03868116600090815260cf602052604090206004015416806323b872dd336000805260cb6020527f4239c2c8c3d9b94feb214b0f54d7c869ce1ceb63517be57644336cda4967a468546040516001600160e01b031960e085901b16815261343092913091600401615d0e565b602060405180830381600087803b15801561344a57600080fd5b505af115801561345e573d6000803e3d6000fd5b505050506040513d601f19601f820116820180604052508101906134829190615d32565b5060c9548354600180860154604051630d126da960e11b81526001600160a01b038c81166004830152602482018c9052604482019490945260648101919091526084810191909152911690631a24db529060a401600060405180830381600087803b1580156134f057600080fd5b505af1158015613504573d6000803e3d6000fd5b50505050866001600160a01b03166135193390565b6001600160a01b03167f051144eeaaad1c4ee6b1eab928f531a9daf1687b3e0f8db00dae3f5df8c285db8860405161355391815260200190565b60405180910390a350505050505050565b600080516020615ea183398151915261357c816140d5565b5060c980546001600160a01b0319166001600160a01b0392909216919091179055565b6000828152609760205260409020600101546135ba816140d5565b6109dd8383614165565b80518251146135e55760405162461bcd60e51b815260040161097a90615aeb565b60005b82518110156109dd5761362d83828151811061360657613606615aa4565b602002602001015183838151811061362057613620615aa4565b602002602001015161369e565b8061363781615ad0565b9150506135e8565b600061364a816140d5565b600061365660cd61426f565b905060005b81518110156136985761368682828151811061367957613679615aa4565b6020026020010151614ae5565b8061369081615ad0565b91505061365b565b50505050565b6040516331a9108f60e11b8152600481018290528290829030906001600160a01b03841690636352211e9060240160206040518083038186803b1580156136e457600080fd5b505afa1580156136f8573d6000803e3d6000fd5b505050506040513d601f19601f8201168201806040525081019061371c9190615bd6565b6001600160a01b0316146137425760405162461bcd60e51b815260040161097a90615bf3565b60c95460405163537a724f60e11b8152859185916001600160a01b039091169063a6f4e49e9061377d90859085906000908190600401615c17565b60206040518083038186803b15801561379557600080fd5b505afa1580156137a9573d6000803e3d6000fd5b505050506040513d601f19601f820116820180604052508101906137cd9190615c3d565b6001146137ec5760405162461bcd60e51b815260040161097a90615c56565b33600090815260ca602090815260408083206001600160a01b038a1684528252808320888452909152902060058101546138575760405162461bcd60e51b815260206004820152600c60248201526b4e6f7420747261696e696e6760a01b604482015260640161097a565b428160060154116138aa5760405162461bcd60e51b815260206004820152601960248201527f547261696e696e6720616c72656164792066696e697368656400000000000000604482015260640161097a565b60005b33600090815260cc60205260409020548110156139205733600090815260cc602052604090208054889190839081106138e8576138e8615aa4565b906000526020600020906003020160010154141561390e576139093361123c565b613920565b8061391881615ad0565b9150506138ad565b50600381015460048201546040805189815260208101939093528201524260608201526001600160a01b0388169033907fc9b7c59fa980251f7ca7eae784c953e8a9f49d617be6edca0b41264ea05cb16990608001611386565b60006125ab33610be6565b6000613990816140d5565b600061399b83611a6b565b905080516000146139ee5760405162461bcd60e51b815260206004820152601860248201527f55736572206861732061637469766520747261696e696e670000000000000000604482015260640161097a565b60006139f9846130c6565b905060005b8151811015612cd557613a4c85838381518110613a1d57613a1d615aa4565b602002602001015160000151848481518110613a3b57613a3b615aa4565b6020026020010151602001516145b5565b80613a5681615ad0565b9150506139fe565b4260d25411613a7f5760405162461bcd60e51b815260040161097a90615b2f565b6040516331a9108f60e11b8152600481018490528490849030906001600160a01b03841690636352211e9060240160206040518083038186803b158015613ac557600080fd5b505afa158015613ad9573d6000803e3d6000fd5b505050506040513d601f19601f82011682018060405250810190613afd9190615bd6565b6001600160a01b031614613b235760405162461bcd60e51b815260040161097a90615bf3565b60c95460405163537a724f60e11b8152879187916001600160a01b039091169063a6f4e49e90613b5e90859085906000908190600401615c17565b60206040518083038186803b158015613b7657600080fd5b505afa158015613b8a573d6000803e3d6000fd5b505050506040513d601f19601f82011682018060405250810190613bae9190615c3d565b600114613bcd5760405162461bcd60e51b815260040161097a90615c56565b6001600160a01b038816600090815260cf602052604090208054613c335760405162461bcd60e51b815260206004820152601e60248201527f4e6f20747261696e696e672073657373696f6e20636f6e666967757265640000604482015260640161097a565b8054421015613c845760405162461bcd60e51b815260206004820152601c60248201527f547261696e696e6720686173206e6f7420737461727465642079657400000000604482015260640161097a565b33600090815260ca602090815260408083206001600160a01b038d16845282528083208b84529091529020600581015415613d015760405162461bcd60e51b815260206004820152601f60248201527f547261696e696e6720697320616c726561647920696e2070726f677265737300604482015260640161097a565b6000613d0d8b8b611500565b90506000815111613d605760405162461bcd60e51b815260206004820152601e60248201527f4e6f20747261696e696e672073657373696f6e7320617661696c61626c650000604482015260640161097a565b6000805b8251811015613da95789838281518110613d8057613d80615aa4565b60200260200101511415613d975760019150613da9565b80613da181615ad0565b915050613d64565b5080613df75760405162461bcd60e51b815260206004820152601760248201527f496e76616c696420747261696e696e67206f7074696f6e000000000000000000604482015260640161097a565b600060c960009054906101000a90046001600160a01b03166001600160a01b031663a6f4e49e8e8e8e8e6040518563ffffffff1660e01b8152600401613e409493929190615c17565b60206040518083038186803b158015613e5857600080fd5b505afa158015613e6c573d6000803e3d6000fd5b505050506040513d601f19601f82011682018060405250810190613e909190615c3d565b9050600060cb81613ea2846001615b7d565b815260200190815260200160002090508560010154826001613ec49190615b7d565b1115613f125760405162461bcd60e51b815260206004820152601e60248201527f45786365656473206d6178696d756d20747261696e696e67206c6576656c0000604482015260640161097a565b8054613f605760405162461bcd60e51b815260206004820152601d60248201527f547261696e696e67204c6576656c206973206e6f7420656e61626c6564000000604482015260640161097a565b60048681015482546040516323b872dd60e01b81526001600160a01b03909216926323b872dd92613f95923392309201615d0e565b602060405180830381600087803b158015613faf57600080fd5b505af1158015613fc3573d6000803e3d6000fd5b505050506040513d601f19601f82011682018060405250810190613fe79190615d32565b50613ff3826001615b7d565b6002860155600385018c9055600485018b90554260058601819055600182015461401c91615b7d565b600686015584546001600160a01b0319166001600160a01b038f169081178655600186018e9055336001600160a01b03167f98d1944772cc1ee399725448c633b3ec863f8be81e490479055d810afaa0225c8f8f8f61407c886001615b7d565b60058c015460068d0154604080519687526020870195909552938501929092526060840152608083015260a082015260c00160405180910390a35050505050505050505050505050565b6001600160a01b03163b151590565b610de78133614b31565b6140e98282612165565b610be25760008281526097602090815260408083206001600160a01b03851684529091529020805460ff191660011790556141213390565b6001600160a01b0316816001600160a01b0316837f2f8788117e7eff1d82e926ec794901d17c78024a50270940304540a733656f0d60405160405180910390a45050565b61416f8282612165565b15610be25760008281526097602090815260408083206001600160a01b0385168085529252808320805460ff1916905551339285917ff6391f5c32d9c69d2a47ea670b442974b53935d1edc7fd64eb21e047a839171b9190a45050565b60005b6141d960cd614252565b811015610de7576141ee61140360cd8361425c565b806141f881615ad0565b9150506141cf565b614208614b95565b6033805460ff191690557f5db9ee0a495bf2e6ff9c91a7834c1ba4fdd244a5e8aa4e537bd38aeae4b073aa335b6040516001600160a01b03909116815260200160405180910390a1565b6000610866825490565b60006142688383614bde565b9392505050565b6060600061426883614c08565b60028101805442909155815460018301546109dd9185916001600160a01b039091169084614c64565b6001600160a01b038116600090815260cc60205260408120905b81548110156109dd576142e18383600001838154811061125d5761125d615aa4565b806142eb81615ad0565b9150506142bf565b6001600160a01b038116600090815260d1602052604080822080549083905590516370a0823160e01b8152306004820152909173892d81221484f690c0a97d3dd18b9144a3ecdfb79182906370a082319060240160206040518083038186803b15801561435f57600080fd5b505afa158015614373573d6000803e3d6000fd5b505050506040513d601f19601f820116820180604052508101906143979190615c3d565b9050828110156143e95760405162461bcd60e51b815260206004820181905260248201527f496e73756666696369656e74207265776172647320696e20636f6e7472616374604482015260640161097a565b60405163a9059cbb60e01b81526001600160a01b0385811660048301526024820185905283169063a9059cbb90604401602060405180830381600087803b15801561443357600080fd5b505af1158015614447573d6000803e3d6000fd5b505050506040513d601f19601f8201168201806040525081019061446b9190615d32565b506001600160a01b038416600090815260cc60205260409020541580156144a857506001600160a01b038416600090815260d16020526040902054155b156144ba576144b860cd85614d0b565b505b816001600160a01b0316846001600160a01b03167ff7a40077ff7a04c7e61f6f26fb13774259ddf1b6bce9ecf26a8276cdd3992683856040516144ff91815260200190565b60405180910390a350505050565b600054610100900460ff166145345760405162461bcd60e51b815260040161097a90615d54565b611411614d20565b600054610100900460ff166114115760405162461bcd60e51b815260040161097a90615d54565b61456b614d53565b6033805460ff191660011790557f62e78cea01bee320cd4e420270b5ea74000d11b0c9f74754ebdbfc544b05a2586142353390565b6000614268836001600160a01b038416614d99565b6040516331a9108f60e11b8152600481018290528290829030906001600160a01b03841690636352211e9060240160206040518083038186803b1580156145fb57600080fd5b505afa15801561460f573d6000803e3d6000fd5b505050506040513d601f19601f820116820180604052508101906146339190615bd6565b6001600160a01b0316146146595760405162461bcd60e51b815260040161097a90615bf3565b60c95460405163537a724f60e11b8152859185916001600160a01b039091169063a6f4e49e9061469490859085906000908190600401615c17565b60206040518083038186803b1580156146ac57600080fd5b505afa1580156146c0573d6000803e3d6000fd5b505050506040513d601f19601f820116820180604052508101906146e49190615c3d565b6001146147035760405162461bcd60e51b815260040161097a90615c56565b6001600160a01b038716600090815260cc60205260409020546147595760405162461bcd60e51b815260206004820152600e60248201526d139bc81391951cc81cdd185ad95960921b604482015260640161097a565b6001600160a01b038716600090815260cc6020908152604080832080548251818502810185019093528083529192909190849084015b828210156147e4576000848152602090819020604080516060810182526003860290920180546001600160a01b031683526001808201548486015260029091015491830191909152908352909201910161478f565b5050506001600160a01b038a16600090815260cc6020526040812092935061480d9291506150da565b60005b8151811015614a1057876001600160a01b031682828151811061483557614835615aa4565b6020026020010151600001516001600160a01b031614801561487357508682828151811061486557614865615aa4565b602002602001015160200151145b1561490a576148a189898985858151811061489057614890615aa4565b602002602001015160400151614c64565b6001600160a01b03808a16600090815260ca60209081526040808320938c1683529281528282208a8352905290812080546001600160a01b03191681556001810182905560028101829055600381018290556004810182905560058101829055600601556149fe565b60cc60008a6001600160a01b03166001600160a01b03168152602001908152602001600020600001604051806060016040528084848151811061494f5761494f615aa4565b6020026020010151600001516001600160a01b0316815260200184848151811061497b5761497b615aa4565b602002602001015160200151815260200184848151811061499e5761499e615aa4565b602090810291909101810151604090810151909252835460018082018655600095865294829020845160039092020180546001600160a01b0319166001600160a01b03909216919091178155908301519381019390935501516002909101555b80614a0881615ad0565b915050614810565b50614a1a886142a5565b614a23886142f3565b614a2c88614ae5565b6040516323b872dd60e01b81526001600160a01b038816906323b872dd90614a5c9030908c908b90600401615d0e565b600060405180830381600087803b158015614a7657600080fd5b505af1158015614a8a573d6000803e3d6000fd5b50505050866001600160a01b0316886001600160a01b03167fd8654fcc8cf5b36d30b3f5e4688fc78118e6d68de60b9994e09902268b57c3e388604051614ad391815260200190565b60405180910390a35050505050505050565b6001600160a01b038116600090815260cc6020526040902054158015614b2157506001600160a01b038116600090815260d16020526040902054155b15610de757610be260cd82614d0b565b614b3b8282612165565b610be257614b53816001600160a01b03166014614de8565b614b5e836020614de8565b604051602001614b6f929190615dcb565b60408051601f198184030181529082905262461bcd60e51b825261097a91600401615e40565b60335460ff166114115760405162461bcd60e51b815260206004820152601460248201527314185d5cd8589b194e881b9bdd081c185d5cd95960621b604482015260640161097a565b6000826000018281548110614bf557614bf5615aa4565b9060005260206000200154905092915050565b606081600001805480602002602001604051908101604052809291908181526020018280548015614c5857602002820191906000526020600020905b815481526020019060010190808311614c44575b50505050509050919050565b801580614c73575060d2548110155b15614c7d57613698565b60008160d254614c8d9190615b66565b90506000614c9b8585611f03565b905080614ca781615ad0565b915082905062015180614cc283670de0b6b3a7640000615b95565b614ccc9190615bb4565b614cd69190615b95565b6001600160a01b038716600090815260d1602052604081208054909190614cfe908490615b7d565b9091555050505050505050565b6000614268836001600160a01b038416614f83565b600054610100900460ff16614d475760405162461bcd60e51b815260040161097a90615d54565b6033805460ff19169055565b60335460ff16156114115760405162461bcd60e51b815260206004820152601060248201526f14185d5cd8589b194e881c185d5cd95960821b604482015260640161097a565b6000818152600183016020526040812054614de057508154600181810184556000848152602080822090930184905584548482528286019093526040902091909155610866565b506000610866565b60606000614df7836002615b95565b614e02906002615b7d565b6001600160401b03811115614e1957614e19615197565b6040519080825280601f01601f191660200182016040528015614e43576020820181803683370190505b509050600360fc1b81600081518110614e5e57614e5e615aa4565b60200101906001600160f81b031916908160001a905350600f60fb1b81600181518110614e8d57614e8d615aa4565b60200101906001600160f81b031916908160001a9053506000614eb1846002615b95565b614ebc906001615b7d565b90505b6001811115614f34576f181899199a1a9b1b9c1cb0b131b232b360811b85600f1660108110614ef057614ef0615aa4565b1a60f81b828281518110614f0657614f06615aa4565b60200101906001600160f81b031916908160001a90535060049490941c93614f2d81615e73565b9050614ebf565b5083156142685760405162461bcd60e51b815260206004820181905260248201527f537472696e67733a20686578206c656e67746820696e73756666696369656e74604482015260640161097a565b6000818152600183016020526040812054801561506c576000614fa7600183615b66565b8554909150600090614fbb90600190615b66565b9050818114615020576000866000018281548110614fdb57614fdb615aa4565b9060005260206000200154905080876000018481548110614ffe57614ffe615aa4565b6000918252602080832090910192909255918252600188019052604090208390555b855486908061503157615031615e8a565b600190038181906000526020600020016000905590558560010160008681526020019081526020016000206000905560019350505050610866565b6000915050610866565b6040518060e0016040528060006001600160a01b031681526020016000815260200160008152602001600081526020016000815260200160008152602001600081525090565b5080546000825590600052602060002090810190610de791906150fb565b5080546000825560030290600052602060002090810190610de79190615114565b5b8082111561511057600081556001016150fc565b5090565b5b808211156151105780546001600160a01b03191681556000600182018190556002820155600301615115565b60006020828403121561515357600080fd5b81356001600160e01b03198116811461426857600080fd5b60008060006060848603121561518057600080fd5b505081359360208301359350604090920135919050565b634e487b7160e01b600052604160045260246000fd5b604051601f8201601f191681016001600160401b03811182821017156151d5576151d5615197565b604052919050565b60006001600160401b038211156151f6576151f6615197565b5060051b60200190565b6001600160a01b0381168114610de757600080fd5b600082601f83011261522657600080fd5b8135602061523b615236836151dd565b6151ad565b82815260059290921b8401810191818101908684111561525a57600080fd5b8286015b8481101561527e57803561527181615200565b835291830191830161525e565b509695505050505050565b600082601f83011261529a57600080fd5b813560206152aa615236836151dd565b82815260059290921b840181019181810190868411156152c957600080fd5b8286015b8481101561527e57803583529183019183016152cd565b600080600080600060a086880312156152fc57600080fd5b85356001600160401b038082111561531357600080fd5b61531f89838a01615215565b9650602088013591508082111561533557600080fd5b61534189838a01615289565b9550604088013591508082111561535757600080fd5b61536389838a01615215565b9450606088013591508082111561537957600080fd5b61538589838a01615289565b9350608088013591508082111561539b57600080fd5b506153a888828901615289565b9150509295509295909350565b6000806000806000608086880312156153cd57600080fd5b85356153d881615200565b945060208601356153e881615200565b93506040860135925060608601356001600160401b038082111561540b57600080fd5b818801915088601f83011261541f57600080fd5b81358181111561542e57600080fd5b89602082850101111561544057600080fd5b9699959850939650602001949392505050565b6000806040838503121561546657600080fd5b82356001600160401b038082111561547d57600080fd5b61548986838701615215565b9350602085013591508082111561549f57600080fd5b506154ac85828601615289565b9150509250929050565b6000806000606084860312156154cb57600080fd5b83356154d681615200565b925060208401356154e681615200565b929592945050506040919091013590565b80516001600160a01b031682526020808201519083015260408082015190830152606080820151908301526080808201519083015260a0818101519083015260c090810151910152565b60e0810161086682846154f7565b60006020828403121561556157600080fd5b5035919050565b6000806040838503121561557b57600080fd5b82359150602083013561558d81615200565b809150509250929050565b6000806000606084860312156155ad57600080fd5b83356155b881615200565b95602085013595506040909401359392505050565b6000602082840312156155df57600080fd5b813561426881615200565b600081518084526020808501945080840160005b8381101561563957815180516001600160a01b03168852838101518489015260409081015190880152606090960195908201906001016155fe565b509495945050505050565b600081518084526020808501945080840160005b8381101561563957815187529582019590820190600101615658565b606080825284519082018190526000906020906080840190828801845b828110156156b65781516001600160a01b031684529284019290840190600101615691565b50505083810382850152855180825282820190600581901b8301840188850160005b8381101561570657601f198684030185526156f48383516155ea565b948701949250908601906001016156d8565b5050868103604088015261571a8189615644565b9a9950505050505050505050565b6000806040838503121561573b57600080fd5b823561574681615200565b946020939093013593505050565b600080600080600060a0868803121561576c57600080fd5b853561577781615200565b945060208601359350604086013561578e81615200565b94979396509394606081013594506080013592915050565b6020815260006142686020830184615644565b6020808252825182820181905260009190848201906040850190845b818110156157fb576157e88385516154f7565b9284019260e092909201916001016157d5565b50909695505050505050565b60008060008060008060c0878903121561582057600080fd5b863561582b81615200565b9550602087013561583b81615200565b9450604087013593506060870135925060808701356001600160401b038082111561586557600080fd5b6158718a838b01615289565b935060a089013591508082111561588757600080fd5b5061589489828a01615289565b9150509295509295509295565b6000602082840312156158b357600080fd5b81356001600160401b038111156158c957600080fd5b6158d584828501615215565b949350505050565b600080600080608085870312156158f357600080fd5b84356158fe81615200565b9350602085013561590e81615200565b93969395505050506040820135916060013590565b60008060006060848603121561593857600080fd5b83356001600160401b038082111561594f57600080fd5b61595b87838801615289565b9450602086013591508082111561597157600080fd5b61597d87838801615289565b9350604086013591508082111561599357600080fd5b506159a086828701615289565b9150509250925092565b600080600080608085870312156159c057600080fd5b84356001600160401b03808211156159d757600080fd5b6159e388838901615215565b955060208701359150808211156159f957600080fd5b615a0588838901615289565b94506040870135915080821115615a1b57600080fd5b615a2788838901615289565b93506060870135915080821115615a3d57600080fd5b50615a4a87828801615289565b91505092959194509250565b60208152600061426860208301846155ea565b60008060008060808587031215615a7f57600080fd5b8435615a8a81615200565b966020860135965060408601359560600135945092505050565b634e487b7160e01b600052603260045260246000fd5b634e487b7160e01b600052601160045260246000fd5b6000600019821415615ae457615ae4615aba565b5060010190565b60208082526024908201527f6164647265737320636f756e74206d757374206d6174636820746f6b656e20636040820152631bdd5b9d60e21b606082015260800190565b6020808252601a908201527f436861726163746572207374616b696e672066696e6973686564000000000000604082015260600190565b600082821015615b7857615b78615aba565b500390565b60008219821115615b9057615b90615aba565b500190565b6000816000190483118215151615615baf57615baf615aba565b500290565b600082615bd157634e487b7160e01b600052601260045260246000fd5b500490565b600060208284031215615be857600080fd5b815161426881615200565b6020808252600a9082015269139bdd081cdd185ad95960b21b604082015260600190565b6001600160a01b0394909416845260208401929092526040830152606082015260800190565b600060208284031215615c4f57600080fd5b5051919050565b6020808252600c908201526b139bdd081d5b9b1bd8dad95960a21b604082015260600190565b60208082526028908201527f6d6178506f696e7473506572536b696c6c206d75737420626520677265617465604082015267072207468616e20360c41b606082015260800190565b6020808252602a908201527f737461727454696d65206d7573742062652061206675747572652074696d6520604082015269696e207365636f6e647360b01b606082015260800190565b6001600160a01b039384168152919092166020820152604081019190915260600190565b600060208284031215615d4457600080fd5b8151801515811461426857600080fd5b6020808252602b908201527f496e697469616c697a61626c653a20636f6e7472616374206973206e6f74206960408201526a6e697469616c697a696e6760a81b606082015260800190565b60005b83811015615dba578181015183820152602001615da2565b838111156136985750506000910152565b7f416363657373436f6e74726f6c3a206163636f756e7420000000000000000000815260008351615e03816017850160208801615d9f565b7001034b99036b4b9b9b4b733903937b6329607d1b6017918401918201528351615e34816028840160208801615d9f565b01602801949350505050565b6020815260008251806020840152615e5f816040850160208701615d9f565b601f01601f19169190910160400192915050565b600081615e8257615e82615aba565b506000190190565b634e487b7160e01b600052603160045260246000fdfe73e573f9566d61418a34d5de3ff49360f9c51fec37f7486551670290f6285dab65d7a28e3265b37a6474929f336521b332c1681b933f6cb9f3376673440d862aa2646970667358221220ff17bcb7a6c4a3a70d0632e9fe976f110a83a3b2db2e82ba2e7a688e888fcf6964736f6c63430008090033",
  "linkReferences": {},
  "deployedLinkReferences": {}
}