{
  "_format": "hh-sol-artifact-1",
  "contractName": "ProfessionStakingHarmonyUpgradeable",
  "sourceName": "contracts/upgradeable/npc/ProfessionStakingHarmonyUpgradeable.sol",
  "abi": [
    {
      "inputs": [],
      "stateMutability": "nonpayable",
      "type": "constructor"
    },
    {
      "anonymous": false,
      "inputs": [
        {
          "indexed": true,
          "internalType": "address",
          "name": "from",
          "type": "address"
        },
        {
          "indexed": false,
          "internalType": "uint256",
          "name": "stakedCount",
          "type": "uint256"
        },
        {
          "indexed": false,
          "internalType": "uint256",
          "name": "amount",
          "type": "uint256"
        }
      ],
      "name": "ClaimBlocked",
      "type": "event"
    },
    {
      "anonymous": false,
      "inputs": [
        {
          "indexed": true,
          "internalType": "address",
          "name": "by",
          "type": "address"
        },
        {
          "indexed": true,
          "internalType": "address",
          "name": "token",
          "type": "address"
        },
        {
          "indexed": false,
          "internalType": "uint256",
          "name": "amount",
          "type": "uint256"
        }
      ],
      "name": "Claimed",
      "type": "event"
    },
    {
      "anonymous": false,
      "inputs": [
        {
          "indexed": false,
          "internalType": "uint8",
          "name": "version",
          "type": "uint8"
        }
      ],
      "name": "Initialized",
      "type": "event"
    },
    {
      "anonymous": false,
      "inputs": [
        {
          "indexed": false,
          "internalType": "address",
          "name": "account",
          "type": "address"
        }
      ],
      "name": "Paused",
      "type": "event"
    },
    {
      "anonymous": false,
      "inputs": [
        {
          "indexed": true,
          "internalType": "address",
          "name": "from",
          "type": "address"
        },
        {
          "indexed": true,
          "internalType": "address",
          "name": "token",
          "type": "address"
        },
        {
          "indexed": false,
          "internalType": "uint256",
          "name": "amount",
          "type": "uint256"
        }
      ],
      "name": "PoolRewardsDeposited",
      "type": "event"
    },
    {
      "anonymous": false,
      "inputs": [
        {
          "indexed": true,
          "internalType": "address",
          "name": "by",
          "type": "address"
        },
        {
          "indexed": true,
          "internalType": "address",
          "name": "to",
          "type": "address"
        },
        {
          "indexed": true,
          "internalType": "address",
          "name": "token",
          "type": "address"
        },
        {
          "indexed": false,
          "internalType": "uint256",
          "name": "amount",
          "type": "uint256"
        }
      ],
      "name": "PoolRewardsWithdrawn",
      "type": "event"
    },
    {
      "anonymous": false,
      "inputs": [
        {
          "indexed": true,
          "internalType": "bytes32",
          "name": "role",
          "type": "bytes32"
        },
        {
          "indexed": true,
          "internalType": "bytes32",
          "name": "previousAdminRole",
          "type": "bytes32"
        },
        {
          "indexed": true,
          "internalType": "bytes32",
          "name": "newAdminRole",
          "type": "bytes32"
        }
      ],
      "name": "RoleAdminChanged",
      "type": "event"
    },
    {
      "anonymous": false,
      "inputs": [
        {
          "indexed": true,
          "internalType": "bytes32",
          "name": "role",
          "type": "bytes32"
        },
        {
          "indexed": true,
          "internalType": "address",
          "name": "account",
          "type": "address"
        },
        {
          "indexed": true,
          "internalType": "address",
          "name": "sender",
          "type": "address"
        }
      ],
      "name": "RoleGranted",
      "type": "event"
    },
    {
      "anonymous": false,
      "inputs": [
        {
          "indexed": true,
          "internalType": "bytes32",
          "name": "role",
          "type": "bytes32"
        },
        {
          "indexed": true,
          "internalType": "address",
          "name": "account",
          "type": "address"
        },
        {
          "indexed": true,
          "internalType": "address",
          "name": "sender",
          "type": "address"
        }
      ],
      "name": "RoleRevoked",
      "type": "event"
    },
    {
      "anonymous": false,
      "inputs": [
        {
          "indexed": true,
          "internalType": "address",
          "name": "from",
          "type": "address"
        },
        {
          "indexed": true,
          "internalType": "address",
          "name": "nftAddress",
          "type": "address"
        },
        {
          "indexed": false,
          "internalType": "uint256",
          "name": "tokenId",
          "type": "uint256"
        }
      ],
      "name": "Staked",
      "type": "event"
    },
    {
      "anonymous": false,
      "inputs": [
        {
          "indexed": true,
          "internalType": "address",
          "name": "nftAddress",
          "type": "address"
        },
        {
          "indexed": false,
          "internalType": "address",
          "name": "rewardToken",
          "type": "address"
        },
        {
          "indexed": false,
          "internalType": "uint256",
          "name": "startTime",
          "type": "uint256"
        }
      ],
      "name": "StakingConfigCreated",
      "type": "event"
    },
    {
      "anonymous": false,
      "inputs": [
        {
          "indexed": true,
          "internalType": "address",
          "name": "nftAddress",
          "type": "address"
        }
      ],
      "name": "StakingConfigDeleted",
      "type": "event"
    },
    {
      "anonymous": false,
      "inputs": [
        {
          "indexed": true,
          "internalType": "address",
          "name": "nftAddress",
          "type": "address"
        },
        {
          "indexed": false,
          "internalType": "address",
          "name": "rewardToken",
          "type": "address"
        },
        {
          "indexed": false,
          "internalType": "uint256",
          "name": "startTime",
          "type": "uint256"
        }
      ],
      "name": "StakingConfigUpdated",
      "type": "event"
    },
    {
      "anonymous": false,
      "inputs": [
        {
          "indexed": true,
          "internalType": "address",
          "name": "by",
          "type": "address"
        },
        {
          "indexed": true,
          "internalType": "address",
          "name": "nftAddress",
          "type": "address"
        },
        {
          "indexed": false,
          "internalType": "uint256",
          "name": "tokenId",
          "type": "uint256"
        }
      ],
      "name": "StakingUnlocked",
      "type": "event"
    },
    {
      "anonymous": false,
      "inputs": [
        {
          "indexed": true,
          "internalType": "address",
          "name": "by",
          "type": "address"
        },
        {
          "indexed": true,
          "internalType": "address",
          "name": "nftAddress",
          "type": "address"
        },
        {
          "indexed": false,
          "internalType": "uint256",
          "name": "tokenId",
          "type": "uint256"
        },
        {
          "indexed": false,
          "internalType": "uint256",
          "name": "treeId",
          "type": "uint256"
        },
        {
          "indexed": false,
          "internalType": "uint256",
          "name": "skillId",
          "type": "uint256"
        },
        {
          "indexed": false,
          "internalType": "uint256",
          "name": "canceledAt",
          "type": "uint256"
        }
      ],
      "name": "TrainingCanceled",
      "type": "event"
    },
    {
      "anonymous": false,
      "inputs": [
        {
          "indexed": true,
          "internalType": "address",
          "name": "by",
          "type": "address"
        },
        {
          "indexed": true,
          "internalType": "address",
          "name": "nftAddress",
          "type": "address"
        },
        {
          "indexed": false,
          "internalType": "uint256",
          "name": "tokenId",
          "type": "uint256"
        },
        {
          "indexed": false,
          "internalType": "uint256",
          "name": "treeId",
          "type": "uint256"
        },
        {
          "indexed": false,
          "internalType": "uint256",
          "name": "skillId",
          "type": "uint256"
        },
        {
          "indexed": false,
          "internalType": "uint256",
          "name": "level",
          "type": "uint256"
        }
      ],
      "name": "TrainingFinished",
      "type": "event"
    },
    {
      "anonymous": false,
      "inputs": [
        {
          "indexed": true,
          "internalType": "address",
          "name": "by",
          "type": "address"
        },
        {
          "indexed": true,
          "internalType": "address",
          "name": "nftAddress",
          "type": "address"
        },
        {
          "indexed": false,
          "internalType": "uint256",
          "name": "tokenId",
          "type": "uint256"
        },
        {
          "indexed": false,
          "internalType": "uint256",
          "name": "treeId",
          "type": "uint256"
        },
        {
          "indexed": false,
          "internalType": "uint256",
          "name": "skillId",
          "type": "uint256"
        },
        {
          "indexed": false,
          "internalType": "uint256",
          "name": "level",
          "type": "uint256"
        },
        {
          "indexed": false,
          "internalType": "uint256",
          "name": "startedAt",
          "type": "uint256"
        },
        {
          "indexed": false,
          "internalType": "uint256",
          "name": "completeAt",
          "type": "uint256"
        }
      ],
      "name": "TrainingStarted",
      "type": "event"
    },
    {
      "anonymous": false,
      "inputs": [
        {
          "indexed": false,
          "internalType": "address",
          "name": "account",
          "type": "address"
        }
      ],
      "name": "Unpaused",
      "type": "event"
    },
    {
      "anonymous": false,
      "inputs": [
        {
          "indexed": true,
          "internalType": "address",
          "name": "from",
          "type": "address"
        },
        {
          "indexed": true,
          "internalType": "address",
          "name": "nftAddress",
          "type": "address"
        },
        {
          "indexed": false,
          "internalType": "uint256",
          "name": "tokenId",
          "type": "uint256"
        }
      ],
      "name": "Unstaked",
      "type": "event"
    },
    {
      "inputs": [],
      "name": "DEFAULT_ADMIN_ROLE",
      "outputs": [
        {
          "internalType": "bytes32",
          "name": "",
          "type": "bytes32"
        }
      ],
      "stateMutability": "view",
      "type": "function"
    },
    {
      "inputs": [],
      "name": "GAME_STORAGE",
      "outputs": [
        {
          "internalType": "contract IGameStorageUpgradeable",
          "name": "",
          "type": "address"
        }
      ],
      "stateMutability": "view",
      "type": "function"
    },
    {
      "inputs": [],
      "name": "LAST_REWARD_TIME",
      "outputs": [
        {
          "internalType": "uint256",
          "name": "",
          "type": "uint256"
        }
      ],
      "stateMutability": "view",
      "type": "function"
    },
    {
      "inputs": [],
      "name": "PAUSER_ROLE",
      "outputs": [
        {
          "internalType": "bytes32",
          "name": "",
          "type": "bytes32"
        }
      ],
      "stateMutability": "view",
      "type": "function"
    },
    {
      "inputs": [],
      "name": "UPDATER_ROLE",
      "outputs": [
        {
          "internalType": "bytes32",
          "name": "",
          "type": "bytes32"
        }
      ],
      "stateMutability": "view",
      "type": "function"
    },
    {
      "inputs": [
        {
          "internalType": "address[]",
          "name": "addresses",
          "type": "address[]"
        },
        {
          "internalType": "uint256[]",
          "name": "indexes",
          "type": "uint256[]"
        },
        {
          "internalType": "address[]",
          "name": "nftAddresses",
          "type": "address[]"
        },
        {
          "internalType": "uint256[]",
          "name": "tokenIds",
          "type": "uint256[]"
        },
        {
          "internalType": "uint256[]",
          "name": "rewardFrom",
          "type": "uint256[]"
        }
      ],
      "name": "adminBatchUpdateNftData",
      "outputs": [],
      "stateMutability": "nonpayable",
      "type": "function"
    },
    {
      "inputs": [
        {
          "internalType": "address",
          "name": "user",
          "type": "address"
        }
      ],
      "name": "adminGetData",
      "outputs": [
        {
          "internalType": "uint256",
          "name": "contractBalance",
          "type": "uint256"
        },
        {
          "internalType": "uint256",
          "name": "userPending",
          "type": "uint256"
        }
      ],
      "stateMutability": "view",
      "type": "function"
    },
    {
      "inputs": [
        {
          "internalType": "address",
          "name": "_address",
          "type": "address"
        },
        {
          "internalType": "uint256",
          "name": "index",
          "type": "uint256"
        },
        {
          "internalType": "address",
          "name": "nftAddress",
          "type": "address"
        },
        {
          "internalType": "uint256",
          "name": "tokenId",
          "type": "uint256"
        },
        {
          "internalType": "uint256",
          "name": "rewardFrom",
          "type": "uint256"
        }
      ],
      "name": "adminUpdateNftData",
      "outputs": [],
      "stateMutability": "nonpayable",
      "type": "function"
    },
    {
      "inputs": [
        {
          "internalType": "address[]",
          "name": "nftAddresses",
          "type": "address[]"
        },
        {
          "internalType": "uint256[]",
          "name": "tokenIds",
          "type": "uint256[]"
        }
      ],
      "name": "batchCancelTraining",
      "outputs": [],
      "stateMutability": "nonpayable",
      "type": "function"
    },
    {
      "inputs": [
        {
          "internalType": "address[]",
          "name": "addresses",
          "type": "address[]"
        }
      ],
      "name": "batchClaimAndUnstakeForUser",
      "outputs": [],
      "stateMutability": "nonpayable",
      "type": "function"
    },
    {
      "inputs": [
        {
          "internalType": "address[]",
          "name": "nftAddresses",
          "type": "address[]"
        },
        {
          "internalType": "uint256[]",
          "name": "tokenIds",
          "type": "uint256[]"
        }
      ],
      "name": "batchEnableStaking",
      "outputs": [],
      "stateMutability": "nonpayable",
      "type": "function"
    },
    {
      "inputs": [
        {
          "internalType": "address[]",
          "name": "nftAddresses",
          "type": "address[]"
        },
        {
          "internalType": "uint256[]",
          "name": "tokenIds",
          "type": "uint256[]"
        }
      ],
      "name": "batchFinishTraining",
      "outputs": [],
      "stateMutability": "nonpayable",
      "type": "function"
    },
    {
      "inputs": [
        {
          "internalType": "uint256[]",
          "name": "level",
          "type": "uint256[]"
        },
        {
          "internalType": "uint256[]",
          "name": "cost",
          "type": "uint256[]"
        },
        {
          "internalType": "uint256[]",
          "name": "time",
          "type": "uint256[]"
        }
      ],
      "name": "batchSetTrainingCosts",
      "outputs": [],
      "stateMutability": "nonpayable",
      "type": "function"
    },
    {
      "inputs": [
        {
          "internalType": "address[]",
          "name": "nftAddresses",
          "type": "address[]"
        },
        {
          "internalType": "uint256[]",
          "name": "tokenIds",
          "type": "uint256[]"
        }
      ],
      "name": "batchStake",
      "outputs": [],
      "stateMutability": "nonpayable",
      "type": "function"
    },
    {
      "inputs": [
        {
          "internalType": "address[]",
          "name": "nftAddresses",
          "type": "address[]"
        },
        {
          "internalType": "uint256[]",
          "name": "tokenIds",
          "type": "uint256[]"
        },
        {
          "internalType": "uint256[]",
          "name": "treeIds",
          "type": "uint256[]"
        },
        {
          "internalType": "uint256[]",
          "name": "skillIds",
          "type": "uint256[]"
        }
      ],
      "name": "batchStartTraining",
      "outputs": [],
      "stateMutability": "nonpayable",
      "type": "function"
    },
    {
      "inputs": [
        {
          "internalType": "address[]",
          "name": "nftAddresses",
          "type": "address[]"
        },
        {
          "internalType": "uint256[]",
          "name": "tokenIds",
          "type": "uint256[]"
        }
      ],
      "name": "batchUnstake",
      "outputs": [],
      "stateMutability": "nonpayable",
      "type": "function"
    },
    {
      "inputs": [
        {
          "internalType": "address",
          "name": "nftAddress",
          "type": "address"
        },
        {
          "internalType": "uint256",
          "name": "tokenId",
          "type": "uint256"
        }
      ],
      "name": "cancelTraining",
      "outputs": [],
      "stateMutability": "nonpayable",
      "type": "function"
    },
    {
      "inputs": [],
      "name": "claim",
      "outputs": [],
      "stateMutability": "nonpayable",
      "type": "function"
    },
    {
      "inputs": [
        {
          "internalType": "address",
          "name": "_address",
          "type": "address"
        }
      ],
      "name": "claimAndUnstakeForUser",
      "outputs": [],
      "stateMutability": "nonpayable",
      "type": "function"
    },
    {
      "inputs": [
        {
          "internalType": "address",
          "name": "_address",
          "type": "address"
        }
      ],
      "name": "claimFor",
      "outputs": [],
      "stateMutability": "nonpayable",
      "type": "function"
    },
    {
      "inputs": [
        {
          "internalType": "address",
          "name": "nftAddress",
          "type": "address"
        },
        {
          "internalType": "address",
          "name": "rewardToken",
          "type": "address"
        },
        {
          "internalType": "uint256",
          "name": "startTime",
          "type": "uint256"
        },
        {
          "internalType": "uint256",
          "name": "maxPointsPerSkill",
          "type": "uint256"
        },
        {
          "internalType": "uint256[]",
          "name": "treeIds",
          "type": "uint256[]"
        },
        {
          "internalType": "uint256[]",
          "name": "skillIds",
          "type": "uint256[]"
        }
      ],
      "name": "createStakingConfig",
      "outputs": [],
      "stateMutability": "nonpayable",
      "type": "function"
    },
    {
      "inputs": [
        {
          "internalType": "address",
          "name": "nftAddress",
          "type": "address"
        }
      ],
      "name": "deleteStakingConfig",
      "outputs": [],
      "stateMutability": "nonpayable",
      "type": "function"
    },
    {
      "inputs": [
        {
          "internalType": "address",
          "name": "nftAddress",
          "type": "address"
        },
        {
          "internalType": "uint256",
          "name": "tokenId",
          "type": "uint256"
        }
      ],
      "name": "enableStaking",
      "outputs": [],
      "stateMutability": "nonpayable",
      "type": "function"
    },
    {
      "inputs": [
        {
          "internalType": "address",
          "name": "nftAddress",
          "type": "address"
        },
        {
          "internalType": "uint256",
          "name": "tokenId",
          "type": "uint256"
        }
      ],
      "name": "finishTraining",
      "outputs": [],
      "stateMutability": "nonpayable",
      "type": "function"
    },
    {
      "inputs": [
        {
          "internalType": "address",
          "name": "_address",
          "type": "address"
        },
        {
          "internalType": "address",
          "name": "nftAddress",
          "type": "address"
        },
        {
          "internalType": "uint256",
          "name": "tokenId",
          "type": "uint256"
        }
      ],
      "name": "forceCancelTraining",
      "outputs": [],
      "stateMutability": "nonpayable",
      "type": "function"
    },
    {
      "inputs": [],
      "name": "getActiveTraining",
      "outputs": [
        {
          "components": [
            {
              "internalType": "address",
              "name": "_address",
              "type": "address"
            },
            {
              "internalType": "uint256",
              "name": "tokenId",
              "type": "uint256"
            },
            {
              "internalType": "uint256",
              "name": "level",
              "type": "uint256"
            },
            {
              "internalType": "uint256",
              "name": "treeId",
              "type": "uint256"
            },
            {
              "internalType": "uint256",
              "name": "skillId",
              "type": "uint256"
            },
            {
              "internalType": "uint256",
              "name": "startedAt",
              "type": "uint256"
            },
            {
              "internalType": "uint256",
              "name": "completeAt",
              "type": "uint256"
            }
          ],
          "internalType": "struct ProfessionStakingHarmonyUpgradeable.TrainingStatus[]",
          "name": "",
          "type": "tuple[]"
        }
      ],
      "stateMutability": "view",
      "type": "function"
    },
    {
      "inputs": [
        {
          "internalType": "address",
          "name": "_address",
          "type": "address"
        }
      ],
      "name": "getActiveTrainingOf",
      "outputs": [
        {
          "components": [
            {
              "internalType": "address",
              "name": "_address",
              "type": "address"
            },
            {
              "internalType": "uint256",
              "name": "tokenId",
              "type": "uint256"
            },
            {
              "internalType": "uint256",
              "name": "level",
              "type": "uint256"
            },
            {
              "internalType": "uint256",
              "name": "treeId",
              "type": "uint256"
            },
            {
              "internalType": "uint256",
              "name": "skillId",
              "type": "uint256"
            },
            {
              "internalType": "uint256",
              "name": "startedAt",
              "type": "uint256"
            },
            {
              "internalType": "uint256",
              "name": "completeAt",
              "type": "uint256"
            }
          ],
          "internalType": "struct ProfessionStakingHarmonyUpgradeable.TrainingStatus[]",
          "name": "",
          "type": "tuple[]"
        }
      ],
      "stateMutability": "view",
      "type": "function"
    },
    {
      "inputs": [],
      "name": "getAllParticipantData",
      "outputs": [
        {
          "internalType": "address[]",
          "name": "addresses",
          "type": "address[]"
        },
        {
          "components": [
            {
              "internalType": "address",
              "name": "_address",
              "type": "address"
            },
            {
              "internalType": "uint256",
              "name": "tokenId",
              "type": "uint256"
            },
            {
              "internalType": "uint256",
              "name": "rewardFrom",
              "type": "uint256"
            }
          ],
          "internalType": "struct ProfessionStakingHarmonyUpgradeable.NFT[][]",
          "name": "nfts",
          "type": "tuple[][]"
        },
        {
          "internalType": "uint256[]",
          "name": "rewards",
          "type": "uint256[]"
        }
      ],
      "stateMutability": "view",
      "type": "function"
    },
    {
      "inputs": [
        {
          "internalType": "address",
          "name": "nftAddress",
          "type": "address"
        },
        {
          "internalType": "uint256",
          "name": "tokenId",
          "type": "uint256"
        }
      ],
      "name": "getAllowedSkillChoices",
      "outputs": [
        {
          "internalType": "uint256[]",
          "name": "",
          "type": "uint256[]"
        }
      ],
      "stateMutability": "view",
      "type": "function"
    },
    {
      "inputs": [
        {
          "internalType": "bytes32",
          "name": "role",
          "type": "bytes32"
        }
      ],
      "name": "getRoleAdmin",
      "outputs": [
        {
          "internalType": "bytes32",
          "name": "",
          "type": "bytes32"
        }
      ],
      "stateMutability": "view",
      "type": "function"
    },
    {
      "inputs": [],
      "name": "getStaked",
      "outputs": [
        {
          "components": [
            {
              "internalType": "address",
              "name": "_address",
              "type": "address"
            },
            {
              "internalType": "uint256",
              "name": "tokenId",
              "type": "uint256"
            },
            {
              "internalType": "uint256",
              "name": "rewardFrom",
              "type": "uint256"
            }
          ],
          "internalType": "struct ProfessionStakingHarmonyUpgradeable.NFT[]",
          "name": "",
          "type": "tuple[]"
        }
      ],
      "stateMutability": "view",
      "type": "function"
    },
    {
      "inputs": [
        {
          "internalType": "address",
          "name": "_address",
          "type": "address"
        }
      ],
      "name": "getStakedOf",
      "outputs": [
        {
          "components": [
            {
              "internalType": "address",
              "name": "_address",
              "type": "address"
            },
            {
              "internalType": "uint256",
              "name": "tokenId",
              "type": "uint256"
            },
            {
              "internalType": "uint256",
              "name": "rewardFrom",
              "type": "uint256"
            }
          ],
          "internalType": "struct ProfessionStakingHarmonyUpgradeable.NFT[]",
          "name": "",
          "type": "tuple[]"
        }
      ],
      "stateMutability": "view",
      "type": "function"
    },
    {
      "inputs": [
        {
          "internalType": "address",
          "name": "ntfAddress",
          "type": "address"
        },
        {
          "internalType": "uint256",
          "name": "tokenId",
          "type": "uint256"
        }
      ],
      "name": "getTotalProfessionSkillPoints",
      "outputs": [
        {
          "internalType": "uint256",
          "name": "",
          "type": "uint256"
        }
      ],
      "stateMutability": "view",
      "type": "function"
    },
    {
      "inputs": [
        {
          "internalType": "address",
          "name": "_address",
          "type": "address"
        },
        {
          "internalType": "address",
          "name": "nftAddress",
          "type": "address"
        },
        {
          "internalType": "uint256",
          "name": "tokenId",
          "type": "uint256"
        }
      ],
      "name": "getTrainingStatus",
      "outputs": [
        {
          "components": [
            {
              "internalType": "address",
              "name": "_address",
              "type": "address"
            },
            {
              "internalType": "uint256",
              "name": "tokenId",
              "type": "uint256"
            },
            {
              "internalType": "uint256",
              "name": "level",
              "type": "uint256"
            },
            {
              "internalType": "uint256",
              "name": "treeId",
              "type": "uint256"
            },
            {
              "internalType": "uint256",
              "name": "skillId",
              "type": "uint256"
            },
            {
              "internalType": "uint256",
              "name": "startedAt",
              "type": "uint256"
            },
            {
              "internalType": "uint256",
              "name": "completeAt",
              "type": "uint256"
            }
          ],
          "internalType": "struct ProfessionStakingHarmonyUpgradeable.TrainingStatus",
          "name": "",
          "type": "tuple"
        }
      ],
      "stateMutability": "view",
      "type": "function"
    },
    {
      "inputs": [
        {
          "internalType": "bytes32",
          "name": "role",
          "type": "bytes32"
        },
        {
          "internalType": "address",
          "name": "account",
          "type": "address"
        }
      ],
      "name": "grantRole",
      "outputs": [],
      "stateMutability": "nonpayable",
      "type": "function"
    },
    {
      "inputs": [
        {
          "internalType": "bytes32",
          "name": "role",
          "type": "bytes32"
        },
        {
          "internalType": "address",
          "name": "account",
          "type": "address"
        }
      ],
      "name": "hasRole",
      "outputs": [
        {
          "internalType": "bool",
          "name": "",
          "type": "bool"
        }
      ],
      "stateMutability": "view",
      "type": "function"
    },
    {
      "inputs": [],
      "name": "initialize",
      "outputs": [],
      "stateMutability": "nonpayable",
      "type": "function"
    },
    {
      "inputs": [
        {
          "internalType": "address",
          "name": "nftAddress",
          "type": "address"
        },
        {
          "internalType": "uint256",
          "name": "tokenId",
          "type": "uint256"
        }
      ],
      "name": "isStakingEnabled",
      "outputs": [
        {
          "internalType": "bool",
          "name": "",
          "type": "bool"
        }
      ],
      "stateMutability": "view",
      "type": "function"
    },
    {
      "inputs": [
        {
          "internalType": "address",
          "name": "_address",
          "type": "address"
        },
        {
          "internalType": "address",
          "name": "nftAddress",
          "type": "address"
        },
        {
          "internalType": "uint256",
          "name": "tokenId",
          "type": "uint256"
        },
        {
          "internalType": "uint256",
          "name": "skillId",
          "type": "uint256"
        }
      ],
      "name": "modifyActiveTrainingSkill",
      "outputs": [],
      "stateMutability": "nonpayable",
      "type": "function"
    },
    {
      "inputs": [
        {
          "internalType": "address",
          "name": "",
          "type": "address"
        },
        {
          "internalType": "address",
          "name": "",
          "type": "address"
        },
        {
          "internalType": "uint256",
          "name": "",
          "type": "uint256"
        },
        {
          "internalType": "bytes",
          "name": "",
          "type": "bytes"
        }
      ],
      "name": "onERC721Received",
      "outputs": [
        {
          "internalType": "bytes4",
          "name": "",
          "type": "bytes4"
        }
      ],
      "stateMutability": "pure",
      "type": "function"
    },
    {
      "inputs": [],
      "name": "pause",
      "outputs": [],
      "stateMutability": "nonpayable",
      "type": "function"
    },
    {
      "inputs": [],
      "name": "paused",
      "outputs": [
        {
          "internalType": "bool",
          "name": "",
          "type": "bool"
        }
      ],
      "stateMutability": "view",
      "type": "function"
    },
    {
      "inputs": [],
      "name": "pendingRewards",
      "outputs": [
        {
          "internalType": "uint256",
          "name": "",
          "type": "uint256"
        }
      ],
      "stateMutability": "view",
      "type": "function"
    },
    {
      "inputs": [
        {
          "internalType": "address",
          "name": "_address",
          "type": "address"
        }
      ],
      "name": "pendingRewardsOf",
      "outputs": [
        {
          "internalType": "uint256",
          "name": "",
          "type": "uint256"
        }
      ],
      "stateMutability": "view",
      "type": "function"
    },
    {
      "inputs": [
        {
          "internalType": "bytes32",
          "name": "role",
          "type": "bytes32"
        },
        {
          "internalType": "address",
          "name": "account",
          "type": "address"
        }
      ],
      "name": "renounceRole",
      "outputs": [],
      "stateMutability": "nonpayable",
      "type": "function"
    },
    {
      "inputs": [
        {
          "internalType": "bytes32",
          "name": "role",
          "type": "bytes32"
        },
        {
          "internalType": "address",
          "name": "account",
          "type": "address"
        }
      ],
      "name": "revokeRole",
      "outputs": [],
      "stateMutability": "nonpayable",
      "type": "function"
    },
    {
      "inputs": [
        {
          "internalType": "address",
          "name": "_address",
          "type": "address"
        }
      ],
      "name": "setGameStorage",
      "outputs": [],
      "stateMutability": "nonpayable",
      "type": "function"
    },
    {
      "inputs": [
        {
          "internalType": "uint256",
          "name": "time",
          "type": "uint256"
        }
      ],
      "name": "setLastRewardTime",
      "outputs": [],
      "stateMutability": "nonpayable",
      "type": "function"
    },
    {
      "inputs": [
        {
          "internalType": "address",
          "name": "nftAddress",
          "type": "address"
        },
        {
          "internalType": "uint256",
          "name": "treeId",
          "type": "uint256"
        },
        {
          "internalType": "uint256",
          "name": "skillId",
          "type": "uint256"
        }
      ],
      "name": "setSkillPointer",
      "outputs": [],
      "stateMutability": "nonpayable",
      "type": "function"
    },
    {
      "inputs": [
        {
          "internalType": "uint256",
          "name": "level",
          "type": "uint256"
        },
        {
          "internalType": "uint256",
          "name": "cost",
          "type": "uint256"
        },
        {
          "internalType": "uint256",
          "name": "time",
          "type": "uint256"
        }
      ],
      "name": "setTrainingCost",
      "outputs": [],
      "stateMutability": "nonpayable",
      "type": "function"
    },
    {
      "inputs": [
        {
          "internalType": "address",
          "name": "nftAddress",
          "type": "address"
        },
        {
          "internalType": "uint256",
          "name": "tokenId",
          "type": "uint256"
        }
      ],
      "name": "stake",
      "outputs": [],
      "stateMutability": "nonpayable",
      "type": "function"
    },
    {
      "inputs": [
        {
          "internalType": "address",
          "name": "nftAddress",
          "type": "address"
        },
        {
          "internalType": "uint256",
          "name": "tokenId",
          "type": "uint256"
        },
        {
          "internalType": "uint256",
          "name": "treeId",
          "type": "uint256"
        },
        {
          "internalType": "uint256",
          "name": "skillId",
          "type": "uint256"
        }
      ],
      "name": "startTraining",
      "outputs": [],
      "stateMutability": "nonpayable",
      "type": "function"
    },
    {
      "inputs": [
        {
          "internalType": "bytes4",
          "name": "interfaceId",
          "type": "bytes4"
        }
      ],
      "name": "supportsInterface",
      "outputs": [
        {
          "internalType": "bool",
          "name": "",
          "type": "bool"
        }
      ],
      "stateMutability": "view",
      "type": "function"
    },
    {
      "inputs": [],
      "name": "unpause",
      "outputs": [],
      "stateMutability": "nonpayable",
      "type": "function"
    },
    {
      "inputs": [
        {
          "internalType": "address",
          "name": "nftAddress",
          "type": "address"
        },
        {
          "internalType": "uint256",
          "name": "tokenId",
          "type": "uint256"
        }
      ],
      "name": "unstake",
      "outputs": [],
      "stateMutability": "nonpayable",
      "type": "function"
    },
    {
      "inputs": [
        {
          "internalType": "address",
          "name": "nftAddress",
          "type": "address"
        },
        {
          "internalType": "address",
          "name": "rewardToken",
          "type": "address"
        },
        {
          "internalType": "uint256",
          "name": "startTime",
          "type": "uint256"
        },
        {
          "internalType": "uint256",
          "name": "maxPointsPerSkill",
          "type": "uint256"
        }
      ],
      "name": "updateStakingConfig",
      "outputs": [],
      "stateMutability": "nonpayable",
      "type": "function"
    },
    {
      "inputs": [
        {
          "internalType": "address",
          "name": "to",
          "type": "address"
        },
        {
          "internalType": "address",
          "name": "token",
          "type": "address"
        },
        {
          "internalType": "uint256",
          "name": "amount",
          "type": "uint256"
        }
      ],
      "name": "withdrawPoolRewards",
      "outputs": [],
      "stateMutability": "nonpayable",
      "type": "function"
    }
  ],
  "bytecode": "0x60806040523480156200001157600080fd5b50600054610100900460ff1615808015620000335750600054600160ff909116105b8062000063575062000050306200013d60201b62003f931760201c565b15801562000063575060005460ff166001145b620000cb5760405162461bcd60e51b815260206004820152602e60248201527f496e697469616c697a61626c653a20636f6e747261637420697320616c72656160448201526d191e481a5b9a5d1a585b1a5e995960921b606482015260840160405180910390fd5b6000805460ff191660011790558015620000ef576000805461ff0019166101001790555b801562000136576000805461ff0019169055604051600181527f7f26b83ff96e1f2b6a682f133852f6798a09c465da95921460cefb38474024989060200160405180910390a15b506200014c565b6001600160a01b03163b151590565b615d8e806200015c6000396000f3fe608060405234801561001057600080fd5b50600436106103835760003560e01c806386e8953d116101de578063bea64ba21161010f578063d547741f116100ad578063e63ab1e91161007c578063e63ab1e9146107f2578063eded3fda14610807578063f87b9cc21461080f578063fa5887ee1461082257600080fd5b8063d547741f146107a6578063d9a2c1d2146107b9578063ddeae033146107cc578063e62ccc9c146107df57600080fd5b8063c75fb3e3116100e9578063c75fb3e31461075a578063ca6146601461076d578063cc3f7b1c14610780578063d3a13d421461079357600080fd5b8063bea64ba21461071f578063c2a672e014610732578063c59abf9f1461074557600080fd5b8063a401344b1161017c578063aed2151a11610156578063aed2151a146106dd578063aeeba615146106f0578063b7093e8014610703578063be29c9251461070c57600080fd5b8063a401344b146106a4578063abfc6e73146106b7578063adc9772e146106ca57600080fd5b806394a77066116101b857806394a770661461066e57806396856096146106815780639f8f606814610694578063a217fddf1461069c57600080fd5b806386e8953d14610620578063884f505b1461063357806391d148541461065b57600080fd5b80633f4ba83a116102b85780635c975abb1161025657806376c7e36a1161023057806376c7e36a146105dd5780638129fc1c146105fd57806381fda71d146106055780638456cb591461061857600080fd5b80635c975abb146105ac578063729c3553146105b757806375fa6e31146105ca57600080fd5b80634cb12fee116102925780634cb12fee1461055e5780634e71d92d146105715780634eeea443146105795780635a2d88001461058c57600080fd5b80633f4ba83a1461052a578063421f72c71461053257806347e633801461054957600080fd5b8063248a9ca31161032557806333820bac116102ff57806333820bac146104de57806336568abe146104f15780633988bad8146105045780633d564e491461051757600080fd5b8063248a9ca3146104875780632f2ff15d146104b857806332b95a6f146104cb57600080fd5b8063150b7a0211610361578063150b7a02146103d857806319545487146104295780632119e1401461043c57806323de54d81461045c57600080fd5b806301ffc9a7146103885780630ae7a461146103b0578063139bed4c146103c5575b600080fd5b61039b610396366004614fcc565b610835565b60405190151581526020015b60405180910390f35b6103c36103be366004614ff6565b61086c565b005b6103c36103d336600461516f565b61089d565b6104106103e6366004615240565b7f150b7a023d4804d13e8c85fb27262cb750cf6ba9f9dd3bb30d90f482ceeb4b1f95945050505050565b6040516001600160e01b031990911681526020016103a7565b6103c36104373660046152de565b610959565b61044f61044a366004615341565b6109e2565b6040516103a791906153cc565b60c95461046f906001600160a01b031681565b6040516001600160a01b0390911681526020016103a7565b6104aa6104953660046153da565b60009081526097602052604090206001015490565b6040519081526020016103a7565b6103c36104c63660046153f3565b610a6c565b6103c36104d93660046152de565b610a91565b6103c36104ec366004615423565b610b2d565b6103c36104ff3660046153f3565b610b68565b6104aa610512366004615458565b610be6565b6103c36105253660046152de565b610d40565b6103c3610dbb565b61053a610de6565b6040516103a7939291906154ff565b6104aa600080516020615d1983398151915281565b6103c361056c3660046155b3565b610fd0565b6103c36113d7565b6103c36105873660046155df565b6113f0565b61059f61059a3660046155b3565b6114dd565b6040516103a79190615631565b60335460ff1661039b565b6103c36105c5366004615341565b6119b6565b6103c36105d83660046153da565b611a29565b6105f06105eb366004615458565b611a3a565b6040516103a79190615644565b6103c3611d7f565b6104aa6106133660046155b3565b611ed2565b6103c3611f83565b61039b61062e3660046155b3565b611fab565b610646610641366004615458565b61205e565b604080519283526020830191909152016103a7565b61039b6106693660046153f3565b612106565b6103c361067c366004615692565b612131565b6103c361068f36600461572c565b6124e7565b6105f0612532565b6104aa600081565b6103c36106b2366004615458565b612542565b6103c36106c5366004615768565b6125ea565b6103c36106d83660046155b3565b6127dd565b6103c36106eb3660046157ae565b612b40565b6103c36106fe3660046152de565b612c42565b6104aa60d25481565b6103c361071a366004615835565b612cde565b6103c361072d366004615341565b612e68565b6103c36107403660046155b3565b612ffc565b61074d613007565b6040516103a791906158e1565b61074d610768366004615458565b61300e565b6103c361077b366004615768565b6130a6565b6103c361078e3660046155b3565b6130eb565b6103c36107a1366004615458565b61348d565b6103c36107b43660046153f3565b6134c8565b6103c36107c73660046152de565b6134ed565b6103c36107da366004615458565b613568565b6103c36107ed3660046155b3565b6135c7565b6104aa600080516020615d3983398151915281565b6104aa613884565b6103c361081d366004615458565b61388f565b6103c36108303660046158f4565b613968565b60006001600160e01b03198216637965db0b60e01b148061086657506301ffc9a760e01b6001600160e01b03198316145b92915050565b600080516020615d1983398151915261088481613fa2565b50600092835260cb602052604090922090815560010155565b60006108a881613fa2565b60005b86518110156109505761093e8782815181106108c9576108c961592f565b60200260200101518783815181106108e3576108e361592f565b60200260200101518784815181106108fd576108fd61592f565b60200260200101518785815181106109175761091761592f565b60200260200101518786815181106109315761093161592f565b60200260200101516113f0565b806109488161595b565b9150506108ab565b50505050505050565b80518251146109835760405162461bcd60e51b815260040161097a90615974565b60405180910390fd5b60005b82518110156109dd576109cb8382815181106109a4576109a461592f565b60200260200101518383815181106109be576109be61592f565b6020026020010151610fd0565b806109d58161595b565b915050610986565b505050565b6109ea614f01565b506001600160a01b03928316600090815260ca602090815260408083209486168352938152838220928252918252829020825160e081018452815490941684526001810154918401919091526002810154918301919091526003810154606083015260048101546080830152600581015460a08301526006015460c082015290565b600082815260976020526040902060010154610a8781613fa2565b6109dd8383613fac565b4260d25411610ab25760405162461bcd60e51b815260040161097a906159b8565b8051825114610ad35760405162461bcd60e51b815260040161097a90615974565b60005b82518110156109dd57610b1b838281518110610af457610af461592f565b6020026020010151838381518110610b0e57610b0e61592f565b60200260200101516127dd565b80610b258161595b565b915050610ad6565b600080516020615d19833981519152610b4581613fa2565b506001600160a01b03909216600090815260d06020526040902090815560010155565b6001600160a01b0381163314610bd85760405162461bcd60e51b815260206004820152602f60248201527f416363657373436f6e74726f6c3a2063616e206f6e6c792072656e6f756e636560448201526e103937b632b9903337b91039b2b63360891b606482015260840161097a565b610be28282614032565b5050565b6001600160a01b038116600090815260d1602090815260408083205460cc9092528220825b8154811015610d375760d254826000018281548110610c2c57610c2c61592f565b9060005260206000209060030201600201541015610d25576000826000018281548110610c5b57610c5b61592f565b90600052602060002090600302016002015460d254610c7a91906159ef565b90506000610cde846000018481548110610c9657610c9661592f565b600091825260209091206003909102015485546001600160a01b0390911690869086908110610cc757610cc761592f565b906000526020600020906003020160010154611ed2565b90508162015180610cf0836001615a02565b610d0290670de0b6b3a7640000615a15565b610d0c9190615a34565b610d169190615a15565b610d209086615a02565b945050505b80610d2f8161595b565b915050610c0b565b50909392505050565b8051825114610d615760405162461bcd60e51b815260040161097a90615974565b60005b82518110156109dd57610da9838281518110610d8257610d8261592f565b6020026020010151838381518110610d9c57610d9c61592f565b6020026020010151612ffc565b80610db38161595b565b915050610d64565b600080516020615d39833981519152610dd381613fa2565b610ddb614099565b610de36140cd565b50565b60608060606000610df760cd61411f565b9050806001600160401b03811115610e1157610e11615022565b604051908082528060200260200182016040528015610e3a578160200160208202803683370190505b509150806001600160401b03811115610e5557610e55615022565b604051908082528060200260200182016040528015610e8857816020015b6060815260200190600190039081610e735790505b50925060005b81811015610fbd5760cc6000610ea560cd84614129565b6001600160a01b03166001600160a01b03168152602001908152602001600020600001805480602002602001604051908101604052809291908181526020016000905b82821015610f3d576000848152602090819020604080516060810182526003860290920180546001600160a01b0316835260018082015484860152600290910154918301919091529083529092019101610ee8565b50505050848281518110610f5357610f5361592f565b602090810291909101015260d16000610f6d60cd84614129565b6001600160a01b03166001600160a01b0316815260200190815260200160002054838281518110610fa057610fa061592f565b602090810291909101015280610fb58161595b565b915050610e8e565b50610fc860cd61413c565b935050909192565b6040516331a9108f60e11b8152600481018290528290829030906001600160a01b03841690636352211e90602401602060405180830381865afa15801561101b573d6000803e3d6000fd5b505050506040513d601f19601f8201168201806040525081019061103f9190615a56565b6001600160a01b0316146110655760405162461bcd60e51b815260040161097a90615a73565b60c95460405163537a724f60e11b8152859185916001600160a01b039091169063a6f4e49e906110a090859085906000908190600401615a97565b602060405180830381865afa1580156110bd573d6000803e3d6000fd5b505050506040513d601f19601f820116820180604052508101906110e19190615abd565b6001146111005760405162461bcd60e51b815260040161097a90615ad6565b33600090815260ca602090815260408083206001600160a01b038a16845282528083208884529091529020600581015461116b5760405162461bcd60e51b815260206004820152600c60248201526b4e6f7420747261696e696e6760a01b604482015260640161097a565b42816006015411156111bf5760405162461bcd60e51b815260206004820152601a60248201527f547261696e696e67207374696c6c20696e2070726f6772657373000000000000604482015260640161097a565b60005b33600090815260cc60205260409020548110156112645733600090815260cc602052604090208054889190839081106111fd576111fd61592f565b906000526020600020906003020160010154036112525761124d335b33600090815260cc6020526040902080548490811061123a5761123a61592f565b9060005260206000209060030201614149565b611264565b8061125c8161595b565b9150506111c2565b5060c95460038201546004808401546002850154604051630d126da960e11b81526001600160a01b038d811694820194909452602481018c905260448101949094526064840191909152608483015290911690631a24db529060a401600060405180830381600087803b1580156112da57600080fd5b505af11580156112ee573d6000803e3d6000fd5b50505050866001600160a01b03166113033390565b6001600160a01b03167f4cffb663b46d78e759211fc8a998ed5dd16066c4229b4b4e94bc0ff7431e85a888846003015485600401548660020154604051611363949392919093845260208401929092526040830152606082015260800190565b60405180910390a3505033600090815260ca602090815260408083206001600160a01b039890981683529681528682209582529490945250505090812080546001600160a01b0319168155600181018290556002810182905560038101829055600481018290556005810182905560060155565b6113e533614172565b614172565b6113ee336141c0565b565b60006113fb81613fa2565b6001600160a01b038616600090815260cc602052604090208054859190879081106114285761142861592f565b6000918252602080832060039290920290910180546001600160a01b0319166001600160a01b03948516179055918816815260cc909152604090208054849190879081106114785761147861592f565b600091825260209091206001600390920201015581156114d5576001600160a01b038616600090815260cc602052604090208054839190879081106114bf576114bf61592f565b9060005260206000209060030201600201819055505b505050505050565b6001600160a01b038216600090815260cf60209081526040808320815160a0810183528154815260018201548185015260028201805484518187028101870186528181526060979693958601939092919083018282801561155d57602002820191906000526020600020905b815481526020019060010190808311611549575b50505050508152602001600382018054806020026020016040519081016040528092919081815260200182805480156115b557602002820191906000526020600020905b8154815260200190600101908083116115a1575b5050509183525050600491909101546001600160a01b031660209091015280519091506116245760405162461bcd60e51b815260206004820152601e60248201527f4e6f20747261696e696e672073657373696f6e20636f6e666967757265640000604482015260640161097a565b60008160400151516001600160401b0381111561164357611643615022565b60405190808252806020026020018201604052801561166c578160200160208202803683370190505b50905060008060005b8460400151518110156117cb5760c954604086015180516001600160a01b039092169163a6f4e49e918b918b9190869081106116b3576116b361592f565b6020026020010151896060015186815181106116d1576116d161592f565b60200260200101516040518563ffffffff1660e01b81526004016116f89493929190615a97565b602060405180830381865afa158015611715573d6000803e3d6000fd5b505050506040513d601f19601f820116820180604052508101906117399190615abd565b84828151811061174b5761174b61592f565b602002602001018181525050600084828151811061176b5761176b61592f565b6020026020010151111561178757826117838161595b565b9350505b846020015184828151811061179e5761179e61592f565b6020026020010151036117b957816117b58161595b565b9250505b806117c38161595b565b915050611675565b50816000036117e257505050606001519050610866565b806002036117f857506060935061086692505050565b6000600185604001515161180c91906159ef565b6001600160401b0381111561182357611823615022565b60405190808252806020026020018201604052801561184c578160200160208202803683370190505b5090506000805b85518110156119a85783600114801561186c5750846001145b801561189157508581815181106118855761188561592f565b60200260200101516000145b156118df57866060015181815181106118ac576118ac61592f565b60200260200101518383815181106118c6576118c661592f565b6020908102919091010152816118db8161595b565b9250505b60008682815181106118f3576118f361592f565b60200260200101511180156119245750866020015186828151811061191a5761191a61592f565b6020026020010151105b156119965760408051600180825281830190925260009160208083019080368337019050509050876060015182815181106119615761196161592f565b60200260200101518160008151811061197c5761197c61592f565b602090810291909101015297506108669650505050505050565b806119a08161595b565b915050611853565b509098975050505050505050565b60006119c181613fa2565b506001600160a01b03928316600090815260ca60209081526040808320949095168252928352838120918152915290812080546001600160a01b0319168155600181018290556002810182905560038101829055600481018290556005810182905560060155565b6000611a3481613fa2565b5060d255565b6001600160a01b038116600090815260cc60209081526040808320805482518185028101850190935280835260609493849084015b82821015611ac4576000848152602090819020604080516060810182526003860290920180546001600160a01b0316835260018082015484860152600290910154918301919091529083529092019101611a6f565b5050505090506000805b8251811015611be4576001600160a01b038516600090815260ca6020526040812084518290869085908110611b0557611b0561592f565b6020026020010151600001516001600160a01b03166001600160a01b031681526020019081526020016000206000858481518110611b4557611b4561592f565b6020908102919091018101518101518252818101929092526040908101600020815160e08101835281546001600160a01b031681526001820154938101939093526002810154918301919091526003810154606083015260048101546080830152600581015460a08301526006015460c0820181905290915015611bd15782611bcd8161595b565b9350505b5080611bdc8161595b565b915050611ace565b506000816001600160401b03811115611bff57611bff615022565b604051908082528060200260200182016040528015611c3857816020015b611c25614f01565b815260200190600190039081611c1d5790505b5090506000805b8451811015611d74576001600160a01b038716600090815260ca6020526040812086518290889085908110611c7657611c7661592f565b6020026020010151600001516001600160a01b03166001600160a01b031681526020019081526020016000206000878481518110611cb657611cb661592f565b6020908102919091018101518101518252818101929092526040908101600020815160e08101835281546001600160a01b031681526001820154938101939093526002810154918301919091526003810154606083015260048101546080830152600581015460a08301526006015460c0820181905290915015611d615780848481518110611d4757611d4761592f565b60200260200101819052508280611d5d9061595b565b9350505b5080611d6c8161595b565b915050611c3f565b509095945050505050565b600054610100900460ff1615808015611d9f5750600054600160ff909116105b80611db95750303b158015611db9575060005460ff166001145b611e1c5760405162461bcd60e51b815260206004820152602e60248201527f496e697469616c697a61626c653a20636f6e747261637420697320616c72656160448201526d191e481a5b9a5d1a585b1a5e995960921b606482015260840161097a565b6000805460ff191660011790558015611e3f576000805461ff0019166101001790555b611e476143bc565b611e4f6143eb565b611e5a600033613fac565b611e72600080516020615d3983398151915233613fac565b611e8a600080516020615d1983398151915233613fac565b8015610de3576000805461ff0019169055604051600181527f7f26b83ff96e1f2b6a682f133852f6798a09c465da95921460cefb38474024989060200160405180910390a150565b600080805b600c811015611f7b5760c95460405163537a724f60e11b81526000916001600160a01b03169063a6f4e49e90611f1890899089906001908890600401615a97565b602060405180830381865afa158015611f35573d6000803e3d6000fd5b505050506040513d601f19601f82011682018060405250810190611f599190615abd565b9050611f658184615a02565b9250508080611f739061595b565b915050611ed7565b509392505050565b600080516020615d39833981519152611f9b81613fa2565b611fa3614099565b610de3614412565b6001600160a01b03808316600090815260d0602052604080822060c95481546001830154935163537a724f60e11b8152949592948694929093169263a6f4e49e92611ffd928a928a9290600401615a97565b602060405180830381865afa15801561201a573d6000803e3d6000fd5b505050506040513d601f19601f8201168201806040525081019061203e9190615abd565b90508060010361205357600192505050610866565b506000949350505050565b6000808061206b81613fa2565b6001600160a01b038416600090815260d16020526040908190205490516370a0823160e01b815230600482015290925073892d81221484f690c0a97d3dd18b9144a3ecdfb79081906370a0823190602401602060405180830381865afa1580156120d9573d6000803e3d6000fd5b505050506040513d601f19601f820116820180604052508101906120fd9190615abd565b93505050915091565b60009182526097602090815260408084206001600160a01b0393909316845291905290205460ff1690565b600080516020615d1983398151915261214981613fa2565b6001600160a01b038716600090815260cf6020526040902054156121af5760405162461bcd60e51b815260206004820152601d60248201527f5374616b696e6720636f6e66696720616c726561647920657869737473000000604482015260640161097a565b60008351116121f85760405162461bcd60e51b81526020600482015260156024820152744d697373696e672074726565496420636f6e66696760581b604482015260640161097a565b60008251116122425760405162461bcd60e51b81526020600482015260166024820152754d697373696e6720736b696c6c496420636f6e66696760501b604482015260640161097a565b82518251146122a25760405162461bcd60e51b815260206004820152602660248201527f5472656549647320616e6420536b696c6c49647320617272617973206d757374604482015265040dac2e8c6d60d31b606482015260840161097a565b600084116122c25760405162461bcd60e51b815260040161097a90615afc565b4285116122e15760405162461bcd60e51b815260040161097a90615b44565b6040516370a0823160e01b81523060048201526000906001600160a01b038816906370a0823190602401602060405180830381865afa158015612328573d6000803e3d6000fd5b505050506040513d601f19601f8201168201806040525081019061234c9190615abd565b116123905760405162461bcd60e51b81526020600482015260146024820152734e6f2066756e647320666f72207265776172647360601b604482015260640161097a565b612398614099565b6001600160a01b03878116600090815260cf602052604081206004810180546001600160a01b031916938a169390931790925586825560019091018590555b83518110156124975760cf6000896001600160a01b03166001600160a01b0316815260200190815260200160002060020184828151811061241a5761241a61592f565b6020908102919091018101518254600181018455600093845282842001556001600160a01b038a16825260cf90526040902083516003909101908490839081106124665761246661592f565b602090810291909101810151825460018101845560009384529190922001558061248f8161595b565b9150506123d7565b50604080516001600160a01b038881168252602082018890528916917fc6e5f1ee3138795eeda2fa0aab37379a177c4f04396146dd2b154ab55f5c5585910160405180910390a250505050505050565b60006124f281613fa2565b60005b82518110156109dd576125208382815181106125135761251361592f565b602002602001015161388f565b8061252a8161595b565b9150506124f5565b606061253d33611a3a565b905090565b600080516020615d1983398151915261255a81613fa2565b612562614099565b6001600160a01b038216600090815260cf6020526040812081815560018101829055906125926002830182614f47565b6125a0600383016000614f47565b5060040180546001600160a01b03191690556040516001600160a01b038316907fed93036dfb7e5500a2a7f2471a56e6b3389a8c28c72adca8ba9f6a4025ca6d5890600090a25050565b600080516020615d1983398151915261260281613fa2565b6001600160a01b038516600090815260cf602052604081205490036126695760405162461bcd60e51b815260206004820152601d60248201527f5374616b696e6720636f6e66696720646f6573206e6f74206578697374000000604482015260640161097a565b600082116126895760405162461bcd60e51b815260040161097a90615afc565b4283116126a85760405162461bcd60e51b815260040161097a90615b44565b6040516370a0823160e01b81523060048201526000906001600160a01b038616906370a0823190602401602060405180830381865afa1580156126ef573d6000803e3d6000fd5b505050506040513d601f19601f820116820180604052508101906127139190615abd565b116127575760405162461bcd60e51b81526020600482015260146024820152734e6f2066756e647320666f72207265776172647360601b604482015260640161097a565b61275f614099565b6001600160a01b03858116600081815260cf60209081526040918290206004810180546001600160a01b031916958a169586179055878155600181018790558251948552908401879052927f255d2940ab142f16cd2452c452fc20185bcbc341ce9c1646bc3d4feac9dc3371910160405180910390a2505050505050565b4260d254116127fe5760405162461bcd60e51b815260040161097a906159b8565b6040516331a9108f60e11b8152600481018290528290829030906001600160a01b03841690636352211e90602401602060405180830381865afa158015612849573d6000803e3d6000fd5b505050506040513d601f19601f8201168201806040525081019061286d9190615a56565b6001600160a01b0316036128b45760405162461bcd60e51b815260206004820152600e60248201526d105b1c9958591e481cdd185ad95960921b604482015260640161097a565b60c95460405163537a724f60e11b8152859185916001600160a01b039091169063a6f4e49e906128ef90859085906000908190600401615a97565b602060405180830381865afa15801561290c573d6000803e3d6000fd5b505050506040513d601f19601f820116820180604052508101906129309190615abd565b60011461294f5760405162461bcd60e51b815260040161097a90615ad6565b6001600160a01b038616600090815260cf60205260409020546129a45760405162461bcd60e51b815260206004820152600d60248201526c496e76616c6964207374616b6560981b604482015260640161097a565b6001600160a01b038616600090815260cf6020526040902054421015612a065760405162461bcd60e51b815260206004820152601760248201527614dd185ada5b99c81a185cc81b9bdd081cdd185c9d1959604a1b604482015260640161097a565b604051632142170760e11b81526001600160a01b038716906342842e0e90612a3690339030908a90600401615b8e565b600060405180830381600087803b158015612a5057600080fd5b505af1158015612a64573d6000803e3d6000fd5b50505050612a7a612a723390565b60cd9061444f565b5033600090815260cc6020908152604080832081516060810183526001600160a01b038b811682528185018b815242948301948552835460018082018655948852959096209151600390950290910180546001600160a01b031916949091169390931783559251928201929092559051600290910155612af86113d7565b6040518581526001600160a01b0387169033907f5dac0c1b1112564a045ba943c9d50270893e8e826c49be8e7073adc713ab7bd79060200160405180910390a3505050505050565b600080516020615d19833981519152612b5881613fa2565b82518451148015612b6a575081518351145b612bc75760405162461bcd60e51b815260206004820152602860248201527f416c6c20696e70757420617272617973206d757374206265207468652073616d6044820152670ca40d8cadccee8d60c31b606482015260840161097a565b60005b8451811015612c3b57612c29858281518110612be857612be861592f565b6020026020010151858381518110612c0257612c0261592f565b6020026020010151858481518110612c1c57612c1c61592f565b602002602001015161086c565b80612c338161595b565b915050612bca565b5050505050565b4260d25411612c635760405162461bcd60e51b815260040161097a906159b8565b8051825114612c845760405162461bcd60e51b815260040161097a90615974565b60005b82518110156109dd57612ccc838281518110612ca557612ca561592f565b6020026020010151838381518110612cbf57612cbf61592f565b60200260200101516130eb565b80612cd68161595b565b915050612c87565b4260d25411612cff5760405162461bcd60e51b815260040161097a906159b8565b8251845114612d205760405162461bcd60e51b815260040161097a90615974565b8151845114612d7d5760405162461bcd60e51b815260206004820152602360248201527f6164647265737320636f756e74206d757374206d61746368207472656520636f6044820152621d5b9d60ea1b606482015260840161097a565b8051845114612dda5760405162461bcd60e51b8152602060048201526024808201527f6164647265737320636f756e74206d757374206d6174636820736b696c6c20636044820152631bdd5b9d60e21b606482015260840161097a565b60005b8451811015612c3b57612e56858281518110612dfb57612dfb61592f565b6020026020010151858381518110612e1557612e1561592f565b6020026020010151858481518110612e2f57612e2f61592f565b6020026020010151858581518110612e4957612e4961592f565b6020026020010151613968565b80612e608161595b565b915050612ddd565b6000612e7381613fa2565b6040516370a0823160e01b8152306004820152839083906001600160a01b038316906370a0823190602401602060405180830381865afa158015612ebb573d6000803e3d6000fd5b505050506040513d601f19601f82011682018060405250810190612edf9190615abd565b1015612f245760405162461bcd60e51b8152602060048201526014602482015273496e73756666696369656e742062616c616e636560601b604482015260640161097a565b60405163a9059cbb60e01b81526001600160a01b0386811660048301526024820185905282169063a9059cbb906044016020604051808303816000875af1158015612f73573d6000803e3d6000fd5b505050506040513d601f19601f82011682018060405250810190612f979190615bb2565b50836001600160a01b0316856001600160a01b0316612fb33390565b6001600160a01b03167f74ed50f6a2a005dd31f4766fb60918c4a6728cb0da9eeb81b9526bc6da11ec0f86604051612fed91815260200190565b60405180910390a45050505050565b610be2338383614464565b606061253d335b6001600160a01b038116600090815260cc60209081526040808320805482518185028101850190935280835260609492939192909184015b8282101561309b576000848152602090819020604080516060810182526003860290920180546001600160a01b0316835260018082015484860152600290910154918301919091529083529092019101613046565b505050509050919050565b60006130b181613fa2565b506001600160a01b03938416600090815260ca60209081526040808320959096168252938452848120928152919092529190912060040155565b4260d2541161310c5760405162461bcd60e51b815260040161097a906159b8565b6040516331a9108f60e11b8152600481018290528290829030906001600160a01b03841690636352211e90602401602060405180830381865afa158015613157573d6000803e3d6000fd5b505050506040513d601f19601f8201168201806040525081019061317b9190615a56565b6001600160a01b0316036131c25760405162461bcd60e51b815260206004820152600e60248201526d105b1c9958591e481cdd185ad95960921b604482015260640161097a565b6001600160a01b038416600090815260d060205260408120906131e58686611fab565b905080156132355760405162461bcd60e51b815260206004820152601860248201527f5374616b696e6720616c726561647920756e6c6f636b65640000000000000000604482015260640161097a565b6001600160a01b038616600090815260cf60205260409020546132935760405162461bcd60e51b815260206004820152601660248201527514dd185ada5b99c81b9bdd0818dbdb999a59dd5c995960521b604482015260640161097a565b6001600160a01b038616600090815260cf60205260409020544210156132f55760405162461bcd60e51b815260206004820152601760248201527614dd185ada5b99c81a185cc81b9bdd081cdd185c9d1959604a1b604482015260640161097a565b6001600160a01b03868116600090815260cf602052604090206004015416806323b872dd336000805260cb6020527f4239c2c8c3d9b94feb214b0f54d7c869ce1ceb63517be57644336cda4967a468546040516001600160e01b031960e085901b16815261336892913091600401615b8e565b6020604051808303816000875af1158015613387573d6000803e3d6000fd5b505050506040513d601f19601f820116820180604052508101906133ab9190615bb2565b5060c9548354600180860154604051630d126da960e11b81526001600160a01b038c81166004830152602482018c9052604482019490945260648101919091526084810191909152911690631a24db529060a401600060405180830381600087803b15801561341957600080fd5b505af115801561342d573d6000803e3d6000fd5b50505050866001600160a01b03166134423390565b6001600160a01b03167f051144eeaaad1c4ee6b1eab928f531a9daf1687b3e0f8db00dae3f5df8c285db8860405161347c91815260200190565b60405180910390a350505050505050565b600080516020615d198339815191526134a581613fa2565b5060c980546001600160a01b0319166001600160a01b0392909216919091179055565b6000828152609760205260409020600101546134e381613fa2565b6109dd8383614032565b805182511461350e5760405162461bcd60e51b815260040161097a90615974565b60005b82518110156109dd5761355683828151811061352f5761352f61592f565b60200260200101518383815181106135495761354961592f565b60200260200101516135c7565b806135608161595b565b915050613511565b600061357381613fa2565b600061357f60cd61413c565b905060005b81518110156135c1576135af8282815181106135a2576135a261592f565b6020026020010151614976565b806135b98161595b565b915050613584565b50505050565b6040516331a9108f60e11b8152600481018290528290829030906001600160a01b03841690636352211e90602401602060405180830381865afa158015613612573d6000803e3d6000fd5b505050506040513d601f19601f820116820180604052508101906136369190615a56565b6001600160a01b03161461365c5760405162461bcd60e51b815260040161097a90615a73565b60c95460405163537a724f60e11b8152859185916001600160a01b039091169063a6f4e49e9061369790859085906000908190600401615a97565b602060405180830381865afa1580156136b4573d6000803e3d6000fd5b505050506040513d601f19601f820116820180604052508101906136d89190615abd565b6001146136f75760405162461bcd60e51b815260040161097a90615ad6565b33600090815260ca602090815260408083206001600160a01b038a1684528252808320888452909152902060058101546137625760405162461bcd60e51b815260206004820152600c60248201526b4e6f7420747261696e696e6760a01b604482015260640161097a565b428160060154116137b55760405162461bcd60e51b815260206004820152601960248201527f547261696e696e6720616c72656164792066696e697368656400000000000000604482015260640161097a565b60005b33600090815260cc602052604090205481101561382a5733600090815260cc602052604090208054889190839081106137f3576137f361592f565b906000526020600020906003020160010154036138185761381333611219565b61382a565b806138228161595b565b9150506137b8565b50600381015460048201546040805189815260208101939093528201524260608201526001600160a01b0388169033907fc9b7c59fa980251f7ca7eae784c953e8a9f49d617be6edca0b41264ea05cb16990608001611363565b600061253d33610be6565b600061389a81613fa2565b60006138a583611a3a565b905080516000146138f85760405162461bcd60e51b815260206004820152601860248201527f55736572206861732061637469766520747261696e696e670000000000000000604482015260640161097a565b60006139038461300e565b905060005b8151811015612c3b57613956858383815181106139275761392761592f565b6020026020010151600001518484815181106139455761394561592f565b602002602001015160200151614464565b806139608161595b565b915050613908565b4260d254116139895760405162461bcd60e51b815260040161097a906159b8565b6040516331a9108f60e11b8152600481018490528490849030906001600160a01b03841690636352211e90602401602060405180830381865afa1580156139d4573d6000803e3d6000fd5b505050506040513d601f19601f820116820180604052508101906139f89190615a56565b6001600160a01b031614613a1e5760405162461bcd60e51b815260040161097a90615a73565b60c95460405163537a724f60e11b8152879187916001600160a01b039091169063a6f4e49e90613a5990859085906000908190600401615a97565b602060405180830381865afa158015613a76573d6000803e3d6000fd5b505050506040513d601f19601f82011682018060405250810190613a9a9190615abd565b600114613ab95760405162461bcd60e51b815260040161097a90615ad6565b6001600160a01b038816600090815260cf602052604090208054613b1f5760405162461bcd60e51b815260206004820152601e60248201527f4e6f20747261696e696e672073657373696f6e20636f6e666967757265640000604482015260640161097a565b8054421015613b705760405162461bcd60e51b815260206004820152601c60248201527f547261696e696e6720686173206e6f7420737461727465642079657400000000604482015260640161097a565b33600090815260ca602090815260408083206001600160a01b038d16845282528083208b84529091529020600581015415613bed5760405162461bcd60e51b815260206004820152601f60248201527f547261696e696e6720697320616c726561647920696e2070726f677265737300604482015260640161097a565b6000613bf98b8b6114dd565b90506000815111613c4c5760405162461bcd60e51b815260206004820152601e60248201527f4e6f20747261696e696e672073657373696f6e7320617661696c61626c650000604482015260640161097a565b6000805b8251811015613c945789838281518110613c6c57613c6c61592f565b602002602001015103613c825760019150613c94565b80613c8c8161595b565b915050613c50565b5080613ce25760405162461bcd60e51b815260206004820152601760248201527f496e76616c696420747261696e696e67206f7074696f6e000000000000000000604482015260640161097a565b600060c960009054906101000a90046001600160a01b03166001600160a01b031663a6f4e49e8e8e8e8e6040518563ffffffff1660e01b8152600401613d2b9493929190615a97565b602060405180830381865afa158015613d48573d6000803e3d6000fd5b505050506040513d601f19601f82011682018060405250810190613d6c9190615abd565b9050600060cb81613d7e846001615a02565b815260200190815260200160002090508560010154826001613da09190615a02565b1115613dee5760405162461bcd60e51b815260206004820152601e60248201527f45786365656473206d6178696d756d20747261696e696e67206c6576656c0000604482015260640161097a565b8054613e3c5760405162461bcd60e51b815260206004820152601d60248201527f547261696e696e67204c6576656c206973206e6f7420656e61626c6564000000604482015260640161097a565b60048681015482546040516323b872dd60e01b81526001600160a01b03909216926323b872dd92613e71923392309201615b8e565b6020604051808303816000875af1158015613e90573d6000803e3d6000fd5b505050506040513d601f19601f82011682018060405250810190613eb49190615bb2565b50613ec0826001615a02565b6002860155600385018c9055600485018b905542600586018190556001820154613ee991615a02565b600686015584546001600160a01b0319166001600160a01b038f169081178655600186018e9055336001600160a01b03167f98d1944772cc1ee399725448c633b3ec863f8be81e490479055d810afaa0225c8f8f8f613f49886001615a02565b60058c015460068d0154604080519687526020870195909552938501929092526060840152608083015260a082015260c00160405180910390a35050505050505050505050505050565b6001600160a01b03163b151590565b610de381336149c2565b613fb68282612106565b610be25760008281526097602090815260408083206001600160a01b03851684529091529020805460ff19166001179055613fee3390565b6001600160a01b0316816001600160a01b0316837f2f8788117e7eff1d82e926ec794901d17c78024a50270940304540a733656f0d60405160405180910390a45050565b61403c8282612106565b15610be25760008281526097602090815260408083206001600160a01b0385168085529252808320805460ff1916905551339285917ff6391f5c32d9c69d2a47ea670b442974b53935d1edc7fd64eb21e047a839171b9190a45050565b60005b6140a660cd61411f565b811015610de3576140bb6113e060cd83614129565b806140c58161595b565b91505061409c565b6140d5614a26565b6033805460ff191690557f5db9ee0a495bf2e6ff9c91a7834c1ba4fdd244a5e8aa4e537bd38aeae4b073aa335b6040516001600160a01b03909116815260200160405180910390a1565b6000610866825490565b60006141358383614a6f565b9392505050565b6060600061413583614a99565b60028101805442909155815460018301546109dd9185916001600160a01b039091169084614af5565b6001600160a01b038116600090815260cc60205260408120905b81548110156109dd576141ae8383600001838154811061123a5761123a61592f565b806141b88161595b565b91505061418c565b6001600160a01b038116600090815260d1602052604080822080549083905590516370a0823160e01b8152306004820152909173892d81221484f690c0a97d3dd18b9144a3ecdfb79182906370a0823190602401602060405180830381865afa158015614231573d6000803e3d6000fd5b505050506040513d601f19601f820116820180604052508101906142559190615abd565b9050828110156142a75760405162461bcd60e51b815260206004820181905260248201527f496e73756666696369656e74207265776172647320696e20636f6e7472616374604482015260640161097a565b60405163a9059cbb60e01b81526001600160a01b0385811660048301526024820185905283169063a9059cbb906044016020604051808303816000875af11580156142f6573d6000803e3d6000fd5b505050506040513d601f19601f8201168201806040525081019061431a9190615bb2565b506001600160a01b038416600090815260cc602052604090205415801561435757506001600160a01b038416600090815260d16020526040902054155b156143695761436760cd85614b96565b505b816001600160a01b0316846001600160a01b03167ff7a40077ff7a04c7e61f6f26fb13774259ddf1b6bce9ecf26a8276cdd3992683856040516143ae91815260200190565b60405180910390a350505050565b600054610100900460ff166143e35760405162461bcd60e51b815260040161097a90615bd4565b6113ee614bab565b600054610100900460ff166113ee5760405162461bcd60e51b815260040161097a90615bd4565b61441a614bde565b6033805460ff191660011790557f62e78cea01bee320cd4e420270b5ea74000d11b0c9f74754ebdbfc544b05a2586141023390565b6000614135836001600160a01b038416614c24565b6040516331a9108f60e11b8152600481018290528290829030906001600160a01b03841690636352211e90602401602060405180830381865afa1580156144af573d6000803e3d6000fd5b505050506040513d601f19601f820116820180604052508101906144d39190615a56565b6001600160a01b0316146144f95760405162461bcd60e51b815260040161097a90615a73565b60c95460405163537a724f60e11b8152859185916001600160a01b039091169063a6f4e49e9061453490859085906000908190600401615a97565b602060405180830381865afa158015614551573d6000803e3d6000fd5b505050506040513d601f19601f820116820180604052508101906145759190615abd565b6001146145945760405162461bcd60e51b815260040161097a90615ad6565b6001600160a01b038716600090815260cc60205260409020546145ea5760405162461bcd60e51b815260206004820152600e60248201526d139bc81391951cc81cdd185ad95960921b604482015260640161097a565b6001600160a01b038716600090815260cc6020908152604080832080548251818502810185019093528083529192909190849084015b82821015614675576000848152602090819020604080516060810182526003860290920180546001600160a01b0316835260018082015484860152600290910154918301919091529083529092019101614620565b5050506001600160a01b038a16600090815260cc6020526040812092935061469e929150614f65565b60005b81518110156148a157876001600160a01b03168282815181106146c6576146c661592f565b6020026020010151600001516001600160a01b03161480156147045750868282815181106146f6576146f661592f565b602002602001015160200151145b1561479b576147328989898585815181106147215761472161592f565b602002602001015160400151614af5565b6001600160a01b03808a16600090815260ca60209081526040808320938c1683529281528282208a8352905290812080546001600160a01b031916815560018101829055600281018290556003810182905560048101829055600581018290556006015561488f565b60cc60008a6001600160a01b03166001600160a01b0316815260200190815260200160002060000160405180606001604052808484815181106147e0576147e061592f565b6020026020010151600001516001600160a01b0316815260200184848151811061480c5761480c61592f565b602002602001015160200151815260200184848151811061482f5761482f61592f565b602090810291909101810151604090810151909252835460018082018655600095865294829020845160039092020180546001600160a01b0319166001600160a01b03909216919091178155908301519381019390935501516002909101555b806148998161595b565b9150506146a1565b506148ab88614172565b6148b4886141c0565b6148bd88614976565b6040516323b872dd60e01b81526001600160a01b038816906323b872dd906148ed9030908c908b90600401615b8e565b600060405180830381600087803b15801561490757600080fd5b505af115801561491b573d6000803e3d6000fd5b50505050866001600160a01b0316886001600160a01b03167fd8654fcc8cf5b36d30b3f5e4688fc78118e6d68de60b9994e09902268b57c3e38860405161496491815260200190565b60405180910390a35050505050505050565b6001600160a01b038116600090815260cc60205260409020541580156149b257506001600160a01b038116600090815260d16020526040902054155b15610de357610be260cd82614b96565b6149cc8282612106565b610be2576149e4816001600160a01b03166014614c73565b6149ef836020614c73565b604051602001614a00929190615c43565b60408051601f198184030181529082905262461bcd60e51b825261097a91600401615cb8565b60335460ff166113ee5760405162461bcd60e51b815260206004820152601460248201527314185d5cd8589b194e881b9bdd081c185d5cd95960621b604482015260640161097a565b6000826000018281548110614a8657614a8661592f565b9060005260206000200154905092915050565b606081600001805480602002602001604051908101604052809291908181526020018280548015614ae957602002820191906000526020600020905b815481526020019060010190808311614ad5575b50505050509050919050565b801580614b04575060d2548110155b6135c15760008160d254614b1891906159ef565b90506000614b268585611ed2565b905080614b328161595b565b915082905062015180614b4d83670de0b6b3a7640000615a15565b614b579190615a34565b614b619190615a15565b6001600160a01b038716600090815260d1602052604081208054909190614b89908490615a02565b9091555050505050505050565b6000614135836001600160a01b038416614e0e565b600054610100900460ff16614bd25760405162461bcd60e51b815260040161097a90615bd4565b6033805460ff19169055565b60335460ff16156113ee5760405162461bcd60e51b815260206004820152601060248201526f14185d5cd8589b194e881c185d5cd95960821b604482015260640161097a565b6000818152600183016020526040812054614c6b57508154600181810184556000848152602080822090930184905584548482528286019093526040902091909155610866565b506000610866565b60606000614c82836002615a15565b614c8d906002615a02565b6001600160401b03811115614ca457614ca4615022565b6040519080825280601f01601f191660200182016040528015614cce576020820181803683370190505b509050600360fc1b81600081518110614ce957614ce961592f565b60200101906001600160f81b031916908160001a905350600f60fb1b81600181518110614d1857614d1861592f565b60200101906001600160f81b031916908160001a9053506000614d3c846002615a15565b614d47906001615a02565b90505b6001811115614dbf576f181899199a1a9b1b9c1cb0b131b232b360811b85600f1660108110614d7b57614d7b61592f565b1a60f81b828281518110614d9157614d9161592f565b60200101906001600160f81b031916908160001a90535060049490941c93614db881615ceb565b9050614d4a565b5083156141355760405162461bcd60e51b815260206004820181905260248201527f537472696e67733a20686578206c656e67746820696e73756666696369656e74604482015260640161097a565b60008181526001830160205260408120548015614ef7576000614e326001836159ef565b8554909150600090614e46906001906159ef565b9050818114614eab576000866000018281548110614e6657614e6661592f565b9060005260206000200154905080876000018481548110614e8957614e8961592f565b6000918252602080832090910192909255918252600188019052604090208390555b8554869080614ebc57614ebc615d02565b600190038181906000526020600020016000905590558560010160008681526020019081526020016000206000905560019350505050610866565b6000915050610866565b6040518060e0016040528060006001600160a01b031681526020016000815260200160008152602001600081526020016000815260200160008152602001600081525090565b5080546000825590600052602060002090810190610de39190614f86565b5080546000825560030290600052602060002090810190610de39190614f9f565b5b80821115614f9b5760008155600101614f87565b5090565b5b80821115614f9b5780546001600160a01b03191681556000600182018190556002820155600301614fa0565b600060208284031215614fde57600080fd5b81356001600160e01b03198116811461413557600080fd5b60008060006060848603121561500b57600080fd5b505081359360208301359350604090920135919050565b634e487b7160e01b600052604160045260246000fd5b604051601f8201601f191681016001600160401b038111828210171561506057615060615022565b604052919050565b60006001600160401b0382111561508157615081615022565b5060051b60200190565b6001600160a01b0381168114610de357600080fd5b600082601f8301126150b157600080fd5b813560206150c66150c183615068565b615038565b82815260059290921b840181019181810190868411156150e557600080fd5b8286015b848110156151095780356150fc8161508b565b83529183019183016150e9565b509695505050505050565b600082601f83011261512557600080fd5b813560206151356150c183615068565b82815260059290921b8401810191818101908684111561515457600080fd5b8286015b848110156151095780358352918301918301615158565b600080600080600060a0868803121561518757600080fd5b85356001600160401b038082111561519e57600080fd5b6151aa89838a016150a0565b965060208801359150808211156151c057600080fd5b6151cc89838a01615114565b955060408801359150808211156151e257600080fd5b6151ee89838a016150a0565b9450606088013591508082111561520457600080fd5b61521089838a01615114565b9350608088013591508082111561522657600080fd5b5061523388828901615114565b9150509295509295909350565b60008060008060006080868803121561525857600080fd5b85356152638161508b565b945060208601356152738161508b565b93506040860135925060608601356001600160401b038082111561529657600080fd5b818801915088601f8301126152aa57600080fd5b8135818111156152b957600080fd5b8960208285010111156152cb57600080fd5b9699959850939650602001949392505050565b600080604083850312156152f157600080fd5b82356001600160401b038082111561530857600080fd5b615314868387016150a0565b9350602085013591508082111561532a57600080fd5b5061533785828601615114565b9150509250929050565b60008060006060848603121561535657600080fd5b83356153618161508b565b925060208401356153718161508b565b929592945050506040919091013590565b80516001600160a01b031682526020808201519083015260408082015190830152606080820151908301526080808201519083015260a0818101519083015260c090810151910152565b60e081016108668284615382565b6000602082840312156153ec57600080fd5b5035919050565b6000806040838503121561540657600080fd5b8235915060208301356154188161508b565b809150509250929050565b60008060006060848603121561543857600080fd5b83356154438161508b565b95602085013595506040909401359392505050565b60006020828403121561546a57600080fd5b81356141358161508b565b600081518084526020808501945080840160005b838110156154c457815180516001600160a01b0316885283810151848901526040908101519088015260609096019590820190600101615489565b509495945050505050565b600081518084526020808501945080840160005b838110156154c4578151875295820195908201906001016154e3565b606080825284519082018190526000906020906080840190828801845b828110156155415781516001600160a01b03168452928401929084019060010161551c565b50505083810382850152855180825282820190600581901b8301840188850160005b8381101561559157601f1986840301855261557f838351615475565b94870194925090860190600101615563565b505086810360408801526155a581896154cf565b9a9950505050505050505050565b600080604083850312156155c657600080fd5b82356155d18161508b565b946020939093013593505050565b600080600080600060a086880312156155f757600080fd5b85356156028161508b565b94506020860135935060408601356156198161508b565b94979396509394606081013594506080013592915050565b60208152600061413560208301846154cf565b6020808252825182820181905260009190848201906040850190845b8181101561568657615673838551615382565b9284019260e09290920191600101615660565b50909695505050505050565b60008060008060008060c087890312156156ab57600080fd5b86356156b68161508b565b955060208701356156c68161508b565b9450604087013593506060870135925060808701356001600160401b03808211156156f057600080fd5b6156fc8a838b01615114565b935060a089013591508082111561571257600080fd5b5061571f89828a01615114565b9150509295509295509295565b60006020828403121561573e57600080fd5b81356001600160401b0381111561575457600080fd5b615760848285016150a0565b949350505050565b6000806000806080858703121561577e57600080fd5b84356157898161508b565b935060208501356157998161508b565b93969395505050506040820135916060013590565b6000806000606084860312156157c357600080fd5b83356001600160401b03808211156157da57600080fd5b6157e687838801615114565b945060208601359150808211156157fc57600080fd5b61580887838801615114565b9350604086013591508082111561581e57600080fd5b5061582b86828701615114565b9150509250925092565b6000806000806080858703121561584b57600080fd5b84356001600160401b038082111561586257600080fd5b61586e888389016150a0565b9550602087013591508082111561588457600080fd5b61589088838901615114565b945060408701359150808211156158a657600080fd5b6158b288838901615114565b935060608701359150808211156158c857600080fd5b506158d587828801615114565b91505092959194509250565b6020815260006141356020830184615475565b6000806000806080858703121561590a57600080fd5b84356159158161508b565b966020860135965060408601359560600135945092505050565b634e487b7160e01b600052603260045260246000fd5b634e487b7160e01b600052601160045260246000fd5b60006001820161596d5761596d615945565b5060010190565b60208082526024908201527f6164647265737320636f756e74206d757374206d6174636820746f6b656e20636040820152631bdd5b9d60e21b606082015260800190565b6020808252601a908201527f436861726163746572207374616b696e672066696e6973686564000000000000604082015260600190565b8181038181111561086657610866615945565b8082018082111561086657610866615945565b6000816000190483118215151615615a2f57615a2f615945565b500290565b600082615a5157634e487b7160e01b600052601260045260246000fd5b500490565b600060208284031215615a6857600080fd5b81516141358161508b565b6020808252600a9082015269139bdd081cdd185ad95960b21b604082015260600190565b6001600160a01b0394909416845260208401929092526040830152606082015260800190565b600060208284031215615acf57600080fd5b5051919050565b6020808252600c908201526b139bdd081d5b9b1bd8dad95960a21b604082015260600190565b60208082526028908201527f6d6178506f696e7473506572536b696c6c206d75737420626520677265617465604082015267072207468616e20360c41b606082015260800190565b6020808252602a908201527f737461727454696d65206d7573742062652061206675747572652074696d6520604082015269696e207365636f6e647360b01b606082015260800190565b6001600160a01b039384168152919092166020820152604081019190915260600190565b600060208284031215615bc457600080fd5b8151801515811461413557600080fd5b6020808252602b908201527f496e697469616c697a61626c653a20636f6e7472616374206973206e6f74206960408201526a6e697469616c697a696e6760a81b606082015260800190565b60005b83811015615c3a578181015183820152602001615c22565b50506000910152565b7f416363657373436f6e74726f6c3a206163636f756e7420000000000000000000815260008351615c7b816017850160208801615c1f565b7001034b99036b4b9b9b4b733903937b6329607d1b6017918401918201528351615cac816028840160208801615c1f565b01602801949350505050565b6020815260008251806020840152615cd7816040850160208701615c1f565b601f01601f19169190910160400192915050565b600081615cfa57615cfa615945565b506000190190565b634e487b7160e01b600052603160045260246000fdfe73e573f9566d61418a34d5de3ff49360f9c51fec37f7486551670290f6285dab65d7a28e3265b37a6474929f336521b332c1681b933f6cb9f3376673440d862aa26469706673582212209916fe61191efdb958b0383fb56e9b3d78002ea420a5bc9609d8cc5d673be65c64736f6c63430008100033",
  "linkReferences": {},
  "deployedLinkReferences": {}
}