{
  "_format": "hh-sol-artifact-1",
  "contractName": "MagicL2",
  "sourceName": "contracts/upgradeable/ERC20/MAGIC/MagicL2.sol",
  "abi": [
    {
      "inputs": [],
      "stateMutability": "nonpayable",
      "type": "constructor"
    },
    {
      "anonymous": false,
      "inputs": [
        {
          "indexed": false,
          "internalType": "address",
          "name": "previousAdmin",
          "type": "address"
        },
        {
          "indexed": false,
          "internalType": "address",
          "name": "newAdmin",
          "type": "address"
        }
      ],
      "name": "AdminChanged",
      "type": "event"
    },
    {
      "anonymous": false,
      "inputs": [
        {
          "indexed": true,
          "internalType": "address",
          "name": "owner",
          "type": "address"
        },
        {
          "indexed": true,
          "internalType": "address",
          "name": "spender",
          "type": "address"
        },
        {
          "indexed": false,
          "internalType": "uint256",
          "name": "value",
          "type": "uint256"
        }
      ],
      "name": "Approval",
      "type": "event"
    },
    {
      "anonymous": false,
      "inputs": [
        {
          "indexed": true,
          "internalType": "address",
          "name": "beacon",
          "type": "address"
        }
      ],
      "name": "BeaconUpgraded",
      "type": "event"
    },
    {
      "anonymous": false,
      "inputs": [
        {
          "indexed": false,
          "internalType": "uint8",
          "name": "version",
          "type": "uint8"
        }
      ],
      "name": "Initialized",
      "type": "event"
    },
    {
      "anonymous": false,
      "inputs": [
        {
          "indexed": false,
          "internalType": "address",
          "name": "account",
          "type": "address"
        }
      ],
      "name": "Paused",
      "type": "event"
    },
    {
      "anonymous": false,
      "inputs": [
        {
          "indexed": true,
          "internalType": "bytes32",
          "name": "role",
          "type": "bytes32"
        },
        {
          "indexed": true,
          "internalType": "bytes32",
          "name": "previousAdminRole",
          "type": "bytes32"
        },
        {
          "indexed": true,
          "internalType": "bytes32",
          "name": "newAdminRole",
          "type": "bytes32"
        }
      ],
      "name": "RoleAdminChanged",
      "type": "event"
    },
    {
      "anonymous": false,
      "inputs": [
        {
          "indexed": true,
          "internalType": "bytes32",
          "name": "role",
          "type": "bytes32"
        },
        {
          "indexed": true,
          "internalType": "address",
          "name": "account",
          "type": "address"
        },
        {
          "indexed": true,
          "internalType": "address",
          "name": "sender",
          "type": "address"
        }
      ],
      "name": "RoleGranted",
      "type": "event"
    },
    {
      "anonymous": false,
      "inputs": [
        {
          "indexed": true,
          "internalType": "bytes32",
          "name": "role",
          "type": "bytes32"
        },
        {
          "indexed": true,
          "internalType": "address",
          "name": "account",
          "type": "address"
        },
        {
          "indexed": true,
          "internalType": "address",
          "name": "sender",
          "type": "address"
        }
      ],
      "name": "RoleRevoked",
      "type": "event"
    },
    {
      "anonymous": false,
      "inputs": [
        {
          "indexed": true,
          "internalType": "address",
          "name": "from",
          "type": "address"
        },
        {
          "indexed": true,
          "internalType": "address",
          "name": "to",
          "type": "address"
        },
        {
          "indexed": false,
          "internalType": "uint256",
          "name": "value",
          "type": "uint256"
        }
      ],
      "name": "Transfer",
      "type": "event"
    },
    {
      "anonymous": false,
      "inputs": [
        {
          "indexed": false,
          "internalType": "address",
          "name": "account",
          "type": "address"
        }
      ],
      "name": "Unpaused",
      "type": "event"
    },
    {
      "anonymous": false,
      "inputs": [
        {
          "indexed": true,
          "internalType": "address",
          "name": "implementation",
          "type": "address"
        }
      ],
      "name": "Upgraded",
      "type": "event"
    },
    {
      "inputs": [],
      "name": "DEFAULT_ADMIN_ROLE",
      "outputs": [
        {
          "internalType": "bytes32",
          "name": "",
          "type": "bytes32"
        }
      ],
      "stateMutability": "view",
      "type": "function"
    },
    {
      "inputs": [],
      "name": "DOMAIN_SEPARATOR",
      "outputs": [
        {
          "internalType": "bytes32",
          "name": "",
          "type": "bytes32"
        }
      ],
      "stateMutability": "view",
      "type": "function"
    },
    {
      "inputs": [
        {
          "internalType": "address",
          "name": "owner",
          "type": "address"
        },
        {
          "internalType": "address",
          "name": "spender",
          "type": "address"
        }
      ],
      "name": "allowance",
      "outputs": [
        {
          "internalType": "uint256",
          "name": "",
          "type": "uint256"
        }
      ],
      "stateMutability": "view",
      "type": "function"
    },
    {
      "inputs": [
        {
          "internalType": "address",
          "name": "spender",
          "type": "address"
        },
        {
          "internalType": "uint256",
          "name": "amount",
          "type": "uint256"
        }
      ],
      "name": "approve",
      "outputs": [
        {
          "internalType": "bool",
          "name": "",
          "type": "bool"
        }
      ],
      "stateMutability": "nonpayable",
      "type": "function"
    },
    {
      "inputs": [
        {
          "internalType": "address",
          "name": "account",
          "type": "address"
        }
      ],
      "name": "balanceOf",
      "outputs": [
        {
          "internalType": "uint256",
          "name": "",
          "type": "uint256"
        }
      ],
      "stateMutability": "view",
      "type": "function"
    },
    {
      "inputs": [],
      "name": "bridgeContract",
      "outputs": [
        {
          "internalType": "address",
          "name": "",
          "type": "address"
        }
      ],
      "stateMutability": "view",
      "type": "function"
    },
    {
      "inputs": [],
      "name": "bridgeExtraData",
      "outputs": [
        {
          "internalType": "bytes",
          "name": "",
          "type": "bytes"
        }
      ],
      "stateMutability": "pure",
      "type": "function"
    },
    {
      "inputs": [
        {
          "internalType": "uint256",
          "name": "amount",
          "type": "uint256"
        }
      ],
      "name": "burn",
      "outputs": [],
      "stateMutability": "nonpayable",
      "type": "function"
    },
    {
      "inputs": [
        {
          "internalType": "address",
          "name": "to",
          "type": "address"
        },
        {
          "internalType": "uint256",
          "name": "amount",
          "type": "uint256"
        }
      ],
      "name": "burn",
      "outputs": [],
      "stateMutability": "nonpayable",
      "type": "function"
    },
    {
      "inputs": [
        {
          "internalType": "address",
          "name": "account",
          "type": "address"
        },
        {
          "internalType": "uint256",
          "name": "amount",
          "type": "uint256"
        }
      ],
      "name": "burnFrom",
      "outputs": [],
      "stateMutability": "nonpayable",
      "type": "function"
    },
    {
      "inputs": [],
      "name": "decimals",
      "outputs": [
        {
          "internalType": "uint8",
          "name": "",
          "type": "uint8"
        }
      ],
      "stateMutability": "view",
      "type": "function"
    },
    {
      "inputs": [
        {
          "internalType": "address",
          "name": "spender",
          "type": "address"
        },
        {
          "internalType": "uint256",
          "name": "subtractedValue",
          "type": "uint256"
        }
      ],
      "name": "decreaseAllowance",
      "outputs": [
        {
          "internalType": "bool",
          "name": "",
          "type": "bool"
        }
      ],
      "stateMutability": "nonpayable",
      "type": "function"
    },
    {
      "inputs": [
        {
          "internalType": "bytes32",
          "name": "role",
          "type": "bytes32"
        }
      ],
      "name": "getRoleAdmin",
      "outputs": [
        {
          "internalType": "bytes32",
          "name": "",
          "type": "bytes32"
        }
      ],
      "stateMutability": "view",
      "type": "function"
    },
    {
      "inputs": [
        {
          "internalType": "bytes32",
          "name": "role",
          "type": "bytes32"
        },
        {
          "internalType": "uint256",
          "name": "index",
          "type": "uint256"
        }
      ],
      "name": "getRoleMember",
      "outputs": [
        {
          "internalType": "address",
          "name": "",
          "type": "address"
        }
      ],
      "stateMutability": "view",
      "type": "function"
    },
    {
      "inputs": [
        {
          "internalType": "bytes32",
          "name": "role",
          "type": "bytes32"
        }
      ],
      "name": "getRoleMemberCount",
      "outputs": [
        {
          "internalType": "uint256",
          "name": "",
          "type": "uint256"
        }
      ],
      "stateMutability": "view",
      "type": "function"
    },
    {
      "inputs": [
        {
          "internalType": "bytes32",
          "name": "role",
          "type": "bytes32"
        },
        {
          "internalType": "address",
          "name": "account",
          "type": "address"
        }
      ],
      "name": "grantRole",
      "outputs": [],
      "stateMutability": "nonpayable",
      "type": "function"
    },
    {
      "inputs": [
        {
          "internalType": "bytes32",
          "name": "role",
          "type": "bytes32"
        },
        {
          "internalType": "address",
          "name": "account",
          "type": "address"
        }
      ],
      "name": "hasRole",
      "outputs": [
        {
          "internalType": "bool",
          "name": "",
          "type": "bool"
        }
      ],
      "stateMutability": "view",
      "type": "function"
    },
    {
      "inputs": [
        {
          "internalType": "address",
          "name": "spender",
          "type": "address"
        },
        {
          "internalType": "uint256",
          "name": "addedValue",
          "type": "uint256"
        }
      ],
      "name": "increaseAllowance",
      "outputs": [
        {
          "internalType": "bool",
          "name": "",
          "type": "bool"
        }
      ],
      "stateMutability": "nonpayable",
      "type": "function"
    },
    {
      "inputs": [],
      "name": "initialize",
      "outputs": [],
      "stateMutability": "nonpayable",
      "type": "function"
    },
    {
      "inputs": [
        {
          "internalType": "address",
          "name": "account",
          "type": "address"
        },
        {
          "internalType": "uint256",
          "name": "amount",
          "type": "uint256"
        }
      ],
      "name": "mint",
      "outputs": [],
      "stateMutability": "nonpayable",
      "type": "function"
    },
    {
      "inputs": [
        {
          "internalType": "address",
          "name": "account",
          "type": "address"
        },
        {
          "internalType": "uint256",
          "name": "amount",
          "type": "uint256"
        },
        {
          "internalType": "bytes",
          "name": "",
          "type": "bytes"
        }
      ],
      "name": "mint",
      "outputs": [],
      "stateMutability": "nonpayable",
      "type": "function"
    },
    {
      "inputs": [],
      "name": "name",
      "outputs": [
        {
          "internalType": "string",
          "name": "",
          "type": "string"
        }
      ],
      "stateMutability": "view",
      "type": "function"
    },
    {
      "inputs": [
        {
          "internalType": "address",
          "name": "owner",
          "type": "address"
        }
      ],
      "name": "nonces",
      "outputs": [
        {
          "internalType": "uint256",
          "name": "",
          "type": "uint256"
        }
      ],
      "stateMutability": "view",
      "type": "function"
    },
    {
      "inputs": [],
      "name": "pause",
      "outputs": [],
      "stateMutability": "nonpayable",
      "type": "function"
    },
    {
      "inputs": [],
      "name": "paused",
      "outputs": [
        {
          "internalType": "bool",
          "name": "",
          "type": "bool"
        }
      ],
      "stateMutability": "view",
      "type": "function"
    },
    {
      "inputs": [
        {
          "internalType": "address",
          "name": "owner",
          "type": "address"
        },
        {
          "internalType": "address",
          "name": "spender",
          "type": "address"
        },
        {
          "internalType": "uint256",
          "name": "value",
          "type": "uint256"
        },
        {
          "internalType": "uint256",
          "name": "deadline",
          "type": "uint256"
        },
        {
          "internalType": "uint8",
          "name": "v",
          "type": "uint8"
        },
        {
          "internalType": "bytes32",
          "name": "r",
          "type": "bytes32"
        },
        {
          "internalType": "bytes32",
          "name": "s",
          "type": "bytes32"
        }
      ],
      "name": "permit",
      "outputs": [],
      "stateMutability": "nonpayable",
      "type": "function"
    },
    {
      "inputs": [],
      "name": "proxiableUUID",
      "outputs": [
        {
          "internalType": "bytes32",
          "name": "",
          "type": "bytes32"
        }
      ],
      "stateMutability": "view",
      "type": "function"
    },
    {
      "inputs": [
        {
          "internalType": "bytes32",
          "name": "role",
          "type": "bytes32"
        },
        {
          "internalType": "address",
          "name": "account",
          "type": "address"
        }
      ],
      "name": "renounceRole",
      "outputs": [],
      "stateMutability": "nonpayable",
      "type": "function"
    },
    {
      "inputs": [
        {
          "internalType": "bytes32",
          "name": "role",
          "type": "bytes32"
        },
        {
          "internalType": "address",
          "name": "account",
          "type": "address"
        }
      ],
      "name": "revokeRole",
      "outputs": [],
      "stateMutability": "nonpayable",
      "type": "function"
    },
    {
      "inputs": [
        {
          "internalType": "address",
          "name": "_address",
          "type": "address"
        }
      ],
      "name": "setBridgeContract",
      "outputs": [],
      "stateMutability": "nonpayable",
      "type": "function"
    },
    {
      "inputs": [
        {
          "internalType": "bytes4",
          "name": "interfaceId",
          "type": "bytes4"
        }
      ],
      "name": "supportsInterface",
      "outputs": [
        {
          "internalType": "bool",
          "name": "",
          "type": "bool"
        }
      ],
      "stateMutability": "view",
      "type": "function"
    },
    {
      "inputs": [],
      "name": "symbol",
      "outputs": [
        {
          "internalType": "string",
          "name": "",
          "type": "string"
        }
      ],
      "stateMutability": "view",
      "type": "function"
    },
    {
      "inputs": [],
      "name": "totalSupply",
      "outputs": [
        {
          "internalType": "uint256",
          "name": "",
          "type": "uint256"
        }
      ],
      "stateMutability": "view",
      "type": "function"
    },
    {
      "inputs": [
        {
          "internalType": "address",
          "name": "to",
          "type": "address"
        },
        {
          "internalType": "uint256",
          "name": "amount",
          "type": "uint256"
        }
      ],
      "name": "transfer",
      "outputs": [
        {
          "internalType": "bool",
          "name": "",
          "type": "bool"
        }
      ],
      "stateMutability": "nonpayable",
      "type": "function"
    },
    {
      "inputs": [
        {
          "internalType": "address",
          "name": "from",
          "type": "address"
        },
        {
          "internalType": "address",
          "name": "to",
          "type": "address"
        },
        {
          "internalType": "uint256",
          "name": "amount",
          "type": "uint256"
        }
      ],
      "name": "transferFrom",
      "outputs": [
        {
          "internalType": "bool",
          "name": "",
          "type": "bool"
        }
      ],
      "stateMutability": "nonpayable",
      "type": "function"
    },
    {
      "inputs": [],
      "name": "unpause",
      "outputs": [],
      "stateMutability": "nonpayable",
      "type": "function"
    },
    {
      "inputs": [
        {
          "internalType": "address",
          "name": "newImplementation",
          "type": "address"
        }
      ],
      "name": "upgradeTo",
      "outputs": [],
      "stateMutability": "nonpayable",
      "type": "function"
    },
    {
      "inputs": [
        {
          "internalType": "address",
          "name": "newImplementation",
          "type": "address"
        },
        {
          "internalType": "bytes",
          "name": "data",
          "type": "bytes"
        }
      ],
      "name": "upgradeToAndCall",
      "outputs": [],
      "stateMutability": "payable",
      "type": "function"
    }
  ],
  "bytecode": "0x60a0604052306080523480156200001557600080fd5b506200002062000026565b620000e8565b600054610100900460ff1615620000935760405162461bcd60e51b815260206004820152602760248201527f496e697469616c697a61626c653a20636f6e747261637420697320696e697469604482015266616c697a696e6760c81b606482015260840160405180910390fd5b60005460ff9081161015620000e6576000805460ff191660ff9081179091556040519081527f7f26b83ff96e1f2b6a682f133852f6798a09c465da95921460cefb38474024989060200160405180910390a15b565b608051612d1f62000120600039600081816108dd0152818161091d01528181610a3901528181610a790152610b080152612d1f6000f3fe6080604052600436106102255760003560e01c806370a082311161012357806395d89b41116100ab578063ca15c8731161006f578063ca15c8731461061b578063cd5965831461063b578063d505accf1461065c578063d547741f1461067c578063dd62ed3e1461069c57600080fd5b806395d89b41146105b15780639dc29fac146104ae578063a217fddf146105c6578063a457c2d7146105db578063a9059cbb146105fb57600080fd5b80638129fc1c116100f25780638129fc1c1461050f5780638456cb59146105245780639010d07c1461053957806391d148541461057157806394d008ef1461059157600080fd5b806370a082311461047857806379cc6790146104ae5780637b3a1286146104ce5780637ecebe00146104ef57600080fd5b80633644e515116101b157806340c10f191161017557806340c10f19146103f857806342966c68146104185780634f1ef2861461043857806352d1902d1461044b5780635c975abb1461046057600080fd5b80633644e5151461036e57806336568abe146103835780633659cfe6146103a357806339509351146103c35780633f4ba83a146103e357600080fd5b806318160ddd116101f857806318160ddd146102c357806323b872dd146102e2578063248a9ca3146103025780632f2ff15d14610332578063313ce5671461035257600080fd5b806301ffc9a71461022a57806306fdde031461025f578063095ea7b3146102815780630b26cf66146102a1575b600080fd5b34801561023657600080fd5b5061024a610245366004612591565b6106bc565b60405190151581526020015b60405180910390f35b34801561026b57600080fd5b506102746106e7565b604051610256919061260b565b34801561028d57600080fd5b5061024a61029c36600461263a565b610779565b3480156102ad57600080fd5b506102c16102bc366004612664565b610791565b005b3480156102cf57600080fd5b506035545b604051908152602001610256565b3480156102ee57600080fd5b5061024a6102fd36600461267f565b6107f1565b34801561030e57600080fd5b506102d461031d3660046126bb565b600090815260c9602052604090206001015490565b34801561033e57600080fd5b506102c161034d3660046126d4565b610817565b34801561035e57600080fd5b5060405160128152602001610256565b34801561037a57600080fd5b506102d4610841565b34801561038f57600080fd5b506102c161039e3660046126d4565b610850565b3480156103af57600080fd5b506102c16103be366004612664565b6108d3565b3480156103cf57600080fd5b5061024a6103de36600461263a565b6109af565b3480156103ef57600080fd5b506102c16109d1565b34801561040457600080fd5b506102c161041336600461263a565b6109f2565b34801561042457600080fd5b506102c16104333660046126bb565b610a25565b6102c16104463660046127a3565b610a2f565b34801561045757600080fd5b506102d4610afb565b34801561046c57600080fd5b5060655460ff1661024a565b34801561048457600080fd5b506102d4610493366004612664565b6001600160a01b031660009081526033602052604090205490565b3480156104ba57600080fd5b506102c16104c936600461263a565b610bae565b3480156104da57600080fd5b50604080516020810190915260008152610274565b3480156104fb57600080fd5b506102d461050a366004612664565b610bc3565b34801561051b57600080fd5b506102c1610be2565b34801561053057600080fd5b506102c1610d6c565b34801561054557600080fd5b506105596105543660046127f1565b610d8b565b6040516001600160a01b039091168152602001610256565b34801561057d57600080fd5b5061024a61058c3660046126d4565b610da3565b34801561059d57600080fd5b506102c16105ac366004612813565b610dce565b3480156105bd57600080fd5b50610274610e01565b3480156105d257600080fd5b506102d4600081565b3480156105e757600080fd5b5061024a6105f636600461263a565b610e10565b34801561060757600080fd5b5061024a61061636600461263a565b610e96565b34801561062757600080fd5b506102d46106363660046126bb565b610ea4565b34801561064757600080fd5b5061022654610559906001600160a01b031681565b34801561066857600080fd5b506102c161067736600461286a565b610ebb565b34801561068857600080fd5b506102c16106973660046126d4565b61101f565b3480156106a857600080fd5b506102d46106b73660046128dd565b611044565b60006001600160e01b031982166303112fcb60e61b14806106e157506106e18261106f565b92915050565b6060603680546106f690612907565b80601f016020809104026020016040519081016040528092919081815260200182805461072290612907565b801561076f5780601f106107445761010080835404028352916020019161076f565b820191906000526020600020905b81548152906001019060200180831161075257829003601f168201915b5050505050905090565b600033610787818585611094565b5060019392505050565b6107a8600080516020612cca8339815191526111b8565b61022680546001600160a01b0319166001600160a01b0383161790556107ee7f52ba824bfabc2bcfcdf7f0edbb486ebb05e1836c90e78047efeb949990f72e5f826111c2565b50565b6000336107ff8582856111e4565b61080a85858561125e565b60019150505b9392505050565b600082815260c96020526040902060010154610832816111b8565b61083c83836111c2565b505050565b600061084b611414565b905090565b6001600160a01b03811633146108c55760405162461bcd60e51b815260206004820152602f60248201527f416363657373436f6e74726f6c3a2063616e206f6e6c792072656e6f756e636560448201526e103937b632b9903337b91039b2b63360891b60648201526084015b60405180910390fd5b6108cf8282611491565b5050565b6001600160a01b037f000000000000000000000000000000000000000000000000000000000000000016300361091b5760405162461bcd60e51b81526004016108bc9061293b565b7f00000000000000000000000000000000000000000000000000000000000000006001600160a01b0316610964600080516020612c83833981519152546001600160a01b031690565b6001600160a01b03161461098a5760405162461bcd60e51b81526004016108bc90612987565b610993816114b3565b604080516000808252602082019092526107ee918391906114bd565b6000336107878185856109c28383611044565b6109cc91906129e9565b611094565b6109e8600080516020612cca8339815191526111b8565b6109f0611628565b565b610a1b7f9f2df0fed2c77648de5860a4cc508cd0818c85b8b8a1ab4ceeef8d981c8956a66111b8565b6108cf828261167a565b6107ee3382611747565b6001600160a01b037f0000000000000000000000000000000000000000000000000000000000000000163003610a775760405162461bcd60e51b81526004016108bc9061293b565b7f00000000000000000000000000000000000000000000000000000000000000006001600160a01b0316610ac0600080516020612c83833981519152546001600160a01b031690565b6001600160a01b031614610ae65760405162461bcd60e51b81526004016108bc90612987565b610aef826114b3565b6108cf828260016114bd565b6000306001600160a01b037f00000000000000000000000000000000000000000000000000000000000000001614610b9b5760405162461bcd60e51b815260206004820152603860248201527f555550535570677261646561626c653a206d757374206e6f742062652063616c60448201527f6c6564207468726f7567682064656c656761746563616c6c000000000000000060648201526084016108bc565b50600080516020612c8383398151915290565b610bb98233836111e4565b6108cf8282611747565b6001600160a01b038116600090815261018f60205260408120546106e1565b600054610100900460ff1615808015610c025750600054600160ff909116105b80610c1c5750303b158015610c1c575060005460ff166001145b610c7f5760405162461bcd60e51b815260206004820152602e60248201527f496e697469616c697a61626c653a20636f6e747261637420697320616c72656160448201526d191e481a5b9a5d1a585b1a5e995960921b60648201526084016108bc565b6000805460ff191660011790558015610ca2576000805461ff0019166101001790555b610ce6604051806040016040528060058152602001644d6167696360d81b815250604051806040016040528060058152602001644d4147494360d81b815250611887565b610cee6118b8565b610d14604051806040016040528060058152602001644d6167696360d81b8152506118e7565b610d1c611931565b610d24611a2b565b80156107ee576000805461ff0019169055604051600181527f7f26b83ff96e1f2b6a682f133852f6798a09c465da95921460cefb38474024989060200160405180910390a150565b610d83600080516020612cca8339815191526111b8565b6109f0611a52565b600082815260fb602052604081206108109083611a8f565b600091825260c9602090815260408084206001600160a01b0393909316845291905290205460ff1690565b610df77f52ba824bfabc2bcfcdf7f0edbb486ebb05e1836c90e78047efeb949990f72e5f6111b8565b61083c838361167a565b6060603780546106f690612907565b60003381610e1e8286611044565b905083811015610e7e5760405162461bcd60e51b815260206004820152602560248201527f45524332303a2064656372656173656420616c6c6f77616e63652062656c6f77604482015264207a65726f60d81b60648201526084016108bc565b610e8b8286868403611094565b506001949350505050565b60003361078781858561125e565b600081815260fb602052604081206106e190611a9b565b83421115610f0b5760405162461bcd60e51b815260206004820152601d60248201527f45524332305065726d69743a206578706972656420646561646c696e6500000060448201526064016108bc565b60007f6e71edae12b1b97f4d1f60370fef10105fa2faae0126114a169c64845d6126c9888888610f3a8c611aa5565b6040805160208101969096526001600160a01b0394851690860152929091166060840152608083015260a082015260c0810186905260e0016040516020818303038152906040528051906020012090506000610f9582611ace565b90506000610fa582878787611b1c565b9050896001600160a01b0316816001600160a01b0316146110085760405162461bcd60e51b815260206004820152601e60248201527f45524332305065726d69743a20696e76616c6964207369676e6174757265000060448201526064016108bc565b6110138a8a8a611094565b50505050505050505050565b600082815260c9602052604090206001015461103a816111b8565b61083c8383611491565b6001600160a01b03918216600090815260346020908152604080832093909416825291909152205490565b60006001600160e01b03198216635a05180f60e01b14806106e157506106e182611b44565b6001600160a01b0383166110f65760405162461bcd60e51b8152602060048201526024808201527f45524332303a20617070726f76652066726f6d20746865207a65726f206164646044820152637265737360e01b60648201526084016108bc565b6001600160a01b0382166111575760405162461bcd60e51b815260206004820152602260248201527f45524332303a20617070726f766520746f20746865207a65726f206164647265604482015261737360f01b60648201526084016108bc565b6001600160a01b0383811660008181526034602090815260408083209487168084529482529182902085905590518481527f8c5be1e5ebec7d5bd14f71427d1e84f3dd0314c0f7b2291e5b200ac8c7c3b925910160405180910390a3505050565b6107ee8133611b79565b6111cc8282611bd2565b600082815260fb6020526040902061083c9082611c58565b60006111f08484611044565b90506000198114611258578181101561124b5760405162461bcd60e51b815260206004820152601d60248201527f45524332303a20696e73756666696369656e7420616c6c6f77616e636500000060448201526064016108bc565b6112588484848403611094565b50505050565b6001600160a01b0383166112c25760405162461bcd60e51b815260206004820152602560248201527f45524332303a207472616e736665722066726f6d20746865207a65726f206164604482015264647265737360d81b60648201526084016108bc565b6001600160a01b0382166113245760405162461bcd60e51b815260206004820152602360248201527f45524332303a207472616e7366657220746f20746865207a65726f206164647260448201526265737360e81b60648201526084016108bc565b61132f838383611c6d565b6001600160a01b038316600090815260336020526040902054818110156113a75760405162461bcd60e51b815260206004820152602660248201527f45524332303a207472616e7366657220616d6f756e7420657863656564732062604482015265616c616e636560d01b60648201526084016108bc565b6001600160a01b0380851660008181526033602052604080822086860390559286168082529083902080548601905591517fddf252ad1be2c89b69c2b068fc378daa952ba7f163c4a11628f55a4df523b3ef906114079086815260200190565b60405180910390a3611258565b600061084b7f8b73c3c69bb8fe3d512ecc4cf759cc79239f7b179b0ffacaa9a75d522b39400f61144461015b5490565b61015c546040805160208101859052908101839052606081018290524660808201523060a082015260009060c0016040516020818303038152906040528051906020012090509392505050565b61149b8282611c75565b600082815260fb6020526040902061083c9082611cdc565b6107ee60006111b8565b7f4910fdfa16fed3260ed0e7147f7cc6da11a60208b5b9406d12a635614ffd91435460ff16156114f05761083c83611cf1565b826001600160a01b03166352d1902d6040518163ffffffff1660e01b8152600401602060405180830381865afa92505050801561154a575060408051601f3d908101601f19168201909252611547918101906129fc565b60015b6115ad5760405162461bcd60e51b815260206004820152602e60248201527f45524331393637557067726164653a206e657720696d706c656d656e7461746960448201526d6f6e206973206e6f74205555505360901b60648201526084016108bc565b600080516020612c83833981519152811461161c5760405162461bcd60e51b815260206004820152602960248201527f45524331393637557067726164653a20756e737570706f727465642070726f786044820152681a58589b195555525160ba1b60648201526084016108bc565b5061083c838383611d8d565b611630611db2565b6065805460ff191690557f5db9ee0a495bf2e6ff9c91a7834c1ba4fdd244a5e8aa4e537bd38aeae4b073aa335b6040516001600160a01b03909116815260200160405180910390a1565b6001600160a01b0382166116d05760405162461bcd60e51b815260206004820152601f60248201527f45524332303a206d696e7420746f20746865207a65726f20616464726573730060448201526064016108bc565b6116dc60008383611c6d565b80603560008282546116ee91906129e9565b90915550506001600160a01b0382166000818152603360209081526040808320805486019055518481527fddf252ad1be2c89b69c2b068fc378daa952ba7f163c4a11628f55a4df523b3ef910160405180910390a35050565b6001600160a01b0382166117a75760405162461bcd60e51b815260206004820152602160248201527f45524332303a206275726e2066726f6d20746865207a65726f206164647265736044820152607360f81b60648201526084016108bc565b6117b382600083611c6d565b6001600160a01b038216600090815260336020526040902054818110156118275760405162461bcd60e51b815260206004820152602260248201527f45524332303a206275726e20616d6f756e7420657863656564732062616c616e604482015261636560f01b60648201526084016108bc565b6001600160a01b03831660008181526033602090815260408083208686039055603580548790039055518581529192917fddf252ad1be2c89b69c2b068fc378daa952ba7f163c4a11628f55a4df523b3ef910160405180910390a3505050565b600054610100900460ff166118ae5760405162461bcd60e51b81526004016108bc90612a15565b6108cf8282611dfb565b600054610100900460ff166118df5760405162461bcd60e51b81526004016108bc90612a15565b6109f0611e3b565b600054610100900460ff1661190e5760405162461bcd60e51b81526004016108bc90612a15565b6107ee81604051806040016040528060018152602001603160f81b815250611e6e565b600054610100900460ff166119585760405162461bcd60e51b81526004016108bc90612a15565b611960611a2b565b61196b6000336111c2565b611983600080516020612cca833981519152336111c2565b6119ad7f364d3d7565c7a8300c96fd53e065d19b65848d7b23b3191adcd55621c744223c336111c2565b6119d77f9f2df0fed2c77648de5860a4cc508cd0818c85b8b8a1ab4ceeef8d981c8956a6336111c2565b611a017ff18b77e1ef402111bacb54bd5e03494cbdba92fbd1bd3bbcc1ce77e69b42ea6c336111c2565b6109f07f52ba824bfabc2bcfcdf7f0edbb486ebb05e1836c90e78047efeb949990f72e5f336111c2565b600054610100900460ff166109f05760405162461bcd60e51b81526004016108bc90612a15565b611a5a611eb1565b6065805460ff191660011790557f62e78cea01bee320cd4e420270b5ea74000d11b0c9f74754ebdbfc544b05a25861165d3390565b60006108108383611ef7565b60006106e1825490565b6001600160a01b038116600090815261018f602052604090208054600181018255905b50919050565b60006106e1611adb611414565b8360405161190160f01b6020820152602281018390526042810182905260009060620160405160208183030381529060405280519060200120905092915050565b6000806000611b2d87878787611f21565b91509150611b3a81611fe5565b5095945050505050565b60006001600160e01b03198216637965db0b60e01b14806106e157506301ffc9a760e01b6001600160e01b03198316146106e1565b611b838282610da3565b6108cf57611b908161212f565b611b9b836020612141565b604051602001611bac929190612a60565b60408051601f198184030181529082905262461bcd60e51b82526108bc9160040161260b565b611bdc8282610da3565b6108cf57600082815260c9602090815260408083206001600160a01b03851684529091529020805460ff19166001179055611c143390565b6001600160a01b0316816001600160a01b0316837f2f8788117e7eff1d82e926ec794901d17c78024a50270940304540a733656f0d60405160405180910390a45050565b6000610810836001600160a01b0384166122dd565b61083c611eb1565b611c7f8282610da3565b156108cf57600082815260c9602090815260408083206001600160a01b0385168085529252808320805460ff1916905551339285917ff6391f5c32d9c69d2a47ea670b442974b53935d1edc7fd64eb21e047a839171b9190a45050565b6000610810836001600160a01b03841661232c565b6001600160a01b0381163b611d5e5760405162461bcd60e51b815260206004820152602d60248201527f455243313936373a206e657720696d706c656d656e746174696f6e206973206e60448201526c1bdd08184818dbdb9d1c9858dd609a1b60648201526084016108bc565b600080516020612c8383398151915280546001600160a01b0319166001600160a01b0392909216919091179055565b611d968361241f565b600082511180611da35750805b1561083c57611258838361245f565b60655460ff166109f05760405162461bcd60e51b815260206004820152601460248201527314185d5cd8589b194e881b9bdd081c185d5cd95960621b60448201526064016108bc565b600054610100900460ff16611e225760405162461bcd60e51b81526004016108bc90612a15565b6036611e2e8382612b23565b50603761083c8282612b23565b600054610100900460ff16611e625760405162461bcd60e51b81526004016108bc90612a15565b6065805460ff19169055565b600054610100900460ff16611e955760405162461bcd60e51b81526004016108bc90612a15565b81516020928301208151919092012061015b9190915561015c55565b60655460ff16156109f05760405162461bcd60e51b815260206004820152601060248201526f14185d5cd8589b194e881c185d5cd95960821b60448201526064016108bc565b6000826000018281548110611f0e57611f0e612be3565b9060005260206000200154905092915050565b6000807f7fffffffffffffffffffffffffffffff5d576e7357a4501ddfe92f46681b20a0831115611f585750600090506003611fdc565b6040805160008082526020820180845289905260ff881692820192909252606081018690526080810185905260019060a0016020604051602081039080840390855afa158015611fac573d6000803e3d6000fd5b5050604051601f1901519150506001600160a01b038116611fd557600060019250925050611fdc565b9150600090505b94509492505050565b6000816004811115611ff957611ff9612bf9565b036120015750565b600181600481111561201557612015612bf9565b036120625760405162461bcd60e51b815260206004820152601860248201527f45434453413a20696e76616c6964207369676e6174757265000000000000000060448201526064016108bc565b600281600481111561207657612076612bf9565b036120c35760405162461bcd60e51b815260206004820152601f60248201527f45434453413a20696e76616c6964207369676e6174757265206c656e6774680060448201526064016108bc565b60038160048111156120d7576120d7612bf9565b036107ee5760405162461bcd60e51b815260206004820152602260248201527f45434453413a20696e76616c6964207369676e6174757265202773272076616c604482015261756560f01b60648201526084016108bc565b60606106e16001600160a01b03831660145b60606000612150836002612c0f565b61215b9060026129e9565b67ffffffffffffffff81111561217357612173612700565b6040519080825280601f01601f19166020018201604052801561219d576020820181803683370190505b509050600360fc1b816000815181106121b8576121b8612be3565b60200101906001600160f81b031916908160001a905350600f60fb1b816001815181106121e7576121e7612be3565b60200101906001600160f81b031916908160001a905350600061220b846002612c0f565b6122169060016129e9565b90505b600181111561228e576f181899199a1a9b1b9c1cb0b131b232b360811b85600f166010811061224a5761224a612be3565b1a60f81b82828151811061226057612260612be3565b60200101906001600160f81b031916908160001a90535060049490941c9361228781612c26565b9050612219565b5083156108105760405162461bcd60e51b815260206004820181905260248201527f537472696e67733a20686578206c656e67746820696e73756666696369656e7460448201526064016108bc565b6000818152600183016020526040812054612324575081546001818101845560008481526020808220909301849055845484825282860190935260409020919091556106e1565b5060006106e1565b60008181526001830160205260408120548015612415576000612350600183612c3d565b855490915060009061236490600190612c3d565b90508181146123c957600086600001828154811061238457612384612be3565b90600052602060002001549050808760000184815481106123a7576123a7612be3565b6000918252602080832090910192909255918252600188019052604090208390555b85548690806123da576123da612c50565b6001900381819060005260206000200160009055905585600101600086815260200190815260200160002060009055600193505050506106e1565b60009150506106e1565b61242881611cf1565b6040516001600160a01b038216907fbc7cd75a20ee27fd9adebab32041f755214dbc6bffa90cc0225b39da2e5c2d3b90600090a250565b60606001600160a01b0383163b6124c75760405162461bcd60e51b815260206004820152602660248201527f416464726573733a2064656c65676174652063616c6c20746f206e6f6e2d636f6044820152651b9d1c9858dd60d21b60648201526084016108bc565b600080846001600160a01b0316846040516124e29190612c66565b600060405180830381855af49150503d806000811461251d576040519150601f19603f3d011682016040523d82523d6000602084013e612522565b606091505b509150915061254a8282604051806060016040528060278152602001612ca360279139612553565b95945050505050565b60608315612562575081610810565b61081083838151156125775781518083602001fd5b8060405162461bcd60e51b81526004016108bc919061260b565b6000602082840312156125a357600080fd5b81356001600160e01b03198116811461081057600080fd5b60005b838110156125d65781810151838201526020016125be565b50506000910152565b600081518084526125f78160208601602086016125bb565b601f01601f19169290920160200192915050565b60208152600061081060208301846125df565b80356001600160a01b038116811461263557600080fd5b919050565b6000806040838503121561264d57600080fd5b6126568361261e565b946020939093013593505050565b60006020828403121561267657600080fd5b6108108261261e565b60008060006060848603121561269457600080fd5b61269d8461261e565b92506126ab6020850161261e565b9150604084013590509250925092565b6000602082840312156126cd57600080fd5b5035919050565b600080604083850312156126e757600080fd5b823591506126f76020840161261e565b90509250929050565b634e487b7160e01b600052604160045260246000fd5b600082601f83011261272757600080fd5b813567ffffffffffffffff8082111561274257612742612700565b604051601f8301601f19908116603f0116810190828211818310171561276a5761276a612700565b8160405283815286602085880101111561278357600080fd5b836020870160208301376000602085830101528094505050505092915050565b600080604083850312156127b657600080fd5b6127bf8361261e565b9150602083013567ffffffffffffffff8111156127db57600080fd5b6127e785828601612716565b9150509250929050565b6000806040838503121561280457600080fd5b50508035926020909101359150565b60008060006060848603121561282857600080fd5b6128318461261e565b925060208401359150604084013567ffffffffffffffff81111561285457600080fd5b61286086828701612716565b9150509250925092565b600080600080600080600060e0888a03121561288557600080fd5b61288e8861261e565b965061289c6020890161261e565b95506040880135945060608801359350608088013560ff811681146128c057600080fd5b9699959850939692959460a0840135945060c09093013592915050565b600080604083850312156128f057600080fd5b6128f98361261e565b91506126f76020840161261e565b600181811c9082168061291b57607f821691505b602082108103611ac857634e487b7160e01b600052602260045260246000fd5b6020808252602c908201527f46756e6374696f6e206d7573742062652063616c6c6564207468726f7567682060408201526b19195b1959d85d1958d85b1b60a21b606082015260800190565b6020808252602c908201527f46756e6374696f6e206d7573742062652063616c6c6564207468726f7567682060408201526b6163746976652070726f787960a01b606082015260800190565b634e487b7160e01b600052601160045260246000fd5b808201808211156106e1576106e16129d3565b600060208284031215612a0e57600080fd5b5051919050565b6020808252602b908201527f496e697469616c697a61626c653a20636f6e7472616374206973206e6f74206960408201526a6e697469616c697a696e6760a81b606082015260800190565b7f416363657373436f6e74726f6c3a206163636f756e7420000000000000000000815260008351612a988160178501602088016125bb565b7001034b99036b4b9b9b4b733903937b6329607d1b6017918401918201528351612ac98160288401602088016125bb565b01602801949350505050565b601f82111561083c57600081815260208120601f850160051c81016020861015612afc5750805b601f850160051c820191505b81811015612b1b57828155600101612b08565b505050505050565b815167ffffffffffffffff811115612b3d57612b3d612700565b612b5181612b4b8454612907565b84612ad5565b602080601f831160018114612b865760008415612b6e5750858301515b600019600386901b1c1916600185901b178555612b1b565b600085815260208120601f198616915b82811015612bb557888601518255948401946001909101908401612b96565b5085821015612bd35787850151600019600388901b60f8161c191681555b5050505050600190811b01905550565b634e487b7160e01b600052603260045260246000fd5b634e487b7160e01b600052602160045260246000fd5b80820281158282048414176106e1576106e16129d3565b600081612c3557612c356129d3565b506000190190565b818103818111156106e1576106e16129d3565b634e487b7160e01b600052603160045260246000fd5b60008251612c788184602087016125bb565b919091019291505056fe360894a13ba1a3210667c828492db98dca3e2076cc3735a920a3ca505d382bbc416464726573733a206c6f772d6c6576656c2064656c65676174652063616c6c206661696c6564a49807205ce4d355092ef5a8a18f56e8913cf4a201fbe287825b095693c21775a264697066735822122093516134c855b2a1fb25557606ba357428549b0c437ae1d1fd09303e70899e8464736f6c63430008110033",
  "linkReferences": {},
  "deployedLinkReferences": {}
}