{
  "_format": "hh-sol-artifact-1",
  "contractName": "MagicL2",
  "sourceName": "contracts/upgradeable/ERC20/MAGIC/MagicL2.sol",
  "abi": [
    {
      "inputs": [],
      "stateMutability": "nonpayable",
      "type": "constructor"
    },
    {
      "anonymous": false,
      "inputs": [
        {
          "indexed": false,
          "internalType": "address",
          "name": "previousAdmin",
          "type": "address"
        },
        {
          "indexed": false,
          "internalType": "address",
          "name": "newAdmin",
          "type": "address"
        }
      ],
      "name": "AdminChanged",
      "type": "event"
    },
    {
      "anonymous": false,
      "inputs": [
        {
          "indexed": true,
          "internalType": "address",
          "name": "owner",
          "type": "address"
        },
        {
          "indexed": true,
          "internalType": "address",
          "name": "spender",
          "type": "address"
        },
        {
          "indexed": false,
          "internalType": "uint256",
          "name": "value",
          "type": "uint256"
        }
      ],
      "name": "Approval",
      "type": "event"
    },
    {
      "anonymous": false,
      "inputs": [
        {
          "indexed": true,
          "internalType": "address",
          "name": "beacon",
          "type": "address"
        }
      ],
      "name": "BeaconUpgraded",
      "type": "event"
    },
    {
      "anonymous": false,
      "inputs": [
        {
          "indexed": false,
          "internalType": "uint8",
          "name": "version",
          "type": "uint8"
        }
      ],
      "name": "Initialized",
      "type": "event"
    },
    {
      "anonymous": false,
      "inputs": [
        {
          "indexed": false,
          "internalType": "address",
          "name": "account",
          "type": "address"
        }
      ],
      "name": "Paused",
      "type": "event"
    },
    {
      "anonymous": false,
      "inputs": [
        {
          "indexed": true,
          "internalType": "bytes32",
          "name": "role",
          "type": "bytes32"
        },
        {
          "indexed": true,
          "internalType": "bytes32",
          "name": "previousAdminRole",
          "type": "bytes32"
        },
        {
          "indexed": true,
          "internalType": "bytes32",
          "name": "newAdminRole",
          "type": "bytes32"
        }
      ],
      "name": "RoleAdminChanged",
      "type": "event"
    },
    {
      "anonymous": false,
      "inputs": [
        {
          "indexed": true,
          "internalType": "bytes32",
          "name": "role",
          "type": "bytes32"
        },
        {
          "indexed": true,
          "internalType": "address",
          "name": "account",
          "type": "address"
        },
        {
          "indexed": true,
          "internalType": "address",
          "name": "sender",
          "type": "address"
        }
      ],
      "name": "RoleGranted",
      "type": "event"
    },
    {
      "anonymous": false,
      "inputs": [
        {
          "indexed": true,
          "internalType": "bytes32",
          "name": "role",
          "type": "bytes32"
        },
        {
          "indexed": true,
          "internalType": "address",
          "name": "account",
          "type": "address"
        },
        {
          "indexed": true,
          "internalType": "address",
          "name": "sender",
          "type": "address"
        }
      ],
      "name": "RoleRevoked",
      "type": "event"
    },
    {
      "anonymous": false,
      "inputs": [
        {
          "indexed": true,
          "internalType": "address",
          "name": "from",
          "type": "address"
        },
        {
          "indexed": true,
          "internalType": "address",
          "name": "to",
          "type": "address"
        },
        {
          "indexed": false,
          "internalType": "uint256",
          "name": "value",
          "type": "uint256"
        }
      ],
      "name": "Transfer",
      "type": "event"
    },
    {
      "anonymous": false,
      "inputs": [
        {
          "indexed": false,
          "internalType": "address",
          "name": "account",
          "type": "address"
        }
      ],
      "name": "Unpaused",
      "type": "event"
    },
    {
      "anonymous": false,
      "inputs": [
        {
          "indexed": true,
          "internalType": "address",
          "name": "implementation",
          "type": "address"
        }
      ],
      "name": "Upgraded",
      "type": "event"
    },
    {
      "inputs": [],
      "name": "DEFAULT_ADMIN_ROLE",
      "outputs": [
        {
          "internalType": "bytes32",
          "name": "",
          "type": "bytes32"
        }
      ],
      "stateMutability": "view",
      "type": "function"
    },
    {
      "inputs": [],
      "name": "DOMAIN_SEPARATOR",
      "outputs": [
        {
          "internalType": "bytes32",
          "name": "",
          "type": "bytes32"
        }
      ],
      "stateMutability": "view",
      "type": "function"
    },
    {
      "inputs": [
        {
          "internalType": "address",
          "name": "owner",
          "type": "address"
        },
        {
          "internalType": "address",
          "name": "spender",
          "type": "address"
        }
      ],
      "name": "allowance",
      "outputs": [
        {
          "internalType": "uint256",
          "name": "",
          "type": "uint256"
        }
      ],
      "stateMutability": "view",
      "type": "function"
    },
    {
      "inputs": [
        {
          "internalType": "address",
          "name": "spender",
          "type": "address"
        },
        {
          "internalType": "uint256",
          "name": "amount",
          "type": "uint256"
        }
      ],
      "name": "approve",
      "outputs": [
        {
          "internalType": "bool",
          "name": "",
          "type": "bool"
        }
      ],
      "stateMutability": "nonpayable",
      "type": "function"
    },
    {
      "inputs": [
        {
          "internalType": "address",
          "name": "account",
          "type": "address"
        }
      ],
      "name": "balanceOf",
      "outputs": [
        {
          "internalType": "uint256",
          "name": "",
          "type": "uint256"
        }
      ],
      "stateMutability": "view",
      "type": "function"
    },
    {
      "inputs": [],
      "name": "bridgeContract",
      "outputs": [
        {
          "internalType": "address",
          "name": "",
          "type": "address"
        }
      ],
      "stateMutability": "view",
      "type": "function"
    },
    {
      "inputs": [],
      "name": "bridgeExtraData",
      "outputs": [
        {
          "internalType": "bytes",
          "name": "",
          "type": "bytes"
        }
      ],
      "stateMutability": "pure",
      "type": "function"
    },
    {
      "inputs": [
        {
          "internalType": "uint256",
          "name": "amount",
          "type": "uint256"
        }
      ],
      "name": "burn",
      "outputs": [],
      "stateMutability": "nonpayable",
      "type": "function"
    },
    {
      "inputs": [
        {
          "internalType": "address",
          "name": "account",
          "type": "address"
        },
        {
          "internalType": "uint256",
          "name": "amount",
          "type": "uint256"
        }
      ],
      "name": "burnFrom",
      "outputs": [],
      "stateMutability": "nonpayable",
      "type": "function"
    },
    {
      "inputs": [],
      "name": "decimals",
      "outputs": [
        {
          "internalType": "uint8",
          "name": "",
          "type": "uint8"
        }
      ],
      "stateMutability": "view",
      "type": "function"
    },
    {
      "inputs": [
        {
          "internalType": "address",
          "name": "spender",
          "type": "address"
        },
        {
          "internalType": "uint256",
          "name": "subtractedValue",
          "type": "uint256"
        }
      ],
      "name": "decreaseAllowance",
      "outputs": [
        {
          "internalType": "bool",
          "name": "",
          "type": "bool"
        }
      ],
      "stateMutability": "nonpayable",
      "type": "function"
    },
    {
      "inputs": [
        {
          "internalType": "bytes32",
          "name": "role",
          "type": "bytes32"
        }
      ],
      "name": "getRoleAdmin",
      "outputs": [
        {
          "internalType": "bytes32",
          "name": "",
          "type": "bytes32"
        }
      ],
      "stateMutability": "view",
      "type": "function"
    },
    {
      "inputs": [
        {
          "internalType": "bytes32",
          "name": "role",
          "type": "bytes32"
        },
        {
          "internalType": "uint256",
          "name": "index",
          "type": "uint256"
        }
      ],
      "name": "getRoleMember",
      "outputs": [
        {
          "internalType": "address",
          "name": "",
          "type": "address"
        }
      ],
      "stateMutability": "view",
      "type": "function"
    },
    {
      "inputs": [
        {
          "internalType": "bytes32",
          "name": "role",
          "type": "bytes32"
        }
      ],
      "name": "getRoleMemberCount",
      "outputs": [
        {
          "internalType": "uint256",
          "name": "",
          "type": "uint256"
        }
      ],
      "stateMutability": "view",
      "type": "function"
    },
    {
      "inputs": [
        {
          "internalType": "bytes32",
          "name": "role",
          "type": "bytes32"
        },
        {
          "internalType": "address",
          "name": "account",
          "type": "address"
        }
      ],
      "name": "grantRole",
      "outputs": [],
      "stateMutability": "nonpayable",
      "type": "function"
    },
    {
      "inputs": [
        {
          "internalType": "bytes32",
          "name": "role",
          "type": "bytes32"
        },
        {
          "internalType": "address",
          "name": "account",
          "type": "address"
        }
      ],
      "name": "hasRole",
      "outputs": [
        {
          "internalType": "bool",
          "name": "",
          "type": "bool"
        }
      ],
      "stateMutability": "view",
      "type": "function"
    },
    {
      "inputs": [
        {
          "internalType": "address",
          "name": "spender",
          "type": "address"
        },
        {
          "internalType": "uint256",
          "name": "addedValue",
          "type": "uint256"
        }
      ],
      "name": "increaseAllowance",
      "outputs": [
        {
          "internalType": "bool",
          "name": "",
          "type": "bool"
        }
      ],
      "stateMutability": "nonpayable",
      "type": "function"
    },
    {
      "inputs": [],
      "name": "initialize",
      "outputs": [],
      "stateMutability": "nonpayable",
      "type": "function"
    },
    {
      "inputs": [
        {
          "internalType": "address",
          "name": "account",
          "type": "address"
        },
        {
          "internalType": "uint256",
          "name": "amount",
          "type": "uint256"
        }
      ],
      "name": "mint",
      "outputs": [],
      "stateMutability": "nonpayable",
      "type": "function"
    },
    {
      "inputs": [
        {
          "internalType": "address",
          "name": "account",
          "type": "address"
        },
        {
          "internalType": "uint256",
          "name": "amount",
          "type": "uint256"
        },
        {
          "internalType": "bytes",
          "name": "",
          "type": "bytes"
        }
      ],
      "name": "mint",
      "outputs": [],
      "stateMutability": "nonpayable",
      "type": "function"
    },
    {
      "inputs": [],
      "name": "name",
      "outputs": [
        {
          "internalType": "string",
          "name": "",
          "type": "string"
        }
      ],
      "stateMutability": "view",
      "type": "function"
    },
    {
      "inputs": [
        {
          "internalType": "address",
          "name": "owner",
          "type": "address"
        }
      ],
      "name": "nonces",
      "outputs": [
        {
          "internalType": "uint256",
          "name": "",
          "type": "uint256"
        }
      ],
      "stateMutability": "view",
      "type": "function"
    },
    {
      "inputs": [],
      "name": "pause",
      "outputs": [],
      "stateMutability": "nonpayable",
      "type": "function"
    },
    {
      "inputs": [],
      "name": "paused",
      "outputs": [
        {
          "internalType": "bool",
          "name": "",
          "type": "bool"
        }
      ],
      "stateMutability": "view",
      "type": "function"
    },
    {
      "inputs": [
        {
          "internalType": "address",
          "name": "owner",
          "type": "address"
        },
        {
          "internalType": "address",
          "name": "spender",
          "type": "address"
        },
        {
          "internalType": "uint256",
          "name": "value",
          "type": "uint256"
        },
        {
          "internalType": "uint256",
          "name": "deadline",
          "type": "uint256"
        },
        {
          "internalType": "uint8",
          "name": "v",
          "type": "uint8"
        },
        {
          "internalType": "bytes32",
          "name": "r",
          "type": "bytes32"
        },
        {
          "internalType": "bytes32",
          "name": "s",
          "type": "bytes32"
        }
      ],
      "name": "permit",
      "outputs": [],
      "stateMutability": "nonpayable",
      "type": "function"
    },
    {
      "inputs": [],
      "name": "proxiableUUID",
      "outputs": [
        {
          "internalType": "bytes32",
          "name": "",
          "type": "bytes32"
        }
      ],
      "stateMutability": "view",
      "type": "function"
    },
    {
      "inputs": [
        {
          "internalType": "bytes32",
          "name": "role",
          "type": "bytes32"
        },
        {
          "internalType": "address",
          "name": "account",
          "type": "address"
        }
      ],
      "name": "renounceRole",
      "outputs": [],
      "stateMutability": "nonpayable",
      "type": "function"
    },
    {
      "inputs": [
        {
          "internalType": "bytes32",
          "name": "role",
          "type": "bytes32"
        },
        {
          "internalType": "address",
          "name": "account",
          "type": "address"
        }
      ],
      "name": "revokeRole",
      "outputs": [],
      "stateMutability": "nonpayable",
      "type": "function"
    },
    {
      "inputs": [
        {
          "internalType": "bytes4",
          "name": "interfaceId",
          "type": "bytes4"
        }
      ],
      "name": "supportsInterface",
      "outputs": [
        {
          "internalType": "bool",
          "name": "",
          "type": "bool"
        }
      ],
      "stateMutability": "view",
      "type": "function"
    },
    {
      "inputs": [],
      "name": "symbol",
      "outputs": [
        {
          "internalType": "string",
          "name": "",
          "type": "string"
        }
      ],
      "stateMutability": "view",
      "type": "function"
    },
    {
      "inputs": [],
      "name": "totalSupply",
      "outputs": [
        {
          "internalType": "uint256",
          "name": "",
          "type": "uint256"
        }
      ],
      "stateMutability": "view",
      "type": "function"
    },
    {
      "inputs": [
        {
          "internalType": "address",
          "name": "to",
          "type": "address"
        },
        {
          "internalType": "uint256",
          "name": "amount",
          "type": "uint256"
        }
      ],
      "name": "transfer",
      "outputs": [
        {
          "internalType": "bool",
          "name": "",
          "type": "bool"
        }
      ],
      "stateMutability": "nonpayable",
      "type": "function"
    },
    {
      "inputs": [
        {
          "internalType": "address",
          "name": "from",
          "type": "address"
        },
        {
          "internalType": "address",
          "name": "to",
          "type": "address"
        },
        {
          "internalType": "uint256",
          "name": "amount",
          "type": "uint256"
        }
      ],
      "name": "transferFrom",
      "outputs": [
        {
          "internalType": "bool",
          "name": "",
          "type": "bool"
        }
      ],
      "stateMutability": "nonpayable",
      "type": "function"
    },
    {
      "inputs": [],
      "name": "unpause",
      "outputs": [],
      "stateMutability": "nonpayable",
      "type": "function"
    },
    {
      "inputs": [
        {
          "internalType": "address",
          "name": "newImplementation",
          "type": "address"
        }
      ],
      "name": "upgradeTo",
      "outputs": [],
      "stateMutability": "nonpayable",
      "type": "function"
    },
    {
      "inputs": [
        {
          "internalType": "address",
          "name": "newImplementation",
          "type": "address"
        },
        {
          "internalType": "bytes",
          "name": "data",
          "type": "bytes"
        }
      ],
      "name": "upgradeToAndCall",
      "outputs": [],
      "stateMutability": "payable",
      "type": "function"
    }
  ],
  "bytecode": "0x60a0604052306080523480156200001557600080fd5b506200002062000026565b620000e8565b600054610100900460ff1615620000935760405162461bcd60e51b815260206004820152602760248201527f496e697469616c697a61626c653a20636f6e747261637420697320696e697469604482015266616c697a696e6760c81b606482015260840160405180910390fd5b60005460ff9081161015620000e6576000805460ff191660ff9081179091556040519081527f7f26b83ff96e1f2b6a682f133852f6798a09c465da95921460cefb38474024989060200160405180910390a15b565b608051612c85620001206000396000818161084701528181610887015281816109b8015281816109f80152610a870152612c856000f3fe60806040526004361061020f5760003560e01c806370a082311161011857806395d89b41116100a0578063ca15c8731161006f578063ca15c873146105e5578063cd59658314610605578063d505accf14610626578063d547741f14610646578063dd62ed3e1461066657600080fd5b806395d89b411461057b578063a217fddf14610590578063a457c2d7146105a5578063a9059cbb146105c557600080fd5b80638129fc1c116100e75780638129fc1c146104d95780638456cb59146104ee5780639010d07c1461050357806391d148541461053b57806394d008ef1461055b57600080fd5b806370a082311461044257806379cc6790146104785780637b3a1286146104985780637ecebe00146104b957600080fd5b806336568abe1161019b57806340c10f191161016a57806340c10f19146103c257806342966c68146103e25780634f1ef2861461040257806352d1902d146104155780635c975abb1461042a57600080fd5b806336568abe1461034d5780633659cfe61461036d578063395093511461038d5780633f4ba83a146103ad57600080fd5b806323b872dd116101e257806323b872dd146102aa578063248a9ca3146102ca5780632f2ff15d146102fa578063313ce5671461031c5780633644e5151461033857600080fd5b806301ffc9a71461021457806306fdde0314610249578063095ea7b31461026b57806318160ddd1461028b575b600080fd5b34801561022057600080fd5b5061023461022f36600461250f565b610686565b60405190151581526020015b60405180910390f35b34801561025557600080fd5b5061025e6106b1565b6040516102409190612589565b34801561027757600080fd5b506102346102863660046125b8565b610743565b34801561029757600080fd5b506035545b604051908152602001610240565b3480156102b657600080fd5b506102346102c53660046125e2565b61075b565b3480156102d657600080fd5b5061029c6102e536600461261e565b600090815260c9602052604090206001015490565b34801561030657600080fd5b5061031a610315366004612637565b610781565b005b34801561032857600080fd5b5060405160128152602001610240565b34801561034457600080fd5b5061029c6107ab565b34801561035957600080fd5b5061031a610368366004612637565b6107ba565b34801561037957600080fd5b5061031a610388366004612663565b61083d565b34801561039957600080fd5b506102346103a83660046125b8565b61091c565b3480156103b957600080fd5b5061031a61093e565b3480156103ce57600080fd5b5061031a6103dd3660046125b8565b610971565b3480156103ee57600080fd5b5061031a6103fd36600461261e565b6109a4565b61031a610410366004612721565b6109ae565b34801561042157600080fd5b5061029c610a7a565b34801561043657600080fd5b5060655460ff16610234565b34801561044e57600080fd5b5061029c61045d366004612663565b6001600160a01b031660009081526033602052604090205490565b34801561048457600080fd5b5061031a6104933660046125b8565b610b2d565b3480156104a457600080fd5b5060408051602081019091526000815261025e565b3480156104c557600080fd5b5061029c6104d4366004612663565b610b42565b3480156104e557600080fd5b5061031a610b61565b3480156104fa57600080fd5b5061031a610ceb565b34801561050f57600080fd5b5061052361051e36600461276f565b610d1c565b6040516001600160a01b039091168152602001610240565b34801561054757600080fd5b50610234610556366004612637565b610d34565b34801561056757600080fd5b5061031a610576366004612791565b610d5f565b34801561058757600080fd5b5061025e610d92565b34801561059c57600080fd5b5061029c600081565b3480156105b157600080fd5b506102346105c03660046125b8565b610da1565b3480156105d157600080fd5b506102346105e03660046125b8565b610e27565b3480156105f157600080fd5b5061029c61060036600461261e565b610e35565b34801561061157600080fd5b5061022654610523906001600160a01b031681565b34801561063257600080fd5b5061031a6106413660046127e8565b610e4c565b34801561065257600080fd5b5061031a610661366004612637565b610fb0565b34801561067257600080fd5b5061029c61068136600461285b565b610fd5565b60006001600160e01b03198216635a05180f60e01b14806106ab57506106ab82611000565b92915050565b6060603680546106c090612885565b80601f01602080910402602001604051908101604052809291908181526020018280546106ec90612885565b80156107395780601f1061070e57610100808354040283529160200191610739565b820191906000526020600020905b81548152906001019060200180831161071c57829003601f168201915b5050505050905090565b600033610751818585611035565b5060019392505050565b600033610769858285611159565b6107748585856111d3565b60019150505b9392505050565b600082815260c9602052604090206001015461079c81611389565b6107a68383611393565b505050565b60006107b56113b5565b905090565b6001600160a01b038116331461082f5760405162461bcd60e51b815260206004820152602f60248201527f416363657373436f6e74726f6c3a2063616e206f6e6c792072656e6f756e636560448201526e103937b632b9903337b91039b2b63360891b60648201526084015b60405180910390fd5b6108398282611432565b5050565b6001600160a01b037f00000000000000000000000000000000000000000000000000000000000000001630036108855760405162461bcd60e51b8152600401610826906128b9565b7f00000000000000000000000000000000000000000000000000000000000000006001600160a01b03166108ce600080516020612c09833981519152546001600160a01b031690565b6001600160a01b0316146108f45760405162461bcd60e51b815260040161082690612905565b6108fd81611454565b604080516000808252602082019092526109199183919061145e565b50565b60003361075181858561092f8383610fd5565b6109399190612967565b611035565b6109677fa49807205ce4d355092ef5a8a18f56e8913cf4a201fbe287825b095693c21775611389565b61096f6115c9565b565b61099a7f9f2df0fed2c77648de5860a4cc508cd0818c85b8b8a1ab4ceeef8d981c8956a6611389565b610839828261161b565b61091933826116e8565b6001600160a01b037f00000000000000000000000000000000000000000000000000000000000000001630036109f65760405162461bcd60e51b8152600401610826906128b9565b7f00000000000000000000000000000000000000000000000000000000000000006001600160a01b0316610a3f600080516020612c09833981519152546001600160a01b031690565b6001600160a01b031614610a655760405162461bcd60e51b815260040161082690612905565b610a6e82611454565b6108398282600161145e565b6000306001600160a01b037f00000000000000000000000000000000000000000000000000000000000000001614610b1a5760405162461bcd60e51b815260206004820152603860248201527f555550535570677261646561626c653a206d757374206e6f742062652063616c60448201527f6c6564207468726f7567682064656c656761746563616c6c00000000000000006064820152608401610826565b50600080516020612c0983398151915290565b610b38823383611159565b61083982826116e8565b6001600160a01b038116600090815261018f60205260408120546106ab565b600054610100900460ff1615808015610b815750600054600160ff909116105b80610b9b5750303b158015610b9b575060005460ff166001145b610bfe5760405162461bcd60e51b815260206004820152602e60248201527f496e697469616c697a61626c653a20636f6e747261637420697320616c72656160448201526d191e481a5b9a5d1a585b1a5e995960921b6064820152608401610826565b6000805460ff191660011790558015610c21576000805461ff0019166101001790555b610c65604051806040016040528060058152602001644d6167696360d81b815250604051806040016040528060058152602001644d4147494360d81b815250611828565b610c6d611859565b610c93604051806040016040528060058152602001644d6167696360d81b815250611888565b610c9b6118d2565b610ca36119de565b8015610919576000805461ff0019169055604051600181527f7f26b83ff96e1f2b6a682f133852f6798a09c465da95921460cefb38474024989060200160405180910390a150565b610d147fa49807205ce4d355092ef5a8a18f56e8913cf4a201fbe287825b095693c21775611389565b61096f611a05565b600082815260fb6020526040812061077a9083611a42565b600091825260c9602090815260408084206001600160a01b0393909316845291905290205460ff1690565b610d887ff18b77e1ef402111bacb54bd5e03494cbdba92fbd1bd3bbcc1ce77e69b42ea6c611389565b6107a6838361161b565b6060603780546106c090612885565b60003381610daf8286610fd5565b905083811015610e0f5760405162461bcd60e51b815260206004820152602560248201527f45524332303a2064656372656173656420616c6c6f77616e63652062656c6f77604482015264207a65726f60d81b6064820152608401610826565b610e1c8286868403611035565b506001949350505050565b6000336107518185856111d3565b600081815260fb602052604081206106ab90611a4e565b83421115610e9c5760405162461bcd60e51b815260206004820152601d60248201527f45524332305065726d69743a206578706972656420646561646c696e650000006044820152606401610826565b60007f6e71edae12b1b97f4d1f60370fef10105fa2faae0126114a169c64845d6126c9888888610ecb8c611a58565b6040805160208101969096526001600160a01b0394851690860152929091166060840152608083015260a082015260c0810186905260e0016040516020818303038152906040528051906020012090506000610f2682611a81565b90506000610f3682878787611acf565b9050896001600160a01b0316816001600160a01b031614610f995760405162461bcd60e51b815260206004820152601e60248201527f45524332305065726d69743a20696e76616c6964207369676e617475726500006044820152606401610826565b610fa48a8a8a611035565b50505050505050505050565b600082815260c96020526040902060010154610fcb81611389565b6107a68383611432565b6001600160a01b03918216600090815260346020908152604080832093909416825291909152205490565b60006001600160e01b03198216637965db0b60e01b14806106ab57506301ffc9a760e01b6001600160e01b03198316146106ab565b6001600160a01b0383166110975760405162461bcd60e51b8152602060048201526024808201527f45524332303a20617070726f76652066726f6d20746865207a65726f206164646044820152637265737360e01b6064820152608401610826565b6001600160a01b0382166110f85760405162461bcd60e51b815260206004820152602260248201527f45524332303a20617070726f766520746f20746865207a65726f206164647265604482015261737360f01b6064820152608401610826565b6001600160a01b0383811660008181526034602090815260408083209487168084529482529182902085905590518481527f8c5be1e5ebec7d5bd14f71427d1e84f3dd0314c0f7b2291e5b200ac8c7c3b925910160405180910390a3505050565b60006111658484610fd5565b905060001981146111cd57818110156111c05760405162461bcd60e51b815260206004820152601d60248201527f45524332303a20696e73756666696369656e7420616c6c6f77616e63650000006044820152606401610826565b6111cd8484848403611035565b50505050565b6001600160a01b0383166112375760405162461bcd60e51b815260206004820152602560248201527f45524332303a207472616e736665722066726f6d20746865207a65726f206164604482015264647265737360d81b6064820152608401610826565b6001600160a01b0382166112995760405162461bcd60e51b815260206004820152602360248201527f45524332303a207472616e7366657220746f20746865207a65726f206164647260448201526265737360e81b6064820152608401610826565b6112a4838383611af7565b6001600160a01b0383166000908152603360205260409020548181101561131c5760405162461bcd60e51b815260206004820152602660248201527f45524332303a207472616e7366657220616d6f756e7420657863656564732062604482015265616c616e636560d01b6064820152608401610826565b6001600160a01b0380851660008181526033602052604080822086860390559286168082529083902080548601905591517fddf252ad1be2c89b69c2b068fc378daa952ba7f163c4a11628f55a4df523b3ef9061137c9086815260200190565b60405180910390a36111cd565b6109198133611aff565b61139d8282611b58565b600082815260fb602052604090206107a69082611bde565b60006107b57f8b73c3c69bb8fe3d512ecc4cf759cc79239f7b179b0ffacaa9a75d522b39400f6113e561015b5490565b61015c546040805160208101859052908101839052606081018290524660808201523060a082015260009060c0016040516020818303038152906040528051906020012090509392505050565b61143c8282611bf3565b600082815260fb602052604090206107a69082611c5a565b6109196000611389565b7f4910fdfa16fed3260ed0e7147f7cc6da11a60208b5b9406d12a635614ffd91435460ff1615611491576107a683611c6f565b826001600160a01b03166352d1902d6040518163ffffffff1660e01b8152600401602060405180830381865afa9250505080156114eb575060408051601f3d908101601f191682019092526114e89181019061297a565b60015b61154e5760405162461bcd60e51b815260206004820152602e60248201527f45524331393637557067726164653a206e657720696d706c656d656e7461746960448201526d6f6e206973206e6f74205555505360901b6064820152608401610826565b600080516020612c0983398151915281146115bd5760405162461bcd60e51b815260206004820152602960248201527f45524331393637557067726164653a20756e737570706f727465642070726f786044820152681a58589b195555525160ba1b6064820152608401610826565b506107a6838383611d0b565b6115d1611d30565b6065805460ff191690557f5db9ee0a495bf2e6ff9c91a7834c1ba4fdd244a5e8aa4e537bd38aeae4b073aa335b6040516001600160a01b03909116815260200160405180910390a1565b6001600160a01b0382166116715760405162461bcd60e51b815260206004820152601f60248201527f45524332303a206d696e7420746f20746865207a65726f2061646472657373006044820152606401610826565b61167d60008383611af7565b806035600082825461168f9190612967565b90915550506001600160a01b0382166000818152603360209081526040808320805486019055518481527fddf252ad1be2c89b69c2b068fc378daa952ba7f163c4a11628f55a4df523b3ef910160405180910390a35050565b6001600160a01b0382166117485760405162461bcd60e51b815260206004820152602160248201527f45524332303a206275726e2066726f6d20746865207a65726f206164647265736044820152607360f81b6064820152608401610826565b61175482600083611af7565b6001600160a01b038216600090815260336020526040902054818110156117c85760405162461bcd60e51b815260206004820152602260248201527f45524332303a206275726e20616d6f756e7420657863656564732062616c616e604482015261636560f01b6064820152608401610826565b6001600160a01b03831660008181526033602090815260408083208686039055603580548790039055518581529192917fddf252ad1be2c89b69c2b068fc378daa952ba7f163c4a11628f55a4df523b3ef910160405180910390a3505050565b600054610100900460ff1661184f5760405162461bcd60e51b815260040161082690612993565b6108398282611d79565b600054610100900460ff166118805760405162461bcd60e51b815260040161082690612993565b61096f611db9565b600054610100900460ff166118af5760405162461bcd60e51b815260040161082690612993565b61091981604051806040016040528060018152602001603160f81b815250611dec565b600054610100900460ff166118f95760405162461bcd60e51b815260040161082690612993565b6119016119de565b61190c600033611393565b6119367fa49807205ce4d355092ef5a8a18f56e8913cf4a201fbe287825b095693c2177533611393565b6119607f364d3d7565c7a8300c96fd53e065d19b65848d7b23b3191adcd55621c744223c33611393565b61198a7f9f2df0fed2c77648de5860a4cc508cd0818c85b8b8a1ab4ceeef8d981c8956a633611393565b6119b47ff18b77e1ef402111bacb54bd5e03494cbdba92fbd1bd3bbcc1ce77e69b42ea6c33611393565b61096f7f52ba824bfabc2bcfcdf7f0edbb486ebb05e1836c90e78047efeb949990f72e5f33611393565b600054610100900460ff1661096f5760405162461bcd60e51b815260040161082690612993565b611a0d611e2f565b6065805460ff191660011790557f62e78cea01bee320cd4e420270b5ea74000d11b0c9f74754ebdbfc544b05a2586115fe3390565b600061077a8383611e75565b60006106ab825490565b6001600160a01b038116600090815261018f602052604090208054600181018255905b50919050565b60006106ab611a8e6113b5565b8360405161190160f01b6020820152602281018390526042810182905260009060620160405160208183030381529060405280519060200120905092915050565b6000806000611ae087878787611e9f565b91509150611aed81611f63565b5095945050505050565b6107a6611e2f565b611b098282610d34565b61083957611b16816120ad565b611b218360206120bf565b604051602001611b329291906129de565b60408051601f198184030181529082905262461bcd60e51b825261082691600401612589565b611b628282610d34565b61083957600082815260c9602090815260408083206001600160a01b03851684529091529020805460ff19166001179055611b9a3390565b6001600160a01b0316816001600160a01b0316837f2f8788117e7eff1d82e926ec794901d17c78024a50270940304540a733656f0d60405160405180910390a45050565b600061077a836001600160a01b03841661225b565b611bfd8282610d34565b1561083957600082815260c9602090815260408083206001600160a01b0385168085529252808320805460ff1916905551339285917ff6391f5c32d9c69d2a47ea670b442974b53935d1edc7fd64eb21e047a839171b9190a45050565b600061077a836001600160a01b0384166122aa565b6001600160a01b0381163b611cdc5760405162461bcd60e51b815260206004820152602d60248201527f455243313936373a206e657720696d706c656d656e746174696f6e206973206e60448201526c1bdd08184818dbdb9d1c9858dd609a1b6064820152608401610826565b600080516020612c0983398151915280546001600160a01b0319166001600160a01b0392909216919091179055565b611d148361239d565b600082511180611d215750805b156107a6576111cd83836123dd565b60655460ff1661096f5760405162461bcd60e51b815260206004820152601460248201527314185d5cd8589b194e881b9bdd081c185d5cd95960621b6044820152606401610826565b600054610100900460ff16611da05760405162461bcd60e51b815260040161082690612993565b6036611dac8382612aa1565b5060376107a68282612aa1565b600054610100900460ff16611de05760405162461bcd60e51b815260040161082690612993565b6065805460ff19169055565b600054610100900460ff16611e135760405162461bcd60e51b815260040161082690612993565b81516020928301208151919092012061015b9190915561015c55565b60655460ff161561096f5760405162461bcd60e51b815260206004820152601060248201526f14185d5cd8589b194e881c185d5cd95960821b6044820152606401610826565b6000826000018281548110611e8c57611e8c612b61565b9060005260206000200154905092915050565b6000807f7fffffffffffffffffffffffffffffff5d576e7357a4501ddfe92f46681b20a0831115611ed65750600090506003611f5a565b6040805160008082526020820180845289905260ff881692820192909252606081018690526080810185905260019060a0016020604051602081039080840390855afa158015611f2a573d6000803e3d6000fd5b5050604051601f1901519150506001600160a01b038116611f5357600060019250925050611f5a565b9150600090505b94509492505050565b6000816004811115611f7757611f77612b77565b03611f7f5750565b6001816004811115611f9357611f93612b77565b03611fe05760405162461bcd60e51b815260206004820152601860248201527f45434453413a20696e76616c6964207369676e617475726500000000000000006044820152606401610826565b6002816004811115611ff457611ff4612b77565b036120415760405162461bcd60e51b815260206004820152601f60248201527f45434453413a20696e76616c6964207369676e6174757265206c656e677468006044820152606401610826565b600381600481111561205557612055612b77565b036109195760405162461bcd60e51b815260206004820152602260248201527f45434453413a20696e76616c6964207369676e6174757265202773272076616c604482015261756560f01b6064820152608401610826565b60606106ab6001600160a01b03831660145b606060006120ce836002612b8d565b6120d9906002612967565b67ffffffffffffffff8111156120f1576120f161267e565b6040519080825280601f01601f19166020018201604052801561211b576020820181803683370190505b509050600360fc1b8160008151811061213657612136612b61565b60200101906001600160f81b031916908160001a905350600f60fb1b8160018151811061216557612165612b61565b60200101906001600160f81b031916908160001a9053506000612189846002612b8d565b612194906001612967565b90505b600181111561220c576f181899199a1a9b1b9c1cb0b131b232b360811b85600f16601081106121c8576121c8612b61565b1a60f81b8282815181106121de576121de612b61565b60200101906001600160f81b031916908160001a90535060049490941c9361220581612bac565b9050612197565b50831561077a5760405162461bcd60e51b815260206004820181905260248201527f537472696e67733a20686578206c656e67746820696e73756666696369656e746044820152606401610826565b60008181526001830160205260408120546122a2575081546001818101845560008481526020808220909301849055845484825282860190935260409020919091556106ab565b5060006106ab565b600081815260018301602052604081205480156123935760006122ce600183612bc3565b85549091506000906122e290600190612bc3565b905081811461234757600086600001828154811061230257612302612b61565b906000526020600020015490508087600001848154811061232557612325612b61565b6000918252602080832090910192909255918252600188019052604090208390555b855486908061235857612358612bd6565b6001900381819060005260206000200160009055905585600101600086815260200190815260200160002060009055600193505050506106ab565b60009150506106ab565b6123a681611c6f565b6040516001600160a01b038216907fbc7cd75a20ee27fd9adebab32041f755214dbc6bffa90cc0225b39da2e5c2d3b90600090a250565b60606001600160a01b0383163b6124455760405162461bcd60e51b815260206004820152602660248201527f416464726573733a2064656c65676174652063616c6c20746f206e6f6e2d636f6044820152651b9d1c9858dd60d21b6064820152608401610826565b600080846001600160a01b0316846040516124609190612bec565b600060405180830381855af49150503d806000811461249b576040519150601f19603f3d011682016040523d82523d6000602084013e6124a0565b606091505b50915091506124c88282604051806060016040528060278152602001612c29602791396124d1565b95945050505050565b606083156124e057508161077a565b61077a83838151156124f55781518083602001fd5b8060405162461bcd60e51b81526004016108269190612589565b60006020828403121561252157600080fd5b81356001600160e01b03198116811461077a57600080fd5b60005b8381101561255457818101518382015260200161253c565b50506000910152565b60008151808452612575816020860160208601612539565b601f01601f19169290920160200192915050565b60208152600061077a602083018461255d565b80356001600160a01b03811681146125b357600080fd5b919050565b600080604083850312156125cb57600080fd5b6125d48361259c565b946020939093013593505050565b6000806000606084860312156125f757600080fd5b6126008461259c565b925061260e6020850161259c565b9150604084013590509250925092565b60006020828403121561263057600080fd5b5035919050565b6000806040838503121561264a57600080fd5b8235915061265a6020840161259c565b90509250929050565b60006020828403121561267557600080fd5b61077a8261259c565b634e487b7160e01b600052604160045260246000fd5b600082601f8301126126a557600080fd5b813567ffffffffffffffff808211156126c0576126c061267e565b604051601f8301601f19908116603f011681019082821181831017156126e8576126e861267e565b8160405283815286602085880101111561270157600080fd5b836020870160208301376000602085830101528094505050505092915050565b6000806040838503121561273457600080fd5b61273d8361259c565b9150602083013567ffffffffffffffff81111561275957600080fd5b61276585828601612694565b9150509250929050565b6000806040838503121561278257600080fd5b50508035926020909101359150565b6000806000606084860312156127a657600080fd5b6127af8461259c565b925060208401359150604084013567ffffffffffffffff8111156127d257600080fd5b6127de86828701612694565b9150509250925092565b600080600080600080600060e0888a03121561280357600080fd5b61280c8861259c565b965061281a6020890161259c565b95506040880135945060608801359350608088013560ff8116811461283e57600080fd5b9699959850939692959460a0840135945060c09093013592915050565b6000806040838503121561286e57600080fd5b6128778361259c565b915061265a6020840161259c565b600181811c9082168061289957607f821691505b602082108103611a7b57634e487b7160e01b600052602260045260246000fd5b6020808252602c908201527f46756e6374696f6e206d7573742062652063616c6c6564207468726f7567682060408201526b19195b1959d85d1958d85b1b60a21b606082015260800190565b6020808252602c908201527f46756e6374696f6e206d7573742062652063616c6c6564207468726f7567682060408201526b6163746976652070726f787960a01b606082015260800190565b634e487b7160e01b600052601160045260246000fd5b808201808211156106ab576106ab612951565b60006020828403121561298c57600080fd5b5051919050565b6020808252602b908201527f496e697469616c697a61626c653a20636f6e7472616374206973206e6f74206960408201526a6e697469616c697a696e6760a81b606082015260800190565b7f416363657373436f6e74726f6c3a206163636f756e7420000000000000000000815260008351612a16816017850160208801612539565b7001034b99036b4b9b9b4b733903937b6329607d1b6017918401918201528351612a47816028840160208801612539565b01602801949350505050565b601f8211156107a657600081815260208120601f850160051c81016020861015612a7a5750805b601f850160051c820191505b81811015612a9957828155600101612a86565b505050505050565b815167ffffffffffffffff811115612abb57612abb61267e565b612acf81612ac98454612885565b84612a53565b602080601f831160018114612b045760008415612aec5750858301515b600019600386901b1c1916600185901b178555612a99565b600085815260208120601f198616915b82811015612b3357888601518255948401946001909101908401612b14565b5085821015612b515787850151600019600388901b60f8161c191681555b5050505050600190811b01905550565b634e487b7160e01b600052603260045260246000fd5b634e487b7160e01b600052602160045260246000fd5b6000816000190483118215151615612ba757612ba7612951565b500290565b600081612bbb57612bbb612951565b506000190190565b818103818111156106ab576106ab612951565b634e487b7160e01b600052603160045260246000fd5b60008251612bfe818460208701612539565b919091019291505056fe360894a13ba1a3210667c828492db98dca3e2076cc3735a920a3ca505d382bbc416464726573733a206c6f772d6c6576656c2064656c65676174652063616c6c206661696c6564a26469706673582212207c1815d1bad4c56b8456f3011895c7af558fb1022b7a3c192895d2e1a80cc9f264736f6c63430008100033",
  "linkReferences": {},
  "deployedLinkReferences": {}
}