{
  "_format": "hh-sol-artifact-1",
  "contractName": "MarketUpgradeable",
  "sourceName": "contracts/marketplace/MarketUpgradeable.sol",
  "abi": [
    {
      "anonymous": false,
      "inputs": [
        {
          "indexed": false,
          "internalType": "uint256",
          "name": "nexBidPercentInBasisPoint",
          "type": "uint256"
        },
        {
          "indexed": false,
          "internalType": "uint256",
          "name": "extensionDuration",
          "type": "uint256"
        }
      ],
      "name": "AuctionConfigUpdated",
      "type": "event"
    },
    {
      "anonymous": false,
      "inputs": [
        {
          "indexed": true,
          "internalType": "uint256",
          "name": "saleId",
          "type": "uint256"
        },
        {
          "indexed": true,
          "internalType": "address",
          "name": "seller",
          "type": "address"
        },
        {
          "indexed": true,
          "internalType": "address",
          "name": "bidder",
          "type": "address"
        },
        {
          "indexed": false,
          "internalType": "uint256",
          "name": "royalty",
          "type": "uint256"
        },
        {
          "indexed": false,
          "internalType": "uint256",
          "name": "marketFee",
          "type": "uint256"
        },
        {
          "indexed": false,
          "internalType": "uint256",
          "name": "ownerRev",
          "type": "uint256"
        }
      ],
      "name": "AuctionFinalized",
      "type": "event"
    },
    {
      "anonymous": false,
      "inputs": [
        {
          "indexed": true,
          "internalType": "uint256",
          "name": "saleId",
          "type": "uint256"
        },
        {
          "indexed": false,
          "internalType": "address",
          "name": "bidder",
          "type": "address"
        },
        {
          "indexed": false,
          "internalType": "uint256",
          "name": "bidAbount",
          "type": "uint256"
        },
        {
          "indexed": false,
          "internalType": "uint256",
          "name": "endTime",
          "type": "uint256"
        }
      ],
      "name": "BidPlaced",
      "type": "event"
    },
    {
      "anonymous": false,
      "inputs": [
        {
          "indexed": true,
          "internalType": "address",
          "name": "contractAddress",
          "type": "address"
        },
        {
          "indexed": true,
          "internalType": "address",
          "name": "bidToken",
          "type": "address"
        }
      ],
      "name": "ContractBidTokenUpdated",
      "type": "event"
    },
    {
      "anonymous": false,
      "inputs": [
        {
          "indexed": true,
          "internalType": "uint256",
          "name": "saleId",
          "type": "uint256"
        },
        {
          "indexed": true,
          "internalType": "address",
          "name": "seller",
          "type": "address"
        },
        {
          "indexed": true,
          "internalType": "address",
          "name": "buyer",
          "type": "address"
        },
        {
          "indexed": false,
          "internalType": "uint256",
          "name": "royalty",
          "type": "uint256"
        },
        {
          "indexed": false,
          "internalType": "uint256",
          "name": "marketFee",
          "type": "uint256"
        },
        {
          "indexed": false,
          "internalType": "uint256",
          "name": "ownerRev",
          "type": "uint256"
        }
      ],
      "name": "FixedPriceFinalized",
      "type": "event"
    },
    {
      "anonymous": false,
      "inputs": [
        {
          "indexed": false,
          "internalType": "uint8",
          "name": "version",
          "type": "uint8"
        }
      ],
      "name": "Initialized",
      "type": "event"
    },
    {
      "anonymous": false,
      "inputs": [
        {
          "indexed": true,
          "internalType": "uint256",
          "name": "marketFeeBps",
          "type": "uint256"
        }
      ],
      "name": "MarketFeesUpdated",
      "type": "event"
    },
    {
      "anonymous": false,
      "inputs": [
        {
          "indexed": true,
          "internalType": "uint256",
          "name": "maxRoyaltiyBps",
          "type": "uint256"
        }
      ],
      "name": "MarketRoyaltyUpdated",
      "type": "event"
    },
    {
      "anonymous": false,
      "inputs": [
        {
          "indexed": true,
          "internalType": "uint256",
          "name": "saleId",
          "type": "uint256"
        },
        {
          "indexed": true,
          "internalType": "address",
          "name": "seller",
          "type": "address"
        },
        {
          "indexed": true,
          "internalType": "address",
          "name": "buyer",
          "type": "address"
        },
        {
          "indexed": false,
          "internalType": "uint256",
          "name": "royalty",
          "type": "uint256"
        },
        {
          "indexed": false,
          "internalType": "uint256",
          "name": "marketFee",
          "type": "uint256"
        },
        {
          "indexed": false,
          "internalType": "uint256",
          "name": "ownerRev",
          "type": "uint256"
        }
      ],
      "name": "OfferFinalized",
      "type": "event"
    },
    {
      "anonymous": false,
      "inputs": [
        {
          "indexed": true,
          "internalType": "bytes32",
          "name": "role",
          "type": "bytes32"
        },
        {
          "indexed": true,
          "internalType": "bytes32",
          "name": "previousAdminRole",
          "type": "bytes32"
        },
        {
          "indexed": true,
          "internalType": "bytes32",
          "name": "newAdminRole",
          "type": "bytes32"
        }
      ],
      "name": "RoleAdminChanged",
      "type": "event"
    },
    {
      "anonymous": false,
      "inputs": [
        {
          "indexed": true,
          "internalType": "bytes32",
          "name": "role",
          "type": "bytes32"
        },
        {
          "indexed": true,
          "internalType": "address",
          "name": "account",
          "type": "address"
        },
        {
          "indexed": true,
          "internalType": "address",
          "name": "sender",
          "type": "address"
        }
      ],
      "name": "RoleGranted",
      "type": "event"
    },
    {
      "anonymous": false,
      "inputs": [
        {
          "indexed": true,
          "internalType": "bytes32",
          "name": "role",
          "type": "bytes32"
        },
        {
          "indexed": true,
          "internalType": "address",
          "name": "account",
          "type": "address"
        },
        {
          "indexed": true,
          "internalType": "address",
          "name": "sender",
          "type": "address"
        }
      ],
      "name": "RoleRevoked",
      "type": "event"
    },
    {
      "anonymous": false,
      "inputs": [
        {
          "indexed": true,
          "internalType": "uint256",
          "name": "saleId",
          "type": "uint256"
        },
        {
          "indexed": false,
          "internalType": "string",
          "name": "reason",
          "type": "string"
        }
      ],
      "name": "SaleCanceled",
      "type": "event"
    },
    {
      "anonymous": false,
      "inputs": [
        {
          "indexed": true,
          "internalType": "uint256",
          "name": "saleId",
          "type": "uint256"
        },
        {
          "indexed": false,
          "internalType": "enum MarketCoreUpgradeable.SaleType",
          "name": "saleType",
          "type": "uint8"
        },
        {
          "indexed": true,
          "internalType": "address",
          "name": "seller",
          "type": "address"
        },
        {
          "indexed": true,
          "internalType": "address",
          "name": "contractAddress",
          "type": "address"
        },
        {
          "indexed": false,
          "internalType": "uint256[]",
          "name": "tokenIds",
          "type": "uint256[]"
        },
        {
          "indexed": false,
          "internalType": "uint256[]",
          "name": "values",
          "type": "uint256[]"
        },
        {
          "indexed": false,
          "internalType": "address",
          "name": "bidToken",
          "type": "address"
        },
        {
          "indexed": false,
          "internalType": "uint256",
          "name": "startTime",
          "type": "uint256"
        },
        {
          "indexed": false,
          "internalType": "uint256",
          "name": "duration",
          "type": "uint256"
        },
        {
          "indexed": false,
          "internalType": "uint256",
          "name": "extensionDuration",
          "type": "uint256"
        },
        {
          "indexed": false,
          "internalType": "uint256",
          "name": "endTime",
          "type": "uint256"
        },
        {
          "indexed": false,
          "internalType": "uint256",
          "name": "minPrice",
          "type": "uint256"
        }
      ],
      "name": "SaleCreated",
      "type": "event"
    },
    {
      "inputs": [],
      "name": "ADMIN_ROLE",
      "outputs": [
        {
          "internalType": "bytes32",
          "name": "",
          "type": "bytes32"
        }
      ],
      "stateMutability": "view",
      "type": "function"
    },
    {
      "inputs": [],
      "name": "AUTHORIZED_ROLE",
      "outputs": [
        {
          "internalType": "bytes32",
          "name": "",
          "type": "bytes32"
        }
      ],
      "stateMutability": "view",
      "type": "function"
    },
    {
      "inputs": [],
      "name": "DEFAULT_ADMIN_ROLE",
      "outputs": [
        {
          "internalType": "bytes32",
          "name": "",
          "type": "bytes32"
        }
      ],
      "stateMutability": "view",
      "type": "function"
    },
    {
      "inputs": [
        {
          "internalType": "uint256",
          "name": "saleId",
          "type": "uint256"
        }
      ],
      "name": "acceptOffer",
      "outputs": [],
      "stateMutability": "nonpayable",
      "type": "function"
    },
    {
      "inputs": [],
      "name": "activeSaleIds",
      "outputs": [
        {
          "internalType": "uint256[]",
          "name": "",
          "type": "uint256[]"
        }
      ],
      "stateMutability": "view",
      "type": "function"
    },
    {
      "inputs": [],
      "name": "activeSales",
      "outputs": [
        {
          "components": [
            {
              "internalType": "enum MarketCoreUpgradeable.SaleType",
              "name": "saleType",
              "type": "uint8"
            },
            {
              "internalType": "address",
              "name": "seller",
              "type": "address"
            },
            {
              "internalType": "address",
              "name": "contractAddress",
              "type": "address"
            },
            {
              "internalType": "enum MarketCoreUpgradeable.TokenType",
              "name": "tokenType",
              "type": "uint8"
            },
            {
              "internalType": "uint256[]",
              "name": "tokenIds",
              "type": "uint256[]"
            },
            {
              "internalType": "uint256[]",
              "name": "values",
              "type": "uint256[]"
            },
            {
              "internalType": "address",
              "name": "bidToken",
              "type": "address"
            },
            {
              "internalType": "uint256",
              "name": "startTime",
              "type": "uint256"
            },
            {
              "internalType": "uint256",
              "name": "duration",
              "type": "uint256"
            },
            {
              "internalType": "uint256",
              "name": "extensionDuration",
              "type": "uint256"
            },
            {
              "internalType": "uint256",
              "name": "endTime",
              "type": "uint256"
            },
            {
              "internalType": "address",
              "name": "bidder",
              "type": "address"
            },
            {
              "internalType": "uint256",
              "name": "bidAmount",
              "type": "uint256"
            }
          ],
          "internalType": "struct MarketCoreUpgradeable.Sale[]",
          "name": "",
          "type": "tuple[]"
        }
      ],
      "stateMutability": "view",
      "type": "function"
    },
    {
      "inputs": [
        {
          "internalType": "uint256",
          "name": "saleId",
          "type": "uint256"
        },
        {
          "internalType": "uint256",
          "name": "bidAmount",
          "type": "uint256"
        }
      ],
      "name": "bidAuction",
      "outputs": [],
      "stateMutability": "nonpayable",
      "type": "function"
    },
    {
      "inputs": [
        {
          "internalType": "uint256",
          "name": "saleId",
          "type": "uint256"
        },
        {
          "internalType": "uint256",
          "name": "buyAmount",
          "type": "uint256"
        }
      ],
      "name": "buyFixedPrice",
      "outputs": [],
      "stateMutability": "nonpayable",
      "type": "function"
    },
    {
      "inputs": [
        {
          "internalType": "uint256",
          "name": "saleId",
          "type": "uint256"
        }
      ],
      "name": "cancelOffer",
      "outputs": [],
      "stateMutability": "nonpayable",
      "type": "function"
    },
    {
      "inputs": [
        {
          "internalType": "uint256",
          "name": "saleId",
          "type": "uint256"
        },
        {
          "internalType": "string",
          "name": "reason",
          "type": "string"
        }
      ],
      "name": "cancelSale",
      "outputs": [],
      "stateMutability": "nonpayable",
      "type": "function"
    },
    {
      "inputs": [
        {
          "internalType": "uint256",
          "name": "saleId",
          "type": "uint256"
        },
        {
          "internalType": "string",
          "name": "reason",
          "type": "string"
        }
      ],
      "name": "cancelSaleByAdmin",
      "outputs": [],
      "stateMutability": "nonpayable",
      "type": "function"
    },
    {
      "inputs": [
        {
          "internalType": "address",
          "name": "",
          "type": "address"
        }
      ],
      "name": "contractAddressToBidToken",
      "outputs": [
        {
          "internalType": "address",
          "name": "",
          "type": "address"
        }
      ],
      "stateMutability": "view",
      "type": "function"
    },
    {
      "inputs": [
        {
          "internalType": "address",
          "name": "contractAddress",
          "type": "address"
        },
        {
          "internalType": "uint256",
          "name": "tokenId",
          "type": "uint256"
        },
        {
          "internalType": "uint256",
          "name": "value",
          "type": "uint256"
        },
        {
          "internalType": "address",
          "name": "bidToken",
          "type": "address"
        },
        {
          "internalType": "uint256",
          "name": "startTime",
          "type": "uint256"
        },
        {
          "internalType": "uint256",
          "name": "duration",
          "type": "uint256"
        },
        {
          "internalType": "uint256",
          "name": "minPrice",
          "type": "uint256"
        }
      ],
      "name": "createERC1155Auction",
      "outputs": [],
      "stateMutability": "nonpayable",
      "type": "function"
    },
    {
      "inputs": [
        {
          "internalType": "address",
          "name": "contractAddress",
          "type": "address"
        },
        {
          "internalType": "uint256[]",
          "name": "tokenIds",
          "type": "uint256[]"
        },
        {
          "internalType": "uint256[]",
          "name": "values",
          "type": "uint256[]"
        },
        {
          "internalType": "address",
          "name": "bidToken",
          "type": "address"
        },
        {
          "internalType": "uint256",
          "name": "startTime",
          "type": "uint256"
        },
        {
          "internalType": "uint256",
          "name": "duration",
          "type": "uint256"
        },
        {
          "internalType": "uint256",
          "name": "minPrice",
          "type": "uint256"
        }
      ],
      "name": "createERC1155BundleAuction",
      "outputs": [],
      "stateMutability": "nonpayable",
      "type": "function"
    },
    {
      "inputs": [
        {
          "internalType": "address",
          "name": "contractAddress",
          "type": "address"
        },
        {
          "internalType": "uint256[]",
          "name": "tokenIds",
          "type": "uint256[]"
        },
        {
          "internalType": "uint256[]",
          "name": "values",
          "type": "uint256[]"
        },
        {
          "internalType": "address",
          "name": "bidToken",
          "type": "address"
        },
        {
          "internalType": "uint256",
          "name": "startTime",
          "type": "uint256"
        },
        {
          "internalType": "uint256",
          "name": "duration",
          "type": "uint256"
        },
        {
          "internalType": "uint256",
          "name": "minPrice",
          "type": "uint256"
        }
      ],
      "name": "createERC1155BundleFixedPrice",
      "outputs": [],
      "stateMutability": "nonpayable",
      "type": "function"
    },
    {
      "inputs": [
        {
          "internalType": "address",
          "name": "contractAddress",
          "type": "address"
        },
        {
          "internalType": "uint256",
          "name": "tokenId",
          "type": "uint256"
        },
        {
          "internalType": "uint256",
          "name": "value",
          "type": "uint256"
        },
        {
          "internalType": "address",
          "name": "bidToken",
          "type": "address"
        },
        {
          "internalType": "uint256",
          "name": "startTime",
          "type": "uint256"
        },
        {
          "internalType": "uint256",
          "name": "duration",
          "type": "uint256"
        },
        {
          "internalType": "uint256",
          "name": "minPrice",
          "type": "uint256"
        }
      ],
      "name": "createERC1155FixedPrice",
      "outputs": [],
      "stateMutability": "nonpayable",
      "type": "function"
    },
    {
      "inputs": [
        {
          "internalType": "address",
          "name": "contractAddress",
          "type": "address"
        },
        {
          "internalType": "uint256",
          "name": "tokenId",
          "type": "uint256"
        },
        {
          "internalType": "address",
          "name": "bidToken",
          "type": "address"
        },
        {
          "internalType": "uint256",
          "name": "startTime",
          "type": "uint256"
        },
        {
          "internalType": "uint256",
          "name": "duration",
          "type": "uint256"
        },
        {
          "internalType": "uint256",
          "name": "minPrice",
          "type": "uint256"
        },
        {
          "internalType": "uint256",
          "name": "royaltyBps",
          "type": "uint256"
        }
      ],
      "name": "createERC721Auction",
      "outputs": [],
      "stateMutability": "nonpayable",
      "type": "function"
    },
    {
      "inputs": [
        {
          "internalType": "address",
          "name": "contractAddress",
          "type": "address"
        },
        {
          "internalType": "uint256",
          "name": "tokenId",
          "type": "uint256"
        },
        {
          "internalType": "address",
          "name": "bidToken",
          "type": "address"
        },
        {
          "internalType": "uint256",
          "name": "startTime",
          "type": "uint256"
        },
        {
          "internalType": "uint256",
          "name": "duration",
          "type": "uint256"
        },
        {
          "internalType": "uint256",
          "name": "minPrice",
          "type": "uint256"
        },
        {
          "internalType": "uint256",
          "name": "royaltyBps",
          "type": "uint256"
        }
      ],
      "name": "createERC721FixedPrice",
      "outputs": [],
      "stateMutability": "nonpayable",
      "type": "function"
    },
    {
      "inputs": [
        {
          "internalType": "address",
          "name": "contractAddress",
          "type": "address"
        },
        {
          "internalType": "uint256",
          "name": "tokenId",
          "type": "uint256"
        },
        {
          "internalType": "address",
          "name": "bidToken",
          "type": "address"
        },
        {
          "internalType": "uint256",
          "name": "duration",
          "type": "uint256"
        },
        {
          "internalType": "uint256",
          "name": "minPrice",
          "type": "uint256"
        }
      ],
      "name": "createERC721Offer",
      "outputs": [],
      "stateMutability": "nonpayable",
      "type": "function"
    },
    {
      "inputs": [
        {
          "internalType": "uint256",
          "name": "saleId",
          "type": "uint256"
        }
      ],
      "name": "finalizeAuction",
      "outputs": [],
      "stateMutability": "nonpayable",
      "type": "function"
    },
    {
      "inputs": [],
      "name": "getAuctionConfig",
      "outputs": [
        {
          "internalType": "uint256",
          "name": "",
          "type": "uint256"
        },
        {
          "internalType": "uint256",
          "name": "",
          "type": "uint256"
        }
      ],
      "stateMutability": "view",
      "type": "function"
    },
    {
      "inputs": [
        {
          "internalType": "uint256",
          "name": "saleId",
          "type": "uint256"
        }
      ],
      "name": "getAuctionMinBidAmount",
      "outputs": [
        {
          "internalType": "uint256",
          "name": "",
          "type": "uint256"
        }
      ],
      "stateMutability": "view",
      "type": "function"
    },
    {
      "inputs": [
        {
          "internalType": "address",
          "name": "contractAddress",
          "type": "address"
        }
      ],
      "name": "getContractBidToken",
      "outputs": [
        {
          "internalType": "address",
          "name": "",
          "type": "address"
        }
      ],
      "stateMutability": "view",
      "type": "function"
    },
    {
      "inputs": [],
      "name": "getMarketFeeConfig",
      "outputs": [
        {
          "internalType": "uint256",
          "name": "",
          "type": "uint256"
        }
      ],
      "stateMutability": "view",
      "type": "function"
    },
    {
      "inputs": [],
      "name": "getMarketRoyaltyConfig",
      "outputs": [
        {
          "internalType": "uint256",
          "name": "",
          "type": "uint256"
        }
      ],
      "stateMutability": "view",
      "type": "function"
    },
    {
      "inputs": [
        {
          "internalType": "bytes32",
          "name": "role",
          "type": "bytes32"
        }
      ],
      "name": "getRoleAdmin",
      "outputs": [
        {
          "internalType": "bytes32",
          "name": "",
          "type": "bytes32"
        }
      ],
      "stateMutability": "view",
      "type": "function"
    },
    {
      "inputs": [
        {
          "internalType": "bytes32",
          "name": "role",
          "type": "bytes32"
        },
        {
          "internalType": "uint256",
          "name": "index",
          "type": "uint256"
        }
      ],
      "name": "getRoleMember",
      "outputs": [
        {
          "internalType": "address",
          "name": "",
          "type": "address"
        }
      ],
      "stateMutability": "view",
      "type": "function"
    },
    {
      "inputs": [
        {
          "internalType": "bytes32",
          "name": "role",
          "type": "bytes32"
        }
      ],
      "name": "getRoleMemberCount",
      "outputs": [
        {
          "internalType": "uint256",
          "name": "",
          "type": "uint256"
        }
      ],
      "stateMutability": "view",
      "type": "function"
    },
    {
      "inputs": [],
      "name": "getTreasury",
      "outputs": [
        {
          "internalType": "address",
          "name": "",
          "type": "address"
        }
      ],
      "stateMutability": "view",
      "type": "function"
    },
    {
      "inputs": [
        {
          "internalType": "bytes32",
          "name": "role",
          "type": "bytes32"
        },
        {
          "internalType": "address",
          "name": "account",
          "type": "address"
        }
      ],
      "name": "grantRole",
      "outputs": [],
      "stateMutability": "nonpayable",
      "type": "function"
    },
    {
      "inputs": [
        {
          "internalType": "bytes32",
          "name": "role",
          "type": "bytes32"
        },
        {
          "internalType": "address",
          "name": "account",
          "type": "address"
        }
      ],
      "name": "hasRole",
      "outputs": [
        {
          "internalType": "bool",
          "name": "",
          "type": "bool"
        }
      ],
      "stateMutability": "view",
      "type": "function"
    },
    {
      "inputs": [
        {
          "internalType": "uint256",
          "name": "maxRoyaltyBps",
          "type": "uint256"
        },
        {
          "internalType": "uint256",
          "name": "marketFeeBps",
          "type": "uint256"
        },
        {
          "internalType": "address",
          "name": "treasury",
          "type": "address"
        },
        {
          "internalType": "uint256",
          "name": "nexBidPercentBps",
          "type": "uint256"
        }
      ],
      "name": "initialize",
      "outputs": [],
      "stateMutability": "nonpayable",
      "type": "function"
    },
    {
      "inputs": [
        {
          "internalType": "address",
          "name": "contractAddress",
          "type": "address"
        }
      ],
      "name": "removeContractBidToken",
      "outputs": [],
      "stateMutability": "nonpayable",
      "type": "function"
    },
    {
      "inputs": [
        {
          "internalType": "bytes32",
          "name": "role",
          "type": "bytes32"
        },
        {
          "internalType": "address",
          "name": "account",
          "type": "address"
        }
      ],
      "name": "renounceRole",
      "outputs": [],
      "stateMutability": "nonpayable",
      "type": "function"
    },
    {
      "inputs": [
        {
          "internalType": "bytes32",
          "name": "role",
          "type": "bytes32"
        },
        {
          "internalType": "address",
          "name": "account",
          "type": "address"
        }
      ],
      "name": "revokeRole",
      "outputs": [],
      "stateMutability": "nonpayable",
      "type": "function"
    },
    {
      "inputs": [
        {
          "internalType": "address",
          "name": "",
          "type": "address"
        },
        {
          "internalType": "uint256",
          "name": "",
          "type": "uint256"
        }
      ],
      "name": "royalties",
      "outputs": [
        {
          "internalType": "address",
          "name": "recipient",
          "type": "address"
        },
        {
          "internalType": "uint256",
          "name": "amount",
          "type": "uint256"
        }
      ],
      "stateMutability": "view",
      "type": "function"
    },
    {
      "inputs": [
        {
          "internalType": "uint256",
          "name": "",
          "type": "uint256"
        }
      ],
      "name": "saleIdToSale",
      "outputs": [
        {
          "internalType": "enum MarketCoreUpgradeable.SaleType",
          "name": "saleType",
          "type": "uint8"
        },
        {
          "internalType": "address",
          "name": "seller",
          "type": "address"
        },
        {
          "internalType": "address",
          "name": "contractAddress",
          "type": "address"
        },
        {
          "internalType": "enum MarketCoreUpgradeable.TokenType",
          "name": "tokenType",
          "type": "uint8"
        },
        {
          "internalType": "address",
          "name": "bidToken",
          "type": "address"
        },
        {
          "internalType": "uint256",
          "name": "startTime",
          "type": "uint256"
        },
        {
          "internalType": "uint256",
          "name": "duration",
          "type": "uint256"
        },
        {
          "internalType": "uint256",
          "name": "extensionDuration",
          "type": "uint256"
        },
        {
          "internalType": "uint256",
          "name": "endTime",
          "type": "uint256"
        },
        {
          "internalType": "address",
          "name": "bidder",
          "type": "address"
        },
        {
          "internalType": "uint256",
          "name": "bidAmount",
          "type": "uint256"
        }
      ],
      "stateMutability": "view",
      "type": "function"
    },
    {
      "inputs": [
        {
          "internalType": "address",
          "name": "contractAddress",
          "type": "address"
        },
        {
          "internalType": "address",
          "name": "bidTokenAddress",
          "type": "address"
        }
      ],
      "name": "setContractBidToken",
      "outputs": [],
      "stateMutability": "nonpayable",
      "type": "function"
    },
    {
      "inputs": [
        {
          "internalType": "uint256",
          "name": "marketFeeBps",
          "type": "uint256"
        }
      ],
      "name": "setMarketFeeConfig",
      "outputs": [],
      "stateMutability": "nonpayable",
      "type": "function"
    },
    {
      "inputs": [
        {
          "internalType": "uint256",
          "name": "maxRoyaltyBps",
          "type": "uint256"
        }
      ],
      "name": "setMarketRoyaltyConfig",
      "outputs": [],
      "stateMutability": "nonpayable",
      "type": "function"
    },
    {
      "inputs": [
        {
          "internalType": "bytes4",
          "name": "interfaceId",
          "type": "bytes4"
        }
      ],
      "name": "supportsInterface",
      "outputs": [
        {
          "internalType": "bool",
          "name": "",
          "type": "bool"
        }
      ],
      "stateMutability": "view",
      "type": "function"
    },
    {
      "inputs": [
        {
          "internalType": "uint256",
          "name": "nexBidPercentBps",
          "type": "uint256"
        }
      ],
      "name": "updateAuctionConfig",
      "outputs": [],
      "stateMutability": "nonpayable",
      "type": "function"
    }
  ],
  "bytecode": "0x608060405234801561001057600080fd5b506154f5806100206000396000f3fe608060405234801561001057600080fd5b506004361061025e5760003560e01c8063a04341da11610146578063d3b7f2f3116100c3578063e2d5a2ff11610087578063e2d5a2ff146105c0578063e808386314610652578063eecabdf014610665578063ef706adf14610678578063f64682511461068b578063fb022cf1146106a057600080fd5b8063d3b7f2f31461051e578063d53e60f014610533578063d547741f1461053c578063d6bfef831461054f578063e1e549c41461056257600080fd5b8063ca15c8731161010a578063ca15c873146104c9578063cc5c87e5146104dc578063cd1e587e146104ef578063cf9640b4146104f8578063d181e9841461050b57600080fd5b8063a04341da14610473578063a0c5539714610488578063a217fddf1461049b578063b6051e51146104a3578063c815729d146104b657600080fd5b80635b75b2d4116101df578063856e50b5116101a3578063856e50b5146103e75780639010d07c146103fa57806391d148541461040d57806393ba4ebc146104205780639914b00d1461044d5780639c22c24f1461046057600080fd5b80635b75b2d4146103695780637587b4df1461039357806375b238fc146103a657806376840be5146103bb5780638503ae3d146103ce57600080fd5b80632be7bb12116102265780632be7bb12146102f75780632f2ff15d1461030a57806332ee5f371461031d57806336568abe146103305780633b19e84a1461034357600080fd5b806301ffc9a71461026357806306cd5ce31461028b5780631637c6d6146102a05780631c3ee107146102b3578063248a9ca3146102c6575b600080fd5b61027661027136600461475e565b6106b3565b60405190151581526020015b60405180910390f35b61029e61029936600461479d565b6106de565b005b61029e6102ae366004614836565b610785565b61029e6102c13660046148d5565b610b18565b6102e96102d43660046148d5565b60009081526065602052604090206001015490565b604051908152602001610282565b61029e6103053660046148ee565b610bb7565b61029e61031836600461490b565b610bf8565b61029e61032b3660046149b0565b610c22565b61029e61033e36600461490b565b610c3f565b6110a0546001600160a01b03165b6040516001600160a01b039091168152602001610282565b6103516103773660046148ee565b6104e4602052600090815260409020546001600160a01b031681565b61029e6103a1366004614a54565b610cb9565b6102e96000805160206154a083398151915281565b6102e96103c93660046148d5565b610fc3565b6118715460408051918252610384602083015201610282565b61029e6103f5366004614836565b611002565b610351610408366004614a54565b61137f565b61027661041b36600461490b565b611397565b61035161042e3660046148ee565b6001600160a01b0390811660009081526104e460205260409020541690565b61029e61045b3660046149b0565b6113c2565b61029e61046e3660046148d5565b6113d8565b61047b611447565b6040516102829190614ab1565b61029e610496366004614a54565b611459565b6102e9600081565b61029e6104b13660046148d5565b61191f565b61029e6104c43660046148d5565b6119f4565b6102e96104d73660046148d5565b611df4565b61029e6104ea366004614ac4565b611e0b565b610cb7546102e9565b61029e610506366004614af2565b611ea1565b61029e610519366004614b31565b611f73565b610526612020565b6040516102829190614bd0565b6108cd546102e9565b61029e61054a36600461490b565b61229c565b61029e61055d366004614d03565b6122c1565b6105a1610570366004614d47565b6108ce602090815260009283526040808420909152908252902080546001909101546001600160a01b039091169082565b604080516001600160a01b039093168352602083019190915201610282565b61063b6105ce3660046148d5565b611c5a60205260009081526040902080546001820154600483015460058401546006850154600786015460088701546009880154600a9098015460ff808916996001600160a01b03610100909a048a169989811699600160a01b900490921697821696959493929116908b565b6040516102829b9a99989796959493929190614d73565b61029e6106603660046148d5565b61235c565b61029e610673366004614d03565b61273f565b61029e6106863660046148d5565b6127da565b6102e960008051602061548083398151915281565b61029e6106ae366004614b31565b612b66565b60006001600160e01b03198216635a05180f60e01b14806106d857506106d882612c02565b92915050565b60408051600180825281830190925260009160208083019080368337019050509050848160008151811061071457610714614de9565b602090810291909101015260408051600180825281830190925260009181602001602082028036833701905050905060018160008151811061075857610758614de9565b60200260200101818152505061077c61077788600085858a8a8a612c37565b612dff565b50505050505050565b61078d613021565b6000805160206154a08339815191526107a58161307a565b60008251116107cf5760405162461bcd60e51b81526004016107c690614dff565b60405180910390fd5b6000838152611c5a602052604080822081516101a081019092528054829060ff16600281111561080157610801614b96565b600281111561081257610812614b96565b8152815461010090046001600160a01b0390811660208301526001808401549182166040840152606090920191600160a01b90910460ff169081111561085a5761085a614b96565b600181111561086b5761086b614b96565b8152602001600282018054806020026020016040519081016040528092919081815260200182805480156108be57602002820191906000526020600020905b8154815260200190600101908083116108aa575b505050505081526020016003820180548060200260200160405190810160405280929190818152602001828054801561091657602002820191906000526020600020905b815481526020019060010190808311610902575b505050918352505060048201546001600160a01b039081166020830152600583015460408301526006830154606083015260078301546080830152600883015460a083015260098301541660c0820152600a9091015460e0909101526101408101519091506109d55760405162461bcd60e51b815260206004820152602560248201527f4d61726b6574436f72655570677261646561626c653a2053616c65206e6f7420604482015264199bdd5b9960da1b60648201526084016107c6565b6000848152611c5a6020526040812080546001600160a81b03199081168255600182018054909116905590610a0d6002830182614662565b610a1b600383016000614662565b506004810180546001600160a01b0319908116909155600060058301819055600683018190556007830181905560088301819055600983018054909216909155600a90910155610a6d611c5b85613084565b50610a908160600151826040015130846020015185608001518660a00151613090565b6101608101516001600160a01b031615610ad057610ad08161016001518261018001518360c001516001600160a01b03166131e99092919063ffffffff16565b837feea67889aa1eb47570ae236516cf0e18f0627d822a512e46bb29b1a683d09f1b84604051610b009190614e80565b60405180910390a25050610b14600160c955565b5050565b6000805160206154a0833981519152610b308161307a565b6103e8821115610b825760405162461bcd60e51b815260206004820181905260248201527f4d61726b65744665655570677261646561626c653a2046656573203e2031302560448201526064016107c6565b610cb782905560405182907fede2b09e4b278d43f8971eea6839449d0206783e3b63d0cca05249a5ffcb818a90600090a25050565b600080516020615480833981519152610bcf8161307a565b506001600160a01b031660009081526104e46020526040902080546001600160a01b0319169055565b600082815260656020526040902060010154610c138161307a565b610c1d8383613253565b505050565b61077c610c3860008960018a8a8a8a8a8a613275565b600061344b565b6001600160a01b0381163314610caf5760405162461bcd60e51b815260206004820152602f60248201527f416363657373436f6e74726f6c3a2063616e206f6e6c792072656e6f756e636560448201526e103937b632b9903337b91039b2b63360891b60648201526084016107c6565b610b148282613685565b610cc1613021565b6000828152611c5a6020526040812090815460ff166002811115610ce757610ce7614b96565b14610d3f5760405162461bcd60e51b815260206004820152602260248201527f4d61726b6574436f72655570677261646561626c653a204e6f7420417563746960448201526137b760f11b60648201526084016107c6565b42816008015411610d625760405162461bcd60e51b81526004016107c690614eb3565b4281600501541115610d865760405162461bcd60e51b81526004016107c690614ef6565b6009810154336001600160a01b0390911603610e025760405162461bcd60e51b815260206004820152603560248201527f4d61726b6574436f72655570677261646561626c653a20596f7520616c726561604482015274323c9030b9329031bab93932b73a103134b23232b960591b60648201526084016107c6565b8054336101009091046001600160a01b031603610e615760405162461bcd60e51b815260206004820152601f60248201527f4d61726b6574436f72655570677261646561626c653a2053656c66206269640060448201526064016107c6565b60098101546001600160a01b0316610e9c578181600a01541115610e975760405162461bcd60e51b81526004016107c690614f3d565b610ecf565b6000610eab82600a01546136a7565b905080831015610ecd5760405162461bcd60e51b81526004016107c690614f3d565b505b600a81018054600983018054928590556001600160a01b03198316331790556007830154600884015491926001600160a01b031691610f0f904290614f9c565b1015610f2a576007830154610f249042614faf565b60088401555b60048301546001600160a01b0316610f44813330886136ec565b6001600160a01b03821615610f6757610f676001600160a01b03821683856131e9565b857f51db8e23b3f4479b162fd48823b8402895442b8f6cfd94f66239391881ec7b6f336008870154604080516001600160a01b039093168352602083018a905282015260600160405180910390a250505050610b14600160c955565b6000818152611c5a6020526040812060098101546001600160a01b0316610fee57600a015492915050565b610ffb81600a01546136a7565b9392505050565b61100a613021565b600081511161102b5760405162461bcd60e51b81526004016107c690614dff565b6000828152611c5a602052604080822081516101a081019092528054829060ff16600281111561105d5761105d614b96565b600281111561106e5761106e614b96565b8152815461010090046001600160a01b0390811660208301526001808401549182166040840152606090920191600160a01b90910460ff16908111156110b6576110b6614b96565b60018111156110c7576110c7614b96565b81526020016002820180548060200260200160405190810160405280929190818152602001828054801561111a57602002820191906000526020600020905b815481526020019060010190808311611106575b505050505081526020016003820180548060200260200160405190810160405280929190818152602001828054801561117257602002820191906000526020600020905b81548152602001906001019080831161115e575b505050918352505060048201546001600160a01b039081166020830152600583015460408301526006830154606083015260078301546080830152600883015460a083015260098301541660c0820152600a9091015460e0909101529050336001600160a01b031681602001516001600160a01b0316146112415760405162461bcd60e51b8152602060048201526024808201527f4d61726b6574436f72655570677261646561626c653a204e6f7420796f75722060448201526373616c6560e01b60648201526084016107c6565b6000838152611c5a6020526040812080546001600160a81b031990811682556001820180549091169055906112796002830182614662565b611287600383016000614662565b506004810180546001600160a01b0319908116909155600060058301819055600683018190556007830181905560088301819055600983018054909216909155600a909101556112d9611c5b84613084565b506112fc8160600151826040015130846020015185608001518660a00151613090565b6101608101516001600160a01b03161561133c5761133c8161016001518261018001518360c001516001600160a01b03166131e99092919063ffffffff16565b827feea67889aa1eb47570ae236516cf0e18f0627d822a512e46bb29b1a683d09f1b8360405161136c9190614e80565b60405180910390a250610b14600160c955565b6000828152609760205260408120610ffb908361372a565b60009182526065602090815260408084206001600160a01b0393909316845291905290205460ff1690565b61077c610c3860018960018a8a8a8a8a8a613275565b6000805160206154a08339815191526113f08161307a565b6103e88211156114125760405162461bcd60e51b81526004016107c690614fc2565b6108cd82905560405182907f2cf3d675459856d173aaf2146ecd8bc02c7ba98578986f2629e37c0dbda7af0b90600090a25050565b6060611454611c5b613736565b905090565b611461613021565b6000828152611c5a602052604080822081516101a081019092528054829060ff16600281111561149357611493614b96565b60028111156114a4576114a4614b96565b8152815461010090046001600160a01b0390811660208301526001808401549182166040840152606090920191600160a01b90910460ff16908111156114ec576114ec614b96565b60018111156114fd576114fd614b96565b81526020016002820180548060200260200160405190810160405280929190818152602001828054801561155057602002820191906000526020600020905b81548152602001906001019080831161153c575b50505050508152602001600382018054806020026020016040519081016040528092919081815260200182805480156115a857602002820191906000526020600020905b815481526020019060010190808311611594575b505050918352505060048201546001600160a01b039081166020830152600583015460408301526006830154606083015260078301546080830152600883015460a083015260098301541660c0820152600a9091015460e090910152905060018151600281111561161b5761161b614b96565b146116775760405162461bcd60e51b815260206004820152602660248201527f4d61726b6574436f72655570677261646561626c653a204e6f742046697865646044820152652d707269636560d01b60648201526084016107c6565b42816101400151101561169c5760405162461bcd60e51b81526004016107c690614eb3565b428160e0015111156116c05760405162461bcd60e51b81526004016107c690614ef6565b81816101800151146117245760405162461bcd60e51b815260206004820152602760248201527f4d61726b6574436f72655570677261646561626c653a2057726f6e672062757960448201526608185b5bdd5b9d60ca1b60648201526084016107c6565b336001600160a01b031681602001516001600160a01b0316036117895760405162461bcd60e51b815260206004820152601f60248201527f4d61726b6574436f72655570677261646561626c653a2053656c66206275790060448201526064016107c6565b6000838152611c5a6020526040812080546001600160a81b031990811682556001820180549091169055906117c16002830182614662565b6117cf600383016000614662565b506004810180546001600160a01b0319908116909155600060058301819055600683018190556007830181905560088301819055600983018054909216909155600a90910155611821611c5b84613084565b5061018081015160c08201513391611846916001600160a01b031690839030906136ec565b61186482606001518360400151308486608001518760a00151613090565b60008060006118a58560400151866080015160008151811061188857611888614de9565b60200260200101518760c001518860200151896101800151613743565b925092509250836001600160a01b031685602001516001600160a01b0316887f84c291c877f36c4dec491685a451cdc7ef25d8dc76807e6e27748c597e99eb6c868686604051611908939291909283526020830191909152604082015260600190565b60405180910390a45050505050610b14600160c955565b6000805160206154a08339815191526119378161307a565b6127108211156119af5760405162461bcd60e51b815260206004820152603e60248201527f41756374696f6e436f72655570677261646561626c653a204d696e20696e637260448201527f656d656e74206d757374206265203e3d302520616e64203c3d2031303025000060648201526084016107c6565b6118718290556040805183815261038460208201527f5d745888111b086d3b149ed0af253bbd5bf61ae2399cbb5e95ace2c1f50a743491015b60405180910390a15050565b6119fc613021565b6000818152611c5a602052604080822081516101a081019092528054829060ff166002811115611a2e57611a2e614b96565b6002811115611a3f57611a3f614b96565b8152815461010090046001600160a01b0390811660208301526001808401549182166040840152606090920191600160a01b90910460ff1690811115611a8757611a87614b96565b6001811115611a9857611a98614b96565b815260200160028201805480602002602001604051908101604052809291908181526020018280548015611aeb57602002820191906000526020600020905b815481526020019060010190808311611ad7575b5050505050815260200160038201805480602002602001604051908101604052809291908181526020018280548015611b4357602002820191906000526020600020905b815481526020019060010190808311611b2f575b505050918352505060048201546001600160a01b039081166020830152600583015460408301526006830154606083015260078301546080830152600883015460a083015260098301541660c0820152600a9091015460e0909101529050600281516002811115611bb657611bb6614b96565b14611c0d5760405162461bcd60e51b815260206004820152602160248201527f4d61726b6574436f72655570677261646561626c653a204e6f74206f666665726044820152601760f91b60648201526084016107c6565b428161014001511115611c6e5760405162461bcd60e51b8152602060048201526024808201527f4d61726b6574436f72655570677261646561626c653a204f666665722069732060448201526337bb32b960e11b60648201526084016107c6565b6000828152611c5a6020526040812080546001600160a81b03199081168255600182018054909116905590611ca66002830182614662565b611cb4600383016000614662565b506004810180546001600160a01b0319908116909155600060058301819055600683018190556007830181905560088301819055600983018054909216909155600a90910155611d06611c5b83613084565b50611d3081606001518260400151611d1b3390565b84610160015185608001518660a00151613090565b6000806000611d7384604001518560800151600081518110611d5457611d54614de9565b60200260200101518660c00151611d683390565b886101800151613743565b9250925092508361016001516001600160a01b031684602001516001600160a01b0316867f7c0fede85ef76479a8dac8062ea64c0ca72c1a862849b88ef93d223dcccc3cbe868686604051611ddb939291909283526020830191909152604082015260600190565b60405180910390a450505050611df1600160c955565b50565b60008181526097602052604081206106d8906137e8565b600080516020615480833981519152611e238161307a565b6001600160a01b0383163b611e4a5760405162461bcd60e51b81526004016107c690615009565b6001600160a01b0382163b611e715760405162461bcd60e51b81526004016107c690615009565b506001600160a01b0391821660009081526104e46020526040902080546001600160a01b03191691909216179055565b600054610100900460ff1615808015611ec15750600054600160ff909116105b80611edb5750303b158015611edb575060005460ff166001145b611ef75760405162461bcd60e51b81526004016107c69061504f565b6000805460ff191660011790558015611f1a576000805461ff0019166101001790555b611f26858585856137f2565b8015611f6c576000805461ff0019169055604051600181527f7f26b83ff96e1f2b6a682f133852f6798a09c465da95921460cefb38474024989060200160405180910390a15b5050505050565b604080516001808252818301909252600091602080830190803683370190505090508681600081518110611fa957611fa9614de9565b6020908102919091010152604080516001808252818301909252600091816020016020820280368337019050509050600181600081518110611fed57611fed614de9565b60200260200101818152505061201561200f60008b600086868d8d8d8d613275565b8461344b565b505050505050505050565b6060600061202f611c5b613736565b90506000815167ffffffffffffffff81111561204d5761204d6147ef565b60405190808252806020026020018201604052801561208657816020015b612073614680565b81526020019060019003908161206b5790505b50905060005b825181101561229557611c5a60008483815181106120ac576120ac614de9565b60200260200101518152602001908152602001600020604051806101a00160405290816000820160009054906101000a900460ff1660028111156120f2576120f2614b96565b600281111561210357612103614b96565b8152815461010090046001600160a01b0390811660208301526001808401549182166040840152606090920191600160a01b90910460ff169081111561214b5761214b614b96565b600181111561215c5761215c614b96565b8152602001600282018054806020026020016040519081016040528092919081815260200182805480156121af57602002820191906000526020600020905b81548152602001906001019080831161219b575b505050505081526020016003820180548060200260200160405190810160405280929190818152602001828054801561220757602002820191906000526020600020905b8154815260200190600101908083116121f3575b505050918352505060048201546001600160a01b039081166020830152600583015460408301526006830154606083015260078301546080830152600883015460a083015260098301541660c0820152600a9091015460e090910152825183908390811061227757612277614de9565b6020026020010181905250808061228d9061509d565b91505061208c565b5092915050565b6000828152606560205260409020600101546122b78161307a565b610c1d8383613685565b6040805160018082528183019092526000916020808301908036833701905050905086816000815181106122f7576122f7614de9565b6020908102919091010152604080516001808252818301909252600091816020016020820280368337019050509050868160008151811061233a5761233a614de9565b602002602001018181525050612015610c3860018b600186868c8c8c8c613275565b612364613021565b6000818152611c5a602052604080822081516101a081019092528054829060ff16600281111561239657612396614b96565b60028111156123a7576123a7614b96565b8152815461010090046001600160a01b0390811660208301526001808401549182166040840152606090920191600160a01b90910460ff16908111156123ef576123ef614b96565b600181111561240057612400614b96565b81526020016002820180548060200260200160405190810160405280929190818152602001828054801561245357602002820191906000526020600020905b81548152602001906001019080831161243f575b50505050508152602001600382018054806020026020016040519081016040528092919081815260200182805480156124ab57602002820191906000526020600020905b815481526020019060010190808311612497575b505050918352505060048201546001600160a01b039081166020830152600583015460408301526006830154606083015260078301546080830152600883015460a083015260098301541660c0820152600a9091015460e09091015261014081015190915061256d5760405162461bcd60e51b815260206004820152602860248201527f4d61726b6574436f72655570677261646561626c653a2041756374696f6e206e6044820152671bdd08199bdd5b9960c21b60648201526084016107c6565b42816101400151106125da5760405162461bcd60e51b815260206004820152603060248201527f4d61726b6574436f72655570677261646561626c653a2041756374696f6e207360448201526f74696c6c20696e2070726f677265737360801b60648201526084016107c6565b6000828152611c5a6020526040812080546001600160a81b031990811682556001820180549091169055906126126002830182614662565b612620600383016000614662565b506004810180546001600160a01b0319908116909155600060058301819055600683018190556007830181905560088301819055600983018054909216909155600a90910155612672611c5b83613084565b50612696816060015182604001513084610160015185608001518660a00151613090565b60008060006126d7846040015185608001516000815181106126ba576126ba614de9565b60200260200101518660c001518760200151886101800151613743565b9250925092508361016001516001600160a01b031684602001516001600160a01b0316867f09d19bc6c9a71e6ce2f33285073bb069912c80a714bf42bcaddc9247716ffb48868686604051611ddb939291909283526020830191909152604082015260600190565b60408051600180825281830190925260009160208083019080368337019050509050868160008151811061277557612775614de9565b602090810291909101015260408051600180825281830190925260009181602001602082028036833701905050905086816000815181106127b8576127b8614de9565b602002602001018181525050612015610c3860008b600186868c8c8c8c613275565b6127e2613021565b6000818152611c5a602052604080822081516101a081019092528054829060ff16600281111561281457612814614b96565b600281111561282557612825614b96565b8152815461010090046001600160a01b0390811660208301526001808401549182166040840152606090920191600160a01b90910460ff169081111561286d5761286d614b96565b600181111561287e5761287e614b96565b8152602001600282018054806020026020016040519081016040528092919081815260200182805480156128d157602002820191906000526020600020905b8154815260200190600101908083116128bd575b505050505081526020016003820180548060200260200160405190810160405280929190818152602001828054801561292957602002820191906000526020600020905b815481526020019060010190808311612915575b505050918352505060048201546001600160a01b039081166020830152600583015460408301526006830154606083015260078301546080830152600883015460a083015260098301541660c0820152600a9091015460e090910152905060028151600281111561299c5761299c614b96565b146129e95760405162461bcd60e51b815260206004820181905260248201527f4d61726b6574436f72655570677261646561626c653a204e6f74206f6666657260448201526064016107c6565b6101608101516001600160a01b03163314612a545760405162461bcd60e51b815260206004820152602560248201527f4d61726b6574436f72655570677261646561626c653a204e6f7420796f75722060448201526437b33332b960d91b60648201526084016107c6565b6000828152611c5a6020526040812080546001600160a81b03199081168255600182018054909116905590612a8c6002830182614662565b612a9a600383016000614662565b506004810180546001600160a01b0319908116909155600060058301819055600683018190556007830181905560088301819055600983018054909216909155600a90910155612aec611c5b83613084565b50612b198161016001518261018001518360c001516001600160a01b03166131e99092919063ffffffff16565b817feea67889aa1eb47570ae236516cf0e18f0627d822a512e46bb29b1a683d09f1b604051612b5390602080825260009082015260400190565b60405180910390a250611df1600160c955565b604080516001808252818301909252600091602080830190803683370190505090508681600081518110612b9c57612b9c614de9565b6020908102919091010152604080516001808252818301909252600091816020016020820280368337019050509050600181600081518110612be057612be0614de9565b60200260200101818152505061201561200f60018b600086868d8d8d8d613275565b60006001600160e01b03198216637965db0b60e01b14806106d857506301ffc9a760e01b6001600160e01b03198316146106d8565b612c3f614680565b6000865111612c605760405162461bcd60e51b81526004016107c6906150b6565b8451865114612c815760405162461bcd60e51b81526004016107c690615104565b6001600160a01b0380891660009081526104e46020526040902054811690851614612cbe5760405162461bcd60e51b81526004016107c690615155565b612cc9856001613880565b612ce55760405162461bcd60e51b81526004016107c69061519d565b60008311612d055760405162461bcd60e51b81526004016107c6906151e1565b612d0f88876138d2565b612d655760405162461bcd60e51b815260206004820152602160248201527f4d61726b6574436f72655570677261646561626c653a2053656c66206f6666656044820152603960f91b60648201526084016107c6565b604080516101a0810190915242908060028152600060208201526001600160a01b038b166040820152606001896001811115612da357612da3614b96565b8152602001888152602001878152602001866001600160a01b0316815260200182815260200185815260200161038481526020018583612de39190614faf565b8152336020820152604001939093525090979650505050505050565b6000612e0961397d565b6000818152611c5a60205260409020835181549293508492829060ff19166001836002811115612e3b57612e3b614b96565b0217905550602082015181546001600160a01b0391821661010002610100600160a81b0319909116178255604083015160018084018054929093166001600160a01b0319831681178455606086015193926001600160a81b0319161790600160a01b908490811115612eaf57612eaf614b96565b021790555060808201518051612ecf9160028401916020909101906146fe565b5060a08201518051612eeb9160038401916020909101906146fe565b5060c0828101516004830180546001600160a01b039283166001600160a01b03199182161790915560e0850151600585015561010085015160068501556101208501516007850155610140850151600885015561016085015160098501805491909316911617905561018090920151600a90910155820151612f86612f6d3390565b6101808501516001600160a01b038416919030906136ec565b82604001516001600160a01b03168361016001516001600160a01b0316837f0c93cebaa7f8b20ed02ebb54d9a7ffcaa31b566f866a0b2e783e599b7bae24af600287608001518860a001518960c001518a60e001518b61010001516103848d61010001518e60e00151612ff99190614faf565b8e610180015160405161301499989796959493929190615228565b60405180910390a4505050565b600260c954036130735760405162461bcd60e51b815260206004820152601f60248201527f5265656e7472616e637947756172643a207265656e7472616e742063616c6c0060448201526064016107c6565b600260c955565b611df1813361399e565b6000610ffb83836139f7565b60018660018111156130a4576130a4614b96565b0361311257604051631759616b60e11b81526001600160a01b03861690632eb2c2d6906130db90879087908790879060040161529b565b600060405180830381600087803b1580156130f557600080fd5b505af1158015613109573d6000803e3d6000fd5b505050506131e1565b600086600181111561312657613126614b96565b036131e1578460005b83518110156131de57816001600160a01b03166323b872dd878787858151811061315b5761315b614de9565b60209081029190910101516040516001600160e01b031960e086901b1681526001600160a01b0393841660048201529290911660248301526044820152606401600060405180830381600087803b1580156131b557600080fd5b505af11580156131c9573d6000803e3d6000fd5b50505050806131d79061509d565b905061312f565b50505b505050505050565b6040516001600160a01b038316602482015260448101829052610c1d90849063a9059cbb60e01b906064015b60408051601f198184030181529190526020810180516001600160e01b03166001600160e01b031990931692909217909152613aea565b600160c955565b61325d8282613bbc565b6000828152609760205260409020610c1d9082613c42565b61327d614680565b600087511161329e5760405162461bcd60e51b81526004016107c6906150b6565b85518751146132bf5760405162461bcd60e51b81526004016107c690615104565b6001600160a01b03808a1660009081526104e460205260409020548116908616146132fc5760405162461bcd60e51b81526004016107c690615155565b613307866001613880565b6133235760405162461bcd60e51b81526004016107c69061519d565b428410156133845760405162461bcd60e51b815260206004820152602860248201527f4d61726b6574436f72655570677261646561626c653a20496e76616c696420736044820152676174727454696d6560c01b60648201526084016107c6565b600083116133a45760405162461bcd60e51b81526004016107c6906151e1565b604051806101a001604052808b60028111156133c2576133c2614b96565b81523360208201526001600160a01b038b1660408201526060018960018111156133ee576133ee614b96565b8152602001888152602001878152602001866001600160a01b031681526020018581526020018481526020016103848152602001848661342e9190614faf565b815260006020820152604001929092525098975050505050505050565b801561347f5761347f338360400151846080015160008151811061347157613471614de9565b602002602001015184613c57565b600061348961397d565b6000818152611c5a60205260409020845181549293508592829060ff191660018360028111156134bb576134bb614b96565b0217905550602082015181546001600160a01b0391821661010002610100600160a81b0319909116178255604083015160018084018054929093166001600160a01b0319831681178455606086015193926001600160a81b0319161790600160a01b90849081111561352f5761352f614b96565b02179055506080820151805161354f9160028401916020909101906146fe565b5060a0820151805161356b9160038401916020909101906146fe565b5060c08201516004820180546001600160a01b039283166001600160a01b03199182161790915560e0840151600584015561010084015160068401556101208401516007840155610140840151600884015561016084015160098401805491909316911617905561018090910151600a909101556135eb611c5b82613daa565b50613610836060015184604001516136003390565b3087608001518860a00151613090565b82604001516001600160a01b031683602001516001600160a01b0316827f0c93cebaa7f8b20ed02ebb54d9a7ffcaa31b566f866a0b2e783e599b7bae24af866000015187608001518860a001518960c001518a60e001518b61010001516103848d61010001518e60e00151612ff99190614faf565b61368f8282613db6565b6000828152609760205260409020610c1d9082613e1d565b6000806127106136c36118715485613e3290919063ffffffff16565b6136cd91906152f6565b9050806000036136e257610ffb836001613e3e565b610ffb8382613e3e565b6040516001600160a01b03808516602483015283166044820152606481018290526137249085906323b872dd60e01b90608401613215565b50505050565b6000610ffb8383613e4a565b60606000610ffb83613e74565b60008060008061375285613ed0565b90506000806137628b8b89613ef4565b9092509050600061377d826137778a87613f7c565b90613f7c565b905089821561379a5761379a6001600160a01b03821685856131e9565b6137c16137b06110a0546001600160a01b031690565b6001600160a01b03831690876131e9565b6137d56001600160a01b0382168b846131e9565b50909b929a509850909650505050505050565b60006106d8825490565b600054610100900460ff166138195760405162461bcd60e51b81526004016107c690615318565b613821613f88565b613829613fb1565b613831613fe0565b61383c84848461400f565b61384581614051565b613850600033613253565b6138686000805160206154a083398151915233613253565b61372460008051602061548083398151915233613253565b6000805b83518110156138c857828482815181106138a0576138a0614de9565b602002602001015110156138b85760009150506106d8565b6138c18161509d565b9050613884565b5060019392505050565b6000826001600160a01b0316636352211e836000815181106138f6576138f6614de9565b60200260200101516040518263ffffffff1660e01b815260040161391c91815260200190565b602060405180830381865afa158015613939573d6000803e3d6000fd5b505050506040513d601f19601f8201168201806040525081019061395d9190615363565b6001600160a01b03163303613974575060006106d8565b50600192915050565b60008061398960fb5490565b905061399960fb80546001019055565b919050565b6139a88282611397565b610b14576139b581614086565b6139c0836020614098565b6040516020016139d1929190615380565b60408051601f198184030181529082905262461bcd60e51b82526107c691600401614e80565b60008181526001830160205260408120548015613ae0576000613a1b600183614f9c565b8554909150600090613a2f90600190614f9c565b9050818114613a94576000866000018281548110613a4f57613a4f614de9565b9060005260206000200154905080876000018481548110613a7257613a72614de9565b6000918252602080832090910192909255918252600188019052604090208390555b8554869080613aa557613aa56153f5565b6001900381819060005260206000200160009055905585600101600086815260200190815260200160002060009055600193505050506106d8565b60009150506106d8565b6000613b3f826040518060400160405280602081526020017f5361666545524332303a206c6f772d6c6576656c2063616c6c206661696c6564815250856001600160a01b03166142349092919063ffffffff16565b805190915015610c1d5780806020019051810190613b5d919061540b565b610c1d5760405162461bcd60e51b815260206004820152602a60248201527f5361666545524332303a204552433230206f7065726174696f6e20646964206e6044820152691bdd081cdd58d8d9595960b21b60648201526084016107c6565b613bc68282611397565b610b145760008281526065602090815260408083206001600160a01b03851684529091529020805460ff19166001179055613bfe3390565b6001600160a01b0316816001600160a01b0316837f2f8788117e7eff1d82e926ec794901d17c78024a50270940304540a733656f0d60405160405180910390a45050565b6000610ffb836001600160a01b03841661424b565b6001600160a01b0383811660009081526108ce602090815260408083208684529091529020541615613ce15760405162461bcd60e51b815260206004820152602d60248201527f4d61726b6574526f79616c74795570677261646561626c653a20526f79616c7460448201526c1e48185b1c9958591e481cd95d609a1b60648201526084016107c6565b600081118015613cf457506108cd548111155b613d525760405162461bcd60e51b815260206004820152602960248201527f4d61726b6574526f79616c74795570677261646561626c653a20496e76616c696044820152686420726f79616c747960b81b60648201526084016107c6565b6040805180820182526001600160a01b039586168152602080820193845294861660009081526108ce865282812094815293909452909120915182546001600160a01b03191693169290921781559051600190910155565b6000610ffb838361424b565b613dc08282611397565b15610b145760008281526065602090815260408083206001600160a01b0385168085529252808320805460ff1916905551339285917ff6391f5c32d9c69d2a47ea670b442974b53935d1edc7fd64eb21e047a839171b9190a45050565b6000610ffb836001600160a01b0384166139f7565b6000610ffb828461542d565b6000610ffb8284614faf565b6000826000018281548110613e6157613e61614de9565b9060005260206000200154905092915050565b606081600001805480602002602001604051908101604052809291908181526020018280548015613ec457602002820191906000526020600020905b815481526020019060010190808311613eb0575b50505050509050919050565b60006106d8612710613eee610cb75485613e3290919063ffffffff16565b9061429a565b6001600160a01b0380841660009081526108ce60209081526040808320868452825280832081518083019092528054909416808252600190940154918101919091529091829190613f4c576000809250925050613f74565b6000613f6b612710613eee846020015188613e3290919063ffffffff16565b91519350909150505b935093915050565b6000610ffb8284614f9c565b600054610100900460ff16613faf5760405162461bcd60e51b81526004016107c690615318565b565b600054610100900460ff16613fd85760405162461bcd60e51b81526004016107c690615318565b613faf6142a6565b600054610100900460ff166140075760405162461bcd60e51b81526004016107c690615318565b613faf613f88565b600054610100900460ff166140365760405162461bcd60e51b81526004016107c690615318565b61403f836142cd565b61404882614324565b610c1d816143ab565b600054610100900460ff166140785760405162461bcd60e51b81526004016107c690615318565b614080613f88565b61187155565b60606106d86001600160a01b03831660145b606060006140a783600261542d565b6140b2906002614faf565b67ffffffffffffffff8111156140ca576140ca6147ef565b6040519080825280601f01601f1916602001820160405280156140f4576020820181803683370190505b509050600360fc1b8160008151811061410f5761410f614de9565b60200101906001600160f81b031916908160001a905350600f60fb1b8160018151811061413e5761413e614de9565b60200101906001600160f81b031916908160001a905350600061416284600261542d565b61416d906001614faf565b90505b60018111156141e5576f181899199a1a9b1b9c1cb0b131b232b360811b85600f16601081106141a1576141a1614de9565b1a60f81b8282815181106141b7576141b7614de9565b60200101906001600160f81b031916908160001a90535060049490941c936141de8161544c565b9050614170565b508315610ffb5760405162461bcd60e51b815260206004820181905260248201527f537472696e67733a20686578206c656e67746820696e73756666696369656e7460448201526064016107c6565b606061424384846000856144e9565b949350505050565b6000818152600183016020526040812054614292575081546001818101845560008481526020808220909301849055845484825282860190935260409020919091556106d8565b5060006106d8565b6000610ffb82846152f6565b600054610100900460ff1661324c5760405162461bcd60e51b81526004016107c690615318565b600054610100900460ff166142f45760405162461bcd60e51b81526004016107c690615318565b6103e88111156143165760405162461bcd60e51b81526004016107c690614fc2565b6108cd819055611df1613f88565b600054610100900460ff1661434b5760405162461bcd60e51b81526004016107c690615318565b6103e881111561439d5760405162461bcd60e51b815260206004820181905260248201527f4d61726b65744665655570677261646561626c653a2046656573203e2031302560448201526064016107c6565b610cb7819055611df1613f88565b600054610100900460ff16158080156143cb5750600054600160ff909116105b806143e55750303b1580156143e5575060005460ff166001145b6144015760405162461bcd60e51b81526004016107c69061504f565b6000805460ff191660011790558015614424576000805461ff0019166101001790555b6001600160a01b0382163b61448b5760405162461bcd60e51b815260206004820152602760248201527f54726561737572794e6f64653a2041646472657373206973206e6f74206120636044820152661bdb9d1c9858dd60ca1b60648201526084016107c6565b6110a080546001600160a01b0319166001600160a01b0384161790558015610b14576000805461ff0019169055604051600181527f7f26b83ff96e1f2b6a682f133852f6798a09c465da95921460cefb3847402498906020016119e8565b60608247101561454a5760405162461bcd60e51b815260206004820152602660248201527f416464726573733a20696e73756666696369656e742062616c616e636520666f6044820152651c8818d85b1b60d21b60648201526084016107c6565b600080866001600160a01b031685876040516145669190615463565b60006040518083038185875af1925050503d80600081146145a3576040519150601f19603f3d011682016040523d82523d6000602084013e6145a8565b606091505b50915091506145b9878383876145c4565b979650505050505050565b6060831561463357825160000361462c576001600160a01b0385163b61462c5760405162461bcd60e51b815260206004820152601d60248201527f416464726573733a2063616c6c20746f206e6f6e2d636f6e747261637400000060448201526064016107c6565b5081614243565b61424383838151156146485781518083602001fd5b8060405162461bcd60e51b81526004016107c69190614e80565b5080546000825590600052602060002090810190611df19190614749565b604080516101a081019091528060008152600060208201819052604082018190526060909101908152602001606081526020016060815260200160006001600160a01b031681526020016000815260200160008152602001600081526020016000815260200160006001600160a01b03168152602001600081525090565b828054828255906000526020600020908101928215614739579160200282015b8281111561473957825182559160200191906001019061471e565b50614745929150614749565b5090565b5b80821115614745576000815560010161474a565b60006020828403121561477057600080fd5b81356001600160e01b031981168114610ffb57600080fd5b6001600160a01b0381168114611df157600080fd5b600080600080600060a086880312156147b557600080fd5b85356147c081614788565b94506020860135935060408601356147d781614788565b94979396509394606081013594506080013592915050565b634e487b7160e01b600052604160045260246000fd5b604051601f8201601f1916810167ffffffffffffffff8111828210171561482e5761482e6147ef565b604052919050565b6000806040838503121561484957600080fd5b8235915060208084013567ffffffffffffffff8082111561486957600080fd5b818601915086601f83011261487d57600080fd5b81358181111561488f5761488f6147ef565b6148a1601f8201601f19168501614805565b915080825287848285010111156148b757600080fd5b80848401858401376000848284010152508093505050509250929050565b6000602082840312156148e757600080fd5b5035919050565b60006020828403121561490057600080fd5b8135610ffb81614788565b6000806040838503121561491e57600080fd5b82359150602083013561493081614788565b809150509250929050565b600082601f83011261494c57600080fd5b8135602067ffffffffffffffff821115614968576149686147ef565b8160051b614977828201614805565b928352848101820192828101908785111561499157600080fd5b83870192505b848310156145b957823582529183019190830190614997565b600080600080600080600060e0888a0312156149cb57600080fd5b87356149d681614788565b9650602088013567ffffffffffffffff808211156149f357600080fd5b6149ff8b838c0161493b565b975060408a0135915080821115614a1557600080fd5b50614a228a828b0161493b565b9550506060880135614a3381614788565b9699959850939660808101359560a0820135955060c0909101359350915050565b60008060408385031215614a6757600080fd5b50508035926020909101359150565b600081518084526020808501945080840160005b83811015614aa657815187529582019590820190600101614a8a565b509495945050505050565b602081526000610ffb6020830184614a76565b60008060408385031215614ad757600080fd5b8235614ae281614788565b9150602083013561493081614788565b60008060008060808587031215614b0857600080fd5b84359350602085013592506040850135614b2181614788565b9396929550929360600135925050565b600080600080600080600060e0888a031215614b4c57600080fd5b8735614b5781614788565b9650602088013595506040880135614b6e81614788565b969995985095966060810135965060808101359560a0820135955060c0909101359350915050565b634e487b7160e01b600052602160045260246000fd5b60038110614bbc57614bbc614b96565b9052565b60028110614bbc57614bbc614b96565b60006020808301818452808551808352604092508286019150828160051b87010184880160005b83811015614cf557603f1989840301855281516101a0614c18858351614bac565b888201516001600160a01b03908116868b0152888301511688860152606080830151614c4682880182614bc0565b50506080808301518282880152614c5f83880182614a76565b9250505060a08083015186830382880152614c7a8382614a76565b9250505060c080830151614c98828801826001600160a01b03169052565b505060e08281015190860152610100808301519086015261012080830151908601526101408083015190860152610160808301516001600160a01b0316908601526101809182015191909401529386019390860190600101614bf7565b509098975050505050505050565b600080600080600080600060e0888a031215614d1e57600080fd5b8735614d2981614788565b965060208801359550604088013594506060880135614a3381614788565b60008060408385031215614d5a57600080fd5b8235614d6581614788565b946020939093013593505050565b6101608101614d82828e614bac565b6001600160a01b038c811660208401528b81166040840152614da7606084018c614bc0565b808a1660808401528860a08401528760c08401528660e08401528561010084015280851661012084015250826101408301529c9b505050505050505050505050565b634e487b7160e01b600052603260045260246000fd5b6020808252603d908201527f4d61726b6574436f72655570677261646561626c653a20496e636c756465206160408201527f20726561736f6e20666f7220746869732063616e63656c6c6174696f6e000000606082015260800190565b60005b83811015614e77578181015183820152602001614e5f565b50506000910152565b6020815260008251806020840152614e9f816040850160208701614e5c565b601f01601f19169190910160400192915050565b60208082526023908201527f4d61726b6574436f72655570677261646561626c653a2053616c65206973206f6040820152623b32b960e91b606082015260800190565b60208082526027908201527f4d61726b6574436f72655570677261646561626c653a2053616c65206e6f74206040820152661cdd185c9d195960ca1b606082015260800190565b60208082526029908201527f4d61726b6574436f72655570677261646561626c653a2042696420616d6f756e6040820152687420746f6f206c6f7760b81b606082015260800190565b634e487b7160e01b600052601160045260246000fd5b818103818111156106d8576106d8614f86565b808201808211156106d8576106d8614f86565b60208082526027908201527f4d61726b6574526f79616c74795570677261646561626c653a20526f79616c7460408201526679203e2031302560c81b606082015260800190565b60208082526026908201527f41756374696f6e436f72655570677261646561626c653a204e6f74206120636f6040820152651b9d1c9858dd60d21b606082015260800190565b6020808252602e908201527f496e697469616c697a61626c653a20636f6e747261637420697320616c72656160408201526d191e481a5b9a5d1a585b1a5e995960921b606082015260800190565b6000600182016150af576150af614f86565b5060010190565b6020808252602e908201527f4d61726b6574436f72655570677261646561626c653a20496e76616c6964207460408201526d0ded6cadc92c8e640d8cadccee8d60931b606082015260800190565b60208082526031908201527f4d61726b6574436f72655570677261646561626c653a20546f6b656e496473206040820152700d8cadccee8d040c8dedce840dac2e8c6d607b1b606082015260800190565b60208082526028908201527f4d61726b6574436f72655570677261646561626c653a20496e76616c6964206260408201526734b2103a37b5b2b760c11b606082015260800190565b60208082526024908201527f4d61726b6574436f72655570677261646561626c653a20496e76616c69642076604082015263616c756560e01b606082015260800190565b60208082526027908201527f4d61726b6574436f72655570677261646561626c653a20496e76616c696420646040820152663ab930ba34b7b760c91b606082015260800190565b6000610120615237838d614bac565b8060208401526152498184018c614a76565b9050828103604084015261525d818b614a76565b6001600160a01b039990991660608401525050608081019590955260a085019390935260c084019190915260e0830152610100909101529392505050565b6001600160a01b0385811682528416602082015260a0604082018190526000906152c790830185614a76565b82810360608401526152d98185614a76565b838103608090940193909352505060008152602001949350505050565b60008261531357634e487b7160e01b600052601260045260246000fd5b500490565b6020808252602b908201527f496e697469616c697a61626c653a20636f6e7472616374206973206e6f74206960408201526a6e697469616c697a696e6760a81b606082015260800190565b60006020828403121561537557600080fd5b8151610ffb81614788565b7f416363657373436f6e74726f6c3a206163636f756e74200000000000000000008152600083516153b8816017850160208801614e5c565b7001034b99036b4b9b9b4b733903937b6329607d1b60179184019182015283516153e9816028840160208801614e5c565b01602801949350505050565b634e487b7160e01b600052603160045260246000fd5b60006020828403121561541d57600080fd5b81518015158114610ffb57600080fd5b600081600019048311821515161561544757615447614f86565b500290565b60008161545b5761545b614f86565b506000190190565b60008251615475818460208701614e5c565b919091019291505056fe0393b4c1b6519e8b53ae0efa1ab522060a3b9f8d86d09c8a22ca6d6eea735cf7a49807205ce4d355092ef5a8a18f56e8913cf4a201fbe287825b095693c21775a2646970667358221220baa44fd1225d1616dbf69adbf05cdd36f5a6505c300669d52d86946ea49eaed864736f6c63430008100033",
  "linkReferences": {},
  "deployedLinkReferences": {}
}