{
  "_format": "hh-sol-artifact-1",
  "contractName": "MarketUpgradeable",
  "sourceName": "contracts/marketplace/MarketUpgradeable.sol",
  "abi": [
    {
      "anonymous": false,
      "inputs": [
        {
          "indexed": false,
          "internalType": "uint256",
          "name": "nexBidPercentInBasisPoint",
          "type": "uint256"
        },
        {
          "indexed": false,
          "internalType": "uint256",
          "name": "extensionDuration",
          "type": "uint256"
        }
      ],
      "name": "AuctionConfigUpdated",
      "type": "event"
    },
    {
      "anonymous": false,
      "inputs": [
        {
          "indexed": true,
          "internalType": "uint256",
          "name": "saleId",
          "type": "uint256"
        },
        {
          "indexed": true,
          "internalType": "address",
          "name": "seller",
          "type": "address"
        },
        {
          "indexed": true,
          "internalType": "address",
          "name": "bidder",
          "type": "address"
        },
        {
          "indexed": false,
          "internalType": "uint256",
          "name": "royalty",
          "type": "uint256"
        },
        {
          "indexed": false,
          "internalType": "uint256",
          "name": "marketFee",
          "type": "uint256"
        },
        {
          "indexed": false,
          "internalType": "uint256",
          "name": "ownerRev",
          "type": "uint256"
        }
      ],
      "name": "AuctionFinalized",
      "type": "event"
    },
    {
      "anonymous": false,
      "inputs": [
        {
          "indexed": true,
          "internalType": "uint256",
          "name": "saleId",
          "type": "uint256"
        },
        {
          "indexed": false,
          "internalType": "address",
          "name": "bidder",
          "type": "address"
        },
        {
          "indexed": false,
          "internalType": "uint256",
          "name": "bidAbount",
          "type": "uint256"
        },
        {
          "indexed": false,
          "internalType": "uint256",
          "name": "endTime",
          "type": "uint256"
        }
      ],
      "name": "BidPlaced",
      "type": "event"
    },
    {
      "anonymous": false,
      "inputs": [
        {
          "indexed": true,
          "internalType": "address",
          "name": "contractAddress",
          "type": "address"
        },
        {
          "indexed": true,
          "internalType": "address",
          "name": "bidToken",
          "type": "address"
        }
      ],
      "name": "ContractBidTokenUpdated",
      "type": "event"
    },
    {
      "anonymous": false,
      "inputs": [
        {
          "indexed": true,
          "internalType": "uint256",
          "name": "saleId",
          "type": "uint256"
        },
        {
          "indexed": true,
          "internalType": "address",
          "name": "seller",
          "type": "address"
        },
        {
          "indexed": true,
          "internalType": "address",
          "name": "buyer",
          "type": "address"
        },
        {
          "indexed": false,
          "internalType": "uint256",
          "name": "royalty",
          "type": "uint256"
        },
        {
          "indexed": false,
          "internalType": "uint256",
          "name": "marketFee",
          "type": "uint256"
        },
        {
          "indexed": false,
          "internalType": "uint256",
          "name": "ownerRev",
          "type": "uint256"
        }
      ],
      "name": "FixedPriceFinalized",
      "type": "event"
    },
    {
      "anonymous": false,
      "inputs": [
        {
          "indexed": false,
          "internalType": "uint8",
          "name": "version",
          "type": "uint8"
        }
      ],
      "name": "Initialized",
      "type": "event"
    },
    {
      "anonymous": false,
      "inputs": [
        {
          "indexed": true,
          "internalType": "uint256",
          "name": "marketFeeBps",
          "type": "uint256"
        }
      ],
      "name": "MarketFeesUpdated",
      "type": "event"
    },
    {
      "anonymous": false,
      "inputs": [
        {
          "indexed": true,
          "internalType": "uint256",
          "name": "maxRoyaltiyBps",
          "type": "uint256"
        }
      ],
      "name": "MarketRoyaltyUpdated",
      "type": "event"
    },
    {
      "anonymous": false,
      "inputs": [
        {
          "indexed": true,
          "internalType": "uint256",
          "name": "saleId",
          "type": "uint256"
        },
        {
          "indexed": true,
          "internalType": "address",
          "name": "seller",
          "type": "address"
        },
        {
          "indexed": true,
          "internalType": "address",
          "name": "buyer",
          "type": "address"
        },
        {
          "indexed": false,
          "internalType": "uint256",
          "name": "royalty",
          "type": "uint256"
        },
        {
          "indexed": false,
          "internalType": "uint256",
          "name": "marketFee",
          "type": "uint256"
        },
        {
          "indexed": false,
          "internalType": "uint256",
          "name": "ownerRev",
          "type": "uint256"
        }
      ],
      "name": "OfferFinalized",
      "type": "event"
    },
    {
      "anonymous": false,
      "inputs": [
        {
          "indexed": true,
          "internalType": "bytes32",
          "name": "role",
          "type": "bytes32"
        },
        {
          "indexed": true,
          "internalType": "bytes32",
          "name": "previousAdminRole",
          "type": "bytes32"
        },
        {
          "indexed": true,
          "internalType": "bytes32",
          "name": "newAdminRole",
          "type": "bytes32"
        }
      ],
      "name": "RoleAdminChanged",
      "type": "event"
    },
    {
      "anonymous": false,
      "inputs": [
        {
          "indexed": true,
          "internalType": "bytes32",
          "name": "role",
          "type": "bytes32"
        },
        {
          "indexed": true,
          "internalType": "address",
          "name": "account",
          "type": "address"
        },
        {
          "indexed": true,
          "internalType": "address",
          "name": "sender",
          "type": "address"
        }
      ],
      "name": "RoleGranted",
      "type": "event"
    },
    {
      "anonymous": false,
      "inputs": [
        {
          "indexed": true,
          "internalType": "bytes32",
          "name": "role",
          "type": "bytes32"
        },
        {
          "indexed": true,
          "internalType": "address",
          "name": "account",
          "type": "address"
        },
        {
          "indexed": true,
          "internalType": "address",
          "name": "sender",
          "type": "address"
        }
      ],
      "name": "RoleRevoked",
      "type": "event"
    },
    {
      "anonymous": false,
      "inputs": [
        {
          "indexed": true,
          "internalType": "uint256",
          "name": "saleId",
          "type": "uint256"
        },
        {
          "indexed": false,
          "internalType": "string",
          "name": "reason",
          "type": "string"
        }
      ],
      "name": "SaleCanceled",
      "type": "event"
    },
    {
      "anonymous": false,
      "inputs": [
        {
          "indexed": true,
          "internalType": "uint256",
          "name": "saleId",
          "type": "uint256"
        },
        {
          "indexed": false,
          "internalType": "enum MarketCoreUpgradeable.SaleType",
          "name": "saleType",
          "type": "uint8"
        },
        {
          "indexed": true,
          "internalType": "address",
          "name": "seller",
          "type": "address"
        },
        {
          "indexed": true,
          "internalType": "address",
          "name": "contractAddress",
          "type": "address"
        },
        {
          "indexed": false,
          "internalType": "uint256[]",
          "name": "tokenIds",
          "type": "uint256[]"
        },
        {
          "indexed": false,
          "internalType": "uint256[]",
          "name": "values",
          "type": "uint256[]"
        },
        {
          "indexed": false,
          "internalType": "address",
          "name": "bidToken",
          "type": "address"
        },
        {
          "indexed": false,
          "internalType": "uint256",
          "name": "startTime",
          "type": "uint256"
        },
        {
          "indexed": false,
          "internalType": "uint256",
          "name": "duration",
          "type": "uint256"
        },
        {
          "indexed": false,
          "internalType": "uint256",
          "name": "extensionDuration",
          "type": "uint256"
        },
        {
          "indexed": false,
          "internalType": "uint256",
          "name": "endTime",
          "type": "uint256"
        },
        {
          "indexed": false,
          "internalType": "uint256",
          "name": "minPrice",
          "type": "uint256"
        }
      ],
      "name": "SaleCreated",
      "type": "event"
    },
    {
      "inputs": [],
      "name": "ADMIN_ROLE",
      "outputs": [
        {
          "internalType": "bytes32",
          "name": "",
          "type": "bytes32"
        }
      ],
      "stateMutability": "view",
      "type": "function"
    },
    {
      "inputs": [],
      "name": "AUTHORIZED_ROLE",
      "outputs": [
        {
          "internalType": "bytes32",
          "name": "",
          "type": "bytes32"
        }
      ],
      "stateMutability": "view",
      "type": "function"
    },
    {
      "inputs": [],
      "name": "DEFAULT_ADMIN_ROLE",
      "outputs": [
        {
          "internalType": "bytes32",
          "name": "",
          "type": "bytes32"
        }
      ],
      "stateMutability": "view",
      "type": "function"
    },
    {
      "inputs": [
        {
          "internalType": "uint256",
          "name": "saleId",
          "type": "uint256"
        }
      ],
      "name": "acceptOffer",
      "outputs": [],
      "stateMutability": "nonpayable",
      "type": "function"
    },
    {
      "inputs": [],
      "name": "activeSaleIds",
      "outputs": [
        {
          "internalType": "uint256[]",
          "name": "",
          "type": "uint256[]"
        }
      ],
      "stateMutability": "view",
      "type": "function"
    },
    {
      "inputs": [],
      "name": "activeSales",
      "outputs": [
        {
          "components": [
            {
              "internalType": "enum MarketCoreUpgradeable.SaleType",
              "name": "saleType",
              "type": "uint8"
            },
            {
              "internalType": "address",
              "name": "seller",
              "type": "address"
            },
            {
              "internalType": "address",
              "name": "contractAddress",
              "type": "address"
            },
            {
              "internalType": "enum MarketCoreUpgradeable.TokenType",
              "name": "tokenType",
              "type": "uint8"
            },
            {
              "internalType": "uint256[]",
              "name": "tokenIds",
              "type": "uint256[]"
            },
            {
              "internalType": "uint256[]",
              "name": "values",
              "type": "uint256[]"
            },
            {
              "internalType": "address",
              "name": "bidToken",
              "type": "address"
            },
            {
              "internalType": "uint256",
              "name": "startTime",
              "type": "uint256"
            },
            {
              "internalType": "uint256",
              "name": "duration",
              "type": "uint256"
            },
            {
              "internalType": "uint256",
              "name": "extensionDuration",
              "type": "uint256"
            },
            {
              "internalType": "uint256",
              "name": "endTime",
              "type": "uint256"
            },
            {
              "internalType": "address",
              "name": "bidder",
              "type": "address"
            },
            {
              "internalType": "uint256",
              "name": "bidAmount",
              "type": "uint256"
            }
          ],
          "internalType": "struct MarketCoreUpgradeable.Sale[]",
          "name": "",
          "type": "tuple[]"
        }
      ],
      "stateMutability": "view",
      "type": "function"
    },
    {
      "inputs": [
        {
          "internalType": "uint256",
          "name": "saleId",
          "type": "uint256"
        },
        {
          "internalType": "uint256",
          "name": "bidAmount",
          "type": "uint256"
        }
      ],
      "name": "bidAuction",
      "outputs": [],
      "stateMutability": "nonpayable",
      "type": "function"
    },
    {
      "inputs": [
        {
          "internalType": "uint256",
          "name": "saleId",
          "type": "uint256"
        },
        {
          "internalType": "uint256",
          "name": "buyAmount",
          "type": "uint256"
        }
      ],
      "name": "buyFixedPrice",
      "outputs": [],
      "stateMutability": "nonpayable",
      "type": "function"
    },
    {
      "inputs": [
        {
          "internalType": "uint256",
          "name": "saleId",
          "type": "uint256"
        }
      ],
      "name": "cancelOffer",
      "outputs": [],
      "stateMutability": "nonpayable",
      "type": "function"
    },
    {
      "inputs": [
        {
          "internalType": "uint256",
          "name": "saleId",
          "type": "uint256"
        },
        {
          "internalType": "string",
          "name": "reason",
          "type": "string"
        }
      ],
      "name": "cancelSale",
      "outputs": [],
      "stateMutability": "nonpayable",
      "type": "function"
    },
    {
      "inputs": [
        {
          "internalType": "uint256",
          "name": "saleId",
          "type": "uint256"
        },
        {
          "internalType": "string",
          "name": "reason",
          "type": "string"
        }
      ],
      "name": "cancelSaleByAdmin",
      "outputs": [],
      "stateMutability": "nonpayable",
      "type": "function"
    },
    {
      "inputs": [
        {
          "internalType": "address",
          "name": "",
          "type": "address"
        }
      ],
      "name": "contractAddressToBidToken",
      "outputs": [
        {
          "internalType": "address",
          "name": "",
          "type": "address"
        }
      ],
      "stateMutability": "view",
      "type": "function"
    },
    {
      "inputs": [
        {
          "internalType": "address",
          "name": "contractAddress",
          "type": "address"
        },
        {
          "internalType": "uint256",
          "name": "tokenId",
          "type": "uint256"
        },
        {
          "internalType": "uint256",
          "name": "value",
          "type": "uint256"
        },
        {
          "internalType": "address",
          "name": "bidToken",
          "type": "address"
        },
        {
          "internalType": "uint256",
          "name": "startTime",
          "type": "uint256"
        },
        {
          "internalType": "uint256",
          "name": "duration",
          "type": "uint256"
        },
        {
          "internalType": "uint256",
          "name": "minPrice",
          "type": "uint256"
        }
      ],
      "name": "createERC1155Auction",
      "outputs": [],
      "stateMutability": "nonpayable",
      "type": "function"
    },
    {
      "inputs": [
        {
          "internalType": "address",
          "name": "contractAddress",
          "type": "address"
        },
        {
          "internalType": "uint256[]",
          "name": "tokenIds",
          "type": "uint256[]"
        },
        {
          "internalType": "uint256[]",
          "name": "values",
          "type": "uint256[]"
        },
        {
          "internalType": "address",
          "name": "bidToken",
          "type": "address"
        },
        {
          "internalType": "uint256",
          "name": "startTime",
          "type": "uint256"
        },
        {
          "internalType": "uint256",
          "name": "duration",
          "type": "uint256"
        },
        {
          "internalType": "uint256",
          "name": "minPrice",
          "type": "uint256"
        }
      ],
      "name": "createERC1155BundleAuction",
      "outputs": [],
      "stateMutability": "nonpayable",
      "type": "function"
    },
    {
      "inputs": [
        {
          "internalType": "address",
          "name": "contractAddress",
          "type": "address"
        },
        {
          "internalType": "uint256[]",
          "name": "tokenIds",
          "type": "uint256[]"
        },
        {
          "internalType": "uint256[]",
          "name": "values",
          "type": "uint256[]"
        },
        {
          "internalType": "address",
          "name": "bidToken",
          "type": "address"
        },
        {
          "internalType": "uint256",
          "name": "startTime",
          "type": "uint256"
        },
        {
          "internalType": "uint256",
          "name": "duration",
          "type": "uint256"
        },
        {
          "internalType": "uint256",
          "name": "minPrice",
          "type": "uint256"
        }
      ],
      "name": "createERC1155BundleFixedPrice",
      "outputs": [],
      "stateMutability": "nonpayable",
      "type": "function"
    },
    {
      "inputs": [
        {
          "internalType": "address",
          "name": "contractAddress",
          "type": "address"
        },
        {
          "internalType": "uint256",
          "name": "tokenId",
          "type": "uint256"
        },
        {
          "internalType": "uint256",
          "name": "value",
          "type": "uint256"
        },
        {
          "internalType": "address",
          "name": "bidToken",
          "type": "address"
        },
        {
          "internalType": "uint256",
          "name": "startTime",
          "type": "uint256"
        },
        {
          "internalType": "uint256",
          "name": "duration",
          "type": "uint256"
        },
        {
          "internalType": "uint256",
          "name": "minPrice",
          "type": "uint256"
        }
      ],
      "name": "createERC1155FixedPrice",
      "outputs": [],
      "stateMutability": "nonpayable",
      "type": "function"
    },
    {
      "inputs": [
        {
          "internalType": "address",
          "name": "contractAddress",
          "type": "address"
        },
        {
          "internalType": "uint256",
          "name": "tokenId",
          "type": "uint256"
        },
        {
          "internalType": "address",
          "name": "bidToken",
          "type": "address"
        },
        {
          "internalType": "uint256",
          "name": "startTime",
          "type": "uint256"
        },
        {
          "internalType": "uint256",
          "name": "duration",
          "type": "uint256"
        },
        {
          "internalType": "uint256",
          "name": "minPrice",
          "type": "uint256"
        },
        {
          "internalType": "uint256",
          "name": "royaltyBps",
          "type": "uint256"
        }
      ],
      "name": "createERC721Auction",
      "outputs": [],
      "stateMutability": "nonpayable",
      "type": "function"
    },
    {
      "inputs": [
        {
          "internalType": "address",
          "name": "contractAddress",
          "type": "address"
        },
        {
          "internalType": "uint256",
          "name": "tokenId",
          "type": "uint256"
        },
        {
          "internalType": "address",
          "name": "bidToken",
          "type": "address"
        },
        {
          "internalType": "uint256",
          "name": "startTime",
          "type": "uint256"
        },
        {
          "internalType": "uint256",
          "name": "duration",
          "type": "uint256"
        },
        {
          "internalType": "uint256",
          "name": "minPrice",
          "type": "uint256"
        },
        {
          "internalType": "uint256",
          "name": "royaltyBps",
          "type": "uint256"
        }
      ],
      "name": "createERC721FixedPrice",
      "outputs": [],
      "stateMutability": "nonpayable",
      "type": "function"
    },
    {
      "inputs": [
        {
          "internalType": "address",
          "name": "contractAddress",
          "type": "address"
        },
        {
          "internalType": "uint256",
          "name": "tokenId",
          "type": "uint256"
        },
        {
          "internalType": "address",
          "name": "bidToken",
          "type": "address"
        },
        {
          "internalType": "uint256",
          "name": "duration",
          "type": "uint256"
        },
        {
          "internalType": "uint256",
          "name": "minPrice",
          "type": "uint256"
        }
      ],
      "name": "createERC721Offer",
      "outputs": [],
      "stateMutability": "nonpayable",
      "type": "function"
    },
    {
      "inputs": [
        {
          "internalType": "uint256",
          "name": "saleId",
          "type": "uint256"
        }
      ],
      "name": "finalizeAuction",
      "outputs": [],
      "stateMutability": "nonpayable",
      "type": "function"
    },
    {
      "inputs": [],
      "name": "getAuctionConfig",
      "outputs": [
        {
          "internalType": "uint256",
          "name": "",
          "type": "uint256"
        },
        {
          "internalType": "uint256",
          "name": "",
          "type": "uint256"
        }
      ],
      "stateMutability": "view",
      "type": "function"
    },
    {
      "inputs": [
        {
          "internalType": "uint256",
          "name": "saleId",
          "type": "uint256"
        }
      ],
      "name": "getAuctionMinBidAmount",
      "outputs": [
        {
          "internalType": "uint256",
          "name": "",
          "type": "uint256"
        }
      ],
      "stateMutability": "view",
      "type": "function"
    },
    {
      "inputs": [
        {
          "internalType": "address",
          "name": "contractAddress",
          "type": "address"
        }
      ],
      "name": "getContractBidToken",
      "outputs": [
        {
          "internalType": "address",
          "name": "",
          "type": "address"
        }
      ],
      "stateMutability": "view",
      "type": "function"
    },
    {
      "inputs": [],
      "name": "getMarketFeeConfig",
      "outputs": [
        {
          "internalType": "uint256",
          "name": "",
          "type": "uint256"
        }
      ],
      "stateMutability": "view",
      "type": "function"
    },
    {
      "inputs": [],
      "name": "getMarketRoyaltyConfig",
      "outputs": [
        {
          "internalType": "uint256",
          "name": "",
          "type": "uint256"
        }
      ],
      "stateMutability": "view",
      "type": "function"
    },
    {
      "inputs": [
        {
          "internalType": "bytes32",
          "name": "role",
          "type": "bytes32"
        }
      ],
      "name": "getRoleAdmin",
      "outputs": [
        {
          "internalType": "bytes32",
          "name": "",
          "type": "bytes32"
        }
      ],
      "stateMutability": "view",
      "type": "function"
    },
    {
      "inputs": [
        {
          "internalType": "bytes32",
          "name": "role",
          "type": "bytes32"
        },
        {
          "internalType": "uint256",
          "name": "index",
          "type": "uint256"
        }
      ],
      "name": "getRoleMember",
      "outputs": [
        {
          "internalType": "address",
          "name": "",
          "type": "address"
        }
      ],
      "stateMutability": "view",
      "type": "function"
    },
    {
      "inputs": [
        {
          "internalType": "bytes32",
          "name": "role",
          "type": "bytes32"
        }
      ],
      "name": "getRoleMemberCount",
      "outputs": [
        {
          "internalType": "uint256",
          "name": "",
          "type": "uint256"
        }
      ],
      "stateMutability": "view",
      "type": "function"
    },
    {
      "inputs": [],
      "name": "getTreasury",
      "outputs": [
        {
          "internalType": "address",
          "name": "",
          "type": "address"
        }
      ],
      "stateMutability": "view",
      "type": "function"
    },
    {
      "inputs": [
        {
          "internalType": "bytes32",
          "name": "role",
          "type": "bytes32"
        },
        {
          "internalType": "address",
          "name": "account",
          "type": "address"
        }
      ],
      "name": "grantRole",
      "outputs": [],
      "stateMutability": "nonpayable",
      "type": "function"
    },
    {
      "inputs": [
        {
          "internalType": "bytes32",
          "name": "role",
          "type": "bytes32"
        },
        {
          "internalType": "address",
          "name": "account",
          "type": "address"
        }
      ],
      "name": "hasRole",
      "outputs": [
        {
          "internalType": "bool",
          "name": "",
          "type": "bool"
        }
      ],
      "stateMutability": "view",
      "type": "function"
    },
    {
      "inputs": [
        {
          "internalType": "uint256",
          "name": "maxRoyaltyBps",
          "type": "uint256"
        },
        {
          "internalType": "uint256",
          "name": "marketFeeBps",
          "type": "uint256"
        },
        {
          "internalType": "address",
          "name": "treasury",
          "type": "address"
        },
        {
          "internalType": "uint256",
          "name": "nexBidPercentBps",
          "type": "uint256"
        }
      ],
      "name": "initialize",
      "outputs": [],
      "stateMutability": "nonpayable",
      "type": "function"
    },
    {
      "inputs": [
        {
          "internalType": "address",
          "name": "contractAddress",
          "type": "address"
        }
      ],
      "name": "removeContractBidToken",
      "outputs": [],
      "stateMutability": "nonpayable",
      "type": "function"
    },
    {
      "inputs": [
        {
          "internalType": "bytes32",
          "name": "role",
          "type": "bytes32"
        },
        {
          "internalType": "address",
          "name": "account",
          "type": "address"
        }
      ],
      "name": "renounceRole",
      "outputs": [],
      "stateMutability": "nonpayable",
      "type": "function"
    },
    {
      "inputs": [
        {
          "internalType": "bytes32",
          "name": "role",
          "type": "bytes32"
        },
        {
          "internalType": "address",
          "name": "account",
          "type": "address"
        }
      ],
      "name": "revokeRole",
      "outputs": [],
      "stateMutability": "nonpayable",
      "type": "function"
    },
    {
      "inputs": [
        {
          "internalType": "address",
          "name": "",
          "type": "address"
        },
        {
          "internalType": "uint256",
          "name": "",
          "type": "uint256"
        }
      ],
      "name": "royalties",
      "outputs": [
        {
          "internalType": "address",
          "name": "recipient",
          "type": "address"
        },
        {
          "internalType": "uint256",
          "name": "amount",
          "type": "uint256"
        }
      ],
      "stateMutability": "view",
      "type": "function"
    },
    {
      "inputs": [
        {
          "internalType": "uint256",
          "name": "",
          "type": "uint256"
        }
      ],
      "name": "saleIdToSale",
      "outputs": [
        {
          "internalType": "enum MarketCoreUpgradeable.SaleType",
          "name": "saleType",
          "type": "uint8"
        },
        {
          "internalType": "address",
          "name": "seller",
          "type": "address"
        },
        {
          "internalType": "address",
          "name": "contractAddress",
          "type": "address"
        },
        {
          "internalType": "enum MarketCoreUpgradeable.TokenType",
          "name": "tokenType",
          "type": "uint8"
        },
        {
          "internalType": "address",
          "name": "bidToken",
          "type": "address"
        },
        {
          "internalType": "uint256",
          "name": "startTime",
          "type": "uint256"
        },
        {
          "internalType": "uint256",
          "name": "duration",
          "type": "uint256"
        },
        {
          "internalType": "uint256",
          "name": "extensionDuration",
          "type": "uint256"
        },
        {
          "internalType": "uint256",
          "name": "endTime",
          "type": "uint256"
        },
        {
          "internalType": "address",
          "name": "bidder",
          "type": "address"
        },
        {
          "internalType": "uint256",
          "name": "bidAmount",
          "type": "uint256"
        }
      ],
      "stateMutability": "view",
      "type": "function"
    },
    {
      "inputs": [
        {
          "internalType": "address",
          "name": "contractAddress",
          "type": "address"
        },
        {
          "internalType": "address",
          "name": "bidTokenAddress",
          "type": "address"
        }
      ],
      "name": "setContractBidToken",
      "outputs": [],
      "stateMutability": "nonpayable",
      "type": "function"
    },
    {
      "inputs": [
        {
          "internalType": "uint256",
          "name": "marketFeeBps",
          "type": "uint256"
        }
      ],
      "name": "setMarketFeeConfig",
      "outputs": [],
      "stateMutability": "nonpayable",
      "type": "function"
    },
    {
      "inputs": [
        {
          "internalType": "uint256",
          "name": "maxRoyaltyBps",
          "type": "uint256"
        }
      ],
      "name": "setMarketRoyaltyConfig",
      "outputs": [],
      "stateMutability": "nonpayable",
      "type": "function"
    },
    {
      "inputs": [
        {
          "internalType": "bytes4",
          "name": "interfaceId",
          "type": "bytes4"
        }
      ],
      "name": "supportsInterface",
      "outputs": [
        {
          "internalType": "bool",
          "name": "",
          "type": "bool"
        }
      ],
      "stateMutability": "view",
      "type": "function"
    },
    {
      "inputs": [
        {
          "internalType": "uint256",
          "name": "nexBidPercentBps",
          "type": "uint256"
        }
      ],
      "name": "updateAuctionConfig",
      "outputs": [],
      "stateMutability": "nonpayable",
      "type": "function"
    }
  ],
  "bytecode": "0x608060405234801561001057600080fd5b506155d180620000216000396000f3fe608060405234801561001057600080fd5b506004361061025e5760003560e01c8063a04341da11610146578063d3b7f2f3116100c3578063e2d5a2ff11610087578063e2d5a2ff146105c0578063e808386314610652578063eecabdf014610665578063ef706adf14610678578063f64682511461068b578063fb022cf1146106a057600080fd5b8063d3b7f2f31461051e578063d53e60f014610533578063d547741f1461053c578063d6bfef831461054f578063e1e549c41461056257600080fd5b8063ca15c8731161010a578063ca15c873146104c9578063cc5c87e5146104dc578063cd1e587e146104ef578063cf9640b4146104f8578063d181e9841461050b57600080fd5b8063a04341da14610473578063a0c5539714610488578063a217fddf1461049b578063b6051e51146104a3578063c815729d146104b657600080fd5b80635b75b2d4116101df578063856e50b5116101a3578063856e50b5146103e75780639010d07c146103fa57806391d148541461040d57806393ba4ebc146104205780639914b00d1461044d5780639c22c24f1461046057600080fd5b80635b75b2d4146103695780637587b4df1461039357806375b238fc146103a657806376840be5146103bb5780638503ae3d146103ce57600080fd5b80632be7bb12116102265780632be7bb12146102f75780632f2ff15d1461030a57806332ee5f371461031d57806336568abe146103305780633b19e84a1461034357600080fd5b806301ffc9a71461026357806306cd5ce31461028b5780631637c6d6146102a05780631c3ee107146102b3578063248a9ca3146102c6575b600080fd5b6102766102713660046147f0565b6106b3565b60405190151581526020015b60405180910390f35b61029e61029936600461482f565b6106de565b005b61029e6102ae3660046148c8565b610785565b61029e6102c1366004614967565b610b33565b6102e96102d4366004614967565b60009081526065602052604090206001015490565b604051908152602001610282565b61029e610305366004614980565b610bd2565b61029e61031836600461499d565b610c13565b61029e61032b366004614a42565b610c3d565b61029e61033e36600461499d565b610c5a565b6110a0546001600160a01b03165b6040516001600160a01b039091168152602001610282565b610351610377366004614980565b6104e4602052600090815260409020546001600160a01b031681565b61029e6103a1366004614ae6565b610cd8565b6102e960008051602061557c83398151915281565b6102e96103c9366004614967565b611001565b6118715460408051918252610384602083015201610282565b61029e6103f53660046148c8565b611040565b610351610408366004614ae6565b6113d9565b61027661041b36600461499d565b6113f1565b61035161042e366004614980565b6001600160a01b0390811660009081526104e460205260409020541690565b61029e61045b366004614a42565b61141c565b61029e61046e366004614967565b611432565b61047b6114a1565b6040516102829190614b43565b61029e610496366004614ae6565b6114b3565b6102e9600081565b61029e6104b1366004614967565b611997565b61029e6104c4366004614967565b611a6c565b6102e96104d7366004614967565b611e8e565b61029e6104ea366004614b56565b611ea5565b610cb7546102e9565b61029e610506366004614b84565b611f3b565b61029e610519366004614bc3565b61200d565b6105266120ba565b6040516102829190614c62565b6108cd546102e9565b61029e61054a36600461499d565b612336565b61029e61055d366004614d95565b61235b565b6105a1610570366004614dd9565b6108ce602090815260009283526040808420909152908252902080546001909101546001600160a01b039091169082565b604080516001600160a01b039093168352602083019190915201610282565b61063b6105ce366004614967565b611c5a60205260009081526040902080546001820154600483015460058401546006850154600786015460088701546009880154600a9098015460ff808916996001600160a01b03610100909a048a169989811699600160a01b900490921697821696959493929116908b565b6040516102829b9a99989796959493929190614e05565b61029e610660366004614967565b6123f6565b61029e610673366004614d95565b612800565b61029e610686366004614967565b61289b565b6102e960008051602061555c83398151915281565b61029e6106ae366004614bc3565b612c4c565b60006001600160e01b03198216635a05180f60e01b14806106d857506106d882612ce8565b92915050565b60408051600180825281830190925260009160208083019080368337019050509050848160008151811061071457610714614e7b565b602090810291909101015260408051600180825281830190925260009181602001602082028036833701905050905060018160008151811061075857610758614e7b565b60200260200101818152505061077c61077788600085858a8a8a612d1d565b612ee5565b50505050505050565b600260c95414156107b15760405162461bcd60e51b81526004016107a890614e91565b60405180910390fd5b600260c95560008051602061557c8339815191526107ce81613107565b60008251116107ef5760405162461bcd60e51b81526004016107a890614ec8565b6000838152611c5a602052604080822081516101a081019092528054829060ff16600281111561082157610821614c28565b600281111561083257610832614c28565b8152815461010090046001600160a01b0390811660208301526001808401549182166040840152606090920191600160a01b90910460ff169081111561087a5761087a614c28565b600181111561088b5761088b614c28565b8152602001600282018054806020026020016040519081016040528092919081815260200182805480156108de57602002820191906000526020600020905b8154815260200190600101908083116108ca575b505050505081526020016003820180548060200260200160405190810160405280929190818152602001828054801561093657602002820191906000526020600020905b815481526020019060010190808311610922575b505050918352505060048201546001600160a01b039081166020830152600583015460408301526006830154606083015260078301546080830152600883015460a083015260098301541660c0820152600a9091015460e0909101526101408101519091506109f55760405162461bcd60e51b815260206004820152602560248201527f4d61726b6574436f72655570677261646561626c653a2053616c65206e6f7420604482015264199bdd5b9960da1b60648201526084016107a8565b6000848152611c5a6020526040812080546001600160a81b03199081168255600182018054909116905590610a2d60028301826146f4565b610a3b6003830160006146f4565b506004810180546001600160a01b0319908116909155600060058301819055600683018190556007830181905560088301819055600983018054909216909155600a90910155610a8d611c5b85613114565b50610ab08160600151826040015130846020015185608001518660a00151613120565b6101608101516001600160a01b031615610af057610af08161016001518261018001518360c001516001600160a01b031661327b9092919063ffffffff16565b837feea67889aa1eb47570ae236516cf0e18f0627d822a512e46bb29b1a683d09f1b84604051610b209190614f51565b60405180910390a25050600160c9555050565b60008051602061557c833981519152610b4b81613107565b6103e8821115610b9d5760405162461bcd60e51b815260206004820181905260248201527f4d61726b65744665655570677261646561626c653a2046656573203e2031302560448201526064016107a8565b610cb782905560405182907fede2b09e4b278d43f8971eea6839449d0206783e3b63d0cca05249a5ffcb818a90600090a25050565b60008051602061555c833981519152610bea81613107565b506001600160a01b031660009081526104e46020526040902080546001600160a01b0319169055565b600082815260656020526040902060010154610c2e81613107565b610c3883836132de565b505050565b61077c610c5360008960018a8a8a8a8a8a613300565b60006134d6565b6001600160a01b0381163314610cca5760405162461bcd60e51b815260206004820152602f60248201527f416363657373436f6e74726f6c3a2063616e206f6e6c792072656e6f756e636560448201526e103937b632b9903337b91039b2b63360891b60648201526084016107a8565b610cd48282613710565b5050565b600260c9541415610cfb5760405162461bcd60e51b81526004016107a890614e91565b600260c9556000828152611c5a6020526040812090815460ff166002811115610d2657610d26614c28565b14610d7e5760405162461bcd60e51b815260206004820152602260248201527f4d61726b6574436f72655570677261646561626c653a204e6f7420417563746960448201526137b760f11b60648201526084016107a8565b42816008015411610da15760405162461bcd60e51b81526004016107a890614f84565b4281600501541115610dc55760405162461bcd60e51b81526004016107a890614fc7565b60098101546001600160a01b0316331415610e405760405162461bcd60e51b815260206004820152603560248201527f4d61726b6574436f72655570677261646561626c653a20596f7520616c726561604482015274323c9030b9329031bab93932b73a103134b23232b960591b60648201526084016107a8565b80546001600160a01b0361010090910416331415610ea05760405162461bcd60e51b815260206004820152601f60248201527f4d61726b6574436f72655570677261646561626c653a2053656c66206269640060448201526064016107a8565b60098101546001600160a01b0316610edb578181600a01541115610ed65760405162461bcd60e51b81526004016107a89061500e565b610f0e565b6000610eea82600a0154613732565b905080831015610f0c5760405162461bcd60e51b81526004016107a89061500e565b505b600a81018054600983018054928590556001600160a01b03198316331790556007830154600884015491926001600160a01b031691610f4e90429061506d565b1015610f69576007830154610f639042615084565b60088401555b60048301546001600160a01b0316610f8381333088613774565b6001600160a01b03821615610fa657610fa66001600160a01b038216838561327b565b857f51db8e23b3f4479b162fd48823b8402895442b8f6cfd94f66239391881ec7b6f336008870154604080516001600160a01b039093168352602083018a905282015260600160405180910390a25050600160c95550505050565b6000818152611c5a6020526040812060098101546001600160a01b031661102c57600a015492915050565b61103981600a0154613732565b9392505050565b600260c95414156110635760405162461bcd60e51b81526004016107a890614e91565b600260c95580516110865760405162461bcd60e51b81526004016107a890614ec8565b6000828152611c5a602052604080822081516101a081019092528054829060ff1660028111156110b8576110b8614c28565b60028111156110c9576110c9614c28565b8152815461010090046001600160a01b0390811660208301526001808401549182166040840152606090920191600160a01b90910460ff169081111561111157611111614c28565b600181111561112257611122614c28565b81526020016002820180548060200260200160405190810160405280929190818152602001828054801561117557602002820191906000526020600020905b815481526020019060010190808311611161575b50505050508152602001600382018054806020026020016040519081016040528092919081815260200182805480156111cd57602002820191906000526020600020905b8154815260200190600101908083116111b9575b505050918352505060048201546001600160a01b039081166020830152600583015460408301526006830154606083015260078301546080830152600883015460a083015260098301541660c0820152600a9091015460e0909101529050336001600160a01b031681602001516001600160a01b03161461129c5760405162461bcd60e51b8152602060048201526024808201527f4d61726b6574436f72655570677261646561626c653a204e6f7420796f75722060448201526373616c6560e01b60648201526084016107a8565b6000838152611c5a6020526040812080546001600160a81b031990811682556001820180549091169055906112d460028301826146f4565b6112e26003830160006146f4565b506004810180546001600160a01b0319908116909155600060058301819055600683018190556007830181905560088301819055600983018054909216909155600a90910155611334611c5b84613114565b506113578160600151826040015130846020015185608001518660a00151613120565b6101608101516001600160a01b031615611397576113978161016001518261018001518360c001516001600160a01b031661327b9092919063ffffffff16565b827feea67889aa1eb47570ae236516cf0e18f0627d822a512e46bb29b1a683d09f1b836040516113c79190614f51565b60405180910390a25050600160c95550565b600082815260976020526040812061103990836137b2565b60009182526065602090815260408084206001600160a01b0393909316845291905290205460ff1690565b61077c610c5360018960018a8a8a8a8a8a613300565b60008051602061557c83398151915261144a81613107565b6103e882111561146c5760405162461bcd60e51b81526004016107a89061509c565b6108cd82905560405182907f2cf3d675459856d173aaf2146ecd8bc02c7ba98578986f2629e37c0dbda7af0b90600090a25050565b60606114ae611c5b6137be565b905090565b600260c95414156114d65760405162461bcd60e51b81526004016107a890614e91565b600260c98190556000838152611c5a602052604080822081516101a081019092528054929391929091839160ff169081111561151457611514614c28565b600281111561152557611525614c28565b8152815461010090046001600160a01b0390811660208301526001808401549182166040840152606090920191600160a01b90910460ff169081111561156d5761156d614c28565b600181111561157e5761157e614c28565b8152602001600282018054806020026020016040519081016040528092919081815260200182805480156115d157602002820191906000526020600020905b8154815260200190600101908083116115bd575b505050505081526020016003820180548060200260200160405190810160405280929190818152602001828054801561162957602002820191906000526020600020905b815481526020019060010190808311611615575b505050918352505060048201546001600160a01b039081166020830152600583015460408301526006830154606083015260078301546080830152600883015460a083015260098301541660c0820152600a9091015460e090910152905060018151600281111561169c5761169c614c28565b146116f85760405162461bcd60e51b815260206004820152602660248201527f4d61726b6574436f72655570677261646561626c653a204e6f742046697865646044820152652d707269636560d01b60648201526084016107a8565b42816101400151101561171d5760405162461bcd60e51b81526004016107a890614f84565b428160e0015111156117415760405162461bcd60e51b81526004016107a890614fc7565b81816101800151146117a55760405162461bcd60e51b815260206004820152602760248201527f4d61726b6574436f72655570677261646561626c653a2057726f6e672062757960448201526608185b5bdd5b9d60ca1b60648201526084016107a8565b60208101516001600160a01b03163314156118025760405162461bcd60e51b815260206004820152601f60248201527f4d61726b6574436f72655570677261646561626c653a2053656c66206275790060448201526064016107a8565b6000838152611c5a6020526040812080546001600160a81b0319908116825560018201805490911690559061183a60028301826146f4565b6118486003830160006146f4565b506004810180546001600160a01b0319908116909155600060058301819055600683018190556007830181905560088301819055600983018054909216909155600a9091015561189a611c5b84613114565b5061018081015160c082015133916118bf916001600160a01b03169083903090613774565b6118dd82606001518360400151308486608001518760a00151613120565b600080600061191e8560400151866080015160008151811061190157611901614e7b565b60200260200101518760c0015188602001518961018001516137cb565b925092509250836001600160a01b031685602001516001600160a01b0316887f84c291c877f36c4dec491685a451cdc7ef25d8dc76807e6e27748c597e99eb6c868686604051611981939291909283526020830191909152604082015260600190565b60405180910390a45050600160c9555050505050565b60008051602061557c8339815191526119af81613107565b612710821115611a275760405162461bcd60e51b815260206004820152603e60248201527f41756374696f6e436f72655570677261646561626c653a204d696e20696e637260448201527f656d656e74206d757374206265203e3d302520616e64203c3d2031303025000060648201526084016107a8565b6118718290556040805183815261038460208201527f5d745888111b086d3b149ed0af253bbd5bf61ae2399cbb5e95ace2c1f50a743491015b60405180910390a15050565b600260c9541415611a8f5760405162461bcd60e51b81526004016107a890614e91565b600260c98190556000828152611c5a602052604080822081516101a081019092528054929391929091839160ff1690811115611acd57611acd614c28565b6002811115611ade57611ade614c28565b8152815461010090046001600160a01b0390811660208301526001808401549182166040840152606090920191600160a01b90910460ff1690811115611b2657611b26614c28565b6001811115611b3757611b37614c28565b815260200160028201805480602002602001604051908101604052809291908181526020018280548015611b8a57602002820191906000526020600020905b815481526020019060010190808311611b76575b5050505050815260200160038201805480602002602001604051908101604052809291908181526020018280548015611be257602002820191906000526020600020905b815481526020019060010190808311611bce575b505050918352505060048201546001600160a01b039081166020830152600583015460408301526006830154606083015260078301546080830152600883015460a083015260098301541660c0820152600a9091015460e0909101529050600281516002811115611c5557611c55614c28565b14611cac5760405162461bcd60e51b815260206004820152602160248201527f4d61726b6574436f72655570677261646561626c653a204e6f74206f666665726044820152601760f91b60648201526084016107a8565b428161014001511115611d0d5760405162461bcd60e51b8152602060048201526024808201527f4d61726b6574436f72655570677261646561626c653a204f666665722069732060448201526337bb32b960e11b60648201526084016107a8565b6000828152611c5a6020526040812080546001600160a81b03199081168255600182018054909116905590611d4560028301826146f4565b611d536003830160006146f4565b506004810180546001600160a01b0319908116909155600060058301819055600683018190556007830181905560088301819055600983018054909216909155600a90910155611da5611c5b83613114565b50611dcf81606001518260400151611dba3390565b84610160015185608001518660a00151613120565b6000806000611e1284604001518560800151600081518110611df357611df3614e7b565b60200260200101518660c00151611e073390565b8861018001516137cb565b9250925092508361016001516001600160a01b031684602001516001600160a01b0316867f7c0fede85ef76479a8dac8062ea64c0ca72c1a862849b88ef93d223dcccc3cbe868686604051611e7a939291909283526020830191909152604082015260600190565b60405180910390a45050600160c955505050565b60008181526097602052604081206106d890613870565b60008051602061555c833981519152611ebd81613107565b6001600160a01b0383163b611ee45760405162461bcd60e51b81526004016107a8906150e3565b6001600160a01b0382163b611f0b5760405162461bcd60e51b81526004016107a8906150e3565b506001600160a01b0391821660009081526104e46020526040902080546001600160a01b03191691909216179055565b600054610100900460ff1615808015611f5b5750600054600160ff909116105b80611f755750303b158015611f75575060005460ff166001145b611f915760405162461bcd60e51b81526004016107a890615129565b6000805460ff191660011790558015611fb4576000805461ff0019166101001790555b611fc08585858561387a565b8015612006576000805461ff0019169055604051600181527f7f26b83ff96e1f2b6a682f133852f6798a09c465da95921460cefb38474024989060200160405180910390a15b5050505050565b60408051600180825281830190925260009160208083019080368337019050509050868160008151811061204357612043614e7b565b602090810291909101015260408051600180825281830190925260009181602001602082028036833701905050905060018160008151811061208757612087614e7b565b6020026020010181815250506120af6120a960008b600086868d8d8d8d613300565b846134d6565b505050505050505050565b606060006120c9611c5b6137be565b90506000815167ffffffffffffffff8111156120e7576120e7614881565b60405190808252806020026020018201604052801561212057816020015b61210d614712565b8152602001906001900390816121055790505b50905060005b825181101561232f57611c5a600084838151811061214657612146614e7b565b60200260200101518152602001908152602001600020604051806101a00160405290816000820160009054906101000a900460ff16600281111561218c5761218c614c28565b600281111561219d5761219d614c28565b8152815461010090046001600160a01b0390811660208301526001808401549182166040840152606090920191600160a01b90910460ff16908111156121e5576121e5614c28565b60018111156121f6576121f6614c28565b81526020016002820180548060200260200160405190810160405280929190818152602001828054801561224957602002820191906000526020600020905b815481526020019060010190808311612235575b50505050508152602001600382018054806020026020016040519081016040528092919081815260200182805480156122a157602002820191906000526020600020905b81548152602001906001019080831161228d575b505050918352505060048201546001600160a01b039081166020830152600583015460408301526006830154606083015260078301546080830152600883015460a083015260098301541660c0820152600a9091015460e090910152825183908390811061231157612311614e7b565b6020026020010181905250808061232790615177565b915050612126565b5092915050565b60008281526065602052604090206001015461235181613107565b610c388383613710565b60408051600180825281830190925260009160208083019080368337019050509050868160008151811061239157612391614e7b565b602090810291909101015260408051600180825281830190925260009181602001602082028036833701905050905086816000815181106123d4576123d4614e7b565b6020026020010181815250506120af610c5360018b600186868c8c8c8c613300565b600260c95414156124195760405162461bcd60e51b81526004016107a890614e91565b600260c98190556000828152611c5a602052604080822081516101a081019092528054929391929091839160ff169081111561245757612457614c28565b600281111561246857612468614c28565b8152815461010090046001600160a01b0390811660208301526001808401549182166040840152606090920191600160a01b90910460ff16908111156124b0576124b0614c28565b60018111156124c1576124c1614c28565b81526020016002820180548060200260200160405190810160405280929190818152602001828054801561251457602002820191906000526020600020905b815481526020019060010190808311612500575b505050505081526020016003820180548060200260200160405190810160405280929190818152602001828054801561256c57602002820191906000526020600020905b815481526020019060010190808311612558575b505050918352505060048201546001600160a01b039081166020830152600583015460408301526006830154606083015260078301546080830152600883015460a083015260098301541660c0820152600a9091015460e09091015261014081015190915061262e5760405162461bcd60e51b815260206004820152602860248201527f4d61726b6574436f72655570677261646561626c653a2041756374696f6e206e6044820152671bdd08199bdd5b9960c21b60648201526084016107a8565b428161014001511061269b5760405162461bcd60e51b815260206004820152603060248201527f4d61726b6574436f72655570677261646561626c653a2041756374696f6e207360448201526f74696c6c20696e2070726f677265737360801b60648201526084016107a8565b6000828152611c5a6020526040812080546001600160a81b031990811682556001820180549091169055906126d360028301826146f4565b6126e16003830160006146f4565b506004810180546001600160a01b0319908116909155600060058301819055600683018190556007830181905560088301819055600983018054909216909155600a90910155612733611c5b83613114565b50612757816060015182604001513084610160015185608001518660a00151613120565b60008060006127988460400151856080015160008151811061277b5761277b614e7b565b60200260200101518660c0015187602001518861018001516137cb565b9250925092508361016001516001600160a01b031684602001516001600160a01b0316867f09d19bc6c9a71e6ce2f33285073bb069912c80a714bf42bcaddc9247716ffb48868686604051611e7a939291909283526020830191909152604082015260600190565b60408051600180825281830190925260009160208083019080368337019050509050868160008151811061283657612836614e7b565b6020908102919091010152604080516001808252818301909252600091816020016020820280368337019050509050868160008151811061287957612879614e7b565b6020026020010181815250506120af610c5360008b600186868c8c8c8c613300565b600260c95414156128be5760405162461bcd60e51b81526004016107a890614e91565b600260c98190556000828152611c5a602052604080822081516101a081019092528054929391929091839160ff16908111156128fc576128fc614c28565b600281111561290d5761290d614c28565b8152815461010090046001600160a01b0390811660208301526001808401549182166040840152606090920191600160a01b90910460ff169081111561295557612955614c28565b600181111561296657612966614c28565b8152602001600282018054806020026020016040519081016040528092919081815260200182805480156129b957602002820191906000526020600020905b8154815260200190600101908083116129a5575b5050505050815260200160038201805480602002602001604051908101604052809291908181526020018280548015612a1157602002820191906000526020600020905b8154815260200190600101908083116129fd575b505050918352505060048201546001600160a01b039081166020830152600583015460408301526006830154606083015260078301546080830152600883015460a083015260098301541660c0820152600a9091015460e0909101529050600281516002811115612a8457612a84614c28565b14612ad15760405162461bcd60e51b815260206004820181905260248201527f4d61726b6574436f72655570677261646561626c653a204e6f74206f6666657260448201526064016107a8565b6101608101516001600160a01b03163314612b3c5760405162461bcd60e51b815260206004820152602560248201527f4d61726b6574436f72655570677261646561626c653a204e6f7420796f75722060448201526437b33332b960d91b60648201526084016107a8565b6000828152611c5a6020526040812080546001600160a81b03199081168255600182018054909116905590612b7460028301826146f4565b612b826003830160006146f4565b506004810180546001600160a01b0319908116909155600060058301819055600683018190556007830181905560088301819055600983018054909216909155600a90910155612bd4611c5b83613114565b50612c018161016001518261018001518360c001516001600160a01b031661327b9092919063ffffffff16565b817feea67889aa1eb47570ae236516cf0e18f0627d822a512e46bb29b1a683d09f1b604051612c3b90602080825260009082015260400190565b60405180910390a25050600160c955565b604080516001808252818301909252600091602080830190803683370190505090508681600081518110612c8257612c82614e7b565b6020908102919091010152604080516001808252818301909252600091816020016020820280368337019050509050600181600081518110612cc657612cc6614e7b565b6020026020010181815250506120af6120a960018b600086868d8d8d8d613300565b60006001600160e01b03198216637965db0b60e01b14806106d857506301ffc9a760e01b6001600160e01b03198316146106d8565b612d25614712565b6000865111612d465760405162461bcd60e51b81526004016107a890615192565b8451865114612d675760405162461bcd60e51b81526004016107a8906151e0565b6001600160a01b0380891660009081526104e46020526040902054811690851614612da45760405162461bcd60e51b81526004016107a890615231565b612daf856001613908565b612dcb5760405162461bcd60e51b81526004016107a890615279565b60008311612deb5760405162461bcd60e51b81526004016107a8906152bd565b612df5888761395a565b612e4b5760405162461bcd60e51b815260206004820152602160248201527f4d61726b6574436f72655570677261646561626c653a2053656c66206f6666656044820152603960f91b60648201526084016107a8565b604080516101a0810190915242908060028152600060208201526001600160a01b038b166040820152606001896001811115612e8957612e89614c28565b8152602001888152602001878152602001866001600160a01b0316815260200182815260200185815260200161038481526020018583612ec99190615084565b8152336020820152604001939093525090979650505050505050565b6000612eef613a1e565b6000818152611c5a60205260409020835181549293508492829060ff19166001836002811115612f2157612f21614c28565b0217905550602082015181546001600160a01b0391821661010002610100600160a81b0319909116178255604083015160018084018054929093166001600160a01b0319831681178455606086015193926001600160a81b0319161790600160a01b908490811115612f9557612f95614c28565b021790555060808201518051612fb5916002840191602090910190614790565b5060a08201518051612fd1916003840191602090910190614790565b5060c0828101516004830180546001600160a01b039283166001600160a01b03199182161790915560e0850151600585015561010085015160068501556101208501516007850155610140850151600885015561016085015160098501805491909316911617905561018090920151600a9091015582015161306c6130533390565b6101808501516001600160a01b03841691903090613774565b82604001516001600160a01b03168361016001516001600160a01b0316837f0c93cebaa7f8b20ed02ebb54d9a7ffcaa31b566f866a0b2e783e599b7bae24af600287608001518860a001518960c001518a60e001518b61010001516103848d61010001518e60e001516130df9190615084565b8e61018001516040516130fa99989796959493929190615304565b60405180910390a4505050565b6131118133613a3f565b50565b60006110398383613aa3565b600186600181111561313457613134614c28565b14156131a357604051631759616b60e11b81526001600160a01b03861690632eb2c2d69061316c908790879087908790600401615377565b600060405180830381600087803b15801561318657600080fd5b505af115801561319a573d6000803e3d6000fd5b50505050613273565b60008660018111156131b7576131b7614c28565b1415613273578460005b835181101561327057816001600160a01b03166323b872dd87878785815181106131ed576131ed614e7b565b60209081029190910101516040516001600160e01b031960e086901b1681526001600160a01b0393841660048201529290911660248301526044820152606401600060405180830381600087803b15801561324757600080fd5b505af115801561325b573d6000803e3d6000fd5b505050508061326990615177565b90506131c1565b50505b505050505050565b6040516001600160a01b038316602482015260448101829052610c3890849063a9059cbb60e01b906064015b60408051601f198184030181529190526020810180516001600160e01b03166001600160e01b031990931692909217909152613b96565b6132e88282613c68565b6000828152609760205260409020610c389082613cee565b613308614712565b60008751116133295760405162461bcd60e51b81526004016107a890615192565b855187511461334a5760405162461bcd60e51b81526004016107a8906151e0565b6001600160a01b03808a1660009081526104e460205260409020548116908616146133875760405162461bcd60e51b81526004016107a890615231565b613392866001613908565b6133ae5760405162461bcd60e51b81526004016107a890615279565b4284101561340f5760405162461bcd60e51b815260206004820152602860248201527f4d61726b6574436f72655570677261646561626c653a20496e76616c696420736044820152676174727454696d6560c01b60648201526084016107a8565b6000831161342f5760405162461bcd60e51b81526004016107a8906152bd565b604051806101a001604052808b600281111561344d5761344d614c28565b81523360208201526001600160a01b038b16604082015260600189600181111561347957613479614c28565b8152602001888152602001878152602001866001600160a01b03168152602001858152602001848152602001610384815260200184866134b99190615084565b815260006020820152604001929092525098975050505050505050565b801561350a5761350a33836040015184608001516000815181106134fc576134fc614e7b565b602002602001015184613d03565b6000613514613a1e565b6000818152611c5a60205260409020845181549293508592829060ff1916600183600281111561354657613546614c28565b0217905550602082015181546001600160a01b0391821661010002610100600160a81b0319909116178255604083015160018084018054929093166001600160a01b0319831681178455606086015193926001600160a81b0319161790600160a01b9084908111156135ba576135ba614c28565b0217905550608082015180516135da916002840191602090910190614790565b5060a082015180516135f6916003840191602090910190614790565b5060c08201516004820180546001600160a01b039283166001600160a01b03199182161790915560e0840151600584015561010084015160068401556101208401516007840155610140840151600884015561016084015160098401805491909316911617905561018090910151600a90910155613676611c5b82613e56565b5061369b8360600151846040015161368b3390565b3087608001518860a00151613120565b82604001516001600160a01b031683602001516001600160a01b0316827f0c93cebaa7f8b20ed02ebb54d9a7ffcaa31b566f866a0b2e783e599b7bae24af866000015187608001518860a001518960c001518a60e001518b61010001516103848d61010001518e60e001516130df9190615084565b61371a8282613e62565b6000828152609760205260409020610c389082613ec9565b60008061271061374e6118715485613ede90919063ffffffff16565b61375891906153d2565b90508061376a57611039836001613eea565b6110398382613eea565b6040516001600160a01b03808516602483015283166044820152606481018290526137ac9085906323b872dd60e01b906084016132a7565b50505050565b60006110398383613ef6565b6060600061103983613f20565b6000806000806137da85613f7c565b90506000806137ea8b8b89613fa0565b90925090506000613805826137ff8a87614028565b90614028565b9050898215613822576138226001600160a01b038216858561327b565b6138496138386110a0546001600160a01b031690565b6001600160a01b038316908761327b565b61385d6001600160a01b0382168b8461327b565b50909b929a509850909650505050505050565b60006106d8825490565b600054610100900460ff166138a15760405162461bcd60e51b81526004016107a8906153f4565b6138a9614034565b6138b161405d565b6138b961408c565b6138c48484846140bb565b6138cd816140fd565b6138d86000336132de565b6138f060008051602061557c833981519152336132de565b6137ac60008051602061555c833981519152336132de565b6000805b8351811015613950578284828151811061392857613928614e7b565b602002602001015110156139405760009150506106d8565b61394981615177565b905061390c565b5060019392505050565b6000826001600160a01b0316636352211e8360008151811061397e5761397e614e7b565b60200260200101516040518263ffffffff1660e01b81526004016139a491815260200190565b60206040518083038186803b1580156139bc57600080fd5b505afa1580156139d0573d6000803e3d6000fd5b505050506040513d601f19601f820116820180604052508101906139f4919061543f565b6001600160a01b0316336001600160a01b03161415613a15575060006106d8565b50600192915050565b600080613a2a60fb5490565b9050613a3a60fb80546001019055565b919050565b613a4982826113f1565b610cd457613a61816001600160a01b03166014614132565b613a6c836020614132565b604051602001613a7d92919061545c565b60408051601f198184030181529082905262461bcd60e51b82526107a891600401614f51565b60008181526001830160205260408120548015613b8c576000613ac760018361506d565b8554909150600090613adb9060019061506d565b9050818114613b40576000866000018281548110613afb57613afb614e7b565b9060005260206000200154905080876000018481548110613b1e57613b1e614e7b565b6000918252602080832090910192909255918252600188019052604090208390555b8554869080613b5157613b516154d1565b6001900381819060005260206000200160009055905585600101600086815260200190815260200160002060009055600193505050506106d8565b60009150506106d8565b6000613beb826040518060400160405280602081526020017f5361666545524332303a206c6f772d6c6576656c2063616c6c206661696c6564815250856001600160a01b03166142ce9092919063ffffffff16565b805190915015610c385780806020019051810190613c0991906154e7565b610c385760405162461bcd60e51b815260206004820152602a60248201527f5361666545524332303a204552433230206f7065726174696f6e20646964206e6044820152691bdd081cdd58d8d9595960b21b60648201526084016107a8565b613c7282826113f1565b610cd45760008281526065602090815260408083206001600160a01b03851684529091529020805460ff19166001179055613caa3390565b6001600160a01b0316816001600160a01b0316837f2f8788117e7eff1d82e926ec794901d17c78024a50270940304540a733656f0d60405160405180910390a45050565b6000611039836001600160a01b0384166142e5565b6001600160a01b0383811660009081526108ce602090815260408083208684529091529020541615613d8d5760405162461bcd60e51b815260206004820152602d60248201527f4d61726b6574526f79616c74795570677261646561626c653a20526f79616c7460448201526c1e48185b1c9958591e481cd95d609a1b60648201526084016107a8565b600081118015613da057506108cd548111155b613dfe5760405162461bcd60e51b815260206004820152602960248201527f4d61726b6574526f79616c74795570677261646561626c653a20496e76616c696044820152686420726f79616c747960b81b60648201526084016107a8565b6040805180820182526001600160a01b039586168152602080820193845294861660009081526108ce865282812094815293909452909120915182546001600160a01b03191693169290921781559051600190910155565b600061103983836142e5565b613e6c82826113f1565b15610cd45760008281526065602090815260408083206001600160a01b0385168085529252808320805460ff1916905551339285917ff6391f5c32d9c69d2a47ea670b442974b53935d1edc7fd64eb21e047a839171b9190a45050565b6000611039836001600160a01b038416613aa3565b60006110398284615509565b60006110398284615084565b6000826000018281548110613f0d57613f0d614e7b565b9060005260206000200154905092915050565b606081600001805480602002602001604051908101604052809291908181526020018280548015613f7057602002820191906000526020600020905b815481526020019060010190808311613f5c575b50505050509050919050565b60006106d8612710613f9a610cb75485613ede90919063ffffffff16565b90614334565b6001600160a01b0380841660009081526108ce60209081526040808320868452825280832081518083019092528054909416808252600190940154918101919091529091829190613ff8576000809250925050614020565b6000614017612710613f9a846020015188613ede90919063ffffffff16565b91519350909150505b935093915050565b6000611039828461506d565b600054610100900460ff1661405b5760405162461bcd60e51b81526004016107a8906153f4565b565b600054610100900460ff166140845760405162461bcd60e51b81526004016107a8906153f4565b61405b614340565b600054610100900460ff166140b35760405162461bcd60e51b81526004016107a8906153f4565b61405b614034565b600054610100900460ff166140e25760405162461bcd60e51b81526004016107a8906153f4565b6140eb8361436e565b6140f4826143c5565b610c388161444c565b600054610100900460ff166141245760405162461bcd60e51b81526004016107a8906153f4565b61412c614034565b61187155565b60606000614141836002615509565b61414c906002615084565b67ffffffffffffffff81111561416457614164614881565b6040519080825280601f01601f19166020018201604052801561418e576020820181803683370190505b509050600360fc1b816000815181106141a9576141a9614e7b565b60200101906001600160f81b031916908160001a905350600f60fb1b816001815181106141d8576141d8614e7b565b60200101906001600160f81b031916908160001a90535060006141fc846002615509565b614207906001615084565b90505b600181111561427f576f181899199a1a9b1b9c1cb0b131b232b360811b85600f166010811061423b5761423b614e7b565b1a60f81b82828151811061425157614251614e7b565b60200101906001600160f81b031916908160001a90535060049490941c9361427881615528565b905061420a565b5083156110395760405162461bcd60e51b815260206004820181905260248201527f537472696e67733a20686578206c656e67746820696e73756666696369656e7460448201526064016107a8565b60606142dd848460008561458a565b949350505050565b600081815260018301602052604081205461432c575081546001818101845560008481526020808220909301849055845484825282860190935260409020919091556106d8565b5060006106d8565b600061103982846153d2565b600054610100900460ff166143675760405162461bcd60e51b81526004016107a8906153f4565b600160c955565b600054610100900460ff166143955760405162461bcd60e51b81526004016107a8906153f4565b6103e88111156143b75760405162461bcd60e51b81526004016107a89061509c565b6108cd819055613111614034565b600054610100900460ff166143ec5760405162461bcd60e51b81526004016107a8906153f4565b6103e881111561443e5760405162461bcd60e51b815260206004820181905260248201527f4d61726b65744665655570677261646561626c653a2046656573203e2031302560448201526064016107a8565b610cb7819055613111614034565b600054610100900460ff161580801561446c5750600054600160ff909116105b806144865750303b158015614486575060005460ff166001145b6144a25760405162461bcd60e51b81526004016107a890615129565b6000805460ff1916600117905580156144c5576000805461ff0019166101001790555b6001600160a01b0382163b61452c5760405162461bcd60e51b815260206004820152602760248201527f54726561737572794e6f64653a2041646472657373206973206e6f74206120636044820152661bdb9d1c9858dd60ca1b60648201526084016107a8565b6110a080546001600160a01b0319166001600160a01b0384161790558015610cd4576000805461ff0019169055604051600181527f7f26b83ff96e1f2b6a682f133852f6798a09c465da95921460cefb384740249890602001611a60565b6060824710156145eb5760405162461bcd60e51b815260206004820152602660248201527f416464726573733a20696e73756666696369656e742062616c616e636520666f6044820152651c8818d85b1b60d21b60648201526084016107a8565b6001600160a01b0385163b6146425760405162461bcd60e51b815260206004820152601d60248201527f416464726573733a2063616c6c20746f206e6f6e2d636f6e747261637400000060448201526064016107a8565b600080866001600160a01b0316858760405161465e919061553f565b60006040518083038185875af1925050503d806000811461469b576040519150601f19603f3d011682016040523d82523d6000602084013e6146a0565b606091505b50915091506146b08282866146bb565b979650505050505050565b606083156146ca575081611039565b8251156146da5782518084602001fd5b8160405162461bcd60e51b81526004016107a89190614f51565b508054600082559060005260206000209081019061311191906147db565b604080516101a081019091528060008152600060208201819052604082018190526060909101908152602001606081526020016060815260200160006001600160a01b031681526020016000815260200160008152602001600081526020016000815260200160006001600160a01b03168152602001600081525090565b8280548282559060005260206000209081019282156147cb579160200282015b828111156147cb5782518255916020019190600101906147b0565b506147d79291506147db565b5090565b5b808211156147d757600081556001016147dc565b60006020828403121561480257600080fd5b81356001600160e01b03198116811461103957600080fd5b6001600160a01b038116811461311157600080fd5b600080600080600060a0868803121561484757600080fd5b85356148528161481a565b94506020860135935060408601356148698161481a565b94979396509394606081013594506080013592915050565b634e487b7160e01b600052604160045260246000fd5b604051601f8201601f1916810167ffffffffffffffff811182821017156148c0576148c0614881565b604052919050565b600080604083850312156148db57600080fd5b8235915060208084013567ffffffffffffffff808211156148fb57600080fd5b818601915086601f83011261490f57600080fd5b81358181111561492157614921614881565b614933601f8201601f19168501614897565b9150808252878482850101111561494957600080fd5b80848401858401376000848284010152508093505050509250929050565b60006020828403121561497957600080fd5b5035919050565b60006020828403121561499257600080fd5b81356110398161481a565b600080604083850312156149b057600080fd5b8235915060208301356149c28161481a565b809150509250929050565b600082601f8301126149de57600080fd5b8135602067ffffffffffffffff8211156149fa576149fa614881565b8160051b614a09828201614897565b9283528481018201928281019087851115614a2357600080fd5b83870192505b848310156146b057823582529183019190830190614a29565b600080600080600080600060e0888a031215614a5d57600080fd5b8735614a688161481a565b9650602088013567ffffffffffffffff80821115614a8557600080fd5b614a918b838c016149cd565b975060408a0135915080821115614aa757600080fd5b50614ab48a828b016149cd565b9550506060880135614ac58161481a565b9699959850939660808101359560a0820135955060c0909101359350915050565b60008060408385031215614af957600080fd5b50508035926020909101359150565b600081518084526020808501945080840160005b83811015614b3857815187529582019590820190600101614b1c565b509495945050505050565b6020815260006110396020830184614b08565b60008060408385031215614b6957600080fd5b8235614b748161481a565b915060208301356149c28161481a565b60008060008060808587031215614b9a57600080fd5b84359350602085013592506040850135614bb38161481a565b9396929550929360600135925050565b600080600080600080600060e0888a031215614bde57600080fd5b8735614be98161481a565b9650602088013595506040880135614c008161481a565b969995985095966060810135965060808101359560a0820135955060c0909101359350915050565b634e487b7160e01b600052602160045260246000fd5b60038110614c4e57614c4e614c28565b9052565b60028110614c4e57614c4e614c28565b60006020808301818452808551808352604092508286019150828160051b87010184880160005b83811015614d8757603f1989840301855281516101a0614caa858351614c3e565b888201516001600160a01b03908116868b0152888301511688860152606080830151614cd882880182614c52565b50506080808301518282880152614cf183880182614b08565b9250505060a08083015186830382880152614d0c8382614b08565b9250505060c080830151614d2a828801826001600160a01b03169052565b505060e08281015190860152610100808301519086015261012080830151908601526101408083015190860152610160808301516001600160a01b0316908601526101809182015191909401529386019390860190600101614c89565b509098975050505050505050565b600080600080600080600060e0888a031215614db057600080fd5b8735614dbb8161481a565b965060208801359550604088013594506060880135614ac58161481a565b60008060408385031215614dec57600080fd5b8235614df78161481a565b946020939093013593505050565b6101608101614e14828e614c3e565b6001600160a01b038c811660208401528b81166040840152614e39606084018c614c52565b808a1660808401528860a08401528760c08401528660e08401528561010084015280851661012084015250826101408301529c9b505050505050505050505050565b634e487b7160e01b600052603260045260246000fd5b6020808252601f908201527f5265656e7472616e637947756172643a207265656e7472616e742063616c6c00604082015260600190565b6020808252603d908201527f4d61726b6574436f72655570677261646561626c653a20496e636c756465206160408201527f20726561736f6e20666f7220746869732063616e63656c6c6174696f6e000000606082015260800190565b60005b83811015614f40578181015183820152602001614f28565b838111156137ac5750506000910152565b6020815260008251806020840152614f70816040850160208701614f25565b601f01601f19169190910160400192915050565b60208082526023908201527f4d61726b6574436f72655570677261646561626c653a2053616c65206973206f6040820152623b32b960e91b606082015260800190565b60208082526027908201527f4d61726b6574436f72655570677261646561626c653a2053616c65206e6f74206040820152661cdd185c9d195960ca1b606082015260800190565b60208082526029908201527f4d61726b6574436f72655570677261646561626c653a2042696420616d6f756e6040820152687420746f6f206c6f7760b81b606082015260800190565b634e487b7160e01b600052601160045260246000fd5b60008282101561507f5761507f615057565b500390565b6000821982111561509757615097615057565b500190565b60208082526027908201527f4d61726b6574526f79616c74795570677261646561626c653a20526f79616c7460408201526679203e2031302560c81b606082015260800190565b60208082526026908201527f41756374696f6e436f72655570677261646561626c653a204e6f74206120636f6040820152651b9d1c9858dd60d21b606082015260800190565b6020808252602e908201527f496e697469616c697a61626c653a20636f6e747261637420697320616c72656160408201526d191e481a5b9a5d1a585b1a5e995960921b606082015260800190565b600060001982141561518b5761518b615057565b5060010190565b6020808252602e908201527f4d61726b6574436f72655570677261646561626c653a20496e76616c6964207460408201526d0ded6cadc92c8e640d8cadccee8d60931b606082015260800190565b60208082526031908201527f4d61726b6574436f72655570677261646561626c653a20546f6b656e496473206040820152700d8cadccee8d040c8dedce840dac2e8c6d607b1b606082015260800190565b60208082526028908201527f4d61726b6574436f72655570677261646561626c653a20496e76616c6964206260408201526734b2103a37b5b2b760c11b606082015260800190565b60208082526024908201527f4d61726b6574436f72655570677261646561626c653a20496e76616c69642076604082015263616c756560e01b606082015260800190565b60208082526027908201527f4d61726b6574436f72655570677261646561626c653a20496e76616c696420646040820152663ab930ba34b7b760c91b606082015260800190565b6000610120615313838d614c3e565b8060208401526153258184018c614b08565b90508281036040840152615339818b614b08565b6001600160a01b039990991660608401525050608081019590955260a085019390935260c084019190915260e0830152610100909101529392505050565b6001600160a01b0385811682528416602082015260a0604082018190526000906153a390830185614b08565b82810360608401526153b58185614b08565b838103608090940193909352505060008152602001949350505050565b6000826153ef57634e487b7160e01b600052601260045260246000fd5b500490565b6020808252602b908201527f496e697469616c697a61626c653a20636f6e7472616374206973206e6f74206960408201526a6e697469616c697a696e6760a81b606082015260800190565b60006020828403121561545157600080fd5b81516110398161481a565b7f416363657373436f6e74726f6c3a206163636f756e7420000000000000000000815260008351615494816017850160208801614f25565b7001034b99036b4b9b9b4b733903937b6329607d1b60179184019182015283516154c5816028840160208801614f25565b01602801949350505050565b634e487b7160e01b600052603160045260246000fd5b6000602082840312156154f957600080fd5b8151801515811461103957600080fd5b600081600019048311821515161561552357615523615057565b500290565b60008161553757615537615057565b506000190190565b60008251615551818460208701614f25565b919091019291505056fe0393b4c1b6519e8b53ae0efa1ab522060a3b9f8d86d09c8a22ca6d6eea735cf7a49807205ce4d355092ef5a8a18f56e8913cf4a201fbe287825b095693c21775a2646970667358221220516be11ed2ccd6e02f99b567a74617d41807ce3aea01513a733a0e2d418f619164736f6c63430008090033",
  "linkReferences": {},
  "deployedLinkReferences": {}
}