{
  "_format": "hh-sol-artifact-1",
  "contractName": "ProfessionStakingAvalanche",
  "sourceName": "contracts/upgradeable/npc/ProfessionStaking/Avalanche/ProfessionStakingAvalanche.sol",
  "abi": [
    {
      "inputs": [],
      "stateMutability": "nonpayable",
      "type": "constructor"
    },
    {
      "anonymous": false,
      "inputs": [
        {
          "indexed": true,
          "internalType": "address",
          "name": "by",
          "type": "address"
        },
        {
          "indexed": true,
          "internalType": "address",
          "name": "token",
          "type": "address"
        },
        {
          "indexed": false,
          "internalType": "uint256",
          "name": "amount",
          "type": "uint256"
        }
      ],
      "name": "Claimed",
      "type": "event"
    },
    {
      "anonymous": false,
      "inputs": [
        {
          "indexed": false,
          "internalType": "uint8",
          "name": "version",
          "type": "uint8"
        }
      ],
      "name": "Initialized",
      "type": "event"
    },
    {
      "anonymous": false,
      "inputs": [
        {
          "indexed": false,
          "internalType": "address",
          "name": "account",
          "type": "address"
        }
      ],
      "name": "Paused",
      "type": "event"
    },
    {
      "anonymous": false,
      "inputs": [
        {
          "indexed": true,
          "internalType": "address",
          "name": "from",
          "type": "address"
        },
        {
          "indexed": true,
          "internalType": "address",
          "name": "token",
          "type": "address"
        },
        {
          "indexed": false,
          "internalType": "uint256",
          "name": "amount",
          "type": "uint256"
        }
      ],
      "name": "PoolRewardsDeposited",
      "type": "event"
    },
    {
      "anonymous": false,
      "inputs": [
        {
          "indexed": true,
          "internalType": "address",
          "name": "by",
          "type": "address"
        },
        {
          "indexed": true,
          "internalType": "address",
          "name": "to",
          "type": "address"
        },
        {
          "indexed": true,
          "internalType": "address",
          "name": "token",
          "type": "address"
        },
        {
          "indexed": false,
          "internalType": "uint256",
          "name": "amount",
          "type": "uint256"
        }
      ],
      "name": "PoolRewardsWithdrawn",
      "type": "event"
    },
    {
      "anonymous": false,
      "inputs": [
        {
          "indexed": true,
          "internalType": "bytes32",
          "name": "role",
          "type": "bytes32"
        },
        {
          "indexed": true,
          "internalType": "bytes32",
          "name": "previousAdminRole",
          "type": "bytes32"
        },
        {
          "indexed": true,
          "internalType": "bytes32",
          "name": "newAdminRole",
          "type": "bytes32"
        }
      ],
      "name": "RoleAdminChanged",
      "type": "event"
    },
    {
      "anonymous": false,
      "inputs": [
        {
          "indexed": true,
          "internalType": "bytes32",
          "name": "role",
          "type": "bytes32"
        },
        {
          "indexed": true,
          "internalType": "address",
          "name": "account",
          "type": "address"
        },
        {
          "indexed": true,
          "internalType": "address",
          "name": "sender",
          "type": "address"
        }
      ],
      "name": "RoleGranted",
      "type": "event"
    },
    {
      "anonymous": false,
      "inputs": [
        {
          "indexed": true,
          "internalType": "bytes32",
          "name": "role",
          "type": "bytes32"
        },
        {
          "indexed": true,
          "internalType": "address",
          "name": "account",
          "type": "address"
        },
        {
          "indexed": true,
          "internalType": "address",
          "name": "sender",
          "type": "address"
        }
      ],
      "name": "RoleRevoked",
      "type": "event"
    },
    {
      "anonymous": false,
      "inputs": [
        {
          "indexed": true,
          "internalType": "address",
          "name": "from",
          "type": "address"
        },
        {
          "indexed": true,
          "internalType": "address",
          "name": "nftAddress",
          "type": "address"
        },
        {
          "indexed": false,
          "internalType": "uint256",
          "name": "tokenId",
          "type": "uint256"
        }
      ],
      "name": "Staked",
      "type": "event"
    },
    {
      "anonymous": false,
      "inputs": [
        {
          "indexed": true,
          "internalType": "address",
          "name": "nftAddress",
          "type": "address"
        },
        {
          "indexed": false,
          "internalType": "address",
          "name": "rewardToken",
          "type": "address"
        },
        {
          "indexed": false,
          "internalType": "uint256",
          "name": "startTime",
          "type": "uint256"
        }
      ],
      "name": "StakingConfigCreated",
      "type": "event"
    },
    {
      "anonymous": false,
      "inputs": [
        {
          "indexed": true,
          "internalType": "address",
          "name": "nftAddress",
          "type": "address"
        }
      ],
      "name": "StakingConfigDeleted",
      "type": "event"
    },
    {
      "anonymous": false,
      "inputs": [
        {
          "indexed": true,
          "internalType": "address",
          "name": "nftAddress",
          "type": "address"
        },
        {
          "indexed": false,
          "internalType": "address",
          "name": "rewardToken",
          "type": "address"
        },
        {
          "indexed": false,
          "internalType": "uint256",
          "name": "startTime",
          "type": "uint256"
        }
      ],
      "name": "StakingConfigUpdated",
      "type": "event"
    },
    {
      "anonymous": false,
      "inputs": [
        {
          "indexed": true,
          "internalType": "address",
          "name": "by",
          "type": "address"
        },
        {
          "indexed": true,
          "internalType": "address",
          "name": "nftAddress",
          "type": "address"
        },
        {
          "indexed": false,
          "internalType": "uint256",
          "name": "tokenId",
          "type": "uint256"
        }
      ],
      "name": "StakingUnlocked",
      "type": "event"
    },
    {
      "anonymous": false,
      "inputs": [
        {
          "indexed": true,
          "internalType": "address",
          "name": "by",
          "type": "address"
        },
        {
          "indexed": true,
          "internalType": "address",
          "name": "nftAddress",
          "type": "address"
        },
        {
          "indexed": false,
          "internalType": "uint256",
          "name": "tokenId",
          "type": "uint256"
        },
        {
          "indexed": false,
          "internalType": "uint256",
          "name": "treeId",
          "type": "uint256"
        },
        {
          "indexed": false,
          "internalType": "uint256",
          "name": "skillId",
          "type": "uint256"
        },
        {
          "indexed": false,
          "internalType": "uint256",
          "name": "canceledAt",
          "type": "uint256"
        }
      ],
      "name": "TrainingCanceled",
      "type": "event"
    },
    {
      "anonymous": false,
      "inputs": [
        {
          "indexed": true,
          "internalType": "address",
          "name": "by",
          "type": "address"
        },
        {
          "indexed": true,
          "internalType": "address",
          "name": "nftAddress",
          "type": "address"
        },
        {
          "indexed": false,
          "internalType": "uint256",
          "name": "tokenId",
          "type": "uint256"
        },
        {
          "indexed": false,
          "internalType": "uint256",
          "name": "treeId",
          "type": "uint256"
        },
        {
          "indexed": false,
          "internalType": "uint256",
          "name": "skillId",
          "type": "uint256"
        },
        {
          "indexed": false,
          "internalType": "uint256",
          "name": "level",
          "type": "uint256"
        }
      ],
      "name": "TrainingFinished",
      "type": "event"
    },
    {
      "anonymous": false,
      "inputs": [
        {
          "indexed": true,
          "internalType": "address",
          "name": "by",
          "type": "address"
        },
        {
          "indexed": true,
          "internalType": "address",
          "name": "nftAddress",
          "type": "address"
        },
        {
          "indexed": false,
          "internalType": "uint256",
          "name": "tokenId",
          "type": "uint256"
        },
        {
          "indexed": false,
          "internalType": "uint256",
          "name": "treeId",
          "type": "uint256"
        },
        {
          "indexed": false,
          "internalType": "uint256",
          "name": "skillId",
          "type": "uint256"
        },
        {
          "indexed": false,
          "internalType": "uint256",
          "name": "level",
          "type": "uint256"
        },
        {
          "indexed": false,
          "internalType": "uint256",
          "name": "startedAt",
          "type": "uint256"
        },
        {
          "indexed": false,
          "internalType": "uint256",
          "name": "completeAt",
          "type": "uint256"
        }
      ],
      "name": "TrainingStarted",
      "type": "event"
    },
    {
      "anonymous": false,
      "inputs": [
        {
          "indexed": false,
          "internalType": "address",
          "name": "account",
          "type": "address"
        }
      ],
      "name": "Unpaused",
      "type": "event"
    },
    {
      "anonymous": false,
      "inputs": [
        {
          "indexed": true,
          "internalType": "address",
          "name": "from",
          "type": "address"
        },
        {
          "indexed": true,
          "internalType": "address",
          "name": "nftAddress",
          "type": "address"
        },
        {
          "indexed": false,
          "internalType": "uint256",
          "name": "tokenId",
          "type": "uint256"
        }
      ],
      "name": "Unstaked",
      "type": "event"
    },
    {
      "inputs": [],
      "name": "ADMIN_ROLE",
      "outputs": [
        {
          "internalType": "bytes32",
          "name": "",
          "type": "bytes32"
        }
      ],
      "stateMutability": "view",
      "type": "function"
    },
    {
      "inputs": [],
      "name": "DEFAULT_ADMIN_ROLE",
      "outputs": [
        {
          "internalType": "bytes32",
          "name": "",
          "type": "bytes32"
        }
      ],
      "stateMutability": "view",
      "type": "function"
    },
    {
      "inputs": [
        {
          "internalType": "address[]",
          "name": "accounts",
          "type": "address[]"
        },
        {
          "internalType": "uint256[]",
          "name": "tokenIds",
          "type": "uint256[]"
        }
      ],
      "name": "adminMigrateStaked",
      "outputs": [],
      "stateMutability": "nonpayable",
      "type": "function"
    },
    {
      "inputs": [
        {
          "internalType": "uint256[]",
          "name": "tokenIds",
          "type": "uint256[]"
        }
      ],
      "name": "batchCancelTraining",
      "outputs": [],
      "stateMutability": "nonpayable",
      "type": "function"
    },
    {
      "inputs": [
        {
          "internalType": "uint256[]",
          "name": "tokenIds",
          "type": "uint256[]"
        }
      ],
      "name": "batchEnableStaking",
      "outputs": [],
      "stateMutability": "nonpayable",
      "type": "function"
    },
    {
      "inputs": [
        {
          "internalType": "uint256[]",
          "name": "tokenIds",
          "type": "uint256[]"
        }
      ],
      "name": "batchFinishTraining",
      "outputs": [],
      "stateMutability": "nonpayable",
      "type": "function"
    },
    {
      "inputs": [
        {
          "internalType": "uint256[]",
          "name": "level",
          "type": "uint256[]"
        },
        {
          "internalType": "uint256[]",
          "name": "cost",
          "type": "uint256[]"
        },
        {
          "internalType": "uint256[]",
          "name": "time",
          "type": "uint256[]"
        }
      ],
      "name": "batchSetTrainingCosts",
      "outputs": [],
      "stateMutability": "nonpayable",
      "type": "function"
    },
    {
      "inputs": [
        {
          "internalType": "uint256[]",
          "name": "tokenIds",
          "type": "uint256[]"
        }
      ],
      "name": "batchStake",
      "outputs": [],
      "stateMutability": "nonpayable",
      "type": "function"
    },
    {
      "inputs": [
        {
          "internalType": "uint256[]",
          "name": "tokenIds",
          "type": "uint256[]"
        },
        {
          "internalType": "uint256[]",
          "name": "skillIds",
          "type": "uint256[]"
        }
      ],
      "name": "batchStartTraining",
      "outputs": [],
      "stateMutability": "nonpayable",
      "type": "function"
    },
    {
      "inputs": [
        {
          "internalType": "uint256[]",
          "name": "tokenIds",
          "type": "uint256[]"
        }
      ],
      "name": "batchUnstake",
      "outputs": [],
      "stateMutability": "nonpayable",
      "type": "function"
    },
    {
      "inputs": [
        {
          "internalType": "uint256",
          "name": "tokenId",
          "type": "uint256"
        }
      ],
      "name": "cancelTraining",
      "outputs": [],
      "stateMutability": "nonpayable",
      "type": "function"
    },
    {
      "inputs": [
        {
          "internalType": "address",
          "name": "stakingToken",
          "type": "address"
        },
        {
          "internalType": "address",
          "name": "rewardToken",
          "type": "address"
        },
        {
          "internalType": "uint256",
          "name": "startTime",
          "type": "uint256"
        },
        {
          "internalType": "uint256",
          "name": "maxPointsPerSkill",
          "type": "uint256"
        },
        {
          "internalType": "uint256",
          "name": "treeId",
          "type": "uint256"
        },
        {
          "internalType": "uint256[]",
          "name": "skillIds",
          "type": "uint256[]"
        }
      ],
      "name": "createStakingConfig",
      "outputs": [],
      "stateMutability": "nonpayable",
      "type": "function"
    },
    {
      "inputs": [
        {
          "internalType": "address",
          "name": "nftAddress",
          "type": "address"
        }
      ],
      "name": "deleteStakingConfig",
      "outputs": [],
      "stateMutability": "nonpayable",
      "type": "function"
    },
    {
      "inputs": [
        {
          "internalType": "uint256",
          "name": "tokenId",
          "type": "uint256"
        }
      ],
      "name": "enableStaking",
      "outputs": [],
      "stateMutability": "nonpayable",
      "type": "function"
    },
    {
      "inputs": [
        {
          "internalType": "uint256",
          "name": "tokenId",
          "type": "uint256"
        }
      ],
      "name": "finishTraining",
      "outputs": [],
      "stateMutability": "nonpayable",
      "type": "function"
    },
    {
      "inputs": [
        {
          "internalType": "address",
          "name": "account",
          "type": "address"
        },
        {
          "internalType": "uint256",
          "name": "tokenId",
          "type": "uint256"
        }
      ],
      "name": "forceCancelTraining",
      "outputs": [],
      "stateMutability": "nonpayable",
      "type": "function"
    },
    {
      "inputs": [
        {
          "internalType": "address",
          "name": "_address",
          "type": "address"
        }
      ],
      "name": "getActiveTrainingOf",
      "outputs": [
        {
          "components": [
            {
              "internalType": "address",
              "name": "_address",
              "type": "address"
            },
            {
              "internalType": "uint256",
              "name": "tokenId",
              "type": "uint256"
            },
            {
              "internalType": "uint256",
              "name": "level",
              "type": "uint256"
            },
            {
              "internalType": "uint256",
              "name": "treeId",
              "type": "uint256"
            },
            {
              "internalType": "uint256",
              "name": "skillId",
              "type": "uint256"
            },
            {
              "internalType": "uint256",
              "name": "startedAt",
              "type": "uint256"
            },
            {
              "internalType": "uint256",
              "name": "completeAt",
              "type": "uint256"
            }
          ],
          "internalType": "struct ProfessionStakingAvalanche.TrainingStatus[]",
          "name": "",
          "type": "tuple[]"
        }
      ],
      "stateMutability": "view",
      "type": "function"
    },
    {
      "inputs": [],
      "name": "getAllParticipantData",
      "outputs": [
        {
          "internalType": "address[]",
          "name": "addresses",
          "type": "address[]"
        },
        {
          "components": [
            {
              "internalType": "address",
              "name": "_address",
              "type": "address"
            },
            {
              "internalType": "uint256",
              "name": "tokenId",
              "type": "uint256"
            },
            {
              "internalType": "uint256",
              "name": "rewardFrom",
              "type": "uint256"
            }
          ],
          "internalType": "struct ProfessionStakingAvalanche.NFT[][]",
          "name": "nfts",
          "type": "tuple[][]"
        }
      ],
      "stateMutability": "view",
      "type": "function"
    },
    {
      "inputs": [
        {
          "internalType": "uint256",
          "name": "tokenId",
          "type": "uint256"
        }
      ],
      "name": "getAllowedSkillChoices",
      "outputs": [
        {
          "internalType": "uint256[]",
          "name": "",
          "type": "uint256[]"
        }
      ],
      "stateMutability": "view",
      "type": "function"
    },
    {
      "inputs": [
        {
          "internalType": "bytes32",
          "name": "role",
          "type": "bytes32"
        }
      ],
      "name": "getRoleAdmin",
      "outputs": [
        {
          "internalType": "bytes32",
          "name": "",
          "type": "bytes32"
        }
      ],
      "stateMutability": "view",
      "type": "function"
    },
    {
      "inputs": [
        {
          "internalType": "address",
          "name": "_address",
          "type": "address"
        }
      ],
      "name": "getStakedOf",
      "outputs": [
        {
          "components": [
            {
              "internalType": "address",
              "name": "_address",
              "type": "address"
            },
            {
              "internalType": "uint256",
              "name": "tokenId",
              "type": "uint256"
            },
            {
              "internalType": "uint256",
              "name": "rewardFrom",
              "type": "uint256"
            }
          ],
          "internalType": "struct ProfessionStakingAvalanche.NFT[]",
          "name": "",
          "type": "tuple[]"
        }
      ],
      "stateMutability": "view",
      "type": "function"
    },
    {
      "inputs": [
        {
          "internalType": "uint256",
          "name": "tokenId",
          "type": "uint256"
        }
      ],
      "name": "getTotalProfessionSkillPoints",
      "outputs": [
        {
          "internalType": "uint256",
          "name": "",
          "type": "uint256"
        }
      ],
      "stateMutability": "view",
      "type": "function"
    },
    {
      "inputs": [
        {
          "internalType": "address",
          "name": "account",
          "type": "address"
        },
        {
          "internalType": "uint256",
          "name": "tokenId",
          "type": "uint256"
        }
      ],
      "name": "getTrainingStatus",
      "outputs": [
        {
          "components": [
            {
              "internalType": "address",
              "name": "_address",
              "type": "address"
            },
            {
              "internalType": "uint256",
              "name": "tokenId",
              "type": "uint256"
            },
            {
              "internalType": "uint256",
              "name": "level",
              "type": "uint256"
            },
            {
              "internalType": "uint256",
              "name": "treeId",
              "type": "uint256"
            },
            {
              "internalType": "uint256",
              "name": "skillId",
              "type": "uint256"
            },
            {
              "internalType": "uint256",
              "name": "startedAt",
              "type": "uint256"
            },
            {
              "internalType": "uint256",
              "name": "completeAt",
              "type": "uint256"
            }
          ],
          "internalType": "struct ProfessionStakingAvalanche.TrainingStatus",
          "name": "",
          "type": "tuple"
        }
      ],
      "stateMutability": "view",
      "type": "function"
    },
    {
      "inputs": [
        {
          "internalType": "bytes32",
          "name": "role",
          "type": "bytes32"
        },
        {
          "internalType": "address",
          "name": "account",
          "type": "address"
        }
      ],
      "name": "grantRole",
      "outputs": [],
      "stateMutability": "nonpayable",
      "type": "function"
    },
    {
      "inputs": [
        {
          "internalType": "bytes32",
          "name": "role",
          "type": "bytes32"
        },
        {
          "internalType": "address",
          "name": "account",
          "type": "address"
        }
      ],
      "name": "hasRole",
      "outputs": [
        {
          "internalType": "bool",
          "name": "",
          "type": "bool"
        }
      ],
      "stateMutability": "view",
      "type": "function"
    },
    {
      "inputs": [],
      "name": "initialize",
      "outputs": [],
      "stateMutability": "nonpayable",
      "type": "function"
    },
    {
      "inputs": [
        {
          "internalType": "uint256",
          "name": "tokenId",
          "type": "uint256"
        },
        {
          "internalType": "address",
          "name": "owner",
          "type": "address"
        }
      ],
      "name": "isOwner",
      "outputs": [
        {
          "internalType": "bool",
          "name": "",
          "type": "bool"
        }
      ],
      "stateMutability": "view",
      "type": "function"
    },
    {
      "inputs": [
        {
          "internalType": "uint256",
          "name": "tokenId",
          "type": "uint256"
        }
      ],
      "name": "isStakingEnabled",
      "outputs": [
        {
          "internalType": "bool",
          "name": "",
          "type": "bool"
        }
      ],
      "stateMutability": "view",
      "type": "function"
    },
    {
      "inputs": [
        {
          "internalType": "address",
          "name": "account",
          "type": "address"
        },
        {
          "internalType": "uint256",
          "name": "tokenId",
          "type": "uint256"
        },
        {
          "internalType": "uint256",
          "name": "skillId",
          "type": "uint256"
        }
      ],
      "name": "modifyActiveTrainingSkill",
      "outputs": [],
      "stateMutability": "nonpayable",
      "type": "function"
    },
    {
      "inputs": [
        {
          "internalType": "address",
          "name": "",
          "type": "address"
        },
        {
          "internalType": "address",
          "name": "",
          "type": "address"
        },
        {
          "internalType": "uint256",
          "name": "",
          "type": "uint256"
        },
        {
          "internalType": "bytes",
          "name": "",
          "type": "bytes"
        }
      ],
      "name": "onERC721Received",
      "outputs": [
        {
          "internalType": "bytes4",
          "name": "",
          "type": "bytes4"
        }
      ],
      "stateMutability": "pure",
      "type": "function"
    },
    {
      "inputs": [],
      "name": "pause",
      "outputs": [],
      "stateMutability": "nonpayable",
      "type": "function"
    },
    {
      "inputs": [],
      "name": "paused",
      "outputs": [
        {
          "internalType": "bool",
          "name": "",
          "type": "bool"
        }
      ],
      "stateMutability": "view",
      "type": "function"
    },
    {
      "inputs": [
        {
          "internalType": "bytes32",
          "name": "role",
          "type": "bytes32"
        },
        {
          "internalType": "address",
          "name": "account",
          "type": "address"
        }
      ],
      "name": "renounceRole",
      "outputs": [],
      "stateMutability": "nonpayable",
      "type": "function"
    },
    {
      "inputs": [
        {
          "internalType": "bytes32",
          "name": "role",
          "type": "bytes32"
        },
        {
          "internalType": "address",
          "name": "account",
          "type": "address"
        }
      ],
      "name": "revokeRole",
      "outputs": [],
      "stateMutability": "nonpayable",
      "type": "function"
    },
    {
      "inputs": [
        {
          "internalType": "uint256",
          "name": "skillId",
          "type": "uint256"
        }
      ],
      "name": "setSkillPointer",
      "outputs": [],
      "stateMutability": "nonpayable",
      "type": "function"
    },
    {
      "inputs": [
        {
          "internalType": "uint256",
          "name": "level",
          "type": "uint256"
        },
        {
          "internalType": "uint256",
          "name": "cost",
          "type": "uint256"
        },
        {
          "internalType": "uint256",
          "name": "time",
          "type": "uint256"
        }
      ],
      "name": "setTrainingCost",
      "outputs": [],
      "stateMutability": "nonpayable",
      "type": "function"
    },
    {
      "inputs": [
        {
          "internalType": "uint256[]",
          "name": "levels",
          "type": "uint256[]"
        },
        {
          "internalType": "uint256[]",
          "name": "times",
          "type": "uint256[]"
        },
        {
          "internalType": "uint256[]",
          "name": "costs",
          "type": "uint256[]"
        }
      ],
      "name": "setTrainingLevelConfig",
      "outputs": [],
      "stateMutability": "nonpayable",
      "type": "function"
    },
    {
      "inputs": [
        {
          "internalType": "uint256",
          "name": "tokenId",
          "type": "uint256"
        }
      ],
      "name": "stake",
      "outputs": [],
      "stateMutability": "nonpayable",
      "type": "function"
    },
    {
      "inputs": [
        {
          "internalType": "uint256",
          "name": "tokenId",
          "type": "uint256"
        },
        {
          "internalType": "uint256",
          "name": "skillId",
          "type": "uint256"
        }
      ],
      "name": "startTraining",
      "outputs": [],
      "stateMutability": "nonpayable",
      "type": "function"
    },
    {
      "inputs": [
        {
          "internalType": "bytes4",
          "name": "interfaceId",
          "type": "bytes4"
        }
      ],
      "name": "supportsInterface",
      "outputs": [
        {
          "internalType": "bool",
          "name": "",
          "type": "bool"
        }
      ],
      "stateMutability": "view",
      "type": "function"
    },
    {
      "inputs": [],
      "name": "treasury",
      "outputs": [
        {
          "internalType": "address",
          "name": "",
          "type": "address"
        }
      ],
      "stateMutability": "view",
      "type": "function"
    },
    {
      "inputs": [],
      "name": "unpause",
      "outputs": [],
      "stateMutability": "nonpayable",
      "type": "function"
    },
    {
      "inputs": [
        {
          "internalType": "uint256",
          "name": "tokenId",
          "type": "uint256"
        }
      ],
      "name": "unstake",
      "outputs": [],
      "stateMutability": "nonpayable",
      "type": "function"
    },
    {
      "inputs": [
        {
          "internalType": "address",
          "name": "nftAddress",
          "type": "address"
        },
        {
          "internalType": "contract IERC20Upgradeable",
          "name": "rewardToken",
          "type": "address"
        },
        {
          "internalType": "uint256",
          "name": "startTime",
          "type": "uint256"
        },
        {
          "internalType": "uint256",
          "name": "maxPointsPerSkill",
          "type": "uint256"
        }
      ],
      "name": "updateStakingConfig",
      "outputs": [],
      "stateMutability": "nonpayable",
      "type": "function"
    }
  ],
  "bytecode": "0x60806040523480156200001157600080fd5b506200001c62000022565b620000e4565b600054610100900460ff16156200008f5760405162461bcd60e51b815260206004820152602760248201527f496e697469616c697a61626c653a20636f6e747261637420697320696e697469604482015266616c697a696e6760c81b606482015260840160405180910390fd5b60005460ff9081161015620000e2576000805460ff191660ff9081179091556040519081527f7f26b83ff96e1f2b6a682f133852f6798a09c465da95921460cefb38474024989060200160405180910390a15b565b61485280620000f46000396000f3fe608060405234801561001057600080fd5b50600436106102745760003560e01c806360a97358116101515780639e534d59116100c3578063aed2151a11610087578063aed2151a146105ce578063bbe8fcb4146105e1578063c2127793146105f4578063c75fb3e314610607578063d2acd13d14610627578063d547741f1461063a57600080fd5b80639e534d591461057a578063a217fddf1461058d578063a401344b14610595578063a694fc3a146105a8578063abfc6e73146105bb57600080fd5b806375b974451161011557806375b974451461051157806376c7e36a146105245780638129fc1c146105445780638456cb591461054c57806391d148541461055457806394930f101461056757600080fd5b806360a973581461048b57806361d027b3146104ab5780636725919f146104d65780636d11895c146104e957806375b238fc146104fc57600080fd5b80633f4ba83a116101ea5780634d7dd190116101ae5780634d7dd190146104145780635322de8d14610427578063557734ac146104475780635a5d096c1461045a5780635c975abb1461046d5780635d132db71461047857600080fd5b80633f4ba83a146103bd5780633fd174f3146103c5578063421f72c7146103d85780634679eae7146103ee5780634a7af52d1461040157600080fd5b8063230001911161023c578063230001911461032d578063248a9ca3146103405780632e17de78146103715780632e536fb9146103845780632f2ff15d1461039757806336568abe146103aa57600080fd5b806301ffc9a7146102795780630ae7a461146102a15780630ce5ced8146102b6578063150b7a02146102c9578063154aa2a81461031a575b600080fd5b61028c610287366004613d52565b61064d565b60405190151581526020015b60405180910390f35b6102b46102af366004613d7c565b610684565b005b6102b46102c4366004613e91565b6106d4565b6103016102d7366004613f52565b7f150b7a023d4804d13e8c85fb27262cb750cf6ba9f9dd3bb30d90f482ceeb4b1f95945050505050565b6040516001600160e01b03199091168152602001610298565b6102b4610328366004613ff0565b610938565b61028c61033b366004614012565b610d98565b61036361034e366004614012565b60009081526097602052604090206001015490565b604051908152602001610298565b6102b461037f366004614012565b610e23565b6102b461039236600461402b565b61110a565b6102b46103a5366004614067565b61116f565b6102b46103b8366004614067565b611199565b6102b4611213565b6102b46103d3366004614097565b611236565b6103e0611313565b60405161029892919061413d565b6102b46103fc3660046141de565b611514565b6102b461040f36600461402b565b61162a565b6102b4610422366004614265565b61168b565b61043a6104353660046142e2565b6118cd565b6040516102989190614358565b6102b4610455366004614012565b611963565b61028c610468366004614067565b611b8f565b60335460ff1661028c565b6102b4610486366004614012565b611c21565b61049e610499366004614012565b611efb565b6040516102989190614366565b60d2546104be906001600160a01b031681565b6040516001600160a01b039091168152602001610298565b6102b46104e43660046142e2565b61232d565b6102b46104f736600461402b565b6123b8565b6103636000805160206147dd83398151915281565b6102b461051f36600461439e565b612419565b6105376105323660046143d3565b612471565b60405161029891906143f0565b6102b461276f565b6102b46128aa565b61028c610562366004614067565b6128ca565b6102b4610575366004614012565b6128f5565b610363610588366004614012565b612b38565b610363600081565b6102b46105a33660046143d3565b612bee565b6102b46105b6366004614012565b612ca4565b6102b46105c9366004614432565b612f4e565b6102b46105dc3660046141de565b61308a565b6102b46105ef366004614012565b61318c565b6102b461060236600461402b565b613204565b61061a6106153660046143d3565b613265565b6040516102989190614478565b6102b461063536600461402b565b6133ac565b6102b4610648366004614067565b61340d565b60006001600160e01b03198216637965db0b60e01b148061067e57506301ffc9a760e01b6001600160e01b03198316145b92915050565b6000805160206147dd83398151915261069c81613432565b5060009283527f68995a606069a176802face6c7d97d018fa327ea1f57950103ab1e74298105c5602052604090922090815560010155565b6000805160206147dd8339815191526106ec81613432565b60008351116107395760405162461bcd60e51b81526020600482015260146024820152734163636f756e747320617272617920656d70747960601b60448201526064015b60405180910390fd5b81518351146107825760405162461bcd60e51b8152602060048201526015602482015274082e4e4c2f240d8cadccee8d040dad2e6dac2e8c6d605b1b6044820152606401610730565b60005b8351811015610932576107ca8382815181106107a3576107a361448b565b60200260200101518583815181106107bd576107bd61448b565b6020026020010151611b8f565b1561092057306001600160a01b03166000805160206147fd8339815191526001600160a01b0316636352211e8584815181106108085761080861448b565b60200260200101516040518263ffffffff1660e01b815260040161082e91815260200190565b602060405180830381865afa15801561084b573d6000803e3d6000fd5b505050506040513d601f19601f8201168201806040525081019061086f91906144a1565b6001600160a01b031603610920576000805160206147fd8339815191526001600160a01b03166342842e0e308684815181106108ad576108ad61448b565b60200260200101518685815181106108c7576108c761448b565b60200260200101516040518463ffffffff1660e01b81526004016108ed939291906144be565b600060405180830381600087803b15801561090757600080fd5b505af115801561091b573d6000803e3d6000fd5b505050505b8061092a816144f8565b915050610785565b50505050565b61094061343c565b6040516322ca3b1560e11b81526004810183905260006024820152600a604482015282906000805160206147fd83398151915290634594762a90606401602060405180830381865afa15801561099a573d6000803e3d6000fd5b505050506040513d601f19601f820116820180604052508101906109be9190614511565b6001146109dd5760405162461bcd60e51b81526004016107309061452a565b33600090815260c9602090815260408083206000805160206147fd833981519152845282528083208684529091529020600581015415610a5f5760405162461bcd60e51b815260206004820152601f60248201527f547261696e696e6720697320616c726561647920696e2070726f6772657373006044820152606401610730565b610a698484613484565b610ab55760405162461bcd60e51b815260206004820152601760248201527f496e76616c696420747261696e696e67206f7074696f6e0000000000000000006044820152606401610730565b6040516322ca3b1560e11b81526004810185905260016024820152604481018490526000906000805160206147fd83398151915290634594762a90606401602060405180830381865afa158015610b10573d6000803e3d6000fd5b505050506040513d601f19601f82011682018060405250810190610b349190614511565b90506014610b4382600161454e565b1115610b915760405162461bcd60e51b815260206004820152601e60248201527f45786365656473206d6178696d756d20747261696e696e67206c6576656c00006044820152606401610730565b6000805160206147fd833981519152600090815260cd6020527f68995a606069a176802face6c7d97d018fa327ea1f57950103ab1e74298105c581610bd784600161454e565b815260200190815260200160002090506000816000015411610c3b5760405162461bcd60e51b815260206004820152601d60248201527f547261696e696e67204c6576656c206973206e6f7420656e61626c65640000006044820152606401610730565b80546040516323b872dd60e01b8152739a8e0217cd870783c3f2317985c57bf570969153916323b872dd91610c779133913091906004016144be565b6020604051808303816000875af1158015610c96573d6000803e3d6000fd5b505050506040513d601f19601f82011682018060405250810190610cba9190614561565b50610cc3613537565b610cce82600161454e565b600284015560016003840181905560048401869055426005850181905590820154610cf89161454e565b600684015582546001600160a01b0319166000805160206147fd8339815191529081178455600180850188905533907f98d1944772cc1ee399725448c633b3ec863f8be81e490479055d810afaa0225c90899089610d56888361454e565b60058a015460068b0154604080519687526020870195909552938501929092526060840152608083015260a082015260c00160405180910390a3505050505050565b6040516322ca3b1560e11b815260048101829052600060248201819052600960448301529081906000805160206147fd83398151915290634594762a90606401602060405180830381865afa158015610df5573d6000803e3d6000fd5b505050506040513d601f19601f82011682018060405250810190610e199190614511565b6001149392505050565b6040516322ca3b1560e11b81526004810182905260006024820152600a604482015281906000805160206147fd83398151915290634594762a90606401602060405180830381865afa158015610e7d573d6000803e3d6000fd5b505050506040513d601f19601f82011682018060405250810190610ea19190614511565b600114610ec05760405162461bcd60e51b81526004016107309061452a565b33600090815260ca60205260409020610ed9818461363e565b610f165760405162461bcd60e51b815260206004820152600e60248201526d13919508139bdd081cdd185ad95960921b6044820152606401610730565b6040516331a9108f60e11b81526004810184905230906000805160206147fd83398151915290636352211e90602401602060405180830381865afa158015610f62573d6000803e3d6000fd5b505050506040513d601f19601f82011682018060405250810190610f8691906144a1565b6001600160a01b031603610ffc57604051632142170760e11b81526000805160206147fd833981519152906342842e0e90610fc9903090339088906004016144be565b600060405180830381600087803b158015610fe357600080fd5b505af1158015610ff7573d6000803e3d6000fd5b505050505b6040516305ad7d8960e51b815260048101849052600060248201819052600a604483015260648201526000805160206147fd8339815191529063b5afb12090608401600060405180830381600087803b15801561105857600080fd5b505af115801561106c573d6000803e3d6000fd5b505050600084815260028084016020526040822080546001600160a01b0319168155600181018390550155506110a28184613659565b506110ac81613665565b6000036110c0576110be60cb3361366f565b505b6040518381526000805160206147fd8339815191529033907fd8654fcc8cf5b36d30b3f5e4688fc78118e6d68de60b9994e09902268b57c3e39060200160405180910390a3505050565b600081511161112b5760405162461bcd60e51b815260040161073090614583565b60005b815181101561116b5761115982828151811061114c5761114c61448b565b6020026020010151611963565b80611163816144f8565b91505061112e565b5050565b60008281526097602052604090206001015461118a81613432565b6111948383613684565b505050565b6001600160a01b03811633146112095760405162461bcd60e51b815260206004820152602f60248201527f416363657373436f6e74726f6c3a2063616e206f6e6c792072656e6f756e636560448201526e103937b632b9903337b91039b2b63360891b6064820152608401610730565b61116b828261370a565b6000805160206147dd83398151915261122b81613432565b611233613771565b50565b60008251116112575760405162461bcd60e51b815260040161073090614583565b80518251146112b95760405162461bcd60e51b815260206004820152602860248201527f746f6b656e49647320636f756e74206d757374206d6174636820736b696c6c49604482015267191cc818dbdd5b9d60c21b6064820152608401610730565b60005b8251811015611194576113018382815181106112da576112da61448b565b60200260200101518383815181106112f4576112f461448b565b6020026020010151610938565b8061130b816144f8565b9150506112bc565b606080600061132260cb613665565b9050806001600160401b0381111561133c5761133c613da8565b60405190808252806020026020018201604052801561136f57816020015b606081526020019060019003908161135a5790505b50915060005b8181101561150257600060ca8161138d60cb856137c3565b6001600160a01b031681526020810191909152604001600090812091506113b3826137cf565b9050600081516001600160401b038111156113d0576113d0613da8565b60405190808252806020026020018201604052801561142e57816020015b61141b604051806060016040528060006001600160a01b0316815260200160008152602001600081525090565b8152602001906001900390816113ee5790505b50905060005b81518110156114cd578360020160008483815181106114555761145561448b565b6020908102919091018101518252818101929092526040908101600020815160608101835281546001600160a01b03168152600182015493810193909352600201549082015282518390839081106114af576114af61448b565b602002602001018190525080806114c5906144f8565b915050611434565b50808685815181106114e1576114e161448b565b602002602001018190525050505080806114fa906144f8565b915050611375565b5061150d60cb6137cf565b9250509091565b6000805160206147dd83398151915261152c81613432565b6000805160206147fd833981519152600090815260cd6020527f68995a606069a176802face6c7d97d018fa327ea1f57950103ab1e74298105c0905b8551811015611622578481815181106115835761158361448b565b60200260200101518260050160008884815181106115a3576115a361448b565b60200260200101518152602001908152602001600020600101819055508381815181106115d2576115d261448b565b60200260200101518260050160008884815181106115f2576115f261448b565b6020026020010151815260200190815260200160002060000181905550808061161a906144f8565b915050611568565b505050505050565b600081511161164b5760405162461bcd60e51b815260040161073090614583565b60005b815181101561116b5761167982828151811061166c5761166c61448b565b60200260200101516128f5565b80611683816144f8565b91505061164e565b6000805160206147dd8339815191526116a381613432565b6001600160a01b038716600090815260cd6020526040902080541561170a5760405162461bcd60e51b815260206004820152601d60248201527f5374616b696e6720636f6e66696720616c7265616479206578697374730000006044820152606401610730565b600084116117525760405162461bcd60e51b81526020600482015260156024820152744d697373696e672074726565496420636f6e66696760581b6044820152606401610730565b600083511161179c5760405162461bcd60e51b81526020600482015260166024820152754d697373696e6720736b696c6c496420636f6e66696760501b6044820152606401610730565b600085116117bc5760405162461bcd60e51b8152600401610730906145b1565b4286116117db5760405162461bcd60e51b8152600401610730906145f9565b858155600181018590556002810184905560005b835181101561183f578160030184828151811061180e5761180e61448b565b6020908102919091018101518254600181018455600093845291909220015580611837816144f8565b9150506117ef565b506004810180546001600160a01b038981166001600160a01b03199283168117909355600684018054918c1691909216811790915560006007840190815560096008850155835460408051948552602085019190915290927fc6e5f1ee3138795eeda2fa0aab37379a177c4f04396146dd2b154ab55f5c5585910160405180910390a2505050505050505050565b6118d5613cda565b506001600160a01b03918216600090815260c9602090815260408083206000805160206147fd8339815191528452825280832093835292815290829020825160e081018452815490941684526001810154918401919091526002810154918301919091526003810154606083015260048101546080830152600581015460a08301526006015460c082015290565b6040516322ca3b1560e11b81526004810182905260006024820152600a604482015281906000805160206147fd83398151915290634594762a90606401602060405180830381865afa1580156119bd573d6000803e3d6000fd5b505050506040513d601f19601f820116820180604052508101906119e19190614511565b600114611a005760405162461bcd60e51b81526004016107309061452a565b33600090815260c9602090815260408083206000805160206147fd8339815191528452825280832085845290915290206005810154611a705760405162461bcd60e51b815260206004820152600c60248201526b4e6f7420747261696e696e6760a01b6044820152606401610730565b42816006015411611ac35760405162461bcd60e51b815260206004820152601960248201527f547261696e696e6720616c72656164792066696e6973686564000000000000006044820152606401610730565b600381015460048201546040805186815260208101939093528201524260608201526000805160206147fd8339815191529033907fc9b7c59fa980251f7ca7eae784c953e8a9f49d617be6edca0b41264ea05cb169906080015b60405180910390a3505033600090815260c9602090815260408083206000805160206147fd8339815191528452825280832093835292905290812080546001600160a01b0319168155600181018290556002810182905560038101829055600481018290556005810182905560060155565b6001600160a01b038116600090815260ca6020526040812081611bb1826137cf565b905060005b8151811015611c155785836002016000848481518110611bd857611bd861448b565b602002602001015181526020019081526020016000206001015403611c03576001935050505061067e565b80611c0d816144f8565b915050611bb6565b50600095945050505050565b611c2961343c565b6040516322ca3b1560e11b81526004810182905260006024820152600a604482015281906000805160206147fd83398151915290634594762a90606401602060405180830381865afa158015611c83573d6000803e3d6000fd5b505050506040513d601f19601f82011682018060405250810190611ca79190614511565b15611ce55760405162461bcd60e51b815260206004820152600e60248201526d105b1c9958591e481cdd185ad95960921b6044820152606401610730565b6040516322ca3b1560e11b81526004810183905260006024820152600960448201526000805160206147fd83398151915290634594762a90606401602060405180830381865afa158015611d3d573d6000803e3d6000fd5b505050506040513d601f19601f82011682018060405250810190611d619190614511565b15611dae5760405162461bcd60e51b815260206004820152601860248201527f5374616b696e6720616c726561647920756e6c6f636b656400000000000000006044820152606401610730565b6040516323b872dd60e01b8152739a8e0217cd870783c3f2317985c57bf570969153906323b872dd90611df290339030906801158e460913d00000906004016144be565b6020604051808303816000875af1158015611e11573d6000803e3d6000fd5b505050506040513d601f19601f82011682018060405250810190611e359190614561565b50611e3e613537565b6040516305ad7d8960e51b8152600481018390526000602482015260096044820152600160648201526000805160206147fd8339815191529063b5afb12090608401600060405180830381600087803b158015611e9a57600080fd5b505af1158015611eae573d6000803e3d6000fd5b50506040518481526000805160206147fd83398151915292503391507f051144eeaaad1c4ee6b1eab928f531a9daf1687b3e0f8db00dae3f5df8c285db9060200160405180910390a35050565b6000805160206147fd833981519152600090815260cd6020527f68995a606069a176802face6c7d97d018fa327ea1f57950103ab1e74298105c3546060917f68995a606069a176802face6c7d97d018fa327ea1f57950103ab1e74298105c0916001600160401b03811115611f7257611f72613da8565b604051908082528060200260200182016040528015611f9b578160200160208202803683370190505b50905060008060005b60038501548110156120f357600685015460028601546003870180546001600160a01b0390931692634594762a928b92909186908110611fe657611fe661448b565b90600052602060002001546040518463ffffffff1660e01b8152600401612020939291909283526020830191909152604082015260600190565b602060405180830381865afa15801561203d573d6000803e3d6000fd5b505050506040513d601f19601f820116820180604052508101906120619190614511565b8482815181106120735761207361448b565b60200260200101818152505060008482815181106120935761209361448b565b602002602001015111156120af57826120ab816144f8565b9350505b84600101548482815181106120c6576120c661448b565b6020026020010151036120e157816120dd816144f8565b9250505b806120eb816144f8565b915050611fa4565b508160000361215a578360030180548060200260200160405190810160405280929190818152602001828054801561214a57602002820191906000526020600020905b815481526020019060010190808311612136575b5050505050945050505050919050565b8060020361216e5750606095945050505050565b600384015460009061218290600190614643565b6001600160401b0381111561219957612199613da8565b6040519080825280602002602001820160405280156121c2578160200160208202803683370190505b5090506000805b8551811015612320578360011480156121e25750846001145b801561220757508581815181106121fb576121fb61448b565b60200260200101516000145b15612257578660030181815481106122215761222161448b565b906000526020600020015483838151811061223e5761223e61448b565b602090810291909101015281612253816144f8565b9250505b600086828151811061226b5761226b61448b565b602002602001015111801561229c575086600101548682815181106122925761229261448b565b6020026020010151105b1561230e57604080516001808252818301909252600091602080830190803683370190505090508760030182815481106122d8576122d861448b565b9060005260206000200154816000815181106122f6576122f661448b565b60209081029190910101529998505050505050505050565b80612318816144f8565b9150506121c9565b5090979650505050505050565b6000805160206147dd83398151915261234581613432565b506001600160a01b03909116600090815260c9602090815260408083206000805160206147fd8339815191528452825280832093835292905290812080546001600160a01b0319168155600181018290556002810182905560038101829055600481018290556005810182905560060155565b60008151116123d95760405162461bcd60e51b815260040161073090614656565b60005b815181101561116b576124078282815181106123fa576123fa61448b565b6020026020010151611c21565b80612411816144f8565b9150506123dc565b6000805160206147dd83398151915261243181613432565b506001600160a01b03909216600090815260c9602090815260408083206000805160206147fd833981519152845282528083209383529290522060040155565b6001600160a01b038116600090815260ca60205260408120606091612495826137cf565b90506000805b82518110156125555760008460020160008584815181106124be576124be61448b565b60209081029190910181015182528181019290925260409081016000908120825160608101845281546001600160a01b0390811682526001830154828701908152600290930154828601528c8116845260c98652848420825190911684528552838320915183529352206006015490915015612542578261253e816144f8565b9350505b508061254d816144f8565b91505061249b565b506000816001600160401b0381111561257057612570613da8565b6040519080825280602002602001820160405280156125a957816020015b612596613cda565b81526020019060019003908161258e5790505b5090506000805b84518110156127635760008660020160008784815181106125d3576125d361448b565b602002602001015181526020019081526020016000206040518060600160405290816000820160009054906101000a90046001600160a01b03166001600160a01b03166001600160a01b03168152602001600182015481526020016002820154815250509050600060c960008b6001600160a01b03166001600160a01b03168152602001908152602001600020600083600001516001600160a01b03166001600160a01b031681526020019081526020016000206000836020015181526020019081526020016000206040518060e00160405290816000820160009054906101000a90046001600160a01b03166001600160a01b03166001600160a01b031681526020016001820154815260200160028201548152602001600382015481526020016004820154815260200160058201548152602001600682015481525050905060008160c00151111561274e57808585815181106127345761273461448b565b6020026020010181905250838061274a906144f8565b9450505b5050808061275b906144f8565b9150506125b0565b50909695505050505050565b600054610100900460ff161580801561278f5750600054600160ff909116105b806127a95750303b1580156127a9575060005460ff166001145b61280c5760405162461bcd60e51b815260206004820152602e60248201527f496e697469616c697a61626c653a20636f6e747261637420697320616c72656160448201526d191e481a5b9a5d1a585b1a5e995960921b6064820152608401610730565b6000805460ff19166001179055801561282f576000805461ff0019166101001790555b6128376137dc565b61283f61380b565b61284a600033613684565b6128626000805160206147dd83398151915233613684565b8015611233576000805461ff0019169055604051600181527f7f26b83ff96e1f2b6a682f133852f6798a09c465da95921460cefb38474024989060200160405180910390a150565b6000805160206147dd8339815191526128c281613432565b611233613832565b60009182526097602090815260408084206001600160a01b0393909316845291905290205460ff1690565b6040516322ca3b1560e11b81526004810182905260006024820152600a604482015281906000805160206147fd83398151915290634594762a90606401602060405180830381865afa15801561294f573d6000803e3d6000fd5b505050506040513d601f19601f820116820180604052508101906129739190614511565b6001146129925760405162461bcd60e51b81526004016107309061452a565b33600090815260c9602090815260408083206000805160206147fd8339815191528452825280832085845290915290206005810154612a025760405162461bcd60e51b815260206004820152600c60248201526b4e6f7420747261696e696e6760a01b6044820152606401610730565b4281600601541115612a565760405162461bcd60e51b815260206004820152601a60248201527f547261696e696e67207374696c6c20696e2070726f67726573730000000000006044820152606401610730565b60048181015460028301546040516305ad7d8960e51b815292830186905260016024840152604483019190915260648201526000805160206147fd8339815191529063b5afb12090608401600060405180830381600087803b158015612abb57600080fd5b505af1158015612acf573d6000803e3d6000fd5b5050506003820154600483015460028401546040516000805160206147fd833981519152945033937f4cffb663b46d78e759211fc8a998ed5dd16066c4229b4b4e94bc0ff7431e85a893611b1d938a845260208401929092526040830152606082015260800190565b600080805b600c811015612be7576040516322ca3b1560e11b81526004810185905260016024820152604481018290526000906000805160206147fd83398151915290634594762a90606401602060405180830381865afa158015612ba1573d6000803e3d6000fd5b505050506040513d601f19601f82011682018060405250810190612bc59190614511565b9050612bd1818461454e565b9250508080612bdf906144f8565b915050612b3d565b5092915050565b6000805160206147dd833981519152612c0681613432565b6001600160a01b038216600090815260cd60205260408120818155600181018290556002810182905590612c3d6003830182613d20565b506004810180546001600160a01b0319908116909155600682018054909116905560006007820181905560089091018190556040516001600160a01b038416917fed93036dfb7e5500a2a7f2471a56e6b3389a8c28c72adca8ba9f6a4025ca6d5891a25050565b612cac61343c565b6040516322ca3b1560e11b815260048101829052600060248201526009604482015281906000805160206147fd83398151915290634594762a90606401602060405180830381865afa158015612d06573d6000803e3d6000fd5b505050506040513d601f19601f82011682018060405250810190612d2a9190614511565b600114612d685760405162461bcd60e51b815260206004820152600c60248201526b139bdd081d5b9b1bd8dad95960a21b6044820152606401610730565b6040516322ca3b1560e11b81526004810183905260006024820152600a604482015282906000805160206147fd83398151915290634594762a90606401602060405180830381865afa158015612dc2573d6000803e3d6000fd5b505050506040513d601f19601f82011682018060405250810190612de69190614511565b15612e245760405162461bcd60e51b815260206004820152600e60248201526d105b1c9958591e481cdd185ad95960921b6044820152606401610730565b6040516305ad7d8960e51b81526004810184905260006024820152600a6044820152600160648201526000805160206147fd8339815191529063b5afb12090608401600060405180830381600087803b158015612e8057600080fd5b505af1158015612e94573d6000803e3d6000fd5b50505050612eac3360cb61386f90919063ffffffff16565b5033600090815260ca602090815260408083208684526002810190925290912080546001600160a01b031916739a8e0217cd870783c3f2317985c57bf57096915317815560018101859055612f018286613884565b506040518581526000805160206147fd8339815191529033907f5dac0c1b1112564a045ba943c9d50270893e8e826c49be8e7073adc713ab7bd79060200160405180910390a35050505050565b6000805160206147dd833981519152612f6681613432565b6001600160a01b038516600090815260cd60205260408120549003612fcd5760405162461bcd60e51b815260206004820152601d60248201527f5374616b696e6720636f6e66696720646f6573206e6f742065786973740000006044820152606401610730565b60008211612fed5760405162461bcd60e51b8152600401610730906145b1565b42831161300c5760405162461bcd60e51b8152600401610730906145f9565b6001600160a01b03858116600081815260cd60209081526040918290206004810180546001600160a01b031916958a169586179055878155600181018790558251948552908401879052927f255d2940ab142f16cd2452c452fc20185bcbc341ce9c1646bc3d4feac9dc3371910160405180910390a2505050505050565b6000805160206147dd8339815191526130a281613432565b825184511480156130b4575081518351145b6131115760405162461bcd60e51b815260206004820152602860248201527f416c6c20696e70757420617272617973206d757374206265207468652073616d6044820152670ca40d8cadccee8d60c31b6064820152608401610730565b60005b8451811015613185576131738582815181106131325761313261448b565b602002602001015185838151811061314c5761314c61448b565b60200260200101518584815181106131665761316661448b565b6020026020010151610684565b8061317d816144f8565b915050613114565b5050505050565b6000805160206147dd8339815191526131a481613432565b506000805160206147fd83398151915260005260cd60205260017f68995a606069a176802face6c7d97d018fa327ea1f57950103ab1e74298105c7557f68995a606069a176802face6c7d97d018fa327ea1f57950103ab1e74298105c855565b60008151116132255760405162461bcd60e51b815260040161073090614656565b60005b815181101561116b576132538282815181106132465761324661448b565b6020026020010151612ca4565b8061325d816144f8565b915050613228565b6001600160a01b038116600090815260ca60205260408120606091613289826137cf565b9050600081516001600160401b038111156132a6576132a6613da8565b60405190808252806020026020018201604052801561330457816020015b6132f1604051806060016040528060006001600160a01b0316815260200160008152602001600081525090565b8152602001906001900390816132c45790505b50905060005b82518110156133a35783600201600084838151811061332b5761332b61448b565b6020908102919091018101518252818101929092526040908101600020815160608101835281546001600160a01b03168152600182015493810193909352600201549082015282518390839081106133855761338561448b565b6020026020010181905250808061339b906144f8565b91505061330a565b50949350505050565b60008151116133cd5760405162461bcd60e51b815260040161073090614656565b60005b815181101561116b576133fb8282815181106133ee576133ee61448b565b6020026020010151610e23565b80613405816144f8565b9150506133d0565b60008281526097602052604090206001015461342881613432565b611194838361370a565b6112338133613890565b60335460ff16156134825760405162461bcd60e51b815260206004820152601060248201526f14185d5cd8589b194e881c185d5cd95960821b6044820152606401610730565b565b60008061349084611efb565b905060008151116134e35760405162461bcd60e51b815260206004820152601e60248201527f4e6f20747261696e696e672073657373696f6e7320617661696c61626c6500006044820152606401610730565b60005b815181101561352c57838282815181106135025761350261448b565b60200260200101510361351a5760019250505061067e565b80613524816144f8565b9150506134e6565b506000949350505050565b6040516370a0823160e01b8152306004820152600090739a8e0217cd870783c3f2317985c57bf570969153906370a0823190602401602060405180830381865afa158015613589573d6000803e3d6000fd5b505050506040513d601f19601f820116820180604052508101906135ad9190614511565b905080156112335760d25460405163a9059cbb60e01b81526001600160a01b03909116600482015260248101829052739a8e0217cd870783c3f2317985c57bf5709691539063a9059cbb906044016020604051808303816000875af115801561361a573d6000803e3d6000fd5b505050506040513d601f19601f8201168201806040525081019061116b9190614561565b600081815260018301602052604081205415155b9392505050565b600061365283836138e9565b600061067e825490565b6000613652836001600160a01b0384166138e9565b61368e82826128ca565b61116b5760008281526097602090815260408083206001600160a01b03851684529091529020805460ff191660011790556136c63390565b6001600160a01b0316816001600160a01b0316837f2f8788117e7eff1d82e926ec794901d17c78024a50270940304540a733656f0d60405160405180910390a45050565b61371482826128ca565b1561116b5760008281526097602090815260408083206001600160a01b0385168085529252808320805460ff1916905551339285917ff6391f5c32d9c69d2a47ea670b442974b53935d1edc7fd64eb21e047a839171b9190a45050565b6137796139dc565b6033805460ff191690557f5db9ee0a495bf2e6ff9c91a7834c1ba4fdd244a5e8aa4e537bd38aeae4b073aa335b6040516001600160a01b03909116815260200160405180910390a1565b60006136528383613a25565b6060600061365283613a4f565b600054610100900460ff166138035760405162461bcd60e51b815260040161073090614681565b613482613aab565b600054610100900460ff166134825760405162461bcd60e51b815260040161073090614681565b61383a61343c565b6033805460ff191660011790557f62e78cea01bee320cd4e420270b5ea74000d11b0c9f74754ebdbfc544b05a2586137a63390565b6000613652836001600160a01b038416613ade565b60006136528383613ade565b61389a82826128ca565b61116b576138a781613b2d565b6138b2836020613b3f565b6040516020016138c39291906146f0565b60408051601f198184030181529082905262461bcd60e51b825261073091600401614765565b600081815260018301602052604081205480156139d257600061390d600183614643565b855490915060009061392190600190614643565b90508181146139865760008660000182815481106139415761394161448b565b90600052602060002001549050808760000184815481106139645761396461448b565b6000918252602080832090910192909255918252600188019052604090208390555b855486908061399757613997614798565b60019003818190600052602060002001600090559055856001016000868152602001908152602001600020600090556001935050505061067e565b600091505061067e565b60335460ff166134825760405162461bcd60e51b815260206004820152601460248201527314185d5cd8589b194e881b9bdd081c185d5cd95960621b6044820152606401610730565b6000826000018281548110613a3c57613a3c61448b565b9060005260206000200154905092915050565b606081600001805480602002602001604051908101604052809291908181526020018280548015613a9f57602002820191906000526020600020905b815481526020019060010190808311613a8b575b50505050509050919050565b600054610100900460ff16613ad25760405162461bcd60e51b815260040161073090614681565b6033805460ff19169055565b6000818152600183016020526040812054613b255750815460018181018455600084815260208082209093018490558454848252828601909352604090209190915561067e565b50600061067e565b606061067e6001600160a01b03831660145b60606000613b4e8360026147ae565b613b5990600261454e565b6001600160401b03811115613b7057613b70613da8565b6040519080825280601f01601f191660200182016040528015613b9a576020820181803683370190505b509050600360fc1b81600081518110613bb557613bb561448b565b60200101906001600160f81b031916908160001a905350600f60fb1b81600181518110613be457613be461448b565b60200101906001600160f81b031916908160001a9053506000613c088460026147ae565b613c1390600161454e565b90505b6001811115613c8b576f181899199a1a9b1b9c1cb0b131b232b360811b85600f1660108110613c4757613c4761448b565b1a60f81b828281518110613c5d57613c5d61448b565b60200101906001600160f81b031916908160001a90535060049490941c93613c84816147c5565b9050613c16565b5083156136525760405162461bcd60e51b815260206004820181905260248201527f537472696e67733a20686578206c656e67746820696e73756666696369656e746044820152606401610730565b6040518060e0016040528060006001600160a01b031681526020016000815260200160008152602001600081526020016000815260200160008152602001600081525090565b508054600082559060005260206000209081019061123391905b80821115613d4e5760008155600101613d3a565b5090565b600060208284031215613d6457600080fd5b81356001600160e01b03198116811461365257600080fd5b600080600060608486031215613d9157600080fd5b505081359360208301359350604090920135919050565b634e487b7160e01b600052604160045260246000fd5b604051601f8201601f191681016001600160401b0381118282101715613de657613de6613da8565b604052919050565b60006001600160401b03821115613e0757613e07613da8565b5060051b60200190565b6001600160a01b038116811461123357600080fd5b600082601f830112613e3757600080fd5b81356020613e4c613e4783613dee565b613dbe565b82815260059290921b84018101918181019086841115613e6b57600080fd5b8286015b84811015613e865780358352918301918301613e6f565b509695505050505050565b60008060408385031215613ea457600080fd5b82356001600160401b0380821115613ebb57600080fd5b818501915085601f830112613ecf57600080fd5b81356020613edf613e4783613dee565b82815260059290921b84018101918181019089841115613efe57600080fd5b948201945b83861015613f25578535613f1681613e11565b82529482019490820190613f03565b96505086013592505080821115613f3b57600080fd5b50613f4885828601613e26565b9150509250929050565b600080600080600060808688031215613f6a57600080fd5b8535613f7581613e11565b94506020860135613f8581613e11565b93506040860135925060608601356001600160401b0380821115613fa857600080fd5b818801915088601f830112613fbc57600080fd5b813581811115613fcb57600080fd5b896020828501011115613fdd57600080fd5b9699959850939650602001949392505050565b6000806040838503121561400357600080fd5b50508035926020909101359150565b60006020828403121561402457600080fd5b5035919050565b60006020828403121561403d57600080fd5b81356001600160401b0381111561405357600080fd5b61405f84828501613e26565b949350505050565b6000806040838503121561407a57600080fd5b82359150602083013561408c81613e11565b809150509250929050565b600080604083850312156140aa57600080fd5b82356001600160401b03808211156140c157600080fd5b6140cd86838701613e26565b93506020850135915080821115613f3b57600080fd5b600081518084526020808501945080840160005b8381101561413257815180516001600160a01b03168852838101518489015260409081015190880152606090960195908201906001016140f7565b509495945050505050565b604080825283519082018190526000906020906060840190828701845b8281101561417f5781516001600160a01b03168452928401929084019060010161415a565b50505083810382850152845180825282820190600581901b8301840187850160005b838110156141cf57601f198684030185526141bd8383516140e3565b948701949250908601906001016141a1565b50909998505050505050505050565b6000806000606084860312156141f357600080fd5b83356001600160401b038082111561420a57600080fd5b61421687838801613e26565b9450602086013591508082111561422c57600080fd5b61423887838801613e26565b9350604086013591508082111561424e57600080fd5b5061425b86828701613e26565b9150509250925092565b60008060008060008060c0878903121561427e57600080fd5b863561428981613e11565b9550602087013561429981613e11565b945060408701359350606087013592506080870135915060a08701356001600160401b038111156142c957600080fd5b6142d589828a01613e26565b9150509295509295509295565b600080604083850312156142f557600080fd5b823561430081613e11565b946020939093013593505050565b80516001600160a01b031682526020808201519083015260408082015190830152606080820151908301526080808201519083015260a0818101519083015260c090810151910152565b60e0810161067e828461430e565b6020808252825182820181905260009190848201906040850190845b8181101561276357835183529284019291840191600101614382565b6000806000606084860312156143b357600080fd5b83356143be81613e11565b95602085013595506040909401359392505050565b6000602082840312156143e557600080fd5b813561365281613e11565b6020808252825182820181905260009190848201906040850190845b818110156127635761441f83855161430e565b9284019260e0929092019160010161440c565b6000806000806080858703121561444857600080fd5b843561445381613e11565b9350602085013561446381613e11565b93969395505050506040820135916060013590565b60208152600061365260208301846140e3565b634e487b7160e01b600052603260045260246000fd5b6000602082840312156144b357600080fd5b815161365281613e11565b6001600160a01b039384168152919092166020820152604081019190915260600190565b634e487b7160e01b600052601160045260246000fd5b60006001820161450a5761450a6144e2565b5060010190565b60006020828403121561452357600080fd5b5051919050565b6020808252600a9082015269139bdd081cdd185ad95960b21b604082015260600190565b8082018082111561067e5761067e6144e2565b60006020828403121561457357600080fd5b8151801515811461365257600080fd5b602080825260149082015273746f6b656e49647320617272617920656d70747960601b604082015260600190565b60208082526028908201527f6d6178506f696e7473506572536b696c6c206d75737420626520677265617465604082015267072207468616e20360c41b606082015260800190565b6020808252602a908201527f737461727454696d65206d7573742062652061206675747572652074696d6520604082015269696e207365636f6e647360b01b606082015260800190565b8181038181111561067e5761067e6144e2565b602080825260119082015270746f6b656e20617272617920656d70747960781b604082015260600190565b6020808252602b908201527f496e697469616c697a61626c653a20636f6e7472616374206973206e6f74206960408201526a6e697469616c697a696e6760a81b606082015260800190565b60005b838110156146e75781810151838201526020016146cf565b50506000910152565b7f416363657373436f6e74726f6c3a206163636f756e74200000000000000000008152600083516147288160178501602088016146cc565b7001034b99036b4b9b9b4b733903937b6329607d1b60179184019182015283516147598160288401602088016146cc565b01602801949350505050565b60208152600082518060208401526147848160408501602087016146cc565b601f01601f19169190910160400192915050565b634e487b7160e01b600052603160045260246000fd5b808202811582820484141761067e5761067e6144e2565b6000816147d4576147d46144e2565b50600019019056fea49807205ce4d355092ef5a8a18f56e8913cf4a201fbe287825b095693c21775000000000000000000000000bf20c23d25fca8aa4e7946496250d67872691af2a26469706673582212207e34358a2ed3056cad4250713e4df15751c5b80c91d55552942f9b68278fdce164736f6c63430008110033",
  "linkReferences": {},
  "deployedLinkReferences": {}
}