{
  "_format": "hh-sol-artifact-1",
  "contractName": "ProfessionStakingAvalanche",
  "sourceName": "contracts/upgradeable/npc/ProfessionStaking/Avalanche/ProfessionStakingAvalanche.sol",
  "abi": [
    {
      "inputs": [],
      "stateMutability": "nonpayable",
      "type": "constructor"
    },
    {
      "anonymous": false,
      "inputs": [
        {
          "indexed": true,
          "internalType": "address",
          "name": "by",
          "type": "address"
        },
        {
          "indexed": true,
          "internalType": "address",
          "name": "token",
          "type": "address"
        },
        {
          "indexed": false,
          "internalType": "uint256",
          "name": "amount",
          "type": "uint256"
        }
      ],
      "name": "Claimed",
      "type": "event"
    },
    {
      "anonymous": false,
      "inputs": [
        {
          "indexed": false,
          "internalType": "uint8",
          "name": "version",
          "type": "uint8"
        }
      ],
      "name": "Initialized",
      "type": "event"
    },
    {
      "anonymous": false,
      "inputs": [
        {
          "indexed": false,
          "internalType": "address",
          "name": "account",
          "type": "address"
        }
      ],
      "name": "Paused",
      "type": "event"
    },
    {
      "anonymous": false,
      "inputs": [
        {
          "indexed": true,
          "internalType": "address",
          "name": "from",
          "type": "address"
        },
        {
          "indexed": true,
          "internalType": "address",
          "name": "token",
          "type": "address"
        },
        {
          "indexed": false,
          "internalType": "uint256",
          "name": "amount",
          "type": "uint256"
        }
      ],
      "name": "PoolRewardsDeposited",
      "type": "event"
    },
    {
      "anonymous": false,
      "inputs": [
        {
          "indexed": true,
          "internalType": "address",
          "name": "by",
          "type": "address"
        },
        {
          "indexed": true,
          "internalType": "address",
          "name": "to",
          "type": "address"
        },
        {
          "indexed": true,
          "internalType": "address",
          "name": "token",
          "type": "address"
        },
        {
          "indexed": false,
          "internalType": "uint256",
          "name": "amount",
          "type": "uint256"
        }
      ],
      "name": "PoolRewardsWithdrawn",
      "type": "event"
    },
    {
      "anonymous": false,
      "inputs": [
        {
          "indexed": true,
          "internalType": "bytes32",
          "name": "role",
          "type": "bytes32"
        },
        {
          "indexed": true,
          "internalType": "bytes32",
          "name": "previousAdminRole",
          "type": "bytes32"
        },
        {
          "indexed": true,
          "internalType": "bytes32",
          "name": "newAdminRole",
          "type": "bytes32"
        }
      ],
      "name": "RoleAdminChanged",
      "type": "event"
    },
    {
      "anonymous": false,
      "inputs": [
        {
          "indexed": true,
          "internalType": "bytes32",
          "name": "role",
          "type": "bytes32"
        },
        {
          "indexed": true,
          "internalType": "address",
          "name": "account",
          "type": "address"
        },
        {
          "indexed": true,
          "internalType": "address",
          "name": "sender",
          "type": "address"
        }
      ],
      "name": "RoleGranted",
      "type": "event"
    },
    {
      "anonymous": false,
      "inputs": [
        {
          "indexed": true,
          "internalType": "bytes32",
          "name": "role",
          "type": "bytes32"
        },
        {
          "indexed": true,
          "internalType": "address",
          "name": "account",
          "type": "address"
        },
        {
          "indexed": true,
          "internalType": "address",
          "name": "sender",
          "type": "address"
        }
      ],
      "name": "RoleRevoked",
      "type": "event"
    },
    {
      "anonymous": false,
      "inputs": [
        {
          "indexed": true,
          "internalType": "address",
          "name": "from",
          "type": "address"
        },
        {
          "indexed": true,
          "internalType": "address",
          "name": "nftAddress",
          "type": "address"
        },
        {
          "indexed": false,
          "internalType": "uint256",
          "name": "tokenId",
          "type": "uint256"
        }
      ],
      "name": "Staked",
      "type": "event"
    },
    {
      "anonymous": false,
      "inputs": [
        {
          "indexed": true,
          "internalType": "address",
          "name": "nftAddress",
          "type": "address"
        },
        {
          "indexed": false,
          "internalType": "address",
          "name": "rewardToken",
          "type": "address"
        },
        {
          "indexed": false,
          "internalType": "uint256",
          "name": "startTime",
          "type": "uint256"
        }
      ],
      "name": "StakingConfigCreated",
      "type": "event"
    },
    {
      "anonymous": false,
      "inputs": [
        {
          "indexed": true,
          "internalType": "address",
          "name": "nftAddress",
          "type": "address"
        }
      ],
      "name": "StakingConfigDeleted",
      "type": "event"
    },
    {
      "anonymous": false,
      "inputs": [
        {
          "indexed": true,
          "internalType": "address",
          "name": "nftAddress",
          "type": "address"
        },
        {
          "indexed": false,
          "internalType": "address",
          "name": "rewardToken",
          "type": "address"
        },
        {
          "indexed": false,
          "internalType": "uint256",
          "name": "startTime",
          "type": "uint256"
        }
      ],
      "name": "StakingConfigUpdated",
      "type": "event"
    },
    {
      "anonymous": false,
      "inputs": [
        {
          "indexed": true,
          "internalType": "address",
          "name": "by",
          "type": "address"
        },
        {
          "indexed": true,
          "internalType": "address",
          "name": "nftAddress",
          "type": "address"
        },
        {
          "indexed": false,
          "internalType": "uint256",
          "name": "tokenId",
          "type": "uint256"
        }
      ],
      "name": "StakingUnlocked",
      "type": "event"
    },
    {
      "anonymous": false,
      "inputs": [
        {
          "indexed": true,
          "internalType": "address",
          "name": "by",
          "type": "address"
        },
        {
          "indexed": true,
          "internalType": "address",
          "name": "nftAddress",
          "type": "address"
        },
        {
          "indexed": false,
          "internalType": "uint256",
          "name": "tokenId",
          "type": "uint256"
        },
        {
          "indexed": false,
          "internalType": "uint256",
          "name": "treeId",
          "type": "uint256"
        },
        {
          "indexed": false,
          "internalType": "uint256",
          "name": "skillId",
          "type": "uint256"
        },
        {
          "indexed": false,
          "internalType": "uint256",
          "name": "canceledAt",
          "type": "uint256"
        }
      ],
      "name": "TrainingCanceled",
      "type": "event"
    },
    {
      "anonymous": false,
      "inputs": [
        {
          "indexed": true,
          "internalType": "address",
          "name": "by",
          "type": "address"
        },
        {
          "indexed": true,
          "internalType": "address",
          "name": "nftAddress",
          "type": "address"
        },
        {
          "indexed": false,
          "internalType": "uint256",
          "name": "tokenId",
          "type": "uint256"
        },
        {
          "indexed": false,
          "internalType": "uint256",
          "name": "treeId",
          "type": "uint256"
        },
        {
          "indexed": false,
          "internalType": "uint256",
          "name": "skillId",
          "type": "uint256"
        },
        {
          "indexed": false,
          "internalType": "uint256",
          "name": "level",
          "type": "uint256"
        }
      ],
      "name": "TrainingFinished",
      "type": "event"
    },
    {
      "anonymous": false,
      "inputs": [
        {
          "indexed": true,
          "internalType": "address",
          "name": "by",
          "type": "address"
        },
        {
          "indexed": true,
          "internalType": "address",
          "name": "nftAddress",
          "type": "address"
        },
        {
          "indexed": false,
          "internalType": "uint256",
          "name": "tokenId",
          "type": "uint256"
        },
        {
          "indexed": false,
          "internalType": "uint256",
          "name": "treeId",
          "type": "uint256"
        },
        {
          "indexed": false,
          "internalType": "uint256",
          "name": "skillId",
          "type": "uint256"
        },
        {
          "indexed": false,
          "internalType": "uint256",
          "name": "level",
          "type": "uint256"
        },
        {
          "indexed": false,
          "internalType": "uint256",
          "name": "startedAt",
          "type": "uint256"
        },
        {
          "indexed": false,
          "internalType": "uint256",
          "name": "completeAt",
          "type": "uint256"
        }
      ],
      "name": "TrainingStarted",
      "type": "event"
    },
    {
      "anonymous": false,
      "inputs": [
        {
          "indexed": false,
          "internalType": "address",
          "name": "account",
          "type": "address"
        }
      ],
      "name": "Unpaused",
      "type": "event"
    },
    {
      "anonymous": false,
      "inputs": [
        {
          "indexed": true,
          "internalType": "address",
          "name": "from",
          "type": "address"
        },
        {
          "indexed": true,
          "internalType": "address",
          "name": "nftAddress",
          "type": "address"
        },
        {
          "indexed": false,
          "internalType": "uint256",
          "name": "tokenId",
          "type": "uint256"
        }
      ],
      "name": "Unstaked",
      "type": "event"
    },
    {
      "inputs": [],
      "name": "ADMIN_ROLE",
      "outputs": [
        {
          "internalType": "bytes32",
          "name": "",
          "type": "bytes32"
        }
      ],
      "stateMutability": "view",
      "type": "function"
    },
    {
      "inputs": [],
      "name": "DEFAULT_ADMIN_ROLE",
      "outputs": [
        {
          "internalType": "bytes32",
          "name": "",
          "type": "bytes32"
        }
      ],
      "stateMutability": "view",
      "type": "function"
    },
    {
      "inputs": [],
      "name": "_depositFee",
      "outputs": [],
      "stateMutability": "nonpayable",
      "type": "function"
    },
    {
      "inputs": [
        {
          "internalType": "address[]",
          "name": "addresses",
          "type": "address[]"
        },
        {
          "internalType": "uint256[]",
          "name": "tokenIds",
          "type": "uint256[]"
        },
        {
          "internalType": "uint256[]",
          "name": "rewardFrom",
          "type": "uint256[]"
        }
      ],
      "name": "adminBatchUpdateNftData",
      "outputs": [],
      "stateMutability": "nonpayable",
      "type": "function"
    },
    {
      "inputs": [
        {
          "internalType": "address[]",
          "name": "addresses",
          "type": "address[]"
        }
      ],
      "name": "adminClaim",
      "outputs": [],
      "stateMutability": "nonpayable",
      "type": "function"
    },
    {
      "inputs": [
        {
          "internalType": "address",
          "name": "_address",
          "type": "address"
        },
        {
          "internalType": "uint256",
          "name": "tokenId",
          "type": "uint256"
        },
        {
          "internalType": "uint256",
          "name": "rewardFrom",
          "type": "uint256"
        }
      ],
      "name": "adminUpdateNftData",
      "outputs": [],
      "stateMutability": "nonpayable",
      "type": "function"
    },
    {
      "inputs": [
        {
          "internalType": "address[]",
          "name": "nftAddresses",
          "type": "address[]"
        },
        {
          "internalType": "uint256[]",
          "name": "tokenIds",
          "type": "uint256[]"
        }
      ],
      "name": "batchCancelTraining",
      "outputs": [],
      "stateMutability": "nonpayable",
      "type": "function"
    },
    {
      "inputs": [
        {
          "internalType": "address[]",
          "name": "nftAddresses",
          "type": "address[]"
        },
        {
          "internalType": "uint256[]",
          "name": "tokenIds",
          "type": "uint256[]"
        }
      ],
      "name": "batchEnableStaking",
      "outputs": [],
      "stateMutability": "nonpayable",
      "type": "function"
    },
    {
      "inputs": [
        {
          "internalType": "address[]",
          "name": "nftAddresses",
          "type": "address[]"
        },
        {
          "internalType": "uint256[]",
          "name": "tokenIds",
          "type": "uint256[]"
        }
      ],
      "name": "batchFinishTraining",
      "outputs": [],
      "stateMutability": "nonpayable",
      "type": "function"
    },
    {
      "inputs": [
        {
          "internalType": "address",
          "name": "nftAddress",
          "type": "address"
        },
        {
          "internalType": "uint256[]",
          "name": "level",
          "type": "uint256[]"
        },
        {
          "internalType": "uint256[]",
          "name": "cost",
          "type": "uint256[]"
        },
        {
          "internalType": "uint256[]",
          "name": "time",
          "type": "uint256[]"
        }
      ],
      "name": "batchSetTrainingCosts",
      "outputs": [],
      "stateMutability": "nonpayable",
      "type": "function"
    },
    {
      "inputs": [
        {
          "internalType": "address[]",
          "name": "nftAddresses",
          "type": "address[]"
        },
        {
          "internalType": "uint256[]",
          "name": "tokenIds",
          "type": "uint256[]"
        }
      ],
      "name": "batchStake",
      "outputs": [],
      "stateMutability": "nonpayable",
      "type": "function"
    },
    {
      "inputs": [
        {
          "internalType": "address[]",
          "name": "nftAddresses",
          "type": "address[]"
        },
        {
          "internalType": "uint256[]",
          "name": "tokenIds",
          "type": "uint256[]"
        },
        {
          "internalType": "uint256[]",
          "name": "treeIds",
          "type": "uint256[]"
        },
        {
          "internalType": "uint256[]",
          "name": "skillIds",
          "type": "uint256[]"
        }
      ],
      "name": "batchStartTraining",
      "outputs": [],
      "stateMutability": "nonpayable",
      "type": "function"
    },
    {
      "inputs": [
        {
          "internalType": "address[]",
          "name": "nftAddresses",
          "type": "address[]"
        },
        {
          "internalType": "uint256[]",
          "name": "tokenIds",
          "type": "uint256[]"
        }
      ],
      "name": "batchUnstake",
      "outputs": [],
      "stateMutability": "nonpayable",
      "type": "function"
    },
    {
      "inputs": [
        {
          "internalType": "address",
          "name": "nftAddress",
          "type": "address"
        },
        {
          "internalType": "uint256",
          "name": "tokenId",
          "type": "uint256"
        }
      ],
      "name": "cancelTraining",
      "outputs": [],
      "stateMutability": "nonpayable",
      "type": "function"
    },
    {
      "inputs": [],
      "name": "claim",
      "outputs": [],
      "stateMutability": "nonpayable",
      "type": "function"
    },
    {
      "inputs": [
        {
          "internalType": "address",
          "name": "stakingToken",
          "type": "address"
        },
        {
          "internalType": "address",
          "name": "rewardToken",
          "type": "address"
        },
        {
          "internalType": "uint256",
          "name": "startTime",
          "type": "uint256"
        },
        {
          "internalType": "uint256",
          "name": "maxPointsPerSkill",
          "type": "uint256"
        },
        {
          "internalType": "uint256",
          "name": "treeId",
          "type": "uint256"
        },
        {
          "internalType": "uint256[]",
          "name": "skillIds",
          "type": "uint256[]"
        }
      ],
      "name": "createStakingConfig",
      "outputs": [],
      "stateMutability": "nonpayable",
      "type": "function"
    },
    {
      "inputs": [
        {
          "internalType": "address",
          "name": "nftAddress",
          "type": "address"
        }
      ],
      "name": "deleteStakingConfig",
      "outputs": [],
      "stateMutability": "nonpayable",
      "type": "function"
    },
    {
      "inputs": [
        {
          "internalType": "address",
          "name": "nftAddress",
          "type": "address"
        },
        {
          "internalType": "uint256",
          "name": "tokenId",
          "type": "uint256"
        }
      ],
      "name": "enableStaking",
      "outputs": [],
      "stateMutability": "nonpayable",
      "type": "function"
    },
    {
      "inputs": [
        {
          "internalType": "address",
          "name": "nftAddress",
          "type": "address"
        },
        {
          "internalType": "uint256",
          "name": "tokenId",
          "type": "uint256"
        }
      ],
      "name": "finishTraining",
      "outputs": [],
      "stateMutability": "nonpayable",
      "type": "function"
    },
    {
      "inputs": [
        {
          "internalType": "address",
          "name": "_address",
          "type": "address"
        },
        {
          "internalType": "address",
          "name": "nftAddress",
          "type": "address"
        },
        {
          "internalType": "uint256",
          "name": "tokenId",
          "type": "uint256"
        }
      ],
      "name": "forceCancelTraining",
      "outputs": [],
      "stateMutability": "nonpayable",
      "type": "function"
    },
    {
      "inputs": [],
      "name": "getActiveTraining",
      "outputs": [
        {
          "components": [
            {
              "internalType": "address",
              "name": "_address",
              "type": "address"
            },
            {
              "internalType": "uint256",
              "name": "tokenId",
              "type": "uint256"
            },
            {
              "internalType": "uint256",
              "name": "level",
              "type": "uint256"
            },
            {
              "internalType": "uint256",
              "name": "treeId",
              "type": "uint256"
            },
            {
              "internalType": "uint256",
              "name": "skillId",
              "type": "uint256"
            },
            {
              "internalType": "uint256",
              "name": "startedAt",
              "type": "uint256"
            },
            {
              "internalType": "uint256",
              "name": "completeAt",
              "type": "uint256"
            }
          ],
          "internalType": "struct ProfessionStakingAvalanche.TrainingStatus[]",
          "name": "",
          "type": "tuple[]"
        }
      ],
      "stateMutability": "view",
      "type": "function"
    },
    {
      "inputs": [
        {
          "internalType": "address",
          "name": "_address",
          "type": "address"
        }
      ],
      "name": "getActiveTrainingOf",
      "outputs": [
        {
          "components": [
            {
              "internalType": "address",
              "name": "_address",
              "type": "address"
            },
            {
              "internalType": "uint256",
              "name": "tokenId",
              "type": "uint256"
            },
            {
              "internalType": "uint256",
              "name": "level",
              "type": "uint256"
            },
            {
              "internalType": "uint256",
              "name": "treeId",
              "type": "uint256"
            },
            {
              "internalType": "uint256",
              "name": "skillId",
              "type": "uint256"
            },
            {
              "internalType": "uint256",
              "name": "startedAt",
              "type": "uint256"
            },
            {
              "internalType": "uint256",
              "name": "completeAt",
              "type": "uint256"
            }
          ],
          "internalType": "struct ProfessionStakingAvalanche.TrainingStatus[]",
          "name": "",
          "type": "tuple[]"
        }
      ],
      "stateMutability": "view",
      "type": "function"
    },
    {
      "inputs": [],
      "name": "getAllParticipantData",
      "outputs": [
        {
          "internalType": "address[]",
          "name": "addresses",
          "type": "address[]"
        },
        {
          "components": [
            {
              "internalType": "address",
              "name": "_address",
              "type": "address"
            },
            {
              "internalType": "uint256",
              "name": "tokenId",
              "type": "uint256"
            },
            {
              "internalType": "uint256",
              "name": "rewardFrom",
              "type": "uint256"
            }
          ],
          "internalType": "struct ProfessionStakingAvalanche.NFT[][]",
          "name": "nfts",
          "type": "tuple[][]"
        },
        {
          "internalType": "uint256[]",
          "name": "rewards",
          "type": "uint256[]"
        }
      ],
      "stateMutability": "view",
      "type": "function"
    },
    {
      "inputs": [
        {
          "internalType": "address",
          "name": "nftAddress",
          "type": "address"
        },
        {
          "internalType": "uint256",
          "name": "tokenId",
          "type": "uint256"
        }
      ],
      "name": "getAllowedSkillChoices",
      "outputs": [
        {
          "internalType": "uint256[]",
          "name": "",
          "type": "uint256[]"
        }
      ],
      "stateMutability": "view",
      "type": "function"
    },
    {
      "inputs": [
        {
          "internalType": "bytes32",
          "name": "role",
          "type": "bytes32"
        }
      ],
      "name": "getRoleAdmin",
      "outputs": [
        {
          "internalType": "bytes32",
          "name": "",
          "type": "bytes32"
        }
      ],
      "stateMutability": "view",
      "type": "function"
    },
    {
      "inputs": [],
      "name": "getStaked",
      "outputs": [
        {
          "components": [
            {
              "internalType": "address",
              "name": "_address",
              "type": "address"
            },
            {
              "internalType": "uint256",
              "name": "tokenId",
              "type": "uint256"
            },
            {
              "internalType": "uint256",
              "name": "rewardFrom",
              "type": "uint256"
            }
          ],
          "internalType": "struct ProfessionStakingAvalanche.NFT[]",
          "name": "",
          "type": "tuple[]"
        }
      ],
      "stateMutability": "view",
      "type": "function"
    },
    {
      "inputs": [
        {
          "internalType": "address",
          "name": "_address",
          "type": "address"
        }
      ],
      "name": "getStakedOf",
      "outputs": [
        {
          "components": [
            {
              "internalType": "address",
              "name": "_address",
              "type": "address"
            },
            {
              "internalType": "uint256",
              "name": "tokenId",
              "type": "uint256"
            },
            {
              "internalType": "uint256",
              "name": "rewardFrom",
              "type": "uint256"
            }
          ],
          "internalType": "struct ProfessionStakingAvalanche.NFT[]",
          "name": "",
          "type": "tuple[]"
        }
      ],
      "stateMutability": "view",
      "type": "function"
    },
    {
      "inputs": [
        {
          "internalType": "address",
          "name": "nftAddress",
          "type": "address"
        },
        {
          "internalType": "uint256",
          "name": "tokenId",
          "type": "uint256"
        }
      ],
      "name": "getTotalProfessionSkillPoints",
      "outputs": [
        {
          "internalType": "uint256",
          "name": "",
          "type": "uint256"
        }
      ],
      "stateMutability": "view",
      "type": "function"
    },
    {
      "inputs": [
        {
          "internalType": "address",
          "name": "_address",
          "type": "address"
        },
        {
          "internalType": "address",
          "name": "nftAddress",
          "type": "address"
        },
        {
          "internalType": "uint256",
          "name": "tokenId",
          "type": "uint256"
        }
      ],
      "name": "getTrainingStatus",
      "outputs": [
        {
          "components": [
            {
              "internalType": "address",
              "name": "_address",
              "type": "address"
            },
            {
              "internalType": "uint256",
              "name": "tokenId",
              "type": "uint256"
            },
            {
              "internalType": "uint256",
              "name": "level",
              "type": "uint256"
            },
            {
              "internalType": "uint256",
              "name": "treeId",
              "type": "uint256"
            },
            {
              "internalType": "uint256",
              "name": "skillId",
              "type": "uint256"
            },
            {
              "internalType": "uint256",
              "name": "startedAt",
              "type": "uint256"
            },
            {
              "internalType": "uint256",
              "name": "completeAt",
              "type": "uint256"
            }
          ],
          "internalType": "struct ProfessionStakingAvalanche.TrainingStatus",
          "name": "",
          "type": "tuple"
        }
      ],
      "stateMutability": "view",
      "type": "function"
    },
    {
      "inputs": [
        {
          "internalType": "bytes32",
          "name": "role",
          "type": "bytes32"
        },
        {
          "internalType": "address",
          "name": "account",
          "type": "address"
        }
      ],
      "name": "grantRole",
      "outputs": [],
      "stateMutability": "nonpayable",
      "type": "function"
    },
    {
      "inputs": [
        {
          "internalType": "bytes32",
          "name": "role",
          "type": "bytes32"
        },
        {
          "internalType": "address",
          "name": "account",
          "type": "address"
        }
      ],
      "name": "hasRole",
      "outputs": [
        {
          "internalType": "bool",
          "name": "",
          "type": "bool"
        }
      ],
      "stateMutability": "view",
      "type": "function"
    },
    {
      "inputs": [],
      "name": "initialize",
      "outputs": [],
      "stateMutability": "nonpayable",
      "type": "function"
    },
    {
      "inputs": [
        {
          "internalType": "uint256",
          "name": "tokenId",
          "type": "uint256"
        },
        {
          "internalType": "address",
          "name": "owner",
          "type": "address"
        }
      ],
      "name": "isOwner",
      "outputs": [
        {
          "internalType": "bool",
          "name": "",
          "type": "bool"
        }
      ],
      "stateMutability": "view",
      "type": "function"
    },
    {
      "inputs": [
        {
          "internalType": "address",
          "name": "nftAddress",
          "type": "address"
        },
        {
          "internalType": "uint256",
          "name": "tokenId",
          "type": "uint256"
        }
      ],
      "name": "isStakingEnabled",
      "outputs": [
        {
          "internalType": "bool",
          "name": "",
          "type": "bool"
        }
      ],
      "stateMutability": "view",
      "type": "function"
    },
    {
      "inputs": [
        {
          "internalType": "address",
          "name": "_address",
          "type": "address"
        },
        {
          "internalType": "address",
          "name": "nftAddress",
          "type": "address"
        },
        {
          "internalType": "uint256",
          "name": "tokenId",
          "type": "uint256"
        },
        {
          "internalType": "uint256",
          "name": "skillId",
          "type": "uint256"
        }
      ],
      "name": "modifyActiveTrainingSkill",
      "outputs": [],
      "stateMutability": "nonpayable",
      "type": "function"
    },
    {
      "inputs": [
        {
          "internalType": "address",
          "name": "",
          "type": "address"
        },
        {
          "internalType": "address",
          "name": "",
          "type": "address"
        },
        {
          "internalType": "uint256",
          "name": "",
          "type": "uint256"
        },
        {
          "internalType": "bytes",
          "name": "",
          "type": "bytes"
        }
      ],
      "name": "onERC721Received",
      "outputs": [
        {
          "internalType": "bytes4",
          "name": "",
          "type": "bytes4"
        }
      ],
      "stateMutability": "pure",
      "type": "function"
    },
    {
      "inputs": [],
      "name": "pause",
      "outputs": [],
      "stateMutability": "nonpayable",
      "type": "function"
    },
    {
      "inputs": [],
      "name": "paused",
      "outputs": [
        {
          "internalType": "bool",
          "name": "",
          "type": "bool"
        }
      ],
      "stateMutability": "view",
      "type": "function"
    },
    {
      "inputs": [],
      "name": "pendingRewards",
      "outputs": [
        {
          "internalType": "uint256",
          "name": "",
          "type": "uint256"
        }
      ],
      "stateMutability": "pure",
      "type": "function"
    },
    {
      "inputs": [
        {
          "internalType": "address",
          "name": "",
          "type": "address"
        }
      ],
      "name": "pendingRewardsOf",
      "outputs": [
        {
          "internalType": "uint256",
          "name": "",
          "type": "uint256"
        }
      ],
      "stateMutability": "pure",
      "type": "function"
    },
    {
      "inputs": [
        {
          "internalType": "bytes32",
          "name": "role",
          "type": "bytes32"
        },
        {
          "internalType": "address",
          "name": "account",
          "type": "address"
        }
      ],
      "name": "renounceRole",
      "outputs": [],
      "stateMutability": "nonpayable",
      "type": "function"
    },
    {
      "inputs": [
        {
          "internalType": "bytes32",
          "name": "role",
          "type": "bytes32"
        },
        {
          "internalType": "address",
          "name": "account",
          "type": "address"
        }
      ],
      "name": "revokeRole",
      "outputs": [],
      "stateMutability": "nonpayable",
      "type": "function"
    },
    {
      "inputs": [
        {
          "internalType": "address",
          "name": "nftAddress",
          "type": "address"
        },
        {
          "internalType": "uint256",
          "name": "treeId",
          "type": "uint256"
        },
        {
          "internalType": "uint256",
          "name": "skillId",
          "type": "uint256"
        }
      ],
      "name": "setSkillPointer",
      "outputs": [],
      "stateMutability": "nonpayable",
      "type": "function"
    },
    {
      "inputs": [
        {
          "internalType": "address",
          "name": "nftAddress",
          "type": "address"
        },
        {
          "internalType": "uint256",
          "name": "level",
          "type": "uint256"
        },
        {
          "internalType": "uint256",
          "name": "cost",
          "type": "uint256"
        },
        {
          "internalType": "uint256",
          "name": "time",
          "type": "uint256"
        }
      ],
      "name": "setTrainingCost",
      "outputs": [],
      "stateMutability": "nonpayable",
      "type": "function"
    },
    {
      "inputs": [
        {
          "internalType": "address",
          "name": "nftAddress",
          "type": "address"
        },
        {
          "internalType": "uint256[]",
          "name": "levels",
          "type": "uint256[]"
        },
        {
          "internalType": "uint256[]",
          "name": "times",
          "type": "uint256[]"
        },
        {
          "internalType": "uint256[]",
          "name": "costs",
          "type": "uint256[]"
        }
      ],
      "name": "setTrainingLevelConfig",
      "outputs": [],
      "stateMutability": "nonpayable",
      "type": "function"
    },
    {
      "inputs": [
        {
          "internalType": "address",
          "name": "nftAddress",
          "type": "address"
        },
        {
          "internalType": "uint256",
          "name": "tokenId",
          "type": "uint256"
        }
      ],
      "name": "stake",
      "outputs": [],
      "stateMutability": "nonpayable",
      "type": "function"
    },
    {
      "inputs": [
        {
          "internalType": "address",
          "name": "nftAddress",
          "type": "address"
        },
        {
          "internalType": "uint256",
          "name": "tokenId",
          "type": "uint256"
        },
        {
          "internalType": "uint256",
          "name": "treeId",
          "type": "uint256"
        },
        {
          "internalType": "uint256",
          "name": "skillId",
          "type": "uint256"
        }
      ],
      "name": "startTraining",
      "outputs": [],
      "stateMutability": "nonpayable",
      "type": "function"
    },
    {
      "inputs": [
        {
          "internalType": "bytes4",
          "name": "interfaceId",
          "type": "bytes4"
        }
      ],
      "name": "supportsInterface",
      "outputs": [
        {
          "internalType": "bool",
          "name": "",
          "type": "bool"
        }
      ],
      "stateMutability": "view",
      "type": "function"
    },
    {
      "inputs": [],
      "name": "treasury",
      "outputs": [
        {
          "internalType": "address",
          "name": "",
          "type": "address"
        }
      ],
      "stateMutability": "view",
      "type": "function"
    },
    {
      "inputs": [],
      "name": "unpause",
      "outputs": [],
      "stateMutability": "nonpayable",
      "type": "function"
    },
    {
      "inputs": [
        {
          "internalType": "address",
          "name": "nftAddress",
          "type": "address"
        },
        {
          "internalType": "uint256",
          "name": "tokenId",
          "type": "uint256"
        }
      ],
      "name": "unstake",
      "outputs": [],
      "stateMutability": "nonpayable",
      "type": "function"
    },
    {
      "inputs": [
        {
          "internalType": "address",
          "name": "nftAddress",
          "type": "address"
        },
        {
          "internalType": "contract IERC20Upgradeable",
          "name": "rewardToken",
          "type": "address"
        },
        {
          "internalType": "uint256",
          "name": "startTime",
          "type": "uint256"
        },
        {
          "internalType": "uint256",
          "name": "maxPointsPerSkill",
          "type": "uint256"
        }
      ],
      "name": "updateStakingConfig",
      "outputs": [],
      "stateMutability": "nonpayable",
      "type": "function"
    },
    {
      "inputs": [],
      "name": "withdrawPoolRewards",
      "outputs": [],
      "stateMutability": "nonpayable",
      "type": "function"
    }
  ],
  "bytecode": "0x60806040523480156200001157600080fd5b506200001c62000022565b620000e4565b600054610100900460ff16156200008f5760405162461bcd60e51b815260206004820152602760248201527f496e697469616c697a61626c653a20636f6e747261637420697320696e697469604482015266616c697a696e6760c81b606482015260840160405180910390fd5b60005460ff9081161015620000e2576000805460ff191660ff9081179091556040519081527f7f26b83ff96e1f2b6a682f133852f6798a09c465da95921460cefb38474024989060200160405180910390a15b565b61585880620000f46000396000f3fe608060405234801561001057600080fd5b50600436106103275760003560e01c806381fda71d116101b8578063be29c92511610104578063d6d42659116100a2578063e2a7669c1161007c578063e2a7669c1461072a578063e62ccc9c1461073d578063eded3fda14610750578063fa5887ee1461075757600080fd5b8063d6d42659146106fc578063d9a2c1d214610704578063df6e7e6f1461071757600080fd5b8063c75fb3e3116100de578063c75fb3e3146106b0578063ca614660146106c3578063cc3f7b1c146106d6578063d547741f146106e957600080fd5b8063be29c92514610675578063c2a672e014610688578063c59abf9f1461069b57600080fd5b8063a217fddf11610171578063adc9772e1161014b578063adc9772e14610629578063aeeba6151461063c578063ba3d7d4a1461064f578063bde61d9e1461066257600080fd5b8063a217fddf146105fb578063a401344b14610603578063abfc6e731461061657600080fd5b806381fda71d1461059f5780638456cb59146105b257806386e8953d146105ba57806391d14854146105cd57806395b3b8a1146105e05780639f8f6068146105f357600080fd5b8063421f72c7116102775780635c975abb11610230578063729c35531161020a578063729c35531461054f57806375b238fc1461056257806376c7e36a146105775780638129fc1c1461059757600080fd5b80635c975abb1461050657806361d027b314610511578063686e3b9b1461053c57600080fd5b8063421f72c71461048e5780634cb12fee146104a55780634d7dd190146104b85780634e71d92d146104cb5780635a2d8800146104d35780635a5d096c146104f357600080fd5b80632f2ff15d116102e457806336568abe116102be57806336568abe1461044c5780633988bad81461045f5780633d564e49146104735780633f4ba83a1461048657600080fd5b80632f2ff15d1461041357806332b95a6f1461042657806333820bac1461043957600080fd5b806301ffc9a71461032c578063150b7a021461035457806319545487146103a55780631fd7fad2146103ba5780632119e140146103c2578063248a9ca3146103e2575b600080fd5b61033f61033a366004614c72565b61076a565b60405190151581526020015b60405180910390f35b61038c610362366004614cb1565b7f150b7a023d4804d13e8c85fb27262cb750cf6ba9f9dd3bb30d90f482ceeb4b1f95945050505050565b6040516001600160e01b0319909116815260200161034b565b6103b86103b3366004614e87565b6107a1565b005b6103b861082a565b6103d56103d0366004614eea565b610938565b60405161034b9190614f75565b6104056103f0366004614f83565b60009081526097602052604090206001015490565b60405190815260200161034b565b6103b8610421366004614f9c565b6109c6565b6103b8610434366004614e87565b6109eb565b6103b8610447366004614fcc565b610a6e565b6103b861045a366004614f9c565b610aae565b61040561046d366004615001565b50600090565b6103b8610481366004614e87565b610b2c565b6103b8610ba7565b610496610bd2565b60405161034b939291906150a8565b6103b86104b336600461515c565b610e3d565b6103b86104c6366004615188565b61122b565b6103b861146d565b6104e66104e136600461515c565b611486565b60405161034b9190615205565b61033f610501366004614f9c565b6118cf565b60335460ff1661033f565b60d254610524906001600160a01b031681565b6040516001600160a01b03909116815260200161034b565b6103b861054a366004615218565b611961565b6103b861055d366004614eea565b6119db565b61040560008051602061580383398151915281565b61058a610585366004615001565b611a5b565b60405161034b9190615254565b6103b8611d59565b6104056105ad36600461515c565b611e94565b6103b8611f96565b61033f6105c836600461515c565b611fbe565b61033f6105db366004614f9c565b61206e565b6103b86105ee366004615296565b612099565b61058a6120e5565b610405600081565b6103b8610611366004615001565b6120f5565b6103b86106243660046152d1565b6121b3565b6103b861063736600461515c565b6122f7565b6103b861064a366004614e87565b61269a565b6103b861065d366004614fcc565b612715565b6103b8610670366004615317565b612772565b6103b86106833660046153b1565b61286e565b6103b861069636600461515c565b6129e6565b6106a3612e12565b60405161034b9190615400565b6106a36106be366004615001565b612e19565b6103b86106d13660046152d1565b612f57565b6103b86106e436600461515c565b612fa9565b6103b86106f7366004614f9c565b613397565b6103b86133bc565b6103b8610712366004614e87565b61356b565b6103b8610725366004615317565b6135e6565b6103b8610738366004615413565b6136db565b6103b861074b36600461515c565b613767565b6000610405565b6103b8610765366004615296565b613aab565b60006001600160e01b03198216637965db0b60e01b148061079b57506301ffc9a760e01b6001600160e01b03198316145b92915050565b80518251146107cb5760405162461bcd60e51b81526004016107c29061549a565b60405180910390fd5b60005b8251811015610825576108138382815181106107ec576107ec6154de565b6020026020010151838381518110610806576108066154de565b6020026020010151610e3d565b8061081d8161550a565b9150506107ce565b505050565b60008051602061580383398151915261084281614092565b60d1546040516370a0823160e01b81523060048201526001600160a01b039091169060009082906370a0823190602401602060405180830381865afa15801561088f573d6000803e3d6000fd5b505050506040513d601f19601f820116820180604052508101906108b39190615523565b905080156108255760d25460405163a9059cbb60e01b81526001600160a01b039182166004820152602481018390529083169063a9059cbb906044016020604051808303816000875af115801561090e573d6000803e3d6000fd5b505050506040513d601f19601f82011682018060405250810190610932919061553c565b50505050565b610940614bfa565b506001600160a01b03808416600090815260c96020908152604080832086851684528252808320858452825291829020825160e081018452815490941684526001810154918401919091526002810154918301919091526003810154606083015260048101546080830152600581015460a08301526006015460c08201525b9392505050565b6000828152609760205260409020600101546109e181614092565b610825838361409c565b6109f3614122565b8051825114610a145760405162461bcd60e51b81526004016107c29061549a565b60005b825181101561082557610a5c838281518110610a3557610a356154de565b6020026020010151838381518110610a4f57610a4f6154de565b60200260200101516122f7565b80610a668161550a565b915050610a17565b600080516020615803833981519152610a8681614092565b506001600160a01b03909216600090815260cd60205260409020600781019190915560080155565b6001600160a01b0381163314610b1e5760405162461bcd60e51b815260206004820152602f60248201527f416363657373436f6e74726f6c3a2063616e206f6e6c792072656e6f756e636560448201526e103937b632b9903337b91039b2b63360891b60648201526084016107c2565b610b288282614168565b5050565b8051825114610b4d5760405162461bcd60e51b81526004016107c29061549a565b60005b825181101561082557610b95838281518110610b6e57610b6e6154de565b6020026020010151838381518110610b8857610b886154de565b60200260200101516129e6565b80610b9f8161550a565b915050610b50565b600080516020615803833981519152610bbf81614092565b610bc76141cf565b610bcf614203565b50565b60608060606000610be360cb614255565b9050806001600160401b03811115610bfd57610bfd614d4f565b604051908082528060200260200182016040528015610c26578160200160208202803683370190505b509150806001600160401b03811115610c4157610c41614d4f565b604051908082528060200260200182016040528015610c7457816020015b6060815260200190600190039081610c5f5790505b50925060005b81811015610e2a57600060ca81610c9260cb8561425f565b6001600160a01b03168152602081019190915260400160009081209150610cb88261426b565b9050600081516001600160401b03811115610cd557610cd5614d4f565b604051908082528060200260200182016040528015610d3357816020015b610d20604051806060016040528060006001600160a01b0316815260200160008152602001600081525090565b815260200190600190039081610cf35790505b50905060005b8151811015610dd257836002016000848381518110610d5a57610d5a6154de565b6020908102919091018101518252818101929092526040908101600020815160608101835281546001600160a01b0316815260018201549381019390935260020154908201528251839083908110610db457610db46154de565b60200260200101819052508080610dca9061550a565b915050610d39565b5080878581518110610de657610de66154de565b60200260200101819052508260030154868581518110610e0857610e086154de565b6020026020010181815250505050508080610e229061550a565b915050610c7a565b50610e3560cb61426b565b935050909192565b6001600160a01b03808316600090815260cd6020526040902060068101546007820154600883015486948694931691634594762a91859190610e8090600161555e565b6040516001600160e01b031960e086901b168152600481019390935260248301919091526044820152606401602060405180830381865afa158015610ec9573d6000803e3d6000fd5b505050506040513d601f19601f82011682018060405250810190610eed9190615523565b600114610f0c5760405162461bcd60e51b81526004016107c290615571565b6001600160a01b03858116600090815260cd60205260409081902060068101546007820154600883015493516322ca3b1560e11b8152600481018a90526024810191909152604481019390935288938893911690634594762a90606401602060405180830381865afa158015610f86573d6000803e3d6000fd5b505050506040513d601f19601f82011682018060405250810190610faa9190615523565b600114610fc95760405162461bcd60e51b81526004016107c290615595565b6001600160a01b038816600081815260cd602090815260408083203380855260c984528285209585529483528184208c8552835281842094845260ca909252909120600583015491929161104e5760405162461bcd60e51b815260206004820152600c60248201526b4e6f7420747261696e696e6760a01b60448201526064016107c2565b42826006015411156110a25760405162461bcd60e51b815260206004820152601a60248201527f547261696e696e67207374696c6c20696e2070726f677265737300000000000060448201526064016107c2565b6110bb3360008c81526002840160205260409020614278565b6006830154600383015460048085015460028601546040516305ad7d8960e51b81529283018f90526024830193909352604482015260648101919091526001600160a01b039091169063b5afb12090608401600060405180830381600087803b15801561112757600080fd5b505af115801561113b573d6000803e3d6000fd5b505050508a6001600160a01b03166111503390565b6001600160a01b03167f4cffb663b46d78e759211fc8a998ed5dd16066c4229b4b4e94bc0ff7431e85a88c8560030154866004015487600201546040516111b0949392919093845260208401929092526040830152606082015260800190565b60405180910390a3505033600090815260c9602090815260408083206001600160a01b039c909c1683529a81528a82209982529890985250505094842080546001600160a01b031916815560018101859055600281018590556003810185905560048101859055600581018590556006019390935550505050565b60008051602061580383398151915261124381614092565b6001600160a01b038716600090815260cd602052604090208054156112aa5760405162461bcd60e51b815260206004820152601d60248201527f5374616b696e6720636f6e66696720616c72656164792065786973747300000060448201526064016107c2565b600084116112f25760405162461bcd60e51b81526020600482015260156024820152744d697373696e672074726565496420636f6e66696760581b60448201526064016107c2565b600083511161133c5760405162461bcd60e51b81526020600482015260166024820152754d697373696e6720736b696c6c496420636f6e66696760501b60448201526064016107c2565b6000851161135c5760405162461bcd60e51b81526004016107c2906155bb565b42861161137b5760405162461bcd60e51b81526004016107c290615603565b858155600181018590556002810184905560005b83518110156113df57816003018482815181106113ae576113ae6154de565b60209081029190910181015182546001810184556000938452919092200155806113d78161550a565b91505061138f565b506004810180546001600160a01b038981166001600160a01b03199283168117909355600684018054918c1691909216811790915560006007840190815560096008850155835460408051948552602085019190915290927fc6e5f1ee3138795eeda2fa0aab37379a177c4f04396146dd2b154ab55f5c5585910160405180910390a2505050505050505050565b61147b336142d8565b6142d8565b61148433614351565b565b6001600160a01b038216600090815260cd602052604090208054606091906114f05760405162461bcd60e51b815260206004820152601e60248201527f4e6f20747261696e696e672073657373696f6e20636f6e66696775726564000060448201526064016107c2565b60038101546000906001600160401b0381111561150f5761150f614d4f565b604051908082528060200260200182016040528015611538578160200160208202803683370190505b50905060008060005b600385015481101561169057600685015460028601546003870180546001600160a01b0390931692634594762a928b92909186908110611583576115836154de565b90600052602060002001546040518463ffffffff1660e01b81526004016115bd939291909283526020830191909152604082015260600190565b602060405180830381865afa1580156115da573d6000803e3d6000fd5b505050506040513d601f19601f820116820180604052508101906115fe9190615523565b848281518110611610576116106154de565b6020026020010181815250506000848281518110611630576116306154de565b6020026020010151111561164c57826116488161550a565b9350505b8460010154848281518110611663576116636154de565b60200260200101510361167e578161167a8161550a565b9250505b806116888161550a565b915050611541565b50816000036116f757836003018054806020026020016040519081016040528092919081815260200182805480156116e757602002820191906000526020600020905b8154815260200190600101908083116116d3575b505050505094505050505061079b565b8060020361170d57506060935061079b92505050565b60038401546000906117219060019061564d565b6001600160401b0381111561173857611738614d4f565b604051908082528060200260200182016040528015611761578160200160208202803683370190505b5090506000805b85518110156118c1578360011480156117815750846001145b80156117a6575085818151811061179a5761179a6154de565b60200260200101516000145b156117f6578660030181815481106117c0576117c06154de565b90600052602060002001548383815181106117dd576117dd6154de565b6020908102919091010152816117f28161550a565b9250505b600086828151811061180a5761180a6154de565b602002602001015111801561183b57508660010154868281518110611831576118316154de565b6020026020010151105b156118af5760408051600180825281830190925260009160208083019080368337019050509050876003018281548110611877576118776154de565b906000526020600020015481600081518110611895576118956154de565b6020908102919091010152975061079b9650505050505050565b806118b98161550a565b915050611768565b509098975050505050505050565b6001600160a01b038116600090815260ca60205260408120816118f18261426b565b905060005b81518110156119555785836002016000848481518110611918576119186154de565b602002602001015181526020019081526020016000206001015403611943576001935050505061079b565b8061194d8161550a565b9150506118f6565b50600095945050505050565b60008051602061580383398151915261197981614092565b60005b8251811015610825576119a783828151811061199a5761199a6154de565b60200260200101516142d8565b6119c98382815181106119bc576119bc6154de565b6020026020010151614351565b806119d38161550a565b91505061197c565b6000805160206158038339815191526119f381614092565b506001600160a01b03928316600090815260c960209081526040808320949095168252928352838120918152915290812080546001600160a01b0319168155600181018290556002810182905560038101829055600481018290556005810182905560060155565b6001600160a01b038116600090815260ca60205260408120606091611a7f8261426b565b90506000805b8251811015611b3f576000846002016000858481518110611aa857611aa86154de565b60209081029190910181015182528181019290925260409081016000908120825160608101845281546001600160a01b0390811682526001830154828701908152600290930154828601528c8116845260c98652848420825190911684528552838320915183529352206006015490915015611b2c5782611b288161550a565b9350505b5080611b378161550a565b915050611a85565b506000816001600160401b03811115611b5a57611b5a614d4f565b604051908082528060200260200182016040528015611b9357816020015b611b80614bfa565b815260200190600190039081611b785790505b5090506000805b8451811015611d4d576000866002016000878481518110611bbd57611bbd6154de565b602002602001015181526020019081526020016000206040518060600160405290816000820160009054906101000a90046001600160a01b03166001600160a01b03166001600160a01b03168152602001600182015481526020016002820154815250509050600060c960008b6001600160a01b03166001600160a01b03168152602001908152602001600020600083600001516001600160a01b03166001600160a01b031681526020019081526020016000206000836020015181526020019081526020016000206040518060e00160405290816000820160009054906101000a90046001600160a01b03166001600160a01b03166001600160a01b031681526020016001820154815260200160028201548152602001600382015481526020016004820154815260200160058201548152602001600682015481525050905060008160c001511115611d385780858581518110611d1e57611d1e6154de565b60200260200101819052508380611d349061550a565b9450505b50508080611d459061550a565b915050611b9a565b50909695505050505050565b600054610100900460ff1615808015611d795750600054600160ff909116105b80611d935750303b158015611d93575060005460ff166001145b611df65760405162461bcd60e51b815260206004820152602e60248201527f496e697469616c697a61626c653a20636f6e747261637420697320616c72656160448201526d191e481a5b9a5d1a585b1a5e995960921b60648201526084016107c2565b6000805460ff191660011790558015611e19576000805461ff0019166101001790555b611e2161456d565b611e2961459c565b611e3460003361409c565b611e4c6000805160206158038339815191523361409c565b8015610bcf576000805461ff0019169055604051600181527f7f26b83ff96e1f2b6a682f133852f6798a09c465da95921460cefb38474024989060200160405180910390a150565b6001600160a01b038216600090815260cd6020526040812081805b6003830154811015611f8d57600683015460028401546003850180546000936001600160a01b031692634594762a928a9287908110611ef057611ef06154de565b90600052602060002001546040518463ffffffff1660e01b8152600401611f2a939291909283526020830191909152604082015260600190565b602060405180830381865afa158015611f47573d6000803e3d6000fd5b505050506040513d601f19601f82011682018060405250810190611f6b9190615523565b9050611f77818461555e565b9250508080611f859061550a565b915050611eaf565b50949350505050565b600080516020615803833981519152611fae81614092565b611fb66141cf565b610bcf6145c3565b6001600160a01b03828116600090815260cd60205260408082206006810154600782018054600884015494516322ca3b1560e11b81526004810189905260248101919091526044810194909452939491939285929190911690634594762a90606401602060405180830381865afa15801561203d573d6000803e3d6000fd5b505050506040513d601f19601f820116820180604052508101906120619190615523565b6001149695505050505050565b60009182526097602090815260408084206001600160a01b0393909316845291905290205460ff1690565b6000805160206158038339815191526120b181614092565b506001600160a01b03909316600090815260cd60209081526040808320948352600590940190529190912090815560010155565b60606120f033611a5b565b905090565b60008051602061580383398151915261210d81614092565b6121156141cf565b6001600160a01b038216600090815260cd6020526040812081815560018101829055600281018290559061214c6003830182614c40565b506004810180546001600160a01b0319908116909155600682018054909116905560006007820181905560089091018190556040516001600160a01b038416917fed93036dfb7e5500a2a7f2471a56e6b3389a8c28c72adca8ba9f6a4025ca6d5891a25050565b6000805160206158038339815191526121cb81614092565b6001600160a01b038516600090815260cd602052604081205490036122325760405162461bcd60e51b815260206004820152601d60248201527f5374616b696e6720636f6e66696720646f6573206e6f7420657869737400000060448201526064016107c2565b600082116122525760405162461bcd60e51b81526004016107c2906155bb565b4283116122715760405162461bcd60e51b81526004016107c290615603565b6122796141cf565b6001600160a01b03858116600081815260cd60209081526040918290206004810180546001600160a01b031916958a169586179055878155600181018790558251948552908401879052927f255d2940ab142f16cd2452c452fc20185bcbc341ce9c1646bc3d4feac9dc3371910160405180910390a2505050505050565b6122ff614122565b6001600160a01b03808316600090815260cd6020526040902060068101546007820154600883015486948694931691634594762a9185919061234290600161555e565b6040516001600160e01b031960e086901b168152600481019390935260248301919091526044820152606401602060405180830381865afa15801561238b573d6000803e3d6000fd5b505050506040513d601f19601f820116820180604052508101906123af9190615523565b156123ed5760405162461bcd60e51b815260206004820152600e60248201526d105b1c9958591e481cdd185ad95960921b60448201526064016107c2565b6001600160a01b03858116600090815260cd60205260409081902060068101546007820154600883015493516322ca3b1560e11b8152600481018a90526024810191909152604481019390935288938893911690634594762a90606401602060405180830381865afa158015612467573d6000803e3d6000fd5b505050506040513d601f19601f8201168201806040525081019061248b9190615523565b6001146124aa5760405162461bcd60e51b81526004016107c290615595565b6001600160a01b038816600090815260cd6020526040902080546125005760405162461bcd60e51b815260206004820152600d60248201526c496e76616c6964207374616b6560981b60448201526064016107c2565b805442101561254b5760405162461bcd60e51b815260206004820152601760248201527614dd185ada5b99c81a185cc81b9bdd081cdd185c9d1959604a1b60448201526064016107c2565b61255361146d565b6006810154600782018054600884015491926001600160a01b03169163b5afb120918c9161258290600161555e565b6040516001600160e01b031960e086901b16815260048101939093526024830191909152604482015260016064820152608401600060405180830381600087803b1580156125cf57600080fd5b505af11580156125e3573d6000803e3d6000fd5b505050506125f96125f13390565b60cb90614600565b5033600090815260ca602090815260408083208c84526002808201909352922080546001600160a01b0319166001600160a01b038e16178155600181018c9055429181019190915561264b828c614615565b506040518b81526001600160a01b038d169033907f5dac0c1b1112564a045ba943c9d50270893e8e826c49be8e7073adc713ab7bd79060200160405180910390a3505050505050505050505050565b80518251146126bb5760405162461bcd60e51b81526004016107c29061549a565b60005b8251811015610825576127038382815181106126dc576126dc6154de565b60200260200101518383815181106126f6576126f66154de565b6020026020010151612fa9565b8061270d8161550a565b9150506126be565b60008051602061580383398151915261272d81614092565b6001600160a01b038416600090815260ca602090815260408083208684526002810190925290912060018101859055831561276a57600281018490555b505050505050565b60008051602061580383398151915261278a81614092565b8251845114801561279c575081518351145b6127f95760405162461bcd60e51b815260206004820152602860248201527f416c6c20696e70757420617272617973206d757374206265207468652073616d6044820152670ca40d8cadccee8d60c31b60648201526084016107c2565b60005b845181101561276a5761285c8686838151811061281b5761281b6154de565b6020026020010151868481518110612835576128356154de565b602002602001015186858151811061284f5761284f6154de565b6020026020010151612099565b806128668161550a565b9150506127fc565b612876614122565b82518451146128975760405162461bcd60e51b81526004016107c29061549a565b81518451146128f45760405162461bcd60e51b815260206004820152602360248201527f6164647265737320636f756e74206d757374206d61746368207472656520636f6044820152621d5b9d60ea1b60648201526084016107c2565b80518451146129515760405162461bcd60e51b8152602060048201526024808201527f6164647265737320636f756e74206d757374206d6174636820736b696c6c20636044820152631bdd5b9d60e21b60648201526084016107c2565b60005b84518110156129df576129cd858281518110612972576129726154de565b602002602001015185838151811061298c5761298c6154de565b60200260200101518584815181106129a6576129a66154de565b60200260200101518585815181106129c0576129c06154de565b6020026020010151613aab565b806129d78161550a565b915050612954565b5050505050565b6001600160a01b03808316600090815260cd6020526040902060068101546007820154600883015486948694931691634594762a91859190612a2990600161555e565b6040516001600160e01b031960e086901b168152600481019390935260248301919091526044820152606401602060405180830381865afa158015612a72573d6000803e3d6000fd5b505050506040513d601f19601f82011682018060405250810190612a969190615523565b600114612ab55760405162461bcd60e51b81526004016107c290615571565b6001600160a01b03858116600090815260cd60205260409081902060068101546007820154600883015493516322ca3b1560e11b8152600481018a90526024810191909152604481019390935288938893911690634594762a90606401602060405180830381865afa158015612b2f573d6000803e3d6000fd5b505050506040513d601f19601f82011682018060405250810190612b539190615523565b600114612b725760405162461bcd60e51b81526004016107c290615595565b6001600160a01b038816600090815260cd6020908152604080832033845260ca909252909120612ba2818a614621565b612bdf5760405162461bcd60e51b815260206004820152600e60248201526d13919508139bdd081cdd185ad95960921b60448201526064016107c2565b612be761146d565b60068201546040516331a9108f60e11b8152600481018b905230916001600160a01b031690636352211e90602401602060405180830381865afa158015612c32573d6000803e3d6000fd5b505050506040513d601f19601f82011682018060405250810190612c569190615660565b6001600160a01b031603612ce15760068201546001600160a01b03166342842e0e30336040516001600160e01b031960e085901b1681526001600160a01b03928316600482015291166024820152604481018c9052606401600060405180830381600087803b158015612cc857600080fd5b505af1158015612cdc573d6000803e3d6000fd5b505050505b6006820154600783018054600885015491926001600160a01b03169163b5afb120918d91612d1090600161555e565b6040516001600160e01b031960e086901b16815260048101939093526024830191909152604482015260006064820152608401600060405180830381600087803b158015612d5d57600080fd5b505af1158015612d71573d6000803e3d6000fd5b50505060008b815260028085016020526040822080546001600160a01b031916815560018101839055015550612da7828b614639565b50612db182614255565b600003612dc557612dc360cb33614645565b505b6040518a81526001600160a01b038c169033907fd8654fcc8cf5b36d30b3f5e4688fc78118e6d68de60b9994e09902268b57c3e39060200160405180910390a35050505050505050505050565b60606120f0335b6001600160a01b038116600090815260ca60205260408120606091612e3d8261426b565b9050600081516001600160401b03811115612e5a57612e5a614d4f565b604051908082528060200260200182016040528015612eb857816020015b612ea5604051806060016040528060006001600160a01b0316815260200160008152602001600081525090565b815260200190600190039081612e785790505b50905060005b8251811015611f8d57836002016000848381518110612edf57612edf6154de565b6020908102919091018101518252818101929092526040908101600020815160608101835281546001600160a01b0316815260018201549381019390935260020154908201528251839083908110612f3957612f396154de565b60200260200101819052508080612f4f9061550a565b915050612ebe565b600080516020615803833981519152612f6f81614092565b506001600160a01b03938416600090815260c960209081526040808320959096168252938452848120928152919092529190912060040155565b612fb1614122565b6001600160a01b03808316600090815260cd6020526040902060068101546007820154600883015486948694931691634594762a91859190612ff490600161555e565b6040516001600160e01b031960e086901b168152600481019390935260248301919091526044820152606401602060405180830381865afa15801561303d573d6000803e3d6000fd5b505050506040513d601f19601f820116820180604052508101906130619190615523565b1561309f5760405162461bcd60e51b815260206004820152600e60248201526d105b1c9958591e481cdd185ad95960921b60448201526064016107c2565b6001600160a01b03858116600090815260cd6020526040908190206006810154600782018054600884015494516322ca3b1560e11b8152600481018b90526024810191909152604481019490945291939192911690634594762a90606401602060405180830381865afa15801561311a573d6000803e3d6000fd5b505050506040513d601f19601f8201168201806040525081019061313e9190615523565b1561318b5760405162461bcd60e51b815260206004820152601860248201527f5374616b696e6720616c726561647920756e6c6f636b6564000000000000000060448201526064016107c2565b81546131d25760405162461bcd60e51b815260206004820152601660248201527514dd185ada5b99c81b9bdd0818dbdb999a59dd5c995960521b60448201526064016107c2565b815442101561321d5760405162461bcd60e51b815260206004820152601760248201527614dd185ada5b99c81a185cc81b9bdd081cdd185c9d1959604a1b60448201526064016107c2565b60048201546001600160a01b03166323b872dd3360008080526005860160205260409081902054905160e084901b6001600160e01b03191681526001600160a01b03909216600483015230602483015260448201526064016020604051808303816000875af1158015613294573d6000803e3d6000fd5b505050506040513d601f19601f820116820180604052508101906132b8919061553c565b506132c161082a565b600682015481546001808401546040516305ad7d8960e51b8152600481018b90526024810193909352604483015260648201526001600160a01b039091169063b5afb12090608401600060405180830381600087803b15801561332357600080fd5b505af1158015613337573d6000803e3d6000fd5b50505050866001600160a01b031661334c3390565b6001600160a01b03167f051144eeaaad1c4ee6b1eab928f531a9daf1687b3e0f8db00dae3f5df8c285db8860405161338691815260200190565b60405180910390a350505050505050565b6000828152609760205260409020600101546133b281614092565b6108258383614168565b6000805160206158038339815191526133d481614092565b60d1546040516370a0823160e01b81523060048201526001600160a01b039091169060009082906370a0823190602401602060405180830381865afa158015613421573d6000803e3d6000fd5b505050506040513d601f19601f820116820180604052508101906134459190615523565b9050600081116134a35760405162461bcd60e51b8152602060048201526024808201527f50726f66657373696f6e5374616b696e673a3a4e6f207265776172642062616c604482015263616e636560e01b60648201526084016107c2565b60d25460405163a9059cbb60e01b81526001600160a01b039182166004820152602481018390529083169063a9059cbb906044016020604051808303816000875af11580156134f6573d6000803e3d6000fd5b505050506040513d601f19601f8201168201806040525081019061351a919061553c565b5060d15460d2546040518381526001600160a01b03928316929091169033907f74ed50f6a2a005dd31f4766fb60918c4a6728cb0da9eeb81b9526bc6da11ec0f9060200160405180910390a4505050565b805182511461358c5760405162461bcd60e51b81526004016107c29061549a565b60005b8251811015610825576135d48382815181106135ad576135ad6154de565b60200260200101518383815181106135c7576135c76154de565b6020026020010151613767565b806135de8161550a565b91505061358f565b6000805160206158038339815191526135fe81614092565b6001600160a01b038516600090815260cd60205260408120905b85518110156136d257848181518110613633576136336154de565b6020026020010151826005016000888481518110613653576136536154de565b6020026020010151815260200190815260200160002060010181905550838181518110613682576136826154de565b60200260200101518260050160008884815181106136a2576136a26154de565b602002602001015181526020019081526020016000206000018190555080806136ca9061550a565b915050613618565b50505050505050565b6000805160206158038339815191526136f381614092565b60005b84518110156129df57613755858281518110613714576137146154de565b602002602001015185838151811061372e5761372e6154de565b6020026020010151858481518110613748576137486154de565b6020026020010151612715565b8061375f8161550a565b9150506136f6565b6001600160a01b03808316600090815260cd6020526040902060068101546007820154600883015486948694931691634594762a918591906137aa90600161555e565b6040516001600160e01b031960e086901b168152600481019390935260248301919091526044820152606401602060405180830381865afa1580156137f3573d6000803e3d6000fd5b505050506040513d601f19601f820116820180604052508101906138179190615523565b6001146138365760405162461bcd60e51b81526004016107c290615571565b6001600160a01b03858116600090815260cd60205260409081902060068101546007820154600883015493516322ca3b1560e11b8152600481018a90526024810191909152604481019390935288938893911690634594762a90606401602060405180830381865afa1580156138b0573d6000803e3d6000fd5b505050506040513d601f19601f820116820180604052508101906138d49190615523565b6001146138f35760405162461bcd60e51b81526004016107c290615595565b33600090815260c9602090815260408083206001600160a01b038c16845282528083208a84529091529020600581015461395e5760405162461bcd60e51b815260206004820152600c60248201526b4e6f7420747261696e696e6760a01b60448201526064016107c2565b428160060154116139b15760405162461bcd60e51b815260206004820152601960248201527f547261696e696e6720616c72656164792066696e69736865640000000000000060448201526064016107c2565b33600081815260ca602090815260408083208c84526002810190925290912090916139db91614278565b60038201546004830154604080518c8152602081019390935282810191909152426060830152516001600160a01b038c169133917fc9b7c59fa980251f7ca7eae784c953e8a9f49d617be6edca0b41264ea05cb1699181900360800190a3505033600090815260c9602090815260408083206001600160a01b039b909b1683529981528982209882529790975250505093832080546001600160a01b0319168155600181018490556002810184905560038101849055600481018490556005810184905560060192909255505050565b613ab3614122565b6001600160a01b03808516600090815260cd6020526040902060068101546007820154600883015488948894931691634594762a91859190613af690600161555e565b6040516001600160e01b031960e086901b168152600481019390935260248301919091526044820152606401602060405180830381865afa158015613b3f573d6000803e3d6000fd5b505050506040513d601f19601f82011682018060405250810190613b639190615523565b600114613b825760405162461bcd60e51b81526004016107c290615571565b6001600160a01b03878116600090815260cd60205260409081902060068101546007820154600883015493516322ca3b1560e11b8152600481018c9052602481019190915260448101939093528a938a93911690634594762a90606401602060405180830381865afa158015613bfc573d6000803e3d6000fd5b505050506040513d601f19601f82011682018060405250810190613c209190615523565b600114613c3f5760405162461bcd60e51b81526004016107c290615595565b6001600160a01b038a16600090815260cd602052604090208054613ca55760405162461bcd60e51b815260206004820152601e60248201527f4e6f20747261696e696e672073657373696f6e20636f6e66696775726564000060448201526064016107c2565b8054421015613cf65760405162461bcd60e51b815260206004820152601c60248201527f547261696e696e6720686173206e6f742073746172746564207965740000000060448201526064016107c2565b33600090815260c9602090815260408083206001600160a01b038f16845282528083208d84529091529020600581015415613d735760405162461bcd60e51b815260206004820152601f60248201527f547261696e696e6720697320616c726561647920696e2070726f67726573730060448201526064016107c2565b613d7e8c8c8b61465a565b613dca5760405162461bcd60e51b815260206004820152601760248201527f496e76616c696420747261696e696e67206f7074696f6e00000000000000000060448201526064016107c2565b60068201546040516322ca3b1560e11b8152600481018d9052602481018c9052604481018b90526000916001600160a01b031690634594762a90606401602060405180830381865afa158015613e24573d6000803e3d6000fd5b505050506040513d601f19601f82011682018060405250810190613e489190615523565b90508260010154816001613e5c919061555e565b1115613eaa5760405162461bcd60e51b815260206004820152601e60248201527f45786365656473206d6178696d756d20747261696e696e67206c6576656c000060448201526064016107c2565b60006005840181613ebc84600161555e565b815260200190815260200160002090506000816000015411613f205760405162461bcd60e51b815260206004820152601d60248201527f547261696e696e67204c6576656c206973206e6f7420656e61626c656400000060448201526064016107c2565b60048401546001600160a01b03166323b872dd33835460405160e084901b6001600160e01b03191681526001600160a01b03909216600483015230602483015260448201526064016020604051808303816000875af1158015613f87573d6000803e3d6000fd5b505050506040513d601f19601f82011682018060405250810190613fab919061553c565b50613fb461082a565b613fbf82600161555e565b6002840155600383018c9055600483018b905542600584018190556001820154613fe89161555e565b600684015582546001600160a01b0319166001600160a01b038f169081178455600184018e9055336001600160a01b03167f98d1944772cc1ee399725448c633b3ec863f8be81e490479055d810afaa0225c8f8f8f61404888600161555e565b60058a015460068b0154604080519687526020870195909552938501929092526060840152608083015260a082015260c00160405180910390a35050505050505050505050505050565b610bcf8133614703565b6140a6828261206e565b610b285760008281526097602090815260408083206001600160a01b03851684529091529020805460ff191660011790556140de3390565b6001600160a01b0316816001600160a01b0316837f2f8788117e7eff1d82e926ec794901d17c78024a50270940304540a733656f0d60405160405180910390a45050565b60335460ff16156114845760405162461bcd60e51b815260206004820152601060248201526f14185d5cd8589b194e881c185d5cd95960821b60448201526064016107c2565b614172828261206e565b15610b285760008281526097602090815260408083206001600160a01b0385168085529252808320805460ff1916905551339285917ff6391f5c32d9c69d2a47ea670b442974b53935d1edc7fd64eb21e047a839171b9190a45050565b60005b6141dc60cb614255565b811015610bcf576141f161147660cb8361425f565b806141fb8161550a565b9150506141d2565b61420b61475c565b6033805460ff191690557f5db9ee0a495bf2e6ff9c91a7834c1ba4fdd244a5e8aa4e537bd38aeae4b073aa335b6040516001600160a01b03909116815260200160405180910390a1565b600061079b825490565b60006109bf83836147a5565b606060006109bf836147cf565b600063634c9aff8260020154101561429457816002015461429a565b63634c9aff5b905063634c9aff4210156142ae57426142b4565b63634c9aff5b6002830155815460018301546108259185916001600160a01b03909116908461482b565b6001600160a01b038116600090815260ca60205260408120906142fa8261426b565b905060005b81518110156109325761433f84846002016000858581518110614324576143246154de565b60200260200101518152602001908152602001600020614278565b806143498161550a565b9150506142ff565b6001600160a01b03818116600090815260ca60205260408082206003810180549390557f68995a606069a176802face6c7d97d018fa327ea1f57950103ab1e74298105c45491516370a0823160e01b815230600482015273bf20c23d25fca8aa4e7946496250d67872691af2947f68995a606069a176802face6c7d97d018fa327ea1f57950103ab1e74298105c094929383929116906370a0823190602401602060405180830381865afa15801561440d573d6000803e3d6000fd5b505050506040513d601f19601f820116820180604052508101906144319190615523565b101561447f5760405162461bcd60e51b815260206004820181905260248201527f496e73756666696369656e74207265776172647320696e20636f6e747261637460448201526064016107c2565b80156145025760048381015460405163a9059cbb60e01b81526001600160a01b03888116938201939093526024810184905291169063a9059cbb906044016020604051808303816000875af11580156144dc573d6000803e3d6000fd5b505050506040513d601f19601f82011682018060405250810190614500919061553c565b505b61450b82614255565b60000361451f5761451d60cb86614645565b505b60048301546040518281526001600160a01b03918216918716907ff7a40077ff7a04c7e61f6f26fb13774259ddf1b6bce9ecf26a8276cdd39926839060200160405180910390a35050505050565b600054610100900460ff166145945760405162461bcd60e51b81526004016107c29061567d565b6114846148d8565b600054610100900460ff166114845760405162461bcd60e51b81526004016107c29061567d565b6145cb614122565b6033805460ff191660011790557f62e78cea01bee320cd4e420270b5ea74000d11b0c9f74754ebdbfc544b05a2586142383390565b60006109bf836001600160a01b03841661490b565b60006109bf838361490b565b600081815260018301602052604081205415156109bf565b60006109bf838361495a565b60006109bf836001600160a01b03841661495a565b6000806146678585611486565b905060008151116146ba5760405162461bcd60e51b815260206004820152601e60248201527f4e6f20747261696e696e672073657373696f6e7320617661696c61626c65000060448201526064016107c2565b60005b815181101561195557838282815181106146d9576146d96154de565b6020026020010151036146f1576001925050506109bf565b806146fb8161550a565b9150506146bd565b61470d828261206e565b610b285761471a81614a4d565b614725836020614a5f565b6040516020016147369291906156ec565b60408051601f198184030181529082905262461bcd60e51b82526107c291600401615761565b60335460ff166114845760405162461bcd60e51b815260206004820152601460248201527314185d5cd8589b194e881b9bdd081c185d5cd95960621b60448201526064016107c2565b60008260000182815481106147bc576147bc6154de565b9060005260206000200154905092915050565b60608160000180548060200260200160405190810160405280929190818152602001828054801561481f57602002820191906000526020600020905b81548152602001906001019080831161480b575b50505050509050919050565b8015806148385750428110155b80614847575063634c9aff8110155b610932576000614857824261564d565b905060006148658585611e94565b9050806148718161550a565b91508290506201518061488c83670de0b6b3a7640000615794565b61489691906157b3565b6148a09190615794565b6001600160a01b038716600090815260ca6020526040812060030180549091906148cb90849061555e565b9091555050505050505050565b600054610100900460ff166148ff5760405162461bcd60e51b81526004016107c29061567d565b6033805460ff19169055565b60008181526001830160205260408120546149525750815460018181018455600084815260208082209093018490558454848252828601909352604090209190915561079b565b50600061079b565b60008181526001830160205260408120548015614a4357600061497e60018361564d565b85549091506000906149929060019061564d565b90508181146149f75760008660000182815481106149b2576149b26154de565b90600052602060002001549050808760000184815481106149d5576149d56154de565b6000918252602080832090910192909255918252600188019052604090208390555b8554869080614a0857614a086157d5565b60019003818190600052602060002001600090559055856001016000868152602001908152602001600020600090556001935050505061079b565b600091505061079b565b606061079b6001600160a01b03831660145b60606000614a6e836002615794565b614a7990600261555e565b6001600160401b03811115614a9057614a90614d4f565b6040519080825280601f01601f191660200182016040528015614aba576020820181803683370190505b509050600360fc1b81600081518110614ad557614ad56154de565b60200101906001600160f81b031916908160001a905350600f60fb1b81600181518110614b0457614b046154de565b60200101906001600160f81b031916908160001a9053506000614b28846002615794565b614b3390600161555e565b90505b6001811115614bab576f181899199a1a9b1b9c1cb0b131b232b360811b85600f1660108110614b6757614b676154de565b1a60f81b828281518110614b7d57614b7d6154de565b60200101906001600160f81b031916908160001a90535060049490941c93614ba4816157eb565b9050614b36565b5083156109bf5760405162461bcd60e51b815260206004820181905260248201527f537472696e67733a20686578206c656e67746820696e73756666696369656e7460448201526064016107c2565b6040518060e0016040528060006001600160a01b031681526020016000815260200160008152602001600081526020016000815260200160008152602001600081525090565b5080546000825590600052602060002090810190610bcf91905b80821115614c6e5760008155600101614c5a565b5090565b600060208284031215614c8457600080fd5b81356001600160e01b0319811681146109bf57600080fd5b6001600160a01b0381168114610bcf57600080fd5b600080600080600060808688031215614cc957600080fd5b8535614cd481614c9c565b94506020860135614ce481614c9c565b93506040860135925060608601356001600160401b0380821115614d0757600080fd5b818801915088601f830112614d1b57600080fd5b813581811115614d2a57600080fd5b896020828501011115614d3c57600080fd5b9699959850939650602001949392505050565b634e487b7160e01b600052604160045260246000fd5b604051601f8201601f191681016001600160401b0381118282101715614d8d57614d8d614d4f565b604052919050565b60006001600160401b03821115614dae57614dae614d4f565b5060051b60200190565b600082601f830112614dc957600080fd5b81356020614dde614dd983614d95565b614d65565b82815260059290921b84018101918181019086841115614dfd57600080fd5b8286015b84811015614e21578035614e1481614c9c565b8352918301918301614e01565b509695505050505050565b600082601f830112614e3d57600080fd5b81356020614e4d614dd983614d95565b82815260059290921b84018101918181019086841115614e6c57600080fd5b8286015b84811015614e215780358352918301918301614e70565b60008060408385031215614e9a57600080fd5b82356001600160401b0380821115614eb157600080fd5b614ebd86838701614db8565b93506020850135915080821115614ed357600080fd5b50614ee085828601614e2c565b9150509250929050565b600080600060608486031215614eff57600080fd5b8335614f0a81614c9c565b92506020840135614f1a81614c9c565b929592945050506040919091013590565b80516001600160a01b031682526020808201519083015260408082015190830152606080820151908301526080808201519083015260a0818101519083015260c090810151910152565b60e0810161079b8284614f2b565b600060208284031215614f9557600080fd5b5035919050565b60008060408385031215614faf57600080fd5b823591506020830135614fc181614c9c565b809150509250929050565b600080600060608486031215614fe157600080fd5b8335614fec81614c9c565b95602085013595506040909401359392505050565b60006020828403121561501357600080fd5b81356109bf81614c9c565b600081518084526020808501945080840160005b8381101561506d57815180516001600160a01b0316885283810151848901526040908101519088015260609096019590820190600101615032565b509495945050505050565b600081518084526020808501945080840160005b8381101561506d5781518752958201959082019060010161508c565b606080825284519082018190526000906020906080840190828801845b828110156150ea5781516001600160a01b0316845292840192908401906001016150c5565b50505083810382850152855180825282820190600581901b8301840188850160005b8381101561513a57601f1986840301855261512883835161501e565b9487019492509086019060010161510c565b5050868103604088015261514e8189615078565b9a9950505050505050505050565b6000806040838503121561516f57600080fd5b823561517a81614c9c565b946020939093013593505050565b60008060008060008060c087890312156151a157600080fd5b86356151ac81614c9c565b955060208701356151bc81614c9c565b945060408701359350606087013592506080870135915060a08701356001600160401b038111156151ec57600080fd5b6151f889828a01614e2c565b9150509295509295509295565b6020815260006109bf6020830184615078565b60006020828403121561522a57600080fd5b81356001600160401b0381111561524057600080fd5b61524c84828501614db8565b949350505050565b6020808252825182820181905260009190848201906040850190845b81811015611d4d57615283838551614f2b565b9284019260e09290920191600101615270565b600080600080608085870312156152ac57600080fd5b84356152b781614c9c565b966020860135965060408601359560600135945092505050565b600080600080608085870312156152e757600080fd5b84356152f281614c9c565b9350602085013561530281614c9c565b93969395505050506040820135916060013590565b6000806000806080858703121561532d57600080fd5b843561533881614c9c565b935060208501356001600160401b038082111561535457600080fd5b61536088838901614e2c565b9450604087013591508082111561537657600080fd5b61538288838901614e2c565b9350606087013591508082111561539857600080fd5b506153a587828801614e2c565b91505092959194509250565b600080600080608085870312156153c757600080fd5b84356001600160401b03808211156153de57600080fd5b6153ea88838901614db8565b9550602087013591508082111561535457600080fd5b6020815260006109bf602083018461501e565b60008060006060848603121561542857600080fd5b83356001600160401b038082111561543f57600080fd5b61544b87838801614db8565b9450602086013591508082111561546157600080fd5b61546d87838801614e2c565b9350604086013591508082111561548357600080fd5b5061549086828701614e2c565b9150509250925092565b60208082526024908201527f6164647265737320636f756e74206d757374206d6174636820746f6b656e20636040820152631bdd5b9d60e21b606082015260800190565b634e487b7160e01b600052603260045260246000fd5b634e487b7160e01b600052601160045260246000fd5b60006001820161551c5761551c6154f4565b5060010190565b60006020828403121561553557600080fd5b5051919050565b60006020828403121561554e57600080fd5b815180151581146109bf57600080fd5b8082018082111561079b5761079b6154f4565b6020808252600a9082015269139bdd081cdd185ad95960b21b604082015260600190565b6020808252600c908201526b139bdd081d5b9b1bd8dad95960a21b604082015260600190565b60208082526028908201527f6d6178506f696e7473506572536b696c6c206d75737420626520677265617465604082015267072207468616e20360c41b606082015260800190565b6020808252602a908201527f737461727454696d65206d7573742062652061206675747572652074696d6520604082015269696e207365636f6e647360b01b606082015260800190565b8181038181111561079b5761079b6154f4565b60006020828403121561567257600080fd5b81516109bf81614c9c565b6020808252602b908201527f496e697469616c697a61626c653a20636f6e7472616374206973206e6f74206960408201526a6e697469616c697a696e6760a81b606082015260800190565b60005b838110156156e35781810151838201526020016156cb565b50506000910152565b7f416363657373436f6e74726f6c3a206163636f756e74200000000000000000008152600083516157248160178501602088016156c8565b7001034b99036b4b9b9b4b733903937b6329607d1b60179184019182015283516157558160288401602088016156c8565b01602801949350505050565b60208152600082518060208401526157808160408501602087016156c8565b601f01601f19169190910160400192915050565b60008160001904831182151516156157ae576157ae6154f4565b500290565b6000826157d057634e487b7160e01b600052601260045260246000fd5b500490565b634e487b7160e01b600052603160045260246000fd5b6000816157fa576157fa6154f4565b50600019019056fea49807205ce4d355092ef5a8a18f56e8913cf4a201fbe287825b095693c21775a2646970667358221220d09071a6f34a7c7ce779f095b2c866523d84b43323194560dd2369b4c1f5694964736f6c63430008100033",
  "linkReferences": {},
  "deployedLinkReferences": {}
}