{
  "_format": "hh-sol-artifact-1",
  "contractName": "ProfessionStakingAvalanche",
  "sourceName": "contracts/upgradeable/npc/ProfessionStaking/Avalanche/ProfessionStakingAvalanche.sol",
  "abi": [
    {
      "inputs": [],
      "stateMutability": "nonpayable",
      "type": "constructor"
    },
    {
      "anonymous": false,
      "inputs": [
        {
          "indexed": true,
          "internalType": "address",
          "name": "by",
          "type": "address"
        },
        {
          "indexed": true,
          "internalType": "address",
          "name": "token",
          "type": "address"
        },
        {
          "indexed": false,
          "internalType": "uint256",
          "name": "amount",
          "type": "uint256"
        }
      ],
      "name": "Claimed",
      "type": "event"
    },
    {
      "anonymous": false,
      "inputs": [
        {
          "indexed": false,
          "internalType": "uint8",
          "name": "version",
          "type": "uint8"
        }
      ],
      "name": "Initialized",
      "type": "event"
    },
    {
      "anonymous": false,
      "inputs": [
        {
          "indexed": false,
          "internalType": "address",
          "name": "account",
          "type": "address"
        }
      ],
      "name": "Paused",
      "type": "event"
    },
    {
      "anonymous": false,
      "inputs": [
        {
          "indexed": true,
          "internalType": "address",
          "name": "from",
          "type": "address"
        },
        {
          "indexed": true,
          "internalType": "address",
          "name": "token",
          "type": "address"
        },
        {
          "indexed": false,
          "internalType": "uint256",
          "name": "amount",
          "type": "uint256"
        }
      ],
      "name": "PoolRewardsDeposited",
      "type": "event"
    },
    {
      "anonymous": false,
      "inputs": [
        {
          "indexed": true,
          "internalType": "address",
          "name": "by",
          "type": "address"
        },
        {
          "indexed": true,
          "internalType": "address",
          "name": "to",
          "type": "address"
        },
        {
          "indexed": true,
          "internalType": "address",
          "name": "token",
          "type": "address"
        },
        {
          "indexed": false,
          "internalType": "uint256",
          "name": "amount",
          "type": "uint256"
        }
      ],
      "name": "PoolRewardsWithdrawn",
      "type": "event"
    },
    {
      "anonymous": false,
      "inputs": [
        {
          "indexed": true,
          "internalType": "bytes32",
          "name": "role",
          "type": "bytes32"
        },
        {
          "indexed": true,
          "internalType": "bytes32",
          "name": "previousAdminRole",
          "type": "bytes32"
        },
        {
          "indexed": true,
          "internalType": "bytes32",
          "name": "newAdminRole",
          "type": "bytes32"
        }
      ],
      "name": "RoleAdminChanged",
      "type": "event"
    },
    {
      "anonymous": false,
      "inputs": [
        {
          "indexed": true,
          "internalType": "bytes32",
          "name": "role",
          "type": "bytes32"
        },
        {
          "indexed": true,
          "internalType": "address",
          "name": "account",
          "type": "address"
        },
        {
          "indexed": true,
          "internalType": "address",
          "name": "sender",
          "type": "address"
        }
      ],
      "name": "RoleGranted",
      "type": "event"
    },
    {
      "anonymous": false,
      "inputs": [
        {
          "indexed": true,
          "internalType": "bytes32",
          "name": "role",
          "type": "bytes32"
        },
        {
          "indexed": true,
          "internalType": "address",
          "name": "account",
          "type": "address"
        },
        {
          "indexed": true,
          "internalType": "address",
          "name": "sender",
          "type": "address"
        }
      ],
      "name": "RoleRevoked",
      "type": "event"
    },
    {
      "anonymous": false,
      "inputs": [
        {
          "indexed": true,
          "internalType": "address",
          "name": "from",
          "type": "address"
        },
        {
          "indexed": true,
          "internalType": "address",
          "name": "nftAddress",
          "type": "address"
        },
        {
          "indexed": false,
          "internalType": "uint256",
          "name": "tokenId",
          "type": "uint256"
        }
      ],
      "name": "Staked",
      "type": "event"
    },
    {
      "anonymous": false,
      "inputs": [
        {
          "indexed": true,
          "internalType": "address",
          "name": "nftAddress",
          "type": "address"
        },
        {
          "indexed": false,
          "internalType": "address",
          "name": "rewardToken",
          "type": "address"
        },
        {
          "indexed": false,
          "internalType": "uint256",
          "name": "startTime",
          "type": "uint256"
        }
      ],
      "name": "StakingConfigCreated",
      "type": "event"
    },
    {
      "anonymous": false,
      "inputs": [
        {
          "indexed": true,
          "internalType": "address",
          "name": "nftAddress",
          "type": "address"
        }
      ],
      "name": "StakingConfigDeleted",
      "type": "event"
    },
    {
      "anonymous": false,
      "inputs": [
        {
          "indexed": true,
          "internalType": "address",
          "name": "nftAddress",
          "type": "address"
        },
        {
          "indexed": false,
          "internalType": "address",
          "name": "rewardToken",
          "type": "address"
        },
        {
          "indexed": false,
          "internalType": "uint256",
          "name": "startTime",
          "type": "uint256"
        }
      ],
      "name": "StakingConfigUpdated",
      "type": "event"
    },
    {
      "anonymous": false,
      "inputs": [
        {
          "indexed": true,
          "internalType": "address",
          "name": "by",
          "type": "address"
        },
        {
          "indexed": true,
          "internalType": "address",
          "name": "nftAddress",
          "type": "address"
        },
        {
          "indexed": false,
          "internalType": "uint256",
          "name": "tokenId",
          "type": "uint256"
        }
      ],
      "name": "StakingUnlocked",
      "type": "event"
    },
    {
      "anonymous": false,
      "inputs": [
        {
          "indexed": true,
          "internalType": "address",
          "name": "by",
          "type": "address"
        },
        {
          "indexed": true,
          "internalType": "address",
          "name": "nftAddress",
          "type": "address"
        },
        {
          "indexed": false,
          "internalType": "uint256",
          "name": "tokenId",
          "type": "uint256"
        },
        {
          "indexed": false,
          "internalType": "uint256",
          "name": "treeId",
          "type": "uint256"
        },
        {
          "indexed": false,
          "internalType": "uint256",
          "name": "skillId",
          "type": "uint256"
        },
        {
          "indexed": false,
          "internalType": "uint256",
          "name": "canceledAt",
          "type": "uint256"
        }
      ],
      "name": "TrainingCanceled",
      "type": "event"
    },
    {
      "anonymous": false,
      "inputs": [
        {
          "indexed": true,
          "internalType": "address",
          "name": "by",
          "type": "address"
        },
        {
          "indexed": true,
          "internalType": "address",
          "name": "nftAddress",
          "type": "address"
        },
        {
          "indexed": false,
          "internalType": "uint256",
          "name": "tokenId",
          "type": "uint256"
        },
        {
          "indexed": false,
          "internalType": "uint256",
          "name": "treeId",
          "type": "uint256"
        },
        {
          "indexed": false,
          "internalType": "uint256",
          "name": "skillId",
          "type": "uint256"
        },
        {
          "indexed": false,
          "internalType": "uint256",
          "name": "level",
          "type": "uint256"
        }
      ],
      "name": "TrainingFinished",
      "type": "event"
    },
    {
      "anonymous": false,
      "inputs": [
        {
          "indexed": true,
          "internalType": "address",
          "name": "by",
          "type": "address"
        },
        {
          "indexed": true,
          "internalType": "address",
          "name": "nftAddress",
          "type": "address"
        },
        {
          "indexed": false,
          "internalType": "uint256",
          "name": "tokenId",
          "type": "uint256"
        },
        {
          "indexed": false,
          "internalType": "uint256",
          "name": "treeId",
          "type": "uint256"
        },
        {
          "indexed": false,
          "internalType": "uint256",
          "name": "skillId",
          "type": "uint256"
        },
        {
          "indexed": false,
          "internalType": "uint256",
          "name": "level",
          "type": "uint256"
        },
        {
          "indexed": false,
          "internalType": "uint256",
          "name": "startedAt",
          "type": "uint256"
        },
        {
          "indexed": false,
          "internalType": "uint256",
          "name": "completeAt",
          "type": "uint256"
        }
      ],
      "name": "TrainingStarted",
      "type": "event"
    },
    {
      "anonymous": false,
      "inputs": [
        {
          "indexed": false,
          "internalType": "address",
          "name": "account",
          "type": "address"
        }
      ],
      "name": "Unpaused",
      "type": "event"
    },
    {
      "anonymous": false,
      "inputs": [
        {
          "indexed": true,
          "internalType": "address",
          "name": "from",
          "type": "address"
        },
        {
          "indexed": true,
          "internalType": "address",
          "name": "nftAddress",
          "type": "address"
        },
        {
          "indexed": false,
          "internalType": "uint256",
          "name": "tokenId",
          "type": "uint256"
        }
      ],
      "name": "Unstaked",
      "type": "event"
    },
    {
      "inputs": [],
      "name": "ADMIN_ROLE",
      "outputs": [
        {
          "internalType": "bytes32",
          "name": "",
          "type": "bytes32"
        }
      ],
      "stateMutability": "view",
      "type": "function"
    },
    {
      "inputs": [],
      "name": "DEFAULT_ADMIN_ROLE",
      "outputs": [
        {
          "internalType": "bytes32",
          "name": "",
          "type": "bytes32"
        }
      ],
      "stateMutability": "view",
      "type": "function"
    },
    {
      "inputs": [
        {
          "internalType": "address[]",
          "name": "accounts",
          "type": "address[]"
        },
        {
          "internalType": "uint256[]",
          "name": "tokenIds",
          "type": "uint256[]"
        }
      ],
      "name": "adminMigrateStaked",
      "outputs": [],
      "stateMutability": "nonpayable",
      "type": "function"
    },
    {
      "inputs": [
        {
          "internalType": "uint256[]",
          "name": "tokenIds",
          "type": "uint256[]"
        }
      ],
      "name": "batchCancelTraining",
      "outputs": [],
      "stateMutability": "nonpayable",
      "type": "function"
    },
    {
      "inputs": [
        {
          "internalType": "uint256[]",
          "name": "tokenIds",
          "type": "uint256[]"
        }
      ],
      "name": "batchEnableStaking",
      "outputs": [],
      "stateMutability": "nonpayable",
      "type": "function"
    },
    {
      "inputs": [
        {
          "internalType": "uint256[]",
          "name": "tokenIds",
          "type": "uint256[]"
        }
      ],
      "name": "batchFinishTraining",
      "outputs": [],
      "stateMutability": "nonpayable",
      "type": "function"
    },
    {
      "inputs": [
        {
          "internalType": "uint256[]",
          "name": "level",
          "type": "uint256[]"
        },
        {
          "internalType": "uint256[]",
          "name": "cost",
          "type": "uint256[]"
        },
        {
          "internalType": "uint256[]",
          "name": "time",
          "type": "uint256[]"
        }
      ],
      "name": "batchSetTrainingCosts",
      "outputs": [],
      "stateMutability": "nonpayable",
      "type": "function"
    },
    {
      "inputs": [
        {
          "internalType": "uint256[]",
          "name": "tokenIds",
          "type": "uint256[]"
        }
      ],
      "name": "batchStake",
      "outputs": [],
      "stateMutability": "nonpayable",
      "type": "function"
    },
    {
      "inputs": [
        {
          "internalType": "uint256[]",
          "name": "tokenIds",
          "type": "uint256[]"
        },
        {
          "internalType": "uint256[]",
          "name": "skillIds",
          "type": "uint256[]"
        }
      ],
      "name": "batchStartTraining",
      "outputs": [],
      "stateMutability": "nonpayable",
      "type": "function"
    },
    {
      "inputs": [
        {
          "internalType": "uint256[]",
          "name": "tokenIds",
          "type": "uint256[]"
        }
      ],
      "name": "batchUnstake",
      "outputs": [],
      "stateMutability": "nonpayable",
      "type": "function"
    },
    {
      "inputs": [
        {
          "internalType": "uint256",
          "name": "tokenId",
          "type": "uint256"
        }
      ],
      "name": "cancelTraining",
      "outputs": [],
      "stateMutability": "nonpayable",
      "type": "function"
    },
    {
      "inputs": [
        {
          "internalType": "address",
          "name": "stakingToken",
          "type": "address"
        },
        {
          "internalType": "address",
          "name": "rewardToken",
          "type": "address"
        },
        {
          "internalType": "uint256",
          "name": "startTime",
          "type": "uint256"
        },
        {
          "internalType": "uint256",
          "name": "maxPointsPerSkill",
          "type": "uint256"
        },
        {
          "internalType": "uint256",
          "name": "treeId",
          "type": "uint256"
        },
        {
          "internalType": "uint256[]",
          "name": "skillIds",
          "type": "uint256[]"
        }
      ],
      "name": "createStakingConfig",
      "outputs": [],
      "stateMutability": "nonpayable",
      "type": "function"
    },
    {
      "inputs": [
        {
          "internalType": "address",
          "name": "nftAddress",
          "type": "address"
        }
      ],
      "name": "deleteStakingConfig",
      "outputs": [],
      "stateMutability": "nonpayable",
      "type": "function"
    },
    {
      "inputs": [
        {
          "internalType": "uint256",
          "name": "tokenId",
          "type": "uint256"
        }
      ],
      "name": "enableStaking",
      "outputs": [],
      "stateMutability": "nonpayable",
      "type": "function"
    },
    {
      "inputs": [
        {
          "internalType": "uint256",
          "name": "tokenId",
          "type": "uint256"
        }
      ],
      "name": "finishTraining",
      "outputs": [],
      "stateMutability": "nonpayable",
      "type": "function"
    },
    {
      "inputs": [
        {
          "internalType": "address",
          "name": "account",
          "type": "address"
        },
        {
          "internalType": "uint256",
          "name": "tokenId",
          "type": "uint256"
        }
      ],
      "name": "forceCancelTraining",
      "outputs": [],
      "stateMutability": "nonpayable",
      "type": "function"
    },
    {
      "inputs": [
        {
          "internalType": "address",
          "name": "_address",
          "type": "address"
        }
      ],
      "name": "getActiveTrainingOf",
      "outputs": [
        {
          "components": [
            {
              "internalType": "address",
              "name": "_address",
              "type": "address"
            },
            {
              "internalType": "uint256",
              "name": "tokenId",
              "type": "uint256"
            },
            {
              "internalType": "uint256",
              "name": "level",
              "type": "uint256"
            },
            {
              "internalType": "uint256",
              "name": "treeId",
              "type": "uint256"
            },
            {
              "internalType": "uint256",
              "name": "skillId",
              "type": "uint256"
            },
            {
              "internalType": "uint256",
              "name": "startedAt",
              "type": "uint256"
            },
            {
              "internalType": "uint256",
              "name": "completeAt",
              "type": "uint256"
            }
          ],
          "internalType": "struct ProfessionStakingAvalanche.TrainingStatus[]",
          "name": "",
          "type": "tuple[]"
        }
      ],
      "stateMutability": "view",
      "type": "function"
    },
    {
      "inputs": [],
      "name": "getAllParticipantData",
      "outputs": [
        {
          "internalType": "address[]",
          "name": "addresses",
          "type": "address[]"
        },
        {
          "components": [
            {
              "internalType": "address",
              "name": "_address",
              "type": "address"
            },
            {
              "internalType": "uint256",
              "name": "tokenId",
              "type": "uint256"
            },
            {
              "internalType": "uint256",
              "name": "rewardFrom",
              "type": "uint256"
            }
          ],
          "internalType": "struct ProfessionStakingAvalanche.NFT[][]",
          "name": "nfts",
          "type": "tuple[][]"
        }
      ],
      "stateMutability": "view",
      "type": "function"
    },
    {
      "inputs": [
        {
          "internalType": "uint256",
          "name": "tokenId",
          "type": "uint256"
        }
      ],
      "name": "getAllowedSkillChoices",
      "outputs": [
        {
          "internalType": "uint256[]",
          "name": "",
          "type": "uint256[]"
        }
      ],
      "stateMutability": "view",
      "type": "function"
    },
    {
      "inputs": [
        {
          "internalType": "bytes32",
          "name": "role",
          "type": "bytes32"
        }
      ],
      "name": "getRoleAdmin",
      "outputs": [
        {
          "internalType": "bytes32",
          "name": "",
          "type": "bytes32"
        }
      ],
      "stateMutability": "view",
      "type": "function"
    },
    {
      "inputs": [
        {
          "internalType": "address",
          "name": "_address",
          "type": "address"
        }
      ],
      "name": "getStakedOf",
      "outputs": [
        {
          "components": [
            {
              "internalType": "address",
              "name": "_address",
              "type": "address"
            },
            {
              "internalType": "uint256",
              "name": "tokenId",
              "type": "uint256"
            },
            {
              "internalType": "uint256",
              "name": "rewardFrom",
              "type": "uint256"
            }
          ],
          "internalType": "struct ProfessionStakingAvalanche.NFT[]",
          "name": "",
          "type": "tuple[]"
        }
      ],
      "stateMutability": "view",
      "type": "function"
    },
    {
      "inputs": [
        {
          "internalType": "uint256",
          "name": "tokenId",
          "type": "uint256"
        }
      ],
      "name": "getTotalProfessionSkillPoints",
      "outputs": [
        {
          "internalType": "uint256",
          "name": "",
          "type": "uint256"
        }
      ],
      "stateMutability": "view",
      "type": "function"
    },
    {
      "inputs": [
        {
          "internalType": "address",
          "name": "account",
          "type": "address"
        },
        {
          "internalType": "uint256",
          "name": "tokenId",
          "type": "uint256"
        }
      ],
      "name": "getTrainingStatus",
      "outputs": [
        {
          "components": [
            {
              "internalType": "address",
              "name": "_address",
              "type": "address"
            },
            {
              "internalType": "uint256",
              "name": "tokenId",
              "type": "uint256"
            },
            {
              "internalType": "uint256",
              "name": "level",
              "type": "uint256"
            },
            {
              "internalType": "uint256",
              "name": "treeId",
              "type": "uint256"
            },
            {
              "internalType": "uint256",
              "name": "skillId",
              "type": "uint256"
            },
            {
              "internalType": "uint256",
              "name": "startedAt",
              "type": "uint256"
            },
            {
              "internalType": "uint256",
              "name": "completeAt",
              "type": "uint256"
            }
          ],
          "internalType": "struct ProfessionStakingAvalanche.TrainingStatus",
          "name": "",
          "type": "tuple"
        }
      ],
      "stateMutability": "view",
      "type": "function"
    },
    {
      "inputs": [
        {
          "internalType": "bytes32",
          "name": "role",
          "type": "bytes32"
        },
        {
          "internalType": "address",
          "name": "account",
          "type": "address"
        }
      ],
      "name": "grantRole",
      "outputs": [],
      "stateMutability": "nonpayable",
      "type": "function"
    },
    {
      "inputs": [
        {
          "internalType": "bytes32",
          "name": "role",
          "type": "bytes32"
        },
        {
          "internalType": "address",
          "name": "account",
          "type": "address"
        }
      ],
      "name": "hasRole",
      "outputs": [
        {
          "internalType": "bool",
          "name": "",
          "type": "bool"
        }
      ],
      "stateMutability": "view",
      "type": "function"
    },
    {
      "inputs": [],
      "name": "initialize",
      "outputs": [],
      "stateMutability": "nonpayable",
      "type": "function"
    },
    {
      "inputs": [
        {
          "internalType": "uint256",
          "name": "tokenId",
          "type": "uint256"
        },
        {
          "internalType": "address",
          "name": "owner",
          "type": "address"
        }
      ],
      "name": "isOwner",
      "outputs": [
        {
          "internalType": "bool",
          "name": "",
          "type": "bool"
        }
      ],
      "stateMutability": "view",
      "type": "function"
    },
    {
      "inputs": [
        {
          "internalType": "uint256",
          "name": "tokenId",
          "type": "uint256"
        }
      ],
      "name": "isStakingEnabled",
      "outputs": [
        {
          "internalType": "bool",
          "name": "",
          "type": "bool"
        }
      ],
      "stateMutability": "view",
      "type": "function"
    },
    {
      "inputs": [
        {
          "internalType": "address",
          "name": "account",
          "type": "address"
        },
        {
          "internalType": "uint256",
          "name": "tokenId",
          "type": "uint256"
        },
        {
          "internalType": "uint256",
          "name": "skillId",
          "type": "uint256"
        }
      ],
      "name": "modifyActiveTrainingSkill",
      "outputs": [],
      "stateMutability": "nonpayable",
      "type": "function"
    },
    {
      "inputs": [
        {
          "internalType": "address",
          "name": "",
          "type": "address"
        },
        {
          "internalType": "address",
          "name": "",
          "type": "address"
        },
        {
          "internalType": "uint256",
          "name": "",
          "type": "uint256"
        },
        {
          "internalType": "bytes",
          "name": "",
          "type": "bytes"
        }
      ],
      "name": "onERC721Received",
      "outputs": [
        {
          "internalType": "bytes4",
          "name": "",
          "type": "bytes4"
        }
      ],
      "stateMutability": "pure",
      "type": "function"
    },
    {
      "inputs": [],
      "name": "pause",
      "outputs": [],
      "stateMutability": "nonpayable",
      "type": "function"
    },
    {
      "inputs": [],
      "name": "paused",
      "outputs": [
        {
          "internalType": "bool",
          "name": "",
          "type": "bool"
        }
      ],
      "stateMutability": "view",
      "type": "function"
    },
    {
      "inputs": [
        {
          "internalType": "bytes32",
          "name": "role",
          "type": "bytes32"
        },
        {
          "internalType": "address",
          "name": "account",
          "type": "address"
        }
      ],
      "name": "renounceRole",
      "outputs": [],
      "stateMutability": "nonpayable",
      "type": "function"
    },
    {
      "inputs": [
        {
          "internalType": "bytes32",
          "name": "role",
          "type": "bytes32"
        },
        {
          "internalType": "address",
          "name": "account",
          "type": "address"
        }
      ],
      "name": "revokeRole",
      "outputs": [],
      "stateMutability": "nonpayable",
      "type": "function"
    },
    {
      "inputs": [
        {
          "internalType": "uint256",
          "name": "skillId",
          "type": "uint256"
        }
      ],
      "name": "setSkillPointer",
      "outputs": [],
      "stateMutability": "nonpayable",
      "type": "function"
    },
    {
      "inputs": [
        {
          "internalType": "uint256",
          "name": "level",
          "type": "uint256"
        },
        {
          "internalType": "uint256",
          "name": "cost",
          "type": "uint256"
        },
        {
          "internalType": "uint256",
          "name": "time",
          "type": "uint256"
        }
      ],
      "name": "setTrainingCost",
      "outputs": [],
      "stateMutability": "nonpayable",
      "type": "function"
    },
    {
      "inputs": [
        {
          "internalType": "uint256[]",
          "name": "levels",
          "type": "uint256[]"
        },
        {
          "internalType": "uint256[]",
          "name": "times",
          "type": "uint256[]"
        },
        {
          "internalType": "uint256[]",
          "name": "costs",
          "type": "uint256[]"
        }
      ],
      "name": "setTrainingLevelConfig",
      "outputs": [],
      "stateMutability": "nonpayable",
      "type": "function"
    },
    {
      "inputs": [
        {
          "internalType": "uint256",
          "name": "tokenId",
          "type": "uint256"
        }
      ],
      "name": "stake",
      "outputs": [],
      "stateMutability": "nonpayable",
      "type": "function"
    },
    {
      "inputs": [
        {
          "internalType": "uint256",
          "name": "tokenId",
          "type": "uint256"
        },
        {
          "internalType": "uint256",
          "name": "skillId",
          "type": "uint256"
        }
      ],
      "name": "startTraining",
      "outputs": [],
      "stateMutability": "nonpayable",
      "type": "function"
    },
    {
      "inputs": [
        {
          "internalType": "bytes4",
          "name": "interfaceId",
          "type": "bytes4"
        }
      ],
      "name": "supportsInterface",
      "outputs": [
        {
          "internalType": "bool",
          "name": "",
          "type": "bool"
        }
      ],
      "stateMutability": "view",
      "type": "function"
    },
    {
      "inputs": [],
      "name": "treasury",
      "outputs": [
        {
          "internalType": "address",
          "name": "",
          "type": "address"
        }
      ],
      "stateMutability": "view",
      "type": "function"
    },
    {
      "inputs": [],
      "name": "unpause",
      "outputs": [],
      "stateMutability": "nonpayable",
      "type": "function"
    },
    {
      "inputs": [
        {
          "internalType": "uint256",
          "name": "tokenId",
          "type": "uint256"
        }
      ],
      "name": "unstake",
      "outputs": [],
      "stateMutability": "nonpayable",
      "type": "function"
    },
    {
      "inputs": [
        {
          "internalType": "address",
          "name": "nftAddress",
          "type": "address"
        },
        {
          "internalType": "contract IERC20Upgradeable",
          "name": "rewardToken",
          "type": "address"
        },
        {
          "internalType": "uint256",
          "name": "startTime",
          "type": "uint256"
        },
        {
          "internalType": "uint256",
          "name": "maxPointsPerSkill",
          "type": "uint256"
        }
      ],
      "name": "updateStakingConfig",
      "outputs": [],
      "stateMutability": "nonpayable",
      "type": "function"
    }
  ],
  "bytecode": "0x60806040523480156200001157600080fd5b506200001c62000022565b620000e4565b600054610100900460ff16156200008f5760405162461bcd60e51b815260206004820152602760248201527f496e697469616c697a61626c653a20636f6e747261637420697320696e697469604482015266616c697a696e6760c81b606482015260840160405180910390fd5b60005460ff9081161015620000e2576000805460ff191660ff9081179091556040519081527f7f26b83ff96e1f2b6a682f133852f6798a09c465da95921460cefb38474024989060200160405180910390a15b565b61485f80620000f46000396000f3fe608060405234801561001057600080fd5b50600436106102745760003560e01c806360a97358116101515780639e534d59116100c3578063aed2151a11610087578063aed2151a146105ce578063bbe8fcb4146105e1578063c2127793146105f4578063c75fb3e314610607578063d2acd13d14610627578063d547741f1461063a57600080fd5b80639e534d591461057a578063a217fddf1461058d578063a401344b14610595578063a694fc3a146105a8578063abfc6e73146105bb57600080fd5b806375b974451161011557806375b974451461051157806376c7e36a146105245780638129fc1c146105445780638456cb591461054c57806391d148541461055457806394930f101461056757600080fd5b806360a973581461048b57806361d027b3146104ab5780636725919f146104d65780636d11895c146104e957806375b238fc146104fc57600080fd5b80633f4ba83a116101ea5780634d7dd190116101ae5780634d7dd190146104145780635322de8d14610427578063557734ac146104475780635a5d096c1461045a5780635c975abb1461046d5780635d132db71461047857600080fd5b80633f4ba83a146103bd5780633fd174f3146103c5578063421f72c7146103d85780634679eae7146103ee5780634a7af52d1461040157600080fd5b8063230001911161023c578063230001911461032d578063248a9ca3146103405780632e17de78146103715780632e536fb9146103845780632f2ff15d1461039757806336568abe146103aa57600080fd5b806301ffc9a7146102795780630ae7a461146102a15780630ce5ced8146102b6578063150b7a02146102c9578063154aa2a81461031a575b600080fd5b61028c610287366004613d5f565b61064d565b60405190151581526020015b60405180910390f35b6102b46102af366004613d89565b610684565b005b6102b46102c4366004613e9e565b6106d4565b6103016102d7366004613f5f565b7f150b7a023d4804d13e8c85fb27262cb750cf6ba9f9dd3bb30d90f482ceeb4b1f95945050505050565b6040516001600160e01b03199091168152602001610298565b6102b4610328366004613ffd565b610938565b61028c61033b36600461401f565b610d98565b61036361034e36600461401f565b60009081526097602052604090206001015490565b604051908152602001610298565b6102b461037f36600461401f565b610e23565b6102b4610392366004614038565b61110a565b6102b46103a5366004614074565b61116f565b6102b46103b8366004614074565b611199565b6102b4611213565b6102b46103d33660046140a4565b611236565b6103e0611313565b60405161029892919061414a565b6102b46103fc3660046141eb565b611514565b6102b461040f366004614038565b61162a565b6102b4610422366004614272565b61168b565b61043a6104353660046142ef565b6118cd565b6040516102989190614365565b6102b461045536600461401f565b611963565b61028c610468366004614074565b611b8f565b60335460ff1661028c565b6102b461048636600461401f565b611c21565b61049e61049936600461401f565b611efb565b6040516102989190614373565b60d2546104be906001600160a01b031681565b6040516001600160a01b039091168152602001610298565b6102b46104e43660046142ef565b61232d565b6102b46104f7366004614038565b6123b8565b6103636000805160206147ea83398151915281565b6102b461051f3660046143ab565b612419565b6105376105323660046143e0565b612471565b60405161029891906143fd565b6102b4612782565b6102b46128bd565b61028c610562366004614074565b6128dd565b6102b461057536600461401f565b612908565b61036361058836600461401f565b612b4b565b610363600081565b6102b46105a33660046143e0565b612c01565b6102b46105b636600461401f565b612cb7565b6102b46105c936600461443f565b612f5b565b6102b46105dc3660046141eb565b613097565b6102b46105ef36600461401f565b613199565b6102b4610602366004614038565b613211565b61061a6106153660046143e0565b613272565b6040516102989190614485565b6102b4610635366004614038565b6133b9565b6102b4610648366004614074565b61341a565b60006001600160e01b03198216637965db0b60e01b148061067e57506301ffc9a760e01b6001600160e01b03198316145b92915050565b6000805160206147ea83398151915261069c8161343f565b5060009283527f68995a606069a176802face6c7d97d018fa327ea1f57950103ab1e74298105c5602052604090922090815560010155565b6000805160206147ea8339815191526106ec8161343f565b60008351116107395760405162461bcd60e51b81526020600482015260146024820152734163636f756e747320617272617920656d70747960601b60448201526064015b60405180910390fd5b81518351146107825760405162461bcd60e51b8152602060048201526015602482015274082e4e4c2f240d8cadccee8d040dad2e6dac2e8c6d605b1b6044820152606401610730565b60005b8351811015610932576107ca8382815181106107a3576107a3614498565b60200260200101518583815181106107bd576107bd614498565b6020026020010151611b8f565b1561092057306001600160a01b031660008051602061480a8339815191526001600160a01b0316636352211e85848151811061080857610808614498565b60200260200101516040518263ffffffff1660e01b815260040161082e91815260200190565b602060405180830381865afa15801561084b573d6000803e3d6000fd5b505050506040513d601f19601f8201168201806040525081019061086f91906144ae565b6001600160a01b0316036109205760008051602061480a8339815191526001600160a01b03166342842e0e308684815181106108ad576108ad614498565b60200260200101518685815181106108c7576108c7614498565b60200260200101516040518463ffffffff1660e01b81526004016108ed939291906144cb565b600060405180830381600087803b15801561090757600080fd5b505af115801561091b573d6000803e3d6000fd5b505050505b8061092a81614505565b915050610785565b50505050565b610940613449565b6040516322ca3b1560e11b81526004810183905260006024820152600a6044820152829060008051602061480a83398151915290634594762a90606401602060405180830381865afa15801561099a573d6000803e3d6000fd5b505050506040513d601f19601f820116820180604052508101906109be919061451e565b6001146109dd5760405162461bcd60e51b815260040161073090614537565b33600090815260c96020908152604080832060008051602061480a833981519152845282528083208684529091529020600581015415610a5f5760405162461bcd60e51b815260206004820152601f60248201527f547261696e696e6720697320616c726561647920696e2070726f6772657373006044820152606401610730565b610a698484613491565b610ab55760405162461bcd60e51b815260206004820152601760248201527f496e76616c696420747261696e696e67206f7074696f6e0000000000000000006044820152606401610730565b6040516322ca3b1560e11b815260048101859052600160248201526044810184905260009060008051602061480a83398151915290634594762a90606401602060405180830381865afa158015610b10573d6000803e3d6000fd5b505050506040513d601f19601f82011682018060405250810190610b34919061451e565b90506014610b4382600161455b565b1115610b915760405162461bcd60e51b815260206004820152601e60248201527f45786365656473206d6178696d756d20747261696e696e67206c6576656c00006044820152606401610730565b60008051602061480a833981519152600090815260cd6020527f68995a606069a176802face6c7d97d018fa327ea1f57950103ab1e74298105c581610bd784600161455b565b815260200190815260200160002090506000816000015411610c3b5760405162461bcd60e51b815260206004820152601d60248201527f547261696e696e67204c6576656c206973206e6f7420656e61626c65640000006044820152606401610730565b80546040516323b872dd60e01b8152739a8e0217cd870783c3f2317985c57bf570969153916323b872dd91610c779133913091906004016144cb565b6020604051808303816000875af1158015610c96573d6000803e3d6000fd5b505050506040513d601f19601f82011682018060405250810190610cba919061456e565b50610cc3613544565b610cce82600161455b565b600284015560016003840181905560048401869055426005850181905590820154610cf89161455b565b600684015582546001600160a01b03191660008051602061480a8339815191529081178455600180850188905533907f98d1944772cc1ee399725448c633b3ec863f8be81e490479055d810afaa0225c90899089610d56888361455b565b60058a015460068b0154604080519687526020870195909552938501929092526060840152608083015260a082015260c00160405180910390a3505050505050565b6040516322ca3b1560e11b8152600481018290526000602482018190526009604483015290819060008051602061480a83398151915290634594762a90606401602060405180830381865afa158015610df5573d6000803e3d6000fd5b505050506040513d601f19601f82011682018060405250810190610e19919061451e565b6001149392505050565b6040516322ca3b1560e11b81526004810182905260006024820152600a6044820152819060008051602061480a83398151915290634594762a90606401602060405180830381865afa158015610e7d573d6000803e3d6000fd5b505050506040513d601f19601f82011682018060405250810190610ea1919061451e565b600114610ec05760405162461bcd60e51b815260040161073090614537565b33600090815260ca60205260409020610ed9818461364b565b610f165760405162461bcd60e51b815260206004820152600e60248201526d13919508139bdd081cdd185ad95960921b6044820152606401610730565b6040516331a9108f60e11b815260048101849052309060008051602061480a83398151915290636352211e90602401602060405180830381865afa158015610f62573d6000803e3d6000fd5b505050506040513d601f19601f82011682018060405250810190610f8691906144ae565b6001600160a01b031603610ffc57604051632142170760e11b815260008051602061480a833981519152906342842e0e90610fc9903090339088906004016144cb565b600060405180830381600087803b158015610fe357600080fd5b505af1158015610ff7573d6000803e3d6000fd5b505050505b6040516305ad7d8960e51b815260048101849052600060248201819052600a6044830152606482015260008051602061480a8339815191529063b5afb12090608401600060405180830381600087803b15801561105857600080fd5b505af115801561106c573d6000803e3d6000fd5b505050600084815260028084016020526040822080546001600160a01b0319168155600181018390550155506110a28184613666565b506110ac81613672565b6000036110c0576110be60cb3361367c565b505b60405183815260008051602061480a8339815191529033907fd8654fcc8cf5b36d30b3f5e4688fc78118e6d68de60b9994e09902268b57c3e39060200160405180910390a3505050565b600081511161112b5760405162461bcd60e51b815260040161073090614590565b60005b815181101561116b5761115982828151811061114c5761114c614498565b6020026020010151611963565b8061116381614505565b91505061112e565b5050565b60008281526097602052604090206001015461118a8161343f565b6111948383613691565b505050565b6001600160a01b03811633146112095760405162461bcd60e51b815260206004820152602f60248201527f416363657373436f6e74726f6c3a2063616e206f6e6c792072656e6f756e636560448201526e103937b632b9903337b91039b2b63360891b6064820152608401610730565b61116b8282613717565b6000805160206147ea83398151915261122b8161343f565b61123361377e565b50565b60008251116112575760405162461bcd60e51b815260040161073090614590565b80518251146112b95760405162461bcd60e51b815260206004820152602860248201527f746f6b656e49647320636f756e74206d757374206d6174636820736b696c6c49604482015267191cc818dbdd5b9d60c21b6064820152608401610730565b60005b8251811015611194576113018382815181106112da576112da614498565b60200260200101518383815181106112f4576112f4614498565b6020026020010151610938565b8061130b81614505565b9150506112bc565b606080600061132260cb613672565b9050806001600160401b0381111561133c5761133c613db5565b60405190808252806020026020018201604052801561136f57816020015b606081526020019060019003908161135a5790505b50915060005b8181101561150257600060ca8161138d60cb856137d0565b6001600160a01b031681526020810191909152604001600090812091506113b3826137dc565b9050600081516001600160401b038111156113d0576113d0613db5565b60405190808252806020026020018201604052801561142e57816020015b61141b604051806060016040528060006001600160a01b0316815260200160008152602001600081525090565b8152602001906001900390816113ee5790505b50905060005b81518110156114cd5783600201600084838151811061145557611455614498565b6020908102919091018101518252818101929092526040908101600020815160608101835281546001600160a01b03168152600182015493810193909352600201549082015282518390839081106114af576114af614498565b602002602001018190525080806114c590614505565b915050611434565b50808685815181106114e1576114e1614498565b602002602001018190525050505080806114fa90614505565b915050611375565b5061150d60cb6137dc565b9250509091565b6000805160206147ea83398151915261152c8161343f565b60008051602061480a833981519152600090815260cd6020527f68995a606069a176802face6c7d97d018fa327ea1f57950103ab1e74298105c0905b85518110156116225784818151811061158357611583614498565b60200260200101518260050160008884815181106115a3576115a3614498565b60200260200101518152602001908152602001600020600101819055508381815181106115d2576115d2614498565b60200260200101518260050160008884815181106115f2576115f2614498565b6020026020010151815260200190815260200160002060000181905550808061161a90614505565b915050611568565b505050505050565b600081511161164b5760405162461bcd60e51b815260040161073090614590565b60005b815181101561116b5761167982828151811061166c5761166c614498565b6020026020010151612908565b8061168381614505565b91505061164e565b6000805160206147ea8339815191526116a38161343f565b6001600160a01b038716600090815260cd6020526040902080541561170a5760405162461bcd60e51b815260206004820152601d60248201527f5374616b696e6720636f6e66696720616c7265616479206578697374730000006044820152606401610730565b600084116117525760405162461bcd60e51b81526020600482015260156024820152744d697373696e672074726565496420636f6e66696760581b6044820152606401610730565b600083511161179c5760405162461bcd60e51b81526020600482015260166024820152754d697373696e6720736b696c6c496420636f6e66696760501b6044820152606401610730565b600085116117bc5760405162461bcd60e51b8152600401610730906145be565b4286116117db5760405162461bcd60e51b815260040161073090614606565b858155600181018590556002810184905560005b835181101561183f578160030184828151811061180e5761180e614498565b602090810291909101810151825460018101845560009384529190922001558061183781614505565b9150506117ef565b506004810180546001600160a01b038981166001600160a01b03199283168117909355600684018054918c1691909216811790915560006007840190815560096008850155835460408051948552602085019190915290927fc6e5f1ee3138795eeda2fa0aab37379a177c4f04396146dd2b154ab55f5c5585910160405180910390a2505050505050505050565b6118d5613ce7565b506001600160a01b03918216600090815260c96020908152604080832060008051602061480a8339815191528452825280832093835292815290829020825160e081018452815490941684526001810154918401919091526002810154918301919091526003810154606083015260048101546080830152600581015460a08301526006015460c082015290565b6040516322ca3b1560e11b81526004810182905260006024820152600a6044820152819060008051602061480a83398151915290634594762a90606401602060405180830381865afa1580156119bd573d6000803e3d6000fd5b505050506040513d601f19601f820116820180604052508101906119e1919061451e565b600114611a005760405162461bcd60e51b815260040161073090614537565b33600090815260c96020908152604080832060008051602061480a8339815191528452825280832085845290915290206005810154611a705760405162461bcd60e51b815260206004820152600c60248201526b4e6f7420747261696e696e6760a01b6044820152606401610730565b42816006015411611ac35760405162461bcd60e51b815260206004820152601960248201527f547261696e696e6720616c72656164792066696e6973686564000000000000006044820152606401610730565b6003810154600482015460408051868152602081019390935282015242606082015260008051602061480a8339815191529033907fc9b7c59fa980251f7ca7eae784c953e8a9f49d617be6edca0b41264ea05cb169906080015b60405180910390a3505033600090815260c96020908152604080832060008051602061480a8339815191528452825280832093835292905290812080546001600160a01b0319168155600181018290556002810182905560038101829055600481018290556005810182905560060155565b6001600160a01b038116600090815260ca6020526040812081611bb1826137dc565b905060005b8151811015611c155785836002016000848481518110611bd857611bd8614498565b602002602001015181526020019081526020016000206001015403611c03576001935050505061067e565b80611c0d81614505565b915050611bb6565b50600095945050505050565b611c29613449565b6040516322ca3b1560e11b81526004810182905260006024820152600a6044820152819060008051602061480a83398151915290634594762a90606401602060405180830381865afa158015611c83573d6000803e3d6000fd5b505050506040513d601f19601f82011682018060405250810190611ca7919061451e565b15611ce55760405162461bcd60e51b815260206004820152600e60248201526d105b1c9958591e481cdd185ad95960921b6044820152606401610730565b6040516322ca3b1560e11b815260048101839052600060248201526009604482015260008051602061480a83398151915290634594762a90606401602060405180830381865afa158015611d3d573d6000803e3d6000fd5b505050506040513d601f19601f82011682018060405250810190611d61919061451e565b15611dae5760405162461bcd60e51b815260206004820152601860248201527f5374616b696e6720616c726561647920756e6c6f636b656400000000000000006044820152606401610730565b6040516323b872dd60e01b8152739a8e0217cd870783c3f2317985c57bf570969153906323b872dd90611df290339030906801158e460913d00000906004016144cb565b6020604051808303816000875af1158015611e11573d6000803e3d6000fd5b505050506040513d601f19601f82011682018060405250810190611e35919061456e565b50611e3e613544565b6040516305ad7d8960e51b81526004810183905260006024820152600960448201526001606482015260008051602061480a8339815191529063b5afb12090608401600060405180830381600087803b158015611e9a57600080fd5b505af1158015611eae573d6000803e3d6000fd5b505060405184815260008051602061480a83398151915292503391507f051144eeaaad1c4ee6b1eab928f531a9daf1687b3e0f8db00dae3f5df8c285db9060200160405180910390a35050565b60008051602061480a833981519152600090815260cd6020527f68995a606069a176802face6c7d97d018fa327ea1f57950103ab1e74298105c3546060917f68995a606069a176802face6c7d97d018fa327ea1f57950103ab1e74298105c0916001600160401b03811115611f7257611f72613db5565b604051908082528060200260200182016040528015611f9b578160200160208202803683370190505b50905060008060005b60038501548110156120f357600685015460028601546003870180546001600160a01b0390931692634594762a928b92909186908110611fe657611fe6614498565b90600052602060002001546040518463ffffffff1660e01b8152600401612020939291909283526020830191909152604082015260600190565b602060405180830381865afa15801561203d573d6000803e3d6000fd5b505050506040513d601f19601f82011682018060405250810190612061919061451e565b84828151811061207357612073614498565b602002602001018181525050600084828151811061209357612093614498565b602002602001015111156120af57826120ab81614505565b9350505b84600101548482815181106120c6576120c6614498565b6020026020010151036120e157816120dd81614505565b9250505b806120eb81614505565b915050611fa4565b508160000361215a578360030180548060200260200160405190810160405280929190818152602001828054801561214a57602002820191906000526020600020905b815481526020019060010190808311612136575b5050505050945050505050919050565b8060020361216e5750606095945050505050565b600384015460009061218290600190614650565b6001600160401b0381111561219957612199613db5565b6040519080825280602002602001820160405280156121c2578160200160208202803683370190505b5090506000805b8551811015612320578360011480156121e25750846001145b801561220757508581815181106121fb576121fb614498565b60200260200101516000145b156122575786600301818154811061222157612221614498565b906000526020600020015483838151811061223e5761223e614498565b60209081029190910101528161225381614505565b9250505b600086828151811061226b5761226b614498565b602002602001015111801561229c5750866001015486828151811061229257612292614498565b6020026020010151105b1561230e57604080516001808252818301909252600091602080830190803683370190505090508760030182815481106122d8576122d8614498565b9060005260206000200154816000815181106122f6576122f6614498565b60209081029190910101529998505050505050505050565b8061231881614505565b9150506121c9565b5090979650505050505050565b6000805160206147ea8339815191526123458161343f565b506001600160a01b03909116600090815260c96020908152604080832060008051602061480a8339815191528452825280832093835292905290812080546001600160a01b0319168155600181018290556002810182905560038101829055600481018290556005810182905560060155565b60008151116123d95760405162461bcd60e51b815260040161073090614663565b60005b815181101561116b576124078282815181106123fa576123fa614498565b6020026020010151611c21565b8061241181614505565b9150506123dc565b6000805160206147ea8339815191526124318161343f565b506001600160a01b03909216600090815260c96020908152604080832060008051602061480a833981519152845282528083209383529290522060040155565b6001600160a01b038116600090815260ca60205260408120606091612495826137dc565b90506000805b825181101561255e5760008460020160008584815181106124be576124be614498565b60209081029190910181015182528181019290925260409081016000908120825160608101845281546001600160a01b0390811682526001830154828701908152600290930154828601528c16835260c9855283832060008051602061480a8339815191528452855283832091518352935220600601549091501561254b578261254781614505565b9350505b508061255681614505565b91505061249b565b506000816001600160401b0381111561257957612579613db5565b6040519080825280602002602001820160405280156125b257816020015b61259f613ce7565b8152602001906001900390816125975790505b5090506000805b84518110156127765760008660020160008784815181106125dc576125dc614498565b602002602001015181526020019081526020016000206040518060600160405290816000820160009054906101000a90046001600160a01b03166001600160a01b03166001600160a01b03168152602001600182015481526020016002820154815250509050600060c960008b6001600160a01b03166001600160a01b03168152602001908152602001600020600060008051602061480a8339815191526001600160a01b03166001600160a01b031681526020019081526020016000206000836020015181526020019081526020016000206040518060e00160405290816000820160009054906101000a90046001600160a01b03166001600160a01b03166001600160a01b031681526020016001820154815260200160028201548152602001600382015481526020016004820154815260200160058201548152602001600682015481525050905060008160c001511115612761578085858151811061274757612747614498565b6020026020010181905250838061275d90614505565b9450505b5050808061276e90614505565b9150506125b9565b50909695505050505050565b600054610100900460ff16158080156127a25750600054600160ff909116105b806127bc5750303b1580156127bc575060005460ff166001145b61281f5760405162461bcd60e51b815260206004820152602e60248201527f496e697469616c697a61626c653a20636f6e747261637420697320616c72656160448201526d191e481a5b9a5d1a585b1a5e995960921b6064820152608401610730565b6000805460ff191660011790558015612842576000805461ff0019166101001790555b61284a6137e9565b612852613818565b61285d600033613691565b6128756000805160206147ea83398151915233613691565b8015611233576000805461ff0019169055604051600181527f7f26b83ff96e1f2b6a682f133852f6798a09c465da95921460cefb38474024989060200160405180910390a150565b6000805160206147ea8339815191526128d58161343f565b61123361383f565b60009182526097602090815260408084206001600160a01b0393909316845291905290205460ff1690565b6040516322ca3b1560e11b81526004810182905260006024820152600a6044820152819060008051602061480a83398151915290634594762a90606401602060405180830381865afa158015612962573d6000803e3d6000fd5b505050506040513d601f19601f82011682018060405250810190612986919061451e565b6001146129a55760405162461bcd60e51b815260040161073090614537565b33600090815260c96020908152604080832060008051602061480a8339815191528452825280832085845290915290206005810154612a155760405162461bcd60e51b815260206004820152600c60248201526b4e6f7420747261696e696e6760a01b6044820152606401610730565b4281600601541115612a695760405162461bcd60e51b815260206004820152601a60248201527f547261696e696e67207374696c6c20696e2070726f67726573730000000000006044820152606401610730565b60048181015460028301546040516305ad7d8960e51b8152928301869052600160248401526044830191909152606482015260008051602061480a8339815191529063b5afb12090608401600060405180830381600087803b158015612ace57600080fd5b505af1158015612ae2573d6000803e3d6000fd5b50505060038201546004830154600284015460405160008051602061480a833981519152945033937f4cffb663b46d78e759211fc8a998ed5dd16066c4229b4b4e94bc0ff7431e85a893611b1d938a845260208401929092526040830152606082015260800190565b600080805b600c811015612bfa576040516322ca3b1560e11b815260048101859052600160248201526044810182905260009060008051602061480a83398151915290634594762a90606401602060405180830381865afa158015612bb4573d6000803e3d6000fd5b505050506040513d601f19601f82011682018060405250810190612bd8919061451e565b9050612be4818461455b565b9250508080612bf290614505565b915050612b50565b5092915050565b6000805160206147ea833981519152612c198161343f565b6001600160a01b038216600090815260cd60205260408120818155600181018290556002810182905590612c506003830182613d2d565b506004810180546001600160a01b0319908116909155600682018054909116905560006007820181905560089091018190556040516001600160a01b038416917fed93036dfb7e5500a2a7f2471a56e6b3389a8c28c72adca8ba9f6a4025ca6d5891a25050565b612cbf613449565b6040516322ca3b1560e11b8152600481018290526000602482015260096044820152819060008051602061480a83398151915290634594762a90606401602060405180830381865afa158015612d19573d6000803e3d6000fd5b505050506040513d601f19601f82011682018060405250810190612d3d919061451e565b600114612d7b5760405162461bcd60e51b815260206004820152600c60248201526b139bdd081d5b9b1bd8dad95960a21b6044820152606401610730565b6040516322ca3b1560e11b81526004810183905260006024820152600a6044820152829060008051602061480a83398151915290634594762a90606401602060405180830381865afa158015612dd5573d6000803e3d6000fd5b505050506040513d601f19601f82011682018060405250810190612df9919061451e565b15612e375760405162461bcd60e51b815260206004820152600e60248201526d105b1c9958591e481cdd185ad95960921b6044820152606401610730565b6040516305ad7d8960e51b81526004810184905260006024820152600a60448201526001606482015260008051602061480a8339815191529063b5afb12090608401600060405180830381600087803b158015612e9357600080fd5b505af1158015612ea7573d6000803e3d6000fd5b50505050612ebf3360cb61387c90919063ffffffff16565b5033600090815260ca602090815260408083208684526002810190925290912080546001600160a01b03191660008051602061480a83398151915217815560018101859055612f0e8286613891565b5060405185815260008051602061480a8339815191529033907f5dac0c1b1112564a045ba943c9d50270893e8e826c49be8e7073adc713ab7bd79060200160405180910390a35050505050565b6000805160206147ea833981519152612f738161343f565b6001600160a01b038516600090815260cd60205260408120549003612fda5760405162461bcd60e51b815260206004820152601d60248201527f5374616b696e6720636f6e66696720646f6573206e6f742065786973740000006044820152606401610730565b60008211612ffa5760405162461bcd60e51b8152600401610730906145be565b4283116130195760405162461bcd60e51b815260040161073090614606565b6001600160a01b03858116600081815260cd60209081526040918290206004810180546001600160a01b031916958a169586179055878155600181018790558251948552908401879052927f255d2940ab142f16cd2452c452fc20185bcbc341ce9c1646bc3d4feac9dc3371910160405180910390a2505050505050565b6000805160206147ea8339815191526130af8161343f565b825184511480156130c1575081518351145b61311e5760405162461bcd60e51b815260206004820152602860248201527f416c6c20696e70757420617272617973206d757374206265207468652073616d6044820152670ca40d8cadccee8d60c31b6064820152608401610730565b60005b84518110156131925761318085828151811061313f5761313f614498565b602002602001015185838151811061315957613159614498565b602002602001015185848151811061317357613173614498565b6020026020010151610684565b8061318a81614505565b915050613121565b5050505050565b6000805160206147ea8339815191526131b18161343f565b5060008051602061480a83398151915260005260cd60205260017f68995a606069a176802face6c7d97d018fa327ea1f57950103ab1e74298105c7557f68995a606069a176802face6c7d97d018fa327ea1f57950103ab1e74298105c855565b60008151116132325760405162461bcd60e51b815260040161073090614663565b60005b815181101561116b5761326082828151811061325357613253614498565b6020026020010151612cb7565b8061326a81614505565b915050613235565b6001600160a01b038116600090815260ca60205260408120606091613296826137dc565b9050600081516001600160401b038111156132b3576132b3613db5565b60405190808252806020026020018201604052801561331157816020015b6132fe604051806060016040528060006001600160a01b0316815260200160008152602001600081525090565b8152602001906001900390816132d15790505b50905060005b82518110156133b05783600201600084838151811061333857613338614498565b6020908102919091018101518252818101929092526040908101600020815160608101835281546001600160a01b031681526001820154938101939093526002015490820152825183908390811061339257613392614498565b602002602001018190525080806133a890614505565b915050613317565b50949350505050565b60008151116133da5760405162461bcd60e51b815260040161073090614663565b60005b815181101561116b576134088282815181106133fb576133fb614498565b6020026020010151610e23565b8061341281614505565b9150506133dd565b6000828152609760205260409020600101546134358161343f565b6111948383613717565b611233813361389d565b60335460ff161561348f5760405162461bcd60e51b815260206004820152601060248201526f14185d5cd8589b194e881c185d5cd95960821b6044820152606401610730565b565b60008061349d84611efb565b905060008151116134f05760405162461bcd60e51b815260206004820152601e60248201527f4e6f20747261696e696e672073657373696f6e7320617661696c61626c6500006044820152606401610730565b60005b8151811015613539578382828151811061350f5761350f614498565b6020026020010151036135275760019250505061067e565b8061353181614505565b9150506134f3565b506000949350505050565b6040516370a0823160e01b8152306004820152600090739a8e0217cd870783c3f2317985c57bf570969153906370a0823190602401602060405180830381865afa158015613596573d6000803e3d6000fd5b505050506040513d601f19601f820116820180604052508101906135ba919061451e565b905080156112335760d25460405163a9059cbb60e01b81526001600160a01b03909116600482015260248101829052739a8e0217cd870783c3f2317985c57bf5709691539063a9059cbb906044016020604051808303816000875af1158015613627573d6000803e3d6000fd5b505050506040513d601f19601f8201168201806040525081019061116b919061456e565b600081815260018301602052604081205415155b9392505050565b600061365f83836138f6565b600061067e825490565b600061365f836001600160a01b0384166138f6565b61369b82826128dd565b61116b5760008281526097602090815260408083206001600160a01b03851684529091529020805460ff191660011790556136d33390565b6001600160a01b0316816001600160a01b0316837f2f8788117e7eff1d82e926ec794901d17c78024a50270940304540a733656f0d60405160405180910390a45050565b61372182826128dd565b1561116b5760008281526097602090815260408083206001600160a01b0385168085529252808320805460ff1916905551339285917ff6391f5c32d9c69d2a47ea670b442974b53935d1edc7fd64eb21e047a839171b9190a45050565b6137866139e9565b6033805460ff191690557f5db9ee0a495bf2e6ff9c91a7834c1ba4fdd244a5e8aa4e537bd38aeae4b073aa335b6040516001600160a01b03909116815260200160405180910390a1565b600061365f8383613a32565b6060600061365f83613a5c565b600054610100900460ff166138105760405162461bcd60e51b81526004016107309061468e565b61348f613ab8565b600054610100900460ff1661348f5760405162461bcd60e51b81526004016107309061468e565b613847613449565b6033805460ff191660011790557f62e78cea01bee320cd4e420270b5ea74000d11b0c9f74754ebdbfc544b05a2586137b33390565b600061365f836001600160a01b038416613aeb565b600061365f8383613aeb565b6138a782826128dd565b61116b576138b481613b3a565b6138bf836020613b4c565b6040516020016138d09291906146fd565b60408051601f198184030181529082905262461bcd60e51b825261073091600401614772565b600081815260018301602052604081205480156139df57600061391a600183614650565b855490915060009061392e90600190614650565b905081811461399357600086600001828154811061394e5761394e614498565b906000526020600020015490508087600001848154811061397157613971614498565b6000918252602080832090910192909255918252600188019052604090208390555b85548690806139a4576139a46147a5565b60019003818190600052602060002001600090559055856001016000868152602001908152602001600020600090556001935050505061067e565b600091505061067e565b60335460ff1661348f5760405162461bcd60e51b815260206004820152601460248201527314185d5cd8589b194e881b9bdd081c185d5cd95960621b6044820152606401610730565b6000826000018281548110613a4957613a49614498565b9060005260206000200154905092915050565b606081600001805480602002602001604051908101604052809291908181526020018280548015613aac57602002820191906000526020600020905b815481526020019060010190808311613a98575b50505050509050919050565b600054610100900460ff16613adf5760405162461bcd60e51b81526004016107309061468e565b6033805460ff19169055565b6000818152600183016020526040812054613b325750815460018181018455600084815260208082209093018490558454848252828601909352604090209190915561067e565b50600061067e565b606061067e6001600160a01b03831660145b60606000613b5b8360026147bb565b613b6690600261455b565b6001600160401b03811115613b7d57613b7d613db5565b6040519080825280601f01601f191660200182016040528015613ba7576020820181803683370190505b509050600360fc1b81600081518110613bc257613bc2614498565b60200101906001600160f81b031916908160001a905350600f60fb1b81600181518110613bf157613bf1614498565b60200101906001600160f81b031916908160001a9053506000613c158460026147bb565b613c2090600161455b565b90505b6001811115613c98576f181899199a1a9b1b9c1cb0b131b232b360811b85600f1660108110613c5457613c54614498565b1a60f81b828281518110613c6a57613c6a614498565b60200101906001600160f81b031916908160001a90535060049490941c93613c91816147d2565b9050613c23565b50831561365f5760405162461bcd60e51b815260206004820181905260248201527f537472696e67733a20686578206c656e67746820696e73756666696369656e746044820152606401610730565b6040518060e0016040528060006001600160a01b031681526020016000815260200160008152602001600081526020016000815260200160008152602001600081525090565b508054600082559060005260206000209081019061123391905b80821115613d5b5760008155600101613d47565b5090565b600060208284031215613d7157600080fd5b81356001600160e01b03198116811461365f57600080fd5b600080600060608486031215613d9e57600080fd5b505081359360208301359350604090920135919050565b634e487b7160e01b600052604160045260246000fd5b604051601f8201601f191681016001600160401b0381118282101715613df357613df3613db5565b604052919050565b60006001600160401b03821115613e1457613e14613db5565b5060051b60200190565b6001600160a01b038116811461123357600080fd5b600082601f830112613e4457600080fd5b81356020613e59613e5483613dfb565b613dcb565b82815260059290921b84018101918181019086841115613e7857600080fd5b8286015b84811015613e935780358352918301918301613e7c565b509695505050505050565b60008060408385031215613eb157600080fd5b82356001600160401b0380821115613ec857600080fd5b818501915085601f830112613edc57600080fd5b81356020613eec613e5483613dfb565b82815260059290921b84018101918181019089841115613f0b57600080fd5b948201945b83861015613f32578535613f2381613e1e565b82529482019490820190613f10565b96505086013592505080821115613f4857600080fd5b50613f5585828601613e33565b9150509250929050565b600080600080600060808688031215613f7757600080fd5b8535613f8281613e1e565b94506020860135613f9281613e1e565b93506040860135925060608601356001600160401b0380821115613fb557600080fd5b818801915088601f830112613fc957600080fd5b813581811115613fd857600080fd5b896020828501011115613fea57600080fd5b9699959850939650602001949392505050565b6000806040838503121561401057600080fd5b50508035926020909101359150565b60006020828403121561403157600080fd5b5035919050565b60006020828403121561404a57600080fd5b81356001600160401b0381111561406057600080fd5b61406c84828501613e33565b949350505050565b6000806040838503121561408757600080fd5b82359150602083013561409981613e1e565b809150509250929050565b600080604083850312156140b757600080fd5b82356001600160401b03808211156140ce57600080fd5b6140da86838701613e33565b93506020850135915080821115613f4857600080fd5b600081518084526020808501945080840160005b8381101561413f57815180516001600160a01b0316885283810151848901526040908101519088015260609096019590820190600101614104565b509495945050505050565b604080825283519082018190526000906020906060840190828701845b8281101561418c5781516001600160a01b031684529284019290840190600101614167565b50505083810382850152845180825282820190600581901b8301840187850160005b838110156141dc57601f198684030185526141ca8383516140f0565b948701949250908601906001016141ae565b50909998505050505050505050565b60008060006060848603121561420057600080fd5b83356001600160401b038082111561421757600080fd5b61422387838801613e33565b9450602086013591508082111561423957600080fd5b61424587838801613e33565b9350604086013591508082111561425b57600080fd5b5061426886828701613e33565b9150509250925092565b60008060008060008060c0878903121561428b57600080fd5b863561429681613e1e565b955060208701356142a681613e1e565b945060408701359350606087013592506080870135915060a08701356001600160401b038111156142d657600080fd5b6142e289828a01613e33565b9150509295509295509295565b6000806040838503121561430257600080fd5b823561430d81613e1e565b946020939093013593505050565b80516001600160a01b031682526020808201519083015260408082015190830152606080820151908301526080808201519083015260a0818101519083015260c090810151910152565b60e0810161067e828461431b565b6020808252825182820181905260009190848201906040850190845b818110156127765783518352928401929184019160010161438f565b6000806000606084860312156143c057600080fd5b83356143cb81613e1e565b95602085013595506040909401359392505050565b6000602082840312156143f257600080fd5b813561365f81613e1e565b6020808252825182820181905260009190848201906040850190845b818110156127765761442c83855161431b565b9284019260e09290920191600101614419565b6000806000806080858703121561445557600080fd5b843561446081613e1e565b9350602085013561447081613e1e565b93969395505050506040820135916060013590565b60208152600061365f60208301846140f0565b634e487b7160e01b600052603260045260246000fd5b6000602082840312156144c057600080fd5b815161365f81613e1e565b6001600160a01b039384168152919092166020820152604081019190915260600190565b634e487b7160e01b600052601160045260246000fd5b600060018201614517576145176144ef565b5060010190565b60006020828403121561453057600080fd5b5051919050565b6020808252600a9082015269139bdd081cdd185ad95960b21b604082015260600190565b8082018082111561067e5761067e6144ef565b60006020828403121561458057600080fd5b8151801515811461365f57600080fd5b602080825260149082015273746f6b656e49647320617272617920656d70747960601b604082015260600190565b60208082526028908201527f6d6178506f696e7473506572536b696c6c206d75737420626520677265617465604082015267072207468616e20360c41b606082015260800190565b6020808252602a908201527f737461727454696d65206d7573742062652061206675747572652074696d6520604082015269696e207365636f6e647360b01b606082015260800190565b8181038181111561067e5761067e6144ef565b602080825260119082015270746f6b656e20617272617920656d70747960781b604082015260600190565b6020808252602b908201527f496e697469616c697a61626c653a20636f6e7472616374206973206e6f74206960408201526a6e697469616c697a696e6760a81b606082015260800190565b60005b838110156146f45781810151838201526020016146dc565b50506000910152565b7f416363657373436f6e74726f6c3a206163636f756e74200000000000000000008152600083516147358160178501602088016146d9565b7001034b99036b4b9b9b4b733903937b6329607d1b60179184019182015283516147668160288401602088016146d9565b01602801949350505050565b60208152600082518060208401526147918160408501602087016146d9565b601f01601f19169190910160400192915050565b634e487b7160e01b600052603160045260246000fd5b808202811582820484141761067e5761067e6144ef565b6000816147e1576147e16144ef565b50600019019056fea49807205ce4d355092ef5a8a18f56e8913cf4a201fbe287825b095693c21775000000000000000000000000bf20c23d25fca8aa4e7946496250d67872691af2a2646970667358221220b15c9b9b0e8cdd4289defbeb18eb96da152e17fc03ad2b08cbe7ce19f063931164736f6c63430008110033",
  "linkReferences": {},
  "deployedLinkReferences": {}
}