{
  "_format": "hh-sol-artifact-1",
  "contractName": "ERC721",
  "sourceName": "contracts/marketplace/ERC721.sol",
  "abi": [
    {
      "anonymous": false,
      "inputs": [
        {
          "indexed": true,
          "internalType": "address",
          "name": "owner",
          "type": "address"
        },
        {
          "indexed": true,
          "internalType": "address",
          "name": "approved",
          "type": "address"
        },
        {
          "indexed": true,
          "internalType": "uint256",
          "name": "tokenId",
          "type": "uint256"
        }
      ],
      "name": "Approval",
      "type": "event"
    },
    {
      "anonymous": false,
      "inputs": [
        {
          "indexed": true,
          "internalType": "address",
          "name": "owner",
          "type": "address"
        },
        {
          "indexed": true,
          "internalType": "address",
          "name": "operator",
          "type": "address"
        },
        {
          "indexed": false,
          "internalType": "bool",
          "name": "approved",
          "type": "bool"
        }
      ],
      "name": "ApprovalForAll",
      "type": "event"
    },
    {
      "anonymous": false,
      "inputs": [
        {
          "indexed": false,
          "internalType": "uint8",
          "name": "version",
          "type": "uint8"
        }
      ],
      "name": "Initialized",
      "type": "event"
    },
    {
      "anonymous": false,
      "inputs": [
        {
          "indexed": true,
          "internalType": "address",
          "name": "previousOwner",
          "type": "address"
        },
        {
          "indexed": true,
          "internalType": "address",
          "name": "newOwner",
          "type": "address"
        }
      ],
      "name": "OwnershipTransferred",
      "type": "event"
    },
    {
      "anonymous": false,
      "inputs": [
        {
          "indexed": true,
          "internalType": "address",
          "name": "from",
          "type": "address"
        },
        {
          "indexed": true,
          "internalType": "address",
          "name": "to",
          "type": "address"
        },
        {
          "indexed": true,
          "internalType": "uint256",
          "name": "tokenId",
          "type": "uint256"
        }
      ],
      "name": "Transfer",
      "type": "event"
    },
    {
      "inputs": [
        {
          "internalType": "address",
          "name": "to",
          "type": "address"
        },
        {
          "internalType": "uint256",
          "name": "tokenId",
          "type": "uint256"
        }
      ],
      "name": "approve",
      "outputs": [],
      "stateMutability": "nonpayable",
      "type": "function"
    },
    {
      "inputs": [
        {
          "internalType": "address",
          "name": "owner",
          "type": "address"
        }
      ],
      "name": "balanceOf",
      "outputs": [
        {
          "internalType": "uint256",
          "name": "",
          "type": "uint256"
        }
      ],
      "stateMutability": "view",
      "type": "function"
    },
    {
      "inputs": [],
      "name": "baseURI",
      "outputs": [
        {
          "internalType": "string",
          "name": "",
          "type": "string"
        }
      ],
      "stateMutability": "view",
      "type": "function"
    },
    {
      "inputs": [
        {
          "internalType": "uint256",
          "name": "tokenId",
          "type": "uint256"
        }
      ],
      "name": "getApproved",
      "outputs": [
        {
          "internalType": "address",
          "name": "",
          "type": "address"
        }
      ],
      "stateMutability": "view",
      "type": "function"
    },
    {
      "inputs": [],
      "name": "initialize",
      "outputs": [],
      "stateMutability": "nonpayable",
      "type": "function"
    },
    {
      "inputs": [
        {
          "internalType": "address",
          "name": "owner",
          "type": "address"
        },
        {
          "internalType": "address",
          "name": "operator",
          "type": "address"
        }
      ],
      "name": "isApprovedForAll",
      "outputs": [
        {
          "internalType": "bool",
          "name": "",
          "type": "bool"
        }
      ],
      "stateMutability": "view",
      "type": "function"
    },
    {
      "inputs": [
        {
          "internalType": "uint256",
          "name": "tokenId",
          "type": "uint256"
        }
      ],
      "name": "mint",
      "outputs": [],
      "stateMutability": "nonpayable",
      "type": "function"
    },
    {
      "inputs": [],
      "name": "name",
      "outputs": [
        {
          "internalType": "string",
          "name": "",
          "type": "string"
        }
      ],
      "stateMutability": "view",
      "type": "function"
    },
    {
      "inputs": [],
      "name": "owner",
      "outputs": [
        {
          "internalType": "address",
          "name": "",
          "type": "address"
        }
      ],
      "stateMutability": "view",
      "type": "function"
    },
    {
      "inputs": [
        {
          "internalType": "uint256",
          "name": "tokenId",
          "type": "uint256"
        }
      ],
      "name": "ownerOf",
      "outputs": [
        {
          "internalType": "address",
          "name": "",
          "type": "address"
        }
      ],
      "stateMutability": "view",
      "type": "function"
    },
    {
      "inputs": [],
      "name": "renounceOwnership",
      "outputs": [],
      "stateMutability": "nonpayable",
      "type": "function"
    },
    {
      "inputs": [
        {
          "internalType": "address",
          "name": "from",
          "type": "address"
        },
        {
          "internalType": "address",
          "name": "to",
          "type": "address"
        },
        {
          "internalType": "uint256",
          "name": "tokenId",
          "type": "uint256"
        }
      ],
      "name": "safeTransferFrom",
      "outputs": [],
      "stateMutability": "nonpayable",
      "type": "function"
    },
    {
      "inputs": [
        {
          "internalType": "address",
          "name": "from",
          "type": "address"
        },
        {
          "internalType": "address",
          "name": "to",
          "type": "address"
        },
        {
          "internalType": "uint256",
          "name": "tokenId",
          "type": "uint256"
        },
        {
          "internalType": "bytes",
          "name": "data",
          "type": "bytes"
        }
      ],
      "name": "safeTransferFrom",
      "outputs": [],
      "stateMutability": "nonpayable",
      "type": "function"
    },
    {
      "inputs": [
        {
          "internalType": "address",
          "name": "operator",
          "type": "address"
        },
        {
          "internalType": "bool",
          "name": "approved",
          "type": "bool"
        }
      ],
      "name": "setApprovalForAll",
      "outputs": [],
      "stateMutability": "nonpayable",
      "type": "function"
    },
    {
      "inputs": [
        {
          "internalType": "string",
          "name": "URI",
          "type": "string"
        }
      ],
      "name": "setBaseURI",
      "outputs": [],
      "stateMutability": "nonpayable",
      "type": "function"
    },
    {
      "inputs": [
        {
          "internalType": "bytes4",
          "name": "interfaceId",
          "type": "bytes4"
        }
      ],
      "name": "supportsInterface",
      "outputs": [
        {
          "internalType": "bool",
          "name": "",
          "type": "bool"
        }
      ],
      "stateMutability": "view",
      "type": "function"
    },
    {
      "inputs": [],
      "name": "symbol",
      "outputs": [
        {
          "internalType": "string",
          "name": "",
          "type": "string"
        }
      ],
      "stateMutability": "view",
      "type": "function"
    },
    {
      "inputs": [
        {
          "internalType": "uint256",
          "name": "tokenId",
          "type": "uint256"
        }
      ],
      "name": "tokenURI",
      "outputs": [
        {
          "internalType": "string",
          "name": "",
          "type": "string"
        }
      ],
      "stateMutability": "view",
      "type": "function"
    },
    {
      "inputs": [
        {
          "internalType": "address",
          "name": "from",
          "type": "address"
        },
        {
          "internalType": "address",
          "name": "to",
          "type": "address"
        },
        {
          "internalType": "uint256",
          "name": "tokenId",
          "type": "uint256"
        }
      ],
      "name": "transferFrom",
      "outputs": [],
      "stateMutability": "nonpayable",
      "type": "function"
    },
    {
      "inputs": [
        {
          "internalType": "address",
          "name": "newOwner",
          "type": "address"
        }
      ],
      "name": "transferOwnership",
      "outputs": [],
      "stateMutability": "nonpayable",
      "type": "function"
    }
  ],
  "bytecode": "0x608060405234801561001057600080fd5b50611997806100206000396000f3fe608060405234801561001057600080fd5b506004361061012c5760003560e01c8063715018a6116100ad578063a22cb46511610071578063a22cb4651461025f578063b88d4fde14610272578063c87b56dd14610285578063e985e9c514610298578063f2fde38b146102ab57600080fd5b8063715018a6146102235780638129fc1c1461022b5780638da5cb5b1461023357806395d89b4114610244578063a0712d681461024c57600080fd5b806342842e0e116100f457806342842e0e146101c157806355f804b3146101d45780636352211e146101e75780636c0360eb146101fa57806370a082311461020257600080fd5b806301ffc9a71461013157806306fdde0314610159578063081812fc1461016e578063095ea7b31461019957806323b872dd146101ae575b600080fd5b61014461013f36600461132f565b6102be565b60405190151581526020015b60405180910390f35b610161610310565b604051610150919061139c565b61018161017c3660046113af565b6103a2565b6040516001600160a01b039091168152602001610150565b6101ac6101a73660046113e4565b6103c9565b005b6101ac6101bc36600461140e565b6104e3565b6101ac6101cf36600461140e565b610514565b6101ac6101e23660046114d6565b61052f565b6101816101f53660046113af565b610547565b6101616105a7565b61021561021036600461151f565b6105b6565b604051908152602001610150565b6101ac61063c565b6101ac610650565b6033546001600160a01b0316610181565b6101616107a7565b6101ac61025a3660046113af565b6107b6565b6101ac61026d36600461153a565b6107c8565b6101ac610280366004611576565b6107d3565b6101616102933660046113af565b61080b565b6101446102a63660046115f2565b610872565b6101ac6102b936600461151f565b6108a0565b60006001600160e01b031982166380ac58cd60e01b14806102ef57506001600160e01b03198216635b5e139f60e01b145b8061030a57506301ffc9a760e01b6001600160e01b03198316145b92915050565b60606097805461031f90611625565b80601f016020809104026020016040519081016040528092919081815260200182805461034b90611625565b80156103985780601f1061036d57610100808354040283529160200191610398565b820191906000526020600020905b81548152906001019060200180831161037b57829003601f168201915b5050505050905090565b60006103ad82610916565b506000908152609b60205260409020546001600160a01b031690565b60006103d482610547565b9050806001600160a01b0316836001600160a01b0316036104465760405162461bcd60e51b815260206004820152602160248201527f4552433732313a20617070726f76616c20746f2063757272656e74206f776e656044820152603960f91b60648201526084015b60405180910390fd5b336001600160a01b038216148061046257506104628133610872565b6104d45760405162461bcd60e51b815260206004820152603d60248201527f4552433732313a20617070726f76652063616c6c6572206973206e6f7420746f60448201527f6b656e206f776e6572206f7220617070726f76656420666f7220616c6c000000606482015260840161043d565b6104de8383610975565b505050565b6104ed33826109e3565b6105095760405162461bcd60e51b815260040161043d9061165f565b6104de838383610a42565b6104de838383604051806020016040528060008152506107d3565b610537610bb3565b60c961054382826116fa565b5050565b6000818152609960205260408120546001600160a01b03168061030a5760405162461bcd60e51b8152602060048201526018602482015277115490cdcc8c4e881a5b9d985b1a59081d1bdad95b88125160421b604482015260640161043d565b60606105b1610c0d565b905090565b60006001600160a01b0382166106205760405162461bcd60e51b815260206004820152602960248201527f4552433732313a2061646472657373207a65726f206973206e6f7420612076616044820152683634b21037bbb732b960b91b606482015260840161043d565b506001600160a01b03166000908152609a602052604090205490565b610644610bb3565b61064e6000610c1c565b565b600054610100900460ff16158080156106705750600054600160ff909116105b8061068a5750303b15801561068a575060005460ff166001145b6106ed5760405162461bcd60e51b815260206004820152602e60248201527f496e697469616c697a61626c653a20636f6e747261637420697320616c72656160448201526d191e481a5b9a5d1a585b1a5e995960921b606482015260840161043d565b6000805460ff191660011790558015610710576000805461ff0019166101001790555b610718610c6e565b61075e6040518060400160405280600681526020016545524337323160d01b8152506040518060400160405280600681526020016545524337323160d01b815250610c9d565b80156107a4576000805461ff0019169055604051600181527f7f26b83ff96e1f2b6a682f133852f6798a09c465da95921460cefb38474024989060200160405180910390a15b50565b60606098805461031f90611625565b6107be610bb3565b6107a43382610cce565b610543338383610ce8565b6107dd33836109e3565b6107f95760405162461bcd60e51b815260040161043d9061165f565b61080584848484610db6565b50505050565b606061081682610916565b6000610820610c0d565b90506000815111610840576040518060200160405280600081525061086b565b8061084a84610de9565b60405160200161085b9291906117ba565b6040516020818303038152906040525b9392505050565b6001600160a01b039182166000908152609c6020908152604080832093909416825291909152205460ff1690565b6108a8610bb3565b6001600160a01b03811661090d5760405162461bcd60e51b815260206004820152602660248201527f4f776e61626c653a206e6577206f776e657220697320746865207a65726f206160448201526564647265737360d01b606482015260840161043d565b6107a481610c1c565b6000818152609960205260409020546001600160a01b03166107a45760405162461bcd60e51b8152602060048201526018602482015277115490cdcc8c4e881a5b9d985b1a59081d1bdad95b88125160421b604482015260640161043d565b6000818152609b6020526040902080546001600160a01b0319166001600160a01b03841690811790915581906109aa82610547565b6001600160a01b03167f8c5be1e5ebec7d5bd14f71427d1e84f3dd0314c0f7b2291e5b200ac8c7c3b92560405160405180910390a45050565b6000806109ef83610547565b9050806001600160a01b0316846001600160a01b03161480610a165750610a168185610872565b80610a3a5750836001600160a01b0316610a2f846103a2565b6001600160a01b0316145b949350505050565b826001600160a01b0316610a5582610547565b6001600160a01b031614610a7b5760405162461bcd60e51b815260040161043d906117e9565b6001600160a01b038216610add5760405162461bcd60e51b8152602060048201526024808201527f4552433732313a207472616e7366657220746f20746865207a65726f206164646044820152637265737360e01b606482015260840161043d565b610aea8383836001610e7c565b826001600160a01b0316610afd82610547565b6001600160a01b031614610b235760405162461bcd60e51b815260040161043d906117e9565b6000818152609b6020908152604080832080546001600160a01b03199081169091556001600160a01b03878116808652609a8552838620805460001901905590871680865283862080546001019055868652609990945282852080549092168417909155905184937fddf252ad1be2c89b69c2b068fc378daa952ba7f163c4a11628f55a4df523b3ef91a4505050565b6033546001600160a01b0316331461064e5760405162461bcd60e51b815260206004820181905260248201527f4f776e61626c653a2063616c6c6572206973206e6f7420746865206f776e6572604482015260640161043d565b606060c9805461031f90611625565b603380546001600160a01b038381166001600160a01b0319831681179093556040519116919082907f8be0079c531659141344cd1fd0a4f28419497f9722a3daafe3b4186f6b6457e090600090a35050565b600054610100900460ff16610c955760405162461bcd60e51b815260040161043d9061182e565b61064e610f04565b600054610100900460ff16610cc45760405162461bcd60e51b815260040161043d9061182e565b6105438282610f34565b610543828260405180602001604052806000815250610f74565b816001600160a01b0316836001600160a01b031603610d495760405162461bcd60e51b815260206004820152601960248201527f4552433732313a20617070726f766520746f2063616c6c657200000000000000604482015260640161043d565b6001600160a01b038381166000818152609c6020908152604080832094871680845294825291829020805460ff191686151590811790915591519182527f17307eab39ab6107e8899845ad3d59bd9653f200f220920489ca2b5937696c31910160405180910390a3505050565b610dc1848484610a42565b610dcd84848484610fa7565b6108055760405162461bcd60e51b815260040161043d90611879565b60606000610df6836110a8565b600101905060008167ffffffffffffffff811115610e1657610e1661144a565b6040519080825280601f01601f191660200182016040528015610e40576020820181803683370190505b5090508181016020015b600019016f181899199a1a9b1b9c1cb0b131b232b360811b600a86061a8153600a8504945084610e4a57509392505050565b6001811115610805576001600160a01b03841615610ec2576001600160a01b0384166000908152609a602052604081208054839290610ebc9084906118e1565b90915550505b6001600160a01b03831615610805576001600160a01b0383166000908152609a602052604081208054839290610ef99084906118f4565b909155505050505050565b600054610100900460ff16610f2b5760405162461bcd60e51b815260040161043d9061182e565b61064e33610c1c565b600054610100900460ff16610f5b5760405162461bcd60e51b815260040161043d9061182e565b6097610f6783826116fa565b5060986104de82826116fa565b610f7e8383611180565b610f8b6000848484610fa7565b6104de5760405162461bcd60e51b815260040161043d90611879565b60006001600160a01b0384163b1561109d57604051630a85bd0160e11b81526001600160a01b0385169063150b7a0290610feb903390899088908890600401611907565b6020604051808303816000875af1925050508015611026575060408051601f3d908101601f1916820190925261102391810190611944565b60015b611083573d808015611054576040519150601f19603f3d011682016040523d82523d6000602084013e611059565b606091505b50805160000361107b5760405162461bcd60e51b815260040161043d90611879565b805181602001fd5b6001600160e01b031916630a85bd0160e11b149050610a3a565b506001949350505050565b60008072184f03e93ff9f4daa797ed6e38ed64bf6a1f0160401b83106110e75772184f03e93ff9f4daa797ed6e38ed64bf6a1f0160401b830492506040015b6d04ee2d6d415b85acef81000000008310611113576d04ee2d6d415b85acef8100000000830492506020015b662386f26fc10000831061113157662386f26fc10000830492506010015b6305f5e1008310611149576305f5e100830492506008015b612710831061115d57612710830492506004015b6064831061116f576064830492506002015b600a831061030a5760010192915050565b6001600160a01b0382166111d65760405162461bcd60e51b815260206004820181905260248201527f4552433732313a206d696e7420746f20746865207a65726f2061646472657373604482015260640161043d565b6000818152609960205260409020546001600160a01b03161561123b5760405162461bcd60e51b815260206004820152601c60248201527f4552433732313a20746f6b656e20616c7265616479206d696e74656400000000604482015260640161043d565b611249600083836001610e7c565b6000818152609960205260409020546001600160a01b0316156112ae5760405162461bcd60e51b815260206004820152601c60248201527f4552433732313a20746f6b656e20616c7265616479206d696e74656400000000604482015260640161043d565b6001600160a01b0382166000818152609a6020908152604080832080546001019055848352609990915280822080546001600160a01b0319168417905551839291907fddf252ad1be2c89b69c2b068fc378daa952ba7f163c4a11628f55a4df523b3ef908290a45050565b6001600160e01b0319811681146107a457600080fd5b60006020828403121561134157600080fd5b813561086b81611319565b60005b8381101561136757818101518382015260200161134f565b50506000910152565b6000815180845261138881602086016020860161134c565b601f01601f19169290920160200192915050565b60208152600061086b6020830184611370565b6000602082840312156113c157600080fd5b5035919050565b80356001600160a01b03811681146113df57600080fd5b919050565b600080604083850312156113f757600080fd5b611400836113c8565b946020939093013593505050565b60008060006060848603121561142357600080fd5b61142c846113c8565b925061143a602085016113c8565b9150604084013590509250925092565b634e487b7160e01b600052604160045260246000fd5b600067ffffffffffffffff8084111561147b5761147b61144a565b604051601f8501601f19908116603f011681019082821181831017156114a3576114a361144a565b816040528093508581528686860111156114bc57600080fd5b858560208301376000602087830101525050509392505050565b6000602082840312156114e857600080fd5b813567ffffffffffffffff8111156114ff57600080fd5b8201601f8101841361151057600080fd5b610a3a84823560208401611460565b60006020828403121561153157600080fd5b61086b826113c8565b6000806040838503121561154d57600080fd5b611556836113c8565b91506020830135801515811461156b57600080fd5b809150509250929050565b6000806000806080858703121561158c57600080fd5b611595856113c8565b93506115a3602086016113c8565b925060408501359150606085013567ffffffffffffffff8111156115c657600080fd5b8501601f810187136115d757600080fd5b6115e687823560208401611460565b91505092959194509250565b6000806040838503121561160557600080fd5b61160e836113c8565b915061161c602084016113c8565b90509250929050565b600181811c9082168061163957607f821691505b60208210810361165957634e487b7160e01b600052602260045260246000fd5b50919050565b6020808252602d908201527f4552433732313a2063616c6c6572206973206e6f7420746f6b656e206f776e6560408201526c1c881bdc88185c1c1c9bdd9959609a1b606082015260800190565b601f8211156104de57600081815260208120601f850160051c810160208610156116d35750805b601f850160051c820191505b818110156116f2578281556001016116df565b505050505050565b815167ffffffffffffffff8111156117145761171461144a565b611728816117228454611625565b846116ac565b602080601f83116001811461175d57600084156117455750858301515b600019600386901b1c1916600185901b1785556116f2565b600085815260208120601f198616915b8281101561178c5788860151825594840194600190910190840161176d565b50858210156117aa5787850151600019600388901b60f8161c191681555b5050505050600190811b01905550565b600083516117cc81846020880161134c565b8351908301906117e081836020880161134c565b01949350505050565b60208082526025908201527f4552433732313a207472616e736665722066726f6d20696e636f72726563742060408201526437bbb732b960d91b606082015260800190565b6020808252602b908201527f496e697469616c697a61626c653a20636f6e7472616374206973206e6f74206960408201526a6e697469616c697a696e6760a81b606082015260800190565b60208082526032908201527f4552433732313a207472616e7366657220746f206e6f6e20455243373231526560408201527131b2b4bb32b91034b6b83632b6b2b73a32b960711b606082015260800190565b634e487b7160e01b600052601160045260246000fd5b8181038181111561030a5761030a6118cb565b8082018082111561030a5761030a6118cb565b6001600160a01b038581168252841660208201526040810183905260806060820181905260009061193a90830184611370565b9695505050505050565b60006020828403121561195657600080fd5b815161086b8161131956fea264697066735822122031a5f66222ca3b54c188cd04e92bb15eaaa4954b53701f6b046f2da9f4ef266464736f6c63430008110033",
  "linkReferences": {},
  "deployedLinkReferences": {}
}