{
  "_format": "hh-sol-artifact-1",
  "contractName": "ERC721",
  "sourceName": "contracts/marketplace/ERC721.sol",
  "abi": [
    {
      "anonymous": false,
      "inputs": [
        {
          "indexed": true,
          "internalType": "address",
          "name": "owner",
          "type": "address"
        },
        {
          "indexed": true,
          "internalType": "address",
          "name": "approved",
          "type": "address"
        },
        {
          "indexed": true,
          "internalType": "uint256",
          "name": "tokenId",
          "type": "uint256"
        }
      ],
      "name": "Approval",
      "type": "event"
    },
    {
      "anonymous": false,
      "inputs": [
        {
          "indexed": true,
          "internalType": "address",
          "name": "owner",
          "type": "address"
        },
        {
          "indexed": true,
          "internalType": "address",
          "name": "operator",
          "type": "address"
        },
        {
          "indexed": false,
          "internalType": "bool",
          "name": "approved",
          "type": "bool"
        }
      ],
      "name": "ApprovalForAll",
      "type": "event"
    },
    {
      "anonymous": false,
      "inputs": [
        {
          "indexed": false,
          "internalType": "uint8",
          "name": "version",
          "type": "uint8"
        }
      ],
      "name": "Initialized",
      "type": "event"
    },
    {
      "anonymous": false,
      "inputs": [
        {
          "indexed": true,
          "internalType": "address",
          "name": "previousOwner",
          "type": "address"
        },
        {
          "indexed": true,
          "internalType": "address",
          "name": "newOwner",
          "type": "address"
        }
      ],
      "name": "OwnershipTransferred",
      "type": "event"
    },
    {
      "anonymous": false,
      "inputs": [
        {
          "indexed": true,
          "internalType": "address",
          "name": "from",
          "type": "address"
        },
        {
          "indexed": true,
          "internalType": "address",
          "name": "to",
          "type": "address"
        },
        {
          "indexed": true,
          "internalType": "uint256",
          "name": "tokenId",
          "type": "uint256"
        }
      ],
      "name": "Transfer",
      "type": "event"
    },
    {
      "inputs": [
        {
          "internalType": "address",
          "name": "to",
          "type": "address"
        },
        {
          "internalType": "uint256",
          "name": "tokenId",
          "type": "uint256"
        }
      ],
      "name": "approve",
      "outputs": [],
      "stateMutability": "nonpayable",
      "type": "function"
    },
    {
      "inputs": [
        {
          "internalType": "address",
          "name": "owner",
          "type": "address"
        }
      ],
      "name": "balanceOf",
      "outputs": [
        {
          "internalType": "uint256",
          "name": "",
          "type": "uint256"
        }
      ],
      "stateMutability": "view",
      "type": "function"
    },
    {
      "inputs": [],
      "name": "baseURI",
      "outputs": [
        {
          "internalType": "string",
          "name": "",
          "type": "string"
        }
      ],
      "stateMutability": "view",
      "type": "function"
    },
    {
      "inputs": [
        {
          "internalType": "uint256",
          "name": "tokenId",
          "type": "uint256"
        }
      ],
      "name": "getApproved",
      "outputs": [
        {
          "internalType": "address",
          "name": "",
          "type": "address"
        }
      ],
      "stateMutability": "view",
      "type": "function"
    },
    {
      "inputs": [],
      "name": "initialize",
      "outputs": [],
      "stateMutability": "nonpayable",
      "type": "function"
    },
    {
      "inputs": [
        {
          "internalType": "address",
          "name": "owner",
          "type": "address"
        },
        {
          "internalType": "address",
          "name": "operator",
          "type": "address"
        }
      ],
      "name": "isApprovedForAll",
      "outputs": [
        {
          "internalType": "bool",
          "name": "",
          "type": "bool"
        }
      ],
      "stateMutability": "view",
      "type": "function"
    },
    {
      "inputs": [
        {
          "internalType": "uint256",
          "name": "tokenId",
          "type": "uint256"
        }
      ],
      "name": "mint",
      "outputs": [],
      "stateMutability": "nonpayable",
      "type": "function"
    },
    {
      "inputs": [],
      "name": "name",
      "outputs": [
        {
          "internalType": "string",
          "name": "",
          "type": "string"
        }
      ],
      "stateMutability": "view",
      "type": "function"
    },
    {
      "inputs": [],
      "name": "owner",
      "outputs": [
        {
          "internalType": "address",
          "name": "",
          "type": "address"
        }
      ],
      "stateMutability": "view",
      "type": "function"
    },
    {
      "inputs": [
        {
          "internalType": "uint256",
          "name": "tokenId",
          "type": "uint256"
        }
      ],
      "name": "ownerOf",
      "outputs": [
        {
          "internalType": "address",
          "name": "",
          "type": "address"
        }
      ],
      "stateMutability": "view",
      "type": "function"
    },
    {
      "inputs": [],
      "name": "renounceOwnership",
      "outputs": [],
      "stateMutability": "nonpayable",
      "type": "function"
    },
    {
      "inputs": [
        {
          "internalType": "address",
          "name": "from",
          "type": "address"
        },
        {
          "internalType": "address",
          "name": "to",
          "type": "address"
        },
        {
          "internalType": "uint256",
          "name": "tokenId",
          "type": "uint256"
        }
      ],
      "name": "safeTransferFrom",
      "outputs": [],
      "stateMutability": "nonpayable",
      "type": "function"
    },
    {
      "inputs": [
        {
          "internalType": "address",
          "name": "from",
          "type": "address"
        },
        {
          "internalType": "address",
          "name": "to",
          "type": "address"
        },
        {
          "internalType": "uint256",
          "name": "tokenId",
          "type": "uint256"
        },
        {
          "internalType": "bytes",
          "name": "data",
          "type": "bytes"
        }
      ],
      "name": "safeTransferFrom",
      "outputs": [],
      "stateMutability": "nonpayable",
      "type": "function"
    },
    {
      "inputs": [
        {
          "internalType": "address",
          "name": "operator",
          "type": "address"
        },
        {
          "internalType": "bool",
          "name": "approved",
          "type": "bool"
        }
      ],
      "name": "setApprovalForAll",
      "outputs": [],
      "stateMutability": "nonpayable",
      "type": "function"
    },
    {
      "inputs": [
        {
          "internalType": "string",
          "name": "URI",
          "type": "string"
        }
      ],
      "name": "setBaseURI",
      "outputs": [],
      "stateMutability": "nonpayable",
      "type": "function"
    },
    {
      "inputs": [
        {
          "internalType": "bytes4",
          "name": "interfaceId",
          "type": "bytes4"
        }
      ],
      "name": "supportsInterface",
      "outputs": [
        {
          "internalType": "bool",
          "name": "",
          "type": "bool"
        }
      ],
      "stateMutability": "view",
      "type": "function"
    },
    {
      "inputs": [],
      "name": "symbol",
      "outputs": [
        {
          "internalType": "string",
          "name": "",
          "type": "string"
        }
      ],
      "stateMutability": "view",
      "type": "function"
    },
    {
      "inputs": [
        {
          "internalType": "uint256",
          "name": "tokenId",
          "type": "uint256"
        }
      ],
      "name": "tokenURI",
      "outputs": [
        {
          "internalType": "string",
          "name": "",
          "type": "string"
        }
      ],
      "stateMutability": "view",
      "type": "function"
    },
    {
      "inputs": [
        {
          "internalType": "address",
          "name": "from",
          "type": "address"
        },
        {
          "internalType": "address",
          "name": "to",
          "type": "address"
        },
        {
          "internalType": "uint256",
          "name": "tokenId",
          "type": "uint256"
        }
      ],
      "name": "transferFrom",
      "outputs": [],
      "stateMutability": "nonpayable",
      "type": "function"
    },
    {
      "inputs": [
        {
          "internalType": "address",
          "name": "newOwner",
          "type": "address"
        }
      ],
      "name": "transferOwnership",
      "outputs": [],
      "stateMutability": "nonpayable",
      "type": "function"
    }
  ],
  "bytecode": "0x608060405234801561001057600080fd5b5061187c806100206000396000f3fe608060405234801561001057600080fd5b506004361061012c5760003560e01c8063715018a6116100ad578063a22cb46511610071578063a22cb4651461025f578063b88d4fde14610272578063c87b56dd14610285578063e985e9c514610298578063f2fde38b146102d457600080fd5b8063715018a6146102235780638129fc1c1461022b5780638da5cb5b1461023357806395d89b4114610244578063a0712d681461024c57600080fd5b806342842e0e116100f457806342842e0e146101c157806355f804b3146101d45780636352211e146101e75780636c0360eb146101fa57806370a082311461020257600080fd5b806301ffc9a71461013157806306fdde0314610159578063081812fc1461016e578063095ea7b31461019957806323b872dd146101ae575b600080fd5b61014461013f3660046112e5565b6102e7565b60405190151581526020015b60405180910390f35b610161610339565b604051610150919061135a565b61018161017c36600461136d565b6103cb565b6040516001600160a01b039091168152602001610150565b6101ac6101a73660046113a2565b6103f2565b005b6101ac6101bc3660046113cc565b61050d565b6101ac6101cf3660046113cc565b61053e565b6101ac6101e2366004611494565b610559565b6101816101f536600461136d565b610578565b6101616105d8565b6102156102103660046114dd565b6105e7565b604051908152602001610150565b6101ac61066d565b6101ac610681565b6033546001600160a01b0316610181565b6101616107d8565b6101ac61025a36600461136d565b6107e7565b6101ac61026d3660046114f8565b6107f9565b6101ac610280366004611534565b610804565b61016161029336600461136d565b61083c565b6101446102a63660046115b0565b6001600160a01b039182166000908152609c6020908152604080832093909416825291909152205460ff1690565b6101ac6102e23660046114dd565b6108a3565b60006001600160e01b031982166380ac58cd60e01b148061031857506001600160e01b03198216635b5e139f60e01b145b8061033357506301ffc9a760e01b6001600160e01b03198316145b92915050565b606060978054610348906115e3565b80601f0160208091040260200160405190810160405280929190818152602001828054610374906115e3565b80156103c15780601f10610396576101008083540402835291602001916103c1565b820191906000526020600020905b8154815290600101906020018083116103a457829003601f168201915b5050505050905090565b60006103d682610919565b506000908152609b60205260409020546001600160a01b031690565b60006103fd82610578565b9050806001600160a01b0316836001600160a01b031614156104705760405162461bcd60e51b815260206004820152602160248201527f4552433732313a20617070726f76616c20746f2063757272656e74206f776e656044820152603960f91b60648201526084015b60405180910390fd5b336001600160a01b038216148061048c575061048c81336102a6565b6104fe5760405162461bcd60e51b815260206004820152603e60248201527f4552433732313a20617070726f76652063616c6c6572206973206e6f7420746f60448201527f6b656e206f776e6572206e6f7220617070726f76656420666f7220616c6c00006064820152608401610467565b6105088383610978565b505050565b61051733826109e6565b6105335760405162461bcd60e51b81526004016104679061161e565b610508838383610a65565b61050883838360405180602001604052806000815250610804565b610561610c01565b80516105749060c9906020840190611236565b5050565b6000818152609960205260408120546001600160a01b0316806103335760405162461bcd60e51b8152602060048201526018602482015277115490cdcc8c4e881a5b9d985b1a59081d1bdad95b88125160421b6044820152606401610467565b60606105e2610c5b565b905090565b60006001600160a01b0382166106515760405162461bcd60e51b815260206004820152602960248201527f4552433732313a2061646472657373207a65726f206973206e6f7420612076616044820152683634b21037bbb732b960b91b6064820152608401610467565b506001600160a01b03166000908152609a602052604090205490565b610675610c01565b61067f6000610c6a565b565b600054610100900460ff16158080156106a15750600054600160ff909116105b806106bb5750303b1580156106bb575060005460ff166001145b61071e5760405162461bcd60e51b815260206004820152602e60248201527f496e697469616c697a61626c653a20636f6e747261637420697320616c72656160448201526d191e481a5b9a5d1a585b1a5e995960921b6064820152608401610467565b6000805460ff191660011790558015610741576000805461ff0019166101001790555b610749610cbc565b61078f6040518060400160405280600681526020016545524337323160d01b8152506040518060400160405280600681526020016545524337323160d01b815250610ceb565b80156107d5576000805461ff0019169055604051600181527f7f26b83ff96e1f2b6a682f133852f6798a09c465da95921460cefb38474024989060200160405180910390a15b50565b606060988054610348906115e3565b6107ef610c01565b6107d53382610d1c565b610574338383610d36565b61080e33836109e6565b61082a5760405162461bcd60e51b81526004016104679061161e565b61083684848484610e05565b50505050565b606061084782610919565b6000610851610c5b565b90506000815111610871576040518060200160405280600081525061089c565b8061087b84610e38565b60405160200161088c92919061166c565b6040516020818303038152906040525b9392505050565b6108ab610c01565b6001600160a01b0381166109105760405162461bcd60e51b815260206004820152602660248201527f4f776e61626c653a206e6577206f776e657220697320746865207a65726f206160448201526564647265737360d01b6064820152608401610467565b6107d581610c6a565b6000818152609960205260409020546001600160a01b03166107d55760405162461bcd60e51b8152602060048201526018602482015277115490cdcc8c4e881a5b9d985b1a59081d1bdad95b88125160421b6044820152606401610467565b6000818152609b6020526040902080546001600160a01b0319166001600160a01b03841690811790915581906109ad82610578565b6001600160a01b03167f8c5be1e5ebec7d5bd14f71427d1e84f3dd0314c0f7b2291e5b200ac8c7c3b92560405160405180910390a45050565b6000806109f283610578565b9050806001600160a01b0316846001600160a01b03161480610a3957506001600160a01b038082166000908152609c602090815260408083209388168352929052205460ff165b80610a5d5750836001600160a01b0316610a52846103cb565b6001600160a01b0316145b949350505050565b826001600160a01b0316610a7882610578565b6001600160a01b031614610adc5760405162461bcd60e51b815260206004820152602560248201527f4552433732313a207472616e736665722066726f6d20696e636f72726563742060448201526437bbb732b960d91b6064820152608401610467565b6001600160a01b038216610b3e5760405162461bcd60e51b8152602060048201526024808201527f4552433732313a207472616e7366657220746f20746865207a65726f206164646044820152637265737360e01b6064820152608401610467565b610b49600082610978565b6001600160a01b0383166000908152609a60205260408120805460019290610b729084906116b1565b90915550506001600160a01b0382166000908152609a60205260408120805460019290610ba09084906116c8565b909155505060008181526099602052604080822080546001600160a01b0319166001600160a01b0386811691821790925591518493918716917fddf252ad1be2c89b69c2b068fc378daa952ba7f163c4a11628f55a4df523b3ef91a4505050565b6033546001600160a01b0316331461067f5760405162461bcd60e51b815260206004820181905260248201527f4f776e61626c653a2063616c6c6572206973206e6f7420746865206f776e65726044820152606401610467565b606060c98054610348906115e3565b603380546001600160a01b038381166001600160a01b0319831681179093556040519116919082907f8be0079c531659141344cd1fd0a4f28419497f9722a3daafe3b4186f6b6457e090600090a35050565b600054610100900460ff16610ce35760405162461bcd60e51b8152600401610467906116e0565b61067f610f36565b600054610100900460ff16610d125760405162461bcd60e51b8152600401610467906116e0565b6105748282610f66565b610574828260405180602001604052806000815250610fb4565b816001600160a01b0316836001600160a01b03161415610d985760405162461bcd60e51b815260206004820152601960248201527f4552433732313a20617070726f766520746f2063616c6c6572000000000000006044820152606401610467565b6001600160a01b038381166000818152609c6020908152604080832094871680845294825291829020805460ff191686151590811790915591519182527f17307eab39ab6107e8899845ad3d59bd9653f200f220920489ca2b5937696c31910160405180910390a3505050565b610e10848484610a65565b610e1c84848484610fe7565b6108365760405162461bcd60e51b81526004016104679061172b565b606081610e5c5750506040805180820190915260018152600360fc1b602082015290565b8160005b8115610e865780610e708161177d565b9150610e7f9050600a836117ae565b9150610e60565b60008167ffffffffffffffff811115610ea157610ea1611408565b6040519080825280601f01601f191660200182016040528015610ecb576020820181803683370190505b5090505b8415610a5d57610ee06001836116b1565b9150610eed600a866117c2565b610ef89060306116c8565b60f81b818381518110610f0d57610f0d6117d6565b60200101906001600160f81b031916908160001a905350610f2f600a866117ae565b9450610ecf565b600054610100900460ff16610f5d5760405162461bcd60e51b8152600401610467906116e0565b61067f33610c6a565b600054610100900460ff16610f8d5760405162461bcd60e51b8152600401610467906116e0565b8151610fa0906097906020850190611236565b508051610508906098906020840190611236565b610fbe83836110f4565b610fcb6000848484610fe7565b6105085760405162461bcd60e51b81526004016104679061172b565b60006001600160a01b0384163b156110e957604051630a85bd0160e11b81526001600160a01b0385169063150b7a029061102b9033908990889088906004016117ec565b602060405180830381600087803b15801561104557600080fd5b505af1925050508015611075575060408051601f3d908101601f1916820190925261107291810190611829565b60015b6110cf573d8080156110a3576040519150601f19603f3d011682016040523d82523d6000602084013e6110a8565b606091505b5080516110c75760405162461bcd60e51b81526004016104679061172b565b805181602001fd5b6001600160e01b031916630a85bd0160e11b149050610a5d565b506001949350505050565b6001600160a01b03821661114a5760405162461bcd60e51b815260206004820181905260248201527f4552433732313a206d696e7420746f20746865207a65726f20616464726573736044820152606401610467565b6000818152609960205260409020546001600160a01b0316156111af5760405162461bcd60e51b815260206004820152601c60248201527f4552433732313a20746f6b656e20616c7265616479206d696e746564000000006044820152606401610467565b6001600160a01b0382166000908152609a602052604081208054600192906111d89084906116c8565b909155505060008181526099602052604080822080546001600160a01b0319166001600160a01b03861690811790915590518392907fddf252ad1be2c89b69c2b068fc378daa952ba7f163c4a11628f55a4df523b3ef908290a45050565b828054611242906115e3565b90600052602060002090601f01602090048101928261126457600085556112aa565b82601f1061127d57805160ff19168380011785556112aa565b828001600101855582156112aa579182015b828111156112aa57825182559160200191906001019061128f565b506112b69291506112ba565b5090565b5b808211156112b657600081556001016112bb565b6001600160e01b0319811681146107d557600080fd5b6000602082840312156112f757600080fd5b813561089c816112cf565b60005b8381101561131d578181015183820152602001611305565b838111156108365750506000910152565b60008151808452611346816020860160208601611302565b601f01601f19169290920160200192915050565b60208152600061089c602083018461132e565b60006020828403121561137f57600080fd5b5035919050565b80356001600160a01b038116811461139d57600080fd5b919050565b600080604083850312156113b557600080fd5b6113be83611386565b946020939093013593505050565b6000806000606084860312156113e157600080fd5b6113ea84611386565b92506113f860208501611386565b9150604084013590509250925092565b634e487b7160e01b600052604160045260246000fd5b600067ffffffffffffffff8084111561143957611439611408565b604051601f8501601f19908116603f0116810190828211818310171561146157611461611408565b8160405280935085815286868601111561147a57600080fd5b858560208301376000602087830101525050509392505050565b6000602082840312156114a657600080fd5b813567ffffffffffffffff8111156114bd57600080fd5b8201601f810184136114ce57600080fd5b610a5d8482356020840161141e565b6000602082840312156114ef57600080fd5b61089c82611386565b6000806040838503121561150b57600080fd5b61151483611386565b91506020830135801515811461152957600080fd5b809150509250929050565b6000806000806080858703121561154a57600080fd5b61155385611386565b935061156160208601611386565b925060408501359150606085013567ffffffffffffffff81111561158457600080fd5b8501601f8101871361159557600080fd5b6115a48782356020840161141e565b91505092959194509250565b600080604083850312156115c357600080fd5b6115cc83611386565b91506115da60208401611386565b90509250929050565b600181811c908216806115f757607f821691505b6020821081141561161857634e487b7160e01b600052602260045260246000fd5b50919050565b6020808252602e908201527f4552433732313a2063616c6c6572206973206e6f7420746f6b656e206f776e6560408201526d1c881b9bdc88185c1c1c9bdd995960921b606082015260800190565b6000835161167e818460208801611302565b835190830190611692818360208801611302565b01949350505050565b634e487b7160e01b600052601160045260246000fd5b6000828210156116c3576116c361169b565b500390565b600082198211156116db576116db61169b565b500190565b6020808252602b908201527f496e697469616c697a61626c653a20636f6e7472616374206973206e6f74206960408201526a6e697469616c697a696e6760a81b606082015260800190565b60208082526032908201527f4552433732313a207472616e7366657220746f206e6f6e20455243373231526560408201527131b2b4bb32b91034b6b83632b6b2b73a32b960711b606082015260800190565b60006000198214156117915761179161169b565b5060010190565b634e487b7160e01b600052601260045260246000fd5b6000826117bd576117bd611798565b500490565b6000826117d1576117d1611798565b500690565b634e487b7160e01b600052603260045260246000fd5b6001600160a01b038581168252841660208201526040810183905260806060820181905260009061181f9083018461132e565b9695505050505050565b60006020828403121561183b57600080fd5b815161089c816112cf56fea26469706673582212207d05c7884425bafde52aadcbd1b24c1013452fb61c54f12a1a5509723694228364736f6c63430008090033",
  "linkReferences": {},
  "deployedLinkReferences": {}
}