{
  "_format": "hh-sol-artifact-1",
  "contractName": "TreasuryUpgradeable",
  "sourceName": "contracts/marketplace/TreasuryUpgradeable.sol",
  "abi": [
    {
      "anonymous": false,
      "inputs": [
        {
          "indexed": false,
          "internalType": "uint8",
          "name": "version",
          "type": "uint8"
        }
      ],
      "name": "Initialized",
      "type": "event"
    },
    {
      "anonymous": false,
      "inputs": [
        {
          "indexed": true,
          "internalType": "address",
          "name": "previousOwner",
          "type": "address"
        },
        {
          "indexed": true,
          "internalType": "address",
          "name": "newOwner",
          "type": "address"
        }
      ],
      "name": "OwnershipTransferred",
      "type": "event"
    },
    {
      "inputs": [],
      "name": "initialize",
      "outputs": [],
      "stateMutability": "nonpayable",
      "type": "function"
    },
    {
      "inputs": [],
      "name": "owner",
      "outputs": [
        {
          "internalType": "address",
          "name": "",
          "type": "address"
        }
      ],
      "stateMutability": "view",
      "type": "function"
    },
    {
      "inputs": [],
      "name": "renounceOwnership",
      "outputs": [],
      "stateMutability": "nonpayable",
      "type": "function"
    },
    {
      "inputs": [
        {
          "internalType": "address",
          "name": "newOwner",
          "type": "address"
        }
      ],
      "name": "transferOwnership",
      "outputs": [],
      "stateMutability": "nonpayable",
      "type": "function"
    },
    {
      "inputs": [
        {
          "internalType": "address",
          "name": "tokenAddress",
          "type": "address"
        },
        {
          "internalType": "uint256",
          "name": "balance",
          "type": "uint256"
        }
      ],
      "name": "withdraw",
      "outputs": [],
      "stateMutability": "nonpayable",
      "type": "function"
    }
  ],
  "bytecode": "0x608060405234801561001057600080fd5b50610571806100206000396000f3fe608060405234801561001057600080fd5b50600436106100575760003560e01c8063715018a61461005c5780638129fc1c146100665780638da5cb5b1461006e578063f2fde38b1461008d578063f3fef3a3146100a0575b600080fd5b6100646100b3565b005b6100646100f2565b603354604080516001600160a01b039092168252519081900360200190f35b61006461009b3660046103ff565b610167565b6100646100ae366004610421565b6101ff565b6033546001600160a01b031633146100e65760405162461bcd60e51b81526004016100dd9061044b565b60405180910390fd5b6100f060006102af565b565b60006100fe6001610301565b90508015610116576000805461ff0019166101001790555b61011e61038e565b8015610164576000805461ff0019169055604051600181527f7f26b83ff96e1f2b6a682f133852f6798a09c465da95921460cefb38474024989060200160405180910390a15b50565b6033546001600160a01b031633146101915760405162461bcd60e51b81526004016100dd9061044b565b6001600160a01b0381166101f65760405162461bcd60e51b815260206004820152602660248201527f4f776e61626c653a206e6577206f776e657220697320746865207a65726f206160448201526564647265737360d01b60648201526084016100dd565b610164816102af565b6033546001600160a01b031633146102295760405162461bcd60e51b81526004016100dd9061044b565b6001600160a01b03821663a9059cbb336040516001600160e01b031960e084901b1681526001600160a01b039091166004820152602481018490526044016020604051808303816000875af1158015610286573d6000803e3d6000fd5b505050506040513d601f19601f820116820180604052508101906102aa9190610480565b505050565b603380546001600160a01b038381166001600160a01b0319831681179093556040519116919082907f8be0079c531659141344cd1fd0a4f28419497f9722a3daafe3b4186f6b6457e090600090a35050565b60008054610100900460ff1615610348578160ff1660011480156103245750303b155b6103405760405162461bcd60e51b81526004016100dd906104a2565b506000919050565b60005460ff80841691161061036f5760405162461bcd60e51b81526004016100dd906104a2565b506000805460ff191660ff92909216919091179055600190565b919050565b600054610100900460ff166103b55760405162461bcd60e51b81526004016100dd906104f0565b6100f0600054610100900460ff166103df5760405162461bcd60e51b81526004016100dd906104f0565b6100f0336102af565b80356001600160a01b038116811461038957600080fd5b60006020828403121561041157600080fd5b61041a826103e8565b9392505050565b6000806040838503121561043457600080fd5b61043d836103e8565b946020939093013593505050565b6020808252818101527f4f776e61626c653a2063616c6c6572206973206e6f7420746865206f776e6572604082015260600190565b60006020828403121561049257600080fd5b8151801515811461041a57600080fd5b6020808252602e908201527f496e697469616c697a61626c653a20636f6e747261637420697320616c72656160408201526d191e481a5b9a5d1a585b1a5e995960921b606082015260800190565b6020808252602b908201527f496e697469616c697a61626c653a20636f6e7472616374206973206e6f74206960408201526a6e697469616c697a696e6760a81b60608201526080019056fea26469706673582212205f80d03c53dcfda3ef37bd481a21e7ec2fabc12765fcae6cfe23289ebb4b2e3664736f6c634300080b0033",
  "linkReferences": {},
  "deployedLinkReferences": {}
}