{
  "_format": "hh-sol-artifact-1",
  "contractName": "CosmicWizards",
  "sourceName": "contracts/upgradeable/ERC721/CosmicWizards.sol",
  "abi": [
    {
      "inputs": [],
      "stateMutability": "nonpayable",
      "type": "constructor"
    },
    {
      "anonymous": false,
      "inputs": [
        {
          "indexed": true,
          "internalType": "address",
          "name": "owner",
          "type": "address"
        },
        {
          "indexed": true,
          "internalType": "address",
          "name": "approved",
          "type": "address"
        },
        {
          "indexed": true,
          "internalType": "uint256",
          "name": "tokenId",
          "type": "uint256"
        }
      ],
      "name": "Approval",
      "type": "event"
    },
    {
      "anonymous": false,
      "inputs": [
        {
          "indexed": true,
          "internalType": "address",
          "name": "owner",
          "type": "address"
        },
        {
          "indexed": true,
          "internalType": "address",
          "name": "operator",
          "type": "address"
        },
        {
          "indexed": false,
          "internalType": "bool",
          "name": "approved",
          "type": "bool"
        }
      ],
      "name": "ApprovalForAll",
      "type": "event"
    },
    {
      "anonymous": false,
      "inputs": [
        {
          "indexed": false,
          "internalType": "uint8",
          "name": "version",
          "type": "uint8"
        }
      ],
      "name": "Initialized",
      "type": "event"
    },
    {
      "anonymous": false,
      "inputs": [
        {
          "indexed": false,
          "internalType": "address",
          "name": "account",
          "type": "address"
        }
      ],
      "name": "Paused",
      "type": "event"
    },
    {
      "anonymous": false,
      "inputs": [
        {
          "indexed": true,
          "internalType": "bytes32",
          "name": "role",
          "type": "bytes32"
        },
        {
          "indexed": true,
          "internalType": "bytes32",
          "name": "previousAdminRole",
          "type": "bytes32"
        },
        {
          "indexed": true,
          "internalType": "bytes32",
          "name": "newAdminRole",
          "type": "bytes32"
        }
      ],
      "name": "RoleAdminChanged",
      "type": "event"
    },
    {
      "anonymous": false,
      "inputs": [
        {
          "indexed": true,
          "internalType": "bytes32",
          "name": "role",
          "type": "bytes32"
        },
        {
          "indexed": true,
          "internalType": "address",
          "name": "account",
          "type": "address"
        },
        {
          "indexed": true,
          "internalType": "address",
          "name": "sender",
          "type": "address"
        }
      ],
      "name": "RoleGranted",
      "type": "event"
    },
    {
      "anonymous": false,
      "inputs": [
        {
          "indexed": true,
          "internalType": "bytes32",
          "name": "role",
          "type": "bytes32"
        },
        {
          "indexed": true,
          "internalType": "address",
          "name": "account",
          "type": "address"
        },
        {
          "indexed": true,
          "internalType": "address",
          "name": "sender",
          "type": "address"
        }
      ],
      "name": "RoleRevoked",
      "type": "event"
    },
    {
      "anonymous": false,
      "inputs": [
        {
          "indexed": true,
          "internalType": "uint256",
          "name": "tokenId",
          "type": "uint256"
        },
        {
          "indexed": false,
          "internalType": "uint256",
          "name": "customId",
          "type": "uint256"
        },
        {
          "indexed": false,
          "internalType": "string",
          "name": "value",
          "type": "string"
        }
      ],
      "name": "TextUpdated",
      "type": "event"
    },
    {
      "anonymous": false,
      "inputs": [
        {
          "indexed": true,
          "internalType": "address",
          "name": "from",
          "type": "address"
        },
        {
          "indexed": true,
          "internalType": "address",
          "name": "to",
          "type": "address"
        },
        {
          "indexed": true,
          "internalType": "uint256",
          "name": "tokenId",
          "type": "uint256"
        }
      ],
      "name": "Transfer",
      "type": "event"
    },
    {
      "anonymous": false,
      "inputs": [
        {
          "indexed": false,
          "internalType": "address",
          "name": "account",
          "type": "address"
        }
      ],
      "name": "Unpaused",
      "type": "event"
    },
    {
      "anonymous": false,
      "inputs": [
        {
          "indexed": true,
          "internalType": "uint256",
          "name": "tokenId",
          "type": "uint256"
        },
        {
          "indexed": false,
          "internalType": "uint256",
          "name": "treeId",
          "type": "uint256"
        },
        {
          "indexed": false,
          "internalType": "uint256",
          "name": "skillId",
          "type": "uint256"
        },
        {
          "indexed": false,
          "internalType": "uint256",
          "name": "value",
          "type": "uint256"
        }
      ],
      "name": "ValueUpdated",
      "type": "event"
    },
    {
      "inputs": [],
      "name": "ADMIN_ROLE",
      "outputs": [
        {
          "internalType": "bytes32",
          "name": "",
          "type": "bytes32"
        }
      ],
      "stateMutability": "view",
      "type": "function"
    },
    {
      "inputs": [],
      "name": "CONTRACT_ROLE",
      "outputs": [
        {
          "internalType": "bytes32",
          "name": "",
          "type": "bytes32"
        }
      ],
      "stateMutability": "view",
      "type": "function"
    },
    {
      "inputs": [],
      "name": "DEFAULT_ADMIN_ROLE",
      "outputs": [
        {
          "internalType": "bytes32",
          "name": "",
          "type": "bytes32"
        }
      ],
      "stateMutability": "view",
      "type": "function"
    },
    {
      "inputs": [],
      "name": "MINTER_ROLE",
      "outputs": [
        {
          "internalType": "bytes32",
          "name": "",
          "type": "bytes32"
        }
      ],
      "stateMutability": "view",
      "type": "function"
    },
    {
      "inputs": [
        {
          "internalType": "address",
          "name": "to",
          "type": "address"
        },
        {
          "internalType": "uint256",
          "name": "tokenId",
          "type": "uint256"
        }
      ],
      "name": "approve",
      "outputs": [],
      "stateMutability": "nonpayable",
      "type": "function"
    },
    {
      "inputs": [
        {
          "internalType": "address",
          "name": "owner",
          "type": "address"
        }
      ],
      "name": "balanceOf",
      "outputs": [
        {
          "internalType": "uint256",
          "name": "",
          "type": "uint256"
        }
      ],
      "stateMutability": "view",
      "type": "function"
    },
    {
      "inputs": [
        {
          "internalType": "address",
          "name": "to",
          "type": "address"
        },
        {
          "internalType": "uint256[]",
          "name": "tokenIds",
          "type": "uint256[]"
        }
      ],
      "name": "batchMint",
      "outputs": [],
      "stateMutability": "nonpayable",
      "type": "function"
    },
    {
      "inputs": [
        {
          "internalType": "uint256[]",
          "name": "tokenIds",
          "type": "uint256[]"
        }
      ],
      "name": "batchTokenURI",
      "outputs": [
        {
          "internalType": "string[]",
          "name": "",
          "type": "string[]"
        }
      ],
      "stateMutability": "view",
      "type": "function"
    },
    {
      "inputs": [
        {
          "internalType": "uint256[]",
          "name": "tokenIds",
          "type": "uint256[]"
        }
      ],
      "name": "batchTokenURIJSON",
      "outputs": [
        {
          "internalType": "string[]",
          "name": "",
          "type": "string[]"
        }
      ],
      "stateMutability": "view",
      "type": "function"
    },
    {
      "inputs": [
        {
          "internalType": "address",
          "name": "from",
          "type": "address"
        },
        {
          "internalType": "address",
          "name": "to",
          "type": "address"
        },
        {
          "internalType": "uint256[]",
          "name": "tokenIds",
          "type": "uint256[]"
        }
      ],
      "name": "batchTransferFrom",
      "outputs": [],
      "stateMutability": "nonpayable",
      "type": "function"
    },
    {
      "inputs": [
        {
          "internalType": "uint256[]",
          "name": "tokenIds",
          "type": "uint256[]"
        },
        {
          "internalType": "uint256[]",
          "name": "treeIds",
          "type": "uint256[]"
        },
        {
          "internalType": "uint256[]",
          "name": "skillIds",
          "type": "uint256[]"
        },
        {
          "internalType": "uint256[]",
          "name": "values",
          "type": "uint256[]"
        }
      ],
      "name": "batchUpdateSkills",
      "outputs": [],
      "stateMutability": "nonpayable",
      "type": "function"
    },
    {
      "inputs": [],
      "name": "bridgeContract",
      "outputs": [
        {
          "internalType": "address",
          "name": "",
          "type": "address"
        }
      ],
      "stateMutability": "view",
      "type": "function"
    },
    {
      "inputs": [
        {
          "internalType": "uint256",
          "name": "tokenId",
          "type": "uint256"
        }
      ],
      "name": "bridgeExtraData",
      "outputs": [
        {
          "internalType": "bytes",
          "name": "",
          "type": "bytes"
        }
      ],
      "stateMutability": "view",
      "type": "function"
    },
    {
      "inputs": [
        {
          "internalType": "uint256",
          "name": "tokenId",
          "type": "uint256"
        }
      ],
      "name": "burn",
      "outputs": [],
      "stateMutability": "nonpayable",
      "type": "function"
    },
    {
      "inputs": [],
      "name": "getAllTokenIds",
      "outputs": [
        {
          "internalType": "uint256[]",
          "name": "",
          "type": "uint256[]"
        }
      ],
      "stateMutability": "view",
      "type": "function"
    },
    {
      "inputs": [
        {
          "internalType": "uint256",
          "name": "tokenId",
          "type": "uint256"
        }
      ],
      "name": "getApproved",
      "outputs": [
        {
          "internalType": "address",
          "name": "",
          "type": "address"
        }
      ],
      "stateMutability": "view",
      "type": "function"
    },
    {
      "inputs": [
        {
          "internalType": "bytes32",
          "name": "role",
          "type": "bytes32"
        }
      ],
      "name": "getRoleAdmin",
      "outputs": [
        {
          "internalType": "bytes32",
          "name": "",
          "type": "bytes32"
        }
      ],
      "stateMutability": "view",
      "type": "function"
    },
    {
      "inputs": [
        {
          "internalType": "bytes32",
          "name": "role",
          "type": "bytes32"
        },
        {
          "internalType": "uint256",
          "name": "index",
          "type": "uint256"
        }
      ],
      "name": "getRoleMember",
      "outputs": [
        {
          "internalType": "address",
          "name": "",
          "type": "address"
        }
      ],
      "stateMutability": "view",
      "type": "function"
    },
    {
      "inputs": [
        {
          "internalType": "bytes32",
          "name": "role",
          "type": "bytes32"
        }
      ],
      "name": "getRoleMemberCount",
      "outputs": [
        {
          "internalType": "uint256",
          "name": "",
          "type": "uint256"
        }
      ],
      "stateMutability": "view",
      "type": "function"
    },
    {
      "inputs": [
        {
          "internalType": "uint256",
          "name": "tokenId",
          "type": "uint256"
        },
        {
          "internalType": "uint256",
          "name": "treeId",
          "type": "uint256"
        },
        {
          "internalType": "uint256",
          "name": "skillId",
          "type": "uint256"
        }
      ],
      "name": "getSkill",
      "outputs": [
        {
          "internalType": "uint256",
          "name": "value",
          "type": "uint256"
        }
      ],
      "stateMutability": "view",
      "type": "function"
    },
    {
      "inputs": [
        {
          "internalType": "uint256",
          "name": "tokenId",
          "type": "uint256"
        },
        {
          "internalType": "uint256",
          "name": "treeId",
          "type": "uint256"
        },
        {
          "internalType": "uint256[]",
          "name": "skillIds",
          "type": "uint256[]"
        }
      ],
      "name": "getSkillsByTree",
      "outputs": [
        {
          "internalType": "uint256[]",
          "name": "",
          "type": "uint256[]"
        }
      ],
      "stateMutability": "view",
      "type": "function"
    },
    {
      "inputs": [
        {
          "internalType": "uint256",
          "name": "tokenId",
          "type": "uint256"
        },
        {
          "internalType": "uint256",
          "name": "customId",
          "type": "uint256"
        }
      ],
      "name": "getString",
      "outputs": [
        {
          "internalType": "string",
          "name": "value",
          "type": "string"
        }
      ],
      "stateMutability": "view",
      "type": "function"
    },
    {
      "inputs": [
        {
          "internalType": "uint256[]",
          "name": "tokenIds",
          "type": "uint256[]"
        },
        {
          "internalType": "uint256",
          "name": "customId",
          "type": "uint256"
        }
      ],
      "name": "getStringOfTokens",
      "outputs": [
        {
          "internalType": "string[]",
          "name": "",
          "type": "string[]"
        }
      ],
      "stateMutability": "view",
      "type": "function"
    },
    {
      "inputs": [
        {
          "internalType": "uint256",
          "name": "tokenId",
          "type": "uint256"
        },
        {
          "internalType": "uint256[]",
          "name": "customIds",
          "type": "uint256[]"
        }
      ],
      "name": "getStrings",
      "outputs": [
        {
          "internalType": "string[]",
          "name": "",
          "type": "string[]"
        }
      ],
      "stateMutability": "view",
      "type": "function"
    },
    {
      "inputs": [
        {
          "internalType": "bytes32",
          "name": "role",
          "type": "bytes32"
        },
        {
          "internalType": "address",
          "name": "account",
          "type": "address"
        }
      ],
      "name": "grantRole",
      "outputs": [],
      "stateMutability": "nonpayable",
      "type": "function"
    },
    {
      "inputs": [
        {
          "internalType": "bytes32",
          "name": "role",
          "type": "bytes32"
        },
        {
          "internalType": "address",
          "name": "account",
          "type": "address"
        }
      ],
      "name": "hasRole",
      "outputs": [
        {
          "internalType": "bool",
          "name": "",
          "type": "bool"
        }
      ],
      "stateMutability": "view",
      "type": "function"
    },
    {
      "inputs": [],
      "name": "imageBaseURI",
      "outputs": [
        {
          "internalType": "string",
          "name": "",
          "type": "string"
        }
      ],
      "stateMutability": "view",
      "type": "function"
    },
    {
      "inputs": [],
      "name": "initialize",
      "outputs": [],
      "stateMutability": "nonpayable",
      "type": "function"
    },
    {
      "inputs": [
        {
          "internalType": "address",
          "name": "owner",
          "type": "address"
        },
        {
          "internalType": "address",
          "name": "operator",
          "type": "address"
        }
      ],
      "name": "isApprovedForAll",
      "outputs": [
        {
          "internalType": "bool",
          "name": "",
          "type": "bool"
        }
      ],
      "stateMutability": "view",
      "type": "function"
    },
    {
      "inputs": [
        {
          "internalType": "address",
          "name": "to",
          "type": "address"
        },
        {
          "internalType": "uint256",
          "name": "tokenId",
          "type": "uint256"
        }
      ],
      "name": "mint",
      "outputs": [],
      "stateMutability": "nonpayable",
      "type": "function"
    },
    {
      "inputs": [
        {
          "internalType": "address",
          "name": "to",
          "type": "address"
        },
        {
          "internalType": "uint256",
          "name": "tokenId",
          "type": "uint256"
        },
        {
          "internalType": "bytes",
          "name": "data",
          "type": "bytes"
        }
      ],
      "name": "mint",
      "outputs": [],
      "stateMutability": "nonpayable",
      "type": "function"
    },
    {
      "inputs": [],
      "name": "name",
      "outputs": [
        {
          "internalType": "string",
          "name": "",
          "type": "string"
        }
      ],
      "stateMutability": "view",
      "type": "function"
    },
    {
      "inputs": [
        {
          "internalType": "uint256",
          "name": "tokenId",
          "type": "uint256"
        }
      ],
      "name": "ownerOf",
      "outputs": [
        {
          "internalType": "address",
          "name": "",
          "type": "address"
        }
      ],
      "stateMutability": "view",
      "type": "function"
    },
    {
      "inputs": [],
      "name": "pause",
      "outputs": [],
      "stateMutability": "nonpayable",
      "type": "function"
    },
    {
      "inputs": [],
      "name": "paused",
      "outputs": [
        {
          "internalType": "bool",
          "name": "",
          "type": "bool"
        }
      ],
      "stateMutability": "view",
      "type": "function"
    },
    {
      "inputs": [
        {
          "internalType": "bytes32",
          "name": "role",
          "type": "bytes32"
        },
        {
          "internalType": "address",
          "name": "account",
          "type": "address"
        }
      ],
      "name": "renounceRole",
      "outputs": [],
      "stateMutability": "nonpayable",
      "type": "function"
    },
    {
      "inputs": [
        {
          "internalType": "bytes32",
          "name": "role",
          "type": "bytes32"
        },
        {
          "internalType": "address",
          "name": "account",
          "type": "address"
        }
      ],
      "name": "revokeRole",
      "outputs": [],
      "stateMutability": "nonpayable",
      "type": "function"
    },
    {
      "inputs": [
        {
          "internalType": "address",
          "name": "from",
          "type": "address"
        },
        {
          "internalType": "address",
          "name": "to",
          "type": "address"
        },
        {
          "internalType": "uint256",
          "name": "tokenId",
          "type": "uint256"
        }
      ],
      "name": "safeTransferFrom",
      "outputs": [],
      "stateMutability": "nonpayable",
      "type": "function"
    },
    {
      "inputs": [
        {
          "internalType": "address",
          "name": "from",
          "type": "address"
        },
        {
          "internalType": "address",
          "name": "to",
          "type": "address"
        },
        {
          "internalType": "uint256",
          "name": "tokenId",
          "type": "uint256"
        },
        {
          "internalType": "bytes",
          "name": "data",
          "type": "bytes"
        }
      ],
      "name": "safeTransferFrom",
      "outputs": [],
      "stateMutability": "nonpayable",
      "type": "function"
    },
    {
      "inputs": [
        {
          "internalType": "address",
          "name": "operator",
          "type": "address"
        },
        {
          "internalType": "bool",
          "name": "approved",
          "type": "bool"
        }
      ],
      "name": "setApprovalForAll",
      "outputs": [],
      "stateMutability": "nonpayable",
      "type": "function"
    },
    {
      "inputs": [
        {
          "internalType": "string",
          "name": "_imageBaseURI",
          "type": "string"
        }
      ],
      "name": "setImageBaseURI",
      "outputs": [],
      "stateMutability": "nonpayable",
      "type": "function"
    },
    {
      "inputs": [
        {
          "internalType": "bytes4",
          "name": "interfaceId",
          "type": "bytes4"
        }
      ],
      "name": "supportsInterface",
      "outputs": [
        {
          "internalType": "bool",
          "name": "",
          "type": "bool"
        }
      ],
      "stateMutability": "view",
      "type": "function"
    },
    {
      "inputs": [],
      "name": "symbol",
      "outputs": [
        {
          "internalType": "string",
          "name": "",
          "type": "string"
        }
      ],
      "stateMutability": "view",
      "type": "function"
    },
    {
      "inputs": [
        {
          "internalType": "uint256",
          "name": "index",
          "type": "uint256"
        }
      ],
      "name": "tokenByIndex",
      "outputs": [
        {
          "internalType": "uint256",
          "name": "",
          "type": "uint256"
        }
      ],
      "stateMutability": "view",
      "type": "function"
    },
    {
      "inputs": [
        {
          "internalType": "address",
          "name": "owner",
          "type": "address"
        },
        {
          "internalType": "uint256",
          "name": "index",
          "type": "uint256"
        }
      ],
      "name": "tokenOfOwnerByIndex",
      "outputs": [
        {
          "internalType": "uint256",
          "name": "",
          "type": "uint256"
        }
      ],
      "stateMutability": "view",
      "type": "function"
    },
    {
      "inputs": [
        {
          "internalType": "uint256",
          "name": "tokenId",
          "type": "uint256"
        }
      ],
      "name": "tokenURI",
      "outputs": [
        {
          "internalType": "string",
          "name": "",
          "type": "string"
        }
      ],
      "stateMutability": "view",
      "type": "function"
    },
    {
      "inputs": [
        {
          "internalType": "uint256",
          "name": "tokenId",
          "type": "uint256"
        }
      ],
      "name": "tokenURIJSON",
      "outputs": [
        {
          "internalType": "string",
          "name": "",
          "type": "string"
        }
      ],
      "stateMutability": "view",
      "type": "function"
    },
    {
      "inputs": [
        {
          "internalType": "address",
          "name": "owner",
          "type": "address"
        }
      ],
      "name": "tokensOfOwner",
      "outputs": [
        {
          "internalType": "uint256[]",
          "name": "",
          "type": "uint256[]"
        }
      ],
      "stateMutability": "view",
      "type": "function"
    },
    {
      "inputs": [],
      "name": "totalSupply",
      "outputs": [
        {
          "internalType": "uint256",
          "name": "",
          "type": "uint256"
        }
      ],
      "stateMutability": "view",
      "type": "function"
    },
    {
      "inputs": [
        {
          "internalType": "address",
          "name": "from",
          "type": "address"
        },
        {
          "internalType": "address",
          "name": "to",
          "type": "address"
        },
        {
          "internalType": "uint256",
          "name": "tokenId",
          "type": "uint256"
        }
      ],
      "name": "transferFrom",
      "outputs": [],
      "stateMutability": "nonpayable",
      "type": "function"
    },
    {
      "inputs": [],
      "name": "unpause",
      "outputs": [],
      "stateMutability": "nonpayable",
      "type": "function"
    },
    {
      "inputs": [
        {
          "internalType": "uint256",
          "name": "treeId",
          "type": "uint256"
        },
        {
          "internalType": "uint256",
          "name": "skillId",
          "type": "uint256"
        },
        {
          "internalType": "uint256[]",
          "name": "values",
          "type": "uint256[]"
        },
        {
          "internalType": "string[]",
          "name": "stringValues",
          "type": "string[]"
        }
      ],
      "name": "updateAttributeStrings",
      "outputs": [],
      "stateMutability": "nonpayable",
      "type": "function"
    },
    {
      "inputs": [
        {
          "internalType": "uint256",
          "name": "tokenId",
          "type": "uint256"
        },
        {
          "internalType": "uint256",
          "name": "treeId",
          "type": "uint256"
        },
        {
          "internalType": "uint256",
          "name": "skillId",
          "type": "uint256"
        },
        {
          "internalType": "uint256",
          "name": "value",
          "type": "uint256"
        }
      ],
      "name": "updateSkill",
      "outputs": [],
      "stateMutability": "nonpayable",
      "type": "function"
    },
    {
      "inputs": [
        {
          "internalType": "uint256",
          "name": "tokenId",
          "type": "uint256"
        },
        {
          "internalType": "uint256",
          "name": "customId",
          "type": "uint256"
        },
        {
          "internalType": "string",
          "name": "value",
          "type": "string"
        }
      ],
      "name": "updateString",
      "outputs": [],
      "stateMutability": "nonpayable",
      "type": "function"
    }
  ],
  "bytecode": "0x60806040523480156200001157600080fd5b506200001c62000022565b620000e4565b600054610100900460ff16156200008f5760405162461bcd60e51b815260206004820152602760248201527f496e697469616c697a61626c653a20636f6e747261637420697320696e697469604482015266616c697a696e6760c81b606482015260840160405180910390fd5b60005460ff9081161015620000e2576000805460ff191660ff9081179091556040519081527f7f26b83ff96e1f2b6a682f133852f6798a09c465da95921460cefb38474024989060200160405180910390a15b565b615e7280620000f46000396000f3fe608060405234801561001057600080fd5b50600436106103425760003560e01c806377645839116101b8578063b5afb12011610104578063d5391393116100a2578063e985e9c51161007c578063e985e9c51461073d578063ed0af20914610779578063f3993d111461078c578063fe459f5c1461079f57600080fd5b8063d539139314610702578063d547741f14610717578063dd81714a1461072a57600080fd5b8063c7e05590116100de578063c7e05590146106b5578063c87b56dd146106c8578063ca15c873146106db578063cd596583146106ee57600080fd5b8063b5afb12014610687578063b88d4fde1461069a578063bdbed722146106ad57600080fd5b806391d14854116101715780639b9284f91161014b5780639b9284f9146106385780639e8afe4714610659578063a217fddf1461066c578063a22cb4651461067457600080fd5b806391d148541461060a57806394d008ef1461061d57806395d89b411461063057600080fd5b806377645839146105ac5780637efa1902146105b45780638129fc1c146105c75780638456cb59146105cf5780638462151c146105d75780639010d07c146105f757600080fd5b806336568abe116102925780634f6ccce7116102305780636cfa24cc1161020a5780636cfa24cc1461055e5780636d94f13a1461057157806370a082311461058457806375b238fc1461059757600080fd5b80634f6ccce71461052c5780635c975abb1461053f5780636352211e1461054b57600080fd5b806342842e0e1161026c57806342842e0e146104c057806342966c68146104d35780634594762a146104e65780634684d7e91461051957600080fd5b806336568abe146104925780633f4ba83a146104a557806340c10f19146104ad57600080fd5b806318160ddd116102ff5780632c303493116102d95780632c303493146104395780632f2ff15d146104595780632f745c591461046c578063352b75331461047f57600080fd5b806318160ddd146103fa57806323b872dd14610402578063248a9ca31461041557600080fd5b806301ffc9a71461034757806303fe46ab1461036f57806306fdde0314610392578063079be493146103a7578063081812fc146103ba578063095ea7b3146103e5575b600080fd5b61035a610355366004614ca3565b6107b2565b60405190151581526020015b60405180910390f35b610384600080516020615e1d83398151915281565b604051908152602001610366565b61039a6107dd565b6040516103669190614d10565b61039a6103b5366004614d23565b61086f565b6103cd6103c8366004614d45565b61091e565b6040516001600160a01b039091168152602001610366565b6103f86103f3366004614d7a565b610945565b005b609954610384565b6103f8610410366004614da4565b610a5f565b610384610423366004614d45565b600090815261015f602052604090206001015490565b61044c610447366004614eb4565b610a91565b6040516103669190614ee8565b6103f8610467366004614f4a565b610b49565b61038461047a366004614d7a565b610b6f565b61044c61048d366004614f76565b610c05565b6103f86104a0366004614f4a565b610d63565b6103f8610de1565b6103f86104bb366004614d7a565b610e04565b6103f86104ce366004614da4565b610e26565b6103f86104e1366004614d45565b610e41565b6103846104f4366004614fba565b600092835261025b602090815260408085209385529281528284209184525290205490565b6103f8610527366004614fe6565b610e4a565b61038461053a366004614d45565b610ea9565b61012d5460ff1661035a565b6103cd610559366004614d45565b610f3c565b6103f861056c3660046150a2565b610f9c565b61044c61057f366004614eb4565b610fbd565b6103846105923660046150d6565b61106e565b610384600080516020615ddd83398151915281565b61039a6110f4565b6103f86105c23660046150f1565b611182565b6103f8611260565b6103f861141a565b6105ea6105e53660046150d6565b61143a565b604051610366919061519d565b6103cd610605366004614d23565b6114d3565b61035a610618366004614f4a565b6114f3565b6103f861062b3660046151e1565b61151f565b61039a61154a565b61039a610646366004614d45565b5060408051602081019091526000815290565b61044c610667366004615237565b611559565b610384600081565b6103f8610682366004615267565b6116af565b6103f86106953660046152a3565b6116ba565b6103f86106a83660046152d5565b61173f565b6105ea611771565b6105ea6106c3366004615330565b61185b565b61039a6106d6366004614d45565b611930565b6103846106e9366004614d45565b611943565b61025e546103cd906001600160a01b031681565b610384600080516020615dbd83398151915281565b6103f8610725366004614f4a565b61195b565b6103f8610738366004615375565b611981565b61035a61074b36600461545d565b6001600160a01b039182166000908152606a6020908152604080832093909416825291909152205460ff1690565b6103f8610787366004615487565b611a2d565b6103f861079a3660046154c0565b611aaa565b61039a6107ad366004614d45565b611aec565b60006001600160e01b0319821663808d85fd60e01b14806107d757506107d7826130bb565b92915050565b6060606580546107ec90615507565b80601f016020809104026020016040519081016040528092919081815260200182805461081890615507565b80156108655780601f1061083a57610100808354040283529160200191610865565b820191906000526020600020905b81548152906001019060200180831161084857829003601f168201915b5050505050905090565b600082815261025c60209081526040808320848452909152902080546060919061089890615507565b80601f01602080910402602001604051908101604052809291908181526020018280546108c490615507565b80156109115780601f106108e657610100808354040283529160200191610911565b820191906000526020600020905b8154815290600101906020018083116108f457829003601f168201915b5050505050905092915050565b6000610929826130c6565b506000908152606960205260409020546001600160a01b031690565b600061095082610f3c565b9050806001600160a01b0316836001600160a01b0316036109c25760405162461bcd60e51b815260206004820152602160248201527f4552433732313a20617070726f76616c20746f2063757272656e74206f776e656044820152603960f91b60648201526084015b60405180910390fd5b336001600160a01b03821614806109de57506109de813361074b565b610a505760405162461bcd60e51b815260206004820152603d60248201527f4552433732313a20617070726f76652063616c6c6572206973206e6f7420746f60448201527f6b656e206f776e6572206f7220617070726f76656420666f7220616c6c00000060648201526084016109b9565b610a5a8383613116565b505050565b610a6a335b82613184565b610a865760405162461bcd60e51b81526004016109b990615541565b610a5a838383613203565b6060600082516001600160401b03811115610aae57610aae614de0565b604051908082528060200260200182016040528015610ae157816020015b6060815260200190600190039081610acc5790505b50905060005b8351811015610b4257610b12848281518110610b0557610b0561558e565b6020026020010151611aec565b828281518110610b2457610b2461558e565b60200260200101819052508080610b3a906155ba565b915050610ae7565b5092915050565b600082815261015f6020526040902060010154610b6581613374565b610a5a838361337e565b6000610b7a8361106e565b8210610bdc5760405162461bcd60e51b815260206004820152602b60248201527f455243373231456e756d657261626c653a206f776e657220696e646578206f7560448201526a74206f6620626f756e647360a81b60648201526084016109b9565b506001600160a01b03919091166000908152609760209081526040808320938352929052205490565b6060600083516001600160401b03811115610c2257610c22614de0565b604051908082528060200260200182016040528015610c5557816020015b6060815260200190600190039081610c405790505b50905060005b8451811015610d5b5761025c6000868381518110610c7b57610c7b61558e565b6020026020010151815260200190815260200160002060008581526020019081526020016000208054610cad90615507565b80601f0160208091040260200160405190810160405280929190818152602001828054610cd990615507565b8015610d265780601f10610cfb57610100808354040283529160200191610d26565b820191906000526020600020905b815481529060010190602001808311610d0957829003601f168201915b5050505050828281518110610d3d57610d3d61558e565b60200260200101819052508080610d53906155ba565b915050610c5b565b509392505050565b6001600160a01b0381163314610dd35760405162461bcd60e51b815260206004820152602f60248201527f416363657373436f6e74726f6c3a2063616e206f6e6c792072656e6f756e636560448201526e103937b632b9903337b91039b2b63360891b60648201526084016109b9565b610ddd82826133a1565b5050565b600080516020615ddd833981519152610df981613374565b610e016133c4565b50565b600080516020615dbd833981519152610e1c81613374565b610a5a8383613417565b610a5a8383836040518060200160405280600081525061173f565b610e0181613431565b600080516020615dbd833981519152610e6281613374565b60005b8251811015610ea357610e9184848381518110610e8457610e8461558e565b6020026020010151613417565b80610e9b816155ba565b915050610e65565b50505050565b6000610eb460995490565b8210610f175760405162461bcd60e51b815260206004820152602c60248201527f455243373231456e756d657261626c653a20676c6f62616c20696e646578206f60448201526b7574206f6620626f756e647360a01b60648201526084016109b9565b60998281548110610f2a57610f2a61558e565b90600052602060002001549050919050565b6000818152606760205260408120546001600160a01b0316806107d75760405162461bcd60e51b8152602060048201526018602482015277115490cdcc8c4e881a5b9d985b1a59081d1bdad95b88125160421b60448201526064016109b9565b600080516020615ddd833981519152610fb481613374565b610ddd826134b3565b6060600082516001600160401b03811115610fda57610fda614de0565b60405190808252806020026020018201604052801561100d57816020015b6060815260200190600190039081610ff85790505b50905060005b8351811015610b425761103e8482815181106110315761103161558e565b6020026020010151611930565b8282815181106110505761105061558e565b60200260200101819052508080611066906155ba565b915050611013565b60006001600160a01b0382166110d85760405162461bcd60e51b815260206004820152602960248201527f4552433732313a2061646472657373207a65726f206973206e6f7420612076616044820152683634b21037bbb732b960b91b60648201526084016109b9565b506001600160a01b031660009081526068602052604090205490565b60fc805461110190615507565b80601f016020809104026020016040519081016040528092919081815260200182805461112d90615507565b801561117a5780601f1061114f5761010080835404028352916020019161117a565b820191906000526020600020905b81548152906001019060200180831161115d57829003601f168201915b505050505081565b600080516020615e1d83398151915261119a81613374565b60005b8551811015611258578281815181106111b8576111b861558e565b602002602001015161025b60008884815181106111d7576111d761558e565b6020026020010151815260200190815260200160002060008784815181106112015761120161558e565b60200260200101518152602001908152602001600020600086848151811061122b5761122b61558e565b60200260200101518152602001908152602001600020819055508080611250906155ba565b91505061119d565b505050505050565b600054610100900460ff16158080156112805750600054600160ff909116105b8061129a5750303b15801561129a575060005460ff166001145b6112fd5760405162461bcd60e51b815260206004820152602e60248201527f496e697469616c697a61626c653a20636f6e747261637420697320616c72656160448201526d191e481a5b9a5d1a585b1a5e995960921b60648201526084016109b9565b6000805460ff191660011790558015611320576000805461ff0019166101001790555b61136f6040518060400160405280600e81526020016d436f736d69632057697a6172647360901b8152506040518060400160405280600781526020016657495a4152445360c81b8152506134bf565b6113776134f0565b61137f613521565b611387613548565b61138f613521565b6113976134f0565b6113a260003361337e565b6113ba600080516020615ddd8339815191523361337e565b6113d2600080516020615dbd8339815191523361337e565b8015610e01576000805461ff0019169055604051600181527f7f26b83ff96e1f2b6a682f133852f6798a09c465da95921460cefb38474024989060200160405180910390a150565b600080516020615ddd83398151915261143281613374565b610e01613577565b606060006114478361106e565b90506000816001600160401b0381111561146357611463614de0565b60405190808252806020026020018201604052801561148c578160200160208202803683370190505b50905060005b82811015610d5b576114a48582610b6f565b8282815181106114b6576114b661558e565b6020908102919091010152806114cb816155ba565b915050611492565b6000828152610191602052604081206114ec90836135b5565b9392505050565b600091825261015f602090815260408084206001600160a01b0393909316845291905290205460ff1690565b600080516020615dbd83398151915261153781613374565b6115418484613417565b610ea3836135c1565b6060606680546107ec90615507565b6060600082516001600160401b0381111561157657611576614de0565b6040519080825280602002602001820160405280156115a957816020015b60608152602001906001900390816115945790505b50905060005b8351811015610d5b5761025c600086815260200190815260200160002060008583815181106115e0576115e061558e565b60200260200101518152602001908152602001600020805461160190615507565b80601f016020809104026020016040519081016040528092919081815260200182805461162d90615507565b801561167a5780601f1061164f5761010080835404028352916020019161167a565b820191906000526020600020905b81548152906001019060200180831161165d57829003601f168201915b50505050508282815181106116915761169161558e565b602002602001018190525080806116a7906155ba565b9150506115af565b610ddd3383836135cd565b600080516020615e1d8339815191526116d281613374565b600085815261025b602090815260408083208784528252808320868452825291829020849055815186815290810185905290810183905285907fc3bdb5f4a3cbb68ce4ebe3dda3660f3067add044dc5be3a047d818fd416663699060600160405180910390a25050505050565b6117493383613184565b6117655760405162461bcd60e51b81526004016109b990615541565b610ea38484848461369b565b6060600060015b6127108110156117b05761178b816136ce565b1561179e578161179a816155ba565b9250505b806117a8816155ba565b915050611778565b506000816001600160401b038111156117cb576117cb614de0565b6040519080825280602002602001820160405280156117f4578160200160208202803683370190505b509050600060015b6127108110156118525761180f816136ce565b1561184057808383815181106118275761182761558e565b60209081029190910101528161183c816155ba565b9250505b8061184a816155ba565b9150506117fc565b50909392505050565b6060600082516001600160401b0381111561187857611878614de0565b6040519080825280602002602001820160405280156118a1578160200160208202803683370190505b50905060005b835181101561192757600086815261025b60209081526040808320888452909152812085519091908690849081106118e1576118e161558e565b602002602001015181526020019081526020016000205482828151811061190a5761190a61558e565b60209081029190910101528061191f816155ba565b9150506118a7565b50949350505050565b60606107d761193e83611aec565b6136d9565b6000818152610191602052604081206107d79061370a565b600082815261015f602052604090206001015461197781613374565b610a5a83836133a1565b600080516020615ddd83398151915261199981613374565b60005b8351811015611258578281815181106119b7576119b761558e565b602002602001015161025d6000888152602001908152602001600020600087815260200190815260200160002060008684815181106119f8576119f861558e565b602002602001015181526020019081526020016000209081611a1a9190615619565b5080611a25816155ba565b91505061199c565b600080516020615e1d833981519152611a4581613374565b600084815261025c602090815260408083208684529091529020611a698382615619565b50837fbf91c112c44cd8e958afe3106b290f594b5e23b83fcc88bdb9ac5da7f00be5698484604051611a9c9291906156d8565b60405180910390a250505050565b60005b8151811015610ea357611ada8484848481518110611acd57611acd61558e565b6020026020010151610a5f565b80611ae4816155ba565b915050611aad565b600081815261025b6020908152604080832083805282528083209091528120546060918115611b39576040518060400160405280600681526020016546656d616c6560d01b815250611b57565b604051806040016040528060048152602001634d616c6560e01b8152505b9050600081611b6586613714565b604051602001611b7692919061570d565b60408051808303601f1901815260188084526103208401909252925060009190816020015b611bc860405180608001604052806060815260200160608152602001606081526020016000151581525090565b815260200190600190039081611b9b5750506040805160c0810182526006608082019081526523b2b73232b960d11b60a0830152815281516020818101845260008083529083019190915291810186905260608101829052825192935091839190611c3557611c3561558e565b6020908102919091018101919091526040805160c081018252600a6080820190815269109858dad9dc9bdd5b9960b21b60a083015281528151808401835260008082528285019190915280805261025d9093529190820190600080516020615dfd833981519152908715611caa57600b611cad565b60015b60ff168152602080820192909252604090810160009081208b825261025b8452828220828052845282822060018352845282822054825290925290208054611cf490615507565b80601f0160208091040260200160405190810160405280929190818152602001828054611d2090615507565b8015611d6d5780601f10611d4257610100808354040283529160200191611d6d565b820191906000526020600020905b815481529060010190602001808311611d5057829003601f168201915b505050505081526020016000151581525081600181518110611d9157611d9161558e565b6020908102919091018101919091526040805160c081018252600460808201908152632430b4b960e11b60a083015281528151808401835260008082528285019190915280805261025d9093529190820190600080516020615dfd833981519152908715611e0057600c611e03565b60025b60ff168152602080820192909252604090810160009081208b825261025b8452828220828052845282822060028352845282822054825290925290208054611e4a90615507565b80601f0160208091040260200160405190810160405280929190818152602001828054611e7690615507565b8015611ec35780601f10611e9857610100808354040283529160200191611ec3565b820191906000526020600020905b815481529060010190602001808311611ea657829003601f168201915b505050505081526020016000151581525081600281518110611ee757611ee761558e565b6020908102919091018101919091526040805160c0810182526003608082019081526212185d60ea1b60a083015281528151808401835260008082528285019190915280805261025d9093529190820190600080516020615dfd833981519152908715611f5557600d611f58565b60035b60ff168152602080820192909252604090810160009081208b825261025b8452828220828052845282822060038352845282822054825290925290208054611f9f90615507565b80601f0160208091040260200160405190810160405280929190818152602001828054611fcb90615507565b80156120185780601f10611fed57610100808354040283529160200191612018565b820191906000526020600020905b815481529060010190602001808311611ffb57829003601f168201915b50505050508152602001600015158152508160038151811061203c5761203c61558e565b6020908102919091018101919091526040805160c081018252600460808201908152634579657360e01b60a083015281528151808401835260008082528285019190915280805261025d9093529190820190600080516020615dfd8339815191529087156120ab57600e6120ae565b60045b60ff168152602080820192909252604090810160009081208b825261025b84528282208280528452828220600483528452828220548252909252902080546120f590615507565b80601f016020809104026020016040519081016040528092919081815260200182805461212190615507565b801561216e5780601f106121435761010080835404028352916020019161216e565b820191906000526020600020905b81548152906001019060200180831161215157829003601f168201915b5050505050815260200160001515815250816004815181106121925761219261558e565b6020908102919091018101919091526040805160c081018252600460808201908152634261736560e01b60a083015281528151808401835260008082528285019190915280805261025d9093529190820190600080516020615dfd83398151915290871561220157600f612204565b60055b60ff168152602080820192909252604090810160009081208b825261025b845282822082805284528282206005835284528282205482529092529020805461224b90615507565b80601f016020809104026020016040519081016040528092919081815260200182805461227790615507565b80156122c45780601f10612299576101008083540402835291602001916122c4565b820191906000526020600020905b8154815290600101906020018083116122a757829003601f168201915b5050505050815260200160001515815250816005815181106122e8576122e861558e565b6020908102919091018101919091526040805160c0810182526005608082019081526429ba30b33360d91b60a083015281528151808401835260008082528285019190915280805261025d9093529190820190600080516020615dfd83398151915290871561235857601061235b565b60065b60ff168152602080820192909252604090810160009081208b825261025b84528282208280528452828220600683528452828220548252909252902080546123a290615507565b80601f01602080910402602001604051908101604052809291908181526020018280546123ce90615507565b801561241b5780601f106123f05761010080835404028352916020019161241b565b820191906000526020600020905b8154815290600101906020018083116123fe57829003601f168201915b50505050508152602001600015158152508160068151811061243f5761243f61558e565b6020908102919091018101919091526040805160c08101825260046080820190815263526f626560e01b60a083015281528151808401835260008082528285019190915280805261025d9093529190820190600080516020615dfd8339815191529087156124ae5760116124b1565b60075b60ff168152602080820192909252604090810160009081208b825261025b84528282208280528452828220600783528452828220548252909252902080546124f890615507565b80601f016020809104026020016040519081016040528092919081815260200182805461252490615507565b80156125715780601f1061254657610100808354040283529160200191612571565b820191906000526020600020905b81548152906001019060200180831161255457829003601f168201915b5050505050815260200160001515815250816007815181106125955761259561558e565b6020908102919091018101919091526040805160c0810182526005608082019081526409adeeae8d60db1b60a083015281528151808401835260008082528285019190915280805261025d9093529190820190600080516020615dfd833981519152908715612605576012612608565b60085b60ff168152602080820192909252604090810160009081208b825261025b845282822082805284528282206008835284528282205482529092529020805461264f90615507565b80601f016020809104026020016040519081016040528092919081815260200182805461267b90615507565b80156126c85780601f1061269d576101008083540402835291602001916126c8565b820191906000526020600020905b8154815290600101906020018083116126ab57829003601f168201915b5050505050815260200160001515815250816008815181106126ec576126ec61558e565b6020908102919091018101919091526040805160c0810182526010608082019081526f14dd185ada5b99c8155b9b1bd8dad95960821b60a083015281528151808401835260008082528285019190915289815261025b84528281208180528452828120600982529093529181902054908201901561278657604051806040016040528060048152602001635472756560e01b8152506127a5565b6040518060400160405280600581526020016446616c736560d81b8152505b815260200160001515815250816009815181106127c4576127c461558e565b6020908102919091018101919091526040805160c0810182526006608082019081526514dd185ad95960d21b60a083015281528151808401835260008082528285019190915289815261025b84528281208180528452828120600a82529093529181902054908201901561285457604051806040016040528060048152602001635472756560e01b815250612873565b6040518060400160405280600581526020016446616c736560d81b8152505b81526020016000151581525081600a815181106128925761289261558e565b6020908102919091018101919091526040805160c08101825260076080820190815266416c6368656d7960c81b60a083015281528151808401835260008082528285019190915289815261025b845282812060018252845282812081805290935291819020549082019061290590613714565b81526020016001151581525081600b815181106129245761292461558e565b6020908102919091018101919091526040805160c081018252600c608082019081526b41726368697465637475726560a01b60a083015281528151808401835260008082528285019190915289815261025b845282812060018252845282812090935291819020549082019061299990613714565b81526020016001151581525081600c815181106129b8576129b861558e565b6020908102919091018101919091526040805160c0810182526009608082019081526843617270656e74727960b81b60a083015281528151808401835260008082528285019190915289815261025b845282812060018252845282812060028252909352918190205490820190612a2e90613714565b81526020016001151581525081600d81518110612a4d57612a4d61558e565b6020908102919091018101919091526040805160c08101825260076080820190815266436f6f6b696e6760c81b60a083015281528151808401835260008082528285019190915289815261025b845282812060018252845282812060038252909352918190205490820190612ac190613714565b81526020016001151581525081600e81518110612ae057612ae061558e565b6020908102919091018101919091526040805160c0810182526012608082019081527121b93cb9ba30b61022bc3a3930b1ba34b7b760711b60a083015281528151808401835260008082528285019190915289815261025b845282812060018252845282812060048252909352918190205490820190612b5f90613714565b81526020016001151581525081600f81518110612b7e57612b7e61558e565b6020908102919091018101919091526040805160c081018252600760808201908152664661726d696e6760c81b60a083015281528151808401835260008082528285019190915289815261025b845282812060018252845282812060058252909352918190205490820190612bf290613714565b81526020016001151581525081601081518110612c1157612c1161558e565b6020908102919091018101919091526040805160c0810182526007608082019081526646697368696e6760c81b60a083015281528151808401835260008082528285019190915289815261025b845282812060018252845282812060068252909352918190205490820190612c8590613714565b81526020016001151581525081601181518110612ca457612ca461558e565b6020908102919091018101919091526040805160c081018252600b608082019081526a47656d2043757474696e6760a81b60a083015281528151808401835260008082528285019190915289815261025b845282812060018252845282812060078252909352918190205490820190612d1c90613714565b81526020016001151581525081601281518110612d3b57612d3b61558e565b6020908102919091018101919091526040805160c0810182526009608082019081526848657262616c69736d60b81b60a083015281528151808401835260008082528285019190915289815261025b845282812060018252845282812060088252909352918190205490820190612db190613714565b81526020016001151581525081601381518110612dd057612dd061558e565b6020908102919091018101919091526040805160c081018252600660808201908152654d696e696e6760d01b60a083015281528151808401835260008082528285019190915289815261025b845282812060018252845282812060098252909352918190205490820190612e4390613714565b81526020016001151581525081601481518110612e6257612e6261558e565b6020908102919091018101919091526040805160c081018252600960808201908152685461696c6f72696e6760b81b60a083015281528151808401835260008082528285019190915289815261025b8452828120600182528452828120600a8252909352918190205490820190612ed890613714565b81526020016001151581525081601581518110612ef757612ef761558e565b6020908102919091018101919091526040805160c081018252600b608082018181526a576f6f6463757474696e6760a81b60a08401528252825180850184526000808252838601919091528a815261025b85528381206001825285528381209181529352918190205490820190612f6d90613714565b81526020016001151581525081601681518110612f8c57612f8c61558e565b6020908102919091018101919091526040805160c081018252600e608082019081526d10da195cdd1cc810db185a5b595960921b60a0830152815281518083018352600c81526b3137b7b9ba2fb73ab6b132b960a11b8185015281840152600089815261025b845282812060028252845282812081805290935291819020549082019061301890613714565b815260200160011515815250816017815181106130375761303761558e565b6020026020010181905250600060fc61304f88613714565b604051602001613060929190615764565b60405160208183030381529060405290506130b08761307e89610f3c565b85846040518060400160405280600f81526020016e104810dbdcdb5a58c815da5e985c99608a1b8152506002886137a6565b979650505050505050565b60006107d7826137f2565b6130cf816136ce565b610e015760405162461bcd60e51b8152602060048201526018602482015277115490cdcc8c4e881a5b9d985b1a59081d1bdad95b88125160421b60448201526064016109b9565b600081815260696020526040902080546001600160a01b0319166001600160a01b038416908117909155819061314b82610f3c565b6001600160a01b03167f8c5be1e5ebec7d5bd14f71427d1e84f3dd0314c0f7b2291e5b200ac8c7c3b92560405160405180910390a45050565b60008061319083610f3c565b9050806001600160a01b0316846001600160a01b031614806131d757506001600160a01b038082166000908152606a602090815260408083209388168352929052205460ff165b806131fb5750836001600160a01b03166131f08461091e565b6001600160a01b0316145b949350505050565b826001600160a01b031661321682610f3c565b6001600160a01b03161461323c5760405162461bcd60e51b81526004016109b9906157eb565b6001600160a01b03821661329e5760405162461bcd60e51b8152602060048201526024808201527f4552433732313a207472616e7366657220746f20746865207a65726f206164646044820152637265737360e01b60648201526084016109b9565b6132ab8383836001613817565b826001600160a01b03166132be82610f3c565b6001600160a01b0316146132e45760405162461bcd60e51b81526004016109b9906157eb565b600081815260696020908152604080832080546001600160a01b03199081169091556001600160a01b0387811680865260688552838620805460001901905590871680865283862080546001019055868652606790945282852080549092168417909155905184937fddf252ad1be2c89b69c2b068fc378daa952ba7f163c4a11628f55a4df523b3ef91a4505050565b610e018133613972565b61338882826139cb565b600082815261019160205260409020610a5a9082613a52565b6133ab8282613a67565b600082815261019160205260409020610a5a9082613acf565b6133cc613ae4565b61012d805460ff191690557f5db9ee0a495bf2e6ff9c91a7834c1ba4fdd244a5e8aa4e537bd38aeae4b073aa335b6040516001600160a01b03909116815260200160405180910390a1565b610ddd828260405180602001604052806000815250613b2e565b61343a33610a64565b61349d5760405162461bcd60e51b815260206004820152602e60248201527f4552433732313a2063616c6c6572206973206e6f7420746f6b656e206f776e6560448201526d1c881b9bdc88185c1c1c9bdd995960921b60648201526084016109b9565b6134a96101f582613b61565b50610e0181613b6d565b60fc610ddd8282615619565b600054610100900460ff166134e65760405162461bcd60e51b81526004016109b990615830565b610ddd8282613bad565b600054610100900460ff166135175760405162461bcd60e51b81526004016109b990615830565b61351f613521565b565b600054610100900460ff1661351f5760405162461bcd60e51b81526004016109b990615830565b600054610100900460ff1661356f5760405162461bcd60e51b81526004016109b990615830565b61351f613bed565b61357f613c21565b61012d805460ff191660011790557f62e78cea01bee320cd4e420270b5ea74000d11b0c9f74754ebdbfc544b05a2586133fa3390565b60006114ec8383613c68565b610ddd6101f582613c92565b816001600160a01b0316836001600160a01b03160361362e5760405162461bcd60e51b815260206004820152601960248201527f4552433732313a20617070726f766520746f2063616c6c65720000000000000060448201526064016109b9565b6001600160a01b038381166000818152606a6020908152604080832094871680845294825291829020805460ff191686151590811790915591519182527f17307eab39ab6107e8899845ad3d59bd9653f200f220920489ca2b5937696c31910160405180910390a3505050565b6136a6848484613203565b6136b284848484613c9e565b610ea35760405162461bcd60e51b81526004016109b99061587b565b60006107d782613d9f565b60606136e482613dbe565b6040516020016136f491906158cd565b6040516020818303038152906040529050919050565b60006107d7825490565b6060600061372183613f10565b60010190506000816001600160401b0381111561374057613740614de0565b6040519080825280601f01601f19166020018201604052801561376a576020820181803683370190505b5090508181016020015b600019016f181899199a1a9b1b9c1cb0b131b232b360811b600a86061a8153600a850494508461377457509392505050565b606060006137b8898989898989613fe8565b9050806137c484614052565b6040516020016137d5929190615912565b604051602081830303815290604052915050979650505050505050565b60006001600160e01b03198216635a05180f60e01b14806107d757506107d78261425d565b61381f613c21565b8361382c61025982614282565b1561386f5760405162461bcd60e51b8152602060048201526013602482015272426c61636b6c6973746564206164647265737360681b60448201526064016109b9565b8361387c61025982614282565b156138bf5760405162461bcd60e51b8152602060048201526013602482015272426c61636b6c6973746564206164647265737360681b60448201526064016109b9565b600084815261025b602090815260408083208380528252808320600a84529091529020548490158061391e57506138f581610f3c565b6001600160a01b03167371e9e186dcfb6fd1ba018df46d21e7aa10969ad16001600160a01b0316145b61395d5760405162461bcd60e51b815260206004820152601060248201526f15da5e985c99081a5cc81cdd185ad95960821b60448201526064016109b9565b613969878787876142a4565b50505050505050565b61397c82826114f3565b610ddd57613989816142b0565b6139948360206142c2565b6040516020016139a592919061595f565b60408051601f198184030181529082905262461bcd60e51b82526109b991600401614d10565b6139d582826114f3565b610ddd57600082815261015f602090815260408083206001600160a01b03851684529091529020805460ff19166001179055613a0e3390565b6001600160a01b0316816001600160a01b0316837f2f8788117e7eff1d82e926ec794901d17c78024a50270940304540a733656f0d60405160405180910390a45050565b60006114ec836001600160a01b03841661445d565b613a7182826114f3565b15610ddd57600082815261015f602090815260408083206001600160a01b0385168085529252808320805460ff1916905551339285917ff6391f5c32d9c69d2a47ea670b442974b53935d1edc7fd64eb21e047a839171b9190a45050565b60006114ec836001600160a01b0384166144ac565b61012d5460ff1661351f5760405162461bcd60e51b815260206004820152601460248201527314185d5cd8589b194e881b9bdd081c185d5cd95960621b60448201526064016109b9565b613b38838361459f565b613b456000848484613c9e565b610a5a5760405162461bcd60e51b81526004016109b99061587b565b60006114ec838361445d565b613b768161471a565b600081815260fb602052604090208054613b8f90615507565b159050610e0157600081815260fb60205260408120610e0191614c3f565b600054610100900460ff16613bd45760405162461bcd60e51b81526004016109b990615830565b6065613be08382615619565b506066610a5a8282615619565b600054610100900460ff16613c145760405162461bcd60e51b81526004016109b990615830565b61012d805460ff19169055565b61012d5460ff161561351f5760405162461bcd60e51b815260206004820152601060248201526f14185d5cd8589b194e881c185d5cd95960821b60448201526064016109b9565b6000826000018281548110613c7f57613c7f61558e565b9060005260206000200154905092915050565b60006114ec83836144ac565b60006001600160a01b0384163b15613d9457604051630a85bd0160e11b81526001600160a01b0385169063150b7a0290613ce29033908990889088906004016159d4565b6020604051808303816000875af1925050508015613d1d575060408051601f3d908101601f19168201909252613d1a91810190615a11565b60015b613d7a573d808015613d4b576040519150601f19603f3d011682016040523d82523d6000602084013e613d50565b606091505b508051600003613d725760405162461bcd60e51b81526004016109b99061587b565b805181602001fd5b6001600160e01b031916630a85bd0160e11b1490506131fb565b506001949350505050565b6000818152606760205260408120546001600160a01b031615156107d7565b60608151600003613ddd57505060408051602081019091526000815290565b6000604051806060016040528060408152602001615d7d6040913990506000600384516002613e0c9190615a2e565b613e169190615a41565b613e21906004615a63565b6001600160401b03811115613e3857613e38614de0565b6040519080825280601f01601f191660200182016040528015613e62576020820181803683370190505b509050600182016020820185865187015b80821015613ece576003820191508151603f8160121c168501518453600184019350603f81600c1c168501518453600184019350603f8160061c168501518453600184019350603f8116850151845350600183019250613e73565b5050600386510660018114613eea5760028114613efd57613f05565b603d6001830353603d6002830353613f05565b603d60018303535b509195945050505050565b60008072184f03e93ff9f4daa797ed6e38ed64bf6a1f0160401b8310613f4f5772184f03e93ff9f4daa797ed6e38ed64bf6a1f0160401b830492506040015b6d04ee2d6d415b85acef81000000008310613f7b576d04ee2d6d415b85acef8100000000830492506020015b662386f26fc100008310613f9957662386f26fc10000830492506010015b6305f5e1008310613fb1576305f5e100830492506008015b6127108310613fc557612710830492506004015b60648310613fd7576064830492506002015b600a83106107d75760010192915050565b606084613ff488613714565b84866140088a6001600160a01b03166142b0565b61402287600281111561401d5761401d615a82565b6147bd565b60405160200161403796959493929190615a98565b60405160208183030381529060405290509695505050505050565b60408051602081019091526000808252606091905b8351811015614234576000600185516140809190615bb7565b82146140a557604051806040016040528060018152602001600b60fa1b8152506140b6565b604051806020016040528060008152505b905060008583815181106140cc576140cc61558e565b6020026020010151606001516140fb57604051806040016040528060018152602001601160f91b81525061410c565b604051806020016040528060008152505b90506000818785815181106141235761412361558e565b6020026020010151604001518360405160200161414293929190615bca565b604051602081830303815290604052905060008785815181106141675761416761558e565b602002602001015160200151516000146141bd5787858151811061418d5761418d61558e565b6020026020010151602001516040516020016141a99190615c0d565b6040516020818303038152906040526141ce565b604051806020016040528060008152505b90506000868987815181106141e5576141e561558e565b602002602001015160000151838588604051602001614208959493929190615c52565b60405160208183030381529060405290508096505050505050808061422c906155ba565b915050614067565b50806040516020016142469190615d0d565b604051602081830303815290604052915050919050565b60006001600160e01b03198216637965db0b60e01b14806107d757506107d78261485b565b6001600160a01b038116600090815260018301602052604081205415156114ec565b610ea384848484614866565b60606107d76001600160a01b03831660145b606060006142d1836002615a63565b6142dc906002615a2e565b6001600160401b038111156142f3576142f3614de0565b6040519080825280601f01601f19166020018201604052801561431d576020820181803683370190505b509050600360fc1b816000815181106143385761433861558e565b60200101906001600160f81b031916908160001a905350600f60fb1b816001815181106143675761436761558e565b60200101906001600160f81b031916908160001a905350600061438b846002615a63565b614396906001615a2e565b90505b600181111561440e576f181899199a1a9b1b9c1cb0b131b232b360811b85600f16601081106143ca576143ca61558e565b1a60f81b8282815181106143e0576143e061558e565b60200101906001600160f81b031916908160001a90535060049490941c9361440781615d4f565b9050614399565b5083156114ec5760405162461bcd60e51b815260206004820181905260248201527f537472696e67733a20686578206c656e67746820696e73756666696369656e7460448201526064016109b9565b60008181526001830160205260408120546144a4575081546001818101845560008481526020808220909301849055845484825282860190935260409020919091556107d7565b5060006107d7565b600081815260018301602052604081205480156145955760006144d0600183615bb7565b85549091506000906144e490600190615bb7565b90508181146145495760008660000182815481106145045761450461558e565b90600052602060002001549050808760000184815481106145275761452761558e565b6000918252602080832090910192909255918252600188019052604090208390555b855486908061455a5761455a615d66565b6001900381819060005260206000200160009055905585600101600086815260200190815260200160002060009055600193505050506107d7565b60009150506107d7565b6001600160a01b0382166145f55760405162461bcd60e51b815260206004820181905260248201527f4552433732313a206d696e7420746f20746865207a65726f206164647265737360448201526064016109b9565b6145fe816136ce565b1561464b5760405162461bcd60e51b815260206004820152601c60248201527f4552433732313a20746f6b656e20616c7265616479206d696e7465640000000060448201526064016109b9565b614659600083836001613817565b614662816136ce565b156146af5760405162461bcd60e51b815260206004820152601c60248201527f4552433732313a20746f6b656e20616c7265616479206d696e7465640000000060448201526064016109b9565b6001600160a01b038216600081815260686020908152604080832080546001019055848352606790915280822080546001600160a01b0319168417905551839291907fddf252ad1be2c89b69c2b068fc378daa952ba7f163c4a11628f55a4df523b3ef908290a45050565b600061472582610f3c565b9050614735816000846001613817565b61473e82610f3c565b600083815260696020908152604080832080546001600160a01b03199081169091556001600160a01b0385168085526068845282852080546000190190558785526067909352818420805490911690555192935084927fddf252ad1be2c89b69c2b068fc378daa952ba7f163c4a11628f55a4df523b3ef908390a45050565b606060028260028111156147d3576147d3615a82565b146148395760018260028111156147ec576147ec615a82565b146148145760405180604001604052806005815260200164045524332360dc1b8152506107d7565b604051806040016040528060078152602001664552433131353560c81b8152506107d7565b505060408051808201909152600681526545524337323160d01b602082015290565b60006107d782614872565b610ea384848484614897565b60006001600160e01b0319821663780e9d6360e01b14806107d757506107d7826149d7565b6148a384848484614a27565b60018111156149125760405162461bcd60e51b815260206004820152603560248201527f455243373231456e756d657261626c653a20636f6e7365637574697665207472604482015274185b9cd9995c9cc81b9bdd081cdd5c1c1bdc9d1959605a1b60648201526084016109b9565b816001600160a01b03851661496e5761496981609980546000838152609a60205260408120829055600182018355919091527f72a152ddfb8e864297c917af52ea6c1c68aead0fee1a62673fcc7e0c94979d000155565b614991565b836001600160a01b0316856001600160a01b031614614991576149918582614aaf565b6001600160a01b0384166149ad576149a881614b4c565b6149d0565b846001600160a01b0316846001600160a01b0316146149d0576149d08482614bfb565b5050505050565b60006001600160e01b031982166380ac58cd60e01b1480614a0857506001600160e01b03198216635b5e139f60e01b145b806107d757506301ffc9a760e01b6001600160e01b03198316146107d7565b6001811115610ea3576001600160a01b03841615614a6d576001600160a01b03841660009081526068602052604081208054839290614a67908490615bb7565b90915550505b6001600160a01b03831615610ea3576001600160a01b03831660009081526068602052604081208054839290614aa4908490615a2e565b909155505050505050565b60006001614abc8461106e565b614ac69190615bb7565b600083815260986020526040902054909150808214614b19576001600160a01b03841660009081526097602090815260408083208584528252808320548484528184208190558352609890915290208190555b5060009182526098602090815260408084208490556001600160a01b039094168352609781528383209183525290812055565b609954600090614b5e90600190615bb7565b6000838152609a602052604081205460998054939450909284908110614b8657614b8661558e565b906000526020600020015490508060998381548110614ba757614ba761558e565b6000918252602080832090910192909255828152609a90915260408082208490558582528120556099805480614bdf57614bdf615d66565b6001900381819060005260206000200160009055905550505050565b6000614c068361106e565b6001600160a01b039093166000908152609760209081526040808320868452825280832085905593825260989052919091209190915550565b508054614c4b90615507565b6000825580601f10614c5b575050565b601f016020900490600052602060002090810190610e0191905b80821115614c895760008155600101614c75565b5090565b6001600160e01b031981168114610e0157600080fd5b600060208284031215614cb557600080fd5b81356114ec81614c8d565b60005b83811015614cdb578181015183820152602001614cc3565b50506000910152565b60008151808452614cfc816020860160208601614cc0565b601f01601f19169290920160200192915050565b6020815260006114ec6020830184614ce4565b60008060408385031215614d3657600080fd5b50508035926020909101359150565b600060208284031215614d5757600080fd5b5035919050565b80356001600160a01b0381168114614d7557600080fd5b919050565b60008060408385031215614d8d57600080fd5b614d9683614d5e565b946020939093013593505050565b600080600060608486031215614db957600080fd5b614dc284614d5e565b9250614dd060208501614d5e565b9150604084013590509250925092565b634e487b7160e01b600052604160045260246000fd5b604051601f8201601f191681016001600160401b0381118282101715614e1e57614e1e614de0565b604052919050565b60006001600160401b03821115614e3f57614e3f614de0565b5060051b60200190565b600082601f830112614e5a57600080fd5b81356020614e6f614e6a83614e26565b614df6565b82815260059290921b84018101918181019086841115614e8e57600080fd5b8286015b84811015614ea95780358352918301918301614e92565b509695505050505050565b600060208284031215614ec657600080fd5b81356001600160401b03811115614edc57600080fd5b6131fb84828501614e49565b6000602080830181845280855180835260408601915060408160051b870101925083870160005b82811015614f3d57603f19888603018452614f2b858351614ce4565b94509285019290850190600101614f0f565b5092979650505050505050565b60008060408385031215614f5d57600080fd5b82359150614f6d60208401614d5e565b90509250929050565b60008060408385031215614f8957600080fd5b82356001600160401b03811115614f9f57600080fd5b614fab85828601614e49565b95602094909401359450505050565b600080600060608486031215614fcf57600080fd5b505081359360208301359350604090920135919050565b60008060408385031215614ff957600080fd5b61500283614d5e565b915060208301356001600160401b0381111561501d57600080fd5b61502985828601614e49565b9150509250929050565b600082601f83011261504457600080fd5b81356001600160401b0381111561505d5761505d614de0565b615070601f8201601f1916602001614df6565b81815284602083860101111561508557600080fd5b816020850160208301376000918101602001919091529392505050565b6000602082840312156150b457600080fd5b81356001600160401b038111156150ca57600080fd5b6131fb84828501615033565b6000602082840312156150e857600080fd5b6114ec82614d5e565b6000806000806080858703121561510757600080fd5b84356001600160401b038082111561511e57600080fd5b61512a88838901614e49565b9550602087013591508082111561514057600080fd5b61514c88838901614e49565b9450604087013591508082111561516257600080fd5b61516e88838901614e49565b9350606087013591508082111561518457600080fd5b5061519187828801614e49565b91505092959194509250565b6020808252825182820181905260009190848201906040850190845b818110156151d5578351835292840192918401916001016151b9565b50909695505050505050565b6000806000606084860312156151f657600080fd5b6151ff84614d5e565b92506020840135915060408401356001600160401b0381111561522157600080fd5b61522d86828701615033565b9150509250925092565b6000806040838503121561524a57600080fd5b8235915060208301356001600160401b0381111561501d57600080fd5b6000806040838503121561527a57600080fd5b61528383614d5e565b91506020830135801515811461529857600080fd5b809150509250929050565b600080600080608085870312156152b957600080fd5b5050823594602084013594506040840135936060013592509050565b600080600080608085870312156152eb57600080fd5b6152f485614d5e565b935061530260208601614d5e565b92506040850135915060608501356001600160401b0381111561532457600080fd5b61519187828801615033565b60008060006060848603121561534557600080fd5b833592506020840135915060408401356001600160401b0381111561536957600080fd5b61522d86828701614e49565b6000806000806080858703121561538b57600080fd5b84359350602080860135935060408601356001600160401b03808211156153b157600080fd5b6153bd89838a01614e49565b945060608801359150808211156153d357600080fd5b818801915088601f8301126153e757600080fd5b81356153f5614e6a82614e26565b81815260059190911b8301840190848101908b83111561541457600080fd5b8585015b8381101561544c578035858111156154305760008081fd5b61543e8e89838a0101615033565b845250918601918601615418565b50989b979a50959850505050505050565b6000806040838503121561547057600080fd5b61547983614d5e565b9150614f6d60208401614d5e565b60008060006060848603121561549c57600080fd5b833592506020840135915060408401356001600160401b0381111561522157600080fd5b6000806000606084860312156154d557600080fd5b6154de84614d5e565b92506154ec60208501614d5e565b915060408401356001600160401b0381111561536957600080fd5b600181811c9082168061551b57607f821691505b60208210810361553b57634e487b7160e01b600052602260045260246000fd5b50919050565b6020808252602d908201527f4552433732313a2063616c6c6572206973206e6f7420746f6b656e206f776e6560408201526c1c881bdc88185c1c1c9bdd9959609a1b606082015260800190565b634e487b7160e01b600052603260045260246000fd5b634e487b7160e01b600052601160045260246000fd5b6000600182016155cc576155cc6155a4565b5060010190565b601f821115610a5a57600081815260208120601f850160051c810160208610156155fa5750805b601f850160051c820191505b8181101561125857828155600101615606565b81516001600160401b0381111561563257615632614de0565b615646816156408454615507565b846155d3565b602080601f83116001811461567b57600084156156635750858301515b600019600386901b1c1916600185901b178555611258565b600085815260208120601f198616915b828110156156aa5788860151825594840194600190910190840161568b565b50858210156156c85787850151600019600388901b60f8161c191681555b5050505050600190811b01905550565b8281526040602082015260006131fb6040830184614ce4565b60008151615703818560208601614cc0565b9290920192915050565b66021b7b9b6b4b1960cd1b81526000835161572f816007850160208801614cc0565b682057697a617264202360b81b6007918401918201528351615758816010840160208801614cc0565b01601001949350505050565b600080845461577281615507565b6001828116801561578a576001811461579f576157ce565b60ff19841687528215158302870194506157ce565b8860005260208060002060005b858110156157c55781548a8201529084019082016157ac565b50505082870194505b5050505083516157e2818360208801614cc0565b01949350505050565b60208082526025908201527f4552433732313a207472616e736665722066726f6d20696e636f72726563742060408201526437bbb732b960d91b606082015260800190565b6020808252602b908201527f496e697469616c697a61626c653a20636f6e7472616374206973206e6f74206960408201526a6e697469616c697a696e6760a81b606082015260800190565b60208082526032908201527f4552433732313a207472616e7366657220746f206e6f6e20455243373231526560408201527131b2b4bb32b91034b6b83632b6b2b73a32b960711b606082015260800190565b7f646174613a6170706c69636174696f6e2f6a736f6e3b6261736536342c00000081526000825161590581601d850160208701614cc0565b91909101601d0192915050565b607b60f81b81526000835161592e816001850160208801614cc0565b835190830190615945816001840160208801614cc0565b607d60f81b60019290910191820152600201949350505050565b7f416363657373436f6e74726f6c3a206163636f756e7420000000000000000000815260008351615997816017850160208801614cc0565b7001034b99036b4b9b9b4b733903937b6329607d1b60179184019182015283516159c8816028840160208801614cc0565b01602801949350505050565b6001600160a01b0385811682528416602082015260408101839052608060608201819052600090615a0790830184614ce4565b9695505050505050565b600060208284031215615a2357600080fd5b81516114ec81614c8d565b808201808211156107d7576107d76155a4565b600082615a5e57634e487b7160e01b600052601260045260246000fd5b500490565b6000816000190483118215151615615a7d57615a7d6155a4565b500290565b634e487b7160e01b600052602160045260246000fd5b67113730b6b2911d1160c11b81528651600090615abc816008850160208c01614cc0565b61088b60f21b60089184019182018190526a113a37b5b2b724b2111d1160a91b600a8301528851615af4816015850160208d01614cc0565b601592019182018190526e113232b9b1b934b83a34b7b7111d1160891b60178301528751615b29816026850160208c01614cc0565b6026920191820152615baa615b67615ba4615b9082615b8a615b7582615b6160288a01681134b6b0b3b2911d1160b91b815260090190565b8e6156f1565b61088b60f21b815260020190565b681137bbb732b9111d1160b91b815260090190565b8a6156f1565b67113a3cb832911d1160c11b815260080190565b866156f1565b9998505050505050505050565b818103818111156107d7576107d76155a4565b60008451615bdc818460208901614cc0565b845190830190615bf0818360208901614cc0565b8451910190615c03818360208801614cc0565b0195945050505050565b6f113234b9b83630bcafba3cb832911d1160811b81528151600090615c39816010850160208701614cc0565b61088b60f21b6010939091019283015250601201919050565b60008651615c64818460208b01614cc0565b6e3d913a3930b4ba2fba3cb832911d1160891b9083019081528651615c9081600f840160208b01614cc0565b61088b60f21b600f92909101918201528551615cb3816011840160208a01614cc0565b67113b30b63ab2911d60c11b601192909101918201528451615cdc816019840160208901614cc0565b607d60f81b601992909101918201528351615cfe81601a840160208801614cc0565b01601a01979650505050505050565b6d2261747472696275746573223a5b60901b81528151600090615d3781600e850160208701614cc0565b605d60f81b600e939091019283015250600f01919050565b600081615d5e57615d5e6155a4565b506000190190565b634e487b7160e01b600052603160045260246000fdfe4142434445464748494a4b4c4d4e4f505152535455565758595a6162636465666768696a6b6c6d6e6f707172737475767778797a303132333435363738392b2f9f2df0fed2c77648de5860a4cc508cd0818c85b8b8a1ab4ceeef8d981c8956a6a49807205ce4d355092ef5a8a18f56e8913cf4a201fbe287825b095693c21775c2e37eb2a2c05b6e450c98b87ad0501492e48962d4d9a01e70045b922965061f364d3d7565c7a8300c96fd53e065d19b65848d7b23b3191adcd55621c744223ca264697066735822122024889eee128c128db55e0628ed9512d90a8fab276b7461ee59dbf8b813fa892664736f6c63430008100033",
  "linkReferences": {},
  "deployedLinkReferences": {}
}