{
  "_format": "hh-sol-artifact-1",
  "contractName": "CosmicWizards",
  "sourceName": "contracts/upgradeable/ERC721/CosmicWizards.sol",
  "abi": [
    {
      "inputs": [],
      "stateMutability": "nonpayable",
      "type": "constructor"
    },
    {
      "anonymous": false,
      "inputs": [
        {
          "indexed": true,
          "internalType": "address",
          "name": "owner",
          "type": "address"
        },
        {
          "indexed": true,
          "internalType": "address",
          "name": "approved",
          "type": "address"
        },
        {
          "indexed": true,
          "internalType": "uint256",
          "name": "tokenId",
          "type": "uint256"
        }
      ],
      "name": "Approval",
      "type": "event"
    },
    {
      "anonymous": false,
      "inputs": [
        {
          "indexed": true,
          "internalType": "address",
          "name": "owner",
          "type": "address"
        },
        {
          "indexed": true,
          "internalType": "address",
          "name": "operator",
          "type": "address"
        },
        {
          "indexed": false,
          "internalType": "bool",
          "name": "approved",
          "type": "bool"
        }
      ],
      "name": "ApprovalForAll",
      "type": "event"
    },
    {
      "anonymous": false,
      "inputs": [
        {
          "indexed": false,
          "internalType": "uint8",
          "name": "version",
          "type": "uint8"
        }
      ],
      "name": "Initialized",
      "type": "event"
    },
    {
      "anonymous": false,
      "inputs": [
        {
          "indexed": false,
          "internalType": "address",
          "name": "account",
          "type": "address"
        }
      ],
      "name": "Paused",
      "type": "event"
    },
    {
      "anonymous": false,
      "inputs": [
        {
          "indexed": true,
          "internalType": "bytes32",
          "name": "role",
          "type": "bytes32"
        },
        {
          "indexed": true,
          "internalType": "bytes32",
          "name": "previousAdminRole",
          "type": "bytes32"
        },
        {
          "indexed": true,
          "internalType": "bytes32",
          "name": "newAdminRole",
          "type": "bytes32"
        }
      ],
      "name": "RoleAdminChanged",
      "type": "event"
    },
    {
      "anonymous": false,
      "inputs": [
        {
          "indexed": true,
          "internalType": "bytes32",
          "name": "role",
          "type": "bytes32"
        },
        {
          "indexed": true,
          "internalType": "address",
          "name": "account",
          "type": "address"
        },
        {
          "indexed": true,
          "internalType": "address",
          "name": "sender",
          "type": "address"
        }
      ],
      "name": "RoleGranted",
      "type": "event"
    },
    {
      "anonymous": false,
      "inputs": [
        {
          "indexed": true,
          "internalType": "bytes32",
          "name": "role",
          "type": "bytes32"
        },
        {
          "indexed": true,
          "internalType": "address",
          "name": "account",
          "type": "address"
        },
        {
          "indexed": true,
          "internalType": "address",
          "name": "sender",
          "type": "address"
        }
      ],
      "name": "RoleRevoked",
      "type": "event"
    },
    {
      "anonymous": false,
      "inputs": [
        {
          "indexed": true,
          "internalType": "uint256",
          "name": "tokenId",
          "type": "uint256"
        },
        {
          "indexed": false,
          "internalType": "uint256",
          "name": "customId",
          "type": "uint256"
        },
        {
          "indexed": false,
          "internalType": "string",
          "name": "value",
          "type": "string"
        }
      ],
      "name": "TextUpdated",
      "type": "event"
    },
    {
      "anonymous": false,
      "inputs": [
        {
          "indexed": true,
          "internalType": "address",
          "name": "from",
          "type": "address"
        },
        {
          "indexed": true,
          "internalType": "address",
          "name": "to",
          "type": "address"
        },
        {
          "indexed": true,
          "internalType": "uint256",
          "name": "tokenId",
          "type": "uint256"
        }
      ],
      "name": "Transfer",
      "type": "event"
    },
    {
      "anonymous": false,
      "inputs": [
        {
          "indexed": false,
          "internalType": "address",
          "name": "account",
          "type": "address"
        }
      ],
      "name": "Unpaused",
      "type": "event"
    },
    {
      "anonymous": false,
      "inputs": [
        {
          "indexed": true,
          "internalType": "uint256",
          "name": "tokenId",
          "type": "uint256"
        },
        {
          "indexed": false,
          "internalType": "uint256",
          "name": "treeId",
          "type": "uint256"
        },
        {
          "indexed": false,
          "internalType": "uint256",
          "name": "skillId",
          "type": "uint256"
        },
        {
          "indexed": false,
          "internalType": "uint256",
          "name": "value",
          "type": "uint256"
        }
      ],
      "name": "ValueUpdated",
      "type": "event"
    },
    {
      "inputs": [],
      "name": "ADMIN_ROLE",
      "outputs": [
        {
          "internalType": "bytes32",
          "name": "",
          "type": "bytes32"
        }
      ],
      "stateMutability": "view",
      "type": "function"
    },
    {
      "inputs": [],
      "name": "CONTRACT_ROLE",
      "outputs": [
        {
          "internalType": "bytes32",
          "name": "",
          "type": "bytes32"
        }
      ],
      "stateMutability": "view",
      "type": "function"
    },
    {
      "inputs": [],
      "name": "DEFAULT_ADMIN_ROLE",
      "outputs": [
        {
          "internalType": "bytes32",
          "name": "",
          "type": "bytes32"
        }
      ],
      "stateMutability": "view",
      "type": "function"
    },
    {
      "inputs": [],
      "name": "MINTER_ROLE",
      "outputs": [
        {
          "internalType": "bytes32",
          "name": "",
          "type": "bytes32"
        }
      ],
      "stateMutability": "view",
      "type": "function"
    },
    {
      "inputs": [
        {
          "internalType": "address",
          "name": "from",
          "type": "address"
        },
        {
          "internalType": "address[]",
          "name": "accounts",
          "type": "address[]"
        },
        {
          "internalType": "uint256[]",
          "name": "tokenIds",
          "type": "uint256[]"
        }
      ],
      "name": "adminRescue",
      "outputs": [],
      "stateMutability": "nonpayable",
      "type": "function"
    },
    {
      "inputs": [
        {
          "internalType": "address",
          "name": "to",
          "type": "address"
        },
        {
          "internalType": "uint256",
          "name": "tokenId",
          "type": "uint256"
        }
      ],
      "name": "approve",
      "outputs": [],
      "stateMutability": "nonpayable",
      "type": "function"
    },
    {
      "inputs": [
        {
          "internalType": "address",
          "name": "owner",
          "type": "address"
        }
      ],
      "name": "balanceOf",
      "outputs": [
        {
          "internalType": "uint256",
          "name": "",
          "type": "uint256"
        }
      ],
      "stateMutability": "view",
      "type": "function"
    },
    {
      "inputs": [
        {
          "internalType": "address",
          "name": "to",
          "type": "address"
        },
        {
          "internalType": "uint256[]",
          "name": "tokenIds",
          "type": "uint256[]"
        }
      ],
      "name": "batchMint",
      "outputs": [],
      "stateMutability": "nonpayable",
      "type": "function"
    },
    {
      "inputs": [
        {
          "internalType": "uint256[]",
          "name": "tokenIds",
          "type": "uint256[]"
        }
      ],
      "name": "batchTokenURI",
      "outputs": [
        {
          "internalType": "string[]",
          "name": "",
          "type": "string[]"
        }
      ],
      "stateMutability": "view",
      "type": "function"
    },
    {
      "inputs": [
        {
          "internalType": "uint256[]",
          "name": "tokenIds",
          "type": "uint256[]"
        }
      ],
      "name": "batchTokenURIJSON",
      "outputs": [
        {
          "internalType": "string[]",
          "name": "",
          "type": "string[]"
        }
      ],
      "stateMutability": "view",
      "type": "function"
    },
    {
      "inputs": [
        {
          "internalType": "address",
          "name": "from",
          "type": "address"
        },
        {
          "internalType": "address",
          "name": "to",
          "type": "address"
        },
        {
          "internalType": "uint256[]",
          "name": "tokenIds",
          "type": "uint256[]"
        }
      ],
      "name": "batchTransferFrom",
      "outputs": [],
      "stateMutability": "nonpayable",
      "type": "function"
    },
    {
      "inputs": [
        {
          "internalType": "uint256[]",
          "name": "tokenIds",
          "type": "uint256[]"
        },
        {
          "internalType": "uint256[]",
          "name": "treeIds",
          "type": "uint256[]"
        },
        {
          "internalType": "uint256[]",
          "name": "skillIds",
          "type": "uint256[]"
        },
        {
          "internalType": "uint256[]",
          "name": "values",
          "type": "uint256[]"
        }
      ],
      "name": "batchUpdateSkills",
      "outputs": [],
      "stateMutability": "nonpayable",
      "type": "function"
    },
    {
      "inputs": [
        {
          "internalType": "uint256",
          "name": "tokenId",
          "type": "uint256"
        },
        {
          "internalType": "uint256",
          "name": "treeId",
          "type": "uint256"
        },
        {
          "internalType": "uint256[]",
          "name": "skillIds",
          "type": "uint256[]"
        },
        {
          "internalType": "uint256[]",
          "name": "values",
          "type": "uint256[]"
        }
      ],
      "name": "batchUpdateSkillsOfToken",
      "outputs": [],
      "stateMutability": "nonpayable",
      "type": "function"
    },
    {
      "inputs": [],
      "name": "bridgeContract",
      "outputs": [
        {
          "internalType": "address",
          "name": "",
          "type": "address"
        }
      ],
      "stateMutability": "view",
      "type": "function"
    },
    {
      "inputs": [
        {
          "internalType": "uint256",
          "name": "tokenId",
          "type": "uint256"
        }
      ],
      "name": "bridgeExtraData",
      "outputs": [
        {
          "internalType": "bytes",
          "name": "",
          "type": "bytes"
        }
      ],
      "stateMutability": "view",
      "type": "function"
    },
    {
      "inputs": [
        {
          "internalType": "uint256",
          "name": "tokenId",
          "type": "uint256"
        }
      ],
      "name": "burn",
      "outputs": [],
      "stateMutability": "nonpayable",
      "type": "function"
    },
    {
      "inputs": [],
      "name": "getAllTokenIds",
      "outputs": [
        {
          "internalType": "uint256[]",
          "name": "",
          "type": "uint256[]"
        }
      ],
      "stateMutability": "view",
      "type": "function"
    },
    {
      "inputs": [
        {
          "internalType": "uint256",
          "name": "tokenId",
          "type": "uint256"
        }
      ],
      "name": "getApproved",
      "outputs": [
        {
          "internalType": "address",
          "name": "",
          "type": "address"
        }
      ],
      "stateMutability": "view",
      "type": "function"
    },
    {
      "inputs": [
        {
          "internalType": "bytes32",
          "name": "role",
          "type": "bytes32"
        }
      ],
      "name": "getRoleAdmin",
      "outputs": [
        {
          "internalType": "bytes32",
          "name": "",
          "type": "bytes32"
        }
      ],
      "stateMutability": "view",
      "type": "function"
    },
    {
      "inputs": [
        {
          "internalType": "bytes32",
          "name": "role",
          "type": "bytes32"
        },
        {
          "internalType": "uint256",
          "name": "index",
          "type": "uint256"
        }
      ],
      "name": "getRoleMember",
      "outputs": [
        {
          "internalType": "address",
          "name": "",
          "type": "address"
        }
      ],
      "stateMutability": "view",
      "type": "function"
    },
    {
      "inputs": [
        {
          "internalType": "bytes32",
          "name": "role",
          "type": "bytes32"
        }
      ],
      "name": "getRoleMemberCount",
      "outputs": [
        {
          "internalType": "uint256",
          "name": "",
          "type": "uint256"
        }
      ],
      "stateMutability": "view",
      "type": "function"
    },
    {
      "inputs": [
        {
          "internalType": "uint256",
          "name": "tokenId",
          "type": "uint256"
        },
        {
          "internalType": "uint256",
          "name": "treeId",
          "type": "uint256"
        },
        {
          "internalType": "uint256",
          "name": "skillId",
          "type": "uint256"
        }
      ],
      "name": "getSkill",
      "outputs": [
        {
          "internalType": "uint256",
          "name": "value",
          "type": "uint256"
        }
      ],
      "stateMutability": "view",
      "type": "function"
    },
    {
      "inputs": [
        {
          "internalType": "uint256",
          "name": "tokenId",
          "type": "uint256"
        },
        {
          "internalType": "uint256",
          "name": "treeId",
          "type": "uint256"
        },
        {
          "internalType": "uint256[]",
          "name": "skillIds",
          "type": "uint256[]"
        }
      ],
      "name": "getSkillsByTree",
      "outputs": [
        {
          "internalType": "uint256[]",
          "name": "",
          "type": "uint256[]"
        }
      ],
      "stateMutability": "view",
      "type": "function"
    },
    {
      "inputs": [
        {
          "internalType": "uint256",
          "name": "tokenId",
          "type": "uint256"
        },
        {
          "internalType": "uint256",
          "name": "customId",
          "type": "uint256"
        }
      ],
      "name": "getString",
      "outputs": [
        {
          "internalType": "string",
          "name": "value",
          "type": "string"
        }
      ],
      "stateMutability": "view",
      "type": "function"
    },
    {
      "inputs": [
        {
          "internalType": "uint256[]",
          "name": "tokenIds",
          "type": "uint256[]"
        },
        {
          "internalType": "uint256",
          "name": "customId",
          "type": "uint256"
        }
      ],
      "name": "getStringOfTokens",
      "outputs": [
        {
          "internalType": "string[]",
          "name": "",
          "type": "string[]"
        }
      ],
      "stateMutability": "view",
      "type": "function"
    },
    {
      "inputs": [
        {
          "internalType": "uint256",
          "name": "tokenId",
          "type": "uint256"
        },
        {
          "internalType": "uint256[]",
          "name": "customIds",
          "type": "uint256[]"
        }
      ],
      "name": "getStrings",
      "outputs": [
        {
          "internalType": "string[]",
          "name": "",
          "type": "string[]"
        }
      ],
      "stateMutability": "view",
      "type": "function"
    },
    {
      "inputs": [
        {
          "internalType": "bytes32",
          "name": "role",
          "type": "bytes32"
        },
        {
          "internalType": "address",
          "name": "account",
          "type": "address"
        }
      ],
      "name": "grantRole",
      "outputs": [],
      "stateMutability": "nonpayable",
      "type": "function"
    },
    {
      "inputs": [
        {
          "internalType": "bytes32",
          "name": "role",
          "type": "bytes32"
        },
        {
          "internalType": "address",
          "name": "account",
          "type": "address"
        }
      ],
      "name": "hasRole",
      "outputs": [
        {
          "internalType": "bool",
          "name": "",
          "type": "bool"
        }
      ],
      "stateMutability": "view",
      "type": "function"
    },
    {
      "inputs": [],
      "name": "imageBaseURI",
      "outputs": [
        {
          "internalType": "string",
          "name": "",
          "type": "string"
        }
      ],
      "stateMutability": "view",
      "type": "function"
    },
    {
      "inputs": [],
      "name": "initialize",
      "outputs": [],
      "stateMutability": "nonpayable",
      "type": "function"
    },
    {
      "inputs": [
        {
          "internalType": "address",
          "name": "owner",
          "type": "address"
        },
        {
          "internalType": "address",
          "name": "operator",
          "type": "address"
        }
      ],
      "name": "isApprovedForAll",
      "outputs": [
        {
          "internalType": "bool",
          "name": "",
          "type": "bool"
        }
      ],
      "stateMutability": "view",
      "type": "function"
    },
    {
      "inputs": [
        {
          "internalType": "address",
          "name": "to",
          "type": "address"
        },
        {
          "internalType": "uint256",
          "name": "tokenId",
          "type": "uint256"
        }
      ],
      "name": "mint",
      "outputs": [],
      "stateMutability": "nonpayable",
      "type": "function"
    },
    {
      "inputs": [
        {
          "internalType": "address",
          "name": "to",
          "type": "address"
        },
        {
          "internalType": "uint256",
          "name": "tokenId",
          "type": "uint256"
        },
        {
          "internalType": "bytes",
          "name": "data",
          "type": "bytes"
        }
      ],
      "name": "mint",
      "outputs": [],
      "stateMutability": "nonpayable",
      "type": "function"
    },
    {
      "inputs": [],
      "name": "name",
      "outputs": [
        {
          "internalType": "string",
          "name": "",
          "type": "string"
        }
      ],
      "stateMutability": "view",
      "type": "function"
    },
    {
      "inputs": [
        {
          "internalType": "uint256",
          "name": "tokenId",
          "type": "uint256"
        }
      ],
      "name": "ownerOf",
      "outputs": [
        {
          "internalType": "address",
          "name": "",
          "type": "address"
        }
      ],
      "stateMutability": "view",
      "type": "function"
    },
    {
      "inputs": [],
      "name": "pause",
      "outputs": [],
      "stateMutability": "nonpayable",
      "type": "function"
    },
    {
      "inputs": [],
      "name": "paused",
      "outputs": [
        {
          "internalType": "bool",
          "name": "",
          "type": "bool"
        }
      ],
      "stateMutability": "view",
      "type": "function"
    },
    {
      "inputs": [
        {
          "internalType": "bytes32",
          "name": "role",
          "type": "bytes32"
        },
        {
          "internalType": "address",
          "name": "account",
          "type": "address"
        }
      ],
      "name": "renounceRole",
      "outputs": [],
      "stateMutability": "nonpayable",
      "type": "function"
    },
    {
      "inputs": [
        {
          "internalType": "bytes32",
          "name": "role",
          "type": "bytes32"
        },
        {
          "internalType": "address",
          "name": "account",
          "type": "address"
        }
      ],
      "name": "revokeRole",
      "outputs": [],
      "stateMutability": "nonpayable",
      "type": "function"
    },
    {
      "inputs": [
        {
          "internalType": "address",
          "name": "from",
          "type": "address"
        },
        {
          "internalType": "address",
          "name": "to",
          "type": "address"
        },
        {
          "internalType": "uint256",
          "name": "tokenId",
          "type": "uint256"
        }
      ],
      "name": "safeTransferFrom",
      "outputs": [],
      "stateMutability": "nonpayable",
      "type": "function"
    },
    {
      "inputs": [
        {
          "internalType": "address",
          "name": "from",
          "type": "address"
        },
        {
          "internalType": "address",
          "name": "to",
          "type": "address"
        },
        {
          "internalType": "uint256",
          "name": "tokenId",
          "type": "uint256"
        },
        {
          "internalType": "bytes",
          "name": "data",
          "type": "bytes"
        }
      ],
      "name": "safeTransferFrom",
      "outputs": [],
      "stateMutability": "nonpayable",
      "type": "function"
    },
    {
      "inputs": [
        {
          "internalType": "address",
          "name": "operator",
          "type": "address"
        },
        {
          "internalType": "bool",
          "name": "approved",
          "type": "bool"
        }
      ],
      "name": "setApprovalForAll",
      "outputs": [],
      "stateMutability": "nonpayable",
      "type": "function"
    },
    {
      "inputs": [
        {
          "internalType": "address",
          "name": "_bridgeContract",
          "type": "address"
        }
      ],
      "name": "setBridgeContract",
      "outputs": [],
      "stateMutability": "nonpayable",
      "type": "function"
    },
    {
      "inputs": [
        {
          "internalType": "string",
          "name": "_imageBaseURI",
          "type": "string"
        }
      ],
      "name": "setImageBaseURI",
      "outputs": [],
      "stateMutability": "nonpayable",
      "type": "function"
    },
    {
      "inputs": [
        {
          "internalType": "bytes4",
          "name": "interfaceId",
          "type": "bytes4"
        }
      ],
      "name": "supportsInterface",
      "outputs": [
        {
          "internalType": "bool",
          "name": "",
          "type": "bool"
        }
      ],
      "stateMutability": "view",
      "type": "function"
    },
    {
      "inputs": [],
      "name": "symbol",
      "outputs": [
        {
          "internalType": "string",
          "name": "",
          "type": "string"
        }
      ],
      "stateMutability": "view",
      "type": "function"
    },
    {
      "inputs": [
        {
          "internalType": "uint256",
          "name": "index",
          "type": "uint256"
        }
      ],
      "name": "tokenByIndex",
      "outputs": [
        {
          "internalType": "uint256",
          "name": "",
          "type": "uint256"
        }
      ],
      "stateMutability": "view",
      "type": "function"
    },
    {
      "inputs": [
        {
          "internalType": "address",
          "name": "owner",
          "type": "address"
        },
        {
          "internalType": "uint256",
          "name": "index",
          "type": "uint256"
        }
      ],
      "name": "tokenOfOwnerByIndex",
      "outputs": [
        {
          "internalType": "uint256",
          "name": "",
          "type": "uint256"
        }
      ],
      "stateMutability": "view",
      "type": "function"
    },
    {
      "inputs": [
        {
          "internalType": "uint256",
          "name": "tokenId",
          "type": "uint256"
        }
      ],
      "name": "tokenURI",
      "outputs": [
        {
          "internalType": "string",
          "name": "",
          "type": "string"
        }
      ],
      "stateMutability": "view",
      "type": "function"
    },
    {
      "inputs": [
        {
          "internalType": "uint256",
          "name": "tokenId",
          "type": "uint256"
        }
      ],
      "name": "tokenURIJSON",
      "outputs": [
        {
          "internalType": "string",
          "name": "",
          "type": "string"
        }
      ],
      "stateMutability": "view",
      "type": "function"
    },
    {
      "inputs": [
        {
          "internalType": "address",
          "name": "owner",
          "type": "address"
        }
      ],
      "name": "tokensOfOwner",
      "outputs": [
        {
          "internalType": "uint256[]",
          "name": "",
          "type": "uint256[]"
        }
      ],
      "stateMutability": "view",
      "type": "function"
    },
    {
      "inputs": [],
      "name": "totalSupply",
      "outputs": [
        {
          "internalType": "uint256",
          "name": "",
          "type": "uint256"
        }
      ],
      "stateMutability": "view",
      "type": "function"
    },
    {
      "inputs": [
        {
          "internalType": "address",
          "name": "from",
          "type": "address"
        },
        {
          "internalType": "address",
          "name": "to",
          "type": "address"
        },
        {
          "internalType": "uint256",
          "name": "tokenId",
          "type": "uint256"
        }
      ],
      "name": "transferFrom",
      "outputs": [],
      "stateMutability": "nonpayable",
      "type": "function"
    },
    {
      "inputs": [],
      "name": "unpause",
      "outputs": [],
      "stateMutability": "nonpayable",
      "type": "function"
    },
    {
      "inputs": [
        {
          "internalType": "uint256",
          "name": "treeId",
          "type": "uint256"
        },
        {
          "internalType": "uint256",
          "name": "skillId",
          "type": "uint256"
        },
        {
          "internalType": "uint256[]",
          "name": "values",
          "type": "uint256[]"
        },
        {
          "internalType": "string[]",
          "name": "stringValues",
          "type": "string[]"
        }
      ],
      "name": "updateAttributeStrings",
      "outputs": [],
      "stateMutability": "nonpayable",
      "type": "function"
    },
    {
      "inputs": [
        {
          "internalType": "uint256",
          "name": "tokenId",
          "type": "uint256"
        },
        {
          "internalType": "uint256",
          "name": "treeId",
          "type": "uint256"
        },
        {
          "internalType": "uint256",
          "name": "skillId",
          "type": "uint256"
        },
        {
          "internalType": "uint256",
          "name": "value",
          "type": "uint256"
        }
      ],
      "name": "updateSkill",
      "outputs": [],
      "stateMutability": "nonpayable",
      "type": "function"
    },
    {
      "inputs": [
        {
          "internalType": "uint256",
          "name": "tokenId",
          "type": "uint256"
        },
        {
          "internalType": "uint256",
          "name": "customId",
          "type": "uint256"
        },
        {
          "internalType": "string",
          "name": "value",
          "type": "string"
        }
      ],
      "name": "updateString",
      "outputs": [],
      "stateMutability": "nonpayable",
      "type": "function"
    }
  ],
  "bytecode": "0x60806040523480156200001157600080fd5b506200001c62000022565b620000e4565b600054610100900460ff16156200008f5760405162461bcd60e51b815260206004820152602760248201527f496e697469616c697a61626c653a20636f6e747261637420697320696e697469604482015266616c697a696e6760c81b606482015260840160405180910390fd5b60005460ff9081161015620000e2576000805460ff191660ff9081179091556040519081527f7f26b83ff96e1f2b6a682f133852f6798a09c465da95921460cefb38474024989060200160405180910390a15b565b61592880620000f46000396000f3fe608060405234801561001057600080fd5b50600436106103835760003560e01c806377645839116101de578063b5afb1201161010f578063d5391393116100ad578063e985e9c51161007c578063e985e9c5146107a9578063ed0af209146107e5578063f3993d11146107f8578063fe459f5c1461080b57600080fd5b8063d53913931461075b578063d547741f14610770578063dd81714a14610783578063e2862b6b1461079657600080fd5b8063c7e05590116100e9578063c7e055901461070e578063c87b56dd14610721578063ca15c87314610734578063cd5965831461074757600080fd5b8063b5afb120146106e0578063b88d4fde146106f3578063bdbed7221461070657600080fd5b806391d148541161017c5780639b9284f9116101565780639b9284f91461069f5780639e8afe47146106b2578063a217fddf146106c5578063a22cb465146106cd57600080fd5b806391d148541461067157806394d008ef1461068457806395d89b411461069757600080fd5b80638456cb59116101b85780638456cb59146106235780638462151c1461062b5780638a79ecbd1461064b5780639010d07c1461065e57600080fd5b806377645839146106005780637efa1902146106085780638129fc1c1461061b57600080fd5b806336568abe116102b85780634f6ccce7116102565780636cfa24cc116102305780636cfa24cc146105b25780636d94f13a146105c557806370a08231146105d857806375b238fc146105eb57600080fd5b80634f6ccce7146105805780635c975abb146105935780636352211e1461059f57600080fd5b806342842e0e1161029257806342842e0e1461051457806342966c68146105275780634594762a1461053a5780634684d7e91461056d57600080fd5b806336568abe146104e65780633f4ba83a146104f957806340c10f191461050157600080fd5b806318160ddd116103255780632c303493116102ff5780632c3034931461048d5780632f2ff15d146104ad5780632f745c59146104c0578063352b7533146104d357600080fd5b806318160ddd1461044e57806323b872dd14610456578063248a9ca31461046957600080fd5b8063079be49311610361578063079be493146103e8578063081812fc146103fb578063095ea7b3146104265780630b26cf661461043b57600080fd5b806301ffc9a71461038857806303fe46ab146103b057806306fdde03146103d3575b600080fd5b61039b6103963660046144ea565b61081e565b60405190151581526020015b60405180910390f35b6103c56000805160206158d383398151915281565b6040519081526020016103a7565b6103db610849565b6040516103a79190614557565b6103db6103f636600461456a565b6108db565b61040e61040936600461458c565b61098a565b6040516001600160a01b0390911681526020016103a7565b6104396104343660046145c1565b6109b1565b005b6104396104493660046145eb565b610acb565b6099546103c5565b610439610464366004614606565b610b07565b6103c561047736600461458c565b600090815261015f602052604090206001015490565b6104a061049b36600461473e565b610b39565b6040516103a79190614772565b6104396104bb3660046147d4565b610bf1565b6103c56104ce3660046145c1565b610c17565b6104a06104e1366004614800565b610cad565b6104396104f43660046147d4565b610e0b565b610439610e89565b61043961050f3660046145c1565b610eac565b610439610522366004614606565b610ece565b61043961053536600461458c565b610ee9565b6103c5610548366004614844565b600092835261025b602090815260408085209385529281528284209184525290205490565b61043961057b366004614870565b610ef2565b6103c561058e36600461458c565b610f51565b61012d5460ff1661039b565b61040e6105ad36600461458c565b610fe4565b6104396105c036600461492c565b611044565b6104a06105d336600461473e565b611065565b6103c56105e63660046145eb565b611116565b6103c56000805160206158b383398151915281565b6103db61119c565b610439610616366004614960565b61122a565b610439611308565b6104396114c2565b61063e6106393660046145eb565b6114e2565b6040516103a79190614a47565b610439610659366004614a5a565b61157b565b61040e61066c36600461456a565b611686565b61039b61067f3660046147d4565b6116a6565b610439610692366004614b2b565b6116d2565b6103db611852565b6103db6106ad36600461458c565b611861565b6104a06106c0366004614b77565b6119ce565b6103c5600081565b6104396106db366004614ba7565b611b24565b6104396106ee366004614be3565b611b2f565b610439610701366004614c15565b611bb4565b61063e611be6565b61063e61071c366004614c70565b611cd0565b6103db61072f36600461458c565b611da5565b6103c561074236600461458c565b611db8565b61025e5461040e906001600160a01b031681565b6103c560008051602061589383398151915281565b61043961077e3660046147d4565b611dd0565b610439610791366004614cb5565b611df6565b6104396107a4366004614d9d565b611ea2565b61039b6107b7366004614dd8565b6001600160a01b039182166000908152606a6020908152604080832093909416825291909152205460ff1690565b6104396107f3366004614e02565b611f46565b610439610806366004614e3b565b611fc3565b6103db61081936600461458c565b612005565b60006001600160e01b0319821663808d85fd60e01b1480610843575061084382612909565b92915050565b60606065805461085890614e82565b80601f016020809104026020016040519081016040528092919081815260200182805461088490614e82565b80156108d15780601f106108a6576101008083540402835291602001916108d1565b820191906000526020600020905b8154815290600101906020018083116108b457829003601f168201915b5050505050905090565b600082815261025c60209081526040808320848452909152902080546060919061090490614e82565b80601f016020809104026020016040519081016040528092919081815260200182805461093090614e82565b801561097d5780601f106109525761010080835404028352916020019161097d565b820191906000526020600020905b81548152906001019060200180831161096057829003601f168201915b5050505050905092915050565b600061099582612914565b506000908152606960205260409020546001600160a01b031690565b60006109bc82610fe4565b9050806001600160a01b0316836001600160a01b031603610a2e5760405162461bcd60e51b815260206004820152602160248201527f4552433732313a20617070726f76616c20746f2063757272656e74206f776e656044820152603960f91b60648201526084015b60405180910390fd5b336001600160a01b0382161480610a4a5750610a4a81336107b7565b610abc5760405162461bcd60e51b815260206004820152603d60248201527f4552433732313a20617070726f76652063616c6c6572206973206e6f7420746f60448201527f6b656e206f776e6572206f7220617070726f76656420666f7220616c6c0000006064820152608401610a25565b610ac68383612964565b505050565b6000805160206158b3833981519152610ae3816129d2565b5061025e80546001600160a01b0319166001600160a01b0392909216919091179055565b610b12335b826129dc565b610b2e5760405162461bcd60e51b8152600401610a2590614ebc565b610ac6838383612a5b565b6060600082516001600160401b03811115610b5657610b56614642565b604051908082528060200260200182016040528015610b8957816020015b6060815260200190600190039081610b745790505b50905060005b8351811015610bea57610bba848281518110610bad57610bad614f09565b6020026020010151612005565b828281518110610bcc57610bcc614f09565b60200260200101819052508080610be290614f35565b915050610b8f565b5092915050565b600082815261015f6020526040902060010154610c0d816129d2565b610ac68383612bcc565b6000610c2283611116565b8210610c845760405162461bcd60e51b815260206004820152602b60248201527f455243373231456e756d657261626c653a206f776e657220696e646578206f7560448201526a74206f6620626f756e647360a81b6064820152608401610a25565b506001600160a01b03919091166000908152609760209081526040808320938352929052205490565b6060600083516001600160401b03811115610cca57610cca614642565b604051908082528060200260200182016040528015610cfd57816020015b6060815260200190600190039081610ce85790505b50905060005b8451811015610e035761025c6000868381518110610d2357610d23614f09565b6020026020010151815260200190815260200160002060008581526020019081526020016000208054610d5590614e82565b80601f0160208091040260200160405190810160405280929190818152602001828054610d8190614e82565b8015610dce5780601f10610da357610100808354040283529160200191610dce565b820191906000526020600020905b815481529060010190602001808311610db157829003601f168201915b5050505050828281518110610de557610de5614f09565b60200260200101819052508080610dfb90614f35565b915050610d03565b509392505050565b6001600160a01b0381163314610e7b5760405162461bcd60e51b815260206004820152602f60248201527f416363657373436f6e74726f6c3a2063616e206f6e6c792072656e6f756e636560448201526e103937b632b9903337b91039b2b63360891b6064820152608401610a25565b610e858282612bef565b5050565b6000805160206158b3833981519152610ea1816129d2565b610ea9612c12565b50565b600080516020615893833981519152610ec4816129d2565b610ac68383612c65565b610ac683838360405180602001604052806000815250611bb4565b610ea981612c7f565b600080516020615893833981519152610f0a816129d2565b60005b8251811015610f4b57610f3984848381518110610f2c57610f2c614f09565b6020026020010151612c65565b80610f4381614f35565b915050610f0d565b50505050565b6000610f5c60995490565b8210610fbf5760405162461bcd60e51b815260206004820152602c60248201527f455243373231456e756d657261626c653a20676c6f62616c20696e646578206f60448201526b7574206f6620626f756e647360a01b6064820152608401610a25565b60998281548110610fd257610fd2614f09565b90600052602060002001549050919050565b6000818152606760205260408120546001600160a01b0316806108435760405162461bcd60e51b8152602060048201526018602482015277115490cdcc8c4e881a5b9d985b1a59081d1bdad95b88125160421b6044820152606401610a25565b6000805160206158b383398151915261105c816129d2565b610e8582612d01565b6060600082516001600160401b0381111561108257611082614642565b6040519080825280602002602001820160405280156110b557816020015b60608152602001906001900390816110a05790505b50905060005b8351811015610bea576110e68482815181106110d9576110d9614f09565b6020026020010151611da5565b8282815181106110f8576110f8614f09565b6020026020010181905250808061110e90614f35565b9150506110bb565b60006001600160a01b0382166111805760405162461bcd60e51b815260206004820152602960248201527f4552433732313a2061646472657373207a65726f206973206e6f7420612076616044820152683634b21037bbb732b960b91b6064820152608401610a25565b506001600160a01b031660009081526068602052604090205490565b60fc80546111a990614e82565b80601f01602080910402602001604051908101604052809291908181526020018280546111d590614e82565b80156112225780601f106111f757610100808354040283529160200191611222565b820191906000526020600020905b81548152906001019060200180831161120557829003601f168201915b505050505081565b6000805160206158d3833981519152611242816129d2565b60005b85518110156113005782818151811061126057611260614f09565b602002602001015161025b600088848151811061127f5761127f614f09565b6020026020010151815260200190815260200160002060008784815181106112a9576112a9614f09565b6020026020010151815260200190815260200160002060008684815181106112d3576112d3614f09565b602002602001015181526020019081526020016000208190555080806112f890614f35565b915050611245565b505050505050565b600054610100900460ff16158080156113285750600054600160ff909116105b806113425750303b158015611342575060005460ff166001145b6113a55760405162461bcd60e51b815260206004820152602e60248201527f496e697469616c697a61626c653a20636f6e747261637420697320616c72656160448201526d191e481a5b9a5d1a585b1a5e995960921b6064820152608401610a25565b6000805460ff1916600117905580156113c8576000805461ff0019166101001790555b6114176040518060400160405280600e81526020016d436f736d69632057697a6172647360901b8152506040518060400160405280600781526020016657495a4152445360c81b815250612d0d565b61141f612d3e565b611427612d6f565b61142f612d96565b611437612d6f565b61143f612d3e565b61144a600033612bcc565b6114626000805160206158b383398151915233612bcc565b61147a60008051602061589383398151915233612bcc565b8015610ea9576000805461ff0019169055604051600181527f7f26b83ff96e1f2b6a682f133852f6798a09c465da95921460cefb38474024989060200160405180910390a150565b6000805160206158b38339815191526114da816129d2565b610ea9612dc5565b606060006114ef83611116565b90506000816001600160401b0381111561150b5761150b614642565b604051908082528060200260200182016040528015611534578160200160208202803683370190505b50905060005b82811015610e035761154c8582610c17565b82828151811061155e5761155e614f09565b60209081029190910101528061157381614f35565b91505061153a565b6000805160206158b3833981519152611593816129d2565b60008351116115db5760405162461bcd60e51b81526020600482015260146024820152734163636f756e747320617272617920656d70747960601b6044820152606401610a25565b81518351146116245760405162461bcd60e51b8152602060048201526015602482015274082e4e4c2f240d8cadccee8d040dad2e6dac2e8c6d605b1b6044820152606401610a25565b60005b835181101561167f5761166d8585838151811061164657611646614f09565b602002602001015185848151811061166057611660614f09565b6020026020010151612a5b565b8061167781614f35565b915050611627565b5050505050565b60008281526101916020526040812061169f9083612e03565b9392505050565b600091825261015f602090815260408084206001600160a01b0393909316845291905290205460ff1690565b6000805160206158938339815191526116ea816129d2565b6000828060200190518101906117009190614fa9565b60408051600b8082526101808201909252919250600091906020820161016080368337505060408051600c8082526101a0820190925292935060009291506020820161018080368337505060408051600180825281830190925292935060009291506020808301908036833701905050905060005b600c811015611801578083828151811061179157611791614f09565b602002602001018181525050600b8110156117c657808482815181106117b9576117b9614f09565b6020026020010181815250505b60018110156117ef57808282815181106117e2576117e2614f09565b6020026020010181815250505b806117f981614f35565b915050611775565b5061180c8888612c65565b61181d876000858760000151611ea2565b61182e876001848760200151611ea2565b61183f876002838760400151611ea2565b61184887612e0f565b5050505050505050565b60606066805461085890614e82565b60408051600b8082526101808201909252606091600091906020820161016080368337505060408051600c8082526101a0820190925292935060009291506020820161018080368337505060408051600180825281830190925292935060009291506020808301908036833701905050905060005b600c81101561196257808382815181106118f2576118f2614f09565b602002602001018181525050600b811015611927578084828151811061191a5761191a614f09565b6020026020010181815250505b6001811015611950578082828151811061194357611943614f09565b6020026020010181815250505b8061195a81614f35565b9150506118d6565b506000604051806060016040528061197c88600088611cd0565b815260200161198d88600187611cd0565b815260200161199e88600286611cd0565b8152509050806040516020016119b4919061505d565b604051602081830303815290604052945050505050919050565b6060600082516001600160401b038111156119eb576119eb614642565b604051908082528060200260200182016040528015611a1e57816020015b6060815260200190600190039081611a095790505b50905060005b8351811015610e035761025c60008681526020019081526020016000206000858381518110611a5557611a55614f09565b602002602001015181526020019081526020016000208054611a7690614e82565b80601f0160208091040260200160405190810160405280929190818152602001828054611aa290614e82565b8015611aef5780601f10611ac457610100808354040283529160200191611aef565b820191906000526020600020905b815481529060010190602001808311611ad257829003601f168201915b5050505050828281518110611b0657611b06614f09565b60200260200101819052508080611b1c90614f35565b915050611a24565b610e85338383612e1b565b6000805160206158d3833981519152611b47816129d2565b600085815261025b602090815260408083208784528252808320868452825291829020849055815186815290810185905290810183905285907fc3bdb5f4a3cbb68ce4ebe3dda3660f3067add044dc5be3a047d818fd416663699060600160405180910390a25050505050565b611bbe33836129dc565b611bda5760405162461bcd60e51b8152600401610a2590614ebc565b610f4b84848484612ee9565b6060600060015b612710811015611c2557611c0081612f1c565b15611c135781611c0f81614f35565b9250505b80611c1d81614f35565b915050611bed565b506000816001600160401b03811115611c4057611c40614642565b604051908082528060200260200182016040528015611c69578160200160208202803683370190505b509050600060015b612710811015611cc757611c8481612f1c565b15611cb55780838381518110611c9c57611c9c614f09565b602090810291909101015281611cb181614f35565b9250505b80611cbf81614f35565b915050611c71565b50909392505050565b6060600082516001600160401b03811115611ced57611ced614642565b604051908082528060200260200182016040528015611d16578160200160208202803683370190505b50905060005b8351811015611d9c57600086815261025b6020908152604080832088845290915281208551909190869084908110611d5657611d56614f09565b6020026020010151815260200190815260200160002054828281518110611d7f57611d7f614f09565b602090810291909101015280611d9481614f35565b915050611d1c565b50949350505050565b6060610843611db383612005565b612f27565b60008181526101916020526040812061084390612f58565b600082815261015f6020526040902060010154611dec816129d2565b610ac68383612bef565b6000805160206158b3833981519152611e0e816129d2565b60005b835181101561130057828181518110611e2c57611e2c614f09565b602002602001015161025d600088815260200190815260200160002060008781526020019081526020016000206000868481518110611e6d57611e6d614f09565b602002602001015181526020019081526020016000209081611e8f9190615104565b5080611e9a81614f35565b915050611e11565b6000805160206158d3833981519152611eba816129d2565b60005b835181101561130057828181518110611ed857611ed8614f09565b602002602001015161025b600088815260200190815260200160002060008781526020019081526020016000206000868481518110611f1957611f19614f09565b60200260200101518152602001908152602001600020819055508080611f3e90614f35565b915050611ebd565b6000805160206158d3833981519152611f5e816129d2565b600084815261025c602090815260408083208684529091529020611f828382615104565b50837fbf91c112c44cd8e958afe3106b290f594b5e23b83fcc88bdb9ac5da7f00be5698484604051611fb59291906151c3565b60405180910390a250505050565b60005b8151811015610f4b57611ff38484848481518110611fe657611fe6614f09565b6020026020010151610b07565b80611ffd81614f35565b915050611fc6565b600081815261025b6020908152604080832083805282528083209091528120546060918115612052576040518060400160405280600681526020016546656d616c6560d01b815250612070565b604051806040016040528060048152602001634d616c6560e01b8152505b905060008161207e86612f62565b60405160200161208f9291906151f8565b60408051808303601f1901815260188084526103208401909252925060009190816020015b6120e160405180608001604052806060815260200160608152602001606081526020016000151581525090565b8152602001906001900390816120b45750506040805160c0810182526006608082019081526523b2b73232b960d11b60a083015281528151602081810184526000808352908301919091529181018690526060810182905282519293509183919061214e5761214e614f09565b6020908102919091018101919091526040805161014081018252600a610100820190815269109858dad9dc9bdd5b9960b21b6101208301528152815180830183526004808252632430b4b960e11b828601528285019190915282518084018452600381526212185d60ea1b818601528284015282518084018452818152634579657360e01b81860152606083015282518084018452818152634261736560e01b8186015260808301528251808401845260058082526429ba30b33360d91b8287015260a08401919091528351808501855291825263526f626560e01b8286015260c0830191909152825180840190935282526409adeeae8d60db1b9282019290925260e082015260015b60098110156123d65760405180608001604052808360018461227a919061524f565b6008811061228a5761228a614f09565b6020020151815260200160405180602001604052806000815250815260200161025d60008081526020019081526020016000206000896000146122d7576122d285600a615262565b6122d9565b845b8152602080820192909252604090810160009081208d825261025b8452828220828052845282822087835284528282205482529092529020805461231c90614e82565b80601f016020809104026020016040519081016040528092919081815260200182805461234890614e82565b80156123955780601f1061236a57610100808354040283529160200191612395565b820191906000526020600020905b81548152906001019060200180831161237857829003601f168201915b50505050508152602001600015158152508382815181106123b8576123b8614f09565b602002602001018190525080806123ce90614f35565b915050612258565b506040805160c0810182526010608082019081526f14dd185ada5b99c8155b9b1bd8dad95960821b60a083015281528151602081810184526000808352818401929092528a825261025b815283822082805281528382206009835290528290205490918201901561246357604051806040016040528060048152602001635472756560e01b815250612482565b6040518060400160405280600581526020016446616c736560d81b8152505b815260200160001515815250826009815181106124a1576124a1614f09565b6020908102919091018101919091526040805160c0810182526006608082019081526514dd185ad95960d21b60a08301528152815180840183526000808252828501919091528a815261025b84528281208180528452828120600a82529093529181902054908201901561253157604051806040016040528060048152602001635472756560e01b815250612550565b6040518060400160405280600581526020016446616c736560d81b8152505b81526020016000151581525082600a8151811061256f5761256f614f09565b602090810291909101810191909152604080516101c0810182526007610180820181815266416c6368656d7960c81b6101a0840152825282518084018452600c81526b41726368697465637475726560a01b81860152828501528251808401845260098082526843617270656e74727960b81b82870152838501919091528351808501855282815266436f6f6b696e6760c81b81870152606084015283518085018552601281527121b93cb9ba30b61022bc3a3930b1ba34b7b760711b81870152608084015283518085018552828152664661726d696e6760c81b8187015260a0840152835180850185529182526646697368696e6760c81b8286015260c083019190915282518084018452600b8082526a47656d2043757474696e6760a81b8287015260e0840191909152835180850185528281526848657262616c69736d60b81b818701526101008401528351808501855260068152654d696e696e6760d01b8187015261012084015283518085018552918252685461696c6f72696e6760b81b82860152610140830191909152825180840190935282526a576f6f6463757474696e6760a81b9282019290925261016082015260005b600c8110156127de5760405180608001604052808383600c811061274e5761274e614f09565b6020908102919091015182526040805180830182526000808252848401919091528d815261025b8352818120600182528352818120868252909252908190205491019061279a90612f62565b81526001602090910152846127b083600b615262565b815181106127c0576127c0614f09565b602002602001018190525080806127d690614f35565b915050612728565b506040805160c081018252600e608082019081526d10da195cdd1cc810db185a5b595960921b60a0830152815281518083018352600c81526b3137b7b9ba2fb73ab6b132b960a11b6020828101919091528083019190915260008b815261025b825283812060028252825283812081805290915282902054909182019061286490612f62565b8152602001600115158152508360178151811061288357612883614f09565b6020026020010181905250600060fc61289b8a612f62565b6040516020016128ac929190615275565b60405160208183030381529060405290506128fc896128ca8b610fe4565b87846040518060400160405280600f81526020016e104810dbdcdb5a58c815da5e985c99608a1b81525060028a612ff4565b9998505050505050505050565b600061084382613040565b61291d81612f1c565b610ea95760405162461bcd60e51b8152602060048201526018602482015277115490cdcc8c4e881a5b9d985b1a59081d1bdad95b88125160421b6044820152606401610a25565b600081815260696020526040902080546001600160a01b0319166001600160a01b038416908117909155819061299982610fe4565b6001600160a01b03167f8c5be1e5ebec7d5bd14f71427d1e84f3dd0314c0f7b2291e5b200ac8c7c3b92560405160405180910390a45050565b610ea98133613065565b6000806129e883610fe4565b9050806001600160a01b0316846001600160a01b03161480612a2f57506001600160a01b038082166000908152606a602090815260408083209388168352929052205460ff165b80612a535750836001600160a01b0316612a488461098a565b6001600160a01b0316145b949350505050565b826001600160a01b0316612a6e82610fe4565b6001600160a01b031614612a945760405162461bcd60e51b8152600401610a25906152fc565b6001600160a01b038216612af65760405162461bcd60e51b8152602060048201526024808201527f4552433732313a207472616e7366657220746f20746865207a65726f206164646044820152637265737360e01b6064820152608401610a25565b612b0383838360016130be565b826001600160a01b0316612b1682610fe4565b6001600160a01b031614612b3c5760405162461bcd60e51b8152600401610a25906152fc565b600081815260696020908152604080832080546001600160a01b03199081169091556001600160a01b0387811680865260688552838620805460001901905590871680865283862080546001019055868652606790945282852080549092168417909155905184937fddf252ad1be2c89b69c2b068fc378daa952ba7f163c4a11628f55a4df523b3ef91a4505050565b612bd68282613219565b600082815261019160205260409020610ac690826132a0565b612bf982826132b5565b600082815261019160205260409020610ac6908261331d565b612c1a613332565b61012d805460ff191690557f5db9ee0a495bf2e6ff9c91a7834c1ba4fdd244a5e8aa4e537bd38aeae4b073aa335b6040516001600160a01b03909116815260200160405180910390a1565b610e8582826040518060200160405280600081525061337c565b612c8833610b0c565b612ceb5760405162461bcd60e51b815260206004820152602e60248201527f4552433732313a2063616c6c6572206973206e6f7420746f6b656e206f776e6560448201526d1c881b9bdc88185c1c1c9bdd995960921b6064820152608401610a25565b612cf76101f5826133af565b50610ea9816133bb565b60fc610e858282615104565b600054610100900460ff16612d345760405162461bcd60e51b8152600401610a2590615341565b610e8582826133fb565b600054610100900460ff16612d655760405162461bcd60e51b8152600401610a2590615341565b612d6d612d6f565b565b600054610100900460ff16612d6d5760405162461bcd60e51b8152600401610a2590615341565b600054610100900460ff16612dbd5760405162461bcd60e51b8152600401610a2590615341565b612d6d61343b565b612dcd61346f565b61012d805460ff191660011790557f62e78cea01bee320cd4e420270b5ea74000d11b0c9f74754ebdbfc544b05a258612c483390565b600061169f83836134b6565b610e856101f5826134e0565b816001600160a01b0316836001600160a01b031603612e7c5760405162461bcd60e51b815260206004820152601960248201527f4552433732313a20617070726f766520746f2063616c6c6572000000000000006044820152606401610a25565b6001600160a01b038381166000818152606a6020908152604080832094871680845294825291829020805460ff191686151590811790915591519182527f17307eab39ab6107e8899845ad3d59bd9653f200f220920489ca2b5937696c31910160405180910390a3505050565b612ef4848484612a5b565b612f00848484846134ec565b610f4b5760405162461bcd60e51b8152600401610a259061538c565b6000610843826135ed565b6060612f328261360c565b604051602001612f4291906153de565b6040516020818303038152906040529050919050565b6000610843825490565b60606000612f6f8361375e565b60010190506000816001600160401b03811115612f8e57612f8e614642565b6040519080825280601f01601f191660200182016040528015612fb8576020820181803683370190505b5090508181016020015b600019016f181899199a1a9b1b9c1cb0b131b232b360811b600a86061a8153600a8504945084612fc257509392505050565b60606000613006898989898989613836565b905080613012846138a0565b604051602001613023929190615423565b604051602081830303815290604052915050979650505050505050565b60006001600160e01b03198216635a05180f60e01b1480610843575061084382613aab565b61306f82826116a6565b610e855761307c81613ad0565b613087836020613ae2565b604051602001613098929190615470565b60408051601f198184030181529082905262461bcd60e51b8252610a2591600401614557565b6130c661346f565b836130d361025982613c7d565b156131165760405162461bcd60e51b8152602060048201526013602482015272426c61636b6c6973746564206164647265737360681b6044820152606401610a25565b8361312361025982613c7d565b156131665760405162461bcd60e51b8152602060048201526013602482015272426c61636b6c6973746564206164647265737360681b6044820152606401610a25565b600084815261025b602090815260408083208380528252808320600a8452909152902054849015806131c5575061319c81610fe4565b6001600160a01b03167371e9e186dcfb6fd1ba018df46d21e7aa10969ad16001600160a01b0316145b6132045760405162461bcd60e51b815260206004820152601060248201526f15da5e985c99081a5cc81cdd185ad95960821b6044820152606401610a25565b61321087878787613c9f565b50505050505050565b61322382826116a6565b610e8557600082815261015f602090815260408083206001600160a01b03851684529091529020805460ff1916600117905561325c3390565b6001600160a01b0316816001600160a01b0316837f2f8788117e7eff1d82e926ec794901d17c78024a50270940304540a733656f0d60405160405180910390a45050565b600061169f836001600160a01b038416613cab565b6132bf82826116a6565b15610e8557600082815261015f602090815260408083206001600160a01b0385168085529252808320805460ff1916905551339285917ff6391f5c32d9c69d2a47ea670b442974b53935d1edc7fd64eb21e047a839171b9190a45050565b600061169f836001600160a01b038416613cfa565b61012d5460ff16612d6d5760405162461bcd60e51b815260206004820152601460248201527314185d5cd8589b194e881b9bdd081c185d5cd95960621b6044820152606401610a25565b6133868383613ded565b61339360008484846134ec565b610ac65760405162461bcd60e51b8152600401610a259061538c565b600061169f8383613cab565b6133c481613f68565b600081815260fb6020526040902080546133dd90614e82565b159050610ea957600081815260fb60205260408120610ea991614486565b600054610100900460ff166134225760405162461bcd60e51b8152600401610a2590615341565b606561342e8382615104565b506066610ac68282615104565b600054610100900460ff166134625760405162461bcd60e51b8152600401610a2590615341565b61012d805460ff19169055565b61012d5460ff1615612d6d5760405162461bcd60e51b815260206004820152601060248201526f14185d5cd8589b194e881c185d5cd95960821b6044820152606401610a25565b60008260000182815481106134cd576134cd614f09565b9060005260206000200154905092915050565b600061169f8383613cfa565b60006001600160a01b0384163b156135e257604051630a85bd0160e11b81526001600160a01b0385169063150b7a02906135309033908990889088906004016154e5565b6020604051808303816000875af192505050801561356b575060408051601f3d908101601f1916820190925261356891810190615522565b60015b6135c8573d808015613599576040519150601f19603f3d011682016040523d82523d6000602084013e61359e565b606091505b5080516000036135c05760405162461bcd60e51b8152600401610a259061538c565b805181602001fd5b6001600160e01b031916630a85bd0160e11b149050612a53565b506001949350505050565b6000818152606760205260408120546001600160a01b03161515610843565b6060815160000361362b57505060408051602081019091526000815290565b6000604051806060016040528060408152602001615853604091399050600060038451600261365a9190615262565b613664919061553f565b61366f906004615561565b6001600160401b0381111561368657613686614642565b6040519080825280601f01601f1916602001820160405280156136b0576020820181803683370190505b509050600182016020820185865187015b8082101561371c576003820191508151603f8160121c168501518453600184019350603f81600c1c168501518453600184019350603f8160061c168501518453600184019350603f81168501518453506001830192506136c1565b5050600386510660018114613738576002811461374b57613753565b603d6001830353603d6002830353613753565b603d60018303535b509195945050505050565b60008072184f03e93ff9f4daa797ed6e38ed64bf6a1f0160401b831061379d5772184f03e93ff9f4daa797ed6e38ed64bf6a1f0160401b830492506040015b6d04ee2d6d415b85acef810000000083106137c9576d04ee2d6d415b85acef8100000000830492506020015b662386f26fc1000083106137e757662386f26fc10000830492506010015b6305f5e10083106137ff576305f5e100830492506008015b612710831061381357612710830492506004015b60648310613825576064830492506002015b600a83106108435760010192915050565b60608461384288612f62565b84866138568a6001600160a01b0316613ad0565b61387087600281111561386b5761386b615578565b61400b565b6040516020016138859695949392919061558e565b60405160208183030381529060405290509695505050505050565b60408051602081019091526000808252606091905b8351811015613a82576000600185516138ce919061524f565b82146138f357604051806040016040528060018152602001600b60fa1b815250613904565b604051806020016040528060008152505b9050600085838151811061391a5761391a614f09565b60200260200101516060015161394957604051806040016040528060018152602001601160f91b81525061395a565b604051806020016040528060008152505b905060008187858151811061397157613971614f09565b60200260200101516040015183604051602001613990939291906156a0565b604051602081830303815290604052905060008785815181106139b5576139b5614f09565b60200260200101516020015151600014613a0b578785815181106139db576139db614f09565b6020026020010151602001516040516020016139f791906156e3565b604051602081830303815290604052613a1c565b604051806020016040528060008152505b9050600086898781518110613a3357613a33614f09565b602002602001015160000151838588604051602001613a56959493929190615728565b604051602081830303815290604052905080965050505050508080613a7a90614f35565b9150506138b5565b5080604051602001613a9491906157e3565b604051602081830303815290604052915050919050565b60006001600160e01b03198216637965db0b60e01b14806108435750610843826140a9565b60606108436001600160a01b03831660145b60606000613af1836002615561565b613afc906002615262565b6001600160401b03811115613b1357613b13614642565b6040519080825280601f01601f191660200182016040528015613b3d576020820181803683370190505b509050600360fc1b81600081518110613b5857613b58614f09565b60200101906001600160f81b031916908160001a905350600f60fb1b81600181518110613b8757613b87614f09565b60200101906001600160f81b031916908160001a9053506000613bab846002615561565b613bb6906001615262565b90505b6001811115613c2e576f181899199a1a9b1b9c1cb0b131b232b360811b85600f1660108110613bea57613bea614f09565b1a60f81b828281518110613c0057613c00614f09565b60200101906001600160f81b031916908160001a90535060049490941c93613c2781615825565b9050613bb9565b50831561169f5760405162461bcd60e51b815260206004820181905260248201527f537472696e67733a20686578206c656e67746820696e73756666696369656e746044820152606401610a25565b6001600160a01b0381166000908152600183016020526040812054151561169f565b610f4b848484846140b4565b6000818152600183016020526040812054613cf257508154600181810184556000848152602080822090930184905584548482528286019093526040902091909155610843565b506000610843565b60008181526001830160205260408120548015613de3576000613d1e60018361524f565b8554909150600090613d329060019061524f565b9050818114613d97576000866000018281548110613d5257613d52614f09565b9060005260206000200154905080876000018481548110613d7557613d75614f09565b6000918252602080832090910192909255918252600188019052604090208390555b8554869080613da857613da861583c565b600190038181906000526020600020016000905590558560010160008681526020019081526020016000206000905560019350505050610843565b6000915050610843565b6001600160a01b038216613e435760405162461bcd60e51b815260206004820181905260248201527f4552433732313a206d696e7420746f20746865207a65726f20616464726573736044820152606401610a25565b613e4c81612f1c565b15613e995760405162461bcd60e51b815260206004820152601c60248201527f4552433732313a20746f6b656e20616c7265616479206d696e746564000000006044820152606401610a25565b613ea76000838360016130be565b613eb081612f1c565b15613efd5760405162461bcd60e51b815260206004820152601c60248201527f4552433732313a20746f6b656e20616c7265616479206d696e746564000000006044820152606401610a25565b6001600160a01b038216600081815260686020908152604080832080546001019055848352606790915280822080546001600160a01b0319168417905551839291907fddf252ad1be2c89b69c2b068fc378daa952ba7f163c4a11628f55a4df523b3ef908290a45050565b6000613f7382610fe4565b9050613f838160008460016130be565b613f8c82610fe4565b600083815260696020908152604080832080546001600160a01b03199081169091556001600160a01b0385168085526068845282852080546000190190558785526067909352818420805490911690555192935084927fddf252ad1be2c89b69c2b068fc378daa952ba7f163c4a11628f55a4df523b3ef908390a45050565b6060600282600281111561402157614021615578565b1461408757600182600281111561403a5761403a615578565b146140625760405180604001604052806005815260200164045524332360dc1b815250610843565b604051806040016040528060078152602001664552433131353560c81b815250610843565b505060408051808201909152600681526545524337323160d01b602082015290565b6000610843826140c0565b610f4b848484846140e5565b60006001600160e01b0319821663780e9d6360e01b148061084357506108438261421e565b6140f18484848461426e565b60018111156141605760405162461bcd60e51b815260206004820152603560248201527f455243373231456e756d657261626c653a20636f6e7365637574697665207472604482015274185b9cd9995c9cc81b9bdd081cdd5c1c1bdc9d1959605a1b6064820152608401610a25565b816001600160a01b0385166141bc576141b781609980546000838152609a60205260408120829055600182018355919091527f72a152ddfb8e864297c917af52ea6c1c68aead0fee1a62673fcc7e0c94979d000155565b6141df565b836001600160a01b0316856001600160a01b0316146141df576141df85826142f6565b6001600160a01b0384166141fb576141f681614393565b61167f565b846001600160a01b0316846001600160a01b03161461167f5761167f8482614442565b60006001600160e01b031982166380ac58cd60e01b148061424f57506001600160e01b03198216635b5e139f60e01b145b8061084357506301ffc9a760e01b6001600160e01b0319831614610843565b6001811115610f4b576001600160a01b038416156142b4576001600160a01b038416600090815260686020526040812080548392906142ae90849061524f565b90915550505b6001600160a01b03831615610f4b576001600160a01b038316600090815260686020526040812080548392906142eb908490615262565b909155505050505050565b6000600161430384611116565b61430d919061524f565b600083815260986020526040902054909150808214614360576001600160a01b03841660009081526097602090815260408083208584528252808320548484528184208190558352609890915290208190555b5060009182526098602090815260408084208490556001600160a01b039094168352609781528383209183525290812055565b6099546000906143a59060019061524f565b6000838152609a6020526040812054609980549394509092849081106143cd576143cd614f09565b9060005260206000200154905080609983815481106143ee576143ee614f09565b6000918252602080832090910192909255828152609a909152604080822084905585825281205560998054806144265761442661583c565b6001900381819060005260206000200160009055905550505050565b600061444d83611116565b6001600160a01b039093166000908152609760209081526040808320868452825280832085905593825260989052919091209190915550565b50805461449290614e82565b6000825580601f106144a2575050565b601f016020900490600052602060002090810190610ea991905b808211156144d057600081556001016144bc565b5090565b6001600160e01b031981168114610ea957600080fd5b6000602082840312156144fc57600080fd5b813561169f816144d4565b60005b8381101561452257818101518382015260200161450a565b50506000910152565b60008151808452614543816020860160208601614507565b601f01601f19169290920160200192915050565b60208152600061169f602083018461452b565b6000806040838503121561457d57600080fd5b50508035926020909101359150565b60006020828403121561459e57600080fd5b5035919050565b80356001600160a01b03811681146145bc57600080fd5b919050565b600080604083850312156145d457600080fd5b6145dd836145a5565b946020939093013593505050565b6000602082840312156145fd57600080fd5b61169f826145a5565b60008060006060848603121561461b57600080fd5b614624846145a5565b9250614632602085016145a5565b9150604084013590509250925092565b634e487b7160e01b600052604160045260246000fd5b604051606081016001600160401b038111828210171561467a5761467a614642565b60405290565b604051601f8201601f191681016001600160401b03811182821017156146a8576146a8614642565b604052919050565b60006001600160401b038211156146c9576146c9614642565b5060051b60200190565b600082601f8301126146e457600080fd5b813560206146f96146f4836146b0565b614680565b82815260059290921b8401810191818101908684111561471857600080fd5b8286015b84811015614733578035835291830191830161471c565b509695505050505050565b60006020828403121561475057600080fd5b81356001600160401b0381111561476657600080fd5b612a53848285016146d3565b6000602080830181845280855180835260408601915060408160051b870101925083870160005b828110156147c757603f198886030184526147b585835161452b565b94509285019290850190600101614799565b5092979650505050505050565b600080604083850312156147e757600080fd5b823591506147f7602084016145a5565b90509250929050565b6000806040838503121561481357600080fd5b82356001600160401b0381111561482957600080fd5b614835858286016146d3565b95602094909401359450505050565b60008060006060848603121561485957600080fd5b505081359360208301359350604090920135919050565b6000806040838503121561488357600080fd5b61488c836145a5565b915060208301356001600160401b038111156148a757600080fd5b6148b3858286016146d3565b9150509250929050565b600082601f8301126148ce57600080fd5b81356001600160401b038111156148e7576148e7614642565b6148fa601f8201601f1916602001614680565b81815284602083860101111561490f57600080fd5b816020850160208301376000918101602001919091529392505050565b60006020828403121561493e57600080fd5b81356001600160401b0381111561495457600080fd5b612a53848285016148bd565b6000806000806080858703121561497657600080fd5b84356001600160401b038082111561498d57600080fd5b614999888389016146d3565b955060208701359150808211156149af57600080fd5b6149bb888389016146d3565b945060408701359150808211156149d157600080fd5b6149dd888389016146d3565b935060608701359150808211156149f357600080fd5b50614a00878288016146d3565b91505092959194509250565b600081518084526020808501945080840160005b83811015614a3c57815187529582019590820190600101614a20565b509495945050505050565b60208152600061169f6020830184614a0c565b600080600060608486031215614a6f57600080fd5b614a78846145a5565b92506020808501356001600160401b0380821115614a9557600080fd5b818701915087601f830112614aa957600080fd5b8135614ab76146f4826146b0565b81815260059190911b8301840190848101908a831115614ad657600080fd5b938501935b82851015614afb57614aec856145a5565b82529385019390850190614adb565b965050506040870135925080831115614b1357600080fd5b5050614b21868287016146d3565b9150509250925092565b600080600060608486031215614b4057600080fd5b614b49846145a5565b92506020840135915060408401356001600160401b03811115614b6b57600080fd5b614b21868287016148bd565b60008060408385031215614b8a57600080fd5b8235915060208301356001600160401b038111156148a757600080fd5b60008060408385031215614bba57600080fd5b614bc3836145a5565b915060208301358015158114614bd857600080fd5b809150509250929050565b60008060008060808587031215614bf957600080fd5b5050823594602084013594506040840135936060013592509050565b60008060008060808587031215614c2b57600080fd5b614c34856145a5565b9350614c42602086016145a5565b92506040850135915060608501356001600160401b03811115614c6457600080fd5b614a00878288016148bd565b600080600060608486031215614c8557600080fd5b833592506020840135915060408401356001600160401b03811115614ca957600080fd5b614b21868287016146d3565b60008060008060808587031215614ccb57600080fd5b84359350602080860135935060408601356001600160401b0380821115614cf157600080fd5b614cfd89838a016146d3565b94506060880135915080821115614d1357600080fd5b818801915088601f830112614d2757600080fd5b8135614d356146f4826146b0565b81815260059190911b8301840190848101908b831115614d5457600080fd5b8585015b83811015614d8c57803585811115614d705760008081fd5b614d7e8e89838a01016148bd565b845250918601918601614d58565b50989b979a50959850505050505050565b60008060008060808587031215614db357600080fd5b843593506020850135925060408501356001600160401b03808211156149d157600080fd5b60008060408385031215614deb57600080fd5b614df4836145a5565b91506147f7602084016145a5565b600080600060608486031215614e1757600080fd5b833592506020840135915060408401356001600160401b03811115614b6b57600080fd5b600080600060608486031215614e5057600080fd5b614e59846145a5565b9250614e67602085016145a5565b915060408401356001600160401b03811115614ca957600080fd5b600181811c90821680614e9657607f821691505b602082108103614eb657634e487b7160e01b600052602260045260246000fd5b50919050565b6020808252602d908201527f4552433732313a2063616c6c6572206973206e6f7420746f6b656e206f776e6560408201526c1c881bdc88185c1c1c9bdd9959609a1b606082015260800190565b634e487b7160e01b600052603260045260246000fd5b634e487b7160e01b600052601160045260246000fd5b600060018201614f4757614f47614f1f565b5060010190565b600082601f830112614f5f57600080fd5b81516020614f6f6146f4836146b0565b82815260059290921b84018101918181019086841115614f8e57600080fd5b8286015b848110156147335780518352918301918301614f92565b600060208284031215614fbb57600080fd5b81516001600160401b0380821115614fd257600080fd5b9083019060608286031215614fe657600080fd5b614fee614658565b825182811115614ffd57600080fd5b61500987828601614f4e565b82525060208301518281111561501e57600080fd5b61502a87828601614f4e565b60208301525060408301518281111561504257600080fd5b61504e87828601614f4e565b60408301525095945050505050565b6020815260008251606060208401526150796080840182614a0c565b90506020840151601f19808584030160408601526150978383614a0c565b92506040860151915080858403016060860152506150b58282614a0c565b95945050505050565b601f821115610ac657600081815260208120601f850160051c810160208610156150e55750805b601f850160051c820191505b81811015611300578281556001016150f1565b81516001600160401b0381111561511d5761511d614642565b6151318161512b8454614e82565b846150be565b602080601f831160018114615166576000841561514e5750858301515b600019600386901b1c1916600185901b178555611300565b600085815260208120601f198616915b8281101561519557888601518255948401946001909101908401615176565b50858210156151b35787850151600019600388901b60f8161c191681555b5050505050600190811b01905550565b828152604060208201526000612a53604083018461452b565b600081516151ee818560208601614507565b9290920192915050565b66021b7b9b6b4b1960cd1b81526000835161521a816007850160208801614507565b682057697a617264202360b81b6007918401918201528351615243816010840160208801614507565b01601001949350505050565b8181038181111561084357610843614f1f565b8082018082111561084357610843614f1f565b600080845461528381614e82565b6001828116801561529b57600181146152b0576152df565b60ff19841687528215158302870194506152df565b8860005260208060002060005b858110156152d65781548a8201529084019082016152bd565b50505082870194505b5050505083516152f3818360208801614507565b01949350505050565b60208082526025908201527f4552433732313a207472616e736665722066726f6d20696e636f72726563742060408201526437bbb732b960d91b606082015260800190565b6020808252602b908201527f496e697469616c697a61626c653a20636f6e7472616374206973206e6f74206960408201526a6e697469616c697a696e6760a81b606082015260800190565b60208082526032908201527f4552433732313a207472616e7366657220746f206e6f6e20455243373231526560408201527131b2b4bb32b91034b6b83632b6b2b73a32b960711b606082015260800190565b7f646174613a6170706c69636174696f6e2f6a736f6e3b6261736536342c00000081526000825161541681601d850160208701614507565b91909101601d0192915050565b607b60f81b81526000835161543f816001850160208801614507565b835190830190615456816001840160208801614507565b607d60f81b60019290910191820152600201949350505050565b7f416363657373436f6e74726f6c3a206163636f756e74200000000000000000008152600083516154a8816017850160208801614507565b7001034b99036b4b9b9b4b733903937b6329607d1b60179184019182015283516154d9816028840160208801614507565b01602801949350505050565b6001600160a01b03858116825284166020820152604081018390526080606082018190526000906155189083018461452b565b9695505050505050565b60006020828403121561553457600080fd5b815161169f816144d4565b60008261555c57634e487b7160e01b600052601260045260246000fd5b500490565b808202811582820484141761084357610843614f1f565b634e487b7160e01b600052602160045260246000fd5b67113730b6b2911d1160c11b815286516000906155b2816008850160208c01614507565b61088b60f21b60089184019182018190526a113a37b5b2b724b2111d1160a91b600a83015288516155ea816015850160208d01614507565b601592019182018190526e113232b9b1b934b83a34b7b7111d1160891b6017830152875161561f816026850160208c01614507565b60269201918201526128fc61565d61569a6156868261568061566b8261565760288a01681134b6b0b3b2911d1160b91b815260090190565b8e6151dc565b61088b60f21b815260020190565b681137bbb732b9111d1160b91b815260090190565b8a6151dc565b67113a3cb832911d1160c11b815260080190565b866151dc565b600084516156b2818460208901614507565b8451908301906156c6818360208901614507565b84519101906156d9818360208801614507565b0195945050505050565b6f113234b9b83630bcafba3cb832911d1160811b8152815160009061570f816010850160208701614507565b61088b60f21b6010939091019283015250601201919050565b6000865161573a818460208b01614507565b6e3d913a3930b4ba2fba3cb832911d1160891b908301908152865161576681600f840160208b01614507565b61088b60f21b600f92909101918201528551615789816011840160208a01614507565b67113b30b63ab2911d60c11b6011929091019182015284516157b2816019840160208901614507565b607d60f81b6019929091019182015283516157d481601a840160208801614507565b01601a01979650505050505050565b6d2261747472696275746573223a5b60901b8152815160009061580d81600e850160208701614507565b605d60f81b600e939091019283015250600f01919050565b60008161583457615834614f1f565b506000190190565b634e487b7160e01b600052603160045260246000fdfe4142434445464748494a4b4c4d4e4f505152535455565758595a6162636465666768696a6b6c6d6e6f707172737475767778797a303132333435363738392b2f9f2df0fed2c77648de5860a4cc508cd0818c85b8b8a1ab4ceeef8d981c8956a6a49807205ce4d355092ef5a8a18f56e8913cf4a201fbe287825b095693c21775364d3d7565c7a8300c96fd53e065d19b65848d7b23b3191adcd55621c744223ca2646970667358221220a4c3ef59599bbef8300e849264c8a158f32b2564c151f77d72848fbf1905359464736f6c63430008110033",
  "linkReferences": {},
  "deployedLinkReferences": {}
}