{
  "_format": "hh-sol-artifact-1",
  "contractName": "ChestRedeemer",
  "sourceName": "contracts/upgradeable/npc/ChestRedeemer.sol",
  "abi": [
    {
      "inputs": [],
      "stateMutability": "nonpayable",
      "type": "constructor"
    },
    {
      "anonymous": false,
      "inputs": [
        {
          "indexed": false,
          "internalType": "address",
          "name": "previousAdmin",
          "type": "address"
        },
        {
          "indexed": false,
          "internalType": "address",
          "name": "newAdmin",
          "type": "address"
        }
      ],
      "name": "AdminChanged",
      "type": "event"
    },
    {
      "anonymous": false,
      "inputs": [
        {
          "indexed": true,
          "internalType": "address",
          "name": "beacon",
          "type": "address"
        }
      ],
      "name": "BeaconUpgraded",
      "type": "event"
    },
    {
      "anonymous": false,
      "inputs": [
        {
          "indexed": false,
          "internalType": "uint8",
          "name": "version",
          "type": "uint8"
        }
      ],
      "name": "Initialized",
      "type": "event"
    },
    {
      "anonymous": false,
      "inputs": [
        {
          "indexed": false,
          "internalType": "address",
          "name": "account",
          "type": "address"
        }
      ],
      "name": "Paused",
      "type": "event"
    },
    {
      "anonymous": false,
      "inputs": [
        {
          "indexed": true,
          "internalType": "bytes32",
          "name": "role",
          "type": "bytes32"
        },
        {
          "indexed": true,
          "internalType": "bytes32",
          "name": "previousAdminRole",
          "type": "bytes32"
        },
        {
          "indexed": true,
          "internalType": "bytes32",
          "name": "newAdminRole",
          "type": "bytes32"
        }
      ],
      "name": "RoleAdminChanged",
      "type": "event"
    },
    {
      "anonymous": false,
      "inputs": [
        {
          "indexed": true,
          "internalType": "bytes32",
          "name": "role",
          "type": "bytes32"
        },
        {
          "indexed": true,
          "internalType": "address",
          "name": "account",
          "type": "address"
        },
        {
          "indexed": true,
          "internalType": "address",
          "name": "sender",
          "type": "address"
        }
      ],
      "name": "RoleGranted",
      "type": "event"
    },
    {
      "anonymous": false,
      "inputs": [
        {
          "indexed": true,
          "internalType": "bytes32",
          "name": "role",
          "type": "bytes32"
        },
        {
          "indexed": true,
          "internalType": "address",
          "name": "account",
          "type": "address"
        },
        {
          "indexed": true,
          "internalType": "address",
          "name": "sender",
          "type": "address"
        }
      ],
      "name": "RoleRevoked",
      "type": "event"
    },
    {
      "anonymous": false,
      "inputs": [
        {
          "indexed": true,
          "internalType": "address",
          "name": "from",
          "type": "address"
        },
        {
          "indexed": true,
          "internalType": "uint256",
          "name": "tokenId",
          "type": "uint256"
        },
        {
          "indexed": false,
          "internalType": "uint256",
          "name": "rarity",
          "type": "uint256"
        }
      ],
      "name": "ToolRarityReRollDeclined",
      "type": "event"
    },
    {
      "anonymous": false,
      "inputs": [
        {
          "indexed": true,
          "internalType": "address",
          "name": "from",
          "type": "address"
        },
        {
          "indexed": true,
          "internalType": "uint256",
          "name": "tokenId",
          "type": "uint256"
        },
        {
          "indexed": false,
          "internalType": "uint256",
          "name": "oldRarity",
          "type": "uint256"
        },
        {
          "indexed": false,
          "internalType": "uint256",
          "name": "newRarity",
          "type": "uint256"
        }
      ],
      "name": "ToolRarityReRolled",
      "type": "event"
    },
    {
      "anonymous": false,
      "inputs": [
        {
          "indexed": true,
          "internalType": "address",
          "name": "from",
          "type": "address"
        },
        {
          "indexed": false,
          "internalType": "address",
          "name": "_address",
          "type": "address"
        }
      ],
      "name": "TuringCreditSet",
      "type": "event"
    },
    {
      "anonymous": false,
      "inputs": [
        {
          "indexed": true,
          "internalType": "address",
          "name": "from",
          "type": "address"
        },
        {
          "indexed": false,
          "internalType": "uint256",
          "name": "fee",
          "type": "uint256"
        }
      ],
      "name": "TuringFeePaid",
      "type": "event"
    },
    {
      "anonymous": false,
      "inputs": [
        {
          "indexed": true,
          "internalType": "address",
          "name": "from",
          "type": "address"
        },
        {
          "indexed": false,
          "internalType": "address",
          "name": "_address",
          "type": "address"
        }
      ],
      "name": "TuringHelperSet",
      "type": "event"
    },
    {
      "anonymous": false,
      "inputs": [
        {
          "indexed": false,
          "internalType": "address",
          "name": "account",
          "type": "address"
        }
      ],
      "name": "Unpaused",
      "type": "event"
    },
    {
      "anonymous": false,
      "inputs": [
        {
          "indexed": true,
          "internalType": "address",
          "name": "implementation",
          "type": "address"
        }
      ],
      "name": "Upgraded",
      "type": "event"
    },
    {
      "inputs": [],
      "name": "DEFAULT_ADMIN_ROLE",
      "outputs": [
        {
          "internalType": "bytes32",
          "name": "",
          "type": "bytes32"
        }
      ],
      "stateMutability": "view",
      "type": "function"
    },
    {
      "inputs": [
        {
          "internalType": "uint256[]",
          "name": "tokenIds",
          "type": "uint256[]"
        }
      ],
      "name": "addReRollEligibleIds",
      "outputs": [],
      "stateMutability": "nonpayable",
      "type": "function"
    },
    {
      "inputs": [],
      "name": "bundles",
      "outputs": [
        {
          "internalType": "address",
          "name": "",
          "type": "address"
        }
      ],
      "stateMutability": "view",
      "type": "function"
    },
    {
      "inputs": [
        {
          "internalType": "uint256",
          "name": "tokenId",
          "type": "uint256"
        }
      ],
      "name": "declineToolReRoll",
      "outputs": [],
      "stateMutability": "nonpayable",
      "type": "function"
    },
    {
      "inputs": [
        {
          "internalType": "bytes32",
          "name": "role",
          "type": "bytes32"
        }
      ],
      "name": "getRoleAdmin",
      "outputs": [
        {
          "internalType": "bytes32",
          "name": "",
          "type": "bytes32"
        }
      ],
      "stateMutability": "view",
      "type": "function"
    },
    {
      "inputs": [
        {
          "internalType": "bytes32",
          "name": "role",
          "type": "bytes32"
        },
        {
          "internalType": "uint256",
          "name": "index",
          "type": "uint256"
        }
      ],
      "name": "getRoleMember",
      "outputs": [
        {
          "internalType": "address",
          "name": "",
          "type": "address"
        }
      ],
      "stateMutability": "view",
      "type": "function"
    },
    {
      "inputs": [
        {
          "internalType": "bytes32",
          "name": "role",
          "type": "bytes32"
        }
      ],
      "name": "getRoleMemberCount",
      "outputs": [
        {
          "internalType": "uint256",
          "name": "",
          "type": "uint256"
        }
      ],
      "stateMutability": "view",
      "type": "function"
    },
    {
      "inputs": [
        {
          "internalType": "bytes32",
          "name": "role",
          "type": "bytes32"
        },
        {
          "internalType": "address",
          "name": "account",
          "type": "address"
        }
      ],
      "name": "grantRole",
      "outputs": [],
      "stateMutability": "nonpayable",
      "type": "function"
    },
    {
      "inputs": [
        {
          "internalType": "bytes32",
          "name": "role",
          "type": "bytes32"
        },
        {
          "internalType": "address",
          "name": "account",
          "type": "address"
        }
      ],
      "name": "hasRole",
      "outputs": [
        {
          "internalType": "bool",
          "name": "",
          "type": "bool"
        }
      ],
      "stateMutability": "view",
      "type": "function"
    },
    {
      "inputs": [],
      "name": "initialize",
      "outputs": [],
      "stateMutability": "nonpayable",
      "type": "function"
    },
    {
      "inputs": [],
      "name": "paused",
      "outputs": [
        {
          "internalType": "bool",
          "name": "",
          "type": "bool"
        }
      ],
      "stateMutability": "view",
      "type": "function"
    },
    {
      "inputs": [],
      "name": "proxiableUUID",
      "outputs": [
        {
          "internalType": "bytes32",
          "name": "",
          "type": "bytes32"
        }
      ],
      "stateMutability": "view",
      "type": "function"
    },
    {
      "inputs": [],
      "name": "rawResources",
      "outputs": [
        {
          "internalType": "address",
          "name": "",
          "type": "address"
        }
      ],
      "stateMutability": "view",
      "type": "function"
    },
    {
      "inputs": [],
      "name": "reRollEligible",
      "outputs": [
        {
          "internalType": "uint256[]",
          "name": "",
          "type": "uint256[]"
        }
      ],
      "stateMutability": "view",
      "type": "function"
    },
    {
      "inputs": [
        {
          "internalType": "uint256",
          "name": "tokenId",
          "type": "uint256"
        }
      ],
      "name": "reRollToolRarity",
      "outputs": [],
      "stateMutability": "payable",
      "type": "function"
    },
    {
      "inputs": [
        {
          "internalType": "uint256",
          "name": "id",
          "type": "uint256"
        }
      ],
      "name": "redeem",
      "outputs": [],
      "stateMutability": "payable",
      "type": "function"
    },
    {
      "inputs": [],
      "name": "refinedResources",
      "outputs": [
        {
          "internalType": "address",
          "name": "",
          "type": "address"
        }
      ],
      "stateMutability": "view",
      "type": "function"
    },
    {
      "inputs": [
        {
          "internalType": "bytes32",
          "name": "role",
          "type": "bytes32"
        },
        {
          "internalType": "address",
          "name": "account",
          "type": "address"
        }
      ],
      "name": "renounceRole",
      "outputs": [],
      "stateMutability": "nonpayable",
      "type": "function"
    },
    {
      "inputs": [],
      "name": "resourcesConfig",
      "outputs": [
        {
          "components": [
            {
              "internalType": "address",
              "name": "_address",
              "type": "address"
            },
            {
              "components": [
                {
                  "internalType": "uint256",
                  "name": "firstId",
                  "type": "uint256"
                },
                {
                  "internalType": "uint256",
                  "name": "min",
                  "type": "uint256"
                },
                {
                  "internalType": "uint256",
                  "name": "max",
                  "type": "uint256"
                }
              ],
              "internalType": "struct ChestRedeemer.Resource",
              "name": "a",
              "type": "tuple"
            },
            {
              "components": [
                {
                  "internalType": "uint256",
                  "name": "firstId",
                  "type": "uint256"
                },
                {
                  "internalType": "uint256",
                  "name": "min",
                  "type": "uint256"
                },
                {
                  "internalType": "uint256",
                  "name": "max",
                  "type": "uint256"
                }
              ],
              "internalType": "struct ChestRedeemer.Resource",
              "name": "b",
              "type": "tuple"
            },
            {
              "components": [
                {
                  "internalType": "uint256",
                  "name": "firstId",
                  "type": "uint256"
                },
                {
                  "internalType": "uint256",
                  "name": "min",
                  "type": "uint256"
                },
                {
                  "internalType": "uint256",
                  "name": "max",
                  "type": "uint256"
                }
              ],
              "internalType": "struct ChestRedeemer.Resource",
              "name": "c",
              "type": "tuple"
            }
          ],
          "internalType": "struct ChestRedeemer.ResourceConfig[]",
          "name": "config",
          "type": "tuple[]"
        }
      ],
      "stateMutability": "view",
      "type": "function"
    },
    {
      "inputs": [
        {
          "internalType": "bytes32",
          "name": "role",
          "type": "bytes32"
        },
        {
          "internalType": "address",
          "name": "account",
          "type": "address"
        }
      ],
      "name": "revokeRole",
      "outputs": [],
      "stateMutability": "nonpayable",
      "type": "function"
    },
    {
      "inputs": [
        {
          "internalType": "uint256[]",
          "name": "skillIds",
          "type": "uint256[]"
        },
        {
          "components": [
            {
              "internalType": "address",
              "name": "_address",
              "type": "address"
            },
            {
              "components": [
                {
                  "internalType": "uint256",
                  "name": "firstId",
                  "type": "uint256"
                },
                {
                  "internalType": "uint256",
                  "name": "min",
                  "type": "uint256"
                },
                {
                  "internalType": "uint256",
                  "name": "max",
                  "type": "uint256"
                }
              ],
              "internalType": "struct ChestRedeemer.Resource",
              "name": "a",
              "type": "tuple"
            },
            {
              "components": [
                {
                  "internalType": "uint256",
                  "name": "firstId",
                  "type": "uint256"
                },
                {
                  "internalType": "uint256",
                  "name": "min",
                  "type": "uint256"
                },
                {
                  "internalType": "uint256",
                  "name": "max",
                  "type": "uint256"
                }
              ],
              "internalType": "struct ChestRedeemer.Resource",
              "name": "b",
              "type": "tuple"
            },
            {
              "components": [
                {
                  "internalType": "uint256",
                  "name": "firstId",
                  "type": "uint256"
                },
                {
                  "internalType": "uint256",
                  "name": "min",
                  "type": "uint256"
                },
                {
                  "internalType": "uint256",
                  "name": "max",
                  "type": "uint256"
                }
              ],
              "internalType": "struct ChestRedeemer.Resource",
              "name": "c",
              "type": "tuple"
            }
          ],
          "internalType": "struct ChestRedeemer.ResourceConfig[]",
          "name": "configs",
          "type": "tuple[]"
        }
      ],
      "name": "setResourcesConfig",
      "outputs": [],
      "stateMutability": "nonpayable",
      "type": "function"
    },
    {
      "inputs": [
        {
          "internalType": "bytes4",
          "name": "interfaceId",
          "type": "bytes4"
        }
      ],
      "name": "supportsInterface",
      "outputs": [
        {
          "internalType": "bool",
          "name": "",
          "type": "bool"
        }
      ],
      "stateMutability": "view",
      "type": "function"
    },
    {
      "inputs": [],
      "name": "tools",
      "outputs": [
        {
          "internalType": "address",
          "name": "",
          "type": "address"
        }
      ],
      "stateMutability": "view",
      "type": "function"
    },
    {
      "inputs": [
        {
          "internalType": "address",
          "name": "newImplementation",
          "type": "address"
        }
      ],
      "name": "upgradeTo",
      "outputs": [],
      "stateMutability": "nonpayable",
      "type": "function"
    },
    {
      "inputs": [
        {
          "internalType": "address",
          "name": "newImplementation",
          "type": "address"
        },
        {
          "internalType": "bytes",
          "name": "data",
          "type": "bytes"
        }
      ],
      "name": "upgradeToAndCall",
      "outputs": [],
      "stateMutability": "payable",
      "type": "function"
    }
  ],
  "bytecode": "0x60a0604052306080523480156200001557600080fd5b506200002062000026565b620000e8565b600054610100900460ff1615620000935760405162461bcd60e51b815260206004820152602760248201527f496e697469616c697a61626c653a20636f6e747261637420697320696e697469604482015266616c697a696e6760c81b606482015260840160405180910390fd5b60005460ff9081161015620000e6576000805460ff191660ff9081179091556040519081527f7f26b83ff96e1f2b6a682f133852f6798a09c465da95921460cefb38474024989060200160405180910390a15b565b6080516133bb6200012060003960008181610572015281816105b201528181610768015281816107a8015261083701526133bb6000f3fe6080604052600436106101665760003560e01c8063850e04fe116100d1578063ca15c8731161008a578063da87e1e911610064578063da87e1e91461042a578063db006a751461044a578063dd964fbe1461045d578063e2a68b5a1461047057600080fd5b8063ca15c873146103c9578063d547741f146103e9578063d697112c1461040957600080fd5b8063850e04fe146103115780639010d07c1461033157806391d1485414610351578063a217fddf14610371578063a3fa94dd14610386578063bfe8e958146103a757600080fd5b80633659cfe6116101235780633659cfe61461027a5780634e649ed51461029a5780634f1ef286146102bc57806352d1902d146102cf5780635c975abb146102e45780638129fc1c146102fc57600080fd5b806301ffc9a71461016b57806318442e63146101a05780631dafa174146101d9578063248a9ca3146101fa5780632f2ff15d1461023857806336568abe1461025a575b600080fd5b34801561017757600080fd5b5061018b610186366004612a5e565b610490565b60405190151581526020015b60405180910390f35b3480156101ac57600080fd5b506101f1546101c1906001600160a01b031681565b6040516001600160a01b039091168152602001610197565b3480156101e557600080fd5b506101f2546101c1906001600160a01b031681565b34801561020657600080fd5b5061022a610215366004612a88565b60009081526097602052604090206001015490565b604051908152602001610197565b34801561024457600080fd5b50610258610253366004612ab6565b6104bb565b005b34801561026657600080fd5b50610258610275366004612ab6565b6104e5565b34801561028657600080fd5b50610258610295366004612ae6565b610568565b3480156102a657600080fd5b506102af610647565b6040516101979190612b03565b6102586102ca366004612c2c565b61075e565b3480156102db57600080fd5b5061022a61082a565b3480156102f057600080fd5b5060335460ff1661018b565b34801561030857600080fd5b506102586108dd565b34801561031d57600080fd5b5061025861032c366004612d63565b610ab2565b34801561033d57600080fd5b506101c161034c366004612da0565b610b16565b34801561035d57600080fd5b5061018b61036c366004612ab6565b610b35565b34801561037d57600080fd5b5061022a600081565b34801561039257600080fd5b506101f3546101c1906001600160a01b031681565b3480156103b357600080fd5b506103bc610b60565b6040516101979190612dc2565b3480156103d557600080fd5b5061022a6103e4366004612a88565b610b72565b3480156103f557600080fd5b50610258610404366004612ab6565b610b89565b34801561041557600080fd5b506101f4546101c1906001600160a01b031681565b34801561043657600080fd5b50610258610445366004612e62565b610bae565b610258610458366004612a88565b610db1565b61025861046b366004612a88565b610fd6565b34801561047c57600080fd5b5061025861048b366004612a88565b61139d565b60006001600160e01b03198216635a05180f60e01b14806104b557506104b5826115a0565b92915050565b6000828152609760205260409020600101546104d6816115d5565b6104e083836115df565b505050565b6001600160a01b038116331461055a5760405162461bcd60e51b815260206004820152602f60248201527f416363657373436f6e74726f6c3a2063616e206f6e6c792072656e6f756e636560448201526e103937b632b9903337b91039b2b63360891b60648201526084015b60405180910390fd5b6105648282611601565b5050565b6001600160a01b037f00000000000000000000000000000000000000000000000000000000000000001630036105b05760405162461bcd60e51b815260040161055190612f77565b7f00000000000000000000000000000000000000000000000000000000000000006001600160a01b03166105f960008051602061331f833981519152546001600160a01b031690565b6001600160a01b03161461061f5760405162461bcd60e51b815260040161055190612fc3565b61062881611623565b604080516000808252602082019092526106449183919061163a565b50565b60408051600c8082526101a08201909252606091816020015b6106686129c8565b81526020019060019003908161066057905050905060005b600c81101561075a5760008181526101f56020908152604091829020825160808101845281546001600160a01b031681528351606080820186526001840154825260028401548286015260038401548287015282850191909152845180820186526004840154815260058401548186015260068401548187015282860152845180820186526007840154815260088401549481019490945260099092015493830193909352820152825183908390811061073c5761073c61300f565b602002602001018190525080806107529061303b565b915050610680565b5090565b6001600160a01b037f00000000000000000000000000000000000000000000000000000000000000001630036107a65760405162461bcd60e51b815260040161055190612f77565b7f00000000000000000000000000000000000000000000000000000000000000006001600160a01b03166107ef60008051602061331f833981519152546001600160a01b031690565b6001600160a01b0316146108155760405162461bcd60e51b815260040161055190612fc3565b61081e82611623565b6105648282600161163a565b6000306001600160a01b037f000000000000000000000000000000000000000000000000000000000000000016146108ca5760405162461bcd60e51b815260206004820152603860248201527f555550535570677261646561626c653a206d757374206e6f742062652063616c60448201527f6c6564207468726f7567682064656c656761746563616c6c00000000000000006064820152608401610551565b5060008051602061331f83398151915290565b600054610100900460ff16158080156108fd5750600054600160ff909116105b806109175750303b158015610917575060005460ff166001145b61097a5760405162461bcd60e51b815260206004820152602e60248201527f496e697469616c697a61626c653a20636f6e747261637420697320616c72656160448201526d191e481a5b9a5d1a585b1a5e995960921b6064820152608401610551565b6000805460ff19166001179055801561099d576000805461ff0019166101001790555b6109a56117a5565b6109ad6117d6565b6109b56118d0565b6109bd6118f7565b6109e26020602160991b0173680e176b2bbdb2336063d0c82961bdb7a52cf13c611926565b6101f180546001600160a01b03199081167369938433cb243721978986a5b3c981a681970212179091556101f280548216730458b679c30aa4b8622742ea9fb2a44660c4a2a11790556101f38054821673ce953d1a6be7331eef06ec9ac8a4a22a4f2bdfb01790556101f48054909116734f82dfbeed2aa0686eb26ddba7a075406b4c6a671790558015610644576000805461ff0019169055604051600181527f7f26b83ff96e1f2b6a682f133852f6798a09c465da95921460cefb38474024989060200160405180910390a150565b610ac96000805160206133668339815191526115d5565b60005b815181101561056457610b03828281518110610aea57610aea61300f565b60200260200101516101f661197d90919063ffffffff16565b5080610b0e8161303b565b915050610acc565b600082815260c960205260408120610b2e9083611989565b9392505050565b60009182526097602090815260408084206001600160a01b0393909316845291905290205460ff1690565b6060610b6d6101f6611995565b905090565b600081815260c9602052604081206104b5906119a2565b600082815260976020526040902060010154610ba4816115d5565b6104e08383611601565b610bc56000805160206133668339815191526115d5565b8051825114610c225760405162461bcd60e51b8152602060048201526024808201527f436865737452656465656d65723a3a4172726179206c656e677468206d69736d6044820152630c2e8c6d60e31b6064820152608401610551565b6000825111610c735760405162461bcd60e51b815260206004820152601a60248201527f436865737452656465656d65723a3a456d7074792041727261790000000000006044820152606401610551565b60005b82518110156104e05760006101f56000858481518110610c9857610c9861300f565b602002602001015181526020019081526020016000209050828281518110610cc257610cc261300f565b60209081029190910101515181546001600160a01b0319166001600160a01b039091161781558251839083908110610cfc57610cfc61300f565b602090810291909101810151810151805160018401559081015160028301556040015160038201558251839083908110610d3857610d3861300f565b60209081029190910181015160409081015180516004850155918201516005840155015160068201558251839083908110610d7557610d7561300f565b60209081029190910181015160600151805160078401559081015160088301556040015160099091015580610da98161303b565b915050610c76565b610db96119ac565b610dc16119f2565b60028110610e115760405162461bcd60e51b815260206004820152601960248201527f436865737452656465656d65723a3a496e76616c6964204964000000000000006044820152606401610551565b6101f154604051637a94c56560e11b815233600482015260248101839052600160448201526001600160a01b039091169063f5298aca90606401600060405180830381600087803b158015610e6557600080fd5b505af1158015610e79573d6000803e3d6000fd5b505050600182149050610e8a611a4d565b6101c0546040805163604a6fa960e01b815290516000926001600160a01b03169163604a6fa9916004808301926020929190829003018187875af1158015610ed6573d6000803e3d6000fd5b505050506040513d601f19601f82011682018060405250810190610efa9190613054565b90506000610f0c82612710600f611bb2565b9050610f3281600081518110610f2457610f2461300f565b602002602001015184611c59565b8215610f5b57610f5b81600181518110610f4e57610f4e61300f565b6020026020010151611ce0565b610f7f81600281518110610f7157610f7161300f565b602002602001015184611d5f565b610fbe81600381518110610f9557610f9561300f565b602002602001015182600481518110610fb057610fb061300f565b602002602001015185611df5565b610fc88184611f41565b505050610644600161018d55565b610fde6119ac565b610fe66119f2565b6101f2546040516331a9108f60e11b81526004810183905233916001600160a01b031690636352211e90602401602060405180830381865afa158015611030573d6000803e3d6000fd5b505050506040513d601f19601f82011682018060405250810190611054919061306d565b6001600160a01b0316146110a55760405162461bcd60e51b815260206004820152601860248201527721b432b9ba2932b232b2b6b2b91d1d2737ba1037bbb732b960411b6044820152606401610551565b6110b16101f6826120de565b6110fd5760405162461bcd60e51b815260206004820152601b60248201527f436865737452656465656d65723a3a4e6f7420656c696769626c6500000000006044820152606401610551565b6111096101f6826120f6565b50611112611a4d565b6101c0546040805163604a6fa960e01b815290516000926001600160a01b03169163604a6fa9916004808301926020929190829003018187875af115801561115e573d6000803e3d6000fd5b505050506040513d601f19601f820116820180604052508101906111829190613054565b905060006111916064836130a0565b90506000600a82106111b357602382106111ac5760016111b6565b60026111b6565b60035b6101f2546040516322ca3b1560e11b8152600481018790526000602482018190526002604483015260ff9390931693506001600160a01b0390911690634594762a90606401602060405180830381865afa158015611218573d6000803e3d6000fd5b505050506040513d601f19601f8201168201806040525081019061123c9190613054565b6101f2546040516305ad7d8960e51b8152600481018890526000602482015260026044820152606481018590529192506001600160a01b03169063b5afb12090608401600060405180830381600087803b15801561129957600080fd5b505af11580156112ad573d6000803e3d6000fd5b50506101f2546001600160a01b0316915063b5afb12090508660006001600387146112e857866002146112e157600f6112eb565b601e6112eb565b60325b6040516001600160e01b031960e087901b16815260048101949094526024840192909252604483015260ff166064820152608401600060405180830381600087803b15801561133957600080fd5b505af115801561134d573d6000803e3d6000fd5b505060408051848152602081018690528893503392507f8c1dc50abbc57a5aaabb44729ccf24f6fb9ff5453c6896e4ce328ccd34b64aac910160405180910390a350505050610644600161018d55565b6113a56119ac565b6113ad6119f2565b6101f2546040516331a9108f60e11b81526004810183905233916001600160a01b031690636352211e90602401602060405180830381865afa1580156113f7573d6000803e3d6000fd5b505050506040513d601f19601f8201168201806040525081019061141b919061306d565b6001600160a01b03161461146c5760405162461bcd60e51b815260206004820152601860248201527721b432b9ba2932b232b2b6b2b91d1d2737ba1037bbb732b960411b6044820152606401610551565b6114786101f6826120de565b6114c45760405162461bcd60e51b815260206004820152601b60248201527f436865737452656465656d65723a3a4e6f7420656c696769626c6500000000006044820152606401610551565b6114d06101f6826120f6565b506101f2546040516322ca3b1560e11b81526004810183905260006024820181905260026044830152916001600160a01b031690634594762a90606401602060405180830381865afa15801561152a573d6000803e3d6000fd5b505050506040513d601f19601f8201168201806040525081019061154e9190613054565b905081336001600160a01b03167f79da1b8868d25b310cab28b7800d5d3f95d955c1afb674f53ce2e99277043b568360405161158c91815260200190565b60405180910390a350610644600161018d55565b60006001600160e01b03198216637965db0b60e01b14806104b557506301ffc9a760e01b6001600160e01b03198316146104b5565b6106448133612102565b6115e9828261215b565b600082815260c9602052604090206104e090826121e1565b61160b82826121f6565b600082815260c9602052604090206104e0908261225d565b6106446000805160206133668339815191526115d5565b7f4910fdfa16fed3260ed0e7147f7cc6da11a60208b5b9406d12a635614ffd91435460ff161561166d576104e083612272565b826001600160a01b03166352d1902d6040518163ffffffff1660e01b8152600401602060405180830381865afa9250505080156116c7575060408051601f3d908101601f191682019092526116c491810190613054565b60015b61172a5760405162461bcd60e51b815260206004820152602e60248201527f45524331393637557067726164653a206e657720696d706c656d656e7461746960448201526d6f6e206973206e6f74205555505360901b6064820152608401610551565b60008051602061331f83398151915281146117995760405162461bcd60e51b815260206004820152602960248201527f45524331393637557067726164653a20756e737570706f727465642070726f786044820152681a58589b195555525160ba1b6064820152608401610551565b506104e083838361230e565b600054610100900460ff166117cc5760405162461bcd60e51b8152600401610551906130b4565b6117d4612339565b565b600054610100900460ff166117fd5760405162461bcd60e51b8152600401610551906130b4565b6118056118d0565b6118106000336115df565b611828600080516020613366833981519152336115df565b6118527f364d3d7565c7a8300c96fd53e065d19b65848d7b23b3191adcd55621c744223c336115df565b61187c7f9f2df0fed2c77648de5860a4cc508cd0818c85b8b8a1ab4ceeef8d981c8956a6336115df565b6118a67ff18b77e1ef402111bacb54bd5e03494cbdba92fbd1bd3bbcc1ce77e69b42ea6c336115df565b6117d47f52ba824bfabc2bcfcdf7f0edbb486ebb05e1836c90e78047efeb949990f72e5f336115df565b600054610100900460ff166117d45760405162461bcd60e51b8152600401610551906130b4565b600054610100900460ff1661191e5760405162461bcd60e51b8152600401610551906130b4565b6117d461236c565b600054610100900460ff1661194d5760405162461bcd60e51b8152600401610551906130b4565b6101bf80546001600160a01b039384166001600160a01b0319918216179091556101c08054929093169116179055565b6000610b2e8383612393565b6000610b2e83836123e2565b60606000610b2e8361240c565b60006104b5825490565b60335460ff16156117d45760405162461bcd60e51b815260206004820152601060248201526f14185d5cd8589b194e881c185d5cd95960821b6044820152606401610551565b600261018d5403611a455760405162461bcd60e51b815260206004820152601f60248201527f5265656e7472616e637947756172643a207265656e7472616e742063616c6c006044820152606401610551565b600261018d55565b6101bf5460408051637126fe6f60e11b815290516000926001600160a01b03169163e24dfcde9160048083019260209291908290030181865afa158015611a98573d6000803e3d6000fd5b505050506040513d601f19601f82011682018060405250810190611abc9190613054565b9050803414611b0d5760405162461bcd60e51b815260206004820152601760248201527f496e73756666696369656e7420547572696e67204665650000000000000000006044820152606401610551565b6101bf546101c054604051631fb1244f60e31b8152600481018490526001600160a01b03918216602482015291169063fd8922789083906044016000604051808303818588803b158015611b6057600080fd5b505af1158015611b74573d6000803e3d6000fd5b50506040518481523393507f9d274ae0294d2443bf2deae07adf50a459e712b401fbc806742b3f45ef7cc4da9250602001905060405180910390a250565b60608167ffffffffffffffff811115611bcd57611bcd612bbc565b604051908082528060200260200182016040528015611bf6578160200160208202803683370190505b5090508360005b83811015611c50576000611c1186846130a0565b9050611c1d86846130ff565b925080848381518110611c3257611c3261300f565b60209081029190910101525080611c488161303b565b915050611bfd565b50509392505050565b80611c7457600f611c6b6064846130a0565b10611c74575050565b6101f15460405163731133e960e01b81526001600160a01b039091169063731133e990611caa9033906004906001908201613113565b600060405180830381600087803b158015611cc457600080fd5b505af1158015611cd8573d6000803e3d6000fd5b505050505050565b600a611ced6064836130a0565b1015610644576101f15460405163731133e960e01b81526001600160a01b039091169063731133e990611d2a903390600590600190600401613113565b600060405180830381600087803b158015611d4457600080fd5b505af1158015611d58573d6000803e3d6000fd5b5050505050565b600081611d6d576003611d70565b600f5b60ff16905080611d816064856130a0565b10156104e0576101f15460405163731133e960e01b81526001600160a01b039091169063731133e990611dbe903390600690600190600401613113565b600060405180830381600087803b158015611dd857600080fd5b505af1158015611dec573d6000803e3d6000fd5b50505050505050565b6000611e02600c856130a0565b90506000611e116064856130a0565b905060008315611e4357600a8210611e395760238210611e32576001611e3c565b6002611e3c565b60035b9050611e74565b8115611e6e57600b8210611e675760298210611e60576000611e71565b6001611e71565b6002611e71565b60035b90505b6101f25460408051606081018252858152600060208201526001600160a01b039092169163b510391f91339190810160ff86166004811115611eb857611eb8613143565b6004811115611ec957611ec9613143565b9052604051611edb9190602001613159565b6040516020818303038152906040526040518363ffffffff1660e01b8152600401611f079291906131ec565b600060405180830381600087803b158015611f2157600080fd5b505af1158015611f35573d6000803e3d6000fd5b50505050505050505050565b6000600c83600581518110611f5857611f5861300f565b6020026020010151611f6a91906130a0565b9050611fec816101f56000848152602001908152602001600020600101604051806060016040529081600082015481526020016001820154815260200160028201548152505085600681518110611fc357611fc361300f565b602002602001015186600781518110611fde57611fde61300f565b602002602001015186612468565b61205e816101f560008481526020019081526020016000206004016040518060600160405290816000820154815260200160018201548152602001600282015481525050856008815181106120435761204361300f565b602002602001015186600981518110611fde57611fde61300f565b81156104e0576104e0816101f56000848152602001908152602001600020600701604051806060016040529081600082015481526020016001820154815260200160028201548152505085600a815181106120bb576120bb61300f565b602002602001015186600b81518110611fde57611fde61300f565b600161018d55565b60008181526001830160205260408120541515610b2e565b6000610b2e83836125b5565b61210c8282610b35565b61056457612119816126a8565b6121248360206126ba565b604051602001612135929190613210565b60408051601f198184030181529082905262461bcd60e51b825261055191600401613285565b6121658282610b35565b6105645760008281526097602090815260408083206001600160a01b03851684529091529020805460ff1916600117905561219d3390565b6001600160a01b0316816001600160a01b0316837f2f8788117e7eff1d82e926ec794901d17c78024a50270940304540a733656f0d60405160405180910390a45050565b6000610b2e836001600160a01b038416612393565b6122008282610b35565b156105645760008281526097602090815260408083206001600160a01b0385168085529252808320805460ff1916905551339285917ff6391f5c32d9c69d2a47ea670b442974b53935d1edc7fd64eb21e047a839171b9190a45050565b6000610b2e836001600160a01b0384166125b5565b6001600160a01b0381163b6122df5760405162461bcd60e51b815260206004820152602d60248201527f455243313936373a206e657720696d706c656d656e746174696f6e206973206e60448201526c1bdd08184818dbdb9d1c9858dd609a1b6064820152608401610551565b60008051602061331f83398151915280546001600160a01b0319166001600160a01b0392909216919091179055565b61231783612856565b6000825111806123245750805b156104e0576123338383612896565b50505050565b600054610100900460ff166123605760405162461bcd60e51b8152600401610551906130b4565b6033805460ff19169055565b600054610100900460ff166120d65760405162461bcd60e51b8152600401610551906130b4565b60008181526001830160205260408120546123da575081546001818101845560008481526020808220909301849055845484825282860190935260409020919091556104b5565b5060006104b5565b60008260000182815481106123f9576123f961300f565b9060005260206000200154905092915050565b60608160000180548060200260200160405190810160405280929190818152602001828054801561245c57602002820191906000526020600020905b815481526020019060010190808311612448575b50505050509050919050565b60006124756064856130a0565b90506000600582106124a6576014821061249f57603282106124985760006124a9565b60016124a9565b60026124a9565b60035b60ff1690506000836124bf5786602001516124cf565b60208701516124cf906002613298565b90506000846124e25787604001516124f2565b60408801516124f2906002613298565b9050600061250083836132af565b61250a90886130a0565b6125158460016132c2565b61251f91906132c2565b90506000848a6000015161253391906132c2565b60008c81526101f560205260409081902054905163731133e960e01b81529192506001600160a01b03169063731133e99061257690339085908790600401613113565b600060405180830381600087803b15801561259057600080fd5b505af11580156125a4573d6000803e3d6000fd5b505050505050505050505050505050565b6000818152600183016020526040812054801561269e5760006125d96001836132af565b85549091506000906125ed906001906132af565b905081811461265257600086600001828154811061260d5761260d61300f565b90600052602060002001549050808760000184815481106126305761263061300f565b6000918252602080832090910192909255918252600188019052604090208390555b8554869080612663576126636132d5565b6001900381819060005260206000200160009055905585600101600086815260200190815260200160002060009055600193505050506104b5565b60009150506104b5565b60606104b56001600160a01b03831660145b606060006126c9836002613298565b6126d49060026132c2565b67ffffffffffffffff8111156126ec576126ec612bbc565b6040519080825280601f01601f191660200182016040528015612716576020820181803683370190505b509050600360fc1b816000815181106127315761273161300f565b60200101906001600160f81b031916908160001a905350600f60fb1b816001815181106127605761276061300f565b60200101906001600160f81b031916908160001a9053506000612784846002613298565b61278f9060016132c2565b90505b6001811115612807576f181899199a1a9b1b9c1cb0b131b232b360811b85600f16601081106127c3576127c361300f565b1a60f81b8282815181106127d9576127d961300f565b60200101906001600160f81b031916908160001a90535060049490941c93612800816132eb565b9050612792565b508315610b2e5760405162461bcd60e51b815260206004820181905260248201527f537472696e67733a20686578206c656e67746820696e73756666696369656e746044820152606401610551565b61285f81612272565b6040516001600160a01b038216907fbc7cd75a20ee27fd9adebab32041f755214dbc6bffa90cc0225b39da2e5c2d3b90600090a250565b60606001600160a01b0383163b6128fe5760405162461bcd60e51b815260206004820152602660248201527f416464726573733a2064656c65676174652063616c6c20746f206e6f6e2d636f6044820152651b9d1c9858dd60d21b6064820152608401610551565b600080846001600160a01b0316846040516129199190613302565b600060405180830381855af49150503d8060008114612954576040519150601f19603f3d011682016040523d82523d6000602084013e612959565b606091505b5091509150612981828260405180606001604052806027815260200161333f6027913961298a565b95945050505050565b60608315612999575081610b2e565b610b2e83838151156129ae5781518083602001fd5b8060405162461bcd60e51b81526004016105519190613285565b604051806080016040528060006001600160a01b03168152602001612a0760405180606001604052806000815260200160008152602001600081525090565b8152602001612a3060405180606001604052806000815260200160008152602001600081525090565b8152602001612a5960405180606001604052806000815260200160008152602001600081525090565b905290565b600060208284031215612a7057600080fd5b81356001600160e01b031981168114610b2e57600080fd5b600060208284031215612a9a57600080fd5b5035919050565b6001600160a01b038116811461064457600080fd5b60008060408385031215612ac957600080fd5b823591506020830135612adb81612aa1565b809150509250929050565b600060208284031215612af857600080fd5b8135610b2e81612aa1565b602080825282518282018190526000919060409081850190868401855b82811015612baf57815180516001600160a01b0316855286810151612b5b888701828051825260208082015190830152604090810151910152565b50858101518051608087015260208082015160a088015260409182015160c0880152606090920151805160e08801529182015161010087015201516101208501526101409093019290850190600101612b20565b5091979650505050505050565b634e487b7160e01b600052604160045260246000fd5b6040516080810167ffffffffffffffff81118282101715612bf557612bf5612bbc565b60405290565b604051601f8201601f1916810167ffffffffffffffff81118282101715612c2457612c24612bbc565b604052919050565b60008060408385031215612c3f57600080fd5b8235612c4a81612aa1565b915060208381013567ffffffffffffffff80821115612c6857600080fd5b818601915086601f830112612c7c57600080fd5b813581811115612c8e57612c8e612bbc565b612ca0601f8201601f19168501612bfb565b91508082528784828501011115612cb657600080fd5b80848401858401376000848284010152508093505050509250929050565b600067ffffffffffffffff821115612cee57612cee612bbc565b5060051b60200190565b600082601f830112612d0957600080fd5b81356020612d1e612d1983612cd4565b612bfb565b82815260059290921b84018101918181019086841115612d3d57600080fd5b8286015b84811015612d585780358352918301918301612d41565b509695505050505050565b600060208284031215612d7557600080fd5b813567ffffffffffffffff811115612d8c57600080fd5b612d9884828501612cf8565b949350505050565b60008060408385031215612db357600080fd5b50508035926020909101359150565b6020808252825182820181905260009190848201906040850190845b81811015612dfa57835183529284019291840191600101612dde565b50909695505050505050565b600060608284031215612e1857600080fd5b6040516060810181811067ffffffffffffffff82111715612e3b57612e3b612bbc565b80604052508091508235815260208301356020820152604083013560408201525092915050565b6000806040808486031215612e7657600080fd5b833567ffffffffffffffff80821115612e8e57600080fd5b612e9a87838801612cf8565b9450602091508186013581811115612eb157600080fd5b86019050601f81018713612ec457600080fd5b8035612ed2612d1982612cd4565b818152610140918202830184019184820191908a841115612ef257600080fd5b938501935b83851015612f665780858c031215612f0f5760008081fd5b612f17612bd2565b8535612f2281612aa1565b8152612f308c878901612e06565b87820152612f418c60808801612e06565b88820152612f528c60e08801612e06565b606082015283529384019391850191612ef7565b508096505050505050509250929050565b6020808252602c908201527f46756e6374696f6e206d7573742062652063616c6c6564207468726f7567682060408201526b19195b1959d85d1958d85b1b60a21b606082015260800190565b6020808252602c908201527f46756e6374696f6e206d7573742062652063616c6c6564207468726f7567682060408201526b6163746976652070726f787960a01b606082015260800190565b634e487b7160e01b600052603260045260246000fd5b634e487b7160e01b600052601160045260246000fd5b60006001820161304d5761304d613025565b5060010190565b60006020828403121561306657600080fd5b5051919050565b60006020828403121561307f57600080fd5b8151610b2e81612aa1565b634e487b7160e01b600052601260045260246000fd5b6000826130af576130af61308a565b500690565b6020808252602b908201527f496e697469616c697a61626c653a20636f6e7472616374206973206e6f74206960408201526a6e697469616c697a696e6760a81b606082015260800190565b60008261310e5761310e61308a565b500490565b6001600160a01b039390931683526020830191909152604082015260806060820181905260009082015260a00190565b634e487b7160e01b600052602160045260246000fd5b8151815260208083015190820152604082015160608201906005811061318f57634e487b7160e01b600052602160045260246000fd5b8060408401525092915050565b60005b838110156131b757818101518382015260200161319f565b50506000910152565b600081518084526131d881602086016020860161319c565b601f01601f19169290920160200192915050565b6001600160a01b0383168152604060208201819052600090612d98908301846131c0565b7f416363657373436f6e74726f6c3a206163636f756e742000000000000000000081526000835161324881601785016020880161319c565b7001034b99036b4b9b9b4b733903937b6329607d1b601791840191820152835161327981602884016020880161319c565b01602801949350505050565b602081526000610b2e60208301846131c0565b80820281158282048414176104b5576104b5613025565b818103818111156104b5576104b5613025565b808201808211156104b5576104b5613025565b634e487b7160e01b600052603160045260246000fd5b6000816132fa576132fa613025565b506000190190565b6000825161331481846020870161319c565b919091019291505056fe360894a13ba1a3210667c828492db98dca3e2076cc3735a920a3ca505d382bbc416464726573733a206c6f772d6c6576656c2064656c65676174652063616c6c206661696c6564a49807205ce4d355092ef5a8a18f56e8913cf4a201fbe287825b095693c21775a264697066735822122014c994488700e7b2c78a80ea9a071d0b7e8cbff82e394aa4033888c2c6b690e864736f6c63430008110033",
  "linkReferences": {},
  "deployedLinkReferences": {}
}