{
  "_format": "hh-sol-artifact-1",
  "contractName": "ChestRedeemer",
  "sourceName": "contracts/upgradeable/npc/ChestRedeemer.sol",
  "abi": [
    {
      "inputs": [],
      "stateMutability": "nonpayable",
      "type": "constructor"
    },
    {
      "anonymous": false,
      "inputs": [
        {
          "indexed": false,
          "internalType": "address",
          "name": "previousAdmin",
          "type": "address"
        },
        {
          "indexed": false,
          "internalType": "address",
          "name": "newAdmin",
          "type": "address"
        }
      ],
      "name": "AdminChanged",
      "type": "event"
    },
    {
      "anonymous": false,
      "inputs": [
        {
          "indexed": true,
          "internalType": "address",
          "name": "beacon",
          "type": "address"
        }
      ],
      "name": "BeaconUpgraded",
      "type": "event"
    },
    {
      "anonymous": false,
      "inputs": [
        {
          "indexed": false,
          "internalType": "uint8",
          "name": "version",
          "type": "uint8"
        }
      ],
      "name": "Initialized",
      "type": "event"
    },
    {
      "anonymous": false,
      "inputs": [
        {
          "indexed": false,
          "internalType": "address",
          "name": "account",
          "type": "address"
        }
      ],
      "name": "Paused",
      "type": "event"
    },
    {
      "anonymous": false,
      "inputs": [
        {
          "indexed": true,
          "internalType": "bytes32",
          "name": "role",
          "type": "bytes32"
        },
        {
          "indexed": true,
          "internalType": "bytes32",
          "name": "previousAdminRole",
          "type": "bytes32"
        },
        {
          "indexed": true,
          "internalType": "bytes32",
          "name": "newAdminRole",
          "type": "bytes32"
        }
      ],
      "name": "RoleAdminChanged",
      "type": "event"
    },
    {
      "anonymous": false,
      "inputs": [
        {
          "indexed": true,
          "internalType": "bytes32",
          "name": "role",
          "type": "bytes32"
        },
        {
          "indexed": true,
          "internalType": "address",
          "name": "account",
          "type": "address"
        },
        {
          "indexed": true,
          "internalType": "address",
          "name": "sender",
          "type": "address"
        }
      ],
      "name": "RoleGranted",
      "type": "event"
    },
    {
      "anonymous": false,
      "inputs": [
        {
          "indexed": true,
          "internalType": "bytes32",
          "name": "role",
          "type": "bytes32"
        },
        {
          "indexed": true,
          "internalType": "address",
          "name": "account",
          "type": "address"
        },
        {
          "indexed": true,
          "internalType": "address",
          "name": "sender",
          "type": "address"
        }
      ],
      "name": "RoleRevoked",
      "type": "event"
    },
    {
      "anonymous": false,
      "inputs": [
        {
          "indexed": true,
          "internalType": "address",
          "name": "from",
          "type": "address"
        },
        {
          "indexed": false,
          "internalType": "address",
          "name": "_address",
          "type": "address"
        }
      ],
      "name": "TuringCreditSet",
      "type": "event"
    },
    {
      "anonymous": false,
      "inputs": [
        {
          "indexed": true,
          "internalType": "address",
          "name": "from",
          "type": "address"
        },
        {
          "indexed": false,
          "internalType": "uint256",
          "name": "fee",
          "type": "uint256"
        }
      ],
      "name": "TuringFeePaid",
      "type": "event"
    },
    {
      "anonymous": false,
      "inputs": [
        {
          "indexed": true,
          "internalType": "address",
          "name": "from",
          "type": "address"
        },
        {
          "indexed": false,
          "internalType": "address",
          "name": "_address",
          "type": "address"
        }
      ],
      "name": "TuringHelperSet",
      "type": "event"
    },
    {
      "anonymous": false,
      "inputs": [
        {
          "indexed": false,
          "internalType": "address",
          "name": "account",
          "type": "address"
        }
      ],
      "name": "Unpaused",
      "type": "event"
    },
    {
      "anonymous": false,
      "inputs": [
        {
          "indexed": true,
          "internalType": "address",
          "name": "implementation",
          "type": "address"
        }
      ],
      "name": "Upgraded",
      "type": "event"
    },
    {
      "inputs": [],
      "name": "DEFAULT_ADMIN_ROLE",
      "outputs": [
        {
          "internalType": "bytes32",
          "name": "",
          "type": "bytes32"
        }
      ],
      "stateMutability": "view",
      "type": "function"
    },
    {
      "inputs": [
        {
          "internalType": "uint256[]",
          "name": "tokenIds",
          "type": "uint256[]"
        }
      ],
      "name": "addReRollEligibleIds",
      "outputs": [],
      "stateMutability": "nonpayable",
      "type": "function"
    },
    {
      "inputs": [],
      "name": "bundles",
      "outputs": [
        {
          "internalType": "address",
          "name": "",
          "type": "address"
        }
      ],
      "stateMutability": "view",
      "type": "function"
    },
    {
      "inputs": [
        {
          "internalType": "bytes32",
          "name": "role",
          "type": "bytes32"
        }
      ],
      "name": "getRoleAdmin",
      "outputs": [
        {
          "internalType": "bytes32",
          "name": "",
          "type": "bytes32"
        }
      ],
      "stateMutability": "view",
      "type": "function"
    },
    {
      "inputs": [
        {
          "internalType": "bytes32",
          "name": "role",
          "type": "bytes32"
        },
        {
          "internalType": "uint256",
          "name": "index",
          "type": "uint256"
        }
      ],
      "name": "getRoleMember",
      "outputs": [
        {
          "internalType": "address",
          "name": "",
          "type": "address"
        }
      ],
      "stateMutability": "view",
      "type": "function"
    },
    {
      "inputs": [
        {
          "internalType": "bytes32",
          "name": "role",
          "type": "bytes32"
        }
      ],
      "name": "getRoleMemberCount",
      "outputs": [
        {
          "internalType": "uint256",
          "name": "",
          "type": "uint256"
        }
      ],
      "stateMutability": "view",
      "type": "function"
    },
    {
      "inputs": [
        {
          "internalType": "bytes32",
          "name": "role",
          "type": "bytes32"
        },
        {
          "internalType": "address",
          "name": "account",
          "type": "address"
        }
      ],
      "name": "grantRole",
      "outputs": [],
      "stateMutability": "nonpayable",
      "type": "function"
    },
    {
      "inputs": [
        {
          "internalType": "bytes32",
          "name": "role",
          "type": "bytes32"
        },
        {
          "internalType": "address",
          "name": "account",
          "type": "address"
        }
      ],
      "name": "hasRole",
      "outputs": [
        {
          "internalType": "bool",
          "name": "",
          "type": "bool"
        }
      ],
      "stateMutability": "view",
      "type": "function"
    },
    {
      "inputs": [],
      "name": "initialize",
      "outputs": [],
      "stateMutability": "nonpayable",
      "type": "function"
    },
    {
      "inputs": [],
      "name": "paused",
      "outputs": [
        {
          "internalType": "bool",
          "name": "",
          "type": "bool"
        }
      ],
      "stateMutability": "view",
      "type": "function"
    },
    {
      "inputs": [],
      "name": "proxiableUUID",
      "outputs": [
        {
          "internalType": "bytes32",
          "name": "",
          "type": "bytes32"
        }
      ],
      "stateMutability": "view",
      "type": "function"
    },
    {
      "inputs": [],
      "name": "rawResources",
      "outputs": [
        {
          "internalType": "address",
          "name": "",
          "type": "address"
        }
      ],
      "stateMutability": "view",
      "type": "function"
    },
    {
      "inputs": [
        {
          "internalType": "uint256",
          "name": "tokenId",
          "type": "uint256"
        }
      ],
      "name": "reRollToolRarity",
      "outputs": [],
      "stateMutability": "nonpayable",
      "type": "function"
    },
    {
      "inputs": [
        {
          "internalType": "uint256",
          "name": "id",
          "type": "uint256"
        }
      ],
      "name": "redeem",
      "outputs": [],
      "stateMutability": "payable",
      "type": "function"
    },
    {
      "inputs": [],
      "name": "refinedResources",
      "outputs": [
        {
          "internalType": "address",
          "name": "",
          "type": "address"
        }
      ],
      "stateMutability": "view",
      "type": "function"
    },
    {
      "inputs": [
        {
          "internalType": "bytes32",
          "name": "role",
          "type": "bytes32"
        },
        {
          "internalType": "address",
          "name": "account",
          "type": "address"
        }
      ],
      "name": "renounceRole",
      "outputs": [],
      "stateMutability": "nonpayable",
      "type": "function"
    },
    {
      "inputs": [],
      "name": "resourcesConfig",
      "outputs": [
        {
          "components": [
            {
              "internalType": "address",
              "name": "_address",
              "type": "address"
            },
            {
              "components": [
                {
                  "internalType": "uint256",
                  "name": "firstId",
                  "type": "uint256"
                },
                {
                  "internalType": "uint256",
                  "name": "min",
                  "type": "uint256"
                },
                {
                  "internalType": "uint256",
                  "name": "max",
                  "type": "uint256"
                }
              ],
              "internalType": "struct ChestRedeemer.Resource",
              "name": "a",
              "type": "tuple"
            },
            {
              "components": [
                {
                  "internalType": "uint256",
                  "name": "firstId",
                  "type": "uint256"
                },
                {
                  "internalType": "uint256",
                  "name": "min",
                  "type": "uint256"
                },
                {
                  "internalType": "uint256",
                  "name": "max",
                  "type": "uint256"
                }
              ],
              "internalType": "struct ChestRedeemer.Resource",
              "name": "b",
              "type": "tuple"
            },
            {
              "components": [
                {
                  "internalType": "uint256",
                  "name": "firstId",
                  "type": "uint256"
                },
                {
                  "internalType": "uint256",
                  "name": "min",
                  "type": "uint256"
                },
                {
                  "internalType": "uint256",
                  "name": "max",
                  "type": "uint256"
                }
              ],
              "internalType": "struct ChestRedeemer.Resource",
              "name": "c",
              "type": "tuple"
            }
          ],
          "internalType": "struct ChestRedeemer.ResourceConfig[]",
          "name": "config",
          "type": "tuple[]"
        }
      ],
      "stateMutability": "view",
      "type": "function"
    },
    {
      "inputs": [
        {
          "internalType": "bytes32",
          "name": "role",
          "type": "bytes32"
        },
        {
          "internalType": "address",
          "name": "account",
          "type": "address"
        }
      ],
      "name": "revokeRole",
      "outputs": [],
      "stateMutability": "nonpayable",
      "type": "function"
    },
    {
      "inputs": [
        {
          "internalType": "uint256[]",
          "name": "skillIds",
          "type": "uint256[]"
        },
        {
          "components": [
            {
              "internalType": "address",
              "name": "_address",
              "type": "address"
            },
            {
              "components": [
                {
                  "internalType": "uint256",
                  "name": "firstId",
                  "type": "uint256"
                },
                {
                  "internalType": "uint256",
                  "name": "min",
                  "type": "uint256"
                },
                {
                  "internalType": "uint256",
                  "name": "max",
                  "type": "uint256"
                }
              ],
              "internalType": "struct ChestRedeemer.Resource",
              "name": "a",
              "type": "tuple"
            },
            {
              "components": [
                {
                  "internalType": "uint256",
                  "name": "firstId",
                  "type": "uint256"
                },
                {
                  "internalType": "uint256",
                  "name": "min",
                  "type": "uint256"
                },
                {
                  "internalType": "uint256",
                  "name": "max",
                  "type": "uint256"
                }
              ],
              "internalType": "struct ChestRedeemer.Resource",
              "name": "b",
              "type": "tuple"
            },
            {
              "components": [
                {
                  "internalType": "uint256",
                  "name": "firstId",
                  "type": "uint256"
                },
                {
                  "internalType": "uint256",
                  "name": "min",
                  "type": "uint256"
                },
                {
                  "internalType": "uint256",
                  "name": "max",
                  "type": "uint256"
                }
              ],
              "internalType": "struct ChestRedeemer.Resource",
              "name": "c",
              "type": "tuple"
            }
          ],
          "internalType": "struct ChestRedeemer.ResourceConfig[]",
          "name": "configs",
          "type": "tuple[]"
        }
      ],
      "name": "setResourcesConfig",
      "outputs": [],
      "stateMutability": "nonpayable",
      "type": "function"
    },
    {
      "inputs": [
        {
          "internalType": "bytes4",
          "name": "interfaceId",
          "type": "bytes4"
        }
      ],
      "name": "supportsInterface",
      "outputs": [
        {
          "internalType": "bool",
          "name": "",
          "type": "bool"
        }
      ],
      "stateMutability": "view",
      "type": "function"
    },
    {
      "inputs": [],
      "name": "tools",
      "outputs": [
        {
          "internalType": "address",
          "name": "",
          "type": "address"
        }
      ],
      "stateMutability": "view",
      "type": "function"
    },
    {
      "inputs": [
        {
          "internalType": "address",
          "name": "newImplementation",
          "type": "address"
        }
      ],
      "name": "upgradeTo",
      "outputs": [],
      "stateMutability": "nonpayable",
      "type": "function"
    },
    {
      "inputs": [
        {
          "internalType": "address",
          "name": "newImplementation",
          "type": "address"
        },
        {
          "internalType": "bytes",
          "name": "data",
          "type": "bytes"
        }
      ],
      "name": "upgradeToAndCall",
      "outputs": [],
      "stateMutability": "payable",
      "type": "function"
    }
  ],
  "bytecode": "0x60a0604052306080523480156200001557600080fd5b506200002062000026565b620000e8565b600054610100900460ff1615620000935760405162461bcd60e51b815260206004820152602760248201527f496e697469616c697a61626c653a20636f6e747261637420697320696e697469604482015266616c697a696e6760c81b606482015260840160405180910390fd5b60005460ff9081161015620000e6576000805460ff191660ff9081179091556040519081527f7f26b83ff96e1f2b6a682f133852f6798a09c465da95921460cefb38474024989060200160405180910390a15b565b608051612f446200012060003960008181610517015281816105570152818161070d0152818161074d01526107dc0152612f446000f3fe6080604052600436106101405760003560e01c80638129fc1c116100b6578063ca15c8731161006f578063ca15c87314610381578063d547741f146103a1578063d697112c146103c1578063da87e1e9146103e2578063db006a7514610402578063dd964fbe1461041557600080fd5b80638129fc1c146102d6578063850e04fe146102eb5780639010d07c1461030b57806391d148541461032b578063a217fddf1461034b578063a3fa94dd1461036057600080fd5b806336568abe1161010857806336568abe146102345780633659cfe6146102545780634e649ed5146102745780634f1ef2861461029657806352d1902d146102a95780635c975abb146102be57600080fd5b806301ffc9a71461014557806318442e631461017a5780631dafa174146101b3578063248a9ca3146101d45780632f2ff15d14610212575b600080fd5b34801561015157600080fd5b5061016561016036600461262b565b610435565b60405190151581526020015b60405180910390f35b34801561018657600080fd5b506101f15461019b906001600160a01b031681565b6040516001600160a01b039091168152602001610171565b3480156101bf57600080fd5b506101f25461019b906001600160a01b031681565b3480156101e057600080fd5b506102046101ef366004612655565b60009081526097602052604090206001015490565b604051908152602001610171565b34801561021e57600080fd5b5061023261022d366004612683565b610460565b005b34801561024057600080fd5b5061023261024f366004612683565b61048a565b34801561026057600080fd5b5061023261026f3660046126b3565b61050d565b34801561028057600080fd5b506102896105ec565b60405161017191906126d0565b6102326102a43660046127f9565b610703565b3480156102b557600080fd5b506102046107cf565b3480156102ca57600080fd5b5060335460ff16610165565b3480156102e257600080fd5b50610232610882565b3480156102f757600080fd5b50610232610306366004612930565b610a57565b34801561031757600080fd5b5061019b61032636600461296d565b610abb565b34801561033757600080fd5b50610165610346366004612683565b610ada565b34801561035757600080fd5b50610204600081565b34801561036c57600080fd5b506101f35461019b906001600160a01b031681565b34801561038d57600080fd5b5061020461039c366004612655565b610b05565b3480156103ad57600080fd5b506102326103bc366004612683565b610b1c565b3480156103cd57600080fd5b506101f45461019b906001600160a01b031681565b3480156103ee57600080fd5b506102326103fd3660046129eb565b610b41565b610232610410366004612655565b610d44565b34801561042157600080fd5b50610232610430366004612655565b610f69565b60006001600160e01b03198216635a05180f60e01b148061045a575061045a826111d6565b92915050565b60008281526097602052604090206001015461047b8161120b565b6104858383611215565b505050565b6001600160a01b03811633146104ff5760405162461bcd60e51b815260206004820152602f60248201527f416363657373436f6e74726f6c3a2063616e206f6e6c792072656e6f756e636560448201526e103937b632b9903337b91039b2b63360891b60648201526084015b60405180910390fd5b6105098282611237565b5050565b6001600160a01b037f00000000000000000000000000000000000000000000000000000000000000001630036105555760405162461bcd60e51b81526004016104f690612b00565b7f00000000000000000000000000000000000000000000000000000000000000006001600160a01b031661059e600080516020612ea8833981519152546001600160a01b031690565b6001600160a01b0316146105c45760405162461bcd60e51b81526004016104f690612b4c565b6105cd81611259565b604080516000808252602082019092526105e991839190611270565b50565b60408051600c8082526101a08201909252606091816020015b61060d612595565b81526020019060019003908161060557905050905060005b600c8110156106ff5760008181526101f56020908152604091829020825160808101845281546001600160a01b03168152835160608082018652600184015482526002840154828601526003840154828701528285019190915284518082018652600484015481526005840154818601526006840154818701528286015284518082018652600784015481526008840154948101949094526009909201549383019390935282015282518390839081106106e1576106e1612b98565b602002602001018190525080806106f790612bc4565b915050610625565b5090565b6001600160a01b037f000000000000000000000000000000000000000000000000000000000000000016300361074b5760405162461bcd60e51b81526004016104f690612b00565b7f00000000000000000000000000000000000000000000000000000000000000006001600160a01b0316610794600080516020612ea8833981519152546001600160a01b031690565b6001600160a01b0316146107ba5760405162461bcd60e51b81526004016104f690612b4c565b6107c382611259565b61050982826001611270565b6000306001600160a01b037f0000000000000000000000000000000000000000000000000000000000000000161461086f5760405162461bcd60e51b815260206004820152603860248201527f555550535570677261646561626c653a206d757374206e6f742062652063616c60448201527f6c6564207468726f7567682064656c656761746563616c6c000000000000000060648201526084016104f6565b50600080516020612ea883398151915290565b600054610100900460ff16158080156108a25750600054600160ff909116105b806108bc5750303b1580156108bc575060005460ff166001145b61091f5760405162461bcd60e51b815260206004820152602e60248201527f496e697469616c697a61626c653a20636f6e747261637420697320616c72656160448201526d191e481a5b9a5d1a585b1a5e995960921b60648201526084016104f6565b6000805460ff191660011790558015610942576000805461ff0019166101001790555b61094a6113db565b61095261140c565b61095a611506565b61096261152d565b6109876020602160991b0173680e176b2bbdb2336063d0c82961bdb7a52cf13c61155c565b6101f180546001600160a01b03199081167369938433cb243721978986a5b3c981a681970212179091556101f280548216730458b679c30aa4b8622742ea9fb2a44660c4a2a11790556101f38054821673ce953d1a6be7331eef06ec9ac8a4a22a4f2bdfb01790556101f48054909116734f82dfbeed2aa0686eb26ddba7a075406b4c6a6717905580156105e9576000805461ff0019169055604051600181527f7f26b83ff96e1f2b6a682f133852f6798a09c465da95921460cefb38474024989060200160405180910390a150565b610a6e600080516020612eef83398151915261120b565b60005b815181101561050957610aa8828281518110610a8f57610a8f612b98565b60200260200101516101f66115b390919063ffffffff16565b5080610ab381612bc4565b915050610a71565b600082815260c960205260408120610ad390836115bf565b9392505050565b60009182526097602090815260408084206001600160a01b0393909316845291905290205460ff1690565b600081815260c96020526040812061045a906115cb565b600082815260976020526040902060010154610b378161120b565b6104858383611237565b610b58600080516020612eef83398151915261120b565b8051825114610bb55760405162461bcd60e51b8152602060048201526024808201527f436865737452656465656d65723a3a4172726179206c656e677468206d69736d6044820152630c2e8c6d60e31b60648201526084016104f6565b6000825111610c065760405162461bcd60e51b815260206004820152601a60248201527f436865737452656465656d65723a3a456d70747920417272617900000000000060448201526064016104f6565b60005b82518110156104855760006101f56000858481518110610c2b57610c2b612b98565b602002602001015181526020019081526020016000209050828281518110610c5557610c55612b98565b60209081029190910101515181546001600160a01b0319166001600160a01b039091161781558251839083908110610c8f57610c8f612b98565b602090810291909101810151810151805160018401559081015160028301556040015160038201558251839083908110610ccb57610ccb612b98565b60209081029190910181015160409081015180516004850155918201516005840155015160068201558251839083908110610d0857610d08612b98565b60209081029190910181015160600151805160078401559081015160088301556040015160099091015580610d3c81612bc4565b915050610c09565b610d4c6115d5565b610d5461161b565b60028110610da45760405162461bcd60e51b815260206004820152601960248201527f436865737452656465656d65723a3a496e76616c69642049640000000000000060448201526064016104f6565b6101f154604051637a94c56560e11b815233600482015260248101839052600160448201526001600160a01b039091169063f5298aca90606401600060405180830381600087803b158015610df857600080fd5b505af1158015610e0c573d6000803e3d6000fd5b505050600182149050610e1d611676565b6101c0546040805163604a6fa960e01b815290516000926001600160a01b03169163604a6fa9916004808301926020929190829003018187875af1158015610e69573d6000803e3d6000fd5b505050506040513d601f19601f82011682018060405250810190610e8d9190612bdd565b90506000610e9f82612710600f6117db565b9050610ec581600081518110610eb757610eb7612b98565b602002602001015184611882565b8215610eee57610eee81600181518110610ee157610ee1612b98565b6020026020010151611909565b610f1281600281518110610f0457610f04612b98565b602002602001015184611988565b610f5181600381518110610f2857610f28612b98565b602002602001015182600481518110610f4357610f43612b98565b602002602001015185611a1e565b610f5b8184611b6a565b5050506105e9600161018d55565b610f716115d5565b610f7961161b565b6101f2546040516331a9108f60e11b81526004810183905233916001600160a01b031690636352211e90602401602060405180830381865afa158015610fc3573d6000803e3d6000fd5b505050506040513d601f19601f82011682018060405250810190610fe79190612bf6565b6001600160a01b03161461103d5760405162461bcd60e51b815260206004820152601860248201527f436865737452656465656d65723a3a4e6f74206f776e6572000000000000000060448201526064016104f6565b6110496101f682611d07565b6110955760405162461bcd60e51b815260206004820152601b60248201527f436865737452656465656d65723a3a4e6f7420656c696769626c65000000000060448201526064016104f6565b6110a16101f682611d1f565b506110aa611676565b6101c0546040805163604a6fa960e01b815290516000926001600160a01b03169163604a6fa9916004808301926020929190829003018187875af11580156110f6573d6000803e3d6000fd5b505050506040513d601f19601f8201168201806040525081019061111a9190612bdd565b90506000611129606483612c29565b90506000600a821061114b576023821061114457600161114e565b600261114e565b60035b6101f2546040516305ad7d8960e51b815260048101879052600060248201526002604482015260ff929092166064830181905292506001600160a01b03169063b5afb12090608401600060405180830381600087803b1580156111b057600080fd5b505af11580156111c4573d6000803e3d6000fd5b505050505050506105e9600161018d55565b60006001600160e01b03198216637965db0b60e01b148061045a57506301ffc9a760e01b6001600160e01b031983161461045a565b6105e98133611d2b565b61121f8282611d84565b600082815260c9602052604090206104859082611e0a565b6112418282611e1f565b600082815260c9602052604090206104859082611e86565b6105e9600080516020612eef83398151915261120b565b7f4910fdfa16fed3260ed0e7147f7cc6da11a60208b5b9406d12a635614ffd91435460ff16156112a35761048583611e9b565b826001600160a01b03166352d1902d6040518163ffffffff1660e01b8152600401602060405180830381865afa9250505080156112fd575060408051601f3d908101601f191682019092526112fa91810190612bdd565b60015b6113605760405162461bcd60e51b815260206004820152602e60248201527f45524331393637557067726164653a206e657720696d706c656d656e7461746960448201526d6f6e206973206e6f74205555505360901b60648201526084016104f6565b600080516020612ea883398151915281146113cf5760405162461bcd60e51b815260206004820152602960248201527f45524331393637557067726164653a20756e737570706f727465642070726f786044820152681a58589b195555525160ba1b60648201526084016104f6565b50610485838383611f37565b600054610100900460ff166114025760405162461bcd60e51b81526004016104f690612c3d565b61140a611f62565b565b600054610100900460ff166114335760405162461bcd60e51b81526004016104f690612c3d565b61143b611506565b611446600033611215565b61145e600080516020612eef83398151915233611215565b6114887f364d3d7565c7a8300c96fd53e065d19b65848d7b23b3191adcd55621c744223c33611215565b6114b27f9f2df0fed2c77648de5860a4cc508cd0818c85b8b8a1ab4ceeef8d981c8956a633611215565b6114dc7ff18b77e1ef402111bacb54bd5e03494cbdba92fbd1bd3bbcc1ce77e69b42ea6c33611215565b61140a7f52ba824bfabc2bcfcdf7f0edbb486ebb05e1836c90e78047efeb949990f72e5f33611215565b600054610100900460ff1661140a5760405162461bcd60e51b81526004016104f690612c3d565b600054610100900460ff166115545760405162461bcd60e51b81526004016104f690612c3d565b61140a611f95565b600054610100900460ff166115835760405162461bcd60e51b81526004016104f690612c3d565b6101bf80546001600160a01b039384166001600160a01b0319918216179091556101c08054929093169116179055565b6000610ad38383611fbc565b6000610ad3838361200b565b600061045a825490565b60335460ff161561140a5760405162461bcd60e51b815260206004820152601060248201526f14185d5cd8589b194e881c185d5cd95960821b60448201526064016104f6565b600261018d540361166e5760405162461bcd60e51b815260206004820152601f60248201527f5265656e7472616e637947756172643a207265656e7472616e742063616c6c0060448201526064016104f6565b600261018d55565b6101bf5460408051637126fe6f60e11b815290516000926001600160a01b03169163e24dfcde9160048083019260209291908290030181865afa1580156116c1573d6000803e3d6000fd5b505050506040513d601f19601f820116820180604052508101906116e59190612bdd565b90508034146117365760405162461bcd60e51b815260206004820152601760248201527f496e73756666696369656e7420547572696e672046656500000000000000000060448201526064016104f6565b6101bf546101c054604051631fb1244f60e31b8152600481018490526001600160a01b03918216602482015291169063fd8922789083906044016000604051808303818588803b15801561178957600080fd5b505af115801561179d573d6000803e3d6000fd5b50506040518481523393507f9d274ae0294d2443bf2deae07adf50a459e712b401fbc806742b3f45ef7cc4da9250602001905060405180910390a250565b60608167ffffffffffffffff8111156117f6576117f6612789565b60405190808252806020026020018201604052801561181f578160200160208202803683370190505b5090508360005b8381101561187957600061183a8684612c29565b90506118468684612c88565b92508084838151811061185b5761185b612b98565b6020908102919091010152508061187181612bc4565b915050611826565b50509392505050565b8061189d57600f611894606484612c29565b1061189d575050565b6101f15460405163731133e960e01b81526001600160a01b039091169063731133e9906118d39033906004906001908201612c9c565b600060405180830381600087803b1580156118ed57600080fd5b505af1158015611901573d6000803e3d6000fd5b505050505050565b600a611916606483612c29565b10156105e9576101f15460405163731133e960e01b81526001600160a01b039091169063731133e990611953903390600590600190600401612c9c565b600060405180830381600087803b15801561196d57600080fd5b505af1158015611981573d6000803e3d6000fd5b5050505050565b600081611996576003611999565b600f5b60ff169050806119aa606485612c29565b1015610485576101f15460405163731133e960e01b81526001600160a01b039091169063731133e9906119e7903390600690600190600401612c9c565b600060405180830381600087803b158015611a0157600080fd5b505af1158015611a15573d6000803e3d6000fd5b50505050505050565b6000611a2b600c85612c29565b90506000611a3a606485612c29565b905060008315611a6c57600a8210611a625760238210611a5b576001611a65565b6002611a65565b60035b9050611a9d565b8115611a9757600b8210611a905760298210611a89576000611a9a565b6001611a9a565b6002611a9a565b60035b90505b6101f25460408051606081018252858152600060208201526001600160a01b039092169163b510391f91339190810160ff86166004811115611ae157611ae1612ccc565b6004811115611af257611af2612ccc565b9052604051611b049190602001612ce2565b6040516020818303038152906040526040518363ffffffff1660e01b8152600401611b30929190612d75565b600060405180830381600087803b158015611b4a57600080fd5b505af1158015611b5e573d6000803e3d6000fd5b50505050505050505050565b6000600c83600581518110611b8157611b81612b98565b6020026020010151611b939190612c29565b9050611c15816101f56000848152602001908152602001600020600101604051806060016040529081600082015481526020016001820154815260200160028201548152505085600681518110611bec57611bec612b98565b602002602001015186600781518110611c0757611c07612b98565b602002602001015186612035565b611c87816101f56000848152602001908152602001600020600401604051806060016040529081600082015481526020016001820154815260200160028201548152505085600881518110611c6c57611c6c612b98565b602002602001015186600981518110611c0757611c07612b98565b811561048557610485816101f56000848152602001908152602001600020600701604051806060016040529081600082015481526020016001820154815260200160028201548152505085600a81518110611ce457611ce4612b98565b602002602001015186600b81518110611c0757611c07612b98565b600161018d55565b60008181526001830160205260408120541515610ad3565b6000610ad38383612182565b611d358282610ada565b61050957611d4281612275565b611d4d836020612287565b604051602001611d5e929190612d99565b60408051601f198184030181529082905262461bcd60e51b82526104f691600401612e0e565b611d8e8282610ada565b6105095760008281526097602090815260408083206001600160a01b03851684529091529020805460ff19166001179055611dc63390565b6001600160a01b0316816001600160a01b0316837f2f8788117e7eff1d82e926ec794901d17c78024a50270940304540a733656f0d60405160405180910390a45050565b6000610ad3836001600160a01b038416611fbc565b611e298282610ada565b156105095760008281526097602090815260408083206001600160a01b0385168085529252808320805460ff1916905551339285917ff6391f5c32d9c69d2a47ea670b442974b53935d1edc7fd64eb21e047a839171b9190a45050565b6000610ad3836001600160a01b038416612182565b6001600160a01b0381163b611f085760405162461bcd60e51b815260206004820152602d60248201527f455243313936373a206e657720696d706c656d656e746174696f6e206973206e60448201526c1bdd08184818dbdb9d1c9858dd609a1b60648201526084016104f6565b600080516020612ea883398151915280546001600160a01b0319166001600160a01b0392909216919091179055565b611f4083612423565b600082511180611f4d5750805b1561048557611f5c8383612463565b50505050565b600054610100900460ff16611f895760405162461bcd60e51b81526004016104f690612c3d565b6033805460ff19169055565b600054610100900460ff16611cff5760405162461bcd60e51b81526004016104f690612c3d565b60008181526001830160205260408120546120035750815460018181018455600084815260208082209093018490558454848252828601909352604090209190915561045a565b50600061045a565b600082600001828154811061202257612022612b98565b9060005260206000200154905092915050565b6000612042606485612c29565b9050600060058210612073576014821061206c5760328210612065576000612076565b6001612076565b6002612076565b60035b60ff16905060008361208c57866020015161209c565b602087015161209c906002612e21565b90506000846120af5787604001516120bf565b60408801516120bf906002612e21565b905060006120cd8383612e38565b6120d79088612c29565b6120e2846001612e4b565b6120ec9190612e4b565b90506000848a600001516121009190612e4b565b60008c81526101f560205260409081902054905163731133e960e01b81529192506001600160a01b03169063731133e99061214390339085908790600401612c9c565b600060405180830381600087803b15801561215d57600080fd5b505af1158015612171573d6000803e3d6000fd5b505050505050505050505050505050565b6000818152600183016020526040812054801561226b5760006121a6600183612e38565b85549091506000906121ba90600190612e38565b905081811461221f5760008660000182815481106121da576121da612b98565b90600052602060002001549050808760000184815481106121fd576121fd612b98565b6000918252602080832090910192909255918252600188019052604090208390555b855486908061223057612230612e5e565b60019003818190600052602060002001600090559055856001016000868152602001908152602001600020600090556001935050505061045a565b600091505061045a565b606061045a6001600160a01b03831660145b60606000612296836002612e21565b6122a1906002612e4b565b67ffffffffffffffff8111156122b9576122b9612789565b6040519080825280601f01601f1916602001820160405280156122e3576020820181803683370190505b509050600360fc1b816000815181106122fe576122fe612b98565b60200101906001600160f81b031916908160001a905350600f60fb1b8160018151811061232d5761232d612b98565b60200101906001600160f81b031916908160001a9053506000612351846002612e21565b61235c906001612e4b565b90505b60018111156123d4576f181899199a1a9b1b9c1cb0b131b232b360811b85600f166010811061239057612390612b98565b1a60f81b8282815181106123a6576123a6612b98565b60200101906001600160f81b031916908160001a90535060049490941c936123cd81612e74565b905061235f565b508315610ad35760405162461bcd60e51b815260206004820181905260248201527f537472696e67733a20686578206c656e67746820696e73756666696369656e7460448201526064016104f6565b61242c81611e9b565b6040516001600160a01b038216907fbc7cd75a20ee27fd9adebab32041f755214dbc6bffa90cc0225b39da2e5c2d3b90600090a250565b60606001600160a01b0383163b6124cb5760405162461bcd60e51b815260206004820152602660248201527f416464726573733a2064656c65676174652063616c6c20746f206e6f6e2d636f6044820152651b9d1c9858dd60d21b60648201526084016104f6565b600080846001600160a01b0316846040516124e69190612e8b565b600060405180830381855af49150503d8060008114612521576040519150601f19603f3d011682016040523d82523d6000602084013e612526565b606091505b509150915061254e8282604051806060016040528060278152602001612ec860279139612557565b95945050505050565b60608315612566575081610ad3565b610ad3838381511561257b5781518083602001fd5b8060405162461bcd60e51b81526004016104f69190612e0e565b604051806080016040528060006001600160a01b031681526020016125d460405180606001604052806000815260200160008152602001600081525090565b81526020016125fd60405180606001604052806000815260200160008152602001600081525090565b815260200161262660405180606001604052806000815260200160008152602001600081525090565b905290565b60006020828403121561263d57600080fd5b81356001600160e01b031981168114610ad357600080fd5b60006020828403121561266757600080fd5b5035919050565b6001600160a01b03811681146105e957600080fd5b6000806040838503121561269657600080fd5b8235915060208301356126a88161266e565b809150509250929050565b6000602082840312156126c557600080fd5b8135610ad38161266e565b602080825282518282018190526000919060409081850190868401855b8281101561277c57815180516001600160a01b0316855286810151612728888701828051825260208082015190830152604090810151910152565b50858101518051608087015260208082015160a088015260409182015160c0880152606090920151805160e088015291820151610100870152015161012085015261014090930192908501906001016126ed565b5091979650505050505050565b634e487b7160e01b600052604160045260246000fd5b6040516080810167ffffffffffffffff811182821017156127c2576127c2612789565b60405290565b604051601f8201601f1916810167ffffffffffffffff811182821017156127f1576127f1612789565b604052919050565b6000806040838503121561280c57600080fd5b82356128178161266e565b915060208381013567ffffffffffffffff8082111561283557600080fd5b818601915086601f83011261284957600080fd5b81358181111561285b5761285b612789565b61286d601f8201601f191685016127c8565b9150808252878482850101111561288357600080fd5b80848401858401376000848284010152508093505050509250929050565b600067ffffffffffffffff8211156128bb576128bb612789565b5060051b60200190565b600082601f8301126128d657600080fd5b813560206128eb6128e6836128a1565b6127c8565b82815260059290921b8401810191818101908684111561290a57600080fd5b8286015b84811015612925578035835291830191830161290e565b509695505050505050565b60006020828403121561294257600080fd5b813567ffffffffffffffff81111561295957600080fd5b612965848285016128c5565b949350505050565b6000806040838503121561298057600080fd5b50508035926020909101359150565b6000606082840312156129a157600080fd5b6040516060810181811067ffffffffffffffff821117156129c4576129c4612789565b80604052508091508235815260208301356020820152604083013560408201525092915050565b60008060408084860312156129ff57600080fd5b833567ffffffffffffffff80821115612a1757600080fd5b612a23878388016128c5565b9450602091508186013581811115612a3a57600080fd5b86019050601f81018713612a4d57600080fd5b8035612a5b6128e6826128a1565b818152610140918202830184019184820191908a841115612a7b57600080fd5b938501935b83851015612aef5780858c031215612a985760008081fd5b612aa061279f565b8535612aab8161266e565b8152612ab98c87890161298f565b87820152612aca8c6080880161298f565b88820152612adb8c60e0880161298f565b606082015283529384019391850191612a80565b508096505050505050509250929050565b6020808252602c908201527f46756e6374696f6e206d7573742062652063616c6c6564207468726f7567682060408201526b19195b1959d85d1958d85b1b60a21b606082015260800190565b6020808252602c908201527f46756e6374696f6e206d7573742062652063616c6c6564207468726f7567682060408201526b6163746976652070726f787960a01b606082015260800190565b634e487b7160e01b600052603260045260246000fd5b634e487b7160e01b600052601160045260246000fd5b600060018201612bd657612bd6612bae565b5060010190565b600060208284031215612bef57600080fd5b5051919050565b600060208284031215612c0857600080fd5b8151610ad38161266e565b634e487b7160e01b600052601260045260246000fd5b600082612c3857612c38612c13565b500690565b6020808252602b908201527f496e697469616c697a61626c653a20636f6e7472616374206973206e6f74206960408201526a6e697469616c697a696e6760a81b606082015260800190565b600082612c9757612c97612c13565b500490565b6001600160a01b039390931683526020830191909152604082015260806060820181905260009082015260a00190565b634e487b7160e01b600052602160045260246000fd5b81518152602080830151908201526040820151606082019060058110612d1857634e487b7160e01b600052602160045260246000fd5b8060408401525092915050565b60005b83811015612d40578181015183820152602001612d28565b50506000910152565b60008151808452612d61816020860160208601612d25565b601f01601f19169290920160200192915050565b6001600160a01b038316815260406020820181905260009061296590830184612d49565b7f416363657373436f6e74726f6c3a206163636f756e7420000000000000000000815260008351612dd1816017850160208801612d25565b7001034b99036b4b9b9b4b733903937b6329607d1b6017918401918201528351612e02816028840160208801612d25565b01602801949350505050565b602081526000610ad36020830184612d49565b808202811582820484141761045a5761045a612bae565b8181038181111561045a5761045a612bae565b8082018082111561045a5761045a612bae565b634e487b7160e01b600052603160045260246000fd5b600081612e8357612e83612bae565b506000190190565b60008251612e9d818460208701612d25565b919091019291505056fe360894a13ba1a3210667c828492db98dca3e2076cc3735a920a3ca505d382bbc416464726573733a206c6f772d6c6576656c2064656c65676174652063616c6c206661696c6564a49807205ce4d355092ef5a8a18f56e8913cf4a201fbe287825b095693c21775a2646970667358221220259f4d0d6470ce2b2a047273a864d21ae0ba6646642fceb96295751f87039bca64736f6c63430008110033",
  "linkReferences": {},
  "deployedLinkReferences": {}
}