{
  "_format": "hh-sol-artifact-1",
  "contractName": "TestWizards2D",
  "sourceName": "contracts/TestWizards2D.sol",
  "abi": [
    {
      "inputs": [],
      "stateMutability": "nonpayable",
      "type": "constructor"
    },
    {
      "anonymous": false,
      "inputs": [
        {
          "indexed": true,
          "internalType": "address",
          "name": "owner",
          "type": "address"
        },
        {
          "indexed": true,
          "internalType": "address",
          "name": "approved",
          "type": "address"
        },
        {
          "indexed": true,
          "internalType": "uint256",
          "name": "tokenId",
          "type": "uint256"
        }
      ],
      "name": "Approval",
      "type": "event"
    },
    {
      "anonymous": false,
      "inputs": [
        {
          "indexed": true,
          "internalType": "address",
          "name": "owner",
          "type": "address"
        },
        {
          "indexed": true,
          "internalType": "address",
          "name": "operator",
          "type": "address"
        },
        {
          "indexed": false,
          "internalType": "bool",
          "name": "approved",
          "type": "bool"
        }
      ],
      "name": "ApprovalForAll",
      "type": "event"
    },
    {
      "anonymous": false,
      "inputs": [
        {
          "indexed": true,
          "internalType": "bytes32",
          "name": "role",
          "type": "bytes32"
        },
        {
          "indexed": true,
          "internalType": "bytes32",
          "name": "previousAdminRole",
          "type": "bytes32"
        },
        {
          "indexed": true,
          "internalType": "bytes32",
          "name": "newAdminRole",
          "type": "bytes32"
        }
      ],
      "name": "RoleAdminChanged",
      "type": "event"
    },
    {
      "anonymous": false,
      "inputs": [
        {
          "indexed": true,
          "internalType": "bytes32",
          "name": "role",
          "type": "bytes32"
        },
        {
          "indexed": true,
          "internalType": "address",
          "name": "account",
          "type": "address"
        },
        {
          "indexed": true,
          "internalType": "address",
          "name": "sender",
          "type": "address"
        }
      ],
      "name": "RoleGranted",
      "type": "event"
    },
    {
      "anonymous": false,
      "inputs": [
        {
          "indexed": true,
          "internalType": "bytes32",
          "name": "role",
          "type": "bytes32"
        },
        {
          "indexed": true,
          "internalType": "address",
          "name": "account",
          "type": "address"
        },
        {
          "indexed": true,
          "internalType": "address",
          "name": "sender",
          "type": "address"
        }
      ],
      "name": "RoleRevoked",
      "type": "event"
    },
    {
      "anonymous": false,
      "inputs": [
        {
          "indexed": false,
          "internalType": "uint256",
          "name": "tokenId",
          "type": "uint256"
        },
        {
          "indexed": false,
          "internalType": "address",
          "name": "owner",
          "type": "address"
        },
        {
          "indexed": false,
          "internalType": "uint256",
          "name": "first_encounter",
          "type": "uint256"
        }
      ],
      "name": "TokenMinted",
      "type": "event"
    },
    {
      "anonymous": false,
      "inputs": [
        {
          "indexed": true,
          "internalType": "address",
          "name": "from",
          "type": "address"
        },
        {
          "indexed": true,
          "internalType": "address",
          "name": "to",
          "type": "address"
        },
        {
          "indexed": true,
          "internalType": "uint256",
          "name": "tokenId",
          "type": "uint256"
        }
      ],
      "name": "Transfer",
      "type": "event"
    },
    {
      "inputs": [],
      "name": "ADMIN_ROLE",
      "outputs": [
        {
          "internalType": "bytes32",
          "name": "",
          "type": "bytes32"
        }
      ],
      "stateMutability": "view",
      "type": "function"
    },
    {
      "inputs": [],
      "name": "CURRENT_PRICE",
      "outputs": [
        {
          "internalType": "uint256",
          "name": "",
          "type": "uint256"
        }
      ],
      "stateMutability": "view",
      "type": "function"
    },
    {
      "inputs": [],
      "name": "DEFAULT_ADMIN_ROLE",
      "outputs": [
        {
          "internalType": "bytes32",
          "name": "",
          "type": "bytes32"
        }
      ],
      "stateMutability": "view",
      "type": "function"
    },
    {
      "inputs": [],
      "name": "MAX_PURCHASE",
      "outputs": [
        {
          "internalType": "uint256",
          "name": "",
          "type": "uint256"
        }
      ],
      "stateMutability": "view",
      "type": "function"
    },
    {
      "inputs": [],
      "name": "MAX_TOKENS",
      "outputs": [
        {
          "internalType": "uint256",
          "name": "",
          "type": "uint256"
        }
      ],
      "stateMutability": "view",
      "type": "function"
    },
    {
      "inputs": [],
      "name": "MINTER_ROLE",
      "outputs": [
        {
          "internalType": "bytes32",
          "name": "",
          "type": "bytes32"
        }
      ],
      "stateMutability": "view",
      "type": "function"
    },
    {
      "inputs": [],
      "name": "PROVENANCE",
      "outputs": [
        {
          "internalType": "string",
          "name": "",
          "type": "string"
        }
      ],
      "stateMutability": "view",
      "type": "function"
    },
    {
      "inputs": [
        {
          "internalType": "address",
          "name": "to",
          "type": "address"
        },
        {
          "internalType": "uint256",
          "name": "tokenId",
          "type": "uint256"
        }
      ],
      "name": "approve",
      "outputs": [],
      "stateMutability": "nonpayable",
      "type": "function"
    },
    {
      "inputs": [
        {
          "internalType": "address",
          "name": "owner",
          "type": "address"
        }
      ],
      "name": "balanceOf",
      "outputs": [
        {
          "internalType": "uint256",
          "name": "",
          "type": "uint256"
        }
      ],
      "stateMutability": "view",
      "type": "function"
    },
    {
      "inputs": [
        {
          "internalType": "uint256",
          "name": "tokenId",
          "type": "uint256"
        }
      ],
      "name": "getApproved",
      "outputs": [
        {
          "internalType": "address",
          "name": "",
          "type": "address"
        }
      ],
      "stateMutability": "view",
      "type": "function"
    },
    {
      "inputs": [
        {
          "internalType": "uint256",
          "name": "tokenId",
          "type": "uint256"
        }
      ],
      "name": "getComicWizardDetail",
      "outputs": [
        {
          "components": [
            {
              "internalType": "uint256",
              "name": "first_encounter",
              "type": "uint256"
            }
          ],
          "internalType": "struct TestWizards2D.ComicWizardDetail",
          "name": "detail",
          "type": "tuple"
        }
      ],
      "stateMutability": "view",
      "type": "function"
    },
    {
      "inputs": [
        {
          "internalType": "bytes32",
          "name": "role",
          "type": "bytes32"
        }
      ],
      "name": "getRoleAdmin",
      "outputs": [
        {
          "internalType": "bytes32",
          "name": "",
          "type": "bytes32"
        }
      ],
      "stateMutability": "view",
      "type": "function"
    },
    {
      "inputs": [
        {
          "internalType": "bytes32",
          "name": "role",
          "type": "bytes32"
        },
        {
          "internalType": "address",
          "name": "account",
          "type": "address"
        }
      ],
      "name": "grantRole",
      "outputs": [],
      "stateMutability": "nonpayable",
      "type": "function"
    },
    {
      "inputs": [
        {
          "internalType": "bytes32",
          "name": "role",
          "type": "bytes32"
        },
        {
          "internalType": "address",
          "name": "account",
          "type": "address"
        }
      ],
      "name": "hasRole",
      "outputs": [
        {
          "internalType": "bool",
          "name": "",
          "type": "bool"
        }
      ],
      "stateMutability": "view",
      "type": "function"
    },
    {
      "inputs": [
        {
          "internalType": "address",
          "name": "owner",
          "type": "address"
        },
        {
          "internalType": "address",
          "name": "operator",
          "type": "address"
        }
      ],
      "name": "isApprovedForAll",
      "outputs": [
        {
          "internalType": "bool",
          "name": "",
          "type": "bool"
        }
      ],
      "stateMutability": "view",
      "type": "function"
    },
    {
      "inputs": [
        {
          "internalType": "uint256",
          "name": "numberOfTokens",
          "type": "uint256"
        }
      ],
      "name": "mintComicWizard",
      "outputs": [],
      "stateMutability": "payable",
      "type": "function"
    },
    {
      "inputs": [
        {
          "internalType": "uint256",
          "name": "tokenId",
          "type": "uint256"
        }
      ],
      "name": "mintTokenId",
      "outputs": [],
      "stateMutability": "nonpayable",
      "type": "function"
    },
    {
      "inputs": [],
      "name": "name",
      "outputs": [
        {
          "internalType": "string",
          "name": "",
          "type": "string"
        }
      ],
      "stateMutability": "view",
      "type": "function"
    },
    {
      "inputs": [
        {
          "internalType": "uint256",
          "name": "tokenId",
          "type": "uint256"
        }
      ],
      "name": "ownerOf",
      "outputs": [
        {
          "internalType": "address",
          "name": "",
          "type": "address"
        }
      ],
      "stateMutability": "view",
      "type": "function"
    },
    {
      "inputs": [
        {
          "internalType": "bytes32",
          "name": "role",
          "type": "bytes32"
        },
        {
          "internalType": "address",
          "name": "account",
          "type": "address"
        }
      ],
      "name": "renounceRole",
      "outputs": [],
      "stateMutability": "nonpayable",
      "type": "function"
    },
    {
      "inputs": [],
      "name": "reserveTokens",
      "outputs": [],
      "stateMutability": "nonpayable",
      "type": "function"
    },
    {
      "inputs": [
        {
          "internalType": "bytes32",
          "name": "role",
          "type": "bytes32"
        },
        {
          "internalType": "address",
          "name": "account",
          "type": "address"
        }
      ],
      "name": "revokeRole",
      "outputs": [],
      "stateMutability": "nonpayable",
      "type": "function"
    },
    {
      "inputs": [
        {
          "internalType": "address",
          "name": "from",
          "type": "address"
        },
        {
          "internalType": "address",
          "name": "to",
          "type": "address"
        },
        {
          "internalType": "uint256",
          "name": "tokenId",
          "type": "uint256"
        }
      ],
      "name": "safeTransferFrom",
      "outputs": [],
      "stateMutability": "nonpayable",
      "type": "function"
    },
    {
      "inputs": [
        {
          "internalType": "address",
          "name": "from",
          "type": "address"
        },
        {
          "internalType": "address",
          "name": "to",
          "type": "address"
        },
        {
          "internalType": "uint256",
          "name": "tokenId",
          "type": "uint256"
        },
        {
          "internalType": "bytes",
          "name": "_data",
          "type": "bytes"
        }
      ],
      "name": "safeTransferFrom",
      "outputs": [],
      "stateMutability": "nonpayable",
      "type": "function"
    },
    {
      "inputs": [],
      "name": "saleIsActive",
      "outputs": [
        {
          "internalType": "bool",
          "name": "",
          "type": "bool"
        }
      ],
      "stateMutability": "view",
      "type": "function"
    },
    {
      "inputs": [
        {
          "internalType": "address",
          "name": "operator",
          "type": "address"
        },
        {
          "internalType": "bool",
          "name": "approved",
          "type": "bool"
        }
      ],
      "name": "setApprovalForAll",
      "outputs": [],
      "stateMutability": "nonpayable",
      "type": "function"
    },
    {
      "inputs": [
        {
          "internalType": "string",
          "name": "BaseURI",
          "type": "string"
        }
      ],
      "name": "setBaseURI",
      "outputs": [],
      "stateMutability": "nonpayable",
      "type": "function"
    },
    {
      "inputs": [
        {
          "internalType": "uint256",
          "name": "currentPrice",
          "type": "uint256"
        }
      ],
      "name": "setCurrentPrice",
      "outputs": [],
      "stateMutability": "nonpayable",
      "type": "function"
    },
    {
      "inputs": [
        {
          "internalType": "uint256",
          "name": "maxTokens",
          "type": "uint256"
        }
      ],
      "name": "setMaxTokens",
      "outputs": [],
      "stateMutability": "nonpayable",
      "type": "function"
    },
    {
      "inputs": [
        {
          "internalType": "string",
          "name": "provenanceHash",
          "type": "string"
        }
      ],
      "name": "setProvenanceHash",
      "outputs": [],
      "stateMutability": "nonpayable",
      "type": "function"
    },
    {
      "inputs": [
        {
          "internalType": "bool",
          "name": "newState",
          "type": "bool"
        }
      ],
      "name": "setSaleState",
      "outputs": [],
      "stateMutability": "nonpayable",
      "type": "function"
    },
    {
      "inputs": [
        {
          "internalType": "bytes4",
          "name": "interfaceId",
          "type": "bytes4"
        }
      ],
      "name": "supportsInterface",
      "outputs": [
        {
          "internalType": "bool",
          "name": "",
          "type": "bool"
        }
      ],
      "stateMutability": "view",
      "type": "function"
    },
    {
      "inputs": [],
      "name": "symbol",
      "outputs": [
        {
          "internalType": "string",
          "name": "",
          "type": "string"
        }
      ],
      "stateMutability": "view",
      "type": "function"
    },
    {
      "inputs": [
        {
          "internalType": "uint256",
          "name": "index",
          "type": "uint256"
        }
      ],
      "name": "tokenByIndex",
      "outputs": [
        {
          "internalType": "uint256",
          "name": "",
          "type": "uint256"
        }
      ],
      "stateMutability": "view",
      "type": "function"
    },
    {
      "inputs": [
        {
          "internalType": "address",
          "name": "owner",
          "type": "address"
        },
        {
          "internalType": "uint256",
          "name": "index",
          "type": "uint256"
        }
      ],
      "name": "tokenOfOwnerByIndex",
      "outputs": [
        {
          "internalType": "uint256",
          "name": "",
          "type": "uint256"
        }
      ],
      "stateMutability": "view",
      "type": "function"
    },
    {
      "inputs": [
        {
          "internalType": "uint256",
          "name": "tokenId",
          "type": "uint256"
        }
      ],
      "name": "tokenURI",
      "outputs": [
        {
          "internalType": "string",
          "name": "",
          "type": "string"
        }
      ],
      "stateMutability": "view",
      "type": "function"
    },
    {
      "inputs": [],
      "name": "totalSupply",
      "outputs": [
        {
          "internalType": "uint256",
          "name": "",
          "type": "uint256"
        }
      ],
      "stateMutability": "view",
      "type": "function"
    },
    {
      "inputs": [
        {
          "internalType": "address",
          "name": "from",
          "type": "address"
        },
        {
          "internalType": "address",
          "name": "to",
          "type": "address"
        },
        {
          "internalType": "uint256",
          "name": "tokenId",
          "type": "uint256"
        }
      ],
      "name": "transferFrom",
      "outputs": [],
      "stateMutability": "nonpayable",
      "type": "function"
    },
    {
      "inputs": [],
      "name": "withdraw",
      "outputs": [],
      "stateMutability": "nonpayable",
      "type": "function"
    }
  ],
  "bytecode": "0x60a06040819052600060808190526200001b91600c9162000231565b506014600d55612710600e556001600f8190556010805460ff191690911790553480156200004857600080fd5b50604080518082018252601681527f436f736d69632057697a6172647320324420546573740000000000000000000060208083019182528351808501909452600d84526c151154d515d25690549114cc91609a1b908401528151919291620000b39160009162000231565b508051620000c990600190602084019062000231565b50620000db9150600090503362000141565b620000f660008051602062002c0e8339815191523362000141565b6200011160008051602062002bee8339815191523362000141565b6200013b60008051602062002bee83398151915260008051602062002c0e833981519152620001e6565b62000314565b6000828152600a602090815260408083206001600160a01b038516845290915290205460ff16620001e2576000828152600a602090815260408083206001600160a01b03851684529091529020805460ff19166001179055620001a13390565b6001600160a01b0316816001600160a01b0316837f2f8788117e7eff1d82e926ec794901d17c78024a50270940304540a733656f0d60405160405180910390a45b5050565b6000828152600a6020526040808220600101805490849055905190918391839186917fbd79b86ffe0ab8e8776151514217cd7cacd52c909f66475c3af44e129f0b00ff9190a4505050565b8280546200023f90620002d7565b90600052602060002090601f016020900481019282620002635760008555620002ae565b82601f106200027e57805160ff1916838001178555620002ae565b82800160010185558215620002ae579182015b82811115620002ae57825182559160200191906001019062000291565b50620002bc929150620002c0565b5090565b5b80821115620002bc5760008155600101620002c1565b600181811c90821680620002ec57607f821691505b602082108114156200030e57634e487b7160e01b600052602260045260246000fd5b50919050565b6128ca80620003246000396000f3fe60806040526004361061022f5760003560e01c80634f6ccce71161012e578063a22cb465116100ab578063d547741f1161006f578063d547741f1461068e578063e985e9c5146106ae578063eb8d2444146106f7578063f47c84c514610711578063f957403a1461072757600080fd5b8063a22cb465146105da578063b88d4fde146105fa578063c4e370951461061a578063c87b56dd1461063a578063d53913931461065a57600080fd5b80637146bd08116100f25780637146bd081461055857806375b238fc1461056e57806391d148541461059057806395d89b41146105b0578063a217fddf146105c557600080fd5b80634f6ccce7146104c357806355f804b3146104e35780636352211e146105035780636373a6b11461052357806370a082311461053857600080fd5b806323b872dd116101bc5780632f745c59116101805780632f745c591461043857806336568abe146104585780633ccfd60b1461047857806342842e0e1461048d5780634b369a61146104ad57600080fd5b806323b872dd146103935780632429467b146103b3578063248a9ca3146103d357806327ac36c4146104035780632f2ff15d1461041857600080fd5b8063095ea7b311610203578063095ea7b3146102f2578063109695231461031457806311e776fe1461033457806318160ddd1461035457806318b200711461037357600080fd5b8062a340bb1461023457806301ffc9a71461026857806306fdde0314610298578063081812fc146102ba575b600080fd5b34801561024057600080fd5b5061025461024f366004612245565b61073a565b604051905181526020015b60405180910390f35b34801561027457600080fd5b50610288610283366004612277565b6107bc565b604051901515815260200161025f565b3480156102a457600080fd5b506102ad6107cd565b60405161025f91906122ec565b3480156102c657600080fd5b506102da6102d5366004612245565b61085f565b6040516001600160a01b03909116815260200161025f565b3480156102fe57600080fd5b5061031261030d36600461231b565b6108e7565b005b34801561032057600080fd5b5061031261032f3660046123d1565b6109fd565b34801561034057600080fd5b5061031261034f366004612245565b610a29565b34801561036057600080fd5b506008545b60405190815260200161025f565b34801561037f57600080fd5b5061031261038e366004612245565b610a48565b34801561039f57600080fd5b506103126103ae36600461241a565b610a67565b3480156103bf57600080fd5b506103126103ce366004612245565b610a98565b3480156103df57600080fd5b506103656103ee366004612245565b6000908152600a602052604090206001015490565b34801561040f57600080fd5b50610312610b7b565b34801561042457600080fd5b50610312610433366004612456565b610c24565b34801561044457600080fd5b5061036561045336600461231b565b610c4a565b34801561046457600080fd5b50610312610473366004612456565b610ce0565b34801561048457600080fd5b50610312610d5e565b34801561049957600080fd5b506103126104a836600461241a565b610da6565b3480156104b957600080fd5b50610365600f5481565b3480156104cf57600080fd5b506103656104de366004612245565b610dc1565b3480156104ef57600080fd5b506103126104fe3660046123d1565b610e54565b34801561050f57600080fd5b506102da61051e366004612245565b610e80565b34801561052f57600080fd5b506102ad610ef7565b34801561054457600080fd5b50610365610553366004612482565b610f85565b34801561056457600080fd5b50610365600d5481565b34801561057a57600080fd5b5061036560008051602061287583398151915281565b34801561059c57600080fd5b506102886105ab366004612456565b61100c565b3480156105bc57600080fd5b506102ad611037565b3480156105d157600080fd5b50610365600081565b3480156105e657600080fd5b506103126105f53660046124ad565b611046565b34801561060657600080fd5b506103126106153660046124d7565b611051565b34801561062657600080fd5b50610312610635366004612553565b611083565b34801561064657600080fd5b506102ad610655366004612245565b6110b0565b34801561066657600080fd5b506103657f9f2df0fed2c77648de5860a4cc508cd0818c85b8b8a1ab4ceeef8d981c8956a681565b34801561069a57600080fd5b506103126106a9366004612456565b61117b565b3480156106ba57600080fd5b506102886106c936600461256e565b6001600160a01b03918216600090815260056020908152604080832093909416825291909152205460ff1690565b34801561070357600080fd5b506010546102889060ff1681565b34801561071d57600080fd5b50610365600e5481565b610312610735366004612245565b6111a1565b604080516020810190915260008152610752826113f6565b61079a5760405162461bcd60e51b8152602060048201526014602482015273151bdad95b881dd85cc81b9bdd081b5a5b9d195960621b60448201526064015b60405180910390fd5b506000908152600b602090815260409182902082519182019092529054815290565b60006107c782611413565b92915050565b6060600080546107dc90612598565b80601f016020809104026020016040519081016040528092919081815260200182805461080890612598565b80156108555780601f1061082a57610100808354040283529160200191610855565b820191906000526020600020905b81548152906001019060200180831161083857829003601f168201915b5050505050905090565b600061086a826113f6565b6108cb5760405162461bcd60e51b815260206004820152602c60248201527f4552433732313a20617070726f76656420717565727920666f72206e6f6e657860448201526b34b9ba32b73a103a37b5b2b760a11b6064820152608401610791565b506000908152600460205260409020546001600160a01b031690565b60006108f282610e80565b9050806001600160a01b0316836001600160a01b031614156109605760405162461bcd60e51b815260206004820152602160248201527f4552433732313a20617070726f76616c20746f2063757272656e74206f776e656044820152603960f91b6064820152608401610791565b336001600160a01b038216148061097c575061097c81336106c9565b6109ee5760405162461bcd60e51b815260206004820152603860248201527f4552433732313a20617070726f76652063616c6c6572206973206e6f74206f7760448201527f6e6572206e6f7220617070726f76656420666f7220616c6c00000000000000006064820152608401610791565b6109f88383611438565b505050565b600080516020612875833981519152610a1681336114a6565b81516109f890600c9060208501906121ac565b600080516020612875833981519152610a4281336114a6565b50600e55565b600080516020612875833981519152610a6181336114a6565b50600f55565b610a71338261150a565b610a8d5760405162461bcd60e51b8152600401610791906125d3565b6109f88383836115f4565b7f9f2df0fed2c77648de5860a4cc508cd0818c85b8b8a1ab4ceeef8d981c8956a6610ac381336114a6565b610acc826113f6565b15610b0c5760405162461bcd60e51b815260206004820152601060248201526f151bdad95b881dd85cc81b5a5b9d195960821b6044820152606401610791565b42610b17338461179b565b60408051602080820183528382526000868152600b82528390209151909155815185815233918101919091529081018290527f2d03118aa776f7008445f6ca8490a6782ede2db364d741513555ba656ab1879f9060600160405180910390a1505050565b600080516020612875833981519152610b9481336114a6565b60016000425b60328311610c1e57610bb66001610bb060085490565b906117b5565b9150600e548211610c0c57610bcb338361179b565b604080518381523360208201529081018290527f2d03118aa776f7008445f6ca8490a6782ede2db364d741513555ba656ab1879f9060600160405180910390a15b82610c168161263a565b935050610b9a565b50505050565b6000828152600a6020526040902060010154610c4081336114a6565b6109f883836117c1565b6000610c5583610f85565b8210610cb75760405162461bcd60e51b815260206004820152602b60248201527f455243373231456e756d657261626c653a206f776e657220696e646578206f7560448201526a74206f6620626f756e647360a81b6064820152608401610791565b506001600160a01b03919091166000908152600660209081526040808320938352929052205490565b6001600160a01b0381163314610d505760405162461bcd60e51b815260206004820152602f60248201527f416363657373436f6e74726f6c3a2063616e206f6e6c792072656e6f756e636560448201526e103937b632b9903337b91039b2b63360891b6064820152608401610791565b610d5a8282611847565b5050565b600080516020612875833981519152610d7781336114a6565b6040514790339082156108fc029083906000818181858888f193505050501580156109f8573d6000803e3d6000fd5b6109f883838360405180602001604052806000815250611051565b6000610dcc60085490565b8210610e2f5760405162461bcd60e51b815260206004820152602c60248201527f455243373231456e756d657261626c653a20676c6f62616c20696e646578206f60448201526b7574206f6620626f756e647360a01b6064820152608401610791565b60088281548110610e4257610e42612655565b90600052602060002001549050919050565b600080516020612875833981519152610e6d81336114a6565b81516109f89060119060208501906121ac565b6000818152600260205260408120546001600160a01b0316806107c75760405162461bcd60e51b815260206004820152602960248201527f4552433732313a206f776e657220717565727920666f72206e6f6e657869737460448201526832b73a103a37b5b2b760b91b6064820152608401610791565b600c8054610f0490612598565b80601f0160208091040260200160405190810160405280929190818152602001828054610f3090612598565b8015610f7d5780601f10610f5257610100808354040283529160200191610f7d565b820191906000526020600020905b815481529060010190602001808311610f6057829003601f168201915b505050505081565b60006001600160a01b038216610ff05760405162461bcd60e51b815260206004820152602a60248201527f4552433732313a2062616c616e636520717565727920666f7220746865207a65604482015269726f206164647265737360b01b6064820152608401610791565b506001600160a01b031660009081526003602052604090205490565b6000918252600a602090815260408084206001600160a01b0393909316845291905290205460ff1690565b6060600180546107dc90612598565b610d5a3383836118ae565b61105b338361150a565b6110775760405162461bcd60e51b8152600401610791906125d3565b610c1e8484848461197d565b60008051602061287583398151915261109c81336114a6565b506010805460ff1916911515919091179055565b60606110bb826113f6565b61111f5760405162461bcd60e51b815260206004820152602f60248201527f4552433732314d657461646174613a2055524920717565727920666f72206e6f60448201526e3732bc34b9ba32b73a103a37b5b2b760891b6064820152608401610791565b60006111296119b0565b905060008151116111495760405180602001604052806000815250611174565b80611153846119bf565b60405160200161116492919061266b565b6040516020818303038152906040525b9392505050565b6000828152600a602052604090206001015461119781336114a6565b6109f88383611847565b7f9f2df0fed2c77648de5860a4cc508cd0818c85b8b8a1ab4ceeef8d981c8956a66111cc81336114a6565b60105460ff1661121e5760405162461bcd60e51b815260206004820152601f60248201527f4d696e74206973206e6f7420617661696c61626c65207269676874206e6f77006044820152606401610791565b600d5482111561127a5760405162461bcd60e51b815260206004820152602160248201527f43616e206f6e6c79206d696e7420323020746f6b656e7320617420612074696d6044820152606560f81b6064820152608401610791565b600e5461128a83610bb060085490565b11156112f05760405162461bcd60e51b815260206004820152602f60248201527f507572636861736520776f756c6420657863656564206d617820737570706c7960448201526e081bd98810dbdb5a58d5da5e985c99608a1b6064820152608401610791565b600f5434906112ff9084611abd565b111561134d5760405162461bcd60e51b815260206004820152601960248201527f56616c75652073656e74206973206e6f7420636f7272656374000000000000006044820152606401610791565b42600060015b8481116113ef576113686001610bb060085490565b9150600e5482116113dd5761137d338361179b565b60408051602080820183528582526000858152600b82528390209151909155815184815233918101919091529081018490527f2d03118aa776f7008445f6ca8490a6782ede2db364d741513555ba656ab1879f9060600160405180910390a15b806113e78161263a565b915050611353565b5050505050565b6000908152600260205260409020546001600160a01b0316151590565b60006001600160e01b03198216637965db0b60e01b14806107c757506107c782611ac9565b600081815260046020526040902080546001600160a01b0319166001600160a01b038416908117909155819061146d82610e80565b6001600160a01b03167f8c5be1e5ebec7d5bd14f71427d1e84f3dd0314c0f7b2291e5b200ac8c7c3b92560405160405180910390a45050565b6114b0828261100c565b610d5a576114c8816001600160a01b03166014611aee565b6114d3836020611aee565b6040516020016114e492919061269a565b60408051601f198184030181529082905262461bcd60e51b8252610791916004016122ec565b6000611515826113f6565b6115765760405162461bcd60e51b815260206004820152602c60248201527f4552433732313a206f70657261746f7220717565727920666f72206e6f6e657860448201526b34b9ba32b73a103a37b5b2b760a11b6064820152608401610791565b600061158183610e80565b9050806001600160a01b0316846001600160a01b031614806115bc5750836001600160a01b03166115b18461085f565b6001600160a01b0316145b806115ec57506001600160a01b0380821660009081526005602090815260408083209388168352929052205460ff165b949350505050565b826001600160a01b031661160782610e80565b6001600160a01b03161461166b5760405162461bcd60e51b815260206004820152602560248201527f4552433732313a207472616e736665722066726f6d20696e636f72726563742060448201526437bbb732b960d91b6064820152608401610791565b6001600160a01b0382166116cd5760405162461bcd60e51b8152602060048201526024808201527f4552433732313a207472616e7366657220746f20746865207a65726f206164646044820152637265737360e01b6064820152608401610791565b6116d8838383611c8a565b6116e3600082611438565b6001600160a01b038316600090815260036020526040812080546001929061170c90849061270f565b90915550506001600160a01b038216600090815260036020526040812080546001929061173a908490612726565b909155505060008181526002602052604080822080546001600160a01b0319166001600160a01b0386811691821790925591518493918716917fddf252ad1be2c89b69c2b068fc378daa952ba7f163c4a11628f55a4df523b3ef91a4505050565b610d5a828260405180602001604052806000815250611c95565b60006111748284612726565b6117cb828261100c565b610d5a576000828152600a602090815260408083206001600160a01b03851684529091529020805460ff191660011790556118033390565b6001600160a01b0316816001600160a01b0316837f2f8788117e7eff1d82e926ec794901d17c78024a50270940304540a733656f0d60405160405180910390a45050565b611851828261100c565b15610d5a576000828152600a602090815260408083206001600160a01b0385168085529252808320805460ff1916905551339285917ff6391f5c32d9c69d2a47ea670b442974b53935d1edc7fd64eb21e047a839171b9190a45050565b816001600160a01b0316836001600160a01b031614156119105760405162461bcd60e51b815260206004820152601960248201527f4552433732313a20617070726f766520746f2063616c6c6572000000000000006044820152606401610791565b6001600160a01b03838116600081815260056020908152604080832094871680845294825291829020805460ff191686151590811790915591519182527f17307eab39ab6107e8899845ad3d59bd9653f200f220920489ca2b5937696c31910160405180910390a3505050565b6119888484846115f4565b61199484848484611cc8565b610c1e5760405162461bcd60e51b81526004016107919061273e565b6060601180546107dc90612598565b6060816119e35750506040805180820190915260018152600360fc1b602082015290565b8160005b8115611a0d57806119f78161263a565b9150611a069050600a836127a6565b91506119e7565b60008167ffffffffffffffff811115611a2857611a28612345565b6040519080825280601f01601f191660200182016040528015611a52576020820181803683370190505b5090505b84156115ec57611a6760018361270f565b9150611a74600a866127ba565b611a7f906030612726565b60f81b818381518110611a9457611a94612655565b60200101906001600160f81b031916908160001a905350611ab6600a866127a6565b9450611a56565b600061117482846127ce565b60006001600160e01b0319821663780e9d6360e01b14806107c757506107c782611dd5565b60606000611afd8360026127ce565b611b08906002612726565b67ffffffffffffffff811115611b2057611b20612345565b6040519080825280601f01601f191660200182016040528015611b4a576020820181803683370190505b509050600360fc1b81600081518110611b6557611b65612655565b60200101906001600160f81b031916908160001a905350600f60fb1b81600181518110611b9457611b94612655565b60200101906001600160f81b031916908160001a9053506000611bb88460026127ce565b611bc3906001612726565b90505b6001811115611c3b576f181899199a1a9b1b9c1cb0b131b232b360811b85600f1660108110611bf757611bf7612655565b1a60f81b828281518110611c0d57611c0d612655565b60200101906001600160f81b031916908160001a90535060049490941c93611c34816127ed565b9050611bc6565b5083156111745760405162461bcd60e51b815260206004820181905260248201527f537472696e67733a20686578206c656e67746820696e73756666696369656e746044820152606401610791565b6109f8838383611e25565b611c9f8383611edd565b611cac6000848484611cc8565b6109f85760405162461bcd60e51b81526004016107919061273e565b60006001600160a01b0384163b15611dca57604051630a85bd0160e11b81526001600160a01b0385169063150b7a0290611d0c903390899088908890600401612804565b602060405180830381600087803b158015611d2657600080fd5b505af1925050508015611d56575060408051601f3d908101601f19168201909252611d5391810190612841565b60015b611db0573d808015611d84576040519150601f19603f3d011682016040523d82523d6000602084013e611d89565b606091505b508051611da85760405162461bcd60e51b81526004016107919061273e565b805181602001fd5b6001600160e01b031916630a85bd0160e11b1490506115ec565b506001949350505050565b60006001600160e01b031982166380ac58cd60e01b1480611e0657506001600160e01b03198216635b5e139f60e01b145b806107c757506301ffc9a760e01b6001600160e01b03198316146107c7565b6001600160a01b038316611e8057611e7b81600880546000838152600960205260408120829055600182018355919091527ff3f7a9fe364faab93b216da50a3214154f22a0a2b415b23a84c8169e8b636ee30155565b611ea3565b816001600160a01b0316836001600160a01b031614611ea357611ea3838261201c565b6001600160a01b038216611eba576109f8816120b9565b826001600160a01b0316826001600160a01b0316146109f8576109f88282612168565b6001600160a01b038216611f335760405162461bcd60e51b815260206004820181905260248201527f4552433732313a206d696e7420746f20746865207a65726f20616464726573736044820152606401610791565b611f3c816113f6565b15611f895760405162461bcd60e51b815260206004820152601c60248201527f4552433732313a20746f6b656e20616c7265616479206d696e746564000000006044820152606401610791565b611f9560008383611c8a565b6001600160a01b0382166000908152600360205260408120805460019290611fbe908490612726565b909155505060008181526002602052604080822080546001600160a01b0319166001600160a01b03861690811790915590518392907fddf252ad1be2c89b69c2b068fc378daa952ba7f163c4a11628f55a4df523b3ef908290a45050565b6000600161202984610f85565b612033919061270f565b600083815260076020526040902054909150808214612086576001600160a01b03841660009081526006602090815260408083208584528252808320548484528184208190558352600790915290208190555b5060009182526007602090815260408084208490556001600160a01b039094168352600681528383209183525290812055565b6008546000906120cb9060019061270f565b600083815260096020526040812054600880549394509092849081106120f3576120f3612655565b90600052602060002001549050806008838154811061211457612114612655565b600091825260208083209091019290925582815260099091526040808220849055858252812055600880548061214c5761214c61285e565b6001900381819060005260206000200160009055905550505050565b600061217383610f85565b6001600160a01b039093166000908152600660209081526040808320868452825280832085905593825260079052919091209190915550565b8280546121b890612598565b90600052602060002090601f0160209004810192826121da5760008555612220565b82601f106121f357805160ff1916838001178555612220565b82800160010185558215612220579182015b82811115612220578251825591602001919060010190612205565b5061222c929150612230565b5090565b5b8082111561222c5760008155600101612231565b60006020828403121561225757600080fd5b5035919050565b6001600160e01b03198116811461227457600080fd5b50565b60006020828403121561228957600080fd5b81356111748161225e565b60005b838110156122af578181015183820152602001612297565b83811115610c1e5750506000910152565b600081518084526122d8816020860160208601612294565b601f01601f19169290920160200192915050565b60208152600061117460208301846122c0565b80356001600160a01b038116811461231657600080fd5b919050565b6000806040838503121561232e57600080fd5b612337836122ff565b946020939093013593505050565b634e487b7160e01b600052604160045260246000fd5b600067ffffffffffffffff8084111561237657612376612345565b604051601f8501601f19908116603f0116810190828211818310171561239e5761239e612345565b816040528093508581528686860111156123b757600080fd5b858560208301376000602087830101525050509392505050565b6000602082840312156123e357600080fd5b813567ffffffffffffffff8111156123fa57600080fd5b8201601f8101841361240b57600080fd5b6115ec8482356020840161235b565b60008060006060848603121561242f57600080fd5b612438846122ff565b9250612446602085016122ff565b9150604084013590509250925092565b6000806040838503121561246957600080fd5b82359150612479602084016122ff565b90509250929050565b60006020828403121561249457600080fd5b611174826122ff565b8035801515811461231657600080fd5b600080604083850312156124c057600080fd5b6124c9836122ff565b91506124796020840161249d565b600080600080608085870312156124ed57600080fd5b6124f6856122ff565b9350612504602086016122ff565b925060408501359150606085013567ffffffffffffffff81111561252757600080fd5b8501601f8101871361253857600080fd5b6125478782356020840161235b565b91505092959194509250565b60006020828403121561256557600080fd5b6111748261249d565b6000806040838503121561258157600080fd5b61258a836122ff565b9150612479602084016122ff565b600181811c908216806125ac57607f821691505b602082108114156125cd57634e487b7160e01b600052602260045260246000fd5b50919050565b60208082526031908201527f4552433732313a207472616e736665722063616c6c6572206973206e6f74206f6040820152701ddb995c881b9bdc88185c1c1c9bdd9959607a1b606082015260800190565b634e487b7160e01b600052601160045260246000fd5b600060001982141561264e5761264e612624565b5060010190565b634e487b7160e01b600052603260045260246000fd5b6000835161267d818460208801612294565b835190830190612691818360208801612294565b01949350505050565b7f416363657373436f6e74726f6c3a206163636f756e74200000000000000000008152600083516126d2816017850160208801612294565b7001034b99036b4b9b9b4b733903937b6329607d1b6017918401918201528351612703816028840160208801612294565b01602801949350505050565b60008282101561272157612721612624565b500390565b6000821982111561273957612739612624565b500190565b60208082526032908201527f4552433732313a207472616e7366657220746f206e6f6e20455243373231526560408201527131b2b4bb32b91034b6b83632b6b2b73a32b960711b606082015260800190565b634e487b7160e01b600052601260045260246000fd5b6000826127b5576127b5612790565b500490565b6000826127c9576127c9612790565b500690565b60008160001904831182151516156127e8576127e8612624565b500290565b6000816127fc576127fc612624565b506000190190565b6001600160a01b0385811682528416602082015260408101839052608060608201819052600090612837908301846122c0565b9695505050505050565b60006020828403121561285357600080fd5b81516111748161225e565b634e487b7160e01b600052603160045260246000fdfea49807205ce4d355092ef5a8a18f56e8913cf4a201fbe287825b095693c21775a26469706673582212205127cc5c575bf7aeb2107a4d53a3a4b532367784fea804f757d19422f9194f7764736f6c634300080900339f2df0fed2c77648de5860a4cc508cd0818c85b8b8a1ab4ceeef8d981c8956a6a49807205ce4d355092ef5a8a18f56e8913cf4a201fbe287825b095693c21775",
  "linkReferences": {},
  "deployedLinkReferences": {}
}