{
  "_format": "hh-sol-artifact-1",
  "contractName": "FramedCosmicWizards2D",
  "sourceName": "contracts/static/ERC721/FramedCosmicWizards2D.sol",
  "abi": [
    {
      "inputs": [],
      "stateMutability": "nonpayable",
      "type": "constructor"
    },
    {
      "anonymous": false,
      "inputs": [
        {
          "indexed": true,
          "internalType": "address",
          "name": "owner",
          "type": "address"
        },
        {
          "indexed": true,
          "internalType": "address",
          "name": "approved",
          "type": "address"
        },
        {
          "indexed": true,
          "internalType": "uint256",
          "name": "tokenId",
          "type": "uint256"
        }
      ],
      "name": "Approval",
      "type": "event"
    },
    {
      "anonymous": false,
      "inputs": [
        {
          "indexed": true,
          "internalType": "address",
          "name": "owner",
          "type": "address"
        },
        {
          "indexed": true,
          "internalType": "address",
          "name": "operator",
          "type": "address"
        },
        {
          "indexed": false,
          "internalType": "bool",
          "name": "approved",
          "type": "bool"
        }
      ],
      "name": "ApprovalForAll",
      "type": "event"
    },
    {
      "anonymous": false,
      "inputs": [
        {
          "indexed": false,
          "internalType": "address",
          "name": "account",
          "type": "address"
        }
      ],
      "name": "Paused",
      "type": "event"
    },
    {
      "anonymous": false,
      "inputs": [
        {
          "indexed": true,
          "internalType": "bytes32",
          "name": "role",
          "type": "bytes32"
        },
        {
          "indexed": true,
          "internalType": "bytes32",
          "name": "previousAdminRole",
          "type": "bytes32"
        },
        {
          "indexed": true,
          "internalType": "bytes32",
          "name": "newAdminRole",
          "type": "bytes32"
        }
      ],
      "name": "RoleAdminChanged",
      "type": "event"
    },
    {
      "anonymous": false,
      "inputs": [
        {
          "indexed": true,
          "internalType": "bytes32",
          "name": "role",
          "type": "bytes32"
        },
        {
          "indexed": true,
          "internalType": "address",
          "name": "account",
          "type": "address"
        },
        {
          "indexed": true,
          "internalType": "address",
          "name": "sender",
          "type": "address"
        }
      ],
      "name": "RoleGranted",
      "type": "event"
    },
    {
      "anonymous": false,
      "inputs": [
        {
          "indexed": true,
          "internalType": "bytes32",
          "name": "role",
          "type": "bytes32"
        },
        {
          "indexed": true,
          "internalType": "address",
          "name": "account",
          "type": "address"
        },
        {
          "indexed": true,
          "internalType": "address",
          "name": "sender",
          "type": "address"
        }
      ],
      "name": "RoleRevoked",
      "type": "event"
    },
    {
      "anonymous": false,
      "inputs": [
        {
          "indexed": true,
          "internalType": "address",
          "name": "from",
          "type": "address"
        },
        {
          "indexed": true,
          "internalType": "address",
          "name": "to",
          "type": "address"
        },
        {
          "indexed": true,
          "internalType": "uint256",
          "name": "tokenId",
          "type": "uint256"
        }
      ],
      "name": "Transfer",
      "type": "event"
    },
    {
      "anonymous": false,
      "inputs": [
        {
          "indexed": false,
          "internalType": "address",
          "name": "account",
          "type": "address"
        }
      ],
      "name": "Unpaused",
      "type": "event"
    },
    {
      "inputs": [],
      "name": "ADMIN_ROLE",
      "outputs": [
        {
          "internalType": "bytes32",
          "name": "",
          "type": "bytes32"
        }
      ],
      "stateMutability": "view",
      "type": "function"
    },
    {
      "inputs": [],
      "name": "DEFAULT_ADMIN_ROLE",
      "outputs": [
        {
          "internalType": "bytes32",
          "name": "",
          "type": "bytes32"
        }
      ],
      "stateMutability": "view",
      "type": "function"
    },
    {
      "inputs": [],
      "name": "METADATA_ROLE",
      "outputs": [
        {
          "internalType": "bytes32",
          "name": "",
          "type": "bytes32"
        }
      ],
      "stateMutability": "view",
      "type": "function"
    },
    {
      "inputs": [],
      "name": "MINTER_ROLE",
      "outputs": [
        {
          "internalType": "bytes32",
          "name": "",
          "type": "bytes32"
        }
      ],
      "stateMutability": "view",
      "type": "function"
    },
    {
      "inputs": [],
      "name": "PAUSER_ROLE",
      "outputs": [
        {
          "internalType": "bytes32",
          "name": "",
          "type": "bytes32"
        }
      ],
      "stateMutability": "view",
      "type": "function"
    },
    {
      "inputs": [
        {
          "internalType": "address",
          "name": "to",
          "type": "address"
        },
        {
          "internalType": "uint256",
          "name": "tokenId",
          "type": "uint256"
        }
      ],
      "name": "approve",
      "outputs": [],
      "stateMutability": "nonpayable",
      "type": "function"
    },
    {
      "inputs": [
        {
          "internalType": "address",
          "name": "owner",
          "type": "address"
        }
      ],
      "name": "balanceOf",
      "outputs": [
        {
          "internalType": "uint256",
          "name": "",
          "type": "uint256"
        }
      ],
      "stateMutability": "view",
      "type": "function"
    },
    {
      "inputs": [
        {
          "internalType": "uint256",
          "name": "tokenId",
          "type": "uint256"
        }
      ],
      "name": "burn",
      "outputs": [],
      "stateMutability": "nonpayable",
      "type": "function"
    },
    {
      "inputs": [],
      "name": "burnable",
      "outputs": [
        {
          "internalType": "uint256",
          "name": "",
          "type": "uint256"
        }
      ],
      "stateMutability": "view",
      "type": "function"
    },
    {
      "inputs": [
        {
          "internalType": "uint256",
          "name": "",
          "type": "uint256"
        }
      ],
      "name": "burned",
      "outputs": [
        {
          "internalType": "uint256",
          "name": "",
          "type": "uint256"
        }
      ],
      "stateMutability": "view",
      "type": "function"
    },
    {
      "inputs": [
        {
          "internalType": "uint256",
          "name": "tokenId",
          "type": "uint256"
        }
      ],
      "name": "getApproved",
      "outputs": [
        {
          "internalType": "address",
          "name": "",
          "type": "address"
        }
      ],
      "stateMutability": "view",
      "type": "function"
    },
    {
      "inputs": [
        {
          "internalType": "bytes32",
          "name": "role",
          "type": "bytes32"
        }
      ],
      "name": "getRoleAdmin",
      "outputs": [
        {
          "internalType": "bytes32",
          "name": "",
          "type": "bytes32"
        }
      ],
      "stateMutability": "view",
      "type": "function"
    },
    {
      "inputs": [
        {
          "internalType": "bytes32",
          "name": "role",
          "type": "bytes32"
        },
        {
          "internalType": "address",
          "name": "account",
          "type": "address"
        }
      ],
      "name": "grantRole",
      "outputs": [],
      "stateMutability": "nonpayable",
      "type": "function"
    },
    {
      "inputs": [
        {
          "internalType": "bytes32",
          "name": "role",
          "type": "bytes32"
        },
        {
          "internalType": "address",
          "name": "account",
          "type": "address"
        }
      ],
      "name": "hasRole",
      "outputs": [
        {
          "internalType": "bool",
          "name": "",
          "type": "bool"
        }
      ],
      "stateMutability": "view",
      "type": "function"
    },
    {
      "inputs": [
        {
          "internalType": "address",
          "name": "owner",
          "type": "address"
        },
        {
          "internalType": "address",
          "name": "operator",
          "type": "address"
        }
      ],
      "name": "isApprovedForAll",
      "outputs": [
        {
          "internalType": "bool",
          "name": "",
          "type": "bool"
        }
      ],
      "stateMutability": "view",
      "type": "function"
    },
    {
      "inputs": [],
      "name": "name",
      "outputs": [
        {
          "internalType": "string",
          "name": "",
          "type": "string"
        }
      ],
      "stateMutability": "view",
      "type": "function"
    },
    {
      "inputs": [
        {
          "internalType": "uint256",
          "name": "tokenId",
          "type": "uint256"
        }
      ],
      "name": "ownerOf",
      "outputs": [
        {
          "internalType": "address",
          "name": "",
          "type": "address"
        }
      ],
      "stateMutability": "view",
      "type": "function"
    },
    {
      "inputs": [],
      "name": "pause",
      "outputs": [],
      "stateMutability": "nonpayable",
      "type": "function"
    },
    {
      "inputs": [],
      "name": "paused",
      "outputs": [
        {
          "internalType": "bool",
          "name": "",
          "type": "bool"
        }
      ],
      "stateMutability": "view",
      "type": "function"
    },
    {
      "inputs": [
        {
          "internalType": "bytes32",
          "name": "role",
          "type": "bytes32"
        },
        {
          "internalType": "address",
          "name": "account",
          "type": "address"
        }
      ],
      "name": "renounceRole",
      "outputs": [],
      "stateMutability": "nonpayable",
      "type": "function"
    },
    {
      "inputs": [
        {
          "internalType": "bytes32",
          "name": "role",
          "type": "bytes32"
        },
        {
          "internalType": "address",
          "name": "account",
          "type": "address"
        }
      ],
      "name": "revokeRole",
      "outputs": [],
      "stateMutability": "nonpayable",
      "type": "function"
    },
    {
      "inputs": [
        {
          "internalType": "address",
          "name": "_address",
          "type": "address"
        },
        {
          "internalType": "uint256",
          "name": "tokenId",
          "type": "uint256"
        }
      ],
      "name": "safeMint",
      "outputs": [],
      "stateMutability": "nonpayable",
      "type": "function"
    },
    {
      "inputs": [
        {
          "internalType": "address",
          "name": "from",
          "type": "address"
        },
        {
          "internalType": "address",
          "name": "to",
          "type": "address"
        },
        {
          "internalType": "uint256",
          "name": "tokenId",
          "type": "uint256"
        }
      ],
      "name": "safeTransferFrom",
      "outputs": [],
      "stateMutability": "nonpayable",
      "type": "function"
    },
    {
      "inputs": [
        {
          "internalType": "address",
          "name": "from",
          "type": "address"
        },
        {
          "internalType": "address",
          "name": "to",
          "type": "address"
        },
        {
          "internalType": "uint256",
          "name": "tokenId",
          "type": "uint256"
        },
        {
          "internalType": "bytes",
          "name": "data",
          "type": "bytes"
        }
      ],
      "name": "safeTransferFrom",
      "outputs": [],
      "stateMutability": "nonpayable",
      "type": "function"
    },
    {
      "inputs": [
        {
          "internalType": "address",
          "name": "operator",
          "type": "address"
        },
        {
          "internalType": "bool",
          "name": "approved",
          "type": "bool"
        }
      ],
      "name": "setApprovalForAll",
      "outputs": [],
      "stateMutability": "nonpayable",
      "type": "function"
    },
    {
      "inputs": [
        {
          "internalType": "string",
          "name": "baseURI",
          "type": "string"
        }
      ],
      "name": "setBaseURI",
      "outputs": [],
      "stateMutability": "nonpayable",
      "type": "function"
    },
    {
      "inputs": [
        {
          "internalType": "uint256",
          "name": "state",
          "type": "uint256"
        }
      ],
      "name": "setBurnable",
      "outputs": [],
      "stateMutability": "nonpayable",
      "type": "function"
    },
    {
      "inputs": [
        {
          "internalType": "uint256",
          "name": "tokenId",
          "type": "uint256"
        },
        {
          "internalType": "string",
          "name": "_tokenURI",
          "type": "string"
        }
      ],
      "name": "setTokenURI",
      "outputs": [],
      "stateMutability": "nonpayable",
      "type": "function"
    },
    {
      "inputs": [
        {
          "internalType": "bytes4",
          "name": "interfaceId",
          "type": "bytes4"
        }
      ],
      "name": "supportsInterface",
      "outputs": [
        {
          "internalType": "bool",
          "name": "",
          "type": "bool"
        }
      ],
      "stateMutability": "view",
      "type": "function"
    },
    {
      "inputs": [],
      "name": "symbol",
      "outputs": [
        {
          "internalType": "string",
          "name": "",
          "type": "string"
        }
      ],
      "stateMutability": "view",
      "type": "function"
    },
    {
      "inputs": [
        {
          "internalType": "uint256",
          "name": "index",
          "type": "uint256"
        }
      ],
      "name": "tokenByIndex",
      "outputs": [
        {
          "internalType": "uint256",
          "name": "",
          "type": "uint256"
        }
      ],
      "stateMutability": "view",
      "type": "function"
    },
    {
      "inputs": [
        {
          "internalType": "address",
          "name": "owner",
          "type": "address"
        },
        {
          "internalType": "uint256",
          "name": "index",
          "type": "uint256"
        }
      ],
      "name": "tokenOfOwnerByIndex",
      "outputs": [
        {
          "internalType": "uint256",
          "name": "",
          "type": "uint256"
        }
      ],
      "stateMutability": "view",
      "type": "function"
    },
    {
      "inputs": [
        {
          "internalType": "uint256",
          "name": "tokenId",
          "type": "uint256"
        }
      ],
      "name": "tokenURI",
      "outputs": [
        {
          "internalType": "string",
          "name": "",
          "type": "string"
        }
      ],
      "stateMutability": "view",
      "type": "function"
    },
    {
      "inputs": [],
      "name": "totalSupply",
      "outputs": [
        {
          "internalType": "uint256",
          "name": "",
          "type": "uint256"
        }
      ],
      "stateMutability": "view",
      "type": "function"
    },
    {
      "inputs": [
        {
          "internalType": "address",
          "name": "from",
          "type": "address"
        },
        {
          "internalType": "address",
          "name": "to",
          "type": "address"
        },
        {
          "internalType": "uint256",
          "name": "tokenId",
          "type": "uint256"
        }
      ],
      "name": "transferFrom",
      "outputs": [],
      "stateMutability": "nonpayable",
      "type": "function"
    },
    {
      "inputs": [],
      "name": "unpause",
      "outputs": [],
      "stateMutability": "nonpayable",
      "type": "function"
    }
  ],
  "bytecode": "0x60806040526000600f553480156200001657600080fd5b50604080518082018252601881527f4672616d656420436f736d69632057697a61726473203244000000000000000060208083019182528351808501909452600f84526e11949053515115d25690549114cc91608a1b908401528151919291620000839160009162000293565b5080516200009990600190602084019062000293565b5050600b805460ff1916905550620000b3600033620001a3565b620000ce60008051602062002b0983398151915233620001a3565b620000e960008051602062002ac983398151915233620001a3565b6200011360008051602062002ac983398151915260008051602062002b0983398151915262000248565b6200012e60008051602062002aa983398151915233620001a3565b6200015860008051602062002aa983398151915260008051602062002b0983398151915262000248565b6200017360008051602062002ae983398151915233620001a3565b6200019d60008051602062002ae983398151915260008051602062002b0983398151915262000248565b62000376565b6000828152600c602090815260408083206001600160a01b038516845290915290205460ff1662000244576000828152600c602090815260408083206001600160a01b03851684529091529020805460ff19166001179055620002033390565b6001600160a01b0316816001600160a01b0316837f2f8788117e7eff1d82e926ec794901d17c78024a50270940304540a733656f0d60405160405180910390a45b5050565b6000828152600c6020526040808220600101805490849055905190918391839186917fbd79b86ffe0ab8e8776151514217cd7cacd52c909f66475c3af44e129f0b00ff9190a4505050565b828054620002a19062000339565b90600052602060002090601f016020900481019282620002c5576000855562000310565b82601f10620002e057805160ff191683800117855562000310565b8280016001018555821562000310579182015b8281111562000310578251825591602001919060010190620002f3565b506200031e92915062000322565b5090565b5b808211156200031e576000815560010162000323565b600181811c908216806200034e57607f821691505b602082108114156200037057634e487b7160e01b600052602260045260246000fd5b50919050565b61272380620003866000396000f3fe608060405234801561001057600080fd5b506004361061021c5760003560e01c80635c975abb11610125578063a217fddf116100ad578063c87b56dd1161007c578063c87b56dd14610498578063d5391393146104ab578063d547741f146104d2578063e63ab1e9146104e5578063e985e9c51461050c57600080fd5b8063a217fddf14610457578063a22cb4651461045f578063aeb9326c14610472578063b88d4fde1461048557600080fd5b80638456cb59116100f45780638456cb591461041857806391d148541461042057806395d89b4114610433578063a07c7ce41461043b578063a14481941461044457600080fd5b80635c975abb146103c05780636352211e146103cb57806370a08231146103de57806375b238fc146103f157600080fd5b80632f2ff15d116101a85780633f4ba83a116101775780633f4ba83a1461036c57806342842e0e1461037457806342966c68146103875780634f6ccce71461039a57806355f804b3146103ad57600080fd5b80632f2ff15d1461030c5780632f745c591461031f57806336568abe14610332578063388417821461034557600080fd5b8063162094c4116101ef578063162094c41461029e57806318160ddd146102b157806323250cae146102c357806323b872dd146102d6578063248a9ca3146102e957600080fd5b806301ffc9a71461022157806306fdde0314610249578063081812fc1461025e578063095ea7b314610289575b600080fd5b61023461022f3660046120a0565b610548565b60405190151581526020015b60405180910390f35b610251610559565b6040516102409190612115565b61027161026c366004612128565b6105eb565b6040516001600160a01b039091168152602001610240565b61029c61029736600461215d565b610612565b005b61029c6102ac366004612233565b61072d565b6008545b604051908152602001610240565b6102b56102d1366004612128565b610761565b61029c6102e436600461227a565b610782565b6102b56102f7366004612128565b6000908152600c602052604090206001015490565b61029c61031a3660046122b6565b6107b4565b6102b561032d36600461215d565b6107d9565b61029c6103403660046122b6565b61086f565b6102b57f6bd6b5318a46e5fff572d5e4258a20774aab40cc35ac7680654b9081fcc82f8081565b61029c6108ed565b61029c61038236600461227a565b610922565b61029c610395366004612128565b61093d565b6102b56103a8366004612128565b6109c4565b61029c6103bb3660046122e2565b610a57565b600b5460ff16610234565b6102716103d9366004612128565b610a94565b6102b56103ec366004612317565b610af4565b6102b57fa49807205ce4d355092ef5a8a18f56e8913cf4a201fbe287825b095693c2177581565b61029c610b7a565b61023461042e3660046122b6565b610bac565b610251610bd7565b6102b5600f5481565b61029c61045236600461215d565b610be6565b6102b5600081565b61029c61046d366004612332565b610cfe565b61029c610480366004612128565b610d09565b61029c61049336600461236e565b610d82565b6102516104a6366004612128565b610dba565b6102b57f9f2df0fed2c77648de5860a4cc508cd0818c85b8b8a1ab4ceeef8d981c8956a681565b61029c6104e03660046122b6565b610dc5565b6102b57f65d7a28e3265b37a6474929f336521b332c1681b933f6cb9f3376673440d862a81565b61023461051a3660046123ea565b6001600160a01b03918216600090815260056020908152604080832093909416825291909152205460ff1690565b600061055382610dea565b92915050565b60606000805461056890612414565b80601f016020809104026020016040519081016040528092919081815260200182805461059490612414565b80156105e15780601f106105b6576101008083540402835291602001916105e1565b820191906000526020600020905b8154815290600101906020018083116105c457829003601f168201915b5050505050905090565b60006105f682610e0f565b506000908152600460205260409020546001600160a01b031690565b600061061d82610a94565b9050806001600160a01b0316836001600160a01b031614156106905760405162461bcd60e51b815260206004820152602160248201527f4552433732313a20617070726f76616c20746f2063757272656e74206f776e656044820152603960f91b60648201526084015b60405180910390fd5b336001600160a01b03821614806106ac57506106ac813361051a565b61071e5760405162461bcd60e51b815260206004820152603e60248201527f4552433732313a20617070726f76652063616c6c6572206973206e6f7420746f60448201527f6b656e206f776e6572206e6f7220617070726f76656420666f7220616c6c00006064820152608401610687565b6107288383610e6e565b505050565b7f6bd6b5318a46e5fff572d5e4258a20774aab40cc35ac7680654b9081fcc82f8061075781610edc565b6107288383610ee6565b600e818154811061077157600080fd5b600091825260209091200154905081565b61078d335b82610f80565b6107a95760405162461bcd60e51b81526004016106879061244f565b610728838383610fff565b6000828152600c60205260409020600101546107cf81610edc565b61072883836111a6565b60006107e483610af4565b82106108465760405162461bcd60e51b815260206004820152602b60248201527f455243373231456e756d657261626c653a206f776e657220696e646578206f7560448201526a74206f6620626f756e647360a81b6064820152608401610687565b506001600160a01b03919091166000908152600660209081526040808320938352929052205490565b6001600160a01b03811633146108df5760405162461bcd60e51b815260206004820152602f60248201527f416363657373436f6e74726f6c3a2063616e206f6e6c792072656e6f756e636560448201526e103937b632b9903337b91039b2b63360891b6064820152608401610687565b6108e9828261122c565b5050565b7f65d7a28e3265b37a6474929f336521b332c1681b933f6cb9f3376673440d862a61091781610edc565b61091f611293565b50565b61072883838360405180602001604052806000815250610d82565b600f54156109865760405162461bcd60e51b8152602060048201526016602482015275109d5c9b9a5b99c81a5cc81b9bdd08195b98589b195960521b6044820152606401610687565b61098f816112e5565b600e80546001810182556000919091527fbb7b4a454dc3493923482f07822329ed19e8244eff582cc204f8554c3620c3fd0155565b60006109cf60085490565b8210610a325760405162461bcd60e51b815260206004820152602c60248201527f455243373231456e756d657261626c653a20676c6f62616c20696e646578206f60448201526b7574206f6620626f756e647360a01b6064820152608401610687565b60088281548110610a4557610a4561249d565b90600052602060002001549050919050565b7f6bd6b5318a46e5fff572d5e4258a20774aab40cc35ac7680654b9081fcc82f80610a8181610edc565b815161072890600d906020850190611fbb565b6000818152600260205260408120546001600160a01b0316806105535760405162461bcd60e51b8152602060048201526018602482015277115490cdcc8c4e881a5b9d985b1a59081d1bdad95b88125160421b6044820152606401610687565b60006001600160a01b038216610b5e5760405162461bcd60e51b815260206004820152602960248201527f4552433732313a2061646472657373207a65726f206973206e6f7420612076616044820152683634b21037bbb732b960b91b6064820152608401610687565b506001600160a01b031660009081526003602052604090205490565b7f65d7a28e3265b37a6474929f336521b332c1681b933f6cb9f3376673440d862a610ba481610edc565b61091f611313565b6000918252600c602090815260408084206001600160a01b0393909316845291905290205460ff1690565b60606001805461056890612414565b7f9f2df0fed2c77648de5860a4cc508cd0818c85b8b8a1ab4ceeef8d981c8956a6610c1081610edc565b610c18611350565b600082118015610c29575061271082105b610c675760405162461bcd60e51b815260206004820152600f60248201526e125b9d985b1a59081d1bdad95b9259608a1b6044820152606401610687565b60005b600e54811015610cf357600e8181548110610c8757610c8761249d565b9060005260206000200154831415610ce15760405162461bcd60e51b815260206004820152601f60248201527f546f6b656e20616c7265616479206d696e74656420616e64206275726e6564006044820152606401610687565b80610ceb816124c9565b915050610c6a565b506107288383611398565b6108e93383836113b2565b7fa49807205ce4d355092ef5a8a18f56e8913cf4a201fbe287825b095693c21775610d3381610edc565b811580610d405750816001145b610d7c5760405162461bcd60e51b815260206004820152600d60248201526c496e76616c696420737461746560981b6044820152606401610687565b50600f55565b610d8c3383610f80565b610da85760405162461bcd60e51b81526004016106879061244f565b610db484848484611481565b50505050565b6060610553826114b4565b6000828152600c6020526040902060010154610de081610edc565b610728838361122c565b60006001600160e01b03198216637965db0b60e01b14806105535750610553826115b0565b6000818152600260205260409020546001600160a01b031661091f5760405162461bcd60e51b8152602060048201526018602482015277115490cdcc8c4e881a5b9d985b1a59081d1bdad95b88125160421b6044820152606401610687565b600081815260046020526040902080546001600160a01b0319166001600160a01b0384169081179091558190610ea382610a94565b6001600160a01b03167f8c5be1e5ebec7d5bd14f71427d1e84f3dd0314c0f7b2291e5b200ac8c7c3b92560405160405180910390a45050565b61091f81336115d5565b6000828152600260205260409020546001600160a01b0316610f615760405162461bcd60e51b815260206004820152602e60248201527f45524337323155524953746f726167653a2055524920736574206f66206e6f6e60448201526d32bc34b9ba32b73a103a37b5b2b760911b6064820152608401610687565b6000828152600a60209081526040909120825161072892840190611fbb565b600080610f8c83610a94565b9050806001600160a01b0316846001600160a01b03161480610fd357506001600160a01b0380821660009081526005602090815260408083209388168352929052205460ff165b80610ff75750836001600160a01b0316610fec846105eb565b6001600160a01b0316145b949350505050565b826001600160a01b031661101282610a94565b6001600160a01b0316146110765760405162461bcd60e51b815260206004820152602560248201527f4552433732313a207472616e736665722066726f6d20696e636f72726563742060448201526437bbb732b960d91b6064820152608401610687565b6001600160a01b0382166110d85760405162461bcd60e51b8152602060048201526024808201527f4552433732313a207472616e7366657220746f20746865207a65726f206164646044820152637265737360e01b6064820152608401610687565b6110e3838383611639565b6110ee600082610e6e565b6001600160a01b03831660009081526003602052604081208054600192906111179084906124e4565b90915550506001600160a01b03821660009081526003602052604081208054600192906111459084906124fb565b909155505060008181526002602052604080822080546001600160a01b0319166001600160a01b0386811691821790925591518493918716917fddf252ad1be2c89b69c2b068fc378daa952ba7f163c4a11628f55a4df523b3ef91a4505050565b6111b08282610bac565b6108e9576000828152600c602090815260408083206001600160a01b03851684529091529020805460ff191660011790556111e83390565b6001600160a01b0316816001600160a01b0316837f2f8788117e7eff1d82e926ec794901d17c78024a50270940304540a733656f0d60405160405180910390a45050565b6112368282610bac565b156108e9576000828152600c602090815260408083206001600160a01b0385168085529252808320805460ff1916905551339285917ff6391f5c32d9c69d2a47ea670b442974b53935d1edc7fd64eb21e047a839171b9190a45050565b61129b61164c565b600b805460ff191690557f5db9ee0a495bf2e6ff9c91a7834c1ba4fdd244a5e8aa4e537bd38aeae4b073aa335b6040516001600160a01b03909116815260200160405180910390a1565b6112ee33610787565b61130a5760405162461bcd60e51b81526004016106879061244f565b61091f81611695565b61131b611350565b600b805460ff191660011790557f62e78cea01bee320cd4e420270b5ea74000d11b0c9f74754ebdbfc544b05a2586112c83390565b600b5460ff16156113965760405162461bcd60e51b815260206004820152601060248201526f14185d5cd8589b194e881c185d5cd95960821b6044820152606401610687565b565b6108e982826040518060200160405280600081525061169e565b816001600160a01b0316836001600160a01b031614156114145760405162461bcd60e51b815260206004820152601960248201527f4552433732313a20617070726f766520746f2063616c6c6572000000000000006044820152606401610687565b6001600160a01b03838116600081815260056020908152604080832094871680845294825291829020805460ff191686151590811790915591519182527f17307eab39ab6107e8899845ad3d59bd9653f200f220920489ca2b5937696c31910160405180910390a3505050565b61148c848484610fff565b611498848484846116d1565b610db45760405162461bcd60e51b815260040161068790612513565b60606114bf82610e0f565b6000828152600a6020526040812080546114d890612414565b80601f016020809104026020016040519081016040528092919081815260200182805461150490612414565b80156115515780601f1061152657610100808354040283529160200191611551565b820191906000526020600020905b81548152906001019060200180831161153457829003601f168201915b5050505050905060006115626117de565b9050805160001415611575575092915050565b8151156115a757808260405160200161158f929190612565565b60405160208183030381529060405292505050919050565b610ff7846117ed565b60006001600160e01b0319821663780e9d6360e01b1480610553575061055382611854565b6115df8282610bac565b6108e9576115f7816001600160a01b031660146118a4565b6116028360206118a4565b604051602001611613929190612594565b60408051601f198184030181529082905262461bcd60e51b825261068791600401612115565b611641611350565b610728838383611a40565b600b5460ff166113965760405162461bcd60e51b815260206004820152601460248201527314185d5cd8589b194e881b9bdd081c185d5cd95960621b6044820152606401610687565b61091f81611af8565b6116a88383611b38565b6116b560008484846116d1565b6107285760405162461bcd60e51b815260040161068790612513565b60006001600160a01b0384163b156117d357604051630a85bd0160e11b81526001600160a01b0385169063150b7a0290611715903390899088908890600401612609565b602060405180830381600087803b15801561172f57600080fd5b505af192505050801561175f575060408051601f3d908101601f1916820190925261175c91810190612646565b60015b6117b9573d80801561178d576040519150601f19603f3d011682016040523d82523d6000602084013e611792565b606091505b5080516117b15760405162461bcd60e51b815260040161068790612513565b805181602001fd5b6001600160e01b031916630a85bd0160e11b149050610ff7565b506001949350505050565b6060600d805461056890612414565b60606117f882610e0f565b60006118026117de565b90506000815111611822576040518060200160405280600081525061184d565b8061182c84611c86565b60405160200161183d929190612565565b6040516020818303038152906040525b9392505050565b60006001600160e01b031982166380ac58cd60e01b148061188557506001600160e01b03198216635b5e139f60e01b145b8061055357506301ffc9a760e01b6001600160e01b0319831614610553565b606060006118b3836002612663565b6118be9060026124fb565b67ffffffffffffffff8111156118d6576118d6612187565b6040519080825280601f01601f191660200182016040528015611900576020820181803683370190505b509050600360fc1b8160008151811061191b5761191b61249d565b60200101906001600160f81b031916908160001a905350600f60fb1b8160018151811061194a5761194a61249d565b60200101906001600160f81b031916908160001a905350600061196e846002612663565b6119799060016124fb565b90505b60018111156119f1576f181899199a1a9b1b9c1cb0b131b232b360811b85600f16601081106119ad576119ad61249d565b1a60f81b8282815181106119c3576119c361249d565b60200101906001600160f81b031916908160001a90535060049490941c936119ea81612682565b905061197c565b50831561184d5760405162461bcd60e51b815260206004820181905260248201527f537472696e67733a20686578206c656e67746820696e73756666696369656e746044820152606401610687565b6001600160a01b038316611a9b57611a9681600880546000838152600960205260408120829055600182018355919091527ff3f7a9fe364faab93b216da50a3214154f22a0a2b415b23a84c8169e8b636ee30155565b611abe565b816001600160a01b0316836001600160a01b031614611abe57611abe8382611d84565b6001600160a01b038216611ad55761072881611e21565b826001600160a01b0316826001600160a01b031614610728576107288282611ed0565b611b0181611f14565b6000818152600a602052604090208054611b1a90612414565b15905061091f576000818152600a6020526040812061091f9161203f565b6001600160a01b038216611b8e5760405162461bcd60e51b815260206004820181905260248201527f4552433732313a206d696e7420746f20746865207a65726f20616464726573736044820152606401610687565b6000818152600260205260409020546001600160a01b031615611bf35760405162461bcd60e51b815260206004820152601c60248201527f4552433732313a20746f6b656e20616c7265616479206d696e746564000000006044820152606401610687565b611bff60008383611639565b6001600160a01b0382166000908152600360205260408120805460019290611c289084906124fb565b909155505060008181526002602052604080822080546001600160a01b0319166001600160a01b03861690811790915590518392907fddf252ad1be2c89b69c2b068fc378daa952ba7f163c4a11628f55a4df523b3ef908290a45050565b606081611caa5750506040805180820190915260018152600360fc1b602082015290565b8160005b8115611cd45780611cbe816124c9565b9150611ccd9050600a836126af565b9150611cae565b60008167ffffffffffffffff811115611cef57611cef612187565b6040519080825280601f01601f191660200182016040528015611d19576020820181803683370190505b5090505b8415610ff757611d2e6001836124e4565b9150611d3b600a866126c3565b611d469060306124fb565b60f81b818381518110611d5b57611d5b61249d565b60200101906001600160f81b031916908160001a905350611d7d600a866126af565b9450611d1d565b60006001611d9184610af4565b611d9b91906124e4565b600083815260076020526040902054909150808214611dee576001600160a01b03841660009081526006602090815260408083208584528252808320548484528184208190558352600790915290208190555b5060009182526007602090815260408084208490556001600160a01b039094168352600681528383209183525290812055565b600854600090611e33906001906124e4565b60008381526009602052604081205460088054939450909284908110611e5b57611e5b61249d565b906000526020600020015490508060088381548110611e7c57611e7c61249d565b6000918252602080832090910192909255828152600990915260408082208490558582528120556008805480611eb457611eb46126d7565b6001900381819060005260206000200160009055905550505050565b6000611edb83610af4565b6001600160a01b039093166000908152600660209081526040808320868452825280832085905593825260079052919091209190915550565b6000611f1f82610a94565b9050611f2d81600084611639565b611f38600083610e6e565b6001600160a01b0381166000908152600360205260408120805460019290611f619084906124e4565b909155505060008281526002602052604080822080546001600160a01b0319169055518391906001600160a01b038416907fddf252ad1be2c89b69c2b068fc378daa952ba7f163c4a11628f55a4df523b3ef908390a45050565b828054611fc790612414565b90600052602060002090601f016020900481019282611fe9576000855561202f565b82601f1061200257805160ff191683800117855561202f565b8280016001018555821561202f579182015b8281111561202f578251825591602001919060010190612014565b5061203b929150612075565b5090565b50805461204b90612414565b6000825580601f1061205b575050565b601f01602090049060005260206000209081019061091f91905b5b8082111561203b5760008155600101612076565b6001600160e01b03198116811461091f57600080fd5b6000602082840312156120b257600080fd5b813561184d8161208a565b60005b838110156120d85781810151838201526020016120c0565b83811115610db45750506000910152565b600081518084526121018160208601602086016120bd565b601f01601f19169290920160200192915050565b60208152600061184d60208301846120e9565b60006020828403121561213a57600080fd5b5035919050565b80356001600160a01b038116811461215857600080fd5b919050565b6000806040838503121561217057600080fd5b61217983612141565b946020939093013593505050565b634e487b7160e01b600052604160045260246000fd5b600067ffffffffffffffff808411156121b8576121b8612187565b604051601f8501601f19908116603f011681019082821181831017156121e0576121e0612187565b816040528093508581528686860111156121f957600080fd5b858560208301376000602087830101525050509392505050565b600082601f83011261222457600080fd5b61184d8383356020850161219d565b6000806040838503121561224657600080fd5b82359150602083013567ffffffffffffffff81111561226457600080fd5b61227085828601612213565b9150509250929050565b60008060006060848603121561228f57600080fd5b61229884612141565b92506122a660208501612141565b9150604084013590509250925092565b600080604083850312156122c957600080fd5b823591506122d960208401612141565b90509250929050565b6000602082840312156122f457600080fd5b813567ffffffffffffffff81111561230b57600080fd5b610ff784828501612213565b60006020828403121561232957600080fd5b61184d82612141565b6000806040838503121561234557600080fd5b61234e83612141565b91506020830135801515811461236357600080fd5b809150509250929050565b6000806000806080858703121561238457600080fd5b61238d85612141565b935061239b60208601612141565b925060408501359150606085013567ffffffffffffffff8111156123be57600080fd5b8501601f810187136123cf57600080fd5b6123de8782356020840161219d565b91505092959194509250565b600080604083850312156123fd57600080fd5b61240683612141565b91506122d960208401612141565b600181811c9082168061242857607f821691505b6020821081141561244957634e487b7160e01b600052602260045260246000fd5b50919050565b6020808252602e908201527f4552433732313a2063616c6c6572206973206e6f7420746f6b656e206f776e6560408201526d1c881b9bdc88185c1c1c9bdd995960921b606082015260800190565b634e487b7160e01b600052603260045260246000fd5b634e487b7160e01b600052601160045260246000fd5b60006000198214156124dd576124dd6124b3565b5060010190565b6000828210156124f6576124f66124b3565b500390565b6000821982111561250e5761250e6124b3565b500190565b60208082526032908201527f4552433732313a207472616e7366657220746f206e6f6e20455243373231526560408201527131b2b4bb32b91034b6b83632b6b2b73a32b960711b606082015260800190565b600083516125778184602088016120bd565b83519083019061258b8183602088016120bd565b01949350505050565b7f416363657373436f6e74726f6c3a206163636f756e74200000000000000000008152600083516125cc8160178501602088016120bd565b7001034b99036b4b9b9b4b733903937b6329607d1b60179184019182015283516125fd8160288401602088016120bd565b01602801949350505050565b6001600160a01b038581168252841660208201526040810183905260806060820181905260009061263c908301846120e9565b9695505050505050565b60006020828403121561265857600080fd5b815161184d8161208a565b600081600019048311821515161561267d5761267d6124b3565b500290565b600081612691576126916124b3565b506000190190565b634e487b7160e01b600052601260045260246000fd5b6000826126be576126be612699565b500490565b6000826126d2576126d2612699565b500690565b634e487b7160e01b600052603160045260246000fdfea2646970667358221220f8221c18e2a1b3ac0eb847cb8d07c795531d216193db4fa1d01021046294710464736f6c634300080900336bd6b5318a46e5fff572d5e4258a20774aab40cc35ac7680654b9081fcc82f8065d7a28e3265b37a6474929f336521b332c1681b933f6cb9f3376673440d862a9f2df0fed2c77648de5860a4cc508cd0818c85b8b8a1ab4ceeef8d981c8956a6a49807205ce4d355092ef5a8a18f56e8913cf4a201fbe287825b095693c21775",
  "linkReferences": {},
  "deployedLinkReferences": {}
}