{
  "_format": "hh-sol-artifact-1",
  "contractName": "FramedCosmicWizards2D",
  "sourceName": "contracts/static/ERC721/FramedCosmicWizards2D.sol",
  "abi": [
    {
      "inputs": [],
      "stateMutability": "nonpayable",
      "type": "constructor"
    },
    {
      "anonymous": false,
      "inputs": [
        {
          "indexed": true,
          "internalType": "address",
          "name": "owner",
          "type": "address"
        },
        {
          "indexed": true,
          "internalType": "address",
          "name": "approved",
          "type": "address"
        },
        {
          "indexed": true,
          "internalType": "uint256",
          "name": "tokenId",
          "type": "uint256"
        }
      ],
      "name": "Approval",
      "type": "event"
    },
    {
      "anonymous": false,
      "inputs": [
        {
          "indexed": true,
          "internalType": "address",
          "name": "owner",
          "type": "address"
        },
        {
          "indexed": true,
          "internalType": "address",
          "name": "operator",
          "type": "address"
        },
        {
          "indexed": false,
          "internalType": "bool",
          "name": "approved",
          "type": "bool"
        }
      ],
      "name": "ApprovalForAll",
      "type": "event"
    },
    {
      "anonymous": false,
      "inputs": [
        {
          "indexed": false,
          "internalType": "address",
          "name": "account",
          "type": "address"
        }
      ],
      "name": "Paused",
      "type": "event"
    },
    {
      "anonymous": false,
      "inputs": [
        {
          "indexed": true,
          "internalType": "bytes32",
          "name": "role",
          "type": "bytes32"
        },
        {
          "indexed": true,
          "internalType": "bytes32",
          "name": "previousAdminRole",
          "type": "bytes32"
        },
        {
          "indexed": true,
          "internalType": "bytes32",
          "name": "newAdminRole",
          "type": "bytes32"
        }
      ],
      "name": "RoleAdminChanged",
      "type": "event"
    },
    {
      "anonymous": false,
      "inputs": [
        {
          "indexed": true,
          "internalType": "bytes32",
          "name": "role",
          "type": "bytes32"
        },
        {
          "indexed": true,
          "internalType": "address",
          "name": "account",
          "type": "address"
        },
        {
          "indexed": true,
          "internalType": "address",
          "name": "sender",
          "type": "address"
        }
      ],
      "name": "RoleGranted",
      "type": "event"
    },
    {
      "anonymous": false,
      "inputs": [
        {
          "indexed": true,
          "internalType": "bytes32",
          "name": "role",
          "type": "bytes32"
        },
        {
          "indexed": true,
          "internalType": "address",
          "name": "account",
          "type": "address"
        },
        {
          "indexed": true,
          "internalType": "address",
          "name": "sender",
          "type": "address"
        }
      ],
      "name": "RoleRevoked",
      "type": "event"
    },
    {
      "anonymous": false,
      "inputs": [
        {
          "indexed": true,
          "internalType": "address",
          "name": "from",
          "type": "address"
        },
        {
          "indexed": true,
          "internalType": "address",
          "name": "to",
          "type": "address"
        },
        {
          "indexed": true,
          "internalType": "uint256",
          "name": "tokenId",
          "type": "uint256"
        }
      ],
      "name": "Transfer",
      "type": "event"
    },
    {
      "anonymous": false,
      "inputs": [
        {
          "indexed": false,
          "internalType": "address",
          "name": "account",
          "type": "address"
        }
      ],
      "name": "Unpaused",
      "type": "event"
    },
    {
      "inputs": [],
      "name": "ADMIN_ROLE",
      "outputs": [
        {
          "internalType": "bytes32",
          "name": "",
          "type": "bytes32"
        }
      ],
      "stateMutability": "view",
      "type": "function"
    },
    {
      "inputs": [],
      "name": "DEFAULT_ADMIN_ROLE",
      "outputs": [
        {
          "internalType": "bytes32",
          "name": "",
          "type": "bytes32"
        }
      ],
      "stateMutability": "view",
      "type": "function"
    },
    {
      "inputs": [],
      "name": "METADATA_ROLE",
      "outputs": [
        {
          "internalType": "bytes32",
          "name": "",
          "type": "bytes32"
        }
      ],
      "stateMutability": "view",
      "type": "function"
    },
    {
      "inputs": [],
      "name": "MINTER_ROLE",
      "outputs": [
        {
          "internalType": "bytes32",
          "name": "",
          "type": "bytes32"
        }
      ],
      "stateMutability": "view",
      "type": "function"
    },
    {
      "inputs": [],
      "name": "PAUSER_ROLE",
      "outputs": [
        {
          "internalType": "bytes32",
          "name": "",
          "type": "bytes32"
        }
      ],
      "stateMutability": "view",
      "type": "function"
    },
    {
      "inputs": [
        {
          "internalType": "address",
          "name": "to",
          "type": "address"
        },
        {
          "internalType": "uint256",
          "name": "tokenId",
          "type": "uint256"
        }
      ],
      "name": "approve",
      "outputs": [],
      "stateMutability": "nonpayable",
      "type": "function"
    },
    {
      "inputs": [
        {
          "internalType": "address",
          "name": "owner",
          "type": "address"
        }
      ],
      "name": "balanceOf",
      "outputs": [
        {
          "internalType": "uint256",
          "name": "",
          "type": "uint256"
        }
      ],
      "stateMutability": "view",
      "type": "function"
    },
    {
      "inputs": [
        {
          "internalType": "uint256",
          "name": "tokenId",
          "type": "uint256"
        }
      ],
      "name": "burn",
      "outputs": [],
      "stateMutability": "nonpayable",
      "type": "function"
    },
    {
      "inputs": [],
      "name": "burnable",
      "outputs": [
        {
          "internalType": "uint256",
          "name": "",
          "type": "uint256"
        }
      ],
      "stateMutability": "view",
      "type": "function"
    },
    {
      "inputs": [
        {
          "internalType": "uint256",
          "name": "",
          "type": "uint256"
        }
      ],
      "name": "burned",
      "outputs": [
        {
          "internalType": "uint256",
          "name": "",
          "type": "uint256"
        }
      ],
      "stateMutability": "view",
      "type": "function"
    },
    {
      "inputs": [
        {
          "internalType": "uint256",
          "name": "tokenId",
          "type": "uint256"
        }
      ],
      "name": "getApproved",
      "outputs": [
        {
          "internalType": "address",
          "name": "",
          "type": "address"
        }
      ],
      "stateMutability": "view",
      "type": "function"
    },
    {
      "inputs": [
        {
          "internalType": "bytes32",
          "name": "role",
          "type": "bytes32"
        }
      ],
      "name": "getRoleAdmin",
      "outputs": [
        {
          "internalType": "bytes32",
          "name": "",
          "type": "bytes32"
        }
      ],
      "stateMutability": "view",
      "type": "function"
    },
    {
      "inputs": [
        {
          "internalType": "bytes32",
          "name": "role",
          "type": "bytes32"
        },
        {
          "internalType": "address",
          "name": "account",
          "type": "address"
        }
      ],
      "name": "grantRole",
      "outputs": [],
      "stateMutability": "nonpayable",
      "type": "function"
    },
    {
      "inputs": [
        {
          "internalType": "bytes32",
          "name": "role",
          "type": "bytes32"
        },
        {
          "internalType": "address",
          "name": "account",
          "type": "address"
        }
      ],
      "name": "hasRole",
      "outputs": [
        {
          "internalType": "bool",
          "name": "",
          "type": "bool"
        }
      ],
      "stateMutability": "view",
      "type": "function"
    },
    {
      "inputs": [
        {
          "internalType": "address",
          "name": "owner",
          "type": "address"
        },
        {
          "internalType": "address",
          "name": "operator",
          "type": "address"
        }
      ],
      "name": "isApprovedForAll",
      "outputs": [
        {
          "internalType": "bool",
          "name": "",
          "type": "bool"
        }
      ],
      "stateMutability": "view",
      "type": "function"
    },
    {
      "inputs": [],
      "name": "name",
      "outputs": [
        {
          "internalType": "string",
          "name": "",
          "type": "string"
        }
      ],
      "stateMutability": "view",
      "type": "function"
    },
    {
      "inputs": [
        {
          "internalType": "uint256",
          "name": "tokenId",
          "type": "uint256"
        }
      ],
      "name": "ownerOf",
      "outputs": [
        {
          "internalType": "address",
          "name": "",
          "type": "address"
        }
      ],
      "stateMutability": "view",
      "type": "function"
    },
    {
      "inputs": [],
      "name": "pause",
      "outputs": [],
      "stateMutability": "nonpayable",
      "type": "function"
    },
    {
      "inputs": [],
      "name": "paused",
      "outputs": [
        {
          "internalType": "bool",
          "name": "",
          "type": "bool"
        }
      ],
      "stateMutability": "view",
      "type": "function"
    },
    {
      "inputs": [
        {
          "internalType": "bytes32",
          "name": "role",
          "type": "bytes32"
        },
        {
          "internalType": "address",
          "name": "account",
          "type": "address"
        }
      ],
      "name": "renounceRole",
      "outputs": [],
      "stateMutability": "nonpayable",
      "type": "function"
    },
    {
      "inputs": [
        {
          "internalType": "bytes32",
          "name": "role",
          "type": "bytes32"
        },
        {
          "internalType": "address",
          "name": "account",
          "type": "address"
        }
      ],
      "name": "revokeRole",
      "outputs": [],
      "stateMutability": "nonpayable",
      "type": "function"
    },
    {
      "inputs": [
        {
          "internalType": "address",
          "name": "_address",
          "type": "address"
        },
        {
          "internalType": "uint256",
          "name": "tokenId",
          "type": "uint256"
        }
      ],
      "name": "safeMint",
      "outputs": [],
      "stateMutability": "nonpayable",
      "type": "function"
    },
    {
      "inputs": [
        {
          "internalType": "address",
          "name": "from",
          "type": "address"
        },
        {
          "internalType": "address",
          "name": "to",
          "type": "address"
        },
        {
          "internalType": "uint256",
          "name": "tokenId",
          "type": "uint256"
        }
      ],
      "name": "safeTransferFrom",
      "outputs": [],
      "stateMutability": "nonpayable",
      "type": "function"
    },
    {
      "inputs": [
        {
          "internalType": "address",
          "name": "from",
          "type": "address"
        },
        {
          "internalType": "address",
          "name": "to",
          "type": "address"
        },
        {
          "internalType": "uint256",
          "name": "tokenId",
          "type": "uint256"
        },
        {
          "internalType": "bytes",
          "name": "data",
          "type": "bytes"
        }
      ],
      "name": "safeTransferFrom",
      "outputs": [],
      "stateMutability": "nonpayable",
      "type": "function"
    },
    {
      "inputs": [
        {
          "internalType": "address",
          "name": "operator",
          "type": "address"
        },
        {
          "internalType": "bool",
          "name": "approved",
          "type": "bool"
        }
      ],
      "name": "setApprovalForAll",
      "outputs": [],
      "stateMutability": "nonpayable",
      "type": "function"
    },
    {
      "inputs": [
        {
          "internalType": "string",
          "name": "baseURI",
          "type": "string"
        }
      ],
      "name": "setBaseURI",
      "outputs": [],
      "stateMutability": "nonpayable",
      "type": "function"
    },
    {
      "inputs": [
        {
          "internalType": "uint256",
          "name": "state",
          "type": "uint256"
        }
      ],
      "name": "setBurnable",
      "outputs": [],
      "stateMutability": "nonpayable",
      "type": "function"
    },
    {
      "inputs": [
        {
          "internalType": "uint256",
          "name": "tokenId",
          "type": "uint256"
        },
        {
          "internalType": "string",
          "name": "_tokenURI",
          "type": "string"
        }
      ],
      "name": "setTokenURI",
      "outputs": [],
      "stateMutability": "nonpayable",
      "type": "function"
    },
    {
      "inputs": [
        {
          "internalType": "bytes4",
          "name": "interfaceId",
          "type": "bytes4"
        }
      ],
      "name": "supportsInterface",
      "outputs": [
        {
          "internalType": "bool",
          "name": "",
          "type": "bool"
        }
      ],
      "stateMutability": "view",
      "type": "function"
    },
    {
      "inputs": [],
      "name": "symbol",
      "outputs": [
        {
          "internalType": "string",
          "name": "",
          "type": "string"
        }
      ],
      "stateMutability": "view",
      "type": "function"
    },
    {
      "inputs": [
        {
          "internalType": "uint256",
          "name": "index",
          "type": "uint256"
        }
      ],
      "name": "tokenByIndex",
      "outputs": [
        {
          "internalType": "uint256",
          "name": "",
          "type": "uint256"
        }
      ],
      "stateMutability": "view",
      "type": "function"
    },
    {
      "inputs": [
        {
          "internalType": "address",
          "name": "owner",
          "type": "address"
        },
        {
          "internalType": "uint256",
          "name": "index",
          "type": "uint256"
        }
      ],
      "name": "tokenOfOwnerByIndex",
      "outputs": [
        {
          "internalType": "uint256",
          "name": "",
          "type": "uint256"
        }
      ],
      "stateMutability": "view",
      "type": "function"
    },
    {
      "inputs": [
        {
          "internalType": "uint256",
          "name": "tokenId",
          "type": "uint256"
        }
      ],
      "name": "tokenURI",
      "outputs": [
        {
          "internalType": "string",
          "name": "",
          "type": "string"
        }
      ],
      "stateMutability": "view",
      "type": "function"
    },
    {
      "inputs": [],
      "name": "totalSupply",
      "outputs": [
        {
          "internalType": "uint256",
          "name": "",
          "type": "uint256"
        }
      ],
      "stateMutability": "view",
      "type": "function"
    },
    {
      "inputs": [
        {
          "internalType": "address",
          "name": "from",
          "type": "address"
        },
        {
          "internalType": "address",
          "name": "to",
          "type": "address"
        },
        {
          "internalType": "uint256",
          "name": "tokenId",
          "type": "uint256"
        }
      ],
      "name": "transferFrom",
      "outputs": [],
      "stateMutability": "nonpayable",
      "type": "function"
    },
    {
      "inputs": [],
      "name": "unpause",
      "outputs": [],
      "stateMutability": "nonpayable",
      "type": "function"
    }
  ],
  "bytecode": "0x60806040526000600f553480156200001657600080fd5b506040518060400160405280601881526020017f4672616d656420436f736d69632057697a6172647320324400000000000000008152506040518060400160405280600f81526020016e11949053515115d25690549114cc91608a1b815250816000908162000086919062000334565b50600162000095828262000334565b5050600b805460ff1916905550620000af6000336200019f565b620000ca60008051602062002d82833981519152336200019f565b620000e560008051602062002d42833981519152336200019f565b6200010f60008051602062002d4283398151915260008051602062002d8283398151915262000244565b6200012a60008051602062002d22833981519152336200019f565b6200015460008051602062002d2283398151915260008051602062002d8283398151915262000244565b6200016f60008051602062002d62833981519152336200019f565b6200019960008051602062002d6283398151915260008051602062002d8283398151915262000244565b62000400565b6000828152600c602090815260408083206001600160a01b038516845290915290205460ff1662000240576000828152600c602090815260408083206001600160a01b03851684529091529020805460ff19166001179055620001ff3390565b6001600160a01b0316816001600160a01b0316837f2f8788117e7eff1d82e926ec794901d17c78024a50270940304540a733656f0d60405160405180910390a45b5050565b6000828152600c6020526040808220600101805490849055905190918391839186917fbd79b86ffe0ab8e8776151514217cd7cacd52c909f66475c3af44e129f0b00ff9190a4505050565b634e487b7160e01b600052604160045260246000fd5b600181811c90821680620002ba57607f821691505b602082108103620002db57634e487b7160e01b600052602260045260246000fd5b50919050565b601f8211156200032f57600081815260208120601f850160051c810160208610156200030a5750805b601f850160051c820191505b818110156200032b5782815560010162000316565b5050505b505050565b81516001600160401b038111156200035057620003506200028f565b6200036881620003618454620002a5565b84620002e1565b602080601f831160018114620003a05760008415620003875750858301515b600019600386901b1c1916600185901b1785556200032b565b600085815260208120601f198616915b82811015620003d157888601518255948401946001909101908401620003b0565b5085821015620003f05787850151600019600388901b60f8161c191681555b5050505050600190811b01905550565b61291280620004106000396000f3fe608060405234801561001057600080fd5b506004361061021c5760003560e01c80635c975abb11610125578063a217fddf116100ad578063c87b56dd1161007c578063c87b56dd14610498578063d5391393146104ab578063d547741f146104d2578063e63ab1e9146104e5578063e985e9c51461050c57600080fd5b8063a217fddf14610457578063a22cb4651461045f578063aeb9326c14610472578063b88d4fde1461048557600080fd5b80638456cb59116100f45780638456cb591461041857806391d148541461042057806395d89b4114610433578063a07c7ce41461043b578063a14481941461044457600080fd5b80635c975abb146103c05780636352211e146103cb57806370a08231146103de57806375b238fc146103f157600080fd5b80632f2ff15d116101a85780633f4ba83a116101775780633f4ba83a1461036c57806342842e0e1461037457806342966c68146103875780634f6ccce71461039a57806355f804b3146103ad57600080fd5b80632f2ff15d1461030c5780632f745c591461031f57806336568abe14610332578063388417821461034557600080fd5b8063162094c4116101ef578063162094c41461029e57806318160ddd146102b157806323250cae146102c357806323b872dd146102d6578063248a9ca3146102e957600080fd5b806301ffc9a71461022157806306fdde0314610249578063081812fc1461025e578063095ea7b314610289575b600080fd5b61023461022f366004612197565b610548565b60405190151581526020015b60405180910390f35b610251610559565b6040516102409190612204565b61027161026c366004612217565b6105eb565b6040516001600160a01b039091168152602001610240565b61029c61029736600461224c565b610612565b005b61029c6102ac366004612322565b61072c565b6008545b604051908152602001610240565b6102b56102d1366004612217565b610760565b61029c6102e4366004612369565b610781565b6102b56102f7366004612217565b6000908152600c602052604090206001015490565b61029c61031a3660046123a5565b6107b3565b6102b561032d36600461224c565b6107d8565b61029c6103403660046123a5565b61086e565b6102b57f6bd6b5318a46e5fff572d5e4258a20774aab40cc35ac7680654b9081fcc82f8081565b61029c6108ec565b61029c610382366004612369565b610921565b61029c610395366004612217565b61093c565b6102b56103a8366004612217565b6109c3565b61029c6103bb3660046123d1565b610a56565b600b5460ff16610234565b6102716103d9366004612217565b610a8c565b6102b56103ec366004612406565b610aec565b6102b57fa49807205ce4d355092ef5a8a18f56e8913cf4a201fbe287825b095693c2177581565b61029c610b72565b61023461042e3660046123a5565b610ba4565b610251610bcf565b6102b5600f5481565b61029c61045236600461224c565b610bde565b6102b5600081565b61029c61046d366004612421565b610cf5565b61029c610480366004612217565b610d00565b61029c61049336600461245d565b610d79565b6102516104a6366004612217565b610db1565b6102b57f9f2df0fed2c77648de5860a4cc508cd0818c85b8b8a1ab4ceeef8d981c8956a681565b61029c6104e03660046123a5565b610dbc565b6102b57f65d7a28e3265b37a6474929f336521b332c1681b933f6cb9f3376673440d862a81565b61023461051a3660046124d9565b6001600160a01b03918216600090815260056020908152604080832093909416825291909152205460ff1690565b600061055382610de1565b92915050565b60606000805461056890612503565b80601f016020809104026020016040519081016040528092919081815260200182805461059490612503565b80156105e15780601f106105b6576101008083540402835291602001916105e1565b820191906000526020600020905b8154815290600101906020018083116105c457829003601f168201915b5050505050905090565b60006105f682610e06565b506000908152600460205260409020546001600160a01b031690565b600061061d82610a8c565b9050806001600160a01b0316836001600160a01b03160361068f5760405162461bcd60e51b815260206004820152602160248201527f4552433732313a20617070726f76616c20746f2063757272656e74206f776e656044820152603960f91b60648201526084015b60405180910390fd5b336001600160a01b03821614806106ab57506106ab813361051a565b61071d5760405162461bcd60e51b815260206004820152603d60248201527f4552433732313a20617070726f76652063616c6c6572206973206e6f7420746f60448201527f6b656e206f776e6572206f7220617070726f76656420666f7220616c6c0000006064820152608401610686565b6107278383610e65565b505050565b7f6bd6b5318a46e5fff572d5e4258a20774aab40cc35ac7680654b9081fcc82f8061075681610ed3565b6107278383610edd565b600e818154811061077057600080fd5b600091825260209091200154905081565b61078c335b82610f70565b6107a85760405162461bcd60e51b81526004016106869061253d565b610727838383610fef565b6000828152600c60205260409020600101546107ce81610ed3565b6107278383611160565b60006107e383610aec565b82106108455760405162461bcd60e51b815260206004820152602b60248201527f455243373231456e756d657261626c653a206f776e657220696e646578206f7560448201526a74206f6620626f756e647360a81b6064820152608401610686565b506001600160a01b03919091166000908152600660209081526040808320938352929052205490565b6001600160a01b03811633146108de5760405162461bcd60e51b815260206004820152602f60248201527f416363657373436f6e74726f6c3a2063616e206f6e6c792072656e6f756e636560448201526e103937b632b9903337b91039b2b63360891b6064820152608401610686565b6108e882826111e6565b5050565b7f65d7a28e3265b37a6474929f336521b332c1681b933f6cb9f3376673440d862a61091681610ed3565b61091e61124d565b50565b61072783838360405180602001604052806000815250610d79565b600f54156109855760405162461bcd60e51b8152602060048201526016602482015275109d5c9b9a5b99c81a5cc81b9bdd08195b98589b195960521b6044820152606401610686565b61098e8161129f565b600e80546001810182556000919091527fbb7b4a454dc3493923482f07822329ed19e8244eff582cc204f8554c3620c3fd0155565b60006109ce60085490565b8210610a315760405162461bcd60e51b815260206004820152602c60248201527f455243373231456e756d657261626c653a20676c6f62616c20696e646578206f60448201526b7574206f6620626f756e647360a01b6064820152608401610686565b60088281548110610a4457610a4461258a565b90600052602060002001549050919050565b7f6bd6b5318a46e5fff572d5e4258a20774aab40cc35ac7680654b9081fcc82f80610a8081610ed3565b600d61072783826125ee565b6000818152600260205260408120546001600160a01b0316806105535760405162461bcd60e51b8152602060048201526018602482015277115490cdcc8c4e881a5b9d985b1a59081d1bdad95b88125160421b6044820152606401610686565b60006001600160a01b038216610b565760405162461bcd60e51b815260206004820152602960248201527f4552433732313a2061646472657373207a65726f206973206e6f7420612076616044820152683634b21037bbb732b960b91b6064820152608401610686565b506001600160a01b031660009081526003602052604090205490565b7f65d7a28e3265b37a6474929f336521b332c1681b933f6cb9f3376673440d862a610b9c81610ed3565b61091e6112cd565b6000918252600c602090815260408084206001600160a01b0393909316845291905290205460ff1690565b60606001805461056890612503565b7f9f2df0fed2c77648de5860a4cc508cd0818c85b8b8a1ab4ceeef8d981c8956a6610c0881610ed3565b610c1061130a565b600082118015610c21575061271082105b610c5f5760405162461bcd60e51b815260206004820152600f60248201526e125b9d985b1a59081d1bdad95b9259608a1b6044820152606401610686565b60005b600e54811015610cea57600e8181548110610c7f57610c7f61258a565b90600052602060002001548303610cd85760405162461bcd60e51b815260206004820152601f60248201527f546f6b656e20616c7265616479206d696e74656420616e64206275726e6564006044820152606401610686565b80610ce2816126c4565b915050610c62565b506107278383611352565b6108e833838361136c565b7fa49807205ce4d355092ef5a8a18f56e8913cf4a201fbe287825b095693c21775610d2a81610ed3565b811580610d375750816001145b610d735760405162461bcd60e51b815260206004820152600d60248201526c496e76616c696420737461746560981b6044820152606401610686565b50600f55565b610d833383610f70565b610d9f5760405162461bcd60e51b81526004016106869061253d565b610dab8484848461143a565b50505050565b60606105538261146d565b6000828152600c6020526040902060010154610dd781610ed3565b61072783836111e6565b60006001600160e01b03198216637965db0b60e01b1480610553575061055382611568565b6000818152600260205260409020546001600160a01b031661091e5760405162461bcd60e51b8152602060048201526018602482015277115490cdcc8c4e881a5b9d985b1a59081d1bdad95b88125160421b6044820152606401610686565b600081815260046020526040902080546001600160a01b0319166001600160a01b0384169081179091558190610e9a82610a8c565b6001600160a01b03167f8c5be1e5ebec7d5bd14f71427d1e84f3dd0314c0f7b2291e5b200ac8c7c3b92560405160405180910390a45050565b61091e813361158d565b6000828152600260205260409020546001600160a01b0316610f585760405162461bcd60e51b815260206004820152602e60248201527f45524337323155524953746f726167653a2055524920736574206f66206e6f6e60448201526d32bc34b9ba32b73a103a37b5b2b760911b6064820152608401610686565b6000828152600a6020526040902061072782826125ee565b600080610f7c83610a8c565b9050806001600160a01b0316846001600160a01b03161480610fc357506001600160a01b0380821660009081526005602090815260408083209388168352929052205460ff165b80610fe75750836001600160a01b0316610fdc846105eb565b6001600160a01b0316145b949350505050565b826001600160a01b031661100282610a8c565b6001600160a01b0316146110285760405162461bcd60e51b8152600401610686906126dd565b6001600160a01b03821661108a5760405162461bcd60e51b8152602060048201526024808201527f4552433732313a207472616e7366657220746f20746865207a65726f206164646044820152637265737360e01b6064820152608401610686565b61109783838360016115e6565b826001600160a01b03166110aa82610a8c565b6001600160a01b0316146110d05760405162461bcd60e51b8152600401610686906126dd565b600081815260046020908152604080832080546001600160a01b03199081169091556001600160a01b0387811680865260038552838620805460001901905590871680865283862080546001019055868652600290945282852080549092168417909155905184937fddf252ad1be2c89b69c2b068fc378daa952ba7f163c4a11628f55a4df523b3ef91a4505050565b61116a8282610ba4565b6108e8576000828152600c602090815260408083206001600160a01b03851684529091529020805460ff191660011790556111a23390565b6001600160a01b0316816001600160a01b0316837f2f8788117e7eff1d82e926ec794901d17c78024a50270940304540a733656f0d60405160405180910390a45050565b6111f08282610ba4565b156108e8576000828152600c602090815260408083206001600160a01b0385168085529252808320805460ff1916905551339285917ff6391f5c32d9c69d2a47ea670b442974b53935d1edc7fd64eb21e047a839171b9190a45050565b6112556115fa565b600b805460ff191690557f5db9ee0a495bf2e6ff9c91a7834c1ba4fdd244a5e8aa4e537bd38aeae4b073aa335b6040516001600160a01b03909116815260200160405180910390a1565b6112a833610786565b6112c45760405162461bcd60e51b81526004016106869061253d565b61091e81611643565b6112d561130a565b600b805460ff191660011790557f62e78cea01bee320cd4e420270b5ea74000d11b0c9f74754ebdbfc544b05a2586112823390565b600b5460ff16156113505760405162461bcd60e51b815260206004820152601060248201526f14185d5cd8589b194e881c185d5cd95960821b6044820152606401610686565b565b6108e882826040518060200160405280600081525061164c565b816001600160a01b0316836001600160a01b0316036113cd5760405162461bcd60e51b815260206004820152601960248201527f4552433732313a20617070726f766520746f2063616c6c6572000000000000006044820152606401610686565b6001600160a01b03838116600081815260056020908152604080832094871680845294825291829020805460ff191686151590811790915591519182527f17307eab39ab6107e8899845ad3d59bd9653f200f220920489ca2b5937696c31910160405180910390a3505050565b611445848484610fef565b6114518484848461167f565b610dab5760405162461bcd60e51b815260040161068690612722565b606061147882610e06565b6000828152600a60205260408120805461149190612503565b80601f01602080910402602001604051908101604052809291908181526020018280546114bd90612503565b801561150a5780601f106114df5761010080835404028352916020019161150a565b820191906000526020600020905b8154815290600101906020018083116114ed57829003601f168201915b50505050509050600061151b611780565b9050805160000361152d575092915050565b81511561155f578082604051602001611547929190612774565b60405160208183030381529060405292505050919050565b610fe78461178f565b60006001600160e01b0319821663780e9d6360e01b14806105535750610553826117f6565b6115978282610ba4565b6108e8576115a481611846565b6115af836020611858565b6040516020016115c09291906127a3565b60408051601f198184030181529082905262461bcd60e51b825261068691600401612204565b6115ee61130a565b610dab848484846119f4565b600b5460ff166113505760405162461bcd60e51b815260206004820152601460248201527314185d5cd8589b194e881b9bdd081c185d5cd95960621b6044820152606401610686565b61091e81611b34565b6116568383611b74565b611663600084848461167f565b6107275760405162461bcd60e51b815260040161068690612722565b60006001600160a01b0384163b1561177557604051630a85bd0160e11b81526001600160a01b0385169063150b7a02906116c3903390899088908890600401612818565b6020604051808303816000875af19250505080156116fe575060408051601f3d908101601f191682019092526116fb91810190612855565b60015b61175b573d80801561172c576040519150601f19603f3d011682016040523d82523d6000602084013e611731565b606091505b5080516000036117535760405162461bcd60e51b815260040161068690612722565b805181602001fd5b6001600160e01b031916630a85bd0160e11b149050610fe7565b506001949350505050565b6060600d805461056890612503565b606061179a82610e06565b60006117a4611780565b905060008151116117c457604051806020016040528060008152506117ef565b806117ce84611d0d565b6040516020016117df929190612774565b6040516020818303038152906040525b9392505050565b60006001600160e01b031982166380ac58cd60e01b148061182757506001600160e01b03198216635b5e139f60e01b145b8061055357506301ffc9a760e01b6001600160e01b0319831614610553565b60606105536001600160a01b03831660145b60606000611867836002612872565b611872906002612889565b67ffffffffffffffff81111561188a5761188a612276565b6040519080825280601f01601f1916602001820160405280156118b4576020820181803683370190505b509050600360fc1b816000815181106118cf576118cf61258a565b60200101906001600160f81b031916908160001a905350600f60fb1b816001815181106118fe576118fe61258a565b60200101906001600160f81b031916908160001a9053506000611922846002612872565b61192d906001612889565b90505b60018111156119a5576f181899199a1a9b1b9c1cb0b131b232b360811b85600f16601081106119615761196161258a565b1a60f81b8282815181106119775761197761258a565b60200101906001600160f81b031916908160001a90535060049490941c9361199e8161289c565b9050611930565b5083156117ef5760405162461bcd60e51b815260206004820181905260248201527f537472696e67733a20686578206c656e67746820696e73756666696369656e746044820152606401610686565b611a0084848484611da0565b6001811115611a6f5760405162461bcd60e51b815260206004820152603560248201527f455243373231456e756d657261626c653a20636f6e7365637574697665207472604482015274185b9cd9995c9cc81b9bdd081cdd5c1c1bdc9d1959605a1b6064820152608401610686565b816001600160a01b038516611acb57611ac681600880546000838152600960205260408120829055600182018355919091527ff3f7a9fe364faab93b216da50a3214154f22a0a2b415b23a84c8169e8b636ee30155565b611aee565b836001600160a01b0316856001600160a01b031614611aee57611aee8582611e28565b6001600160a01b038416611b0a57611b0581611ec5565b611b2d565b846001600160a01b0316846001600160a01b031614611b2d57611b2d8482611f74565b5050505050565b611b3d81611fb8565b6000818152600a602052604090208054611b5690612503565b15905061091e576000818152600a6020526040812061091e91612133565b6001600160a01b038216611bca5760405162461bcd60e51b815260206004820181905260248201527f4552433732313a206d696e7420746f20746865207a65726f20616464726573736044820152606401610686565b6000818152600260205260409020546001600160a01b031615611c2f5760405162461bcd60e51b815260206004820152601c60248201527f4552433732313a20746f6b656e20616c7265616479206d696e746564000000006044820152606401610686565b611c3d6000838360016115e6565b6000818152600260205260409020546001600160a01b031615611ca25760405162461bcd60e51b815260206004820152601c60248201527f4552433732313a20746f6b656e20616c7265616479206d696e746564000000006044820152606401610686565b6001600160a01b038216600081815260036020908152604080832080546001019055848352600290915280822080546001600160a01b0319168417905551839291907fddf252ad1be2c89b69c2b068fc378daa952ba7f163c4a11628f55a4df523b3ef908290a45050565b60606000611d1a8361205b565b600101905060008167ffffffffffffffff811115611d3a57611d3a612276565b6040519080825280601f01601f191660200182016040528015611d64576020820181803683370190505b5090508181016020015b600019016f181899199a1a9b1b9c1cb0b131b232b360811b600a86061a8153600a8504945084611d6e57509392505050565b6001811115610dab576001600160a01b03841615611de6576001600160a01b03841660009081526003602052604081208054839290611de09084906128b3565b90915550505b6001600160a01b03831615610dab576001600160a01b03831660009081526003602052604081208054839290611e1d908490612889565b909155505050505050565b60006001611e3584610aec565b611e3f91906128b3565b600083815260076020526040902054909150808214611e92576001600160a01b03841660009081526006602090815260408083208584528252808320548484528184208190558352600790915290208190555b5060009182526007602090815260408084208490556001600160a01b039094168352600681528383209183525290812055565b600854600090611ed7906001906128b3565b60008381526009602052604081205460088054939450909284908110611eff57611eff61258a565b906000526020600020015490508060088381548110611f2057611f2061258a565b6000918252602080832090910192909255828152600990915260408082208490558582528120556008805480611f5857611f586128c6565b6001900381819060005260206000200160009055905550505050565b6000611f7f83610aec565b6001600160a01b039093166000908152600660209081526040808320868452825280832085905593825260079052919091209190915550565b6000611fc382610a8c565b9050611fd38160008460016115e6565b611fdc82610a8c565b600083815260046020908152604080832080546001600160a01b03199081169091556001600160a01b0385168085526003845282852080546000190190558785526002909352818420805490911690555192935084927fddf252ad1be2c89b69c2b068fc378daa952ba7f163c4a11628f55a4df523b3ef908390a45050565b60008072184f03e93ff9f4daa797ed6e38ed64bf6a1f0160401b831061209a5772184f03e93ff9f4daa797ed6e38ed64bf6a1f0160401b830492506040015b6d04ee2d6d415b85acef810000000083106120c6576d04ee2d6d415b85acef8100000000830492506020015b662386f26fc1000083106120e457662386f26fc10000830492506010015b6305f5e10083106120fc576305f5e100830492506008015b612710831061211057612710830492506004015b60648310612122576064830492506002015b600a83106105535760010192915050565b50805461213f90612503565b6000825580601f1061214f575050565b601f01602090049060005260206000209081019061091e91905b8082111561217d5760008155600101612169565b5090565b6001600160e01b03198116811461091e57600080fd5b6000602082840312156121a957600080fd5b81356117ef81612181565b60005b838110156121cf5781810151838201526020016121b7565b50506000910152565b600081518084526121f08160208601602086016121b4565b601f01601f19169290920160200192915050565b6020815260006117ef60208301846121d8565b60006020828403121561222957600080fd5b5035919050565b80356001600160a01b038116811461224757600080fd5b919050565b6000806040838503121561225f57600080fd5b61226883612230565b946020939093013593505050565b634e487b7160e01b600052604160045260246000fd5b600067ffffffffffffffff808411156122a7576122a7612276565b604051601f8501601f19908116603f011681019082821181831017156122cf576122cf612276565b816040528093508581528686860111156122e857600080fd5b858560208301376000602087830101525050509392505050565b600082601f83011261231357600080fd5b6117ef8383356020850161228c565b6000806040838503121561233557600080fd5b82359150602083013567ffffffffffffffff81111561235357600080fd5b61235f85828601612302565b9150509250929050565b60008060006060848603121561237e57600080fd5b61238784612230565b925061239560208501612230565b9150604084013590509250925092565b600080604083850312156123b857600080fd5b823591506123c860208401612230565b90509250929050565b6000602082840312156123e357600080fd5b813567ffffffffffffffff8111156123fa57600080fd5b610fe784828501612302565b60006020828403121561241857600080fd5b6117ef82612230565b6000806040838503121561243457600080fd5b61243d83612230565b91506020830135801515811461245257600080fd5b809150509250929050565b6000806000806080858703121561247357600080fd5b61247c85612230565b935061248a60208601612230565b925060408501359150606085013567ffffffffffffffff8111156124ad57600080fd5b8501601f810187136124be57600080fd5b6124cd8782356020840161228c565b91505092959194509250565b600080604083850312156124ec57600080fd5b6124f583612230565b91506123c860208401612230565b600181811c9082168061251757607f821691505b60208210810361253757634e487b7160e01b600052602260045260246000fd5b50919050565b6020808252602d908201527f4552433732313a2063616c6c6572206973206e6f7420746f6b656e206f776e6560408201526c1c881bdc88185c1c1c9bdd9959609a1b606082015260800190565b634e487b7160e01b600052603260045260246000fd5b601f82111561072757600081815260208120601f850160051c810160208610156125c75750805b601f850160051c820191505b818110156125e6578281556001016125d3565b505050505050565b815167ffffffffffffffff81111561260857612608612276565b61261c816126168454612503565b846125a0565b602080601f83116001811461265157600084156126395750858301515b600019600386901b1c1916600185901b1785556125e6565b600085815260208120601f198616915b8281101561268057888601518255948401946001909101908401612661565b508582101561269e5787850151600019600388901b60f8161c191681555b5050505050600190811b01905550565b634e487b7160e01b600052601160045260246000fd5b6000600182016126d6576126d66126ae565b5060010190565b60208082526025908201527f4552433732313a207472616e736665722066726f6d20696e636f72726563742060408201526437bbb732b960d91b606082015260800190565b60208082526032908201527f4552433732313a207472616e7366657220746f206e6f6e20455243373231526560408201527131b2b4bb32b91034b6b83632b6b2b73a32b960711b606082015260800190565b600083516127868184602088016121b4565b83519083019061279a8183602088016121b4565b01949350505050565b7f416363657373436f6e74726f6c3a206163636f756e74200000000000000000008152600083516127db8160178501602088016121b4565b7001034b99036b4b9b9b4b733903937b6329607d1b601791840191820152835161280c8160288401602088016121b4565b01602801949350505050565b6001600160a01b038581168252841660208201526040810183905260806060820181905260009061284b908301846121d8565b9695505050505050565b60006020828403121561286757600080fd5b81516117ef81612181565b8082028115828204841417610553576105536126ae565b80820180821115610553576105536126ae565b6000816128ab576128ab6126ae565b506000190190565b81810381811115610553576105536126ae565b634e487b7160e01b600052603160045260246000fdfea2646970667358221220daff805c95ad696aee042b91e544659a95770b425d169de0df2c651ffd5630d764736f6c634300081100336bd6b5318a46e5fff572d5e4258a20774aab40cc35ac7680654b9081fcc82f8065d7a28e3265b37a6474929f336521b332c1681b933f6cb9f3376673440d862a9f2df0fed2c77648de5860a4cc508cd0818c85b8b8a1ab4ceeef8d981c8956a6a49807205ce4d355092ef5a8a18f56e8913cf4a201fbe287825b095693c21775",
  "linkReferences": {},
  "deployedLinkReferences": {}
}