{
  "_format": "hh-sol-artifact-1",
  "contractName": "lMagicUpgradeable",
  "sourceName": "contracts/upgradeable/ERC20/lMagicUpgradeable.sol",
  "abi": [
    {
      "inputs": [],
      "stateMutability": "nonpayable",
      "type": "constructor"
    },
    {
      "anonymous": false,
      "inputs": [
        {
          "indexed": true,
          "internalType": "address",
          "name": "owner",
          "type": "address"
        },
        {
          "indexed": true,
          "internalType": "address",
          "name": "spender",
          "type": "address"
        },
        {
          "indexed": false,
          "internalType": "uint256",
          "name": "value",
          "type": "uint256"
        }
      ],
      "name": "Approval",
      "type": "event"
    },
    {
      "anonymous": false,
      "inputs": [
        {
          "indexed": false,
          "internalType": "uint8",
          "name": "version",
          "type": "uint8"
        }
      ],
      "name": "Initialized",
      "type": "event"
    },
    {
      "anonymous": false,
      "inputs": [
        {
          "indexed": false,
          "internalType": "address",
          "name": "account",
          "type": "address"
        }
      ],
      "name": "Paused",
      "type": "event"
    },
    {
      "anonymous": false,
      "inputs": [
        {
          "indexed": true,
          "internalType": "bytes32",
          "name": "role",
          "type": "bytes32"
        },
        {
          "indexed": true,
          "internalType": "bytes32",
          "name": "previousAdminRole",
          "type": "bytes32"
        },
        {
          "indexed": true,
          "internalType": "bytes32",
          "name": "newAdminRole",
          "type": "bytes32"
        }
      ],
      "name": "RoleAdminChanged",
      "type": "event"
    },
    {
      "anonymous": false,
      "inputs": [
        {
          "indexed": true,
          "internalType": "bytes32",
          "name": "role",
          "type": "bytes32"
        },
        {
          "indexed": true,
          "internalType": "address",
          "name": "account",
          "type": "address"
        },
        {
          "indexed": true,
          "internalType": "address",
          "name": "sender",
          "type": "address"
        }
      ],
      "name": "RoleGranted",
      "type": "event"
    },
    {
      "anonymous": false,
      "inputs": [
        {
          "indexed": true,
          "internalType": "bytes32",
          "name": "role",
          "type": "bytes32"
        },
        {
          "indexed": true,
          "internalType": "address",
          "name": "account",
          "type": "address"
        },
        {
          "indexed": true,
          "internalType": "address",
          "name": "sender",
          "type": "address"
        }
      ],
      "name": "RoleRevoked",
      "type": "event"
    },
    {
      "anonymous": false,
      "inputs": [
        {
          "indexed": true,
          "internalType": "address",
          "name": "from",
          "type": "address"
        },
        {
          "indexed": true,
          "internalType": "address",
          "name": "to",
          "type": "address"
        },
        {
          "indexed": false,
          "internalType": "uint256",
          "name": "value",
          "type": "uint256"
        }
      ],
      "name": "Transfer",
      "type": "event"
    },
    {
      "anonymous": false,
      "inputs": [
        {
          "indexed": false,
          "internalType": "address",
          "name": "account",
          "type": "address"
        }
      ],
      "name": "Unpaused",
      "type": "event"
    },
    {
      "inputs": [],
      "name": "ADMIN_ROLE",
      "outputs": [
        {
          "internalType": "bytes32",
          "name": "",
          "type": "bytes32"
        }
      ],
      "stateMutability": "view",
      "type": "function"
    },
    {
      "inputs": [],
      "name": "DEFAULT_ADMIN_ROLE",
      "outputs": [
        {
          "internalType": "bytes32",
          "name": "",
          "type": "bytes32"
        }
      ],
      "stateMutability": "view",
      "type": "function"
    },
    {
      "inputs": [],
      "name": "DOMAIN_SEPARATOR",
      "outputs": [
        {
          "internalType": "bytes32",
          "name": "",
          "type": "bytes32"
        }
      ],
      "stateMutability": "view",
      "type": "function"
    },
    {
      "inputs": [],
      "name": "MINTER_ROLE",
      "outputs": [
        {
          "internalType": "bytes32",
          "name": "",
          "type": "bytes32"
        }
      ],
      "stateMutability": "view",
      "type": "function"
    },
    {
      "inputs": [
        {
          "internalType": "address",
          "name": "to",
          "type": "address"
        }
      ],
      "name": "addGlobalWhitelist",
      "outputs": [],
      "stateMutability": "nonpayable",
      "type": "function"
    },
    {
      "inputs": [
        {
          "internalType": "address",
          "name": "from",
          "type": "address"
        },
        {
          "internalType": "address",
          "name": "to",
          "type": "address"
        }
      ],
      "name": "addWhitelist",
      "outputs": [],
      "stateMutability": "nonpayable",
      "type": "function"
    },
    {
      "inputs": [
        {
          "internalType": "address",
          "name": "owner",
          "type": "address"
        },
        {
          "internalType": "address",
          "name": "spender",
          "type": "address"
        }
      ],
      "name": "allowance",
      "outputs": [
        {
          "internalType": "uint256",
          "name": "",
          "type": "uint256"
        }
      ],
      "stateMutability": "view",
      "type": "function"
    },
    {
      "inputs": [
        {
          "internalType": "address",
          "name": "spender",
          "type": "address"
        },
        {
          "internalType": "uint256",
          "name": "amount",
          "type": "uint256"
        }
      ],
      "name": "approve",
      "outputs": [
        {
          "internalType": "bool",
          "name": "",
          "type": "bool"
        }
      ],
      "stateMutability": "nonpayable",
      "type": "function"
    },
    {
      "inputs": [
        {
          "internalType": "address",
          "name": "account",
          "type": "address"
        }
      ],
      "name": "balanceOf",
      "outputs": [
        {
          "internalType": "uint256",
          "name": "",
          "type": "uint256"
        }
      ],
      "stateMutability": "view",
      "type": "function"
    },
    {
      "inputs": [
        {
          "internalType": "uint256",
          "name": "amount",
          "type": "uint256"
        }
      ],
      "name": "burn",
      "outputs": [],
      "stateMutability": "nonpayable",
      "type": "function"
    },
    {
      "inputs": [
        {
          "internalType": "address",
          "name": "account",
          "type": "address"
        },
        {
          "internalType": "uint256",
          "name": "amount",
          "type": "uint256"
        }
      ],
      "name": "burnFrom",
      "outputs": [],
      "stateMutability": "nonpayable",
      "type": "function"
    },
    {
      "inputs": [],
      "name": "claimPending",
      "outputs": [],
      "stateMutability": "nonpayable",
      "type": "function"
    },
    {
      "inputs": [],
      "name": "decimals",
      "outputs": [
        {
          "internalType": "uint8",
          "name": "",
          "type": "uint8"
        }
      ],
      "stateMutability": "view",
      "type": "function"
    },
    {
      "inputs": [
        {
          "internalType": "address",
          "name": "spender",
          "type": "address"
        },
        {
          "internalType": "uint256",
          "name": "subtractedValue",
          "type": "uint256"
        }
      ],
      "name": "decreaseAllowance",
      "outputs": [
        {
          "internalType": "bool",
          "name": "",
          "type": "bool"
        }
      ],
      "stateMutability": "nonpayable",
      "type": "function"
    },
    {
      "inputs": [
        {
          "internalType": "bytes32",
          "name": "role",
          "type": "bytes32"
        }
      ],
      "name": "getRoleAdmin",
      "outputs": [
        {
          "internalType": "bytes32",
          "name": "",
          "type": "bytes32"
        }
      ],
      "stateMutability": "view",
      "type": "function"
    },
    {
      "inputs": [
        {
          "internalType": "bytes32",
          "name": "role",
          "type": "bytes32"
        },
        {
          "internalType": "address",
          "name": "account",
          "type": "address"
        }
      ],
      "name": "grantRole",
      "outputs": [],
      "stateMutability": "nonpayable",
      "type": "function"
    },
    {
      "inputs": [
        {
          "internalType": "bytes32",
          "name": "role",
          "type": "bytes32"
        },
        {
          "internalType": "address",
          "name": "account",
          "type": "address"
        }
      ],
      "name": "hasRole",
      "outputs": [
        {
          "internalType": "bool",
          "name": "",
          "type": "bool"
        }
      ],
      "stateMutability": "view",
      "type": "function"
    },
    {
      "inputs": [
        {
          "internalType": "address",
          "name": "spender",
          "type": "address"
        },
        {
          "internalType": "uint256",
          "name": "addedValue",
          "type": "uint256"
        }
      ],
      "name": "increaseAllowance",
      "outputs": [
        {
          "internalType": "bool",
          "name": "",
          "type": "bool"
        }
      ],
      "stateMutability": "nonpayable",
      "type": "function"
    },
    {
      "inputs": [],
      "name": "initialize",
      "outputs": [],
      "stateMutability": "nonpayable",
      "type": "function"
    },
    {
      "inputs": [
        {
          "internalType": "address",
          "name": "_address",
          "type": "address"
        },
        {
          "internalType": "uint256",
          "name": "amount",
          "type": "uint256"
        }
      ],
      "name": "mint",
      "outputs": [],
      "stateMutability": "nonpayable",
      "type": "function"
    },
    {
      "inputs": [],
      "name": "name",
      "outputs": [
        {
          "internalType": "string",
          "name": "",
          "type": "string"
        }
      ],
      "stateMutability": "view",
      "type": "function"
    },
    {
      "inputs": [
        {
          "internalType": "address",
          "name": "owner",
          "type": "address"
        }
      ],
      "name": "nonces",
      "outputs": [
        {
          "internalType": "uint256",
          "name": "",
          "type": "uint256"
        }
      ],
      "stateMutability": "view",
      "type": "function"
    },
    {
      "inputs": [],
      "name": "pause",
      "outputs": [],
      "stateMutability": "nonpayable",
      "type": "function"
    },
    {
      "inputs": [],
      "name": "paused",
      "outputs": [
        {
          "internalType": "bool",
          "name": "",
          "type": "bool"
        }
      ],
      "stateMutability": "view",
      "type": "function"
    },
    {
      "inputs": [
        {
          "internalType": "address",
          "name": "_address",
          "type": "address"
        }
      ],
      "name": "pendingOf",
      "outputs": [
        {
          "internalType": "uint256",
          "name": "",
          "type": "uint256"
        }
      ],
      "stateMutability": "view",
      "type": "function"
    },
    {
      "inputs": [
        {
          "internalType": "address",
          "name": "owner",
          "type": "address"
        },
        {
          "internalType": "address",
          "name": "spender",
          "type": "address"
        },
        {
          "internalType": "uint256",
          "name": "value",
          "type": "uint256"
        },
        {
          "internalType": "uint256",
          "name": "deadline",
          "type": "uint256"
        },
        {
          "internalType": "uint8",
          "name": "v",
          "type": "uint8"
        },
        {
          "internalType": "bytes32",
          "name": "r",
          "type": "bytes32"
        },
        {
          "internalType": "bytes32",
          "name": "s",
          "type": "bytes32"
        }
      ],
      "name": "permit",
      "outputs": [],
      "stateMutability": "nonpayable",
      "type": "function"
    },
    {
      "inputs": [
        {
          "internalType": "bytes32",
          "name": "role",
          "type": "bytes32"
        },
        {
          "internalType": "address",
          "name": "account",
          "type": "address"
        }
      ],
      "name": "renounceRole",
      "outputs": [],
      "stateMutability": "nonpayable",
      "type": "function"
    },
    {
      "inputs": [
        {
          "internalType": "bytes32",
          "name": "role",
          "type": "bytes32"
        },
        {
          "internalType": "address",
          "name": "account",
          "type": "address"
        }
      ],
      "name": "revokeRole",
      "outputs": [],
      "stateMutability": "nonpayable",
      "type": "function"
    },
    {
      "inputs": [
        {
          "internalType": "bytes4",
          "name": "interfaceId",
          "type": "bytes4"
        }
      ],
      "name": "supportsInterface",
      "outputs": [
        {
          "internalType": "bool",
          "name": "",
          "type": "bool"
        }
      ],
      "stateMutability": "view",
      "type": "function"
    },
    {
      "inputs": [],
      "name": "symbol",
      "outputs": [
        {
          "internalType": "string",
          "name": "",
          "type": "string"
        }
      ],
      "stateMutability": "view",
      "type": "function"
    },
    {
      "inputs": [],
      "name": "totalBurned",
      "outputs": [
        {
          "internalType": "uint256",
          "name": "",
          "type": "uint256"
        }
      ],
      "stateMutability": "view",
      "type": "function"
    },
    {
      "inputs": [
        {
          "internalType": "address",
          "name": "_address",
          "type": "address"
        }
      ],
      "name": "totalOf",
      "outputs": [
        {
          "internalType": "uint256",
          "name": "",
          "type": "uint256"
        }
      ],
      "stateMutability": "view",
      "type": "function"
    },
    {
      "inputs": [],
      "name": "totalSupply",
      "outputs": [
        {
          "internalType": "uint256",
          "name": "",
          "type": "uint256"
        }
      ],
      "stateMutability": "view",
      "type": "function"
    },
    {
      "inputs": [
        {
          "internalType": "address",
          "name": "to",
          "type": "address"
        },
        {
          "internalType": "uint256",
          "name": "amount",
          "type": "uint256"
        }
      ],
      "name": "transfer",
      "outputs": [
        {
          "internalType": "bool",
          "name": "",
          "type": "bool"
        }
      ],
      "stateMutability": "nonpayable",
      "type": "function"
    },
    {
      "inputs": [
        {
          "internalType": "address",
          "name": "from",
          "type": "address"
        },
        {
          "internalType": "address",
          "name": "to",
          "type": "address"
        },
        {
          "internalType": "uint256",
          "name": "amount",
          "type": "uint256"
        }
      ],
      "name": "transferFrom",
      "outputs": [
        {
          "internalType": "bool",
          "name": "",
          "type": "bool"
        }
      ],
      "stateMutability": "nonpayable",
      "type": "function"
    },
    {
      "inputs": [],
      "name": "unpause",
      "outputs": [],
      "stateMutability": "nonpayable",
      "type": "function"
    }
  ],
  "bytecode": "0x608060405234801561001057600080fd5b5061001961001e565b6100de565b600054610100900460ff161561008a5760405162461bcd60e51b815260206004820152602760248201527f496e697469616c697a61626c653a20636f6e747261637420697320696e697469604482015266616c697a696e6760c81b606482015260840160405180910390fd5b60005460ff90811610156100dc576000805460ff191660ff9081179091556040519081527f7f26b83ff96e1f2b6a682f133852f6798a09c465da95921460cefb38474024989060200160405180910390a15b565b61240180620000ee6000396000f3fe608060405234801561001057600080fd5b506004361061021c5760003560e01c806379cc679011610125578063a73d633c116100ad578063d53913931161007c578063d53913931461046c578063d547741f14610493578063d89135cd146104a6578063dd62ed3e146104af578063f44136a1146104c257600080fd5b8063a73d633c14610420578063a9059cbb14610433578063b45cc84514610446578063d505accf1461045957600080fd5b8063912c2673116100f4578063912c2673146103c057806391d14854146103ea57806395d89b41146103fd578063a217fddf14610405578063a457c2d71461040d57600080fd5b806379cc67901461038a5780637ecebe001461039d5780638129fc1c146103b05780638456cb59146103b857600080fd5b80633644e515116101a857806340c10f191161017757806340c10f191461031b57806342966c681461032e5780635c975abb1461034157806370a082311461034c57806375b238fc1461037557600080fd5b80633644e515146102e557806336568abe146102ed57806339509351146103005780633f4ba83a1461031357600080fd5b806318160ddd116101ef57806318160ddd1461027b57806323b872dd1461028d578063248a9ca3146102a05780632f2ff15d146102c3578063313ce567146102d657600080fd5b806301ffc9a71461022157806303a9f06e1461024957806306fdde0314610253578063095ea7b314610268575b600080fd5b61023461022f366004611eb9565b6104d5565b60405190151581526020015b60405180910390f35b61025161050c565b005b61025b6105c0565b6040516102409190611f07565b610234610276366004611f56565b610652565b6035545b604051908152602001610240565b61023461029b366004611f80565b61066a565b61027f6102ae366004611fbc565b600090815260c9602052604090206001015490565b6102516102d1366004611fd5565b61068e565b60405160128152602001610240565b61027f6106b8565b6102516102fb366004611fd5565b6106c7565b61023461030e366004611f56565b610746565b610251610768565b610251610329366004611f56565b61078b565b61025161033c366004611fbc565b610857565b60655460ff16610234565b61027f61035a366004612001565b6001600160a01b031660009081526033602052604090205490565b61027f6000805160206123ac83398151915281565b610251610398366004611f56565b6108c2565b61027f6103ab366004612001565b61092f565b61025161094e565b610251610b6d565b61027f6103ce366004612001565b6001600160a01b031660009081526101c8602052604090205490565b6102346103f8366004611fd5565b610b8d565b61025b610bb8565b61027f600081565b61023461041b366004611f56565b610bc7565b61025161042e36600461201c565b610c42565b610234610441366004611f56565b610c76565b610251610454366004612001565b610c84565b610251610467366004612046565b610c9b565b61027f7f9f2df0fed2c77648de5860a4cc508cd0818c85b8b8a1ab4ceeef8d981c8956a681565b6102516104a1366004611fd5565b610dff565b6101625461027f565b61027f6104bd36600461201c565b610e24565b61027f6104d0366004612001565b610e4f565b60006001600160e01b03198216637965db0b60e01b148061050657506301ffc9a760e01b6001600160e01b03198316145b92915050565b610514610f03565b600061051f33610e4f565b90508060000361052c5750565b610537335b82610f49565b6101c5546001600160a01b031663a9059cbb336040516001600160e01b031960e084901b1681526001600160a01b039091166004820152602481018490526044016020604051808303816000875af1158015610597573d6000803e3d6000fd5b505050506040513d601f19601f820116820180604052508101906105bb91906120b9565b50505b565b6060603680546105cf906120db565b80601f01602080910402602001604051908101604052809291908181526020018280546105fb906120db565b80156106485780601f1061061d57610100808354040283529160200191610648565b820191906000526020600020905b81548152906001019060200180831161062b57829003601f168201915b5050505050905090565b600033610660818585611089565b5060019392505050565b6000336106788582856111ad565b610683858585611221565b506001949350505050565b600082815260c960205260409020600101546106a9816113d7565b6106b383836113e1565b505050565b60006106c2611467565b905090565b6001600160a01b038116331461073c5760405162461bcd60e51b815260206004820152602f60248201527f416363657373436f6e74726f6c3a2063616e206f6e6c792072656e6f756e636560448201526e103937b632b9903337b91039b2b63360891b60648201526084015b60405180910390fd5b6105bb82826114e2565b6000336106608185856107598383610e24565b6107639190612125565b611089565b6000805160206123ac833981519152610780816113d7565b610788611549565b50565b7f9f2df0fed2c77648de5860a4cc508cd0818c85b8b8a1ab4ceeef8d981c8956a66107b5816113d7565b6101c5546040516340c10f1960e01b8152306004820152602481018490526001600160a01b03909116906340c10f1990604401600060405180830381600087803b15801561080257600080fd5b505af1158015610816573d6000803e3d6000fd5b50505050610824838361159b565b6001600160a01b03831660009081526101c860205260408120805484929061084d908490612125565b9091555050505050565b61086081611669565b6101c554604051630852cd8d60e31b8152600481018390526001600160a01b03909116906342966c6890602401600060405180830381600087803b1580156108a757600080fd5b505af11580156108bb573d6000803e3d6000fd5b5050505050565b6108cc828261168b565b6101c554604051630852cd8d60e31b8152600481018390526001600160a01b03909116906342966c6890602401600060405180830381600087803b15801561091357600080fd5b505af1158015610927573d6000803e3d6000fd5b505050505050565b6001600160a01b038116600090815261012f6020526040812054610506565b600054610100900460ff161580801561096e5750600054600160ff909116105b806109885750303b158015610988575060005460ff166001145b6109eb5760405162461bcd60e51b815260206004820152602e60248201527f496e697469616c697a61626c653a20636f6e747261637420697320616c72656160448201526d191e481a5b9a5d1a585b1a5e995960921b6064820152608401610733565b6000805460ff191660011790558015610a0e576000805461ff0019166101001790555b610a54604051806040016040528060068152602001656c4d4147494360d01b815250604051806040016040528060068152602001656c4d4147494360d01b8152506116b9565b610a5c6116ea565b610a64611719565b610a8b604051806040016040528060068152602001656c4d4147494360d01b815250611740565b610a93611719565b610a9e6000336113e1565b610ab66000805160206123ac833981519152336113e1565b610ae07f9f2df0fed2c77648de5860a4cc508cd0818c85b8b8a1ab4ceeef8d981c8956a6336113e1565b6101c580546001600160a01b031916739a8e0217cd870783c3f2317985c57bf5709691531790556363bea4c06101c7819055610b21906301e1338090612138565b6101c6558015610788576000805461ff0019169055604051600181527f7f26b83ff96e1f2b6a682f133852f6798a09c465da95921460cefb38474024989060200160405180910390a150565b6000805160206123ac833981519152610b85816113d7565b61078861178a565b600091825260c9602090815260408084206001600160a01b0393909316845291905290205460ff1690565b6060603780546105cf906120db565b60003381610bd58286610e24565b905083811015610c355760405162461bcd60e51b815260206004820152602560248201527f45524332303a2064656372656173656420616c6c6f77616e63652062656c6f77604482015264207a65726f60d81b6064820152608401610733565b6106838286868403611089565b6000610c4d816113d7565b6001600160a01b03831660009081526101cb60205260409020610c7090836117c7565b50505050565b600033610660818585611221565b6000610c8f816113d7565b6106b36101c9836117c7565b83421115610ceb5760405162461bcd60e51b815260206004820152601d60248201527f45524332305065726d69743a206578706972656420646561646c696e650000006044820152606401610733565b60007f6e71edae12b1b97f4d1f60370fef10105fa2faae0126114a169c64845d6126c9888888610d1a8c6117e3565b6040805160208101969096526001600160a01b0394851690860152929091166060840152608083015260a082015260c0810186905260e0016040516020818303038152906040528051906020012090506000610d758261180c565b90506000610d858287878761185a565b9050896001600160a01b0316816001600160a01b031614610de85760405162461bcd60e51b815260206004820152601e60248201527f45524332305065726d69743a20696e76616c6964207369676e617475726500006044820152606401610733565b610df38a8a8a611089565b50505050505050505050565b600082815260c96020526040902060010154610e1a816113d7565b6106b383836114e2565b6001600160a01b03918216600090815260346020908152604080832093909416825291909152205490565b6001600160a01b0381166000908152603360209081526040808320546101c89092528220548290610e81908390612138565b905060006101c6546101c754610e979190612138565b6001600160a01b03861660009081526101c86020526040902054610ebb919061214b565b90506000816101c65442610ecf9190612138565b610ed9919061216d565b905080831015610ef757610eed8382612138565b9695505050505050565b50600095945050505050565b60655460ff16156105be5760405162461bcd60e51b815260206004820152601060248201526f14185d5cd8589b194e881c185d5cd95960821b6044820152606401610733565b6001600160a01b038216610fa95760405162461bcd60e51b815260206004820152602160248201527f45524332303a206275726e2066726f6d20746865207a65726f206164647265736044820152607360f81b6064820152608401610733565b610fb582600083611882565b6001600160a01b038216600090815260336020526040902054818110156110295760405162461bcd60e51b815260206004820152602260248201527f45524332303a206275726e20616d6f756e7420657863656564732062616c616e604482015261636560f01b6064820152608401610733565b6001600160a01b03831660008181526033602090815260408083208686039055603580548790039055518581529192917fddf252ad1be2c89b69c2b068fc378daa952ba7f163c4a11628f55a4df523b3ef910160405180910390a3505050565b6001600160a01b0383166110eb5760405162461bcd60e51b8152602060048201526024808201527f45524332303a20617070726f76652066726f6d20746865207a65726f206164646044820152637265737360e01b6064820152608401610733565b6001600160a01b03821661114c5760405162461bcd60e51b815260206004820152602260248201527f45524332303a20617070726f766520746f20746865207a65726f206164647265604482015261737360f01b6064820152608401610733565b6001600160a01b0383811660008181526034602090815260408083209487168084529482529182902085905590518481527f8c5be1e5ebec7d5bd14f71427d1e84f3dd0314c0f7b2291e5b200ac8c7c3b925910160405180910390a3505050565b60006111b98484610e24565b90506000198114610c7057818110156112145760405162461bcd60e51b815260206004820152601d60248201527f45524332303a20696e73756666696369656e7420616c6c6f77616e63650000006044820152606401610733565b610c708484848403611089565b6001600160a01b0383166112855760405162461bcd60e51b815260206004820152602560248201527f45524332303a207472616e736665722066726f6d20746865207a65726f206164604482015264647265737360d81b6064820152608401610733565b6001600160a01b0382166112e75760405162461bcd60e51b815260206004820152602360248201527f45524332303a207472616e7366657220746f20746865207a65726f206164647260448201526265737360e81b6064820152608401610733565b6112f2838383611882565b6001600160a01b0383166000908152603360205260409020548181101561136a5760405162461bcd60e51b815260206004820152602660248201527f45524332303a207472616e7366657220616d6f756e7420657863656564732062604482015265616c616e636560d01b6064820152608401610733565b6001600160a01b0380851660008181526033602052604080822086860390559286168082529083902080548601905591517fddf252ad1be2c89b69c2b068fc378daa952ba7f163c4a11628f55a4df523b3ef906113ca9086815260200190565b60405180910390a3610c70565b6107888133611936565b6113eb8282610b8d565b6105bb57600082815260c9602090815260408083206001600160a01b03851684529091529020805460ff191660011790556114233390565b6001600160a01b0316816001600160a01b0316837f2f8788117e7eff1d82e926ec794901d17c78024a50270940304540a733656f0d60405160405180910390a45050565b60006106c27f8b73c3c69bb8fe3d512ecc4cf759cc79239f7b179b0ffacaa9a75d522b39400f61149660fb5490565b60fc546040805160208101859052908101839052606081018290524660808201523060a082015260009060c0016040516020818303038152906040528051906020012090509392505050565b6114ec8282610b8d565b156105bb57600082815260c9602090815260408083206001600160a01b0385168085529252808320805460ff1916905551339285917ff6391f5c32d9c69d2a47ea670b442974b53935d1edc7fd64eb21e047a839171b9190a45050565b61155161198f565b6065805460ff191690557f5db9ee0a495bf2e6ff9c91a7834c1ba4fdd244a5e8aa4e537bd38aeae4b073aa335b6040516001600160a01b03909116815260200160405180910390a1565b6001600160a01b0382166115f15760405162461bcd60e51b815260206004820152601f60248201527f45524332303a206d696e7420746f20746865207a65726f2061646472657373006044820152606401610733565b6115fd60008383611882565b806035600082825461160f9190612125565b90915550506001600160a01b0382166000818152603360209081526040808320805486019055518481527fddf252ad1be2c89b69c2b068fc378daa952ba7f163c4a11628f55a4df523b3ef910160405180910390a36105bb565b80610162600082825461167c9190612125565b90915550610788905033610531565b6116968233836111ad565b8061016260008282546116a99190612125565b909155506105bb90508282610f49565b600054610100900460ff166116e05760405162461bcd60e51b81526004016107339061218c565b6105bb82826119d8565b600054610100900460ff166117115760405162461bcd60e51b81526004016107339061218c565b6105be611a18565b600054610100900460ff166105be5760405162461bcd60e51b81526004016107339061218c565b600054610100900460ff166117675760405162461bcd60e51b81526004016107339061218c565b61078881604051806040016040528060018152602001603160f81b815250611a4b565b611792610f03565b6065805460ff191660011790557f62e78cea01bee320cd4e420270b5ea74000d11b0c9f74754ebdbfc544b05a25861157e3390565b60006117dc836001600160a01b038416611a8c565b9392505050565b6001600160a01b038116600090815261012f602052604090208054600181018255905b50919050565b6000610506611819611467565b8360405161190160f01b6020820152602281018390526042810182905260009060620160405160208183030381529060405280519060200120905092915050565b600080600061186b87878787611adb565b9150915061187881611b9f565b5095945050505050565b61188a610f03565b82826118986101c982611ce9565b806118c157506001600160a01b03821660009081526101cb602052604090206118c19082611ce9565b806118d357506001600160a01b038216155b806118e557506001600160a01b038116155b6119315760405162461bcd60e51b815260206004820152601860248201527f6345564f206973206e6f6e2d7472616e7366657261626c6500000000000000006044820152606401610733565b6108bb565b6119408282610b8d565b6105bb5761194d81611d0b565b611958836020611d1d565b6040516020016119699291906121d7565b60408051601f198184030181529082905262461bcd60e51b825261073391600401611f07565b60655460ff166105be5760405162461bcd60e51b815260206004820152601460248201527314185d5cd8589b194e881b9bdd081c185d5cd95960621b6044820152606401610733565b600054610100900460ff166119ff5760405162461bcd60e51b81526004016107339061218c565b6036611a0b83826122a8565b5060376106b382826122a8565b600054610100900460ff16611a3f5760405162461bcd60e51b81526004016107339061218c565b6065805460ff19169055565b600054610100900460ff16611a725760405162461bcd60e51b81526004016107339061218c565b81516020928301208151919092012060fb9190915560fc55565b6000818152600183016020526040812054611ad357508154600181810184556000848152602080822090930184905584548482528286019093526040902091909155610506565b506000610506565b6000807f7fffffffffffffffffffffffffffffff5d576e7357a4501ddfe92f46681b20a0831115611b125750600090506003611b96565b6040805160008082526020820180845289905260ff881692820192909252606081018690526080810185905260019060a0016020604051602081039080840390855afa158015611b66573d6000803e3d6000fd5b5050604051601f1901519150506001600160a01b038116611b8f57600060019250925050611b96565b9150600090505b94509492505050565b6000816004811115611bb357611bb3612368565b03611bbb5750565b6001816004811115611bcf57611bcf612368565b03611c1c5760405162461bcd60e51b815260206004820152601860248201527f45434453413a20696e76616c6964207369676e617475726500000000000000006044820152606401610733565b6002816004811115611c3057611c30612368565b03611c7d5760405162461bcd60e51b815260206004820152601f60248201527f45434453413a20696e76616c6964207369676e6174757265206c656e677468006044820152606401610733565b6003816004811115611c9157611c91612368565b036107885760405162461bcd60e51b815260206004820152602260248201527f45434453413a20696e76616c6964207369676e6174757265202773272076616c604482015261756560f01b6064820152608401610733565b6001600160a01b038116600090815260018301602052604081205415156117dc565b60606105066001600160a01b03831660145b60606000611d2c83600261216d565b611d37906002612125565b67ffffffffffffffff811115611d4f57611d4f61224c565b6040519080825280601f01601f191660200182016040528015611d79576020820181803683370190505b509050600360fc1b81600081518110611d9457611d9461237e565b60200101906001600160f81b031916908160001a905350600f60fb1b81600181518110611dc357611dc361237e565b60200101906001600160f81b031916908160001a9053506000611de784600261216d565b611df2906001612125565b90505b6001811115611e6a576f181899199a1a9b1b9c1cb0b131b232b360811b85600f1660108110611e2657611e2661237e565b1a60f81b828281518110611e3c57611e3c61237e565b60200101906001600160f81b031916908160001a90535060049490941c93611e6381612394565b9050611df5565b5083156117dc5760405162461bcd60e51b815260206004820181905260248201527f537472696e67733a20686578206c656e67746820696e73756666696369656e746044820152606401610733565b600060208284031215611ecb57600080fd5b81356001600160e01b0319811681146117dc57600080fd5b60005b83811015611efe578181015183820152602001611ee6565b50506000910152565b6020815260008251806020840152611f26816040850160208701611ee3565b601f01601f19169190910160400192915050565b80356001600160a01b0381168114611f5157600080fd5b919050565b60008060408385031215611f6957600080fd5b611f7283611f3a565b946020939093013593505050565b600080600060608486031215611f9557600080fd5b611f9e84611f3a565b9250611fac60208501611f3a565b9150604084013590509250925092565b600060208284031215611fce57600080fd5b5035919050565b60008060408385031215611fe857600080fd5b82359150611ff860208401611f3a565b90509250929050565b60006020828403121561201357600080fd5b6117dc82611f3a565b6000806040838503121561202f57600080fd5b61203883611f3a565b9150611ff860208401611f3a565b600080600080600080600060e0888a03121561206157600080fd5b61206a88611f3a565b965061207860208901611f3a565b95506040880135945060608801359350608088013560ff8116811461209c57600080fd5b9699959850939692959460a0840135945060c09093013592915050565b6000602082840312156120cb57600080fd5b815180151581146117dc57600080fd5b600181811c908216806120ef57607f821691505b60208210810361180657634e487b7160e01b600052602260045260246000fd5b634e487b7160e01b600052601160045260246000fd5b808201808211156105065761050661210f565b818103818111156105065761050661210f565b60008261216857634e487b7160e01b600052601260045260246000fd5b500490565b60008160001904831182151516156121875761218761210f565b500290565b6020808252602b908201527f496e697469616c697a61626c653a20636f6e7472616374206973206e6f74206960408201526a6e697469616c697a696e6760a81b606082015260800190565b7f416363657373436f6e74726f6c3a206163636f756e742000000000000000000081526000835161220f816017850160208801611ee3565b7001034b99036b4b9b9b4b733903937b6329607d1b6017918401918201528351612240816028840160208801611ee3565b01602801949350505050565b634e487b7160e01b600052604160045260246000fd5b601f8211156106b357600081815260208120601f850160051c810160208610156122895750805b601f850160051c820191505b8181101561092757828155600101612295565b815167ffffffffffffffff8111156122c2576122c261224c565b6122d6816122d084546120db565b84612262565b602080601f83116001811461230b57600084156122f35750858301515b600019600386901b1c1916600185901b178555610927565b600085815260208120601f198616915b8281101561233a5788860151825594840194600190910190840161231b565b50858210156123585787850151600019600388901b60f8161c191681555b5050505050600190811b01905550565b634e487b7160e01b600052602160045260246000fd5b634e487b7160e01b600052603260045260246000fd5b6000816123a3576123a361210f565b50600019019056fea49807205ce4d355092ef5a8a18f56e8913cf4a201fbe287825b095693c21775a2646970667358221220b57f6d4babe01b8a0d7f6b4ba982ed2dab85513b7e4a9e9f05c497400816339164736f6c63430008100033",
  "linkReferences": {},
  "deployedLinkReferences": {}
}