{
  "_format": "hh-sol-artifact-1",
  "contractName": "lMagicUpgradeable",
  "sourceName": "contracts/upgradeable/ERC20/lMagicUpgradeable.sol",
  "abi": [
    {
      "inputs": [],
      "stateMutability": "nonpayable",
      "type": "constructor"
    },
    {
      "anonymous": false,
      "inputs": [
        {
          "indexed": true,
          "internalType": "address",
          "name": "owner",
          "type": "address"
        },
        {
          "indexed": true,
          "internalType": "address",
          "name": "spender",
          "type": "address"
        },
        {
          "indexed": false,
          "internalType": "uint256",
          "name": "value",
          "type": "uint256"
        }
      ],
      "name": "Approval",
      "type": "event"
    },
    {
      "anonymous": false,
      "inputs": [
        {
          "indexed": false,
          "internalType": "uint8",
          "name": "version",
          "type": "uint8"
        }
      ],
      "name": "Initialized",
      "type": "event"
    },
    {
      "anonymous": false,
      "inputs": [
        {
          "indexed": false,
          "internalType": "address",
          "name": "account",
          "type": "address"
        }
      ],
      "name": "Paused",
      "type": "event"
    },
    {
      "anonymous": false,
      "inputs": [
        {
          "indexed": true,
          "internalType": "bytes32",
          "name": "role",
          "type": "bytes32"
        },
        {
          "indexed": true,
          "internalType": "bytes32",
          "name": "previousAdminRole",
          "type": "bytes32"
        },
        {
          "indexed": true,
          "internalType": "bytes32",
          "name": "newAdminRole",
          "type": "bytes32"
        }
      ],
      "name": "RoleAdminChanged",
      "type": "event"
    },
    {
      "anonymous": false,
      "inputs": [
        {
          "indexed": true,
          "internalType": "bytes32",
          "name": "role",
          "type": "bytes32"
        },
        {
          "indexed": true,
          "internalType": "address",
          "name": "account",
          "type": "address"
        },
        {
          "indexed": true,
          "internalType": "address",
          "name": "sender",
          "type": "address"
        }
      ],
      "name": "RoleGranted",
      "type": "event"
    },
    {
      "anonymous": false,
      "inputs": [
        {
          "indexed": true,
          "internalType": "bytes32",
          "name": "role",
          "type": "bytes32"
        },
        {
          "indexed": true,
          "internalType": "address",
          "name": "account",
          "type": "address"
        },
        {
          "indexed": true,
          "internalType": "address",
          "name": "sender",
          "type": "address"
        }
      ],
      "name": "RoleRevoked",
      "type": "event"
    },
    {
      "anonymous": false,
      "inputs": [
        {
          "indexed": true,
          "internalType": "address",
          "name": "from",
          "type": "address"
        },
        {
          "indexed": true,
          "internalType": "address",
          "name": "to",
          "type": "address"
        },
        {
          "indexed": false,
          "internalType": "uint256",
          "name": "value",
          "type": "uint256"
        }
      ],
      "name": "Transfer",
      "type": "event"
    },
    {
      "anonymous": false,
      "inputs": [
        {
          "indexed": false,
          "internalType": "address",
          "name": "account",
          "type": "address"
        }
      ],
      "name": "Unpaused",
      "type": "event"
    },
    {
      "inputs": [],
      "name": "ADMIN_ROLE",
      "outputs": [
        {
          "internalType": "bytes32",
          "name": "",
          "type": "bytes32"
        }
      ],
      "stateMutability": "view",
      "type": "function"
    },
    {
      "inputs": [],
      "name": "DEFAULT_ADMIN_ROLE",
      "outputs": [
        {
          "internalType": "bytes32",
          "name": "",
          "type": "bytes32"
        }
      ],
      "stateMutability": "view",
      "type": "function"
    },
    {
      "inputs": [],
      "name": "DOMAIN_SEPARATOR",
      "outputs": [
        {
          "internalType": "bytes32",
          "name": "",
          "type": "bytes32"
        }
      ],
      "stateMutability": "view",
      "type": "function"
    },
    {
      "inputs": [],
      "name": "MINTER_ROLE",
      "outputs": [
        {
          "internalType": "bytes32",
          "name": "",
          "type": "bytes32"
        }
      ],
      "stateMutability": "view",
      "type": "function"
    },
    {
      "inputs": [
        {
          "internalType": "address",
          "name": "to",
          "type": "address"
        }
      ],
      "name": "addGlobalWhitelist",
      "outputs": [],
      "stateMutability": "nonpayable",
      "type": "function"
    },
    {
      "inputs": [
        {
          "internalType": "address",
          "name": "from",
          "type": "address"
        },
        {
          "internalType": "address",
          "name": "to",
          "type": "address"
        }
      ],
      "name": "addWhitelist",
      "outputs": [],
      "stateMutability": "nonpayable",
      "type": "function"
    },
    {
      "inputs": [
        {
          "internalType": "address",
          "name": "owner",
          "type": "address"
        },
        {
          "internalType": "address",
          "name": "spender",
          "type": "address"
        }
      ],
      "name": "allowance",
      "outputs": [
        {
          "internalType": "uint256",
          "name": "",
          "type": "uint256"
        }
      ],
      "stateMutability": "view",
      "type": "function"
    },
    {
      "inputs": [
        {
          "internalType": "address",
          "name": "spender",
          "type": "address"
        },
        {
          "internalType": "uint256",
          "name": "amount",
          "type": "uint256"
        }
      ],
      "name": "approve",
      "outputs": [
        {
          "internalType": "bool",
          "name": "",
          "type": "bool"
        }
      ],
      "stateMutability": "nonpayable",
      "type": "function"
    },
    {
      "inputs": [
        {
          "internalType": "address",
          "name": "account",
          "type": "address"
        }
      ],
      "name": "balanceOf",
      "outputs": [
        {
          "internalType": "uint256",
          "name": "",
          "type": "uint256"
        }
      ],
      "stateMutability": "view",
      "type": "function"
    },
    {
      "inputs": [
        {
          "internalType": "uint256",
          "name": "amount",
          "type": "uint256"
        }
      ],
      "name": "burn",
      "outputs": [],
      "stateMutability": "nonpayable",
      "type": "function"
    },
    {
      "inputs": [
        {
          "internalType": "address",
          "name": "account",
          "type": "address"
        },
        {
          "internalType": "uint256",
          "name": "amount",
          "type": "uint256"
        }
      ],
      "name": "burnFrom",
      "outputs": [],
      "stateMutability": "nonpayable",
      "type": "function"
    },
    {
      "inputs": [],
      "name": "claimPending",
      "outputs": [],
      "stateMutability": "nonpayable",
      "type": "function"
    },
    {
      "inputs": [],
      "name": "decimals",
      "outputs": [
        {
          "internalType": "uint8",
          "name": "",
          "type": "uint8"
        }
      ],
      "stateMutability": "view",
      "type": "function"
    },
    {
      "inputs": [
        {
          "internalType": "address",
          "name": "spender",
          "type": "address"
        },
        {
          "internalType": "uint256",
          "name": "subtractedValue",
          "type": "uint256"
        }
      ],
      "name": "decreaseAllowance",
      "outputs": [
        {
          "internalType": "bool",
          "name": "",
          "type": "bool"
        }
      ],
      "stateMutability": "nonpayable",
      "type": "function"
    },
    {
      "inputs": [
        {
          "internalType": "bytes32",
          "name": "role",
          "type": "bytes32"
        }
      ],
      "name": "getRoleAdmin",
      "outputs": [
        {
          "internalType": "bytes32",
          "name": "",
          "type": "bytes32"
        }
      ],
      "stateMutability": "view",
      "type": "function"
    },
    {
      "inputs": [
        {
          "internalType": "bytes32",
          "name": "role",
          "type": "bytes32"
        },
        {
          "internalType": "address",
          "name": "account",
          "type": "address"
        }
      ],
      "name": "grantRole",
      "outputs": [],
      "stateMutability": "nonpayable",
      "type": "function"
    },
    {
      "inputs": [
        {
          "internalType": "bytes32",
          "name": "role",
          "type": "bytes32"
        },
        {
          "internalType": "address",
          "name": "account",
          "type": "address"
        }
      ],
      "name": "hasRole",
      "outputs": [
        {
          "internalType": "bool",
          "name": "",
          "type": "bool"
        }
      ],
      "stateMutability": "view",
      "type": "function"
    },
    {
      "inputs": [
        {
          "internalType": "address",
          "name": "spender",
          "type": "address"
        },
        {
          "internalType": "uint256",
          "name": "addedValue",
          "type": "uint256"
        }
      ],
      "name": "increaseAllowance",
      "outputs": [
        {
          "internalType": "bool",
          "name": "",
          "type": "bool"
        }
      ],
      "stateMutability": "nonpayable",
      "type": "function"
    },
    {
      "inputs": [],
      "name": "initialize",
      "outputs": [],
      "stateMutability": "nonpayable",
      "type": "function"
    },
    {
      "inputs": [
        {
          "internalType": "address",
          "name": "_address",
          "type": "address"
        },
        {
          "internalType": "uint256",
          "name": "amount",
          "type": "uint256"
        }
      ],
      "name": "mint",
      "outputs": [],
      "stateMutability": "nonpayable",
      "type": "function"
    },
    {
      "inputs": [],
      "name": "name",
      "outputs": [
        {
          "internalType": "string",
          "name": "",
          "type": "string"
        }
      ],
      "stateMutability": "view",
      "type": "function"
    },
    {
      "inputs": [
        {
          "internalType": "address",
          "name": "owner",
          "type": "address"
        }
      ],
      "name": "nonces",
      "outputs": [
        {
          "internalType": "uint256",
          "name": "",
          "type": "uint256"
        }
      ],
      "stateMutability": "view",
      "type": "function"
    },
    {
      "inputs": [],
      "name": "pause",
      "outputs": [],
      "stateMutability": "nonpayable",
      "type": "function"
    },
    {
      "inputs": [],
      "name": "paused",
      "outputs": [
        {
          "internalType": "bool",
          "name": "",
          "type": "bool"
        }
      ],
      "stateMutability": "view",
      "type": "function"
    },
    {
      "inputs": [
        {
          "internalType": "address",
          "name": "_address",
          "type": "address"
        }
      ],
      "name": "pendingOf",
      "outputs": [
        {
          "internalType": "uint256",
          "name": "",
          "type": "uint256"
        }
      ],
      "stateMutability": "view",
      "type": "function"
    },
    {
      "inputs": [
        {
          "internalType": "address",
          "name": "owner",
          "type": "address"
        },
        {
          "internalType": "address",
          "name": "spender",
          "type": "address"
        },
        {
          "internalType": "uint256",
          "name": "value",
          "type": "uint256"
        },
        {
          "internalType": "uint256",
          "name": "deadline",
          "type": "uint256"
        },
        {
          "internalType": "uint8",
          "name": "v",
          "type": "uint8"
        },
        {
          "internalType": "bytes32",
          "name": "r",
          "type": "bytes32"
        },
        {
          "internalType": "bytes32",
          "name": "s",
          "type": "bytes32"
        }
      ],
      "name": "permit",
      "outputs": [],
      "stateMutability": "nonpayable",
      "type": "function"
    },
    {
      "inputs": [
        {
          "internalType": "bytes32",
          "name": "role",
          "type": "bytes32"
        },
        {
          "internalType": "address",
          "name": "account",
          "type": "address"
        }
      ],
      "name": "renounceRole",
      "outputs": [],
      "stateMutability": "nonpayable",
      "type": "function"
    },
    {
      "inputs": [
        {
          "internalType": "bytes32",
          "name": "role",
          "type": "bytes32"
        },
        {
          "internalType": "address",
          "name": "account",
          "type": "address"
        }
      ],
      "name": "revokeRole",
      "outputs": [],
      "stateMutability": "nonpayable",
      "type": "function"
    },
    {
      "inputs": [
        {
          "internalType": "bytes4",
          "name": "interfaceId",
          "type": "bytes4"
        }
      ],
      "name": "supportsInterface",
      "outputs": [
        {
          "internalType": "bool",
          "name": "",
          "type": "bool"
        }
      ],
      "stateMutability": "view",
      "type": "function"
    },
    {
      "inputs": [],
      "name": "symbol",
      "outputs": [
        {
          "internalType": "string",
          "name": "",
          "type": "string"
        }
      ],
      "stateMutability": "view",
      "type": "function"
    },
    {
      "inputs": [],
      "name": "totalBurned",
      "outputs": [
        {
          "internalType": "uint256",
          "name": "",
          "type": "uint256"
        }
      ],
      "stateMutability": "view",
      "type": "function"
    },
    {
      "inputs": [
        {
          "internalType": "address",
          "name": "_address",
          "type": "address"
        }
      ],
      "name": "totalOf",
      "outputs": [
        {
          "internalType": "uint256",
          "name": "",
          "type": "uint256"
        }
      ],
      "stateMutability": "view",
      "type": "function"
    },
    {
      "inputs": [],
      "name": "totalSupply",
      "outputs": [
        {
          "internalType": "uint256",
          "name": "",
          "type": "uint256"
        }
      ],
      "stateMutability": "view",
      "type": "function"
    },
    {
      "inputs": [
        {
          "internalType": "address",
          "name": "to",
          "type": "address"
        },
        {
          "internalType": "uint256",
          "name": "amount",
          "type": "uint256"
        }
      ],
      "name": "transfer",
      "outputs": [
        {
          "internalType": "bool",
          "name": "",
          "type": "bool"
        }
      ],
      "stateMutability": "nonpayable",
      "type": "function"
    },
    {
      "inputs": [
        {
          "internalType": "address",
          "name": "from",
          "type": "address"
        },
        {
          "internalType": "address",
          "name": "to",
          "type": "address"
        },
        {
          "internalType": "uint256",
          "name": "amount",
          "type": "uint256"
        }
      ],
      "name": "transferFrom",
      "outputs": [
        {
          "internalType": "bool",
          "name": "",
          "type": "bool"
        }
      ],
      "stateMutability": "nonpayable",
      "type": "function"
    },
    {
      "inputs": [],
      "name": "unpause",
      "outputs": [],
      "stateMutability": "nonpayable",
      "type": "function"
    }
  ],
  "bytecode": "0x608060405234801561001057600080fd5b5061001961001e565b6100de565b600054610100900460ff161561008a5760405162461bcd60e51b815260206004820152602760248201527f496e697469616c697a61626c653a20636f6e747261637420697320696e697469604482015266616c697a696e6760c81b606482015260840160405180910390fd5b60005460ff90811610156100dc576000805460ff191660ff9081179091556040519081527f7f26b83ff96e1f2b6a682f133852f6798a09c465da95921460cefb38474024989060200160405180910390a15b565b61241680620000ee6000396000f3fe608060405234801561001057600080fd5b506004361061021c5760003560e01c806379cc679011610125578063a73d633c116100ad578063d53913931161007c578063d53913931461046c578063d547741f14610493578063d89135cd146104a6578063dd62ed3e146104af578063f44136a1146104c257600080fd5b8063a73d633c14610420578063a9059cbb14610433578063b45cc84514610446578063d505accf1461045957600080fd5b8063912c2673116100f4578063912c2673146103c057806391d14854146103ea57806395d89b41146103fd578063a217fddf14610405578063a457c2d71461040d57600080fd5b806379cc67901461038a5780637ecebe001461039d5780638129fc1c146103b05780638456cb59146103b857600080fd5b80633644e515116101a857806340c10f191161017757806340c10f191461031b57806342966c681461032e5780635c975abb1461034157806370a082311461034c57806375b238fc1461037557600080fd5b80633644e515146102e557806336568abe146102ed57806339509351146103005780633f4ba83a1461031357600080fd5b806318160ddd116101ef57806318160ddd1461027b57806323b872dd1461028d578063248a9ca3146102a05780632f2ff15d146102c3578063313ce567146102d657600080fd5b806301ffc9a71461022157806303a9f06e1461024957806306fdde0314610253578063095ea7b314610268575b600080fd5b61023461022f366004611ed6565b6104d5565b60405190151581526020015b60405180910390f35b61025161050c565b005b61025b6105c0565b6040516102409190611f24565b610234610276366004611f73565b610652565b6035545b604051908152602001610240565b61023461029b366004611f9d565b61066a565b61027f6102ae366004611fd9565b600090815260c9602052604090206001015490565b6102516102d1366004611ff2565b61068e565b60405160128152602001610240565b61027f6106b8565b6102516102fb366004611ff2565b6106c7565b61023461030e366004611f73565b610746565b610251610768565b610251610329366004611f73565b61078b565b61025161033c366004611fd9565b610857565b60655460ff16610234565b61027f61035a36600461201e565b6001600160a01b031660009081526033602052604090205490565b61027f6000805160206123c183398151915281565b610251610398366004611f73565b6108c2565b61027f6103ab36600461201e565b61092f565b61025161094e565b610251610b6d565b61027f6103ce36600461201e565b6001600160a01b031660009081526101c8602052604090205490565b6102346103f8366004611ff2565b610b8d565b61025b610bb8565b61027f600081565b61023461041b366004611f73565b610bc7565b61025161042e366004612039565b610c42565b610234610441366004611f73565b610c76565b61025161045436600461201e565b610c84565b610251610467366004612063565b610c9b565b61027f7f9f2df0fed2c77648de5860a4cc508cd0818c85b8b8a1ab4ceeef8d981c8956a681565b6102516104a1366004611ff2565b610dff565b6101625461027f565b61027f6104bd366004612039565b610e24565b61027f6104d036600461201e565b610e4f565b60006001600160e01b03198216637965db0b60e01b148061050657506301ffc9a760e01b6001600160e01b03198316145b92915050565b610514610f20565b600061051f33610e4f565b90508060000361052c5750565b610537335b82610f66565b6101c5546001600160a01b031663a9059cbb336040516001600160e01b031960e084901b1681526001600160a01b039091166004820152602481018490526044016020604051808303816000875af1158015610597573d6000803e3d6000fd5b505050506040513d601f19601f820116820180604052508101906105bb91906120d6565b50505b565b6060603680546105cf906120f8565b80601f01602080910402602001604051908101604052809291908181526020018280546105fb906120f8565b80156106485780601f1061061d57610100808354040283529160200191610648565b820191906000526020600020905b81548152906001019060200180831161062b57829003601f168201915b5050505050905090565b6000336106608185856110a6565b5060019392505050565b6000336106788582856111ca565b61068385858561123e565b506001949350505050565b600082815260c960205260409020600101546106a9816113f4565b6106b383836113fe565b505050565b60006106c2611484565b905090565b6001600160a01b038116331461073c5760405162461bcd60e51b815260206004820152602f60248201527f416363657373436f6e74726f6c3a2063616e206f6e6c792072656e6f756e636560448201526e103937b632b9903337b91039b2b63360891b60648201526084015b60405180910390fd5b6105bb82826114ff565b6000336106608185856107598383610e24565b6107639190612142565b6110a6565b6000805160206123c1833981519152610780816113f4565b610788611566565b50565b7f9f2df0fed2c77648de5860a4cc508cd0818c85b8b8a1ab4ceeef8d981c8956a66107b5816113f4565b6101c5546040516340c10f1960e01b8152306004820152602481018490526001600160a01b03909116906340c10f1990604401600060405180830381600087803b15801561080257600080fd5b505af1158015610816573d6000803e3d6000fd5b5050505061082483836115b8565b6001600160a01b03831660009081526101c860205260408120805484929061084d908490612142565b9091555050505050565b61086081611686565b6101c554604051630852cd8d60e31b8152600481018390526001600160a01b03909116906342966c6890602401600060405180830381600087803b1580156108a757600080fd5b505af11580156108bb573d6000803e3d6000fd5b5050505050565b6108cc82826116a8565b6101c554604051630852cd8d60e31b8152600481018390526001600160a01b03909116906342966c6890602401600060405180830381600087803b15801561091357600080fd5b505af1158015610927573d6000803e3d6000fd5b505050505050565b6001600160a01b038116600090815261012f6020526040812054610506565b600054610100900460ff161580801561096e5750600054600160ff909116105b806109885750303b158015610988575060005460ff166001145b6109eb5760405162461bcd60e51b815260206004820152602e60248201527f496e697469616c697a61626c653a20636f6e747261637420697320616c72656160448201526d191e481a5b9a5d1a585b1a5e995960921b6064820152608401610733565b6000805460ff191660011790558015610a0e576000805461ff0019166101001790555b610a54604051806040016040528060068152602001656c4d4147494360d01b815250604051806040016040528060068152602001656c4d4147494360d01b8152506116d6565b610a5c611707565b610a64611736565b610a8b604051806040016040528060068152602001656c4d4147494360d01b81525061175d565b610a93611736565b610a9e6000336113fe565b610ab66000805160206123c1833981519152336113fe565b610ae07f9f2df0fed2c77648de5860a4cc508cd0818c85b8b8a1ab4ceeef8d981c8956a6336113fe565b6101c580546001600160a01b031916739a8e0217cd870783c3f2317985c57bf5709691531790556363bea4c06101c7819055610b21906301e1338090612155565b6101c6558015610788576000805461ff0019169055604051600181527f7f26b83ff96e1f2b6a682f133852f6798a09c465da95921460cefb38474024989060200160405180910390a150565b6000805160206123c1833981519152610b85816113f4565b6107886117a7565b600091825260c9602090815260408084206001600160a01b0393909316845291905290205460ff1690565b6060603780546105cf906120f8565b60003381610bd58286610e24565b905083811015610c355760405162461bcd60e51b815260206004820152602560248201527f45524332303a2064656372656173656420616c6c6f77616e63652062656c6f77604482015264207a65726f60d81b6064820152608401610733565b61068382868684036110a6565b6000610c4d816113f4565b6001600160a01b03831660009081526101cb60205260409020610c7090836117e4565b50505050565b60003361066081858561123e565b6000610c8f816113f4565b6106b36101c9836117e4565b83421115610ceb5760405162461bcd60e51b815260206004820152601d60248201527f45524332305065726d69743a206578706972656420646561646c696e650000006044820152606401610733565b60007f6e71edae12b1b97f4d1f60370fef10105fa2faae0126114a169c64845d6126c9888888610d1a8c611800565b6040805160208101969096526001600160a01b0394851690860152929091166060840152608083015260a082015260c0810186905260e0016040516020818303038152906040528051906020012090506000610d7582611829565b90506000610d8582878787611877565b9050896001600160a01b0316816001600160a01b031614610de85760405162461bcd60e51b815260206004820152601e60248201527f45524332305065726d69743a20696e76616c6964207369676e617475726500006044820152606401610733565b610df38a8a8a6110a6565b50505050505050505050565b600082815260c96020526040902060010154610e1a816113f4565b6106b383836114ff565b6001600160a01b03918216600090815260346020908152604080832093909416825291909152205490565b6001600160a01b0381166000908152603360205260408120546101c754421115610e795792915050565b6001600160a01b03831660009081526101c86020526040812054610e9e908390612155565b905060006101c6546101c754610eb49190612155565b6001600160a01b03861660009081526101c86020526040902054610ed89190612168565b90506000816101c65442610eec9190612155565b610ef6919061218a565b905080831015610f1457610f0a8382612155565b9695505050505050565b50600095945050505050565b60655460ff16156105be5760405162461bcd60e51b815260206004820152601060248201526f14185d5cd8589b194e881c185d5cd95960821b6044820152606401610733565b6001600160a01b038216610fc65760405162461bcd60e51b815260206004820152602160248201527f45524332303a206275726e2066726f6d20746865207a65726f206164647265736044820152607360f81b6064820152608401610733565b610fd28260008361189f565b6001600160a01b038216600090815260336020526040902054818110156110465760405162461bcd60e51b815260206004820152602260248201527f45524332303a206275726e20616d6f756e7420657863656564732062616c616e604482015261636560f01b6064820152608401610733565b6001600160a01b03831660008181526033602090815260408083208686039055603580548790039055518581529192917fddf252ad1be2c89b69c2b068fc378daa952ba7f163c4a11628f55a4df523b3ef910160405180910390a3505050565b6001600160a01b0383166111085760405162461bcd60e51b8152602060048201526024808201527f45524332303a20617070726f76652066726f6d20746865207a65726f206164646044820152637265737360e01b6064820152608401610733565b6001600160a01b0382166111695760405162461bcd60e51b815260206004820152602260248201527f45524332303a20617070726f766520746f20746865207a65726f206164647265604482015261737360f01b6064820152608401610733565b6001600160a01b0383811660008181526034602090815260408083209487168084529482529182902085905590518481527f8c5be1e5ebec7d5bd14f71427d1e84f3dd0314c0f7b2291e5b200ac8c7c3b925910160405180910390a3505050565b60006111d68484610e24565b90506000198114610c7057818110156112315760405162461bcd60e51b815260206004820152601d60248201527f45524332303a20696e73756666696369656e7420616c6c6f77616e63650000006044820152606401610733565b610c7084848484036110a6565b6001600160a01b0383166112a25760405162461bcd60e51b815260206004820152602560248201527f45524332303a207472616e736665722066726f6d20746865207a65726f206164604482015264647265737360d81b6064820152608401610733565b6001600160a01b0382166113045760405162461bcd60e51b815260206004820152602360248201527f45524332303a207472616e7366657220746f20746865207a65726f206164647260448201526265737360e81b6064820152608401610733565b61130f83838361189f565b6001600160a01b038316600090815260336020526040902054818110156113875760405162461bcd60e51b815260206004820152602660248201527f45524332303a207472616e7366657220616d6f756e7420657863656564732062604482015265616c616e636560d01b6064820152608401610733565b6001600160a01b0380851660008181526033602052604080822086860390559286168082529083902080548601905591517fddf252ad1be2c89b69c2b068fc378daa952ba7f163c4a11628f55a4df523b3ef906113e79086815260200190565b60405180910390a3610c70565b6107888133611953565b6114088282610b8d565b6105bb57600082815260c9602090815260408083206001600160a01b03851684529091529020805460ff191660011790556114403390565b6001600160a01b0316816001600160a01b0316837f2f8788117e7eff1d82e926ec794901d17c78024a50270940304540a733656f0d60405160405180910390a45050565b60006106c27f8b73c3c69bb8fe3d512ecc4cf759cc79239f7b179b0ffacaa9a75d522b39400f6114b360fb5490565b60fc546040805160208101859052908101839052606081018290524660808201523060a082015260009060c0016040516020818303038152906040528051906020012090509392505050565b6115098282610b8d565b156105bb57600082815260c9602090815260408083206001600160a01b0385168085529252808320805460ff1916905551339285917ff6391f5c32d9c69d2a47ea670b442974b53935d1edc7fd64eb21e047a839171b9190a45050565b61156e6119ac565b6065805460ff191690557f5db9ee0a495bf2e6ff9c91a7834c1ba4fdd244a5e8aa4e537bd38aeae4b073aa335b6040516001600160a01b03909116815260200160405180910390a1565b6001600160a01b03821661160e5760405162461bcd60e51b815260206004820152601f60248201527f45524332303a206d696e7420746f20746865207a65726f2061646472657373006044820152606401610733565b61161a6000838361189f565b806035600082825461162c9190612142565b90915550506001600160a01b0382166000818152603360209081526040808320805486019055518481527fddf252ad1be2c89b69c2b068fc378daa952ba7f163c4a11628f55a4df523b3ef910160405180910390a36105bb565b8061016260008282546116999190612142565b90915550610788905033610531565b6116b38233836111ca565b8061016260008282546116c69190612142565b909155506105bb90508282610f66565b600054610100900460ff166116fd5760405162461bcd60e51b8152600401610733906121a1565b6105bb82826119f5565b600054610100900460ff1661172e5760405162461bcd60e51b8152600401610733906121a1565b6105be611a35565b600054610100900460ff166105be5760405162461bcd60e51b8152600401610733906121a1565b600054610100900460ff166117845760405162461bcd60e51b8152600401610733906121a1565b61078881604051806040016040528060018152602001603160f81b815250611a68565b6117af610f20565b6065805460ff191660011790557f62e78cea01bee320cd4e420270b5ea74000d11b0c9f74754ebdbfc544b05a25861159b3390565b60006117f9836001600160a01b038416611aa9565b9392505050565b6001600160a01b038116600090815261012f602052604090208054600181018255905b50919050565b6000610506611836611484565b8360405161190160f01b6020820152602281018390526042810182905260009060620160405160208183030381529060405280519060200120905092915050565b600080600061188887878787611af8565b9150915061189581611bbc565b5095945050505050565b6118a7610f20565b82826118b56101c982611d06565b806118de57506001600160a01b03821660009081526101cb602052604090206118de9082611d06565b806118f057506001600160a01b038216155b8061190257506001600160a01b038116155b61194e5760405162461bcd60e51b815260206004820152601860248201527f6345564f206973206e6f6e2d7472616e7366657261626c6500000000000000006044820152606401610733565b6108bb565b61195d8282610b8d565b6105bb5761196a81611d28565b611975836020611d3a565b6040516020016119869291906121ec565b60408051601f198184030181529082905262461bcd60e51b825261073391600401611f24565b60655460ff166105be5760405162461bcd60e51b815260206004820152601460248201527314185d5cd8589b194e881b9bdd081c185d5cd95960621b6044820152606401610733565b600054610100900460ff16611a1c5760405162461bcd60e51b8152600401610733906121a1565b6036611a2883826122bd565b5060376106b382826122bd565b600054610100900460ff16611a5c5760405162461bcd60e51b8152600401610733906121a1565b6065805460ff19169055565b600054610100900460ff16611a8f5760405162461bcd60e51b8152600401610733906121a1565b81516020928301208151919092012060fb9190915560fc55565b6000818152600183016020526040812054611af057508154600181810184556000848152602080822090930184905584548482528286019093526040902091909155610506565b506000610506565b6000807f7fffffffffffffffffffffffffffffff5d576e7357a4501ddfe92f46681b20a0831115611b2f5750600090506003611bb3565b6040805160008082526020820180845289905260ff881692820192909252606081018690526080810185905260019060a0016020604051602081039080840390855afa158015611b83573d6000803e3d6000fd5b5050604051601f1901519150506001600160a01b038116611bac57600060019250925050611bb3565b9150600090505b94509492505050565b6000816004811115611bd057611bd061237d565b03611bd85750565b6001816004811115611bec57611bec61237d565b03611c395760405162461bcd60e51b815260206004820152601860248201527f45434453413a20696e76616c6964207369676e617475726500000000000000006044820152606401610733565b6002816004811115611c4d57611c4d61237d565b03611c9a5760405162461bcd60e51b815260206004820152601f60248201527f45434453413a20696e76616c6964207369676e6174757265206c656e677468006044820152606401610733565b6003816004811115611cae57611cae61237d565b036107885760405162461bcd60e51b815260206004820152602260248201527f45434453413a20696e76616c6964207369676e6174757265202773272076616c604482015261756560f01b6064820152608401610733565b6001600160a01b038116600090815260018301602052604081205415156117f9565b60606105066001600160a01b03831660145b60606000611d4983600261218a565b611d54906002612142565b67ffffffffffffffff811115611d6c57611d6c612261565b6040519080825280601f01601f191660200182016040528015611d96576020820181803683370190505b509050600360fc1b81600081518110611db157611db1612393565b60200101906001600160f81b031916908160001a905350600f60fb1b81600181518110611de057611de0612393565b60200101906001600160f81b031916908160001a9053506000611e0484600261218a565b611e0f906001612142565b90505b6001811115611e87576f181899199a1a9b1b9c1cb0b131b232b360811b85600f1660108110611e4357611e43612393565b1a60f81b828281518110611e5957611e59612393565b60200101906001600160f81b031916908160001a90535060049490941c93611e80816123a9565b9050611e12565b5083156117f95760405162461bcd60e51b815260206004820181905260248201527f537472696e67733a20686578206c656e67746820696e73756666696369656e746044820152606401610733565b600060208284031215611ee857600080fd5b81356001600160e01b0319811681146117f957600080fd5b60005b83811015611f1b578181015183820152602001611f03565b50506000910152565b6020815260008251806020840152611f43816040850160208701611f00565b601f01601f19169190910160400192915050565b80356001600160a01b0381168114611f6e57600080fd5b919050565b60008060408385031215611f8657600080fd5b611f8f83611f57565b946020939093013593505050565b600080600060608486031215611fb257600080fd5b611fbb84611f57565b9250611fc960208501611f57565b9150604084013590509250925092565b600060208284031215611feb57600080fd5b5035919050565b6000806040838503121561200557600080fd5b8235915061201560208401611f57565b90509250929050565b60006020828403121561203057600080fd5b6117f982611f57565b6000806040838503121561204c57600080fd5b61205583611f57565b915061201560208401611f57565b600080600080600080600060e0888a03121561207e57600080fd5b61208788611f57565b965061209560208901611f57565b95506040880135945060608801359350608088013560ff811681146120b957600080fd5b9699959850939692959460a0840135945060c09093013592915050565b6000602082840312156120e857600080fd5b815180151581146117f957600080fd5b600181811c9082168061210c57607f821691505b60208210810361182357634e487b7160e01b600052602260045260246000fd5b634e487b7160e01b600052601160045260246000fd5b808201808211156105065761050661212c565b818103818111156105065761050661212c565b60008261218557634e487b7160e01b600052601260045260246000fd5b500490565b80820281158282048414176105065761050661212c565b6020808252602b908201527f496e697469616c697a61626c653a20636f6e7472616374206973206e6f74206960408201526a6e697469616c697a696e6760a81b606082015260800190565b7f416363657373436f6e74726f6c3a206163636f756e7420000000000000000000815260008351612224816017850160208801611f00565b7001034b99036b4b9b9b4b733903937b6329607d1b6017918401918201528351612255816028840160208801611f00565b01602801949350505050565b634e487b7160e01b600052604160045260246000fd5b601f8211156106b357600081815260208120601f850160051c8101602086101561229e5750805b601f850160051c820191505b81811015610927578281556001016122aa565b815167ffffffffffffffff8111156122d7576122d7612261565b6122eb816122e584546120f8565b84612277565b602080601f83116001811461232057600084156123085750858301515b600019600386901b1c1916600185901b178555610927565b600085815260208120601f198616915b8281101561234f57888601518255948401946001909101908401612330565b508582101561236d5787850151600019600388901b60f8161c191681555b5050505050600190811b01905550565b634e487b7160e01b600052602160045260246000fd5b634e487b7160e01b600052603260045260246000fd5b6000816123b8576123b861212c565b50600019019056fea49807205ce4d355092ef5a8a18f56e8913cf4a201fbe287825b095693c21775a26469706673582212209b2926817fecd4bd78b2f3268fa837a27520709fd425f90a0e06ab98df01bccc64736f6c63430008110033",
  "linkReferences": {},
  "deployedLinkReferences": {}
}