{
  "_format": "hh-sol-artifact-1",
  "contractName": "AssetCustomizationUpgradeable",
  "sourceName": "contracts/upgradeable/npc/AssetCustomizationUpgradeable.sol",
  "abi": [
    {
      "inputs": [],
      "stateMutability": "nonpayable",
      "type": "constructor"
    },
    {
      "anonymous": false,
      "inputs": [
        {
          "indexed": false,
          "internalType": "uint8",
          "name": "version",
          "type": "uint8"
        }
      ],
      "name": "Initialized",
      "type": "event"
    },
    {
      "anonymous": false,
      "inputs": [
        {
          "indexed": true,
          "internalType": "address",
          "name": "from",
          "type": "address"
        },
        {
          "indexed": true,
          "internalType": "address",
          "name": "nftAddress",
          "type": "address"
        },
        {
          "indexed": false,
          "internalType": "uint256",
          "name": "tokenId",
          "type": "uint256"
        },
        {
          "indexed": false,
          "internalType": "string",
          "name": "name",
          "type": "string"
        }
      ],
      "name": "NameChanged",
      "type": "event"
    },
    {
      "anonymous": false,
      "inputs": [
        {
          "indexed": true,
          "internalType": "address",
          "name": "from",
          "type": "address"
        },
        {
          "indexed": true,
          "internalType": "address",
          "name": "nftAddress",
          "type": "address"
        },
        {
          "indexed": false,
          "internalType": "uint256",
          "name": "tokenId",
          "type": "uint256"
        }
      ],
      "name": "NameReset",
      "type": "event"
    },
    {
      "anonymous": false,
      "inputs": [
        {
          "indexed": false,
          "internalType": "address",
          "name": "account",
          "type": "address"
        }
      ],
      "name": "Paused",
      "type": "event"
    },
    {
      "anonymous": false,
      "inputs": [
        {
          "indexed": true,
          "internalType": "bytes32",
          "name": "role",
          "type": "bytes32"
        },
        {
          "indexed": true,
          "internalType": "bytes32",
          "name": "previousAdminRole",
          "type": "bytes32"
        },
        {
          "indexed": true,
          "internalType": "bytes32",
          "name": "newAdminRole",
          "type": "bytes32"
        }
      ],
      "name": "RoleAdminChanged",
      "type": "event"
    },
    {
      "anonymous": false,
      "inputs": [
        {
          "indexed": true,
          "internalType": "bytes32",
          "name": "role",
          "type": "bytes32"
        },
        {
          "indexed": true,
          "internalType": "address",
          "name": "account",
          "type": "address"
        },
        {
          "indexed": true,
          "internalType": "address",
          "name": "sender",
          "type": "address"
        }
      ],
      "name": "RoleGranted",
      "type": "event"
    },
    {
      "anonymous": false,
      "inputs": [
        {
          "indexed": true,
          "internalType": "bytes32",
          "name": "role",
          "type": "bytes32"
        },
        {
          "indexed": true,
          "internalType": "address",
          "name": "account",
          "type": "address"
        },
        {
          "indexed": true,
          "internalType": "address",
          "name": "sender",
          "type": "address"
        }
      ],
      "name": "RoleRevoked",
      "type": "event"
    },
    {
      "anonymous": false,
      "inputs": [
        {
          "indexed": false,
          "internalType": "address",
          "name": "account",
          "type": "address"
        }
      ],
      "name": "Unpaused",
      "type": "event"
    },
    {
      "inputs": [],
      "name": "DEFAULT_ADMIN_ROLE",
      "outputs": [
        {
          "internalType": "bytes32",
          "name": "",
          "type": "bytes32"
        }
      ],
      "stateMutability": "view",
      "type": "function"
    },
    {
      "inputs": [],
      "name": "UPDATER_ROLE",
      "outputs": [
        {
          "internalType": "bytes32",
          "name": "",
          "type": "bytes32"
        }
      ],
      "stateMutability": "view",
      "type": "function"
    },
    {
      "inputs": [
        {
          "internalType": "address",
          "name": "nftAddress",
          "type": "address"
        }
      ],
      "name": "disableAsset",
      "outputs": [],
      "stateMutability": "nonpayable",
      "type": "function"
    },
    {
      "inputs": [
        {
          "internalType": "address",
          "name": "nftAddress",
          "type": "address"
        }
      ],
      "name": "enableAsset",
      "outputs": [],
      "stateMutability": "nonpayable",
      "type": "function"
    },
    {
      "inputs": [
        {
          "internalType": "bytes32",
          "name": "role",
          "type": "bytes32"
        }
      ],
      "name": "getRoleAdmin",
      "outputs": [
        {
          "internalType": "bytes32",
          "name": "",
          "type": "bytes32"
        }
      ],
      "stateMutability": "view",
      "type": "function"
    },
    {
      "inputs": [
        {
          "internalType": "bytes32",
          "name": "role",
          "type": "bytes32"
        },
        {
          "internalType": "address",
          "name": "account",
          "type": "address"
        }
      ],
      "name": "grantRole",
      "outputs": [],
      "stateMutability": "nonpayable",
      "type": "function"
    },
    {
      "inputs": [
        {
          "internalType": "bytes32",
          "name": "role",
          "type": "bytes32"
        },
        {
          "internalType": "address",
          "name": "account",
          "type": "address"
        }
      ],
      "name": "hasRole",
      "outputs": [
        {
          "internalType": "bool",
          "name": "",
          "type": "bool"
        }
      ],
      "stateMutability": "view",
      "type": "function"
    },
    {
      "inputs": [],
      "name": "initialize",
      "outputs": [],
      "stateMutability": "nonpayable",
      "type": "function"
    },
    {
      "inputs": [],
      "name": "nameChangeCost",
      "outputs": [
        {
          "internalType": "uint256",
          "name": "",
          "type": "uint256"
        }
      ],
      "stateMutability": "view",
      "type": "function"
    },
    {
      "inputs": [
        {
          "internalType": "address",
          "name": "nftAddress",
          "type": "address"
        },
        {
          "internalType": "uint256",
          "name": "tokenId",
          "type": "uint256"
        }
      ],
      "name": "nameOf",
      "outputs": [
        {
          "internalType": "string",
          "name": "",
          "type": "string"
        }
      ],
      "stateMutability": "view",
      "type": "function"
    },
    {
      "inputs": [
        {
          "internalType": "address",
          "name": "nftAddress",
          "type": "address"
        },
        {
          "internalType": "uint256[]",
          "name": "tokenIds",
          "type": "uint256[]"
        }
      ],
      "name": "namesOf",
      "outputs": [
        {
          "internalType": "string[]",
          "name": "",
          "type": "string[]"
        }
      ],
      "stateMutability": "view",
      "type": "function"
    },
    {
      "inputs": [],
      "name": "pause",
      "outputs": [],
      "stateMutability": "nonpayable",
      "type": "function"
    },
    {
      "inputs": [],
      "name": "paused",
      "outputs": [
        {
          "internalType": "bool",
          "name": "",
          "type": "bool"
        }
      ],
      "stateMutability": "view",
      "type": "function"
    },
    {
      "inputs": [
        {
          "internalType": "bytes32",
          "name": "role",
          "type": "bytes32"
        },
        {
          "internalType": "address",
          "name": "account",
          "type": "address"
        }
      ],
      "name": "renounceRole",
      "outputs": [],
      "stateMutability": "nonpayable",
      "type": "function"
    },
    {
      "inputs": [
        {
          "internalType": "address",
          "name": "nftAddress",
          "type": "address"
        },
        {
          "internalType": "uint256",
          "name": "tokenId",
          "type": "uint256"
        }
      ],
      "name": "resetNameOf",
      "outputs": [],
      "stateMutability": "nonpayable",
      "type": "function"
    },
    {
      "inputs": [
        {
          "internalType": "bytes32",
          "name": "role",
          "type": "bytes32"
        },
        {
          "internalType": "address",
          "name": "account",
          "type": "address"
        }
      ],
      "name": "revokeRole",
      "outputs": [],
      "stateMutability": "nonpayable",
      "type": "function"
    },
    {
      "inputs": [
        {
          "internalType": "contract IERC20Upgradeable",
          "name": "token",
          "type": "address"
        },
        {
          "internalType": "uint256",
          "name": "fee",
          "type": "uint256"
        }
      ],
      "name": "setFee",
      "outputs": [],
      "stateMutability": "nonpayable",
      "type": "function"
    },
    {
      "inputs": [
        {
          "internalType": "contract IGameStorageUpgradeable",
          "name": "_address",
          "type": "address"
        }
      ],
      "name": "setGameStorage",
      "outputs": [],
      "stateMutability": "nonpayable",
      "type": "function"
    },
    {
      "inputs": [
        {
          "internalType": "address",
          "name": "nftAddress",
          "type": "address"
        },
        {
          "internalType": "uint256",
          "name": "tokenId",
          "type": "uint256"
        },
        {
          "internalType": "string",
          "name": "name",
          "type": "string"
        }
      ],
      "name": "setNameOf",
      "outputs": [],
      "stateMutability": "nonpayable",
      "type": "function"
    },
    {
      "inputs": [
        {
          "internalType": "address",
          "name": "_address",
          "type": "address"
        }
      ],
      "name": "setTreasury",
      "outputs": [],
      "stateMutability": "nonpayable",
      "type": "function"
    },
    {
      "inputs": [
        {
          "internalType": "bytes4",
          "name": "interfaceId",
          "type": "bytes4"
        }
      ],
      "name": "supportsInterface",
      "outputs": [
        {
          "internalType": "bool",
          "name": "",
          "type": "bool"
        }
      ],
      "stateMutability": "view",
      "type": "function"
    },
    {
      "inputs": [],
      "name": "treasury",
      "outputs": [
        {
          "internalType": "address",
          "name": "",
          "type": "address"
        }
      ],
      "stateMutability": "view",
      "type": "function"
    },
    {
      "inputs": [],
      "name": "unpause",
      "outputs": [],
      "stateMutability": "nonpayable",
      "type": "function"
    }
  ],
  "bytecode": "0x60806040523480156200001157600080fd5b50600062000020600162000087565b9050801562000039576000805461ff0019166101001790555b801562000080576000805461ff0019169055604051600181527f7f26b83ff96e1f2b6a682f133852f6798a09c465da95921460cefb38474024989060200160405180910390a15b50620001a8565b60008054610100900460ff161562000120578160ff166001148015620000c05750620000be306200019960201b62000d4c1760201c565b155b620001185760405162461bcd60e51b815260206004820152602e602482015260008051602062001df183398151915260448201526d191e481a5b9a5d1a585b1a5e995960921b60648201526084015b60405180910390fd5b506000919050565b60005460ff8084169116106200017f5760405162461bcd60e51b815260206004820152602e602482015260008051602062001df183398151915260448201526d191e481a5b9a5d1a585b1a5e995960921b60648201526084016200010f565b506000805460ff191660ff92909216919091179055600190565b6001600160a01b03163b151590565b611c3980620001b86000396000f3fe608060405234801561001057600080fd5b506004361061014d5760003560e01c806361d027b3116100c3578063a217fddf1161007c578063a217fddf146102be578063aeac5e35146102c6578063d3a13d42146102e6578063d547741f146102f9578063e55156b51461030c578063f0f442601461031f57600080fd5b806361d027b31461023d57806370807528146102685780638129fc1c1461027b5780638456cb591461028357806391d148541461028b5780639b7c65731461029e57600080fd5b80632aef4024116101155780632aef4024146101dc5780632f2ff15d146101ef57806336568abe146102025780633f4ba83a1461021557806347e633801461021d5780635c975abb1461023257600080fd5b806301ffc9a7146101525780630e642c5a1461017a578063182acb1614610191578063248a9ca3146101a6578063291abe8a146101c9575b600080fd5b61016561016036600461140e565b610332565b60405190151581526020015b60405180910390f35b61018360cb5481565b604051908152602001610171565b6101a461019f3660046114bc565b610369565b005b6101836101b4366004611558565b60009081526097602052604090206001015490565b6101a46101d7366004611571565b610730565b6101a46101ea36600461159d565b61090a565b6101a46101fd3660046115ba565b610932565b6101a46102103660046115ba565b610957565b6101a46109d5565b610183600080516020611be483398151915281565b60335460ff16610165565b60cc54610250906001600160a01b031681565b6040516001600160a01b039091168152602001610171565b6101a461027636600461159d565b6109f8565b6101a4610a1b565b6101a4610b2d565b6101656102993660046115ba565b610b4d565b6102b16102ac36600461160e565b610b78565b6040516101719190611710565b610183600081565b6102d96102d4366004611571565b610c09565b6040516101719190611772565b6101a46102f436600461159d565b610c99565b6101a46103073660046115ba565b610cc7565b6101a461031a366004611571565b610cec565b6101a461032d36600461159d565b610d1e565b60006001600160e01b03198216637965db0b60e01b148061036357506301ffc9a760e01b6001600160e01b03198316145b92915050565b60335460ff16156103955760405162461bcd60e51b815260040161038c90611785565b60405180910390fd5b8282336040516331a9108f60e11b8152600481018390526001600160a01b0391821691841690636352211e9060240160206040518083038186803b1580156103dc57600080fd5b505afa1580156103f0573d6000803e3d6000fd5b505050506040513d601f19601f8201168201806040525081019061041491906117af565b6001600160a01b03161461043a5760405162461bcd60e51b815260040161038c906117cc565b8461044660cf82610d5b565b6104625760405162461bcd60e51b815260040161038c906117cc565b600061046e8787610c09565b8551909150819086906104c35760405162461bcd60e51b815260206004820152601e60248201527f4173736574437573746f6d697a6174696f6e3a20456d707479206e616d650000604482015260640161038c565b6104cc82611803565b6104d582611803565b141561052e5760405162461bcd60e51b815260206004820152602260248201527f4173736574437573746f6d697a6174696f6e3a204e616d6520756e6368616e67604482015261195960f21b606482015260840161038c565b61054261053a82611803565b60cd90610d7d565b61059a5760405162461bcd60e51b8152602060048201526024808201527f4173736574437573746f6d697a6174696f6e3a204e616d6520756e617661696c60448201526361626c6560e01b606482015260840161038c565b6105ae6105a683611803565b60cd90610d89565b156105c9576105c76105bf83611803565b60cd90610da1565b505b60ca546001600160a01b03166323b872dd3360cc5460cb5460405160e085901b6001600160e01b03191681526001600160a01b0393841660048201529290911660248301526044820152606401602060405180830381600087803b15801561063057600080fd5b505af1158015610644573d6000803e3d6000fd5b505050506040513d601f19601f82011682018060405250810190610668919061182a565b5060c95460405163a2b990a960e01b81526001600160a01b039091169063a2b990a9906106a0908c908c906000908d9060040161184c565b600060405180830381600087803b1580156106ba57600080fd5b505af11580156106ce573d6000803e3d6000fd5b50505050886001600160a01b03166106e33390565b6001600160a01b03167f23ec6197218631bb135a3e9d3aae7cb20769157ed09ff4c1f22ab90c44fed7538a8a60405161071d929190611883565b60405180910390a3505050505050505050565b60335460ff16156107535760405162461bcd60e51b815260040161038c90611785565b8181336040516331a9108f60e11b8152600481018390526001600160a01b0391821691841690636352211e9060240160206040518083038186803b15801561079a57600080fd5b505afa1580156107ae573d6000803e3d6000fd5b505050506040513d601f19601f820116820180604052508101906107d291906117af565b6001600160a01b0316146107f85760405162461bcd60e51b815260040161038c906117cc565b8361080460cf82610d5b565b6108205760405162461bcd60e51b815260040161038c906117cc565b600061082c8686610c09565b80519091508190156108c1576108446105bf82611803565b5060c95460405163a2b990a960e01b81526001600160a01b038981166004830152602482018990526000604483018190526080606484015260848301529091169063a2b990a99060a401600060405180830381600087803b1580156108a857600080fd5b505af11580156108bc573d6000803e3d6000fd5b505050505b6040518681526001600160a01b0388169033907f9a4ce7751d7484ea06045ea6f4ff145e4e083a2d93c54ea0461613ed5714afb59060200160405180910390a350505050505050565b600080516020611be483398151915261092281610dad565b61092d60cf83610db7565b505050565b60008281526097602052604090206001015461094d81610dad565b61092d8383610dcc565b6001600160a01b03811633146109c75760405162461bcd60e51b815260206004820152602f60248201527f416363657373436f6e74726f6c3a2063616e206f6e6c792072656e6f756e636560448201526e103937b632b9903337b91039b2b63360891b606482015260840161038c565b6109d18282610e52565b5050565b600080516020611be48339815191526109ed81610dad565b6109f5610eb9565b50565b600080516020611be4833981519152610a1081610dad565b61092d60cf83610f4c565b6000610a276001610f61565b90508015610a3f576000805461ff0019166101001790555b610a47610fe9565b610a4f61101a565b610a5a600033610dcc565b610a72600080516020611be483398151915233610dcc565b60c980546001600160a01b031990811673dc0b143afd1c806d142617f99c5ee037df4ba28f1790915560ca8054821673892d81221484f690c0a97d3dd18b9144a3ecdfb717905560cc80549091167362efb2caf1f3ee645ff23b004b6e88a9a929b5631790556806c6b935b8bbd4000060cb5580156109f5576000805461ff0019169055604051600181527f7f26b83ff96e1f2b6a682f133852f6798a09c465da95921460cefb38474024989060200160405180910390a150565b600080516020611be4833981519152610b4581610dad565b6109f5611041565b60009182526097602090815260408084206001600160a01b0393909316845291905290205460ff1690565b60c95460405163596c4a9960e11b81526060916001600160a01b03169063b2d8953290610bae90869086906000906004016118a4565b60006040518083038186803b158015610bc657600080fd5b505afa158015610bda573d6000803e3d6000fd5b505050506040513d6000823e601f3d908101601f19168201604052610c029190810190611948565b9392505050565b60c9546040516329a6454b60e01b81526001600160a01b038481166004830152602482018490526000604483015260609216906329a6454b9060640160006040518083038186803b158015610c5d57600080fd5b505afa158015610c71573d6000803e3d6000fd5b505050506040513d6000823e601f3d908101601f19168201604052610c0291908101906119f9565b6000610ca481610dad565b5060c980546001600160a01b0319166001600160a01b0392909216919091179055565b600082815260976020526040902060010154610ce281610dad565b61092d8383610e52565b6000610cf781610dad565b5060ca80546001600160a01b0319166001600160a01b03939093169290921790915560cb55565b6000610d2981610dad565b5060cc80546001600160a01b0319166001600160a01b0392909216919091179055565b6001600160a01b03163b151590565b6001600160a01b03811660009081526001830160205260408120541515610c02565b6000610c028383611099565b60008181526001830160205260408120541515610c02565b6000610c0283836110e8565b6109f581336111db565b6000610c02836001600160a01b038416611099565b610dd68282610b4d565b6109d15760008281526097602090815260408083206001600160a01b03851684529091529020805460ff19166001179055610e0e3390565b6001600160a01b0316816001600160a01b0316837f2f8788117e7eff1d82e926ec794901d17c78024a50270940304540a733656f0d60405160405180910390a45050565b610e5c8282610b4d565b156109d15760008281526097602090815260408083206001600160a01b0385168085529252808320805460ff1916905551339285917ff6391f5c32d9c69d2a47ea670b442974b53935d1edc7fd64eb21e047a839171b9190a45050565b60335460ff16610f025760405162461bcd60e51b815260206004820152601460248201527314185d5cd8589b194e881b9bdd081c185d5cd95960621b604482015260640161038c565b6033805460ff191690557f5db9ee0a495bf2e6ff9c91a7834c1ba4fdd244a5e8aa4e537bd38aeae4b073aa335b6040516001600160a01b03909116815260200160405180910390a1565b6000610c02836001600160a01b0384166110e8565b60008054610100900460ff1615610fa8578160ff166001148015610f845750303b155b610fa05760405162461bcd60e51b815260040161038c90611a2e565b506000919050565b60005460ff808416911610610fcf5760405162461bcd60e51b815260040161038c90611a2e565b506000805460ff191660ff92909216919091179055600190565b600054610100900460ff166110105760405162461bcd60e51b815260040161038c90611a7c565b61101861123f565b565b600054610100900460ff166110185760405162461bcd60e51b815260040161038c90611a7c565b60335460ff16156110645760405162461bcd60e51b815260040161038c90611785565b6033805460ff191660011790557f62e78cea01bee320cd4e420270b5ea74000d11b0c9f74754ebdbfc544b05a258610f2f3390565b60008181526001830160205260408120546110e057508154600181810184556000848152602080822090930184905584548482528286019093526040902091909155610363565b506000610363565b600081815260018301602052604081205480156111d157600061110c600183611add565b855490915060009061112090600190611add565b905081811461118557600086600001828154811061114057611140611af4565b906000526020600020015490508087600001848154811061116357611163611af4565b6000918252602080832090910192909255918252600188019052604090208390555b855486908061119657611196611b0a565b600190038181906000526020600020016000905590558560010160008681526020019081526020016000206000905560019350505050610363565b6000915050610363565b6111e58282610b4d565b6109d1576111fd816001600160a01b03166014611272565b611208836020611272565b604051602001611219929190611b20565b60408051601f198184030181529082905262461bcd60e51b825261038c91600401611772565b600054610100900460ff166112665760405162461bcd60e51b815260040161038c90611a7c565b6033805460ff19169055565b60606000611281836002611b95565b61128c906002611bb4565b67ffffffffffffffff8111156112a4576112a461144d565b6040519080825280601f01601f1916602001820160405280156112ce576020820181803683370190505b509050600360fc1b816000815181106112e9576112e9611af4565b60200101906001600160f81b031916908160001a905350600f60fb1b8160018151811061131857611318611af4565b60200101906001600160f81b031916908160001a905350600061133c846002611b95565b611347906001611bb4565b90505b60018111156113bf576f181899199a1a9b1b9c1cb0b131b232b360811b85600f166010811061137b5761137b611af4565b1a60f81b82828151811061139157611391611af4565b60200101906001600160f81b031916908160001a90535060049490941c936113b881611bcc565b905061134a565b508315610c025760405162461bcd60e51b815260206004820181905260248201527f537472696e67733a20686578206c656e67746820696e73756666696369656e74604482015260640161038c565b60006020828403121561142057600080fd5b81356001600160e01b031981168114610c0257600080fd5b6001600160a01b03811681146109f557600080fd5b634e487b7160e01b600052604160045260246000fd5b604051601f8201601f1916810167ffffffffffffffff8111828210171561148c5761148c61144d565b604052919050565b600067ffffffffffffffff8211156114ae576114ae61144d565b50601f01601f191660200190565b6000806000606084860312156114d157600080fd5b83356114dc81611438565b925060208401359150604084013567ffffffffffffffff8111156114ff57600080fd5b8401601f8101861361151057600080fd5b803561152361151e82611494565b611463565b81815287602083850101111561153857600080fd5b816020840160208301376000602083830101528093505050509250925092565b60006020828403121561156a57600080fd5b5035919050565b6000806040838503121561158457600080fd5b823561158f81611438565b946020939093013593505050565b6000602082840312156115af57600080fd5b8135610c0281611438565b600080604083850312156115cd57600080fd5b8235915060208301356115df81611438565b809150509250929050565b600067ffffffffffffffff8211156116045761160461144d565b5060051b60200190565b6000806040838503121561162157600080fd5b823561162c81611438565b915060208381013567ffffffffffffffff81111561164957600080fd5b8401601f8101861361165a57600080fd5b803561166861151e826115ea565b81815260059190911b8201830190838101908883111561168757600080fd5b928401925b828410156116a55783358252928401929084019061168c565b80955050505050509250929050565b60005b838110156116cf5781810151838201526020016116b7565b838111156116de576000848401525b50505050565b600081518084526116fc8160208601602086016116b4565b601f01601f19169290920160200192915050565b6000602080830181845280855180835260408601915060408160051b870101925083870160005b8281101561176557603f198886030184526117538583516116e4565b94509285019290850190600101611737565b5092979650505050505050565b602081526000610c0260208301846116e4565b60208082526010908201526f14185d5cd8589b194e881c185d5cd95960821b604082015260600190565b6000602082840312156117c157600080fd5b8151610c0281611438565b6020808252601d908201527f4173736574437573746f6d697a6174696f6e3a204e6f74204f776e6572000000604082015260600190565b80516020808301519190811015611824576000198160200360031b1b821691505b50919050565b60006020828403121561183c57600080fd5b81518015158114610c0257600080fd5b60018060a01b038516815283602082015282604082015260806060820152600061187960808301846116e4565b9695505050505050565b82815260406020820152600061189c60408301846116e4565b949350505050565b6001600160a01b038416815260606020808301829052845191830182905260009185820191906080850190845b818110156118ed578451835293830193918301916001016118d1565b5050809350505050826040830152949350505050565b600082601f83011261191457600080fd5b815161192261151e82611494565b81815284602083860101111561193757600080fd5b61189c8260208301602087016116b4565b6000602080838503121561195b57600080fd5b825167ffffffffffffffff8082111561197357600080fd5b818501915085601f83011261198757600080fd5b815161199561151e826115ea565b81815260059190911b830184019084810190888311156119b457600080fd5b8585015b838110156119ec578051858111156119d05760008081fd5b6119de8b89838a0101611903565b8452509186019186016119b8565b5098975050505050505050565b600060208284031215611a0b57600080fd5b815167ffffffffffffffff811115611a2257600080fd5b61189c84828501611903565b6020808252602e908201527f496e697469616c697a61626c653a20636f6e747261637420697320616c72656160408201526d191e481a5b9a5d1a585b1a5e995960921b606082015260800190565b6020808252602b908201527f496e697469616c697a61626c653a20636f6e7472616374206973206e6f74206960408201526a6e697469616c697a696e6760a81b606082015260800190565b634e487b7160e01b600052601160045260246000fd5b600082821015611aef57611aef611ac7565b500390565b634e487b7160e01b600052603260045260246000fd5b634e487b7160e01b600052603160045260246000fd5b7f416363657373436f6e74726f6c3a206163636f756e7420000000000000000000815260008351611b588160178501602088016116b4565b7001034b99036b4b9b9b4b733903937b6329607d1b6017918401918201528351611b898160288401602088016116b4565b01602801949350505050565b6000816000190483118215151615611baf57611baf611ac7565b500290565b60008219821115611bc757611bc7611ac7565b500190565b600081611bdb57611bdb611ac7565b50600019019056fe73e573f9566d61418a34d5de3ff49360f9c51fec37f7486551670290f6285daba264697066735822122068919ca0ac6a2cd6c4032910acc9e45ad83dcfa8f073fadc0652a6b60067046964736f6c63430008090033496e697469616c697a61626c653a20636f6e747261637420697320616c726561",
  "linkReferences": {},
  "deployedLinkReferences": {}
}