{
  "_format": "hh-sol-artifact-1",
  "contractName": "AssetCustomizationUpgradeable",
  "sourceName": "contracts/upgradeable/npc/AssetCustomizationUpgradeable.sol",
  "abi": [
    {
      "inputs": [],
      "stateMutability": "nonpayable",
      "type": "constructor"
    },
    {
      "anonymous": false,
      "inputs": [
        {
          "indexed": false,
          "internalType": "uint8",
          "name": "version",
          "type": "uint8"
        }
      ],
      "name": "Initialized",
      "type": "event"
    },
    {
      "anonymous": false,
      "inputs": [
        {
          "indexed": true,
          "internalType": "address",
          "name": "from",
          "type": "address"
        },
        {
          "indexed": true,
          "internalType": "address",
          "name": "nftAddress",
          "type": "address"
        },
        {
          "indexed": false,
          "internalType": "uint256",
          "name": "tokenId",
          "type": "uint256"
        },
        {
          "indexed": false,
          "internalType": "string",
          "name": "name",
          "type": "string"
        }
      ],
      "name": "NameChanged",
      "type": "event"
    },
    {
      "anonymous": false,
      "inputs": [
        {
          "indexed": true,
          "internalType": "address",
          "name": "from",
          "type": "address"
        },
        {
          "indexed": true,
          "internalType": "address",
          "name": "nftAddress",
          "type": "address"
        },
        {
          "indexed": false,
          "internalType": "uint256",
          "name": "tokenId",
          "type": "uint256"
        }
      ],
      "name": "NameReset",
      "type": "event"
    },
    {
      "anonymous": false,
      "inputs": [
        {
          "indexed": false,
          "internalType": "address",
          "name": "account",
          "type": "address"
        }
      ],
      "name": "Paused",
      "type": "event"
    },
    {
      "anonymous": false,
      "inputs": [
        {
          "indexed": true,
          "internalType": "bytes32",
          "name": "role",
          "type": "bytes32"
        },
        {
          "indexed": true,
          "internalType": "bytes32",
          "name": "previousAdminRole",
          "type": "bytes32"
        },
        {
          "indexed": true,
          "internalType": "bytes32",
          "name": "newAdminRole",
          "type": "bytes32"
        }
      ],
      "name": "RoleAdminChanged",
      "type": "event"
    },
    {
      "anonymous": false,
      "inputs": [
        {
          "indexed": true,
          "internalType": "bytes32",
          "name": "role",
          "type": "bytes32"
        },
        {
          "indexed": true,
          "internalType": "address",
          "name": "account",
          "type": "address"
        },
        {
          "indexed": true,
          "internalType": "address",
          "name": "sender",
          "type": "address"
        }
      ],
      "name": "RoleGranted",
      "type": "event"
    },
    {
      "anonymous": false,
      "inputs": [
        {
          "indexed": true,
          "internalType": "bytes32",
          "name": "role",
          "type": "bytes32"
        },
        {
          "indexed": true,
          "internalType": "address",
          "name": "account",
          "type": "address"
        },
        {
          "indexed": true,
          "internalType": "address",
          "name": "sender",
          "type": "address"
        }
      ],
      "name": "RoleRevoked",
      "type": "event"
    },
    {
      "anonymous": false,
      "inputs": [
        {
          "indexed": false,
          "internalType": "address",
          "name": "account",
          "type": "address"
        }
      ],
      "name": "Unpaused",
      "type": "event"
    },
    {
      "inputs": [],
      "name": "DEFAULT_ADMIN_ROLE",
      "outputs": [
        {
          "internalType": "bytes32",
          "name": "",
          "type": "bytes32"
        }
      ],
      "stateMutability": "view",
      "type": "function"
    },
    {
      "inputs": [],
      "name": "UPDATER_ROLE",
      "outputs": [
        {
          "internalType": "bytes32",
          "name": "",
          "type": "bytes32"
        }
      ],
      "stateMutability": "view",
      "type": "function"
    },
    {
      "inputs": [
        {
          "internalType": "address",
          "name": "nftAddress",
          "type": "address"
        }
      ],
      "name": "disableAsset",
      "outputs": [],
      "stateMutability": "nonpayable",
      "type": "function"
    },
    {
      "inputs": [
        {
          "internalType": "address",
          "name": "nftAddress",
          "type": "address"
        }
      ],
      "name": "enableAsset",
      "outputs": [],
      "stateMutability": "nonpayable",
      "type": "function"
    },
    {
      "inputs": [
        {
          "internalType": "bytes32",
          "name": "role",
          "type": "bytes32"
        }
      ],
      "name": "getRoleAdmin",
      "outputs": [
        {
          "internalType": "bytes32",
          "name": "",
          "type": "bytes32"
        }
      ],
      "stateMutability": "view",
      "type": "function"
    },
    {
      "inputs": [
        {
          "internalType": "bytes32",
          "name": "role",
          "type": "bytes32"
        },
        {
          "internalType": "address",
          "name": "account",
          "type": "address"
        }
      ],
      "name": "grantRole",
      "outputs": [],
      "stateMutability": "nonpayable",
      "type": "function"
    },
    {
      "inputs": [
        {
          "internalType": "bytes32",
          "name": "role",
          "type": "bytes32"
        },
        {
          "internalType": "address",
          "name": "account",
          "type": "address"
        }
      ],
      "name": "hasRole",
      "outputs": [
        {
          "internalType": "bool",
          "name": "",
          "type": "bool"
        }
      ],
      "stateMutability": "view",
      "type": "function"
    },
    {
      "inputs": [],
      "name": "initialize",
      "outputs": [],
      "stateMutability": "nonpayable",
      "type": "function"
    },
    {
      "inputs": [],
      "name": "nameChangeCost",
      "outputs": [
        {
          "internalType": "uint256",
          "name": "",
          "type": "uint256"
        }
      ],
      "stateMutability": "view",
      "type": "function"
    },
    {
      "inputs": [
        {
          "internalType": "address",
          "name": "nftAddress",
          "type": "address"
        },
        {
          "internalType": "uint256",
          "name": "tokenId",
          "type": "uint256"
        }
      ],
      "name": "nameOf",
      "outputs": [
        {
          "internalType": "string",
          "name": "",
          "type": "string"
        }
      ],
      "stateMutability": "view",
      "type": "function"
    },
    {
      "inputs": [
        {
          "internalType": "address",
          "name": "nftAddress",
          "type": "address"
        },
        {
          "internalType": "uint256[]",
          "name": "tokenIds",
          "type": "uint256[]"
        }
      ],
      "name": "namesOf",
      "outputs": [
        {
          "internalType": "string[]",
          "name": "",
          "type": "string[]"
        }
      ],
      "stateMutability": "view",
      "type": "function"
    },
    {
      "inputs": [],
      "name": "pause",
      "outputs": [],
      "stateMutability": "nonpayable",
      "type": "function"
    },
    {
      "inputs": [],
      "name": "paused",
      "outputs": [
        {
          "internalType": "bool",
          "name": "",
          "type": "bool"
        }
      ],
      "stateMutability": "view",
      "type": "function"
    },
    {
      "inputs": [
        {
          "internalType": "bytes32",
          "name": "role",
          "type": "bytes32"
        },
        {
          "internalType": "address",
          "name": "account",
          "type": "address"
        }
      ],
      "name": "renounceRole",
      "outputs": [],
      "stateMutability": "nonpayable",
      "type": "function"
    },
    {
      "inputs": [
        {
          "internalType": "address",
          "name": "nftAddress",
          "type": "address"
        },
        {
          "internalType": "uint256",
          "name": "tokenId",
          "type": "uint256"
        }
      ],
      "name": "resetNameOf",
      "outputs": [],
      "stateMutability": "nonpayable",
      "type": "function"
    },
    {
      "inputs": [
        {
          "internalType": "bytes32",
          "name": "role",
          "type": "bytes32"
        },
        {
          "internalType": "address",
          "name": "account",
          "type": "address"
        }
      ],
      "name": "revokeRole",
      "outputs": [],
      "stateMutability": "nonpayable",
      "type": "function"
    },
    {
      "inputs": [
        {
          "internalType": "contract IERC20Upgradeable",
          "name": "token",
          "type": "address"
        },
        {
          "internalType": "uint256",
          "name": "fee",
          "type": "uint256"
        }
      ],
      "name": "setFee",
      "outputs": [],
      "stateMutability": "nonpayable",
      "type": "function"
    },
    {
      "inputs": [
        {
          "internalType": "contract IGameStorageUpgradeable",
          "name": "_address",
          "type": "address"
        }
      ],
      "name": "setGameStorage",
      "outputs": [],
      "stateMutability": "nonpayable",
      "type": "function"
    },
    {
      "inputs": [
        {
          "internalType": "address",
          "name": "nftAddress",
          "type": "address"
        },
        {
          "internalType": "uint256",
          "name": "tokenId",
          "type": "uint256"
        },
        {
          "internalType": "string",
          "name": "name",
          "type": "string"
        }
      ],
      "name": "setNameOf",
      "outputs": [],
      "stateMutability": "nonpayable",
      "type": "function"
    },
    {
      "inputs": [
        {
          "internalType": "address",
          "name": "_address",
          "type": "address"
        }
      ],
      "name": "setTreasury",
      "outputs": [],
      "stateMutability": "nonpayable",
      "type": "function"
    },
    {
      "inputs": [
        {
          "internalType": "bytes4",
          "name": "interfaceId",
          "type": "bytes4"
        }
      ],
      "name": "supportsInterface",
      "outputs": [
        {
          "internalType": "bool",
          "name": "",
          "type": "bool"
        }
      ],
      "stateMutability": "view",
      "type": "function"
    },
    {
      "inputs": [],
      "name": "treasury",
      "outputs": [
        {
          "internalType": "address",
          "name": "",
          "type": "address"
        }
      ],
      "stateMutability": "view",
      "type": "function"
    },
    {
      "inputs": [],
      "name": "unpause",
      "outputs": [],
      "stateMutability": "nonpayable",
      "type": "function"
    }
  ],
  "bytecode": "0x608060405234801561001057600080fd5b5061001961001e565b6100de565b600054610100900460ff161561008a5760405162461bcd60e51b815260206004820152602760248201527f496e697469616c697a61626c653a20636f6e747261637420697320696e697469604482015266616c697a696e6760c81b606482015260840160405180910390fd5b60005460ff90811610156100dc576000805460ff191660ff9081179091556040519081527f7f26b83ff96e1f2b6a682f133852f6798a09c465da95921460cefb38474024989060200160405180910390a15b565b611b62806100ed6000396000f3fe608060405234801561001057600080fd5b506004361061014d5760003560e01c806361d027b3116100c3578063a217fddf1161007c578063a217fddf146102be578063aeac5e35146102c6578063d3a13d42146102e6578063d547741f146102f9578063e55156b51461030c578063f0f442601461031f57600080fd5b806361d027b31461023d57806370807528146102685780638129fc1c1461027b5780638456cb591461028357806391d148541461028b5780639b7c65731461029e57600080fd5b80632aef4024116101155780632aef4024146101dc5780632f2ff15d146101ef57806336568abe146102025780633f4ba83a1461021557806347e633801461021d5780635c975abb1461023257600080fd5b806301ffc9a7146101525780630e642c5a1461017a578063182acb1614610191578063248a9ca3146101a6578063291abe8a146101c9575b600080fd5b6101656101603660046113c4565b610332565b60405190151581526020015b60405180910390f35b61018360cb5481565b604051908152602001610171565b6101a461019f366004611472565b610369565b005b6101836101b436600461150e565b60009081526097602052604090206001015490565b6101a46101d7366004611527565b6106f6565b6101a46101ea366004611553565b6108a6565b6101a46101fd366004611570565b6108ce565b6101a4610210366004611570565b6108f3565b6101a4610971565b610183600080516020611b0d83398151915281565b60335460ff16610165565b60cc54610250906001600160a01b031681565b6040516001600160a01b039091168152602001610171565b6101a4610276366004611553565b610994565b6101a46109b7565b6101a4610b65565b610165610299366004611570565b610b85565b6102b16102ac3660046115c4565b610bb0565b60405161017191906116ba565b610183600081565b6102d96102d4366004611527565b610c32565b604051610171919061171c565b6101a46102f4366004611553565b610cb3565b6101a4610307366004611570565b610ce1565b6101a461031a366004611527565b610d06565b6101a461032d366004611553565b610d38565b60006001600160e01b03198216637965db0b60e01b148061036357506301ffc9a760e01b6001600160e01b03198316145b92915050565b610371610d66565b8282336040516331a9108f60e11b8152600481018390526001600160a01b0391821691841690636352211e90602401602060405180830381865afa1580156103bd573d6000803e3d6000fd5b505050506040513d601f19601f820116820180604052508101906103e1919061172f565b6001600160a01b0316146104105760405162461bcd60e51b81526004016104079061174c565b60405180910390fd5b8461041c60cf82610dae565b6104385760405162461bcd60e51b81526004016104079061174c565b60006104448787610c32565b8551909150819086906104995760405162461bcd60e51b815260206004820152601e60248201527f4173736574437573746f6d697a6174696f6e3a20456d707479206e616d6500006044820152606401610407565b6104a282611783565b6104ab82611783565b036105035760405162461bcd60e51b815260206004820152602260248201527f4173736574437573746f6d697a6174696f6e3a204e616d6520756e6368616e67604482015261195960f21b6064820152608401610407565b61051761050f82611783565b60cd90610dd0565b61056f5760405162461bcd60e51b8152602060048201526024808201527f4173736574437573746f6d697a6174696f6e3a204e616d6520756e617661696c60448201526361626c6560e01b6064820152608401610407565b61058361057b83611783565b60cd90610ddc565b1561059e5761059c61059483611783565b60cd90610df4565b505b60ca546001600160a01b03166323b872dd3360cc5460cb5460405160e085901b6001600160e01b03191681526001600160a01b03938416600482015292909116602483015260448201526064016020604051808303816000875af115801561060a573d6000803e3d6000fd5b505050506040513d601f19601f8201168201806040525081019061062e91906117aa565b5060c95460405163a2b990a960e01b81526001600160a01b039091169063a2b990a990610666908c908c906000908d906004016117cc565b600060405180830381600087803b15801561068057600080fd5b505af1158015610694573d6000803e3d6000fd5b50505050886001600160a01b03166106a93390565b6001600160a01b03167f23ec6197218631bb135a3e9d3aae7cb20769157ed09ff4c1f22ab90c44fed7538a8a6040516106e3929190611803565b60405180910390a3505050505050505050565b6106fe610d66565b8181336040516331a9108f60e11b8152600481018390526001600160a01b0391821691841690636352211e90602401602060405180830381865afa15801561074a573d6000803e3d6000fd5b505050506040513d601f19601f8201168201806040525081019061076e919061172f565b6001600160a01b0316146107945760405162461bcd60e51b81526004016104079061174c565b836107a060cf82610dae565b6107bc5760405162461bcd60e51b81526004016104079061174c565b60006107c88686610c32565b805190915081901561085d576107e061059482611783565b5060c95460405163a2b990a960e01b81526001600160a01b038981166004830152602482018990526000604483018190526080606484015260848301529091169063a2b990a99060a401600060405180830381600087803b15801561084457600080fd5b505af1158015610858573d6000803e3d6000fd5b505050505b6040518681526001600160a01b0388169033907f9a4ce7751d7484ea06045ea6f4ff145e4e083a2d93c54ea0461613ed5714afb59060200160405180910390a350505050505050565b600080516020611b0d8339815191526108be81610e00565b6108c960cf83610e0a565b505050565b6000828152609760205260409020600101546108e981610e00565b6108c98383610e1f565b6001600160a01b03811633146109635760405162461bcd60e51b815260206004820152602f60248201527f416363657373436f6e74726f6c3a2063616e206f6e6c792072656e6f756e636560448201526e103937b632b9903337b91039b2b63360891b6064820152608401610407565b61096d8282610ea5565b5050565b600080516020611b0d83398151915261098981610e00565b610991610f0c565b50565b600080516020611b0d8339815191526109ac81610e00565b6108c960cf83610f5e565b600054610100900460ff16158080156109d75750600054600160ff909116105b806109f15750303b1580156109f1575060005460ff166001145b610a545760405162461bcd60e51b815260206004820152602e60248201527f496e697469616c697a61626c653a20636f6e747261637420697320616c72656160448201526d191e481a5b9a5d1a585b1a5e995960921b6064820152608401610407565b6000805460ff191660011790558015610a77576000805461ff0019166101001790555b610a7f610f73565b610a87610fa2565b610a92600033610e1f565b610aaa600080516020611b0d83398151915233610e1f565b60c980546001600160a01b0319908116733a55ffc97d2183d94147c4d2d3b6991f0c09abf41790915560ca80548216739a8e0217cd870783c3f2317985c57bf57096915317905560cc805490911673d2578a0b2631e591890f28499e9e8d73f21e58951790556806c6b935b8bbd4000060cb558015610991576000805461ff0019169055604051600181527f7f26b83ff96e1f2b6a682f133852f6798a09c465da95921460cefb38474024989060200160405180910390a150565b600080516020611b0d833981519152610b7d81610e00565b610991610fc9565b60009182526097602090815260408084206001600160a01b0393909316845291905290205460ff1690565b60c95460405163596c4a9960e11b81526060916001600160a01b03169063b2d8953290610be69086908690600090600401611824565b600060405180830381865afa158015610c03573d6000803e3d6000fd5b505050506040513d6000823e601f3d908101601f19168201604052610c2b91908101906118c8565b9392505050565b60c9546040516329a6454b60e01b81526001600160a01b038481166004830152602482018490526000604483015260609216906329a6454b90606401600060405180830381865afa158015610c8b573d6000803e3d6000fd5b505050506040513d6000823e601f3d908101601f19168201604052610c2b9190810190611979565b6000610cbe81610e00565b5060c980546001600160a01b0319166001600160a01b0392909216919091179055565b600082815260976020526040902060010154610cfc81610e00565b6108c98383610ea5565b6000610d1181610e00565b5060ca80546001600160a01b0319166001600160a01b03939093169290921790915560cb55565b6000610d4381610e00565b5060cc80546001600160a01b0319166001600160a01b0392909216919091179055565b60335460ff1615610dac5760405162461bcd60e51b815260206004820152601060248201526f14185d5cd8589b194e881c185d5cd95960821b6044820152606401610407565b565b6001600160a01b03811660009081526001830160205260408120541515610c2b565b6000610c2b8383611006565b60008181526001830160205260408120541515610c2b565b6000610c2b8383611055565b6109918133611148565b6000610c2b836001600160a01b038416611006565b610e298282610b85565b61096d5760008281526097602090815260408083206001600160a01b03851684529091529020805460ff19166001179055610e613390565b6001600160a01b0316816001600160a01b0316837f2f8788117e7eff1d82e926ec794901d17c78024a50270940304540a733656f0d60405160405180910390a45050565b610eaf8282610b85565b1561096d5760008281526097602090815260408083206001600160a01b0385168085529252808320805460ff1916905551339285917ff6391f5c32d9c69d2a47ea670b442974b53935d1edc7fd64eb21e047a839171b9190a45050565b610f146111ac565b6033805460ff191690557f5db9ee0a495bf2e6ff9c91a7834c1ba4fdd244a5e8aa4e537bd38aeae4b073aa335b6040516001600160a01b03909116815260200160405180910390a1565b6000610c2b836001600160a01b038416611055565b600054610100900460ff16610f9a5760405162461bcd60e51b8152600401610407906119ae565b610dac6111f5565b600054610100900460ff16610dac5760405162461bcd60e51b8152600401610407906119ae565b610fd1610d66565b6033805460ff191660011790557f62e78cea01bee320cd4e420270b5ea74000d11b0c9f74754ebdbfc544b05a258610f413390565b600081815260018301602052604081205461104d57508154600181810184556000848152602080822090930184905584548482528286019093526040902091909155610363565b506000610363565b6000818152600183016020526040812054801561113e576000611079600183611a0f565b855490915060009061108d90600190611a0f565b90508181146110f25760008660000182815481106110ad576110ad611a22565b90600052602060002001549050808760000184815481106110d0576110d0611a22565b6000918252602080832090910192909255918252600188019052604090208390555b855486908061110357611103611a38565b600190038181906000526020600020016000905590558560010160008681526020019081526020016000206000905560019350505050610363565b6000915050610363565b6111528282610b85565b61096d5761116a816001600160a01b03166014611228565b611175836020611228565b604051602001611186929190611a4e565b60408051601f198184030181529082905262461bcd60e51b82526104079160040161171c565b60335460ff16610dac5760405162461bcd60e51b815260206004820152601460248201527314185d5cd8589b194e881b9bdd081c185d5cd95960621b6044820152606401610407565b600054610100900460ff1661121c5760405162461bcd60e51b8152600401610407906119ae565b6033805460ff19169055565b60606000611237836002611ac3565b611242906002611ae2565b67ffffffffffffffff81111561125a5761125a611403565b6040519080825280601f01601f191660200182016040528015611284576020820181803683370190505b509050600360fc1b8160008151811061129f5761129f611a22565b60200101906001600160f81b031916908160001a905350600f60fb1b816001815181106112ce576112ce611a22565b60200101906001600160f81b031916908160001a90535060006112f2846002611ac3565b6112fd906001611ae2565b90505b6001811115611375576f181899199a1a9b1b9c1cb0b131b232b360811b85600f166010811061133157611331611a22565b1a60f81b82828151811061134757611347611a22565b60200101906001600160f81b031916908160001a90535060049490941c9361136e81611af5565b9050611300565b508315610c2b5760405162461bcd60e51b815260206004820181905260248201527f537472696e67733a20686578206c656e67746820696e73756666696369656e746044820152606401610407565b6000602082840312156113d657600080fd5b81356001600160e01b031981168114610c2b57600080fd5b6001600160a01b038116811461099157600080fd5b634e487b7160e01b600052604160045260246000fd5b604051601f8201601f1916810167ffffffffffffffff8111828210171561144257611442611403565b604052919050565b600067ffffffffffffffff82111561146457611464611403565b50601f01601f191660200190565b60008060006060848603121561148757600080fd5b8335611492816113ee565b925060208401359150604084013567ffffffffffffffff8111156114b557600080fd5b8401601f810186136114c657600080fd5b80356114d96114d48261144a565b611419565b8181528760208385010111156114ee57600080fd5b816020840160208301376000602083830101528093505050509250925092565b60006020828403121561152057600080fd5b5035919050565b6000806040838503121561153a57600080fd5b8235611545816113ee565b946020939093013593505050565b60006020828403121561156557600080fd5b8135610c2b816113ee565b6000806040838503121561158357600080fd5b823591506020830135611595816113ee565b809150509250929050565b600067ffffffffffffffff8211156115ba576115ba611403565b5060051b60200190565b600080604083850312156115d757600080fd5b82356115e2816113ee565b915060208381013567ffffffffffffffff8111156115ff57600080fd5b8401601f8101861361161057600080fd5b803561161e6114d4826115a0565b81815260059190911b8201830190838101908883111561163d57600080fd5b928401925b8284101561165b57833582529284019290840190611642565b80955050505050509250929050565b60005b8381101561168557818101518382015260200161166d565b50506000910152565b600081518084526116a681602086016020860161166a565b601f01601f19169290920160200192915050565b6000602080830181845280855180835260408601915060408160051b870101925083870160005b8281101561170f57603f198886030184526116fd85835161168e565b945092850192908501906001016116e1565b5092979650505050505050565b602081526000610c2b602083018461168e565b60006020828403121561174157600080fd5b8151610c2b816113ee565b6020808252601d908201527f4173736574437573746f6d697a6174696f6e3a204e6f74204f776e6572000000604082015260600190565b805160208083015191908110156117a4576000198160200360031b1b821691505b50919050565b6000602082840312156117bc57600080fd5b81518015158114610c2b57600080fd5b60018060a01b03851681528360208201528260408201526080606082015260006117f9608083018461168e565b9695505050505050565b82815260406020820152600061181c604083018461168e565b949350505050565b6001600160a01b038416815260606020808301829052845191830182905260009185820191906080850190845b8181101561186d57845183529383019391830191600101611851565b5050809350505050826040830152949350505050565b600082601f83011261189457600080fd5b81516118a26114d48261144a565b8181528460208386010111156118b757600080fd5b61181c82602083016020870161166a565b600060208083850312156118db57600080fd5b825167ffffffffffffffff808211156118f357600080fd5b818501915085601f83011261190757600080fd5b81516119156114d4826115a0565b81815260059190911b8301840190848101908883111561193457600080fd5b8585015b8381101561196c578051858111156119505760008081fd5b61195e8b89838a0101611883565b845250918601918601611938565b5098975050505050505050565b60006020828403121561198b57600080fd5b815167ffffffffffffffff8111156119a257600080fd5b61181c84828501611883565b6020808252602b908201527f496e697469616c697a61626c653a20636f6e7472616374206973206e6f74206960408201526a6e697469616c697a696e6760a81b606082015260800190565b634e487b7160e01b600052601160045260246000fd5b81810381811115610363576103636119f9565b634e487b7160e01b600052603260045260246000fd5b634e487b7160e01b600052603160045260246000fd5b7f416363657373436f6e74726f6c3a206163636f756e7420000000000000000000815260008351611a8681601785016020880161166a565b7001034b99036b4b9b9b4b733903937b6329607d1b6017918401918201528351611ab781602884016020880161166a565b01602801949350505050565b6000816000190483118215151615611add57611add6119f9565b500290565b80820180821115610363576103636119f9565b600081611b0457611b046119f9565b50600019019056fe73e573f9566d61418a34d5de3ff49360f9c51fec37f7486551670290f6285daba2646970667358221220c56303956ae77e705f2cfcbf7df4e472993767cc531441b2c9fe01f27a6a916864736f6c63430008100033",
  "linkReferences": {},
  "deployedLinkReferences": {}
}